{
	"data": {
		"bytecode": {
			"linkReferences": {
				"remix_tests.sol": {
					"Assert": [
						{
							"length": 20,
							"start": 1265
						},
						{
							"length": 20,
							"start": 1410
						}
					]
				}
			},
			"object": "608060405234801561000f575f80fd5b506152518061001d5f395ff3fe608060405234801561000f575f80fd5b5060043610610034575f3560e01c80637fea0d4b14610038578063a3bd541414610042575b5f80fd5b61004061004c565b005b61004a61014f565b005b604051610058906106c5565b604051809103905ff080158015610071573d5f803e3d5ffd5b505f806101000a81548173ffffffffffffffffffffffffffffffffffffffff021916908373ffffffffffffffffffffffffffffffffffffffff1602179055505f8054906101000a900473ffffffffffffffffffffffffffffffffffffffff1673ffffffffffffffffffffffffffffffffffffffff166392099c217338a2e968077a7a13b8d7326c35c921da0000847e6103e86040518363ffffffff1660e01b8152600401610120929190610766565b5f604051808303815f87803b158015610137575f80fd5b505af1158015610149573d5f803e3d5ffd5b50505050565b5f600467ffffffffffffffff81111561016b5761016a61078d565b5b60405190808252806020026020018201604052801561019e57816020015b60608152602001906001900390816101895790505b5090506040518060400160405280600381526020017f6162630000000000000000000000000000000000000000000000000000000000815250815f815181106101ea576101e96107ba565b5b60200260200101819052506040518060400160405280600381526020017f64656600000000000000000000000000000000000000000000000000000000008152508160018151811061023f5761023e6107ba565b5b60200260200101819052506040518060400160405280600381526020017f676869000000000000000000000000000000000000000000000000000000000081525081600281518110610294576102936107ba565b5b60200260200101819052506040518060400160405280600781526020017f6a6b6c6d6e6f7000000000000000000000000000000000000000000000000000815250816003815181106102e9576102e86107ba565b5b60200260200101819052505f6040518060400160405280600981526020017f74657374312e747874000000000000000000000000000000000000000000000081525090505f6040518060400160405280600481526020017f2e7478740000000000000000000000000000000000000000000000000000000081525090505f6040518060400160405280600481526020017f374269740000000000000000000000000000000000000000000000000000000081525090505f6040518060400160405280601381526020017f75693132662d326a6637642d616a64306173640000000000000000000000000081525090505f606490505f808054906101000a900473ffffffffffffffffffffffffffffffffffffffff1673ffffffffffffffffffffffffffffffffffffffff1663528aecce8888888888886040518763ffffffff1660e01b815260040161044096959493929190610983565b5f604051808303815f87803b158015610457575f80fd5b505af1925050508015610468575060015b61055e57610474610a11565b806308c379a00361054f5750610488610a6a565b806104935750610551565b6104d26040518060400160405280600681526020017f726561736f6e0000000000000000000000000000000000000000000000000000815250826105e5565b73__$acbfb1c35000d78352310b16a054a6b106$__63e8c2cb16826040518263ffffffff1660e01b81526004016105099190610bfb565b602060405180830381865af4158015610524573d5f803e3d5ffd5b505050506040513d601f19601f820116820180604052508101906105489190610c7a565b5050610559565b505b3d5f803e3d5ffd5b610563565b600190505b73__$acbfb1c35000d78352310b16a054a6b106$__63767392b3825f6040518363ffffffff1660e01b815260040161059c929190610d24565b602060405180830381865af41580156105b7573d5f803e3d5ffd5b505050506040513d601f19601f820116820180604052508101906105db9190610c7a565b5050505050505050565b61067d82826040516024016105fb929190610d5e565b6040516020818303038152906040527f4b5c4277000000000000000000000000000000000000000000000000000000007bffffffffffffffffffffffffffffffffffffffffffffffffffffffff19166020820180517bffffffffffffffffffffffffffffffffffffffffffffffffffffffff8381831617835250505050610681565b5050565b6106988161069061069b6106ba565b63ffffffff16565b50565b5f6a636f6e736f6c652e6c6f6790505f80835160208501845afa505050565b6106d2819050919050565b61445b80610dc183390190565b6106da610d93565b565b5f73ffffffffffffffffffffffffffffffffffffffff82169050919050565b5f610705826106dc565b9050919050565b610715816106fb565b82525050565b5f819050919050565b5f819050919050565b5f819050919050565b5f61075061074b6107468461071b565b61072d565b610724565b9050919050565b61076081610736565b82525050565b5f6040820190506107795f83018561070c565b6107866020830184610757565b9392505050565b7f4e487b71000000000000000000000000000000000000000000000000000000005f52604160045260245ffd5b7f4e487b71000000000000000000000000000000000000000000000000000000005f52603260045260245ffd5b5f81519050919050565b5f82825260208201905092915050565b5f819050602082019050919050565b5f81519050919050565b5f82825260208201905092915050565b5f5b8381101561084757808201518184015260208101905061082c565b5f8484015250505050565b5f601f19601f8301169050919050565b5f61086c82610810565b610876818561081a565b935061088681856020860161082a565b61088f81610852565b840191505092915050565b5f6108a58383610862565b905092915050565b5f602082019050919050565b5f6108c3826107e7565b6108cd81856107f1565b9350836020820285016108df85610801565b805f5b8581101561091a57848403895281516108fb858261089a565b9450610906836108ad565b925060208a019950506001810190506108e2565b50829750879550505050505092915050565b5f82825260208201905092915050565b5f61094682610810565b610950818561092c565b935061096081856020860161082a565b61096981610852565b840191505092915050565b61097d81610724565b82525050565b5f60c0820190508181035f83015261099b81896108b9565b905081810360208301526109af818861093c565b905081810360408301526109c3818761093c565b905081810360608301526109d7818661093c565b905081810360808301526109eb818561093c565b90506109fa60a0830184610974565b979650505050505050565b5f8160e01c9050919050565b5f60033d1115610a2d5760045f803e610a2a5f51610a05565b90505b90565b5f604051905090565b610a4282610852565b810181811067ffffffffffffffff82111715610a6157610a6061078d565b5b80604052505050565b5f60443d10610af657610a7b610a30565b60043d036004823e80513d602482011167ffffffffffffffff82111715610aa3575050610af6565b808201805167ffffffffffffffff811115610ac15750505050610af6565b80602083010160043d038501811115610ade575050505050610af6565b610aed82602001850186610a39565b82955050505050505b90565b5f82825260208201905092915050565b5f610b1382610810565b610b1d8185610af9565b9350610b2d81856020860161082a565b610b3681610852565b840191505092915050565b7f73746f726546696c653a204e6f20617661696c61626c65206e6f64657320666f5f8201527f756e640000000000000000000000000000000000000000000000000000000000602082015250565b5f610b9b602383610af9565b9150610ba682610b41565b604082019050919050565b7f4661696c6564207769746820756e657870656374656420726561736f6e0000005f82015250565b5f610be5601d83610af9565b9150610bf082610bb1565b602082019050919050565b5f6060820190508181035f830152610c138184610b09565b90508181036020830152610c2681610b8f565b90508181036040830152610c3981610bd9565b905092915050565b5f80fd5b5f8115159050919050565b610c5981610c45565b8114610c63575f80fd5b50565b5f81519050610c7481610c50565b92915050565b5f60208284031215610c8f57610c8e610c41565b5b5f610c9c84828501610c66565b91505092915050565b610cae81610c45565b82525050565b7f73746f726546696c6520646964206e6f742072657665727420617320657870655f8201527f6374656400000000000000000000000000000000000000000000000000000000602082015250565b5f610d0e602483610af9565b9150610d1982610cb4565b604082019050919050565b5f606082019050610d375f830185610ca5565b610d446020830184610ca5565b8181036040830152610d5581610d02565b90509392505050565b5f6040820190508181035f830152610d76818561093c565b90508181036020830152610d8a818461093c565b90509392505050565b7f4e487b71000000000000000000000000000000000000000000000000000000005f52605160045260245ffdfe608060405260035f556064600155348015610018575f80fd5b503360065f6101000a81548173ffffffffffffffffffffffffffffffffffffffff021916908373ffffffffffffffffffffffffffffffffffffffff1602179055506143f5806100665f395ff3fe608060405234801561000f575f80fd5b506004361061012a575f3560e01c806367e9c8d1116100ab578063a99100541161006f578063a99100541461033d578063b23793d614610359578063c6e24c9014610389578063cf86bf93146103b9578063fe72ae13146103d75761012a565b806367e9c8d1146102995780638da5cb5b146102b557806392099c21146102d3578063a1174e7d146102ef578063a98603081461030d5761012a565b8063583caf96116100f2578063583caf96146101f75780635945646c146102275780635d44762b146102435780635ffd7c061461025f578063664dce3f1461027d5761012a565b806311bd77fe1461012e578063189a5a171461014a578063196815d21461017b57806330e00c9b146101ab578063528aecce146101db575b5f80fd5b61014860048036038101906101439190612b3b565b610407565b005b610164600480360381019061015f9190612b79565b610627565b604051610172929190612bc2565b60405180910390f35b61019560048036038101906101909190612e07565b610666565b6040516101a29190612e66565b60405180910390f35b6101c560048036038101906101c09190612e7f565b6106e0565b6040516101d29190612ed9565b60405180910390f35b6101f560048036038101906101f09190612ef2565b610740565b005b610211600480360381019061020c9190613007565b610b20565b60405161021e91906132a0565b60405180910390f35b610241600480360381019061023c9190613007565b610ffe565b005b61025d600480360381019061025891906132c0565b6110c7565b005b6102676112c3565b604051610274919061335c565b60405180910390f35b61029760048036038101906102929190613007565b6112c8565b005b6102b360048036038101906102ae919061339f565b611337565b005b6102bd611453565b6040516102ca9190612ed9565b60405180910390f35b6102ed60048036038101906102e89190612b3b565b611478565b005b6102f7611486565b6040516103049190613465565b60405180910390f35b61032760048036038101906103229190612b79565b611511565b60405161033491906134b2565b60405180910390f35b61035760048036038101906103529190613007565b6115c6565b005b610373600480360381019061036e9190613007565b611e3e565b6040516103809190613465565b60405180910390f35b6103a3600480360381019061039e919061358b565b611f4a565b6040516103b09190612ed9565b60405180910390f35b6103c161213f565b6040516103ce919061335c565b60405180910390f35b6103f160048036038101906103ec91906135e5565b612145565b6040516103fe9190612ed9565b60405180910390f35b5f73ffffffffffffffffffffffffffffffffffffffff1660035f8473ffffffffffffffffffffffffffffffffffffffff1673ffffffffffffffffffffffffffffffffffffffff1681526020019081526020015f205f015f9054906101000a900473ffffffffffffffffffffffffffffffffffffffff1673ffffffffffffffffffffffffffffffffffffffff16146104d3576040517f08c379a00000000000000000000000000000000000000000000000000000000081526004016104ca90613690565b60405180910390fd5b60405180604001604052808373ffffffffffffffffffffffffffffffffffffffff1681526020018281525060035f8473ffffffffffffffffffffffffffffffffffffffff1673ffffffffffffffffffffffffffffffffffffffff1681526020019081526020015f205f820151815f015f6101000a81548173ffffffffffffffffffffffffffffffffffffffff021916908373ffffffffffffffffffffffffffffffffffffffff160217905550602082015181600101559050507f5f91b0afd2c6ef8da92137ba907bccdc85ec4856a15ad39de3e0eff02be6d70e826040516105bb9190612ed9565b60405180910390a1600582908060018154018082558091505060019003905f5260205f20015f9091909190916101000a81548173ffffffffffffffffffffffffffffffffffffffff021916908373ffffffffffffffffffffffffffffffffffffffff1602179055505050565b6003602052805f5260405f205f91509050805f015f9054906101000a900473ffffffffffffffffffffffffffffffffffffffff16908060010154905082565b5f8060405180602001604052805f81525090505f5b83518110156106cf5781848281518110610698576106976136ae565b5b60200260200101516040516020016106b1929190613759565b6040516020818303038152906040529150808060010191505061067b565b508080519060200120915050919050565b6004828051602081018201805184825260208301602085012081835280955050505050508181548110610711575f80fd5b905f5260205f20015f915091509054906101000a900473ffffffffffffffffffffffffffffffffffffffff1681565b5f60058054905014156040518060600160405280602381526020016142ed60239139906107a3576040517f08c379a000000000000000000000000000000000000000000000000000000000815260040161079a91906137b4565b60405180910390fd5b505f801b6107b083612180565b146040518060400160405280601c81526020017f73746f726546696c653a204475706c69636174652046696c652049640000000081525090610828576040517f08c379a000000000000000000000000000000000000000000000000000000000815260040161081f91906137b4565b60405180910390fd5b505f5b8651811015610ae55760075f6108419190612975565b5f878281518110610855576108546136ae565b5b60200260200101515190505f80805490506003600580549050101561087d5760058054905090505b6108bd6040518060400160405280601381526020017f4475706c69636174696f6e20737461727465640000000000000000000000000081525083836121ea565b5b80821015610ab3575f61095484600780548060200260200160405190810160405280929190818152602001828054801561094a57602002820191905f5260205f20905b815f9054906101000a900473ffffffffffffffffffffffffffffffffffffffff1673ffffffffffffffffffffffffffffffffffffffff1681526020019060010190808311610901575b5050505050611f4a565b90507f5f91b0afd2c6ef8da92137ba907bccdc85ec4856a15ad39de3e0eff02be6d70e816040516109859190612ed9565b60405180910390a1600781908060018154018082558091505060019003905f5260205f20015f9091909190916101000a81548173ffffffffffffffffffffffffffffffffffffffff021916908373ffffffffffffffffffffffffffffffffffffffff1602179055507fb011a0da2bacc57f5c2ddf79f5c8e86484a4fc528f15571a48a9d47956bc82be81604051610a1c9190612ed9565b60405180910390a18280610a2f90613801565b935050610a58818c8781518110610a4957610a486136ae565b5b602002602001015189886110c7565b610aad818560035f8573ffffffffffffffffffffffffffffffffffffffff1673ffffffffffffffffffffffffffffffffffffffff1681526020019081526020015f2060010154610aa89190613848565b612289565b506108be565b610ad56040518060600160405280602c81526020016142c1602c91398561239e565b505050808060010191505061082b565b5060075f610af39190612975565b5f610afd87610666565b9050610b098184611337565b610b1786868387878761243a565b50505050505050565b610b28612993565b5f60085f3373ffffffffffffffffffffffffffffffffffffffff1673ffffffffffffffffffffffffffffffffffffffff1681526020019081526020015f20805480602002602001604051908101604052809291908181526020015f905b82821015610e68578382905f5260205f209060080201604051806101000160405290815f82018054610bb6906138a8565b80601f0160208091040260200160405190810160405280929190818152602001828054610be2906138a8565b8015610c2d5780601f10610c0457610100808354040283529160200191610c2d565b820191905f5260205f20905b815481529060010190602001808311610c1057829003601f168201915b50505050508152602001600182018054610c46906138a8565b80601f0160208091040260200160405190810160405280929190818152602001828054610c72906138a8565b8015610cbd5780601f10610c9457610100808354040283529160200191610cbd565b820191905f5260205f20905b815481529060010190602001808311610ca057829003601f168201915b50505050508152602001600282018054610cd6906138a8565b80601f0160208091040260200160405190810160405280929190818152602001828054610d02906138a8565b8015610d4d5780601f10610d2457610100808354040283529160200191610d4d565b820191905f5260205f20905b815481529060010190602001808311610d3057829003601f168201915b50505050508152602001600382015481526020016004820154815260200160058201548152602001600682015f9054906101000a900473ffffffffffffffffffffffffffffffffffffffff1673ffffffffffffffffffffffffffffffffffffffff1673ffffffffffffffffffffffffffffffffffffffff168152602001600782018054610dd9906138a8565b80601f0160208091040260200160405190810160405280929190818152602001828054610e05906138a8565b8015610e505780601f10610e2757610100808354040283529160200191610e50565b820191905f5260205f20905b815481529060010190602001808311610e3357829003601f168201915b50505050508152505081526020019060010190610b85565b5050505090505f5b8151811015610ef257610ea0828281518110610e8f57610e8e6136ae565b5b60200260200101515f01518561285b565b15610ee5576040518060400160405280838381518110610ec357610ec26136ae565b5b60200260200101518152602001610ed986611e3e565b81525092505050610ff9565b8080600101915050610e70565b505f6040518060600160405280602381526020016143556023913990610f4e576040517f08c379a0000000000000000000000000000000000000000000000000000000008152600401610f4591906137b4565b60405180910390fd5b5060605f60405180610100016040528060405180602001604052805f815250815260200160405180602001604052805f815250815260200160405180602001604052805f81525081526020015f801b81526020015f81526020015f81526020015f73ffffffffffffffffffffffffffffffffffffffff16815260200160405180602001604052805f815250815250905060405180604001604052808281526020018381525093505050505b919050565b5f815111611041576040517f08c379a000000000000000000000000000000000000000000000000000000000815260040161103890613922565b60405180910390fd5b5f801b6002826040516110549190613940565b908152602001604051809103902054036110a3576040517f08c379a000000000000000000000000000000000000000000000000000000000815260040161109a906139c6565b60405180910390fd5b6002816040516110b39190613940565b90815260200160405180910390205f905550565b5f73ffffffffffffffffffffffffffffffffffffffff1660035f8673ffffffffffffffffffffffffffffffffffffffff1673ffffffffffffffffffffffffffffffffffffffff1681526020019081526020015f205f015f9054906101000a900473ffffffffffffffffffffffffffffffffffffffff1673ffffffffffffffffffffffffffffffffffffffff1603611193576040517f08c379a000000000000000000000000000000000000000000000000000000000815260040161118a90613a54565b60405180910390fd5b61123c846004846040516111a79190613940565b908152602001604051809103902080548060200260200160405190810160405280929190818152602001828054801561123257602002820191905f5260205f20905b815f9054906101000a900473ffffffffffffffffffffffffffffffffffffffff1673ffffffffffffffffffffffffffffffffffffffff16815260200190600101908083116111e9575b50505050506128b3565b6112bd576004826040516112509190613940565b908152602001604051809103902084908060018154018082558091505060019003905f5260205f20015f9091909190916101000a81548173ffffffffffffffffffffffffffffffffffffffff021916908373ffffffffffffffffffffffffffffffffffffffff1602179055505b50505050565b5f5481565b5f81511161130b576040517f08c379a000000000000000000000000000000000000000000000000000000000815260040161130290613ae2565b60405180910390fd5b60048160405161131b9190613940565b90815260200160405180910390205f6113349190612975565b50565b5f73ffffffffffffffffffffffffffffffffffffffff163373ffffffffffffffffffffffffffffffffffffffff16036113a5576040517f08c379a000000000000000000000000000000000000000000000000000000000815260040161139c90613b4a565b60405180910390fd5b5f801b82036113e9576040517f08c379a00000000000000000000000000000000000000000000000000000000081526004016113e090613bb2565b60405180910390fd5b5f81511161142c576040517f08c379a000000000000000000000000000000000000000000000000000000000815260040161142390613c1a565b60405180910390fd5b8160028260405161143d9190613940565b9081526020016040518091039020819055505050565b60065f9054906101000a900473ffffffffffffffffffffffffffffffffffffffff1681565b6114828282610407565b5050565b6060600580548060200260200160405190810160405280929190818152602001828054801561150757602002820191905f5260205f20905b815f9054906101000a900473ffffffffffffffffffffffffffffffffffffffff1673ffffffffffffffffffffffffffffffffffffffff16815260200190600101908083116114be575b5050505050905090565b6115196129b3565b60035f8373ffffffffffffffffffffffffffffffffffffffff1673ffffffffffffffffffffffffffffffffffffffff1681526020019081526020015f206040518060400160405290815f82015f9054906101000a900473ffffffffffffffffffffffffffffffffffffffff1673ffffffffffffffffffffffffffffffffffffffff1673ffffffffffffffffffffffffffffffffffffffff1681526020016001820154815250509050919050565b5f60085f3373ffffffffffffffffffffffffffffffffffffffff1673ffffffffffffffffffffffffffffffffffffffff1681526020019081526020015f2080549050116040518060400160405280601b81526020017f64656c65746546696c653a20496e76616c69642066696c65206964000000000081525090611680576040517f08c379a000000000000000000000000000000000000000000000000000000000815260040161167791906137b4565b60405180910390fd5b505f60085f3373ffffffffffffffffffffffffffffffffffffffff1673ffffffffffffffffffffffffffffffffffffffff1681526020019081526020015f20805480602002602001604051908101604052809291908181526020015f905b828210156119c1578382905f5260205f209060080201604051806101000160405290815f8201805461170f906138a8565b80601f016020809104026020016040519081016040528092919081815260200182805461173b906138a8565b80156117865780601f1061175d57610100808354040283529160200191611786565b820191905f5260205f20905b81548152906001019060200180831161176957829003601f168201915b5050505050815260200160018201805461179f906138a8565b80601f01602080910402602001604051908101604052809291908181526020018280546117cb906138a8565b80156118165780601f106117ed57610100808354040283529160200191611816565b820191905f5260205f20905b8154815290600101906020018083116117f957829003601f168201915b5050505050815260200160028201805461182f906138a8565b80601f016020809104026020016040519081016040528092919081815260200182805461185b906138a8565b80156118a65780601f1061187d576101008083540402835291602001916118a6565b820191905f5260205f20905b81548152906001019060200180831161188957829003601f168201915b50505050508152602001600382015481526020016004820154815260200160058201548152602001600682015f9054906101000a900473ffffffffffffffffffffffffffffffffffffffff1673ffffffffffffffffffffffffffffffffffffffff1673ffffffffffffffffffffffffffffffffffffffff168152602001600782018054611932906138a8565b80601f016020809104026020016040519081016040528092919081815260200182805461195e906138a8565b80156119a95780601f10611980576101008083540402835291602001916119a9565b820191905f5260205f20905b81548152906001019060200180831161198c57829003601f168201915b505050505081525050815260200190600101906116de565b5050505090505f600182516119d69190613848565b90505f8282815181106119ec576119eb6136ae565b5b602002602001015190506119fe6129e1565b5f805b8551811015611b7e57611a31868281518110611a2057611a1f6136ae565b5b60200260200101515f01518861285b565b15611b715760019150858181518110611a4d57611a4c6136ae565b5b602002602001015192508360085f3373ffffffffffffffffffffffffffffffffffffffff1673ffffffffffffffffffffffffffffffffffffffff1681526020019081526020015f208281548110611aa757611aa66136ae565b5b905f5260205f2090600802015f820151815f019081611ac69190613dd5565b506020820151816001019081611adc9190613dd5565b506040820151816002019081611af29190613dd5565b50606082015181600301556080820151816004015560a0820151816005015560c0820151816006015f6101000a81548173ffffffffffffffffffffffffffffffffffffffff021916908373ffffffffffffffffffffffffffffffffffffffff16021790555060e0820151816007019081611b6c9190613dd5565b509050505b8080600101915050611a01565b50806040518060400160405280601a81526020017f64656c65746546696c653a2046696c65204e6f7420666f756e6400000000000081525090611bf7576040517f08c379a0000000000000000000000000000000000000000000000000000000008152600401611bee91906137b4565b60405180910390fd5b508160085f3373ffffffffffffffffffffffffffffffffffffffff1673ffffffffffffffffffffffffffffffffffffffff1681526020019081526020015f208581548110611c4857611c476136ae565b5b905f5260205f2090600802015f820151815f019081611c679190613dd5565b506020820151816001019081611c7d9190613dd5565b506040820151816002019081611c939190613dd5565b50606082015181600301556080820151816004015560a0820151816005015560c0820151816006015f6101000a81548173ffffffffffffffffffffffffffffffffffffffff021916908373ffffffffffffffffffffffffffffffffffffffff16021790555060e0820151816007019081611d0d9190613dd5565b5090505060085f3373ffffffffffffffffffffffffffffffffffffffff1673ffffffffffffffffffffffffffffffffffffffff1681526020019081526020015f20805480611d5e57611d5d613ea4565b5b600190038181905f5260205f2090600802015f8082015f611d7f9190612a3b565b600182015f611d8e9190612a3b565b600282015f611d9d9190612a3b565b600382015f9055600482015f9055600582015f9055600682015f6101000a81549073ffffffffffffffffffffffffffffffffffffffff0219169055600782015f611de79190612a3b565b50509055611df4866112c8565b611dfd86610ffe565b7f8598a19145ba7b62366f9f3e3ceca438df1e575ffa3bef982ed120041131d7863387604051611e2e929190613ed1565b60405180910390a1505050505050565b60605f600483604051611e519190613940565b90815260200160405180910390208054905011611ea3576040517f08c379a0000000000000000000000000000000000000000000000000000000008152600401611e9a90613f95565b60405180910390fd5b600482604051611eb39190613940565b9081526020016040518091039020805480602002602001604051908101604052809291908181526020018280548015611f3e57602002820191905f5260205f20905b815f9054906101000a900473ffffffffffffffffffffffffffffffffffffffff1673ffffffffffffffffffffffffffffffffffffffff1681526020019060010190808311611ef5575b50505050509050919050565b5f8060058054905090505f603290505f8203611f6a575f92505050612139565b5f82600143611f799190613848565b405f1c611f869190613fe0565b90505f805f6103e890505b8082101561212f575f6005878587611fa99190614010565b611fb39190613fe0565b81548110611fc457611fc36136ae565b5b905f5260205f20015f9054906101000a900473ffffffffffffffffffffffffffffffffffffffff1690507f0838d04243391d45d94a98fff54d1737cbffea86c34ab825e5d6980ec9b772358560405161201d919061335c565b60405180910390a1858a6120319190614010565b60035f8373ffffffffffffffffffffffffffffffffffffffff1673ffffffffffffffffffffffffffffffffffffffff1681526020019081526020015f20600101541115612102575f600190505f5b8a518110156120e6578273ffffffffffffffffffffffffffffffffffffffff168b82815181106120b2576120b16136ae565b5b602002602001015173ffffffffffffffffffffffffffffffffffffffff16036120d9575f91505b808060010191505061207f565b508015612100578293508198505050505050505050612139565b505b838061210d90613801565b945050828061211b90613801565b935050868403612129575f93505b50611f91565b5f96505050505050505b92915050565b60015481565b60058181548110612154575f80fd5b905f5260205f20015f915054906101000a900473ffffffffffffffffffffffffffffffffffffffff1681565b5f808251116121c4576040517f08c379a00000000000000000000000000000000000000000000000000000000081526004016121bb9061408d565b60405180910390fd5b6002826040516121d49190613940565b9081526020016040518091039020549050919050565b612284838383604051602401612202939291906140ab565b6040516020818303038152906040527fca47c4eb000000000000000000000000000000000000000000000000000000007bffffffffffffffffffffffffffffffffffffffffffffffffffffffff19166020820180517bffffffffffffffffffffffffffffffffffffffffffffffffffffffff8381831617835250505050612931565b505050565b5f73ffffffffffffffffffffffffffffffffffffffff1660035f8473ffffffffffffffffffffffffffffffffffffffff1673ffffffffffffffffffffffffffffffffffffffff1681526020019081526020015f205f015f9054906101000a900473ffffffffffffffffffffffffffffffffffffffff1673ffffffffffffffffffffffffffffffffffffffff1603612355576040517f08c379a000000000000000000000000000000000000000000000000000000000815260040161234c9061417d565b60405180910390fd5b8060035f8473ffffffffffffffffffffffffffffffffffffffff1673ffffffffffffffffffffffffffffffffffffffff1681526020019081526020015f20600101819055505050565b61243682826040516024016123b492919061419b565b6040516020818303038152906040527fb60e72cc000000000000000000000000000000000000000000000000000000007bffffffffffffffffffffffffffffffffffffffffffffffffffffffff19166020820180517bffffffffffffffffffffffffffffffffffffffffffffffffffffffff8381831617835250505050612931565b5050565b5f73ffffffffffffffffffffffffffffffffffffffff163373ffffffffffffffffffffffffffffffffffffffff16141560405180606001604052806021815260200161433460219139906124c4576040517f08c379a00000000000000000000000000000000000000000000000000000000081526004016124bb91906137b4565b60405180910390fd5b505f85511160405180606001604052806024815260200161429d6024913990612523576040517f08c379a000000000000000000000000000000000000000000000000000000000815260040161251a91906137b4565b60405180910390fd5b505f8651116040518060600160405280602481526020016143786024913990612582576040517f08c379a000000000000000000000000000000000000000000000000000000000815260040161257991906137b4565b60405180910390fd5b505f801b84141560405180606001604052806024815260200161439c60249139906125e3576040517f08c379a00000000000000000000000000000000000000000000000000000000081526004016125da91906137b4565b60405180910390fd5b505f81116040518060600160405280602481526020016142796024913990612641576040517f08c379a000000000000000000000000000000000000000000000000000000000815260040161263891906137b4565b60405180910390fd5b505f82511160405180606001604052806024815260200161431060249139906126a0576040517f08c379a000000000000000000000000000000000000000000000000000000000815260040161269791906137b4565b60405180910390fd5b5060085f3373ffffffffffffffffffffffffffffffffffffffff1673ffffffffffffffffffffffffffffffffffffffff1681526020019081526020015f206040518061010001604052808481526020018881526020018781526020018681526020018381526020014281526020013373ffffffffffffffffffffffffffffffffffffffff16815260200185815250908060018154018082558091505060019003905f5260205f2090600802015f909190919091505f820151815f0190816127679190613dd5565b50602082015181600101908161277d9190613dd5565b5060408201518160020190816127939190613dd5565b50606082015181600301556080820151816004015560a0820151816005015560c0820151816006015f6101000a81548173ffffffffffffffffffffffffffffffffffffffff021916908373ffffffffffffffffffffffffffffffffffffffff16021790555060e082015181600701908161280d9190613dd5565b5050507f557bccc5a98151ef59a421e190011aa3f6b5dc4ac2fd42fba79d158ce0c68ac18287878785423360405161284b97969594939291906141c9565b60405180910390a1505050505050565b5f8160405160200161286d9190613940565b60405160208183030381529060405280519060200120836040516020016128949190613940565b6040516020818303038152906040528051906020012014905092915050565b5f805f90505b8251811015612926578373ffffffffffffffffffffffffffffffffffffffff168382815181106128ec576128eb6136ae565b5b602002602001015173ffffffffffffffffffffffffffffffffffffffff160361291957600191505061292b565b80806001019150506128b9565b505f90505b92915050565b6129488161294061294b61296a565b63ffffffff16565b50565b5f6a636f6e736f6c652e6c6f6790505f80835160208501845afa505050565b612a78819050919050565b5080545f8255905f5260205f20908101906129909190612a82565b50565b60405180604001604052806129a66129e1565b8152602001606081525090565b60405180604001604052805f73ffffffffffffffffffffffffffffffffffffffff1681526020015f81525090565b6040518061010001604052806060815260200160608152602001606081526020015f80191681526020015f81526020015f81526020015f73ffffffffffffffffffffffffffffffffffffffff168152602001606081525090565b508054612a47906138a8565b5f825580601f10612a585750612a75565b601f0160209004905f5260205f2090810190612a749190612a82565b5b50565b612a8061424b565b565b5b80821115612a99575f815f905550600101612a83565b5090565b5f604051905090565b5f80fd5b5f80fd5b5f73ffffffffffffffffffffffffffffffffffffffff82169050919050565b5f612ad782612aae565b9050919050565b612ae781612acd565b8114612af1575f80fd5b50565b5f81359050612b0281612ade565b92915050565b5f819050919050565b612b1a81612b08565b8114612b24575f80fd5b50565b5f81359050612b3581612b11565b92915050565b5f8060408385031215612b5157612b50612aa6565b5b5f612b5e85828601612af4565b9250506020612b6f85828601612b27565b9150509250929050565b5f60208284031215612b8e57612b8d612aa6565b5b5f612b9b84828501612af4565b91505092915050565b612bad81612acd565b82525050565b612bbc81612b08565b82525050565b5f604082019050612bd55f830185612ba4565b612be26020830184612bb3565b9392505050565b5f80fd5b5f601f19601f8301169050919050565b7f4e487b71000000000000000000000000000000000000000000000000000000005f52604160045260245ffd5b612c3382612bed565b810181811067ffffffffffffffff82111715612c5257612c51612bfd565b5b80604052505050565b5f612c64612a9d565b9050612c708282612c2a565b919050565b5f67ffffffffffffffff821115612c8f57612c8e612bfd565b5b602082029050602081019050919050565b5f80fd5b5f80fd5b5f67ffffffffffffffff821115612cc257612cc1612bfd565b5b612ccb82612bed565b9050602081019050919050565b828183375f83830152505050565b5f612cf8612cf384612ca8565b612c5b565b905082815260208101848484011115612d1457612d13612ca4565b5b612d1f848285612cd8565b509392505050565b5f82601f830112612d3b57612d3a612be9565b5b8135612d4b848260208601612ce6565b91505092915050565b5f612d66612d6184612c75565b612c5b565b90508083825260208201905060208402830185811115612d8957612d88612ca0565b5b835b81811015612dd057803567ffffffffffffffff811115612dae57612dad612be9565b5b808601612dbb8982612d27565b85526020850194505050602081019050612d8b565b5050509392505050565b5f82601f830112612dee57612ded612be9565b5b8135612dfe848260208601612d54565b91505092915050565b5f60208284031215612e1c57612e1b612aa6565b5b5f82013567ffffffffffffffff811115612e3957612e38612aaa565b5b612e4584828501612dda565b91505092915050565b5f819050919050565b612e6081612e4e565b82525050565b5f602082019050612e795f830184612e57565b92915050565b5f8060408385031215612e9557612e94612aa6565b5b5f83013567ffffffffffffffff811115612eb257612eb1612aaa565b5b612ebe85828601612d27565b9250506020612ecf85828601612b27565b9150509250929050565b5f602082019050612eec5f830184612ba4565b92915050565b5f805f805f8060c08789031215612f0c57612f0b612aa6565b5b5f87013567ffffffffffffffff811115612f2957612f28612aaa565b5b612f3589828a01612dda565b965050602087013567ffffffffffffffff811115612f5657612f55612aaa565b5b612f6289828a01612d27565b955050604087013567ffffffffffffffff811115612f8357612f82612aaa565b5b612f8f89828a01612d27565b945050606087013567ffffffffffffffff811115612fb057612faf612aaa565b5b612fbc89828a01612d27565b935050608087013567ffffffffffffffff811115612fdd57612fdc612aaa565b5b612fe989828a01612d27565b92505060a0612ffa89828a01612b27565b9150509295509295509295565b5f6020828403121561301c5761301b612aa6565b5b5f82013567ffffffffffffffff81111561303957613038612aaa565b5b61304584828501612d27565b91505092915050565b5f81519050919050565b5f82825260208201905092915050565b5f5b8381101561308557808201518184015260208101905061306a565b5f8484015250505050565b5f61309a8261304e565b6130a48185613058565b93506130b4818560208601613068565b6130bd81612bed565b840191505092915050565b6130d181612e4e565b82525050565b6130e081612b08565b82525050565b6130ef81612acd565b82525050565b5f61010083015f8301518482035f8601526131108282613090565b9150506020830151848203602086015261312a8282613090565b915050604083015184820360408601526131448282613090565b915050606083015161315960608601826130c8565b50608083015161316c60808601826130d7565b5060a083015161317f60a08601826130d7565b5060c083015161319260c08601826130e6565b5060e083015184820360e08601526131aa8282613090565b9150508091505092915050565b5f81519050919050565b5f82825260208201905092915050565b5f819050602082019050919050565b5f6131eb83836130e6565b60208301905092915050565b5f602082019050919050565b5f61320d826131b7565b61321781856131c1565b9350613222836131d1565b805f5b8381101561325257815161323988826131e0565b9750613244836131f7565b925050600181019050613225565b5085935050505092915050565b5f604083015f8301518482035f86015261327982826130f5565b915050602083015184820360208601526132938282613203565b9150508091505092915050565b5f6020820190508181035f8301526132b8818461325f565b905092915050565b5f805f80608085870312156132d8576132d7612aa6565b5b5f6132e587828801612af4565b945050602085013567ffffffffffffffff81111561330657613305612aaa565b5b61331287828801612d27565b935050604085013567ffffffffffffffff81111561333357613332612aaa565b5b61333f87828801612d27565b925050606061335087828801612b27565b91505092959194509250565b5f60208201905061336f5f830184612bb3565b92915050565b61337e81612e4e565b8114613388575f80fd5b50565b5f8135905061339981613375565b92915050565b5f80604083850312156133b5576133b4612aa6565b5b5f6133c28582860161338b565b925050602083013567ffffffffffffffff8111156133e3576133e2612aaa565b5b6133ef85828601612d27565b9150509250929050565b5f82825260208201905092915050565b5f613413826131b7565b61341d81856133f9565b9350613428836131d1565b805f5b8381101561345857815161343f88826131e0565b975061344a836131f7565b92505060018101905061342b565b5085935050505092915050565b5f6020820190508181035f83015261347d8184613409565b905092915050565b604082015f8201516134995f8501826130e6565b5060208201516134ac60208501826130d7565b50505050565b5f6040820190506134c55f830184613485565b92915050565b5f67ffffffffffffffff8211156134e5576134e4612bfd565b5b602082029050602081019050919050565b5f613508613503846134cb565b612c5b565b9050808382526020820190506020840283018581111561352b5761352a612ca0565b5b835b8181101561355457806135408882612af4565b84526020840193505060208101905061352d565b5050509392505050565b5f82601f83011261357257613571612be9565b5b81356135828482602086016134f6565b91505092915050565b5f80604083850312156135a1576135a0612aa6565b5b5f6135ae85828601612b27565b925050602083013567ffffffffffffffff8111156135cf576135ce612aaa565b5b6135db8582860161355e565b9150509250929050565b5f602082840312156135fa576135f9612aa6565b5b5f61360784828501612b27565b91505092915050565b5f82825260208201905092915050565b7f6164644e6f64653a20496e76616c6964205f6e6f646541646472657373202d205f8201527f4e6f646520416c72656164792065786973747300000000000000000000000000602082015250565b5f61367a603383613610565b915061368582613620565b604082019050919050565b5f6020820190508181035f8301526136a78161366e565b9050919050565b7f4e487b71000000000000000000000000000000000000000000000000000000005f52603260045260245ffd5b5f81519050919050565b5f81905092915050565b5f6136f9826136db565b61370381856136e5565b9350613713818560208601613068565b80840191505092915050565b5f81905092915050565b5f6137338261304e565b61373d818561371f565b935061374d818560208601613068565b80840191505092915050565b5f61376482856136ef565b91506137708284613729565b91508190509392505050565b5f6137868261304e565b6137908185613610565b93506137a0818560208601613068565b6137a981612bed565b840191505092915050565b5f6020820190508181035f8301526137cc818461377c565b905092915050565b7f4e487b71000000000000000000000000000000000000000000000000000000005f52601160045260245ffd5b5f61380b82612b08565b91507fffffffffffffffffffffffffffffffffffffffffffffffffffffffffffffffff820361383d5761383c6137d4565b5b600182019050919050565b5f61385282612b08565b915061385d83612b08565b9250828203905081811115613875576138746137d4565b5b92915050565b7f4e487b71000000000000000000000000000000000000000000000000000000005f52602260045260245ffd5b5f60028204905060018216806138bf57607f821691505b6020821081036138d2576138d161387b565b5b50919050565b7f64656c65746546696c65486173683a20496e76616c6964205f66696c654964005f82015250565b5f61390c601f83613610565b9150613917826138d8565b602082019050919050565b5f6020820190508181035f83015261393981613900565b9050919050565b5f61394b8284613729565b915081905092915050565b7f64656c65746546696c65486173683a20496e76616c69642066696c654964546f5f8201527f4861736800000000000000000000000000000000000000000000000000000000602082015250565b5f6139b0602483613610565b91506139bb82613956565b604082019050919050565b5f6020820190508181035f8301526139dd816139a4565b9050919050565b7f73746f72654368756e6b496e4e6f64653a20496e76616c6964205f6e6f6465415f8201527f646472657373202d204e6f646520446f6573204e4f5420657869737400000000602082015250565b5f613a3e603c83613610565b9150613a49826139e4565b604082019050919050565b5f6020820190508181035f830152613a6b81613a32565b9050919050565b7f64656c6574654368756e6b496e4e6f64653a20496e76616c6964205f66696c655f8201527f4964000000000000000000000000000000000000000000000000000000000000602082015250565b5f613acc602283613610565b9150613ad782613a72565b604082019050919050565b5f6020820190508181035f830152613af981613ac0565b9050919050565b7f73746f726546696c65486173683a20496e76616c69642073656e6465720000005f82015250565b5f613b34601d83613610565b9150613b3f82613b00565b602082019050919050565b5f6020820190508181035f830152613b6181613b28565b9050919050565b7f73746f726546696c65486173683a20496e76616c6964205f66696c65486173685f82015250565b5f613b9c602083613610565b9150613ba782613b68565b602082019050919050565b5f6020820190508181035f830152613bc981613b90565b9050919050565b7f73746f726546696c65486173683a20496e76616c6964205f66696c65496400005f82015250565b5f613c04601e83613610565b9150613c0f82613bd0565b602082019050919050565b5f6020820190508181035f830152613c3181613bf8565b9050919050565b5f819050815f5260205f209050919050565b5f6020601f8301049050919050565b5f82821b905092915050565b5f60088302613c947fffffffffffffffffffffffffffffffffffffffffffffffffffffffffffffffff82613c59565b613c9e8683613c59565b95508019841693508086168417925050509392505050565b5f819050919050565b5f613cd9613cd4613ccf84612b08565b613cb6565b612b08565b9050919050565b5f819050919050565b613cf283613cbf565b613d06613cfe82613ce0565b848454613c65565b825550505050565b5f90565b613d1a613d0e565b613d25818484613ce9565b505050565b5b81811015613d4857613d3d5f82613d12565b600181019050613d2b565b5050565b601f821115613d8d57613d5e81613c38565b613d6784613c4a565b81016020851015613d76578190505b613d8a613d8285613c4a565b830182613d2a565b50505b505050565b5f82821c905092915050565b5f613dad5f1984600802613d92565b1980831691505092915050565b5f613dc58383613d9e565b9150826002028217905092915050565b613dde8261304e565b67ffffffffffffffff811115613df757613df6612bfd565b5b613e0182546138a8565b613e0c828285613d4c565b5f60209050601f831160018114613e3d575f8415613e2b578287015190505b613e358582613dba565b865550613e9c565b601f198416613e4b86613c38565b5f5b82811015613e7257848901518255600182019150602085019450602081019050613e4d565b86831015613e8f5784890151613e8b601f891682613d9e565b8355505b6001600288020188555050505b505050505050565b7f4e487b71000000000000000000000000000000000000000000000000000000005f52603160045260245ffd5b5f604082019050613ee45f830185612ba4565b8181036020830152613ef6818461377c565b90509392505050565b7f72657472696576654368756e6b4e6f64654164647265737365733a20496e76615f8201527f6c6964205f6e6f646541646472657373202d204e6f646520446f6573204e4f5460208201527f2065786973740000000000000000000000000000000000000000000000000000604082015250565b5f613f7f604683613610565b9150613f8a82613eff565b606082019050919050565b5f6020820190508181035f830152613fac81613f73565b9050919050565b7f4e487b71000000000000000000000000000000000000000000000000000000005f52601260045260245ffd5b5f613fea82612b08565b9150613ff583612b08565b92508261400557614004613fb3565b5b828206905092915050565b5f61401a82612b08565b915061402583612b08565b925082820190508082111561403d5761403c6137d4565b5b92915050565b7f67657446696c65486173683a20496e76616c6964205f66696c654964000000005f82015250565b5f614077601c83613610565b915061408282614043565b602082019050919050565b5f6020820190508181035f8301526140a48161406b565b9050919050565b5f6060820190508181035f8301526140c3818661377c565b90506140d26020830185612bb3565b6140df6040830184612bb3565b949350505050565b7f757064617465417661696c61626c6553746f726167653a20496e76616c6964205f8201527f5f6e6f646541646472657373202d204e6f646520446f6573204e4f542065786960208201527f7374000000000000000000000000000000000000000000000000000000000000604082015250565b5f614167604283613610565b9150614172826140e7565b606082019050919050565b5f6020820190508181035f8301526141948161415b565b9050919050565b5f6040820190508181035f8301526141b3818561377c565b90506141c26020830184612bb3565b9392505050565b5f60e0820190508181035f8301526141e1818a61377c565b905081810360208301526141f5818961377c565b90508181036040830152614209818861377c565b90506142186060830187612e57565b6142256080830186612bb3565b61423260a0830185612bb3565b61423f60c0830184612ba4565b98975050505050505050565b7f4e487b71000000000000000000000000000000000000000000000000000000005f52605160045260245ffdfe73746f726546696c654d657461646174613a20496e76616c6964205f66696c6553697a6573746f726546696c654d657461646174613a20496e76616c6964205f66696c655479706573746f726546696c653a204475706c69636174696f6e20646f6e652e206368756e6b206e756d626572202d2073746f726546696c653a204e6f20617661696c61626c65206e6f64657320666f756e6473746f726546696c654d657461646174613a20496e76616c6964205f756e69717565496473746f726546696c654d657461646174613a20496e76616c69642073656e646572726574726965766546696c6544657461696c733a2046696c65204e6f7420466f756e6473746f726546696c654d657461646174613a20496e76616c6964205f66696c654e616d6573746f726546696c654d657461646174613a20496e76616c6964205f66696c6548617368a2646970667358221220126f06e4633f29ac0d21c82332480ee7da61d5fb5957c33b06b69d0f05dae9d964736f6c63430008160033a2646970667358221220c61683e72a10fb14ab4cd3a5e80e0117a2e058ff58c736364653d6a8514b4ebe64736f6c63430008160033",
			"opcodes": "PUSH1 0x80 PUSH1 0x40 MSTORE CALLVALUE DUP1 ISZERO PUSH2 0xF JUMPI PUSH0 DUP1 REVERT JUMPDEST POP PUSH2 0x5251 DUP1 PUSH2 0x1D PUSH0 CODECOPY PUSH0 RETURN INVALID PUSH1 0x80 PUSH1 0x40 MSTORE CALLVALUE DUP1 ISZERO PUSH2 0xF JUMPI PUSH0 DUP1 REVERT JUMPDEST POP PUSH1 0x4 CALLDATASIZE LT PUSH2 0x34 JUMPI PUSH0 CALLDATALOAD PUSH1 0xE0 SHR DUP1 PUSH4 0x7FEA0D4B EQ PUSH2 0x38 JUMPI DUP1 PUSH4 0xA3BD5414 EQ PUSH2 0x42 JUMPI JUMPDEST PUSH0 DUP1 REVERT JUMPDEST PUSH2 0x40 PUSH2 0x4C JUMP JUMPDEST STOP JUMPDEST PUSH2 0x4A PUSH2 0x14F JUMP JUMPDEST STOP JUMPDEST PUSH1 0x40 MLOAD PUSH2 0x58 SWAP1 PUSH2 0x6C5 JUMP JUMPDEST PUSH1 0x40 MLOAD DUP1 SWAP2 SUB SWAP1 PUSH0 CREATE DUP1 ISZERO DUP1 ISZERO PUSH2 0x71 JUMPI RETURNDATASIZE PUSH0 DUP1 RETURNDATACOPY RETURNDATASIZE PUSH0 REVERT JUMPDEST POP PUSH0 DUP1 PUSH2 0x100 EXP DUP2 SLOAD DUP2 PUSH20 0xFFFFFFFFFFFFFFFFFFFFFFFFFFFFFFFFFFFFFFFF MUL NOT AND SWAP1 DUP4 PUSH20 0xFFFFFFFFFFFFFFFFFFFFFFFFFFFFFFFFFFFFFFFF AND MUL OR SWAP1 SSTORE POP PUSH0 DUP1 SLOAD SWAP1 PUSH2 0x100 EXP SWAP1 DIV PUSH20 0xFFFFFFFFFFFFFFFFFFFFFFFFFFFFFFFFFFFFFFFF AND PUSH20 0xFFFFFFFFFFFFFFFFFFFFFFFFFFFFFFFFFFFFFFFF AND PUSH4 0x92099C21 PUSH20 0x38A2E968077A7A13B8D7326C35C921DA0000847E PUSH2 0x3E8 PUSH1 0x40 MLOAD DUP4 PUSH4 0xFFFFFFFF AND PUSH1 0xE0 SHL DUP2 MSTORE PUSH1 0x4 ADD PUSH2 0x120 SWAP3 SWAP2 SWAP1 PUSH2 0x766 JUMP JUMPDEST PUSH0 PUSH1 0x40 MLOAD DUP1 DUP4 SUB DUP2 PUSH0 DUP8 DUP1 EXTCODESIZE ISZERO DUP1 ISZERO PUSH2 0x137 JUMPI PUSH0 DUP1 REVERT JUMPDEST POP GAS CALL ISZERO DUP1 ISZERO PUSH2 0x149 JUMPI RETURNDATASIZE PUSH0 DUP1 RETURNDATACOPY RETURNDATASIZE PUSH0 REVERT JUMPDEST POP POP POP POP JUMP JUMPDEST PUSH0 PUSH1 0x4 PUSH8 0xFFFFFFFFFFFFFFFF DUP2 GT ISZERO PUSH2 0x16B JUMPI PUSH2 0x16A PUSH2 0x78D JUMP JUMPDEST JUMPDEST PUSH1 0x40 MLOAD SWAP1 DUP1 DUP3 MSTORE DUP1 PUSH1 0x20 MUL PUSH1 0x20 ADD DUP3 ADD PUSH1 0x40 MSTORE DUP1 ISZERO PUSH2 0x19E JUMPI DUP2 PUSH1 0x20 ADD JUMPDEST PUSH1 0x60 DUP2 MSTORE PUSH1 0x20 ADD SWAP1 PUSH1 0x1 SWAP1 SUB SWAP1 DUP2 PUSH2 0x189 JUMPI SWAP1 POP JUMPDEST POP SWAP1 POP PUSH1 0x40 MLOAD DUP1 PUSH1 0x40 ADD PUSH1 0x40 MSTORE DUP1 PUSH1 0x3 DUP2 MSTORE PUSH1 0x20 ADD PUSH32 0x6162630000000000000000000000000000000000000000000000000000000000 DUP2 MSTORE POP DUP2 PUSH0 DUP2 MLOAD DUP2 LT PUSH2 0x1EA JUMPI PUSH2 0x1E9 PUSH2 0x7BA JUMP JUMPDEST JUMPDEST PUSH1 0x20 MUL PUSH1 0x20 ADD ADD DUP2 SWAP1 MSTORE POP PUSH1 0x40 MLOAD DUP1 PUSH1 0x40 ADD PUSH1 0x40 MSTORE DUP1 PUSH1 0x3 DUP2 MSTORE PUSH1 0x20 ADD PUSH32 0x6465660000000000000000000000000000000000000000000000000000000000 DUP2 MSTORE POP DUP2 PUSH1 0x1 DUP2 MLOAD DUP2 LT PUSH2 0x23F JUMPI PUSH2 0x23E PUSH2 0x7BA JUMP JUMPDEST JUMPDEST PUSH1 0x20 MUL PUSH1 0x20 ADD ADD DUP2 SWAP1 MSTORE POP PUSH1 0x40 MLOAD DUP1 PUSH1 0x40 ADD PUSH1 0x40 MSTORE DUP1 PUSH1 0x3 DUP2 MSTORE PUSH1 0x20 ADD PUSH32 0x6768690000000000000000000000000000000000000000000000000000000000 DUP2 MSTORE POP DUP2 PUSH1 0x2 DUP2 MLOAD DUP2 LT PUSH2 0x294 JUMPI PUSH2 0x293 PUSH2 0x7BA JUMP JUMPDEST JUMPDEST PUSH1 0x20 MUL PUSH1 0x20 ADD ADD DUP2 SWAP1 MSTORE POP PUSH1 0x40 MLOAD DUP1 PUSH1 0x40 ADD PUSH1 0x40 MSTORE DUP1 PUSH1 0x7 DUP2 MSTORE PUSH1 0x20 ADD PUSH32 0x6A6B6C6D6E6F7000000000000000000000000000000000000000000000000000 DUP2 MSTORE POP DUP2 PUSH1 0x3 DUP2 MLOAD DUP2 LT PUSH2 0x2E9 JUMPI PUSH2 0x2E8 PUSH2 0x7BA JUMP JUMPDEST JUMPDEST PUSH1 0x20 MUL PUSH1 0x20 ADD ADD DUP2 SWAP1 MSTORE POP PUSH0 PUSH1 0x40 MLOAD DUP1 PUSH1 0x40 ADD PUSH1 0x40 MSTORE DUP1 PUSH1 0x9 DUP2 MSTORE PUSH1 0x20 ADD PUSH32 0x74657374312E7478740000000000000000000000000000000000000000000000 DUP2 MSTORE POP SWAP1 POP PUSH0 PUSH1 0x40 MLOAD DUP1 PUSH1 0x40 ADD PUSH1 0x40 MSTORE DUP1 PUSH1 0x4 DUP2 MSTORE PUSH1 0x20 ADD PUSH32 0x2E74787400000000000000000000000000000000000000000000000000000000 DUP2 MSTORE POP SWAP1 POP PUSH0 PUSH1 0x40 MLOAD DUP1 PUSH1 0x40 ADD PUSH1 0x40 MSTORE DUP1 PUSH1 0x4 DUP2 MSTORE PUSH1 0x20 ADD PUSH32 0x3742697400000000000000000000000000000000000000000000000000000000 DUP2 MSTORE POP SWAP1 POP PUSH0 PUSH1 0x40 MLOAD DUP1 PUSH1 0x40 ADD PUSH1 0x40 MSTORE DUP1 PUSH1 0x13 DUP2 MSTORE PUSH1 0x20 ADD PUSH32 0x75693132662D326A6637642D616A643061736400000000000000000000000000 DUP2 MSTORE POP SWAP1 POP PUSH0 PUSH1 0x64 SWAP1 POP PUSH0 DUP1 DUP1 SLOAD SWAP1 PUSH2 0x100 EXP SWAP1 DIV PUSH20 0xFFFFFFFFFFFFFFFFFFFFFFFFFFFFFFFFFFFFFFFF AND PUSH20 0xFFFFFFFFFFFFFFFFFFFFFFFFFFFFFFFFFFFFFFFF AND PUSH4 0x528AECCE DUP9 DUP9 DUP9 DUP9 DUP9 DUP9 PUSH1 0x40 MLOAD DUP8 PUSH4 0xFFFFFFFF AND PUSH1 0xE0 SHL DUP2 MSTORE PUSH1 0x4 ADD PUSH2 0x440 SWAP7 SWAP6 SWAP5 SWAP4 SWAP3 SWAP2 SWAP1 PUSH2 0x983 JUMP JUMPDEST PUSH0 PUSH1 0x40 MLOAD DUP1 DUP4 SUB DUP2 PUSH0 DUP8 DUP1 EXTCODESIZE ISZERO DUP1 ISZERO PUSH2 0x457 JUMPI PUSH0 DUP1 REVERT JUMPDEST POP GAS CALL SWAP3 POP POP POP DUP1 ISZERO PUSH2 0x468 JUMPI POP PUSH1 0x1 JUMPDEST PUSH2 0x55E JUMPI PUSH2 0x474 PUSH2 0xA11 JUMP JUMPDEST DUP1 PUSH4 0x8C379A0 SUB PUSH2 0x54F JUMPI POP PUSH2 0x488 PUSH2 0xA6A JUMP JUMPDEST DUP1 PUSH2 0x493 JUMPI POP PUSH2 0x551 JUMP JUMPDEST PUSH2 0x4D2 PUSH1 0x40 MLOAD DUP1 PUSH1 0x40 ADD PUSH1 0x40 MSTORE DUP1 PUSH1 0x6 DUP2 MSTORE PUSH1 0x20 ADD PUSH32 0x726561736F6E0000000000000000000000000000000000000000000000000000 DUP2 MSTORE POP DUP3 PUSH2 0x5E5 JUMP JUMPDEST PUSH20 0x0 PUSH4 0xE8C2CB16 DUP3 PUSH1 0x40 MLOAD DUP3 PUSH4 0xFFFFFFFF AND PUSH1 0xE0 SHL DUP2 MSTORE PUSH1 0x4 ADD PUSH2 0x509 SWAP2 SWAP1 PUSH2 0xBFB JUMP JUMPDEST PUSH1 0x20 PUSH1 0x40 MLOAD DUP1 DUP4 SUB DUP2 DUP7 GAS DELEGATECALL ISZERO DUP1 ISZERO PUSH2 0x524 JUMPI RETURNDATASIZE PUSH0 DUP1 RETURNDATACOPY RETURNDATASIZE PUSH0 REVERT JUMPDEST POP POP POP POP PUSH1 0x40 MLOAD RETURNDATASIZE PUSH1 0x1F NOT PUSH1 0x1F DUP3 ADD AND DUP3 ADD DUP1 PUSH1 0x40 MSTORE POP DUP2 ADD SWAP1 PUSH2 0x548 SWAP2 SWAP1 PUSH2 0xC7A JUMP JUMPDEST POP POP PUSH2 0x559 JUMP JUMPDEST POP JUMPDEST RETURNDATASIZE PUSH0 DUP1 RETURNDATACOPY RETURNDATASIZE PUSH0 REVERT JUMPDEST PUSH2 0x563 JUMP JUMPDEST PUSH1 0x1 SWAP1 POP JUMPDEST PUSH20 0x0 PUSH4 0x767392B3 DUP3 PUSH0 PUSH1 0x40 MLOAD DUP4 PUSH4 0xFFFFFFFF AND PUSH1 0xE0 SHL DUP2 MSTORE PUSH1 0x4 ADD PUSH2 0x59C SWAP3 SWAP2 SWAP1 PUSH2 0xD24 JUMP JUMPDEST PUSH1 0x20 PUSH1 0x40 MLOAD DUP1 DUP4 SUB DUP2 DUP7 GAS DELEGATECALL ISZERO DUP1 ISZERO PUSH2 0x5B7 JUMPI RETURNDATASIZE PUSH0 DUP1 RETURNDATACOPY RETURNDATASIZE PUSH0 REVERT JUMPDEST POP POP POP POP PUSH1 0x40 MLOAD RETURNDATASIZE PUSH1 0x1F NOT PUSH1 0x1F DUP3 ADD AND DUP3 ADD DUP1 PUSH1 0x40 MSTORE POP DUP2 ADD SWAP1 PUSH2 0x5DB SWAP2 SWAP1 PUSH2 0xC7A JUMP JUMPDEST POP POP POP POP POP POP POP POP JUMP JUMPDEST PUSH2 0x67D DUP3 DUP3 PUSH1 0x40 MLOAD PUSH1 0x24 ADD PUSH2 0x5FB SWAP3 SWAP2 SWAP1 PUSH2 0xD5E JUMP JUMPDEST PUSH1 0x40 MLOAD PUSH1 0x20 DUP2 DUP4 SUB SUB DUP2 MSTORE SWAP1 PUSH1 0x40 MSTORE PUSH32 0x4B5C427700000000000000000000000000000000000000000000000000000000 PUSH28 0xFFFFFFFFFFFFFFFFFFFFFFFFFFFFFFFFFFFFFFFFFFFFFFFFFFFFFFFF NOT AND PUSH1 0x20 DUP3 ADD DUP1 MLOAD PUSH28 0xFFFFFFFFFFFFFFFFFFFFFFFFFFFFFFFFFFFFFFFFFFFFFFFFFFFFFFFF DUP4 DUP2 DUP4 AND OR DUP4 MSTORE POP POP POP POP PUSH2 0x681 JUMP JUMPDEST POP POP JUMP JUMPDEST PUSH2 0x698 DUP2 PUSH2 0x690 PUSH2 0x69B PUSH2 0x6BA JUMP JUMPDEST PUSH4 0xFFFFFFFF AND JUMP JUMPDEST POP JUMP JUMPDEST PUSH0 PUSH11 0x636F6E736F6C652E6C6F67 SWAP1 POP PUSH0 DUP1 DUP4 MLOAD PUSH1 0x20 DUP6 ADD DUP5 GAS STATICCALL POP POP POP JUMP JUMPDEST PUSH2 0x6D2 DUP2 SWAP1 POP SWAP2 SWAP1 POP JUMP JUMPDEST PUSH2 0x445B DUP1 PUSH2 0xDC1 DUP4 CODECOPY ADD SWAP1 JUMP JUMPDEST PUSH2 0x6DA PUSH2 0xD93 JUMP JUMPDEST JUMP JUMPDEST PUSH0 PUSH20 0xFFFFFFFFFFFFFFFFFFFFFFFFFFFFFFFFFFFFFFFF DUP3 AND SWAP1 POP SWAP2 SWAP1 POP JUMP JUMPDEST PUSH0 PUSH2 0x705 DUP3 PUSH2 0x6DC JUMP JUMPDEST SWAP1 POP SWAP2 SWAP1 POP JUMP JUMPDEST PUSH2 0x715 DUP2 PUSH2 0x6FB JUMP JUMPDEST DUP3 MSTORE POP POP JUMP JUMPDEST PUSH0 DUP2 SWAP1 POP SWAP2 SWAP1 POP JUMP JUMPDEST PUSH0 DUP2 SWAP1 POP SWAP2 SWAP1 POP JUMP JUMPDEST PUSH0 DUP2 SWAP1 POP SWAP2 SWAP1 POP JUMP JUMPDEST PUSH0 PUSH2 0x750 PUSH2 0x74B PUSH2 0x746 DUP5 PUSH2 0x71B JUMP JUMPDEST PUSH2 0x72D JUMP JUMPDEST PUSH2 0x724 JUMP JUMPDEST SWAP1 POP SWAP2 SWAP1 POP JUMP JUMPDEST PUSH2 0x760 DUP2 PUSH2 0x736 JUMP JUMPDEST DUP3 MSTORE POP POP JUMP JUMPDEST PUSH0 PUSH1 0x40 DUP3 ADD SWAP1 POP PUSH2 0x779 PUSH0 DUP4 ADD DUP6 PUSH2 0x70C JUMP JUMPDEST PUSH2 0x786 PUSH1 0x20 DUP4 ADD DUP5 PUSH2 0x757 JUMP JUMPDEST SWAP4 SWAP3 POP POP POP JUMP JUMPDEST PUSH32 0x4E487B7100000000000000000000000000000000000000000000000000000000 PUSH0 MSTORE PUSH1 0x41 PUSH1 0x4 MSTORE PUSH1 0x24 PUSH0 REVERT JUMPDEST PUSH32 0x4E487B7100000000000000000000000000000000000000000000000000000000 PUSH0 MSTORE PUSH1 0x32 PUSH1 0x4 MSTORE PUSH1 0x24 PUSH0 REVERT JUMPDEST PUSH0 DUP2 MLOAD SWAP1 POP SWAP2 SWAP1 POP JUMP JUMPDEST PUSH0 DUP3 DUP3 MSTORE PUSH1 0x20 DUP3 ADD SWAP1 POP SWAP3 SWAP2 POP POP JUMP JUMPDEST PUSH0 DUP2 SWAP1 POP PUSH1 0x20 DUP3 ADD SWAP1 POP SWAP2 SWAP1 POP JUMP JUMPDEST PUSH0 DUP2 MLOAD SWAP1 POP SWAP2 SWAP1 POP JUMP JUMPDEST PUSH0 DUP3 DUP3 MSTORE PUSH1 0x20 DUP3 ADD SWAP1 POP SWAP3 SWAP2 POP POP JUMP JUMPDEST PUSH0 JUMPDEST DUP4 DUP2 LT ISZERO PUSH2 0x847 JUMPI DUP1 DUP3 ADD MLOAD DUP2 DUP5 ADD MSTORE PUSH1 0x20 DUP2 ADD SWAP1 POP PUSH2 0x82C JUMP JUMPDEST PUSH0 DUP5 DUP5 ADD MSTORE POP POP POP POP JUMP JUMPDEST PUSH0 PUSH1 0x1F NOT PUSH1 0x1F DUP4 ADD AND SWAP1 POP SWAP2 SWAP1 POP JUMP JUMPDEST PUSH0 PUSH2 0x86C DUP3 PUSH2 0x810 JUMP JUMPDEST PUSH2 0x876 DUP2 DUP6 PUSH2 0x81A JUMP JUMPDEST SWAP4 POP PUSH2 0x886 DUP2 DUP6 PUSH1 0x20 DUP7 ADD PUSH2 0x82A JUMP JUMPDEST PUSH2 0x88F DUP2 PUSH2 0x852 JUMP JUMPDEST DUP5 ADD SWAP2 POP POP SWAP3 SWAP2 POP POP JUMP JUMPDEST PUSH0 PUSH2 0x8A5 DUP4 DUP4 PUSH2 0x862 JUMP JUMPDEST SWAP1 POP SWAP3 SWAP2 POP POP JUMP JUMPDEST PUSH0 PUSH1 0x20 DUP3 ADD SWAP1 POP SWAP2 SWAP1 POP JUMP JUMPDEST PUSH0 PUSH2 0x8C3 DUP3 PUSH2 0x7E7 JUMP JUMPDEST PUSH2 0x8CD DUP2 DUP6 PUSH2 0x7F1 JUMP JUMPDEST SWAP4 POP DUP4 PUSH1 0x20 DUP3 MUL DUP6 ADD PUSH2 0x8DF DUP6 PUSH2 0x801 JUMP JUMPDEST DUP1 PUSH0 JUMPDEST DUP6 DUP2 LT ISZERO PUSH2 0x91A JUMPI DUP5 DUP5 SUB DUP10 MSTORE DUP2 MLOAD PUSH2 0x8FB DUP6 DUP3 PUSH2 0x89A JUMP JUMPDEST SWAP5 POP PUSH2 0x906 DUP4 PUSH2 0x8AD JUMP JUMPDEST SWAP3 POP PUSH1 0x20 DUP11 ADD SWAP10 POP POP PUSH1 0x1 DUP2 ADD SWAP1 POP PUSH2 0x8E2 JUMP JUMPDEST POP DUP3 SWAP8 POP DUP8 SWAP6 POP POP POP POP POP POP SWAP3 SWAP2 POP POP JUMP JUMPDEST PUSH0 DUP3 DUP3 MSTORE PUSH1 0x20 DUP3 ADD SWAP1 POP SWAP3 SWAP2 POP POP JUMP JUMPDEST PUSH0 PUSH2 0x946 DUP3 PUSH2 0x810 JUMP JUMPDEST PUSH2 0x950 DUP2 DUP6 PUSH2 0x92C JUMP JUMPDEST SWAP4 POP PUSH2 0x960 DUP2 DUP6 PUSH1 0x20 DUP7 ADD PUSH2 0x82A JUMP JUMPDEST PUSH2 0x969 DUP2 PUSH2 0x852 JUMP JUMPDEST DUP5 ADD SWAP2 POP POP SWAP3 SWAP2 POP POP JUMP JUMPDEST PUSH2 0x97D DUP2 PUSH2 0x724 JUMP JUMPDEST DUP3 MSTORE POP POP JUMP JUMPDEST PUSH0 PUSH1 0xC0 DUP3 ADD SWAP1 POP DUP2 DUP2 SUB PUSH0 DUP4 ADD MSTORE PUSH2 0x99B DUP2 DUP10 PUSH2 0x8B9 JUMP JUMPDEST SWAP1 POP DUP2 DUP2 SUB PUSH1 0x20 DUP4 ADD MSTORE PUSH2 0x9AF DUP2 DUP9 PUSH2 0x93C JUMP JUMPDEST SWAP1 POP DUP2 DUP2 SUB PUSH1 0x40 DUP4 ADD MSTORE PUSH2 0x9C3 DUP2 DUP8 PUSH2 0x93C JUMP JUMPDEST SWAP1 POP DUP2 DUP2 SUB PUSH1 0x60 DUP4 ADD MSTORE PUSH2 0x9D7 DUP2 DUP7 PUSH2 0x93C JUMP JUMPDEST SWAP1 POP DUP2 DUP2 SUB PUSH1 0x80 DUP4 ADD MSTORE PUSH2 0x9EB DUP2 DUP6 PUSH2 0x93C JUMP JUMPDEST SWAP1 POP PUSH2 0x9FA PUSH1 0xA0 DUP4 ADD DUP5 PUSH2 0x974 JUMP JUMPDEST SWAP8 SWAP7 POP POP POP POP POP POP POP JUMP JUMPDEST PUSH0 DUP2 PUSH1 0xE0 SHR SWAP1 POP SWAP2 SWAP1 POP JUMP JUMPDEST PUSH0 PUSH1 0x3 RETURNDATASIZE GT ISZERO PUSH2 0xA2D JUMPI PUSH1 0x4 PUSH0 DUP1 RETURNDATACOPY PUSH2 0xA2A PUSH0 MLOAD PUSH2 0xA05 JUMP JUMPDEST SWAP1 POP JUMPDEST SWAP1 JUMP JUMPDEST PUSH0 PUSH1 0x40 MLOAD SWAP1 POP SWAP1 JUMP JUMPDEST PUSH2 0xA42 DUP3 PUSH2 0x852 JUMP JUMPDEST DUP2 ADD DUP2 DUP2 LT PUSH8 0xFFFFFFFFFFFFFFFF DUP3 GT OR ISZERO PUSH2 0xA61 JUMPI PUSH2 0xA60 PUSH2 0x78D JUMP JUMPDEST JUMPDEST DUP1 PUSH1 0x40 MSTORE POP POP POP JUMP JUMPDEST PUSH0 PUSH1 0x44 RETURNDATASIZE LT PUSH2 0xAF6 JUMPI PUSH2 0xA7B PUSH2 0xA30 JUMP JUMPDEST PUSH1 0x4 RETURNDATASIZE SUB PUSH1 0x4 DUP3 RETURNDATACOPY DUP1 MLOAD RETURNDATASIZE PUSH1 0x24 DUP3 ADD GT PUSH8 0xFFFFFFFFFFFFFFFF DUP3 GT OR ISZERO PUSH2 0xAA3 JUMPI POP POP PUSH2 0xAF6 JUMP JUMPDEST DUP1 DUP3 ADD DUP1 MLOAD PUSH8 0xFFFFFFFFFFFFFFFF DUP2 GT ISZERO PUSH2 0xAC1 JUMPI POP POP POP POP PUSH2 0xAF6 JUMP JUMPDEST DUP1 PUSH1 0x20 DUP4 ADD ADD PUSH1 0x4 RETURNDATASIZE SUB DUP6 ADD DUP2 GT ISZERO PUSH2 0xADE JUMPI POP POP POP POP POP PUSH2 0xAF6 JUMP JUMPDEST PUSH2 0xAED DUP3 PUSH1 0x20 ADD DUP6 ADD DUP7 PUSH2 0xA39 JUMP JUMPDEST DUP3 SWAP6 POP POP POP POP POP POP JUMPDEST SWAP1 JUMP JUMPDEST PUSH0 DUP3 DUP3 MSTORE PUSH1 0x20 DUP3 ADD SWAP1 POP SWAP3 SWAP2 POP POP JUMP JUMPDEST PUSH0 PUSH2 0xB13 DUP3 PUSH2 0x810 JUMP JUMPDEST PUSH2 0xB1D DUP2 DUP6 PUSH2 0xAF9 JUMP JUMPDEST SWAP4 POP PUSH2 0xB2D DUP2 DUP6 PUSH1 0x20 DUP7 ADD PUSH2 0x82A JUMP JUMPDEST PUSH2 0xB36 DUP2 PUSH2 0x852 JUMP JUMPDEST DUP5 ADD SWAP2 POP POP SWAP3 SWAP2 POP POP JUMP JUMPDEST PUSH32 0x73746F726546696C653A204E6F20617661696C61626C65206E6F64657320666F PUSH0 DUP3 ADD MSTORE PUSH32 0x756E640000000000000000000000000000000000000000000000000000000000 PUSH1 0x20 DUP3 ADD MSTORE POP JUMP JUMPDEST PUSH0 PUSH2 0xB9B PUSH1 0x23 DUP4 PUSH2 0xAF9 JUMP JUMPDEST SWAP2 POP PUSH2 0xBA6 DUP3 PUSH2 0xB41 JUMP JUMPDEST PUSH1 0x40 DUP3 ADD SWAP1 POP SWAP2 SWAP1 POP JUMP JUMPDEST PUSH32 0x4661696C6564207769746820756E657870656374656420726561736F6E000000 PUSH0 DUP3 ADD MSTORE POP JUMP JUMPDEST PUSH0 PUSH2 0xBE5 PUSH1 0x1D DUP4 PUSH2 0xAF9 JUMP JUMPDEST SWAP2 POP PUSH2 0xBF0 DUP3 PUSH2 0xBB1 JUMP JUMPDEST PUSH1 0x20 DUP3 ADD SWAP1 POP SWAP2 SWAP1 POP JUMP JUMPDEST PUSH0 PUSH1 0x60 DUP3 ADD SWAP1 POP DUP2 DUP2 SUB PUSH0 DUP4 ADD MSTORE PUSH2 0xC13 DUP2 DUP5 PUSH2 0xB09 JUMP JUMPDEST SWAP1 POP DUP2 DUP2 SUB PUSH1 0x20 DUP4 ADD MSTORE PUSH2 0xC26 DUP2 PUSH2 0xB8F JUMP JUMPDEST SWAP1 POP DUP2 DUP2 SUB PUSH1 0x40 DUP4 ADD MSTORE PUSH2 0xC39 DUP2 PUSH2 0xBD9 JUMP JUMPDEST SWAP1 POP SWAP3 SWAP2 POP POP JUMP JUMPDEST PUSH0 DUP1 REVERT JUMPDEST PUSH0 DUP2 ISZERO ISZERO SWAP1 POP SWAP2 SWAP1 POP JUMP JUMPDEST PUSH2 0xC59 DUP2 PUSH2 0xC45 JUMP JUMPDEST DUP2 EQ PUSH2 0xC63 JUMPI PUSH0 DUP1 REVERT JUMPDEST POP JUMP JUMPDEST PUSH0 DUP2 MLOAD SWAP1 POP PUSH2 0xC74 DUP2 PUSH2 0xC50 JUMP JUMPDEST SWAP3 SWAP2 POP POP JUMP JUMPDEST PUSH0 PUSH1 0x20 DUP3 DUP5 SUB SLT ISZERO PUSH2 0xC8F JUMPI PUSH2 0xC8E PUSH2 0xC41 JUMP JUMPDEST JUMPDEST PUSH0 PUSH2 0xC9C DUP5 DUP3 DUP6 ADD PUSH2 0xC66 JUMP JUMPDEST SWAP2 POP POP SWAP3 SWAP2 POP POP JUMP JUMPDEST PUSH2 0xCAE DUP2 PUSH2 0xC45 JUMP JUMPDEST DUP3 MSTORE POP POP JUMP JUMPDEST PUSH32 0x73746F726546696C6520646964206E6F74207265766572742061732065787065 PUSH0 DUP3 ADD MSTORE PUSH32 0x6374656400000000000000000000000000000000000000000000000000000000 PUSH1 0x20 DUP3 ADD MSTORE POP JUMP JUMPDEST PUSH0 PUSH2 0xD0E PUSH1 0x24 DUP4 PUSH2 0xAF9 JUMP JUMPDEST SWAP2 POP PUSH2 0xD19 DUP3 PUSH2 0xCB4 JUMP JUMPDEST PUSH1 0x40 DUP3 ADD SWAP1 POP SWAP2 SWAP1 POP JUMP JUMPDEST PUSH0 PUSH1 0x60 DUP3 ADD SWAP1 POP PUSH2 0xD37 PUSH0 DUP4 ADD DUP6 PUSH2 0xCA5 JUMP JUMPDEST PUSH2 0xD44 PUSH1 0x20 DUP4 ADD DUP5 PUSH2 0xCA5 JUMP JUMPDEST DUP2 DUP2 SUB PUSH1 0x40 DUP4 ADD MSTORE PUSH2 0xD55 DUP2 PUSH2 0xD02 JUMP JUMPDEST SWAP1 POP SWAP4 SWAP3 POP POP POP JUMP JUMPDEST PUSH0 PUSH1 0x40 DUP3 ADD SWAP1 POP DUP2 DUP2 SUB PUSH0 DUP4 ADD MSTORE PUSH2 0xD76 DUP2 DUP6 PUSH2 0x93C JUMP JUMPDEST SWAP1 POP DUP2 DUP2 SUB PUSH1 0x20 DUP4 ADD MSTORE PUSH2 0xD8A DUP2 DUP5 PUSH2 0x93C JUMP JUMPDEST SWAP1 POP SWAP4 SWAP3 POP POP POP JUMP JUMPDEST PUSH32 0x4E487B7100000000000000000000000000000000000000000000000000000000 PUSH0 MSTORE PUSH1 0x51 PUSH1 0x4 MSTORE PUSH1 0x24 PUSH0 REVERT INVALID PUSH1 0x80 PUSH1 0x40 MSTORE PUSH1 0x3 PUSH0 SSTORE PUSH1 0x64 PUSH1 0x1 SSTORE CALLVALUE DUP1 ISZERO PUSH2 0x18 JUMPI PUSH0 DUP1 REVERT JUMPDEST POP CALLER PUSH1 0x6 PUSH0 PUSH2 0x100 EXP DUP2 SLOAD DUP2 PUSH20 0xFFFFFFFFFFFFFFFFFFFFFFFFFFFFFFFFFFFFFFFF MUL NOT AND SWAP1 DUP4 PUSH20 0xFFFFFFFFFFFFFFFFFFFFFFFFFFFFFFFFFFFFFFFF AND MUL OR SWAP1 SSTORE POP PUSH2 0x43F5 DUP1 PUSH2 0x66 PUSH0 CODECOPY PUSH0 RETURN INVALID PUSH1 0x80 PUSH1 0x40 MSTORE CALLVALUE DUP1 ISZERO PUSH2 0xF JUMPI PUSH0 DUP1 REVERT JUMPDEST POP PUSH1 0x4 CALLDATASIZE LT PUSH2 0x12A JUMPI PUSH0 CALLDATALOAD PUSH1 0xE0 SHR DUP1 PUSH4 0x67E9C8D1 GT PUSH2 0xAB JUMPI DUP1 PUSH4 0xA9910054 GT PUSH2 0x6F JUMPI DUP1 PUSH4 0xA9910054 EQ PUSH2 0x33D JUMPI DUP1 PUSH4 0xB23793D6 EQ PUSH2 0x359 JUMPI DUP1 PUSH4 0xC6E24C90 EQ PUSH2 0x389 JUMPI DUP1 PUSH4 0xCF86BF93 EQ PUSH2 0x3B9 JUMPI DUP1 PUSH4 0xFE72AE13 EQ PUSH2 0x3D7 JUMPI PUSH2 0x12A JUMP JUMPDEST DUP1 PUSH4 0x67E9C8D1 EQ PUSH2 0x299 JUMPI DUP1 PUSH4 0x8DA5CB5B EQ PUSH2 0x2B5 JUMPI DUP1 PUSH4 0x92099C21 EQ PUSH2 0x2D3 JUMPI DUP1 PUSH4 0xA1174E7D EQ PUSH2 0x2EF JUMPI DUP1 PUSH4 0xA9860308 EQ PUSH2 0x30D JUMPI PUSH2 0x12A JUMP JUMPDEST DUP1 PUSH4 0x583CAF96 GT PUSH2 0xF2 JUMPI DUP1 PUSH4 0x583CAF96 EQ PUSH2 0x1F7 JUMPI DUP1 PUSH4 0x5945646C EQ PUSH2 0x227 JUMPI DUP1 PUSH4 0x5D44762B EQ PUSH2 0x243 JUMPI DUP1 PUSH4 0x5FFD7C06 EQ PUSH2 0x25F JUMPI DUP1 PUSH4 0x664DCE3F EQ PUSH2 0x27D JUMPI PUSH2 0x12A JUMP JUMPDEST DUP1 PUSH4 0x11BD77FE EQ PUSH2 0x12E JUMPI DUP1 PUSH4 0x189A5A17 EQ PUSH2 0x14A JUMPI DUP1 PUSH4 0x196815D2 EQ PUSH2 0x17B JUMPI DUP1 PUSH4 0x30E00C9B EQ PUSH2 0x1AB JUMPI DUP1 PUSH4 0x528AECCE EQ PUSH2 0x1DB JUMPI JUMPDEST PUSH0 DUP1 REVERT JUMPDEST PUSH2 0x148 PUSH1 0x4 DUP1 CALLDATASIZE SUB DUP2 ADD SWAP1 PUSH2 0x143 SWAP2 SWAP1 PUSH2 0x2B3B JUMP JUMPDEST PUSH2 0x407 JUMP JUMPDEST STOP JUMPDEST PUSH2 0x164 PUSH1 0x4 DUP1 CALLDATASIZE SUB DUP2 ADD SWAP1 PUSH2 0x15F SWAP2 SWAP1 PUSH2 0x2B79 JUMP JUMPDEST PUSH2 0x627 JUMP JUMPDEST PUSH1 0x40 MLOAD PUSH2 0x172 SWAP3 SWAP2 SWAP1 PUSH2 0x2BC2 JUMP JUMPDEST PUSH1 0x40 MLOAD DUP1 SWAP2 SUB SWAP1 RETURN JUMPDEST PUSH2 0x195 PUSH1 0x4 DUP1 CALLDATASIZE SUB DUP2 ADD SWAP1 PUSH2 0x190 SWAP2 SWAP1 PUSH2 0x2E07 JUMP JUMPDEST PUSH2 0x666 JUMP JUMPDEST PUSH1 0x40 MLOAD PUSH2 0x1A2 SWAP2 SWAP1 PUSH2 0x2E66 JUMP JUMPDEST PUSH1 0x40 MLOAD DUP1 SWAP2 SUB SWAP1 RETURN JUMPDEST PUSH2 0x1C5 PUSH1 0x4 DUP1 CALLDATASIZE SUB DUP2 ADD SWAP1 PUSH2 0x1C0 SWAP2 SWAP1 PUSH2 0x2E7F JUMP JUMPDEST PUSH2 0x6E0 JUMP JUMPDEST PUSH1 0x40 MLOAD PUSH2 0x1D2 SWAP2 SWAP1 PUSH2 0x2ED9 JUMP JUMPDEST PUSH1 0x40 MLOAD DUP1 SWAP2 SUB SWAP1 RETURN JUMPDEST PUSH2 0x1F5 PUSH1 0x4 DUP1 CALLDATASIZE SUB DUP2 ADD SWAP1 PUSH2 0x1F0 SWAP2 SWAP1 PUSH2 0x2EF2 JUMP JUMPDEST PUSH2 0x740 JUMP JUMPDEST STOP JUMPDEST PUSH2 0x211 PUSH1 0x4 DUP1 CALLDATASIZE SUB DUP2 ADD SWAP1 PUSH2 0x20C SWAP2 SWAP1 PUSH2 0x3007 JUMP JUMPDEST PUSH2 0xB20 JUMP JUMPDEST PUSH1 0x40 MLOAD PUSH2 0x21E SWAP2 SWAP1 PUSH2 0x32A0 JUMP JUMPDEST PUSH1 0x40 MLOAD DUP1 SWAP2 SUB SWAP1 RETURN JUMPDEST PUSH2 0x241 PUSH1 0x4 DUP1 CALLDATASIZE SUB DUP2 ADD SWAP1 PUSH2 0x23C SWAP2 SWAP1 PUSH2 0x3007 JUMP JUMPDEST PUSH2 0xFFE JUMP JUMPDEST STOP JUMPDEST PUSH2 0x25D PUSH1 0x4 DUP1 CALLDATASIZE SUB DUP2 ADD SWAP1 PUSH2 0x258 SWAP2 SWAP1 PUSH2 0x32C0 JUMP JUMPDEST PUSH2 0x10C7 JUMP JUMPDEST STOP JUMPDEST PUSH2 0x267 PUSH2 0x12C3 JUMP JUMPDEST PUSH1 0x40 MLOAD PUSH2 0x274 SWAP2 SWAP1 PUSH2 0x335C JUMP JUMPDEST PUSH1 0x40 MLOAD DUP1 SWAP2 SUB SWAP1 RETURN JUMPDEST PUSH2 0x297 PUSH1 0x4 DUP1 CALLDATASIZE SUB DUP2 ADD SWAP1 PUSH2 0x292 SWAP2 SWAP1 PUSH2 0x3007 JUMP JUMPDEST PUSH2 0x12C8 JUMP JUMPDEST STOP JUMPDEST PUSH2 0x2B3 PUSH1 0x4 DUP1 CALLDATASIZE SUB DUP2 ADD SWAP1 PUSH2 0x2AE SWAP2 SWAP1 PUSH2 0x339F JUMP JUMPDEST PUSH2 0x1337 JUMP JUMPDEST STOP JUMPDEST PUSH2 0x2BD PUSH2 0x1453 JUMP JUMPDEST PUSH1 0x40 MLOAD PUSH2 0x2CA SWAP2 SWAP1 PUSH2 0x2ED9 JUMP JUMPDEST PUSH1 0x40 MLOAD DUP1 SWAP2 SUB SWAP1 RETURN JUMPDEST PUSH2 0x2ED PUSH1 0x4 DUP1 CALLDATASIZE SUB DUP2 ADD SWAP1 PUSH2 0x2E8 SWAP2 SWAP1 PUSH2 0x2B3B JUMP JUMPDEST PUSH2 0x1478 JUMP JUMPDEST STOP JUMPDEST PUSH2 0x2F7 PUSH2 0x1486 JUMP JUMPDEST PUSH1 0x40 MLOAD PUSH2 0x304 SWAP2 SWAP1 PUSH2 0x3465 JUMP JUMPDEST PUSH1 0x40 MLOAD DUP1 SWAP2 SUB SWAP1 RETURN JUMPDEST PUSH2 0x327 PUSH1 0x4 DUP1 CALLDATASIZE SUB DUP2 ADD SWAP1 PUSH2 0x322 SWAP2 SWAP1 PUSH2 0x2B79 JUMP JUMPDEST PUSH2 0x1511 JUMP JUMPDEST PUSH1 0x40 MLOAD PUSH2 0x334 SWAP2 SWAP1 PUSH2 0x34B2 JUMP JUMPDEST PUSH1 0x40 MLOAD DUP1 SWAP2 SUB SWAP1 RETURN JUMPDEST PUSH2 0x357 PUSH1 0x4 DUP1 CALLDATASIZE SUB DUP2 ADD SWAP1 PUSH2 0x352 SWAP2 SWAP1 PUSH2 0x3007 JUMP JUMPDEST PUSH2 0x15C6 JUMP JUMPDEST STOP JUMPDEST PUSH2 0x373 PUSH1 0x4 DUP1 CALLDATASIZE SUB DUP2 ADD SWAP1 PUSH2 0x36E SWAP2 SWAP1 PUSH2 0x3007 JUMP JUMPDEST PUSH2 0x1E3E JUMP JUMPDEST PUSH1 0x40 MLOAD PUSH2 0x380 SWAP2 SWAP1 PUSH2 0x3465 JUMP JUMPDEST PUSH1 0x40 MLOAD DUP1 SWAP2 SUB SWAP1 RETURN JUMPDEST PUSH2 0x3A3 PUSH1 0x4 DUP1 CALLDATASIZE SUB DUP2 ADD SWAP1 PUSH2 0x39E SWAP2 SWAP1 PUSH2 0x358B JUMP JUMPDEST PUSH2 0x1F4A JUMP JUMPDEST PUSH1 0x40 MLOAD PUSH2 0x3B0 SWAP2 SWAP1 PUSH2 0x2ED9 JUMP JUMPDEST PUSH1 0x40 MLOAD DUP1 SWAP2 SUB SWAP1 RETURN JUMPDEST PUSH2 0x3C1 PUSH2 0x213F JUMP JUMPDEST PUSH1 0x40 MLOAD PUSH2 0x3CE SWAP2 SWAP1 PUSH2 0x335C JUMP JUMPDEST PUSH1 0x40 MLOAD DUP1 SWAP2 SUB SWAP1 RETURN JUMPDEST PUSH2 0x3F1 PUSH1 0x4 DUP1 CALLDATASIZE SUB DUP2 ADD SWAP1 PUSH2 0x3EC SWAP2 SWAP1 PUSH2 0x35E5 JUMP JUMPDEST PUSH2 0x2145 JUMP JUMPDEST PUSH1 0x40 MLOAD PUSH2 0x3FE SWAP2 SWAP1 PUSH2 0x2ED9 JUMP JUMPDEST PUSH1 0x40 MLOAD DUP1 SWAP2 SUB SWAP1 RETURN JUMPDEST PUSH0 PUSH20 0xFFFFFFFFFFFFFFFFFFFFFFFFFFFFFFFFFFFFFFFF AND PUSH1 0x3 PUSH0 DUP5 PUSH20 0xFFFFFFFFFFFFFFFFFFFFFFFFFFFFFFFFFFFFFFFF AND PUSH20 0xFFFFFFFFFFFFFFFFFFFFFFFFFFFFFFFFFFFFFFFF AND DUP2 MSTORE PUSH1 0x20 ADD SWAP1 DUP2 MSTORE PUSH1 0x20 ADD PUSH0 KECCAK256 PUSH0 ADD PUSH0 SWAP1 SLOAD SWAP1 PUSH2 0x100 EXP SWAP1 DIV PUSH20 0xFFFFFFFFFFFFFFFFFFFFFFFFFFFFFFFFFFFFFFFF AND PUSH20 0xFFFFFFFFFFFFFFFFFFFFFFFFFFFFFFFFFFFFFFFF AND EQ PUSH2 0x4D3 JUMPI PUSH1 0x40 MLOAD PUSH32 0x8C379A000000000000000000000000000000000000000000000000000000000 DUP2 MSTORE PUSH1 0x4 ADD PUSH2 0x4CA SWAP1 PUSH2 0x3690 JUMP JUMPDEST PUSH1 0x40 MLOAD DUP1 SWAP2 SUB SWAP1 REVERT JUMPDEST PUSH1 0x40 MLOAD DUP1 PUSH1 0x40 ADD PUSH1 0x40 MSTORE DUP1 DUP4 PUSH20 0xFFFFFFFFFFFFFFFFFFFFFFFFFFFFFFFFFFFFFFFF AND DUP2 MSTORE PUSH1 0x20 ADD DUP3 DUP2 MSTORE POP PUSH1 0x3 PUSH0 DUP5 PUSH20 0xFFFFFFFFFFFFFFFFFFFFFFFFFFFFFFFFFFFFFFFF AND PUSH20 0xFFFFFFFFFFFFFFFFFFFFFFFFFFFFFFFFFFFFFFFF AND DUP2 MSTORE PUSH1 0x20 ADD SWAP1 DUP2 MSTORE PUSH1 0x20 ADD PUSH0 KECCAK256 PUSH0 DUP3 ADD MLOAD DUP2 PUSH0 ADD PUSH0 PUSH2 0x100 EXP DUP2 SLOAD DUP2 PUSH20 0xFFFFFFFFFFFFFFFFFFFFFFFFFFFFFFFFFFFFFFFF MUL NOT AND SWAP1 DUP4 PUSH20 0xFFFFFFFFFFFFFFFFFFFFFFFFFFFFFFFFFFFFFFFF AND MUL OR SWAP1 SSTORE POP PUSH1 0x20 DUP3 ADD MLOAD DUP2 PUSH1 0x1 ADD SSTORE SWAP1 POP POP PUSH32 0x5F91B0AFD2C6EF8DA92137BA907BCCDC85EC4856A15AD39DE3E0EFF02BE6D70E DUP3 PUSH1 0x40 MLOAD PUSH2 0x5BB SWAP2 SWAP1 PUSH2 0x2ED9 JUMP JUMPDEST PUSH1 0x40 MLOAD DUP1 SWAP2 SUB SWAP1 LOG1 PUSH1 0x5 DUP3 SWAP1 DUP1 PUSH1 0x1 DUP2 SLOAD ADD DUP1 DUP3 SSTORE DUP1 SWAP2 POP POP PUSH1 0x1 SWAP1 SUB SWAP1 PUSH0 MSTORE PUSH1 0x20 PUSH0 KECCAK256 ADD PUSH0 SWAP1 SWAP2 SWAP1 SWAP2 SWAP1 SWAP2 PUSH2 0x100 EXP DUP2 SLOAD DUP2 PUSH20 0xFFFFFFFFFFFFFFFFFFFFFFFFFFFFFFFFFFFFFFFF MUL NOT AND SWAP1 DUP4 PUSH20 0xFFFFFFFFFFFFFFFFFFFFFFFFFFFFFFFFFFFFFFFF AND MUL OR SWAP1 SSTORE POP POP POP JUMP JUMPDEST PUSH1 0x3 PUSH1 0x20 MSTORE DUP1 PUSH0 MSTORE PUSH1 0x40 PUSH0 KECCAK256 PUSH0 SWAP2 POP SWAP1 POP DUP1 PUSH0 ADD PUSH0 SWAP1 SLOAD SWAP1 PUSH2 0x100 EXP SWAP1 DIV PUSH20 0xFFFFFFFFFFFFFFFFFFFFFFFFFFFFFFFFFFFFFFFF AND SWAP1 DUP1 PUSH1 0x1 ADD SLOAD SWAP1 POP DUP3 JUMP JUMPDEST PUSH0 DUP1 PUSH1 0x40 MLOAD DUP1 PUSH1 0x20 ADD PUSH1 0x40 MSTORE DUP1 PUSH0 DUP2 MSTORE POP SWAP1 POP PUSH0 JUMPDEST DUP4 MLOAD DUP2 LT ISZERO PUSH2 0x6CF JUMPI DUP2 DUP5 DUP3 DUP2 MLOAD DUP2 LT PUSH2 0x698 JUMPI PUSH2 0x697 PUSH2 0x36AE JUMP JUMPDEST JUMPDEST PUSH1 0x20 MUL PUSH1 0x20 ADD ADD MLOAD PUSH1 0x40 MLOAD PUSH1 0x20 ADD PUSH2 0x6B1 SWAP3 SWAP2 SWAP1 PUSH2 0x3759 JUMP JUMPDEST PUSH1 0x40 MLOAD PUSH1 0x20 DUP2 DUP4 SUB SUB DUP2 MSTORE SWAP1 PUSH1 0x40 MSTORE SWAP2 POP DUP1 DUP1 PUSH1 0x1 ADD SWAP2 POP POP PUSH2 0x67B JUMP JUMPDEST POP DUP1 DUP1 MLOAD SWAP1 PUSH1 0x20 ADD KECCAK256 SWAP2 POP POP SWAP2 SWAP1 POP JUMP JUMPDEST PUSH1 0x4 DUP3 DUP1 MLOAD PUSH1 0x20 DUP2 ADD DUP3 ADD DUP1 MLOAD DUP5 DUP3 MSTORE PUSH1 0x20 DUP4 ADD PUSH1 0x20 DUP6 ADD KECCAK256 DUP2 DUP4 MSTORE DUP1 SWAP6 POP POP POP POP POP POP DUP2 DUP2 SLOAD DUP2 LT PUSH2 0x711 JUMPI PUSH0 DUP1 REVERT JUMPDEST SWAP1 PUSH0 MSTORE PUSH1 0x20 PUSH0 KECCAK256 ADD PUSH0 SWAP2 POP SWAP2 POP SWAP1 SLOAD SWAP1 PUSH2 0x100 EXP SWAP1 DIV PUSH20 0xFFFFFFFFFFFFFFFFFFFFFFFFFFFFFFFFFFFFFFFF AND DUP2 JUMP JUMPDEST PUSH0 PUSH1 0x5 DUP1 SLOAD SWAP1 POP EQ ISZERO PUSH1 0x40 MLOAD DUP1 PUSH1 0x60 ADD PUSH1 0x40 MSTORE DUP1 PUSH1 0x23 DUP2 MSTORE PUSH1 0x20 ADD PUSH2 0x42ED PUSH1 0x23 SWAP2 CODECOPY SWAP1 PUSH2 0x7A3 JUMPI PUSH1 0x40 MLOAD PUSH32 0x8C379A000000000000000000000000000000000000000000000000000000000 DUP2 MSTORE PUSH1 0x4 ADD PUSH2 0x79A SWAP2 SWAP1 PUSH2 0x37B4 JUMP JUMPDEST PUSH1 0x40 MLOAD DUP1 SWAP2 SUB SWAP1 REVERT JUMPDEST POP PUSH0 DUP1 SHL PUSH2 0x7B0 DUP4 PUSH2 0x2180 JUMP JUMPDEST EQ PUSH1 0x40 MLOAD DUP1 PUSH1 0x40 ADD PUSH1 0x40 MSTORE DUP1 PUSH1 0x1C DUP2 MSTORE PUSH1 0x20 ADD PUSH32 0x73746F726546696C653A204475706C69636174652046696C6520496400000000 DUP2 MSTORE POP SWAP1 PUSH2 0x828 JUMPI PUSH1 0x40 MLOAD PUSH32 0x8C379A000000000000000000000000000000000000000000000000000000000 DUP2 MSTORE PUSH1 0x4 ADD PUSH2 0x81F SWAP2 SWAP1 PUSH2 0x37B4 JUMP JUMPDEST PUSH1 0x40 MLOAD DUP1 SWAP2 SUB SWAP1 REVERT JUMPDEST POP PUSH0 JUMPDEST DUP7 MLOAD DUP2 LT ISZERO PUSH2 0xAE5 JUMPI PUSH1 0x7 PUSH0 PUSH2 0x841 SWAP2 SWAP1 PUSH2 0x2975 JUMP JUMPDEST PUSH0 DUP8 DUP3 DUP2 MLOAD DUP2 LT PUSH2 0x855 JUMPI PUSH2 0x854 PUSH2 0x36AE JUMP JUMPDEST JUMPDEST PUSH1 0x20 MUL PUSH1 0x20 ADD ADD MLOAD MLOAD SWAP1 POP PUSH0 DUP1 DUP1 SLOAD SWAP1 POP PUSH1 0x3 PUSH1 0x5 DUP1 SLOAD SWAP1 POP LT ISZERO PUSH2 0x87D JUMPI PUSH1 0x5 DUP1 SLOAD SWAP1 POP SWAP1 POP JUMPDEST PUSH2 0x8BD PUSH1 0x40 MLOAD DUP1 PUSH1 0x40 ADD PUSH1 0x40 MSTORE DUP1 PUSH1 0x13 DUP2 MSTORE PUSH1 0x20 ADD PUSH32 0x4475706C69636174696F6E207374617274656400000000000000000000000000 DUP2 MSTORE POP DUP4 DUP4 PUSH2 0x21EA JUMP JUMPDEST JUMPDEST DUP1 DUP3 LT ISZERO PUSH2 0xAB3 JUMPI PUSH0 PUSH2 0x954 DUP5 PUSH1 0x7 DUP1 SLOAD DUP1 PUSH1 0x20 MUL PUSH1 0x20 ADD PUSH1 0x40 MLOAD SWAP1 DUP2 ADD PUSH1 0x40 MSTORE DUP1 SWAP3 SWAP2 SWAP1 DUP2 DUP2 MSTORE PUSH1 0x20 ADD DUP3 DUP1 SLOAD DUP1 ISZERO PUSH2 0x94A JUMPI PUSH1 0x20 MUL DUP3 ADD SWAP2 SWAP1 PUSH0 MSTORE PUSH1 0x20 PUSH0 KECCAK256 SWAP1 JUMPDEST DUP2 PUSH0 SWAP1 SLOAD SWAP1 PUSH2 0x100 EXP SWAP1 DIV PUSH20 0xFFFFFFFFFFFFFFFFFFFFFFFFFFFFFFFFFFFFFFFF AND PUSH20 0xFFFFFFFFFFFFFFFFFFFFFFFFFFFFFFFFFFFFFFFF AND DUP2 MSTORE PUSH1 0x20 ADD SWAP1 PUSH1 0x1 ADD SWAP1 DUP1 DUP4 GT PUSH2 0x901 JUMPI JUMPDEST POP POP POP POP POP PUSH2 0x1F4A JUMP JUMPDEST SWAP1 POP PUSH32 0x5F91B0AFD2C6EF8DA92137BA907BCCDC85EC4856A15AD39DE3E0EFF02BE6D70E DUP2 PUSH1 0x40 MLOAD PUSH2 0x985 SWAP2 SWAP1 PUSH2 0x2ED9 JUMP JUMPDEST PUSH1 0x40 MLOAD DUP1 SWAP2 SUB SWAP1 LOG1 PUSH1 0x7 DUP2 SWAP1 DUP1 PUSH1 0x1 DUP2 SLOAD ADD DUP1 DUP3 SSTORE DUP1 SWAP2 POP POP PUSH1 0x1 SWAP1 SUB SWAP1 PUSH0 MSTORE PUSH1 0x20 PUSH0 KECCAK256 ADD PUSH0 SWAP1 SWAP2 SWAP1 SWAP2 SWAP1 SWAP2 PUSH2 0x100 EXP DUP2 SLOAD DUP2 PUSH20 0xFFFFFFFFFFFFFFFFFFFFFFFFFFFFFFFFFFFFFFFF MUL NOT AND SWAP1 DUP4 PUSH20 0xFFFFFFFFFFFFFFFFFFFFFFFFFFFFFFFFFFFFFFFF AND MUL OR SWAP1 SSTORE POP PUSH32 0xB011A0DA2BACC57F5C2DDF79F5C8E86484A4FC528F15571A48A9D47956BC82BE DUP2 PUSH1 0x40 MLOAD PUSH2 0xA1C SWAP2 SWAP1 PUSH2 0x2ED9 JUMP JUMPDEST PUSH1 0x40 MLOAD DUP1 SWAP2 SUB SWAP1 LOG1 DUP3 DUP1 PUSH2 0xA2F SWAP1 PUSH2 0x3801 JUMP JUMPDEST SWAP4 POP POP PUSH2 0xA58 DUP2 DUP13 DUP8 DUP2 MLOAD DUP2 LT PUSH2 0xA49 JUMPI PUSH2 0xA48 PUSH2 0x36AE JUMP JUMPDEST JUMPDEST PUSH1 0x20 MUL PUSH1 0x20 ADD ADD MLOAD DUP10 DUP9 PUSH2 0x10C7 JUMP JUMPDEST PUSH2 0xAAD DUP2 DUP6 PUSH1 0x3 PUSH0 DUP6 PUSH20 0xFFFFFFFFFFFFFFFFFFFFFFFFFFFFFFFFFFFFFFFF AND PUSH20 0xFFFFFFFFFFFFFFFFFFFFFFFFFFFFFFFFFFFFFFFF AND DUP2 MSTORE PUSH1 0x20 ADD SWAP1 DUP2 MSTORE PUSH1 0x20 ADD PUSH0 KECCAK256 PUSH1 0x1 ADD SLOAD PUSH2 0xAA8 SWAP2 SWAP1 PUSH2 0x3848 JUMP JUMPDEST PUSH2 0x2289 JUMP JUMPDEST POP PUSH2 0x8BE JUMP JUMPDEST PUSH2 0xAD5 PUSH1 0x40 MLOAD DUP1 PUSH1 0x60 ADD PUSH1 0x40 MSTORE DUP1 PUSH1 0x2C DUP2 MSTORE PUSH1 0x20 ADD PUSH2 0x42C1 PUSH1 0x2C SWAP2 CODECOPY DUP6 PUSH2 0x239E JUMP JUMPDEST POP POP POP DUP1 DUP1 PUSH1 0x1 ADD SWAP2 POP POP PUSH2 0x82B JUMP JUMPDEST POP PUSH1 0x7 PUSH0 PUSH2 0xAF3 SWAP2 SWAP1 PUSH2 0x2975 JUMP JUMPDEST PUSH0 PUSH2 0xAFD DUP8 PUSH2 0x666 JUMP JUMPDEST SWAP1 POP PUSH2 0xB09 DUP2 DUP5 PUSH2 0x1337 JUMP JUMPDEST PUSH2 0xB17 DUP7 DUP7 DUP4 DUP8 DUP8 DUP8 PUSH2 0x243A JUMP JUMPDEST POP POP POP POP POP POP POP JUMP JUMPDEST PUSH2 0xB28 PUSH2 0x2993 JUMP JUMPDEST PUSH0 PUSH1 0x8 PUSH0 CALLER PUSH20 0xFFFFFFFFFFFFFFFFFFFFFFFFFFFFFFFFFFFFFFFF AND PUSH20 0xFFFFFFFFFFFFFFFFFFFFFFFFFFFFFFFFFFFFFFFF AND DUP2 MSTORE PUSH1 0x20 ADD SWAP1 DUP2 MSTORE PUSH1 0x20 ADD PUSH0 KECCAK256 DUP1 SLOAD DUP1 PUSH1 0x20 MUL PUSH1 0x20 ADD PUSH1 0x40 MLOAD SWAP1 DUP2 ADD PUSH1 0x40 MSTORE DUP1 SWAP3 SWAP2 SWAP1 DUP2 DUP2 MSTORE PUSH1 0x20 ADD PUSH0 SWAP1 JUMPDEST DUP3 DUP3 LT ISZERO PUSH2 0xE68 JUMPI DUP4 DUP3 SWAP1 PUSH0 MSTORE PUSH1 0x20 PUSH0 KECCAK256 SWAP1 PUSH1 0x8 MUL ADD PUSH1 0x40 MLOAD DUP1 PUSH2 0x100 ADD PUSH1 0x40 MSTORE SWAP1 DUP2 PUSH0 DUP3 ADD DUP1 SLOAD PUSH2 0xBB6 SWAP1 PUSH2 0x38A8 JUMP JUMPDEST DUP1 PUSH1 0x1F ADD PUSH1 0x20 DUP1 SWAP2 DIV MUL PUSH1 0x20 ADD PUSH1 0x40 MLOAD SWAP1 DUP2 ADD PUSH1 0x40 MSTORE DUP1 SWAP3 SWAP2 SWAP1 DUP2 DUP2 MSTORE PUSH1 0x20 ADD DUP3 DUP1 SLOAD PUSH2 0xBE2 SWAP1 PUSH2 0x38A8 JUMP JUMPDEST DUP1 ISZERO PUSH2 0xC2D JUMPI DUP1 PUSH1 0x1F LT PUSH2 0xC04 JUMPI PUSH2 0x100 DUP1 DUP4 SLOAD DIV MUL DUP4 MSTORE SWAP2 PUSH1 0x20 ADD SWAP2 PUSH2 0xC2D JUMP JUMPDEST DUP3 ADD SWAP2 SWAP1 PUSH0 MSTORE PUSH1 0x20 PUSH0 KECCAK256 SWAP1 JUMPDEST DUP2 SLOAD DUP2 MSTORE SWAP1 PUSH1 0x1 ADD SWAP1 PUSH1 0x20 ADD DUP1 DUP4 GT PUSH2 0xC10 JUMPI DUP3 SWAP1 SUB PUSH1 0x1F AND DUP3 ADD SWAP2 JUMPDEST POP POP POP POP POP DUP2 MSTORE PUSH1 0x20 ADD PUSH1 0x1 DUP3 ADD DUP1 SLOAD PUSH2 0xC46 SWAP1 PUSH2 0x38A8 JUMP JUMPDEST DUP1 PUSH1 0x1F ADD PUSH1 0x20 DUP1 SWAP2 DIV MUL PUSH1 0x20 ADD PUSH1 0x40 MLOAD SWAP1 DUP2 ADD PUSH1 0x40 MSTORE DUP1 SWAP3 SWAP2 SWAP1 DUP2 DUP2 MSTORE PUSH1 0x20 ADD DUP3 DUP1 SLOAD PUSH2 0xC72 SWAP1 PUSH2 0x38A8 JUMP JUMPDEST DUP1 ISZERO PUSH2 0xCBD JUMPI DUP1 PUSH1 0x1F LT PUSH2 0xC94 JUMPI PUSH2 0x100 DUP1 DUP4 SLOAD DIV MUL DUP4 MSTORE SWAP2 PUSH1 0x20 ADD SWAP2 PUSH2 0xCBD JUMP JUMPDEST DUP3 ADD SWAP2 SWAP1 PUSH0 MSTORE PUSH1 0x20 PUSH0 KECCAK256 SWAP1 JUMPDEST DUP2 SLOAD DUP2 MSTORE SWAP1 PUSH1 0x1 ADD SWAP1 PUSH1 0x20 ADD DUP1 DUP4 GT PUSH2 0xCA0 JUMPI DUP3 SWAP1 SUB PUSH1 0x1F AND DUP3 ADD SWAP2 JUMPDEST POP POP POP POP POP DUP2 MSTORE PUSH1 0x20 ADD PUSH1 0x2 DUP3 ADD DUP1 SLOAD PUSH2 0xCD6 SWAP1 PUSH2 0x38A8 JUMP JUMPDEST DUP1 PUSH1 0x1F ADD PUSH1 0x20 DUP1 SWAP2 DIV MUL PUSH1 0x20 ADD PUSH1 0x40 MLOAD SWAP1 DUP2 ADD PUSH1 0x40 MSTORE DUP1 SWAP3 SWAP2 SWAP1 DUP2 DUP2 MSTORE PUSH1 0x20 ADD DUP3 DUP1 SLOAD PUSH2 0xD02 SWAP1 PUSH2 0x38A8 JUMP JUMPDEST DUP1 ISZERO PUSH2 0xD4D JUMPI DUP1 PUSH1 0x1F LT PUSH2 0xD24 JUMPI PUSH2 0x100 DUP1 DUP4 SLOAD DIV MUL DUP4 MSTORE SWAP2 PUSH1 0x20 ADD SWAP2 PUSH2 0xD4D JUMP JUMPDEST DUP3 ADD SWAP2 SWAP1 PUSH0 MSTORE PUSH1 0x20 PUSH0 KECCAK256 SWAP1 JUMPDEST DUP2 SLOAD DUP2 MSTORE SWAP1 PUSH1 0x1 ADD SWAP1 PUSH1 0x20 ADD DUP1 DUP4 GT PUSH2 0xD30 JUMPI DUP3 SWAP1 SUB PUSH1 0x1F AND DUP3 ADD SWAP2 JUMPDEST POP POP POP POP POP DUP2 MSTORE PUSH1 0x20 ADD PUSH1 0x3 DUP3 ADD SLOAD DUP2 MSTORE PUSH1 0x20 ADD PUSH1 0x4 DUP3 ADD SLOAD DUP2 MSTORE PUSH1 0x20 ADD PUSH1 0x5 DUP3 ADD SLOAD DUP2 MSTORE PUSH1 0x20 ADD PUSH1 0x6 DUP3 ADD PUSH0 SWAP1 SLOAD SWAP1 PUSH2 0x100 EXP SWAP1 DIV PUSH20 0xFFFFFFFFFFFFFFFFFFFFFFFFFFFFFFFFFFFFFFFF AND PUSH20 0xFFFFFFFFFFFFFFFFFFFFFFFFFFFFFFFFFFFFFFFF AND PUSH20 0xFFFFFFFFFFFFFFFFFFFFFFFFFFFFFFFFFFFFFFFF AND DUP2 MSTORE PUSH1 0x20 ADD PUSH1 0x7 DUP3 ADD DUP1 SLOAD PUSH2 0xDD9 SWAP1 PUSH2 0x38A8 JUMP JUMPDEST DUP1 PUSH1 0x1F ADD PUSH1 0x20 DUP1 SWAP2 DIV MUL PUSH1 0x20 ADD PUSH1 0x40 MLOAD SWAP1 DUP2 ADD PUSH1 0x40 MSTORE DUP1 SWAP3 SWAP2 SWAP1 DUP2 DUP2 MSTORE PUSH1 0x20 ADD DUP3 DUP1 SLOAD PUSH2 0xE05 SWAP1 PUSH2 0x38A8 JUMP JUMPDEST DUP1 ISZERO PUSH2 0xE50 JUMPI DUP1 PUSH1 0x1F LT PUSH2 0xE27 JUMPI PUSH2 0x100 DUP1 DUP4 SLOAD DIV MUL DUP4 MSTORE SWAP2 PUSH1 0x20 ADD SWAP2 PUSH2 0xE50 JUMP JUMPDEST DUP3 ADD SWAP2 SWAP1 PUSH0 MSTORE PUSH1 0x20 PUSH0 KECCAK256 SWAP1 JUMPDEST DUP2 SLOAD DUP2 MSTORE SWAP1 PUSH1 0x1 ADD SWAP1 PUSH1 0x20 ADD DUP1 DUP4 GT PUSH2 0xE33 JUMPI DUP3 SWAP1 SUB PUSH1 0x1F AND DUP3 ADD SWAP2 JUMPDEST POP POP POP POP POP DUP2 MSTORE POP POP DUP2 MSTORE PUSH1 0x20 ADD SWAP1 PUSH1 0x1 ADD SWAP1 PUSH2 0xB85 JUMP JUMPDEST POP POP POP POP SWAP1 POP PUSH0 JUMPDEST DUP2 MLOAD DUP2 LT ISZERO PUSH2 0xEF2 JUMPI PUSH2 0xEA0 DUP3 DUP3 DUP2 MLOAD DUP2 LT PUSH2 0xE8F JUMPI PUSH2 0xE8E PUSH2 0x36AE JUMP JUMPDEST JUMPDEST PUSH1 0x20 MUL PUSH1 0x20 ADD ADD MLOAD PUSH0 ADD MLOAD DUP6 PUSH2 0x285B JUMP JUMPDEST ISZERO PUSH2 0xEE5 JUMPI PUSH1 0x40 MLOAD DUP1 PUSH1 0x40 ADD PUSH1 0x40 MSTORE DUP1 DUP4 DUP4 DUP2 MLOAD DUP2 LT PUSH2 0xEC3 JUMPI PUSH2 0xEC2 PUSH2 0x36AE JUMP JUMPDEST JUMPDEST PUSH1 0x20 MUL PUSH1 0x20 ADD ADD MLOAD DUP2 MSTORE PUSH1 0x20 ADD PUSH2 0xED9 DUP7 PUSH2 0x1E3E JUMP JUMPDEST DUP2 MSTORE POP SWAP3 POP POP POP PUSH2 0xFF9 JUMP JUMPDEST DUP1 DUP1 PUSH1 0x1 ADD SWAP2 POP POP PUSH2 0xE70 JUMP JUMPDEST POP PUSH0 PUSH1 0x40 MLOAD DUP1 PUSH1 0x60 ADD PUSH1 0x40 MSTORE DUP1 PUSH1 0x23 DUP2 MSTORE PUSH1 0x20 ADD PUSH2 0x4355 PUSH1 0x23 SWAP2 CODECOPY SWAP1 PUSH2 0xF4E JUMPI PUSH1 0x40 MLOAD PUSH32 0x8C379A000000000000000000000000000000000000000000000000000000000 DUP2 MSTORE PUSH1 0x4 ADD PUSH2 0xF45 SWAP2 SWAP1 PUSH2 0x37B4 JUMP JUMPDEST PUSH1 0x40 MLOAD DUP1 SWAP2 SUB SWAP1 REVERT JUMPDEST POP PUSH1 0x60 PUSH0 PUSH1 0x40 MLOAD DUP1 PUSH2 0x100 ADD PUSH1 0x40 MSTORE DUP1 PUSH1 0x40 MLOAD DUP1 PUSH1 0x20 ADD PUSH1 0x40 MSTORE DUP1 PUSH0 DUP2 MSTORE POP DUP2 MSTORE PUSH1 0x20 ADD PUSH1 0x40 MLOAD DUP1 PUSH1 0x20 ADD PUSH1 0x40 MSTORE DUP1 PUSH0 DUP2 MSTORE POP DUP2 MSTORE PUSH1 0x20 ADD PUSH1 0x40 MLOAD DUP1 PUSH1 0x20 ADD PUSH1 0x40 MSTORE DUP1 PUSH0 DUP2 MSTORE POP DUP2 MSTORE PUSH1 0x20 ADD PUSH0 DUP1 SHL DUP2 MSTORE PUSH1 0x20 ADD PUSH0 DUP2 MSTORE PUSH1 0x20 ADD PUSH0 DUP2 MSTORE PUSH1 0x20 ADD PUSH0 PUSH20 0xFFFFFFFFFFFFFFFFFFFFFFFFFFFFFFFFFFFFFFFF AND DUP2 MSTORE PUSH1 0x20 ADD PUSH1 0x40 MLOAD DUP1 PUSH1 0x20 ADD PUSH1 0x40 MSTORE DUP1 PUSH0 DUP2 MSTORE POP DUP2 MSTORE POP SWAP1 POP PUSH1 0x40 MLOAD DUP1 PUSH1 0x40 ADD PUSH1 0x40 MSTORE DUP1 DUP3 DUP2 MSTORE PUSH1 0x20 ADD DUP4 DUP2 MSTORE POP SWAP4 POP POP POP POP JUMPDEST SWAP2 SWAP1 POP JUMP JUMPDEST PUSH0 DUP2 MLOAD GT PUSH2 0x1041 JUMPI PUSH1 0x40 MLOAD PUSH32 0x8C379A000000000000000000000000000000000000000000000000000000000 DUP2 MSTORE PUSH1 0x4 ADD PUSH2 0x1038 SWAP1 PUSH2 0x3922 JUMP JUMPDEST PUSH1 0x40 MLOAD DUP1 SWAP2 SUB SWAP1 REVERT JUMPDEST PUSH0 DUP1 SHL PUSH1 0x2 DUP3 PUSH1 0x40 MLOAD PUSH2 0x1054 SWAP2 SWAP1 PUSH2 0x3940 JUMP JUMPDEST SWAP1 DUP2 MSTORE PUSH1 0x20 ADD PUSH1 0x40 MLOAD DUP1 SWAP2 SUB SWAP1 KECCAK256 SLOAD SUB PUSH2 0x10A3 JUMPI PUSH1 0x40 MLOAD PUSH32 0x8C379A000000000000000000000000000000000000000000000000000000000 DUP2 MSTORE PUSH1 0x4 ADD PUSH2 0x109A SWAP1 PUSH2 0x39C6 JUMP JUMPDEST PUSH1 0x40 MLOAD DUP1 SWAP2 SUB SWAP1 REVERT JUMPDEST PUSH1 0x2 DUP2 PUSH1 0x40 MLOAD PUSH2 0x10B3 SWAP2 SWAP1 PUSH2 0x3940 JUMP JUMPDEST SWAP1 DUP2 MSTORE PUSH1 0x20 ADD PUSH1 0x40 MLOAD DUP1 SWAP2 SUB SWAP1 KECCAK256 PUSH0 SWAP1 SSTORE POP JUMP JUMPDEST PUSH0 PUSH20 0xFFFFFFFFFFFFFFFFFFFFFFFFFFFFFFFFFFFFFFFF AND PUSH1 0x3 PUSH0 DUP7 PUSH20 0xFFFFFFFFFFFFFFFFFFFFFFFFFFFFFFFFFFFFFFFF AND PUSH20 0xFFFFFFFFFFFFFFFFFFFFFFFFFFFFFFFFFFFFFFFF AND DUP2 MSTORE PUSH1 0x20 ADD SWAP1 DUP2 MSTORE PUSH1 0x20 ADD PUSH0 KECCAK256 PUSH0 ADD PUSH0 SWAP1 SLOAD SWAP1 PUSH2 0x100 EXP SWAP1 DIV PUSH20 0xFFFFFFFFFFFFFFFFFFFFFFFFFFFFFFFFFFFFFFFF AND PUSH20 0xFFFFFFFFFFFFFFFFFFFFFFFFFFFFFFFFFFFFFFFF AND SUB PUSH2 0x1193 JUMPI PUSH1 0x40 MLOAD PUSH32 0x8C379A000000000000000000000000000000000000000000000000000000000 DUP2 MSTORE PUSH1 0x4 ADD PUSH2 0x118A SWAP1 PUSH2 0x3A54 JUMP JUMPDEST PUSH1 0x40 MLOAD DUP1 SWAP2 SUB SWAP1 REVERT JUMPDEST PUSH2 0x123C DUP5 PUSH1 0x4 DUP5 PUSH1 0x40 MLOAD PUSH2 0x11A7 SWAP2 SWAP1 PUSH2 0x3940 JUMP JUMPDEST SWAP1 DUP2 MSTORE PUSH1 0x20 ADD PUSH1 0x40 MLOAD DUP1 SWAP2 SUB SWAP1 KECCAK256 DUP1 SLOAD DUP1 PUSH1 0x20 MUL PUSH1 0x20 ADD PUSH1 0x40 MLOAD SWAP1 DUP2 ADD PUSH1 0x40 MSTORE DUP1 SWAP3 SWAP2 SWAP1 DUP2 DUP2 MSTORE PUSH1 0x20 ADD DUP3 DUP1 SLOAD DUP1 ISZERO PUSH2 0x1232 JUMPI PUSH1 0x20 MUL DUP3 ADD SWAP2 SWAP1 PUSH0 MSTORE PUSH1 0x20 PUSH0 KECCAK256 SWAP1 JUMPDEST DUP2 PUSH0 SWAP1 SLOAD SWAP1 PUSH2 0x100 EXP SWAP1 DIV PUSH20 0xFFFFFFFFFFFFFFFFFFFFFFFFFFFFFFFFFFFFFFFF AND PUSH20 0xFFFFFFFFFFFFFFFFFFFFFFFFFFFFFFFFFFFFFFFF AND DUP2 MSTORE PUSH1 0x20 ADD SWAP1 PUSH1 0x1 ADD SWAP1 DUP1 DUP4 GT PUSH2 0x11E9 JUMPI JUMPDEST POP POP POP POP POP PUSH2 0x28B3 JUMP JUMPDEST PUSH2 0x12BD JUMPI PUSH1 0x4 DUP3 PUSH1 0x40 MLOAD PUSH2 0x1250 SWAP2 SWAP1 PUSH2 0x3940 JUMP JUMPDEST SWAP1 DUP2 MSTORE PUSH1 0x20 ADD PUSH1 0x40 MLOAD DUP1 SWAP2 SUB SWAP1 KECCAK256 DUP5 SWAP1 DUP1 PUSH1 0x1 DUP2 SLOAD ADD DUP1 DUP3 SSTORE DUP1 SWAP2 POP POP PUSH1 0x1 SWAP1 SUB SWAP1 PUSH0 MSTORE PUSH1 0x20 PUSH0 KECCAK256 ADD PUSH0 SWAP1 SWAP2 SWAP1 SWAP2 SWAP1 SWAP2 PUSH2 0x100 EXP DUP2 SLOAD DUP2 PUSH20 0xFFFFFFFFFFFFFFFFFFFFFFFFFFFFFFFFFFFFFFFF MUL NOT AND SWAP1 DUP4 PUSH20 0xFFFFFFFFFFFFFFFFFFFFFFFFFFFFFFFFFFFFFFFF AND MUL OR SWAP1 SSTORE POP JUMPDEST POP POP POP POP JUMP JUMPDEST PUSH0 SLOAD DUP2 JUMP JUMPDEST PUSH0 DUP2 MLOAD GT PUSH2 0x130B JUMPI PUSH1 0x40 MLOAD PUSH32 0x8C379A000000000000000000000000000000000000000000000000000000000 DUP2 MSTORE PUSH1 0x4 ADD PUSH2 0x1302 SWAP1 PUSH2 0x3AE2 JUMP JUMPDEST PUSH1 0x40 MLOAD DUP1 SWAP2 SUB SWAP1 REVERT JUMPDEST PUSH1 0x4 DUP2 PUSH1 0x40 MLOAD PUSH2 0x131B SWAP2 SWAP1 PUSH2 0x3940 JUMP JUMPDEST SWAP1 DUP2 MSTORE PUSH1 0x20 ADD PUSH1 0x40 MLOAD DUP1 SWAP2 SUB SWAP1 KECCAK256 PUSH0 PUSH2 0x1334 SWAP2 SWAP1 PUSH2 0x2975 JUMP JUMPDEST POP JUMP JUMPDEST PUSH0 PUSH20 0xFFFFFFFFFFFFFFFFFFFFFFFFFFFFFFFFFFFFFFFF AND CALLER PUSH20 0xFFFFFFFFFFFFFFFFFFFFFFFFFFFFFFFFFFFFFFFF AND SUB PUSH2 0x13A5 JUMPI PUSH1 0x40 MLOAD PUSH32 0x8C379A000000000000000000000000000000000000000000000000000000000 DUP2 MSTORE PUSH1 0x4 ADD PUSH2 0x139C SWAP1 PUSH2 0x3B4A JUMP JUMPDEST PUSH1 0x40 MLOAD DUP1 SWAP2 SUB SWAP1 REVERT JUMPDEST PUSH0 DUP1 SHL DUP3 SUB PUSH2 0x13E9 JUMPI PUSH1 0x40 MLOAD PUSH32 0x8C379A000000000000000000000000000000000000000000000000000000000 DUP2 MSTORE PUSH1 0x4 ADD PUSH2 0x13E0 SWAP1 PUSH2 0x3BB2 JUMP JUMPDEST PUSH1 0x40 MLOAD DUP1 SWAP2 SUB SWAP1 REVERT JUMPDEST PUSH0 DUP2 MLOAD GT PUSH2 0x142C JUMPI PUSH1 0x40 MLOAD PUSH32 0x8C379A000000000000000000000000000000000000000000000000000000000 DUP2 MSTORE PUSH1 0x4 ADD PUSH2 0x1423 SWAP1 PUSH2 0x3C1A JUMP JUMPDEST PUSH1 0x40 MLOAD DUP1 SWAP2 SUB SWAP1 REVERT JUMPDEST DUP2 PUSH1 0x2 DUP3 PUSH1 0x40 MLOAD PUSH2 0x143D SWAP2 SWAP1 PUSH2 0x3940 JUMP JUMPDEST SWAP1 DUP2 MSTORE PUSH1 0x20 ADD PUSH1 0x40 MLOAD DUP1 SWAP2 SUB SWAP1 KECCAK256 DUP2 SWAP1 SSTORE POP POP POP JUMP JUMPDEST PUSH1 0x6 PUSH0 SWAP1 SLOAD SWAP1 PUSH2 0x100 EXP SWAP1 DIV PUSH20 0xFFFFFFFFFFFFFFFFFFFFFFFFFFFFFFFFFFFFFFFF AND DUP2 JUMP JUMPDEST PUSH2 0x1482 DUP3 DUP3 PUSH2 0x407 JUMP JUMPDEST POP POP JUMP JUMPDEST PUSH1 0x60 PUSH1 0x5 DUP1 SLOAD DUP1 PUSH1 0x20 MUL PUSH1 0x20 ADD PUSH1 0x40 MLOAD SWAP1 DUP2 ADD PUSH1 0x40 MSTORE DUP1 SWAP3 SWAP2 SWAP1 DUP2 DUP2 MSTORE PUSH1 0x20 ADD DUP3 DUP1 SLOAD DUP1 ISZERO PUSH2 0x1507 JUMPI PUSH1 0x20 MUL DUP3 ADD SWAP2 SWAP1 PUSH0 MSTORE PUSH1 0x20 PUSH0 KECCAK256 SWAP1 JUMPDEST DUP2 PUSH0 SWAP1 SLOAD SWAP1 PUSH2 0x100 EXP SWAP1 DIV PUSH20 0xFFFFFFFFFFFFFFFFFFFFFFFFFFFFFFFFFFFFFFFF AND PUSH20 0xFFFFFFFFFFFFFFFFFFFFFFFFFFFFFFFFFFFFFFFF AND DUP2 MSTORE PUSH1 0x20 ADD SWAP1 PUSH1 0x1 ADD SWAP1 DUP1 DUP4 GT PUSH2 0x14BE JUMPI JUMPDEST POP POP POP POP POP SWAP1 POP SWAP1 JUMP JUMPDEST PUSH2 0x1519 PUSH2 0x29B3 JUMP JUMPDEST PUSH1 0x3 PUSH0 DUP4 PUSH20 0xFFFFFFFFFFFFFFFFFFFFFFFFFFFFFFFFFFFFFFFF AND PUSH20 0xFFFFFFFFFFFFFFFFFFFFFFFFFFFFFFFFFFFFFFFF AND DUP2 MSTORE PUSH1 0x20 ADD SWAP1 DUP2 MSTORE PUSH1 0x20 ADD PUSH0 KECCAK256 PUSH1 0x40 MLOAD DUP1 PUSH1 0x40 ADD PUSH1 0x40 MSTORE SWAP1 DUP2 PUSH0 DUP3 ADD PUSH0 SWAP1 SLOAD SWAP1 PUSH2 0x100 EXP SWAP1 DIV PUSH20 0xFFFFFFFFFFFFFFFFFFFFFFFFFFFFFFFFFFFFFFFF AND PUSH20 0xFFFFFFFFFFFFFFFFFFFFFFFFFFFFFFFFFFFFFFFF AND PUSH20 0xFFFFFFFFFFFFFFFFFFFFFFFFFFFFFFFFFFFFFFFF AND DUP2 MSTORE PUSH1 0x20 ADD PUSH1 0x1 DUP3 ADD SLOAD DUP2 MSTORE POP POP SWAP1 POP SWAP2 SWAP1 POP JUMP JUMPDEST PUSH0 PUSH1 0x8 PUSH0 CALLER PUSH20 0xFFFFFFFFFFFFFFFFFFFFFFFFFFFFFFFFFFFFFFFF AND PUSH20 0xFFFFFFFFFFFFFFFFFFFFFFFFFFFFFFFFFFFFFFFF AND DUP2 MSTORE PUSH1 0x20 ADD SWAP1 DUP2 MSTORE PUSH1 0x20 ADD PUSH0 KECCAK256 DUP1 SLOAD SWAP1 POP GT PUSH1 0x40 MLOAD DUP1 PUSH1 0x40 ADD PUSH1 0x40 MSTORE DUP1 PUSH1 0x1B DUP2 MSTORE PUSH1 0x20 ADD PUSH32 0x64656C65746546696C653A20496E76616C69642066696C652069640000000000 DUP2 MSTORE POP SWAP1 PUSH2 0x1680 JUMPI PUSH1 0x40 MLOAD PUSH32 0x8C379A000000000000000000000000000000000000000000000000000000000 DUP2 MSTORE PUSH1 0x4 ADD PUSH2 0x1677 SWAP2 SWAP1 PUSH2 0x37B4 JUMP JUMPDEST PUSH1 0x40 MLOAD DUP1 SWAP2 SUB SWAP1 REVERT JUMPDEST POP PUSH0 PUSH1 0x8 PUSH0 CALLER PUSH20 0xFFFFFFFFFFFFFFFFFFFFFFFFFFFFFFFFFFFFFFFF AND PUSH20 0xFFFFFFFFFFFFFFFFFFFFFFFFFFFFFFFFFFFFFFFF AND DUP2 MSTORE PUSH1 0x20 ADD SWAP1 DUP2 MSTORE PUSH1 0x20 ADD PUSH0 KECCAK256 DUP1 SLOAD DUP1 PUSH1 0x20 MUL PUSH1 0x20 ADD PUSH1 0x40 MLOAD SWAP1 DUP2 ADD PUSH1 0x40 MSTORE DUP1 SWAP3 SWAP2 SWAP1 DUP2 DUP2 MSTORE PUSH1 0x20 ADD PUSH0 SWAP1 JUMPDEST DUP3 DUP3 LT ISZERO PUSH2 0x19C1 JUMPI DUP4 DUP3 SWAP1 PUSH0 MSTORE PUSH1 0x20 PUSH0 KECCAK256 SWAP1 PUSH1 0x8 MUL ADD PUSH1 0x40 MLOAD DUP1 PUSH2 0x100 ADD PUSH1 0x40 MSTORE SWAP1 DUP2 PUSH0 DUP3 ADD DUP1 SLOAD PUSH2 0x170F SWAP1 PUSH2 0x38A8 JUMP JUMPDEST DUP1 PUSH1 0x1F ADD PUSH1 0x20 DUP1 SWAP2 DIV MUL PUSH1 0x20 ADD PUSH1 0x40 MLOAD SWAP1 DUP2 ADD PUSH1 0x40 MSTORE DUP1 SWAP3 SWAP2 SWAP1 DUP2 DUP2 MSTORE PUSH1 0x20 ADD DUP3 DUP1 SLOAD PUSH2 0x173B SWAP1 PUSH2 0x38A8 JUMP JUMPDEST DUP1 ISZERO PUSH2 0x1786 JUMPI DUP1 PUSH1 0x1F LT PUSH2 0x175D JUMPI PUSH2 0x100 DUP1 DUP4 SLOAD DIV MUL DUP4 MSTORE SWAP2 PUSH1 0x20 ADD SWAP2 PUSH2 0x1786 JUMP JUMPDEST DUP3 ADD SWAP2 SWAP1 PUSH0 MSTORE PUSH1 0x20 PUSH0 KECCAK256 SWAP1 JUMPDEST DUP2 SLOAD DUP2 MSTORE SWAP1 PUSH1 0x1 ADD SWAP1 PUSH1 0x20 ADD DUP1 DUP4 GT PUSH2 0x1769 JUMPI DUP3 SWAP1 SUB PUSH1 0x1F AND DUP3 ADD SWAP2 JUMPDEST POP POP POP POP POP DUP2 MSTORE PUSH1 0x20 ADD PUSH1 0x1 DUP3 ADD DUP1 SLOAD PUSH2 0x179F SWAP1 PUSH2 0x38A8 JUMP JUMPDEST DUP1 PUSH1 0x1F ADD PUSH1 0x20 DUP1 SWAP2 DIV MUL PUSH1 0x20 ADD PUSH1 0x40 MLOAD SWAP1 DUP2 ADD PUSH1 0x40 MSTORE DUP1 SWAP3 SWAP2 SWAP1 DUP2 DUP2 MSTORE PUSH1 0x20 ADD DUP3 DUP1 SLOAD PUSH2 0x17CB SWAP1 PUSH2 0x38A8 JUMP JUMPDEST DUP1 ISZERO PUSH2 0x1816 JUMPI DUP1 PUSH1 0x1F LT PUSH2 0x17ED JUMPI PUSH2 0x100 DUP1 DUP4 SLOAD DIV MUL DUP4 MSTORE SWAP2 PUSH1 0x20 ADD SWAP2 PUSH2 0x1816 JUMP JUMPDEST DUP3 ADD SWAP2 SWAP1 PUSH0 MSTORE PUSH1 0x20 PUSH0 KECCAK256 SWAP1 JUMPDEST DUP2 SLOAD DUP2 MSTORE SWAP1 PUSH1 0x1 ADD SWAP1 PUSH1 0x20 ADD DUP1 DUP4 GT PUSH2 0x17F9 JUMPI DUP3 SWAP1 SUB PUSH1 0x1F AND DUP3 ADD SWAP2 JUMPDEST POP POP POP POP POP DUP2 MSTORE PUSH1 0x20 ADD PUSH1 0x2 DUP3 ADD DUP1 SLOAD PUSH2 0x182F SWAP1 PUSH2 0x38A8 JUMP JUMPDEST DUP1 PUSH1 0x1F ADD PUSH1 0x20 DUP1 SWAP2 DIV MUL PUSH1 0x20 ADD PUSH1 0x40 MLOAD SWAP1 DUP2 ADD PUSH1 0x40 MSTORE DUP1 SWAP3 SWAP2 SWAP1 DUP2 DUP2 MSTORE PUSH1 0x20 ADD DUP3 DUP1 SLOAD PUSH2 0x185B SWAP1 PUSH2 0x38A8 JUMP JUMPDEST DUP1 ISZERO PUSH2 0x18A6 JUMPI DUP1 PUSH1 0x1F LT PUSH2 0x187D JUMPI PUSH2 0x100 DUP1 DUP4 SLOAD DIV MUL DUP4 MSTORE SWAP2 PUSH1 0x20 ADD SWAP2 PUSH2 0x18A6 JUMP JUMPDEST DUP3 ADD SWAP2 SWAP1 PUSH0 MSTORE PUSH1 0x20 PUSH0 KECCAK256 SWAP1 JUMPDEST DUP2 SLOAD DUP2 MSTORE SWAP1 PUSH1 0x1 ADD SWAP1 PUSH1 0x20 ADD DUP1 DUP4 GT PUSH2 0x1889 JUMPI DUP3 SWAP1 SUB PUSH1 0x1F AND DUP3 ADD SWAP2 JUMPDEST POP POP POP POP POP DUP2 MSTORE PUSH1 0x20 ADD PUSH1 0x3 DUP3 ADD SLOAD DUP2 MSTORE PUSH1 0x20 ADD PUSH1 0x4 DUP3 ADD SLOAD DUP2 MSTORE PUSH1 0x20 ADD PUSH1 0x5 DUP3 ADD SLOAD DUP2 MSTORE PUSH1 0x20 ADD PUSH1 0x6 DUP3 ADD PUSH0 SWAP1 SLOAD SWAP1 PUSH2 0x100 EXP SWAP1 DIV PUSH20 0xFFFFFFFFFFFFFFFFFFFFFFFFFFFFFFFFFFFFFFFF AND PUSH20 0xFFFFFFFFFFFFFFFFFFFFFFFFFFFFFFFFFFFFFFFF AND PUSH20 0xFFFFFFFFFFFFFFFFFFFFFFFFFFFFFFFFFFFFFFFF AND DUP2 MSTORE PUSH1 0x20 ADD PUSH1 0x7 DUP3 ADD DUP1 SLOAD PUSH2 0x1932 SWAP1 PUSH2 0x38A8 JUMP JUMPDEST DUP1 PUSH1 0x1F ADD PUSH1 0x20 DUP1 SWAP2 DIV MUL PUSH1 0x20 ADD PUSH1 0x40 MLOAD SWAP1 DUP2 ADD PUSH1 0x40 MSTORE DUP1 SWAP3 SWAP2 SWAP1 DUP2 DUP2 MSTORE PUSH1 0x20 ADD DUP3 DUP1 SLOAD PUSH2 0x195E SWAP1 PUSH2 0x38A8 JUMP JUMPDEST DUP1 ISZERO PUSH2 0x19A9 JUMPI DUP1 PUSH1 0x1F LT PUSH2 0x1980 JUMPI PUSH2 0x100 DUP1 DUP4 SLOAD DIV MUL DUP4 MSTORE SWAP2 PUSH1 0x20 ADD SWAP2 PUSH2 0x19A9 JUMP JUMPDEST DUP3 ADD SWAP2 SWAP1 PUSH0 MSTORE PUSH1 0x20 PUSH0 KECCAK256 SWAP1 JUMPDEST DUP2 SLOAD DUP2 MSTORE SWAP1 PUSH1 0x1 ADD SWAP1 PUSH1 0x20 ADD DUP1 DUP4 GT PUSH2 0x198C JUMPI DUP3 SWAP1 SUB PUSH1 0x1F AND DUP3 ADD SWAP2 JUMPDEST POP POP POP POP POP DUP2 MSTORE POP POP DUP2 MSTORE PUSH1 0x20 ADD SWAP1 PUSH1 0x1 ADD SWAP1 PUSH2 0x16DE JUMP JUMPDEST POP POP POP POP SWAP1 POP PUSH0 PUSH1 0x1 DUP3 MLOAD PUSH2 0x19D6 SWAP2 SWAP1 PUSH2 0x3848 JUMP JUMPDEST SWAP1 POP PUSH0 DUP3 DUP3 DUP2 MLOAD DUP2 LT PUSH2 0x19EC JUMPI PUSH2 0x19EB PUSH2 0x36AE JUMP JUMPDEST JUMPDEST PUSH1 0x20 MUL PUSH1 0x20 ADD ADD MLOAD SWAP1 POP PUSH2 0x19FE PUSH2 0x29E1 JUMP JUMPDEST PUSH0 DUP1 JUMPDEST DUP6 MLOAD DUP2 LT ISZERO PUSH2 0x1B7E JUMPI PUSH2 0x1A31 DUP7 DUP3 DUP2 MLOAD DUP2 LT PUSH2 0x1A20 JUMPI PUSH2 0x1A1F PUSH2 0x36AE JUMP JUMPDEST JUMPDEST PUSH1 0x20 MUL PUSH1 0x20 ADD ADD MLOAD PUSH0 ADD MLOAD DUP9 PUSH2 0x285B JUMP JUMPDEST ISZERO PUSH2 0x1B71 JUMPI PUSH1 0x1 SWAP2 POP DUP6 DUP2 DUP2 MLOAD DUP2 LT PUSH2 0x1A4D JUMPI PUSH2 0x1A4C PUSH2 0x36AE JUMP JUMPDEST JUMPDEST PUSH1 0x20 MUL PUSH1 0x20 ADD ADD MLOAD SWAP3 POP DUP4 PUSH1 0x8 PUSH0 CALLER PUSH20 0xFFFFFFFFFFFFFFFFFFFFFFFFFFFFFFFFFFFFFFFF AND PUSH20 0xFFFFFFFFFFFFFFFFFFFFFFFFFFFFFFFFFFFFFFFF AND DUP2 MSTORE PUSH1 0x20 ADD SWAP1 DUP2 MSTORE PUSH1 0x20 ADD PUSH0 KECCAK256 DUP3 DUP2 SLOAD DUP2 LT PUSH2 0x1AA7 JUMPI PUSH2 0x1AA6 PUSH2 0x36AE JUMP JUMPDEST JUMPDEST SWAP1 PUSH0 MSTORE PUSH1 0x20 PUSH0 KECCAK256 SWAP1 PUSH1 0x8 MUL ADD PUSH0 DUP3 ADD MLOAD DUP2 PUSH0 ADD SWAP1 DUP2 PUSH2 0x1AC6 SWAP2 SWAP1 PUSH2 0x3DD5 JUMP JUMPDEST POP PUSH1 0x20 DUP3 ADD MLOAD DUP2 PUSH1 0x1 ADD SWAP1 DUP2 PUSH2 0x1ADC SWAP2 SWAP1 PUSH2 0x3DD5 JUMP JUMPDEST POP PUSH1 0x40 DUP3 ADD MLOAD DUP2 PUSH1 0x2 ADD SWAP1 DUP2 PUSH2 0x1AF2 SWAP2 SWAP1 PUSH2 0x3DD5 JUMP JUMPDEST POP PUSH1 0x60 DUP3 ADD MLOAD DUP2 PUSH1 0x3 ADD SSTORE PUSH1 0x80 DUP3 ADD MLOAD DUP2 PUSH1 0x4 ADD SSTORE PUSH1 0xA0 DUP3 ADD MLOAD DUP2 PUSH1 0x5 ADD SSTORE PUSH1 0xC0 DUP3 ADD MLOAD DUP2 PUSH1 0x6 ADD PUSH0 PUSH2 0x100 EXP DUP2 SLOAD DUP2 PUSH20 0xFFFFFFFFFFFFFFFFFFFFFFFFFFFFFFFFFFFFFFFF MUL NOT AND SWAP1 DUP4 PUSH20 0xFFFFFFFFFFFFFFFFFFFFFFFFFFFFFFFFFFFFFFFF AND MUL OR SWAP1 SSTORE POP PUSH1 0xE0 DUP3 ADD MLOAD DUP2 PUSH1 0x7 ADD SWAP1 DUP2 PUSH2 0x1B6C SWAP2 SWAP1 PUSH2 0x3DD5 JUMP JUMPDEST POP SWAP1 POP POP JUMPDEST DUP1 DUP1 PUSH1 0x1 ADD SWAP2 POP POP PUSH2 0x1A01 JUMP JUMPDEST POP DUP1 PUSH1 0x40 MLOAD DUP1 PUSH1 0x40 ADD PUSH1 0x40 MSTORE DUP1 PUSH1 0x1A DUP2 MSTORE PUSH1 0x20 ADD PUSH32 0x64656C65746546696C653A2046696C65204E6F7420666F756E64000000000000 DUP2 MSTORE POP SWAP1 PUSH2 0x1BF7 JUMPI PUSH1 0x40 MLOAD PUSH32 0x8C379A000000000000000000000000000000000000000000000000000000000 DUP2 MSTORE PUSH1 0x4 ADD PUSH2 0x1BEE SWAP2 SWAP1 PUSH2 0x37B4 JUMP JUMPDEST PUSH1 0x40 MLOAD DUP1 SWAP2 SUB SWAP1 REVERT JUMPDEST POP DUP2 PUSH1 0x8 PUSH0 CALLER PUSH20 0xFFFFFFFFFFFFFFFFFFFFFFFFFFFFFFFFFFFFFFFF AND PUSH20 0xFFFFFFFFFFFFFFFFFFFFFFFFFFFFFFFFFFFFFFFF AND DUP2 MSTORE PUSH1 0x20 ADD SWAP1 DUP2 MSTORE PUSH1 0x20 ADD PUSH0 KECCAK256 DUP6 DUP2 SLOAD DUP2 LT PUSH2 0x1C48 JUMPI PUSH2 0x1C47 PUSH2 0x36AE JUMP JUMPDEST JUMPDEST SWAP1 PUSH0 MSTORE PUSH1 0x20 PUSH0 KECCAK256 SWAP1 PUSH1 0x8 MUL ADD PUSH0 DUP3 ADD MLOAD DUP2 PUSH0 ADD SWAP1 DUP2 PUSH2 0x1C67 SWAP2 SWAP1 PUSH2 0x3DD5 JUMP JUMPDEST POP PUSH1 0x20 DUP3 ADD MLOAD DUP2 PUSH1 0x1 ADD SWAP1 DUP2 PUSH2 0x1C7D SWAP2 SWAP1 PUSH2 0x3DD5 JUMP JUMPDEST POP PUSH1 0x40 DUP3 ADD MLOAD DUP2 PUSH1 0x2 ADD SWAP1 DUP2 PUSH2 0x1C93 SWAP2 SWAP1 PUSH2 0x3DD5 JUMP JUMPDEST POP PUSH1 0x60 DUP3 ADD MLOAD DUP2 PUSH1 0x3 ADD SSTORE PUSH1 0x80 DUP3 ADD MLOAD DUP2 PUSH1 0x4 ADD SSTORE PUSH1 0xA0 DUP3 ADD MLOAD DUP2 PUSH1 0x5 ADD SSTORE PUSH1 0xC0 DUP3 ADD MLOAD DUP2 PUSH1 0x6 ADD PUSH0 PUSH2 0x100 EXP DUP2 SLOAD DUP2 PUSH20 0xFFFFFFFFFFFFFFFFFFFFFFFFFFFFFFFFFFFFFFFF MUL NOT AND SWAP1 DUP4 PUSH20 0xFFFFFFFFFFFFFFFFFFFFFFFFFFFFFFFFFFFFFFFF AND MUL OR SWAP1 SSTORE POP PUSH1 0xE0 DUP3 ADD MLOAD DUP2 PUSH1 0x7 ADD SWAP1 DUP2 PUSH2 0x1D0D SWAP2 SWAP1 PUSH2 0x3DD5 JUMP JUMPDEST POP SWAP1 POP POP PUSH1 0x8 PUSH0 CALLER PUSH20 0xFFFFFFFFFFFFFFFFFFFFFFFFFFFFFFFFFFFFFFFF AND PUSH20 0xFFFFFFFFFFFFFFFFFFFFFFFFFFFFFFFFFFFFFFFF AND DUP2 MSTORE PUSH1 0x20 ADD SWAP1 DUP2 MSTORE PUSH1 0x20 ADD PUSH0 KECCAK256 DUP1 SLOAD DUP1 PUSH2 0x1D5E JUMPI PUSH2 0x1D5D PUSH2 0x3EA4 JUMP JUMPDEST JUMPDEST PUSH1 0x1 SWAP1 SUB DUP2 DUP2 SWAP1 PUSH0 MSTORE PUSH1 0x20 PUSH0 KECCAK256 SWAP1 PUSH1 0x8 MUL ADD PUSH0 DUP1 DUP3 ADD PUSH0 PUSH2 0x1D7F SWAP2 SWAP1 PUSH2 0x2A3B JUMP JUMPDEST PUSH1 0x1 DUP3 ADD PUSH0 PUSH2 0x1D8E SWAP2 SWAP1 PUSH2 0x2A3B JUMP JUMPDEST PUSH1 0x2 DUP3 ADD PUSH0 PUSH2 0x1D9D SWAP2 SWAP1 PUSH2 0x2A3B JUMP JUMPDEST PUSH1 0x3 DUP3 ADD PUSH0 SWAP1 SSTORE PUSH1 0x4 DUP3 ADD PUSH0 SWAP1 SSTORE PUSH1 0x5 DUP3 ADD PUSH0 SWAP1 SSTORE PUSH1 0x6 DUP3 ADD PUSH0 PUSH2 0x100 EXP DUP2 SLOAD SWAP1 PUSH20 0xFFFFFFFFFFFFFFFFFFFFFFFFFFFFFFFFFFFFFFFF MUL NOT AND SWAP1 SSTORE PUSH1 0x7 DUP3 ADD PUSH0 PUSH2 0x1DE7 SWAP2 SWAP1 PUSH2 0x2A3B JUMP JUMPDEST POP POP SWAP1 SSTORE PUSH2 0x1DF4 DUP7 PUSH2 0x12C8 JUMP JUMPDEST PUSH2 0x1DFD DUP7 PUSH2 0xFFE JUMP JUMPDEST PUSH32 0x8598A19145BA7B62366F9F3E3CECA438DF1E575FFA3BEF982ED120041131D786 CALLER DUP8 PUSH1 0x40 MLOAD PUSH2 0x1E2E SWAP3 SWAP2 SWAP1 PUSH2 0x3ED1 JUMP JUMPDEST PUSH1 0x40 MLOAD DUP1 SWAP2 SUB SWAP1 LOG1 POP POP POP POP POP POP JUMP JUMPDEST PUSH1 0x60 PUSH0 PUSH1 0x4 DUP4 PUSH1 0x40 MLOAD PUSH2 0x1E51 SWAP2 SWAP1 PUSH2 0x3940 JUMP JUMPDEST SWAP1 DUP2 MSTORE PUSH1 0x20 ADD PUSH1 0x40 MLOAD DUP1 SWAP2 SUB SWAP1 KECCAK256 DUP1 SLOAD SWAP1 POP GT PUSH2 0x1EA3 JUMPI PUSH1 0x40 MLOAD PUSH32 0x8C379A000000000000000000000000000000000000000000000000000000000 DUP2 MSTORE PUSH1 0x4 ADD PUSH2 0x1E9A SWAP1 PUSH2 0x3F95 JUMP JUMPDEST PUSH1 0x40 MLOAD DUP1 SWAP2 SUB SWAP1 REVERT JUMPDEST PUSH1 0x4 DUP3 PUSH1 0x40 MLOAD PUSH2 0x1EB3 SWAP2 SWAP1 PUSH2 0x3940 JUMP JUMPDEST SWAP1 DUP2 MSTORE PUSH1 0x20 ADD PUSH1 0x40 MLOAD DUP1 SWAP2 SUB SWAP1 KECCAK256 DUP1 SLOAD DUP1 PUSH1 0x20 MUL PUSH1 0x20 ADD PUSH1 0x40 MLOAD SWAP1 DUP2 ADD PUSH1 0x40 MSTORE DUP1 SWAP3 SWAP2 SWAP1 DUP2 DUP2 MSTORE PUSH1 0x20 ADD DUP3 DUP1 SLOAD DUP1 ISZERO PUSH2 0x1F3E JUMPI PUSH1 0x20 MUL DUP3 ADD SWAP2 SWAP1 PUSH0 MSTORE PUSH1 0x20 PUSH0 KECCAK256 SWAP1 JUMPDEST DUP2 PUSH0 SWAP1 SLOAD SWAP1 PUSH2 0x100 EXP SWAP1 DIV PUSH20 0xFFFFFFFFFFFFFFFFFFFFFFFFFFFFFFFFFFFFFFFF AND PUSH20 0xFFFFFFFFFFFFFFFFFFFFFFFFFFFFFFFFFFFFFFFF AND DUP2 MSTORE PUSH1 0x20 ADD SWAP1 PUSH1 0x1 ADD SWAP1 DUP1 DUP4 GT PUSH2 0x1EF5 JUMPI JUMPDEST POP POP POP POP POP SWAP1 POP SWAP2 SWAP1 POP JUMP JUMPDEST PUSH0 DUP1 PUSH1 0x5 DUP1 SLOAD SWAP1 POP SWAP1 POP PUSH0 PUSH1 0x32 SWAP1 POP PUSH0 DUP3 SUB PUSH2 0x1F6A JUMPI PUSH0 SWAP3 POP POP POP PUSH2 0x2139 JUMP JUMPDEST PUSH0 DUP3 PUSH1 0x1 NUMBER PUSH2 0x1F79 SWAP2 SWAP1 PUSH2 0x3848 JUMP JUMPDEST BLOCKHASH PUSH0 SHR PUSH2 0x1F86 SWAP2 SWAP1 PUSH2 0x3FE0 JUMP JUMPDEST SWAP1 POP PUSH0 DUP1 PUSH0 PUSH2 0x3E8 SWAP1 POP JUMPDEST DUP1 DUP3 LT ISZERO PUSH2 0x212F JUMPI PUSH0 PUSH1 0x5 DUP8 DUP6 DUP8 PUSH2 0x1FA9 SWAP2 SWAP1 PUSH2 0x4010 JUMP JUMPDEST PUSH2 0x1FB3 SWAP2 SWAP1 PUSH2 0x3FE0 JUMP JUMPDEST DUP2 SLOAD DUP2 LT PUSH2 0x1FC4 JUMPI PUSH2 0x1FC3 PUSH2 0x36AE JUMP JUMPDEST JUMPDEST SWAP1 PUSH0 MSTORE PUSH1 0x20 PUSH0 KECCAK256 ADD PUSH0 SWAP1 SLOAD SWAP1 PUSH2 0x100 EXP SWAP1 DIV PUSH20 0xFFFFFFFFFFFFFFFFFFFFFFFFFFFFFFFFFFFFFFFF AND SWAP1 POP PUSH32 0x838D04243391D45D94A98FFF54D1737CBFFEA86C34AB825E5D6980EC9B77235 DUP6 PUSH1 0x40 MLOAD PUSH2 0x201D SWAP2 SWAP1 PUSH2 0x335C JUMP JUMPDEST PUSH1 0x40 MLOAD DUP1 SWAP2 SUB SWAP1 LOG1 DUP6 DUP11 PUSH2 0x2031 SWAP2 SWAP1 PUSH2 0x4010 JUMP JUMPDEST PUSH1 0x3 PUSH0 DUP4 PUSH20 0xFFFFFFFFFFFFFFFFFFFFFFFFFFFFFFFFFFFFFFFF AND PUSH20 0xFFFFFFFFFFFFFFFFFFFFFFFFFFFFFFFFFFFFFFFF AND DUP2 MSTORE PUSH1 0x20 ADD SWAP1 DUP2 MSTORE PUSH1 0x20 ADD PUSH0 KECCAK256 PUSH1 0x1 ADD SLOAD GT ISZERO PUSH2 0x2102 JUMPI PUSH0 PUSH1 0x1 SWAP1 POP PUSH0 JUMPDEST DUP11 MLOAD DUP2 LT ISZERO PUSH2 0x20E6 JUMPI DUP3 PUSH20 0xFFFFFFFFFFFFFFFFFFFFFFFFFFFFFFFFFFFFFFFF AND DUP12 DUP3 DUP2 MLOAD DUP2 LT PUSH2 0x20B2 JUMPI PUSH2 0x20B1 PUSH2 0x36AE JUMP JUMPDEST JUMPDEST PUSH1 0x20 MUL PUSH1 0x20 ADD ADD MLOAD PUSH20 0xFFFFFFFFFFFFFFFFFFFFFFFFFFFFFFFFFFFFFFFF AND SUB PUSH2 0x20D9 JUMPI PUSH0 SWAP2 POP JUMPDEST DUP1 DUP1 PUSH1 0x1 ADD SWAP2 POP POP PUSH2 0x207F JUMP JUMPDEST POP DUP1 ISZERO PUSH2 0x2100 JUMPI DUP3 SWAP4 POP DUP2 SWAP9 POP POP POP POP POP POP POP POP POP PUSH2 0x2139 JUMP JUMPDEST POP JUMPDEST DUP4 DUP1 PUSH2 0x210D SWAP1 PUSH2 0x3801 JUMP JUMPDEST SWAP5 POP POP DUP3 DUP1 PUSH2 0x211B SWAP1 PUSH2 0x3801 JUMP JUMPDEST SWAP4 POP POP DUP7 DUP5 SUB PUSH2 0x2129 JUMPI PUSH0 SWAP4 POP JUMPDEST POP PUSH2 0x1F91 JUMP JUMPDEST PUSH0 SWAP7 POP POP POP POP POP POP POP JUMPDEST SWAP3 SWAP2 POP POP JUMP JUMPDEST PUSH1 0x1 SLOAD DUP2 JUMP JUMPDEST PUSH1 0x5 DUP2 DUP2 SLOAD DUP2 LT PUSH2 0x2154 JUMPI PUSH0 DUP1 REVERT JUMPDEST SWAP1 PUSH0 MSTORE PUSH1 0x20 PUSH0 KECCAK256 ADD PUSH0 SWAP2 POP SLOAD SWAP1 PUSH2 0x100 EXP SWAP1 DIV PUSH20 0xFFFFFFFFFFFFFFFFFFFFFFFFFFFFFFFFFFFFFFFF AND DUP2 JUMP JUMPDEST PUSH0 DUP1 DUP3 MLOAD GT PUSH2 0x21C4 JUMPI PUSH1 0x40 MLOAD PUSH32 0x8C379A000000000000000000000000000000000000000000000000000000000 DUP2 MSTORE PUSH1 0x4 ADD PUSH2 0x21BB SWAP1 PUSH2 0x408D JUMP JUMPDEST PUSH1 0x40 MLOAD DUP1 SWAP2 SUB SWAP1 REVERT JUMPDEST PUSH1 0x2 DUP3 PUSH1 0x40 MLOAD PUSH2 0x21D4 SWAP2 SWAP1 PUSH2 0x3940 JUMP JUMPDEST SWAP1 DUP2 MSTORE PUSH1 0x20 ADD PUSH1 0x40 MLOAD DUP1 SWAP2 SUB SWAP1 KECCAK256 SLOAD SWAP1 POP SWAP2 SWAP1 POP JUMP JUMPDEST PUSH2 0x2284 DUP4 DUP4 DUP4 PUSH1 0x40 MLOAD PUSH1 0x24 ADD PUSH2 0x2202 SWAP4 SWAP3 SWAP2 SWAP1 PUSH2 0x40AB JUMP JUMPDEST PUSH1 0x40 MLOAD PUSH1 0x20 DUP2 DUP4 SUB SUB DUP2 MSTORE SWAP1 PUSH1 0x40 MSTORE PUSH32 0xCA47C4EB00000000000000000000000000000000000000000000000000000000 PUSH28 0xFFFFFFFFFFFFFFFFFFFFFFFFFFFFFFFFFFFFFFFFFFFFFFFFFFFFFFFF NOT AND PUSH1 0x20 DUP3 ADD DUP1 MLOAD PUSH28 0xFFFFFFFFFFFFFFFFFFFFFFFFFFFFFFFFFFFFFFFFFFFFFFFFFFFFFFFF DUP4 DUP2 DUP4 AND OR DUP4 MSTORE POP POP POP POP PUSH2 0x2931 JUMP JUMPDEST POP POP POP JUMP JUMPDEST PUSH0 PUSH20 0xFFFFFFFFFFFFFFFFFFFFFFFFFFFFFFFFFFFFFFFF AND PUSH1 0x3 PUSH0 DUP5 PUSH20 0xFFFFFFFFFFFFFFFFFFFFFFFFFFFFFFFFFFFFFFFF AND PUSH20 0xFFFFFFFFFFFFFFFFFFFFFFFFFFFFFFFFFFFFFFFF AND DUP2 MSTORE PUSH1 0x20 ADD SWAP1 DUP2 MSTORE PUSH1 0x20 ADD PUSH0 KECCAK256 PUSH0 ADD PUSH0 SWAP1 SLOAD SWAP1 PUSH2 0x100 EXP SWAP1 DIV PUSH20 0xFFFFFFFFFFFFFFFFFFFFFFFFFFFFFFFFFFFFFFFF AND PUSH20 0xFFFFFFFFFFFFFFFFFFFFFFFFFFFFFFFFFFFFFFFF AND SUB PUSH2 0x2355 JUMPI PUSH1 0x40 MLOAD PUSH32 0x8C379A000000000000000000000000000000000000000000000000000000000 DUP2 MSTORE PUSH1 0x4 ADD PUSH2 0x234C SWAP1 PUSH2 0x417D JUMP JUMPDEST PUSH1 0x40 MLOAD DUP1 SWAP2 SUB SWAP1 REVERT JUMPDEST DUP1 PUSH1 0x3 PUSH0 DUP5 PUSH20 0xFFFFFFFFFFFFFFFFFFFFFFFFFFFFFFFFFFFFFFFF AND PUSH20 0xFFFFFFFFFFFFFFFFFFFFFFFFFFFFFFFFFFFFFFFF AND DUP2 MSTORE PUSH1 0x20 ADD SWAP1 DUP2 MSTORE PUSH1 0x20 ADD PUSH0 KECCAK256 PUSH1 0x1 ADD DUP2 SWAP1 SSTORE POP POP POP JUMP JUMPDEST PUSH2 0x2436 DUP3 DUP3 PUSH1 0x40 MLOAD PUSH1 0x24 ADD PUSH2 0x23B4 SWAP3 SWAP2 SWAP1 PUSH2 0x419B JUMP JUMPDEST PUSH1 0x40 MLOAD PUSH1 0x20 DUP2 DUP4 SUB SUB DUP2 MSTORE SWAP1 PUSH1 0x40 MSTORE PUSH32 0xB60E72CC00000000000000000000000000000000000000000000000000000000 PUSH28 0xFFFFFFFFFFFFFFFFFFFFFFFFFFFFFFFFFFFFFFFFFFFFFFFFFFFFFFFF NOT AND PUSH1 0x20 DUP3 ADD DUP1 MLOAD PUSH28 0xFFFFFFFFFFFFFFFFFFFFFFFFFFFFFFFFFFFFFFFFFFFFFFFFFFFFFFFF DUP4 DUP2 DUP4 AND OR DUP4 MSTORE POP POP POP POP PUSH2 0x2931 JUMP JUMPDEST POP POP JUMP JUMPDEST PUSH0 PUSH20 0xFFFFFFFFFFFFFFFFFFFFFFFFFFFFFFFFFFFFFFFF AND CALLER PUSH20 0xFFFFFFFFFFFFFFFFFFFFFFFFFFFFFFFFFFFFFFFF AND EQ ISZERO PUSH1 0x40 MLOAD DUP1 PUSH1 0x60 ADD PUSH1 0x40 MSTORE DUP1 PUSH1 0x21 DUP2 MSTORE PUSH1 0x20 ADD PUSH2 0x4334 PUSH1 0x21 SWAP2 CODECOPY SWAP1 PUSH2 0x24C4 JUMPI PUSH1 0x40 MLOAD PUSH32 0x8C379A000000000000000000000000000000000000000000000000000000000 DUP2 MSTORE PUSH1 0x4 ADD PUSH2 0x24BB SWAP2 SWAP1 PUSH2 0x37B4 JUMP JUMPDEST PUSH1 0x40 MLOAD DUP1 SWAP2 SUB SWAP1 REVERT JUMPDEST POP PUSH0 DUP6 MLOAD GT PUSH1 0x40 MLOAD DUP1 PUSH1 0x60 ADD PUSH1 0x40 MSTORE DUP1 PUSH1 0x24 DUP2 MSTORE PUSH1 0x20 ADD PUSH2 0x429D PUSH1 0x24 SWAP2 CODECOPY SWAP1 PUSH2 0x2523 JUMPI PUSH1 0x40 MLOAD PUSH32 0x8C379A000000000000000000000000000000000000000000000000000000000 DUP2 MSTORE PUSH1 0x4 ADD PUSH2 0x251A SWAP2 SWAP1 PUSH2 0x37B4 JUMP JUMPDEST PUSH1 0x40 MLOAD DUP1 SWAP2 SUB SWAP1 REVERT JUMPDEST POP PUSH0 DUP7 MLOAD GT PUSH1 0x40 MLOAD DUP1 PUSH1 0x60 ADD PUSH1 0x40 MSTORE DUP1 PUSH1 0x24 DUP2 MSTORE PUSH1 0x20 ADD PUSH2 0x4378 PUSH1 0x24 SWAP2 CODECOPY SWAP1 PUSH2 0x2582 JUMPI PUSH1 0x40 MLOAD PUSH32 0x8C379A000000000000000000000000000000000000000000000000000000000 DUP2 MSTORE PUSH1 0x4 ADD PUSH2 0x2579 SWAP2 SWAP1 PUSH2 0x37B4 JUMP JUMPDEST PUSH1 0x40 MLOAD DUP1 SWAP2 SUB SWAP1 REVERT JUMPDEST POP PUSH0 DUP1 SHL DUP5 EQ ISZERO PUSH1 0x40 MLOAD DUP1 PUSH1 0x60 ADD PUSH1 0x40 MSTORE DUP1 PUSH1 0x24 DUP2 MSTORE PUSH1 0x20 ADD PUSH2 0x439C PUSH1 0x24 SWAP2 CODECOPY SWAP1 PUSH2 0x25E3 JUMPI PUSH1 0x40 MLOAD PUSH32 0x8C379A000000000000000000000000000000000000000000000000000000000 DUP2 MSTORE PUSH1 0x4 ADD PUSH2 0x25DA SWAP2 SWAP1 PUSH2 0x37B4 JUMP JUMPDEST PUSH1 0x40 MLOAD DUP1 SWAP2 SUB SWAP1 REVERT JUMPDEST POP PUSH0 DUP2 GT PUSH1 0x40 MLOAD DUP1 PUSH1 0x60 ADD PUSH1 0x40 MSTORE DUP1 PUSH1 0x24 DUP2 MSTORE PUSH1 0x20 ADD PUSH2 0x4279 PUSH1 0x24 SWAP2 CODECOPY SWAP1 PUSH2 0x2641 JUMPI PUSH1 0x40 MLOAD PUSH32 0x8C379A000000000000000000000000000000000000000000000000000000000 DUP2 MSTORE PUSH1 0x4 ADD PUSH2 0x2638 SWAP2 SWAP1 PUSH2 0x37B4 JUMP JUMPDEST PUSH1 0x40 MLOAD DUP1 SWAP2 SUB SWAP1 REVERT JUMPDEST POP PUSH0 DUP3 MLOAD GT PUSH1 0x40 MLOAD DUP1 PUSH1 0x60 ADD PUSH1 0x40 MSTORE DUP1 PUSH1 0x24 DUP2 MSTORE PUSH1 0x20 ADD PUSH2 0x4310 PUSH1 0x24 SWAP2 CODECOPY SWAP1 PUSH2 0x26A0 JUMPI PUSH1 0x40 MLOAD PUSH32 0x8C379A000000000000000000000000000000000000000000000000000000000 DUP2 MSTORE PUSH1 0x4 ADD PUSH2 0x2697 SWAP2 SWAP1 PUSH2 0x37B4 JUMP JUMPDEST PUSH1 0x40 MLOAD DUP1 SWAP2 SUB SWAP1 REVERT JUMPDEST POP PUSH1 0x8 PUSH0 CALLER PUSH20 0xFFFFFFFFFFFFFFFFFFFFFFFFFFFFFFFFFFFFFFFF AND PUSH20 0xFFFFFFFFFFFFFFFFFFFFFFFFFFFFFFFFFFFFFFFF AND DUP2 MSTORE PUSH1 0x20 ADD SWAP1 DUP2 MSTORE PUSH1 0x20 ADD PUSH0 KECCAK256 PUSH1 0x40 MLOAD DUP1 PUSH2 0x100 ADD PUSH1 0x40 MSTORE DUP1 DUP5 DUP2 MSTORE PUSH1 0x20 ADD DUP9 DUP2 MSTORE PUSH1 0x20 ADD DUP8 DUP2 MSTORE PUSH1 0x20 ADD DUP7 DUP2 MSTORE PUSH1 0x20 ADD DUP4 DUP2 MSTORE PUSH1 0x20 ADD TIMESTAMP DUP2 MSTORE PUSH1 0x20 ADD CALLER PUSH20 0xFFFFFFFFFFFFFFFFFFFFFFFFFFFFFFFFFFFFFFFF AND DUP2 MSTORE PUSH1 0x20 ADD DUP6 DUP2 MSTORE POP SWAP1 DUP1 PUSH1 0x1 DUP2 SLOAD ADD DUP1 DUP3 SSTORE DUP1 SWAP2 POP POP PUSH1 0x1 SWAP1 SUB SWAP1 PUSH0 MSTORE PUSH1 0x20 PUSH0 KECCAK256 SWAP1 PUSH1 0x8 MUL ADD PUSH0 SWAP1 SWAP2 SWAP1 SWAP2 SWAP1 SWAP2 POP PUSH0 DUP3 ADD MLOAD DUP2 PUSH0 ADD SWAP1 DUP2 PUSH2 0x2767 SWAP2 SWAP1 PUSH2 0x3DD5 JUMP JUMPDEST POP PUSH1 0x20 DUP3 ADD MLOAD DUP2 PUSH1 0x1 ADD SWAP1 DUP2 PUSH2 0x277D SWAP2 SWAP1 PUSH2 0x3DD5 JUMP JUMPDEST POP PUSH1 0x40 DUP3 ADD MLOAD DUP2 PUSH1 0x2 ADD SWAP1 DUP2 PUSH2 0x2793 SWAP2 SWAP1 PUSH2 0x3DD5 JUMP JUMPDEST POP PUSH1 0x60 DUP3 ADD MLOAD DUP2 PUSH1 0x3 ADD SSTORE PUSH1 0x80 DUP3 ADD MLOAD DUP2 PUSH1 0x4 ADD SSTORE PUSH1 0xA0 DUP3 ADD MLOAD DUP2 PUSH1 0x5 ADD SSTORE PUSH1 0xC0 DUP3 ADD MLOAD DUP2 PUSH1 0x6 ADD PUSH0 PUSH2 0x100 EXP DUP2 SLOAD DUP2 PUSH20 0xFFFFFFFFFFFFFFFFFFFFFFFFFFFFFFFFFFFFFFFF MUL NOT AND SWAP1 DUP4 PUSH20 0xFFFFFFFFFFFFFFFFFFFFFFFFFFFFFFFFFFFFFFFF AND MUL OR SWAP1 SSTORE POP PUSH1 0xE0 DUP3 ADD MLOAD DUP2 PUSH1 0x7 ADD SWAP1 DUP2 PUSH2 0x280D SWAP2 SWAP1 PUSH2 0x3DD5 JUMP JUMPDEST POP POP POP PUSH32 0x557BCCC5A98151EF59A421E190011AA3F6B5DC4AC2FD42FBA79D158CE0C68AC1 DUP3 DUP8 DUP8 DUP8 DUP6 TIMESTAMP CALLER PUSH1 0x40 MLOAD PUSH2 0x284B SWAP8 SWAP7 SWAP6 SWAP5 SWAP4 SWAP3 SWAP2 SWAP1 PUSH2 0x41C9 JUMP JUMPDEST PUSH1 0x40 MLOAD DUP1 SWAP2 SUB SWAP1 LOG1 POP POP POP POP POP POP JUMP JUMPDEST PUSH0 DUP2 PUSH1 0x40 MLOAD PUSH1 0x20 ADD PUSH2 0x286D SWAP2 SWAP1 PUSH2 0x3940 JUMP JUMPDEST PUSH1 0x40 MLOAD PUSH1 0x20 DUP2 DUP4 SUB SUB DUP2 MSTORE SWAP1 PUSH1 0x40 MSTORE DUP1 MLOAD SWAP1 PUSH1 0x20 ADD KECCAK256 DUP4 PUSH1 0x40 MLOAD PUSH1 0x20 ADD PUSH2 0x2894 SWAP2 SWAP1 PUSH2 0x3940 JUMP JUMPDEST PUSH1 0x40 MLOAD PUSH1 0x20 DUP2 DUP4 SUB SUB DUP2 MSTORE SWAP1 PUSH1 0x40 MSTORE DUP1 MLOAD SWAP1 PUSH1 0x20 ADD KECCAK256 EQ SWAP1 POP SWAP3 SWAP2 POP POP JUMP JUMPDEST PUSH0 DUP1 PUSH0 SWAP1 POP JUMPDEST DUP3 MLOAD DUP2 LT ISZERO PUSH2 0x2926 JUMPI DUP4 PUSH20 0xFFFFFFFFFFFFFFFFFFFFFFFFFFFFFFFFFFFFFFFF AND DUP4 DUP3 DUP2 MLOAD DUP2 LT PUSH2 0x28EC JUMPI PUSH2 0x28EB PUSH2 0x36AE JUMP JUMPDEST JUMPDEST PUSH1 0x20 MUL PUSH1 0x20 ADD ADD MLOAD PUSH20 0xFFFFFFFFFFFFFFFFFFFFFFFFFFFFFFFFFFFFFFFF AND SUB PUSH2 0x2919 JUMPI PUSH1 0x1 SWAP2 POP POP PUSH2 0x292B JUMP JUMPDEST DUP1 DUP1 PUSH1 0x1 ADD SWAP2 POP POP PUSH2 0x28B9 JUMP JUMPDEST POP PUSH0 SWAP1 POP JUMPDEST SWAP3 SWAP2 POP POP JUMP JUMPDEST PUSH2 0x2948 DUP2 PUSH2 0x2940 PUSH2 0x294B PUSH2 0x296A JUMP JUMPDEST PUSH4 0xFFFFFFFF AND JUMP JUMPDEST POP JUMP JUMPDEST PUSH0 PUSH11 0x636F6E736F6C652E6C6F67 SWAP1 POP PUSH0 DUP1 DUP4 MLOAD PUSH1 0x20 DUP6 ADD DUP5 GAS STATICCALL POP POP POP JUMP JUMPDEST PUSH2 0x2A78 DUP2 SWAP1 POP SWAP2 SWAP1 POP JUMP JUMPDEST POP DUP1 SLOAD PUSH0 DUP3 SSTORE SWAP1 PUSH0 MSTORE PUSH1 0x20 PUSH0 KECCAK256 SWAP1 DUP2 ADD SWAP1 PUSH2 0x2990 SWAP2 SWAP1 PUSH2 0x2A82 JUMP JUMPDEST POP JUMP JUMPDEST PUSH1 0x40 MLOAD DUP1 PUSH1 0x40 ADD PUSH1 0x40 MSTORE DUP1 PUSH2 0x29A6 PUSH2 0x29E1 JUMP JUMPDEST DUP2 MSTORE PUSH1 0x20 ADD PUSH1 0x60 DUP2 MSTORE POP SWAP1 JUMP JUMPDEST PUSH1 0x40 MLOAD DUP1 PUSH1 0x40 ADD PUSH1 0x40 MSTORE DUP1 PUSH0 PUSH20 0xFFFFFFFFFFFFFFFFFFFFFFFFFFFFFFFFFFFFFFFF AND DUP2 MSTORE PUSH1 0x20 ADD PUSH0 DUP2 MSTORE POP SWAP1 JUMP JUMPDEST PUSH1 0x40 MLOAD DUP1 PUSH2 0x100 ADD PUSH1 0x40 MSTORE DUP1 PUSH1 0x60 DUP2 MSTORE PUSH1 0x20 ADD PUSH1 0x60 DUP2 MSTORE PUSH1 0x20 ADD PUSH1 0x60 DUP2 MSTORE PUSH1 0x20 ADD PUSH0 DUP1 NOT AND DUP2 MSTORE PUSH1 0x20 ADD PUSH0 DUP2 MSTORE PUSH1 0x20 ADD PUSH0 DUP2 MSTORE PUSH1 0x20 ADD PUSH0 PUSH20 0xFFFFFFFFFFFFFFFFFFFFFFFFFFFFFFFFFFFFFFFF AND DUP2 MSTORE PUSH1 0x20 ADD PUSH1 0x60 DUP2 MSTORE POP SWAP1 JUMP JUMPDEST POP DUP1 SLOAD PUSH2 0x2A47 SWAP1 PUSH2 0x38A8 JUMP JUMPDEST PUSH0 DUP3 SSTORE DUP1 PUSH1 0x1F LT PUSH2 0x2A58 JUMPI POP PUSH2 0x2A75 JUMP JUMPDEST PUSH1 0x1F ADD PUSH1 0x20 SWAP1 DIV SWAP1 PUSH0 MSTORE PUSH1 0x20 PUSH0 KECCAK256 SWAP1 DUP2 ADD SWAP1 PUSH2 0x2A74 SWAP2 SWAP1 PUSH2 0x2A82 JUMP JUMPDEST JUMPDEST POP JUMP JUMPDEST PUSH2 0x2A80 PUSH2 0x424B JUMP JUMPDEST JUMP JUMPDEST JUMPDEST DUP1 DUP3 GT ISZERO PUSH2 0x2A99 JUMPI PUSH0 DUP2 PUSH0 SWAP1 SSTORE POP PUSH1 0x1 ADD PUSH2 0x2A83 JUMP JUMPDEST POP SWAP1 JUMP JUMPDEST PUSH0 PUSH1 0x40 MLOAD SWAP1 POP SWAP1 JUMP JUMPDEST PUSH0 DUP1 REVERT JUMPDEST PUSH0 DUP1 REVERT JUMPDEST PUSH0 PUSH20 0xFFFFFFFFFFFFFFFFFFFFFFFFFFFFFFFFFFFFFFFF DUP3 AND SWAP1 POP SWAP2 SWAP1 POP JUMP JUMPDEST PUSH0 PUSH2 0x2AD7 DUP3 PUSH2 0x2AAE JUMP JUMPDEST SWAP1 POP SWAP2 SWAP1 POP JUMP JUMPDEST PUSH2 0x2AE7 DUP2 PUSH2 0x2ACD JUMP JUMPDEST DUP2 EQ PUSH2 0x2AF1 JUMPI PUSH0 DUP1 REVERT JUMPDEST POP JUMP JUMPDEST PUSH0 DUP2 CALLDATALOAD SWAP1 POP PUSH2 0x2B02 DUP2 PUSH2 0x2ADE JUMP JUMPDEST SWAP3 SWAP2 POP POP JUMP JUMPDEST PUSH0 DUP2 SWAP1 POP SWAP2 SWAP1 POP JUMP JUMPDEST PUSH2 0x2B1A DUP2 PUSH2 0x2B08 JUMP JUMPDEST DUP2 EQ PUSH2 0x2B24 JUMPI PUSH0 DUP1 REVERT JUMPDEST POP JUMP JUMPDEST PUSH0 DUP2 CALLDATALOAD SWAP1 POP PUSH2 0x2B35 DUP2 PUSH2 0x2B11 JUMP JUMPDEST SWAP3 SWAP2 POP POP JUMP JUMPDEST PUSH0 DUP1 PUSH1 0x40 DUP4 DUP6 SUB SLT ISZERO PUSH2 0x2B51 JUMPI PUSH2 0x2B50 PUSH2 0x2AA6 JUMP JUMPDEST JUMPDEST PUSH0 PUSH2 0x2B5E DUP6 DUP3 DUP7 ADD PUSH2 0x2AF4 JUMP JUMPDEST SWAP3 POP POP PUSH1 0x20 PUSH2 0x2B6F DUP6 DUP3 DUP7 ADD PUSH2 0x2B27 JUMP JUMPDEST SWAP2 POP POP SWAP3 POP SWAP3 SWAP1 POP JUMP JUMPDEST PUSH0 PUSH1 0x20 DUP3 DUP5 SUB SLT ISZERO PUSH2 0x2B8E JUMPI PUSH2 0x2B8D PUSH2 0x2AA6 JUMP JUMPDEST JUMPDEST PUSH0 PUSH2 0x2B9B DUP5 DUP3 DUP6 ADD PUSH2 0x2AF4 JUMP JUMPDEST SWAP2 POP POP SWAP3 SWAP2 POP POP JUMP JUMPDEST PUSH2 0x2BAD DUP2 PUSH2 0x2ACD JUMP JUMPDEST DUP3 MSTORE POP POP JUMP JUMPDEST PUSH2 0x2BBC DUP2 PUSH2 0x2B08 JUMP JUMPDEST DUP3 MSTORE POP POP JUMP JUMPDEST PUSH0 PUSH1 0x40 DUP3 ADD SWAP1 POP PUSH2 0x2BD5 PUSH0 DUP4 ADD DUP6 PUSH2 0x2BA4 JUMP JUMPDEST PUSH2 0x2BE2 PUSH1 0x20 DUP4 ADD DUP5 PUSH2 0x2BB3 JUMP JUMPDEST SWAP4 SWAP3 POP POP POP JUMP JUMPDEST PUSH0 DUP1 REVERT JUMPDEST PUSH0 PUSH1 0x1F NOT PUSH1 0x1F DUP4 ADD AND SWAP1 POP SWAP2 SWAP1 POP JUMP JUMPDEST PUSH32 0x4E487B7100000000000000000000000000000000000000000000000000000000 PUSH0 MSTORE PUSH1 0x41 PUSH1 0x4 MSTORE PUSH1 0x24 PUSH0 REVERT JUMPDEST PUSH2 0x2C33 DUP3 PUSH2 0x2BED JUMP JUMPDEST DUP2 ADD DUP2 DUP2 LT PUSH8 0xFFFFFFFFFFFFFFFF DUP3 GT OR ISZERO PUSH2 0x2C52 JUMPI PUSH2 0x2C51 PUSH2 0x2BFD JUMP JUMPDEST JUMPDEST DUP1 PUSH1 0x40 MSTORE POP POP POP JUMP JUMPDEST PUSH0 PUSH2 0x2C64 PUSH2 0x2A9D JUMP JUMPDEST SWAP1 POP PUSH2 0x2C70 DUP3 DUP3 PUSH2 0x2C2A JUMP JUMPDEST SWAP2 SWAP1 POP JUMP JUMPDEST PUSH0 PUSH8 0xFFFFFFFFFFFFFFFF DUP3 GT ISZERO PUSH2 0x2C8F JUMPI PUSH2 0x2C8E PUSH2 0x2BFD JUMP JUMPDEST JUMPDEST PUSH1 0x20 DUP3 MUL SWAP1 POP PUSH1 0x20 DUP2 ADD SWAP1 POP SWAP2 SWAP1 POP JUMP JUMPDEST PUSH0 DUP1 REVERT JUMPDEST PUSH0 DUP1 REVERT JUMPDEST PUSH0 PUSH8 0xFFFFFFFFFFFFFFFF DUP3 GT ISZERO PUSH2 0x2CC2 JUMPI PUSH2 0x2CC1 PUSH2 0x2BFD JUMP JUMPDEST JUMPDEST PUSH2 0x2CCB DUP3 PUSH2 0x2BED JUMP JUMPDEST SWAP1 POP PUSH1 0x20 DUP2 ADD SWAP1 POP SWAP2 SWAP1 POP JUMP JUMPDEST DUP3 DUP2 DUP4 CALLDATACOPY PUSH0 DUP4 DUP4 ADD MSTORE POP POP POP JUMP JUMPDEST PUSH0 PUSH2 0x2CF8 PUSH2 0x2CF3 DUP5 PUSH2 0x2CA8 JUMP JUMPDEST PUSH2 0x2C5B JUMP JUMPDEST SWAP1 POP DUP3 DUP2 MSTORE PUSH1 0x20 DUP2 ADD DUP5 DUP5 DUP5 ADD GT ISZERO PUSH2 0x2D14 JUMPI PUSH2 0x2D13 PUSH2 0x2CA4 JUMP JUMPDEST JUMPDEST PUSH2 0x2D1F DUP5 DUP3 DUP6 PUSH2 0x2CD8 JUMP JUMPDEST POP SWAP4 SWAP3 POP POP POP JUMP JUMPDEST PUSH0 DUP3 PUSH1 0x1F DUP4 ADD SLT PUSH2 0x2D3B JUMPI PUSH2 0x2D3A PUSH2 0x2BE9 JUMP JUMPDEST JUMPDEST DUP2 CALLDATALOAD PUSH2 0x2D4B DUP5 DUP3 PUSH1 0x20 DUP7 ADD PUSH2 0x2CE6 JUMP JUMPDEST SWAP2 POP POP SWAP3 SWAP2 POP POP JUMP JUMPDEST PUSH0 PUSH2 0x2D66 PUSH2 0x2D61 DUP5 PUSH2 0x2C75 JUMP JUMPDEST PUSH2 0x2C5B JUMP JUMPDEST SWAP1 POP DUP1 DUP4 DUP3 MSTORE PUSH1 0x20 DUP3 ADD SWAP1 POP PUSH1 0x20 DUP5 MUL DUP4 ADD DUP6 DUP2 GT ISZERO PUSH2 0x2D89 JUMPI PUSH2 0x2D88 PUSH2 0x2CA0 JUMP JUMPDEST JUMPDEST DUP4 JUMPDEST DUP2 DUP2 LT ISZERO PUSH2 0x2DD0 JUMPI DUP1 CALLDATALOAD PUSH8 0xFFFFFFFFFFFFFFFF DUP2 GT ISZERO PUSH2 0x2DAE JUMPI PUSH2 0x2DAD PUSH2 0x2BE9 JUMP JUMPDEST JUMPDEST DUP1 DUP7 ADD PUSH2 0x2DBB DUP10 DUP3 PUSH2 0x2D27 JUMP JUMPDEST DUP6 MSTORE PUSH1 0x20 DUP6 ADD SWAP5 POP POP POP PUSH1 0x20 DUP2 ADD SWAP1 POP PUSH2 0x2D8B JUMP JUMPDEST POP POP POP SWAP4 SWAP3 POP POP POP JUMP JUMPDEST PUSH0 DUP3 PUSH1 0x1F DUP4 ADD SLT PUSH2 0x2DEE JUMPI PUSH2 0x2DED PUSH2 0x2BE9 JUMP JUMPDEST JUMPDEST DUP2 CALLDATALOAD PUSH2 0x2DFE DUP5 DUP3 PUSH1 0x20 DUP7 ADD PUSH2 0x2D54 JUMP JUMPDEST SWAP2 POP POP SWAP3 SWAP2 POP POP JUMP JUMPDEST PUSH0 PUSH1 0x20 DUP3 DUP5 SUB SLT ISZERO PUSH2 0x2E1C JUMPI PUSH2 0x2E1B PUSH2 0x2AA6 JUMP JUMPDEST JUMPDEST PUSH0 DUP3 ADD CALLDATALOAD PUSH8 0xFFFFFFFFFFFFFFFF DUP2 GT ISZERO PUSH2 0x2E39 JUMPI PUSH2 0x2E38 PUSH2 0x2AAA JUMP JUMPDEST JUMPDEST PUSH2 0x2E45 DUP5 DUP3 DUP6 ADD PUSH2 0x2DDA JUMP JUMPDEST SWAP2 POP POP SWAP3 SWAP2 POP POP JUMP JUMPDEST PUSH0 DUP2 SWAP1 POP SWAP2 SWAP1 POP JUMP JUMPDEST PUSH2 0x2E60 DUP2 PUSH2 0x2E4E JUMP JUMPDEST DUP3 MSTORE POP POP JUMP JUMPDEST PUSH0 PUSH1 0x20 DUP3 ADD SWAP1 POP PUSH2 0x2E79 PUSH0 DUP4 ADD DUP5 PUSH2 0x2E57 JUMP JUMPDEST SWAP3 SWAP2 POP POP JUMP JUMPDEST PUSH0 DUP1 PUSH1 0x40 DUP4 DUP6 SUB SLT ISZERO PUSH2 0x2E95 JUMPI PUSH2 0x2E94 PUSH2 0x2AA6 JUMP JUMPDEST JUMPDEST PUSH0 DUP4 ADD CALLDATALOAD PUSH8 0xFFFFFFFFFFFFFFFF DUP2 GT ISZERO PUSH2 0x2EB2 JUMPI PUSH2 0x2EB1 PUSH2 0x2AAA JUMP JUMPDEST JUMPDEST PUSH2 0x2EBE DUP6 DUP3 DUP7 ADD PUSH2 0x2D27 JUMP JUMPDEST SWAP3 POP POP PUSH1 0x20 PUSH2 0x2ECF DUP6 DUP3 DUP7 ADD PUSH2 0x2B27 JUMP JUMPDEST SWAP2 POP POP SWAP3 POP SWAP3 SWAP1 POP JUMP JUMPDEST PUSH0 PUSH1 0x20 DUP3 ADD SWAP1 POP PUSH2 0x2EEC PUSH0 DUP4 ADD DUP5 PUSH2 0x2BA4 JUMP JUMPDEST SWAP3 SWAP2 POP POP JUMP JUMPDEST PUSH0 DUP1 PUSH0 DUP1 PUSH0 DUP1 PUSH1 0xC0 DUP8 DUP10 SUB SLT ISZERO PUSH2 0x2F0C JUMPI PUSH2 0x2F0B PUSH2 0x2AA6 JUMP JUMPDEST JUMPDEST PUSH0 DUP8 ADD CALLDATALOAD PUSH8 0xFFFFFFFFFFFFFFFF DUP2 GT ISZERO PUSH2 0x2F29 JUMPI PUSH2 0x2F28 PUSH2 0x2AAA JUMP JUMPDEST JUMPDEST PUSH2 0x2F35 DUP10 DUP3 DUP11 ADD PUSH2 0x2DDA JUMP JUMPDEST SWAP7 POP POP PUSH1 0x20 DUP8 ADD CALLDATALOAD PUSH8 0xFFFFFFFFFFFFFFFF DUP2 GT ISZERO PUSH2 0x2F56 JUMPI PUSH2 0x2F55 PUSH2 0x2AAA JUMP JUMPDEST JUMPDEST PUSH2 0x2F62 DUP10 DUP3 DUP11 ADD PUSH2 0x2D27 JUMP JUMPDEST SWAP6 POP POP PUSH1 0x40 DUP8 ADD CALLDATALOAD PUSH8 0xFFFFFFFFFFFFFFFF DUP2 GT ISZERO PUSH2 0x2F83 JUMPI PUSH2 0x2F82 PUSH2 0x2AAA JUMP JUMPDEST JUMPDEST PUSH2 0x2F8F DUP10 DUP3 DUP11 ADD PUSH2 0x2D27 JUMP JUMPDEST SWAP5 POP POP PUSH1 0x60 DUP8 ADD CALLDATALOAD PUSH8 0xFFFFFFFFFFFFFFFF DUP2 GT ISZERO PUSH2 0x2FB0 JUMPI PUSH2 0x2FAF PUSH2 0x2AAA JUMP JUMPDEST JUMPDEST PUSH2 0x2FBC DUP10 DUP3 DUP11 ADD PUSH2 0x2D27 JUMP JUMPDEST SWAP4 POP POP PUSH1 0x80 DUP8 ADD CALLDATALOAD PUSH8 0xFFFFFFFFFFFFFFFF DUP2 GT ISZERO PUSH2 0x2FDD JUMPI PUSH2 0x2FDC PUSH2 0x2AAA JUMP JUMPDEST JUMPDEST PUSH2 0x2FE9 DUP10 DUP3 DUP11 ADD PUSH2 0x2D27 JUMP JUMPDEST SWAP3 POP POP PUSH1 0xA0 PUSH2 0x2FFA DUP10 DUP3 DUP11 ADD PUSH2 0x2B27 JUMP JUMPDEST SWAP2 POP POP SWAP3 SWAP6 POP SWAP3 SWAP6 POP SWAP3 SWAP6 JUMP JUMPDEST PUSH0 PUSH1 0x20 DUP3 DUP5 SUB SLT ISZERO PUSH2 0x301C JUMPI PUSH2 0x301B PUSH2 0x2AA6 JUMP JUMPDEST JUMPDEST PUSH0 DUP3 ADD CALLDATALOAD PUSH8 0xFFFFFFFFFFFFFFFF DUP2 GT ISZERO PUSH2 0x3039 JUMPI PUSH2 0x3038 PUSH2 0x2AAA JUMP JUMPDEST JUMPDEST PUSH2 0x3045 DUP5 DUP3 DUP6 ADD PUSH2 0x2D27 JUMP JUMPDEST SWAP2 POP POP SWAP3 SWAP2 POP POP JUMP JUMPDEST PUSH0 DUP2 MLOAD SWAP1 POP SWAP2 SWAP1 POP JUMP JUMPDEST PUSH0 DUP3 DUP3 MSTORE PUSH1 0x20 DUP3 ADD SWAP1 POP SWAP3 SWAP2 POP POP JUMP JUMPDEST PUSH0 JUMPDEST DUP4 DUP2 LT ISZERO PUSH2 0x3085 JUMPI DUP1 DUP3 ADD MLOAD DUP2 DUP5 ADD MSTORE PUSH1 0x20 DUP2 ADD SWAP1 POP PUSH2 0x306A JUMP JUMPDEST PUSH0 DUP5 DUP5 ADD MSTORE POP POP POP POP JUMP JUMPDEST PUSH0 PUSH2 0x309A DUP3 PUSH2 0x304E JUMP JUMPDEST PUSH2 0x30A4 DUP2 DUP6 PUSH2 0x3058 JUMP JUMPDEST SWAP4 POP PUSH2 0x30B4 DUP2 DUP6 PUSH1 0x20 DUP7 ADD PUSH2 0x3068 JUMP JUMPDEST PUSH2 0x30BD DUP2 PUSH2 0x2BED JUMP JUMPDEST DUP5 ADD SWAP2 POP POP SWAP3 SWAP2 POP POP JUMP JUMPDEST PUSH2 0x30D1 DUP2 PUSH2 0x2E4E JUMP JUMPDEST DUP3 MSTORE POP POP JUMP JUMPDEST PUSH2 0x30E0 DUP2 PUSH2 0x2B08 JUMP JUMPDEST DUP3 MSTORE POP POP JUMP JUMPDEST PUSH2 0x30EF DUP2 PUSH2 0x2ACD JUMP JUMPDEST DUP3 MSTORE POP POP JUMP JUMPDEST PUSH0 PUSH2 0x100 DUP4 ADD PUSH0 DUP4 ADD MLOAD DUP5 DUP3 SUB PUSH0 DUP7 ADD MSTORE PUSH2 0x3110 DUP3 DUP3 PUSH2 0x3090 JUMP JUMPDEST SWAP2 POP POP PUSH1 0x20 DUP4 ADD MLOAD DUP5 DUP3 SUB PUSH1 0x20 DUP7 ADD MSTORE PUSH2 0x312A DUP3 DUP3 PUSH2 0x3090 JUMP JUMPDEST SWAP2 POP POP PUSH1 0x40 DUP4 ADD MLOAD DUP5 DUP3 SUB PUSH1 0x40 DUP7 ADD MSTORE PUSH2 0x3144 DUP3 DUP3 PUSH2 0x3090 JUMP JUMPDEST SWAP2 POP POP PUSH1 0x60 DUP4 ADD MLOAD PUSH2 0x3159 PUSH1 0x60 DUP7 ADD DUP3 PUSH2 0x30C8 JUMP JUMPDEST POP PUSH1 0x80 DUP4 ADD MLOAD PUSH2 0x316C PUSH1 0x80 DUP7 ADD DUP3 PUSH2 0x30D7 JUMP JUMPDEST POP PUSH1 0xA0 DUP4 ADD MLOAD PUSH2 0x317F PUSH1 0xA0 DUP7 ADD DUP3 PUSH2 0x30D7 JUMP JUMPDEST POP PUSH1 0xC0 DUP4 ADD MLOAD PUSH2 0x3192 PUSH1 0xC0 DUP7 ADD DUP3 PUSH2 0x30E6 JUMP JUMPDEST POP PUSH1 0xE0 DUP4 ADD MLOAD DUP5 DUP3 SUB PUSH1 0xE0 DUP7 ADD MSTORE PUSH2 0x31AA DUP3 DUP3 PUSH2 0x3090 JUMP JUMPDEST SWAP2 POP POP DUP1 SWAP2 POP POP SWAP3 SWAP2 POP POP JUMP JUMPDEST PUSH0 DUP2 MLOAD SWAP1 POP SWAP2 SWAP1 POP JUMP JUMPDEST PUSH0 DUP3 DUP3 MSTORE PUSH1 0x20 DUP3 ADD SWAP1 POP SWAP3 SWAP2 POP POP JUMP JUMPDEST PUSH0 DUP2 SWAP1 POP PUSH1 0x20 DUP3 ADD SWAP1 POP SWAP2 SWAP1 POP JUMP JUMPDEST PUSH0 PUSH2 0x31EB DUP4 DUP4 PUSH2 0x30E6 JUMP JUMPDEST PUSH1 0x20 DUP4 ADD SWAP1 POP SWAP3 SWAP2 POP POP JUMP JUMPDEST PUSH0 PUSH1 0x20 DUP3 ADD SWAP1 POP SWAP2 SWAP1 POP JUMP JUMPDEST PUSH0 PUSH2 0x320D DUP3 PUSH2 0x31B7 JUMP JUMPDEST PUSH2 0x3217 DUP2 DUP6 PUSH2 0x31C1 JUMP JUMPDEST SWAP4 POP PUSH2 0x3222 DUP4 PUSH2 0x31D1 JUMP JUMPDEST DUP1 PUSH0 JUMPDEST DUP4 DUP2 LT ISZERO PUSH2 0x3252 JUMPI DUP2 MLOAD PUSH2 0x3239 DUP9 DUP3 PUSH2 0x31E0 JUMP JUMPDEST SWAP8 POP PUSH2 0x3244 DUP4 PUSH2 0x31F7 JUMP JUMPDEST SWAP3 POP POP PUSH1 0x1 DUP2 ADD SWAP1 POP PUSH2 0x3225 JUMP JUMPDEST POP DUP6 SWAP4 POP POP POP POP SWAP3 SWAP2 POP POP JUMP JUMPDEST PUSH0 PUSH1 0x40 DUP4 ADD PUSH0 DUP4 ADD MLOAD DUP5 DUP3 SUB PUSH0 DUP7 ADD MSTORE PUSH2 0x3279 DUP3 DUP3 PUSH2 0x30F5 JUMP JUMPDEST SWAP2 POP POP PUSH1 0x20 DUP4 ADD MLOAD DUP5 DUP3 SUB PUSH1 0x20 DUP7 ADD MSTORE PUSH2 0x3293 DUP3 DUP3 PUSH2 0x3203 JUMP JUMPDEST SWAP2 POP POP DUP1 SWAP2 POP POP SWAP3 SWAP2 POP POP JUMP JUMPDEST PUSH0 PUSH1 0x20 DUP3 ADD SWAP1 POP DUP2 DUP2 SUB PUSH0 DUP4 ADD MSTORE PUSH2 0x32B8 DUP2 DUP5 PUSH2 0x325F JUMP JUMPDEST SWAP1 POP SWAP3 SWAP2 POP POP JUMP JUMPDEST PUSH0 DUP1 PUSH0 DUP1 PUSH1 0x80 DUP6 DUP8 SUB SLT ISZERO PUSH2 0x32D8 JUMPI PUSH2 0x32D7 PUSH2 0x2AA6 JUMP JUMPDEST JUMPDEST PUSH0 PUSH2 0x32E5 DUP8 DUP3 DUP9 ADD PUSH2 0x2AF4 JUMP JUMPDEST SWAP5 POP POP PUSH1 0x20 DUP6 ADD CALLDATALOAD PUSH8 0xFFFFFFFFFFFFFFFF DUP2 GT ISZERO PUSH2 0x3306 JUMPI PUSH2 0x3305 PUSH2 0x2AAA JUMP JUMPDEST JUMPDEST PUSH2 0x3312 DUP8 DUP3 DUP9 ADD PUSH2 0x2D27 JUMP JUMPDEST SWAP4 POP POP PUSH1 0x40 DUP6 ADD CALLDATALOAD PUSH8 0xFFFFFFFFFFFFFFFF DUP2 GT ISZERO PUSH2 0x3333 JUMPI PUSH2 0x3332 PUSH2 0x2AAA JUMP JUMPDEST JUMPDEST PUSH2 0x333F DUP8 DUP3 DUP9 ADD PUSH2 0x2D27 JUMP JUMPDEST SWAP3 POP POP PUSH1 0x60 PUSH2 0x3350 DUP8 DUP3 DUP9 ADD PUSH2 0x2B27 JUMP JUMPDEST SWAP2 POP POP SWAP3 SWAP6 SWAP2 SWAP5 POP SWAP3 POP JUMP JUMPDEST PUSH0 PUSH1 0x20 DUP3 ADD SWAP1 POP PUSH2 0x336F PUSH0 DUP4 ADD DUP5 PUSH2 0x2BB3 JUMP JUMPDEST SWAP3 SWAP2 POP POP JUMP JUMPDEST PUSH2 0x337E DUP2 PUSH2 0x2E4E JUMP JUMPDEST DUP2 EQ PUSH2 0x3388 JUMPI PUSH0 DUP1 REVERT JUMPDEST POP JUMP JUMPDEST PUSH0 DUP2 CALLDATALOAD SWAP1 POP PUSH2 0x3399 DUP2 PUSH2 0x3375 JUMP JUMPDEST SWAP3 SWAP2 POP POP JUMP JUMPDEST PUSH0 DUP1 PUSH1 0x40 DUP4 DUP6 SUB SLT ISZERO PUSH2 0x33B5 JUMPI PUSH2 0x33B4 PUSH2 0x2AA6 JUMP JUMPDEST JUMPDEST PUSH0 PUSH2 0x33C2 DUP6 DUP3 DUP7 ADD PUSH2 0x338B JUMP JUMPDEST SWAP3 POP POP PUSH1 0x20 DUP4 ADD CALLDATALOAD PUSH8 0xFFFFFFFFFFFFFFFF DUP2 GT ISZERO PUSH2 0x33E3 JUMPI PUSH2 0x33E2 PUSH2 0x2AAA JUMP JUMPDEST JUMPDEST PUSH2 0x33EF DUP6 DUP3 DUP7 ADD PUSH2 0x2D27 JUMP JUMPDEST SWAP2 POP POP SWAP3 POP SWAP3 SWAP1 POP JUMP JUMPDEST PUSH0 DUP3 DUP3 MSTORE PUSH1 0x20 DUP3 ADD SWAP1 POP SWAP3 SWAP2 POP POP JUMP JUMPDEST PUSH0 PUSH2 0x3413 DUP3 PUSH2 0x31B7 JUMP JUMPDEST PUSH2 0x341D DUP2 DUP6 PUSH2 0x33F9 JUMP JUMPDEST SWAP4 POP PUSH2 0x3428 DUP4 PUSH2 0x31D1 JUMP JUMPDEST DUP1 PUSH0 JUMPDEST DUP4 DUP2 LT ISZERO PUSH2 0x3458 JUMPI DUP2 MLOAD PUSH2 0x343F DUP9 DUP3 PUSH2 0x31E0 JUMP JUMPDEST SWAP8 POP PUSH2 0x344A DUP4 PUSH2 0x31F7 JUMP JUMPDEST SWAP3 POP POP PUSH1 0x1 DUP2 ADD SWAP1 POP PUSH2 0x342B JUMP JUMPDEST POP DUP6 SWAP4 POP POP POP POP SWAP3 SWAP2 POP POP JUMP JUMPDEST PUSH0 PUSH1 0x20 DUP3 ADD SWAP1 POP DUP2 DUP2 SUB PUSH0 DUP4 ADD MSTORE PUSH2 0x347D DUP2 DUP5 PUSH2 0x3409 JUMP JUMPDEST SWAP1 POP SWAP3 SWAP2 POP POP JUMP JUMPDEST PUSH1 0x40 DUP3 ADD PUSH0 DUP3 ADD MLOAD PUSH2 0x3499 PUSH0 DUP6 ADD DUP3 PUSH2 0x30E6 JUMP JUMPDEST POP PUSH1 0x20 DUP3 ADD MLOAD PUSH2 0x34AC PUSH1 0x20 DUP6 ADD DUP3 PUSH2 0x30D7 JUMP JUMPDEST POP POP POP POP JUMP JUMPDEST PUSH0 PUSH1 0x40 DUP3 ADD SWAP1 POP PUSH2 0x34C5 PUSH0 DUP4 ADD DUP5 PUSH2 0x3485 JUMP JUMPDEST SWAP3 SWAP2 POP POP JUMP JUMPDEST PUSH0 PUSH8 0xFFFFFFFFFFFFFFFF DUP3 GT ISZERO PUSH2 0x34E5 JUMPI PUSH2 0x34E4 PUSH2 0x2BFD JUMP JUMPDEST JUMPDEST PUSH1 0x20 DUP3 MUL SWAP1 POP PUSH1 0x20 DUP2 ADD SWAP1 POP SWAP2 SWAP1 POP JUMP JUMPDEST PUSH0 PUSH2 0x3508 PUSH2 0x3503 DUP5 PUSH2 0x34CB JUMP JUMPDEST PUSH2 0x2C5B JUMP JUMPDEST SWAP1 POP DUP1 DUP4 DUP3 MSTORE PUSH1 0x20 DUP3 ADD SWAP1 POP PUSH1 0x20 DUP5 MUL DUP4 ADD DUP6 DUP2 GT ISZERO PUSH2 0x352B JUMPI PUSH2 0x352A PUSH2 0x2CA0 JUMP JUMPDEST JUMPDEST DUP4 JUMPDEST DUP2 DUP2 LT ISZERO PUSH2 0x3554 JUMPI DUP1 PUSH2 0x3540 DUP9 DUP3 PUSH2 0x2AF4 JUMP JUMPDEST DUP5 MSTORE PUSH1 0x20 DUP5 ADD SWAP4 POP POP PUSH1 0x20 DUP2 ADD SWAP1 POP PUSH2 0x352D JUMP JUMPDEST POP POP POP SWAP4 SWAP3 POP POP POP JUMP JUMPDEST PUSH0 DUP3 PUSH1 0x1F DUP4 ADD SLT PUSH2 0x3572 JUMPI PUSH2 0x3571 PUSH2 0x2BE9 JUMP JUMPDEST JUMPDEST DUP2 CALLDATALOAD PUSH2 0x3582 DUP5 DUP3 PUSH1 0x20 DUP7 ADD PUSH2 0x34F6 JUMP JUMPDEST SWAP2 POP POP SWAP3 SWAP2 POP POP JUMP JUMPDEST PUSH0 DUP1 PUSH1 0x40 DUP4 DUP6 SUB SLT ISZERO PUSH2 0x35A1 JUMPI PUSH2 0x35A0 PUSH2 0x2AA6 JUMP JUMPDEST JUMPDEST PUSH0 PUSH2 0x35AE DUP6 DUP3 DUP7 ADD PUSH2 0x2B27 JUMP JUMPDEST SWAP3 POP POP PUSH1 0x20 DUP4 ADD CALLDATALOAD PUSH8 0xFFFFFFFFFFFFFFFF DUP2 GT ISZERO PUSH2 0x35CF JUMPI PUSH2 0x35CE PUSH2 0x2AAA JUMP JUMPDEST JUMPDEST PUSH2 0x35DB DUP6 DUP3 DUP7 ADD PUSH2 0x355E JUMP JUMPDEST SWAP2 POP POP SWAP3 POP SWAP3 SWAP1 POP JUMP JUMPDEST PUSH0 PUSH1 0x20 DUP3 DUP5 SUB SLT ISZERO PUSH2 0x35FA JUMPI PUSH2 0x35F9 PUSH2 0x2AA6 JUMP JUMPDEST JUMPDEST PUSH0 PUSH2 0x3607 DUP5 DUP3 DUP6 ADD PUSH2 0x2B27 JUMP JUMPDEST SWAP2 POP POP SWAP3 SWAP2 POP POP JUMP JUMPDEST PUSH0 DUP3 DUP3 MSTORE PUSH1 0x20 DUP3 ADD SWAP1 POP SWAP3 SWAP2 POP POP JUMP JUMPDEST PUSH32 0x6164644E6F64653A20496E76616C6964205F6E6F646541646472657373202D20 PUSH0 DUP3 ADD MSTORE PUSH32 0x4E6F646520416C72656164792065786973747300000000000000000000000000 PUSH1 0x20 DUP3 ADD MSTORE POP JUMP JUMPDEST PUSH0 PUSH2 0x367A PUSH1 0x33 DUP4 PUSH2 0x3610 JUMP JUMPDEST SWAP2 POP PUSH2 0x3685 DUP3 PUSH2 0x3620 JUMP JUMPDEST PUSH1 0x40 DUP3 ADD SWAP1 POP SWAP2 SWAP1 POP JUMP JUMPDEST PUSH0 PUSH1 0x20 DUP3 ADD SWAP1 POP DUP2 DUP2 SUB PUSH0 DUP4 ADD MSTORE PUSH2 0x36A7 DUP2 PUSH2 0x366E JUMP JUMPDEST SWAP1 POP SWAP2 SWAP1 POP JUMP JUMPDEST PUSH32 0x4E487B7100000000000000000000000000000000000000000000000000000000 PUSH0 MSTORE PUSH1 0x32 PUSH1 0x4 MSTORE PUSH1 0x24 PUSH0 REVERT JUMPDEST PUSH0 DUP2 MLOAD SWAP1 POP SWAP2 SWAP1 POP JUMP JUMPDEST PUSH0 DUP2 SWAP1 POP SWAP3 SWAP2 POP POP JUMP JUMPDEST PUSH0 PUSH2 0x36F9 DUP3 PUSH2 0x36DB JUMP JUMPDEST PUSH2 0x3703 DUP2 DUP6 PUSH2 0x36E5 JUMP JUMPDEST SWAP4 POP PUSH2 0x3713 DUP2 DUP6 PUSH1 0x20 DUP7 ADD PUSH2 0x3068 JUMP JUMPDEST DUP1 DUP5 ADD SWAP2 POP POP SWAP3 SWAP2 POP POP JUMP JUMPDEST PUSH0 DUP2 SWAP1 POP SWAP3 SWAP2 POP POP JUMP JUMPDEST PUSH0 PUSH2 0x3733 DUP3 PUSH2 0x304E JUMP JUMPDEST PUSH2 0x373D DUP2 DUP6 PUSH2 0x371F JUMP JUMPDEST SWAP4 POP PUSH2 0x374D DUP2 DUP6 PUSH1 0x20 DUP7 ADD PUSH2 0x3068 JUMP JUMPDEST DUP1 DUP5 ADD SWAP2 POP POP SWAP3 SWAP2 POP POP JUMP JUMPDEST PUSH0 PUSH2 0x3764 DUP3 DUP6 PUSH2 0x36EF JUMP JUMPDEST SWAP2 POP PUSH2 0x3770 DUP3 DUP5 PUSH2 0x3729 JUMP JUMPDEST SWAP2 POP DUP2 SWAP1 POP SWAP4 SWAP3 POP POP POP JUMP JUMPDEST PUSH0 PUSH2 0x3786 DUP3 PUSH2 0x304E JUMP JUMPDEST PUSH2 0x3790 DUP2 DUP6 PUSH2 0x3610 JUMP JUMPDEST SWAP4 POP PUSH2 0x37A0 DUP2 DUP6 PUSH1 0x20 DUP7 ADD PUSH2 0x3068 JUMP JUMPDEST PUSH2 0x37A9 DUP2 PUSH2 0x2BED JUMP JUMPDEST DUP5 ADD SWAP2 POP POP SWAP3 SWAP2 POP POP JUMP JUMPDEST PUSH0 PUSH1 0x20 DUP3 ADD SWAP1 POP DUP2 DUP2 SUB PUSH0 DUP4 ADD MSTORE PUSH2 0x37CC DUP2 DUP5 PUSH2 0x377C JUMP JUMPDEST SWAP1 POP SWAP3 SWAP2 POP POP JUMP JUMPDEST PUSH32 0x4E487B7100000000000000000000000000000000000000000000000000000000 PUSH0 MSTORE PUSH1 0x11 PUSH1 0x4 MSTORE PUSH1 0x24 PUSH0 REVERT JUMPDEST PUSH0 PUSH2 0x380B DUP3 PUSH2 0x2B08 JUMP JUMPDEST SWAP2 POP PUSH32 0xFFFFFFFFFFFFFFFFFFFFFFFFFFFFFFFFFFFFFFFFFFFFFFFFFFFFFFFFFFFFFFFF DUP3 SUB PUSH2 0x383D JUMPI PUSH2 0x383C PUSH2 0x37D4 JUMP JUMPDEST JUMPDEST PUSH1 0x1 DUP3 ADD SWAP1 POP SWAP2 SWAP1 POP JUMP JUMPDEST PUSH0 PUSH2 0x3852 DUP3 PUSH2 0x2B08 JUMP JUMPDEST SWAP2 POP PUSH2 0x385D DUP4 PUSH2 0x2B08 JUMP JUMPDEST SWAP3 POP DUP3 DUP3 SUB SWAP1 POP DUP2 DUP2 GT ISZERO PUSH2 0x3875 JUMPI PUSH2 0x3874 PUSH2 0x37D4 JUMP JUMPDEST JUMPDEST SWAP3 SWAP2 POP POP JUMP JUMPDEST PUSH32 0x4E487B7100000000000000000000000000000000000000000000000000000000 PUSH0 MSTORE PUSH1 0x22 PUSH1 0x4 MSTORE PUSH1 0x24 PUSH0 REVERT JUMPDEST PUSH0 PUSH1 0x2 DUP3 DIV SWAP1 POP PUSH1 0x1 DUP3 AND DUP1 PUSH2 0x38BF JUMPI PUSH1 0x7F DUP3 AND SWAP2 POP JUMPDEST PUSH1 0x20 DUP3 LT DUP2 SUB PUSH2 0x38D2 JUMPI PUSH2 0x38D1 PUSH2 0x387B JUMP JUMPDEST JUMPDEST POP SWAP2 SWAP1 POP JUMP JUMPDEST PUSH32 0x64656C65746546696C65486173683A20496E76616C6964205F66696C65496400 PUSH0 DUP3 ADD MSTORE POP JUMP JUMPDEST PUSH0 PUSH2 0x390C PUSH1 0x1F DUP4 PUSH2 0x3610 JUMP JUMPDEST SWAP2 POP PUSH2 0x3917 DUP3 PUSH2 0x38D8 JUMP JUMPDEST PUSH1 0x20 DUP3 ADD SWAP1 POP SWAP2 SWAP1 POP JUMP JUMPDEST PUSH0 PUSH1 0x20 DUP3 ADD SWAP1 POP DUP2 DUP2 SUB PUSH0 DUP4 ADD MSTORE PUSH2 0x3939 DUP2 PUSH2 0x3900 JUMP JUMPDEST SWAP1 POP SWAP2 SWAP1 POP JUMP JUMPDEST PUSH0 PUSH2 0x394B DUP3 DUP5 PUSH2 0x3729 JUMP JUMPDEST SWAP2 POP DUP2 SWAP1 POP SWAP3 SWAP2 POP POP JUMP JUMPDEST PUSH32 0x64656C65746546696C65486173683A20496E76616C69642066696C654964546F PUSH0 DUP3 ADD MSTORE PUSH32 0x4861736800000000000000000000000000000000000000000000000000000000 PUSH1 0x20 DUP3 ADD MSTORE POP JUMP JUMPDEST PUSH0 PUSH2 0x39B0 PUSH1 0x24 DUP4 PUSH2 0x3610 JUMP JUMPDEST SWAP2 POP PUSH2 0x39BB DUP3 PUSH2 0x3956 JUMP JUMPDEST PUSH1 0x40 DUP3 ADD SWAP1 POP SWAP2 SWAP1 POP JUMP JUMPDEST PUSH0 PUSH1 0x20 DUP3 ADD SWAP1 POP DUP2 DUP2 SUB PUSH0 DUP4 ADD MSTORE PUSH2 0x39DD DUP2 PUSH2 0x39A4 JUMP JUMPDEST SWAP1 POP SWAP2 SWAP1 POP JUMP JUMPDEST PUSH32 0x73746F72654368756E6B496E4E6F64653A20496E76616C6964205F6E6F646541 PUSH0 DUP3 ADD MSTORE PUSH32 0x646472657373202D204E6F646520446F6573204E4F5420657869737400000000 PUSH1 0x20 DUP3 ADD MSTORE POP JUMP JUMPDEST PUSH0 PUSH2 0x3A3E PUSH1 0x3C DUP4 PUSH2 0x3610 JUMP JUMPDEST SWAP2 POP PUSH2 0x3A49 DUP3 PUSH2 0x39E4 JUMP JUMPDEST PUSH1 0x40 DUP3 ADD SWAP1 POP SWAP2 SWAP1 POP JUMP JUMPDEST PUSH0 PUSH1 0x20 DUP3 ADD SWAP1 POP DUP2 DUP2 SUB PUSH0 DUP4 ADD MSTORE PUSH2 0x3A6B DUP2 PUSH2 0x3A32 JUMP JUMPDEST SWAP1 POP SWAP2 SWAP1 POP JUMP JUMPDEST PUSH32 0x64656C6574654368756E6B496E4E6F64653A20496E76616C6964205F66696C65 PUSH0 DUP3 ADD MSTORE PUSH32 0x4964000000000000000000000000000000000000000000000000000000000000 PUSH1 0x20 DUP3 ADD MSTORE POP JUMP JUMPDEST PUSH0 PUSH2 0x3ACC PUSH1 0x22 DUP4 PUSH2 0x3610 JUMP JUMPDEST SWAP2 POP PUSH2 0x3AD7 DUP3 PUSH2 0x3A72 JUMP JUMPDEST PUSH1 0x40 DUP3 ADD SWAP1 POP SWAP2 SWAP1 POP JUMP JUMPDEST PUSH0 PUSH1 0x20 DUP3 ADD SWAP1 POP DUP2 DUP2 SUB PUSH0 DUP4 ADD MSTORE PUSH2 0x3AF9 DUP2 PUSH2 0x3AC0 JUMP JUMPDEST SWAP1 POP SWAP2 SWAP1 POP JUMP JUMPDEST PUSH32 0x73746F726546696C65486173683A20496E76616C69642073656E646572000000 PUSH0 DUP3 ADD MSTORE POP JUMP JUMPDEST PUSH0 PUSH2 0x3B34 PUSH1 0x1D DUP4 PUSH2 0x3610 JUMP JUMPDEST SWAP2 POP PUSH2 0x3B3F DUP3 PUSH2 0x3B00 JUMP JUMPDEST PUSH1 0x20 DUP3 ADD SWAP1 POP SWAP2 SWAP1 POP JUMP JUMPDEST PUSH0 PUSH1 0x20 DUP3 ADD SWAP1 POP DUP2 DUP2 SUB PUSH0 DUP4 ADD MSTORE PUSH2 0x3B61 DUP2 PUSH2 0x3B28 JUMP JUMPDEST SWAP1 POP SWAP2 SWAP1 POP JUMP JUMPDEST PUSH32 0x73746F726546696C65486173683A20496E76616C6964205F66696C6548617368 PUSH0 DUP3 ADD MSTORE POP JUMP JUMPDEST PUSH0 PUSH2 0x3B9C PUSH1 0x20 DUP4 PUSH2 0x3610 JUMP JUMPDEST SWAP2 POP PUSH2 0x3BA7 DUP3 PUSH2 0x3B68 JUMP JUMPDEST PUSH1 0x20 DUP3 ADD SWAP1 POP SWAP2 SWAP1 POP JUMP JUMPDEST PUSH0 PUSH1 0x20 DUP3 ADD SWAP1 POP DUP2 DUP2 SUB PUSH0 DUP4 ADD MSTORE PUSH2 0x3BC9 DUP2 PUSH2 0x3B90 JUMP JUMPDEST SWAP1 POP SWAP2 SWAP1 POP JUMP JUMPDEST PUSH32 0x73746F726546696C65486173683A20496E76616C6964205F66696C6549640000 PUSH0 DUP3 ADD MSTORE POP JUMP JUMPDEST PUSH0 PUSH2 0x3C04 PUSH1 0x1E DUP4 PUSH2 0x3610 JUMP JUMPDEST SWAP2 POP PUSH2 0x3C0F DUP3 PUSH2 0x3BD0 JUMP JUMPDEST PUSH1 0x20 DUP3 ADD SWAP1 POP SWAP2 SWAP1 POP JUMP JUMPDEST PUSH0 PUSH1 0x20 DUP3 ADD SWAP1 POP DUP2 DUP2 SUB PUSH0 DUP4 ADD MSTORE PUSH2 0x3C31 DUP2 PUSH2 0x3BF8 JUMP JUMPDEST SWAP1 POP SWAP2 SWAP1 POP JUMP JUMPDEST PUSH0 DUP2 SWAP1 POP DUP2 PUSH0 MSTORE PUSH1 0x20 PUSH0 KECCAK256 SWAP1 POP SWAP2 SWAP1 POP JUMP JUMPDEST PUSH0 PUSH1 0x20 PUSH1 0x1F DUP4 ADD DIV SWAP1 POP SWAP2 SWAP1 POP JUMP JUMPDEST PUSH0 DUP3 DUP3 SHL SWAP1 POP SWAP3 SWAP2 POP POP JUMP JUMPDEST PUSH0 PUSH1 0x8 DUP4 MUL PUSH2 0x3C94 PUSH32 0xFFFFFFFFFFFFFFFFFFFFFFFFFFFFFFFFFFFFFFFFFFFFFFFFFFFFFFFFFFFFFFFF DUP3 PUSH2 0x3C59 JUMP JUMPDEST PUSH2 0x3C9E DUP7 DUP4 PUSH2 0x3C59 JUMP JUMPDEST SWAP6 POP DUP1 NOT DUP5 AND SWAP4 POP DUP1 DUP7 AND DUP5 OR SWAP3 POP POP POP SWAP4 SWAP3 POP POP POP JUMP JUMPDEST PUSH0 DUP2 SWAP1 POP SWAP2 SWAP1 POP JUMP JUMPDEST PUSH0 PUSH2 0x3CD9 PUSH2 0x3CD4 PUSH2 0x3CCF DUP5 PUSH2 0x2B08 JUMP JUMPDEST PUSH2 0x3CB6 JUMP JUMPDEST PUSH2 0x2B08 JUMP JUMPDEST SWAP1 POP SWAP2 SWAP1 POP JUMP JUMPDEST PUSH0 DUP2 SWAP1 POP SWAP2 SWAP1 POP JUMP JUMPDEST PUSH2 0x3CF2 DUP4 PUSH2 0x3CBF JUMP JUMPDEST PUSH2 0x3D06 PUSH2 0x3CFE DUP3 PUSH2 0x3CE0 JUMP JUMPDEST DUP5 DUP5 SLOAD PUSH2 0x3C65 JUMP JUMPDEST DUP3 SSTORE POP POP POP POP JUMP JUMPDEST PUSH0 SWAP1 JUMP JUMPDEST PUSH2 0x3D1A PUSH2 0x3D0E JUMP JUMPDEST PUSH2 0x3D25 DUP2 DUP5 DUP5 PUSH2 0x3CE9 JUMP JUMPDEST POP POP POP JUMP JUMPDEST JUMPDEST DUP2 DUP2 LT ISZERO PUSH2 0x3D48 JUMPI PUSH2 0x3D3D PUSH0 DUP3 PUSH2 0x3D12 JUMP JUMPDEST PUSH1 0x1 DUP2 ADD SWAP1 POP PUSH2 0x3D2B JUMP JUMPDEST POP POP JUMP JUMPDEST PUSH1 0x1F DUP3 GT ISZERO PUSH2 0x3D8D JUMPI PUSH2 0x3D5E DUP2 PUSH2 0x3C38 JUMP JUMPDEST PUSH2 0x3D67 DUP5 PUSH2 0x3C4A JUMP JUMPDEST DUP2 ADD PUSH1 0x20 DUP6 LT ISZERO PUSH2 0x3D76 JUMPI DUP2 SWAP1 POP JUMPDEST PUSH2 0x3D8A PUSH2 0x3D82 DUP6 PUSH2 0x3C4A JUMP JUMPDEST DUP4 ADD DUP3 PUSH2 0x3D2A JUMP JUMPDEST POP POP JUMPDEST POP POP POP JUMP JUMPDEST PUSH0 DUP3 DUP3 SHR SWAP1 POP SWAP3 SWAP2 POP POP JUMP JUMPDEST PUSH0 PUSH2 0x3DAD PUSH0 NOT DUP5 PUSH1 0x8 MUL PUSH2 0x3D92 JUMP JUMPDEST NOT DUP1 DUP4 AND SWAP2 POP POP SWAP3 SWAP2 POP POP JUMP JUMPDEST PUSH0 PUSH2 0x3DC5 DUP4 DUP4 PUSH2 0x3D9E JUMP JUMPDEST SWAP2 POP DUP3 PUSH1 0x2 MUL DUP3 OR SWAP1 POP SWAP3 SWAP2 POP POP JUMP JUMPDEST PUSH2 0x3DDE DUP3 PUSH2 0x304E JUMP JUMPDEST PUSH8 0xFFFFFFFFFFFFFFFF DUP2 GT ISZERO PUSH2 0x3DF7 JUMPI PUSH2 0x3DF6 PUSH2 0x2BFD JUMP JUMPDEST JUMPDEST PUSH2 0x3E01 DUP3 SLOAD PUSH2 0x38A8 JUMP JUMPDEST PUSH2 0x3E0C DUP3 DUP3 DUP6 PUSH2 0x3D4C JUMP JUMPDEST PUSH0 PUSH1 0x20 SWAP1 POP PUSH1 0x1F DUP4 GT PUSH1 0x1 DUP2 EQ PUSH2 0x3E3D JUMPI PUSH0 DUP5 ISZERO PUSH2 0x3E2B JUMPI DUP3 DUP8 ADD MLOAD SWAP1 POP JUMPDEST PUSH2 0x3E35 DUP6 DUP3 PUSH2 0x3DBA JUMP JUMPDEST DUP7 SSTORE POP PUSH2 0x3E9C JUMP JUMPDEST PUSH1 0x1F NOT DUP5 AND PUSH2 0x3E4B DUP7 PUSH2 0x3C38 JUMP JUMPDEST PUSH0 JUMPDEST DUP3 DUP2 LT ISZERO PUSH2 0x3E72 JUMPI DUP5 DUP10 ADD MLOAD DUP3 SSTORE PUSH1 0x1 DUP3 ADD SWAP2 POP PUSH1 0x20 DUP6 ADD SWAP5 POP PUSH1 0x20 DUP2 ADD SWAP1 POP PUSH2 0x3E4D JUMP JUMPDEST DUP7 DUP4 LT ISZERO PUSH2 0x3E8F JUMPI DUP5 DUP10 ADD MLOAD PUSH2 0x3E8B PUSH1 0x1F DUP10 AND DUP3 PUSH2 0x3D9E JUMP JUMPDEST DUP4 SSTORE POP JUMPDEST PUSH1 0x1 PUSH1 0x2 DUP9 MUL ADD DUP9 SSTORE POP POP POP JUMPDEST POP POP POP POP POP POP JUMP JUMPDEST PUSH32 0x4E487B7100000000000000000000000000000000000000000000000000000000 PUSH0 MSTORE PUSH1 0x31 PUSH1 0x4 MSTORE PUSH1 0x24 PUSH0 REVERT JUMPDEST PUSH0 PUSH1 0x40 DUP3 ADD SWAP1 POP PUSH2 0x3EE4 PUSH0 DUP4 ADD DUP6 PUSH2 0x2BA4 JUMP JUMPDEST DUP2 DUP2 SUB PUSH1 0x20 DUP4 ADD MSTORE PUSH2 0x3EF6 DUP2 DUP5 PUSH2 0x377C JUMP JUMPDEST SWAP1 POP SWAP4 SWAP3 POP POP POP JUMP JUMPDEST PUSH32 0x72657472696576654368756E6B4E6F64654164647265737365733A20496E7661 PUSH0 DUP3 ADD MSTORE PUSH32 0x6C6964205F6E6F646541646472657373202D204E6F646520446F6573204E4F54 PUSH1 0x20 DUP3 ADD MSTORE PUSH32 0x2065786973740000000000000000000000000000000000000000000000000000 PUSH1 0x40 DUP3 ADD MSTORE POP JUMP JUMPDEST PUSH0 PUSH2 0x3F7F PUSH1 0x46 DUP4 PUSH2 0x3610 JUMP JUMPDEST SWAP2 POP PUSH2 0x3F8A DUP3 PUSH2 0x3EFF JUMP JUMPDEST PUSH1 0x60 DUP3 ADD SWAP1 POP SWAP2 SWAP1 POP JUMP JUMPDEST PUSH0 PUSH1 0x20 DUP3 ADD SWAP1 POP DUP2 DUP2 SUB PUSH0 DUP4 ADD MSTORE PUSH2 0x3FAC DUP2 PUSH2 0x3F73 JUMP JUMPDEST SWAP1 POP SWAP2 SWAP1 POP JUMP JUMPDEST PUSH32 0x4E487B7100000000000000000000000000000000000000000000000000000000 PUSH0 MSTORE PUSH1 0x12 PUSH1 0x4 MSTORE PUSH1 0x24 PUSH0 REVERT JUMPDEST PUSH0 PUSH2 0x3FEA DUP3 PUSH2 0x2B08 JUMP JUMPDEST SWAP2 POP PUSH2 0x3FF5 DUP4 PUSH2 0x2B08 JUMP JUMPDEST SWAP3 POP DUP3 PUSH2 0x4005 JUMPI PUSH2 0x4004 PUSH2 0x3FB3 JUMP JUMPDEST JUMPDEST DUP3 DUP3 MOD SWAP1 POP SWAP3 SWAP2 POP POP JUMP JUMPDEST PUSH0 PUSH2 0x401A DUP3 PUSH2 0x2B08 JUMP JUMPDEST SWAP2 POP PUSH2 0x4025 DUP4 PUSH2 0x2B08 JUMP JUMPDEST SWAP3 POP DUP3 DUP3 ADD SWAP1 POP DUP1 DUP3 GT ISZERO PUSH2 0x403D JUMPI PUSH2 0x403C PUSH2 0x37D4 JUMP JUMPDEST JUMPDEST SWAP3 SWAP2 POP POP JUMP JUMPDEST PUSH32 0x67657446696C65486173683A20496E76616C6964205F66696C65496400000000 PUSH0 DUP3 ADD MSTORE POP JUMP JUMPDEST PUSH0 PUSH2 0x4077 PUSH1 0x1C DUP4 PUSH2 0x3610 JUMP JUMPDEST SWAP2 POP PUSH2 0x4082 DUP3 PUSH2 0x4043 JUMP JUMPDEST PUSH1 0x20 DUP3 ADD SWAP1 POP SWAP2 SWAP1 POP JUMP JUMPDEST PUSH0 PUSH1 0x20 DUP3 ADD SWAP1 POP DUP2 DUP2 SUB PUSH0 DUP4 ADD MSTORE PUSH2 0x40A4 DUP2 PUSH2 0x406B JUMP JUMPDEST SWAP1 POP SWAP2 SWAP1 POP JUMP JUMPDEST PUSH0 PUSH1 0x60 DUP3 ADD SWAP1 POP DUP2 DUP2 SUB PUSH0 DUP4 ADD MSTORE PUSH2 0x40C3 DUP2 DUP7 PUSH2 0x377C JUMP JUMPDEST SWAP1 POP PUSH2 0x40D2 PUSH1 0x20 DUP4 ADD DUP6 PUSH2 0x2BB3 JUMP JUMPDEST PUSH2 0x40DF PUSH1 0x40 DUP4 ADD DUP5 PUSH2 0x2BB3 JUMP JUMPDEST SWAP5 SWAP4 POP POP POP POP JUMP JUMPDEST PUSH32 0x757064617465417661696C61626C6553746F726167653A20496E76616C696420 PUSH0 DUP3 ADD MSTORE PUSH32 0x5F6E6F646541646472657373202D204E6F646520446F6573204E4F5420657869 PUSH1 0x20 DUP3 ADD MSTORE PUSH32 0x7374000000000000000000000000000000000000000000000000000000000000 PUSH1 0x40 DUP3 ADD MSTORE POP JUMP JUMPDEST PUSH0 PUSH2 0x4167 PUSH1 0x42 DUP4 PUSH2 0x3610 JUMP JUMPDEST SWAP2 POP PUSH2 0x4172 DUP3 PUSH2 0x40E7 JUMP JUMPDEST PUSH1 0x60 DUP3 ADD SWAP1 POP SWAP2 SWAP1 POP JUMP JUMPDEST PUSH0 PUSH1 0x20 DUP3 ADD SWAP1 POP DUP2 DUP2 SUB PUSH0 DUP4 ADD MSTORE PUSH2 0x4194 DUP2 PUSH2 0x415B JUMP JUMPDEST SWAP1 POP SWAP2 SWAP1 POP JUMP JUMPDEST PUSH0 PUSH1 0x40 DUP3 ADD SWAP1 POP DUP2 DUP2 SUB PUSH0 DUP4 ADD MSTORE PUSH2 0x41B3 DUP2 DUP6 PUSH2 0x377C JUMP JUMPDEST SWAP1 POP PUSH2 0x41C2 PUSH1 0x20 DUP4 ADD DUP5 PUSH2 0x2BB3 JUMP JUMPDEST SWAP4 SWAP3 POP POP POP JUMP JUMPDEST PUSH0 PUSH1 0xE0 DUP3 ADD SWAP1 POP DUP2 DUP2 SUB PUSH0 DUP4 ADD MSTORE PUSH2 0x41E1 DUP2 DUP11 PUSH2 0x377C JUMP JUMPDEST SWAP1 POP DUP2 DUP2 SUB PUSH1 0x20 DUP4 ADD MSTORE PUSH2 0x41F5 DUP2 DUP10 PUSH2 0x377C JUMP JUMPDEST SWAP1 POP DUP2 DUP2 SUB PUSH1 0x40 DUP4 ADD MSTORE PUSH2 0x4209 DUP2 DUP9 PUSH2 0x377C JUMP JUMPDEST SWAP1 POP PUSH2 0x4218 PUSH1 0x60 DUP4 ADD DUP8 PUSH2 0x2E57 JUMP JUMPDEST PUSH2 0x4225 PUSH1 0x80 DUP4 ADD DUP7 PUSH2 0x2BB3 JUMP JUMPDEST PUSH2 0x4232 PUSH1 0xA0 DUP4 ADD DUP6 PUSH2 0x2BB3 JUMP JUMPDEST PUSH2 0x423F PUSH1 0xC0 DUP4 ADD DUP5 PUSH2 0x2BA4 JUMP JUMPDEST SWAP9 SWAP8 POP POP POP POP POP POP POP POP JUMP JUMPDEST PUSH32 0x4E487B7100000000000000000000000000000000000000000000000000000000 PUSH0 MSTORE PUSH1 0x51 PUSH1 0x4 MSTORE PUSH1 0x24 PUSH0 REVERT INVALID PUSH20 0x746F726546696C654D657461646174613A20496E PUSH23 0x616C6964205F66696C6553697A6573746F726546696C65 0x4D PUSH6 0x746164617461 GASPRICE KECCAK256 0x49 PUSH15 0x76616C6964205F66696C6554797065 PUSH20 0x746F726546696C653A204475706C69636174696F PUSH15 0x20646F6E652E206368756E6B206E75 PUSH14 0x626572202D2073746F726546696C PUSH6 0x3A204E6F2061 PUSH23 0x61696C61626C65206E6F64657320666F756E6473746F72 PUSH6 0x46696C654D65 PUSH21 0x61646174613A20496E76616C6964205F756E697175 PUSH6 0x496473746F72 PUSH6 0x46696C654D65 PUSH21 0x61646174613A20496E76616C69642073656E646572 PUSH19 0x6574726965766546696C6544657461696C733A KECCAK256 CHAINID PUSH10 0x6C65204E6F7420466F75 PUSH15 0x6473746F726546696C654D65746164 PUSH2 0x7461 GASPRICE KECCAK256 0x49 PUSH15 0x76616C6964205F66696C654E616D65 PUSH20 0x746F726546696C654D657461646174613A20496E PUSH23 0x616C6964205F66696C6548617368A26469706673582212 KECCAK256 SLT PUSH16 0x6E4633F29AC0D21C82332480EE7DA61 0xD5 0xFB MSIZE JUMPI 0xC3 EXTCODESIZE MOD 0xB6 SWAP14 0xF SDIV 0xDA 0xE9 0xD9 PUSH5 0x736F6C6343 STOP ADDMOD AND STOP CALLER LOG2 PUSH5 0x6970667358 0x22 SLT KECCAK256 0xC6 AND DUP4 0xE7 0x2A LT 0xFB EQ 0xAB 0x4C 0xD3 0xA5 0xE8 0xE ADD OR LOG2 0xE0 PC SELFDESTRUCT PC 0xC7 CALLDATASIZE CALLDATASIZE CHAINID MSTORE8 0xD6 0xA8 MLOAD 0x4B 0x4E 0xBE PUSH5 0x736F6C6343 STOP ADDMOD AND STOP CALLER "
		},
		"gasEstimates": {
			"creation": {
				"codeDepositCost": "4214600",
				"executionCost": "4851",
				"totalCost": "4219451"
			},
			"external": {
				"beforeAll()": "infinite",
				"testStoreFile()": "infinite"
			}
		},
		"methodIdentifiers": {
			"beforeAll()": "7fea0d4b",
			"testStoreFile()": "a3bd5414"
		}
	},
	"abi": [
		{
			"inputs": [],
			"name": "beforeAll",
			"outputs": [],
			"stateMutability": "nonpayable",
			"type": "function"
		},
		{
			"inputs": [],
			"name": "testStoreFile",
			"outputs": [],
			"stateMutability": "nonpayable",
			"type": "function"
		}
	]
}