{
	"data": {
		"bytecode": {
			"linkReferences": {
				"remix_tests.sol": {
					"Assert": [
						{
							"length": 20,
							"start": 296
						},
						{
							"length": 20,
							"start": 552
						}
					]
				}
			},
			"object": "608060405234801561000f575f80fd5b50615cb98061001d5f395ff3fe608060405234801561000f575f80fd5b5060043610610034575f3560e01c806349ccf431146100385780637fea0d4b14610042575b5f80fd5b61004061004a565b005b61004061026c565b604080518082018252600f81526e6e6f6e4578697374696e6746696c6560881b60208201525f80549251632c1e57cb60e11b8152919290916001600160a01b039091169063583caf96906100a2908590600401610360565b5f60405180830381865afa9250505080156100de57506040513d5f823e601f3d908101601f191682016040526100db9190810190610512565b60015b6101aa576100ea610663565b806308c379a0036101a057506100fe61067c565b8061010957506101a2565b73__$acbfb1c35000d78352310b16a054a6b106$__63e8c2cb1682604051806060016040528060238152602001615c61602391396040518363ffffffff1660e01b815260040161015a929190610704565b602060405180830381865af4158015610175573d5f803e3d5ffd5b505050506040513d601f19601f82011682018060405250810190610199919061077f565b50506101b0565b505b3d5f803e3d5ffd5b50600190505b60405163767392b360e01b815281151560048201525f602482015260606044820152602160648201527f53686f756c64206661696c20666f72206e6f6e2d6578697374696e672066696c6084820152606560f81b60a482015273__$acbfb1c35000d78352310b16a054a6b106$__9063767392b39060c401602060405180830381865af4158015610243573d5f803e3d5ffd5b505050506040513d601f19601f82011682018060405250810190610267919061077f565b505050565b604051610278906102f9565b604051809103905ff080158015610291573d5f803e3d5ffd5b505f80546001600160a01b0319166001600160a01b03929092169190911790556040516102bd90610306565b604051809103905ff0801580156102d6573d5f803e3d5ffd5b50600180546001600160a01b0319166001600160a01b0392909216919091179055565b6127e38061079f83390190565b612cdf80612f8283390190565b5f5b8381101561032d578181015183820152602001610315565b50505f910152565b5f815180845261034c816020860160208601610313565b601f01601f19169290920160200192915050565b602081525f6103726020830184610335565b9392505050565b634e487b7160e01b5f52604160045260245ffd5b604081016001600160401b03811182821017156103ac576103ac610379565b60405250565b601f8201601f191681016001600160401b03811182821017156103d7576103d7610379565b6040525050565b60405161010081016001600160401b038111828210171561040157610401610379565b60405290565b5f82601f830112610416575f80fd5b81516001600160401b0381111561042f5761042f610379565b604051610446601f8301601f1916602001826103b2565b81815284602083860101111561045a575f80fd5b61046b826020830160208701610313565b949350505050565b80516001600160a01b0381168114610489575f80fd5b919050565b5f82601f83011261049d575f80fd5b815160206001600160401b038211156104b8576104b8610379565b8160051b6040516104cb838301826103b2565b928352848101820192828101878511156104e3575f80fd5b83870192505b84831015610507576104fa83610473565b81529183019183016104e9565b509695505050505050565b5f60208284031215610522575f80fd5b81516001600160401b0380821115610538575f80fd5b908301906040828603121561054b575f80fd5b6040516105578161038d565b825182811115610565575f80fd5b83016101008188031215610577575f80fd5b61057f6103de565b81518481111561058d575f80fd5b61059989828501610407565b8252506020820151848111156105ad575f80fd5b6105b989828501610407565b6020830152506040820151848111156105d0575f80fd5b6105dc89828501610407565b604083015250606082015160608201526080820151608082015260a082015160a082015261060c60c08301610473565b60c082015260e082015184811115610622575f80fd5b61062e89828501610407565b60e083015250825250602083015182811115610648575f80fd5b6106548782860161048e565b60208301525095945050505050565b5f60033d11156106795760045f803e505f5160e01c5b90565b5f60443d10156106895790565b6040516003193d81016004833e81513d6001600160401b0380831160248401831017156106b857505050505090565b82850191508151818111156106d05750505050505090565b843d87010160208285010111156106ea5750505050505090565b6106f9602082860101876103b2565b509095945050505050565b606081525f6107166060830185610335565b82810360208401526107288185610335565b838103604094850152602e81527f556e6578706563746564206572726f72206d65737361676520666f72206e6f6e60208201526d2d6578697374696e672066696c6560901b93810193909352505060600192915050565b5f6020828403121561078f575f80fd5b81518015158114610372575f80fdfe608060405260035f556064600155348015610018575f80fd5b50600680546001600160a01b031916331790556127ab806100385f395ff3fe608060405234801561000f575f80fd5b5060043610610097575f3560e01c806311bd77fe1461009b578063189a5a17146100b057806330e00c9b14610106578063528aecce14610126578063583caf96146101395780635ffd7c06146101595780638da5cb5b1461016f578063a991005414610182578063b23793d614610195578063cf86bf93146101b5578063fe72ae13146101be575b5f80fd5b6100ae6100a9366004611e9a565b6101d1565b005b6100e26100be366004611ec2565b60036020525f9081526040902080546001909101546001600160a01b039091169082565b604080516001600160a01b0390931683526020830191909152015b60405180910390f35b610119610114366004611f91565b610317565b6040516100fd9190611fd2565b6100ae61013436600461207f565b61035c565b61014c61014736600461214f565b61063c565b6040516100fd9190612218565b6101615f5481565b6040519081526020016100fd565b600654610119906001600160a01b031681565b6100ae61019036600461214f565b6107ea565b6101a86101a336600461214f565b610e8f565b6040516100fd91906122fc565b61016160015481565b6101196101cc36600461230e565b610faa565b6001600160a01b038281165f9081526003602052604090205416156102595760405162461bcd60e51b815260206004820152603360248201527f6164644e6f64653a20496e76616c6964205f6e6f646541646472657373202d206044820152724e6f646520416c72656164792065786973747360681b60648201526084015b60405180910390fd5b6040805180820182526001600160a01b0384811680835260208084018681525f928352600390915290849020925183546001600160a01b031916921691909117825551600190910155515f80516020612653833981519152906102bd908490611fd2565b60405180910390a150600580546001810182555f919091527f036b6384b5eca791c62761152d0c79bb0604c104a5fb6f4eb0703f3154bb3db00180546001600160a01b0319166001600160a01b0392909216919091179055565b81516020818401810180516004825292820191850191909120919052805482908110610341575f80fd5b5f918252602090912001546001600160a01b03169150829050565b60055460408051606081019091526023808252911515916126736020830139906103995760405162461bcd60e51b81526004016102509190612325565b505f6103a483610fd2565b146040518060400160405280601c81526020017b1cdd1bdc99519a5b194e88111d5c1b1a58d85d1948119a5b1948125960221b815250906103f85760405162461bcd60e51b81526004016102509190612325565b505f5b86518110156106035761040f60075f611dac565b5f87828151811061042257610422612337565b60200260200101515190505f80805490506003600580549050101561044657506005545b61047c60405180604001604052806013815260200172111d5c1b1a58d85d1a5bdb881cdd185c9d1959606a1b8152508383611048565b808210156105f8575f6104e78460078054806020026020016040519081016040528092919081815260200182805480156104dd57602002820191905f5260205f20905b81546001600160a01b031681526001909101906020018083116104bf575b5050505050611094565b90505f80516020612653833981519152816040516105059190611fd2565b60405180910390a1600780546001810182555f919091527fa66cc928b5edb82af9bd49922954155ab7b0942694bea4ce44661d9a8736c6880180546001600160a01b0319166001600160a01b0383161790556040517fb011a0da2bacc57f5c2ddf79f5c8e86484a4fc528f15571a48a9d47956bc82be90610587908390611fd2565b60405180910390a1826105998161235f565b9350506105c1818c87815181106105b2576105b2612337565b60200260200101518988611210565b6001600160a01b0381165f908152600360205260409020600101546105f29082906105ed908790612377565b611367565b5061047c565b5050506001016103fb565b5061060f60075f611dac565b5f6106198761141c565b9050610625818461148c565b61063386868387878761159b565b50505050505050565b610644611dc7565b5f61064d611849565b90505f5b81518110156107345761068082828151811061066f5761066f612337565b60200260200101515f015185611b5d565b1561072c5781818151811061069757610697612337565b602002602001015160c001516001600160a01b0316336001600160a01b0316146040518060600160405280603081526020016126fe60309139906106ee5760405162461bcd60e51b81526004016102509190612325565b50604051806040016040528083838151811061070c5761070c612337565b6020026020010151815260200161072286610e8f565b9052949350505050565b600101610651565b505f6040518060600160405280602381526020016126db602391399061076d5760405162461bcd60e51b81526004016102509190612325565b505060408051610120810182525f6101008201818152825282516020818101855282825280840191909152835180820185528281528385015260608381018390526080840183905260a0840183905260c084018390528451808301865292835260e084019290925283518085019094529183529082015292915050565b335f90815260086020908152604091829020548251808401909352601b83527a19195b195d19519a5b194e88125b9d985b1a5908199a5b19481a59602a1b9183019190915261084c5760405162461bcd60e51b81526004016102509190612325565b50335f90815260086020908152604080832080548251818502810185019093528083529192909190849084015b82821015610b1e578382905f5260205f209060080201604051806101000160405290815f820180546108aa9061238a565b80601f01602080910402602001604051908101604052809291908181526020018280546108d69061238a565b80156109215780601f106108f857610100808354040283529160200191610921565b820191905f5260205f20905b81548152906001019060200180831161090457829003601f168201915b5050505050815260200160018201805461093a9061238a565b80601f01602080910402602001604051908101604052809291908181526020018280546109669061238a565b80156109b15780601f10610988576101008083540402835291602001916109b1565b820191905f5260205f20905b81548152906001019060200180831161099457829003601f168201915b505050505081526020016002820180546109ca9061238a565b80601f01602080910402602001604051908101604052809291908181526020018280546109f69061238a565b8015610a415780601f10610a1857610100808354040283529160200191610a41565b820191905f5260205f20905b815481529060010190602001808311610a2457829003601f168201915b505050918352505060038201546020820152600482015460408201526005820154606082015260068201546001600160a01b0316608082015260078201805460a090920191610a8f9061238a565b80601f0160208091040260200160405190810160405280929190818152602001828054610abb9061238a565b8015610b065780601f10610add57610100808354040283529160200191610b06565b820191905f5260205f20905b815481529060010190602001808311610ae957829003601f168201915b50505050508152505081526020019060010190610879565b5050505090505f60018251610b339190612377565b90505f828281518110610b4857610b48612337565b60200260200101519050610b5a611de7565b5f805b8551811015610c9357610b8c868281518110610b7b57610b7b612337565b60200260200101515f015188611b5d565b15610c8b5760019150858181518110610ba757610ba7612337565b602002602001015192508360085f336001600160a01b03166001600160a01b031681526020019081526020015f208281548110610be657610be6612337565b5f91825260209091208251600890920201908190610c04908261240d565b5060208201516001820190610c19908261240d565b5060408201516002820190610c2e908261240d565b50606082015160038201556080820151600482015560a0820151600582015560c08201516006820180546001600160a01b0319166001600160a01b0390921691909117905560e08201516007820190610c87908261240d565b5050505b600101610b5d565b5060408051808201909152601a81527919195b195d19519a5b194e88119a5b1948139bdd08199bdd5b9960321b602082015281610ce35760405162461bcd60e51b81526004016102509190612325565b50335f908152600860205260409020805483919086908110610d0757610d07612337565b5f91825260209091208251600890920201908190610d25908261240d565b5060208201516001820190610d3a908261240d565b5060408201516002820190610d4f908261240d565b50606082015160038201556080820151600482015560a0820151600582015560c08201516006820180546001600160a01b0319166001600160a01b0390921691909117905560e08201516007820190610da8908261240d565b5050335f908152600860205260409020805490915080610dca57610dca6124cc565b5f828152602081205f1990920191600883020190610de88282611e34565b610df5600183015f611e34565b610e02600283015f611e34565b5f6003830181905560048301819055600583018190556006830180546001600160a01b0319169055610e38906007840190611e34565b50509055610e4586611bb5565b610e4e86611c3c565b7f8598a19145ba7b62366f9f3e3ceca438df1e575ffa3bef982ed120041131d7863387604051610e7f9291906124e0565b60405180910390a1505050505050565b60605f600483604051610ea29190612503565b9081526040519081900360200190205411610f345760405162461bcd60e51b815260206004820152604660248201527f72657472696576654368756e6b4e6f64654164647265737365733a20496e766160448201527f6c6964205f6e6f646541646472657373202d204e6f646520446f6573204e4f5460648201526508195e1a5cdd60d21b608482015260a401610250565b600482604051610f449190612503565b9081526040805191829003602090810183208054808302850183019093528284529190830182828015610f9e57602002820191905f5260205f20905b81546001600160a01b03168152600190910190602001808311610f80575b50505050509050919050565b60058181548110610fb9575f80fd5b5f918252602090912001546001600160a01b0316905081565b5f808251116110225760405162461bcd60e51b815260206004820152601c60248201527b19d95d119a5b1952185cda0e88125b9d985b1a590817d99a5b19525960221b6044820152606401610250565b6002826040516110329190612503565b9081526020016040518091039020549050919050565b61108f8383836040516024016110609392919061251e565b60408051601f198184030181529190526020810180516001600160e01b031663ca47c4eb60e01b179052611d2b565b505050565b6005545f9060328183036110ac575f9250505061120a565b5f826110b9600143612377565b6110c4919040612542565b90505f806103e85b80821015611200575f6005876110e28688612561565b6110ec9190612542565b815481106110fc576110fc612337565b5f91825260209182902001546040518781526001600160a01b0390911692507f0838d04243391d45d94a98fff54d1737cbffea86c34ab825e5d6980ec9b77235910160405180910390a1611150868b612561565b6001600160a01b0382165f9081526003602052604090206001015411156111d45760015f5b8a518110156111bc57826001600160a01b03168b828151811061119a5761119a612337565b60200260200101516001600160a01b0316036111b4575f91505b600101611175565b5080156111d25750965061120a95505050505050565b505b836111de8161235f565b94505082806111ec9061235f565b9350508684036111fa575f93505b506110cc565b5f96505050505050505b92915050565b6001600160a01b038481165f908152600360205260409020541661129b5760405162461bcd60e51b815260206004820152603c60248201527f73746f72654368756e6b496e4e6f64653a20496e76616c6964205f6e6f64654160448201527b19191c995cdcc80b48139bd91948111bd95cc81393d508195e1a5cdd60221b6064820152608401610250565b611313846004846040516112af9190612503565b908152604080519182900360209081018320805480830285018301909352828452919083018282801561130957602002820191905f5260205f20905b81546001600160a01b031681526001909101906020018083116112eb575b5050505050611d34565b611361576004826040516113279190612503565b9081526040516020918190038201902080546001810182555f9182529190200180546001600160a01b0319166001600160a01b0386161790555b50505050565b6001600160a01b038281165f90815260036020526040902054166113fe5760405162461bcd60e51b815260206004820152604260248201527f757064617465417661696c61626c6553746f726167653a20496e76616c69642060448201527f5f6e6f646541646472657373202d204e6f646520446f6573204e4f54206578696064820152611cdd60f21b608482015260a401610250565b6001600160a01b039091165f90815260036020526040902060010155565b60408051602081019091525f80825290815b835181101561147d578184828151811061144a5761144a612337565b6020026020010151604051602001611463929190612574565b60408051601f19818403018152919052915060010161142e565b50805160209091012092915050565b336114d95760405162461bcd60e51b815260206004820152601d60248201527f73746f726546696c65486173683a20496e76616c69642073656e6465720000006044820152606401610250565b816115265760405162461bcd60e51b815260206004820181905260248201527f73746f726546696c65486173683a20496e76616c6964205f66696c65486173686044820152606401610250565b5f8151116115765760405162461bcd60e51b815260206004820152601e60248201527f73746f726546696c65486173683a20496e76616c6964205f66696c65496400006044820152606401610250565b816002826040516115879190612503565b908152604051908190036020019020555050565b6040805160608101909152602180825233151591906126ba6020830139906115d65760405162461bcd60e51b81526004016102509190612325565b505f85511160405180606001604052806024815260200161262f60249139906116125760405162461bcd60e51b81526004016102509190612325565b505f86511160405180606001604052806024815260200161272e602491399061164e5760405162461bcd60e51b81526004016102509190612325565b505f801b841415604051806060016040528060248152602001612752602491399061168c5760405162461bcd60e51b81526004016102509190612325565b505f811160405180606001604052806024815260200161260b60249139906116c75760405162461bcd60e51b81526004016102509190612325565b505f82511160405180606001604052806024815260200161269660249139906117035760405162461bcd60e51b81526004016102509190612325565b50335f8181526008602081815260408084208151610100810183528881528084018d90529182018b9052606082018a9052608082018790524260a0830181905260c083019690965260e08201899052805460018101825590855291909320835191909202909101908190611777908261240d565b506020820151600182019061178c908261240d565b50604082015160028201906117a1908261240d565b50606082015160038201556080820151600482015560a0820151600582015560c08201516006820180546001600160a01b0319166001600160a01b0390921691909117905560e082015160078201906117fa908261240d565b5050507f557bccc5a98151ef59a421e190011aa3f6b5dc4ac2fd42fba79d158ce0c68ac18388888886863360405161183897969594939291906125a2565b60405180910390a150505050505050565b604080516060818101909252602180825233151591906126ba6020830139906118855760405162461bcd60e51b81526004016102509190612325565b50335f90815260086020908152604080832080548251818502810185019093528083529193909284015b82821015611b54578382905f5260205f209060080201604051806101000160405290815f820180546118e09061238a565b80601f016020809104026020016040519081016040528092919081815260200182805461190c9061238a565b80156119575780601f1061192e57610100808354040283529160200191611957565b820191905f5260205f20905b81548152906001019060200180831161193a57829003601f168201915b505050505081526020016001820180546119709061238a565b80601f016020809104026020016040519081016040528092919081815260200182805461199c9061238a565b80156119e75780601f106119be576101008083540402835291602001916119e7565b820191905f5260205f20905b8154815290600101906020018083116119ca57829003601f168201915b50505050508152602001600282018054611a009061238a565b80601f0160208091040260200160405190810160405280929190818152602001828054611a2c9061238a565b8015611a775780601f10611a4e57610100808354040283529160200191611a77565b820191905f5260205f20905b815481529060010190602001808311611a5a57829003601f168201915b505050918352505060038201546020820152600482015460408201526005820154606082015260068201546001600160a01b0316608082015260078201805460a090920191611ac59061238a565b80601f0160208091040260200160405190810160405280929190818152602001828054611af19061238a565b8015611b3c5780601f10611b1357610100808354040283529160200191611b3c565b820191905f5260205f20905b815481529060010190602001808311611b1f57829003601f168201915b505050505081525050815260200190600101906118af565b50505050905090565b5f81604051602001611b6f9190612503565b6040516020818303038152906040528051906020012083604051602001611b969190612503565b6040516020818303038152906040528051906020012014905092915050565b5f815111611c105760405162461bcd60e51b815260206004820152602260248201527f64656c6574654368756e6b496e4e6f64653a20496e76616c6964205f66696c65604482015261125960f21b6064820152608401610250565b600481604051611c209190612503565b90815260200160405180910390205f611c399190611dac565b50565b5f815111611c8c5760405162461bcd60e51b815260206004820152601f60248201527f64656c65746546696c65486173683a20496e76616c6964205f66696c654964006044820152606401610250565b5f801b600282604051611c9f9190612503565b90815260200160405180910390205403611d075760405162461bcd60e51b8152602060048201526024808201527f64656c65746546696c65486173683a20496e76616c69642066696c654964546f604482015263090c2e6d60e31b6064820152608401610250565b600281604051611d179190612503565b90815260200160405180910390205f905550565b611c3981611d8d565b5f805b8251811015611d8457836001600160a01b0316838281518110611d5c57611d5c612337565b60200260200101516001600160a01b031603611d7c57600191505061120a565b600101611d37565b505f9392505050565b5f6a636f6e736f6c652e6c6f6790505f80835160208501845afa505050565b5080545f8255905f5260205f2090810190611c399190611e67565b6040518060400160405280611dda611de7565b8152602001606081525090565b6040518061010001604052806060815260200160608152602001606081526020015f80191681526020015f81526020015f81526020015f6001600160a01b03168152602001606081525090565b508054611e409061238a565b5f825580601f10611e4f575050565b601f0160209004905f5260205f2090810190611c3991905b5b80821115611e7b575f8155600101611e68565b5090565b80356001600160a01b0381168114611e95575f80fd5b919050565b5f8060408385031215611eab575f80fd5b611eb483611e7f565b946020939093013593505050565b5f60208284031215611ed2575f80fd5b611edb82611e7f565b9392505050565b634e487b7160e01b5f52604160045260245ffd5b604051601f8201601f191681016001600160401b0381118282101715611f1e57611f1e611ee2565b604052919050565b5f82601f830112611f35575f80fd5b81356001600160401b03811115611f4e57611f4e611ee2565b611f61601f8201601f1916602001611ef6565b818152846020838601011115611f75575f80fd5b816020850160208301375f918101602001919091529392505050565b5f8060408385031215611fa2575f80fd5b82356001600160401b03811115611fb7575f80fd5b611fc385828601611f26565b95602094909401359450505050565b6001600160a01b0391909116815260200190565b5f82601f830112611ff5575f80fd5b813560206001600160401b038083111561201157612011611ee2565b8260051b612020838201611ef6565b9384528581018301938381019088861115612039575f80fd5b84880192505b8583101561207357823584811115612055575f80fd5b6120638a87838c0101611f26565b835250918401919084019061203f565b98975050505050505050565b5f805f805f8060c08789031215612094575f80fd5b86356001600160401b03808211156120aa575f80fd5b6120b68a838b01611fe6565b975060208901359150808211156120cb575f80fd5b6120d78a838b01611f26565b965060408901359150808211156120ec575f80fd5b6120f88a838b01611f26565b9550606089013591508082111561210d575f80fd5b6121198a838b01611f26565b9450608089013591508082111561212e575f80fd5b5061213b89828a01611f26565b92505060a087013590509295509295509295565b5f6020828403121561215f575f80fd5b81356001600160401b03811115612174575f80fd5b61218084828501611f26565b949350505050565b5f5b838110156121a257818101518382015260200161218a565b50505f910152565b5f81518084526121c1816020860160208601612188565b601f01601f19169290920160200192915050565b5f815180845260208085019450602084015f5b8381101561220d5781516001600160a01b0316875295820195908201906001016121e8565b509495945050505050565b602081525f825160406020840152805161010080606086015261223f6101608601836121aa565b91506020830151605f198087850301608088015261225d84836121aa565b935060408501519150808785030160a088015261227a84836121aa565b9350606085015160c0880152608085015160e088015260a08501518388015260c085015192506122b66101208801846001600160a01b03169052565b60e0850151945080878503016101408801525050506122d581836121aa565b9150506020840151601f198483030160408501526122f382826121d5565b95945050505050565b602081525f611edb60208301846121d5565b5f6020828403121561231e575f80fd5b5035919050565b602081525f611edb60208301846121aa565b634e487b7160e01b5f52603260045260245ffd5b634e487b7160e01b5f52601160045260245ffd5b5f600182016123705761237061234b565b5060010190565b8181038181111561120a5761120a61234b565b600181811c9082168061239e57607f821691505b6020821081036123bc57634e487b7160e01b5f52602260045260245ffd5b50919050565b601f82111561108f57805f5260205f20601f840160051c810160208510156123e75750805b601f840160051c820191505b81811015612406575f81556001016123f3565b5050505050565b81516001600160401b0381111561242657612426611ee2565b61243a81612434845461238a565b846123c2565b602080601f83116001811461246d575f84156124565750858301515b5f19600386901b1c1916600185901b1785556124c4565b5f85815260208120601f198616915b8281101561249b5788860151825594840194600190910190840161247c565b50858210156124b857878501515f19600388901b60f8161c191681555b505060018460011b0185555b505050505050565b634e487b7160e01b5f52603160045260245ffd5b6001600160a01b03831681526040602082018190525f90612180908301846121aa565b5f8251612514818460208701612188565b9190910192915050565b606081525f61253060608301866121aa565b60208301949094525060400152919050565b5f8261255c57634e487b7160e01b5f52601260045260245ffd5b500690565b8082018082111561120a5761120a61234b565b5f8351612585818460208801612188565b835190830190612599818360208801612188565b01949350505050565b60e081525f6125b460e083018a6121aa565b82810360208401526125c6818a6121aa565b905082810360408401526125da81896121aa565b60608401979097525050608081019390935260a08301919091526001600160a01b031660c090910152939250505056fe73746f726546696c654d657461646174613a20496e76616c6964205f66696c6553697a6573746f726546696c654d657461646174613a20496e76616c6964205f66696c65547970655f91b0afd2c6ef8da92137ba907bccdc85ec4856a15ad39de3e0eff02be6d70e73746f726546696c653a204e6f20617661696c61626c65206e6f64657320666f756e6473746f726546696c654d657461646174613a20496e76616c6964205f756e69717565496473746f726546696c654d657461646174613a20496e76616c69642073656e646572726574726965766546696c6544657461696c733a2046696c65204e6f7420466f756e64726574726965766546696c6544657461696c733a20556e617574686f72697a65642063616c6c6572206164647265737373746f726546696c654d657461646174613a20496e76616c6964205f66696c654e616d6573746f726546696c654d657461646174613a20496e76616c6964205f66696c6548617368a26469706673582212205411d090fbf7b5b2a1093fe02c4d3a33a5d71ba12c63d1cb3f9a9b72eaaa0bc064736f6c63430008160033608060405260035f556064600155348015610018575f80fd5b50600680546001600160a01b03191633179055612ca7806100385f395ff3fe608060405234801561000f575f80fd5b5060043610610126575f3560e01c8063072538391461012a57806311bd77fe1461013f578063189a5a17146101525780631f0c6814146101a857806330e00c9b146101bb5780634ad7960f146101db578063528aecce146101ee578063583caf96146102015780635ffd7c06146102215780636296610b1461023757806364f937281461024a5780637d9415221461025f5780638da5cb5b14610282578063967c2bbd14610295578063a9910054146102b5578063b23793d6146102c8578063c8084b12146102db578063cd889944146102ee578063cdf1e848146102f6578063cf86bf9314610309578063d433b6fa14610312578063d6bc4a8714610325578063f91c122f1461035c578063fe72ae131461036f575b5f80fd5b61013d6101383660046121e8565b610382565b005b61013d61014d3660046121e8565b610390565b610184610160366004612210565b60036020525f9081526040902080546001909101546001600160a01b039091169082565b604080516001600160a01b0390931683526020830191909152015b60405180910390f35b61013d6101b63660046122d8565b6104d6565b6101ce6101c936600461238e565b6104ec565b60405161019f91906123cf565b61013d6101e93660046121e8565b610531565b61013d6101fc36600461247c565b61053b565b61021461020f36600461250a565b61081b565b60405161019f9190612678565b6102295f5481565b60405190815260200161019f565b61022961024536600461250a565b6109c9565b6102526109d9565b60405161019f91906126b0565b61027261026d366004612712565b6109e8565b604051901515815260200161019f565b6006546101ce906001600160a01b031681565b6102a86102a336600461250a565b6109fa565b60405161019f9190612755565b61013d6102c336600461250a565b610a05565b6102a86102d636600461250a565b6110aa565b61013d6102e9366004612767565b6111c5565b6102a86111d7565b61013d610304366004612712565b6111e1565b61022960015481565b61013d61032036600461250a565b6111eb565b610338610333366004612210565b6111f7565b6040805182516001600160a01b03168152602092830151928101929092520161019f565b61022961036a3660046127dd565b611208565b6101ce61037d36600461280e565b611212565b61038c828261123a565b5050565b6001600160a01b038281165f9081526003602052604090205416156104185760405162461bcd60e51b815260206004820152603360248201527f6164644e6f64653a20496e76616c6964205f6e6f646541646472657373202d206044820152724e6f646520416c72656164792065786973747360681b60648201526084015b60405180910390fd5b6040805180820182526001600160a01b0384811680835260208084018681525f928352600390915290849020925183546001600160a01b031916921691909117825551600190910155515f80516020612b4f8339815191529061047c9084906123cf565b60405180910390a150600580546001810182555f919091527f036b6384b5eca791c62761152d0c79bb0604c104a5fb6f4eb0703f3154bb3db00180546001600160a01b0319166001600160a01b0392909216919091179055565b6104e48686868686866112ef565b505050505050565b81516020818401810180516004825292820191850191909120919052805482908110610516575f80fd5b5f918252602090912001546001600160a01b03169150829050565b61038c8282610390565b6005546040805160608101909152602380825291151591612b6f6020830139906105785760405162461bcd60e51b815260040161040f9190612825565b505f6105838361159d565b146040518060400160405280601c81526020017b1cdd1bdc99519a5b194e88111d5c1b1a58d85d1948119a5b1948125960221b815250906105d75760405162461bcd60e51b815260040161040f9190612825565b505f5b86518110156107e2576105ee60075f6120e0565b5f87828151811061060157610601612837565b60200260200101515190505f80805490506003600580549050101561062557506005545b61065b60405180604001604052806013815260200172111d5c1b1a58d85d1a5bdb881cdd185c9d1959606a1b8152508383611613565b808210156107d7575f6106c68460078054806020026020016040519081016040528092919081815260200182805480156106bc57602002820191905f5260205f20905b81546001600160a01b0316815260019091019060200180831161069e575b505050505061165f565b90505f80516020612b4f833981519152816040516106e491906123cf565b60405180910390a1600780546001810182555f919091527fa66cc928b5edb82af9bd49922954155ab7b0942694bea4ce44661d9a8736c6880180546001600160a01b0319166001600160a01b0383161790556040517fb011a0da2bacc57f5c2ddf79f5c8e86484a4fc528f15571a48a9d47956bc82be906107669083906123cf565b60405180910390a1826107788161285f565b9350506107a0818c878151811061079157610791612837565b602002602001015189886117d9565b6001600160a01b0381165f908152600360205260409020600101546107d19082906107cc908790612877565b61123a565b5061065b565b5050506001016105da565b506107ee60075f6120e0565b5f6107f887611933565b905061080481846119a3565b6108128686838787876112ef565b50505050505050565b6108236120fb565b5f61082c611ab2565b90505f5b81518110156109135761085f82828151811061084e5761084e612837565b60200260200101515f015185611dc6565b1561090b5781818151811061087657610876612837565b602002602001015160c001516001600160a01b0316336001600160a01b031614604051806060016040528060308152602001612bfa60309139906108cd5760405162461bcd60e51b815260040161040f9190612825565b5060405180604001604052808383815181106108eb576108eb612837565b60200260200101518152602001610901866110aa565b9052949350505050565b600101610830565b505f604051806060016040528060238152602001612bd7602391399061094c5760405162461bcd60e51b815260040161040f9190612825565b505060408051610120810182525f6101008201818152825282516020818101855282825280840191909152835180820185528281528385015260608381018390526080840183905260a0840183905260c084018390528451808301865292835260e084019290925283518085019094529183529082015292915050565b5f6109d38261159d565b92915050565b60606109e3611ab2565b905090565b5f6109f38383611e1e565b9392505050565b60606109d3826110aa565b335f90815260086020908152604091829020548251808401909352601b83527a19195b195d19519a5b194e88125b9d985b1a5908199a5b19481a59602a1b91830191909152610a675760405162461bcd60e51b815260040161040f9190612825565b50335f90815260086020908152604080832080548251818502810185019093528083529192909190849084015b82821015610d39578382905f5260205f209060080201604051806101000160405290815f82018054610ac59061288a565b80601f0160208091040260200160405190810160405280929190818152602001828054610af19061288a565b8015610b3c5780601f10610b1357610100808354040283529160200191610b3c565b820191905f5260205f20905b815481529060010190602001808311610b1f57829003601f168201915b50505050508152602001600182018054610b559061288a565b80601f0160208091040260200160405190810160405280929190818152602001828054610b819061288a565b8015610bcc5780601f10610ba357610100808354040283529160200191610bcc565b820191905f5260205f20905b815481529060010190602001808311610baf57829003601f168201915b50505050508152602001600282018054610be59061288a565b80601f0160208091040260200160405190810160405280929190818152602001828054610c119061288a565b8015610c5c5780601f10610c3357610100808354040283529160200191610c5c565b820191905f5260205f20905b815481529060010190602001808311610c3f57829003601f168201915b505050918352505060038201546020820152600482015460408201526005820154606082015260068201546001600160a01b0316608082015260078201805460a090920191610caa9061288a565b80601f0160208091040260200160405190810160405280929190818152602001828054610cd69061288a565b8015610d215780601f10610cf857610100808354040283529160200191610d21565b820191905f5260205f20905b815481529060010190602001808311610d0457829003601f168201915b50505050508152505081526020019060010190610a94565b5050505090505f60018251610d4e9190612877565b90505f828281518110610d6357610d63612837565b60200260200101519050610d7561211b565b5f805b8551811015610eae57610da7868281518110610d9657610d96612837565b60200260200101515f015188611dc6565b15610ea65760019150858181518110610dc257610dc2612837565b602002602001015192508360085f336001600160a01b03166001600160a01b031681526020019081526020015f208281548110610e0157610e01612837565b5f91825260209091208251600890920201908190610e1f908261290d565b5060208201516001820190610e34908261290d565b5060408201516002820190610e49908261290d565b50606082015160038201556080820151600482015560a0820151600582015560c08201516006820180546001600160a01b0319166001600160a01b0390921691909117905560e08201516007820190610ea2908261290d565b5050505b600101610d78565b5060408051808201909152601a81527919195b195d19519a5b194e88119a5b1948139bdd08199bdd5b9960321b602082015281610efe5760405162461bcd60e51b815260040161040f9190612825565b50335f908152600860205260409020805483919086908110610f2257610f22612837565b5f91825260209091208251600890920201908190610f40908261290d565b5060208201516001820190610f55908261290d565b5060408201516002820190610f6a908261290d565b50606082015160038201556080820151600482015560a0820151600582015560c08201516006820180546001600160a01b0319166001600160a01b0390921691909117905560e08201516007820190610fc3908261290d565b5050335f908152600860205260409020805490915080610fe557610fe56129c8565b5f828152602081205f19909201916008830201906110038282612168565b611010600183015f612168565b61101d600283015f612168565b5f6003830181905560048301819055600583018190556006830180546001600160a01b0319169055611053906007840190612168565b5050905561106086611e48565b61106986611ecc565b7f8598a19145ba7b62366f9f3e3ceca438df1e575ffa3bef982ed120041131d786338760405161109a9291906129dc565b60405180910390a1505050505050565b60605f6004836040516110bd91906129ff565b908152604051908190036020019020541161114f5760405162461bcd60e51b815260206004820152604660248201527f72657472696576654368756e6b4e6f64654164647265737365733a20496e766160448201527f6c6964205f6e6f646541646472657373202d204e6f646520446f6573204e4f5460648201526508195e1a5cdd60d21b608482015260a40161040f565b60048260405161115f91906129ff565b90815260408051918290036020908101832080548083028501830190935282845291908301828280156111b957602002820191905f5260205f20905b81546001600160a01b0316815260019091019060200180831161119b575b50505050509050919050565b6111d1848484846117d9565b50505050565b60606109e3611fbb565b61038c82826119a3565b6111f481611ecc565b50565b6111ff61219f565b6109d38261201b565b5f6109d382611933565b60058181548110611221575f80fd5b5f918252602090912001546001600160a01b0316905081565b6001600160a01b038281165f90815260036020526040902054166112d15760405162461bcd60e51b815260206004820152604260248201527f757064617465417661696c61626c6553746f726167653a20496e76616c69642060448201527f5f6e6f646541646472657373202d204e6f646520446f6573204e4f54206578696064820152611cdd60f21b608482015260a40161040f565b6001600160a01b039091165f90815260036020526040902060010155565b604080516060810190915260218082523315159190612bb660208301399061132a5760405162461bcd60e51b815260040161040f9190612825565b505f855111604051806060016040528060248152602001612b2b60249139906113665760405162461bcd60e51b815260040161040f9190612825565b505f865111604051806060016040528060248152602001612c2a60249139906113a25760405162461bcd60e51b815260040161040f9190612825565b505f801b841415604051806060016040528060248152602001612c4e60249139906113e05760405162461bcd60e51b815260040161040f9190612825565b505f8111604051806060016040528060248152602001612b07602491399061141b5760405162461bcd60e51b815260040161040f9190612825565b505f825111604051806060016040528060248152602001612b9260249139906114575760405162461bcd60e51b815260040161040f9190612825565b50335f8181526008602081815260408084208151610100810183528881528084018d90529182018b9052606082018a9052608082018790524260a0830181905260c083019690965260e082018990528054600181018255908552919093208351919092029091019081906114cb908261290d565b50602082015160018201906114e0908261290d565b50604082015160028201906114f5908261290d565b50606082015160038201556080820151600482015560a0820151600582015560c08201516006820180546001600160a01b0319166001600160a01b0390921691909117905560e0820151600782019061154e908261290d565b5050507f557bccc5a98151ef59a421e190011aa3f6b5dc4ac2fd42fba79d158ce0c68ac18388888886863360405161158c9796959493929190612a1a565b60405180910390a150505050505050565b5f808251116115ed5760405162461bcd60e51b815260206004820152601c60248201527b19d95d119a5b1952185cda0e88125b9d985b1a590817d99a5b19525960221b604482015260640161040f565b6002826040516115fd91906129ff565b9081526020016040518091039020549050919050565b61165a83838360405160240161162b93929190612a82565b60408051601f198184030181529190526020810180516001600160e01b031663ca47c4eb60e01b17905261205f565b505050565b6005545f906032818303611677575f925050506109d3565b5f82611684600143612877565b61168f919040612aa6565b90505f806103e85b808210156117cb575f6005876116ad8688612ac5565b6116b79190612aa6565b815481106116c7576116c7612837565b5f91825260209182902001546040518781526001600160a01b0390911692507f0838d04243391d45d94a98fff54d1737cbffea86c34ab825e5d6980ec9b77235910160405180910390a161171b868b612ac5565b6001600160a01b0382165f90815260036020526040902060010154111561179f5760015f5b8a5181101561178757826001600160a01b03168b828151811061176557611765612837565b60200260200101516001600160a01b03160361177f575f91505b600101611740565b50801561179d575096506109d395505050505050565b505b836117a98161285f565b94505082806117b79061285f565b9350508684036117c5575f93505b50611697565b505f98975050505050505050565b6001600160a01b038481165f90815260036020526040902054166118645760405162461bcd60e51b815260206004820152603c60248201527f73746f72654368756e6b496e4e6f64653a20496e76616c6964205f6e6f64654160448201527b19191c995cdcc80b48139bd91948111bd95cc81393d508195e1a5cdd60221b606482015260840161040f565b6118dc8460048460405161187891906129ff565b90815260408051918290036020908101832080548083028501830190935282845291908301828280156118d257602002820191905f5260205f20905b81546001600160a01b031681526001909101906020018083116118b4575b5050505050612068565b6111d1576004826040516118f091906129ff565b90815260405190819003602090810190912080546001810182555f9182529190200180546001600160a01b0386166001600160a01b031990911617905550505050565b60408051602081019091525f80825290815b8351811015611994578184828151811061196157611961612837565b602002602001015160405160200161197a929190612ad8565b60408051601f198184030181529190529150600101611945565b50805160209091012092915050565b336119f05760405162461bcd60e51b815260206004820152601d60248201527f73746f726546696c65486173683a20496e76616c69642073656e646572000000604482015260640161040f565b81611a3d5760405162461bcd60e51b815260206004820181905260248201527f73746f726546696c65486173683a20496e76616c6964205f66696c6548617368604482015260640161040f565b5f815111611a8d5760405162461bcd60e51b815260206004820152601e60248201527f73746f726546696c65486173683a20496e76616c6964205f66696c6549640000604482015260640161040f565b81600282604051611a9e91906129ff565b908152604051908190036020019020555050565b60408051606081810190925260218082523315159190612bb6602083013990611aee5760405162461bcd60e51b815260040161040f9190612825565b50335f90815260086020908152604080832080548251818502810185019093528083529193909284015b82821015611dbd578382905f5260205f209060080201604051806101000160405290815f82018054611b499061288a565b80601f0160208091040260200160405190810160405280929190818152602001828054611b759061288a565b8015611bc05780601f10611b9757610100808354040283529160200191611bc0565b820191905f5260205f20905b815481529060010190602001808311611ba357829003601f168201915b50505050508152602001600182018054611bd99061288a565b80601f0160208091040260200160405190810160405280929190818152602001828054611c059061288a565b8015611c505780601f10611c2757610100808354040283529160200191611c50565b820191905f5260205f20905b815481529060010190602001808311611c3357829003601f168201915b50505050508152602001600282018054611c699061288a565b80601f0160208091040260200160405190810160405280929190818152602001828054611c959061288a565b8015611ce05780601f10611cb757610100808354040283529160200191611ce0565b820191905f5260205f20905b815481529060010190602001808311611cc357829003601f168201915b505050918352505060038201546020820152600482015460408201526005820154606082015260068201546001600160a01b0316608082015260078201805460a090920191611d2e9061288a565b80601f0160208091040260200160405190810160405280929190818152602001828054611d5a9061288a565b8015611da55780601f10611d7c57610100808354040283529160200191611da5565b820191905f5260205f20905b815481529060010190602001808311611d8857829003601f168201915b50505050508152505081526020019060010190611b18565b50505050905090565b5f81604051602001611dd891906129ff565b6040516020818303038152906040528051906020012083604051602001611dff91906129ff565b6040516020818303038152906040528051906020012014905092915050565b5f600282604051611e2f91906129ff565b9081526020016040518091039020548314905092915050565b5f815111611ea35760405162461bcd60e51b815260206004820152602260248201527f64656c6574654368756e6b496e4e6f64653a20496e76616c6964205f66696c65604482015261125960f21b606482015260840161040f565b600481604051611eb391906129ff565b90815260200160405180910390205f6111f491906120e0565b5f815111611f1c5760405162461bcd60e51b815260206004820152601f60248201527f64656c65746546696c65486173683a20496e76616c6964205f66696c65496400604482015260640161040f565b5f801b600282604051611f2f91906129ff565b90815260200160405180910390205403611f975760405162461bcd60e51b8152602060048201526024808201527f64656c65746546696c65486173683a20496e76616c69642066696c654964546f604482015263090c2e6d60e31b606482015260840161040f565b600281604051611fa791906129ff565b90815260200160405180910390205f905550565b6060600580548060200260200160405190810160405280929190818152602001828054801561201157602002820191905f5260205f20905b81546001600160a01b03168152600190910190602001808311611ff3575b5050505050905090565b61202361219f565b506001600160a01b039081165f908152600360209081526040918290208251808401909352805490931682526001909201549181019190915290565b6111f4816120c1565b5f805b82518110156120b857836001600160a01b031683828151811061209057612090612837565b60200260200101516001600160a01b0316036120b05760019150506109d3565b60010161206b565b505f9392505050565b5f6a636f6e736f6c652e6c6f6790505f80835160208501845afa505050565b5080545f8255905f5260205f20908101906111f491906121b5565b604051806040016040528061210e61211b565b8152602001606081525090565b6040518061010001604052806060815260200160608152602001606081526020015f80191681526020015f81526020015f81526020015f6001600160a01b03168152602001606081525090565b5080546121749061288a565b5f825580601f10612183575050565b601f0160209004905f5260205f20908101906111f491906121b5565b604080518082019091525f808252602082015290565b5b808211156121c9575f81556001016121b6565b5090565b80356001600160a01b03811681146121e3575f80fd5b919050565b5f80604083850312156121f9575f80fd5b612202836121cd565b946020939093013593505050565b5f60208284031215612220575f80fd5b6109f3826121cd565b634e487b7160e01b5f52604160045260245ffd5b604051601f8201601f191681016001600160401b038111828210171561226557612265612229565b604052919050565b5f82601f83011261227c575f80fd5b81356001600160401b0381111561229557612295612229565b6122a8601f8201601f191660200161223d565b8181528460208386010111156122bc575f80fd5b816020850160208301375f918101602001919091529392505050565b5f805f805f8060c087890312156122ed575f80fd5b86356001600160401b0380821115612303575f80fd5b61230f8a838b0161226d565b97506020890135915080821115612324575f80fd5b6123308a838b0161226d565b965060408901359550606089013591508082111561234c575f80fd5b6123588a838b0161226d565b9450608089013591508082111561236d575f80fd5b5061237a89828a0161226d565b92505060a087013590509295509295509295565b5f806040838503121561239f575f80fd5b82356001600160401b038111156123b4575f80fd5b6123c08582860161226d565b95602094909401359450505050565b6001600160a01b0391909116815260200190565b5f82601f8301126123f2575f80fd5b813560206001600160401b038083111561240e5761240e612229565b8260051b61241d83820161223d565b9384528581018301938381019088861115612436575f80fd5b84880192505b8583101561247057823584811115612452575f80fd5b6124608a87838c010161226d565b835250918401919084019061243c565b98975050505050505050565b5f805f805f8060c08789031215612491575f80fd5b86356001600160401b03808211156124a7575f80fd5b6124b38a838b016123e3565b975060208901359150808211156124c8575f80fd5b6124d48a838b0161226d565b965060408901359150808211156124e9575f80fd5b6124f58a838b0161226d565b9550606089013591508082111561234c575f80fd5b5f6020828403121561251a575f80fd5b81356001600160401b0381111561252f575f80fd5b61253b8482850161226d565b949350505050565b5f5b8381101561255d578181015183820152602001612545565b50505f910152565b5f815180845261257c816020860160208601612543565b601f01601f19169290920160200192915050565b5f61010082518185526125a582860182612565565b915050602083015184820360208601526125bf8282612565565b915050604083015184820360408601526125d98282612565565b915050606083015160608501526080830151608085015260a083015160a085015260c083015161261460c08601826001600160a01b03169052565b5060e083015184820360e086015261262c8282612565565b95945050505050565b5f815180845260208085019450602084015f5b8381101561266d5781516001600160a01b031687529582019590820190600101612648565b509495945050505050565b602081525f8251604060208401526126936060840182612590565b90506020840151601f1984830301604085015261262c8282612635565b5f60208083016020845280855180835260408601915060408160051b8701019250602087015f5b8281101561270557603f198886030184526126f3858351612590565b945092850192908501906001016126d7565b5092979650505050505050565b5f8060408385031215612723575f80fd5b8235915060208301356001600160401b0381111561273f575f80fd5b61274b8582860161226d565b9150509250929050565b602081525f6109f36020830184612635565b5f805f806080858703121561277a575f80fd5b612783856121cd565b935060208501356001600160401b038082111561279e575f80fd5b6127aa8883890161226d565b945060408701359150808211156127bf575f80fd5b506127cc8782880161226d565b949793965093946060013593505050565b5f602082840312156127ed575f80fd5b81356001600160401b03811115612802575f80fd5b61253b848285016123e3565b5f6020828403121561281e575f80fd5b5035919050565b602081525f6109f36020830184612565565b634e487b7160e01b5f52603260045260245ffd5b634e487b7160e01b5f52601160045260245ffd5b5f600182016128705761287061284b565b5060010190565b818103818111156109d3576109d361284b565b600181811c9082168061289e57607f821691505b6020821081036128bc57634e487b7160e01b5f52602260045260245ffd5b50919050565b601f82111561165a57805f5260205f20601f840160051c810160208510156128e75750805b601f840160051c820191505b81811015612906575f81556001016128f3565b5050505050565b81516001600160401b0381111561292657612926612229565b61293a81612934845461288a565b846128c2565b602080601f83116001811461296d575f84156129565750858301515b5f19600386901b1c1916600185901b1785556104e4565b5f85815260208120601f198616915b8281101561299b5788860151825594840194600190910190840161297c565b50858210156129b857878501515f19600388901b60f8161c191681555b5050505050600190811b01905550565b634e487b7160e01b5f52603160045260245ffd5b6001600160a01b03831681526040602082018190525f9061253b90830184612565565b5f8251612a10818460208701612543565b9190910192915050565b60e081525f612a2c60e083018a612565565b8281036020840152612a3e818a612565565b90508281036040840152612a528189612565565b60608401979097525050608081019390935260a08301919091526001600160a01b031660c0909101529392505050565b606081525f612a946060830186612565565b60208301949094525060400152919050565b5f82612ac057634e487b7160e01b5f52601260045260245ffd5b500690565b808201808211156109d3576109d361284b565b5f8351612ae9818460208801612543565b835190830190612afd818360208801612543565b0194935050505056fe73746f726546696c654d657461646174613a20496e76616c6964205f66696c6553697a6573746f726546696c654d657461646174613a20496e76616c6964205f66696c65547970655f91b0afd2c6ef8da92137ba907bccdc85ec4856a15ad39de3e0eff02be6d70e73746f726546696c653a204e6f20617661696c61626c65206e6f64657320666f756e6473746f726546696c654d657461646174613a20496e76616c6964205f756e69717565496473746f726546696c654d657461646174613a20496e76616c69642073656e646572726574726965766546696c6544657461696c733a2046696c65204e6f7420466f756e64726574726965766546696c6544657461696c733a20556e617574686f72697a65642063616c6c6572206164647265737373746f726546696c654d657461646174613a20496e76616c6964205f66696c654e616d6573746f726546696c654d657461646174613a20496e76616c6964205f66696c6548617368a264697066735822122086942d56e25fcff4568a76d4b50324c03239d0ed7d14c88c09b5d96ea150561e64736f6c63430008160033726574726965766546696c6544657461696c733a2046696c65204e6f7420466f756e64a26469706673582212201a4b5a25439200583e68ea2e9e16b2eac942abbf57e7943ffe422a62e6d45c6764736f6c63430008160033",
			"opcodes": "PUSH1 0x80 PUSH1 0x40 MSTORE CALLVALUE DUP1 ISZERO PUSH2 0xF JUMPI PUSH0 DUP1 REVERT JUMPDEST POP PUSH2 0x5CB9 DUP1 PUSH2 0x1D PUSH0 CODECOPY PUSH0 RETURN INVALID PUSH1 0x80 PUSH1 0x40 MSTORE CALLVALUE DUP1 ISZERO PUSH2 0xF JUMPI PUSH0 DUP1 REVERT JUMPDEST POP PUSH1 0x4 CALLDATASIZE LT PUSH2 0x34 JUMPI PUSH0 CALLDATALOAD PUSH1 0xE0 SHR DUP1 PUSH4 0x49CCF431 EQ PUSH2 0x38 JUMPI DUP1 PUSH4 0x7FEA0D4B EQ PUSH2 0x42 JUMPI JUMPDEST PUSH0 DUP1 REVERT JUMPDEST PUSH2 0x40 PUSH2 0x4A JUMP JUMPDEST STOP JUMPDEST PUSH2 0x40 PUSH2 0x26C JUMP JUMPDEST PUSH1 0x40 DUP1 MLOAD DUP1 DUP3 ADD DUP3 MSTORE PUSH1 0xF DUP2 MSTORE PUSH15 0x6E6F6E4578697374696E6746696C65 PUSH1 0x88 SHL PUSH1 0x20 DUP3 ADD MSTORE PUSH0 DUP1 SLOAD SWAP3 MLOAD PUSH4 0x2C1E57CB PUSH1 0xE1 SHL DUP2 MSTORE SWAP2 SWAP3 SWAP1 SWAP2 PUSH1 0x1 PUSH1 0x1 PUSH1 0xA0 SHL SUB SWAP1 SWAP2 AND SWAP1 PUSH4 0x583CAF96 SWAP1 PUSH2 0xA2 SWAP1 DUP6 SWAP1 PUSH1 0x4 ADD PUSH2 0x360 JUMP JUMPDEST PUSH0 PUSH1 0x40 MLOAD DUP1 DUP4 SUB DUP2 DUP7 GAS STATICCALL SWAP3 POP POP POP DUP1 ISZERO PUSH2 0xDE JUMPI POP PUSH1 0x40 MLOAD RETURNDATASIZE PUSH0 DUP3 RETURNDATACOPY PUSH1 0x1F RETURNDATASIZE SWAP1 DUP2 ADD PUSH1 0x1F NOT AND DUP3 ADD PUSH1 0x40 MSTORE PUSH2 0xDB SWAP2 SWAP1 DUP2 ADD SWAP1 PUSH2 0x512 JUMP JUMPDEST PUSH1 0x1 JUMPDEST PUSH2 0x1AA JUMPI PUSH2 0xEA PUSH2 0x663 JUMP JUMPDEST DUP1 PUSH4 0x8C379A0 SUB PUSH2 0x1A0 JUMPI POP PUSH2 0xFE PUSH2 0x67C JUMP JUMPDEST DUP1 PUSH2 0x109 JUMPI POP PUSH2 0x1A2 JUMP JUMPDEST PUSH20 0x0 PUSH4 0xE8C2CB16 DUP3 PUSH1 0x40 MLOAD DUP1 PUSH1 0x60 ADD PUSH1 0x40 MSTORE DUP1 PUSH1 0x23 DUP2 MSTORE PUSH1 0x20 ADD PUSH2 0x5C61 PUSH1 0x23 SWAP2 CODECOPY PUSH1 0x40 MLOAD DUP4 PUSH4 0xFFFFFFFF AND PUSH1 0xE0 SHL DUP2 MSTORE PUSH1 0x4 ADD PUSH2 0x15A SWAP3 SWAP2 SWAP1 PUSH2 0x704 JUMP JUMPDEST PUSH1 0x20 PUSH1 0x40 MLOAD DUP1 DUP4 SUB DUP2 DUP7 GAS DELEGATECALL ISZERO DUP1 ISZERO PUSH2 0x175 JUMPI RETURNDATASIZE PUSH0 DUP1 RETURNDATACOPY RETURNDATASIZE PUSH0 REVERT JUMPDEST POP POP POP POP PUSH1 0x40 MLOAD RETURNDATASIZE PUSH1 0x1F NOT PUSH1 0x1F DUP3 ADD AND DUP3 ADD DUP1 PUSH1 0x40 MSTORE POP DUP2 ADD SWAP1 PUSH2 0x199 SWAP2 SWAP1 PUSH2 0x77F JUMP JUMPDEST POP POP PUSH2 0x1B0 JUMP JUMPDEST POP JUMPDEST RETURNDATASIZE PUSH0 DUP1 RETURNDATACOPY RETURNDATASIZE PUSH0 REVERT JUMPDEST POP PUSH1 0x1 SWAP1 POP JUMPDEST PUSH1 0x40 MLOAD PUSH4 0x767392B3 PUSH1 0xE0 SHL DUP2 MSTORE DUP2 ISZERO ISZERO PUSH1 0x4 DUP3 ADD MSTORE PUSH0 PUSH1 0x24 DUP3 ADD MSTORE PUSH1 0x60 PUSH1 0x44 DUP3 ADD MSTORE PUSH1 0x21 PUSH1 0x64 DUP3 ADD MSTORE PUSH32 0x53686F756C64206661696C20666F72206E6F6E2D6578697374696E672066696C PUSH1 0x84 DUP3 ADD MSTORE PUSH1 0x65 PUSH1 0xF8 SHL PUSH1 0xA4 DUP3 ADD MSTORE PUSH20 0x0 SWAP1 PUSH4 0x767392B3 SWAP1 PUSH1 0xC4 ADD PUSH1 0x20 PUSH1 0x40 MLOAD DUP1 DUP4 SUB DUP2 DUP7 GAS DELEGATECALL ISZERO DUP1 ISZERO PUSH2 0x243 JUMPI RETURNDATASIZE PUSH0 DUP1 RETURNDATACOPY RETURNDATASIZE PUSH0 REVERT JUMPDEST POP POP POP POP PUSH1 0x40 MLOAD RETURNDATASIZE PUSH1 0x1F NOT PUSH1 0x1F DUP3 ADD AND DUP3 ADD DUP1 PUSH1 0x40 MSTORE POP DUP2 ADD SWAP1 PUSH2 0x267 SWAP2 SWAP1 PUSH2 0x77F JUMP JUMPDEST POP POP POP JUMP JUMPDEST PUSH1 0x40 MLOAD PUSH2 0x278 SWAP1 PUSH2 0x2F9 JUMP JUMPDEST PUSH1 0x40 MLOAD DUP1 SWAP2 SUB SWAP1 PUSH0 CREATE DUP1 ISZERO DUP1 ISZERO PUSH2 0x291 JUMPI RETURNDATASIZE PUSH0 DUP1 RETURNDATACOPY RETURNDATASIZE PUSH0 REVERT JUMPDEST POP PUSH0 DUP1 SLOAD PUSH1 0x1 PUSH1 0x1 PUSH1 0xA0 SHL SUB NOT AND PUSH1 0x1 PUSH1 0x1 PUSH1 0xA0 SHL SUB SWAP3 SWAP1 SWAP3 AND SWAP2 SWAP1 SWAP2 OR SWAP1 SSTORE PUSH1 0x40 MLOAD PUSH2 0x2BD SWAP1 PUSH2 0x306 JUMP JUMPDEST PUSH1 0x40 MLOAD DUP1 SWAP2 SUB SWAP1 PUSH0 CREATE DUP1 ISZERO DUP1 ISZERO PUSH2 0x2D6 JUMPI RETURNDATASIZE PUSH0 DUP1 RETURNDATACOPY RETURNDATASIZE PUSH0 REVERT JUMPDEST POP PUSH1 0x1 DUP1 SLOAD PUSH1 0x1 PUSH1 0x1 PUSH1 0xA0 SHL SUB NOT AND PUSH1 0x1 PUSH1 0x1 PUSH1 0xA0 SHL SUB SWAP3 SWAP1 SWAP3 AND SWAP2 SWAP1 SWAP2 OR SWAP1 SSTORE JUMP JUMPDEST PUSH2 0x27E3 DUP1 PUSH2 0x79F DUP4 CODECOPY ADD SWAP1 JUMP JUMPDEST PUSH2 0x2CDF DUP1 PUSH2 0x2F82 DUP4 CODECOPY ADD SWAP1 JUMP JUMPDEST PUSH0 JUMPDEST DUP4 DUP2 LT ISZERO PUSH2 0x32D JUMPI DUP2 DUP2 ADD MLOAD DUP4 DUP3 ADD MSTORE PUSH1 0x20 ADD PUSH2 0x315 JUMP JUMPDEST POP POP PUSH0 SWAP2 ADD MSTORE JUMP JUMPDEST PUSH0 DUP2 MLOAD DUP1 DUP5 MSTORE PUSH2 0x34C DUP2 PUSH1 0x20 DUP7 ADD PUSH1 0x20 DUP7 ADD PUSH2 0x313 JUMP JUMPDEST PUSH1 0x1F ADD PUSH1 0x1F NOT AND SWAP3 SWAP1 SWAP3 ADD PUSH1 0x20 ADD SWAP3 SWAP2 POP POP JUMP JUMPDEST PUSH1 0x20 DUP2 MSTORE PUSH0 PUSH2 0x372 PUSH1 0x20 DUP4 ADD DUP5 PUSH2 0x335 JUMP JUMPDEST SWAP4 SWAP3 POP POP POP JUMP JUMPDEST PUSH4 0x4E487B71 PUSH1 0xE0 SHL PUSH0 MSTORE PUSH1 0x41 PUSH1 0x4 MSTORE PUSH1 0x24 PUSH0 REVERT JUMPDEST PUSH1 0x40 DUP2 ADD PUSH1 0x1 PUSH1 0x1 PUSH1 0x40 SHL SUB DUP2 GT DUP3 DUP3 LT OR ISZERO PUSH2 0x3AC JUMPI PUSH2 0x3AC PUSH2 0x379 JUMP JUMPDEST PUSH1 0x40 MSTORE POP JUMP JUMPDEST PUSH1 0x1F DUP3 ADD PUSH1 0x1F NOT AND DUP2 ADD PUSH1 0x1 PUSH1 0x1 PUSH1 0x40 SHL SUB DUP2 GT DUP3 DUP3 LT OR ISZERO PUSH2 0x3D7 JUMPI PUSH2 0x3D7 PUSH2 0x379 JUMP JUMPDEST PUSH1 0x40 MSTORE POP POP JUMP JUMPDEST PUSH1 0x40 MLOAD PUSH2 0x100 DUP2 ADD PUSH1 0x1 PUSH1 0x1 PUSH1 0x40 SHL SUB DUP2 GT DUP3 DUP3 LT OR ISZERO PUSH2 0x401 JUMPI PUSH2 0x401 PUSH2 0x379 JUMP JUMPDEST PUSH1 0x40 MSTORE SWAP1 JUMP JUMPDEST PUSH0 DUP3 PUSH1 0x1F DUP4 ADD SLT PUSH2 0x416 JUMPI PUSH0 DUP1 REVERT JUMPDEST DUP2 MLOAD PUSH1 0x1 PUSH1 0x1 PUSH1 0x40 SHL SUB DUP2 GT ISZERO PUSH2 0x42F JUMPI PUSH2 0x42F PUSH2 0x379 JUMP JUMPDEST PUSH1 0x40 MLOAD PUSH2 0x446 PUSH1 0x1F DUP4 ADD PUSH1 0x1F NOT AND PUSH1 0x20 ADD DUP3 PUSH2 0x3B2 JUMP JUMPDEST DUP2 DUP2 MSTORE DUP5 PUSH1 0x20 DUP4 DUP7 ADD ADD GT ISZERO PUSH2 0x45A JUMPI PUSH0 DUP1 REVERT JUMPDEST PUSH2 0x46B DUP3 PUSH1 0x20 DUP4 ADD PUSH1 0x20 DUP8 ADD PUSH2 0x313 JUMP JUMPDEST SWAP5 SWAP4 POP POP POP POP JUMP JUMPDEST DUP1 MLOAD PUSH1 0x1 PUSH1 0x1 PUSH1 0xA0 SHL SUB DUP2 AND DUP2 EQ PUSH2 0x489 JUMPI PUSH0 DUP1 REVERT JUMPDEST SWAP2 SWAP1 POP JUMP JUMPDEST PUSH0 DUP3 PUSH1 0x1F DUP4 ADD SLT PUSH2 0x49D JUMPI PUSH0 DUP1 REVERT JUMPDEST DUP2 MLOAD PUSH1 0x20 PUSH1 0x1 PUSH1 0x1 PUSH1 0x40 SHL SUB DUP3 GT ISZERO PUSH2 0x4B8 JUMPI PUSH2 0x4B8 PUSH2 0x379 JUMP JUMPDEST DUP2 PUSH1 0x5 SHL PUSH1 0x40 MLOAD PUSH2 0x4CB DUP4 DUP4 ADD DUP3 PUSH2 0x3B2 JUMP JUMPDEST SWAP3 DUP4 MSTORE DUP5 DUP2 ADD DUP3 ADD SWAP3 DUP3 DUP2 ADD DUP8 DUP6 GT ISZERO PUSH2 0x4E3 JUMPI PUSH0 DUP1 REVERT JUMPDEST DUP4 DUP8 ADD SWAP3 POP JUMPDEST DUP5 DUP4 LT ISZERO PUSH2 0x507 JUMPI PUSH2 0x4FA DUP4 PUSH2 0x473 JUMP JUMPDEST DUP2 MSTORE SWAP2 DUP4 ADD SWAP2 DUP4 ADD PUSH2 0x4E9 JUMP JUMPDEST POP SWAP7 SWAP6 POP POP POP POP POP POP JUMP JUMPDEST PUSH0 PUSH1 0x20 DUP3 DUP5 SUB SLT ISZERO PUSH2 0x522 JUMPI PUSH0 DUP1 REVERT JUMPDEST DUP2 MLOAD PUSH1 0x1 PUSH1 0x1 PUSH1 0x40 SHL SUB DUP1 DUP3 GT ISZERO PUSH2 0x538 JUMPI PUSH0 DUP1 REVERT JUMPDEST SWAP1 DUP4 ADD SWAP1 PUSH1 0x40 DUP3 DUP7 SUB SLT ISZERO PUSH2 0x54B JUMPI PUSH0 DUP1 REVERT JUMPDEST PUSH1 0x40 MLOAD PUSH2 0x557 DUP2 PUSH2 0x38D JUMP JUMPDEST DUP3 MLOAD DUP3 DUP2 GT ISZERO PUSH2 0x565 JUMPI PUSH0 DUP1 REVERT JUMPDEST DUP4 ADD PUSH2 0x100 DUP2 DUP9 SUB SLT ISZERO PUSH2 0x577 JUMPI PUSH0 DUP1 REVERT JUMPDEST PUSH2 0x57F PUSH2 0x3DE JUMP JUMPDEST DUP2 MLOAD DUP5 DUP2 GT ISZERO PUSH2 0x58D JUMPI PUSH0 DUP1 REVERT JUMPDEST PUSH2 0x599 DUP10 DUP3 DUP6 ADD PUSH2 0x407 JUMP JUMPDEST DUP3 MSTORE POP PUSH1 0x20 DUP3 ADD MLOAD DUP5 DUP2 GT ISZERO PUSH2 0x5AD JUMPI PUSH0 DUP1 REVERT JUMPDEST PUSH2 0x5B9 DUP10 DUP3 DUP6 ADD PUSH2 0x407 JUMP JUMPDEST PUSH1 0x20 DUP4 ADD MSTORE POP PUSH1 0x40 DUP3 ADD MLOAD DUP5 DUP2 GT ISZERO PUSH2 0x5D0 JUMPI PUSH0 DUP1 REVERT JUMPDEST PUSH2 0x5DC DUP10 DUP3 DUP6 ADD PUSH2 0x407 JUMP JUMPDEST PUSH1 0x40 DUP4 ADD MSTORE POP PUSH1 0x60 DUP3 ADD MLOAD PUSH1 0x60 DUP3 ADD MSTORE PUSH1 0x80 DUP3 ADD MLOAD PUSH1 0x80 DUP3 ADD MSTORE PUSH1 0xA0 DUP3 ADD MLOAD PUSH1 0xA0 DUP3 ADD MSTORE PUSH2 0x60C PUSH1 0xC0 DUP4 ADD PUSH2 0x473 JUMP JUMPDEST PUSH1 0xC0 DUP3 ADD MSTORE PUSH1 0xE0 DUP3 ADD MLOAD DUP5 DUP2 GT ISZERO PUSH2 0x622 JUMPI PUSH0 DUP1 REVERT JUMPDEST PUSH2 0x62E DUP10 DUP3 DUP6 ADD PUSH2 0x407 JUMP JUMPDEST PUSH1 0xE0 DUP4 ADD MSTORE POP DUP3 MSTORE POP PUSH1 0x20 DUP4 ADD MLOAD DUP3 DUP2 GT ISZERO PUSH2 0x648 JUMPI PUSH0 DUP1 REVERT JUMPDEST PUSH2 0x654 DUP8 DUP3 DUP7 ADD PUSH2 0x48E JUMP JUMPDEST PUSH1 0x20 DUP4 ADD MSTORE POP SWAP6 SWAP5 POP POP POP POP POP JUMP JUMPDEST PUSH0 PUSH1 0x3 RETURNDATASIZE GT ISZERO PUSH2 0x679 JUMPI PUSH1 0x4 PUSH0 DUP1 RETURNDATACOPY POP PUSH0 MLOAD PUSH1 0xE0 SHR JUMPDEST SWAP1 JUMP JUMPDEST PUSH0 PUSH1 0x44 RETURNDATASIZE LT ISZERO PUSH2 0x689 JUMPI SWAP1 JUMP JUMPDEST PUSH1 0x40 MLOAD PUSH1 0x3 NOT RETURNDATASIZE DUP2 ADD PUSH1 0x4 DUP4 RETURNDATACOPY DUP2 MLOAD RETURNDATASIZE PUSH1 0x1 PUSH1 0x1 PUSH1 0x40 SHL SUB DUP1 DUP4 GT PUSH1 0x24 DUP5 ADD DUP4 LT OR ISZERO PUSH2 0x6B8 JUMPI POP POP POP POP POP SWAP1 JUMP JUMPDEST DUP3 DUP6 ADD SWAP2 POP DUP2 MLOAD DUP2 DUP2 GT ISZERO PUSH2 0x6D0 JUMPI POP POP POP POP POP POP SWAP1 JUMP JUMPDEST DUP5 RETURNDATASIZE DUP8 ADD ADD PUSH1 0x20 DUP3 DUP6 ADD ADD GT ISZERO PUSH2 0x6EA JUMPI POP POP POP POP POP POP SWAP1 JUMP JUMPDEST PUSH2 0x6F9 PUSH1 0x20 DUP3 DUP7 ADD ADD DUP8 PUSH2 0x3B2 JUMP JUMPDEST POP SWAP1 SWAP6 SWAP5 POP POP POP POP POP JUMP JUMPDEST PUSH1 0x60 DUP2 MSTORE PUSH0 PUSH2 0x716 PUSH1 0x60 DUP4 ADD DUP6 PUSH2 0x335 JUMP JUMPDEST DUP3 DUP2 SUB PUSH1 0x20 DUP5 ADD MSTORE PUSH2 0x728 DUP2 DUP6 PUSH2 0x335 JUMP JUMPDEST DUP4 DUP2 SUB PUSH1 0x40 SWAP5 DUP6 ADD MSTORE PUSH1 0x2E DUP2 MSTORE PUSH32 0x556E6578706563746564206572726F72206D65737361676520666F72206E6F6E PUSH1 0x20 DUP3 ADD MSTORE PUSH14 0x2D6578697374696E672066696C65 PUSH1 0x90 SHL SWAP4 DUP2 ADD SWAP4 SWAP1 SWAP4 MSTORE POP POP PUSH1 0x60 ADD SWAP3 SWAP2 POP POP JUMP JUMPDEST PUSH0 PUSH1 0x20 DUP3 DUP5 SUB SLT ISZERO PUSH2 0x78F JUMPI PUSH0 DUP1 REVERT JUMPDEST DUP2 MLOAD DUP1 ISZERO ISZERO DUP2 EQ PUSH2 0x372 JUMPI PUSH0 DUP1 REVERT INVALID PUSH1 0x80 PUSH1 0x40 MSTORE PUSH1 0x3 PUSH0 SSTORE PUSH1 0x64 PUSH1 0x1 SSTORE CALLVALUE DUP1 ISZERO PUSH2 0x18 JUMPI PUSH0 DUP1 REVERT JUMPDEST POP PUSH1 0x6 DUP1 SLOAD PUSH1 0x1 PUSH1 0x1 PUSH1 0xA0 SHL SUB NOT AND CALLER OR SWAP1 SSTORE PUSH2 0x27AB DUP1 PUSH2 0x38 PUSH0 CODECOPY PUSH0 RETURN INVALID PUSH1 0x80 PUSH1 0x40 MSTORE CALLVALUE DUP1 ISZERO PUSH2 0xF JUMPI PUSH0 DUP1 REVERT JUMPDEST POP PUSH1 0x4 CALLDATASIZE LT PUSH2 0x97 JUMPI PUSH0 CALLDATALOAD PUSH1 0xE0 SHR DUP1 PUSH4 0x11BD77FE EQ PUSH2 0x9B JUMPI DUP1 PUSH4 0x189A5A17 EQ PUSH2 0xB0 JUMPI DUP1 PUSH4 0x30E00C9B EQ PUSH2 0x106 JUMPI DUP1 PUSH4 0x528AECCE EQ PUSH2 0x126 JUMPI DUP1 PUSH4 0x583CAF96 EQ PUSH2 0x139 JUMPI DUP1 PUSH4 0x5FFD7C06 EQ PUSH2 0x159 JUMPI DUP1 PUSH4 0x8DA5CB5B EQ PUSH2 0x16F JUMPI DUP1 PUSH4 0xA9910054 EQ PUSH2 0x182 JUMPI DUP1 PUSH4 0xB23793D6 EQ PUSH2 0x195 JUMPI DUP1 PUSH4 0xCF86BF93 EQ PUSH2 0x1B5 JUMPI DUP1 PUSH4 0xFE72AE13 EQ PUSH2 0x1BE JUMPI JUMPDEST PUSH0 DUP1 REVERT JUMPDEST PUSH2 0xAE PUSH2 0xA9 CALLDATASIZE PUSH1 0x4 PUSH2 0x1E9A JUMP JUMPDEST PUSH2 0x1D1 JUMP JUMPDEST STOP JUMPDEST PUSH2 0xE2 PUSH2 0xBE CALLDATASIZE PUSH1 0x4 PUSH2 0x1EC2 JUMP JUMPDEST PUSH1 0x3 PUSH1 0x20 MSTORE PUSH0 SWAP1 DUP2 MSTORE PUSH1 0x40 SWAP1 KECCAK256 DUP1 SLOAD PUSH1 0x1 SWAP1 SWAP2 ADD SLOAD PUSH1 0x1 PUSH1 0x1 PUSH1 0xA0 SHL SUB SWAP1 SWAP2 AND SWAP1 DUP3 JUMP JUMPDEST PUSH1 0x40 DUP1 MLOAD PUSH1 0x1 PUSH1 0x1 PUSH1 0xA0 SHL SUB SWAP1 SWAP4 AND DUP4 MSTORE PUSH1 0x20 DUP4 ADD SWAP2 SWAP1 SWAP2 MSTORE ADD JUMPDEST PUSH1 0x40 MLOAD DUP1 SWAP2 SUB SWAP1 RETURN JUMPDEST PUSH2 0x119 PUSH2 0x114 CALLDATASIZE PUSH1 0x4 PUSH2 0x1F91 JUMP JUMPDEST PUSH2 0x317 JUMP JUMPDEST PUSH1 0x40 MLOAD PUSH2 0xFD SWAP2 SWAP1 PUSH2 0x1FD2 JUMP JUMPDEST PUSH2 0xAE PUSH2 0x134 CALLDATASIZE PUSH1 0x4 PUSH2 0x207F JUMP JUMPDEST PUSH2 0x35C JUMP JUMPDEST PUSH2 0x14C PUSH2 0x147 CALLDATASIZE PUSH1 0x4 PUSH2 0x214F JUMP JUMPDEST PUSH2 0x63C JUMP JUMPDEST PUSH1 0x40 MLOAD PUSH2 0xFD SWAP2 SWAP1 PUSH2 0x2218 JUMP JUMPDEST PUSH2 0x161 PUSH0 SLOAD DUP2 JUMP JUMPDEST PUSH1 0x40 MLOAD SWAP1 DUP2 MSTORE PUSH1 0x20 ADD PUSH2 0xFD JUMP JUMPDEST PUSH1 0x6 SLOAD PUSH2 0x119 SWAP1 PUSH1 0x1 PUSH1 0x1 PUSH1 0xA0 SHL SUB AND DUP2 JUMP JUMPDEST PUSH2 0xAE PUSH2 0x190 CALLDATASIZE PUSH1 0x4 PUSH2 0x214F JUMP JUMPDEST PUSH2 0x7EA JUMP JUMPDEST PUSH2 0x1A8 PUSH2 0x1A3 CALLDATASIZE PUSH1 0x4 PUSH2 0x214F JUMP JUMPDEST PUSH2 0xE8F JUMP JUMPDEST PUSH1 0x40 MLOAD PUSH2 0xFD SWAP2 SWAP1 PUSH2 0x22FC JUMP JUMPDEST PUSH2 0x161 PUSH1 0x1 SLOAD DUP2 JUMP JUMPDEST PUSH2 0x119 PUSH2 0x1CC CALLDATASIZE PUSH1 0x4 PUSH2 0x230E JUMP JUMPDEST PUSH2 0xFAA JUMP JUMPDEST PUSH1 0x1 PUSH1 0x1 PUSH1 0xA0 SHL SUB DUP3 DUP2 AND PUSH0 SWAP1 DUP2 MSTORE PUSH1 0x3 PUSH1 0x20 MSTORE PUSH1 0x40 SWAP1 KECCAK256 SLOAD AND ISZERO PUSH2 0x259 JUMPI PUSH1 0x40 MLOAD PUSH3 0x461BCD PUSH1 0xE5 SHL DUP2 MSTORE PUSH1 0x20 PUSH1 0x4 DUP3 ADD MSTORE PUSH1 0x33 PUSH1 0x24 DUP3 ADD MSTORE PUSH32 0x6164644E6F64653A20496E76616C6964205F6E6F646541646472657373202D20 PUSH1 0x44 DUP3 ADD MSTORE PUSH19 0x4E6F646520416C726561647920657869737473 PUSH1 0x68 SHL PUSH1 0x64 DUP3 ADD MSTORE PUSH1 0x84 ADD JUMPDEST PUSH1 0x40 MLOAD DUP1 SWAP2 SUB SWAP1 REVERT JUMPDEST PUSH1 0x40 DUP1 MLOAD DUP1 DUP3 ADD DUP3 MSTORE PUSH1 0x1 PUSH1 0x1 PUSH1 0xA0 SHL SUB DUP5 DUP2 AND DUP1 DUP4 MSTORE PUSH1 0x20 DUP1 DUP5 ADD DUP7 DUP2 MSTORE PUSH0 SWAP3 DUP4 MSTORE PUSH1 0x3 SWAP1 SWAP2 MSTORE SWAP1 DUP5 SWAP1 KECCAK256 SWAP3 MLOAD DUP4 SLOAD PUSH1 0x1 PUSH1 0x1 PUSH1 0xA0 SHL SUB NOT AND SWAP3 AND SWAP2 SWAP1 SWAP2 OR DUP3 SSTORE MLOAD PUSH1 0x1 SWAP1 SWAP2 ADD SSTORE MLOAD PUSH0 DUP1 MLOAD PUSH1 0x20 PUSH2 0x2653 DUP4 CODECOPY DUP2 MLOAD SWAP2 MSTORE SWAP1 PUSH2 0x2BD SWAP1 DUP5 SWAP1 PUSH2 0x1FD2 JUMP JUMPDEST PUSH1 0x40 MLOAD DUP1 SWAP2 SUB SWAP1 LOG1 POP PUSH1 0x5 DUP1 SLOAD PUSH1 0x1 DUP2 ADD DUP3 SSTORE PUSH0 SWAP2 SWAP1 SWAP2 MSTORE PUSH32 0x36B6384B5ECA791C62761152D0C79BB0604C104A5FB6F4EB0703F3154BB3DB0 ADD DUP1 SLOAD PUSH1 0x1 PUSH1 0x1 PUSH1 0xA0 SHL SUB NOT AND PUSH1 0x1 PUSH1 0x1 PUSH1 0xA0 SHL SUB SWAP3 SWAP1 SWAP3 AND SWAP2 SWAP1 SWAP2 OR SWAP1 SSTORE JUMP JUMPDEST DUP2 MLOAD PUSH1 0x20 DUP2 DUP5 ADD DUP2 ADD DUP1 MLOAD PUSH1 0x4 DUP3 MSTORE SWAP3 DUP3 ADD SWAP2 DUP6 ADD SWAP2 SWAP1 SWAP2 KECCAK256 SWAP2 SWAP1 MSTORE DUP1 SLOAD DUP3 SWAP1 DUP2 LT PUSH2 0x341 JUMPI PUSH0 DUP1 REVERT JUMPDEST PUSH0 SWAP2 DUP3 MSTORE PUSH1 0x20 SWAP1 SWAP2 KECCAK256 ADD SLOAD PUSH1 0x1 PUSH1 0x1 PUSH1 0xA0 SHL SUB AND SWAP2 POP DUP3 SWAP1 POP JUMP JUMPDEST PUSH1 0x5 SLOAD PUSH1 0x40 DUP1 MLOAD PUSH1 0x60 DUP2 ADD SWAP1 SWAP2 MSTORE PUSH1 0x23 DUP1 DUP3 MSTORE SWAP2 ISZERO ISZERO SWAP2 PUSH2 0x2673 PUSH1 0x20 DUP4 ADD CODECOPY SWAP1 PUSH2 0x399 JUMPI PUSH1 0x40 MLOAD PUSH3 0x461BCD PUSH1 0xE5 SHL DUP2 MSTORE PUSH1 0x4 ADD PUSH2 0x250 SWAP2 SWAP1 PUSH2 0x2325 JUMP JUMPDEST POP PUSH0 PUSH2 0x3A4 DUP4 PUSH2 0xFD2 JUMP JUMPDEST EQ PUSH1 0x40 MLOAD DUP1 PUSH1 0x40 ADD PUSH1 0x40 MSTORE DUP1 PUSH1 0x1C DUP2 MSTORE PUSH1 0x20 ADD PUSH28 0x1CDD1BDC99519A5B194E88111D5C1B1A58D85D1948119A5B19481259 PUSH1 0x22 SHL DUP2 MSTORE POP SWAP1 PUSH2 0x3F8 JUMPI PUSH1 0x40 MLOAD PUSH3 0x461BCD PUSH1 0xE5 SHL DUP2 MSTORE PUSH1 0x4 ADD PUSH2 0x250 SWAP2 SWAP1 PUSH2 0x2325 JUMP JUMPDEST POP PUSH0 JUMPDEST DUP7 MLOAD DUP2 LT ISZERO PUSH2 0x603 JUMPI PUSH2 0x40F PUSH1 0x7 PUSH0 PUSH2 0x1DAC JUMP JUMPDEST PUSH0 DUP8 DUP3 DUP2 MLOAD DUP2 LT PUSH2 0x422 JUMPI PUSH2 0x422 PUSH2 0x2337 JUMP JUMPDEST PUSH1 0x20 MUL PUSH1 0x20 ADD ADD MLOAD MLOAD SWAP1 POP PUSH0 DUP1 DUP1 SLOAD SWAP1 POP PUSH1 0x3 PUSH1 0x5 DUP1 SLOAD SWAP1 POP LT ISZERO PUSH2 0x446 JUMPI POP PUSH1 0x5 SLOAD JUMPDEST PUSH2 0x47C PUSH1 0x40 MLOAD DUP1 PUSH1 0x40 ADD PUSH1 0x40 MSTORE DUP1 PUSH1 0x13 DUP2 MSTORE PUSH1 0x20 ADD PUSH19 0x111D5C1B1A58D85D1A5BDB881CDD185C9D1959 PUSH1 0x6A SHL DUP2 MSTORE POP DUP4 DUP4 PUSH2 0x1048 JUMP JUMPDEST DUP1 DUP3 LT ISZERO PUSH2 0x5F8 JUMPI PUSH0 PUSH2 0x4E7 DUP5 PUSH1 0x7 DUP1 SLOAD DUP1 PUSH1 0x20 MUL PUSH1 0x20 ADD PUSH1 0x40 MLOAD SWAP1 DUP2 ADD PUSH1 0x40 MSTORE DUP1 SWAP3 SWAP2 SWAP1 DUP2 DUP2 MSTORE PUSH1 0x20 ADD DUP3 DUP1 SLOAD DUP1 ISZERO PUSH2 0x4DD JUMPI PUSH1 0x20 MUL DUP3 ADD SWAP2 SWAP1 PUSH0 MSTORE PUSH1 0x20 PUSH0 KECCAK256 SWAP1 JUMPDEST DUP2 SLOAD PUSH1 0x1 PUSH1 0x1 PUSH1 0xA0 SHL SUB AND DUP2 MSTORE PUSH1 0x1 SWAP1 SWAP2 ADD SWAP1 PUSH1 0x20 ADD DUP1 DUP4 GT PUSH2 0x4BF JUMPI JUMPDEST POP POP POP POP POP PUSH2 0x1094 JUMP JUMPDEST SWAP1 POP PUSH0 DUP1 MLOAD PUSH1 0x20 PUSH2 0x2653 DUP4 CODECOPY DUP2 MLOAD SWAP2 MSTORE DUP2 PUSH1 0x40 MLOAD PUSH2 0x505 SWAP2 SWAP1 PUSH2 0x1FD2 JUMP JUMPDEST PUSH1 0x40 MLOAD DUP1 SWAP2 SUB SWAP1 LOG1 PUSH1 0x7 DUP1 SLOAD PUSH1 0x1 DUP2 ADD DUP3 SSTORE PUSH0 SWAP2 SWAP1 SWAP2 MSTORE PUSH32 0xA66CC928B5EDB82AF9BD49922954155AB7B0942694BEA4CE44661D9A8736C688 ADD DUP1 SLOAD PUSH1 0x1 PUSH1 0x1 PUSH1 0xA0 SHL SUB NOT AND PUSH1 0x1 PUSH1 0x1 PUSH1 0xA0 SHL SUB DUP4 AND OR SWAP1 SSTORE PUSH1 0x40 MLOAD PUSH32 0xB011A0DA2BACC57F5C2DDF79F5C8E86484A4FC528F15571A48A9D47956BC82BE SWAP1 PUSH2 0x587 SWAP1 DUP4 SWAP1 PUSH2 0x1FD2 JUMP JUMPDEST PUSH1 0x40 MLOAD DUP1 SWAP2 SUB SWAP1 LOG1 DUP3 PUSH2 0x599 DUP2 PUSH2 0x235F JUMP JUMPDEST SWAP4 POP POP PUSH2 0x5C1 DUP2 DUP13 DUP8 DUP2 MLOAD DUP2 LT PUSH2 0x5B2 JUMPI PUSH2 0x5B2 PUSH2 0x2337 JUMP JUMPDEST PUSH1 0x20 MUL PUSH1 0x20 ADD ADD MLOAD DUP10 DUP9 PUSH2 0x1210 JUMP JUMPDEST PUSH1 0x1 PUSH1 0x1 PUSH1 0xA0 SHL SUB DUP2 AND PUSH0 SWAP1 DUP2 MSTORE PUSH1 0x3 PUSH1 0x20 MSTORE PUSH1 0x40 SWAP1 KECCAK256 PUSH1 0x1 ADD SLOAD PUSH2 0x5F2 SWAP1 DUP3 SWAP1 PUSH2 0x5ED SWAP1 DUP8 SWAP1 PUSH2 0x2377 JUMP JUMPDEST PUSH2 0x1367 JUMP JUMPDEST POP PUSH2 0x47C JUMP JUMPDEST POP POP POP PUSH1 0x1 ADD PUSH2 0x3FB JUMP JUMPDEST POP PUSH2 0x60F PUSH1 0x7 PUSH0 PUSH2 0x1DAC JUMP JUMPDEST PUSH0 PUSH2 0x619 DUP8 PUSH2 0x141C JUMP JUMPDEST SWAP1 POP PUSH2 0x625 DUP2 DUP5 PUSH2 0x148C JUMP JUMPDEST PUSH2 0x633 DUP7 DUP7 DUP4 DUP8 DUP8 DUP8 PUSH2 0x159B JUMP JUMPDEST POP POP POP POP POP POP POP JUMP JUMPDEST PUSH2 0x644 PUSH2 0x1DC7 JUMP JUMPDEST PUSH0 PUSH2 0x64D PUSH2 0x1849 JUMP JUMPDEST SWAP1 POP PUSH0 JUMPDEST DUP2 MLOAD DUP2 LT ISZERO PUSH2 0x734 JUMPI PUSH2 0x680 DUP3 DUP3 DUP2 MLOAD DUP2 LT PUSH2 0x66F JUMPI PUSH2 0x66F PUSH2 0x2337 JUMP JUMPDEST PUSH1 0x20 MUL PUSH1 0x20 ADD ADD MLOAD PUSH0 ADD MLOAD DUP6 PUSH2 0x1B5D JUMP JUMPDEST ISZERO PUSH2 0x72C JUMPI DUP2 DUP2 DUP2 MLOAD DUP2 LT PUSH2 0x697 JUMPI PUSH2 0x697 PUSH2 0x2337 JUMP JUMPDEST PUSH1 0x20 MUL PUSH1 0x20 ADD ADD MLOAD PUSH1 0xC0 ADD MLOAD PUSH1 0x1 PUSH1 0x1 PUSH1 0xA0 SHL SUB AND CALLER PUSH1 0x1 PUSH1 0x1 PUSH1 0xA0 SHL SUB AND EQ PUSH1 0x40 MLOAD DUP1 PUSH1 0x60 ADD PUSH1 0x40 MSTORE DUP1 PUSH1 0x30 DUP2 MSTORE PUSH1 0x20 ADD PUSH2 0x26FE PUSH1 0x30 SWAP2 CODECOPY SWAP1 PUSH2 0x6EE JUMPI PUSH1 0x40 MLOAD PUSH3 0x461BCD PUSH1 0xE5 SHL DUP2 MSTORE PUSH1 0x4 ADD PUSH2 0x250 SWAP2 SWAP1 PUSH2 0x2325 JUMP JUMPDEST POP PUSH1 0x40 MLOAD DUP1 PUSH1 0x40 ADD PUSH1 0x40 MSTORE DUP1 DUP4 DUP4 DUP2 MLOAD DUP2 LT PUSH2 0x70C JUMPI PUSH2 0x70C PUSH2 0x2337 JUMP JUMPDEST PUSH1 0x20 MUL PUSH1 0x20 ADD ADD MLOAD DUP2 MSTORE PUSH1 0x20 ADD PUSH2 0x722 DUP7 PUSH2 0xE8F JUMP JUMPDEST SWAP1 MSTORE SWAP5 SWAP4 POP POP POP POP JUMP JUMPDEST PUSH1 0x1 ADD PUSH2 0x651 JUMP JUMPDEST POP PUSH0 PUSH1 0x40 MLOAD DUP1 PUSH1 0x60 ADD PUSH1 0x40 MSTORE DUP1 PUSH1 0x23 DUP2 MSTORE PUSH1 0x20 ADD PUSH2 0x26DB PUSH1 0x23 SWAP2 CODECOPY SWAP1 PUSH2 0x76D JUMPI PUSH1 0x40 MLOAD PUSH3 0x461BCD PUSH1 0xE5 SHL DUP2 MSTORE PUSH1 0x4 ADD PUSH2 0x250 SWAP2 SWAP1 PUSH2 0x2325 JUMP JUMPDEST POP POP PUSH1 0x40 DUP1 MLOAD PUSH2 0x120 DUP2 ADD DUP3 MSTORE PUSH0 PUSH2 0x100 DUP3 ADD DUP2 DUP2 MSTORE DUP3 MSTORE DUP3 MLOAD PUSH1 0x20 DUP2 DUP2 ADD DUP6 MSTORE DUP3 DUP3 MSTORE DUP1 DUP5 ADD SWAP2 SWAP1 SWAP2 MSTORE DUP4 MLOAD DUP1 DUP3 ADD DUP6 MSTORE DUP3 DUP2 MSTORE DUP4 DUP6 ADD MSTORE PUSH1 0x60 DUP4 DUP2 ADD DUP4 SWAP1 MSTORE PUSH1 0x80 DUP5 ADD DUP4 SWAP1 MSTORE PUSH1 0xA0 DUP5 ADD DUP4 SWAP1 MSTORE PUSH1 0xC0 DUP5 ADD DUP4 SWAP1 MSTORE DUP5 MLOAD DUP1 DUP4 ADD DUP7 MSTORE SWAP3 DUP4 MSTORE PUSH1 0xE0 DUP5 ADD SWAP3 SWAP1 SWAP3 MSTORE DUP4 MLOAD DUP1 DUP6 ADD SWAP1 SWAP5 MSTORE SWAP2 DUP4 MSTORE SWAP1 DUP3 ADD MSTORE SWAP3 SWAP2 POP POP JUMP JUMPDEST CALLER PUSH0 SWAP1 DUP2 MSTORE PUSH1 0x8 PUSH1 0x20 SWAP1 DUP2 MSTORE PUSH1 0x40 SWAP2 DUP3 SWAP1 KECCAK256 SLOAD DUP3 MLOAD DUP1 DUP5 ADD SWAP1 SWAP4 MSTORE PUSH1 0x1B DUP4 MSTORE PUSH27 0x19195B195D19519A5B194E88125B9D985B1A5908199A5B19481A59 PUSH1 0x2A SHL SWAP2 DUP4 ADD SWAP2 SWAP1 SWAP2 MSTORE PUSH2 0x84C JUMPI PUSH1 0x40 MLOAD PUSH3 0x461BCD PUSH1 0xE5 SHL DUP2 MSTORE PUSH1 0x4 ADD PUSH2 0x250 SWAP2 SWAP1 PUSH2 0x2325 JUMP JUMPDEST POP CALLER PUSH0 SWAP1 DUP2 MSTORE PUSH1 0x8 PUSH1 0x20 SWAP1 DUP2 MSTORE PUSH1 0x40 DUP1 DUP4 KECCAK256 DUP1 SLOAD DUP3 MLOAD DUP2 DUP6 MUL DUP2 ADD DUP6 ADD SWAP1 SWAP4 MSTORE DUP1 DUP4 MSTORE SWAP2 SWAP3 SWAP1 SWAP2 SWAP1 DUP5 SWAP1 DUP5 ADD JUMPDEST DUP3 DUP3 LT ISZERO PUSH2 0xB1E JUMPI DUP4 DUP3 SWAP1 PUSH0 MSTORE PUSH1 0x20 PUSH0 KECCAK256 SWAP1 PUSH1 0x8 MUL ADD PUSH1 0x40 MLOAD DUP1 PUSH2 0x100 ADD PUSH1 0x40 MSTORE SWAP1 DUP2 PUSH0 DUP3 ADD DUP1 SLOAD PUSH2 0x8AA SWAP1 PUSH2 0x238A JUMP JUMPDEST DUP1 PUSH1 0x1F ADD PUSH1 0x20 DUP1 SWAP2 DIV MUL PUSH1 0x20 ADD PUSH1 0x40 MLOAD SWAP1 DUP2 ADD PUSH1 0x40 MSTORE DUP1 SWAP3 SWAP2 SWAP1 DUP2 DUP2 MSTORE PUSH1 0x20 ADD DUP3 DUP1 SLOAD PUSH2 0x8D6 SWAP1 PUSH2 0x238A JUMP JUMPDEST DUP1 ISZERO PUSH2 0x921 JUMPI DUP1 PUSH1 0x1F LT PUSH2 0x8F8 JUMPI PUSH2 0x100 DUP1 DUP4 SLOAD DIV MUL DUP4 MSTORE SWAP2 PUSH1 0x20 ADD SWAP2 PUSH2 0x921 JUMP JUMPDEST DUP3 ADD SWAP2 SWAP1 PUSH0 MSTORE PUSH1 0x20 PUSH0 KECCAK256 SWAP1 JUMPDEST DUP2 SLOAD DUP2 MSTORE SWAP1 PUSH1 0x1 ADD SWAP1 PUSH1 0x20 ADD DUP1 DUP4 GT PUSH2 0x904 JUMPI DUP3 SWAP1 SUB PUSH1 0x1F AND DUP3 ADD SWAP2 JUMPDEST POP POP POP POP POP DUP2 MSTORE PUSH1 0x20 ADD PUSH1 0x1 DUP3 ADD DUP1 SLOAD PUSH2 0x93A SWAP1 PUSH2 0x238A JUMP JUMPDEST DUP1 PUSH1 0x1F ADD PUSH1 0x20 DUP1 SWAP2 DIV MUL PUSH1 0x20 ADD PUSH1 0x40 MLOAD SWAP1 DUP2 ADD PUSH1 0x40 MSTORE DUP1 SWAP3 SWAP2 SWAP1 DUP2 DUP2 MSTORE PUSH1 0x20 ADD DUP3 DUP1 SLOAD PUSH2 0x966 SWAP1 PUSH2 0x238A JUMP JUMPDEST DUP1 ISZERO PUSH2 0x9B1 JUMPI DUP1 PUSH1 0x1F LT PUSH2 0x988 JUMPI PUSH2 0x100 DUP1 DUP4 SLOAD DIV MUL DUP4 MSTORE SWAP2 PUSH1 0x20 ADD SWAP2 PUSH2 0x9B1 JUMP JUMPDEST DUP3 ADD SWAP2 SWAP1 PUSH0 MSTORE PUSH1 0x20 PUSH0 KECCAK256 SWAP1 JUMPDEST DUP2 SLOAD DUP2 MSTORE SWAP1 PUSH1 0x1 ADD SWAP1 PUSH1 0x20 ADD DUP1 DUP4 GT PUSH2 0x994 JUMPI DUP3 SWAP1 SUB PUSH1 0x1F AND DUP3 ADD SWAP2 JUMPDEST POP POP POP POP POP DUP2 MSTORE PUSH1 0x20 ADD PUSH1 0x2 DUP3 ADD DUP1 SLOAD PUSH2 0x9CA SWAP1 PUSH2 0x238A JUMP JUMPDEST DUP1 PUSH1 0x1F ADD PUSH1 0x20 DUP1 SWAP2 DIV MUL PUSH1 0x20 ADD PUSH1 0x40 MLOAD SWAP1 DUP2 ADD PUSH1 0x40 MSTORE DUP1 SWAP3 SWAP2 SWAP1 DUP2 DUP2 MSTORE PUSH1 0x20 ADD DUP3 DUP1 SLOAD PUSH2 0x9F6 SWAP1 PUSH2 0x238A JUMP JUMPDEST DUP1 ISZERO PUSH2 0xA41 JUMPI DUP1 PUSH1 0x1F LT PUSH2 0xA18 JUMPI PUSH2 0x100 DUP1 DUP4 SLOAD DIV MUL DUP4 MSTORE SWAP2 PUSH1 0x20 ADD SWAP2 PUSH2 0xA41 JUMP JUMPDEST DUP3 ADD SWAP2 SWAP1 PUSH0 MSTORE PUSH1 0x20 PUSH0 KECCAK256 SWAP1 JUMPDEST DUP2 SLOAD DUP2 MSTORE SWAP1 PUSH1 0x1 ADD SWAP1 PUSH1 0x20 ADD DUP1 DUP4 GT PUSH2 0xA24 JUMPI DUP3 SWAP1 SUB PUSH1 0x1F AND DUP3 ADD SWAP2 JUMPDEST POP POP POP SWAP2 DUP4 MSTORE POP POP PUSH1 0x3 DUP3 ADD SLOAD PUSH1 0x20 DUP3 ADD MSTORE PUSH1 0x4 DUP3 ADD SLOAD PUSH1 0x40 DUP3 ADD MSTORE PUSH1 0x5 DUP3 ADD SLOAD PUSH1 0x60 DUP3 ADD MSTORE PUSH1 0x6 DUP3 ADD SLOAD PUSH1 0x1 PUSH1 0x1 PUSH1 0xA0 SHL SUB AND PUSH1 0x80 DUP3 ADD MSTORE PUSH1 0x7 DUP3 ADD DUP1 SLOAD PUSH1 0xA0 SWAP1 SWAP3 ADD SWAP2 PUSH2 0xA8F SWAP1 PUSH2 0x238A JUMP JUMPDEST DUP1 PUSH1 0x1F ADD PUSH1 0x20 DUP1 SWAP2 DIV MUL PUSH1 0x20 ADD PUSH1 0x40 MLOAD SWAP1 DUP2 ADD PUSH1 0x40 MSTORE DUP1 SWAP3 SWAP2 SWAP1 DUP2 DUP2 MSTORE PUSH1 0x20 ADD DUP3 DUP1 SLOAD PUSH2 0xABB SWAP1 PUSH2 0x238A JUMP JUMPDEST DUP1 ISZERO PUSH2 0xB06 JUMPI DUP1 PUSH1 0x1F LT PUSH2 0xADD JUMPI PUSH2 0x100 DUP1 DUP4 SLOAD DIV MUL DUP4 MSTORE SWAP2 PUSH1 0x20 ADD SWAP2 PUSH2 0xB06 JUMP JUMPDEST DUP3 ADD SWAP2 SWAP1 PUSH0 MSTORE PUSH1 0x20 PUSH0 KECCAK256 SWAP1 JUMPDEST DUP2 SLOAD DUP2 MSTORE SWAP1 PUSH1 0x1 ADD SWAP1 PUSH1 0x20 ADD DUP1 DUP4 GT PUSH2 0xAE9 JUMPI DUP3 SWAP1 SUB PUSH1 0x1F AND DUP3 ADD SWAP2 JUMPDEST POP POP POP POP POP DUP2 MSTORE POP POP DUP2 MSTORE PUSH1 0x20 ADD SWAP1 PUSH1 0x1 ADD SWAP1 PUSH2 0x879 JUMP JUMPDEST POP POP POP POP SWAP1 POP PUSH0 PUSH1 0x1 DUP3 MLOAD PUSH2 0xB33 SWAP2 SWAP1 PUSH2 0x2377 JUMP JUMPDEST SWAP1 POP PUSH0 DUP3 DUP3 DUP2 MLOAD DUP2 LT PUSH2 0xB48 JUMPI PUSH2 0xB48 PUSH2 0x2337 JUMP JUMPDEST PUSH1 0x20 MUL PUSH1 0x20 ADD ADD MLOAD SWAP1 POP PUSH2 0xB5A PUSH2 0x1DE7 JUMP JUMPDEST PUSH0 DUP1 JUMPDEST DUP6 MLOAD DUP2 LT ISZERO PUSH2 0xC93 JUMPI PUSH2 0xB8C DUP7 DUP3 DUP2 MLOAD DUP2 LT PUSH2 0xB7B JUMPI PUSH2 0xB7B PUSH2 0x2337 JUMP JUMPDEST PUSH1 0x20 MUL PUSH1 0x20 ADD ADD MLOAD PUSH0 ADD MLOAD DUP9 PUSH2 0x1B5D JUMP JUMPDEST ISZERO PUSH2 0xC8B JUMPI PUSH1 0x1 SWAP2 POP DUP6 DUP2 DUP2 MLOAD DUP2 LT PUSH2 0xBA7 JUMPI PUSH2 0xBA7 PUSH2 0x2337 JUMP JUMPDEST PUSH1 0x20 MUL PUSH1 0x20 ADD ADD MLOAD SWAP3 POP DUP4 PUSH1 0x8 PUSH0 CALLER PUSH1 0x1 PUSH1 0x1 PUSH1 0xA0 SHL SUB AND PUSH1 0x1 PUSH1 0x1 PUSH1 0xA0 SHL SUB AND DUP2 MSTORE PUSH1 0x20 ADD SWAP1 DUP2 MSTORE PUSH1 0x20 ADD PUSH0 KECCAK256 DUP3 DUP2 SLOAD DUP2 LT PUSH2 0xBE6 JUMPI PUSH2 0xBE6 PUSH2 0x2337 JUMP JUMPDEST PUSH0 SWAP2 DUP3 MSTORE PUSH1 0x20 SWAP1 SWAP2 KECCAK256 DUP3 MLOAD PUSH1 0x8 SWAP1 SWAP3 MUL ADD SWAP1 DUP2 SWAP1 PUSH2 0xC04 SWAP1 DUP3 PUSH2 0x240D JUMP JUMPDEST POP PUSH1 0x20 DUP3 ADD MLOAD PUSH1 0x1 DUP3 ADD SWAP1 PUSH2 0xC19 SWAP1 DUP3 PUSH2 0x240D JUMP JUMPDEST POP PUSH1 0x40 DUP3 ADD MLOAD PUSH1 0x2 DUP3 ADD SWAP1 PUSH2 0xC2E SWAP1 DUP3 PUSH2 0x240D JUMP JUMPDEST POP PUSH1 0x60 DUP3 ADD MLOAD PUSH1 0x3 DUP3 ADD SSTORE PUSH1 0x80 DUP3 ADD MLOAD PUSH1 0x4 DUP3 ADD SSTORE PUSH1 0xA0 DUP3 ADD MLOAD PUSH1 0x5 DUP3 ADD SSTORE PUSH1 0xC0 DUP3 ADD MLOAD PUSH1 0x6 DUP3 ADD DUP1 SLOAD PUSH1 0x1 PUSH1 0x1 PUSH1 0xA0 SHL SUB NOT AND PUSH1 0x1 PUSH1 0x1 PUSH1 0xA0 SHL SUB SWAP1 SWAP3 AND SWAP2 SWAP1 SWAP2 OR SWAP1 SSTORE PUSH1 0xE0 DUP3 ADD MLOAD PUSH1 0x7 DUP3 ADD SWAP1 PUSH2 0xC87 SWAP1 DUP3 PUSH2 0x240D JUMP JUMPDEST POP POP POP JUMPDEST PUSH1 0x1 ADD PUSH2 0xB5D JUMP JUMPDEST POP PUSH1 0x40 DUP1 MLOAD DUP1 DUP3 ADD SWAP1 SWAP2 MSTORE PUSH1 0x1A DUP2 MSTORE PUSH26 0x19195B195D19519A5B194E88119A5B1948139BDD08199BDD5B99 PUSH1 0x32 SHL PUSH1 0x20 DUP3 ADD MSTORE DUP2 PUSH2 0xCE3 JUMPI PUSH1 0x40 MLOAD PUSH3 0x461BCD PUSH1 0xE5 SHL DUP2 MSTORE PUSH1 0x4 ADD PUSH2 0x250 SWAP2 SWAP1 PUSH2 0x2325 JUMP JUMPDEST POP CALLER PUSH0 SWAP1 DUP2 MSTORE PUSH1 0x8 PUSH1 0x20 MSTORE PUSH1 0x40 SWAP1 KECCAK256 DUP1 SLOAD DUP4 SWAP2 SWAP1 DUP7 SWAP1 DUP2 LT PUSH2 0xD07 JUMPI PUSH2 0xD07 PUSH2 0x2337 JUMP JUMPDEST PUSH0 SWAP2 DUP3 MSTORE PUSH1 0x20 SWAP1 SWAP2 KECCAK256 DUP3 MLOAD PUSH1 0x8 SWAP1 SWAP3 MUL ADD SWAP1 DUP2 SWAP1 PUSH2 0xD25 SWAP1 DUP3 PUSH2 0x240D JUMP JUMPDEST POP PUSH1 0x20 DUP3 ADD MLOAD PUSH1 0x1 DUP3 ADD SWAP1 PUSH2 0xD3A SWAP1 DUP3 PUSH2 0x240D JUMP JUMPDEST POP PUSH1 0x40 DUP3 ADD MLOAD PUSH1 0x2 DUP3 ADD SWAP1 PUSH2 0xD4F SWAP1 DUP3 PUSH2 0x240D JUMP JUMPDEST POP PUSH1 0x60 DUP3 ADD MLOAD PUSH1 0x3 DUP3 ADD SSTORE PUSH1 0x80 DUP3 ADD MLOAD PUSH1 0x4 DUP3 ADD SSTORE PUSH1 0xA0 DUP3 ADD MLOAD PUSH1 0x5 DUP3 ADD SSTORE PUSH1 0xC0 DUP3 ADD MLOAD PUSH1 0x6 DUP3 ADD DUP1 SLOAD PUSH1 0x1 PUSH1 0x1 PUSH1 0xA0 SHL SUB NOT AND PUSH1 0x1 PUSH1 0x1 PUSH1 0xA0 SHL SUB SWAP1 SWAP3 AND SWAP2 SWAP1 SWAP2 OR SWAP1 SSTORE PUSH1 0xE0 DUP3 ADD MLOAD PUSH1 0x7 DUP3 ADD SWAP1 PUSH2 0xDA8 SWAP1 DUP3 PUSH2 0x240D JUMP JUMPDEST POP POP CALLER PUSH0 SWAP1 DUP2 MSTORE PUSH1 0x8 PUSH1 0x20 MSTORE PUSH1 0x40 SWAP1 KECCAK256 DUP1 SLOAD SWAP1 SWAP2 POP DUP1 PUSH2 0xDCA JUMPI PUSH2 0xDCA PUSH2 0x24CC JUMP JUMPDEST PUSH0 DUP3 DUP2 MSTORE PUSH1 0x20 DUP2 KECCAK256 PUSH0 NOT SWAP1 SWAP3 ADD SWAP2 PUSH1 0x8 DUP4 MUL ADD SWAP1 PUSH2 0xDE8 DUP3 DUP3 PUSH2 0x1E34 JUMP JUMPDEST PUSH2 0xDF5 PUSH1 0x1 DUP4 ADD PUSH0 PUSH2 0x1E34 JUMP JUMPDEST PUSH2 0xE02 PUSH1 0x2 DUP4 ADD PUSH0 PUSH2 0x1E34 JUMP JUMPDEST PUSH0 PUSH1 0x3 DUP4 ADD DUP2 SWAP1 SSTORE PUSH1 0x4 DUP4 ADD DUP2 SWAP1 SSTORE PUSH1 0x5 DUP4 ADD DUP2 SWAP1 SSTORE PUSH1 0x6 DUP4 ADD DUP1 SLOAD PUSH1 0x1 PUSH1 0x1 PUSH1 0xA0 SHL SUB NOT AND SWAP1 SSTORE PUSH2 0xE38 SWAP1 PUSH1 0x7 DUP5 ADD SWAP1 PUSH2 0x1E34 JUMP JUMPDEST POP POP SWAP1 SSTORE PUSH2 0xE45 DUP7 PUSH2 0x1BB5 JUMP JUMPDEST PUSH2 0xE4E DUP7 PUSH2 0x1C3C JUMP JUMPDEST PUSH32 0x8598A19145BA7B62366F9F3E3CECA438DF1E575FFA3BEF982ED120041131D786 CALLER DUP8 PUSH1 0x40 MLOAD PUSH2 0xE7F SWAP3 SWAP2 SWAP1 PUSH2 0x24E0 JUMP JUMPDEST PUSH1 0x40 MLOAD DUP1 SWAP2 SUB SWAP1 LOG1 POP POP POP POP POP POP JUMP JUMPDEST PUSH1 0x60 PUSH0 PUSH1 0x4 DUP4 PUSH1 0x40 MLOAD PUSH2 0xEA2 SWAP2 SWAP1 PUSH2 0x2503 JUMP JUMPDEST SWAP1 DUP2 MSTORE PUSH1 0x40 MLOAD SWAP1 DUP2 SWAP1 SUB PUSH1 0x20 ADD SWAP1 KECCAK256 SLOAD GT PUSH2 0xF34 JUMPI PUSH1 0x40 MLOAD PUSH3 0x461BCD PUSH1 0xE5 SHL DUP2 MSTORE PUSH1 0x20 PUSH1 0x4 DUP3 ADD MSTORE PUSH1 0x46 PUSH1 0x24 DUP3 ADD MSTORE PUSH32 0x72657472696576654368756E6B4E6F64654164647265737365733A20496E7661 PUSH1 0x44 DUP3 ADD MSTORE PUSH32 0x6C6964205F6E6F646541646472657373202D204E6F646520446F6573204E4F54 PUSH1 0x64 DUP3 ADD MSTORE PUSH6 0x8195E1A5CDD PUSH1 0xD2 SHL PUSH1 0x84 DUP3 ADD MSTORE PUSH1 0xA4 ADD PUSH2 0x250 JUMP JUMPDEST PUSH1 0x4 DUP3 PUSH1 0x40 MLOAD PUSH2 0xF44 SWAP2 SWAP1 PUSH2 0x2503 JUMP JUMPDEST SWAP1 DUP2 MSTORE PUSH1 0x40 DUP1 MLOAD SWAP2 DUP3 SWAP1 SUB PUSH1 0x20 SWAP1 DUP2 ADD DUP4 KECCAK256 DUP1 SLOAD DUP1 DUP4 MUL DUP6 ADD DUP4 ADD SWAP1 SWAP4 MSTORE DUP3 DUP5 MSTORE SWAP2 SWAP1 DUP4 ADD DUP3 DUP3 DUP1 ISZERO PUSH2 0xF9E JUMPI PUSH1 0x20 MUL DUP3 ADD SWAP2 SWAP1 PUSH0 MSTORE PUSH1 0x20 PUSH0 KECCAK256 SWAP1 JUMPDEST DUP2 SLOAD PUSH1 0x1 PUSH1 0x1 PUSH1 0xA0 SHL SUB AND DUP2 MSTORE PUSH1 0x1 SWAP1 SWAP2 ADD SWAP1 PUSH1 0x20 ADD DUP1 DUP4 GT PUSH2 0xF80 JUMPI JUMPDEST POP POP POP POP POP SWAP1 POP SWAP2 SWAP1 POP JUMP JUMPDEST PUSH1 0x5 DUP2 DUP2 SLOAD DUP2 LT PUSH2 0xFB9 JUMPI PUSH0 DUP1 REVERT JUMPDEST PUSH0 SWAP2 DUP3 MSTORE PUSH1 0x20 SWAP1 SWAP2 KECCAK256 ADD SLOAD PUSH1 0x1 PUSH1 0x1 PUSH1 0xA0 SHL SUB AND SWAP1 POP DUP2 JUMP JUMPDEST PUSH0 DUP1 DUP3 MLOAD GT PUSH2 0x1022 JUMPI PUSH1 0x40 MLOAD PUSH3 0x461BCD PUSH1 0xE5 SHL DUP2 MSTORE PUSH1 0x20 PUSH1 0x4 DUP3 ADD MSTORE PUSH1 0x1C PUSH1 0x24 DUP3 ADD MSTORE PUSH28 0x19D95D119A5B1952185CDA0E88125B9D985B1A590817D99A5B195259 PUSH1 0x22 SHL PUSH1 0x44 DUP3 ADD MSTORE PUSH1 0x64 ADD PUSH2 0x250 JUMP JUMPDEST PUSH1 0x2 DUP3 PUSH1 0x40 MLOAD PUSH2 0x1032 SWAP2 SWAP1 PUSH2 0x2503 JUMP JUMPDEST SWAP1 DUP2 MSTORE PUSH1 0x20 ADD PUSH1 0x40 MLOAD DUP1 SWAP2 SUB SWAP1 KECCAK256 SLOAD SWAP1 POP SWAP2 SWAP1 POP JUMP JUMPDEST PUSH2 0x108F DUP4 DUP4 DUP4 PUSH1 0x40 MLOAD PUSH1 0x24 ADD PUSH2 0x1060 SWAP4 SWAP3 SWAP2 SWAP1 PUSH2 0x251E JUMP JUMPDEST PUSH1 0x40 DUP1 MLOAD PUSH1 0x1F NOT DUP2 DUP5 SUB ADD DUP2 MSTORE SWAP2 SWAP1 MSTORE PUSH1 0x20 DUP2 ADD DUP1 MLOAD PUSH1 0x1 PUSH1 0x1 PUSH1 0xE0 SHL SUB AND PUSH4 0xCA47C4EB PUSH1 0xE0 SHL OR SWAP1 MSTORE PUSH2 0x1D2B JUMP JUMPDEST POP POP POP JUMP JUMPDEST PUSH1 0x5 SLOAD PUSH0 SWAP1 PUSH1 0x32 DUP2 DUP4 SUB PUSH2 0x10AC JUMPI PUSH0 SWAP3 POP POP POP PUSH2 0x120A JUMP JUMPDEST PUSH0 DUP3 PUSH2 0x10B9 PUSH1 0x1 NUMBER PUSH2 0x2377 JUMP JUMPDEST PUSH2 0x10C4 SWAP2 SWAP1 BLOCKHASH PUSH2 0x2542 JUMP JUMPDEST SWAP1 POP PUSH0 DUP1 PUSH2 0x3E8 JUMPDEST DUP1 DUP3 LT ISZERO PUSH2 0x1200 JUMPI PUSH0 PUSH1 0x5 DUP8 PUSH2 0x10E2 DUP7 DUP9 PUSH2 0x2561 JUMP JUMPDEST PUSH2 0x10EC SWAP2 SWAP1 PUSH2 0x2542 JUMP JUMPDEST DUP2 SLOAD DUP2 LT PUSH2 0x10FC JUMPI PUSH2 0x10FC PUSH2 0x2337 JUMP JUMPDEST PUSH0 SWAP2 DUP3 MSTORE PUSH1 0x20 SWAP2 DUP3 SWAP1 KECCAK256 ADD SLOAD PUSH1 0x40 MLOAD DUP8 DUP2 MSTORE PUSH1 0x1 PUSH1 0x1 PUSH1 0xA0 SHL SUB SWAP1 SWAP2 AND SWAP3 POP PUSH32 0x838D04243391D45D94A98FFF54D1737CBFFEA86C34AB825E5D6980EC9B77235 SWAP2 ADD PUSH1 0x40 MLOAD DUP1 SWAP2 SUB SWAP1 LOG1 PUSH2 0x1150 DUP7 DUP12 PUSH2 0x2561 JUMP JUMPDEST PUSH1 0x1 PUSH1 0x1 PUSH1 0xA0 SHL SUB DUP3 AND PUSH0 SWAP1 DUP2 MSTORE PUSH1 0x3 PUSH1 0x20 MSTORE PUSH1 0x40 SWAP1 KECCAK256 PUSH1 0x1 ADD SLOAD GT ISZERO PUSH2 0x11D4 JUMPI PUSH1 0x1 PUSH0 JUMPDEST DUP11 MLOAD DUP2 LT ISZERO PUSH2 0x11BC JUMPI DUP3 PUSH1 0x1 PUSH1 0x1 PUSH1 0xA0 SHL SUB AND DUP12 DUP3 DUP2 MLOAD DUP2 LT PUSH2 0x119A JUMPI PUSH2 0x119A PUSH2 0x2337 JUMP JUMPDEST PUSH1 0x20 MUL PUSH1 0x20 ADD ADD MLOAD PUSH1 0x1 PUSH1 0x1 PUSH1 0xA0 SHL SUB AND SUB PUSH2 0x11B4 JUMPI PUSH0 SWAP2 POP JUMPDEST PUSH1 0x1 ADD PUSH2 0x1175 JUMP JUMPDEST POP DUP1 ISZERO PUSH2 0x11D2 JUMPI POP SWAP7 POP PUSH2 0x120A SWAP6 POP POP POP POP POP POP JUMP JUMPDEST POP JUMPDEST DUP4 PUSH2 0x11DE DUP2 PUSH2 0x235F JUMP JUMPDEST SWAP5 POP POP DUP3 DUP1 PUSH2 0x11EC SWAP1 PUSH2 0x235F JUMP JUMPDEST SWAP4 POP POP DUP7 DUP5 SUB PUSH2 0x11FA JUMPI PUSH0 SWAP4 POP JUMPDEST POP PUSH2 0x10CC JUMP JUMPDEST PUSH0 SWAP7 POP POP POP POP POP POP POP JUMPDEST SWAP3 SWAP2 POP POP JUMP JUMPDEST PUSH1 0x1 PUSH1 0x1 PUSH1 0xA0 SHL SUB DUP5 DUP2 AND PUSH0 SWAP1 DUP2 MSTORE PUSH1 0x3 PUSH1 0x20 MSTORE PUSH1 0x40 SWAP1 KECCAK256 SLOAD AND PUSH2 0x129B JUMPI PUSH1 0x40 MLOAD PUSH3 0x461BCD PUSH1 0xE5 SHL DUP2 MSTORE PUSH1 0x20 PUSH1 0x4 DUP3 ADD MSTORE PUSH1 0x3C PUSH1 0x24 DUP3 ADD MSTORE PUSH32 0x73746F72654368756E6B496E4E6F64653A20496E76616C6964205F6E6F646541 PUSH1 0x44 DUP3 ADD MSTORE PUSH28 0x19191C995CDCC80B48139BD91948111BD95CC81393D508195E1A5CDD PUSH1 0x22 SHL PUSH1 0x64 DUP3 ADD MSTORE PUSH1 0x84 ADD PUSH2 0x250 JUMP JUMPDEST PUSH2 0x1313 DUP5 PUSH1 0x4 DUP5 PUSH1 0x40 MLOAD PUSH2 0x12AF SWAP2 SWAP1 PUSH2 0x2503 JUMP JUMPDEST SWAP1 DUP2 MSTORE PUSH1 0x40 DUP1 MLOAD SWAP2 DUP3 SWAP1 SUB PUSH1 0x20 SWAP1 DUP2 ADD DUP4 KECCAK256 DUP1 SLOAD DUP1 DUP4 MUL DUP6 ADD DUP4 ADD SWAP1 SWAP4 MSTORE DUP3 DUP5 MSTORE SWAP2 SWAP1 DUP4 ADD DUP3 DUP3 DUP1 ISZERO PUSH2 0x1309 JUMPI PUSH1 0x20 MUL DUP3 ADD SWAP2 SWAP1 PUSH0 MSTORE PUSH1 0x20 PUSH0 KECCAK256 SWAP1 JUMPDEST DUP2 SLOAD PUSH1 0x1 PUSH1 0x1 PUSH1 0xA0 SHL SUB AND DUP2 MSTORE PUSH1 0x1 SWAP1 SWAP2 ADD SWAP1 PUSH1 0x20 ADD DUP1 DUP4 GT PUSH2 0x12EB JUMPI JUMPDEST POP POP POP POP POP PUSH2 0x1D34 JUMP JUMPDEST PUSH2 0x1361 JUMPI PUSH1 0x4 DUP3 PUSH1 0x40 MLOAD PUSH2 0x1327 SWAP2 SWAP1 PUSH2 0x2503 JUMP JUMPDEST SWAP1 DUP2 MSTORE PUSH1 0x40 MLOAD PUSH1 0x20 SWAP2 DUP2 SWAP1 SUB DUP3 ADD SWAP1 KECCAK256 DUP1 SLOAD PUSH1 0x1 DUP2 ADD DUP3 SSTORE PUSH0 SWAP2 DUP3 MSTORE SWAP2 SWAP1 KECCAK256 ADD DUP1 SLOAD PUSH1 0x1 PUSH1 0x1 PUSH1 0xA0 SHL SUB NOT AND PUSH1 0x1 PUSH1 0x1 PUSH1 0xA0 SHL SUB DUP7 AND OR SWAP1 SSTORE JUMPDEST POP POP POP POP JUMP JUMPDEST PUSH1 0x1 PUSH1 0x1 PUSH1 0xA0 SHL SUB DUP3 DUP2 AND PUSH0 SWAP1 DUP2 MSTORE PUSH1 0x3 PUSH1 0x20 MSTORE PUSH1 0x40 SWAP1 KECCAK256 SLOAD AND PUSH2 0x13FE JUMPI PUSH1 0x40 MLOAD PUSH3 0x461BCD PUSH1 0xE5 SHL DUP2 MSTORE PUSH1 0x20 PUSH1 0x4 DUP3 ADD MSTORE PUSH1 0x42 PUSH1 0x24 DUP3 ADD MSTORE PUSH32 0x757064617465417661696C61626C6553746F726167653A20496E76616C696420 PUSH1 0x44 DUP3 ADD MSTORE PUSH32 0x5F6E6F646541646472657373202D204E6F646520446F6573204E4F5420657869 PUSH1 0x64 DUP3 ADD MSTORE PUSH2 0x1CDD PUSH1 0xF2 SHL PUSH1 0x84 DUP3 ADD MSTORE PUSH1 0xA4 ADD PUSH2 0x250 JUMP JUMPDEST PUSH1 0x1 PUSH1 0x1 PUSH1 0xA0 SHL SUB SWAP1 SWAP2 AND PUSH0 SWAP1 DUP2 MSTORE PUSH1 0x3 PUSH1 0x20 MSTORE PUSH1 0x40 SWAP1 KECCAK256 PUSH1 0x1 ADD SSTORE JUMP JUMPDEST PUSH1 0x40 DUP1 MLOAD PUSH1 0x20 DUP2 ADD SWAP1 SWAP2 MSTORE PUSH0 DUP1 DUP3 MSTORE SWAP1 DUP2 JUMPDEST DUP4 MLOAD DUP2 LT ISZERO PUSH2 0x147D JUMPI DUP2 DUP5 DUP3 DUP2 MLOAD DUP2 LT PUSH2 0x144A JUMPI PUSH2 0x144A PUSH2 0x2337 JUMP JUMPDEST PUSH1 0x20 MUL PUSH1 0x20 ADD ADD MLOAD PUSH1 0x40 MLOAD PUSH1 0x20 ADD PUSH2 0x1463 SWAP3 SWAP2 SWAP1 PUSH2 0x2574 JUMP JUMPDEST PUSH1 0x40 DUP1 MLOAD PUSH1 0x1F NOT DUP2 DUP5 SUB ADD DUP2 MSTORE SWAP2 SWAP1 MSTORE SWAP2 POP PUSH1 0x1 ADD PUSH2 0x142E JUMP JUMPDEST POP DUP1 MLOAD PUSH1 0x20 SWAP1 SWAP2 ADD KECCAK256 SWAP3 SWAP2 POP POP JUMP JUMPDEST CALLER PUSH2 0x14D9 JUMPI PUSH1 0x40 MLOAD PUSH3 0x461BCD PUSH1 0xE5 SHL DUP2 MSTORE PUSH1 0x20 PUSH1 0x4 DUP3 ADD MSTORE PUSH1 0x1D PUSH1 0x24 DUP3 ADD MSTORE PUSH32 0x73746F726546696C65486173683A20496E76616C69642073656E646572000000 PUSH1 0x44 DUP3 ADD MSTORE PUSH1 0x64 ADD PUSH2 0x250 JUMP JUMPDEST DUP2 PUSH2 0x1526 JUMPI PUSH1 0x40 MLOAD PUSH3 0x461BCD PUSH1 0xE5 SHL DUP2 MSTORE PUSH1 0x20 PUSH1 0x4 DUP3 ADD DUP2 SWAP1 MSTORE PUSH1 0x24 DUP3 ADD MSTORE PUSH32 0x73746F726546696C65486173683A20496E76616C6964205F66696C6548617368 PUSH1 0x44 DUP3 ADD MSTORE PUSH1 0x64 ADD PUSH2 0x250 JUMP JUMPDEST PUSH0 DUP2 MLOAD GT PUSH2 0x1576 JUMPI PUSH1 0x40 MLOAD PUSH3 0x461BCD PUSH1 0xE5 SHL DUP2 MSTORE PUSH1 0x20 PUSH1 0x4 DUP3 ADD MSTORE PUSH1 0x1E PUSH1 0x24 DUP3 ADD MSTORE PUSH32 0x73746F726546696C65486173683A20496E76616C6964205F66696C6549640000 PUSH1 0x44 DUP3 ADD MSTORE PUSH1 0x64 ADD PUSH2 0x250 JUMP JUMPDEST DUP2 PUSH1 0x2 DUP3 PUSH1 0x40 MLOAD PUSH2 0x1587 SWAP2 SWAP1 PUSH2 0x2503 JUMP JUMPDEST SWAP1 DUP2 MSTORE PUSH1 0x40 MLOAD SWAP1 DUP2 SWAP1 SUB PUSH1 0x20 ADD SWAP1 KECCAK256 SSTORE POP POP JUMP JUMPDEST PUSH1 0x40 DUP1 MLOAD PUSH1 0x60 DUP2 ADD SWAP1 SWAP2 MSTORE PUSH1 0x21 DUP1 DUP3 MSTORE CALLER ISZERO ISZERO SWAP2 SWAP1 PUSH2 0x26BA PUSH1 0x20 DUP4 ADD CODECOPY SWAP1 PUSH2 0x15D6 JUMPI PUSH1 0x40 MLOAD PUSH3 0x461BCD PUSH1 0xE5 SHL DUP2 MSTORE PUSH1 0x4 ADD PUSH2 0x250 SWAP2 SWAP1 PUSH2 0x2325 JUMP JUMPDEST POP PUSH0 DUP6 MLOAD GT PUSH1 0x40 MLOAD DUP1 PUSH1 0x60 ADD PUSH1 0x40 MSTORE DUP1 PUSH1 0x24 DUP2 MSTORE PUSH1 0x20 ADD PUSH2 0x262F PUSH1 0x24 SWAP2 CODECOPY SWAP1 PUSH2 0x1612 JUMPI PUSH1 0x40 MLOAD PUSH3 0x461BCD PUSH1 0xE5 SHL DUP2 MSTORE PUSH1 0x4 ADD PUSH2 0x250 SWAP2 SWAP1 PUSH2 0x2325 JUMP JUMPDEST POP PUSH0 DUP7 MLOAD GT PUSH1 0x40 MLOAD DUP1 PUSH1 0x60 ADD PUSH1 0x40 MSTORE DUP1 PUSH1 0x24 DUP2 MSTORE PUSH1 0x20 ADD PUSH2 0x272E PUSH1 0x24 SWAP2 CODECOPY SWAP1 PUSH2 0x164E JUMPI PUSH1 0x40 MLOAD PUSH3 0x461BCD PUSH1 0xE5 SHL DUP2 MSTORE PUSH1 0x4 ADD PUSH2 0x250 SWAP2 SWAP1 PUSH2 0x2325 JUMP JUMPDEST POP PUSH0 DUP1 SHL DUP5 EQ ISZERO PUSH1 0x40 MLOAD DUP1 PUSH1 0x60 ADD PUSH1 0x40 MSTORE DUP1 PUSH1 0x24 DUP2 MSTORE PUSH1 0x20 ADD PUSH2 0x2752 PUSH1 0x24 SWAP2 CODECOPY SWAP1 PUSH2 0x168C JUMPI PUSH1 0x40 MLOAD PUSH3 0x461BCD PUSH1 0xE5 SHL DUP2 MSTORE PUSH1 0x4 ADD PUSH2 0x250 SWAP2 SWAP1 PUSH2 0x2325 JUMP JUMPDEST POP PUSH0 DUP2 GT PUSH1 0x40 MLOAD DUP1 PUSH1 0x60 ADD PUSH1 0x40 MSTORE DUP1 PUSH1 0x24 DUP2 MSTORE PUSH1 0x20 ADD PUSH2 0x260B PUSH1 0x24 SWAP2 CODECOPY SWAP1 PUSH2 0x16C7 JUMPI PUSH1 0x40 MLOAD PUSH3 0x461BCD PUSH1 0xE5 SHL DUP2 MSTORE PUSH1 0x4 ADD PUSH2 0x250 SWAP2 SWAP1 PUSH2 0x2325 JUMP JUMPDEST POP PUSH0 DUP3 MLOAD GT PUSH1 0x40 MLOAD DUP1 PUSH1 0x60 ADD PUSH1 0x40 MSTORE DUP1 PUSH1 0x24 DUP2 MSTORE PUSH1 0x20 ADD PUSH2 0x2696 PUSH1 0x24 SWAP2 CODECOPY SWAP1 PUSH2 0x1703 JUMPI PUSH1 0x40 MLOAD PUSH3 0x461BCD PUSH1 0xE5 SHL DUP2 MSTORE PUSH1 0x4 ADD PUSH2 0x250 SWAP2 SWAP1 PUSH2 0x2325 JUMP JUMPDEST POP CALLER PUSH0 DUP2 DUP2 MSTORE PUSH1 0x8 PUSH1 0x20 DUP2 DUP2 MSTORE PUSH1 0x40 DUP1 DUP5 KECCAK256 DUP2 MLOAD PUSH2 0x100 DUP2 ADD DUP4 MSTORE DUP9 DUP2 MSTORE DUP1 DUP5 ADD DUP14 SWAP1 MSTORE SWAP2 DUP3 ADD DUP12 SWAP1 MSTORE PUSH1 0x60 DUP3 ADD DUP11 SWAP1 MSTORE PUSH1 0x80 DUP3 ADD DUP8 SWAP1 MSTORE TIMESTAMP PUSH1 0xA0 DUP4 ADD DUP2 SWAP1 MSTORE PUSH1 0xC0 DUP4 ADD SWAP7 SWAP1 SWAP7 MSTORE PUSH1 0xE0 DUP3 ADD DUP10 SWAP1 MSTORE DUP1 SLOAD PUSH1 0x1 DUP2 ADD DUP3 SSTORE SWAP1 DUP6 MSTORE SWAP2 SWAP1 SWAP4 KECCAK256 DUP4 MLOAD SWAP2 SWAP1 SWAP3 MUL SWAP1 SWAP2 ADD SWAP1 DUP2 SWAP1 PUSH2 0x1777 SWAP1 DUP3 PUSH2 0x240D JUMP JUMPDEST POP PUSH1 0x20 DUP3 ADD MLOAD PUSH1 0x1 DUP3 ADD SWAP1 PUSH2 0x178C SWAP1 DUP3 PUSH2 0x240D JUMP JUMPDEST POP PUSH1 0x40 DUP3 ADD MLOAD PUSH1 0x2 DUP3 ADD SWAP1 PUSH2 0x17A1 SWAP1 DUP3 PUSH2 0x240D JUMP JUMPDEST POP PUSH1 0x60 DUP3 ADD MLOAD PUSH1 0x3 DUP3 ADD SSTORE PUSH1 0x80 DUP3 ADD MLOAD PUSH1 0x4 DUP3 ADD SSTORE PUSH1 0xA0 DUP3 ADD MLOAD PUSH1 0x5 DUP3 ADD SSTORE PUSH1 0xC0 DUP3 ADD MLOAD PUSH1 0x6 DUP3 ADD DUP1 SLOAD PUSH1 0x1 PUSH1 0x1 PUSH1 0xA0 SHL SUB NOT AND PUSH1 0x1 PUSH1 0x1 PUSH1 0xA0 SHL SUB SWAP1 SWAP3 AND SWAP2 SWAP1 SWAP2 OR SWAP1 SSTORE PUSH1 0xE0 DUP3 ADD MLOAD PUSH1 0x7 DUP3 ADD SWAP1 PUSH2 0x17FA SWAP1 DUP3 PUSH2 0x240D JUMP JUMPDEST POP POP POP PUSH32 0x557BCCC5A98151EF59A421E190011AA3F6B5DC4AC2FD42FBA79D158CE0C68AC1 DUP4 DUP9 DUP9 DUP9 DUP7 DUP7 CALLER PUSH1 0x40 MLOAD PUSH2 0x1838 SWAP8 SWAP7 SWAP6 SWAP5 SWAP4 SWAP3 SWAP2 SWAP1 PUSH2 0x25A2 JUMP JUMPDEST PUSH1 0x40 MLOAD DUP1 SWAP2 SUB SWAP1 LOG1 POP POP POP POP POP POP POP JUMP JUMPDEST PUSH1 0x40 DUP1 MLOAD PUSH1 0x60 DUP2 DUP2 ADD SWAP1 SWAP3 MSTORE PUSH1 0x21 DUP1 DUP3 MSTORE CALLER ISZERO ISZERO SWAP2 SWAP1 PUSH2 0x26BA PUSH1 0x20 DUP4 ADD CODECOPY SWAP1 PUSH2 0x1885 JUMPI PUSH1 0x40 MLOAD PUSH3 0x461BCD PUSH1 0xE5 SHL DUP2 MSTORE PUSH1 0x4 ADD PUSH2 0x250 SWAP2 SWAP1 PUSH2 0x2325 JUMP JUMPDEST POP CALLER PUSH0 SWAP1 DUP2 MSTORE PUSH1 0x8 PUSH1 0x20 SWAP1 DUP2 MSTORE PUSH1 0x40 DUP1 DUP4 KECCAK256 DUP1 SLOAD DUP3 MLOAD DUP2 DUP6 MUL DUP2 ADD DUP6 ADD SWAP1 SWAP4 MSTORE DUP1 DUP4 MSTORE SWAP2 SWAP4 SWAP1 SWAP3 DUP5 ADD JUMPDEST DUP3 DUP3 LT ISZERO PUSH2 0x1B54 JUMPI DUP4 DUP3 SWAP1 PUSH0 MSTORE PUSH1 0x20 PUSH0 KECCAK256 SWAP1 PUSH1 0x8 MUL ADD PUSH1 0x40 MLOAD DUP1 PUSH2 0x100 ADD PUSH1 0x40 MSTORE SWAP1 DUP2 PUSH0 DUP3 ADD DUP1 SLOAD PUSH2 0x18E0 SWAP1 PUSH2 0x238A JUMP JUMPDEST DUP1 PUSH1 0x1F ADD PUSH1 0x20 DUP1 SWAP2 DIV MUL PUSH1 0x20 ADD PUSH1 0x40 MLOAD SWAP1 DUP2 ADD PUSH1 0x40 MSTORE DUP1 SWAP3 SWAP2 SWAP1 DUP2 DUP2 MSTORE PUSH1 0x20 ADD DUP3 DUP1 SLOAD PUSH2 0x190C SWAP1 PUSH2 0x238A JUMP JUMPDEST DUP1 ISZERO PUSH2 0x1957 JUMPI DUP1 PUSH1 0x1F LT PUSH2 0x192E JUMPI PUSH2 0x100 DUP1 DUP4 SLOAD DIV MUL DUP4 MSTORE SWAP2 PUSH1 0x20 ADD SWAP2 PUSH2 0x1957 JUMP JUMPDEST DUP3 ADD SWAP2 SWAP1 PUSH0 MSTORE PUSH1 0x20 PUSH0 KECCAK256 SWAP1 JUMPDEST DUP2 SLOAD DUP2 MSTORE SWAP1 PUSH1 0x1 ADD SWAP1 PUSH1 0x20 ADD DUP1 DUP4 GT PUSH2 0x193A JUMPI DUP3 SWAP1 SUB PUSH1 0x1F AND DUP3 ADD SWAP2 JUMPDEST POP POP POP POP POP DUP2 MSTORE PUSH1 0x20 ADD PUSH1 0x1 DUP3 ADD DUP1 SLOAD PUSH2 0x1970 SWAP1 PUSH2 0x238A JUMP JUMPDEST DUP1 PUSH1 0x1F ADD PUSH1 0x20 DUP1 SWAP2 DIV MUL PUSH1 0x20 ADD PUSH1 0x40 MLOAD SWAP1 DUP2 ADD PUSH1 0x40 MSTORE DUP1 SWAP3 SWAP2 SWAP1 DUP2 DUP2 MSTORE PUSH1 0x20 ADD DUP3 DUP1 SLOAD PUSH2 0x199C SWAP1 PUSH2 0x238A JUMP JUMPDEST DUP1 ISZERO PUSH2 0x19E7 JUMPI DUP1 PUSH1 0x1F LT PUSH2 0x19BE JUMPI PUSH2 0x100 DUP1 DUP4 SLOAD DIV MUL DUP4 MSTORE SWAP2 PUSH1 0x20 ADD SWAP2 PUSH2 0x19E7 JUMP JUMPDEST DUP3 ADD SWAP2 SWAP1 PUSH0 MSTORE PUSH1 0x20 PUSH0 KECCAK256 SWAP1 JUMPDEST DUP2 SLOAD DUP2 MSTORE SWAP1 PUSH1 0x1 ADD SWAP1 PUSH1 0x20 ADD DUP1 DUP4 GT PUSH2 0x19CA JUMPI DUP3 SWAP1 SUB PUSH1 0x1F AND DUP3 ADD SWAP2 JUMPDEST POP POP POP POP POP DUP2 MSTORE PUSH1 0x20 ADD PUSH1 0x2 DUP3 ADD DUP1 SLOAD PUSH2 0x1A00 SWAP1 PUSH2 0x238A JUMP JUMPDEST DUP1 PUSH1 0x1F ADD PUSH1 0x20 DUP1 SWAP2 DIV MUL PUSH1 0x20 ADD PUSH1 0x40 MLOAD SWAP1 DUP2 ADD PUSH1 0x40 MSTORE DUP1 SWAP3 SWAP2 SWAP1 DUP2 DUP2 MSTORE PUSH1 0x20 ADD DUP3 DUP1 SLOAD PUSH2 0x1A2C SWAP1 PUSH2 0x238A JUMP JUMPDEST DUP1 ISZERO PUSH2 0x1A77 JUMPI DUP1 PUSH1 0x1F LT PUSH2 0x1A4E JUMPI PUSH2 0x100 DUP1 DUP4 SLOAD DIV MUL DUP4 MSTORE SWAP2 PUSH1 0x20 ADD SWAP2 PUSH2 0x1A77 JUMP JUMPDEST DUP3 ADD SWAP2 SWAP1 PUSH0 MSTORE PUSH1 0x20 PUSH0 KECCAK256 SWAP1 JUMPDEST DUP2 SLOAD DUP2 MSTORE SWAP1 PUSH1 0x1 ADD SWAP1 PUSH1 0x20 ADD DUP1 DUP4 GT PUSH2 0x1A5A JUMPI DUP3 SWAP1 SUB PUSH1 0x1F AND DUP3 ADD SWAP2 JUMPDEST POP POP POP SWAP2 DUP4 MSTORE POP POP PUSH1 0x3 DUP3 ADD SLOAD PUSH1 0x20 DUP3 ADD MSTORE PUSH1 0x4 DUP3 ADD SLOAD PUSH1 0x40 DUP3 ADD MSTORE PUSH1 0x5 DUP3 ADD SLOAD PUSH1 0x60 DUP3 ADD MSTORE PUSH1 0x6 DUP3 ADD SLOAD PUSH1 0x1 PUSH1 0x1 PUSH1 0xA0 SHL SUB AND PUSH1 0x80 DUP3 ADD MSTORE PUSH1 0x7 DUP3 ADD DUP1 SLOAD PUSH1 0xA0 SWAP1 SWAP3 ADD SWAP2 PUSH2 0x1AC5 SWAP1 PUSH2 0x238A JUMP JUMPDEST DUP1 PUSH1 0x1F ADD PUSH1 0x20 DUP1 SWAP2 DIV MUL PUSH1 0x20 ADD PUSH1 0x40 MLOAD SWAP1 DUP2 ADD PUSH1 0x40 MSTORE DUP1 SWAP3 SWAP2 SWAP1 DUP2 DUP2 MSTORE PUSH1 0x20 ADD DUP3 DUP1 SLOAD PUSH2 0x1AF1 SWAP1 PUSH2 0x238A JUMP JUMPDEST DUP1 ISZERO PUSH2 0x1B3C JUMPI DUP1 PUSH1 0x1F LT PUSH2 0x1B13 JUMPI PUSH2 0x100 DUP1 DUP4 SLOAD DIV MUL DUP4 MSTORE SWAP2 PUSH1 0x20 ADD SWAP2 PUSH2 0x1B3C JUMP JUMPDEST DUP3 ADD SWAP2 SWAP1 PUSH0 MSTORE PUSH1 0x20 PUSH0 KECCAK256 SWAP1 JUMPDEST DUP2 SLOAD DUP2 MSTORE SWAP1 PUSH1 0x1 ADD SWAP1 PUSH1 0x20 ADD DUP1 DUP4 GT PUSH2 0x1B1F JUMPI DUP3 SWAP1 SUB PUSH1 0x1F AND DUP3 ADD SWAP2 JUMPDEST POP POP POP POP POP DUP2 MSTORE POP POP DUP2 MSTORE PUSH1 0x20 ADD SWAP1 PUSH1 0x1 ADD SWAP1 PUSH2 0x18AF JUMP JUMPDEST POP POP POP POP SWAP1 POP SWAP1 JUMP JUMPDEST PUSH0 DUP2 PUSH1 0x40 MLOAD PUSH1 0x20 ADD PUSH2 0x1B6F SWAP2 SWAP1 PUSH2 0x2503 JUMP JUMPDEST PUSH1 0x40 MLOAD PUSH1 0x20 DUP2 DUP4 SUB SUB DUP2 MSTORE SWAP1 PUSH1 0x40 MSTORE DUP1 MLOAD SWAP1 PUSH1 0x20 ADD KECCAK256 DUP4 PUSH1 0x40 MLOAD PUSH1 0x20 ADD PUSH2 0x1B96 SWAP2 SWAP1 PUSH2 0x2503 JUMP JUMPDEST PUSH1 0x40 MLOAD PUSH1 0x20 DUP2 DUP4 SUB SUB DUP2 MSTORE SWAP1 PUSH1 0x40 MSTORE DUP1 MLOAD SWAP1 PUSH1 0x20 ADD KECCAK256 EQ SWAP1 POP SWAP3 SWAP2 POP POP JUMP JUMPDEST PUSH0 DUP2 MLOAD GT PUSH2 0x1C10 JUMPI PUSH1 0x40 MLOAD PUSH3 0x461BCD PUSH1 0xE5 SHL DUP2 MSTORE PUSH1 0x20 PUSH1 0x4 DUP3 ADD MSTORE PUSH1 0x22 PUSH1 0x24 DUP3 ADD MSTORE PUSH32 0x64656C6574654368756E6B496E4E6F64653A20496E76616C6964205F66696C65 PUSH1 0x44 DUP3 ADD MSTORE PUSH2 0x1259 PUSH1 0xF2 SHL PUSH1 0x64 DUP3 ADD MSTORE PUSH1 0x84 ADD PUSH2 0x250 JUMP JUMPDEST PUSH1 0x4 DUP2 PUSH1 0x40 MLOAD PUSH2 0x1C20 SWAP2 SWAP1 PUSH2 0x2503 JUMP JUMPDEST SWAP1 DUP2 MSTORE PUSH1 0x20 ADD PUSH1 0x40 MLOAD DUP1 SWAP2 SUB SWAP1 KECCAK256 PUSH0 PUSH2 0x1C39 SWAP2 SWAP1 PUSH2 0x1DAC JUMP JUMPDEST POP JUMP JUMPDEST PUSH0 DUP2 MLOAD GT PUSH2 0x1C8C JUMPI PUSH1 0x40 MLOAD PUSH3 0x461BCD PUSH1 0xE5 SHL DUP2 MSTORE PUSH1 0x20 PUSH1 0x4 DUP3 ADD MSTORE PUSH1 0x1F PUSH1 0x24 DUP3 ADD MSTORE PUSH32 0x64656C65746546696C65486173683A20496E76616C6964205F66696C65496400 PUSH1 0x44 DUP3 ADD MSTORE PUSH1 0x64 ADD PUSH2 0x250 JUMP JUMPDEST PUSH0 DUP1 SHL PUSH1 0x2 DUP3 PUSH1 0x40 MLOAD PUSH2 0x1C9F SWAP2 SWAP1 PUSH2 0x2503 JUMP JUMPDEST SWAP1 DUP2 MSTORE PUSH1 0x20 ADD PUSH1 0x40 MLOAD DUP1 SWAP2 SUB SWAP1 KECCAK256 SLOAD SUB PUSH2 0x1D07 JUMPI PUSH1 0x40 MLOAD PUSH3 0x461BCD PUSH1 0xE5 SHL DUP2 MSTORE PUSH1 0x20 PUSH1 0x4 DUP3 ADD MSTORE PUSH1 0x24 DUP1 DUP3 ADD MSTORE PUSH32 0x64656C65746546696C65486173683A20496E76616C69642066696C654964546F PUSH1 0x44 DUP3 ADD MSTORE PUSH4 0x90C2E6D PUSH1 0xE3 SHL PUSH1 0x64 DUP3 ADD MSTORE PUSH1 0x84 ADD PUSH2 0x250 JUMP JUMPDEST PUSH1 0x2 DUP2 PUSH1 0x40 MLOAD PUSH2 0x1D17 SWAP2 SWAP1 PUSH2 0x2503 JUMP JUMPDEST SWAP1 DUP2 MSTORE PUSH1 0x20 ADD PUSH1 0x40 MLOAD DUP1 SWAP2 SUB SWAP1 KECCAK256 PUSH0 SWAP1 SSTORE POP JUMP JUMPDEST PUSH2 0x1C39 DUP2 PUSH2 0x1D8D JUMP JUMPDEST PUSH0 DUP1 JUMPDEST DUP3 MLOAD DUP2 LT ISZERO PUSH2 0x1D84 JUMPI DUP4 PUSH1 0x1 PUSH1 0x1 PUSH1 0xA0 SHL SUB AND DUP4 DUP3 DUP2 MLOAD DUP2 LT PUSH2 0x1D5C JUMPI PUSH2 0x1D5C PUSH2 0x2337 JUMP JUMPDEST PUSH1 0x20 MUL PUSH1 0x20 ADD ADD MLOAD PUSH1 0x1 PUSH1 0x1 PUSH1 0xA0 SHL SUB AND SUB PUSH2 0x1D7C JUMPI PUSH1 0x1 SWAP2 POP POP PUSH2 0x120A JUMP JUMPDEST PUSH1 0x1 ADD PUSH2 0x1D37 JUMP JUMPDEST POP PUSH0 SWAP4 SWAP3 POP POP POP JUMP JUMPDEST PUSH0 PUSH11 0x636F6E736F6C652E6C6F67 SWAP1 POP PUSH0 DUP1 DUP4 MLOAD PUSH1 0x20 DUP6 ADD DUP5 GAS STATICCALL POP POP POP JUMP JUMPDEST POP DUP1 SLOAD PUSH0 DUP3 SSTORE SWAP1 PUSH0 MSTORE PUSH1 0x20 PUSH0 KECCAK256 SWAP1 DUP2 ADD SWAP1 PUSH2 0x1C39 SWAP2 SWAP1 PUSH2 0x1E67 JUMP JUMPDEST PUSH1 0x40 MLOAD DUP1 PUSH1 0x40 ADD PUSH1 0x40 MSTORE DUP1 PUSH2 0x1DDA PUSH2 0x1DE7 JUMP JUMPDEST DUP2 MSTORE PUSH1 0x20 ADD PUSH1 0x60 DUP2 MSTORE POP SWAP1 JUMP JUMPDEST PUSH1 0x40 MLOAD DUP1 PUSH2 0x100 ADD PUSH1 0x40 MSTORE DUP1 PUSH1 0x60 DUP2 MSTORE PUSH1 0x20 ADD PUSH1 0x60 DUP2 MSTORE PUSH1 0x20 ADD PUSH1 0x60 DUP2 MSTORE PUSH1 0x20 ADD PUSH0 DUP1 NOT AND DUP2 MSTORE PUSH1 0x20 ADD PUSH0 DUP2 MSTORE PUSH1 0x20 ADD PUSH0 DUP2 MSTORE PUSH1 0x20 ADD PUSH0 PUSH1 0x1 PUSH1 0x1 PUSH1 0xA0 SHL SUB AND DUP2 MSTORE PUSH1 0x20 ADD PUSH1 0x60 DUP2 MSTORE POP SWAP1 JUMP JUMPDEST POP DUP1 SLOAD PUSH2 0x1E40 SWAP1 PUSH2 0x238A JUMP JUMPDEST PUSH0 DUP3 SSTORE DUP1 PUSH1 0x1F LT PUSH2 0x1E4F JUMPI POP POP JUMP JUMPDEST PUSH1 0x1F ADD PUSH1 0x20 SWAP1 DIV SWAP1 PUSH0 MSTORE PUSH1 0x20 PUSH0 KECCAK256 SWAP1 DUP2 ADD SWAP1 PUSH2 0x1C39 SWAP2 SWAP1 JUMPDEST JUMPDEST DUP1 DUP3 GT ISZERO PUSH2 0x1E7B JUMPI PUSH0 DUP2 SSTORE PUSH1 0x1 ADD PUSH2 0x1E68 JUMP JUMPDEST POP SWAP1 JUMP JUMPDEST DUP1 CALLDATALOAD PUSH1 0x1 PUSH1 0x1 PUSH1 0xA0 SHL SUB DUP2 AND DUP2 EQ PUSH2 0x1E95 JUMPI PUSH0 DUP1 REVERT JUMPDEST SWAP2 SWAP1 POP JUMP JUMPDEST PUSH0 DUP1 PUSH1 0x40 DUP4 DUP6 SUB SLT ISZERO PUSH2 0x1EAB JUMPI PUSH0 DUP1 REVERT JUMPDEST PUSH2 0x1EB4 DUP4 PUSH2 0x1E7F JUMP JUMPDEST SWAP5 PUSH1 0x20 SWAP4 SWAP1 SWAP4 ADD CALLDATALOAD SWAP4 POP POP POP JUMP JUMPDEST PUSH0 PUSH1 0x20 DUP3 DUP5 SUB SLT ISZERO PUSH2 0x1ED2 JUMPI PUSH0 DUP1 REVERT JUMPDEST PUSH2 0x1EDB DUP3 PUSH2 0x1E7F JUMP JUMPDEST SWAP4 SWAP3 POP POP POP JUMP JUMPDEST PUSH4 0x4E487B71 PUSH1 0xE0 SHL PUSH0 MSTORE PUSH1 0x41 PUSH1 0x4 MSTORE PUSH1 0x24 PUSH0 REVERT JUMPDEST PUSH1 0x40 MLOAD PUSH1 0x1F DUP3 ADD PUSH1 0x1F NOT AND DUP2 ADD PUSH1 0x1 PUSH1 0x1 PUSH1 0x40 SHL SUB DUP2 GT DUP3 DUP3 LT OR ISZERO PUSH2 0x1F1E JUMPI PUSH2 0x1F1E PUSH2 0x1EE2 JUMP JUMPDEST PUSH1 0x40 MSTORE SWAP2 SWAP1 POP JUMP JUMPDEST PUSH0 DUP3 PUSH1 0x1F DUP4 ADD SLT PUSH2 0x1F35 JUMPI PUSH0 DUP1 REVERT JUMPDEST DUP2 CALLDATALOAD PUSH1 0x1 PUSH1 0x1 PUSH1 0x40 SHL SUB DUP2 GT ISZERO PUSH2 0x1F4E JUMPI PUSH2 0x1F4E PUSH2 0x1EE2 JUMP JUMPDEST PUSH2 0x1F61 PUSH1 0x1F DUP3 ADD PUSH1 0x1F NOT AND PUSH1 0x20 ADD PUSH2 0x1EF6 JUMP JUMPDEST DUP2 DUP2 MSTORE DUP5 PUSH1 0x20 DUP4 DUP7 ADD ADD GT ISZERO PUSH2 0x1F75 JUMPI PUSH0 DUP1 REVERT JUMPDEST DUP2 PUSH1 0x20 DUP6 ADD PUSH1 0x20 DUP4 ADD CALLDATACOPY PUSH0 SWAP2 DUP2 ADD PUSH1 0x20 ADD SWAP2 SWAP1 SWAP2 MSTORE SWAP4 SWAP3 POP POP POP JUMP JUMPDEST PUSH0 DUP1 PUSH1 0x40 DUP4 DUP6 SUB SLT ISZERO PUSH2 0x1FA2 JUMPI PUSH0 DUP1 REVERT JUMPDEST DUP3 CALLDATALOAD PUSH1 0x1 PUSH1 0x1 PUSH1 0x40 SHL SUB DUP2 GT ISZERO PUSH2 0x1FB7 JUMPI PUSH0 DUP1 REVERT JUMPDEST PUSH2 0x1FC3 DUP6 DUP3 DUP7 ADD PUSH2 0x1F26 JUMP JUMPDEST SWAP6 PUSH1 0x20 SWAP5 SWAP1 SWAP5 ADD CALLDATALOAD SWAP5 POP POP POP POP JUMP JUMPDEST PUSH1 0x1 PUSH1 0x1 PUSH1 0xA0 SHL SUB SWAP2 SWAP1 SWAP2 AND DUP2 MSTORE PUSH1 0x20 ADD SWAP1 JUMP JUMPDEST PUSH0 DUP3 PUSH1 0x1F DUP4 ADD SLT PUSH2 0x1FF5 JUMPI PUSH0 DUP1 REVERT JUMPDEST DUP2 CALLDATALOAD PUSH1 0x20 PUSH1 0x1 PUSH1 0x1 PUSH1 0x40 SHL SUB DUP1 DUP4 GT ISZERO PUSH2 0x2011 JUMPI PUSH2 0x2011 PUSH2 0x1EE2 JUMP JUMPDEST DUP3 PUSH1 0x5 SHL PUSH2 0x2020 DUP4 DUP3 ADD PUSH2 0x1EF6 JUMP JUMPDEST SWAP4 DUP5 MSTORE DUP6 DUP2 ADD DUP4 ADD SWAP4 DUP4 DUP2 ADD SWAP1 DUP9 DUP7 GT ISZERO PUSH2 0x2039 JUMPI PUSH0 DUP1 REVERT JUMPDEST DUP5 DUP9 ADD SWAP3 POP JUMPDEST DUP6 DUP4 LT ISZERO PUSH2 0x2073 JUMPI DUP3 CALLDATALOAD DUP5 DUP2 GT ISZERO PUSH2 0x2055 JUMPI PUSH0 DUP1 REVERT JUMPDEST PUSH2 0x2063 DUP11 DUP8 DUP4 DUP13 ADD ADD PUSH2 0x1F26 JUMP JUMPDEST DUP4 MSTORE POP SWAP2 DUP5 ADD SWAP2 SWAP1 DUP5 ADD SWAP1 PUSH2 0x203F JUMP JUMPDEST SWAP9 SWAP8 POP POP POP POP POP POP POP POP JUMP JUMPDEST PUSH0 DUP1 PUSH0 DUP1 PUSH0 DUP1 PUSH1 0xC0 DUP8 DUP10 SUB SLT ISZERO PUSH2 0x2094 JUMPI PUSH0 DUP1 REVERT JUMPDEST DUP7 CALLDATALOAD PUSH1 0x1 PUSH1 0x1 PUSH1 0x40 SHL SUB DUP1 DUP3 GT ISZERO PUSH2 0x20AA JUMPI PUSH0 DUP1 REVERT JUMPDEST PUSH2 0x20B6 DUP11 DUP4 DUP12 ADD PUSH2 0x1FE6 JUMP JUMPDEST SWAP8 POP PUSH1 0x20 DUP10 ADD CALLDATALOAD SWAP2 POP DUP1 DUP3 GT ISZERO PUSH2 0x20CB JUMPI PUSH0 DUP1 REVERT JUMPDEST PUSH2 0x20D7 DUP11 DUP4 DUP12 ADD PUSH2 0x1F26 JUMP JUMPDEST SWAP7 POP PUSH1 0x40 DUP10 ADD CALLDATALOAD SWAP2 POP DUP1 DUP3 GT ISZERO PUSH2 0x20EC JUMPI PUSH0 DUP1 REVERT JUMPDEST PUSH2 0x20F8 DUP11 DUP4 DUP12 ADD PUSH2 0x1F26 JUMP JUMPDEST SWAP6 POP PUSH1 0x60 DUP10 ADD CALLDATALOAD SWAP2 POP DUP1 DUP3 GT ISZERO PUSH2 0x210D JUMPI PUSH0 DUP1 REVERT JUMPDEST PUSH2 0x2119 DUP11 DUP4 DUP12 ADD PUSH2 0x1F26 JUMP JUMPDEST SWAP5 POP PUSH1 0x80 DUP10 ADD CALLDATALOAD SWAP2 POP DUP1 DUP3 GT ISZERO PUSH2 0x212E JUMPI PUSH0 DUP1 REVERT JUMPDEST POP PUSH2 0x213B DUP10 DUP3 DUP11 ADD PUSH2 0x1F26 JUMP JUMPDEST SWAP3 POP POP PUSH1 0xA0 DUP8 ADD CALLDATALOAD SWAP1 POP SWAP3 SWAP6 POP SWAP3 SWAP6 POP SWAP3 SWAP6 JUMP JUMPDEST PUSH0 PUSH1 0x20 DUP3 DUP5 SUB SLT ISZERO PUSH2 0x215F JUMPI PUSH0 DUP1 REVERT JUMPDEST DUP2 CALLDATALOAD PUSH1 0x1 PUSH1 0x1 PUSH1 0x40 SHL SUB DUP2 GT ISZERO PUSH2 0x2174 JUMPI PUSH0 DUP1 REVERT JUMPDEST PUSH2 0x2180 DUP5 DUP3 DUP6 ADD PUSH2 0x1F26 JUMP JUMPDEST SWAP5 SWAP4 POP POP POP POP JUMP JUMPDEST PUSH0 JUMPDEST DUP4 DUP2 LT ISZERO PUSH2 0x21A2 JUMPI DUP2 DUP2 ADD MLOAD DUP4 DUP3 ADD MSTORE PUSH1 0x20 ADD PUSH2 0x218A JUMP JUMPDEST POP POP PUSH0 SWAP2 ADD MSTORE JUMP JUMPDEST PUSH0 DUP2 MLOAD DUP1 DUP5 MSTORE PUSH2 0x21C1 DUP2 PUSH1 0x20 DUP7 ADD PUSH1 0x20 DUP7 ADD PUSH2 0x2188 JUMP JUMPDEST PUSH1 0x1F ADD PUSH1 0x1F NOT AND SWAP3 SWAP1 SWAP3 ADD PUSH1 0x20 ADD SWAP3 SWAP2 POP POP JUMP JUMPDEST PUSH0 DUP2 MLOAD DUP1 DUP5 MSTORE PUSH1 0x20 DUP1 DUP6 ADD SWAP5 POP PUSH1 0x20 DUP5 ADD PUSH0 JUMPDEST DUP4 DUP2 LT ISZERO PUSH2 0x220D JUMPI DUP2 MLOAD PUSH1 0x1 PUSH1 0x1 PUSH1 0xA0 SHL SUB AND DUP8 MSTORE SWAP6 DUP3 ADD SWAP6 SWAP1 DUP3 ADD SWAP1 PUSH1 0x1 ADD PUSH2 0x21E8 JUMP JUMPDEST POP SWAP5 SWAP6 SWAP5 POP POP POP POP POP JUMP JUMPDEST PUSH1 0x20 DUP2 MSTORE PUSH0 DUP3 MLOAD PUSH1 0x40 PUSH1 0x20 DUP5 ADD MSTORE DUP1 MLOAD PUSH2 0x100 DUP1 PUSH1 0x60 DUP7 ADD MSTORE PUSH2 0x223F PUSH2 0x160 DUP7 ADD DUP4 PUSH2 0x21AA JUMP JUMPDEST SWAP2 POP PUSH1 0x20 DUP4 ADD MLOAD PUSH1 0x5F NOT DUP1 DUP8 DUP6 SUB ADD PUSH1 0x80 DUP9 ADD MSTORE PUSH2 0x225D DUP5 DUP4 PUSH2 0x21AA JUMP JUMPDEST SWAP4 POP PUSH1 0x40 DUP6 ADD MLOAD SWAP2 POP DUP1 DUP8 DUP6 SUB ADD PUSH1 0xA0 DUP9 ADD MSTORE PUSH2 0x227A DUP5 DUP4 PUSH2 0x21AA JUMP JUMPDEST SWAP4 POP PUSH1 0x60 DUP6 ADD MLOAD PUSH1 0xC0 DUP9 ADD MSTORE PUSH1 0x80 DUP6 ADD MLOAD PUSH1 0xE0 DUP9 ADD MSTORE PUSH1 0xA0 DUP6 ADD MLOAD DUP4 DUP9 ADD MSTORE PUSH1 0xC0 DUP6 ADD MLOAD SWAP3 POP PUSH2 0x22B6 PUSH2 0x120 DUP9 ADD DUP5 PUSH1 0x1 PUSH1 0x1 PUSH1 0xA0 SHL SUB AND SWAP1 MSTORE JUMP JUMPDEST PUSH1 0xE0 DUP6 ADD MLOAD SWAP5 POP DUP1 DUP8 DUP6 SUB ADD PUSH2 0x140 DUP9 ADD MSTORE POP POP POP PUSH2 0x22D5 DUP2 DUP4 PUSH2 0x21AA JUMP JUMPDEST SWAP2 POP POP PUSH1 0x20 DUP5 ADD MLOAD PUSH1 0x1F NOT DUP5 DUP4 SUB ADD PUSH1 0x40 DUP6 ADD MSTORE PUSH2 0x22F3 DUP3 DUP3 PUSH2 0x21D5 JUMP JUMPDEST SWAP6 SWAP5 POP POP POP POP POP JUMP JUMPDEST PUSH1 0x20 DUP2 MSTORE PUSH0 PUSH2 0x1EDB PUSH1 0x20 DUP4 ADD DUP5 PUSH2 0x21D5 JUMP JUMPDEST PUSH0 PUSH1 0x20 DUP3 DUP5 SUB SLT ISZERO PUSH2 0x231E JUMPI PUSH0 DUP1 REVERT JUMPDEST POP CALLDATALOAD SWAP2 SWAP1 POP JUMP JUMPDEST PUSH1 0x20 DUP2 MSTORE PUSH0 PUSH2 0x1EDB PUSH1 0x20 DUP4 ADD DUP5 PUSH2 0x21AA JUMP JUMPDEST PUSH4 0x4E487B71 PUSH1 0xE0 SHL PUSH0 MSTORE PUSH1 0x32 PUSH1 0x4 MSTORE PUSH1 0x24 PUSH0 REVERT JUMPDEST PUSH4 0x4E487B71 PUSH1 0xE0 SHL PUSH0 MSTORE PUSH1 0x11 PUSH1 0x4 MSTORE PUSH1 0x24 PUSH0 REVERT JUMPDEST PUSH0 PUSH1 0x1 DUP3 ADD PUSH2 0x2370 JUMPI PUSH2 0x2370 PUSH2 0x234B JUMP JUMPDEST POP PUSH1 0x1 ADD SWAP1 JUMP JUMPDEST DUP2 DUP2 SUB DUP2 DUP2 GT ISZERO PUSH2 0x120A JUMPI PUSH2 0x120A PUSH2 0x234B JUMP JUMPDEST PUSH1 0x1 DUP2 DUP2 SHR SWAP1 DUP3 AND DUP1 PUSH2 0x239E JUMPI PUSH1 0x7F DUP3 AND SWAP2 POP JUMPDEST PUSH1 0x20 DUP3 LT DUP2 SUB PUSH2 0x23BC JUMPI PUSH4 0x4E487B71 PUSH1 0xE0 SHL PUSH0 MSTORE PUSH1 0x22 PUSH1 0x4 MSTORE PUSH1 0x24 PUSH0 REVERT JUMPDEST POP SWAP2 SWAP1 POP JUMP JUMPDEST PUSH1 0x1F DUP3 GT ISZERO PUSH2 0x108F JUMPI DUP1 PUSH0 MSTORE PUSH1 0x20 PUSH0 KECCAK256 PUSH1 0x1F DUP5 ADD PUSH1 0x5 SHR DUP2 ADD PUSH1 0x20 DUP6 LT ISZERO PUSH2 0x23E7 JUMPI POP DUP1 JUMPDEST PUSH1 0x1F DUP5 ADD PUSH1 0x5 SHR DUP3 ADD SWAP2 POP JUMPDEST DUP2 DUP2 LT ISZERO PUSH2 0x2406 JUMPI PUSH0 DUP2 SSTORE PUSH1 0x1 ADD PUSH2 0x23F3 JUMP JUMPDEST POP POP POP POP POP JUMP JUMPDEST DUP2 MLOAD PUSH1 0x1 PUSH1 0x1 PUSH1 0x40 SHL SUB DUP2 GT ISZERO PUSH2 0x2426 JUMPI PUSH2 0x2426 PUSH2 0x1EE2 JUMP JUMPDEST PUSH2 0x243A DUP2 PUSH2 0x2434 DUP5 SLOAD PUSH2 0x238A JUMP JUMPDEST DUP5 PUSH2 0x23C2 JUMP JUMPDEST PUSH1 0x20 DUP1 PUSH1 0x1F DUP4 GT PUSH1 0x1 DUP2 EQ PUSH2 0x246D JUMPI PUSH0 DUP5 ISZERO PUSH2 0x2456 JUMPI POP DUP6 DUP4 ADD MLOAD JUMPDEST PUSH0 NOT PUSH1 0x3 DUP7 SWAP1 SHL SHR NOT AND PUSH1 0x1 DUP6 SWAP1 SHL OR DUP6 SSTORE PUSH2 0x24C4 JUMP JUMPDEST PUSH0 DUP6 DUP2 MSTORE PUSH1 0x20 DUP2 KECCAK256 PUSH1 0x1F NOT DUP7 AND SWAP2 JUMPDEST DUP3 DUP2 LT ISZERO PUSH2 0x249B JUMPI DUP9 DUP7 ADD MLOAD DUP3 SSTORE SWAP5 DUP5 ADD SWAP5 PUSH1 0x1 SWAP1 SWAP2 ADD SWAP1 DUP5 ADD PUSH2 0x247C JUMP JUMPDEST POP DUP6 DUP3 LT ISZERO PUSH2 0x24B8 JUMPI DUP8 DUP6 ADD MLOAD PUSH0 NOT PUSH1 0x3 DUP9 SWAP1 SHL PUSH1 0xF8 AND SHR NOT AND DUP2 SSTORE JUMPDEST POP POP PUSH1 0x1 DUP5 PUSH1 0x1 SHL ADD DUP6 SSTORE JUMPDEST POP POP POP POP POP POP JUMP JUMPDEST PUSH4 0x4E487B71 PUSH1 0xE0 SHL PUSH0 MSTORE PUSH1 0x31 PUSH1 0x4 MSTORE PUSH1 0x24 PUSH0 REVERT JUMPDEST PUSH1 0x1 PUSH1 0x1 PUSH1 0xA0 SHL SUB DUP4 AND DUP2 MSTORE PUSH1 0x40 PUSH1 0x20 DUP3 ADD DUP2 SWAP1 MSTORE PUSH0 SWAP1 PUSH2 0x2180 SWAP1 DUP4 ADD DUP5 PUSH2 0x21AA JUMP JUMPDEST PUSH0 DUP3 MLOAD PUSH2 0x2514 DUP2 DUP5 PUSH1 0x20 DUP8 ADD PUSH2 0x2188 JUMP JUMPDEST SWAP2 SWAP1 SWAP2 ADD SWAP3 SWAP2 POP POP JUMP JUMPDEST PUSH1 0x60 DUP2 MSTORE PUSH0 PUSH2 0x2530 PUSH1 0x60 DUP4 ADD DUP7 PUSH2 0x21AA JUMP JUMPDEST PUSH1 0x20 DUP4 ADD SWAP5 SWAP1 SWAP5 MSTORE POP PUSH1 0x40 ADD MSTORE SWAP2 SWAP1 POP JUMP JUMPDEST PUSH0 DUP3 PUSH2 0x255C JUMPI PUSH4 0x4E487B71 PUSH1 0xE0 SHL PUSH0 MSTORE PUSH1 0x12 PUSH1 0x4 MSTORE PUSH1 0x24 PUSH0 REVERT JUMPDEST POP MOD SWAP1 JUMP JUMPDEST DUP1 DUP3 ADD DUP1 DUP3 GT ISZERO PUSH2 0x120A JUMPI PUSH2 0x120A PUSH2 0x234B JUMP JUMPDEST PUSH0 DUP4 MLOAD PUSH2 0x2585 DUP2 DUP5 PUSH1 0x20 DUP9 ADD PUSH2 0x2188 JUMP JUMPDEST DUP4 MLOAD SWAP1 DUP4 ADD SWAP1 PUSH2 0x2599 DUP2 DUP4 PUSH1 0x20 DUP9 ADD PUSH2 0x2188 JUMP JUMPDEST ADD SWAP5 SWAP4 POP POP POP POP JUMP JUMPDEST PUSH1 0xE0 DUP2 MSTORE PUSH0 PUSH2 0x25B4 PUSH1 0xE0 DUP4 ADD DUP11 PUSH2 0x21AA JUMP JUMPDEST DUP3 DUP2 SUB PUSH1 0x20 DUP5 ADD MSTORE PUSH2 0x25C6 DUP2 DUP11 PUSH2 0x21AA JUMP JUMPDEST SWAP1 POP DUP3 DUP2 SUB PUSH1 0x40 DUP5 ADD MSTORE PUSH2 0x25DA DUP2 DUP10 PUSH2 0x21AA JUMP JUMPDEST PUSH1 0x60 DUP5 ADD SWAP8 SWAP1 SWAP8 MSTORE POP POP PUSH1 0x80 DUP2 ADD SWAP4 SWAP1 SWAP4 MSTORE PUSH1 0xA0 DUP4 ADD SWAP2 SWAP1 SWAP2 MSTORE PUSH1 0x1 PUSH1 0x1 PUSH1 0xA0 SHL SUB AND PUSH1 0xC0 SWAP1 SWAP2 ADD MSTORE SWAP4 SWAP3 POP POP POP JUMP INVALID PUSH20 0x746F726546696C654D657461646174613A20496E PUSH23 0x616C6964205F66696C6553697A6573746F726546696C65 0x4D PUSH6 0x746164617461 GASPRICE KECCAK256 0x49 PUSH15 0x76616C6964205F66696C6554797065 PUSH0 SWAP2 0xB0 0xAF 0xD2 0xC6 0xEF DUP14 0xA9 0x21 CALLDATACOPY 0xBA SWAP1 PUSH28 0xCCDC85EC4856A15AD39DE3E0EFF02BE6D70E73746F726546696C653A KECCAK256 0x4E PUSH16 0x20617661696C61626C65206E6F646573 KECCAK256 PUSH7 0x6F756E6473746F PUSH19 0x6546696C654D657461646174613A20496E7661 PUSH13 0x6964205F756E69717565496473 PUSH21 0x6F726546696C654D657461646174613A20496E7661 PUSH13 0x69642073656E64657272657472 PUSH10 0x65766546696C65446574 PUSH2 0x696C PUSH20 0x3A2046696C65204E6F7420466F756E6472657472 PUSH10 0x65766546696C65446574 PUSH2 0x696C PUSH20 0x3A20556E617574686F72697A65642063616C6C65 PUSH19 0x206164647265737373746F726546696C654D65 PUSH21 0x61646174613A20496E76616C6964205F66696C654E PUSH2 0x6D65 PUSH20 0x746F726546696C654D657461646174613A20496E PUSH23 0x616C6964205F66696C6548617368A26469706673582212 KECCAK256 SLOAD GT 0xD0 SWAP1 0xFB 0xF7 0xB5 0xB2 LOG1 MULMOD EXTCODEHASH 0xE0 0x2C 0x4D GASPRICE CALLER 0xA5 0xD7 SHL LOG1 0x2C PUSH4 0xD1CB3F9A SWAP12 PUSH19 0xEAAA0BC064736F6C6343000816003360806040 MSTORE PUSH1 0x3 PUSH0 SSTORE PUSH1 0x64 PUSH1 0x1 SSTORE CALLVALUE DUP1 ISZERO PUSH2 0x18 JUMPI PUSH0 DUP1 REVERT JUMPDEST POP PUSH1 0x6 DUP1 SLOAD PUSH1 0x1 PUSH1 0x1 PUSH1 0xA0 SHL SUB NOT AND CALLER OR SWAP1 SSTORE PUSH2 0x2CA7 DUP1 PUSH2 0x38 PUSH0 CODECOPY PUSH0 RETURN INVALID PUSH1 0x80 PUSH1 0x40 MSTORE CALLVALUE DUP1 ISZERO PUSH2 0xF JUMPI PUSH0 DUP1 REVERT JUMPDEST POP PUSH1 0x4 CALLDATASIZE LT PUSH2 0x126 JUMPI PUSH0 CALLDATALOAD PUSH1 0xE0 SHR DUP1 PUSH4 0x7253839 EQ PUSH2 0x12A JUMPI DUP1 PUSH4 0x11BD77FE EQ PUSH2 0x13F JUMPI DUP1 PUSH4 0x189A5A17 EQ PUSH2 0x152 JUMPI DUP1 PUSH4 0x1F0C6814 EQ PUSH2 0x1A8 JUMPI DUP1 PUSH4 0x30E00C9B EQ PUSH2 0x1BB JUMPI DUP1 PUSH4 0x4AD7960F EQ PUSH2 0x1DB JUMPI DUP1 PUSH4 0x528AECCE EQ PUSH2 0x1EE JUMPI DUP1 PUSH4 0x583CAF96 EQ PUSH2 0x201 JUMPI DUP1 PUSH4 0x5FFD7C06 EQ PUSH2 0x221 JUMPI DUP1 PUSH4 0x6296610B EQ PUSH2 0x237 JUMPI DUP1 PUSH4 0x64F93728 EQ PUSH2 0x24A JUMPI DUP1 PUSH4 0x7D941522 EQ PUSH2 0x25F JUMPI DUP1 PUSH4 0x8DA5CB5B EQ PUSH2 0x282 JUMPI DUP1 PUSH4 0x967C2BBD EQ PUSH2 0x295 JUMPI DUP1 PUSH4 0xA9910054 EQ PUSH2 0x2B5 JUMPI DUP1 PUSH4 0xB23793D6 EQ PUSH2 0x2C8 JUMPI DUP1 PUSH4 0xC8084B12 EQ PUSH2 0x2DB JUMPI DUP1 PUSH4 0xCD889944 EQ PUSH2 0x2EE JUMPI DUP1 PUSH4 0xCDF1E848 EQ PUSH2 0x2F6 JUMPI DUP1 PUSH4 0xCF86BF93 EQ PUSH2 0x309 JUMPI DUP1 PUSH4 0xD433B6FA EQ PUSH2 0x312 JUMPI DUP1 PUSH4 0xD6BC4A87 EQ PUSH2 0x325 JUMPI DUP1 PUSH4 0xF91C122F EQ PUSH2 0x35C JUMPI DUP1 PUSH4 0xFE72AE13 EQ PUSH2 0x36F JUMPI JUMPDEST PUSH0 DUP1 REVERT JUMPDEST PUSH2 0x13D PUSH2 0x138 CALLDATASIZE PUSH1 0x4 PUSH2 0x21E8 JUMP JUMPDEST PUSH2 0x382 JUMP JUMPDEST STOP JUMPDEST PUSH2 0x13D PUSH2 0x14D CALLDATASIZE PUSH1 0x4 PUSH2 0x21E8 JUMP JUMPDEST PUSH2 0x390 JUMP JUMPDEST PUSH2 0x184 PUSH2 0x160 CALLDATASIZE PUSH1 0x4 PUSH2 0x2210 JUMP JUMPDEST PUSH1 0x3 PUSH1 0x20 MSTORE PUSH0 SWAP1 DUP2 MSTORE PUSH1 0x40 SWAP1 KECCAK256 DUP1 SLOAD PUSH1 0x1 SWAP1 SWAP2 ADD SLOAD PUSH1 0x1 PUSH1 0x1 PUSH1 0xA0 SHL SUB SWAP1 SWAP2 AND SWAP1 DUP3 JUMP JUMPDEST PUSH1 0x40 DUP1 MLOAD PUSH1 0x1 PUSH1 0x1 PUSH1 0xA0 SHL SUB SWAP1 SWAP4 AND DUP4 MSTORE PUSH1 0x20 DUP4 ADD SWAP2 SWAP1 SWAP2 MSTORE ADD JUMPDEST PUSH1 0x40 MLOAD DUP1 SWAP2 SUB SWAP1 RETURN JUMPDEST PUSH2 0x13D PUSH2 0x1B6 CALLDATASIZE PUSH1 0x4 PUSH2 0x22D8 JUMP JUMPDEST PUSH2 0x4D6 JUMP JUMPDEST PUSH2 0x1CE PUSH2 0x1C9 CALLDATASIZE PUSH1 0x4 PUSH2 0x238E JUMP JUMPDEST PUSH2 0x4EC JUMP JUMPDEST PUSH1 0x40 MLOAD PUSH2 0x19F SWAP2 SWAP1 PUSH2 0x23CF JUMP JUMPDEST PUSH2 0x13D PUSH2 0x1E9 CALLDATASIZE PUSH1 0x4 PUSH2 0x21E8 JUMP JUMPDEST PUSH2 0x531 JUMP JUMPDEST PUSH2 0x13D PUSH2 0x1FC CALLDATASIZE PUSH1 0x4 PUSH2 0x247C JUMP JUMPDEST PUSH2 0x53B JUMP JUMPDEST PUSH2 0x214 PUSH2 0x20F CALLDATASIZE PUSH1 0x4 PUSH2 0x250A JUMP JUMPDEST PUSH2 0x81B JUMP JUMPDEST PUSH1 0x40 MLOAD PUSH2 0x19F SWAP2 SWAP1 PUSH2 0x2678 JUMP JUMPDEST PUSH2 0x229 PUSH0 SLOAD DUP2 JUMP JUMPDEST PUSH1 0x40 MLOAD SWAP1 DUP2 MSTORE PUSH1 0x20 ADD PUSH2 0x19F JUMP JUMPDEST PUSH2 0x229 PUSH2 0x245 CALLDATASIZE PUSH1 0x4 PUSH2 0x250A JUMP JUMPDEST PUSH2 0x9C9 JUMP JUMPDEST PUSH2 0x252 PUSH2 0x9D9 JUMP JUMPDEST PUSH1 0x40 MLOAD PUSH2 0x19F SWAP2 SWAP1 PUSH2 0x26B0 JUMP JUMPDEST PUSH2 0x272 PUSH2 0x26D CALLDATASIZE PUSH1 0x4 PUSH2 0x2712 JUMP JUMPDEST PUSH2 0x9E8 JUMP JUMPDEST PUSH1 0x40 MLOAD SWAP1 ISZERO ISZERO DUP2 MSTORE PUSH1 0x20 ADD PUSH2 0x19F JUMP JUMPDEST PUSH1 0x6 SLOAD PUSH2 0x1CE SWAP1 PUSH1 0x1 PUSH1 0x1 PUSH1 0xA0 SHL SUB AND DUP2 JUMP JUMPDEST PUSH2 0x2A8 PUSH2 0x2A3 CALLDATASIZE PUSH1 0x4 PUSH2 0x250A JUMP JUMPDEST PUSH2 0x9FA JUMP JUMPDEST PUSH1 0x40 MLOAD PUSH2 0x19F SWAP2 SWAP1 PUSH2 0x2755 JUMP JUMPDEST PUSH2 0x13D PUSH2 0x2C3 CALLDATASIZE PUSH1 0x4 PUSH2 0x250A JUMP JUMPDEST PUSH2 0xA05 JUMP JUMPDEST PUSH2 0x2A8 PUSH2 0x2D6 CALLDATASIZE PUSH1 0x4 PUSH2 0x250A JUMP JUMPDEST PUSH2 0x10AA JUMP JUMPDEST PUSH2 0x13D PUSH2 0x2E9 CALLDATASIZE PUSH1 0x4 PUSH2 0x2767 JUMP JUMPDEST PUSH2 0x11C5 JUMP JUMPDEST PUSH2 0x2A8 PUSH2 0x11D7 JUMP JUMPDEST PUSH2 0x13D PUSH2 0x304 CALLDATASIZE PUSH1 0x4 PUSH2 0x2712 JUMP JUMPDEST PUSH2 0x11E1 JUMP JUMPDEST PUSH2 0x229 PUSH1 0x1 SLOAD DUP2 JUMP JUMPDEST PUSH2 0x13D PUSH2 0x320 CALLDATASIZE PUSH1 0x4 PUSH2 0x250A JUMP JUMPDEST PUSH2 0x11EB JUMP JUMPDEST PUSH2 0x338 PUSH2 0x333 CALLDATASIZE PUSH1 0x4 PUSH2 0x2210 JUMP JUMPDEST PUSH2 0x11F7 JUMP JUMPDEST PUSH1 0x40 DUP1 MLOAD DUP3 MLOAD PUSH1 0x1 PUSH1 0x1 PUSH1 0xA0 SHL SUB AND DUP2 MSTORE PUSH1 0x20 SWAP3 DUP4 ADD MLOAD SWAP3 DUP2 ADD SWAP3 SWAP1 SWAP3 MSTORE ADD PUSH2 0x19F JUMP JUMPDEST PUSH2 0x229 PUSH2 0x36A CALLDATASIZE PUSH1 0x4 PUSH2 0x27DD JUMP JUMPDEST PUSH2 0x1208 JUMP JUMPDEST PUSH2 0x1CE PUSH2 0x37D CALLDATASIZE PUSH1 0x4 PUSH2 0x280E JUMP JUMPDEST PUSH2 0x1212 JUMP JUMPDEST PUSH2 0x38C DUP3 DUP3 PUSH2 0x123A JUMP JUMPDEST POP POP JUMP JUMPDEST PUSH1 0x1 PUSH1 0x1 PUSH1 0xA0 SHL SUB DUP3 DUP2 AND PUSH0 SWAP1 DUP2 MSTORE PUSH1 0x3 PUSH1 0x20 MSTORE PUSH1 0x40 SWAP1 KECCAK256 SLOAD AND ISZERO PUSH2 0x418 JUMPI PUSH1 0x40 MLOAD PUSH3 0x461BCD PUSH1 0xE5 SHL DUP2 MSTORE PUSH1 0x20 PUSH1 0x4 DUP3 ADD MSTORE PUSH1 0x33 PUSH1 0x24 DUP3 ADD MSTORE PUSH32 0x6164644E6F64653A20496E76616C6964205F6E6F646541646472657373202D20 PUSH1 0x44 DUP3 ADD MSTORE PUSH19 0x4E6F646520416C726561647920657869737473 PUSH1 0x68 SHL PUSH1 0x64 DUP3 ADD MSTORE PUSH1 0x84 ADD JUMPDEST PUSH1 0x40 MLOAD DUP1 SWAP2 SUB SWAP1 REVERT JUMPDEST PUSH1 0x40 DUP1 MLOAD DUP1 DUP3 ADD DUP3 MSTORE PUSH1 0x1 PUSH1 0x1 PUSH1 0xA0 SHL SUB DUP5 DUP2 AND DUP1 DUP4 MSTORE PUSH1 0x20 DUP1 DUP5 ADD DUP7 DUP2 MSTORE PUSH0 SWAP3 DUP4 MSTORE PUSH1 0x3 SWAP1 SWAP2 MSTORE SWAP1 DUP5 SWAP1 KECCAK256 SWAP3 MLOAD DUP4 SLOAD PUSH1 0x1 PUSH1 0x1 PUSH1 0xA0 SHL SUB NOT AND SWAP3 AND SWAP2 SWAP1 SWAP2 OR DUP3 SSTORE MLOAD PUSH1 0x1 SWAP1 SWAP2 ADD SSTORE MLOAD PUSH0 DUP1 MLOAD PUSH1 0x20 PUSH2 0x2B4F DUP4 CODECOPY DUP2 MLOAD SWAP2 MSTORE SWAP1 PUSH2 0x47C SWAP1 DUP5 SWAP1 PUSH2 0x23CF JUMP JUMPDEST PUSH1 0x40 MLOAD DUP1 SWAP2 SUB SWAP1 LOG1 POP PUSH1 0x5 DUP1 SLOAD PUSH1 0x1 DUP2 ADD DUP3 SSTORE PUSH0 SWAP2 SWAP1 SWAP2 MSTORE PUSH32 0x36B6384B5ECA791C62761152D0C79BB0604C104A5FB6F4EB0703F3154BB3DB0 ADD DUP1 SLOAD PUSH1 0x1 PUSH1 0x1 PUSH1 0xA0 SHL SUB NOT AND PUSH1 0x1 PUSH1 0x1 PUSH1 0xA0 SHL SUB SWAP3 SWAP1 SWAP3 AND SWAP2 SWAP1 SWAP2 OR SWAP1 SSTORE JUMP JUMPDEST PUSH2 0x4E4 DUP7 DUP7 DUP7 DUP7 DUP7 DUP7 PUSH2 0x12EF JUMP JUMPDEST POP POP POP POP POP POP JUMP JUMPDEST DUP2 MLOAD PUSH1 0x20 DUP2 DUP5 ADD DUP2 ADD DUP1 MLOAD PUSH1 0x4 DUP3 MSTORE SWAP3 DUP3 ADD SWAP2 DUP6 ADD SWAP2 SWAP1 SWAP2 KECCAK256 SWAP2 SWAP1 MSTORE DUP1 SLOAD DUP3 SWAP1 DUP2 LT PUSH2 0x516 JUMPI PUSH0 DUP1 REVERT JUMPDEST PUSH0 SWAP2 DUP3 MSTORE PUSH1 0x20 SWAP1 SWAP2 KECCAK256 ADD SLOAD PUSH1 0x1 PUSH1 0x1 PUSH1 0xA0 SHL SUB AND SWAP2 POP DUP3 SWAP1 POP JUMP JUMPDEST PUSH2 0x38C DUP3 DUP3 PUSH2 0x390 JUMP JUMPDEST PUSH1 0x5 SLOAD PUSH1 0x40 DUP1 MLOAD PUSH1 0x60 DUP2 ADD SWAP1 SWAP2 MSTORE PUSH1 0x23 DUP1 DUP3 MSTORE SWAP2 ISZERO ISZERO SWAP2 PUSH2 0x2B6F PUSH1 0x20 DUP4 ADD CODECOPY SWAP1 PUSH2 0x578 JUMPI PUSH1 0x40 MLOAD PUSH3 0x461BCD PUSH1 0xE5 SHL DUP2 MSTORE PUSH1 0x4 ADD PUSH2 0x40F SWAP2 SWAP1 PUSH2 0x2825 JUMP JUMPDEST POP PUSH0 PUSH2 0x583 DUP4 PUSH2 0x159D JUMP JUMPDEST EQ PUSH1 0x40 MLOAD DUP1 PUSH1 0x40 ADD PUSH1 0x40 MSTORE DUP1 PUSH1 0x1C DUP2 MSTORE PUSH1 0x20 ADD PUSH28 0x1CDD1BDC99519A5B194E88111D5C1B1A58D85D1948119A5B19481259 PUSH1 0x22 SHL DUP2 MSTORE POP SWAP1 PUSH2 0x5D7 JUMPI PUSH1 0x40 MLOAD PUSH3 0x461BCD PUSH1 0xE5 SHL DUP2 MSTORE PUSH1 0x4 ADD PUSH2 0x40F SWAP2 SWAP1 PUSH2 0x2825 JUMP JUMPDEST POP PUSH0 JUMPDEST DUP7 MLOAD DUP2 LT ISZERO PUSH2 0x7E2 JUMPI PUSH2 0x5EE PUSH1 0x7 PUSH0 PUSH2 0x20E0 JUMP JUMPDEST PUSH0 DUP8 DUP3 DUP2 MLOAD DUP2 LT PUSH2 0x601 JUMPI PUSH2 0x601 PUSH2 0x2837 JUMP JUMPDEST PUSH1 0x20 MUL PUSH1 0x20 ADD ADD MLOAD MLOAD SWAP1 POP PUSH0 DUP1 DUP1 SLOAD SWAP1 POP PUSH1 0x3 PUSH1 0x5 DUP1 SLOAD SWAP1 POP LT ISZERO PUSH2 0x625 JUMPI POP PUSH1 0x5 SLOAD JUMPDEST PUSH2 0x65B PUSH1 0x40 MLOAD DUP1 PUSH1 0x40 ADD PUSH1 0x40 MSTORE DUP1 PUSH1 0x13 DUP2 MSTORE PUSH1 0x20 ADD PUSH19 0x111D5C1B1A58D85D1A5BDB881CDD185C9D1959 PUSH1 0x6A SHL DUP2 MSTORE POP DUP4 DUP4 PUSH2 0x1613 JUMP JUMPDEST DUP1 DUP3 LT ISZERO PUSH2 0x7D7 JUMPI PUSH0 PUSH2 0x6C6 DUP5 PUSH1 0x7 DUP1 SLOAD DUP1 PUSH1 0x20 MUL PUSH1 0x20 ADD PUSH1 0x40 MLOAD SWAP1 DUP2 ADD PUSH1 0x40 MSTORE DUP1 SWAP3 SWAP2 SWAP1 DUP2 DUP2 MSTORE PUSH1 0x20 ADD DUP3 DUP1 SLOAD DUP1 ISZERO PUSH2 0x6BC JUMPI PUSH1 0x20 MUL DUP3 ADD SWAP2 SWAP1 PUSH0 MSTORE PUSH1 0x20 PUSH0 KECCAK256 SWAP1 JUMPDEST DUP2 SLOAD PUSH1 0x1 PUSH1 0x1 PUSH1 0xA0 SHL SUB AND DUP2 MSTORE PUSH1 0x1 SWAP1 SWAP2 ADD SWAP1 PUSH1 0x20 ADD DUP1 DUP4 GT PUSH2 0x69E JUMPI JUMPDEST POP POP POP POP POP PUSH2 0x165F JUMP JUMPDEST SWAP1 POP PUSH0 DUP1 MLOAD PUSH1 0x20 PUSH2 0x2B4F DUP4 CODECOPY DUP2 MLOAD SWAP2 MSTORE DUP2 PUSH1 0x40 MLOAD PUSH2 0x6E4 SWAP2 SWAP1 PUSH2 0x23CF JUMP JUMPDEST PUSH1 0x40 MLOAD DUP1 SWAP2 SUB SWAP1 LOG1 PUSH1 0x7 DUP1 SLOAD PUSH1 0x1 DUP2 ADD DUP3 SSTORE PUSH0 SWAP2 SWAP1 SWAP2 MSTORE PUSH32 0xA66CC928B5EDB82AF9BD49922954155AB7B0942694BEA4CE44661D9A8736C688 ADD DUP1 SLOAD PUSH1 0x1 PUSH1 0x1 PUSH1 0xA0 SHL SUB NOT AND PUSH1 0x1 PUSH1 0x1 PUSH1 0xA0 SHL SUB DUP4 AND OR SWAP1 SSTORE PUSH1 0x40 MLOAD PUSH32 0xB011A0DA2BACC57F5C2DDF79F5C8E86484A4FC528F15571A48A9D47956BC82BE SWAP1 PUSH2 0x766 SWAP1 DUP4 SWAP1 PUSH2 0x23CF JUMP JUMPDEST PUSH1 0x40 MLOAD DUP1 SWAP2 SUB SWAP1 LOG1 DUP3 PUSH2 0x778 DUP2 PUSH2 0x285F JUMP JUMPDEST SWAP4 POP POP PUSH2 0x7A0 DUP2 DUP13 DUP8 DUP2 MLOAD DUP2 LT PUSH2 0x791 JUMPI PUSH2 0x791 PUSH2 0x2837 JUMP JUMPDEST PUSH1 0x20 MUL PUSH1 0x20 ADD ADD MLOAD DUP10 DUP9 PUSH2 0x17D9 JUMP JUMPDEST PUSH1 0x1 PUSH1 0x1 PUSH1 0xA0 SHL SUB DUP2 AND PUSH0 SWAP1 DUP2 MSTORE PUSH1 0x3 PUSH1 0x20 MSTORE PUSH1 0x40 SWAP1 KECCAK256 PUSH1 0x1 ADD SLOAD PUSH2 0x7D1 SWAP1 DUP3 SWAP1 PUSH2 0x7CC SWAP1 DUP8 SWAP1 PUSH2 0x2877 JUMP JUMPDEST PUSH2 0x123A JUMP JUMPDEST POP PUSH2 0x65B JUMP JUMPDEST POP POP POP PUSH1 0x1 ADD PUSH2 0x5DA JUMP JUMPDEST POP PUSH2 0x7EE PUSH1 0x7 PUSH0 PUSH2 0x20E0 JUMP JUMPDEST PUSH0 PUSH2 0x7F8 DUP8 PUSH2 0x1933 JUMP JUMPDEST SWAP1 POP PUSH2 0x804 DUP2 DUP5 PUSH2 0x19A3 JUMP JUMPDEST PUSH2 0x812 DUP7 DUP7 DUP4 DUP8 DUP8 DUP8 PUSH2 0x12EF JUMP JUMPDEST POP POP POP POP POP POP POP JUMP JUMPDEST PUSH2 0x823 PUSH2 0x20FB JUMP JUMPDEST PUSH0 PUSH2 0x82C PUSH2 0x1AB2 JUMP JUMPDEST SWAP1 POP PUSH0 JUMPDEST DUP2 MLOAD DUP2 LT ISZERO PUSH2 0x913 JUMPI PUSH2 0x85F DUP3 DUP3 DUP2 MLOAD DUP2 LT PUSH2 0x84E JUMPI PUSH2 0x84E PUSH2 0x2837 JUMP JUMPDEST PUSH1 0x20 MUL PUSH1 0x20 ADD ADD MLOAD PUSH0 ADD MLOAD DUP6 PUSH2 0x1DC6 JUMP JUMPDEST ISZERO PUSH2 0x90B JUMPI DUP2 DUP2 DUP2 MLOAD DUP2 LT PUSH2 0x876 JUMPI PUSH2 0x876 PUSH2 0x2837 JUMP JUMPDEST PUSH1 0x20 MUL PUSH1 0x20 ADD ADD MLOAD PUSH1 0xC0 ADD MLOAD PUSH1 0x1 PUSH1 0x1 PUSH1 0xA0 SHL SUB AND CALLER PUSH1 0x1 PUSH1 0x1 PUSH1 0xA0 SHL SUB AND EQ PUSH1 0x40 MLOAD DUP1 PUSH1 0x60 ADD PUSH1 0x40 MSTORE DUP1 PUSH1 0x30 DUP2 MSTORE PUSH1 0x20 ADD PUSH2 0x2BFA PUSH1 0x30 SWAP2 CODECOPY SWAP1 PUSH2 0x8CD JUMPI PUSH1 0x40 MLOAD PUSH3 0x461BCD PUSH1 0xE5 SHL DUP2 MSTORE PUSH1 0x4 ADD PUSH2 0x40F SWAP2 SWAP1 PUSH2 0x2825 JUMP JUMPDEST POP PUSH1 0x40 MLOAD DUP1 PUSH1 0x40 ADD PUSH1 0x40 MSTORE DUP1 DUP4 DUP4 DUP2 MLOAD DUP2 LT PUSH2 0x8EB JUMPI PUSH2 0x8EB PUSH2 0x2837 JUMP JUMPDEST PUSH1 0x20 MUL PUSH1 0x20 ADD ADD MLOAD DUP2 MSTORE PUSH1 0x20 ADD PUSH2 0x901 DUP7 PUSH2 0x10AA JUMP JUMPDEST SWAP1 MSTORE SWAP5 SWAP4 POP POP POP POP JUMP JUMPDEST PUSH1 0x1 ADD PUSH2 0x830 JUMP JUMPDEST POP PUSH0 PUSH1 0x40 MLOAD DUP1 PUSH1 0x60 ADD PUSH1 0x40 MSTORE DUP1 PUSH1 0x23 DUP2 MSTORE PUSH1 0x20 ADD PUSH2 0x2BD7 PUSH1 0x23 SWAP2 CODECOPY SWAP1 PUSH2 0x94C JUMPI PUSH1 0x40 MLOAD PUSH3 0x461BCD PUSH1 0xE5 SHL DUP2 MSTORE PUSH1 0x4 ADD PUSH2 0x40F SWAP2 SWAP1 PUSH2 0x2825 JUMP JUMPDEST POP POP PUSH1 0x40 DUP1 MLOAD PUSH2 0x120 DUP2 ADD DUP3 MSTORE PUSH0 PUSH2 0x100 DUP3 ADD DUP2 DUP2 MSTORE DUP3 MSTORE DUP3 MLOAD PUSH1 0x20 DUP2 DUP2 ADD DUP6 MSTORE DUP3 DUP3 MSTORE DUP1 DUP5 ADD SWAP2 SWAP1 SWAP2 MSTORE DUP4 MLOAD DUP1 DUP3 ADD DUP6 MSTORE DUP3 DUP2 MSTORE DUP4 DUP6 ADD MSTORE PUSH1 0x60 DUP4 DUP2 ADD DUP4 SWAP1 MSTORE PUSH1 0x80 DUP5 ADD DUP4 SWAP1 MSTORE PUSH1 0xA0 DUP5 ADD DUP4 SWAP1 MSTORE PUSH1 0xC0 DUP5 ADD DUP4 SWAP1 MSTORE DUP5 MLOAD DUP1 DUP4 ADD DUP7 MSTORE SWAP3 DUP4 MSTORE PUSH1 0xE0 DUP5 ADD SWAP3 SWAP1 SWAP3 MSTORE DUP4 MLOAD DUP1 DUP6 ADD SWAP1 SWAP5 MSTORE SWAP2 DUP4 MSTORE SWAP1 DUP3 ADD MSTORE SWAP3 SWAP2 POP POP JUMP JUMPDEST PUSH0 PUSH2 0x9D3 DUP3 PUSH2 0x159D JUMP JUMPDEST SWAP3 SWAP2 POP POP JUMP JUMPDEST PUSH1 0x60 PUSH2 0x9E3 PUSH2 0x1AB2 JUMP JUMPDEST SWAP1 POP SWAP1 JUMP JUMPDEST PUSH0 PUSH2 0x9F3 DUP4 DUP4 PUSH2 0x1E1E JUMP JUMPDEST SWAP4 SWAP3 POP POP POP JUMP JUMPDEST PUSH1 0x60 PUSH2 0x9D3 DUP3 PUSH2 0x10AA JUMP JUMPDEST CALLER PUSH0 SWAP1 DUP2 MSTORE PUSH1 0x8 PUSH1 0x20 SWAP1 DUP2 MSTORE PUSH1 0x40 SWAP2 DUP3 SWAP1 KECCAK256 SLOAD DUP3 MLOAD DUP1 DUP5 ADD SWAP1 SWAP4 MSTORE PUSH1 0x1B DUP4 MSTORE PUSH27 0x19195B195D19519A5B194E88125B9D985B1A5908199A5B19481A59 PUSH1 0x2A SHL SWAP2 DUP4 ADD SWAP2 SWAP1 SWAP2 MSTORE PUSH2 0xA67 JUMPI PUSH1 0x40 MLOAD PUSH3 0x461BCD PUSH1 0xE5 SHL DUP2 MSTORE PUSH1 0x4 ADD PUSH2 0x40F SWAP2 SWAP1 PUSH2 0x2825 JUMP JUMPDEST POP CALLER PUSH0 SWAP1 DUP2 MSTORE PUSH1 0x8 PUSH1 0x20 SWAP1 DUP2 MSTORE PUSH1 0x40 DUP1 DUP4 KECCAK256 DUP1 SLOAD DUP3 MLOAD DUP2 DUP6 MUL DUP2 ADD DUP6 ADD SWAP1 SWAP4 MSTORE DUP1 DUP4 MSTORE SWAP2 SWAP3 SWAP1 SWAP2 SWAP1 DUP5 SWAP1 DUP5 ADD JUMPDEST DUP3 DUP3 LT ISZERO PUSH2 0xD39 JUMPI DUP4 DUP3 SWAP1 PUSH0 MSTORE PUSH1 0x20 PUSH0 KECCAK256 SWAP1 PUSH1 0x8 MUL ADD PUSH1 0x40 MLOAD DUP1 PUSH2 0x100 ADD PUSH1 0x40 MSTORE SWAP1 DUP2 PUSH0 DUP3 ADD DUP1 SLOAD PUSH2 0xAC5 SWAP1 PUSH2 0x288A JUMP JUMPDEST DUP1 PUSH1 0x1F ADD PUSH1 0x20 DUP1 SWAP2 DIV MUL PUSH1 0x20 ADD PUSH1 0x40 MLOAD SWAP1 DUP2 ADD PUSH1 0x40 MSTORE DUP1 SWAP3 SWAP2 SWAP1 DUP2 DUP2 MSTORE PUSH1 0x20 ADD DUP3 DUP1 SLOAD PUSH2 0xAF1 SWAP1 PUSH2 0x288A JUMP JUMPDEST DUP1 ISZERO PUSH2 0xB3C JUMPI DUP1 PUSH1 0x1F LT PUSH2 0xB13 JUMPI PUSH2 0x100 DUP1 DUP4 SLOAD DIV MUL DUP4 MSTORE SWAP2 PUSH1 0x20 ADD SWAP2 PUSH2 0xB3C JUMP JUMPDEST DUP3 ADD SWAP2 SWAP1 PUSH0 MSTORE PUSH1 0x20 PUSH0 KECCAK256 SWAP1 JUMPDEST DUP2 SLOAD DUP2 MSTORE SWAP1 PUSH1 0x1 ADD SWAP1 PUSH1 0x20 ADD DUP1 DUP4 GT PUSH2 0xB1F JUMPI DUP3 SWAP1 SUB PUSH1 0x1F AND DUP3 ADD SWAP2 JUMPDEST POP POP POP POP POP DUP2 MSTORE PUSH1 0x20 ADD PUSH1 0x1 DUP3 ADD DUP1 SLOAD PUSH2 0xB55 SWAP1 PUSH2 0x288A JUMP JUMPDEST DUP1 PUSH1 0x1F ADD PUSH1 0x20 DUP1 SWAP2 DIV MUL PUSH1 0x20 ADD PUSH1 0x40 MLOAD SWAP1 DUP2 ADD PUSH1 0x40 MSTORE DUP1 SWAP3 SWAP2 SWAP1 DUP2 DUP2 MSTORE PUSH1 0x20 ADD DUP3 DUP1 SLOAD PUSH2 0xB81 SWAP1 PUSH2 0x288A JUMP JUMPDEST DUP1 ISZERO PUSH2 0xBCC JUMPI DUP1 PUSH1 0x1F LT PUSH2 0xBA3 JUMPI PUSH2 0x100 DUP1 DUP4 SLOAD DIV MUL DUP4 MSTORE SWAP2 PUSH1 0x20 ADD SWAP2 PUSH2 0xBCC JUMP JUMPDEST DUP3 ADD SWAP2 SWAP1 PUSH0 MSTORE PUSH1 0x20 PUSH0 KECCAK256 SWAP1 JUMPDEST DUP2 SLOAD DUP2 MSTORE SWAP1 PUSH1 0x1 ADD SWAP1 PUSH1 0x20 ADD DUP1 DUP4 GT PUSH2 0xBAF JUMPI DUP3 SWAP1 SUB PUSH1 0x1F AND DUP3 ADD SWAP2 JUMPDEST POP POP POP POP POP DUP2 MSTORE PUSH1 0x20 ADD PUSH1 0x2 DUP3 ADD DUP1 SLOAD PUSH2 0xBE5 SWAP1 PUSH2 0x288A JUMP JUMPDEST DUP1 PUSH1 0x1F ADD PUSH1 0x20 DUP1 SWAP2 DIV MUL PUSH1 0x20 ADD PUSH1 0x40 MLOAD SWAP1 DUP2 ADD PUSH1 0x40 MSTORE DUP1 SWAP3 SWAP2 SWAP1 DUP2 DUP2 MSTORE PUSH1 0x20 ADD DUP3 DUP1 SLOAD PUSH2 0xC11 SWAP1 PUSH2 0x288A JUMP JUMPDEST DUP1 ISZERO PUSH2 0xC5C JUMPI DUP1 PUSH1 0x1F LT PUSH2 0xC33 JUMPI PUSH2 0x100 DUP1 DUP4 SLOAD DIV MUL DUP4 MSTORE SWAP2 PUSH1 0x20 ADD SWAP2 PUSH2 0xC5C JUMP JUMPDEST DUP3 ADD SWAP2 SWAP1 PUSH0 MSTORE PUSH1 0x20 PUSH0 KECCAK256 SWAP1 JUMPDEST DUP2 SLOAD DUP2 MSTORE SWAP1 PUSH1 0x1 ADD SWAP1 PUSH1 0x20 ADD DUP1 DUP4 GT PUSH2 0xC3F JUMPI DUP3 SWAP1 SUB PUSH1 0x1F AND DUP3 ADD SWAP2 JUMPDEST POP POP POP SWAP2 DUP4 MSTORE POP POP PUSH1 0x3 DUP3 ADD SLOAD PUSH1 0x20 DUP3 ADD MSTORE PUSH1 0x4 DUP3 ADD SLOAD PUSH1 0x40 DUP3 ADD MSTORE PUSH1 0x5 DUP3 ADD SLOAD PUSH1 0x60 DUP3 ADD MSTORE PUSH1 0x6 DUP3 ADD SLOAD PUSH1 0x1 PUSH1 0x1 PUSH1 0xA0 SHL SUB AND PUSH1 0x80 DUP3 ADD MSTORE PUSH1 0x7 DUP3 ADD DUP1 SLOAD PUSH1 0xA0 SWAP1 SWAP3 ADD SWAP2 PUSH2 0xCAA SWAP1 PUSH2 0x288A JUMP JUMPDEST DUP1 PUSH1 0x1F ADD PUSH1 0x20 DUP1 SWAP2 DIV MUL PUSH1 0x20 ADD PUSH1 0x40 MLOAD SWAP1 DUP2 ADD PUSH1 0x40 MSTORE DUP1 SWAP3 SWAP2 SWAP1 DUP2 DUP2 MSTORE PUSH1 0x20 ADD DUP3 DUP1 SLOAD PUSH2 0xCD6 SWAP1 PUSH2 0x288A JUMP JUMPDEST DUP1 ISZERO PUSH2 0xD21 JUMPI DUP1 PUSH1 0x1F LT PUSH2 0xCF8 JUMPI PUSH2 0x100 DUP1 DUP4 SLOAD DIV MUL DUP4 MSTORE SWAP2 PUSH1 0x20 ADD SWAP2 PUSH2 0xD21 JUMP JUMPDEST DUP3 ADD SWAP2 SWAP1 PUSH0 MSTORE PUSH1 0x20 PUSH0 KECCAK256 SWAP1 JUMPDEST DUP2 SLOAD DUP2 MSTORE SWAP1 PUSH1 0x1 ADD SWAP1 PUSH1 0x20 ADD DUP1 DUP4 GT PUSH2 0xD04 JUMPI DUP3 SWAP1 SUB PUSH1 0x1F AND DUP3 ADD SWAP2 JUMPDEST POP POP POP POP POP DUP2 MSTORE POP POP DUP2 MSTORE PUSH1 0x20 ADD SWAP1 PUSH1 0x1 ADD SWAP1 PUSH2 0xA94 JUMP JUMPDEST POP POP POP POP SWAP1 POP PUSH0 PUSH1 0x1 DUP3 MLOAD PUSH2 0xD4E SWAP2 SWAP1 PUSH2 0x2877 JUMP JUMPDEST SWAP1 POP PUSH0 DUP3 DUP3 DUP2 MLOAD DUP2 LT PUSH2 0xD63 JUMPI PUSH2 0xD63 PUSH2 0x2837 JUMP JUMPDEST PUSH1 0x20 MUL PUSH1 0x20 ADD ADD MLOAD SWAP1 POP PUSH2 0xD75 PUSH2 0x211B JUMP JUMPDEST PUSH0 DUP1 JUMPDEST DUP6 MLOAD DUP2 LT ISZERO PUSH2 0xEAE JUMPI PUSH2 0xDA7 DUP7 DUP3 DUP2 MLOAD DUP2 LT PUSH2 0xD96 JUMPI PUSH2 0xD96 PUSH2 0x2837 JUMP JUMPDEST PUSH1 0x20 MUL PUSH1 0x20 ADD ADD MLOAD PUSH0 ADD MLOAD DUP9 PUSH2 0x1DC6 JUMP JUMPDEST ISZERO PUSH2 0xEA6 JUMPI PUSH1 0x1 SWAP2 POP DUP6 DUP2 DUP2 MLOAD DUP2 LT PUSH2 0xDC2 JUMPI PUSH2 0xDC2 PUSH2 0x2837 JUMP JUMPDEST PUSH1 0x20 MUL PUSH1 0x20 ADD ADD MLOAD SWAP3 POP DUP4 PUSH1 0x8 PUSH0 CALLER PUSH1 0x1 PUSH1 0x1 PUSH1 0xA0 SHL SUB AND PUSH1 0x1 PUSH1 0x1 PUSH1 0xA0 SHL SUB AND DUP2 MSTORE PUSH1 0x20 ADD SWAP1 DUP2 MSTORE PUSH1 0x20 ADD PUSH0 KECCAK256 DUP3 DUP2 SLOAD DUP2 LT PUSH2 0xE01 JUMPI PUSH2 0xE01 PUSH2 0x2837 JUMP JUMPDEST PUSH0 SWAP2 DUP3 MSTORE PUSH1 0x20 SWAP1 SWAP2 KECCAK256 DUP3 MLOAD PUSH1 0x8 SWAP1 SWAP3 MUL ADD SWAP1 DUP2 SWAP1 PUSH2 0xE1F SWAP1 DUP3 PUSH2 0x290D JUMP JUMPDEST POP PUSH1 0x20 DUP3 ADD MLOAD PUSH1 0x1 DUP3 ADD SWAP1 PUSH2 0xE34 SWAP1 DUP3 PUSH2 0x290D JUMP JUMPDEST POP PUSH1 0x40 DUP3 ADD MLOAD PUSH1 0x2 DUP3 ADD SWAP1 PUSH2 0xE49 SWAP1 DUP3 PUSH2 0x290D JUMP JUMPDEST POP PUSH1 0x60 DUP3 ADD MLOAD PUSH1 0x3 DUP3 ADD SSTORE PUSH1 0x80 DUP3 ADD MLOAD PUSH1 0x4 DUP3 ADD SSTORE PUSH1 0xA0 DUP3 ADD MLOAD PUSH1 0x5 DUP3 ADD SSTORE PUSH1 0xC0 DUP3 ADD MLOAD PUSH1 0x6 DUP3 ADD DUP1 SLOAD PUSH1 0x1 PUSH1 0x1 PUSH1 0xA0 SHL SUB NOT AND PUSH1 0x1 PUSH1 0x1 PUSH1 0xA0 SHL SUB SWAP1 SWAP3 AND SWAP2 SWAP1 SWAP2 OR SWAP1 SSTORE PUSH1 0xE0 DUP3 ADD MLOAD PUSH1 0x7 DUP3 ADD SWAP1 PUSH2 0xEA2 SWAP1 DUP3 PUSH2 0x290D JUMP JUMPDEST POP POP POP JUMPDEST PUSH1 0x1 ADD PUSH2 0xD78 JUMP JUMPDEST POP PUSH1 0x40 DUP1 MLOAD DUP1 DUP3 ADD SWAP1 SWAP2 MSTORE PUSH1 0x1A DUP2 MSTORE PUSH26 0x19195B195D19519A5B194E88119A5B1948139BDD08199BDD5B99 PUSH1 0x32 SHL PUSH1 0x20 DUP3 ADD MSTORE DUP2 PUSH2 0xEFE JUMPI PUSH1 0x40 MLOAD PUSH3 0x461BCD PUSH1 0xE5 SHL DUP2 MSTORE PUSH1 0x4 ADD PUSH2 0x40F SWAP2 SWAP1 PUSH2 0x2825 JUMP JUMPDEST POP CALLER PUSH0 SWAP1 DUP2 MSTORE PUSH1 0x8 PUSH1 0x20 MSTORE PUSH1 0x40 SWAP1 KECCAK256 DUP1 SLOAD DUP4 SWAP2 SWAP1 DUP7 SWAP1 DUP2 LT PUSH2 0xF22 JUMPI PUSH2 0xF22 PUSH2 0x2837 JUMP JUMPDEST PUSH0 SWAP2 DUP3 MSTORE PUSH1 0x20 SWAP1 SWAP2 KECCAK256 DUP3 MLOAD PUSH1 0x8 SWAP1 SWAP3 MUL ADD SWAP1 DUP2 SWAP1 PUSH2 0xF40 SWAP1 DUP3 PUSH2 0x290D JUMP JUMPDEST POP PUSH1 0x20 DUP3 ADD MLOAD PUSH1 0x1 DUP3 ADD SWAP1 PUSH2 0xF55 SWAP1 DUP3 PUSH2 0x290D JUMP JUMPDEST POP PUSH1 0x40 DUP3 ADD MLOAD PUSH1 0x2 DUP3 ADD SWAP1 PUSH2 0xF6A SWAP1 DUP3 PUSH2 0x290D JUMP JUMPDEST POP PUSH1 0x60 DUP3 ADD MLOAD PUSH1 0x3 DUP3 ADD SSTORE PUSH1 0x80 DUP3 ADD MLOAD PUSH1 0x4 DUP3 ADD SSTORE PUSH1 0xA0 DUP3 ADD MLOAD PUSH1 0x5 DUP3 ADD SSTORE PUSH1 0xC0 DUP3 ADD MLOAD PUSH1 0x6 DUP3 ADD DUP1 SLOAD PUSH1 0x1 PUSH1 0x1 PUSH1 0xA0 SHL SUB NOT AND PUSH1 0x1 PUSH1 0x1 PUSH1 0xA0 SHL SUB SWAP1 SWAP3 AND SWAP2 SWAP1 SWAP2 OR SWAP1 SSTORE PUSH1 0xE0 DUP3 ADD MLOAD PUSH1 0x7 DUP3 ADD SWAP1 PUSH2 0xFC3 SWAP1 DUP3 PUSH2 0x290D JUMP JUMPDEST POP POP CALLER PUSH0 SWAP1 DUP2 MSTORE PUSH1 0x8 PUSH1 0x20 MSTORE PUSH1 0x40 SWAP1 KECCAK256 DUP1 SLOAD SWAP1 SWAP2 POP DUP1 PUSH2 0xFE5 JUMPI PUSH2 0xFE5 PUSH2 0x29C8 JUMP JUMPDEST PUSH0 DUP3 DUP2 MSTORE PUSH1 0x20 DUP2 KECCAK256 PUSH0 NOT SWAP1 SWAP3 ADD SWAP2 PUSH1 0x8 DUP4 MUL ADD SWAP1 PUSH2 0x1003 DUP3 DUP3 PUSH2 0x2168 JUMP JUMPDEST PUSH2 0x1010 PUSH1 0x1 DUP4 ADD PUSH0 PUSH2 0x2168 JUMP JUMPDEST PUSH2 0x101D PUSH1 0x2 DUP4 ADD PUSH0 PUSH2 0x2168 JUMP JUMPDEST PUSH0 PUSH1 0x3 DUP4 ADD DUP2 SWAP1 SSTORE PUSH1 0x4 DUP4 ADD DUP2 SWAP1 SSTORE PUSH1 0x5 DUP4 ADD DUP2 SWAP1 SSTORE PUSH1 0x6 DUP4 ADD DUP1 SLOAD PUSH1 0x1 PUSH1 0x1 PUSH1 0xA0 SHL SUB NOT AND SWAP1 SSTORE PUSH2 0x1053 SWAP1 PUSH1 0x7 DUP5 ADD SWAP1 PUSH2 0x2168 JUMP JUMPDEST POP POP SWAP1 SSTORE PUSH2 0x1060 DUP7 PUSH2 0x1E48 JUMP JUMPDEST PUSH2 0x1069 DUP7 PUSH2 0x1ECC JUMP JUMPDEST PUSH32 0x8598A19145BA7B62366F9F3E3CECA438DF1E575FFA3BEF982ED120041131D786 CALLER DUP8 PUSH1 0x40 MLOAD PUSH2 0x109A SWAP3 SWAP2 SWAP1 PUSH2 0x29DC JUMP JUMPDEST PUSH1 0x40 MLOAD DUP1 SWAP2 SUB SWAP1 LOG1 POP POP POP POP POP POP JUMP JUMPDEST PUSH1 0x60 PUSH0 PUSH1 0x4 DUP4 PUSH1 0x40 MLOAD PUSH2 0x10BD SWAP2 SWAP1 PUSH2 0x29FF JUMP JUMPDEST SWAP1 DUP2 MSTORE PUSH1 0x40 MLOAD SWAP1 DUP2 SWAP1 SUB PUSH1 0x20 ADD SWAP1 KECCAK256 SLOAD GT PUSH2 0x114F JUMPI PUSH1 0x40 MLOAD PUSH3 0x461BCD PUSH1 0xE5 SHL DUP2 MSTORE PUSH1 0x20 PUSH1 0x4 DUP3 ADD MSTORE PUSH1 0x46 PUSH1 0x24 DUP3 ADD MSTORE PUSH32 0x72657472696576654368756E6B4E6F64654164647265737365733A20496E7661 PUSH1 0x44 DUP3 ADD MSTORE PUSH32 0x6C6964205F6E6F646541646472657373202D204E6F646520446F6573204E4F54 PUSH1 0x64 DUP3 ADD MSTORE PUSH6 0x8195E1A5CDD PUSH1 0xD2 SHL PUSH1 0x84 DUP3 ADD MSTORE PUSH1 0xA4 ADD PUSH2 0x40F JUMP JUMPDEST PUSH1 0x4 DUP3 PUSH1 0x40 MLOAD PUSH2 0x115F SWAP2 SWAP1 PUSH2 0x29FF JUMP JUMPDEST SWAP1 DUP2 MSTORE PUSH1 0x40 DUP1 MLOAD SWAP2 DUP3 SWAP1 SUB PUSH1 0x20 SWAP1 DUP2 ADD DUP4 KECCAK256 DUP1 SLOAD DUP1 DUP4 MUL DUP6 ADD DUP4 ADD SWAP1 SWAP4 MSTORE DUP3 DUP5 MSTORE SWAP2 SWAP1 DUP4 ADD DUP3 DUP3 DUP1 ISZERO PUSH2 0x11B9 JUMPI PUSH1 0x20 MUL DUP3 ADD SWAP2 SWAP1 PUSH0 MSTORE PUSH1 0x20 PUSH0 KECCAK256 SWAP1 JUMPDEST DUP2 SLOAD PUSH1 0x1 PUSH1 0x1 PUSH1 0xA0 SHL SUB AND DUP2 MSTORE PUSH1 0x1 SWAP1 SWAP2 ADD SWAP1 PUSH1 0x20 ADD DUP1 DUP4 GT PUSH2 0x119B JUMPI JUMPDEST POP POP POP POP POP SWAP1 POP SWAP2 SWAP1 POP JUMP JUMPDEST PUSH2 0x11D1 DUP5 DUP5 DUP5 DUP5 PUSH2 0x17D9 JUMP JUMPDEST POP POP POP POP JUMP JUMPDEST PUSH1 0x60 PUSH2 0x9E3 PUSH2 0x1FBB JUMP JUMPDEST PUSH2 0x38C DUP3 DUP3 PUSH2 0x19A3 JUMP JUMPDEST PUSH2 0x11F4 DUP2 PUSH2 0x1ECC JUMP JUMPDEST POP JUMP JUMPDEST PUSH2 0x11FF PUSH2 0x219F JUMP JUMPDEST PUSH2 0x9D3 DUP3 PUSH2 0x201B JUMP JUMPDEST PUSH0 PUSH2 0x9D3 DUP3 PUSH2 0x1933 JUMP JUMPDEST PUSH1 0x5 DUP2 DUP2 SLOAD DUP2 LT PUSH2 0x1221 JUMPI PUSH0 DUP1 REVERT JUMPDEST PUSH0 SWAP2 DUP3 MSTORE PUSH1 0x20 SWAP1 SWAP2 KECCAK256 ADD SLOAD PUSH1 0x1 PUSH1 0x1 PUSH1 0xA0 SHL SUB AND SWAP1 POP DUP2 JUMP JUMPDEST PUSH1 0x1 PUSH1 0x1 PUSH1 0xA0 SHL SUB DUP3 DUP2 AND PUSH0 SWAP1 DUP2 MSTORE PUSH1 0x3 PUSH1 0x20 MSTORE PUSH1 0x40 SWAP1 KECCAK256 SLOAD AND PUSH2 0x12D1 JUMPI PUSH1 0x40 MLOAD PUSH3 0x461BCD PUSH1 0xE5 SHL DUP2 MSTORE PUSH1 0x20 PUSH1 0x4 DUP3 ADD MSTORE PUSH1 0x42 PUSH1 0x24 DUP3 ADD MSTORE PUSH32 0x757064617465417661696C61626C6553746F726167653A20496E76616C696420 PUSH1 0x44 DUP3 ADD MSTORE PUSH32 0x5F6E6F646541646472657373202D204E6F646520446F6573204E4F5420657869 PUSH1 0x64 DUP3 ADD MSTORE PUSH2 0x1CDD PUSH1 0xF2 SHL PUSH1 0x84 DUP3 ADD MSTORE PUSH1 0xA4 ADD PUSH2 0x40F JUMP JUMPDEST PUSH1 0x1 PUSH1 0x1 PUSH1 0xA0 SHL SUB SWAP1 SWAP2 AND PUSH0 SWAP1 DUP2 MSTORE PUSH1 0x3 PUSH1 0x20 MSTORE PUSH1 0x40 SWAP1 KECCAK256 PUSH1 0x1 ADD SSTORE JUMP JUMPDEST PUSH1 0x40 DUP1 MLOAD PUSH1 0x60 DUP2 ADD SWAP1 SWAP2 MSTORE PUSH1 0x21 DUP1 DUP3 MSTORE CALLER ISZERO ISZERO SWAP2 SWAP1 PUSH2 0x2BB6 PUSH1 0x20 DUP4 ADD CODECOPY SWAP1 PUSH2 0x132A JUMPI PUSH1 0x40 MLOAD PUSH3 0x461BCD PUSH1 0xE5 SHL DUP2 MSTORE PUSH1 0x4 ADD PUSH2 0x40F SWAP2 SWAP1 PUSH2 0x2825 JUMP JUMPDEST POP PUSH0 DUP6 MLOAD GT PUSH1 0x40 MLOAD DUP1 PUSH1 0x60 ADD PUSH1 0x40 MSTORE DUP1 PUSH1 0x24 DUP2 MSTORE PUSH1 0x20 ADD PUSH2 0x2B2B PUSH1 0x24 SWAP2 CODECOPY SWAP1 PUSH2 0x1366 JUMPI PUSH1 0x40 MLOAD PUSH3 0x461BCD PUSH1 0xE5 SHL DUP2 MSTORE PUSH1 0x4 ADD PUSH2 0x40F SWAP2 SWAP1 PUSH2 0x2825 JUMP JUMPDEST POP PUSH0 DUP7 MLOAD GT PUSH1 0x40 MLOAD DUP1 PUSH1 0x60 ADD PUSH1 0x40 MSTORE DUP1 PUSH1 0x24 DUP2 MSTORE PUSH1 0x20 ADD PUSH2 0x2C2A PUSH1 0x24 SWAP2 CODECOPY SWAP1 PUSH2 0x13A2 JUMPI PUSH1 0x40 MLOAD PUSH3 0x461BCD PUSH1 0xE5 SHL DUP2 MSTORE PUSH1 0x4 ADD PUSH2 0x40F SWAP2 SWAP1 PUSH2 0x2825 JUMP JUMPDEST POP PUSH0 DUP1 SHL DUP5 EQ ISZERO PUSH1 0x40 MLOAD DUP1 PUSH1 0x60 ADD PUSH1 0x40 MSTORE DUP1 PUSH1 0x24 DUP2 MSTORE PUSH1 0x20 ADD PUSH2 0x2C4E PUSH1 0x24 SWAP2 CODECOPY SWAP1 PUSH2 0x13E0 JUMPI PUSH1 0x40 MLOAD PUSH3 0x461BCD PUSH1 0xE5 SHL DUP2 MSTORE PUSH1 0x4 ADD PUSH2 0x40F SWAP2 SWAP1 PUSH2 0x2825 JUMP JUMPDEST POP PUSH0 DUP2 GT PUSH1 0x40 MLOAD DUP1 PUSH1 0x60 ADD PUSH1 0x40 MSTORE DUP1 PUSH1 0x24 DUP2 MSTORE PUSH1 0x20 ADD PUSH2 0x2B07 PUSH1 0x24 SWAP2 CODECOPY SWAP1 PUSH2 0x141B JUMPI PUSH1 0x40 MLOAD PUSH3 0x461BCD PUSH1 0xE5 SHL DUP2 MSTORE PUSH1 0x4 ADD PUSH2 0x40F SWAP2 SWAP1 PUSH2 0x2825 JUMP JUMPDEST POP PUSH0 DUP3 MLOAD GT PUSH1 0x40 MLOAD DUP1 PUSH1 0x60 ADD PUSH1 0x40 MSTORE DUP1 PUSH1 0x24 DUP2 MSTORE PUSH1 0x20 ADD PUSH2 0x2B92 PUSH1 0x24 SWAP2 CODECOPY SWAP1 PUSH2 0x1457 JUMPI PUSH1 0x40 MLOAD PUSH3 0x461BCD PUSH1 0xE5 SHL DUP2 MSTORE PUSH1 0x4 ADD PUSH2 0x40F SWAP2 SWAP1 PUSH2 0x2825 JUMP JUMPDEST POP CALLER PUSH0 DUP2 DUP2 MSTORE PUSH1 0x8 PUSH1 0x20 DUP2 DUP2 MSTORE PUSH1 0x40 DUP1 DUP5 KECCAK256 DUP2 MLOAD PUSH2 0x100 DUP2 ADD DUP4 MSTORE DUP9 DUP2 MSTORE DUP1 DUP5 ADD DUP14 SWAP1 MSTORE SWAP2 DUP3 ADD DUP12 SWAP1 MSTORE PUSH1 0x60 DUP3 ADD DUP11 SWAP1 MSTORE PUSH1 0x80 DUP3 ADD DUP8 SWAP1 MSTORE TIMESTAMP PUSH1 0xA0 DUP4 ADD DUP2 SWAP1 MSTORE PUSH1 0xC0 DUP4 ADD SWAP7 SWAP1 SWAP7 MSTORE PUSH1 0xE0 DUP3 ADD DUP10 SWAP1 MSTORE DUP1 SLOAD PUSH1 0x1 DUP2 ADD DUP3 SSTORE SWAP1 DUP6 MSTORE SWAP2 SWAP1 SWAP4 KECCAK256 DUP4 MLOAD SWAP2 SWAP1 SWAP3 MUL SWAP1 SWAP2 ADD SWAP1 DUP2 SWAP1 PUSH2 0x14CB SWAP1 DUP3 PUSH2 0x290D JUMP JUMPDEST POP PUSH1 0x20 DUP3 ADD MLOAD PUSH1 0x1 DUP3 ADD SWAP1 PUSH2 0x14E0 SWAP1 DUP3 PUSH2 0x290D JUMP JUMPDEST POP PUSH1 0x40 DUP3 ADD MLOAD PUSH1 0x2 DUP3 ADD SWAP1 PUSH2 0x14F5 SWAP1 DUP3 PUSH2 0x290D JUMP JUMPDEST POP PUSH1 0x60 DUP3 ADD MLOAD PUSH1 0x3 DUP3 ADD SSTORE PUSH1 0x80 DUP3 ADD MLOAD PUSH1 0x4 DUP3 ADD SSTORE PUSH1 0xA0 DUP3 ADD MLOAD PUSH1 0x5 DUP3 ADD SSTORE PUSH1 0xC0 DUP3 ADD MLOAD PUSH1 0x6 DUP3 ADD DUP1 SLOAD PUSH1 0x1 PUSH1 0x1 PUSH1 0xA0 SHL SUB NOT AND PUSH1 0x1 PUSH1 0x1 PUSH1 0xA0 SHL SUB SWAP1 SWAP3 AND SWAP2 SWAP1 SWAP2 OR SWAP1 SSTORE PUSH1 0xE0 DUP3 ADD MLOAD PUSH1 0x7 DUP3 ADD SWAP1 PUSH2 0x154E SWAP1 DUP3 PUSH2 0x290D JUMP JUMPDEST POP POP POP PUSH32 0x557BCCC5A98151EF59A421E190011AA3F6B5DC4AC2FD42FBA79D158CE0C68AC1 DUP4 DUP9 DUP9 DUP9 DUP7 DUP7 CALLER PUSH1 0x40 MLOAD PUSH2 0x158C SWAP8 SWAP7 SWAP6 SWAP5 SWAP4 SWAP3 SWAP2 SWAP1 PUSH2 0x2A1A JUMP JUMPDEST PUSH1 0x40 MLOAD DUP1 SWAP2 SUB SWAP1 LOG1 POP POP POP POP POP POP POP JUMP JUMPDEST PUSH0 DUP1 DUP3 MLOAD GT PUSH2 0x15ED JUMPI PUSH1 0x40 MLOAD PUSH3 0x461BCD PUSH1 0xE5 SHL DUP2 MSTORE PUSH1 0x20 PUSH1 0x4 DUP3 ADD MSTORE PUSH1 0x1C PUSH1 0x24 DUP3 ADD MSTORE PUSH28 0x19D95D119A5B1952185CDA0E88125B9D985B1A590817D99A5B195259 PUSH1 0x22 SHL PUSH1 0x44 DUP3 ADD MSTORE PUSH1 0x64 ADD PUSH2 0x40F JUMP JUMPDEST PUSH1 0x2 DUP3 PUSH1 0x40 MLOAD PUSH2 0x15FD SWAP2 SWAP1 PUSH2 0x29FF JUMP JUMPDEST SWAP1 DUP2 MSTORE PUSH1 0x20 ADD PUSH1 0x40 MLOAD DUP1 SWAP2 SUB SWAP1 KECCAK256 SLOAD SWAP1 POP SWAP2 SWAP1 POP JUMP JUMPDEST PUSH2 0x165A DUP4 DUP4 DUP4 PUSH1 0x40 MLOAD PUSH1 0x24 ADD PUSH2 0x162B SWAP4 SWAP3 SWAP2 SWAP1 PUSH2 0x2A82 JUMP JUMPDEST PUSH1 0x40 DUP1 MLOAD PUSH1 0x1F NOT DUP2 DUP5 SUB ADD DUP2 MSTORE SWAP2 SWAP1 MSTORE PUSH1 0x20 DUP2 ADD DUP1 MLOAD PUSH1 0x1 PUSH1 0x1 PUSH1 0xE0 SHL SUB AND PUSH4 0xCA47C4EB PUSH1 0xE0 SHL OR SWAP1 MSTORE PUSH2 0x205F JUMP JUMPDEST POP POP POP JUMP JUMPDEST PUSH1 0x5 SLOAD PUSH0 SWAP1 PUSH1 0x32 DUP2 DUP4 SUB PUSH2 0x1677 JUMPI PUSH0 SWAP3 POP POP POP PUSH2 0x9D3 JUMP JUMPDEST PUSH0 DUP3 PUSH2 0x1684 PUSH1 0x1 NUMBER PUSH2 0x2877 JUMP JUMPDEST PUSH2 0x168F SWAP2 SWAP1 BLOCKHASH PUSH2 0x2AA6 JUMP JUMPDEST SWAP1 POP PUSH0 DUP1 PUSH2 0x3E8 JUMPDEST DUP1 DUP3 LT ISZERO PUSH2 0x17CB JUMPI PUSH0 PUSH1 0x5 DUP8 PUSH2 0x16AD DUP7 DUP9 PUSH2 0x2AC5 JUMP JUMPDEST PUSH2 0x16B7 SWAP2 SWAP1 PUSH2 0x2AA6 JUMP JUMPDEST DUP2 SLOAD DUP2 LT PUSH2 0x16C7 JUMPI PUSH2 0x16C7 PUSH2 0x2837 JUMP JUMPDEST PUSH0 SWAP2 DUP3 MSTORE PUSH1 0x20 SWAP2 DUP3 SWAP1 KECCAK256 ADD SLOAD PUSH1 0x40 MLOAD DUP8 DUP2 MSTORE PUSH1 0x1 PUSH1 0x1 PUSH1 0xA0 SHL SUB SWAP1 SWAP2 AND SWAP3 POP PUSH32 0x838D04243391D45D94A98FFF54D1737CBFFEA86C34AB825E5D6980EC9B77235 SWAP2 ADD PUSH1 0x40 MLOAD DUP1 SWAP2 SUB SWAP1 LOG1 PUSH2 0x171B DUP7 DUP12 PUSH2 0x2AC5 JUMP JUMPDEST PUSH1 0x1 PUSH1 0x1 PUSH1 0xA0 SHL SUB DUP3 AND PUSH0 SWAP1 DUP2 MSTORE PUSH1 0x3 PUSH1 0x20 MSTORE PUSH1 0x40 SWAP1 KECCAK256 PUSH1 0x1 ADD SLOAD GT ISZERO PUSH2 0x179F JUMPI PUSH1 0x1 PUSH0 JUMPDEST DUP11 MLOAD DUP2 LT ISZERO PUSH2 0x1787 JUMPI DUP3 PUSH1 0x1 PUSH1 0x1 PUSH1 0xA0 SHL SUB AND DUP12 DUP3 DUP2 MLOAD DUP2 LT PUSH2 0x1765 JUMPI PUSH2 0x1765 PUSH2 0x2837 JUMP JUMPDEST PUSH1 0x20 MUL PUSH1 0x20 ADD ADD MLOAD PUSH1 0x1 PUSH1 0x1 PUSH1 0xA0 SHL SUB AND SUB PUSH2 0x177F JUMPI PUSH0 SWAP2 POP JUMPDEST PUSH1 0x1 ADD PUSH2 0x1740 JUMP JUMPDEST POP DUP1 ISZERO PUSH2 0x179D JUMPI POP SWAP7 POP PUSH2 0x9D3 SWAP6 POP POP POP POP POP POP JUMP JUMPDEST POP JUMPDEST DUP4 PUSH2 0x17A9 DUP2 PUSH2 0x285F JUMP JUMPDEST SWAP5 POP POP DUP3 DUP1 PUSH2 0x17B7 SWAP1 PUSH2 0x285F JUMP JUMPDEST SWAP4 POP POP DUP7 DUP5 SUB PUSH2 0x17C5 JUMPI PUSH0 SWAP4 POP JUMPDEST POP PUSH2 0x1697 JUMP JUMPDEST POP PUSH0 SWAP9 SWAP8 POP POP POP POP POP POP POP POP JUMP JUMPDEST PUSH1 0x1 PUSH1 0x1 PUSH1 0xA0 SHL SUB DUP5 DUP2 AND PUSH0 SWAP1 DUP2 MSTORE PUSH1 0x3 PUSH1 0x20 MSTORE PUSH1 0x40 SWAP1 KECCAK256 SLOAD AND PUSH2 0x1864 JUMPI PUSH1 0x40 MLOAD PUSH3 0x461BCD PUSH1 0xE5 SHL DUP2 MSTORE PUSH1 0x20 PUSH1 0x4 DUP3 ADD MSTORE PUSH1 0x3C PUSH1 0x24 DUP3 ADD MSTORE PUSH32 0x73746F72654368756E6B496E4E6F64653A20496E76616C6964205F6E6F646541 PUSH1 0x44 DUP3 ADD MSTORE PUSH28 0x19191C995CDCC80B48139BD91948111BD95CC81393D508195E1A5CDD PUSH1 0x22 SHL PUSH1 0x64 DUP3 ADD MSTORE PUSH1 0x84 ADD PUSH2 0x40F JUMP JUMPDEST PUSH2 0x18DC DUP5 PUSH1 0x4 DUP5 PUSH1 0x40 MLOAD PUSH2 0x1878 SWAP2 SWAP1 PUSH2 0x29FF JUMP JUMPDEST SWAP1 DUP2 MSTORE PUSH1 0x40 DUP1 MLOAD SWAP2 DUP3 SWAP1 SUB PUSH1 0x20 SWAP1 DUP2 ADD DUP4 KECCAK256 DUP1 SLOAD DUP1 DUP4 MUL DUP6 ADD DUP4 ADD SWAP1 SWAP4 MSTORE DUP3 DUP5 MSTORE SWAP2 SWAP1 DUP4 ADD DUP3 DUP3 DUP1 ISZERO PUSH2 0x18D2 JUMPI PUSH1 0x20 MUL DUP3 ADD SWAP2 SWAP1 PUSH0 MSTORE PUSH1 0x20 PUSH0 KECCAK256 SWAP1 JUMPDEST DUP2 SLOAD PUSH1 0x1 PUSH1 0x1 PUSH1 0xA0 SHL SUB AND DUP2 MSTORE PUSH1 0x1 SWAP1 SWAP2 ADD SWAP1 PUSH1 0x20 ADD DUP1 DUP4 GT PUSH2 0x18B4 JUMPI JUMPDEST POP POP POP POP POP PUSH2 0x2068 JUMP JUMPDEST PUSH2 0x11D1 JUMPI PUSH1 0x4 DUP3 PUSH1 0x40 MLOAD PUSH2 0x18F0 SWAP2 SWAP1 PUSH2 0x29FF JUMP JUMPDEST SWAP1 DUP2 MSTORE PUSH1 0x40 MLOAD SWAP1 DUP2 SWAP1 SUB PUSH1 0x20 SWAP1 DUP2 ADD SWAP1 SWAP2 KECCAK256 DUP1 SLOAD PUSH1 0x1 DUP2 ADD DUP3 SSTORE PUSH0 SWAP2 DUP3 MSTORE SWAP2 SWAP1 KECCAK256 ADD DUP1 SLOAD PUSH1 0x1 PUSH1 0x1 PUSH1 0xA0 SHL SUB DUP7 AND PUSH1 0x1 PUSH1 0x1 PUSH1 0xA0 SHL SUB NOT SWAP1 SWAP2 AND OR SWAP1 SSTORE POP POP POP POP JUMP JUMPDEST PUSH1 0x40 DUP1 MLOAD PUSH1 0x20 DUP2 ADD SWAP1 SWAP2 MSTORE PUSH0 DUP1 DUP3 MSTORE SWAP1 DUP2 JUMPDEST DUP4 MLOAD DUP2 LT ISZERO PUSH2 0x1994 JUMPI DUP2 DUP5 DUP3 DUP2 MLOAD DUP2 LT PUSH2 0x1961 JUMPI PUSH2 0x1961 PUSH2 0x2837 JUMP JUMPDEST PUSH1 0x20 MUL PUSH1 0x20 ADD ADD MLOAD PUSH1 0x40 MLOAD PUSH1 0x20 ADD PUSH2 0x197A SWAP3 SWAP2 SWAP1 PUSH2 0x2AD8 JUMP JUMPDEST PUSH1 0x40 DUP1 MLOAD PUSH1 0x1F NOT DUP2 DUP5 SUB ADD DUP2 MSTORE SWAP2 SWAP1 MSTORE SWAP2 POP PUSH1 0x1 ADD PUSH2 0x1945 JUMP JUMPDEST POP DUP1 MLOAD PUSH1 0x20 SWAP1 SWAP2 ADD KECCAK256 SWAP3 SWAP2 POP POP JUMP JUMPDEST CALLER PUSH2 0x19F0 JUMPI PUSH1 0x40 MLOAD PUSH3 0x461BCD PUSH1 0xE5 SHL DUP2 MSTORE PUSH1 0x20 PUSH1 0x4 DUP3 ADD MSTORE PUSH1 0x1D PUSH1 0x24 DUP3 ADD MSTORE PUSH32 0x73746F726546696C65486173683A20496E76616C69642073656E646572000000 PUSH1 0x44 DUP3 ADD MSTORE PUSH1 0x64 ADD PUSH2 0x40F JUMP JUMPDEST DUP2 PUSH2 0x1A3D JUMPI PUSH1 0x40 MLOAD PUSH3 0x461BCD PUSH1 0xE5 SHL DUP2 MSTORE PUSH1 0x20 PUSH1 0x4 DUP3 ADD DUP2 SWAP1 MSTORE PUSH1 0x24 DUP3 ADD MSTORE PUSH32 0x73746F726546696C65486173683A20496E76616C6964205F66696C6548617368 PUSH1 0x44 DUP3 ADD MSTORE PUSH1 0x64 ADD PUSH2 0x40F JUMP JUMPDEST PUSH0 DUP2 MLOAD GT PUSH2 0x1A8D JUMPI PUSH1 0x40 MLOAD PUSH3 0x461BCD PUSH1 0xE5 SHL DUP2 MSTORE PUSH1 0x20 PUSH1 0x4 DUP3 ADD MSTORE PUSH1 0x1E PUSH1 0x24 DUP3 ADD MSTORE PUSH32 0x73746F726546696C65486173683A20496E76616C6964205F66696C6549640000 PUSH1 0x44 DUP3 ADD MSTORE PUSH1 0x64 ADD PUSH2 0x40F JUMP JUMPDEST DUP2 PUSH1 0x2 DUP3 PUSH1 0x40 MLOAD PUSH2 0x1A9E SWAP2 SWAP1 PUSH2 0x29FF JUMP JUMPDEST SWAP1 DUP2 MSTORE PUSH1 0x40 MLOAD SWAP1 DUP2 SWAP1 SUB PUSH1 0x20 ADD SWAP1 KECCAK256 SSTORE POP POP JUMP JUMPDEST PUSH1 0x40 DUP1 MLOAD PUSH1 0x60 DUP2 DUP2 ADD SWAP1 SWAP3 MSTORE PUSH1 0x21 DUP1 DUP3 MSTORE CALLER ISZERO ISZERO SWAP2 SWAP1 PUSH2 0x2BB6 PUSH1 0x20 DUP4 ADD CODECOPY SWAP1 PUSH2 0x1AEE JUMPI PUSH1 0x40 MLOAD PUSH3 0x461BCD PUSH1 0xE5 SHL DUP2 MSTORE PUSH1 0x4 ADD PUSH2 0x40F SWAP2 SWAP1 PUSH2 0x2825 JUMP JUMPDEST POP CALLER PUSH0 SWAP1 DUP2 MSTORE PUSH1 0x8 PUSH1 0x20 SWAP1 DUP2 MSTORE PUSH1 0x40 DUP1 DUP4 KECCAK256 DUP1 SLOAD DUP3 MLOAD DUP2 DUP6 MUL DUP2 ADD DUP6 ADD SWAP1 SWAP4 MSTORE DUP1 DUP4 MSTORE SWAP2 SWAP4 SWAP1 SWAP3 DUP5 ADD JUMPDEST DUP3 DUP3 LT ISZERO PUSH2 0x1DBD JUMPI DUP4 DUP3 SWAP1 PUSH0 MSTORE PUSH1 0x20 PUSH0 KECCAK256 SWAP1 PUSH1 0x8 MUL ADD PUSH1 0x40 MLOAD DUP1 PUSH2 0x100 ADD PUSH1 0x40 MSTORE SWAP1 DUP2 PUSH0 DUP3 ADD DUP1 SLOAD PUSH2 0x1B49 SWAP1 PUSH2 0x288A JUMP JUMPDEST DUP1 PUSH1 0x1F ADD PUSH1 0x20 DUP1 SWAP2 DIV MUL PUSH1 0x20 ADD PUSH1 0x40 MLOAD SWAP1 DUP2 ADD PUSH1 0x40 MSTORE DUP1 SWAP3 SWAP2 SWAP1 DUP2 DUP2 MSTORE PUSH1 0x20 ADD DUP3 DUP1 SLOAD PUSH2 0x1B75 SWAP1 PUSH2 0x288A JUMP JUMPDEST DUP1 ISZERO PUSH2 0x1BC0 JUMPI DUP1 PUSH1 0x1F LT PUSH2 0x1B97 JUMPI PUSH2 0x100 DUP1 DUP4 SLOAD DIV MUL DUP4 MSTORE SWAP2 PUSH1 0x20 ADD SWAP2 PUSH2 0x1BC0 JUMP JUMPDEST DUP3 ADD SWAP2 SWAP1 PUSH0 MSTORE PUSH1 0x20 PUSH0 KECCAK256 SWAP1 JUMPDEST DUP2 SLOAD DUP2 MSTORE SWAP1 PUSH1 0x1 ADD SWAP1 PUSH1 0x20 ADD DUP1 DUP4 GT PUSH2 0x1BA3 JUMPI DUP3 SWAP1 SUB PUSH1 0x1F AND DUP3 ADD SWAP2 JUMPDEST POP POP POP POP POP DUP2 MSTORE PUSH1 0x20 ADD PUSH1 0x1 DUP3 ADD DUP1 SLOAD PUSH2 0x1BD9 SWAP1 PUSH2 0x288A JUMP JUMPDEST DUP1 PUSH1 0x1F ADD PUSH1 0x20 DUP1 SWAP2 DIV MUL PUSH1 0x20 ADD PUSH1 0x40 MLOAD SWAP1 DUP2 ADD PUSH1 0x40 MSTORE DUP1 SWAP3 SWAP2 SWAP1 DUP2 DUP2 MSTORE PUSH1 0x20 ADD DUP3 DUP1 SLOAD PUSH2 0x1C05 SWAP1 PUSH2 0x288A JUMP JUMPDEST DUP1 ISZERO PUSH2 0x1C50 JUMPI DUP1 PUSH1 0x1F LT PUSH2 0x1C27 JUMPI PUSH2 0x100 DUP1 DUP4 SLOAD DIV MUL DUP4 MSTORE SWAP2 PUSH1 0x20 ADD SWAP2 PUSH2 0x1C50 JUMP JUMPDEST DUP3 ADD SWAP2 SWAP1 PUSH0 MSTORE PUSH1 0x20 PUSH0 KECCAK256 SWAP1 JUMPDEST DUP2 SLOAD DUP2 MSTORE SWAP1 PUSH1 0x1 ADD SWAP1 PUSH1 0x20 ADD DUP1 DUP4 GT PUSH2 0x1C33 JUMPI DUP3 SWAP1 SUB PUSH1 0x1F AND DUP3 ADD SWAP2 JUMPDEST POP POP POP POP POP DUP2 MSTORE PUSH1 0x20 ADD PUSH1 0x2 DUP3 ADD DUP1 SLOAD PUSH2 0x1C69 SWAP1 PUSH2 0x288A JUMP JUMPDEST DUP1 PUSH1 0x1F ADD PUSH1 0x20 DUP1 SWAP2 DIV MUL PUSH1 0x20 ADD PUSH1 0x40 MLOAD SWAP1 DUP2 ADD PUSH1 0x40 MSTORE DUP1 SWAP3 SWAP2 SWAP1 DUP2 DUP2 MSTORE PUSH1 0x20 ADD DUP3 DUP1 SLOAD PUSH2 0x1C95 SWAP1 PUSH2 0x288A JUMP JUMPDEST DUP1 ISZERO PUSH2 0x1CE0 JUMPI DUP1 PUSH1 0x1F LT PUSH2 0x1CB7 JUMPI PUSH2 0x100 DUP1 DUP4 SLOAD DIV MUL DUP4 MSTORE SWAP2 PUSH1 0x20 ADD SWAP2 PUSH2 0x1CE0 JUMP JUMPDEST DUP3 ADD SWAP2 SWAP1 PUSH0 MSTORE PUSH1 0x20 PUSH0 KECCAK256 SWAP1 JUMPDEST DUP2 SLOAD DUP2 MSTORE SWAP1 PUSH1 0x1 ADD SWAP1 PUSH1 0x20 ADD DUP1 DUP4 GT PUSH2 0x1CC3 JUMPI DUP3 SWAP1 SUB PUSH1 0x1F AND DUP3 ADD SWAP2 JUMPDEST POP POP POP SWAP2 DUP4 MSTORE POP POP PUSH1 0x3 DUP3 ADD SLOAD PUSH1 0x20 DUP3 ADD MSTORE PUSH1 0x4 DUP3 ADD SLOAD PUSH1 0x40 DUP3 ADD MSTORE PUSH1 0x5 DUP3 ADD SLOAD PUSH1 0x60 DUP3 ADD MSTORE PUSH1 0x6 DUP3 ADD SLOAD PUSH1 0x1 PUSH1 0x1 PUSH1 0xA0 SHL SUB AND PUSH1 0x80 DUP3 ADD MSTORE PUSH1 0x7 DUP3 ADD DUP1 SLOAD PUSH1 0xA0 SWAP1 SWAP3 ADD SWAP2 PUSH2 0x1D2E SWAP1 PUSH2 0x288A JUMP JUMPDEST DUP1 PUSH1 0x1F ADD PUSH1 0x20 DUP1 SWAP2 DIV MUL PUSH1 0x20 ADD PUSH1 0x40 MLOAD SWAP1 DUP2 ADD PUSH1 0x40 MSTORE DUP1 SWAP3 SWAP2 SWAP1 DUP2 DUP2 MSTORE PUSH1 0x20 ADD DUP3 DUP1 SLOAD PUSH2 0x1D5A SWAP1 PUSH2 0x288A JUMP JUMPDEST DUP1 ISZERO PUSH2 0x1DA5 JUMPI DUP1 PUSH1 0x1F LT PUSH2 0x1D7C JUMPI PUSH2 0x100 DUP1 DUP4 SLOAD DIV MUL DUP4 MSTORE SWAP2 PUSH1 0x20 ADD SWAP2 PUSH2 0x1DA5 JUMP JUMPDEST DUP3 ADD SWAP2 SWAP1 PUSH0 MSTORE PUSH1 0x20 PUSH0 KECCAK256 SWAP1 JUMPDEST DUP2 SLOAD DUP2 MSTORE SWAP1 PUSH1 0x1 ADD SWAP1 PUSH1 0x20 ADD DUP1 DUP4 GT PUSH2 0x1D88 JUMPI DUP3 SWAP1 SUB PUSH1 0x1F AND DUP3 ADD SWAP2 JUMPDEST POP POP POP POP POP DUP2 MSTORE POP POP DUP2 MSTORE PUSH1 0x20 ADD SWAP1 PUSH1 0x1 ADD SWAP1 PUSH2 0x1B18 JUMP JUMPDEST POP POP POP POP SWAP1 POP SWAP1 JUMP JUMPDEST PUSH0 DUP2 PUSH1 0x40 MLOAD PUSH1 0x20 ADD PUSH2 0x1DD8 SWAP2 SWAP1 PUSH2 0x29FF JUMP JUMPDEST PUSH1 0x40 MLOAD PUSH1 0x20 DUP2 DUP4 SUB SUB DUP2 MSTORE SWAP1 PUSH1 0x40 MSTORE DUP1 MLOAD SWAP1 PUSH1 0x20 ADD KECCAK256 DUP4 PUSH1 0x40 MLOAD PUSH1 0x20 ADD PUSH2 0x1DFF SWAP2 SWAP1 PUSH2 0x29FF JUMP JUMPDEST PUSH1 0x40 MLOAD PUSH1 0x20 DUP2 DUP4 SUB SUB DUP2 MSTORE SWAP1 PUSH1 0x40 MSTORE DUP1 MLOAD SWAP1 PUSH1 0x20 ADD KECCAK256 EQ SWAP1 POP SWAP3 SWAP2 POP POP JUMP JUMPDEST PUSH0 PUSH1 0x2 DUP3 PUSH1 0x40 MLOAD PUSH2 0x1E2F SWAP2 SWAP1 PUSH2 0x29FF JUMP JUMPDEST SWAP1 DUP2 MSTORE PUSH1 0x20 ADD PUSH1 0x40 MLOAD DUP1 SWAP2 SUB SWAP1 KECCAK256 SLOAD DUP4 EQ SWAP1 POP SWAP3 SWAP2 POP POP JUMP JUMPDEST PUSH0 DUP2 MLOAD GT PUSH2 0x1EA3 JUMPI PUSH1 0x40 MLOAD PUSH3 0x461BCD PUSH1 0xE5 SHL DUP2 MSTORE PUSH1 0x20 PUSH1 0x4 DUP3 ADD MSTORE PUSH1 0x22 PUSH1 0x24 DUP3 ADD MSTORE PUSH32 0x64656C6574654368756E6B496E4E6F64653A20496E76616C6964205F66696C65 PUSH1 0x44 DUP3 ADD MSTORE PUSH2 0x1259 PUSH1 0xF2 SHL PUSH1 0x64 DUP3 ADD MSTORE PUSH1 0x84 ADD PUSH2 0x40F JUMP JUMPDEST PUSH1 0x4 DUP2 PUSH1 0x40 MLOAD PUSH2 0x1EB3 SWAP2 SWAP1 PUSH2 0x29FF JUMP JUMPDEST SWAP1 DUP2 MSTORE PUSH1 0x20 ADD PUSH1 0x40 MLOAD DUP1 SWAP2 SUB SWAP1 KECCAK256 PUSH0 PUSH2 0x11F4 SWAP2 SWAP1 PUSH2 0x20E0 JUMP JUMPDEST PUSH0 DUP2 MLOAD GT PUSH2 0x1F1C JUMPI PUSH1 0x40 MLOAD PUSH3 0x461BCD PUSH1 0xE5 SHL DUP2 MSTORE PUSH1 0x20 PUSH1 0x4 DUP3 ADD MSTORE PUSH1 0x1F PUSH1 0x24 DUP3 ADD MSTORE PUSH32 0x64656C65746546696C65486173683A20496E76616C6964205F66696C65496400 PUSH1 0x44 DUP3 ADD MSTORE PUSH1 0x64 ADD PUSH2 0x40F JUMP JUMPDEST PUSH0 DUP1 SHL PUSH1 0x2 DUP3 PUSH1 0x40 MLOAD PUSH2 0x1F2F SWAP2 SWAP1 PUSH2 0x29FF JUMP JUMPDEST SWAP1 DUP2 MSTORE PUSH1 0x20 ADD PUSH1 0x40 MLOAD DUP1 SWAP2 SUB SWAP1 KECCAK256 SLOAD SUB PUSH2 0x1F97 JUMPI PUSH1 0x40 MLOAD PUSH3 0x461BCD PUSH1 0xE5 SHL DUP2 MSTORE PUSH1 0x20 PUSH1 0x4 DUP3 ADD MSTORE PUSH1 0x24 DUP1 DUP3 ADD MSTORE PUSH32 0x64656C65746546696C65486173683A20496E76616C69642066696C654964546F PUSH1 0x44 DUP3 ADD MSTORE PUSH4 0x90C2E6D PUSH1 0xE3 SHL PUSH1 0x64 DUP3 ADD MSTORE PUSH1 0x84 ADD PUSH2 0x40F JUMP JUMPDEST PUSH1 0x2 DUP2 PUSH1 0x40 MLOAD PUSH2 0x1FA7 SWAP2 SWAP1 PUSH2 0x29FF JUMP JUMPDEST SWAP1 DUP2 MSTORE PUSH1 0x20 ADD PUSH1 0x40 MLOAD DUP1 SWAP2 SUB SWAP1 KECCAK256 PUSH0 SWAP1 SSTORE POP JUMP JUMPDEST PUSH1 0x60 PUSH1 0x5 DUP1 SLOAD DUP1 PUSH1 0x20 MUL PUSH1 0x20 ADD PUSH1 0x40 MLOAD SWAP1 DUP2 ADD PUSH1 0x40 MSTORE DUP1 SWAP3 SWAP2 SWAP1 DUP2 DUP2 MSTORE PUSH1 0x20 ADD DUP3 DUP1 SLOAD DUP1 ISZERO PUSH2 0x2011 JUMPI PUSH1 0x20 MUL DUP3 ADD SWAP2 SWAP1 PUSH0 MSTORE PUSH1 0x20 PUSH0 KECCAK256 SWAP1 JUMPDEST DUP2 SLOAD PUSH1 0x1 PUSH1 0x1 PUSH1 0xA0 SHL SUB AND DUP2 MSTORE PUSH1 0x1 SWAP1 SWAP2 ADD SWAP1 PUSH1 0x20 ADD DUP1 DUP4 GT PUSH2 0x1FF3 JUMPI JUMPDEST POP POP POP POP POP SWAP1 POP SWAP1 JUMP JUMPDEST PUSH2 0x2023 PUSH2 0x219F JUMP JUMPDEST POP PUSH1 0x1 PUSH1 0x1 PUSH1 0xA0 SHL SUB SWAP1 DUP2 AND PUSH0 SWAP1 DUP2 MSTORE PUSH1 0x3 PUSH1 0x20 SWAP1 DUP2 MSTORE PUSH1 0x40 SWAP2 DUP3 SWAP1 KECCAK256 DUP3 MLOAD DUP1 DUP5 ADD SWAP1 SWAP4 MSTORE DUP1 SLOAD SWAP1 SWAP4 AND DUP3 MSTORE PUSH1 0x1 SWAP1 SWAP3 ADD SLOAD SWAP2 DUP2 ADD SWAP2 SWAP1 SWAP2 MSTORE SWAP1 JUMP JUMPDEST PUSH2 0x11F4 DUP2 PUSH2 0x20C1 JUMP JUMPDEST PUSH0 DUP1 JUMPDEST DUP3 MLOAD DUP2 LT ISZERO PUSH2 0x20B8 JUMPI DUP4 PUSH1 0x1 PUSH1 0x1 PUSH1 0xA0 SHL SUB AND DUP4 DUP3 DUP2 MLOAD DUP2 LT PUSH2 0x2090 JUMPI PUSH2 0x2090 PUSH2 0x2837 JUMP JUMPDEST PUSH1 0x20 MUL PUSH1 0x20 ADD ADD MLOAD PUSH1 0x1 PUSH1 0x1 PUSH1 0xA0 SHL SUB AND SUB PUSH2 0x20B0 JUMPI PUSH1 0x1 SWAP2 POP POP PUSH2 0x9D3 JUMP JUMPDEST PUSH1 0x1 ADD PUSH2 0x206B JUMP JUMPDEST POP PUSH0 SWAP4 SWAP3 POP POP POP JUMP JUMPDEST PUSH0 PUSH11 0x636F6E736F6C652E6C6F67 SWAP1 POP PUSH0 DUP1 DUP4 MLOAD PUSH1 0x20 DUP6 ADD DUP5 GAS STATICCALL POP POP POP JUMP JUMPDEST POP DUP1 SLOAD PUSH0 DUP3 SSTORE SWAP1 PUSH0 MSTORE PUSH1 0x20 PUSH0 KECCAK256 SWAP1 DUP2 ADD SWAP1 PUSH2 0x11F4 SWAP2 SWAP1 PUSH2 0x21B5 JUMP JUMPDEST PUSH1 0x40 MLOAD DUP1 PUSH1 0x40 ADD PUSH1 0x40 MSTORE DUP1 PUSH2 0x210E PUSH2 0x211B JUMP JUMPDEST DUP2 MSTORE PUSH1 0x20 ADD PUSH1 0x60 DUP2 MSTORE POP SWAP1 JUMP JUMPDEST PUSH1 0x40 MLOAD DUP1 PUSH2 0x100 ADD PUSH1 0x40 MSTORE DUP1 PUSH1 0x60 DUP2 MSTORE PUSH1 0x20 ADD PUSH1 0x60 DUP2 MSTORE PUSH1 0x20 ADD PUSH1 0x60 DUP2 MSTORE PUSH1 0x20 ADD PUSH0 DUP1 NOT AND DUP2 MSTORE PUSH1 0x20 ADD PUSH0 DUP2 MSTORE PUSH1 0x20 ADD PUSH0 DUP2 MSTORE PUSH1 0x20 ADD PUSH0 PUSH1 0x1 PUSH1 0x1 PUSH1 0xA0 SHL SUB AND DUP2 MSTORE PUSH1 0x20 ADD PUSH1 0x60 DUP2 MSTORE POP SWAP1 JUMP JUMPDEST POP DUP1 SLOAD PUSH2 0x2174 SWAP1 PUSH2 0x288A JUMP JUMPDEST PUSH0 DUP3 SSTORE DUP1 PUSH1 0x1F LT PUSH2 0x2183 JUMPI POP POP JUMP JUMPDEST PUSH1 0x1F ADD PUSH1 0x20 SWAP1 DIV SWAP1 PUSH0 MSTORE PUSH1 0x20 PUSH0 KECCAK256 SWAP1 DUP2 ADD SWAP1 PUSH2 0x11F4 SWAP2 SWAP1 PUSH2 0x21B5 JUMP JUMPDEST PUSH1 0x40 DUP1 MLOAD DUP1 DUP3 ADD SWAP1 SWAP2 MSTORE PUSH0 DUP1 DUP3 MSTORE PUSH1 0x20 DUP3 ADD MSTORE SWAP1 JUMP JUMPDEST JUMPDEST DUP1 DUP3 GT ISZERO PUSH2 0x21C9 JUMPI PUSH0 DUP2 SSTORE PUSH1 0x1 ADD PUSH2 0x21B6 JUMP JUMPDEST POP SWAP1 JUMP JUMPDEST DUP1 CALLDATALOAD PUSH1 0x1 PUSH1 0x1 PUSH1 0xA0 SHL SUB DUP2 AND DUP2 EQ PUSH2 0x21E3 JUMPI PUSH0 DUP1 REVERT JUMPDEST SWAP2 SWAP1 POP JUMP JUMPDEST PUSH0 DUP1 PUSH1 0x40 DUP4 DUP6 SUB SLT ISZERO PUSH2 0x21F9 JUMPI PUSH0 DUP1 REVERT JUMPDEST PUSH2 0x2202 DUP4 PUSH2 0x21CD JUMP JUMPDEST SWAP5 PUSH1 0x20 SWAP4 SWAP1 SWAP4 ADD CALLDATALOAD SWAP4 POP POP POP JUMP JUMPDEST PUSH0 PUSH1 0x20 DUP3 DUP5 SUB SLT ISZERO PUSH2 0x2220 JUMPI PUSH0 DUP1 REVERT JUMPDEST PUSH2 0x9F3 DUP3 PUSH2 0x21CD JUMP JUMPDEST PUSH4 0x4E487B71 PUSH1 0xE0 SHL PUSH0 MSTORE PUSH1 0x41 PUSH1 0x4 MSTORE PUSH1 0x24 PUSH0 REVERT JUMPDEST PUSH1 0x40 MLOAD PUSH1 0x1F DUP3 ADD PUSH1 0x1F NOT AND DUP2 ADD PUSH1 0x1 PUSH1 0x1 PUSH1 0x40 SHL SUB DUP2 GT DUP3 DUP3 LT OR ISZERO PUSH2 0x2265 JUMPI PUSH2 0x2265 PUSH2 0x2229 JUMP JUMPDEST PUSH1 0x40 MSTORE SWAP2 SWAP1 POP JUMP JUMPDEST PUSH0 DUP3 PUSH1 0x1F DUP4 ADD SLT PUSH2 0x227C JUMPI PUSH0 DUP1 REVERT JUMPDEST DUP2 CALLDATALOAD PUSH1 0x1 PUSH1 0x1 PUSH1 0x40 SHL SUB DUP2 GT ISZERO PUSH2 0x2295 JUMPI PUSH2 0x2295 PUSH2 0x2229 JUMP JUMPDEST PUSH2 0x22A8 PUSH1 0x1F DUP3 ADD PUSH1 0x1F NOT AND PUSH1 0x20 ADD PUSH2 0x223D JUMP JUMPDEST DUP2 DUP2 MSTORE DUP5 PUSH1 0x20 DUP4 DUP7 ADD ADD GT ISZERO PUSH2 0x22BC JUMPI PUSH0 DUP1 REVERT JUMPDEST DUP2 PUSH1 0x20 DUP6 ADD PUSH1 0x20 DUP4 ADD CALLDATACOPY PUSH0 SWAP2 DUP2 ADD PUSH1 0x20 ADD SWAP2 SWAP1 SWAP2 MSTORE SWAP4 SWAP3 POP POP POP JUMP JUMPDEST PUSH0 DUP1 PUSH0 DUP1 PUSH0 DUP1 PUSH1 0xC0 DUP8 DUP10 SUB SLT ISZERO PUSH2 0x22ED JUMPI PUSH0 DUP1 REVERT JUMPDEST DUP7 CALLDATALOAD PUSH1 0x1 PUSH1 0x1 PUSH1 0x40 SHL SUB DUP1 DUP3 GT ISZERO PUSH2 0x2303 JUMPI PUSH0 DUP1 REVERT JUMPDEST PUSH2 0x230F DUP11 DUP4 DUP12 ADD PUSH2 0x226D JUMP JUMPDEST SWAP8 POP PUSH1 0x20 DUP10 ADD CALLDATALOAD SWAP2 POP DUP1 DUP3 GT ISZERO PUSH2 0x2324 JUMPI PUSH0 DUP1 REVERT JUMPDEST PUSH2 0x2330 DUP11 DUP4 DUP12 ADD PUSH2 0x226D JUMP JUMPDEST SWAP7 POP PUSH1 0x40 DUP10 ADD CALLDATALOAD SWAP6 POP PUSH1 0x60 DUP10 ADD CALLDATALOAD SWAP2 POP DUP1 DUP3 GT ISZERO PUSH2 0x234C JUMPI PUSH0 DUP1 REVERT JUMPDEST PUSH2 0x2358 DUP11 DUP4 DUP12 ADD PUSH2 0x226D JUMP JUMPDEST SWAP5 POP PUSH1 0x80 DUP10 ADD CALLDATALOAD SWAP2 POP DUP1 DUP3 GT ISZERO PUSH2 0x236D JUMPI PUSH0 DUP1 REVERT JUMPDEST POP PUSH2 0x237A DUP10 DUP3 DUP11 ADD PUSH2 0x226D JUMP JUMPDEST SWAP3 POP POP PUSH1 0xA0 DUP8 ADD CALLDATALOAD SWAP1 POP SWAP3 SWAP6 POP SWAP3 SWAP6 POP SWAP3 SWAP6 JUMP JUMPDEST PUSH0 DUP1 PUSH1 0x40 DUP4 DUP6 SUB SLT ISZERO PUSH2 0x239F JUMPI PUSH0 DUP1 REVERT JUMPDEST DUP3 CALLDATALOAD PUSH1 0x1 PUSH1 0x1 PUSH1 0x40 SHL SUB DUP2 GT ISZERO PUSH2 0x23B4 JUMPI PUSH0 DUP1 REVERT JUMPDEST PUSH2 0x23C0 DUP6 DUP3 DUP7 ADD PUSH2 0x226D JUMP JUMPDEST SWAP6 PUSH1 0x20 SWAP5 SWAP1 SWAP5 ADD CALLDATALOAD SWAP5 POP POP POP POP JUMP JUMPDEST PUSH1 0x1 PUSH1 0x1 PUSH1 0xA0 SHL SUB SWAP2 SWAP1 SWAP2 AND DUP2 MSTORE PUSH1 0x20 ADD SWAP1 JUMP JUMPDEST PUSH0 DUP3 PUSH1 0x1F DUP4 ADD SLT PUSH2 0x23F2 JUMPI PUSH0 DUP1 REVERT JUMPDEST DUP2 CALLDATALOAD PUSH1 0x20 PUSH1 0x1 PUSH1 0x1 PUSH1 0x40 SHL SUB DUP1 DUP4 GT ISZERO PUSH2 0x240E JUMPI PUSH2 0x240E PUSH2 0x2229 JUMP JUMPDEST DUP3 PUSH1 0x5 SHL PUSH2 0x241D DUP4 DUP3 ADD PUSH2 0x223D JUMP JUMPDEST SWAP4 DUP5 MSTORE DUP6 DUP2 ADD DUP4 ADD SWAP4 DUP4 DUP2 ADD SWAP1 DUP9 DUP7 GT ISZERO PUSH2 0x2436 JUMPI PUSH0 DUP1 REVERT JUMPDEST DUP5 DUP9 ADD SWAP3 POP JUMPDEST DUP6 DUP4 LT ISZERO PUSH2 0x2470 JUMPI DUP3 CALLDATALOAD DUP5 DUP2 GT ISZERO PUSH2 0x2452 JUMPI PUSH0 DUP1 REVERT JUMPDEST PUSH2 0x2460 DUP11 DUP8 DUP4 DUP13 ADD ADD PUSH2 0x226D JUMP JUMPDEST DUP4 MSTORE POP SWAP2 DUP5 ADD SWAP2 SWAP1 DUP5 ADD SWAP1 PUSH2 0x243C JUMP JUMPDEST SWAP9 SWAP8 POP POP POP POP POP POP POP POP JUMP JUMPDEST PUSH0 DUP1 PUSH0 DUP1 PUSH0 DUP1 PUSH1 0xC0 DUP8 DUP10 SUB SLT ISZERO PUSH2 0x2491 JUMPI PUSH0 DUP1 REVERT JUMPDEST DUP7 CALLDATALOAD PUSH1 0x1 PUSH1 0x1 PUSH1 0x40 SHL SUB DUP1 DUP3 GT ISZERO PUSH2 0x24A7 JUMPI PUSH0 DUP1 REVERT JUMPDEST PUSH2 0x24B3 DUP11 DUP4 DUP12 ADD PUSH2 0x23E3 JUMP JUMPDEST SWAP8 POP PUSH1 0x20 DUP10 ADD CALLDATALOAD SWAP2 POP DUP1 DUP3 GT ISZERO PUSH2 0x24C8 JUMPI PUSH0 DUP1 REVERT JUMPDEST PUSH2 0x24D4 DUP11 DUP4 DUP12 ADD PUSH2 0x226D JUMP JUMPDEST SWAP7 POP PUSH1 0x40 DUP10 ADD CALLDATALOAD SWAP2 POP DUP1 DUP3 GT ISZERO PUSH2 0x24E9 JUMPI PUSH0 DUP1 REVERT JUMPDEST PUSH2 0x24F5 DUP11 DUP4 DUP12 ADD PUSH2 0x226D JUMP JUMPDEST SWAP6 POP PUSH1 0x60 DUP10 ADD CALLDATALOAD SWAP2 POP DUP1 DUP3 GT ISZERO PUSH2 0x234C JUMPI PUSH0 DUP1 REVERT JUMPDEST PUSH0 PUSH1 0x20 DUP3 DUP5 SUB SLT ISZERO PUSH2 0x251A JUMPI PUSH0 DUP1 REVERT JUMPDEST DUP2 CALLDATALOAD PUSH1 0x1 PUSH1 0x1 PUSH1 0x40 SHL SUB DUP2 GT ISZERO PUSH2 0x252F JUMPI PUSH0 DUP1 REVERT JUMPDEST PUSH2 0x253B DUP5 DUP3 DUP6 ADD PUSH2 0x226D JUMP JUMPDEST SWAP5 SWAP4 POP POP POP POP JUMP JUMPDEST PUSH0 JUMPDEST DUP4 DUP2 LT ISZERO PUSH2 0x255D JUMPI DUP2 DUP2 ADD MLOAD DUP4 DUP3 ADD MSTORE PUSH1 0x20 ADD PUSH2 0x2545 JUMP JUMPDEST POP POP PUSH0 SWAP2 ADD MSTORE JUMP JUMPDEST PUSH0 DUP2 MLOAD DUP1 DUP5 MSTORE PUSH2 0x257C DUP2 PUSH1 0x20 DUP7 ADD PUSH1 0x20 DUP7 ADD PUSH2 0x2543 JUMP JUMPDEST PUSH1 0x1F ADD PUSH1 0x1F NOT AND SWAP3 SWAP1 SWAP3 ADD PUSH1 0x20 ADD SWAP3 SWAP2 POP POP JUMP JUMPDEST PUSH0 PUSH2 0x100 DUP3 MLOAD DUP2 DUP6 MSTORE PUSH2 0x25A5 DUP3 DUP7 ADD DUP3 PUSH2 0x2565 JUMP JUMPDEST SWAP2 POP POP PUSH1 0x20 DUP4 ADD MLOAD DUP5 DUP3 SUB PUSH1 0x20 DUP7 ADD MSTORE PUSH2 0x25BF DUP3 DUP3 PUSH2 0x2565 JUMP JUMPDEST SWAP2 POP POP PUSH1 0x40 DUP4 ADD MLOAD DUP5 DUP3 SUB PUSH1 0x40 DUP7 ADD MSTORE PUSH2 0x25D9 DUP3 DUP3 PUSH2 0x2565 JUMP JUMPDEST SWAP2 POP POP PUSH1 0x60 DUP4 ADD MLOAD PUSH1 0x60 DUP6 ADD MSTORE PUSH1 0x80 DUP4 ADD MLOAD PUSH1 0x80 DUP6 ADD MSTORE PUSH1 0xA0 DUP4 ADD MLOAD PUSH1 0xA0 DUP6 ADD MSTORE PUSH1 0xC0 DUP4 ADD MLOAD PUSH2 0x2614 PUSH1 0xC0 DUP7 ADD DUP3 PUSH1 0x1 PUSH1 0x1 PUSH1 0xA0 SHL SUB AND SWAP1 MSTORE JUMP JUMPDEST POP PUSH1 0xE0 DUP4 ADD MLOAD DUP5 DUP3 SUB PUSH1 0xE0 DUP7 ADD MSTORE PUSH2 0x262C DUP3 DUP3 PUSH2 0x2565 JUMP JUMPDEST SWAP6 SWAP5 POP POP POP POP POP JUMP JUMPDEST PUSH0 DUP2 MLOAD DUP1 DUP5 MSTORE PUSH1 0x20 DUP1 DUP6 ADD SWAP5 POP PUSH1 0x20 DUP5 ADD PUSH0 JUMPDEST DUP4 DUP2 LT ISZERO PUSH2 0x266D JUMPI DUP2 MLOAD PUSH1 0x1 PUSH1 0x1 PUSH1 0xA0 SHL SUB AND DUP8 MSTORE SWAP6 DUP3 ADD SWAP6 SWAP1 DUP3 ADD SWAP1 PUSH1 0x1 ADD PUSH2 0x2648 JUMP JUMPDEST POP SWAP5 SWAP6 SWAP5 POP POP POP POP POP JUMP JUMPDEST PUSH1 0x20 DUP2 MSTORE PUSH0 DUP3 MLOAD PUSH1 0x40 PUSH1 0x20 DUP5 ADD MSTORE PUSH2 0x2693 PUSH1 0x60 DUP5 ADD DUP3 PUSH2 0x2590 JUMP JUMPDEST SWAP1 POP PUSH1 0x20 DUP5 ADD MLOAD PUSH1 0x1F NOT DUP5 DUP4 SUB ADD PUSH1 0x40 DUP6 ADD MSTORE PUSH2 0x262C DUP3 DUP3 PUSH2 0x2635 JUMP JUMPDEST PUSH0 PUSH1 0x20 DUP1 DUP4 ADD PUSH1 0x20 DUP5 MSTORE DUP1 DUP6 MLOAD DUP1 DUP4 MSTORE PUSH1 0x40 DUP7 ADD SWAP2 POP PUSH1 0x40 DUP2 PUSH1 0x5 SHL DUP8 ADD ADD SWAP3 POP PUSH1 0x20 DUP8 ADD PUSH0 JUMPDEST DUP3 DUP2 LT ISZERO PUSH2 0x2705 JUMPI PUSH1 0x3F NOT DUP9 DUP7 SUB ADD DUP5 MSTORE PUSH2 0x26F3 DUP6 DUP4 MLOAD PUSH2 0x2590 JUMP JUMPDEST SWAP5 POP SWAP3 DUP6 ADD SWAP3 SWAP1 DUP6 ADD SWAP1 PUSH1 0x1 ADD PUSH2 0x26D7 JUMP JUMPDEST POP SWAP3 SWAP8 SWAP7 POP POP POP POP POP POP POP JUMP JUMPDEST PUSH0 DUP1 PUSH1 0x40 DUP4 DUP6 SUB SLT ISZERO PUSH2 0x2723 JUMPI PUSH0 DUP1 REVERT JUMPDEST DUP3 CALLDATALOAD SWAP2 POP PUSH1 0x20 DUP4 ADD CALLDATALOAD PUSH1 0x1 PUSH1 0x1 PUSH1 0x40 SHL SUB DUP2 GT ISZERO PUSH2 0x273F JUMPI PUSH0 DUP1 REVERT JUMPDEST PUSH2 0x274B DUP6 DUP3 DUP7 ADD PUSH2 0x226D JUMP JUMPDEST SWAP2 POP POP SWAP3 POP SWAP3 SWAP1 POP JUMP JUMPDEST PUSH1 0x20 DUP2 MSTORE PUSH0 PUSH2 0x9F3 PUSH1 0x20 DUP4 ADD DUP5 PUSH2 0x2635 JUMP JUMPDEST PUSH0 DUP1 PUSH0 DUP1 PUSH1 0x80 DUP6 DUP8 SUB SLT ISZERO PUSH2 0x277A JUMPI PUSH0 DUP1 REVERT JUMPDEST PUSH2 0x2783 DUP6 PUSH2 0x21CD JUMP JUMPDEST SWAP4 POP PUSH1 0x20 DUP6 ADD CALLDATALOAD PUSH1 0x1 PUSH1 0x1 PUSH1 0x40 SHL SUB DUP1 DUP3 GT ISZERO PUSH2 0x279E JUMPI PUSH0 DUP1 REVERT JUMPDEST PUSH2 0x27AA DUP9 DUP4 DUP10 ADD PUSH2 0x226D JUMP JUMPDEST SWAP5 POP PUSH1 0x40 DUP8 ADD CALLDATALOAD SWAP2 POP DUP1 DUP3 GT ISZERO PUSH2 0x27BF JUMPI PUSH0 DUP1 REVERT JUMPDEST POP PUSH2 0x27CC DUP8 DUP3 DUP9 ADD PUSH2 0x226D JUMP JUMPDEST SWAP5 SWAP8 SWAP4 SWAP7 POP SWAP4 SWAP5 PUSH1 0x60 ADD CALLDATALOAD SWAP4 POP POP POP JUMP JUMPDEST PUSH0 PUSH1 0x20 DUP3 DUP5 SUB SLT ISZERO PUSH2 0x27ED JUMPI PUSH0 DUP1 REVERT JUMPDEST DUP2 CALLDATALOAD PUSH1 0x1 PUSH1 0x1 PUSH1 0x40 SHL SUB DUP2 GT ISZERO PUSH2 0x2802 JUMPI PUSH0 DUP1 REVERT JUMPDEST PUSH2 0x253B DUP5 DUP3 DUP6 ADD PUSH2 0x23E3 JUMP JUMPDEST PUSH0 PUSH1 0x20 DUP3 DUP5 SUB SLT ISZERO PUSH2 0x281E JUMPI PUSH0 DUP1 REVERT JUMPDEST POP CALLDATALOAD SWAP2 SWAP1 POP JUMP JUMPDEST PUSH1 0x20 DUP2 MSTORE PUSH0 PUSH2 0x9F3 PUSH1 0x20 DUP4 ADD DUP5 PUSH2 0x2565 JUMP JUMPDEST PUSH4 0x4E487B71 PUSH1 0xE0 SHL PUSH0 MSTORE PUSH1 0x32 PUSH1 0x4 MSTORE PUSH1 0x24 PUSH0 REVERT JUMPDEST PUSH4 0x4E487B71 PUSH1 0xE0 SHL PUSH0 MSTORE PUSH1 0x11 PUSH1 0x4 MSTORE PUSH1 0x24 PUSH0 REVERT JUMPDEST PUSH0 PUSH1 0x1 DUP3 ADD PUSH2 0x2870 JUMPI PUSH2 0x2870 PUSH2 0x284B JUMP JUMPDEST POP PUSH1 0x1 ADD SWAP1 JUMP JUMPDEST DUP2 DUP2 SUB DUP2 DUP2 GT ISZERO PUSH2 0x9D3 JUMPI PUSH2 0x9D3 PUSH2 0x284B JUMP JUMPDEST PUSH1 0x1 DUP2 DUP2 SHR SWAP1 DUP3 AND DUP1 PUSH2 0x289E JUMPI PUSH1 0x7F DUP3 AND SWAP2 POP JUMPDEST PUSH1 0x20 DUP3 LT DUP2 SUB PUSH2 0x28BC JUMPI PUSH4 0x4E487B71 PUSH1 0xE0 SHL PUSH0 MSTORE PUSH1 0x22 PUSH1 0x4 MSTORE PUSH1 0x24 PUSH0 REVERT JUMPDEST POP SWAP2 SWAP1 POP JUMP JUMPDEST PUSH1 0x1F DUP3 GT ISZERO PUSH2 0x165A JUMPI DUP1 PUSH0 MSTORE PUSH1 0x20 PUSH0 KECCAK256 PUSH1 0x1F DUP5 ADD PUSH1 0x5 SHR DUP2 ADD PUSH1 0x20 DUP6 LT ISZERO PUSH2 0x28E7 JUMPI POP DUP1 JUMPDEST PUSH1 0x1F DUP5 ADD PUSH1 0x5 SHR DUP3 ADD SWAP2 POP JUMPDEST DUP2 DUP2 LT ISZERO PUSH2 0x2906 JUMPI PUSH0 DUP2 SSTORE PUSH1 0x1 ADD PUSH2 0x28F3 JUMP JUMPDEST POP POP POP POP POP JUMP JUMPDEST DUP2 MLOAD PUSH1 0x1 PUSH1 0x1 PUSH1 0x40 SHL SUB DUP2 GT ISZERO PUSH2 0x2926 JUMPI PUSH2 0x2926 PUSH2 0x2229 JUMP JUMPDEST PUSH2 0x293A DUP2 PUSH2 0x2934 DUP5 SLOAD PUSH2 0x288A JUMP JUMPDEST DUP5 PUSH2 0x28C2 JUMP JUMPDEST PUSH1 0x20 DUP1 PUSH1 0x1F DUP4 GT PUSH1 0x1 DUP2 EQ PUSH2 0x296D JUMPI PUSH0 DUP5 ISZERO PUSH2 0x2956 JUMPI POP DUP6 DUP4 ADD MLOAD JUMPDEST PUSH0 NOT PUSH1 0x3 DUP7 SWAP1 SHL SHR NOT AND PUSH1 0x1 DUP6 SWAP1 SHL OR DUP6 SSTORE PUSH2 0x4E4 JUMP JUMPDEST PUSH0 DUP6 DUP2 MSTORE PUSH1 0x20 DUP2 KECCAK256 PUSH1 0x1F NOT DUP7 AND SWAP2 JUMPDEST DUP3 DUP2 LT ISZERO PUSH2 0x299B JUMPI DUP9 DUP7 ADD MLOAD DUP3 SSTORE SWAP5 DUP5 ADD SWAP5 PUSH1 0x1 SWAP1 SWAP2 ADD SWAP1 DUP5 ADD PUSH2 0x297C JUMP JUMPDEST POP DUP6 DUP3 LT ISZERO PUSH2 0x29B8 JUMPI DUP8 DUP6 ADD MLOAD PUSH0 NOT PUSH1 0x3 DUP9 SWAP1 SHL PUSH1 0xF8 AND SHR NOT AND DUP2 SSTORE JUMPDEST POP POP POP POP POP PUSH1 0x1 SWAP1 DUP2 SHL ADD SWAP1 SSTORE POP JUMP JUMPDEST PUSH4 0x4E487B71 PUSH1 0xE0 SHL PUSH0 MSTORE PUSH1 0x31 PUSH1 0x4 MSTORE PUSH1 0x24 PUSH0 REVERT JUMPDEST PUSH1 0x1 PUSH1 0x1 PUSH1 0xA0 SHL SUB DUP4 AND DUP2 MSTORE PUSH1 0x40 PUSH1 0x20 DUP3 ADD DUP2 SWAP1 MSTORE PUSH0 SWAP1 PUSH2 0x253B SWAP1 DUP4 ADD DUP5 PUSH2 0x2565 JUMP JUMPDEST PUSH0 DUP3 MLOAD PUSH2 0x2A10 DUP2 DUP5 PUSH1 0x20 DUP8 ADD PUSH2 0x2543 JUMP JUMPDEST SWAP2 SWAP1 SWAP2 ADD SWAP3 SWAP2 POP POP JUMP JUMPDEST PUSH1 0xE0 DUP2 MSTORE PUSH0 PUSH2 0x2A2C PUSH1 0xE0 DUP4 ADD DUP11 PUSH2 0x2565 JUMP JUMPDEST DUP3 DUP2 SUB PUSH1 0x20 DUP5 ADD MSTORE PUSH2 0x2A3E DUP2 DUP11 PUSH2 0x2565 JUMP JUMPDEST SWAP1 POP DUP3 DUP2 SUB PUSH1 0x40 DUP5 ADD MSTORE PUSH2 0x2A52 DUP2 DUP10 PUSH2 0x2565 JUMP JUMPDEST PUSH1 0x60 DUP5 ADD SWAP8 SWAP1 SWAP8 MSTORE POP POP PUSH1 0x80 DUP2 ADD SWAP4 SWAP1 SWAP4 MSTORE PUSH1 0xA0 DUP4 ADD SWAP2 SWAP1 SWAP2 MSTORE PUSH1 0x1 PUSH1 0x1 PUSH1 0xA0 SHL SUB AND PUSH1 0xC0 SWAP1 SWAP2 ADD MSTORE SWAP4 SWAP3 POP POP POP JUMP JUMPDEST PUSH1 0x60 DUP2 MSTORE PUSH0 PUSH2 0x2A94 PUSH1 0x60 DUP4 ADD DUP7 PUSH2 0x2565 JUMP JUMPDEST PUSH1 0x20 DUP4 ADD SWAP5 SWAP1 SWAP5 MSTORE POP PUSH1 0x40 ADD MSTORE SWAP2 SWAP1 POP JUMP JUMPDEST PUSH0 DUP3 PUSH2 0x2AC0 JUMPI PUSH4 0x4E487B71 PUSH1 0xE0 SHL PUSH0 MSTORE PUSH1 0x12 PUSH1 0x4 MSTORE PUSH1 0x24 PUSH0 REVERT JUMPDEST POP MOD SWAP1 JUMP JUMPDEST DUP1 DUP3 ADD DUP1 DUP3 GT ISZERO PUSH2 0x9D3 JUMPI PUSH2 0x9D3 PUSH2 0x284B JUMP JUMPDEST PUSH0 DUP4 MLOAD PUSH2 0x2AE9 DUP2 DUP5 PUSH1 0x20 DUP9 ADD PUSH2 0x2543 JUMP JUMPDEST DUP4 MLOAD SWAP1 DUP4 ADD SWAP1 PUSH2 0x2AFD DUP2 DUP4 PUSH1 0x20 DUP9 ADD PUSH2 0x2543 JUMP JUMPDEST ADD SWAP5 SWAP4 POP POP POP POP JUMP INVALID PUSH20 0x746F726546696C654D657461646174613A20496E PUSH23 0x616C6964205F66696C6553697A6573746F726546696C65 0x4D PUSH6 0x746164617461 GASPRICE KECCAK256 0x49 PUSH15 0x76616C6964205F66696C6554797065 PUSH0 SWAP2 0xB0 0xAF 0xD2 0xC6 0xEF DUP14 0xA9 0x21 CALLDATACOPY 0xBA SWAP1 PUSH28 0xCCDC85EC4856A15AD39DE3E0EFF02BE6D70E73746F726546696C653A KECCAK256 0x4E PUSH16 0x20617661696C61626C65206E6F646573 KECCAK256 PUSH7 0x6F756E6473746F PUSH19 0x6546696C654D657461646174613A20496E7661 PUSH13 0x6964205F756E69717565496473 PUSH21 0x6F726546696C654D657461646174613A20496E7661 PUSH13 0x69642073656E64657272657472 PUSH10 0x65766546696C65446574 PUSH2 0x696C PUSH20 0x3A2046696C65204E6F7420466F756E6472657472 PUSH10 0x65766546696C65446574 PUSH2 0x696C PUSH20 0x3A20556E617574686F72697A65642063616C6C65 PUSH19 0x206164647265737373746F726546696C654D65 PUSH21 0x61646174613A20496E76616C6964205F66696C654E PUSH2 0x6D65 PUSH20 0x746F726546696C654D657461646174613A20496E PUSH23 0x616C6964205F66696C6548617368A26469706673582212 KECCAK256 DUP7 SWAP5 0x2D JUMP 0xE2 PUSH0 0xCF DELEGATECALL JUMP DUP11 PUSH23 0xD4B50324C03239D0ED7D14C88C09B5D96EA150561E6473 PUSH16 0x6C634300081600337265747269657665 CHAINID PUSH10 0x6C6544657461696C733A KECCAK256 CHAINID PUSH10 0x6C65204E6F7420466F75 PUSH15 0x64A26469706673582212201A4B5A25 NUMBER SWAP3 STOP PC RETURNDATACOPY PUSH9 0xEA2E9E16B2EAC942AB 0xBF JUMPI 0xE7 SWAP5 EXTCODEHASH INVALID TIMESTAMP 0x2A PUSH3 0xE6D45C PUSH8 0x64736F6C63430008 AND STOP CALLER "
		},
		"gasEstimates": {
			"creation": {
				"codeDepositCost": "4747400",
				"executionCost": "5576",
				"totalCost": "4752976"
			},
			"external": {
				"beforeAll()": "infinite",
				"negativeCase1RetrieveFileDetailsNonExisting()": "infinite"
			}
		},
		"methodIdentifiers": {
			"beforeAll()": "7fea0d4b",
			"negativeCase1RetrieveFileDetailsNonExisting()": "49ccf431"
		}
	},
	"abi": [
		{
			"inputs": [],
			"name": "beforeAll",
			"outputs": [],
			"stateMutability": "nonpayable",
			"type": "function"
		},
		{
			"inputs": [],
			"name": "negativeCase1RetrieveFileDetailsNonExisting",
			"outputs": [],
			"stateMutability": "nonpayable",
			"type": "function"
		}
	]
}