{
	"data": {
		"bytecode": {
			"linkReferences": {
				"remix_tests.sol": {
					"Assert": [
						{
							"length": 20,
							"start": 457
						},
						{
							"length": 20,
							"start": 731
						},
						{
							"length": 20,
							"start": 1457
						},
						{
							"length": 20,
							"start": 1721
						}
					]
				}
			},
			"object": "608060405234801561000f575f80fd5b506137898061001d5f395ff3fe608060405234801561000f575f80fd5b506004361061003f575f3560e01c80637fea0d4b14610043578063952ad0b81461004d578063ff3a5f7d14610055575b5f80fd5b61004b61005d565b005b61004b6100a4565b61004b61031e565b604051610069906106fe565b604051809103905ff080158015610082573d5f803e3d5ffd5b505f80546001600160a01b0319166001600160a01b0392909216919091179055565b5f8054604080518082018252600d81526c19195b5bd7dd195cdd0b9d1e1d609a1b602080830191909152825180840184526004808252630b9d1e1d60e21b8284015284518086018652818152630dd09a5d60e21b818501528551808701875260138152721d5a4c4c998b4c9a998dd90b585a990c185cd9606a1b9481019490945294516307c31a0560e21b81526001600160a01b0390961695631f0c681495610157959489939192909160c8910161074e565b5f604051808303815f87803b15801561016e575f80fd5b505af192505050801561017f575060015b61024b5761018b6107b4565b806308c379a003610241575061019f610806565b806101aa5750610243565b73__$acbfb1c35000d78352310b16a054a6b106$__63e8c2cb1682604051806060016040528060248152602001613730602491396040518363ffffffff1660e01b81526004016101fb92919061088f565b602060405180830381865af4158015610216573d5f803e3d5ffd5b505050506040513d601f19601f8201168201806040525081019061023a9190610917565b505061024f565b505b3d5f803e3d5ffd5b5060015b60405163767392b360e01b815281151560048201525f602482015260606044820152603560648201527f737569746532436173653153746f726546696c654d6574614461746120646964608482015274081b9bdd081ddbdc9ac8185cc8195e1c1958dd1959605a1b60a482015273__$acbfb1c35000d78352310b16a054a6b106$__9063767392b39060c401602060405180830381865af41580156102f6573d5f803e3d5ffd5b505050506040513d601f19601f8201168201806040525081019061031a9190610917565b5050565b60408051600480825260a082019092525f91816020015b60608152602001906001900390816103355790505090506040518060400160405280600381526020016261626360e81b815250815f8151811061037a5761037a61093d565b6020026020010181905250604051806040016040528060038152602001623232b360e91b815250816001815181106103b4576103b461093d565b60200260200101819052506040518060400160405280600381526020016267686960e81b815250816002815181106103ee576103ee61093d565b60200260200101819052506040518060400160405280600781526020016606a6b6c6d6e6f760cc1b8152508160038151811061042c5761042c61093d565b60209081029190910101525f805460405163f91c122f60e01b81526001600160a01b039091169063f91c122f90610467908590600401610951565b602060405180830381865afa158015610482573d5f803e3d5ffd5b505050506040513d601f19601f820116820180604052508101906104a691906109b3565b5f8054604080518082018252600d81526c19195b5bd7dd195cdd0b9d1e1d609a1b602080830191909152825180840184526004808252630b9d1e1d60e21b8284015284518086018652818152630dd09a5d60e21b818501528551938401865287845294516307c31a0560e21b815297985095966001600160a01b0390951695631f0c68149561053f9592938a9392909160c8910161074e565b5f604051808303815f87803b158015610556575f80fd5b505af1925050508015610567575060015b610629576105736107b4565b806308c379a0036102415750610587610806565b806105925750610243565b73__$acbfb1c35000d78352310b16a054a6b106$__63e8c2cb168260405180606001604052806024815260200161370c602491396040518363ffffffff1660e01b81526004016105e39291906109ca565b602060405180830381865af41580156105fe573d5f803e3d5ffd5b505050506040513d601f19601f820116820180604052508101906106229190610917565b505061062d565b5060015b60405163767392b360e01b815281151560048201525f602482015260606044820152603560648201527f737569746532436173653253746f726546696c654d6574614461746120646964608482015274081b9bdd081ddbdc9ac8185cc8195e1c1958dd1959605a1b60a482015273__$acbfb1c35000d78352310b16a054a6b106$__9063767392b39060c401602060405180830381865af41580156106d4573d5f803e3d5ffd5b505050506040513d601f19601f820116820180604052508101906106f89190610917565b50505050565b612cb980610a5383390190565b5f81518084525f5b8181101561072f57602081850181015186830182015201610713565b505f602082860101526020601f19601f83011685010191505092915050565b60c081525f61076060c083018961070b565b8281036020840152610772818961070b565b9050866040840152828103606084015261078c818761070b565b905082810360808401526107a0818661070b565b9150508260a0830152979650505050505050565b5f60033d11156107ca5760045f803e505f5160e01c5b90565b601f8201601f1916810167ffffffffffffffff811182821017156107ff57634e487b7160e01b5f52604160045260245ffd5b6040525050565b5f60443d10156108135790565b6040516003193d81016004833e81513d67ffffffffffffffff816024840111818411171561084357505050505090565b828501915081518181111561085b5750505050505090565b843d87010160208285010111156108755750505050505090565b610884602082860101876107cd565b509095945050505050565b606081525f6108a1606083018561070b565b82810360208401526108b3818561070b565b838103604094850152603b81527f737569746532436173653153746f726546696c654d657461446174613a20466160208201527a34b632b2103bb4ba34103ab732bc3832b1ba32b2103932b0b9b7b760291b93810193909352505060600192915050565b5f60208284031215610927575f80fd5b81518015158114610936575f80fd5b9392505050565b634e487b7160e01b5f52603260045260245ffd5b5f60208083016020845280855180835260408601915060408160051b8701019250602087015f5b828110156109a657603f1988860301845261099485835161070b565b94509285019290850190600101610978565b5092979650505050505050565b5f602082840312156109c3575f80fd5b5051919050565b606081525f6109dc606083018561070b565b82810360208401526109ee818561070b565b838103604094850152603b81527f737569746532436173653253746f726546696c654d657461446174613a20466160208201527a34b632b2103bb4ba34103ab732bc3832b1ba32b2103932b0b9b7b760291b9381019390935250506060019291505056fe608060405260035f556064600155348015610018575f80fd5b50600680546001600160a01b03191633179055612c81806100385f395ff3fe608060405234801561000f575f80fd5b506004361061011f575f3560e01c80638da5cb5b116100a55780638da5cb5b14610273578063967c2bbd14610286578063a9910054146102a6578063b23793d6146102b9578063c8084b12146102cc578063cd889944146102df578063cdf1e848146102e7578063d433b6fa146102fa578063d6bc4a871461030d578063f91c122f14610344578063fe72ae1314610357575f80fd5b8063072538391461012357806311bd77fe14610138578063189a5a171461014b5780631f0c6814146101a157806330e00c9b146101b45780634ad7960f146101d4578063528aecce146101e7578063583caf96146101fa5780636296610b1461021a57806364f937281461023b5780637d94152214610250575b5f80fd5b6101366101313660046121e2565b61036a565b005b6101366101463660046121e2565b610378565b61017d61015936600461220a565b60036020525f9081526040902080546001909101546001600160a01b039091169082565b604080516001600160a01b0390931683526020830191909152015b60405180910390f35b6101366101af3660046122d2565b6104d1565b6101c76101c2366004612388565b6104e7565b60405161019891906123c9565b6101366101e23660046121e2565b61052c565b6101366101f5366004612476565b610536565b61020d610208366004612504565b61082a565b6040516101989190612672565b61022d610228366004612504565b6109d8565b604051908152602001610198565b6102436109e8565b60405161019891906126aa565b61026361025e36600461270c565b6109f7565b6040519015158152602001610198565b6006546101c7906001600160a01b031681565b610299610294366004612504565b610a09565b604051610198919061274f565b6101366102b4366004612504565b610a14565b6102996102c7366004612504565b6110b9565b6101366102da366004612761565b6111d4565b6102996111e6565b6101366102f536600461270c565b6111f0565b610136610308366004612504565b6111fa565b61032061031b36600461220a565b611206565b6040805182516001600160a01b031681526020928301519281019290925201610198565b61022d6103523660046127d7565b61125e565b6101c7610365366004612808565b611268565b6103748282611290565b5050565b6001600160a01b038281165f9081526003602052604090205416156104005760405162461bcd60e51b815260206004820152603360248201527f6164644e6f64653a20496e76616c6964205f6e6f646541646472657373202d206044820152724e6f646520416c72656164792065786973747360681b60648201526084015b60405180910390fd5b6040805180820182526001600160a01b0384811680835260208084018681525f928352600390915290849020925183546001600160a01b031916921691909117825551600190910155517f5f91b0afd2c6ef8da92137ba907bccdc85ec4856a15ad39de3e0eff02be6d70e906104779084906123c9565b60405180910390a150600580546001810182555f919091527f036b6384b5eca791c62761152d0c79bb0604c104a5fb6f4eb0703f3154bb3db00180546001600160a01b0319166001600160a01b0392909216919091179055565b6104df868686868686611345565b505050505050565b81516020818401810180516004825292820191850191909120919052805482908110610511575f80fd5b5f918252602090912001546001600160a01b03169150829050565b6103748282610378565b6005546040805160608101909152602380825291151591612b496020830139906105735760405162461bcd60e51b81526004016103f7919061281f565b505f61057e836115f3565b146040518060400160405280601c81526020017f73746f726546696c653a204475706c69636174652046696c6520496400000000815250906105d35760405162461bcd60e51b81526004016103f7919061281f565b505f5b86518110156107f1576105ea60075f6120f4565b5f8782815181106105fd576105fd612831565b60200260200101515190505f80805490506003600580549050101561062157506005545b61065760405180604001604052806013815260200172111d5c1b1a58d85d1a5bdb881cdd185c9d1959606a1b815250838361166a565b808210156107e6575f6106c28460078054806020026020016040519081016040528092919081815260200182805480156106b857602002820191905f5260205f20905b81546001600160a01b0316815260019091019060200180831161069a575b50505050506116b6565b90507f5f91b0afd2c6ef8da92137ba907bccdc85ec4856a15ad39de3e0eff02be6d70e816040516106f391906123c9565b60405180910390a1600780546001810182555f919091527fa66cc928b5edb82af9bd49922954155ab7b0942694bea4ce44661d9a8736c6880180546001600160a01b0319166001600160a01b0383161790556040517fb011a0da2bacc57f5c2ddf79f5c8e86484a4fc528f15571a48a9d47956bc82be906107759083906123c9565b60405180910390a18261078781612859565b9350506107af818c87815181106107a0576107a0612831565b60200260200101518988611830565b6001600160a01b0381165f908152600360205260409020600101546107e09082906107db908790612871565b611290565b50610657565b5050506001016105d6565b506107fd60075f6120f4565b5f6108078761198b565b905061081381846119fb565b610821868683878787611345565b50505050505050565b61083261210f565b5f61083b611b0a565b90505f5b81518110156109225761086e82828151811061085d5761085d612831565b60200260200101515f015185611e1e565b1561091a5781818151811061088557610885612831565b602002602001015160c001516001600160a01b0316336001600160a01b031614604051806060016040528060308152602001612bd460309139906108dc5760405162461bcd60e51b81526004016103f7919061281f565b5060405180604001604052808383815181106108fa576108fa612831565b60200260200101518152602001610910866110b9565b9052949350505050565b60010161083f565b505f604051806060016040528060238152602001612bb1602391399061095b5760405162461bcd60e51b81526004016103f7919061281f565b505060408051610120810182525f6101008201818152825282516020818101855282825280840191909152835180820185528281528385015260608381018390526080840183905260a0840183905260c084018390528451808301865292835260e084019290925283518085019094529183529082015292915050565b5f6109e2826115f3565b92915050565b60606109f2611b0a565b905090565b5f610a028383611e76565b9392505050565b60606109e2826110b9565b335f90815260086020908152604091829020548251808401909352601b83527a19195b195d19519a5b194e88125b9d985b1a5908199a5b19481a59602a1b91830191909152610a765760405162461bcd60e51b81526004016103f7919061281f565b50335f90815260086020908152604080832080548251818502810185019093528083529192909190849084015b82821015610d48578382905f5260205f209060080201604051806101000160405290815f82018054610ad490612884565b80601f0160208091040260200160405190810160405280929190818152602001828054610b0090612884565b8015610b4b5780601f10610b2257610100808354040283529160200191610b4b565b820191905f5260205f20905b815481529060010190602001808311610b2e57829003601f168201915b50505050508152602001600182018054610b6490612884565b80601f0160208091040260200160405190810160405280929190818152602001828054610b9090612884565b8015610bdb5780601f10610bb257610100808354040283529160200191610bdb565b820191905f5260205f20905b815481529060010190602001808311610bbe57829003601f168201915b50505050508152602001600282018054610bf490612884565b80601f0160208091040260200160405190810160405280929190818152602001828054610c2090612884565b8015610c6b5780601f10610c4257610100808354040283529160200191610c6b565b820191905f5260205f20905b815481529060010190602001808311610c4e57829003601f168201915b505050918352505060038201546020820152600482015460408201526005820154606082015260068201546001600160a01b0316608082015260078201805460a090920191610cb990612884565b80601f0160208091040260200160405190810160405280929190818152602001828054610ce590612884565b8015610d305780601f10610d0757610100808354040283529160200191610d30565b820191905f5260205f20905b815481529060010190602001808311610d1357829003601f168201915b50505050508152505081526020019060010190610aa3565b5050505090505f60018251610d5d9190612871565b90505f828281518110610d7257610d72612831565b60200260200101519050610d8461212f565b5f805b8551811015610ebd57610db6868281518110610da557610da5612831565b60200260200101515f015188611e1e565b15610eb55760019150858181518110610dd157610dd1612831565b602002602001015192508360085f336001600160a01b03166001600160a01b031681526020019081526020015f208281548110610e1057610e10612831565b5f91825260209091208251600890920201908190610e2e9082612907565b5060208201516001820190610e439082612907565b5060408201516002820190610e589082612907565b50606082015160038201556080820151600482015560a0820151600582015560c08201516006820180546001600160a01b0319166001600160a01b0390921691909117905560e08201516007820190610eb19082612907565b5050505b600101610d87565b5060408051808201909152601a81527919195b195d19519a5b194e88119a5b1948139bdd08199bdd5b9960321b602082015281610f0d5760405162461bcd60e51b81526004016103f7919061281f565b50335f908152600860205260409020805483919086908110610f3157610f31612831565b5f91825260209091208251600890920201908190610f4f9082612907565b5060208201516001820190610f649082612907565b5060408201516002820190610f799082612907565b50606082015160038201556080820151600482015560a0820151600582015560c08201516006820180546001600160a01b0319166001600160a01b0390921691909117905560e08201516007820190610fd29082612907565b5050335f908152600860205260409020805490915080610ff457610ff46129c2565b5f828152602081205f1990920191600883020190611012828261217c565b61101f600183015f61217c565b61102c600283015f61217c565b5f6003830181905560048301819055600583018190556006830180546001600160a01b031916905561106290600784019061217c565b5050905561106f86611ea0565b61107886611f24565b7f8598a19145ba7b62366f9f3e3ceca438df1e575ffa3bef982ed120041131d78633876040516110a99291906129d6565b60405180910390a1505050505050565b60605f6004836040516110cc91906129f9565b908152604051908190036020019020541161115e5760405162461bcd60e51b815260206004820152604660248201527f72657472696576654368756e6b4e6f64654164647265737365733a20496e766160448201527f6c6964205f6e6f646541646472657373202d204e6f646520446f6573204e4f5460648201526508195e1a5cdd60d21b608482015260a4016103f7565b60048260405161116e91906129f9565b90815260408051918290036020908101832080548083028501830190935282845291908301828280156111c857602002820191905f5260205f20905b81546001600160a01b031681526001909101906020018083116111aa575b50505050509050919050565b6111e084848484611830565b50505050565b60606109f2612013565b61037482826119fb565b61120381611f24565b50565b6040805180820182525f80825260208083018290528351808501855282815281018290526001600160a01b038086168352600382529184902084518086019095528054909216845260019091015490830152906109e2565b5f6109e28261198b565b60058181548110611277575f80fd5b5f918252602090912001546001600160a01b0316905081565b6001600160a01b038281165f90815260036020526040902054166113275760405162461bcd60e51b815260206004820152604260248201527f757064617465417661696c61626c6553746f726167653a20496e76616c69642060448201527f5f6e6f646541646472657373202d204e6f646520446f6573204e4f54206578696064820152611cdd60f21b608482015260a4016103f7565b6001600160a01b039091165f90815260036020526040902060010155565b604080516060810190915260218082523315159190612b906020830139906113805760405162461bcd60e51b81526004016103f7919061281f565b505f855111604051806060016040528060248152602001612b2560249139906113bc5760405162461bcd60e51b81526004016103f7919061281f565b505f865111604051806060016040528060248152602001612c0460249139906113f85760405162461bcd60e51b81526004016103f7919061281f565b505f801b841415604051806060016040528060248152602001612c2860249139906114365760405162461bcd60e51b81526004016103f7919061281f565b505f8111604051806060016040528060248152602001612b0160249139906114715760405162461bcd60e51b81526004016103f7919061281f565b505f825111604051806060016040528060248152602001612b6c60249139906114ad5760405162461bcd60e51b81526004016103f7919061281f565b50335f8181526008602081815260408084208151610100810183528881528084018d90529182018b9052606082018a9052608082018790524260a0830181905260c083019690965260e082018990528054600181018255908552919093208351919092029091019081906115219082612907565b50602082015160018201906115369082612907565b506040820151600282019061154b9082612907565b50606082015160038201556080820151600482015560a0820151600582015560c08201516006820180546001600160a01b0319166001600160a01b0390921691909117905560e082015160078201906115a49082612907565b5050507f557bccc5a98151ef59a421e190011aa3f6b5dc4ac2fd42fba79d158ce0c68ac1838888888686336040516115e29796959493929190612a14565b60405180910390a150505050505050565b5f808251116116445760405162461bcd60e51b815260206004820152601c60248201527f67657446696c65486173683a20496e76616c6964205f66696c6549640000000060448201526064016103f7565b60028260405161165491906129f9565b9081526020016040518091039020549050919050565b6116b183838360405160240161168293929190612a7c565b60408051601f198184030181529190526020810180516001600160e01b031663ca47c4eb60e01b179052612073565b505050565b6005545f9060328183036116ce575f925050506109e2565b5f826116db600143612871565b6116e6919040612aa0565b90505f806103e85b80821015611822575f6005876117048688612abf565b61170e9190612aa0565b8154811061171e5761171e612831565b5f91825260209182902001546040518781526001600160a01b0390911692507f0838d04243391d45d94a98fff54d1737cbffea86c34ab825e5d6980ec9b77235910160405180910390a1611772868b612abf565b6001600160a01b0382165f9081526003602052604090206001015411156117f65760015f5b8a518110156117de57826001600160a01b03168b82815181106117bc576117bc612831565b60200260200101516001600160a01b0316036117d6575f91505b600101611797565b5080156117f4575096506109e295505050505050565b505b8361180081612859565b945050828061180e90612859565b93505086840361181c575f93505b506116ee565b505f98975050505050505050565b6001600160a01b038481165f90815260036020526040902054166118bc5760405162461bcd60e51b815260206004820152603c60248201527f73746f72654368756e6b496e4e6f64653a20496e76616c6964205f6e6f64654160448201527f646472657373202d204e6f646520446f6573204e4f542065786973740000000060648201526084016103f7565b611934846004846040516118d091906129f9565b908152604080519182900360209081018320805480830285018301909352828452919083018282801561192a57602002820191905f5260205f20905b81546001600160a01b0316815260019091019060200180831161190c575b505050505061207c565b6111e05760048260405161194891906129f9565b90815260405190819003602090810190912080546001810182555f9182529190200180546001600160a01b0386166001600160a01b031990911617905550505050565b60408051602081019091525f80825290815b83518110156119ec57818482815181106119b9576119b9612831565b60200260200101516040516020016119d2929190612ad2565b60408051601f19818403018152919052915060010161199d565b50805160209091012092915050565b33611a485760405162461bcd60e51b815260206004820152601d60248201527f73746f726546696c65486173683a20496e76616c69642073656e64657200000060448201526064016103f7565b81611a955760405162461bcd60e51b815260206004820181905260248201527f73746f726546696c65486173683a20496e76616c6964205f66696c654861736860448201526064016103f7565b5f815111611ae55760405162461bcd60e51b815260206004820152601e60248201527f73746f726546696c65486173683a20496e76616c6964205f66696c654964000060448201526064016103f7565b81600282604051611af691906129f9565b908152604051908190036020019020555050565b60408051606081810190925260218082523315159190612b90602083013990611b465760405162461bcd60e51b81526004016103f7919061281f565b50335f90815260086020908152604080832080548251818502810185019093528083529193909284015b82821015611e15578382905f5260205f209060080201604051806101000160405290815f82018054611ba190612884565b80601f0160208091040260200160405190810160405280929190818152602001828054611bcd90612884565b8015611c185780601f10611bef57610100808354040283529160200191611c18565b820191905f5260205f20905b815481529060010190602001808311611bfb57829003601f168201915b50505050508152602001600182018054611c3190612884565b80601f0160208091040260200160405190810160405280929190818152602001828054611c5d90612884565b8015611ca85780601f10611c7f57610100808354040283529160200191611ca8565b820191905f5260205f20905b815481529060010190602001808311611c8b57829003601f168201915b50505050508152602001600282018054611cc190612884565b80601f0160208091040260200160405190810160405280929190818152602001828054611ced90612884565b8015611d385780601f10611d0f57610100808354040283529160200191611d38565b820191905f5260205f20905b815481529060010190602001808311611d1b57829003601f168201915b505050918352505060038201546020820152600482015460408201526005820154606082015260068201546001600160a01b0316608082015260078201805460a090920191611d8690612884565b80601f0160208091040260200160405190810160405280929190818152602001828054611db290612884565b8015611dfd5780601f10611dd457610100808354040283529160200191611dfd565b820191905f5260205f20905b815481529060010190602001808311611de057829003601f168201915b50505050508152505081526020019060010190611b70565b50505050905090565b5f81604051602001611e3091906129f9565b6040516020818303038152906040528051906020012083604051602001611e5791906129f9565b6040516020818303038152906040528051906020012014905092915050565b5f600282604051611e8791906129f9565b9081526020016040518091039020548314905092915050565b5f815111611efb5760405162461bcd60e51b815260206004820152602260248201527f64656c6574654368756e6b496e4e6f64653a20496e76616c6964205f66696c65604482015261125960f21b60648201526084016103f7565b600481604051611f0b91906129f9565b90815260200160405180910390205f61120391906120f4565b5f815111611f745760405162461bcd60e51b815260206004820152601f60248201527f64656c65746546696c65486173683a20496e76616c6964205f66696c6549640060448201526064016103f7565b5f801b600282604051611f8791906129f9565b90815260200160405180910390205403611fef5760405162461bcd60e51b8152602060048201526024808201527f64656c65746546696c65486173683a20496e76616c69642066696c654964546f604482015263090c2e6d60e31b60648201526084016103f7565b600281604051611fff91906129f9565b90815260200160405180910390205f905550565b6060600580548060200260200160405190810160405280929190818152602001828054801561206957602002820191905f5260205f20905b81546001600160a01b0316815260019091019060200180831161204b575b5050505050905090565b611203816120d5565b5f805b82518110156120cc57836001600160a01b03168382815181106120a4576120a4612831565b60200260200101516001600160a01b0316036120c45760019150506109e2565b60010161207f565b505f9392505050565b5f6a636f6e736f6c652e6c6f6790505f80835160208501845afa505050565b5080545f8255905f5260205f209081019061120391906121af565b604051806040016040528061212261212f565b8152602001606081525090565b6040518061010001604052806060815260200160608152602001606081526020015f80191681526020015f81526020015f81526020015f6001600160a01b03168152602001606081525090565b50805461218890612884565b5f825580601f10612197575050565b601f0160209004905f5260205f209081019061120391905b5b808211156121c3575f81556001016121b0565b5090565b80356001600160a01b03811681146121dd575f80fd5b919050565b5f80604083850312156121f3575f80fd5b6121fc836121c7565b946020939093013593505050565b5f6020828403121561221a575f80fd5b610a02826121c7565b634e487b7160e01b5f52604160045260245ffd5b604051601f8201601f191681016001600160401b038111828210171561225f5761225f612223565b604052919050565b5f82601f830112612276575f80fd5b81356001600160401b0381111561228f5761228f612223565b6122a2601f8201601f1916602001612237565b8181528460208386010111156122b6575f80fd5b816020850160208301375f918101602001919091529392505050565b5f805f805f8060c087890312156122e7575f80fd5b86356001600160401b03808211156122fd575f80fd5b6123098a838b01612267565b9750602089013591508082111561231e575f80fd5b61232a8a838b01612267565b9650604089013595506060890135915080821115612346575f80fd5b6123528a838b01612267565b94506080890135915080821115612367575f80fd5b5061237489828a01612267565b92505060a087013590509295509295509295565b5f8060408385031215612399575f80fd5b82356001600160401b038111156123ae575f80fd5b6123ba85828601612267565b95602094909401359450505050565b6001600160a01b0391909116815260200190565b5f82601f8301126123ec575f80fd5b813560206001600160401b038083111561240857612408612223565b8260051b612417838201612237565b9384528581018301938381019088861115612430575f80fd5b84880192505b8583101561246a5782358481111561244c575f80fd5b61245a8a87838c0101612267565b8352509184019190840190612436565b98975050505050505050565b5f805f805f8060c0878903121561248b575f80fd5b86356001600160401b03808211156124a1575f80fd5b6124ad8a838b016123dd565b975060208901359150808211156124c2575f80fd5b6124ce8a838b01612267565b965060408901359150808211156124e3575f80fd5b6124ef8a838b01612267565b95506060890135915080821115612346575f80fd5b5f60208284031215612514575f80fd5b81356001600160401b03811115612529575f80fd5b61253584828501612267565b949350505050565b5f5b8381101561255757818101518382015260200161253f565b50505f910152565b5f815180845261257681602086016020860161253d565b601f01601f19169290920160200192915050565b5f610100825181855261259f8286018261255f565b915050602083015184820360208601526125b9828261255f565b915050604083015184820360408601526125d3828261255f565b915050606083015160608501526080830151608085015260a083015160a085015260c083015161260e60c08601826001600160a01b03169052565b5060e083015184820360e0860152612626828261255f565b95945050505050565b5f815180845260208085019450602084015f5b838110156126675781516001600160a01b031687529582019590820190600101612642565b509495945050505050565b602081525f82516040602084015261268d606084018261258a565b90506020840151601f19848303016040850152612626828261262f565b5f60208083016020845280855180835260408601915060408160051b8701019250602087015f5b828110156126ff57603f198886030184526126ed85835161258a565b945092850192908501906001016126d1565b5092979650505050505050565b5f806040838503121561271d575f80fd5b8235915060208301356001600160401b03811115612739575f80fd5b61274585828601612267565b9150509250929050565b602081525f610a02602083018461262f565b5f805f8060808587031215612774575f80fd5b61277d856121c7565b935060208501356001600160401b0380821115612798575f80fd5b6127a488838901612267565b945060408701359150808211156127b9575f80fd5b506127c687828801612267565b949793965093946060013593505050565b5f602082840312156127e7575f80fd5b81356001600160401b038111156127fc575f80fd5b612535848285016123dd565b5f60208284031215612818575f80fd5b5035919050565b602081525f610a02602083018461255f565b634e487b7160e01b5f52603260045260245ffd5b634e487b7160e01b5f52601160045260245ffd5b5f6001820161286a5761286a612845565b5060010190565b818103818111156109e2576109e2612845565b600181811c9082168061289857607f821691505b6020821081036128b657634e487b7160e01b5f52602260045260245ffd5b50919050565b601f8211156116b157805f5260205f20601f840160051c810160208510156128e15750805b601f840160051c820191505b81811015612900575f81556001016128ed565b5050505050565b81516001600160401b0381111561292057612920612223565b6129348161292e8454612884565b846128bc565b602080601f831160018114612967575f84156129505750858301515b5f19600386901b1c1916600185901b1785556104df565b5f85815260208120601f198616915b8281101561299557888601518255948401946001909101908401612976565b50858210156129b257878501515f19600388901b60f8161c191681555b5050505050600190811b01905550565b634e487b7160e01b5f52603160045260245ffd5b6001600160a01b03831681526040602082018190525f906125359083018461255f565b5f8251612a0a81846020870161253d565b9190910192915050565b60e081525f612a2660e083018a61255f565b8281036020840152612a38818a61255f565b90508281036040840152612a4c818961255f565b60608401979097525050608081019390935260a08301919091526001600160a01b031660c0909101529392505050565b606081525f612a8e606083018661255f565b60208301949094525060400152919050565b5f82612aba57634e487b7160e01b5f52601260045260245ffd5b500690565b808201808211156109e2576109e2612845565b5f8351612ae381846020880161253d565b835190830190612af781836020880161253d565b0194935050505056fe73746f726546696c654d657461646174613a20496e76616c6964205f66696c6553697a6573746f726546696c654d657461646174613a20496e76616c6964205f66696c655479706573746f726546696c653a204e6f20617661696c61626c65206e6f64657320666f756e6473746f726546696c654d657461646174613a20496e76616c6964205f756e69717565496473746f726546696c654d657461646174613a20496e76616c69642073656e646572726574726965766546696c6544657461696c733a2046696c65204e6f7420466f756e64726574726965766546696c6544657461696c733a20556e617574686f72697a65642063616c6c6572206164647265737373746f726546696c654d657461646174613a20496e76616c6964205f66696c654e616d6573746f726546696c654d657461646174613a20496e76616c6964205f66696c6548617368a2646970667358221220597ee3b0118903830418632a91ca4160816b8627bd42618a906cad33f2e4d79e64736f6c6343000818003373746f726546696c654d657461646174613a20496e76616c6964205f756e69717565496473746f726546696c654d657461646174613a20496e76616c6964205f66696c6548617368a2646970667358221220ad7a5b78d57a7c3db2bea14418bfe067b7082245125e5c173085f3a4711fdd7564736f6c63430008180033",
			"opcodes": "PUSH1 0x80 PUSH1 0x40 MSTORE CALLVALUE DUP1 ISZERO PUSH2 0xF JUMPI PUSH0 DUP1 REVERT JUMPDEST POP PUSH2 0x3789 DUP1 PUSH2 0x1D PUSH0 CODECOPY PUSH0 RETURN INVALID PUSH1 0x80 PUSH1 0x40 MSTORE CALLVALUE DUP1 ISZERO PUSH2 0xF JUMPI PUSH0 DUP1 REVERT JUMPDEST POP PUSH1 0x4 CALLDATASIZE LT PUSH2 0x3F JUMPI PUSH0 CALLDATALOAD PUSH1 0xE0 SHR DUP1 PUSH4 0x7FEA0D4B EQ PUSH2 0x43 JUMPI DUP1 PUSH4 0x952AD0B8 EQ PUSH2 0x4D JUMPI DUP1 PUSH4 0xFF3A5F7D EQ PUSH2 0x55 JUMPI JUMPDEST PUSH0 DUP1 REVERT JUMPDEST PUSH2 0x4B PUSH2 0x5D JUMP JUMPDEST STOP JUMPDEST PUSH2 0x4B PUSH2 0xA4 JUMP JUMPDEST PUSH2 0x4B PUSH2 0x31E JUMP JUMPDEST PUSH1 0x40 MLOAD PUSH2 0x69 SWAP1 PUSH2 0x6FE JUMP JUMPDEST PUSH1 0x40 MLOAD DUP1 SWAP2 SUB SWAP1 PUSH0 CREATE DUP1 ISZERO DUP1 ISZERO PUSH2 0x82 JUMPI RETURNDATASIZE PUSH0 DUP1 RETURNDATACOPY RETURNDATASIZE PUSH0 REVERT JUMPDEST POP PUSH0 DUP1 SLOAD PUSH1 0x1 PUSH1 0x1 PUSH1 0xA0 SHL SUB NOT AND PUSH1 0x1 PUSH1 0x1 PUSH1 0xA0 SHL SUB SWAP3 SWAP1 SWAP3 AND SWAP2 SWAP1 SWAP2 OR SWAP1 SSTORE JUMP JUMPDEST PUSH0 DUP1 SLOAD PUSH1 0x40 DUP1 MLOAD DUP1 DUP3 ADD DUP3 MSTORE PUSH1 0xD DUP2 MSTORE PUSH13 0x19195B5BD7DD195CDD0B9D1E1D PUSH1 0x9A SHL PUSH1 0x20 DUP1 DUP4 ADD SWAP2 SWAP1 SWAP2 MSTORE DUP3 MLOAD DUP1 DUP5 ADD DUP5 MSTORE PUSH1 0x4 DUP1 DUP3 MSTORE PUSH4 0xB9D1E1D PUSH1 0xE2 SHL DUP3 DUP5 ADD MSTORE DUP5 MLOAD DUP1 DUP7 ADD DUP7 MSTORE DUP2 DUP2 MSTORE PUSH4 0xDD09A5D PUSH1 0xE2 SHL DUP2 DUP6 ADD MSTORE DUP6 MLOAD DUP1 DUP8 ADD DUP8 MSTORE PUSH1 0x13 DUP2 MSTORE PUSH19 0x1D5A4C4C998B4C9A998DD90B585A990C185CD9 PUSH1 0x6A SHL SWAP5 DUP2 ADD SWAP5 SWAP1 SWAP5 MSTORE SWAP5 MLOAD PUSH4 0x7C31A05 PUSH1 0xE2 SHL DUP2 MSTORE PUSH1 0x1 PUSH1 0x1 PUSH1 0xA0 SHL SUB SWAP1 SWAP7 AND SWAP6 PUSH4 0x1F0C6814 SWAP6 PUSH2 0x157 SWAP6 SWAP5 DUP10 SWAP4 SWAP2 SWAP3 SWAP1 SWAP2 PUSH1 0xC8 SWAP2 ADD PUSH2 0x74E JUMP JUMPDEST PUSH0 PUSH1 0x40 MLOAD DUP1 DUP4 SUB DUP2 PUSH0 DUP8 DUP1 EXTCODESIZE ISZERO DUP1 ISZERO PUSH2 0x16E JUMPI PUSH0 DUP1 REVERT JUMPDEST POP GAS CALL SWAP3 POP POP POP DUP1 ISZERO PUSH2 0x17F JUMPI POP PUSH1 0x1 JUMPDEST PUSH2 0x24B JUMPI PUSH2 0x18B PUSH2 0x7B4 JUMP JUMPDEST DUP1 PUSH4 0x8C379A0 SUB PUSH2 0x241 JUMPI POP PUSH2 0x19F PUSH2 0x806 JUMP JUMPDEST DUP1 PUSH2 0x1AA JUMPI POP PUSH2 0x243 JUMP JUMPDEST PUSH20 0x0 PUSH4 0xE8C2CB16 DUP3 PUSH1 0x40 MLOAD DUP1 PUSH1 0x60 ADD PUSH1 0x40 MSTORE DUP1 PUSH1 0x24 DUP2 MSTORE PUSH1 0x20 ADD PUSH2 0x3730 PUSH1 0x24 SWAP2 CODECOPY PUSH1 0x40 MLOAD DUP4 PUSH4 0xFFFFFFFF AND PUSH1 0xE0 SHL DUP2 MSTORE PUSH1 0x4 ADD PUSH2 0x1FB SWAP3 SWAP2 SWAP1 PUSH2 0x88F JUMP JUMPDEST PUSH1 0x20 PUSH1 0x40 MLOAD DUP1 DUP4 SUB DUP2 DUP7 GAS DELEGATECALL ISZERO DUP1 ISZERO PUSH2 0x216 JUMPI RETURNDATASIZE PUSH0 DUP1 RETURNDATACOPY RETURNDATASIZE PUSH0 REVERT JUMPDEST POP POP POP POP PUSH1 0x40 MLOAD RETURNDATASIZE PUSH1 0x1F NOT PUSH1 0x1F DUP3 ADD AND DUP3 ADD DUP1 PUSH1 0x40 MSTORE POP DUP2 ADD SWAP1 PUSH2 0x23A SWAP2 SWAP1 PUSH2 0x917 JUMP JUMPDEST POP POP PUSH2 0x24F JUMP JUMPDEST POP JUMPDEST RETURNDATASIZE PUSH0 DUP1 RETURNDATACOPY RETURNDATASIZE PUSH0 REVERT JUMPDEST POP PUSH1 0x1 JUMPDEST PUSH1 0x40 MLOAD PUSH4 0x767392B3 PUSH1 0xE0 SHL DUP2 MSTORE DUP2 ISZERO ISZERO PUSH1 0x4 DUP3 ADD MSTORE PUSH0 PUSH1 0x24 DUP3 ADD MSTORE PUSH1 0x60 PUSH1 0x44 DUP3 ADD MSTORE PUSH1 0x35 PUSH1 0x64 DUP3 ADD MSTORE PUSH32 0x737569746532436173653153746F726546696C654D6574614461746120646964 PUSH1 0x84 DUP3 ADD MSTORE PUSH21 0x81B9BDD081DDBDC9AC8185CC8195E1C1958DD1959 PUSH1 0x5A SHL PUSH1 0xA4 DUP3 ADD MSTORE PUSH20 0x0 SWAP1 PUSH4 0x767392B3 SWAP1 PUSH1 0xC4 ADD PUSH1 0x20 PUSH1 0x40 MLOAD DUP1 DUP4 SUB DUP2 DUP7 GAS DELEGATECALL ISZERO DUP1 ISZERO PUSH2 0x2F6 JUMPI RETURNDATASIZE PUSH0 DUP1 RETURNDATACOPY RETURNDATASIZE PUSH0 REVERT JUMPDEST POP POP POP POP PUSH1 0x40 MLOAD RETURNDATASIZE PUSH1 0x1F NOT PUSH1 0x1F DUP3 ADD AND DUP3 ADD DUP1 PUSH1 0x40 MSTORE POP DUP2 ADD SWAP1 PUSH2 0x31A SWAP2 SWAP1 PUSH2 0x917 JUMP JUMPDEST POP POP JUMP JUMPDEST PUSH1 0x40 DUP1 MLOAD PUSH1 0x4 DUP1 DUP3 MSTORE PUSH1 0xA0 DUP3 ADD SWAP1 SWAP3 MSTORE PUSH0 SWAP2 DUP2 PUSH1 0x20 ADD JUMPDEST PUSH1 0x60 DUP2 MSTORE PUSH1 0x20 ADD SWAP1 PUSH1 0x1 SWAP1 SUB SWAP1 DUP2 PUSH2 0x335 JUMPI SWAP1 POP POP SWAP1 POP PUSH1 0x40 MLOAD DUP1 PUSH1 0x40 ADD PUSH1 0x40 MSTORE DUP1 PUSH1 0x3 DUP2 MSTORE PUSH1 0x20 ADD PUSH3 0x616263 PUSH1 0xE8 SHL DUP2 MSTORE POP DUP2 PUSH0 DUP2 MLOAD DUP2 LT PUSH2 0x37A JUMPI PUSH2 0x37A PUSH2 0x93D JUMP JUMPDEST PUSH1 0x20 MUL PUSH1 0x20 ADD ADD DUP2 SWAP1 MSTORE POP PUSH1 0x40 MLOAD DUP1 PUSH1 0x40 ADD PUSH1 0x40 MSTORE DUP1 PUSH1 0x3 DUP2 MSTORE PUSH1 0x20 ADD PUSH3 0x3232B3 PUSH1 0xE9 SHL DUP2 MSTORE POP DUP2 PUSH1 0x1 DUP2 MLOAD DUP2 LT PUSH2 0x3B4 JUMPI PUSH2 0x3B4 PUSH2 0x93D JUMP JUMPDEST PUSH1 0x20 MUL PUSH1 0x20 ADD ADD DUP2 SWAP1 MSTORE POP PUSH1 0x40 MLOAD DUP1 PUSH1 0x40 ADD PUSH1 0x40 MSTORE DUP1 PUSH1 0x3 DUP2 MSTORE PUSH1 0x20 ADD PUSH3 0x676869 PUSH1 0xE8 SHL DUP2 MSTORE POP DUP2 PUSH1 0x2 DUP2 MLOAD DUP2 LT PUSH2 0x3EE JUMPI PUSH2 0x3EE PUSH2 0x93D JUMP JUMPDEST PUSH1 0x20 MUL PUSH1 0x20 ADD ADD DUP2 SWAP1 MSTORE POP PUSH1 0x40 MLOAD DUP1 PUSH1 0x40 ADD PUSH1 0x40 MSTORE DUP1 PUSH1 0x7 DUP2 MSTORE PUSH1 0x20 ADD PUSH7 0x6A6B6C6D6E6F7 PUSH1 0xCC SHL DUP2 MSTORE POP DUP2 PUSH1 0x3 DUP2 MLOAD DUP2 LT PUSH2 0x42C JUMPI PUSH2 0x42C PUSH2 0x93D JUMP JUMPDEST PUSH1 0x20 SWAP1 DUP2 MUL SWAP2 SWAP1 SWAP2 ADD ADD MSTORE PUSH0 DUP1 SLOAD PUSH1 0x40 MLOAD PUSH4 0xF91C122F PUSH1 0xE0 SHL DUP2 MSTORE PUSH1 0x1 PUSH1 0x1 PUSH1 0xA0 SHL SUB SWAP1 SWAP2 AND SWAP1 PUSH4 0xF91C122F SWAP1 PUSH2 0x467 SWAP1 DUP6 SWAP1 PUSH1 0x4 ADD PUSH2 0x951 JUMP JUMPDEST PUSH1 0x20 PUSH1 0x40 MLOAD DUP1 DUP4 SUB DUP2 DUP7 GAS STATICCALL ISZERO DUP1 ISZERO PUSH2 0x482 JUMPI RETURNDATASIZE PUSH0 DUP1 RETURNDATACOPY RETURNDATASIZE PUSH0 REVERT JUMPDEST POP POP POP POP PUSH1 0x40 MLOAD RETURNDATASIZE PUSH1 0x1F NOT PUSH1 0x1F DUP3 ADD AND DUP3 ADD DUP1 PUSH1 0x40 MSTORE POP DUP2 ADD SWAP1 PUSH2 0x4A6 SWAP2 SWAP1 PUSH2 0x9B3 JUMP JUMPDEST PUSH0 DUP1 SLOAD PUSH1 0x40 DUP1 MLOAD DUP1 DUP3 ADD DUP3 MSTORE PUSH1 0xD DUP2 MSTORE PUSH13 0x19195B5BD7DD195CDD0B9D1E1D PUSH1 0x9A SHL PUSH1 0x20 DUP1 DUP4 ADD SWAP2 SWAP1 SWAP2 MSTORE DUP3 MLOAD DUP1 DUP5 ADD DUP5 MSTORE PUSH1 0x4 DUP1 DUP3 MSTORE PUSH4 0xB9D1E1D PUSH1 0xE2 SHL DUP3 DUP5 ADD MSTORE DUP5 MLOAD DUP1 DUP7 ADD DUP7 MSTORE DUP2 DUP2 MSTORE PUSH4 0xDD09A5D PUSH1 0xE2 SHL DUP2 DUP6 ADD MSTORE DUP6 MLOAD SWAP4 DUP5 ADD DUP7 MSTORE DUP8 DUP5 MSTORE SWAP5 MLOAD PUSH4 0x7C31A05 PUSH1 0xE2 SHL DUP2 MSTORE SWAP8 SWAP9 POP SWAP6 SWAP7 PUSH1 0x1 PUSH1 0x1 PUSH1 0xA0 SHL SUB SWAP1 SWAP6 AND SWAP6 PUSH4 0x1F0C6814 SWAP6 PUSH2 0x53F SWAP6 SWAP3 SWAP4 DUP11 SWAP4 SWAP3 SWAP1 SWAP2 PUSH1 0xC8 SWAP2 ADD PUSH2 0x74E JUMP JUMPDEST PUSH0 PUSH1 0x40 MLOAD DUP1 DUP4 SUB DUP2 PUSH0 DUP8 DUP1 EXTCODESIZE ISZERO DUP1 ISZERO PUSH2 0x556 JUMPI PUSH0 DUP1 REVERT JUMPDEST POP GAS CALL SWAP3 POP POP POP DUP1 ISZERO PUSH2 0x567 JUMPI POP PUSH1 0x1 JUMPDEST PUSH2 0x629 JUMPI PUSH2 0x573 PUSH2 0x7B4 JUMP JUMPDEST DUP1 PUSH4 0x8C379A0 SUB PUSH2 0x241 JUMPI POP PUSH2 0x587 PUSH2 0x806 JUMP JUMPDEST DUP1 PUSH2 0x592 JUMPI POP PUSH2 0x243 JUMP JUMPDEST PUSH20 0x0 PUSH4 0xE8C2CB16 DUP3 PUSH1 0x40 MLOAD DUP1 PUSH1 0x60 ADD PUSH1 0x40 MSTORE DUP1 PUSH1 0x24 DUP2 MSTORE PUSH1 0x20 ADD PUSH2 0x370C PUSH1 0x24 SWAP2 CODECOPY PUSH1 0x40 MLOAD DUP4 PUSH4 0xFFFFFFFF AND PUSH1 0xE0 SHL DUP2 MSTORE PUSH1 0x4 ADD PUSH2 0x5E3 SWAP3 SWAP2 SWAP1 PUSH2 0x9CA JUMP JUMPDEST PUSH1 0x20 PUSH1 0x40 MLOAD DUP1 DUP4 SUB DUP2 DUP7 GAS DELEGATECALL ISZERO DUP1 ISZERO PUSH2 0x5FE JUMPI RETURNDATASIZE PUSH0 DUP1 RETURNDATACOPY RETURNDATASIZE PUSH0 REVERT JUMPDEST POP POP POP POP PUSH1 0x40 MLOAD RETURNDATASIZE PUSH1 0x1F NOT PUSH1 0x1F DUP3 ADD AND DUP3 ADD DUP1 PUSH1 0x40 MSTORE POP DUP2 ADD SWAP1 PUSH2 0x622 SWAP2 SWAP1 PUSH2 0x917 JUMP JUMPDEST POP POP PUSH2 0x62D JUMP JUMPDEST POP PUSH1 0x1 JUMPDEST PUSH1 0x40 MLOAD PUSH4 0x767392B3 PUSH1 0xE0 SHL DUP2 MSTORE DUP2 ISZERO ISZERO PUSH1 0x4 DUP3 ADD MSTORE PUSH0 PUSH1 0x24 DUP3 ADD MSTORE PUSH1 0x60 PUSH1 0x44 DUP3 ADD MSTORE PUSH1 0x35 PUSH1 0x64 DUP3 ADD MSTORE PUSH32 0x737569746532436173653253746F726546696C654D6574614461746120646964 PUSH1 0x84 DUP3 ADD MSTORE PUSH21 0x81B9BDD081DDBDC9AC8185CC8195E1C1958DD1959 PUSH1 0x5A SHL PUSH1 0xA4 DUP3 ADD MSTORE PUSH20 0x0 SWAP1 PUSH4 0x767392B3 SWAP1 PUSH1 0xC4 ADD PUSH1 0x20 PUSH1 0x40 MLOAD DUP1 DUP4 SUB DUP2 DUP7 GAS DELEGATECALL ISZERO DUP1 ISZERO PUSH2 0x6D4 JUMPI RETURNDATASIZE PUSH0 DUP1 RETURNDATACOPY RETURNDATASIZE PUSH0 REVERT JUMPDEST POP POP POP POP PUSH1 0x40 MLOAD RETURNDATASIZE PUSH1 0x1F NOT PUSH1 0x1F DUP3 ADD AND DUP3 ADD DUP1 PUSH1 0x40 MSTORE POP DUP2 ADD SWAP1 PUSH2 0x6F8 SWAP2 SWAP1 PUSH2 0x917 JUMP JUMPDEST POP POP POP POP JUMP JUMPDEST PUSH2 0x2CB9 DUP1 PUSH2 0xA53 DUP4 CODECOPY ADD SWAP1 JUMP JUMPDEST PUSH0 DUP2 MLOAD DUP1 DUP5 MSTORE PUSH0 JUMPDEST DUP2 DUP2 LT ISZERO PUSH2 0x72F JUMPI PUSH1 0x20 DUP2 DUP6 ADD DUP2 ADD MLOAD DUP7 DUP4 ADD DUP3 ADD MSTORE ADD PUSH2 0x713 JUMP JUMPDEST POP PUSH0 PUSH1 0x20 DUP3 DUP7 ADD ADD MSTORE PUSH1 0x20 PUSH1 0x1F NOT PUSH1 0x1F DUP4 ADD AND DUP6 ADD ADD SWAP2 POP POP SWAP3 SWAP2 POP POP JUMP JUMPDEST PUSH1 0xC0 DUP2 MSTORE PUSH0 PUSH2 0x760 PUSH1 0xC0 DUP4 ADD DUP10 PUSH2 0x70B JUMP JUMPDEST DUP3 DUP2 SUB PUSH1 0x20 DUP5 ADD MSTORE PUSH2 0x772 DUP2 DUP10 PUSH2 0x70B JUMP JUMPDEST SWAP1 POP DUP7 PUSH1 0x40 DUP5 ADD MSTORE DUP3 DUP2 SUB PUSH1 0x60 DUP5 ADD MSTORE PUSH2 0x78C DUP2 DUP8 PUSH2 0x70B JUMP JUMPDEST SWAP1 POP DUP3 DUP2 SUB PUSH1 0x80 DUP5 ADD MSTORE PUSH2 0x7A0 DUP2 DUP7 PUSH2 0x70B JUMP JUMPDEST SWAP2 POP POP DUP3 PUSH1 0xA0 DUP4 ADD MSTORE SWAP8 SWAP7 POP POP POP POP POP POP POP JUMP JUMPDEST PUSH0 PUSH1 0x3 RETURNDATASIZE GT ISZERO PUSH2 0x7CA JUMPI PUSH1 0x4 PUSH0 DUP1 RETURNDATACOPY POP PUSH0 MLOAD PUSH1 0xE0 SHR JUMPDEST SWAP1 JUMP JUMPDEST PUSH1 0x1F DUP3 ADD PUSH1 0x1F NOT AND DUP2 ADD PUSH8 0xFFFFFFFFFFFFFFFF DUP2 GT DUP3 DUP3 LT OR ISZERO PUSH2 0x7FF JUMPI PUSH4 0x4E487B71 PUSH1 0xE0 SHL PUSH0 MSTORE PUSH1 0x41 PUSH1 0x4 MSTORE PUSH1 0x24 PUSH0 REVERT JUMPDEST PUSH1 0x40 MSTORE POP POP JUMP JUMPDEST PUSH0 PUSH1 0x44 RETURNDATASIZE LT ISZERO PUSH2 0x813 JUMPI SWAP1 JUMP JUMPDEST PUSH1 0x40 MLOAD PUSH1 0x3 NOT RETURNDATASIZE DUP2 ADD PUSH1 0x4 DUP4 RETURNDATACOPY DUP2 MLOAD RETURNDATASIZE PUSH8 0xFFFFFFFFFFFFFFFF DUP2 PUSH1 0x24 DUP5 ADD GT DUP2 DUP5 GT OR ISZERO PUSH2 0x843 JUMPI POP POP POP POP POP SWAP1 JUMP JUMPDEST DUP3 DUP6 ADD SWAP2 POP DUP2 MLOAD DUP2 DUP2 GT ISZERO PUSH2 0x85B JUMPI POP POP POP POP POP POP SWAP1 JUMP JUMPDEST DUP5 RETURNDATASIZE DUP8 ADD ADD PUSH1 0x20 DUP3 DUP6 ADD ADD GT ISZERO PUSH2 0x875 JUMPI POP POP POP POP POP POP SWAP1 JUMP JUMPDEST PUSH2 0x884 PUSH1 0x20 DUP3 DUP7 ADD ADD DUP8 PUSH2 0x7CD JUMP JUMPDEST POP SWAP1 SWAP6 SWAP5 POP POP POP POP POP JUMP JUMPDEST PUSH1 0x60 DUP2 MSTORE PUSH0 PUSH2 0x8A1 PUSH1 0x60 DUP4 ADD DUP6 PUSH2 0x70B JUMP JUMPDEST DUP3 DUP2 SUB PUSH1 0x20 DUP5 ADD MSTORE PUSH2 0x8B3 DUP2 DUP6 PUSH2 0x70B JUMP JUMPDEST DUP4 DUP2 SUB PUSH1 0x40 SWAP5 DUP6 ADD MSTORE PUSH1 0x3B DUP2 MSTORE PUSH32 0x737569746532436173653153746F726546696C654D657461446174613A204661 PUSH1 0x20 DUP3 ADD MSTORE PUSH27 0x34B632B2103BB4BA34103AB732BC3832B1BA32B2103932B0B9B7B7 PUSH1 0x29 SHL SWAP4 DUP2 ADD SWAP4 SWAP1 SWAP4 MSTORE POP POP PUSH1 0x60 ADD SWAP3 SWAP2 POP POP JUMP JUMPDEST PUSH0 PUSH1 0x20 DUP3 DUP5 SUB SLT ISZERO PUSH2 0x927 JUMPI PUSH0 DUP1 REVERT JUMPDEST DUP2 MLOAD DUP1 ISZERO ISZERO DUP2 EQ PUSH2 0x936 JUMPI PUSH0 DUP1 REVERT JUMPDEST SWAP4 SWAP3 POP POP POP JUMP JUMPDEST PUSH4 0x4E487B71 PUSH1 0xE0 SHL PUSH0 MSTORE PUSH1 0x32 PUSH1 0x4 MSTORE PUSH1 0x24 PUSH0 REVERT JUMPDEST PUSH0 PUSH1 0x20 DUP1 DUP4 ADD PUSH1 0x20 DUP5 MSTORE DUP1 DUP6 MLOAD DUP1 DUP4 MSTORE PUSH1 0x40 DUP7 ADD SWAP2 POP PUSH1 0x40 DUP2 PUSH1 0x5 SHL DUP8 ADD ADD SWAP3 POP PUSH1 0x20 DUP8 ADD PUSH0 JUMPDEST DUP3 DUP2 LT ISZERO PUSH2 0x9A6 JUMPI PUSH1 0x3F NOT DUP9 DUP7 SUB ADD DUP5 MSTORE PUSH2 0x994 DUP6 DUP4 MLOAD PUSH2 0x70B JUMP JUMPDEST SWAP5 POP SWAP3 DUP6 ADD SWAP3 SWAP1 DUP6 ADD SWAP1 PUSH1 0x1 ADD PUSH2 0x978 JUMP JUMPDEST POP SWAP3 SWAP8 SWAP7 POP POP POP POP POP POP POP JUMP JUMPDEST PUSH0 PUSH1 0x20 DUP3 DUP5 SUB SLT ISZERO PUSH2 0x9C3 JUMPI PUSH0 DUP1 REVERT JUMPDEST POP MLOAD SWAP2 SWAP1 POP JUMP JUMPDEST PUSH1 0x60 DUP2 MSTORE PUSH0 PUSH2 0x9DC PUSH1 0x60 DUP4 ADD DUP6 PUSH2 0x70B JUMP JUMPDEST DUP3 DUP2 SUB PUSH1 0x20 DUP5 ADD MSTORE PUSH2 0x9EE DUP2 DUP6 PUSH2 0x70B JUMP JUMPDEST DUP4 DUP2 SUB PUSH1 0x40 SWAP5 DUP6 ADD MSTORE PUSH1 0x3B DUP2 MSTORE PUSH32 0x737569746532436173653253746F726546696C654D657461446174613A204661 PUSH1 0x20 DUP3 ADD MSTORE PUSH27 0x34B632B2103BB4BA34103AB732BC3832B1BA32B2103932B0B9B7B7 PUSH1 0x29 SHL SWAP4 DUP2 ADD SWAP4 SWAP1 SWAP4 MSTORE POP POP PUSH1 0x60 ADD SWAP3 SWAP2 POP POP JUMP INVALID PUSH1 0x80 PUSH1 0x40 MSTORE PUSH1 0x3 PUSH0 SSTORE PUSH1 0x64 PUSH1 0x1 SSTORE CALLVALUE DUP1 ISZERO PUSH2 0x18 JUMPI PUSH0 DUP1 REVERT JUMPDEST POP PUSH1 0x6 DUP1 SLOAD PUSH1 0x1 PUSH1 0x1 PUSH1 0xA0 SHL SUB NOT AND CALLER OR SWAP1 SSTORE PUSH2 0x2C81 DUP1 PUSH2 0x38 PUSH0 CODECOPY PUSH0 RETURN INVALID PUSH1 0x80 PUSH1 0x40 MSTORE CALLVALUE DUP1 ISZERO PUSH2 0xF JUMPI PUSH0 DUP1 REVERT JUMPDEST POP PUSH1 0x4 CALLDATASIZE LT PUSH2 0x11F JUMPI PUSH0 CALLDATALOAD PUSH1 0xE0 SHR DUP1 PUSH4 0x8DA5CB5B GT PUSH2 0xA5 JUMPI DUP1 PUSH4 0x8DA5CB5B EQ PUSH2 0x273 JUMPI DUP1 PUSH4 0x967C2BBD EQ PUSH2 0x286 JUMPI DUP1 PUSH4 0xA9910054 EQ PUSH2 0x2A6 JUMPI DUP1 PUSH4 0xB23793D6 EQ PUSH2 0x2B9 JUMPI DUP1 PUSH4 0xC8084B12 EQ PUSH2 0x2CC JUMPI DUP1 PUSH4 0xCD889944 EQ PUSH2 0x2DF JUMPI DUP1 PUSH4 0xCDF1E848 EQ PUSH2 0x2E7 JUMPI DUP1 PUSH4 0xD433B6FA EQ PUSH2 0x2FA JUMPI DUP1 PUSH4 0xD6BC4A87 EQ PUSH2 0x30D JUMPI DUP1 PUSH4 0xF91C122F EQ PUSH2 0x344 JUMPI DUP1 PUSH4 0xFE72AE13 EQ PUSH2 0x357 JUMPI PUSH0 DUP1 REVERT JUMPDEST DUP1 PUSH4 0x7253839 EQ PUSH2 0x123 JUMPI DUP1 PUSH4 0x11BD77FE EQ PUSH2 0x138 JUMPI DUP1 PUSH4 0x189A5A17 EQ PUSH2 0x14B JUMPI DUP1 PUSH4 0x1F0C6814 EQ PUSH2 0x1A1 JUMPI DUP1 PUSH4 0x30E00C9B EQ PUSH2 0x1B4 JUMPI DUP1 PUSH4 0x4AD7960F EQ PUSH2 0x1D4 JUMPI DUP1 PUSH4 0x528AECCE EQ PUSH2 0x1E7 JUMPI DUP1 PUSH4 0x583CAF96 EQ PUSH2 0x1FA JUMPI DUP1 PUSH4 0x6296610B EQ PUSH2 0x21A JUMPI DUP1 PUSH4 0x64F93728 EQ PUSH2 0x23B JUMPI DUP1 PUSH4 0x7D941522 EQ PUSH2 0x250 JUMPI JUMPDEST PUSH0 DUP1 REVERT JUMPDEST PUSH2 0x136 PUSH2 0x131 CALLDATASIZE PUSH1 0x4 PUSH2 0x21E2 JUMP JUMPDEST PUSH2 0x36A JUMP JUMPDEST STOP JUMPDEST PUSH2 0x136 PUSH2 0x146 CALLDATASIZE PUSH1 0x4 PUSH2 0x21E2 JUMP JUMPDEST PUSH2 0x378 JUMP JUMPDEST PUSH2 0x17D PUSH2 0x159 CALLDATASIZE PUSH1 0x4 PUSH2 0x220A JUMP JUMPDEST PUSH1 0x3 PUSH1 0x20 MSTORE PUSH0 SWAP1 DUP2 MSTORE PUSH1 0x40 SWAP1 KECCAK256 DUP1 SLOAD PUSH1 0x1 SWAP1 SWAP2 ADD SLOAD PUSH1 0x1 PUSH1 0x1 PUSH1 0xA0 SHL SUB SWAP1 SWAP2 AND SWAP1 DUP3 JUMP JUMPDEST PUSH1 0x40 DUP1 MLOAD PUSH1 0x1 PUSH1 0x1 PUSH1 0xA0 SHL SUB SWAP1 SWAP4 AND DUP4 MSTORE PUSH1 0x20 DUP4 ADD SWAP2 SWAP1 SWAP2 MSTORE ADD JUMPDEST PUSH1 0x40 MLOAD DUP1 SWAP2 SUB SWAP1 RETURN JUMPDEST PUSH2 0x136 PUSH2 0x1AF CALLDATASIZE PUSH1 0x4 PUSH2 0x22D2 JUMP JUMPDEST PUSH2 0x4D1 JUMP JUMPDEST PUSH2 0x1C7 PUSH2 0x1C2 CALLDATASIZE PUSH1 0x4 PUSH2 0x2388 JUMP JUMPDEST PUSH2 0x4E7 JUMP JUMPDEST PUSH1 0x40 MLOAD PUSH2 0x198 SWAP2 SWAP1 PUSH2 0x23C9 JUMP JUMPDEST PUSH2 0x136 PUSH2 0x1E2 CALLDATASIZE PUSH1 0x4 PUSH2 0x21E2 JUMP JUMPDEST PUSH2 0x52C JUMP JUMPDEST PUSH2 0x136 PUSH2 0x1F5 CALLDATASIZE PUSH1 0x4 PUSH2 0x2476 JUMP JUMPDEST PUSH2 0x536 JUMP JUMPDEST PUSH2 0x20D PUSH2 0x208 CALLDATASIZE PUSH1 0x4 PUSH2 0x2504 JUMP JUMPDEST PUSH2 0x82A JUMP JUMPDEST PUSH1 0x40 MLOAD PUSH2 0x198 SWAP2 SWAP1 PUSH2 0x2672 JUMP JUMPDEST PUSH2 0x22D PUSH2 0x228 CALLDATASIZE PUSH1 0x4 PUSH2 0x2504 JUMP JUMPDEST PUSH2 0x9D8 JUMP JUMPDEST PUSH1 0x40 MLOAD SWAP1 DUP2 MSTORE PUSH1 0x20 ADD PUSH2 0x198 JUMP JUMPDEST PUSH2 0x243 PUSH2 0x9E8 JUMP JUMPDEST PUSH1 0x40 MLOAD PUSH2 0x198 SWAP2 SWAP1 PUSH2 0x26AA JUMP JUMPDEST PUSH2 0x263 PUSH2 0x25E CALLDATASIZE PUSH1 0x4 PUSH2 0x270C JUMP JUMPDEST PUSH2 0x9F7 JUMP JUMPDEST PUSH1 0x40 MLOAD SWAP1 ISZERO ISZERO DUP2 MSTORE PUSH1 0x20 ADD PUSH2 0x198 JUMP JUMPDEST PUSH1 0x6 SLOAD PUSH2 0x1C7 SWAP1 PUSH1 0x1 PUSH1 0x1 PUSH1 0xA0 SHL SUB AND DUP2 JUMP JUMPDEST PUSH2 0x299 PUSH2 0x294 CALLDATASIZE PUSH1 0x4 PUSH2 0x2504 JUMP JUMPDEST PUSH2 0xA09 JUMP JUMPDEST PUSH1 0x40 MLOAD PUSH2 0x198 SWAP2 SWAP1 PUSH2 0x274F JUMP JUMPDEST PUSH2 0x136 PUSH2 0x2B4 CALLDATASIZE PUSH1 0x4 PUSH2 0x2504 JUMP JUMPDEST PUSH2 0xA14 JUMP JUMPDEST PUSH2 0x299 PUSH2 0x2C7 CALLDATASIZE PUSH1 0x4 PUSH2 0x2504 JUMP JUMPDEST PUSH2 0x10B9 JUMP JUMPDEST PUSH2 0x136 PUSH2 0x2DA CALLDATASIZE PUSH1 0x4 PUSH2 0x2761 JUMP JUMPDEST PUSH2 0x11D4 JUMP JUMPDEST PUSH2 0x299 PUSH2 0x11E6 JUMP JUMPDEST PUSH2 0x136 PUSH2 0x2F5 CALLDATASIZE PUSH1 0x4 PUSH2 0x270C JUMP JUMPDEST PUSH2 0x11F0 JUMP JUMPDEST PUSH2 0x136 PUSH2 0x308 CALLDATASIZE PUSH1 0x4 PUSH2 0x2504 JUMP JUMPDEST PUSH2 0x11FA JUMP JUMPDEST PUSH2 0x320 PUSH2 0x31B CALLDATASIZE PUSH1 0x4 PUSH2 0x220A JUMP JUMPDEST PUSH2 0x1206 JUMP JUMPDEST PUSH1 0x40 DUP1 MLOAD DUP3 MLOAD PUSH1 0x1 PUSH1 0x1 PUSH1 0xA0 SHL SUB AND DUP2 MSTORE PUSH1 0x20 SWAP3 DUP4 ADD MLOAD SWAP3 DUP2 ADD SWAP3 SWAP1 SWAP3 MSTORE ADD PUSH2 0x198 JUMP JUMPDEST PUSH2 0x22D PUSH2 0x352 CALLDATASIZE PUSH1 0x4 PUSH2 0x27D7 JUMP JUMPDEST PUSH2 0x125E JUMP JUMPDEST PUSH2 0x1C7 PUSH2 0x365 CALLDATASIZE PUSH1 0x4 PUSH2 0x2808 JUMP JUMPDEST PUSH2 0x1268 JUMP JUMPDEST PUSH2 0x374 DUP3 DUP3 PUSH2 0x1290 JUMP JUMPDEST POP POP JUMP JUMPDEST PUSH1 0x1 PUSH1 0x1 PUSH1 0xA0 SHL SUB DUP3 DUP2 AND PUSH0 SWAP1 DUP2 MSTORE PUSH1 0x3 PUSH1 0x20 MSTORE PUSH1 0x40 SWAP1 KECCAK256 SLOAD AND ISZERO PUSH2 0x400 JUMPI PUSH1 0x40 MLOAD PUSH3 0x461BCD PUSH1 0xE5 SHL DUP2 MSTORE PUSH1 0x20 PUSH1 0x4 DUP3 ADD MSTORE PUSH1 0x33 PUSH1 0x24 DUP3 ADD MSTORE PUSH32 0x6164644E6F64653A20496E76616C6964205F6E6F646541646472657373202D20 PUSH1 0x44 DUP3 ADD MSTORE PUSH19 0x4E6F646520416C726561647920657869737473 PUSH1 0x68 SHL PUSH1 0x64 DUP3 ADD MSTORE PUSH1 0x84 ADD JUMPDEST PUSH1 0x40 MLOAD DUP1 SWAP2 SUB SWAP1 REVERT JUMPDEST PUSH1 0x40 DUP1 MLOAD DUP1 DUP3 ADD DUP3 MSTORE PUSH1 0x1 PUSH1 0x1 PUSH1 0xA0 SHL SUB DUP5 DUP2 AND DUP1 DUP4 MSTORE PUSH1 0x20 DUP1 DUP5 ADD DUP7 DUP2 MSTORE PUSH0 SWAP3 DUP4 MSTORE PUSH1 0x3 SWAP1 SWAP2 MSTORE SWAP1 DUP5 SWAP1 KECCAK256 SWAP3 MLOAD DUP4 SLOAD PUSH1 0x1 PUSH1 0x1 PUSH1 0xA0 SHL SUB NOT AND SWAP3 AND SWAP2 SWAP1 SWAP2 OR DUP3 SSTORE MLOAD PUSH1 0x1 SWAP1 SWAP2 ADD SSTORE MLOAD PUSH32 0x5F91B0AFD2C6EF8DA92137BA907BCCDC85EC4856A15AD39DE3E0EFF02BE6D70E SWAP1 PUSH2 0x477 SWAP1 DUP5 SWAP1 PUSH2 0x23C9 JUMP JUMPDEST PUSH1 0x40 MLOAD DUP1 SWAP2 SUB SWAP1 LOG1 POP PUSH1 0x5 DUP1 SLOAD PUSH1 0x1 DUP2 ADD DUP3 SSTORE PUSH0 SWAP2 SWAP1 SWAP2 MSTORE PUSH32 0x36B6384B5ECA791C62761152D0C79BB0604C104A5FB6F4EB0703F3154BB3DB0 ADD DUP1 SLOAD PUSH1 0x1 PUSH1 0x1 PUSH1 0xA0 SHL SUB NOT AND PUSH1 0x1 PUSH1 0x1 PUSH1 0xA0 SHL SUB SWAP3 SWAP1 SWAP3 AND SWAP2 SWAP1 SWAP2 OR SWAP1 SSTORE JUMP JUMPDEST PUSH2 0x4DF DUP7 DUP7 DUP7 DUP7 DUP7 DUP7 PUSH2 0x1345 JUMP JUMPDEST POP POP POP POP POP POP JUMP JUMPDEST DUP2 MLOAD PUSH1 0x20 DUP2 DUP5 ADD DUP2 ADD DUP1 MLOAD PUSH1 0x4 DUP3 MSTORE SWAP3 DUP3 ADD SWAP2 DUP6 ADD SWAP2 SWAP1 SWAP2 KECCAK256 SWAP2 SWAP1 MSTORE DUP1 SLOAD DUP3 SWAP1 DUP2 LT PUSH2 0x511 JUMPI PUSH0 DUP1 REVERT JUMPDEST PUSH0 SWAP2 DUP3 MSTORE PUSH1 0x20 SWAP1 SWAP2 KECCAK256 ADD SLOAD PUSH1 0x1 PUSH1 0x1 PUSH1 0xA0 SHL SUB AND SWAP2 POP DUP3 SWAP1 POP JUMP JUMPDEST PUSH2 0x374 DUP3 DUP3 PUSH2 0x378 JUMP JUMPDEST PUSH1 0x5 SLOAD PUSH1 0x40 DUP1 MLOAD PUSH1 0x60 DUP2 ADD SWAP1 SWAP2 MSTORE PUSH1 0x23 DUP1 DUP3 MSTORE SWAP2 ISZERO ISZERO SWAP2 PUSH2 0x2B49 PUSH1 0x20 DUP4 ADD CODECOPY SWAP1 PUSH2 0x573 JUMPI PUSH1 0x40 MLOAD PUSH3 0x461BCD PUSH1 0xE5 SHL DUP2 MSTORE PUSH1 0x4 ADD PUSH2 0x3F7 SWAP2 SWAP1 PUSH2 0x281F JUMP JUMPDEST POP PUSH0 PUSH2 0x57E DUP4 PUSH2 0x15F3 JUMP JUMPDEST EQ PUSH1 0x40 MLOAD DUP1 PUSH1 0x40 ADD PUSH1 0x40 MSTORE DUP1 PUSH1 0x1C DUP2 MSTORE PUSH1 0x20 ADD PUSH32 0x73746F726546696C653A204475706C69636174652046696C6520496400000000 DUP2 MSTORE POP SWAP1 PUSH2 0x5D3 JUMPI PUSH1 0x40 MLOAD PUSH3 0x461BCD PUSH1 0xE5 SHL DUP2 MSTORE PUSH1 0x4 ADD PUSH2 0x3F7 SWAP2 SWAP1 PUSH2 0x281F JUMP JUMPDEST POP PUSH0 JUMPDEST DUP7 MLOAD DUP2 LT ISZERO PUSH2 0x7F1 JUMPI PUSH2 0x5EA PUSH1 0x7 PUSH0 PUSH2 0x20F4 JUMP JUMPDEST PUSH0 DUP8 DUP3 DUP2 MLOAD DUP2 LT PUSH2 0x5FD JUMPI PUSH2 0x5FD PUSH2 0x2831 JUMP JUMPDEST PUSH1 0x20 MUL PUSH1 0x20 ADD ADD MLOAD MLOAD SWAP1 POP PUSH0 DUP1 DUP1 SLOAD SWAP1 POP PUSH1 0x3 PUSH1 0x5 DUP1 SLOAD SWAP1 POP LT ISZERO PUSH2 0x621 JUMPI POP PUSH1 0x5 SLOAD JUMPDEST PUSH2 0x657 PUSH1 0x40 MLOAD DUP1 PUSH1 0x40 ADD PUSH1 0x40 MSTORE DUP1 PUSH1 0x13 DUP2 MSTORE PUSH1 0x20 ADD PUSH19 0x111D5C1B1A58D85D1A5BDB881CDD185C9D1959 PUSH1 0x6A SHL DUP2 MSTORE POP DUP4 DUP4 PUSH2 0x166A JUMP JUMPDEST DUP1 DUP3 LT ISZERO PUSH2 0x7E6 JUMPI PUSH0 PUSH2 0x6C2 DUP5 PUSH1 0x7 DUP1 SLOAD DUP1 PUSH1 0x20 MUL PUSH1 0x20 ADD PUSH1 0x40 MLOAD SWAP1 DUP2 ADD PUSH1 0x40 MSTORE DUP1 SWAP3 SWAP2 SWAP1 DUP2 DUP2 MSTORE PUSH1 0x20 ADD DUP3 DUP1 SLOAD DUP1 ISZERO PUSH2 0x6B8 JUMPI PUSH1 0x20 MUL DUP3 ADD SWAP2 SWAP1 PUSH0 MSTORE PUSH1 0x20 PUSH0 KECCAK256 SWAP1 JUMPDEST DUP2 SLOAD PUSH1 0x1 PUSH1 0x1 PUSH1 0xA0 SHL SUB AND DUP2 MSTORE PUSH1 0x1 SWAP1 SWAP2 ADD SWAP1 PUSH1 0x20 ADD DUP1 DUP4 GT PUSH2 0x69A JUMPI JUMPDEST POP POP POP POP POP PUSH2 0x16B6 JUMP JUMPDEST SWAP1 POP PUSH32 0x5F91B0AFD2C6EF8DA92137BA907BCCDC85EC4856A15AD39DE3E0EFF02BE6D70E DUP2 PUSH1 0x40 MLOAD PUSH2 0x6F3 SWAP2 SWAP1 PUSH2 0x23C9 JUMP JUMPDEST PUSH1 0x40 MLOAD DUP1 SWAP2 SUB SWAP1 LOG1 PUSH1 0x7 DUP1 SLOAD PUSH1 0x1 DUP2 ADD DUP3 SSTORE PUSH0 SWAP2 SWAP1 SWAP2 MSTORE PUSH32 0xA66CC928B5EDB82AF9BD49922954155AB7B0942694BEA4CE44661D9A8736C688 ADD DUP1 SLOAD PUSH1 0x1 PUSH1 0x1 PUSH1 0xA0 SHL SUB NOT AND PUSH1 0x1 PUSH1 0x1 PUSH1 0xA0 SHL SUB DUP4 AND OR SWAP1 SSTORE PUSH1 0x40 MLOAD PUSH32 0xB011A0DA2BACC57F5C2DDF79F5C8E86484A4FC528F15571A48A9D47956BC82BE SWAP1 PUSH2 0x775 SWAP1 DUP4 SWAP1 PUSH2 0x23C9 JUMP JUMPDEST PUSH1 0x40 MLOAD DUP1 SWAP2 SUB SWAP1 LOG1 DUP3 PUSH2 0x787 DUP2 PUSH2 0x2859 JUMP JUMPDEST SWAP4 POP POP PUSH2 0x7AF DUP2 DUP13 DUP8 DUP2 MLOAD DUP2 LT PUSH2 0x7A0 JUMPI PUSH2 0x7A0 PUSH2 0x2831 JUMP JUMPDEST PUSH1 0x20 MUL PUSH1 0x20 ADD ADD MLOAD DUP10 DUP9 PUSH2 0x1830 JUMP JUMPDEST PUSH1 0x1 PUSH1 0x1 PUSH1 0xA0 SHL SUB DUP2 AND PUSH0 SWAP1 DUP2 MSTORE PUSH1 0x3 PUSH1 0x20 MSTORE PUSH1 0x40 SWAP1 KECCAK256 PUSH1 0x1 ADD SLOAD PUSH2 0x7E0 SWAP1 DUP3 SWAP1 PUSH2 0x7DB SWAP1 DUP8 SWAP1 PUSH2 0x2871 JUMP JUMPDEST PUSH2 0x1290 JUMP JUMPDEST POP PUSH2 0x657 JUMP JUMPDEST POP POP POP PUSH1 0x1 ADD PUSH2 0x5D6 JUMP JUMPDEST POP PUSH2 0x7FD PUSH1 0x7 PUSH0 PUSH2 0x20F4 JUMP JUMPDEST PUSH0 PUSH2 0x807 DUP8 PUSH2 0x198B JUMP JUMPDEST SWAP1 POP PUSH2 0x813 DUP2 DUP5 PUSH2 0x19FB JUMP JUMPDEST PUSH2 0x821 DUP7 DUP7 DUP4 DUP8 DUP8 DUP8 PUSH2 0x1345 JUMP JUMPDEST POP POP POP POP POP POP POP JUMP JUMPDEST PUSH2 0x832 PUSH2 0x210F JUMP JUMPDEST PUSH0 PUSH2 0x83B PUSH2 0x1B0A JUMP JUMPDEST SWAP1 POP PUSH0 JUMPDEST DUP2 MLOAD DUP2 LT ISZERO PUSH2 0x922 JUMPI PUSH2 0x86E DUP3 DUP3 DUP2 MLOAD DUP2 LT PUSH2 0x85D JUMPI PUSH2 0x85D PUSH2 0x2831 JUMP JUMPDEST PUSH1 0x20 MUL PUSH1 0x20 ADD ADD MLOAD PUSH0 ADD MLOAD DUP6 PUSH2 0x1E1E JUMP JUMPDEST ISZERO PUSH2 0x91A JUMPI DUP2 DUP2 DUP2 MLOAD DUP2 LT PUSH2 0x885 JUMPI PUSH2 0x885 PUSH2 0x2831 JUMP JUMPDEST PUSH1 0x20 MUL PUSH1 0x20 ADD ADD MLOAD PUSH1 0xC0 ADD MLOAD PUSH1 0x1 PUSH1 0x1 PUSH1 0xA0 SHL SUB AND CALLER PUSH1 0x1 PUSH1 0x1 PUSH1 0xA0 SHL SUB AND EQ PUSH1 0x40 MLOAD DUP1 PUSH1 0x60 ADD PUSH1 0x40 MSTORE DUP1 PUSH1 0x30 DUP2 MSTORE PUSH1 0x20 ADD PUSH2 0x2BD4 PUSH1 0x30 SWAP2 CODECOPY SWAP1 PUSH2 0x8DC JUMPI PUSH1 0x40 MLOAD PUSH3 0x461BCD PUSH1 0xE5 SHL DUP2 MSTORE PUSH1 0x4 ADD PUSH2 0x3F7 SWAP2 SWAP1 PUSH2 0x281F JUMP JUMPDEST POP PUSH1 0x40 MLOAD DUP1 PUSH1 0x40 ADD PUSH1 0x40 MSTORE DUP1 DUP4 DUP4 DUP2 MLOAD DUP2 LT PUSH2 0x8FA JUMPI PUSH2 0x8FA PUSH2 0x2831 JUMP JUMPDEST PUSH1 0x20 MUL PUSH1 0x20 ADD ADD MLOAD DUP2 MSTORE PUSH1 0x20 ADD PUSH2 0x910 DUP7 PUSH2 0x10B9 JUMP JUMPDEST SWAP1 MSTORE SWAP5 SWAP4 POP POP POP POP JUMP JUMPDEST PUSH1 0x1 ADD PUSH2 0x83F JUMP JUMPDEST POP PUSH0 PUSH1 0x40 MLOAD DUP1 PUSH1 0x60 ADD PUSH1 0x40 MSTORE DUP1 PUSH1 0x23 DUP2 MSTORE PUSH1 0x20 ADD PUSH2 0x2BB1 PUSH1 0x23 SWAP2 CODECOPY SWAP1 PUSH2 0x95B JUMPI PUSH1 0x40 MLOAD PUSH3 0x461BCD PUSH1 0xE5 SHL DUP2 MSTORE PUSH1 0x4 ADD PUSH2 0x3F7 SWAP2 SWAP1 PUSH2 0x281F JUMP JUMPDEST POP POP PUSH1 0x40 DUP1 MLOAD PUSH2 0x120 DUP2 ADD DUP3 MSTORE PUSH0 PUSH2 0x100 DUP3 ADD DUP2 DUP2 MSTORE DUP3 MSTORE DUP3 MLOAD PUSH1 0x20 DUP2 DUP2 ADD DUP6 MSTORE DUP3 DUP3 MSTORE DUP1 DUP5 ADD SWAP2 SWAP1 SWAP2 MSTORE DUP4 MLOAD DUP1 DUP3 ADD DUP6 MSTORE DUP3 DUP2 MSTORE DUP4 DUP6 ADD MSTORE PUSH1 0x60 DUP4 DUP2 ADD DUP4 SWAP1 MSTORE PUSH1 0x80 DUP5 ADD DUP4 SWAP1 MSTORE PUSH1 0xA0 DUP5 ADD DUP4 SWAP1 MSTORE PUSH1 0xC0 DUP5 ADD DUP4 SWAP1 MSTORE DUP5 MLOAD DUP1 DUP4 ADD DUP7 MSTORE SWAP3 DUP4 MSTORE PUSH1 0xE0 DUP5 ADD SWAP3 SWAP1 SWAP3 MSTORE DUP4 MLOAD DUP1 DUP6 ADD SWAP1 SWAP5 MSTORE SWAP2 DUP4 MSTORE SWAP1 DUP3 ADD MSTORE SWAP3 SWAP2 POP POP JUMP JUMPDEST PUSH0 PUSH2 0x9E2 DUP3 PUSH2 0x15F3 JUMP JUMPDEST SWAP3 SWAP2 POP POP JUMP JUMPDEST PUSH1 0x60 PUSH2 0x9F2 PUSH2 0x1B0A JUMP JUMPDEST SWAP1 POP SWAP1 JUMP JUMPDEST PUSH0 PUSH2 0xA02 DUP4 DUP4 PUSH2 0x1E76 JUMP JUMPDEST SWAP4 SWAP3 POP POP POP JUMP JUMPDEST PUSH1 0x60 PUSH2 0x9E2 DUP3 PUSH2 0x10B9 JUMP JUMPDEST CALLER PUSH0 SWAP1 DUP2 MSTORE PUSH1 0x8 PUSH1 0x20 SWAP1 DUP2 MSTORE PUSH1 0x40 SWAP2 DUP3 SWAP1 KECCAK256 SLOAD DUP3 MLOAD DUP1 DUP5 ADD SWAP1 SWAP4 MSTORE PUSH1 0x1B DUP4 MSTORE PUSH27 0x19195B195D19519A5B194E88125B9D985B1A5908199A5B19481A59 PUSH1 0x2A SHL SWAP2 DUP4 ADD SWAP2 SWAP1 SWAP2 MSTORE PUSH2 0xA76 JUMPI PUSH1 0x40 MLOAD PUSH3 0x461BCD PUSH1 0xE5 SHL DUP2 MSTORE PUSH1 0x4 ADD PUSH2 0x3F7 SWAP2 SWAP1 PUSH2 0x281F JUMP JUMPDEST POP CALLER PUSH0 SWAP1 DUP2 MSTORE PUSH1 0x8 PUSH1 0x20 SWAP1 DUP2 MSTORE PUSH1 0x40 DUP1 DUP4 KECCAK256 DUP1 SLOAD DUP3 MLOAD DUP2 DUP6 MUL DUP2 ADD DUP6 ADD SWAP1 SWAP4 MSTORE DUP1 DUP4 MSTORE SWAP2 SWAP3 SWAP1 SWAP2 SWAP1 DUP5 SWAP1 DUP5 ADD JUMPDEST DUP3 DUP3 LT ISZERO PUSH2 0xD48 JUMPI DUP4 DUP3 SWAP1 PUSH0 MSTORE PUSH1 0x20 PUSH0 KECCAK256 SWAP1 PUSH1 0x8 MUL ADD PUSH1 0x40 MLOAD DUP1 PUSH2 0x100 ADD PUSH1 0x40 MSTORE SWAP1 DUP2 PUSH0 DUP3 ADD DUP1 SLOAD PUSH2 0xAD4 SWAP1 PUSH2 0x2884 JUMP JUMPDEST DUP1 PUSH1 0x1F ADD PUSH1 0x20 DUP1 SWAP2 DIV MUL PUSH1 0x20 ADD PUSH1 0x40 MLOAD SWAP1 DUP2 ADD PUSH1 0x40 MSTORE DUP1 SWAP3 SWAP2 SWAP1 DUP2 DUP2 MSTORE PUSH1 0x20 ADD DUP3 DUP1 SLOAD PUSH2 0xB00 SWAP1 PUSH2 0x2884 JUMP JUMPDEST DUP1 ISZERO PUSH2 0xB4B JUMPI DUP1 PUSH1 0x1F LT PUSH2 0xB22 JUMPI PUSH2 0x100 DUP1 DUP4 SLOAD DIV MUL DUP4 MSTORE SWAP2 PUSH1 0x20 ADD SWAP2 PUSH2 0xB4B JUMP JUMPDEST DUP3 ADD SWAP2 SWAP1 PUSH0 MSTORE PUSH1 0x20 PUSH0 KECCAK256 SWAP1 JUMPDEST DUP2 SLOAD DUP2 MSTORE SWAP1 PUSH1 0x1 ADD SWAP1 PUSH1 0x20 ADD DUP1 DUP4 GT PUSH2 0xB2E JUMPI DUP3 SWAP1 SUB PUSH1 0x1F AND DUP3 ADD SWAP2 JUMPDEST POP POP POP POP POP DUP2 MSTORE PUSH1 0x20 ADD PUSH1 0x1 DUP3 ADD DUP1 SLOAD PUSH2 0xB64 SWAP1 PUSH2 0x2884 JUMP JUMPDEST DUP1 PUSH1 0x1F ADD PUSH1 0x20 DUP1 SWAP2 DIV MUL PUSH1 0x20 ADD PUSH1 0x40 MLOAD SWAP1 DUP2 ADD PUSH1 0x40 MSTORE DUP1 SWAP3 SWAP2 SWAP1 DUP2 DUP2 MSTORE PUSH1 0x20 ADD DUP3 DUP1 SLOAD PUSH2 0xB90 SWAP1 PUSH2 0x2884 JUMP JUMPDEST DUP1 ISZERO PUSH2 0xBDB JUMPI DUP1 PUSH1 0x1F LT PUSH2 0xBB2 JUMPI PUSH2 0x100 DUP1 DUP4 SLOAD DIV MUL DUP4 MSTORE SWAP2 PUSH1 0x20 ADD SWAP2 PUSH2 0xBDB JUMP JUMPDEST DUP3 ADD SWAP2 SWAP1 PUSH0 MSTORE PUSH1 0x20 PUSH0 KECCAK256 SWAP1 JUMPDEST DUP2 SLOAD DUP2 MSTORE SWAP1 PUSH1 0x1 ADD SWAP1 PUSH1 0x20 ADD DUP1 DUP4 GT PUSH2 0xBBE JUMPI DUP3 SWAP1 SUB PUSH1 0x1F AND DUP3 ADD SWAP2 JUMPDEST POP POP POP POP POP DUP2 MSTORE PUSH1 0x20 ADD PUSH1 0x2 DUP3 ADD DUP1 SLOAD PUSH2 0xBF4 SWAP1 PUSH2 0x2884 JUMP JUMPDEST DUP1 PUSH1 0x1F ADD PUSH1 0x20 DUP1 SWAP2 DIV MUL PUSH1 0x20 ADD PUSH1 0x40 MLOAD SWAP1 DUP2 ADD PUSH1 0x40 MSTORE DUP1 SWAP3 SWAP2 SWAP1 DUP2 DUP2 MSTORE PUSH1 0x20 ADD DUP3 DUP1 SLOAD PUSH2 0xC20 SWAP1 PUSH2 0x2884 JUMP JUMPDEST DUP1 ISZERO PUSH2 0xC6B JUMPI DUP1 PUSH1 0x1F LT PUSH2 0xC42 JUMPI PUSH2 0x100 DUP1 DUP4 SLOAD DIV MUL DUP4 MSTORE SWAP2 PUSH1 0x20 ADD SWAP2 PUSH2 0xC6B JUMP JUMPDEST DUP3 ADD SWAP2 SWAP1 PUSH0 MSTORE PUSH1 0x20 PUSH0 KECCAK256 SWAP1 JUMPDEST DUP2 SLOAD DUP2 MSTORE SWAP1 PUSH1 0x1 ADD SWAP1 PUSH1 0x20 ADD DUP1 DUP4 GT PUSH2 0xC4E JUMPI DUP3 SWAP1 SUB PUSH1 0x1F AND DUP3 ADD SWAP2 JUMPDEST POP POP POP SWAP2 DUP4 MSTORE POP POP PUSH1 0x3 DUP3 ADD SLOAD PUSH1 0x20 DUP3 ADD MSTORE PUSH1 0x4 DUP3 ADD SLOAD PUSH1 0x40 DUP3 ADD MSTORE PUSH1 0x5 DUP3 ADD SLOAD PUSH1 0x60 DUP3 ADD MSTORE PUSH1 0x6 DUP3 ADD SLOAD PUSH1 0x1 PUSH1 0x1 PUSH1 0xA0 SHL SUB AND PUSH1 0x80 DUP3 ADD MSTORE PUSH1 0x7 DUP3 ADD DUP1 SLOAD PUSH1 0xA0 SWAP1 SWAP3 ADD SWAP2 PUSH2 0xCB9 SWAP1 PUSH2 0x2884 JUMP JUMPDEST DUP1 PUSH1 0x1F ADD PUSH1 0x20 DUP1 SWAP2 DIV MUL PUSH1 0x20 ADD PUSH1 0x40 MLOAD SWAP1 DUP2 ADD PUSH1 0x40 MSTORE DUP1 SWAP3 SWAP2 SWAP1 DUP2 DUP2 MSTORE PUSH1 0x20 ADD DUP3 DUP1 SLOAD PUSH2 0xCE5 SWAP1 PUSH2 0x2884 JUMP JUMPDEST DUP1 ISZERO PUSH2 0xD30 JUMPI DUP1 PUSH1 0x1F LT PUSH2 0xD07 JUMPI PUSH2 0x100 DUP1 DUP4 SLOAD DIV MUL DUP4 MSTORE SWAP2 PUSH1 0x20 ADD SWAP2 PUSH2 0xD30 JUMP JUMPDEST DUP3 ADD SWAP2 SWAP1 PUSH0 MSTORE PUSH1 0x20 PUSH0 KECCAK256 SWAP1 JUMPDEST DUP2 SLOAD DUP2 MSTORE SWAP1 PUSH1 0x1 ADD SWAP1 PUSH1 0x20 ADD DUP1 DUP4 GT PUSH2 0xD13 JUMPI DUP3 SWAP1 SUB PUSH1 0x1F AND DUP3 ADD SWAP2 JUMPDEST POP POP POP POP POP DUP2 MSTORE POP POP DUP2 MSTORE PUSH1 0x20 ADD SWAP1 PUSH1 0x1 ADD SWAP1 PUSH2 0xAA3 JUMP JUMPDEST POP POP POP POP SWAP1 POP PUSH0 PUSH1 0x1 DUP3 MLOAD PUSH2 0xD5D SWAP2 SWAP1 PUSH2 0x2871 JUMP JUMPDEST SWAP1 POP PUSH0 DUP3 DUP3 DUP2 MLOAD DUP2 LT PUSH2 0xD72 JUMPI PUSH2 0xD72 PUSH2 0x2831 JUMP JUMPDEST PUSH1 0x20 MUL PUSH1 0x20 ADD ADD MLOAD SWAP1 POP PUSH2 0xD84 PUSH2 0x212F JUMP JUMPDEST PUSH0 DUP1 JUMPDEST DUP6 MLOAD DUP2 LT ISZERO PUSH2 0xEBD JUMPI PUSH2 0xDB6 DUP7 DUP3 DUP2 MLOAD DUP2 LT PUSH2 0xDA5 JUMPI PUSH2 0xDA5 PUSH2 0x2831 JUMP JUMPDEST PUSH1 0x20 MUL PUSH1 0x20 ADD ADD MLOAD PUSH0 ADD MLOAD DUP9 PUSH2 0x1E1E JUMP JUMPDEST ISZERO PUSH2 0xEB5 JUMPI PUSH1 0x1 SWAP2 POP DUP6 DUP2 DUP2 MLOAD DUP2 LT PUSH2 0xDD1 JUMPI PUSH2 0xDD1 PUSH2 0x2831 JUMP JUMPDEST PUSH1 0x20 MUL PUSH1 0x20 ADD ADD MLOAD SWAP3 POP DUP4 PUSH1 0x8 PUSH0 CALLER PUSH1 0x1 PUSH1 0x1 PUSH1 0xA0 SHL SUB AND PUSH1 0x1 PUSH1 0x1 PUSH1 0xA0 SHL SUB AND DUP2 MSTORE PUSH1 0x20 ADD SWAP1 DUP2 MSTORE PUSH1 0x20 ADD PUSH0 KECCAK256 DUP3 DUP2 SLOAD DUP2 LT PUSH2 0xE10 JUMPI PUSH2 0xE10 PUSH2 0x2831 JUMP JUMPDEST PUSH0 SWAP2 DUP3 MSTORE PUSH1 0x20 SWAP1 SWAP2 KECCAK256 DUP3 MLOAD PUSH1 0x8 SWAP1 SWAP3 MUL ADD SWAP1 DUP2 SWAP1 PUSH2 0xE2E SWAP1 DUP3 PUSH2 0x2907 JUMP JUMPDEST POP PUSH1 0x20 DUP3 ADD MLOAD PUSH1 0x1 DUP3 ADD SWAP1 PUSH2 0xE43 SWAP1 DUP3 PUSH2 0x2907 JUMP JUMPDEST POP PUSH1 0x40 DUP3 ADD MLOAD PUSH1 0x2 DUP3 ADD SWAP1 PUSH2 0xE58 SWAP1 DUP3 PUSH2 0x2907 JUMP JUMPDEST POP PUSH1 0x60 DUP3 ADD MLOAD PUSH1 0x3 DUP3 ADD SSTORE PUSH1 0x80 DUP3 ADD MLOAD PUSH1 0x4 DUP3 ADD SSTORE PUSH1 0xA0 DUP3 ADD MLOAD PUSH1 0x5 DUP3 ADD SSTORE PUSH1 0xC0 DUP3 ADD MLOAD PUSH1 0x6 DUP3 ADD DUP1 SLOAD PUSH1 0x1 PUSH1 0x1 PUSH1 0xA0 SHL SUB NOT AND PUSH1 0x1 PUSH1 0x1 PUSH1 0xA0 SHL SUB SWAP1 SWAP3 AND SWAP2 SWAP1 SWAP2 OR SWAP1 SSTORE PUSH1 0xE0 DUP3 ADD MLOAD PUSH1 0x7 DUP3 ADD SWAP1 PUSH2 0xEB1 SWAP1 DUP3 PUSH2 0x2907 JUMP JUMPDEST POP POP POP JUMPDEST PUSH1 0x1 ADD PUSH2 0xD87 JUMP JUMPDEST POP PUSH1 0x40 DUP1 MLOAD DUP1 DUP3 ADD SWAP1 SWAP2 MSTORE PUSH1 0x1A DUP2 MSTORE PUSH26 0x19195B195D19519A5B194E88119A5B1948139BDD08199BDD5B99 PUSH1 0x32 SHL PUSH1 0x20 DUP3 ADD MSTORE DUP2 PUSH2 0xF0D JUMPI PUSH1 0x40 MLOAD PUSH3 0x461BCD PUSH1 0xE5 SHL DUP2 MSTORE PUSH1 0x4 ADD PUSH2 0x3F7 SWAP2 SWAP1 PUSH2 0x281F JUMP JUMPDEST POP CALLER PUSH0 SWAP1 DUP2 MSTORE PUSH1 0x8 PUSH1 0x20 MSTORE PUSH1 0x40 SWAP1 KECCAK256 DUP1 SLOAD DUP4 SWAP2 SWAP1 DUP7 SWAP1 DUP2 LT PUSH2 0xF31 JUMPI PUSH2 0xF31 PUSH2 0x2831 JUMP JUMPDEST PUSH0 SWAP2 DUP3 MSTORE PUSH1 0x20 SWAP1 SWAP2 KECCAK256 DUP3 MLOAD PUSH1 0x8 SWAP1 SWAP3 MUL ADD SWAP1 DUP2 SWAP1 PUSH2 0xF4F SWAP1 DUP3 PUSH2 0x2907 JUMP JUMPDEST POP PUSH1 0x20 DUP3 ADD MLOAD PUSH1 0x1 DUP3 ADD SWAP1 PUSH2 0xF64 SWAP1 DUP3 PUSH2 0x2907 JUMP JUMPDEST POP PUSH1 0x40 DUP3 ADD MLOAD PUSH1 0x2 DUP3 ADD SWAP1 PUSH2 0xF79 SWAP1 DUP3 PUSH2 0x2907 JUMP JUMPDEST POP PUSH1 0x60 DUP3 ADD MLOAD PUSH1 0x3 DUP3 ADD SSTORE PUSH1 0x80 DUP3 ADD MLOAD PUSH1 0x4 DUP3 ADD SSTORE PUSH1 0xA0 DUP3 ADD MLOAD PUSH1 0x5 DUP3 ADD SSTORE PUSH1 0xC0 DUP3 ADD MLOAD PUSH1 0x6 DUP3 ADD DUP1 SLOAD PUSH1 0x1 PUSH1 0x1 PUSH1 0xA0 SHL SUB NOT AND PUSH1 0x1 PUSH1 0x1 PUSH1 0xA0 SHL SUB SWAP1 SWAP3 AND SWAP2 SWAP1 SWAP2 OR SWAP1 SSTORE PUSH1 0xE0 DUP3 ADD MLOAD PUSH1 0x7 DUP3 ADD SWAP1 PUSH2 0xFD2 SWAP1 DUP3 PUSH2 0x2907 JUMP JUMPDEST POP POP CALLER PUSH0 SWAP1 DUP2 MSTORE PUSH1 0x8 PUSH1 0x20 MSTORE PUSH1 0x40 SWAP1 KECCAK256 DUP1 SLOAD SWAP1 SWAP2 POP DUP1 PUSH2 0xFF4 JUMPI PUSH2 0xFF4 PUSH2 0x29C2 JUMP JUMPDEST PUSH0 DUP3 DUP2 MSTORE PUSH1 0x20 DUP2 KECCAK256 PUSH0 NOT SWAP1 SWAP3 ADD SWAP2 PUSH1 0x8 DUP4 MUL ADD SWAP1 PUSH2 0x1012 DUP3 DUP3 PUSH2 0x217C JUMP JUMPDEST PUSH2 0x101F PUSH1 0x1 DUP4 ADD PUSH0 PUSH2 0x217C JUMP JUMPDEST PUSH2 0x102C PUSH1 0x2 DUP4 ADD PUSH0 PUSH2 0x217C JUMP JUMPDEST PUSH0 PUSH1 0x3 DUP4 ADD DUP2 SWAP1 SSTORE PUSH1 0x4 DUP4 ADD DUP2 SWAP1 SSTORE PUSH1 0x5 DUP4 ADD DUP2 SWAP1 SSTORE PUSH1 0x6 DUP4 ADD DUP1 SLOAD PUSH1 0x1 PUSH1 0x1 PUSH1 0xA0 SHL SUB NOT AND SWAP1 SSTORE PUSH2 0x1062 SWAP1 PUSH1 0x7 DUP5 ADD SWAP1 PUSH2 0x217C JUMP JUMPDEST POP POP SWAP1 SSTORE PUSH2 0x106F DUP7 PUSH2 0x1EA0 JUMP JUMPDEST PUSH2 0x1078 DUP7 PUSH2 0x1F24 JUMP JUMPDEST PUSH32 0x8598A19145BA7B62366F9F3E3CECA438DF1E575FFA3BEF982ED120041131D786 CALLER DUP8 PUSH1 0x40 MLOAD PUSH2 0x10A9 SWAP3 SWAP2 SWAP1 PUSH2 0x29D6 JUMP JUMPDEST PUSH1 0x40 MLOAD DUP1 SWAP2 SUB SWAP1 LOG1 POP POP POP POP POP POP JUMP JUMPDEST PUSH1 0x60 PUSH0 PUSH1 0x4 DUP4 PUSH1 0x40 MLOAD PUSH2 0x10CC SWAP2 SWAP1 PUSH2 0x29F9 JUMP JUMPDEST SWAP1 DUP2 MSTORE PUSH1 0x40 MLOAD SWAP1 DUP2 SWAP1 SUB PUSH1 0x20 ADD SWAP1 KECCAK256 SLOAD GT PUSH2 0x115E JUMPI PUSH1 0x40 MLOAD PUSH3 0x461BCD PUSH1 0xE5 SHL DUP2 MSTORE PUSH1 0x20 PUSH1 0x4 DUP3 ADD MSTORE PUSH1 0x46 PUSH1 0x24 DUP3 ADD MSTORE PUSH32 0x72657472696576654368756E6B4E6F64654164647265737365733A20496E7661 PUSH1 0x44 DUP3 ADD MSTORE PUSH32 0x6C6964205F6E6F646541646472657373202D204E6F646520446F6573204E4F54 PUSH1 0x64 DUP3 ADD MSTORE PUSH6 0x8195E1A5CDD PUSH1 0xD2 SHL PUSH1 0x84 DUP3 ADD MSTORE PUSH1 0xA4 ADD PUSH2 0x3F7 JUMP JUMPDEST PUSH1 0x4 DUP3 PUSH1 0x40 MLOAD PUSH2 0x116E SWAP2 SWAP1 PUSH2 0x29F9 JUMP JUMPDEST SWAP1 DUP2 MSTORE PUSH1 0x40 DUP1 MLOAD SWAP2 DUP3 SWAP1 SUB PUSH1 0x20 SWAP1 DUP2 ADD DUP4 KECCAK256 DUP1 SLOAD DUP1 DUP4 MUL DUP6 ADD DUP4 ADD SWAP1 SWAP4 MSTORE DUP3 DUP5 MSTORE SWAP2 SWAP1 DUP4 ADD DUP3 DUP3 DUP1 ISZERO PUSH2 0x11C8 JUMPI PUSH1 0x20 MUL DUP3 ADD SWAP2 SWAP1 PUSH0 MSTORE PUSH1 0x20 PUSH0 KECCAK256 SWAP1 JUMPDEST DUP2 SLOAD PUSH1 0x1 PUSH1 0x1 PUSH1 0xA0 SHL SUB AND DUP2 MSTORE PUSH1 0x1 SWAP1 SWAP2 ADD SWAP1 PUSH1 0x20 ADD DUP1 DUP4 GT PUSH2 0x11AA JUMPI JUMPDEST POP POP POP POP POP SWAP1 POP SWAP2 SWAP1 POP JUMP JUMPDEST PUSH2 0x11E0 DUP5 DUP5 DUP5 DUP5 PUSH2 0x1830 JUMP JUMPDEST POP POP POP POP JUMP JUMPDEST PUSH1 0x60 PUSH2 0x9F2 PUSH2 0x2013 JUMP JUMPDEST PUSH2 0x374 DUP3 DUP3 PUSH2 0x19FB JUMP JUMPDEST PUSH2 0x1203 DUP2 PUSH2 0x1F24 JUMP JUMPDEST POP JUMP JUMPDEST PUSH1 0x40 DUP1 MLOAD DUP1 DUP3 ADD DUP3 MSTORE PUSH0 DUP1 DUP3 MSTORE PUSH1 0x20 DUP1 DUP4 ADD DUP3 SWAP1 MSTORE DUP4 MLOAD DUP1 DUP6 ADD DUP6 MSTORE DUP3 DUP2 MSTORE DUP2 ADD DUP3 SWAP1 MSTORE PUSH1 0x1 PUSH1 0x1 PUSH1 0xA0 SHL SUB DUP1 DUP7 AND DUP4 MSTORE PUSH1 0x3 DUP3 MSTORE SWAP2 DUP5 SWAP1 KECCAK256 DUP5 MLOAD DUP1 DUP7 ADD SWAP1 SWAP6 MSTORE DUP1 SLOAD SWAP1 SWAP3 AND DUP5 MSTORE PUSH1 0x1 SWAP1 SWAP2 ADD SLOAD SWAP1 DUP4 ADD MSTORE SWAP1 PUSH2 0x9E2 JUMP JUMPDEST PUSH0 PUSH2 0x9E2 DUP3 PUSH2 0x198B JUMP JUMPDEST PUSH1 0x5 DUP2 DUP2 SLOAD DUP2 LT PUSH2 0x1277 JUMPI PUSH0 DUP1 REVERT JUMPDEST PUSH0 SWAP2 DUP3 MSTORE PUSH1 0x20 SWAP1 SWAP2 KECCAK256 ADD SLOAD PUSH1 0x1 PUSH1 0x1 PUSH1 0xA0 SHL SUB AND SWAP1 POP DUP2 JUMP JUMPDEST PUSH1 0x1 PUSH1 0x1 PUSH1 0xA0 SHL SUB DUP3 DUP2 AND PUSH0 SWAP1 DUP2 MSTORE PUSH1 0x3 PUSH1 0x20 MSTORE PUSH1 0x40 SWAP1 KECCAK256 SLOAD AND PUSH2 0x1327 JUMPI PUSH1 0x40 MLOAD PUSH3 0x461BCD PUSH1 0xE5 SHL DUP2 MSTORE PUSH1 0x20 PUSH1 0x4 DUP3 ADD MSTORE PUSH1 0x42 PUSH1 0x24 DUP3 ADD MSTORE PUSH32 0x757064617465417661696C61626C6553746F726167653A20496E76616C696420 PUSH1 0x44 DUP3 ADD MSTORE PUSH32 0x5F6E6F646541646472657373202D204E6F646520446F6573204E4F5420657869 PUSH1 0x64 DUP3 ADD MSTORE PUSH2 0x1CDD PUSH1 0xF2 SHL PUSH1 0x84 DUP3 ADD MSTORE PUSH1 0xA4 ADD PUSH2 0x3F7 JUMP JUMPDEST PUSH1 0x1 PUSH1 0x1 PUSH1 0xA0 SHL SUB SWAP1 SWAP2 AND PUSH0 SWAP1 DUP2 MSTORE PUSH1 0x3 PUSH1 0x20 MSTORE PUSH1 0x40 SWAP1 KECCAK256 PUSH1 0x1 ADD SSTORE JUMP JUMPDEST PUSH1 0x40 DUP1 MLOAD PUSH1 0x60 DUP2 ADD SWAP1 SWAP2 MSTORE PUSH1 0x21 DUP1 DUP3 MSTORE CALLER ISZERO ISZERO SWAP2 SWAP1 PUSH2 0x2B90 PUSH1 0x20 DUP4 ADD CODECOPY SWAP1 PUSH2 0x1380 JUMPI PUSH1 0x40 MLOAD PUSH3 0x461BCD PUSH1 0xE5 SHL DUP2 MSTORE PUSH1 0x4 ADD PUSH2 0x3F7 SWAP2 SWAP1 PUSH2 0x281F JUMP JUMPDEST POP PUSH0 DUP6 MLOAD GT PUSH1 0x40 MLOAD DUP1 PUSH1 0x60 ADD PUSH1 0x40 MSTORE DUP1 PUSH1 0x24 DUP2 MSTORE PUSH1 0x20 ADD PUSH2 0x2B25 PUSH1 0x24 SWAP2 CODECOPY SWAP1 PUSH2 0x13BC JUMPI PUSH1 0x40 MLOAD PUSH3 0x461BCD PUSH1 0xE5 SHL DUP2 MSTORE PUSH1 0x4 ADD PUSH2 0x3F7 SWAP2 SWAP1 PUSH2 0x281F JUMP JUMPDEST POP PUSH0 DUP7 MLOAD GT PUSH1 0x40 MLOAD DUP1 PUSH1 0x60 ADD PUSH1 0x40 MSTORE DUP1 PUSH1 0x24 DUP2 MSTORE PUSH1 0x20 ADD PUSH2 0x2C04 PUSH1 0x24 SWAP2 CODECOPY SWAP1 PUSH2 0x13F8 JUMPI PUSH1 0x40 MLOAD PUSH3 0x461BCD PUSH1 0xE5 SHL DUP2 MSTORE PUSH1 0x4 ADD PUSH2 0x3F7 SWAP2 SWAP1 PUSH2 0x281F JUMP JUMPDEST POP PUSH0 DUP1 SHL DUP5 EQ ISZERO PUSH1 0x40 MLOAD DUP1 PUSH1 0x60 ADD PUSH1 0x40 MSTORE DUP1 PUSH1 0x24 DUP2 MSTORE PUSH1 0x20 ADD PUSH2 0x2C28 PUSH1 0x24 SWAP2 CODECOPY SWAP1 PUSH2 0x1436 JUMPI PUSH1 0x40 MLOAD PUSH3 0x461BCD PUSH1 0xE5 SHL DUP2 MSTORE PUSH1 0x4 ADD PUSH2 0x3F7 SWAP2 SWAP1 PUSH2 0x281F JUMP JUMPDEST POP PUSH0 DUP2 GT PUSH1 0x40 MLOAD DUP1 PUSH1 0x60 ADD PUSH1 0x40 MSTORE DUP1 PUSH1 0x24 DUP2 MSTORE PUSH1 0x20 ADD PUSH2 0x2B01 PUSH1 0x24 SWAP2 CODECOPY SWAP1 PUSH2 0x1471 JUMPI PUSH1 0x40 MLOAD PUSH3 0x461BCD PUSH1 0xE5 SHL DUP2 MSTORE PUSH1 0x4 ADD PUSH2 0x3F7 SWAP2 SWAP1 PUSH2 0x281F JUMP JUMPDEST POP PUSH0 DUP3 MLOAD GT PUSH1 0x40 MLOAD DUP1 PUSH1 0x60 ADD PUSH1 0x40 MSTORE DUP1 PUSH1 0x24 DUP2 MSTORE PUSH1 0x20 ADD PUSH2 0x2B6C PUSH1 0x24 SWAP2 CODECOPY SWAP1 PUSH2 0x14AD JUMPI PUSH1 0x40 MLOAD PUSH3 0x461BCD PUSH1 0xE5 SHL DUP2 MSTORE PUSH1 0x4 ADD PUSH2 0x3F7 SWAP2 SWAP1 PUSH2 0x281F JUMP JUMPDEST POP CALLER PUSH0 DUP2 DUP2 MSTORE PUSH1 0x8 PUSH1 0x20 DUP2 DUP2 MSTORE PUSH1 0x40 DUP1 DUP5 KECCAK256 DUP2 MLOAD PUSH2 0x100 DUP2 ADD DUP4 MSTORE DUP9 DUP2 MSTORE DUP1 DUP5 ADD DUP14 SWAP1 MSTORE SWAP2 DUP3 ADD DUP12 SWAP1 MSTORE PUSH1 0x60 DUP3 ADD DUP11 SWAP1 MSTORE PUSH1 0x80 DUP3 ADD DUP8 SWAP1 MSTORE TIMESTAMP PUSH1 0xA0 DUP4 ADD DUP2 SWAP1 MSTORE PUSH1 0xC0 DUP4 ADD SWAP7 SWAP1 SWAP7 MSTORE PUSH1 0xE0 DUP3 ADD DUP10 SWAP1 MSTORE DUP1 SLOAD PUSH1 0x1 DUP2 ADD DUP3 SSTORE SWAP1 DUP6 MSTORE SWAP2 SWAP1 SWAP4 KECCAK256 DUP4 MLOAD SWAP2 SWAP1 SWAP3 MUL SWAP1 SWAP2 ADD SWAP1 DUP2 SWAP1 PUSH2 0x1521 SWAP1 DUP3 PUSH2 0x2907 JUMP JUMPDEST POP PUSH1 0x20 DUP3 ADD MLOAD PUSH1 0x1 DUP3 ADD SWAP1 PUSH2 0x1536 SWAP1 DUP3 PUSH2 0x2907 JUMP JUMPDEST POP PUSH1 0x40 DUP3 ADD MLOAD PUSH1 0x2 DUP3 ADD SWAP1 PUSH2 0x154B SWAP1 DUP3 PUSH2 0x2907 JUMP JUMPDEST POP PUSH1 0x60 DUP3 ADD MLOAD PUSH1 0x3 DUP3 ADD SSTORE PUSH1 0x80 DUP3 ADD MLOAD PUSH1 0x4 DUP3 ADD SSTORE PUSH1 0xA0 DUP3 ADD MLOAD PUSH1 0x5 DUP3 ADD SSTORE PUSH1 0xC0 DUP3 ADD MLOAD PUSH1 0x6 DUP3 ADD DUP1 SLOAD PUSH1 0x1 PUSH1 0x1 PUSH1 0xA0 SHL SUB NOT AND PUSH1 0x1 PUSH1 0x1 PUSH1 0xA0 SHL SUB SWAP1 SWAP3 AND SWAP2 SWAP1 SWAP2 OR SWAP1 SSTORE PUSH1 0xE0 DUP3 ADD MLOAD PUSH1 0x7 DUP3 ADD SWAP1 PUSH2 0x15A4 SWAP1 DUP3 PUSH2 0x2907 JUMP JUMPDEST POP POP POP PUSH32 0x557BCCC5A98151EF59A421E190011AA3F6B5DC4AC2FD42FBA79D158CE0C68AC1 DUP4 DUP9 DUP9 DUP9 DUP7 DUP7 CALLER PUSH1 0x40 MLOAD PUSH2 0x15E2 SWAP8 SWAP7 SWAP6 SWAP5 SWAP4 SWAP3 SWAP2 SWAP1 PUSH2 0x2A14 JUMP JUMPDEST PUSH1 0x40 MLOAD DUP1 SWAP2 SUB SWAP1 LOG1 POP POP POP POP POP POP POP JUMP JUMPDEST PUSH0 DUP1 DUP3 MLOAD GT PUSH2 0x1644 JUMPI PUSH1 0x40 MLOAD PUSH3 0x461BCD PUSH1 0xE5 SHL DUP2 MSTORE PUSH1 0x20 PUSH1 0x4 DUP3 ADD MSTORE PUSH1 0x1C PUSH1 0x24 DUP3 ADD MSTORE PUSH32 0x67657446696C65486173683A20496E76616C6964205F66696C65496400000000 PUSH1 0x44 DUP3 ADD MSTORE PUSH1 0x64 ADD PUSH2 0x3F7 JUMP JUMPDEST PUSH1 0x2 DUP3 PUSH1 0x40 MLOAD PUSH2 0x1654 SWAP2 SWAP1 PUSH2 0x29F9 JUMP JUMPDEST SWAP1 DUP2 MSTORE PUSH1 0x20 ADD PUSH1 0x40 MLOAD DUP1 SWAP2 SUB SWAP1 KECCAK256 SLOAD SWAP1 POP SWAP2 SWAP1 POP JUMP JUMPDEST PUSH2 0x16B1 DUP4 DUP4 DUP4 PUSH1 0x40 MLOAD PUSH1 0x24 ADD PUSH2 0x1682 SWAP4 SWAP3 SWAP2 SWAP1 PUSH2 0x2A7C JUMP JUMPDEST PUSH1 0x40 DUP1 MLOAD PUSH1 0x1F NOT DUP2 DUP5 SUB ADD DUP2 MSTORE SWAP2 SWAP1 MSTORE PUSH1 0x20 DUP2 ADD DUP1 MLOAD PUSH1 0x1 PUSH1 0x1 PUSH1 0xE0 SHL SUB AND PUSH4 0xCA47C4EB PUSH1 0xE0 SHL OR SWAP1 MSTORE PUSH2 0x2073 JUMP JUMPDEST POP POP POP JUMP JUMPDEST PUSH1 0x5 SLOAD PUSH0 SWAP1 PUSH1 0x32 DUP2 DUP4 SUB PUSH2 0x16CE JUMPI PUSH0 SWAP3 POP POP POP PUSH2 0x9E2 JUMP JUMPDEST PUSH0 DUP3 PUSH2 0x16DB PUSH1 0x1 NUMBER PUSH2 0x2871 JUMP JUMPDEST PUSH2 0x16E6 SWAP2 SWAP1 BLOCKHASH PUSH2 0x2AA0 JUMP JUMPDEST SWAP1 POP PUSH0 DUP1 PUSH2 0x3E8 JUMPDEST DUP1 DUP3 LT ISZERO PUSH2 0x1822 JUMPI PUSH0 PUSH1 0x5 DUP8 PUSH2 0x1704 DUP7 DUP9 PUSH2 0x2ABF JUMP JUMPDEST PUSH2 0x170E SWAP2 SWAP1 PUSH2 0x2AA0 JUMP JUMPDEST DUP2 SLOAD DUP2 LT PUSH2 0x171E JUMPI PUSH2 0x171E PUSH2 0x2831 JUMP JUMPDEST PUSH0 SWAP2 DUP3 MSTORE PUSH1 0x20 SWAP2 DUP3 SWAP1 KECCAK256 ADD SLOAD PUSH1 0x40 MLOAD DUP8 DUP2 MSTORE PUSH1 0x1 PUSH1 0x1 PUSH1 0xA0 SHL SUB SWAP1 SWAP2 AND SWAP3 POP PUSH32 0x838D04243391D45D94A98FFF54D1737CBFFEA86C34AB825E5D6980EC9B77235 SWAP2 ADD PUSH1 0x40 MLOAD DUP1 SWAP2 SUB SWAP1 LOG1 PUSH2 0x1772 DUP7 DUP12 PUSH2 0x2ABF JUMP JUMPDEST PUSH1 0x1 PUSH1 0x1 PUSH1 0xA0 SHL SUB DUP3 AND PUSH0 SWAP1 DUP2 MSTORE PUSH1 0x3 PUSH1 0x20 MSTORE PUSH1 0x40 SWAP1 KECCAK256 PUSH1 0x1 ADD SLOAD GT ISZERO PUSH2 0x17F6 JUMPI PUSH1 0x1 PUSH0 JUMPDEST DUP11 MLOAD DUP2 LT ISZERO PUSH2 0x17DE JUMPI DUP3 PUSH1 0x1 PUSH1 0x1 PUSH1 0xA0 SHL SUB AND DUP12 DUP3 DUP2 MLOAD DUP2 LT PUSH2 0x17BC JUMPI PUSH2 0x17BC PUSH2 0x2831 JUMP JUMPDEST PUSH1 0x20 MUL PUSH1 0x20 ADD ADD MLOAD PUSH1 0x1 PUSH1 0x1 PUSH1 0xA0 SHL SUB AND SUB PUSH2 0x17D6 JUMPI PUSH0 SWAP2 POP JUMPDEST PUSH1 0x1 ADD PUSH2 0x1797 JUMP JUMPDEST POP DUP1 ISZERO PUSH2 0x17F4 JUMPI POP SWAP7 POP PUSH2 0x9E2 SWAP6 POP POP POP POP POP POP JUMP JUMPDEST POP JUMPDEST DUP4 PUSH2 0x1800 DUP2 PUSH2 0x2859 JUMP JUMPDEST SWAP5 POP POP DUP3 DUP1 PUSH2 0x180E SWAP1 PUSH2 0x2859 JUMP JUMPDEST SWAP4 POP POP DUP7 DUP5 SUB PUSH2 0x181C JUMPI PUSH0 SWAP4 POP JUMPDEST POP PUSH2 0x16EE JUMP JUMPDEST POP PUSH0 SWAP9 SWAP8 POP POP POP POP POP POP POP POP JUMP JUMPDEST PUSH1 0x1 PUSH1 0x1 PUSH1 0xA0 SHL SUB DUP5 DUP2 AND PUSH0 SWAP1 DUP2 MSTORE PUSH1 0x3 PUSH1 0x20 MSTORE PUSH1 0x40 SWAP1 KECCAK256 SLOAD AND PUSH2 0x18BC JUMPI PUSH1 0x40 MLOAD PUSH3 0x461BCD PUSH1 0xE5 SHL DUP2 MSTORE PUSH1 0x20 PUSH1 0x4 DUP3 ADD MSTORE PUSH1 0x3C PUSH1 0x24 DUP3 ADD MSTORE PUSH32 0x73746F72654368756E6B496E4E6F64653A20496E76616C6964205F6E6F646541 PUSH1 0x44 DUP3 ADD MSTORE PUSH32 0x646472657373202D204E6F646520446F6573204E4F5420657869737400000000 PUSH1 0x64 DUP3 ADD MSTORE PUSH1 0x84 ADD PUSH2 0x3F7 JUMP JUMPDEST PUSH2 0x1934 DUP5 PUSH1 0x4 DUP5 PUSH1 0x40 MLOAD PUSH2 0x18D0 SWAP2 SWAP1 PUSH2 0x29F9 JUMP JUMPDEST SWAP1 DUP2 MSTORE PUSH1 0x40 DUP1 MLOAD SWAP2 DUP3 SWAP1 SUB PUSH1 0x20 SWAP1 DUP2 ADD DUP4 KECCAK256 DUP1 SLOAD DUP1 DUP4 MUL DUP6 ADD DUP4 ADD SWAP1 SWAP4 MSTORE DUP3 DUP5 MSTORE SWAP2 SWAP1 DUP4 ADD DUP3 DUP3 DUP1 ISZERO PUSH2 0x192A JUMPI PUSH1 0x20 MUL DUP3 ADD SWAP2 SWAP1 PUSH0 MSTORE PUSH1 0x20 PUSH0 KECCAK256 SWAP1 JUMPDEST DUP2 SLOAD PUSH1 0x1 PUSH1 0x1 PUSH1 0xA0 SHL SUB AND DUP2 MSTORE PUSH1 0x1 SWAP1 SWAP2 ADD SWAP1 PUSH1 0x20 ADD DUP1 DUP4 GT PUSH2 0x190C JUMPI JUMPDEST POP POP POP POP POP PUSH2 0x207C JUMP JUMPDEST PUSH2 0x11E0 JUMPI PUSH1 0x4 DUP3 PUSH1 0x40 MLOAD PUSH2 0x1948 SWAP2 SWAP1 PUSH2 0x29F9 JUMP JUMPDEST SWAP1 DUP2 MSTORE PUSH1 0x40 MLOAD SWAP1 DUP2 SWAP1 SUB PUSH1 0x20 SWAP1 DUP2 ADD SWAP1 SWAP2 KECCAK256 DUP1 SLOAD PUSH1 0x1 DUP2 ADD DUP3 SSTORE PUSH0 SWAP2 DUP3 MSTORE SWAP2 SWAP1 KECCAK256 ADD DUP1 SLOAD PUSH1 0x1 PUSH1 0x1 PUSH1 0xA0 SHL SUB DUP7 AND PUSH1 0x1 PUSH1 0x1 PUSH1 0xA0 SHL SUB NOT SWAP1 SWAP2 AND OR SWAP1 SSTORE POP POP POP POP JUMP JUMPDEST PUSH1 0x40 DUP1 MLOAD PUSH1 0x20 DUP2 ADD SWAP1 SWAP2 MSTORE PUSH0 DUP1 DUP3 MSTORE SWAP1 DUP2 JUMPDEST DUP4 MLOAD DUP2 LT ISZERO PUSH2 0x19EC JUMPI DUP2 DUP5 DUP3 DUP2 MLOAD DUP2 LT PUSH2 0x19B9 JUMPI PUSH2 0x19B9 PUSH2 0x2831 JUMP JUMPDEST PUSH1 0x20 MUL PUSH1 0x20 ADD ADD MLOAD PUSH1 0x40 MLOAD PUSH1 0x20 ADD PUSH2 0x19D2 SWAP3 SWAP2 SWAP1 PUSH2 0x2AD2 JUMP JUMPDEST PUSH1 0x40 DUP1 MLOAD PUSH1 0x1F NOT DUP2 DUP5 SUB ADD DUP2 MSTORE SWAP2 SWAP1 MSTORE SWAP2 POP PUSH1 0x1 ADD PUSH2 0x199D JUMP JUMPDEST POP DUP1 MLOAD PUSH1 0x20 SWAP1 SWAP2 ADD KECCAK256 SWAP3 SWAP2 POP POP JUMP JUMPDEST CALLER PUSH2 0x1A48 JUMPI PUSH1 0x40 MLOAD PUSH3 0x461BCD PUSH1 0xE5 SHL DUP2 MSTORE PUSH1 0x20 PUSH1 0x4 DUP3 ADD MSTORE PUSH1 0x1D PUSH1 0x24 DUP3 ADD MSTORE PUSH32 0x73746F726546696C65486173683A20496E76616C69642073656E646572000000 PUSH1 0x44 DUP3 ADD MSTORE PUSH1 0x64 ADD PUSH2 0x3F7 JUMP JUMPDEST DUP2 PUSH2 0x1A95 JUMPI PUSH1 0x40 MLOAD PUSH3 0x461BCD PUSH1 0xE5 SHL DUP2 MSTORE PUSH1 0x20 PUSH1 0x4 DUP3 ADD DUP2 SWAP1 MSTORE PUSH1 0x24 DUP3 ADD MSTORE PUSH32 0x73746F726546696C65486173683A20496E76616C6964205F66696C6548617368 PUSH1 0x44 DUP3 ADD MSTORE PUSH1 0x64 ADD PUSH2 0x3F7 JUMP JUMPDEST PUSH0 DUP2 MLOAD GT PUSH2 0x1AE5 JUMPI PUSH1 0x40 MLOAD PUSH3 0x461BCD PUSH1 0xE5 SHL DUP2 MSTORE PUSH1 0x20 PUSH1 0x4 DUP3 ADD MSTORE PUSH1 0x1E PUSH1 0x24 DUP3 ADD MSTORE PUSH32 0x73746F726546696C65486173683A20496E76616C6964205F66696C6549640000 PUSH1 0x44 DUP3 ADD MSTORE PUSH1 0x64 ADD PUSH2 0x3F7 JUMP JUMPDEST DUP2 PUSH1 0x2 DUP3 PUSH1 0x40 MLOAD PUSH2 0x1AF6 SWAP2 SWAP1 PUSH2 0x29F9 JUMP JUMPDEST SWAP1 DUP2 MSTORE PUSH1 0x40 MLOAD SWAP1 DUP2 SWAP1 SUB PUSH1 0x20 ADD SWAP1 KECCAK256 SSTORE POP POP JUMP JUMPDEST PUSH1 0x40 DUP1 MLOAD PUSH1 0x60 DUP2 DUP2 ADD SWAP1 SWAP3 MSTORE PUSH1 0x21 DUP1 DUP3 MSTORE CALLER ISZERO ISZERO SWAP2 SWAP1 PUSH2 0x2B90 PUSH1 0x20 DUP4 ADD CODECOPY SWAP1 PUSH2 0x1B46 JUMPI PUSH1 0x40 MLOAD PUSH3 0x461BCD PUSH1 0xE5 SHL DUP2 MSTORE PUSH1 0x4 ADD PUSH2 0x3F7 SWAP2 SWAP1 PUSH2 0x281F JUMP JUMPDEST POP CALLER PUSH0 SWAP1 DUP2 MSTORE PUSH1 0x8 PUSH1 0x20 SWAP1 DUP2 MSTORE PUSH1 0x40 DUP1 DUP4 KECCAK256 DUP1 SLOAD DUP3 MLOAD DUP2 DUP6 MUL DUP2 ADD DUP6 ADD SWAP1 SWAP4 MSTORE DUP1 DUP4 MSTORE SWAP2 SWAP4 SWAP1 SWAP3 DUP5 ADD JUMPDEST DUP3 DUP3 LT ISZERO PUSH2 0x1E15 JUMPI DUP4 DUP3 SWAP1 PUSH0 MSTORE PUSH1 0x20 PUSH0 KECCAK256 SWAP1 PUSH1 0x8 MUL ADD PUSH1 0x40 MLOAD DUP1 PUSH2 0x100 ADD PUSH1 0x40 MSTORE SWAP1 DUP2 PUSH0 DUP3 ADD DUP1 SLOAD PUSH2 0x1BA1 SWAP1 PUSH2 0x2884 JUMP JUMPDEST DUP1 PUSH1 0x1F ADD PUSH1 0x20 DUP1 SWAP2 DIV MUL PUSH1 0x20 ADD PUSH1 0x40 MLOAD SWAP1 DUP2 ADD PUSH1 0x40 MSTORE DUP1 SWAP3 SWAP2 SWAP1 DUP2 DUP2 MSTORE PUSH1 0x20 ADD DUP3 DUP1 SLOAD PUSH2 0x1BCD SWAP1 PUSH2 0x2884 JUMP JUMPDEST DUP1 ISZERO PUSH2 0x1C18 JUMPI DUP1 PUSH1 0x1F LT PUSH2 0x1BEF JUMPI PUSH2 0x100 DUP1 DUP4 SLOAD DIV MUL DUP4 MSTORE SWAP2 PUSH1 0x20 ADD SWAP2 PUSH2 0x1C18 JUMP JUMPDEST DUP3 ADD SWAP2 SWAP1 PUSH0 MSTORE PUSH1 0x20 PUSH0 KECCAK256 SWAP1 JUMPDEST DUP2 SLOAD DUP2 MSTORE SWAP1 PUSH1 0x1 ADD SWAP1 PUSH1 0x20 ADD DUP1 DUP4 GT PUSH2 0x1BFB JUMPI DUP3 SWAP1 SUB PUSH1 0x1F AND DUP3 ADD SWAP2 JUMPDEST POP POP POP POP POP DUP2 MSTORE PUSH1 0x20 ADD PUSH1 0x1 DUP3 ADD DUP1 SLOAD PUSH2 0x1C31 SWAP1 PUSH2 0x2884 JUMP JUMPDEST DUP1 PUSH1 0x1F ADD PUSH1 0x20 DUP1 SWAP2 DIV MUL PUSH1 0x20 ADD PUSH1 0x40 MLOAD SWAP1 DUP2 ADD PUSH1 0x40 MSTORE DUP1 SWAP3 SWAP2 SWAP1 DUP2 DUP2 MSTORE PUSH1 0x20 ADD DUP3 DUP1 SLOAD PUSH2 0x1C5D SWAP1 PUSH2 0x2884 JUMP JUMPDEST DUP1 ISZERO PUSH2 0x1CA8 JUMPI DUP1 PUSH1 0x1F LT PUSH2 0x1C7F JUMPI PUSH2 0x100 DUP1 DUP4 SLOAD DIV MUL DUP4 MSTORE SWAP2 PUSH1 0x20 ADD SWAP2 PUSH2 0x1CA8 JUMP JUMPDEST DUP3 ADD SWAP2 SWAP1 PUSH0 MSTORE PUSH1 0x20 PUSH0 KECCAK256 SWAP1 JUMPDEST DUP2 SLOAD DUP2 MSTORE SWAP1 PUSH1 0x1 ADD SWAP1 PUSH1 0x20 ADD DUP1 DUP4 GT PUSH2 0x1C8B JUMPI DUP3 SWAP1 SUB PUSH1 0x1F AND DUP3 ADD SWAP2 JUMPDEST POP POP POP POP POP DUP2 MSTORE PUSH1 0x20 ADD PUSH1 0x2 DUP3 ADD DUP1 SLOAD PUSH2 0x1CC1 SWAP1 PUSH2 0x2884 JUMP JUMPDEST DUP1 PUSH1 0x1F ADD PUSH1 0x20 DUP1 SWAP2 DIV MUL PUSH1 0x20 ADD PUSH1 0x40 MLOAD SWAP1 DUP2 ADD PUSH1 0x40 MSTORE DUP1 SWAP3 SWAP2 SWAP1 DUP2 DUP2 MSTORE PUSH1 0x20 ADD DUP3 DUP1 SLOAD PUSH2 0x1CED SWAP1 PUSH2 0x2884 JUMP JUMPDEST DUP1 ISZERO PUSH2 0x1D38 JUMPI DUP1 PUSH1 0x1F LT PUSH2 0x1D0F JUMPI PUSH2 0x100 DUP1 DUP4 SLOAD DIV MUL DUP4 MSTORE SWAP2 PUSH1 0x20 ADD SWAP2 PUSH2 0x1D38 JUMP JUMPDEST DUP3 ADD SWAP2 SWAP1 PUSH0 MSTORE PUSH1 0x20 PUSH0 KECCAK256 SWAP1 JUMPDEST DUP2 SLOAD DUP2 MSTORE SWAP1 PUSH1 0x1 ADD SWAP1 PUSH1 0x20 ADD DUP1 DUP4 GT PUSH2 0x1D1B JUMPI DUP3 SWAP1 SUB PUSH1 0x1F AND DUP3 ADD SWAP2 JUMPDEST POP POP POP SWAP2 DUP4 MSTORE POP POP PUSH1 0x3 DUP3 ADD SLOAD PUSH1 0x20 DUP3 ADD MSTORE PUSH1 0x4 DUP3 ADD SLOAD PUSH1 0x40 DUP3 ADD MSTORE PUSH1 0x5 DUP3 ADD SLOAD PUSH1 0x60 DUP3 ADD MSTORE PUSH1 0x6 DUP3 ADD SLOAD PUSH1 0x1 PUSH1 0x1 PUSH1 0xA0 SHL SUB AND PUSH1 0x80 DUP3 ADD MSTORE PUSH1 0x7 DUP3 ADD DUP1 SLOAD PUSH1 0xA0 SWAP1 SWAP3 ADD SWAP2 PUSH2 0x1D86 SWAP1 PUSH2 0x2884 JUMP JUMPDEST DUP1 PUSH1 0x1F ADD PUSH1 0x20 DUP1 SWAP2 DIV MUL PUSH1 0x20 ADD PUSH1 0x40 MLOAD SWAP1 DUP2 ADD PUSH1 0x40 MSTORE DUP1 SWAP3 SWAP2 SWAP1 DUP2 DUP2 MSTORE PUSH1 0x20 ADD DUP3 DUP1 SLOAD PUSH2 0x1DB2 SWAP1 PUSH2 0x2884 JUMP JUMPDEST DUP1 ISZERO PUSH2 0x1DFD JUMPI DUP1 PUSH1 0x1F LT PUSH2 0x1DD4 JUMPI PUSH2 0x100 DUP1 DUP4 SLOAD DIV MUL DUP4 MSTORE SWAP2 PUSH1 0x20 ADD SWAP2 PUSH2 0x1DFD JUMP JUMPDEST DUP3 ADD SWAP2 SWAP1 PUSH0 MSTORE PUSH1 0x20 PUSH0 KECCAK256 SWAP1 JUMPDEST DUP2 SLOAD DUP2 MSTORE SWAP1 PUSH1 0x1 ADD SWAP1 PUSH1 0x20 ADD DUP1 DUP4 GT PUSH2 0x1DE0 JUMPI DUP3 SWAP1 SUB PUSH1 0x1F AND DUP3 ADD SWAP2 JUMPDEST POP POP POP POP POP DUP2 MSTORE POP POP DUP2 MSTORE PUSH1 0x20 ADD SWAP1 PUSH1 0x1 ADD SWAP1 PUSH2 0x1B70 JUMP JUMPDEST POP POP POP POP SWAP1 POP SWAP1 JUMP JUMPDEST PUSH0 DUP2 PUSH1 0x40 MLOAD PUSH1 0x20 ADD PUSH2 0x1E30 SWAP2 SWAP1 PUSH2 0x29F9 JUMP JUMPDEST PUSH1 0x40 MLOAD PUSH1 0x20 DUP2 DUP4 SUB SUB DUP2 MSTORE SWAP1 PUSH1 0x40 MSTORE DUP1 MLOAD SWAP1 PUSH1 0x20 ADD KECCAK256 DUP4 PUSH1 0x40 MLOAD PUSH1 0x20 ADD PUSH2 0x1E57 SWAP2 SWAP1 PUSH2 0x29F9 JUMP JUMPDEST PUSH1 0x40 MLOAD PUSH1 0x20 DUP2 DUP4 SUB SUB DUP2 MSTORE SWAP1 PUSH1 0x40 MSTORE DUP1 MLOAD SWAP1 PUSH1 0x20 ADD KECCAK256 EQ SWAP1 POP SWAP3 SWAP2 POP POP JUMP JUMPDEST PUSH0 PUSH1 0x2 DUP3 PUSH1 0x40 MLOAD PUSH2 0x1E87 SWAP2 SWAP1 PUSH2 0x29F9 JUMP JUMPDEST SWAP1 DUP2 MSTORE PUSH1 0x20 ADD PUSH1 0x40 MLOAD DUP1 SWAP2 SUB SWAP1 KECCAK256 SLOAD DUP4 EQ SWAP1 POP SWAP3 SWAP2 POP POP JUMP JUMPDEST PUSH0 DUP2 MLOAD GT PUSH2 0x1EFB JUMPI PUSH1 0x40 MLOAD PUSH3 0x461BCD PUSH1 0xE5 SHL DUP2 MSTORE PUSH1 0x20 PUSH1 0x4 DUP3 ADD MSTORE PUSH1 0x22 PUSH1 0x24 DUP3 ADD MSTORE PUSH32 0x64656C6574654368756E6B496E4E6F64653A20496E76616C6964205F66696C65 PUSH1 0x44 DUP3 ADD MSTORE PUSH2 0x1259 PUSH1 0xF2 SHL PUSH1 0x64 DUP3 ADD MSTORE PUSH1 0x84 ADD PUSH2 0x3F7 JUMP JUMPDEST PUSH1 0x4 DUP2 PUSH1 0x40 MLOAD PUSH2 0x1F0B SWAP2 SWAP1 PUSH2 0x29F9 JUMP JUMPDEST SWAP1 DUP2 MSTORE PUSH1 0x20 ADD PUSH1 0x40 MLOAD DUP1 SWAP2 SUB SWAP1 KECCAK256 PUSH0 PUSH2 0x1203 SWAP2 SWAP1 PUSH2 0x20F4 JUMP JUMPDEST PUSH0 DUP2 MLOAD GT PUSH2 0x1F74 JUMPI PUSH1 0x40 MLOAD PUSH3 0x461BCD PUSH1 0xE5 SHL DUP2 MSTORE PUSH1 0x20 PUSH1 0x4 DUP3 ADD MSTORE PUSH1 0x1F PUSH1 0x24 DUP3 ADD MSTORE PUSH32 0x64656C65746546696C65486173683A20496E76616C6964205F66696C65496400 PUSH1 0x44 DUP3 ADD MSTORE PUSH1 0x64 ADD PUSH2 0x3F7 JUMP JUMPDEST PUSH0 DUP1 SHL PUSH1 0x2 DUP3 PUSH1 0x40 MLOAD PUSH2 0x1F87 SWAP2 SWAP1 PUSH2 0x29F9 JUMP JUMPDEST SWAP1 DUP2 MSTORE PUSH1 0x20 ADD PUSH1 0x40 MLOAD DUP1 SWAP2 SUB SWAP1 KECCAK256 SLOAD SUB PUSH2 0x1FEF JUMPI PUSH1 0x40 MLOAD PUSH3 0x461BCD PUSH1 0xE5 SHL DUP2 MSTORE PUSH1 0x20 PUSH1 0x4 DUP3 ADD MSTORE PUSH1 0x24 DUP1 DUP3 ADD MSTORE PUSH32 0x64656C65746546696C65486173683A20496E76616C69642066696C654964546F PUSH1 0x44 DUP3 ADD MSTORE PUSH4 0x90C2E6D PUSH1 0xE3 SHL PUSH1 0x64 DUP3 ADD MSTORE PUSH1 0x84 ADD PUSH2 0x3F7 JUMP JUMPDEST PUSH1 0x2 DUP2 PUSH1 0x40 MLOAD PUSH2 0x1FFF SWAP2 SWAP1 PUSH2 0x29F9 JUMP JUMPDEST SWAP1 DUP2 MSTORE PUSH1 0x20 ADD PUSH1 0x40 MLOAD DUP1 SWAP2 SUB SWAP1 KECCAK256 PUSH0 SWAP1 SSTORE POP JUMP JUMPDEST PUSH1 0x60 PUSH1 0x5 DUP1 SLOAD DUP1 PUSH1 0x20 MUL PUSH1 0x20 ADD PUSH1 0x40 MLOAD SWAP1 DUP2 ADD PUSH1 0x40 MSTORE DUP1 SWAP3 SWAP2 SWAP1 DUP2 DUP2 MSTORE PUSH1 0x20 ADD DUP3 DUP1 SLOAD DUP1 ISZERO PUSH2 0x2069 JUMPI PUSH1 0x20 MUL DUP3 ADD SWAP2 SWAP1 PUSH0 MSTORE PUSH1 0x20 PUSH0 KECCAK256 SWAP1 JUMPDEST DUP2 SLOAD PUSH1 0x1 PUSH1 0x1 PUSH1 0xA0 SHL SUB AND DUP2 MSTORE PUSH1 0x1 SWAP1 SWAP2 ADD SWAP1 PUSH1 0x20 ADD DUP1 DUP4 GT PUSH2 0x204B JUMPI JUMPDEST POP POP POP POP POP SWAP1 POP SWAP1 JUMP JUMPDEST PUSH2 0x1203 DUP2 PUSH2 0x20D5 JUMP JUMPDEST PUSH0 DUP1 JUMPDEST DUP3 MLOAD DUP2 LT ISZERO PUSH2 0x20CC JUMPI DUP4 PUSH1 0x1 PUSH1 0x1 PUSH1 0xA0 SHL SUB AND DUP4 DUP3 DUP2 MLOAD DUP2 LT PUSH2 0x20A4 JUMPI PUSH2 0x20A4 PUSH2 0x2831 JUMP JUMPDEST PUSH1 0x20 MUL PUSH1 0x20 ADD ADD MLOAD PUSH1 0x1 PUSH1 0x1 PUSH1 0xA0 SHL SUB AND SUB PUSH2 0x20C4 JUMPI PUSH1 0x1 SWAP2 POP POP PUSH2 0x9E2 JUMP JUMPDEST PUSH1 0x1 ADD PUSH2 0x207F JUMP JUMPDEST POP PUSH0 SWAP4 SWAP3 POP POP POP JUMP JUMPDEST PUSH0 PUSH11 0x636F6E736F6C652E6C6F67 SWAP1 POP PUSH0 DUP1 DUP4 MLOAD PUSH1 0x20 DUP6 ADD DUP5 GAS STATICCALL POP POP POP JUMP JUMPDEST POP DUP1 SLOAD PUSH0 DUP3 SSTORE SWAP1 PUSH0 MSTORE PUSH1 0x20 PUSH0 KECCAK256 SWAP1 DUP2 ADD SWAP1 PUSH2 0x1203 SWAP2 SWAP1 PUSH2 0x21AF JUMP JUMPDEST PUSH1 0x40 MLOAD DUP1 PUSH1 0x40 ADD PUSH1 0x40 MSTORE DUP1 PUSH2 0x2122 PUSH2 0x212F JUMP JUMPDEST DUP2 MSTORE PUSH1 0x20 ADD PUSH1 0x60 DUP2 MSTORE POP SWAP1 JUMP JUMPDEST PUSH1 0x40 MLOAD DUP1 PUSH2 0x100 ADD PUSH1 0x40 MSTORE DUP1 PUSH1 0x60 DUP2 MSTORE PUSH1 0x20 ADD PUSH1 0x60 DUP2 MSTORE PUSH1 0x20 ADD PUSH1 0x60 DUP2 MSTORE PUSH1 0x20 ADD PUSH0 DUP1 NOT AND DUP2 MSTORE PUSH1 0x20 ADD PUSH0 DUP2 MSTORE PUSH1 0x20 ADD PUSH0 DUP2 MSTORE PUSH1 0x20 ADD PUSH0 PUSH1 0x1 PUSH1 0x1 PUSH1 0xA0 SHL SUB AND DUP2 MSTORE PUSH1 0x20 ADD PUSH1 0x60 DUP2 MSTORE POP SWAP1 JUMP JUMPDEST POP DUP1 SLOAD PUSH2 0x2188 SWAP1 PUSH2 0x2884 JUMP JUMPDEST PUSH0 DUP3 SSTORE DUP1 PUSH1 0x1F LT PUSH2 0x2197 JUMPI POP POP JUMP JUMPDEST PUSH1 0x1F ADD PUSH1 0x20 SWAP1 DIV SWAP1 PUSH0 MSTORE PUSH1 0x20 PUSH0 KECCAK256 SWAP1 DUP2 ADD SWAP1 PUSH2 0x1203 SWAP2 SWAP1 JUMPDEST JUMPDEST DUP1 DUP3 GT ISZERO PUSH2 0x21C3 JUMPI PUSH0 DUP2 SSTORE PUSH1 0x1 ADD PUSH2 0x21B0 JUMP JUMPDEST POP SWAP1 JUMP JUMPDEST DUP1 CALLDATALOAD PUSH1 0x1 PUSH1 0x1 PUSH1 0xA0 SHL SUB DUP2 AND DUP2 EQ PUSH2 0x21DD JUMPI PUSH0 DUP1 REVERT JUMPDEST SWAP2 SWAP1 POP JUMP JUMPDEST PUSH0 DUP1 PUSH1 0x40 DUP4 DUP6 SUB SLT ISZERO PUSH2 0x21F3 JUMPI PUSH0 DUP1 REVERT JUMPDEST PUSH2 0x21FC DUP4 PUSH2 0x21C7 JUMP JUMPDEST SWAP5 PUSH1 0x20 SWAP4 SWAP1 SWAP4 ADD CALLDATALOAD SWAP4 POP POP POP JUMP JUMPDEST PUSH0 PUSH1 0x20 DUP3 DUP5 SUB SLT ISZERO PUSH2 0x221A JUMPI PUSH0 DUP1 REVERT JUMPDEST PUSH2 0xA02 DUP3 PUSH2 0x21C7 JUMP JUMPDEST PUSH4 0x4E487B71 PUSH1 0xE0 SHL PUSH0 MSTORE PUSH1 0x41 PUSH1 0x4 MSTORE PUSH1 0x24 PUSH0 REVERT JUMPDEST PUSH1 0x40 MLOAD PUSH1 0x1F DUP3 ADD PUSH1 0x1F NOT AND DUP2 ADD PUSH1 0x1 PUSH1 0x1 PUSH1 0x40 SHL SUB DUP2 GT DUP3 DUP3 LT OR ISZERO PUSH2 0x225F JUMPI PUSH2 0x225F PUSH2 0x2223 JUMP JUMPDEST PUSH1 0x40 MSTORE SWAP2 SWAP1 POP JUMP JUMPDEST PUSH0 DUP3 PUSH1 0x1F DUP4 ADD SLT PUSH2 0x2276 JUMPI PUSH0 DUP1 REVERT JUMPDEST DUP2 CALLDATALOAD PUSH1 0x1 PUSH1 0x1 PUSH1 0x40 SHL SUB DUP2 GT ISZERO PUSH2 0x228F JUMPI PUSH2 0x228F PUSH2 0x2223 JUMP JUMPDEST PUSH2 0x22A2 PUSH1 0x1F DUP3 ADD PUSH1 0x1F NOT AND PUSH1 0x20 ADD PUSH2 0x2237 JUMP JUMPDEST DUP2 DUP2 MSTORE DUP5 PUSH1 0x20 DUP4 DUP7 ADD ADD GT ISZERO PUSH2 0x22B6 JUMPI PUSH0 DUP1 REVERT JUMPDEST DUP2 PUSH1 0x20 DUP6 ADD PUSH1 0x20 DUP4 ADD CALLDATACOPY PUSH0 SWAP2 DUP2 ADD PUSH1 0x20 ADD SWAP2 SWAP1 SWAP2 MSTORE SWAP4 SWAP3 POP POP POP JUMP JUMPDEST PUSH0 DUP1 PUSH0 DUP1 PUSH0 DUP1 PUSH1 0xC0 DUP8 DUP10 SUB SLT ISZERO PUSH2 0x22E7 JUMPI PUSH0 DUP1 REVERT JUMPDEST DUP7 CALLDATALOAD PUSH1 0x1 PUSH1 0x1 PUSH1 0x40 SHL SUB DUP1 DUP3 GT ISZERO PUSH2 0x22FD JUMPI PUSH0 DUP1 REVERT JUMPDEST PUSH2 0x2309 DUP11 DUP4 DUP12 ADD PUSH2 0x2267 JUMP JUMPDEST SWAP8 POP PUSH1 0x20 DUP10 ADD CALLDATALOAD SWAP2 POP DUP1 DUP3 GT ISZERO PUSH2 0x231E JUMPI PUSH0 DUP1 REVERT JUMPDEST PUSH2 0x232A DUP11 DUP4 DUP12 ADD PUSH2 0x2267 JUMP JUMPDEST SWAP7 POP PUSH1 0x40 DUP10 ADD CALLDATALOAD SWAP6 POP PUSH1 0x60 DUP10 ADD CALLDATALOAD SWAP2 POP DUP1 DUP3 GT ISZERO PUSH2 0x2346 JUMPI PUSH0 DUP1 REVERT JUMPDEST PUSH2 0x2352 DUP11 DUP4 DUP12 ADD PUSH2 0x2267 JUMP JUMPDEST SWAP5 POP PUSH1 0x80 DUP10 ADD CALLDATALOAD SWAP2 POP DUP1 DUP3 GT ISZERO PUSH2 0x2367 JUMPI PUSH0 DUP1 REVERT JUMPDEST POP PUSH2 0x2374 DUP10 DUP3 DUP11 ADD PUSH2 0x2267 JUMP JUMPDEST SWAP3 POP POP PUSH1 0xA0 DUP8 ADD CALLDATALOAD SWAP1 POP SWAP3 SWAP6 POP SWAP3 SWAP6 POP SWAP3 SWAP6 JUMP JUMPDEST PUSH0 DUP1 PUSH1 0x40 DUP4 DUP6 SUB SLT ISZERO PUSH2 0x2399 JUMPI PUSH0 DUP1 REVERT JUMPDEST DUP3 CALLDATALOAD PUSH1 0x1 PUSH1 0x1 PUSH1 0x40 SHL SUB DUP2 GT ISZERO PUSH2 0x23AE JUMPI PUSH0 DUP1 REVERT JUMPDEST PUSH2 0x23BA DUP6 DUP3 DUP7 ADD PUSH2 0x2267 JUMP JUMPDEST SWAP6 PUSH1 0x20 SWAP5 SWAP1 SWAP5 ADD CALLDATALOAD SWAP5 POP POP POP POP JUMP JUMPDEST PUSH1 0x1 PUSH1 0x1 PUSH1 0xA0 SHL SUB SWAP2 SWAP1 SWAP2 AND DUP2 MSTORE PUSH1 0x20 ADD SWAP1 JUMP JUMPDEST PUSH0 DUP3 PUSH1 0x1F DUP4 ADD SLT PUSH2 0x23EC JUMPI PUSH0 DUP1 REVERT JUMPDEST DUP2 CALLDATALOAD PUSH1 0x20 PUSH1 0x1 PUSH1 0x1 PUSH1 0x40 SHL SUB DUP1 DUP4 GT ISZERO PUSH2 0x2408 JUMPI PUSH2 0x2408 PUSH2 0x2223 JUMP JUMPDEST DUP3 PUSH1 0x5 SHL PUSH2 0x2417 DUP4 DUP3 ADD PUSH2 0x2237 JUMP JUMPDEST SWAP4 DUP5 MSTORE DUP6 DUP2 ADD DUP4 ADD SWAP4 DUP4 DUP2 ADD SWAP1 DUP9 DUP7 GT ISZERO PUSH2 0x2430 JUMPI PUSH0 DUP1 REVERT JUMPDEST DUP5 DUP9 ADD SWAP3 POP JUMPDEST DUP6 DUP4 LT ISZERO PUSH2 0x246A JUMPI DUP3 CALLDATALOAD DUP5 DUP2 GT ISZERO PUSH2 0x244C JUMPI PUSH0 DUP1 REVERT JUMPDEST PUSH2 0x245A DUP11 DUP8 DUP4 DUP13 ADD ADD PUSH2 0x2267 JUMP JUMPDEST DUP4 MSTORE POP SWAP2 DUP5 ADD SWAP2 SWAP1 DUP5 ADD SWAP1 PUSH2 0x2436 JUMP JUMPDEST SWAP9 SWAP8 POP POP POP POP POP POP POP POP JUMP JUMPDEST PUSH0 DUP1 PUSH0 DUP1 PUSH0 DUP1 PUSH1 0xC0 DUP8 DUP10 SUB SLT ISZERO PUSH2 0x248B JUMPI PUSH0 DUP1 REVERT JUMPDEST DUP7 CALLDATALOAD PUSH1 0x1 PUSH1 0x1 PUSH1 0x40 SHL SUB DUP1 DUP3 GT ISZERO PUSH2 0x24A1 JUMPI PUSH0 DUP1 REVERT JUMPDEST PUSH2 0x24AD DUP11 DUP4 DUP12 ADD PUSH2 0x23DD JUMP JUMPDEST SWAP8 POP PUSH1 0x20 DUP10 ADD CALLDATALOAD SWAP2 POP DUP1 DUP3 GT ISZERO PUSH2 0x24C2 JUMPI PUSH0 DUP1 REVERT JUMPDEST PUSH2 0x24CE DUP11 DUP4 DUP12 ADD PUSH2 0x2267 JUMP JUMPDEST SWAP7 POP PUSH1 0x40 DUP10 ADD CALLDATALOAD SWAP2 POP DUP1 DUP3 GT ISZERO PUSH2 0x24E3 JUMPI PUSH0 DUP1 REVERT JUMPDEST PUSH2 0x24EF DUP11 DUP4 DUP12 ADD PUSH2 0x2267 JUMP JUMPDEST SWAP6 POP PUSH1 0x60 DUP10 ADD CALLDATALOAD SWAP2 POP DUP1 DUP3 GT ISZERO PUSH2 0x2346 JUMPI PUSH0 DUP1 REVERT JUMPDEST PUSH0 PUSH1 0x20 DUP3 DUP5 SUB SLT ISZERO PUSH2 0x2514 JUMPI PUSH0 DUP1 REVERT JUMPDEST DUP2 CALLDATALOAD PUSH1 0x1 PUSH1 0x1 PUSH1 0x40 SHL SUB DUP2 GT ISZERO PUSH2 0x2529 JUMPI PUSH0 DUP1 REVERT JUMPDEST PUSH2 0x2535 DUP5 DUP3 DUP6 ADD PUSH2 0x2267 JUMP JUMPDEST SWAP5 SWAP4 POP POP POP POP JUMP JUMPDEST PUSH0 JUMPDEST DUP4 DUP2 LT ISZERO PUSH2 0x2557 JUMPI DUP2 DUP2 ADD MLOAD DUP4 DUP3 ADD MSTORE PUSH1 0x20 ADD PUSH2 0x253F JUMP JUMPDEST POP POP PUSH0 SWAP2 ADD MSTORE JUMP JUMPDEST PUSH0 DUP2 MLOAD DUP1 DUP5 MSTORE PUSH2 0x2576 DUP2 PUSH1 0x20 DUP7 ADD PUSH1 0x20 DUP7 ADD PUSH2 0x253D JUMP JUMPDEST PUSH1 0x1F ADD PUSH1 0x1F NOT AND SWAP3 SWAP1 SWAP3 ADD PUSH1 0x20 ADD SWAP3 SWAP2 POP POP JUMP JUMPDEST PUSH0 PUSH2 0x100 DUP3 MLOAD DUP2 DUP6 MSTORE PUSH2 0x259F DUP3 DUP7 ADD DUP3 PUSH2 0x255F JUMP JUMPDEST SWAP2 POP POP PUSH1 0x20 DUP4 ADD MLOAD DUP5 DUP3 SUB PUSH1 0x20 DUP7 ADD MSTORE PUSH2 0x25B9 DUP3 DUP3 PUSH2 0x255F JUMP JUMPDEST SWAP2 POP POP PUSH1 0x40 DUP4 ADD MLOAD DUP5 DUP3 SUB PUSH1 0x40 DUP7 ADD MSTORE PUSH2 0x25D3 DUP3 DUP3 PUSH2 0x255F JUMP JUMPDEST SWAP2 POP POP PUSH1 0x60 DUP4 ADD MLOAD PUSH1 0x60 DUP6 ADD MSTORE PUSH1 0x80 DUP4 ADD MLOAD PUSH1 0x80 DUP6 ADD MSTORE PUSH1 0xA0 DUP4 ADD MLOAD PUSH1 0xA0 DUP6 ADD MSTORE PUSH1 0xC0 DUP4 ADD MLOAD PUSH2 0x260E PUSH1 0xC0 DUP7 ADD DUP3 PUSH1 0x1 PUSH1 0x1 PUSH1 0xA0 SHL SUB AND SWAP1 MSTORE JUMP JUMPDEST POP PUSH1 0xE0 DUP4 ADD MLOAD DUP5 DUP3 SUB PUSH1 0xE0 DUP7 ADD MSTORE PUSH2 0x2626 DUP3 DUP3 PUSH2 0x255F JUMP JUMPDEST SWAP6 SWAP5 POP POP POP POP POP JUMP JUMPDEST PUSH0 DUP2 MLOAD DUP1 DUP5 MSTORE PUSH1 0x20 DUP1 DUP6 ADD SWAP5 POP PUSH1 0x20 DUP5 ADD PUSH0 JUMPDEST DUP4 DUP2 LT ISZERO PUSH2 0x2667 JUMPI DUP2 MLOAD PUSH1 0x1 PUSH1 0x1 PUSH1 0xA0 SHL SUB AND DUP8 MSTORE SWAP6 DUP3 ADD SWAP6 SWAP1 DUP3 ADD SWAP1 PUSH1 0x1 ADD PUSH2 0x2642 JUMP JUMPDEST POP SWAP5 SWAP6 SWAP5 POP POP POP POP POP JUMP JUMPDEST PUSH1 0x20 DUP2 MSTORE PUSH0 DUP3 MLOAD PUSH1 0x40 PUSH1 0x20 DUP5 ADD MSTORE PUSH2 0x268D PUSH1 0x60 DUP5 ADD DUP3 PUSH2 0x258A JUMP JUMPDEST SWAP1 POP PUSH1 0x20 DUP5 ADD MLOAD PUSH1 0x1F NOT DUP5 DUP4 SUB ADD PUSH1 0x40 DUP6 ADD MSTORE PUSH2 0x2626 DUP3 DUP3 PUSH2 0x262F JUMP JUMPDEST PUSH0 PUSH1 0x20 DUP1 DUP4 ADD PUSH1 0x20 DUP5 MSTORE DUP1 DUP6 MLOAD DUP1 DUP4 MSTORE PUSH1 0x40 DUP7 ADD SWAP2 POP PUSH1 0x40 DUP2 PUSH1 0x5 SHL DUP8 ADD ADD SWAP3 POP PUSH1 0x20 DUP8 ADD PUSH0 JUMPDEST DUP3 DUP2 LT ISZERO PUSH2 0x26FF JUMPI PUSH1 0x3F NOT DUP9 DUP7 SUB ADD DUP5 MSTORE PUSH2 0x26ED DUP6 DUP4 MLOAD PUSH2 0x258A JUMP JUMPDEST SWAP5 POP SWAP3 DUP6 ADD SWAP3 SWAP1 DUP6 ADD SWAP1 PUSH1 0x1 ADD PUSH2 0x26D1 JUMP JUMPDEST POP SWAP3 SWAP8 SWAP7 POP POP POP POP POP POP POP JUMP JUMPDEST PUSH0 DUP1 PUSH1 0x40 DUP4 DUP6 SUB SLT ISZERO PUSH2 0x271D JUMPI PUSH0 DUP1 REVERT JUMPDEST DUP3 CALLDATALOAD SWAP2 POP PUSH1 0x20 DUP4 ADD CALLDATALOAD PUSH1 0x1 PUSH1 0x1 PUSH1 0x40 SHL SUB DUP2 GT ISZERO PUSH2 0x2739 JUMPI PUSH0 DUP1 REVERT JUMPDEST PUSH2 0x2745 DUP6 DUP3 DUP7 ADD PUSH2 0x2267 JUMP JUMPDEST SWAP2 POP POP SWAP3 POP SWAP3 SWAP1 POP JUMP JUMPDEST PUSH1 0x20 DUP2 MSTORE PUSH0 PUSH2 0xA02 PUSH1 0x20 DUP4 ADD DUP5 PUSH2 0x262F JUMP JUMPDEST PUSH0 DUP1 PUSH0 DUP1 PUSH1 0x80 DUP6 DUP8 SUB SLT ISZERO PUSH2 0x2774 JUMPI PUSH0 DUP1 REVERT JUMPDEST PUSH2 0x277D DUP6 PUSH2 0x21C7 JUMP JUMPDEST SWAP4 POP PUSH1 0x20 DUP6 ADD CALLDATALOAD PUSH1 0x1 PUSH1 0x1 PUSH1 0x40 SHL SUB DUP1 DUP3 GT ISZERO PUSH2 0x2798 JUMPI PUSH0 DUP1 REVERT JUMPDEST PUSH2 0x27A4 DUP9 DUP4 DUP10 ADD PUSH2 0x2267 JUMP JUMPDEST SWAP5 POP PUSH1 0x40 DUP8 ADD CALLDATALOAD SWAP2 POP DUP1 DUP3 GT ISZERO PUSH2 0x27B9 JUMPI PUSH0 DUP1 REVERT JUMPDEST POP PUSH2 0x27C6 DUP8 DUP3 DUP9 ADD PUSH2 0x2267 JUMP JUMPDEST SWAP5 SWAP8 SWAP4 SWAP7 POP SWAP4 SWAP5 PUSH1 0x60 ADD CALLDATALOAD SWAP4 POP POP POP JUMP JUMPDEST PUSH0 PUSH1 0x20 DUP3 DUP5 SUB SLT ISZERO PUSH2 0x27E7 JUMPI PUSH0 DUP1 REVERT JUMPDEST DUP2 CALLDATALOAD PUSH1 0x1 PUSH1 0x1 PUSH1 0x40 SHL SUB DUP2 GT ISZERO PUSH2 0x27FC JUMPI PUSH0 DUP1 REVERT JUMPDEST PUSH2 0x2535 DUP5 DUP3 DUP6 ADD PUSH2 0x23DD JUMP JUMPDEST PUSH0 PUSH1 0x20 DUP3 DUP5 SUB SLT ISZERO PUSH2 0x2818 JUMPI PUSH0 DUP1 REVERT JUMPDEST POP CALLDATALOAD SWAP2 SWAP1 POP JUMP JUMPDEST PUSH1 0x20 DUP2 MSTORE PUSH0 PUSH2 0xA02 PUSH1 0x20 DUP4 ADD DUP5 PUSH2 0x255F JUMP JUMPDEST PUSH4 0x4E487B71 PUSH1 0xE0 SHL PUSH0 MSTORE PUSH1 0x32 PUSH1 0x4 MSTORE PUSH1 0x24 PUSH0 REVERT JUMPDEST PUSH4 0x4E487B71 PUSH1 0xE0 SHL PUSH0 MSTORE PUSH1 0x11 PUSH1 0x4 MSTORE PUSH1 0x24 PUSH0 REVERT JUMPDEST PUSH0 PUSH1 0x1 DUP3 ADD PUSH2 0x286A JUMPI PUSH2 0x286A PUSH2 0x2845 JUMP JUMPDEST POP PUSH1 0x1 ADD SWAP1 JUMP JUMPDEST DUP2 DUP2 SUB DUP2 DUP2 GT ISZERO PUSH2 0x9E2 JUMPI PUSH2 0x9E2 PUSH2 0x2845 JUMP JUMPDEST PUSH1 0x1 DUP2 DUP2 SHR SWAP1 DUP3 AND DUP1 PUSH2 0x2898 JUMPI PUSH1 0x7F DUP3 AND SWAP2 POP JUMPDEST PUSH1 0x20 DUP3 LT DUP2 SUB PUSH2 0x28B6 JUMPI PUSH4 0x4E487B71 PUSH1 0xE0 SHL PUSH0 MSTORE PUSH1 0x22 PUSH1 0x4 MSTORE PUSH1 0x24 PUSH0 REVERT JUMPDEST POP SWAP2 SWAP1 POP JUMP JUMPDEST PUSH1 0x1F DUP3 GT ISZERO PUSH2 0x16B1 JUMPI DUP1 PUSH0 MSTORE PUSH1 0x20 PUSH0 KECCAK256 PUSH1 0x1F DUP5 ADD PUSH1 0x5 SHR DUP2 ADD PUSH1 0x20 DUP6 LT ISZERO PUSH2 0x28E1 JUMPI POP DUP1 JUMPDEST PUSH1 0x1F DUP5 ADD PUSH1 0x5 SHR DUP3 ADD SWAP2 POP JUMPDEST DUP2 DUP2 LT ISZERO PUSH2 0x2900 JUMPI PUSH0 DUP2 SSTORE PUSH1 0x1 ADD PUSH2 0x28ED JUMP JUMPDEST POP POP POP POP POP JUMP JUMPDEST DUP2 MLOAD PUSH1 0x1 PUSH1 0x1 PUSH1 0x40 SHL SUB DUP2 GT ISZERO PUSH2 0x2920 JUMPI PUSH2 0x2920 PUSH2 0x2223 JUMP JUMPDEST PUSH2 0x2934 DUP2 PUSH2 0x292E DUP5 SLOAD PUSH2 0x2884 JUMP JUMPDEST DUP5 PUSH2 0x28BC JUMP JUMPDEST PUSH1 0x20 DUP1 PUSH1 0x1F DUP4 GT PUSH1 0x1 DUP2 EQ PUSH2 0x2967 JUMPI PUSH0 DUP5 ISZERO PUSH2 0x2950 JUMPI POP DUP6 DUP4 ADD MLOAD JUMPDEST PUSH0 NOT PUSH1 0x3 DUP7 SWAP1 SHL SHR NOT AND PUSH1 0x1 DUP6 SWAP1 SHL OR DUP6 SSTORE PUSH2 0x4DF JUMP JUMPDEST PUSH0 DUP6 DUP2 MSTORE PUSH1 0x20 DUP2 KECCAK256 PUSH1 0x1F NOT DUP7 AND SWAP2 JUMPDEST DUP3 DUP2 LT ISZERO PUSH2 0x2995 JUMPI DUP9 DUP7 ADD MLOAD DUP3 SSTORE SWAP5 DUP5 ADD SWAP5 PUSH1 0x1 SWAP1 SWAP2 ADD SWAP1 DUP5 ADD PUSH2 0x2976 JUMP JUMPDEST POP DUP6 DUP3 LT ISZERO PUSH2 0x29B2 JUMPI DUP8 DUP6 ADD MLOAD PUSH0 NOT PUSH1 0x3 DUP9 SWAP1 SHL PUSH1 0xF8 AND SHR NOT AND DUP2 SSTORE JUMPDEST POP POP POP POP POP PUSH1 0x1 SWAP1 DUP2 SHL ADD SWAP1 SSTORE POP JUMP JUMPDEST PUSH4 0x4E487B71 PUSH1 0xE0 SHL PUSH0 MSTORE PUSH1 0x31 PUSH1 0x4 MSTORE PUSH1 0x24 PUSH0 REVERT JUMPDEST PUSH1 0x1 PUSH1 0x1 PUSH1 0xA0 SHL SUB DUP4 AND DUP2 MSTORE PUSH1 0x40 PUSH1 0x20 DUP3 ADD DUP2 SWAP1 MSTORE PUSH0 SWAP1 PUSH2 0x2535 SWAP1 DUP4 ADD DUP5 PUSH2 0x255F JUMP JUMPDEST PUSH0 DUP3 MLOAD PUSH2 0x2A0A DUP2 DUP5 PUSH1 0x20 DUP8 ADD PUSH2 0x253D JUMP JUMPDEST SWAP2 SWAP1 SWAP2 ADD SWAP3 SWAP2 POP POP JUMP JUMPDEST PUSH1 0xE0 DUP2 MSTORE PUSH0 PUSH2 0x2A26 PUSH1 0xE0 DUP4 ADD DUP11 PUSH2 0x255F JUMP JUMPDEST DUP3 DUP2 SUB PUSH1 0x20 DUP5 ADD MSTORE PUSH2 0x2A38 DUP2 DUP11 PUSH2 0x255F JUMP JUMPDEST SWAP1 POP DUP3 DUP2 SUB PUSH1 0x40 DUP5 ADD MSTORE PUSH2 0x2A4C DUP2 DUP10 PUSH2 0x255F JUMP JUMPDEST PUSH1 0x60 DUP5 ADD SWAP8 SWAP1 SWAP8 MSTORE POP POP PUSH1 0x80 DUP2 ADD SWAP4 SWAP1 SWAP4 MSTORE PUSH1 0xA0 DUP4 ADD SWAP2 SWAP1 SWAP2 MSTORE PUSH1 0x1 PUSH1 0x1 PUSH1 0xA0 SHL SUB AND PUSH1 0xC0 SWAP1 SWAP2 ADD MSTORE SWAP4 SWAP3 POP POP POP JUMP JUMPDEST PUSH1 0x60 DUP2 MSTORE PUSH0 PUSH2 0x2A8E PUSH1 0x60 DUP4 ADD DUP7 PUSH2 0x255F JUMP JUMPDEST PUSH1 0x20 DUP4 ADD SWAP5 SWAP1 SWAP5 MSTORE POP PUSH1 0x40 ADD MSTORE SWAP2 SWAP1 POP JUMP JUMPDEST PUSH0 DUP3 PUSH2 0x2ABA JUMPI PUSH4 0x4E487B71 PUSH1 0xE0 SHL PUSH0 MSTORE PUSH1 0x12 PUSH1 0x4 MSTORE PUSH1 0x24 PUSH0 REVERT JUMPDEST POP MOD SWAP1 JUMP JUMPDEST DUP1 DUP3 ADD DUP1 DUP3 GT ISZERO PUSH2 0x9E2 JUMPI PUSH2 0x9E2 PUSH2 0x2845 JUMP JUMPDEST PUSH0 DUP4 MLOAD PUSH2 0x2AE3 DUP2 DUP5 PUSH1 0x20 DUP9 ADD PUSH2 0x253D JUMP JUMPDEST DUP4 MLOAD SWAP1 DUP4 ADD SWAP1 PUSH2 0x2AF7 DUP2 DUP4 PUSH1 0x20 DUP9 ADD PUSH2 0x253D JUMP JUMPDEST ADD SWAP5 SWAP4 POP POP POP POP JUMP INVALID PUSH20 0x746F726546696C654D657461646174613A20496E PUSH23 0x616C6964205F66696C6553697A6573746F726546696C65 0x4D PUSH6 0x746164617461 GASPRICE KECCAK256 BLOBHASH PUSH15 0x76616C6964205F66696C6554797065 PUSH20 0x746F726546696C653A204E6F20617661696C6162 PUSH13 0x65206E6F64657320666F756E64 PUSH20 0x746F726546696C654D657461646174613A20496E PUSH23 0x616C6964205F756E69717565496473746F726546696C65 0x4D PUSH6 0x746164617461 GASPRICE KECCAK256 BLOBHASH PUSH15 0x76616C69642073656E646572726574 PUSH19 0x6965766546696C6544657461696C733A204669 PUSH13 0x65204E6F7420466F756E647265 PUSH21 0x726965766546696C6544657461696C733A20556E61 PUSH22 0x74686F72697A65642063616C6C657220616464726573 PUSH20 0x73746F726546696C654D657461646174613A2049 PUSH15 0x76616C6964205F66696C654E616D65 PUSH20 0x746F726546696C654D657461646174613A20496E PUSH23 0x616C6964205F66696C6548617368A26469706673582212 KECCAK256 MSIZE PUSH31 0xE3B0118903830418632A91CA4160816B8627BD42618A906CAD33F2E4D79E64 PUSH20 0x6F6C6343000818003373746F726546696C654D65 PUSH21 0x61646174613A20496E76616C6964205F756E697175 PUSH6 0x496473746F72 PUSH6 0x46696C654D65 PUSH21 0x61646174613A20496E76616C6964205F66696C6548 PUSH2 0x7368 LOG2 PUSH5 0x6970667358 0x22 SLT KECCAK256 0xAD PUSH27 0x5B78D57A7C3DB2BEA14418BFE067B7082245125E5C173085F3A471 0x1F 0xDD PUSH22 0x64736F6C634300081800330000000000000000000000 "
		},
		"gasEstimates": {
			"creation": {
				"codeDepositCost": "2843400",
				"executionCost": "3105",
				"totalCost": "2846505"
			},
			"external": {
				"beforeAll()": "infinite",
				"suite2Case1StoreFileMetaData()": "infinite",
				"suite2Case2StoreFileMetaData()": "infinite"
			}
		},
		"methodIdentifiers": {
			"beforeAll()": "7fea0d4b",
			"suite2Case1StoreFileMetaData()": "952ad0b8",
			"suite2Case2StoreFileMetaData()": "ff3a5f7d"
		}
	},
	"abi": [
		{
			"inputs": [],
			"name": "beforeAll",
			"outputs": [],
			"stateMutability": "nonpayable",
			"type": "function"
		},
		{
			"inputs": [],
			"name": "suite2Case1StoreFileMetaData",
			"outputs": [],
			"stateMutability": "nonpayable",
			"type": "function"
		},
		{
			"inputs": [],
			"name": "suite2Case2StoreFileMetaData",
			"outputs": [],
			"stateMutability": "nonpayable",
			"type": "function"
		}
	]
}