{
	"data": {
		"bytecode": {
			"linkReferences": {
				"remix_tests.sol": {
					"Assert": [
						{
							"length": 20,
							"start": 719
						},
						{
							"length": 20,
							"start": 985
						}
					]
				}
			},
			"object": "608060405234801561000f575f80fd5b50612ef88061001d5f395ff3fe608060405234801561000f575f80fd5b5060043610610034575f3560e01c80637fea0d4b14610038578063a271628114610042575b5f80fd5b61004061004a565b005b610040610091565b6040516100569061041d565b604051809103905ff08015801561006f573d5f803e3d5ffd5b505f80546001600160a01b0319166001600160a01b0392909216919091179055565b60408051600480825260a082019092525f91816020015b60608152602001906001900390816100a85790505090506040518060400160405280600381526020016261626360e81b815250815f815181106100ed576100ed61042a565b6020026020010181905250604051806040016040528060038152602001623232b360e91b815250816001815181106101275761012761042a565b60200260200101819052506040518060400160405280600381526020016267686960e81b815250816002815181106101615761016161042a565b60200260200101819052506040518060400160405280600781526020016606a6b6c6d6e6f760cc1b8152508160038151811061019f5761019f61042a565b6020908102919091018101919091525f8054604080518082018252600d81526c19195b5bd7dd195cdd0b9d1e1d609a1b81860152815180830183526004808252630b9d1e1d60e21b8288015283518085018552818152630dd09a5d60e21b818901528451808601865260138152721d5a4c4c998b4c9a998dd90b585a990c185cd9606a1b988101989098529351632945766760e11b815295966001600160a01b039095169563528aecce9561025d958a959493909260c89101610481565b5f604051808303815f87803b158015610274575f80fd5b505af1925050508015610285575060015b6103515761029161053d565b806308c379a00361034757506102a561058e565b806102b05750610349565b73__$acbfb1c35000d78352310b16a054a6b106$__63e8c2cb1682604051806060016040528060238152602001612ea0602391396040518363ffffffff1660e01b8152600401610301929190610616565b602060405180830381865af415801561031c573d5f803e3d5ffd5b505050506040513d601f19601f820116820180604052508101906103409190610696565b5050610355565b505b3d5f803e3d5ffd5b5060015b60405163767392b360e01b815281151560048201525f602482015260606044820152602d60648201527f737569746531436173653153746f726546696c6520646964206e6f7420776f7260848201526c1ac8185cc8195e1c1958dd1959609a1b60a482015273__$acbfb1c35000d78352310b16a054a6b106$__9063767392b39060c401602060405180830381865af41580156103f4573d5f803e3d5ffd5b505050506040513d601f19601f820116820180604052508101906104189190610696565b505050565b6127e3806106bd83390190565b634e487b7160e01b5f52603260045260245ffd5b5f81518084525f5b8181101561046257602081850181015186830182015201610446565b505f602082860101526020601f19601f83011685010191505092915050565b5f60c0820160c0835280895180835260e08501915060e08160051b86010192506020808c015f5b838110156104d65760df198887030185526104c486835161043e565b955093820193908201906001016104a8565b505050505082810360208401526104ed818961043e565b90508281036040840152610501818861043e565b90508281036060840152610515818761043e565b90508281036080840152610529818661043e565b9150508260a0830152979650505050505050565b5f60033d11156105535760045f803e505f5160e01c5b90565b601f8201601f191681016001600160401b038111828210171561058757634e487b7160e01b5f52604160045260245ffd5b6040525050565b5f60443d101561059b5790565b6040516003193d81016004833e81513d6001600160401b0380831160248401831017156105ca57505050505090565b82850191508151818111156105e25750505050505090565b843d87010160208285010111156105fc5750505050505090565b61060b60208286010187610556565b509095945050505050565b606081525f610628606083018561043e565b828103602084015261063a818561043e565b838103604094850152603381527f737569746531436173653153746f726546696c653a204661696c65642077697460208201527234103ab732bc3832b1ba32b2103932b0b9b7b760691b93810193909352505060600192915050565b5f602082840312156106a6575f80fd5b815180151581146106b5575f80fd5b939250505056fe608060405260035f556064600155348015610018575f80fd5b50600680546001600160a01b031916331790556127ab806100385f395ff3fe608060405234801561000f575f80fd5b5060043610610097575f3560e01c806311bd77fe1461009b578063189a5a17146100b057806330e00c9b14610106578063528aecce14610126578063583caf96146101395780635ffd7c06146101595780638da5cb5b1461016f578063a991005414610182578063b23793d614610195578063cf86bf93146101b5578063fe72ae13146101be575b5f80fd5b6100ae6100a9366004611e9a565b6101d1565b005b6100e26100be366004611ec2565b60036020525f9081526040902080546001909101546001600160a01b039091169082565b604080516001600160a01b0390931683526020830191909152015b60405180910390f35b610119610114366004611f91565b610317565b6040516100fd9190611fd2565b6100ae61013436600461207f565b61035c565b61014c61014736600461214f565b61063c565b6040516100fd9190612218565b6101615f5481565b6040519081526020016100fd565b600654610119906001600160a01b031681565b6100ae61019036600461214f565b6107ea565b6101a86101a336600461214f565b610e8f565b6040516100fd91906122fc565b61016160015481565b6101196101cc36600461230e565b610faa565b6001600160a01b038281165f9081526003602052604090205416156102595760405162461bcd60e51b815260206004820152603360248201527f6164644e6f64653a20496e76616c6964205f6e6f646541646472657373202d206044820152724e6f646520416c72656164792065786973747360681b60648201526084015b60405180910390fd5b6040805180820182526001600160a01b0384811680835260208084018681525f928352600390915290849020925183546001600160a01b031916921691909117825551600190910155515f80516020612653833981519152906102bd908490611fd2565b60405180910390a150600580546001810182555f919091527f036b6384b5eca791c62761152d0c79bb0604c104a5fb6f4eb0703f3154bb3db00180546001600160a01b0319166001600160a01b0392909216919091179055565b81516020818401810180516004825292820191850191909120919052805482908110610341575f80fd5b5f918252602090912001546001600160a01b03169150829050565b60055460408051606081019091526023808252911515916126736020830139906103995760405162461bcd60e51b81526004016102509190612325565b505f6103a483610fd2565b146040518060400160405280601c81526020017b1cdd1bdc99519a5b194e88111d5c1b1a58d85d1948119a5b1948125960221b815250906103f85760405162461bcd60e51b81526004016102509190612325565b505f5b86518110156106035761040f60075f611dac565b5f87828151811061042257610422612337565b60200260200101515190505f80805490506003600580549050101561044657506005545b61047c60405180604001604052806013815260200172111d5c1b1a58d85d1a5bdb881cdd185c9d1959606a1b8152508383611048565b808210156105f8575f6104e78460078054806020026020016040519081016040528092919081815260200182805480156104dd57602002820191905f5260205f20905b81546001600160a01b031681526001909101906020018083116104bf575b5050505050611094565b90505f80516020612653833981519152816040516105059190611fd2565b60405180910390a1600780546001810182555f919091527fa66cc928b5edb82af9bd49922954155ab7b0942694bea4ce44661d9a8736c6880180546001600160a01b0319166001600160a01b0383161790556040517fb011a0da2bacc57f5c2ddf79f5c8e86484a4fc528f15571a48a9d47956bc82be90610587908390611fd2565b60405180910390a1826105998161235f565b9350506105c1818c87815181106105b2576105b2612337565b60200260200101518988611210565b6001600160a01b0381165f908152600360205260409020600101546105f29082906105ed908790612377565b611367565b5061047c565b5050506001016103fb565b5061060f60075f611dac565b5f6106198761141c565b9050610625818461148c565b61063386868387878761159b565b50505050505050565b610644611dc7565b5f61064d611849565b90505f5b81518110156107345761068082828151811061066f5761066f612337565b60200260200101515f015185611b5d565b1561072c5781818151811061069757610697612337565b602002602001015160c001516001600160a01b0316336001600160a01b0316146040518060600160405280603081526020016126fe60309139906106ee5760405162461bcd60e51b81526004016102509190612325565b50604051806040016040528083838151811061070c5761070c612337565b6020026020010151815260200161072286610e8f565b9052949350505050565b600101610651565b505f6040518060600160405280602381526020016126db602391399061076d5760405162461bcd60e51b81526004016102509190612325565b505060408051610120810182525f6101008201818152825282516020818101855282825280840191909152835180820185528281528385015260608381018390526080840183905260a0840183905260c084018390528451808301865292835260e084019290925283518085019094529183529082015292915050565b335f90815260086020908152604091829020548251808401909352601b83527a19195b195d19519a5b194e88125b9d985b1a5908199a5b19481a59602a1b9183019190915261084c5760405162461bcd60e51b81526004016102509190612325565b50335f90815260086020908152604080832080548251818502810185019093528083529192909190849084015b82821015610b1e578382905f5260205f209060080201604051806101000160405290815f820180546108aa9061238a565b80601f01602080910402602001604051908101604052809291908181526020018280546108d69061238a565b80156109215780601f106108f857610100808354040283529160200191610921565b820191905f5260205f20905b81548152906001019060200180831161090457829003601f168201915b5050505050815260200160018201805461093a9061238a565b80601f01602080910402602001604051908101604052809291908181526020018280546109669061238a565b80156109b15780601f10610988576101008083540402835291602001916109b1565b820191905f5260205f20905b81548152906001019060200180831161099457829003601f168201915b505050505081526020016002820180546109ca9061238a565b80601f01602080910402602001604051908101604052809291908181526020018280546109f69061238a565b8015610a415780601f10610a1857610100808354040283529160200191610a41565b820191905f5260205f20905b815481529060010190602001808311610a2457829003601f168201915b505050918352505060038201546020820152600482015460408201526005820154606082015260068201546001600160a01b0316608082015260078201805460a090920191610a8f9061238a565b80601f0160208091040260200160405190810160405280929190818152602001828054610abb9061238a565b8015610b065780601f10610add57610100808354040283529160200191610b06565b820191905f5260205f20905b815481529060010190602001808311610ae957829003601f168201915b50505050508152505081526020019060010190610879565b5050505090505f60018251610b339190612377565b90505f828281518110610b4857610b48612337565b60200260200101519050610b5a611de7565b5f805b8551811015610c9357610b8c868281518110610b7b57610b7b612337565b60200260200101515f015188611b5d565b15610c8b5760019150858181518110610ba757610ba7612337565b602002602001015192508360085f336001600160a01b03166001600160a01b031681526020019081526020015f208281548110610be657610be6612337565b5f91825260209091208251600890920201908190610c04908261240d565b5060208201516001820190610c19908261240d565b5060408201516002820190610c2e908261240d565b50606082015160038201556080820151600482015560a0820151600582015560c08201516006820180546001600160a01b0319166001600160a01b0390921691909117905560e08201516007820190610c87908261240d565b5050505b600101610b5d565b5060408051808201909152601a81527919195b195d19519a5b194e88119a5b1948139bdd08199bdd5b9960321b602082015281610ce35760405162461bcd60e51b81526004016102509190612325565b50335f908152600860205260409020805483919086908110610d0757610d07612337565b5f91825260209091208251600890920201908190610d25908261240d565b5060208201516001820190610d3a908261240d565b5060408201516002820190610d4f908261240d565b50606082015160038201556080820151600482015560a0820151600582015560c08201516006820180546001600160a01b0319166001600160a01b0390921691909117905560e08201516007820190610da8908261240d565b5050335f908152600860205260409020805490915080610dca57610dca6124cc565b5f828152602081205f1990920191600883020190610de88282611e34565b610df5600183015f611e34565b610e02600283015f611e34565b5f6003830181905560048301819055600583018190556006830180546001600160a01b0319169055610e38906007840190611e34565b50509055610e4586611bb5565b610e4e86611c3c565b7f8598a19145ba7b62366f9f3e3ceca438df1e575ffa3bef982ed120041131d7863387604051610e7f9291906124e0565b60405180910390a1505050505050565b60605f600483604051610ea29190612503565b9081526040519081900360200190205411610f345760405162461bcd60e51b815260206004820152604660248201527f72657472696576654368756e6b4e6f64654164647265737365733a20496e766160448201527f6c6964205f6e6f646541646472657373202d204e6f646520446f6573204e4f5460648201526508195e1a5cdd60d21b608482015260a401610250565b600482604051610f449190612503565b9081526040805191829003602090810183208054808302850183019093528284529190830182828015610f9e57602002820191905f5260205f20905b81546001600160a01b03168152600190910190602001808311610f80575b50505050509050919050565b60058181548110610fb9575f80fd5b5f918252602090912001546001600160a01b0316905081565b5f808251116110225760405162461bcd60e51b815260206004820152601c60248201527b19d95d119a5b1952185cda0e88125b9d985b1a590817d99a5b19525960221b6044820152606401610250565b6002826040516110329190612503565b9081526020016040518091039020549050919050565b61108f8383836040516024016110609392919061251e565b60408051601f198184030181529190526020810180516001600160e01b031663ca47c4eb60e01b179052611d2b565b505050565b6005545f9060328183036110ac575f9250505061120a565b5f826110b9600143612377565b6110c4919040612542565b90505f806103e85b80821015611200575f6005876110e28688612561565b6110ec9190612542565b815481106110fc576110fc612337565b5f91825260209182902001546040518781526001600160a01b0390911692507f0838d04243391d45d94a98fff54d1737cbffea86c34ab825e5d6980ec9b77235910160405180910390a1611150868b612561565b6001600160a01b0382165f9081526003602052604090206001015411156111d45760015f5b8a518110156111bc57826001600160a01b03168b828151811061119a5761119a612337565b60200260200101516001600160a01b0316036111b4575f91505b600101611175565b5080156111d25750965061120a95505050505050565b505b836111de8161235f565b94505082806111ec9061235f565b9350508684036111fa575f93505b506110cc565b5f96505050505050505b92915050565b6001600160a01b038481165f908152600360205260409020541661129b5760405162461bcd60e51b815260206004820152603c60248201527f73746f72654368756e6b496e4e6f64653a20496e76616c6964205f6e6f64654160448201527b19191c995cdcc80b48139bd91948111bd95cc81393d508195e1a5cdd60221b6064820152608401610250565b611313846004846040516112af9190612503565b908152604080519182900360209081018320805480830285018301909352828452919083018282801561130957602002820191905f5260205f20905b81546001600160a01b031681526001909101906020018083116112eb575b5050505050611d34565b611361576004826040516113279190612503565b9081526040516020918190038201902080546001810182555f9182529190200180546001600160a01b0319166001600160a01b0386161790555b50505050565b6001600160a01b038281165f90815260036020526040902054166113fe5760405162461bcd60e51b815260206004820152604260248201527f757064617465417661696c61626c6553746f726167653a20496e76616c69642060448201527f5f6e6f646541646472657373202d204e6f646520446f6573204e4f54206578696064820152611cdd60f21b608482015260a401610250565b6001600160a01b039091165f90815260036020526040902060010155565b60408051602081019091525f80825290815b835181101561147d578184828151811061144a5761144a612337565b6020026020010151604051602001611463929190612574565b60408051601f19818403018152919052915060010161142e565b50805160209091012092915050565b336114d95760405162461bcd60e51b815260206004820152601d60248201527f73746f726546696c65486173683a20496e76616c69642073656e6465720000006044820152606401610250565b816115265760405162461bcd60e51b815260206004820181905260248201527f73746f726546696c65486173683a20496e76616c6964205f66696c65486173686044820152606401610250565b5f8151116115765760405162461bcd60e51b815260206004820152601e60248201527f73746f726546696c65486173683a20496e76616c6964205f66696c65496400006044820152606401610250565b816002826040516115879190612503565b908152604051908190036020019020555050565b6040805160608101909152602180825233151591906126ba6020830139906115d65760405162461bcd60e51b81526004016102509190612325565b505f85511160405180606001604052806024815260200161262f60249139906116125760405162461bcd60e51b81526004016102509190612325565b505f86511160405180606001604052806024815260200161272e602491399061164e5760405162461bcd60e51b81526004016102509190612325565b505f801b841415604051806060016040528060248152602001612752602491399061168c5760405162461bcd60e51b81526004016102509190612325565b505f811160405180606001604052806024815260200161260b60249139906116c75760405162461bcd60e51b81526004016102509190612325565b505f82511160405180606001604052806024815260200161269660249139906117035760405162461bcd60e51b81526004016102509190612325565b50335f8181526008602081815260408084208151610100810183528881528084018d90529182018b9052606082018a9052608082018790524260a0830181905260c083019690965260e08201899052805460018101825590855291909320835191909202909101908190611777908261240d565b506020820151600182019061178c908261240d565b50604082015160028201906117a1908261240d565b50606082015160038201556080820151600482015560a0820151600582015560c08201516006820180546001600160a01b0319166001600160a01b0390921691909117905560e082015160078201906117fa908261240d565b5050507f557bccc5a98151ef59a421e190011aa3f6b5dc4ac2fd42fba79d158ce0c68ac18388888886863360405161183897969594939291906125a2565b60405180910390a150505050505050565b604080516060818101909252602180825233151591906126ba6020830139906118855760405162461bcd60e51b81526004016102509190612325565b50335f90815260086020908152604080832080548251818502810185019093528083529193909284015b82821015611b54578382905f5260205f209060080201604051806101000160405290815f820180546118e09061238a565b80601f016020809104026020016040519081016040528092919081815260200182805461190c9061238a565b80156119575780601f1061192e57610100808354040283529160200191611957565b820191905f5260205f20905b81548152906001019060200180831161193a57829003601f168201915b505050505081526020016001820180546119709061238a565b80601f016020809104026020016040519081016040528092919081815260200182805461199c9061238a565b80156119e75780601f106119be576101008083540402835291602001916119e7565b820191905f5260205f20905b8154815290600101906020018083116119ca57829003601f168201915b50505050508152602001600282018054611a009061238a565b80601f0160208091040260200160405190810160405280929190818152602001828054611a2c9061238a565b8015611a775780601f10611a4e57610100808354040283529160200191611a77565b820191905f5260205f20905b815481529060010190602001808311611a5a57829003601f168201915b505050918352505060038201546020820152600482015460408201526005820154606082015260068201546001600160a01b0316608082015260078201805460a090920191611ac59061238a565b80601f0160208091040260200160405190810160405280929190818152602001828054611af19061238a565b8015611b3c5780601f10611b1357610100808354040283529160200191611b3c565b820191905f5260205f20905b815481529060010190602001808311611b1f57829003601f168201915b505050505081525050815260200190600101906118af565b50505050905090565b5f81604051602001611b6f9190612503565b6040516020818303038152906040528051906020012083604051602001611b969190612503565b6040516020818303038152906040528051906020012014905092915050565b5f815111611c105760405162461bcd60e51b815260206004820152602260248201527f64656c6574654368756e6b496e4e6f64653a20496e76616c6964205f66696c65604482015261125960f21b6064820152608401610250565b600481604051611c209190612503565b90815260200160405180910390205f611c399190611dac565b50565b5f815111611c8c5760405162461bcd60e51b815260206004820152601f60248201527f64656c65746546696c65486173683a20496e76616c6964205f66696c654964006044820152606401610250565b5f801b600282604051611c9f9190612503565b90815260200160405180910390205403611d075760405162461bcd60e51b8152602060048201526024808201527f64656c65746546696c65486173683a20496e76616c69642066696c654964546f604482015263090c2e6d60e31b6064820152608401610250565b600281604051611d179190612503565b90815260200160405180910390205f905550565b611c3981611d8d565b5f805b8251811015611d8457836001600160a01b0316838281518110611d5c57611d5c612337565b60200260200101516001600160a01b031603611d7c57600191505061120a565b600101611d37565b505f9392505050565b5f6a636f6e736f6c652e6c6f6790505f80835160208501845afa505050565b5080545f8255905f5260205f2090810190611c399190611e67565b6040518060400160405280611dda611de7565b8152602001606081525090565b6040518061010001604052806060815260200160608152602001606081526020015f80191681526020015f81526020015f81526020015f6001600160a01b03168152602001606081525090565b508054611e409061238a565b5f825580601f10611e4f575050565b601f0160209004905f5260205f2090810190611c3991905b5b80821115611e7b575f8155600101611e68565b5090565b80356001600160a01b0381168114611e95575f80fd5b919050565b5f8060408385031215611eab575f80fd5b611eb483611e7f565b946020939093013593505050565b5f60208284031215611ed2575f80fd5b611edb82611e7f565b9392505050565b634e487b7160e01b5f52604160045260245ffd5b604051601f8201601f191681016001600160401b0381118282101715611f1e57611f1e611ee2565b604052919050565b5f82601f830112611f35575f80fd5b81356001600160401b03811115611f4e57611f4e611ee2565b611f61601f8201601f1916602001611ef6565b818152846020838601011115611f75575f80fd5b816020850160208301375f918101602001919091529392505050565b5f8060408385031215611fa2575f80fd5b82356001600160401b03811115611fb7575f80fd5b611fc385828601611f26565b95602094909401359450505050565b6001600160a01b0391909116815260200190565b5f82601f830112611ff5575f80fd5b813560206001600160401b038083111561201157612011611ee2565b8260051b612020838201611ef6565b9384528581018301938381019088861115612039575f80fd5b84880192505b8583101561207357823584811115612055575f80fd5b6120638a87838c0101611f26565b835250918401919084019061203f565b98975050505050505050565b5f805f805f8060c08789031215612094575f80fd5b86356001600160401b03808211156120aa575f80fd5b6120b68a838b01611fe6565b975060208901359150808211156120cb575f80fd5b6120d78a838b01611f26565b965060408901359150808211156120ec575f80fd5b6120f88a838b01611f26565b9550606089013591508082111561210d575f80fd5b6121198a838b01611f26565b9450608089013591508082111561212e575f80fd5b5061213b89828a01611f26565b92505060a087013590509295509295509295565b5f6020828403121561215f575f80fd5b81356001600160401b03811115612174575f80fd5b61218084828501611f26565b949350505050565b5f5b838110156121a257818101518382015260200161218a565b50505f910152565b5f81518084526121c1816020860160208601612188565b601f01601f19169290920160200192915050565b5f815180845260208085019450602084015f5b8381101561220d5781516001600160a01b0316875295820195908201906001016121e8565b509495945050505050565b602081525f825160406020840152805161010080606086015261223f6101608601836121aa565b91506020830151605f198087850301608088015261225d84836121aa565b935060408501519150808785030160a088015261227a84836121aa565b9350606085015160c0880152608085015160e088015260a08501518388015260c085015192506122b66101208801846001600160a01b03169052565b60e0850151945080878503016101408801525050506122d581836121aa565b9150506020840151601f198483030160408501526122f382826121d5565b95945050505050565b602081525f611edb60208301846121d5565b5f6020828403121561231e575f80fd5b5035919050565b602081525f611edb60208301846121aa565b634e487b7160e01b5f52603260045260245ffd5b634e487b7160e01b5f52601160045260245ffd5b5f600182016123705761237061234b565b5060010190565b8181038181111561120a5761120a61234b565b600181811c9082168061239e57607f821691505b6020821081036123bc57634e487b7160e01b5f52602260045260245ffd5b50919050565b601f82111561108f57805f5260205f20601f840160051c810160208510156123e75750805b601f840160051c820191505b81811015612406575f81556001016123f3565b5050505050565b81516001600160401b0381111561242657612426611ee2565b61243a81612434845461238a565b846123c2565b602080601f83116001811461246d575f84156124565750858301515b5f19600386901b1c1916600185901b1785556124c4565b5f85815260208120601f198616915b8281101561249b5788860151825594840194600190910190840161247c565b50858210156124b857878501515f19600388901b60f8161c191681555b505060018460011b0185555b505050505050565b634e487b7160e01b5f52603160045260245ffd5b6001600160a01b03831681526040602082018190525f90612180908301846121aa565b5f8251612514818460208701612188565b9190910192915050565b606081525f61253060608301866121aa565b60208301949094525060400152919050565b5f8261255c57634e487b7160e01b5f52601260045260245ffd5b500690565b8082018082111561120a5761120a61234b565b5f8351612585818460208801612188565b835190830190612599818360208801612188565b01949350505050565b60e081525f6125b460e083018a6121aa565b82810360208401526125c6818a6121aa565b905082810360408401526125da81896121aa565b60608401979097525050608081019390935260a08301919091526001600160a01b031660c090910152939250505056fe73746f726546696c654d657461646174613a20496e76616c6964205f66696c6553697a6573746f726546696c654d657461646174613a20496e76616c6964205f66696c65547970655f91b0afd2c6ef8da92137ba907bccdc85ec4856a15ad39de3e0eff02be6d70e73746f726546696c653a204e6f20617661696c61626c65206e6f64657320666f756e6473746f726546696c654d657461646174613a20496e76616c6964205f756e69717565496473746f726546696c654d657461646174613a20496e76616c69642073656e646572726574726965766546696c6544657461696c733a2046696c65204e6f7420466f756e64726574726965766546696c6544657461696c733a20556e617574686f72697a65642063616c6c6572206164647265737373746f726546696c654d657461646174613a20496e76616c6964205f66696c654e616d6573746f726546696c654d657461646174613a20496e76616c6964205f66696c6548617368a26469706673582212205411d090fbf7b5b2a1093fe02c4d3a33a5d71ba12c63d1cb3f9a9b72eaaa0bc064736f6c6343000816003373746f726546696c653a204e6f20617661696c61626c65206e6f64657320666f756e64a2646970667358221220d29d50f6e991de172213e2264cee0858c87dd6eaead9a09201265354ab78893764736f6c63430008160033",
			"opcodes": "PUSH1 0x80 PUSH1 0x40 MSTORE CALLVALUE DUP1 ISZERO PUSH2 0xF JUMPI PUSH0 DUP1 REVERT JUMPDEST POP PUSH2 0x2EF8 DUP1 PUSH2 0x1D PUSH0 CODECOPY PUSH0 RETURN INVALID PUSH1 0x80 PUSH1 0x40 MSTORE CALLVALUE DUP1 ISZERO PUSH2 0xF JUMPI PUSH0 DUP1 REVERT JUMPDEST POP PUSH1 0x4 CALLDATASIZE LT PUSH2 0x34 JUMPI PUSH0 CALLDATALOAD PUSH1 0xE0 SHR DUP1 PUSH4 0x7FEA0D4B EQ PUSH2 0x38 JUMPI DUP1 PUSH4 0xA2716281 EQ PUSH2 0x42 JUMPI JUMPDEST PUSH0 DUP1 REVERT JUMPDEST PUSH2 0x40 PUSH2 0x4A JUMP JUMPDEST STOP JUMPDEST PUSH2 0x40 PUSH2 0x91 JUMP JUMPDEST PUSH1 0x40 MLOAD PUSH2 0x56 SWAP1 PUSH2 0x41D JUMP JUMPDEST PUSH1 0x40 MLOAD DUP1 SWAP2 SUB SWAP1 PUSH0 CREATE DUP1 ISZERO DUP1 ISZERO PUSH2 0x6F JUMPI RETURNDATASIZE PUSH0 DUP1 RETURNDATACOPY RETURNDATASIZE PUSH0 REVERT JUMPDEST POP PUSH0 DUP1 SLOAD PUSH1 0x1 PUSH1 0x1 PUSH1 0xA0 SHL SUB NOT AND PUSH1 0x1 PUSH1 0x1 PUSH1 0xA0 SHL SUB SWAP3 SWAP1 SWAP3 AND SWAP2 SWAP1 SWAP2 OR SWAP1 SSTORE JUMP JUMPDEST PUSH1 0x40 DUP1 MLOAD PUSH1 0x4 DUP1 DUP3 MSTORE PUSH1 0xA0 DUP3 ADD SWAP1 SWAP3 MSTORE PUSH0 SWAP2 DUP2 PUSH1 0x20 ADD JUMPDEST PUSH1 0x60 DUP2 MSTORE PUSH1 0x20 ADD SWAP1 PUSH1 0x1 SWAP1 SUB SWAP1 DUP2 PUSH2 0xA8 JUMPI SWAP1 POP POP SWAP1 POP PUSH1 0x40 MLOAD DUP1 PUSH1 0x40 ADD PUSH1 0x40 MSTORE DUP1 PUSH1 0x3 DUP2 MSTORE PUSH1 0x20 ADD PUSH3 0x616263 PUSH1 0xE8 SHL DUP2 MSTORE POP DUP2 PUSH0 DUP2 MLOAD DUP2 LT PUSH2 0xED JUMPI PUSH2 0xED PUSH2 0x42A JUMP JUMPDEST PUSH1 0x20 MUL PUSH1 0x20 ADD ADD DUP2 SWAP1 MSTORE POP PUSH1 0x40 MLOAD DUP1 PUSH1 0x40 ADD PUSH1 0x40 MSTORE DUP1 PUSH1 0x3 DUP2 MSTORE PUSH1 0x20 ADD PUSH3 0x3232B3 PUSH1 0xE9 SHL DUP2 MSTORE POP DUP2 PUSH1 0x1 DUP2 MLOAD DUP2 LT PUSH2 0x127 JUMPI PUSH2 0x127 PUSH2 0x42A JUMP JUMPDEST PUSH1 0x20 MUL PUSH1 0x20 ADD ADD DUP2 SWAP1 MSTORE POP PUSH1 0x40 MLOAD DUP1 PUSH1 0x40 ADD PUSH1 0x40 MSTORE DUP1 PUSH1 0x3 DUP2 MSTORE PUSH1 0x20 ADD PUSH3 0x676869 PUSH1 0xE8 SHL DUP2 MSTORE POP DUP2 PUSH1 0x2 DUP2 MLOAD DUP2 LT PUSH2 0x161 JUMPI PUSH2 0x161 PUSH2 0x42A JUMP JUMPDEST PUSH1 0x20 MUL PUSH1 0x20 ADD ADD DUP2 SWAP1 MSTORE POP PUSH1 0x40 MLOAD DUP1 PUSH1 0x40 ADD PUSH1 0x40 MSTORE DUP1 PUSH1 0x7 DUP2 MSTORE PUSH1 0x20 ADD PUSH7 0x6A6B6C6D6E6F7 PUSH1 0xCC SHL DUP2 MSTORE POP DUP2 PUSH1 0x3 DUP2 MLOAD DUP2 LT PUSH2 0x19F JUMPI PUSH2 0x19F PUSH2 0x42A JUMP JUMPDEST PUSH1 0x20 SWAP1 DUP2 MUL SWAP2 SWAP1 SWAP2 ADD DUP2 ADD SWAP2 SWAP1 SWAP2 MSTORE PUSH0 DUP1 SLOAD PUSH1 0x40 DUP1 MLOAD DUP1 DUP3 ADD DUP3 MSTORE PUSH1 0xD DUP2 MSTORE PUSH13 0x19195B5BD7DD195CDD0B9D1E1D PUSH1 0x9A SHL DUP2 DUP7 ADD MSTORE DUP2 MLOAD DUP1 DUP4 ADD DUP4 MSTORE PUSH1 0x4 DUP1 DUP3 MSTORE PUSH4 0xB9D1E1D PUSH1 0xE2 SHL DUP3 DUP9 ADD MSTORE DUP4 MLOAD DUP1 DUP6 ADD DUP6 MSTORE DUP2 DUP2 MSTORE PUSH4 0xDD09A5D PUSH1 0xE2 SHL DUP2 DUP10 ADD MSTORE DUP5 MLOAD DUP1 DUP7 ADD DUP7 MSTORE PUSH1 0x13 DUP2 MSTORE PUSH19 0x1D5A4C4C998B4C9A998DD90B585A990C185CD9 PUSH1 0x6A SHL SWAP9 DUP2 ADD SWAP9 SWAP1 SWAP9 MSTORE SWAP4 MLOAD PUSH4 0x29457667 PUSH1 0xE1 SHL DUP2 MSTORE SWAP6 SWAP7 PUSH1 0x1 PUSH1 0x1 PUSH1 0xA0 SHL SUB SWAP1 SWAP6 AND SWAP6 PUSH4 0x528AECCE SWAP6 PUSH2 0x25D SWAP6 DUP11 SWAP6 SWAP5 SWAP4 SWAP1 SWAP3 PUSH1 0xC8 SWAP2 ADD PUSH2 0x481 JUMP JUMPDEST PUSH0 PUSH1 0x40 MLOAD DUP1 DUP4 SUB DUP2 PUSH0 DUP8 DUP1 EXTCODESIZE ISZERO DUP1 ISZERO PUSH2 0x274 JUMPI PUSH0 DUP1 REVERT JUMPDEST POP GAS CALL SWAP3 POP POP POP DUP1 ISZERO PUSH2 0x285 JUMPI POP PUSH1 0x1 JUMPDEST PUSH2 0x351 JUMPI PUSH2 0x291 PUSH2 0x53D JUMP JUMPDEST DUP1 PUSH4 0x8C379A0 SUB PUSH2 0x347 JUMPI POP PUSH2 0x2A5 PUSH2 0x58E JUMP JUMPDEST DUP1 PUSH2 0x2B0 JUMPI POP PUSH2 0x349 JUMP JUMPDEST PUSH20 0x0 PUSH4 0xE8C2CB16 DUP3 PUSH1 0x40 MLOAD DUP1 PUSH1 0x60 ADD PUSH1 0x40 MSTORE DUP1 PUSH1 0x23 DUP2 MSTORE PUSH1 0x20 ADD PUSH2 0x2EA0 PUSH1 0x23 SWAP2 CODECOPY PUSH1 0x40 MLOAD DUP4 PUSH4 0xFFFFFFFF AND PUSH1 0xE0 SHL DUP2 MSTORE PUSH1 0x4 ADD PUSH2 0x301 SWAP3 SWAP2 SWAP1 PUSH2 0x616 JUMP JUMPDEST PUSH1 0x20 PUSH1 0x40 MLOAD DUP1 DUP4 SUB DUP2 DUP7 GAS DELEGATECALL ISZERO DUP1 ISZERO PUSH2 0x31C JUMPI RETURNDATASIZE PUSH0 DUP1 RETURNDATACOPY RETURNDATASIZE PUSH0 REVERT JUMPDEST POP POP POP POP PUSH1 0x40 MLOAD RETURNDATASIZE PUSH1 0x1F NOT PUSH1 0x1F DUP3 ADD AND DUP3 ADD DUP1 PUSH1 0x40 MSTORE POP DUP2 ADD SWAP1 PUSH2 0x340 SWAP2 SWAP1 PUSH2 0x696 JUMP JUMPDEST POP POP PUSH2 0x355 JUMP JUMPDEST POP JUMPDEST RETURNDATASIZE PUSH0 DUP1 RETURNDATACOPY RETURNDATASIZE PUSH0 REVERT JUMPDEST POP PUSH1 0x1 JUMPDEST PUSH1 0x40 MLOAD PUSH4 0x767392B3 PUSH1 0xE0 SHL DUP2 MSTORE DUP2 ISZERO ISZERO PUSH1 0x4 DUP3 ADD MSTORE PUSH0 PUSH1 0x24 DUP3 ADD MSTORE PUSH1 0x60 PUSH1 0x44 DUP3 ADD MSTORE PUSH1 0x2D PUSH1 0x64 DUP3 ADD MSTORE PUSH32 0x737569746531436173653153746F726546696C6520646964206E6F7420776F72 PUSH1 0x84 DUP3 ADD MSTORE PUSH13 0x1AC8185CC8195E1C1958DD1959 PUSH1 0x9A SHL PUSH1 0xA4 DUP3 ADD MSTORE PUSH20 0x0 SWAP1 PUSH4 0x767392B3 SWAP1 PUSH1 0xC4 ADD PUSH1 0x20 PUSH1 0x40 MLOAD DUP1 DUP4 SUB DUP2 DUP7 GAS DELEGATECALL ISZERO DUP1 ISZERO PUSH2 0x3F4 JUMPI RETURNDATASIZE PUSH0 DUP1 RETURNDATACOPY RETURNDATASIZE PUSH0 REVERT JUMPDEST POP POP POP POP PUSH1 0x40 MLOAD RETURNDATASIZE PUSH1 0x1F NOT PUSH1 0x1F DUP3 ADD AND DUP3 ADD DUP1 PUSH1 0x40 MSTORE POP DUP2 ADD SWAP1 PUSH2 0x418 SWAP2 SWAP1 PUSH2 0x696 JUMP JUMPDEST POP POP POP JUMP JUMPDEST PUSH2 0x27E3 DUP1 PUSH2 0x6BD DUP4 CODECOPY ADD SWAP1 JUMP JUMPDEST PUSH4 0x4E487B71 PUSH1 0xE0 SHL PUSH0 MSTORE PUSH1 0x32 PUSH1 0x4 MSTORE PUSH1 0x24 PUSH0 REVERT JUMPDEST PUSH0 DUP2 MLOAD DUP1 DUP5 MSTORE PUSH0 JUMPDEST DUP2 DUP2 LT ISZERO PUSH2 0x462 JUMPI PUSH1 0x20 DUP2 DUP6 ADD DUP2 ADD MLOAD DUP7 DUP4 ADD DUP3 ADD MSTORE ADD PUSH2 0x446 JUMP JUMPDEST POP PUSH0 PUSH1 0x20 DUP3 DUP7 ADD ADD MSTORE PUSH1 0x20 PUSH1 0x1F NOT PUSH1 0x1F DUP4 ADD AND DUP6 ADD ADD SWAP2 POP POP SWAP3 SWAP2 POP POP JUMP JUMPDEST PUSH0 PUSH1 0xC0 DUP3 ADD PUSH1 0xC0 DUP4 MSTORE DUP1 DUP10 MLOAD DUP1 DUP4 MSTORE PUSH1 0xE0 DUP6 ADD SWAP2 POP PUSH1 0xE0 DUP2 PUSH1 0x5 SHL DUP7 ADD ADD SWAP3 POP PUSH1 0x20 DUP1 DUP13 ADD PUSH0 JUMPDEST DUP4 DUP2 LT ISZERO PUSH2 0x4D6 JUMPI PUSH1 0xDF NOT DUP9 DUP8 SUB ADD DUP6 MSTORE PUSH2 0x4C4 DUP7 DUP4 MLOAD PUSH2 0x43E JUMP JUMPDEST SWAP6 POP SWAP4 DUP3 ADD SWAP4 SWAP1 DUP3 ADD SWAP1 PUSH1 0x1 ADD PUSH2 0x4A8 JUMP JUMPDEST POP POP POP POP POP DUP3 DUP2 SUB PUSH1 0x20 DUP5 ADD MSTORE PUSH2 0x4ED DUP2 DUP10 PUSH2 0x43E JUMP JUMPDEST SWAP1 POP DUP3 DUP2 SUB PUSH1 0x40 DUP5 ADD MSTORE PUSH2 0x501 DUP2 DUP9 PUSH2 0x43E JUMP JUMPDEST SWAP1 POP DUP3 DUP2 SUB PUSH1 0x60 DUP5 ADD MSTORE PUSH2 0x515 DUP2 DUP8 PUSH2 0x43E JUMP JUMPDEST SWAP1 POP DUP3 DUP2 SUB PUSH1 0x80 DUP5 ADD MSTORE PUSH2 0x529 DUP2 DUP7 PUSH2 0x43E JUMP JUMPDEST SWAP2 POP POP DUP3 PUSH1 0xA0 DUP4 ADD MSTORE SWAP8 SWAP7 POP POP POP POP POP POP POP JUMP JUMPDEST PUSH0 PUSH1 0x3 RETURNDATASIZE GT ISZERO PUSH2 0x553 JUMPI PUSH1 0x4 PUSH0 DUP1 RETURNDATACOPY POP PUSH0 MLOAD PUSH1 0xE0 SHR JUMPDEST SWAP1 JUMP JUMPDEST PUSH1 0x1F DUP3 ADD PUSH1 0x1F NOT AND DUP2 ADD PUSH1 0x1 PUSH1 0x1 PUSH1 0x40 SHL SUB DUP2 GT DUP3 DUP3 LT OR ISZERO PUSH2 0x587 JUMPI PUSH4 0x4E487B71 PUSH1 0xE0 SHL PUSH0 MSTORE PUSH1 0x41 PUSH1 0x4 MSTORE PUSH1 0x24 PUSH0 REVERT JUMPDEST PUSH1 0x40 MSTORE POP POP JUMP JUMPDEST PUSH0 PUSH1 0x44 RETURNDATASIZE LT ISZERO PUSH2 0x59B JUMPI SWAP1 JUMP JUMPDEST PUSH1 0x40 MLOAD PUSH1 0x3 NOT RETURNDATASIZE DUP2 ADD PUSH1 0x4 DUP4 RETURNDATACOPY DUP2 MLOAD RETURNDATASIZE PUSH1 0x1 PUSH1 0x1 PUSH1 0x40 SHL SUB DUP1 DUP4 GT PUSH1 0x24 DUP5 ADD DUP4 LT OR ISZERO PUSH2 0x5CA JUMPI POP POP POP POP POP SWAP1 JUMP JUMPDEST DUP3 DUP6 ADD SWAP2 POP DUP2 MLOAD DUP2 DUP2 GT ISZERO PUSH2 0x5E2 JUMPI POP POP POP POP POP POP SWAP1 JUMP JUMPDEST DUP5 RETURNDATASIZE DUP8 ADD ADD PUSH1 0x20 DUP3 DUP6 ADD ADD GT ISZERO PUSH2 0x5FC JUMPI POP POP POP POP POP POP SWAP1 JUMP JUMPDEST PUSH2 0x60B PUSH1 0x20 DUP3 DUP7 ADD ADD DUP8 PUSH2 0x556 JUMP JUMPDEST POP SWAP1 SWAP6 SWAP5 POP POP POP POP POP JUMP JUMPDEST PUSH1 0x60 DUP2 MSTORE PUSH0 PUSH2 0x628 PUSH1 0x60 DUP4 ADD DUP6 PUSH2 0x43E JUMP JUMPDEST DUP3 DUP2 SUB PUSH1 0x20 DUP5 ADD MSTORE PUSH2 0x63A DUP2 DUP6 PUSH2 0x43E JUMP JUMPDEST DUP4 DUP2 SUB PUSH1 0x40 SWAP5 DUP6 ADD MSTORE PUSH1 0x33 DUP2 MSTORE PUSH32 0x737569746531436173653153746F726546696C653A204661696C656420776974 PUSH1 0x20 DUP3 ADD MSTORE PUSH19 0x34103AB732BC3832B1BA32B2103932B0B9B7B7 PUSH1 0x69 SHL SWAP4 DUP2 ADD SWAP4 SWAP1 SWAP4 MSTORE POP POP PUSH1 0x60 ADD SWAP3 SWAP2 POP POP JUMP JUMPDEST PUSH0 PUSH1 0x20 DUP3 DUP5 SUB SLT ISZERO PUSH2 0x6A6 JUMPI PUSH0 DUP1 REVERT JUMPDEST DUP2 MLOAD DUP1 ISZERO ISZERO DUP2 EQ PUSH2 0x6B5 JUMPI PUSH0 DUP1 REVERT JUMPDEST SWAP4 SWAP3 POP POP POP JUMP INVALID PUSH1 0x80 PUSH1 0x40 MSTORE PUSH1 0x3 PUSH0 SSTORE PUSH1 0x64 PUSH1 0x1 SSTORE CALLVALUE DUP1 ISZERO PUSH2 0x18 JUMPI PUSH0 DUP1 REVERT JUMPDEST POP PUSH1 0x6 DUP1 SLOAD PUSH1 0x1 PUSH1 0x1 PUSH1 0xA0 SHL SUB NOT AND CALLER OR SWAP1 SSTORE PUSH2 0x27AB DUP1 PUSH2 0x38 PUSH0 CODECOPY PUSH0 RETURN INVALID PUSH1 0x80 PUSH1 0x40 MSTORE CALLVALUE DUP1 ISZERO PUSH2 0xF JUMPI PUSH0 DUP1 REVERT JUMPDEST POP PUSH1 0x4 CALLDATASIZE LT PUSH2 0x97 JUMPI PUSH0 CALLDATALOAD PUSH1 0xE0 SHR DUP1 PUSH4 0x11BD77FE EQ PUSH2 0x9B JUMPI DUP1 PUSH4 0x189A5A17 EQ PUSH2 0xB0 JUMPI DUP1 PUSH4 0x30E00C9B EQ PUSH2 0x106 JUMPI DUP1 PUSH4 0x528AECCE EQ PUSH2 0x126 JUMPI DUP1 PUSH4 0x583CAF96 EQ PUSH2 0x139 JUMPI DUP1 PUSH4 0x5FFD7C06 EQ PUSH2 0x159 JUMPI DUP1 PUSH4 0x8DA5CB5B EQ PUSH2 0x16F JUMPI DUP1 PUSH4 0xA9910054 EQ PUSH2 0x182 JUMPI DUP1 PUSH4 0xB23793D6 EQ PUSH2 0x195 JUMPI DUP1 PUSH4 0xCF86BF93 EQ PUSH2 0x1B5 JUMPI DUP1 PUSH4 0xFE72AE13 EQ PUSH2 0x1BE JUMPI JUMPDEST PUSH0 DUP1 REVERT JUMPDEST PUSH2 0xAE PUSH2 0xA9 CALLDATASIZE PUSH1 0x4 PUSH2 0x1E9A JUMP JUMPDEST PUSH2 0x1D1 JUMP JUMPDEST STOP JUMPDEST PUSH2 0xE2 PUSH2 0xBE CALLDATASIZE PUSH1 0x4 PUSH2 0x1EC2 JUMP JUMPDEST PUSH1 0x3 PUSH1 0x20 MSTORE PUSH0 SWAP1 DUP2 MSTORE PUSH1 0x40 SWAP1 KECCAK256 DUP1 SLOAD PUSH1 0x1 SWAP1 SWAP2 ADD SLOAD PUSH1 0x1 PUSH1 0x1 PUSH1 0xA0 SHL SUB SWAP1 SWAP2 AND SWAP1 DUP3 JUMP JUMPDEST PUSH1 0x40 DUP1 MLOAD PUSH1 0x1 PUSH1 0x1 PUSH1 0xA0 SHL SUB SWAP1 SWAP4 AND DUP4 MSTORE PUSH1 0x20 DUP4 ADD SWAP2 SWAP1 SWAP2 MSTORE ADD JUMPDEST PUSH1 0x40 MLOAD DUP1 SWAP2 SUB SWAP1 RETURN JUMPDEST PUSH2 0x119 PUSH2 0x114 CALLDATASIZE PUSH1 0x4 PUSH2 0x1F91 JUMP JUMPDEST PUSH2 0x317 JUMP JUMPDEST PUSH1 0x40 MLOAD PUSH2 0xFD SWAP2 SWAP1 PUSH2 0x1FD2 JUMP JUMPDEST PUSH2 0xAE PUSH2 0x134 CALLDATASIZE PUSH1 0x4 PUSH2 0x207F JUMP JUMPDEST PUSH2 0x35C JUMP JUMPDEST PUSH2 0x14C PUSH2 0x147 CALLDATASIZE PUSH1 0x4 PUSH2 0x214F JUMP JUMPDEST PUSH2 0x63C JUMP JUMPDEST PUSH1 0x40 MLOAD PUSH2 0xFD SWAP2 SWAP1 PUSH2 0x2218 JUMP JUMPDEST PUSH2 0x161 PUSH0 SLOAD DUP2 JUMP JUMPDEST PUSH1 0x40 MLOAD SWAP1 DUP2 MSTORE PUSH1 0x20 ADD PUSH2 0xFD JUMP JUMPDEST PUSH1 0x6 SLOAD PUSH2 0x119 SWAP1 PUSH1 0x1 PUSH1 0x1 PUSH1 0xA0 SHL SUB AND DUP2 JUMP JUMPDEST PUSH2 0xAE PUSH2 0x190 CALLDATASIZE PUSH1 0x4 PUSH2 0x214F JUMP JUMPDEST PUSH2 0x7EA JUMP JUMPDEST PUSH2 0x1A8 PUSH2 0x1A3 CALLDATASIZE PUSH1 0x4 PUSH2 0x214F JUMP JUMPDEST PUSH2 0xE8F JUMP JUMPDEST PUSH1 0x40 MLOAD PUSH2 0xFD SWAP2 SWAP1 PUSH2 0x22FC JUMP JUMPDEST PUSH2 0x161 PUSH1 0x1 SLOAD DUP2 JUMP JUMPDEST PUSH2 0x119 PUSH2 0x1CC CALLDATASIZE PUSH1 0x4 PUSH2 0x230E JUMP JUMPDEST PUSH2 0xFAA JUMP JUMPDEST PUSH1 0x1 PUSH1 0x1 PUSH1 0xA0 SHL SUB DUP3 DUP2 AND PUSH0 SWAP1 DUP2 MSTORE PUSH1 0x3 PUSH1 0x20 MSTORE PUSH1 0x40 SWAP1 KECCAK256 SLOAD AND ISZERO PUSH2 0x259 JUMPI PUSH1 0x40 MLOAD PUSH3 0x461BCD PUSH1 0xE5 SHL DUP2 MSTORE PUSH1 0x20 PUSH1 0x4 DUP3 ADD MSTORE PUSH1 0x33 PUSH1 0x24 DUP3 ADD MSTORE PUSH32 0x6164644E6F64653A20496E76616C6964205F6E6F646541646472657373202D20 PUSH1 0x44 DUP3 ADD MSTORE PUSH19 0x4E6F646520416C726561647920657869737473 PUSH1 0x68 SHL PUSH1 0x64 DUP3 ADD MSTORE PUSH1 0x84 ADD JUMPDEST PUSH1 0x40 MLOAD DUP1 SWAP2 SUB SWAP1 REVERT JUMPDEST PUSH1 0x40 DUP1 MLOAD DUP1 DUP3 ADD DUP3 MSTORE PUSH1 0x1 PUSH1 0x1 PUSH1 0xA0 SHL SUB DUP5 DUP2 AND DUP1 DUP4 MSTORE PUSH1 0x20 DUP1 DUP5 ADD DUP7 DUP2 MSTORE PUSH0 SWAP3 DUP4 MSTORE PUSH1 0x3 SWAP1 SWAP2 MSTORE SWAP1 DUP5 SWAP1 KECCAK256 SWAP3 MLOAD DUP4 SLOAD PUSH1 0x1 PUSH1 0x1 PUSH1 0xA0 SHL SUB NOT AND SWAP3 AND SWAP2 SWAP1 SWAP2 OR DUP3 SSTORE MLOAD PUSH1 0x1 SWAP1 SWAP2 ADD SSTORE MLOAD PUSH0 DUP1 MLOAD PUSH1 0x20 PUSH2 0x2653 DUP4 CODECOPY DUP2 MLOAD SWAP2 MSTORE SWAP1 PUSH2 0x2BD SWAP1 DUP5 SWAP1 PUSH2 0x1FD2 JUMP JUMPDEST PUSH1 0x40 MLOAD DUP1 SWAP2 SUB SWAP1 LOG1 POP PUSH1 0x5 DUP1 SLOAD PUSH1 0x1 DUP2 ADD DUP3 SSTORE PUSH0 SWAP2 SWAP1 SWAP2 MSTORE PUSH32 0x36B6384B5ECA791C62761152D0C79BB0604C104A5FB6F4EB0703F3154BB3DB0 ADD DUP1 SLOAD PUSH1 0x1 PUSH1 0x1 PUSH1 0xA0 SHL SUB NOT AND PUSH1 0x1 PUSH1 0x1 PUSH1 0xA0 SHL SUB SWAP3 SWAP1 SWAP3 AND SWAP2 SWAP1 SWAP2 OR SWAP1 SSTORE JUMP JUMPDEST DUP2 MLOAD PUSH1 0x20 DUP2 DUP5 ADD DUP2 ADD DUP1 MLOAD PUSH1 0x4 DUP3 MSTORE SWAP3 DUP3 ADD SWAP2 DUP6 ADD SWAP2 SWAP1 SWAP2 KECCAK256 SWAP2 SWAP1 MSTORE DUP1 SLOAD DUP3 SWAP1 DUP2 LT PUSH2 0x341 JUMPI PUSH0 DUP1 REVERT JUMPDEST PUSH0 SWAP2 DUP3 MSTORE PUSH1 0x20 SWAP1 SWAP2 KECCAK256 ADD SLOAD PUSH1 0x1 PUSH1 0x1 PUSH1 0xA0 SHL SUB AND SWAP2 POP DUP3 SWAP1 POP JUMP JUMPDEST PUSH1 0x5 SLOAD PUSH1 0x40 DUP1 MLOAD PUSH1 0x60 DUP2 ADD SWAP1 SWAP2 MSTORE PUSH1 0x23 DUP1 DUP3 MSTORE SWAP2 ISZERO ISZERO SWAP2 PUSH2 0x2673 PUSH1 0x20 DUP4 ADD CODECOPY SWAP1 PUSH2 0x399 JUMPI PUSH1 0x40 MLOAD PUSH3 0x461BCD PUSH1 0xE5 SHL DUP2 MSTORE PUSH1 0x4 ADD PUSH2 0x250 SWAP2 SWAP1 PUSH2 0x2325 JUMP JUMPDEST POP PUSH0 PUSH2 0x3A4 DUP4 PUSH2 0xFD2 JUMP JUMPDEST EQ PUSH1 0x40 MLOAD DUP1 PUSH1 0x40 ADD PUSH1 0x40 MSTORE DUP1 PUSH1 0x1C DUP2 MSTORE PUSH1 0x20 ADD PUSH28 0x1CDD1BDC99519A5B194E88111D5C1B1A58D85D1948119A5B19481259 PUSH1 0x22 SHL DUP2 MSTORE POP SWAP1 PUSH2 0x3F8 JUMPI PUSH1 0x40 MLOAD PUSH3 0x461BCD PUSH1 0xE5 SHL DUP2 MSTORE PUSH1 0x4 ADD PUSH2 0x250 SWAP2 SWAP1 PUSH2 0x2325 JUMP JUMPDEST POP PUSH0 JUMPDEST DUP7 MLOAD DUP2 LT ISZERO PUSH2 0x603 JUMPI PUSH2 0x40F PUSH1 0x7 PUSH0 PUSH2 0x1DAC JUMP JUMPDEST PUSH0 DUP8 DUP3 DUP2 MLOAD DUP2 LT PUSH2 0x422 JUMPI PUSH2 0x422 PUSH2 0x2337 JUMP JUMPDEST PUSH1 0x20 MUL PUSH1 0x20 ADD ADD MLOAD MLOAD SWAP1 POP PUSH0 DUP1 DUP1 SLOAD SWAP1 POP PUSH1 0x3 PUSH1 0x5 DUP1 SLOAD SWAP1 POP LT ISZERO PUSH2 0x446 JUMPI POP PUSH1 0x5 SLOAD JUMPDEST PUSH2 0x47C PUSH1 0x40 MLOAD DUP1 PUSH1 0x40 ADD PUSH1 0x40 MSTORE DUP1 PUSH1 0x13 DUP2 MSTORE PUSH1 0x20 ADD PUSH19 0x111D5C1B1A58D85D1A5BDB881CDD185C9D1959 PUSH1 0x6A SHL DUP2 MSTORE POP DUP4 DUP4 PUSH2 0x1048 JUMP JUMPDEST DUP1 DUP3 LT ISZERO PUSH2 0x5F8 JUMPI PUSH0 PUSH2 0x4E7 DUP5 PUSH1 0x7 DUP1 SLOAD DUP1 PUSH1 0x20 MUL PUSH1 0x20 ADD PUSH1 0x40 MLOAD SWAP1 DUP2 ADD PUSH1 0x40 MSTORE DUP1 SWAP3 SWAP2 SWAP1 DUP2 DUP2 MSTORE PUSH1 0x20 ADD DUP3 DUP1 SLOAD DUP1 ISZERO PUSH2 0x4DD JUMPI PUSH1 0x20 MUL DUP3 ADD SWAP2 SWAP1 PUSH0 MSTORE PUSH1 0x20 PUSH0 KECCAK256 SWAP1 JUMPDEST DUP2 SLOAD PUSH1 0x1 PUSH1 0x1 PUSH1 0xA0 SHL SUB AND DUP2 MSTORE PUSH1 0x1 SWAP1 SWAP2 ADD SWAP1 PUSH1 0x20 ADD DUP1 DUP4 GT PUSH2 0x4BF JUMPI JUMPDEST POP POP POP POP POP PUSH2 0x1094 JUMP JUMPDEST SWAP1 POP PUSH0 DUP1 MLOAD PUSH1 0x20 PUSH2 0x2653 DUP4 CODECOPY DUP2 MLOAD SWAP2 MSTORE DUP2 PUSH1 0x40 MLOAD PUSH2 0x505 SWAP2 SWAP1 PUSH2 0x1FD2 JUMP JUMPDEST PUSH1 0x40 MLOAD DUP1 SWAP2 SUB SWAP1 LOG1 PUSH1 0x7 DUP1 SLOAD PUSH1 0x1 DUP2 ADD DUP3 SSTORE PUSH0 SWAP2 SWAP1 SWAP2 MSTORE PUSH32 0xA66CC928B5EDB82AF9BD49922954155AB7B0942694BEA4CE44661D9A8736C688 ADD DUP1 SLOAD PUSH1 0x1 PUSH1 0x1 PUSH1 0xA0 SHL SUB NOT AND PUSH1 0x1 PUSH1 0x1 PUSH1 0xA0 SHL SUB DUP4 AND OR SWAP1 SSTORE PUSH1 0x40 MLOAD PUSH32 0xB011A0DA2BACC57F5C2DDF79F5C8E86484A4FC528F15571A48A9D47956BC82BE SWAP1 PUSH2 0x587 SWAP1 DUP4 SWAP1 PUSH2 0x1FD2 JUMP JUMPDEST PUSH1 0x40 MLOAD DUP1 SWAP2 SUB SWAP1 LOG1 DUP3 PUSH2 0x599 DUP2 PUSH2 0x235F JUMP JUMPDEST SWAP4 POP POP PUSH2 0x5C1 DUP2 DUP13 DUP8 DUP2 MLOAD DUP2 LT PUSH2 0x5B2 JUMPI PUSH2 0x5B2 PUSH2 0x2337 JUMP JUMPDEST PUSH1 0x20 MUL PUSH1 0x20 ADD ADD MLOAD DUP10 DUP9 PUSH2 0x1210 JUMP JUMPDEST PUSH1 0x1 PUSH1 0x1 PUSH1 0xA0 SHL SUB DUP2 AND PUSH0 SWAP1 DUP2 MSTORE PUSH1 0x3 PUSH1 0x20 MSTORE PUSH1 0x40 SWAP1 KECCAK256 PUSH1 0x1 ADD SLOAD PUSH2 0x5F2 SWAP1 DUP3 SWAP1 PUSH2 0x5ED SWAP1 DUP8 SWAP1 PUSH2 0x2377 JUMP JUMPDEST PUSH2 0x1367 JUMP JUMPDEST POP PUSH2 0x47C JUMP JUMPDEST POP POP POP PUSH1 0x1 ADD PUSH2 0x3FB JUMP JUMPDEST POP PUSH2 0x60F PUSH1 0x7 PUSH0 PUSH2 0x1DAC JUMP JUMPDEST PUSH0 PUSH2 0x619 DUP8 PUSH2 0x141C JUMP JUMPDEST SWAP1 POP PUSH2 0x625 DUP2 DUP5 PUSH2 0x148C JUMP JUMPDEST PUSH2 0x633 DUP7 DUP7 DUP4 DUP8 DUP8 DUP8 PUSH2 0x159B JUMP JUMPDEST POP POP POP POP POP POP POP JUMP JUMPDEST PUSH2 0x644 PUSH2 0x1DC7 JUMP JUMPDEST PUSH0 PUSH2 0x64D PUSH2 0x1849 JUMP JUMPDEST SWAP1 POP PUSH0 JUMPDEST DUP2 MLOAD DUP2 LT ISZERO PUSH2 0x734 JUMPI PUSH2 0x680 DUP3 DUP3 DUP2 MLOAD DUP2 LT PUSH2 0x66F JUMPI PUSH2 0x66F PUSH2 0x2337 JUMP JUMPDEST PUSH1 0x20 MUL PUSH1 0x20 ADD ADD MLOAD PUSH0 ADD MLOAD DUP6 PUSH2 0x1B5D JUMP JUMPDEST ISZERO PUSH2 0x72C JUMPI DUP2 DUP2 DUP2 MLOAD DUP2 LT PUSH2 0x697 JUMPI PUSH2 0x697 PUSH2 0x2337 JUMP JUMPDEST PUSH1 0x20 MUL PUSH1 0x20 ADD ADD MLOAD PUSH1 0xC0 ADD MLOAD PUSH1 0x1 PUSH1 0x1 PUSH1 0xA0 SHL SUB AND CALLER PUSH1 0x1 PUSH1 0x1 PUSH1 0xA0 SHL SUB AND EQ PUSH1 0x40 MLOAD DUP1 PUSH1 0x60 ADD PUSH1 0x40 MSTORE DUP1 PUSH1 0x30 DUP2 MSTORE PUSH1 0x20 ADD PUSH2 0x26FE PUSH1 0x30 SWAP2 CODECOPY SWAP1 PUSH2 0x6EE JUMPI PUSH1 0x40 MLOAD PUSH3 0x461BCD PUSH1 0xE5 SHL DUP2 MSTORE PUSH1 0x4 ADD PUSH2 0x250 SWAP2 SWAP1 PUSH2 0x2325 JUMP JUMPDEST POP PUSH1 0x40 MLOAD DUP1 PUSH1 0x40 ADD PUSH1 0x40 MSTORE DUP1 DUP4 DUP4 DUP2 MLOAD DUP2 LT PUSH2 0x70C JUMPI PUSH2 0x70C PUSH2 0x2337 JUMP JUMPDEST PUSH1 0x20 MUL PUSH1 0x20 ADD ADD MLOAD DUP2 MSTORE PUSH1 0x20 ADD PUSH2 0x722 DUP7 PUSH2 0xE8F JUMP JUMPDEST SWAP1 MSTORE SWAP5 SWAP4 POP POP POP POP JUMP JUMPDEST PUSH1 0x1 ADD PUSH2 0x651 JUMP JUMPDEST POP PUSH0 PUSH1 0x40 MLOAD DUP1 PUSH1 0x60 ADD PUSH1 0x40 MSTORE DUP1 PUSH1 0x23 DUP2 MSTORE PUSH1 0x20 ADD PUSH2 0x26DB PUSH1 0x23 SWAP2 CODECOPY SWAP1 PUSH2 0x76D JUMPI PUSH1 0x40 MLOAD PUSH3 0x461BCD PUSH1 0xE5 SHL DUP2 MSTORE PUSH1 0x4 ADD PUSH2 0x250 SWAP2 SWAP1 PUSH2 0x2325 JUMP JUMPDEST POP POP PUSH1 0x40 DUP1 MLOAD PUSH2 0x120 DUP2 ADD DUP3 MSTORE PUSH0 PUSH2 0x100 DUP3 ADD DUP2 DUP2 MSTORE DUP3 MSTORE DUP3 MLOAD PUSH1 0x20 DUP2 DUP2 ADD DUP6 MSTORE DUP3 DUP3 MSTORE DUP1 DUP5 ADD SWAP2 SWAP1 SWAP2 MSTORE DUP4 MLOAD DUP1 DUP3 ADD DUP6 MSTORE DUP3 DUP2 MSTORE DUP4 DUP6 ADD MSTORE PUSH1 0x60 DUP4 DUP2 ADD DUP4 SWAP1 MSTORE PUSH1 0x80 DUP5 ADD DUP4 SWAP1 MSTORE PUSH1 0xA0 DUP5 ADD DUP4 SWAP1 MSTORE PUSH1 0xC0 DUP5 ADD DUP4 SWAP1 MSTORE DUP5 MLOAD DUP1 DUP4 ADD DUP7 MSTORE SWAP3 DUP4 MSTORE PUSH1 0xE0 DUP5 ADD SWAP3 SWAP1 SWAP3 MSTORE DUP4 MLOAD DUP1 DUP6 ADD SWAP1 SWAP5 MSTORE SWAP2 DUP4 MSTORE SWAP1 DUP3 ADD MSTORE SWAP3 SWAP2 POP POP JUMP JUMPDEST CALLER PUSH0 SWAP1 DUP2 MSTORE PUSH1 0x8 PUSH1 0x20 SWAP1 DUP2 MSTORE PUSH1 0x40 SWAP2 DUP3 SWAP1 KECCAK256 SLOAD DUP3 MLOAD DUP1 DUP5 ADD SWAP1 SWAP4 MSTORE PUSH1 0x1B DUP4 MSTORE PUSH27 0x19195B195D19519A5B194E88125B9D985B1A5908199A5B19481A59 PUSH1 0x2A SHL SWAP2 DUP4 ADD SWAP2 SWAP1 SWAP2 MSTORE PUSH2 0x84C JUMPI PUSH1 0x40 MLOAD PUSH3 0x461BCD PUSH1 0xE5 SHL DUP2 MSTORE PUSH1 0x4 ADD PUSH2 0x250 SWAP2 SWAP1 PUSH2 0x2325 JUMP JUMPDEST POP CALLER PUSH0 SWAP1 DUP2 MSTORE PUSH1 0x8 PUSH1 0x20 SWAP1 DUP2 MSTORE PUSH1 0x40 DUP1 DUP4 KECCAK256 DUP1 SLOAD DUP3 MLOAD DUP2 DUP6 MUL DUP2 ADD DUP6 ADD SWAP1 SWAP4 MSTORE DUP1 DUP4 MSTORE SWAP2 SWAP3 SWAP1 SWAP2 SWAP1 DUP5 SWAP1 DUP5 ADD JUMPDEST DUP3 DUP3 LT ISZERO PUSH2 0xB1E JUMPI DUP4 DUP3 SWAP1 PUSH0 MSTORE PUSH1 0x20 PUSH0 KECCAK256 SWAP1 PUSH1 0x8 MUL ADD PUSH1 0x40 MLOAD DUP1 PUSH2 0x100 ADD PUSH1 0x40 MSTORE SWAP1 DUP2 PUSH0 DUP3 ADD DUP1 SLOAD PUSH2 0x8AA SWAP1 PUSH2 0x238A JUMP JUMPDEST DUP1 PUSH1 0x1F ADD PUSH1 0x20 DUP1 SWAP2 DIV MUL PUSH1 0x20 ADD PUSH1 0x40 MLOAD SWAP1 DUP2 ADD PUSH1 0x40 MSTORE DUP1 SWAP3 SWAP2 SWAP1 DUP2 DUP2 MSTORE PUSH1 0x20 ADD DUP3 DUP1 SLOAD PUSH2 0x8D6 SWAP1 PUSH2 0x238A JUMP JUMPDEST DUP1 ISZERO PUSH2 0x921 JUMPI DUP1 PUSH1 0x1F LT PUSH2 0x8F8 JUMPI PUSH2 0x100 DUP1 DUP4 SLOAD DIV MUL DUP4 MSTORE SWAP2 PUSH1 0x20 ADD SWAP2 PUSH2 0x921 JUMP JUMPDEST DUP3 ADD SWAP2 SWAP1 PUSH0 MSTORE PUSH1 0x20 PUSH0 KECCAK256 SWAP1 JUMPDEST DUP2 SLOAD DUP2 MSTORE SWAP1 PUSH1 0x1 ADD SWAP1 PUSH1 0x20 ADD DUP1 DUP4 GT PUSH2 0x904 JUMPI DUP3 SWAP1 SUB PUSH1 0x1F AND DUP3 ADD SWAP2 JUMPDEST POP POP POP POP POP DUP2 MSTORE PUSH1 0x20 ADD PUSH1 0x1 DUP3 ADD DUP1 SLOAD PUSH2 0x93A SWAP1 PUSH2 0x238A JUMP JUMPDEST DUP1 PUSH1 0x1F ADD PUSH1 0x20 DUP1 SWAP2 DIV MUL PUSH1 0x20 ADD PUSH1 0x40 MLOAD SWAP1 DUP2 ADD PUSH1 0x40 MSTORE DUP1 SWAP3 SWAP2 SWAP1 DUP2 DUP2 MSTORE PUSH1 0x20 ADD DUP3 DUP1 SLOAD PUSH2 0x966 SWAP1 PUSH2 0x238A JUMP JUMPDEST DUP1 ISZERO PUSH2 0x9B1 JUMPI DUP1 PUSH1 0x1F LT PUSH2 0x988 JUMPI PUSH2 0x100 DUP1 DUP4 SLOAD DIV MUL DUP4 MSTORE SWAP2 PUSH1 0x20 ADD SWAP2 PUSH2 0x9B1 JUMP JUMPDEST DUP3 ADD SWAP2 SWAP1 PUSH0 MSTORE PUSH1 0x20 PUSH0 KECCAK256 SWAP1 JUMPDEST DUP2 SLOAD DUP2 MSTORE SWAP1 PUSH1 0x1 ADD SWAP1 PUSH1 0x20 ADD DUP1 DUP4 GT PUSH2 0x994 JUMPI DUP3 SWAP1 SUB PUSH1 0x1F AND DUP3 ADD SWAP2 JUMPDEST POP POP POP POP POP DUP2 MSTORE PUSH1 0x20 ADD PUSH1 0x2 DUP3 ADD DUP1 SLOAD PUSH2 0x9CA SWAP1 PUSH2 0x238A JUMP JUMPDEST DUP1 PUSH1 0x1F ADD PUSH1 0x20 DUP1 SWAP2 DIV MUL PUSH1 0x20 ADD PUSH1 0x40 MLOAD SWAP1 DUP2 ADD PUSH1 0x40 MSTORE DUP1 SWAP3 SWAP2 SWAP1 DUP2 DUP2 MSTORE PUSH1 0x20 ADD DUP3 DUP1 SLOAD PUSH2 0x9F6 SWAP1 PUSH2 0x238A JUMP JUMPDEST DUP1 ISZERO PUSH2 0xA41 JUMPI DUP1 PUSH1 0x1F LT PUSH2 0xA18 JUMPI PUSH2 0x100 DUP1 DUP4 SLOAD DIV MUL DUP4 MSTORE SWAP2 PUSH1 0x20 ADD SWAP2 PUSH2 0xA41 JUMP JUMPDEST DUP3 ADD SWAP2 SWAP1 PUSH0 MSTORE PUSH1 0x20 PUSH0 KECCAK256 SWAP1 JUMPDEST DUP2 SLOAD DUP2 MSTORE SWAP1 PUSH1 0x1 ADD SWAP1 PUSH1 0x20 ADD DUP1 DUP4 GT PUSH2 0xA24 JUMPI DUP3 SWAP1 SUB PUSH1 0x1F AND DUP3 ADD SWAP2 JUMPDEST POP POP POP SWAP2 DUP4 MSTORE POP POP PUSH1 0x3 DUP3 ADD SLOAD PUSH1 0x20 DUP3 ADD MSTORE PUSH1 0x4 DUP3 ADD SLOAD PUSH1 0x40 DUP3 ADD MSTORE PUSH1 0x5 DUP3 ADD SLOAD PUSH1 0x60 DUP3 ADD MSTORE PUSH1 0x6 DUP3 ADD SLOAD PUSH1 0x1 PUSH1 0x1 PUSH1 0xA0 SHL SUB AND PUSH1 0x80 DUP3 ADD MSTORE PUSH1 0x7 DUP3 ADD DUP1 SLOAD PUSH1 0xA0 SWAP1 SWAP3 ADD SWAP2 PUSH2 0xA8F SWAP1 PUSH2 0x238A JUMP JUMPDEST DUP1 PUSH1 0x1F ADD PUSH1 0x20 DUP1 SWAP2 DIV MUL PUSH1 0x20 ADD PUSH1 0x40 MLOAD SWAP1 DUP2 ADD PUSH1 0x40 MSTORE DUP1 SWAP3 SWAP2 SWAP1 DUP2 DUP2 MSTORE PUSH1 0x20 ADD DUP3 DUP1 SLOAD PUSH2 0xABB SWAP1 PUSH2 0x238A JUMP JUMPDEST DUP1 ISZERO PUSH2 0xB06 JUMPI DUP1 PUSH1 0x1F LT PUSH2 0xADD JUMPI PUSH2 0x100 DUP1 DUP4 SLOAD DIV MUL DUP4 MSTORE SWAP2 PUSH1 0x20 ADD SWAP2 PUSH2 0xB06 JUMP JUMPDEST DUP3 ADD SWAP2 SWAP1 PUSH0 MSTORE PUSH1 0x20 PUSH0 KECCAK256 SWAP1 JUMPDEST DUP2 SLOAD DUP2 MSTORE SWAP1 PUSH1 0x1 ADD SWAP1 PUSH1 0x20 ADD DUP1 DUP4 GT PUSH2 0xAE9 JUMPI DUP3 SWAP1 SUB PUSH1 0x1F AND DUP3 ADD SWAP2 JUMPDEST POP POP POP POP POP DUP2 MSTORE POP POP DUP2 MSTORE PUSH1 0x20 ADD SWAP1 PUSH1 0x1 ADD SWAP1 PUSH2 0x879 JUMP JUMPDEST POP POP POP POP SWAP1 POP PUSH0 PUSH1 0x1 DUP3 MLOAD PUSH2 0xB33 SWAP2 SWAP1 PUSH2 0x2377 JUMP JUMPDEST SWAP1 POP PUSH0 DUP3 DUP3 DUP2 MLOAD DUP2 LT PUSH2 0xB48 JUMPI PUSH2 0xB48 PUSH2 0x2337 JUMP JUMPDEST PUSH1 0x20 MUL PUSH1 0x20 ADD ADD MLOAD SWAP1 POP PUSH2 0xB5A PUSH2 0x1DE7 JUMP JUMPDEST PUSH0 DUP1 JUMPDEST DUP6 MLOAD DUP2 LT ISZERO PUSH2 0xC93 JUMPI PUSH2 0xB8C DUP7 DUP3 DUP2 MLOAD DUP2 LT PUSH2 0xB7B JUMPI PUSH2 0xB7B PUSH2 0x2337 JUMP JUMPDEST PUSH1 0x20 MUL PUSH1 0x20 ADD ADD MLOAD PUSH0 ADD MLOAD DUP9 PUSH2 0x1B5D JUMP JUMPDEST ISZERO PUSH2 0xC8B JUMPI PUSH1 0x1 SWAP2 POP DUP6 DUP2 DUP2 MLOAD DUP2 LT PUSH2 0xBA7 JUMPI PUSH2 0xBA7 PUSH2 0x2337 JUMP JUMPDEST PUSH1 0x20 MUL PUSH1 0x20 ADD ADD MLOAD SWAP3 POP DUP4 PUSH1 0x8 PUSH0 CALLER PUSH1 0x1 PUSH1 0x1 PUSH1 0xA0 SHL SUB AND PUSH1 0x1 PUSH1 0x1 PUSH1 0xA0 SHL SUB AND DUP2 MSTORE PUSH1 0x20 ADD SWAP1 DUP2 MSTORE PUSH1 0x20 ADD PUSH0 KECCAK256 DUP3 DUP2 SLOAD DUP2 LT PUSH2 0xBE6 JUMPI PUSH2 0xBE6 PUSH2 0x2337 JUMP JUMPDEST PUSH0 SWAP2 DUP3 MSTORE PUSH1 0x20 SWAP1 SWAP2 KECCAK256 DUP3 MLOAD PUSH1 0x8 SWAP1 SWAP3 MUL ADD SWAP1 DUP2 SWAP1 PUSH2 0xC04 SWAP1 DUP3 PUSH2 0x240D JUMP JUMPDEST POP PUSH1 0x20 DUP3 ADD MLOAD PUSH1 0x1 DUP3 ADD SWAP1 PUSH2 0xC19 SWAP1 DUP3 PUSH2 0x240D JUMP JUMPDEST POP PUSH1 0x40 DUP3 ADD MLOAD PUSH1 0x2 DUP3 ADD SWAP1 PUSH2 0xC2E SWAP1 DUP3 PUSH2 0x240D JUMP JUMPDEST POP PUSH1 0x60 DUP3 ADD MLOAD PUSH1 0x3 DUP3 ADD SSTORE PUSH1 0x80 DUP3 ADD MLOAD PUSH1 0x4 DUP3 ADD SSTORE PUSH1 0xA0 DUP3 ADD MLOAD PUSH1 0x5 DUP3 ADD SSTORE PUSH1 0xC0 DUP3 ADD MLOAD PUSH1 0x6 DUP3 ADD DUP1 SLOAD PUSH1 0x1 PUSH1 0x1 PUSH1 0xA0 SHL SUB NOT AND PUSH1 0x1 PUSH1 0x1 PUSH1 0xA0 SHL SUB SWAP1 SWAP3 AND SWAP2 SWAP1 SWAP2 OR SWAP1 SSTORE PUSH1 0xE0 DUP3 ADD MLOAD PUSH1 0x7 DUP3 ADD SWAP1 PUSH2 0xC87 SWAP1 DUP3 PUSH2 0x240D JUMP JUMPDEST POP POP POP JUMPDEST PUSH1 0x1 ADD PUSH2 0xB5D JUMP JUMPDEST POP PUSH1 0x40 DUP1 MLOAD DUP1 DUP3 ADD SWAP1 SWAP2 MSTORE PUSH1 0x1A DUP2 MSTORE PUSH26 0x19195B195D19519A5B194E88119A5B1948139BDD08199BDD5B99 PUSH1 0x32 SHL PUSH1 0x20 DUP3 ADD MSTORE DUP2 PUSH2 0xCE3 JUMPI PUSH1 0x40 MLOAD PUSH3 0x461BCD PUSH1 0xE5 SHL DUP2 MSTORE PUSH1 0x4 ADD PUSH2 0x250 SWAP2 SWAP1 PUSH2 0x2325 JUMP JUMPDEST POP CALLER PUSH0 SWAP1 DUP2 MSTORE PUSH1 0x8 PUSH1 0x20 MSTORE PUSH1 0x40 SWAP1 KECCAK256 DUP1 SLOAD DUP4 SWAP2 SWAP1 DUP7 SWAP1 DUP2 LT PUSH2 0xD07 JUMPI PUSH2 0xD07 PUSH2 0x2337 JUMP JUMPDEST PUSH0 SWAP2 DUP3 MSTORE PUSH1 0x20 SWAP1 SWAP2 KECCAK256 DUP3 MLOAD PUSH1 0x8 SWAP1 SWAP3 MUL ADD SWAP1 DUP2 SWAP1 PUSH2 0xD25 SWAP1 DUP3 PUSH2 0x240D JUMP JUMPDEST POP PUSH1 0x20 DUP3 ADD MLOAD PUSH1 0x1 DUP3 ADD SWAP1 PUSH2 0xD3A SWAP1 DUP3 PUSH2 0x240D JUMP JUMPDEST POP PUSH1 0x40 DUP3 ADD MLOAD PUSH1 0x2 DUP3 ADD SWAP1 PUSH2 0xD4F SWAP1 DUP3 PUSH2 0x240D JUMP JUMPDEST POP PUSH1 0x60 DUP3 ADD MLOAD PUSH1 0x3 DUP3 ADD SSTORE PUSH1 0x80 DUP3 ADD MLOAD PUSH1 0x4 DUP3 ADD SSTORE PUSH1 0xA0 DUP3 ADD MLOAD PUSH1 0x5 DUP3 ADD SSTORE PUSH1 0xC0 DUP3 ADD MLOAD PUSH1 0x6 DUP3 ADD DUP1 SLOAD PUSH1 0x1 PUSH1 0x1 PUSH1 0xA0 SHL SUB NOT AND PUSH1 0x1 PUSH1 0x1 PUSH1 0xA0 SHL SUB SWAP1 SWAP3 AND SWAP2 SWAP1 SWAP2 OR SWAP1 SSTORE PUSH1 0xE0 DUP3 ADD MLOAD PUSH1 0x7 DUP3 ADD SWAP1 PUSH2 0xDA8 SWAP1 DUP3 PUSH2 0x240D JUMP JUMPDEST POP POP CALLER PUSH0 SWAP1 DUP2 MSTORE PUSH1 0x8 PUSH1 0x20 MSTORE PUSH1 0x40 SWAP1 KECCAK256 DUP1 SLOAD SWAP1 SWAP2 POP DUP1 PUSH2 0xDCA JUMPI PUSH2 0xDCA PUSH2 0x24CC JUMP JUMPDEST PUSH0 DUP3 DUP2 MSTORE PUSH1 0x20 DUP2 KECCAK256 PUSH0 NOT SWAP1 SWAP3 ADD SWAP2 PUSH1 0x8 DUP4 MUL ADD SWAP1 PUSH2 0xDE8 DUP3 DUP3 PUSH2 0x1E34 JUMP JUMPDEST PUSH2 0xDF5 PUSH1 0x1 DUP4 ADD PUSH0 PUSH2 0x1E34 JUMP JUMPDEST PUSH2 0xE02 PUSH1 0x2 DUP4 ADD PUSH0 PUSH2 0x1E34 JUMP JUMPDEST PUSH0 PUSH1 0x3 DUP4 ADD DUP2 SWAP1 SSTORE PUSH1 0x4 DUP4 ADD DUP2 SWAP1 SSTORE PUSH1 0x5 DUP4 ADD DUP2 SWAP1 SSTORE PUSH1 0x6 DUP4 ADD DUP1 SLOAD PUSH1 0x1 PUSH1 0x1 PUSH1 0xA0 SHL SUB NOT AND SWAP1 SSTORE PUSH2 0xE38 SWAP1 PUSH1 0x7 DUP5 ADD SWAP1 PUSH2 0x1E34 JUMP JUMPDEST POP POP SWAP1 SSTORE PUSH2 0xE45 DUP7 PUSH2 0x1BB5 JUMP JUMPDEST PUSH2 0xE4E DUP7 PUSH2 0x1C3C JUMP JUMPDEST PUSH32 0x8598A19145BA7B62366F9F3E3CECA438DF1E575FFA3BEF982ED120041131D786 CALLER DUP8 PUSH1 0x40 MLOAD PUSH2 0xE7F SWAP3 SWAP2 SWAP1 PUSH2 0x24E0 JUMP JUMPDEST PUSH1 0x40 MLOAD DUP1 SWAP2 SUB SWAP1 LOG1 POP POP POP POP POP POP JUMP JUMPDEST PUSH1 0x60 PUSH0 PUSH1 0x4 DUP4 PUSH1 0x40 MLOAD PUSH2 0xEA2 SWAP2 SWAP1 PUSH2 0x2503 JUMP JUMPDEST SWAP1 DUP2 MSTORE PUSH1 0x40 MLOAD SWAP1 DUP2 SWAP1 SUB PUSH1 0x20 ADD SWAP1 KECCAK256 SLOAD GT PUSH2 0xF34 JUMPI PUSH1 0x40 MLOAD PUSH3 0x461BCD PUSH1 0xE5 SHL DUP2 MSTORE PUSH1 0x20 PUSH1 0x4 DUP3 ADD MSTORE PUSH1 0x46 PUSH1 0x24 DUP3 ADD MSTORE PUSH32 0x72657472696576654368756E6B4E6F64654164647265737365733A20496E7661 PUSH1 0x44 DUP3 ADD MSTORE PUSH32 0x6C6964205F6E6F646541646472657373202D204E6F646520446F6573204E4F54 PUSH1 0x64 DUP3 ADD MSTORE PUSH6 0x8195E1A5CDD PUSH1 0xD2 SHL PUSH1 0x84 DUP3 ADD MSTORE PUSH1 0xA4 ADD PUSH2 0x250 JUMP JUMPDEST PUSH1 0x4 DUP3 PUSH1 0x40 MLOAD PUSH2 0xF44 SWAP2 SWAP1 PUSH2 0x2503 JUMP JUMPDEST SWAP1 DUP2 MSTORE PUSH1 0x40 DUP1 MLOAD SWAP2 DUP3 SWAP1 SUB PUSH1 0x20 SWAP1 DUP2 ADD DUP4 KECCAK256 DUP1 SLOAD DUP1 DUP4 MUL DUP6 ADD DUP4 ADD SWAP1 SWAP4 MSTORE DUP3 DUP5 MSTORE SWAP2 SWAP1 DUP4 ADD DUP3 DUP3 DUP1 ISZERO PUSH2 0xF9E JUMPI PUSH1 0x20 MUL DUP3 ADD SWAP2 SWAP1 PUSH0 MSTORE PUSH1 0x20 PUSH0 KECCAK256 SWAP1 JUMPDEST DUP2 SLOAD PUSH1 0x1 PUSH1 0x1 PUSH1 0xA0 SHL SUB AND DUP2 MSTORE PUSH1 0x1 SWAP1 SWAP2 ADD SWAP1 PUSH1 0x20 ADD DUP1 DUP4 GT PUSH2 0xF80 JUMPI JUMPDEST POP POP POP POP POP SWAP1 POP SWAP2 SWAP1 POP JUMP JUMPDEST PUSH1 0x5 DUP2 DUP2 SLOAD DUP2 LT PUSH2 0xFB9 JUMPI PUSH0 DUP1 REVERT JUMPDEST PUSH0 SWAP2 DUP3 MSTORE PUSH1 0x20 SWAP1 SWAP2 KECCAK256 ADD SLOAD PUSH1 0x1 PUSH1 0x1 PUSH1 0xA0 SHL SUB AND SWAP1 POP DUP2 JUMP JUMPDEST PUSH0 DUP1 DUP3 MLOAD GT PUSH2 0x1022 JUMPI PUSH1 0x40 MLOAD PUSH3 0x461BCD PUSH1 0xE5 SHL DUP2 MSTORE PUSH1 0x20 PUSH1 0x4 DUP3 ADD MSTORE PUSH1 0x1C PUSH1 0x24 DUP3 ADD MSTORE PUSH28 0x19D95D119A5B1952185CDA0E88125B9D985B1A590817D99A5B195259 PUSH1 0x22 SHL PUSH1 0x44 DUP3 ADD MSTORE PUSH1 0x64 ADD PUSH2 0x250 JUMP JUMPDEST PUSH1 0x2 DUP3 PUSH1 0x40 MLOAD PUSH2 0x1032 SWAP2 SWAP1 PUSH2 0x2503 JUMP JUMPDEST SWAP1 DUP2 MSTORE PUSH1 0x20 ADD PUSH1 0x40 MLOAD DUP1 SWAP2 SUB SWAP1 KECCAK256 SLOAD SWAP1 POP SWAP2 SWAP1 POP JUMP JUMPDEST PUSH2 0x108F DUP4 DUP4 DUP4 PUSH1 0x40 MLOAD PUSH1 0x24 ADD PUSH2 0x1060 SWAP4 SWAP3 SWAP2 SWAP1 PUSH2 0x251E JUMP JUMPDEST PUSH1 0x40 DUP1 MLOAD PUSH1 0x1F NOT DUP2 DUP5 SUB ADD DUP2 MSTORE SWAP2 SWAP1 MSTORE PUSH1 0x20 DUP2 ADD DUP1 MLOAD PUSH1 0x1 PUSH1 0x1 PUSH1 0xE0 SHL SUB AND PUSH4 0xCA47C4EB PUSH1 0xE0 SHL OR SWAP1 MSTORE PUSH2 0x1D2B JUMP JUMPDEST POP POP POP JUMP JUMPDEST PUSH1 0x5 SLOAD PUSH0 SWAP1 PUSH1 0x32 DUP2 DUP4 SUB PUSH2 0x10AC JUMPI PUSH0 SWAP3 POP POP POP PUSH2 0x120A JUMP JUMPDEST PUSH0 DUP3 PUSH2 0x10B9 PUSH1 0x1 NUMBER PUSH2 0x2377 JUMP JUMPDEST PUSH2 0x10C4 SWAP2 SWAP1 BLOCKHASH PUSH2 0x2542 JUMP JUMPDEST SWAP1 POP PUSH0 DUP1 PUSH2 0x3E8 JUMPDEST DUP1 DUP3 LT ISZERO PUSH2 0x1200 JUMPI PUSH0 PUSH1 0x5 DUP8 PUSH2 0x10E2 DUP7 DUP9 PUSH2 0x2561 JUMP JUMPDEST PUSH2 0x10EC SWAP2 SWAP1 PUSH2 0x2542 JUMP JUMPDEST DUP2 SLOAD DUP2 LT PUSH2 0x10FC JUMPI PUSH2 0x10FC PUSH2 0x2337 JUMP JUMPDEST PUSH0 SWAP2 DUP3 MSTORE PUSH1 0x20 SWAP2 DUP3 SWAP1 KECCAK256 ADD SLOAD PUSH1 0x40 MLOAD DUP8 DUP2 MSTORE PUSH1 0x1 PUSH1 0x1 PUSH1 0xA0 SHL SUB SWAP1 SWAP2 AND SWAP3 POP PUSH32 0x838D04243391D45D94A98FFF54D1737CBFFEA86C34AB825E5D6980EC9B77235 SWAP2 ADD PUSH1 0x40 MLOAD DUP1 SWAP2 SUB SWAP1 LOG1 PUSH2 0x1150 DUP7 DUP12 PUSH2 0x2561 JUMP JUMPDEST PUSH1 0x1 PUSH1 0x1 PUSH1 0xA0 SHL SUB DUP3 AND PUSH0 SWAP1 DUP2 MSTORE PUSH1 0x3 PUSH1 0x20 MSTORE PUSH1 0x40 SWAP1 KECCAK256 PUSH1 0x1 ADD SLOAD GT ISZERO PUSH2 0x11D4 JUMPI PUSH1 0x1 PUSH0 JUMPDEST DUP11 MLOAD DUP2 LT ISZERO PUSH2 0x11BC JUMPI DUP3 PUSH1 0x1 PUSH1 0x1 PUSH1 0xA0 SHL SUB AND DUP12 DUP3 DUP2 MLOAD DUP2 LT PUSH2 0x119A JUMPI PUSH2 0x119A PUSH2 0x2337 JUMP JUMPDEST PUSH1 0x20 MUL PUSH1 0x20 ADD ADD MLOAD PUSH1 0x1 PUSH1 0x1 PUSH1 0xA0 SHL SUB AND SUB PUSH2 0x11B4 JUMPI PUSH0 SWAP2 POP JUMPDEST PUSH1 0x1 ADD PUSH2 0x1175 JUMP JUMPDEST POP DUP1 ISZERO PUSH2 0x11D2 JUMPI POP SWAP7 POP PUSH2 0x120A SWAP6 POP POP POP POP POP POP JUMP JUMPDEST POP JUMPDEST DUP4 PUSH2 0x11DE DUP2 PUSH2 0x235F JUMP JUMPDEST SWAP5 POP POP DUP3 DUP1 PUSH2 0x11EC SWAP1 PUSH2 0x235F JUMP JUMPDEST SWAP4 POP POP DUP7 DUP5 SUB PUSH2 0x11FA JUMPI PUSH0 SWAP4 POP JUMPDEST POP PUSH2 0x10CC JUMP JUMPDEST PUSH0 SWAP7 POP POP POP POP POP POP POP JUMPDEST SWAP3 SWAP2 POP POP JUMP JUMPDEST PUSH1 0x1 PUSH1 0x1 PUSH1 0xA0 SHL SUB DUP5 DUP2 AND PUSH0 SWAP1 DUP2 MSTORE PUSH1 0x3 PUSH1 0x20 MSTORE PUSH1 0x40 SWAP1 KECCAK256 SLOAD AND PUSH2 0x129B JUMPI PUSH1 0x40 MLOAD PUSH3 0x461BCD PUSH1 0xE5 SHL DUP2 MSTORE PUSH1 0x20 PUSH1 0x4 DUP3 ADD MSTORE PUSH1 0x3C PUSH1 0x24 DUP3 ADD MSTORE PUSH32 0x73746F72654368756E6B496E4E6F64653A20496E76616C6964205F6E6F646541 PUSH1 0x44 DUP3 ADD MSTORE PUSH28 0x19191C995CDCC80B48139BD91948111BD95CC81393D508195E1A5CDD PUSH1 0x22 SHL PUSH1 0x64 DUP3 ADD MSTORE PUSH1 0x84 ADD PUSH2 0x250 JUMP JUMPDEST PUSH2 0x1313 DUP5 PUSH1 0x4 DUP5 PUSH1 0x40 MLOAD PUSH2 0x12AF SWAP2 SWAP1 PUSH2 0x2503 JUMP JUMPDEST SWAP1 DUP2 MSTORE PUSH1 0x40 DUP1 MLOAD SWAP2 DUP3 SWAP1 SUB PUSH1 0x20 SWAP1 DUP2 ADD DUP4 KECCAK256 DUP1 SLOAD DUP1 DUP4 MUL DUP6 ADD DUP4 ADD SWAP1 SWAP4 MSTORE DUP3 DUP5 MSTORE SWAP2 SWAP1 DUP4 ADD DUP3 DUP3 DUP1 ISZERO PUSH2 0x1309 JUMPI PUSH1 0x20 MUL DUP3 ADD SWAP2 SWAP1 PUSH0 MSTORE PUSH1 0x20 PUSH0 KECCAK256 SWAP1 JUMPDEST DUP2 SLOAD PUSH1 0x1 PUSH1 0x1 PUSH1 0xA0 SHL SUB AND DUP2 MSTORE PUSH1 0x1 SWAP1 SWAP2 ADD SWAP1 PUSH1 0x20 ADD DUP1 DUP4 GT PUSH2 0x12EB JUMPI JUMPDEST POP POP POP POP POP PUSH2 0x1D34 JUMP JUMPDEST PUSH2 0x1361 JUMPI PUSH1 0x4 DUP3 PUSH1 0x40 MLOAD PUSH2 0x1327 SWAP2 SWAP1 PUSH2 0x2503 JUMP JUMPDEST SWAP1 DUP2 MSTORE PUSH1 0x40 MLOAD PUSH1 0x20 SWAP2 DUP2 SWAP1 SUB DUP3 ADD SWAP1 KECCAK256 DUP1 SLOAD PUSH1 0x1 DUP2 ADD DUP3 SSTORE PUSH0 SWAP2 DUP3 MSTORE SWAP2 SWAP1 KECCAK256 ADD DUP1 SLOAD PUSH1 0x1 PUSH1 0x1 PUSH1 0xA0 SHL SUB NOT AND PUSH1 0x1 PUSH1 0x1 PUSH1 0xA0 SHL SUB DUP7 AND OR SWAP1 SSTORE JUMPDEST POP POP POP POP JUMP JUMPDEST PUSH1 0x1 PUSH1 0x1 PUSH1 0xA0 SHL SUB DUP3 DUP2 AND PUSH0 SWAP1 DUP2 MSTORE PUSH1 0x3 PUSH1 0x20 MSTORE PUSH1 0x40 SWAP1 KECCAK256 SLOAD AND PUSH2 0x13FE JUMPI PUSH1 0x40 MLOAD PUSH3 0x461BCD PUSH1 0xE5 SHL DUP2 MSTORE PUSH1 0x20 PUSH1 0x4 DUP3 ADD MSTORE PUSH1 0x42 PUSH1 0x24 DUP3 ADD MSTORE PUSH32 0x757064617465417661696C61626C6553746F726167653A20496E76616C696420 PUSH1 0x44 DUP3 ADD MSTORE PUSH32 0x5F6E6F646541646472657373202D204E6F646520446F6573204E4F5420657869 PUSH1 0x64 DUP3 ADD MSTORE PUSH2 0x1CDD PUSH1 0xF2 SHL PUSH1 0x84 DUP3 ADD MSTORE PUSH1 0xA4 ADD PUSH2 0x250 JUMP JUMPDEST PUSH1 0x1 PUSH1 0x1 PUSH1 0xA0 SHL SUB SWAP1 SWAP2 AND PUSH0 SWAP1 DUP2 MSTORE PUSH1 0x3 PUSH1 0x20 MSTORE PUSH1 0x40 SWAP1 KECCAK256 PUSH1 0x1 ADD SSTORE JUMP JUMPDEST PUSH1 0x40 DUP1 MLOAD PUSH1 0x20 DUP2 ADD SWAP1 SWAP2 MSTORE PUSH0 DUP1 DUP3 MSTORE SWAP1 DUP2 JUMPDEST DUP4 MLOAD DUP2 LT ISZERO PUSH2 0x147D JUMPI DUP2 DUP5 DUP3 DUP2 MLOAD DUP2 LT PUSH2 0x144A JUMPI PUSH2 0x144A PUSH2 0x2337 JUMP JUMPDEST PUSH1 0x20 MUL PUSH1 0x20 ADD ADD MLOAD PUSH1 0x40 MLOAD PUSH1 0x20 ADD PUSH2 0x1463 SWAP3 SWAP2 SWAP1 PUSH2 0x2574 JUMP JUMPDEST PUSH1 0x40 DUP1 MLOAD PUSH1 0x1F NOT DUP2 DUP5 SUB ADD DUP2 MSTORE SWAP2 SWAP1 MSTORE SWAP2 POP PUSH1 0x1 ADD PUSH2 0x142E JUMP JUMPDEST POP DUP1 MLOAD PUSH1 0x20 SWAP1 SWAP2 ADD KECCAK256 SWAP3 SWAP2 POP POP JUMP JUMPDEST CALLER PUSH2 0x14D9 JUMPI PUSH1 0x40 MLOAD PUSH3 0x461BCD PUSH1 0xE5 SHL DUP2 MSTORE PUSH1 0x20 PUSH1 0x4 DUP3 ADD MSTORE PUSH1 0x1D PUSH1 0x24 DUP3 ADD MSTORE PUSH32 0x73746F726546696C65486173683A20496E76616C69642073656E646572000000 PUSH1 0x44 DUP3 ADD MSTORE PUSH1 0x64 ADD PUSH2 0x250 JUMP JUMPDEST DUP2 PUSH2 0x1526 JUMPI PUSH1 0x40 MLOAD PUSH3 0x461BCD PUSH1 0xE5 SHL DUP2 MSTORE PUSH1 0x20 PUSH1 0x4 DUP3 ADD DUP2 SWAP1 MSTORE PUSH1 0x24 DUP3 ADD MSTORE PUSH32 0x73746F726546696C65486173683A20496E76616C6964205F66696C6548617368 PUSH1 0x44 DUP3 ADD MSTORE PUSH1 0x64 ADD PUSH2 0x250 JUMP JUMPDEST PUSH0 DUP2 MLOAD GT PUSH2 0x1576 JUMPI PUSH1 0x40 MLOAD PUSH3 0x461BCD PUSH1 0xE5 SHL DUP2 MSTORE PUSH1 0x20 PUSH1 0x4 DUP3 ADD MSTORE PUSH1 0x1E PUSH1 0x24 DUP3 ADD MSTORE PUSH32 0x73746F726546696C65486173683A20496E76616C6964205F66696C6549640000 PUSH1 0x44 DUP3 ADD MSTORE PUSH1 0x64 ADD PUSH2 0x250 JUMP JUMPDEST DUP2 PUSH1 0x2 DUP3 PUSH1 0x40 MLOAD PUSH2 0x1587 SWAP2 SWAP1 PUSH2 0x2503 JUMP JUMPDEST SWAP1 DUP2 MSTORE PUSH1 0x40 MLOAD SWAP1 DUP2 SWAP1 SUB PUSH1 0x20 ADD SWAP1 KECCAK256 SSTORE POP POP JUMP JUMPDEST PUSH1 0x40 DUP1 MLOAD PUSH1 0x60 DUP2 ADD SWAP1 SWAP2 MSTORE PUSH1 0x21 DUP1 DUP3 MSTORE CALLER ISZERO ISZERO SWAP2 SWAP1 PUSH2 0x26BA PUSH1 0x20 DUP4 ADD CODECOPY SWAP1 PUSH2 0x15D6 JUMPI PUSH1 0x40 MLOAD PUSH3 0x461BCD PUSH1 0xE5 SHL DUP2 MSTORE PUSH1 0x4 ADD PUSH2 0x250 SWAP2 SWAP1 PUSH2 0x2325 JUMP JUMPDEST POP PUSH0 DUP6 MLOAD GT PUSH1 0x40 MLOAD DUP1 PUSH1 0x60 ADD PUSH1 0x40 MSTORE DUP1 PUSH1 0x24 DUP2 MSTORE PUSH1 0x20 ADD PUSH2 0x262F PUSH1 0x24 SWAP2 CODECOPY SWAP1 PUSH2 0x1612 JUMPI PUSH1 0x40 MLOAD PUSH3 0x461BCD PUSH1 0xE5 SHL DUP2 MSTORE PUSH1 0x4 ADD PUSH2 0x250 SWAP2 SWAP1 PUSH2 0x2325 JUMP JUMPDEST POP PUSH0 DUP7 MLOAD GT PUSH1 0x40 MLOAD DUP1 PUSH1 0x60 ADD PUSH1 0x40 MSTORE DUP1 PUSH1 0x24 DUP2 MSTORE PUSH1 0x20 ADD PUSH2 0x272E PUSH1 0x24 SWAP2 CODECOPY SWAP1 PUSH2 0x164E JUMPI PUSH1 0x40 MLOAD PUSH3 0x461BCD PUSH1 0xE5 SHL DUP2 MSTORE PUSH1 0x4 ADD PUSH2 0x250 SWAP2 SWAP1 PUSH2 0x2325 JUMP JUMPDEST POP PUSH0 DUP1 SHL DUP5 EQ ISZERO PUSH1 0x40 MLOAD DUP1 PUSH1 0x60 ADD PUSH1 0x40 MSTORE DUP1 PUSH1 0x24 DUP2 MSTORE PUSH1 0x20 ADD PUSH2 0x2752 PUSH1 0x24 SWAP2 CODECOPY SWAP1 PUSH2 0x168C JUMPI PUSH1 0x40 MLOAD PUSH3 0x461BCD PUSH1 0xE5 SHL DUP2 MSTORE PUSH1 0x4 ADD PUSH2 0x250 SWAP2 SWAP1 PUSH2 0x2325 JUMP JUMPDEST POP PUSH0 DUP2 GT PUSH1 0x40 MLOAD DUP1 PUSH1 0x60 ADD PUSH1 0x40 MSTORE DUP1 PUSH1 0x24 DUP2 MSTORE PUSH1 0x20 ADD PUSH2 0x260B PUSH1 0x24 SWAP2 CODECOPY SWAP1 PUSH2 0x16C7 JUMPI PUSH1 0x40 MLOAD PUSH3 0x461BCD PUSH1 0xE5 SHL DUP2 MSTORE PUSH1 0x4 ADD PUSH2 0x250 SWAP2 SWAP1 PUSH2 0x2325 JUMP JUMPDEST POP PUSH0 DUP3 MLOAD GT PUSH1 0x40 MLOAD DUP1 PUSH1 0x60 ADD PUSH1 0x40 MSTORE DUP1 PUSH1 0x24 DUP2 MSTORE PUSH1 0x20 ADD PUSH2 0x2696 PUSH1 0x24 SWAP2 CODECOPY SWAP1 PUSH2 0x1703 JUMPI PUSH1 0x40 MLOAD PUSH3 0x461BCD PUSH1 0xE5 SHL DUP2 MSTORE PUSH1 0x4 ADD PUSH2 0x250 SWAP2 SWAP1 PUSH2 0x2325 JUMP JUMPDEST POP CALLER PUSH0 DUP2 DUP2 MSTORE PUSH1 0x8 PUSH1 0x20 DUP2 DUP2 MSTORE PUSH1 0x40 DUP1 DUP5 KECCAK256 DUP2 MLOAD PUSH2 0x100 DUP2 ADD DUP4 MSTORE DUP9 DUP2 MSTORE DUP1 DUP5 ADD DUP14 SWAP1 MSTORE SWAP2 DUP3 ADD DUP12 SWAP1 MSTORE PUSH1 0x60 DUP3 ADD DUP11 SWAP1 MSTORE PUSH1 0x80 DUP3 ADD DUP8 SWAP1 MSTORE TIMESTAMP PUSH1 0xA0 DUP4 ADD DUP2 SWAP1 MSTORE PUSH1 0xC0 DUP4 ADD SWAP7 SWAP1 SWAP7 MSTORE PUSH1 0xE0 DUP3 ADD DUP10 SWAP1 MSTORE DUP1 SLOAD PUSH1 0x1 DUP2 ADD DUP3 SSTORE SWAP1 DUP6 MSTORE SWAP2 SWAP1 SWAP4 KECCAK256 DUP4 MLOAD SWAP2 SWAP1 SWAP3 MUL SWAP1 SWAP2 ADD SWAP1 DUP2 SWAP1 PUSH2 0x1777 SWAP1 DUP3 PUSH2 0x240D JUMP JUMPDEST POP PUSH1 0x20 DUP3 ADD MLOAD PUSH1 0x1 DUP3 ADD SWAP1 PUSH2 0x178C SWAP1 DUP3 PUSH2 0x240D JUMP JUMPDEST POP PUSH1 0x40 DUP3 ADD MLOAD PUSH1 0x2 DUP3 ADD SWAP1 PUSH2 0x17A1 SWAP1 DUP3 PUSH2 0x240D JUMP JUMPDEST POP PUSH1 0x60 DUP3 ADD MLOAD PUSH1 0x3 DUP3 ADD SSTORE PUSH1 0x80 DUP3 ADD MLOAD PUSH1 0x4 DUP3 ADD SSTORE PUSH1 0xA0 DUP3 ADD MLOAD PUSH1 0x5 DUP3 ADD SSTORE PUSH1 0xC0 DUP3 ADD MLOAD PUSH1 0x6 DUP3 ADD DUP1 SLOAD PUSH1 0x1 PUSH1 0x1 PUSH1 0xA0 SHL SUB NOT AND PUSH1 0x1 PUSH1 0x1 PUSH1 0xA0 SHL SUB SWAP1 SWAP3 AND SWAP2 SWAP1 SWAP2 OR SWAP1 SSTORE PUSH1 0xE0 DUP3 ADD MLOAD PUSH1 0x7 DUP3 ADD SWAP1 PUSH2 0x17FA SWAP1 DUP3 PUSH2 0x240D JUMP JUMPDEST POP POP POP PUSH32 0x557BCCC5A98151EF59A421E190011AA3F6B5DC4AC2FD42FBA79D158CE0C68AC1 DUP4 DUP9 DUP9 DUP9 DUP7 DUP7 CALLER PUSH1 0x40 MLOAD PUSH2 0x1838 SWAP8 SWAP7 SWAP6 SWAP5 SWAP4 SWAP3 SWAP2 SWAP1 PUSH2 0x25A2 JUMP JUMPDEST PUSH1 0x40 MLOAD DUP1 SWAP2 SUB SWAP1 LOG1 POP POP POP POP POP POP POP JUMP JUMPDEST PUSH1 0x40 DUP1 MLOAD PUSH1 0x60 DUP2 DUP2 ADD SWAP1 SWAP3 MSTORE PUSH1 0x21 DUP1 DUP3 MSTORE CALLER ISZERO ISZERO SWAP2 SWAP1 PUSH2 0x26BA PUSH1 0x20 DUP4 ADD CODECOPY SWAP1 PUSH2 0x1885 JUMPI PUSH1 0x40 MLOAD PUSH3 0x461BCD PUSH1 0xE5 SHL DUP2 MSTORE PUSH1 0x4 ADD PUSH2 0x250 SWAP2 SWAP1 PUSH2 0x2325 JUMP JUMPDEST POP CALLER PUSH0 SWAP1 DUP2 MSTORE PUSH1 0x8 PUSH1 0x20 SWAP1 DUP2 MSTORE PUSH1 0x40 DUP1 DUP4 KECCAK256 DUP1 SLOAD DUP3 MLOAD DUP2 DUP6 MUL DUP2 ADD DUP6 ADD SWAP1 SWAP4 MSTORE DUP1 DUP4 MSTORE SWAP2 SWAP4 SWAP1 SWAP3 DUP5 ADD JUMPDEST DUP3 DUP3 LT ISZERO PUSH2 0x1B54 JUMPI DUP4 DUP3 SWAP1 PUSH0 MSTORE PUSH1 0x20 PUSH0 KECCAK256 SWAP1 PUSH1 0x8 MUL ADD PUSH1 0x40 MLOAD DUP1 PUSH2 0x100 ADD PUSH1 0x40 MSTORE SWAP1 DUP2 PUSH0 DUP3 ADD DUP1 SLOAD PUSH2 0x18E0 SWAP1 PUSH2 0x238A JUMP JUMPDEST DUP1 PUSH1 0x1F ADD PUSH1 0x20 DUP1 SWAP2 DIV MUL PUSH1 0x20 ADD PUSH1 0x40 MLOAD SWAP1 DUP2 ADD PUSH1 0x40 MSTORE DUP1 SWAP3 SWAP2 SWAP1 DUP2 DUP2 MSTORE PUSH1 0x20 ADD DUP3 DUP1 SLOAD PUSH2 0x190C SWAP1 PUSH2 0x238A JUMP JUMPDEST DUP1 ISZERO PUSH2 0x1957 JUMPI DUP1 PUSH1 0x1F LT PUSH2 0x192E JUMPI PUSH2 0x100 DUP1 DUP4 SLOAD DIV MUL DUP4 MSTORE SWAP2 PUSH1 0x20 ADD SWAP2 PUSH2 0x1957 JUMP JUMPDEST DUP3 ADD SWAP2 SWAP1 PUSH0 MSTORE PUSH1 0x20 PUSH0 KECCAK256 SWAP1 JUMPDEST DUP2 SLOAD DUP2 MSTORE SWAP1 PUSH1 0x1 ADD SWAP1 PUSH1 0x20 ADD DUP1 DUP4 GT PUSH2 0x193A JUMPI DUP3 SWAP1 SUB PUSH1 0x1F AND DUP3 ADD SWAP2 JUMPDEST POP POP POP POP POP DUP2 MSTORE PUSH1 0x20 ADD PUSH1 0x1 DUP3 ADD DUP1 SLOAD PUSH2 0x1970 SWAP1 PUSH2 0x238A JUMP JUMPDEST DUP1 PUSH1 0x1F ADD PUSH1 0x20 DUP1 SWAP2 DIV MUL PUSH1 0x20 ADD PUSH1 0x40 MLOAD SWAP1 DUP2 ADD PUSH1 0x40 MSTORE DUP1 SWAP3 SWAP2 SWAP1 DUP2 DUP2 MSTORE PUSH1 0x20 ADD DUP3 DUP1 SLOAD PUSH2 0x199C SWAP1 PUSH2 0x238A JUMP JUMPDEST DUP1 ISZERO PUSH2 0x19E7 JUMPI DUP1 PUSH1 0x1F LT PUSH2 0x19BE JUMPI PUSH2 0x100 DUP1 DUP4 SLOAD DIV MUL DUP4 MSTORE SWAP2 PUSH1 0x20 ADD SWAP2 PUSH2 0x19E7 JUMP JUMPDEST DUP3 ADD SWAP2 SWAP1 PUSH0 MSTORE PUSH1 0x20 PUSH0 KECCAK256 SWAP1 JUMPDEST DUP2 SLOAD DUP2 MSTORE SWAP1 PUSH1 0x1 ADD SWAP1 PUSH1 0x20 ADD DUP1 DUP4 GT PUSH2 0x19CA JUMPI DUP3 SWAP1 SUB PUSH1 0x1F AND DUP3 ADD SWAP2 JUMPDEST POP POP POP POP POP DUP2 MSTORE PUSH1 0x20 ADD PUSH1 0x2 DUP3 ADD DUP1 SLOAD PUSH2 0x1A00 SWAP1 PUSH2 0x238A JUMP JUMPDEST DUP1 PUSH1 0x1F ADD PUSH1 0x20 DUP1 SWAP2 DIV MUL PUSH1 0x20 ADD PUSH1 0x40 MLOAD SWAP1 DUP2 ADD PUSH1 0x40 MSTORE DUP1 SWAP3 SWAP2 SWAP1 DUP2 DUP2 MSTORE PUSH1 0x20 ADD DUP3 DUP1 SLOAD PUSH2 0x1A2C SWAP1 PUSH2 0x238A JUMP JUMPDEST DUP1 ISZERO PUSH2 0x1A77 JUMPI DUP1 PUSH1 0x1F LT PUSH2 0x1A4E JUMPI PUSH2 0x100 DUP1 DUP4 SLOAD DIV MUL DUP4 MSTORE SWAP2 PUSH1 0x20 ADD SWAP2 PUSH2 0x1A77 JUMP JUMPDEST DUP3 ADD SWAP2 SWAP1 PUSH0 MSTORE PUSH1 0x20 PUSH0 KECCAK256 SWAP1 JUMPDEST DUP2 SLOAD DUP2 MSTORE SWAP1 PUSH1 0x1 ADD SWAP1 PUSH1 0x20 ADD DUP1 DUP4 GT PUSH2 0x1A5A JUMPI DUP3 SWAP1 SUB PUSH1 0x1F AND DUP3 ADD SWAP2 JUMPDEST POP POP POP SWAP2 DUP4 MSTORE POP POP PUSH1 0x3 DUP3 ADD SLOAD PUSH1 0x20 DUP3 ADD MSTORE PUSH1 0x4 DUP3 ADD SLOAD PUSH1 0x40 DUP3 ADD MSTORE PUSH1 0x5 DUP3 ADD SLOAD PUSH1 0x60 DUP3 ADD MSTORE PUSH1 0x6 DUP3 ADD SLOAD PUSH1 0x1 PUSH1 0x1 PUSH1 0xA0 SHL SUB AND PUSH1 0x80 DUP3 ADD MSTORE PUSH1 0x7 DUP3 ADD DUP1 SLOAD PUSH1 0xA0 SWAP1 SWAP3 ADD SWAP2 PUSH2 0x1AC5 SWAP1 PUSH2 0x238A JUMP JUMPDEST DUP1 PUSH1 0x1F ADD PUSH1 0x20 DUP1 SWAP2 DIV MUL PUSH1 0x20 ADD PUSH1 0x40 MLOAD SWAP1 DUP2 ADD PUSH1 0x40 MSTORE DUP1 SWAP3 SWAP2 SWAP1 DUP2 DUP2 MSTORE PUSH1 0x20 ADD DUP3 DUP1 SLOAD PUSH2 0x1AF1 SWAP1 PUSH2 0x238A JUMP JUMPDEST DUP1 ISZERO PUSH2 0x1B3C JUMPI DUP1 PUSH1 0x1F LT PUSH2 0x1B13 JUMPI PUSH2 0x100 DUP1 DUP4 SLOAD DIV MUL DUP4 MSTORE SWAP2 PUSH1 0x20 ADD SWAP2 PUSH2 0x1B3C JUMP JUMPDEST DUP3 ADD SWAP2 SWAP1 PUSH0 MSTORE PUSH1 0x20 PUSH0 KECCAK256 SWAP1 JUMPDEST DUP2 SLOAD DUP2 MSTORE SWAP1 PUSH1 0x1 ADD SWAP1 PUSH1 0x20 ADD DUP1 DUP4 GT PUSH2 0x1B1F JUMPI DUP3 SWAP1 SUB PUSH1 0x1F AND DUP3 ADD SWAP2 JUMPDEST POP POP POP POP POP DUP2 MSTORE POP POP DUP2 MSTORE PUSH1 0x20 ADD SWAP1 PUSH1 0x1 ADD SWAP1 PUSH2 0x18AF JUMP JUMPDEST POP POP POP POP SWAP1 POP SWAP1 JUMP JUMPDEST PUSH0 DUP2 PUSH1 0x40 MLOAD PUSH1 0x20 ADD PUSH2 0x1B6F SWAP2 SWAP1 PUSH2 0x2503 JUMP JUMPDEST PUSH1 0x40 MLOAD PUSH1 0x20 DUP2 DUP4 SUB SUB DUP2 MSTORE SWAP1 PUSH1 0x40 MSTORE DUP1 MLOAD SWAP1 PUSH1 0x20 ADD KECCAK256 DUP4 PUSH1 0x40 MLOAD PUSH1 0x20 ADD PUSH2 0x1B96 SWAP2 SWAP1 PUSH2 0x2503 JUMP JUMPDEST PUSH1 0x40 MLOAD PUSH1 0x20 DUP2 DUP4 SUB SUB DUP2 MSTORE SWAP1 PUSH1 0x40 MSTORE DUP1 MLOAD SWAP1 PUSH1 0x20 ADD KECCAK256 EQ SWAP1 POP SWAP3 SWAP2 POP POP JUMP JUMPDEST PUSH0 DUP2 MLOAD GT PUSH2 0x1C10 JUMPI PUSH1 0x40 MLOAD PUSH3 0x461BCD PUSH1 0xE5 SHL DUP2 MSTORE PUSH1 0x20 PUSH1 0x4 DUP3 ADD MSTORE PUSH1 0x22 PUSH1 0x24 DUP3 ADD MSTORE PUSH32 0x64656C6574654368756E6B496E4E6F64653A20496E76616C6964205F66696C65 PUSH1 0x44 DUP3 ADD MSTORE PUSH2 0x1259 PUSH1 0xF2 SHL PUSH1 0x64 DUP3 ADD MSTORE PUSH1 0x84 ADD PUSH2 0x250 JUMP JUMPDEST PUSH1 0x4 DUP2 PUSH1 0x40 MLOAD PUSH2 0x1C20 SWAP2 SWAP1 PUSH2 0x2503 JUMP JUMPDEST SWAP1 DUP2 MSTORE PUSH1 0x20 ADD PUSH1 0x40 MLOAD DUP1 SWAP2 SUB SWAP1 KECCAK256 PUSH0 PUSH2 0x1C39 SWAP2 SWAP1 PUSH2 0x1DAC JUMP JUMPDEST POP JUMP JUMPDEST PUSH0 DUP2 MLOAD GT PUSH2 0x1C8C JUMPI PUSH1 0x40 MLOAD PUSH3 0x461BCD PUSH1 0xE5 SHL DUP2 MSTORE PUSH1 0x20 PUSH1 0x4 DUP3 ADD MSTORE PUSH1 0x1F PUSH1 0x24 DUP3 ADD MSTORE PUSH32 0x64656C65746546696C65486173683A20496E76616C6964205F66696C65496400 PUSH1 0x44 DUP3 ADD MSTORE PUSH1 0x64 ADD PUSH2 0x250 JUMP JUMPDEST PUSH0 DUP1 SHL PUSH1 0x2 DUP3 PUSH1 0x40 MLOAD PUSH2 0x1C9F SWAP2 SWAP1 PUSH2 0x2503 JUMP JUMPDEST SWAP1 DUP2 MSTORE PUSH1 0x20 ADD PUSH1 0x40 MLOAD DUP1 SWAP2 SUB SWAP1 KECCAK256 SLOAD SUB PUSH2 0x1D07 JUMPI PUSH1 0x40 MLOAD PUSH3 0x461BCD PUSH1 0xE5 SHL DUP2 MSTORE PUSH1 0x20 PUSH1 0x4 DUP3 ADD MSTORE PUSH1 0x24 DUP1 DUP3 ADD MSTORE PUSH32 0x64656C65746546696C65486173683A20496E76616C69642066696C654964546F PUSH1 0x44 DUP3 ADD MSTORE PUSH4 0x90C2E6D PUSH1 0xE3 SHL PUSH1 0x64 DUP3 ADD MSTORE PUSH1 0x84 ADD PUSH2 0x250 JUMP JUMPDEST PUSH1 0x2 DUP2 PUSH1 0x40 MLOAD PUSH2 0x1D17 SWAP2 SWAP1 PUSH2 0x2503 JUMP JUMPDEST SWAP1 DUP2 MSTORE PUSH1 0x20 ADD PUSH1 0x40 MLOAD DUP1 SWAP2 SUB SWAP1 KECCAK256 PUSH0 SWAP1 SSTORE POP JUMP JUMPDEST PUSH2 0x1C39 DUP2 PUSH2 0x1D8D JUMP JUMPDEST PUSH0 DUP1 JUMPDEST DUP3 MLOAD DUP2 LT ISZERO PUSH2 0x1D84 JUMPI DUP4 PUSH1 0x1 PUSH1 0x1 PUSH1 0xA0 SHL SUB AND DUP4 DUP3 DUP2 MLOAD DUP2 LT PUSH2 0x1D5C JUMPI PUSH2 0x1D5C PUSH2 0x2337 JUMP JUMPDEST PUSH1 0x20 MUL PUSH1 0x20 ADD ADD MLOAD PUSH1 0x1 PUSH1 0x1 PUSH1 0xA0 SHL SUB AND SUB PUSH2 0x1D7C JUMPI PUSH1 0x1 SWAP2 POP POP PUSH2 0x120A JUMP JUMPDEST PUSH1 0x1 ADD PUSH2 0x1D37 JUMP JUMPDEST POP PUSH0 SWAP4 SWAP3 POP POP POP JUMP JUMPDEST PUSH0 PUSH11 0x636F6E736F6C652E6C6F67 SWAP1 POP PUSH0 DUP1 DUP4 MLOAD PUSH1 0x20 DUP6 ADD DUP5 GAS STATICCALL POP POP POP JUMP JUMPDEST POP DUP1 SLOAD PUSH0 DUP3 SSTORE SWAP1 PUSH0 MSTORE PUSH1 0x20 PUSH0 KECCAK256 SWAP1 DUP2 ADD SWAP1 PUSH2 0x1C39 SWAP2 SWAP1 PUSH2 0x1E67 JUMP JUMPDEST PUSH1 0x40 MLOAD DUP1 PUSH1 0x40 ADD PUSH1 0x40 MSTORE DUP1 PUSH2 0x1DDA PUSH2 0x1DE7 JUMP JUMPDEST DUP2 MSTORE PUSH1 0x20 ADD PUSH1 0x60 DUP2 MSTORE POP SWAP1 JUMP JUMPDEST PUSH1 0x40 MLOAD DUP1 PUSH2 0x100 ADD PUSH1 0x40 MSTORE DUP1 PUSH1 0x60 DUP2 MSTORE PUSH1 0x20 ADD PUSH1 0x60 DUP2 MSTORE PUSH1 0x20 ADD PUSH1 0x60 DUP2 MSTORE PUSH1 0x20 ADD PUSH0 DUP1 NOT AND DUP2 MSTORE PUSH1 0x20 ADD PUSH0 DUP2 MSTORE PUSH1 0x20 ADD PUSH0 DUP2 MSTORE PUSH1 0x20 ADD PUSH0 PUSH1 0x1 PUSH1 0x1 PUSH1 0xA0 SHL SUB AND DUP2 MSTORE PUSH1 0x20 ADD PUSH1 0x60 DUP2 MSTORE POP SWAP1 JUMP JUMPDEST POP DUP1 SLOAD PUSH2 0x1E40 SWAP1 PUSH2 0x238A JUMP JUMPDEST PUSH0 DUP3 SSTORE DUP1 PUSH1 0x1F LT PUSH2 0x1E4F JUMPI POP POP JUMP JUMPDEST PUSH1 0x1F ADD PUSH1 0x20 SWAP1 DIV SWAP1 PUSH0 MSTORE PUSH1 0x20 PUSH0 KECCAK256 SWAP1 DUP2 ADD SWAP1 PUSH2 0x1C39 SWAP2 SWAP1 JUMPDEST JUMPDEST DUP1 DUP3 GT ISZERO PUSH2 0x1E7B JUMPI PUSH0 DUP2 SSTORE PUSH1 0x1 ADD PUSH2 0x1E68 JUMP JUMPDEST POP SWAP1 JUMP JUMPDEST DUP1 CALLDATALOAD PUSH1 0x1 PUSH1 0x1 PUSH1 0xA0 SHL SUB DUP2 AND DUP2 EQ PUSH2 0x1E95 JUMPI PUSH0 DUP1 REVERT JUMPDEST SWAP2 SWAP1 POP JUMP JUMPDEST PUSH0 DUP1 PUSH1 0x40 DUP4 DUP6 SUB SLT ISZERO PUSH2 0x1EAB JUMPI PUSH0 DUP1 REVERT JUMPDEST PUSH2 0x1EB4 DUP4 PUSH2 0x1E7F JUMP JUMPDEST SWAP5 PUSH1 0x20 SWAP4 SWAP1 SWAP4 ADD CALLDATALOAD SWAP4 POP POP POP JUMP JUMPDEST PUSH0 PUSH1 0x20 DUP3 DUP5 SUB SLT ISZERO PUSH2 0x1ED2 JUMPI PUSH0 DUP1 REVERT JUMPDEST PUSH2 0x1EDB DUP3 PUSH2 0x1E7F JUMP JUMPDEST SWAP4 SWAP3 POP POP POP JUMP JUMPDEST PUSH4 0x4E487B71 PUSH1 0xE0 SHL PUSH0 MSTORE PUSH1 0x41 PUSH1 0x4 MSTORE PUSH1 0x24 PUSH0 REVERT JUMPDEST PUSH1 0x40 MLOAD PUSH1 0x1F DUP3 ADD PUSH1 0x1F NOT AND DUP2 ADD PUSH1 0x1 PUSH1 0x1 PUSH1 0x40 SHL SUB DUP2 GT DUP3 DUP3 LT OR ISZERO PUSH2 0x1F1E JUMPI PUSH2 0x1F1E PUSH2 0x1EE2 JUMP JUMPDEST PUSH1 0x40 MSTORE SWAP2 SWAP1 POP JUMP JUMPDEST PUSH0 DUP3 PUSH1 0x1F DUP4 ADD SLT PUSH2 0x1F35 JUMPI PUSH0 DUP1 REVERT JUMPDEST DUP2 CALLDATALOAD PUSH1 0x1 PUSH1 0x1 PUSH1 0x40 SHL SUB DUP2 GT ISZERO PUSH2 0x1F4E JUMPI PUSH2 0x1F4E PUSH2 0x1EE2 JUMP JUMPDEST PUSH2 0x1F61 PUSH1 0x1F DUP3 ADD PUSH1 0x1F NOT AND PUSH1 0x20 ADD PUSH2 0x1EF6 JUMP JUMPDEST DUP2 DUP2 MSTORE DUP5 PUSH1 0x20 DUP4 DUP7 ADD ADD GT ISZERO PUSH2 0x1F75 JUMPI PUSH0 DUP1 REVERT JUMPDEST DUP2 PUSH1 0x20 DUP6 ADD PUSH1 0x20 DUP4 ADD CALLDATACOPY PUSH0 SWAP2 DUP2 ADD PUSH1 0x20 ADD SWAP2 SWAP1 SWAP2 MSTORE SWAP4 SWAP3 POP POP POP JUMP JUMPDEST PUSH0 DUP1 PUSH1 0x40 DUP4 DUP6 SUB SLT ISZERO PUSH2 0x1FA2 JUMPI PUSH0 DUP1 REVERT JUMPDEST DUP3 CALLDATALOAD PUSH1 0x1 PUSH1 0x1 PUSH1 0x40 SHL SUB DUP2 GT ISZERO PUSH2 0x1FB7 JUMPI PUSH0 DUP1 REVERT JUMPDEST PUSH2 0x1FC3 DUP6 DUP3 DUP7 ADD PUSH2 0x1F26 JUMP JUMPDEST SWAP6 PUSH1 0x20 SWAP5 SWAP1 SWAP5 ADD CALLDATALOAD SWAP5 POP POP POP POP JUMP JUMPDEST PUSH1 0x1 PUSH1 0x1 PUSH1 0xA0 SHL SUB SWAP2 SWAP1 SWAP2 AND DUP2 MSTORE PUSH1 0x20 ADD SWAP1 JUMP JUMPDEST PUSH0 DUP3 PUSH1 0x1F DUP4 ADD SLT PUSH2 0x1FF5 JUMPI PUSH0 DUP1 REVERT JUMPDEST DUP2 CALLDATALOAD PUSH1 0x20 PUSH1 0x1 PUSH1 0x1 PUSH1 0x40 SHL SUB DUP1 DUP4 GT ISZERO PUSH2 0x2011 JUMPI PUSH2 0x2011 PUSH2 0x1EE2 JUMP JUMPDEST DUP3 PUSH1 0x5 SHL PUSH2 0x2020 DUP4 DUP3 ADD PUSH2 0x1EF6 JUMP JUMPDEST SWAP4 DUP5 MSTORE DUP6 DUP2 ADD DUP4 ADD SWAP4 DUP4 DUP2 ADD SWAP1 DUP9 DUP7 GT ISZERO PUSH2 0x2039 JUMPI PUSH0 DUP1 REVERT JUMPDEST DUP5 DUP9 ADD SWAP3 POP JUMPDEST DUP6 DUP4 LT ISZERO PUSH2 0x2073 JUMPI DUP3 CALLDATALOAD DUP5 DUP2 GT ISZERO PUSH2 0x2055 JUMPI PUSH0 DUP1 REVERT JUMPDEST PUSH2 0x2063 DUP11 DUP8 DUP4 DUP13 ADD ADD PUSH2 0x1F26 JUMP JUMPDEST DUP4 MSTORE POP SWAP2 DUP5 ADD SWAP2 SWAP1 DUP5 ADD SWAP1 PUSH2 0x203F JUMP JUMPDEST SWAP9 SWAP8 POP POP POP POP POP POP POP POP JUMP JUMPDEST PUSH0 DUP1 PUSH0 DUP1 PUSH0 DUP1 PUSH1 0xC0 DUP8 DUP10 SUB SLT ISZERO PUSH2 0x2094 JUMPI PUSH0 DUP1 REVERT JUMPDEST DUP7 CALLDATALOAD PUSH1 0x1 PUSH1 0x1 PUSH1 0x40 SHL SUB DUP1 DUP3 GT ISZERO PUSH2 0x20AA JUMPI PUSH0 DUP1 REVERT JUMPDEST PUSH2 0x20B6 DUP11 DUP4 DUP12 ADD PUSH2 0x1FE6 JUMP JUMPDEST SWAP8 POP PUSH1 0x20 DUP10 ADD CALLDATALOAD SWAP2 POP DUP1 DUP3 GT ISZERO PUSH2 0x20CB JUMPI PUSH0 DUP1 REVERT JUMPDEST PUSH2 0x20D7 DUP11 DUP4 DUP12 ADD PUSH2 0x1F26 JUMP JUMPDEST SWAP7 POP PUSH1 0x40 DUP10 ADD CALLDATALOAD SWAP2 POP DUP1 DUP3 GT ISZERO PUSH2 0x20EC JUMPI PUSH0 DUP1 REVERT JUMPDEST PUSH2 0x20F8 DUP11 DUP4 DUP12 ADD PUSH2 0x1F26 JUMP JUMPDEST SWAP6 POP PUSH1 0x60 DUP10 ADD CALLDATALOAD SWAP2 POP DUP1 DUP3 GT ISZERO PUSH2 0x210D JUMPI PUSH0 DUP1 REVERT JUMPDEST PUSH2 0x2119 DUP11 DUP4 DUP12 ADD PUSH2 0x1F26 JUMP JUMPDEST SWAP5 POP PUSH1 0x80 DUP10 ADD CALLDATALOAD SWAP2 POP DUP1 DUP3 GT ISZERO PUSH2 0x212E JUMPI PUSH0 DUP1 REVERT JUMPDEST POP PUSH2 0x213B DUP10 DUP3 DUP11 ADD PUSH2 0x1F26 JUMP JUMPDEST SWAP3 POP POP PUSH1 0xA0 DUP8 ADD CALLDATALOAD SWAP1 POP SWAP3 SWAP6 POP SWAP3 SWAP6 POP SWAP3 SWAP6 JUMP JUMPDEST PUSH0 PUSH1 0x20 DUP3 DUP5 SUB SLT ISZERO PUSH2 0x215F JUMPI PUSH0 DUP1 REVERT JUMPDEST DUP2 CALLDATALOAD PUSH1 0x1 PUSH1 0x1 PUSH1 0x40 SHL SUB DUP2 GT ISZERO PUSH2 0x2174 JUMPI PUSH0 DUP1 REVERT JUMPDEST PUSH2 0x2180 DUP5 DUP3 DUP6 ADD PUSH2 0x1F26 JUMP JUMPDEST SWAP5 SWAP4 POP POP POP POP JUMP JUMPDEST PUSH0 JUMPDEST DUP4 DUP2 LT ISZERO PUSH2 0x21A2 JUMPI DUP2 DUP2 ADD MLOAD DUP4 DUP3 ADD MSTORE PUSH1 0x20 ADD PUSH2 0x218A JUMP JUMPDEST POP POP PUSH0 SWAP2 ADD MSTORE JUMP JUMPDEST PUSH0 DUP2 MLOAD DUP1 DUP5 MSTORE PUSH2 0x21C1 DUP2 PUSH1 0x20 DUP7 ADD PUSH1 0x20 DUP7 ADD PUSH2 0x2188 JUMP JUMPDEST PUSH1 0x1F ADD PUSH1 0x1F NOT AND SWAP3 SWAP1 SWAP3 ADD PUSH1 0x20 ADD SWAP3 SWAP2 POP POP JUMP JUMPDEST PUSH0 DUP2 MLOAD DUP1 DUP5 MSTORE PUSH1 0x20 DUP1 DUP6 ADD SWAP5 POP PUSH1 0x20 DUP5 ADD PUSH0 JUMPDEST DUP4 DUP2 LT ISZERO PUSH2 0x220D JUMPI DUP2 MLOAD PUSH1 0x1 PUSH1 0x1 PUSH1 0xA0 SHL SUB AND DUP8 MSTORE SWAP6 DUP3 ADD SWAP6 SWAP1 DUP3 ADD SWAP1 PUSH1 0x1 ADD PUSH2 0x21E8 JUMP JUMPDEST POP SWAP5 SWAP6 SWAP5 POP POP POP POP POP JUMP JUMPDEST PUSH1 0x20 DUP2 MSTORE PUSH0 DUP3 MLOAD PUSH1 0x40 PUSH1 0x20 DUP5 ADD MSTORE DUP1 MLOAD PUSH2 0x100 DUP1 PUSH1 0x60 DUP7 ADD MSTORE PUSH2 0x223F PUSH2 0x160 DUP7 ADD DUP4 PUSH2 0x21AA JUMP JUMPDEST SWAP2 POP PUSH1 0x20 DUP4 ADD MLOAD PUSH1 0x5F NOT DUP1 DUP8 DUP6 SUB ADD PUSH1 0x80 DUP9 ADD MSTORE PUSH2 0x225D DUP5 DUP4 PUSH2 0x21AA JUMP JUMPDEST SWAP4 POP PUSH1 0x40 DUP6 ADD MLOAD SWAP2 POP DUP1 DUP8 DUP6 SUB ADD PUSH1 0xA0 DUP9 ADD MSTORE PUSH2 0x227A DUP5 DUP4 PUSH2 0x21AA JUMP JUMPDEST SWAP4 POP PUSH1 0x60 DUP6 ADD MLOAD PUSH1 0xC0 DUP9 ADD MSTORE PUSH1 0x80 DUP6 ADD MLOAD PUSH1 0xE0 DUP9 ADD MSTORE PUSH1 0xA0 DUP6 ADD MLOAD DUP4 DUP9 ADD MSTORE PUSH1 0xC0 DUP6 ADD MLOAD SWAP3 POP PUSH2 0x22B6 PUSH2 0x120 DUP9 ADD DUP5 PUSH1 0x1 PUSH1 0x1 PUSH1 0xA0 SHL SUB AND SWAP1 MSTORE JUMP JUMPDEST PUSH1 0xE0 DUP6 ADD MLOAD SWAP5 POP DUP1 DUP8 DUP6 SUB ADD PUSH2 0x140 DUP9 ADD MSTORE POP POP POP PUSH2 0x22D5 DUP2 DUP4 PUSH2 0x21AA JUMP JUMPDEST SWAP2 POP POP PUSH1 0x20 DUP5 ADD MLOAD PUSH1 0x1F NOT DUP5 DUP4 SUB ADD PUSH1 0x40 DUP6 ADD MSTORE PUSH2 0x22F3 DUP3 DUP3 PUSH2 0x21D5 JUMP JUMPDEST SWAP6 SWAP5 POP POP POP POP POP JUMP JUMPDEST PUSH1 0x20 DUP2 MSTORE PUSH0 PUSH2 0x1EDB PUSH1 0x20 DUP4 ADD DUP5 PUSH2 0x21D5 JUMP JUMPDEST PUSH0 PUSH1 0x20 DUP3 DUP5 SUB SLT ISZERO PUSH2 0x231E JUMPI PUSH0 DUP1 REVERT JUMPDEST POP CALLDATALOAD SWAP2 SWAP1 POP JUMP JUMPDEST PUSH1 0x20 DUP2 MSTORE PUSH0 PUSH2 0x1EDB PUSH1 0x20 DUP4 ADD DUP5 PUSH2 0x21AA JUMP JUMPDEST PUSH4 0x4E487B71 PUSH1 0xE0 SHL PUSH0 MSTORE PUSH1 0x32 PUSH1 0x4 MSTORE PUSH1 0x24 PUSH0 REVERT JUMPDEST PUSH4 0x4E487B71 PUSH1 0xE0 SHL PUSH0 MSTORE PUSH1 0x11 PUSH1 0x4 MSTORE PUSH1 0x24 PUSH0 REVERT JUMPDEST PUSH0 PUSH1 0x1 DUP3 ADD PUSH2 0x2370 JUMPI PUSH2 0x2370 PUSH2 0x234B JUMP JUMPDEST POP PUSH1 0x1 ADD SWAP1 JUMP JUMPDEST DUP2 DUP2 SUB DUP2 DUP2 GT ISZERO PUSH2 0x120A JUMPI PUSH2 0x120A PUSH2 0x234B JUMP JUMPDEST PUSH1 0x1 DUP2 DUP2 SHR SWAP1 DUP3 AND DUP1 PUSH2 0x239E JUMPI PUSH1 0x7F DUP3 AND SWAP2 POP JUMPDEST PUSH1 0x20 DUP3 LT DUP2 SUB PUSH2 0x23BC JUMPI PUSH4 0x4E487B71 PUSH1 0xE0 SHL PUSH0 MSTORE PUSH1 0x22 PUSH1 0x4 MSTORE PUSH1 0x24 PUSH0 REVERT JUMPDEST POP SWAP2 SWAP1 POP JUMP JUMPDEST PUSH1 0x1F DUP3 GT ISZERO PUSH2 0x108F JUMPI DUP1 PUSH0 MSTORE PUSH1 0x20 PUSH0 KECCAK256 PUSH1 0x1F DUP5 ADD PUSH1 0x5 SHR DUP2 ADD PUSH1 0x20 DUP6 LT ISZERO PUSH2 0x23E7 JUMPI POP DUP1 JUMPDEST PUSH1 0x1F DUP5 ADD PUSH1 0x5 SHR DUP3 ADD SWAP2 POP JUMPDEST DUP2 DUP2 LT ISZERO PUSH2 0x2406 JUMPI PUSH0 DUP2 SSTORE PUSH1 0x1 ADD PUSH2 0x23F3 JUMP JUMPDEST POP POP POP POP POP JUMP JUMPDEST DUP2 MLOAD PUSH1 0x1 PUSH1 0x1 PUSH1 0x40 SHL SUB DUP2 GT ISZERO PUSH2 0x2426 JUMPI PUSH2 0x2426 PUSH2 0x1EE2 JUMP JUMPDEST PUSH2 0x243A DUP2 PUSH2 0x2434 DUP5 SLOAD PUSH2 0x238A JUMP JUMPDEST DUP5 PUSH2 0x23C2 JUMP JUMPDEST PUSH1 0x20 DUP1 PUSH1 0x1F DUP4 GT PUSH1 0x1 DUP2 EQ PUSH2 0x246D JUMPI PUSH0 DUP5 ISZERO PUSH2 0x2456 JUMPI POP DUP6 DUP4 ADD MLOAD JUMPDEST PUSH0 NOT PUSH1 0x3 DUP7 SWAP1 SHL SHR NOT AND PUSH1 0x1 DUP6 SWAP1 SHL OR DUP6 SSTORE PUSH2 0x24C4 JUMP JUMPDEST PUSH0 DUP6 DUP2 MSTORE PUSH1 0x20 DUP2 KECCAK256 PUSH1 0x1F NOT DUP7 AND SWAP2 JUMPDEST DUP3 DUP2 LT ISZERO PUSH2 0x249B JUMPI DUP9 DUP7 ADD MLOAD DUP3 SSTORE SWAP5 DUP5 ADD SWAP5 PUSH1 0x1 SWAP1 SWAP2 ADD SWAP1 DUP5 ADD PUSH2 0x247C JUMP JUMPDEST POP DUP6 DUP3 LT ISZERO PUSH2 0x24B8 JUMPI DUP8 DUP6 ADD MLOAD PUSH0 NOT PUSH1 0x3 DUP9 SWAP1 SHL PUSH1 0xF8 AND SHR NOT AND DUP2 SSTORE JUMPDEST POP POP PUSH1 0x1 DUP5 PUSH1 0x1 SHL ADD DUP6 SSTORE JUMPDEST POP POP POP POP POP POP JUMP JUMPDEST PUSH4 0x4E487B71 PUSH1 0xE0 SHL PUSH0 MSTORE PUSH1 0x31 PUSH1 0x4 MSTORE PUSH1 0x24 PUSH0 REVERT JUMPDEST PUSH1 0x1 PUSH1 0x1 PUSH1 0xA0 SHL SUB DUP4 AND DUP2 MSTORE PUSH1 0x40 PUSH1 0x20 DUP3 ADD DUP2 SWAP1 MSTORE PUSH0 SWAP1 PUSH2 0x2180 SWAP1 DUP4 ADD DUP5 PUSH2 0x21AA JUMP JUMPDEST PUSH0 DUP3 MLOAD PUSH2 0x2514 DUP2 DUP5 PUSH1 0x20 DUP8 ADD PUSH2 0x2188 JUMP JUMPDEST SWAP2 SWAP1 SWAP2 ADD SWAP3 SWAP2 POP POP JUMP JUMPDEST PUSH1 0x60 DUP2 MSTORE PUSH0 PUSH2 0x2530 PUSH1 0x60 DUP4 ADD DUP7 PUSH2 0x21AA JUMP JUMPDEST PUSH1 0x20 DUP4 ADD SWAP5 SWAP1 SWAP5 MSTORE POP PUSH1 0x40 ADD MSTORE SWAP2 SWAP1 POP JUMP JUMPDEST PUSH0 DUP3 PUSH2 0x255C JUMPI PUSH4 0x4E487B71 PUSH1 0xE0 SHL PUSH0 MSTORE PUSH1 0x12 PUSH1 0x4 MSTORE PUSH1 0x24 PUSH0 REVERT JUMPDEST POP MOD SWAP1 JUMP JUMPDEST DUP1 DUP3 ADD DUP1 DUP3 GT ISZERO PUSH2 0x120A JUMPI PUSH2 0x120A PUSH2 0x234B JUMP JUMPDEST PUSH0 DUP4 MLOAD PUSH2 0x2585 DUP2 DUP5 PUSH1 0x20 DUP9 ADD PUSH2 0x2188 JUMP JUMPDEST DUP4 MLOAD SWAP1 DUP4 ADD SWAP1 PUSH2 0x2599 DUP2 DUP4 PUSH1 0x20 DUP9 ADD PUSH2 0x2188 JUMP JUMPDEST ADD SWAP5 SWAP4 POP POP POP POP JUMP JUMPDEST PUSH1 0xE0 DUP2 MSTORE PUSH0 PUSH2 0x25B4 PUSH1 0xE0 DUP4 ADD DUP11 PUSH2 0x21AA JUMP JUMPDEST DUP3 DUP2 SUB PUSH1 0x20 DUP5 ADD MSTORE PUSH2 0x25C6 DUP2 DUP11 PUSH2 0x21AA JUMP JUMPDEST SWAP1 POP DUP3 DUP2 SUB PUSH1 0x40 DUP5 ADD MSTORE PUSH2 0x25DA DUP2 DUP10 PUSH2 0x21AA JUMP JUMPDEST PUSH1 0x60 DUP5 ADD SWAP8 SWAP1 SWAP8 MSTORE POP POP PUSH1 0x80 DUP2 ADD SWAP4 SWAP1 SWAP4 MSTORE PUSH1 0xA0 DUP4 ADD SWAP2 SWAP1 SWAP2 MSTORE PUSH1 0x1 PUSH1 0x1 PUSH1 0xA0 SHL SUB AND PUSH1 0xC0 SWAP1 SWAP2 ADD MSTORE SWAP4 SWAP3 POP POP POP JUMP INVALID PUSH20 0x746F726546696C654D657461646174613A20496E PUSH23 0x616C6964205F66696C6553697A6573746F726546696C65 0x4D PUSH6 0x746164617461 GASPRICE KECCAK256 0x49 PUSH15 0x76616C6964205F66696C6554797065 PUSH0 SWAP2 0xB0 0xAF 0xD2 0xC6 0xEF DUP14 0xA9 0x21 CALLDATACOPY 0xBA SWAP1 PUSH28 0xCCDC85EC4856A15AD39DE3E0EFF02BE6D70E73746F726546696C653A KECCAK256 0x4E PUSH16 0x20617661696C61626C65206E6F646573 KECCAK256 PUSH7 0x6F756E6473746F PUSH19 0x6546696C654D657461646174613A20496E7661 PUSH13 0x6964205F756E69717565496473 PUSH21 0x6F726546696C654D657461646174613A20496E7661 PUSH13 0x69642073656E64657272657472 PUSH10 0x65766546696C65446574 PUSH2 0x696C PUSH20 0x3A2046696C65204E6F7420466F756E6472657472 PUSH10 0x65766546696C65446574 PUSH2 0x696C PUSH20 0x3A20556E617574686F72697A65642063616C6C65 PUSH19 0x206164647265737373746F726546696C654D65 PUSH21 0x61646174613A20496E76616C6964205F66696C654E PUSH2 0x6D65 PUSH20 0x746F726546696C654D657461646174613A20496E PUSH23 0x616C6964205F66696C6548617368A26469706673582212 KECCAK256 SLOAD GT 0xD0 SWAP1 0xFB 0xF7 0xB5 0xB2 LOG1 MULMOD EXTCODEHASH 0xE0 0x2C 0x4D GASPRICE CALLER 0xA5 0xD7 SHL LOG1 0x2C PUSH4 0xD1CB3F9A SWAP12 PUSH19 0xEAAA0BC064736F6C6343000816003373746F72 PUSH6 0x46696C653A20 0x4E PUSH16 0x20617661696C61626C65206E6F646573 KECCAK256 PUSH7 0x6F756E64A26469 PUSH17 0x667358221220D29D50F6E991DE172213E2 0x26 0x4C 0xEE ADDMOD PC 0xC8 PUSH30 0xD6EAEAD9A09201265354AB78893764736F6C634300081600330000000000 "
		},
		"gasEstimates": {
			"creation": {
				"codeDepositCost": "2404800",
				"executionCost": "2581",
				"totalCost": "2407381"
			},
			"external": {
				"beforeAll()": "infinite",
				"suite1Case1StoreFile()": "infinite"
			}
		},
		"methodIdentifiers": {
			"beforeAll()": "7fea0d4b",
			"suite1Case1StoreFile()": "a2716281"
		}
	},
	"abi": [
		{
			"inputs": [],
			"name": "beforeAll",
			"outputs": [],
			"stateMutability": "nonpayable",
			"type": "function"
		},
		{
			"inputs": [],
			"name": "suite1Case1StoreFile",
			"outputs": [],
			"stateMutability": "nonpayable",
			"type": "function"
		}
	]
}