{
	"contracts/_NodeManager.sol": {
		"NodeManager": {
			"abi": [
				{
					"inputs": [
						{
							"internalType": "address",
							"name": "_nodeAddress",
							"type": "address"
						},
						{
							"internalType": "uint256",
							"name": "_initialStorage",
							"type": "uint256"
						}
					],
					"name": "addNode",
					"outputs": [],
					"stateMutability": "nonpayable",
					"type": "function"
				},
				{
					"inputs": [
						{
							"internalType": "uint256",
							"name": "",
							"type": "uint256"
						}
					],
					"name": "allNodes",
					"outputs": [
						{
							"internalType": "address",
							"name": "",
							"type": "address"
						}
					],
					"stateMutability": "view",
					"type": "function"
				},
				{
					"inputs": [],
					"name": "getAllNodes",
					"outputs": [
						{
							"internalType": "address[]",
							"name": "",
							"type": "address[]"
						}
					],
					"stateMutability": "view",
					"type": "function"
				},
				{
					"inputs": [
						{
							"internalType": "address",
							"name": "",
							"type": "address"
						}
					],
					"name": "nodes",
					"outputs": [
						{
							"internalType": "address",
							"name": "nodeAddress",
							"type": "address"
						},
						{
							"internalType": "uint256",
							"name": "availableStorage",
							"type": "uint256"
						}
					],
					"stateMutability": "view",
					"type": "function"
				},
				{
					"inputs": [
						{
							"internalType": "address",
							"name": "_nodeAddress",
							"type": "address"
						},
						{
							"internalType": "string",
							"name": "_chunk",
							"type": "string"
						}
					],
					"name": "storeChunkInNode",
					"outputs": [],
					"stateMutability": "nonpayable",
					"type": "function"
				},
				{
					"inputs": [
						{
							"internalType": "address",
							"name": "_nodeAddress",
							"type": "address"
						},
						{
							"internalType": "uint256",
							"name": "_newStorage",
							"type": "uint256"
						}
					],
					"name": "updateAvailableStorage",
					"outputs": [],
					"stateMutability": "nonpayable",
					"type": "function"
				}
			],
			"devdoc": {
				"kind": "dev",
				"methods": {},
				"version": 1
			},
			"evm": {
				"assembly": "    /* \"contracts/_NodeManager.sol\":64:1890  contract NodeManager {... */\n  mstore(0x40, 0x80)\n  callvalue\n  dup1\n  iszero\n  tag_1\n  jumpi\n  0x00\n  dup1\n  revert\ntag_1:\n  pop\n  dataSize(sub_0)\n  dup1\n  dataOffset(sub_0)\n  0x00\n  codecopy\n  0x00\n  return\nstop\n\nsub_0: assembly {\n        /* \"contracts/_NodeManager.sol\":64:1890  contract NodeManager {... */\n      mstore(0x40, 0x80)\n      callvalue\n      dup1\n      iszero\n      tag_1\n      jumpi\n      0x00\n      dup1\n      revert\n    tag_1:\n      pop\n      jumpi(tag_2, lt(calldatasize, 0x04))\n      shr(0xe0, calldataload(0x00))\n      dup1\n      0x11bd77fe\n      eq\n      tag_3\n      jumpi\n      dup1\n      0x189a5a17\n      eq\n      tag_4\n      jumpi\n      dup1\n      0xa1174e7d\n      eq\n      tag_5\n      jumpi\n      dup1\n      0xb49f33c8\n      eq\n      tag_6\n      jumpi\n      dup1\n      0xb65814a6\n      eq\n      tag_7\n      jumpi\n      dup1\n      0xfe72ae13\n      eq\n      tag_8\n      jumpi\n    tag_2:\n      0x00\n      dup1\n      revert\n        /* \"contracts/_NodeManager.sol\":263:536  function addNode(address _nodeAddress, uint256 _initialStorage) public {... */\n    tag_3:\n      tag_9\n      0x04\n      dup1\n      calldatasize\n      sub\n      dup2\n      add\n      swap1\n      tag_10\n      swap2\n      swap1\n      tag_11\n      jump\t// in\n    tag_10:\n      tag_12\n      jump\t// in\n    tag_9:\n      stop\n        /* \"contracts/_NodeManager.sol\":185:222  mapping(address => Node) public nodes */\n    tag_4:\n      tag_13\n      0x04\n      dup1\n      calldatasize\n      sub\n      dup2\n      add\n      swap1\n      tag_14\n      swap2\n      swap1\n      tag_15\n      jump\t// in\n    tag_14:\n      tag_16\n      jump\t// in\n    tag_13:\n      mload(0x40)\n      tag_17\n      swap3\n      swap2\n      swap1\n      tag_18\n      jump\t// in\n    tag_17:\n      mload(0x40)\n      dup1\n      swap2\n      sub\n      swap1\n      return\n        /* \"contracts/_NodeManager.sol\":928:1024  function getAllNodes() public view returns (address[] memory) {... */\n    tag_5:\n      tag_19\n      tag_20\n      jump\t// in\n    tag_19:\n      mload(0x40)\n      tag_21\n      swap2\n      swap1\n      tag_22\n      jump\t// in\n    tag_21:\n      mload(0x40)\n      dup1\n      swap2\n      sub\n      swap1\n      return\n        /* \"contracts/_NodeManager.sol\":544:783  function updateAvailableStorage(address _nodeAddress, uint256 _newStorage) public {... */\n    tag_6:\n      tag_23\n      0x04\n      dup1\n      calldatasize\n      sub\n      dup2\n      add\n      swap1\n      tag_24\n      swap2\n      swap1\n      tag_11\n      jump\t// in\n    tag_24:\n      tag_25\n      jump\t// in\n    tag_23:\n      stop\n        /* \"contracts/_NodeManager.sol\":791:918  function storeChunkInNode(address _nodeAddress, string memory _chunk) public {... */\n    tag_7:\n      tag_26\n      0x04\n      dup1\n      calldatasize\n      sub\n      dup2\n      add\n      swap1\n      tag_27\n      swap2\n      swap1\n      tag_28\n      jump\t// in\n    tag_27:\n      tag_29\n      jump\t// in\n    tag_26:\n      stop\n        /* \"contracts/_NodeManager.sol\":229:254  address[] public allNodes */\n    tag_8:\n      tag_30\n      0x04\n      dup1\n      calldatasize\n      sub\n      dup2\n      add\n      swap1\n      tag_31\n      swap2\n      swap1\n      tag_32\n      jump\t// in\n    tag_31:\n      tag_33\n      jump\t// in\n    tag_30:\n      mload(0x40)\n      tag_34\n      swap2\n      swap1\n      tag_35\n      jump\t// in\n    tag_34:\n      mload(0x40)\n      dup1\n      swap2\n      sub\n      swap1\n      return\n        /* \"contracts/_NodeManager.sol\":263:536  function addNode(address _nodeAddress, uint256 _initialStorage) public {... */\n    tag_12:\n        /* \"contracts/_NodeManager.sol\":396:397  0 */\n      0x00\n        /* \"contracts/_NodeManager.sol\":353:398  nodes[_nodeAddress].nodeAddress == address(0) */\n      0xffffffffffffffffffffffffffffffffffffffff\n      and\n        /* \"contracts/_NodeManager.sol\":353:358  nodes */\n      0x00\n        /* \"contracts/_NodeManager.sol\":353:372  nodes[_nodeAddress] */\n      dup1\n        /* \"contracts/_NodeManager.sol\":359:371  _nodeAddress */\n      dup5\n        /* \"contracts/_NodeManager.sol\":353:372  nodes[_nodeAddress] */\n      0xffffffffffffffffffffffffffffffffffffffff\n      and\n      0xffffffffffffffffffffffffffffffffffffffff\n      and\n      dup2\n      mstore\n      0x20\n      add\n      swap1\n      dup2\n      mstore\n      0x20\n      add\n      0x00\n      keccak256\n        /* \"contracts/_NodeManager.sol\":353:384  nodes[_nodeAddress].nodeAddress */\n      0x00\n      add\n      0x00\n      swap1\n      sload\n      swap1\n      0x0100\n      exp\n      swap1\n      div\n      0xffffffffffffffffffffffffffffffffffffffff\n      and\n        /* \"contracts/_NodeManager.sol\":353:398  nodes[_nodeAddress].nodeAddress == address(0) */\n      0xffffffffffffffffffffffffffffffffffffffff\n      and\n      eq\n        /* \"contracts/_NodeManager.sol\":345:422  require(nodes[_nodeAddress].nodeAddress == address(0), \"Node already exists\") */\n      tag_37\n      jumpi\n      mload(0x40)\n      0x08c379a000000000000000000000000000000000000000000000000000000000\n      dup2\n      mstore\n      0x04\n      add\n      tag_38\n      swap1\n      tag_39\n      jump\t// in\n    tag_38:\n      mload(0x40)\n      dup1\n      swap2\n      sub\n      swap1\n      revert\n    tag_37:\n        /* \"contracts/_NodeManager.sol\":455:490  Node(_nodeAddress, _initialStorage) */\n      mload(0x40)\n      dup1\n      0x40\n      add\n      0x40\n      mstore\n      dup1\n        /* \"contracts/_NodeManager.sol\":460:472  _nodeAddress */\n      dup4\n        /* \"contracts/_NodeManager.sol\":455:490  Node(_nodeAddress, _initialStorage) */\n      0xffffffffffffffffffffffffffffffffffffffff\n      and\n      dup2\n      mstore\n      0x20\n      add\n        /* \"contracts/_NodeManager.sol\":474:489  _initialStorage */\n      dup3\n        /* \"contracts/_NodeManager.sol\":455:490  Node(_nodeAddress, _initialStorage) */\n      dup2\n      mstore\n      pop\n        /* \"contracts/_NodeManager.sol\":433:438  nodes */\n      0x00\n        /* \"contracts/_NodeManager.sol\":433:452  nodes[_nodeAddress] */\n      dup1\n        /* \"contracts/_NodeManager.sol\":439:451  _nodeAddress */\n      dup5\n        /* \"contracts/_NodeManager.sol\":433:452  nodes[_nodeAddress] */\n      0xffffffffffffffffffffffffffffffffffffffff\n      and\n      0xffffffffffffffffffffffffffffffffffffffff\n      and\n      dup2\n      mstore\n      0x20\n      add\n      swap1\n      dup2\n      mstore\n      0x20\n      add\n      0x00\n      keccak256\n        /* \"contracts/_NodeManager.sol\":433:490  nodes[_nodeAddress] = Node(_nodeAddress, _initialStorage) */\n      0x00\n      dup3\n      add\n      mload\n      dup2\n      0x00\n      add\n      exp(0x0100, 0x00)\n      dup2\n      sload\n      dup2\n      0xffffffffffffffffffffffffffffffffffffffff\n      mul\n      not\n      and\n      swap1\n      dup4\n      0xffffffffffffffffffffffffffffffffffffffff\n      and\n      mul\n      or\n      swap1\n      sstore\n      pop\n      0x20\n      dup3\n      add\n      mload\n      dup2\n      0x01\n      add\n      sstore\n      swap1\n      pop\n      pop\n        /* \"contracts/_NodeManager.sol\":501:509  allNodes */\n      0x01\n        /* \"contracts/_NodeManager.sol\":515:527  _nodeAddress */\n      dup3\n        /* \"contracts/_NodeManager.sol\":501:528  allNodes.push(_nodeAddress) */\n      swap1\n      dup1\n      0x01\n      dup2\n      sload\n      add\n      dup1\n      dup3\n      sstore\n      dup1\n      swap2\n      pop\n      pop\n      0x01\n      swap1\n      sub\n      swap1\n      0x00\n      mstore\n      keccak256(0x00, 0x20)\n      add\n      0x00\n      swap1\n      swap2\n      swap1\n      swap2\n      swap1\n      swap2\n      0x0100\n      exp\n      dup2\n      sload\n      dup2\n      0xffffffffffffffffffffffffffffffffffffffff\n      mul\n      not\n      and\n      swap1\n      dup4\n      0xffffffffffffffffffffffffffffffffffffffff\n      and\n      mul\n      or\n      swap1\n      sstore\n      pop\n        /* \"contracts/_NodeManager.sol\":263:536  function addNode(address _nodeAddress, uint256 _initialStorage) public {... */\n      pop\n      pop\n      jump\t// out\n        /* \"contracts/_NodeManager.sol\":185:222  mapping(address => Node) public nodes */\n    tag_16:\n      mstore(0x20, 0x00)\n      dup1\n      0x00\n      mstore\n      keccak256(0x00, 0x40)\n      0x00\n      swap2\n      pop\n      swap1\n      pop\n      dup1\n      0x00\n      add\n      0x00\n      swap1\n      sload\n      swap1\n      0x0100\n      exp\n      swap1\n      div\n      0xffffffffffffffffffffffffffffffffffffffff\n      and\n      swap1\n      dup1\n      0x01\n      add\n      sload\n      swap1\n      pop\n      dup3\n      jump\t// out\n        /* \"contracts/_NodeManager.sol\":928:1024  function getAllNodes() public view returns (address[] memory) {... */\n    tag_20:\n        /* \"contracts/_NodeManager.sol\":972:988  address[] memory */\n      0x60\n        /* \"contracts/_NodeManager.sol\":1008:1016  allNodes */\n      0x01\n        /* \"contracts/_NodeManager.sol\":1001:1016  return allNodes */\n      dup1\n      sload\n      dup1\n      0x20\n      mul\n      0x20\n      add\n      mload(0x40)\n      swap1\n      dup2\n      add\n      0x40\n      mstore\n      dup1\n      swap3\n      swap2\n      swap1\n      dup2\n      dup2\n      mstore\n      0x20\n      add\n      dup3\n      dup1\n      sload\n      dup1\n      iszero\n      tag_42\n      jumpi\n      0x20\n      mul\n      dup3\n      add\n      swap2\n      swap1\n      0x00\n      mstore\n      keccak256(0x00, 0x20)\n      swap1\n    tag_43:\n      dup2\n      0x00\n      swap1\n      sload\n      swap1\n      0x0100\n      exp\n      swap1\n      div\n      0xffffffffffffffffffffffffffffffffffffffff\n      and\n      0xffffffffffffffffffffffffffffffffffffffff\n      and\n      dup2\n      mstore\n      0x20\n      add\n      swap1\n      0x01\n      add\n      swap1\n      dup1\n      dup4\n      gt\n      tag_43\n      jumpi\n    tag_42:\n      pop\n      pop\n      pop\n      pop\n      pop\n      swap1\n      pop\n        /* \"contracts/_NodeManager.sol\":928:1024  function getAllNodes() public view returns (address[] memory) {... */\n      swap1\n      jump\t// out\n        /* \"contracts/_NodeManager.sol\":544:783  function updateAvailableStorage(address _nodeAddress, uint256 _newStorage) public {... */\n    tag_25:\n        /* \"contracts/_NodeManager.sol\":688:689  0 */\n      0x00\n        /* \"contracts/_NodeManager.sol\":645:690  nodes[_nodeAddress].nodeAddress != address(0) */\n      0xffffffffffffffffffffffffffffffffffffffff\n      and\n        /* \"contracts/_NodeManager.sol\":645:650  nodes */\n      0x00\n        /* \"contracts/_NodeManager.sol\":645:664  nodes[_nodeAddress] */\n      dup1\n        /* \"contracts/_NodeManager.sol\":651:663  _nodeAddress */\n      dup5\n        /* \"contracts/_NodeManager.sol\":645:664  nodes[_nodeAddress] */\n      0xffffffffffffffffffffffffffffffffffffffff\n      and\n      0xffffffffffffffffffffffffffffffffffffffff\n      and\n      dup2\n      mstore\n      0x20\n      add\n      swap1\n      dup2\n      mstore\n      0x20\n      add\n      0x00\n      keccak256\n        /* \"contracts/_NodeManager.sol\":645:676  nodes[_nodeAddress].nodeAddress */\n      0x00\n      add\n      0x00\n      swap1\n      sload\n      swap1\n      0x0100\n      exp\n      swap1\n      div\n      0xffffffffffffffffffffffffffffffffffffffff\n      and\n        /* \"contracts/_NodeManager.sol\":645:690  nodes[_nodeAddress].nodeAddress != address(0) */\n      0xffffffffffffffffffffffffffffffffffffffff\n      and\n      sub\n        /* \"contracts/_NodeManager.sol\":637:714  require(nodes[_nodeAddress].nodeAddress != address(0), \"Node does not exist\") */\n      tag_45\n      jumpi\n      mload(0x40)\n      0x08c379a000000000000000000000000000000000000000000000000000000000\n      dup2\n      mstore\n      0x04\n      add\n      tag_46\n      swap1\n      tag_47\n      jump\t// in\n    tag_46:\n      mload(0x40)\n      dup1\n      swap2\n      sub\n      swap1\n      revert\n    tag_45:\n        /* \"contracts/_NodeManager.sol\":764:775  _newStorage */\n      dup1\n        /* \"contracts/_NodeManager.sol\":725:730  nodes */\n      0x00\n        /* \"contracts/_NodeManager.sol\":725:744  nodes[_nodeAddress] */\n      dup1\n        /* \"contracts/_NodeManager.sol\":731:743  _nodeAddress */\n      dup5\n        /* \"contracts/_NodeManager.sol\":725:744  nodes[_nodeAddress] */\n      0xffffffffffffffffffffffffffffffffffffffff\n      and\n      0xffffffffffffffffffffffffffffffffffffffff\n      and\n      dup2\n      mstore\n      0x20\n      add\n      swap1\n      dup2\n      mstore\n      0x20\n      add\n      0x00\n      keccak256\n        /* \"contracts/_NodeManager.sol\":725:761  nodes[_nodeAddress].availableStorage */\n      0x01\n      add\n        /* \"contracts/_NodeManager.sol\":725:775  nodes[_nodeAddress].availableStorage = _newStorage */\n      dup2\n      swap1\n      sstore\n      pop\n        /* \"contracts/_NodeManager.sol\":544:783  function updateAvailableStorage(address _nodeAddress, uint256 _newStorage) public {... */\n      pop\n      pop\n      jump\t// out\n        /* \"contracts/_NodeManager.sol\":791:918  function storeChunkInNode(address _nodeAddress, string memory _chunk) public {... */\n    tag_29:\n      pop\n      pop\n      jump\t// out\n        /* \"contracts/_NodeManager.sol\":229:254  address[] public allNodes */\n    tag_33:\n      0x01\n      dup2\n      dup2\n      sload\n      dup2\n      lt\n      tag_49\n      jumpi\n      0x00\n      dup1\n      revert\n    tag_49:\n      swap1\n      0x00\n      mstore\n      keccak256(0x00, 0x20)\n      add\n      0x00\n      swap2\n      pop\n      sload\n      swap1\n      0x0100\n      exp\n      swap1\n      div\n      0xffffffffffffffffffffffffffffffffffffffff\n      and\n      dup2\n      jump\t// out\n        /* \"#utility.yul\":7:82   */\n    tag_51:\n        /* \"#utility.yul\":40:46   */\n      0x00\n        /* \"#utility.yul\":73:75   */\n      0x40\n        /* \"#utility.yul\":67:76   */\n      mload\n        /* \"#utility.yul\":57:76   */\n      swap1\n      pop\n        /* \"#utility.yul\":7:82   */\n      swap1\n      jump\t// out\n        /* \"#utility.yul\":88:205   */\n    tag_52:\n        /* \"#utility.yul\":197:198   */\n      0x00\n        /* \"#utility.yul\":194:195   */\n      dup1\n        /* \"#utility.yul\":187:199   */\n      revert\n        /* \"#utility.yul\":211:328   */\n    tag_53:\n        /* \"#utility.yul\":320:321   */\n      0x00\n        /* \"#utility.yul\":317:318   */\n      dup1\n        /* \"#utility.yul\":310:322   */\n      revert\n        /* \"#utility.yul\":334:460   */\n    tag_54:\n        /* \"#utility.yul\":371:378   */\n      0x00\n        /* \"#utility.yul\":411:453   */\n      0xffffffffffffffffffffffffffffffffffffffff\n        /* \"#utility.yul\":404:409   */\n      dup3\n        /* \"#utility.yul\":400:454   */\n      and\n        /* \"#utility.yul\":389:454   */\n      swap1\n      pop\n        /* \"#utility.yul\":334:460   */\n      swap2\n      swap1\n      pop\n      jump\t// out\n        /* \"#utility.yul\":466:562   */\n    tag_55:\n        /* \"#utility.yul\":503:510   */\n      0x00\n        /* \"#utility.yul\":532:556   */\n      tag_91\n        /* \"#utility.yul\":550:555   */\n      dup3\n        /* \"#utility.yul\":532:556   */\n      tag_54\n      jump\t// in\n    tag_91:\n        /* \"#utility.yul\":521:556   */\n      swap1\n      pop\n        /* \"#utility.yul\":466:562   */\n      swap2\n      swap1\n      pop\n      jump\t// out\n        /* \"#utility.yul\":568:690   */\n    tag_56:\n        /* \"#utility.yul\":641:665   */\n      tag_93\n        /* \"#utility.yul\":659:664   */\n      dup2\n        /* \"#utility.yul\":641:665   */\n      tag_55\n      jump\t// in\n    tag_93:\n        /* \"#utility.yul\":634:639   */\n      dup2\n        /* \"#utility.yul\":631:666   */\n      eq\n        /* \"#utility.yul\":621:684   */\n      tag_94\n      jumpi\n        /* \"#utility.yul\":680:681   */\n      0x00\n        /* \"#utility.yul\":677:678   */\n      dup1\n        /* \"#utility.yul\":670:682   */\n      revert\n        /* \"#utility.yul\":621:684   */\n    tag_94:\n        /* \"#utility.yul\":568:690   */\n      pop\n      jump\t// out\n        /* \"#utility.yul\":696:835   */\n    tag_57:\n        /* \"#utility.yul\":742:747   */\n      0x00\n        /* \"#utility.yul\":780:786   */\n      dup2\n        /* \"#utility.yul\":767:787   */\n      calldataload\n        /* \"#utility.yul\":758:787   */\n      swap1\n      pop\n        /* \"#utility.yul\":796:829   */\n      tag_96\n        /* \"#utility.yul\":823:828   */\n      dup2\n        /* \"#utility.yul\":796:829   */\n      tag_56\n      jump\t// in\n    tag_96:\n        /* \"#utility.yul\":696:835   */\n      swap3\n      swap2\n      pop\n      pop\n      jump\t// out\n        /* \"#utility.yul\":841:918   */\n    tag_58:\n        /* \"#utility.yul\":878:885   */\n      0x00\n        /* \"#utility.yul\":907:912   */\n      dup2\n        /* \"#utility.yul\":896:912   */\n      swap1\n      pop\n        /* \"#utility.yul\":841:918   */\n      swap2\n      swap1\n      pop\n      jump\t// out\n        /* \"#utility.yul\":924:1046   */\n    tag_59:\n        /* \"#utility.yul\":997:1021   */\n      tag_99\n        /* \"#utility.yul\":1015:1020   */\n      dup2\n        /* \"#utility.yul\":997:1021   */\n      tag_58\n      jump\t// in\n    tag_99:\n        /* \"#utility.yul\":990:995   */\n      dup2\n        /* \"#utility.yul\":987:1022   */\n      eq\n        /* \"#utility.yul\":977:1040   */\n      tag_100\n      jumpi\n        /* \"#utility.yul\":1036:1037   */\n      0x00\n        /* \"#utility.yul\":1033:1034   */\n      dup1\n        /* \"#utility.yul\":1026:1038   */\n      revert\n        /* \"#utility.yul\":977:1040   */\n    tag_100:\n        /* \"#utility.yul\":924:1046   */\n      pop\n      jump\t// out\n        /* \"#utility.yul\":1052:1191   */\n    tag_60:\n        /* \"#utility.yul\":1098:1103   */\n      0x00\n        /* \"#utility.yul\":1136:1142   */\n      dup2\n        /* \"#utility.yul\":1123:1143   */\n      calldataload\n        /* \"#utility.yul\":1114:1143   */\n      swap1\n      pop\n        /* \"#utility.yul\":1152:1185   */\n      tag_102\n        /* \"#utility.yul\":1179:1184   */\n      dup2\n        /* \"#utility.yul\":1152:1185   */\n      tag_59\n      jump\t// in\n    tag_102:\n        /* \"#utility.yul\":1052:1191   */\n      swap3\n      swap2\n      pop\n      pop\n      jump\t// out\n        /* \"#utility.yul\":1197:1671   */\n    tag_11:\n        /* \"#utility.yul\":1265:1271   */\n      0x00\n        /* \"#utility.yul\":1273:1279   */\n      dup1\n        /* \"#utility.yul\":1322:1324   */\n      0x40\n        /* \"#utility.yul\":1310:1319   */\n      dup4\n        /* \"#utility.yul\":1301:1308   */\n      dup6\n        /* \"#utility.yul\":1297:1320   */\n      sub\n        /* \"#utility.yul\":1293:1325   */\n      slt\n        /* \"#utility.yul\":1290:1409   */\n      iszero\n      tag_104\n      jumpi\n        /* \"#utility.yul\":1328:1407   */\n      tag_105\n      tag_52\n      jump\t// in\n    tag_105:\n        /* \"#utility.yul\":1290:1409   */\n    tag_104:\n        /* \"#utility.yul\":1448:1449   */\n      0x00\n        /* \"#utility.yul\":1473:1526   */\n      tag_106\n        /* \"#utility.yul\":1518:1525   */\n      dup6\n        /* \"#utility.yul\":1509:1515   */\n      dup3\n        /* \"#utility.yul\":1498:1507   */\n      dup7\n        /* \"#utility.yul\":1494:1516   */\n      add\n        /* \"#utility.yul\":1473:1526   */\n      tag_57\n      jump\t// in\n    tag_106:\n        /* \"#utility.yul\":1463:1526   */\n      swap3\n      pop\n        /* \"#utility.yul\":1419:1536   */\n      pop\n        /* \"#utility.yul\":1575:1577   */\n      0x20\n        /* \"#utility.yul\":1601:1654   */\n      tag_107\n        /* \"#utility.yul\":1646:1653   */\n      dup6\n        /* \"#utility.yul\":1637:1643   */\n      dup3\n        /* \"#utility.yul\":1626:1635   */\n      dup7\n        /* \"#utility.yul\":1622:1644   */\n      add\n        /* \"#utility.yul\":1601:1654   */\n      tag_60\n      jump\t// in\n    tag_107:\n        /* \"#utility.yul\":1591:1654   */\n      swap2\n      pop\n        /* \"#utility.yul\":1546:1664   */\n      pop\n        /* \"#utility.yul\":1197:1671   */\n      swap3\n      pop\n      swap3\n      swap1\n      pop\n      jump\t// out\n        /* \"#utility.yul\":1677:2006   */\n    tag_15:\n        /* \"#utility.yul\":1736:1742   */\n      0x00\n        /* \"#utility.yul\":1785:1787   */\n      0x20\n        /* \"#utility.yul\":1773:1782   */\n      dup3\n        /* \"#utility.yul\":1764:1771   */\n      dup5\n        /* \"#utility.yul\":1760:1783   */\n      sub\n        /* \"#utility.yul\":1756:1788   */\n      slt\n        /* \"#utility.yul\":1753:1872   */\n      iszero\n      tag_109\n      jumpi\n        /* \"#utility.yul\":1791:1870   */\n      tag_110\n      tag_52\n      jump\t// in\n    tag_110:\n        /* \"#utility.yul\":1753:1872   */\n    tag_109:\n        /* \"#utility.yul\":1911:1912   */\n      0x00\n        /* \"#utility.yul\":1936:1989   */\n      tag_111\n        /* \"#utility.yul\":1981:1988   */\n      dup5\n        /* \"#utility.yul\":1972:1978   */\n      dup3\n        /* \"#utility.yul\":1961:1970   */\n      dup6\n        /* \"#utility.yul\":1957:1979   */\n      add\n        /* \"#utility.yul\":1936:1989   */\n      tag_57\n      jump\t// in\n    tag_111:\n        /* \"#utility.yul\":1926:1989   */\n      swap2\n      pop\n        /* \"#utility.yul\":1882:1999   */\n      pop\n        /* \"#utility.yul\":1677:2006   */\n      swap3\n      swap2\n      pop\n      pop\n      jump\t// out\n        /* \"#utility.yul\":2012:2130   */\n    tag_61:\n        /* \"#utility.yul\":2099:2123   */\n      tag_113\n        /* \"#utility.yul\":2117:2122   */\n      dup2\n        /* \"#utility.yul\":2099:2123   */\n      tag_55\n      jump\t// in\n    tag_113:\n        /* \"#utility.yul\":2094:2097   */\n      dup3\n        /* \"#utility.yul\":2087:2124   */\n      mstore\n        /* \"#utility.yul\":2012:2130   */\n      pop\n      pop\n      jump\t// out\n        /* \"#utility.yul\":2136:2254   */\n    tag_62:\n        /* \"#utility.yul\":2223:2247   */\n      tag_115\n        /* \"#utility.yul\":2241:2246   */\n      dup2\n        /* \"#utility.yul\":2223:2247   */\n      tag_58\n      jump\t// in\n    tag_115:\n        /* \"#utility.yul\":2218:2221   */\n      dup3\n        /* \"#utility.yul\":2211:2248   */\n      mstore\n        /* \"#utility.yul\":2136:2254   */\n      pop\n      pop\n      jump\t// out\n        /* \"#utility.yul\":2260:2592   */\n    tag_18:\n        /* \"#utility.yul\":2381:2385   */\n      0x00\n        /* \"#utility.yul\":2419:2421   */\n      0x40\n        /* \"#utility.yul\":2408:2417   */\n      dup3\n        /* \"#utility.yul\":2404:2422   */\n      add\n        /* \"#utility.yul\":2396:2422   */\n      swap1\n      pop\n        /* \"#utility.yul\":2432:2503   */\n      tag_117\n        /* \"#utility.yul\":2500:2501   */\n      0x00\n        /* \"#utility.yul\":2489:2498   */\n      dup4\n        /* \"#utility.yul\":2485:2502   */\n      add\n        /* \"#utility.yul\":2476:2482   */\n      dup6\n        /* \"#utility.yul\":2432:2503   */\n      tag_61\n      jump\t// in\n    tag_117:\n        /* \"#utility.yul\":2513:2585   */\n      tag_118\n        /* \"#utility.yul\":2581:2583   */\n      0x20\n        /* \"#utility.yul\":2570:2579   */\n      dup4\n        /* \"#utility.yul\":2566:2584   */\n      add\n        /* \"#utility.yul\":2557:2563   */\n      dup5\n        /* \"#utility.yul\":2513:2585   */\n      tag_62\n      jump\t// in\n    tag_118:\n        /* \"#utility.yul\":2260:2592   */\n      swap4\n      swap3\n      pop\n      pop\n      pop\n      jump\t// out\n        /* \"#utility.yul\":2598:2712   */\n    tag_63:\n        /* \"#utility.yul\":2665:2671   */\n      0x00\n        /* \"#utility.yul\":2699:2704   */\n      dup2\n        /* \"#utility.yul\":2693:2705   */\n      mload\n        /* \"#utility.yul\":2683:2705   */\n      swap1\n      pop\n        /* \"#utility.yul\":2598:2712   */\n      swap2\n      swap1\n      pop\n      jump\t// out\n        /* \"#utility.yul\":2718:2902   */\n    tag_64:\n        /* \"#utility.yul\":2817:2828   */\n      0x00\n        /* \"#utility.yul\":2851:2857   */\n      dup3\n        /* \"#utility.yul\":2846:2849   */\n      dup3\n        /* \"#utility.yul\":2839:2858   */\n      mstore\n        /* \"#utility.yul\":2891:2895   */\n      0x20\n        /* \"#utility.yul\":2886:2889   */\n      dup3\n        /* \"#utility.yul\":2882:2896   */\n      add\n        /* \"#utility.yul\":2867:2896   */\n      swap1\n      pop\n        /* \"#utility.yul\":2718:2902   */\n      swap3\n      swap2\n      pop\n      pop\n      jump\t// out\n        /* \"#utility.yul\":2908:3040   */\n    tag_65:\n        /* \"#utility.yul\":2975:2979   */\n      0x00\n        /* \"#utility.yul\":2998:3001   */\n      dup2\n        /* \"#utility.yul\":2990:3001   */\n      swap1\n      pop\n        /* \"#utility.yul\":3028:3032   */\n      0x20\n        /* \"#utility.yul\":3023:3026   */\n      dup3\n        /* \"#utility.yul\":3019:3033   */\n      add\n        /* \"#utility.yul\":3011:3033   */\n      swap1\n      pop\n        /* \"#utility.yul\":2908:3040   */\n      swap2\n      swap1\n      pop\n      jump\t// out\n        /* \"#utility.yul\":3046:3154   */\n    tag_66:\n        /* \"#utility.yul\":3123:3147   */\n      tag_123\n        /* \"#utility.yul\":3141:3146   */\n      dup2\n        /* \"#utility.yul\":3123:3147   */\n      tag_55\n      jump\t// in\n    tag_123:\n        /* \"#utility.yul\":3118:3121   */\n      dup3\n        /* \"#utility.yul\":3111:3148   */\n      mstore\n        /* \"#utility.yul\":3046:3154   */\n      pop\n      pop\n      jump\t// out\n        /* \"#utility.yul\":3160:3339   */\n    tag_67:\n        /* \"#utility.yul\":3229:3239   */\n      0x00\n        /* \"#utility.yul\":3250:3296   */\n      tag_125\n        /* \"#utility.yul\":3292:3295   */\n      dup4\n        /* \"#utility.yul\":3284:3290   */\n      dup4\n        /* \"#utility.yul\":3250:3296   */\n      tag_66\n      jump\t// in\n    tag_125:\n        /* \"#utility.yul\":3328:3332   */\n      0x20\n        /* \"#utility.yul\":3323:3326   */\n      dup4\n        /* \"#utility.yul\":3319:3333   */\n      add\n        /* \"#utility.yul\":3305:3333   */\n      swap1\n      pop\n        /* \"#utility.yul\":3160:3339   */\n      swap3\n      swap2\n      pop\n      pop\n      jump\t// out\n        /* \"#utility.yul\":3345:3458   */\n    tag_68:\n        /* \"#utility.yul\":3415:3419   */\n      0x00\n        /* \"#utility.yul\":3447:3451   */\n      0x20\n        /* \"#utility.yul\":3442:3445   */\n      dup3\n        /* \"#utility.yul\":3438:3452   */\n      add\n        /* \"#utility.yul\":3430:3452   */\n      swap1\n      pop\n        /* \"#utility.yul\":3345:3458   */\n      swap2\n      swap1\n      pop\n      jump\t// out\n        /* \"#utility.yul\":3494:4226   */\n    tag_69:\n        /* \"#utility.yul\":3613:3616   */\n      0x00\n        /* \"#utility.yul\":3642:3696   */\n      tag_128\n        /* \"#utility.yul\":3690:3695   */\n      dup3\n        /* \"#utility.yul\":3642:3696   */\n      tag_63\n      jump\t// in\n    tag_128:\n        /* \"#utility.yul\":3712:3798   */\n      tag_129\n        /* \"#utility.yul\":3791:3797   */\n      dup2\n        /* \"#utility.yul\":3786:3789   */\n      dup6\n        /* \"#utility.yul\":3712:3798   */\n      tag_64\n      jump\t// in\n    tag_129:\n        /* \"#utility.yul\":3705:3798   */\n      swap4\n      pop\n        /* \"#utility.yul\":3822:3878   */\n      tag_130\n        /* \"#utility.yul\":3872:3877   */\n      dup4\n        /* \"#utility.yul\":3822:3878   */\n      tag_65\n      jump\t// in\n    tag_130:\n        /* \"#utility.yul\":3901:3908   */\n      dup1\n        /* \"#utility.yul\":3932:3933   */\n      0x00\n        /* \"#utility.yul\":3917:4201   */\n    tag_131:\n        /* \"#utility.yul\":3942:3948   */\n      dup4\n        /* \"#utility.yul\":3939:3940   */\n      dup2\n        /* \"#utility.yul\":3936:3949   */\n      lt\n        /* \"#utility.yul\":3917:4201   */\n      iszero\n      tag_133\n      jumpi\n        /* \"#utility.yul\":4018:4024   */\n      dup2\n        /* \"#utility.yul\":4012:4025   */\n      mload\n        /* \"#utility.yul\":4045:4108   */\n      tag_134\n        /* \"#utility.yul\":4104:4107   */\n      dup9\n        /* \"#utility.yul\":4089:4102   */\n      dup3\n        /* \"#utility.yul\":4045:4108   */\n      tag_67\n      jump\t// in\n    tag_134:\n        /* \"#utility.yul\":4038:4108   */\n      swap8\n      pop\n        /* \"#utility.yul\":4131:4191   */\n      tag_135\n        /* \"#utility.yul\":4184:4190   */\n      dup4\n        /* \"#utility.yul\":4131:4191   */\n      tag_68\n      jump\t// in\n    tag_135:\n        /* \"#utility.yul\":4121:4191   */\n      swap3\n      pop\n        /* \"#utility.yul\":3977:4201   */\n      pop\n        /* \"#utility.yul\":3964:3965   */\n      0x01\n        /* \"#utility.yul\":3961:3962   */\n      dup2\n        /* \"#utility.yul\":3957:3966   */\n      add\n        /* \"#utility.yul\":3952:3966   */\n      swap1\n      pop\n        /* \"#utility.yul\":3917:4201   */\n      jump(tag_131)\n    tag_133:\n        /* \"#utility.yul\":3921:3935   */\n      pop\n        /* \"#utility.yul\":4217:4220   */\n      dup6\n        /* \"#utility.yul\":4210:4220   */\n      swap4\n      pop\n        /* \"#utility.yul\":3618:4226   */\n      pop\n      pop\n      pop\n        /* \"#utility.yul\":3494:4226   */\n      swap3\n      swap2\n      pop\n      pop\n      jump\t// out\n        /* \"#utility.yul\":4232:4605   */\n    tag_22:\n        /* \"#utility.yul\":4375:4379   */\n      0x00\n        /* \"#utility.yul\":4413:4415   */\n      0x20\n        /* \"#utility.yul\":4402:4411   */\n      dup3\n        /* \"#utility.yul\":4398:4416   */\n      add\n        /* \"#utility.yul\":4390:4416   */\n      swap1\n      pop\n        /* \"#utility.yul\":4462:4471   */\n      dup2\n        /* \"#utility.yul\":4456:4460   */\n      dup2\n        /* \"#utility.yul\":4452:4472   */\n      sub\n        /* \"#utility.yul\":4448:4449   */\n      0x00\n        /* \"#utility.yul\":4437:4446   */\n      dup4\n        /* \"#utility.yul\":4433:4450   */\n      add\n        /* \"#utility.yul\":4426:4473   */\n      mstore\n        /* \"#utility.yul\":4490:4598   */\n      tag_137\n        /* \"#utility.yul\":4593:4597   */\n      dup2\n        /* \"#utility.yul\":4584:4590   */\n      dup5\n        /* \"#utility.yul\":4490:4598   */\n      tag_69\n      jump\t// in\n    tag_137:\n        /* \"#utility.yul\":4482:4598   */\n      swap1\n      pop\n        /* \"#utility.yul\":4232:4605   */\n      swap3\n      swap2\n      pop\n      pop\n      jump\t// out\n        /* \"#utility.yul\":4611:4728   */\n    tag_70:\n        /* \"#utility.yul\":4720:4721   */\n      0x00\n        /* \"#utility.yul\":4717:4718   */\n      dup1\n        /* \"#utility.yul\":4710:4722   */\n      revert\n        /* \"#utility.yul\":4734:4851   */\n    tag_71:\n        /* \"#utility.yul\":4843:4844   */\n      0x00\n        /* \"#utility.yul\":4840:4841   */\n      dup1\n        /* \"#utility.yul\":4833:4845   */\n      revert\n        /* \"#utility.yul\":4857:4959   */\n    tag_72:\n        /* \"#utility.yul\":4898:4904   */\n      0x00\n        /* \"#utility.yul\":4949:4951   */\n      0x1f\n        /* \"#utility.yul\":4945:4952   */\n      not\n        /* \"#utility.yul\":4940:4942   */\n      0x1f\n        /* \"#utility.yul\":4933:4938   */\n      dup4\n        /* \"#utility.yul\":4929:4943   */\n      add\n        /* \"#utility.yul\":4925:4953   */\n      and\n        /* \"#utility.yul\":4915:4953   */\n      swap1\n      pop\n        /* \"#utility.yul\":4857:4959   */\n      swap2\n      swap1\n      pop\n      jump\t// out\n        /* \"#utility.yul\":4965:5145   */\n    tag_73:\n        /* \"#utility.yul\":5013:5090   */\n      0x4e487b7100000000000000000000000000000000000000000000000000000000\n        /* \"#utility.yul\":5010:5011   */\n      0x00\n        /* \"#utility.yul\":5003:5091   */\n      mstore\n        /* \"#utility.yul\":5110:5114   */\n      0x41\n        /* \"#utility.yul\":5107:5108   */\n      0x04\n        /* \"#utility.yul\":5100:5115   */\n      mstore\n        /* \"#utility.yul\":5134:5138   */\n      0x24\n        /* \"#utility.yul\":5131:5132   */\n      0x00\n        /* \"#utility.yul\":5124:5139   */\n      revert\n        /* \"#utility.yul\":5151:5432   */\n    tag_74:\n        /* \"#utility.yul\":5234:5261   */\n      tag_143\n        /* \"#utility.yul\":5256:5260   */\n      dup3\n        /* \"#utility.yul\":5234:5261   */\n      tag_72\n      jump\t// in\n    tag_143:\n        /* \"#utility.yul\":5226:5232   */\n      dup2\n        /* \"#utility.yul\":5222:5262   */\n      add\n        /* \"#utility.yul\":5364:5370   */\n      dup2\n        /* \"#utility.yul\":5352:5362   */\n      dup2\n        /* \"#utility.yul\":5349:5371   */\n      lt\n        /* \"#utility.yul\":5328:5346   */\n      0xffffffffffffffff\n        /* \"#utility.yul\":5316:5326   */\n      dup3\n        /* \"#utility.yul\":5313:5347   */\n      gt\n        /* \"#utility.yul\":5310:5372   */\n      or\n        /* \"#utility.yul\":5307:5395   */\n      iszero\n      tag_144\n      jumpi\n        /* \"#utility.yul\":5375:5393   */\n      tag_145\n      tag_73\n      jump\t// in\n    tag_145:\n        /* \"#utility.yul\":5307:5395   */\n    tag_144:\n        /* \"#utility.yul\":5415:5425   */\n      dup1\n        /* \"#utility.yul\":5411:5413   */\n      0x40\n        /* \"#utility.yul\":5404:5426   */\n      mstore\n        /* \"#utility.yul\":5194:5432   */\n      pop\n        /* \"#utility.yul\":5151:5432   */\n      pop\n      pop\n      jump\t// out\n        /* \"#utility.yul\":5438:5567   */\n    tag_75:\n        /* \"#utility.yul\":5472:5478   */\n      0x00\n        /* \"#utility.yul\":5499:5519   */\n      tag_147\n      tag_51\n      jump\t// in\n    tag_147:\n        /* \"#utility.yul\":5489:5519   */\n      swap1\n      pop\n        /* \"#utility.yul\":5528:5561   */\n      tag_148\n        /* \"#utility.yul\":5556:5560   */\n      dup3\n        /* \"#utility.yul\":5548:5554   */\n      dup3\n        /* \"#utility.yul\":5528:5561   */\n      tag_74\n      jump\t// in\n    tag_148:\n        /* \"#utility.yul\":5438:5567   */\n      swap2\n      swap1\n      pop\n      jump\t// out\n        /* \"#utility.yul\":5573:5881   */\n    tag_76:\n        /* \"#utility.yul\":5635:5639   */\n      0x00\n        /* \"#utility.yul\":5725:5743   */\n      0xffffffffffffffff\n        /* \"#utility.yul\":5717:5723   */\n      dup3\n        /* \"#utility.yul\":5714:5744   */\n      gt\n        /* \"#utility.yul\":5711:5767   */\n      iszero\n      tag_150\n      jumpi\n        /* \"#utility.yul\":5747:5765   */\n      tag_151\n      tag_73\n      jump\t// in\n    tag_151:\n        /* \"#utility.yul\":5711:5767   */\n    tag_150:\n        /* \"#utility.yul\":5785:5814   */\n      tag_152\n        /* \"#utility.yul\":5807:5813   */\n      dup3\n        /* \"#utility.yul\":5785:5814   */\n      tag_72\n      jump\t// in\n    tag_152:\n        /* \"#utility.yul\":5777:5814   */\n      swap1\n      pop\n        /* \"#utility.yul\":5869:5873   */\n      0x20\n        /* \"#utility.yul\":5863:5867   */\n      dup2\n        /* \"#utility.yul\":5859:5874   */\n      add\n        /* \"#utility.yul\":5851:5874   */\n      swap1\n      pop\n        /* \"#utility.yul\":5573:5881   */\n      swap2\n      swap1\n      pop\n      jump\t// out\n        /* \"#utility.yul\":5887:6033   */\n    tag_77:\n        /* \"#utility.yul\":5984:5990   */\n      dup3\n        /* \"#utility.yul\":5979:5982   */\n      dup2\n        /* \"#utility.yul\":5974:5977   */\n      dup4\n        /* \"#utility.yul\":5961:5991   */\n      calldatacopy\n        /* \"#utility.yul\":6025:6026   */\n      0x00\n        /* \"#utility.yul\":6016:6022   */\n      dup4\n        /* \"#utility.yul\":6011:6014   */\n      dup4\n        /* \"#utility.yul\":6007:6023   */\n      add\n        /* \"#utility.yul\":6000:6027   */\n      mstore\n        /* \"#utility.yul\":5887:6033   */\n      pop\n      pop\n      pop\n      jump\t// out\n        /* \"#utility.yul\":6039:6464   */\n    tag_78:\n        /* \"#utility.yul\":6117:6122   */\n      0x00\n        /* \"#utility.yul\":6142:6208   */\n      tag_155\n        /* \"#utility.yul\":6158:6207   */\n      tag_156\n        /* \"#utility.yul\":6200:6206   */\n      dup5\n        /* \"#utility.yul\":6158:6207   */\n      tag_76\n      jump\t// in\n    tag_156:\n        /* \"#utility.yul\":6142:6208   */\n      tag_75\n      jump\t// in\n    tag_155:\n        /* \"#utility.yul\":6133:6208   */\n      swap1\n      pop\n        /* \"#utility.yul\":6231:6237   */\n      dup3\n        /* \"#utility.yul\":6224:6229   */\n      dup2\n        /* \"#utility.yul\":6217:6238   */\n      mstore\n        /* \"#utility.yul\":6269:6273   */\n      0x20\n        /* \"#utility.yul\":6262:6267   */\n      dup2\n        /* \"#utility.yul\":6258:6274   */\n      add\n        /* \"#utility.yul\":6307:6310   */\n      dup5\n        /* \"#utility.yul\":6298:6304   */\n      dup5\n        /* \"#utility.yul\":6293:6296   */\n      dup5\n        /* \"#utility.yul\":6289:6305   */\n      add\n        /* \"#utility.yul\":6286:6311   */\n      gt\n        /* \"#utility.yul\":6283:6395   */\n      iszero\n      tag_157\n      jumpi\n        /* \"#utility.yul\":6314:6393   */\n      tag_158\n      tag_71\n      jump\t// in\n    tag_158:\n        /* \"#utility.yul\":6283:6395   */\n    tag_157:\n        /* \"#utility.yul\":6404:6458   */\n      tag_159\n        /* \"#utility.yul\":6451:6457   */\n      dup5\n        /* \"#utility.yul\":6446:6449   */\n      dup3\n        /* \"#utility.yul\":6441:6444   */\n      dup6\n        /* \"#utility.yul\":6404:6458   */\n      tag_77\n      jump\t// in\n    tag_159:\n        /* \"#utility.yul\":6123:6464   */\n      pop\n        /* \"#utility.yul\":6039:6464   */\n      swap4\n      swap3\n      pop\n      pop\n      pop\n      jump\t// out\n        /* \"#utility.yul\":6484:6824   */\n    tag_79:\n        /* \"#utility.yul\":6540:6545   */\n      0x00\n        /* \"#utility.yul\":6589:6592   */\n      dup3\n        /* \"#utility.yul\":6582:6586   */\n      0x1f\n        /* \"#utility.yul\":6574:6580   */\n      dup4\n        /* \"#utility.yul\":6570:6587   */\n      add\n        /* \"#utility.yul\":6566:6593   */\n      slt\n        /* \"#utility.yul\":6556:6678   */\n      tag_161\n      jumpi\n        /* \"#utility.yul\":6597:6676   */\n      tag_162\n      tag_70\n      jump\t// in\n    tag_162:\n        /* \"#utility.yul\":6556:6678   */\n    tag_161:\n        /* \"#utility.yul\":6714:6720   */\n      dup2\n        /* \"#utility.yul\":6701:6721   */\n      calldataload\n        /* \"#utility.yul\":6739:6818   */\n      tag_163\n        /* \"#utility.yul\":6814:6817   */\n      dup5\n        /* \"#utility.yul\":6806:6812   */\n      dup3\n        /* \"#utility.yul\":6799:6803   */\n      0x20\n        /* \"#utility.yul\":6791:6797   */\n      dup7\n        /* \"#utility.yul\":6787:6804   */\n      add\n        /* \"#utility.yul\":6739:6818   */\n      tag_78\n      jump\t// in\n    tag_163:\n        /* \"#utility.yul\":6730:6818   */\n      swap2\n      pop\n        /* \"#utility.yul\":6546:6824   */\n      pop\n        /* \"#utility.yul\":6484:6824   */\n      swap3\n      swap2\n      pop\n      pop\n      jump\t// out\n        /* \"#utility.yul\":6830:7484   */\n    tag_28:\n        /* \"#utility.yul\":6908:6914   */\n      0x00\n        /* \"#utility.yul\":6916:6922   */\n      dup1\n        /* \"#utility.yul\":6965:6967   */\n      0x40\n        /* \"#utility.yul\":6953:6962   */\n      dup4\n        /* \"#utility.yul\":6944:6951   */\n      dup6\n        /* \"#utility.yul\":6940:6963   */\n      sub\n        /* \"#utility.yul\":6936:6968   */\n      slt\n        /* \"#utility.yul\":6933:7052   */\n      iszero\n      tag_165\n      jumpi\n        /* \"#utility.yul\":6971:7050   */\n      tag_166\n      tag_52\n      jump\t// in\n    tag_166:\n        /* \"#utility.yul\":6933:7052   */\n    tag_165:\n        /* \"#utility.yul\":7091:7092   */\n      0x00\n        /* \"#utility.yul\":7116:7169   */\n      tag_167\n        /* \"#utility.yul\":7161:7168   */\n      dup6\n        /* \"#utility.yul\":7152:7158   */\n      dup3\n        /* \"#utility.yul\":7141:7150   */\n      dup7\n        /* \"#utility.yul\":7137:7159   */\n      add\n        /* \"#utility.yul\":7116:7169   */\n      tag_57\n      jump\t// in\n    tag_167:\n        /* \"#utility.yul\":7106:7169   */\n      swap3\n      pop\n        /* \"#utility.yul\":7062:7179   */\n      pop\n        /* \"#utility.yul\":7246:7248   */\n      0x20\n        /* \"#utility.yul\":7235:7244   */\n      dup4\n        /* \"#utility.yul\":7231:7249   */\n      add\n        /* \"#utility.yul\":7218:7250   */\n      calldataload\n        /* \"#utility.yul\":7277:7295   */\n      0xffffffffffffffff\n        /* \"#utility.yul\":7269:7275   */\n      dup2\n        /* \"#utility.yul\":7266:7296   */\n      gt\n        /* \"#utility.yul\":7263:7380   */\n      iszero\n      tag_168\n      jumpi\n        /* \"#utility.yul\":7299:7378   */\n      tag_169\n      tag_53\n      jump\t// in\n    tag_169:\n        /* \"#utility.yul\":7263:7380   */\n    tag_168:\n        /* \"#utility.yul\":7404:7467   */\n      tag_170\n        /* \"#utility.yul\":7459:7466   */\n      dup6\n        /* \"#utility.yul\":7450:7456   */\n      dup3\n        /* \"#utility.yul\":7439:7448   */\n      dup7\n        /* \"#utility.yul\":7435:7457   */\n      add\n        /* \"#utility.yul\":7404:7467   */\n      tag_79\n      jump\t// in\n    tag_170:\n        /* \"#utility.yul\":7394:7467   */\n      swap2\n      pop\n        /* \"#utility.yul\":7189:7477   */\n      pop\n        /* \"#utility.yul\":6830:7484   */\n      swap3\n      pop\n      swap3\n      swap1\n      pop\n      jump\t// out\n        /* \"#utility.yul\":7490:7819   */\n    tag_32:\n        /* \"#utility.yul\":7549:7555   */\n      0x00\n        /* \"#utility.yul\":7598:7600   */\n      0x20\n        /* \"#utility.yul\":7586:7595   */\n      dup3\n        /* \"#utility.yul\":7577:7584   */\n      dup5\n        /* \"#utility.yul\":7573:7596   */\n      sub\n        /* \"#utility.yul\":7569:7601   */\n      slt\n        /* \"#utility.yul\":7566:7685   */\n      iszero\n      tag_172\n      jumpi\n        /* \"#utility.yul\":7604:7683   */\n      tag_173\n      tag_52\n      jump\t// in\n    tag_173:\n        /* \"#utility.yul\":7566:7685   */\n    tag_172:\n        /* \"#utility.yul\":7724:7725   */\n      0x00\n        /* \"#utility.yul\":7749:7802   */\n      tag_174\n        /* \"#utility.yul\":7794:7801   */\n      dup5\n        /* \"#utility.yul\":7785:7791   */\n      dup3\n        /* \"#utility.yul\":7774:7783   */\n      dup6\n        /* \"#utility.yul\":7770:7792   */\n      add\n        /* \"#utility.yul\":7749:7802   */\n      tag_60\n      jump\t// in\n    tag_174:\n        /* \"#utility.yul\":7739:7802   */\n      swap2\n      pop\n        /* \"#utility.yul\":7695:7812   */\n      pop\n        /* \"#utility.yul\":7490:7819   */\n      swap3\n      swap2\n      pop\n      pop\n      jump\t// out\n        /* \"#utility.yul\":7825:8047   */\n    tag_35:\n        /* \"#utility.yul\":7918:7922   */\n      0x00\n        /* \"#utility.yul\":7956:7958   */\n      0x20\n        /* \"#utility.yul\":7945:7954   */\n      dup3\n        /* \"#utility.yul\":7941:7959   */\n      add\n        /* \"#utility.yul\":7933:7959   */\n      swap1\n      pop\n        /* \"#utility.yul\":7969:8040   */\n      tag_176\n        /* \"#utility.yul\":8037:8038   */\n      0x00\n        /* \"#utility.yul\":8026:8035   */\n      dup4\n        /* \"#utility.yul\":8022:8039   */\n      add\n        /* \"#utility.yul\":8013:8019   */\n      dup5\n        /* \"#utility.yul\":7969:8040   */\n      tag_61\n      jump\t// in\n    tag_176:\n        /* \"#utility.yul\":7825:8047   */\n      swap3\n      swap2\n      pop\n      pop\n      jump\t// out\n        /* \"#utility.yul\":8053:8222   */\n    tag_80:\n        /* \"#utility.yul\":8137:8148   */\n      0x00\n        /* \"#utility.yul\":8171:8177   */\n      dup3\n        /* \"#utility.yul\":8166:8169   */\n      dup3\n        /* \"#utility.yul\":8159:8178   */\n      mstore\n        /* \"#utility.yul\":8211:8215   */\n      0x20\n        /* \"#utility.yul\":8206:8209   */\n      dup3\n        /* \"#utility.yul\":8202:8216   */\n      add\n        /* \"#utility.yul\":8187:8216   */\n      swap1\n      pop\n        /* \"#utility.yul\":8053:8222   */\n      swap3\n      swap2\n      pop\n      pop\n      jump\t// out\n        /* \"#utility.yul\":8228:8397   */\n    tag_81:\n        /* \"#utility.yul\":8368:8389   */\n      0x4e6f646520616c72656164792065786973747300000000000000000000000000\n        /* \"#utility.yul\":8364:8365   */\n      0x00\n        /* \"#utility.yul\":8356:8362   */\n      dup3\n        /* \"#utility.yul\":8352:8366   */\n      add\n        /* \"#utility.yul\":8345:8390   */\n      mstore\n        /* \"#utility.yul\":8228:8397   */\n      pop\n      jump\t// out\n        /* \"#utility.yul\":8403:8769   */\n    tag_82:\n        /* \"#utility.yul\":8545:8548   */\n      0x00\n        /* \"#utility.yul\":8566:8633   */\n      tag_180\n        /* \"#utility.yul\":8630:8632   */\n      0x13\n        /* \"#utility.yul\":8625:8628   */\n      dup4\n        /* \"#utility.yul\":8566:8633   */\n      tag_80\n      jump\t// in\n    tag_180:\n        /* \"#utility.yul\":8559:8633   */\n      swap2\n      pop\n        /* \"#utility.yul\":8642:8735   */\n      tag_181\n        /* \"#utility.yul\":8731:8734   */\n      dup3\n        /* \"#utility.yul\":8642:8735   */\n      tag_81\n      jump\t// in\n    tag_181:\n        /* \"#utility.yul\":8760:8762   */\n      0x20\n        /* \"#utility.yul\":8755:8758   */\n      dup3\n        /* \"#utility.yul\":8751:8763   */\n      add\n        /* \"#utility.yul\":8744:8763   */\n      swap1\n      pop\n        /* \"#utility.yul\":8403:8769   */\n      swap2\n      swap1\n      pop\n      jump\t// out\n        /* \"#utility.yul\":8775:9194   */\n    tag_39:\n        /* \"#utility.yul\":8941:8945   */\n      0x00\n        /* \"#utility.yul\":8979:8981   */\n      0x20\n        /* \"#utility.yul\":8968:8977   */\n      dup3\n        /* \"#utility.yul\":8964:8982   */\n      add\n        /* \"#utility.yul\":8956:8982   */\n      swap1\n      pop\n        /* \"#utility.yul\":9028:9037   */\n      dup2\n        /* \"#utility.yul\":9022:9026   */\n      dup2\n        /* \"#utility.yul\":9018:9038   */\n      sub\n        /* \"#utility.yul\":9014:9015   */\n      0x00\n        /* \"#utility.yul\":9003:9012   */\n      dup4\n        /* \"#utility.yul\":8999:9016   */\n      add\n        /* \"#utility.yul\":8992:9039   */\n      mstore\n        /* \"#utility.yul\":9056:9187   */\n      tag_183\n        /* \"#utility.yul\":9182:9186   */\n      dup2\n        /* \"#utility.yul\":9056:9187   */\n      tag_82\n      jump\t// in\n    tag_183:\n        /* \"#utility.yul\":9048:9187   */\n      swap1\n      pop\n        /* \"#utility.yul\":8775:9194   */\n      swap2\n      swap1\n      pop\n      jump\t// out\n        /* \"#utility.yul\":9200:9369   */\n    tag_83:\n        /* \"#utility.yul\":9340:9361   */\n      0x4e6f646520646f6573206e6f7420657869737400000000000000000000000000\n        /* \"#utility.yul\":9336:9337   */\n      0x00\n        /* \"#utility.yul\":9328:9334   */\n      dup3\n        /* \"#utility.yul\":9324:9338   */\n      add\n        /* \"#utility.yul\":9317:9362   */\n      mstore\n        /* \"#utility.yul\":9200:9369   */\n      pop\n      jump\t// out\n        /* \"#utility.yul\":9375:9741   */\n    tag_84:\n        /* \"#utility.yul\":9517:9520   */\n      0x00\n        /* \"#utility.yul\":9538:9605   */\n      tag_186\n        /* \"#utility.yul\":9602:9604   */\n      0x13\n        /* \"#utility.yul\":9597:9600   */\n      dup4\n        /* \"#utility.yul\":9538:9605   */\n      tag_80\n      jump\t// in\n    tag_186:\n        /* \"#utility.yul\":9531:9605   */\n      swap2\n      pop\n        /* \"#utility.yul\":9614:9707   */\n      tag_187\n        /* \"#utility.yul\":9703:9706   */\n      dup3\n        /* \"#utility.yul\":9614:9707   */\n      tag_83\n      jump\t// in\n    tag_187:\n        /* \"#utility.yul\":9732:9734   */\n      0x20\n        /* \"#utility.yul\":9727:9730   */\n      dup3\n        /* \"#utility.yul\":9723:9735   */\n      add\n        /* \"#utility.yul\":9716:9735   */\n      swap1\n      pop\n        /* \"#utility.yul\":9375:9741   */\n      swap2\n      swap1\n      pop\n      jump\t// out\n        /* \"#utility.yul\":9747:10166   */\n    tag_47:\n        /* \"#utility.yul\":9913:9917   */\n      0x00\n        /* \"#utility.yul\":9951:9953   */\n      0x20\n        /* \"#utility.yul\":9940:9949   */\n      dup3\n        /* \"#utility.yul\":9936:9954   */\n      add\n        /* \"#utility.yul\":9928:9954   */\n      swap1\n      pop\n        /* \"#utility.yul\":10000:10009   */\n      dup2\n        /* \"#utility.yul\":9994:9998   */\n      dup2\n        /* \"#utility.yul\":9990:10010   */\n      sub\n        /* \"#utility.yul\":9986:9987   */\n      0x00\n        /* \"#utility.yul\":9975:9984   */\n      dup4\n        /* \"#utility.yul\":9971:9988   */\n      add\n        /* \"#utility.yul\":9964:10011   */\n      mstore\n        /* \"#utility.yul\":10028:10159   */\n      tag_189\n        /* \"#utility.yul\":10154:10158   */\n      dup2\n        /* \"#utility.yul\":10028:10159   */\n      tag_84\n      jump\t// in\n    tag_189:\n        /* \"#utility.yul\":10020:10159   */\n      swap1\n      pop\n        /* \"#utility.yul\":9747:10166   */\n      swap2\n      swap1\n      pop\n      jump\t// out\n\n    auxdata: 0xa264697066735822122072d69a296336c94d42bdeb3dfa4030283bf6a646834656aaae2a4caff303718664736f6c63430008160033\n}\n",
				"bytecode": {
					"linkReferences": {},
					"object": "608060405234801561000f575f80fd5b50610a4c8061001d5f395ff3fe608060405234801561000f575f80fd5b5060043610610060575f3560e01c806311bd77fe14610064578063189a5a1714610080578063a1174e7d146100b1578063b49f33c8146100cf578063b65814a6146100eb578063fe72ae1314610107575b5f80fd5b61007e600480360381019061007991906105d7565b610137565b005b61009a60048036038101906100959190610615565b61031e565b6040516100a892919061065e565b60405180910390f35b6100b961035c565b6040516100c6919061073c565b60405180910390f35b6100e960048036038101906100e491906105d7565b6103e7565b005b61010560048036038101906101009190610898565b6104fa565b005b610121600480360381019061011c91906108f2565b6104fe565b60405161012e919061091d565b60405180910390f35b5f73ffffffffffffffffffffffffffffffffffffffff165f808473ffffffffffffffffffffffffffffffffffffffff1673ffffffffffffffffffffffffffffffffffffffff1681526020019081526020015f205f015f9054906101000a900473ffffffffffffffffffffffffffffffffffffffff1673ffffffffffffffffffffffffffffffffffffffff1614610202576040517f08c379a00000000000000000000000000000000000000000000000000000000081526004016101f990610990565b60405180910390fd5b60405180604001604052808373ffffffffffffffffffffffffffffffffffffffff168152602001828152505f808473ffffffffffffffffffffffffffffffffffffffff1673ffffffffffffffffffffffffffffffffffffffff1681526020019081526020015f205f820151815f015f6101000a81548173ffffffffffffffffffffffffffffffffffffffff021916908373ffffffffffffffffffffffffffffffffffffffff16021790555060208201518160010155905050600182908060018154018082558091505060019003905f5260205f20015f9091909190916101000a81548173ffffffffffffffffffffffffffffffffffffffff021916908373ffffffffffffffffffffffffffffffffffffffff1602179055505050565b5f602052805f5260405f205f91509050805f015f9054906101000a900473ffffffffffffffffffffffffffffffffffffffff16908060010154905082565b606060018054806020026020016040519081016040528092919081815260200182805480156103dd57602002820191905f5260205f20905b815f9054906101000a900473ffffffffffffffffffffffffffffffffffffffff1673ffffffffffffffffffffffffffffffffffffffff1681526020019060010190808311610394575b5050505050905090565b5f73ffffffffffffffffffffffffffffffffffffffff165f808473ffffffffffffffffffffffffffffffffffffffff1673ffffffffffffffffffffffffffffffffffffffff1681526020019081526020015f205f015f9054906101000a900473ffffffffffffffffffffffffffffffffffffffff1673ffffffffffffffffffffffffffffffffffffffff16036104b2576040517f08c379a00000000000000000000000000000000000000000000000000000000081526004016104a9906109f8565b60405180910390fd5b805f808473ffffffffffffffffffffffffffffffffffffffff1673ffffffffffffffffffffffffffffffffffffffff1681526020019081526020015f20600101819055505050565b5050565b6001818154811061050d575f80fd5b905f5260205f20015f915054906101000a900473ffffffffffffffffffffffffffffffffffffffff1681565b5f604051905090565b5f80fd5b5f80fd5b5f73ffffffffffffffffffffffffffffffffffffffff82169050919050565b5f6105738261054a565b9050919050565b61058381610569565b811461058d575f80fd5b50565b5f8135905061059e8161057a565b92915050565b5f819050919050565b6105b6816105a4565b81146105c0575f80fd5b50565b5f813590506105d1816105ad565b92915050565b5f80604083850312156105ed576105ec610542565b5b5f6105fa85828601610590565b925050602061060b858286016105c3565b9150509250929050565b5f6020828403121561062a57610629610542565b5b5f61063784828501610590565b91505092915050565b61064981610569565b82525050565b610658816105a4565b82525050565b5f6040820190506106715f830185610640565b61067e602083018461064f565b9392505050565b5f81519050919050565b5f82825260208201905092915050565b5f819050602082019050919050565b6106b781610569565b82525050565b5f6106c883836106ae565b60208301905092915050565b5f602082019050919050565b5f6106ea82610685565b6106f4818561068f565b93506106ff8361069f565b805f5b8381101561072f57815161071688826106bd565b9750610721836106d4565b925050600181019050610702565b5085935050505092915050565b5f6020820190508181035f83015261075481846106e0565b905092915050565b5f80fd5b5f80fd5b5f601f19601f8301169050919050565b7f4e487b71000000000000000000000000000000000000000000000000000000005f52604160045260245ffd5b6107aa82610764565b810181811067ffffffffffffffff821117156107c9576107c8610774565b5b80604052505050565b5f6107db610539565b90506107e782826107a1565b919050565b5f67ffffffffffffffff82111561080657610805610774565b5b61080f82610764565b9050602081019050919050565b828183375f83830152505050565b5f61083c610837846107ec565b6107d2565b90508281526020810184848401111561085857610857610760565b5b61086384828561081c565b509392505050565b5f82601f83011261087f5761087e61075c565b5b813561088f84826020860161082a565b91505092915050565b5f80604083850312156108ae576108ad610542565b5b5f6108bb85828601610590565b925050602083013567ffffffffffffffff8111156108dc576108db610546565b5b6108e88582860161086b565b9150509250929050565b5f6020828403121561090757610906610542565b5b5f610914848285016105c3565b91505092915050565b5f6020820190506109305f830184610640565b92915050565b5f82825260208201905092915050565b7f4e6f646520616c726561647920657869737473000000000000000000000000005f82015250565b5f61097a601383610936565b915061098582610946565b602082019050919050565b5f6020820190508181035f8301526109a78161096e565b9050919050565b7f4e6f646520646f6573206e6f74206578697374000000000000000000000000005f82015250565b5f6109e2601383610936565b91506109ed826109ae565b602082019050919050565b5f6020820190508181035f830152610a0f816109d6565b905091905056fea264697066735822122072d69a296336c94d42bdeb3dfa4030283bf6a646834656aaae2a4caff303718664736f6c63430008160033",
					"opcodes": "PUSH1 0x80 PUSH1 0x40 MSTORE CALLVALUE DUP1 ISZERO PUSH2 0xF JUMPI PUSH0 DUP1 REVERT JUMPDEST POP PUSH2 0xA4C DUP1 PUSH2 0x1D PUSH0 CODECOPY PUSH0 RETURN INVALID PUSH1 0x80 PUSH1 0x40 MSTORE CALLVALUE DUP1 ISZERO PUSH2 0xF JUMPI PUSH0 DUP1 REVERT JUMPDEST POP PUSH1 0x4 CALLDATASIZE LT PUSH2 0x60 JUMPI PUSH0 CALLDATALOAD PUSH1 0xE0 SHR DUP1 PUSH4 0x11BD77FE EQ PUSH2 0x64 JUMPI DUP1 PUSH4 0x189A5A17 EQ PUSH2 0x80 JUMPI DUP1 PUSH4 0xA1174E7D EQ PUSH2 0xB1 JUMPI DUP1 PUSH4 0xB49F33C8 EQ PUSH2 0xCF JUMPI DUP1 PUSH4 0xB65814A6 EQ PUSH2 0xEB JUMPI DUP1 PUSH4 0xFE72AE13 EQ PUSH2 0x107 JUMPI JUMPDEST PUSH0 DUP1 REVERT JUMPDEST PUSH2 0x7E PUSH1 0x4 DUP1 CALLDATASIZE SUB DUP2 ADD SWAP1 PUSH2 0x79 SWAP2 SWAP1 PUSH2 0x5D7 JUMP JUMPDEST PUSH2 0x137 JUMP JUMPDEST STOP JUMPDEST PUSH2 0x9A PUSH1 0x4 DUP1 CALLDATASIZE SUB DUP2 ADD SWAP1 PUSH2 0x95 SWAP2 SWAP1 PUSH2 0x615 JUMP JUMPDEST PUSH2 0x31E JUMP JUMPDEST PUSH1 0x40 MLOAD PUSH2 0xA8 SWAP3 SWAP2 SWAP1 PUSH2 0x65E JUMP JUMPDEST PUSH1 0x40 MLOAD DUP1 SWAP2 SUB SWAP1 RETURN JUMPDEST PUSH2 0xB9 PUSH2 0x35C JUMP JUMPDEST PUSH1 0x40 MLOAD PUSH2 0xC6 SWAP2 SWAP1 PUSH2 0x73C JUMP JUMPDEST PUSH1 0x40 MLOAD DUP1 SWAP2 SUB SWAP1 RETURN JUMPDEST PUSH2 0xE9 PUSH1 0x4 DUP1 CALLDATASIZE SUB DUP2 ADD SWAP1 PUSH2 0xE4 SWAP2 SWAP1 PUSH2 0x5D7 JUMP JUMPDEST PUSH2 0x3E7 JUMP JUMPDEST STOP JUMPDEST PUSH2 0x105 PUSH1 0x4 DUP1 CALLDATASIZE SUB DUP2 ADD SWAP1 PUSH2 0x100 SWAP2 SWAP1 PUSH2 0x898 JUMP JUMPDEST PUSH2 0x4FA JUMP JUMPDEST STOP JUMPDEST PUSH2 0x121 PUSH1 0x4 DUP1 CALLDATASIZE SUB DUP2 ADD SWAP1 PUSH2 0x11C SWAP2 SWAP1 PUSH2 0x8F2 JUMP JUMPDEST PUSH2 0x4FE JUMP JUMPDEST PUSH1 0x40 MLOAD PUSH2 0x12E SWAP2 SWAP1 PUSH2 0x91D JUMP JUMPDEST PUSH1 0x40 MLOAD DUP1 SWAP2 SUB SWAP1 RETURN JUMPDEST PUSH0 PUSH20 0xFFFFFFFFFFFFFFFFFFFFFFFFFFFFFFFFFFFFFFFF AND PUSH0 DUP1 DUP5 PUSH20 0xFFFFFFFFFFFFFFFFFFFFFFFFFFFFFFFFFFFFFFFF AND PUSH20 0xFFFFFFFFFFFFFFFFFFFFFFFFFFFFFFFFFFFFFFFF AND DUP2 MSTORE PUSH1 0x20 ADD SWAP1 DUP2 MSTORE PUSH1 0x20 ADD PUSH0 KECCAK256 PUSH0 ADD PUSH0 SWAP1 SLOAD SWAP1 PUSH2 0x100 EXP SWAP1 DIV PUSH20 0xFFFFFFFFFFFFFFFFFFFFFFFFFFFFFFFFFFFFFFFF AND PUSH20 0xFFFFFFFFFFFFFFFFFFFFFFFFFFFFFFFFFFFFFFFF AND EQ PUSH2 0x202 JUMPI PUSH1 0x40 MLOAD PUSH32 0x8C379A000000000000000000000000000000000000000000000000000000000 DUP2 MSTORE PUSH1 0x4 ADD PUSH2 0x1F9 SWAP1 PUSH2 0x990 JUMP JUMPDEST PUSH1 0x40 MLOAD DUP1 SWAP2 SUB SWAP1 REVERT JUMPDEST PUSH1 0x40 MLOAD DUP1 PUSH1 0x40 ADD PUSH1 0x40 MSTORE DUP1 DUP4 PUSH20 0xFFFFFFFFFFFFFFFFFFFFFFFFFFFFFFFFFFFFFFFF AND DUP2 MSTORE PUSH1 0x20 ADD DUP3 DUP2 MSTORE POP PUSH0 DUP1 DUP5 PUSH20 0xFFFFFFFFFFFFFFFFFFFFFFFFFFFFFFFFFFFFFFFF AND PUSH20 0xFFFFFFFFFFFFFFFFFFFFFFFFFFFFFFFFFFFFFFFF AND DUP2 MSTORE PUSH1 0x20 ADD SWAP1 DUP2 MSTORE PUSH1 0x20 ADD PUSH0 KECCAK256 PUSH0 DUP3 ADD MLOAD DUP2 PUSH0 ADD PUSH0 PUSH2 0x100 EXP DUP2 SLOAD DUP2 PUSH20 0xFFFFFFFFFFFFFFFFFFFFFFFFFFFFFFFFFFFFFFFF MUL NOT AND SWAP1 DUP4 PUSH20 0xFFFFFFFFFFFFFFFFFFFFFFFFFFFFFFFFFFFFFFFF AND MUL OR SWAP1 SSTORE POP PUSH1 0x20 DUP3 ADD MLOAD DUP2 PUSH1 0x1 ADD SSTORE SWAP1 POP POP PUSH1 0x1 DUP3 SWAP1 DUP1 PUSH1 0x1 DUP2 SLOAD ADD DUP1 DUP3 SSTORE DUP1 SWAP2 POP POP PUSH1 0x1 SWAP1 SUB SWAP1 PUSH0 MSTORE PUSH1 0x20 PUSH0 KECCAK256 ADD PUSH0 SWAP1 SWAP2 SWAP1 SWAP2 SWAP1 SWAP2 PUSH2 0x100 EXP DUP2 SLOAD DUP2 PUSH20 0xFFFFFFFFFFFFFFFFFFFFFFFFFFFFFFFFFFFFFFFF MUL NOT AND SWAP1 DUP4 PUSH20 0xFFFFFFFFFFFFFFFFFFFFFFFFFFFFFFFFFFFFFFFF AND MUL OR SWAP1 SSTORE POP POP POP JUMP JUMPDEST PUSH0 PUSH1 0x20 MSTORE DUP1 PUSH0 MSTORE PUSH1 0x40 PUSH0 KECCAK256 PUSH0 SWAP2 POP SWAP1 POP DUP1 PUSH0 ADD PUSH0 SWAP1 SLOAD SWAP1 PUSH2 0x100 EXP SWAP1 DIV PUSH20 0xFFFFFFFFFFFFFFFFFFFFFFFFFFFFFFFFFFFFFFFF AND SWAP1 DUP1 PUSH1 0x1 ADD SLOAD SWAP1 POP DUP3 JUMP JUMPDEST PUSH1 0x60 PUSH1 0x1 DUP1 SLOAD DUP1 PUSH1 0x20 MUL PUSH1 0x20 ADD PUSH1 0x40 MLOAD SWAP1 DUP2 ADD PUSH1 0x40 MSTORE DUP1 SWAP3 SWAP2 SWAP1 DUP2 DUP2 MSTORE PUSH1 0x20 ADD DUP3 DUP1 SLOAD DUP1 ISZERO PUSH2 0x3DD JUMPI PUSH1 0x20 MUL DUP3 ADD SWAP2 SWAP1 PUSH0 MSTORE PUSH1 0x20 PUSH0 KECCAK256 SWAP1 JUMPDEST DUP2 PUSH0 SWAP1 SLOAD SWAP1 PUSH2 0x100 EXP SWAP1 DIV PUSH20 0xFFFFFFFFFFFFFFFFFFFFFFFFFFFFFFFFFFFFFFFF AND PUSH20 0xFFFFFFFFFFFFFFFFFFFFFFFFFFFFFFFFFFFFFFFF AND DUP2 MSTORE PUSH1 0x20 ADD SWAP1 PUSH1 0x1 ADD SWAP1 DUP1 DUP4 GT PUSH2 0x394 JUMPI JUMPDEST POP POP POP POP POP SWAP1 POP SWAP1 JUMP JUMPDEST PUSH0 PUSH20 0xFFFFFFFFFFFFFFFFFFFFFFFFFFFFFFFFFFFFFFFF AND PUSH0 DUP1 DUP5 PUSH20 0xFFFFFFFFFFFFFFFFFFFFFFFFFFFFFFFFFFFFFFFF AND PUSH20 0xFFFFFFFFFFFFFFFFFFFFFFFFFFFFFFFFFFFFFFFF AND DUP2 MSTORE PUSH1 0x20 ADD SWAP1 DUP2 MSTORE PUSH1 0x20 ADD PUSH0 KECCAK256 PUSH0 ADD PUSH0 SWAP1 SLOAD SWAP1 PUSH2 0x100 EXP SWAP1 DIV PUSH20 0xFFFFFFFFFFFFFFFFFFFFFFFFFFFFFFFFFFFFFFFF AND PUSH20 0xFFFFFFFFFFFFFFFFFFFFFFFFFFFFFFFFFFFFFFFF AND SUB PUSH2 0x4B2 JUMPI PUSH1 0x40 MLOAD PUSH32 0x8C379A000000000000000000000000000000000000000000000000000000000 DUP2 MSTORE PUSH1 0x4 ADD PUSH2 0x4A9 SWAP1 PUSH2 0x9F8 JUMP JUMPDEST PUSH1 0x40 MLOAD DUP1 SWAP2 SUB SWAP1 REVERT JUMPDEST DUP1 PUSH0 DUP1 DUP5 PUSH20 0xFFFFFFFFFFFFFFFFFFFFFFFFFFFFFFFFFFFFFFFF AND PUSH20 0xFFFFFFFFFFFFFFFFFFFFFFFFFFFFFFFFFFFFFFFF AND DUP2 MSTORE PUSH1 0x20 ADD SWAP1 DUP2 MSTORE PUSH1 0x20 ADD PUSH0 KECCAK256 PUSH1 0x1 ADD DUP2 SWAP1 SSTORE POP POP POP JUMP JUMPDEST POP POP JUMP JUMPDEST PUSH1 0x1 DUP2 DUP2 SLOAD DUP2 LT PUSH2 0x50D JUMPI PUSH0 DUP1 REVERT JUMPDEST SWAP1 PUSH0 MSTORE PUSH1 0x20 PUSH0 KECCAK256 ADD PUSH0 SWAP2 POP SLOAD SWAP1 PUSH2 0x100 EXP SWAP1 DIV PUSH20 0xFFFFFFFFFFFFFFFFFFFFFFFFFFFFFFFFFFFFFFFF AND DUP2 JUMP JUMPDEST PUSH0 PUSH1 0x40 MLOAD SWAP1 POP SWAP1 JUMP JUMPDEST PUSH0 DUP1 REVERT JUMPDEST PUSH0 DUP1 REVERT JUMPDEST PUSH0 PUSH20 0xFFFFFFFFFFFFFFFFFFFFFFFFFFFFFFFFFFFFFFFF DUP3 AND SWAP1 POP SWAP2 SWAP1 POP JUMP JUMPDEST PUSH0 PUSH2 0x573 DUP3 PUSH2 0x54A JUMP JUMPDEST SWAP1 POP SWAP2 SWAP1 POP JUMP JUMPDEST PUSH2 0x583 DUP2 PUSH2 0x569 JUMP JUMPDEST DUP2 EQ PUSH2 0x58D JUMPI PUSH0 DUP1 REVERT JUMPDEST POP JUMP JUMPDEST PUSH0 DUP2 CALLDATALOAD SWAP1 POP PUSH2 0x59E DUP2 PUSH2 0x57A JUMP JUMPDEST SWAP3 SWAP2 POP POP JUMP JUMPDEST PUSH0 DUP2 SWAP1 POP SWAP2 SWAP1 POP JUMP JUMPDEST PUSH2 0x5B6 DUP2 PUSH2 0x5A4 JUMP JUMPDEST DUP2 EQ PUSH2 0x5C0 JUMPI PUSH0 DUP1 REVERT JUMPDEST POP JUMP JUMPDEST PUSH0 DUP2 CALLDATALOAD SWAP1 POP PUSH2 0x5D1 DUP2 PUSH2 0x5AD JUMP JUMPDEST SWAP3 SWAP2 POP POP JUMP JUMPDEST PUSH0 DUP1 PUSH1 0x40 DUP4 DUP6 SUB SLT ISZERO PUSH2 0x5ED JUMPI PUSH2 0x5EC PUSH2 0x542 JUMP JUMPDEST JUMPDEST PUSH0 PUSH2 0x5FA DUP6 DUP3 DUP7 ADD PUSH2 0x590 JUMP JUMPDEST SWAP3 POP POP PUSH1 0x20 PUSH2 0x60B DUP6 DUP3 DUP7 ADD PUSH2 0x5C3 JUMP JUMPDEST SWAP2 POP POP SWAP3 POP SWAP3 SWAP1 POP JUMP JUMPDEST PUSH0 PUSH1 0x20 DUP3 DUP5 SUB SLT ISZERO PUSH2 0x62A JUMPI PUSH2 0x629 PUSH2 0x542 JUMP JUMPDEST JUMPDEST PUSH0 PUSH2 0x637 DUP5 DUP3 DUP6 ADD PUSH2 0x590 JUMP JUMPDEST SWAP2 POP POP SWAP3 SWAP2 POP POP JUMP JUMPDEST PUSH2 0x649 DUP2 PUSH2 0x569 JUMP JUMPDEST DUP3 MSTORE POP POP JUMP JUMPDEST PUSH2 0x658 DUP2 PUSH2 0x5A4 JUMP JUMPDEST DUP3 MSTORE POP POP JUMP JUMPDEST PUSH0 PUSH1 0x40 DUP3 ADD SWAP1 POP PUSH2 0x671 PUSH0 DUP4 ADD DUP6 PUSH2 0x640 JUMP JUMPDEST PUSH2 0x67E PUSH1 0x20 DUP4 ADD DUP5 PUSH2 0x64F JUMP JUMPDEST SWAP4 SWAP3 POP POP POP JUMP JUMPDEST PUSH0 DUP2 MLOAD SWAP1 POP SWAP2 SWAP1 POP JUMP JUMPDEST PUSH0 DUP3 DUP3 MSTORE PUSH1 0x20 DUP3 ADD SWAP1 POP SWAP3 SWAP2 POP POP JUMP JUMPDEST PUSH0 DUP2 SWAP1 POP PUSH1 0x20 DUP3 ADD SWAP1 POP SWAP2 SWAP1 POP JUMP JUMPDEST PUSH2 0x6B7 DUP2 PUSH2 0x569 JUMP JUMPDEST DUP3 MSTORE POP POP JUMP JUMPDEST PUSH0 PUSH2 0x6C8 DUP4 DUP4 PUSH2 0x6AE JUMP JUMPDEST PUSH1 0x20 DUP4 ADD SWAP1 POP SWAP3 SWAP2 POP POP JUMP JUMPDEST PUSH0 PUSH1 0x20 DUP3 ADD SWAP1 POP SWAP2 SWAP1 POP JUMP JUMPDEST PUSH0 PUSH2 0x6EA DUP3 PUSH2 0x685 JUMP JUMPDEST PUSH2 0x6F4 DUP2 DUP6 PUSH2 0x68F JUMP JUMPDEST SWAP4 POP PUSH2 0x6FF DUP4 PUSH2 0x69F JUMP JUMPDEST DUP1 PUSH0 JUMPDEST DUP4 DUP2 LT ISZERO PUSH2 0x72F JUMPI DUP2 MLOAD PUSH2 0x716 DUP9 DUP3 PUSH2 0x6BD JUMP JUMPDEST SWAP8 POP PUSH2 0x721 DUP4 PUSH2 0x6D4 JUMP JUMPDEST SWAP3 POP POP PUSH1 0x1 DUP2 ADD SWAP1 POP PUSH2 0x702 JUMP JUMPDEST POP DUP6 SWAP4 POP POP POP POP SWAP3 SWAP2 POP POP JUMP JUMPDEST PUSH0 PUSH1 0x20 DUP3 ADD SWAP1 POP DUP2 DUP2 SUB PUSH0 DUP4 ADD MSTORE PUSH2 0x754 DUP2 DUP5 PUSH2 0x6E0 JUMP JUMPDEST SWAP1 POP SWAP3 SWAP2 POP POP JUMP JUMPDEST PUSH0 DUP1 REVERT JUMPDEST PUSH0 DUP1 REVERT JUMPDEST PUSH0 PUSH1 0x1F NOT PUSH1 0x1F DUP4 ADD AND SWAP1 POP SWAP2 SWAP1 POP JUMP JUMPDEST PUSH32 0x4E487B7100000000000000000000000000000000000000000000000000000000 PUSH0 MSTORE PUSH1 0x41 PUSH1 0x4 MSTORE PUSH1 0x24 PUSH0 REVERT JUMPDEST PUSH2 0x7AA DUP3 PUSH2 0x764 JUMP JUMPDEST DUP2 ADD DUP2 DUP2 LT PUSH8 0xFFFFFFFFFFFFFFFF DUP3 GT OR ISZERO PUSH2 0x7C9 JUMPI PUSH2 0x7C8 PUSH2 0x774 JUMP JUMPDEST JUMPDEST DUP1 PUSH1 0x40 MSTORE POP POP POP JUMP JUMPDEST PUSH0 PUSH2 0x7DB PUSH2 0x539 JUMP JUMPDEST SWAP1 POP PUSH2 0x7E7 DUP3 DUP3 PUSH2 0x7A1 JUMP JUMPDEST SWAP2 SWAP1 POP JUMP JUMPDEST PUSH0 PUSH8 0xFFFFFFFFFFFFFFFF DUP3 GT ISZERO PUSH2 0x806 JUMPI PUSH2 0x805 PUSH2 0x774 JUMP JUMPDEST JUMPDEST PUSH2 0x80F DUP3 PUSH2 0x764 JUMP JUMPDEST SWAP1 POP PUSH1 0x20 DUP2 ADD SWAP1 POP SWAP2 SWAP1 POP JUMP JUMPDEST DUP3 DUP2 DUP4 CALLDATACOPY PUSH0 DUP4 DUP4 ADD MSTORE POP POP POP JUMP JUMPDEST PUSH0 PUSH2 0x83C PUSH2 0x837 DUP5 PUSH2 0x7EC JUMP JUMPDEST PUSH2 0x7D2 JUMP JUMPDEST SWAP1 POP DUP3 DUP2 MSTORE PUSH1 0x20 DUP2 ADD DUP5 DUP5 DUP5 ADD GT ISZERO PUSH2 0x858 JUMPI PUSH2 0x857 PUSH2 0x760 JUMP JUMPDEST JUMPDEST PUSH2 0x863 DUP5 DUP3 DUP6 PUSH2 0x81C JUMP JUMPDEST POP SWAP4 SWAP3 POP POP POP JUMP JUMPDEST PUSH0 DUP3 PUSH1 0x1F DUP4 ADD SLT PUSH2 0x87F JUMPI PUSH2 0x87E PUSH2 0x75C JUMP JUMPDEST JUMPDEST DUP2 CALLDATALOAD PUSH2 0x88F DUP5 DUP3 PUSH1 0x20 DUP7 ADD PUSH2 0x82A JUMP JUMPDEST SWAP2 POP POP SWAP3 SWAP2 POP POP JUMP JUMPDEST PUSH0 DUP1 PUSH1 0x40 DUP4 DUP6 SUB SLT ISZERO PUSH2 0x8AE JUMPI PUSH2 0x8AD PUSH2 0x542 JUMP JUMPDEST JUMPDEST PUSH0 PUSH2 0x8BB DUP6 DUP3 DUP7 ADD PUSH2 0x590 JUMP JUMPDEST SWAP3 POP POP PUSH1 0x20 DUP4 ADD CALLDATALOAD PUSH8 0xFFFFFFFFFFFFFFFF DUP2 GT ISZERO PUSH2 0x8DC JUMPI PUSH2 0x8DB PUSH2 0x546 JUMP JUMPDEST JUMPDEST PUSH2 0x8E8 DUP6 DUP3 DUP7 ADD PUSH2 0x86B JUMP JUMPDEST SWAP2 POP POP SWAP3 POP SWAP3 SWAP1 POP JUMP JUMPDEST PUSH0 PUSH1 0x20 DUP3 DUP5 SUB SLT ISZERO PUSH2 0x907 JUMPI PUSH2 0x906 PUSH2 0x542 JUMP JUMPDEST JUMPDEST PUSH0 PUSH2 0x914 DUP5 DUP3 DUP6 ADD PUSH2 0x5C3 JUMP JUMPDEST SWAP2 POP POP SWAP3 SWAP2 POP POP JUMP JUMPDEST PUSH0 PUSH1 0x20 DUP3 ADD SWAP1 POP PUSH2 0x930 PUSH0 DUP4 ADD DUP5 PUSH2 0x640 JUMP JUMPDEST SWAP3 SWAP2 POP POP JUMP JUMPDEST PUSH0 DUP3 DUP3 MSTORE PUSH1 0x20 DUP3 ADD SWAP1 POP SWAP3 SWAP2 POP POP JUMP JUMPDEST PUSH32 0x4E6F646520616C72656164792065786973747300000000000000000000000000 PUSH0 DUP3 ADD MSTORE POP JUMP JUMPDEST PUSH0 PUSH2 0x97A PUSH1 0x13 DUP4 PUSH2 0x936 JUMP JUMPDEST SWAP2 POP PUSH2 0x985 DUP3 PUSH2 0x946 JUMP JUMPDEST PUSH1 0x20 DUP3 ADD SWAP1 POP SWAP2 SWAP1 POP JUMP JUMPDEST PUSH0 PUSH1 0x20 DUP3 ADD SWAP1 POP DUP2 DUP2 SUB PUSH0 DUP4 ADD MSTORE PUSH2 0x9A7 DUP2 PUSH2 0x96E JUMP JUMPDEST SWAP1 POP SWAP2 SWAP1 POP JUMP JUMPDEST PUSH32 0x4E6F646520646F6573206E6F7420657869737400000000000000000000000000 PUSH0 DUP3 ADD MSTORE POP JUMP JUMPDEST PUSH0 PUSH2 0x9E2 PUSH1 0x13 DUP4 PUSH2 0x936 JUMP JUMPDEST SWAP2 POP PUSH2 0x9ED DUP3 PUSH2 0x9AE JUMP JUMPDEST PUSH1 0x20 DUP3 ADD SWAP1 POP SWAP2 SWAP1 POP JUMP JUMPDEST PUSH0 PUSH1 0x20 DUP3 ADD SWAP1 POP DUP2 DUP2 SUB PUSH0 DUP4 ADD MSTORE PUSH2 0xA0F DUP2 PUSH2 0x9D6 JUMP JUMPDEST SWAP1 POP SWAP2 SWAP1 POP JUMP INVALID LOG2 PUSH5 0x6970667358 0x22 SLT KECCAK256 PUSH19 0xD69A296336C94D42BDEB3DFA4030283BF6A646 DUP4 CHAINID JUMP 0xAA 0xAE 0x2A 0x4C 0xAF RETURN SUB PUSH18 0x8664736F6C63430008160033000000000000 "
				},
				"gasEstimates": {
					"creation": {
						"codeDepositCost": "527200",
						"executionCost": "560",
						"totalCost": "527760"
					},
					"external": {
						"addNode(address,uint256)": "97999",
						"allNodes(uint256)": "5032",
						"getAllNodes()": "infinite",
						"nodes(address)": "infinite",
						"storeChunkInNode(address,string)": "infinite",
						"updateAvailableStorage(address,uint256)": "25134"
					},
					"internal": {
						"findAvailableNode(uint256)": "infinite"
					}
				},
				"methodIdentifiers": {
					"addNode(address,uint256)": "11bd77fe",
					"allNodes(uint256)": "fe72ae13",
					"getAllNodes()": "a1174e7d",
					"nodes(address)": "189a5a17",
					"storeChunkInNode(address,string)": "b65814a6",
					"updateAvailableStorage(address,uint256)": "b49f33c8"
				}
			},
			"storageLayout": {
				"storage": [
					{
						"astId": 11,
						"contract": "contracts/_NodeManager.sol:NodeManager",
						"label": "nodes",
						"offset": 0,
						"slot": "0",
						"type": "t_mapping(t_address,t_struct(Node)6_storage)"
					},
					{
						"astId": 14,
						"contract": "contracts/_NodeManager.sol:NodeManager",
						"label": "allNodes",
						"offset": 0,
						"slot": "1",
						"type": "t_array(t_address)dyn_storage"
					}
				],
				"types": {
					"t_address": {
						"encoding": "inplace",
						"label": "address",
						"numberOfBytes": "20"
					},
					"t_array(t_address)dyn_storage": {
						"base": "t_address",
						"encoding": "dynamic_array",
						"label": "address[]",
						"numberOfBytes": "32"
					},
					"t_mapping(t_address,t_struct(Node)6_storage)": {
						"encoding": "mapping",
						"key": "t_address",
						"label": "mapping(address => struct NodeManager.Node)",
						"numberOfBytes": "32",
						"value": "t_struct(Node)6_storage"
					},
					"t_struct(Node)6_storage": {
						"encoding": "inplace",
						"label": "struct NodeManager.Node",
						"members": [
							{
								"astId": 3,
								"contract": "contracts/_NodeManager.sol:NodeManager",
								"label": "nodeAddress",
								"offset": 0,
								"slot": "0",
								"type": "t_address"
							},
							{
								"astId": 5,
								"contract": "contracts/_NodeManager.sol:NodeManager",
								"label": "availableStorage",
								"offset": 0,
								"slot": "1",
								"type": "t_uint256"
							}
						],
						"numberOfBytes": "64"
					},
					"t_uint256": {
						"encoding": "inplace",
						"label": "uint256",
						"numberOfBytes": "32"
					}
				}
			},
			"userdoc": {
				"kind": "user",
				"methods": {},
				"version": 1
			}
		}
	}
}