{
	"contracts/_FileStorage.sol": {
		"FileStorageManager": {
			"abi": [
				{
					"inputs": [],
					"stateMutability": "nonpayable",
					"type": "constructor"
				},
				{
					"inputs": [
						{
							"internalType": "address",
							"name": "_nodeAddress",
							"type": "address"
						},
						{
							"internalType": "uint256",
							"name": "_initialStorage",
							"type": "uint256"
						}
					],
					"name": "addNode",
					"outputs": [],
					"stateMutability": "nonpayable",
					"type": "function"
				},
				{
					"inputs": [
						{
							"internalType": "uint256",
							"name": "",
							"type": "uint256"
						}
					],
					"name": "allNodes",
					"outputs": [
						{
							"internalType": "address",
							"name": "",
							"type": "address"
						}
					],
					"stateMutability": "view",
					"type": "function"
				},
				{
					"inputs": [
						{
							"internalType": "string",
							"name": "content",
							"type": "string"
						}
					],
					"name": "chunkContent",
					"outputs": [
						{
							"internalType": "string[]",
							"name": "",
							"type": "string[]"
						}
					],
					"stateMutability": "pure",
					"type": "function"
				},
				{
					"inputs": [
						{
							"internalType": "string[]",
							"name": "chunks",
							"type": "string[]"
						}
					],
					"name": "concatenateChunks",
					"outputs": [
						{
							"internalType": "string",
							"name": "",
							"type": "string"
						}
					],
					"stateMutability": "pure",
					"type": "function"
				},
				{
					"inputs": [
						{
							"internalType": "address",
							"name": "_nodeAddress",
							"type": "address"
						},
						{
							"internalType": "string",
							"name": "_fileId",
							"type": "string"
						}
					],
					"name": "deleteChunkInNode",
					"outputs": [
						{
							"internalType": "string",
							"name": "",
							"type": "string"
						}
					],
					"stateMutability": "view",
					"type": "function"
				},
				{
					"inputs": [
						{
							"internalType": "string",
							"name": "fileId",
							"type": "string"
						}
					],
					"name": "deleteFile",
					"outputs": [],
					"stateMutability": "nonpayable",
					"type": "function"
				},
				{
					"inputs": [
						{
							"internalType": "uint256",
							"name": "_chunkSize",
							"type": "uint256"
						}
					],
					"name": "findAvailableNode",
					"outputs": [
						{
							"internalType": "address",
							"name": "",
							"type": "address"
						}
					],
					"stateMutability": "view",
					"type": "function"
				},
				{
					"inputs": [],
					"name": "getAllNodes",
					"outputs": [
						{
							"internalType": "address[]",
							"name": "",
							"type": "address[]"
						}
					],
					"stateMutability": "view",
					"type": "function"
				},
				{
					"inputs": [
						{
							"internalType": "address",
							"name": "_nodeAddress",
							"type": "address"
						}
					],
					"name": "getNodeByAddress",
					"outputs": [
						{
							"components": [
								{
									"internalType": "address",
									"name": "nodeAddress",
									"type": "address"
								},
								{
									"internalType": "uint256",
									"name": "availableStorage",
									"type": "uint256"
								}
							],
							"internalType": "struct NodeManager.Node",
							"name": "",
							"type": "tuple"
						}
					],
					"stateMutability": "view",
					"type": "function"
				},
				{
					"inputs": [
						{
							"internalType": "address",
							"name": "",
							"type": "address"
						}
					],
					"name": "nodes",
					"outputs": [
						{
							"internalType": "address",
							"name": "nodeAddress",
							"type": "address"
						},
						{
							"internalType": "uint256",
							"name": "availableStorage",
							"type": "uint256"
						}
					],
					"stateMutability": "view",
					"type": "function"
				},
				{
					"inputs": [],
					"name": "owner",
					"outputs": [
						{
							"internalType": "address",
							"name": "",
							"type": "address"
						}
					],
					"stateMutability": "view",
					"type": "function"
				},
				{
					"inputs": [
						{
							"internalType": "address",
							"name": "_nodeAddress",
							"type": "address"
						},
						{
							"internalType": "string",
							"name": "_fileId",
							"type": "string"
						}
					],
					"name": "retrieveChunkInNode",
					"outputs": [
						{
							"internalType": "string",
							"name": "",
							"type": "string"
						}
					],
					"stateMutability": "view",
					"type": "function"
				},
				{
					"inputs": [
						{
							"internalType": "string",
							"name": "fileId",
							"type": "string"
						}
					],
					"name": "retrieveFile",
					"outputs": [
						{
							"internalType": "string",
							"name": "",
							"type": "string"
						}
					],
					"stateMutability": "view",
					"type": "function"
				},
				{
					"inputs": [
						{
							"internalType": "address",
							"name": "_nodeAddress",
							"type": "address"
						},
						{
							"internalType": "string",
							"name": "_chunk",
							"type": "string"
						}
					],
					"name": "storeChunkInNode",
					"outputs": [],
					"stateMutability": "nonpayable",
					"type": "function"
				},
				{
					"inputs": [
						{
							"internalType": "string",
							"name": "fileName",
							"type": "string"
						},
						{
							"internalType": "string",
							"name": "content",
							"type": "string"
						},
						{
							"internalType": "string",
							"name": "uniqueId",
							"type": "string"
						}
					],
					"name": "storeFile",
					"outputs": [],
					"stateMutability": "nonpayable",
					"type": "function"
				},
				{
					"inputs": [
						{
							"internalType": "address",
							"name": "_nodeAddress",
							"type": "address"
						},
						{
							"internalType": "uint256",
							"name": "_newStorage",
							"type": "uint256"
						}
					],
					"name": "updateAvailableStorage",
					"outputs": [],
					"stateMutability": "nonpayable",
					"type": "function"
				}
			],
			"devdoc": {
				"kind": "dev",
				"methods": {},
				"version": 1
			},
			"evm": {
				"assembly": "    /* \"contracts/_FileStorage.sol\":127:3488  contract FileStorageManager is ChunkManager, NodeManager {... */\n  mstore(0x40, 0x80)\n    /* \"contracts/_FileStorage.sol\":639:704  constructor() NodeManager() {... */\n  callvalue\n  dup1\n  iszero\n  tag_1\n  jumpi\n  0x00\n  dup1\n  revert\ntag_1:\n  pop\n    /* \"contracts/_FileStorage.sol\":686:696  msg.sender */\n  caller\n    /* \"contracts/_FileStorage.sol\":678:683  owner */\n  0x02\n  0x00\n    /* \"contracts/_FileStorage.sol\":678:696  owner = msg.sender */\n  0x0100\n  exp\n  dup2\n  sload\n  dup2\n  0xffffffffffffffffffffffffffffffffffffffff\n  mul\n  not\n  and\n  swap1\n  dup4\n  0xffffffffffffffffffffffffffffffffffffffff\n  and\n  mul\n  or\n  swap1\n  sstore\n  pop\n    /* \"contracts/_FileStorage.sol\":127:3488  contract FileStorageManager is ChunkManager, NodeManager {... */\n  dataSize(sub_0)\n  dup1\n  dataOffset(sub_0)\n  0x00\n  codecopy\n  0x00\n  return\nstop\n\nsub_0: assembly {\n        /* \"contracts/_FileStorage.sol\":127:3488  contract FileStorageManager is ChunkManager, NodeManager {... */\n      mstore(0x40, 0x80)\n      callvalue\n      dup1\n      iszero\n      tag_1\n      jumpi\n      0x00\n      dup1\n      revert\n    tag_1:\n      pop\n      jumpi(tag_2, lt(calldatasize, 0x04))\n      shr(0xe0, calldataload(0x00))\n      dup1\n      0x7dd77d2b\n      gt\n      tag_19\n      jumpi\n      dup1\n      0xa9910054\n      gt\n      tag_20\n      jumpi\n      dup1\n      0xa9910054\n      eq\n      tag_15\n      jumpi\n      dup1\n      0xb49f33c8\n      eq\n      tag_16\n      jumpi\n      dup1\n      0xb65814a6\n      eq\n      tag_17\n      jumpi\n      dup1\n      0xfe72ae13\n      eq\n      tag_18\n      jumpi\n      jump(tag_2)\n    tag_20:\n      dup1\n      0x7dd77d2b\n      eq\n      tag_11\n      jumpi\n      dup1\n      0x8da5cb5b\n      eq\n      tag_12\n      jumpi\n      dup1\n      0xa1174e7d\n      eq\n      tag_13\n      jumpi\n      dup1\n      0xa9860308\n      eq\n      tag_14\n      jumpi\n      jump(tag_2)\n    tag_19:\n      dup1\n      0x2a85be1e\n      gt\n      tag_21\n      jumpi\n      dup1\n      0x2a85be1e\n      eq\n      tag_7\n      jumpi\n      dup1\n      0x50f1c985\n      eq\n      tag_8\n      jumpi\n      dup1\n      0x57d7f21f\n      eq\n      tag_9\n      jumpi\n      dup1\n      0x64f0c0b8\n      eq\n      tag_10\n      jumpi\n      jump(tag_2)\n    tag_21:\n      dup1\n      0x11bd77fe\n      eq\n      tag_3\n      jumpi\n      dup1\n      0x189a5a17\n      eq\n      tag_4\n      jumpi\n      dup1\n      0x1f37bdd2\n      eq\n      tag_5\n      jumpi\n      dup1\n      0x2804401c\n      eq\n      tag_6\n      jumpi\n    tag_2:\n      0x00\n      dup1\n      revert\n        /* \"contracts/_NodeManager.sol\":263:536  function addNode(address _nodeAddress, uint256 _initialStorage) public {... */\n    tag_3:\n      tag_22\n      0x04\n      dup1\n      calldatasize\n      sub\n      dup2\n      add\n      swap1\n      tag_23\n      swap2\n      swap1\n      tag_24\n      jump\t// in\n    tag_23:\n      tag_25\n      jump\t// in\n    tag_22:\n      stop\n        /* \"contracts/_NodeManager.sol\":185:222  mapping(address => Node) public nodes */\n    tag_4:\n      tag_26\n      0x04\n      dup1\n      calldatasize\n      sub\n      dup2\n      add\n      swap1\n      tag_27\n      swap2\n      swap1\n      tag_28\n      jump\t// in\n    tag_27:\n      tag_29\n      jump\t// in\n    tag_26:\n      mload(0x40)\n      tag_30\n      swap3\n      swap2\n      swap1\n      tag_31\n      jump\t// in\n    tag_30:\n      mload(0x40)\n      dup1\n      swap2\n      sub\n      swap1\n      return\n        /* \"contracts/_ChunkManager.sol\":92:940  function chunkContent(string memory content) public pure returns (string[] memory) {                           //Changed to public for testing... */\n    tag_5:\n      tag_32\n      0x04\n      dup1\n      calldatasize\n      sub\n      dup2\n      add\n      swap1\n      tag_33\n      swap2\n      swap1\n      tag_34\n      jump\t// in\n    tag_33:\n      tag_35\n      jump\t// in\n    tag_32:\n      mload(0x40)\n      tag_36\n      swap2\n      swap1\n      tag_37\n      jump\t// in\n    tag_36:\n      mload(0x40)\n      dup1\n      swap2\n      sub\n      swap1\n      return\n        /* \"contracts/_FileStorage.sol\":2109:2820  function retrieveFile(string memory fileId) public view returns (string memory) {... */\n    tag_6:\n      tag_38\n      0x04\n      dup1\n      calldatasize\n      sub\n      dup2\n      add\n      swap1\n      tag_39\n      swap2\n      swap1\n      tag_34\n      jump\t// in\n    tag_39:\n      tag_40\n      jump\t// in\n    tag_38:\n      mload(0x40)\n      tag_41\n      swap2\n      swap1\n      tag_42\n      jump\t// in\n    tag_41:\n      mload(0x40)\n      dup1\n      swap2\n      sub\n      swap1\n      return\n        /* \"contracts/_NodeManager.sol\":926:1089  function retrieveChunkInNode(address _nodeAddress, string memory _fileId) public view returns (string memory) {... */\n    tag_7:\n      tag_43\n      0x04\n      dup1\n      calldatasize\n      sub\n      dup2\n      add\n      swap1\n      tag_44\n      swap2\n      swap1\n      tag_45\n      jump\t// in\n    tag_44:\n      tag_46\n      jump\t// in\n    tag_43:\n      mload(0x40)\n      tag_47\n      swap2\n      swap1\n      tag_42\n      jump\t// in\n    tag_47:\n      mload(0x40)\n      dup1\n      swap2\n      sub\n      swap1\n      return\n        /* \"contracts/_NodeManager.sol\":1097:1256  function deleteChunkInNode(address _nodeAddress, string memory _fileId) public view returns (string memory) {... */\n    tag_8:\n      tag_48\n      0x04\n      dup1\n      calldatasize\n      sub\n      dup2\n      add\n      swap1\n      tag_49\n      swap2\n      swap1\n      tag_45\n      jump\t// in\n    tag_49:\n      tag_50\n      jump\t// in\n    tag_48:\n      mload(0x40)\n      tag_51\n      swap2\n      swap1\n      tag_42\n      jump\t// in\n    tag_51:\n      mload(0x40)\n      dup1\n      swap2\n      sub\n      swap1\n      return\n        /* \"contracts/_ChunkManager.sol\":948:1643  function concatenateChunks(string[] memory chunks) public pure returns (string memory) {                              //Changed to public for testing... */\n    tag_9:\n      tag_52\n      0x04\n      dup1\n      calldatasize\n      sub\n      dup2\n      add\n      swap1\n      tag_53\n      swap2\n      swap1\n      tag_54\n      jump\t// in\n    tag_53:\n      tag_55\n      jump\t// in\n    tag_52:\n      mload(0x40)\n      tag_56\n      swap2\n      swap1\n      tag_42\n      jump\t// in\n    tag_56:\n      mload(0x40)\n      dup1\n      swap2\n      sub\n      swap1\n      return\n        /* \"contracts/_NodeManager.sol\":1503:2411  function findAvailableNode(uint256 _chunkSize) public view returns (address) {                              //Changed to public for testing... */\n    tag_10:\n      tag_57\n      0x04\n      dup1\n      calldatasize\n      sub\n      dup2\n      add\n      swap1\n      tag_58\n      swap2\n      swap1\n      tag_59\n      jump\t// in\n    tag_58:\n      tag_60\n      jump\t// in\n    tag_57:\n      mload(0x40)\n      tag_61\n      swap2\n      swap1\n      tag_62\n      jump\t// in\n    tag_61:\n      mload(0x40)\n      dup1\n      swap2\n      sub\n      swap1\n      return\n        /* \"contracts/_FileStorage.sol\":712:2101  function storeFile(string memory fileName, string memory content, string memory uniqueId) public {... */\n    tag_11:\n      tag_63\n      0x04\n      dup1\n      calldatasize\n      sub\n      dup2\n      add\n      swap1\n      tag_64\n      swap2\n      swap1\n      tag_65\n      jump\t// in\n    tag_64:\n      tag_66\n      jump\t// in\n    tag_63:\n      stop\n        /* \"contracts/_FileStorage.sol\":191:211  address public owner */\n    tag_12:\n      tag_67\n      tag_68\n      jump\t// in\n    tag_67:\n      mload(0x40)\n      tag_69\n      swap2\n      swap1\n      tag_62\n      jump\t// in\n    tag_69:\n      mload(0x40)\n      dup1\n      swap2\n      sub\n      swap1\n      return\n        /* \"contracts/_NodeManager.sol\":1264:1360  function getAllNodes() public view returns (address[] memory) {... */\n    tag_13:\n      tag_70\n      tag_71\n      jump\t// in\n    tag_70:\n      mload(0x40)\n      tag_72\n      swap2\n      swap1\n      tag_73\n      jump\t// in\n    tag_72:\n      mload(0x40)\n      dup1\n      swap2\n      sub\n      swap1\n      return\n        /* \"contracts/_NodeManager.sol\":1368:1495  function getNodeByAddress(address _nodeAddress) public view returns (Node memory) {... */\n    tag_14:\n      tag_74\n      0x04\n      dup1\n      calldatasize\n      sub\n      dup2\n      add\n      swap1\n      tag_75\n      swap2\n      swap1\n      tag_28\n      jump\t// in\n    tag_75:\n      tag_76\n      jump\t// in\n    tag_74:\n      mload(0x40)\n      tag_77\n      swap2\n      swap1\n      tag_78\n      jump\t// in\n    tag_77:\n      mload(0x40)\n      dup1\n      swap2\n      sub\n      swap1\n      return\n        /* \"contracts/_FileStorage.sol\":2828:3485  function deleteFile(string memory fileId) public {... */\n    tag_15:\n      tag_79\n      0x04\n      dup1\n      calldatasize\n      sub\n      dup2\n      add\n      swap1\n      tag_80\n      swap2\n      swap1\n      tag_34\n      jump\t// in\n    tag_80:\n      tag_81\n      jump\t// in\n    tag_79:\n      stop\n        /* \"contracts/_NodeManager.sol\":544:783  function updateAvailableStorage(address _nodeAddress, uint256 _newStorage) public {... */\n    tag_16:\n      tag_82\n      0x04\n      dup1\n      calldatasize\n      sub\n      dup2\n      add\n      swap1\n      tag_83\n      swap2\n      swap1\n      tag_24\n      jump\t// in\n    tag_83:\n      tag_84\n      jump\t// in\n    tag_82:\n      stop\n        /* \"contracts/_NodeManager.sol\":791:918  function storeChunkInNode(address _nodeAddress, string memory _chunk) public {... */\n    tag_17:\n      tag_85\n      0x04\n      dup1\n      calldatasize\n      sub\n      dup2\n      add\n      swap1\n      tag_86\n      swap2\n      swap1\n      tag_45\n      jump\t// in\n    tag_86:\n      tag_87\n      jump\t// in\n    tag_85:\n      stop\n        /* \"contracts/_NodeManager.sol\":229:254  address[] public allNodes */\n    tag_18:\n      tag_88\n      0x04\n      dup1\n      calldatasize\n      sub\n      dup2\n      add\n      swap1\n      tag_89\n      swap2\n      swap1\n      tag_59\n      jump\t// in\n    tag_89:\n      tag_90\n      jump\t// in\n    tag_88:\n      mload(0x40)\n      tag_91\n      swap2\n      swap1\n      tag_62\n      jump\t// in\n    tag_91:\n      mload(0x40)\n      dup1\n      swap2\n      sub\n      swap1\n      return\n        /* \"contracts/_NodeManager.sol\":263:536  function addNode(address _nodeAddress, uint256 _initialStorage) public {... */\n    tag_25:\n        /* \"contracts/_NodeManager.sol\":396:397  0 */\n      0x00\n        /* \"contracts/_NodeManager.sol\":353:398  nodes[_nodeAddress].nodeAddress == address(0) */\n      0xffffffffffffffffffffffffffffffffffffffff\n      and\n        /* \"contracts/_NodeManager.sol\":353:358  nodes */\n      0x00\n        /* \"contracts/_NodeManager.sol\":353:372  nodes[_nodeAddress] */\n      dup1\n        /* \"contracts/_NodeManager.sol\":359:371  _nodeAddress */\n      dup5\n        /* \"contracts/_NodeManager.sol\":353:372  nodes[_nodeAddress] */\n      0xffffffffffffffffffffffffffffffffffffffff\n      and\n      0xffffffffffffffffffffffffffffffffffffffff\n      and\n      dup2\n      mstore\n      0x20\n      add\n      swap1\n      dup2\n      mstore\n      0x20\n      add\n      0x00\n      keccak256\n        /* \"contracts/_NodeManager.sol\":353:384  nodes[_nodeAddress].nodeAddress */\n      0x00\n      add\n      0x00\n      swap1\n      sload\n      swap1\n      0x0100\n      exp\n      swap1\n      div\n      0xffffffffffffffffffffffffffffffffffffffff\n      and\n        /* \"contracts/_NodeManager.sol\":353:398  nodes[_nodeAddress].nodeAddress == address(0) */\n      0xffffffffffffffffffffffffffffffffffffffff\n      and\n      eq\n        /* \"contracts/_NodeManager.sol\":345:422  require(nodes[_nodeAddress].nodeAddress == address(0), \"Node already exists\") */\n      tag_93\n      jumpi\n      mload(0x40)\n      0x08c379a000000000000000000000000000000000000000000000000000000000\n      dup2\n      mstore\n      0x04\n      add\n      tag_94\n      swap1\n      tag_95\n      jump\t// in\n    tag_94:\n      mload(0x40)\n      dup1\n      swap2\n      sub\n      swap1\n      revert\n    tag_93:\n        /* \"contracts/_NodeManager.sol\":455:490  Node(_nodeAddress, _initialStorage) */\n      mload(0x40)\n      dup1\n      0x40\n      add\n      0x40\n      mstore\n      dup1\n        /* \"contracts/_NodeManager.sol\":460:472  _nodeAddress */\n      dup4\n        /* \"contracts/_NodeManager.sol\":455:490  Node(_nodeAddress, _initialStorage) */\n      0xffffffffffffffffffffffffffffffffffffffff\n      and\n      dup2\n      mstore\n      0x20\n      add\n        /* \"contracts/_NodeManager.sol\":474:489  _initialStorage */\n      dup3\n        /* \"contracts/_NodeManager.sol\":455:490  Node(_nodeAddress, _initialStorage) */\n      dup2\n      mstore\n      pop\n        /* \"contracts/_NodeManager.sol\":433:438  nodes */\n      0x00\n        /* \"contracts/_NodeManager.sol\":433:452  nodes[_nodeAddress] */\n      dup1\n        /* \"contracts/_NodeManager.sol\":439:451  _nodeAddress */\n      dup5\n        /* \"contracts/_NodeManager.sol\":433:452  nodes[_nodeAddress] */\n      0xffffffffffffffffffffffffffffffffffffffff\n      and\n      0xffffffffffffffffffffffffffffffffffffffff\n      and\n      dup2\n      mstore\n      0x20\n      add\n      swap1\n      dup2\n      mstore\n      0x20\n      add\n      0x00\n      keccak256\n        /* \"contracts/_NodeManager.sol\":433:490  nodes[_nodeAddress] = Node(_nodeAddress, _initialStorage) */\n      0x00\n      dup3\n      add\n      mload\n      dup2\n      0x00\n      add\n      exp(0x0100, 0x00)\n      dup2\n      sload\n      dup2\n      0xffffffffffffffffffffffffffffffffffffffff\n      mul\n      not\n      and\n      swap1\n      dup4\n      0xffffffffffffffffffffffffffffffffffffffff\n      and\n      mul\n      or\n      swap1\n      sstore\n      pop\n      0x20\n      dup3\n      add\n      mload\n      dup2\n      0x01\n      add\n      sstore\n      swap1\n      pop\n      pop\n        /* \"contracts/_NodeManager.sol\":501:509  allNodes */\n      0x01\n        /* \"contracts/_NodeManager.sol\":515:527  _nodeAddress */\n      dup3\n        /* \"contracts/_NodeManager.sol\":501:528  allNodes.push(_nodeAddress) */\n      swap1\n      dup1\n      0x01\n      dup2\n      sload\n      add\n      dup1\n      dup3\n      sstore\n      dup1\n      swap2\n      pop\n      pop\n      0x01\n      swap1\n      sub\n      swap1\n      0x00\n      mstore\n      keccak256(0x00, 0x20)\n      add\n      0x00\n      swap1\n      swap2\n      swap1\n      swap2\n      swap1\n      swap2\n      0x0100\n      exp\n      dup2\n      sload\n      dup2\n      0xffffffffffffffffffffffffffffffffffffffff\n      mul\n      not\n      and\n      swap1\n      dup4\n      0xffffffffffffffffffffffffffffffffffffffff\n      and\n      mul\n      or\n      swap1\n      sstore\n      pop\n        /* \"contracts/_NodeManager.sol\":263:536  function addNode(address _nodeAddress, uint256 _initialStorage) public {... */\n      pop\n      pop\n      jump\t// out\n        /* \"contracts/_NodeManager.sol\":185:222  mapping(address => Node) public nodes */\n    tag_29:\n      mstore(0x20, 0x00)\n      dup1\n      0x00\n      mstore\n      keccak256(0x00, 0x40)\n      0x00\n      swap2\n      pop\n      swap1\n      pop\n      dup1\n      0x00\n      add\n      0x00\n      swap1\n      sload\n      swap1\n      0x0100\n      exp\n      swap1\n      div\n      0xffffffffffffffffffffffffffffffffffffffff\n      and\n      swap1\n      dup1\n      0x01\n      add\n      sload\n      swap1\n      pop\n      dup3\n      jump\t// out\n        /* \"contracts/_ChunkManager.sol\":92:940  function chunkContent(string memory content) public pure returns (string[] memory) {                           //Changed to public for testing... */\n    tag_35:\n        /* \"contracts/_ChunkManager.sol\":158:173  string[] memory */\n      0x60\n        /* \"contracts/_ChunkManager.sol\":244:261  uint256 chunkSize */\n      0x00\n        /* \"contracts/_ChunkManager.sol\":264:266  32 */\n      0x20\n        /* \"contracts/_ChunkManager.sol\":244:266  uint256 chunkSize = 32 */\n      swap1\n      pop\n        /* \"contracts/_ChunkManager.sol\":277:294  uint256 numChunks */\n      0x00\n        /* \"contracts/_ChunkManager.sol\":339:348  chunkSize */\n      dup2\n        /* \"contracts/_ChunkManager.sol\":334:335  1 */\n      0x01\n        /* \"contracts/_ChunkManager.sol\":322:331  chunkSize */\n      dup4\n        /* \"contracts/_ChunkManager.sol\":304:311  content */\n      dup7\n        /* \"contracts/_ChunkManager.sol\":298:319  bytes(content).length */\n      mload\n        /* \"contracts/_ChunkManager.sol\":298:331  bytes(content).length + chunkSize */\n      tag_98\n      swap2\n      swap1\n      tag_99\n      jump\t// in\n    tag_98:\n        /* \"contracts/_ChunkManager.sol\":298:335  bytes(content).length + chunkSize - 1 */\n      tag_100\n      swap2\n      swap1\n      tag_101\n      jump\t// in\n    tag_100:\n        /* \"contracts/_ChunkManager.sol\":297:348  (bytes(content).length + chunkSize - 1) / chunkSize */\n      tag_102\n      swap2\n      swap1\n      tag_103\n      jump\t// in\n    tag_102:\n        /* \"contracts/_ChunkManager.sol\":277:348  uint256 numChunks = (bytes(content).length + chunkSize - 1) / chunkSize */\n      swap1\n      pop\n        /* \"contracts/_ChunkManager.sol\":359:381  string[] memory chunks */\n      0x00\n        /* \"contracts/_ChunkManager.sol\":397:406  numChunks */\n      dup2\n        /* \"contracts/_ChunkManager.sol\":384:407  new string[](numChunks) */\n      0xffffffffffffffff\n      dup2\n      gt\n      iszero\n      tag_104\n      jumpi\n      tag_105\n      tag_106\n      jump\t// in\n    tag_105:\n    tag_104:\n      mload(0x40)\n      swap1\n      dup1\n      dup3\n      mstore\n      dup1\n      0x20\n      mul\n      0x20\n      add\n      dup3\n      add\n      0x40\n      mstore\n      dup1\n      iszero\n      tag_107\n      jumpi\n      dup2\n      0x20\n      add\n    tag_108:\n      0x60\n      dup2\n      mstore\n      0x20\n      add\n      swap1\n      0x01\n      swap1\n      sub\n      swap1\n      dup2\n      tag_108\n      jumpi\n      swap1\n      pop\n    tag_107:\n      pop\n        /* \"contracts/_ChunkManager.sol\":359:407  string[] memory chunks = new string[](numChunks) */\n      swap1\n      pop\n        /* \"contracts/_ChunkManager.sol\":425:434  uint256 i */\n      0x00\n        /* \"contracts/_ChunkManager.sol\":420:907  for (uint256 i = 0; i < numChunks; i++) {... */\n    tag_109:\n        /* \"contracts/_ChunkManager.sol\":444:453  numChunks */\n      dup3\n        /* \"contracts/_ChunkManager.sol\":440:441  i */\n      dup2\n        /* \"contracts/_ChunkManager.sol\":440:453  i < numChunks */\n      lt\n        /* \"contracts/_ChunkManager.sol\":420:907  for (uint256 i = 0; i < numChunks; i++) {... */\n      iszero\n      tag_110\n      jumpi\n        /* \"contracts/_ChunkManager.sol\":475:488  uint256 start */\n      0x00\n        /* \"contracts/_ChunkManager.sol\":495:504  chunkSize */\n      dup5\n        /* \"contracts/_ChunkManager.sol\":491:492  i */\n      dup3\n        /* \"contracts/_ChunkManager.sol\":491:504  i * chunkSize */\n      tag_112\n      swap2\n      swap1\n      tag_113\n      jump\t// in\n    tag_112:\n        /* \"contracts/_ChunkManager.sol\":475:504  uint256 start = i * chunkSize */\n      swap1\n      pop\n        /* \"contracts/_ChunkManager.sol\":519:530  uint256 end */\n      0x00\n        /* \"contracts/_ChunkManager.sol\":541:550  chunkSize */\n      dup6\n        /* \"contracts/_ChunkManager.sol\":533:538  start */\n      dup3\n        /* \"contracts/_ChunkManager.sol\":533:550  start + chunkSize */\n      tag_114\n      swap2\n      swap1\n      tag_99\n      jump\t// in\n    tag_114:\n        /* \"contracts/_ChunkManager.sol\":519:550  uint256 end = start + chunkSize */\n      swap1\n      pop\n        /* \"contracts/_ChunkManager.sol\":581:588  content */\n      dup8\n        /* \"contracts/_ChunkManager.sol\":575:596  bytes(content).length */\n      mload\n        /* \"contracts/_ChunkManager.sol\":569:572  end */\n      dup2\n        /* \"contracts/_ChunkManager.sol\":569:596  end > bytes(content).length */\n      gt\n        /* \"contracts/_ChunkManager.sol\":565:660  if (end > bytes(content).length) {... */\n      iszero\n      tag_115\n      jumpi\n        /* \"contracts/_ChunkManager.sol\":629:636  content */\n      dup8\n        /* \"contracts/_ChunkManager.sol\":623:644  bytes(content).length */\n      mload\n        /* \"contracts/_ChunkManager.sol\":617:644  end = bytes(content).length */\n      swap1\n      pop\n        /* \"contracts/_ChunkManager.sol\":565:660  if (end > bytes(content).length) {... */\n    tag_115:\n        /* \"contracts/_ChunkManager.sol\":674:697  bytes memory chunkBytes */\n      0x00\n        /* \"contracts/_ChunkManager.sol\":716:721  start */\n      dup3\n        /* \"contracts/_ChunkManager.sol\":710:713  end */\n      dup3\n        /* \"contracts/_ChunkManager.sol\":710:721  end - start */\n      tag_116\n      swap2\n      swap1\n      tag_101\n      jump\t// in\n    tag_116:\n        /* \"contracts/_ChunkManager.sol\":700:722  new bytes(end - start) */\n      0xffffffffffffffff\n      dup2\n      gt\n      iszero\n      tag_117\n      jumpi\n      tag_118\n      tag_106\n      jump\t// in\n    tag_118:\n    tag_117:\n      mload(0x40)\n      swap1\n      dup1\n      dup3\n      mstore\n      dup1\n      0x1f\n      add\n      not(0x1f)\n      and\n      0x20\n      add\n      dup3\n      add\n      0x40\n      mstore\n      dup1\n      iszero\n      tag_119\n      jumpi\n      dup2\n      0x20\n      add\n      0x01\n      dup3\n      mul\n      dup1\n      calldatasize\n      dup4\n      calldatacopy\n      dup1\n      dup3\n      add\n      swap2\n      pop\n      pop\n      swap1\n      pop\n    tag_119:\n      pop\n        /* \"contracts/_ChunkManager.sol\":674:722  bytes memory chunkBytes = new bytes(end - start) */\n      swap1\n      pop\n        /* \"contracts/_ChunkManager.sol\":742:751  uint256 j */\n      0x00\n        /* \"contracts/_ChunkManager.sol\":754:759  start */\n      dup4\n        /* \"contracts/_ChunkManager.sol\":742:759  uint256 j = start */\n      swap1\n      pop\n        /* \"contracts/_ChunkManager.sol\":737:851  for (uint256 j = start; j < end; j++) {... */\n    tag_120:\n        /* \"contracts/_ChunkManager.sol\":765:768  end */\n      dup3\n        /* \"contracts/_ChunkManager.sol\":761:762  j */\n      dup2\n        /* \"contracts/_ChunkManager.sol\":761:768  j < end */\n      lt\n        /* \"contracts/_ChunkManager.sol\":737:851  for (uint256 j = start; j < end; j++) {... */\n      iszero\n      tag_121\n      jumpi\n        /* \"contracts/_ChunkManager.sol\":824:831  content */\n      dup10\n        /* \"contracts/_ChunkManager.sol\":833:834  j */\n      dup2\n        /* \"contracts/_ChunkManager.sol\":818:835  bytes(content)[j] */\n      dup2\n      mload\n      dup2\n      lt\n      tag_123\n      jumpi\n      tag_124\n      tag_125\n      jump\t// in\n    tag_124:\n    tag_123:\n      0x20\n      add\n      add\n      mload\n      0xf8\n      shr\n      0xf8\n      shl\n        /* \"contracts/_ChunkManager.sol\":794:804  chunkBytes */\n      dup3\n        /* \"contracts/_ChunkManager.sol\":809:814  start */\n      dup6\n        /* \"contracts/_ChunkManager.sol\":805:806  j */\n      dup4\n        /* \"contracts/_ChunkManager.sol\":805:814  j - start */\n      tag_126\n      swap2\n      swap1\n      tag_101\n      jump\t// in\n    tag_126:\n        /* \"contracts/_ChunkManager.sol\":794:815  chunkBytes[j - start] */\n      dup2\n      mload\n      dup2\n      lt\n      tag_127\n      jumpi\n      tag_128\n      tag_125\n      jump\t// in\n    tag_128:\n    tag_127:\n      0x20\n      add\n      add\n        /* \"contracts/_ChunkManager.sol\":794:835  chunkBytes[j - start] = bytes(content)[j] */\n      swap1\n      not(0xffffffffffffffffffffffffffffffffffffffffffffffffffffffffffffff)\n      and\n      swap1\n      dup2\n      0x00\n      byte\n      swap1\n      mstore8\n      pop\n        /* \"contracts/_ChunkManager.sol\":770:773  j++ */\n      dup1\n      dup1\n      0x01\n      add\n      swap2\n      pop\n      pop\n        /* \"contracts/_ChunkManager.sol\":737:851  for (uint256 j = start; j < end; j++) {... */\n      jump(tag_120)\n    tag_121:\n      pop\n        /* \"contracts/_ChunkManager.sol\":884:894  chunkBytes */\n      dup1\n        /* \"contracts/_ChunkManager.sol\":865:871  chunks */\n      dup6\n        /* \"contracts/_ChunkManager.sol\":872:873  i */\n      dup6\n        /* \"contracts/_ChunkManager.sol\":865:874  chunks[i] */\n      dup2\n      mload\n      dup2\n      lt\n      tag_129\n      jumpi\n      tag_130\n      tag_125\n      jump\t// in\n    tag_130:\n    tag_129:\n      0x20\n      mul\n      0x20\n      add\n      add\n        /* \"contracts/_ChunkManager.sol\":865:895  chunks[i] = string(chunkBytes) */\n      dup2\n      swap1\n      mstore\n      pop\n        /* \"contracts/_ChunkManager.sol\":460:907  {... */\n      pop\n      pop\n      pop\n        /* \"contracts/_ChunkManager.sol\":455:458  i++ */\n      dup1\n      dup1\n      0x01\n      add\n      swap2\n      pop\n      pop\n        /* \"contracts/_ChunkManager.sol\":420:907  for (uint256 i = 0; i < numChunks; i++) {... */\n      jump(tag_109)\n    tag_110:\n      pop\n        /* \"contracts/_ChunkManager.sol\":926:932  chunks */\n      dup1\n        /* \"contracts/_ChunkManager.sol\":919:932  return chunks */\n      swap4\n      pop\n      pop\n      pop\n      pop\n        /* \"contracts/_ChunkManager.sol\":92:940  function chunkContent(string memory content) public pure returns (string[] memory) {                           //Changed to public for testing... */\n      swap2\n      swap1\n      pop\n      jump\t// out\n        /* \"contracts/_FileStorage.sol\":2109:2820  function retrieveFile(string memory fileId) public view returns (string memory) {... */\n    tag_40:\n        /* \"contracts/_FileStorage.sol\":2174:2187  string memory */\n      0x60\n        /* \"contracts/_FileStorage.sol\":2244:2245  0 */\n      0x00\n        /* \"contracts/_FileStorage.sol\":2208:2224  fileIdToMetadata */\n      0x03\n        /* \"contracts/_FileStorage.sol\":2225:2231  fileId */\n      dup4\n        /* \"contracts/_FileStorage.sol\":2208:2232  fileIdToMetadata[fileId] */\n      mload(0x40)\n      tag_132\n      swap2\n      swap1\n      tag_133\n      jump\t// in\n    tag_132:\n      swap1\n      dup2\n      mstore\n      0x20\n      add\n      mload(0x40)\n      dup1\n      swap2\n      sub\n      swap1\n      keccak256\n        /* \"contracts/_FileStorage.sol\":2208:2241  fileIdToMetadata[fileId].fileSize */\n      0x01\n      add\n      sload\n        /* \"contracts/_FileStorage.sol\":2208:2245  fileIdToMetadata[fileId].fileSize > 0 */\n      gt\n        /* \"contracts/_FileStorage.sol\":2200:2264  require(fileIdToMetadata[fileId].fileSize > 0, \"File not found\") */\n      tag_134\n      jumpi\n      mload(0x40)\n      0x08c379a000000000000000000000000000000000000000000000000000000000\n      dup2\n      mstore\n      0x04\n      add\n      tag_135\n      swap1\n      tag_136\n      jump\t// in\n    tag_135:\n      mload(0x40)\n      dup1\n      swap2\n      sub\n      swap1\n      revert\n    tag_134:\n        /* \"contracts/_FileStorage.sol\":2324:2353  address[] memory storageNodes */\n      0x00\n        /* \"contracts/_FileStorage.sol\":2356:2378  fileIdToNodesAddresses */\n      0x04\n        /* \"contracts/_FileStorage.sol\":2379:2385  fileId */\n      dup4\n        /* \"contracts/_FileStorage.sol\":2356:2386  fileIdToNodesAddresses[fileId] */\n      mload(0x40)\n      tag_137\n      swap2\n      swap1\n      tag_133\n      jump\t// in\n    tag_137:\n      swap1\n      dup2\n      mstore\n      0x20\n      add\n      mload(0x40)\n      dup1\n      swap2\n      sub\n      swap1\n      keccak256\n        /* \"contracts/_FileStorage.sol\":2324:2386  address[] memory storageNodes = fileIdToNodesAddresses[fileId] */\n      dup1\n      sload\n      dup1\n      0x20\n      mul\n      0x20\n      add\n      mload(0x40)\n      swap1\n      dup2\n      add\n      0x40\n      mstore\n      dup1\n      swap3\n      swap2\n      swap1\n      dup2\n      dup2\n      mstore\n      0x20\n      add\n      dup3\n      dup1\n      sload\n      dup1\n      iszero\n      tag_138\n      jumpi\n      0x20\n      mul\n      dup3\n      add\n      swap2\n      swap1\n      0x00\n      mstore\n      keccak256(0x00, 0x20)\n      swap1\n    tag_139:\n      dup2\n      0x00\n      swap1\n      sload\n      swap1\n      0x0100\n      exp\n      swap1\n      div\n      0xffffffffffffffffffffffffffffffffffffffff\n      and\n      0xffffffffffffffffffffffffffffffffffffffff\n      and\n      dup2\n      mstore\n      0x20\n      add\n      swap1\n      0x01\n      add\n      swap1\n      dup1\n      dup4\n      gt\n      tag_139\n      jumpi\n    tag_138:\n      pop\n      pop\n      pop\n      pop\n      pop\n      swap1\n      pop\n        /* \"contracts/_FileStorage.sol\":2397:2423  string [] memory chunksArr */\n      0x60\n        /* \"contracts/_FileStorage.sol\":2441:2450  uint256 i */\n      0x00\n        /* \"contracts/_FileStorage.sol\":2436:2645  for (uint256 i = 0; i < storageNodes.length; i++) {... */\n    tag_140:\n        /* \"contracts/_FileStorage.sol\":2460:2472  storageNodes */\n      dup3\n        /* \"contracts/_FileStorage.sol\":2460:2479  storageNodes.length */\n      mload\n        /* \"contracts/_FileStorage.sol\":2456:2457  i */\n      dup2\n        /* \"contracts/_FileStorage.sol\":2456:2479  i < storageNodes.length */\n      lt\n        /* \"contracts/_FileStorage.sol\":2436:2645  for (uint256 i = 0; i < storageNodes.length; i++) {... */\n      iszero\n      tag_141\n      jumpi\n        /* \"contracts/_FileStorage.sol\":2481:2484  i++ */\n      dup1\n      dup1\n      0x01\n      add\n      swap2\n      pop\n      pop\n        /* \"contracts/_FileStorage.sol\":2436:2645  for (uint256 i = 0; i < storageNodes.length; i++) {... */\n      jump(tag_140)\n    tag_141:\n      pop\n        /* \"contracts/_FileStorage.sol\":2709:2742  string memory concatenatedContent */\n      0x00\n        /* \"contracts/_FileStorage.sol\":2745:2773  concatenateChunks(chunksArr) */\n      tag_143\n        /* \"contracts/_FileStorage.sol\":2763:2772  chunksArr */\n      dup3\n        /* \"contracts/_FileStorage.sol\":2745:2762  concatenateChunks */\n      tag_55\n        /* \"contracts/_FileStorage.sol\":2745:2773  concatenateChunks(chunksArr) */\n      jump\t// in\n    tag_143:\n        /* \"contracts/_FileStorage.sol\":2709:2773  string memory concatenatedContent = concatenateChunks(chunksArr) */\n      swap1\n      pop\n        /* \"contracts/_FileStorage.sol\":2793:2812  concatenatedContent */\n      dup1\n        /* \"contracts/_FileStorage.sol\":2786:2812  return concatenatedContent */\n      swap4\n      pop\n      pop\n      pop\n      pop\n        /* \"contracts/_FileStorage.sol\":2109:2820  function retrieveFile(string memory fileId) public view returns (string memory) {... */\n      swap2\n      swap1\n      pop\n      jump\t// out\n        /* \"contracts/_NodeManager.sol\":926:1089  function retrieveChunkInNode(address _nodeAddress, string memory _fileId) public view returns (string memory) {... */\n    tag_46:\n        /* \"contracts/_NodeManager.sol\":1021:1034  string memory */\n      0x60\n        /* \"contracts/_NodeManager.sol\":926:1089  function retrieveChunkInNode(address _nodeAddress, string memory _fileId) public view returns (string memory) {... */\n      swap3\n      swap2\n      pop\n      pop\n      jump\t// out\n        /* \"contracts/_NodeManager.sol\":1097:1256  function deleteChunkInNode(address _nodeAddress, string memory _fileId) public view returns (string memory) {... */\n    tag_50:\n        /* \"contracts/_NodeManager.sol\":1190:1203  string memory */\n      0x60\n        /* \"contracts/_NodeManager.sol\":1097:1256  function deleteChunkInNode(address _nodeAddress, string memory _fileId) public view returns (string memory) {... */\n      swap3\n      swap2\n      pop\n      pop\n      jump\t// out\n        /* \"contracts/_ChunkManager.sol\":948:1643  function concatenateChunks(string[] memory chunks) public pure returns (string memory) {                              //Changed to public for testing... */\n    tag_55:\n        /* \"contracts/_ChunkManager.sol\":1020:1033  string memory */\n      0x60\n        /* \"contracts/_ChunkManager.sol\":1107:1126  uint256 totalLength */\n      0x00\n        /* \"contracts/_ChunkManager.sol\":1146:1155  uint256 i */\n      dup1\n        /* \"contracts/_ChunkManager.sol\":1141:1250  for (uint256 i = 0; i < chunks.length; i++) {... */\n    tag_147:\n        /* \"contracts/_ChunkManager.sol\":1165:1171  chunks */\n      dup4\n        /* \"contracts/_ChunkManager.sol\":1165:1178  chunks.length */\n      mload\n        /* \"contracts/_ChunkManager.sol\":1161:1162  i */\n      dup2\n        /* \"contracts/_ChunkManager.sol\":1161:1178  i < chunks.length */\n      lt\n        /* \"contracts/_ChunkManager.sol\":1141:1250  for (uint256 i = 0; i < chunks.length; i++) {... */\n      iszero\n      tag_148\n      jumpi\n        /* \"contracts/_ChunkManager.sol\":1221:1227  chunks */\n      dup4\n        /* \"contracts/_ChunkManager.sol\":1228:1229  i */\n      dup2\n        /* \"contracts/_ChunkManager.sol\":1221:1230  chunks[i] */\n      dup2\n      mload\n      dup2\n      lt\n      tag_150\n      jumpi\n      tag_151\n      tag_125\n      jump\t// in\n    tag_151:\n    tag_150:\n      0x20\n      mul\n      0x20\n      add\n      add\n      mload\n        /* \"contracts/_ChunkManager.sol\":1215:1238  bytes(chunks[i]).length */\n      mload\n        /* \"contracts/_ChunkManager.sol\":1200:1238  totalLength += bytes(chunks[i]).length */\n      dup3\n      tag_152\n      swap2\n      swap1\n      tag_99\n      jump\t// in\n    tag_152:\n      swap2\n      pop\n        /* \"contracts/_ChunkManager.sol\":1180:1183  i++ */\n      dup1\n      dup1\n      0x01\n      add\n      swap2\n      pop\n      pop\n        /* \"contracts/_ChunkManager.sol\":1141:1250  for (uint256 i = 0; i < chunks.length; i++) {... */\n      jump(tag_147)\n    tag_148:\n      pop\n        /* \"contracts/_ChunkManager.sol\":1262:1281  bytes memory result */\n      0x00\n        /* \"contracts/_ChunkManager.sol\":1294:1305  totalLength */\n      dup2\n        /* \"contracts/_ChunkManager.sol\":1284:1306  new bytes(totalLength) */\n      0xffffffffffffffff\n      dup2\n      gt\n      iszero\n      tag_153\n      jumpi\n      tag_154\n      tag_106\n      jump\t// in\n    tag_154:\n    tag_153:\n      mload(0x40)\n      swap1\n      dup1\n      dup3\n      mstore\n      dup1\n      0x1f\n      add\n      not(0x1f)\n      and\n      0x20\n      add\n      dup3\n      add\n      0x40\n      mstore\n      dup1\n      iszero\n      tag_155\n      jumpi\n      dup2\n      0x20\n      add\n      0x01\n      dup3\n      mul\n      dup1\n      calldatasize\n      dup4\n      calldatacopy\n      dup1\n      dup3\n      add\n      swap2\n      pop\n      pop\n      swap1\n      pop\n    tag_155:\n      pop\n        /* \"contracts/_ChunkManager.sol\":1262:1306  bytes memory result = new bytes(totalLength) */\n      swap1\n      pop\n        /* \"contracts/_ChunkManager.sol\":1317:1337  uint256 currentIndex */\n      0x00\n        /* \"contracts/_ChunkManager.sol\":1359:1368  uint256 i */\n      dup1\n        /* \"contracts/_ChunkManager.sol\":1354:1602  for (uint256 i = 0; i < chunks.length; i++) {... */\n    tag_156:\n        /* \"contracts/_ChunkManager.sol\":1378:1384  chunks */\n      dup6\n        /* \"contracts/_ChunkManager.sol\":1378:1391  chunks.length */\n      mload\n        /* \"contracts/_ChunkManager.sol\":1374:1375  i */\n      dup2\n        /* \"contracts/_ChunkManager.sol\":1374:1391  i < chunks.length */\n      lt\n        /* \"contracts/_ChunkManager.sol\":1354:1602  for (uint256 i = 0; i < chunks.length; i++) {... */\n      iszero\n      tag_157\n      jumpi\n        /* \"contracts/_ChunkManager.sol\":1413:1436  bytes memory chunkBytes */\n      0x00\n        /* \"contracts/_ChunkManager.sol\":1445:1451  chunks */\n      dup7\n        /* \"contracts/_ChunkManager.sol\":1452:1453  i */\n      dup3\n        /* \"contracts/_ChunkManager.sol\":1445:1454  chunks[i] */\n      dup2\n      mload\n      dup2\n      lt\n      tag_159\n      jumpi\n      tag_160\n      tag_125\n      jump\t// in\n    tag_160:\n    tag_159:\n      0x20\n      mul\n      0x20\n      add\n      add\n      mload\n        /* \"contracts/_ChunkManager.sol\":1413:1455  bytes memory chunkBytes = bytes(chunks[i]) */\n      swap1\n      pop\n        /* \"contracts/_ChunkManager.sol\":1475:1484  uint256 j */\n      0x00\n        /* \"contracts/_ChunkManager.sol\":1470:1591  for (uint256 j = 0; j < chunkBytes.length; j++) {... */\n    tag_161:\n        /* \"contracts/_ChunkManager.sol\":1494:1504  chunkBytes */\n      dup2\n        /* \"contracts/_ChunkManager.sol\":1494:1511  chunkBytes.length */\n      mload\n        /* \"contracts/_ChunkManager.sol\":1490:1491  j */\n      dup2\n        /* \"contracts/_ChunkManager.sol\":1490:1511  j < chunkBytes.length */\n      lt\n        /* \"contracts/_ChunkManager.sol\":1470:1591  for (uint256 j = 0; j < chunkBytes.length; j++) {... */\n      iszero\n      tag_162\n      jumpi\n        /* \"contracts/_ChunkManager.sol\":1562:1572  chunkBytes */\n      dup2\n        /* \"contracts/_ChunkManager.sol\":1573:1574  j */\n      dup2\n        /* \"contracts/_ChunkManager.sol\":1562:1575  chunkBytes[j] */\n      dup2\n      mload\n      dup2\n      lt\n      tag_164\n      jumpi\n      tag_165\n      tag_125\n      jump\t// in\n    tag_165:\n    tag_164:\n      0x20\n      add\n      add\n      mload\n      0xf8\n      shr\n      0xf8\n      shl\n        /* \"contracts/_ChunkManager.sol\":1537:1543  result */\n      dup6\n        /* \"contracts/_ChunkManager.sol\":1544:1558  currentIndex++ */\n      dup6\n      dup1\n      tag_166\n      swap1\n      tag_167\n      jump\t// in\n    tag_166:\n      swap7\n      pop\n        /* \"contracts/_ChunkManager.sol\":1537:1559  result[currentIndex++] */\n      dup2\n      mload\n      dup2\n      lt\n      tag_168\n      jumpi\n      tag_169\n      tag_125\n      jump\t// in\n    tag_169:\n    tag_168:\n      0x20\n      add\n      add\n        /* \"contracts/_ChunkManager.sol\":1537:1575  result[currentIndex++] = chunkBytes[j] */\n      swap1\n      not(0xffffffffffffffffffffffffffffffffffffffffffffffffffffffffffffff)\n      and\n      swap1\n      dup2\n      0x00\n      byte\n      swap1\n      mstore8\n      pop\n        /* \"contracts/_ChunkManager.sol\":1513:1516  j++ */\n      dup1\n      dup1\n      0x01\n      add\n      swap2\n      pop\n      pop\n        /* \"contracts/_ChunkManager.sol\":1470:1591  for (uint256 j = 0; j < chunkBytes.length; j++) {... */\n      jump(tag_161)\n    tag_162:\n      pop\n        /* \"contracts/_ChunkManager.sol\":1398:1602  {... */\n      pop\n        /* \"contracts/_ChunkManager.sol\":1393:1396  i++ */\n      dup1\n      dup1\n      0x01\n      add\n      swap2\n      pop\n      pop\n        /* \"contracts/_ChunkManager.sol\":1354:1602  for (uint256 i = 0; i < chunks.length; i++) {... */\n      jump(tag_156)\n    tag_157:\n      pop\n        /* \"contracts/_ChunkManager.sol\":1628:1634  result */\n      dup2\n        /* \"contracts/_ChunkManager.sol\":1614:1635  return string(result) */\n      swap4\n      pop\n      pop\n      pop\n      pop\n        /* \"contracts/_ChunkManager.sol\":948:1643  function concatenateChunks(string[] memory chunks) public pure returns (string memory) {                              //Changed to public for testing... */\n      swap2\n      swap1\n      pop\n      jump\t// out\n        /* \"contracts/_NodeManager.sol\":1503:2411  function findAvailableNode(uint256 _chunkSize) public view returns (address) {                              //Changed to public for testing... */\n    tag_60:\n        /* \"contracts/_NodeManager.sol\":1571:1578  address */\n      0x00\n        /* \"contracts/_NodeManager.sol\":1652:1668  uint256 numNodes */\n      dup1\n        /* \"contracts/_NodeManager.sol\":1671:1679  allNodes */\n      0x01\n        /* \"contracts/_NodeManager.sol\":1671:1686  allNodes.length */\n      dup1\n      sload\n      swap1\n      pop\n        /* \"contracts/_NodeManager.sol\":1652:1686  uint256 numNodes = allNodes.length */\n      swap1\n      pop\n        /* \"contracts/_NodeManager.sol\":1697:1715  uint256 sizeOffset */\n      0x00\n        /* \"contracts/_NodeManager.sol\":1718:1720  50 */\n      0x32\n        /* \"contracts/_NodeManager.sol\":1697:1720  uint256 sizeOffset = 50 */\n      swap1\n      pop\n        /* \"contracts/_NodeManager.sol\":1749:1750  0 */\n      0x00\n        /* \"contracts/_NodeManager.sol\":1737:1745  numNodes */\n      dup3\n        /* \"contracts/_NodeManager.sol\":1737:1750  numNodes == 0 */\n      sub\n        /* \"contracts/_NodeManager.sol\":1733:1796  if (numNodes == 0) {... */\n      tag_171\n      jumpi\n        /* \"contracts/_NodeManager.sol\":1782:1783  0 */\n      0x00\n        /* \"contracts/_NodeManager.sol\":1767:1784  return address(0) */\n      swap3\n      pop\n      pop\n      pop\n      jump(tag_170)\n        /* \"contracts/_NodeManager.sol\":1733:1796  if (numNodes == 0) {... */\n    tag_171:\n        /* \"contracts/_NodeManager.sol\":1867:1886  uint256 randomIndex */\n      0x00\n        /* \"contracts/_NodeManager.sol\":1928:1936  numNodes */\n      dup3\n        /* \"contracts/_NodeManager.sol\":1922:1923  1 */\n      0x01\n        /* \"contracts/_NodeManager.sol\":1907:1919  block.number */\n      number\n        /* \"contracts/_NodeManager.sol\":1907:1923  block.number - 1 */\n      tag_172\n      swap2\n      swap1\n      tag_101\n      jump\t// in\n    tag_172:\n        /* \"contracts/_NodeManager.sol\":1897:1924  blockhash(block.number - 1) */\n      blockhash\n        /* \"contracts/_NodeManager.sol\":1889:1925  uint256(blockhash(block.number - 1)) */\n      0x00\n      shr\n        /* \"contracts/_NodeManager.sol\":1889:1936  uint256(blockhash(block.number - 1)) % numNodes */\n      tag_173\n      swap2\n      swap1\n      tag_174\n      jump\t// in\n    tag_173:\n        /* \"contracts/_NodeManager.sol\":1867:1936  uint256 randomIndex = uint256(blockhash(block.number - 1)) % numNodes */\n      swap1\n      pop\n        /* \"contracts/_NodeManager.sol\":2030:2039  uint256 i */\n      0x00\n        /* \"contracts/_NodeManager.sol\":2025:2344  for (uint256 i = 0; i < numNodes; i++) {... */\n    tag_175:\n        /* \"contracts/_NodeManager.sol\":2049:2057  numNodes */\n      dup4\n        /* \"contracts/_NodeManager.sol\":2045:2046  i */\n      dup2\n        /* \"contracts/_NodeManager.sol\":2045:2057  i < numNodes */\n      lt\n        /* \"contracts/_NodeManager.sol\":2025:2344  for (uint256 i = 0; i < numNodes; i++) {... */\n      iszero\n      tag_176\n      jumpi\n        /* \"contracts/_NodeManager.sol\":2079:2091  address node */\n      0x00\n        /* \"contracts/_NodeManager.sol\":2094:2102  allNodes */\n      0x01\n        /* \"contracts/_NodeManager.sol\":2123:2131  numNodes */\n      dup6\n        /* \"contracts/_NodeManager.sol\":2118:2119  i */\n      dup4\n        /* \"contracts/_NodeManager.sol\":2104:2115  randomIndex */\n      dup6\n        /* \"contracts/_NodeManager.sol\":2104:2119  randomIndex + i */\n      tag_178\n      swap2\n      swap1\n      tag_99\n      jump\t// in\n    tag_178:\n        /* \"contracts/_NodeManager.sol\":2103:2131  (randomIndex + i) % numNodes */\n      tag_179\n      swap2\n      swap1\n      tag_174\n      jump\t// in\n    tag_179:\n        /* \"contracts/_NodeManager.sol\":2094:2132  allNodes[(randomIndex + i) % numNodes] */\n      dup2\n      sload\n      dup2\n      lt\n      tag_180\n      jumpi\n      tag_181\n      tag_125\n      jump\t// in\n    tag_181:\n    tag_180:\n      swap1\n      0x00\n      mstore\n      keccak256(0x00, 0x20)\n      add\n      0x00\n      swap1\n      sload\n      swap1\n      0x0100\n      exp\n      swap1\n      div\n      0xffffffffffffffffffffffffffffffffffffffff\n      and\n        /* \"contracts/_NodeManager.sol\":2079:2132  address node = allNodes[(randomIndex + i) % numNodes] */\n      swap1\n      pop\n        /* \"contracts/_NodeManager.sol\":2195:2205  sizeOffset */\n      dup4\n        /* \"contracts/_NodeManager.sol\":2182:2192  _chunkSize */\n      dup8\n        /* \"contracts/_NodeManager.sol\":2182:2205  _chunkSize + sizeOffset */\n      tag_183\n      swap2\n      swap1\n      tag_99\n      jump\t// in\n    tag_183:\n        /* \"contracts/_NodeManager.sol\":2151:2156  nodes */\n      0x00\n        /* \"contracts/_NodeManager.sol\":2151:2162  nodes[node] */\n      dup1\n        /* \"contracts/_NodeManager.sol\":2157:2161  node */\n      dup4\n        /* \"contracts/_NodeManager.sol\":2151:2162  nodes[node] */\n      0xffffffffffffffffffffffffffffffffffffffff\n      and\n      0xffffffffffffffffffffffffffffffffffffffff\n      and\n      dup2\n      mstore\n      0x20\n      add\n      swap1\n      dup2\n      mstore\n      0x20\n      add\n      0x00\n      keccak256\n        /* \"contracts/_NodeManager.sol\":2151:2179  nodes[node].availableStorage */\n      0x01\n      add\n      sload\n        /* \"contracts/_NodeManager.sol\":2151:2205  nodes[node].availableStorage > _chunkSize + sizeOffset */\n      gt\n        /* \"contracts/_NodeManager.sol\":2147:2333  if (nodes[node].availableStorage > _chunkSize + sizeOffset) {... */\n      iszero\n      tag_184\n      jumpi\n        /* \"contracts/_NodeManager.sol\":2313:2317  node */\n      dup1\n        /* \"contracts/_NodeManager.sol\":2306:2317  return node */\n      swap6\n      pop\n      pop\n      pop\n      pop\n      pop\n      pop\n      jump(tag_170)\n        /* \"contracts/_NodeManager.sol\":2147:2333  if (nodes[node].availableStorage > _chunkSize + sizeOffset) {... */\n    tag_184:\n        /* \"contracts/_NodeManager.sol\":2064:2344  {... */\n      pop\n        /* \"contracts/_NodeManager.sol\":2059:2062  i++ */\n      dup1\n      dup1\n      0x01\n      add\n      swap2\n      pop\n      pop\n        /* \"contracts/_NodeManager.sol\":2025:2344  for (uint256 i = 0; i < numNodes; i++) {... */\n      jump(tag_175)\n    tag_176:\n      pop\n        /* \"contracts/_NodeManager.sol\":2400:2401  0 */\n      0x00\n        /* \"contracts/_NodeManager.sol\":2385:2402  return address(0) */\n      swap4\n      pop\n      pop\n      pop\n      pop\n        /* \"contracts/_NodeManager.sol\":1503:2411  function findAvailableNode(uint256 _chunkSize) public view returns (address) {                              //Changed to public for testing... */\n    tag_170:\n      swap2\n      swap1\n      pop\n      jump\t// out\n        /* \"contracts/_FileStorage.sol\":712:2101  function storeFile(string memory fileName, string memory content, string memory uniqueId) public {... */\n    tag_66:\n        /* \"contracts/_FileStorage.sol\":820:836  uint256 fileSize */\n      0x00\n        /* \"contracts/_FileStorage.sol\":845:852  content */\n      dup3\n        /* \"contracts/_FileStorage.sol\":839:860  bytes(content).length */\n      mload\n        /* \"contracts/_FileStorage.sol\":820:860  uint256 fileSize = bytes(content).length */\n      swap1\n      pop\n        /* \"contracts/_FileStorage.sol\":902:934  FileMetadata(fileName, fileSize) */\n      mload(0x40)\n      dup1\n      0x40\n      add\n      0x40\n      mstore\n      dup1\n        /* \"contracts/_FileStorage.sol\":915:923  fileName */\n      dup6\n        /* \"contracts/_FileStorage.sol\":902:934  FileMetadata(fileName, fileSize) */\n      dup2\n      mstore\n      0x20\n      add\n        /* \"contracts/_FileStorage.sol\":925:933  fileSize */\n      dup3\n        /* \"contracts/_FileStorage.sol\":902:934  FileMetadata(fileName, fileSize) */\n      dup2\n      mstore\n      pop\n        /* \"contracts/_FileStorage.sol\":873:889  fileIdToMetadata */\n      0x03\n        /* \"contracts/_FileStorage.sol\":890:898  uniqueId */\n      dup4\n        /* \"contracts/_FileStorage.sol\":873:899  fileIdToMetadata[uniqueId] */\n      mload(0x40)\n      tag_186\n      swap2\n      swap1\n      tag_133\n      jump\t// in\n    tag_186:\n      swap1\n      dup2\n      mstore\n      0x20\n      add\n      mload(0x40)\n      dup1\n      swap2\n      sub\n      swap1\n      keccak256\n        /* \"contracts/_FileStorage.sol\":873:934  fileIdToMetadata[uniqueId] = FileMetadata(fileName, fileSize) */\n      0x00\n      dup3\n      add\n      mload\n      dup2\n      0x00\n      add\n      swap1\n      dup2\n      tag_187\n      swap2\n      swap1\n      tag_188\n      jump\t// in\n    tag_187:\n      pop\n      0x20\n      dup3\n      add\n      mload\n      dup2\n      0x01\n      add\n      sstore\n      swap1\n      pop\n      pop\n        /* \"contracts/_FileStorage.sol\":1001:1023  string[] memory chunks */\n      0x00\n        /* \"contracts/_FileStorage.sol\":1026:1047  chunkContent(content) */\n      tag_189\n        /* \"contracts/_FileStorage.sol\":1039:1046  content */\n      dup5\n        /* \"contracts/_FileStorage.sol\":1026:1038  chunkContent */\n      tag_35\n        /* \"contracts/_FileStorage.sol\":1026:1047  chunkContent(content) */\n      jump\t// in\n    tag_189:\n        /* \"contracts/_FileStorage.sol\":1001:1047  string[] memory chunks = chunkContent(content) */\n      swap1\n      pop\n        /* \"contracts/_FileStorage.sol\":1133:1142  uint256 i */\n      0x00\n        /* \"contracts/_FileStorage.sol\":1128:2094  for (uint256 i = 0; i < chunks.length; i++) {... */\n    tag_190:\n        /* \"contracts/_FileStorage.sol\":1152:1158  chunks */\n      dup2\n        /* \"contracts/_FileStorage.sol\":1152:1165  chunks.length */\n      mload\n        /* \"contracts/_FileStorage.sol\":1148:1149  i */\n      dup2\n        /* \"contracts/_FileStorage.sol\":1148:1165  i < chunks.length */\n      lt\n        /* \"contracts/_FileStorage.sol\":1128:2094  for (uint256 i = 0; i < chunks.length; i++) {... */\n      iszero\n      tag_191\n      jumpi\n        /* \"contracts/_FileStorage.sol\":1187:1204  uint256 chunkSize */\n      0x00\n        /* \"contracts/_FileStorage.sol\":1213:1219  chunks */\n      dup3\n        /* \"contracts/_FileStorage.sol\":1220:1221  i */\n      dup3\n        /* \"contracts/_FileStorage.sol\":1213:1222  chunks[i] */\n      dup2\n      mload\n      dup2\n      lt\n      tag_193\n      jumpi\n      tag_194\n      tag_125\n      jump\t// in\n    tag_194:\n    tag_193:\n      0x20\n      mul\n      0x20\n      add\n      add\n      mload\n        /* \"contracts/_FileStorage.sol\":1207:1230  bytes(chunks[i]).length */\n      mload\n        /* \"contracts/_FileStorage.sol\":1187:1230  uint256 chunkSize = bytes(chunks[i]).length */\n      swap1\n      pop\n        /* \"contracts/_FileStorage.sol\":1247:1278  uint256 chunkDuplicationCounter */\n      0x00\n        /* \"contracts/_FileStorage.sol\":1297:1319  uint256 maxDuplication */\n      dup1\n        /* \"contracts/_FileStorage.sol\":1322:1323  3 */\n      0x03\n        /* \"contracts/_FileStorage.sol\":1297:1323  uint256 maxDuplication = 3 */\n      swap1\n      pop\n        /* \"contracts/_FileStorage.sol\":1362:1363  3 */\n      0x03\n        /* \"contracts/_FileStorage.sol\":1344:1352  allNodes */\n      0x01\n        /* \"contracts/_FileStorage.sol\":1344:1359  allNodes.length */\n      dup1\n      sload\n      swap1\n      pop\n        /* \"contracts/_FileStorage.sol\":1344:1363  allNodes.length < 3 */\n      lt\n        /* \"contracts/_FileStorage.sol\":1340:1431  if (allNodes.length < 3){... */\n      iszero\n      tag_195\n      jumpi\n        /* \"contracts/_FileStorage.sol\":1400:1408  allNodes */\n      0x01\n        /* \"contracts/_FileStorage.sol\":1400:1415  allNodes.length */\n      dup1\n      sload\n      swap1\n      pop\n        /* \"contracts/_FileStorage.sol\":1383:1415  maxDuplication = allNodes.length */\n      swap1\n      pop\n        /* \"contracts/_FileStorage.sol\":1340:1431  if (allNodes.length < 3){... */\n    tag_195:\n        /* \"contracts/_FileStorage.sol\":1447:2070  while (chunkDuplicationCounter < maxDuplication) {... */\n    tag_196:\n        /* \"contracts/_FileStorage.sol\":1480:1494  maxDuplication */\n      dup1\n        /* \"contracts/_FileStorage.sol\":1454:1477  chunkDuplicationCounter */\n      dup3\n        /* \"contracts/_FileStorage.sol\":1454:1494  chunkDuplicationCounter < maxDuplication */\n      lt\n        /* \"contracts/_FileStorage.sol\":1447:2070  while (chunkDuplicationCounter < maxDuplication) {... */\n      iszero\n      tag_197\n      jumpi\n        /* \"contracts/_FileStorage.sol\":1515:1540  chunkDuplicationCounter++ */\n      dup2\n      dup1\n      tag_198\n      swap1\n      tag_167\n      jump\t// in\n    tag_198:\n      swap3\n      pop\n      pop\n        /* \"contracts/_FileStorage.sol\":1577:1604  address selectedNodeAddress */\n      0x00\n        /* \"contracts/_FileStorage.sol\":1607:1635  findAvailableNode(chunkSize) */\n      tag_199\n        /* \"contracts/_FileStorage.sol\":1625:1634  chunkSize */\n      dup5\n        /* \"contracts/_FileStorage.sol\":1607:1624  findAvailableNode */\n      tag_60\n        /* \"contracts/_FileStorage.sol\":1607:1635  findAvailableNode(chunkSize) */\n      jump\t// in\n    tag_199:\n        /* \"contracts/_FileStorage.sol\":1577:1635  address selectedNodeAddress = findAvailableNode(chunkSize) */\n      swap1\n      pop\n        /* \"contracts/_FileStorage.sol\":1695:1696  0 */\n      0x00\n        /* \"contracts/_FileStorage.sol\":1664:1697  selectedNodeAddress != address(0) */\n      0xffffffffffffffffffffffffffffffffffffffff\n      and\n        /* \"contracts/_FileStorage.sol\":1664:1683  selectedNodeAddress */\n      dup2\n        /* \"contracts/_FileStorage.sol\":1664:1697  selectedNodeAddress != address(0) */\n      0xffffffffffffffffffffffffffffffffffffffff\n      and\n      sub\n        /* \"contracts/_FileStorage.sol\":1656:1720  require(selectedNodeAddress != address(0), \"No available nodes\") */\n      tag_200\n      jumpi\n      mload(0x40)\n      0x08c379a000000000000000000000000000000000000000000000000000000000\n      dup2\n      mstore\n      0x04\n      add\n      tag_201\n      swap1\n      tag_202\n      jump\t// in\n    tag_201:\n      mload(0x40)\n      dup1\n      swap2\n      sub\n      swap1\n      revert\n    tag_200:\n        /* \"contracts/_FileStorage.sol\":1741:1763  fileIdToNodesAddresses */\n      0x04\n        /* \"contracts/_FileStorage.sol\":1764:1772  uniqueId */\n      dup9\n        /* \"contracts/_FileStorage.sol\":1741:1773  fileIdToNodesAddresses[uniqueId] */\n      mload(0x40)\n      tag_203\n      swap2\n      swap1\n      tag_133\n      jump\t// in\n    tag_203:\n      swap1\n      dup2\n      mstore\n      0x20\n      add\n      mload(0x40)\n      dup1\n      swap2\n      sub\n      swap1\n      keccak256\n        /* \"contracts/_FileStorage.sol\":1779:1798  selectedNodeAddress */\n      dup2\n        /* \"contracts/_FileStorage.sol\":1741:1799  fileIdToNodesAddresses[uniqueId].push(selectedNodeAddress) */\n      swap1\n      dup1\n      0x01\n      dup2\n      sload\n      add\n      dup1\n      dup3\n      sstore\n      dup1\n      swap2\n      pop\n      pop\n      0x01\n      swap1\n      sub\n      swap1\n      0x00\n      mstore\n      keccak256(0x00, 0x20)\n      add\n      0x00\n      swap1\n      swap2\n      swap1\n      swap2\n      swap1\n      swap2\n      0x0100\n      exp\n      dup2\n      sload\n      dup2\n      0xffffffffffffffffffffffffffffffffffffffff\n      mul\n      not\n      and\n      swap1\n      dup4\n      0xffffffffffffffffffffffffffffffffffffffff\n      and\n      mul\n      or\n      swap1\n      sstore\n      pop\n        /* \"contracts/_FileStorage.sol\":1820:1868  storeChunkInNode(selectedNodeAddress, chunks[i]) */\n      tag_205\n        /* \"contracts/_FileStorage.sol\":1837:1856  selectedNodeAddress */\n      dup2\n        /* \"contracts/_FileStorage.sol\":1858:1864  chunks */\n      dup8\n        /* \"contracts/_FileStorage.sol\":1865:1866  i */\n      dup8\n        /* \"contracts/_FileStorage.sol\":1858:1867  chunks[i] */\n      dup2\n      mload\n      dup2\n      lt\n      tag_206\n      jumpi\n      tag_207\n      tag_125\n      jump\t// in\n    tag_207:\n    tag_206:\n      0x20\n      mul\n      0x20\n      add\n      add\n      mload\n        /* \"contracts/_FileStorage.sol\":1820:1836  storeChunkInNode */\n      tag_87\n        /* \"contracts/_FileStorage.sol\":1820:1868  storeChunkInNode(selectedNodeAddress, chunks[i]) */\n      jump\t// in\n    tag_205:\n        /* \"contracts/_FileStorage.sol\":1954:2054  updateAvailableStorage(selectedNodeAddress, nodes[selectedNodeAddress].availableStorage - chunkSize) */\n      tag_208\n        /* \"contracts/_FileStorage.sol\":1977:1996  selectedNodeAddress */\n      dup2\n        /* \"contracts/_FileStorage.sol\":2044:2053  chunkSize */\n      dup6\n        /* \"contracts/_FileStorage.sol\":1998:2003  nodes */\n      0x00\n        /* \"contracts/_FileStorage.sol\":1998:2024  nodes[selectedNodeAddress] */\n      dup1\n        /* \"contracts/_FileStorage.sol\":2004:2023  selectedNodeAddress */\n      dup6\n        /* \"contracts/_FileStorage.sol\":1998:2024  nodes[selectedNodeAddress] */\n      0xffffffffffffffffffffffffffffffffffffffff\n      and\n      0xffffffffffffffffffffffffffffffffffffffff\n      and\n      dup2\n      mstore\n      0x20\n      add\n      swap1\n      dup2\n      mstore\n      0x20\n      add\n      0x00\n      keccak256\n        /* \"contracts/_FileStorage.sol\":1998:2041  nodes[selectedNodeAddress].availableStorage */\n      0x01\n      add\n      sload\n        /* \"contracts/_FileStorage.sol\":1998:2053  nodes[selectedNodeAddress].availableStorage - chunkSize */\n      tag_209\n      swap2\n      swap1\n      tag_101\n      jump\t// in\n    tag_209:\n        /* \"contracts/_FileStorage.sol\":1954:1976  updateAvailableStorage */\n      tag_84\n        /* \"contracts/_FileStorage.sol\":1954:2054  updateAvailableStorage(selectedNodeAddress, nodes[selectedNodeAddress].availableStorage - chunkSize) */\n      jump\t// in\n    tag_208:\n        /* \"contracts/_FileStorage.sol\":1496:2070  {... */\n      pop\n        /* \"contracts/_FileStorage.sol\":1447:2070  while (chunkDuplicationCounter < maxDuplication) {... */\n      jump(tag_196)\n    tag_197:\n        /* \"contracts/_FileStorage.sol\":1172:2094  {... */\n      pop\n      pop\n      pop\n        /* \"contracts/_FileStorage.sol\":1167:1170  i++ */\n      dup1\n      dup1\n      0x01\n      add\n      swap2\n      pop\n      pop\n        /* \"contracts/_FileStorage.sol\":1128:2094  for (uint256 i = 0; i < chunks.length; i++) {... */\n      jump(tag_190)\n    tag_191:\n      pop\n        /* \"contracts/_FileStorage.sol\":809:2101  {... */\n      pop\n      pop\n        /* \"contracts/_FileStorage.sol\":712:2101  function storeFile(string memory fileName, string memory content, string memory uniqueId) public {... */\n      pop\n      pop\n      pop\n      jump\t// out\n        /* \"contracts/_FileStorage.sol\":191:211  address public owner */\n    tag_68:\n      0x02\n      0x00\n      swap1\n      sload\n      swap1\n      0x0100\n      exp\n      swap1\n      div\n      0xffffffffffffffffffffffffffffffffffffffff\n      and\n      dup2\n      jump\t// out\n        /* \"contracts/_NodeManager.sol\":1264:1360  function getAllNodes() public view returns (address[] memory) {... */\n    tag_71:\n        /* \"contracts/_NodeManager.sol\":1308:1324  address[] memory */\n      0x60\n        /* \"contracts/_NodeManager.sol\":1344:1352  allNodes */\n      0x01\n        /* \"contracts/_NodeManager.sol\":1337:1352  return allNodes */\n      dup1\n      sload\n      dup1\n      0x20\n      mul\n      0x20\n      add\n      mload(0x40)\n      swap1\n      dup2\n      add\n      0x40\n      mstore\n      dup1\n      swap3\n      swap2\n      swap1\n      dup2\n      dup2\n      mstore\n      0x20\n      add\n      dup3\n      dup1\n      sload\n      dup1\n      iszero\n      tag_211\n      jumpi\n      0x20\n      mul\n      dup3\n      add\n      swap2\n      swap1\n      0x00\n      mstore\n      keccak256(0x00, 0x20)\n      swap1\n    tag_212:\n      dup2\n      0x00\n      swap1\n      sload\n      swap1\n      0x0100\n      exp\n      swap1\n      div\n      0xffffffffffffffffffffffffffffffffffffffff\n      and\n      0xffffffffffffffffffffffffffffffffffffffff\n      and\n      dup2\n      mstore\n      0x20\n      add\n      swap1\n      0x01\n      add\n      swap1\n      dup1\n      dup4\n      gt\n      tag_212\n      jumpi\n    tag_211:\n      pop\n      pop\n      pop\n      pop\n      pop\n      swap1\n      pop\n        /* \"contracts/_NodeManager.sol\":1264:1360  function getAllNodes() public view returns (address[] memory) {... */\n      swap1\n      jump\t// out\n        /* \"contracts/_NodeManager.sol\":1368:1495  function getNodeByAddress(address _nodeAddress) public view returns (Node memory) {... */\n    tag_76:\n        /* \"contracts/_NodeManager.sol\":1437:1448  Node memory */\n      tag_213\n      tag_214\n      jump\t// in\n    tag_213:\n        /* \"contracts/_NodeManager.sol\":1468:1473  nodes */\n      0x00\n        /* \"contracts/_NodeManager.sol\":1468:1487  nodes[_nodeAddress] */\n      dup1\n        /* \"contracts/_NodeManager.sol\":1474:1486  _nodeAddress */\n      dup4\n        /* \"contracts/_NodeManager.sol\":1468:1487  nodes[_nodeAddress] */\n      0xffffffffffffffffffffffffffffffffffffffff\n      and\n      0xffffffffffffffffffffffffffffffffffffffff\n      and\n      dup2\n      mstore\n      0x20\n      add\n      swap1\n      dup2\n      mstore\n      0x20\n      add\n      0x00\n      keccak256\n        /* \"contracts/_NodeManager.sol\":1461:1487  return nodes[_nodeAddress] */\n      mload(0x40)\n      dup1\n      0x40\n      add\n      0x40\n      mstore\n      swap1\n      dup2\n      0x00\n      dup3\n      add\n      0x00\n      swap1\n      sload\n      swap1\n      0x0100\n      exp\n      swap1\n      div\n      0xffffffffffffffffffffffffffffffffffffffff\n      and\n      0xffffffffffffffffffffffffffffffffffffffff\n      and\n      0xffffffffffffffffffffffffffffffffffffffff\n      and\n      dup2\n      mstore\n      0x20\n      add\n      0x01\n      dup3\n      add\n      sload\n      dup2\n      mstore\n      pop\n      pop\n      swap1\n      pop\n        /* \"contracts/_NodeManager.sol\":1368:1495  function getNodeByAddress(address _nodeAddress) public view returns (Node memory) {... */\n      swap2\n      swap1\n      pop\n      jump\t// out\n        /* \"contracts/_FileStorage.sol\":2828:3485  function deleteFile(string memory fileId) public {... */\n    tag_81:\n        /* \"contracts/_FileStorage.sol\":2932:2933  0 */\n      0x00\n        /* \"contracts/_FileStorage.sol\":2896:2912  fileIdToMetadata */\n      0x03\n        /* \"contracts/_FileStorage.sol\":2913:2919  fileId */\n      dup3\n        /* \"contracts/_FileStorage.sol\":2896:2920  fileIdToMetadata[fileId] */\n      mload(0x40)\n      tag_217\n      swap2\n      swap1\n      tag_133\n      jump\t// in\n    tag_217:\n      swap1\n      dup2\n      mstore\n      0x20\n      add\n      mload(0x40)\n      dup1\n      swap2\n      sub\n      swap1\n      keccak256\n        /* \"contracts/_FileStorage.sol\":2896:2929  fileIdToMetadata[fileId].fileSize */\n      0x01\n      add\n      sload\n        /* \"contracts/_FileStorage.sol\":2896:2933  fileIdToMetadata[fileId].fileSize > 0 */\n      gt\n        /* \"contracts/_FileStorage.sol\":2888:2952  require(fileIdToMetadata[fileId].fileSize > 0, \"File not found\") */\n      tag_218\n      jumpi\n      mload(0x40)\n      0x08c379a000000000000000000000000000000000000000000000000000000000\n      dup2\n      mstore\n      0x04\n      add\n      tag_219\n      swap1\n      tag_136\n      jump\t// in\n    tag_219:\n      mload(0x40)\n      dup1\n      swap2\n      sub\n      swap1\n      revert\n    tag_218:\n        /* \"contracts/_FileStorage.sol\":2985:2990  owner */\n      0x02\n      0x00\n      swap1\n      sload\n      swap1\n      0x0100\n      exp\n      swap1\n      div\n      0xffffffffffffffffffffffffffffffffffffffff\n      and\n        /* \"contracts/_FileStorage.sol\":2971:2990  msg.sender == owner */\n      0xffffffffffffffffffffffffffffffffffffffff\n      and\n        /* \"contracts/_FileStorage.sol\":2971:2981  msg.sender */\n      caller\n        /* \"contracts/_FileStorage.sol\":2971:2990  msg.sender == owner */\n      0xffffffffffffffffffffffffffffffffffffffff\n      and\n      eq\n        /* \"contracts/_FileStorage.sol\":2963:3007  require(msg.sender == owner, \"Unauthorized\") */\n      tag_220\n      jumpi\n      mload(0x40)\n      0x08c379a000000000000000000000000000000000000000000000000000000000\n      dup2\n      mstore\n      0x04\n      add\n      tag_221\n      swap1\n      tag_222\n      jump\t// in\n    tag_221:\n      mload(0x40)\n      dup1\n      swap2\n      sub\n      swap1\n      revert\n    tag_220:\n        /* \"contracts/_FileStorage.sol\":3020:3049  address[] memory storageNodes */\n      0x00\n        /* \"contracts/_FileStorage.sol\":3052:3074  fileIdToNodesAddresses */\n      0x04\n        /* \"contracts/_FileStorage.sol\":3075:3081  fileId */\n      dup3\n        /* \"contracts/_FileStorage.sol\":3052:3082  fileIdToNodesAddresses[fileId] */\n      mload(0x40)\n      tag_223\n      swap2\n      swap1\n      tag_133\n      jump\t// in\n    tag_223:\n      swap1\n      dup2\n      mstore\n      0x20\n      add\n      mload(0x40)\n      dup1\n      swap2\n      sub\n      swap1\n      keccak256\n        /* \"contracts/_FileStorage.sol\":3020:3082  address[] memory storageNodes = fileIdToNodesAddresses[fileId] */\n      dup1\n      sload\n      dup1\n      0x20\n      mul\n      0x20\n      add\n      mload(0x40)\n      swap1\n      dup2\n      add\n      0x40\n      mstore\n      dup1\n      swap3\n      swap2\n      swap1\n      dup2\n      dup2\n      mstore\n      0x20\n      add\n      dup3\n      dup1\n      sload\n      dup1\n      iszero\n      tag_224\n      jumpi\n      0x20\n      mul\n      dup3\n      add\n      swap2\n      swap1\n      0x00\n      mstore\n      keccak256(0x00, 0x20)\n      swap1\n    tag_225:\n      dup2\n      0x00\n      swap1\n      sload\n      swap1\n      0x0100\n      exp\n      swap1\n      div\n      0xffffffffffffffffffffffffffffffffffffffff\n      and\n      0xffffffffffffffffffffffffffffffffffffffff\n      and\n      dup2\n      mstore\n      0x20\n      add\n      swap1\n      0x01\n      add\n      swap1\n      dup1\n      dup4\n      gt\n      tag_225\n      jumpi\n    tag_224:\n      pop\n      pop\n      pop\n      pop\n      pop\n      swap1\n      pop\n        /* \"contracts/_FileStorage.sol\":3149:3158  uint256 i */\n      0x00\n        /* \"contracts/_FileStorage.sol\":3144:3327  for (uint256 i = 0; i < storageNodes.length; i++) {... */\n    tag_226:\n        /* \"contracts/_FileStorage.sol\":3168:3180  storageNodes */\n      dup2\n        /* \"contracts/_FileStorage.sol\":3168:3187  storageNodes.length */\n      mload\n        /* \"contracts/_FileStorage.sol\":3164:3165  i */\n      dup2\n        /* \"contracts/_FileStorage.sol\":3164:3187  i < storageNodes.length */\n      lt\n        /* \"contracts/_FileStorage.sol\":3144:3327  for (uint256 i = 0; i < storageNodes.length; i++) {... */\n      iszero\n      tag_227\n      jumpi\n        /* \"contracts/_FileStorage.sol\":3209:3236  address selectedNodeAddress */\n      0x00\n        /* \"contracts/_FileStorage.sol\":3239:3251  storageNodes */\n      dup3\n        /* \"contracts/_FileStorage.sol\":3252:3253  i */\n      dup3\n        /* \"contracts/_FileStorage.sol\":3239:3254  storageNodes[i] */\n      dup2\n      mload\n      dup2\n      lt\n      tag_229\n      jumpi\n      tag_230\n      tag_125\n      jump\t// in\n    tag_230:\n    tag_229:\n      0x20\n      mul\n      0x20\n      add\n      add\n      mload\n        /* \"contracts/_FileStorage.sol\":3209:3254  address selectedNodeAddress = storageNodes[i] */\n      swap1\n      pop\n        /* \"contracts/_FileStorage.sol\":3269:3315  deleteChunkInNode(selectedNodeAddress, fileId) */\n      tag_231\n        /* \"contracts/_FileStorage.sol\":3287:3306  selectedNodeAddress */\n      dup2\n        /* \"contracts/_FileStorage.sol\":3308:3314  fileId */\n      dup6\n        /* \"contracts/_FileStorage.sol\":3269:3286  deleteChunkInNode */\n      tag_50\n        /* \"contracts/_FileStorage.sol\":3269:3315  deleteChunkInNode(selectedNodeAddress, fileId) */\n      jump\t// in\n    tag_231:\n      pop\n        /* \"contracts/_FileStorage.sol\":3194:3327  {... */\n      pop\n        /* \"contracts/_FileStorage.sol\":3189:3192  i++ */\n      dup1\n      dup1\n      0x01\n      add\n      swap2\n      pop\n      pop\n        /* \"contracts/_FileStorage.sol\":3144:3327  for (uint256 i = 0; i < storageNodes.length; i++) {... */\n      jump(tag_226)\n    tag_227:\n      pop\n        /* \"contracts/_FileStorage.sol\":3405:3421  fileIdToMetadata */\n      0x03\n        /* \"contracts/_FileStorage.sol\":3422:3428  fileId */\n      dup3\n        /* \"contracts/_FileStorage.sol\":3405:3429  fileIdToMetadata[fileId] */\n      mload(0x40)\n      tag_232\n      swap2\n      swap1\n      tag_133\n      jump\t// in\n    tag_232:\n      swap1\n      dup2\n      mstore\n      0x20\n      add\n      mload(0x40)\n      dup1\n      swap2\n      sub\n      swap1\n      keccak256\n      0x00\n        /* \"contracts/_FileStorage.sol\":3398:3429  delete fileIdToMetadata[fileId] */\n      dup1\n      dup3\n      add\n      0x00\n      tag_233\n      swap2\n      swap1\n      tag_234\n      jump\t// in\n    tag_233:\n      0x01\n      dup3\n      add\n      0x00\n      swap1\n      sstore\n      pop\n      pop\n        /* \"contracts/_FileStorage.sol\":3447:3469  fileIdToNodesAddresses */\n      0x04\n        /* \"contracts/_FileStorage.sol\":3470:3476  fileId */\n      dup3\n        /* \"contracts/_FileStorage.sol\":3447:3477  fileIdToNodesAddresses[fileId] */\n      mload(0x40)\n      tag_235\n      swap2\n      swap1\n      tag_133\n      jump\t// in\n    tag_235:\n      swap1\n      dup2\n      mstore\n      0x20\n      add\n      mload(0x40)\n      dup1\n      swap2\n      sub\n      swap1\n      keccak256\n      0x00\n        /* \"contracts/_FileStorage.sol\":3440:3477  delete fileIdToNodesAddresses[fileId] */\n      tag_236\n      swap2\n      swap1\n      tag_237\n      jump\t// in\n    tag_236:\n        /* \"contracts/_FileStorage.sol\":2877:3485  {... */\n      pop\n        /* \"contracts/_FileStorage.sol\":2828:3485  function deleteFile(string memory fileId) public {... */\n      pop\n      jump\t// out\n        /* \"contracts/_NodeManager.sol\":544:783  function updateAvailableStorage(address _nodeAddress, uint256 _newStorage) public {... */\n    tag_84:\n        /* \"contracts/_NodeManager.sol\":688:689  0 */\n      0x00\n        /* \"contracts/_NodeManager.sol\":645:690  nodes[_nodeAddress].nodeAddress != address(0) */\n      0xffffffffffffffffffffffffffffffffffffffff\n      and\n        /* \"contracts/_NodeManager.sol\":645:650  nodes */\n      0x00\n        /* \"contracts/_NodeManager.sol\":645:664  nodes[_nodeAddress] */\n      dup1\n        /* \"contracts/_NodeManager.sol\":651:663  _nodeAddress */\n      dup5\n        /* \"contracts/_NodeManager.sol\":645:664  nodes[_nodeAddress] */\n      0xffffffffffffffffffffffffffffffffffffffff\n      and\n      0xffffffffffffffffffffffffffffffffffffffff\n      and\n      dup2\n      mstore\n      0x20\n      add\n      swap1\n      dup2\n      mstore\n      0x20\n      add\n      0x00\n      keccak256\n        /* \"contracts/_NodeManager.sol\":645:676  nodes[_nodeAddress].nodeAddress */\n      0x00\n      add\n      0x00\n      swap1\n      sload\n      swap1\n      0x0100\n      exp\n      swap1\n      div\n      0xffffffffffffffffffffffffffffffffffffffff\n      and\n        /* \"contracts/_NodeManager.sol\":645:690  nodes[_nodeAddress].nodeAddress != address(0) */\n      0xffffffffffffffffffffffffffffffffffffffff\n      and\n      sub\n        /* \"contracts/_NodeManager.sol\":637:714  require(nodes[_nodeAddress].nodeAddress != address(0), \"Node does not exist\") */\n      tag_239\n      jumpi\n      mload(0x40)\n      0x08c379a000000000000000000000000000000000000000000000000000000000\n      dup2\n      mstore\n      0x04\n      add\n      tag_240\n      swap1\n      tag_241\n      jump\t// in\n    tag_240:\n      mload(0x40)\n      dup1\n      swap2\n      sub\n      swap1\n      revert\n    tag_239:\n        /* \"contracts/_NodeManager.sol\":764:775  _newStorage */\n      dup1\n        /* \"contracts/_NodeManager.sol\":725:730  nodes */\n      0x00\n        /* \"contracts/_NodeManager.sol\":725:744  nodes[_nodeAddress] */\n      dup1\n        /* \"contracts/_NodeManager.sol\":731:743  _nodeAddress */\n      dup5\n        /* \"contracts/_NodeManager.sol\":725:744  nodes[_nodeAddress] */\n      0xffffffffffffffffffffffffffffffffffffffff\n      and\n      0xffffffffffffffffffffffffffffffffffffffff\n      and\n      dup2\n      mstore\n      0x20\n      add\n      swap1\n      dup2\n      mstore\n      0x20\n      add\n      0x00\n      keccak256\n        /* \"contracts/_NodeManager.sol\":725:761  nodes[_nodeAddress].availableStorage */\n      0x01\n      add\n        /* \"contracts/_NodeManager.sol\":725:775  nodes[_nodeAddress].availableStorage = _newStorage */\n      dup2\n      swap1\n      sstore\n      pop\n        /* \"contracts/_NodeManager.sol\":544:783  function updateAvailableStorage(address _nodeAddress, uint256 _newStorage) public {... */\n      pop\n      pop\n      jump\t// out\n        /* \"contracts/_NodeManager.sol\":791:918  function storeChunkInNode(address _nodeAddress, string memory _chunk) public {... */\n    tag_87:\n      pop\n      pop\n      jump\t// out\n        /* \"contracts/_NodeManager.sol\":229:254  address[] public allNodes */\n    tag_90:\n      0x01\n      dup2\n      dup2\n      sload\n      dup2\n      lt\n      tag_243\n      jumpi\n      0x00\n      dup1\n      revert\n    tag_243:\n      swap1\n      0x00\n      mstore\n      keccak256(0x00, 0x20)\n      add\n      0x00\n      swap2\n      pop\n      sload\n      swap1\n      0x0100\n      exp\n      swap1\n      div\n      0xffffffffffffffffffffffffffffffffffffffff\n      and\n      dup2\n      jump\t// out\n    tag_214:\n      mload(0x40)\n      dup1\n      0x40\n      add\n      0x40\n      mstore\n      dup1\n      and(0xffffffffffffffffffffffffffffffffffffffff, 0x00)\n      dup2\n      mstore\n      0x20\n      add\n      0x00\n      dup2\n      mstore\n      pop\n      swap1\n      jump\t// out\n    tag_234:\n      pop\n      dup1\n      sload\n      tag_245\n      swap1\n      tag_246\n      jump\t// in\n    tag_245:\n      0x00\n      dup3\n      sstore\n      dup1\n      0x1f\n      lt\n      tag_248\n      jumpi\n      pop\n      jump(tag_247)\n    tag_248:\n      0x1f\n      add\n      0x20\n      swap1\n      div\n      swap1\n      0x00\n      mstore\n      keccak256(0x00, 0x20)\n      swap1\n      dup2\n      add\n      swap1\n      tag_249\n      swap2\n      swap1\n      tag_250\n      jump\t// in\n    tag_249:\n    tag_247:\n      pop\n      jump\t// out\n    tag_237:\n      pop\n      dup1\n      sload\n      0x00\n      dup3\n      sstore\n      swap1\n      0x00\n      mstore\n      keccak256(0x00, 0x20)\n      swap1\n      dup2\n      add\n      swap1\n      tag_252\n      swap2\n      swap1\n      tag_250\n      jump\t// in\n    tag_252:\n      pop\n      jump\t// out\n    tag_250:\n    tag_253:\n      dup1\n      dup3\n      gt\n      iszero\n      tag_254\n      jumpi\n      0x00\n      dup2\n      0x00\n      swap1\n      sstore\n      pop\n      0x01\n      add\n      jump(tag_253)\n    tag_254:\n      pop\n      swap1\n      jump\t// out\n        /* \"#utility.yul\":7:82   */\n    tag_255:\n        /* \"#utility.yul\":40:46   */\n      0x00\n        /* \"#utility.yul\":73:75   */\n      0x40\n        /* \"#utility.yul\":67:76   */\n      mload\n        /* \"#utility.yul\":57:76   */\n      swap1\n      pop\n        /* \"#utility.yul\":7:82   */\n      swap1\n      jump\t// out\n        /* \"#utility.yul\":88:205   */\n    tag_256:\n        /* \"#utility.yul\":197:198   */\n      0x00\n        /* \"#utility.yul\":194:195   */\n      dup1\n        /* \"#utility.yul\":187:199   */\n      revert\n        /* \"#utility.yul\":211:328   */\n    tag_257:\n        /* \"#utility.yul\":320:321   */\n      0x00\n        /* \"#utility.yul\":317:318   */\n      dup1\n        /* \"#utility.yul\":310:322   */\n      revert\n        /* \"#utility.yul\":334:460   */\n    tag_258:\n        /* \"#utility.yul\":371:378   */\n      0x00\n        /* \"#utility.yul\":411:453   */\n      0xffffffffffffffffffffffffffffffffffffffff\n        /* \"#utility.yul\":404:409   */\n      dup3\n        /* \"#utility.yul\":400:454   */\n      and\n        /* \"#utility.yul\":389:454   */\n      swap1\n      pop\n        /* \"#utility.yul\":334:460   */\n      swap2\n      swap1\n      pop\n      jump\t// out\n        /* \"#utility.yul\":466:562   */\n    tag_259:\n        /* \"#utility.yul\":503:510   */\n      0x00\n        /* \"#utility.yul\":532:556   */\n      tag_337\n        /* \"#utility.yul\":550:555   */\n      dup3\n        /* \"#utility.yul\":532:556   */\n      tag_258\n      jump\t// in\n    tag_337:\n        /* \"#utility.yul\":521:556   */\n      swap1\n      pop\n        /* \"#utility.yul\":466:562   */\n      swap2\n      swap1\n      pop\n      jump\t// out\n        /* \"#utility.yul\":568:690   */\n    tag_260:\n        /* \"#utility.yul\":641:665   */\n      tag_339\n        /* \"#utility.yul\":659:664   */\n      dup2\n        /* \"#utility.yul\":641:665   */\n      tag_259\n      jump\t// in\n    tag_339:\n        /* \"#utility.yul\":634:639   */\n      dup2\n        /* \"#utility.yul\":631:666   */\n      eq\n        /* \"#utility.yul\":621:684   */\n      tag_340\n      jumpi\n        /* \"#utility.yul\":680:681   */\n      0x00\n        /* \"#utility.yul\":677:678   */\n      dup1\n        /* \"#utility.yul\":670:682   */\n      revert\n        /* \"#utility.yul\":621:684   */\n    tag_340:\n        /* \"#utility.yul\":568:690   */\n      pop\n      jump\t// out\n        /* \"#utility.yul\":696:835   */\n    tag_261:\n        /* \"#utility.yul\":742:747   */\n      0x00\n        /* \"#utility.yul\":780:786   */\n      dup2\n        /* \"#utility.yul\":767:787   */\n      calldataload\n        /* \"#utility.yul\":758:787   */\n      swap1\n      pop\n        /* \"#utility.yul\":796:829   */\n      tag_342\n        /* \"#utility.yul\":823:828   */\n      dup2\n        /* \"#utility.yul\":796:829   */\n      tag_260\n      jump\t// in\n    tag_342:\n        /* \"#utility.yul\":696:835   */\n      swap3\n      swap2\n      pop\n      pop\n      jump\t// out\n        /* \"#utility.yul\":841:918   */\n    tag_262:\n        /* \"#utility.yul\":878:885   */\n      0x00\n        /* \"#utility.yul\":907:912   */\n      dup2\n        /* \"#utility.yul\":896:912   */\n      swap1\n      pop\n        /* \"#utility.yul\":841:918   */\n      swap2\n      swap1\n      pop\n      jump\t// out\n        /* \"#utility.yul\":924:1046   */\n    tag_263:\n        /* \"#utility.yul\":997:1021   */\n      tag_345\n        /* \"#utility.yul\":1015:1020   */\n      dup2\n        /* \"#utility.yul\":997:1021   */\n      tag_262\n      jump\t// in\n    tag_345:\n        /* \"#utility.yul\":990:995   */\n      dup2\n        /* \"#utility.yul\":987:1022   */\n      eq\n        /* \"#utility.yul\":977:1040   */\n      tag_346\n      jumpi\n        /* \"#utility.yul\":1036:1037   */\n      0x00\n        /* \"#utility.yul\":1033:1034   */\n      dup1\n        /* \"#utility.yul\":1026:1038   */\n      revert\n        /* \"#utility.yul\":977:1040   */\n    tag_346:\n        /* \"#utility.yul\":924:1046   */\n      pop\n      jump\t// out\n        /* \"#utility.yul\":1052:1191   */\n    tag_264:\n        /* \"#utility.yul\":1098:1103   */\n      0x00\n        /* \"#utility.yul\":1136:1142   */\n      dup2\n        /* \"#utility.yul\":1123:1143   */\n      calldataload\n        /* \"#utility.yul\":1114:1143   */\n      swap1\n      pop\n        /* \"#utility.yul\":1152:1185   */\n      tag_348\n        /* \"#utility.yul\":1179:1184   */\n      dup2\n        /* \"#utility.yul\":1152:1185   */\n      tag_263\n      jump\t// in\n    tag_348:\n        /* \"#utility.yul\":1052:1191   */\n      swap3\n      swap2\n      pop\n      pop\n      jump\t// out\n        /* \"#utility.yul\":1197:1671   */\n    tag_24:\n        /* \"#utility.yul\":1265:1271   */\n      0x00\n        /* \"#utility.yul\":1273:1279   */\n      dup1\n        /* \"#utility.yul\":1322:1324   */\n      0x40\n        /* \"#utility.yul\":1310:1319   */\n      dup4\n        /* \"#utility.yul\":1301:1308   */\n      dup6\n        /* \"#utility.yul\":1297:1320   */\n      sub\n        /* \"#utility.yul\":1293:1325   */\n      slt\n        /* \"#utility.yul\":1290:1409   */\n      iszero\n      tag_350\n      jumpi\n        /* \"#utility.yul\":1328:1407   */\n      tag_351\n      tag_256\n      jump\t// in\n    tag_351:\n        /* \"#utility.yul\":1290:1409   */\n    tag_350:\n        /* \"#utility.yul\":1448:1449   */\n      0x00\n        /* \"#utility.yul\":1473:1526   */\n      tag_352\n        /* \"#utility.yul\":1518:1525   */\n      dup6\n        /* \"#utility.yul\":1509:1515   */\n      dup3\n        /* \"#utility.yul\":1498:1507   */\n      dup7\n        /* \"#utility.yul\":1494:1516   */\n      add\n        /* \"#utility.yul\":1473:1526   */\n      tag_261\n      jump\t// in\n    tag_352:\n        /* \"#utility.yul\":1463:1526   */\n      swap3\n      pop\n        /* \"#utility.yul\":1419:1536   */\n      pop\n        /* \"#utility.yul\":1575:1577   */\n      0x20\n        /* \"#utility.yul\":1601:1654   */\n      tag_353\n        /* \"#utility.yul\":1646:1653   */\n      dup6\n        /* \"#utility.yul\":1637:1643   */\n      dup3\n        /* \"#utility.yul\":1626:1635   */\n      dup7\n        /* \"#utility.yul\":1622:1644   */\n      add\n        /* \"#utility.yul\":1601:1654   */\n      tag_264\n      jump\t// in\n    tag_353:\n        /* \"#utility.yul\":1591:1654   */\n      swap2\n      pop\n        /* \"#utility.yul\":1546:1664   */\n      pop\n        /* \"#utility.yul\":1197:1671   */\n      swap3\n      pop\n      swap3\n      swap1\n      pop\n      jump\t// out\n        /* \"#utility.yul\":1677:2006   */\n    tag_28:\n        /* \"#utility.yul\":1736:1742   */\n      0x00\n        /* \"#utility.yul\":1785:1787   */\n      0x20\n        /* \"#utility.yul\":1773:1782   */\n      dup3\n        /* \"#utility.yul\":1764:1771   */\n      dup5\n        /* \"#utility.yul\":1760:1783   */\n      sub\n        /* \"#utility.yul\":1756:1788   */\n      slt\n        /* \"#utility.yul\":1753:1872   */\n      iszero\n      tag_355\n      jumpi\n        /* \"#utility.yul\":1791:1870   */\n      tag_356\n      tag_256\n      jump\t// in\n    tag_356:\n        /* \"#utility.yul\":1753:1872   */\n    tag_355:\n        /* \"#utility.yul\":1911:1912   */\n      0x00\n        /* \"#utility.yul\":1936:1989   */\n      tag_357\n        /* \"#utility.yul\":1981:1988   */\n      dup5\n        /* \"#utility.yul\":1972:1978   */\n      dup3\n        /* \"#utility.yul\":1961:1970   */\n      dup6\n        /* \"#utility.yul\":1957:1979   */\n      add\n        /* \"#utility.yul\":1936:1989   */\n      tag_261\n      jump\t// in\n    tag_357:\n        /* \"#utility.yul\":1926:1989   */\n      swap2\n      pop\n        /* \"#utility.yul\":1882:1999   */\n      pop\n        /* \"#utility.yul\":1677:2006   */\n      swap3\n      swap2\n      pop\n      pop\n      jump\t// out\n        /* \"#utility.yul\":2012:2130   */\n    tag_265:\n        /* \"#utility.yul\":2099:2123   */\n      tag_359\n        /* \"#utility.yul\":2117:2122   */\n      dup2\n        /* \"#utility.yul\":2099:2123   */\n      tag_259\n      jump\t// in\n    tag_359:\n        /* \"#utility.yul\":2094:2097   */\n      dup3\n        /* \"#utility.yul\":2087:2124   */\n      mstore\n        /* \"#utility.yul\":2012:2130   */\n      pop\n      pop\n      jump\t// out\n        /* \"#utility.yul\":2136:2254   */\n    tag_266:\n        /* \"#utility.yul\":2223:2247   */\n      tag_361\n        /* \"#utility.yul\":2241:2246   */\n      dup2\n        /* \"#utility.yul\":2223:2247   */\n      tag_262\n      jump\t// in\n    tag_361:\n        /* \"#utility.yul\":2218:2221   */\n      dup3\n        /* \"#utility.yul\":2211:2248   */\n      mstore\n        /* \"#utility.yul\":2136:2254   */\n      pop\n      pop\n      jump\t// out\n        /* \"#utility.yul\":2260:2592   */\n    tag_31:\n        /* \"#utility.yul\":2381:2385   */\n      0x00\n        /* \"#utility.yul\":2419:2421   */\n      0x40\n        /* \"#utility.yul\":2408:2417   */\n      dup3\n        /* \"#utility.yul\":2404:2422   */\n      add\n        /* \"#utility.yul\":2396:2422   */\n      swap1\n      pop\n        /* \"#utility.yul\":2432:2503   */\n      tag_363\n        /* \"#utility.yul\":2500:2501   */\n      0x00\n        /* \"#utility.yul\":2489:2498   */\n      dup4\n        /* \"#utility.yul\":2485:2502   */\n      add\n        /* \"#utility.yul\":2476:2482   */\n      dup6\n        /* \"#utility.yul\":2432:2503   */\n      tag_265\n      jump\t// in\n    tag_363:\n        /* \"#utility.yul\":2513:2585   */\n      tag_364\n        /* \"#utility.yul\":2581:2583   */\n      0x20\n        /* \"#utility.yul\":2570:2579   */\n      dup4\n        /* \"#utility.yul\":2566:2584   */\n      add\n        /* \"#utility.yul\":2557:2563   */\n      dup5\n        /* \"#utility.yul\":2513:2585   */\n      tag_266\n      jump\t// in\n    tag_364:\n        /* \"#utility.yul\":2260:2592   */\n      swap4\n      swap3\n      pop\n      pop\n      pop\n      jump\t// out\n        /* \"#utility.yul\":2598:2715   */\n    tag_267:\n        /* \"#utility.yul\":2707:2708   */\n      0x00\n        /* \"#utility.yul\":2704:2705   */\n      dup1\n        /* \"#utility.yul\":2697:2709   */\n      revert\n        /* \"#utility.yul\":2721:2838   */\n    tag_268:\n        /* \"#utility.yul\":2830:2831   */\n      0x00\n        /* \"#utility.yul\":2827:2828   */\n      dup1\n        /* \"#utility.yul\":2820:2832   */\n      revert\n        /* \"#utility.yul\":2844:2946   */\n    tag_269:\n        /* \"#utility.yul\":2885:2891   */\n      0x00\n        /* \"#utility.yul\":2936:2938   */\n      0x1f\n        /* \"#utility.yul\":2932:2939   */\n      not\n        /* \"#utility.yul\":2927:2929   */\n      0x1f\n        /* \"#utility.yul\":2920:2925   */\n      dup4\n        /* \"#utility.yul\":2916:2930   */\n      add\n        /* \"#utility.yul\":2912:2940   */\n      and\n        /* \"#utility.yul\":2902:2940   */\n      swap1\n      pop\n        /* \"#utility.yul\":2844:2946   */\n      swap2\n      swap1\n      pop\n      jump\t// out\n        /* \"#utility.yul\":2952:3132   */\n    tag_106:\n        /* \"#utility.yul\":3000:3077   */\n      0x4e487b7100000000000000000000000000000000000000000000000000000000\n        /* \"#utility.yul\":2997:2998   */\n      0x00\n        /* \"#utility.yul\":2990:3078   */\n      mstore\n        /* \"#utility.yul\":3097:3101   */\n      0x41\n        /* \"#utility.yul\":3094:3095   */\n      0x04\n        /* \"#utility.yul\":3087:3102   */\n      mstore\n        /* \"#utility.yul\":3121:3125   */\n      0x24\n        /* \"#utility.yul\":3118:3119   */\n      0x00\n        /* \"#utility.yul\":3111:3126   */\n      revert\n        /* \"#utility.yul\":3138:3419   */\n    tag_270:\n        /* \"#utility.yul\":3221:3248   */\n      tag_370\n        /* \"#utility.yul\":3243:3247   */\n      dup3\n        /* \"#utility.yul\":3221:3248   */\n      tag_269\n      jump\t// in\n    tag_370:\n        /* \"#utility.yul\":3213:3219   */\n      dup2\n        /* \"#utility.yul\":3209:3249   */\n      add\n        /* \"#utility.yul\":3351:3357   */\n      dup2\n        /* \"#utility.yul\":3339:3349   */\n      dup2\n        /* \"#utility.yul\":3336:3358   */\n      lt\n        /* \"#utility.yul\":3315:3333   */\n      0xffffffffffffffff\n        /* \"#utility.yul\":3303:3313   */\n      dup3\n        /* \"#utility.yul\":3300:3334   */\n      gt\n        /* \"#utility.yul\":3297:3359   */\n      or\n        /* \"#utility.yul\":3294:3382   */\n      iszero\n      tag_371\n      jumpi\n        /* \"#utility.yul\":3362:3380   */\n      tag_372\n      tag_106\n      jump\t// in\n    tag_372:\n        /* \"#utility.yul\":3294:3382   */\n    tag_371:\n        /* \"#utility.yul\":3402:3412   */\n      dup1\n        /* \"#utility.yul\":3398:3400   */\n      0x40\n        /* \"#utility.yul\":3391:3413   */\n      mstore\n        /* \"#utility.yul\":3181:3419   */\n      pop\n        /* \"#utility.yul\":3138:3419   */\n      pop\n      pop\n      jump\t// out\n        /* \"#utility.yul\":3425:3554   */\n    tag_271:\n        /* \"#utility.yul\":3459:3465   */\n      0x00\n        /* \"#utility.yul\":3486:3506   */\n      tag_374\n      tag_255\n      jump\t// in\n    tag_374:\n        /* \"#utility.yul\":3476:3506   */\n      swap1\n      pop\n        /* \"#utility.yul\":3515:3548   */\n      tag_375\n        /* \"#utility.yul\":3543:3547   */\n      dup3\n        /* \"#utility.yul\":3535:3541   */\n      dup3\n        /* \"#utility.yul\":3515:3548   */\n      tag_270\n      jump\t// in\n    tag_375:\n        /* \"#utility.yul\":3425:3554   */\n      swap2\n      swap1\n      pop\n      jump\t// out\n        /* \"#utility.yul\":3560:3868   */\n    tag_272:\n        /* \"#utility.yul\":3622:3626   */\n      0x00\n        /* \"#utility.yul\":3712:3730   */\n      0xffffffffffffffff\n        /* \"#utility.yul\":3704:3710   */\n      dup3\n        /* \"#utility.yul\":3701:3731   */\n      gt\n        /* \"#utility.yul\":3698:3754   */\n      iszero\n      tag_377\n      jumpi\n        /* \"#utility.yul\":3734:3752   */\n      tag_378\n      tag_106\n      jump\t// in\n    tag_378:\n        /* \"#utility.yul\":3698:3754   */\n    tag_377:\n        /* \"#utility.yul\":3772:3801   */\n      tag_379\n        /* \"#utility.yul\":3794:3800   */\n      dup3\n        /* \"#utility.yul\":3772:3801   */\n      tag_269\n      jump\t// in\n    tag_379:\n        /* \"#utility.yul\":3764:3801   */\n      swap1\n      pop\n        /* \"#utility.yul\":3856:3860   */\n      0x20\n        /* \"#utility.yul\":3850:3854   */\n      dup2\n        /* \"#utility.yul\":3846:3861   */\n      add\n        /* \"#utility.yul\":3838:3861   */\n      swap1\n      pop\n        /* \"#utility.yul\":3560:3868   */\n      swap2\n      swap1\n      pop\n      jump\t// out\n        /* \"#utility.yul\":3874:4020   */\n    tag_273:\n        /* \"#utility.yul\":3971:3977   */\n      dup3\n        /* \"#utility.yul\":3966:3969   */\n      dup2\n        /* \"#utility.yul\":3961:3964   */\n      dup4\n        /* \"#utility.yul\":3948:3978   */\n      calldatacopy\n        /* \"#utility.yul\":4012:4013   */\n      0x00\n        /* \"#utility.yul\":4003:4009   */\n      dup4\n        /* \"#utility.yul\":3998:4001   */\n      dup4\n        /* \"#utility.yul\":3994:4010   */\n      add\n        /* \"#utility.yul\":3987:4014   */\n      mstore\n        /* \"#utility.yul\":3874:4020   */\n      pop\n      pop\n      pop\n      jump\t// out\n        /* \"#utility.yul\":4026:4451   */\n    tag_274:\n        /* \"#utility.yul\":4104:4109   */\n      0x00\n        /* \"#utility.yul\":4129:4195   */\n      tag_382\n        /* \"#utility.yul\":4145:4194   */\n      tag_383\n        /* \"#utility.yul\":4187:4193   */\n      dup5\n        /* \"#utility.yul\":4145:4194   */\n      tag_272\n      jump\t// in\n    tag_383:\n        /* \"#utility.yul\":4129:4195   */\n      tag_271\n      jump\t// in\n    tag_382:\n        /* \"#utility.yul\":4120:4195   */\n      swap1\n      pop\n        /* \"#utility.yul\":4218:4224   */\n      dup3\n        /* \"#utility.yul\":4211:4216   */\n      dup2\n        /* \"#utility.yul\":4204:4225   */\n      mstore\n        /* \"#utility.yul\":4256:4260   */\n      0x20\n        /* \"#utility.yul\":4249:4254   */\n      dup2\n        /* \"#utility.yul\":4245:4261   */\n      add\n        /* \"#utility.yul\":4294:4297   */\n      dup5\n        /* \"#utility.yul\":4285:4291   */\n      dup5\n        /* \"#utility.yul\":4280:4283   */\n      dup5\n        /* \"#utility.yul\":4276:4292   */\n      add\n        /* \"#utility.yul\":4273:4298   */\n      gt\n        /* \"#utility.yul\":4270:4382   */\n      iszero\n      tag_384\n      jumpi\n        /* \"#utility.yul\":4301:4380   */\n      tag_385\n      tag_268\n      jump\t// in\n    tag_385:\n        /* \"#utility.yul\":4270:4382   */\n    tag_384:\n        /* \"#utility.yul\":4391:4445   */\n      tag_386\n        /* \"#utility.yul\":4438:4444   */\n      dup5\n        /* \"#utility.yul\":4433:4436   */\n      dup3\n        /* \"#utility.yul\":4428:4431   */\n      dup6\n        /* \"#utility.yul\":4391:4445   */\n      tag_273\n      jump\t// in\n    tag_386:\n        /* \"#utility.yul\":4110:4451   */\n      pop\n        /* \"#utility.yul\":4026:4451   */\n      swap4\n      swap3\n      pop\n      pop\n      pop\n      jump\t// out\n        /* \"#utility.yul\":4471:4811   */\n    tag_275:\n        /* \"#utility.yul\":4527:4532   */\n      0x00\n        /* \"#utility.yul\":4576:4579   */\n      dup3\n        /* \"#utility.yul\":4569:4573   */\n      0x1f\n        /* \"#utility.yul\":4561:4567   */\n      dup4\n        /* \"#utility.yul\":4557:4574   */\n      add\n        /* \"#utility.yul\":4553:4580   */\n      slt\n        /* \"#utility.yul\":4543:4665   */\n      tag_388\n      jumpi\n        /* \"#utility.yul\":4584:4663   */\n      tag_389\n      tag_267\n      jump\t// in\n    tag_389:\n        /* \"#utility.yul\":4543:4665   */\n    tag_388:\n        /* \"#utility.yul\":4701:4707   */\n      dup2\n        /* \"#utility.yul\":4688:4708   */\n      calldataload\n        /* \"#utility.yul\":4726:4805   */\n      tag_390\n        /* \"#utility.yul\":4801:4804   */\n      dup5\n        /* \"#utility.yul\":4793:4799   */\n      dup3\n        /* \"#utility.yul\":4786:4790   */\n      0x20\n        /* \"#utility.yul\":4778:4784   */\n      dup7\n        /* \"#utility.yul\":4774:4791   */\n      add\n        /* \"#utility.yul\":4726:4805   */\n      tag_274\n      jump\t// in\n    tag_390:\n        /* \"#utility.yul\":4717:4805   */\n      swap2\n      pop\n        /* \"#utility.yul\":4533:4811   */\n      pop\n        /* \"#utility.yul\":4471:4811   */\n      swap3\n      swap2\n      pop\n      pop\n      jump\t// out\n        /* \"#utility.yul\":4817:5326   */\n    tag_34:\n        /* \"#utility.yul\":4886:4892   */\n      0x00\n        /* \"#utility.yul\":4935:4937   */\n      0x20\n        /* \"#utility.yul\":4923:4932   */\n      dup3\n        /* \"#utility.yul\":4914:4921   */\n      dup5\n        /* \"#utility.yul\":4910:4933   */\n      sub\n        /* \"#utility.yul\":4906:4938   */\n      slt\n        /* \"#utility.yul\":4903:5022   */\n      iszero\n      tag_392\n      jumpi\n        /* \"#utility.yul\":4941:5020   */\n      tag_393\n      tag_256\n      jump\t// in\n    tag_393:\n        /* \"#utility.yul\":4903:5022   */\n    tag_392:\n        /* \"#utility.yul\":5089:5090   */\n      0x00\n        /* \"#utility.yul\":5078:5087   */\n      dup3\n        /* \"#utility.yul\":5074:5091   */\n      add\n        /* \"#utility.yul\":5061:5092   */\n      calldataload\n        /* \"#utility.yul\":5119:5137   */\n      0xffffffffffffffff\n        /* \"#utility.yul\":5111:5117   */\n      dup2\n        /* \"#utility.yul\":5108:5138   */\n      gt\n        /* \"#utility.yul\":5105:5222   */\n      iszero\n      tag_394\n      jumpi\n        /* \"#utility.yul\":5141:5220   */\n      tag_395\n      tag_257\n      jump\t// in\n    tag_395:\n        /* \"#utility.yul\":5105:5222   */\n    tag_394:\n        /* \"#utility.yul\":5246:5309   */\n      tag_396\n        /* \"#utility.yul\":5301:5308   */\n      dup5\n        /* \"#utility.yul\":5292:5298   */\n      dup3\n        /* \"#utility.yul\":5281:5290   */\n      dup6\n        /* \"#utility.yul\":5277:5299   */\n      add\n        /* \"#utility.yul\":5246:5309   */\n      tag_275\n      jump\t// in\n    tag_396:\n        /* \"#utility.yul\":5236:5309   */\n      swap2\n      pop\n        /* \"#utility.yul\":5032:5319   */\n      pop\n        /* \"#utility.yul\":4817:5326   */\n      swap3\n      swap2\n      pop\n      pop\n      jump\t// out\n        /* \"#utility.yul\":5332:5456   */\n    tag_276:\n        /* \"#utility.yul\":5409:5415   */\n      0x00\n        /* \"#utility.yul\":5443:5448   */\n      dup2\n        /* \"#utility.yul\":5437:5449   */\n      mload\n        /* \"#utility.yul\":5427:5449   */\n      swap1\n      pop\n        /* \"#utility.yul\":5332:5456   */\n      swap2\n      swap1\n      pop\n      jump\t// out\n        /* \"#utility.yul\":5462:5656   */\n    tag_277:\n        /* \"#utility.yul\":5571:5582   */\n      0x00\n        /* \"#utility.yul\":5605:5611   */\n      dup3\n        /* \"#utility.yul\":5600:5603   */\n      dup3\n        /* \"#utility.yul\":5593:5612   */\n      mstore\n        /* \"#utility.yul\":5645:5649   */\n      0x20\n        /* \"#utility.yul\":5640:5643   */\n      dup3\n        /* \"#utility.yul\":5636:5650   */\n      add\n        /* \"#utility.yul\":5621:5650   */\n      swap1\n      pop\n        /* \"#utility.yul\":5462:5656   */\n      swap3\n      swap2\n      pop\n      pop\n      jump\t// out\n        /* \"#utility.yul\":5662:5804   */\n    tag_278:\n        /* \"#utility.yul\":5739:5743   */\n      0x00\n        /* \"#utility.yul\":5762:5765   */\n      dup2\n        /* \"#utility.yul\":5754:5765   */\n      swap1\n      pop\n        /* \"#utility.yul\":5792:5796   */\n      0x20\n        /* \"#utility.yul\":5787:5790   */\n      dup3\n        /* \"#utility.yul\":5783:5797   */\n      add\n        /* \"#utility.yul\":5775:5797   */\n      swap1\n      pop\n        /* \"#utility.yul\":5662:5804   */\n      swap2\n      swap1\n      pop\n      jump\t// out\n        /* \"#utility.yul\":5810:5909   */\n    tag_279:\n        /* \"#utility.yul\":5862:5868   */\n      0x00\n        /* \"#utility.yul\":5896:5901   */\n      dup2\n        /* \"#utility.yul\":5890:5902   */\n      mload\n        /* \"#utility.yul\":5880:5902   */\n      swap1\n      pop\n        /* \"#utility.yul\":5810:5909   */\n      swap2\n      swap1\n      pop\n      jump\t// out\n        /* \"#utility.yul\":5915:6074   */\n    tag_280:\n        /* \"#utility.yul\":5989:6000   */\n      0x00\n        /* \"#utility.yul\":6023:6029   */\n      dup3\n        /* \"#utility.yul\":6018:6021   */\n      dup3\n        /* \"#utility.yul\":6011:6030   */\n      mstore\n        /* \"#utility.yul\":6063:6067   */\n      0x20\n        /* \"#utility.yul\":6058:6061   */\n      dup3\n        /* \"#utility.yul\":6054:6068   */\n      add\n        /* \"#utility.yul\":6039:6068   */\n      swap1\n      pop\n        /* \"#utility.yul\":5915:6074   */\n      swap3\n      swap2\n      pop\n      pop\n      jump\t// out\n        /* \"#utility.yul\":6080:6326   */\n    tag_281:\n        /* \"#utility.yul\":6161:6162   */\n      0x00\n        /* \"#utility.yul\":6171:6284   */\n    tag_403:\n        /* \"#utility.yul\":6185:6191   */\n      dup4\n        /* \"#utility.yul\":6182:6183   */\n      dup2\n        /* \"#utility.yul\":6179:6192   */\n      lt\n        /* \"#utility.yul\":6171:6284   */\n      iszero\n      tag_405\n      jumpi\n        /* \"#utility.yul\":6270:6271   */\n      dup1\n        /* \"#utility.yul\":6265:6268   */\n      dup3\n        /* \"#utility.yul\":6261:6272   */\n      add\n        /* \"#utility.yul\":6255:6273   */\n      mload\n        /* \"#utility.yul\":6251:6252   */\n      dup2\n        /* \"#utility.yul\":6246:6249   */\n      dup5\n        /* \"#utility.yul\":6242:6253   */\n      add\n        /* \"#utility.yul\":6235:6274   */\n      mstore\n        /* \"#utility.yul\":6207:6209   */\n      0x20\n        /* \"#utility.yul\":6204:6205   */\n      dup2\n        /* \"#utility.yul\":6200:6210   */\n      add\n        /* \"#utility.yul\":6195:6210   */\n      swap1\n      pop\n        /* \"#utility.yul\":6171:6284   */\n      jump(tag_403)\n    tag_405:\n        /* \"#utility.yul\":6318:6319   */\n      0x00\n        /* \"#utility.yul\":6309:6315   */\n      dup5\n        /* \"#utility.yul\":6304:6307   */\n      dup5\n        /* \"#utility.yul\":6300:6316   */\n      add\n        /* \"#utility.yul\":6293:6320   */\n      mstore\n        /* \"#utility.yul\":6142:6326   */\n      pop\n        /* \"#utility.yul\":6080:6326   */\n      pop\n      pop\n      pop\n      jump\t// out\n        /* \"#utility.yul\":6332:6689   */\n    tag_282:\n        /* \"#utility.yul\":6410:6413   */\n      0x00\n        /* \"#utility.yul\":6438:6477   */\n      tag_407\n        /* \"#utility.yul\":6471:6476   */\n      dup3\n        /* \"#utility.yul\":6438:6477   */\n      tag_279\n      jump\t// in\n    tag_407:\n        /* \"#utility.yul\":6493:6554   */\n      tag_408\n        /* \"#utility.yul\":6547:6553   */\n      dup2\n        /* \"#utility.yul\":6542:6545   */\n      dup6\n        /* \"#utility.yul\":6493:6554   */\n      tag_280\n      jump\t// in\n    tag_408:\n        /* \"#utility.yul\":6486:6554   */\n      swap4\n      pop\n        /* \"#utility.yul\":6563:6628   */\n      tag_409\n        /* \"#utility.yul\":6621:6627   */\n      dup2\n        /* \"#utility.yul\":6616:6619   */\n      dup6\n        /* \"#utility.yul\":6609:6613   */\n      0x20\n        /* \"#utility.yul\":6602:6607   */\n      dup7\n        /* \"#utility.yul\":6598:6614   */\n      add\n        /* \"#utility.yul\":6563:6628   */\n      tag_281\n      jump\t// in\n    tag_409:\n        /* \"#utility.yul\":6653:6682   */\n      tag_410\n        /* \"#utility.yul\":6675:6681   */\n      dup2\n        /* \"#utility.yul\":6653:6682   */\n      tag_269\n      jump\t// in\n    tag_410:\n        /* \"#utility.yul\":6648:6651   */\n      dup5\n        /* \"#utility.yul\":6644:6683   */\n      add\n        /* \"#utility.yul\":6637:6683   */\n      swap2\n      pop\n        /* \"#utility.yul\":6414:6689   */\n      pop\n        /* \"#utility.yul\":6332:6689   */\n      swap3\n      swap2\n      pop\n      pop\n      jump\t// out\n        /* \"#utility.yul\":6695:6891   */\n    tag_283:\n        /* \"#utility.yul\":6784:6794   */\n      0x00\n        /* \"#utility.yul\":6819:6885   */\n      tag_412\n        /* \"#utility.yul\":6881:6884   */\n      dup4\n        /* \"#utility.yul\":6873:6879   */\n      dup4\n        /* \"#utility.yul\":6819:6885   */\n      tag_282\n      jump\t// in\n    tag_412:\n        /* \"#utility.yul\":6805:6885   */\n      swap1\n      pop\n        /* \"#utility.yul\":6695:6891   */\n      swap3\n      swap2\n      pop\n      pop\n      jump\t// out\n        /* \"#utility.yul\":6897:7020   */\n    tag_284:\n        /* \"#utility.yul\":6977:6981   */\n      0x00\n        /* \"#utility.yul\":7009:7013   */\n      0x20\n        /* \"#utility.yul\":7004:7007   */\n      dup3\n        /* \"#utility.yul\":7000:7014   */\n      add\n        /* \"#utility.yul\":6992:7014   */\n      swap1\n      pop\n        /* \"#utility.yul\":6897:7020   */\n      swap2\n      swap1\n      pop\n      jump\t// out\n        /* \"#utility.yul\":7054:8045   */\n    tag_285:\n        /* \"#utility.yul\":7193:7196   */\n      0x00\n        /* \"#utility.yul\":7222:7286   */\n      tag_415\n        /* \"#utility.yul\":7280:7285   */\n      dup3\n        /* \"#utility.yul\":7222:7286   */\n      tag_276\n      jump\t// in\n    tag_415:\n        /* \"#utility.yul\":7302:7398   */\n      tag_416\n        /* \"#utility.yul\":7391:7397   */\n      dup2\n        /* \"#utility.yul\":7386:7389   */\n      dup6\n        /* \"#utility.yul\":7302:7398   */\n      tag_277\n      jump\t// in\n    tag_416:\n        /* \"#utility.yul\":7295:7398   */\n      swap4\n      pop\n        /* \"#utility.yul\":7424:7427   */\n      dup4\n        /* \"#utility.yul\":7469:7473   */\n      0x20\n        /* \"#utility.yul\":7461:7467   */\n      dup3\n        /* \"#utility.yul\":7457:7474   */\n      mul\n        /* \"#utility.yul\":7452:7455   */\n      dup6\n        /* \"#utility.yul\":7448:7475   */\n      add\n        /* \"#utility.yul\":7499:7565   */\n      tag_417\n        /* \"#utility.yul\":7559:7564   */\n      dup6\n        /* \"#utility.yul\":7499:7565   */\n      tag_278\n      jump\t// in\n    tag_417:\n        /* \"#utility.yul\":7588:7595   */\n      dup1\n        /* \"#utility.yul\":7619:7620   */\n      0x00\n        /* \"#utility.yul\":7604:8000   */\n    tag_418:\n        /* \"#utility.yul\":7629:7635   */\n      dup6\n        /* \"#utility.yul\":7626:7627   */\n      dup2\n        /* \"#utility.yul\":7623:7636   */\n      lt\n        /* \"#utility.yul\":7604:8000   */\n      iszero\n      tag_420\n      jumpi\n        /* \"#utility.yul\":7700:7709   */\n      dup5\n        /* \"#utility.yul\":7694:7698   */\n      dup5\n        /* \"#utility.yul\":7690:7710   */\n      sub\n        /* \"#utility.yul\":7685:7688   */\n      dup10\n        /* \"#utility.yul\":7678:7711   */\n      mstore\n        /* \"#utility.yul\":7751:7757   */\n      dup2\n        /* \"#utility.yul\":7745:7758   */\n      mload\n        /* \"#utility.yul\":7779:7863   */\n      tag_421\n        /* \"#utility.yul\":7858:7862   */\n      dup6\n        /* \"#utility.yul\":7843:7856   */\n      dup3\n        /* \"#utility.yul\":7779:7863   */\n      tag_283\n      jump\t// in\n    tag_421:\n        /* \"#utility.yul\":7771:7863   */\n      swap5\n      pop\n        /* \"#utility.yul\":7886:7956   */\n      tag_422\n        /* \"#utility.yul\":7949:7955   */\n      dup4\n        /* \"#utility.yul\":7886:7956   */\n      tag_284\n      jump\t// in\n    tag_422:\n        /* \"#utility.yul\":7876:7956   */\n      swap3\n      pop\n        /* \"#utility.yul\":7985:7989   */\n      0x20\n        /* \"#utility.yul\":7980:7983   */\n      dup11\n        /* \"#utility.yul\":7976:7990   */\n      add\n        /* \"#utility.yul\":7969:7990   */\n      swap10\n      pop\n        /* \"#utility.yul\":7664:8000   */\n      pop\n        /* \"#utility.yul\":7651:7652   */\n      0x01\n        /* \"#utility.yul\":7648:7649   */\n      dup2\n        /* \"#utility.yul\":7644:7653   */\n      add\n        /* \"#utility.yul\":7639:7653   */\n      swap1\n      pop\n        /* \"#utility.yul\":7604:8000   */\n      jump(tag_418)\n    tag_420:\n        /* \"#utility.yul\":7608:7622   */\n      pop\n        /* \"#utility.yul\":8016:8020   */\n      dup3\n        /* \"#utility.yul\":8009:8020   */\n      swap8\n      pop\n        /* \"#utility.yul\":8036:8039   */\n      dup8\n        /* \"#utility.yul\":8029:8039   */\n      swap6\n      pop\n        /* \"#utility.yul\":7198:8045   */\n      pop\n      pop\n      pop\n      pop\n      pop\n        /* \"#utility.yul\":7054:8045   */\n      swap3\n      swap2\n      pop\n      pop\n      jump\t// out\n        /* \"#utility.yul\":8051:8464   */\n    tag_37:\n        /* \"#utility.yul\":8214:8218   */\n      0x00\n        /* \"#utility.yul\":8252:8254   */\n      0x20\n        /* \"#utility.yul\":8241:8250   */\n      dup3\n        /* \"#utility.yul\":8237:8255   */\n      add\n        /* \"#utility.yul\":8229:8255   */\n      swap1\n      pop\n        /* \"#utility.yul\":8301:8310   */\n      dup2\n        /* \"#utility.yul\":8295:8299   */\n      dup2\n        /* \"#utility.yul\":8291:8311   */\n      sub\n        /* \"#utility.yul\":8287:8288   */\n      0x00\n        /* \"#utility.yul\":8276:8285   */\n      dup4\n        /* \"#utility.yul\":8272:8289   */\n      add\n        /* \"#utility.yul\":8265:8312   */\n      mstore\n        /* \"#utility.yul\":8329:8457   */\n      tag_424\n        /* \"#utility.yul\":8452:8456   */\n      dup2\n        /* \"#utility.yul\":8443:8449   */\n      dup5\n        /* \"#utility.yul\":8329:8457   */\n      tag_285\n      jump\t// in\n    tag_424:\n        /* \"#utility.yul\":8321:8457   */\n      swap1\n      pop\n        /* \"#utility.yul\":8051:8464   */\n      swap3\n      swap2\n      pop\n      pop\n      jump\t// out\n        /* \"#utility.yul\":8470:8639   */\n    tag_286:\n        /* \"#utility.yul\":8554:8565   */\n      0x00\n        /* \"#utility.yul\":8588:8594   */\n      dup3\n        /* \"#utility.yul\":8583:8586   */\n      dup3\n        /* \"#utility.yul\":8576:8595   */\n      mstore\n        /* \"#utility.yul\":8628:8632   */\n      0x20\n        /* \"#utility.yul\":8623:8626   */\n      dup3\n        /* \"#utility.yul\":8619:8633   */\n      add\n        /* \"#utility.yul\":8604:8633   */\n      swap1\n      pop\n        /* \"#utility.yul\":8470:8639   */\n      swap3\n      swap2\n      pop\n      pop\n      jump\t// out\n        /* \"#utility.yul\":8645:9022   */\n    tag_287:\n        /* \"#utility.yul\":8733:8736   */\n      0x00\n        /* \"#utility.yul\":8761:8800   */\n      tag_427\n        /* \"#utility.yul\":8794:8799   */\n      dup3\n        /* \"#utility.yul\":8761:8800   */\n      tag_279\n      jump\t// in\n    tag_427:\n        /* \"#utility.yul\":8816:8887   */\n      tag_428\n        /* \"#utility.yul\":8880:8886   */\n      dup2\n        /* \"#utility.yul\":8875:8878   */\n      dup6\n        /* \"#utility.yul\":8816:8887   */\n      tag_286\n      jump\t// in\n    tag_428:\n        /* \"#utility.yul\":8809:8887   */\n      swap4\n      pop\n        /* \"#utility.yul\":8896:8961   */\n      tag_429\n        /* \"#utility.yul\":8954:8960   */\n      dup2\n        /* \"#utility.yul\":8949:8952   */\n      dup6\n        /* \"#utility.yul\":8942:8946   */\n      0x20\n        /* \"#utility.yul\":8935:8940   */\n      dup7\n        /* \"#utility.yul\":8931:8947   */\n      add\n        /* \"#utility.yul\":8896:8961   */\n      tag_281\n      jump\t// in\n    tag_429:\n        /* \"#utility.yul\":8986:9015   */\n      tag_430\n        /* \"#utility.yul\":9008:9014   */\n      dup2\n        /* \"#utility.yul\":8986:9015   */\n      tag_269\n      jump\t// in\n    tag_430:\n        /* \"#utility.yul\":8981:8984   */\n      dup5\n        /* \"#utility.yul\":8977:9016   */\n      add\n        /* \"#utility.yul\":8970:9016   */\n      swap2\n      pop\n        /* \"#utility.yul\":8737:9022   */\n      pop\n        /* \"#utility.yul\":8645:9022   */\n      swap3\n      swap2\n      pop\n      pop\n      jump\t// out\n        /* \"#utility.yul\":9028:9341   */\n    tag_42:\n        /* \"#utility.yul\":9141:9145   */\n      0x00\n        /* \"#utility.yul\":9179:9181   */\n      0x20\n        /* \"#utility.yul\":9168:9177   */\n      dup3\n        /* \"#utility.yul\":9164:9182   */\n      add\n        /* \"#utility.yul\":9156:9182   */\n      swap1\n      pop\n        /* \"#utility.yul\":9228:9237   */\n      dup2\n        /* \"#utility.yul\":9222:9226   */\n      dup2\n        /* \"#utility.yul\":9218:9238   */\n      sub\n        /* \"#utility.yul\":9214:9215   */\n      0x00\n        /* \"#utility.yul\":9203:9212   */\n      dup4\n        /* \"#utility.yul\":9199:9216   */\n      add\n        /* \"#utility.yul\":9192:9239   */\n      mstore\n        /* \"#utility.yul\":9256:9334   */\n      tag_432\n        /* \"#utility.yul\":9329:9333   */\n      dup2\n        /* \"#utility.yul\":9320:9326   */\n      dup5\n        /* \"#utility.yul\":9256:9334   */\n      tag_287\n      jump\t// in\n    tag_432:\n        /* \"#utility.yul\":9248:9334   */\n      swap1\n      pop\n        /* \"#utility.yul\":9028:9341   */\n      swap3\n      swap2\n      pop\n      pop\n      jump\t// out\n        /* \"#utility.yul\":9347:10001   */\n    tag_45:\n        /* \"#utility.yul\":9425:9431   */\n      0x00\n        /* \"#utility.yul\":9433:9439   */\n      dup1\n        /* \"#utility.yul\":9482:9484   */\n      0x40\n        /* \"#utility.yul\":9470:9479   */\n      dup4\n        /* \"#utility.yul\":9461:9468   */\n      dup6\n        /* \"#utility.yul\":9457:9480   */\n      sub\n        /* \"#utility.yul\":9453:9485   */\n      slt\n        /* \"#utility.yul\":9450:9569   */\n      iszero\n      tag_434\n      jumpi\n        /* \"#utility.yul\":9488:9567   */\n      tag_435\n      tag_256\n      jump\t// in\n    tag_435:\n        /* \"#utility.yul\":9450:9569   */\n    tag_434:\n        /* \"#utility.yul\":9608:9609   */\n      0x00\n        /* \"#utility.yul\":9633:9686   */\n      tag_436\n        /* \"#utility.yul\":9678:9685   */\n      dup6\n        /* \"#utility.yul\":9669:9675   */\n      dup3\n        /* \"#utility.yul\":9658:9667   */\n      dup7\n        /* \"#utility.yul\":9654:9676   */\n      add\n        /* \"#utility.yul\":9633:9686   */\n      tag_261\n      jump\t// in\n    tag_436:\n        /* \"#utility.yul\":9623:9686   */\n      swap3\n      pop\n        /* \"#utility.yul\":9579:9696   */\n      pop\n        /* \"#utility.yul\":9763:9765   */\n      0x20\n        /* \"#utility.yul\":9752:9761   */\n      dup4\n        /* \"#utility.yul\":9748:9766   */\n      add\n        /* \"#utility.yul\":9735:9767   */\n      calldataload\n        /* \"#utility.yul\":9794:9812   */\n      0xffffffffffffffff\n        /* \"#utility.yul\":9786:9792   */\n      dup2\n        /* \"#utility.yul\":9783:9813   */\n      gt\n        /* \"#utility.yul\":9780:9897   */\n      iszero\n      tag_437\n      jumpi\n        /* \"#utility.yul\":9816:9895   */\n      tag_438\n      tag_257\n      jump\t// in\n    tag_438:\n        /* \"#utility.yul\":9780:9897   */\n    tag_437:\n        /* \"#utility.yul\":9921:9984   */\n      tag_439\n        /* \"#utility.yul\":9976:9983   */\n      dup6\n        /* \"#utility.yul\":9967:9973   */\n      dup3\n        /* \"#utility.yul\":9956:9965   */\n      dup7\n        /* \"#utility.yul\":9952:9974   */\n      add\n        /* \"#utility.yul\":9921:9984   */\n      tag_275\n      jump\t// in\n    tag_439:\n        /* \"#utility.yul\":9911:9984   */\n      swap2\n      pop\n        /* \"#utility.yul\":9706:9994   */\n      pop\n        /* \"#utility.yul\":9347:10001   */\n      swap3\n      pop\n      swap3\n      swap1\n      pop\n      jump\t// out\n        /* \"#utility.yul\":10007:10328   */\n    tag_288:\n        /* \"#utility.yul\":10094:10098   */\n      0x00\n        /* \"#utility.yul\":10184:10202   */\n      0xffffffffffffffff\n        /* \"#utility.yul\":10176:10182   */\n      dup3\n        /* \"#utility.yul\":10173:10203   */\n      gt\n        /* \"#utility.yul\":10170:10226   */\n      iszero\n      tag_441\n      jumpi\n        /* \"#utility.yul\":10206:10224   */\n      tag_442\n      tag_106\n      jump\t// in\n    tag_442:\n        /* \"#utility.yul\":10170:10226   */\n    tag_441:\n        /* \"#utility.yul\":10256:10260   */\n      0x20\n        /* \"#utility.yul\":10248:10254   */\n      dup3\n        /* \"#utility.yul\":10244:10261   */\n      mul\n        /* \"#utility.yul\":10236:10261   */\n      swap1\n      pop\n        /* \"#utility.yul\":10316:10320   */\n      0x20\n        /* \"#utility.yul\":10310:10314   */\n      dup2\n        /* \"#utility.yul\":10306:10321   */\n      add\n        /* \"#utility.yul\":10298:10321   */\n      swap1\n      pop\n        /* \"#utility.yul\":10007:10328   */\n      swap2\n      swap1\n      pop\n      jump\t// out\n        /* \"#utility.yul\":10334:10451   */\n    tag_289:\n        /* \"#utility.yul\":10443:10444   */\n      0x00\n        /* \"#utility.yul\":10440:10441   */\n      dup1\n        /* \"#utility.yul\":10433:10445   */\n      revert\n        /* \"#utility.yul\":10473:11418   */\n    tag_290:\n        /* \"#utility.yul\":10579:10584   */\n      0x00\n        /* \"#utility.yul\":10604:10695   */\n      tag_445\n        /* \"#utility.yul\":10620:10694   */\n      tag_446\n        /* \"#utility.yul\":10687:10693   */\n      dup5\n        /* \"#utility.yul\":10620:10694   */\n      tag_288\n      jump\t// in\n    tag_446:\n        /* \"#utility.yul\":10604:10695   */\n      tag_271\n      jump\t// in\n    tag_445:\n        /* \"#utility.yul\":10595:10695   */\n      swap1\n      pop\n        /* \"#utility.yul\":10715:10720   */\n      dup1\n        /* \"#utility.yul\":10744:10750   */\n      dup4\n        /* \"#utility.yul\":10737:10742   */\n      dup3\n        /* \"#utility.yul\":10730:10751   */\n      mstore\n        /* \"#utility.yul\":10778:10782   */\n      0x20\n        /* \"#utility.yul\":10771:10776   */\n      dup3\n        /* \"#utility.yul\":10767:10783   */\n      add\n        /* \"#utility.yul\":10760:10783   */\n      swap1\n      pop\n        /* \"#utility.yul\":10831:10835   */\n      0x20\n        /* \"#utility.yul\":10823:10829   */\n      dup5\n        /* \"#utility.yul\":10819:10836   */\n      mul\n        /* \"#utility.yul\":10811:10817   */\n      dup4\n        /* \"#utility.yul\":10807:10837   */\n      add\n        /* \"#utility.yul\":10860:10863   */\n      dup6\n        /* \"#utility.yul\":10852:10858   */\n      dup2\n        /* \"#utility.yul\":10849:10864   */\n      gt\n        /* \"#utility.yul\":10846:10968   */\n      iszero\n      tag_447\n      jumpi\n        /* \"#utility.yul\":10879:10958   */\n      tag_448\n      tag_289\n      jump\t// in\n    tag_448:\n        /* \"#utility.yul\":10846:10968   */\n    tag_447:\n        /* \"#utility.yul\":10994:11000   */\n      dup4\n        /* \"#utility.yul\":10977:11412   */\n    tag_449:\n        /* \"#utility.yul\":11011:11017   */\n      dup2\n        /* \"#utility.yul\":11006:11009   */\n      dup2\n        /* \"#utility.yul\":11003:11018   */\n      lt\n        /* \"#utility.yul\":10977:11412   */\n      iszero\n      tag_451\n      jumpi\n        /* \"#utility.yul\":11100:11103   */\n      dup1\n        /* \"#utility.yul\":11087:11104   */\n      calldataload\n        /* \"#utility.yul\":11136:11154   */\n      0xffffffffffffffff\n        /* \"#utility.yul\":11123:11134   */\n      dup2\n        /* \"#utility.yul\":11120:11155   */\n      gt\n        /* \"#utility.yul\":11117:11239   */\n      iszero\n      tag_452\n      jumpi\n        /* \"#utility.yul\":11158:11237   */\n      tag_453\n      tag_267\n      jump\t// in\n    tag_453:\n        /* \"#utility.yul\":11117:11239   */\n    tag_452:\n        /* \"#utility.yul\":11282:11293   */\n      dup1\n        /* \"#utility.yul\":11274:11280   */\n      dup7\n        /* \"#utility.yul\":11270:11294   */\n      add\n        /* \"#utility.yul\":11320:11367   */\n      tag_454\n        /* \"#utility.yul\":11363:11366   */\n      dup10\n        /* \"#utility.yul\":11351:11361   */\n      dup3\n        /* \"#utility.yul\":11320:11367   */\n      tag_275\n      jump\t// in\n    tag_454:\n        /* \"#utility.yul\":11315:11318   */\n      dup6\n        /* \"#utility.yul\":11308:11368   */\n      mstore\n        /* \"#utility.yul\":11397:11401   */\n      0x20\n        /* \"#utility.yul\":11392:11395   */\n      dup6\n        /* \"#utility.yul\":11388:11402   */\n      add\n        /* \"#utility.yul\":11381:11402   */\n      swap5\n      pop\n        /* \"#utility.yul\":11053:11412   */\n      pop\n      pop\n        /* \"#utility.yul\":11037:11041   */\n      0x20\n        /* \"#utility.yul\":11032:11035   */\n      dup2\n        /* \"#utility.yul\":11028:11042   */\n      add\n        /* \"#utility.yul\":11021:11042   */\n      swap1\n      pop\n        /* \"#utility.yul\":10977:11412   */\n      jump(tag_449)\n    tag_451:\n        /* \"#utility.yul\":10981:11002   */\n      pop\n        /* \"#utility.yul\":10585:11418   */\n      pop\n      pop\n        /* \"#utility.yul\":10473:11418   */\n      swap4\n      swap3\n      pop\n      pop\n      pop\n      jump\t// out\n        /* \"#utility.yul\":11440:11830   */\n    tag_291:\n        /* \"#utility.yul\":11521:11526   */\n      0x00\n        /* \"#utility.yul\":11570:11573   */\n      dup3\n        /* \"#utility.yul\":11563:11567   */\n      0x1f\n        /* \"#utility.yul\":11555:11561   */\n      dup4\n        /* \"#utility.yul\":11551:11568   */\n      add\n        /* \"#utility.yul\":11547:11574   */\n      slt\n        /* \"#utility.yul\":11537:11659   */\n      tag_456\n      jumpi\n        /* \"#utility.yul\":11578:11657   */\n      tag_457\n      tag_267\n      jump\t// in\n    tag_457:\n        /* \"#utility.yul\":11537:11659   */\n    tag_456:\n        /* \"#utility.yul\":11695:11701   */\n      dup2\n        /* \"#utility.yul\":11682:11702   */\n      calldataload\n        /* \"#utility.yul\":11720:11824   */\n      tag_458\n        /* \"#utility.yul\":11820:11823   */\n      dup5\n        /* \"#utility.yul\":11812:11818   */\n      dup3\n        /* \"#utility.yul\":11805:11809   */\n      0x20\n        /* \"#utility.yul\":11797:11803   */\n      dup7\n        /* \"#utility.yul\":11793:11810   */\n      add\n        /* \"#utility.yul\":11720:11824   */\n      tag_290\n      jump\t// in\n    tag_458:\n        /* \"#utility.yul\":11711:11824   */\n      swap2\n      pop\n        /* \"#utility.yul\":11527:11830   */\n      pop\n        /* \"#utility.yul\":11440:11830   */\n      swap3\n      swap2\n      pop\n      pop\n      jump\t// out\n        /* \"#utility.yul\":11836:12395   */\n    tag_54:\n        /* \"#utility.yul\":11930:11936   */\n      0x00\n        /* \"#utility.yul\":11979:11981   */\n      0x20\n        /* \"#utility.yul\":11967:11976   */\n      dup3\n        /* \"#utility.yul\":11958:11965   */\n      dup5\n        /* \"#utility.yul\":11954:11977   */\n      sub\n        /* \"#utility.yul\":11950:11982   */\n      slt\n        /* \"#utility.yul\":11947:12066   */\n      iszero\n      tag_460\n      jumpi\n        /* \"#utility.yul\":11985:12064   */\n      tag_461\n      tag_256\n      jump\t// in\n    tag_461:\n        /* \"#utility.yul\":11947:12066   */\n    tag_460:\n        /* \"#utility.yul\":12133:12134   */\n      0x00\n        /* \"#utility.yul\":12122:12131   */\n      dup3\n        /* \"#utility.yul\":12118:12135   */\n      add\n        /* \"#utility.yul\":12105:12136   */\n      calldataload\n        /* \"#utility.yul\":12163:12181   */\n      0xffffffffffffffff\n        /* \"#utility.yul\":12155:12161   */\n      dup2\n        /* \"#utility.yul\":12152:12182   */\n      gt\n        /* \"#utility.yul\":12149:12266   */\n      iszero\n      tag_462\n      jumpi\n        /* \"#utility.yul\":12185:12264   */\n      tag_463\n      tag_257\n      jump\t// in\n    tag_463:\n        /* \"#utility.yul\":12149:12266   */\n    tag_462:\n        /* \"#utility.yul\":12290:12378   */\n      tag_464\n        /* \"#utility.yul\":12370:12377   */\n      dup5\n        /* \"#utility.yul\":12361:12367   */\n      dup3\n        /* \"#utility.yul\":12350:12359   */\n      dup6\n        /* \"#utility.yul\":12346:12368   */\n      add\n        /* \"#utility.yul\":12290:12378   */\n      tag_291\n      jump\t// in\n    tag_464:\n        /* \"#utility.yul\":12280:12378   */\n      swap2\n      pop\n        /* \"#utility.yul\":12076:12388   */\n      pop\n        /* \"#utility.yul\":11836:12395   */\n      swap3\n      swap2\n      pop\n      pop\n      jump\t// out\n        /* \"#utility.yul\":12401:12730   */\n    tag_59:\n        /* \"#utility.yul\":12460:12466   */\n      0x00\n        /* \"#utility.yul\":12509:12511   */\n      0x20\n        /* \"#utility.yul\":12497:12506   */\n      dup3\n        /* \"#utility.yul\":12488:12495   */\n      dup5\n        /* \"#utility.yul\":12484:12507   */\n      sub\n        /* \"#utility.yul\":12480:12512   */\n      slt\n        /* \"#utility.yul\":12477:12596   */\n      iszero\n      tag_466\n      jumpi\n        /* \"#utility.yul\":12515:12594   */\n      tag_467\n      tag_256\n      jump\t// in\n    tag_467:\n        /* \"#utility.yul\":12477:12596   */\n    tag_466:\n        /* \"#utility.yul\":12635:12636   */\n      0x00\n        /* \"#utility.yul\":12660:12713   */\n      tag_468\n        /* \"#utility.yul\":12705:12712   */\n      dup5\n        /* \"#utility.yul\":12696:12702   */\n      dup3\n        /* \"#utility.yul\":12685:12694   */\n      dup6\n        /* \"#utility.yul\":12681:12703   */\n      add\n        /* \"#utility.yul\":12660:12713   */\n      tag_264\n      jump\t// in\n    tag_468:\n        /* \"#utility.yul\":12650:12713   */\n      swap2\n      pop\n        /* \"#utility.yul\":12606:12723   */\n      pop\n        /* \"#utility.yul\":12401:12730   */\n      swap3\n      swap2\n      pop\n      pop\n      jump\t// out\n        /* \"#utility.yul\":12736:12958   */\n    tag_62:\n        /* \"#utility.yul\":12829:12833   */\n      0x00\n        /* \"#utility.yul\":12867:12869   */\n      0x20\n        /* \"#utility.yul\":12856:12865   */\n      dup3\n        /* \"#utility.yul\":12852:12870   */\n      add\n        /* \"#utility.yul\":12844:12870   */\n      swap1\n      pop\n        /* \"#utility.yul\":12880:12951   */\n      tag_470\n        /* \"#utility.yul\":12948:12949   */\n      0x00\n        /* \"#utility.yul\":12937:12946   */\n      dup4\n        /* \"#utility.yul\":12933:12950   */\n      add\n        /* \"#utility.yul\":12924:12930   */\n      dup5\n        /* \"#utility.yul\":12880:12951   */\n      tag_265\n      jump\t// in\n    tag_470:\n        /* \"#utility.yul\":12736:12958   */\n      swap3\n      swap2\n      pop\n      pop\n      jump\t// out\n        /* \"#utility.yul\":12964:14123   */\n    tag_65:\n        /* \"#utility.yul\":13071:13077   */\n      0x00\n        /* \"#utility.yul\":13079:13085   */\n      dup1\n        /* \"#utility.yul\":13087:13093   */\n      0x00\n        /* \"#utility.yul\":13136:13138   */\n      0x60\n        /* \"#utility.yul\":13124:13133   */\n      dup5\n        /* \"#utility.yul\":13115:13122   */\n      dup7\n        /* \"#utility.yul\":13111:13134   */\n      sub\n        /* \"#utility.yul\":13107:13139   */\n      slt\n        /* \"#utility.yul\":13104:13223   */\n      iszero\n      tag_472\n      jumpi\n        /* \"#utility.yul\":13142:13221   */\n      tag_473\n      tag_256\n      jump\t// in\n    tag_473:\n        /* \"#utility.yul\":13104:13223   */\n    tag_472:\n        /* \"#utility.yul\":13290:13291   */\n      0x00\n        /* \"#utility.yul\":13279:13288   */\n      dup5\n        /* \"#utility.yul\":13275:13292   */\n      add\n        /* \"#utility.yul\":13262:13293   */\n      calldataload\n        /* \"#utility.yul\":13320:13338   */\n      0xffffffffffffffff\n        /* \"#utility.yul\":13312:13318   */\n      dup2\n        /* \"#utility.yul\":13309:13339   */\n      gt\n        /* \"#utility.yul\":13306:13423   */\n      iszero\n      tag_474\n      jumpi\n        /* \"#utility.yul\":13342:13421   */\n      tag_475\n      tag_257\n      jump\t// in\n    tag_475:\n        /* \"#utility.yul\":13306:13423   */\n    tag_474:\n        /* \"#utility.yul\":13447:13510   */\n      tag_476\n        /* \"#utility.yul\":13502:13509   */\n      dup7\n        /* \"#utility.yul\":13493:13499   */\n      dup3\n        /* \"#utility.yul\":13482:13491   */\n      dup8\n        /* \"#utility.yul\":13478:13500   */\n      add\n        /* \"#utility.yul\":13447:13510   */\n      tag_275\n      jump\t// in\n    tag_476:\n        /* \"#utility.yul\":13437:13510   */\n      swap4\n      pop\n        /* \"#utility.yul\":13233:13520   */\n      pop\n        /* \"#utility.yul\":13587:13589   */\n      0x20\n        /* \"#utility.yul\":13576:13585   */\n      dup5\n        /* \"#utility.yul\":13572:13590   */\n      add\n        /* \"#utility.yul\":13559:13591   */\n      calldataload\n        /* \"#utility.yul\":13618:13636   */\n      0xffffffffffffffff\n        /* \"#utility.yul\":13610:13616   */\n      dup2\n        /* \"#utility.yul\":13607:13637   */\n      gt\n        /* \"#utility.yul\":13604:13721   */\n      iszero\n      tag_477\n      jumpi\n        /* \"#utility.yul\":13640:13719   */\n      tag_478\n      tag_257\n      jump\t// in\n    tag_478:\n        /* \"#utility.yul\":13604:13721   */\n    tag_477:\n        /* \"#utility.yul\":13745:13808   */\n      tag_479\n        /* \"#utility.yul\":13800:13807   */\n      dup7\n        /* \"#utility.yul\":13791:13797   */\n      dup3\n        /* \"#utility.yul\":13780:13789   */\n      dup8\n        /* \"#utility.yul\":13776:13798   */\n      add\n        /* \"#utility.yul\":13745:13808   */\n      tag_275\n      jump\t// in\n    tag_479:\n        /* \"#utility.yul\":13735:13808   */\n      swap3\n      pop\n        /* \"#utility.yul\":13530:13818   */\n      pop\n        /* \"#utility.yul\":13885:13887   */\n      0x40\n        /* \"#utility.yul\":13874:13883   */\n      dup5\n        /* \"#utility.yul\":13870:13888   */\n      add\n        /* \"#utility.yul\":13857:13889   */\n      calldataload\n        /* \"#utility.yul\":13916:13934   */\n      0xffffffffffffffff\n        /* \"#utility.yul\":13908:13914   */\n      dup2\n        /* \"#utility.yul\":13905:13935   */\n      gt\n        /* \"#utility.yul\":13902:14019   */\n      iszero\n      tag_480\n      jumpi\n        /* \"#utility.yul\":13938:14017   */\n      tag_481\n      tag_257\n      jump\t// in\n    tag_481:\n        /* \"#utility.yul\":13902:14019   */\n    tag_480:\n        /* \"#utility.yul\":14043:14106   */\n      tag_482\n        /* \"#utility.yul\":14098:14105   */\n      dup7\n        /* \"#utility.yul\":14089:14095   */\n      dup3\n        /* \"#utility.yul\":14078:14087   */\n      dup8\n        /* \"#utility.yul\":14074:14096   */\n      add\n        /* \"#utility.yul\":14043:14106   */\n      tag_275\n      jump\t// in\n    tag_482:\n        /* \"#utility.yul\":14033:14106   */\n      swap2\n      pop\n        /* \"#utility.yul\":13828:14116   */\n      pop\n        /* \"#utility.yul\":12964:14123   */\n      swap3\n      pop\n      swap3\n      pop\n      swap3\n      jump\t// out\n        /* \"#utility.yul\":14129:14243   */\n    tag_292:\n        /* \"#utility.yul\":14196:14202   */\n      0x00\n        /* \"#utility.yul\":14230:14235   */\n      dup2\n        /* \"#utility.yul\":14224:14236   */\n      mload\n        /* \"#utility.yul\":14214:14236   */\n      swap1\n      pop\n        /* \"#utility.yul\":14129:14243   */\n      swap2\n      swap1\n      pop\n      jump\t// out\n        /* \"#utility.yul\":14249:14433   */\n    tag_293:\n        /* \"#utility.yul\":14348:14359   */\n      0x00\n        /* \"#utility.yul\":14382:14388   */\n      dup3\n        /* \"#utility.yul\":14377:14380   */\n      dup3\n        /* \"#utility.yul\":14370:14389   */\n      mstore\n        /* \"#utility.yul\":14422:14426   */\n      0x20\n        /* \"#utility.yul\":14417:14420   */\n      dup3\n        /* \"#utility.yul\":14413:14427   */\n      add\n        /* \"#utility.yul\":14398:14427   */\n      swap1\n      pop\n        /* \"#utility.yul\":14249:14433   */\n      swap3\n      swap2\n      pop\n      pop\n      jump\t// out\n        /* \"#utility.yul\":14439:14571   */\n    tag_294:\n        /* \"#utility.yul\":14506:14510   */\n      0x00\n        /* \"#utility.yul\":14529:14532   */\n      dup2\n        /* \"#utility.yul\":14521:14532   */\n      swap1\n      pop\n        /* \"#utility.yul\":14559:14563   */\n      0x20\n        /* \"#utility.yul\":14554:14557   */\n      dup3\n        /* \"#utility.yul\":14550:14564   */\n      add\n        /* \"#utility.yul\":14542:14564   */\n      swap1\n      pop\n        /* \"#utility.yul\":14439:14571   */\n      swap2\n      swap1\n      pop\n      jump\t// out\n        /* \"#utility.yul\":14577:14685   */\n    tag_295:\n        /* \"#utility.yul\":14654:14678   */\n      tag_487\n        /* \"#utility.yul\":14672:14677   */\n      dup2\n        /* \"#utility.yul\":14654:14678   */\n      tag_259\n      jump\t// in\n    tag_487:\n        /* \"#utility.yul\":14649:14652   */\n      dup3\n        /* \"#utility.yul\":14642:14679   */\n      mstore\n        /* \"#utility.yul\":14577:14685   */\n      pop\n      pop\n      jump\t// out\n        /* \"#utility.yul\":14691:14870   */\n    tag_296:\n        /* \"#utility.yul\":14760:14770   */\n      0x00\n        /* \"#utility.yul\":14781:14827   */\n      tag_489\n        /* \"#utility.yul\":14823:14826   */\n      dup4\n        /* \"#utility.yul\":14815:14821   */\n      dup4\n        /* \"#utility.yul\":14781:14827   */\n      tag_295\n      jump\t// in\n    tag_489:\n        /* \"#utility.yul\":14859:14863   */\n      0x20\n        /* \"#utility.yul\":14854:14857   */\n      dup4\n        /* \"#utility.yul\":14850:14864   */\n      add\n        /* \"#utility.yul\":14836:14864   */\n      swap1\n      pop\n        /* \"#utility.yul\":14691:14870   */\n      swap3\n      swap2\n      pop\n      pop\n      jump\t// out\n        /* \"#utility.yul\":14876:14989   */\n    tag_297:\n        /* \"#utility.yul\":14946:14950   */\n      0x00\n        /* \"#utility.yul\":14978:14982   */\n      0x20\n        /* \"#utility.yul\":14973:14976   */\n      dup3\n        /* \"#utility.yul\":14969:14983   */\n      add\n        /* \"#utility.yul\":14961:14983   */\n      swap1\n      pop\n        /* \"#utility.yul\":14876:14989   */\n      swap2\n      swap1\n      pop\n      jump\t// out\n        /* \"#utility.yul\":15025:15757   */\n    tag_298:\n        /* \"#utility.yul\":15144:15147   */\n      0x00\n        /* \"#utility.yul\":15173:15227   */\n      tag_492\n        /* \"#utility.yul\":15221:15226   */\n      dup3\n        /* \"#utility.yul\":15173:15227   */\n      tag_292\n      jump\t// in\n    tag_492:\n        /* \"#utility.yul\":15243:15329   */\n      tag_493\n        /* \"#utility.yul\":15322:15328   */\n      dup2\n        /* \"#utility.yul\":15317:15320   */\n      dup6\n        /* \"#utility.yul\":15243:15329   */\n      tag_293\n      jump\t// in\n    tag_493:\n        /* \"#utility.yul\":15236:15329   */\n      swap4\n      pop\n        /* \"#utility.yul\":15353:15409   */\n      tag_494\n        /* \"#utility.yul\":15403:15408   */\n      dup4\n        /* \"#utility.yul\":15353:15409   */\n      tag_294\n      jump\t// in\n    tag_494:\n        /* \"#utility.yul\":15432:15439   */\n      dup1\n        /* \"#utility.yul\":15463:15464   */\n      0x00\n        /* \"#utility.yul\":15448:15732   */\n    tag_495:\n        /* \"#utility.yul\":15473:15479   */\n      dup4\n        /* \"#utility.yul\":15470:15471   */\n      dup2\n        /* \"#utility.yul\":15467:15480   */\n      lt\n        /* \"#utility.yul\":15448:15732   */\n      iszero\n      tag_497\n      jumpi\n        /* \"#utility.yul\":15549:15555   */\n      dup2\n        /* \"#utility.yul\":15543:15556   */\n      mload\n        /* \"#utility.yul\":15576:15639   */\n      tag_498\n        /* \"#utility.yul\":15635:15638   */\n      dup9\n        /* \"#utility.yul\":15620:15633   */\n      dup3\n        /* \"#utility.yul\":15576:15639   */\n      tag_296\n      jump\t// in\n    tag_498:\n        /* \"#utility.yul\":15569:15639   */\n      swap8\n      pop\n        /* \"#utility.yul\":15662:15722   */\n      tag_499\n        /* \"#utility.yul\":15715:15721   */\n      dup4\n        /* \"#utility.yul\":15662:15722   */\n      tag_297\n      jump\t// in\n    tag_499:\n        /* \"#utility.yul\":15652:15722   */\n      swap3\n      pop\n        /* \"#utility.yul\":15508:15732   */\n      pop\n        /* \"#utility.yul\":15495:15496   */\n      0x01\n        /* \"#utility.yul\":15492:15493   */\n      dup2\n        /* \"#utility.yul\":15488:15497   */\n      add\n        /* \"#utility.yul\":15483:15497   */\n      swap1\n      pop\n        /* \"#utility.yul\":15448:15732   */\n      jump(tag_495)\n    tag_497:\n        /* \"#utility.yul\":15452:15466   */\n      pop\n        /* \"#utility.yul\":15748:15751   */\n      dup6\n        /* \"#utility.yul\":15741:15751   */\n      swap4\n      pop\n        /* \"#utility.yul\":15149:15757   */\n      pop\n      pop\n      pop\n        /* \"#utility.yul\":15025:15757   */\n      swap3\n      swap2\n      pop\n      pop\n      jump\t// out\n        /* \"#utility.yul\":15763:16136   */\n    tag_73:\n        /* \"#utility.yul\":15906:15910   */\n      0x00\n        /* \"#utility.yul\":15944:15946   */\n      0x20\n        /* \"#utility.yul\":15933:15942   */\n      dup3\n        /* \"#utility.yul\":15929:15947   */\n      add\n        /* \"#utility.yul\":15921:15947   */\n      swap1\n      pop\n        /* \"#utility.yul\":15993:16002   */\n      dup2\n        /* \"#utility.yul\":15987:15991   */\n      dup2\n        /* \"#utility.yul\":15983:16003   */\n      sub\n        /* \"#utility.yul\":15979:15980   */\n      0x00\n        /* \"#utility.yul\":15968:15977   */\n      dup4\n        /* \"#utility.yul\":15964:15981   */\n      add\n        /* \"#utility.yul\":15957:16004   */\n      mstore\n        /* \"#utility.yul\":16021:16129   */\n      tag_501\n        /* \"#utility.yul\":16124:16128   */\n      dup2\n        /* \"#utility.yul\":16115:16121   */\n      dup5\n        /* \"#utility.yul\":16021:16129   */\n      tag_298\n      jump\t// in\n    tag_501:\n        /* \"#utility.yul\":16013:16129   */\n      swap1\n      pop\n        /* \"#utility.yul\":15763:16136   */\n      swap3\n      swap2\n      pop\n      pop\n      jump\t// out\n        /* \"#utility.yul\":16142:16250   */\n    tag_299:\n        /* \"#utility.yul\":16219:16243   */\n      tag_503\n        /* \"#utility.yul\":16237:16242   */\n      dup2\n        /* \"#utility.yul\":16219:16243   */\n      tag_262\n      jump\t// in\n    tag_503:\n        /* \"#utility.yul\":16214:16217   */\n      dup3\n        /* \"#utility.yul\":16207:16244   */\n      mstore\n        /* \"#utility.yul\":16142:16250   */\n      pop\n      pop\n      jump\t// out\n        /* \"#utility.yul\":16314:16832   */\n    tag_300:\n        /* \"#utility.yul\":16453:16457   */\n      0x40\n        /* \"#utility.yul\":16448:16451   */\n      dup3\n        /* \"#utility.yul\":16444:16458   */\n      add\n        /* \"#utility.yul\":16547:16551   */\n      0x00\n        /* \"#utility.yul\":16540:16545   */\n      dup3\n        /* \"#utility.yul\":16536:16552   */\n      add\n        /* \"#utility.yul\":16530:16553   */\n      mload\n        /* \"#utility.yul\":16566:16629   */\n      tag_505\n        /* \"#utility.yul\":16623:16627   */\n      0x00\n        /* \"#utility.yul\":16618:16621   */\n      dup6\n        /* \"#utility.yul\":16614:16628   */\n      add\n        /* \"#utility.yul\":16600:16612   */\n      dup3\n        /* \"#utility.yul\":16566:16629   */\n      tag_295\n      jump\t// in\n    tag_505:\n        /* \"#utility.yul\":16468:16639   */\n      pop\n        /* \"#utility.yul\":16733:16737   */\n      0x20\n        /* \"#utility.yul\":16726:16731   */\n      dup3\n        /* \"#utility.yul\":16722:16738   */\n      add\n        /* \"#utility.yul\":16716:16739   */\n      mload\n        /* \"#utility.yul\":16752:16815   */\n      tag_506\n        /* \"#utility.yul\":16809:16813   */\n      0x20\n        /* \"#utility.yul\":16804:16807   */\n      dup6\n        /* \"#utility.yul\":16800:16814   */\n      add\n        /* \"#utility.yul\":16786:16798   */\n      dup3\n        /* \"#utility.yul\":16752:16815   */\n      tag_299\n      jump\t// in\n    tag_506:\n        /* \"#utility.yul\":16649:16825   */\n      pop\n        /* \"#utility.yul\":16422:16832   */\n      pop\n        /* \"#utility.yul\":16314:16832   */\n      pop\n      pop\n      jump\t// out\n        /* \"#utility.yul\":16838:17144   */\n    tag_78:\n        /* \"#utility.yul\":16973:16977   */\n      0x00\n        /* \"#utility.yul\":17011:17013   */\n      0x40\n        /* \"#utility.yul\":17000:17009   */\n      dup3\n        /* \"#utility.yul\":16996:17014   */\n      add\n        /* \"#utility.yul\":16988:17014   */\n      swap1\n      pop\n        /* \"#utility.yul\":17024:17137   */\n      tag_508\n        /* \"#utility.yul\":17134:17135   */\n      0x00\n        /* \"#utility.yul\":17123:17132   */\n      dup4\n        /* \"#utility.yul\":17119:17136   */\n      add\n        /* \"#utility.yul\":17110:17116   */\n      dup5\n        /* \"#utility.yul\":17024:17137   */\n      tag_300\n      jump\t// in\n    tag_508:\n        /* \"#utility.yul\":16838:17144   */\n      swap3\n      swap2\n      pop\n      pop\n      jump\t// out\n        /* \"#utility.yul\":17150:17319   */\n    tag_301:\n        /* \"#utility.yul\":17290:17311   */\n      0x4e6f646520616c72656164792065786973747300000000000000000000000000\n        /* \"#utility.yul\":17286:17287   */\n      0x00\n        /* \"#utility.yul\":17278:17284   */\n      dup3\n        /* \"#utility.yul\":17274:17288   */\n      add\n        /* \"#utility.yul\":17267:17312   */\n      mstore\n        /* \"#utility.yul\":17150:17319   */\n      pop\n      jump\t// out\n        /* \"#utility.yul\":17325:17691   */\n    tag_302:\n        /* \"#utility.yul\":17467:17470   */\n      0x00\n        /* \"#utility.yul\":17488:17555   */\n      tag_511\n        /* \"#utility.yul\":17552:17554   */\n      0x13\n        /* \"#utility.yul\":17547:17550   */\n      dup4\n        /* \"#utility.yul\":17488:17555   */\n      tag_286\n      jump\t// in\n    tag_511:\n        /* \"#utility.yul\":17481:17555   */\n      swap2\n      pop\n        /* \"#utility.yul\":17564:17657   */\n      tag_512\n        /* \"#utility.yul\":17653:17656   */\n      dup3\n        /* \"#utility.yul\":17564:17657   */\n      tag_301\n      jump\t// in\n    tag_512:\n        /* \"#utility.yul\":17682:17684   */\n      0x20\n        /* \"#utility.yul\":17677:17680   */\n      dup3\n        /* \"#utility.yul\":17673:17685   */\n      add\n        /* \"#utility.yul\":17666:17685   */\n      swap1\n      pop\n        /* \"#utility.yul\":17325:17691   */\n      swap2\n      swap1\n      pop\n      jump\t// out\n        /* \"#utility.yul\":17697:18116   */\n    tag_95:\n        /* \"#utility.yul\":17863:17867   */\n      0x00\n        /* \"#utility.yul\":17901:17903   */\n      0x20\n        /* \"#utility.yul\":17890:17899   */\n      dup3\n        /* \"#utility.yul\":17886:17904   */\n      add\n        /* \"#utility.yul\":17878:17904   */\n      swap1\n      pop\n        /* \"#utility.yul\":17950:17959   */\n      dup2\n        /* \"#utility.yul\":17944:17948   */\n      dup2\n        /* \"#utility.yul\":17940:17960   */\n      sub\n        /* \"#utility.yul\":17936:17937   */\n      0x00\n        /* \"#utility.yul\":17925:17934   */\n      dup4\n        /* \"#utility.yul\":17921:17938   */\n      add\n        /* \"#utility.yul\":17914:17961   */\n      mstore\n        /* \"#utility.yul\":17978:18109   */\n      tag_514\n        /* \"#utility.yul\":18104:18108   */\n      dup2\n        /* \"#utility.yul\":17978:18109   */\n      tag_302\n      jump\t// in\n    tag_514:\n        /* \"#utility.yul\":17970:18109   */\n      swap1\n      pop\n        /* \"#utility.yul\":17697:18116   */\n      swap2\n      swap1\n      pop\n      jump\t// out\n        /* \"#utility.yul\":18122:18302   */\n    tag_303:\n        /* \"#utility.yul\":18170:18247   */\n      0x4e487b7100000000000000000000000000000000000000000000000000000000\n        /* \"#utility.yul\":18167:18168   */\n      0x00\n        /* \"#utility.yul\":18160:18248   */\n      mstore\n        /* \"#utility.yul\":18267:18271   */\n      0x11\n        /* \"#utility.yul\":18264:18265   */\n      0x04\n        /* \"#utility.yul\":18257:18272   */\n      mstore\n        /* \"#utility.yul\":18291:18295   */\n      0x24\n        /* \"#utility.yul\":18288:18289   */\n      0x00\n        /* \"#utility.yul\":18281:18296   */\n      revert\n        /* \"#utility.yul\":18308:18499   */\n    tag_99:\n        /* \"#utility.yul\":18348:18351   */\n      0x00\n        /* \"#utility.yul\":18367:18387   */\n      tag_517\n        /* \"#utility.yul\":18385:18386   */\n      dup3\n        /* \"#utility.yul\":18367:18387   */\n      tag_262\n      jump\t// in\n    tag_517:\n        /* \"#utility.yul\":18362:18387   */\n      swap2\n      pop\n        /* \"#utility.yul\":18401:18421   */\n      tag_518\n        /* \"#utility.yul\":18419:18420   */\n      dup4\n        /* \"#utility.yul\":18401:18421   */\n      tag_262\n      jump\t// in\n    tag_518:\n        /* \"#utility.yul\":18396:18421   */\n      swap3\n      pop\n        /* \"#utility.yul\":18444:18445   */\n      dup3\n        /* \"#utility.yul\":18441:18442   */\n      dup3\n        /* \"#utility.yul\":18437:18446   */\n      add\n        /* \"#utility.yul\":18430:18446   */\n      swap1\n      pop\n        /* \"#utility.yul\":18465:18468   */\n      dup1\n        /* \"#utility.yul\":18462:18463   */\n      dup3\n        /* \"#utility.yul\":18459:18469   */\n      gt\n        /* \"#utility.yul\":18456:18492   */\n      iszero\n      tag_519\n      jumpi\n        /* \"#utility.yul\":18472:18490   */\n      tag_520\n      tag_303\n      jump\t// in\n    tag_520:\n        /* \"#utility.yul\":18456:18492   */\n    tag_519:\n        /* \"#utility.yul\":18308:18499   */\n      swap3\n      swap2\n      pop\n      pop\n      jump\t// out\n        /* \"#utility.yul\":18505:18699   */\n    tag_101:\n        /* \"#utility.yul\":18545:18549   */\n      0x00\n        /* \"#utility.yul\":18565:18585   */\n      tag_522\n        /* \"#utility.yul\":18583:18584   */\n      dup3\n        /* \"#utility.yul\":18565:18585   */\n      tag_262\n      jump\t// in\n    tag_522:\n        /* \"#utility.yul\":18560:18585   */\n      swap2\n      pop\n        /* \"#utility.yul\":18599:18619   */\n      tag_523\n        /* \"#utility.yul\":18617:18618   */\n      dup4\n        /* \"#utility.yul\":18599:18619   */\n      tag_262\n      jump\t// in\n    tag_523:\n        /* \"#utility.yul\":18594:18619   */\n      swap3\n      pop\n        /* \"#utility.yul\":18643:18644   */\n      dup3\n        /* \"#utility.yul\":18640:18641   */\n      dup3\n        /* \"#utility.yul\":18636:18645   */\n      sub\n        /* \"#utility.yul\":18628:18645   */\n      swap1\n      pop\n        /* \"#utility.yul\":18667:18668   */\n      dup2\n        /* \"#utility.yul\":18661:18665   */\n      dup2\n        /* \"#utility.yul\":18658:18669   */\n      gt\n        /* \"#utility.yul\":18655:18692   */\n      iszero\n      tag_524\n      jumpi\n        /* \"#utility.yul\":18672:18690   */\n      tag_525\n      tag_303\n      jump\t// in\n    tag_525:\n        /* \"#utility.yul\":18655:18692   */\n    tag_524:\n        /* \"#utility.yul\":18505:18699   */\n      swap3\n      swap2\n      pop\n      pop\n      jump\t// out\n        /* \"#utility.yul\":18705:18885   */\n    tag_304:\n        /* \"#utility.yul\":18753:18830   */\n      0x4e487b7100000000000000000000000000000000000000000000000000000000\n        /* \"#utility.yul\":18750:18751   */\n      0x00\n        /* \"#utility.yul\":18743:18831   */\n      mstore\n        /* \"#utility.yul\":18850:18854   */\n      0x12\n        /* \"#utility.yul\":18847:18848   */\n      0x04\n        /* \"#utility.yul\":18840:18855   */\n      mstore\n        /* \"#utility.yul\":18874:18878   */\n      0x24\n        /* \"#utility.yul\":18871:18872   */\n      0x00\n        /* \"#utility.yul\":18864:18879   */\n      revert\n        /* \"#utility.yul\":18891:19076   */\n    tag_103:\n        /* \"#utility.yul\":18931:18932   */\n      0x00\n        /* \"#utility.yul\":18948:18968   */\n      tag_528\n        /* \"#utility.yul\":18966:18967   */\n      dup3\n        /* \"#utility.yul\":18948:18968   */\n      tag_262\n      jump\t// in\n    tag_528:\n        /* \"#utility.yul\":18943:18968   */\n      swap2\n      pop\n        /* \"#utility.yul\":18982:19002   */\n      tag_529\n        /* \"#utility.yul\":19000:19001   */\n      dup4\n        /* \"#utility.yul\":18982:19002   */\n      tag_262\n      jump\t// in\n    tag_529:\n        /* \"#utility.yul\":18977:19002   */\n      swap3\n      pop\n        /* \"#utility.yul\":19021:19022   */\n      dup3\n        /* \"#utility.yul\":19011:19046   */\n      tag_530\n      jumpi\n        /* \"#utility.yul\":19026:19044   */\n      tag_531\n      tag_304\n      jump\t// in\n    tag_531:\n        /* \"#utility.yul\":19011:19046   */\n    tag_530:\n        /* \"#utility.yul\":19068:19069   */\n      dup3\n        /* \"#utility.yul\":19065:19066   */\n      dup3\n        /* \"#utility.yul\":19061:19070   */\n      div\n        /* \"#utility.yul\":19056:19070   */\n      swap1\n      pop\n        /* \"#utility.yul\":18891:19076   */\n      swap3\n      swap2\n      pop\n      pop\n      jump\t// out\n        /* \"#utility.yul\":19082:19492   */\n    tag_113:\n        /* \"#utility.yul\":19122:19129   */\n      0x00\n        /* \"#utility.yul\":19145:19165   */\n      tag_533\n        /* \"#utility.yul\":19163:19164   */\n      dup3\n        /* \"#utility.yul\":19145:19165   */\n      tag_262\n      jump\t// in\n    tag_533:\n        /* \"#utility.yul\":19140:19165   */\n      swap2\n      pop\n        /* \"#utility.yul\":19179:19199   */\n      tag_534\n        /* \"#utility.yul\":19197:19198   */\n      dup4\n        /* \"#utility.yul\":19179:19199   */\n      tag_262\n      jump\t// in\n    tag_534:\n        /* \"#utility.yul\":19174:19199   */\n      swap3\n      pop\n        /* \"#utility.yul\":19234:19235   */\n      dup3\n        /* \"#utility.yul\":19231:19232   */\n      dup3\n        /* \"#utility.yul\":19227:19236   */\n      mul\n        /* \"#utility.yul\":19256:19286   */\n      tag_535\n        /* \"#utility.yul\":19274:19285   */\n      dup2\n        /* \"#utility.yul\":19256:19286   */\n      tag_262\n      jump\t// in\n    tag_535:\n        /* \"#utility.yul\":19245:19286   */\n      swap2\n      pop\n        /* \"#utility.yul\":19435:19436   */\n      dup3\n        /* \"#utility.yul\":19426:19433   */\n      dup3\n        /* \"#utility.yul\":19422:19437   */\n      div\n        /* \"#utility.yul\":19419:19420   */\n      dup5\n        /* \"#utility.yul\":19416:19438   */\n      eq\n        /* \"#utility.yul\":19396:19397   */\n      dup4\n        /* \"#utility.yul\":19389:19398   */\n      iszero\n        /* \"#utility.yul\":19369:19452   */\n      or\n        /* \"#utility.yul\":19346:19485   */\n      tag_536\n      jumpi\n        /* \"#utility.yul\":19465:19483   */\n      tag_537\n      tag_303\n      jump\t// in\n    tag_537:\n        /* \"#utility.yul\":19346:19485   */\n    tag_536:\n        /* \"#utility.yul\":19130:19492   */\n      pop\n        /* \"#utility.yul\":19082:19492   */\n      swap3\n      swap2\n      pop\n      pop\n      jump\t// out\n        /* \"#utility.yul\":19498:19678   */\n    tag_125:\n        /* \"#utility.yul\":19546:19623   */\n      0x4e487b7100000000000000000000000000000000000000000000000000000000\n        /* \"#utility.yul\":19543:19544   */\n      0x00\n        /* \"#utility.yul\":19536:19624   */\n      mstore\n        /* \"#utility.yul\":19643:19647   */\n      0x32\n        /* \"#utility.yul\":19640:19641   */\n      0x04\n        /* \"#utility.yul\":19633:19648   */\n      mstore\n        /* \"#utility.yul\":19667:19671   */\n      0x24\n        /* \"#utility.yul\":19664:19665   */\n      0x00\n        /* \"#utility.yul\":19657:19672   */\n      revert\n        /* \"#utility.yul\":19684:19832   */\n    tag_305:\n        /* \"#utility.yul\":19786:19797   */\n      0x00\n        /* \"#utility.yul\":19823:19826   */\n      dup2\n        /* \"#utility.yul\":19808:19826   */\n      swap1\n      pop\n        /* \"#utility.yul\":19684:19832   */\n      swap3\n      swap2\n      pop\n      pop\n      jump\t// out\n        /* \"#utility.yul\":19838:20228   */\n    tag_306:\n        /* \"#utility.yul\":19944:19947   */\n      0x00\n        /* \"#utility.yul\":19972:20011   */\n      tag_541\n        /* \"#utility.yul\":20005:20010   */\n      dup3\n        /* \"#utility.yul\":19972:20011   */\n      tag_279\n      jump\t// in\n    tag_541:\n        /* \"#utility.yul\":20027:20116   */\n      tag_542\n        /* \"#utility.yul\":20109:20115   */\n      dup2\n        /* \"#utility.yul\":20104:20107   */\n      dup6\n        /* \"#utility.yul\":20027:20116   */\n      tag_305\n      jump\t// in\n    tag_542:\n        /* \"#utility.yul\":20020:20116   */\n      swap4\n      pop\n        /* \"#utility.yul\":20125:20190   */\n      tag_543\n        /* \"#utility.yul\":20183:20189   */\n      dup2\n        /* \"#utility.yul\":20178:20181   */\n      dup6\n        /* \"#utility.yul\":20171:20175   */\n      0x20\n        /* \"#utility.yul\":20164:20169   */\n      dup7\n        /* \"#utility.yul\":20160:20176   */\n      add\n        /* \"#utility.yul\":20125:20190   */\n      tag_281\n      jump\t// in\n    tag_543:\n        /* \"#utility.yul\":20215:20221   */\n      dup1\n        /* \"#utility.yul\":20210:20213   */\n      dup5\n        /* \"#utility.yul\":20206:20222   */\n      add\n        /* \"#utility.yul\":20199:20222   */\n      swap2\n      pop\n        /* \"#utility.yul\":19948:20228   */\n      pop\n        /* \"#utility.yul\":19838:20228   */\n      swap3\n      swap2\n      pop\n      pop\n      jump\t// out\n        /* \"#utility.yul\":20234:20509   */\n    tag_133:\n        /* \"#utility.yul\":20366:20369   */\n      0x00\n        /* \"#utility.yul\":20388:20483   */\n      tag_545\n        /* \"#utility.yul\":20479:20482   */\n      dup3\n        /* \"#utility.yul\":20470:20476   */\n      dup5\n        /* \"#utility.yul\":20388:20483   */\n      tag_306\n      jump\t// in\n    tag_545:\n        /* \"#utility.yul\":20381:20483   */\n      swap2\n      pop\n        /* \"#utility.yul\":20500:20503   */\n      dup2\n        /* \"#utility.yul\":20493:20503   */\n      swap1\n      pop\n        /* \"#utility.yul\":20234:20509   */\n      swap3\n      swap2\n      pop\n      pop\n      jump\t// out\n        /* \"#utility.yul\":20515:20679   */\n    tag_307:\n        /* \"#utility.yul\":20655:20671   */\n      0x46696c65206e6f7420666f756e64000000000000000000000000000000000000\n        /* \"#utility.yul\":20651:20652   */\n      0x00\n        /* \"#utility.yul\":20643:20649   */\n      dup3\n        /* \"#utility.yul\":20639:20653   */\n      add\n        /* \"#utility.yul\":20632:20672   */\n      mstore\n        /* \"#utility.yul\":20515:20679   */\n      pop\n      jump\t// out\n        /* \"#utility.yul\":20685:21051   */\n    tag_308:\n        /* \"#utility.yul\":20827:20830   */\n      0x00\n        /* \"#utility.yul\":20848:20915   */\n      tag_548\n        /* \"#utility.yul\":20912:20914   */\n      0x0e\n        /* \"#utility.yul\":20907:20910   */\n      dup4\n        /* \"#utility.yul\":20848:20915   */\n      tag_286\n      jump\t// in\n    tag_548:\n        /* \"#utility.yul\":20841:20915   */\n      swap2\n      pop\n        /* \"#utility.yul\":20924:21017   */\n      tag_549\n        /* \"#utility.yul\":21013:21016   */\n      dup3\n        /* \"#utility.yul\":20924:21017   */\n      tag_307\n      jump\t// in\n    tag_549:\n        /* \"#utility.yul\":21042:21044   */\n      0x20\n        /* \"#utility.yul\":21037:21040   */\n      dup3\n        /* \"#utility.yul\":21033:21045   */\n      add\n        /* \"#utility.yul\":21026:21045   */\n      swap1\n      pop\n        /* \"#utility.yul\":20685:21051   */\n      swap2\n      swap1\n      pop\n      jump\t// out\n        /* \"#utility.yul\":21057:21476   */\n    tag_136:\n        /* \"#utility.yul\":21223:21227   */\n      0x00\n        /* \"#utility.yul\":21261:21263   */\n      0x20\n        /* \"#utility.yul\":21250:21259   */\n      dup3\n        /* \"#utility.yul\":21246:21264   */\n      add\n        /* \"#utility.yul\":21238:21264   */\n      swap1\n      pop\n        /* \"#utility.yul\":21310:21319   */\n      dup2\n        /* \"#utility.yul\":21304:21308   */\n      dup2\n        /* \"#utility.yul\":21300:21320   */\n      sub\n        /* \"#utility.yul\":21296:21297   */\n      0x00\n        /* \"#utility.yul\":21285:21294   */\n      dup4\n        /* \"#utility.yul\":21281:21298   */\n      add\n        /* \"#utility.yul\":21274:21321   */\n      mstore\n        /* \"#utility.yul\":21338:21469   */\n      tag_551\n        /* \"#utility.yul\":21464:21468   */\n      dup2\n        /* \"#utility.yul\":21338:21469   */\n      tag_308\n      jump\t// in\n    tag_551:\n        /* \"#utility.yul\":21330:21469   */\n      swap1\n      pop\n        /* \"#utility.yul\":21057:21476   */\n      swap2\n      swap1\n      pop\n      jump\t// out\n        /* \"#utility.yul\":21482:21715   */\n    tag_167:\n        /* \"#utility.yul\":21521:21524   */\n      0x00\n        /* \"#utility.yul\":21544:21568   */\n      tag_553\n        /* \"#utility.yul\":21562:21567   */\n      dup3\n        /* \"#utility.yul\":21544:21568   */\n      tag_262\n      jump\t// in\n    tag_553:\n        /* \"#utility.yul\":21535:21568   */\n      swap2\n      pop\n        /* \"#utility.yul\":21590:21656   */\n      0xffffffffffffffffffffffffffffffffffffffffffffffffffffffffffffffff\n        /* \"#utility.yul\":21583:21588   */\n      dup3\n        /* \"#utility.yul\":21580:21657   */\n      sub\n        /* \"#utility.yul\":21577:21680   */\n      tag_554\n      jumpi\n        /* \"#utility.yul\":21660:21678   */\n      tag_555\n      tag_303\n      jump\t// in\n    tag_555:\n        /* \"#utility.yul\":21577:21680   */\n    tag_554:\n        /* \"#utility.yul\":21707:21708   */\n      0x01\n        /* \"#utility.yul\":21700:21705   */\n      dup3\n        /* \"#utility.yul\":21696:21709   */\n      add\n        /* \"#utility.yul\":21689:21709   */\n      swap1\n      pop\n        /* \"#utility.yul\":21482:21715   */\n      swap2\n      swap1\n      pop\n      jump\t// out\n        /* \"#utility.yul\":21721:21897   */\n    tag_174:\n        /* \"#utility.yul\":21753:21754   */\n      0x00\n        /* \"#utility.yul\":21770:21790   */\n      tag_557\n        /* \"#utility.yul\":21788:21789   */\n      dup3\n        /* \"#utility.yul\":21770:21790   */\n      tag_262\n      jump\t// in\n    tag_557:\n        /* \"#utility.yul\":21765:21790   */\n      swap2\n      pop\n        /* \"#utility.yul\":21804:21824   */\n      tag_558\n        /* \"#utility.yul\":21822:21823   */\n      dup4\n        /* \"#utility.yul\":21804:21824   */\n      tag_262\n      jump\t// in\n    tag_558:\n        /* \"#utility.yul\":21799:21824   */\n      swap3\n      pop\n        /* \"#utility.yul\":21843:21844   */\n      dup3\n        /* \"#utility.yul\":21833:21868   */\n      tag_559\n      jumpi\n        /* \"#utility.yul\":21848:21866   */\n      tag_560\n      tag_304\n      jump\t// in\n    tag_560:\n        /* \"#utility.yul\":21833:21868   */\n    tag_559:\n        /* \"#utility.yul\":21889:21890   */\n      dup3\n        /* \"#utility.yul\":21886:21887   */\n      dup3\n        /* \"#utility.yul\":21882:21891   */\n      mod\n        /* \"#utility.yul\":21877:21891   */\n      swap1\n      pop\n        /* \"#utility.yul\":21721:21897   */\n      swap3\n      swap2\n      pop\n      pop\n      jump\t// out\n        /* \"#utility.yul\":21903:22083   */\n    tag_309:\n        /* \"#utility.yul\":21951:22028   */\n      0x4e487b7100000000000000000000000000000000000000000000000000000000\n        /* \"#utility.yul\":21948:21949   */\n      0x00\n        /* \"#utility.yul\":21941:22029   */\n      mstore\n        /* \"#utility.yul\":22048:22052   */\n      0x22\n        /* \"#utility.yul\":22045:22046   */\n      0x04\n        /* \"#utility.yul\":22038:22053   */\n      mstore\n        /* \"#utility.yul\":22072:22076   */\n      0x24\n        /* \"#utility.yul\":22069:22070   */\n      0x00\n        /* \"#utility.yul\":22062:22077   */\n      revert\n        /* \"#utility.yul\":22089:22409   */\n    tag_246:\n        /* \"#utility.yul\":22133:22139   */\n      0x00\n        /* \"#utility.yul\":22170:22171   */\n      0x02\n        /* \"#utility.yul\":22164:22168   */\n      dup3\n        /* \"#utility.yul\":22160:22172   */\n      div\n        /* \"#utility.yul\":22150:22172   */\n      swap1\n      pop\n        /* \"#utility.yul\":22217:22218   */\n      0x01\n        /* \"#utility.yul\":22211:22215   */\n      dup3\n        /* \"#utility.yul\":22207:22219   */\n      and\n        /* \"#utility.yul\":22238:22256   */\n      dup1\n        /* \"#utility.yul\":22228:22309   */\n      tag_563\n      jumpi\n        /* \"#utility.yul\":22294:22298   */\n      0x7f\n        /* \"#utility.yul\":22286:22292   */\n      dup3\n        /* \"#utility.yul\":22282:22299   */\n      and\n        /* \"#utility.yul\":22272:22299   */\n      swap2\n      pop\n        /* \"#utility.yul\":22228:22309   */\n    tag_563:\n        /* \"#utility.yul\":22356:22358   */\n      0x20\n        /* \"#utility.yul\":22348:22354   */\n      dup3\n        /* \"#utility.yul\":22345:22359   */\n      lt\n        /* \"#utility.yul\":22325:22343   */\n      dup2\n        /* \"#utility.yul\":22322:22360   */\n      sub\n        /* \"#utility.yul\":22319:22403   */\n      tag_564\n      jumpi\n        /* \"#utility.yul\":22375:22393   */\n      tag_565\n      tag_309\n      jump\t// in\n    tag_565:\n        /* \"#utility.yul\":22319:22403   */\n    tag_564:\n        /* \"#utility.yul\":22140:22409   */\n      pop\n        /* \"#utility.yul\":22089:22409   */\n      swap2\n      swap1\n      pop\n      jump\t// out\n        /* \"#utility.yul\":22415:22556   */\n    tag_310:\n        /* \"#utility.yul\":22464:22468   */\n      0x00\n        /* \"#utility.yul\":22487:22490   */\n      dup2\n        /* \"#utility.yul\":22479:22490   */\n      swap1\n      pop\n        /* \"#utility.yul\":22510:22513   */\n      dup2\n        /* \"#utility.yul\":22507:22508   */\n      0x00\n        /* \"#utility.yul\":22500:22514   */\n      mstore\n        /* \"#utility.yul\":22544:22548   */\n      0x20\n        /* \"#utility.yul\":22541:22542   */\n      0x00\n        /* \"#utility.yul\":22531:22549   */\n      keccak256\n        /* \"#utility.yul\":22523:22549   */\n      swap1\n      pop\n        /* \"#utility.yul\":22415:22556   */\n      swap2\n      swap1\n      pop\n      jump\t// out\n        /* \"#utility.yul\":22562:22655   */\n    tag_311:\n        /* \"#utility.yul\":22599:22605   */\n      0x00\n        /* \"#utility.yul\":22646:22648   */\n      0x20\n        /* \"#utility.yul\":22641:22643   */\n      0x1f\n        /* \"#utility.yul\":22634:22639   */\n      dup4\n        /* \"#utility.yul\":22630:22644   */\n      add\n        /* \"#utility.yul\":22626:22649   */\n      div\n        /* \"#utility.yul\":22616:22649   */\n      swap1\n      pop\n        /* \"#utility.yul\":22562:22655   */\n      swap2\n      swap1\n      pop\n      jump\t// out\n        /* \"#utility.yul\":22661:22768   */\n    tag_312:\n        /* \"#utility.yul\":22705:22713   */\n      0x00\n        /* \"#utility.yul\":22755:22760   */\n      dup3\n        /* \"#utility.yul\":22749:22753   */\n      dup3\n        /* \"#utility.yul\":22745:22761   */\n      shl\n        /* \"#utility.yul\":22724:22761   */\n      swap1\n      pop\n        /* \"#utility.yul\":22661:22768   */\n      swap3\n      swap2\n      pop\n      pop\n      jump\t// out\n        /* \"#utility.yul\":22774:23167   */\n    tag_313:\n        /* \"#utility.yul\":22843:22849   */\n      0x00\n        /* \"#utility.yul\":22893:22894   */\n      0x08\n        /* \"#utility.yul\":22881:22891   */\n      dup4\n        /* \"#utility.yul\":22877:22895   */\n      mul\n        /* \"#utility.yul\":22916:23013   */\n      tag_570\n        /* \"#utility.yul\":22946:23012   */\n      0xffffffffffffffffffffffffffffffffffffffffffffffffffffffffffffffff\n        /* \"#utility.yul\":22935:22944   */\n      dup3\n        /* \"#utility.yul\":22916:23013   */\n      tag_312\n      jump\t// in\n    tag_570:\n        /* \"#utility.yul\":23034:23073   */\n      tag_571\n        /* \"#utility.yul\":23064:23072   */\n      dup7\n        /* \"#utility.yul\":23053:23062   */\n      dup4\n        /* \"#utility.yul\":23034:23073   */\n      tag_312\n      jump\t// in\n    tag_571:\n        /* \"#utility.yul\":23022:23073   */\n      swap6\n      pop\n        /* \"#utility.yul\":23106:23110   */\n      dup1\n        /* \"#utility.yul\":23102:23111   */\n      not\n        /* \"#utility.yul\":23095:23100   */\n      dup5\n        /* \"#utility.yul\":23091:23112   */\n      and\n        /* \"#utility.yul\":23082:23112   */\n      swap4\n      pop\n        /* \"#utility.yul\":23155:23159   */\n      dup1\n        /* \"#utility.yul\":23145:23153   */\n      dup7\n        /* \"#utility.yul\":23141:23160   */\n      and\n        /* \"#utility.yul\":23134:23139   */\n      dup5\n        /* \"#utility.yul\":23131:23161   */\n      or\n        /* \"#utility.yul\":23121:23161   */\n      swap3\n      pop\n        /* \"#utility.yul\":22850:23167   */\n      pop\n      pop\n        /* \"#utility.yul\":22774:23167   */\n      swap4\n      swap3\n      pop\n      pop\n      pop\n      jump\t// out\n        /* \"#utility.yul\":23173:23233   */\n    tag_314:\n        /* \"#utility.yul\":23201:23204   */\n      0x00\n        /* \"#utility.yul\":23222:23227   */\n      dup2\n        /* \"#utility.yul\":23215:23227   */\n      swap1\n      pop\n        /* \"#utility.yul\":23173:23233   */\n      swap2\n      swap1\n      pop\n      jump\t// out\n        /* \"#utility.yul\":23239:23381   */\n    tag_315:\n        /* \"#utility.yul\":23289:23298   */\n      0x00\n        /* \"#utility.yul\":23322:23375   */\n      tag_574\n        /* \"#utility.yul\":23340:23374   */\n      tag_575\n        /* \"#utility.yul\":23349:23373   */\n      tag_576\n        /* \"#utility.yul\":23367:23372   */\n      dup5\n        /* \"#utility.yul\":23349:23373   */\n      tag_262\n      jump\t// in\n    tag_576:\n        /* \"#utility.yul\":23340:23374   */\n      tag_314\n      jump\t// in\n    tag_575:\n        /* \"#utility.yul\":23322:23375   */\n      tag_262\n      jump\t// in\n    tag_574:\n        /* \"#utility.yul\":23309:23375   */\n      swap1\n      pop\n        /* \"#utility.yul\":23239:23381   */\n      swap2\n      swap1\n      pop\n      jump\t// out\n        /* \"#utility.yul\":23387:23462   */\n    tag_316:\n        /* \"#utility.yul\":23430:23433   */\n      0x00\n        /* \"#utility.yul\":23451:23456   */\n      dup2\n        /* \"#utility.yul\":23444:23456   */\n      swap1\n      pop\n        /* \"#utility.yul\":23387:23462   */\n      swap2\n      swap1\n      pop\n      jump\t// out\n        /* \"#utility.yul\":23468:23737   */\n    tag_317:\n        /* \"#utility.yul\":23578:23617   */\n      tag_579\n        /* \"#utility.yul\":23609:23616   */\n      dup4\n        /* \"#utility.yul\":23578:23617   */\n      tag_315\n      jump\t// in\n    tag_579:\n        /* \"#utility.yul\":23639:23730   */\n      tag_580\n        /* \"#utility.yul\":23688:23729   */\n      tag_581\n        /* \"#utility.yul\":23712:23728   */\n      dup3\n        /* \"#utility.yul\":23688:23729   */\n      tag_316\n      jump\t// in\n    tag_581:\n        /* \"#utility.yul\":23680:23686   */\n      dup5\n        /* \"#utility.yul\":23673:23677   */\n      dup5\n        /* \"#utility.yul\":23667:23678   */\n      sload\n        /* \"#utility.yul\":23639:23730   */\n      tag_313\n      jump\t// in\n    tag_580:\n        /* \"#utility.yul\":23633:23637   */\n      dup3\n        /* \"#utility.yul\":23626:23731   */\n      sstore\n        /* \"#utility.yul\":23544:23737   */\n      pop\n        /* \"#utility.yul\":23468:23737   */\n      pop\n      pop\n      pop\n      jump\t// out\n        /* \"#utility.yul\":23743:23816   */\n    tag_318:\n        /* \"#utility.yul\":23788:23791   */\n      0x00\n        /* \"#utility.yul\":23743:23816   */\n      swap1\n      jump\t// out\n        /* \"#utility.yul\":23822:24011   */\n    tag_319:\n        /* \"#utility.yul\":23899:23931   */\n      tag_584\n      tag_318\n      jump\t// in\n    tag_584:\n        /* \"#utility.yul\":23940:24005   */\n      tag_585\n        /* \"#utility.yul\":23998:24004   */\n      dup2\n        /* \"#utility.yul\":23990:23996   */\n      dup5\n        /* \"#utility.yul\":23984:23988   */\n      dup5\n        /* \"#utility.yul\":23940:24005   */\n      tag_317\n      jump\t// in\n    tag_585:\n        /* \"#utility.yul\":23875:24011   */\n      pop\n        /* \"#utility.yul\":23822:24011   */\n      pop\n      pop\n      jump\t// out\n        /* \"#utility.yul\":24017:24203   */\n    tag_320:\n        /* \"#utility.yul\":24077:24197   */\n    tag_587:\n        /* \"#utility.yul\":24094:24097   */\n      dup2\n        /* \"#utility.yul\":24087:24092   */\n      dup2\n        /* \"#utility.yul\":24084:24098   */\n      lt\n        /* \"#utility.yul\":24077:24197   */\n      iszero\n      tag_589\n      jumpi\n        /* \"#utility.yul\":24148:24187   */\n      tag_590\n        /* \"#utility.yul\":24185:24186   */\n      0x00\n        /* \"#utility.yul\":24178:24183   */\n      dup3\n        /* \"#utility.yul\":24148:24187   */\n      tag_319\n      jump\t// in\n    tag_590:\n        /* \"#utility.yul\":24121:24122   */\n      0x01\n        /* \"#utility.yul\":24114:24119   */\n      dup2\n        /* \"#utility.yul\":24110:24123   */\n      add\n        /* \"#utility.yul\":24101:24123   */\n      swap1\n      pop\n        /* \"#utility.yul\":24077:24197   */\n      jump(tag_587)\n    tag_589:\n        /* \"#utility.yul\":24017:24203   */\n      pop\n      pop\n      jump\t// out\n        /* \"#utility.yul\":24209:24752   */\n    tag_321:\n        /* \"#utility.yul\":24310:24312   */\n      0x1f\n        /* \"#utility.yul\":24305:24308   */\n      dup3\n        /* \"#utility.yul\":24302:24313   */\n      gt\n        /* \"#utility.yul\":24299:24745   */\n      iszero\n      tag_592\n      jumpi\n        /* \"#utility.yul\":24344:24382   */\n      tag_593\n        /* \"#utility.yul\":24376:24381   */\n      dup2\n        /* \"#utility.yul\":24344:24382   */\n      tag_310\n      jump\t// in\n    tag_593:\n        /* \"#utility.yul\":24428:24457   */\n      tag_594\n        /* \"#utility.yul\":24446:24456   */\n      dup5\n        /* \"#utility.yul\":24428:24457   */\n      tag_311\n      jump\t// in\n    tag_594:\n        /* \"#utility.yul\":24418:24426   */\n      dup2\n        /* \"#utility.yul\":24414:24458   */\n      add\n        /* \"#utility.yul\":24611:24613   */\n      0x20\n        /* \"#utility.yul\":24599:24609   */\n      dup6\n        /* \"#utility.yul\":24596:24614   */\n      lt\n        /* \"#utility.yul\":24593:24642   */\n      iszero\n      tag_595\n      jumpi\n        /* \"#utility.yul\":24632:24640   */\n      dup2\n        /* \"#utility.yul\":24617:24640   */\n      swap1\n      pop\n        /* \"#utility.yul\":24593:24642   */\n    tag_595:\n        /* \"#utility.yul\":24655:24735   */\n      tag_596\n        /* \"#utility.yul\":24711:24733   */\n      tag_597\n        /* \"#utility.yul\":24729:24732   */\n      dup6\n        /* \"#utility.yul\":24711:24733   */\n      tag_311\n      jump\t// in\n    tag_597:\n        /* \"#utility.yul\":24701:24709   */\n      dup4\n        /* \"#utility.yul\":24697:24734   */\n      add\n        /* \"#utility.yul\":24684:24695   */\n      dup3\n        /* \"#utility.yul\":24655:24735   */\n      tag_320\n      jump\t// in\n    tag_596:\n        /* \"#utility.yul\":24314:24745   */\n      pop\n      pop\n        /* \"#utility.yul\":24299:24745   */\n    tag_592:\n        /* \"#utility.yul\":24209:24752   */\n      pop\n      pop\n      pop\n      jump\t// out\n        /* \"#utility.yul\":24758:24875   */\n    tag_322:\n        /* \"#utility.yul\":24812:24820   */\n      0x00\n        /* \"#utility.yul\":24862:24867   */\n      dup3\n        /* \"#utility.yul\":24856:24860   */\n      dup3\n        /* \"#utility.yul\":24852:24868   */\n      shr\n        /* \"#utility.yul\":24831:24868   */\n      swap1\n      pop\n        /* \"#utility.yul\":24758:24875   */\n      swap3\n      swap2\n      pop\n      pop\n      jump\t// out\n        /* \"#utility.yul\":24881:25050   */\n    tag_323:\n        /* \"#utility.yul\":24925:24931   */\n      0x00\n        /* \"#utility.yul\":24958:25009   */\n      tag_600\n        /* \"#utility.yul\":25006:25007   */\n      0x00\n        /* \"#utility.yul\":25002:25008   */\n      not\n        /* \"#utility.yul\":24994:24999   */\n      dup5\n        /* \"#utility.yul\":24991:24992   */\n      0x08\n        /* \"#utility.yul\":24987:25000   */\n      mul\n        /* \"#utility.yul\":24958:25009   */\n      tag_322\n      jump\t// in\n    tag_600:\n        /* \"#utility.yul\":24954:25010   */\n      not\n        /* \"#utility.yul\":25039:25043   */\n      dup1\n        /* \"#utility.yul\":25033:25037   */\n      dup4\n        /* \"#utility.yul\":25029:25044   */\n      and\n        /* \"#utility.yul\":25019:25044   */\n      swap2\n      pop\n        /* \"#utility.yul\":24932:25050   */\n      pop\n        /* \"#utility.yul\":24881:25050   */\n      swap3\n      swap2\n      pop\n      pop\n      jump\t// out\n        /* \"#utility.yul\":25055:25350   */\n    tag_324:\n        /* \"#utility.yul\":25131:25135   */\n      0x00\n        /* \"#utility.yul\":25277:25306   */\n      tag_602\n        /* \"#utility.yul\":25302:25305   */\n      dup4\n        /* \"#utility.yul\":25296:25300   */\n      dup4\n        /* \"#utility.yul\":25277:25306   */\n      tag_323\n      jump\t// in\n    tag_602:\n        /* \"#utility.yul\":25269:25306   */\n      swap2\n      pop\n        /* \"#utility.yul\":25339:25342   */\n      dup3\n        /* \"#utility.yul\":25336:25337   */\n      0x02\n        /* \"#utility.yul\":25332:25343   */\n      mul\n        /* \"#utility.yul\":25326:25330   */\n      dup3\n        /* \"#utility.yul\":25323:25344   */\n      or\n        /* \"#utility.yul\":25315:25344   */\n      swap1\n      pop\n        /* \"#utility.yul\":25055:25350   */\n      swap3\n      swap2\n      pop\n      pop\n      jump\t// out\n        /* \"#utility.yul\":25355:26750   */\n    tag_188:\n        /* \"#utility.yul\":25472:25509   */\n      tag_604\n        /* \"#utility.yul\":25505:25508   */\n      dup3\n        /* \"#utility.yul\":25472:25509   */\n      tag_279\n      jump\t// in\n    tag_604:\n        /* \"#utility.yul\":25574:25592   */\n      0xffffffffffffffff\n        /* \"#utility.yul\":25566:25572   */\n      dup2\n        /* \"#utility.yul\":25563:25593   */\n      gt\n        /* \"#utility.yul\":25560:25616   */\n      iszero\n      tag_605\n      jumpi\n        /* \"#utility.yul\":25596:25614   */\n      tag_606\n      tag_106\n      jump\t// in\n    tag_606:\n        /* \"#utility.yul\":25560:25616   */\n    tag_605:\n        /* \"#utility.yul\":25640:25678   */\n      tag_607\n        /* \"#utility.yul\":25672:25676   */\n      dup3\n        /* \"#utility.yul\":25666:25677   */\n      sload\n        /* \"#utility.yul\":25640:25678   */\n      tag_246\n      jump\t// in\n    tag_607:\n        /* \"#utility.yul\":25725:25792   */\n      tag_608\n        /* \"#utility.yul\":25785:25791   */\n      dup3\n        /* \"#utility.yul\":25777:25783   */\n      dup3\n        /* \"#utility.yul\":25771:25775   */\n      dup6\n        /* \"#utility.yul\":25725:25792   */\n      tag_321\n      jump\t// in\n    tag_608:\n        /* \"#utility.yul\":25819:25820   */\n      0x00\n        /* \"#utility.yul\":25843:25847   */\n      0x20\n        /* \"#utility.yul\":25830:25847   */\n      swap1\n      pop\n        /* \"#utility.yul\":25875:25877   */\n      0x1f\n        /* \"#utility.yul\":25867:25873   */\n      dup4\n        /* \"#utility.yul\":25864:25878   */\n      gt\n        /* \"#utility.yul\":25892:25893   */\n      0x01\n        /* \"#utility.yul\":25887:26505   */\n      dup2\n      eq\n      tag_610\n      jumpi\n        /* \"#utility.yul\":26549:26550   */\n      0x00\n        /* \"#utility.yul\":26566:26572   */\n      dup5\n        /* \"#utility.yul\":26563:26640   */\n      iszero\n      tag_611\n      jumpi\n        /* \"#utility.yul\":26615:26624   */\n      dup3\n        /* \"#utility.yul\":26610:26613   */\n      dup8\n        /* \"#utility.yul\":26606:26625   */\n      add\n        /* \"#utility.yul\":26600:26626   */\n      mload\n        /* \"#utility.yul\":26591:26626   */\n      swap1\n      pop\n        /* \"#utility.yul\":26563:26640   */\n    tag_611:\n        /* \"#utility.yul\":26666:26733   */\n      tag_612\n        /* \"#utility.yul\":26726:26732   */\n      dup6\n        /* \"#utility.yul\":26719:26724   */\n      dup3\n        /* \"#utility.yul\":26666:26733   */\n      tag_324\n      jump\t// in\n    tag_612:\n        /* \"#utility.yul\":26660:26664   */\n      dup7\n        /* \"#utility.yul\":26653:26734   */\n      sstore\n        /* \"#utility.yul\":26522:26744   */\n      pop\n        /* \"#utility.yul\":25857:26744   */\n      jump(tag_609)\n        /* \"#utility.yul\":25887:26505   */\n    tag_610:\n        /* \"#utility.yul\":25939:25943   */\n      0x1f\n        /* \"#utility.yul\":25935:25944   */\n      not\n        /* \"#utility.yul\":25927:25933   */\n      dup5\n        /* \"#utility.yul\":25923:25945   */\n      and\n        /* \"#utility.yul\":25973:26010   */\n      tag_613\n        /* \"#utility.yul\":26005:26009   */\n      dup7\n        /* \"#utility.yul\":25973:26010   */\n      tag_310\n      jump\t// in\n    tag_613:\n        /* \"#utility.yul\":26032:26033   */\n      0x00\n        /* \"#utility.yul\":26046:26254   */\n    tag_614:\n        /* \"#utility.yul\":26060:26067   */\n      dup3\n        /* \"#utility.yul\":26057:26058   */\n      dup2\n        /* \"#utility.yul\":26054:26068   */\n      lt\n        /* \"#utility.yul\":26046:26254   */\n      iszero\n      tag_616\n      jumpi\n        /* \"#utility.yul\":26139:26148   */\n      dup5\n        /* \"#utility.yul\":26134:26137   */\n      dup10\n        /* \"#utility.yul\":26130:26149   */\n      add\n        /* \"#utility.yul\":26124:26150   */\n      mload\n        /* \"#utility.yul\":26116:26122   */\n      dup3\n        /* \"#utility.yul\":26109:26151   */\n      sstore\n        /* \"#utility.yul\":26190:26191   */\n      0x01\n        /* \"#utility.yul\":26182:26188   */\n      dup3\n        /* \"#utility.yul\":26178:26192   */\n      add\n        /* \"#utility.yul\":26168:26192   */\n      swap2\n      pop\n        /* \"#utility.yul\":26237:26239   */\n      0x20\n        /* \"#utility.yul\":26226:26235   */\n      dup6\n        /* \"#utility.yul\":26222:26240   */\n      add\n        /* \"#utility.yul\":26209:26240   */\n      swap5\n      pop\n        /* \"#utility.yul\":26083:26087   */\n      0x20\n        /* \"#utility.yul\":26080:26081   */\n      dup2\n        /* \"#utility.yul\":26076:26088   */\n      add\n        /* \"#utility.yul\":26071:26088   */\n      swap1\n      pop\n        /* \"#utility.yul\":26046:26254   */\n      jump(tag_614)\n    tag_616:\n        /* \"#utility.yul\":26282:26288   */\n      dup7\n        /* \"#utility.yul\":26273:26280   */\n      dup4\n        /* \"#utility.yul\":26270:26289   */\n      lt\n        /* \"#utility.yul\":26267:26446   */\n      iszero\n      tag_617\n      jumpi\n        /* \"#utility.yul\":26340:26349   */\n      dup5\n        /* \"#utility.yul\":26335:26338   */\n      dup10\n        /* \"#utility.yul\":26331:26350   */\n      add\n        /* \"#utility.yul\":26325:26351   */\n      mload\n        /* \"#utility.yul\":26383:26431   */\n      tag_618\n        /* \"#utility.yul\":26425:26429   */\n      0x1f\n        /* \"#utility.yul\":26417:26423   */\n      dup10\n        /* \"#utility.yul\":26413:26430   */\n      and\n        /* \"#utility.yul\":26402:26411   */\n      dup3\n        /* \"#utility.yul\":26383:26431   */\n      tag_323\n      jump\t// in\n    tag_618:\n        /* \"#utility.yul\":26375:26381   */\n      dup4\n        /* \"#utility.yul\":26368:26432   */\n      sstore\n        /* \"#utility.yul\":26290:26446   */\n      pop\n        /* \"#utility.yul\":26267:26446   */\n    tag_617:\n        /* \"#utility.yul\":26492:26493   */\n      0x01\n        /* \"#utility.yul\":26488:26489   */\n      0x02\n        /* \"#utility.yul\":26480:26486   */\n      dup9\n        /* \"#utility.yul\":26476:26490   */\n      mul\n        /* \"#utility.yul\":26472:26494   */\n      add\n        /* \"#utility.yul\":26466:26470   */\n      dup9\n        /* \"#utility.yul\":26459:26495   */\n      sstore\n        /* \"#utility.yul\":25894:26505   */\n      pop\n      pop\n      pop\n        /* \"#utility.yul\":25857:26744   */\n    tag_609:\n      pop\n        /* \"#utility.yul\":25447:26750   */\n      pop\n      pop\n      pop\n        /* \"#utility.yul\":25355:26750   */\n      pop\n      pop\n      jump\t// out\n        /* \"#utility.yul\":26756:26924   */\n    tag_325:\n        /* \"#utility.yul\":26896:26916   */\n      0x4e6f20617661696c61626c65206e6f6465730000000000000000000000000000\n        /* \"#utility.yul\":26892:26893   */\n      0x00\n        /* \"#utility.yul\":26884:26890   */\n      dup3\n        /* \"#utility.yul\":26880:26894   */\n      add\n        /* \"#utility.yul\":26873:26917   */\n      mstore\n        /* \"#utility.yul\":26756:26924   */\n      pop\n      jump\t// out\n        /* \"#utility.yul\":26930:27296   */\n    tag_326:\n        /* \"#utility.yul\":27072:27075   */\n      0x00\n        /* \"#utility.yul\":27093:27160   */\n      tag_621\n        /* \"#utility.yul\":27157:27159   */\n      0x12\n        /* \"#utility.yul\":27152:27155   */\n      dup4\n        /* \"#utility.yul\":27093:27160   */\n      tag_286\n      jump\t// in\n    tag_621:\n        /* \"#utility.yul\":27086:27160   */\n      swap2\n      pop\n        /* \"#utility.yul\":27169:27262   */\n      tag_622\n        /* \"#utility.yul\":27258:27261   */\n      dup3\n        /* \"#utility.yul\":27169:27262   */\n      tag_325\n      jump\t// in\n    tag_622:\n        /* \"#utility.yul\":27287:27289   */\n      0x20\n        /* \"#utility.yul\":27282:27285   */\n      dup3\n        /* \"#utility.yul\":27278:27290   */\n      add\n        /* \"#utility.yul\":27271:27290   */\n      swap1\n      pop\n        /* \"#utility.yul\":26930:27296   */\n      swap2\n      swap1\n      pop\n      jump\t// out\n        /* \"#utility.yul\":27302:27721   */\n    tag_202:\n        /* \"#utility.yul\":27468:27472   */\n      0x00\n        /* \"#utility.yul\":27506:27508   */\n      0x20\n        /* \"#utility.yul\":27495:27504   */\n      dup3\n        /* \"#utility.yul\":27491:27509   */\n      add\n        /* \"#utility.yul\":27483:27509   */\n      swap1\n      pop\n        /* \"#utility.yul\":27555:27564   */\n      dup2\n        /* \"#utility.yul\":27549:27553   */\n      dup2\n        /* \"#utility.yul\":27545:27565   */\n      sub\n        /* \"#utility.yul\":27541:27542   */\n      0x00\n        /* \"#utility.yul\":27530:27539   */\n      dup4\n        /* \"#utility.yul\":27526:27543   */\n      add\n        /* \"#utility.yul\":27519:27566   */\n      mstore\n        /* \"#utility.yul\":27583:27714   */\n      tag_624\n        /* \"#utility.yul\":27709:27713   */\n      dup2\n        /* \"#utility.yul\":27583:27714   */\n      tag_326\n      jump\t// in\n    tag_624:\n        /* \"#utility.yul\":27575:27714   */\n      swap1\n      pop\n        /* \"#utility.yul\":27302:27721   */\n      swap2\n      swap1\n      pop\n      jump\t// out\n        /* \"#utility.yul\":27727:27889   */\n    tag_327:\n        /* \"#utility.yul\":27867:27881   */\n      0x556e617574686f72697a65640000000000000000000000000000000000000000\n        /* \"#utility.yul\":27863:27864   */\n      0x00\n        /* \"#utility.yul\":27855:27861   */\n      dup3\n        /* \"#utility.yul\":27851:27865   */\n      add\n        /* \"#utility.yul\":27844:27882   */\n      mstore\n        /* \"#utility.yul\":27727:27889   */\n      pop\n      jump\t// out\n        /* \"#utility.yul\":27895:28261   */\n    tag_328:\n        /* \"#utility.yul\":28037:28040   */\n      0x00\n        /* \"#utility.yul\":28058:28125   */\n      tag_627\n        /* \"#utility.yul\":28122:28124   */\n      0x0c\n        /* \"#utility.yul\":28117:28120   */\n      dup4\n        /* \"#utility.yul\":28058:28125   */\n      tag_286\n      jump\t// in\n    tag_627:\n        /* \"#utility.yul\":28051:28125   */\n      swap2\n      pop\n        /* \"#utility.yul\":28134:28227   */\n      tag_628\n        /* \"#utility.yul\":28223:28226   */\n      dup3\n        /* \"#utility.yul\":28134:28227   */\n      tag_327\n      jump\t// in\n    tag_628:\n        /* \"#utility.yul\":28252:28254   */\n      0x20\n        /* \"#utility.yul\":28247:28250   */\n      dup3\n        /* \"#utility.yul\":28243:28255   */\n      add\n        /* \"#utility.yul\":28236:28255   */\n      swap1\n      pop\n        /* \"#utility.yul\":27895:28261   */\n      swap2\n      swap1\n      pop\n      jump\t// out\n        /* \"#utility.yul\":28267:28686   */\n    tag_222:\n        /* \"#utility.yul\":28433:28437   */\n      0x00\n        /* \"#utility.yul\":28471:28473   */\n      0x20\n        /* \"#utility.yul\":28460:28469   */\n      dup3\n        /* \"#utility.yul\":28456:28474   */\n      add\n        /* \"#utility.yul\":28448:28474   */\n      swap1\n      pop\n        /* \"#utility.yul\":28520:28529   */\n      dup2\n        /* \"#utility.yul\":28514:28518   */\n      dup2\n        /* \"#utility.yul\":28510:28530   */\n      sub\n        /* \"#utility.yul\":28506:28507   */\n      0x00\n        /* \"#utility.yul\":28495:28504   */\n      dup4\n        /* \"#utility.yul\":28491:28508   */\n      add\n        /* \"#utility.yul\":28484:28531   */\n      mstore\n        /* \"#utility.yul\":28548:28679   */\n      tag_630\n        /* \"#utility.yul\":28674:28678   */\n      dup2\n        /* \"#utility.yul\":28548:28679   */\n      tag_328\n      jump\t// in\n    tag_630:\n        /* \"#utility.yul\":28540:28679   */\n      swap1\n      pop\n        /* \"#utility.yul\":28267:28686   */\n      swap2\n      swap1\n      pop\n      jump\t// out\n        /* \"#utility.yul\":28692:28861   */\n    tag_329:\n        /* \"#utility.yul\":28832:28853   */\n      0x4e6f646520646f6573206e6f7420657869737400000000000000000000000000\n        /* \"#utility.yul\":28828:28829   */\n      0x00\n        /* \"#utility.yul\":28820:28826   */\n      dup3\n        /* \"#utility.yul\":28816:28830   */\n      add\n        /* \"#utility.yul\":28809:28854   */\n      mstore\n        /* \"#utility.yul\":28692:28861   */\n      pop\n      jump\t// out\n        /* \"#utility.yul\":28867:29233   */\n    tag_330:\n        /* \"#utility.yul\":29009:29012   */\n      0x00\n        /* \"#utility.yul\":29030:29097   */\n      tag_633\n        /* \"#utility.yul\":29094:29096   */\n      0x13\n        /* \"#utility.yul\":29089:29092   */\n      dup4\n        /* \"#utility.yul\":29030:29097   */\n      tag_286\n      jump\t// in\n    tag_633:\n        /* \"#utility.yul\":29023:29097   */\n      swap2\n      pop\n        /* \"#utility.yul\":29106:29199   */\n      tag_634\n        /* \"#utility.yul\":29195:29198   */\n      dup3\n        /* \"#utility.yul\":29106:29199   */\n      tag_329\n      jump\t// in\n    tag_634:\n        /* \"#utility.yul\":29224:29226   */\n      0x20\n        /* \"#utility.yul\":29219:29222   */\n      dup3\n        /* \"#utility.yul\":29215:29227   */\n      add\n        /* \"#utility.yul\":29208:29227   */\n      swap1\n      pop\n        /* \"#utility.yul\":28867:29233   */\n      swap2\n      swap1\n      pop\n      jump\t// out\n        /* \"#utility.yul\":29239:29658   */\n    tag_241:\n        /* \"#utility.yul\":29405:29409   */\n      0x00\n        /* \"#utility.yul\":29443:29445   */\n      0x20\n        /* \"#utility.yul\":29432:29441   */\n      dup3\n        /* \"#utility.yul\":29428:29446   */\n      add\n        /* \"#utility.yul\":29420:29446   */\n      swap1\n      pop\n        /* \"#utility.yul\":29492:29501   */\n      dup2\n        /* \"#utility.yul\":29486:29490   */\n      dup2\n        /* \"#utility.yul\":29482:29502   */\n      sub\n        /* \"#utility.yul\":29478:29479   */\n      0x00\n        /* \"#utility.yul\":29467:29476   */\n      dup4\n        /* \"#utility.yul\":29463:29480   */\n      add\n        /* \"#utility.yul\":29456:29503   */\n      mstore\n        /* \"#utility.yul\":29520:29651   */\n      tag_636\n        /* \"#utility.yul\":29646:29650   */\n      dup2\n        /* \"#utility.yul\":29520:29651   */\n      tag_330\n      jump\t// in\n    tag_636:\n        /* \"#utility.yul\":29512:29651   */\n      swap1\n      pop\n        /* \"#utility.yul\":29239:29658   */\n      swap2\n      swap1\n      pop\n      jump\t// out\n\n    auxdata: 0xa2646970667358221220bbed9f657c05cd7d415418f6b3d869b99a6df26fb95ca3a56aa01e71e69ffff964736f6c63430008160033\n}\n",
				"bytecode": {
					"linkReferences": {},
					"object": "608060405234801561000f575f80fd5b503360025f6101000a81548173ffffffffffffffffffffffffffffffffffffffff021916908373ffffffffffffffffffffffffffffffffffffffff1602179055506122618061005d5f395ff3fe608060405234801561000f575f80fd5b50600436106100fe575f3560e01c80637dd77d2b11610095578063a991005411610064578063a9910054146102f7578063b49f33c814610313578063b65814a61461032f578063fe72ae131461034b576100fe565b80637dd77d2b1461026f5780638da5cb5b1461028b578063a1174e7d146102a9578063a9860308146102c7576100fe565b80632a85be1e116100d15780632a85be1e146101af57806350f1c985146101df57806357d7f21f1461020f57806364f0c0b81461023f576100fe565b806311bd77fe14610102578063189a5a171461011e5780631f37bdd21461014f5780632804401c1461017f575b5f80fd5b61011c600480360381019061011791906113b0565b61037b565b005b610138600480360381019061013391906113ee565b610562565b604051610146929190611437565b60405180910390f35b6101696004803603810190610164919061159a565b6105a0565b6040516101769190611716565b60405180910390f35b6101996004803603810190610194919061159a565b610770565b6040516101a6919061177e565b60405180910390f35b6101c960048036038101906101c4919061179e565b6108aa565b6040516101d6919061177e565b60405180910390f35b6101f960048036038101906101f4919061179e565b6108b2565b604051610206919061177e565b60405180910390f35b610229600480360381019061022491906118da565b6108ba565b604051610236919061177e565b60405180910390f35b61025960048036038101906102549190611921565b610a17565b604051610266919061194c565b60405180910390f35b61028960048036038101906102849190611965565b610b2e565b005b610293610d7d565b6040516102a0919061194c565b60405180910390f35b6102b1610da2565b6040516102be9190611ac0565b60405180910390f35b6102e160048036038101906102dc91906113ee565b610e2d565b6040516102ee9190611b1c565b60405180910390f35b610311600480360381019061030c919061159a565b610ee1565b005b61032d600480360381019061032891906113b0565b61111c565b005b6103496004803603810190610344919061179e565b61122f565b005b61036560048036038101906103609190611921565b611233565b604051610372919061194c565b60405180910390f35b5f73ffffffffffffffffffffffffffffffffffffffff165f808473ffffffffffffffffffffffffffffffffffffffff1673ffffffffffffffffffffffffffffffffffffffff1681526020019081526020015f205f015f9054906101000a900473ffffffffffffffffffffffffffffffffffffffff1673ffffffffffffffffffffffffffffffffffffffff1614610446576040517f08c379a000000000000000000000000000000000000000000000000000000000815260040161043d90611b7f565b60405180910390fd5b60405180604001604052808373ffffffffffffffffffffffffffffffffffffffff168152602001828152505f808473ffffffffffffffffffffffffffffffffffffffff1673ffffffffffffffffffffffffffffffffffffffff1681526020019081526020015f205f820151815f015f6101000a81548173ffffffffffffffffffffffffffffffffffffffff021916908373ffffffffffffffffffffffffffffffffffffffff16021790555060208201518160010155905050600182908060018154018082558091505060019003905f5260205f20015f9091909190916101000a81548173ffffffffffffffffffffffffffffffffffffffff021916908373ffffffffffffffffffffffffffffffffffffffff1602179055505050565b5f602052805f5260405f205f91509050805f015f9054906101000a900473ffffffffffffffffffffffffffffffffffffffff16908060010154905082565b60605f602090505f8160018386516105b89190611bca565b6105c29190611bfd565b6105cc9190611c5d565b90505f8167ffffffffffffffff8111156105e9576105e8611476565b5b60405190808252806020026020018201604052801561061c57816020015b60608152602001906001900390816106075790505b5090505f5b82811015610764575f84826106369190611c8d565b90505f85826106459190611bca565b9050875181111561065557875190505b5f82826106629190611bfd565b67ffffffffffffffff81111561067b5761067a611476565b5b6040519080825280601f01601f1916602001820160405280156106ad5781602001600182028036833780820191505090505b5090505f8390505b82811015610734578981815181106106d0576106cf611cce565b5b602001015160f81c60f81b8285836106e89190611bfd565b815181106106f9576106f8611cce565b5b60200101907effffffffffffffffffffffffffffffffffffffffffffffffffffffffffffff191690815f1a90535080806001019150506106b5565b508085858151811061074957610748611cce565b5b60200260200101819052505050508080600101915050610621565b50809350505050919050565b60605f6003836040516107839190611d35565b908152602001604051809103902060010154116107d5576040517f08c379a00000000000000000000000000000000000000000000000000000000081526004016107cc90611d95565b60405180910390fd5b5f6004836040516107e69190611d35565b908152602001604051809103902080548060200260200160405190810160405280929190818152602001828054801561087157602002820191905f5260205f20905b815f9054906101000a900473ffffffffffffffffffffffffffffffffffffffff1673ffffffffffffffffffffffffffffffffffffffff1681526020019060010190808311610828575b5050505050905060605f5b825181101561089257808060010191505061087c565b505f61089d826108ba565b9050809350505050919050565b606092915050565b606092915050565b60605f805b83518110156108fe578381815181106108db576108da611cce565b5b602002602001015151826108ef9190611bca565b915080806001019150506108bf565b505f8167ffffffffffffffff81111561091a57610919611476565b5b6040519080825280601f01601f19166020018201604052801561094c5781602001600182028036833780820191505090505b5090505f805b8551811015610a0b575f86828151811061096f5761096e611cce565b5b602002602001015190505f5b81518110156109fc5781818151811061099757610996611cce565b5b602001015160f81c60f81b8585806109ae90611db3565b9650815181106109c1576109c0611cce565b5b60200101907effffffffffffffffffffffffffffffffffffffffffffffffffffffffffffff191690815f1a905350808060010191505061097b565b50508080600101915050610952565b50819350505050919050565b5f8060018054905090505f603290505f8203610a37575f92505050610b29565b5f82600143610a469190611bfd565b405f1c610a539190611dfa565b90505f5b83811015610b21575f6001858385610a6f9190611bca565b610a799190611dfa565b81548110610a8a57610a89611cce565b5b905f5260205f20015f9054906101000a900473ffffffffffffffffffffffffffffffffffffffff1690508387610ac09190611bca565b5f808373ffffffffffffffffffffffffffffffffffffffff1673ffffffffffffffffffffffffffffffffffffffff1681526020019081526020015f20600101541115610b13578095505050505050610b29565b508080600101915050610a57565b505f93505050505b919050565b5f82519050604051806040016040528085815260200182815250600383604051610b589190611d35565b90815260200160405180910390205f820151815f019081610b799190612024565b50602082015181600101559050505f610b91846105a0565b90505f5b8151811015610d75575f828281518110610bb257610bb1611cce565b5b60200260200101515190505f806003905060036001805490501015610bda5760018054905090505b5b80821015610d65578180610bee90611db3565b9250505f610bfb84610a17565b90505f73ffffffffffffffffffffffffffffffffffffffff168173ffffffffffffffffffffffffffffffffffffffff1603610c6b576040517f08c379a0000000000000000000000000000000000000000000000000000000008152600401610c629061213d565b60405180910390fd5b600488604051610c7b9190611d35565b908152602001604051809103902081908060018154018082558091505060019003905f5260205f20015f9091909190916101000a81548173ffffffffffffffffffffffffffffffffffffffff021916908373ffffffffffffffffffffffffffffffffffffffff160217905550610d0b81878781518110610cfe57610cfd611cce565b5b602002602001015161122f565b610d5f81855f808573ffffffffffffffffffffffffffffffffffffffff1673ffffffffffffffffffffffffffffffffffffffff1681526020019081526020015f2060010154610d5a9190611bfd565b61111c565b50610bdb565b5050508080600101915050610b95565b505050505050565b60025f9054906101000a900473ffffffffffffffffffffffffffffffffffffffff1681565b60606001805480602002602001604051908101604052809291908181526020018280548015610e2357602002820191905f5260205f20905b815f9054906101000a900473ffffffffffffffffffffffffffffffffffffffff1673ffffffffffffffffffffffffffffffffffffffff1681526020019060010190808311610dda575b5050505050905090565b610e3561126e565b5f808373ffffffffffffffffffffffffffffffffffffffff1673ffffffffffffffffffffffffffffffffffffffff1681526020019081526020015f206040518060400160405290815f82015f9054906101000a900473ffffffffffffffffffffffffffffffffffffffff1673ffffffffffffffffffffffffffffffffffffffff1673ffffffffffffffffffffffffffffffffffffffff1681526020016001820154815250509050919050565b5f600382604051610ef29190611d35565b90815260200160405180910390206001015411610f44576040517f08c379a0000000000000000000000000000000000000000000000000000000008152600401610f3b90611d95565b60405180910390fd5b60025f9054906101000a900473ffffffffffffffffffffffffffffffffffffffff1673ffffffffffffffffffffffffffffffffffffffff163373ffffffffffffffffffffffffffffffffffffffff1614610fd3576040517f08c379a0000000000000000000000000000000000000000000000000000000008152600401610fca906121a5565b60405180910390fd5b5f600482604051610fe49190611d35565b908152602001604051809103902080548060200260200160405190810160405280929190818152602001828054801561106f57602002820191905f5260205f20905b815f9054906101000a900473ffffffffffffffffffffffffffffffffffffffff1673ffffffffffffffffffffffffffffffffffffffff1681526020019060010190808311611026575b505050505090505f5b81518110156110b8575f82828151811061109557611094611cce565b5b602002602001015190506110a981856108b2565b50508080600101915050611078565b506003826040516110c99190611d35565b90815260200160405180910390205f8082015f6110e6919061129c565b600182015f905550506004826040516110ff9190611d35565b90815260200160405180910390205f61111891906112d9565b5050565b5f73ffffffffffffffffffffffffffffffffffffffff165f808473ffffffffffffffffffffffffffffffffffffffff1673ffffffffffffffffffffffffffffffffffffffff1681526020019081526020015f205f015f9054906101000a900473ffffffffffffffffffffffffffffffffffffffff1673ffffffffffffffffffffffffffffffffffffffff16036111e7576040517f08c379a00000000000000000000000000000000000000000000000000000000081526004016111de9061220d565b60405180910390fd5b805f808473ffffffffffffffffffffffffffffffffffffffff1673ffffffffffffffffffffffffffffffffffffffff1681526020019081526020015f20600101819055505050565b5050565b60018181548110611242575f80fd5b905f5260205f20015f915054906101000a900473ffffffffffffffffffffffffffffffffffffffff1681565b60405180604001604052805f73ffffffffffffffffffffffffffffffffffffffff1681526020015f81525090565b5080546112a890611e57565b5f825580601f106112b957506112d6565b601f0160209004905f5260205f20908101906112d591906112f7565b5b50565b5080545f8255905f5260205f20908101906112f491906112f7565b50565b5b8082111561130e575f815f9055506001016112f8565b5090565b5f604051905090565b5f80fd5b5f80fd5b5f73ffffffffffffffffffffffffffffffffffffffff82169050919050565b5f61134c82611323565b9050919050565b61135c81611342565b8114611366575f80fd5b50565b5f8135905061137781611353565b92915050565b5f819050919050565b61138f8161137d565b8114611399575f80fd5b50565b5f813590506113aa81611386565b92915050565b5f80604083850312156113c6576113c561131b565b5b5f6113d385828601611369565b92505060206113e48582860161139c565b9150509250929050565b5f602082840312156114035761140261131b565b5b5f61141084828501611369565b91505092915050565b61142281611342565b82525050565b6114318161137d565b82525050565b5f60408201905061144a5f830185611419565b6114576020830184611428565b9392505050565b5f80fd5b5f80fd5b5f601f19601f8301169050919050565b7f4e487b71000000000000000000000000000000000000000000000000000000005f52604160045260245ffd5b6114ac82611466565b810181811067ffffffffffffffff821117156114cb576114ca611476565b5b80604052505050565b5f6114dd611312565b90506114e982826114a3565b919050565b5f67ffffffffffffffff82111561150857611507611476565b5b61151182611466565b9050602081019050919050565b828183375f83830152505050565b5f61153e611539846114ee565b6114d4565b90508281526020810184848401111561155a57611559611462565b5b61156584828561151e565b509392505050565b5f82601f8301126115815761158061145e565b5b813561159184826020860161152c565b91505092915050565b5f602082840312156115af576115ae61131b565b5b5f82013567ffffffffffffffff8111156115cc576115cb61131f565b5b6115d88482850161156d565b91505092915050565b5f81519050919050565b5f82825260208201905092915050565b5f819050602082019050919050565b5f81519050919050565b5f82825260208201905092915050565b5f5b83811015611641578082015181840152602081019050611626565b5f8484015250505050565b5f6116568261160a565b6116608185611614565b9350611670818560208601611624565b61167981611466565b840191505092915050565b5f61168f838361164c565b905092915050565b5f602082019050919050565b5f6116ad826115e1565b6116b781856115eb565b9350836020820285016116c9856115fb565b805f5b8581101561170457848403895281516116e58582611684565b94506116f083611697565b925060208a019950506001810190506116cc565b50829750879550505050505092915050565b5f6020820190508181035f83015261172e81846116a3565b905092915050565b5f82825260208201905092915050565b5f6117508261160a565b61175a8185611736565b935061176a818560208601611624565b61177381611466565b840191505092915050565b5f6020820190508181035f8301526117968184611746565b905092915050565b5f80604083850312156117b4576117b361131b565b5b5f6117c185828601611369565b925050602083013567ffffffffffffffff8111156117e2576117e161131f565b5b6117ee8582860161156d565b9150509250929050565b5f67ffffffffffffffff82111561181257611811611476565b5b602082029050602081019050919050565b5f80fd5b5f611839611834846117f8565b6114d4565b9050808382526020820190506020840283018581111561185c5761185b611823565b5b835b818110156118a357803567ffffffffffffffff8111156118815761188061145e565b5b80860161188e898261156d565b8552602085019450505060208101905061185e565b5050509392505050565b5f82601f8301126118c1576118c061145e565b5b81356118d1848260208601611827565b91505092915050565b5f602082840312156118ef576118ee61131b565b5b5f82013567ffffffffffffffff81111561190c5761190b61131f565b5b611918848285016118ad565b91505092915050565b5f602082840312156119365761193561131b565b5b5f6119438482850161139c565b91505092915050565b5f60208201905061195f5f830184611419565b92915050565b5f805f6060848603121561197c5761197b61131b565b5b5f84013567ffffffffffffffff8111156119995761199861131f565b5b6119a58682870161156d565b935050602084013567ffffffffffffffff8111156119c6576119c561131f565b5b6119d28682870161156d565b925050604084013567ffffffffffffffff8111156119f3576119f261131f565b5b6119ff8682870161156d565b9150509250925092565b5f81519050919050565b5f82825260208201905092915050565b5f819050602082019050919050565b611a3b81611342565b82525050565b5f611a4c8383611a32565b60208301905092915050565b5f602082019050919050565b5f611a6e82611a09565b611a788185611a13565b9350611a8383611a23565b805f5b83811015611ab3578151611a9a8882611a41565b9750611aa583611a58565b925050600181019050611a86565b5085935050505092915050565b5f6020820190508181035f830152611ad88184611a64565b905092915050565b611ae98161137d565b82525050565b604082015f820151611b035f850182611a32565b506020820151611b166020850182611ae0565b50505050565b5f604082019050611b2f5f830184611aef565b92915050565b7f4e6f646520616c726561647920657869737473000000000000000000000000005f82015250565b5f611b69601383611736565b9150611b7482611b35565b602082019050919050565b5f6020820190508181035f830152611b9681611b5d565b9050919050565b7f4e487b71000000000000000000000000000000000000000000000000000000005f52601160045260245ffd5b5f611bd48261137d565b9150611bdf8361137d565b9250828201905080821115611bf757611bf6611b9d565b5b92915050565b5f611c078261137d565b9150611c128361137d565b9250828203905081811115611c2a57611c29611b9d565b5b92915050565b7f4e487b71000000000000000000000000000000000000000000000000000000005f52601260045260245ffd5b5f611c678261137d565b9150611c728361137d565b925082611c8257611c81611c30565b5b828204905092915050565b5f611c978261137d565b9150611ca28361137d565b9250828202611cb08161137d565b91508282048414831517611cc757611cc6611b9d565b5b5092915050565b7f4e487b71000000000000000000000000000000000000000000000000000000005f52603260045260245ffd5b5f81905092915050565b5f611d0f8261160a565b611d198185611cfb565b9350611d29818560208601611624565b80840191505092915050565b5f611d408284611d05565b915081905092915050565b7f46696c65206e6f7420666f756e640000000000000000000000000000000000005f82015250565b5f611d7f600e83611736565b9150611d8a82611d4b565b602082019050919050565b5f6020820190508181035f830152611dac81611d73565b9050919050565b5f611dbd8261137d565b91507fffffffffffffffffffffffffffffffffffffffffffffffffffffffffffffffff8203611def57611dee611b9d565b5b600182019050919050565b5f611e048261137d565b9150611e0f8361137d565b925082611e1f57611e1e611c30565b5b828206905092915050565b7f4e487b71000000000000000000000000000000000000000000000000000000005f52602260045260245ffd5b5f6002820490506001821680611e6e57607f821691505b602082108103611e8157611e80611e2a565b5b50919050565b5f819050815f5260205f209050919050565b5f6020601f8301049050919050565b5f82821b905092915050565b5f60088302611ee37fffffffffffffffffffffffffffffffffffffffffffffffffffffffffffffffff82611ea8565b611eed8683611ea8565b95508019841693508086168417925050509392505050565b5f819050919050565b5f611f28611f23611f1e8461137d565b611f05565b61137d565b9050919050565b5f819050919050565b611f4183611f0e565b611f55611f4d82611f2f565b848454611eb4565b825550505050565b5f90565b611f69611f5d565b611f74818484611f38565b505050565b5b81811015611f9757611f8c5f82611f61565b600181019050611f7a565b5050565b601f821115611fdc57611fad81611e87565b611fb684611e99565b81016020851015611fc5578190505b611fd9611fd185611e99565b830182611f79565b50505b505050565b5f82821c905092915050565b5f611ffc5f1984600802611fe1565b1980831691505092915050565b5f6120148383611fed565b9150826002028217905092915050565b61202d8261160a565b67ffffffffffffffff81111561204657612045611476565b5b6120508254611e57565b61205b828285611f9b565b5f60209050601f83116001811461208c575f841561207a578287015190505b6120848582612009565b8655506120eb565b601f19841661209a86611e87565b5f5b828110156120c15784890151825560018201915060208501945060208101905061209c565b868310156120de57848901516120da601f891682611fed565b8355505b6001600288020188555050505b505050505050565b7f4e6f20617661696c61626c65206e6f64657300000000000000000000000000005f82015250565b5f612127601283611736565b9150612132826120f3565b602082019050919050565b5f6020820190508181035f8301526121548161211b565b9050919050565b7f556e617574686f72697a656400000000000000000000000000000000000000005f82015250565b5f61218f600c83611736565b915061219a8261215b565b602082019050919050565b5f6020820190508181035f8301526121bc81612183565b9050919050565b7f4e6f646520646f6573206e6f74206578697374000000000000000000000000005f82015250565b5f6121f7601383611736565b9150612202826121c3565b602082019050919050565b5f6020820190508181035f830152612224816121eb565b905091905056fea2646970667358221220bbed9f657c05cd7d415418f6b3d869b99a6df26fb95ca3a56aa01e71e69ffff964736f6c63430008160033",
					"opcodes": "PUSH1 0x80 PUSH1 0x40 MSTORE CALLVALUE DUP1 ISZERO PUSH2 0xF JUMPI PUSH0 DUP1 REVERT JUMPDEST POP CALLER PUSH1 0x2 PUSH0 PUSH2 0x100 EXP DUP2 SLOAD DUP2 PUSH20 0xFFFFFFFFFFFFFFFFFFFFFFFFFFFFFFFFFFFFFFFF MUL NOT AND SWAP1 DUP4 PUSH20 0xFFFFFFFFFFFFFFFFFFFFFFFFFFFFFFFFFFFFFFFF AND MUL OR SWAP1 SSTORE POP PUSH2 0x2261 DUP1 PUSH2 0x5D PUSH0 CODECOPY PUSH0 RETURN INVALID PUSH1 0x80 PUSH1 0x40 MSTORE CALLVALUE DUP1 ISZERO PUSH2 0xF JUMPI PUSH0 DUP1 REVERT JUMPDEST POP PUSH1 0x4 CALLDATASIZE LT PUSH2 0xFE JUMPI PUSH0 CALLDATALOAD PUSH1 0xE0 SHR DUP1 PUSH4 0x7DD77D2B GT PUSH2 0x95 JUMPI DUP1 PUSH4 0xA9910054 GT PUSH2 0x64 JUMPI DUP1 PUSH4 0xA9910054 EQ PUSH2 0x2F7 JUMPI DUP1 PUSH4 0xB49F33C8 EQ PUSH2 0x313 JUMPI DUP1 PUSH4 0xB65814A6 EQ PUSH2 0x32F JUMPI DUP1 PUSH4 0xFE72AE13 EQ PUSH2 0x34B JUMPI PUSH2 0xFE JUMP JUMPDEST DUP1 PUSH4 0x7DD77D2B EQ PUSH2 0x26F JUMPI DUP1 PUSH4 0x8DA5CB5B EQ PUSH2 0x28B JUMPI DUP1 PUSH4 0xA1174E7D EQ PUSH2 0x2A9 JUMPI DUP1 PUSH4 0xA9860308 EQ PUSH2 0x2C7 JUMPI PUSH2 0xFE JUMP JUMPDEST DUP1 PUSH4 0x2A85BE1E GT PUSH2 0xD1 JUMPI DUP1 PUSH4 0x2A85BE1E EQ PUSH2 0x1AF JUMPI DUP1 PUSH4 0x50F1C985 EQ PUSH2 0x1DF JUMPI DUP1 PUSH4 0x57D7F21F EQ PUSH2 0x20F JUMPI DUP1 PUSH4 0x64F0C0B8 EQ PUSH2 0x23F JUMPI PUSH2 0xFE JUMP JUMPDEST DUP1 PUSH4 0x11BD77FE EQ PUSH2 0x102 JUMPI DUP1 PUSH4 0x189A5A17 EQ PUSH2 0x11E JUMPI DUP1 PUSH4 0x1F37BDD2 EQ PUSH2 0x14F JUMPI DUP1 PUSH4 0x2804401C EQ PUSH2 0x17F JUMPI JUMPDEST PUSH0 DUP1 REVERT JUMPDEST PUSH2 0x11C PUSH1 0x4 DUP1 CALLDATASIZE SUB DUP2 ADD SWAP1 PUSH2 0x117 SWAP2 SWAP1 PUSH2 0x13B0 JUMP JUMPDEST PUSH2 0x37B JUMP JUMPDEST STOP JUMPDEST PUSH2 0x138 PUSH1 0x4 DUP1 CALLDATASIZE SUB DUP2 ADD SWAP1 PUSH2 0x133 SWAP2 SWAP1 PUSH2 0x13EE JUMP JUMPDEST PUSH2 0x562 JUMP JUMPDEST PUSH1 0x40 MLOAD PUSH2 0x146 SWAP3 SWAP2 SWAP1 PUSH2 0x1437 JUMP JUMPDEST PUSH1 0x40 MLOAD DUP1 SWAP2 SUB SWAP1 RETURN JUMPDEST PUSH2 0x169 PUSH1 0x4 DUP1 CALLDATASIZE SUB DUP2 ADD SWAP1 PUSH2 0x164 SWAP2 SWAP1 PUSH2 0x159A JUMP JUMPDEST PUSH2 0x5A0 JUMP JUMPDEST PUSH1 0x40 MLOAD PUSH2 0x176 SWAP2 SWAP1 PUSH2 0x1716 JUMP JUMPDEST PUSH1 0x40 MLOAD DUP1 SWAP2 SUB SWAP1 RETURN JUMPDEST PUSH2 0x199 PUSH1 0x4 DUP1 CALLDATASIZE SUB DUP2 ADD SWAP1 PUSH2 0x194 SWAP2 SWAP1 PUSH2 0x159A JUMP JUMPDEST PUSH2 0x770 JUMP JUMPDEST PUSH1 0x40 MLOAD PUSH2 0x1A6 SWAP2 SWAP1 PUSH2 0x177E JUMP JUMPDEST PUSH1 0x40 MLOAD DUP1 SWAP2 SUB SWAP1 RETURN JUMPDEST PUSH2 0x1C9 PUSH1 0x4 DUP1 CALLDATASIZE SUB DUP2 ADD SWAP1 PUSH2 0x1C4 SWAP2 SWAP1 PUSH2 0x179E JUMP JUMPDEST PUSH2 0x8AA JUMP JUMPDEST PUSH1 0x40 MLOAD PUSH2 0x1D6 SWAP2 SWAP1 PUSH2 0x177E JUMP JUMPDEST PUSH1 0x40 MLOAD DUP1 SWAP2 SUB SWAP1 RETURN JUMPDEST PUSH2 0x1F9 PUSH1 0x4 DUP1 CALLDATASIZE SUB DUP2 ADD SWAP1 PUSH2 0x1F4 SWAP2 SWAP1 PUSH2 0x179E JUMP JUMPDEST PUSH2 0x8B2 JUMP JUMPDEST PUSH1 0x40 MLOAD PUSH2 0x206 SWAP2 SWAP1 PUSH2 0x177E JUMP JUMPDEST PUSH1 0x40 MLOAD DUP1 SWAP2 SUB SWAP1 RETURN JUMPDEST PUSH2 0x229 PUSH1 0x4 DUP1 CALLDATASIZE SUB DUP2 ADD SWAP1 PUSH2 0x224 SWAP2 SWAP1 PUSH2 0x18DA JUMP JUMPDEST PUSH2 0x8BA JUMP JUMPDEST PUSH1 0x40 MLOAD PUSH2 0x236 SWAP2 SWAP1 PUSH2 0x177E JUMP JUMPDEST PUSH1 0x40 MLOAD DUP1 SWAP2 SUB SWAP1 RETURN JUMPDEST PUSH2 0x259 PUSH1 0x4 DUP1 CALLDATASIZE SUB DUP2 ADD SWAP1 PUSH2 0x254 SWAP2 SWAP1 PUSH2 0x1921 JUMP JUMPDEST PUSH2 0xA17 JUMP JUMPDEST PUSH1 0x40 MLOAD PUSH2 0x266 SWAP2 SWAP1 PUSH2 0x194C JUMP JUMPDEST PUSH1 0x40 MLOAD DUP1 SWAP2 SUB SWAP1 RETURN JUMPDEST PUSH2 0x289 PUSH1 0x4 DUP1 CALLDATASIZE SUB DUP2 ADD SWAP1 PUSH2 0x284 SWAP2 SWAP1 PUSH2 0x1965 JUMP JUMPDEST PUSH2 0xB2E JUMP JUMPDEST STOP JUMPDEST PUSH2 0x293 PUSH2 0xD7D JUMP JUMPDEST PUSH1 0x40 MLOAD PUSH2 0x2A0 SWAP2 SWAP1 PUSH2 0x194C JUMP JUMPDEST PUSH1 0x40 MLOAD DUP1 SWAP2 SUB SWAP1 RETURN JUMPDEST PUSH2 0x2B1 PUSH2 0xDA2 JUMP JUMPDEST PUSH1 0x40 MLOAD PUSH2 0x2BE SWAP2 SWAP1 PUSH2 0x1AC0 JUMP JUMPDEST PUSH1 0x40 MLOAD DUP1 SWAP2 SUB SWAP1 RETURN JUMPDEST PUSH2 0x2E1 PUSH1 0x4 DUP1 CALLDATASIZE SUB DUP2 ADD SWAP1 PUSH2 0x2DC SWAP2 SWAP1 PUSH2 0x13EE JUMP JUMPDEST PUSH2 0xE2D JUMP JUMPDEST PUSH1 0x40 MLOAD PUSH2 0x2EE SWAP2 SWAP1 PUSH2 0x1B1C JUMP JUMPDEST PUSH1 0x40 MLOAD DUP1 SWAP2 SUB SWAP1 RETURN JUMPDEST PUSH2 0x311 PUSH1 0x4 DUP1 CALLDATASIZE SUB DUP2 ADD SWAP1 PUSH2 0x30C SWAP2 SWAP1 PUSH2 0x159A JUMP JUMPDEST PUSH2 0xEE1 JUMP JUMPDEST STOP JUMPDEST PUSH2 0x32D PUSH1 0x4 DUP1 CALLDATASIZE SUB DUP2 ADD SWAP1 PUSH2 0x328 SWAP2 SWAP1 PUSH2 0x13B0 JUMP JUMPDEST PUSH2 0x111C JUMP JUMPDEST STOP JUMPDEST PUSH2 0x349 PUSH1 0x4 DUP1 CALLDATASIZE SUB DUP2 ADD SWAP1 PUSH2 0x344 SWAP2 SWAP1 PUSH2 0x179E JUMP JUMPDEST PUSH2 0x122F JUMP JUMPDEST STOP JUMPDEST PUSH2 0x365 PUSH1 0x4 DUP1 CALLDATASIZE SUB DUP2 ADD SWAP1 PUSH2 0x360 SWAP2 SWAP1 PUSH2 0x1921 JUMP JUMPDEST PUSH2 0x1233 JUMP JUMPDEST PUSH1 0x40 MLOAD PUSH2 0x372 SWAP2 SWAP1 PUSH2 0x194C JUMP JUMPDEST PUSH1 0x40 MLOAD DUP1 SWAP2 SUB SWAP1 RETURN JUMPDEST PUSH0 PUSH20 0xFFFFFFFFFFFFFFFFFFFFFFFFFFFFFFFFFFFFFFFF AND PUSH0 DUP1 DUP5 PUSH20 0xFFFFFFFFFFFFFFFFFFFFFFFFFFFFFFFFFFFFFFFF AND PUSH20 0xFFFFFFFFFFFFFFFFFFFFFFFFFFFFFFFFFFFFFFFF AND DUP2 MSTORE PUSH1 0x20 ADD SWAP1 DUP2 MSTORE PUSH1 0x20 ADD PUSH0 KECCAK256 PUSH0 ADD PUSH0 SWAP1 SLOAD SWAP1 PUSH2 0x100 EXP SWAP1 DIV PUSH20 0xFFFFFFFFFFFFFFFFFFFFFFFFFFFFFFFFFFFFFFFF AND PUSH20 0xFFFFFFFFFFFFFFFFFFFFFFFFFFFFFFFFFFFFFFFF AND EQ PUSH2 0x446 JUMPI PUSH1 0x40 MLOAD PUSH32 0x8C379A000000000000000000000000000000000000000000000000000000000 DUP2 MSTORE PUSH1 0x4 ADD PUSH2 0x43D SWAP1 PUSH2 0x1B7F JUMP JUMPDEST PUSH1 0x40 MLOAD DUP1 SWAP2 SUB SWAP1 REVERT JUMPDEST PUSH1 0x40 MLOAD DUP1 PUSH1 0x40 ADD PUSH1 0x40 MSTORE DUP1 DUP4 PUSH20 0xFFFFFFFFFFFFFFFFFFFFFFFFFFFFFFFFFFFFFFFF AND DUP2 MSTORE PUSH1 0x20 ADD DUP3 DUP2 MSTORE POP PUSH0 DUP1 DUP5 PUSH20 0xFFFFFFFFFFFFFFFFFFFFFFFFFFFFFFFFFFFFFFFF AND PUSH20 0xFFFFFFFFFFFFFFFFFFFFFFFFFFFFFFFFFFFFFFFF AND DUP2 MSTORE PUSH1 0x20 ADD SWAP1 DUP2 MSTORE PUSH1 0x20 ADD PUSH0 KECCAK256 PUSH0 DUP3 ADD MLOAD DUP2 PUSH0 ADD PUSH0 PUSH2 0x100 EXP DUP2 SLOAD DUP2 PUSH20 0xFFFFFFFFFFFFFFFFFFFFFFFFFFFFFFFFFFFFFFFF MUL NOT AND SWAP1 DUP4 PUSH20 0xFFFFFFFFFFFFFFFFFFFFFFFFFFFFFFFFFFFFFFFF AND MUL OR SWAP1 SSTORE POP PUSH1 0x20 DUP3 ADD MLOAD DUP2 PUSH1 0x1 ADD SSTORE SWAP1 POP POP PUSH1 0x1 DUP3 SWAP1 DUP1 PUSH1 0x1 DUP2 SLOAD ADD DUP1 DUP3 SSTORE DUP1 SWAP2 POP POP PUSH1 0x1 SWAP1 SUB SWAP1 PUSH0 MSTORE PUSH1 0x20 PUSH0 KECCAK256 ADD PUSH0 SWAP1 SWAP2 SWAP1 SWAP2 SWAP1 SWAP2 PUSH2 0x100 EXP DUP2 SLOAD DUP2 PUSH20 0xFFFFFFFFFFFFFFFFFFFFFFFFFFFFFFFFFFFFFFFF MUL NOT AND SWAP1 DUP4 PUSH20 0xFFFFFFFFFFFFFFFFFFFFFFFFFFFFFFFFFFFFFFFF AND MUL OR SWAP1 SSTORE POP POP POP JUMP JUMPDEST PUSH0 PUSH1 0x20 MSTORE DUP1 PUSH0 MSTORE PUSH1 0x40 PUSH0 KECCAK256 PUSH0 SWAP2 POP SWAP1 POP DUP1 PUSH0 ADD PUSH0 SWAP1 SLOAD SWAP1 PUSH2 0x100 EXP SWAP1 DIV PUSH20 0xFFFFFFFFFFFFFFFFFFFFFFFFFFFFFFFFFFFFFFFF AND SWAP1 DUP1 PUSH1 0x1 ADD SLOAD SWAP1 POP DUP3 JUMP JUMPDEST PUSH1 0x60 PUSH0 PUSH1 0x20 SWAP1 POP PUSH0 DUP2 PUSH1 0x1 DUP4 DUP7 MLOAD PUSH2 0x5B8 SWAP2 SWAP1 PUSH2 0x1BCA JUMP JUMPDEST PUSH2 0x5C2 SWAP2 SWAP1 PUSH2 0x1BFD JUMP JUMPDEST PUSH2 0x5CC SWAP2 SWAP1 PUSH2 0x1C5D JUMP JUMPDEST SWAP1 POP PUSH0 DUP2 PUSH8 0xFFFFFFFFFFFFFFFF DUP2 GT ISZERO PUSH2 0x5E9 JUMPI PUSH2 0x5E8 PUSH2 0x1476 JUMP JUMPDEST JUMPDEST PUSH1 0x40 MLOAD SWAP1 DUP1 DUP3 MSTORE DUP1 PUSH1 0x20 MUL PUSH1 0x20 ADD DUP3 ADD PUSH1 0x40 MSTORE DUP1 ISZERO PUSH2 0x61C JUMPI DUP2 PUSH1 0x20 ADD JUMPDEST PUSH1 0x60 DUP2 MSTORE PUSH1 0x20 ADD SWAP1 PUSH1 0x1 SWAP1 SUB SWAP1 DUP2 PUSH2 0x607 JUMPI SWAP1 POP JUMPDEST POP SWAP1 POP PUSH0 JUMPDEST DUP3 DUP2 LT ISZERO PUSH2 0x764 JUMPI PUSH0 DUP5 DUP3 PUSH2 0x636 SWAP2 SWAP1 PUSH2 0x1C8D JUMP JUMPDEST SWAP1 POP PUSH0 DUP6 DUP3 PUSH2 0x645 SWAP2 SWAP1 PUSH2 0x1BCA JUMP JUMPDEST SWAP1 POP DUP8 MLOAD DUP2 GT ISZERO PUSH2 0x655 JUMPI DUP8 MLOAD SWAP1 POP JUMPDEST PUSH0 DUP3 DUP3 PUSH2 0x662 SWAP2 SWAP1 PUSH2 0x1BFD JUMP JUMPDEST PUSH8 0xFFFFFFFFFFFFFFFF DUP2 GT ISZERO PUSH2 0x67B JUMPI PUSH2 0x67A PUSH2 0x1476 JUMP JUMPDEST JUMPDEST PUSH1 0x40 MLOAD SWAP1 DUP1 DUP3 MSTORE DUP1 PUSH1 0x1F ADD PUSH1 0x1F NOT AND PUSH1 0x20 ADD DUP3 ADD PUSH1 0x40 MSTORE DUP1 ISZERO PUSH2 0x6AD JUMPI DUP2 PUSH1 0x20 ADD PUSH1 0x1 DUP3 MUL DUP1 CALLDATASIZE DUP4 CALLDATACOPY DUP1 DUP3 ADD SWAP2 POP POP SWAP1 POP JUMPDEST POP SWAP1 POP PUSH0 DUP4 SWAP1 POP JUMPDEST DUP3 DUP2 LT ISZERO PUSH2 0x734 JUMPI DUP10 DUP2 DUP2 MLOAD DUP2 LT PUSH2 0x6D0 JUMPI PUSH2 0x6CF PUSH2 0x1CCE JUMP JUMPDEST JUMPDEST PUSH1 0x20 ADD ADD MLOAD PUSH1 0xF8 SHR PUSH1 0xF8 SHL DUP3 DUP6 DUP4 PUSH2 0x6E8 SWAP2 SWAP1 PUSH2 0x1BFD JUMP JUMPDEST DUP2 MLOAD DUP2 LT PUSH2 0x6F9 JUMPI PUSH2 0x6F8 PUSH2 0x1CCE JUMP JUMPDEST JUMPDEST PUSH1 0x20 ADD ADD SWAP1 PUSH31 0xFFFFFFFFFFFFFFFFFFFFFFFFFFFFFFFFFFFFFFFFFFFFFFFFFFFFFFFFFFFFFF NOT AND SWAP1 DUP2 PUSH0 BYTE SWAP1 MSTORE8 POP DUP1 DUP1 PUSH1 0x1 ADD SWAP2 POP POP PUSH2 0x6B5 JUMP JUMPDEST POP DUP1 DUP6 DUP6 DUP2 MLOAD DUP2 LT PUSH2 0x749 JUMPI PUSH2 0x748 PUSH2 0x1CCE JUMP JUMPDEST JUMPDEST PUSH1 0x20 MUL PUSH1 0x20 ADD ADD DUP2 SWAP1 MSTORE POP POP POP POP DUP1 DUP1 PUSH1 0x1 ADD SWAP2 POP POP PUSH2 0x621 JUMP JUMPDEST POP DUP1 SWAP4 POP POP POP POP SWAP2 SWAP1 POP JUMP JUMPDEST PUSH1 0x60 PUSH0 PUSH1 0x3 DUP4 PUSH1 0x40 MLOAD PUSH2 0x783 SWAP2 SWAP1 PUSH2 0x1D35 JUMP JUMPDEST SWAP1 DUP2 MSTORE PUSH1 0x20 ADD PUSH1 0x40 MLOAD DUP1 SWAP2 SUB SWAP1 KECCAK256 PUSH1 0x1 ADD SLOAD GT PUSH2 0x7D5 JUMPI PUSH1 0x40 MLOAD PUSH32 0x8C379A000000000000000000000000000000000000000000000000000000000 DUP2 MSTORE PUSH1 0x4 ADD PUSH2 0x7CC SWAP1 PUSH2 0x1D95 JUMP JUMPDEST PUSH1 0x40 MLOAD DUP1 SWAP2 SUB SWAP1 REVERT JUMPDEST PUSH0 PUSH1 0x4 DUP4 PUSH1 0x40 MLOAD PUSH2 0x7E6 SWAP2 SWAP1 PUSH2 0x1D35 JUMP JUMPDEST SWAP1 DUP2 MSTORE PUSH1 0x20 ADD PUSH1 0x40 MLOAD DUP1 SWAP2 SUB SWAP1 KECCAK256 DUP1 SLOAD DUP1 PUSH1 0x20 MUL PUSH1 0x20 ADD PUSH1 0x40 MLOAD SWAP1 DUP2 ADD PUSH1 0x40 MSTORE DUP1 SWAP3 SWAP2 SWAP1 DUP2 DUP2 MSTORE PUSH1 0x20 ADD DUP3 DUP1 SLOAD DUP1 ISZERO PUSH2 0x871 JUMPI PUSH1 0x20 MUL DUP3 ADD SWAP2 SWAP1 PUSH0 MSTORE PUSH1 0x20 PUSH0 KECCAK256 SWAP1 JUMPDEST DUP2 PUSH0 SWAP1 SLOAD SWAP1 PUSH2 0x100 EXP SWAP1 DIV PUSH20 0xFFFFFFFFFFFFFFFFFFFFFFFFFFFFFFFFFFFFFFFF AND PUSH20 0xFFFFFFFFFFFFFFFFFFFFFFFFFFFFFFFFFFFFFFFF AND DUP2 MSTORE PUSH1 0x20 ADD SWAP1 PUSH1 0x1 ADD SWAP1 DUP1 DUP4 GT PUSH2 0x828 JUMPI JUMPDEST POP POP POP POP POP SWAP1 POP PUSH1 0x60 PUSH0 JUMPDEST DUP3 MLOAD DUP2 LT ISZERO PUSH2 0x892 JUMPI DUP1 DUP1 PUSH1 0x1 ADD SWAP2 POP POP PUSH2 0x87C JUMP JUMPDEST POP PUSH0 PUSH2 0x89D DUP3 PUSH2 0x8BA JUMP JUMPDEST SWAP1 POP DUP1 SWAP4 POP POP POP POP SWAP2 SWAP1 POP JUMP JUMPDEST PUSH1 0x60 SWAP3 SWAP2 POP POP JUMP JUMPDEST PUSH1 0x60 SWAP3 SWAP2 POP POP JUMP JUMPDEST PUSH1 0x60 PUSH0 DUP1 JUMPDEST DUP4 MLOAD DUP2 LT ISZERO PUSH2 0x8FE JUMPI DUP4 DUP2 DUP2 MLOAD DUP2 LT PUSH2 0x8DB JUMPI PUSH2 0x8DA PUSH2 0x1CCE JUMP JUMPDEST JUMPDEST PUSH1 0x20 MUL PUSH1 0x20 ADD ADD MLOAD MLOAD DUP3 PUSH2 0x8EF SWAP2 SWAP1 PUSH2 0x1BCA JUMP JUMPDEST SWAP2 POP DUP1 DUP1 PUSH1 0x1 ADD SWAP2 POP POP PUSH2 0x8BF JUMP JUMPDEST POP PUSH0 DUP2 PUSH8 0xFFFFFFFFFFFFFFFF DUP2 GT ISZERO PUSH2 0x91A JUMPI PUSH2 0x919 PUSH2 0x1476 JUMP JUMPDEST JUMPDEST PUSH1 0x40 MLOAD SWAP1 DUP1 DUP3 MSTORE DUP1 PUSH1 0x1F ADD PUSH1 0x1F NOT AND PUSH1 0x20 ADD DUP3 ADD PUSH1 0x40 MSTORE DUP1 ISZERO PUSH2 0x94C JUMPI DUP2 PUSH1 0x20 ADD PUSH1 0x1 DUP3 MUL DUP1 CALLDATASIZE DUP4 CALLDATACOPY DUP1 DUP3 ADD SWAP2 POP POP SWAP1 POP JUMPDEST POP SWAP1 POP PUSH0 DUP1 JUMPDEST DUP6 MLOAD DUP2 LT ISZERO PUSH2 0xA0B JUMPI PUSH0 DUP7 DUP3 DUP2 MLOAD DUP2 LT PUSH2 0x96F JUMPI PUSH2 0x96E PUSH2 0x1CCE JUMP JUMPDEST JUMPDEST PUSH1 0x20 MUL PUSH1 0x20 ADD ADD MLOAD SWAP1 POP PUSH0 JUMPDEST DUP2 MLOAD DUP2 LT ISZERO PUSH2 0x9FC JUMPI DUP2 DUP2 DUP2 MLOAD DUP2 LT PUSH2 0x997 JUMPI PUSH2 0x996 PUSH2 0x1CCE JUMP JUMPDEST JUMPDEST PUSH1 0x20 ADD ADD MLOAD PUSH1 0xF8 SHR PUSH1 0xF8 SHL DUP6 DUP6 DUP1 PUSH2 0x9AE SWAP1 PUSH2 0x1DB3 JUMP JUMPDEST SWAP7 POP DUP2 MLOAD DUP2 LT PUSH2 0x9C1 JUMPI PUSH2 0x9C0 PUSH2 0x1CCE JUMP JUMPDEST JUMPDEST PUSH1 0x20 ADD ADD SWAP1 PUSH31 0xFFFFFFFFFFFFFFFFFFFFFFFFFFFFFFFFFFFFFFFFFFFFFFFFFFFFFFFFFFFFFF NOT AND SWAP1 DUP2 PUSH0 BYTE SWAP1 MSTORE8 POP DUP1 DUP1 PUSH1 0x1 ADD SWAP2 POP POP PUSH2 0x97B JUMP JUMPDEST POP POP DUP1 DUP1 PUSH1 0x1 ADD SWAP2 POP POP PUSH2 0x952 JUMP JUMPDEST POP DUP2 SWAP4 POP POP POP POP SWAP2 SWAP1 POP JUMP JUMPDEST PUSH0 DUP1 PUSH1 0x1 DUP1 SLOAD SWAP1 POP SWAP1 POP PUSH0 PUSH1 0x32 SWAP1 POP PUSH0 DUP3 SUB PUSH2 0xA37 JUMPI PUSH0 SWAP3 POP POP POP PUSH2 0xB29 JUMP JUMPDEST PUSH0 DUP3 PUSH1 0x1 NUMBER PUSH2 0xA46 SWAP2 SWAP1 PUSH2 0x1BFD JUMP JUMPDEST BLOCKHASH PUSH0 SHR PUSH2 0xA53 SWAP2 SWAP1 PUSH2 0x1DFA JUMP JUMPDEST SWAP1 POP PUSH0 JUMPDEST DUP4 DUP2 LT ISZERO PUSH2 0xB21 JUMPI PUSH0 PUSH1 0x1 DUP6 DUP4 DUP6 PUSH2 0xA6F SWAP2 SWAP1 PUSH2 0x1BCA JUMP JUMPDEST PUSH2 0xA79 SWAP2 SWAP1 PUSH2 0x1DFA JUMP JUMPDEST DUP2 SLOAD DUP2 LT PUSH2 0xA8A JUMPI PUSH2 0xA89 PUSH2 0x1CCE JUMP JUMPDEST JUMPDEST SWAP1 PUSH0 MSTORE PUSH1 0x20 PUSH0 KECCAK256 ADD PUSH0 SWAP1 SLOAD SWAP1 PUSH2 0x100 EXP SWAP1 DIV PUSH20 0xFFFFFFFFFFFFFFFFFFFFFFFFFFFFFFFFFFFFFFFF AND SWAP1 POP DUP4 DUP8 PUSH2 0xAC0 SWAP2 SWAP1 PUSH2 0x1BCA JUMP JUMPDEST PUSH0 DUP1 DUP4 PUSH20 0xFFFFFFFFFFFFFFFFFFFFFFFFFFFFFFFFFFFFFFFF AND PUSH20 0xFFFFFFFFFFFFFFFFFFFFFFFFFFFFFFFFFFFFFFFF AND DUP2 MSTORE PUSH1 0x20 ADD SWAP1 DUP2 MSTORE PUSH1 0x20 ADD PUSH0 KECCAK256 PUSH1 0x1 ADD SLOAD GT ISZERO PUSH2 0xB13 JUMPI DUP1 SWAP6 POP POP POP POP POP POP PUSH2 0xB29 JUMP JUMPDEST POP DUP1 DUP1 PUSH1 0x1 ADD SWAP2 POP POP PUSH2 0xA57 JUMP JUMPDEST POP PUSH0 SWAP4 POP POP POP POP JUMPDEST SWAP2 SWAP1 POP JUMP JUMPDEST PUSH0 DUP3 MLOAD SWAP1 POP PUSH1 0x40 MLOAD DUP1 PUSH1 0x40 ADD PUSH1 0x40 MSTORE DUP1 DUP6 DUP2 MSTORE PUSH1 0x20 ADD DUP3 DUP2 MSTORE POP PUSH1 0x3 DUP4 PUSH1 0x40 MLOAD PUSH2 0xB58 SWAP2 SWAP1 PUSH2 0x1D35 JUMP JUMPDEST SWAP1 DUP2 MSTORE PUSH1 0x20 ADD PUSH1 0x40 MLOAD DUP1 SWAP2 SUB SWAP1 KECCAK256 PUSH0 DUP3 ADD MLOAD DUP2 PUSH0 ADD SWAP1 DUP2 PUSH2 0xB79 SWAP2 SWAP1 PUSH2 0x2024 JUMP JUMPDEST POP PUSH1 0x20 DUP3 ADD MLOAD DUP2 PUSH1 0x1 ADD SSTORE SWAP1 POP POP PUSH0 PUSH2 0xB91 DUP5 PUSH2 0x5A0 JUMP JUMPDEST SWAP1 POP PUSH0 JUMPDEST DUP2 MLOAD DUP2 LT ISZERO PUSH2 0xD75 JUMPI PUSH0 DUP3 DUP3 DUP2 MLOAD DUP2 LT PUSH2 0xBB2 JUMPI PUSH2 0xBB1 PUSH2 0x1CCE JUMP JUMPDEST JUMPDEST PUSH1 0x20 MUL PUSH1 0x20 ADD ADD MLOAD MLOAD SWAP1 POP PUSH0 DUP1 PUSH1 0x3 SWAP1 POP PUSH1 0x3 PUSH1 0x1 DUP1 SLOAD SWAP1 POP LT ISZERO PUSH2 0xBDA JUMPI PUSH1 0x1 DUP1 SLOAD SWAP1 POP SWAP1 POP JUMPDEST JUMPDEST DUP1 DUP3 LT ISZERO PUSH2 0xD65 JUMPI DUP2 DUP1 PUSH2 0xBEE SWAP1 PUSH2 0x1DB3 JUMP JUMPDEST SWAP3 POP POP PUSH0 PUSH2 0xBFB DUP5 PUSH2 0xA17 JUMP JUMPDEST SWAP1 POP PUSH0 PUSH20 0xFFFFFFFFFFFFFFFFFFFFFFFFFFFFFFFFFFFFFFFF AND DUP2 PUSH20 0xFFFFFFFFFFFFFFFFFFFFFFFFFFFFFFFFFFFFFFFF AND SUB PUSH2 0xC6B JUMPI PUSH1 0x40 MLOAD PUSH32 0x8C379A000000000000000000000000000000000000000000000000000000000 DUP2 MSTORE PUSH1 0x4 ADD PUSH2 0xC62 SWAP1 PUSH2 0x213D JUMP JUMPDEST PUSH1 0x40 MLOAD DUP1 SWAP2 SUB SWAP1 REVERT JUMPDEST PUSH1 0x4 DUP9 PUSH1 0x40 MLOAD PUSH2 0xC7B SWAP2 SWAP1 PUSH2 0x1D35 JUMP JUMPDEST SWAP1 DUP2 MSTORE PUSH1 0x20 ADD PUSH1 0x40 MLOAD DUP1 SWAP2 SUB SWAP1 KECCAK256 DUP2 SWAP1 DUP1 PUSH1 0x1 DUP2 SLOAD ADD DUP1 DUP3 SSTORE DUP1 SWAP2 POP POP PUSH1 0x1 SWAP1 SUB SWAP1 PUSH0 MSTORE PUSH1 0x20 PUSH0 KECCAK256 ADD PUSH0 SWAP1 SWAP2 SWAP1 SWAP2 SWAP1 SWAP2 PUSH2 0x100 EXP DUP2 SLOAD DUP2 PUSH20 0xFFFFFFFFFFFFFFFFFFFFFFFFFFFFFFFFFFFFFFFF MUL NOT AND SWAP1 DUP4 PUSH20 0xFFFFFFFFFFFFFFFFFFFFFFFFFFFFFFFFFFFFFFFF AND MUL OR SWAP1 SSTORE POP PUSH2 0xD0B DUP2 DUP8 DUP8 DUP2 MLOAD DUP2 LT PUSH2 0xCFE JUMPI PUSH2 0xCFD PUSH2 0x1CCE JUMP JUMPDEST JUMPDEST PUSH1 0x20 MUL PUSH1 0x20 ADD ADD MLOAD PUSH2 0x122F JUMP JUMPDEST PUSH2 0xD5F DUP2 DUP6 PUSH0 DUP1 DUP6 PUSH20 0xFFFFFFFFFFFFFFFFFFFFFFFFFFFFFFFFFFFFFFFF AND PUSH20 0xFFFFFFFFFFFFFFFFFFFFFFFFFFFFFFFFFFFFFFFF AND DUP2 MSTORE PUSH1 0x20 ADD SWAP1 DUP2 MSTORE PUSH1 0x20 ADD PUSH0 KECCAK256 PUSH1 0x1 ADD SLOAD PUSH2 0xD5A SWAP2 SWAP1 PUSH2 0x1BFD JUMP JUMPDEST PUSH2 0x111C JUMP JUMPDEST POP PUSH2 0xBDB JUMP JUMPDEST POP POP POP DUP1 DUP1 PUSH1 0x1 ADD SWAP2 POP POP PUSH2 0xB95 JUMP JUMPDEST POP POP POP POP POP POP JUMP JUMPDEST PUSH1 0x2 PUSH0 SWAP1 SLOAD SWAP1 PUSH2 0x100 EXP SWAP1 DIV PUSH20 0xFFFFFFFFFFFFFFFFFFFFFFFFFFFFFFFFFFFFFFFF AND DUP2 JUMP JUMPDEST PUSH1 0x60 PUSH1 0x1 DUP1 SLOAD DUP1 PUSH1 0x20 MUL PUSH1 0x20 ADD PUSH1 0x40 MLOAD SWAP1 DUP2 ADD PUSH1 0x40 MSTORE DUP1 SWAP3 SWAP2 SWAP1 DUP2 DUP2 MSTORE PUSH1 0x20 ADD DUP3 DUP1 SLOAD DUP1 ISZERO PUSH2 0xE23 JUMPI PUSH1 0x20 MUL DUP3 ADD SWAP2 SWAP1 PUSH0 MSTORE PUSH1 0x20 PUSH0 KECCAK256 SWAP1 JUMPDEST DUP2 PUSH0 SWAP1 SLOAD SWAP1 PUSH2 0x100 EXP SWAP1 DIV PUSH20 0xFFFFFFFFFFFFFFFFFFFFFFFFFFFFFFFFFFFFFFFF AND PUSH20 0xFFFFFFFFFFFFFFFFFFFFFFFFFFFFFFFFFFFFFFFF AND DUP2 MSTORE PUSH1 0x20 ADD SWAP1 PUSH1 0x1 ADD SWAP1 DUP1 DUP4 GT PUSH2 0xDDA JUMPI JUMPDEST POP POP POP POP POP SWAP1 POP SWAP1 JUMP JUMPDEST PUSH2 0xE35 PUSH2 0x126E JUMP JUMPDEST PUSH0 DUP1 DUP4 PUSH20 0xFFFFFFFFFFFFFFFFFFFFFFFFFFFFFFFFFFFFFFFF AND PUSH20 0xFFFFFFFFFFFFFFFFFFFFFFFFFFFFFFFFFFFFFFFF AND DUP2 MSTORE PUSH1 0x20 ADD SWAP1 DUP2 MSTORE PUSH1 0x20 ADD PUSH0 KECCAK256 PUSH1 0x40 MLOAD DUP1 PUSH1 0x40 ADD PUSH1 0x40 MSTORE SWAP1 DUP2 PUSH0 DUP3 ADD PUSH0 SWAP1 SLOAD SWAP1 PUSH2 0x100 EXP SWAP1 DIV PUSH20 0xFFFFFFFFFFFFFFFFFFFFFFFFFFFFFFFFFFFFFFFF AND PUSH20 0xFFFFFFFFFFFFFFFFFFFFFFFFFFFFFFFFFFFFFFFF AND PUSH20 0xFFFFFFFFFFFFFFFFFFFFFFFFFFFFFFFFFFFFFFFF AND DUP2 MSTORE PUSH1 0x20 ADD PUSH1 0x1 DUP3 ADD SLOAD DUP2 MSTORE POP POP SWAP1 POP SWAP2 SWAP1 POP JUMP JUMPDEST PUSH0 PUSH1 0x3 DUP3 PUSH1 0x40 MLOAD PUSH2 0xEF2 SWAP2 SWAP1 PUSH2 0x1D35 JUMP JUMPDEST SWAP1 DUP2 MSTORE PUSH1 0x20 ADD PUSH1 0x40 MLOAD DUP1 SWAP2 SUB SWAP1 KECCAK256 PUSH1 0x1 ADD SLOAD GT PUSH2 0xF44 JUMPI PUSH1 0x40 MLOAD PUSH32 0x8C379A000000000000000000000000000000000000000000000000000000000 DUP2 MSTORE PUSH1 0x4 ADD PUSH2 0xF3B SWAP1 PUSH2 0x1D95 JUMP JUMPDEST PUSH1 0x40 MLOAD DUP1 SWAP2 SUB SWAP1 REVERT JUMPDEST PUSH1 0x2 PUSH0 SWAP1 SLOAD SWAP1 PUSH2 0x100 EXP SWAP1 DIV PUSH20 0xFFFFFFFFFFFFFFFFFFFFFFFFFFFFFFFFFFFFFFFF AND PUSH20 0xFFFFFFFFFFFFFFFFFFFFFFFFFFFFFFFFFFFFFFFF AND CALLER PUSH20 0xFFFFFFFFFFFFFFFFFFFFFFFFFFFFFFFFFFFFFFFF AND EQ PUSH2 0xFD3 JUMPI PUSH1 0x40 MLOAD PUSH32 0x8C379A000000000000000000000000000000000000000000000000000000000 DUP2 MSTORE PUSH1 0x4 ADD PUSH2 0xFCA SWAP1 PUSH2 0x21A5 JUMP JUMPDEST PUSH1 0x40 MLOAD DUP1 SWAP2 SUB SWAP1 REVERT JUMPDEST PUSH0 PUSH1 0x4 DUP3 PUSH1 0x40 MLOAD PUSH2 0xFE4 SWAP2 SWAP1 PUSH2 0x1D35 JUMP JUMPDEST SWAP1 DUP2 MSTORE PUSH1 0x20 ADD PUSH1 0x40 MLOAD DUP1 SWAP2 SUB SWAP1 KECCAK256 DUP1 SLOAD DUP1 PUSH1 0x20 MUL PUSH1 0x20 ADD PUSH1 0x40 MLOAD SWAP1 DUP2 ADD PUSH1 0x40 MSTORE DUP1 SWAP3 SWAP2 SWAP1 DUP2 DUP2 MSTORE PUSH1 0x20 ADD DUP3 DUP1 SLOAD DUP1 ISZERO PUSH2 0x106F JUMPI PUSH1 0x20 MUL DUP3 ADD SWAP2 SWAP1 PUSH0 MSTORE PUSH1 0x20 PUSH0 KECCAK256 SWAP1 JUMPDEST DUP2 PUSH0 SWAP1 SLOAD SWAP1 PUSH2 0x100 EXP SWAP1 DIV PUSH20 0xFFFFFFFFFFFFFFFFFFFFFFFFFFFFFFFFFFFFFFFF AND PUSH20 0xFFFFFFFFFFFFFFFFFFFFFFFFFFFFFFFFFFFFFFFF AND DUP2 MSTORE PUSH1 0x20 ADD SWAP1 PUSH1 0x1 ADD SWAP1 DUP1 DUP4 GT PUSH2 0x1026 JUMPI JUMPDEST POP POP POP POP POP SWAP1 POP PUSH0 JUMPDEST DUP2 MLOAD DUP2 LT ISZERO PUSH2 0x10B8 JUMPI PUSH0 DUP3 DUP3 DUP2 MLOAD DUP2 LT PUSH2 0x1095 JUMPI PUSH2 0x1094 PUSH2 0x1CCE JUMP JUMPDEST JUMPDEST PUSH1 0x20 MUL PUSH1 0x20 ADD ADD MLOAD SWAP1 POP PUSH2 0x10A9 DUP2 DUP6 PUSH2 0x8B2 JUMP JUMPDEST POP POP DUP1 DUP1 PUSH1 0x1 ADD SWAP2 POP POP PUSH2 0x1078 JUMP JUMPDEST POP PUSH1 0x3 DUP3 PUSH1 0x40 MLOAD PUSH2 0x10C9 SWAP2 SWAP1 PUSH2 0x1D35 JUMP JUMPDEST SWAP1 DUP2 MSTORE PUSH1 0x20 ADD PUSH1 0x40 MLOAD DUP1 SWAP2 SUB SWAP1 KECCAK256 PUSH0 DUP1 DUP3 ADD PUSH0 PUSH2 0x10E6 SWAP2 SWAP1 PUSH2 0x129C JUMP JUMPDEST PUSH1 0x1 DUP3 ADD PUSH0 SWAP1 SSTORE POP POP PUSH1 0x4 DUP3 PUSH1 0x40 MLOAD PUSH2 0x10FF SWAP2 SWAP1 PUSH2 0x1D35 JUMP JUMPDEST SWAP1 DUP2 MSTORE PUSH1 0x20 ADD PUSH1 0x40 MLOAD DUP1 SWAP2 SUB SWAP1 KECCAK256 PUSH0 PUSH2 0x1118 SWAP2 SWAP1 PUSH2 0x12D9 JUMP JUMPDEST POP POP JUMP JUMPDEST PUSH0 PUSH20 0xFFFFFFFFFFFFFFFFFFFFFFFFFFFFFFFFFFFFFFFF AND PUSH0 DUP1 DUP5 PUSH20 0xFFFFFFFFFFFFFFFFFFFFFFFFFFFFFFFFFFFFFFFF AND PUSH20 0xFFFFFFFFFFFFFFFFFFFFFFFFFFFFFFFFFFFFFFFF AND DUP2 MSTORE PUSH1 0x20 ADD SWAP1 DUP2 MSTORE PUSH1 0x20 ADD PUSH0 KECCAK256 PUSH0 ADD PUSH0 SWAP1 SLOAD SWAP1 PUSH2 0x100 EXP SWAP1 DIV PUSH20 0xFFFFFFFFFFFFFFFFFFFFFFFFFFFFFFFFFFFFFFFF AND PUSH20 0xFFFFFFFFFFFFFFFFFFFFFFFFFFFFFFFFFFFFFFFF AND SUB PUSH2 0x11E7 JUMPI PUSH1 0x40 MLOAD PUSH32 0x8C379A000000000000000000000000000000000000000000000000000000000 DUP2 MSTORE PUSH1 0x4 ADD PUSH2 0x11DE SWAP1 PUSH2 0x220D JUMP JUMPDEST PUSH1 0x40 MLOAD DUP1 SWAP2 SUB SWAP1 REVERT JUMPDEST DUP1 PUSH0 DUP1 DUP5 PUSH20 0xFFFFFFFFFFFFFFFFFFFFFFFFFFFFFFFFFFFFFFFF AND PUSH20 0xFFFFFFFFFFFFFFFFFFFFFFFFFFFFFFFFFFFFFFFF AND DUP2 MSTORE PUSH1 0x20 ADD SWAP1 DUP2 MSTORE PUSH1 0x20 ADD PUSH0 KECCAK256 PUSH1 0x1 ADD DUP2 SWAP1 SSTORE POP POP POP JUMP JUMPDEST POP POP JUMP JUMPDEST PUSH1 0x1 DUP2 DUP2 SLOAD DUP2 LT PUSH2 0x1242 JUMPI PUSH0 DUP1 REVERT JUMPDEST SWAP1 PUSH0 MSTORE PUSH1 0x20 PUSH0 KECCAK256 ADD PUSH0 SWAP2 POP SLOAD SWAP1 PUSH2 0x100 EXP SWAP1 DIV PUSH20 0xFFFFFFFFFFFFFFFFFFFFFFFFFFFFFFFFFFFFFFFF AND DUP2 JUMP JUMPDEST PUSH1 0x40 MLOAD DUP1 PUSH1 0x40 ADD PUSH1 0x40 MSTORE DUP1 PUSH0 PUSH20 0xFFFFFFFFFFFFFFFFFFFFFFFFFFFFFFFFFFFFFFFF AND DUP2 MSTORE PUSH1 0x20 ADD PUSH0 DUP2 MSTORE POP SWAP1 JUMP JUMPDEST POP DUP1 SLOAD PUSH2 0x12A8 SWAP1 PUSH2 0x1E57 JUMP JUMPDEST PUSH0 DUP3 SSTORE DUP1 PUSH1 0x1F LT PUSH2 0x12B9 JUMPI POP PUSH2 0x12D6 JUMP JUMPDEST PUSH1 0x1F ADD PUSH1 0x20 SWAP1 DIV SWAP1 PUSH0 MSTORE PUSH1 0x20 PUSH0 KECCAK256 SWAP1 DUP2 ADD SWAP1 PUSH2 0x12D5 SWAP2 SWAP1 PUSH2 0x12F7 JUMP JUMPDEST JUMPDEST POP JUMP JUMPDEST POP DUP1 SLOAD PUSH0 DUP3 SSTORE SWAP1 PUSH0 MSTORE PUSH1 0x20 PUSH0 KECCAK256 SWAP1 DUP2 ADD SWAP1 PUSH2 0x12F4 SWAP2 SWAP1 PUSH2 0x12F7 JUMP JUMPDEST POP JUMP JUMPDEST JUMPDEST DUP1 DUP3 GT ISZERO PUSH2 0x130E JUMPI PUSH0 DUP2 PUSH0 SWAP1 SSTORE POP PUSH1 0x1 ADD PUSH2 0x12F8 JUMP JUMPDEST POP SWAP1 JUMP JUMPDEST PUSH0 PUSH1 0x40 MLOAD SWAP1 POP SWAP1 JUMP JUMPDEST PUSH0 DUP1 REVERT JUMPDEST PUSH0 DUP1 REVERT JUMPDEST PUSH0 PUSH20 0xFFFFFFFFFFFFFFFFFFFFFFFFFFFFFFFFFFFFFFFF DUP3 AND SWAP1 POP SWAP2 SWAP1 POP JUMP JUMPDEST PUSH0 PUSH2 0x134C DUP3 PUSH2 0x1323 JUMP JUMPDEST SWAP1 POP SWAP2 SWAP1 POP JUMP JUMPDEST PUSH2 0x135C DUP2 PUSH2 0x1342 JUMP JUMPDEST DUP2 EQ PUSH2 0x1366 JUMPI PUSH0 DUP1 REVERT JUMPDEST POP JUMP JUMPDEST PUSH0 DUP2 CALLDATALOAD SWAP1 POP PUSH2 0x1377 DUP2 PUSH2 0x1353 JUMP JUMPDEST SWAP3 SWAP2 POP POP JUMP JUMPDEST PUSH0 DUP2 SWAP1 POP SWAP2 SWAP1 POP JUMP JUMPDEST PUSH2 0x138F DUP2 PUSH2 0x137D JUMP JUMPDEST DUP2 EQ PUSH2 0x1399 JUMPI PUSH0 DUP1 REVERT JUMPDEST POP JUMP JUMPDEST PUSH0 DUP2 CALLDATALOAD SWAP1 POP PUSH2 0x13AA DUP2 PUSH2 0x1386 JUMP JUMPDEST SWAP3 SWAP2 POP POP JUMP JUMPDEST PUSH0 DUP1 PUSH1 0x40 DUP4 DUP6 SUB SLT ISZERO PUSH2 0x13C6 JUMPI PUSH2 0x13C5 PUSH2 0x131B JUMP JUMPDEST JUMPDEST PUSH0 PUSH2 0x13D3 DUP6 DUP3 DUP7 ADD PUSH2 0x1369 JUMP JUMPDEST SWAP3 POP POP PUSH1 0x20 PUSH2 0x13E4 DUP6 DUP3 DUP7 ADD PUSH2 0x139C JUMP JUMPDEST SWAP2 POP POP SWAP3 POP SWAP3 SWAP1 POP JUMP JUMPDEST PUSH0 PUSH1 0x20 DUP3 DUP5 SUB SLT ISZERO PUSH2 0x1403 JUMPI PUSH2 0x1402 PUSH2 0x131B JUMP JUMPDEST JUMPDEST PUSH0 PUSH2 0x1410 DUP5 DUP3 DUP6 ADD PUSH2 0x1369 JUMP JUMPDEST SWAP2 POP POP SWAP3 SWAP2 POP POP JUMP JUMPDEST PUSH2 0x1422 DUP2 PUSH2 0x1342 JUMP JUMPDEST DUP3 MSTORE POP POP JUMP JUMPDEST PUSH2 0x1431 DUP2 PUSH2 0x137D JUMP JUMPDEST DUP3 MSTORE POP POP JUMP JUMPDEST PUSH0 PUSH1 0x40 DUP3 ADD SWAP1 POP PUSH2 0x144A PUSH0 DUP4 ADD DUP6 PUSH2 0x1419 JUMP JUMPDEST PUSH2 0x1457 PUSH1 0x20 DUP4 ADD DUP5 PUSH2 0x1428 JUMP JUMPDEST SWAP4 SWAP3 POP POP POP JUMP JUMPDEST PUSH0 DUP1 REVERT JUMPDEST PUSH0 DUP1 REVERT JUMPDEST PUSH0 PUSH1 0x1F NOT PUSH1 0x1F DUP4 ADD AND SWAP1 POP SWAP2 SWAP1 POP JUMP JUMPDEST PUSH32 0x4E487B7100000000000000000000000000000000000000000000000000000000 PUSH0 MSTORE PUSH1 0x41 PUSH1 0x4 MSTORE PUSH1 0x24 PUSH0 REVERT JUMPDEST PUSH2 0x14AC DUP3 PUSH2 0x1466 JUMP JUMPDEST DUP2 ADD DUP2 DUP2 LT PUSH8 0xFFFFFFFFFFFFFFFF DUP3 GT OR ISZERO PUSH2 0x14CB JUMPI PUSH2 0x14CA PUSH2 0x1476 JUMP JUMPDEST JUMPDEST DUP1 PUSH1 0x40 MSTORE POP POP POP JUMP JUMPDEST PUSH0 PUSH2 0x14DD PUSH2 0x1312 JUMP JUMPDEST SWAP1 POP PUSH2 0x14E9 DUP3 DUP3 PUSH2 0x14A3 JUMP JUMPDEST SWAP2 SWAP1 POP JUMP JUMPDEST PUSH0 PUSH8 0xFFFFFFFFFFFFFFFF DUP3 GT ISZERO PUSH2 0x1508 JUMPI PUSH2 0x1507 PUSH2 0x1476 JUMP JUMPDEST JUMPDEST PUSH2 0x1511 DUP3 PUSH2 0x1466 JUMP JUMPDEST SWAP1 POP PUSH1 0x20 DUP2 ADD SWAP1 POP SWAP2 SWAP1 POP JUMP JUMPDEST DUP3 DUP2 DUP4 CALLDATACOPY PUSH0 DUP4 DUP4 ADD MSTORE POP POP POP JUMP JUMPDEST PUSH0 PUSH2 0x153E PUSH2 0x1539 DUP5 PUSH2 0x14EE JUMP JUMPDEST PUSH2 0x14D4 JUMP JUMPDEST SWAP1 POP DUP3 DUP2 MSTORE PUSH1 0x20 DUP2 ADD DUP5 DUP5 DUP5 ADD GT ISZERO PUSH2 0x155A JUMPI PUSH2 0x1559 PUSH2 0x1462 JUMP JUMPDEST JUMPDEST PUSH2 0x1565 DUP5 DUP3 DUP6 PUSH2 0x151E JUMP JUMPDEST POP SWAP4 SWAP3 POP POP POP JUMP JUMPDEST PUSH0 DUP3 PUSH1 0x1F DUP4 ADD SLT PUSH2 0x1581 JUMPI PUSH2 0x1580 PUSH2 0x145E JUMP JUMPDEST JUMPDEST DUP2 CALLDATALOAD PUSH2 0x1591 DUP5 DUP3 PUSH1 0x20 DUP7 ADD PUSH2 0x152C JUMP JUMPDEST SWAP2 POP POP SWAP3 SWAP2 POP POP JUMP JUMPDEST PUSH0 PUSH1 0x20 DUP3 DUP5 SUB SLT ISZERO PUSH2 0x15AF JUMPI PUSH2 0x15AE PUSH2 0x131B JUMP JUMPDEST JUMPDEST PUSH0 DUP3 ADD CALLDATALOAD PUSH8 0xFFFFFFFFFFFFFFFF DUP2 GT ISZERO PUSH2 0x15CC JUMPI PUSH2 0x15CB PUSH2 0x131F JUMP JUMPDEST JUMPDEST PUSH2 0x15D8 DUP5 DUP3 DUP6 ADD PUSH2 0x156D JUMP JUMPDEST SWAP2 POP POP SWAP3 SWAP2 POP POP JUMP JUMPDEST PUSH0 DUP2 MLOAD SWAP1 POP SWAP2 SWAP1 POP JUMP JUMPDEST PUSH0 DUP3 DUP3 MSTORE PUSH1 0x20 DUP3 ADD SWAP1 POP SWAP3 SWAP2 POP POP JUMP JUMPDEST PUSH0 DUP2 SWAP1 POP PUSH1 0x20 DUP3 ADD SWAP1 POP SWAP2 SWAP1 POP JUMP JUMPDEST PUSH0 DUP2 MLOAD SWAP1 POP SWAP2 SWAP1 POP JUMP JUMPDEST PUSH0 DUP3 DUP3 MSTORE PUSH1 0x20 DUP3 ADD SWAP1 POP SWAP3 SWAP2 POP POP JUMP JUMPDEST PUSH0 JUMPDEST DUP4 DUP2 LT ISZERO PUSH2 0x1641 JUMPI DUP1 DUP3 ADD MLOAD DUP2 DUP5 ADD MSTORE PUSH1 0x20 DUP2 ADD SWAP1 POP PUSH2 0x1626 JUMP JUMPDEST PUSH0 DUP5 DUP5 ADD MSTORE POP POP POP POP JUMP JUMPDEST PUSH0 PUSH2 0x1656 DUP3 PUSH2 0x160A JUMP JUMPDEST PUSH2 0x1660 DUP2 DUP6 PUSH2 0x1614 JUMP JUMPDEST SWAP4 POP PUSH2 0x1670 DUP2 DUP6 PUSH1 0x20 DUP7 ADD PUSH2 0x1624 JUMP JUMPDEST PUSH2 0x1679 DUP2 PUSH2 0x1466 JUMP JUMPDEST DUP5 ADD SWAP2 POP POP SWAP3 SWAP2 POP POP JUMP JUMPDEST PUSH0 PUSH2 0x168F DUP4 DUP4 PUSH2 0x164C JUMP JUMPDEST SWAP1 POP SWAP3 SWAP2 POP POP JUMP JUMPDEST PUSH0 PUSH1 0x20 DUP3 ADD SWAP1 POP SWAP2 SWAP1 POP JUMP JUMPDEST PUSH0 PUSH2 0x16AD DUP3 PUSH2 0x15E1 JUMP JUMPDEST PUSH2 0x16B7 DUP2 DUP6 PUSH2 0x15EB JUMP JUMPDEST SWAP4 POP DUP4 PUSH1 0x20 DUP3 MUL DUP6 ADD PUSH2 0x16C9 DUP6 PUSH2 0x15FB JUMP JUMPDEST DUP1 PUSH0 JUMPDEST DUP6 DUP2 LT ISZERO PUSH2 0x1704 JUMPI DUP5 DUP5 SUB DUP10 MSTORE DUP2 MLOAD PUSH2 0x16E5 DUP6 DUP3 PUSH2 0x1684 JUMP JUMPDEST SWAP5 POP PUSH2 0x16F0 DUP4 PUSH2 0x1697 JUMP JUMPDEST SWAP3 POP PUSH1 0x20 DUP11 ADD SWAP10 POP POP PUSH1 0x1 DUP2 ADD SWAP1 POP PUSH2 0x16CC JUMP JUMPDEST POP DUP3 SWAP8 POP DUP8 SWAP6 POP POP POP POP POP POP SWAP3 SWAP2 POP POP JUMP JUMPDEST PUSH0 PUSH1 0x20 DUP3 ADD SWAP1 POP DUP2 DUP2 SUB PUSH0 DUP4 ADD MSTORE PUSH2 0x172E DUP2 DUP5 PUSH2 0x16A3 JUMP JUMPDEST SWAP1 POP SWAP3 SWAP2 POP POP JUMP JUMPDEST PUSH0 DUP3 DUP3 MSTORE PUSH1 0x20 DUP3 ADD SWAP1 POP SWAP3 SWAP2 POP POP JUMP JUMPDEST PUSH0 PUSH2 0x1750 DUP3 PUSH2 0x160A JUMP JUMPDEST PUSH2 0x175A DUP2 DUP6 PUSH2 0x1736 JUMP JUMPDEST SWAP4 POP PUSH2 0x176A DUP2 DUP6 PUSH1 0x20 DUP7 ADD PUSH2 0x1624 JUMP JUMPDEST PUSH2 0x1773 DUP2 PUSH2 0x1466 JUMP JUMPDEST DUP5 ADD SWAP2 POP POP SWAP3 SWAP2 POP POP JUMP JUMPDEST PUSH0 PUSH1 0x20 DUP3 ADD SWAP1 POP DUP2 DUP2 SUB PUSH0 DUP4 ADD MSTORE PUSH2 0x1796 DUP2 DUP5 PUSH2 0x1746 JUMP JUMPDEST SWAP1 POP SWAP3 SWAP2 POP POP JUMP JUMPDEST PUSH0 DUP1 PUSH1 0x40 DUP4 DUP6 SUB SLT ISZERO PUSH2 0x17B4 JUMPI PUSH2 0x17B3 PUSH2 0x131B JUMP JUMPDEST JUMPDEST PUSH0 PUSH2 0x17C1 DUP6 DUP3 DUP7 ADD PUSH2 0x1369 JUMP JUMPDEST SWAP3 POP POP PUSH1 0x20 DUP4 ADD CALLDATALOAD PUSH8 0xFFFFFFFFFFFFFFFF DUP2 GT ISZERO PUSH2 0x17E2 JUMPI PUSH2 0x17E1 PUSH2 0x131F JUMP JUMPDEST JUMPDEST PUSH2 0x17EE DUP6 DUP3 DUP7 ADD PUSH2 0x156D JUMP JUMPDEST SWAP2 POP POP SWAP3 POP SWAP3 SWAP1 POP JUMP JUMPDEST PUSH0 PUSH8 0xFFFFFFFFFFFFFFFF DUP3 GT ISZERO PUSH2 0x1812 JUMPI PUSH2 0x1811 PUSH2 0x1476 JUMP JUMPDEST JUMPDEST PUSH1 0x20 DUP3 MUL SWAP1 POP PUSH1 0x20 DUP2 ADD SWAP1 POP SWAP2 SWAP1 POP JUMP JUMPDEST PUSH0 DUP1 REVERT JUMPDEST PUSH0 PUSH2 0x1839 PUSH2 0x1834 DUP5 PUSH2 0x17F8 JUMP JUMPDEST PUSH2 0x14D4 JUMP JUMPDEST SWAP1 POP DUP1 DUP4 DUP3 MSTORE PUSH1 0x20 DUP3 ADD SWAP1 POP PUSH1 0x20 DUP5 MUL DUP4 ADD DUP6 DUP2 GT ISZERO PUSH2 0x185C JUMPI PUSH2 0x185B PUSH2 0x1823 JUMP JUMPDEST JUMPDEST DUP4 JUMPDEST DUP2 DUP2 LT ISZERO PUSH2 0x18A3 JUMPI DUP1 CALLDATALOAD PUSH8 0xFFFFFFFFFFFFFFFF DUP2 GT ISZERO PUSH2 0x1881 JUMPI PUSH2 0x1880 PUSH2 0x145E JUMP JUMPDEST JUMPDEST DUP1 DUP7 ADD PUSH2 0x188E DUP10 DUP3 PUSH2 0x156D JUMP JUMPDEST DUP6 MSTORE PUSH1 0x20 DUP6 ADD SWAP5 POP POP POP PUSH1 0x20 DUP2 ADD SWAP1 POP PUSH2 0x185E JUMP JUMPDEST POP POP POP SWAP4 SWAP3 POP POP POP JUMP JUMPDEST PUSH0 DUP3 PUSH1 0x1F DUP4 ADD SLT PUSH2 0x18C1 JUMPI PUSH2 0x18C0 PUSH2 0x145E JUMP JUMPDEST JUMPDEST DUP2 CALLDATALOAD PUSH2 0x18D1 DUP5 DUP3 PUSH1 0x20 DUP7 ADD PUSH2 0x1827 JUMP JUMPDEST SWAP2 POP POP SWAP3 SWAP2 POP POP JUMP JUMPDEST PUSH0 PUSH1 0x20 DUP3 DUP5 SUB SLT ISZERO PUSH2 0x18EF JUMPI PUSH2 0x18EE PUSH2 0x131B JUMP JUMPDEST JUMPDEST PUSH0 DUP3 ADD CALLDATALOAD PUSH8 0xFFFFFFFFFFFFFFFF DUP2 GT ISZERO PUSH2 0x190C JUMPI PUSH2 0x190B PUSH2 0x131F JUMP JUMPDEST JUMPDEST PUSH2 0x1918 DUP5 DUP3 DUP6 ADD PUSH2 0x18AD JUMP JUMPDEST SWAP2 POP POP SWAP3 SWAP2 POP POP JUMP JUMPDEST PUSH0 PUSH1 0x20 DUP3 DUP5 SUB SLT ISZERO PUSH2 0x1936 JUMPI PUSH2 0x1935 PUSH2 0x131B JUMP JUMPDEST JUMPDEST PUSH0 PUSH2 0x1943 DUP5 DUP3 DUP6 ADD PUSH2 0x139C JUMP JUMPDEST SWAP2 POP POP SWAP3 SWAP2 POP POP JUMP JUMPDEST PUSH0 PUSH1 0x20 DUP3 ADD SWAP1 POP PUSH2 0x195F PUSH0 DUP4 ADD DUP5 PUSH2 0x1419 JUMP JUMPDEST SWAP3 SWAP2 POP POP JUMP JUMPDEST PUSH0 DUP1 PUSH0 PUSH1 0x60 DUP5 DUP7 SUB SLT ISZERO PUSH2 0x197C JUMPI PUSH2 0x197B PUSH2 0x131B JUMP JUMPDEST JUMPDEST PUSH0 DUP5 ADD CALLDATALOAD PUSH8 0xFFFFFFFFFFFFFFFF DUP2 GT ISZERO PUSH2 0x1999 JUMPI PUSH2 0x1998 PUSH2 0x131F JUMP JUMPDEST JUMPDEST PUSH2 0x19A5 DUP7 DUP3 DUP8 ADD PUSH2 0x156D JUMP JUMPDEST SWAP4 POP POP PUSH1 0x20 DUP5 ADD CALLDATALOAD PUSH8 0xFFFFFFFFFFFFFFFF DUP2 GT ISZERO PUSH2 0x19C6 JUMPI PUSH2 0x19C5 PUSH2 0x131F JUMP JUMPDEST JUMPDEST PUSH2 0x19D2 DUP7 DUP3 DUP8 ADD PUSH2 0x156D JUMP JUMPDEST SWAP3 POP POP PUSH1 0x40 DUP5 ADD CALLDATALOAD PUSH8 0xFFFFFFFFFFFFFFFF DUP2 GT ISZERO PUSH2 0x19F3 JUMPI PUSH2 0x19F2 PUSH2 0x131F JUMP JUMPDEST JUMPDEST PUSH2 0x19FF DUP7 DUP3 DUP8 ADD PUSH2 0x156D JUMP JUMPDEST SWAP2 POP POP SWAP3 POP SWAP3 POP SWAP3 JUMP JUMPDEST PUSH0 DUP2 MLOAD SWAP1 POP SWAP2 SWAP1 POP JUMP JUMPDEST PUSH0 DUP3 DUP3 MSTORE PUSH1 0x20 DUP3 ADD SWAP1 POP SWAP3 SWAP2 POP POP JUMP JUMPDEST PUSH0 DUP2 SWAP1 POP PUSH1 0x20 DUP3 ADD SWAP1 POP SWAP2 SWAP1 POP JUMP JUMPDEST PUSH2 0x1A3B DUP2 PUSH2 0x1342 JUMP JUMPDEST DUP3 MSTORE POP POP JUMP JUMPDEST PUSH0 PUSH2 0x1A4C DUP4 DUP4 PUSH2 0x1A32 JUMP JUMPDEST PUSH1 0x20 DUP4 ADD SWAP1 POP SWAP3 SWAP2 POP POP JUMP JUMPDEST PUSH0 PUSH1 0x20 DUP3 ADD SWAP1 POP SWAP2 SWAP1 POP JUMP JUMPDEST PUSH0 PUSH2 0x1A6E DUP3 PUSH2 0x1A09 JUMP JUMPDEST PUSH2 0x1A78 DUP2 DUP6 PUSH2 0x1A13 JUMP JUMPDEST SWAP4 POP PUSH2 0x1A83 DUP4 PUSH2 0x1A23 JUMP JUMPDEST DUP1 PUSH0 JUMPDEST DUP4 DUP2 LT ISZERO PUSH2 0x1AB3 JUMPI DUP2 MLOAD PUSH2 0x1A9A DUP9 DUP3 PUSH2 0x1A41 JUMP JUMPDEST SWAP8 POP PUSH2 0x1AA5 DUP4 PUSH2 0x1A58 JUMP JUMPDEST SWAP3 POP POP PUSH1 0x1 DUP2 ADD SWAP1 POP PUSH2 0x1A86 JUMP JUMPDEST POP DUP6 SWAP4 POP POP POP POP SWAP3 SWAP2 POP POP JUMP JUMPDEST PUSH0 PUSH1 0x20 DUP3 ADD SWAP1 POP DUP2 DUP2 SUB PUSH0 DUP4 ADD MSTORE PUSH2 0x1AD8 DUP2 DUP5 PUSH2 0x1A64 JUMP JUMPDEST SWAP1 POP SWAP3 SWAP2 POP POP JUMP JUMPDEST PUSH2 0x1AE9 DUP2 PUSH2 0x137D JUMP JUMPDEST DUP3 MSTORE POP POP JUMP JUMPDEST PUSH1 0x40 DUP3 ADD PUSH0 DUP3 ADD MLOAD PUSH2 0x1B03 PUSH0 DUP6 ADD DUP3 PUSH2 0x1A32 JUMP JUMPDEST POP PUSH1 0x20 DUP3 ADD MLOAD PUSH2 0x1B16 PUSH1 0x20 DUP6 ADD DUP3 PUSH2 0x1AE0 JUMP JUMPDEST POP POP POP POP JUMP JUMPDEST PUSH0 PUSH1 0x40 DUP3 ADD SWAP1 POP PUSH2 0x1B2F PUSH0 DUP4 ADD DUP5 PUSH2 0x1AEF JUMP JUMPDEST SWAP3 SWAP2 POP POP JUMP JUMPDEST PUSH32 0x4E6F646520616C72656164792065786973747300000000000000000000000000 PUSH0 DUP3 ADD MSTORE POP JUMP JUMPDEST PUSH0 PUSH2 0x1B69 PUSH1 0x13 DUP4 PUSH2 0x1736 JUMP JUMPDEST SWAP2 POP PUSH2 0x1B74 DUP3 PUSH2 0x1B35 JUMP JUMPDEST PUSH1 0x20 DUP3 ADD SWAP1 POP SWAP2 SWAP1 POP JUMP JUMPDEST PUSH0 PUSH1 0x20 DUP3 ADD SWAP1 POP DUP2 DUP2 SUB PUSH0 DUP4 ADD MSTORE PUSH2 0x1B96 DUP2 PUSH2 0x1B5D JUMP JUMPDEST SWAP1 POP SWAP2 SWAP1 POP JUMP JUMPDEST PUSH32 0x4E487B7100000000000000000000000000000000000000000000000000000000 PUSH0 MSTORE PUSH1 0x11 PUSH1 0x4 MSTORE PUSH1 0x24 PUSH0 REVERT JUMPDEST PUSH0 PUSH2 0x1BD4 DUP3 PUSH2 0x137D JUMP JUMPDEST SWAP2 POP PUSH2 0x1BDF DUP4 PUSH2 0x137D JUMP JUMPDEST SWAP3 POP DUP3 DUP3 ADD SWAP1 POP DUP1 DUP3 GT ISZERO PUSH2 0x1BF7 JUMPI PUSH2 0x1BF6 PUSH2 0x1B9D JUMP JUMPDEST JUMPDEST SWAP3 SWAP2 POP POP JUMP JUMPDEST PUSH0 PUSH2 0x1C07 DUP3 PUSH2 0x137D JUMP JUMPDEST SWAP2 POP PUSH2 0x1C12 DUP4 PUSH2 0x137D JUMP JUMPDEST SWAP3 POP DUP3 DUP3 SUB SWAP1 POP DUP2 DUP2 GT ISZERO PUSH2 0x1C2A JUMPI PUSH2 0x1C29 PUSH2 0x1B9D JUMP JUMPDEST JUMPDEST SWAP3 SWAP2 POP POP JUMP JUMPDEST PUSH32 0x4E487B7100000000000000000000000000000000000000000000000000000000 PUSH0 MSTORE PUSH1 0x12 PUSH1 0x4 MSTORE PUSH1 0x24 PUSH0 REVERT JUMPDEST PUSH0 PUSH2 0x1C67 DUP3 PUSH2 0x137D JUMP JUMPDEST SWAP2 POP PUSH2 0x1C72 DUP4 PUSH2 0x137D JUMP JUMPDEST SWAP3 POP DUP3 PUSH2 0x1C82 JUMPI PUSH2 0x1C81 PUSH2 0x1C30 JUMP JUMPDEST JUMPDEST DUP3 DUP3 DIV SWAP1 POP SWAP3 SWAP2 POP POP JUMP JUMPDEST PUSH0 PUSH2 0x1C97 DUP3 PUSH2 0x137D JUMP JUMPDEST SWAP2 POP PUSH2 0x1CA2 DUP4 PUSH2 0x137D JUMP JUMPDEST SWAP3 POP DUP3 DUP3 MUL PUSH2 0x1CB0 DUP2 PUSH2 0x137D JUMP JUMPDEST SWAP2 POP DUP3 DUP3 DIV DUP5 EQ DUP4 ISZERO OR PUSH2 0x1CC7 JUMPI PUSH2 0x1CC6 PUSH2 0x1B9D JUMP JUMPDEST JUMPDEST POP SWAP3 SWAP2 POP POP JUMP JUMPDEST PUSH32 0x4E487B7100000000000000000000000000000000000000000000000000000000 PUSH0 MSTORE PUSH1 0x32 PUSH1 0x4 MSTORE PUSH1 0x24 PUSH0 REVERT JUMPDEST PUSH0 DUP2 SWAP1 POP SWAP3 SWAP2 POP POP JUMP JUMPDEST PUSH0 PUSH2 0x1D0F DUP3 PUSH2 0x160A JUMP JUMPDEST PUSH2 0x1D19 DUP2 DUP6 PUSH2 0x1CFB JUMP JUMPDEST SWAP4 POP PUSH2 0x1D29 DUP2 DUP6 PUSH1 0x20 DUP7 ADD PUSH2 0x1624 JUMP JUMPDEST DUP1 DUP5 ADD SWAP2 POP POP SWAP3 SWAP2 POP POP JUMP JUMPDEST PUSH0 PUSH2 0x1D40 DUP3 DUP5 PUSH2 0x1D05 JUMP JUMPDEST SWAP2 POP DUP2 SWAP1 POP SWAP3 SWAP2 POP POP JUMP JUMPDEST PUSH32 0x46696C65206E6F7420666F756E64000000000000000000000000000000000000 PUSH0 DUP3 ADD MSTORE POP JUMP JUMPDEST PUSH0 PUSH2 0x1D7F PUSH1 0xE DUP4 PUSH2 0x1736 JUMP JUMPDEST SWAP2 POP PUSH2 0x1D8A DUP3 PUSH2 0x1D4B JUMP JUMPDEST PUSH1 0x20 DUP3 ADD SWAP1 POP SWAP2 SWAP1 POP JUMP JUMPDEST PUSH0 PUSH1 0x20 DUP3 ADD SWAP1 POP DUP2 DUP2 SUB PUSH0 DUP4 ADD MSTORE PUSH2 0x1DAC DUP2 PUSH2 0x1D73 JUMP JUMPDEST SWAP1 POP SWAP2 SWAP1 POP JUMP JUMPDEST PUSH0 PUSH2 0x1DBD DUP3 PUSH2 0x137D JUMP JUMPDEST SWAP2 POP PUSH32 0xFFFFFFFFFFFFFFFFFFFFFFFFFFFFFFFFFFFFFFFFFFFFFFFFFFFFFFFFFFFFFFFF DUP3 SUB PUSH2 0x1DEF JUMPI PUSH2 0x1DEE PUSH2 0x1B9D JUMP JUMPDEST JUMPDEST PUSH1 0x1 DUP3 ADD SWAP1 POP SWAP2 SWAP1 POP JUMP JUMPDEST PUSH0 PUSH2 0x1E04 DUP3 PUSH2 0x137D JUMP JUMPDEST SWAP2 POP PUSH2 0x1E0F DUP4 PUSH2 0x137D JUMP JUMPDEST SWAP3 POP DUP3 PUSH2 0x1E1F JUMPI PUSH2 0x1E1E PUSH2 0x1C30 JUMP JUMPDEST JUMPDEST DUP3 DUP3 MOD SWAP1 POP SWAP3 SWAP2 POP POP JUMP JUMPDEST PUSH32 0x4E487B7100000000000000000000000000000000000000000000000000000000 PUSH0 MSTORE PUSH1 0x22 PUSH1 0x4 MSTORE PUSH1 0x24 PUSH0 REVERT JUMPDEST PUSH0 PUSH1 0x2 DUP3 DIV SWAP1 POP PUSH1 0x1 DUP3 AND DUP1 PUSH2 0x1E6E JUMPI PUSH1 0x7F DUP3 AND SWAP2 POP JUMPDEST PUSH1 0x20 DUP3 LT DUP2 SUB PUSH2 0x1E81 JUMPI PUSH2 0x1E80 PUSH2 0x1E2A JUMP JUMPDEST JUMPDEST POP SWAP2 SWAP1 POP JUMP JUMPDEST PUSH0 DUP2 SWAP1 POP DUP2 PUSH0 MSTORE PUSH1 0x20 PUSH0 KECCAK256 SWAP1 POP SWAP2 SWAP1 POP JUMP JUMPDEST PUSH0 PUSH1 0x20 PUSH1 0x1F DUP4 ADD DIV SWAP1 POP SWAP2 SWAP1 POP JUMP JUMPDEST PUSH0 DUP3 DUP3 SHL SWAP1 POP SWAP3 SWAP2 POP POP JUMP JUMPDEST PUSH0 PUSH1 0x8 DUP4 MUL PUSH2 0x1EE3 PUSH32 0xFFFFFFFFFFFFFFFFFFFFFFFFFFFFFFFFFFFFFFFFFFFFFFFFFFFFFFFFFFFFFFFF DUP3 PUSH2 0x1EA8 JUMP JUMPDEST PUSH2 0x1EED DUP7 DUP4 PUSH2 0x1EA8 JUMP JUMPDEST SWAP6 POP DUP1 NOT DUP5 AND SWAP4 POP DUP1 DUP7 AND DUP5 OR SWAP3 POP POP POP SWAP4 SWAP3 POP POP POP JUMP JUMPDEST PUSH0 DUP2 SWAP1 POP SWAP2 SWAP1 POP JUMP JUMPDEST PUSH0 PUSH2 0x1F28 PUSH2 0x1F23 PUSH2 0x1F1E DUP5 PUSH2 0x137D JUMP JUMPDEST PUSH2 0x1F05 JUMP JUMPDEST PUSH2 0x137D JUMP JUMPDEST SWAP1 POP SWAP2 SWAP1 POP JUMP JUMPDEST PUSH0 DUP2 SWAP1 POP SWAP2 SWAP1 POP JUMP JUMPDEST PUSH2 0x1F41 DUP4 PUSH2 0x1F0E JUMP JUMPDEST PUSH2 0x1F55 PUSH2 0x1F4D DUP3 PUSH2 0x1F2F JUMP JUMPDEST DUP5 DUP5 SLOAD PUSH2 0x1EB4 JUMP JUMPDEST DUP3 SSTORE POP POP POP POP JUMP JUMPDEST PUSH0 SWAP1 JUMP JUMPDEST PUSH2 0x1F69 PUSH2 0x1F5D JUMP JUMPDEST PUSH2 0x1F74 DUP2 DUP5 DUP5 PUSH2 0x1F38 JUMP JUMPDEST POP POP POP JUMP JUMPDEST JUMPDEST DUP2 DUP2 LT ISZERO PUSH2 0x1F97 JUMPI PUSH2 0x1F8C PUSH0 DUP3 PUSH2 0x1F61 JUMP JUMPDEST PUSH1 0x1 DUP2 ADD SWAP1 POP PUSH2 0x1F7A JUMP JUMPDEST POP POP JUMP JUMPDEST PUSH1 0x1F DUP3 GT ISZERO PUSH2 0x1FDC JUMPI PUSH2 0x1FAD DUP2 PUSH2 0x1E87 JUMP JUMPDEST PUSH2 0x1FB6 DUP5 PUSH2 0x1E99 JUMP JUMPDEST DUP2 ADD PUSH1 0x20 DUP6 LT ISZERO PUSH2 0x1FC5 JUMPI DUP2 SWAP1 POP JUMPDEST PUSH2 0x1FD9 PUSH2 0x1FD1 DUP6 PUSH2 0x1E99 JUMP JUMPDEST DUP4 ADD DUP3 PUSH2 0x1F79 JUMP JUMPDEST POP POP JUMPDEST POP POP POP JUMP JUMPDEST PUSH0 DUP3 DUP3 SHR SWAP1 POP SWAP3 SWAP2 POP POP JUMP JUMPDEST PUSH0 PUSH2 0x1FFC PUSH0 NOT DUP5 PUSH1 0x8 MUL PUSH2 0x1FE1 JUMP JUMPDEST NOT DUP1 DUP4 AND SWAP2 POP POP SWAP3 SWAP2 POP POP JUMP JUMPDEST PUSH0 PUSH2 0x2014 DUP4 DUP4 PUSH2 0x1FED JUMP JUMPDEST SWAP2 POP DUP3 PUSH1 0x2 MUL DUP3 OR SWAP1 POP SWAP3 SWAP2 POP POP JUMP JUMPDEST PUSH2 0x202D DUP3 PUSH2 0x160A JUMP JUMPDEST PUSH8 0xFFFFFFFFFFFFFFFF DUP2 GT ISZERO PUSH2 0x2046 JUMPI PUSH2 0x2045 PUSH2 0x1476 JUMP JUMPDEST JUMPDEST PUSH2 0x2050 DUP3 SLOAD PUSH2 0x1E57 JUMP JUMPDEST PUSH2 0x205B DUP3 DUP3 DUP6 PUSH2 0x1F9B JUMP JUMPDEST PUSH0 PUSH1 0x20 SWAP1 POP PUSH1 0x1F DUP4 GT PUSH1 0x1 DUP2 EQ PUSH2 0x208C JUMPI PUSH0 DUP5 ISZERO PUSH2 0x207A JUMPI DUP3 DUP8 ADD MLOAD SWAP1 POP JUMPDEST PUSH2 0x2084 DUP6 DUP3 PUSH2 0x2009 JUMP JUMPDEST DUP7 SSTORE POP PUSH2 0x20EB JUMP JUMPDEST PUSH1 0x1F NOT DUP5 AND PUSH2 0x209A DUP7 PUSH2 0x1E87 JUMP JUMPDEST PUSH0 JUMPDEST DUP3 DUP2 LT ISZERO PUSH2 0x20C1 JUMPI DUP5 DUP10 ADD MLOAD DUP3 SSTORE PUSH1 0x1 DUP3 ADD SWAP2 POP PUSH1 0x20 DUP6 ADD SWAP5 POP PUSH1 0x20 DUP2 ADD SWAP1 POP PUSH2 0x209C JUMP JUMPDEST DUP7 DUP4 LT ISZERO PUSH2 0x20DE JUMPI DUP5 DUP10 ADD MLOAD PUSH2 0x20DA PUSH1 0x1F DUP10 AND DUP3 PUSH2 0x1FED JUMP JUMPDEST DUP4 SSTORE POP JUMPDEST PUSH1 0x1 PUSH1 0x2 DUP9 MUL ADD DUP9 SSTORE POP POP POP JUMPDEST POP POP POP POP POP POP JUMP JUMPDEST PUSH32 0x4E6F20617661696C61626C65206E6F6465730000000000000000000000000000 PUSH0 DUP3 ADD MSTORE POP JUMP JUMPDEST PUSH0 PUSH2 0x2127 PUSH1 0x12 DUP4 PUSH2 0x1736 JUMP JUMPDEST SWAP2 POP PUSH2 0x2132 DUP3 PUSH2 0x20F3 JUMP JUMPDEST PUSH1 0x20 DUP3 ADD SWAP1 POP SWAP2 SWAP1 POP JUMP JUMPDEST PUSH0 PUSH1 0x20 DUP3 ADD SWAP1 POP DUP2 DUP2 SUB PUSH0 DUP4 ADD MSTORE PUSH2 0x2154 DUP2 PUSH2 0x211B JUMP JUMPDEST SWAP1 POP SWAP2 SWAP1 POP JUMP JUMPDEST PUSH32 0x556E617574686F72697A65640000000000000000000000000000000000000000 PUSH0 DUP3 ADD MSTORE POP JUMP JUMPDEST PUSH0 PUSH2 0x218F PUSH1 0xC DUP4 PUSH2 0x1736 JUMP JUMPDEST SWAP2 POP PUSH2 0x219A DUP3 PUSH2 0x215B JUMP JUMPDEST PUSH1 0x20 DUP3 ADD SWAP1 POP SWAP2 SWAP1 POP JUMP JUMPDEST PUSH0 PUSH1 0x20 DUP3 ADD SWAP1 POP DUP2 DUP2 SUB PUSH0 DUP4 ADD MSTORE PUSH2 0x21BC DUP2 PUSH2 0x2183 JUMP JUMPDEST SWAP1 POP SWAP2 SWAP1 POP JUMP JUMPDEST PUSH32 0x4E6F646520646F6573206E6F7420657869737400000000000000000000000000 PUSH0 DUP3 ADD MSTORE POP JUMP JUMPDEST PUSH0 PUSH2 0x21F7 PUSH1 0x13 DUP4 PUSH2 0x1736 JUMP JUMPDEST SWAP2 POP PUSH2 0x2202 DUP3 PUSH2 0x21C3 JUMP JUMPDEST PUSH1 0x20 DUP3 ADD SWAP1 POP SWAP2 SWAP1 POP JUMP JUMPDEST PUSH0 PUSH1 0x20 DUP3 ADD SWAP1 POP DUP2 DUP2 SUB PUSH0 DUP4 ADD MSTORE PUSH2 0x2224 DUP2 PUSH2 0x21EB JUMP JUMPDEST SWAP1 POP SWAP2 SWAP1 POP JUMP INVALID LOG2 PUSH5 0x6970667358 0x22 SLT KECCAK256 0xBB 0xED SWAP16 PUSH6 0x7C05CD7D4154 XOR 0xF6 0xB3 0xD8 PUSH10 0xB99A6DF26FB95CA3A56A LOG0 0x1E PUSH18 0xE69FFFF964736F6C63430008160033000000 "
				},
				"gasEstimates": {
					"creation": {
						"codeDepositCost": "1760200",
						"executionCost": "26118",
						"totalCost": "1786318"
					},
					"external": {
						"addNode(address,uint256)": "98045",
						"allNodes(uint256)": "5032",
						"chunkContent(string)": "infinite",
						"concatenateChunks(string[])": "infinite",
						"deleteChunkInNode(address,string)": "infinite",
						"deleteFile(string)": "infinite",
						"findAvailableNode(uint256)": "infinite",
						"getAllNodes()": "infinite",
						"getNodeByAddress(address)": "infinite",
						"nodes(address)": "infinite",
						"owner()": "2553",
						"retrieveChunkInNode(address,string)": "infinite",
						"retrieveFile(string)": "infinite",
						"storeChunkInNode(address,string)": "infinite",
						"storeFile(string,string,string)": "infinite",
						"updateAvailableStorage(address,uint256)": "25134"
					}
				},
				"methodIdentifiers": {
					"addNode(address,uint256)": "11bd77fe",
					"allNodes(uint256)": "fe72ae13",
					"chunkContent(string)": "1f37bdd2",
					"concatenateChunks(string[])": "57d7f21f",
					"deleteChunkInNode(address,string)": "50f1c985",
					"deleteFile(string)": "a9910054",
					"findAvailableNode(uint256)": "64f0c0b8",
					"getAllNodes()": "a1174e7d",
					"getNodeByAddress(address)": "a9860308",
					"nodes(address)": "189a5a17",
					"owner()": "8da5cb5b",
					"retrieveChunkInNode(address,string)": "2a85be1e",
					"retrieveFile(string)": "2804401c",
					"storeChunkInNode(address,string)": "b65814a6",
					"storeFile(string,string,string)": "7dd77d2b",
					"updateAvailableStorage(address,uint256)": "b49f33c8"
				}
			},
			"storageLayout": {
				"storage": [
					{
						"astId": 531,
						"contract": "contracts/_FileStorage.sol:FileStorageManager",
						"label": "nodes",
						"offset": 0,
						"slot": "0",
						"type": "t_mapping(t_address,t_struct(Node)526_storage)"
					},
					{
						"astId": 534,
						"contract": "contracts/_FileStorage.sol:FileStorageManager",
						"label": "allNodes",
						"offset": 0,
						"slot": "1",
						"type": "t_array(t_address)dyn_storage"
					},
					{
						"astId": 233,
						"contract": "contracts/_FileStorage.sol:FileStorageManager",
						"label": "owner",
						"offset": 0,
						"slot": "2",
						"type": "t_address"
					},
					{
						"astId": 238,
						"contract": "contracts/_FileStorage.sol:FileStorageManager",
						"label": "fileIdToMetadata",
						"offset": 0,
						"slot": "3",
						"type": "t_mapping(t_string_memory_ptr,t_struct(FileMetadata)248_storage)"
					},
					{
						"astId": 243,
						"contract": "contracts/_FileStorage.sol:FileStorageManager",
						"label": "fileIdToNodesAddresses",
						"offset": 0,
						"slot": "4",
						"type": "t_mapping(t_string_memory_ptr,t_array(t_address)dyn_storage)"
					}
				],
				"types": {
					"t_address": {
						"encoding": "inplace",
						"label": "address",
						"numberOfBytes": "20"
					},
					"t_array(t_address)dyn_storage": {
						"base": "t_address",
						"encoding": "dynamic_array",
						"label": "address[]",
						"numberOfBytes": "32"
					},
					"t_mapping(t_address,t_struct(Node)526_storage)": {
						"encoding": "mapping",
						"key": "t_address",
						"label": "mapping(address => struct NodeManager.Node)",
						"numberOfBytes": "32",
						"value": "t_struct(Node)526_storage"
					},
					"t_mapping(t_string_memory_ptr,t_array(t_address)dyn_storage)": {
						"encoding": "mapping",
						"key": "t_string_memory_ptr",
						"label": "mapping(string => address[])",
						"numberOfBytes": "32",
						"value": "t_array(t_address)dyn_storage"
					},
					"t_mapping(t_string_memory_ptr,t_struct(FileMetadata)248_storage)": {
						"encoding": "mapping",
						"key": "t_string_memory_ptr",
						"label": "mapping(string => struct FileStorageManager.FileMetadata)",
						"numberOfBytes": "32",
						"value": "t_struct(FileMetadata)248_storage"
					},
					"t_string_memory_ptr": {
						"encoding": "bytes",
						"label": "string",
						"numberOfBytes": "32"
					},
					"t_string_storage": {
						"encoding": "bytes",
						"label": "string",
						"numberOfBytes": "32"
					},
					"t_struct(FileMetadata)248_storage": {
						"encoding": "inplace",
						"label": "struct FileStorageManager.FileMetadata",
						"members": [
							{
								"astId": 245,
								"contract": "contracts/_FileStorage.sol:FileStorageManager",
								"label": "fileName",
								"offset": 0,
								"slot": "0",
								"type": "t_string_storage"
							},
							{
								"astId": 247,
								"contract": "contracts/_FileStorage.sol:FileStorageManager",
								"label": "fileSize",
								"offset": 0,
								"slot": "1",
								"type": "t_uint256"
							}
						],
						"numberOfBytes": "64"
					},
					"t_struct(Node)526_storage": {
						"encoding": "inplace",
						"label": "struct NodeManager.Node",
						"members": [
							{
								"astId": 523,
								"contract": "contracts/_FileStorage.sol:FileStorageManager",
								"label": "nodeAddress",
								"offset": 0,
								"slot": "0",
								"type": "t_address"
							},
							{
								"astId": 525,
								"contract": "contracts/_FileStorage.sol:FileStorageManager",
								"label": "availableStorage",
								"offset": 0,
								"slot": "1",
								"type": "t_uint256"
							}
						],
						"numberOfBytes": "64"
					},
					"t_uint256": {
						"encoding": "inplace",
						"label": "uint256",
						"numberOfBytes": "32"
					}
				}
			},
			"userdoc": {
				"kind": "user",
				"methods": {},
				"version": 1
			}
		}
	}
}