{
	"contracts/_NodeManager.sol": {
		"NodeManager": {
			"abi": [
				{
					"anonymous": false,
					"inputs": [
						{
							"indexed": false,
							"internalType": "address",
							"name": "",
							"type": "address"
						}
					],
					"name": "logAddress",
					"type": "event"
				},
				{
					"inputs": [
						{
							"internalType": "address",
							"name": "_nodeAddress",
							"type": "address"
						},
						{
							"internalType": "uint256",
							"name": "_initialStorage",
							"type": "uint256"
						}
					],
					"name": "addNode",
					"outputs": [],
					"stateMutability": "nonpayable",
					"type": "function"
				},
				{
					"inputs": [
						{
							"internalType": "uint256",
							"name": "",
							"type": "uint256"
						}
					],
					"name": "allNodes",
					"outputs": [
						{
							"internalType": "address",
							"name": "",
							"type": "address"
						}
					],
					"stateMutability": "view",
					"type": "function"
				},
				{
					"inputs": [
						{
							"internalType": "address",
							"name": "_nodeAddress",
							"type": "address"
						},
						{
							"internalType": "string",
							"name": "_fileId",
							"type": "string"
						}
					],
					"name": "deleteChunkInNode",
					"outputs": [],
					"stateMutability": "nonpayable",
					"type": "function"
				},
				{
					"inputs": [
						{
							"internalType": "uint256",
							"name": "_chunkSize",
							"type": "uint256"
						}
					],
					"name": "findAvailableNode",
					"outputs": [
						{
							"internalType": "address",
							"name": "",
							"type": "address"
						}
					],
					"stateMutability": "view",
					"type": "function"
				},
				{
					"inputs": [],
					"name": "getAllNodes",
					"outputs": [
						{
							"internalType": "address[]",
							"name": "",
							"type": "address[]"
						}
					],
					"stateMutability": "view",
					"type": "function"
				},
				{
					"inputs": [
						{
							"internalType": "address",
							"name": "_nodeAddress",
							"type": "address"
						}
					],
					"name": "getNodeByAddress",
					"outputs": [
						{
							"components": [
								{
									"internalType": "address",
									"name": "nodeAddress",
									"type": "address"
								},
								{
									"internalType": "uint256",
									"name": "availableStorage",
									"type": "uint256"
								}
							],
							"internalType": "struct NodeManager.Node",
							"name": "",
							"type": "tuple"
						}
					],
					"stateMutability": "view",
					"type": "function"
				},
				{
					"inputs": [
						{
							"internalType": "address",
							"name": "",
							"type": "address"
						},
						{
							"internalType": "string",
							"name": "",
							"type": "string"
						}
					],
					"name": "nodeChunks",
					"outputs": [
						{
							"internalType": "string",
							"name": "",
							"type": "string"
						}
					],
					"stateMutability": "view",
					"type": "function"
				},
				{
					"inputs": [
						{
							"internalType": "address",
							"name": "",
							"type": "address"
						}
					],
					"name": "nodes",
					"outputs": [
						{
							"internalType": "address",
							"name": "nodeAddress",
							"type": "address"
						},
						{
							"internalType": "uint256",
							"name": "availableStorage",
							"type": "uint256"
						}
					],
					"stateMutability": "view",
					"type": "function"
				},
				{
					"inputs": [
						{
							"internalType": "address",
							"name": "_nodeAddress",
							"type": "address"
						},
						{
							"internalType": "string",
							"name": "_fileId",
							"type": "string"
						}
					],
					"name": "retrieveChunkInNode",
					"outputs": [
						{
							"internalType": "string",
							"name": "",
							"type": "string"
						}
					],
					"stateMutability": "view",
					"type": "function"
				},
				{
					"inputs": [
						{
							"internalType": "address",
							"name": "_nodeAddress",
							"type": "address"
						},
						{
							"internalType": "string",
							"name": "_chunk",
							"type": "string"
						},
						{
							"internalType": "string",
							"name": "_fileId",
							"type": "string"
						}
					],
					"name": "storeChunkInNode",
					"outputs": [],
					"stateMutability": "nonpayable",
					"type": "function"
				}
			],
			"devdoc": {
				"kind": "dev",
				"methods": {},
				"version": 1
			},
			"evm": {
				"assembly": "    /* \"contracts/_NodeManager.sol\":64:3350  contract NodeManager {... */\n  mstore(0x40, 0x80)\n  callvalue\n  dup1\n  iszero\n  tag_1\n  jumpi\n  0x00\n  dup1\n  revert\ntag_1:\n  pop\n  dataSize(sub_0)\n  dup1\n  dataOffset(sub_0)\n  0x00\n  codecopy\n  0x00\n  return\nstop\n\nsub_0: assembly {\n        /* \"contracts/_NodeManager.sol\":64:3350  contract NodeManager {... */\n      mstore(0x40, 0x80)\n      callvalue\n      dup1\n      iszero\n      tag_1\n      jumpi\n      0x00\n      dup1\n      revert\n    tag_1:\n      pop\n      jumpi(tag_2, lt(calldatasize, 0x04))\n      shr(0xe0, calldataload(0x00))\n      dup1\n      0x9e34c134\n      gt\n      tag_13\n      jumpi\n      dup1\n      0x9e34c134\n      eq\n      tag_8\n      jumpi\n      dup1\n      0xa0be4b1f\n      eq\n      tag_9\n      jumpi\n      dup1\n      0xa1174e7d\n      eq\n      tag_10\n      jumpi\n      dup1\n      0xa9860308\n      eq\n      tag_11\n      jumpi\n      dup1\n      0xfe72ae13\n      eq\n      tag_12\n      jumpi\n      jump(tag_2)\n    tag_13:\n      dup1\n      0x11bd77fe\n      eq\n      tag_3\n      jumpi\n      dup1\n      0x189a5a17\n      eq\n      tag_4\n      jumpi\n      dup1\n      0x2a85be1e\n      eq\n      tag_5\n      jumpi\n      dup1\n      0x50f1c985\n      eq\n      tag_6\n      jumpi\n      dup1\n      0x64f0c0b8\n      eq\n      tag_7\n      jumpi\n    tag_2:\n      0x00\n      dup1\n      revert\n        /* \"contracts/_NodeManager.sol\":430:938  function addNode(address _nodeAddress, uint256 _initialStorage) public {... */\n    tag_3:\n      tag_14\n      0x04\n      dup1\n      calldatasize\n      sub\n      dup2\n      add\n      swap1\n      tag_15\n      swap2\n      swap1\n      tag_16\n      jump\t// in\n    tag_15:\n      tag_17\n      jump\t// in\n    tag_14:\n      stop\n        /* \"contracts/_NodeManager.sol\":219:256  mapping(address => Node) public nodes */\n    tag_4:\n      tag_18\n      0x04\n      dup1\n      calldatasize\n      sub\n      dup2\n      add\n      swap1\n      tag_19\n      swap2\n      swap1\n      tag_20\n      jump\t// in\n    tag_19:\n      tag_21\n      jump\t// in\n    tag_18:\n      mload(0x40)\n      tag_22\n      swap3\n      swap2\n      swap1\n      tag_23\n      jump\t// in\n    tag_22:\n      mload(0x40)\n      dup1\n      swap2\n      sub\n      swap1\n      return\n        /* \"contracts/_NodeManager.sol\":1549:1919  function retrieveChunkInNode(address _nodeAddress, string memory _fileId) public view returns (string memory) {... */\n    tag_5:\n      tag_24\n      0x04\n      dup1\n      calldatasize\n      sub\n      dup2\n      add\n      swap1\n      tag_25\n      swap2\n      swap1\n      tag_26\n      jump\t// in\n    tag_25:\n      tag_27\n      jump\t// in\n    tag_24:\n      mload(0x40)\n      tag_28\n      swap2\n      swap1\n      tag_29\n      jump\t// in\n    tag_28:\n      mload(0x40)\n      dup1\n      swap2\n      sub\n      swap1\n      return\n        /* \"contracts/_NodeManager.sol\":1927:2253  function deleteChunkInNode(address _nodeAddress, string memory _fileId) public {... */\n    tag_6:\n      tag_30\n      0x04\n      dup1\n      calldatasize\n      sub\n      dup2\n      add\n      swap1\n      tag_31\n      swap2\n      swap1\n      tag_26\n      jump\t// in\n    tag_31:\n      tag_32\n      jump\t// in\n    tag_30:\n      stop\n        /* \"contracts/_NodeManager.sol\":2500:3347  function findAvailableNode(uint256 _chunkSize) public view returns (address) {... */\n    tag_7:\n      tag_33\n      0x04\n      dup1\n      calldatasize\n      sub\n      dup2\n      add\n      swap1\n      tag_34\n      swap2\n      swap1\n      tag_35\n      jump\t// in\n    tag_34:\n      tag_36\n      jump\t// in\n    tag_33:\n      mload(0x40)\n      tag_37\n      swap2\n      swap1\n      tag_38\n      jump\t// in\n    tag_37:\n      mload(0x40)\n      dup1\n      swap2\n      sub\n      swap1\n      return\n        /* \"contracts/_NodeManager.sol\":263:326  mapping(address => mapping(string => string)) public nodeChunks */\n    tag_8:\n      tag_39\n      0x04\n      dup1\n      calldatasize\n      sub\n      dup2\n      add\n      swap1\n      tag_40\n      swap2\n      swap1\n      tag_26\n      jump\t// in\n    tag_40:\n      tag_41\n      jump\t// in\n    tag_39:\n      mload(0x40)\n      tag_42\n      swap2\n      swap1\n      tag_29\n      jump\t// in\n    tag_42:\n      mload(0x40)\n      dup1\n      swap2\n      sub\n      swap1\n      return\n        /* \"contracts/_NodeManager.sol\":1195:1541  function storeChunkInNode(address _nodeAddress, string memory _chunk, string memory _fileId) public {... */\n    tag_9:\n      tag_43\n      0x04\n      dup1\n      calldatasize\n      sub\n      dup2\n      add\n      swap1\n      tag_44\n      swap2\n      swap1\n      tag_45\n      jump\t// in\n    tag_44:\n      tag_46\n      jump\t// in\n    tag_43:\n      stop\n        /* \"contracts/_NodeManager.sol\":2261:2357  function getAllNodes() public view returns (address[] memory) {... */\n    tag_10:\n      tag_47\n      tag_48\n      jump\t// in\n    tag_47:\n      mload(0x40)\n      tag_49\n      swap2\n      swap1\n      tag_50\n      jump\t// in\n    tag_49:\n      mload(0x40)\n      dup1\n      swap2\n      sub\n      swap1\n      return\n        /* \"contracts/_NodeManager.sol\":2365:2492  function getNodeByAddress(address _nodeAddress) public view returns (Node memory) {... */\n    tag_11:\n      tag_51\n      0x04\n      dup1\n      calldatasize\n      sub\n      dup2\n      add\n      swap1\n      tag_52\n      swap2\n      swap1\n      tag_20\n      jump\t// in\n    tag_52:\n      tag_53\n      jump\t// in\n    tag_51:\n      mload(0x40)\n      tag_54\n      swap2\n      swap1\n      tag_55\n      jump\t// in\n    tag_54:\n      mload(0x40)\n      dup1\n      swap2\n      sub\n      swap1\n      return\n        /* \"contracts/_NodeManager.sol\":386:411  address[] public allNodes */\n    tag_12:\n      tag_56\n      0x04\n      dup1\n      calldatasize\n      sub\n      dup2\n      add\n      swap1\n      tag_57\n      swap2\n      swap1\n      tag_35\n      jump\t// in\n    tag_57:\n      tag_58\n      jump\t// in\n    tag_56:\n      mload(0x40)\n      tag_59\n      swap2\n      swap1\n      tag_38\n      jump\t// in\n    tag_59:\n      mload(0x40)\n      dup1\n      swap2\n      sub\n      swap1\n      return\n        /* \"contracts/_NodeManager.sol\":430:938  function addNode(address _nodeAddress, uint256 _initialStorage) public {... */\n    tag_17:\n        /* \"contracts/_NodeManager.sol\":572:573  0 */\n      0x00\n        /* \"contracts/_NodeManager.sol\":520:574  nodes[address(_nodeAddress)].nodeAddress == address(0) */\n      0xffffffffffffffffffffffffffffffffffffffff\n      and\n        /* \"contracts/_NodeManager.sol\":520:525  nodes */\n      0x00\n        /* \"contracts/_NodeManager.sol\":520:548  nodes[address(_nodeAddress)] */\n      dup1\n        /* \"contracts/_NodeManager.sol\":534:546  _nodeAddress */\n      dup5\n        /* \"contracts/_NodeManager.sol\":520:548  nodes[address(_nodeAddress)] */\n      0xffffffffffffffffffffffffffffffffffffffff\n      and\n      0xffffffffffffffffffffffffffffffffffffffff\n      and\n      dup2\n      mstore\n      0x20\n      add\n      swap1\n      dup2\n      mstore\n      0x20\n      add\n      0x00\n      keccak256\n        /* \"contracts/_NodeManager.sol\":520:560  nodes[address(_nodeAddress)].nodeAddress */\n      0x00\n      add\n      0x00\n      swap1\n      sload\n      swap1\n      0x0100\n      exp\n      swap1\n      div\n      0xffffffffffffffffffffffffffffffffffffffff\n      and\n        /* \"contracts/_NodeManager.sol\":520:574  nodes[address(_nodeAddress)].nodeAddress == address(0) */\n      0xffffffffffffffffffffffffffffffffffffffff\n      and\n      eq\n        /* \"contracts/_NodeManager.sol\":512:598  require(nodes[address(_nodeAddress)].nodeAddress == address(0), \"Node already exists\") */\n      tag_61\n      jumpi\n      mload(0x40)\n      0x08c379a000000000000000000000000000000000000000000000000000000000\n      dup2\n      mstore\n      0x04\n      add\n      tag_62\n      swap1\n      tag_63\n      jump\t// in\n    tag_62:\n      mload(0x40)\n      dup1\n      swap2\n      sub\n      swap1\n      revert\n    tag_61:\n        /* \"contracts/_NodeManager.sol\":698:812  Node({... */\n      mload(0x40)\n      dup1\n      0x40\n      add\n      0x40\n      mstore\n      dup1\n        /* \"contracts/_NodeManager.sol\":739:751  _nodeAddress */\n      dup4\n        /* \"contracts/_NodeManager.sol\":698:812  Node({... */\n      0xffffffffffffffffffffffffffffffffffffffff\n      and\n      dup2\n      mstore\n      0x20\n      add\n        /* \"contracts/_NodeManager.sol\":785:800  _initialStorage */\n      dup3\n        /* \"contracts/_NodeManager.sol\":698:812  Node({... */\n      dup2\n      mstore\n      pop\n        /* \"contracts/_NodeManager.sol\":667:672  nodes */\n      0x00\n        /* \"contracts/_NodeManager.sol\":667:695  nodes[address(_nodeAddress)] */\n      dup1\n        /* \"contracts/_NodeManager.sol\":681:693  _nodeAddress */\n      dup5\n        /* \"contracts/_NodeManager.sol\":667:695  nodes[address(_nodeAddress)] */\n      0xffffffffffffffffffffffffffffffffffffffff\n      and\n      0xffffffffffffffffffffffffffffffffffffffff\n      and\n      dup2\n      mstore\n      0x20\n      add\n      swap1\n      dup2\n      mstore\n      0x20\n      add\n      0x00\n      keccak256\n        /* \"contracts/_NodeManager.sol\":667:812  nodes[address(_nodeAddress)] = Node({... */\n      0x00\n      dup3\n      add\n      mload\n      dup2\n      0x00\n      add\n      exp(0x0100, 0x00)\n      dup2\n      sload\n      dup2\n      0xffffffffffffffffffffffffffffffffffffffff\n      mul\n      not\n      and\n      swap1\n      dup4\n      0xffffffffffffffffffffffffffffffffffffffff\n      and\n      mul\n      or\n      swap1\n      sstore\n      pop\n      0x20\n      dup3\n      add\n      mload\n      dup2\n      0x01\n      add\n      sstore\n      swap1\n      pop\n      pop\n        /* \"contracts/_NodeManager.sol\":828:861  logAddress(address(_nodeAddress)) */\n      0x5f91b0afd2c6ef8da92137ba907bccdc85ec4856a15ad39de3e0eff02be6d70e\n        /* \"contracts/_NodeManager.sol\":847:859  _nodeAddress */\n      dup3\n        /* \"contracts/_NodeManager.sol\":828:861  logAddress(address(_nodeAddress)) */\n      mload(0x40)\n      tag_64\n      swap2\n      swap1\n      tag_38\n      jump\t// in\n    tag_64:\n      mload(0x40)\n      dup1\n      swap2\n      sub\n      swap1\n      log1\n        /* \"contracts/_NodeManager.sol\":894:902  allNodes */\n      0x02\n        /* \"contracts/_NodeManager.sol\":916:928  _nodeAddress */\n      dup3\n        /* \"contracts/_NodeManager.sol\":894:930  allNodes.push(address(_nodeAddress)) */\n      swap1\n      dup1\n      0x01\n      dup2\n      sload\n      add\n      dup1\n      dup3\n      sstore\n      dup1\n      swap2\n      pop\n      pop\n      0x01\n      swap1\n      sub\n      swap1\n      0x00\n      mstore\n      keccak256(0x00, 0x20)\n      add\n      0x00\n      swap1\n      swap2\n      swap1\n      swap2\n      swap1\n      swap2\n      0x0100\n      exp\n      dup2\n      sload\n      dup2\n      0xffffffffffffffffffffffffffffffffffffffff\n      mul\n      not\n      and\n      swap1\n      dup4\n      0xffffffffffffffffffffffffffffffffffffffff\n      and\n      mul\n      or\n      swap1\n      sstore\n      pop\n        /* \"contracts/_NodeManager.sol\":430:938  function addNode(address _nodeAddress, uint256 _initialStorage) public {... */\n      pop\n      pop\n      jump\t// out\n        /* \"contracts/_NodeManager.sol\":219:256  mapping(address => Node) public nodes */\n    tag_21:\n      mstore(0x20, 0x00)\n      dup1\n      0x00\n      mstore\n      keccak256(0x00, 0x40)\n      0x00\n      swap2\n      pop\n      swap1\n      pop\n      dup1\n      0x00\n      add\n      0x00\n      swap1\n      sload\n      swap1\n      0x0100\n      exp\n      swap1\n      div\n      0xffffffffffffffffffffffffffffffffffffffff\n      and\n      swap1\n      dup1\n      0x01\n      add\n      sload\n      swap1\n      pop\n      dup3\n      jump\t// out\n        /* \"contracts/_NodeManager.sol\":1549:1919  function retrieveChunkInNode(address _nodeAddress, string memory _fileId) public view returns (string memory) {... */\n    tag_27:\n        /* \"contracts/_NodeManager.sol\":1644:1657  string memory */\n      0x60\n        /* \"contracts/_NodeManager.sol\":1721:1722  0 */\n      0x00\n        /* \"contracts/_NodeManager.sol\":1678:1723  nodes[_nodeAddress].nodeAddress != address(0) */\n      0xffffffffffffffffffffffffffffffffffffffff\n      and\n        /* \"contracts/_NodeManager.sol\":1678:1683  nodes */\n      0x00\n        /* \"contracts/_NodeManager.sol\":1678:1697  nodes[_nodeAddress] */\n      dup1\n        /* \"contracts/_NodeManager.sol\":1684:1696  _nodeAddress */\n      dup6\n        /* \"contracts/_NodeManager.sol\":1678:1697  nodes[_nodeAddress] */\n      0xffffffffffffffffffffffffffffffffffffffff\n      and\n      0xffffffffffffffffffffffffffffffffffffffff\n      and\n      dup2\n      mstore\n      0x20\n      add\n      swap1\n      dup2\n      mstore\n      0x20\n      add\n      0x00\n      keccak256\n        /* \"contracts/_NodeManager.sol\":1678:1709  nodes[_nodeAddress].nodeAddress */\n      0x00\n      add\n      0x00\n      swap1\n      sload\n      swap1\n      0x0100\n      exp\n      swap1\n      div\n      0xffffffffffffffffffffffffffffffffffffffff\n      and\n        /* \"contracts/_NodeManager.sol\":1678:1723  nodes[_nodeAddress].nodeAddress != address(0) */\n      0xffffffffffffffffffffffffffffffffffffffff\n      and\n      sub\n        /* \"contracts/_NodeManager.sol\":1670:1747  require(nodes[_nodeAddress].nodeAddress != address(0), \"Node does not exist\") */\n      tag_67\n      jumpi\n      mload(0x40)\n      0x08c379a000000000000000000000000000000000000000000000000000000000\n      dup2\n      mstore\n      0x04\n      add\n      tag_68\n      swap1\n      tag_69\n      jump\t// in\n    tag_68:\n      mload(0x40)\n      dup1\n      swap2\n      sub\n      swap1\n      revert\n    tag_67:\n        /* \"contracts/_NodeManager.sol\":1878:1888  nodeChunks */\n      0x01\n        /* \"contracts/_NodeManager.sol\":1878:1902  nodeChunks[_nodeAddress] */\n      0x00\n        /* \"contracts/_NodeManager.sol\":1889:1901  _nodeAddress */\n      dup5\n        /* \"contracts/_NodeManager.sol\":1878:1902  nodeChunks[_nodeAddress] */\n      0xffffffffffffffffffffffffffffffffffffffff\n      and\n      0xffffffffffffffffffffffffffffffffffffffff\n      and\n      dup2\n      mstore\n      0x20\n      add\n      swap1\n      dup2\n      mstore\n      0x20\n      add\n      0x00\n      keccak256\n        /* \"contracts/_NodeManager.sol\":1903:1910  _fileId */\n      dup3\n        /* \"contracts/_NodeManager.sol\":1878:1911  nodeChunks[_nodeAddress][_fileId] */\n      mload(0x40)\n      tag_70\n      swap2\n      swap1\n      tag_71\n      jump\t// in\n    tag_70:\n      swap1\n      dup2\n      mstore\n      0x20\n      add\n      mload(0x40)\n      dup1\n      swap2\n      sub\n      swap1\n      keccak256\n        /* \"contracts/_NodeManager.sol\":1871:1911  return nodeChunks[_nodeAddress][_fileId] */\n      dup1\n      sload\n      tag_72\n      swap1\n      tag_73\n      jump\t// in\n    tag_72:\n      dup1\n      0x1f\n      add\n      0x20\n      dup1\n      swap2\n      div\n      mul\n      0x20\n      add\n      mload(0x40)\n      swap1\n      dup2\n      add\n      0x40\n      mstore\n      dup1\n      swap3\n      swap2\n      swap1\n      dup2\n      dup2\n      mstore\n      0x20\n      add\n      dup3\n      dup1\n      sload\n      tag_74\n      swap1\n      tag_73\n      jump\t// in\n    tag_74:\n      dup1\n      iszero\n      tag_75\n      jumpi\n      dup1\n      0x1f\n      lt\n      tag_76\n      jumpi\n      0x0100\n      dup1\n      dup4\n      sload\n      div\n      mul\n      dup4\n      mstore\n      swap2\n      0x20\n      add\n      swap2\n      jump(tag_75)\n    tag_76:\n      dup3\n      add\n      swap2\n      swap1\n      0x00\n      mstore\n      keccak256(0x00, 0x20)\n      swap1\n    tag_77:\n      dup2\n      sload\n      dup2\n      mstore\n      swap1\n      0x01\n      add\n      swap1\n      0x20\n      add\n      dup1\n      dup4\n      gt\n      tag_77\n      jumpi\n      dup3\n      swap1\n      sub\n      0x1f\n      and\n      dup3\n      add\n      swap2\n    tag_75:\n      pop\n      pop\n      pop\n      pop\n      pop\n      swap1\n      pop\n        /* \"contracts/_NodeManager.sol\":1549:1919  function retrieveChunkInNode(address _nodeAddress, string memory _fileId) public view returns (string memory) {... */\n      swap3\n      swap2\n      pop\n      pop\n      jump\t// out\n        /* \"contracts/_NodeManager.sol\":1927:2253  function deleteChunkInNode(address _nodeAddress, string memory _fileId) public {... */\n    tag_32:\n        /* \"contracts/_NodeManager.sol\":2068:2069  0 */\n      0x00\n        /* \"contracts/_NodeManager.sol\":2025:2070  nodes[_nodeAddress].nodeAddress != address(0) */\n      0xffffffffffffffffffffffffffffffffffffffff\n      and\n        /* \"contracts/_NodeManager.sol\":2025:2030  nodes */\n      0x00\n        /* \"contracts/_NodeManager.sol\":2025:2044  nodes[_nodeAddress] */\n      dup1\n        /* \"contracts/_NodeManager.sol\":2031:2043  _nodeAddress */\n      dup5\n        /* \"contracts/_NodeManager.sol\":2025:2044  nodes[_nodeAddress] */\n      0xffffffffffffffffffffffffffffffffffffffff\n      and\n      0xffffffffffffffffffffffffffffffffffffffff\n      and\n      dup2\n      mstore\n      0x20\n      add\n      swap1\n      dup2\n      mstore\n      0x20\n      add\n      0x00\n      keccak256\n        /* \"contracts/_NodeManager.sol\":2025:2056  nodes[_nodeAddress].nodeAddress */\n      0x00\n      add\n      0x00\n      swap1\n      sload\n      swap1\n      0x0100\n      exp\n      swap1\n      div\n      0xffffffffffffffffffffffffffffffffffffffff\n      and\n        /* \"contracts/_NodeManager.sol\":2025:2070  nodes[_nodeAddress].nodeAddress != address(0) */\n      0xffffffffffffffffffffffffffffffffffffffff\n      and\n      sub\n        /* \"contracts/_NodeManager.sol\":2017:2094  require(nodes[_nodeAddress].nodeAddress != address(0), \"Node does not exist\") */\n      tag_79\n      jumpi\n      mload(0x40)\n      0x08c379a000000000000000000000000000000000000000000000000000000000\n      dup2\n      mstore\n      0x04\n      add\n      tag_80\n      swap1\n      tag_69\n      jump\t// in\n    tag_80:\n      mload(0x40)\n      dup1\n      swap2\n      sub\n      swap1\n      revert\n    tag_79:\n        /* \"contracts/_NodeManager.sol\":2212:2222  nodeChunks */\n      0x01\n        /* \"contracts/_NodeManager.sol\":2212:2236  nodeChunks[_nodeAddress] */\n      0x00\n        /* \"contracts/_NodeManager.sol\":2223:2235  _nodeAddress */\n      dup4\n        /* \"contracts/_NodeManager.sol\":2212:2236  nodeChunks[_nodeAddress] */\n      0xffffffffffffffffffffffffffffffffffffffff\n      and\n      0xffffffffffffffffffffffffffffffffffffffff\n      and\n      dup2\n      mstore\n      0x20\n      add\n      swap1\n      dup2\n      mstore\n      0x20\n      add\n      0x00\n      keccak256\n        /* \"contracts/_NodeManager.sol\":2237:2244  _fileId */\n      dup2\n        /* \"contracts/_NodeManager.sol\":2212:2245  nodeChunks[_nodeAddress][_fileId] */\n      mload(0x40)\n      tag_81\n      swap2\n      swap1\n      tag_71\n      jump\t// in\n    tag_81:\n      swap1\n      dup2\n      mstore\n      0x20\n      add\n      mload(0x40)\n      dup1\n      swap2\n      sub\n      swap1\n      keccak256\n      0x00\n        /* \"contracts/_NodeManager.sol\":2205:2245  delete nodeChunks[_nodeAddress][_fileId] */\n      tag_82\n      swap2\n      swap1\n      tag_83\n      jump\t// in\n    tag_82:\n        /* \"contracts/_NodeManager.sol\":1927:2253  function deleteChunkInNode(address _nodeAddress, string memory _fileId) public {... */\n      pop\n      pop\n      jump\t// out\n        /* \"contracts/_NodeManager.sol\":2500:3347  function findAvailableNode(uint256 _chunkSize) public view returns (address) {... */\n    tag_36:\n        /* \"contracts/_NodeManager.sol\":2568:2575  address */\n      0x00\n        /* \"contracts/_NodeManager.sol\":2588:2604  uint256 numNodes */\n      dup1\n        /* \"contracts/_NodeManager.sol\":2607:2615  allNodes */\n      0x02\n        /* \"contracts/_NodeManager.sol\":2607:2622  allNodes.length */\n      dup1\n      sload\n      swap1\n      pop\n        /* \"contracts/_NodeManager.sol\":2588:2622  uint256 numNodes = allNodes.length */\n      swap1\n      pop\n        /* \"contracts/_NodeManager.sol\":2633:2651  uint256 sizeOffset */\n      0x00\n        /* \"contracts/_NodeManager.sol\":2654:2656  50 */\n      0x32\n        /* \"contracts/_NodeManager.sol\":2633:2656  uint256 sizeOffset = 50 */\n      swap1\n      pop\n        /* \"contracts/_NodeManager.sol\":2685:2686  0 */\n      0x00\n        /* \"contracts/_NodeManager.sol\":2673:2681  numNodes */\n      dup3\n        /* \"contracts/_NodeManager.sol\":2673:2686  numNodes == 0 */\n      sub\n        /* \"contracts/_NodeManager.sol\":2669:2732  if (numNodes == 0) {... */\n      tag_85\n      jumpi\n        /* \"contracts/_NodeManager.sol\":2718:2719  0 */\n      0x00\n        /* \"contracts/_NodeManager.sol\":2703:2720  return address(0) */\n      swap3\n      pop\n      pop\n      pop\n      jump(tag_84)\n        /* \"contracts/_NodeManager.sol\":2669:2732  if (numNodes == 0) {... */\n    tag_85:\n        /* \"contracts/_NodeManager.sol\":2803:2822  uint256 randomIndex */\n      0x00\n        /* \"contracts/_NodeManager.sol\":2864:2872  numNodes */\n      dup3\n        /* \"contracts/_NodeManager.sol\":2858:2859  1 */\n      0x01\n        /* \"contracts/_NodeManager.sol\":2843:2855  block.number */\n      number\n        /* \"contracts/_NodeManager.sol\":2843:2859  block.number - 1 */\n      tag_86\n      swap2\n      swap1\n      tag_87\n      jump\t// in\n    tag_86:\n        /* \"contracts/_NodeManager.sol\":2833:2860  blockhash(block.number - 1) */\n      blockhash\n        /* \"contracts/_NodeManager.sol\":2825:2861  uint256(blockhash(block.number - 1)) */\n      0x00\n      shr\n        /* \"contracts/_NodeManager.sol\":2825:2872  uint256(blockhash(block.number - 1)) % numNodes */\n      tag_88\n      swap2\n      swap1\n      tag_89\n      jump\t// in\n    tag_88:\n        /* \"contracts/_NodeManager.sol\":2803:2872  uint256 randomIndex = uint256(blockhash(block.number - 1)) % numNodes */\n      swap1\n      pop\n        /* \"contracts/_NodeManager.sol\":2966:2975  uint256 i */\n      0x00\n        /* \"contracts/_NodeManager.sol\":2961:3280  for (uint256 i = 0; i < numNodes; i++) {... */\n    tag_90:\n        /* \"contracts/_NodeManager.sol\":2985:2993  numNodes */\n      dup4\n        /* \"contracts/_NodeManager.sol\":2981:2982  i */\n      dup2\n        /* \"contracts/_NodeManager.sol\":2981:2993  i < numNodes */\n      lt\n        /* \"contracts/_NodeManager.sol\":2961:3280  for (uint256 i = 0; i < numNodes; i++) {... */\n      iszero\n      tag_91\n      jumpi\n        /* \"contracts/_NodeManager.sol\":3015:3027  address node */\n      0x00\n        /* \"contracts/_NodeManager.sol\":3030:3038  allNodes */\n      0x02\n        /* \"contracts/_NodeManager.sol\":3059:3067  numNodes */\n      dup6\n        /* \"contracts/_NodeManager.sol\":3054:3055  i */\n      dup4\n        /* \"contracts/_NodeManager.sol\":3040:3051  randomIndex */\n      dup6\n        /* \"contracts/_NodeManager.sol\":3040:3055  randomIndex + i */\n      tag_93\n      swap2\n      swap1\n      tag_94\n      jump\t// in\n    tag_93:\n        /* \"contracts/_NodeManager.sol\":3039:3067  (randomIndex + i) % numNodes */\n      tag_95\n      swap2\n      swap1\n      tag_89\n      jump\t// in\n    tag_95:\n        /* \"contracts/_NodeManager.sol\":3030:3068  allNodes[(randomIndex + i) % numNodes] */\n      dup2\n      sload\n      dup2\n      lt\n      tag_96\n      jumpi\n      tag_97\n      tag_98\n      jump\t// in\n    tag_97:\n    tag_96:\n      swap1\n      0x00\n      mstore\n      keccak256(0x00, 0x20)\n      add\n      0x00\n      swap1\n      sload\n      swap1\n      0x0100\n      exp\n      swap1\n      div\n      0xffffffffffffffffffffffffffffffffffffffff\n      and\n        /* \"contracts/_NodeManager.sol\":3015:3068  address node = allNodes[(randomIndex + i) % numNodes] */\n      swap1\n      pop\n        /* \"contracts/_NodeManager.sol\":3131:3141  sizeOffset */\n      dup4\n        /* \"contracts/_NodeManager.sol\":3118:3128  _chunkSize */\n      dup8\n        /* \"contracts/_NodeManager.sol\":3118:3141  _chunkSize + sizeOffset */\n      tag_100\n      swap2\n      swap1\n      tag_94\n      jump\t// in\n    tag_100:\n        /* \"contracts/_NodeManager.sol\":3087:3092  nodes */\n      0x00\n        /* \"contracts/_NodeManager.sol\":3087:3098  nodes[node] */\n      dup1\n        /* \"contracts/_NodeManager.sol\":3093:3097  node */\n      dup4\n        /* \"contracts/_NodeManager.sol\":3087:3098  nodes[node] */\n      0xffffffffffffffffffffffffffffffffffffffff\n      and\n      0xffffffffffffffffffffffffffffffffffffffff\n      and\n      dup2\n      mstore\n      0x20\n      add\n      swap1\n      dup2\n      mstore\n      0x20\n      add\n      0x00\n      keccak256\n        /* \"contracts/_NodeManager.sol\":3087:3115  nodes[node].availableStorage */\n      0x01\n      add\n      sload\n        /* \"contracts/_NodeManager.sol\":3087:3141  nodes[node].availableStorage > _chunkSize + sizeOffset */\n      gt\n        /* \"contracts/_NodeManager.sol\":3083:3269  if (nodes[node].availableStorage > _chunkSize + sizeOffset) {... */\n      iszero\n      tag_101\n      jumpi\n        /* \"contracts/_NodeManager.sol\":3249:3253  node */\n      dup1\n        /* \"contracts/_NodeManager.sol\":3242:3253  return node */\n      swap6\n      pop\n      pop\n      pop\n      pop\n      pop\n      pop\n      jump(tag_84)\n        /* \"contracts/_NodeManager.sol\":3083:3269  if (nodes[node].availableStorage > _chunkSize + sizeOffset) {... */\n    tag_101:\n        /* \"contracts/_NodeManager.sol\":3000:3280  {... */\n      pop\n        /* \"contracts/_NodeManager.sol\":2995:2998  i++ */\n      dup1\n      dup1\n      0x01\n      add\n      swap2\n      pop\n      pop\n        /* \"contracts/_NodeManager.sol\":2961:3280  for (uint256 i = 0; i < numNodes; i++) {... */\n      jump(tag_90)\n    tag_91:\n      pop\n        /* \"contracts/_NodeManager.sol\":3336:3337  0 */\n      0x00\n        /* \"contracts/_NodeManager.sol\":3321:3338  return address(0) */\n      swap4\n      pop\n      pop\n      pop\n      pop\n        /* \"contracts/_NodeManager.sol\":2500:3347  function findAvailableNode(uint256 _chunkSize) public view returns (address) {... */\n    tag_84:\n      swap2\n      swap1\n      pop\n      jump\t// out\n        /* \"contracts/_NodeManager.sol\":263:326  mapping(address => mapping(string => string)) public nodeChunks */\n    tag_41:\n      mstore(0x20, 0x01)\n      dup2\n      0x00\n      mstore\n      keccak256(0x00, 0x40)\n      dup2\n      dup1\n      mload\n      0x20\n      dup2\n      add\n      dup3\n      add\n      dup1\n      mload\n      dup5\n      dup3\n      mstore\n      0x20\n      dup4\n      add\n      0x20\n      dup6\n      add\n      keccak256\n      dup2\n      dup4\n      mstore\n      dup1\n      swap6\n      pop\n      pop\n      pop\n      pop\n      pop\n      pop\n      0x00\n      swap2\n      pop\n      swap2\n      pop\n      pop\n      dup1\n      sload\n      tag_102\n      swap1\n      tag_73\n      jump\t// in\n    tag_102:\n      dup1\n      0x1f\n      add\n      0x20\n      dup1\n      swap2\n      div\n      mul\n      0x20\n      add\n      mload(0x40)\n      swap1\n      dup2\n      add\n      0x40\n      mstore\n      dup1\n      swap3\n      swap2\n      swap1\n      dup2\n      dup2\n      mstore\n      0x20\n      add\n      dup3\n      dup1\n      sload\n      tag_103\n      swap1\n      tag_73\n      jump\t// in\n    tag_103:\n      dup1\n      iszero\n      tag_104\n      jumpi\n      dup1\n      0x1f\n      lt\n      tag_105\n      jumpi\n      0x0100\n      dup1\n      dup4\n      sload\n      div\n      mul\n      dup4\n      mstore\n      swap2\n      0x20\n      add\n      swap2\n      jump(tag_104)\n    tag_105:\n      dup3\n      add\n      swap2\n      swap1\n      0x00\n      mstore\n      keccak256(0x00, 0x20)\n      swap1\n    tag_106:\n      dup2\n      sload\n      dup2\n      mstore\n      swap1\n      0x01\n      add\n      swap1\n      0x20\n      add\n      dup1\n      dup4\n      gt\n      tag_106\n      jumpi\n      dup3\n      swap1\n      sub\n      0x1f\n      and\n      dup3\n      add\n      swap2\n    tag_104:\n      pop\n      pop\n      pop\n      pop\n      pop\n      dup2\n      jump\t// out\n        /* \"contracts/_NodeManager.sol\":1195:1541  function storeChunkInNode(address _nodeAddress, string memory _chunk, string memory _fileId) public {... */\n    tag_46:\n        /* \"contracts/_NodeManager.sol\":1357:1358  0 */\n      0x00\n        /* \"contracts/_NodeManager.sol\":1314:1359  nodes[_nodeAddress].nodeAddress != address(0) */\n      0xffffffffffffffffffffffffffffffffffffffff\n      and\n        /* \"contracts/_NodeManager.sol\":1314:1319  nodes */\n      0x00\n        /* \"contracts/_NodeManager.sol\":1314:1333  nodes[_nodeAddress] */\n      dup1\n        /* \"contracts/_NodeManager.sol\":1320:1332  _nodeAddress */\n      dup6\n        /* \"contracts/_NodeManager.sol\":1314:1333  nodes[_nodeAddress] */\n      0xffffffffffffffffffffffffffffffffffffffff\n      and\n      0xffffffffffffffffffffffffffffffffffffffff\n      and\n      dup2\n      mstore\n      0x20\n      add\n      swap1\n      dup2\n      mstore\n      0x20\n      add\n      0x00\n      keccak256\n        /* \"contracts/_NodeManager.sol\":1314:1345  nodes[_nodeAddress].nodeAddress */\n      0x00\n      add\n      0x00\n      swap1\n      sload\n      swap1\n      0x0100\n      exp\n      swap1\n      div\n      0xffffffffffffffffffffffffffffffffffffffff\n      and\n        /* \"contracts/_NodeManager.sol\":1314:1359  nodes[_nodeAddress].nodeAddress != address(0) */\n      0xffffffffffffffffffffffffffffffffffffffff\n      and\n      sub\n        /* \"contracts/_NodeManager.sol\":1306:1383  require(nodes[_nodeAddress].nodeAddress != address(0), \"Node does not exist\") */\n      tag_108\n      jumpi\n      mload(0x40)\n      0x08c379a000000000000000000000000000000000000000000000000000000000\n      dup2\n      mstore\n      0x04\n      add\n      tag_109\n      swap1\n      tag_69\n      jump\t// in\n    tag_109:\n      mload(0x40)\n      dup1\n      swap2\n      sub\n      swap1\n      revert\n    tag_108:\n        /* \"contracts/_NodeManager.sol\":1527:1533  _chunk */\n      dup2\n        /* \"contracts/_NodeManager.sol\":1491:1501  nodeChunks */\n      0x01\n        /* \"contracts/_NodeManager.sol\":1491:1515  nodeChunks[_nodeAddress] */\n      0x00\n        /* \"contracts/_NodeManager.sol\":1502:1514  _nodeAddress */\n      dup6\n        /* \"contracts/_NodeManager.sol\":1491:1515  nodeChunks[_nodeAddress] */\n      0xffffffffffffffffffffffffffffffffffffffff\n      and\n      0xffffffffffffffffffffffffffffffffffffffff\n      and\n      dup2\n      mstore\n      0x20\n      add\n      swap1\n      dup2\n      mstore\n      0x20\n      add\n      0x00\n      keccak256\n        /* \"contracts/_NodeManager.sol\":1516:1523  _fileId */\n      dup3\n        /* \"contracts/_NodeManager.sol\":1491:1524  nodeChunks[_nodeAddress][_fileId] */\n      mload(0x40)\n      tag_110\n      swap2\n      swap1\n      tag_71\n      jump\t// in\n    tag_110:\n      swap1\n      dup2\n      mstore\n      0x20\n      add\n      mload(0x40)\n      dup1\n      swap2\n      sub\n      swap1\n      keccak256\n        /* \"contracts/_NodeManager.sol\":1491:1533  nodeChunks[_nodeAddress][_fileId] = _chunk */\n      swap1\n      dup2\n      tag_111\n      swap2\n      swap1\n      tag_112\n      jump\t// in\n    tag_111:\n      pop\n        /* \"contracts/_NodeManager.sol\":1195:1541  function storeChunkInNode(address _nodeAddress, string memory _chunk, string memory _fileId) public {... */\n      pop\n      pop\n      pop\n      jump\t// out\n        /* \"contracts/_NodeManager.sol\":2261:2357  function getAllNodes() public view returns (address[] memory) {... */\n    tag_48:\n        /* \"contracts/_NodeManager.sol\":2305:2321  address[] memory */\n      0x60\n        /* \"contracts/_NodeManager.sol\":2341:2349  allNodes */\n      0x02\n        /* \"contracts/_NodeManager.sol\":2334:2349  return allNodes */\n      dup1\n      sload\n      dup1\n      0x20\n      mul\n      0x20\n      add\n      mload(0x40)\n      swap1\n      dup2\n      add\n      0x40\n      mstore\n      dup1\n      swap3\n      swap2\n      swap1\n      dup2\n      dup2\n      mstore\n      0x20\n      add\n      dup3\n      dup1\n      sload\n      dup1\n      iszero\n      tag_114\n      jumpi\n      0x20\n      mul\n      dup3\n      add\n      swap2\n      swap1\n      0x00\n      mstore\n      keccak256(0x00, 0x20)\n      swap1\n    tag_115:\n      dup2\n      0x00\n      swap1\n      sload\n      swap1\n      0x0100\n      exp\n      swap1\n      div\n      0xffffffffffffffffffffffffffffffffffffffff\n      and\n      0xffffffffffffffffffffffffffffffffffffffff\n      and\n      dup2\n      mstore\n      0x20\n      add\n      swap1\n      0x01\n      add\n      swap1\n      dup1\n      dup4\n      gt\n      tag_115\n      jumpi\n    tag_114:\n      pop\n      pop\n      pop\n      pop\n      pop\n      swap1\n      pop\n        /* \"contracts/_NodeManager.sol\":2261:2357  function getAllNodes() public view returns (address[] memory) {... */\n      swap1\n      jump\t// out\n        /* \"contracts/_NodeManager.sol\":2365:2492  function getNodeByAddress(address _nodeAddress) public view returns (Node memory) {... */\n    tag_53:\n        /* \"contracts/_NodeManager.sol\":2434:2445  Node memory */\n      tag_116\n      tag_117\n      jump\t// in\n    tag_116:\n        /* \"contracts/_NodeManager.sol\":2465:2470  nodes */\n      0x00\n        /* \"contracts/_NodeManager.sol\":2465:2484  nodes[_nodeAddress] */\n      dup1\n        /* \"contracts/_NodeManager.sol\":2471:2483  _nodeAddress */\n      dup4\n        /* \"contracts/_NodeManager.sol\":2465:2484  nodes[_nodeAddress] */\n      0xffffffffffffffffffffffffffffffffffffffff\n      and\n      0xffffffffffffffffffffffffffffffffffffffff\n      and\n      dup2\n      mstore\n      0x20\n      add\n      swap1\n      dup2\n      mstore\n      0x20\n      add\n      0x00\n      keccak256\n        /* \"contracts/_NodeManager.sol\":2458:2484  return nodes[_nodeAddress] */\n      mload(0x40)\n      dup1\n      0x40\n      add\n      0x40\n      mstore\n      swap1\n      dup2\n      0x00\n      dup3\n      add\n      0x00\n      swap1\n      sload\n      swap1\n      0x0100\n      exp\n      swap1\n      div\n      0xffffffffffffffffffffffffffffffffffffffff\n      and\n      0xffffffffffffffffffffffffffffffffffffffff\n      and\n      0xffffffffffffffffffffffffffffffffffffffff\n      and\n      dup2\n      mstore\n      0x20\n      add\n      0x01\n      dup3\n      add\n      sload\n      dup2\n      mstore\n      pop\n      pop\n      swap1\n      pop\n        /* \"contracts/_NodeManager.sol\":2365:2492  function getNodeByAddress(address _nodeAddress) public view returns (Node memory) {... */\n      swap2\n      swap1\n      pop\n      jump\t// out\n        /* \"contracts/_NodeManager.sol\":386:411  address[] public allNodes */\n    tag_58:\n      0x02\n      dup2\n      dup2\n      sload\n      dup2\n      lt\n      tag_119\n      jumpi\n      0x00\n      dup1\n      revert\n    tag_119:\n      swap1\n      0x00\n      mstore\n      keccak256(0x00, 0x20)\n      add\n      0x00\n      swap2\n      pop\n      sload\n      swap1\n      0x0100\n      exp\n      swap1\n      div\n      0xffffffffffffffffffffffffffffffffffffffff\n      and\n      dup2\n      jump\t// out\n    tag_83:\n      pop\n      dup1\n      sload\n      tag_121\n      swap1\n      tag_73\n      jump\t// in\n    tag_121:\n      0x00\n      dup3\n      sstore\n      dup1\n      0x1f\n      lt\n      tag_123\n      jumpi\n      pop\n      jump(tag_122)\n    tag_123:\n      0x1f\n      add\n      0x20\n      swap1\n      div\n      swap1\n      0x00\n      mstore\n      keccak256(0x00, 0x20)\n      swap1\n      dup2\n      add\n      swap1\n      tag_124\n      swap2\n      swap1\n      tag_125\n      jump\t// in\n    tag_124:\n    tag_122:\n      pop\n      jump\t// out\n    tag_117:\n      mload(0x40)\n      dup1\n      0x40\n      add\n      0x40\n      mstore\n      dup1\n      and(0xffffffffffffffffffffffffffffffffffffffff, 0x00)\n      dup2\n      mstore\n      0x20\n      add\n      0x00\n      dup2\n      mstore\n      pop\n      swap1\n      jump\t// out\n    tag_125:\n    tag_126:\n      dup1\n      dup3\n      gt\n      iszero\n      tag_127\n      jumpi\n      0x00\n      dup2\n      0x00\n      swap1\n      sstore\n      pop\n      0x01\n      add\n      jump(tag_126)\n    tag_127:\n      pop\n      swap1\n      jump\t// out\n        /* \"#utility.yul\":7:82   */\n    tag_128:\n        /* \"#utility.yul\":40:46   */\n      0x00\n        /* \"#utility.yul\":73:75   */\n      0x40\n        /* \"#utility.yul\":67:76   */\n      mload\n        /* \"#utility.yul\":57:76   */\n      swap1\n      pop\n        /* \"#utility.yul\":7:82   */\n      swap1\n      jump\t// out\n        /* \"#utility.yul\":88:205   */\n    tag_129:\n        /* \"#utility.yul\":197:198   */\n      0x00\n        /* \"#utility.yul\":194:195   */\n      dup1\n        /* \"#utility.yul\":187:199   */\n      revert\n        /* \"#utility.yul\":211:328   */\n    tag_130:\n        /* \"#utility.yul\":320:321   */\n      0x00\n        /* \"#utility.yul\":317:318   */\n      dup1\n        /* \"#utility.yul\":310:322   */\n      revert\n        /* \"#utility.yul\":334:460   */\n    tag_131:\n        /* \"#utility.yul\":371:378   */\n      0x00\n        /* \"#utility.yul\":411:453   */\n      0xffffffffffffffffffffffffffffffffffffffff\n        /* \"#utility.yul\":404:409   */\n      dup3\n        /* \"#utility.yul\":400:454   */\n      and\n        /* \"#utility.yul\":389:454   */\n      swap1\n      pop\n        /* \"#utility.yul\":334:460   */\n      swap2\n      swap1\n      pop\n      jump\t// out\n        /* \"#utility.yul\":466:562   */\n    tag_132:\n        /* \"#utility.yul\":503:510   */\n      0x00\n        /* \"#utility.yul\":532:556   */\n      tag_193\n        /* \"#utility.yul\":550:555   */\n      dup3\n        /* \"#utility.yul\":532:556   */\n      tag_131\n      jump\t// in\n    tag_193:\n        /* \"#utility.yul\":521:556   */\n      swap1\n      pop\n        /* \"#utility.yul\":466:562   */\n      swap2\n      swap1\n      pop\n      jump\t// out\n        /* \"#utility.yul\":568:690   */\n    tag_133:\n        /* \"#utility.yul\":641:665   */\n      tag_195\n        /* \"#utility.yul\":659:664   */\n      dup2\n        /* \"#utility.yul\":641:665   */\n      tag_132\n      jump\t// in\n    tag_195:\n        /* \"#utility.yul\":634:639   */\n      dup2\n        /* \"#utility.yul\":631:666   */\n      eq\n        /* \"#utility.yul\":621:684   */\n      tag_196\n      jumpi\n        /* \"#utility.yul\":680:681   */\n      0x00\n        /* \"#utility.yul\":677:678   */\n      dup1\n        /* \"#utility.yul\":670:682   */\n      revert\n        /* \"#utility.yul\":621:684   */\n    tag_196:\n        /* \"#utility.yul\":568:690   */\n      pop\n      jump\t// out\n        /* \"#utility.yul\":696:835   */\n    tag_134:\n        /* \"#utility.yul\":742:747   */\n      0x00\n        /* \"#utility.yul\":780:786   */\n      dup2\n        /* \"#utility.yul\":767:787   */\n      calldataload\n        /* \"#utility.yul\":758:787   */\n      swap1\n      pop\n        /* \"#utility.yul\":796:829   */\n      tag_198\n        /* \"#utility.yul\":823:828   */\n      dup2\n        /* \"#utility.yul\":796:829   */\n      tag_133\n      jump\t// in\n    tag_198:\n        /* \"#utility.yul\":696:835   */\n      swap3\n      swap2\n      pop\n      pop\n      jump\t// out\n        /* \"#utility.yul\":841:918   */\n    tag_135:\n        /* \"#utility.yul\":878:885   */\n      0x00\n        /* \"#utility.yul\":907:912   */\n      dup2\n        /* \"#utility.yul\":896:912   */\n      swap1\n      pop\n        /* \"#utility.yul\":841:918   */\n      swap2\n      swap1\n      pop\n      jump\t// out\n        /* \"#utility.yul\":924:1046   */\n    tag_136:\n        /* \"#utility.yul\":997:1021   */\n      tag_201\n        /* \"#utility.yul\":1015:1020   */\n      dup2\n        /* \"#utility.yul\":997:1021   */\n      tag_135\n      jump\t// in\n    tag_201:\n        /* \"#utility.yul\":990:995   */\n      dup2\n        /* \"#utility.yul\":987:1022   */\n      eq\n        /* \"#utility.yul\":977:1040   */\n      tag_202\n      jumpi\n        /* \"#utility.yul\":1036:1037   */\n      0x00\n        /* \"#utility.yul\":1033:1034   */\n      dup1\n        /* \"#utility.yul\":1026:1038   */\n      revert\n        /* \"#utility.yul\":977:1040   */\n    tag_202:\n        /* \"#utility.yul\":924:1046   */\n      pop\n      jump\t// out\n        /* \"#utility.yul\":1052:1191   */\n    tag_137:\n        /* \"#utility.yul\":1098:1103   */\n      0x00\n        /* \"#utility.yul\":1136:1142   */\n      dup2\n        /* \"#utility.yul\":1123:1143   */\n      calldataload\n        /* \"#utility.yul\":1114:1143   */\n      swap1\n      pop\n        /* \"#utility.yul\":1152:1185   */\n      tag_204\n        /* \"#utility.yul\":1179:1184   */\n      dup2\n        /* \"#utility.yul\":1152:1185   */\n      tag_136\n      jump\t// in\n    tag_204:\n        /* \"#utility.yul\":1052:1191   */\n      swap3\n      swap2\n      pop\n      pop\n      jump\t// out\n        /* \"#utility.yul\":1197:1671   */\n    tag_16:\n        /* \"#utility.yul\":1265:1271   */\n      0x00\n        /* \"#utility.yul\":1273:1279   */\n      dup1\n        /* \"#utility.yul\":1322:1324   */\n      0x40\n        /* \"#utility.yul\":1310:1319   */\n      dup4\n        /* \"#utility.yul\":1301:1308   */\n      dup6\n        /* \"#utility.yul\":1297:1320   */\n      sub\n        /* \"#utility.yul\":1293:1325   */\n      slt\n        /* \"#utility.yul\":1290:1409   */\n      iszero\n      tag_206\n      jumpi\n        /* \"#utility.yul\":1328:1407   */\n      tag_207\n      tag_129\n      jump\t// in\n    tag_207:\n        /* \"#utility.yul\":1290:1409   */\n    tag_206:\n        /* \"#utility.yul\":1448:1449   */\n      0x00\n        /* \"#utility.yul\":1473:1526   */\n      tag_208\n        /* \"#utility.yul\":1518:1525   */\n      dup6\n        /* \"#utility.yul\":1509:1515   */\n      dup3\n        /* \"#utility.yul\":1498:1507   */\n      dup7\n        /* \"#utility.yul\":1494:1516   */\n      add\n        /* \"#utility.yul\":1473:1526   */\n      tag_134\n      jump\t// in\n    tag_208:\n        /* \"#utility.yul\":1463:1526   */\n      swap3\n      pop\n        /* \"#utility.yul\":1419:1536   */\n      pop\n        /* \"#utility.yul\":1575:1577   */\n      0x20\n        /* \"#utility.yul\":1601:1654   */\n      tag_209\n        /* \"#utility.yul\":1646:1653   */\n      dup6\n        /* \"#utility.yul\":1637:1643   */\n      dup3\n        /* \"#utility.yul\":1626:1635   */\n      dup7\n        /* \"#utility.yul\":1622:1644   */\n      add\n        /* \"#utility.yul\":1601:1654   */\n      tag_137\n      jump\t// in\n    tag_209:\n        /* \"#utility.yul\":1591:1654   */\n      swap2\n      pop\n        /* \"#utility.yul\":1546:1664   */\n      pop\n        /* \"#utility.yul\":1197:1671   */\n      swap3\n      pop\n      swap3\n      swap1\n      pop\n      jump\t// out\n        /* \"#utility.yul\":1677:2006   */\n    tag_20:\n        /* \"#utility.yul\":1736:1742   */\n      0x00\n        /* \"#utility.yul\":1785:1787   */\n      0x20\n        /* \"#utility.yul\":1773:1782   */\n      dup3\n        /* \"#utility.yul\":1764:1771   */\n      dup5\n        /* \"#utility.yul\":1760:1783   */\n      sub\n        /* \"#utility.yul\":1756:1788   */\n      slt\n        /* \"#utility.yul\":1753:1872   */\n      iszero\n      tag_211\n      jumpi\n        /* \"#utility.yul\":1791:1870   */\n      tag_212\n      tag_129\n      jump\t// in\n    tag_212:\n        /* \"#utility.yul\":1753:1872   */\n    tag_211:\n        /* \"#utility.yul\":1911:1912   */\n      0x00\n        /* \"#utility.yul\":1936:1989   */\n      tag_213\n        /* \"#utility.yul\":1981:1988   */\n      dup5\n        /* \"#utility.yul\":1972:1978   */\n      dup3\n        /* \"#utility.yul\":1961:1970   */\n      dup6\n        /* \"#utility.yul\":1957:1979   */\n      add\n        /* \"#utility.yul\":1936:1989   */\n      tag_134\n      jump\t// in\n    tag_213:\n        /* \"#utility.yul\":1926:1989   */\n      swap2\n      pop\n        /* \"#utility.yul\":1882:1999   */\n      pop\n        /* \"#utility.yul\":1677:2006   */\n      swap3\n      swap2\n      pop\n      pop\n      jump\t// out\n        /* \"#utility.yul\":2012:2130   */\n    tag_138:\n        /* \"#utility.yul\":2099:2123   */\n      tag_215\n        /* \"#utility.yul\":2117:2122   */\n      dup2\n        /* \"#utility.yul\":2099:2123   */\n      tag_132\n      jump\t// in\n    tag_215:\n        /* \"#utility.yul\":2094:2097   */\n      dup3\n        /* \"#utility.yul\":2087:2124   */\n      mstore\n        /* \"#utility.yul\":2012:2130   */\n      pop\n      pop\n      jump\t// out\n        /* \"#utility.yul\":2136:2254   */\n    tag_139:\n        /* \"#utility.yul\":2223:2247   */\n      tag_217\n        /* \"#utility.yul\":2241:2246   */\n      dup2\n        /* \"#utility.yul\":2223:2247   */\n      tag_135\n      jump\t// in\n    tag_217:\n        /* \"#utility.yul\":2218:2221   */\n      dup3\n        /* \"#utility.yul\":2211:2248   */\n      mstore\n        /* \"#utility.yul\":2136:2254   */\n      pop\n      pop\n      jump\t// out\n        /* \"#utility.yul\":2260:2592   */\n    tag_23:\n        /* \"#utility.yul\":2381:2385   */\n      0x00\n        /* \"#utility.yul\":2419:2421   */\n      0x40\n        /* \"#utility.yul\":2408:2417   */\n      dup3\n        /* \"#utility.yul\":2404:2422   */\n      add\n        /* \"#utility.yul\":2396:2422   */\n      swap1\n      pop\n        /* \"#utility.yul\":2432:2503   */\n      tag_219\n        /* \"#utility.yul\":2500:2501   */\n      0x00\n        /* \"#utility.yul\":2489:2498   */\n      dup4\n        /* \"#utility.yul\":2485:2502   */\n      add\n        /* \"#utility.yul\":2476:2482   */\n      dup6\n        /* \"#utility.yul\":2432:2503   */\n      tag_138\n      jump\t// in\n    tag_219:\n        /* \"#utility.yul\":2513:2585   */\n      tag_220\n        /* \"#utility.yul\":2581:2583   */\n      0x20\n        /* \"#utility.yul\":2570:2579   */\n      dup4\n        /* \"#utility.yul\":2566:2584   */\n      add\n        /* \"#utility.yul\":2557:2563   */\n      dup5\n        /* \"#utility.yul\":2513:2585   */\n      tag_139\n      jump\t// in\n    tag_220:\n        /* \"#utility.yul\":2260:2592   */\n      swap4\n      swap3\n      pop\n      pop\n      pop\n      jump\t// out\n        /* \"#utility.yul\":2598:2715   */\n    tag_140:\n        /* \"#utility.yul\":2707:2708   */\n      0x00\n        /* \"#utility.yul\":2704:2705   */\n      dup1\n        /* \"#utility.yul\":2697:2709   */\n      revert\n        /* \"#utility.yul\":2721:2838   */\n    tag_141:\n        /* \"#utility.yul\":2830:2831   */\n      0x00\n        /* \"#utility.yul\":2827:2828   */\n      dup1\n        /* \"#utility.yul\":2820:2832   */\n      revert\n        /* \"#utility.yul\":2844:2946   */\n    tag_142:\n        /* \"#utility.yul\":2885:2891   */\n      0x00\n        /* \"#utility.yul\":2936:2938   */\n      0x1f\n        /* \"#utility.yul\":2932:2939   */\n      not\n        /* \"#utility.yul\":2927:2929   */\n      0x1f\n        /* \"#utility.yul\":2920:2925   */\n      dup4\n        /* \"#utility.yul\":2916:2930   */\n      add\n        /* \"#utility.yul\":2912:2940   */\n      and\n        /* \"#utility.yul\":2902:2940   */\n      swap1\n      pop\n        /* \"#utility.yul\":2844:2946   */\n      swap2\n      swap1\n      pop\n      jump\t// out\n        /* \"#utility.yul\":2952:3132   */\n    tag_143:\n        /* \"#utility.yul\":3000:3077   */\n      0x4e487b7100000000000000000000000000000000000000000000000000000000\n        /* \"#utility.yul\":2997:2998   */\n      0x00\n        /* \"#utility.yul\":2990:3078   */\n      mstore\n        /* \"#utility.yul\":3097:3101   */\n      0x41\n        /* \"#utility.yul\":3094:3095   */\n      0x04\n        /* \"#utility.yul\":3087:3102   */\n      mstore\n        /* \"#utility.yul\":3121:3125   */\n      0x24\n        /* \"#utility.yul\":3118:3119   */\n      0x00\n        /* \"#utility.yul\":3111:3126   */\n      revert\n        /* \"#utility.yul\":3138:3419   */\n    tag_144:\n        /* \"#utility.yul\":3221:3248   */\n      tag_226\n        /* \"#utility.yul\":3243:3247   */\n      dup3\n        /* \"#utility.yul\":3221:3248   */\n      tag_142\n      jump\t// in\n    tag_226:\n        /* \"#utility.yul\":3213:3219   */\n      dup2\n        /* \"#utility.yul\":3209:3249   */\n      add\n        /* \"#utility.yul\":3351:3357   */\n      dup2\n        /* \"#utility.yul\":3339:3349   */\n      dup2\n        /* \"#utility.yul\":3336:3358   */\n      lt\n        /* \"#utility.yul\":3315:3333   */\n      0xffffffffffffffff\n        /* \"#utility.yul\":3303:3313   */\n      dup3\n        /* \"#utility.yul\":3300:3334   */\n      gt\n        /* \"#utility.yul\":3297:3359   */\n      or\n        /* \"#utility.yul\":3294:3382   */\n      iszero\n      tag_227\n      jumpi\n        /* \"#utility.yul\":3362:3380   */\n      tag_228\n      tag_143\n      jump\t// in\n    tag_228:\n        /* \"#utility.yul\":3294:3382   */\n    tag_227:\n        /* \"#utility.yul\":3402:3412   */\n      dup1\n        /* \"#utility.yul\":3398:3400   */\n      0x40\n        /* \"#utility.yul\":3391:3413   */\n      mstore\n        /* \"#utility.yul\":3181:3419   */\n      pop\n        /* \"#utility.yul\":3138:3419   */\n      pop\n      pop\n      jump\t// out\n        /* \"#utility.yul\":3425:3554   */\n    tag_145:\n        /* \"#utility.yul\":3459:3465   */\n      0x00\n        /* \"#utility.yul\":3486:3506   */\n      tag_230\n      tag_128\n      jump\t// in\n    tag_230:\n        /* \"#utility.yul\":3476:3506   */\n      swap1\n      pop\n        /* \"#utility.yul\":3515:3548   */\n      tag_231\n        /* \"#utility.yul\":3543:3547   */\n      dup3\n        /* \"#utility.yul\":3535:3541   */\n      dup3\n        /* \"#utility.yul\":3515:3548   */\n      tag_144\n      jump\t// in\n    tag_231:\n        /* \"#utility.yul\":3425:3554   */\n      swap2\n      swap1\n      pop\n      jump\t// out\n        /* \"#utility.yul\":3560:3868   */\n    tag_146:\n        /* \"#utility.yul\":3622:3626   */\n      0x00\n        /* \"#utility.yul\":3712:3730   */\n      0xffffffffffffffff\n        /* \"#utility.yul\":3704:3710   */\n      dup3\n        /* \"#utility.yul\":3701:3731   */\n      gt\n        /* \"#utility.yul\":3698:3754   */\n      iszero\n      tag_233\n      jumpi\n        /* \"#utility.yul\":3734:3752   */\n      tag_234\n      tag_143\n      jump\t// in\n    tag_234:\n        /* \"#utility.yul\":3698:3754   */\n    tag_233:\n        /* \"#utility.yul\":3772:3801   */\n      tag_235\n        /* \"#utility.yul\":3794:3800   */\n      dup3\n        /* \"#utility.yul\":3772:3801   */\n      tag_142\n      jump\t// in\n    tag_235:\n        /* \"#utility.yul\":3764:3801   */\n      swap1\n      pop\n        /* \"#utility.yul\":3856:3860   */\n      0x20\n        /* \"#utility.yul\":3850:3854   */\n      dup2\n        /* \"#utility.yul\":3846:3861   */\n      add\n        /* \"#utility.yul\":3838:3861   */\n      swap1\n      pop\n        /* \"#utility.yul\":3560:3868   */\n      swap2\n      swap1\n      pop\n      jump\t// out\n        /* \"#utility.yul\":3874:4020   */\n    tag_147:\n        /* \"#utility.yul\":3971:3977   */\n      dup3\n        /* \"#utility.yul\":3966:3969   */\n      dup2\n        /* \"#utility.yul\":3961:3964   */\n      dup4\n        /* \"#utility.yul\":3948:3978   */\n      calldatacopy\n        /* \"#utility.yul\":4012:4013   */\n      0x00\n        /* \"#utility.yul\":4003:4009   */\n      dup4\n        /* \"#utility.yul\":3998:4001   */\n      dup4\n        /* \"#utility.yul\":3994:4010   */\n      add\n        /* \"#utility.yul\":3987:4014   */\n      mstore\n        /* \"#utility.yul\":3874:4020   */\n      pop\n      pop\n      pop\n      jump\t// out\n        /* \"#utility.yul\":4026:4451   */\n    tag_148:\n        /* \"#utility.yul\":4104:4109   */\n      0x00\n        /* \"#utility.yul\":4129:4195   */\n      tag_238\n        /* \"#utility.yul\":4145:4194   */\n      tag_239\n        /* \"#utility.yul\":4187:4193   */\n      dup5\n        /* \"#utility.yul\":4145:4194   */\n      tag_146\n      jump\t// in\n    tag_239:\n        /* \"#utility.yul\":4129:4195   */\n      tag_145\n      jump\t// in\n    tag_238:\n        /* \"#utility.yul\":4120:4195   */\n      swap1\n      pop\n        /* \"#utility.yul\":4218:4224   */\n      dup3\n        /* \"#utility.yul\":4211:4216   */\n      dup2\n        /* \"#utility.yul\":4204:4225   */\n      mstore\n        /* \"#utility.yul\":4256:4260   */\n      0x20\n        /* \"#utility.yul\":4249:4254   */\n      dup2\n        /* \"#utility.yul\":4245:4261   */\n      add\n        /* \"#utility.yul\":4294:4297   */\n      dup5\n        /* \"#utility.yul\":4285:4291   */\n      dup5\n        /* \"#utility.yul\":4280:4283   */\n      dup5\n        /* \"#utility.yul\":4276:4292   */\n      add\n        /* \"#utility.yul\":4273:4298   */\n      gt\n        /* \"#utility.yul\":4270:4382   */\n      iszero\n      tag_240\n      jumpi\n        /* \"#utility.yul\":4301:4380   */\n      tag_241\n      tag_141\n      jump\t// in\n    tag_241:\n        /* \"#utility.yul\":4270:4382   */\n    tag_240:\n        /* \"#utility.yul\":4391:4445   */\n      tag_242\n        /* \"#utility.yul\":4438:4444   */\n      dup5\n        /* \"#utility.yul\":4433:4436   */\n      dup3\n        /* \"#utility.yul\":4428:4431   */\n      dup6\n        /* \"#utility.yul\":4391:4445   */\n      tag_147\n      jump\t// in\n    tag_242:\n        /* \"#utility.yul\":4110:4451   */\n      pop\n        /* \"#utility.yul\":4026:4451   */\n      swap4\n      swap3\n      pop\n      pop\n      pop\n      jump\t// out\n        /* \"#utility.yul\":4471:4811   */\n    tag_149:\n        /* \"#utility.yul\":4527:4532   */\n      0x00\n        /* \"#utility.yul\":4576:4579   */\n      dup3\n        /* \"#utility.yul\":4569:4573   */\n      0x1f\n        /* \"#utility.yul\":4561:4567   */\n      dup4\n        /* \"#utility.yul\":4557:4574   */\n      add\n        /* \"#utility.yul\":4553:4580   */\n      slt\n        /* \"#utility.yul\":4543:4665   */\n      tag_244\n      jumpi\n        /* \"#utility.yul\":4584:4663   */\n      tag_245\n      tag_140\n      jump\t// in\n    tag_245:\n        /* \"#utility.yul\":4543:4665   */\n    tag_244:\n        /* \"#utility.yul\":4701:4707   */\n      dup2\n        /* \"#utility.yul\":4688:4708   */\n      calldataload\n        /* \"#utility.yul\":4726:4805   */\n      tag_246\n        /* \"#utility.yul\":4801:4804   */\n      dup5\n        /* \"#utility.yul\":4793:4799   */\n      dup3\n        /* \"#utility.yul\":4786:4790   */\n      0x20\n        /* \"#utility.yul\":4778:4784   */\n      dup7\n        /* \"#utility.yul\":4774:4791   */\n      add\n        /* \"#utility.yul\":4726:4805   */\n      tag_148\n      jump\t// in\n    tag_246:\n        /* \"#utility.yul\":4717:4805   */\n      swap2\n      pop\n        /* \"#utility.yul\":4533:4811   */\n      pop\n        /* \"#utility.yul\":4471:4811   */\n      swap3\n      swap2\n      pop\n      pop\n      jump\t// out\n        /* \"#utility.yul\":4817:5471   */\n    tag_26:\n        /* \"#utility.yul\":4895:4901   */\n      0x00\n        /* \"#utility.yul\":4903:4909   */\n      dup1\n        /* \"#utility.yul\":4952:4954   */\n      0x40\n        /* \"#utility.yul\":4940:4949   */\n      dup4\n        /* \"#utility.yul\":4931:4938   */\n      dup6\n        /* \"#utility.yul\":4927:4950   */\n      sub\n        /* \"#utility.yul\":4923:4955   */\n      slt\n        /* \"#utility.yul\":4920:5039   */\n      iszero\n      tag_248\n      jumpi\n        /* \"#utility.yul\":4958:5037   */\n      tag_249\n      tag_129\n      jump\t// in\n    tag_249:\n        /* \"#utility.yul\":4920:5039   */\n    tag_248:\n        /* \"#utility.yul\":5078:5079   */\n      0x00\n        /* \"#utility.yul\":5103:5156   */\n      tag_250\n        /* \"#utility.yul\":5148:5155   */\n      dup6\n        /* \"#utility.yul\":5139:5145   */\n      dup3\n        /* \"#utility.yul\":5128:5137   */\n      dup7\n        /* \"#utility.yul\":5124:5146   */\n      add\n        /* \"#utility.yul\":5103:5156   */\n      tag_134\n      jump\t// in\n    tag_250:\n        /* \"#utility.yul\":5093:5156   */\n      swap3\n      pop\n        /* \"#utility.yul\":5049:5166   */\n      pop\n        /* \"#utility.yul\":5233:5235   */\n      0x20\n        /* \"#utility.yul\":5222:5231   */\n      dup4\n        /* \"#utility.yul\":5218:5236   */\n      add\n        /* \"#utility.yul\":5205:5237   */\n      calldataload\n        /* \"#utility.yul\":5264:5282   */\n      0xffffffffffffffff\n        /* \"#utility.yul\":5256:5262   */\n      dup2\n        /* \"#utility.yul\":5253:5283   */\n      gt\n        /* \"#utility.yul\":5250:5367   */\n      iszero\n      tag_251\n      jumpi\n        /* \"#utility.yul\":5286:5365   */\n      tag_252\n      tag_130\n      jump\t// in\n    tag_252:\n        /* \"#utility.yul\":5250:5367   */\n    tag_251:\n        /* \"#utility.yul\":5391:5454   */\n      tag_253\n        /* \"#utility.yul\":5446:5453   */\n      dup6\n        /* \"#utility.yul\":5437:5443   */\n      dup3\n        /* \"#utility.yul\":5426:5435   */\n      dup7\n        /* \"#utility.yul\":5422:5444   */\n      add\n        /* \"#utility.yul\":5391:5454   */\n      tag_149\n      jump\t// in\n    tag_253:\n        /* \"#utility.yul\":5381:5454   */\n      swap2\n      pop\n        /* \"#utility.yul\":5176:5464   */\n      pop\n        /* \"#utility.yul\":4817:5471   */\n      swap3\n      pop\n      swap3\n      swap1\n      pop\n      jump\t// out\n        /* \"#utility.yul\":5477:5576   */\n    tag_150:\n        /* \"#utility.yul\":5529:5535   */\n      0x00\n        /* \"#utility.yul\":5563:5568   */\n      dup2\n        /* \"#utility.yul\":5557:5569   */\n      mload\n        /* \"#utility.yul\":5547:5569   */\n      swap1\n      pop\n        /* \"#utility.yul\":5477:5576   */\n      swap2\n      swap1\n      pop\n      jump\t// out\n        /* \"#utility.yul\":5582:5751   */\n    tag_151:\n        /* \"#utility.yul\":5666:5677   */\n      0x00\n        /* \"#utility.yul\":5700:5706   */\n      dup3\n        /* \"#utility.yul\":5695:5698   */\n      dup3\n        /* \"#utility.yul\":5688:5707   */\n      mstore\n        /* \"#utility.yul\":5740:5744   */\n      0x20\n        /* \"#utility.yul\":5735:5738   */\n      dup3\n        /* \"#utility.yul\":5731:5745   */\n      add\n        /* \"#utility.yul\":5716:5745   */\n      swap1\n      pop\n        /* \"#utility.yul\":5582:5751   */\n      swap3\n      swap2\n      pop\n      pop\n      jump\t// out\n        /* \"#utility.yul\":5757:6003   */\n    tag_152:\n        /* \"#utility.yul\":5838:5839   */\n      0x00\n        /* \"#utility.yul\":5848:5961   */\n    tag_257:\n        /* \"#utility.yul\":5862:5868   */\n      dup4\n        /* \"#utility.yul\":5859:5860   */\n      dup2\n        /* \"#utility.yul\":5856:5869   */\n      lt\n        /* \"#utility.yul\":5848:5961   */\n      iszero\n      tag_259\n      jumpi\n        /* \"#utility.yul\":5947:5948   */\n      dup1\n        /* \"#utility.yul\":5942:5945   */\n      dup3\n        /* \"#utility.yul\":5938:5949   */\n      add\n        /* \"#utility.yul\":5932:5950   */\n      mload\n        /* \"#utility.yul\":5928:5929   */\n      dup2\n        /* \"#utility.yul\":5923:5926   */\n      dup5\n        /* \"#utility.yul\":5919:5930   */\n      add\n        /* \"#utility.yul\":5912:5951   */\n      mstore\n        /* \"#utility.yul\":5884:5886   */\n      0x20\n        /* \"#utility.yul\":5881:5882   */\n      dup2\n        /* \"#utility.yul\":5877:5887   */\n      add\n        /* \"#utility.yul\":5872:5887   */\n      swap1\n      pop\n        /* \"#utility.yul\":5848:5961   */\n      jump(tag_257)\n    tag_259:\n        /* \"#utility.yul\":5995:5996   */\n      0x00\n        /* \"#utility.yul\":5986:5992   */\n      dup5\n        /* \"#utility.yul\":5981:5984   */\n      dup5\n        /* \"#utility.yul\":5977:5993   */\n      add\n        /* \"#utility.yul\":5970:5997   */\n      mstore\n        /* \"#utility.yul\":5819:6003   */\n      pop\n        /* \"#utility.yul\":5757:6003   */\n      pop\n      pop\n      pop\n      jump\t// out\n        /* \"#utility.yul\":6009:6386   */\n    tag_153:\n        /* \"#utility.yul\":6097:6100   */\n      0x00\n        /* \"#utility.yul\":6125:6164   */\n      tag_261\n        /* \"#utility.yul\":6158:6163   */\n      dup3\n        /* \"#utility.yul\":6125:6164   */\n      tag_150\n      jump\t// in\n    tag_261:\n        /* \"#utility.yul\":6180:6251   */\n      tag_262\n        /* \"#utility.yul\":6244:6250   */\n      dup2\n        /* \"#utility.yul\":6239:6242   */\n      dup6\n        /* \"#utility.yul\":6180:6251   */\n      tag_151\n      jump\t// in\n    tag_262:\n        /* \"#utility.yul\":6173:6251   */\n      swap4\n      pop\n        /* \"#utility.yul\":6260:6325   */\n      tag_263\n        /* \"#utility.yul\":6318:6324   */\n      dup2\n        /* \"#utility.yul\":6313:6316   */\n      dup6\n        /* \"#utility.yul\":6306:6310   */\n      0x20\n        /* \"#utility.yul\":6299:6304   */\n      dup7\n        /* \"#utility.yul\":6295:6311   */\n      add\n        /* \"#utility.yul\":6260:6325   */\n      tag_152\n      jump\t// in\n    tag_263:\n        /* \"#utility.yul\":6350:6379   */\n      tag_264\n        /* \"#utility.yul\":6372:6378   */\n      dup2\n        /* \"#utility.yul\":6350:6379   */\n      tag_142\n      jump\t// in\n    tag_264:\n        /* \"#utility.yul\":6345:6348   */\n      dup5\n        /* \"#utility.yul\":6341:6380   */\n      add\n        /* \"#utility.yul\":6334:6380   */\n      swap2\n      pop\n        /* \"#utility.yul\":6101:6386   */\n      pop\n        /* \"#utility.yul\":6009:6386   */\n      swap3\n      swap2\n      pop\n      pop\n      jump\t// out\n        /* \"#utility.yul\":6392:6705   */\n    tag_29:\n        /* \"#utility.yul\":6505:6509   */\n      0x00\n        /* \"#utility.yul\":6543:6545   */\n      0x20\n        /* \"#utility.yul\":6532:6541   */\n      dup3\n        /* \"#utility.yul\":6528:6546   */\n      add\n        /* \"#utility.yul\":6520:6546   */\n      swap1\n      pop\n        /* \"#utility.yul\":6592:6601   */\n      dup2\n        /* \"#utility.yul\":6586:6590   */\n      dup2\n        /* \"#utility.yul\":6582:6602   */\n      sub\n        /* \"#utility.yul\":6578:6579   */\n      0x00\n        /* \"#utility.yul\":6567:6576   */\n      dup4\n        /* \"#utility.yul\":6563:6580   */\n      add\n        /* \"#utility.yul\":6556:6603   */\n      mstore\n        /* \"#utility.yul\":6620:6698   */\n      tag_266\n        /* \"#utility.yul\":6693:6697   */\n      dup2\n        /* \"#utility.yul\":6684:6690   */\n      dup5\n        /* \"#utility.yul\":6620:6698   */\n      tag_153\n      jump\t// in\n    tag_266:\n        /* \"#utility.yul\":6612:6698   */\n      swap1\n      pop\n        /* \"#utility.yul\":6392:6705   */\n      swap3\n      swap2\n      pop\n      pop\n      jump\t// out\n        /* \"#utility.yul\":6711:7040   */\n    tag_35:\n        /* \"#utility.yul\":6770:6776   */\n      0x00\n        /* \"#utility.yul\":6819:6821   */\n      0x20\n        /* \"#utility.yul\":6807:6816   */\n      dup3\n        /* \"#utility.yul\":6798:6805   */\n      dup5\n        /* \"#utility.yul\":6794:6817   */\n      sub\n        /* \"#utility.yul\":6790:6822   */\n      slt\n        /* \"#utility.yul\":6787:6906   */\n      iszero\n      tag_268\n      jumpi\n        /* \"#utility.yul\":6825:6904   */\n      tag_269\n      tag_129\n      jump\t// in\n    tag_269:\n        /* \"#utility.yul\":6787:6906   */\n    tag_268:\n        /* \"#utility.yul\":6945:6946   */\n      0x00\n        /* \"#utility.yul\":6970:7023   */\n      tag_270\n        /* \"#utility.yul\":7015:7022   */\n      dup5\n        /* \"#utility.yul\":7006:7012   */\n      dup3\n        /* \"#utility.yul\":6995:7004   */\n      dup6\n        /* \"#utility.yul\":6991:7013   */\n      add\n        /* \"#utility.yul\":6970:7023   */\n      tag_137\n      jump\t// in\n    tag_270:\n        /* \"#utility.yul\":6960:7023   */\n      swap2\n      pop\n        /* \"#utility.yul\":6916:7033   */\n      pop\n        /* \"#utility.yul\":6711:7040   */\n      swap3\n      swap2\n      pop\n      pop\n      jump\t// out\n        /* \"#utility.yul\":7046:7268   */\n    tag_38:\n        /* \"#utility.yul\":7139:7143   */\n      0x00\n        /* \"#utility.yul\":7177:7179   */\n      0x20\n        /* \"#utility.yul\":7166:7175   */\n      dup3\n        /* \"#utility.yul\":7162:7180   */\n      add\n        /* \"#utility.yul\":7154:7180   */\n      swap1\n      pop\n        /* \"#utility.yul\":7190:7261   */\n      tag_272\n        /* \"#utility.yul\":7258:7259   */\n      0x00\n        /* \"#utility.yul\":7247:7256   */\n      dup4\n        /* \"#utility.yul\":7243:7260   */\n      add\n        /* \"#utility.yul\":7234:7240   */\n      dup5\n        /* \"#utility.yul\":7190:7261   */\n      tag_138\n      jump\t// in\n    tag_272:\n        /* \"#utility.yul\":7046:7268   */\n      swap3\n      swap2\n      pop\n      pop\n      jump\t// out\n        /* \"#utility.yul\":7274:8253   */\n    tag_45:\n        /* \"#utility.yul\":7371:7377   */\n      0x00\n        /* \"#utility.yul\":7379:7385   */\n      dup1\n        /* \"#utility.yul\":7387:7393   */\n      0x00\n        /* \"#utility.yul\":7436:7438   */\n      0x60\n        /* \"#utility.yul\":7424:7433   */\n      dup5\n        /* \"#utility.yul\":7415:7422   */\n      dup7\n        /* \"#utility.yul\":7411:7434   */\n      sub\n        /* \"#utility.yul\":7407:7439   */\n      slt\n        /* \"#utility.yul\":7404:7523   */\n      iszero\n      tag_274\n      jumpi\n        /* \"#utility.yul\":7442:7521   */\n      tag_275\n      tag_129\n      jump\t// in\n    tag_275:\n        /* \"#utility.yul\":7404:7523   */\n    tag_274:\n        /* \"#utility.yul\":7562:7563   */\n      0x00\n        /* \"#utility.yul\":7587:7640   */\n      tag_276\n        /* \"#utility.yul\":7632:7639   */\n      dup7\n        /* \"#utility.yul\":7623:7629   */\n      dup3\n        /* \"#utility.yul\":7612:7621   */\n      dup8\n        /* \"#utility.yul\":7608:7630   */\n      add\n        /* \"#utility.yul\":7587:7640   */\n      tag_134\n      jump\t// in\n    tag_276:\n        /* \"#utility.yul\":7577:7640   */\n      swap4\n      pop\n        /* \"#utility.yul\":7533:7650   */\n      pop\n        /* \"#utility.yul\":7717:7719   */\n      0x20\n        /* \"#utility.yul\":7706:7715   */\n      dup5\n        /* \"#utility.yul\":7702:7720   */\n      add\n        /* \"#utility.yul\":7689:7721   */\n      calldataload\n        /* \"#utility.yul\":7748:7766   */\n      0xffffffffffffffff\n        /* \"#utility.yul\":7740:7746   */\n      dup2\n        /* \"#utility.yul\":7737:7767   */\n      gt\n        /* \"#utility.yul\":7734:7851   */\n      iszero\n      tag_277\n      jumpi\n        /* \"#utility.yul\":7770:7849   */\n      tag_278\n      tag_130\n      jump\t// in\n    tag_278:\n        /* \"#utility.yul\":7734:7851   */\n    tag_277:\n        /* \"#utility.yul\":7875:7938   */\n      tag_279\n        /* \"#utility.yul\":7930:7937   */\n      dup7\n        /* \"#utility.yul\":7921:7927   */\n      dup3\n        /* \"#utility.yul\":7910:7919   */\n      dup8\n        /* \"#utility.yul\":7906:7928   */\n      add\n        /* \"#utility.yul\":7875:7938   */\n      tag_149\n      jump\t// in\n    tag_279:\n        /* \"#utility.yul\":7865:7938   */\n      swap3\n      pop\n        /* \"#utility.yul\":7660:7948   */\n      pop\n        /* \"#utility.yul\":8015:8017   */\n      0x40\n        /* \"#utility.yul\":8004:8013   */\n      dup5\n        /* \"#utility.yul\":8000:8018   */\n      add\n        /* \"#utility.yul\":7987:8019   */\n      calldataload\n        /* \"#utility.yul\":8046:8064   */\n      0xffffffffffffffff\n        /* \"#utility.yul\":8038:8044   */\n      dup2\n        /* \"#utility.yul\":8035:8065   */\n      gt\n        /* \"#utility.yul\":8032:8149   */\n      iszero\n      tag_280\n      jumpi\n        /* \"#utility.yul\":8068:8147   */\n      tag_281\n      tag_130\n      jump\t// in\n    tag_281:\n        /* \"#utility.yul\":8032:8149   */\n    tag_280:\n        /* \"#utility.yul\":8173:8236   */\n      tag_282\n        /* \"#utility.yul\":8228:8235   */\n      dup7\n        /* \"#utility.yul\":8219:8225   */\n      dup3\n        /* \"#utility.yul\":8208:8217   */\n      dup8\n        /* \"#utility.yul\":8204:8226   */\n      add\n        /* \"#utility.yul\":8173:8236   */\n      tag_149\n      jump\t// in\n    tag_282:\n        /* \"#utility.yul\":8163:8236   */\n      swap2\n      pop\n        /* \"#utility.yul\":7958:8246   */\n      pop\n        /* \"#utility.yul\":7274:8253   */\n      swap3\n      pop\n      swap3\n      pop\n      swap3\n      jump\t// out\n        /* \"#utility.yul\":8259:8373   */\n    tag_154:\n        /* \"#utility.yul\":8326:8332   */\n      0x00\n        /* \"#utility.yul\":8360:8365   */\n      dup2\n        /* \"#utility.yul\":8354:8366   */\n      mload\n        /* \"#utility.yul\":8344:8366   */\n      swap1\n      pop\n        /* \"#utility.yul\":8259:8373   */\n      swap2\n      swap1\n      pop\n      jump\t// out\n        /* \"#utility.yul\":8379:8563   */\n    tag_155:\n        /* \"#utility.yul\":8478:8489   */\n      0x00\n        /* \"#utility.yul\":8512:8518   */\n      dup3\n        /* \"#utility.yul\":8507:8510   */\n      dup3\n        /* \"#utility.yul\":8500:8519   */\n      mstore\n        /* \"#utility.yul\":8552:8556   */\n      0x20\n        /* \"#utility.yul\":8547:8550   */\n      dup3\n        /* \"#utility.yul\":8543:8557   */\n      add\n        /* \"#utility.yul\":8528:8557   */\n      swap1\n      pop\n        /* \"#utility.yul\":8379:8563   */\n      swap3\n      swap2\n      pop\n      pop\n      jump\t// out\n        /* \"#utility.yul\":8569:8701   */\n    tag_156:\n        /* \"#utility.yul\":8636:8640   */\n      0x00\n        /* \"#utility.yul\":8659:8662   */\n      dup2\n        /* \"#utility.yul\":8651:8662   */\n      swap1\n      pop\n        /* \"#utility.yul\":8689:8693   */\n      0x20\n        /* \"#utility.yul\":8684:8687   */\n      dup3\n        /* \"#utility.yul\":8680:8694   */\n      add\n        /* \"#utility.yul\":8672:8694   */\n      swap1\n      pop\n        /* \"#utility.yul\":8569:8701   */\n      swap2\n      swap1\n      pop\n      jump\t// out\n        /* \"#utility.yul\":8707:8815   */\n    tag_157:\n        /* \"#utility.yul\":8784:8808   */\n      tag_287\n        /* \"#utility.yul\":8802:8807   */\n      dup2\n        /* \"#utility.yul\":8784:8808   */\n      tag_132\n      jump\t// in\n    tag_287:\n        /* \"#utility.yul\":8779:8782   */\n      dup3\n        /* \"#utility.yul\":8772:8809   */\n      mstore\n        /* \"#utility.yul\":8707:8815   */\n      pop\n      pop\n      jump\t// out\n        /* \"#utility.yul\":8821:9000   */\n    tag_158:\n        /* \"#utility.yul\":8890:8900   */\n      0x00\n        /* \"#utility.yul\":8911:8957   */\n      tag_289\n        /* \"#utility.yul\":8953:8956   */\n      dup4\n        /* \"#utility.yul\":8945:8951   */\n      dup4\n        /* \"#utility.yul\":8911:8957   */\n      tag_157\n      jump\t// in\n    tag_289:\n        /* \"#utility.yul\":8989:8993   */\n      0x20\n        /* \"#utility.yul\":8984:8987   */\n      dup4\n        /* \"#utility.yul\":8980:8994   */\n      add\n        /* \"#utility.yul\":8966:8994   */\n      swap1\n      pop\n        /* \"#utility.yul\":8821:9000   */\n      swap3\n      swap2\n      pop\n      pop\n      jump\t// out\n        /* \"#utility.yul\":9006:9119   */\n    tag_159:\n        /* \"#utility.yul\":9076:9080   */\n      0x00\n        /* \"#utility.yul\":9108:9112   */\n      0x20\n        /* \"#utility.yul\":9103:9106   */\n      dup3\n        /* \"#utility.yul\":9099:9113   */\n      add\n        /* \"#utility.yul\":9091:9113   */\n      swap1\n      pop\n        /* \"#utility.yul\":9006:9119   */\n      swap2\n      swap1\n      pop\n      jump\t// out\n        /* \"#utility.yul\":9155:9887   */\n    tag_160:\n        /* \"#utility.yul\":9274:9277   */\n      0x00\n        /* \"#utility.yul\":9303:9357   */\n      tag_292\n        /* \"#utility.yul\":9351:9356   */\n      dup3\n        /* \"#utility.yul\":9303:9357   */\n      tag_154\n      jump\t// in\n    tag_292:\n        /* \"#utility.yul\":9373:9459   */\n      tag_293\n        /* \"#utility.yul\":9452:9458   */\n      dup2\n        /* \"#utility.yul\":9447:9450   */\n      dup6\n        /* \"#utility.yul\":9373:9459   */\n      tag_155\n      jump\t// in\n    tag_293:\n        /* \"#utility.yul\":9366:9459   */\n      swap4\n      pop\n        /* \"#utility.yul\":9483:9539   */\n      tag_294\n        /* \"#utility.yul\":9533:9538   */\n      dup4\n        /* \"#utility.yul\":9483:9539   */\n      tag_156\n      jump\t// in\n    tag_294:\n        /* \"#utility.yul\":9562:9569   */\n      dup1\n        /* \"#utility.yul\":9593:9594   */\n      0x00\n        /* \"#utility.yul\":9578:9862   */\n    tag_295:\n        /* \"#utility.yul\":9603:9609   */\n      dup4\n        /* \"#utility.yul\":9600:9601   */\n      dup2\n        /* \"#utility.yul\":9597:9610   */\n      lt\n        /* \"#utility.yul\":9578:9862   */\n      iszero\n      tag_297\n      jumpi\n        /* \"#utility.yul\":9679:9685   */\n      dup2\n        /* \"#utility.yul\":9673:9686   */\n      mload\n        /* \"#utility.yul\":9706:9769   */\n      tag_298\n        /* \"#utility.yul\":9765:9768   */\n      dup9\n        /* \"#utility.yul\":9750:9763   */\n      dup3\n        /* \"#utility.yul\":9706:9769   */\n      tag_158\n      jump\t// in\n    tag_298:\n        /* \"#utility.yul\":9699:9769   */\n      swap8\n      pop\n        /* \"#utility.yul\":9792:9852   */\n      tag_299\n        /* \"#utility.yul\":9845:9851   */\n      dup4\n        /* \"#utility.yul\":9792:9852   */\n      tag_159\n      jump\t// in\n    tag_299:\n        /* \"#utility.yul\":9782:9852   */\n      swap3\n      pop\n        /* \"#utility.yul\":9638:9862   */\n      pop\n        /* \"#utility.yul\":9625:9626   */\n      0x01\n        /* \"#utility.yul\":9622:9623   */\n      dup2\n        /* \"#utility.yul\":9618:9627   */\n      add\n        /* \"#utility.yul\":9613:9627   */\n      swap1\n      pop\n        /* \"#utility.yul\":9578:9862   */\n      jump(tag_295)\n    tag_297:\n        /* \"#utility.yul\":9582:9596   */\n      pop\n        /* \"#utility.yul\":9878:9881   */\n      dup6\n        /* \"#utility.yul\":9871:9881   */\n      swap4\n      pop\n        /* \"#utility.yul\":9279:9887   */\n      pop\n      pop\n      pop\n        /* \"#utility.yul\":9155:9887   */\n      swap3\n      swap2\n      pop\n      pop\n      jump\t// out\n        /* \"#utility.yul\":9893:10266   */\n    tag_50:\n        /* \"#utility.yul\":10036:10040   */\n      0x00\n        /* \"#utility.yul\":10074:10076   */\n      0x20\n        /* \"#utility.yul\":10063:10072   */\n      dup3\n        /* \"#utility.yul\":10059:10077   */\n      add\n        /* \"#utility.yul\":10051:10077   */\n      swap1\n      pop\n        /* \"#utility.yul\":10123:10132   */\n      dup2\n        /* \"#utility.yul\":10117:10121   */\n      dup2\n        /* \"#utility.yul\":10113:10133   */\n      sub\n        /* \"#utility.yul\":10109:10110   */\n      0x00\n        /* \"#utility.yul\":10098:10107   */\n      dup4\n        /* \"#utility.yul\":10094:10111   */\n      add\n        /* \"#utility.yul\":10087:10134   */\n      mstore\n        /* \"#utility.yul\":10151:10259   */\n      tag_301\n        /* \"#utility.yul\":10254:10258   */\n      dup2\n        /* \"#utility.yul\":10245:10251   */\n      dup5\n        /* \"#utility.yul\":10151:10259   */\n      tag_160\n      jump\t// in\n    tag_301:\n        /* \"#utility.yul\":10143:10259   */\n      swap1\n      pop\n        /* \"#utility.yul\":9893:10266   */\n      swap3\n      swap2\n      pop\n      pop\n      jump\t// out\n        /* \"#utility.yul\":10272:10380   */\n    tag_161:\n        /* \"#utility.yul\":10349:10373   */\n      tag_303\n        /* \"#utility.yul\":10367:10372   */\n      dup2\n        /* \"#utility.yul\":10349:10373   */\n      tag_135\n      jump\t// in\n    tag_303:\n        /* \"#utility.yul\":10344:10347   */\n      dup3\n        /* \"#utility.yul\":10337:10374   */\n      mstore\n        /* \"#utility.yul\":10272:10380   */\n      pop\n      pop\n      jump\t// out\n        /* \"#utility.yul\":10444:10958   */\n    tag_162:\n        /* \"#utility.yul\":10579:10583   */\n      0x40\n        /* \"#utility.yul\":10574:10577   */\n      dup3\n        /* \"#utility.yul\":10570:10584   */\n      add\n        /* \"#utility.yul\":10673:10677   */\n      0x00\n        /* \"#utility.yul\":10666:10671   */\n      dup3\n        /* \"#utility.yul\":10662:10678   */\n      add\n        /* \"#utility.yul\":10656:10679   */\n      mload\n        /* \"#utility.yul\":10692:10755   */\n      tag_305\n        /* \"#utility.yul\":10749:10753   */\n      0x00\n        /* \"#utility.yul\":10744:10747   */\n      dup6\n        /* \"#utility.yul\":10740:10754   */\n      add\n        /* \"#utility.yul\":10726:10738   */\n      dup3\n        /* \"#utility.yul\":10692:10755   */\n      tag_157\n      jump\t// in\n    tag_305:\n        /* \"#utility.yul\":10594:10765   */\n      pop\n        /* \"#utility.yul\":10859:10863   */\n      0x20\n        /* \"#utility.yul\":10852:10857   */\n      dup3\n        /* \"#utility.yul\":10848:10864   */\n      add\n        /* \"#utility.yul\":10842:10865   */\n      mload\n        /* \"#utility.yul\":10878:10941   */\n      tag_306\n        /* \"#utility.yul\":10935:10939   */\n      0x20\n        /* \"#utility.yul\":10930:10933   */\n      dup6\n        /* \"#utility.yul\":10926:10940   */\n      add\n        /* \"#utility.yul\":10912:10924   */\n      dup3\n        /* \"#utility.yul\":10878:10941   */\n      tag_161\n      jump\t// in\n    tag_306:\n        /* \"#utility.yul\":10775:10951   */\n      pop\n        /* \"#utility.yul\":10548:10958   */\n      pop\n        /* \"#utility.yul\":10444:10958   */\n      pop\n      pop\n      jump\t// out\n        /* \"#utility.yul\":10964:11262   */\n    tag_55:\n        /* \"#utility.yul\":11095:11099   */\n      0x00\n        /* \"#utility.yul\":11133:11135   */\n      0x40\n        /* \"#utility.yul\":11122:11131   */\n      dup3\n        /* \"#utility.yul\":11118:11136   */\n      add\n        /* \"#utility.yul\":11110:11136   */\n      swap1\n      pop\n        /* \"#utility.yul\":11146:11255   */\n      tag_308\n        /* \"#utility.yul\":11252:11253   */\n      0x00\n        /* \"#utility.yul\":11241:11250   */\n      dup4\n        /* \"#utility.yul\":11237:11254   */\n      add\n        /* \"#utility.yul\":11228:11234   */\n      dup5\n        /* \"#utility.yul\":11146:11255   */\n      tag_162\n      jump\t// in\n    tag_308:\n        /* \"#utility.yul\":10964:11262   */\n      swap3\n      swap2\n      pop\n      pop\n      jump\t// out\n        /* \"#utility.yul\":11268:11437   */\n    tag_163:\n        /* \"#utility.yul\":11408:11429   */\n      0x4e6f646520616c72656164792065786973747300000000000000000000000000\n        /* \"#utility.yul\":11404:11405   */\n      0x00\n        /* \"#utility.yul\":11396:11402   */\n      dup3\n        /* \"#utility.yul\":11392:11406   */\n      add\n        /* \"#utility.yul\":11385:11430   */\n      mstore\n        /* \"#utility.yul\":11268:11437   */\n      pop\n      jump\t// out\n        /* \"#utility.yul\":11443:11809   */\n    tag_164:\n        /* \"#utility.yul\":11585:11588   */\n      0x00\n        /* \"#utility.yul\":11606:11673   */\n      tag_311\n        /* \"#utility.yul\":11670:11672   */\n      0x13\n        /* \"#utility.yul\":11665:11668   */\n      dup4\n        /* \"#utility.yul\":11606:11673   */\n      tag_151\n      jump\t// in\n    tag_311:\n        /* \"#utility.yul\":11599:11673   */\n      swap2\n      pop\n        /* \"#utility.yul\":11682:11775   */\n      tag_312\n        /* \"#utility.yul\":11771:11774   */\n      dup3\n        /* \"#utility.yul\":11682:11775   */\n      tag_163\n      jump\t// in\n    tag_312:\n        /* \"#utility.yul\":11800:11802   */\n      0x20\n        /* \"#utility.yul\":11795:11798   */\n      dup3\n        /* \"#utility.yul\":11791:11803   */\n      add\n        /* \"#utility.yul\":11784:11803   */\n      swap1\n      pop\n        /* \"#utility.yul\":11443:11809   */\n      swap2\n      swap1\n      pop\n      jump\t// out\n        /* \"#utility.yul\":11815:12234   */\n    tag_63:\n        /* \"#utility.yul\":11981:11985   */\n      0x00\n        /* \"#utility.yul\":12019:12021   */\n      0x20\n        /* \"#utility.yul\":12008:12017   */\n      dup3\n        /* \"#utility.yul\":12004:12022   */\n      add\n        /* \"#utility.yul\":11996:12022   */\n      swap1\n      pop\n        /* \"#utility.yul\":12068:12077   */\n      dup2\n        /* \"#utility.yul\":12062:12066   */\n      dup2\n        /* \"#utility.yul\":12058:12078   */\n      sub\n        /* \"#utility.yul\":12054:12055   */\n      0x00\n        /* \"#utility.yul\":12043:12052   */\n      dup4\n        /* \"#utility.yul\":12039:12056   */\n      add\n        /* \"#utility.yul\":12032:12079   */\n      mstore\n        /* \"#utility.yul\":12096:12227   */\n      tag_314\n        /* \"#utility.yul\":12222:12226   */\n      dup2\n        /* \"#utility.yul\":12096:12227   */\n      tag_164\n      jump\t// in\n    tag_314:\n        /* \"#utility.yul\":12088:12227   */\n      swap1\n      pop\n        /* \"#utility.yul\":11815:12234   */\n      swap2\n      swap1\n      pop\n      jump\t// out\n        /* \"#utility.yul\":12240:12409   */\n    tag_165:\n        /* \"#utility.yul\":12380:12401   */\n      0x4e6f646520646f6573206e6f7420657869737400000000000000000000000000\n        /* \"#utility.yul\":12376:12377   */\n      0x00\n        /* \"#utility.yul\":12368:12374   */\n      dup3\n        /* \"#utility.yul\":12364:12378   */\n      add\n        /* \"#utility.yul\":12357:12402   */\n      mstore\n        /* \"#utility.yul\":12240:12409   */\n      pop\n      jump\t// out\n        /* \"#utility.yul\":12415:12781   */\n    tag_166:\n        /* \"#utility.yul\":12557:12560   */\n      0x00\n        /* \"#utility.yul\":12578:12645   */\n      tag_317\n        /* \"#utility.yul\":12642:12644   */\n      0x13\n        /* \"#utility.yul\":12637:12640   */\n      dup4\n        /* \"#utility.yul\":12578:12645   */\n      tag_151\n      jump\t// in\n    tag_317:\n        /* \"#utility.yul\":12571:12645   */\n      swap2\n      pop\n        /* \"#utility.yul\":12654:12747   */\n      tag_318\n        /* \"#utility.yul\":12743:12746   */\n      dup3\n        /* \"#utility.yul\":12654:12747   */\n      tag_165\n      jump\t// in\n    tag_318:\n        /* \"#utility.yul\":12772:12774   */\n      0x20\n        /* \"#utility.yul\":12767:12770   */\n      dup3\n        /* \"#utility.yul\":12763:12775   */\n      add\n        /* \"#utility.yul\":12756:12775   */\n      swap1\n      pop\n        /* \"#utility.yul\":12415:12781   */\n      swap2\n      swap1\n      pop\n      jump\t// out\n        /* \"#utility.yul\":12787:13206   */\n    tag_69:\n        /* \"#utility.yul\":12953:12957   */\n      0x00\n        /* \"#utility.yul\":12991:12993   */\n      0x20\n        /* \"#utility.yul\":12980:12989   */\n      dup3\n        /* \"#utility.yul\":12976:12994   */\n      add\n        /* \"#utility.yul\":12968:12994   */\n      swap1\n      pop\n        /* \"#utility.yul\":13040:13049   */\n      dup2\n        /* \"#utility.yul\":13034:13038   */\n      dup2\n        /* \"#utility.yul\":13030:13050   */\n      sub\n        /* \"#utility.yul\":13026:13027   */\n      0x00\n        /* \"#utility.yul\":13015:13024   */\n      dup4\n        /* \"#utility.yul\":13011:13028   */\n      add\n        /* \"#utility.yul\":13004:13051   */\n      mstore\n        /* \"#utility.yul\":13068:13199   */\n      tag_320\n        /* \"#utility.yul\":13194:13198   */\n      dup2\n        /* \"#utility.yul\":13068:13199   */\n      tag_166\n      jump\t// in\n    tag_320:\n        /* \"#utility.yul\":13060:13199   */\n      swap1\n      pop\n        /* \"#utility.yul\":12787:13206   */\n      swap2\n      swap1\n      pop\n      jump\t// out\n        /* \"#utility.yul\":13212:13360   */\n    tag_167:\n        /* \"#utility.yul\":13314:13325   */\n      0x00\n        /* \"#utility.yul\":13351:13354   */\n      dup2\n        /* \"#utility.yul\":13336:13354   */\n      swap1\n      pop\n        /* \"#utility.yul\":13212:13360   */\n      swap3\n      swap2\n      pop\n      pop\n      jump\t// out\n        /* \"#utility.yul\":13366:13756   */\n    tag_168:\n        /* \"#utility.yul\":13472:13475   */\n      0x00\n        /* \"#utility.yul\":13500:13539   */\n      tag_323\n        /* \"#utility.yul\":13533:13538   */\n      dup3\n        /* \"#utility.yul\":13500:13539   */\n      tag_150\n      jump\t// in\n    tag_323:\n        /* \"#utility.yul\":13555:13644   */\n      tag_324\n        /* \"#utility.yul\":13637:13643   */\n      dup2\n        /* \"#utility.yul\":13632:13635   */\n      dup6\n        /* \"#utility.yul\":13555:13644   */\n      tag_167\n      jump\t// in\n    tag_324:\n        /* \"#utility.yul\":13548:13644   */\n      swap4\n      pop\n        /* \"#utility.yul\":13653:13718   */\n      tag_325\n        /* \"#utility.yul\":13711:13717   */\n      dup2\n        /* \"#utility.yul\":13706:13709   */\n      dup6\n        /* \"#utility.yul\":13699:13703   */\n      0x20\n        /* \"#utility.yul\":13692:13697   */\n      dup7\n        /* \"#utility.yul\":13688:13704   */\n      add\n        /* \"#utility.yul\":13653:13718   */\n      tag_152\n      jump\t// in\n    tag_325:\n        /* \"#utility.yul\":13743:13749   */\n      dup1\n        /* \"#utility.yul\":13738:13741   */\n      dup5\n        /* \"#utility.yul\":13734:13750   */\n      add\n        /* \"#utility.yul\":13727:13750   */\n      swap2\n      pop\n        /* \"#utility.yul\":13476:13756   */\n      pop\n        /* \"#utility.yul\":13366:13756   */\n      swap3\n      swap2\n      pop\n      pop\n      jump\t// out\n        /* \"#utility.yul\":13762:14037   */\n    tag_71:\n        /* \"#utility.yul\":13894:13897   */\n      0x00\n        /* \"#utility.yul\":13916:14011   */\n      tag_327\n        /* \"#utility.yul\":14007:14010   */\n      dup3\n        /* \"#utility.yul\":13998:14004   */\n      dup5\n        /* \"#utility.yul\":13916:14011   */\n      tag_168\n      jump\t// in\n    tag_327:\n        /* \"#utility.yul\":13909:14011   */\n      swap2\n      pop\n        /* \"#utility.yul\":14028:14031   */\n      dup2\n        /* \"#utility.yul\":14021:14031   */\n      swap1\n      pop\n        /* \"#utility.yul\":13762:14037   */\n      swap3\n      swap2\n      pop\n      pop\n      jump\t// out\n        /* \"#utility.yul\":14043:14223   */\n    tag_169:\n        /* \"#utility.yul\":14091:14168   */\n      0x4e487b7100000000000000000000000000000000000000000000000000000000\n        /* \"#utility.yul\":14088:14089   */\n      0x00\n        /* \"#utility.yul\":14081:14169   */\n      mstore\n        /* \"#utility.yul\":14188:14192   */\n      0x22\n        /* \"#utility.yul\":14185:14186   */\n      0x04\n        /* \"#utility.yul\":14178:14193   */\n      mstore\n        /* \"#utility.yul\":14212:14216   */\n      0x24\n        /* \"#utility.yul\":14209:14210   */\n      0x00\n        /* \"#utility.yul\":14202:14217   */\n      revert\n        /* \"#utility.yul\":14229:14549   */\n    tag_73:\n        /* \"#utility.yul\":14273:14279   */\n      0x00\n        /* \"#utility.yul\":14310:14311   */\n      0x02\n        /* \"#utility.yul\":14304:14308   */\n      dup3\n        /* \"#utility.yul\":14300:14312   */\n      div\n        /* \"#utility.yul\":14290:14312   */\n      swap1\n      pop\n        /* \"#utility.yul\":14357:14358   */\n      0x01\n        /* \"#utility.yul\":14351:14355   */\n      dup3\n        /* \"#utility.yul\":14347:14359   */\n      and\n        /* \"#utility.yul\":14378:14396   */\n      dup1\n        /* \"#utility.yul\":14368:14449   */\n      tag_330\n      jumpi\n        /* \"#utility.yul\":14434:14438   */\n      0x7f\n        /* \"#utility.yul\":14426:14432   */\n      dup3\n        /* \"#utility.yul\":14422:14439   */\n      and\n        /* \"#utility.yul\":14412:14439   */\n      swap2\n      pop\n        /* \"#utility.yul\":14368:14449   */\n    tag_330:\n        /* \"#utility.yul\":14496:14498   */\n      0x20\n        /* \"#utility.yul\":14488:14494   */\n      dup3\n        /* \"#utility.yul\":14485:14499   */\n      lt\n        /* \"#utility.yul\":14465:14483   */\n      dup2\n        /* \"#utility.yul\":14462:14500   */\n      sub\n        /* \"#utility.yul\":14459:14543   */\n      tag_331\n      jumpi\n        /* \"#utility.yul\":14515:14533   */\n      tag_332\n      tag_169\n      jump\t// in\n    tag_332:\n        /* \"#utility.yul\":14459:14543   */\n    tag_331:\n        /* \"#utility.yul\":14280:14549   */\n      pop\n        /* \"#utility.yul\":14229:14549   */\n      swap2\n      swap1\n      pop\n      jump\t// out\n        /* \"#utility.yul\":14555:14735   */\n    tag_170:\n        /* \"#utility.yul\":14603:14680   */\n      0x4e487b7100000000000000000000000000000000000000000000000000000000\n        /* \"#utility.yul\":14600:14601   */\n      0x00\n        /* \"#utility.yul\":14593:14681   */\n      mstore\n        /* \"#utility.yul\":14700:14704   */\n      0x11\n        /* \"#utility.yul\":14697:14698   */\n      0x04\n        /* \"#utility.yul\":14690:14705   */\n      mstore\n        /* \"#utility.yul\":14724:14728   */\n      0x24\n        /* \"#utility.yul\":14721:14722   */\n      0x00\n        /* \"#utility.yul\":14714:14729   */\n      revert\n        /* \"#utility.yul\":14741:14935   */\n    tag_87:\n        /* \"#utility.yul\":14781:14785   */\n      0x00\n        /* \"#utility.yul\":14801:14821   */\n      tag_335\n        /* \"#utility.yul\":14819:14820   */\n      dup3\n        /* \"#utility.yul\":14801:14821   */\n      tag_135\n      jump\t// in\n    tag_335:\n        /* \"#utility.yul\":14796:14821   */\n      swap2\n      pop\n        /* \"#utility.yul\":14835:14855   */\n      tag_336\n        /* \"#utility.yul\":14853:14854   */\n      dup4\n        /* \"#utility.yul\":14835:14855   */\n      tag_135\n      jump\t// in\n    tag_336:\n        /* \"#utility.yul\":14830:14855   */\n      swap3\n      pop\n        /* \"#utility.yul\":14879:14880   */\n      dup3\n        /* \"#utility.yul\":14876:14877   */\n      dup3\n        /* \"#utility.yul\":14872:14881   */\n      sub\n        /* \"#utility.yul\":14864:14881   */\n      swap1\n      pop\n        /* \"#utility.yul\":14903:14904   */\n      dup2\n        /* \"#utility.yul\":14897:14901   */\n      dup2\n        /* \"#utility.yul\":14894:14905   */\n      gt\n        /* \"#utility.yul\":14891:14928   */\n      iszero\n      tag_337\n      jumpi\n        /* \"#utility.yul\":14908:14926   */\n      tag_338\n      tag_170\n      jump\t// in\n    tag_338:\n        /* \"#utility.yul\":14891:14928   */\n    tag_337:\n        /* \"#utility.yul\":14741:14935   */\n      swap3\n      swap2\n      pop\n      pop\n      jump\t// out\n        /* \"#utility.yul\":14941:15121   */\n    tag_171:\n        /* \"#utility.yul\":14989:15066   */\n      0x4e487b7100000000000000000000000000000000000000000000000000000000\n        /* \"#utility.yul\":14986:14987   */\n      0x00\n        /* \"#utility.yul\":14979:15067   */\n      mstore\n        /* \"#utility.yul\":15086:15090   */\n      0x12\n        /* \"#utility.yul\":15083:15084   */\n      0x04\n        /* \"#utility.yul\":15076:15091   */\n      mstore\n        /* \"#utility.yul\":15110:15114   */\n      0x24\n        /* \"#utility.yul\":15107:15108   */\n      0x00\n        /* \"#utility.yul\":15100:15115   */\n      revert\n        /* \"#utility.yul\":15127:15303   */\n    tag_89:\n        /* \"#utility.yul\":15159:15160   */\n      0x00\n        /* \"#utility.yul\":15176:15196   */\n      tag_341\n        /* \"#utility.yul\":15194:15195   */\n      dup3\n        /* \"#utility.yul\":15176:15196   */\n      tag_135\n      jump\t// in\n    tag_341:\n        /* \"#utility.yul\":15171:15196   */\n      swap2\n      pop\n        /* \"#utility.yul\":15210:15230   */\n      tag_342\n        /* \"#utility.yul\":15228:15229   */\n      dup4\n        /* \"#utility.yul\":15210:15230   */\n      tag_135\n      jump\t// in\n    tag_342:\n        /* \"#utility.yul\":15205:15230   */\n      swap3\n      pop\n        /* \"#utility.yul\":15249:15250   */\n      dup3\n        /* \"#utility.yul\":15239:15274   */\n      tag_343\n      jumpi\n        /* \"#utility.yul\":15254:15272   */\n      tag_344\n      tag_171\n      jump\t// in\n    tag_344:\n        /* \"#utility.yul\":15239:15274   */\n    tag_343:\n        /* \"#utility.yul\":15295:15296   */\n      dup3\n        /* \"#utility.yul\":15292:15293   */\n      dup3\n        /* \"#utility.yul\":15288:15297   */\n      mod\n        /* \"#utility.yul\":15283:15297   */\n      swap1\n      pop\n        /* \"#utility.yul\":15127:15303   */\n      swap3\n      swap2\n      pop\n      pop\n      jump\t// out\n        /* \"#utility.yul\":15309:15500   */\n    tag_94:\n        /* \"#utility.yul\":15349:15352   */\n      0x00\n        /* \"#utility.yul\":15368:15388   */\n      tag_346\n        /* \"#utility.yul\":15386:15387   */\n      dup3\n        /* \"#utility.yul\":15368:15388   */\n      tag_135\n      jump\t// in\n    tag_346:\n        /* \"#utility.yul\":15363:15388   */\n      swap2\n      pop\n        /* \"#utility.yul\":15402:15422   */\n      tag_347\n        /* \"#utility.yul\":15420:15421   */\n      dup4\n        /* \"#utility.yul\":15402:15422   */\n      tag_135\n      jump\t// in\n    tag_347:\n        /* \"#utility.yul\":15397:15422   */\n      swap3\n      pop\n        /* \"#utility.yul\":15445:15446   */\n      dup3\n        /* \"#utility.yul\":15442:15443   */\n      dup3\n        /* \"#utility.yul\":15438:15447   */\n      add\n        /* \"#utility.yul\":15431:15447   */\n      swap1\n      pop\n        /* \"#utility.yul\":15466:15469   */\n      dup1\n        /* \"#utility.yul\":15463:15464   */\n      dup3\n        /* \"#utility.yul\":15460:15470   */\n      gt\n        /* \"#utility.yul\":15457:15493   */\n      iszero\n      tag_348\n      jumpi\n        /* \"#utility.yul\":15473:15491   */\n      tag_349\n      tag_170\n      jump\t// in\n    tag_349:\n        /* \"#utility.yul\":15457:15493   */\n    tag_348:\n        /* \"#utility.yul\":15309:15500   */\n      swap3\n      swap2\n      pop\n      pop\n      jump\t// out\n        /* \"#utility.yul\":15506:15686   */\n    tag_98:\n        /* \"#utility.yul\":15554:15631   */\n      0x4e487b7100000000000000000000000000000000000000000000000000000000\n        /* \"#utility.yul\":15551:15552   */\n      0x00\n        /* \"#utility.yul\":15544:15632   */\n      mstore\n        /* \"#utility.yul\":15651:15655   */\n      0x32\n        /* \"#utility.yul\":15648:15649   */\n      0x04\n        /* \"#utility.yul\":15641:15656   */\n      mstore\n        /* \"#utility.yul\":15675:15679   */\n      0x24\n        /* \"#utility.yul\":15672:15673   */\n      0x00\n        /* \"#utility.yul\":15665:15680   */\n      revert\n        /* \"#utility.yul\":15692:15833   */\n    tag_172:\n        /* \"#utility.yul\":15741:15745   */\n      0x00\n        /* \"#utility.yul\":15764:15767   */\n      dup2\n        /* \"#utility.yul\":15756:15767   */\n      swap1\n      pop\n        /* \"#utility.yul\":15787:15790   */\n      dup2\n        /* \"#utility.yul\":15784:15785   */\n      0x00\n        /* \"#utility.yul\":15777:15791   */\n      mstore\n        /* \"#utility.yul\":15821:15825   */\n      0x20\n        /* \"#utility.yul\":15818:15819   */\n      0x00\n        /* \"#utility.yul\":15808:15826   */\n      keccak256\n        /* \"#utility.yul\":15800:15826   */\n      swap1\n      pop\n        /* \"#utility.yul\":15692:15833   */\n      swap2\n      swap1\n      pop\n      jump\t// out\n        /* \"#utility.yul\":15839:15932   */\n    tag_173:\n        /* \"#utility.yul\":15876:15882   */\n      0x00\n        /* \"#utility.yul\":15923:15925   */\n      0x20\n        /* \"#utility.yul\":15918:15920   */\n      0x1f\n        /* \"#utility.yul\":15911:15916   */\n      dup4\n        /* \"#utility.yul\":15907:15921   */\n      add\n        /* \"#utility.yul\":15903:15926   */\n      div\n        /* \"#utility.yul\":15893:15926   */\n      swap1\n      pop\n        /* \"#utility.yul\":15839:15932   */\n      swap2\n      swap1\n      pop\n      jump\t// out\n        /* \"#utility.yul\":15938:16045   */\n    tag_174:\n        /* \"#utility.yul\":15982:15990   */\n      0x00\n        /* \"#utility.yul\":16032:16037   */\n      dup3\n        /* \"#utility.yul\":16026:16030   */\n      dup3\n        /* \"#utility.yul\":16022:16038   */\n      shl\n        /* \"#utility.yul\":16001:16038   */\n      swap1\n      pop\n        /* \"#utility.yul\":15938:16045   */\n      swap3\n      swap2\n      pop\n      pop\n      jump\t// out\n        /* \"#utility.yul\":16051:16444   */\n    tag_175:\n        /* \"#utility.yul\":16120:16126   */\n      0x00\n        /* \"#utility.yul\":16170:16171   */\n      0x08\n        /* \"#utility.yul\":16158:16168   */\n      dup4\n        /* \"#utility.yul\":16154:16172   */\n      mul\n        /* \"#utility.yul\":16193:16290   */\n      tag_355\n        /* \"#utility.yul\":16223:16289   */\n      0xffffffffffffffffffffffffffffffffffffffffffffffffffffffffffffffff\n        /* \"#utility.yul\":16212:16221   */\n      dup3\n        /* \"#utility.yul\":16193:16290   */\n      tag_174\n      jump\t// in\n    tag_355:\n        /* \"#utility.yul\":16311:16350   */\n      tag_356\n        /* \"#utility.yul\":16341:16349   */\n      dup7\n        /* \"#utility.yul\":16330:16339   */\n      dup4\n        /* \"#utility.yul\":16311:16350   */\n      tag_174\n      jump\t// in\n    tag_356:\n        /* \"#utility.yul\":16299:16350   */\n      swap6\n      pop\n        /* \"#utility.yul\":16383:16387   */\n      dup1\n        /* \"#utility.yul\":16379:16388   */\n      not\n        /* \"#utility.yul\":16372:16377   */\n      dup5\n        /* \"#utility.yul\":16368:16389   */\n      and\n        /* \"#utility.yul\":16359:16389   */\n      swap4\n      pop\n        /* \"#utility.yul\":16432:16436   */\n      dup1\n        /* \"#utility.yul\":16422:16430   */\n      dup7\n        /* \"#utility.yul\":16418:16437   */\n      and\n        /* \"#utility.yul\":16411:16416   */\n      dup5\n        /* \"#utility.yul\":16408:16438   */\n      or\n        /* \"#utility.yul\":16398:16438   */\n      swap3\n      pop\n        /* \"#utility.yul\":16127:16444   */\n      pop\n      pop\n        /* \"#utility.yul\":16051:16444   */\n      swap4\n      swap3\n      pop\n      pop\n      pop\n      jump\t// out\n        /* \"#utility.yul\":16450:16510   */\n    tag_176:\n        /* \"#utility.yul\":16478:16481   */\n      0x00\n        /* \"#utility.yul\":16499:16504   */\n      dup2\n        /* \"#utility.yul\":16492:16504   */\n      swap1\n      pop\n        /* \"#utility.yul\":16450:16510   */\n      swap2\n      swap1\n      pop\n      jump\t// out\n        /* \"#utility.yul\":16516:16658   */\n    tag_177:\n        /* \"#utility.yul\":16566:16575   */\n      0x00\n        /* \"#utility.yul\":16599:16652   */\n      tag_359\n        /* \"#utility.yul\":16617:16651   */\n      tag_360\n        /* \"#utility.yul\":16626:16650   */\n      tag_361\n        /* \"#utility.yul\":16644:16649   */\n      dup5\n        /* \"#utility.yul\":16626:16650   */\n      tag_135\n      jump\t// in\n    tag_361:\n        /* \"#utility.yul\":16617:16651   */\n      tag_176\n      jump\t// in\n    tag_360:\n        /* \"#utility.yul\":16599:16652   */\n      tag_135\n      jump\t// in\n    tag_359:\n        /* \"#utility.yul\":16586:16652   */\n      swap1\n      pop\n        /* \"#utility.yul\":16516:16658   */\n      swap2\n      swap1\n      pop\n      jump\t// out\n        /* \"#utility.yul\":16664:16739   */\n    tag_178:\n        /* \"#utility.yul\":16707:16710   */\n      0x00\n        /* \"#utility.yul\":16728:16733   */\n      dup2\n        /* \"#utility.yul\":16721:16733   */\n      swap1\n      pop\n        /* \"#utility.yul\":16664:16739   */\n      swap2\n      swap1\n      pop\n      jump\t// out\n        /* \"#utility.yul\":16745:17014   */\n    tag_179:\n        /* \"#utility.yul\":16855:16894   */\n      tag_364\n        /* \"#utility.yul\":16886:16893   */\n      dup4\n        /* \"#utility.yul\":16855:16894   */\n      tag_177\n      jump\t// in\n    tag_364:\n        /* \"#utility.yul\":16916:17007   */\n      tag_365\n        /* \"#utility.yul\":16965:17006   */\n      tag_366\n        /* \"#utility.yul\":16989:17005   */\n      dup3\n        /* \"#utility.yul\":16965:17006   */\n      tag_178\n      jump\t// in\n    tag_366:\n        /* \"#utility.yul\":16957:16963   */\n      dup5\n        /* \"#utility.yul\":16950:16954   */\n      dup5\n        /* \"#utility.yul\":16944:16955   */\n      sload\n        /* \"#utility.yul\":16916:17007   */\n      tag_175\n      jump\t// in\n    tag_365:\n        /* \"#utility.yul\":16910:16914   */\n      dup3\n        /* \"#utility.yul\":16903:17008   */\n      sstore\n        /* \"#utility.yul\":16821:17014   */\n      pop\n        /* \"#utility.yul\":16745:17014   */\n      pop\n      pop\n      pop\n      jump\t// out\n        /* \"#utility.yul\":17020:17093   */\n    tag_180:\n        /* \"#utility.yul\":17065:17068   */\n      0x00\n        /* \"#utility.yul\":17020:17093   */\n      swap1\n      jump\t// out\n        /* \"#utility.yul\":17099:17288   */\n    tag_181:\n        /* \"#utility.yul\":17176:17208   */\n      tag_369\n      tag_180\n      jump\t// in\n    tag_369:\n        /* \"#utility.yul\":17217:17282   */\n      tag_370\n        /* \"#utility.yul\":17275:17281   */\n      dup2\n        /* \"#utility.yul\":17267:17273   */\n      dup5\n        /* \"#utility.yul\":17261:17265   */\n      dup5\n        /* \"#utility.yul\":17217:17282   */\n      tag_179\n      jump\t// in\n    tag_370:\n        /* \"#utility.yul\":17152:17288   */\n      pop\n        /* \"#utility.yul\":17099:17288   */\n      pop\n      pop\n      jump\t// out\n        /* \"#utility.yul\":17294:17480   */\n    tag_182:\n        /* \"#utility.yul\":17354:17474   */\n    tag_372:\n        /* \"#utility.yul\":17371:17374   */\n      dup2\n        /* \"#utility.yul\":17364:17369   */\n      dup2\n        /* \"#utility.yul\":17361:17375   */\n      lt\n        /* \"#utility.yul\":17354:17474   */\n      iszero\n      tag_374\n      jumpi\n        /* \"#utility.yul\":17425:17464   */\n      tag_375\n        /* \"#utility.yul\":17462:17463   */\n      0x00\n        /* \"#utility.yul\":17455:17460   */\n      dup3\n        /* \"#utility.yul\":17425:17464   */\n      tag_181\n      jump\t// in\n    tag_375:\n        /* \"#utility.yul\":17398:17399   */\n      0x01\n        /* \"#utility.yul\":17391:17396   */\n      dup2\n        /* \"#utility.yul\":17387:17400   */\n      add\n        /* \"#utility.yul\":17378:17400   */\n      swap1\n      pop\n        /* \"#utility.yul\":17354:17474   */\n      jump(tag_372)\n    tag_374:\n        /* \"#utility.yul\":17294:17480   */\n      pop\n      pop\n      jump\t// out\n        /* \"#utility.yul\":17486:18029   */\n    tag_183:\n        /* \"#utility.yul\":17587:17589   */\n      0x1f\n        /* \"#utility.yul\":17582:17585   */\n      dup3\n        /* \"#utility.yul\":17579:17590   */\n      gt\n        /* \"#utility.yul\":17576:18022   */\n      iszero\n      tag_377\n      jumpi\n        /* \"#utility.yul\":17621:17659   */\n      tag_378\n        /* \"#utility.yul\":17653:17658   */\n      dup2\n        /* \"#utility.yul\":17621:17659   */\n      tag_172\n      jump\t// in\n    tag_378:\n        /* \"#utility.yul\":17705:17734   */\n      tag_379\n        /* \"#utility.yul\":17723:17733   */\n      dup5\n        /* \"#utility.yul\":17705:17734   */\n      tag_173\n      jump\t// in\n    tag_379:\n        /* \"#utility.yul\":17695:17703   */\n      dup2\n        /* \"#utility.yul\":17691:17735   */\n      add\n        /* \"#utility.yul\":17888:17890   */\n      0x20\n        /* \"#utility.yul\":17876:17886   */\n      dup6\n        /* \"#utility.yul\":17873:17891   */\n      lt\n        /* \"#utility.yul\":17870:17919   */\n      iszero\n      tag_380\n      jumpi\n        /* \"#utility.yul\":17909:17917   */\n      dup2\n        /* \"#utility.yul\":17894:17917   */\n      swap1\n      pop\n        /* \"#utility.yul\":17870:17919   */\n    tag_380:\n        /* \"#utility.yul\":17932:18012   */\n      tag_381\n        /* \"#utility.yul\":17988:18010   */\n      tag_382\n        /* \"#utility.yul\":18006:18009   */\n      dup6\n        /* \"#utility.yul\":17988:18010   */\n      tag_173\n      jump\t// in\n    tag_382:\n        /* \"#utility.yul\":17978:17986   */\n      dup4\n        /* \"#utility.yul\":17974:18011   */\n      add\n        /* \"#utility.yul\":17961:17972   */\n      dup3\n        /* \"#utility.yul\":17932:18012   */\n      tag_182\n      jump\t// in\n    tag_381:\n        /* \"#utility.yul\":17591:18022   */\n      pop\n      pop\n        /* \"#utility.yul\":17576:18022   */\n    tag_377:\n        /* \"#utility.yul\":17486:18029   */\n      pop\n      pop\n      pop\n      jump\t// out\n        /* \"#utility.yul\":18035:18152   */\n    tag_184:\n        /* \"#utility.yul\":18089:18097   */\n      0x00\n        /* \"#utility.yul\":18139:18144   */\n      dup3\n        /* \"#utility.yul\":18133:18137   */\n      dup3\n        /* \"#utility.yul\":18129:18145   */\n      shr\n        /* \"#utility.yul\":18108:18145   */\n      swap1\n      pop\n        /* \"#utility.yul\":18035:18152   */\n      swap3\n      swap2\n      pop\n      pop\n      jump\t// out\n        /* \"#utility.yul\":18158:18327   */\n    tag_185:\n        /* \"#utility.yul\":18202:18208   */\n      0x00\n        /* \"#utility.yul\":18235:18286   */\n      tag_385\n        /* \"#utility.yul\":18283:18284   */\n      0x00\n        /* \"#utility.yul\":18279:18285   */\n      not\n        /* \"#utility.yul\":18271:18276   */\n      dup5\n        /* \"#utility.yul\":18268:18269   */\n      0x08\n        /* \"#utility.yul\":18264:18277   */\n      mul\n        /* \"#utility.yul\":18235:18286   */\n      tag_184\n      jump\t// in\n    tag_385:\n        /* \"#utility.yul\":18231:18287   */\n      not\n        /* \"#utility.yul\":18316:18320   */\n      dup1\n        /* \"#utility.yul\":18310:18314   */\n      dup4\n        /* \"#utility.yul\":18306:18321   */\n      and\n        /* \"#utility.yul\":18296:18321   */\n      swap2\n      pop\n        /* \"#utility.yul\":18209:18327   */\n      pop\n        /* \"#utility.yul\":18158:18327   */\n      swap3\n      swap2\n      pop\n      pop\n      jump\t// out\n        /* \"#utility.yul\":18332:18627   */\n    tag_186:\n        /* \"#utility.yul\":18408:18412   */\n      0x00\n        /* \"#utility.yul\":18554:18583   */\n      tag_387\n        /* \"#utility.yul\":18579:18582   */\n      dup4\n        /* \"#utility.yul\":18573:18577   */\n      dup4\n        /* \"#utility.yul\":18554:18583   */\n      tag_185\n      jump\t// in\n    tag_387:\n        /* \"#utility.yul\":18546:18583   */\n      swap2\n      pop\n        /* \"#utility.yul\":18616:18619   */\n      dup3\n        /* \"#utility.yul\":18613:18614   */\n      0x02\n        /* \"#utility.yul\":18609:18620   */\n      mul\n        /* \"#utility.yul\":18603:18607   */\n      dup3\n        /* \"#utility.yul\":18600:18621   */\n      or\n        /* \"#utility.yul\":18592:18621   */\n      swap1\n      pop\n        /* \"#utility.yul\":18332:18627   */\n      swap3\n      swap2\n      pop\n      pop\n      jump\t// out\n        /* \"#utility.yul\":18632:20027   */\n    tag_112:\n        /* \"#utility.yul\":18749:18786   */\n      tag_389\n        /* \"#utility.yul\":18782:18785   */\n      dup3\n        /* \"#utility.yul\":18749:18786   */\n      tag_150\n      jump\t// in\n    tag_389:\n        /* \"#utility.yul\":18851:18869   */\n      0xffffffffffffffff\n        /* \"#utility.yul\":18843:18849   */\n      dup2\n        /* \"#utility.yul\":18840:18870   */\n      gt\n        /* \"#utility.yul\":18837:18893   */\n      iszero\n      tag_390\n      jumpi\n        /* \"#utility.yul\":18873:18891   */\n      tag_391\n      tag_143\n      jump\t// in\n    tag_391:\n        /* \"#utility.yul\":18837:18893   */\n    tag_390:\n        /* \"#utility.yul\":18917:18955   */\n      tag_392\n        /* \"#utility.yul\":18949:18953   */\n      dup3\n        /* \"#utility.yul\":18943:18954   */\n      sload\n        /* \"#utility.yul\":18917:18955   */\n      tag_73\n      jump\t// in\n    tag_392:\n        /* \"#utility.yul\":19002:19069   */\n      tag_393\n        /* \"#utility.yul\":19062:19068   */\n      dup3\n        /* \"#utility.yul\":19054:19060   */\n      dup3\n        /* \"#utility.yul\":19048:19052   */\n      dup6\n        /* \"#utility.yul\":19002:19069   */\n      tag_183\n      jump\t// in\n    tag_393:\n        /* \"#utility.yul\":19096:19097   */\n      0x00\n        /* \"#utility.yul\":19120:19124   */\n      0x20\n        /* \"#utility.yul\":19107:19124   */\n      swap1\n      pop\n        /* \"#utility.yul\":19152:19154   */\n      0x1f\n        /* \"#utility.yul\":19144:19150   */\n      dup4\n        /* \"#utility.yul\":19141:19155   */\n      gt\n        /* \"#utility.yul\":19169:19170   */\n      0x01\n        /* \"#utility.yul\":19164:19782   */\n      dup2\n      eq\n      tag_395\n      jumpi\n        /* \"#utility.yul\":19826:19827   */\n      0x00\n        /* \"#utility.yul\":19843:19849   */\n      dup5\n        /* \"#utility.yul\":19840:19917   */\n      iszero\n      tag_396\n      jumpi\n        /* \"#utility.yul\":19892:19901   */\n      dup3\n        /* \"#utility.yul\":19887:19890   */\n      dup8\n        /* \"#utility.yul\":19883:19902   */\n      add\n        /* \"#utility.yul\":19877:19903   */\n      mload\n        /* \"#utility.yul\":19868:19903   */\n      swap1\n      pop\n        /* \"#utility.yul\":19840:19917   */\n    tag_396:\n        /* \"#utility.yul\":19943:20010   */\n      tag_397\n        /* \"#utility.yul\":20003:20009   */\n      dup6\n        /* \"#utility.yul\":19996:20001   */\n      dup3\n        /* \"#utility.yul\":19943:20010   */\n      tag_186\n      jump\t// in\n    tag_397:\n        /* \"#utility.yul\":19937:19941   */\n      dup7\n        /* \"#utility.yul\":19930:20011   */\n      sstore\n        /* \"#utility.yul\":19799:20021   */\n      pop\n        /* \"#utility.yul\":19134:20021   */\n      jump(tag_394)\n        /* \"#utility.yul\":19164:19782   */\n    tag_395:\n        /* \"#utility.yul\":19216:19220   */\n      0x1f\n        /* \"#utility.yul\":19212:19221   */\n      not\n        /* \"#utility.yul\":19204:19210   */\n      dup5\n        /* \"#utility.yul\":19200:19222   */\n      and\n        /* \"#utility.yul\":19250:19287   */\n      tag_398\n        /* \"#utility.yul\":19282:19286   */\n      dup7\n        /* \"#utility.yul\":19250:19287   */\n      tag_172\n      jump\t// in\n    tag_398:\n        /* \"#utility.yul\":19309:19310   */\n      0x00\n        /* \"#utility.yul\":19323:19531   */\n    tag_399:\n        /* \"#utility.yul\":19337:19344   */\n      dup3\n        /* \"#utility.yul\":19334:19335   */\n      dup2\n        /* \"#utility.yul\":19331:19345   */\n      lt\n        /* \"#utility.yul\":19323:19531   */\n      iszero\n      tag_401\n      jumpi\n        /* \"#utility.yul\":19416:19425   */\n      dup5\n        /* \"#utility.yul\":19411:19414   */\n      dup10\n        /* \"#utility.yul\":19407:19426   */\n      add\n        /* \"#utility.yul\":19401:19427   */\n      mload\n        /* \"#utility.yul\":19393:19399   */\n      dup3\n        /* \"#utility.yul\":19386:19428   */\n      sstore\n        /* \"#utility.yul\":19467:19468   */\n      0x01\n        /* \"#utility.yul\":19459:19465   */\n      dup3\n        /* \"#utility.yul\":19455:19469   */\n      add\n        /* \"#utility.yul\":19445:19469   */\n      swap2\n      pop\n        /* \"#utility.yul\":19514:19516   */\n      0x20\n        /* \"#utility.yul\":19503:19512   */\n      dup6\n        /* \"#utility.yul\":19499:19517   */\n      add\n        /* \"#utility.yul\":19486:19517   */\n      swap5\n      pop\n        /* \"#utility.yul\":19360:19364   */\n      0x20\n        /* \"#utility.yul\":19357:19358   */\n      dup2\n        /* \"#utility.yul\":19353:19365   */\n      add\n        /* \"#utility.yul\":19348:19365   */\n      swap1\n      pop\n        /* \"#utility.yul\":19323:19531   */\n      jump(tag_399)\n    tag_401:\n        /* \"#utility.yul\":19559:19565   */\n      dup7\n        /* \"#utility.yul\":19550:19557   */\n      dup4\n        /* \"#utility.yul\":19547:19566   */\n      lt\n        /* \"#utility.yul\":19544:19723   */\n      iszero\n      tag_402\n      jumpi\n        /* \"#utility.yul\":19617:19626   */\n      dup5\n        /* \"#utility.yul\":19612:19615   */\n      dup10\n        /* \"#utility.yul\":19608:19627   */\n      add\n        /* \"#utility.yul\":19602:19628   */\n      mload\n        /* \"#utility.yul\":19660:19708   */\n      tag_403\n        /* \"#utility.yul\":19702:19706   */\n      0x1f\n        /* \"#utility.yul\":19694:19700   */\n      dup10\n        /* \"#utility.yul\":19690:19707   */\n      and\n        /* \"#utility.yul\":19679:19688   */\n      dup3\n        /* \"#utility.yul\":19660:19708   */\n      tag_185\n      jump\t// in\n    tag_403:\n        /* \"#utility.yul\":19652:19658   */\n      dup4\n        /* \"#utility.yul\":19645:19709   */\n      sstore\n        /* \"#utility.yul\":19567:19723   */\n      pop\n        /* \"#utility.yul\":19544:19723   */\n    tag_402:\n        /* \"#utility.yul\":19769:19770   */\n      0x01\n        /* \"#utility.yul\":19765:19766   */\n      0x02\n        /* \"#utility.yul\":19757:19763   */\n      dup9\n        /* \"#utility.yul\":19753:19767   */\n      mul\n        /* \"#utility.yul\":19749:19771   */\n      add\n        /* \"#utility.yul\":19743:19747   */\n      dup9\n        /* \"#utility.yul\":19736:19772   */\n      sstore\n        /* \"#utility.yul\":19171:19782   */\n      pop\n      pop\n      pop\n        /* \"#utility.yul\":19134:20021   */\n    tag_394:\n      pop\n        /* \"#utility.yul\":18724:20027   */\n      pop\n      pop\n      pop\n        /* \"#utility.yul\":18632:20027   */\n      pop\n      pop\n      jump\t// out\n\n    auxdata: 0xa2646970667358221220cadb363e39e7cdb44164fe99eb16bd0e998b6e50d11d2e73437670f0d0b4246e64736f6c63430008160033\n}\n",
				"bytecode": {
					"linkReferences": {},
					"object": "608060405234801561000f575f80fd5b506117338061001d5f395ff3fe608060405234801561000f575f80fd5b506004361061009c575f3560e01c80639e34c134116100645780639e34c13414610169578063a0be4b1f14610199578063a1174e7d146101b5578063a9860308146101d3578063fe72ae13146102035761009c565b806311bd77fe146100a0578063189a5a17146100bc5780632a85be1e146100ed57806350f1c9851461011d57806364f0c0b814610139575b5f80fd5b6100ba60048036038101906100b59190610d21565b610233565b005b6100d660048036038101906100d19190610d5f565b610451565b6040516100e4929190610da8565b60405180910390f35b61010760048036038101906101029190610f0b565b61048f565b6040516101149190610fdf565b60405180910390f35b61013760048036038101906101329190610f0b565b610644565b005b610153600480360381019061014e9190610fff565b610777565b604051610160919061102a565b60405180910390f35b610183600480360381019061017e9190610f0b565b61088e565b6040516101909190610fdf565b60405180910390f35b6101b360048036038101906101ae9190611043565b61094c565b005b6101bd610a83565b6040516101ca9190611182565b60405180910390f35b6101ed60048036038101906101e89190610d5f565b610b0e565b6040516101fa91906111de565b60405180910390f35b61021d60048036038101906102189190610fff565b610bc2565b60405161022a919061102a565b60405180910390f35b5f73ffffffffffffffffffffffffffffffffffffffff165f808473ffffffffffffffffffffffffffffffffffffffff1673ffffffffffffffffffffffffffffffffffffffff1681526020019081526020015f205f015f9054906101000a900473ffffffffffffffffffffffffffffffffffffffff1673ffffffffffffffffffffffffffffffffffffffff16146102fe576040517f08c379a00000000000000000000000000000000000000000000000000000000081526004016102f590611241565b60405180910390fd5b60405180604001604052808373ffffffffffffffffffffffffffffffffffffffff168152602001828152505f808473ffffffffffffffffffffffffffffffffffffffff1673ffffffffffffffffffffffffffffffffffffffff1681526020019081526020015f205f820151815f015f6101000a81548173ffffffffffffffffffffffffffffffffffffffff021916908373ffffffffffffffffffffffffffffffffffffffff160217905550602082015181600101559050507f5f91b0afd2c6ef8da92137ba907bccdc85ec4856a15ad39de3e0eff02be6d70e826040516103e5919061102a565b60405180910390a1600282908060018154018082558091505060019003905f5260205f20015f9091909190916101000a81548173ffffffffffffffffffffffffffffffffffffffff021916908373ffffffffffffffffffffffffffffffffffffffff1602179055505050565b5f602052805f5260405f205f91509050805f015f9054906101000a900473ffffffffffffffffffffffffffffffffffffffff16908060010154905082565b60605f73ffffffffffffffffffffffffffffffffffffffff165f808573ffffffffffffffffffffffffffffffffffffffff1673ffffffffffffffffffffffffffffffffffffffff1681526020019081526020015f205f015f9054906101000a900473ffffffffffffffffffffffffffffffffffffffff1673ffffffffffffffffffffffffffffffffffffffff160361055c576040517f08c379a0000000000000000000000000000000000000000000000000000000008152600401610553906112a9565b60405180910390fd5b60015f8473ffffffffffffffffffffffffffffffffffffffff1673ffffffffffffffffffffffffffffffffffffffff1681526020019081526020015f20826040516105a79190611301565b908152602001604051809103902080546105c090611344565b80601f01602080910402602001604051908101604052809291908181526020018280546105ec90611344565b80156106375780601f1061060e57610100808354040283529160200191610637565b820191905f5260205f20905b81548152906001019060200180831161061a57829003601f168201915b5050505050905092915050565b5f73ffffffffffffffffffffffffffffffffffffffff165f808473ffffffffffffffffffffffffffffffffffffffff1673ffffffffffffffffffffffffffffffffffffffff1681526020019081526020015f205f015f9054906101000a900473ffffffffffffffffffffffffffffffffffffffff1673ffffffffffffffffffffffffffffffffffffffff160361070f576040517f08c379a0000000000000000000000000000000000000000000000000000000008152600401610706906112a9565b60405180910390fd5b60015f8373ffffffffffffffffffffffffffffffffffffffff1673ffffffffffffffffffffffffffffffffffffffff1681526020019081526020015f208160405161075a9190611301565b90815260200160405180910390205f6107739190610bfd565b5050565b5f8060028054905090505f603290505f8203610797575f92505050610889565b5f826001436107a691906113a1565b405f1c6107b39190611401565b90505f5b83811015610881575f60028583856107cf9190611431565b6107d99190611401565b815481106107ea576107e9611464565b5b905f5260205f20015f9054906101000a900473ffffffffffffffffffffffffffffffffffffffff16905083876108209190611431565b5f808373ffffffffffffffffffffffffffffffffffffffff1673ffffffffffffffffffffffffffffffffffffffff1681526020019081526020015f20600101541115610873578095505050505050610889565b5080806001019150506107b7565b505f93505050505b919050565b6001602052815f5260405f20818051602081018201805184825260208301602085012081835280955050505050505f915091505080546108cd90611344565b80601f01602080910402602001604051908101604052809291908181526020018280546108f990611344565b80156109445780601f1061091b57610100808354040283529160200191610944565b820191905f5260205f20905b81548152906001019060200180831161092757829003601f168201915b505050505081565b5f73ffffffffffffffffffffffffffffffffffffffff165f808573ffffffffffffffffffffffffffffffffffffffff1673ffffffffffffffffffffffffffffffffffffffff1681526020019081526020015f205f015f9054906101000a900473ffffffffffffffffffffffffffffffffffffffff1673ffffffffffffffffffffffffffffffffffffffff1603610a17576040517f08c379a0000000000000000000000000000000000000000000000000000000008152600401610a0e906112a9565b60405180910390fd5b8160015f8573ffffffffffffffffffffffffffffffffffffffff1673ffffffffffffffffffffffffffffffffffffffff1681526020019081526020015f2082604051610a639190611301565b90815260200160405180910390209081610a7d919061162e565b50505050565b60606002805480602002602001604051908101604052809291908181526020018280548015610b0457602002820191905f5260205f20905b815f9054906101000a900473ffffffffffffffffffffffffffffffffffffffff1673ffffffffffffffffffffffffffffffffffffffff1681526020019060010190808311610abb575b5050505050905090565b610b16610c3a565b5f808373ffffffffffffffffffffffffffffffffffffffff1673ffffffffffffffffffffffffffffffffffffffff1681526020019081526020015f206040518060400160405290815f82015f9054906101000a900473ffffffffffffffffffffffffffffffffffffffff1673ffffffffffffffffffffffffffffffffffffffff1673ffffffffffffffffffffffffffffffffffffffff1681526020016001820154815250509050919050565b60028181548110610bd1575f80fd5b905f5260205f20015f915054906101000a900473ffffffffffffffffffffffffffffffffffffffff1681565b508054610c0990611344565b5f825580601f10610c1a5750610c37565b601f0160209004905f5260205f2090810190610c369190610c68565b5b50565b60405180604001604052805f73ffffffffffffffffffffffffffffffffffffffff1681526020015f81525090565b5b80821115610c7f575f815f905550600101610c69565b5090565b5f604051905090565b5f80fd5b5f80fd5b5f73ffffffffffffffffffffffffffffffffffffffff82169050919050565b5f610cbd82610c94565b9050919050565b610ccd81610cb3565b8114610cd7575f80fd5b50565b5f81359050610ce881610cc4565b92915050565b5f819050919050565b610d0081610cee565b8114610d0a575f80fd5b50565b5f81359050610d1b81610cf7565b92915050565b5f8060408385031215610d3757610d36610c8c565b5b5f610d4485828601610cda565b9250506020610d5585828601610d0d565b9150509250929050565b5f60208284031215610d7457610d73610c8c565b5b5f610d8184828501610cda565b91505092915050565b610d9381610cb3565b82525050565b610da281610cee565b82525050565b5f604082019050610dbb5f830185610d8a565b610dc86020830184610d99565b9392505050565b5f80fd5b5f80fd5b5f601f19601f8301169050919050565b7f4e487b71000000000000000000000000000000000000000000000000000000005f52604160045260245ffd5b610e1d82610dd7565b810181811067ffffffffffffffff82111715610e3c57610e3b610de7565b5b80604052505050565b5f610e4e610c83565b9050610e5a8282610e14565b919050565b5f67ffffffffffffffff821115610e7957610e78610de7565b5b610e8282610dd7565b9050602081019050919050565b828183375f83830152505050565b5f610eaf610eaa84610e5f565b610e45565b905082815260208101848484011115610ecb57610eca610dd3565b5b610ed6848285610e8f565b509392505050565b5f82601f830112610ef257610ef1610dcf565b5b8135610f02848260208601610e9d565b91505092915050565b5f8060408385031215610f2157610f20610c8c565b5b5f610f2e85828601610cda565b925050602083013567ffffffffffffffff811115610f4f57610f4e610c90565b5b610f5b85828601610ede565b9150509250929050565b5f81519050919050565b5f82825260208201905092915050565b5f5b83811015610f9c578082015181840152602081019050610f81565b5f8484015250505050565b5f610fb182610f65565b610fbb8185610f6f565b9350610fcb818560208601610f7f565b610fd481610dd7565b840191505092915050565b5f6020820190508181035f830152610ff78184610fa7565b905092915050565b5f6020828403121561101457611013610c8c565b5b5f61102184828501610d0d565b91505092915050565b5f60208201905061103d5f830184610d8a565b92915050565b5f805f6060848603121561105a57611059610c8c565b5b5f61106786828701610cda565b935050602084013567ffffffffffffffff81111561108857611087610c90565b5b61109486828701610ede565b925050604084013567ffffffffffffffff8111156110b5576110b4610c90565b5b6110c186828701610ede565b9150509250925092565b5f81519050919050565b5f82825260208201905092915050565b5f819050602082019050919050565b6110fd81610cb3565b82525050565b5f61110e83836110f4565b60208301905092915050565b5f602082019050919050565b5f611130826110cb565b61113a81856110d5565b9350611145836110e5565b805f5b8381101561117557815161115c8882611103565b97506111678361111a565b925050600181019050611148565b5085935050505092915050565b5f6020820190508181035f83015261119a8184611126565b905092915050565b6111ab81610cee565b82525050565b604082015f8201516111c55f8501826110f4565b5060208201516111d860208501826111a2565b50505050565b5f6040820190506111f15f8301846111b1565b92915050565b7f4e6f646520616c726561647920657869737473000000000000000000000000005f82015250565b5f61122b601383610f6f565b9150611236826111f7565b602082019050919050565b5f6020820190508181035f8301526112588161121f565b9050919050565b7f4e6f646520646f6573206e6f74206578697374000000000000000000000000005f82015250565b5f611293601383610f6f565b915061129e8261125f565b602082019050919050565b5f6020820190508181035f8301526112c081611287565b9050919050565b5f81905092915050565b5f6112db82610f65565b6112e581856112c7565b93506112f5818560208601610f7f565b80840191505092915050565b5f61130c82846112d1565b915081905092915050565b7f4e487b71000000000000000000000000000000000000000000000000000000005f52602260045260245ffd5b5f600282049050600182168061135b57607f821691505b60208210810361136e5761136d611317565b5b50919050565b7f4e487b71000000000000000000000000000000000000000000000000000000005f52601160045260245ffd5b5f6113ab82610cee565b91506113b683610cee565b92508282039050818111156113ce576113cd611374565b5b92915050565b7f4e487b71000000000000000000000000000000000000000000000000000000005f52601260045260245ffd5b5f61140b82610cee565b915061141683610cee565b925082611426576114256113d4565b5b828206905092915050565b5f61143b82610cee565b915061144683610cee565b925082820190508082111561145e5761145d611374565b5b92915050565b7f4e487b71000000000000000000000000000000000000000000000000000000005f52603260045260245ffd5b5f819050815f5260205f209050919050565b5f6020601f8301049050919050565b5f82821b905092915050565b5f600883026114ed7fffffffffffffffffffffffffffffffffffffffffffffffffffffffffffffffff826114b2565b6114f786836114b2565b95508019841693508086168417925050509392505050565b5f819050919050565b5f61153261152d61152884610cee565b61150f565b610cee565b9050919050565b5f819050919050565b61154b83611518565b61155f61155782611539565b8484546114be565b825550505050565b5f90565b611573611567565b61157e818484611542565b505050565b5b818110156115a1576115965f8261156b565b600181019050611584565b5050565b601f8211156115e6576115b781611491565b6115c0846114a3565b810160208510156115cf578190505b6115e36115db856114a3565b830182611583565b50505b505050565b5f82821c905092915050565b5f6116065f19846008026115eb565b1980831691505092915050565b5f61161e83836115f7565b9150826002028217905092915050565b61163782610f65565b67ffffffffffffffff8111156116505761164f610de7565b5b61165a8254611344565b6116658282856115a5565b5f60209050601f831160018114611696575f8415611684578287015190505b61168e8582611613565b8655506116f5565b601f1984166116a486611491565b5f5b828110156116cb578489015182556001820191506020850194506020810190506116a6565b868310156116e857848901516116e4601f8916826115f7565b8355505b6001600288020188555050505b50505050505056fea2646970667358221220cadb363e39e7cdb44164fe99eb16bd0e998b6e50d11d2e73437670f0d0b4246e64736f6c63430008160033",
					"opcodes": "PUSH1 0x80 PUSH1 0x40 MSTORE CALLVALUE DUP1 ISZERO PUSH2 0xF JUMPI PUSH0 DUP1 REVERT JUMPDEST POP PUSH2 0x1733 DUP1 PUSH2 0x1D PUSH0 CODECOPY PUSH0 RETURN INVALID PUSH1 0x80 PUSH1 0x40 MSTORE CALLVALUE DUP1 ISZERO PUSH2 0xF JUMPI PUSH0 DUP1 REVERT JUMPDEST POP PUSH1 0x4 CALLDATASIZE LT PUSH2 0x9C JUMPI PUSH0 CALLDATALOAD PUSH1 0xE0 SHR DUP1 PUSH4 0x9E34C134 GT PUSH2 0x64 JUMPI DUP1 PUSH4 0x9E34C134 EQ PUSH2 0x169 JUMPI DUP1 PUSH4 0xA0BE4B1F EQ PUSH2 0x199 JUMPI DUP1 PUSH4 0xA1174E7D EQ PUSH2 0x1B5 JUMPI DUP1 PUSH4 0xA9860308 EQ PUSH2 0x1D3 JUMPI DUP1 PUSH4 0xFE72AE13 EQ PUSH2 0x203 JUMPI PUSH2 0x9C JUMP JUMPDEST DUP1 PUSH4 0x11BD77FE EQ PUSH2 0xA0 JUMPI DUP1 PUSH4 0x189A5A17 EQ PUSH2 0xBC JUMPI DUP1 PUSH4 0x2A85BE1E EQ PUSH2 0xED JUMPI DUP1 PUSH4 0x50F1C985 EQ PUSH2 0x11D JUMPI DUP1 PUSH4 0x64F0C0B8 EQ PUSH2 0x139 JUMPI JUMPDEST PUSH0 DUP1 REVERT JUMPDEST PUSH2 0xBA PUSH1 0x4 DUP1 CALLDATASIZE SUB DUP2 ADD SWAP1 PUSH2 0xB5 SWAP2 SWAP1 PUSH2 0xD21 JUMP JUMPDEST PUSH2 0x233 JUMP JUMPDEST STOP JUMPDEST PUSH2 0xD6 PUSH1 0x4 DUP1 CALLDATASIZE SUB DUP2 ADD SWAP1 PUSH2 0xD1 SWAP2 SWAP1 PUSH2 0xD5F JUMP JUMPDEST PUSH2 0x451 JUMP JUMPDEST PUSH1 0x40 MLOAD PUSH2 0xE4 SWAP3 SWAP2 SWAP1 PUSH2 0xDA8 JUMP JUMPDEST PUSH1 0x40 MLOAD DUP1 SWAP2 SUB SWAP1 RETURN JUMPDEST PUSH2 0x107 PUSH1 0x4 DUP1 CALLDATASIZE SUB DUP2 ADD SWAP1 PUSH2 0x102 SWAP2 SWAP1 PUSH2 0xF0B JUMP JUMPDEST PUSH2 0x48F JUMP JUMPDEST PUSH1 0x40 MLOAD PUSH2 0x114 SWAP2 SWAP1 PUSH2 0xFDF JUMP JUMPDEST PUSH1 0x40 MLOAD DUP1 SWAP2 SUB SWAP1 RETURN JUMPDEST PUSH2 0x137 PUSH1 0x4 DUP1 CALLDATASIZE SUB DUP2 ADD SWAP1 PUSH2 0x132 SWAP2 SWAP1 PUSH2 0xF0B JUMP JUMPDEST PUSH2 0x644 JUMP JUMPDEST STOP JUMPDEST PUSH2 0x153 PUSH1 0x4 DUP1 CALLDATASIZE SUB DUP2 ADD SWAP1 PUSH2 0x14E SWAP2 SWAP1 PUSH2 0xFFF JUMP JUMPDEST PUSH2 0x777 JUMP JUMPDEST PUSH1 0x40 MLOAD PUSH2 0x160 SWAP2 SWAP1 PUSH2 0x102A JUMP JUMPDEST PUSH1 0x40 MLOAD DUP1 SWAP2 SUB SWAP1 RETURN JUMPDEST PUSH2 0x183 PUSH1 0x4 DUP1 CALLDATASIZE SUB DUP2 ADD SWAP1 PUSH2 0x17E SWAP2 SWAP1 PUSH2 0xF0B JUMP JUMPDEST PUSH2 0x88E JUMP JUMPDEST PUSH1 0x40 MLOAD PUSH2 0x190 SWAP2 SWAP1 PUSH2 0xFDF JUMP JUMPDEST PUSH1 0x40 MLOAD DUP1 SWAP2 SUB SWAP1 RETURN JUMPDEST PUSH2 0x1B3 PUSH1 0x4 DUP1 CALLDATASIZE SUB DUP2 ADD SWAP1 PUSH2 0x1AE SWAP2 SWAP1 PUSH2 0x1043 JUMP JUMPDEST PUSH2 0x94C JUMP JUMPDEST STOP JUMPDEST PUSH2 0x1BD PUSH2 0xA83 JUMP JUMPDEST PUSH1 0x40 MLOAD PUSH2 0x1CA SWAP2 SWAP1 PUSH2 0x1182 JUMP JUMPDEST PUSH1 0x40 MLOAD DUP1 SWAP2 SUB SWAP1 RETURN JUMPDEST PUSH2 0x1ED PUSH1 0x4 DUP1 CALLDATASIZE SUB DUP2 ADD SWAP1 PUSH2 0x1E8 SWAP2 SWAP1 PUSH2 0xD5F JUMP JUMPDEST PUSH2 0xB0E JUMP JUMPDEST PUSH1 0x40 MLOAD PUSH2 0x1FA SWAP2 SWAP1 PUSH2 0x11DE JUMP JUMPDEST PUSH1 0x40 MLOAD DUP1 SWAP2 SUB SWAP1 RETURN JUMPDEST PUSH2 0x21D PUSH1 0x4 DUP1 CALLDATASIZE SUB DUP2 ADD SWAP1 PUSH2 0x218 SWAP2 SWAP1 PUSH2 0xFFF JUMP JUMPDEST PUSH2 0xBC2 JUMP JUMPDEST PUSH1 0x40 MLOAD PUSH2 0x22A SWAP2 SWAP1 PUSH2 0x102A JUMP JUMPDEST PUSH1 0x40 MLOAD DUP1 SWAP2 SUB SWAP1 RETURN JUMPDEST PUSH0 PUSH20 0xFFFFFFFFFFFFFFFFFFFFFFFFFFFFFFFFFFFFFFFF AND PUSH0 DUP1 DUP5 PUSH20 0xFFFFFFFFFFFFFFFFFFFFFFFFFFFFFFFFFFFFFFFF AND PUSH20 0xFFFFFFFFFFFFFFFFFFFFFFFFFFFFFFFFFFFFFFFF AND DUP2 MSTORE PUSH1 0x20 ADD SWAP1 DUP2 MSTORE PUSH1 0x20 ADD PUSH0 KECCAK256 PUSH0 ADD PUSH0 SWAP1 SLOAD SWAP1 PUSH2 0x100 EXP SWAP1 DIV PUSH20 0xFFFFFFFFFFFFFFFFFFFFFFFFFFFFFFFFFFFFFFFF AND PUSH20 0xFFFFFFFFFFFFFFFFFFFFFFFFFFFFFFFFFFFFFFFF AND EQ PUSH2 0x2FE JUMPI PUSH1 0x40 MLOAD PUSH32 0x8C379A000000000000000000000000000000000000000000000000000000000 DUP2 MSTORE PUSH1 0x4 ADD PUSH2 0x2F5 SWAP1 PUSH2 0x1241 JUMP JUMPDEST PUSH1 0x40 MLOAD DUP1 SWAP2 SUB SWAP1 REVERT JUMPDEST PUSH1 0x40 MLOAD DUP1 PUSH1 0x40 ADD PUSH1 0x40 MSTORE DUP1 DUP4 PUSH20 0xFFFFFFFFFFFFFFFFFFFFFFFFFFFFFFFFFFFFFFFF AND DUP2 MSTORE PUSH1 0x20 ADD DUP3 DUP2 MSTORE POP PUSH0 DUP1 DUP5 PUSH20 0xFFFFFFFFFFFFFFFFFFFFFFFFFFFFFFFFFFFFFFFF AND PUSH20 0xFFFFFFFFFFFFFFFFFFFFFFFFFFFFFFFFFFFFFFFF AND DUP2 MSTORE PUSH1 0x20 ADD SWAP1 DUP2 MSTORE PUSH1 0x20 ADD PUSH0 KECCAK256 PUSH0 DUP3 ADD MLOAD DUP2 PUSH0 ADD PUSH0 PUSH2 0x100 EXP DUP2 SLOAD DUP2 PUSH20 0xFFFFFFFFFFFFFFFFFFFFFFFFFFFFFFFFFFFFFFFF MUL NOT AND SWAP1 DUP4 PUSH20 0xFFFFFFFFFFFFFFFFFFFFFFFFFFFFFFFFFFFFFFFF AND MUL OR SWAP1 SSTORE POP PUSH1 0x20 DUP3 ADD MLOAD DUP2 PUSH1 0x1 ADD SSTORE SWAP1 POP POP PUSH32 0x5F91B0AFD2C6EF8DA92137BA907BCCDC85EC4856A15AD39DE3E0EFF02BE6D70E DUP3 PUSH1 0x40 MLOAD PUSH2 0x3E5 SWAP2 SWAP1 PUSH2 0x102A JUMP JUMPDEST PUSH1 0x40 MLOAD DUP1 SWAP2 SUB SWAP1 LOG1 PUSH1 0x2 DUP3 SWAP1 DUP1 PUSH1 0x1 DUP2 SLOAD ADD DUP1 DUP3 SSTORE DUP1 SWAP2 POP POP PUSH1 0x1 SWAP1 SUB SWAP1 PUSH0 MSTORE PUSH1 0x20 PUSH0 KECCAK256 ADD PUSH0 SWAP1 SWAP2 SWAP1 SWAP2 SWAP1 SWAP2 PUSH2 0x100 EXP DUP2 SLOAD DUP2 PUSH20 0xFFFFFFFFFFFFFFFFFFFFFFFFFFFFFFFFFFFFFFFF MUL NOT AND SWAP1 DUP4 PUSH20 0xFFFFFFFFFFFFFFFFFFFFFFFFFFFFFFFFFFFFFFFF AND MUL OR SWAP1 SSTORE POP POP POP JUMP JUMPDEST PUSH0 PUSH1 0x20 MSTORE DUP1 PUSH0 MSTORE PUSH1 0x40 PUSH0 KECCAK256 PUSH0 SWAP2 POP SWAP1 POP DUP1 PUSH0 ADD PUSH0 SWAP1 SLOAD SWAP1 PUSH2 0x100 EXP SWAP1 DIV PUSH20 0xFFFFFFFFFFFFFFFFFFFFFFFFFFFFFFFFFFFFFFFF AND SWAP1 DUP1 PUSH1 0x1 ADD SLOAD SWAP1 POP DUP3 JUMP JUMPDEST PUSH1 0x60 PUSH0 PUSH20 0xFFFFFFFFFFFFFFFFFFFFFFFFFFFFFFFFFFFFFFFF AND PUSH0 DUP1 DUP6 PUSH20 0xFFFFFFFFFFFFFFFFFFFFFFFFFFFFFFFFFFFFFFFF AND PUSH20 0xFFFFFFFFFFFFFFFFFFFFFFFFFFFFFFFFFFFFFFFF AND DUP2 MSTORE PUSH1 0x20 ADD SWAP1 DUP2 MSTORE PUSH1 0x20 ADD PUSH0 KECCAK256 PUSH0 ADD PUSH0 SWAP1 SLOAD SWAP1 PUSH2 0x100 EXP SWAP1 DIV PUSH20 0xFFFFFFFFFFFFFFFFFFFFFFFFFFFFFFFFFFFFFFFF AND PUSH20 0xFFFFFFFFFFFFFFFFFFFFFFFFFFFFFFFFFFFFFFFF AND SUB PUSH2 0x55C JUMPI PUSH1 0x40 MLOAD PUSH32 0x8C379A000000000000000000000000000000000000000000000000000000000 DUP2 MSTORE PUSH1 0x4 ADD PUSH2 0x553 SWAP1 PUSH2 0x12A9 JUMP JUMPDEST PUSH1 0x40 MLOAD DUP1 SWAP2 SUB SWAP1 REVERT JUMPDEST PUSH1 0x1 PUSH0 DUP5 PUSH20 0xFFFFFFFFFFFFFFFFFFFFFFFFFFFFFFFFFFFFFFFF AND PUSH20 0xFFFFFFFFFFFFFFFFFFFFFFFFFFFFFFFFFFFFFFFF AND DUP2 MSTORE PUSH1 0x20 ADD SWAP1 DUP2 MSTORE PUSH1 0x20 ADD PUSH0 KECCAK256 DUP3 PUSH1 0x40 MLOAD PUSH2 0x5A7 SWAP2 SWAP1 PUSH2 0x1301 JUMP JUMPDEST SWAP1 DUP2 MSTORE PUSH1 0x20 ADD PUSH1 0x40 MLOAD DUP1 SWAP2 SUB SWAP1 KECCAK256 DUP1 SLOAD PUSH2 0x5C0 SWAP1 PUSH2 0x1344 JUMP JUMPDEST DUP1 PUSH1 0x1F ADD PUSH1 0x20 DUP1 SWAP2 DIV MUL PUSH1 0x20 ADD PUSH1 0x40 MLOAD SWAP1 DUP2 ADD PUSH1 0x40 MSTORE DUP1 SWAP3 SWAP2 SWAP1 DUP2 DUP2 MSTORE PUSH1 0x20 ADD DUP3 DUP1 SLOAD PUSH2 0x5EC SWAP1 PUSH2 0x1344 JUMP JUMPDEST DUP1 ISZERO PUSH2 0x637 JUMPI DUP1 PUSH1 0x1F LT PUSH2 0x60E JUMPI PUSH2 0x100 DUP1 DUP4 SLOAD DIV MUL DUP4 MSTORE SWAP2 PUSH1 0x20 ADD SWAP2 PUSH2 0x637 JUMP JUMPDEST DUP3 ADD SWAP2 SWAP1 PUSH0 MSTORE PUSH1 0x20 PUSH0 KECCAK256 SWAP1 JUMPDEST DUP2 SLOAD DUP2 MSTORE SWAP1 PUSH1 0x1 ADD SWAP1 PUSH1 0x20 ADD DUP1 DUP4 GT PUSH2 0x61A JUMPI DUP3 SWAP1 SUB PUSH1 0x1F AND DUP3 ADD SWAP2 JUMPDEST POP POP POP POP POP SWAP1 POP SWAP3 SWAP2 POP POP JUMP JUMPDEST PUSH0 PUSH20 0xFFFFFFFFFFFFFFFFFFFFFFFFFFFFFFFFFFFFFFFF AND PUSH0 DUP1 DUP5 PUSH20 0xFFFFFFFFFFFFFFFFFFFFFFFFFFFFFFFFFFFFFFFF AND PUSH20 0xFFFFFFFFFFFFFFFFFFFFFFFFFFFFFFFFFFFFFFFF AND DUP2 MSTORE PUSH1 0x20 ADD SWAP1 DUP2 MSTORE PUSH1 0x20 ADD PUSH0 KECCAK256 PUSH0 ADD PUSH0 SWAP1 SLOAD SWAP1 PUSH2 0x100 EXP SWAP1 DIV PUSH20 0xFFFFFFFFFFFFFFFFFFFFFFFFFFFFFFFFFFFFFFFF AND PUSH20 0xFFFFFFFFFFFFFFFFFFFFFFFFFFFFFFFFFFFFFFFF AND SUB PUSH2 0x70F JUMPI PUSH1 0x40 MLOAD PUSH32 0x8C379A000000000000000000000000000000000000000000000000000000000 DUP2 MSTORE PUSH1 0x4 ADD PUSH2 0x706 SWAP1 PUSH2 0x12A9 JUMP JUMPDEST PUSH1 0x40 MLOAD DUP1 SWAP2 SUB SWAP1 REVERT JUMPDEST PUSH1 0x1 PUSH0 DUP4 PUSH20 0xFFFFFFFFFFFFFFFFFFFFFFFFFFFFFFFFFFFFFFFF AND PUSH20 0xFFFFFFFFFFFFFFFFFFFFFFFFFFFFFFFFFFFFFFFF AND DUP2 MSTORE PUSH1 0x20 ADD SWAP1 DUP2 MSTORE PUSH1 0x20 ADD PUSH0 KECCAK256 DUP2 PUSH1 0x40 MLOAD PUSH2 0x75A SWAP2 SWAP1 PUSH2 0x1301 JUMP JUMPDEST SWAP1 DUP2 MSTORE PUSH1 0x20 ADD PUSH1 0x40 MLOAD DUP1 SWAP2 SUB SWAP1 KECCAK256 PUSH0 PUSH2 0x773 SWAP2 SWAP1 PUSH2 0xBFD JUMP JUMPDEST POP POP JUMP JUMPDEST PUSH0 DUP1 PUSH1 0x2 DUP1 SLOAD SWAP1 POP SWAP1 POP PUSH0 PUSH1 0x32 SWAP1 POP PUSH0 DUP3 SUB PUSH2 0x797 JUMPI PUSH0 SWAP3 POP POP POP PUSH2 0x889 JUMP JUMPDEST PUSH0 DUP3 PUSH1 0x1 NUMBER PUSH2 0x7A6 SWAP2 SWAP1 PUSH2 0x13A1 JUMP JUMPDEST BLOCKHASH PUSH0 SHR PUSH2 0x7B3 SWAP2 SWAP1 PUSH2 0x1401 JUMP JUMPDEST SWAP1 POP PUSH0 JUMPDEST DUP4 DUP2 LT ISZERO PUSH2 0x881 JUMPI PUSH0 PUSH1 0x2 DUP6 DUP4 DUP6 PUSH2 0x7CF SWAP2 SWAP1 PUSH2 0x1431 JUMP JUMPDEST PUSH2 0x7D9 SWAP2 SWAP1 PUSH2 0x1401 JUMP JUMPDEST DUP2 SLOAD DUP2 LT PUSH2 0x7EA JUMPI PUSH2 0x7E9 PUSH2 0x1464 JUMP JUMPDEST JUMPDEST SWAP1 PUSH0 MSTORE PUSH1 0x20 PUSH0 KECCAK256 ADD PUSH0 SWAP1 SLOAD SWAP1 PUSH2 0x100 EXP SWAP1 DIV PUSH20 0xFFFFFFFFFFFFFFFFFFFFFFFFFFFFFFFFFFFFFFFF AND SWAP1 POP DUP4 DUP8 PUSH2 0x820 SWAP2 SWAP1 PUSH2 0x1431 JUMP JUMPDEST PUSH0 DUP1 DUP4 PUSH20 0xFFFFFFFFFFFFFFFFFFFFFFFFFFFFFFFFFFFFFFFF AND PUSH20 0xFFFFFFFFFFFFFFFFFFFFFFFFFFFFFFFFFFFFFFFF AND DUP2 MSTORE PUSH1 0x20 ADD SWAP1 DUP2 MSTORE PUSH1 0x20 ADD PUSH0 KECCAK256 PUSH1 0x1 ADD SLOAD GT ISZERO PUSH2 0x873 JUMPI DUP1 SWAP6 POP POP POP POP POP POP PUSH2 0x889 JUMP JUMPDEST POP DUP1 DUP1 PUSH1 0x1 ADD SWAP2 POP POP PUSH2 0x7B7 JUMP JUMPDEST POP PUSH0 SWAP4 POP POP POP POP JUMPDEST SWAP2 SWAP1 POP JUMP JUMPDEST PUSH1 0x1 PUSH1 0x20 MSTORE DUP2 PUSH0 MSTORE PUSH1 0x40 PUSH0 KECCAK256 DUP2 DUP1 MLOAD PUSH1 0x20 DUP2 ADD DUP3 ADD DUP1 MLOAD DUP5 DUP3 MSTORE PUSH1 0x20 DUP4 ADD PUSH1 0x20 DUP6 ADD KECCAK256 DUP2 DUP4 MSTORE DUP1 SWAP6 POP POP POP POP POP POP PUSH0 SWAP2 POP SWAP2 POP POP DUP1 SLOAD PUSH2 0x8CD SWAP1 PUSH2 0x1344 JUMP JUMPDEST DUP1 PUSH1 0x1F ADD PUSH1 0x20 DUP1 SWAP2 DIV MUL PUSH1 0x20 ADD PUSH1 0x40 MLOAD SWAP1 DUP2 ADD PUSH1 0x40 MSTORE DUP1 SWAP3 SWAP2 SWAP1 DUP2 DUP2 MSTORE PUSH1 0x20 ADD DUP3 DUP1 SLOAD PUSH2 0x8F9 SWAP1 PUSH2 0x1344 JUMP JUMPDEST DUP1 ISZERO PUSH2 0x944 JUMPI DUP1 PUSH1 0x1F LT PUSH2 0x91B JUMPI PUSH2 0x100 DUP1 DUP4 SLOAD DIV MUL DUP4 MSTORE SWAP2 PUSH1 0x20 ADD SWAP2 PUSH2 0x944 JUMP JUMPDEST DUP3 ADD SWAP2 SWAP1 PUSH0 MSTORE PUSH1 0x20 PUSH0 KECCAK256 SWAP1 JUMPDEST DUP2 SLOAD DUP2 MSTORE SWAP1 PUSH1 0x1 ADD SWAP1 PUSH1 0x20 ADD DUP1 DUP4 GT PUSH2 0x927 JUMPI DUP3 SWAP1 SUB PUSH1 0x1F AND DUP3 ADD SWAP2 JUMPDEST POP POP POP POP POP DUP2 JUMP JUMPDEST PUSH0 PUSH20 0xFFFFFFFFFFFFFFFFFFFFFFFFFFFFFFFFFFFFFFFF AND PUSH0 DUP1 DUP6 PUSH20 0xFFFFFFFFFFFFFFFFFFFFFFFFFFFFFFFFFFFFFFFF AND PUSH20 0xFFFFFFFFFFFFFFFFFFFFFFFFFFFFFFFFFFFFFFFF AND DUP2 MSTORE PUSH1 0x20 ADD SWAP1 DUP2 MSTORE PUSH1 0x20 ADD PUSH0 KECCAK256 PUSH0 ADD PUSH0 SWAP1 SLOAD SWAP1 PUSH2 0x100 EXP SWAP1 DIV PUSH20 0xFFFFFFFFFFFFFFFFFFFFFFFFFFFFFFFFFFFFFFFF AND PUSH20 0xFFFFFFFFFFFFFFFFFFFFFFFFFFFFFFFFFFFFFFFF AND SUB PUSH2 0xA17 JUMPI PUSH1 0x40 MLOAD PUSH32 0x8C379A000000000000000000000000000000000000000000000000000000000 DUP2 MSTORE PUSH1 0x4 ADD PUSH2 0xA0E SWAP1 PUSH2 0x12A9 JUMP JUMPDEST PUSH1 0x40 MLOAD DUP1 SWAP2 SUB SWAP1 REVERT JUMPDEST DUP2 PUSH1 0x1 PUSH0 DUP6 PUSH20 0xFFFFFFFFFFFFFFFFFFFFFFFFFFFFFFFFFFFFFFFF AND PUSH20 0xFFFFFFFFFFFFFFFFFFFFFFFFFFFFFFFFFFFFFFFF AND DUP2 MSTORE PUSH1 0x20 ADD SWAP1 DUP2 MSTORE PUSH1 0x20 ADD PUSH0 KECCAK256 DUP3 PUSH1 0x40 MLOAD PUSH2 0xA63 SWAP2 SWAP1 PUSH2 0x1301 JUMP JUMPDEST SWAP1 DUP2 MSTORE PUSH1 0x20 ADD PUSH1 0x40 MLOAD DUP1 SWAP2 SUB SWAP1 KECCAK256 SWAP1 DUP2 PUSH2 0xA7D SWAP2 SWAP1 PUSH2 0x162E JUMP JUMPDEST POP POP POP POP JUMP JUMPDEST PUSH1 0x60 PUSH1 0x2 DUP1 SLOAD DUP1 PUSH1 0x20 MUL PUSH1 0x20 ADD PUSH1 0x40 MLOAD SWAP1 DUP2 ADD PUSH1 0x40 MSTORE DUP1 SWAP3 SWAP2 SWAP1 DUP2 DUP2 MSTORE PUSH1 0x20 ADD DUP3 DUP1 SLOAD DUP1 ISZERO PUSH2 0xB04 JUMPI PUSH1 0x20 MUL DUP3 ADD SWAP2 SWAP1 PUSH0 MSTORE PUSH1 0x20 PUSH0 KECCAK256 SWAP1 JUMPDEST DUP2 PUSH0 SWAP1 SLOAD SWAP1 PUSH2 0x100 EXP SWAP1 DIV PUSH20 0xFFFFFFFFFFFFFFFFFFFFFFFFFFFFFFFFFFFFFFFF AND PUSH20 0xFFFFFFFFFFFFFFFFFFFFFFFFFFFFFFFFFFFFFFFF AND DUP2 MSTORE PUSH1 0x20 ADD SWAP1 PUSH1 0x1 ADD SWAP1 DUP1 DUP4 GT PUSH2 0xABB JUMPI JUMPDEST POP POP POP POP POP SWAP1 POP SWAP1 JUMP JUMPDEST PUSH2 0xB16 PUSH2 0xC3A JUMP JUMPDEST PUSH0 DUP1 DUP4 PUSH20 0xFFFFFFFFFFFFFFFFFFFFFFFFFFFFFFFFFFFFFFFF AND PUSH20 0xFFFFFFFFFFFFFFFFFFFFFFFFFFFFFFFFFFFFFFFF AND DUP2 MSTORE PUSH1 0x20 ADD SWAP1 DUP2 MSTORE PUSH1 0x20 ADD PUSH0 KECCAK256 PUSH1 0x40 MLOAD DUP1 PUSH1 0x40 ADD PUSH1 0x40 MSTORE SWAP1 DUP2 PUSH0 DUP3 ADD PUSH0 SWAP1 SLOAD SWAP1 PUSH2 0x100 EXP SWAP1 DIV PUSH20 0xFFFFFFFFFFFFFFFFFFFFFFFFFFFFFFFFFFFFFFFF AND PUSH20 0xFFFFFFFFFFFFFFFFFFFFFFFFFFFFFFFFFFFFFFFF AND PUSH20 0xFFFFFFFFFFFFFFFFFFFFFFFFFFFFFFFFFFFFFFFF AND DUP2 MSTORE PUSH1 0x20 ADD PUSH1 0x1 DUP3 ADD SLOAD DUP2 MSTORE POP POP SWAP1 POP SWAP2 SWAP1 POP JUMP JUMPDEST PUSH1 0x2 DUP2 DUP2 SLOAD DUP2 LT PUSH2 0xBD1 JUMPI PUSH0 DUP1 REVERT JUMPDEST SWAP1 PUSH0 MSTORE PUSH1 0x20 PUSH0 KECCAK256 ADD PUSH0 SWAP2 POP SLOAD SWAP1 PUSH2 0x100 EXP SWAP1 DIV PUSH20 0xFFFFFFFFFFFFFFFFFFFFFFFFFFFFFFFFFFFFFFFF AND DUP2 JUMP JUMPDEST POP DUP1 SLOAD PUSH2 0xC09 SWAP1 PUSH2 0x1344 JUMP JUMPDEST PUSH0 DUP3 SSTORE DUP1 PUSH1 0x1F LT PUSH2 0xC1A JUMPI POP PUSH2 0xC37 JUMP JUMPDEST PUSH1 0x1F ADD PUSH1 0x20 SWAP1 DIV SWAP1 PUSH0 MSTORE PUSH1 0x20 PUSH0 KECCAK256 SWAP1 DUP2 ADD SWAP1 PUSH2 0xC36 SWAP2 SWAP1 PUSH2 0xC68 JUMP JUMPDEST JUMPDEST POP JUMP JUMPDEST PUSH1 0x40 MLOAD DUP1 PUSH1 0x40 ADD PUSH1 0x40 MSTORE DUP1 PUSH0 PUSH20 0xFFFFFFFFFFFFFFFFFFFFFFFFFFFFFFFFFFFFFFFF AND DUP2 MSTORE PUSH1 0x20 ADD PUSH0 DUP2 MSTORE POP SWAP1 JUMP JUMPDEST JUMPDEST DUP1 DUP3 GT ISZERO PUSH2 0xC7F JUMPI PUSH0 DUP2 PUSH0 SWAP1 SSTORE POP PUSH1 0x1 ADD PUSH2 0xC69 JUMP JUMPDEST POP SWAP1 JUMP JUMPDEST PUSH0 PUSH1 0x40 MLOAD SWAP1 POP SWAP1 JUMP JUMPDEST PUSH0 DUP1 REVERT JUMPDEST PUSH0 DUP1 REVERT JUMPDEST PUSH0 PUSH20 0xFFFFFFFFFFFFFFFFFFFFFFFFFFFFFFFFFFFFFFFF DUP3 AND SWAP1 POP SWAP2 SWAP1 POP JUMP JUMPDEST PUSH0 PUSH2 0xCBD DUP3 PUSH2 0xC94 JUMP JUMPDEST SWAP1 POP SWAP2 SWAP1 POP JUMP JUMPDEST PUSH2 0xCCD DUP2 PUSH2 0xCB3 JUMP JUMPDEST DUP2 EQ PUSH2 0xCD7 JUMPI PUSH0 DUP1 REVERT JUMPDEST POP JUMP JUMPDEST PUSH0 DUP2 CALLDATALOAD SWAP1 POP PUSH2 0xCE8 DUP2 PUSH2 0xCC4 JUMP JUMPDEST SWAP3 SWAP2 POP POP JUMP JUMPDEST PUSH0 DUP2 SWAP1 POP SWAP2 SWAP1 POP JUMP JUMPDEST PUSH2 0xD00 DUP2 PUSH2 0xCEE JUMP JUMPDEST DUP2 EQ PUSH2 0xD0A JUMPI PUSH0 DUP1 REVERT JUMPDEST POP JUMP JUMPDEST PUSH0 DUP2 CALLDATALOAD SWAP1 POP PUSH2 0xD1B DUP2 PUSH2 0xCF7 JUMP JUMPDEST SWAP3 SWAP2 POP POP JUMP JUMPDEST PUSH0 DUP1 PUSH1 0x40 DUP4 DUP6 SUB SLT ISZERO PUSH2 0xD37 JUMPI PUSH2 0xD36 PUSH2 0xC8C JUMP JUMPDEST JUMPDEST PUSH0 PUSH2 0xD44 DUP6 DUP3 DUP7 ADD PUSH2 0xCDA JUMP JUMPDEST SWAP3 POP POP PUSH1 0x20 PUSH2 0xD55 DUP6 DUP3 DUP7 ADD PUSH2 0xD0D JUMP JUMPDEST SWAP2 POP POP SWAP3 POP SWAP3 SWAP1 POP JUMP JUMPDEST PUSH0 PUSH1 0x20 DUP3 DUP5 SUB SLT ISZERO PUSH2 0xD74 JUMPI PUSH2 0xD73 PUSH2 0xC8C JUMP JUMPDEST JUMPDEST PUSH0 PUSH2 0xD81 DUP5 DUP3 DUP6 ADD PUSH2 0xCDA JUMP JUMPDEST SWAP2 POP POP SWAP3 SWAP2 POP POP JUMP JUMPDEST PUSH2 0xD93 DUP2 PUSH2 0xCB3 JUMP JUMPDEST DUP3 MSTORE POP POP JUMP JUMPDEST PUSH2 0xDA2 DUP2 PUSH2 0xCEE JUMP JUMPDEST DUP3 MSTORE POP POP JUMP JUMPDEST PUSH0 PUSH1 0x40 DUP3 ADD SWAP1 POP PUSH2 0xDBB PUSH0 DUP4 ADD DUP6 PUSH2 0xD8A JUMP JUMPDEST PUSH2 0xDC8 PUSH1 0x20 DUP4 ADD DUP5 PUSH2 0xD99 JUMP JUMPDEST SWAP4 SWAP3 POP POP POP JUMP JUMPDEST PUSH0 DUP1 REVERT JUMPDEST PUSH0 DUP1 REVERT JUMPDEST PUSH0 PUSH1 0x1F NOT PUSH1 0x1F DUP4 ADD AND SWAP1 POP SWAP2 SWAP1 POP JUMP JUMPDEST PUSH32 0x4E487B7100000000000000000000000000000000000000000000000000000000 PUSH0 MSTORE PUSH1 0x41 PUSH1 0x4 MSTORE PUSH1 0x24 PUSH0 REVERT JUMPDEST PUSH2 0xE1D DUP3 PUSH2 0xDD7 JUMP JUMPDEST DUP2 ADD DUP2 DUP2 LT PUSH8 0xFFFFFFFFFFFFFFFF DUP3 GT OR ISZERO PUSH2 0xE3C JUMPI PUSH2 0xE3B PUSH2 0xDE7 JUMP JUMPDEST JUMPDEST DUP1 PUSH1 0x40 MSTORE POP POP POP JUMP JUMPDEST PUSH0 PUSH2 0xE4E PUSH2 0xC83 JUMP JUMPDEST SWAP1 POP PUSH2 0xE5A DUP3 DUP3 PUSH2 0xE14 JUMP JUMPDEST SWAP2 SWAP1 POP JUMP JUMPDEST PUSH0 PUSH8 0xFFFFFFFFFFFFFFFF DUP3 GT ISZERO PUSH2 0xE79 JUMPI PUSH2 0xE78 PUSH2 0xDE7 JUMP JUMPDEST JUMPDEST PUSH2 0xE82 DUP3 PUSH2 0xDD7 JUMP JUMPDEST SWAP1 POP PUSH1 0x20 DUP2 ADD SWAP1 POP SWAP2 SWAP1 POP JUMP JUMPDEST DUP3 DUP2 DUP4 CALLDATACOPY PUSH0 DUP4 DUP4 ADD MSTORE POP POP POP JUMP JUMPDEST PUSH0 PUSH2 0xEAF PUSH2 0xEAA DUP5 PUSH2 0xE5F JUMP JUMPDEST PUSH2 0xE45 JUMP JUMPDEST SWAP1 POP DUP3 DUP2 MSTORE PUSH1 0x20 DUP2 ADD DUP5 DUP5 DUP5 ADD GT ISZERO PUSH2 0xECB JUMPI PUSH2 0xECA PUSH2 0xDD3 JUMP JUMPDEST JUMPDEST PUSH2 0xED6 DUP5 DUP3 DUP6 PUSH2 0xE8F JUMP JUMPDEST POP SWAP4 SWAP3 POP POP POP JUMP JUMPDEST PUSH0 DUP3 PUSH1 0x1F DUP4 ADD SLT PUSH2 0xEF2 JUMPI PUSH2 0xEF1 PUSH2 0xDCF JUMP JUMPDEST JUMPDEST DUP2 CALLDATALOAD PUSH2 0xF02 DUP5 DUP3 PUSH1 0x20 DUP7 ADD PUSH2 0xE9D JUMP JUMPDEST SWAP2 POP POP SWAP3 SWAP2 POP POP JUMP JUMPDEST PUSH0 DUP1 PUSH1 0x40 DUP4 DUP6 SUB SLT ISZERO PUSH2 0xF21 JUMPI PUSH2 0xF20 PUSH2 0xC8C JUMP JUMPDEST JUMPDEST PUSH0 PUSH2 0xF2E DUP6 DUP3 DUP7 ADD PUSH2 0xCDA JUMP JUMPDEST SWAP3 POP POP PUSH1 0x20 DUP4 ADD CALLDATALOAD PUSH8 0xFFFFFFFFFFFFFFFF DUP2 GT ISZERO PUSH2 0xF4F JUMPI PUSH2 0xF4E PUSH2 0xC90 JUMP JUMPDEST JUMPDEST PUSH2 0xF5B DUP6 DUP3 DUP7 ADD PUSH2 0xEDE JUMP JUMPDEST SWAP2 POP POP SWAP3 POP SWAP3 SWAP1 POP JUMP JUMPDEST PUSH0 DUP2 MLOAD SWAP1 POP SWAP2 SWAP1 POP JUMP JUMPDEST PUSH0 DUP3 DUP3 MSTORE PUSH1 0x20 DUP3 ADD SWAP1 POP SWAP3 SWAP2 POP POP JUMP JUMPDEST PUSH0 JUMPDEST DUP4 DUP2 LT ISZERO PUSH2 0xF9C JUMPI DUP1 DUP3 ADD MLOAD DUP2 DUP5 ADD MSTORE PUSH1 0x20 DUP2 ADD SWAP1 POP PUSH2 0xF81 JUMP JUMPDEST PUSH0 DUP5 DUP5 ADD MSTORE POP POP POP POP JUMP JUMPDEST PUSH0 PUSH2 0xFB1 DUP3 PUSH2 0xF65 JUMP JUMPDEST PUSH2 0xFBB DUP2 DUP6 PUSH2 0xF6F JUMP JUMPDEST SWAP4 POP PUSH2 0xFCB DUP2 DUP6 PUSH1 0x20 DUP7 ADD PUSH2 0xF7F JUMP JUMPDEST PUSH2 0xFD4 DUP2 PUSH2 0xDD7 JUMP JUMPDEST DUP5 ADD SWAP2 POP POP SWAP3 SWAP2 POP POP JUMP JUMPDEST PUSH0 PUSH1 0x20 DUP3 ADD SWAP1 POP DUP2 DUP2 SUB PUSH0 DUP4 ADD MSTORE PUSH2 0xFF7 DUP2 DUP5 PUSH2 0xFA7 JUMP JUMPDEST SWAP1 POP SWAP3 SWAP2 POP POP JUMP JUMPDEST PUSH0 PUSH1 0x20 DUP3 DUP5 SUB SLT ISZERO PUSH2 0x1014 JUMPI PUSH2 0x1013 PUSH2 0xC8C JUMP JUMPDEST JUMPDEST PUSH0 PUSH2 0x1021 DUP5 DUP3 DUP6 ADD PUSH2 0xD0D JUMP JUMPDEST SWAP2 POP POP SWAP3 SWAP2 POP POP JUMP JUMPDEST PUSH0 PUSH1 0x20 DUP3 ADD SWAP1 POP PUSH2 0x103D PUSH0 DUP4 ADD DUP5 PUSH2 0xD8A JUMP JUMPDEST SWAP3 SWAP2 POP POP JUMP JUMPDEST PUSH0 DUP1 PUSH0 PUSH1 0x60 DUP5 DUP7 SUB SLT ISZERO PUSH2 0x105A JUMPI PUSH2 0x1059 PUSH2 0xC8C JUMP JUMPDEST JUMPDEST PUSH0 PUSH2 0x1067 DUP7 DUP3 DUP8 ADD PUSH2 0xCDA JUMP JUMPDEST SWAP4 POP POP PUSH1 0x20 DUP5 ADD CALLDATALOAD PUSH8 0xFFFFFFFFFFFFFFFF DUP2 GT ISZERO PUSH2 0x1088 JUMPI PUSH2 0x1087 PUSH2 0xC90 JUMP JUMPDEST JUMPDEST PUSH2 0x1094 DUP7 DUP3 DUP8 ADD PUSH2 0xEDE JUMP JUMPDEST SWAP3 POP POP PUSH1 0x40 DUP5 ADD CALLDATALOAD PUSH8 0xFFFFFFFFFFFFFFFF DUP2 GT ISZERO PUSH2 0x10B5 JUMPI PUSH2 0x10B4 PUSH2 0xC90 JUMP JUMPDEST JUMPDEST PUSH2 0x10C1 DUP7 DUP3 DUP8 ADD PUSH2 0xEDE JUMP JUMPDEST SWAP2 POP POP SWAP3 POP SWAP3 POP SWAP3 JUMP JUMPDEST PUSH0 DUP2 MLOAD SWAP1 POP SWAP2 SWAP1 POP JUMP JUMPDEST PUSH0 DUP3 DUP3 MSTORE PUSH1 0x20 DUP3 ADD SWAP1 POP SWAP3 SWAP2 POP POP JUMP JUMPDEST PUSH0 DUP2 SWAP1 POP PUSH1 0x20 DUP3 ADD SWAP1 POP SWAP2 SWAP1 POP JUMP JUMPDEST PUSH2 0x10FD DUP2 PUSH2 0xCB3 JUMP JUMPDEST DUP3 MSTORE POP POP JUMP JUMPDEST PUSH0 PUSH2 0x110E DUP4 DUP4 PUSH2 0x10F4 JUMP JUMPDEST PUSH1 0x20 DUP4 ADD SWAP1 POP SWAP3 SWAP2 POP POP JUMP JUMPDEST PUSH0 PUSH1 0x20 DUP3 ADD SWAP1 POP SWAP2 SWAP1 POP JUMP JUMPDEST PUSH0 PUSH2 0x1130 DUP3 PUSH2 0x10CB JUMP JUMPDEST PUSH2 0x113A DUP2 DUP6 PUSH2 0x10D5 JUMP JUMPDEST SWAP4 POP PUSH2 0x1145 DUP4 PUSH2 0x10E5 JUMP JUMPDEST DUP1 PUSH0 JUMPDEST DUP4 DUP2 LT ISZERO PUSH2 0x1175 JUMPI DUP2 MLOAD PUSH2 0x115C DUP9 DUP3 PUSH2 0x1103 JUMP JUMPDEST SWAP8 POP PUSH2 0x1167 DUP4 PUSH2 0x111A JUMP JUMPDEST SWAP3 POP POP PUSH1 0x1 DUP2 ADD SWAP1 POP PUSH2 0x1148 JUMP JUMPDEST POP DUP6 SWAP4 POP POP POP POP SWAP3 SWAP2 POP POP JUMP JUMPDEST PUSH0 PUSH1 0x20 DUP3 ADD SWAP1 POP DUP2 DUP2 SUB PUSH0 DUP4 ADD MSTORE PUSH2 0x119A DUP2 DUP5 PUSH2 0x1126 JUMP JUMPDEST SWAP1 POP SWAP3 SWAP2 POP POP JUMP JUMPDEST PUSH2 0x11AB DUP2 PUSH2 0xCEE JUMP JUMPDEST DUP3 MSTORE POP POP JUMP JUMPDEST PUSH1 0x40 DUP3 ADD PUSH0 DUP3 ADD MLOAD PUSH2 0x11C5 PUSH0 DUP6 ADD DUP3 PUSH2 0x10F4 JUMP JUMPDEST POP PUSH1 0x20 DUP3 ADD MLOAD PUSH2 0x11D8 PUSH1 0x20 DUP6 ADD DUP3 PUSH2 0x11A2 JUMP JUMPDEST POP POP POP POP JUMP JUMPDEST PUSH0 PUSH1 0x40 DUP3 ADD SWAP1 POP PUSH2 0x11F1 PUSH0 DUP4 ADD DUP5 PUSH2 0x11B1 JUMP JUMPDEST SWAP3 SWAP2 POP POP JUMP JUMPDEST PUSH32 0x4E6F646520616C72656164792065786973747300000000000000000000000000 PUSH0 DUP3 ADD MSTORE POP JUMP JUMPDEST PUSH0 PUSH2 0x122B PUSH1 0x13 DUP4 PUSH2 0xF6F JUMP JUMPDEST SWAP2 POP PUSH2 0x1236 DUP3 PUSH2 0x11F7 JUMP JUMPDEST PUSH1 0x20 DUP3 ADD SWAP1 POP SWAP2 SWAP1 POP JUMP JUMPDEST PUSH0 PUSH1 0x20 DUP3 ADD SWAP1 POP DUP2 DUP2 SUB PUSH0 DUP4 ADD MSTORE PUSH2 0x1258 DUP2 PUSH2 0x121F JUMP JUMPDEST SWAP1 POP SWAP2 SWAP1 POP JUMP JUMPDEST PUSH32 0x4E6F646520646F6573206E6F7420657869737400000000000000000000000000 PUSH0 DUP3 ADD MSTORE POP JUMP JUMPDEST PUSH0 PUSH2 0x1293 PUSH1 0x13 DUP4 PUSH2 0xF6F JUMP JUMPDEST SWAP2 POP PUSH2 0x129E DUP3 PUSH2 0x125F JUMP JUMPDEST PUSH1 0x20 DUP3 ADD SWAP1 POP SWAP2 SWAP1 POP JUMP JUMPDEST PUSH0 PUSH1 0x20 DUP3 ADD SWAP1 POP DUP2 DUP2 SUB PUSH0 DUP4 ADD MSTORE PUSH2 0x12C0 DUP2 PUSH2 0x1287 JUMP JUMPDEST SWAP1 POP SWAP2 SWAP1 POP JUMP JUMPDEST PUSH0 DUP2 SWAP1 POP SWAP3 SWAP2 POP POP JUMP JUMPDEST PUSH0 PUSH2 0x12DB DUP3 PUSH2 0xF65 JUMP JUMPDEST PUSH2 0x12E5 DUP2 DUP6 PUSH2 0x12C7 JUMP JUMPDEST SWAP4 POP PUSH2 0x12F5 DUP2 DUP6 PUSH1 0x20 DUP7 ADD PUSH2 0xF7F JUMP JUMPDEST DUP1 DUP5 ADD SWAP2 POP POP SWAP3 SWAP2 POP POP JUMP JUMPDEST PUSH0 PUSH2 0x130C DUP3 DUP5 PUSH2 0x12D1 JUMP JUMPDEST SWAP2 POP DUP2 SWAP1 POP SWAP3 SWAP2 POP POP JUMP JUMPDEST PUSH32 0x4E487B7100000000000000000000000000000000000000000000000000000000 PUSH0 MSTORE PUSH1 0x22 PUSH1 0x4 MSTORE PUSH1 0x24 PUSH0 REVERT JUMPDEST PUSH0 PUSH1 0x2 DUP3 DIV SWAP1 POP PUSH1 0x1 DUP3 AND DUP1 PUSH2 0x135B JUMPI PUSH1 0x7F DUP3 AND SWAP2 POP JUMPDEST PUSH1 0x20 DUP3 LT DUP2 SUB PUSH2 0x136E JUMPI PUSH2 0x136D PUSH2 0x1317 JUMP JUMPDEST JUMPDEST POP SWAP2 SWAP1 POP JUMP JUMPDEST PUSH32 0x4E487B7100000000000000000000000000000000000000000000000000000000 PUSH0 MSTORE PUSH1 0x11 PUSH1 0x4 MSTORE PUSH1 0x24 PUSH0 REVERT JUMPDEST PUSH0 PUSH2 0x13AB DUP3 PUSH2 0xCEE JUMP JUMPDEST SWAP2 POP PUSH2 0x13B6 DUP4 PUSH2 0xCEE JUMP JUMPDEST SWAP3 POP DUP3 DUP3 SUB SWAP1 POP DUP2 DUP2 GT ISZERO PUSH2 0x13CE JUMPI PUSH2 0x13CD PUSH2 0x1374 JUMP JUMPDEST JUMPDEST SWAP3 SWAP2 POP POP JUMP JUMPDEST PUSH32 0x4E487B7100000000000000000000000000000000000000000000000000000000 PUSH0 MSTORE PUSH1 0x12 PUSH1 0x4 MSTORE PUSH1 0x24 PUSH0 REVERT JUMPDEST PUSH0 PUSH2 0x140B DUP3 PUSH2 0xCEE JUMP JUMPDEST SWAP2 POP PUSH2 0x1416 DUP4 PUSH2 0xCEE JUMP JUMPDEST SWAP3 POP DUP3 PUSH2 0x1426 JUMPI PUSH2 0x1425 PUSH2 0x13D4 JUMP JUMPDEST JUMPDEST DUP3 DUP3 MOD SWAP1 POP SWAP3 SWAP2 POP POP JUMP JUMPDEST PUSH0 PUSH2 0x143B DUP3 PUSH2 0xCEE JUMP JUMPDEST SWAP2 POP PUSH2 0x1446 DUP4 PUSH2 0xCEE JUMP JUMPDEST SWAP3 POP DUP3 DUP3 ADD SWAP1 POP DUP1 DUP3 GT ISZERO PUSH2 0x145E JUMPI PUSH2 0x145D PUSH2 0x1374 JUMP JUMPDEST JUMPDEST SWAP3 SWAP2 POP POP JUMP JUMPDEST PUSH32 0x4E487B7100000000000000000000000000000000000000000000000000000000 PUSH0 MSTORE PUSH1 0x32 PUSH1 0x4 MSTORE PUSH1 0x24 PUSH0 REVERT JUMPDEST PUSH0 DUP2 SWAP1 POP DUP2 PUSH0 MSTORE PUSH1 0x20 PUSH0 KECCAK256 SWAP1 POP SWAP2 SWAP1 POP JUMP JUMPDEST PUSH0 PUSH1 0x20 PUSH1 0x1F DUP4 ADD DIV SWAP1 POP SWAP2 SWAP1 POP JUMP JUMPDEST PUSH0 DUP3 DUP3 SHL SWAP1 POP SWAP3 SWAP2 POP POP JUMP JUMPDEST PUSH0 PUSH1 0x8 DUP4 MUL PUSH2 0x14ED PUSH32 0xFFFFFFFFFFFFFFFFFFFFFFFFFFFFFFFFFFFFFFFFFFFFFFFFFFFFFFFFFFFFFFFF DUP3 PUSH2 0x14B2 JUMP JUMPDEST PUSH2 0x14F7 DUP7 DUP4 PUSH2 0x14B2 JUMP JUMPDEST SWAP6 POP DUP1 NOT DUP5 AND SWAP4 POP DUP1 DUP7 AND DUP5 OR SWAP3 POP POP POP SWAP4 SWAP3 POP POP POP JUMP JUMPDEST PUSH0 DUP2 SWAP1 POP SWAP2 SWAP1 POP JUMP JUMPDEST PUSH0 PUSH2 0x1532 PUSH2 0x152D PUSH2 0x1528 DUP5 PUSH2 0xCEE JUMP JUMPDEST PUSH2 0x150F JUMP JUMPDEST PUSH2 0xCEE JUMP JUMPDEST SWAP1 POP SWAP2 SWAP1 POP JUMP JUMPDEST PUSH0 DUP2 SWAP1 POP SWAP2 SWAP1 POP JUMP JUMPDEST PUSH2 0x154B DUP4 PUSH2 0x1518 JUMP JUMPDEST PUSH2 0x155F PUSH2 0x1557 DUP3 PUSH2 0x1539 JUMP JUMPDEST DUP5 DUP5 SLOAD PUSH2 0x14BE JUMP JUMPDEST DUP3 SSTORE POP POP POP POP JUMP JUMPDEST PUSH0 SWAP1 JUMP JUMPDEST PUSH2 0x1573 PUSH2 0x1567 JUMP JUMPDEST PUSH2 0x157E DUP2 DUP5 DUP5 PUSH2 0x1542 JUMP JUMPDEST POP POP POP JUMP JUMPDEST JUMPDEST DUP2 DUP2 LT ISZERO PUSH2 0x15A1 JUMPI PUSH2 0x1596 PUSH0 DUP3 PUSH2 0x156B JUMP JUMPDEST PUSH1 0x1 DUP2 ADD SWAP1 POP PUSH2 0x1584 JUMP JUMPDEST POP POP JUMP JUMPDEST PUSH1 0x1F DUP3 GT ISZERO PUSH2 0x15E6 JUMPI PUSH2 0x15B7 DUP2 PUSH2 0x1491 JUMP JUMPDEST PUSH2 0x15C0 DUP5 PUSH2 0x14A3 JUMP JUMPDEST DUP2 ADD PUSH1 0x20 DUP6 LT ISZERO PUSH2 0x15CF JUMPI DUP2 SWAP1 POP JUMPDEST PUSH2 0x15E3 PUSH2 0x15DB DUP6 PUSH2 0x14A3 JUMP JUMPDEST DUP4 ADD DUP3 PUSH2 0x1583 JUMP JUMPDEST POP POP JUMPDEST POP POP POP JUMP JUMPDEST PUSH0 DUP3 DUP3 SHR SWAP1 POP SWAP3 SWAP2 POP POP JUMP JUMPDEST PUSH0 PUSH2 0x1606 PUSH0 NOT DUP5 PUSH1 0x8 MUL PUSH2 0x15EB JUMP JUMPDEST NOT DUP1 DUP4 AND SWAP2 POP POP SWAP3 SWAP2 POP POP JUMP JUMPDEST PUSH0 PUSH2 0x161E DUP4 DUP4 PUSH2 0x15F7 JUMP JUMPDEST SWAP2 POP DUP3 PUSH1 0x2 MUL DUP3 OR SWAP1 POP SWAP3 SWAP2 POP POP JUMP JUMPDEST PUSH2 0x1637 DUP3 PUSH2 0xF65 JUMP JUMPDEST PUSH8 0xFFFFFFFFFFFFFFFF DUP2 GT ISZERO PUSH2 0x1650 JUMPI PUSH2 0x164F PUSH2 0xDE7 JUMP JUMPDEST JUMPDEST PUSH2 0x165A DUP3 SLOAD PUSH2 0x1344 JUMP JUMPDEST PUSH2 0x1665 DUP3 DUP3 DUP6 PUSH2 0x15A5 JUMP JUMPDEST PUSH0 PUSH1 0x20 SWAP1 POP PUSH1 0x1F DUP4 GT PUSH1 0x1 DUP2 EQ PUSH2 0x1696 JUMPI PUSH0 DUP5 ISZERO PUSH2 0x1684 JUMPI DUP3 DUP8 ADD MLOAD SWAP1 POP JUMPDEST PUSH2 0x168E DUP6 DUP3 PUSH2 0x1613 JUMP JUMPDEST DUP7 SSTORE POP PUSH2 0x16F5 JUMP JUMPDEST PUSH1 0x1F NOT DUP5 AND PUSH2 0x16A4 DUP7 PUSH2 0x1491 JUMP JUMPDEST PUSH0 JUMPDEST DUP3 DUP2 LT ISZERO PUSH2 0x16CB JUMPI DUP5 DUP10 ADD MLOAD DUP3 SSTORE PUSH1 0x1 DUP3 ADD SWAP2 POP PUSH1 0x20 DUP6 ADD SWAP5 POP PUSH1 0x20 DUP2 ADD SWAP1 POP PUSH2 0x16A6 JUMP JUMPDEST DUP7 DUP4 LT ISZERO PUSH2 0x16E8 JUMPI DUP5 DUP10 ADD MLOAD PUSH2 0x16E4 PUSH1 0x1F DUP10 AND DUP3 PUSH2 0x15F7 JUMP JUMPDEST DUP4 SSTORE POP JUMPDEST PUSH1 0x1 PUSH1 0x2 DUP9 MUL ADD DUP9 SSTORE POP POP POP JUMPDEST POP POP POP POP POP POP JUMP INVALID LOG2 PUSH5 0x6970667358 0x22 SLT KECCAK256 0xCA 0xDB CALLDATASIZE RETURNDATACOPY CODECOPY 0xE7 0xCD 0xB4 COINBASE PUSH5 0xFE99EB16BD 0xE SWAP10 DUP12 PUSH15 0x50D11D2E73437670F0D0B4246E6473 PUSH16 0x6C634300081600330000000000000000 "
				},
				"gasEstimates": {
					"creation": {
						"codeDepositCost": "1187800",
						"executionCost": "1232",
						"totalCost": "1189032"
					},
					"external": {
						"addNode(address,uint256)": "infinite",
						"allNodes(uint256)": "5032",
						"deleteChunkInNode(address,string)": "infinite",
						"findAvailableNode(uint256)": "infinite",
						"getAllNodes()": "infinite",
						"getNodeByAddress(address)": "infinite",
						"nodeChunks(address,string)": "infinite",
						"nodes(address)": "infinite",
						"retrieveChunkInNode(address,string)": "infinite",
						"storeChunkInNode(address,string,string)": "infinite"
					},
					"internal": {
						"updateAvailableStorage(address,uint256)": "infinite"
					}
				},
				"methodIdentifiers": {
					"addNode(address,uint256)": "11bd77fe",
					"allNodes(uint256)": "fe72ae13",
					"deleteChunkInNode(address,string)": "50f1c985",
					"findAvailableNode(uint256)": "64f0c0b8",
					"getAllNodes()": "a1174e7d",
					"getNodeByAddress(address)": "a9860308",
					"nodeChunks(address,string)": "9e34c134",
					"nodes(address)": "189a5a17",
					"retrieveChunkInNode(address,string)": "2a85be1e",
					"storeChunkInNode(address,string,string)": "a0be4b1f"
				}
			},
			"storageLayout": {
				"storage": [
					{
						"astId": 15,
						"contract": "contracts/_NodeManager.sol:NodeManager",
						"label": "nodes",
						"offset": 0,
						"slot": "0",
						"type": "t_mapping(t_address,t_struct(Node)6_storage)"
					},
					{
						"astId": 21,
						"contract": "contracts/_NodeManager.sol:NodeManager",
						"label": "nodeChunks",
						"offset": 0,
						"slot": "1",
						"type": "t_mapping(t_address,t_mapping(t_string_memory_ptr,t_string_storage))"
					},
					{
						"astId": 24,
						"contract": "contracts/_NodeManager.sol:NodeManager",
						"label": "allNodes",
						"offset": 0,
						"slot": "2",
						"type": "t_array(t_address)dyn_storage"
					}
				],
				"types": {
					"t_address": {
						"encoding": "inplace",
						"label": "address",
						"numberOfBytes": "20"
					},
					"t_array(t_address)dyn_storage": {
						"base": "t_address",
						"encoding": "dynamic_array",
						"label": "address[]",
						"numberOfBytes": "32"
					},
					"t_mapping(t_address,t_mapping(t_string_memory_ptr,t_string_storage))": {
						"encoding": "mapping",
						"key": "t_address",
						"label": "mapping(address => mapping(string => string))",
						"numberOfBytes": "32",
						"value": "t_mapping(t_string_memory_ptr,t_string_storage)"
					},
					"t_mapping(t_address,t_struct(Node)6_storage)": {
						"encoding": "mapping",
						"key": "t_address",
						"label": "mapping(address => struct NodeManager.Node)",
						"numberOfBytes": "32",
						"value": "t_struct(Node)6_storage"
					},
					"t_mapping(t_string_memory_ptr,t_string_storage)": {
						"encoding": "mapping",
						"key": "t_string_memory_ptr",
						"label": "mapping(string => string)",
						"numberOfBytes": "32",
						"value": "t_string_storage"
					},
					"t_string_memory_ptr": {
						"encoding": "bytes",
						"label": "string",
						"numberOfBytes": "32"
					},
					"t_string_storage": {
						"encoding": "bytes",
						"label": "string",
						"numberOfBytes": "32"
					},
					"t_struct(Node)6_storage": {
						"encoding": "inplace",
						"label": "struct NodeManager.Node",
						"members": [
							{
								"astId": 3,
								"contract": "contracts/_NodeManager.sol:NodeManager",
								"label": "nodeAddress",
								"offset": 0,
								"slot": "0",
								"type": "t_address"
							},
							{
								"astId": 5,
								"contract": "contracts/_NodeManager.sol:NodeManager",
								"label": "availableStorage",
								"offset": 0,
								"slot": "1",
								"type": "t_uint256"
							}
						],
						"numberOfBytes": "64"
					},
					"t_uint256": {
						"encoding": "inplace",
						"label": "uint256",
						"numberOfBytes": "32"
					}
				}
			},
			"userdoc": {
				"kind": "user",
				"methods": {},
				"version": 1
			}
		}
	}
}