{
	"contracts/_FileStorage.sol": {
		"FileStorageManager": {
			"abi": [
				{
					"inputs": [
						{
							"internalType": "uint256",
							"name": "initialStorage",
							"type": "uint256"
						}
					],
					"stateMutability": "nonpayable",
					"type": "constructor"
				},
				{
					"anonymous": false,
					"inputs": [
						{
							"indexed": false,
							"internalType": "string",
							"name": "fileName",
							"type": "string"
						},
						{
							"indexed": false,
							"internalType": "uint256",
							"name": "fileSize",
							"type": "uint256"
						},
						{
							"indexed": false,
							"internalType": "uint256",
							"name": "newAvailableStorage",
							"type": "uint256"
						}
					],
					"name": "FileDeleted",
					"type": "event"
				},
				{
					"anonymous": false,
					"inputs": [
						{
							"indexed": false,
							"internalType": "string",
							"name": "fileName",
							"type": "string"
						},
						{
							"indexed": false,
							"internalType": "string",
							"name": "content",
							"type": "string"
						}
					],
					"name": "FileRetrieved",
					"type": "event"
				},
				{
					"anonymous": false,
					"inputs": [
						{
							"indexed": false,
							"internalType": "string",
							"name": "fileName",
							"type": "string"
						},
						{
							"indexed": false,
							"internalType": "uint256",
							"name": "fileSize",
							"type": "uint256"
						},
						{
							"indexed": false,
							"internalType": "uint256",
							"name": "newAvailableStorage",
							"type": "uint256"
						}
					],
					"name": "FileStored",
					"type": "event"
				},
				{
					"inputs": [],
					"name": "availableStorage",
					"outputs": [
						{
							"internalType": "uint256",
							"name": "",
							"type": "uint256"
						}
					],
					"stateMutability": "view",
					"type": "function"
				},
				{
					"inputs": [
						{
							"internalType": "string",
							"name": "fileName",
							"type": "string"
						}
					],
					"name": "deleteFile",
					"outputs": [],
					"stateMutability": "nonpayable",
					"type": "function"
				},
				{
					"inputs": [],
					"name": "owner",
					"outputs": [
						{
							"internalType": "address",
							"name": "",
							"type": "address"
						}
					],
					"stateMutability": "view",
					"type": "function"
				},
				{
					"inputs": [
						{
							"internalType": "string",
							"name": "fileName",
							"type": "string"
						}
					],
					"name": "retrieveFile",
					"outputs": [
						{
							"internalType": "string",
							"name": "",
							"type": "string"
						}
					],
					"stateMutability": "view",
					"type": "function"
				},
				{
					"inputs": [
						{
							"internalType": "string",
							"name": "fileName",
							"type": "string"
						},
						{
							"internalType": "string",
							"name": "content",
							"type": "string"
						}
					],
					"name": "storeFile",
					"outputs": [],
					"stateMutability": "nonpayable",
					"type": "function"
				}
			],
			"devdoc": {
				"kind": "dev",
				"methods": {},
				"version": 1
			},
			"evm": {
				"assembly": "    /* \"contracts/_FileStorage.sol\":66:1511  contract FileStorageManager {... */\n  mstore(0x40, 0x80)\n    /* \"contracts/_FileStorage.sol\":557:674  constructor(uint256 initialStorage) {... */\n  callvalue\n  dup1\n  iszero\n  tag_1\n  jumpi\n  0x00\n  dup1\n  revert\ntag_1:\n  pop\n  mload(0x40)\n  sub(codesize, bytecodeSize)\n  dup1\n  bytecodeSize\n  dup4\n  codecopy\n  dup2\n  dup2\n  add\n  0x40\n  mstore\n  dup2\n  add\n  swap1\n  tag_2\n  swap2\n  swap1\n  tag_3\n  jump\t// in\ntag_2:\n    /* \"contracts/_FileStorage.sol\":612:622  msg.sender */\n  caller\n    /* \"contracts/_FileStorage.sol\":604:609  owner */\n  0x00\n  dup1\n    /* \"contracts/_FileStorage.sol\":604:622  owner = msg.sender */\n  0x0100\n  exp\n  dup2\n  sload\n  dup2\n  0xffffffffffffffffffffffffffffffffffffffff\n  mul\n  not\n  and\n  swap1\n  dup4\n  0xffffffffffffffffffffffffffffffffffffffff\n  and\n  mul\n  or\n  swap1\n  sstore\n  pop\n    /* \"contracts/_FileStorage.sol\":652:666  initialStorage */\n  dup1\n    /* \"contracts/_FileStorage.sol\":633:649  availableStorage */\n  0x01\n    /* \"contracts/_FileStorage.sol\":633:666  availableStorage = initialStorage */\n  dup2\n  swap1\n  sstore\n  pop\n    /* \"contracts/_FileStorage.sol\":557:674  constructor(uint256 initialStorage) {... */\n  pop\n    /* \"contracts/_FileStorage.sol\":66:1511  contract FileStorageManager {... */\n  jump(tag_6)\n    /* \"#utility.yul\":88:205   */\ntag_8:\n    /* \"#utility.yul\":197:198   */\n  0x00\n    /* \"#utility.yul\":194:195   */\n  dup1\n    /* \"#utility.yul\":187:199   */\n  revert\n    /* \"#utility.yul\":334:411   */\ntag_10:\n    /* \"#utility.yul\":371:378   */\n  0x00\n    /* \"#utility.yul\":400:405   */\n  dup2\n    /* \"#utility.yul\":389:405   */\n  swap1\n  pop\n    /* \"#utility.yul\":334:411   */\n  swap2\n  swap1\n  pop\n  jump\t// out\n    /* \"#utility.yul\":417:539   */\ntag_11:\n    /* \"#utility.yul\":490:514   */\n  tag_19\n    /* \"#utility.yul\":508:513   */\n  dup2\n    /* \"#utility.yul\":490:514   */\n  tag_10\n  jump\t// in\ntag_19:\n    /* \"#utility.yul\":483:488   */\n  dup2\n    /* \"#utility.yul\":480:515   */\n  eq\n    /* \"#utility.yul\":470:533   */\n  tag_20\n  jumpi\n    /* \"#utility.yul\":529:530   */\n  0x00\n    /* \"#utility.yul\":526:527   */\n  dup1\n    /* \"#utility.yul\":519:531   */\n  revert\n    /* \"#utility.yul\":470:533   */\ntag_20:\n    /* \"#utility.yul\":417:539   */\n  pop\n  jump\t// out\n    /* \"#utility.yul\":545:688   */\ntag_12:\n    /* \"#utility.yul\":602:607   */\n  0x00\n    /* \"#utility.yul\":633:639   */\n  dup2\n    /* \"#utility.yul\":627:640   */\n  mload\n    /* \"#utility.yul\":618:640   */\n  swap1\n  pop\n    /* \"#utility.yul\":649:682   */\n  tag_22\n    /* \"#utility.yul\":676:681   */\n  dup2\n    /* \"#utility.yul\":649:682   */\n  tag_11\n  jump\t// in\ntag_22:\n    /* \"#utility.yul\":545:688   */\n  swap3\n  swap2\n  pop\n  pop\n  jump\t// out\n    /* \"#utility.yul\":694:1045   */\ntag_3:\n    /* \"#utility.yul\":764:770   */\n  0x00\n    /* \"#utility.yul\":813:815   */\n  0x20\n    /* \"#utility.yul\":801:810   */\n  dup3\n    /* \"#utility.yul\":792:799   */\n  dup5\n    /* \"#utility.yul\":788:811   */\n  sub\n    /* \"#utility.yul\":784:816   */\n  slt\n    /* \"#utility.yul\":781:900   */\n  iszero\n  tag_24\n  jumpi\n    /* \"#utility.yul\":819:898   */\n  tag_25\n  tag_8\n  jump\t// in\ntag_25:\n    /* \"#utility.yul\":781:900   */\ntag_24:\n    /* \"#utility.yul\":939:940   */\n  0x00\n    /* \"#utility.yul\":964:1028   */\n  tag_26\n    /* \"#utility.yul\":1020:1027   */\n  dup5\n    /* \"#utility.yul\":1011:1017   */\n  dup3\n    /* \"#utility.yul\":1000:1009   */\n  dup6\n    /* \"#utility.yul\":996:1018   */\n  add\n    /* \"#utility.yul\":964:1028   */\n  tag_12\n  jump\t// in\ntag_26:\n    /* \"#utility.yul\":954:1028   */\n  swap2\n  pop\n    /* \"#utility.yul\":910:1038   */\n  pop\n    /* \"#utility.yul\":694:1045   */\n  swap3\n  swap2\n  pop\n  pop\n  jump\t// out\n    /* \"contracts/_FileStorage.sol\":66:1511  contract FileStorageManager {... */\ntag_6:\n  dataSize(sub_0)\n  dup1\n  dataOffset(sub_0)\n  0x00\n  codecopy\n  0x00\n  return\nstop\n\nsub_0: assembly {\n        /* \"contracts/_FileStorage.sol\":66:1511  contract FileStorageManager {... */\n      mstore(0x40, 0x80)\n      callvalue\n      dup1\n      iszero\n      tag_1\n      jumpi\n      0x00\n      dup1\n      revert\n    tag_1:\n      pop\n      jumpi(tag_2, lt(calldatasize, 0x04))\n      shr(0xe0, calldataload(0x00))\n      dup1\n      0x20de1070\n      eq\n      tag_3\n      jumpi\n      dup1\n      0x2804401c\n      eq\n      tag_4\n      jumpi\n      dup1\n      0x8da5cb5b\n      eq\n      tag_5\n      jumpi\n      dup1\n      0xa9910054\n      eq\n      tag_6\n      jumpi\n      dup1\n      0xe973baec\n      eq\n      tag_7\n      jumpi\n    tag_2:\n      0x00\n      dup1\n      revert\n        /* \"contracts/_FileStorage.sol\":682:1021  function storeFile(string memory fileName, string memory content) public {... */\n    tag_3:\n      tag_8\n      0x04\n      dup1\n      calldatasize\n      sub\n      dup2\n      add\n      swap1\n      tag_9\n      swap2\n      swap1\n      tag_10\n      jump\t// in\n    tag_9:\n      tag_11\n      jump\t// in\n    tag_8:\n      stop\n        /* \"contracts/_FileStorage.sol\":1029:1154  function retrieveFile(string memory fileName) external view returns (string memory) {... */\n    tag_4:\n      tag_12\n      0x04\n      dup1\n      calldatasize\n      sub\n      dup2\n      add\n      swap1\n      tag_13\n      swap2\n      swap1\n      tag_14\n      jump\t// in\n    tag_13:\n      tag_15\n      jump\t// in\n    tag_12:\n      mload(0x40)\n      tag_16\n      swap2\n      swap1\n      tag_17\n      jump\t// in\n    tag_16:\n      mload(0x40)\n      dup1\n      swap2\n      sub\n      swap1\n      return\n        /* \"contracts/_FileStorage.sol\":101:121  address public owner */\n    tag_5:\n      tag_18\n      tag_19\n      jump\t// in\n    tag_18:\n      mload(0x40)\n      tag_20\n      swap2\n      swap1\n      tag_21\n      jump\t// in\n    tag_20:\n      mload(0x40)\n      dup1\n      swap2\n      sub\n      swap1\n      return\n        /* \"contracts/_FileStorage.sol\":1162:1508  function deleteFile(string memory fileName) external onlyOwner {... */\n    tag_6:\n      tag_22\n      0x04\n      dup1\n      calldatasize\n      sub\n      dup2\n      add\n      swap1\n      tag_23\n      swap2\n      swap1\n      tag_14\n      jump\t// in\n    tag_23:\n      tag_24\n      jump\t// in\n    tag_22:\n      stop\n        /* \"contracts/_FileStorage.sol\":128:159  uint256 public availableStorage */\n    tag_7:\n      tag_25\n      tag_26\n      jump\t// in\n    tag_25:\n      mload(0x40)\n      tag_27\n      swap2\n      swap1\n      tag_28\n      jump\t// in\n    tag_27:\n      mload(0x40)\n      dup1\n      swap2\n      sub\n      swap1\n      return\n        /* \"contracts/_FileStorage.sol\":682:1021  function storeFile(string memory fileName, string memory content) public {... */\n    tag_11:\n        /* \"contracts/_FileStorage.sol\":793:794  0 */\n      0x00\n        /* \"contracts/_FileStorage.sol\":774:790  availableStorage */\n      sload(0x01)\n        /* \"contracts/_FileStorage.sol\":774:794  availableStorage > 0 */\n      gt\n        /* \"contracts/_FileStorage.sol\":766:819  require(availableStorage > 0, \"No storage available\") */\n      tag_30\n      jumpi\n      mload(0x40)\n      0x08c379a000000000000000000000000000000000000000000000000000000000\n      dup2\n      mstore\n      0x04\n      add\n      tag_31\n      swap1\n      tag_32\n      jump\t// in\n    tag_31:\n      mload(0x40)\n      dup1\n      swap2\n      sub\n      swap1\n      revert\n    tag_30:\n        /* \"contracts/_FileStorage.sol\":830:846  uint256 fileSize */\n      0x00\n        /* \"contracts/_FileStorage.sol\":855:862  content */\n      dup2\n        /* \"contracts/_FileStorage.sol\":849:870  bytes(content).length */\n      mload\n        /* \"contracts/_FileStorage.sol\":830:870  uint256 fileSize = bytes(content).length */\n      swap1\n      pop\n        /* \"contracts/_FileStorage.sol\":901:908  content */\n      dup2\n        /* \"contracts/_FileStorage.sol\":883:888  files */\n      0x02\n        /* \"contracts/_FileStorage.sol\":889:897  fileName */\n      dup5\n        /* \"contracts/_FileStorage.sol\":883:898  files[fileName] */\n      mload(0x40)\n      tag_33\n      swap2\n      swap1\n      tag_34\n      jump\t// in\n    tag_33:\n      swap1\n      dup2\n      mstore\n      0x20\n      add\n      mload(0x40)\n      dup1\n      swap2\n      sub\n      swap1\n      keccak256\n        /* \"contracts/_FileStorage.sol\":883:908  files[fileName] = content */\n      swap1\n      dup2\n      tag_35\n      swap2\n      swap1\n      tag_36\n      jump\t// in\n    tag_35:\n      pop\n        /* \"contracts/_FileStorage.sol\":939:947  fileSize */\n      dup1\n        /* \"contracts/_FileStorage.sol\":919:935  availableStorage */\n      0x01\n      0x00\n        /* \"contracts/_FileStorage.sol\":919:947  availableStorage -= fileSize */\n      dup3\n      dup3\n      sload\n      tag_37\n      swap2\n      swap1\n      tag_38\n      jump\t// in\n    tag_37:\n      swap3\n      pop\n      pop\n      dup2\n      swap1\n      sstore\n      pop\n        /* \"contracts/_FileStorage.sol\":965:1013  FileStored(fileName, fileSize, availableStorage) */\n      0xb124bd46c5501ef604216ceeff17be6e3badf75e294713b623e3300bfb250ae6\n        /* \"contracts/_FileStorage.sol\":976:984  fileName */\n      dup4\n        /* \"contracts/_FileStorage.sol\":986:994  fileSize */\n      dup3\n        /* \"contracts/_FileStorage.sol\":996:1012  availableStorage */\n      sload(0x01)\n        /* \"contracts/_FileStorage.sol\":965:1013  FileStored(fileName, fileSize, availableStorage) */\n      mload(0x40)\n      tag_39\n      swap4\n      swap3\n      swap2\n      swap1\n      tag_40\n      jump\t// in\n    tag_39:\n      mload(0x40)\n      dup1\n      swap2\n      sub\n      swap1\n      log1\n        /* \"contracts/_FileStorage.sol\":755:1021  {... */\n      pop\n        /* \"contracts/_FileStorage.sol\":682:1021  function storeFile(string memory fileName, string memory content) public {... */\n      pop\n      pop\n      jump\t// out\n        /* \"contracts/_FileStorage.sol\":1029:1154  function retrieveFile(string memory fileName) external view returns (string memory) {... */\n    tag_15:\n        /* \"contracts/_FileStorage.sol\":1098:1111  string memory */\n      0x60\n        /* \"contracts/_FileStorage.sol\":1131:1136  files */\n      0x02\n        /* \"contracts/_FileStorage.sol\":1137:1145  fileName */\n      dup3\n        /* \"contracts/_FileStorage.sol\":1131:1146  files[fileName] */\n      mload(0x40)\n      tag_42\n      swap2\n      swap1\n      tag_34\n      jump\t// in\n    tag_42:\n      swap1\n      dup2\n      mstore\n      0x20\n      add\n      mload(0x40)\n      dup1\n      swap2\n      sub\n      swap1\n      keccak256\n        /* \"contracts/_FileStorage.sol\":1124:1146  return files[fileName] */\n      dup1\n      sload\n      tag_43\n      swap1\n      tag_44\n      jump\t// in\n    tag_43:\n      dup1\n      0x1f\n      add\n      0x20\n      dup1\n      swap2\n      div\n      mul\n      0x20\n      add\n      mload(0x40)\n      swap1\n      dup2\n      add\n      0x40\n      mstore\n      dup1\n      swap3\n      swap2\n      swap1\n      dup2\n      dup2\n      mstore\n      0x20\n      add\n      dup3\n      dup1\n      sload\n      tag_45\n      swap1\n      tag_44\n      jump\t// in\n    tag_45:\n      dup1\n      iszero\n      tag_46\n      jumpi\n      dup1\n      0x1f\n      lt\n      tag_47\n      jumpi\n      0x0100\n      dup1\n      dup4\n      sload\n      div\n      mul\n      dup4\n      mstore\n      swap2\n      0x20\n      add\n      swap2\n      jump(tag_46)\n    tag_47:\n      dup3\n      add\n      swap2\n      swap1\n      0x00\n      mstore\n      keccak256(0x00, 0x20)\n      swap1\n    tag_48:\n      dup2\n      sload\n      dup2\n      mstore\n      swap1\n      0x01\n      add\n      swap1\n      0x20\n      add\n      dup1\n      dup4\n      gt\n      tag_48\n      jumpi\n      dup3\n      swap1\n      sub\n      0x1f\n      and\n      dup3\n      add\n      swap2\n    tag_46:\n      pop\n      pop\n      pop\n      pop\n      pop\n      swap1\n      pop\n        /* \"contracts/_FileStorage.sol\":1029:1154  function retrieveFile(string memory fileName) external view returns (string memory) {... */\n      swap2\n      swap1\n      pop\n      jump\t// out\n        /* \"contracts/_FileStorage.sol\":101:121  address public owner */\n    tag_19:\n      0x00\n      dup1\n      sload\n      swap1\n      0x0100\n      exp\n      swap1\n      div\n      0xffffffffffffffffffffffffffffffffffffffff\n      and\n      dup2\n      jump\t// out\n        /* \"contracts/_FileStorage.sol\":1162:1508  function deleteFile(string memory fileName) external onlyOwner {... */\n    tag_24:\n        /* \"contracts/_FileStorage.sol\":504:509  owner */\n      0x00\n      dup1\n      sload\n      swap1\n      0x0100\n      exp\n      swap1\n      div\n      0xffffffffffffffffffffffffffffffffffffffff\n      and\n        /* \"contracts/_FileStorage.sol\":490:509  msg.sender == owner */\n      0xffffffffffffffffffffffffffffffffffffffff\n      and\n        /* \"contracts/_FileStorage.sol\":490:500  msg.sender */\n      caller\n        /* \"contracts/_FileStorage.sol\":490:509  msg.sender == owner */\n      0xffffffffffffffffffffffffffffffffffffffff\n      and\n      eq\n        /* \"contracts/_FileStorage.sol\":482:529  require(msg.sender == owner, \"Unauthenticated\") */\n      tag_50\n      jumpi\n      mload(0x40)\n      0x08c379a000000000000000000000000000000000000000000000000000000000\n      dup2\n      mstore\n      0x04\n      add\n      tag_51\n      swap1\n      tag_52\n      jump\t// in\n    tag_51:\n      mload(0x40)\n      dup1\n      swap2\n      sub\n      swap1\n      revert\n    tag_50:\n        /* \"contracts/_FileStorage.sol\":1276:1277  0 */\n      0x00\n        /* \"contracts/_FileStorage.sol\":1250:1255  files */\n      0x02\n        /* \"contracts/_FileStorage.sol\":1256:1264  fileName */\n      dup3\n        /* \"contracts/_FileStorage.sol\":1250:1265  files[fileName] */\n      mload(0x40)\n      tag_54\n      swap2\n      swap1\n      tag_34\n      jump\t// in\n    tag_54:\n      swap1\n      dup2\n      mstore\n      0x20\n      add\n      mload(0x40)\n      dup1\n      swap2\n      sub\n      swap1\n      keccak256\n        /* \"contracts/_FileStorage.sol\":1244:1273  bytes(files[fileName]).length */\n      dup1\n      sload\n      tag_55\n      swap1\n      tag_44\n      jump\t// in\n    tag_55:\n      swap1\n      pop\n        /* \"contracts/_FileStorage.sol\":1244:1277  bytes(files[fileName]).length > 0 */\n      gt\n        /* \"contracts/_FileStorage.sol\":1236:1296  require(bytes(files[fileName]).length > 0, \"File not found\") */\n      tag_56\n      jumpi\n      mload(0x40)\n      0x08c379a000000000000000000000000000000000000000000000000000000000\n      dup2\n      mstore\n      0x04\n      add\n      tag_57\n      swap1\n      tag_58\n      jump\t// in\n    tag_57:\n      mload(0x40)\n      dup1\n      swap2\n      sub\n      swap1\n      revert\n    tag_56:\n        /* \"contracts/_FileStorage.sol\":1309:1325  uint256 fileSize */\n      0x00\n        /* \"contracts/_FileStorage.sol\":1334:1339  files */\n      0x02\n        /* \"contracts/_FileStorage.sol\":1340:1348  fileName */\n      dup3\n        /* \"contracts/_FileStorage.sol\":1334:1349  files[fileName] */\n      mload(0x40)\n      tag_59\n      swap2\n      swap1\n      tag_34\n      jump\t// in\n    tag_59:\n      swap1\n      dup2\n      mstore\n      0x20\n      add\n      mload(0x40)\n      dup1\n      swap2\n      sub\n      swap1\n      keccak256\n        /* \"contracts/_FileStorage.sol\":1328:1357  bytes(files[fileName]).length */\n      dup1\n      sload\n      tag_60\n      swap1\n      tag_44\n      jump\t// in\n    tag_60:\n      swap1\n      pop\n        /* \"contracts/_FileStorage.sol\":1309:1357  uint256 fileSize = bytes(files[fileName]).length */\n      swap1\n      pop\n        /* \"contracts/_FileStorage.sol\":1377:1382  files */\n      0x02\n        /* \"contracts/_FileStorage.sol\":1383:1391  fileName */\n      dup3\n        /* \"contracts/_FileStorage.sol\":1377:1392  files[fileName] */\n      mload(0x40)\n      tag_61\n      swap2\n      swap1\n      tag_34\n      jump\t// in\n    tag_61:\n      swap1\n      dup2\n      mstore\n      0x20\n      add\n      mload(0x40)\n      dup1\n      swap2\n      sub\n      swap1\n      keccak256\n      0x00\n        /* \"contracts/_FileStorage.sol\":1370:1392  delete files[fileName] */\n      tag_62\n      swap2\n      swap1\n      tag_63\n      jump\t// in\n    tag_62:\n        /* \"contracts/_FileStorage.sol\":1425:1433  fileSize */\n      dup1\n        /* \"contracts/_FileStorage.sol\":1405:1421  availableStorage */\n      0x01\n      0x00\n        /* \"contracts/_FileStorage.sol\":1405:1433  availableStorage += fileSize */\n      dup3\n      dup3\n      sload\n      tag_64\n      swap2\n      swap1\n      tag_65\n      jump\t// in\n    tag_64:\n      swap3\n      pop\n      pop\n      dup2\n      swap1\n      sstore\n      pop\n        /* \"contracts/_FileStorage.sol\":1451:1500  FileDeleted(fileName, fileSize, availableStorage) */\n      0xad47e2648532dbf20aa6e26f2743fe5ca7f79d7833b70ebc7e95e2aca3bb12c7\n        /* \"contracts/_FileStorage.sol\":1463:1471  fileName */\n      dup3\n        /* \"contracts/_FileStorage.sol\":1473:1481  fileSize */\n      dup3\n        /* \"contracts/_FileStorage.sol\":1483:1499  availableStorage */\n      sload(0x01)\n        /* \"contracts/_FileStorage.sol\":1451:1500  FileDeleted(fileName, fileSize, availableStorage) */\n      mload(0x40)\n      tag_66\n      swap4\n      swap3\n      swap2\n      swap1\n      tag_40\n      jump\t// in\n    tag_66:\n      mload(0x40)\n      dup1\n      swap2\n      sub\n      swap1\n      log1\n        /* \"contracts/_FileStorage.sol\":1225:1508  {... */\n      pop\n        /* \"contracts/_FileStorage.sol\":1162:1508  function deleteFile(string memory fileName) external onlyOwner {... */\n      pop\n      jump\t// out\n        /* \"contracts/_FileStorage.sol\":128:159  uint256 public availableStorage */\n    tag_26:\n      sload(0x01)\n      dup2\n      jump\t// out\n    tag_63:\n      pop\n      dup1\n      sload\n      tag_67\n      swap1\n      tag_44\n      jump\t// in\n    tag_67:\n      0x00\n      dup3\n      sstore\n      dup1\n      0x1f\n      lt\n      tag_69\n      jumpi\n      pop\n      jump(tag_68)\n    tag_69:\n      0x1f\n      add\n      0x20\n      swap1\n      div\n      swap1\n      0x00\n      mstore\n      keccak256(0x00, 0x20)\n      swap1\n      dup2\n      add\n      swap1\n      tag_70\n      swap2\n      swap1\n      tag_71\n      jump\t// in\n    tag_70:\n    tag_68:\n      pop\n      jump\t// out\n    tag_71:\n    tag_72:\n      dup1\n      dup3\n      gt\n      iszero\n      tag_73\n      jumpi\n      0x00\n      dup2\n      0x00\n      swap1\n      sstore\n      pop\n      0x01\n      add\n      jump(tag_72)\n    tag_73:\n      pop\n      swap1\n      jump\t// out\n        /* \"#utility.yul\":7:82   */\n    tag_74:\n        /* \"#utility.yul\":40:46   */\n      0x00\n        /* \"#utility.yul\":73:75   */\n      0x40\n        /* \"#utility.yul\":67:76   */\n      mload\n        /* \"#utility.yul\":57:76   */\n      swap1\n      pop\n        /* \"#utility.yul\":7:82   */\n      swap1\n      jump\t// out\n        /* \"#utility.yul\":88:205   */\n    tag_75:\n        /* \"#utility.yul\":197:198   */\n      0x00\n        /* \"#utility.yul\":194:195   */\n      dup1\n        /* \"#utility.yul\":187:199   */\n      revert\n        /* \"#utility.yul\":211:328   */\n    tag_76:\n        /* \"#utility.yul\":320:321   */\n      0x00\n        /* \"#utility.yul\":317:318   */\n      dup1\n        /* \"#utility.yul\":310:322   */\n      revert\n        /* \"#utility.yul\":334:451   */\n    tag_77:\n        /* \"#utility.yul\":443:444   */\n      0x00\n        /* \"#utility.yul\":440:441   */\n      dup1\n        /* \"#utility.yul\":433:445   */\n      revert\n        /* \"#utility.yul\":457:574   */\n    tag_78:\n        /* \"#utility.yul\":566:567   */\n      0x00\n        /* \"#utility.yul\":563:564   */\n      dup1\n        /* \"#utility.yul\":556:568   */\n      revert\n        /* \"#utility.yul\":580:682   */\n    tag_79:\n        /* \"#utility.yul\":621:627   */\n      0x00\n        /* \"#utility.yul\":672:674   */\n      0x1f\n        /* \"#utility.yul\":668:675   */\n      not\n        /* \"#utility.yul\":663:665   */\n      0x1f\n        /* \"#utility.yul\":656:661   */\n      dup4\n        /* \"#utility.yul\":652:666   */\n      add\n        /* \"#utility.yul\":648:676   */\n      and\n        /* \"#utility.yul\":638:676   */\n      swap1\n      pop\n        /* \"#utility.yul\":580:682   */\n      swap2\n      swap1\n      pop\n      jump\t// out\n        /* \"#utility.yul\":688:868   */\n    tag_80:\n        /* \"#utility.yul\":736:813   */\n      0x4e487b7100000000000000000000000000000000000000000000000000000000\n        /* \"#utility.yul\":733:734   */\n      0x00\n        /* \"#utility.yul\":726:814   */\n      mstore\n        /* \"#utility.yul\":833:837   */\n      0x41\n        /* \"#utility.yul\":830:831   */\n      0x04\n        /* \"#utility.yul\":823:838   */\n      mstore\n        /* \"#utility.yul\":857:861   */\n      0x24\n        /* \"#utility.yul\":854:855   */\n      0x00\n        /* \"#utility.yul\":847:862   */\n      revert\n        /* \"#utility.yul\":874:1155   */\n    tag_81:\n        /* \"#utility.yul\":957:984   */\n      tag_130\n        /* \"#utility.yul\":979:983   */\n      dup3\n        /* \"#utility.yul\":957:984   */\n      tag_79\n      jump\t// in\n    tag_130:\n        /* \"#utility.yul\":949:955   */\n      dup2\n        /* \"#utility.yul\":945:985   */\n      add\n        /* \"#utility.yul\":1087:1093   */\n      dup2\n        /* \"#utility.yul\":1075:1085   */\n      dup2\n        /* \"#utility.yul\":1072:1094   */\n      lt\n        /* \"#utility.yul\":1051:1069   */\n      0xffffffffffffffff\n        /* \"#utility.yul\":1039:1049   */\n      dup3\n        /* \"#utility.yul\":1036:1070   */\n      gt\n        /* \"#utility.yul\":1033:1095   */\n      or\n        /* \"#utility.yul\":1030:1118   */\n      iszero\n      tag_131\n      jumpi\n        /* \"#utility.yul\":1098:1116   */\n      tag_132\n      tag_80\n      jump\t// in\n    tag_132:\n        /* \"#utility.yul\":1030:1118   */\n    tag_131:\n        /* \"#utility.yul\":1138:1148   */\n      dup1\n        /* \"#utility.yul\":1134:1136   */\n      0x40\n        /* \"#utility.yul\":1127:1149   */\n      mstore\n        /* \"#utility.yul\":917:1155   */\n      pop\n        /* \"#utility.yul\":874:1155   */\n      pop\n      pop\n      jump\t// out\n        /* \"#utility.yul\":1161:1290   */\n    tag_82:\n        /* \"#utility.yul\":1195:1201   */\n      0x00\n        /* \"#utility.yul\":1222:1242   */\n      tag_134\n      tag_74\n      jump\t// in\n    tag_134:\n        /* \"#utility.yul\":1212:1242   */\n      swap1\n      pop\n        /* \"#utility.yul\":1251:1284   */\n      tag_135\n        /* \"#utility.yul\":1279:1283   */\n      dup3\n        /* \"#utility.yul\":1271:1277   */\n      dup3\n        /* \"#utility.yul\":1251:1284   */\n      tag_81\n      jump\t// in\n    tag_135:\n        /* \"#utility.yul\":1161:1290   */\n      swap2\n      swap1\n      pop\n      jump\t// out\n        /* \"#utility.yul\":1296:1604   */\n    tag_83:\n        /* \"#utility.yul\":1358:1362   */\n      0x00\n        /* \"#utility.yul\":1448:1466   */\n      0xffffffffffffffff\n        /* \"#utility.yul\":1440:1446   */\n      dup3\n        /* \"#utility.yul\":1437:1467   */\n      gt\n        /* \"#utility.yul\":1434:1490   */\n      iszero\n      tag_137\n      jumpi\n        /* \"#utility.yul\":1470:1488   */\n      tag_138\n      tag_80\n      jump\t// in\n    tag_138:\n        /* \"#utility.yul\":1434:1490   */\n    tag_137:\n        /* \"#utility.yul\":1508:1537   */\n      tag_139\n        /* \"#utility.yul\":1530:1536   */\n      dup3\n        /* \"#utility.yul\":1508:1537   */\n      tag_79\n      jump\t// in\n    tag_139:\n        /* \"#utility.yul\":1500:1537   */\n      swap1\n      pop\n        /* \"#utility.yul\":1592:1596   */\n      0x20\n        /* \"#utility.yul\":1586:1590   */\n      dup2\n        /* \"#utility.yul\":1582:1597   */\n      add\n        /* \"#utility.yul\":1574:1597   */\n      swap1\n      pop\n        /* \"#utility.yul\":1296:1604   */\n      swap2\n      swap1\n      pop\n      jump\t// out\n        /* \"#utility.yul\":1610:1756   */\n    tag_84:\n        /* \"#utility.yul\":1707:1713   */\n      dup3\n        /* \"#utility.yul\":1702:1705   */\n      dup2\n        /* \"#utility.yul\":1697:1700   */\n      dup4\n        /* \"#utility.yul\":1684:1714   */\n      calldatacopy\n        /* \"#utility.yul\":1748:1749   */\n      0x00\n        /* \"#utility.yul\":1739:1745   */\n      dup4\n        /* \"#utility.yul\":1734:1737   */\n      dup4\n        /* \"#utility.yul\":1730:1746   */\n      add\n        /* \"#utility.yul\":1723:1750   */\n      mstore\n        /* \"#utility.yul\":1610:1756   */\n      pop\n      pop\n      pop\n      jump\t// out\n        /* \"#utility.yul\":1762:2187   */\n    tag_85:\n        /* \"#utility.yul\":1840:1845   */\n      0x00\n        /* \"#utility.yul\":1865:1931   */\n      tag_142\n        /* \"#utility.yul\":1881:1930   */\n      tag_143\n        /* \"#utility.yul\":1923:1929   */\n      dup5\n        /* \"#utility.yul\":1881:1930   */\n      tag_83\n      jump\t// in\n    tag_143:\n        /* \"#utility.yul\":1865:1931   */\n      tag_82\n      jump\t// in\n    tag_142:\n        /* \"#utility.yul\":1856:1931   */\n      swap1\n      pop\n        /* \"#utility.yul\":1954:1960   */\n      dup3\n        /* \"#utility.yul\":1947:1952   */\n      dup2\n        /* \"#utility.yul\":1940:1961   */\n      mstore\n        /* \"#utility.yul\":1992:1996   */\n      0x20\n        /* \"#utility.yul\":1985:1990   */\n      dup2\n        /* \"#utility.yul\":1981:1997   */\n      add\n        /* \"#utility.yul\":2030:2033   */\n      dup5\n        /* \"#utility.yul\":2021:2027   */\n      dup5\n        /* \"#utility.yul\":2016:2019   */\n      dup5\n        /* \"#utility.yul\":2012:2028   */\n      add\n        /* \"#utility.yul\":2009:2034   */\n      gt\n        /* \"#utility.yul\":2006:2118   */\n      iszero\n      tag_144\n      jumpi\n        /* \"#utility.yul\":2037:2116   */\n      tag_145\n      tag_78\n      jump\t// in\n    tag_145:\n        /* \"#utility.yul\":2006:2118   */\n    tag_144:\n        /* \"#utility.yul\":2127:2181   */\n      tag_146\n        /* \"#utility.yul\":2174:2180   */\n      dup5\n        /* \"#utility.yul\":2169:2172   */\n      dup3\n        /* \"#utility.yul\":2164:2167   */\n      dup6\n        /* \"#utility.yul\":2127:2181   */\n      tag_84\n      jump\t// in\n    tag_146:\n        /* \"#utility.yul\":1846:2187   */\n      pop\n        /* \"#utility.yul\":1762:2187   */\n      swap4\n      swap3\n      pop\n      pop\n      pop\n      jump\t// out\n        /* \"#utility.yul\":2207:2547   */\n    tag_86:\n        /* \"#utility.yul\":2263:2268   */\n      0x00\n        /* \"#utility.yul\":2312:2315   */\n      dup3\n        /* \"#utility.yul\":2305:2309   */\n      0x1f\n        /* \"#utility.yul\":2297:2303   */\n      dup4\n        /* \"#utility.yul\":2293:2310   */\n      add\n        /* \"#utility.yul\":2289:2316   */\n      slt\n        /* \"#utility.yul\":2279:2401   */\n      tag_148\n      jumpi\n        /* \"#utility.yul\":2320:2399   */\n      tag_149\n      tag_77\n      jump\t// in\n    tag_149:\n        /* \"#utility.yul\":2279:2401   */\n    tag_148:\n        /* \"#utility.yul\":2437:2443   */\n      dup2\n        /* \"#utility.yul\":2424:2444   */\n      calldataload\n        /* \"#utility.yul\":2462:2541   */\n      tag_150\n        /* \"#utility.yul\":2537:2540   */\n      dup5\n        /* \"#utility.yul\":2529:2535   */\n      dup3\n        /* \"#utility.yul\":2522:2526   */\n      0x20\n        /* \"#utility.yul\":2514:2520   */\n      dup7\n        /* \"#utility.yul\":2510:2527   */\n      add\n        /* \"#utility.yul\":2462:2541   */\n      tag_85\n      jump\t// in\n    tag_150:\n        /* \"#utility.yul\":2453:2541   */\n      swap2\n      pop\n        /* \"#utility.yul\":2269:2547   */\n      pop\n        /* \"#utility.yul\":2207:2547   */\n      swap3\n      swap2\n      pop\n      pop\n      jump\t// out\n        /* \"#utility.yul\":2553:3387   */\n    tag_10:\n        /* \"#utility.yul\":2641:2647   */\n      0x00\n        /* \"#utility.yul\":2649:2655   */\n      dup1\n        /* \"#utility.yul\":2698:2700   */\n      0x40\n        /* \"#utility.yul\":2686:2695   */\n      dup4\n        /* \"#utility.yul\":2677:2684   */\n      dup6\n        /* \"#utility.yul\":2673:2696   */\n      sub\n        /* \"#utility.yul\":2669:2701   */\n      slt\n        /* \"#utility.yul\":2666:2785   */\n      iszero\n      tag_152\n      jumpi\n        /* \"#utility.yul\":2704:2783   */\n      tag_153\n      tag_75\n      jump\t// in\n    tag_153:\n        /* \"#utility.yul\":2666:2785   */\n    tag_152:\n        /* \"#utility.yul\":2852:2853   */\n      0x00\n        /* \"#utility.yul\":2841:2850   */\n      dup4\n        /* \"#utility.yul\":2837:2854   */\n      add\n        /* \"#utility.yul\":2824:2855   */\n      calldataload\n        /* \"#utility.yul\":2882:2900   */\n      0xffffffffffffffff\n        /* \"#utility.yul\":2874:2880   */\n      dup2\n        /* \"#utility.yul\":2871:2901   */\n      gt\n        /* \"#utility.yul\":2868:2985   */\n      iszero\n      tag_154\n      jumpi\n        /* \"#utility.yul\":2904:2983   */\n      tag_155\n      tag_76\n      jump\t// in\n    tag_155:\n        /* \"#utility.yul\":2868:2985   */\n    tag_154:\n        /* \"#utility.yul\":3009:3072   */\n      tag_156\n        /* \"#utility.yul\":3064:3071   */\n      dup6\n        /* \"#utility.yul\":3055:3061   */\n      dup3\n        /* \"#utility.yul\":3044:3053   */\n      dup7\n        /* \"#utility.yul\":3040:3062   */\n      add\n        /* \"#utility.yul\":3009:3072   */\n      tag_86\n      jump\t// in\n    tag_156:\n        /* \"#utility.yul\":2999:3072   */\n      swap3\n      pop\n        /* \"#utility.yul\":2795:3082   */\n      pop\n        /* \"#utility.yul\":3149:3151   */\n      0x20\n        /* \"#utility.yul\":3138:3147   */\n      dup4\n        /* \"#utility.yul\":3134:3152   */\n      add\n        /* \"#utility.yul\":3121:3153   */\n      calldataload\n        /* \"#utility.yul\":3180:3198   */\n      0xffffffffffffffff\n        /* \"#utility.yul\":3172:3178   */\n      dup2\n        /* \"#utility.yul\":3169:3199   */\n      gt\n        /* \"#utility.yul\":3166:3283   */\n      iszero\n      tag_157\n      jumpi\n        /* \"#utility.yul\":3202:3281   */\n      tag_158\n      tag_76\n      jump\t// in\n    tag_158:\n        /* \"#utility.yul\":3166:3283   */\n    tag_157:\n        /* \"#utility.yul\":3307:3370   */\n      tag_159\n        /* \"#utility.yul\":3362:3369   */\n      dup6\n        /* \"#utility.yul\":3353:3359   */\n      dup3\n        /* \"#utility.yul\":3342:3351   */\n      dup7\n        /* \"#utility.yul\":3338:3360   */\n      add\n        /* \"#utility.yul\":3307:3370   */\n      tag_86\n      jump\t// in\n    tag_159:\n        /* \"#utility.yul\":3297:3370   */\n      swap2\n      pop\n        /* \"#utility.yul\":3092:3380   */\n      pop\n        /* \"#utility.yul\":2553:3387   */\n      swap3\n      pop\n      swap3\n      swap1\n      pop\n      jump\t// out\n        /* \"#utility.yul\":3393:3902   */\n    tag_14:\n        /* \"#utility.yul\":3462:3468   */\n      0x00\n        /* \"#utility.yul\":3511:3513   */\n      0x20\n        /* \"#utility.yul\":3499:3508   */\n      dup3\n        /* \"#utility.yul\":3490:3497   */\n      dup5\n        /* \"#utility.yul\":3486:3509   */\n      sub\n        /* \"#utility.yul\":3482:3514   */\n      slt\n        /* \"#utility.yul\":3479:3598   */\n      iszero\n      tag_161\n      jumpi\n        /* \"#utility.yul\":3517:3596   */\n      tag_162\n      tag_75\n      jump\t// in\n    tag_162:\n        /* \"#utility.yul\":3479:3598   */\n    tag_161:\n        /* \"#utility.yul\":3665:3666   */\n      0x00\n        /* \"#utility.yul\":3654:3663   */\n      dup3\n        /* \"#utility.yul\":3650:3667   */\n      add\n        /* \"#utility.yul\":3637:3668   */\n      calldataload\n        /* \"#utility.yul\":3695:3713   */\n      0xffffffffffffffff\n        /* \"#utility.yul\":3687:3693   */\n      dup2\n        /* \"#utility.yul\":3684:3714   */\n      gt\n        /* \"#utility.yul\":3681:3798   */\n      iszero\n      tag_163\n      jumpi\n        /* \"#utility.yul\":3717:3796   */\n      tag_164\n      tag_76\n      jump\t// in\n    tag_164:\n        /* \"#utility.yul\":3681:3798   */\n    tag_163:\n        /* \"#utility.yul\":3822:3885   */\n      tag_165\n        /* \"#utility.yul\":3877:3884   */\n      dup5\n        /* \"#utility.yul\":3868:3874   */\n      dup3\n        /* \"#utility.yul\":3857:3866   */\n      dup6\n        /* \"#utility.yul\":3853:3875   */\n      add\n        /* \"#utility.yul\":3822:3885   */\n      tag_86\n      jump\t// in\n    tag_165:\n        /* \"#utility.yul\":3812:3885   */\n      swap2\n      pop\n        /* \"#utility.yul\":3608:3895   */\n      pop\n        /* \"#utility.yul\":3393:3902   */\n      swap3\n      swap2\n      pop\n      pop\n      jump\t// out\n        /* \"#utility.yul\":3908:4007   */\n    tag_87:\n        /* \"#utility.yul\":3960:3966   */\n      0x00\n        /* \"#utility.yul\":3994:3999   */\n      dup2\n        /* \"#utility.yul\":3988:4000   */\n      mload\n        /* \"#utility.yul\":3978:4000   */\n      swap1\n      pop\n        /* \"#utility.yul\":3908:4007   */\n      swap2\n      swap1\n      pop\n      jump\t// out\n        /* \"#utility.yul\":4013:4182   */\n    tag_88:\n        /* \"#utility.yul\":4097:4108   */\n      0x00\n        /* \"#utility.yul\":4131:4137   */\n      dup3\n        /* \"#utility.yul\":4126:4129   */\n      dup3\n        /* \"#utility.yul\":4119:4138   */\n      mstore\n        /* \"#utility.yul\":4171:4175   */\n      0x20\n        /* \"#utility.yul\":4166:4169   */\n      dup3\n        /* \"#utility.yul\":4162:4176   */\n      add\n        /* \"#utility.yul\":4147:4176   */\n      swap1\n      pop\n        /* \"#utility.yul\":4013:4182   */\n      swap3\n      swap2\n      pop\n      pop\n      jump\t// out\n        /* \"#utility.yul\":4188:4434   */\n    tag_89:\n        /* \"#utility.yul\":4269:4270   */\n      0x00\n        /* \"#utility.yul\":4279:4392   */\n    tag_169:\n        /* \"#utility.yul\":4293:4299   */\n      dup4\n        /* \"#utility.yul\":4290:4291   */\n      dup2\n        /* \"#utility.yul\":4287:4300   */\n      lt\n        /* \"#utility.yul\":4279:4392   */\n      iszero\n      tag_171\n      jumpi\n        /* \"#utility.yul\":4378:4379   */\n      dup1\n        /* \"#utility.yul\":4373:4376   */\n      dup3\n        /* \"#utility.yul\":4369:4380   */\n      add\n        /* \"#utility.yul\":4363:4381   */\n      mload\n        /* \"#utility.yul\":4359:4360   */\n      dup2\n        /* \"#utility.yul\":4354:4357   */\n      dup5\n        /* \"#utility.yul\":4350:4361   */\n      add\n        /* \"#utility.yul\":4343:4382   */\n      mstore\n        /* \"#utility.yul\":4315:4317   */\n      0x20\n        /* \"#utility.yul\":4312:4313   */\n      dup2\n        /* \"#utility.yul\":4308:4318   */\n      add\n        /* \"#utility.yul\":4303:4318   */\n      swap1\n      pop\n        /* \"#utility.yul\":4279:4392   */\n      jump(tag_169)\n    tag_171:\n        /* \"#utility.yul\":4426:4427   */\n      0x00\n        /* \"#utility.yul\":4417:4423   */\n      dup5\n        /* \"#utility.yul\":4412:4415   */\n      dup5\n        /* \"#utility.yul\":4408:4424   */\n      add\n        /* \"#utility.yul\":4401:4428   */\n      mstore\n        /* \"#utility.yul\":4250:4434   */\n      pop\n        /* \"#utility.yul\":4188:4434   */\n      pop\n      pop\n      pop\n      jump\t// out\n        /* \"#utility.yul\":4440:4817   */\n    tag_90:\n        /* \"#utility.yul\":4528:4531   */\n      0x00\n        /* \"#utility.yul\":4556:4595   */\n      tag_173\n        /* \"#utility.yul\":4589:4594   */\n      dup3\n        /* \"#utility.yul\":4556:4595   */\n      tag_87\n      jump\t// in\n    tag_173:\n        /* \"#utility.yul\":4611:4682   */\n      tag_174\n        /* \"#utility.yul\":4675:4681   */\n      dup2\n        /* \"#utility.yul\":4670:4673   */\n      dup6\n        /* \"#utility.yul\":4611:4682   */\n      tag_88\n      jump\t// in\n    tag_174:\n        /* \"#utility.yul\":4604:4682   */\n      swap4\n      pop\n        /* \"#utility.yul\":4691:4756   */\n      tag_175\n        /* \"#utility.yul\":4749:4755   */\n      dup2\n        /* \"#utility.yul\":4744:4747   */\n      dup6\n        /* \"#utility.yul\":4737:4741   */\n      0x20\n        /* \"#utility.yul\":4730:4735   */\n      dup7\n        /* \"#utility.yul\":4726:4742   */\n      add\n        /* \"#utility.yul\":4691:4756   */\n      tag_89\n      jump\t// in\n    tag_175:\n        /* \"#utility.yul\":4781:4810   */\n      tag_176\n        /* \"#utility.yul\":4803:4809   */\n      dup2\n        /* \"#utility.yul\":4781:4810   */\n      tag_79\n      jump\t// in\n    tag_176:\n        /* \"#utility.yul\":4776:4779   */\n      dup5\n        /* \"#utility.yul\":4772:4811   */\n      add\n        /* \"#utility.yul\":4765:4811   */\n      swap2\n      pop\n        /* \"#utility.yul\":4532:4817   */\n      pop\n        /* \"#utility.yul\":4440:4817   */\n      swap3\n      swap2\n      pop\n      pop\n      jump\t// out\n        /* \"#utility.yul\":4823:5136   */\n    tag_17:\n        /* \"#utility.yul\":4936:4940   */\n      0x00\n        /* \"#utility.yul\":4974:4976   */\n      0x20\n        /* \"#utility.yul\":4963:4972   */\n      dup3\n        /* \"#utility.yul\":4959:4977   */\n      add\n        /* \"#utility.yul\":4951:4977   */\n      swap1\n      pop\n        /* \"#utility.yul\":5023:5032   */\n      dup2\n        /* \"#utility.yul\":5017:5021   */\n      dup2\n        /* \"#utility.yul\":5013:5033   */\n      sub\n        /* \"#utility.yul\":5009:5010   */\n      0x00\n        /* \"#utility.yul\":4998:5007   */\n      dup4\n        /* \"#utility.yul\":4994:5011   */\n      add\n        /* \"#utility.yul\":4987:5034   */\n      mstore\n        /* \"#utility.yul\":5051:5129   */\n      tag_178\n        /* \"#utility.yul\":5124:5128   */\n      dup2\n        /* \"#utility.yul\":5115:5121   */\n      dup5\n        /* \"#utility.yul\":5051:5129   */\n      tag_90\n      jump\t// in\n    tag_178:\n        /* \"#utility.yul\":5043:5129   */\n      swap1\n      pop\n        /* \"#utility.yul\":4823:5136   */\n      swap3\n      swap2\n      pop\n      pop\n      jump\t// out\n        /* \"#utility.yul\":5142:5268   */\n    tag_91:\n        /* \"#utility.yul\":5179:5186   */\n      0x00\n        /* \"#utility.yul\":5219:5261   */\n      0xffffffffffffffffffffffffffffffffffffffff\n        /* \"#utility.yul\":5212:5217   */\n      dup3\n        /* \"#utility.yul\":5208:5262   */\n      and\n        /* \"#utility.yul\":5197:5262   */\n      swap1\n      pop\n        /* \"#utility.yul\":5142:5268   */\n      swap2\n      swap1\n      pop\n      jump\t// out\n        /* \"#utility.yul\":5274:5370   */\n    tag_92:\n        /* \"#utility.yul\":5311:5318   */\n      0x00\n        /* \"#utility.yul\":5340:5364   */\n      tag_181\n        /* \"#utility.yul\":5358:5363   */\n      dup3\n        /* \"#utility.yul\":5340:5364   */\n      tag_91\n      jump\t// in\n    tag_181:\n        /* \"#utility.yul\":5329:5364   */\n      swap1\n      pop\n        /* \"#utility.yul\":5274:5370   */\n      swap2\n      swap1\n      pop\n      jump\t// out\n        /* \"#utility.yul\":5376:5494   */\n    tag_93:\n        /* \"#utility.yul\":5463:5487   */\n      tag_183\n        /* \"#utility.yul\":5481:5486   */\n      dup2\n        /* \"#utility.yul\":5463:5487   */\n      tag_92\n      jump\t// in\n    tag_183:\n        /* \"#utility.yul\":5458:5461   */\n      dup3\n        /* \"#utility.yul\":5451:5488   */\n      mstore\n        /* \"#utility.yul\":5376:5494   */\n      pop\n      pop\n      jump\t// out\n        /* \"#utility.yul\":5500:5722   */\n    tag_21:\n        /* \"#utility.yul\":5593:5597   */\n      0x00\n        /* \"#utility.yul\":5631:5633   */\n      0x20\n        /* \"#utility.yul\":5620:5629   */\n      dup3\n        /* \"#utility.yul\":5616:5634   */\n      add\n        /* \"#utility.yul\":5608:5634   */\n      swap1\n      pop\n        /* \"#utility.yul\":5644:5715   */\n      tag_185\n        /* \"#utility.yul\":5712:5713   */\n      0x00\n        /* \"#utility.yul\":5701:5710   */\n      dup4\n        /* \"#utility.yul\":5697:5714   */\n      add\n        /* \"#utility.yul\":5688:5694   */\n      dup5\n        /* \"#utility.yul\":5644:5715   */\n      tag_93\n      jump\t// in\n    tag_185:\n        /* \"#utility.yul\":5500:5722   */\n      swap3\n      swap2\n      pop\n      pop\n      jump\t// out\n        /* \"#utility.yul\":5728:5805   */\n    tag_94:\n        /* \"#utility.yul\":5765:5772   */\n      0x00\n        /* \"#utility.yul\":5794:5799   */\n      dup2\n        /* \"#utility.yul\":5783:5799   */\n      swap1\n      pop\n        /* \"#utility.yul\":5728:5805   */\n      swap2\n      swap1\n      pop\n      jump\t// out\n        /* \"#utility.yul\":5811:5929   */\n    tag_95:\n        /* \"#utility.yul\":5898:5922   */\n      tag_188\n        /* \"#utility.yul\":5916:5921   */\n      dup2\n        /* \"#utility.yul\":5898:5922   */\n      tag_94\n      jump\t// in\n    tag_188:\n        /* \"#utility.yul\":5893:5896   */\n      dup3\n        /* \"#utility.yul\":5886:5923   */\n      mstore\n        /* \"#utility.yul\":5811:5929   */\n      pop\n      pop\n      jump\t// out\n        /* \"#utility.yul\":5935:6157   */\n    tag_28:\n        /* \"#utility.yul\":6028:6032   */\n      0x00\n        /* \"#utility.yul\":6066:6068   */\n      0x20\n        /* \"#utility.yul\":6055:6064   */\n      dup3\n        /* \"#utility.yul\":6051:6069   */\n      add\n        /* \"#utility.yul\":6043:6069   */\n      swap1\n      pop\n        /* \"#utility.yul\":6079:6150   */\n      tag_190\n        /* \"#utility.yul\":6147:6148   */\n      0x00\n        /* \"#utility.yul\":6136:6145   */\n      dup4\n        /* \"#utility.yul\":6132:6149   */\n      add\n        /* \"#utility.yul\":6123:6129   */\n      dup5\n        /* \"#utility.yul\":6079:6150   */\n      tag_95\n      jump\t// in\n    tag_190:\n        /* \"#utility.yul\":5935:6157   */\n      swap3\n      swap2\n      pop\n      pop\n      jump\t// out\n        /* \"#utility.yul\":6163:6333   */\n    tag_96:\n        /* \"#utility.yul\":6303:6325   */\n      0x4e6f2073746f7261676520617661696c61626c65000000000000000000000000\n        /* \"#utility.yul\":6299:6300   */\n      0x00\n        /* \"#utility.yul\":6291:6297   */\n      dup3\n        /* \"#utility.yul\":6287:6301   */\n      add\n        /* \"#utility.yul\":6280:6326   */\n      mstore\n        /* \"#utility.yul\":6163:6333   */\n      pop\n      jump\t// out\n        /* \"#utility.yul\":6339:6705   */\n    tag_97:\n        /* \"#utility.yul\":6481:6484   */\n      0x00\n        /* \"#utility.yul\":6502:6569   */\n      tag_193\n        /* \"#utility.yul\":6566:6568   */\n      0x14\n        /* \"#utility.yul\":6561:6564   */\n      dup4\n        /* \"#utility.yul\":6502:6569   */\n      tag_88\n      jump\t// in\n    tag_193:\n        /* \"#utility.yul\":6495:6569   */\n      swap2\n      pop\n        /* \"#utility.yul\":6578:6671   */\n      tag_194\n        /* \"#utility.yul\":6667:6670   */\n      dup3\n        /* \"#utility.yul\":6578:6671   */\n      tag_96\n      jump\t// in\n    tag_194:\n        /* \"#utility.yul\":6696:6698   */\n      0x20\n        /* \"#utility.yul\":6691:6694   */\n      dup3\n        /* \"#utility.yul\":6687:6699   */\n      add\n        /* \"#utility.yul\":6680:6699   */\n      swap1\n      pop\n        /* \"#utility.yul\":6339:6705   */\n      swap2\n      swap1\n      pop\n      jump\t// out\n        /* \"#utility.yul\":6711:7130   */\n    tag_32:\n        /* \"#utility.yul\":6877:6881   */\n      0x00\n        /* \"#utility.yul\":6915:6917   */\n      0x20\n        /* \"#utility.yul\":6904:6913   */\n      dup3\n        /* \"#utility.yul\":6900:6918   */\n      add\n        /* \"#utility.yul\":6892:6918   */\n      swap1\n      pop\n        /* \"#utility.yul\":6964:6973   */\n      dup2\n        /* \"#utility.yul\":6958:6962   */\n      dup2\n        /* \"#utility.yul\":6954:6974   */\n      sub\n        /* \"#utility.yul\":6950:6951   */\n      0x00\n        /* \"#utility.yul\":6939:6948   */\n      dup4\n        /* \"#utility.yul\":6935:6952   */\n      add\n        /* \"#utility.yul\":6928:6975   */\n      mstore\n        /* \"#utility.yul\":6992:7123   */\n      tag_196\n        /* \"#utility.yul\":7118:7122   */\n      dup2\n        /* \"#utility.yul\":6992:7123   */\n      tag_97\n      jump\t// in\n    tag_196:\n        /* \"#utility.yul\":6984:7123   */\n      swap1\n      pop\n        /* \"#utility.yul\":6711:7130   */\n      swap2\n      swap1\n      pop\n      jump\t// out\n        /* \"#utility.yul\":7136:7284   */\n    tag_98:\n        /* \"#utility.yul\":7238:7249   */\n      0x00\n        /* \"#utility.yul\":7275:7278   */\n      dup2\n        /* \"#utility.yul\":7260:7278   */\n      swap1\n      pop\n        /* \"#utility.yul\":7136:7284   */\n      swap3\n      swap2\n      pop\n      pop\n      jump\t// out\n        /* \"#utility.yul\":7290:7680   */\n    tag_99:\n        /* \"#utility.yul\":7396:7399   */\n      0x00\n        /* \"#utility.yul\":7424:7463   */\n      tag_199\n        /* \"#utility.yul\":7457:7462   */\n      dup3\n        /* \"#utility.yul\":7424:7463   */\n      tag_87\n      jump\t// in\n    tag_199:\n        /* \"#utility.yul\":7479:7568   */\n      tag_200\n        /* \"#utility.yul\":7561:7567   */\n      dup2\n        /* \"#utility.yul\":7556:7559   */\n      dup6\n        /* \"#utility.yul\":7479:7568   */\n      tag_98\n      jump\t// in\n    tag_200:\n        /* \"#utility.yul\":7472:7568   */\n      swap4\n      pop\n        /* \"#utility.yul\":7577:7642   */\n      tag_201\n        /* \"#utility.yul\":7635:7641   */\n      dup2\n        /* \"#utility.yul\":7630:7633   */\n      dup6\n        /* \"#utility.yul\":7623:7627   */\n      0x20\n        /* \"#utility.yul\":7616:7621   */\n      dup7\n        /* \"#utility.yul\":7612:7628   */\n      add\n        /* \"#utility.yul\":7577:7642   */\n      tag_89\n      jump\t// in\n    tag_201:\n        /* \"#utility.yul\":7667:7673   */\n      dup1\n        /* \"#utility.yul\":7662:7665   */\n      dup5\n        /* \"#utility.yul\":7658:7674   */\n      add\n        /* \"#utility.yul\":7651:7674   */\n      swap2\n      pop\n        /* \"#utility.yul\":7400:7680   */\n      pop\n        /* \"#utility.yul\":7290:7680   */\n      swap3\n      swap2\n      pop\n      pop\n      jump\t// out\n        /* \"#utility.yul\":7686:7961   */\n    tag_34:\n        /* \"#utility.yul\":7818:7821   */\n      0x00\n        /* \"#utility.yul\":7840:7935   */\n      tag_203\n        /* \"#utility.yul\":7931:7934   */\n      dup3\n        /* \"#utility.yul\":7922:7928   */\n      dup5\n        /* \"#utility.yul\":7840:7935   */\n      tag_99\n      jump\t// in\n    tag_203:\n        /* \"#utility.yul\":7833:7935   */\n      swap2\n      pop\n        /* \"#utility.yul\":7952:7955   */\n      dup2\n        /* \"#utility.yul\":7945:7955   */\n      swap1\n      pop\n        /* \"#utility.yul\":7686:7961   */\n      swap3\n      swap2\n      pop\n      pop\n      jump\t// out\n        /* \"#utility.yul\":7967:8147   */\n    tag_100:\n        /* \"#utility.yul\":8015:8092   */\n      0x4e487b7100000000000000000000000000000000000000000000000000000000\n        /* \"#utility.yul\":8012:8013   */\n      0x00\n        /* \"#utility.yul\":8005:8093   */\n      mstore\n        /* \"#utility.yul\":8112:8116   */\n      0x22\n        /* \"#utility.yul\":8109:8110   */\n      0x04\n        /* \"#utility.yul\":8102:8117   */\n      mstore\n        /* \"#utility.yul\":8136:8140   */\n      0x24\n        /* \"#utility.yul\":8133:8134   */\n      0x00\n        /* \"#utility.yul\":8126:8141   */\n      revert\n        /* \"#utility.yul\":8153:8473   */\n    tag_44:\n        /* \"#utility.yul\":8197:8203   */\n      0x00\n        /* \"#utility.yul\":8234:8235   */\n      0x02\n        /* \"#utility.yul\":8228:8232   */\n      dup3\n        /* \"#utility.yul\":8224:8236   */\n      div\n        /* \"#utility.yul\":8214:8236   */\n      swap1\n      pop\n        /* \"#utility.yul\":8281:8282   */\n      0x01\n        /* \"#utility.yul\":8275:8279   */\n      dup3\n        /* \"#utility.yul\":8271:8283   */\n      and\n        /* \"#utility.yul\":8302:8320   */\n      dup1\n        /* \"#utility.yul\":8292:8373   */\n      tag_206\n      jumpi\n        /* \"#utility.yul\":8358:8362   */\n      0x7f\n        /* \"#utility.yul\":8350:8356   */\n      dup3\n        /* \"#utility.yul\":8346:8363   */\n      and\n        /* \"#utility.yul\":8336:8363   */\n      swap2\n      pop\n        /* \"#utility.yul\":8292:8373   */\n    tag_206:\n        /* \"#utility.yul\":8420:8422   */\n      0x20\n        /* \"#utility.yul\":8412:8418   */\n      dup3\n        /* \"#utility.yul\":8409:8423   */\n      lt\n        /* \"#utility.yul\":8389:8407   */\n      dup2\n        /* \"#utility.yul\":8386:8424   */\n      sub\n        /* \"#utility.yul\":8383:8467   */\n      tag_207\n      jumpi\n        /* \"#utility.yul\":8439:8457   */\n      tag_208\n      tag_100\n      jump\t// in\n    tag_208:\n        /* \"#utility.yul\":8383:8467   */\n    tag_207:\n        /* \"#utility.yul\":8204:8473   */\n      pop\n        /* \"#utility.yul\":8153:8473   */\n      swap2\n      swap1\n      pop\n      jump\t// out\n        /* \"#utility.yul\":8479:8620   */\n    tag_101:\n        /* \"#utility.yul\":8528:8532   */\n      0x00\n        /* \"#utility.yul\":8551:8554   */\n      dup2\n        /* \"#utility.yul\":8543:8554   */\n      swap1\n      pop\n        /* \"#utility.yul\":8574:8577   */\n      dup2\n        /* \"#utility.yul\":8571:8572   */\n      0x00\n        /* \"#utility.yul\":8564:8578   */\n      mstore\n        /* \"#utility.yul\":8608:8612   */\n      0x20\n        /* \"#utility.yul\":8605:8606   */\n      0x00\n        /* \"#utility.yul\":8595:8613   */\n      keccak256\n        /* \"#utility.yul\":8587:8613   */\n      swap1\n      pop\n        /* \"#utility.yul\":8479:8620   */\n      swap2\n      swap1\n      pop\n      jump\t// out\n        /* \"#utility.yul\":8626:8719   */\n    tag_102:\n        /* \"#utility.yul\":8663:8669   */\n      0x00\n        /* \"#utility.yul\":8710:8712   */\n      0x20\n        /* \"#utility.yul\":8705:8707   */\n      0x1f\n        /* \"#utility.yul\":8698:8703   */\n      dup4\n        /* \"#utility.yul\":8694:8708   */\n      add\n        /* \"#utility.yul\":8690:8713   */\n      div\n        /* \"#utility.yul\":8680:8713   */\n      swap1\n      pop\n        /* \"#utility.yul\":8626:8719   */\n      swap2\n      swap1\n      pop\n      jump\t// out\n        /* \"#utility.yul\":8725:8832   */\n    tag_103:\n        /* \"#utility.yul\":8769:8777   */\n      0x00\n        /* \"#utility.yul\":8819:8824   */\n      dup3\n        /* \"#utility.yul\":8813:8817   */\n      dup3\n        /* \"#utility.yul\":8809:8825   */\n      shl\n        /* \"#utility.yul\":8788:8825   */\n      swap1\n      pop\n        /* \"#utility.yul\":8725:8832   */\n      swap3\n      swap2\n      pop\n      pop\n      jump\t// out\n        /* \"#utility.yul\":8838:9231   */\n    tag_104:\n        /* \"#utility.yul\":8907:8913   */\n      0x00\n        /* \"#utility.yul\":8957:8958   */\n      0x08\n        /* \"#utility.yul\":8945:8955   */\n      dup4\n        /* \"#utility.yul\":8941:8959   */\n      mul\n        /* \"#utility.yul\":8980:9077   */\n      tag_213\n        /* \"#utility.yul\":9010:9076   */\n      0xffffffffffffffffffffffffffffffffffffffffffffffffffffffffffffffff\n        /* \"#utility.yul\":8999:9008   */\n      dup3\n        /* \"#utility.yul\":8980:9077   */\n      tag_103\n      jump\t// in\n    tag_213:\n        /* \"#utility.yul\":9098:9137   */\n      tag_214\n        /* \"#utility.yul\":9128:9136   */\n      dup7\n        /* \"#utility.yul\":9117:9126   */\n      dup4\n        /* \"#utility.yul\":9098:9137   */\n      tag_103\n      jump\t// in\n    tag_214:\n        /* \"#utility.yul\":9086:9137   */\n      swap6\n      pop\n        /* \"#utility.yul\":9170:9174   */\n      dup1\n        /* \"#utility.yul\":9166:9175   */\n      not\n        /* \"#utility.yul\":9159:9164   */\n      dup5\n        /* \"#utility.yul\":9155:9176   */\n      and\n        /* \"#utility.yul\":9146:9176   */\n      swap4\n      pop\n        /* \"#utility.yul\":9219:9223   */\n      dup1\n        /* \"#utility.yul\":9209:9217   */\n      dup7\n        /* \"#utility.yul\":9205:9224   */\n      and\n        /* \"#utility.yul\":9198:9203   */\n      dup5\n        /* \"#utility.yul\":9195:9225   */\n      or\n        /* \"#utility.yul\":9185:9225   */\n      swap3\n      pop\n        /* \"#utility.yul\":8914:9231   */\n      pop\n      pop\n        /* \"#utility.yul\":8838:9231   */\n      swap4\n      swap3\n      pop\n      pop\n      pop\n      jump\t// out\n        /* \"#utility.yul\":9237:9297   */\n    tag_105:\n        /* \"#utility.yul\":9265:9268   */\n      0x00\n        /* \"#utility.yul\":9286:9291   */\n      dup2\n        /* \"#utility.yul\":9279:9291   */\n      swap1\n      pop\n        /* \"#utility.yul\":9237:9297   */\n      swap2\n      swap1\n      pop\n      jump\t// out\n        /* \"#utility.yul\":9303:9445   */\n    tag_106:\n        /* \"#utility.yul\":9353:9362   */\n      0x00\n        /* \"#utility.yul\":9386:9439   */\n      tag_217\n        /* \"#utility.yul\":9404:9438   */\n      tag_218\n        /* \"#utility.yul\":9413:9437   */\n      tag_219\n        /* \"#utility.yul\":9431:9436   */\n      dup5\n        /* \"#utility.yul\":9413:9437   */\n      tag_94\n      jump\t// in\n    tag_219:\n        /* \"#utility.yul\":9404:9438   */\n      tag_105\n      jump\t// in\n    tag_218:\n        /* \"#utility.yul\":9386:9439   */\n      tag_94\n      jump\t// in\n    tag_217:\n        /* \"#utility.yul\":9373:9439   */\n      swap1\n      pop\n        /* \"#utility.yul\":9303:9445   */\n      swap2\n      swap1\n      pop\n      jump\t// out\n        /* \"#utility.yul\":9451:9526   */\n    tag_107:\n        /* \"#utility.yul\":9494:9497   */\n      0x00\n        /* \"#utility.yul\":9515:9520   */\n      dup2\n        /* \"#utility.yul\":9508:9520   */\n      swap1\n      pop\n        /* \"#utility.yul\":9451:9526   */\n      swap2\n      swap1\n      pop\n      jump\t// out\n        /* \"#utility.yul\":9532:9801   */\n    tag_108:\n        /* \"#utility.yul\":9642:9681   */\n      tag_222\n        /* \"#utility.yul\":9673:9680   */\n      dup4\n        /* \"#utility.yul\":9642:9681   */\n      tag_106\n      jump\t// in\n    tag_222:\n        /* \"#utility.yul\":9703:9794   */\n      tag_223\n        /* \"#utility.yul\":9752:9793   */\n      tag_224\n        /* \"#utility.yul\":9776:9792   */\n      dup3\n        /* \"#utility.yul\":9752:9793   */\n      tag_107\n      jump\t// in\n    tag_224:\n        /* \"#utility.yul\":9744:9750   */\n      dup5\n        /* \"#utility.yul\":9737:9741   */\n      dup5\n        /* \"#utility.yul\":9731:9742   */\n      sload\n        /* \"#utility.yul\":9703:9794   */\n      tag_104\n      jump\t// in\n    tag_223:\n        /* \"#utility.yul\":9697:9701   */\n      dup3\n        /* \"#utility.yul\":9690:9795   */\n      sstore\n        /* \"#utility.yul\":9608:9801   */\n      pop\n        /* \"#utility.yul\":9532:9801   */\n      pop\n      pop\n      pop\n      jump\t// out\n        /* \"#utility.yul\":9807:9880   */\n    tag_109:\n        /* \"#utility.yul\":9852:9855   */\n      0x00\n        /* \"#utility.yul\":9807:9880   */\n      swap1\n      jump\t// out\n        /* \"#utility.yul\":9886:10075   */\n    tag_110:\n        /* \"#utility.yul\":9963:9995   */\n      tag_227\n      tag_109\n      jump\t// in\n    tag_227:\n        /* \"#utility.yul\":10004:10069   */\n      tag_228\n        /* \"#utility.yul\":10062:10068   */\n      dup2\n        /* \"#utility.yul\":10054:10060   */\n      dup5\n        /* \"#utility.yul\":10048:10052   */\n      dup5\n        /* \"#utility.yul\":10004:10069   */\n      tag_108\n      jump\t// in\n    tag_228:\n        /* \"#utility.yul\":9939:10075   */\n      pop\n        /* \"#utility.yul\":9886:10075   */\n      pop\n      pop\n      jump\t// out\n        /* \"#utility.yul\":10081:10267   */\n    tag_111:\n        /* \"#utility.yul\":10141:10261   */\n    tag_230:\n        /* \"#utility.yul\":10158:10161   */\n      dup2\n        /* \"#utility.yul\":10151:10156   */\n      dup2\n        /* \"#utility.yul\":10148:10162   */\n      lt\n        /* \"#utility.yul\":10141:10261   */\n      iszero\n      tag_232\n      jumpi\n        /* \"#utility.yul\":10212:10251   */\n      tag_233\n        /* \"#utility.yul\":10249:10250   */\n      0x00\n        /* \"#utility.yul\":10242:10247   */\n      dup3\n        /* \"#utility.yul\":10212:10251   */\n      tag_110\n      jump\t// in\n    tag_233:\n        /* \"#utility.yul\":10185:10186   */\n      0x01\n        /* \"#utility.yul\":10178:10183   */\n      dup2\n        /* \"#utility.yul\":10174:10187   */\n      add\n        /* \"#utility.yul\":10165:10187   */\n      swap1\n      pop\n        /* \"#utility.yul\":10141:10261   */\n      jump(tag_230)\n    tag_232:\n        /* \"#utility.yul\":10081:10267   */\n      pop\n      pop\n      jump\t// out\n        /* \"#utility.yul\":10273:10816   */\n    tag_112:\n        /* \"#utility.yul\":10374:10376   */\n      0x1f\n        /* \"#utility.yul\":10369:10372   */\n      dup3\n        /* \"#utility.yul\":10366:10377   */\n      gt\n        /* \"#utility.yul\":10363:10809   */\n      iszero\n      tag_235\n      jumpi\n        /* \"#utility.yul\":10408:10446   */\n      tag_236\n        /* \"#utility.yul\":10440:10445   */\n      dup2\n        /* \"#utility.yul\":10408:10446   */\n      tag_101\n      jump\t// in\n    tag_236:\n        /* \"#utility.yul\":10492:10521   */\n      tag_237\n        /* \"#utility.yul\":10510:10520   */\n      dup5\n        /* \"#utility.yul\":10492:10521   */\n      tag_102\n      jump\t// in\n    tag_237:\n        /* \"#utility.yul\":10482:10490   */\n      dup2\n        /* \"#utility.yul\":10478:10522   */\n      add\n        /* \"#utility.yul\":10675:10677   */\n      0x20\n        /* \"#utility.yul\":10663:10673   */\n      dup6\n        /* \"#utility.yul\":10660:10678   */\n      lt\n        /* \"#utility.yul\":10657:10706   */\n      iszero\n      tag_238\n      jumpi\n        /* \"#utility.yul\":10696:10704   */\n      dup2\n        /* \"#utility.yul\":10681:10704   */\n      swap1\n      pop\n        /* \"#utility.yul\":10657:10706   */\n    tag_238:\n        /* \"#utility.yul\":10719:10799   */\n      tag_239\n        /* \"#utility.yul\":10775:10797   */\n      tag_240\n        /* \"#utility.yul\":10793:10796   */\n      dup6\n        /* \"#utility.yul\":10775:10797   */\n      tag_102\n      jump\t// in\n    tag_240:\n        /* \"#utility.yul\":10765:10773   */\n      dup4\n        /* \"#utility.yul\":10761:10798   */\n      add\n        /* \"#utility.yul\":10748:10759   */\n      dup3\n        /* \"#utility.yul\":10719:10799   */\n      tag_111\n      jump\t// in\n    tag_239:\n        /* \"#utility.yul\":10378:10809   */\n      pop\n      pop\n        /* \"#utility.yul\":10363:10809   */\n    tag_235:\n        /* \"#utility.yul\":10273:10816   */\n      pop\n      pop\n      pop\n      jump\t// out\n        /* \"#utility.yul\":10822:10939   */\n    tag_113:\n        /* \"#utility.yul\":10876:10884   */\n      0x00\n        /* \"#utility.yul\":10926:10931   */\n      dup3\n        /* \"#utility.yul\":10920:10924   */\n      dup3\n        /* \"#utility.yul\":10916:10932   */\n      shr\n        /* \"#utility.yul\":10895:10932   */\n      swap1\n      pop\n        /* \"#utility.yul\":10822:10939   */\n      swap3\n      swap2\n      pop\n      pop\n      jump\t// out\n        /* \"#utility.yul\":10945:11114   */\n    tag_114:\n        /* \"#utility.yul\":10989:10995   */\n      0x00\n        /* \"#utility.yul\":11022:11073   */\n      tag_243\n        /* \"#utility.yul\":11070:11071   */\n      0x00\n        /* \"#utility.yul\":11066:11072   */\n      not\n        /* \"#utility.yul\":11058:11063   */\n      dup5\n        /* \"#utility.yul\":11055:11056   */\n      0x08\n        /* \"#utility.yul\":11051:11064   */\n      mul\n        /* \"#utility.yul\":11022:11073   */\n      tag_113\n      jump\t// in\n    tag_243:\n        /* \"#utility.yul\":11018:11074   */\n      not\n        /* \"#utility.yul\":11103:11107   */\n      dup1\n        /* \"#utility.yul\":11097:11101   */\n      dup4\n        /* \"#utility.yul\":11093:11108   */\n      and\n        /* \"#utility.yul\":11083:11108   */\n      swap2\n      pop\n        /* \"#utility.yul\":10996:11114   */\n      pop\n        /* \"#utility.yul\":10945:11114   */\n      swap3\n      swap2\n      pop\n      pop\n      jump\t// out\n        /* \"#utility.yul\":11119:11414   */\n    tag_115:\n        /* \"#utility.yul\":11195:11199   */\n      0x00\n        /* \"#utility.yul\":11341:11370   */\n      tag_245\n        /* \"#utility.yul\":11366:11369   */\n      dup4\n        /* \"#utility.yul\":11360:11364   */\n      dup4\n        /* \"#utility.yul\":11341:11370   */\n      tag_114\n      jump\t// in\n    tag_245:\n        /* \"#utility.yul\":11333:11370   */\n      swap2\n      pop\n        /* \"#utility.yul\":11403:11406   */\n      dup3\n        /* \"#utility.yul\":11400:11401   */\n      0x02\n        /* \"#utility.yul\":11396:11407   */\n      mul\n        /* \"#utility.yul\":11390:11394   */\n      dup3\n        /* \"#utility.yul\":11387:11408   */\n      or\n        /* \"#utility.yul\":11379:11408   */\n      swap1\n      pop\n        /* \"#utility.yul\":11119:11414   */\n      swap3\n      swap2\n      pop\n      pop\n      jump\t// out\n        /* \"#utility.yul\":11419:12814   */\n    tag_36:\n        /* \"#utility.yul\":11536:11573   */\n      tag_247\n        /* \"#utility.yul\":11569:11572   */\n      dup3\n        /* \"#utility.yul\":11536:11573   */\n      tag_87\n      jump\t// in\n    tag_247:\n        /* \"#utility.yul\":11638:11656   */\n      0xffffffffffffffff\n        /* \"#utility.yul\":11630:11636   */\n      dup2\n        /* \"#utility.yul\":11627:11657   */\n      gt\n        /* \"#utility.yul\":11624:11680   */\n      iszero\n      tag_248\n      jumpi\n        /* \"#utility.yul\":11660:11678   */\n      tag_249\n      tag_80\n      jump\t// in\n    tag_249:\n        /* \"#utility.yul\":11624:11680   */\n    tag_248:\n        /* \"#utility.yul\":11704:11742   */\n      tag_250\n        /* \"#utility.yul\":11736:11740   */\n      dup3\n        /* \"#utility.yul\":11730:11741   */\n      sload\n        /* \"#utility.yul\":11704:11742   */\n      tag_44\n      jump\t// in\n    tag_250:\n        /* \"#utility.yul\":11789:11856   */\n      tag_251\n        /* \"#utility.yul\":11849:11855   */\n      dup3\n        /* \"#utility.yul\":11841:11847   */\n      dup3\n        /* \"#utility.yul\":11835:11839   */\n      dup6\n        /* \"#utility.yul\":11789:11856   */\n      tag_112\n      jump\t// in\n    tag_251:\n        /* \"#utility.yul\":11883:11884   */\n      0x00\n        /* \"#utility.yul\":11907:11911   */\n      0x20\n        /* \"#utility.yul\":11894:11911   */\n      swap1\n      pop\n        /* \"#utility.yul\":11939:11941   */\n      0x1f\n        /* \"#utility.yul\":11931:11937   */\n      dup4\n        /* \"#utility.yul\":11928:11942   */\n      gt\n        /* \"#utility.yul\":11956:11957   */\n      0x01\n        /* \"#utility.yul\":11951:12569   */\n      dup2\n      eq\n      tag_253\n      jumpi\n        /* \"#utility.yul\":12613:12614   */\n      0x00\n        /* \"#utility.yul\":12630:12636   */\n      dup5\n        /* \"#utility.yul\":12627:12704   */\n      iszero\n      tag_254\n      jumpi\n        /* \"#utility.yul\":12679:12688   */\n      dup3\n        /* \"#utility.yul\":12674:12677   */\n      dup8\n        /* \"#utility.yul\":12670:12689   */\n      add\n        /* \"#utility.yul\":12664:12690   */\n      mload\n        /* \"#utility.yul\":12655:12690   */\n      swap1\n      pop\n        /* \"#utility.yul\":12627:12704   */\n    tag_254:\n        /* \"#utility.yul\":12730:12797   */\n      tag_255\n        /* \"#utility.yul\":12790:12796   */\n      dup6\n        /* \"#utility.yul\":12783:12788   */\n      dup3\n        /* \"#utility.yul\":12730:12797   */\n      tag_115\n      jump\t// in\n    tag_255:\n        /* \"#utility.yul\":12724:12728   */\n      dup7\n        /* \"#utility.yul\":12717:12798   */\n      sstore\n        /* \"#utility.yul\":12586:12808   */\n      pop\n        /* \"#utility.yul\":11921:12808   */\n      jump(tag_252)\n        /* \"#utility.yul\":11951:12569   */\n    tag_253:\n        /* \"#utility.yul\":12003:12007   */\n      0x1f\n        /* \"#utility.yul\":11999:12008   */\n      not\n        /* \"#utility.yul\":11991:11997   */\n      dup5\n        /* \"#utility.yul\":11987:12009   */\n      and\n        /* \"#utility.yul\":12037:12074   */\n      tag_256\n        /* \"#utility.yul\":12069:12073   */\n      dup7\n        /* \"#utility.yul\":12037:12074   */\n      tag_101\n      jump\t// in\n    tag_256:\n        /* \"#utility.yul\":12096:12097   */\n      0x00\n        /* \"#utility.yul\":12110:12318   */\n    tag_257:\n        /* \"#utility.yul\":12124:12131   */\n      dup3\n        /* \"#utility.yul\":12121:12122   */\n      dup2\n        /* \"#utility.yul\":12118:12132   */\n      lt\n        /* \"#utility.yul\":12110:12318   */\n      iszero\n      tag_259\n      jumpi\n        /* \"#utility.yul\":12203:12212   */\n      dup5\n        /* \"#utility.yul\":12198:12201   */\n      dup10\n        /* \"#utility.yul\":12194:12213   */\n      add\n        /* \"#utility.yul\":12188:12214   */\n      mload\n        /* \"#utility.yul\":12180:12186   */\n      dup3\n        /* \"#utility.yul\":12173:12215   */\n      sstore\n        /* \"#utility.yul\":12254:12255   */\n      0x01\n        /* \"#utility.yul\":12246:12252   */\n      dup3\n        /* \"#utility.yul\":12242:12256   */\n      add\n        /* \"#utility.yul\":12232:12256   */\n      swap2\n      pop\n        /* \"#utility.yul\":12301:12303   */\n      0x20\n        /* \"#utility.yul\":12290:12299   */\n      dup6\n        /* \"#utility.yul\":12286:12304   */\n      add\n        /* \"#utility.yul\":12273:12304   */\n      swap5\n      pop\n        /* \"#utility.yul\":12147:12151   */\n      0x20\n        /* \"#utility.yul\":12144:12145   */\n      dup2\n        /* \"#utility.yul\":12140:12152   */\n      add\n        /* \"#utility.yul\":12135:12152   */\n      swap1\n      pop\n        /* \"#utility.yul\":12110:12318   */\n      jump(tag_257)\n    tag_259:\n        /* \"#utility.yul\":12346:12352   */\n      dup7\n        /* \"#utility.yul\":12337:12344   */\n      dup4\n        /* \"#utility.yul\":12334:12353   */\n      lt\n        /* \"#utility.yul\":12331:12510   */\n      iszero\n      tag_260\n      jumpi\n        /* \"#utility.yul\":12404:12413   */\n      dup5\n        /* \"#utility.yul\":12399:12402   */\n      dup10\n        /* \"#utility.yul\":12395:12414   */\n      add\n        /* \"#utility.yul\":12389:12415   */\n      mload\n        /* \"#utility.yul\":12447:12495   */\n      tag_261\n        /* \"#utility.yul\":12489:12493   */\n      0x1f\n        /* \"#utility.yul\":12481:12487   */\n      dup10\n        /* \"#utility.yul\":12477:12494   */\n      and\n        /* \"#utility.yul\":12466:12475   */\n      dup3\n        /* \"#utility.yul\":12447:12495   */\n      tag_114\n      jump\t// in\n    tag_261:\n        /* \"#utility.yul\":12439:12445   */\n      dup4\n        /* \"#utility.yul\":12432:12496   */\n      sstore\n        /* \"#utility.yul\":12354:12510   */\n      pop\n        /* \"#utility.yul\":12331:12510   */\n    tag_260:\n        /* \"#utility.yul\":12556:12557   */\n      0x01\n        /* \"#utility.yul\":12552:12553   */\n      0x02\n        /* \"#utility.yul\":12544:12550   */\n      dup9\n        /* \"#utility.yul\":12540:12554   */\n      mul\n        /* \"#utility.yul\":12536:12558   */\n      add\n        /* \"#utility.yul\":12530:12534   */\n      dup9\n        /* \"#utility.yul\":12523:12559   */\n      sstore\n        /* \"#utility.yul\":11958:12569   */\n      pop\n      pop\n      pop\n        /* \"#utility.yul\":11921:12808   */\n    tag_252:\n      pop\n        /* \"#utility.yul\":11511:12814   */\n      pop\n      pop\n      pop\n        /* \"#utility.yul\":11419:12814   */\n      pop\n      pop\n      jump\t// out\n        /* \"#utility.yul\":12820:13000   */\n    tag_116:\n        /* \"#utility.yul\":12868:12945   */\n      0x4e487b7100000000000000000000000000000000000000000000000000000000\n        /* \"#utility.yul\":12865:12866   */\n      0x00\n        /* \"#utility.yul\":12858:12946   */\n      mstore\n        /* \"#utility.yul\":12965:12969   */\n      0x11\n        /* \"#utility.yul\":12962:12963   */\n      0x04\n        /* \"#utility.yul\":12955:12970   */\n      mstore\n        /* \"#utility.yul\":12989:12993   */\n      0x24\n        /* \"#utility.yul\":12986:12987   */\n      0x00\n        /* \"#utility.yul\":12979:12994   */\n      revert\n        /* \"#utility.yul\":13006:13200   */\n    tag_38:\n        /* \"#utility.yul\":13046:13050   */\n      0x00\n        /* \"#utility.yul\":13066:13086   */\n      tag_264\n        /* \"#utility.yul\":13084:13085   */\n      dup3\n        /* \"#utility.yul\":13066:13086   */\n      tag_94\n      jump\t// in\n    tag_264:\n        /* \"#utility.yul\":13061:13086   */\n      swap2\n      pop\n        /* \"#utility.yul\":13100:13120   */\n      tag_265\n        /* \"#utility.yul\":13118:13119   */\n      dup4\n        /* \"#utility.yul\":13100:13120   */\n      tag_94\n      jump\t// in\n    tag_265:\n        /* \"#utility.yul\":13095:13120   */\n      swap3\n      pop\n        /* \"#utility.yul\":13144:13145   */\n      dup3\n        /* \"#utility.yul\":13141:13142   */\n      dup3\n        /* \"#utility.yul\":13137:13146   */\n      sub\n        /* \"#utility.yul\":13129:13146   */\n      swap1\n      pop\n        /* \"#utility.yul\":13168:13169   */\n      dup2\n        /* \"#utility.yul\":13162:13166   */\n      dup2\n        /* \"#utility.yul\":13159:13170   */\n      gt\n        /* \"#utility.yul\":13156:13193   */\n      iszero\n      tag_266\n      jumpi\n        /* \"#utility.yul\":13173:13191   */\n      tag_267\n      tag_116\n      jump\t// in\n    tag_267:\n        /* \"#utility.yul\":13156:13193   */\n    tag_266:\n        /* \"#utility.yul\":13006:13200   */\n      swap3\n      swap2\n      pop\n      pop\n      jump\t// out\n        /* \"#utility.yul\":13206:13739   */\n    tag_40:\n        /* \"#utility.yul\":13375:13379   */\n      0x00\n        /* \"#utility.yul\":13413:13415   */\n      0x60\n        /* \"#utility.yul\":13402:13411   */\n      dup3\n        /* \"#utility.yul\":13398:13416   */\n      add\n        /* \"#utility.yul\":13390:13416   */\n      swap1\n      pop\n        /* \"#utility.yul\":13462:13471   */\n      dup2\n        /* \"#utility.yul\":13456:13460   */\n      dup2\n        /* \"#utility.yul\":13452:13472   */\n      sub\n        /* \"#utility.yul\":13448:13449   */\n      0x00\n        /* \"#utility.yul\":13437:13446   */\n      dup4\n        /* \"#utility.yul\":13433:13450   */\n      add\n        /* \"#utility.yul\":13426:13473   */\n      mstore\n        /* \"#utility.yul\":13490:13568   */\n      tag_269\n        /* \"#utility.yul\":13563:13567   */\n      dup2\n        /* \"#utility.yul\":13554:13560   */\n      dup7\n        /* \"#utility.yul\":13490:13568   */\n      tag_90\n      jump\t// in\n    tag_269:\n        /* \"#utility.yul\":13482:13568   */\n      swap1\n      pop\n        /* \"#utility.yul\":13578:13650   */\n      tag_270\n        /* \"#utility.yul\":13646:13648   */\n      0x20\n        /* \"#utility.yul\":13635:13644   */\n      dup4\n        /* \"#utility.yul\":13631:13649   */\n      add\n        /* \"#utility.yul\":13622:13628   */\n      dup6\n        /* \"#utility.yul\":13578:13650   */\n      tag_95\n      jump\t// in\n    tag_270:\n        /* \"#utility.yul\":13660:13732   */\n      tag_271\n        /* \"#utility.yul\":13728:13730   */\n      0x40\n        /* \"#utility.yul\":13717:13726   */\n      dup4\n        /* \"#utility.yul\":13713:13731   */\n      add\n        /* \"#utility.yul\":13704:13710   */\n      dup5\n        /* \"#utility.yul\":13660:13732   */\n      tag_95\n      jump\t// in\n    tag_271:\n        /* \"#utility.yul\":13206:13739   */\n      swap5\n      swap4\n      pop\n      pop\n      pop\n      pop\n      jump\t// out\n        /* \"#utility.yul\":13745:13910   */\n    tag_117:\n        /* \"#utility.yul\":13885:13902   */\n      0x556e61757468656e746963617465640000000000000000000000000000000000\n        /* \"#utility.yul\":13881:13882   */\n      0x00\n        /* \"#utility.yul\":13873:13879   */\n      dup3\n        /* \"#utility.yul\":13869:13883   */\n      add\n        /* \"#utility.yul\":13862:13903   */\n      mstore\n        /* \"#utility.yul\":13745:13910   */\n      pop\n      jump\t// out\n        /* \"#utility.yul\":13916:14282   */\n    tag_118:\n        /* \"#utility.yul\":14058:14061   */\n      0x00\n        /* \"#utility.yul\":14079:14146   */\n      tag_274\n        /* \"#utility.yul\":14143:14145   */\n      0x0f\n        /* \"#utility.yul\":14138:14141   */\n      dup4\n        /* \"#utility.yul\":14079:14146   */\n      tag_88\n      jump\t// in\n    tag_274:\n        /* \"#utility.yul\":14072:14146   */\n      swap2\n      pop\n        /* \"#utility.yul\":14155:14248   */\n      tag_275\n        /* \"#utility.yul\":14244:14247   */\n      dup3\n        /* \"#utility.yul\":14155:14248   */\n      tag_117\n      jump\t// in\n    tag_275:\n        /* \"#utility.yul\":14273:14275   */\n      0x20\n        /* \"#utility.yul\":14268:14271   */\n      dup3\n        /* \"#utility.yul\":14264:14276   */\n      add\n        /* \"#utility.yul\":14257:14276   */\n      swap1\n      pop\n        /* \"#utility.yul\":13916:14282   */\n      swap2\n      swap1\n      pop\n      jump\t// out\n        /* \"#utility.yul\":14288:14707   */\n    tag_52:\n        /* \"#utility.yul\":14454:14458   */\n      0x00\n        /* \"#utility.yul\":14492:14494   */\n      0x20\n        /* \"#utility.yul\":14481:14490   */\n      dup3\n        /* \"#utility.yul\":14477:14495   */\n      add\n        /* \"#utility.yul\":14469:14495   */\n      swap1\n      pop\n        /* \"#utility.yul\":14541:14550   */\n      dup2\n        /* \"#utility.yul\":14535:14539   */\n      dup2\n        /* \"#utility.yul\":14531:14551   */\n      sub\n        /* \"#utility.yul\":14527:14528   */\n      0x00\n        /* \"#utility.yul\":14516:14525   */\n      dup4\n        /* \"#utility.yul\":14512:14529   */\n      add\n        /* \"#utility.yul\":14505:14552   */\n      mstore\n        /* \"#utility.yul\":14569:14700   */\n      tag_277\n        /* \"#utility.yul\":14695:14699   */\n      dup2\n        /* \"#utility.yul\":14569:14700   */\n      tag_118\n      jump\t// in\n    tag_277:\n        /* \"#utility.yul\":14561:14700   */\n      swap1\n      pop\n        /* \"#utility.yul\":14288:14707   */\n      swap2\n      swap1\n      pop\n      jump\t// out\n        /* \"#utility.yul\":14713:14877   */\n    tag_119:\n        /* \"#utility.yul\":14853:14869   */\n      0x46696c65206e6f7420666f756e64000000000000000000000000000000000000\n        /* \"#utility.yul\":14849:14850   */\n      0x00\n        /* \"#utility.yul\":14841:14847   */\n      dup3\n        /* \"#utility.yul\":14837:14851   */\n      add\n        /* \"#utility.yul\":14830:14870   */\n      mstore\n        /* \"#utility.yul\":14713:14877   */\n      pop\n      jump\t// out\n        /* \"#utility.yul\":14883:15249   */\n    tag_120:\n        /* \"#utility.yul\":15025:15028   */\n      0x00\n        /* \"#utility.yul\":15046:15113   */\n      tag_280\n        /* \"#utility.yul\":15110:15112   */\n      0x0e\n        /* \"#utility.yul\":15105:15108   */\n      dup4\n        /* \"#utility.yul\":15046:15113   */\n      tag_88\n      jump\t// in\n    tag_280:\n        /* \"#utility.yul\":15039:15113   */\n      swap2\n      pop\n        /* \"#utility.yul\":15122:15215   */\n      tag_281\n        /* \"#utility.yul\":15211:15214   */\n      dup3\n        /* \"#utility.yul\":15122:15215   */\n      tag_119\n      jump\t// in\n    tag_281:\n        /* \"#utility.yul\":15240:15242   */\n      0x20\n        /* \"#utility.yul\":15235:15238   */\n      dup3\n        /* \"#utility.yul\":15231:15243   */\n      add\n        /* \"#utility.yul\":15224:15243   */\n      swap1\n      pop\n        /* \"#utility.yul\":14883:15249   */\n      swap2\n      swap1\n      pop\n      jump\t// out\n        /* \"#utility.yul\":15255:15674   */\n    tag_58:\n        /* \"#utility.yul\":15421:15425   */\n      0x00\n        /* \"#utility.yul\":15459:15461   */\n      0x20\n        /* \"#utility.yul\":15448:15457   */\n      dup3\n        /* \"#utility.yul\":15444:15462   */\n      add\n        /* \"#utility.yul\":15436:15462   */\n      swap1\n      pop\n        /* \"#utility.yul\":15508:15517   */\n      dup2\n        /* \"#utility.yul\":15502:15506   */\n      dup2\n        /* \"#utility.yul\":15498:15518   */\n      sub\n        /* \"#utility.yul\":15494:15495   */\n      0x00\n        /* \"#utility.yul\":15483:15492   */\n      dup4\n        /* \"#utility.yul\":15479:15496   */\n      add\n        /* \"#utility.yul\":15472:15519   */\n      mstore\n        /* \"#utility.yul\":15536:15667   */\n      tag_283\n        /* \"#utility.yul\":15662:15666   */\n      dup2\n        /* \"#utility.yul\":15536:15667   */\n      tag_120\n      jump\t// in\n    tag_283:\n        /* \"#utility.yul\":15528:15667   */\n      swap1\n      pop\n        /* \"#utility.yul\":15255:15674   */\n      swap2\n      swap1\n      pop\n      jump\t// out\n        /* \"#utility.yul\":15680:15871   */\n    tag_65:\n        /* \"#utility.yul\":15720:15723   */\n      0x00\n        /* \"#utility.yul\":15739:15759   */\n      tag_285\n        /* \"#utility.yul\":15757:15758   */\n      dup3\n        /* \"#utility.yul\":15739:15759   */\n      tag_94\n      jump\t// in\n    tag_285:\n        /* \"#utility.yul\":15734:15759   */\n      swap2\n      pop\n        /* \"#utility.yul\":15773:15793   */\n      tag_286\n        /* \"#utility.yul\":15791:15792   */\n      dup4\n        /* \"#utility.yul\":15773:15793   */\n      tag_94\n      jump\t// in\n    tag_286:\n        /* \"#utility.yul\":15768:15793   */\n      swap3\n      pop\n        /* \"#utility.yul\":15816:15817   */\n      dup3\n        /* \"#utility.yul\":15813:15814   */\n      dup3\n        /* \"#utility.yul\":15809:15818   */\n      add\n        /* \"#utility.yul\":15802:15818   */\n      swap1\n      pop\n        /* \"#utility.yul\":15837:15840   */\n      dup1\n        /* \"#utility.yul\":15834:15835   */\n      dup3\n        /* \"#utility.yul\":15831:15841   */\n      gt\n        /* \"#utility.yul\":15828:15864   */\n      iszero\n      tag_287\n      jumpi\n        /* \"#utility.yul\":15844:15862   */\n      tag_288\n      tag_116\n      jump\t// in\n    tag_288:\n        /* \"#utility.yul\":15828:15864   */\n    tag_287:\n        /* \"#utility.yul\":15680:15871   */\n      swap3\n      swap2\n      pop\n      pop\n      jump\t// out\n\n    auxdata: 0xa26469706673582212205d87a89ae1f38e553cf1a8921f870e2faebda21dc18a465b8b14f95e8d84fbb464736f6c63430008160033\n}\n",
				"bytecode": {
					"linkReferences": {},
					"object": "608060405234801561000f575f80fd5b50604051610e13380380610e13833981810160405281019061003191906100b4565b335f806101000a81548173ffffffffffffffffffffffffffffffffffffffff021916908373ffffffffffffffffffffffffffffffffffffffff16021790555080600181905550506100df565b5f80fd5b5f819050919050565b61009381610081565b811461009d575f80fd5b50565b5f815190506100ae8161008a565b92915050565b5f602082840312156100c9576100c861007d565b5b5f6100d6848285016100a0565b91505092915050565b610d27806100ec5f395ff3fe608060405234801561000f575f80fd5b5060043610610055575f3560e01c806320de1070146100595780632804401c146100755780638da5cb5b146100a5578063a9910054146100c3578063e973baec146100df575b5f80fd5b610073600480360381019061006e91906105f1565b6100fd565b005b61008f600480360381019061008a9190610667565b6101cc565b60405161009c9190610728565b60405180910390f35b6100ad61027a565b6040516100ba9190610787565b60405180910390f35b6100dd60048036038101906100d89190610667565b61029d565b005b6100e7610446565b6040516100f491906107b8565b60405180910390f35b5f60015411610141576040517f08c379a00000000000000000000000000000000000000000000000000000000081526004016101389061081b565b60405180910390fd5b5f81519050816002846040516101579190610873565b908152602001604051809103902090816101719190610a83565b508060015f8282546101839190610b7f565b925050819055507fb124bd46c5501ef604216ceeff17be6e3badf75e294713b623e3300bfb250ae683826001546040516101bf93929190610bb2565b60405180910390a1505050565b60606002826040516101de9190610873565b908152602001604051809103902080546101f7906108b6565b80601f0160208091040260200160405190810160405280929190818152602001828054610223906108b6565b801561026e5780601f106102455761010080835404028352916020019161026e565b820191905f5260205f20905b81548152906001019060200180831161025157829003601f168201915b50505050509050919050565b5f8054906101000a900473ffffffffffffffffffffffffffffffffffffffff1681565b5f8054906101000a900473ffffffffffffffffffffffffffffffffffffffff1673ffffffffffffffffffffffffffffffffffffffff163373ffffffffffffffffffffffffffffffffffffffff161461032a576040517f08c379a000000000000000000000000000000000000000000000000000000000815260040161032190610c38565b60405180910390fd5b5f60028260405161033b9190610873565b90815260200160405180910390208054610354906108b6565b905011610396576040517f08c379a000000000000000000000000000000000000000000000000000000000815260040161038d90610ca0565b60405180910390fd5b5f6002826040516103a79190610873565b908152602001604051809103902080546103c0906108b6565b905090506002826040516103d49190610873565b90815260200160405180910390205f6103ed919061044c565b8060015f8282546103fe9190610cbe565b925050819055507fad47e2648532dbf20aa6e26f2743fe5ca7f79d7833b70ebc7e95e2aca3bb12c7828260015460405161043a93929190610bb2565b60405180910390a15050565b60015481565b508054610458906108b6565b5f825580601f106104695750610486565b601f0160209004905f5260205f20908101906104859190610489565b5b50565b5b808211156104a0575f815f90555060010161048a565b5090565b5f604051905090565b5f80fd5b5f80fd5b5f80fd5b5f80fd5b5f601f19601f8301169050919050565b7f4e487b71000000000000000000000000000000000000000000000000000000005f52604160045260245ffd5b610503826104bd565b810181811067ffffffffffffffff82111715610522576105216104cd565b5b80604052505050565b5f6105346104a4565b905061054082826104fa565b919050565b5f67ffffffffffffffff82111561055f5761055e6104cd565b5b610568826104bd565b9050602081019050919050565b828183375f83830152505050565b5f61059561059084610545565b61052b565b9050828152602081018484840111156105b1576105b06104b9565b5b6105bc848285610575565b509392505050565b5f82601f8301126105d8576105d76104b5565b5b81356105e8848260208601610583565b91505092915050565b5f8060408385031215610607576106066104ad565b5b5f83013567ffffffffffffffff811115610624576106236104b1565b5b610630858286016105c4565b925050602083013567ffffffffffffffff811115610651576106506104b1565b5b61065d858286016105c4565b9150509250929050565b5f6020828403121561067c5761067b6104ad565b5b5f82013567ffffffffffffffff811115610699576106986104b1565b5b6106a5848285016105c4565b91505092915050565b5f81519050919050565b5f82825260208201905092915050565b5f5b838110156106e55780820151818401526020810190506106ca565b5f8484015250505050565b5f6106fa826106ae565b61070481856106b8565b93506107148185602086016106c8565b61071d816104bd565b840191505092915050565b5f6020820190508181035f83015261074081846106f0565b905092915050565b5f73ffffffffffffffffffffffffffffffffffffffff82169050919050565b5f61077182610748565b9050919050565b61078181610767565b82525050565b5f60208201905061079a5f830184610778565b92915050565b5f819050919050565b6107b2816107a0565b82525050565b5f6020820190506107cb5f8301846107a9565b92915050565b7f4e6f2073746f7261676520617661696c61626c650000000000000000000000005f82015250565b5f6108056014836106b8565b9150610810826107d1565b602082019050919050565b5f6020820190508181035f830152610832816107f9565b9050919050565b5f81905092915050565b5f61084d826106ae565b6108578185610839565b93506108678185602086016106c8565b80840191505092915050565b5f61087e8284610843565b915081905092915050565b7f4e487b71000000000000000000000000000000000000000000000000000000005f52602260045260245ffd5b5f60028204905060018216806108cd57607f821691505b6020821081036108e0576108df610889565b5b50919050565b5f819050815f5260205f209050919050565b5f6020601f8301049050919050565b5f82821b905092915050565b5f600883026109427fffffffffffffffffffffffffffffffffffffffffffffffffffffffffffffffff82610907565b61094c8683610907565b95508019841693508086168417925050509392505050565b5f819050919050565b5f61098761098261097d846107a0565b610964565b6107a0565b9050919050565b5f819050919050565b6109a08361096d565b6109b46109ac8261098e565b848454610913565b825550505050565b5f90565b6109c86109bc565b6109d3818484610997565b505050565b5b818110156109f6576109eb5f826109c0565b6001810190506109d9565b5050565b601f821115610a3b57610a0c816108e6565b610a15846108f8565b81016020851015610a24578190505b610a38610a30856108f8565b8301826109d8565b50505b505050565b5f82821c905092915050565b5f610a5b5f1984600802610a40565b1980831691505092915050565b5f610a738383610a4c565b9150826002028217905092915050565b610a8c826106ae565b67ffffffffffffffff811115610aa557610aa46104cd565b5b610aaf82546108b6565b610aba8282856109fa565b5f60209050601f831160018114610aeb575f8415610ad9578287015190505b610ae38582610a68565b865550610b4a565b601f198416610af9866108e6565b5f5b82811015610b2057848901518255600182019150602085019450602081019050610afb565b86831015610b3d5784890151610b39601f891682610a4c565b8355505b6001600288020188555050505b505050505050565b7f4e487b71000000000000000000000000000000000000000000000000000000005f52601160045260245ffd5b5f610b89826107a0565b9150610b94836107a0565b9250828203905081811115610bac57610bab610b52565b5b92915050565b5f6060820190508181035f830152610bca81866106f0565b9050610bd960208301856107a9565b610be660408301846107a9565b949350505050565b7f556e61757468656e7469636174656400000000000000000000000000000000005f82015250565b5f610c22600f836106b8565b9150610c2d82610bee565b602082019050919050565b5f6020820190508181035f830152610c4f81610c16565b9050919050565b7f46696c65206e6f7420666f756e640000000000000000000000000000000000005f82015250565b5f610c8a600e836106b8565b9150610c9582610c56565b602082019050919050565b5f6020820190508181035f830152610cb781610c7e565b9050919050565b5f610cc8826107a0565b9150610cd3836107a0565b9250828201905080821115610ceb57610cea610b52565b5b9291505056fea26469706673582212205d87a89ae1f38e553cf1a8921f870e2faebda21dc18a465b8b14f95e8d84fbb464736f6c63430008160033",
					"opcodes": "PUSH1 0x80 PUSH1 0x40 MSTORE CALLVALUE DUP1 ISZERO PUSH2 0xF JUMPI PUSH0 DUP1 REVERT JUMPDEST POP PUSH1 0x40 MLOAD PUSH2 0xE13 CODESIZE SUB DUP1 PUSH2 0xE13 DUP4 CODECOPY DUP2 DUP2 ADD PUSH1 0x40 MSTORE DUP2 ADD SWAP1 PUSH2 0x31 SWAP2 SWAP1 PUSH2 0xB4 JUMP JUMPDEST CALLER PUSH0 DUP1 PUSH2 0x100 EXP DUP2 SLOAD DUP2 PUSH20 0xFFFFFFFFFFFFFFFFFFFFFFFFFFFFFFFFFFFFFFFF MUL NOT AND SWAP1 DUP4 PUSH20 0xFFFFFFFFFFFFFFFFFFFFFFFFFFFFFFFFFFFFFFFF AND MUL OR SWAP1 SSTORE POP DUP1 PUSH1 0x1 DUP2 SWAP1 SSTORE POP POP PUSH2 0xDF JUMP JUMPDEST PUSH0 DUP1 REVERT JUMPDEST PUSH0 DUP2 SWAP1 POP SWAP2 SWAP1 POP JUMP JUMPDEST PUSH2 0x93 DUP2 PUSH2 0x81 JUMP JUMPDEST DUP2 EQ PUSH2 0x9D JUMPI PUSH0 DUP1 REVERT JUMPDEST POP JUMP JUMPDEST PUSH0 DUP2 MLOAD SWAP1 POP PUSH2 0xAE DUP2 PUSH2 0x8A JUMP JUMPDEST SWAP3 SWAP2 POP POP JUMP JUMPDEST PUSH0 PUSH1 0x20 DUP3 DUP5 SUB SLT ISZERO PUSH2 0xC9 JUMPI PUSH2 0xC8 PUSH2 0x7D JUMP JUMPDEST JUMPDEST PUSH0 PUSH2 0xD6 DUP5 DUP3 DUP6 ADD PUSH2 0xA0 JUMP JUMPDEST SWAP2 POP POP SWAP3 SWAP2 POP POP JUMP JUMPDEST PUSH2 0xD27 DUP1 PUSH2 0xEC PUSH0 CODECOPY PUSH0 RETURN INVALID PUSH1 0x80 PUSH1 0x40 MSTORE CALLVALUE DUP1 ISZERO PUSH2 0xF JUMPI PUSH0 DUP1 REVERT JUMPDEST POP PUSH1 0x4 CALLDATASIZE LT PUSH2 0x55 JUMPI PUSH0 CALLDATALOAD PUSH1 0xE0 SHR DUP1 PUSH4 0x20DE1070 EQ PUSH2 0x59 JUMPI DUP1 PUSH4 0x2804401C EQ PUSH2 0x75 JUMPI DUP1 PUSH4 0x8DA5CB5B EQ PUSH2 0xA5 JUMPI DUP1 PUSH4 0xA9910054 EQ PUSH2 0xC3 JUMPI DUP1 PUSH4 0xE973BAEC EQ PUSH2 0xDF JUMPI JUMPDEST PUSH0 DUP1 REVERT JUMPDEST PUSH2 0x73 PUSH1 0x4 DUP1 CALLDATASIZE SUB DUP2 ADD SWAP1 PUSH2 0x6E SWAP2 SWAP1 PUSH2 0x5F1 JUMP JUMPDEST PUSH2 0xFD JUMP JUMPDEST STOP JUMPDEST PUSH2 0x8F PUSH1 0x4 DUP1 CALLDATASIZE SUB DUP2 ADD SWAP1 PUSH2 0x8A SWAP2 SWAP1 PUSH2 0x667 JUMP JUMPDEST PUSH2 0x1CC JUMP JUMPDEST PUSH1 0x40 MLOAD PUSH2 0x9C SWAP2 SWAP1 PUSH2 0x728 JUMP JUMPDEST PUSH1 0x40 MLOAD DUP1 SWAP2 SUB SWAP1 RETURN JUMPDEST PUSH2 0xAD PUSH2 0x27A JUMP JUMPDEST PUSH1 0x40 MLOAD PUSH2 0xBA SWAP2 SWAP1 PUSH2 0x787 JUMP JUMPDEST PUSH1 0x40 MLOAD DUP1 SWAP2 SUB SWAP1 RETURN JUMPDEST PUSH2 0xDD PUSH1 0x4 DUP1 CALLDATASIZE SUB DUP2 ADD SWAP1 PUSH2 0xD8 SWAP2 SWAP1 PUSH2 0x667 JUMP JUMPDEST PUSH2 0x29D JUMP JUMPDEST STOP JUMPDEST PUSH2 0xE7 PUSH2 0x446 JUMP JUMPDEST PUSH1 0x40 MLOAD PUSH2 0xF4 SWAP2 SWAP1 PUSH2 0x7B8 JUMP JUMPDEST PUSH1 0x40 MLOAD DUP1 SWAP2 SUB SWAP1 RETURN JUMPDEST PUSH0 PUSH1 0x1 SLOAD GT PUSH2 0x141 JUMPI PUSH1 0x40 MLOAD PUSH32 0x8C379A000000000000000000000000000000000000000000000000000000000 DUP2 MSTORE PUSH1 0x4 ADD PUSH2 0x138 SWAP1 PUSH2 0x81B JUMP JUMPDEST PUSH1 0x40 MLOAD DUP1 SWAP2 SUB SWAP1 REVERT JUMPDEST PUSH0 DUP2 MLOAD SWAP1 POP DUP2 PUSH1 0x2 DUP5 PUSH1 0x40 MLOAD PUSH2 0x157 SWAP2 SWAP1 PUSH2 0x873 JUMP JUMPDEST SWAP1 DUP2 MSTORE PUSH1 0x20 ADD PUSH1 0x40 MLOAD DUP1 SWAP2 SUB SWAP1 KECCAK256 SWAP1 DUP2 PUSH2 0x171 SWAP2 SWAP1 PUSH2 0xA83 JUMP JUMPDEST POP DUP1 PUSH1 0x1 PUSH0 DUP3 DUP3 SLOAD PUSH2 0x183 SWAP2 SWAP1 PUSH2 0xB7F JUMP JUMPDEST SWAP3 POP POP DUP2 SWAP1 SSTORE POP PUSH32 0xB124BD46C5501EF604216CEEFF17BE6E3BADF75E294713B623E3300BFB250AE6 DUP4 DUP3 PUSH1 0x1 SLOAD PUSH1 0x40 MLOAD PUSH2 0x1BF SWAP4 SWAP3 SWAP2 SWAP1 PUSH2 0xBB2 JUMP JUMPDEST PUSH1 0x40 MLOAD DUP1 SWAP2 SUB SWAP1 LOG1 POP POP POP JUMP JUMPDEST PUSH1 0x60 PUSH1 0x2 DUP3 PUSH1 0x40 MLOAD PUSH2 0x1DE SWAP2 SWAP1 PUSH2 0x873 JUMP JUMPDEST SWAP1 DUP2 MSTORE PUSH1 0x20 ADD PUSH1 0x40 MLOAD DUP1 SWAP2 SUB SWAP1 KECCAK256 DUP1 SLOAD PUSH2 0x1F7 SWAP1 PUSH2 0x8B6 JUMP JUMPDEST DUP1 PUSH1 0x1F ADD PUSH1 0x20 DUP1 SWAP2 DIV MUL PUSH1 0x20 ADD PUSH1 0x40 MLOAD SWAP1 DUP2 ADD PUSH1 0x40 MSTORE DUP1 SWAP3 SWAP2 SWAP1 DUP2 DUP2 MSTORE PUSH1 0x20 ADD DUP3 DUP1 SLOAD PUSH2 0x223 SWAP1 PUSH2 0x8B6 JUMP JUMPDEST DUP1 ISZERO PUSH2 0x26E JUMPI DUP1 PUSH1 0x1F LT PUSH2 0x245 JUMPI PUSH2 0x100 DUP1 DUP4 SLOAD DIV MUL DUP4 MSTORE SWAP2 PUSH1 0x20 ADD SWAP2 PUSH2 0x26E JUMP JUMPDEST DUP3 ADD SWAP2 SWAP1 PUSH0 MSTORE PUSH1 0x20 PUSH0 KECCAK256 SWAP1 JUMPDEST DUP2 SLOAD DUP2 MSTORE SWAP1 PUSH1 0x1 ADD SWAP1 PUSH1 0x20 ADD DUP1 DUP4 GT PUSH2 0x251 JUMPI DUP3 SWAP1 SUB PUSH1 0x1F AND DUP3 ADD SWAP2 JUMPDEST POP POP POP POP POP SWAP1 POP SWAP2 SWAP1 POP JUMP JUMPDEST PUSH0 DUP1 SLOAD SWAP1 PUSH2 0x100 EXP SWAP1 DIV PUSH20 0xFFFFFFFFFFFFFFFFFFFFFFFFFFFFFFFFFFFFFFFF AND DUP2 JUMP JUMPDEST PUSH0 DUP1 SLOAD SWAP1 PUSH2 0x100 EXP SWAP1 DIV PUSH20 0xFFFFFFFFFFFFFFFFFFFFFFFFFFFFFFFFFFFFFFFF AND PUSH20 0xFFFFFFFFFFFFFFFFFFFFFFFFFFFFFFFFFFFFFFFF AND CALLER PUSH20 0xFFFFFFFFFFFFFFFFFFFFFFFFFFFFFFFFFFFFFFFF AND EQ PUSH2 0x32A JUMPI PUSH1 0x40 MLOAD PUSH32 0x8C379A000000000000000000000000000000000000000000000000000000000 DUP2 MSTORE PUSH1 0x4 ADD PUSH2 0x321 SWAP1 PUSH2 0xC38 JUMP JUMPDEST PUSH1 0x40 MLOAD DUP1 SWAP2 SUB SWAP1 REVERT JUMPDEST PUSH0 PUSH1 0x2 DUP3 PUSH1 0x40 MLOAD PUSH2 0x33B SWAP2 SWAP1 PUSH2 0x873 JUMP JUMPDEST SWAP1 DUP2 MSTORE PUSH1 0x20 ADD PUSH1 0x40 MLOAD DUP1 SWAP2 SUB SWAP1 KECCAK256 DUP1 SLOAD PUSH2 0x354 SWAP1 PUSH2 0x8B6 JUMP JUMPDEST SWAP1 POP GT PUSH2 0x396 JUMPI PUSH1 0x40 MLOAD PUSH32 0x8C379A000000000000000000000000000000000000000000000000000000000 DUP2 MSTORE PUSH1 0x4 ADD PUSH2 0x38D SWAP1 PUSH2 0xCA0 JUMP JUMPDEST PUSH1 0x40 MLOAD DUP1 SWAP2 SUB SWAP1 REVERT JUMPDEST PUSH0 PUSH1 0x2 DUP3 PUSH1 0x40 MLOAD PUSH2 0x3A7 SWAP2 SWAP1 PUSH2 0x873 JUMP JUMPDEST SWAP1 DUP2 MSTORE PUSH1 0x20 ADD PUSH1 0x40 MLOAD DUP1 SWAP2 SUB SWAP1 KECCAK256 DUP1 SLOAD PUSH2 0x3C0 SWAP1 PUSH2 0x8B6 JUMP JUMPDEST SWAP1 POP SWAP1 POP PUSH1 0x2 DUP3 PUSH1 0x40 MLOAD PUSH2 0x3D4 SWAP2 SWAP1 PUSH2 0x873 JUMP JUMPDEST SWAP1 DUP2 MSTORE PUSH1 0x20 ADD PUSH1 0x40 MLOAD DUP1 SWAP2 SUB SWAP1 KECCAK256 PUSH0 PUSH2 0x3ED SWAP2 SWAP1 PUSH2 0x44C JUMP JUMPDEST DUP1 PUSH1 0x1 PUSH0 DUP3 DUP3 SLOAD PUSH2 0x3FE SWAP2 SWAP1 PUSH2 0xCBE JUMP JUMPDEST SWAP3 POP POP DUP2 SWAP1 SSTORE POP PUSH32 0xAD47E2648532DBF20AA6E26F2743FE5CA7F79D7833B70EBC7E95E2ACA3BB12C7 DUP3 DUP3 PUSH1 0x1 SLOAD PUSH1 0x40 MLOAD PUSH2 0x43A SWAP4 SWAP3 SWAP2 SWAP1 PUSH2 0xBB2 JUMP JUMPDEST PUSH1 0x40 MLOAD DUP1 SWAP2 SUB SWAP1 LOG1 POP POP JUMP JUMPDEST PUSH1 0x1 SLOAD DUP2 JUMP JUMPDEST POP DUP1 SLOAD PUSH2 0x458 SWAP1 PUSH2 0x8B6 JUMP JUMPDEST PUSH0 DUP3 SSTORE DUP1 PUSH1 0x1F LT PUSH2 0x469 JUMPI POP PUSH2 0x486 JUMP JUMPDEST PUSH1 0x1F ADD PUSH1 0x20 SWAP1 DIV SWAP1 PUSH0 MSTORE PUSH1 0x20 PUSH0 KECCAK256 SWAP1 DUP2 ADD SWAP1 PUSH2 0x485 SWAP2 SWAP1 PUSH2 0x489 JUMP JUMPDEST JUMPDEST POP JUMP JUMPDEST JUMPDEST DUP1 DUP3 GT ISZERO PUSH2 0x4A0 JUMPI PUSH0 DUP2 PUSH0 SWAP1 SSTORE POP PUSH1 0x1 ADD PUSH2 0x48A JUMP JUMPDEST POP SWAP1 JUMP JUMPDEST PUSH0 PUSH1 0x40 MLOAD SWAP1 POP SWAP1 JUMP JUMPDEST PUSH0 DUP1 REVERT JUMPDEST PUSH0 DUP1 REVERT JUMPDEST PUSH0 DUP1 REVERT JUMPDEST PUSH0 DUP1 REVERT JUMPDEST PUSH0 PUSH1 0x1F NOT PUSH1 0x1F DUP4 ADD AND SWAP1 POP SWAP2 SWAP1 POP JUMP JUMPDEST PUSH32 0x4E487B7100000000000000000000000000000000000000000000000000000000 PUSH0 MSTORE PUSH1 0x41 PUSH1 0x4 MSTORE PUSH1 0x24 PUSH0 REVERT JUMPDEST PUSH2 0x503 DUP3 PUSH2 0x4BD JUMP JUMPDEST DUP2 ADD DUP2 DUP2 LT PUSH8 0xFFFFFFFFFFFFFFFF DUP3 GT OR ISZERO PUSH2 0x522 JUMPI PUSH2 0x521 PUSH2 0x4CD JUMP JUMPDEST JUMPDEST DUP1 PUSH1 0x40 MSTORE POP POP POP JUMP JUMPDEST PUSH0 PUSH2 0x534 PUSH2 0x4A4 JUMP JUMPDEST SWAP1 POP PUSH2 0x540 DUP3 DUP3 PUSH2 0x4FA JUMP JUMPDEST SWAP2 SWAP1 POP JUMP JUMPDEST PUSH0 PUSH8 0xFFFFFFFFFFFFFFFF DUP3 GT ISZERO PUSH2 0x55F JUMPI PUSH2 0x55E PUSH2 0x4CD JUMP JUMPDEST JUMPDEST PUSH2 0x568 DUP3 PUSH2 0x4BD JUMP JUMPDEST SWAP1 POP PUSH1 0x20 DUP2 ADD SWAP1 POP SWAP2 SWAP1 POP JUMP JUMPDEST DUP3 DUP2 DUP4 CALLDATACOPY PUSH0 DUP4 DUP4 ADD MSTORE POP POP POP JUMP JUMPDEST PUSH0 PUSH2 0x595 PUSH2 0x590 DUP5 PUSH2 0x545 JUMP JUMPDEST PUSH2 0x52B JUMP JUMPDEST SWAP1 POP DUP3 DUP2 MSTORE PUSH1 0x20 DUP2 ADD DUP5 DUP5 DUP5 ADD GT ISZERO PUSH2 0x5B1 JUMPI PUSH2 0x5B0 PUSH2 0x4B9 JUMP JUMPDEST JUMPDEST PUSH2 0x5BC DUP5 DUP3 DUP6 PUSH2 0x575 JUMP JUMPDEST POP SWAP4 SWAP3 POP POP POP JUMP JUMPDEST PUSH0 DUP3 PUSH1 0x1F DUP4 ADD SLT PUSH2 0x5D8 JUMPI PUSH2 0x5D7 PUSH2 0x4B5 JUMP JUMPDEST JUMPDEST DUP2 CALLDATALOAD PUSH2 0x5E8 DUP5 DUP3 PUSH1 0x20 DUP7 ADD PUSH2 0x583 JUMP JUMPDEST SWAP2 POP POP SWAP3 SWAP2 POP POP JUMP JUMPDEST PUSH0 DUP1 PUSH1 0x40 DUP4 DUP6 SUB SLT ISZERO PUSH2 0x607 JUMPI PUSH2 0x606 PUSH2 0x4AD JUMP JUMPDEST JUMPDEST PUSH0 DUP4 ADD CALLDATALOAD PUSH8 0xFFFFFFFFFFFFFFFF DUP2 GT ISZERO PUSH2 0x624 JUMPI PUSH2 0x623 PUSH2 0x4B1 JUMP JUMPDEST JUMPDEST PUSH2 0x630 DUP6 DUP3 DUP7 ADD PUSH2 0x5C4 JUMP JUMPDEST SWAP3 POP POP PUSH1 0x20 DUP4 ADD CALLDATALOAD PUSH8 0xFFFFFFFFFFFFFFFF DUP2 GT ISZERO PUSH2 0x651 JUMPI PUSH2 0x650 PUSH2 0x4B1 JUMP JUMPDEST JUMPDEST PUSH2 0x65D DUP6 DUP3 DUP7 ADD PUSH2 0x5C4 JUMP JUMPDEST SWAP2 POP POP SWAP3 POP SWAP3 SWAP1 POP JUMP JUMPDEST PUSH0 PUSH1 0x20 DUP3 DUP5 SUB SLT ISZERO PUSH2 0x67C JUMPI PUSH2 0x67B PUSH2 0x4AD JUMP JUMPDEST JUMPDEST PUSH0 DUP3 ADD CALLDATALOAD PUSH8 0xFFFFFFFFFFFFFFFF DUP2 GT ISZERO PUSH2 0x699 JUMPI PUSH2 0x698 PUSH2 0x4B1 JUMP JUMPDEST JUMPDEST PUSH2 0x6A5 DUP5 DUP3 DUP6 ADD PUSH2 0x5C4 JUMP JUMPDEST SWAP2 POP POP SWAP3 SWAP2 POP POP JUMP JUMPDEST PUSH0 DUP2 MLOAD SWAP1 POP SWAP2 SWAP1 POP JUMP JUMPDEST PUSH0 DUP3 DUP3 MSTORE PUSH1 0x20 DUP3 ADD SWAP1 POP SWAP3 SWAP2 POP POP JUMP JUMPDEST PUSH0 JUMPDEST DUP4 DUP2 LT ISZERO PUSH2 0x6E5 JUMPI DUP1 DUP3 ADD MLOAD DUP2 DUP5 ADD MSTORE PUSH1 0x20 DUP2 ADD SWAP1 POP PUSH2 0x6CA JUMP JUMPDEST PUSH0 DUP5 DUP5 ADD MSTORE POP POP POP POP JUMP JUMPDEST PUSH0 PUSH2 0x6FA DUP3 PUSH2 0x6AE JUMP JUMPDEST PUSH2 0x704 DUP2 DUP6 PUSH2 0x6B8 JUMP JUMPDEST SWAP4 POP PUSH2 0x714 DUP2 DUP6 PUSH1 0x20 DUP7 ADD PUSH2 0x6C8 JUMP JUMPDEST PUSH2 0x71D DUP2 PUSH2 0x4BD JUMP JUMPDEST DUP5 ADD SWAP2 POP POP SWAP3 SWAP2 POP POP JUMP JUMPDEST PUSH0 PUSH1 0x20 DUP3 ADD SWAP1 POP DUP2 DUP2 SUB PUSH0 DUP4 ADD MSTORE PUSH2 0x740 DUP2 DUP5 PUSH2 0x6F0 JUMP JUMPDEST SWAP1 POP SWAP3 SWAP2 POP POP JUMP JUMPDEST PUSH0 PUSH20 0xFFFFFFFFFFFFFFFFFFFFFFFFFFFFFFFFFFFFFFFF DUP3 AND SWAP1 POP SWAP2 SWAP1 POP JUMP JUMPDEST PUSH0 PUSH2 0x771 DUP3 PUSH2 0x748 JUMP JUMPDEST SWAP1 POP SWAP2 SWAP1 POP JUMP JUMPDEST PUSH2 0x781 DUP2 PUSH2 0x767 JUMP JUMPDEST DUP3 MSTORE POP POP JUMP JUMPDEST PUSH0 PUSH1 0x20 DUP3 ADD SWAP1 POP PUSH2 0x79A PUSH0 DUP4 ADD DUP5 PUSH2 0x778 JUMP JUMPDEST SWAP3 SWAP2 POP POP JUMP JUMPDEST PUSH0 DUP2 SWAP1 POP SWAP2 SWAP1 POP JUMP JUMPDEST PUSH2 0x7B2 DUP2 PUSH2 0x7A0 JUMP JUMPDEST DUP3 MSTORE POP POP JUMP JUMPDEST PUSH0 PUSH1 0x20 DUP3 ADD SWAP1 POP PUSH2 0x7CB PUSH0 DUP4 ADD DUP5 PUSH2 0x7A9 JUMP JUMPDEST SWAP3 SWAP2 POP POP JUMP JUMPDEST PUSH32 0x4E6F2073746F7261676520617661696C61626C65000000000000000000000000 PUSH0 DUP3 ADD MSTORE POP JUMP JUMPDEST PUSH0 PUSH2 0x805 PUSH1 0x14 DUP4 PUSH2 0x6B8 JUMP JUMPDEST SWAP2 POP PUSH2 0x810 DUP3 PUSH2 0x7D1 JUMP JUMPDEST PUSH1 0x20 DUP3 ADD SWAP1 POP SWAP2 SWAP1 POP JUMP JUMPDEST PUSH0 PUSH1 0x20 DUP3 ADD SWAP1 POP DUP2 DUP2 SUB PUSH0 DUP4 ADD MSTORE PUSH2 0x832 DUP2 PUSH2 0x7F9 JUMP JUMPDEST SWAP1 POP SWAP2 SWAP1 POP JUMP JUMPDEST PUSH0 DUP2 SWAP1 POP SWAP3 SWAP2 POP POP JUMP JUMPDEST PUSH0 PUSH2 0x84D DUP3 PUSH2 0x6AE JUMP JUMPDEST PUSH2 0x857 DUP2 DUP6 PUSH2 0x839 JUMP JUMPDEST SWAP4 POP PUSH2 0x867 DUP2 DUP6 PUSH1 0x20 DUP7 ADD PUSH2 0x6C8 JUMP JUMPDEST DUP1 DUP5 ADD SWAP2 POP POP SWAP3 SWAP2 POP POP JUMP JUMPDEST PUSH0 PUSH2 0x87E DUP3 DUP5 PUSH2 0x843 JUMP JUMPDEST SWAP2 POP DUP2 SWAP1 POP SWAP3 SWAP2 POP POP JUMP JUMPDEST PUSH32 0x4E487B7100000000000000000000000000000000000000000000000000000000 PUSH0 MSTORE PUSH1 0x22 PUSH1 0x4 MSTORE PUSH1 0x24 PUSH0 REVERT JUMPDEST PUSH0 PUSH1 0x2 DUP3 DIV SWAP1 POP PUSH1 0x1 DUP3 AND DUP1 PUSH2 0x8CD JUMPI PUSH1 0x7F DUP3 AND SWAP2 POP JUMPDEST PUSH1 0x20 DUP3 LT DUP2 SUB PUSH2 0x8E0 JUMPI PUSH2 0x8DF PUSH2 0x889 JUMP JUMPDEST JUMPDEST POP SWAP2 SWAP1 POP JUMP JUMPDEST PUSH0 DUP2 SWAP1 POP DUP2 PUSH0 MSTORE PUSH1 0x20 PUSH0 KECCAK256 SWAP1 POP SWAP2 SWAP1 POP JUMP JUMPDEST PUSH0 PUSH1 0x20 PUSH1 0x1F DUP4 ADD DIV SWAP1 POP SWAP2 SWAP1 POP JUMP JUMPDEST PUSH0 DUP3 DUP3 SHL SWAP1 POP SWAP3 SWAP2 POP POP JUMP JUMPDEST PUSH0 PUSH1 0x8 DUP4 MUL PUSH2 0x942 PUSH32 0xFFFFFFFFFFFFFFFFFFFFFFFFFFFFFFFFFFFFFFFFFFFFFFFFFFFFFFFFFFFFFFFF DUP3 PUSH2 0x907 JUMP JUMPDEST PUSH2 0x94C DUP7 DUP4 PUSH2 0x907 JUMP JUMPDEST SWAP6 POP DUP1 NOT DUP5 AND SWAP4 POP DUP1 DUP7 AND DUP5 OR SWAP3 POP POP POP SWAP4 SWAP3 POP POP POP JUMP JUMPDEST PUSH0 DUP2 SWAP1 POP SWAP2 SWAP1 POP JUMP JUMPDEST PUSH0 PUSH2 0x987 PUSH2 0x982 PUSH2 0x97D DUP5 PUSH2 0x7A0 JUMP JUMPDEST PUSH2 0x964 JUMP JUMPDEST PUSH2 0x7A0 JUMP JUMPDEST SWAP1 POP SWAP2 SWAP1 POP JUMP JUMPDEST PUSH0 DUP2 SWAP1 POP SWAP2 SWAP1 POP JUMP JUMPDEST PUSH2 0x9A0 DUP4 PUSH2 0x96D JUMP JUMPDEST PUSH2 0x9B4 PUSH2 0x9AC DUP3 PUSH2 0x98E JUMP JUMPDEST DUP5 DUP5 SLOAD PUSH2 0x913 JUMP JUMPDEST DUP3 SSTORE POP POP POP POP JUMP JUMPDEST PUSH0 SWAP1 JUMP JUMPDEST PUSH2 0x9C8 PUSH2 0x9BC JUMP JUMPDEST PUSH2 0x9D3 DUP2 DUP5 DUP5 PUSH2 0x997 JUMP JUMPDEST POP POP POP JUMP JUMPDEST JUMPDEST DUP2 DUP2 LT ISZERO PUSH2 0x9F6 JUMPI PUSH2 0x9EB PUSH0 DUP3 PUSH2 0x9C0 JUMP JUMPDEST PUSH1 0x1 DUP2 ADD SWAP1 POP PUSH2 0x9D9 JUMP JUMPDEST POP POP JUMP JUMPDEST PUSH1 0x1F DUP3 GT ISZERO PUSH2 0xA3B JUMPI PUSH2 0xA0C DUP2 PUSH2 0x8E6 JUMP JUMPDEST PUSH2 0xA15 DUP5 PUSH2 0x8F8 JUMP JUMPDEST DUP2 ADD PUSH1 0x20 DUP6 LT ISZERO PUSH2 0xA24 JUMPI DUP2 SWAP1 POP JUMPDEST PUSH2 0xA38 PUSH2 0xA30 DUP6 PUSH2 0x8F8 JUMP JUMPDEST DUP4 ADD DUP3 PUSH2 0x9D8 JUMP JUMPDEST POP POP JUMPDEST POP POP POP JUMP JUMPDEST PUSH0 DUP3 DUP3 SHR SWAP1 POP SWAP3 SWAP2 POP POP JUMP JUMPDEST PUSH0 PUSH2 0xA5B PUSH0 NOT DUP5 PUSH1 0x8 MUL PUSH2 0xA40 JUMP JUMPDEST NOT DUP1 DUP4 AND SWAP2 POP POP SWAP3 SWAP2 POP POP JUMP JUMPDEST PUSH0 PUSH2 0xA73 DUP4 DUP4 PUSH2 0xA4C JUMP JUMPDEST SWAP2 POP DUP3 PUSH1 0x2 MUL DUP3 OR SWAP1 POP SWAP3 SWAP2 POP POP JUMP JUMPDEST PUSH2 0xA8C DUP3 PUSH2 0x6AE JUMP JUMPDEST PUSH8 0xFFFFFFFFFFFFFFFF DUP2 GT ISZERO PUSH2 0xAA5 JUMPI PUSH2 0xAA4 PUSH2 0x4CD JUMP JUMPDEST JUMPDEST PUSH2 0xAAF DUP3 SLOAD PUSH2 0x8B6 JUMP JUMPDEST PUSH2 0xABA DUP3 DUP3 DUP6 PUSH2 0x9FA JUMP JUMPDEST PUSH0 PUSH1 0x20 SWAP1 POP PUSH1 0x1F DUP4 GT PUSH1 0x1 DUP2 EQ PUSH2 0xAEB JUMPI PUSH0 DUP5 ISZERO PUSH2 0xAD9 JUMPI DUP3 DUP8 ADD MLOAD SWAP1 POP JUMPDEST PUSH2 0xAE3 DUP6 DUP3 PUSH2 0xA68 JUMP JUMPDEST DUP7 SSTORE POP PUSH2 0xB4A JUMP JUMPDEST PUSH1 0x1F NOT DUP5 AND PUSH2 0xAF9 DUP7 PUSH2 0x8E6 JUMP JUMPDEST PUSH0 JUMPDEST DUP3 DUP2 LT ISZERO PUSH2 0xB20 JUMPI DUP5 DUP10 ADD MLOAD DUP3 SSTORE PUSH1 0x1 DUP3 ADD SWAP2 POP PUSH1 0x20 DUP6 ADD SWAP5 POP PUSH1 0x20 DUP2 ADD SWAP1 POP PUSH2 0xAFB JUMP JUMPDEST DUP7 DUP4 LT ISZERO PUSH2 0xB3D JUMPI DUP5 DUP10 ADD MLOAD PUSH2 0xB39 PUSH1 0x1F DUP10 AND DUP3 PUSH2 0xA4C JUMP JUMPDEST DUP4 SSTORE POP JUMPDEST PUSH1 0x1 PUSH1 0x2 DUP9 MUL ADD DUP9 SSTORE POP POP POP JUMPDEST POP POP POP POP POP POP JUMP JUMPDEST PUSH32 0x4E487B7100000000000000000000000000000000000000000000000000000000 PUSH0 MSTORE PUSH1 0x11 PUSH1 0x4 MSTORE PUSH1 0x24 PUSH0 REVERT JUMPDEST PUSH0 PUSH2 0xB89 DUP3 PUSH2 0x7A0 JUMP JUMPDEST SWAP2 POP PUSH2 0xB94 DUP4 PUSH2 0x7A0 JUMP JUMPDEST SWAP3 POP DUP3 DUP3 SUB SWAP1 POP DUP2 DUP2 GT ISZERO PUSH2 0xBAC JUMPI PUSH2 0xBAB PUSH2 0xB52 JUMP JUMPDEST JUMPDEST SWAP3 SWAP2 POP POP JUMP JUMPDEST PUSH0 PUSH1 0x60 DUP3 ADD SWAP1 POP DUP2 DUP2 SUB PUSH0 DUP4 ADD MSTORE PUSH2 0xBCA DUP2 DUP7 PUSH2 0x6F0 JUMP JUMPDEST SWAP1 POP PUSH2 0xBD9 PUSH1 0x20 DUP4 ADD DUP6 PUSH2 0x7A9 JUMP JUMPDEST PUSH2 0xBE6 PUSH1 0x40 DUP4 ADD DUP5 PUSH2 0x7A9 JUMP JUMPDEST SWAP5 SWAP4 POP POP POP POP JUMP JUMPDEST PUSH32 0x556E61757468656E746963617465640000000000000000000000000000000000 PUSH0 DUP3 ADD MSTORE POP JUMP JUMPDEST PUSH0 PUSH2 0xC22 PUSH1 0xF DUP4 PUSH2 0x6B8 JUMP JUMPDEST SWAP2 POP PUSH2 0xC2D DUP3 PUSH2 0xBEE JUMP JUMPDEST PUSH1 0x20 DUP3 ADD SWAP1 POP SWAP2 SWAP1 POP JUMP JUMPDEST PUSH0 PUSH1 0x20 DUP3 ADD SWAP1 POP DUP2 DUP2 SUB PUSH0 DUP4 ADD MSTORE PUSH2 0xC4F DUP2 PUSH2 0xC16 JUMP JUMPDEST SWAP1 POP SWAP2 SWAP1 POP JUMP JUMPDEST PUSH32 0x46696C65206E6F7420666F756E64000000000000000000000000000000000000 PUSH0 DUP3 ADD MSTORE POP JUMP JUMPDEST PUSH0 PUSH2 0xC8A PUSH1 0xE DUP4 PUSH2 0x6B8 JUMP JUMPDEST SWAP2 POP PUSH2 0xC95 DUP3 PUSH2 0xC56 JUMP JUMPDEST PUSH1 0x20 DUP3 ADD SWAP1 POP SWAP2 SWAP1 POP JUMP JUMPDEST PUSH0 PUSH1 0x20 DUP3 ADD SWAP1 POP DUP2 DUP2 SUB PUSH0 DUP4 ADD MSTORE PUSH2 0xCB7 DUP2 PUSH2 0xC7E JUMP JUMPDEST SWAP1 POP SWAP2 SWAP1 POP JUMP JUMPDEST PUSH0 PUSH2 0xCC8 DUP3 PUSH2 0x7A0 JUMP JUMPDEST SWAP2 POP PUSH2 0xCD3 DUP4 PUSH2 0x7A0 JUMP JUMPDEST SWAP3 POP DUP3 DUP3 ADD SWAP1 POP DUP1 DUP3 GT ISZERO PUSH2 0xCEB JUMPI PUSH2 0xCEA PUSH2 0xB52 JUMP JUMPDEST JUMPDEST SWAP3 SWAP2 POP POP JUMP INVALID LOG2 PUSH5 0x6970667358 0x22 SLT KECCAK256 0x5D DUP8 0xA8 SWAP11 0xE1 RETURN DUP15 SSTORE EXTCODECOPY CALL 0xA8 SWAP3 0x1F DUP8 0xE 0x2F 0xAE 0xBD LOG2 SAR 0xC1 DUP11 CHAINID JUMPDEST DUP12 EQ 0xF9 0x5E DUP14 DUP5 0xFB 0xB4 PUSH5 0x736F6C6343 STOP ADDMOD AND STOP CALLER "
				},
				"gasEstimates": {
					"creation": {
						"codeDepositCost": "673400",
						"executionCost": "infinite",
						"totalCost": "infinite"
					},
					"external": {
						"availableStorage()": "2491",
						"deleteFile(string)": "infinite",
						"owner()": "2527",
						"retrieveFile(string)": "infinite",
						"storeFile(string,string)": "infinite"
					}
				},
				"methodIdentifiers": {
					"availableStorage()": "e973baec",
					"deleteFile(string)": "a9910054",
					"owner()": "8da5cb5b",
					"retrieveFile(string)": "2804401c",
					"storeFile(string,string)": "20de1070"
				}
			},
			"storageLayout": {
				"storage": [
					{
						"astId": 3,
						"contract": "contracts/_FileStorage.sol:FileStorageManager",
						"label": "owner",
						"offset": 0,
						"slot": "0",
						"type": "t_address"
					},
					{
						"astId": 5,
						"contract": "contracts/_FileStorage.sol:FileStorageManager",
						"label": "availableStorage",
						"offset": 0,
						"slot": "1",
						"type": "t_uint256"
					},
					{
						"astId": 9,
						"contract": "contracts/_FileStorage.sol:FileStorageManager",
						"label": "files",
						"offset": 0,
						"slot": "2",
						"type": "t_mapping(t_string_memory_ptr,t_string_storage)"
					}
				],
				"types": {
					"t_address": {
						"encoding": "inplace",
						"label": "address",
						"numberOfBytes": "20"
					},
					"t_mapping(t_string_memory_ptr,t_string_storage)": {
						"encoding": "mapping",
						"key": "t_string_memory_ptr",
						"label": "mapping(string => string)",
						"numberOfBytes": "32",
						"value": "t_string_storage"
					},
					"t_string_memory_ptr": {
						"encoding": "bytes",
						"label": "string",
						"numberOfBytes": "32"
					},
					"t_string_storage": {
						"encoding": "bytes",
						"label": "string",
						"numberOfBytes": "32"
					},
					"t_uint256": {
						"encoding": "inplace",
						"label": "uint256",
						"numberOfBytes": "32"
					}
				}
			},
			"userdoc": {
				"kind": "user",
				"methods": {},
				"version": 1
			}
		}
	}
}