{
	"contracts/_NodeManager.sol": {
		"NodeManager": {
			"abi": [
				{
					"anonymous": false,
					"inputs": [
						{
							"indexed": false,
							"internalType": "address",
							"name": "",
							"type": "address"
						}
					],
					"name": "logAddress",
					"type": "event"
				},
				{
					"anonymous": false,
					"inputs": [
						{
							"indexed": false,
							"internalType": "address",
							"name": "",
							"type": "address"
						}
					],
					"name": "logAddress2",
					"type": "event"
				},
				{
					"anonymous": false,
					"inputs": [
						{
							"indexed": false,
							"internalType": "uint256",
							"name": "",
							"type": "uint256"
						}
					],
					"name": "logNumber",
					"type": "event"
				},
				{
					"inputs": [
						{
							"internalType": "address",
							"name": "_nodeAddress",
							"type": "address"
						},
						{
							"internalType": "uint256",
							"name": "_initialStorage",
							"type": "uint256"
						}
					],
					"name": "addNode",
					"outputs": [],
					"stateMutability": "nonpayable",
					"type": "function"
				},
				{
					"inputs": [
						{
							"internalType": "uint256",
							"name": "",
							"type": "uint256"
						}
					],
					"name": "allNodes",
					"outputs": [
						{
							"internalType": "address",
							"name": "",
							"type": "address"
						}
					],
					"stateMutability": "view",
					"type": "function"
				},
				{
					"inputs": [
						{
							"internalType": "address",
							"name": "_nodeAddress",
							"type": "address"
						},
						{
							"internalType": "string",
							"name": "_fileId",
							"type": "string"
						}
					],
					"name": "deleteChunkInNode",
					"outputs": [],
					"stateMutability": "nonpayable",
					"type": "function"
				},
				{
					"inputs": [
						{
							"internalType": "uint256",
							"name": "_chunkSize",
							"type": "uint256"
						}
					],
					"name": "findAvailableNode",
					"outputs": [
						{
							"internalType": "address",
							"name": "",
							"type": "address"
						}
					],
					"stateMutability": "nonpayable",
					"type": "function"
				},
				{
					"inputs": [],
					"name": "getAllNodes",
					"outputs": [
						{
							"internalType": "address[]",
							"name": "",
							"type": "address[]"
						}
					],
					"stateMutability": "view",
					"type": "function"
				},
				{
					"inputs": [
						{
							"internalType": "address",
							"name": "_nodeAddress",
							"type": "address"
						}
					],
					"name": "getNodeByAddress",
					"outputs": [
						{
							"components": [
								{
									"internalType": "address",
									"name": "nodeAddress",
									"type": "address"
								},
								{
									"internalType": "uint256",
									"name": "availableStorage",
									"type": "uint256"
								}
							],
							"internalType": "struct NodeManager.Node",
							"name": "",
							"type": "tuple"
						}
					],
					"stateMutability": "view",
					"type": "function"
				},
				{
					"inputs": [
						{
							"internalType": "string",
							"name": "",
							"type": "string"
						},
						{
							"internalType": "uint256",
							"name": "",
							"type": "uint256"
						}
					],
					"name": "nodeChunksAddresses",
					"outputs": [
						{
							"internalType": "address",
							"name": "",
							"type": "address"
						}
					],
					"stateMutability": "view",
					"type": "function"
				},
				{
					"inputs": [
						{
							"internalType": "address",
							"name": "",
							"type": "address"
						}
					],
					"name": "nodes",
					"outputs": [
						{
							"internalType": "address",
							"name": "nodeAddress",
							"type": "address"
						},
						{
							"internalType": "uint256",
							"name": "availableStorage",
							"type": "uint256"
						}
					],
					"stateMutability": "view",
					"type": "function"
				},
				{
					"inputs": [
						{
							"internalType": "string",
							"name": "_fileId",
							"type": "string"
						}
					],
					"name": "retrieveChunkNodeAddresses",
					"outputs": [
						{
							"internalType": "address[]",
							"name": "",
							"type": "address[]"
						}
					],
					"stateMutability": "view",
					"type": "function"
				},
				{
					"inputs": [
						{
							"internalType": "address",
							"name": "_nodeAddress",
							"type": "address"
						},
						{
							"internalType": "string",
							"name": "_chunk",
							"type": "string"
						},
						{
							"internalType": "string",
							"name": "_fileId",
							"type": "string"
						},
						{
							"internalType": "uint256",
							"name": "order",
							"type": "uint256"
						}
					],
					"name": "storeChunkInNode",
					"outputs": [],
					"stateMutability": "nonpayable",
					"type": "function"
				}
			],
			"devdoc": {
				"kind": "dev",
				"methods": {},
				"version": 1
			},
			"evm": {
				"assembly": "    /* \"contracts/_NodeManager.sol\":61:4087  contract NodeManager {... */\n  mstore(0x40, 0x80)\n  callvalue\n  dup1\n  iszero\n  tag_1\n  jumpi\n  0x00\n  dup1\n  revert\ntag_1:\n  pop\n  dataSize(sub_0)\n  dup1\n  dataOffset(sub_0)\n  0x00\n  codecopy\n  0x00\n  return\nstop\n\nsub_0: assembly {\n        /* \"contracts/_NodeManager.sol\":61:4087  contract NodeManager {... */\n      mstore(0x40, 0x80)\n      callvalue\n      dup1\n      iszero\n      tag_1\n      jumpi\n      0x00\n      dup1\n      revert\n    tag_1:\n      pop\n      jumpi(tag_2, lt(calldatasize, 0x04))\n      shr(0xe0, calldataload(0x00))\n      dup1\n      0x64f0c0b8\n      gt\n      tag_13\n      jumpi\n      dup1\n      0x64f0c0b8\n      eq\n      tag_8\n      jumpi\n      dup1\n      0xa1174e7d\n      eq\n      tag_9\n      jumpi\n      dup1\n      0xa9860308\n      eq\n      tag_10\n      jumpi\n      dup1\n      0xb23793d6\n      eq\n      tag_11\n      jumpi\n      dup1\n      0xfe72ae13\n      eq\n      tag_12\n      jumpi\n      jump(tag_2)\n    tag_13:\n      dup1\n      0x11bd77fe\n      eq\n      tag_3\n      jumpi\n      dup1\n      0x189a5a17\n      eq\n      tag_4\n      jumpi\n      dup1\n      0x30e00c9b\n      eq\n      tag_5\n      jumpi\n      dup1\n      0x50f1c985\n      eq\n      tag_6\n      jumpi\n      dup1\n      0x5d44762b\n      eq\n      tag_7\n      jumpi\n    tag_2:\n      0x00\n      dup1\n      revert\n        /* \"contracts/_NodeManager.sol\":473:997  function addNode(address _nodeAddress, uint256 _initialStorage) public {... */\n    tag_3:\n      tag_14\n      0x04\n      dup1\n      calldatasize\n      sub\n      dup2\n      add\n      swap1\n      tag_15\n      swap2\n      swap1\n      tag_16\n      jump\t// in\n    tag_15:\n      tag_17\n      jump\t// in\n    tag_14:\n      stop\n        /* \"contracts/_NodeManager.sol\":270:307  mapping(address => Node) public nodes */\n    tag_4:\n      tag_18\n      0x04\n      dup1\n      calldatasize\n      sub\n      dup2\n      add\n      swap1\n      tag_19\n      swap2\n      swap1\n      tag_20\n      jump\t// in\n    tag_19:\n      tag_21\n      jump\t// in\n    tag_18:\n      mload(0x40)\n      tag_22\n      swap3\n      swap2\n      swap1\n      tag_23\n      jump\t// in\n    tag_22:\n      mload(0x40)\n      dup1\n      swap2\n      sub\n      swap1\n      return\n        /* \"contracts/_NodeManager.sol\":371:426  mapping(string => address[]) public nodeChunksAddresses */\n    tag_5:\n      tag_24\n      0x04\n      dup1\n      calldatasize\n      sub\n      dup2\n      add\n      swap1\n      tag_25\n      swap2\n      swap1\n      tag_26\n      jump\t// in\n    tag_25:\n      tag_27\n      jump\t// in\n    tag_24:\n      mload(0x40)\n      tag_28\n      swap2\n      swap1\n      tag_29\n      jump\t// in\n    tag_28:\n      mload(0x40)\n      dup1\n      swap2\n      sub\n      swap1\n      return\n        /* \"contracts/_NodeManager.sol\":2234:2596  function deleteChunkInNode(address _nodeAddress, string memory _fileId)... */\n    tag_6:\n      tag_30\n      0x04\n      dup1\n      calldatasize\n      sub\n      dup2\n      add\n      swap1\n      tag_31\n      swap2\n      swap1\n      tag_32\n      jump\t// in\n    tag_31:\n      tag_33\n      jump\t// in\n    tag_30:\n      stop\n        /* \"contracts/_NodeManager.sol\":1293:1818  function storeChunkInNode(... */\n    tag_7:\n      tag_34\n      0x04\n      dup1\n      calldatasize\n      sub\n      dup2\n      add\n      swap1\n      tag_35\n      swap2\n      swap1\n      tag_36\n      jump\t// in\n    tag_35:\n      tag_37\n      jump\t// in\n    tag_34:\n      stop\n        /* \"contracts/_NodeManager.sol\":2861:3722  function findAvailableNode(uint256 _chunkSize) public returns (address) {... */\n    tag_8:\n      tag_38\n      0x04\n      dup1\n      calldatasize\n      sub\n      dup2\n      add\n      swap1\n      tag_39\n      swap2\n      swap1\n      tag_40\n      jump\t// in\n    tag_39:\n      tag_41\n      jump\t// in\n    tag_38:\n      mload(0x40)\n      tag_42\n      swap2\n      swap1\n      tag_29\n      jump\t// in\n    tag_42:\n      mload(0x40)\n      dup1\n      swap2\n      sub\n      swap1\n      return\n        /* \"contracts/_NodeManager.sol\":2602:2696  function getAllNodes() public view returns (address[] memory) {... */\n    tag_9:\n      tag_43\n      tag_44\n      jump\t// in\n    tag_43:\n      mload(0x40)\n      tag_45\n      swap2\n      swap1\n      tag_46\n      jump\t// in\n    tag_45:\n      mload(0x40)\n      dup1\n      swap2\n      sub\n      swap1\n      return\n        /* \"contracts/_NodeManager.sol\":2702:2855  function getNodeByAddress(address _nodeAddress)... */\n    tag_10:\n      tag_47\n      0x04\n      dup1\n      calldatasize\n      sub\n      dup2\n      add\n      swap1\n      tag_48\n      swap2\n      swap1\n      tag_20\n      jump\t// in\n    tag_48:\n      tag_49\n      jump\t// in\n    tag_47:\n      mload(0x40)\n      tag_50\n      swap2\n      swap1\n      tag_51\n      jump\t// in\n    tag_50:\n      mload(0x40)\n      dup1\n      swap2\n      sub\n      swap1\n      return\n        /* \"contracts/_NodeManager.sol\":1824:2228  function retrieveChunkNodeAddresses(string memory _fileId)... */\n    tag_11:\n      tag_52\n      0x04\n      dup1\n      calldatasize\n      sub\n      dup2\n      add\n      swap1\n      tag_53\n      swap2\n      swap1\n      tag_54\n      jump\t// in\n    tag_53:\n      tag_55\n      jump\t// in\n    tag_52:\n      mload(0x40)\n      tag_56\n      swap2\n      swap1\n      tag_46\n      jump\t// in\n    tag_56:\n      mload(0x40)\n      dup1\n      swap2\n      sub\n      swap1\n      return\n        /* \"contracts/_NodeManager.sol\":433:458  address[] public allNodes */\n    tag_12:\n      tag_57\n      0x04\n      dup1\n      calldatasize\n      sub\n      dup2\n      add\n      swap1\n      tag_58\n      swap2\n      swap1\n      tag_40\n      jump\t// in\n    tag_58:\n      tag_59\n      jump\t// in\n    tag_57:\n      mload(0x40)\n      tag_60\n      swap2\n      swap1\n      tag_29\n      jump\t// in\n    tag_60:\n      mload(0x40)\n      dup1\n      swap2\n      sub\n      swap1\n      return\n        /* \"contracts/_NodeManager.sol\":473:997  function addNode(address _nodeAddress, uint256 _initialStorage) public {... */\n    tag_17:\n        /* \"contracts/_NodeManager.sol\":627:628  0 */\n      0x00\n        /* \"contracts/_NodeManager.sol\":575:629  nodes[address(_nodeAddress)].nodeAddress == address(0) */\n      0xffffffffffffffffffffffffffffffffffffffff\n      and\n        /* \"contracts/_NodeManager.sol\":575:580  nodes */\n      0x00\n        /* \"contracts/_NodeManager.sol\":575:603  nodes[address(_nodeAddress)] */\n      dup1\n        /* \"contracts/_NodeManager.sol\":589:601  _nodeAddress */\n      dup5\n        /* \"contracts/_NodeManager.sol\":575:603  nodes[address(_nodeAddress)] */\n      0xffffffffffffffffffffffffffffffffffffffff\n      and\n      0xffffffffffffffffffffffffffffffffffffffff\n      and\n      dup2\n      mstore\n      0x20\n      add\n      swap1\n      dup2\n      mstore\n      0x20\n      add\n      0x00\n      keccak256\n        /* \"contracts/_NodeManager.sol\":575:615  nodes[address(_nodeAddress)].nodeAddress */\n      0x00\n      add\n      0x00\n      swap1\n      sload\n      swap1\n      0x0100\n      exp\n      swap1\n      div\n      0xffffffffffffffffffffffffffffffffffffffff\n      and\n        /* \"contracts/_NodeManager.sol\":575:629  nodes[address(_nodeAddress)].nodeAddress == address(0) */\n      0xffffffffffffffffffffffffffffffffffffffff\n      and\n      eq\n        /* \"contracts/_NodeManager.sol\":554:674  require(... */\n      tag_62\n      jumpi\n      mload(0x40)\n      0x08c379a000000000000000000000000000000000000000000000000000000000\n      dup2\n      mstore\n      0x04\n      add\n      tag_63\n      swap1\n      tag_64\n      jump\t// in\n    tag_63:\n      mload(0x40)\n      dup1\n      swap2\n      sub\n      swap1\n      revert\n    tag_62:\n        /* \"contracts/_NodeManager.sol\":763:874  Node({... */\n      mload(0x40)\n      dup1\n      0x40\n      add\n      0x40\n      mstore\n      dup1\n        /* \"contracts/_NodeManager.sol\":803:815  _nodeAddress */\n      dup4\n        /* \"contracts/_NodeManager.sol\":763:874  Node({... */\n      0xffffffffffffffffffffffffffffffffffffffff\n      and\n      dup2\n      mstore\n      0x20\n      add\n        /* \"contracts/_NodeManager.sol\":848:863  _initialStorage */\n      dup3\n        /* \"contracts/_NodeManager.sol\":763:874  Node({... */\n      dup2\n      mstore\n      pop\n        /* \"contracts/_NodeManager.sol\":732:737  nodes */\n      0x00\n        /* \"contracts/_NodeManager.sol\":732:760  nodes[address(_nodeAddress)] */\n      dup1\n        /* \"contracts/_NodeManager.sol\":746:758  _nodeAddress */\n      dup5\n        /* \"contracts/_NodeManager.sol\":732:760  nodes[address(_nodeAddress)] */\n      0xffffffffffffffffffffffffffffffffffffffff\n      and\n      0xffffffffffffffffffffffffffffffffffffffff\n      and\n      dup2\n      mstore\n      0x20\n      add\n      swap1\n      dup2\n      mstore\n      0x20\n      add\n      0x00\n      keccak256\n        /* \"contracts/_NodeManager.sol\":732:874  nodes[address(_nodeAddress)] = Node({... */\n      0x00\n      dup3\n      add\n      mload\n      dup2\n      0x00\n      add\n      exp(0x0100, 0x00)\n      dup2\n      sload\n      dup2\n      0xffffffffffffffffffffffffffffffffffffffff\n      mul\n      not\n      and\n      swap1\n      dup4\n      0xffffffffffffffffffffffffffffffffffffffff\n      and\n      mul\n      or\n      swap1\n      sstore\n      pop\n      0x20\n      dup3\n      add\n      mload\n      dup2\n      0x01\n      add\n      sstore\n      swap1\n      pop\n      pop\n        /* \"contracts/_NodeManager.sol\":889:922  logAddress(address(_nodeAddress)) */\n      0x5f91b0afd2c6ef8da92137ba907bccdc85ec4856a15ad39de3e0eff02be6d70e\n        /* \"contracts/_NodeManager.sol\":908:920  _nodeAddress */\n      dup3\n        /* \"contracts/_NodeManager.sol\":889:922  logAddress(address(_nodeAddress)) */\n      mload(0x40)\n      tag_65\n      swap2\n      swap1\n      tag_29\n      jump\t// in\n    tag_65:\n      mload(0x40)\n      dup1\n      swap2\n      sub\n      swap1\n      log1\n        /* \"contracts/_NodeManager.sol\":954:962  allNodes */\n      0x02\n        /* \"contracts/_NodeManager.sol\":976:988  _nodeAddress */\n      dup3\n        /* \"contracts/_NodeManager.sol\":954:990  allNodes.push(address(_nodeAddress)) */\n      swap1\n      dup1\n      0x01\n      dup2\n      sload\n      add\n      dup1\n      dup3\n      sstore\n      dup1\n      swap2\n      pop\n      pop\n      0x01\n      swap1\n      sub\n      swap1\n      0x00\n      mstore\n      keccak256(0x00, 0x20)\n      add\n      0x00\n      swap1\n      swap2\n      swap1\n      swap2\n      swap1\n      swap2\n      0x0100\n      exp\n      dup2\n      sload\n      dup2\n      0xffffffffffffffffffffffffffffffffffffffff\n      mul\n      not\n      and\n      swap1\n      dup4\n      0xffffffffffffffffffffffffffffffffffffffff\n      and\n      mul\n      or\n      swap1\n      sstore\n      pop\n        /* \"contracts/_NodeManager.sol\":473:997  function addNode(address _nodeAddress, uint256 _initialStorage) public {... */\n      pop\n      pop\n      jump\t// out\n        /* \"contracts/_NodeManager.sol\":270:307  mapping(address => Node) public nodes */\n    tag_21:\n      mstore(0x20, 0x00)\n      dup1\n      0x00\n      mstore\n      keccak256(0x00, 0x40)\n      0x00\n      swap2\n      pop\n      swap1\n      pop\n      dup1\n      0x00\n      add\n      0x00\n      swap1\n      sload\n      swap1\n      0x0100\n      exp\n      swap1\n      div\n      0xffffffffffffffffffffffffffffffffffffffff\n      and\n      swap1\n      dup1\n      0x01\n      add\n      sload\n      swap1\n      pop\n      dup3\n      jump\t// out\n        /* \"contracts/_NodeManager.sol\":371:426  mapping(string => address[]) public nodeChunksAddresses */\n    tag_27:\n      0x01\n      dup3\n      dup1\n      mload\n      0x20\n      dup2\n      add\n      dup3\n      add\n      dup1\n      mload\n      dup5\n      dup3\n      mstore\n      0x20\n      dup4\n      add\n      0x20\n      dup6\n      add\n      keccak256\n      dup2\n      dup4\n      mstore\n      dup1\n      swap6\n      pop\n      pop\n      pop\n      pop\n      pop\n      pop\n      dup2\n      dup2\n      sload\n      dup2\n      lt\n      tag_67\n      jumpi\n      0x00\n      dup1\n      revert\n    tag_67:\n      swap1\n      0x00\n      mstore\n      keccak256(0x00, 0x20)\n      add\n      0x00\n      swap2\n      pop\n      swap2\n      pop\n      swap1\n      sload\n      swap1\n      0x0100\n      exp\n      swap1\n      div\n      0xffffffffffffffffffffffffffffffffffffffff\n      and\n      dup2\n      jump\t// out\n        /* \"contracts/_NodeManager.sol\":2234:2596  function deleteChunkInNode(address _nodeAddress, string memory _fileId)... */\n    tag_33:\n        /* \"contracts/_NodeManager.sol\":2399:2400  0 */\n      0x00\n        /* \"contracts/_NodeManager.sol\":2356:2401  nodes[_nodeAddress].nodeAddress != address(0) */\n      0xffffffffffffffffffffffffffffffffffffffff\n      and\n        /* \"contracts/_NodeManager.sol\":2356:2361  nodes */\n      0x00\n        /* \"contracts/_NodeManager.sol\":2356:2375  nodes[_nodeAddress] */\n      dup1\n        /* \"contracts/_NodeManager.sol\":2362:2374  _nodeAddress */\n      dup5\n        /* \"contracts/_NodeManager.sol\":2356:2375  nodes[_nodeAddress] */\n      0xffffffffffffffffffffffffffffffffffffffff\n      and\n      0xffffffffffffffffffffffffffffffffffffffff\n      and\n      dup2\n      mstore\n      0x20\n      add\n      swap1\n      dup2\n      mstore\n      0x20\n      add\n      0x00\n      keccak256\n        /* \"contracts/_NodeManager.sol\":2356:2387  nodes[_nodeAddress].nodeAddress */\n      0x00\n      add\n      0x00\n      swap1\n      sload\n      swap1\n      0x0100\n      exp\n      swap1\n      div\n      0xffffffffffffffffffffffffffffffffffffffff\n      and\n        /* \"contracts/_NodeManager.sol\":2356:2401  nodes[_nodeAddress].nodeAddress != address(0) */\n      0xffffffffffffffffffffffffffffffffffffffff\n      and\n      sub\n        /* \"contracts/_NodeManager.sol\":2335:2446  require(... */\n      tag_70\n      jumpi\n      mload(0x40)\n      0x08c379a000000000000000000000000000000000000000000000000000000000\n      dup2\n      mstore\n      0x04\n      add\n      tag_71\n      swap1\n      tag_72\n      jump\t// in\n    tag_71:\n      mload(0x40)\n      dup1\n      swap2\n      sub\n      swap1\n      revert\n    tag_70:\n        /* \"contracts/_NodeManager.sol\":2561:2580  nodeChunksAddresses */\n      0x01\n        /* \"contracts/_NodeManager.sol\":2581:2588  _fileId */\n      dup2\n        /* \"contracts/_NodeManager.sol\":2561:2589  nodeChunksAddresses[_fileId] */\n      mload(0x40)\n      tag_73\n      swap2\n      swap1\n      tag_74\n      jump\t// in\n    tag_73:\n      swap1\n      dup2\n      mstore\n      0x20\n      add\n      mload(0x40)\n      dup1\n      swap2\n      sub\n      swap1\n      keccak256\n      0x00\n        /* \"contracts/_NodeManager.sol\":2554:2589  delete nodeChunksAddresses[_fileId] */\n      tag_75\n      swap2\n      swap1\n      tag_76\n      jump\t// in\n    tag_75:\n        /* \"contracts/_NodeManager.sol\":2234:2596  function deleteChunkInNode(address _nodeAddress, string memory _fileId)... */\n      pop\n      pop\n      jump\t// out\n        /* \"contracts/_NodeManager.sol\":1293:1818  function storeChunkInNode(... */\n    tag_37:\n        /* \"contracts/_NodeManager.sol\":1520:1521  0 */\n      0x00\n        /* \"contracts/_NodeManager.sol\":1477:1522  nodes[_nodeAddress].nodeAddress != address(0) */\n      0xffffffffffffffffffffffffffffffffffffffff\n      and\n        /* \"contracts/_NodeManager.sol\":1477:1482  nodes */\n      0x00\n        /* \"contracts/_NodeManager.sol\":1477:1496  nodes[_nodeAddress] */\n      dup1\n        /* \"contracts/_NodeManager.sol\":1483:1495  _nodeAddress */\n      dup7\n        /* \"contracts/_NodeManager.sol\":1477:1496  nodes[_nodeAddress] */\n      0xffffffffffffffffffffffffffffffffffffffff\n      and\n      0xffffffffffffffffffffffffffffffffffffffff\n      and\n      dup2\n      mstore\n      0x20\n      add\n      swap1\n      dup2\n      mstore\n      0x20\n      add\n      0x00\n      keccak256\n        /* \"contracts/_NodeManager.sol\":1477:1508  nodes[_nodeAddress].nodeAddress */\n      0x00\n      add\n      0x00\n      swap1\n      sload\n      swap1\n      0x0100\n      exp\n      swap1\n      div\n      0xffffffffffffffffffffffffffffffffffffffff\n      and\n        /* \"contracts/_NodeManager.sol\":1477:1522  nodes[_nodeAddress].nodeAddress != address(0) */\n      0xffffffffffffffffffffffffffffffffffffffff\n      and\n      sub\n        /* \"contracts/_NodeManager.sol\":1456:1567  require(... */\n      tag_78\n      jumpi\n      mload(0x40)\n      0x08c379a000000000000000000000000000000000000000000000000000000000\n      dup2\n      mstore\n      0x04\n      add\n      tag_79\n      swap1\n      tag_72\n      jump\t// in\n    tag_79:\n      mload(0x40)\n      dup1\n      swap2\n      sub\n      swap1\n      revert\n    tag_78:\n        /* \"contracts/_NodeManager.sol\":1678:1738  isAddressPresent(_nodeAddress, nodeChunksAddresses[_fileId]) */\n      tag_80\n        /* \"contracts/_NodeManager.sol\":1695:1707  _nodeAddress */\n      dup5\n        /* \"contracts/_NodeManager.sol\":1709:1728  nodeChunksAddresses */\n      0x01\n        /* \"contracts/_NodeManager.sol\":1729:1736  _fileId */\n      dup5\n        /* \"contracts/_NodeManager.sol\":1709:1737  nodeChunksAddresses[_fileId] */\n      mload(0x40)\n      tag_81\n      swap2\n      swap1\n      tag_74\n      jump\t// in\n    tag_81:\n      swap1\n      dup2\n      mstore\n      0x20\n      add\n      mload(0x40)\n      dup1\n      swap2\n      sub\n      swap1\n      keccak256\n        /* \"contracts/_NodeManager.sol\":1678:1738  isAddressPresent(_nodeAddress, nodeChunksAddresses[_fileId]) */\n      dup1\n      sload\n      dup1\n      0x20\n      mul\n      0x20\n      add\n      mload(0x40)\n      swap1\n      dup2\n      add\n      0x40\n      mstore\n      dup1\n      swap3\n      swap2\n      swap1\n      dup2\n      dup2\n      mstore\n      0x20\n      add\n      dup3\n      dup1\n      sload\n      dup1\n      iszero\n      tag_82\n      jumpi\n      0x20\n      mul\n      dup3\n      add\n      swap2\n      swap1\n      0x00\n      mstore\n      keccak256(0x00, 0x20)\n      swap1\n    tag_83:\n      dup2\n      0x00\n      swap1\n      sload\n      swap1\n      0x0100\n      exp\n      swap1\n      div\n      0xffffffffffffffffffffffffffffffffffffffff\n      and\n      0xffffffffffffffffffffffffffffffffffffffff\n      and\n      dup2\n      mstore\n      0x20\n      add\n      swap1\n      0x01\n      add\n      swap1\n      dup1\n      dup4\n      gt\n      tag_83\n      jumpi\n    tag_82:\n      pop\n      pop\n      pop\n      pop\n      pop\n        /* \"contracts/_NodeManager.sol\":1678:1694  isAddressPresent */\n      tag_84\n        /* \"contracts/_NodeManager.sol\":1678:1738  isAddressPresent(_nodeAddress, nodeChunksAddresses[_fileId]) */\n      jump\t// in\n    tag_80:\n        /* \"contracts/_NodeManager.sol\":1673:1812  if (!isAddressPresent(_nodeAddress, nodeChunksAddresses[_fileId])) {... */\n      tag_85\n      jumpi\n        /* \"contracts/_NodeManager.sol\":1754:1773  nodeChunksAddresses */\n      0x01\n        /* \"contracts/_NodeManager.sol\":1774:1781  _fileId */\n      dup3\n        /* \"contracts/_NodeManager.sol\":1754:1782  nodeChunksAddresses[_fileId] */\n      mload(0x40)\n      tag_86\n      swap2\n      swap1\n      tag_74\n      jump\t// in\n    tag_86:\n      swap1\n      dup2\n      mstore\n      0x20\n      add\n      mload(0x40)\n      dup1\n      swap2\n      sub\n      swap1\n      keccak256\n        /* \"contracts/_NodeManager.sol\":1788:1800  _nodeAddress */\n      dup5\n        /* \"contracts/_NodeManager.sol\":1754:1801  nodeChunksAddresses[_fileId].push(_nodeAddress) */\n      swap1\n      dup1\n      0x01\n      dup2\n      sload\n      add\n      dup1\n      dup3\n      sstore\n      dup1\n      swap2\n      pop\n      pop\n      0x01\n      swap1\n      sub\n      swap1\n      0x00\n      mstore\n      keccak256(0x00, 0x20)\n      add\n      0x00\n      swap1\n      swap2\n      swap1\n      swap2\n      swap1\n      swap2\n      0x0100\n      exp\n      dup2\n      sload\n      dup2\n      0xffffffffffffffffffffffffffffffffffffffff\n      mul\n      not\n      and\n      swap1\n      dup4\n      0xffffffffffffffffffffffffffffffffffffffff\n      and\n      mul\n      or\n      swap1\n      sstore\n      pop\n        /* \"contracts/_NodeManager.sol\":1673:1812  if (!isAddressPresent(_nodeAddress, nodeChunksAddresses[_fileId])) {... */\n    tag_85:\n        /* \"contracts/_NodeManager.sol\":1293:1818  function storeChunkInNode(... */\n      pop\n      pop\n      pop\n      pop\n      jump\t// out\n        /* \"contracts/_NodeManager.sol\":2861:3722  function findAvailableNode(uint256 _chunkSize) public returns (address) {... */\n    tag_41:\n        /* \"contracts/_NodeManager.sol\":2924:2931  address */\n      0x00\n        /* \"contracts/_NodeManager.sol\":2943:2959  uint256 numNodes */\n      dup1\n        /* \"contracts/_NodeManager.sol\":2962:2970  allNodes */\n      0x02\n        /* \"contracts/_NodeManager.sol\":2962:2977  allNodes.length */\n      dup1\n      sload\n      swap1\n      pop\n        /* \"contracts/_NodeManager.sol\":2943:2977  uint256 numNodes = allNodes.length */\n      swap1\n      pop\n        /* \"contracts/_NodeManager.sol\":2987:3005  uint256 sizeOffset */\n      0x00\n        /* \"contracts/_NodeManager.sol\":3008:3010  50 */\n      0x32\n        /* \"contracts/_NodeManager.sol\":2987:3010  uint256 sizeOffset = 50 */\n      swap1\n      pop\n        /* \"contracts/_NodeManager.sol\":3037:3038  0 */\n      0x00\n        /* \"contracts/_NodeManager.sol\":3025:3033  numNodes */\n      dup3\n        /* \"contracts/_NodeManager.sol\":3025:3038  numNodes == 0 */\n      sub\n        /* \"contracts/_NodeManager.sol\":3021:3082  if (numNodes == 0) {... */\n      tag_89\n      jumpi\n        /* \"contracts/_NodeManager.sol\":3069:3070  0 */\n      0x00\n        /* \"contracts/_NodeManager.sol\":3054:3071  return address(0) */\n      swap3\n      pop\n      pop\n      pop\n      jump(tag_88)\n        /* \"contracts/_NodeManager.sol\":3021:3082  if (numNodes == 0) {... */\n    tag_89:\n        /* \"contracts/_NodeManager.sol\":3150:3169  uint256 randomIndex */\n      0x00\n        /* \"contracts/_NodeManager.sol\":3211:3219  numNodes */\n      dup3\n        /* \"contracts/_NodeManager.sol\":3205:3206  1 */\n      0x01\n        /* \"contracts/_NodeManager.sol\":3190:3202  block.number */\n      number\n        /* \"contracts/_NodeManager.sol\":3190:3206  block.number - 1 */\n      tag_90\n      swap2\n      swap1\n      tag_91\n      jump\t// in\n    tag_90:\n        /* \"contracts/_NodeManager.sol\":3180:3207  blockhash(block.number - 1) */\n      blockhash\n        /* \"contracts/_NodeManager.sol\":3172:3208  uint256(blockhash(block.number - 1)) */\n      0x00\n      shr\n        /* \"contracts/_NodeManager.sol\":3172:3219  uint256(blockhash(block.number - 1)) % numNodes */\n      tag_92\n      swap2\n      swap1\n      tag_93\n      jump\t// in\n    tag_92:\n        /* \"contracts/_NodeManager.sol\":3150:3219  uint256 randomIndex = uint256(blockhash(block.number - 1)) % numNodes */\n      swap1\n      pop\n        /* \"contracts/_NodeManager.sol\":3310:3319  uint256 i */\n      0x00\n        /* \"contracts/_NodeManager.sol\":3305:3659  for (uint256 i = 0; i < numNodes; i++) {... */\n    tag_94:\n        /* \"contracts/_NodeManager.sol\":3329:3337  numNodes */\n      dup4\n        /* \"contracts/_NodeManager.sol\":3325:3326  i */\n      dup2\n        /* \"contracts/_NodeManager.sol\":3325:3337  i < numNodes */\n      lt\n        /* \"contracts/_NodeManager.sol\":3305:3659  for (uint256 i = 0; i < numNodes; i++) {... */\n      iszero\n      tag_95\n      jumpi\n        /* \"contracts/_NodeManager.sol\":3358:3370  address node */\n      0x00\n        /* \"contracts/_NodeManager.sol\":3373:3381  allNodes */\n      0x02\n        /* \"contracts/_NodeManager.sol\":3402:3410  numNodes */\n      dup6\n        /* \"contracts/_NodeManager.sol\":3397:3398  i */\n      dup4\n        /* \"contracts/_NodeManager.sol\":3383:3394  randomIndex */\n      dup6\n        /* \"contracts/_NodeManager.sol\":3383:3398  randomIndex + i */\n      tag_97\n      swap2\n      swap1\n      tag_98\n      jump\t// in\n    tag_97:\n        /* \"contracts/_NodeManager.sol\":3382:3410  (randomIndex + i) % numNodes */\n      tag_99\n      swap2\n      swap1\n      tag_93\n      jump\t// in\n    tag_99:\n        /* \"contracts/_NodeManager.sol\":3373:3411  allNodes[(randomIndex + i) % numNodes] */\n      dup2\n      sload\n      dup2\n      lt\n      tag_100\n      jumpi\n      tag_101\n      tag_102\n      jump\t// in\n    tag_101:\n    tag_100:\n      swap1\n      0x00\n      mstore\n      keccak256(0x00, 0x20)\n      add\n      0x00\n      swap1\n      sload\n      swap1\n      0x0100\n      exp\n      swap1\n      div\n      0xffffffffffffffffffffffffffffffffffffffff\n      and\n        /* \"contracts/_NodeManager.sol\":3358:3411  address node = allNodes[(randomIndex + i) % numNodes] */\n      swap1\n      pop\n        /* \"contracts/_NodeManager.sol\":3430:3452  logNumber(randomIndex) */\n      0x0838d04243391d45d94a98fff54d1737cbffea86c34ab825e5d6980ec9b77235\n        /* \"contracts/_NodeManager.sol\":3440:3451  randomIndex */\n      dup4\n        /* \"contracts/_NodeManager.sol\":3430:3452  logNumber(randomIndex) */\n      mload(0x40)\n      tag_104\n      swap2\n      swap1\n      tag_105\n      jump\t// in\n    tag_104:\n      mload(0x40)\n      dup1\n      swap2\n      sub\n      swap1\n      log1\n        /* \"contracts/_NodeManager.sol\":3514:3524  sizeOffset */\n      dup4\n        /* \"contracts/_NodeManager.sol\":3501:3511  _chunkSize */\n      dup8\n        /* \"contracts/_NodeManager.sol\":3501:3524  _chunkSize + sizeOffset */\n      tag_106\n      swap2\n      swap1\n      tag_98\n      jump\t// in\n    tag_106:\n        /* \"contracts/_NodeManager.sol\":3470:3475  nodes */\n      0x00\n        /* \"contracts/_NodeManager.sol\":3470:3481  nodes[node] */\n      dup1\n        /* \"contracts/_NodeManager.sol\":3476:3480  node */\n      dup4\n        /* \"contracts/_NodeManager.sol\":3470:3481  nodes[node] */\n      0xffffffffffffffffffffffffffffffffffffffff\n      and\n      0xffffffffffffffffffffffffffffffffffffffff\n      and\n      dup2\n      mstore\n      0x20\n      add\n      swap1\n      dup2\n      mstore\n      0x20\n      add\n      0x00\n      keccak256\n        /* \"contracts/_NodeManager.sol\":3470:3498  nodes[node].availableStorage */\n      0x01\n      add\n      sload\n        /* \"contracts/_NodeManager.sol\":3470:3524  nodes[node].availableStorage > _chunkSize + sizeOffset */\n      gt\n        /* \"contracts/_NodeManager.sol\":3466:3649  if (nodes[node].availableStorage > _chunkSize + sizeOffset) {... */\n      iszero\n      tag_107\n      jumpi\n        /* \"contracts/_NodeManager.sol\":3630:3634  node */\n      dup1\n        /* \"contracts/_NodeManager.sol\":3623:3634  return node */\n      swap6\n      pop\n      pop\n      pop\n      pop\n      pop\n      pop\n      jump(tag_88)\n        /* \"contracts/_NodeManager.sol\":3466:3649  if (nodes[node].availableStorage > _chunkSize + sizeOffset) {... */\n    tag_107:\n        /* \"contracts/_NodeManager.sol\":3344:3659  {... */\n      pop\n        /* \"contracts/_NodeManager.sol\":3339:3342  i++ */\n      dup1\n      dup1\n      0x01\n      add\n      swap2\n      pop\n      pop\n        /* \"contracts/_NodeManager.sol\":3305:3659  for (uint256 i = 0; i < numNodes; i++) {... */\n      jump(tag_94)\n    tag_95:\n      pop\n        /* \"contracts/_NodeManager.sol\":3713:3714  0 */\n      0x00\n        /* \"contracts/_NodeManager.sol\":3698:3715  return address(0) */\n      swap4\n      pop\n      pop\n      pop\n      pop\n        /* \"contracts/_NodeManager.sol\":2861:3722  function findAvailableNode(uint256 _chunkSize) public returns (address) {... */\n    tag_88:\n      swap2\n      swap1\n      pop\n      jump\t// out\n        /* \"contracts/_NodeManager.sol\":2602:2696  function getAllNodes() public view returns (address[] memory) {... */\n    tag_44:\n        /* \"contracts/_NodeManager.sol\":2646:2662  address[] memory */\n      0x60\n        /* \"contracts/_NodeManager.sol\":2681:2689  allNodes */\n      0x02\n        /* \"contracts/_NodeManager.sol\":2674:2689  return allNodes */\n      dup1\n      sload\n      dup1\n      0x20\n      mul\n      0x20\n      add\n      mload(0x40)\n      swap1\n      dup2\n      add\n      0x40\n      mstore\n      dup1\n      swap3\n      swap2\n      swap1\n      dup2\n      dup2\n      mstore\n      0x20\n      add\n      dup3\n      dup1\n      sload\n      dup1\n      iszero\n      tag_109\n      jumpi\n      0x20\n      mul\n      dup3\n      add\n      swap2\n      swap1\n      0x00\n      mstore\n      keccak256(0x00, 0x20)\n      swap1\n    tag_110:\n      dup2\n      0x00\n      swap1\n      sload\n      swap1\n      0x0100\n      exp\n      swap1\n      div\n      0xffffffffffffffffffffffffffffffffffffffff\n      and\n      0xffffffffffffffffffffffffffffffffffffffff\n      and\n      dup2\n      mstore\n      0x20\n      add\n      swap1\n      0x01\n      add\n      swap1\n      dup1\n      dup4\n      gt\n      tag_110\n      jumpi\n    tag_109:\n      pop\n      pop\n      pop\n      pop\n      pop\n      swap1\n      pop\n        /* \"contracts/_NodeManager.sol\":2602:2696  function getAllNodes() public view returns (address[] memory) {... */\n      swap1\n      jump\t// out\n        /* \"contracts/_NodeManager.sol\":2702:2855  function getNodeByAddress(address _nodeAddress)... */\n    tag_49:\n        /* \"contracts/_NodeManager.sol\":2795:2806  Node memory */\n      tag_111\n      tag_112\n      jump\t// in\n    tag_111:\n        /* \"contracts/_NodeManager.sol\":2829:2834  nodes */\n      0x00\n        /* \"contracts/_NodeManager.sol\":2829:2848  nodes[_nodeAddress] */\n      dup1\n        /* \"contracts/_NodeManager.sol\":2835:2847  _nodeAddress */\n      dup4\n        /* \"contracts/_NodeManager.sol\":2829:2848  nodes[_nodeAddress] */\n      0xffffffffffffffffffffffffffffffffffffffff\n      and\n      0xffffffffffffffffffffffffffffffffffffffff\n      and\n      dup2\n      mstore\n      0x20\n      add\n      swap1\n      dup2\n      mstore\n      0x20\n      add\n      0x00\n      keccak256\n        /* \"contracts/_NodeManager.sol\":2822:2848  return nodes[_nodeAddress] */\n      mload(0x40)\n      dup1\n      0x40\n      add\n      0x40\n      mstore\n      swap1\n      dup2\n      0x00\n      dup3\n      add\n      0x00\n      swap1\n      sload\n      swap1\n      0x0100\n      exp\n      swap1\n      div\n      0xffffffffffffffffffffffffffffffffffffffff\n      and\n      0xffffffffffffffffffffffffffffffffffffffff\n      and\n      0xffffffffffffffffffffffffffffffffffffffff\n      and\n      dup2\n      mstore\n      0x20\n      add\n      0x01\n      dup3\n      add\n      sload\n      dup2\n      mstore\n      pop\n      pop\n      swap1\n      pop\n        /* \"contracts/_NodeManager.sol\":2702:2855  function getNodeByAddress(address _nodeAddress)... */\n      swap2\n      swap1\n      pop\n      jump\t// out\n        /* \"contracts/_NodeManager.sol\":1824:2228  function retrieveChunkNodeAddresses(string memory _fileId)... */\n    tag_55:\n        /* \"contracts/_NodeManager.sol\":1928:1944  address[] memory */\n      0x60\n        /* \"contracts/_NodeManager.sol\":2019:2020  0 */\n      0x00\n        /* \"contracts/_NodeManager.sol\":1981:2000  nodeChunksAddresses */\n      0x01\n        /* \"contracts/_NodeManager.sol\":2001:2008  _fileId */\n      dup4\n        /* \"contracts/_NodeManager.sol\":1981:2009  nodeChunksAddresses[_fileId] */\n      mload(0x40)\n      tag_115\n      swap2\n      swap1\n      tag_74\n      jump\t// in\n    tag_115:\n      swap1\n      dup2\n      mstore\n      0x20\n      add\n      mload(0x40)\n      dup1\n      swap2\n      sub\n      swap1\n      keccak256\n        /* \"contracts/_NodeManager.sol\":1981:2016  nodeChunksAddresses[_fileId].length */\n      dup1\n      sload\n      swap1\n      pop\n        /* \"contracts/_NodeManager.sol\":1981:2020  nodeChunksAddresses[_fileId].length > 0 */\n      gt\n        /* \"contracts/_NodeManager.sol\":1960:2065  require(... */\n      tag_116\n      jumpi\n      mload(0x40)\n      0x08c379a000000000000000000000000000000000000000000000000000000000\n      dup2\n      mstore\n      0x04\n      add\n      tag_117\n      swap1\n      tag_72\n      jump\t// in\n    tag_117:\n      mload(0x40)\n      dup1\n      swap2\n      sub\n      swap1\n      revert\n    tag_116:\n        /* \"contracts/_NodeManager.sol\":2193:2212  nodeChunksAddresses */\n      0x01\n        /* \"contracts/_NodeManager.sol\":2213:2220  _fileId */\n      dup3\n        /* \"contracts/_NodeManager.sol\":2193:2221  nodeChunksAddresses[_fileId] */\n      mload(0x40)\n      tag_118\n      swap2\n      swap1\n      tag_74\n      jump\t// in\n    tag_118:\n      swap1\n      dup2\n      mstore\n      0x20\n      add\n      mload(0x40)\n      dup1\n      swap2\n      sub\n      swap1\n      keccak256\n        /* \"contracts/_NodeManager.sol\":2186:2221  return nodeChunksAddresses[_fileId] */\n      dup1\n      sload\n      dup1\n      0x20\n      mul\n      0x20\n      add\n      mload(0x40)\n      swap1\n      dup2\n      add\n      0x40\n      mstore\n      dup1\n      swap3\n      swap2\n      swap1\n      dup2\n      dup2\n      mstore\n      0x20\n      add\n      dup3\n      dup1\n      sload\n      dup1\n      iszero\n      tag_119\n      jumpi\n      0x20\n      mul\n      dup3\n      add\n      swap2\n      swap1\n      0x00\n      mstore\n      keccak256(0x00, 0x20)\n      swap1\n    tag_120:\n      dup2\n      0x00\n      swap1\n      sload\n      swap1\n      0x0100\n      exp\n      swap1\n      div\n      0xffffffffffffffffffffffffffffffffffffffff\n      and\n      0xffffffffffffffffffffffffffffffffffffffff\n      and\n      dup2\n      mstore\n      0x20\n      add\n      swap1\n      0x01\n      add\n      swap1\n      dup1\n      dup4\n      gt\n      tag_120\n      jumpi\n    tag_119:\n      pop\n      pop\n      pop\n      pop\n      pop\n      swap1\n      pop\n        /* \"contracts/_NodeManager.sol\":1824:2228  function retrieveChunkNodeAddresses(string memory _fileId)... */\n      swap2\n      swap1\n      pop\n      jump\t// out\n        /* \"contracts/_NodeManager.sol\":433:458  address[] public allNodes */\n    tag_59:\n      0x02\n      dup2\n      dup2\n      sload\n      dup2\n      lt\n      tag_121\n      jumpi\n      0x00\n      dup1\n      revert\n    tag_121:\n      swap1\n      0x00\n      mstore\n      keccak256(0x00, 0x20)\n      add\n      0x00\n      swap2\n      pop\n      sload\n      swap1\n      0x0100\n      exp\n      swap1\n      div\n      0xffffffffffffffffffffffffffffffffffffffff\n      and\n      dup2\n      jump\t// out\n        /* \"contracts/_NodeManager.sol\":3728:4085  function isAddressPresent(... */\n    tag_84:\n        /* \"contracts/_NodeManager.sol\":3863:3867  bool */\n      0x00\n        /* \"contracts/_NodeManager.sol\":3884:3893  uint256 i */\n      dup1\n        /* \"contracts/_NodeManager.sol\":3896:3897  0 */\n      0x00\n        /* \"contracts/_NodeManager.sol\":3884:3897  uint256 i = 0 */\n      swap1\n      pop\n        /* \"contracts/_NodeManager.sol\":3879:4057  for (uint256 i = 0; i < fileStorageNodeAddresses.length; i++) {... */\n    tag_124:\n        /* \"contracts/_NodeManager.sol\":3903:3927  fileStorageNodeAddresses */\n      dup3\n        /* \"contracts/_NodeManager.sol\":3903:3934  fileStorageNodeAddresses.length */\n      mload\n        /* \"contracts/_NodeManager.sol\":3899:3900  i */\n      dup2\n        /* \"contracts/_NodeManager.sol\":3899:3934  i < fileStorageNodeAddresses.length */\n      lt\n        /* \"contracts/_NodeManager.sol\":3879:4057  for (uint256 i = 0; i < fileStorageNodeAddresses.length; i++) {... */\n      iszero\n      tag_125\n      jumpi\n        /* \"contracts/_NodeManager.sol\":3990:4001  nodeAddress */\n      dup4\n        /* \"contracts/_NodeManager.sol\":3959:4001  fileStorageNodeAddresses[i] == nodeAddress */\n      0xffffffffffffffffffffffffffffffffffffffff\n      and\n        /* \"contracts/_NodeManager.sol\":3959:3983  fileStorageNodeAddresses */\n      dup4\n        /* \"contracts/_NodeManager.sol\":3984:3985  i */\n      dup3\n        /* \"contracts/_NodeManager.sol\":3959:3986  fileStorageNodeAddresses[i] */\n      dup2\n      mload\n      dup2\n      lt\n      tag_127\n      jumpi\n      tag_128\n      tag_102\n      jump\t// in\n    tag_128:\n    tag_127:\n      0x20\n      mul\n      0x20\n      add\n      add\n      mload\n        /* \"contracts/_NodeManager.sol\":3959:4001  fileStorageNodeAddresses[i] == nodeAddress */\n      0xffffffffffffffffffffffffffffffffffffffff\n      and\n      sub\n        /* \"contracts/_NodeManager.sol\":3955:4047  if (fileStorageNodeAddresses[i] == nodeAddress) {... */\n      tag_129\n      jumpi\n        /* \"contracts/_NodeManager.sol\":4028:4032  true */\n      0x01\n        /* \"contracts/_NodeManager.sol\":4021:4032  return true */\n      swap2\n      pop\n      pop\n      jump(tag_123)\n        /* \"contracts/_NodeManager.sol\":3955:4047  if (fileStorageNodeAddresses[i] == nodeAddress) {... */\n    tag_129:\n        /* \"contracts/_NodeManager.sol\":3936:3939  i++ */\n      dup1\n      dup1\n      0x01\n      add\n      swap2\n      pop\n      pop\n        /* \"contracts/_NodeManager.sol\":3879:4057  for (uint256 i = 0; i < fileStorageNodeAddresses.length; i++) {... */\n      jump(tag_124)\n    tag_125:\n      pop\n        /* \"contracts/_NodeManager.sol\":4073:4078  false */\n      0x00\n        /* \"contracts/_NodeManager.sol\":4066:4078  return false */\n      swap1\n      pop\n        /* \"contracts/_NodeManager.sol\":3728:4085  function isAddressPresent(... */\n    tag_123:\n      swap3\n      swap2\n      pop\n      pop\n      jump\t// out\n    tag_76:\n      pop\n      dup1\n      sload\n      0x00\n      dup3\n      sstore\n      swap1\n      0x00\n      mstore\n      keccak256(0x00, 0x20)\n      swap1\n      dup2\n      add\n      swap1\n      tag_131\n      swap2\n      swap1\n      tag_132\n      jump\t// in\n    tag_131:\n      pop\n      jump\t// out\n    tag_112:\n      mload(0x40)\n      dup1\n      0x40\n      add\n      0x40\n      mstore\n      dup1\n      and(0xffffffffffffffffffffffffffffffffffffffff, 0x00)\n      dup2\n      mstore\n      0x20\n      add\n      0x00\n      dup2\n      mstore\n      pop\n      swap1\n      jump\t// out\n    tag_132:\n    tag_133:\n      dup1\n      dup3\n      gt\n      iszero\n      tag_134\n      jumpi\n      0x00\n      dup2\n      0x00\n      swap1\n      sstore\n      pop\n      0x01\n      add\n      jump(tag_133)\n    tag_134:\n      pop\n      swap1\n      jump\t// out\n        /* \"#utility.yul\":7:82   */\n    tag_135:\n        /* \"#utility.yul\":40:46   */\n      0x00\n        /* \"#utility.yul\":73:75   */\n      0x40\n        /* \"#utility.yul\":67:76   */\n      mload\n        /* \"#utility.yul\":57:76   */\n      swap1\n      pop\n        /* \"#utility.yul\":7:82   */\n      swap1\n      jump\t// out\n        /* \"#utility.yul\":88:205   */\n    tag_136:\n        /* \"#utility.yul\":197:198   */\n      0x00\n        /* \"#utility.yul\":194:195   */\n      dup1\n        /* \"#utility.yul\":187:199   */\n      revert\n        /* \"#utility.yul\":211:328   */\n    tag_137:\n        /* \"#utility.yul\":320:321   */\n      0x00\n        /* \"#utility.yul\":317:318   */\n      dup1\n        /* \"#utility.yul\":310:322   */\n      revert\n        /* \"#utility.yul\":334:460   */\n    tag_138:\n        /* \"#utility.yul\":371:378   */\n      0x00\n        /* \"#utility.yul\":411:453   */\n      0xffffffffffffffffffffffffffffffffffffffff\n        /* \"#utility.yul\":404:409   */\n      dup3\n        /* \"#utility.yul\":400:454   */\n      and\n        /* \"#utility.yul\":389:454   */\n      swap1\n      pop\n        /* \"#utility.yul\":334:460   */\n      swap2\n      swap1\n      pop\n      jump\t// out\n        /* \"#utility.yul\":466:562   */\n    tag_139:\n        /* \"#utility.yul\":503:510   */\n      0x00\n        /* \"#utility.yul\":532:556   */\n      tag_183\n        /* \"#utility.yul\":550:555   */\n      dup3\n        /* \"#utility.yul\":532:556   */\n      tag_138\n      jump\t// in\n    tag_183:\n        /* \"#utility.yul\":521:556   */\n      swap1\n      pop\n        /* \"#utility.yul\":466:562   */\n      swap2\n      swap1\n      pop\n      jump\t// out\n        /* \"#utility.yul\":568:690   */\n    tag_140:\n        /* \"#utility.yul\":641:665   */\n      tag_185\n        /* \"#utility.yul\":659:664   */\n      dup2\n        /* \"#utility.yul\":641:665   */\n      tag_139\n      jump\t// in\n    tag_185:\n        /* \"#utility.yul\":634:639   */\n      dup2\n        /* \"#utility.yul\":631:666   */\n      eq\n        /* \"#utility.yul\":621:684   */\n      tag_186\n      jumpi\n        /* \"#utility.yul\":680:681   */\n      0x00\n        /* \"#utility.yul\":677:678   */\n      dup1\n        /* \"#utility.yul\":670:682   */\n      revert\n        /* \"#utility.yul\":621:684   */\n    tag_186:\n        /* \"#utility.yul\":568:690   */\n      pop\n      jump\t// out\n        /* \"#utility.yul\":696:835   */\n    tag_141:\n        /* \"#utility.yul\":742:747   */\n      0x00\n        /* \"#utility.yul\":780:786   */\n      dup2\n        /* \"#utility.yul\":767:787   */\n      calldataload\n        /* \"#utility.yul\":758:787   */\n      swap1\n      pop\n        /* \"#utility.yul\":796:829   */\n      tag_188\n        /* \"#utility.yul\":823:828   */\n      dup2\n        /* \"#utility.yul\":796:829   */\n      tag_140\n      jump\t// in\n    tag_188:\n        /* \"#utility.yul\":696:835   */\n      swap3\n      swap2\n      pop\n      pop\n      jump\t// out\n        /* \"#utility.yul\":841:918   */\n    tag_142:\n        /* \"#utility.yul\":878:885   */\n      0x00\n        /* \"#utility.yul\":907:912   */\n      dup2\n        /* \"#utility.yul\":896:912   */\n      swap1\n      pop\n        /* \"#utility.yul\":841:918   */\n      swap2\n      swap1\n      pop\n      jump\t// out\n        /* \"#utility.yul\":924:1046   */\n    tag_143:\n        /* \"#utility.yul\":997:1021   */\n      tag_191\n        /* \"#utility.yul\":1015:1020   */\n      dup2\n        /* \"#utility.yul\":997:1021   */\n      tag_142\n      jump\t// in\n    tag_191:\n        /* \"#utility.yul\":990:995   */\n      dup2\n        /* \"#utility.yul\":987:1022   */\n      eq\n        /* \"#utility.yul\":977:1040   */\n      tag_192\n      jumpi\n        /* \"#utility.yul\":1036:1037   */\n      0x00\n        /* \"#utility.yul\":1033:1034   */\n      dup1\n        /* \"#utility.yul\":1026:1038   */\n      revert\n        /* \"#utility.yul\":977:1040   */\n    tag_192:\n        /* \"#utility.yul\":924:1046   */\n      pop\n      jump\t// out\n        /* \"#utility.yul\":1052:1191   */\n    tag_144:\n        /* \"#utility.yul\":1098:1103   */\n      0x00\n        /* \"#utility.yul\":1136:1142   */\n      dup2\n        /* \"#utility.yul\":1123:1143   */\n      calldataload\n        /* \"#utility.yul\":1114:1143   */\n      swap1\n      pop\n        /* \"#utility.yul\":1152:1185   */\n      tag_194\n        /* \"#utility.yul\":1179:1184   */\n      dup2\n        /* \"#utility.yul\":1152:1185   */\n      tag_143\n      jump\t// in\n    tag_194:\n        /* \"#utility.yul\":1052:1191   */\n      swap3\n      swap2\n      pop\n      pop\n      jump\t// out\n        /* \"#utility.yul\":1197:1671   */\n    tag_16:\n        /* \"#utility.yul\":1265:1271   */\n      0x00\n        /* \"#utility.yul\":1273:1279   */\n      dup1\n        /* \"#utility.yul\":1322:1324   */\n      0x40\n        /* \"#utility.yul\":1310:1319   */\n      dup4\n        /* \"#utility.yul\":1301:1308   */\n      dup6\n        /* \"#utility.yul\":1297:1320   */\n      sub\n        /* \"#utility.yul\":1293:1325   */\n      slt\n        /* \"#utility.yul\":1290:1409   */\n      iszero\n      tag_196\n      jumpi\n        /* \"#utility.yul\":1328:1407   */\n      tag_197\n      tag_136\n      jump\t// in\n    tag_197:\n        /* \"#utility.yul\":1290:1409   */\n    tag_196:\n        /* \"#utility.yul\":1448:1449   */\n      0x00\n        /* \"#utility.yul\":1473:1526   */\n      tag_198\n        /* \"#utility.yul\":1518:1525   */\n      dup6\n        /* \"#utility.yul\":1509:1515   */\n      dup3\n        /* \"#utility.yul\":1498:1507   */\n      dup7\n        /* \"#utility.yul\":1494:1516   */\n      add\n        /* \"#utility.yul\":1473:1526   */\n      tag_141\n      jump\t// in\n    tag_198:\n        /* \"#utility.yul\":1463:1526   */\n      swap3\n      pop\n        /* \"#utility.yul\":1419:1536   */\n      pop\n        /* \"#utility.yul\":1575:1577   */\n      0x20\n        /* \"#utility.yul\":1601:1654   */\n      tag_199\n        /* \"#utility.yul\":1646:1653   */\n      dup6\n        /* \"#utility.yul\":1637:1643   */\n      dup3\n        /* \"#utility.yul\":1626:1635   */\n      dup7\n        /* \"#utility.yul\":1622:1644   */\n      add\n        /* \"#utility.yul\":1601:1654   */\n      tag_144\n      jump\t// in\n    tag_199:\n        /* \"#utility.yul\":1591:1654   */\n      swap2\n      pop\n        /* \"#utility.yul\":1546:1664   */\n      pop\n        /* \"#utility.yul\":1197:1671   */\n      swap3\n      pop\n      swap3\n      swap1\n      pop\n      jump\t// out\n        /* \"#utility.yul\":1677:2006   */\n    tag_20:\n        /* \"#utility.yul\":1736:1742   */\n      0x00\n        /* \"#utility.yul\":1785:1787   */\n      0x20\n        /* \"#utility.yul\":1773:1782   */\n      dup3\n        /* \"#utility.yul\":1764:1771   */\n      dup5\n        /* \"#utility.yul\":1760:1783   */\n      sub\n        /* \"#utility.yul\":1756:1788   */\n      slt\n        /* \"#utility.yul\":1753:1872   */\n      iszero\n      tag_201\n      jumpi\n        /* \"#utility.yul\":1791:1870   */\n      tag_202\n      tag_136\n      jump\t// in\n    tag_202:\n        /* \"#utility.yul\":1753:1872   */\n    tag_201:\n        /* \"#utility.yul\":1911:1912   */\n      0x00\n        /* \"#utility.yul\":1936:1989   */\n      tag_203\n        /* \"#utility.yul\":1981:1988   */\n      dup5\n        /* \"#utility.yul\":1972:1978   */\n      dup3\n        /* \"#utility.yul\":1961:1970   */\n      dup6\n        /* \"#utility.yul\":1957:1979   */\n      add\n        /* \"#utility.yul\":1936:1989   */\n      tag_141\n      jump\t// in\n    tag_203:\n        /* \"#utility.yul\":1926:1989   */\n      swap2\n      pop\n        /* \"#utility.yul\":1882:1999   */\n      pop\n        /* \"#utility.yul\":1677:2006   */\n      swap3\n      swap2\n      pop\n      pop\n      jump\t// out\n        /* \"#utility.yul\":2012:2130   */\n    tag_145:\n        /* \"#utility.yul\":2099:2123   */\n      tag_205\n        /* \"#utility.yul\":2117:2122   */\n      dup2\n        /* \"#utility.yul\":2099:2123   */\n      tag_139\n      jump\t// in\n    tag_205:\n        /* \"#utility.yul\":2094:2097   */\n      dup3\n        /* \"#utility.yul\":2087:2124   */\n      mstore\n        /* \"#utility.yul\":2012:2130   */\n      pop\n      pop\n      jump\t// out\n        /* \"#utility.yul\":2136:2254   */\n    tag_146:\n        /* \"#utility.yul\":2223:2247   */\n      tag_207\n        /* \"#utility.yul\":2241:2246   */\n      dup2\n        /* \"#utility.yul\":2223:2247   */\n      tag_142\n      jump\t// in\n    tag_207:\n        /* \"#utility.yul\":2218:2221   */\n      dup3\n        /* \"#utility.yul\":2211:2248   */\n      mstore\n        /* \"#utility.yul\":2136:2254   */\n      pop\n      pop\n      jump\t// out\n        /* \"#utility.yul\":2260:2592   */\n    tag_23:\n        /* \"#utility.yul\":2381:2385   */\n      0x00\n        /* \"#utility.yul\":2419:2421   */\n      0x40\n        /* \"#utility.yul\":2408:2417   */\n      dup3\n        /* \"#utility.yul\":2404:2422   */\n      add\n        /* \"#utility.yul\":2396:2422   */\n      swap1\n      pop\n        /* \"#utility.yul\":2432:2503   */\n      tag_209\n        /* \"#utility.yul\":2500:2501   */\n      0x00\n        /* \"#utility.yul\":2489:2498   */\n      dup4\n        /* \"#utility.yul\":2485:2502   */\n      add\n        /* \"#utility.yul\":2476:2482   */\n      dup6\n        /* \"#utility.yul\":2432:2503   */\n      tag_145\n      jump\t// in\n    tag_209:\n        /* \"#utility.yul\":2513:2585   */\n      tag_210\n        /* \"#utility.yul\":2581:2583   */\n      0x20\n        /* \"#utility.yul\":2570:2579   */\n      dup4\n        /* \"#utility.yul\":2566:2584   */\n      add\n        /* \"#utility.yul\":2557:2563   */\n      dup5\n        /* \"#utility.yul\":2513:2585   */\n      tag_146\n      jump\t// in\n    tag_210:\n        /* \"#utility.yul\":2260:2592   */\n      swap4\n      swap3\n      pop\n      pop\n      pop\n      jump\t// out\n        /* \"#utility.yul\":2598:2715   */\n    tag_147:\n        /* \"#utility.yul\":2707:2708   */\n      0x00\n        /* \"#utility.yul\":2704:2705   */\n      dup1\n        /* \"#utility.yul\":2697:2709   */\n      revert\n        /* \"#utility.yul\":2721:2838   */\n    tag_148:\n        /* \"#utility.yul\":2830:2831   */\n      0x00\n        /* \"#utility.yul\":2827:2828   */\n      dup1\n        /* \"#utility.yul\":2820:2832   */\n      revert\n        /* \"#utility.yul\":2844:2946   */\n    tag_149:\n        /* \"#utility.yul\":2885:2891   */\n      0x00\n        /* \"#utility.yul\":2936:2938   */\n      0x1f\n        /* \"#utility.yul\":2932:2939   */\n      not\n        /* \"#utility.yul\":2927:2929   */\n      0x1f\n        /* \"#utility.yul\":2920:2925   */\n      dup4\n        /* \"#utility.yul\":2916:2930   */\n      add\n        /* \"#utility.yul\":2912:2940   */\n      and\n        /* \"#utility.yul\":2902:2940   */\n      swap1\n      pop\n        /* \"#utility.yul\":2844:2946   */\n      swap2\n      swap1\n      pop\n      jump\t// out\n        /* \"#utility.yul\":2952:3132   */\n    tag_150:\n        /* \"#utility.yul\":3000:3077   */\n      0x4e487b7100000000000000000000000000000000000000000000000000000000\n        /* \"#utility.yul\":2997:2998   */\n      0x00\n        /* \"#utility.yul\":2990:3078   */\n      mstore\n        /* \"#utility.yul\":3097:3101   */\n      0x41\n        /* \"#utility.yul\":3094:3095   */\n      0x04\n        /* \"#utility.yul\":3087:3102   */\n      mstore\n        /* \"#utility.yul\":3121:3125   */\n      0x24\n        /* \"#utility.yul\":3118:3119   */\n      0x00\n        /* \"#utility.yul\":3111:3126   */\n      revert\n        /* \"#utility.yul\":3138:3419   */\n    tag_151:\n        /* \"#utility.yul\":3221:3248   */\n      tag_216\n        /* \"#utility.yul\":3243:3247   */\n      dup3\n        /* \"#utility.yul\":3221:3248   */\n      tag_149\n      jump\t// in\n    tag_216:\n        /* \"#utility.yul\":3213:3219   */\n      dup2\n        /* \"#utility.yul\":3209:3249   */\n      add\n        /* \"#utility.yul\":3351:3357   */\n      dup2\n        /* \"#utility.yul\":3339:3349   */\n      dup2\n        /* \"#utility.yul\":3336:3358   */\n      lt\n        /* \"#utility.yul\":3315:3333   */\n      0xffffffffffffffff\n        /* \"#utility.yul\":3303:3313   */\n      dup3\n        /* \"#utility.yul\":3300:3334   */\n      gt\n        /* \"#utility.yul\":3297:3359   */\n      or\n        /* \"#utility.yul\":3294:3382   */\n      iszero\n      tag_217\n      jumpi\n        /* \"#utility.yul\":3362:3380   */\n      tag_218\n      tag_150\n      jump\t// in\n    tag_218:\n        /* \"#utility.yul\":3294:3382   */\n    tag_217:\n        /* \"#utility.yul\":3402:3412   */\n      dup1\n        /* \"#utility.yul\":3398:3400   */\n      0x40\n        /* \"#utility.yul\":3391:3413   */\n      mstore\n        /* \"#utility.yul\":3181:3419   */\n      pop\n        /* \"#utility.yul\":3138:3419   */\n      pop\n      pop\n      jump\t// out\n        /* \"#utility.yul\":3425:3554   */\n    tag_152:\n        /* \"#utility.yul\":3459:3465   */\n      0x00\n        /* \"#utility.yul\":3486:3506   */\n      tag_220\n      tag_135\n      jump\t// in\n    tag_220:\n        /* \"#utility.yul\":3476:3506   */\n      swap1\n      pop\n        /* \"#utility.yul\":3515:3548   */\n      tag_221\n        /* \"#utility.yul\":3543:3547   */\n      dup3\n        /* \"#utility.yul\":3535:3541   */\n      dup3\n        /* \"#utility.yul\":3515:3548   */\n      tag_151\n      jump\t// in\n    tag_221:\n        /* \"#utility.yul\":3425:3554   */\n      swap2\n      swap1\n      pop\n      jump\t// out\n        /* \"#utility.yul\":3560:3868   */\n    tag_153:\n        /* \"#utility.yul\":3622:3626   */\n      0x00\n        /* \"#utility.yul\":3712:3730   */\n      0xffffffffffffffff\n        /* \"#utility.yul\":3704:3710   */\n      dup3\n        /* \"#utility.yul\":3701:3731   */\n      gt\n        /* \"#utility.yul\":3698:3754   */\n      iszero\n      tag_223\n      jumpi\n        /* \"#utility.yul\":3734:3752   */\n      tag_224\n      tag_150\n      jump\t// in\n    tag_224:\n        /* \"#utility.yul\":3698:3754   */\n    tag_223:\n        /* \"#utility.yul\":3772:3801   */\n      tag_225\n        /* \"#utility.yul\":3794:3800   */\n      dup3\n        /* \"#utility.yul\":3772:3801   */\n      tag_149\n      jump\t// in\n    tag_225:\n        /* \"#utility.yul\":3764:3801   */\n      swap1\n      pop\n        /* \"#utility.yul\":3856:3860   */\n      0x20\n        /* \"#utility.yul\":3850:3854   */\n      dup2\n        /* \"#utility.yul\":3846:3861   */\n      add\n        /* \"#utility.yul\":3838:3861   */\n      swap1\n      pop\n        /* \"#utility.yul\":3560:3868   */\n      swap2\n      swap1\n      pop\n      jump\t// out\n        /* \"#utility.yul\":3874:4020   */\n    tag_154:\n        /* \"#utility.yul\":3971:3977   */\n      dup3\n        /* \"#utility.yul\":3966:3969   */\n      dup2\n        /* \"#utility.yul\":3961:3964   */\n      dup4\n        /* \"#utility.yul\":3948:3978   */\n      calldatacopy\n        /* \"#utility.yul\":4012:4013   */\n      0x00\n        /* \"#utility.yul\":4003:4009   */\n      dup4\n        /* \"#utility.yul\":3998:4001   */\n      dup4\n        /* \"#utility.yul\":3994:4010   */\n      add\n        /* \"#utility.yul\":3987:4014   */\n      mstore\n        /* \"#utility.yul\":3874:4020   */\n      pop\n      pop\n      pop\n      jump\t// out\n        /* \"#utility.yul\":4026:4451   */\n    tag_155:\n        /* \"#utility.yul\":4104:4109   */\n      0x00\n        /* \"#utility.yul\":4129:4195   */\n      tag_228\n        /* \"#utility.yul\":4145:4194   */\n      tag_229\n        /* \"#utility.yul\":4187:4193   */\n      dup5\n        /* \"#utility.yul\":4145:4194   */\n      tag_153\n      jump\t// in\n    tag_229:\n        /* \"#utility.yul\":4129:4195   */\n      tag_152\n      jump\t// in\n    tag_228:\n        /* \"#utility.yul\":4120:4195   */\n      swap1\n      pop\n        /* \"#utility.yul\":4218:4224   */\n      dup3\n        /* \"#utility.yul\":4211:4216   */\n      dup2\n        /* \"#utility.yul\":4204:4225   */\n      mstore\n        /* \"#utility.yul\":4256:4260   */\n      0x20\n        /* \"#utility.yul\":4249:4254   */\n      dup2\n        /* \"#utility.yul\":4245:4261   */\n      add\n        /* \"#utility.yul\":4294:4297   */\n      dup5\n        /* \"#utility.yul\":4285:4291   */\n      dup5\n        /* \"#utility.yul\":4280:4283   */\n      dup5\n        /* \"#utility.yul\":4276:4292   */\n      add\n        /* \"#utility.yul\":4273:4298   */\n      gt\n        /* \"#utility.yul\":4270:4382   */\n      iszero\n      tag_230\n      jumpi\n        /* \"#utility.yul\":4301:4380   */\n      tag_231\n      tag_148\n      jump\t// in\n    tag_231:\n        /* \"#utility.yul\":4270:4382   */\n    tag_230:\n        /* \"#utility.yul\":4391:4445   */\n      tag_232\n        /* \"#utility.yul\":4438:4444   */\n      dup5\n        /* \"#utility.yul\":4433:4436   */\n      dup3\n        /* \"#utility.yul\":4428:4431   */\n      dup6\n        /* \"#utility.yul\":4391:4445   */\n      tag_154\n      jump\t// in\n    tag_232:\n        /* \"#utility.yul\":4110:4451   */\n      pop\n        /* \"#utility.yul\":4026:4451   */\n      swap4\n      swap3\n      pop\n      pop\n      pop\n      jump\t// out\n        /* \"#utility.yul\":4471:4811   */\n    tag_156:\n        /* \"#utility.yul\":4527:4532   */\n      0x00\n        /* \"#utility.yul\":4576:4579   */\n      dup3\n        /* \"#utility.yul\":4569:4573   */\n      0x1f\n        /* \"#utility.yul\":4561:4567   */\n      dup4\n        /* \"#utility.yul\":4557:4574   */\n      add\n        /* \"#utility.yul\":4553:4580   */\n      slt\n        /* \"#utility.yul\":4543:4665   */\n      tag_234\n      jumpi\n        /* \"#utility.yul\":4584:4663   */\n      tag_235\n      tag_147\n      jump\t// in\n    tag_235:\n        /* \"#utility.yul\":4543:4665   */\n    tag_234:\n        /* \"#utility.yul\":4701:4707   */\n      dup2\n        /* \"#utility.yul\":4688:4708   */\n      calldataload\n        /* \"#utility.yul\":4726:4805   */\n      tag_236\n        /* \"#utility.yul\":4801:4804   */\n      dup5\n        /* \"#utility.yul\":4793:4799   */\n      dup3\n        /* \"#utility.yul\":4786:4790   */\n      0x20\n        /* \"#utility.yul\":4778:4784   */\n      dup7\n        /* \"#utility.yul\":4774:4791   */\n      add\n        /* \"#utility.yul\":4726:4805   */\n      tag_155\n      jump\t// in\n    tag_236:\n        /* \"#utility.yul\":4717:4805   */\n      swap2\n      pop\n        /* \"#utility.yul\":4533:4811   */\n      pop\n        /* \"#utility.yul\":4471:4811   */\n      swap3\n      swap2\n      pop\n      pop\n      jump\t// out\n        /* \"#utility.yul\":4817:5471   */\n    tag_26:\n        /* \"#utility.yul\":4895:4901   */\n      0x00\n        /* \"#utility.yul\":4903:4909   */\n      dup1\n        /* \"#utility.yul\":4952:4954   */\n      0x40\n        /* \"#utility.yul\":4940:4949   */\n      dup4\n        /* \"#utility.yul\":4931:4938   */\n      dup6\n        /* \"#utility.yul\":4927:4950   */\n      sub\n        /* \"#utility.yul\":4923:4955   */\n      slt\n        /* \"#utility.yul\":4920:5039   */\n      iszero\n      tag_238\n      jumpi\n        /* \"#utility.yul\":4958:5037   */\n      tag_239\n      tag_136\n      jump\t// in\n    tag_239:\n        /* \"#utility.yul\":4920:5039   */\n    tag_238:\n        /* \"#utility.yul\":5106:5107   */\n      0x00\n        /* \"#utility.yul\":5095:5104   */\n      dup4\n        /* \"#utility.yul\":5091:5108   */\n      add\n        /* \"#utility.yul\":5078:5109   */\n      calldataload\n        /* \"#utility.yul\":5136:5154   */\n      0xffffffffffffffff\n        /* \"#utility.yul\":5128:5134   */\n      dup2\n        /* \"#utility.yul\":5125:5155   */\n      gt\n        /* \"#utility.yul\":5122:5239   */\n      iszero\n      tag_240\n      jumpi\n        /* \"#utility.yul\":5158:5237   */\n      tag_241\n      tag_137\n      jump\t// in\n    tag_241:\n        /* \"#utility.yul\":5122:5239   */\n    tag_240:\n        /* \"#utility.yul\":5263:5326   */\n      tag_242\n        /* \"#utility.yul\":5318:5325   */\n      dup6\n        /* \"#utility.yul\":5309:5315   */\n      dup3\n        /* \"#utility.yul\":5298:5307   */\n      dup7\n        /* \"#utility.yul\":5294:5316   */\n      add\n        /* \"#utility.yul\":5263:5326   */\n      tag_156\n      jump\t// in\n    tag_242:\n        /* \"#utility.yul\":5253:5326   */\n      swap3\n      pop\n        /* \"#utility.yul\":5049:5336   */\n      pop\n        /* \"#utility.yul\":5375:5377   */\n      0x20\n        /* \"#utility.yul\":5401:5454   */\n      tag_243\n        /* \"#utility.yul\":5446:5453   */\n      dup6\n        /* \"#utility.yul\":5437:5443   */\n      dup3\n        /* \"#utility.yul\":5426:5435   */\n      dup7\n        /* \"#utility.yul\":5422:5444   */\n      add\n        /* \"#utility.yul\":5401:5454   */\n      tag_144\n      jump\t// in\n    tag_243:\n        /* \"#utility.yul\":5391:5454   */\n      swap2\n      pop\n        /* \"#utility.yul\":5346:5464   */\n      pop\n        /* \"#utility.yul\":4817:5471   */\n      swap3\n      pop\n      swap3\n      swap1\n      pop\n      jump\t// out\n        /* \"#utility.yul\":5477:5699   */\n    tag_29:\n        /* \"#utility.yul\":5570:5574   */\n      0x00\n        /* \"#utility.yul\":5608:5610   */\n      0x20\n        /* \"#utility.yul\":5597:5606   */\n      dup3\n        /* \"#utility.yul\":5593:5611   */\n      add\n        /* \"#utility.yul\":5585:5611   */\n      swap1\n      pop\n        /* \"#utility.yul\":5621:5692   */\n      tag_245\n        /* \"#utility.yul\":5689:5690   */\n      0x00\n        /* \"#utility.yul\":5678:5687   */\n      dup4\n        /* \"#utility.yul\":5674:5691   */\n      add\n        /* \"#utility.yul\":5665:5671   */\n      dup5\n        /* \"#utility.yul\":5621:5692   */\n      tag_145\n      jump\t// in\n    tag_245:\n        /* \"#utility.yul\":5477:5699   */\n      swap3\n      swap2\n      pop\n      pop\n      jump\t// out\n        /* \"#utility.yul\":5705:6359   */\n    tag_32:\n        /* \"#utility.yul\":5783:5789   */\n      0x00\n        /* \"#utility.yul\":5791:5797   */\n      dup1\n        /* \"#utility.yul\":5840:5842   */\n      0x40\n        /* \"#utility.yul\":5828:5837   */\n      dup4\n        /* \"#utility.yul\":5819:5826   */\n      dup6\n        /* \"#utility.yul\":5815:5838   */\n      sub\n        /* \"#utility.yul\":5811:5843   */\n      slt\n        /* \"#utility.yul\":5808:5927   */\n      iszero\n      tag_247\n      jumpi\n        /* \"#utility.yul\":5846:5925   */\n      tag_248\n      tag_136\n      jump\t// in\n    tag_248:\n        /* \"#utility.yul\":5808:5927   */\n    tag_247:\n        /* \"#utility.yul\":5966:5967   */\n      0x00\n        /* \"#utility.yul\":5991:6044   */\n      tag_249\n        /* \"#utility.yul\":6036:6043   */\n      dup6\n        /* \"#utility.yul\":6027:6033   */\n      dup3\n        /* \"#utility.yul\":6016:6025   */\n      dup7\n        /* \"#utility.yul\":6012:6034   */\n      add\n        /* \"#utility.yul\":5991:6044   */\n      tag_141\n      jump\t// in\n    tag_249:\n        /* \"#utility.yul\":5981:6044   */\n      swap3\n      pop\n        /* \"#utility.yul\":5937:6054   */\n      pop\n        /* \"#utility.yul\":6121:6123   */\n      0x20\n        /* \"#utility.yul\":6110:6119   */\n      dup4\n        /* \"#utility.yul\":6106:6124   */\n      add\n        /* \"#utility.yul\":6093:6125   */\n      calldataload\n        /* \"#utility.yul\":6152:6170   */\n      0xffffffffffffffff\n        /* \"#utility.yul\":6144:6150   */\n      dup2\n        /* \"#utility.yul\":6141:6171   */\n      gt\n        /* \"#utility.yul\":6138:6255   */\n      iszero\n      tag_250\n      jumpi\n        /* \"#utility.yul\":6174:6253   */\n      tag_251\n      tag_137\n      jump\t// in\n    tag_251:\n        /* \"#utility.yul\":6138:6255   */\n    tag_250:\n        /* \"#utility.yul\":6279:6342   */\n      tag_252\n        /* \"#utility.yul\":6334:6341   */\n      dup6\n        /* \"#utility.yul\":6325:6331   */\n      dup3\n        /* \"#utility.yul\":6314:6323   */\n      dup7\n        /* \"#utility.yul\":6310:6332   */\n      add\n        /* \"#utility.yul\":6279:6342   */\n      tag_156\n      jump\t// in\n    tag_252:\n        /* \"#utility.yul\":6269:6342   */\n      swap2\n      pop\n        /* \"#utility.yul\":6064:6352   */\n      pop\n        /* \"#utility.yul\":5705:6359   */\n      swap3\n      pop\n      swap3\n      swap1\n      pop\n      jump\t// out\n        /* \"#utility.yul\":6365:7490   */\n    tag_36:\n        /* \"#utility.yul\":6471:6477   */\n      0x00\n        /* \"#utility.yul\":6479:6485   */\n      dup1\n        /* \"#utility.yul\":6487:6493   */\n      0x00\n        /* \"#utility.yul\":6495:6501   */\n      dup1\n        /* \"#utility.yul\":6544:6547   */\n      0x80\n        /* \"#utility.yul\":6532:6541   */\n      dup6\n        /* \"#utility.yul\":6523:6530   */\n      dup8\n        /* \"#utility.yul\":6519:6542   */\n      sub\n        /* \"#utility.yul\":6515:6548   */\n      slt\n        /* \"#utility.yul\":6512:6632   */\n      iszero\n      tag_254\n      jumpi\n        /* \"#utility.yul\":6551:6630   */\n      tag_255\n      tag_136\n      jump\t// in\n    tag_255:\n        /* \"#utility.yul\":6512:6632   */\n    tag_254:\n        /* \"#utility.yul\":6671:6672   */\n      0x00\n        /* \"#utility.yul\":6696:6749   */\n      tag_256\n        /* \"#utility.yul\":6741:6748   */\n      dup8\n        /* \"#utility.yul\":6732:6738   */\n      dup3\n        /* \"#utility.yul\":6721:6730   */\n      dup9\n        /* \"#utility.yul\":6717:6739   */\n      add\n        /* \"#utility.yul\":6696:6749   */\n      tag_141\n      jump\t// in\n    tag_256:\n        /* \"#utility.yul\":6686:6749   */\n      swap5\n      pop\n        /* \"#utility.yul\":6642:6759   */\n      pop\n        /* \"#utility.yul\":6826:6828   */\n      0x20\n        /* \"#utility.yul\":6815:6824   */\n      dup6\n        /* \"#utility.yul\":6811:6829   */\n      add\n        /* \"#utility.yul\":6798:6830   */\n      calldataload\n        /* \"#utility.yul\":6857:6875   */\n      0xffffffffffffffff\n        /* \"#utility.yul\":6849:6855   */\n      dup2\n        /* \"#utility.yul\":6846:6876   */\n      gt\n        /* \"#utility.yul\":6843:6960   */\n      iszero\n      tag_257\n      jumpi\n        /* \"#utility.yul\":6879:6958   */\n      tag_258\n      tag_137\n      jump\t// in\n    tag_258:\n        /* \"#utility.yul\":6843:6960   */\n    tag_257:\n        /* \"#utility.yul\":6984:7047   */\n      tag_259\n        /* \"#utility.yul\":7039:7046   */\n      dup8\n        /* \"#utility.yul\":7030:7036   */\n      dup3\n        /* \"#utility.yul\":7019:7028   */\n      dup9\n        /* \"#utility.yul\":7015:7037   */\n      add\n        /* \"#utility.yul\":6984:7047   */\n      tag_156\n      jump\t// in\n    tag_259:\n        /* \"#utility.yul\":6974:7047   */\n      swap4\n      pop\n        /* \"#utility.yul\":6769:7057   */\n      pop\n        /* \"#utility.yul\":7124:7126   */\n      0x40\n        /* \"#utility.yul\":7113:7122   */\n      dup6\n        /* \"#utility.yul\":7109:7127   */\n      add\n        /* \"#utility.yul\":7096:7128   */\n      calldataload\n        /* \"#utility.yul\":7155:7173   */\n      0xffffffffffffffff\n        /* \"#utility.yul\":7147:7153   */\n      dup2\n        /* \"#utility.yul\":7144:7174   */\n      gt\n        /* \"#utility.yul\":7141:7258   */\n      iszero\n      tag_260\n      jumpi\n        /* \"#utility.yul\":7177:7256   */\n      tag_261\n      tag_137\n      jump\t// in\n    tag_261:\n        /* \"#utility.yul\":7141:7258   */\n    tag_260:\n        /* \"#utility.yul\":7282:7345   */\n      tag_262\n        /* \"#utility.yul\":7337:7344   */\n      dup8\n        /* \"#utility.yul\":7328:7334   */\n      dup3\n        /* \"#utility.yul\":7317:7326   */\n      dup9\n        /* \"#utility.yul\":7313:7335   */\n      add\n        /* \"#utility.yul\":7282:7345   */\n      tag_156\n      jump\t// in\n    tag_262:\n        /* \"#utility.yul\":7272:7345   */\n      swap3\n      pop\n        /* \"#utility.yul\":7067:7355   */\n      pop\n        /* \"#utility.yul\":7394:7396   */\n      0x60\n        /* \"#utility.yul\":7420:7473   */\n      tag_263\n        /* \"#utility.yul\":7465:7472   */\n      dup8\n        /* \"#utility.yul\":7456:7462   */\n      dup3\n        /* \"#utility.yul\":7445:7454   */\n      dup9\n        /* \"#utility.yul\":7441:7463   */\n      add\n        /* \"#utility.yul\":7420:7473   */\n      tag_144\n      jump\t// in\n    tag_263:\n        /* \"#utility.yul\":7410:7473   */\n      swap2\n      pop\n        /* \"#utility.yul\":7365:7483   */\n      pop\n        /* \"#utility.yul\":6365:7490   */\n      swap3\n      swap6\n      swap2\n      swap5\n      pop\n      swap3\n      pop\n      jump\t// out\n        /* \"#utility.yul\":7496:7825   */\n    tag_40:\n        /* \"#utility.yul\":7555:7561   */\n      0x00\n        /* \"#utility.yul\":7604:7606   */\n      0x20\n        /* \"#utility.yul\":7592:7601   */\n      dup3\n        /* \"#utility.yul\":7583:7590   */\n      dup5\n        /* \"#utility.yul\":7579:7602   */\n      sub\n        /* \"#utility.yul\":7575:7607   */\n      slt\n        /* \"#utility.yul\":7572:7691   */\n      iszero\n      tag_265\n      jumpi\n        /* \"#utility.yul\":7610:7689   */\n      tag_266\n      tag_136\n      jump\t// in\n    tag_266:\n        /* \"#utility.yul\":7572:7691   */\n    tag_265:\n        /* \"#utility.yul\":7730:7731   */\n      0x00\n        /* \"#utility.yul\":7755:7808   */\n      tag_267\n        /* \"#utility.yul\":7800:7807   */\n      dup5\n        /* \"#utility.yul\":7791:7797   */\n      dup3\n        /* \"#utility.yul\":7780:7789   */\n      dup6\n        /* \"#utility.yul\":7776:7798   */\n      add\n        /* \"#utility.yul\":7755:7808   */\n      tag_144\n      jump\t// in\n    tag_267:\n        /* \"#utility.yul\":7745:7808   */\n      swap2\n      pop\n        /* \"#utility.yul\":7701:7818   */\n      pop\n        /* \"#utility.yul\":7496:7825   */\n      swap3\n      swap2\n      pop\n      pop\n      jump\t// out\n        /* \"#utility.yul\":7831:7945   */\n    tag_157:\n        /* \"#utility.yul\":7898:7904   */\n      0x00\n        /* \"#utility.yul\":7932:7937   */\n      dup2\n        /* \"#utility.yul\":7926:7938   */\n      mload\n        /* \"#utility.yul\":7916:7938   */\n      swap1\n      pop\n        /* \"#utility.yul\":7831:7945   */\n      swap2\n      swap1\n      pop\n      jump\t// out\n        /* \"#utility.yul\":7951:8135   */\n    tag_158:\n        /* \"#utility.yul\":8050:8061   */\n      0x00\n        /* \"#utility.yul\":8084:8090   */\n      dup3\n        /* \"#utility.yul\":8079:8082   */\n      dup3\n        /* \"#utility.yul\":8072:8091   */\n      mstore\n        /* \"#utility.yul\":8124:8128   */\n      0x20\n        /* \"#utility.yul\":8119:8122   */\n      dup3\n        /* \"#utility.yul\":8115:8129   */\n      add\n        /* \"#utility.yul\":8100:8129   */\n      swap1\n      pop\n        /* \"#utility.yul\":7951:8135   */\n      swap3\n      swap2\n      pop\n      pop\n      jump\t// out\n        /* \"#utility.yul\":8141:8273   */\n    tag_159:\n        /* \"#utility.yul\":8208:8212   */\n      0x00\n        /* \"#utility.yul\":8231:8234   */\n      dup2\n        /* \"#utility.yul\":8223:8234   */\n      swap1\n      pop\n        /* \"#utility.yul\":8261:8265   */\n      0x20\n        /* \"#utility.yul\":8256:8259   */\n      dup3\n        /* \"#utility.yul\":8252:8266   */\n      add\n        /* \"#utility.yul\":8244:8266   */\n      swap1\n      pop\n        /* \"#utility.yul\":8141:8273   */\n      swap2\n      swap1\n      pop\n      jump\t// out\n        /* \"#utility.yul\":8279:8387   */\n    tag_160:\n        /* \"#utility.yul\":8356:8380   */\n      tag_272\n        /* \"#utility.yul\":8374:8379   */\n      dup2\n        /* \"#utility.yul\":8356:8380   */\n      tag_139\n      jump\t// in\n    tag_272:\n        /* \"#utility.yul\":8351:8354   */\n      dup3\n        /* \"#utility.yul\":8344:8381   */\n      mstore\n        /* \"#utility.yul\":8279:8387   */\n      pop\n      pop\n      jump\t// out\n        /* \"#utility.yul\":8393:8572   */\n    tag_161:\n        /* \"#utility.yul\":8462:8472   */\n      0x00\n        /* \"#utility.yul\":8483:8529   */\n      tag_274\n        /* \"#utility.yul\":8525:8528   */\n      dup4\n        /* \"#utility.yul\":8517:8523   */\n      dup4\n        /* \"#utility.yul\":8483:8529   */\n      tag_160\n      jump\t// in\n    tag_274:\n        /* \"#utility.yul\":8561:8565   */\n      0x20\n        /* \"#utility.yul\":8556:8559   */\n      dup4\n        /* \"#utility.yul\":8552:8566   */\n      add\n        /* \"#utility.yul\":8538:8566   */\n      swap1\n      pop\n        /* \"#utility.yul\":8393:8572   */\n      swap3\n      swap2\n      pop\n      pop\n      jump\t// out\n        /* \"#utility.yul\":8578:8691   */\n    tag_162:\n        /* \"#utility.yul\":8648:8652   */\n      0x00\n        /* \"#utility.yul\":8680:8684   */\n      0x20\n        /* \"#utility.yul\":8675:8678   */\n      dup3\n        /* \"#utility.yul\":8671:8685   */\n      add\n        /* \"#utility.yul\":8663:8685   */\n      swap1\n      pop\n        /* \"#utility.yul\":8578:8691   */\n      swap2\n      swap1\n      pop\n      jump\t// out\n        /* \"#utility.yul\":8727:9459   */\n    tag_163:\n        /* \"#utility.yul\":8846:8849   */\n      0x00\n        /* \"#utility.yul\":8875:8929   */\n      tag_277\n        /* \"#utility.yul\":8923:8928   */\n      dup3\n        /* \"#utility.yul\":8875:8929   */\n      tag_157\n      jump\t// in\n    tag_277:\n        /* \"#utility.yul\":8945:9031   */\n      tag_278\n        /* \"#utility.yul\":9024:9030   */\n      dup2\n        /* \"#utility.yul\":9019:9022   */\n      dup6\n        /* \"#utility.yul\":8945:9031   */\n      tag_158\n      jump\t// in\n    tag_278:\n        /* \"#utility.yul\":8938:9031   */\n      swap4\n      pop\n        /* \"#utility.yul\":9055:9111   */\n      tag_279\n        /* \"#utility.yul\":9105:9110   */\n      dup4\n        /* \"#utility.yul\":9055:9111   */\n      tag_159\n      jump\t// in\n    tag_279:\n        /* \"#utility.yul\":9134:9141   */\n      dup1\n        /* \"#utility.yul\":9165:9166   */\n      0x00\n        /* \"#utility.yul\":9150:9434   */\n    tag_280:\n        /* \"#utility.yul\":9175:9181   */\n      dup4\n        /* \"#utility.yul\":9172:9173   */\n      dup2\n        /* \"#utility.yul\":9169:9182   */\n      lt\n        /* \"#utility.yul\":9150:9434   */\n      iszero\n      tag_282\n      jumpi\n        /* \"#utility.yul\":9251:9257   */\n      dup2\n        /* \"#utility.yul\":9245:9258   */\n      mload\n        /* \"#utility.yul\":9278:9341   */\n      tag_283\n        /* \"#utility.yul\":9337:9340   */\n      dup9\n        /* \"#utility.yul\":9322:9335   */\n      dup3\n        /* \"#utility.yul\":9278:9341   */\n      tag_161\n      jump\t// in\n    tag_283:\n        /* \"#utility.yul\":9271:9341   */\n      swap8\n      pop\n        /* \"#utility.yul\":9364:9424   */\n      tag_284\n        /* \"#utility.yul\":9417:9423   */\n      dup4\n        /* \"#utility.yul\":9364:9424   */\n      tag_162\n      jump\t// in\n    tag_284:\n        /* \"#utility.yul\":9354:9424   */\n      swap3\n      pop\n        /* \"#utility.yul\":9210:9434   */\n      pop\n        /* \"#utility.yul\":9197:9198   */\n      0x01\n        /* \"#utility.yul\":9194:9195   */\n      dup2\n        /* \"#utility.yul\":9190:9199   */\n      add\n        /* \"#utility.yul\":9185:9199   */\n      swap1\n      pop\n        /* \"#utility.yul\":9150:9434   */\n      jump(tag_280)\n    tag_282:\n        /* \"#utility.yul\":9154:9168   */\n      pop\n        /* \"#utility.yul\":9450:9453   */\n      dup6\n        /* \"#utility.yul\":9443:9453   */\n      swap4\n      pop\n        /* \"#utility.yul\":8851:9459   */\n      pop\n      pop\n      pop\n        /* \"#utility.yul\":8727:9459   */\n      swap3\n      swap2\n      pop\n      pop\n      jump\t// out\n        /* \"#utility.yul\":9465:9838   */\n    tag_46:\n        /* \"#utility.yul\":9608:9612   */\n      0x00\n        /* \"#utility.yul\":9646:9648   */\n      0x20\n        /* \"#utility.yul\":9635:9644   */\n      dup3\n        /* \"#utility.yul\":9631:9649   */\n      add\n        /* \"#utility.yul\":9623:9649   */\n      swap1\n      pop\n        /* \"#utility.yul\":9695:9704   */\n      dup2\n        /* \"#utility.yul\":9689:9693   */\n      dup2\n        /* \"#utility.yul\":9685:9705   */\n      sub\n        /* \"#utility.yul\":9681:9682   */\n      0x00\n        /* \"#utility.yul\":9670:9679   */\n      dup4\n        /* \"#utility.yul\":9666:9683   */\n      add\n        /* \"#utility.yul\":9659:9706   */\n      mstore\n        /* \"#utility.yul\":9723:9831   */\n      tag_286\n        /* \"#utility.yul\":9826:9830   */\n      dup2\n        /* \"#utility.yul\":9817:9823   */\n      dup5\n        /* \"#utility.yul\":9723:9831   */\n      tag_163\n      jump\t// in\n    tag_286:\n        /* \"#utility.yul\":9715:9831   */\n      swap1\n      pop\n        /* \"#utility.yul\":9465:9838   */\n      swap3\n      swap2\n      pop\n      pop\n      jump\t// out\n        /* \"#utility.yul\":9844:9952   */\n    tag_164:\n        /* \"#utility.yul\":9921:9945   */\n      tag_288\n        /* \"#utility.yul\":9939:9944   */\n      dup2\n        /* \"#utility.yul\":9921:9945   */\n      tag_142\n      jump\t// in\n    tag_288:\n        /* \"#utility.yul\":9916:9919   */\n      dup3\n        /* \"#utility.yul\":9909:9946   */\n      mstore\n        /* \"#utility.yul\":9844:9952   */\n      pop\n      pop\n      jump\t// out\n        /* \"#utility.yul\":10016:10530   */\n    tag_165:\n        /* \"#utility.yul\":10151:10155   */\n      0x40\n        /* \"#utility.yul\":10146:10149   */\n      dup3\n        /* \"#utility.yul\":10142:10156   */\n      add\n        /* \"#utility.yul\":10245:10249   */\n      0x00\n        /* \"#utility.yul\":10238:10243   */\n      dup3\n        /* \"#utility.yul\":10234:10250   */\n      add\n        /* \"#utility.yul\":10228:10251   */\n      mload\n        /* \"#utility.yul\":10264:10327   */\n      tag_290\n        /* \"#utility.yul\":10321:10325   */\n      0x00\n        /* \"#utility.yul\":10316:10319   */\n      dup6\n        /* \"#utility.yul\":10312:10326   */\n      add\n        /* \"#utility.yul\":10298:10310   */\n      dup3\n        /* \"#utility.yul\":10264:10327   */\n      tag_160\n      jump\t// in\n    tag_290:\n        /* \"#utility.yul\":10166:10337   */\n      pop\n        /* \"#utility.yul\":10431:10435   */\n      0x20\n        /* \"#utility.yul\":10424:10429   */\n      dup3\n        /* \"#utility.yul\":10420:10436   */\n      add\n        /* \"#utility.yul\":10414:10437   */\n      mload\n        /* \"#utility.yul\":10450:10513   */\n      tag_291\n        /* \"#utility.yul\":10507:10511   */\n      0x20\n        /* \"#utility.yul\":10502:10505   */\n      dup6\n        /* \"#utility.yul\":10498:10512   */\n      add\n        /* \"#utility.yul\":10484:10496   */\n      dup3\n        /* \"#utility.yul\":10450:10513   */\n      tag_164\n      jump\t// in\n    tag_291:\n        /* \"#utility.yul\":10347:10523   */\n      pop\n        /* \"#utility.yul\":10120:10530   */\n      pop\n        /* \"#utility.yul\":10016:10530   */\n      pop\n      pop\n      jump\t// out\n        /* \"#utility.yul\":10536:10834   */\n    tag_51:\n        /* \"#utility.yul\":10667:10671   */\n      0x00\n        /* \"#utility.yul\":10705:10707   */\n      0x40\n        /* \"#utility.yul\":10694:10703   */\n      dup3\n        /* \"#utility.yul\":10690:10708   */\n      add\n        /* \"#utility.yul\":10682:10708   */\n      swap1\n      pop\n        /* \"#utility.yul\":10718:10827   */\n      tag_293\n        /* \"#utility.yul\":10824:10825   */\n      0x00\n        /* \"#utility.yul\":10813:10822   */\n      dup4\n        /* \"#utility.yul\":10809:10826   */\n      add\n        /* \"#utility.yul\":10800:10806   */\n      dup5\n        /* \"#utility.yul\":10718:10827   */\n      tag_165\n      jump\t// in\n    tag_293:\n        /* \"#utility.yul\":10536:10834   */\n      swap3\n      swap2\n      pop\n      pop\n      jump\t// out\n        /* \"#utility.yul\":10840:11349   */\n    tag_54:\n        /* \"#utility.yul\":10909:10915   */\n      0x00\n        /* \"#utility.yul\":10958:10960   */\n      0x20\n        /* \"#utility.yul\":10946:10955   */\n      dup3\n        /* \"#utility.yul\":10937:10944   */\n      dup5\n        /* \"#utility.yul\":10933:10956   */\n      sub\n        /* \"#utility.yul\":10929:10961   */\n      slt\n        /* \"#utility.yul\":10926:11045   */\n      iszero\n      tag_295\n      jumpi\n        /* \"#utility.yul\":10964:11043   */\n      tag_296\n      tag_136\n      jump\t// in\n    tag_296:\n        /* \"#utility.yul\":10926:11045   */\n    tag_295:\n        /* \"#utility.yul\":11112:11113   */\n      0x00\n        /* \"#utility.yul\":11101:11110   */\n      dup3\n        /* \"#utility.yul\":11097:11114   */\n      add\n        /* \"#utility.yul\":11084:11115   */\n      calldataload\n        /* \"#utility.yul\":11142:11160   */\n      0xffffffffffffffff\n        /* \"#utility.yul\":11134:11140   */\n      dup2\n        /* \"#utility.yul\":11131:11161   */\n      gt\n        /* \"#utility.yul\":11128:11245   */\n      iszero\n      tag_297\n      jumpi\n        /* \"#utility.yul\":11164:11243   */\n      tag_298\n      tag_137\n      jump\t// in\n    tag_298:\n        /* \"#utility.yul\":11128:11245   */\n    tag_297:\n        /* \"#utility.yul\":11269:11332   */\n      tag_299\n        /* \"#utility.yul\":11324:11331   */\n      dup5\n        /* \"#utility.yul\":11315:11321   */\n      dup3\n        /* \"#utility.yul\":11304:11313   */\n      dup6\n        /* \"#utility.yul\":11300:11322   */\n      add\n        /* \"#utility.yul\":11269:11332   */\n      tag_156\n      jump\t// in\n    tag_299:\n        /* \"#utility.yul\":11259:11332   */\n      swap2\n      pop\n        /* \"#utility.yul\":11055:11342   */\n      pop\n        /* \"#utility.yul\":10840:11349   */\n      swap3\n      swap2\n      pop\n      pop\n      jump\t// out\n        /* \"#utility.yul\":11355:11524   */\n    tag_166:\n        /* \"#utility.yul\":11439:11450   */\n      0x00\n        /* \"#utility.yul\":11473:11479   */\n      dup3\n        /* \"#utility.yul\":11468:11471   */\n      dup3\n        /* \"#utility.yul\":11461:11480   */\n      mstore\n        /* \"#utility.yul\":11513:11517   */\n      0x20\n        /* \"#utility.yul\":11508:11511   */\n      dup3\n        /* \"#utility.yul\":11504:11518   */\n      add\n        /* \"#utility.yul\":11489:11518   */\n      swap1\n      pop\n        /* \"#utility.yul\":11355:11524   */\n      swap3\n      swap2\n      pop\n      pop\n      jump\t// out\n        /* \"#utility.yul\":11530:11699   */\n    tag_167:\n        /* \"#utility.yul\":11670:11691   */\n      0x4e6f646520616c72656164792065786973747300000000000000000000000000\n        /* \"#utility.yul\":11666:11667   */\n      0x00\n        /* \"#utility.yul\":11658:11664   */\n      dup3\n        /* \"#utility.yul\":11654:11668   */\n      add\n        /* \"#utility.yul\":11647:11692   */\n      mstore\n        /* \"#utility.yul\":11530:11699   */\n      pop\n      jump\t// out\n        /* \"#utility.yul\":11705:12071   */\n    tag_168:\n        /* \"#utility.yul\":11847:11850   */\n      0x00\n        /* \"#utility.yul\":11868:11935   */\n      tag_303\n        /* \"#utility.yul\":11932:11934   */\n      0x13\n        /* \"#utility.yul\":11927:11930   */\n      dup4\n        /* \"#utility.yul\":11868:11935   */\n      tag_166\n      jump\t// in\n    tag_303:\n        /* \"#utility.yul\":11861:11935   */\n      swap2\n      pop\n        /* \"#utility.yul\":11944:12037   */\n      tag_304\n        /* \"#utility.yul\":12033:12036   */\n      dup3\n        /* \"#utility.yul\":11944:12037   */\n      tag_167\n      jump\t// in\n    tag_304:\n        /* \"#utility.yul\":12062:12064   */\n      0x20\n        /* \"#utility.yul\":12057:12060   */\n      dup3\n        /* \"#utility.yul\":12053:12065   */\n      add\n        /* \"#utility.yul\":12046:12065   */\n      swap1\n      pop\n        /* \"#utility.yul\":11705:12071   */\n      swap2\n      swap1\n      pop\n      jump\t// out\n        /* \"#utility.yul\":12077:12496   */\n    tag_64:\n        /* \"#utility.yul\":12243:12247   */\n      0x00\n        /* \"#utility.yul\":12281:12283   */\n      0x20\n        /* \"#utility.yul\":12270:12279   */\n      dup3\n        /* \"#utility.yul\":12266:12284   */\n      add\n        /* \"#utility.yul\":12258:12284   */\n      swap1\n      pop\n        /* \"#utility.yul\":12330:12339   */\n      dup2\n        /* \"#utility.yul\":12324:12328   */\n      dup2\n        /* \"#utility.yul\":12320:12340   */\n      sub\n        /* \"#utility.yul\":12316:12317   */\n      0x00\n        /* \"#utility.yul\":12305:12314   */\n      dup4\n        /* \"#utility.yul\":12301:12318   */\n      add\n        /* \"#utility.yul\":12294:12341   */\n      mstore\n        /* \"#utility.yul\":12358:12489   */\n      tag_306\n        /* \"#utility.yul\":12484:12488   */\n      dup2\n        /* \"#utility.yul\":12358:12489   */\n      tag_168\n      jump\t// in\n    tag_306:\n        /* \"#utility.yul\":12350:12489   */\n      swap1\n      pop\n        /* \"#utility.yul\":12077:12496   */\n      swap2\n      swap1\n      pop\n      jump\t// out\n        /* \"#utility.yul\":12502:12671   */\n    tag_169:\n        /* \"#utility.yul\":12642:12663   */\n      0x4e6f646520646f6573206e6f7420657869737400000000000000000000000000\n        /* \"#utility.yul\":12638:12639   */\n      0x00\n        /* \"#utility.yul\":12630:12636   */\n      dup3\n        /* \"#utility.yul\":12626:12640   */\n      add\n        /* \"#utility.yul\":12619:12664   */\n      mstore\n        /* \"#utility.yul\":12502:12671   */\n      pop\n      jump\t// out\n        /* \"#utility.yul\":12677:13043   */\n    tag_170:\n        /* \"#utility.yul\":12819:12822   */\n      0x00\n        /* \"#utility.yul\":12840:12907   */\n      tag_309\n        /* \"#utility.yul\":12904:12906   */\n      0x13\n        /* \"#utility.yul\":12899:12902   */\n      dup4\n        /* \"#utility.yul\":12840:12907   */\n      tag_166\n      jump\t// in\n    tag_309:\n        /* \"#utility.yul\":12833:12907   */\n      swap2\n      pop\n        /* \"#utility.yul\":12916:13009   */\n      tag_310\n        /* \"#utility.yul\":13005:13008   */\n      dup3\n        /* \"#utility.yul\":12916:13009   */\n      tag_169\n      jump\t// in\n    tag_310:\n        /* \"#utility.yul\":13034:13036   */\n      0x20\n        /* \"#utility.yul\":13029:13032   */\n      dup3\n        /* \"#utility.yul\":13025:13037   */\n      add\n        /* \"#utility.yul\":13018:13037   */\n      swap1\n      pop\n        /* \"#utility.yul\":12677:13043   */\n      swap2\n      swap1\n      pop\n      jump\t// out\n        /* \"#utility.yul\":13049:13468   */\n    tag_72:\n        /* \"#utility.yul\":13215:13219   */\n      0x00\n        /* \"#utility.yul\":13253:13255   */\n      0x20\n        /* \"#utility.yul\":13242:13251   */\n      dup3\n        /* \"#utility.yul\":13238:13256   */\n      add\n        /* \"#utility.yul\":13230:13256   */\n      swap1\n      pop\n        /* \"#utility.yul\":13302:13311   */\n      dup2\n        /* \"#utility.yul\":13296:13300   */\n      dup2\n        /* \"#utility.yul\":13292:13312   */\n      sub\n        /* \"#utility.yul\":13288:13289   */\n      0x00\n        /* \"#utility.yul\":13277:13286   */\n      dup4\n        /* \"#utility.yul\":13273:13290   */\n      add\n        /* \"#utility.yul\":13266:13313   */\n      mstore\n        /* \"#utility.yul\":13330:13461   */\n      tag_312\n        /* \"#utility.yul\":13456:13460   */\n      dup2\n        /* \"#utility.yul\":13330:13461   */\n      tag_170\n      jump\t// in\n    tag_312:\n        /* \"#utility.yul\":13322:13461   */\n      swap1\n      pop\n        /* \"#utility.yul\":13049:13468   */\n      swap2\n      swap1\n      pop\n      jump\t// out\n        /* \"#utility.yul\":13474:13573   */\n    tag_171:\n        /* \"#utility.yul\":13526:13532   */\n      0x00\n        /* \"#utility.yul\":13560:13565   */\n      dup2\n        /* \"#utility.yul\":13554:13566   */\n      mload\n        /* \"#utility.yul\":13544:13566   */\n      swap1\n      pop\n        /* \"#utility.yul\":13474:13573   */\n      swap2\n      swap1\n      pop\n      jump\t// out\n        /* \"#utility.yul\":13579:13727   */\n    tag_172:\n        /* \"#utility.yul\":13681:13692   */\n      0x00\n        /* \"#utility.yul\":13718:13721   */\n      dup2\n        /* \"#utility.yul\":13703:13721   */\n      swap1\n      pop\n        /* \"#utility.yul\":13579:13727   */\n      swap3\n      swap2\n      pop\n      pop\n      jump\t// out\n        /* \"#utility.yul\":13733:13979   */\n    tag_173:\n        /* \"#utility.yul\":13814:13815   */\n      0x00\n        /* \"#utility.yul\":13824:13937   */\n    tag_316:\n        /* \"#utility.yul\":13838:13844   */\n      dup4\n        /* \"#utility.yul\":13835:13836   */\n      dup2\n        /* \"#utility.yul\":13832:13845   */\n      lt\n        /* \"#utility.yul\":13824:13937   */\n      iszero\n      tag_318\n      jumpi\n        /* \"#utility.yul\":13923:13924   */\n      dup1\n        /* \"#utility.yul\":13918:13921   */\n      dup3\n        /* \"#utility.yul\":13914:13925   */\n      add\n        /* \"#utility.yul\":13908:13926   */\n      mload\n        /* \"#utility.yul\":13904:13905   */\n      dup2\n        /* \"#utility.yul\":13899:13902   */\n      dup5\n        /* \"#utility.yul\":13895:13906   */\n      add\n        /* \"#utility.yul\":13888:13927   */\n      mstore\n        /* \"#utility.yul\":13860:13862   */\n      0x20\n        /* \"#utility.yul\":13857:13858   */\n      dup2\n        /* \"#utility.yul\":13853:13863   */\n      add\n        /* \"#utility.yul\":13848:13863   */\n      swap1\n      pop\n        /* \"#utility.yul\":13824:13937   */\n      jump(tag_316)\n    tag_318:\n        /* \"#utility.yul\":13971:13972   */\n      0x00\n        /* \"#utility.yul\":13962:13968   */\n      dup5\n        /* \"#utility.yul\":13957:13960   */\n      dup5\n        /* \"#utility.yul\":13953:13969   */\n      add\n        /* \"#utility.yul\":13946:13973   */\n      mstore\n        /* \"#utility.yul\":13795:13979   */\n      pop\n        /* \"#utility.yul\":13733:13979   */\n      pop\n      pop\n      pop\n      jump\t// out\n        /* \"#utility.yul\":13985:14375   */\n    tag_174:\n        /* \"#utility.yul\":14091:14094   */\n      0x00\n        /* \"#utility.yul\":14119:14158   */\n      tag_320\n        /* \"#utility.yul\":14152:14157   */\n      dup3\n        /* \"#utility.yul\":14119:14158   */\n      tag_171\n      jump\t// in\n    tag_320:\n        /* \"#utility.yul\":14174:14263   */\n      tag_321\n        /* \"#utility.yul\":14256:14262   */\n      dup2\n        /* \"#utility.yul\":14251:14254   */\n      dup6\n        /* \"#utility.yul\":14174:14263   */\n      tag_172\n      jump\t// in\n    tag_321:\n        /* \"#utility.yul\":14167:14263   */\n      swap4\n      pop\n        /* \"#utility.yul\":14272:14337   */\n      tag_322\n        /* \"#utility.yul\":14330:14336   */\n      dup2\n        /* \"#utility.yul\":14325:14328   */\n      dup6\n        /* \"#utility.yul\":14318:14322   */\n      0x20\n        /* \"#utility.yul\":14311:14316   */\n      dup7\n        /* \"#utility.yul\":14307:14323   */\n      add\n        /* \"#utility.yul\":14272:14337   */\n      tag_173\n      jump\t// in\n    tag_322:\n        /* \"#utility.yul\":14362:14368   */\n      dup1\n        /* \"#utility.yul\":14357:14360   */\n      dup5\n        /* \"#utility.yul\":14353:14369   */\n      add\n        /* \"#utility.yul\":14346:14369   */\n      swap2\n      pop\n        /* \"#utility.yul\":14095:14375   */\n      pop\n        /* \"#utility.yul\":13985:14375   */\n      swap3\n      swap2\n      pop\n      pop\n      jump\t// out\n        /* \"#utility.yul\":14381:14656   */\n    tag_74:\n        /* \"#utility.yul\":14513:14516   */\n      0x00\n        /* \"#utility.yul\":14535:14630   */\n      tag_324\n        /* \"#utility.yul\":14626:14629   */\n      dup3\n        /* \"#utility.yul\":14617:14623   */\n      dup5\n        /* \"#utility.yul\":14535:14630   */\n      tag_174\n      jump\t// in\n    tag_324:\n        /* \"#utility.yul\":14528:14630   */\n      swap2\n      pop\n        /* \"#utility.yul\":14647:14650   */\n      dup2\n        /* \"#utility.yul\":14640:14650   */\n      swap1\n      pop\n        /* \"#utility.yul\":14381:14656   */\n      swap3\n      swap2\n      pop\n      pop\n      jump\t// out\n        /* \"#utility.yul\":14662:14842   */\n    tag_175:\n        /* \"#utility.yul\":14710:14787   */\n      0x4e487b7100000000000000000000000000000000000000000000000000000000\n        /* \"#utility.yul\":14707:14708   */\n      0x00\n        /* \"#utility.yul\":14700:14788   */\n      mstore\n        /* \"#utility.yul\":14807:14811   */\n      0x11\n        /* \"#utility.yul\":14804:14805   */\n      0x04\n        /* \"#utility.yul\":14797:14812   */\n      mstore\n        /* \"#utility.yul\":14831:14835   */\n      0x24\n        /* \"#utility.yul\":14828:14829   */\n      0x00\n        /* \"#utility.yul\":14821:14836   */\n      revert\n        /* \"#utility.yul\":14848:15042   */\n    tag_91:\n        /* \"#utility.yul\":14888:14892   */\n      0x00\n        /* \"#utility.yul\":14908:14928   */\n      tag_327\n        /* \"#utility.yul\":14926:14927   */\n      dup3\n        /* \"#utility.yul\":14908:14928   */\n      tag_142\n      jump\t// in\n    tag_327:\n        /* \"#utility.yul\":14903:14928   */\n      swap2\n      pop\n        /* \"#utility.yul\":14942:14962   */\n      tag_328\n        /* \"#utility.yul\":14960:14961   */\n      dup4\n        /* \"#utility.yul\":14942:14962   */\n      tag_142\n      jump\t// in\n    tag_328:\n        /* \"#utility.yul\":14937:14962   */\n      swap3\n      pop\n        /* \"#utility.yul\":14986:14987   */\n      dup3\n        /* \"#utility.yul\":14983:14984   */\n      dup3\n        /* \"#utility.yul\":14979:14988   */\n      sub\n        /* \"#utility.yul\":14971:14988   */\n      swap1\n      pop\n        /* \"#utility.yul\":15010:15011   */\n      dup2\n        /* \"#utility.yul\":15004:15008   */\n      dup2\n        /* \"#utility.yul\":15001:15012   */\n      gt\n        /* \"#utility.yul\":14998:15035   */\n      iszero\n      tag_329\n      jumpi\n        /* \"#utility.yul\":15015:15033   */\n      tag_330\n      tag_175\n      jump\t// in\n    tag_330:\n        /* \"#utility.yul\":14998:15035   */\n    tag_329:\n        /* \"#utility.yul\":14848:15042   */\n      swap3\n      swap2\n      pop\n      pop\n      jump\t// out\n        /* \"#utility.yul\":15048:15228   */\n    tag_176:\n        /* \"#utility.yul\":15096:15173   */\n      0x4e487b7100000000000000000000000000000000000000000000000000000000\n        /* \"#utility.yul\":15093:15094   */\n      0x00\n        /* \"#utility.yul\":15086:15174   */\n      mstore\n        /* \"#utility.yul\":15193:15197   */\n      0x12\n        /* \"#utility.yul\":15190:15191   */\n      0x04\n        /* \"#utility.yul\":15183:15198   */\n      mstore\n        /* \"#utility.yul\":15217:15221   */\n      0x24\n        /* \"#utility.yul\":15214:15215   */\n      0x00\n        /* \"#utility.yul\":15207:15222   */\n      revert\n        /* \"#utility.yul\":15234:15410   */\n    tag_93:\n        /* \"#utility.yul\":15266:15267   */\n      0x00\n        /* \"#utility.yul\":15283:15303   */\n      tag_333\n        /* \"#utility.yul\":15301:15302   */\n      dup3\n        /* \"#utility.yul\":15283:15303   */\n      tag_142\n      jump\t// in\n    tag_333:\n        /* \"#utility.yul\":15278:15303   */\n      swap2\n      pop\n        /* \"#utility.yul\":15317:15337   */\n      tag_334\n        /* \"#utility.yul\":15335:15336   */\n      dup4\n        /* \"#utility.yul\":15317:15337   */\n      tag_142\n      jump\t// in\n    tag_334:\n        /* \"#utility.yul\":15312:15337   */\n      swap3\n      pop\n        /* \"#utility.yul\":15356:15357   */\n      dup3\n        /* \"#utility.yul\":15346:15381   */\n      tag_335\n      jumpi\n        /* \"#utility.yul\":15361:15379   */\n      tag_336\n      tag_176\n      jump\t// in\n    tag_336:\n        /* \"#utility.yul\":15346:15381   */\n    tag_335:\n        /* \"#utility.yul\":15402:15403   */\n      dup3\n        /* \"#utility.yul\":15399:15400   */\n      dup3\n        /* \"#utility.yul\":15395:15404   */\n      mod\n        /* \"#utility.yul\":15390:15404   */\n      swap1\n      pop\n        /* \"#utility.yul\":15234:15410   */\n      swap3\n      swap2\n      pop\n      pop\n      jump\t// out\n        /* \"#utility.yul\":15416:15607   */\n    tag_98:\n        /* \"#utility.yul\":15456:15459   */\n      0x00\n        /* \"#utility.yul\":15475:15495   */\n      tag_338\n        /* \"#utility.yul\":15493:15494   */\n      dup3\n        /* \"#utility.yul\":15475:15495   */\n      tag_142\n      jump\t// in\n    tag_338:\n        /* \"#utility.yul\":15470:15495   */\n      swap2\n      pop\n        /* \"#utility.yul\":15509:15529   */\n      tag_339\n        /* \"#utility.yul\":15527:15528   */\n      dup4\n        /* \"#utility.yul\":15509:15529   */\n      tag_142\n      jump\t// in\n    tag_339:\n        /* \"#utility.yul\":15504:15529   */\n      swap3\n      pop\n        /* \"#utility.yul\":15552:15553   */\n      dup3\n        /* \"#utility.yul\":15549:15550   */\n      dup3\n        /* \"#utility.yul\":15545:15554   */\n      add\n        /* \"#utility.yul\":15538:15554   */\n      swap1\n      pop\n        /* \"#utility.yul\":15573:15576   */\n      dup1\n        /* \"#utility.yul\":15570:15571   */\n      dup3\n        /* \"#utility.yul\":15567:15577   */\n      gt\n        /* \"#utility.yul\":15564:15600   */\n      iszero\n      tag_340\n      jumpi\n        /* \"#utility.yul\":15580:15598   */\n      tag_341\n      tag_175\n      jump\t// in\n    tag_341:\n        /* \"#utility.yul\":15564:15600   */\n    tag_340:\n        /* \"#utility.yul\":15416:15607   */\n      swap3\n      swap2\n      pop\n      pop\n      jump\t// out\n        /* \"#utility.yul\":15613:15793   */\n    tag_102:\n        /* \"#utility.yul\":15661:15738   */\n      0x4e487b7100000000000000000000000000000000000000000000000000000000\n        /* \"#utility.yul\":15658:15659   */\n      0x00\n        /* \"#utility.yul\":15651:15739   */\n      mstore\n        /* \"#utility.yul\":15758:15762   */\n      0x32\n        /* \"#utility.yul\":15755:15756   */\n      0x04\n        /* \"#utility.yul\":15748:15763   */\n      mstore\n        /* \"#utility.yul\":15782:15786   */\n      0x24\n        /* \"#utility.yul\":15779:15780   */\n      0x00\n        /* \"#utility.yul\":15772:15787   */\n      revert\n        /* \"#utility.yul\":15799:16021   */\n    tag_105:\n        /* \"#utility.yul\":15892:15896   */\n      0x00\n        /* \"#utility.yul\":15930:15932   */\n      0x20\n        /* \"#utility.yul\":15919:15928   */\n      dup3\n        /* \"#utility.yul\":15915:15933   */\n      add\n        /* \"#utility.yul\":15907:15933   */\n      swap1\n      pop\n        /* \"#utility.yul\":15943:16014   */\n      tag_344\n        /* \"#utility.yul\":16011:16012   */\n      0x00\n        /* \"#utility.yul\":16000:16009   */\n      dup4\n        /* \"#utility.yul\":15996:16013   */\n      add\n        /* \"#utility.yul\":15987:15993   */\n      dup5\n        /* \"#utility.yul\":15943:16014   */\n      tag_146\n      jump\t// in\n    tag_344:\n        /* \"#utility.yul\":15799:16021   */\n      swap3\n      swap2\n      pop\n      pop\n      jump\t// out\n\n    auxdata: 0xa26469706673582212203866bb2b09a14814c03849faa2917c055fb765e7a909af00a7f72559f08985ae64736f6c63430008160033\n}\n",
				"bytecode": {
					"linkReferences": {},
					"object": "608060405234801561000f575f80fd5b506114f88061001d5f395ff3fe608060405234801561000f575f80fd5b506004361061009c575f3560e01c806364f0c0b81161006457806364f0c0b814610155578063a1174e7d14610185578063a9860308146101a3578063b23793d6146101d3578063fe72ae13146102035761009c565b806311bd77fe146100a0578063189a5a17146100bc57806330e00c9b146100ed57806350f1c9851461011d5780635d44762b14610139575b5f80fd5b6100ba60048036038101906100b59190610d39565b610233565b005b6100d660048036038101906100d19190610d77565b610451565b6040516100e4929190610dc0565b60405180910390f35b61010760048036038101906101029190610f23565b61048f565b6040516101149190610f7d565b60405180910390f35b61013760048036038101906101329190610f96565b6104ef565b005b610153600480360381019061014e9190610ff0565b6105e7565b005b61016f600480360381019061016a919061108c565b6107e2565b60405161017c9190610f7d565b60405180910390f35b61018d610930565b60405161019a919061116e565b60405180910390f35b6101bd60048036038101906101b89190610d77565b6109bb565b6040516101ca91906111ca565b60405180910390f35b6101ed60048036038101906101e891906111e3565b610a6f565b6040516101fa919061116e565b60405180910390f35b61021d6004803603810190610218919061108c565b610b7b565b60405161022a9190610f7d565b60405180910390f35b5f73ffffffffffffffffffffffffffffffffffffffff165f808473ffffffffffffffffffffffffffffffffffffffff1673ffffffffffffffffffffffffffffffffffffffff1681526020019081526020015f205f015f9054906101000a900473ffffffffffffffffffffffffffffffffffffffff1673ffffffffffffffffffffffffffffffffffffffff16146102fe576040517f08c379a00000000000000000000000000000000000000000000000000000000081526004016102f590611284565b60405180910390fd5b60405180604001604052808373ffffffffffffffffffffffffffffffffffffffff168152602001828152505f808473ffffffffffffffffffffffffffffffffffffffff1673ffffffffffffffffffffffffffffffffffffffff1681526020019081526020015f205f820151815f015f6101000a81548173ffffffffffffffffffffffffffffffffffffffff021916908373ffffffffffffffffffffffffffffffffffffffff160217905550602082015181600101559050507f5f91b0afd2c6ef8da92137ba907bccdc85ec4856a15ad39de3e0eff02be6d70e826040516103e59190610f7d565b60405180910390a1600282908060018154018082558091505060019003905f5260205f20015f9091909190916101000a81548173ffffffffffffffffffffffffffffffffffffffff021916908373ffffffffffffffffffffffffffffffffffffffff1602179055505050565b5f602052805f5260405f205f91509050805f015f9054906101000a900473ffffffffffffffffffffffffffffffffffffffff16908060010154905082565b60018280516020810182018051848252602083016020850120818352809550505050505081815481106104c0575f80fd5b905f5260205f20015f915091509054906101000a900473ffffffffffffffffffffffffffffffffffffffff1681565b5f73ffffffffffffffffffffffffffffffffffffffff165f808473ffffffffffffffffffffffffffffffffffffffff1673ffffffffffffffffffffffffffffffffffffffff1681526020019081526020015f205f015f9054906101000a900473ffffffffffffffffffffffffffffffffffffffff1673ffffffffffffffffffffffffffffffffffffffff16036105ba576040517f08c379a00000000000000000000000000000000000000000000000000000000081526004016105b1906112ec565b60405180910390fd5b6001816040516105ca9190611376565b90815260200160405180910390205f6105e39190610c34565b5050565b5f73ffffffffffffffffffffffffffffffffffffffff165f808673ffffffffffffffffffffffffffffffffffffffff1673ffffffffffffffffffffffffffffffffffffffff1681526020019081526020015f205f015f9054906101000a900473ffffffffffffffffffffffffffffffffffffffff1673ffffffffffffffffffffffffffffffffffffffff16036106b2576040517f08c379a00000000000000000000000000000000000000000000000000000000081526004016106a9906112ec565b60405180910390fd5b61075b846001846040516106c69190611376565b908152602001604051809103902080548060200260200160405190810160405280929190818152602001828054801561075157602002820191905f5260205f20905b815f9054906101000a900473ffffffffffffffffffffffffffffffffffffffff1673ffffffffffffffffffffffffffffffffffffffff1681526020019060010190808311610708575b5050505050610bb6565b6107dc5760018260405161076f9190611376565b908152602001604051809103902084908060018154018082558091505060019003905f5260205f20015f9091909190916101000a81548173ffffffffffffffffffffffffffffffffffffffff021916908373ffffffffffffffffffffffffffffffffffffffff1602179055505b50505050565b5f8060028054905090505f603290505f8203610802575f9250505061092b565b5f8260014361081191906113b9565b405f1c61081e9190611419565b90505f5b83811015610923575f600285838561083a9190611449565b6108449190611419565b815481106108555761085461147c565b5b905f5260205f20015f9054906101000a900473ffffffffffffffffffffffffffffffffffffffff1690507f0838d04243391d45d94a98fff54d1737cbffea86c34ab825e5d6980ec9b77235836040516108ae91906114a9565b60405180910390a183876108c29190611449565b5f808373ffffffffffffffffffffffffffffffffffffffff1673ffffffffffffffffffffffffffffffffffffffff1681526020019081526020015f2060010154111561091557809550505050505061092b565b508080600101915050610822565b505f93505050505b919050565b606060028054806020026020016040519081016040528092919081815260200182805480156109b157602002820191905f5260205f20905b815f9054906101000a900473ffffffffffffffffffffffffffffffffffffffff1673ffffffffffffffffffffffffffffffffffffffff1681526020019060010190808311610968575b5050505050905090565b6109c3610c52565b5f808373ffffffffffffffffffffffffffffffffffffffff1673ffffffffffffffffffffffffffffffffffffffff1681526020019081526020015f206040518060400160405290815f82015f9054906101000a900473ffffffffffffffffffffffffffffffffffffffff1673ffffffffffffffffffffffffffffffffffffffff1673ffffffffffffffffffffffffffffffffffffffff1681526020016001820154815250509050919050565b60605f600183604051610a829190611376565b90815260200160405180910390208054905011610ad4576040517f08c379a0000000000000000000000000000000000000000000000000000000008152600401610acb906112ec565b60405180910390fd5b600182604051610ae49190611376565b9081526020016040518091039020805480602002602001604051908101604052809291908181526020018280548015610b6f57602002820191905f5260205f20905b815f9054906101000a900473ffffffffffffffffffffffffffffffffffffffff1673ffffffffffffffffffffffffffffffffffffffff1681526020019060010190808311610b26575b50505050509050919050565b60028181548110610b8a575f80fd5b905f5260205f20015f915054906101000a900473ffffffffffffffffffffffffffffffffffffffff1681565b5f805f90505b8251811015610c29578373ffffffffffffffffffffffffffffffffffffffff16838281518110610bef57610bee61147c565b5b602002602001015173ffffffffffffffffffffffffffffffffffffffff1603610c1c576001915050610c2e565b8080600101915050610bbc565b505f90505b92915050565b5080545f8255905f5260205f2090810190610c4f9190610c80565b50565b60405180604001604052805f73ffffffffffffffffffffffffffffffffffffffff1681526020015f81525090565b5b80821115610c97575f815f905550600101610c81565b5090565b5f604051905090565b5f80fd5b5f80fd5b5f73ffffffffffffffffffffffffffffffffffffffff82169050919050565b5f610cd582610cac565b9050919050565b610ce581610ccb565b8114610cef575f80fd5b50565b5f81359050610d0081610cdc565b92915050565b5f819050919050565b610d1881610d06565b8114610d22575f80fd5b50565b5f81359050610d3381610d0f565b92915050565b5f8060408385031215610d4f57610d4e610ca4565b5b5f610d5c85828601610cf2565b9250506020610d6d85828601610d25565b9150509250929050565b5f60208284031215610d8c57610d8b610ca4565b5b5f610d9984828501610cf2565b91505092915050565b610dab81610ccb565b82525050565b610dba81610d06565b82525050565b5f604082019050610dd35f830185610da2565b610de06020830184610db1565b9392505050565b5f80fd5b5f80fd5b5f601f19601f8301169050919050565b7f4e487b71000000000000000000000000000000000000000000000000000000005f52604160045260245ffd5b610e3582610def565b810181811067ffffffffffffffff82111715610e5457610e53610dff565b5b80604052505050565b5f610e66610c9b565b9050610e728282610e2c565b919050565b5f67ffffffffffffffff821115610e9157610e90610dff565b5b610e9a82610def565b9050602081019050919050565b828183375f83830152505050565b5f610ec7610ec284610e77565b610e5d565b905082815260208101848484011115610ee357610ee2610deb565b5b610eee848285610ea7565b509392505050565b5f82601f830112610f0a57610f09610de7565b5b8135610f1a848260208601610eb5565b91505092915050565b5f8060408385031215610f3957610f38610ca4565b5b5f83013567ffffffffffffffff811115610f5657610f55610ca8565b5b610f6285828601610ef6565b9250506020610f7385828601610d25565b9150509250929050565b5f602082019050610f905f830184610da2565b92915050565b5f8060408385031215610fac57610fab610ca4565b5b5f610fb985828601610cf2565b925050602083013567ffffffffffffffff811115610fda57610fd9610ca8565b5b610fe685828601610ef6565b9150509250929050565b5f805f806080858703121561100857611007610ca4565b5b5f61101587828801610cf2565b945050602085013567ffffffffffffffff81111561103657611035610ca8565b5b61104287828801610ef6565b935050604085013567ffffffffffffffff81111561106357611062610ca8565b5b61106f87828801610ef6565b925050606061108087828801610d25565b91505092959194509250565b5f602082840312156110a1576110a0610ca4565b5b5f6110ae84828501610d25565b91505092915050565b5f81519050919050565b5f82825260208201905092915050565b5f819050602082019050919050565b6110e981610ccb565b82525050565b5f6110fa83836110e0565b60208301905092915050565b5f602082019050919050565b5f61111c826110b7565b61112681856110c1565b9350611131836110d1565b805f5b8381101561116157815161114888826110ef565b975061115383611106565b925050600181019050611134565b5085935050505092915050565b5f6020820190508181035f8301526111868184611112565b905092915050565b61119781610d06565b82525050565b604082015f8201516111b15f8501826110e0565b5060208201516111c4602085018261118e565b50505050565b5f6040820190506111dd5f83018461119d565b92915050565b5f602082840312156111f8576111f7610ca4565b5b5f82013567ffffffffffffffff81111561121557611214610ca8565b5b61122184828501610ef6565b91505092915050565b5f82825260208201905092915050565b7f4e6f646520616c726561647920657869737473000000000000000000000000005f82015250565b5f61126e60138361122a565b91506112798261123a565b602082019050919050565b5f6020820190508181035f83015261129b81611262565b9050919050565b7f4e6f646520646f6573206e6f74206578697374000000000000000000000000005f82015250565b5f6112d660138361122a565b91506112e1826112a2565b602082019050919050565b5f6020820190508181035f830152611303816112ca565b9050919050565b5f81519050919050565b5f81905092915050565b5f5b8381101561133b578082015181840152602081019050611320565b5f8484015250505050565b5f6113508261130a565b61135a8185611314565b935061136a81856020860161131e565b80840191505092915050565b5f6113818284611346565b915081905092915050565b7f4e487b71000000000000000000000000000000000000000000000000000000005f52601160045260245ffd5b5f6113c382610d06565b91506113ce83610d06565b92508282039050818111156113e6576113e561138c565b5b92915050565b7f4e487b71000000000000000000000000000000000000000000000000000000005f52601260045260245ffd5b5f61142382610d06565b915061142e83610d06565b92508261143e5761143d6113ec565b5b828206905092915050565b5f61145382610d06565b915061145e83610d06565b92508282019050808211156114765761147561138c565b5b92915050565b7f4e487b71000000000000000000000000000000000000000000000000000000005f52603260045260245ffd5b5f6020820190506114bc5f830184610db1565b9291505056fea26469706673582212203866bb2b09a14814c03849faa2917c055fb765e7a909af00a7f72559f08985ae64736f6c63430008160033",
					"opcodes": "PUSH1 0x80 PUSH1 0x40 MSTORE CALLVALUE DUP1 ISZERO PUSH2 0xF JUMPI PUSH0 DUP1 REVERT JUMPDEST POP PUSH2 0x14F8 DUP1 PUSH2 0x1D PUSH0 CODECOPY PUSH0 RETURN INVALID PUSH1 0x80 PUSH1 0x40 MSTORE CALLVALUE DUP1 ISZERO PUSH2 0xF JUMPI PUSH0 DUP1 REVERT JUMPDEST POP PUSH1 0x4 CALLDATASIZE LT PUSH2 0x9C JUMPI PUSH0 CALLDATALOAD PUSH1 0xE0 SHR DUP1 PUSH4 0x64F0C0B8 GT PUSH2 0x64 JUMPI DUP1 PUSH4 0x64F0C0B8 EQ PUSH2 0x155 JUMPI DUP1 PUSH4 0xA1174E7D EQ PUSH2 0x185 JUMPI DUP1 PUSH4 0xA9860308 EQ PUSH2 0x1A3 JUMPI DUP1 PUSH4 0xB23793D6 EQ PUSH2 0x1D3 JUMPI DUP1 PUSH4 0xFE72AE13 EQ PUSH2 0x203 JUMPI PUSH2 0x9C JUMP JUMPDEST DUP1 PUSH4 0x11BD77FE EQ PUSH2 0xA0 JUMPI DUP1 PUSH4 0x189A5A17 EQ PUSH2 0xBC JUMPI DUP1 PUSH4 0x30E00C9B EQ PUSH2 0xED JUMPI DUP1 PUSH4 0x50F1C985 EQ PUSH2 0x11D JUMPI DUP1 PUSH4 0x5D44762B EQ PUSH2 0x139 JUMPI JUMPDEST PUSH0 DUP1 REVERT JUMPDEST PUSH2 0xBA PUSH1 0x4 DUP1 CALLDATASIZE SUB DUP2 ADD SWAP1 PUSH2 0xB5 SWAP2 SWAP1 PUSH2 0xD39 JUMP JUMPDEST PUSH2 0x233 JUMP JUMPDEST STOP JUMPDEST PUSH2 0xD6 PUSH1 0x4 DUP1 CALLDATASIZE SUB DUP2 ADD SWAP1 PUSH2 0xD1 SWAP2 SWAP1 PUSH2 0xD77 JUMP JUMPDEST PUSH2 0x451 JUMP JUMPDEST PUSH1 0x40 MLOAD PUSH2 0xE4 SWAP3 SWAP2 SWAP1 PUSH2 0xDC0 JUMP JUMPDEST PUSH1 0x40 MLOAD DUP1 SWAP2 SUB SWAP1 RETURN JUMPDEST PUSH2 0x107 PUSH1 0x4 DUP1 CALLDATASIZE SUB DUP2 ADD SWAP1 PUSH2 0x102 SWAP2 SWAP1 PUSH2 0xF23 JUMP JUMPDEST PUSH2 0x48F JUMP JUMPDEST PUSH1 0x40 MLOAD PUSH2 0x114 SWAP2 SWAP1 PUSH2 0xF7D JUMP JUMPDEST PUSH1 0x40 MLOAD DUP1 SWAP2 SUB SWAP1 RETURN JUMPDEST PUSH2 0x137 PUSH1 0x4 DUP1 CALLDATASIZE SUB DUP2 ADD SWAP1 PUSH2 0x132 SWAP2 SWAP1 PUSH2 0xF96 JUMP JUMPDEST PUSH2 0x4EF JUMP JUMPDEST STOP JUMPDEST PUSH2 0x153 PUSH1 0x4 DUP1 CALLDATASIZE SUB DUP2 ADD SWAP1 PUSH2 0x14E SWAP2 SWAP1 PUSH2 0xFF0 JUMP JUMPDEST PUSH2 0x5E7 JUMP JUMPDEST STOP JUMPDEST PUSH2 0x16F PUSH1 0x4 DUP1 CALLDATASIZE SUB DUP2 ADD SWAP1 PUSH2 0x16A SWAP2 SWAP1 PUSH2 0x108C JUMP JUMPDEST PUSH2 0x7E2 JUMP JUMPDEST PUSH1 0x40 MLOAD PUSH2 0x17C SWAP2 SWAP1 PUSH2 0xF7D JUMP JUMPDEST PUSH1 0x40 MLOAD DUP1 SWAP2 SUB SWAP1 RETURN JUMPDEST PUSH2 0x18D PUSH2 0x930 JUMP JUMPDEST PUSH1 0x40 MLOAD PUSH2 0x19A SWAP2 SWAP1 PUSH2 0x116E JUMP JUMPDEST PUSH1 0x40 MLOAD DUP1 SWAP2 SUB SWAP1 RETURN JUMPDEST PUSH2 0x1BD PUSH1 0x4 DUP1 CALLDATASIZE SUB DUP2 ADD SWAP1 PUSH2 0x1B8 SWAP2 SWAP1 PUSH2 0xD77 JUMP JUMPDEST PUSH2 0x9BB JUMP JUMPDEST PUSH1 0x40 MLOAD PUSH2 0x1CA SWAP2 SWAP1 PUSH2 0x11CA JUMP JUMPDEST PUSH1 0x40 MLOAD DUP1 SWAP2 SUB SWAP1 RETURN JUMPDEST PUSH2 0x1ED PUSH1 0x4 DUP1 CALLDATASIZE SUB DUP2 ADD SWAP1 PUSH2 0x1E8 SWAP2 SWAP1 PUSH2 0x11E3 JUMP JUMPDEST PUSH2 0xA6F JUMP JUMPDEST PUSH1 0x40 MLOAD PUSH2 0x1FA SWAP2 SWAP1 PUSH2 0x116E JUMP JUMPDEST PUSH1 0x40 MLOAD DUP1 SWAP2 SUB SWAP1 RETURN JUMPDEST PUSH2 0x21D PUSH1 0x4 DUP1 CALLDATASIZE SUB DUP2 ADD SWAP1 PUSH2 0x218 SWAP2 SWAP1 PUSH2 0x108C JUMP JUMPDEST PUSH2 0xB7B JUMP JUMPDEST PUSH1 0x40 MLOAD PUSH2 0x22A SWAP2 SWAP1 PUSH2 0xF7D JUMP JUMPDEST PUSH1 0x40 MLOAD DUP1 SWAP2 SUB SWAP1 RETURN JUMPDEST PUSH0 PUSH20 0xFFFFFFFFFFFFFFFFFFFFFFFFFFFFFFFFFFFFFFFF AND PUSH0 DUP1 DUP5 PUSH20 0xFFFFFFFFFFFFFFFFFFFFFFFFFFFFFFFFFFFFFFFF AND PUSH20 0xFFFFFFFFFFFFFFFFFFFFFFFFFFFFFFFFFFFFFFFF AND DUP2 MSTORE PUSH1 0x20 ADD SWAP1 DUP2 MSTORE PUSH1 0x20 ADD PUSH0 KECCAK256 PUSH0 ADD PUSH0 SWAP1 SLOAD SWAP1 PUSH2 0x100 EXP SWAP1 DIV PUSH20 0xFFFFFFFFFFFFFFFFFFFFFFFFFFFFFFFFFFFFFFFF AND PUSH20 0xFFFFFFFFFFFFFFFFFFFFFFFFFFFFFFFFFFFFFFFF AND EQ PUSH2 0x2FE JUMPI PUSH1 0x40 MLOAD PUSH32 0x8C379A000000000000000000000000000000000000000000000000000000000 DUP2 MSTORE PUSH1 0x4 ADD PUSH2 0x2F5 SWAP1 PUSH2 0x1284 JUMP JUMPDEST PUSH1 0x40 MLOAD DUP1 SWAP2 SUB SWAP1 REVERT JUMPDEST PUSH1 0x40 MLOAD DUP1 PUSH1 0x40 ADD PUSH1 0x40 MSTORE DUP1 DUP4 PUSH20 0xFFFFFFFFFFFFFFFFFFFFFFFFFFFFFFFFFFFFFFFF AND DUP2 MSTORE PUSH1 0x20 ADD DUP3 DUP2 MSTORE POP PUSH0 DUP1 DUP5 PUSH20 0xFFFFFFFFFFFFFFFFFFFFFFFFFFFFFFFFFFFFFFFF AND PUSH20 0xFFFFFFFFFFFFFFFFFFFFFFFFFFFFFFFFFFFFFFFF AND DUP2 MSTORE PUSH1 0x20 ADD SWAP1 DUP2 MSTORE PUSH1 0x20 ADD PUSH0 KECCAK256 PUSH0 DUP3 ADD MLOAD DUP2 PUSH0 ADD PUSH0 PUSH2 0x100 EXP DUP2 SLOAD DUP2 PUSH20 0xFFFFFFFFFFFFFFFFFFFFFFFFFFFFFFFFFFFFFFFF MUL NOT AND SWAP1 DUP4 PUSH20 0xFFFFFFFFFFFFFFFFFFFFFFFFFFFFFFFFFFFFFFFF AND MUL OR SWAP1 SSTORE POP PUSH1 0x20 DUP3 ADD MLOAD DUP2 PUSH1 0x1 ADD SSTORE SWAP1 POP POP PUSH32 0x5F91B0AFD2C6EF8DA92137BA907BCCDC85EC4856A15AD39DE3E0EFF02BE6D70E DUP3 PUSH1 0x40 MLOAD PUSH2 0x3E5 SWAP2 SWAP1 PUSH2 0xF7D JUMP JUMPDEST PUSH1 0x40 MLOAD DUP1 SWAP2 SUB SWAP1 LOG1 PUSH1 0x2 DUP3 SWAP1 DUP1 PUSH1 0x1 DUP2 SLOAD ADD DUP1 DUP3 SSTORE DUP1 SWAP2 POP POP PUSH1 0x1 SWAP1 SUB SWAP1 PUSH0 MSTORE PUSH1 0x20 PUSH0 KECCAK256 ADD PUSH0 SWAP1 SWAP2 SWAP1 SWAP2 SWAP1 SWAP2 PUSH2 0x100 EXP DUP2 SLOAD DUP2 PUSH20 0xFFFFFFFFFFFFFFFFFFFFFFFFFFFFFFFFFFFFFFFF MUL NOT AND SWAP1 DUP4 PUSH20 0xFFFFFFFFFFFFFFFFFFFFFFFFFFFFFFFFFFFFFFFF AND MUL OR SWAP1 SSTORE POP POP POP JUMP JUMPDEST PUSH0 PUSH1 0x20 MSTORE DUP1 PUSH0 MSTORE PUSH1 0x40 PUSH0 KECCAK256 PUSH0 SWAP2 POP SWAP1 POP DUP1 PUSH0 ADD PUSH0 SWAP1 SLOAD SWAP1 PUSH2 0x100 EXP SWAP1 DIV PUSH20 0xFFFFFFFFFFFFFFFFFFFFFFFFFFFFFFFFFFFFFFFF AND SWAP1 DUP1 PUSH1 0x1 ADD SLOAD SWAP1 POP DUP3 JUMP JUMPDEST PUSH1 0x1 DUP3 DUP1 MLOAD PUSH1 0x20 DUP2 ADD DUP3 ADD DUP1 MLOAD DUP5 DUP3 MSTORE PUSH1 0x20 DUP4 ADD PUSH1 0x20 DUP6 ADD KECCAK256 DUP2 DUP4 MSTORE DUP1 SWAP6 POP POP POP POP POP POP DUP2 DUP2 SLOAD DUP2 LT PUSH2 0x4C0 JUMPI PUSH0 DUP1 REVERT JUMPDEST SWAP1 PUSH0 MSTORE PUSH1 0x20 PUSH0 KECCAK256 ADD PUSH0 SWAP2 POP SWAP2 POP SWAP1 SLOAD SWAP1 PUSH2 0x100 EXP SWAP1 DIV PUSH20 0xFFFFFFFFFFFFFFFFFFFFFFFFFFFFFFFFFFFFFFFF AND DUP2 JUMP JUMPDEST PUSH0 PUSH20 0xFFFFFFFFFFFFFFFFFFFFFFFFFFFFFFFFFFFFFFFF AND PUSH0 DUP1 DUP5 PUSH20 0xFFFFFFFFFFFFFFFFFFFFFFFFFFFFFFFFFFFFFFFF AND PUSH20 0xFFFFFFFFFFFFFFFFFFFFFFFFFFFFFFFFFFFFFFFF AND DUP2 MSTORE PUSH1 0x20 ADD SWAP1 DUP2 MSTORE PUSH1 0x20 ADD PUSH0 KECCAK256 PUSH0 ADD PUSH0 SWAP1 SLOAD SWAP1 PUSH2 0x100 EXP SWAP1 DIV PUSH20 0xFFFFFFFFFFFFFFFFFFFFFFFFFFFFFFFFFFFFFFFF AND PUSH20 0xFFFFFFFFFFFFFFFFFFFFFFFFFFFFFFFFFFFFFFFF AND SUB PUSH2 0x5BA JUMPI PUSH1 0x40 MLOAD PUSH32 0x8C379A000000000000000000000000000000000000000000000000000000000 DUP2 MSTORE PUSH1 0x4 ADD PUSH2 0x5B1 SWAP1 PUSH2 0x12EC JUMP JUMPDEST PUSH1 0x40 MLOAD DUP1 SWAP2 SUB SWAP1 REVERT JUMPDEST PUSH1 0x1 DUP2 PUSH1 0x40 MLOAD PUSH2 0x5CA SWAP2 SWAP1 PUSH2 0x1376 JUMP JUMPDEST SWAP1 DUP2 MSTORE PUSH1 0x20 ADD PUSH1 0x40 MLOAD DUP1 SWAP2 SUB SWAP1 KECCAK256 PUSH0 PUSH2 0x5E3 SWAP2 SWAP1 PUSH2 0xC34 JUMP JUMPDEST POP POP JUMP JUMPDEST PUSH0 PUSH20 0xFFFFFFFFFFFFFFFFFFFFFFFFFFFFFFFFFFFFFFFF AND PUSH0 DUP1 DUP7 PUSH20 0xFFFFFFFFFFFFFFFFFFFFFFFFFFFFFFFFFFFFFFFF AND PUSH20 0xFFFFFFFFFFFFFFFFFFFFFFFFFFFFFFFFFFFFFFFF AND DUP2 MSTORE PUSH1 0x20 ADD SWAP1 DUP2 MSTORE PUSH1 0x20 ADD PUSH0 KECCAK256 PUSH0 ADD PUSH0 SWAP1 SLOAD SWAP1 PUSH2 0x100 EXP SWAP1 DIV PUSH20 0xFFFFFFFFFFFFFFFFFFFFFFFFFFFFFFFFFFFFFFFF AND PUSH20 0xFFFFFFFFFFFFFFFFFFFFFFFFFFFFFFFFFFFFFFFF AND SUB PUSH2 0x6B2 JUMPI PUSH1 0x40 MLOAD PUSH32 0x8C379A000000000000000000000000000000000000000000000000000000000 DUP2 MSTORE PUSH1 0x4 ADD PUSH2 0x6A9 SWAP1 PUSH2 0x12EC JUMP JUMPDEST PUSH1 0x40 MLOAD DUP1 SWAP2 SUB SWAP1 REVERT JUMPDEST PUSH2 0x75B DUP5 PUSH1 0x1 DUP5 PUSH1 0x40 MLOAD PUSH2 0x6C6 SWAP2 SWAP1 PUSH2 0x1376 JUMP JUMPDEST SWAP1 DUP2 MSTORE PUSH1 0x20 ADD PUSH1 0x40 MLOAD DUP1 SWAP2 SUB SWAP1 KECCAK256 DUP1 SLOAD DUP1 PUSH1 0x20 MUL PUSH1 0x20 ADD PUSH1 0x40 MLOAD SWAP1 DUP2 ADD PUSH1 0x40 MSTORE DUP1 SWAP3 SWAP2 SWAP1 DUP2 DUP2 MSTORE PUSH1 0x20 ADD DUP3 DUP1 SLOAD DUP1 ISZERO PUSH2 0x751 JUMPI PUSH1 0x20 MUL DUP3 ADD SWAP2 SWAP1 PUSH0 MSTORE PUSH1 0x20 PUSH0 KECCAK256 SWAP1 JUMPDEST DUP2 PUSH0 SWAP1 SLOAD SWAP1 PUSH2 0x100 EXP SWAP1 DIV PUSH20 0xFFFFFFFFFFFFFFFFFFFFFFFFFFFFFFFFFFFFFFFF AND PUSH20 0xFFFFFFFFFFFFFFFFFFFFFFFFFFFFFFFFFFFFFFFF AND DUP2 MSTORE PUSH1 0x20 ADD SWAP1 PUSH1 0x1 ADD SWAP1 DUP1 DUP4 GT PUSH2 0x708 JUMPI JUMPDEST POP POP POP POP POP PUSH2 0xBB6 JUMP JUMPDEST PUSH2 0x7DC JUMPI PUSH1 0x1 DUP3 PUSH1 0x40 MLOAD PUSH2 0x76F SWAP2 SWAP1 PUSH2 0x1376 JUMP JUMPDEST SWAP1 DUP2 MSTORE PUSH1 0x20 ADD PUSH1 0x40 MLOAD DUP1 SWAP2 SUB SWAP1 KECCAK256 DUP5 SWAP1 DUP1 PUSH1 0x1 DUP2 SLOAD ADD DUP1 DUP3 SSTORE DUP1 SWAP2 POP POP PUSH1 0x1 SWAP1 SUB SWAP1 PUSH0 MSTORE PUSH1 0x20 PUSH0 KECCAK256 ADD PUSH0 SWAP1 SWAP2 SWAP1 SWAP2 SWAP1 SWAP2 PUSH2 0x100 EXP DUP2 SLOAD DUP2 PUSH20 0xFFFFFFFFFFFFFFFFFFFFFFFFFFFFFFFFFFFFFFFF MUL NOT AND SWAP1 DUP4 PUSH20 0xFFFFFFFFFFFFFFFFFFFFFFFFFFFFFFFFFFFFFFFF AND MUL OR SWAP1 SSTORE POP JUMPDEST POP POP POP POP JUMP JUMPDEST PUSH0 DUP1 PUSH1 0x2 DUP1 SLOAD SWAP1 POP SWAP1 POP PUSH0 PUSH1 0x32 SWAP1 POP PUSH0 DUP3 SUB PUSH2 0x802 JUMPI PUSH0 SWAP3 POP POP POP PUSH2 0x92B JUMP JUMPDEST PUSH0 DUP3 PUSH1 0x1 NUMBER PUSH2 0x811 SWAP2 SWAP1 PUSH2 0x13B9 JUMP JUMPDEST BLOCKHASH PUSH0 SHR PUSH2 0x81E SWAP2 SWAP1 PUSH2 0x1419 JUMP JUMPDEST SWAP1 POP PUSH0 JUMPDEST DUP4 DUP2 LT ISZERO PUSH2 0x923 JUMPI PUSH0 PUSH1 0x2 DUP6 DUP4 DUP6 PUSH2 0x83A SWAP2 SWAP1 PUSH2 0x1449 JUMP JUMPDEST PUSH2 0x844 SWAP2 SWAP1 PUSH2 0x1419 JUMP JUMPDEST DUP2 SLOAD DUP2 LT PUSH2 0x855 JUMPI PUSH2 0x854 PUSH2 0x147C JUMP JUMPDEST JUMPDEST SWAP1 PUSH0 MSTORE PUSH1 0x20 PUSH0 KECCAK256 ADD PUSH0 SWAP1 SLOAD SWAP1 PUSH2 0x100 EXP SWAP1 DIV PUSH20 0xFFFFFFFFFFFFFFFFFFFFFFFFFFFFFFFFFFFFFFFF AND SWAP1 POP PUSH32 0x838D04243391D45D94A98FFF54D1737CBFFEA86C34AB825E5D6980EC9B77235 DUP4 PUSH1 0x40 MLOAD PUSH2 0x8AE SWAP2 SWAP1 PUSH2 0x14A9 JUMP JUMPDEST PUSH1 0x40 MLOAD DUP1 SWAP2 SUB SWAP1 LOG1 DUP4 DUP8 PUSH2 0x8C2 SWAP2 SWAP1 PUSH2 0x1449 JUMP JUMPDEST PUSH0 DUP1 DUP4 PUSH20 0xFFFFFFFFFFFFFFFFFFFFFFFFFFFFFFFFFFFFFFFF AND PUSH20 0xFFFFFFFFFFFFFFFFFFFFFFFFFFFFFFFFFFFFFFFF AND DUP2 MSTORE PUSH1 0x20 ADD SWAP1 DUP2 MSTORE PUSH1 0x20 ADD PUSH0 KECCAK256 PUSH1 0x1 ADD SLOAD GT ISZERO PUSH2 0x915 JUMPI DUP1 SWAP6 POP POP POP POP POP POP PUSH2 0x92B JUMP JUMPDEST POP DUP1 DUP1 PUSH1 0x1 ADD SWAP2 POP POP PUSH2 0x822 JUMP JUMPDEST POP PUSH0 SWAP4 POP POP POP POP JUMPDEST SWAP2 SWAP1 POP JUMP JUMPDEST PUSH1 0x60 PUSH1 0x2 DUP1 SLOAD DUP1 PUSH1 0x20 MUL PUSH1 0x20 ADD PUSH1 0x40 MLOAD SWAP1 DUP2 ADD PUSH1 0x40 MSTORE DUP1 SWAP3 SWAP2 SWAP1 DUP2 DUP2 MSTORE PUSH1 0x20 ADD DUP3 DUP1 SLOAD DUP1 ISZERO PUSH2 0x9B1 JUMPI PUSH1 0x20 MUL DUP3 ADD SWAP2 SWAP1 PUSH0 MSTORE PUSH1 0x20 PUSH0 KECCAK256 SWAP1 JUMPDEST DUP2 PUSH0 SWAP1 SLOAD SWAP1 PUSH2 0x100 EXP SWAP1 DIV PUSH20 0xFFFFFFFFFFFFFFFFFFFFFFFFFFFFFFFFFFFFFFFF AND PUSH20 0xFFFFFFFFFFFFFFFFFFFFFFFFFFFFFFFFFFFFFFFF AND DUP2 MSTORE PUSH1 0x20 ADD SWAP1 PUSH1 0x1 ADD SWAP1 DUP1 DUP4 GT PUSH2 0x968 JUMPI JUMPDEST POP POP POP POP POP SWAP1 POP SWAP1 JUMP JUMPDEST PUSH2 0x9C3 PUSH2 0xC52 JUMP JUMPDEST PUSH0 DUP1 DUP4 PUSH20 0xFFFFFFFFFFFFFFFFFFFFFFFFFFFFFFFFFFFFFFFF AND PUSH20 0xFFFFFFFFFFFFFFFFFFFFFFFFFFFFFFFFFFFFFFFF AND DUP2 MSTORE PUSH1 0x20 ADD SWAP1 DUP2 MSTORE PUSH1 0x20 ADD PUSH0 KECCAK256 PUSH1 0x40 MLOAD DUP1 PUSH1 0x40 ADD PUSH1 0x40 MSTORE SWAP1 DUP2 PUSH0 DUP3 ADD PUSH0 SWAP1 SLOAD SWAP1 PUSH2 0x100 EXP SWAP1 DIV PUSH20 0xFFFFFFFFFFFFFFFFFFFFFFFFFFFFFFFFFFFFFFFF AND PUSH20 0xFFFFFFFFFFFFFFFFFFFFFFFFFFFFFFFFFFFFFFFF AND PUSH20 0xFFFFFFFFFFFFFFFFFFFFFFFFFFFFFFFFFFFFFFFF AND DUP2 MSTORE PUSH1 0x20 ADD PUSH1 0x1 DUP3 ADD SLOAD DUP2 MSTORE POP POP SWAP1 POP SWAP2 SWAP1 POP JUMP JUMPDEST PUSH1 0x60 PUSH0 PUSH1 0x1 DUP4 PUSH1 0x40 MLOAD PUSH2 0xA82 SWAP2 SWAP1 PUSH2 0x1376 JUMP JUMPDEST SWAP1 DUP2 MSTORE PUSH1 0x20 ADD PUSH1 0x40 MLOAD DUP1 SWAP2 SUB SWAP1 KECCAK256 DUP1 SLOAD SWAP1 POP GT PUSH2 0xAD4 JUMPI PUSH1 0x40 MLOAD PUSH32 0x8C379A000000000000000000000000000000000000000000000000000000000 DUP2 MSTORE PUSH1 0x4 ADD PUSH2 0xACB SWAP1 PUSH2 0x12EC JUMP JUMPDEST PUSH1 0x40 MLOAD DUP1 SWAP2 SUB SWAP1 REVERT JUMPDEST PUSH1 0x1 DUP3 PUSH1 0x40 MLOAD PUSH2 0xAE4 SWAP2 SWAP1 PUSH2 0x1376 JUMP JUMPDEST SWAP1 DUP2 MSTORE PUSH1 0x20 ADD PUSH1 0x40 MLOAD DUP1 SWAP2 SUB SWAP1 KECCAK256 DUP1 SLOAD DUP1 PUSH1 0x20 MUL PUSH1 0x20 ADD PUSH1 0x40 MLOAD SWAP1 DUP2 ADD PUSH1 0x40 MSTORE DUP1 SWAP3 SWAP2 SWAP1 DUP2 DUP2 MSTORE PUSH1 0x20 ADD DUP3 DUP1 SLOAD DUP1 ISZERO PUSH2 0xB6F JUMPI PUSH1 0x20 MUL DUP3 ADD SWAP2 SWAP1 PUSH0 MSTORE PUSH1 0x20 PUSH0 KECCAK256 SWAP1 JUMPDEST DUP2 PUSH0 SWAP1 SLOAD SWAP1 PUSH2 0x100 EXP SWAP1 DIV PUSH20 0xFFFFFFFFFFFFFFFFFFFFFFFFFFFFFFFFFFFFFFFF AND PUSH20 0xFFFFFFFFFFFFFFFFFFFFFFFFFFFFFFFFFFFFFFFF AND DUP2 MSTORE PUSH1 0x20 ADD SWAP1 PUSH1 0x1 ADD SWAP1 DUP1 DUP4 GT PUSH2 0xB26 JUMPI JUMPDEST POP POP POP POP POP SWAP1 POP SWAP2 SWAP1 POP JUMP JUMPDEST PUSH1 0x2 DUP2 DUP2 SLOAD DUP2 LT PUSH2 0xB8A JUMPI PUSH0 DUP1 REVERT JUMPDEST SWAP1 PUSH0 MSTORE PUSH1 0x20 PUSH0 KECCAK256 ADD PUSH0 SWAP2 POP SLOAD SWAP1 PUSH2 0x100 EXP SWAP1 DIV PUSH20 0xFFFFFFFFFFFFFFFFFFFFFFFFFFFFFFFFFFFFFFFF AND DUP2 JUMP JUMPDEST PUSH0 DUP1 PUSH0 SWAP1 POP JUMPDEST DUP3 MLOAD DUP2 LT ISZERO PUSH2 0xC29 JUMPI DUP4 PUSH20 0xFFFFFFFFFFFFFFFFFFFFFFFFFFFFFFFFFFFFFFFF AND DUP4 DUP3 DUP2 MLOAD DUP2 LT PUSH2 0xBEF JUMPI PUSH2 0xBEE PUSH2 0x147C JUMP JUMPDEST JUMPDEST PUSH1 0x20 MUL PUSH1 0x20 ADD ADD MLOAD PUSH20 0xFFFFFFFFFFFFFFFFFFFFFFFFFFFFFFFFFFFFFFFF AND SUB PUSH2 0xC1C JUMPI PUSH1 0x1 SWAP2 POP POP PUSH2 0xC2E JUMP JUMPDEST DUP1 DUP1 PUSH1 0x1 ADD SWAP2 POP POP PUSH2 0xBBC JUMP JUMPDEST POP PUSH0 SWAP1 POP JUMPDEST SWAP3 SWAP2 POP POP JUMP JUMPDEST POP DUP1 SLOAD PUSH0 DUP3 SSTORE SWAP1 PUSH0 MSTORE PUSH1 0x20 PUSH0 KECCAK256 SWAP1 DUP2 ADD SWAP1 PUSH2 0xC4F SWAP2 SWAP1 PUSH2 0xC80 JUMP JUMPDEST POP JUMP JUMPDEST PUSH1 0x40 MLOAD DUP1 PUSH1 0x40 ADD PUSH1 0x40 MSTORE DUP1 PUSH0 PUSH20 0xFFFFFFFFFFFFFFFFFFFFFFFFFFFFFFFFFFFFFFFF AND DUP2 MSTORE PUSH1 0x20 ADD PUSH0 DUP2 MSTORE POP SWAP1 JUMP JUMPDEST JUMPDEST DUP1 DUP3 GT ISZERO PUSH2 0xC97 JUMPI PUSH0 DUP2 PUSH0 SWAP1 SSTORE POP PUSH1 0x1 ADD PUSH2 0xC81 JUMP JUMPDEST POP SWAP1 JUMP JUMPDEST PUSH0 PUSH1 0x40 MLOAD SWAP1 POP SWAP1 JUMP JUMPDEST PUSH0 DUP1 REVERT JUMPDEST PUSH0 DUP1 REVERT JUMPDEST PUSH0 PUSH20 0xFFFFFFFFFFFFFFFFFFFFFFFFFFFFFFFFFFFFFFFF DUP3 AND SWAP1 POP SWAP2 SWAP1 POP JUMP JUMPDEST PUSH0 PUSH2 0xCD5 DUP3 PUSH2 0xCAC JUMP JUMPDEST SWAP1 POP SWAP2 SWAP1 POP JUMP JUMPDEST PUSH2 0xCE5 DUP2 PUSH2 0xCCB JUMP JUMPDEST DUP2 EQ PUSH2 0xCEF JUMPI PUSH0 DUP1 REVERT JUMPDEST POP JUMP JUMPDEST PUSH0 DUP2 CALLDATALOAD SWAP1 POP PUSH2 0xD00 DUP2 PUSH2 0xCDC JUMP JUMPDEST SWAP3 SWAP2 POP POP JUMP JUMPDEST PUSH0 DUP2 SWAP1 POP SWAP2 SWAP1 POP JUMP JUMPDEST PUSH2 0xD18 DUP2 PUSH2 0xD06 JUMP JUMPDEST DUP2 EQ PUSH2 0xD22 JUMPI PUSH0 DUP1 REVERT JUMPDEST POP JUMP JUMPDEST PUSH0 DUP2 CALLDATALOAD SWAP1 POP PUSH2 0xD33 DUP2 PUSH2 0xD0F JUMP JUMPDEST SWAP3 SWAP2 POP POP JUMP JUMPDEST PUSH0 DUP1 PUSH1 0x40 DUP4 DUP6 SUB SLT ISZERO PUSH2 0xD4F JUMPI PUSH2 0xD4E PUSH2 0xCA4 JUMP JUMPDEST JUMPDEST PUSH0 PUSH2 0xD5C DUP6 DUP3 DUP7 ADD PUSH2 0xCF2 JUMP JUMPDEST SWAP3 POP POP PUSH1 0x20 PUSH2 0xD6D DUP6 DUP3 DUP7 ADD PUSH2 0xD25 JUMP JUMPDEST SWAP2 POP POP SWAP3 POP SWAP3 SWAP1 POP JUMP JUMPDEST PUSH0 PUSH1 0x20 DUP3 DUP5 SUB SLT ISZERO PUSH2 0xD8C JUMPI PUSH2 0xD8B PUSH2 0xCA4 JUMP JUMPDEST JUMPDEST PUSH0 PUSH2 0xD99 DUP5 DUP3 DUP6 ADD PUSH2 0xCF2 JUMP JUMPDEST SWAP2 POP POP SWAP3 SWAP2 POP POP JUMP JUMPDEST PUSH2 0xDAB DUP2 PUSH2 0xCCB JUMP JUMPDEST DUP3 MSTORE POP POP JUMP JUMPDEST PUSH2 0xDBA DUP2 PUSH2 0xD06 JUMP JUMPDEST DUP3 MSTORE POP POP JUMP JUMPDEST PUSH0 PUSH1 0x40 DUP3 ADD SWAP1 POP PUSH2 0xDD3 PUSH0 DUP4 ADD DUP6 PUSH2 0xDA2 JUMP JUMPDEST PUSH2 0xDE0 PUSH1 0x20 DUP4 ADD DUP5 PUSH2 0xDB1 JUMP JUMPDEST SWAP4 SWAP3 POP POP POP JUMP JUMPDEST PUSH0 DUP1 REVERT JUMPDEST PUSH0 DUP1 REVERT JUMPDEST PUSH0 PUSH1 0x1F NOT PUSH1 0x1F DUP4 ADD AND SWAP1 POP SWAP2 SWAP1 POP JUMP JUMPDEST PUSH32 0x4E487B7100000000000000000000000000000000000000000000000000000000 PUSH0 MSTORE PUSH1 0x41 PUSH1 0x4 MSTORE PUSH1 0x24 PUSH0 REVERT JUMPDEST PUSH2 0xE35 DUP3 PUSH2 0xDEF JUMP JUMPDEST DUP2 ADD DUP2 DUP2 LT PUSH8 0xFFFFFFFFFFFFFFFF DUP3 GT OR ISZERO PUSH2 0xE54 JUMPI PUSH2 0xE53 PUSH2 0xDFF JUMP JUMPDEST JUMPDEST DUP1 PUSH1 0x40 MSTORE POP POP POP JUMP JUMPDEST PUSH0 PUSH2 0xE66 PUSH2 0xC9B JUMP JUMPDEST SWAP1 POP PUSH2 0xE72 DUP3 DUP3 PUSH2 0xE2C JUMP JUMPDEST SWAP2 SWAP1 POP JUMP JUMPDEST PUSH0 PUSH8 0xFFFFFFFFFFFFFFFF DUP3 GT ISZERO PUSH2 0xE91 JUMPI PUSH2 0xE90 PUSH2 0xDFF JUMP JUMPDEST JUMPDEST PUSH2 0xE9A DUP3 PUSH2 0xDEF JUMP JUMPDEST SWAP1 POP PUSH1 0x20 DUP2 ADD SWAP1 POP SWAP2 SWAP1 POP JUMP JUMPDEST DUP3 DUP2 DUP4 CALLDATACOPY PUSH0 DUP4 DUP4 ADD MSTORE POP POP POP JUMP JUMPDEST PUSH0 PUSH2 0xEC7 PUSH2 0xEC2 DUP5 PUSH2 0xE77 JUMP JUMPDEST PUSH2 0xE5D JUMP JUMPDEST SWAP1 POP DUP3 DUP2 MSTORE PUSH1 0x20 DUP2 ADD DUP5 DUP5 DUP5 ADD GT ISZERO PUSH2 0xEE3 JUMPI PUSH2 0xEE2 PUSH2 0xDEB JUMP JUMPDEST JUMPDEST PUSH2 0xEEE DUP5 DUP3 DUP6 PUSH2 0xEA7 JUMP JUMPDEST POP SWAP4 SWAP3 POP POP POP JUMP JUMPDEST PUSH0 DUP3 PUSH1 0x1F DUP4 ADD SLT PUSH2 0xF0A JUMPI PUSH2 0xF09 PUSH2 0xDE7 JUMP JUMPDEST JUMPDEST DUP2 CALLDATALOAD PUSH2 0xF1A DUP5 DUP3 PUSH1 0x20 DUP7 ADD PUSH2 0xEB5 JUMP JUMPDEST SWAP2 POP POP SWAP3 SWAP2 POP POP JUMP JUMPDEST PUSH0 DUP1 PUSH1 0x40 DUP4 DUP6 SUB SLT ISZERO PUSH2 0xF39 JUMPI PUSH2 0xF38 PUSH2 0xCA4 JUMP JUMPDEST JUMPDEST PUSH0 DUP4 ADD CALLDATALOAD PUSH8 0xFFFFFFFFFFFFFFFF DUP2 GT ISZERO PUSH2 0xF56 JUMPI PUSH2 0xF55 PUSH2 0xCA8 JUMP JUMPDEST JUMPDEST PUSH2 0xF62 DUP6 DUP3 DUP7 ADD PUSH2 0xEF6 JUMP JUMPDEST SWAP3 POP POP PUSH1 0x20 PUSH2 0xF73 DUP6 DUP3 DUP7 ADD PUSH2 0xD25 JUMP JUMPDEST SWAP2 POP POP SWAP3 POP SWAP3 SWAP1 POP JUMP JUMPDEST PUSH0 PUSH1 0x20 DUP3 ADD SWAP1 POP PUSH2 0xF90 PUSH0 DUP4 ADD DUP5 PUSH2 0xDA2 JUMP JUMPDEST SWAP3 SWAP2 POP POP JUMP JUMPDEST PUSH0 DUP1 PUSH1 0x40 DUP4 DUP6 SUB SLT ISZERO PUSH2 0xFAC JUMPI PUSH2 0xFAB PUSH2 0xCA4 JUMP JUMPDEST JUMPDEST PUSH0 PUSH2 0xFB9 DUP6 DUP3 DUP7 ADD PUSH2 0xCF2 JUMP JUMPDEST SWAP3 POP POP PUSH1 0x20 DUP4 ADD CALLDATALOAD PUSH8 0xFFFFFFFFFFFFFFFF DUP2 GT ISZERO PUSH2 0xFDA JUMPI PUSH2 0xFD9 PUSH2 0xCA8 JUMP JUMPDEST JUMPDEST PUSH2 0xFE6 DUP6 DUP3 DUP7 ADD PUSH2 0xEF6 JUMP JUMPDEST SWAP2 POP POP SWAP3 POP SWAP3 SWAP1 POP JUMP JUMPDEST PUSH0 DUP1 PUSH0 DUP1 PUSH1 0x80 DUP6 DUP8 SUB SLT ISZERO PUSH2 0x1008 JUMPI PUSH2 0x1007 PUSH2 0xCA4 JUMP JUMPDEST JUMPDEST PUSH0 PUSH2 0x1015 DUP8 DUP3 DUP9 ADD PUSH2 0xCF2 JUMP JUMPDEST SWAP5 POP POP PUSH1 0x20 DUP6 ADD CALLDATALOAD PUSH8 0xFFFFFFFFFFFFFFFF DUP2 GT ISZERO PUSH2 0x1036 JUMPI PUSH2 0x1035 PUSH2 0xCA8 JUMP JUMPDEST JUMPDEST PUSH2 0x1042 DUP8 DUP3 DUP9 ADD PUSH2 0xEF6 JUMP JUMPDEST SWAP4 POP POP PUSH1 0x40 DUP6 ADD CALLDATALOAD PUSH8 0xFFFFFFFFFFFFFFFF DUP2 GT ISZERO PUSH2 0x1063 JUMPI PUSH2 0x1062 PUSH2 0xCA8 JUMP JUMPDEST JUMPDEST PUSH2 0x106F DUP8 DUP3 DUP9 ADD PUSH2 0xEF6 JUMP JUMPDEST SWAP3 POP POP PUSH1 0x60 PUSH2 0x1080 DUP8 DUP3 DUP9 ADD PUSH2 0xD25 JUMP JUMPDEST SWAP2 POP POP SWAP3 SWAP6 SWAP2 SWAP5 POP SWAP3 POP JUMP JUMPDEST PUSH0 PUSH1 0x20 DUP3 DUP5 SUB SLT ISZERO PUSH2 0x10A1 JUMPI PUSH2 0x10A0 PUSH2 0xCA4 JUMP JUMPDEST JUMPDEST PUSH0 PUSH2 0x10AE DUP5 DUP3 DUP6 ADD PUSH2 0xD25 JUMP JUMPDEST SWAP2 POP POP SWAP3 SWAP2 POP POP JUMP JUMPDEST PUSH0 DUP2 MLOAD SWAP1 POP SWAP2 SWAP1 POP JUMP JUMPDEST PUSH0 DUP3 DUP3 MSTORE PUSH1 0x20 DUP3 ADD SWAP1 POP SWAP3 SWAP2 POP POP JUMP JUMPDEST PUSH0 DUP2 SWAP1 POP PUSH1 0x20 DUP3 ADD SWAP1 POP SWAP2 SWAP1 POP JUMP JUMPDEST PUSH2 0x10E9 DUP2 PUSH2 0xCCB JUMP JUMPDEST DUP3 MSTORE POP POP JUMP JUMPDEST PUSH0 PUSH2 0x10FA DUP4 DUP4 PUSH2 0x10E0 JUMP JUMPDEST PUSH1 0x20 DUP4 ADD SWAP1 POP SWAP3 SWAP2 POP POP JUMP JUMPDEST PUSH0 PUSH1 0x20 DUP3 ADD SWAP1 POP SWAP2 SWAP1 POP JUMP JUMPDEST PUSH0 PUSH2 0x111C DUP3 PUSH2 0x10B7 JUMP JUMPDEST PUSH2 0x1126 DUP2 DUP6 PUSH2 0x10C1 JUMP JUMPDEST SWAP4 POP PUSH2 0x1131 DUP4 PUSH2 0x10D1 JUMP JUMPDEST DUP1 PUSH0 JUMPDEST DUP4 DUP2 LT ISZERO PUSH2 0x1161 JUMPI DUP2 MLOAD PUSH2 0x1148 DUP9 DUP3 PUSH2 0x10EF JUMP JUMPDEST SWAP8 POP PUSH2 0x1153 DUP4 PUSH2 0x1106 JUMP JUMPDEST SWAP3 POP POP PUSH1 0x1 DUP2 ADD SWAP1 POP PUSH2 0x1134 JUMP JUMPDEST POP DUP6 SWAP4 POP POP POP POP SWAP3 SWAP2 POP POP JUMP JUMPDEST PUSH0 PUSH1 0x20 DUP3 ADD SWAP1 POP DUP2 DUP2 SUB PUSH0 DUP4 ADD MSTORE PUSH2 0x1186 DUP2 DUP5 PUSH2 0x1112 JUMP JUMPDEST SWAP1 POP SWAP3 SWAP2 POP POP JUMP JUMPDEST PUSH2 0x1197 DUP2 PUSH2 0xD06 JUMP JUMPDEST DUP3 MSTORE POP POP JUMP JUMPDEST PUSH1 0x40 DUP3 ADD PUSH0 DUP3 ADD MLOAD PUSH2 0x11B1 PUSH0 DUP6 ADD DUP3 PUSH2 0x10E0 JUMP JUMPDEST POP PUSH1 0x20 DUP3 ADD MLOAD PUSH2 0x11C4 PUSH1 0x20 DUP6 ADD DUP3 PUSH2 0x118E JUMP JUMPDEST POP POP POP POP JUMP JUMPDEST PUSH0 PUSH1 0x40 DUP3 ADD SWAP1 POP PUSH2 0x11DD PUSH0 DUP4 ADD DUP5 PUSH2 0x119D JUMP JUMPDEST SWAP3 SWAP2 POP POP JUMP JUMPDEST PUSH0 PUSH1 0x20 DUP3 DUP5 SUB SLT ISZERO PUSH2 0x11F8 JUMPI PUSH2 0x11F7 PUSH2 0xCA4 JUMP JUMPDEST JUMPDEST PUSH0 DUP3 ADD CALLDATALOAD PUSH8 0xFFFFFFFFFFFFFFFF DUP2 GT ISZERO PUSH2 0x1215 JUMPI PUSH2 0x1214 PUSH2 0xCA8 JUMP JUMPDEST JUMPDEST PUSH2 0x1221 DUP5 DUP3 DUP6 ADD PUSH2 0xEF6 JUMP JUMPDEST SWAP2 POP POP SWAP3 SWAP2 POP POP JUMP JUMPDEST PUSH0 DUP3 DUP3 MSTORE PUSH1 0x20 DUP3 ADD SWAP1 POP SWAP3 SWAP2 POP POP JUMP JUMPDEST PUSH32 0x4E6F646520616C72656164792065786973747300000000000000000000000000 PUSH0 DUP3 ADD MSTORE POP JUMP JUMPDEST PUSH0 PUSH2 0x126E PUSH1 0x13 DUP4 PUSH2 0x122A JUMP JUMPDEST SWAP2 POP PUSH2 0x1279 DUP3 PUSH2 0x123A JUMP JUMPDEST PUSH1 0x20 DUP3 ADD SWAP1 POP SWAP2 SWAP1 POP JUMP JUMPDEST PUSH0 PUSH1 0x20 DUP3 ADD SWAP1 POP DUP2 DUP2 SUB PUSH0 DUP4 ADD MSTORE PUSH2 0x129B DUP2 PUSH2 0x1262 JUMP JUMPDEST SWAP1 POP SWAP2 SWAP1 POP JUMP JUMPDEST PUSH32 0x4E6F646520646F6573206E6F7420657869737400000000000000000000000000 PUSH0 DUP3 ADD MSTORE POP JUMP JUMPDEST PUSH0 PUSH2 0x12D6 PUSH1 0x13 DUP4 PUSH2 0x122A JUMP JUMPDEST SWAP2 POP PUSH2 0x12E1 DUP3 PUSH2 0x12A2 JUMP JUMPDEST PUSH1 0x20 DUP3 ADD SWAP1 POP SWAP2 SWAP1 POP JUMP JUMPDEST PUSH0 PUSH1 0x20 DUP3 ADD SWAP1 POP DUP2 DUP2 SUB PUSH0 DUP4 ADD MSTORE PUSH2 0x1303 DUP2 PUSH2 0x12CA JUMP JUMPDEST SWAP1 POP SWAP2 SWAP1 POP JUMP JUMPDEST PUSH0 DUP2 MLOAD SWAP1 POP SWAP2 SWAP1 POP JUMP JUMPDEST PUSH0 DUP2 SWAP1 POP SWAP3 SWAP2 POP POP JUMP JUMPDEST PUSH0 JUMPDEST DUP4 DUP2 LT ISZERO PUSH2 0x133B JUMPI DUP1 DUP3 ADD MLOAD DUP2 DUP5 ADD MSTORE PUSH1 0x20 DUP2 ADD SWAP1 POP PUSH2 0x1320 JUMP JUMPDEST PUSH0 DUP5 DUP5 ADD MSTORE POP POP POP POP JUMP JUMPDEST PUSH0 PUSH2 0x1350 DUP3 PUSH2 0x130A JUMP JUMPDEST PUSH2 0x135A DUP2 DUP6 PUSH2 0x1314 JUMP JUMPDEST SWAP4 POP PUSH2 0x136A DUP2 DUP6 PUSH1 0x20 DUP7 ADD PUSH2 0x131E JUMP JUMPDEST DUP1 DUP5 ADD SWAP2 POP POP SWAP3 SWAP2 POP POP JUMP JUMPDEST PUSH0 PUSH2 0x1381 DUP3 DUP5 PUSH2 0x1346 JUMP JUMPDEST SWAP2 POP DUP2 SWAP1 POP SWAP3 SWAP2 POP POP JUMP JUMPDEST PUSH32 0x4E487B7100000000000000000000000000000000000000000000000000000000 PUSH0 MSTORE PUSH1 0x11 PUSH1 0x4 MSTORE PUSH1 0x24 PUSH0 REVERT JUMPDEST PUSH0 PUSH2 0x13C3 DUP3 PUSH2 0xD06 JUMP JUMPDEST SWAP2 POP PUSH2 0x13CE DUP4 PUSH2 0xD06 JUMP JUMPDEST SWAP3 POP DUP3 DUP3 SUB SWAP1 POP DUP2 DUP2 GT ISZERO PUSH2 0x13E6 JUMPI PUSH2 0x13E5 PUSH2 0x138C JUMP JUMPDEST JUMPDEST SWAP3 SWAP2 POP POP JUMP JUMPDEST PUSH32 0x4E487B7100000000000000000000000000000000000000000000000000000000 PUSH0 MSTORE PUSH1 0x12 PUSH1 0x4 MSTORE PUSH1 0x24 PUSH0 REVERT JUMPDEST PUSH0 PUSH2 0x1423 DUP3 PUSH2 0xD06 JUMP JUMPDEST SWAP2 POP PUSH2 0x142E DUP4 PUSH2 0xD06 JUMP JUMPDEST SWAP3 POP DUP3 PUSH2 0x143E JUMPI PUSH2 0x143D PUSH2 0x13EC JUMP JUMPDEST JUMPDEST DUP3 DUP3 MOD SWAP1 POP SWAP3 SWAP2 POP POP JUMP JUMPDEST PUSH0 PUSH2 0x1453 DUP3 PUSH2 0xD06 JUMP JUMPDEST SWAP2 POP PUSH2 0x145E DUP4 PUSH2 0xD06 JUMP JUMPDEST SWAP3 POP DUP3 DUP3 ADD SWAP1 POP DUP1 DUP3 GT ISZERO PUSH2 0x1476 JUMPI PUSH2 0x1475 PUSH2 0x138C JUMP JUMPDEST JUMPDEST SWAP3 SWAP2 POP POP JUMP JUMPDEST PUSH32 0x4E487B7100000000000000000000000000000000000000000000000000000000 PUSH0 MSTORE PUSH1 0x32 PUSH1 0x4 MSTORE PUSH1 0x24 PUSH0 REVERT JUMPDEST PUSH0 PUSH1 0x20 DUP3 ADD SWAP1 POP PUSH2 0x14BC PUSH0 DUP4 ADD DUP5 PUSH2 0xDB1 JUMP JUMPDEST SWAP3 SWAP2 POP POP JUMP INVALID LOG2 PUSH5 0x6970667358 0x22 SLT KECCAK256 CODESIZE PUSH7 0xBB2B09A14814C0 CODESIZE 0x49 STATICCALL LOG2 SWAP2 PUSH29 0x55FB765E7A909AF00A7F72559F08985AE64736F6C6343000816003300 "
				},
				"gasEstimates": {
					"creation": {
						"codeDepositCost": "1073600",
						"executionCost": "1112",
						"totalCost": "1074712"
					},
					"external": {
						"addNode(address,uint256)": "infinite",
						"allNodes(uint256)": "5032",
						"deleteChunkInNode(address,string)": "infinite",
						"findAvailableNode(uint256)": "infinite",
						"getAllNodes()": "infinite",
						"getNodeByAddress(address)": "infinite",
						"nodeChunksAddresses(string,uint256)": "infinite",
						"nodes(address)": "infinite",
						"retrieveChunkNodeAddresses(string)": "infinite",
						"storeChunkInNode(address,string,string,uint256)": "infinite"
					},
					"internal": {
						"isAddressPresent(address,address[] memory)": "infinite",
						"updateAvailableStorage(address,uint256)": "infinite"
					}
				},
				"methodIdentifiers": {
					"addNode(address,uint256)": "11bd77fe",
					"allNodes(uint256)": "fe72ae13",
					"deleteChunkInNode(address,string)": "50f1c985",
					"findAvailableNode(uint256)": "64f0c0b8",
					"getAllNodes()": "a1174e7d",
					"getNodeByAddress(address)": "a9860308",
					"nodeChunksAddresses(string,uint256)": "30e00c9b",
					"nodes(address)": "189a5a17",
					"retrieveChunkNodeAddresses(string)": "b23793d6",
					"storeChunkInNode(address,string,string,uint256)": "5d44762b"
				}
			},
			"storageLayout": {
				"storage": [
					{
						"astId": 23,
						"contract": "contracts/_NodeManager.sol:NodeManager",
						"label": "nodes",
						"offset": 0,
						"slot": "0",
						"type": "t_mapping(t_address,t_struct(Node)6_storage)"
					},
					{
						"astId": 28,
						"contract": "contracts/_NodeManager.sol:NodeManager",
						"label": "nodeChunksAddresses",
						"offset": 0,
						"slot": "1",
						"type": "t_mapping(t_string_memory_ptr,t_array(t_address)dyn_storage)"
					},
					{
						"astId": 31,
						"contract": "contracts/_NodeManager.sol:NodeManager",
						"label": "allNodes",
						"offset": 0,
						"slot": "2",
						"type": "t_array(t_address)dyn_storage"
					}
				],
				"types": {
					"t_address": {
						"encoding": "inplace",
						"label": "address",
						"numberOfBytes": "20"
					},
					"t_array(t_address)dyn_storage": {
						"base": "t_address",
						"encoding": "dynamic_array",
						"label": "address[]",
						"numberOfBytes": "32"
					},
					"t_mapping(t_address,t_struct(Node)6_storage)": {
						"encoding": "mapping",
						"key": "t_address",
						"label": "mapping(address => struct NodeManager.Node)",
						"numberOfBytes": "32",
						"value": "t_struct(Node)6_storage"
					},
					"t_mapping(t_string_memory_ptr,t_array(t_address)dyn_storage)": {
						"encoding": "mapping",
						"key": "t_string_memory_ptr",
						"label": "mapping(string => address[])",
						"numberOfBytes": "32",
						"value": "t_array(t_address)dyn_storage"
					},
					"t_string_memory_ptr": {
						"encoding": "bytes",
						"label": "string",
						"numberOfBytes": "32"
					},
					"t_struct(Node)6_storage": {
						"encoding": "inplace",
						"label": "struct NodeManager.Node",
						"members": [
							{
								"astId": 3,
								"contract": "contracts/_NodeManager.sol:NodeManager",
								"label": "nodeAddress",
								"offset": 0,
								"slot": "0",
								"type": "t_address"
							},
							{
								"astId": 5,
								"contract": "contracts/_NodeManager.sol:NodeManager",
								"label": "availableStorage",
								"offset": 0,
								"slot": "1",
								"type": "t_uint256"
							}
						],
						"numberOfBytes": "64"
					},
					"t_uint256": {
						"encoding": "inplace",
						"label": "uint256",
						"numberOfBytes": "32"
					}
				}
			},
			"userdoc": {
				"kind": "user",
				"methods": {},
				"version": 1
			}
		}
	}
}