{
	"contracts/_FileStorage.sol": {
		"FileStorageManager": {
			"abi": [
				{
					"inputs": [],
					"stateMutability": "nonpayable",
					"type": "constructor"
				},
				{
					"inputs": [
						{
							"internalType": "address",
							"name": "_nodeAddress",
							"type": "address"
						},
						{
							"internalType": "uint256",
							"name": "_initialStorage",
							"type": "uint256"
						}
					],
					"name": "addNode",
					"outputs": [],
					"stateMutability": "nonpayable",
					"type": "function"
				},
				{
					"inputs": [
						{
							"internalType": "uint256",
							"name": "",
							"type": "uint256"
						}
					],
					"name": "allNodes",
					"outputs": [
						{
							"internalType": "address",
							"name": "",
							"type": "address"
						}
					],
					"stateMutability": "view",
					"type": "function"
				},
				{
					"inputs": [
						{
							"internalType": "string",
							"name": "fileId",
							"type": "string"
						}
					],
					"name": "deleteFile",
					"outputs": [],
					"stateMutability": "nonpayable",
					"type": "function"
				},
				{
					"inputs": [],
					"name": "getAllNodes",
					"outputs": [
						{
							"internalType": "address[]",
							"name": "",
							"type": "address[]"
						}
					],
					"stateMutability": "view",
					"type": "function"
				},
				{
					"inputs": [
						{
							"internalType": "address",
							"name": "",
							"type": "address"
						}
					],
					"name": "nodes",
					"outputs": [
						{
							"internalType": "address",
							"name": "nodeAddress",
							"type": "address"
						},
						{
							"internalType": "uint256",
							"name": "availableStorage",
							"type": "uint256"
						}
					],
					"stateMutability": "view",
					"type": "function"
				},
				{
					"inputs": [],
					"name": "owner",
					"outputs": [
						{
							"internalType": "address",
							"name": "",
							"type": "address"
						}
					],
					"stateMutability": "view",
					"type": "function"
				},
				{
					"inputs": [
						{
							"internalType": "string",
							"name": "fileId",
							"type": "string"
						}
					],
					"name": "retrieveFile",
					"outputs": [
						{
							"internalType": "string",
							"name": "",
							"type": "string"
						}
					],
					"stateMutability": "view",
					"type": "function"
				},
				{
					"inputs": [
						{
							"internalType": "address",
							"name": "_nodeAddress",
							"type": "address"
						},
						{
							"internalType": "string",
							"name": "_chunk",
							"type": "string"
						}
					],
					"name": "storeChunkInNode",
					"outputs": [],
					"stateMutability": "nonpayable",
					"type": "function"
				},
				{
					"inputs": [
						{
							"internalType": "string",
							"name": "fileName",
							"type": "string"
						},
						{
							"internalType": "string",
							"name": "content",
							"type": "string"
						},
						{
							"internalType": "string",
							"name": "uniqueId",
							"type": "string"
						}
					],
					"name": "storeFile",
					"outputs": [],
					"stateMutability": "nonpayable",
					"type": "function"
				},
				{
					"inputs": [
						{
							"internalType": "address",
							"name": "_nodeAddress",
							"type": "address"
						},
						{
							"internalType": "uint256",
							"name": "_newStorage",
							"type": "uint256"
						}
					],
					"name": "updateAvailableStorage",
					"outputs": [],
					"stateMutability": "nonpayable",
					"type": "function"
				}
			],
			"devdoc": {
				"kind": "dev",
				"methods": {},
				"version": 1
			},
			"evm": {
				"assembly": "    /* \"contracts/_FileStorage.sol\":127:2789  contract FileStorageManager is ChunkManager, NodeManager {... */\n  mstore(0x40, 0x80)\n    /* \"contracts/_FileStorage.sol\":727:792  constructor() NodeManager() {... */\n  callvalue\n  dup1\n  iszero\n  tag_1\n  jumpi\n  0x00\n  dup1\n  revert\ntag_1:\n  pop\n    /* \"contracts/_FileStorage.sol\":774:784  msg.sender */\n  caller\n    /* \"contracts/_FileStorage.sol\":766:771  owner */\n  0x02\n  0x00\n    /* \"contracts/_FileStorage.sol\":766:784  owner = msg.sender */\n  0x0100\n  exp\n  dup2\n  sload\n  dup2\n  0xffffffffffffffffffffffffffffffffffffffff\n  mul\n  not\n  and\n  swap1\n  dup4\n  0xffffffffffffffffffffffffffffffffffffffff\n  and\n  mul\n  or\n  swap1\n  sstore\n  pop\n    /* \"contracts/_FileStorage.sol\":127:2789  contract FileStorageManager is ChunkManager, NodeManager {... */\n  dataSize(sub_0)\n  dup1\n  dataOffset(sub_0)\n  0x00\n  codecopy\n  0x00\n  return\nstop\n\nsub_0: assembly {\n        /* \"contracts/_FileStorage.sol\":127:2789  contract FileStorageManager is ChunkManager, NodeManager {... */\n      mstore(0x40, 0x80)\n      callvalue\n      dup1\n      iszero\n      tag_1\n      jumpi\n      0x00\n      dup1\n      revert\n    tag_1:\n      pop\n      jumpi(tag_2, lt(calldatasize, 0x04))\n      shr(0xe0, calldataload(0x00))\n      dup1\n      0xa1174e7d\n      gt\n      tag_13\n      jumpi\n      dup1\n      0xa1174e7d\n      eq\n      tag_8\n      jumpi\n      dup1\n      0xa9910054\n      eq\n      tag_9\n      jumpi\n      dup1\n      0xb49f33c8\n      eq\n      tag_10\n      jumpi\n      dup1\n      0xb65814a6\n      eq\n      tag_11\n      jumpi\n      dup1\n      0xfe72ae13\n      eq\n      tag_12\n      jumpi\n      jump(tag_2)\n    tag_13:\n      dup1\n      0x11bd77fe\n      eq\n      tag_3\n      jumpi\n      dup1\n      0x189a5a17\n      eq\n      tag_4\n      jumpi\n      dup1\n      0x2804401c\n      eq\n      tag_5\n      jumpi\n      dup1\n      0x7dd77d2b\n      eq\n      tag_6\n      jumpi\n      dup1\n      0x8da5cb5b\n      eq\n      tag_7\n      jumpi\n    tag_2:\n      0x00\n      dup1\n      revert\n        /* \"contracts/_NodeManager.sol\":263:536  function addNode(address _nodeAddress, uint256 _initialStorage) public {... */\n    tag_3:\n      tag_14\n      0x04\n      dup1\n      calldatasize\n      sub\n      dup2\n      add\n      swap1\n      tag_15\n      swap2\n      swap1\n      tag_16\n      jump\t// in\n    tag_15:\n      tag_17\n      jump\t// in\n    tag_14:\n      stop\n        /* \"contracts/_NodeManager.sol\":185:222  mapping(address => Node) public nodes */\n    tag_4:\n      tag_18\n      0x04\n      dup1\n      calldatasize\n      sub\n      dup2\n      add\n      swap1\n      tag_19\n      swap2\n      swap1\n      tag_20\n      jump\t// in\n    tag_19:\n      tag_21\n      jump\t// in\n    tag_18:\n      mload(0x40)\n      tag_22\n      swap3\n      swap2\n      swap1\n      tag_23\n      jump\t// in\n    tag_22:\n      mload(0x40)\n      dup1\n      swap2\n      sub\n      swap1\n      return\n        /* \"contracts/_FileStorage.sol\":1849:2353  function retrieveFile(string memory fileId) public view returns (string memory) {... */\n    tag_5:\n      tag_24\n      0x04\n      dup1\n      calldatasize\n      sub\n      dup2\n      add\n      swap1\n      tag_25\n      swap2\n      swap1\n      tag_26\n      jump\t// in\n    tag_25:\n      tag_27\n      jump\t// in\n    tag_24:\n      mload(0x40)\n      tag_28\n      swap2\n      swap1\n      tag_29\n      jump\t// in\n    tag_28:\n      mload(0x40)\n      dup1\n      swap2\n      sub\n      swap1\n      return\n        /* \"contracts/_FileStorage.sol\":800:1841  function storeFile(string memory fileName, string memory content, string memory uniqueId) public {... */\n    tag_6:\n      tag_30\n      0x04\n      dup1\n      calldatasize\n      sub\n      dup2\n      add\n      swap1\n      tag_31\n      swap2\n      swap1\n      tag_32\n      jump\t// in\n    tag_31:\n      tag_33\n      jump\t// in\n    tag_30:\n      stop\n        /* \"contracts/_FileStorage.sol\":191:211  address public owner */\n    tag_7:\n      tag_34\n      tag_35\n      jump\t// in\n    tag_34:\n      mload(0x40)\n      tag_36\n      swap2\n      swap1\n      tag_37\n      jump\t// in\n    tag_36:\n      mload(0x40)\n      dup1\n      swap2\n      sub\n      swap1\n      return\n        /* \"contracts/_NodeManager.sol\":928:1024  function getAllNodes() public view returns (address[] memory) {... */\n    tag_8:\n      tag_38\n      tag_39\n      jump\t// in\n    tag_38:\n      mload(0x40)\n      tag_40\n      swap2\n      swap1\n      tag_41\n      jump\t// in\n    tag_40:\n      mload(0x40)\n      dup1\n      swap2\n      sub\n      swap1\n      return\n        /* \"contracts/_FileStorage.sol\":2361:2786  function deleteFile(string memory fileId) public {... */\n    tag_9:\n      tag_42\n      0x04\n      dup1\n      calldatasize\n      sub\n      dup2\n      add\n      swap1\n      tag_43\n      swap2\n      swap1\n      tag_26\n      jump\t// in\n    tag_43:\n      tag_44\n      jump\t// in\n    tag_42:\n      stop\n        /* \"contracts/_NodeManager.sol\":544:783  function updateAvailableStorage(address _nodeAddress, uint256 _newStorage) public {... */\n    tag_10:\n      tag_45\n      0x04\n      dup1\n      calldatasize\n      sub\n      dup2\n      add\n      swap1\n      tag_46\n      swap2\n      swap1\n      tag_16\n      jump\t// in\n    tag_46:\n      tag_47\n      jump\t// in\n    tag_45:\n      stop\n        /* \"contracts/_NodeManager.sol\":791:918  function storeChunkInNode(address _nodeAddress, string memory _chunk) public {... */\n    tag_11:\n      tag_48\n      0x04\n      dup1\n      calldatasize\n      sub\n      dup2\n      add\n      swap1\n      tag_49\n      swap2\n      swap1\n      tag_50\n      jump\t// in\n    tag_49:\n      tag_51\n      jump\t// in\n    tag_48:\n      stop\n        /* \"contracts/_NodeManager.sol\":229:254  address[] public allNodes */\n    tag_12:\n      tag_52\n      0x04\n      dup1\n      calldatasize\n      sub\n      dup2\n      add\n      swap1\n      tag_53\n      swap2\n      swap1\n      tag_54\n      jump\t// in\n    tag_53:\n      tag_55\n      jump\t// in\n    tag_52:\n      mload(0x40)\n      tag_56\n      swap2\n      swap1\n      tag_37\n      jump\t// in\n    tag_56:\n      mload(0x40)\n      dup1\n      swap2\n      sub\n      swap1\n      return\n        /* \"contracts/_NodeManager.sol\":263:536  function addNode(address _nodeAddress, uint256 _initialStorage) public {... */\n    tag_17:\n        /* \"contracts/_NodeManager.sol\":396:397  0 */\n      0x00\n        /* \"contracts/_NodeManager.sol\":353:398  nodes[_nodeAddress].nodeAddress == address(0) */\n      0xffffffffffffffffffffffffffffffffffffffff\n      and\n        /* \"contracts/_NodeManager.sol\":353:358  nodes */\n      0x00\n        /* \"contracts/_NodeManager.sol\":353:372  nodes[_nodeAddress] */\n      dup1\n        /* \"contracts/_NodeManager.sol\":359:371  _nodeAddress */\n      dup5\n        /* \"contracts/_NodeManager.sol\":353:372  nodes[_nodeAddress] */\n      0xffffffffffffffffffffffffffffffffffffffff\n      and\n      0xffffffffffffffffffffffffffffffffffffffff\n      and\n      dup2\n      mstore\n      0x20\n      add\n      swap1\n      dup2\n      mstore\n      0x20\n      add\n      0x00\n      keccak256\n        /* \"contracts/_NodeManager.sol\":353:384  nodes[_nodeAddress].nodeAddress */\n      0x00\n      add\n      0x00\n      swap1\n      sload\n      swap1\n      0x0100\n      exp\n      swap1\n      div\n      0xffffffffffffffffffffffffffffffffffffffff\n      and\n        /* \"contracts/_NodeManager.sol\":353:398  nodes[_nodeAddress].nodeAddress == address(0) */\n      0xffffffffffffffffffffffffffffffffffffffff\n      and\n      eq\n        /* \"contracts/_NodeManager.sol\":345:422  require(nodes[_nodeAddress].nodeAddress == address(0), \"Node already exists\") */\n      tag_58\n      jumpi\n      mload(0x40)\n      0x08c379a000000000000000000000000000000000000000000000000000000000\n      dup2\n      mstore\n      0x04\n      add\n      tag_59\n      swap1\n      tag_60\n      jump\t// in\n    tag_59:\n      mload(0x40)\n      dup1\n      swap2\n      sub\n      swap1\n      revert\n    tag_58:\n        /* \"contracts/_NodeManager.sol\":455:490  Node(_nodeAddress, _initialStorage) */\n      mload(0x40)\n      dup1\n      0x40\n      add\n      0x40\n      mstore\n      dup1\n        /* \"contracts/_NodeManager.sol\":460:472  _nodeAddress */\n      dup4\n        /* \"contracts/_NodeManager.sol\":455:490  Node(_nodeAddress, _initialStorage) */\n      0xffffffffffffffffffffffffffffffffffffffff\n      and\n      dup2\n      mstore\n      0x20\n      add\n        /* \"contracts/_NodeManager.sol\":474:489  _initialStorage */\n      dup3\n        /* \"contracts/_NodeManager.sol\":455:490  Node(_nodeAddress, _initialStorage) */\n      dup2\n      mstore\n      pop\n        /* \"contracts/_NodeManager.sol\":433:438  nodes */\n      0x00\n        /* \"contracts/_NodeManager.sol\":433:452  nodes[_nodeAddress] */\n      dup1\n        /* \"contracts/_NodeManager.sol\":439:451  _nodeAddress */\n      dup5\n        /* \"contracts/_NodeManager.sol\":433:452  nodes[_nodeAddress] */\n      0xffffffffffffffffffffffffffffffffffffffff\n      and\n      0xffffffffffffffffffffffffffffffffffffffff\n      and\n      dup2\n      mstore\n      0x20\n      add\n      swap1\n      dup2\n      mstore\n      0x20\n      add\n      0x00\n      keccak256\n        /* \"contracts/_NodeManager.sol\":433:490  nodes[_nodeAddress] = Node(_nodeAddress, _initialStorage) */\n      0x00\n      dup3\n      add\n      mload\n      dup2\n      0x00\n      add\n      exp(0x0100, 0x00)\n      dup2\n      sload\n      dup2\n      0xffffffffffffffffffffffffffffffffffffffff\n      mul\n      not\n      and\n      swap1\n      dup4\n      0xffffffffffffffffffffffffffffffffffffffff\n      and\n      mul\n      or\n      swap1\n      sstore\n      pop\n      0x20\n      dup3\n      add\n      mload\n      dup2\n      0x01\n      add\n      sstore\n      swap1\n      pop\n      pop\n        /* \"contracts/_NodeManager.sol\":501:509  allNodes */\n      0x01\n        /* \"contracts/_NodeManager.sol\":515:527  _nodeAddress */\n      dup3\n        /* \"contracts/_NodeManager.sol\":501:528  allNodes.push(_nodeAddress) */\n      swap1\n      dup1\n      0x01\n      dup2\n      sload\n      add\n      dup1\n      dup3\n      sstore\n      dup1\n      swap2\n      pop\n      pop\n      0x01\n      swap1\n      sub\n      swap1\n      0x00\n      mstore\n      keccak256(0x00, 0x20)\n      add\n      0x00\n      swap1\n      swap2\n      swap1\n      swap2\n      swap1\n      swap2\n      0x0100\n      exp\n      dup2\n      sload\n      dup2\n      0xffffffffffffffffffffffffffffffffffffffff\n      mul\n      not\n      and\n      swap1\n      dup4\n      0xffffffffffffffffffffffffffffffffffffffff\n      and\n      mul\n      or\n      swap1\n      sstore\n      pop\n        /* \"contracts/_NodeManager.sol\":263:536  function addNode(address _nodeAddress, uint256 _initialStorage) public {... */\n      pop\n      pop\n      jump\t// out\n        /* \"contracts/_NodeManager.sol\":185:222  mapping(address => Node) public nodes */\n    tag_21:\n      mstore(0x20, 0x00)\n      dup1\n      0x00\n      mstore\n      keccak256(0x00, 0x40)\n      0x00\n      swap2\n      pop\n      swap1\n      pop\n      dup1\n      0x00\n      add\n      0x00\n      swap1\n      sload\n      swap1\n      0x0100\n      exp\n      swap1\n      div\n      0xffffffffffffffffffffffffffffffffffffffff\n      and\n      swap1\n      dup1\n      0x01\n      add\n      sload\n      swap1\n      pop\n      dup3\n      jump\t// out\n        /* \"contracts/_FileStorage.sol\":1849:2353  function retrieveFile(string memory fileId) public view returns (string memory) {... */\n    tag_27:\n        /* \"contracts/_FileStorage.sol\":1914:1927  string memory */\n      0x60\n        /* \"contracts/_FileStorage.sol\":1984:1985  0 */\n      0x00\n        /* \"contracts/_FileStorage.sol\":1948:1964  fileIdToMetadata */\n      0x03\n        /* \"contracts/_FileStorage.sol\":1965:1971  fileId */\n      dup4\n        /* \"contracts/_FileStorage.sol\":1948:1972  fileIdToMetadata[fileId] */\n      mload(0x40)\n      tag_63\n      swap2\n      swap1\n      tag_64\n      jump\t// in\n    tag_63:\n      swap1\n      dup2\n      mstore\n      0x20\n      add\n      mload(0x40)\n      dup1\n      swap2\n      sub\n      swap1\n      keccak256\n        /* \"contracts/_FileStorage.sol\":1948:1981  fileIdToMetadata[fileId].fileSize */\n      0x01\n      add\n      sload\n        /* \"contracts/_FileStorage.sol\":1948:1985  fileIdToMetadata[fileId].fileSize > 0 */\n      gt\n        /* \"contracts/_FileStorage.sol\":1940:2004  require(fileIdToMetadata[fileId].fileSize > 0, \"File not found\") */\n      tag_65\n      jumpi\n      mload(0x40)\n      0x08c379a000000000000000000000000000000000000000000000000000000000\n      dup2\n      mstore\n      0x04\n      add\n      tag_66\n      swap1\n      tag_67\n      jump\t// in\n    tag_66:\n      mload(0x40)\n      dup1\n      swap2\n      sub\n      swap1\n      revert\n    tag_65:\n        /* \"contracts/_FileStorage.sol\":2064:2086  string[] memory chunks */\n      0x00\n        /* \"contracts/_FileStorage.sol\":2089:2103  fileIdToChunks */\n      0x05\n        /* \"contracts/_FileStorage.sol\":2104:2110  fileId */\n      dup4\n        /* \"contracts/_FileStorage.sol\":2089:2111  fileIdToChunks[fileId] */\n      mload(0x40)\n      tag_68\n      swap2\n      swap1\n      tag_64\n      jump\t// in\n    tag_68:\n      swap1\n      dup2\n      mstore\n      0x20\n      add\n      mload(0x40)\n      dup1\n      swap2\n      sub\n      swap1\n      keccak256\n        /* \"contracts/_FileStorage.sol\":2064:2111  string[] memory chunks = fileIdToChunks[fileId] */\n      dup1\n      sload\n      dup1\n      0x20\n      mul\n      0x20\n      add\n      mload(0x40)\n      swap1\n      dup2\n      add\n      0x40\n      mstore\n      dup1\n      swap3\n      swap2\n      swap1\n      dup2\n      dup2\n      mstore\n      0x20\n      add\n      0x00\n      swap1\n    tag_69:\n      dup3\n      dup3\n      lt\n      iszero\n      tag_70\n      jumpi\n      dup4\n      dup3\n      swap1\n      0x00\n      mstore\n      keccak256(0x00, 0x20)\n      add\n      dup1\n      sload\n      tag_72\n      swap1\n      tag_73\n      jump\t// in\n    tag_72:\n      dup1\n      0x1f\n      add\n      0x20\n      dup1\n      swap2\n      div\n      mul\n      0x20\n      add\n      mload(0x40)\n      swap1\n      dup2\n      add\n      0x40\n      mstore\n      dup1\n      swap3\n      swap2\n      swap1\n      dup2\n      dup2\n      mstore\n      0x20\n      add\n      dup3\n      dup1\n      sload\n      tag_74\n      swap1\n      tag_73\n      jump\t// in\n    tag_74:\n      dup1\n      iszero\n      tag_75\n      jumpi\n      dup1\n      0x1f\n      lt\n      tag_76\n      jumpi\n      0x0100\n      dup1\n      dup4\n      sload\n      div\n      mul\n      dup4\n      mstore\n      swap2\n      0x20\n      add\n      swap2\n      jump(tag_75)\n    tag_76:\n      dup3\n      add\n      swap2\n      swap1\n      0x00\n      mstore\n      keccak256(0x00, 0x20)\n      swap1\n    tag_77:\n      dup2\n      sload\n      dup2\n      mstore\n      swap1\n      0x01\n      add\n      swap1\n      0x20\n      add\n      dup1\n      dup4\n      gt\n      tag_77\n      jumpi\n      dup3\n      swap1\n      sub\n      0x1f\n      and\n      dup3\n      add\n      swap2\n    tag_75:\n      pop\n      pop\n      pop\n      pop\n      pop\n      dup2\n      mstore\n      0x20\n      add\n      swap1\n      0x01\n      add\n      swap1\n      jump(tag_69)\n    tag_70:\n      pop\n      pop\n      pop\n      pop\n      swap1\n      pop\n        /* \"contracts/_FileStorage.sol\":2146:2147  0 */\n      0x00\n        /* \"contracts/_FileStorage.sol\":2130:2136  chunks */\n      dup2\n        /* \"contracts/_FileStorage.sol\":2130:2143  chunks.length */\n      mload\n        /* \"contracts/_FileStorage.sol\":2130:2147  chunks.length > 0 */\n      gt\n        /* \"contracts/_FileStorage.sol\":2122:2180  require(chunks.length > 0, \"No chunks found for the file\") */\n      tag_78\n      jumpi\n      mload(0x40)\n      0x08c379a000000000000000000000000000000000000000000000000000000000\n      dup2\n      mstore\n      0x04\n      add\n      tag_79\n      swap1\n      tag_80\n      jump\t// in\n    tag_79:\n      mload(0x40)\n      dup1\n      swap2\n      sub\n      swap1\n      revert\n    tag_78:\n        /* \"contracts/_FileStorage.sol\":2245:2278  string memory concatenatedContent */\n      0x00\n        /* \"contracts/_FileStorage.sol\":2281:2306  concatenateChunks(chunks) */\n      tag_81\n        /* \"contracts/_FileStorage.sol\":2299:2305  chunks */\n      dup3\n        /* \"contracts/_FileStorage.sol\":2281:2298  concatenateChunks */\n      tag_82\n        /* \"contracts/_FileStorage.sol\":2281:2306  concatenateChunks(chunks) */\n      jump\t// in\n    tag_81:\n        /* \"contracts/_FileStorage.sol\":2245:2306  string memory concatenatedContent = concatenateChunks(chunks) */\n      swap1\n      pop\n        /* \"contracts/_FileStorage.sol\":2326:2345  concatenatedContent */\n      dup1\n        /* \"contracts/_FileStorage.sol\":2319:2345  return concatenatedContent */\n      swap3\n      pop\n      pop\n      pop\n        /* \"contracts/_FileStorage.sol\":1849:2353  function retrieveFile(string memory fileId) public view returns (string memory) {... */\n      swap2\n      swap1\n      pop\n      jump\t// out\n        /* \"contracts/_FileStorage.sol\":800:1841  function storeFile(string memory fileName, string memory content, string memory uniqueId) public {... */\n    tag_33:\n        /* \"contracts/_FileStorage.sol\":908:924  uint256 fileSize */\n      0x00\n        /* \"contracts/_FileStorage.sol\":933:940  content */\n      dup3\n        /* \"contracts/_FileStorage.sol\":927:948  bytes(content).length */\n      mload\n        /* \"contracts/_FileStorage.sol\":908:948  uint256 fileSize = bytes(content).length */\n      swap1\n      pop\n        /* \"contracts/_FileStorage.sol\":990:1022  FileMetadata(fileName, fileSize) */\n      mload(0x40)\n      dup1\n      0x40\n      add\n      0x40\n      mstore\n      dup1\n        /* \"contracts/_FileStorage.sol\":1003:1011  fileName */\n      dup6\n        /* \"contracts/_FileStorage.sol\":990:1022  FileMetadata(fileName, fileSize) */\n      dup2\n      mstore\n      0x20\n      add\n        /* \"contracts/_FileStorage.sol\":1013:1021  fileSize */\n      dup3\n        /* \"contracts/_FileStorage.sol\":990:1022  FileMetadata(fileName, fileSize) */\n      dup2\n      mstore\n      pop\n        /* \"contracts/_FileStorage.sol\":961:977  fileIdToMetadata */\n      0x03\n        /* \"contracts/_FileStorage.sol\":978:986  uniqueId */\n      dup4\n        /* \"contracts/_FileStorage.sol\":961:987  fileIdToMetadata[uniqueId] */\n      mload(0x40)\n      tag_84\n      swap2\n      swap1\n      tag_64\n      jump\t// in\n    tag_84:\n      swap1\n      dup2\n      mstore\n      0x20\n      add\n      mload(0x40)\n      dup1\n      swap2\n      sub\n      swap1\n      keccak256\n        /* \"contracts/_FileStorage.sol\":961:1022  fileIdToMetadata[uniqueId] = FileMetadata(fileName, fileSize) */\n      0x00\n      dup3\n      add\n      mload\n      dup2\n      0x00\n      add\n      swap1\n      dup2\n      tag_85\n      swap2\n      swap1\n      tag_86\n      jump\t// in\n    tag_85:\n      pop\n      0x20\n      dup3\n      add\n      mload\n      dup2\n      0x01\n      add\n      sstore\n      swap1\n      pop\n      pop\n        /* \"contracts/_FileStorage.sol\":1089:1111  string[] memory chunks */\n      0x00\n        /* \"contracts/_FileStorage.sol\":1114:1135  chunkContent(content) */\n      tag_87\n        /* \"contracts/_FileStorage.sol\":1127:1134  content */\n      dup5\n        /* \"contracts/_FileStorage.sol\":1114:1126  chunkContent */\n      tag_88\n        /* \"contracts/_FileStorage.sol\":1114:1135  chunkContent(content) */\n      jump\t// in\n    tag_87:\n        /* \"contracts/_FileStorage.sol\":1089:1135  string[] memory chunks = chunkContent(content) */\n      swap1\n      pop\n        /* \"contracts/_FileStorage.sol\":1173:1179  chunks */\n      dup1\n        /* \"contracts/_FileStorage.sol\":1146:1160  fileIdToChunks */\n      0x05\n        /* \"contracts/_FileStorage.sol\":1161:1169  uniqueId */\n      dup5\n        /* \"contracts/_FileStorage.sol\":1146:1170  fileIdToChunks[uniqueId] */\n      mload(0x40)\n      tag_89\n      swap2\n      swap1\n      tag_64\n      jump\t// in\n    tag_89:\n      swap1\n      dup2\n      mstore\n      0x20\n      add\n      mload(0x40)\n      dup1\n      swap2\n      sub\n      swap1\n      keccak256\n        /* \"contracts/_FileStorage.sol\":1146:1179  fileIdToChunks[uniqueId] = chunks */\n      swap1\n      dup1\n      mload\n      swap1\n      0x20\n      add\n      swap1\n      tag_90\n      swap3\n      swap2\n      swap1\n      tag_91\n      jump\t// in\n    tag_90:\n      pop\n        /* \"contracts/_FileStorage.sol\":1265:1274  uint256 i */\n      0x00\n        /* \"contracts/_FileStorage.sol\":1260:1834  for (uint256 i = 0; i < chunks.length; i++) {... */\n    tag_92:\n        /* \"contracts/_FileStorage.sol\":1284:1290  chunks */\n      dup2\n        /* \"contracts/_FileStorage.sol\":1284:1297  chunks.length */\n      mload\n        /* \"contracts/_FileStorage.sol\":1280:1281  i */\n      dup2\n        /* \"contracts/_FileStorage.sol\":1280:1297  i < chunks.length */\n      lt\n        /* \"contracts/_FileStorage.sol\":1260:1834  for (uint256 i = 0; i < chunks.length; i++) {... */\n      iszero\n      tag_93\n      jumpi\n        /* \"contracts/_FileStorage.sol\":1319:1336  uint256 chunkSize */\n      0x00\n        /* \"contracts/_FileStorage.sol\":1345:1351  chunks */\n      dup3\n        /* \"contracts/_FileStorage.sol\":1352:1353  i */\n      dup3\n        /* \"contracts/_FileStorage.sol\":1345:1354  chunks[i] */\n      dup2\n      mload\n      dup2\n      lt\n      tag_95\n      jumpi\n      tag_96\n      tag_97\n      jump\t// in\n    tag_96:\n    tag_95:\n      0x20\n      mul\n      0x20\n      add\n      add\n      mload\n        /* \"contracts/_FileStorage.sol\":1339:1362  bytes(chunks[i]).length */\n      mload\n        /* \"contracts/_FileStorage.sol\":1319:1362  uint256 chunkSize = bytes(chunks[i]).length */\n      swap1\n      pop\n        /* \"contracts/_FileStorage.sol\":1377:1404  address selectedNodeAddress */\n      0x00\n        /* \"contracts/_FileStorage.sol\":1407:1435  findAvailableNode(chunkSize) */\n      tag_98\n        /* \"contracts/_FileStorage.sol\":1425:1434  chunkSize */\n      dup3\n        /* \"contracts/_FileStorage.sol\":1407:1424  findAvailableNode */\n      tag_99\n        /* \"contracts/_FileStorage.sol\":1407:1435  findAvailableNode(chunkSize) */\n      jump\t// in\n    tag_98:\n        /* \"contracts/_FileStorage.sol\":1377:1435  address selectedNodeAddress = findAvailableNode(chunkSize) */\n      swap1\n      pop\n        /* \"contracts/_FileStorage.sol\":1491:1492  0 */\n      0x00\n        /* \"contracts/_FileStorage.sol\":1460:1493  selectedNodeAddress != address(0) */\n      0xffffffffffffffffffffffffffffffffffffffff\n      and\n        /* \"contracts/_FileStorage.sol\":1460:1479  selectedNodeAddress */\n      dup2\n        /* \"contracts/_FileStorage.sol\":1460:1493  selectedNodeAddress != address(0) */\n      0xffffffffffffffffffffffffffffffffffffffff\n      and\n      sub\n        /* \"contracts/_FileStorage.sol\":1452:1516  require(selectedNodeAddress != address(0), \"No available nodes\") */\n      tag_100\n      jumpi\n      mload(0x40)\n      0x08c379a000000000000000000000000000000000000000000000000000000000\n      dup2\n      mstore\n      0x04\n      add\n      tag_101\n      swap1\n      tag_102\n      jump\t// in\n    tag_101:\n      mload(0x40)\n      dup1\n      swap2\n      sub\n      swap1\n      revert\n    tag_100:\n        /* \"contracts/_FileStorage.sol\":1531:1543  fileIdToNode */\n      0x04\n        /* \"contracts/_FileStorage.sol\":1544:1552  uniqueId */\n      dup7\n        /* \"contracts/_FileStorage.sol\":1531:1553  fileIdToNode[uniqueId] */\n      mload(0x40)\n      tag_103\n      swap2\n      swap1\n      tag_64\n      jump\t// in\n    tag_103:\n      swap1\n      dup2\n      mstore\n      0x20\n      add\n      mload(0x40)\n      dup1\n      swap2\n      sub\n      swap1\n      keccak256\n        /* \"contracts/_FileStorage.sol\":1559:1578  selectedNodeAddress */\n      dup2\n        /* \"contracts/_FileStorage.sol\":1531:1579  fileIdToNode[uniqueId].push(selectedNodeAddress) */\n      swap1\n      dup1\n      0x01\n      dup2\n      sload\n      add\n      dup1\n      dup3\n      sstore\n      dup1\n      swap2\n      pop\n      pop\n      0x01\n      swap1\n      sub\n      swap1\n      0x00\n      mstore\n      keccak256(0x00, 0x20)\n      add\n      0x00\n      swap1\n      swap2\n      swap1\n      swap2\n      swap1\n      swap2\n      0x0100\n      exp\n      dup2\n      sload\n      dup2\n      0xffffffffffffffffffffffffffffffffffffffff\n      mul\n      not\n      and\n      swap1\n      dup4\n      0xffffffffffffffffffffffffffffffffffffffff\n      and\n      mul\n      or\n      swap1\n      sstore\n      pop\n        /* \"contracts/_FileStorage.sol\":1596:1644  storeChunkInNode(selectedNodeAddress, chunks[i]) */\n      tag_105\n        /* \"contracts/_FileStorage.sol\":1613:1632  selectedNodeAddress */\n      dup2\n        /* \"contracts/_FileStorage.sol\":1634:1640  chunks */\n      dup6\n        /* \"contracts/_FileStorage.sol\":1641:1642  i */\n      dup6\n        /* \"contracts/_FileStorage.sol\":1634:1643  chunks[i] */\n      dup2\n      mload\n      dup2\n      lt\n      tag_106\n      jumpi\n      tag_107\n      tag_97\n      jump\t// in\n    tag_107:\n    tag_106:\n      0x20\n      mul\n      0x20\n      add\n      add\n      mload\n        /* \"contracts/_FileStorage.sol\":1596:1612  storeChunkInNode */\n      tag_51\n        /* \"contracts/_FileStorage.sol\":1596:1644  storeChunkInNode(selectedNodeAddress, chunks[i]) */\n      jump\t// in\n    tag_105:\n        /* \"contracts/_FileStorage.sol\":1722:1822  updateAvailableStorage(selectedNodeAddress, nodes[selectedNodeAddress].availableStorage - chunkSize) */\n      tag_108\n        /* \"contracts/_FileStorage.sol\":1745:1764  selectedNodeAddress */\n      dup2\n        /* \"contracts/_FileStorage.sol\":1812:1821  chunkSize */\n      dup4\n        /* \"contracts/_FileStorage.sol\":1766:1771  nodes */\n      0x00\n        /* \"contracts/_FileStorage.sol\":1766:1792  nodes[selectedNodeAddress] */\n      dup1\n        /* \"contracts/_FileStorage.sol\":1772:1791  selectedNodeAddress */\n      dup6\n        /* \"contracts/_FileStorage.sol\":1766:1792  nodes[selectedNodeAddress] */\n      0xffffffffffffffffffffffffffffffffffffffff\n      and\n      0xffffffffffffffffffffffffffffffffffffffff\n      and\n      dup2\n      mstore\n      0x20\n      add\n      swap1\n      dup2\n      mstore\n      0x20\n      add\n      0x00\n      keccak256\n        /* \"contracts/_FileStorage.sol\":1766:1809  nodes[selectedNodeAddress].availableStorage */\n      0x01\n      add\n      sload\n        /* \"contracts/_FileStorage.sol\":1766:1821  nodes[selectedNodeAddress].availableStorage - chunkSize */\n      tag_109\n      swap2\n      swap1\n      tag_110\n      jump\t// in\n    tag_109:\n        /* \"contracts/_FileStorage.sol\":1722:1744  updateAvailableStorage */\n      tag_47\n        /* \"contracts/_FileStorage.sol\":1722:1822  updateAvailableStorage(selectedNodeAddress, nodes[selectedNodeAddress].availableStorage - chunkSize) */\n      jump\t// in\n    tag_108:\n        /* \"contracts/_FileStorage.sol\":1304:1834  {... */\n      pop\n      pop\n        /* \"contracts/_FileStorage.sol\":1299:1302  i++ */\n      dup1\n      dup1\n      0x01\n      add\n      swap2\n      pop\n      pop\n        /* \"contracts/_FileStorage.sol\":1260:1834  for (uint256 i = 0; i < chunks.length; i++) {... */\n      jump(tag_92)\n    tag_93:\n      pop\n        /* \"contracts/_FileStorage.sol\":897:1841  {... */\n      pop\n      pop\n        /* \"contracts/_FileStorage.sol\":800:1841  function storeFile(string memory fileName, string memory content, string memory uniqueId) public {... */\n      pop\n      pop\n      pop\n      jump\t// out\n        /* \"contracts/_FileStorage.sol\":191:211  address public owner */\n    tag_35:\n      0x02\n      0x00\n      swap1\n      sload\n      swap1\n      0x0100\n      exp\n      swap1\n      div\n      0xffffffffffffffffffffffffffffffffffffffff\n      and\n      dup2\n      jump\t// out\n        /* \"contracts/_NodeManager.sol\":928:1024  function getAllNodes() public view returns (address[] memory) {... */\n    tag_39:\n        /* \"contracts/_NodeManager.sol\":972:988  address[] memory */\n      0x60\n        /* \"contracts/_NodeManager.sol\":1008:1016  allNodes */\n      0x01\n        /* \"contracts/_NodeManager.sol\":1001:1016  return allNodes */\n      dup1\n      sload\n      dup1\n      0x20\n      mul\n      0x20\n      add\n      mload(0x40)\n      swap1\n      dup2\n      add\n      0x40\n      mstore\n      dup1\n      swap3\n      swap2\n      swap1\n      dup2\n      dup2\n      mstore\n      0x20\n      add\n      dup3\n      dup1\n      sload\n      dup1\n      iszero\n      tag_112\n      jumpi\n      0x20\n      mul\n      dup3\n      add\n      swap2\n      swap1\n      0x00\n      mstore\n      keccak256(0x00, 0x20)\n      swap1\n    tag_113:\n      dup2\n      0x00\n      swap1\n      sload\n      swap1\n      0x0100\n      exp\n      swap1\n      div\n      0xffffffffffffffffffffffffffffffffffffffff\n      and\n      0xffffffffffffffffffffffffffffffffffffffff\n      and\n      dup2\n      mstore\n      0x20\n      add\n      swap1\n      0x01\n      add\n      swap1\n      dup1\n      dup4\n      gt\n      tag_113\n      jumpi\n    tag_112:\n      pop\n      pop\n      pop\n      pop\n      pop\n      swap1\n      pop\n        /* \"contracts/_NodeManager.sol\":928:1024  function getAllNodes() public view returns (address[] memory) {... */\n      swap1\n      jump\t// out\n        /* \"contracts/_FileStorage.sol\":2361:2786  function deleteFile(string memory fileId) public {... */\n    tag_44:\n        /* \"contracts/_FileStorage.sol\":2465:2466  0 */\n      0x00\n        /* \"contracts/_FileStorage.sol\":2429:2445  fileIdToMetadata */\n      0x03\n        /* \"contracts/_FileStorage.sol\":2446:2452  fileId */\n      dup3\n        /* \"contracts/_FileStorage.sol\":2429:2453  fileIdToMetadata[fileId] */\n      mload(0x40)\n      tag_115\n      swap2\n      swap1\n      tag_64\n      jump\t// in\n    tag_115:\n      swap1\n      dup2\n      mstore\n      0x20\n      add\n      mload(0x40)\n      dup1\n      swap2\n      sub\n      swap1\n      keccak256\n        /* \"contracts/_FileStorage.sol\":2429:2462  fileIdToMetadata[fileId].fileSize */\n      0x01\n      add\n      sload\n        /* \"contracts/_FileStorage.sol\":2429:2466  fileIdToMetadata[fileId].fileSize > 0 */\n      gt\n        /* \"contracts/_FileStorage.sol\":2421:2485  require(fileIdToMetadata[fileId].fileSize > 0, \"File not found\") */\n      tag_116\n      jumpi\n      mload(0x40)\n      0x08c379a000000000000000000000000000000000000000000000000000000000\n      dup2\n      mstore\n      0x04\n      add\n      tag_117\n      swap1\n      tag_67\n      jump\t// in\n    tag_117:\n      mload(0x40)\n      dup1\n      swap2\n      sub\n      swap1\n      revert\n    tag_116:\n        /* \"contracts/_FileStorage.sol\":2518:2523  owner */\n      0x02\n      0x00\n      swap1\n      sload\n      swap1\n      0x0100\n      exp\n      swap1\n      div\n      0xffffffffffffffffffffffffffffffffffffffff\n      and\n        /* \"contracts/_FileStorage.sol\":2504:2523  msg.sender == owner */\n      0xffffffffffffffffffffffffffffffffffffffff\n      and\n        /* \"contracts/_FileStorage.sol\":2504:2514  msg.sender */\n      caller\n        /* \"contracts/_FileStorage.sol\":2504:2523  msg.sender == owner */\n      0xffffffffffffffffffffffffffffffffffffffff\n      and\n      eq\n        /* \"contracts/_FileStorage.sol\":2496:2540  require(msg.sender == owner, \"Unauthorized\") */\n      tag_118\n      jumpi\n      mload(0x40)\n      0x08c379a000000000000000000000000000000000000000000000000000000000\n      dup2\n      mstore\n      0x04\n      add\n      tag_119\n      swap1\n      tag_120\n      jump\t// in\n    tag_119:\n      mload(0x40)\n      dup1\n      swap2\n      sub\n      swap1\n      revert\n    tag_118:\n        /* \"contracts/_FileStorage.sol\":2676:2692  fileIdToMetadata */\n      0x03\n        /* \"contracts/_FileStorage.sol\":2693:2699  fileId */\n      dup2\n        /* \"contracts/_FileStorage.sol\":2676:2700  fileIdToMetadata[fileId] */\n      mload(0x40)\n      tag_121\n      swap2\n      swap1\n      tag_64\n      jump\t// in\n    tag_121:\n      swap1\n      dup2\n      mstore\n      0x20\n      add\n      mload(0x40)\n      dup1\n      swap2\n      sub\n      swap1\n      keccak256\n      0x00\n        /* \"contracts/_FileStorage.sol\":2669:2700  delete fileIdToMetadata[fileId] */\n      dup1\n      dup3\n      add\n      0x00\n      tag_122\n      swap2\n      swap1\n      tag_123\n      jump\t// in\n    tag_122:\n      0x01\n      dup3\n      add\n      0x00\n      swap1\n      sstore\n      pop\n      pop\n        /* \"contracts/_FileStorage.sol\":2718:2730  fileIdToNode */\n      0x04\n        /* \"contracts/_FileStorage.sol\":2731:2737  fileId */\n      dup2\n        /* \"contracts/_FileStorage.sol\":2718:2738  fileIdToNode[fileId] */\n      mload(0x40)\n      tag_124\n      swap2\n      swap1\n      tag_64\n      jump\t// in\n    tag_124:\n      swap1\n      dup2\n      mstore\n      0x20\n      add\n      mload(0x40)\n      dup1\n      swap2\n      sub\n      swap1\n      keccak256\n      0x00\n        /* \"contracts/_FileStorage.sol\":2711:2738  delete fileIdToNode[fileId] */\n      tag_125\n      swap2\n      swap1\n      tag_126\n      jump\t// in\n    tag_125:\n        /* \"contracts/_FileStorage.sol\":2756:2770  fileIdToChunks */\n      0x05\n        /* \"contracts/_FileStorage.sol\":2771:2777  fileId */\n      dup2\n        /* \"contracts/_FileStorage.sol\":2756:2778  fileIdToChunks[fileId] */\n      mload(0x40)\n      tag_127\n      swap2\n      swap1\n      tag_64\n      jump\t// in\n    tag_127:\n      swap1\n      dup2\n      mstore\n      0x20\n      add\n      mload(0x40)\n      dup1\n      swap2\n      sub\n      swap1\n      keccak256\n      0x00\n        /* \"contracts/_FileStorage.sol\":2749:2778  delete fileIdToChunks[fileId] */\n      tag_128\n      swap2\n      swap1\n      tag_129\n      jump\t// in\n    tag_128:\n        /* \"contracts/_FileStorage.sol\":2361:2786  function deleteFile(string memory fileId) public {... */\n      pop\n      jump\t// out\n        /* \"contracts/_NodeManager.sol\":544:783  function updateAvailableStorage(address _nodeAddress, uint256 _newStorage) public {... */\n    tag_47:\n        /* \"contracts/_NodeManager.sol\":688:689  0 */\n      0x00\n        /* \"contracts/_NodeManager.sol\":645:690  nodes[_nodeAddress].nodeAddress != address(0) */\n      0xffffffffffffffffffffffffffffffffffffffff\n      and\n        /* \"contracts/_NodeManager.sol\":645:650  nodes */\n      0x00\n        /* \"contracts/_NodeManager.sol\":645:664  nodes[_nodeAddress] */\n      dup1\n        /* \"contracts/_NodeManager.sol\":651:663  _nodeAddress */\n      dup5\n        /* \"contracts/_NodeManager.sol\":645:664  nodes[_nodeAddress] */\n      0xffffffffffffffffffffffffffffffffffffffff\n      and\n      0xffffffffffffffffffffffffffffffffffffffff\n      and\n      dup2\n      mstore\n      0x20\n      add\n      swap1\n      dup2\n      mstore\n      0x20\n      add\n      0x00\n      keccak256\n        /* \"contracts/_NodeManager.sol\":645:676  nodes[_nodeAddress].nodeAddress */\n      0x00\n      add\n      0x00\n      swap1\n      sload\n      swap1\n      0x0100\n      exp\n      swap1\n      div\n      0xffffffffffffffffffffffffffffffffffffffff\n      and\n        /* \"contracts/_NodeManager.sol\":645:690  nodes[_nodeAddress].nodeAddress != address(0) */\n      0xffffffffffffffffffffffffffffffffffffffff\n      and\n      sub\n        /* \"contracts/_NodeManager.sol\":637:714  require(nodes[_nodeAddress].nodeAddress != address(0), \"Node does not exist\") */\n      tag_131\n      jumpi\n      mload(0x40)\n      0x08c379a000000000000000000000000000000000000000000000000000000000\n      dup2\n      mstore\n      0x04\n      add\n      tag_132\n      swap1\n      tag_133\n      jump\t// in\n    tag_132:\n      mload(0x40)\n      dup1\n      swap2\n      sub\n      swap1\n      revert\n    tag_131:\n        /* \"contracts/_NodeManager.sol\":764:775  _newStorage */\n      dup1\n        /* \"contracts/_NodeManager.sol\":725:730  nodes */\n      0x00\n        /* \"contracts/_NodeManager.sol\":725:744  nodes[_nodeAddress] */\n      dup1\n        /* \"contracts/_NodeManager.sol\":731:743  _nodeAddress */\n      dup5\n        /* \"contracts/_NodeManager.sol\":725:744  nodes[_nodeAddress] */\n      0xffffffffffffffffffffffffffffffffffffffff\n      and\n      0xffffffffffffffffffffffffffffffffffffffff\n      and\n      dup2\n      mstore\n      0x20\n      add\n      swap1\n      dup2\n      mstore\n      0x20\n      add\n      0x00\n      keccak256\n        /* \"contracts/_NodeManager.sol\":725:761  nodes[_nodeAddress].availableStorage */\n      0x01\n      add\n        /* \"contracts/_NodeManager.sol\":725:775  nodes[_nodeAddress].availableStorage = _newStorage */\n      dup2\n      swap1\n      sstore\n      pop\n        /* \"contracts/_NodeManager.sol\":544:783  function updateAvailableStorage(address _nodeAddress, uint256 _newStorage) public {... */\n      pop\n      pop\n      jump\t// out\n        /* \"contracts/_NodeManager.sol\":791:918  function storeChunkInNode(address _nodeAddress, string memory _chunk) public {... */\n    tag_51:\n      pop\n      pop\n      jump\t// out\n        /* \"contracts/_NodeManager.sol\":229:254  address[] public allNodes */\n    tag_55:\n      0x01\n      dup2\n      dup2\n      sload\n      dup2\n      lt\n      tag_135\n      jumpi\n      0x00\n      dup1\n      revert\n    tag_135:\n      swap1\n      0x00\n      mstore\n      keccak256(0x00, 0x20)\n      add\n      0x00\n      swap2\n      pop\n      sload\n      swap1\n      0x0100\n      exp\n      swap1\n      div\n      0xffffffffffffffffffffffffffffffffffffffff\n      and\n      dup2\n      jump\t// out\n        /* \"contracts/_ChunkManager.sol\":892:1528  function concatenateChunks(string[] memory chunks) internal pure returns (string memory) {... */\n    tag_82:\n        /* \"contracts/_ChunkManager.sol\":966:979  string memory */\n      0x60\n        /* \"contracts/_ChunkManager.sol\":992:1011  uint256 totalLength */\n      0x00\n        /* \"contracts/_ChunkManager.sol\":1031:1040  uint256 i */\n      dup1\n        /* \"contracts/_ChunkManager.sol\":1026:1135  for (uint256 i = 0; i < chunks.length; i++) {... */\n    tag_138:\n        /* \"contracts/_ChunkManager.sol\":1050:1056  chunks */\n      dup4\n        /* \"contracts/_ChunkManager.sol\":1050:1063  chunks.length */\n      mload\n        /* \"contracts/_ChunkManager.sol\":1046:1047  i */\n      dup2\n        /* \"contracts/_ChunkManager.sol\":1046:1063  i < chunks.length */\n      lt\n        /* \"contracts/_ChunkManager.sol\":1026:1135  for (uint256 i = 0; i < chunks.length; i++) {... */\n      iszero\n      tag_139\n      jumpi\n        /* \"contracts/_ChunkManager.sol\":1106:1112  chunks */\n      dup4\n        /* \"contracts/_ChunkManager.sol\":1113:1114  i */\n      dup2\n        /* \"contracts/_ChunkManager.sol\":1106:1115  chunks[i] */\n      dup2\n      mload\n      dup2\n      lt\n      tag_141\n      jumpi\n      tag_142\n      tag_97\n      jump\t// in\n    tag_142:\n    tag_141:\n      0x20\n      mul\n      0x20\n      add\n      add\n      mload\n        /* \"contracts/_ChunkManager.sol\":1100:1123  bytes(chunks[i]).length */\n      mload\n        /* \"contracts/_ChunkManager.sol\":1085:1123  totalLength += bytes(chunks[i]).length */\n      dup3\n      tag_143\n      swap2\n      swap1\n      tag_144\n      jump\t// in\n    tag_143:\n      swap2\n      pop\n        /* \"contracts/_ChunkManager.sol\":1065:1068  i++ */\n      dup1\n      dup1\n      0x01\n      add\n      swap2\n      pop\n      pop\n        /* \"contracts/_ChunkManager.sol\":1026:1135  for (uint256 i = 0; i < chunks.length; i++) {... */\n      jump(tag_138)\n    tag_139:\n      pop\n        /* \"contracts/_ChunkManager.sol\":1147:1166  bytes memory result */\n      0x00\n        /* \"contracts/_ChunkManager.sol\":1179:1190  totalLength */\n      dup2\n        /* \"contracts/_ChunkManager.sol\":1169:1191  new bytes(totalLength) */\n      0xffffffffffffffff\n      dup2\n      gt\n      iszero\n      tag_145\n      jumpi\n      tag_146\n      tag_147\n      jump\t// in\n    tag_146:\n    tag_145:\n      mload(0x40)\n      swap1\n      dup1\n      dup3\n      mstore\n      dup1\n      0x1f\n      add\n      not(0x1f)\n      and\n      0x20\n      add\n      dup3\n      add\n      0x40\n      mstore\n      dup1\n      iszero\n      tag_148\n      jumpi\n      dup2\n      0x20\n      add\n      0x01\n      dup3\n      mul\n      dup1\n      calldatasize\n      dup4\n      calldatacopy\n      dup1\n      dup3\n      add\n      swap2\n      pop\n      pop\n      swap1\n      pop\n    tag_148:\n      pop\n        /* \"contracts/_ChunkManager.sol\":1147:1191  bytes memory result = new bytes(totalLength) */\n      swap1\n      pop\n        /* \"contracts/_ChunkManager.sol\":1202:1222  uint256 currentIndex */\n      0x00\n        /* \"contracts/_ChunkManager.sol\":1244:1253  uint256 i */\n      dup1\n        /* \"contracts/_ChunkManager.sol\":1239:1487  for (uint256 i = 0; i < chunks.length; i++) {... */\n    tag_149:\n        /* \"contracts/_ChunkManager.sol\":1263:1269  chunks */\n      dup6\n        /* \"contracts/_ChunkManager.sol\":1263:1276  chunks.length */\n      mload\n        /* \"contracts/_ChunkManager.sol\":1259:1260  i */\n      dup2\n        /* \"contracts/_ChunkManager.sol\":1259:1276  i < chunks.length */\n      lt\n        /* \"contracts/_ChunkManager.sol\":1239:1487  for (uint256 i = 0; i < chunks.length; i++) {... */\n      iszero\n      tag_150\n      jumpi\n        /* \"contracts/_ChunkManager.sol\":1298:1321  bytes memory chunkBytes */\n      0x00\n        /* \"contracts/_ChunkManager.sol\":1330:1336  chunks */\n      dup7\n        /* \"contracts/_ChunkManager.sol\":1337:1338  i */\n      dup3\n        /* \"contracts/_ChunkManager.sol\":1330:1339  chunks[i] */\n      dup2\n      mload\n      dup2\n      lt\n      tag_152\n      jumpi\n      tag_153\n      tag_97\n      jump\t// in\n    tag_153:\n    tag_152:\n      0x20\n      mul\n      0x20\n      add\n      add\n      mload\n        /* \"contracts/_ChunkManager.sol\":1298:1340  bytes memory chunkBytes = bytes(chunks[i]) */\n      swap1\n      pop\n        /* \"contracts/_ChunkManager.sol\":1360:1369  uint256 j */\n      0x00\n        /* \"contracts/_ChunkManager.sol\":1355:1476  for (uint256 j = 0; j < chunkBytes.length; j++) {... */\n    tag_154:\n        /* \"contracts/_ChunkManager.sol\":1379:1389  chunkBytes */\n      dup2\n        /* \"contracts/_ChunkManager.sol\":1379:1396  chunkBytes.length */\n      mload\n        /* \"contracts/_ChunkManager.sol\":1375:1376  j */\n      dup2\n        /* \"contracts/_ChunkManager.sol\":1375:1396  j < chunkBytes.length */\n      lt\n        /* \"contracts/_ChunkManager.sol\":1355:1476  for (uint256 j = 0; j < chunkBytes.length; j++) {... */\n      iszero\n      tag_155\n      jumpi\n        /* \"contracts/_ChunkManager.sol\":1447:1457  chunkBytes */\n      dup2\n        /* \"contracts/_ChunkManager.sol\":1458:1459  j */\n      dup2\n        /* \"contracts/_ChunkManager.sol\":1447:1460  chunkBytes[j] */\n      dup2\n      mload\n      dup2\n      lt\n      tag_157\n      jumpi\n      tag_158\n      tag_97\n      jump\t// in\n    tag_158:\n    tag_157:\n      0x20\n      add\n      add\n      mload\n      0xf8\n      shr\n      0xf8\n      shl\n        /* \"contracts/_ChunkManager.sol\":1422:1428  result */\n      dup6\n        /* \"contracts/_ChunkManager.sol\":1429:1443  currentIndex++ */\n      dup6\n      dup1\n      tag_159\n      swap1\n      tag_160\n      jump\t// in\n    tag_159:\n      swap7\n      pop\n        /* \"contracts/_ChunkManager.sol\":1422:1444  result[currentIndex++] */\n      dup2\n      mload\n      dup2\n      lt\n      tag_161\n      jumpi\n      tag_162\n      tag_97\n      jump\t// in\n    tag_162:\n    tag_161:\n      0x20\n      add\n      add\n        /* \"contracts/_ChunkManager.sol\":1422:1460  result[currentIndex++] = chunkBytes[j] */\n      swap1\n      not(0xffffffffffffffffffffffffffffffffffffffffffffffffffffffffffffff)\n      and\n      swap1\n      dup2\n      0x00\n      byte\n      swap1\n      mstore8\n      pop\n        /* \"contracts/_ChunkManager.sol\":1398:1401  j++ */\n      dup1\n      dup1\n      0x01\n      add\n      swap2\n      pop\n      pop\n        /* \"contracts/_ChunkManager.sol\":1355:1476  for (uint256 j = 0; j < chunkBytes.length; j++) {... */\n      jump(tag_154)\n    tag_155:\n      pop\n        /* \"contracts/_ChunkManager.sol\":1283:1487  {... */\n      pop\n        /* \"contracts/_ChunkManager.sol\":1278:1281  i++ */\n      dup1\n      dup1\n      0x01\n      add\n      swap2\n      pop\n      pop\n        /* \"contracts/_ChunkManager.sol\":1239:1487  for (uint256 i = 0; i < chunks.length; i++) {... */\n      jump(tag_149)\n    tag_150:\n      pop\n        /* \"contracts/_ChunkManager.sol\":1513:1519  result */\n      dup2\n        /* \"contracts/_ChunkManager.sol\":1499:1520  return string(result) */\n      swap4\n      pop\n      pop\n      pop\n      pop\n        /* \"contracts/_ChunkManager.sol\":892:1528  function concatenateChunks(string[] memory chunks) internal pure returns (string memory) {... */\n      swap2\n      swap1\n      pop\n      jump\t// out\n        /* \"contracts/_ChunkManager.sol\":92:884  function chunkContent(string memory content) internal pure returns (string[] memory) {... */\n    tag_88:\n        /* \"contracts/_ChunkManager.sol\":160:175  string[] memory */\n      0x60\n        /* \"contracts/_ChunkManager.sol\":188:205  uint256 chunkSize */\n      0x00\n        /* \"contracts/_ChunkManager.sol\":208:210  32 */\n      0x20\n        /* \"contracts/_ChunkManager.sol\":188:210  uint256 chunkSize = 32 */\n      swap1\n      pop\n        /* \"contracts/_ChunkManager.sol\":221:238  uint256 numChunks */\n      0x00\n        /* \"contracts/_ChunkManager.sol\":283:292  chunkSize */\n      dup2\n        /* \"contracts/_ChunkManager.sol\":278:279  1 */\n      0x01\n        /* \"contracts/_ChunkManager.sol\":266:275  chunkSize */\n      dup4\n        /* \"contracts/_ChunkManager.sol\":248:255  content */\n      dup7\n        /* \"contracts/_ChunkManager.sol\":242:263  bytes(content).length */\n      mload\n        /* \"contracts/_ChunkManager.sol\":242:275  bytes(content).length + chunkSize */\n      tag_164\n      swap2\n      swap1\n      tag_144\n      jump\t// in\n    tag_164:\n        /* \"contracts/_ChunkManager.sol\":242:279  bytes(content).length + chunkSize - 1 */\n      tag_165\n      swap2\n      swap1\n      tag_110\n      jump\t// in\n    tag_165:\n        /* \"contracts/_ChunkManager.sol\":241:292  (bytes(content).length + chunkSize - 1) / chunkSize */\n      tag_166\n      swap2\n      swap1\n      tag_167\n      jump\t// in\n    tag_166:\n        /* \"contracts/_ChunkManager.sol\":221:292  uint256 numChunks = (bytes(content).length + chunkSize - 1) / chunkSize */\n      swap1\n      pop\n        /* \"contracts/_ChunkManager.sol\":303:325  string[] memory chunks */\n      0x00\n        /* \"contracts/_ChunkManager.sol\":341:350  numChunks */\n      dup2\n        /* \"contracts/_ChunkManager.sol\":328:351  new string[](numChunks) */\n      0xffffffffffffffff\n      dup2\n      gt\n      iszero\n      tag_168\n      jumpi\n      tag_169\n      tag_147\n      jump\t// in\n    tag_169:\n    tag_168:\n      mload(0x40)\n      swap1\n      dup1\n      dup3\n      mstore\n      dup1\n      0x20\n      mul\n      0x20\n      add\n      dup3\n      add\n      0x40\n      mstore\n      dup1\n      iszero\n      tag_170\n      jumpi\n      dup2\n      0x20\n      add\n    tag_171:\n      0x60\n      dup2\n      mstore\n      0x20\n      add\n      swap1\n      0x01\n      swap1\n      sub\n      swap1\n      dup2\n      tag_171\n      jumpi\n      swap1\n      pop\n    tag_170:\n      pop\n        /* \"contracts/_ChunkManager.sol\":303:351  string[] memory chunks = new string[](numChunks) */\n      swap1\n      pop\n        /* \"contracts/_ChunkManager.sol\":369:378  uint256 i */\n      0x00\n        /* \"contracts/_ChunkManager.sol\":364:851  for (uint256 i = 0; i < numChunks; i++) {... */\n    tag_172:\n        /* \"contracts/_ChunkManager.sol\":388:397  numChunks */\n      dup3\n        /* \"contracts/_ChunkManager.sol\":384:385  i */\n      dup2\n        /* \"contracts/_ChunkManager.sol\":384:397  i < numChunks */\n      lt\n        /* \"contracts/_ChunkManager.sol\":364:851  for (uint256 i = 0; i < numChunks; i++) {... */\n      iszero\n      tag_173\n      jumpi\n        /* \"contracts/_ChunkManager.sol\":419:432  uint256 start */\n      0x00\n        /* \"contracts/_ChunkManager.sol\":439:448  chunkSize */\n      dup5\n        /* \"contracts/_ChunkManager.sol\":435:436  i */\n      dup3\n        /* \"contracts/_ChunkManager.sol\":435:448  i * chunkSize */\n      tag_175\n      swap2\n      swap1\n      tag_176\n      jump\t// in\n    tag_175:\n        /* \"contracts/_ChunkManager.sol\":419:448  uint256 start = i * chunkSize */\n      swap1\n      pop\n        /* \"contracts/_ChunkManager.sol\":463:474  uint256 end */\n      0x00\n        /* \"contracts/_ChunkManager.sol\":485:494  chunkSize */\n      dup6\n        /* \"contracts/_ChunkManager.sol\":477:482  start */\n      dup3\n        /* \"contracts/_ChunkManager.sol\":477:494  start + chunkSize */\n      tag_177\n      swap2\n      swap1\n      tag_144\n      jump\t// in\n    tag_177:\n        /* \"contracts/_ChunkManager.sol\":463:494  uint256 end = start + chunkSize */\n      swap1\n      pop\n        /* \"contracts/_ChunkManager.sol\":525:532  content */\n      dup8\n        /* \"contracts/_ChunkManager.sol\":519:540  bytes(content).length */\n      mload\n        /* \"contracts/_ChunkManager.sol\":513:516  end */\n      dup2\n        /* \"contracts/_ChunkManager.sol\":513:540  end > bytes(content).length */\n      gt\n        /* \"contracts/_ChunkManager.sol\":509:604  if (end > bytes(content).length) {... */\n      iszero\n      tag_178\n      jumpi\n        /* \"contracts/_ChunkManager.sol\":573:580  content */\n      dup8\n        /* \"contracts/_ChunkManager.sol\":567:588  bytes(content).length */\n      mload\n        /* \"contracts/_ChunkManager.sol\":561:588  end = bytes(content).length */\n      swap1\n      pop\n        /* \"contracts/_ChunkManager.sol\":509:604  if (end > bytes(content).length) {... */\n    tag_178:\n        /* \"contracts/_ChunkManager.sol\":618:641  bytes memory chunkBytes */\n      0x00\n        /* \"contracts/_ChunkManager.sol\":660:665  start */\n      dup3\n        /* \"contracts/_ChunkManager.sol\":654:657  end */\n      dup3\n        /* \"contracts/_ChunkManager.sol\":654:665  end - start */\n      tag_179\n      swap2\n      swap1\n      tag_110\n      jump\t// in\n    tag_179:\n        /* \"contracts/_ChunkManager.sol\":644:666  new bytes(end - start) */\n      0xffffffffffffffff\n      dup2\n      gt\n      iszero\n      tag_180\n      jumpi\n      tag_181\n      tag_147\n      jump\t// in\n    tag_181:\n    tag_180:\n      mload(0x40)\n      swap1\n      dup1\n      dup3\n      mstore\n      dup1\n      0x1f\n      add\n      not(0x1f)\n      and\n      0x20\n      add\n      dup3\n      add\n      0x40\n      mstore\n      dup1\n      iszero\n      tag_182\n      jumpi\n      dup2\n      0x20\n      add\n      0x01\n      dup3\n      mul\n      dup1\n      calldatasize\n      dup4\n      calldatacopy\n      dup1\n      dup3\n      add\n      swap2\n      pop\n      pop\n      swap1\n      pop\n    tag_182:\n      pop\n        /* \"contracts/_ChunkManager.sol\":618:666  bytes memory chunkBytes = new bytes(end - start) */\n      swap1\n      pop\n        /* \"contracts/_ChunkManager.sol\":686:695  uint256 j */\n      0x00\n        /* \"contracts/_ChunkManager.sol\":698:703  start */\n      dup4\n        /* \"contracts/_ChunkManager.sol\":686:703  uint256 j = start */\n      swap1\n      pop\n        /* \"contracts/_ChunkManager.sol\":681:795  for (uint256 j = start; j < end; j++) {... */\n    tag_183:\n        /* \"contracts/_ChunkManager.sol\":709:712  end */\n      dup3\n        /* \"contracts/_ChunkManager.sol\":705:706  j */\n      dup2\n        /* \"contracts/_ChunkManager.sol\":705:712  j < end */\n      lt\n        /* \"contracts/_ChunkManager.sol\":681:795  for (uint256 j = start; j < end; j++) {... */\n      iszero\n      tag_184\n      jumpi\n        /* \"contracts/_ChunkManager.sol\":768:775  content */\n      dup10\n        /* \"contracts/_ChunkManager.sol\":777:778  j */\n      dup2\n        /* \"contracts/_ChunkManager.sol\":762:779  bytes(content)[j] */\n      dup2\n      mload\n      dup2\n      lt\n      tag_186\n      jumpi\n      tag_187\n      tag_97\n      jump\t// in\n    tag_187:\n    tag_186:\n      0x20\n      add\n      add\n      mload\n      0xf8\n      shr\n      0xf8\n      shl\n        /* \"contracts/_ChunkManager.sol\":738:748  chunkBytes */\n      dup3\n        /* \"contracts/_ChunkManager.sol\":753:758  start */\n      dup6\n        /* \"contracts/_ChunkManager.sol\":749:750  j */\n      dup4\n        /* \"contracts/_ChunkManager.sol\":749:758  j - start */\n      tag_188\n      swap2\n      swap1\n      tag_110\n      jump\t// in\n    tag_188:\n        /* \"contracts/_ChunkManager.sol\":738:759  chunkBytes[j - start] */\n      dup2\n      mload\n      dup2\n      lt\n      tag_189\n      jumpi\n      tag_190\n      tag_97\n      jump\t// in\n    tag_190:\n    tag_189:\n      0x20\n      add\n      add\n        /* \"contracts/_ChunkManager.sol\":738:779  chunkBytes[j - start] = bytes(content)[j] */\n      swap1\n      not(0xffffffffffffffffffffffffffffffffffffffffffffffffffffffffffffff)\n      and\n      swap1\n      dup2\n      0x00\n      byte\n      swap1\n      mstore8\n      pop\n        /* \"contracts/_ChunkManager.sol\":714:717  j++ */\n      dup1\n      dup1\n      0x01\n      add\n      swap2\n      pop\n      pop\n        /* \"contracts/_ChunkManager.sol\":681:795  for (uint256 j = start; j < end; j++) {... */\n      jump(tag_183)\n    tag_184:\n      pop\n        /* \"contracts/_ChunkManager.sol\":828:838  chunkBytes */\n      dup1\n        /* \"contracts/_ChunkManager.sol\":809:815  chunks */\n      dup6\n        /* \"contracts/_ChunkManager.sol\":816:817  i */\n      dup6\n        /* \"contracts/_ChunkManager.sol\":809:818  chunks[i] */\n      dup2\n      mload\n      dup2\n      lt\n      tag_191\n      jumpi\n      tag_192\n      tag_97\n      jump\t// in\n    tag_192:\n    tag_191:\n      0x20\n      mul\n      0x20\n      add\n      add\n        /* \"contracts/_ChunkManager.sol\":809:839  chunks[i] = string(chunkBytes) */\n      dup2\n      swap1\n      mstore\n      pop\n        /* \"contracts/_ChunkManager.sol\":404:851  {... */\n      pop\n      pop\n      pop\n        /* \"contracts/_ChunkManager.sol\":399:402  i++ */\n      dup1\n      dup1\n      0x01\n      add\n      swap2\n      pop\n      pop\n        /* \"contracts/_ChunkManager.sol\":364:851  for (uint256 i = 0; i < numChunks; i++) {... */\n      jump(tag_172)\n    tag_173:\n      pop\n        /* \"contracts/_ChunkManager.sol\":870:876  chunks */\n      dup1\n        /* \"contracts/_ChunkManager.sol\":863:876  return chunks */\n      swap4\n      pop\n      pop\n      pop\n      pop\n        /* \"contracts/_ChunkManager.sol\":92:884  function chunkContent(string memory content) internal pure returns (string[] memory) {... */\n      swap2\n      swap1\n      pop\n      jump\t// out\n        /* \"contracts/_NodeManager.sol\":1038:1887  function findAvailableNode(uint256 _chunkSize) internal view returns (address) {... */\n    tag_99:\n        /* \"contracts/_NodeManager.sol\":1108:1115  address */\n      0x00\n        /* \"contracts/_NodeManager.sol\":1128:1144  uint256 numNodes */\n      dup1\n        /* \"contracts/_NodeManager.sol\":1147:1155  allNodes */\n      0x01\n        /* \"contracts/_NodeManager.sol\":1147:1162  allNodes.length */\n      dup1\n      sload\n      swap1\n      pop\n        /* \"contracts/_NodeManager.sol\":1128:1162  uint256 numNodes = allNodes.length */\n      swap1\n      pop\n        /* \"contracts/_NodeManager.sol\":1173:1191  uint256 sizeOffset */\n      0x00\n        /* \"contracts/_NodeManager.sol\":1194:1196  50 */\n      0x32\n        /* \"contracts/_NodeManager.sol\":1173:1196  uint256 sizeOffset = 50 */\n      swap1\n      pop\n        /* \"contracts/_NodeManager.sol\":1225:1226  0 */\n      0x00\n        /* \"contracts/_NodeManager.sol\":1213:1221  numNodes */\n      dup3\n        /* \"contracts/_NodeManager.sol\":1213:1226  numNodes == 0 */\n      sub\n        /* \"contracts/_NodeManager.sol\":1209:1272  if (numNodes == 0) {... */\n      tag_194\n      jumpi\n        /* \"contracts/_NodeManager.sol\":1258:1259  0 */\n      0x00\n        /* \"contracts/_NodeManager.sol\":1243:1260  return address(0) */\n      swap3\n      pop\n      pop\n      pop\n      jump(tag_193)\n        /* \"contracts/_NodeManager.sol\":1209:1272  if (numNodes == 0) {... */\n    tag_194:\n        /* \"contracts/_NodeManager.sol\":1343:1362  uint256 randomIndex */\n      0x00\n        /* \"contracts/_NodeManager.sol\":1404:1412  numNodes */\n      dup3\n        /* \"contracts/_NodeManager.sol\":1398:1399  1 */\n      0x01\n        /* \"contracts/_NodeManager.sol\":1383:1395  block.number */\n      number\n        /* \"contracts/_NodeManager.sol\":1383:1399  block.number - 1 */\n      tag_195\n      swap2\n      swap1\n      tag_110\n      jump\t// in\n    tag_195:\n        /* \"contracts/_NodeManager.sol\":1373:1400  blockhash(block.number - 1) */\n      blockhash\n        /* \"contracts/_NodeManager.sol\":1365:1401  uint256(blockhash(block.number - 1)) */\n      0x00\n      shr\n        /* \"contracts/_NodeManager.sol\":1365:1412  uint256(blockhash(block.number - 1)) % numNodes */\n      tag_196\n      swap2\n      swap1\n      tag_197\n      jump\t// in\n    tag_196:\n        /* \"contracts/_NodeManager.sol\":1343:1412  uint256 randomIndex = uint256(blockhash(block.number - 1)) % numNodes */\n      swap1\n      pop\n        /* \"contracts/_NodeManager.sol\":1506:1515  uint256 i */\n      0x00\n        /* \"contracts/_NodeManager.sol\":1501:1820  for (uint256 i = 0; i < numNodes; i++) {... */\n    tag_198:\n        /* \"contracts/_NodeManager.sol\":1525:1533  numNodes */\n      dup4\n        /* \"contracts/_NodeManager.sol\":1521:1522  i */\n      dup2\n        /* \"contracts/_NodeManager.sol\":1521:1533  i < numNodes */\n      lt\n        /* \"contracts/_NodeManager.sol\":1501:1820  for (uint256 i = 0; i < numNodes; i++) {... */\n      iszero\n      tag_199\n      jumpi\n        /* \"contracts/_NodeManager.sol\":1555:1567  address node */\n      0x00\n        /* \"contracts/_NodeManager.sol\":1570:1578  allNodes */\n      0x01\n        /* \"contracts/_NodeManager.sol\":1599:1607  numNodes */\n      dup6\n        /* \"contracts/_NodeManager.sol\":1594:1595  i */\n      dup4\n        /* \"contracts/_NodeManager.sol\":1580:1591  randomIndex */\n      dup6\n        /* \"contracts/_NodeManager.sol\":1580:1595  randomIndex + i */\n      tag_201\n      swap2\n      swap1\n      tag_144\n      jump\t// in\n    tag_201:\n        /* \"contracts/_NodeManager.sol\":1579:1607  (randomIndex + i) % numNodes */\n      tag_202\n      swap2\n      swap1\n      tag_197\n      jump\t// in\n    tag_202:\n        /* \"contracts/_NodeManager.sol\":1570:1608  allNodes[(randomIndex + i) % numNodes] */\n      dup2\n      sload\n      dup2\n      lt\n      tag_203\n      jumpi\n      tag_204\n      tag_97\n      jump\t// in\n    tag_204:\n    tag_203:\n      swap1\n      0x00\n      mstore\n      keccak256(0x00, 0x20)\n      add\n      0x00\n      swap1\n      sload\n      swap1\n      0x0100\n      exp\n      swap1\n      div\n      0xffffffffffffffffffffffffffffffffffffffff\n      and\n        /* \"contracts/_NodeManager.sol\":1555:1608  address node = allNodes[(randomIndex + i) % numNodes] */\n      swap1\n      pop\n        /* \"contracts/_NodeManager.sol\":1671:1681  sizeOffset */\n      dup4\n        /* \"contracts/_NodeManager.sol\":1658:1668  _chunkSize */\n      dup8\n        /* \"contracts/_NodeManager.sol\":1658:1681  _chunkSize + sizeOffset */\n      tag_206\n      swap2\n      swap1\n      tag_144\n      jump\t// in\n    tag_206:\n        /* \"contracts/_NodeManager.sol\":1627:1632  nodes */\n      0x00\n        /* \"contracts/_NodeManager.sol\":1627:1638  nodes[node] */\n      dup1\n        /* \"contracts/_NodeManager.sol\":1633:1637  node */\n      dup4\n        /* \"contracts/_NodeManager.sol\":1627:1638  nodes[node] */\n      0xffffffffffffffffffffffffffffffffffffffff\n      and\n      0xffffffffffffffffffffffffffffffffffffffff\n      and\n      dup2\n      mstore\n      0x20\n      add\n      swap1\n      dup2\n      mstore\n      0x20\n      add\n      0x00\n      keccak256\n        /* \"contracts/_NodeManager.sol\":1627:1655  nodes[node].availableStorage */\n      0x01\n      add\n      sload\n        /* \"contracts/_NodeManager.sol\":1627:1681  nodes[node].availableStorage > _chunkSize + sizeOffset */\n      gt\n        /* \"contracts/_NodeManager.sol\":1623:1809  if (nodes[node].availableStorage > _chunkSize + sizeOffset) {... */\n      iszero\n      tag_207\n      jumpi\n        /* \"contracts/_NodeManager.sol\":1789:1793  node */\n      dup1\n        /* \"contracts/_NodeManager.sol\":1782:1793  return node */\n      swap6\n      pop\n      pop\n      pop\n      pop\n      pop\n      pop\n      jump(tag_193)\n        /* \"contracts/_NodeManager.sol\":1623:1809  if (nodes[node].availableStorage > _chunkSize + sizeOffset) {... */\n    tag_207:\n        /* \"contracts/_NodeManager.sol\":1540:1820  {... */\n      pop\n        /* \"contracts/_NodeManager.sol\":1535:1538  i++ */\n      dup1\n      dup1\n      0x01\n      add\n      swap2\n      pop\n      pop\n        /* \"contracts/_NodeManager.sol\":1501:1820  for (uint256 i = 0; i < numNodes; i++) {... */\n      jump(tag_198)\n    tag_199:\n      pop\n        /* \"contracts/_NodeManager.sol\":1876:1877  0 */\n      0x00\n        /* \"contracts/_NodeManager.sol\":1861:1878  return address(0) */\n      swap4\n      pop\n      pop\n      pop\n      pop\n        /* \"contracts/_NodeManager.sol\":1038:1887  function findAvailableNode(uint256 _chunkSize) internal view returns (address) {... */\n    tag_193:\n      swap2\n      swap1\n      pop\n      jump\t// out\n    tag_91:\n      dup3\n      dup1\n      sload\n      dup3\n      dup3\n      sstore\n      swap1\n      0x00\n      mstore\n      keccak256(0x00, 0x20)\n      swap1\n      dup2\n      add\n      swap3\n      dup3\n      iszero\n      tag_208\n      jumpi\n      swap2\n      0x20\n      mul\n      dup3\n      add\n    tag_209:\n      dup3\n      dup2\n      gt\n      iszero\n      tag_210\n      jumpi\n      dup3\n      mload\n      dup3\n      swap1\n      dup2\n      tag_211\n      swap2\n      swap1\n      tag_86\n      jump\t// in\n    tag_211:\n      pop\n      swap2\n      0x20\n      add\n      swap2\n      swap1\n      0x01\n      add\n      swap1\n      jump(tag_209)\n    tag_210:\n    tag_208:\n      pop\n      swap1\n      pop\n      tag_212\n      swap2\n      swap1\n      tag_213\n      jump\t// in\n    tag_212:\n      pop\n      swap1\n      jump\t// out\n    tag_123:\n      pop\n      dup1\n      sload\n      tag_214\n      swap1\n      tag_73\n      jump\t// in\n    tag_214:\n      0x00\n      dup3\n      sstore\n      dup1\n      0x1f\n      lt\n      tag_216\n      jumpi\n      pop\n      jump(tag_215)\n    tag_216:\n      0x1f\n      add\n      0x20\n      swap1\n      div\n      swap1\n      0x00\n      mstore\n      keccak256(0x00, 0x20)\n      swap1\n      dup2\n      add\n      swap1\n      tag_217\n      swap2\n      swap1\n      tag_218\n      jump\t// in\n    tag_217:\n    tag_215:\n      pop\n      jump\t// out\n    tag_126:\n      pop\n      dup1\n      sload\n      0x00\n      dup3\n      sstore\n      swap1\n      0x00\n      mstore\n      keccak256(0x00, 0x20)\n      swap1\n      dup2\n      add\n      swap1\n      tag_220\n      swap2\n      swap1\n      tag_218\n      jump\t// in\n    tag_220:\n      pop\n      jump\t// out\n    tag_129:\n      pop\n      dup1\n      sload\n      0x00\n      dup3\n      sstore\n      swap1\n      0x00\n      mstore\n      keccak256(0x00, 0x20)\n      swap1\n      dup2\n      add\n      swap1\n      tag_222\n      swap2\n      swap1\n      tag_213\n      jump\t// in\n    tag_222:\n      pop\n      jump\t// out\n    tag_213:\n    tag_223:\n      dup1\n      dup3\n      gt\n      iszero\n      tag_224\n      jumpi\n      0x00\n      dup2\n      dup2\n      tag_225\n      swap2\n      swap1\n      tag_123\n      jump\t// in\n    tag_225:\n      pop\n      0x01\n      add\n      jump(tag_223)\n    tag_224:\n      pop\n      swap1\n      jump\t// out\n    tag_218:\n    tag_226:\n      dup1\n      dup3\n      gt\n      iszero\n      tag_227\n      jumpi\n      0x00\n      dup2\n      0x00\n      swap1\n      sstore\n      pop\n      0x01\n      add\n      jump(tag_226)\n    tag_227:\n      pop\n      swap1\n      jump\t// out\n        /* \"#utility.yul\":7:82   */\n    tag_228:\n        /* \"#utility.yul\":40:46   */\n      0x00\n        /* \"#utility.yul\":73:75   */\n      0x40\n        /* \"#utility.yul\":67:76   */\n      mload\n        /* \"#utility.yul\":57:76   */\n      swap1\n      pop\n        /* \"#utility.yul\":7:82   */\n      swap1\n      jump\t// out\n        /* \"#utility.yul\":88:205   */\n    tag_229:\n        /* \"#utility.yul\":197:198   */\n      0x00\n        /* \"#utility.yul\":194:195   */\n      dup1\n        /* \"#utility.yul\":187:199   */\n      revert\n        /* \"#utility.yul\":211:328   */\n    tag_230:\n        /* \"#utility.yul\":320:321   */\n      0x00\n        /* \"#utility.yul\":317:318   */\n      dup1\n        /* \"#utility.yul\":310:322   */\n      revert\n        /* \"#utility.yul\":334:460   */\n    tag_231:\n        /* \"#utility.yul\":371:378   */\n      0x00\n        /* \"#utility.yul\":411:453   */\n      0xffffffffffffffffffffffffffffffffffffffff\n        /* \"#utility.yul\":404:409   */\n      dup3\n        /* \"#utility.yul\":400:454   */\n      and\n        /* \"#utility.yul\":389:454   */\n      swap1\n      pop\n        /* \"#utility.yul\":334:460   */\n      swap2\n      swap1\n      pop\n      jump\t// out\n        /* \"#utility.yul\":466:562   */\n    tag_232:\n        /* \"#utility.yul\":503:510   */\n      0x00\n        /* \"#utility.yul\":532:556   */\n      tag_298\n        /* \"#utility.yul\":550:555   */\n      dup3\n        /* \"#utility.yul\":532:556   */\n      tag_231\n      jump\t// in\n    tag_298:\n        /* \"#utility.yul\":521:556   */\n      swap1\n      pop\n        /* \"#utility.yul\":466:562   */\n      swap2\n      swap1\n      pop\n      jump\t// out\n        /* \"#utility.yul\":568:690   */\n    tag_233:\n        /* \"#utility.yul\":641:665   */\n      tag_300\n        /* \"#utility.yul\":659:664   */\n      dup2\n        /* \"#utility.yul\":641:665   */\n      tag_232\n      jump\t// in\n    tag_300:\n        /* \"#utility.yul\":634:639   */\n      dup2\n        /* \"#utility.yul\":631:666   */\n      eq\n        /* \"#utility.yul\":621:684   */\n      tag_301\n      jumpi\n        /* \"#utility.yul\":680:681   */\n      0x00\n        /* \"#utility.yul\":677:678   */\n      dup1\n        /* \"#utility.yul\":670:682   */\n      revert\n        /* \"#utility.yul\":621:684   */\n    tag_301:\n        /* \"#utility.yul\":568:690   */\n      pop\n      jump\t// out\n        /* \"#utility.yul\":696:835   */\n    tag_234:\n        /* \"#utility.yul\":742:747   */\n      0x00\n        /* \"#utility.yul\":780:786   */\n      dup2\n        /* \"#utility.yul\":767:787   */\n      calldataload\n        /* \"#utility.yul\":758:787   */\n      swap1\n      pop\n        /* \"#utility.yul\":796:829   */\n      tag_303\n        /* \"#utility.yul\":823:828   */\n      dup2\n        /* \"#utility.yul\":796:829   */\n      tag_233\n      jump\t// in\n    tag_303:\n        /* \"#utility.yul\":696:835   */\n      swap3\n      swap2\n      pop\n      pop\n      jump\t// out\n        /* \"#utility.yul\":841:918   */\n    tag_235:\n        /* \"#utility.yul\":878:885   */\n      0x00\n        /* \"#utility.yul\":907:912   */\n      dup2\n        /* \"#utility.yul\":896:912   */\n      swap1\n      pop\n        /* \"#utility.yul\":841:918   */\n      swap2\n      swap1\n      pop\n      jump\t// out\n        /* \"#utility.yul\":924:1046   */\n    tag_236:\n        /* \"#utility.yul\":997:1021   */\n      tag_306\n        /* \"#utility.yul\":1015:1020   */\n      dup2\n        /* \"#utility.yul\":997:1021   */\n      tag_235\n      jump\t// in\n    tag_306:\n        /* \"#utility.yul\":990:995   */\n      dup2\n        /* \"#utility.yul\":987:1022   */\n      eq\n        /* \"#utility.yul\":977:1040   */\n      tag_307\n      jumpi\n        /* \"#utility.yul\":1036:1037   */\n      0x00\n        /* \"#utility.yul\":1033:1034   */\n      dup1\n        /* \"#utility.yul\":1026:1038   */\n      revert\n        /* \"#utility.yul\":977:1040   */\n    tag_307:\n        /* \"#utility.yul\":924:1046   */\n      pop\n      jump\t// out\n        /* \"#utility.yul\":1052:1191   */\n    tag_237:\n        /* \"#utility.yul\":1098:1103   */\n      0x00\n        /* \"#utility.yul\":1136:1142   */\n      dup2\n        /* \"#utility.yul\":1123:1143   */\n      calldataload\n        /* \"#utility.yul\":1114:1143   */\n      swap1\n      pop\n        /* \"#utility.yul\":1152:1185   */\n      tag_309\n        /* \"#utility.yul\":1179:1184   */\n      dup2\n        /* \"#utility.yul\":1152:1185   */\n      tag_236\n      jump\t// in\n    tag_309:\n        /* \"#utility.yul\":1052:1191   */\n      swap3\n      swap2\n      pop\n      pop\n      jump\t// out\n        /* \"#utility.yul\":1197:1671   */\n    tag_16:\n        /* \"#utility.yul\":1265:1271   */\n      0x00\n        /* \"#utility.yul\":1273:1279   */\n      dup1\n        /* \"#utility.yul\":1322:1324   */\n      0x40\n        /* \"#utility.yul\":1310:1319   */\n      dup4\n        /* \"#utility.yul\":1301:1308   */\n      dup6\n        /* \"#utility.yul\":1297:1320   */\n      sub\n        /* \"#utility.yul\":1293:1325   */\n      slt\n        /* \"#utility.yul\":1290:1409   */\n      iszero\n      tag_311\n      jumpi\n        /* \"#utility.yul\":1328:1407   */\n      tag_312\n      tag_229\n      jump\t// in\n    tag_312:\n        /* \"#utility.yul\":1290:1409   */\n    tag_311:\n        /* \"#utility.yul\":1448:1449   */\n      0x00\n        /* \"#utility.yul\":1473:1526   */\n      tag_313\n        /* \"#utility.yul\":1518:1525   */\n      dup6\n        /* \"#utility.yul\":1509:1515   */\n      dup3\n        /* \"#utility.yul\":1498:1507   */\n      dup7\n        /* \"#utility.yul\":1494:1516   */\n      add\n        /* \"#utility.yul\":1473:1526   */\n      tag_234\n      jump\t// in\n    tag_313:\n        /* \"#utility.yul\":1463:1526   */\n      swap3\n      pop\n        /* \"#utility.yul\":1419:1536   */\n      pop\n        /* \"#utility.yul\":1575:1577   */\n      0x20\n        /* \"#utility.yul\":1601:1654   */\n      tag_314\n        /* \"#utility.yul\":1646:1653   */\n      dup6\n        /* \"#utility.yul\":1637:1643   */\n      dup3\n        /* \"#utility.yul\":1626:1635   */\n      dup7\n        /* \"#utility.yul\":1622:1644   */\n      add\n        /* \"#utility.yul\":1601:1654   */\n      tag_237\n      jump\t// in\n    tag_314:\n        /* \"#utility.yul\":1591:1654   */\n      swap2\n      pop\n        /* \"#utility.yul\":1546:1664   */\n      pop\n        /* \"#utility.yul\":1197:1671   */\n      swap3\n      pop\n      swap3\n      swap1\n      pop\n      jump\t// out\n        /* \"#utility.yul\":1677:2006   */\n    tag_20:\n        /* \"#utility.yul\":1736:1742   */\n      0x00\n        /* \"#utility.yul\":1785:1787   */\n      0x20\n        /* \"#utility.yul\":1773:1782   */\n      dup3\n        /* \"#utility.yul\":1764:1771   */\n      dup5\n        /* \"#utility.yul\":1760:1783   */\n      sub\n        /* \"#utility.yul\":1756:1788   */\n      slt\n        /* \"#utility.yul\":1753:1872   */\n      iszero\n      tag_316\n      jumpi\n        /* \"#utility.yul\":1791:1870   */\n      tag_317\n      tag_229\n      jump\t// in\n    tag_317:\n        /* \"#utility.yul\":1753:1872   */\n    tag_316:\n        /* \"#utility.yul\":1911:1912   */\n      0x00\n        /* \"#utility.yul\":1936:1989   */\n      tag_318\n        /* \"#utility.yul\":1981:1988   */\n      dup5\n        /* \"#utility.yul\":1972:1978   */\n      dup3\n        /* \"#utility.yul\":1961:1970   */\n      dup6\n        /* \"#utility.yul\":1957:1979   */\n      add\n        /* \"#utility.yul\":1936:1989   */\n      tag_234\n      jump\t// in\n    tag_318:\n        /* \"#utility.yul\":1926:1989   */\n      swap2\n      pop\n        /* \"#utility.yul\":1882:1999   */\n      pop\n        /* \"#utility.yul\":1677:2006   */\n      swap3\n      swap2\n      pop\n      pop\n      jump\t// out\n        /* \"#utility.yul\":2012:2130   */\n    tag_238:\n        /* \"#utility.yul\":2099:2123   */\n      tag_320\n        /* \"#utility.yul\":2117:2122   */\n      dup2\n        /* \"#utility.yul\":2099:2123   */\n      tag_232\n      jump\t// in\n    tag_320:\n        /* \"#utility.yul\":2094:2097   */\n      dup3\n        /* \"#utility.yul\":2087:2124   */\n      mstore\n        /* \"#utility.yul\":2012:2130   */\n      pop\n      pop\n      jump\t// out\n        /* \"#utility.yul\":2136:2254   */\n    tag_239:\n        /* \"#utility.yul\":2223:2247   */\n      tag_322\n        /* \"#utility.yul\":2241:2246   */\n      dup2\n        /* \"#utility.yul\":2223:2247   */\n      tag_235\n      jump\t// in\n    tag_322:\n        /* \"#utility.yul\":2218:2221   */\n      dup3\n        /* \"#utility.yul\":2211:2248   */\n      mstore\n        /* \"#utility.yul\":2136:2254   */\n      pop\n      pop\n      jump\t// out\n        /* \"#utility.yul\":2260:2592   */\n    tag_23:\n        /* \"#utility.yul\":2381:2385   */\n      0x00\n        /* \"#utility.yul\":2419:2421   */\n      0x40\n        /* \"#utility.yul\":2408:2417   */\n      dup3\n        /* \"#utility.yul\":2404:2422   */\n      add\n        /* \"#utility.yul\":2396:2422   */\n      swap1\n      pop\n        /* \"#utility.yul\":2432:2503   */\n      tag_324\n        /* \"#utility.yul\":2500:2501   */\n      0x00\n        /* \"#utility.yul\":2489:2498   */\n      dup4\n        /* \"#utility.yul\":2485:2502   */\n      add\n        /* \"#utility.yul\":2476:2482   */\n      dup6\n        /* \"#utility.yul\":2432:2503   */\n      tag_238\n      jump\t// in\n    tag_324:\n        /* \"#utility.yul\":2513:2585   */\n      tag_325\n        /* \"#utility.yul\":2581:2583   */\n      0x20\n        /* \"#utility.yul\":2570:2579   */\n      dup4\n        /* \"#utility.yul\":2566:2584   */\n      add\n        /* \"#utility.yul\":2557:2563   */\n      dup5\n        /* \"#utility.yul\":2513:2585   */\n      tag_239\n      jump\t// in\n    tag_325:\n        /* \"#utility.yul\":2260:2592   */\n      swap4\n      swap3\n      pop\n      pop\n      pop\n      jump\t// out\n        /* \"#utility.yul\":2598:2715   */\n    tag_240:\n        /* \"#utility.yul\":2707:2708   */\n      0x00\n        /* \"#utility.yul\":2704:2705   */\n      dup1\n        /* \"#utility.yul\":2697:2709   */\n      revert\n        /* \"#utility.yul\":2721:2838   */\n    tag_241:\n        /* \"#utility.yul\":2830:2831   */\n      0x00\n        /* \"#utility.yul\":2827:2828   */\n      dup1\n        /* \"#utility.yul\":2820:2832   */\n      revert\n        /* \"#utility.yul\":2844:2946   */\n    tag_242:\n        /* \"#utility.yul\":2885:2891   */\n      0x00\n        /* \"#utility.yul\":2936:2938   */\n      0x1f\n        /* \"#utility.yul\":2932:2939   */\n      not\n        /* \"#utility.yul\":2927:2929   */\n      0x1f\n        /* \"#utility.yul\":2920:2925   */\n      dup4\n        /* \"#utility.yul\":2916:2930   */\n      add\n        /* \"#utility.yul\":2912:2940   */\n      and\n        /* \"#utility.yul\":2902:2940   */\n      swap1\n      pop\n        /* \"#utility.yul\":2844:2946   */\n      swap2\n      swap1\n      pop\n      jump\t// out\n        /* \"#utility.yul\":2952:3132   */\n    tag_147:\n        /* \"#utility.yul\":3000:3077   */\n      0x4e487b7100000000000000000000000000000000000000000000000000000000\n        /* \"#utility.yul\":2997:2998   */\n      0x00\n        /* \"#utility.yul\":2990:3078   */\n      mstore\n        /* \"#utility.yul\":3097:3101   */\n      0x41\n        /* \"#utility.yul\":3094:3095   */\n      0x04\n        /* \"#utility.yul\":3087:3102   */\n      mstore\n        /* \"#utility.yul\":3121:3125   */\n      0x24\n        /* \"#utility.yul\":3118:3119   */\n      0x00\n        /* \"#utility.yul\":3111:3126   */\n      revert\n        /* \"#utility.yul\":3138:3419   */\n    tag_243:\n        /* \"#utility.yul\":3221:3248   */\n      tag_331\n        /* \"#utility.yul\":3243:3247   */\n      dup3\n        /* \"#utility.yul\":3221:3248   */\n      tag_242\n      jump\t// in\n    tag_331:\n        /* \"#utility.yul\":3213:3219   */\n      dup2\n        /* \"#utility.yul\":3209:3249   */\n      add\n        /* \"#utility.yul\":3351:3357   */\n      dup2\n        /* \"#utility.yul\":3339:3349   */\n      dup2\n        /* \"#utility.yul\":3336:3358   */\n      lt\n        /* \"#utility.yul\":3315:3333   */\n      0xffffffffffffffff\n        /* \"#utility.yul\":3303:3313   */\n      dup3\n        /* \"#utility.yul\":3300:3334   */\n      gt\n        /* \"#utility.yul\":3297:3359   */\n      or\n        /* \"#utility.yul\":3294:3382   */\n      iszero\n      tag_332\n      jumpi\n        /* \"#utility.yul\":3362:3380   */\n      tag_333\n      tag_147\n      jump\t// in\n    tag_333:\n        /* \"#utility.yul\":3294:3382   */\n    tag_332:\n        /* \"#utility.yul\":3402:3412   */\n      dup1\n        /* \"#utility.yul\":3398:3400   */\n      0x40\n        /* \"#utility.yul\":3391:3413   */\n      mstore\n        /* \"#utility.yul\":3181:3419   */\n      pop\n        /* \"#utility.yul\":3138:3419   */\n      pop\n      pop\n      jump\t// out\n        /* \"#utility.yul\":3425:3554   */\n    tag_244:\n        /* \"#utility.yul\":3459:3465   */\n      0x00\n        /* \"#utility.yul\":3486:3506   */\n      tag_335\n      tag_228\n      jump\t// in\n    tag_335:\n        /* \"#utility.yul\":3476:3506   */\n      swap1\n      pop\n        /* \"#utility.yul\":3515:3548   */\n      tag_336\n        /* \"#utility.yul\":3543:3547   */\n      dup3\n        /* \"#utility.yul\":3535:3541   */\n      dup3\n        /* \"#utility.yul\":3515:3548   */\n      tag_243\n      jump\t// in\n    tag_336:\n        /* \"#utility.yul\":3425:3554   */\n      swap2\n      swap1\n      pop\n      jump\t// out\n        /* \"#utility.yul\":3560:3868   */\n    tag_245:\n        /* \"#utility.yul\":3622:3626   */\n      0x00\n        /* \"#utility.yul\":3712:3730   */\n      0xffffffffffffffff\n        /* \"#utility.yul\":3704:3710   */\n      dup3\n        /* \"#utility.yul\":3701:3731   */\n      gt\n        /* \"#utility.yul\":3698:3754   */\n      iszero\n      tag_338\n      jumpi\n        /* \"#utility.yul\":3734:3752   */\n      tag_339\n      tag_147\n      jump\t// in\n    tag_339:\n        /* \"#utility.yul\":3698:3754   */\n    tag_338:\n        /* \"#utility.yul\":3772:3801   */\n      tag_340\n        /* \"#utility.yul\":3794:3800   */\n      dup3\n        /* \"#utility.yul\":3772:3801   */\n      tag_242\n      jump\t// in\n    tag_340:\n        /* \"#utility.yul\":3764:3801   */\n      swap1\n      pop\n        /* \"#utility.yul\":3856:3860   */\n      0x20\n        /* \"#utility.yul\":3850:3854   */\n      dup2\n        /* \"#utility.yul\":3846:3861   */\n      add\n        /* \"#utility.yul\":3838:3861   */\n      swap1\n      pop\n        /* \"#utility.yul\":3560:3868   */\n      swap2\n      swap1\n      pop\n      jump\t// out\n        /* \"#utility.yul\":3874:4020   */\n    tag_246:\n        /* \"#utility.yul\":3971:3977   */\n      dup3\n        /* \"#utility.yul\":3966:3969   */\n      dup2\n        /* \"#utility.yul\":3961:3964   */\n      dup4\n        /* \"#utility.yul\":3948:3978   */\n      calldatacopy\n        /* \"#utility.yul\":4012:4013   */\n      0x00\n        /* \"#utility.yul\":4003:4009   */\n      dup4\n        /* \"#utility.yul\":3998:4001   */\n      dup4\n        /* \"#utility.yul\":3994:4010   */\n      add\n        /* \"#utility.yul\":3987:4014   */\n      mstore\n        /* \"#utility.yul\":3874:4020   */\n      pop\n      pop\n      pop\n      jump\t// out\n        /* \"#utility.yul\":4026:4451   */\n    tag_247:\n        /* \"#utility.yul\":4104:4109   */\n      0x00\n        /* \"#utility.yul\":4129:4195   */\n      tag_343\n        /* \"#utility.yul\":4145:4194   */\n      tag_344\n        /* \"#utility.yul\":4187:4193   */\n      dup5\n        /* \"#utility.yul\":4145:4194   */\n      tag_245\n      jump\t// in\n    tag_344:\n        /* \"#utility.yul\":4129:4195   */\n      tag_244\n      jump\t// in\n    tag_343:\n        /* \"#utility.yul\":4120:4195   */\n      swap1\n      pop\n        /* \"#utility.yul\":4218:4224   */\n      dup3\n        /* \"#utility.yul\":4211:4216   */\n      dup2\n        /* \"#utility.yul\":4204:4225   */\n      mstore\n        /* \"#utility.yul\":4256:4260   */\n      0x20\n        /* \"#utility.yul\":4249:4254   */\n      dup2\n        /* \"#utility.yul\":4245:4261   */\n      add\n        /* \"#utility.yul\":4294:4297   */\n      dup5\n        /* \"#utility.yul\":4285:4291   */\n      dup5\n        /* \"#utility.yul\":4280:4283   */\n      dup5\n        /* \"#utility.yul\":4276:4292   */\n      add\n        /* \"#utility.yul\":4273:4298   */\n      gt\n        /* \"#utility.yul\":4270:4382   */\n      iszero\n      tag_345\n      jumpi\n        /* \"#utility.yul\":4301:4380   */\n      tag_346\n      tag_241\n      jump\t// in\n    tag_346:\n        /* \"#utility.yul\":4270:4382   */\n    tag_345:\n        /* \"#utility.yul\":4391:4445   */\n      tag_347\n        /* \"#utility.yul\":4438:4444   */\n      dup5\n        /* \"#utility.yul\":4433:4436   */\n      dup3\n        /* \"#utility.yul\":4428:4431   */\n      dup6\n        /* \"#utility.yul\":4391:4445   */\n      tag_246\n      jump\t// in\n    tag_347:\n        /* \"#utility.yul\":4110:4451   */\n      pop\n        /* \"#utility.yul\":4026:4451   */\n      swap4\n      swap3\n      pop\n      pop\n      pop\n      jump\t// out\n        /* \"#utility.yul\":4471:4811   */\n    tag_248:\n        /* \"#utility.yul\":4527:4532   */\n      0x00\n        /* \"#utility.yul\":4576:4579   */\n      dup3\n        /* \"#utility.yul\":4569:4573   */\n      0x1f\n        /* \"#utility.yul\":4561:4567   */\n      dup4\n        /* \"#utility.yul\":4557:4574   */\n      add\n        /* \"#utility.yul\":4553:4580   */\n      slt\n        /* \"#utility.yul\":4543:4665   */\n      tag_349\n      jumpi\n        /* \"#utility.yul\":4584:4663   */\n      tag_350\n      tag_240\n      jump\t// in\n    tag_350:\n        /* \"#utility.yul\":4543:4665   */\n    tag_349:\n        /* \"#utility.yul\":4701:4707   */\n      dup2\n        /* \"#utility.yul\":4688:4708   */\n      calldataload\n        /* \"#utility.yul\":4726:4805   */\n      tag_351\n        /* \"#utility.yul\":4801:4804   */\n      dup5\n        /* \"#utility.yul\":4793:4799   */\n      dup3\n        /* \"#utility.yul\":4786:4790   */\n      0x20\n        /* \"#utility.yul\":4778:4784   */\n      dup7\n        /* \"#utility.yul\":4774:4791   */\n      add\n        /* \"#utility.yul\":4726:4805   */\n      tag_247\n      jump\t// in\n    tag_351:\n        /* \"#utility.yul\":4717:4805   */\n      swap2\n      pop\n        /* \"#utility.yul\":4533:4811   */\n      pop\n        /* \"#utility.yul\":4471:4811   */\n      swap3\n      swap2\n      pop\n      pop\n      jump\t// out\n        /* \"#utility.yul\":4817:5326   */\n    tag_26:\n        /* \"#utility.yul\":4886:4892   */\n      0x00\n        /* \"#utility.yul\":4935:4937   */\n      0x20\n        /* \"#utility.yul\":4923:4932   */\n      dup3\n        /* \"#utility.yul\":4914:4921   */\n      dup5\n        /* \"#utility.yul\":4910:4933   */\n      sub\n        /* \"#utility.yul\":4906:4938   */\n      slt\n        /* \"#utility.yul\":4903:5022   */\n      iszero\n      tag_353\n      jumpi\n        /* \"#utility.yul\":4941:5020   */\n      tag_354\n      tag_229\n      jump\t// in\n    tag_354:\n        /* \"#utility.yul\":4903:5022   */\n    tag_353:\n        /* \"#utility.yul\":5089:5090   */\n      0x00\n        /* \"#utility.yul\":5078:5087   */\n      dup3\n        /* \"#utility.yul\":5074:5091   */\n      add\n        /* \"#utility.yul\":5061:5092   */\n      calldataload\n        /* \"#utility.yul\":5119:5137   */\n      0xffffffffffffffff\n        /* \"#utility.yul\":5111:5117   */\n      dup2\n        /* \"#utility.yul\":5108:5138   */\n      gt\n        /* \"#utility.yul\":5105:5222   */\n      iszero\n      tag_355\n      jumpi\n        /* \"#utility.yul\":5141:5220   */\n      tag_356\n      tag_230\n      jump\t// in\n    tag_356:\n        /* \"#utility.yul\":5105:5222   */\n    tag_355:\n        /* \"#utility.yul\":5246:5309   */\n      tag_357\n        /* \"#utility.yul\":5301:5308   */\n      dup5\n        /* \"#utility.yul\":5292:5298   */\n      dup3\n        /* \"#utility.yul\":5281:5290   */\n      dup6\n        /* \"#utility.yul\":5277:5299   */\n      add\n        /* \"#utility.yul\":5246:5309   */\n      tag_248\n      jump\t// in\n    tag_357:\n        /* \"#utility.yul\":5236:5309   */\n      swap2\n      pop\n        /* \"#utility.yul\":5032:5319   */\n      pop\n        /* \"#utility.yul\":4817:5326   */\n      swap3\n      swap2\n      pop\n      pop\n      jump\t// out\n        /* \"#utility.yul\":5332:5431   */\n    tag_249:\n        /* \"#utility.yul\":5384:5390   */\n      0x00\n        /* \"#utility.yul\":5418:5423   */\n      dup2\n        /* \"#utility.yul\":5412:5424   */\n      mload\n        /* \"#utility.yul\":5402:5424   */\n      swap1\n      pop\n        /* \"#utility.yul\":5332:5431   */\n      swap2\n      swap1\n      pop\n      jump\t// out\n        /* \"#utility.yul\":5437:5606   */\n    tag_250:\n        /* \"#utility.yul\":5521:5532   */\n      0x00\n        /* \"#utility.yul\":5555:5561   */\n      dup3\n        /* \"#utility.yul\":5550:5553   */\n      dup3\n        /* \"#utility.yul\":5543:5562   */\n      mstore\n        /* \"#utility.yul\":5595:5599   */\n      0x20\n        /* \"#utility.yul\":5590:5593   */\n      dup3\n        /* \"#utility.yul\":5586:5600   */\n      add\n        /* \"#utility.yul\":5571:5600   */\n      swap1\n      pop\n        /* \"#utility.yul\":5437:5606   */\n      swap3\n      swap2\n      pop\n      pop\n      jump\t// out\n        /* \"#utility.yul\":5612:5858   */\n    tag_251:\n        /* \"#utility.yul\":5693:5694   */\n      0x00\n        /* \"#utility.yul\":5703:5816   */\n    tag_361:\n        /* \"#utility.yul\":5717:5723   */\n      dup4\n        /* \"#utility.yul\":5714:5715   */\n      dup2\n        /* \"#utility.yul\":5711:5724   */\n      lt\n        /* \"#utility.yul\":5703:5816   */\n      iszero\n      tag_363\n      jumpi\n        /* \"#utility.yul\":5802:5803   */\n      dup1\n        /* \"#utility.yul\":5797:5800   */\n      dup3\n        /* \"#utility.yul\":5793:5804   */\n      add\n        /* \"#utility.yul\":5787:5805   */\n      mload\n        /* \"#utility.yul\":5783:5784   */\n      dup2\n        /* \"#utility.yul\":5778:5781   */\n      dup5\n        /* \"#utility.yul\":5774:5785   */\n      add\n        /* \"#utility.yul\":5767:5806   */\n      mstore\n        /* \"#utility.yul\":5739:5741   */\n      0x20\n        /* \"#utility.yul\":5736:5737   */\n      dup2\n        /* \"#utility.yul\":5732:5742   */\n      add\n        /* \"#utility.yul\":5727:5742   */\n      swap1\n      pop\n        /* \"#utility.yul\":5703:5816   */\n      jump(tag_361)\n    tag_363:\n        /* \"#utility.yul\":5850:5851   */\n      0x00\n        /* \"#utility.yul\":5841:5847   */\n      dup5\n        /* \"#utility.yul\":5836:5839   */\n      dup5\n        /* \"#utility.yul\":5832:5848   */\n      add\n        /* \"#utility.yul\":5825:5852   */\n      mstore\n        /* \"#utility.yul\":5674:5858   */\n      pop\n        /* \"#utility.yul\":5612:5858   */\n      pop\n      pop\n      pop\n      jump\t// out\n        /* \"#utility.yul\":5864:6241   */\n    tag_252:\n        /* \"#utility.yul\":5952:5955   */\n      0x00\n        /* \"#utility.yul\":5980:6019   */\n      tag_365\n        /* \"#utility.yul\":6013:6018   */\n      dup3\n        /* \"#utility.yul\":5980:6019   */\n      tag_249\n      jump\t// in\n    tag_365:\n        /* \"#utility.yul\":6035:6106   */\n      tag_366\n        /* \"#utility.yul\":6099:6105   */\n      dup2\n        /* \"#utility.yul\":6094:6097   */\n      dup6\n        /* \"#utility.yul\":6035:6106   */\n      tag_250\n      jump\t// in\n    tag_366:\n        /* \"#utility.yul\":6028:6106   */\n      swap4\n      pop\n        /* \"#utility.yul\":6115:6180   */\n      tag_367\n        /* \"#utility.yul\":6173:6179   */\n      dup2\n        /* \"#utility.yul\":6168:6171   */\n      dup6\n        /* \"#utility.yul\":6161:6165   */\n      0x20\n        /* \"#utility.yul\":6154:6159   */\n      dup7\n        /* \"#utility.yul\":6150:6166   */\n      add\n        /* \"#utility.yul\":6115:6180   */\n      tag_251\n      jump\t// in\n    tag_367:\n        /* \"#utility.yul\":6205:6234   */\n      tag_368\n        /* \"#utility.yul\":6227:6233   */\n      dup2\n        /* \"#utility.yul\":6205:6234   */\n      tag_242\n      jump\t// in\n    tag_368:\n        /* \"#utility.yul\":6200:6203   */\n      dup5\n        /* \"#utility.yul\":6196:6235   */\n      add\n        /* \"#utility.yul\":6189:6235   */\n      swap2\n      pop\n        /* \"#utility.yul\":5956:6241   */\n      pop\n        /* \"#utility.yul\":5864:6241   */\n      swap3\n      swap2\n      pop\n      pop\n      jump\t// out\n        /* \"#utility.yul\":6247:6560   */\n    tag_29:\n        /* \"#utility.yul\":6360:6364   */\n      0x00\n        /* \"#utility.yul\":6398:6400   */\n      0x20\n        /* \"#utility.yul\":6387:6396   */\n      dup3\n        /* \"#utility.yul\":6383:6401   */\n      add\n        /* \"#utility.yul\":6375:6401   */\n      swap1\n      pop\n        /* \"#utility.yul\":6447:6456   */\n      dup2\n        /* \"#utility.yul\":6441:6445   */\n      dup2\n        /* \"#utility.yul\":6437:6457   */\n      sub\n        /* \"#utility.yul\":6433:6434   */\n      0x00\n        /* \"#utility.yul\":6422:6431   */\n      dup4\n        /* \"#utility.yul\":6418:6435   */\n      add\n        /* \"#utility.yul\":6411:6458   */\n      mstore\n        /* \"#utility.yul\":6475:6553   */\n      tag_370\n        /* \"#utility.yul\":6548:6552   */\n      dup2\n        /* \"#utility.yul\":6539:6545   */\n      dup5\n        /* \"#utility.yul\":6475:6553   */\n      tag_252\n      jump\t// in\n    tag_370:\n        /* \"#utility.yul\":6467:6553   */\n      swap1\n      pop\n        /* \"#utility.yul\":6247:6560   */\n      swap3\n      swap2\n      pop\n      pop\n      jump\t// out\n        /* \"#utility.yul\":6566:7725   */\n    tag_32:\n        /* \"#utility.yul\":6673:6679   */\n      0x00\n        /* \"#utility.yul\":6681:6687   */\n      dup1\n        /* \"#utility.yul\":6689:6695   */\n      0x00\n        /* \"#utility.yul\":6738:6740   */\n      0x60\n        /* \"#utility.yul\":6726:6735   */\n      dup5\n        /* \"#utility.yul\":6717:6724   */\n      dup7\n        /* \"#utility.yul\":6713:6736   */\n      sub\n        /* \"#utility.yul\":6709:6741   */\n      slt\n        /* \"#utility.yul\":6706:6825   */\n      iszero\n      tag_372\n      jumpi\n        /* \"#utility.yul\":6744:6823   */\n      tag_373\n      tag_229\n      jump\t// in\n    tag_373:\n        /* \"#utility.yul\":6706:6825   */\n    tag_372:\n        /* \"#utility.yul\":6892:6893   */\n      0x00\n        /* \"#utility.yul\":6881:6890   */\n      dup5\n        /* \"#utility.yul\":6877:6894   */\n      add\n        /* \"#utility.yul\":6864:6895   */\n      calldataload\n        /* \"#utility.yul\":6922:6940   */\n      0xffffffffffffffff\n        /* \"#utility.yul\":6914:6920   */\n      dup2\n        /* \"#utility.yul\":6911:6941   */\n      gt\n        /* \"#utility.yul\":6908:7025   */\n      iszero\n      tag_374\n      jumpi\n        /* \"#utility.yul\":6944:7023   */\n      tag_375\n      tag_230\n      jump\t// in\n    tag_375:\n        /* \"#utility.yul\":6908:7025   */\n    tag_374:\n        /* \"#utility.yul\":7049:7112   */\n      tag_376\n        /* \"#utility.yul\":7104:7111   */\n      dup7\n        /* \"#utility.yul\":7095:7101   */\n      dup3\n        /* \"#utility.yul\":7084:7093   */\n      dup8\n        /* \"#utility.yul\":7080:7102   */\n      add\n        /* \"#utility.yul\":7049:7112   */\n      tag_248\n      jump\t// in\n    tag_376:\n        /* \"#utility.yul\":7039:7112   */\n      swap4\n      pop\n        /* \"#utility.yul\":6835:7122   */\n      pop\n        /* \"#utility.yul\":7189:7191   */\n      0x20\n        /* \"#utility.yul\":7178:7187   */\n      dup5\n        /* \"#utility.yul\":7174:7192   */\n      add\n        /* \"#utility.yul\":7161:7193   */\n      calldataload\n        /* \"#utility.yul\":7220:7238   */\n      0xffffffffffffffff\n        /* \"#utility.yul\":7212:7218   */\n      dup2\n        /* \"#utility.yul\":7209:7239   */\n      gt\n        /* \"#utility.yul\":7206:7323   */\n      iszero\n      tag_377\n      jumpi\n        /* \"#utility.yul\":7242:7321   */\n      tag_378\n      tag_230\n      jump\t// in\n    tag_378:\n        /* \"#utility.yul\":7206:7323   */\n    tag_377:\n        /* \"#utility.yul\":7347:7410   */\n      tag_379\n        /* \"#utility.yul\":7402:7409   */\n      dup7\n        /* \"#utility.yul\":7393:7399   */\n      dup3\n        /* \"#utility.yul\":7382:7391   */\n      dup8\n        /* \"#utility.yul\":7378:7400   */\n      add\n        /* \"#utility.yul\":7347:7410   */\n      tag_248\n      jump\t// in\n    tag_379:\n        /* \"#utility.yul\":7337:7410   */\n      swap3\n      pop\n        /* \"#utility.yul\":7132:7420   */\n      pop\n        /* \"#utility.yul\":7487:7489   */\n      0x40\n        /* \"#utility.yul\":7476:7485   */\n      dup5\n        /* \"#utility.yul\":7472:7490   */\n      add\n        /* \"#utility.yul\":7459:7491   */\n      calldataload\n        /* \"#utility.yul\":7518:7536   */\n      0xffffffffffffffff\n        /* \"#utility.yul\":7510:7516   */\n      dup2\n        /* \"#utility.yul\":7507:7537   */\n      gt\n        /* \"#utility.yul\":7504:7621   */\n      iszero\n      tag_380\n      jumpi\n        /* \"#utility.yul\":7540:7619   */\n      tag_381\n      tag_230\n      jump\t// in\n    tag_381:\n        /* \"#utility.yul\":7504:7621   */\n    tag_380:\n        /* \"#utility.yul\":7645:7708   */\n      tag_382\n        /* \"#utility.yul\":7700:7707   */\n      dup7\n        /* \"#utility.yul\":7691:7697   */\n      dup3\n        /* \"#utility.yul\":7680:7689   */\n      dup8\n        /* \"#utility.yul\":7676:7698   */\n      add\n        /* \"#utility.yul\":7645:7708   */\n      tag_248\n      jump\t// in\n    tag_382:\n        /* \"#utility.yul\":7635:7708   */\n      swap2\n      pop\n        /* \"#utility.yul\":7430:7718   */\n      pop\n        /* \"#utility.yul\":6566:7725   */\n      swap3\n      pop\n      swap3\n      pop\n      swap3\n      jump\t// out\n        /* \"#utility.yul\":7731:7953   */\n    tag_37:\n        /* \"#utility.yul\":7824:7828   */\n      0x00\n        /* \"#utility.yul\":7862:7864   */\n      0x20\n        /* \"#utility.yul\":7851:7860   */\n      dup3\n        /* \"#utility.yul\":7847:7865   */\n      add\n        /* \"#utility.yul\":7839:7865   */\n      swap1\n      pop\n        /* \"#utility.yul\":7875:7946   */\n      tag_384\n        /* \"#utility.yul\":7943:7944   */\n      0x00\n        /* \"#utility.yul\":7932:7941   */\n      dup4\n        /* \"#utility.yul\":7928:7945   */\n      add\n        /* \"#utility.yul\":7919:7925   */\n      dup5\n        /* \"#utility.yul\":7875:7946   */\n      tag_238\n      jump\t// in\n    tag_384:\n        /* \"#utility.yul\":7731:7953   */\n      swap3\n      swap2\n      pop\n      pop\n      jump\t// out\n        /* \"#utility.yul\":7959:8073   */\n    tag_253:\n        /* \"#utility.yul\":8026:8032   */\n      0x00\n        /* \"#utility.yul\":8060:8065   */\n      dup2\n        /* \"#utility.yul\":8054:8066   */\n      mload\n        /* \"#utility.yul\":8044:8066   */\n      swap1\n      pop\n        /* \"#utility.yul\":7959:8073   */\n      swap2\n      swap1\n      pop\n      jump\t// out\n        /* \"#utility.yul\":8079:8263   */\n    tag_254:\n        /* \"#utility.yul\":8178:8189   */\n      0x00\n        /* \"#utility.yul\":8212:8218   */\n      dup3\n        /* \"#utility.yul\":8207:8210   */\n      dup3\n        /* \"#utility.yul\":8200:8219   */\n      mstore\n        /* \"#utility.yul\":8252:8256   */\n      0x20\n        /* \"#utility.yul\":8247:8250   */\n      dup3\n        /* \"#utility.yul\":8243:8257   */\n      add\n        /* \"#utility.yul\":8228:8257   */\n      swap1\n      pop\n        /* \"#utility.yul\":8079:8263   */\n      swap3\n      swap2\n      pop\n      pop\n      jump\t// out\n        /* \"#utility.yul\":8269:8401   */\n    tag_255:\n        /* \"#utility.yul\":8336:8340   */\n      0x00\n        /* \"#utility.yul\":8359:8362   */\n      dup2\n        /* \"#utility.yul\":8351:8362   */\n      swap1\n      pop\n        /* \"#utility.yul\":8389:8393   */\n      0x20\n        /* \"#utility.yul\":8384:8387   */\n      dup3\n        /* \"#utility.yul\":8380:8394   */\n      add\n        /* \"#utility.yul\":8372:8394   */\n      swap1\n      pop\n        /* \"#utility.yul\":8269:8401   */\n      swap2\n      swap1\n      pop\n      jump\t// out\n        /* \"#utility.yul\":8407:8515   */\n    tag_256:\n        /* \"#utility.yul\":8484:8508   */\n      tag_389\n        /* \"#utility.yul\":8502:8507   */\n      dup2\n        /* \"#utility.yul\":8484:8508   */\n      tag_232\n      jump\t// in\n    tag_389:\n        /* \"#utility.yul\":8479:8482   */\n      dup3\n        /* \"#utility.yul\":8472:8509   */\n      mstore\n        /* \"#utility.yul\":8407:8515   */\n      pop\n      pop\n      jump\t// out\n        /* \"#utility.yul\":8521:8700   */\n    tag_257:\n        /* \"#utility.yul\":8590:8600   */\n      0x00\n        /* \"#utility.yul\":8611:8657   */\n      tag_391\n        /* \"#utility.yul\":8653:8656   */\n      dup4\n        /* \"#utility.yul\":8645:8651   */\n      dup4\n        /* \"#utility.yul\":8611:8657   */\n      tag_256\n      jump\t// in\n    tag_391:\n        /* \"#utility.yul\":8689:8693   */\n      0x20\n        /* \"#utility.yul\":8684:8687   */\n      dup4\n        /* \"#utility.yul\":8680:8694   */\n      add\n        /* \"#utility.yul\":8666:8694   */\n      swap1\n      pop\n        /* \"#utility.yul\":8521:8700   */\n      swap3\n      swap2\n      pop\n      pop\n      jump\t// out\n        /* \"#utility.yul\":8706:8819   */\n    tag_258:\n        /* \"#utility.yul\":8776:8780   */\n      0x00\n        /* \"#utility.yul\":8808:8812   */\n      0x20\n        /* \"#utility.yul\":8803:8806   */\n      dup3\n        /* \"#utility.yul\":8799:8813   */\n      add\n        /* \"#utility.yul\":8791:8813   */\n      swap1\n      pop\n        /* \"#utility.yul\":8706:8819   */\n      swap2\n      swap1\n      pop\n      jump\t// out\n        /* \"#utility.yul\":8855:9587   */\n    tag_259:\n        /* \"#utility.yul\":8974:8977   */\n      0x00\n        /* \"#utility.yul\":9003:9057   */\n      tag_394\n        /* \"#utility.yul\":9051:9056   */\n      dup3\n        /* \"#utility.yul\":9003:9057   */\n      tag_253\n      jump\t// in\n    tag_394:\n        /* \"#utility.yul\":9073:9159   */\n      tag_395\n        /* \"#utility.yul\":9152:9158   */\n      dup2\n        /* \"#utility.yul\":9147:9150   */\n      dup6\n        /* \"#utility.yul\":9073:9159   */\n      tag_254\n      jump\t// in\n    tag_395:\n        /* \"#utility.yul\":9066:9159   */\n      swap4\n      pop\n        /* \"#utility.yul\":9183:9239   */\n      tag_396\n        /* \"#utility.yul\":9233:9238   */\n      dup4\n        /* \"#utility.yul\":9183:9239   */\n      tag_255\n      jump\t// in\n    tag_396:\n        /* \"#utility.yul\":9262:9269   */\n      dup1\n        /* \"#utility.yul\":9293:9294   */\n      0x00\n        /* \"#utility.yul\":9278:9562   */\n    tag_397:\n        /* \"#utility.yul\":9303:9309   */\n      dup4\n        /* \"#utility.yul\":9300:9301   */\n      dup2\n        /* \"#utility.yul\":9297:9310   */\n      lt\n        /* \"#utility.yul\":9278:9562   */\n      iszero\n      tag_399\n      jumpi\n        /* \"#utility.yul\":9379:9385   */\n      dup2\n        /* \"#utility.yul\":9373:9386   */\n      mload\n        /* \"#utility.yul\":9406:9469   */\n      tag_400\n        /* \"#utility.yul\":9465:9468   */\n      dup9\n        /* \"#utility.yul\":9450:9463   */\n      dup3\n        /* \"#utility.yul\":9406:9469   */\n      tag_257\n      jump\t// in\n    tag_400:\n        /* \"#utility.yul\":9399:9469   */\n      swap8\n      pop\n        /* \"#utility.yul\":9492:9552   */\n      tag_401\n        /* \"#utility.yul\":9545:9551   */\n      dup4\n        /* \"#utility.yul\":9492:9552   */\n      tag_258\n      jump\t// in\n    tag_401:\n        /* \"#utility.yul\":9482:9552   */\n      swap3\n      pop\n        /* \"#utility.yul\":9338:9562   */\n      pop\n        /* \"#utility.yul\":9325:9326   */\n      0x01\n        /* \"#utility.yul\":9322:9323   */\n      dup2\n        /* \"#utility.yul\":9318:9327   */\n      add\n        /* \"#utility.yul\":9313:9327   */\n      swap1\n      pop\n        /* \"#utility.yul\":9278:9562   */\n      jump(tag_397)\n    tag_399:\n        /* \"#utility.yul\":9282:9296   */\n      pop\n        /* \"#utility.yul\":9578:9581   */\n      dup6\n        /* \"#utility.yul\":9571:9581   */\n      swap4\n      pop\n        /* \"#utility.yul\":8979:9587   */\n      pop\n      pop\n      pop\n        /* \"#utility.yul\":8855:9587   */\n      swap3\n      swap2\n      pop\n      pop\n      jump\t// out\n        /* \"#utility.yul\":9593:9966   */\n    tag_41:\n        /* \"#utility.yul\":9736:9740   */\n      0x00\n        /* \"#utility.yul\":9774:9776   */\n      0x20\n        /* \"#utility.yul\":9763:9772   */\n      dup3\n        /* \"#utility.yul\":9759:9777   */\n      add\n        /* \"#utility.yul\":9751:9777   */\n      swap1\n      pop\n        /* \"#utility.yul\":9823:9832   */\n      dup2\n        /* \"#utility.yul\":9817:9821   */\n      dup2\n        /* \"#utility.yul\":9813:9833   */\n      sub\n        /* \"#utility.yul\":9809:9810   */\n      0x00\n        /* \"#utility.yul\":9798:9807   */\n      dup4\n        /* \"#utility.yul\":9794:9811   */\n      add\n        /* \"#utility.yul\":9787:9834   */\n      mstore\n        /* \"#utility.yul\":9851:9959   */\n      tag_403\n        /* \"#utility.yul\":9954:9958   */\n      dup2\n        /* \"#utility.yul\":9945:9951   */\n      dup5\n        /* \"#utility.yul\":9851:9959   */\n      tag_259\n      jump\t// in\n    tag_403:\n        /* \"#utility.yul\":9843:9959   */\n      swap1\n      pop\n        /* \"#utility.yul\":9593:9966   */\n      swap3\n      swap2\n      pop\n      pop\n      jump\t// out\n        /* \"#utility.yul\":9972:10626   */\n    tag_50:\n        /* \"#utility.yul\":10050:10056   */\n      0x00\n        /* \"#utility.yul\":10058:10064   */\n      dup1\n        /* \"#utility.yul\":10107:10109   */\n      0x40\n        /* \"#utility.yul\":10095:10104   */\n      dup4\n        /* \"#utility.yul\":10086:10093   */\n      dup6\n        /* \"#utility.yul\":10082:10105   */\n      sub\n        /* \"#utility.yul\":10078:10110   */\n      slt\n        /* \"#utility.yul\":10075:10194   */\n      iszero\n      tag_405\n      jumpi\n        /* \"#utility.yul\":10113:10192   */\n      tag_406\n      tag_229\n      jump\t// in\n    tag_406:\n        /* \"#utility.yul\":10075:10194   */\n    tag_405:\n        /* \"#utility.yul\":10233:10234   */\n      0x00\n        /* \"#utility.yul\":10258:10311   */\n      tag_407\n        /* \"#utility.yul\":10303:10310   */\n      dup6\n        /* \"#utility.yul\":10294:10300   */\n      dup3\n        /* \"#utility.yul\":10283:10292   */\n      dup7\n        /* \"#utility.yul\":10279:10301   */\n      add\n        /* \"#utility.yul\":10258:10311   */\n      tag_234\n      jump\t// in\n    tag_407:\n        /* \"#utility.yul\":10248:10311   */\n      swap3\n      pop\n        /* \"#utility.yul\":10204:10321   */\n      pop\n        /* \"#utility.yul\":10388:10390   */\n      0x20\n        /* \"#utility.yul\":10377:10386   */\n      dup4\n        /* \"#utility.yul\":10373:10391   */\n      add\n        /* \"#utility.yul\":10360:10392   */\n      calldataload\n        /* \"#utility.yul\":10419:10437   */\n      0xffffffffffffffff\n        /* \"#utility.yul\":10411:10417   */\n      dup2\n        /* \"#utility.yul\":10408:10438   */\n      gt\n        /* \"#utility.yul\":10405:10522   */\n      iszero\n      tag_408\n      jumpi\n        /* \"#utility.yul\":10441:10520   */\n      tag_409\n      tag_230\n      jump\t// in\n    tag_409:\n        /* \"#utility.yul\":10405:10522   */\n    tag_408:\n        /* \"#utility.yul\":10546:10609   */\n      tag_410\n        /* \"#utility.yul\":10601:10608   */\n      dup6\n        /* \"#utility.yul\":10592:10598   */\n      dup3\n        /* \"#utility.yul\":10581:10590   */\n      dup7\n        /* \"#utility.yul\":10577:10599   */\n      add\n        /* \"#utility.yul\":10546:10609   */\n      tag_248\n      jump\t// in\n    tag_410:\n        /* \"#utility.yul\":10536:10609   */\n      swap2\n      pop\n        /* \"#utility.yul\":10331:10619   */\n      pop\n        /* \"#utility.yul\":9972:10626   */\n      swap3\n      pop\n      swap3\n      swap1\n      pop\n      jump\t// out\n        /* \"#utility.yul\":10632:10961   */\n    tag_54:\n        /* \"#utility.yul\":10691:10697   */\n      0x00\n        /* \"#utility.yul\":10740:10742   */\n      0x20\n        /* \"#utility.yul\":10728:10737   */\n      dup3\n        /* \"#utility.yul\":10719:10726   */\n      dup5\n        /* \"#utility.yul\":10715:10738   */\n      sub\n        /* \"#utility.yul\":10711:10743   */\n      slt\n        /* \"#utility.yul\":10708:10827   */\n      iszero\n      tag_412\n      jumpi\n        /* \"#utility.yul\":10746:10825   */\n      tag_413\n      tag_229\n      jump\t// in\n    tag_413:\n        /* \"#utility.yul\":10708:10827   */\n    tag_412:\n        /* \"#utility.yul\":10866:10867   */\n      0x00\n        /* \"#utility.yul\":10891:10944   */\n      tag_414\n        /* \"#utility.yul\":10936:10943   */\n      dup5\n        /* \"#utility.yul\":10927:10933   */\n      dup3\n        /* \"#utility.yul\":10916:10925   */\n      dup6\n        /* \"#utility.yul\":10912:10934   */\n      add\n        /* \"#utility.yul\":10891:10944   */\n      tag_237\n      jump\t// in\n    tag_414:\n        /* \"#utility.yul\":10881:10944   */\n      swap2\n      pop\n        /* \"#utility.yul\":10837:10954   */\n      pop\n        /* \"#utility.yul\":10632:10961   */\n      swap3\n      swap2\n      pop\n      pop\n      jump\t// out\n        /* \"#utility.yul\":10967:11136   */\n    tag_260:\n        /* \"#utility.yul\":11107:11128   */\n      0x4e6f646520616c72656164792065786973747300000000000000000000000000\n        /* \"#utility.yul\":11103:11104   */\n      0x00\n        /* \"#utility.yul\":11095:11101   */\n      dup3\n        /* \"#utility.yul\":11091:11105   */\n      add\n        /* \"#utility.yul\":11084:11129   */\n      mstore\n        /* \"#utility.yul\":10967:11136   */\n      pop\n      jump\t// out\n        /* \"#utility.yul\":11142:11508   */\n    tag_261:\n        /* \"#utility.yul\":11284:11287   */\n      0x00\n        /* \"#utility.yul\":11305:11372   */\n      tag_417\n        /* \"#utility.yul\":11369:11371   */\n      0x13\n        /* \"#utility.yul\":11364:11367   */\n      dup4\n        /* \"#utility.yul\":11305:11372   */\n      tag_250\n      jump\t// in\n    tag_417:\n        /* \"#utility.yul\":11298:11372   */\n      swap2\n      pop\n        /* \"#utility.yul\":11381:11474   */\n      tag_418\n        /* \"#utility.yul\":11470:11473   */\n      dup3\n        /* \"#utility.yul\":11381:11474   */\n      tag_260\n      jump\t// in\n    tag_418:\n        /* \"#utility.yul\":11499:11501   */\n      0x20\n        /* \"#utility.yul\":11494:11497   */\n      dup3\n        /* \"#utility.yul\":11490:11502   */\n      add\n        /* \"#utility.yul\":11483:11502   */\n      swap1\n      pop\n        /* \"#utility.yul\":11142:11508   */\n      swap2\n      swap1\n      pop\n      jump\t// out\n        /* \"#utility.yul\":11514:11933   */\n    tag_60:\n        /* \"#utility.yul\":11680:11684   */\n      0x00\n        /* \"#utility.yul\":11718:11720   */\n      0x20\n        /* \"#utility.yul\":11707:11716   */\n      dup3\n        /* \"#utility.yul\":11703:11721   */\n      add\n        /* \"#utility.yul\":11695:11721   */\n      swap1\n      pop\n        /* \"#utility.yul\":11767:11776   */\n      dup2\n        /* \"#utility.yul\":11761:11765   */\n      dup2\n        /* \"#utility.yul\":11757:11777   */\n      sub\n        /* \"#utility.yul\":11753:11754   */\n      0x00\n        /* \"#utility.yul\":11742:11751   */\n      dup4\n        /* \"#utility.yul\":11738:11755   */\n      add\n        /* \"#utility.yul\":11731:11778   */\n      mstore\n        /* \"#utility.yul\":11795:11926   */\n      tag_420\n        /* \"#utility.yul\":11921:11925   */\n      dup2\n        /* \"#utility.yul\":11795:11926   */\n      tag_261\n      jump\t// in\n    tag_420:\n        /* \"#utility.yul\":11787:11926   */\n      swap1\n      pop\n        /* \"#utility.yul\":11514:11933   */\n      swap2\n      swap1\n      pop\n      jump\t// out\n        /* \"#utility.yul\":11939:12087   */\n    tag_262:\n        /* \"#utility.yul\":12041:12052   */\n      0x00\n        /* \"#utility.yul\":12078:12081   */\n      dup2\n        /* \"#utility.yul\":12063:12081   */\n      swap1\n      pop\n        /* \"#utility.yul\":11939:12087   */\n      swap3\n      swap2\n      pop\n      pop\n      jump\t// out\n        /* \"#utility.yul\":12093:12483   */\n    tag_263:\n        /* \"#utility.yul\":12199:12202   */\n      0x00\n        /* \"#utility.yul\":12227:12266   */\n      tag_423\n        /* \"#utility.yul\":12260:12265   */\n      dup3\n        /* \"#utility.yul\":12227:12266   */\n      tag_249\n      jump\t// in\n    tag_423:\n        /* \"#utility.yul\":12282:12371   */\n      tag_424\n        /* \"#utility.yul\":12364:12370   */\n      dup2\n        /* \"#utility.yul\":12359:12362   */\n      dup6\n        /* \"#utility.yul\":12282:12371   */\n      tag_262\n      jump\t// in\n    tag_424:\n        /* \"#utility.yul\":12275:12371   */\n      swap4\n      pop\n        /* \"#utility.yul\":12380:12445   */\n      tag_425\n        /* \"#utility.yul\":12438:12444   */\n      dup2\n        /* \"#utility.yul\":12433:12436   */\n      dup6\n        /* \"#utility.yul\":12426:12430   */\n      0x20\n        /* \"#utility.yul\":12419:12424   */\n      dup7\n        /* \"#utility.yul\":12415:12431   */\n      add\n        /* \"#utility.yul\":12380:12445   */\n      tag_251\n      jump\t// in\n    tag_425:\n        /* \"#utility.yul\":12470:12476   */\n      dup1\n        /* \"#utility.yul\":12465:12468   */\n      dup5\n        /* \"#utility.yul\":12461:12477   */\n      add\n        /* \"#utility.yul\":12454:12477   */\n      swap2\n      pop\n        /* \"#utility.yul\":12203:12483   */\n      pop\n        /* \"#utility.yul\":12093:12483   */\n      swap3\n      swap2\n      pop\n      pop\n      jump\t// out\n        /* \"#utility.yul\":12489:12764   */\n    tag_64:\n        /* \"#utility.yul\":12621:12624   */\n      0x00\n        /* \"#utility.yul\":12643:12738   */\n      tag_427\n        /* \"#utility.yul\":12734:12737   */\n      dup3\n        /* \"#utility.yul\":12725:12731   */\n      dup5\n        /* \"#utility.yul\":12643:12738   */\n      tag_263\n      jump\t// in\n    tag_427:\n        /* \"#utility.yul\":12636:12738   */\n      swap2\n      pop\n        /* \"#utility.yul\":12755:12758   */\n      dup2\n        /* \"#utility.yul\":12748:12758   */\n      swap1\n      pop\n        /* \"#utility.yul\":12489:12764   */\n      swap3\n      swap2\n      pop\n      pop\n      jump\t// out\n        /* \"#utility.yul\":12770:12934   */\n    tag_264:\n        /* \"#utility.yul\":12910:12926   */\n      0x46696c65206e6f7420666f756e64000000000000000000000000000000000000\n        /* \"#utility.yul\":12906:12907   */\n      0x00\n        /* \"#utility.yul\":12898:12904   */\n      dup3\n        /* \"#utility.yul\":12894:12908   */\n      add\n        /* \"#utility.yul\":12887:12927   */\n      mstore\n        /* \"#utility.yul\":12770:12934   */\n      pop\n      jump\t// out\n        /* \"#utility.yul\":12940:13306   */\n    tag_265:\n        /* \"#utility.yul\":13082:13085   */\n      0x00\n        /* \"#utility.yul\":13103:13170   */\n      tag_430\n        /* \"#utility.yul\":13167:13169   */\n      0x0e\n        /* \"#utility.yul\":13162:13165   */\n      dup4\n        /* \"#utility.yul\":13103:13170   */\n      tag_250\n      jump\t// in\n    tag_430:\n        /* \"#utility.yul\":13096:13170   */\n      swap2\n      pop\n        /* \"#utility.yul\":13179:13272   */\n      tag_431\n        /* \"#utility.yul\":13268:13271   */\n      dup3\n        /* \"#utility.yul\":13179:13272   */\n      tag_264\n      jump\t// in\n    tag_431:\n        /* \"#utility.yul\":13297:13299   */\n      0x20\n        /* \"#utility.yul\":13292:13295   */\n      dup3\n        /* \"#utility.yul\":13288:13300   */\n      add\n        /* \"#utility.yul\":13281:13300   */\n      swap1\n      pop\n        /* \"#utility.yul\":12940:13306   */\n      swap2\n      swap1\n      pop\n      jump\t// out\n        /* \"#utility.yul\":13312:13731   */\n    tag_67:\n        /* \"#utility.yul\":13478:13482   */\n      0x00\n        /* \"#utility.yul\":13516:13518   */\n      0x20\n        /* \"#utility.yul\":13505:13514   */\n      dup3\n        /* \"#utility.yul\":13501:13519   */\n      add\n        /* \"#utility.yul\":13493:13519   */\n      swap1\n      pop\n        /* \"#utility.yul\":13565:13574   */\n      dup2\n        /* \"#utility.yul\":13559:13563   */\n      dup2\n        /* \"#utility.yul\":13555:13575   */\n      sub\n        /* \"#utility.yul\":13551:13552   */\n      0x00\n        /* \"#utility.yul\":13540:13549   */\n      dup4\n        /* \"#utility.yul\":13536:13553   */\n      add\n        /* \"#utility.yul\":13529:13576   */\n      mstore\n        /* \"#utility.yul\":13593:13724   */\n      tag_433\n        /* \"#utility.yul\":13719:13723   */\n      dup2\n        /* \"#utility.yul\":13593:13724   */\n      tag_265\n      jump\t// in\n    tag_433:\n        /* \"#utility.yul\":13585:13724   */\n      swap1\n      pop\n        /* \"#utility.yul\":13312:13731   */\n      swap2\n      swap1\n      pop\n      jump\t// out\n        /* \"#utility.yul\":13737:13917   */\n    tag_266:\n        /* \"#utility.yul\":13785:13862   */\n      0x4e487b7100000000000000000000000000000000000000000000000000000000\n        /* \"#utility.yul\":13782:13783   */\n      0x00\n        /* \"#utility.yul\":13775:13863   */\n      mstore\n        /* \"#utility.yul\":13882:13886   */\n      0x22\n        /* \"#utility.yul\":13879:13880   */\n      0x04\n        /* \"#utility.yul\":13872:13887   */\n      mstore\n        /* \"#utility.yul\":13906:13910   */\n      0x24\n        /* \"#utility.yul\":13903:13904   */\n      0x00\n        /* \"#utility.yul\":13896:13911   */\n      revert\n        /* \"#utility.yul\":13923:14243   */\n    tag_73:\n        /* \"#utility.yul\":13967:13973   */\n      0x00\n        /* \"#utility.yul\":14004:14005   */\n      0x02\n        /* \"#utility.yul\":13998:14002   */\n      dup3\n        /* \"#utility.yul\":13994:14006   */\n      div\n        /* \"#utility.yul\":13984:14006   */\n      swap1\n      pop\n        /* \"#utility.yul\":14051:14052   */\n      0x01\n        /* \"#utility.yul\":14045:14049   */\n      dup3\n        /* \"#utility.yul\":14041:14053   */\n      and\n        /* \"#utility.yul\":14072:14090   */\n      dup1\n        /* \"#utility.yul\":14062:14143   */\n      tag_436\n      jumpi\n        /* \"#utility.yul\":14128:14132   */\n      0x7f\n        /* \"#utility.yul\":14120:14126   */\n      dup3\n        /* \"#utility.yul\":14116:14133   */\n      and\n        /* \"#utility.yul\":14106:14133   */\n      swap2\n      pop\n        /* \"#utility.yul\":14062:14143   */\n    tag_436:\n        /* \"#utility.yul\":14190:14192   */\n      0x20\n        /* \"#utility.yul\":14182:14188   */\n      dup3\n        /* \"#utility.yul\":14179:14193   */\n      lt\n        /* \"#utility.yul\":14159:14177   */\n      dup2\n        /* \"#utility.yul\":14156:14194   */\n      sub\n        /* \"#utility.yul\":14153:14237   */\n      tag_437\n      jumpi\n        /* \"#utility.yul\":14209:14227   */\n      tag_438\n      tag_266\n      jump\t// in\n    tag_438:\n        /* \"#utility.yul\":14153:14237   */\n    tag_437:\n        /* \"#utility.yul\":13974:14243   */\n      pop\n        /* \"#utility.yul\":13923:14243   */\n      swap2\n      swap1\n      pop\n      jump\t// out\n        /* \"#utility.yul\":14249:14427   */\n    tag_267:\n        /* \"#utility.yul\":14389:14419   */\n      0x4e6f206368756e6b7320666f756e6420666f72207468652066696c6500000000\n        /* \"#utility.yul\":14385:14386   */\n      0x00\n        /* \"#utility.yul\":14377:14383   */\n      dup3\n        /* \"#utility.yul\":14373:14387   */\n      add\n        /* \"#utility.yul\":14366:14420   */\n      mstore\n        /* \"#utility.yul\":14249:14427   */\n      pop\n      jump\t// out\n        /* \"#utility.yul\":14433:14799   */\n    tag_268:\n        /* \"#utility.yul\":14575:14578   */\n      0x00\n        /* \"#utility.yul\":14596:14663   */\n      tag_441\n        /* \"#utility.yul\":14660:14662   */\n      0x1c\n        /* \"#utility.yul\":14655:14658   */\n      dup4\n        /* \"#utility.yul\":14596:14663   */\n      tag_250\n      jump\t// in\n    tag_441:\n        /* \"#utility.yul\":14589:14663   */\n      swap2\n      pop\n        /* \"#utility.yul\":14672:14765   */\n      tag_442\n        /* \"#utility.yul\":14761:14764   */\n      dup3\n        /* \"#utility.yul\":14672:14765   */\n      tag_267\n      jump\t// in\n    tag_442:\n        /* \"#utility.yul\":14790:14792   */\n      0x20\n        /* \"#utility.yul\":14785:14788   */\n      dup3\n        /* \"#utility.yul\":14781:14793   */\n      add\n        /* \"#utility.yul\":14774:14793   */\n      swap1\n      pop\n        /* \"#utility.yul\":14433:14799   */\n      swap2\n      swap1\n      pop\n      jump\t// out\n        /* \"#utility.yul\":14805:15224   */\n    tag_80:\n        /* \"#utility.yul\":14971:14975   */\n      0x00\n        /* \"#utility.yul\":15009:15011   */\n      0x20\n        /* \"#utility.yul\":14998:15007   */\n      dup3\n        /* \"#utility.yul\":14994:15012   */\n      add\n        /* \"#utility.yul\":14986:15012   */\n      swap1\n      pop\n        /* \"#utility.yul\":15058:15067   */\n      dup2\n        /* \"#utility.yul\":15052:15056   */\n      dup2\n        /* \"#utility.yul\":15048:15068   */\n      sub\n        /* \"#utility.yul\":15044:15045   */\n      0x00\n        /* \"#utility.yul\":15033:15042   */\n      dup4\n        /* \"#utility.yul\":15029:15046   */\n      add\n        /* \"#utility.yul\":15022:15069   */\n      mstore\n        /* \"#utility.yul\":15086:15217   */\n      tag_444\n        /* \"#utility.yul\":15212:15216   */\n      dup2\n        /* \"#utility.yul\":15086:15217   */\n      tag_268\n      jump\t// in\n    tag_444:\n        /* \"#utility.yul\":15078:15217   */\n      swap1\n      pop\n        /* \"#utility.yul\":14805:15224   */\n      swap2\n      swap1\n      pop\n      jump\t// out\n        /* \"#utility.yul\":15230:15371   */\n    tag_269:\n        /* \"#utility.yul\":15279:15283   */\n      0x00\n        /* \"#utility.yul\":15302:15305   */\n      dup2\n        /* \"#utility.yul\":15294:15305   */\n      swap1\n      pop\n        /* \"#utility.yul\":15325:15328   */\n      dup2\n        /* \"#utility.yul\":15322:15323   */\n      0x00\n        /* \"#utility.yul\":15315:15329   */\n      mstore\n        /* \"#utility.yul\":15359:15363   */\n      0x20\n        /* \"#utility.yul\":15356:15357   */\n      0x00\n        /* \"#utility.yul\":15346:15364   */\n      keccak256\n        /* \"#utility.yul\":15338:15364   */\n      swap1\n      pop\n        /* \"#utility.yul\":15230:15371   */\n      swap2\n      swap1\n      pop\n      jump\t// out\n        /* \"#utility.yul\":15377:15470   */\n    tag_270:\n        /* \"#utility.yul\":15414:15420   */\n      0x00\n        /* \"#utility.yul\":15461:15463   */\n      0x20\n        /* \"#utility.yul\":15456:15458   */\n      0x1f\n        /* \"#utility.yul\":15449:15454   */\n      dup4\n        /* \"#utility.yul\":15445:15459   */\n      add\n        /* \"#utility.yul\":15441:15464   */\n      div\n        /* \"#utility.yul\":15431:15464   */\n      swap1\n      pop\n        /* \"#utility.yul\":15377:15470   */\n      swap2\n      swap1\n      pop\n      jump\t// out\n        /* \"#utility.yul\":15476:15583   */\n    tag_271:\n        /* \"#utility.yul\":15520:15528   */\n      0x00\n        /* \"#utility.yul\":15570:15575   */\n      dup3\n        /* \"#utility.yul\":15564:15568   */\n      dup3\n        /* \"#utility.yul\":15560:15576   */\n      shl\n        /* \"#utility.yul\":15539:15576   */\n      swap1\n      pop\n        /* \"#utility.yul\":15476:15583   */\n      swap3\n      swap2\n      pop\n      pop\n      jump\t// out\n        /* \"#utility.yul\":15589:15982   */\n    tag_272:\n        /* \"#utility.yul\":15658:15664   */\n      0x00\n        /* \"#utility.yul\":15708:15709   */\n      0x08\n        /* \"#utility.yul\":15696:15706   */\n      dup4\n        /* \"#utility.yul\":15692:15710   */\n      mul\n        /* \"#utility.yul\":15731:15828   */\n      tag_449\n        /* \"#utility.yul\":15761:15827   */\n      0xffffffffffffffffffffffffffffffffffffffffffffffffffffffffffffffff\n        /* \"#utility.yul\":15750:15759   */\n      dup3\n        /* \"#utility.yul\":15731:15828   */\n      tag_271\n      jump\t// in\n    tag_449:\n        /* \"#utility.yul\":15849:15888   */\n      tag_450\n        /* \"#utility.yul\":15879:15887   */\n      dup7\n        /* \"#utility.yul\":15868:15877   */\n      dup4\n        /* \"#utility.yul\":15849:15888   */\n      tag_271\n      jump\t// in\n    tag_450:\n        /* \"#utility.yul\":15837:15888   */\n      swap6\n      pop\n        /* \"#utility.yul\":15921:15925   */\n      dup1\n        /* \"#utility.yul\":15917:15926   */\n      not\n        /* \"#utility.yul\":15910:15915   */\n      dup5\n        /* \"#utility.yul\":15906:15927   */\n      and\n        /* \"#utility.yul\":15897:15927   */\n      swap4\n      pop\n        /* \"#utility.yul\":15970:15974   */\n      dup1\n        /* \"#utility.yul\":15960:15968   */\n      dup7\n        /* \"#utility.yul\":15956:15975   */\n      and\n        /* \"#utility.yul\":15949:15954   */\n      dup5\n        /* \"#utility.yul\":15946:15976   */\n      or\n        /* \"#utility.yul\":15936:15976   */\n      swap3\n      pop\n        /* \"#utility.yul\":15665:15982   */\n      pop\n      pop\n        /* \"#utility.yul\":15589:15982   */\n      swap4\n      swap3\n      pop\n      pop\n      pop\n      jump\t// out\n        /* \"#utility.yul\":15988:16048   */\n    tag_273:\n        /* \"#utility.yul\":16016:16019   */\n      0x00\n        /* \"#utility.yul\":16037:16042   */\n      dup2\n        /* \"#utility.yul\":16030:16042   */\n      swap1\n      pop\n        /* \"#utility.yul\":15988:16048   */\n      swap2\n      swap1\n      pop\n      jump\t// out\n        /* \"#utility.yul\":16054:16196   */\n    tag_274:\n        /* \"#utility.yul\":16104:16113   */\n      0x00\n        /* \"#utility.yul\":16137:16190   */\n      tag_453\n        /* \"#utility.yul\":16155:16189   */\n      tag_454\n        /* \"#utility.yul\":16164:16188   */\n      tag_455\n        /* \"#utility.yul\":16182:16187   */\n      dup5\n        /* \"#utility.yul\":16164:16188   */\n      tag_235\n      jump\t// in\n    tag_455:\n        /* \"#utility.yul\":16155:16189   */\n      tag_273\n      jump\t// in\n    tag_454:\n        /* \"#utility.yul\":16137:16190   */\n      tag_235\n      jump\t// in\n    tag_453:\n        /* \"#utility.yul\":16124:16190   */\n      swap1\n      pop\n        /* \"#utility.yul\":16054:16196   */\n      swap2\n      swap1\n      pop\n      jump\t// out\n        /* \"#utility.yul\":16202:16277   */\n    tag_275:\n        /* \"#utility.yul\":16245:16248   */\n      0x00\n        /* \"#utility.yul\":16266:16271   */\n      dup2\n        /* \"#utility.yul\":16259:16271   */\n      swap1\n      pop\n        /* \"#utility.yul\":16202:16277   */\n      swap2\n      swap1\n      pop\n      jump\t// out\n        /* \"#utility.yul\":16283:16552   */\n    tag_276:\n        /* \"#utility.yul\":16393:16432   */\n      tag_458\n        /* \"#utility.yul\":16424:16431   */\n      dup4\n        /* \"#utility.yul\":16393:16432   */\n      tag_274\n      jump\t// in\n    tag_458:\n        /* \"#utility.yul\":16454:16545   */\n      tag_459\n        /* \"#utility.yul\":16503:16544   */\n      tag_460\n        /* \"#utility.yul\":16527:16543   */\n      dup3\n        /* \"#utility.yul\":16503:16544   */\n      tag_275\n      jump\t// in\n    tag_460:\n        /* \"#utility.yul\":16495:16501   */\n      dup5\n        /* \"#utility.yul\":16488:16492   */\n      dup5\n        /* \"#utility.yul\":16482:16493   */\n      sload\n        /* \"#utility.yul\":16454:16545   */\n      tag_272\n      jump\t// in\n    tag_459:\n        /* \"#utility.yul\":16448:16452   */\n      dup3\n        /* \"#utility.yul\":16441:16546   */\n      sstore\n        /* \"#utility.yul\":16359:16552   */\n      pop\n        /* \"#utility.yul\":16283:16552   */\n      pop\n      pop\n      pop\n      jump\t// out\n        /* \"#utility.yul\":16558:16631   */\n    tag_277:\n        /* \"#utility.yul\":16603:16606   */\n      0x00\n        /* \"#utility.yul\":16558:16631   */\n      swap1\n      jump\t// out\n        /* \"#utility.yul\":16637:16826   */\n    tag_278:\n        /* \"#utility.yul\":16714:16746   */\n      tag_463\n      tag_277\n      jump\t// in\n    tag_463:\n        /* \"#utility.yul\":16755:16820   */\n      tag_464\n        /* \"#utility.yul\":16813:16819   */\n      dup2\n        /* \"#utility.yul\":16805:16811   */\n      dup5\n        /* \"#utility.yul\":16799:16803   */\n      dup5\n        /* \"#utility.yul\":16755:16820   */\n      tag_276\n      jump\t// in\n    tag_464:\n        /* \"#utility.yul\":16690:16826   */\n      pop\n        /* \"#utility.yul\":16637:16826   */\n      pop\n      pop\n      jump\t// out\n        /* \"#utility.yul\":16832:17018   */\n    tag_279:\n        /* \"#utility.yul\":16892:17012   */\n    tag_466:\n        /* \"#utility.yul\":16909:16912   */\n      dup2\n        /* \"#utility.yul\":16902:16907   */\n      dup2\n        /* \"#utility.yul\":16899:16913   */\n      lt\n        /* \"#utility.yul\":16892:17012   */\n      iszero\n      tag_468\n      jumpi\n        /* \"#utility.yul\":16963:17002   */\n      tag_469\n        /* \"#utility.yul\":17000:17001   */\n      0x00\n        /* \"#utility.yul\":16993:16998   */\n      dup3\n        /* \"#utility.yul\":16963:17002   */\n      tag_278\n      jump\t// in\n    tag_469:\n        /* \"#utility.yul\":16936:16937   */\n      0x01\n        /* \"#utility.yul\":16929:16934   */\n      dup2\n        /* \"#utility.yul\":16925:16938   */\n      add\n        /* \"#utility.yul\":16916:16938   */\n      swap1\n      pop\n        /* \"#utility.yul\":16892:17012   */\n      jump(tag_466)\n    tag_468:\n        /* \"#utility.yul\":16832:17018   */\n      pop\n      pop\n      jump\t// out\n        /* \"#utility.yul\":17024:17567   */\n    tag_280:\n        /* \"#utility.yul\":17125:17127   */\n      0x1f\n        /* \"#utility.yul\":17120:17123   */\n      dup3\n        /* \"#utility.yul\":17117:17128   */\n      gt\n        /* \"#utility.yul\":17114:17560   */\n      iszero\n      tag_471\n      jumpi\n        /* \"#utility.yul\":17159:17197   */\n      tag_472\n        /* \"#utility.yul\":17191:17196   */\n      dup2\n        /* \"#utility.yul\":17159:17197   */\n      tag_269\n      jump\t// in\n    tag_472:\n        /* \"#utility.yul\":17243:17272   */\n      tag_473\n        /* \"#utility.yul\":17261:17271   */\n      dup5\n        /* \"#utility.yul\":17243:17272   */\n      tag_270\n      jump\t// in\n    tag_473:\n        /* \"#utility.yul\":17233:17241   */\n      dup2\n        /* \"#utility.yul\":17229:17273   */\n      add\n        /* \"#utility.yul\":17426:17428   */\n      0x20\n        /* \"#utility.yul\":17414:17424   */\n      dup6\n        /* \"#utility.yul\":17411:17429   */\n      lt\n        /* \"#utility.yul\":17408:17457   */\n      iszero\n      tag_474\n      jumpi\n        /* \"#utility.yul\":17447:17455   */\n      dup2\n        /* \"#utility.yul\":17432:17455   */\n      swap1\n      pop\n        /* \"#utility.yul\":17408:17457   */\n    tag_474:\n        /* \"#utility.yul\":17470:17550   */\n      tag_475\n        /* \"#utility.yul\":17526:17548   */\n      tag_476\n        /* \"#utility.yul\":17544:17547   */\n      dup6\n        /* \"#utility.yul\":17526:17548   */\n      tag_270\n      jump\t// in\n    tag_476:\n        /* \"#utility.yul\":17516:17524   */\n      dup4\n        /* \"#utility.yul\":17512:17549   */\n      add\n        /* \"#utility.yul\":17499:17510   */\n      dup3\n        /* \"#utility.yul\":17470:17550   */\n      tag_279\n      jump\t// in\n    tag_475:\n        /* \"#utility.yul\":17129:17560   */\n      pop\n      pop\n        /* \"#utility.yul\":17114:17560   */\n    tag_471:\n        /* \"#utility.yul\":17024:17567   */\n      pop\n      pop\n      pop\n      jump\t// out\n        /* \"#utility.yul\":17573:17690   */\n    tag_281:\n        /* \"#utility.yul\":17627:17635   */\n      0x00\n        /* \"#utility.yul\":17677:17682   */\n      dup3\n        /* \"#utility.yul\":17671:17675   */\n      dup3\n        /* \"#utility.yul\":17667:17683   */\n      shr\n        /* \"#utility.yul\":17646:17683   */\n      swap1\n      pop\n        /* \"#utility.yul\":17573:17690   */\n      swap3\n      swap2\n      pop\n      pop\n      jump\t// out\n        /* \"#utility.yul\":17696:17865   */\n    tag_282:\n        /* \"#utility.yul\":17740:17746   */\n      0x00\n        /* \"#utility.yul\":17773:17824   */\n      tag_479\n        /* \"#utility.yul\":17821:17822   */\n      0x00\n        /* \"#utility.yul\":17817:17823   */\n      not\n        /* \"#utility.yul\":17809:17814   */\n      dup5\n        /* \"#utility.yul\":17806:17807   */\n      0x08\n        /* \"#utility.yul\":17802:17815   */\n      mul\n        /* \"#utility.yul\":17773:17824   */\n      tag_281\n      jump\t// in\n    tag_479:\n        /* \"#utility.yul\":17769:17825   */\n      not\n        /* \"#utility.yul\":17854:17858   */\n      dup1\n        /* \"#utility.yul\":17848:17852   */\n      dup4\n        /* \"#utility.yul\":17844:17859   */\n      and\n        /* \"#utility.yul\":17834:17859   */\n      swap2\n      pop\n        /* \"#utility.yul\":17747:17865   */\n      pop\n        /* \"#utility.yul\":17696:17865   */\n      swap3\n      swap2\n      pop\n      pop\n      jump\t// out\n        /* \"#utility.yul\":17870:18165   */\n    tag_283:\n        /* \"#utility.yul\":17946:17950   */\n      0x00\n        /* \"#utility.yul\":18092:18121   */\n      tag_481\n        /* \"#utility.yul\":18117:18120   */\n      dup4\n        /* \"#utility.yul\":18111:18115   */\n      dup4\n        /* \"#utility.yul\":18092:18121   */\n      tag_282\n      jump\t// in\n    tag_481:\n        /* \"#utility.yul\":18084:18121   */\n      swap2\n      pop\n        /* \"#utility.yul\":18154:18157   */\n      dup3\n        /* \"#utility.yul\":18151:18152   */\n      0x02\n        /* \"#utility.yul\":18147:18158   */\n      mul\n        /* \"#utility.yul\":18141:18145   */\n      dup3\n        /* \"#utility.yul\":18138:18159   */\n      or\n        /* \"#utility.yul\":18130:18159   */\n      swap1\n      pop\n        /* \"#utility.yul\":17870:18165   */\n      swap3\n      swap2\n      pop\n      pop\n      jump\t// out\n        /* \"#utility.yul\":18170:19565   */\n    tag_86:\n        /* \"#utility.yul\":18287:18324   */\n      tag_483\n        /* \"#utility.yul\":18320:18323   */\n      dup3\n        /* \"#utility.yul\":18287:18324   */\n      tag_249\n      jump\t// in\n    tag_483:\n        /* \"#utility.yul\":18389:18407   */\n      0xffffffffffffffff\n        /* \"#utility.yul\":18381:18387   */\n      dup2\n        /* \"#utility.yul\":18378:18408   */\n      gt\n        /* \"#utility.yul\":18375:18431   */\n      iszero\n      tag_484\n      jumpi\n        /* \"#utility.yul\":18411:18429   */\n      tag_485\n      tag_147\n      jump\t// in\n    tag_485:\n        /* \"#utility.yul\":18375:18431   */\n    tag_484:\n        /* \"#utility.yul\":18455:18493   */\n      tag_486\n        /* \"#utility.yul\":18487:18491   */\n      dup3\n        /* \"#utility.yul\":18481:18492   */\n      sload\n        /* \"#utility.yul\":18455:18493   */\n      tag_73\n      jump\t// in\n    tag_486:\n        /* \"#utility.yul\":18540:18607   */\n      tag_487\n        /* \"#utility.yul\":18600:18606   */\n      dup3\n        /* \"#utility.yul\":18592:18598   */\n      dup3\n        /* \"#utility.yul\":18586:18590   */\n      dup6\n        /* \"#utility.yul\":18540:18607   */\n      tag_280\n      jump\t// in\n    tag_487:\n        /* \"#utility.yul\":18634:18635   */\n      0x00\n        /* \"#utility.yul\":18658:18662   */\n      0x20\n        /* \"#utility.yul\":18645:18662   */\n      swap1\n      pop\n        /* \"#utility.yul\":18690:18692   */\n      0x1f\n        /* \"#utility.yul\":18682:18688   */\n      dup4\n        /* \"#utility.yul\":18679:18693   */\n      gt\n        /* \"#utility.yul\":18707:18708   */\n      0x01\n        /* \"#utility.yul\":18702:19320   */\n      dup2\n      eq\n      tag_489\n      jumpi\n        /* \"#utility.yul\":19364:19365   */\n      0x00\n        /* \"#utility.yul\":19381:19387   */\n      dup5\n        /* \"#utility.yul\":19378:19455   */\n      iszero\n      tag_490\n      jumpi\n        /* \"#utility.yul\":19430:19439   */\n      dup3\n        /* \"#utility.yul\":19425:19428   */\n      dup8\n        /* \"#utility.yul\":19421:19440   */\n      add\n        /* \"#utility.yul\":19415:19441   */\n      mload\n        /* \"#utility.yul\":19406:19441   */\n      swap1\n      pop\n        /* \"#utility.yul\":19378:19455   */\n    tag_490:\n        /* \"#utility.yul\":19481:19548   */\n      tag_491\n        /* \"#utility.yul\":19541:19547   */\n      dup6\n        /* \"#utility.yul\":19534:19539   */\n      dup3\n        /* \"#utility.yul\":19481:19548   */\n      tag_283\n      jump\t// in\n    tag_491:\n        /* \"#utility.yul\":19475:19479   */\n      dup7\n        /* \"#utility.yul\":19468:19549   */\n      sstore\n        /* \"#utility.yul\":19337:19559   */\n      pop\n        /* \"#utility.yul\":18672:19559   */\n      jump(tag_488)\n        /* \"#utility.yul\":18702:19320   */\n    tag_489:\n        /* \"#utility.yul\":18754:18758   */\n      0x1f\n        /* \"#utility.yul\":18750:18759   */\n      not\n        /* \"#utility.yul\":18742:18748   */\n      dup5\n        /* \"#utility.yul\":18738:18760   */\n      and\n        /* \"#utility.yul\":18788:18825   */\n      tag_492\n        /* \"#utility.yul\":18820:18824   */\n      dup7\n        /* \"#utility.yul\":18788:18825   */\n      tag_269\n      jump\t// in\n    tag_492:\n        /* \"#utility.yul\":18847:18848   */\n      0x00\n        /* \"#utility.yul\":18861:19069   */\n    tag_493:\n        /* \"#utility.yul\":18875:18882   */\n      dup3\n        /* \"#utility.yul\":18872:18873   */\n      dup2\n        /* \"#utility.yul\":18869:18883   */\n      lt\n        /* \"#utility.yul\":18861:19069   */\n      iszero\n      tag_495\n      jumpi\n        /* \"#utility.yul\":18954:18963   */\n      dup5\n        /* \"#utility.yul\":18949:18952   */\n      dup10\n        /* \"#utility.yul\":18945:18964   */\n      add\n        /* \"#utility.yul\":18939:18965   */\n      mload\n        /* \"#utility.yul\":18931:18937   */\n      dup3\n        /* \"#utility.yul\":18924:18966   */\n      sstore\n        /* \"#utility.yul\":19005:19006   */\n      0x01\n        /* \"#utility.yul\":18997:19003   */\n      dup3\n        /* \"#utility.yul\":18993:19007   */\n      add\n        /* \"#utility.yul\":18983:19007   */\n      swap2\n      pop\n        /* \"#utility.yul\":19052:19054   */\n      0x20\n        /* \"#utility.yul\":19041:19050   */\n      dup6\n        /* \"#utility.yul\":19037:19055   */\n      add\n        /* \"#utility.yul\":19024:19055   */\n      swap5\n      pop\n        /* \"#utility.yul\":18898:18902   */\n      0x20\n        /* \"#utility.yul\":18895:18896   */\n      dup2\n        /* \"#utility.yul\":18891:18903   */\n      add\n        /* \"#utility.yul\":18886:18903   */\n      swap1\n      pop\n        /* \"#utility.yul\":18861:19069   */\n      jump(tag_493)\n    tag_495:\n        /* \"#utility.yul\":19097:19103   */\n      dup7\n        /* \"#utility.yul\":19088:19095   */\n      dup4\n        /* \"#utility.yul\":19085:19104   */\n      lt\n        /* \"#utility.yul\":19082:19261   */\n      iszero\n      tag_496\n      jumpi\n        /* \"#utility.yul\":19155:19164   */\n      dup5\n        /* \"#utility.yul\":19150:19153   */\n      dup10\n        /* \"#utility.yul\":19146:19165   */\n      add\n        /* \"#utility.yul\":19140:19166   */\n      mload\n        /* \"#utility.yul\":19198:19246   */\n      tag_497\n        /* \"#utility.yul\":19240:19244   */\n      0x1f\n        /* \"#utility.yul\":19232:19238   */\n      dup10\n        /* \"#utility.yul\":19228:19245   */\n      and\n        /* \"#utility.yul\":19217:19226   */\n      dup3\n        /* \"#utility.yul\":19198:19246   */\n      tag_282\n      jump\t// in\n    tag_497:\n        /* \"#utility.yul\":19190:19196   */\n      dup4\n        /* \"#utility.yul\":19183:19247   */\n      sstore\n        /* \"#utility.yul\":19105:19261   */\n      pop\n        /* \"#utility.yul\":19082:19261   */\n    tag_496:\n        /* \"#utility.yul\":19307:19308   */\n      0x01\n        /* \"#utility.yul\":19303:19304   */\n      0x02\n        /* \"#utility.yul\":19295:19301   */\n      dup9\n        /* \"#utility.yul\":19291:19305   */\n      mul\n        /* \"#utility.yul\":19287:19309   */\n      add\n        /* \"#utility.yul\":19281:19285   */\n      dup9\n        /* \"#utility.yul\":19274:19310   */\n      sstore\n        /* \"#utility.yul\":18709:19320   */\n      pop\n      pop\n      pop\n        /* \"#utility.yul\":18672:19559   */\n    tag_488:\n      pop\n        /* \"#utility.yul\":18262:19565   */\n      pop\n      pop\n      pop\n        /* \"#utility.yul\":18170:19565   */\n      pop\n      pop\n      jump\t// out\n        /* \"#utility.yul\":19571:19751   */\n    tag_97:\n        /* \"#utility.yul\":19619:19696   */\n      0x4e487b7100000000000000000000000000000000000000000000000000000000\n        /* \"#utility.yul\":19616:19617   */\n      0x00\n        /* \"#utility.yul\":19609:19697   */\n      mstore\n        /* \"#utility.yul\":19716:19720   */\n      0x32\n        /* \"#utility.yul\":19713:19714   */\n      0x04\n        /* \"#utility.yul\":19706:19721   */\n      mstore\n        /* \"#utility.yul\":19740:19744   */\n      0x24\n        /* \"#utility.yul\":19737:19738   */\n      0x00\n        /* \"#utility.yul\":19730:19745   */\n      revert\n        /* \"#utility.yul\":19757:19925   */\n    tag_284:\n        /* \"#utility.yul\":19897:19917   */\n      0x4e6f20617661696c61626c65206e6f6465730000000000000000000000000000\n        /* \"#utility.yul\":19893:19894   */\n      0x00\n        /* \"#utility.yul\":19885:19891   */\n      dup3\n        /* \"#utility.yul\":19881:19895   */\n      add\n        /* \"#utility.yul\":19874:19918   */\n      mstore\n        /* \"#utility.yul\":19757:19925   */\n      pop\n      jump\t// out\n        /* \"#utility.yul\":19931:20297   */\n    tag_285:\n        /* \"#utility.yul\":20073:20076   */\n      0x00\n        /* \"#utility.yul\":20094:20161   */\n      tag_501\n        /* \"#utility.yul\":20158:20160   */\n      0x12\n        /* \"#utility.yul\":20153:20156   */\n      dup4\n        /* \"#utility.yul\":20094:20161   */\n      tag_250\n      jump\t// in\n    tag_501:\n        /* \"#utility.yul\":20087:20161   */\n      swap2\n      pop\n        /* \"#utility.yul\":20170:20263   */\n      tag_502\n        /* \"#utility.yul\":20259:20262   */\n      dup3\n        /* \"#utility.yul\":20170:20263   */\n      tag_284\n      jump\t// in\n    tag_502:\n        /* \"#utility.yul\":20288:20290   */\n      0x20\n        /* \"#utility.yul\":20283:20286   */\n      dup3\n        /* \"#utility.yul\":20279:20291   */\n      add\n        /* \"#utility.yul\":20272:20291   */\n      swap1\n      pop\n        /* \"#utility.yul\":19931:20297   */\n      swap2\n      swap1\n      pop\n      jump\t// out\n        /* \"#utility.yul\":20303:20722   */\n    tag_102:\n        /* \"#utility.yul\":20469:20473   */\n      0x00\n        /* \"#utility.yul\":20507:20509   */\n      0x20\n        /* \"#utility.yul\":20496:20505   */\n      dup3\n        /* \"#utility.yul\":20492:20510   */\n      add\n        /* \"#utility.yul\":20484:20510   */\n      swap1\n      pop\n        /* \"#utility.yul\":20556:20565   */\n      dup2\n        /* \"#utility.yul\":20550:20554   */\n      dup2\n        /* \"#utility.yul\":20546:20566   */\n      sub\n        /* \"#utility.yul\":20542:20543   */\n      0x00\n        /* \"#utility.yul\":20531:20540   */\n      dup4\n        /* \"#utility.yul\":20527:20544   */\n      add\n        /* \"#utility.yul\":20520:20567   */\n      mstore\n        /* \"#utility.yul\":20584:20715   */\n      tag_504\n        /* \"#utility.yul\":20710:20714   */\n      dup2\n        /* \"#utility.yul\":20584:20715   */\n      tag_285\n      jump\t// in\n    tag_504:\n        /* \"#utility.yul\":20576:20715   */\n      swap1\n      pop\n        /* \"#utility.yul\":20303:20722   */\n      swap2\n      swap1\n      pop\n      jump\t// out\n        /* \"#utility.yul\":20728:20908   */\n    tag_286:\n        /* \"#utility.yul\":20776:20853   */\n      0x4e487b7100000000000000000000000000000000000000000000000000000000\n        /* \"#utility.yul\":20773:20774   */\n      0x00\n        /* \"#utility.yul\":20766:20854   */\n      mstore\n        /* \"#utility.yul\":20873:20877   */\n      0x11\n        /* \"#utility.yul\":20870:20871   */\n      0x04\n        /* \"#utility.yul\":20863:20878   */\n      mstore\n        /* \"#utility.yul\":20897:20901   */\n      0x24\n        /* \"#utility.yul\":20894:20895   */\n      0x00\n        /* \"#utility.yul\":20887:20902   */\n      revert\n        /* \"#utility.yul\":20914:21108   */\n    tag_110:\n        /* \"#utility.yul\":20954:20958   */\n      0x00\n        /* \"#utility.yul\":20974:20994   */\n      tag_507\n        /* \"#utility.yul\":20992:20993   */\n      dup3\n        /* \"#utility.yul\":20974:20994   */\n      tag_235\n      jump\t// in\n    tag_507:\n        /* \"#utility.yul\":20969:20994   */\n      swap2\n      pop\n        /* \"#utility.yul\":21008:21028   */\n      tag_508\n        /* \"#utility.yul\":21026:21027   */\n      dup4\n        /* \"#utility.yul\":21008:21028   */\n      tag_235\n      jump\t// in\n    tag_508:\n        /* \"#utility.yul\":21003:21028   */\n      swap3\n      pop\n        /* \"#utility.yul\":21052:21053   */\n      dup3\n        /* \"#utility.yul\":21049:21050   */\n      dup3\n        /* \"#utility.yul\":21045:21054   */\n      sub\n        /* \"#utility.yul\":21037:21054   */\n      swap1\n      pop\n        /* \"#utility.yul\":21076:21077   */\n      dup2\n        /* \"#utility.yul\":21070:21074   */\n      dup2\n        /* \"#utility.yul\":21067:21078   */\n      gt\n        /* \"#utility.yul\":21064:21101   */\n      iszero\n      tag_509\n      jumpi\n        /* \"#utility.yul\":21081:21099   */\n      tag_510\n      tag_286\n      jump\t// in\n    tag_510:\n        /* \"#utility.yul\":21064:21101   */\n    tag_509:\n        /* \"#utility.yul\":20914:21108   */\n      swap3\n      swap2\n      pop\n      pop\n      jump\t// out\n        /* \"#utility.yul\":21114:21276   */\n    tag_287:\n        /* \"#utility.yul\":21254:21268   */\n      0x556e617574686f72697a65640000000000000000000000000000000000000000\n        /* \"#utility.yul\":21250:21251   */\n      0x00\n        /* \"#utility.yul\":21242:21248   */\n      dup3\n        /* \"#utility.yul\":21238:21252   */\n      add\n        /* \"#utility.yul\":21231:21269   */\n      mstore\n        /* \"#utility.yul\":21114:21276   */\n      pop\n      jump\t// out\n        /* \"#utility.yul\":21282:21648   */\n    tag_288:\n        /* \"#utility.yul\":21424:21427   */\n      0x00\n        /* \"#utility.yul\":21445:21512   */\n      tag_513\n        /* \"#utility.yul\":21509:21511   */\n      0x0c\n        /* \"#utility.yul\":21504:21507   */\n      dup4\n        /* \"#utility.yul\":21445:21512   */\n      tag_250\n      jump\t// in\n    tag_513:\n        /* \"#utility.yul\":21438:21512   */\n      swap2\n      pop\n        /* \"#utility.yul\":21521:21614   */\n      tag_514\n        /* \"#utility.yul\":21610:21613   */\n      dup3\n        /* \"#utility.yul\":21521:21614   */\n      tag_287\n      jump\t// in\n    tag_514:\n        /* \"#utility.yul\":21639:21641   */\n      0x20\n        /* \"#utility.yul\":21634:21637   */\n      dup3\n        /* \"#utility.yul\":21630:21642   */\n      add\n        /* \"#utility.yul\":21623:21642   */\n      swap1\n      pop\n        /* \"#utility.yul\":21282:21648   */\n      swap2\n      swap1\n      pop\n      jump\t// out\n        /* \"#utility.yul\":21654:22073   */\n    tag_120:\n        /* \"#utility.yul\":21820:21824   */\n      0x00\n        /* \"#utility.yul\":21858:21860   */\n      0x20\n        /* \"#utility.yul\":21847:21856   */\n      dup3\n        /* \"#utility.yul\":21843:21861   */\n      add\n        /* \"#utility.yul\":21835:21861   */\n      swap1\n      pop\n        /* \"#utility.yul\":21907:21916   */\n      dup2\n        /* \"#utility.yul\":21901:21905   */\n      dup2\n        /* \"#utility.yul\":21897:21917   */\n      sub\n        /* \"#utility.yul\":21893:21894   */\n      0x00\n        /* \"#utility.yul\":21882:21891   */\n      dup4\n        /* \"#utility.yul\":21878:21895   */\n      add\n        /* \"#utility.yul\":21871:21918   */\n      mstore\n        /* \"#utility.yul\":21935:22066   */\n      tag_516\n        /* \"#utility.yul\":22061:22065   */\n      dup2\n        /* \"#utility.yul\":21935:22066   */\n      tag_288\n      jump\t// in\n    tag_516:\n        /* \"#utility.yul\":21927:22066   */\n      swap1\n      pop\n        /* \"#utility.yul\":21654:22073   */\n      swap2\n      swap1\n      pop\n      jump\t// out\n        /* \"#utility.yul\":22079:22248   */\n    tag_289:\n        /* \"#utility.yul\":22219:22240   */\n      0x4e6f646520646f6573206e6f7420657869737400000000000000000000000000\n        /* \"#utility.yul\":22215:22216   */\n      0x00\n        /* \"#utility.yul\":22207:22213   */\n      dup3\n        /* \"#utility.yul\":22203:22217   */\n      add\n        /* \"#utility.yul\":22196:22241   */\n      mstore\n        /* \"#utility.yul\":22079:22248   */\n      pop\n      jump\t// out\n        /* \"#utility.yul\":22254:22620   */\n    tag_290:\n        /* \"#utility.yul\":22396:22399   */\n      0x00\n        /* \"#utility.yul\":22417:22484   */\n      tag_519\n        /* \"#utility.yul\":22481:22483   */\n      0x13\n        /* \"#utility.yul\":22476:22479   */\n      dup4\n        /* \"#utility.yul\":22417:22484   */\n      tag_250\n      jump\t// in\n    tag_519:\n        /* \"#utility.yul\":22410:22484   */\n      swap2\n      pop\n        /* \"#utility.yul\":22493:22586   */\n      tag_520\n        /* \"#utility.yul\":22582:22585   */\n      dup3\n        /* \"#utility.yul\":22493:22586   */\n      tag_289\n      jump\t// in\n    tag_520:\n        /* \"#utility.yul\":22611:22613   */\n      0x20\n        /* \"#utility.yul\":22606:22609   */\n      dup3\n        /* \"#utility.yul\":22602:22614   */\n      add\n        /* \"#utility.yul\":22595:22614   */\n      swap1\n      pop\n        /* \"#utility.yul\":22254:22620   */\n      swap2\n      swap1\n      pop\n      jump\t// out\n        /* \"#utility.yul\":22626:23045   */\n    tag_133:\n        /* \"#utility.yul\":22792:22796   */\n      0x00\n        /* \"#utility.yul\":22830:22832   */\n      0x20\n        /* \"#utility.yul\":22819:22828   */\n      dup3\n        /* \"#utility.yul\":22815:22833   */\n      add\n        /* \"#utility.yul\":22807:22833   */\n      swap1\n      pop\n        /* \"#utility.yul\":22879:22888   */\n      dup2\n        /* \"#utility.yul\":22873:22877   */\n      dup2\n        /* \"#utility.yul\":22869:22889   */\n      sub\n        /* \"#utility.yul\":22865:22866   */\n      0x00\n        /* \"#utility.yul\":22854:22863   */\n      dup4\n        /* \"#utility.yul\":22850:22867   */\n      add\n        /* \"#utility.yul\":22843:22890   */\n      mstore\n        /* \"#utility.yul\":22907:23038   */\n      tag_522\n        /* \"#utility.yul\":23033:23037   */\n      dup2\n        /* \"#utility.yul\":22907:23038   */\n      tag_290\n      jump\t// in\n    tag_522:\n        /* \"#utility.yul\":22899:23038   */\n      swap1\n      pop\n        /* \"#utility.yul\":22626:23045   */\n      swap2\n      swap1\n      pop\n      jump\t// out\n        /* \"#utility.yul\":23051:23242   */\n    tag_144:\n        /* \"#utility.yul\":23091:23094   */\n      0x00\n        /* \"#utility.yul\":23110:23130   */\n      tag_524\n        /* \"#utility.yul\":23128:23129   */\n      dup3\n        /* \"#utility.yul\":23110:23130   */\n      tag_235\n      jump\t// in\n    tag_524:\n        /* \"#utility.yul\":23105:23130   */\n      swap2\n      pop\n        /* \"#utility.yul\":23144:23164   */\n      tag_525\n        /* \"#utility.yul\":23162:23163   */\n      dup4\n        /* \"#utility.yul\":23144:23164   */\n      tag_235\n      jump\t// in\n    tag_525:\n        /* \"#utility.yul\":23139:23164   */\n      swap3\n      pop\n        /* \"#utility.yul\":23187:23188   */\n      dup3\n        /* \"#utility.yul\":23184:23185   */\n      dup3\n        /* \"#utility.yul\":23180:23189   */\n      add\n        /* \"#utility.yul\":23173:23189   */\n      swap1\n      pop\n        /* \"#utility.yul\":23208:23211   */\n      dup1\n        /* \"#utility.yul\":23205:23206   */\n      dup3\n        /* \"#utility.yul\":23202:23212   */\n      gt\n        /* \"#utility.yul\":23199:23235   */\n      iszero\n      tag_526\n      jumpi\n        /* \"#utility.yul\":23215:23233   */\n      tag_527\n      tag_286\n      jump\t// in\n    tag_527:\n        /* \"#utility.yul\":23199:23235   */\n    tag_526:\n        /* \"#utility.yul\":23051:23242   */\n      swap3\n      swap2\n      pop\n      pop\n      jump\t// out\n        /* \"#utility.yul\":23248:23481   */\n    tag_160:\n        /* \"#utility.yul\":23287:23290   */\n      0x00\n        /* \"#utility.yul\":23310:23334   */\n      tag_529\n        /* \"#utility.yul\":23328:23333   */\n      dup3\n        /* \"#utility.yul\":23310:23334   */\n      tag_235\n      jump\t// in\n    tag_529:\n        /* \"#utility.yul\":23301:23334   */\n      swap2\n      pop\n        /* \"#utility.yul\":23356:23422   */\n      0xffffffffffffffffffffffffffffffffffffffffffffffffffffffffffffffff\n        /* \"#utility.yul\":23349:23354   */\n      dup3\n        /* \"#utility.yul\":23346:23423   */\n      sub\n        /* \"#utility.yul\":23343:23446   */\n      tag_530\n      jumpi\n        /* \"#utility.yul\":23426:23444   */\n      tag_531\n      tag_286\n      jump\t// in\n    tag_531:\n        /* \"#utility.yul\":23343:23446   */\n    tag_530:\n        /* \"#utility.yul\":23473:23474   */\n      0x01\n        /* \"#utility.yul\":23466:23471   */\n      dup3\n        /* \"#utility.yul\":23462:23475   */\n      add\n        /* \"#utility.yul\":23455:23475   */\n      swap1\n      pop\n        /* \"#utility.yul\":23248:23481   */\n      swap2\n      swap1\n      pop\n      jump\t// out\n        /* \"#utility.yul\":23487:23667   */\n    tag_291:\n        /* \"#utility.yul\":23535:23612   */\n      0x4e487b7100000000000000000000000000000000000000000000000000000000\n        /* \"#utility.yul\":23532:23533   */\n      0x00\n        /* \"#utility.yul\":23525:23613   */\n      mstore\n        /* \"#utility.yul\":23632:23636   */\n      0x12\n        /* \"#utility.yul\":23629:23630   */\n      0x04\n        /* \"#utility.yul\":23622:23637   */\n      mstore\n        /* \"#utility.yul\":23656:23660   */\n      0x24\n        /* \"#utility.yul\":23653:23654   */\n      0x00\n        /* \"#utility.yul\":23646:23661   */\n      revert\n        /* \"#utility.yul\":23673:23858   */\n    tag_167:\n        /* \"#utility.yul\":23713:23714   */\n      0x00\n        /* \"#utility.yul\":23730:23750   */\n      tag_534\n        /* \"#utility.yul\":23748:23749   */\n      dup3\n        /* \"#utility.yul\":23730:23750   */\n      tag_235\n      jump\t// in\n    tag_534:\n        /* \"#utility.yul\":23725:23750   */\n      swap2\n      pop\n        /* \"#utility.yul\":23764:23784   */\n      tag_535\n        /* \"#utility.yul\":23782:23783   */\n      dup4\n        /* \"#utility.yul\":23764:23784   */\n      tag_235\n      jump\t// in\n    tag_535:\n        /* \"#utility.yul\":23759:23784   */\n      swap3\n      pop\n        /* \"#utility.yul\":23803:23804   */\n      dup3\n        /* \"#utility.yul\":23793:23828   */\n      tag_536\n      jumpi\n        /* \"#utility.yul\":23808:23826   */\n      tag_537\n      tag_291\n      jump\t// in\n    tag_537:\n        /* \"#utility.yul\":23793:23828   */\n    tag_536:\n        /* \"#utility.yul\":23850:23851   */\n      dup3\n        /* \"#utility.yul\":23847:23848   */\n      dup3\n        /* \"#utility.yul\":23843:23852   */\n      div\n        /* \"#utility.yul\":23838:23852   */\n      swap1\n      pop\n        /* \"#utility.yul\":23673:23858   */\n      swap3\n      swap2\n      pop\n      pop\n      jump\t// out\n        /* \"#utility.yul\":23864:24274   */\n    tag_176:\n        /* \"#utility.yul\":23904:23911   */\n      0x00\n        /* \"#utility.yul\":23927:23947   */\n      tag_539\n        /* \"#utility.yul\":23945:23946   */\n      dup3\n        /* \"#utility.yul\":23927:23947   */\n      tag_235\n      jump\t// in\n    tag_539:\n        /* \"#utility.yul\":23922:23947   */\n      swap2\n      pop\n        /* \"#utility.yul\":23961:23981   */\n      tag_540\n        /* \"#utility.yul\":23979:23980   */\n      dup4\n        /* \"#utility.yul\":23961:23981   */\n      tag_235\n      jump\t// in\n    tag_540:\n        /* \"#utility.yul\":23956:23981   */\n      swap3\n      pop\n        /* \"#utility.yul\":24016:24017   */\n      dup3\n        /* \"#utility.yul\":24013:24014   */\n      dup3\n        /* \"#utility.yul\":24009:24018   */\n      mul\n        /* \"#utility.yul\":24038:24068   */\n      tag_541\n        /* \"#utility.yul\":24056:24067   */\n      dup2\n        /* \"#utility.yul\":24038:24068   */\n      tag_235\n      jump\t// in\n    tag_541:\n        /* \"#utility.yul\":24027:24068   */\n      swap2\n      pop\n        /* \"#utility.yul\":24217:24218   */\n      dup3\n        /* \"#utility.yul\":24208:24215   */\n      dup3\n        /* \"#utility.yul\":24204:24219   */\n      div\n        /* \"#utility.yul\":24201:24202   */\n      dup5\n        /* \"#utility.yul\":24198:24220   */\n      eq\n        /* \"#utility.yul\":24178:24179   */\n      dup4\n        /* \"#utility.yul\":24171:24180   */\n      iszero\n        /* \"#utility.yul\":24151:24234   */\n      or\n        /* \"#utility.yul\":24128:24267   */\n      tag_542\n      jumpi\n        /* \"#utility.yul\":24247:24265   */\n      tag_543\n      tag_286\n      jump\t// in\n    tag_543:\n        /* \"#utility.yul\":24128:24267   */\n    tag_542:\n        /* \"#utility.yul\":23912:24274   */\n      pop\n        /* \"#utility.yul\":23864:24274   */\n      swap3\n      swap2\n      pop\n      pop\n      jump\t// out\n        /* \"#utility.yul\":24280:24456   */\n    tag_197:\n        /* \"#utility.yul\":24312:24313   */\n      0x00\n        /* \"#utility.yul\":24329:24349   */\n      tag_545\n        /* \"#utility.yul\":24347:24348   */\n      dup3\n        /* \"#utility.yul\":24329:24349   */\n      tag_235\n      jump\t// in\n    tag_545:\n        /* \"#utility.yul\":24324:24349   */\n      swap2\n      pop\n        /* \"#utility.yul\":24363:24383   */\n      tag_546\n        /* \"#utility.yul\":24381:24382   */\n      dup4\n        /* \"#utility.yul\":24363:24383   */\n      tag_235\n      jump\t// in\n    tag_546:\n        /* \"#utility.yul\":24358:24383   */\n      swap3\n      pop\n        /* \"#utility.yul\":24402:24403   */\n      dup3\n        /* \"#utility.yul\":24392:24427   */\n      tag_547\n      jumpi\n        /* \"#utility.yul\":24407:24425   */\n      tag_548\n      tag_291\n      jump\t// in\n    tag_548:\n        /* \"#utility.yul\":24392:24427   */\n    tag_547:\n        /* \"#utility.yul\":24448:24449   */\n      dup3\n        /* \"#utility.yul\":24445:24446   */\n      dup3\n        /* \"#utility.yul\":24441:24450   */\n      mod\n        /* \"#utility.yul\":24436:24450   */\n      swap1\n      pop\n        /* \"#utility.yul\":24280:24456   */\n      swap3\n      swap2\n      pop\n      pop\n      jump\t// out\n\n    auxdata: 0xa264697066735822122059d9b7babd0d58f14bdd3d5bdc7f439d45a0dc0491fb9de11b358600a54b96e164736f6c63430008160033\n}\n",
				"bytecode": {
					"linkReferences": {},
					"object": "608060405234801561000f575f80fd5b503360025f6101000a81548173ffffffffffffffffffffffffffffffffffffffff021916908373ffffffffffffffffffffffffffffffffffffffff160217905550611df68061005d5f395ff3fe608060405234801561000f575f80fd5b506004361061009c575f3560e01c8063a1174e7d11610064578063a1174e7d14610157578063a991005414610175578063b49f33c814610191578063b65814a6146101ad578063fe72ae13146101c95761009c565b806311bd77fe146100a0578063189a5a17146100bc5780632804401c146100ed5780637dd77d2b1461011d5780638da5cb5b14610139575b5f80fd5b6100ba60048036038101906100b5919061117e565b6101f9565b005b6100d660048036038101906100d191906111bc565b6103e0565b6040516100e4929190611205565b60405180910390f35b61010760048036038101906101029190611368565b61041e565b6040516101149190611429565b60405180910390f35b61013760048036038101906101329190611449565b6105c8565b005b61014161080f565b60405161014e91906114ed565b60405180910390f35b61015f610834565b60405161016c91906115bd565b60405180910390f35b61018f600480360381019061018a9190611368565b6108bf565b005b6101ab60048036038101906101a6919061117e565b610a3c565b005b6101c760048036038101906101c291906115dd565b610b4f565b005b6101e360048036038101906101de9190611637565b610b53565b6040516101f091906114ed565b60405180910390f35b5f73ffffffffffffffffffffffffffffffffffffffff165f808473ffffffffffffffffffffffffffffffffffffffff1673ffffffffffffffffffffffffffffffffffffffff1681526020019081526020015f205f015f9054906101000a900473ffffffffffffffffffffffffffffffffffffffff1673ffffffffffffffffffffffffffffffffffffffff16146102c4576040517f08c379a00000000000000000000000000000000000000000000000000000000081526004016102bb906116ac565b60405180910390fd5b60405180604001604052808373ffffffffffffffffffffffffffffffffffffffff168152602001828152505f808473ffffffffffffffffffffffffffffffffffffffff1673ffffffffffffffffffffffffffffffffffffffff1681526020019081526020015f205f820151815f015f6101000a81548173ffffffffffffffffffffffffffffffffffffffff021916908373ffffffffffffffffffffffffffffffffffffffff16021790555060208201518160010155905050600182908060018154018082558091505060019003905f5260205f20015f9091909190916101000a81548173ffffffffffffffffffffffffffffffffffffffff021916908373ffffffffffffffffffffffffffffffffffffffff1602179055505050565b5f602052805f5260405f205f91509050805f015f9054906101000a900473ffffffffffffffffffffffffffffffffffffffff16908060010154905082565b60605f6003836040516104319190611704565b90815260200160405180910390206001015411610483576040517f08c379a000000000000000000000000000000000000000000000000000000000815260040161047a90611764565b60405180910390fd5b5f6005836040516104949190611704565b9081526020016040518091039020805480602002602001604051908101604052809291908181526020015f905b82821015610569578382905f5260205f200180546104de906117af565b80601f016020809104026020016040519081016040528092919081815260200182805461050a906117af565b80156105555780601f1061052c57610100808354040283529160200191610555565b820191905f5260205f20905b81548152906001019060200180831161053857829003601f168201915b5050505050815260200190600101906104c1565b5050505090505f8151116105b2576040517f08c379a00000000000000000000000000000000000000000000000000000000081526004016105a990611829565b60405180910390fd5b5f6105bc82610b8e565b90508092505050919050565b5f825190506040518060400160405280858152602001828152506003836040516105f29190611704565b90815260200160405180910390205f820151815f01908161061391906119e4565b50602082015181600101559050505f61062b84610ceb565b90508060058460405161063e9190611704565b9081526020016040518091039020908051906020019061065f929190610fd2565b505f5b8151811015610807575f82828151811061067f5761067e611ab3565b5b60200260200101515190505f61069482610ebb565b90505f73ffffffffffffffffffffffffffffffffffffffff168173ffffffffffffffffffffffffffffffffffffffff1603610704576040517f08c379a00000000000000000000000000000000000000000000000000000000081526004016106fb90611b2a565b60405180910390fd5b6004866040516107149190611704565b908152602001604051809103902081908060018154018082558091505060019003905f5260205f20015f9091909190916101000a81548173ffffffffffffffffffffffffffffffffffffffff021916908373ffffffffffffffffffffffffffffffffffffffff1602179055506107a48185858151811061079757610796611ab3565b5b6020026020010151610b4f565b6107f881835f808573ffffffffffffffffffffffffffffffffffffffff1673ffffffffffffffffffffffffffffffffffffffff1681526020019081526020015f20600101546107f39190611b75565b610a3c565b50508080600101915050610662565b505050505050565b60025f9054906101000a900473ffffffffffffffffffffffffffffffffffffffff1681565b606060018054806020026020016040519081016040528092919081815260200182805480156108b557602002820191905f5260205f20905b815f9054906101000a900473ffffffffffffffffffffffffffffffffffffffff1673ffffffffffffffffffffffffffffffffffffffff168152602001906001019080831161086c575b5050505050905090565b5f6003826040516108d09190611704565b90815260200160405180910390206001015411610922576040517f08c379a000000000000000000000000000000000000000000000000000000000815260040161091990611764565b60405180910390fd5b60025f9054906101000a900473ffffffffffffffffffffffffffffffffffffffff1673ffffffffffffffffffffffffffffffffffffffff163373ffffffffffffffffffffffffffffffffffffffff16146109b1576040517f08c379a00000000000000000000000000000000000000000000000000000000081526004016109a890611bf2565b60405180910390fd5b6003816040516109c19190611704565b90815260200160405180910390205f8082015f6109de9190611029565b600182015f905550506004816040516109f79190611704565b90815260200160405180910390205f610a109190611066565b600581604051610a209190611704565b90815260200160405180910390205f610a399190611084565b50565b5f73ffffffffffffffffffffffffffffffffffffffff165f808473ffffffffffffffffffffffffffffffffffffffff1673ffffffffffffffffffffffffffffffffffffffff1681526020019081526020015f205f015f9054906101000a900473ffffffffffffffffffffffffffffffffffffffff1673ffffffffffffffffffffffffffffffffffffffff1603610b07576040517f08c379a0000000000000000000000000000000000000000000000000000000008152600401610afe90611c5a565b60405180910390fd5b805f808473ffffffffffffffffffffffffffffffffffffffff1673ffffffffffffffffffffffffffffffffffffffff1681526020019081526020015f20600101819055505050565b5050565b60018181548110610b62575f80fd5b905f5260205f20015f915054906101000a900473ffffffffffffffffffffffffffffffffffffffff1681565b60605f805b8351811015610bd257838181518110610baf57610bae611ab3565b5b60200260200101515182610bc39190611c78565b91508080600101915050610b93565b505f8167ffffffffffffffff811115610bee57610bed611244565b5b6040519080825280601f01601f191660200182016040528015610c205781602001600182028036833780820191505090505b5090505f805b8551811015610cdf575f868281518110610c4357610c42611ab3565b5b602002602001015190505f5b8151811015610cd057818181518110610c6b57610c6a611ab3565b5b602001015160f81c60f81b858580610c8290611cab565b965081518110610c9557610c94611ab3565b5b60200101907effffffffffffffffffffffffffffffffffffffffffffffffffffffffffffff191690815f1a9053508080600101915050610c4f565b50508080600101915050610c26565b50819350505050919050565b60605f602090505f816001838651610d039190611c78565b610d0d9190611b75565b610d179190611d1f565b90505f8167ffffffffffffffff811115610d3457610d33611244565b5b604051908082528060200260200182016040528015610d6757816020015b6060815260200190600190039081610d525790505b5090505f5b82811015610eaf575f8482610d819190611d4f565b90505f8582610d909190611c78565b90508751811115610da057875190505b5f8282610dad9190611b75565b67ffffffffffffffff811115610dc657610dc5611244565b5b6040519080825280601f01601f191660200182016040528015610df85781602001600182028036833780820191505090505b5090505f8390505b82811015610e7f57898181518110610e1b57610e1a611ab3565b5b602001015160f81c60f81b828583610e339190611b75565b81518110610e4457610e43611ab3565b5b60200101907effffffffffffffffffffffffffffffffffffffffffffffffffffffffffffff191690815f1a9053508080600101915050610e00565b5080858581518110610e9457610e93611ab3565b5b60200260200101819052505050508080600101915050610d6c565b50809350505050919050565b5f8060018054905090505f603290505f8203610edb575f92505050610fcd565b5f82600143610eea9190611b75565b405f1c610ef79190611d90565b90505f5b83811015610fc5575f6001858385610f139190611c78565b610f1d9190611d90565b81548110610f2e57610f2d611ab3565b5b905f5260205f20015f9054906101000a900473ffffffffffffffffffffffffffffffffffffffff1690508387610f649190611c78565b5f808373ffffffffffffffffffffffffffffffffffffffff1673ffffffffffffffffffffffffffffffffffffffff1681526020019081526020015f20600101541115610fb7578095505050505050610fcd565b508080600101915050610efb565b505f93505050505b919050565b828054828255905f5260205f20908101928215611018579160200282015b8281111561101757825182908161100791906119e4565b5091602001919060010190610ff0565b5b50905061102591906110a2565b5090565b508054611035906117af565b5f825580601f106110465750611063565b601f0160209004905f5260205f209081019061106291906110c5565b5b50565b5080545f8255905f5260205f209081019061108191906110c5565b50565b5080545f8255905f5260205f209081019061109f91906110a2565b50565b5b808211156110c1575f81816110b89190611029565b506001016110a3565b5090565b5b808211156110dc575f815f9055506001016110c6565b5090565b5f604051905090565b5f80fd5b5f80fd5b5f73ffffffffffffffffffffffffffffffffffffffff82169050919050565b5f61111a826110f1565b9050919050565b61112a81611110565b8114611134575f80fd5b50565b5f8135905061114581611121565b92915050565b5f819050919050565b61115d8161114b565b8114611167575f80fd5b50565b5f8135905061117881611154565b92915050565b5f8060408385031215611194576111936110e9565b5b5f6111a185828601611137565b92505060206111b28582860161116a565b9150509250929050565b5f602082840312156111d1576111d06110e9565b5b5f6111de84828501611137565b91505092915050565b6111f081611110565b82525050565b6111ff8161114b565b82525050565b5f6040820190506112185f8301856111e7565b61122560208301846111f6565b9392505050565b5f80fd5b5f80fd5b5f601f19601f8301169050919050565b7f4e487b71000000000000000000000000000000000000000000000000000000005f52604160045260245ffd5b61127a82611234565b810181811067ffffffffffffffff8211171561129957611298611244565b5b80604052505050565b5f6112ab6110e0565b90506112b78282611271565b919050565b5f67ffffffffffffffff8211156112d6576112d5611244565b5b6112df82611234565b9050602081019050919050565b828183375f83830152505050565b5f61130c611307846112bc565b6112a2565b90508281526020810184848401111561132857611327611230565b5b6113338482856112ec565b509392505050565b5f82601f83011261134f5761134e61122c565b5b813561135f8482602086016112fa565b91505092915050565b5f6020828403121561137d5761137c6110e9565b5b5f82013567ffffffffffffffff81111561139a576113996110ed565b5b6113a68482850161133b565b91505092915050565b5f81519050919050565b5f82825260208201905092915050565b5f5b838110156113e65780820151818401526020810190506113cb565b5f8484015250505050565b5f6113fb826113af565b61140581856113b9565b93506114158185602086016113c9565b61141e81611234565b840191505092915050565b5f6020820190508181035f83015261144181846113f1565b905092915050565b5f805f606084860312156114605761145f6110e9565b5b5f84013567ffffffffffffffff81111561147d5761147c6110ed565b5b6114898682870161133b565b935050602084013567ffffffffffffffff8111156114aa576114a96110ed565b5b6114b68682870161133b565b925050604084013567ffffffffffffffff8111156114d7576114d66110ed565b5b6114e38682870161133b565b9150509250925092565b5f6020820190506115005f8301846111e7565b92915050565b5f81519050919050565b5f82825260208201905092915050565b5f819050602082019050919050565b61153881611110565b82525050565b5f611549838361152f565b60208301905092915050565b5f602082019050919050565b5f61156b82611506565b6115758185611510565b935061158083611520565b805f5b838110156115b0578151611597888261153e565b97506115a283611555565b925050600181019050611583565b5085935050505092915050565b5f6020820190508181035f8301526115d58184611561565b905092915050565b5f80604083850312156115f3576115f26110e9565b5b5f61160085828601611137565b925050602083013567ffffffffffffffff811115611621576116206110ed565b5b61162d8582860161133b565b9150509250929050565b5f6020828403121561164c5761164b6110e9565b5b5f6116598482850161116a565b91505092915050565b7f4e6f646520616c726561647920657869737473000000000000000000000000005f82015250565b5f6116966013836113b9565b91506116a182611662565b602082019050919050565b5f6020820190508181035f8301526116c38161168a565b9050919050565b5f81905092915050565b5f6116de826113af565b6116e881856116ca565b93506116f88185602086016113c9565b80840191505092915050565b5f61170f82846116d4565b915081905092915050565b7f46696c65206e6f7420666f756e640000000000000000000000000000000000005f82015250565b5f61174e600e836113b9565b91506117598261171a565b602082019050919050565b5f6020820190508181035f83015261177b81611742565b9050919050565b7f4e487b71000000000000000000000000000000000000000000000000000000005f52602260045260245ffd5b5f60028204905060018216806117c657607f821691505b6020821081036117d9576117d8611782565b5b50919050565b7f4e6f206368756e6b7320666f756e6420666f72207468652066696c65000000005f82015250565b5f611813601c836113b9565b915061181e826117df565b602082019050919050565b5f6020820190508181035f83015261184081611807565b9050919050565b5f819050815f5260205f209050919050565b5f6020601f8301049050919050565b5f82821b905092915050565b5f600883026118a37fffffffffffffffffffffffffffffffffffffffffffffffffffffffffffffffff82611868565b6118ad8683611868565b95508019841693508086168417925050509392505050565b5f819050919050565b5f6118e86118e36118de8461114b565b6118c5565b61114b565b9050919050565b5f819050919050565b611901836118ce565b61191561190d826118ef565b848454611874565b825550505050565b5f90565b61192961191d565b6119348184846118f8565b505050565b5b818110156119575761194c5f82611921565b60018101905061193a565b5050565b601f82111561199c5761196d81611847565b61197684611859565b81016020851015611985578190505b61199961199185611859565b830182611939565b50505b505050565b5f82821c905092915050565b5f6119bc5f19846008026119a1565b1980831691505092915050565b5f6119d483836119ad565b9150826002028217905092915050565b6119ed826113af565b67ffffffffffffffff811115611a0657611a05611244565b5b611a1082546117af565b611a1b82828561195b565b5f60209050601f831160018114611a4c575f8415611a3a578287015190505b611a4485826119c9565b865550611aab565b601f198416611a5a86611847565b5f5b82811015611a8157848901518255600182019150602085019450602081019050611a5c565b86831015611a9e5784890151611a9a601f8916826119ad565b8355505b6001600288020188555050505b505050505050565b7f4e487b71000000000000000000000000000000000000000000000000000000005f52603260045260245ffd5b7f4e6f20617661696c61626c65206e6f64657300000000000000000000000000005f82015250565b5f611b146012836113b9565b9150611b1f82611ae0565b602082019050919050565b5f6020820190508181035f830152611b4181611b08565b9050919050565b7f4e487b71000000000000000000000000000000000000000000000000000000005f52601160045260245ffd5b5f611b7f8261114b565b9150611b8a8361114b565b9250828203905081811115611ba257611ba1611b48565b5b92915050565b7f556e617574686f72697a656400000000000000000000000000000000000000005f82015250565b5f611bdc600c836113b9565b9150611be782611ba8565b602082019050919050565b5f6020820190508181035f830152611c0981611bd0565b9050919050565b7f4e6f646520646f6573206e6f74206578697374000000000000000000000000005f82015250565b5f611c446013836113b9565b9150611c4f82611c10565b602082019050919050565b5f6020820190508181035f830152611c7181611c38565b9050919050565b5f611c828261114b565b9150611c8d8361114b565b9250828201905080821115611ca557611ca4611b48565b5b92915050565b5f611cb58261114b565b91507fffffffffffffffffffffffffffffffffffffffffffffffffffffffffffffffff8203611ce757611ce6611b48565b5b600182019050919050565b7f4e487b71000000000000000000000000000000000000000000000000000000005f52601260045260245ffd5b5f611d298261114b565b9150611d348361114b565b925082611d4457611d43611cf2565b5b828204905092915050565b5f611d598261114b565b9150611d648361114b565b9250828202611d728161114b565b91508282048414831517611d8957611d88611b48565b5b5092915050565b5f611d9a8261114b565b9150611da58361114b565b925082611db557611db4611cf2565b5b82820690509291505056fea264697066735822122059d9b7babd0d58f14bdd3d5bdc7f439d45a0dc0491fb9de11b358600a54b96e164736f6c63430008160033",
					"opcodes": "PUSH1 0x80 PUSH1 0x40 MSTORE CALLVALUE DUP1 ISZERO PUSH2 0xF JUMPI PUSH0 DUP1 REVERT JUMPDEST POP CALLER PUSH1 0x2 PUSH0 PUSH2 0x100 EXP DUP2 SLOAD DUP2 PUSH20 0xFFFFFFFFFFFFFFFFFFFFFFFFFFFFFFFFFFFFFFFF MUL NOT AND SWAP1 DUP4 PUSH20 0xFFFFFFFFFFFFFFFFFFFFFFFFFFFFFFFFFFFFFFFF AND MUL OR SWAP1 SSTORE POP PUSH2 0x1DF6 DUP1 PUSH2 0x5D PUSH0 CODECOPY PUSH0 RETURN INVALID PUSH1 0x80 PUSH1 0x40 MSTORE CALLVALUE DUP1 ISZERO PUSH2 0xF JUMPI PUSH0 DUP1 REVERT JUMPDEST POP PUSH1 0x4 CALLDATASIZE LT PUSH2 0x9C JUMPI PUSH0 CALLDATALOAD PUSH1 0xE0 SHR DUP1 PUSH4 0xA1174E7D GT PUSH2 0x64 JUMPI DUP1 PUSH4 0xA1174E7D EQ PUSH2 0x157 JUMPI DUP1 PUSH4 0xA9910054 EQ PUSH2 0x175 JUMPI DUP1 PUSH4 0xB49F33C8 EQ PUSH2 0x191 JUMPI DUP1 PUSH4 0xB65814A6 EQ PUSH2 0x1AD JUMPI DUP1 PUSH4 0xFE72AE13 EQ PUSH2 0x1C9 JUMPI PUSH2 0x9C JUMP JUMPDEST DUP1 PUSH4 0x11BD77FE EQ PUSH2 0xA0 JUMPI DUP1 PUSH4 0x189A5A17 EQ PUSH2 0xBC JUMPI DUP1 PUSH4 0x2804401C EQ PUSH2 0xED JUMPI DUP1 PUSH4 0x7DD77D2B EQ PUSH2 0x11D JUMPI DUP1 PUSH4 0x8DA5CB5B EQ PUSH2 0x139 JUMPI JUMPDEST PUSH0 DUP1 REVERT JUMPDEST PUSH2 0xBA PUSH1 0x4 DUP1 CALLDATASIZE SUB DUP2 ADD SWAP1 PUSH2 0xB5 SWAP2 SWAP1 PUSH2 0x117E JUMP JUMPDEST PUSH2 0x1F9 JUMP JUMPDEST STOP JUMPDEST PUSH2 0xD6 PUSH1 0x4 DUP1 CALLDATASIZE SUB DUP2 ADD SWAP1 PUSH2 0xD1 SWAP2 SWAP1 PUSH2 0x11BC JUMP JUMPDEST PUSH2 0x3E0 JUMP JUMPDEST PUSH1 0x40 MLOAD PUSH2 0xE4 SWAP3 SWAP2 SWAP1 PUSH2 0x1205 JUMP JUMPDEST PUSH1 0x40 MLOAD DUP1 SWAP2 SUB SWAP1 RETURN JUMPDEST PUSH2 0x107 PUSH1 0x4 DUP1 CALLDATASIZE SUB DUP2 ADD SWAP1 PUSH2 0x102 SWAP2 SWAP1 PUSH2 0x1368 JUMP JUMPDEST PUSH2 0x41E JUMP JUMPDEST PUSH1 0x40 MLOAD PUSH2 0x114 SWAP2 SWAP1 PUSH2 0x1429 JUMP JUMPDEST PUSH1 0x40 MLOAD DUP1 SWAP2 SUB SWAP1 RETURN JUMPDEST PUSH2 0x137 PUSH1 0x4 DUP1 CALLDATASIZE SUB DUP2 ADD SWAP1 PUSH2 0x132 SWAP2 SWAP1 PUSH2 0x1449 JUMP JUMPDEST PUSH2 0x5C8 JUMP JUMPDEST STOP JUMPDEST PUSH2 0x141 PUSH2 0x80F JUMP JUMPDEST PUSH1 0x40 MLOAD PUSH2 0x14E SWAP2 SWAP1 PUSH2 0x14ED JUMP JUMPDEST PUSH1 0x40 MLOAD DUP1 SWAP2 SUB SWAP1 RETURN JUMPDEST PUSH2 0x15F PUSH2 0x834 JUMP JUMPDEST PUSH1 0x40 MLOAD PUSH2 0x16C SWAP2 SWAP1 PUSH2 0x15BD JUMP JUMPDEST PUSH1 0x40 MLOAD DUP1 SWAP2 SUB SWAP1 RETURN JUMPDEST PUSH2 0x18F PUSH1 0x4 DUP1 CALLDATASIZE SUB DUP2 ADD SWAP1 PUSH2 0x18A SWAP2 SWAP1 PUSH2 0x1368 JUMP JUMPDEST PUSH2 0x8BF JUMP JUMPDEST STOP JUMPDEST PUSH2 0x1AB PUSH1 0x4 DUP1 CALLDATASIZE SUB DUP2 ADD SWAP1 PUSH2 0x1A6 SWAP2 SWAP1 PUSH2 0x117E JUMP JUMPDEST PUSH2 0xA3C JUMP JUMPDEST STOP JUMPDEST PUSH2 0x1C7 PUSH1 0x4 DUP1 CALLDATASIZE SUB DUP2 ADD SWAP1 PUSH2 0x1C2 SWAP2 SWAP1 PUSH2 0x15DD JUMP JUMPDEST PUSH2 0xB4F JUMP JUMPDEST STOP JUMPDEST PUSH2 0x1E3 PUSH1 0x4 DUP1 CALLDATASIZE SUB DUP2 ADD SWAP1 PUSH2 0x1DE SWAP2 SWAP1 PUSH2 0x1637 JUMP JUMPDEST PUSH2 0xB53 JUMP JUMPDEST PUSH1 0x40 MLOAD PUSH2 0x1F0 SWAP2 SWAP1 PUSH2 0x14ED JUMP JUMPDEST PUSH1 0x40 MLOAD DUP1 SWAP2 SUB SWAP1 RETURN JUMPDEST PUSH0 PUSH20 0xFFFFFFFFFFFFFFFFFFFFFFFFFFFFFFFFFFFFFFFF AND PUSH0 DUP1 DUP5 PUSH20 0xFFFFFFFFFFFFFFFFFFFFFFFFFFFFFFFFFFFFFFFF AND PUSH20 0xFFFFFFFFFFFFFFFFFFFFFFFFFFFFFFFFFFFFFFFF AND DUP2 MSTORE PUSH1 0x20 ADD SWAP1 DUP2 MSTORE PUSH1 0x20 ADD PUSH0 KECCAK256 PUSH0 ADD PUSH0 SWAP1 SLOAD SWAP1 PUSH2 0x100 EXP SWAP1 DIV PUSH20 0xFFFFFFFFFFFFFFFFFFFFFFFFFFFFFFFFFFFFFFFF AND PUSH20 0xFFFFFFFFFFFFFFFFFFFFFFFFFFFFFFFFFFFFFFFF AND EQ PUSH2 0x2C4 JUMPI PUSH1 0x40 MLOAD PUSH32 0x8C379A000000000000000000000000000000000000000000000000000000000 DUP2 MSTORE PUSH1 0x4 ADD PUSH2 0x2BB SWAP1 PUSH2 0x16AC JUMP JUMPDEST PUSH1 0x40 MLOAD DUP1 SWAP2 SUB SWAP1 REVERT JUMPDEST PUSH1 0x40 MLOAD DUP1 PUSH1 0x40 ADD PUSH1 0x40 MSTORE DUP1 DUP4 PUSH20 0xFFFFFFFFFFFFFFFFFFFFFFFFFFFFFFFFFFFFFFFF AND DUP2 MSTORE PUSH1 0x20 ADD DUP3 DUP2 MSTORE POP PUSH0 DUP1 DUP5 PUSH20 0xFFFFFFFFFFFFFFFFFFFFFFFFFFFFFFFFFFFFFFFF AND PUSH20 0xFFFFFFFFFFFFFFFFFFFFFFFFFFFFFFFFFFFFFFFF AND DUP2 MSTORE PUSH1 0x20 ADD SWAP1 DUP2 MSTORE PUSH1 0x20 ADD PUSH0 KECCAK256 PUSH0 DUP3 ADD MLOAD DUP2 PUSH0 ADD PUSH0 PUSH2 0x100 EXP DUP2 SLOAD DUP2 PUSH20 0xFFFFFFFFFFFFFFFFFFFFFFFFFFFFFFFFFFFFFFFF MUL NOT AND SWAP1 DUP4 PUSH20 0xFFFFFFFFFFFFFFFFFFFFFFFFFFFFFFFFFFFFFFFF AND MUL OR SWAP1 SSTORE POP PUSH1 0x20 DUP3 ADD MLOAD DUP2 PUSH1 0x1 ADD SSTORE SWAP1 POP POP PUSH1 0x1 DUP3 SWAP1 DUP1 PUSH1 0x1 DUP2 SLOAD ADD DUP1 DUP3 SSTORE DUP1 SWAP2 POP POP PUSH1 0x1 SWAP1 SUB SWAP1 PUSH0 MSTORE PUSH1 0x20 PUSH0 KECCAK256 ADD PUSH0 SWAP1 SWAP2 SWAP1 SWAP2 SWAP1 SWAP2 PUSH2 0x100 EXP DUP2 SLOAD DUP2 PUSH20 0xFFFFFFFFFFFFFFFFFFFFFFFFFFFFFFFFFFFFFFFF MUL NOT AND SWAP1 DUP4 PUSH20 0xFFFFFFFFFFFFFFFFFFFFFFFFFFFFFFFFFFFFFFFF AND MUL OR SWAP1 SSTORE POP POP POP JUMP JUMPDEST PUSH0 PUSH1 0x20 MSTORE DUP1 PUSH0 MSTORE PUSH1 0x40 PUSH0 KECCAK256 PUSH0 SWAP2 POP SWAP1 POP DUP1 PUSH0 ADD PUSH0 SWAP1 SLOAD SWAP1 PUSH2 0x100 EXP SWAP1 DIV PUSH20 0xFFFFFFFFFFFFFFFFFFFFFFFFFFFFFFFFFFFFFFFF AND SWAP1 DUP1 PUSH1 0x1 ADD SLOAD SWAP1 POP DUP3 JUMP JUMPDEST PUSH1 0x60 PUSH0 PUSH1 0x3 DUP4 PUSH1 0x40 MLOAD PUSH2 0x431 SWAP2 SWAP1 PUSH2 0x1704 JUMP JUMPDEST SWAP1 DUP2 MSTORE PUSH1 0x20 ADD PUSH1 0x40 MLOAD DUP1 SWAP2 SUB SWAP1 KECCAK256 PUSH1 0x1 ADD SLOAD GT PUSH2 0x483 JUMPI PUSH1 0x40 MLOAD PUSH32 0x8C379A000000000000000000000000000000000000000000000000000000000 DUP2 MSTORE PUSH1 0x4 ADD PUSH2 0x47A SWAP1 PUSH2 0x1764 JUMP JUMPDEST PUSH1 0x40 MLOAD DUP1 SWAP2 SUB SWAP1 REVERT JUMPDEST PUSH0 PUSH1 0x5 DUP4 PUSH1 0x40 MLOAD PUSH2 0x494 SWAP2 SWAP1 PUSH2 0x1704 JUMP JUMPDEST SWAP1 DUP2 MSTORE PUSH1 0x20 ADD PUSH1 0x40 MLOAD DUP1 SWAP2 SUB SWAP1 KECCAK256 DUP1 SLOAD DUP1 PUSH1 0x20 MUL PUSH1 0x20 ADD PUSH1 0x40 MLOAD SWAP1 DUP2 ADD PUSH1 0x40 MSTORE DUP1 SWAP3 SWAP2 SWAP1 DUP2 DUP2 MSTORE PUSH1 0x20 ADD PUSH0 SWAP1 JUMPDEST DUP3 DUP3 LT ISZERO PUSH2 0x569 JUMPI DUP4 DUP3 SWAP1 PUSH0 MSTORE PUSH1 0x20 PUSH0 KECCAK256 ADD DUP1 SLOAD PUSH2 0x4DE SWAP1 PUSH2 0x17AF JUMP JUMPDEST DUP1 PUSH1 0x1F ADD PUSH1 0x20 DUP1 SWAP2 DIV MUL PUSH1 0x20 ADD PUSH1 0x40 MLOAD SWAP1 DUP2 ADD PUSH1 0x40 MSTORE DUP1 SWAP3 SWAP2 SWAP1 DUP2 DUP2 MSTORE PUSH1 0x20 ADD DUP3 DUP1 SLOAD PUSH2 0x50A SWAP1 PUSH2 0x17AF JUMP JUMPDEST DUP1 ISZERO PUSH2 0x555 JUMPI DUP1 PUSH1 0x1F LT PUSH2 0x52C JUMPI PUSH2 0x100 DUP1 DUP4 SLOAD DIV MUL DUP4 MSTORE SWAP2 PUSH1 0x20 ADD SWAP2 PUSH2 0x555 JUMP JUMPDEST DUP3 ADD SWAP2 SWAP1 PUSH0 MSTORE PUSH1 0x20 PUSH0 KECCAK256 SWAP1 JUMPDEST DUP2 SLOAD DUP2 MSTORE SWAP1 PUSH1 0x1 ADD SWAP1 PUSH1 0x20 ADD DUP1 DUP4 GT PUSH2 0x538 JUMPI DUP3 SWAP1 SUB PUSH1 0x1F AND DUP3 ADD SWAP2 JUMPDEST POP POP POP POP POP DUP2 MSTORE PUSH1 0x20 ADD SWAP1 PUSH1 0x1 ADD SWAP1 PUSH2 0x4C1 JUMP JUMPDEST POP POP POP POP SWAP1 POP PUSH0 DUP2 MLOAD GT PUSH2 0x5B2 JUMPI PUSH1 0x40 MLOAD PUSH32 0x8C379A000000000000000000000000000000000000000000000000000000000 DUP2 MSTORE PUSH1 0x4 ADD PUSH2 0x5A9 SWAP1 PUSH2 0x1829 JUMP JUMPDEST PUSH1 0x40 MLOAD DUP1 SWAP2 SUB SWAP1 REVERT JUMPDEST PUSH0 PUSH2 0x5BC DUP3 PUSH2 0xB8E JUMP JUMPDEST SWAP1 POP DUP1 SWAP3 POP POP POP SWAP2 SWAP1 POP JUMP JUMPDEST PUSH0 DUP3 MLOAD SWAP1 POP PUSH1 0x40 MLOAD DUP1 PUSH1 0x40 ADD PUSH1 0x40 MSTORE DUP1 DUP6 DUP2 MSTORE PUSH1 0x20 ADD DUP3 DUP2 MSTORE POP PUSH1 0x3 DUP4 PUSH1 0x40 MLOAD PUSH2 0x5F2 SWAP2 SWAP1 PUSH2 0x1704 JUMP JUMPDEST SWAP1 DUP2 MSTORE PUSH1 0x20 ADD PUSH1 0x40 MLOAD DUP1 SWAP2 SUB SWAP1 KECCAK256 PUSH0 DUP3 ADD MLOAD DUP2 PUSH0 ADD SWAP1 DUP2 PUSH2 0x613 SWAP2 SWAP1 PUSH2 0x19E4 JUMP JUMPDEST POP PUSH1 0x20 DUP3 ADD MLOAD DUP2 PUSH1 0x1 ADD SSTORE SWAP1 POP POP PUSH0 PUSH2 0x62B DUP5 PUSH2 0xCEB JUMP JUMPDEST SWAP1 POP DUP1 PUSH1 0x5 DUP5 PUSH1 0x40 MLOAD PUSH2 0x63E SWAP2 SWAP1 PUSH2 0x1704 JUMP JUMPDEST SWAP1 DUP2 MSTORE PUSH1 0x20 ADD PUSH1 0x40 MLOAD DUP1 SWAP2 SUB SWAP1 KECCAK256 SWAP1 DUP1 MLOAD SWAP1 PUSH1 0x20 ADD SWAP1 PUSH2 0x65F SWAP3 SWAP2 SWAP1 PUSH2 0xFD2 JUMP JUMPDEST POP PUSH0 JUMPDEST DUP2 MLOAD DUP2 LT ISZERO PUSH2 0x807 JUMPI PUSH0 DUP3 DUP3 DUP2 MLOAD DUP2 LT PUSH2 0x67F JUMPI PUSH2 0x67E PUSH2 0x1AB3 JUMP JUMPDEST JUMPDEST PUSH1 0x20 MUL PUSH1 0x20 ADD ADD MLOAD MLOAD SWAP1 POP PUSH0 PUSH2 0x694 DUP3 PUSH2 0xEBB JUMP JUMPDEST SWAP1 POP PUSH0 PUSH20 0xFFFFFFFFFFFFFFFFFFFFFFFFFFFFFFFFFFFFFFFF AND DUP2 PUSH20 0xFFFFFFFFFFFFFFFFFFFFFFFFFFFFFFFFFFFFFFFF AND SUB PUSH2 0x704 JUMPI PUSH1 0x40 MLOAD PUSH32 0x8C379A000000000000000000000000000000000000000000000000000000000 DUP2 MSTORE PUSH1 0x4 ADD PUSH2 0x6FB SWAP1 PUSH2 0x1B2A JUMP JUMPDEST PUSH1 0x40 MLOAD DUP1 SWAP2 SUB SWAP1 REVERT JUMPDEST PUSH1 0x4 DUP7 PUSH1 0x40 MLOAD PUSH2 0x714 SWAP2 SWAP1 PUSH2 0x1704 JUMP JUMPDEST SWAP1 DUP2 MSTORE PUSH1 0x20 ADD PUSH1 0x40 MLOAD DUP1 SWAP2 SUB SWAP1 KECCAK256 DUP2 SWAP1 DUP1 PUSH1 0x1 DUP2 SLOAD ADD DUP1 DUP3 SSTORE DUP1 SWAP2 POP POP PUSH1 0x1 SWAP1 SUB SWAP1 PUSH0 MSTORE PUSH1 0x20 PUSH0 KECCAK256 ADD PUSH0 SWAP1 SWAP2 SWAP1 SWAP2 SWAP1 SWAP2 PUSH2 0x100 EXP DUP2 SLOAD DUP2 PUSH20 0xFFFFFFFFFFFFFFFFFFFFFFFFFFFFFFFFFFFFFFFF MUL NOT AND SWAP1 DUP4 PUSH20 0xFFFFFFFFFFFFFFFFFFFFFFFFFFFFFFFFFFFFFFFF AND MUL OR SWAP1 SSTORE POP PUSH2 0x7A4 DUP2 DUP6 DUP6 DUP2 MLOAD DUP2 LT PUSH2 0x797 JUMPI PUSH2 0x796 PUSH2 0x1AB3 JUMP JUMPDEST JUMPDEST PUSH1 0x20 MUL PUSH1 0x20 ADD ADD MLOAD PUSH2 0xB4F JUMP JUMPDEST PUSH2 0x7F8 DUP2 DUP4 PUSH0 DUP1 DUP6 PUSH20 0xFFFFFFFFFFFFFFFFFFFFFFFFFFFFFFFFFFFFFFFF AND PUSH20 0xFFFFFFFFFFFFFFFFFFFFFFFFFFFFFFFFFFFFFFFF AND DUP2 MSTORE PUSH1 0x20 ADD SWAP1 DUP2 MSTORE PUSH1 0x20 ADD PUSH0 KECCAK256 PUSH1 0x1 ADD SLOAD PUSH2 0x7F3 SWAP2 SWAP1 PUSH2 0x1B75 JUMP JUMPDEST PUSH2 0xA3C JUMP JUMPDEST POP POP DUP1 DUP1 PUSH1 0x1 ADD SWAP2 POP POP PUSH2 0x662 JUMP JUMPDEST POP POP POP POP POP POP JUMP JUMPDEST PUSH1 0x2 PUSH0 SWAP1 SLOAD SWAP1 PUSH2 0x100 EXP SWAP1 DIV PUSH20 0xFFFFFFFFFFFFFFFFFFFFFFFFFFFFFFFFFFFFFFFF AND DUP2 JUMP JUMPDEST PUSH1 0x60 PUSH1 0x1 DUP1 SLOAD DUP1 PUSH1 0x20 MUL PUSH1 0x20 ADD PUSH1 0x40 MLOAD SWAP1 DUP2 ADD PUSH1 0x40 MSTORE DUP1 SWAP3 SWAP2 SWAP1 DUP2 DUP2 MSTORE PUSH1 0x20 ADD DUP3 DUP1 SLOAD DUP1 ISZERO PUSH2 0x8B5 JUMPI PUSH1 0x20 MUL DUP3 ADD SWAP2 SWAP1 PUSH0 MSTORE PUSH1 0x20 PUSH0 KECCAK256 SWAP1 JUMPDEST DUP2 PUSH0 SWAP1 SLOAD SWAP1 PUSH2 0x100 EXP SWAP1 DIV PUSH20 0xFFFFFFFFFFFFFFFFFFFFFFFFFFFFFFFFFFFFFFFF AND PUSH20 0xFFFFFFFFFFFFFFFFFFFFFFFFFFFFFFFFFFFFFFFF AND DUP2 MSTORE PUSH1 0x20 ADD SWAP1 PUSH1 0x1 ADD SWAP1 DUP1 DUP4 GT PUSH2 0x86C JUMPI JUMPDEST POP POP POP POP POP SWAP1 POP SWAP1 JUMP JUMPDEST PUSH0 PUSH1 0x3 DUP3 PUSH1 0x40 MLOAD PUSH2 0x8D0 SWAP2 SWAP1 PUSH2 0x1704 JUMP JUMPDEST SWAP1 DUP2 MSTORE PUSH1 0x20 ADD PUSH1 0x40 MLOAD DUP1 SWAP2 SUB SWAP1 KECCAK256 PUSH1 0x1 ADD SLOAD GT PUSH2 0x922 JUMPI PUSH1 0x40 MLOAD PUSH32 0x8C379A000000000000000000000000000000000000000000000000000000000 DUP2 MSTORE PUSH1 0x4 ADD PUSH2 0x919 SWAP1 PUSH2 0x1764 JUMP JUMPDEST PUSH1 0x40 MLOAD DUP1 SWAP2 SUB SWAP1 REVERT JUMPDEST PUSH1 0x2 PUSH0 SWAP1 SLOAD SWAP1 PUSH2 0x100 EXP SWAP1 DIV PUSH20 0xFFFFFFFFFFFFFFFFFFFFFFFFFFFFFFFFFFFFFFFF AND PUSH20 0xFFFFFFFFFFFFFFFFFFFFFFFFFFFFFFFFFFFFFFFF AND CALLER PUSH20 0xFFFFFFFFFFFFFFFFFFFFFFFFFFFFFFFFFFFFFFFF AND EQ PUSH2 0x9B1 JUMPI PUSH1 0x40 MLOAD PUSH32 0x8C379A000000000000000000000000000000000000000000000000000000000 DUP2 MSTORE PUSH1 0x4 ADD PUSH2 0x9A8 SWAP1 PUSH2 0x1BF2 JUMP JUMPDEST PUSH1 0x40 MLOAD DUP1 SWAP2 SUB SWAP1 REVERT JUMPDEST PUSH1 0x3 DUP2 PUSH1 0x40 MLOAD PUSH2 0x9C1 SWAP2 SWAP1 PUSH2 0x1704 JUMP JUMPDEST SWAP1 DUP2 MSTORE PUSH1 0x20 ADD PUSH1 0x40 MLOAD DUP1 SWAP2 SUB SWAP1 KECCAK256 PUSH0 DUP1 DUP3 ADD PUSH0 PUSH2 0x9DE SWAP2 SWAP1 PUSH2 0x1029 JUMP JUMPDEST PUSH1 0x1 DUP3 ADD PUSH0 SWAP1 SSTORE POP POP PUSH1 0x4 DUP2 PUSH1 0x40 MLOAD PUSH2 0x9F7 SWAP2 SWAP1 PUSH2 0x1704 JUMP JUMPDEST SWAP1 DUP2 MSTORE PUSH1 0x20 ADD PUSH1 0x40 MLOAD DUP1 SWAP2 SUB SWAP1 KECCAK256 PUSH0 PUSH2 0xA10 SWAP2 SWAP1 PUSH2 0x1066 JUMP JUMPDEST PUSH1 0x5 DUP2 PUSH1 0x40 MLOAD PUSH2 0xA20 SWAP2 SWAP1 PUSH2 0x1704 JUMP JUMPDEST SWAP1 DUP2 MSTORE PUSH1 0x20 ADD PUSH1 0x40 MLOAD DUP1 SWAP2 SUB SWAP1 KECCAK256 PUSH0 PUSH2 0xA39 SWAP2 SWAP1 PUSH2 0x1084 JUMP JUMPDEST POP JUMP JUMPDEST PUSH0 PUSH20 0xFFFFFFFFFFFFFFFFFFFFFFFFFFFFFFFFFFFFFFFF AND PUSH0 DUP1 DUP5 PUSH20 0xFFFFFFFFFFFFFFFFFFFFFFFFFFFFFFFFFFFFFFFF AND PUSH20 0xFFFFFFFFFFFFFFFFFFFFFFFFFFFFFFFFFFFFFFFF AND DUP2 MSTORE PUSH1 0x20 ADD SWAP1 DUP2 MSTORE PUSH1 0x20 ADD PUSH0 KECCAK256 PUSH0 ADD PUSH0 SWAP1 SLOAD SWAP1 PUSH2 0x100 EXP SWAP1 DIV PUSH20 0xFFFFFFFFFFFFFFFFFFFFFFFFFFFFFFFFFFFFFFFF AND PUSH20 0xFFFFFFFFFFFFFFFFFFFFFFFFFFFFFFFFFFFFFFFF AND SUB PUSH2 0xB07 JUMPI PUSH1 0x40 MLOAD PUSH32 0x8C379A000000000000000000000000000000000000000000000000000000000 DUP2 MSTORE PUSH1 0x4 ADD PUSH2 0xAFE SWAP1 PUSH2 0x1C5A JUMP JUMPDEST PUSH1 0x40 MLOAD DUP1 SWAP2 SUB SWAP1 REVERT JUMPDEST DUP1 PUSH0 DUP1 DUP5 PUSH20 0xFFFFFFFFFFFFFFFFFFFFFFFFFFFFFFFFFFFFFFFF AND PUSH20 0xFFFFFFFFFFFFFFFFFFFFFFFFFFFFFFFFFFFFFFFF AND DUP2 MSTORE PUSH1 0x20 ADD SWAP1 DUP2 MSTORE PUSH1 0x20 ADD PUSH0 KECCAK256 PUSH1 0x1 ADD DUP2 SWAP1 SSTORE POP POP POP JUMP JUMPDEST POP POP JUMP JUMPDEST PUSH1 0x1 DUP2 DUP2 SLOAD DUP2 LT PUSH2 0xB62 JUMPI PUSH0 DUP1 REVERT JUMPDEST SWAP1 PUSH0 MSTORE PUSH1 0x20 PUSH0 KECCAK256 ADD PUSH0 SWAP2 POP SLOAD SWAP1 PUSH2 0x100 EXP SWAP1 DIV PUSH20 0xFFFFFFFFFFFFFFFFFFFFFFFFFFFFFFFFFFFFFFFF AND DUP2 JUMP JUMPDEST PUSH1 0x60 PUSH0 DUP1 JUMPDEST DUP4 MLOAD DUP2 LT ISZERO PUSH2 0xBD2 JUMPI DUP4 DUP2 DUP2 MLOAD DUP2 LT PUSH2 0xBAF JUMPI PUSH2 0xBAE PUSH2 0x1AB3 JUMP JUMPDEST JUMPDEST PUSH1 0x20 MUL PUSH1 0x20 ADD ADD MLOAD MLOAD DUP3 PUSH2 0xBC3 SWAP2 SWAP1 PUSH2 0x1C78 JUMP JUMPDEST SWAP2 POP DUP1 DUP1 PUSH1 0x1 ADD SWAP2 POP POP PUSH2 0xB93 JUMP JUMPDEST POP PUSH0 DUP2 PUSH8 0xFFFFFFFFFFFFFFFF DUP2 GT ISZERO PUSH2 0xBEE JUMPI PUSH2 0xBED PUSH2 0x1244 JUMP JUMPDEST JUMPDEST PUSH1 0x40 MLOAD SWAP1 DUP1 DUP3 MSTORE DUP1 PUSH1 0x1F ADD PUSH1 0x1F NOT AND PUSH1 0x20 ADD DUP3 ADD PUSH1 0x40 MSTORE DUP1 ISZERO PUSH2 0xC20 JUMPI DUP2 PUSH1 0x20 ADD PUSH1 0x1 DUP3 MUL DUP1 CALLDATASIZE DUP4 CALLDATACOPY DUP1 DUP3 ADD SWAP2 POP POP SWAP1 POP JUMPDEST POP SWAP1 POP PUSH0 DUP1 JUMPDEST DUP6 MLOAD DUP2 LT ISZERO PUSH2 0xCDF JUMPI PUSH0 DUP7 DUP3 DUP2 MLOAD DUP2 LT PUSH2 0xC43 JUMPI PUSH2 0xC42 PUSH2 0x1AB3 JUMP JUMPDEST JUMPDEST PUSH1 0x20 MUL PUSH1 0x20 ADD ADD MLOAD SWAP1 POP PUSH0 JUMPDEST DUP2 MLOAD DUP2 LT ISZERO PUSH2 0xCD0 JUMPI DUP2 DUP2 DUP2 MLOAD DUP2 LT PUSH2 0xC6B JUMPI PUSH2 0xC6A PUSH2 0x1AB3 JUMP JUMPDEST JUMPDEST PUSH1 0x20 ADD ADD MLOAD PUSH1 0xF8 SHR PUSH1 0xF8 SHL DUP6 DUP6 DUP1 PUSH2 0xC82 SWAP1 PUSH2 0x1CAB JUMP JUMPDEST SWAP7 POP DUP2 MLOAD DUP2 LT PUSH2 0xC95 JUMPI PUSH2 0xC94 PUSH2 0x1AB3 JUMP JUMPDEST JUMPDEST PUSH1 0x20 ADD ADD SWAP1 PUSH31 0xFFFFFFFFFFFFFFFFFFFFFFFFFFFFFFFFFFFFFFFFFFFFFFFFFFFFFFFFFFFFFF NOT AND SWAP1 DUP2 PUSH0 BYTE SWAP1 MSTORE8 POP DUP1 DUP1 PUSH1 0x1 ADD SWAP2 POP POP PUSH2 0xC4F JUMP JUMPDEST POP POP DUP1 DUP1 PUSH1 0x1 ADD SWAP2 POP POP PUSH2 0xC26 JUMP JUMPDEST POP DUP2 SWAP4 POP POP POP POP SWAP2 SWAP1 POP JUMP JUMPDEST PUSH1 0x60 PUSH0 PUSH1 0x20 SWAP1 POP PUSH0 DUP2 PUSH1 0x1 DUP4 DUP7 MLOAD PUSH2 0xD03 SWAP2 SWAP1 PUSH2 0x1C78 JUMP JUMPDEST PUSH2 0xD0D SWAP2 SWAP1 PUSH2 0x1B75 JUMP JUMPDEST PUSH2 0xD17 SWAP2 SWAP1 PUSH2 0x1D1F JUMP JUMPDEST SWAP1 POP PUSH0 DUP2 PUSH8 0xFFFFFFFFFFFFFFFF DUP2 GT ISZERO PUSH2 0xD34 JUMPI PUSH2 0xD33 PUSH2 0x1244 JUMP JUMPDEST JUMPDEST PUSH1 0x40 MLOAD SWAP1 DUP1 DUP3 MSTORE DUP1 PUSH1 0x20 MUL PUSH1 0x20 ADD DUP3 ADD PUSH1 0x40 MSTORE DUP1 ISZERO PUSH2 0xD67 JUMPI DUP2 PUSH1 0x20 ADD JUMPDEST PUSH1 0x60 DUP2 MSTORE PUSH1 0x20 ADD SWAP1 PUSH1 0x1 SWAP1 SUB SWAP1 DUP2 PUSH2 0xD52 JUMPI SWAP1 POP JUMPDEST POP SWAP1 POP PUSH0 JUMPDEST DUP3 DUP2 LT ISZERO PUSH2 0xEAF JUMPI PUSH0 DUP5 DUP3 PUSH2 0xD81 SWAP2 SWAP1 PUSH2 0x1D4F JUMP JUMPDEST SWAP1 POP PUSH0 DUP6 DUP3 PUSH2 0xD90 SWAP2 SWAP1 PUSH2 0x1C78 JUMP JUMPDEST SWAP1 POP DUP8 MLOAD DUP2 GT ISZERO PUSH2 0xDA0 JUMPI DUP8 MLOAD SWAP1 POP JUMPDEST PUSH0 DUP3 DUP3 PUSH2 0xDAD SWAP2 SWAP1 PUSH2 0x1B75 JUMP JUMPDEST PUSH8 0xFFFFFFFFFFFFFFFF DUP2 GT ISZERO PUSH2 0xDC6 JUMPI PUSH2 0xDC5 PUSH2 0x1244 JUMP JUMPDEST JUMPDEST PUSH1 0x40 MLOAD SWAP1 DUP1 DUP3 MSTORE DUP1 PUSH1 0x1F ADD PUSH1 0x1F NOT AND PUSH1 0x20 ADD DUP3 ADD PUSH1 0x40 MSTORE DUP1 ISZERO PUSH2 0xDF8 JUMPI DUP2 PUSH1 0x20 ADD PUSH1 0x1 DUP3 MUL DUP1 CALLDATASIZE DUP4 CALLDATACOPY DUP1 DUP3 ADD SWAP2 POP POP SWAP1 POP JUMPDEST POP SWAP1 POP PUSH0 DUP4 SWAP1 POP JUMPDEST DUP3 DUP2 LT ISZERO PUSH2 0xE7F JUMPI DUP10 DUP2 DUP2 MLOAD DUP2 LT PUSH2 0xE1B JUMPI PUSH2 0xE1A PUSH2 0x1AB3 JUMP JUMPDEST JUMPDEST PUSH1 0x20 ADD ADD MLOAD PUSH1 0xF8 SHR PUSH1 0xF8 SHL DUP3 DUP6 DUP4 PUSH2 0xE33 SWAP2 SWAP1 PUSH2 0x1B75 JUMP JUMPDEST DUP2 MLOAD DUP2 LT PUSH2 0xE44 JUMPI PUSH2 0xE43 PUSH2 0x1AB3 JUMP JUMPDEST JUMPDEST PUSH1 0x20 ADD ADD SWAP1 PUSH31 0xFFFFFFFFFFFFFFFFFFFFFFFFFFFFFFFFFFFFFFFFFFFFFFFFFFFFFFFFFFFFFF NOT AND SWAP1 DUP2 PUSH0 BYTE SWAP1 MSTORE8 POP DUP1 DUP1 PUSH1 0x1 ADD SWAP2 POP POP PUSH2 0xE00 JUMP JUMPDEST POP DUP1 DUP6 DUP6 DUP2 MLOAD DUP2 LT PUSH2 0xE94 JUMPI PUSH2 0xE93 PUSH2 0x1AB3 JUMP JUMPDEST JUMPDEST PUSH1 0x20 MUL PUSH1 0x20 ADD ADD DUP2 SWAP1 MSTORE POP POP POP POP DUP1 DUP1 PUSH1 0x1 ADD SWAP2 POP POP PUSH2 0xD6C JUMP JUMPDEST POP DUP1 SWAP4 POP POP POP POP SWAP2 SWAP1 POP JUMP JUMPDEST PUSH0 DUP1 PUSH1 0x1 DUP1 SLOAD SWAP1 POP SWAP1 POP PUSH0 PUSH1 0x32 SWAP1 POP PUSH0 DUP3 SUB PUSH2 0xEDB JUMPI PUSH0 SWAP3 POP POP POP PUSH2 0xFCD JUMP JUMPDEST PUSH0 DUP3 PUSH1 0x1 NUMBER PUSH2 0xEEA SWAP2 SWAP1 PUSH2 0x1B75 JUMP JUMPDEST BLOCKHASH PUSH0 SHR PUSH2 0xEF7 SWAP2 SWAP1 PUSH2 0x1D90 JUMP JUMPDEST SWAP1 POP PUSH0 JUMPDEST DUP4 DUP2 LT ISZERO PUSH2 0xFC5 JUMPI PUSH0 PUSH1 0x1 DUP6 DUP4 DUP6 PUSH2 0xF13 SWAP2 SWAP1 PUSH2 0x1C78 JUMP JUMPDEST PUSH2 0xF1D SWAP2 SWAP1 PUSH2 0x1D90 JUMP JUMPDEST DUP2 SLOAD DUP2 LT PUSH2 0xF2E JUMPI PUSH2 0xF2D PUSH2 0x1AB3 JUMP JUMPDEST JUMPDEST SWAP1 PUSH0 MSTORE PUSH1 0x20 PUSH0 KECCAK256 ADD PUSH0 SWAP1 SLOAD SWAP1 PUSH2 0x100 EXP SWAP1 DIV PUSH20 0xFFFFFFFFFFFFFFFFFFFFFFFFFFFFFFFFFFFFFFFF AND SWAP1 POP DUP4 DUP8 PUSH2 0xF64 SWAP2 SWAP1 PUSH2 0x1C78 JUMP JUMPDEST PUSH0 DUP1 DUP4 PUSH20 0xFFFFFFFFFFFFFFFFFFFFFFFFFFFFFFFFFFFFFFFF AND PUSH20 0xFFFFFFFFFFFFFFFFFFFFFFFFFFFFFFFFFFFFFFFF AND DUP2 MSTORE PUSH1 0x20 ADD SWAP1 DUP2 MSTORE PUSH1 0x20 ADD PUSH0 KECCAK256 PUSH1 0x1 ADD SLOAD GT ISZERO PUSH2 0xFB7 JUMPI DUP1 SWAP6 POP POP POP POP POP POP PUSH2 0xFCD JUMP JUMPDEST POP DUP1 DUP1 PUSH1 0x1 ADD SWAP2 POP POP PUSH2 0xEFB JUMP JUMPDEST POP PUSH0 SWAP4 POP POP POP POP JUMPDEST SWAP2 SWAP1 POP JUMP JUMPDEST DUP3 DUP1 SLOAD DUP3 DUP3 SSTORE SWAP1 PUSH0 MSTORE PUSH1 0x20 PUSH0 KECCAK256 SWAP1 DUP2 ADD SWAP3 DUP3 ISZERO PUSH2 0x1018 JUMPI SWAP2 PUSH1 0x20 MUL DUP3 ADD JUMPDEST DUP3 DUP2 GT ISZERO PUSH2 0x1017 JUMPI DUP3 MLOAD DUP3 SWAP1 DUP2 PUSH2 0x1007 SWAP2 SWAP1 PUSH2 0x19E4 JUMP JUMPDEST POP SWAP2 PUSH1 0x20 ADD SWAP2 SWAP1 PUSH1 0x1 ADD SWAP1 PUSH2 0xFF0 JUMP JUMPDEST JUMPDEST POP SWAP1 POP PUSH2 0x1025 SWAP2 SWAP1 PUSH2 0x10A2 JUMP JUMPDEST POP SWAP1 JUMP JUMPDEST POP DUP1 SLOAD PUSH2 0x1035 SWAP1 PUSH2 0x17AF JUMP JUMPDEST PUSH0 DUP3 SSTORE DUP1 PUSH1 0x1F LT PUSH2 0x1046 JUMPI POP PUSH2 0x1063 JUMP JUMPDEST PUSH1 0x1F ADD PUSH1 0x20 SWAP1 DIV SWAP1 PUSH0 MSTORE PUSH1 0x20 PUSH0 KECCAK256 SWAP1 DUP2 ADD SWAP1 PUSH2 0x1062 SWAP2 SWAP1 PUSH2 0x10C5 JUMP JUMPDEST JUMPDEST POP JUMP JUMPDEST POP DUP1 SLOAD PUSH0 DUP3 SSTORE SWAP1 PUSH0 MSTORE PUSH1 0x20 PUSH0 KECCAK256 SWAP1 DUP2 ADD SWAP1 PUSH2 0x1081 SWAP2 SWAP1 PUSH2 0x10C5 JUMP JUMPDEST POP JUMP JUMPDEST POP DUP1 SLOAD PUSH0 DUP3 SSTORE SWAP1 PUSH0 MSTORE PUSH1 0x20 PUSH0 KECCAK256 SWAP1 DUP2 ADD SWAP1 PUSH2 0x109F SWAP2 SWAP1 PUSH2 0x10A2 JUMP JUMPDEST POP JUMP JUMPDEST JUMPDEST DUP1 DUP3 GT ISZERO PUSH2 0x10C1 JUMPI PUSH0 DUP2 DUP2 PUSH2 0x10B8 SWAP2 SWAP1 PUSH2 0x1029 JUMP JUMPDEST POP PUSH1 0x1 ADD PUSH2 0x10A3 JUMP JUMPDEST POP SWAP1 JUMP JUMPDEST JUMPDEST DUP1 DUP3 GT ISZERO PUSH2 0x10DC JUMPI PUSH0 DUP2 PUSH0 SWAP1 SSTORE POP PUSH1 0x1 ADD PUSH2 0x10C6 JUMP JUMPDEST POP SWAP1 JUMP JUMPDEST PUSH0 PUSH1 0x40 MLOAD SWAP1 POP SWAP1 JUMP JUMPDEST PUSH0 DUP1 REVERT JUMPDEST PUSH0 DUP1 REVERT JUMPDEST PUSH0 PUSH20 0xFFFFFFFFFFFFFFFFFFFFFFFFFFFFFFFFFFFFFFFF DUP3 AND SWAP1 POP SWAP2 SWAP1 POP JUMP JUMPDEST PUSH0 PUSH2 0x111A DUP3 PUSH2 0x10F1 JUMP JUMPDEST SWAP1 POP SWAP2 SWAP1 POP JUMP JUMPDEST PUSH2 0x112A DUP2 PUSH2 0x1110 JUMP JUMPDEST DUP2 EQ PUSH2 0x1134 JUMPI PUSH0 DUP1 REVERT JUMPDEST POP JUMP JUMPDEST PUSH0 DUP2 CALLDATALOAD SWAP1 POP PUSH2 0x1145 DUP2 PUSH2 0x1121 JUMP JUMPDEST SWAP3 SWAP2 POP POP JUMP JUMPDEST PUSH0 DUP2 SWAP1 POP SWAP2 SWAP1 POP JUMP JUMPDEST PUSH2 0x115D DUP2 PUSH2 0x114B JUMP JUMPDEST DUP2 EQ PUSH2 0x1167 JUMPI PUSH0 DUP1 REVERT JUMPDEST POP JUMP JUMPDEST PUSH0 DUP2 CALLDATALOAD SWAP1 POP PUSH2 0x1178 DUP2 PUSH2 0x1154 JUMP JUMPDEST SWAP3 SWAP2 POP POP JUMP JUMPDEST PUSH0 DUP1 PUSH1 0x40 DUP4 DUP6 SUB SLT ISZERO PUSH2 0x1194 JUMPI PUSH2 0x1193 PUSH2 0x10E9 JUMP JUMPDEST JUMPDEST PUSH0 PUSH2 0x11A1 DUP6 DUP3 DUP7 ADD PUSH2 0x1137 JUMP JUMPDEST SWAP3 POP POP PUSH1 0x20 PUSH2 0x11B2 DUP6 DUP3 DUP7 ADD PUSH2 0x116A JUMP JUMPDEST SWAP2 POP POP SWAP3 POP SWAP3 SWAP1 POP JUMP JUMPDEST PUSH0 PUSH1 0x20 DUP3 DUP5 SUB SLT ISZERO PUSH2 0x11D1 JUMPI PUSH2 0x11D0 PUSH2 0x10E9 JUMP JUMPDEST JUMPDEST PUSH0 PUSH2 0x11DE DUP5 DUP3 DUP6 ADD PUSH2 0x1137 JUMP JUMPDEST SWAP2 POP POP SWAP3 SWAP2 POP POP JUMP JUMPDEST PUSH2 0x11F0 DUP2 PUSH2 0x1110 JUMP JUMPDEST DUP3 MSTORE POP POP JUMP JUMPDEST PUSH2 0x11FF DUP2 PUSH2 0x114B JUMP JUMPDEST DUP3 MSTORE POP POP JUMP JUMPDEST PUSH0 PUSH1 0x40 DUP3 ADD SWAP1 POP PUSH2 0x1218 PUSH0 DUP4 ADD DUP6 PUSH2 0x11E7 JUMP JUMPDEST PUSH2 0x1225 PUSH1 0x20 DUP4 ADD DUP5 PUSH2 0x11F6 JUMP JUMPDEST SWAP4 SWAP3 POP POP POP JUMP JUMPDEST PUSH0 DUP1 REVERT JUMPDEST PUSH0 DUP1 REVERT JUMPDEST PUSH0 PUSH1 0x1F NOT PUSH1 0x1F DUP4 ADD AND SWAP1 POP SWAP2 SWAP1 POP JUMP JUMPDEST PUSH32 0x4E487B7100000000000000000000000000000000000000000000000000000000 PUSH0 MSTORE PUSH1 0x41 PUSH1 0x4 MSTORE PUSH1 0x24 PUSH0 REVERT JUMPDEST PUSH2 0x127A DUP3 PUSH2 0x1234 JUMP JUMPDEST DUP2 ADD DUP2 DUP2 LT PUSH8 0xFFFFFFFFFFFFFFFF DUP3 GT OR ISZERO PUSH2 0x1299 JUMPI PUSH2 0x1298 PUSH2 0x1244 JUMP JUMPDEST JUMPDEST DUP1 PUSH1 0x40 MSTORE POP POP POP JUMP JUMPDEST PUSH0 PUSH2 0x12AB PUSH2 0x10E0 JUMP JUMPDEST SWAP1 POP PUSH2 0x12B7 DUP3 DUP3 PUSH2 0x1271 JUMP JUMPDEST SWAP2 SWAP1 POP JUMP JUMPDEST PUSH0 PUSH8 0xFFFFFFFFFFFFFFFF DUP3 GT ISZERO PUSH2 0x12D6 JUMPI PUSH2 0x12D5 PUSH2 0x1244 JUMP JUMPDEST JUMPDEST PUSH2 0x12DF DUP3 PUSH2 0x1234 JUMP JUMPDEST SWAP1 POP PUSH1 0x20 DUP2 ADD SWAP1 POP SWAP2 SWAP1 POP JUMP JUMPDEST DUP3 DUP2 DUP4 CALLDATACOPY PUSH0 DUP4 DUP4 ADD MSTORE POP POP POP JUMP JUMPDEST PUSH0 PUSH2 0x130C PUSH2 0x1307 DUP5 PUSH2 0x12BC JUMP JUMPDEST PUSH2 0x12A2 JUMP JUMPDEST SWAP1 POP DUP3 DUP2 MSTORE PUSH1 0x20 DUP2 ADD DUP5 DUP5 DUP5 ADD GT ISZERO PUSH2 0x1328 JUMPI PUSH2 0x1327 PUSH2 0x1230 JUMP JUMPDEST JUMPDEST PUSH2 0x1333 DUP5 DUP3 DUP6 PUSH2 0x12EC JUMP JUMPDEST POP SWAP4 SWAP3 POP POP POP JUMP JUMPDEST PUSH0 DUP3 PUSH1 0x1F DUP4 ADD SLT PUSH2 0x134F JUMPI PUSH2 0x134E PUSH2 0x122C JUMP JUMPDEST JUMPDEST DUP2 CALLDATALOAD PUSH2 0x135F DUP5 DUP3 PUSH1 0x20 DUP7 ADD PUSH2 0x12FA JUMP JUMPDEST SWAP2 POP POP SWAP3 SWAP2 POP POP JUMP JUMPDEST PUSH0 PUSH1 0x20 DUP3 DUP5 SUB SLT ISZERO PUSH2 0x137D JUMPI PUSH2 0x137C PUSH2 0x10E9 JUMP JUMPDEST JUMPDEST PUSH0 DUP3 ADD CALLDATALOAD PUSH8 0xFFFFFFFFFFFFFFFF DUP2 GT ISZERO PUSH2 0x139A JUMPI PUSH2 0x1399 PUSH2 0x10ED JUMP JUMPDEST JUMPDEST PUSH2 0x13A6 DUP5 DUP3 DUP6 ADD PUSH2 0x133B JUMP JUMPDEST SWAP2 POP POP SWAP3 SWAP2 POP POP JUMP JUMPDEST PUSH0 DUP2 MLOAD SWAP1 POP SWAP2 SWAP1 POP JUMP JUMPDEST PUSH0 DUP3 DUP3 MSTORE PUSH1 0x20 DUP3 ADD SWAP1 POP SWAP3 SWAP2 POP POP JUMP JUMPDEST PUSH0 JUMPDEST DUP4 DUP2 LT ISZERO PUSH2 0x13E6 JUMPI DUP1 DUP3 ADD MLOAD DUP2 DUP5 ADD MSTORE PUSH1 0x20 DUP2 ADD SWAP1 POP PUSH2 0x13CB JUMP JUMPDEST PUSH0 DUP5 DUP5 ADD MSTORE POP POP POP POP JUMP JUMPDEST PUSH0 PUSH2 0x13FB DUP3 PUSH2 0x13AF JUMP JUMPDEST PUSH2 0x1405 DUP2 DUP6 PUSH2 0x13B9 JUMP JUMPDEST SWAP4 POP PUSH2 0x1415 DUP2 DUP6 PUSH1 0x20 DUP7 ADD PUSH2 0x13C9 JUMP JUMPDEST PUSH2 0x141E DUP2 PUSH2 0x1234 JUMP JUMPDEST DUP5 ADD SWAP2 POP POP SWAP3 SWAP2 POP POP JUMP JUMPDEST PUSH0 PUSH1 0x20 DUP3 ADD SWAP1 POP DUP2 DUP2 SUB PUSH0 DUP4 ADD MSTORE PUSH2 0x1441 DUP2 DUP5 PUSH2 0x13F1 JUMP JUMPDEST SWAP1 POP SWAP3 SWAP2 POP POP JUMP JUMPDEST PUSH0 DUP1 PUSH0 PUSH1 0x60 DUP5 DUP7 SUB SLT ISZERO PUSH2 0x1460 JUMPI PUSH2 0x145F PUSH2 0x10E9 JUMP JUMPDEST JUMPDEST PUSH0 DUP5 ADD CALLDATALOAD PUSH8 0xFFFFFFFFFFFFFFFF DUP2 GT ISZERO PUSH2 0x147D JUMPI PUSH2 0x147C PUSH2 0x10ED JUMP JUMPDEST JUMPDEST PUSH2 0x1489 DUP7 DUP3 DUP8 ADD PUSH2 0x133B JUMP JUMPDEST SWAP4 POP POP PUSH1 0x20 DUP5 ADD CALLDATALOAD PUSH8 0xFFFFFFFFFFFFFFFF DUP2 GT ISZERO PUSH2 0x14AA JUMPI PUSH2 0x14A9 PUSH2 0x10ED JUMP JUMPDEST JUMPDEST PUSH2 0x14B6 DUP7 DUP3 DUP8 ADD PUSH2 0x133B JUMP JUMPDEST SWAP3 POP POP PUSH1 0x40 DUP5 ADD CALLDATALOAD PUSH8 0xFFFFFFFFFFFFFFFF DUP2 GT ISZERO PUSH2 0x14D7 JUMPI PUSH2 0x14D6 PUSH2 0x10ED JUMP JUMPDEST JUMPDEST PUSH2 0x14E3 DUP7 DUP3 DUP8 ADD PUSH2 0x133B JUMP JUMPDEST SWAP2 POP POP SWAP3 POP SWAP3 POP SWAP3 JUMP JUMPDEST PUSH0 PUSH1 0x20 DUP3 ADD SWAP1 POP PUSH2 0x1500 PUSH0 DUP4 ADD DUP5 PUSH2 0x11E7 JUMP JUMPDEST SWAP3 SWAP2 POP POP JUMP JUMPDEST PUSH0 DUP2 MLOAD SWAP1 POP SWAP2 SWAP1 POP JUMP JUMPDEST PUSH0 DUP3 DUP3 MSTORE PUSH1 0x20 DUP3 ADD SWAP1 POP SWAP3 SWAP2 POP POP JUMP JUMPDEST PUSH0 DUP2 SWAP1 POP PUSH1 0x20 DUP3 ADD SWAP1 POP SWAP2 SWAP1 POP JUMP JUMPDEST PUSH2 0x1538 DUP2 PUSH2 0x1110 JUMP JUMPDEST DUP3 MSTORE POP POP JUMP JUMPDEST PUSH0 PUSH2 0x1549 DUP4 DUP4 PUSH2 0x152F JUMP JUMPDEST PUSH1 0x20 DUP4 ADD SWAP1 POP SWAP3 SWAP2 POP POP JUMP JUMPDEST PUSH0 PUSH1 0x20 DUP3 ADD SWAP1 POP SWAP2 SWAP1 POP JUMP JUMPDEST PUSH0 PUSH2 0x156B DUP3 PUSH2 0x1506 JUMP JUMPDEST PUSH2 0x1575 DUP2 DUP6 PUSH2 0x1510 JUMP JUMPDEST SWAP4 POP PUSH2 0x1580 DUP4 PUSH2 0x1520 JUMP JUMPDEST DUP1 PUSH0 JUMPDEST DUP4 DUP2 LT ISZERO PUSH2 0x15B0 JUMPI DUP2 MLOAD PUSH2 0x1597 DUP9 DUP3 PUSH2 0x153E JUMP JUMPDEST SWAP8 POP PUSH2 0x15A2 DUP4 PUSH2 0x1555 JUMP JUMPDEST SWAP3 POP POP PUSH1 0x1 DUP2 ADD SWAP1 POP PUSH2 0x1583 JUMP JUMPDEST POP DUP6 SWAP4 POP POP POP POP SWAP3 SWAP2 POP POP JUMP JUMPDEST PUSH0 PUSH1 0x20 DUP3 ADD SWAP1 POP DUP2 DUP2 SUB PUSH0 DUP4 ADD MSTORE PUSH2 0x15D5 DUP2 DUP5 PUSH2 0x1561 JUMP JUMPDEST SWAP1 POP SWAP3 SWAP2 POP POP JUMP JUMPDEST PUSH0 DUP1 PUSH1 0x40 DUP4 DUP6 SUB SLT ISZERO PUSH2 0x15F3 JUMPI PUSH2 0x15F2 PUSH2 0x10E9 JUMP JUMPDEST JUMPDEST PUSH0 PUSH2 0x1600 DUP6 DUP3 DUP7 ADD PUSH2 0x1137 JUMP JUMPDEST SWAP3 POP POP PUSH1 0x20 DUP4 ADD CALLDATALOAD PUSH8 0xFFFFFFFFFFFFFFFF DUP2 GT ISZERO PUSH2 0x1621 JUMPI PUSH2 0x1620 PUSH2 0x10ED JUMP JUMPDEST JUMPDEST PUSH2 0x162D DUP6 DUP3 DUP7 ADD PUSH2 0x133B JUMP JUMPDEST SWAP2 POP POP SWAP3 POP SWAP3 SWAP1 POP JUMP JUMPDEST PUSH0 PUSH1 0x20 DUP3 DUP5 SUB SLT ISZERO PUSH2 0x164C JUMPI PUSH2 0x164B PUSH2 0x10E9 JUMP JUMPDEST JUMPDEST PUSH0 PUSH2 0x1659 DUP5 DUP3 DUP6 ADD PUSH2 0x116A JUMP JUMPDEST SWAP2 POP POP SWAP3 SWAP2 POP POP JUMP JUMPDEST PUSH32 0x4E6F646520616C72656164792065786973747300000000000000000000000000 PUSH0 DUP3 ADD MSTORE POP JUMP JUMPDEST PUSH0 PUSH2 0x1696 PUSH1 0x13 DUP4 PUSH2 0x13B9 JUMP JUMPDEST SWAP2 POP PUSH2 0x16A1 DUP3 PUSH2 0x1662 JUMP JUMPDEST PUSH1 0x20 DUP3 ADD SWAP1 POP SWAP2 SWAP1 POP JUMP JUMPDEST PUSH0 PUSH1 0x20 DUP3 ADD SWAP1 POP DUP2 DUP2 SUB PUSH0 DUP4 ADD MSTORE PUSH2 0x16C3 DUP2 PUSH2 0x168A JUMP JUMPDEST SWAP1 POP SWAP2 SWAP1 POP JUMP JUMPDEST PUSH0 DUP2 SWAP1 POP SWAP3 SWAP2 POP POP JUMP JUMPDEST PUSH0 PUSH2 0x16DE DUP3 PUSH2 0x13AF JUMP JUMPDEST PUSH2 0x16E8 DUP2 DUP6 PUSH2 0x16CA JUMP JUMPDEST SWAP4 POP PUSH2 0x16F8 DUP2 DUP6 PUSH1 0x20 DUP7 ADD PUSH2 0x13C9 JUMP JUMPDEST DUP1 DUP5 ADD SWAP2 POP POP SWAP3 SWAP2 POP POP JUMP JUMPDEST PUSH0 PUSH2 0x170F DUP3 DUP5 PUSH2 0x16D4 JUMP JUMPDEST SWAP2 POP DUP2 SWAP1 POP SWAP3 SWAP2 POP POP JUMP JUMPDEST PUSH32 0x46696C65206E6F7420666F756E64000000000000000000000000000000000000 PUSH0 DUP3 ADD MSTORE POP JUMP JUMPDEST PUSH0 PUSH2 0x174E PUSH1 0xE DUP4 PUSH2 0x13B9 JUMP JUMPDEST SWAP2 POP PUSH2 0x1759 DUP3 PUSH2 0x171A JUMP JUMPDEST PUSH1 0x20 DUP3 ADD SWAP1 POP SWAP2 SWAP1 POP JUMP JUMPDEST PUSH0 PUSH1 0x20 DUP3 ADD SWAP1 POP DUP2 DUP2 SUB PUSH0 DUP4 ADD MSTORE PUSH2 0x177B DUP2 PUSH2 0x1742 JUMP JUMPDEST SWAP1 POP SWAP2 SWAP1 POP JUMP JUMPDEST PUSH32 0x4E487B7100000000000000000000000000000000000000000000000000000000 PUSH0 MSTORE PUSH1 0x22 PUSH1 0x4 MSTORE PUSH1 0x24 PUSH0 REVERT JUMPDEST PUSH0 PUSH1 0x2 DUP3 DIV SWAP1 POP PUSH1 0x1 DUP3 AND DUP1 PUSH2 0x17C6 JUMPI PUSH1 0x7F DUP3 AND SWAP2 POP JUMPDEST PUSH1 0x20 DUP3 LT DUP2 SUB PUSH2 0x17D9 JUMPI PUSH2 0x17D8 PUSH2 0x1782 JUMP JUMPDEST JUMPDEST POP SWAP2 SWAP1 POP JUMP JUMPDEST PUSH32 0x4E6F206368756E6B7320666F756E6420666F72207468652066696C6500000000 PUSH0 DUP3 ADD MSTORE POP JUMP JUMPDEST PUSH0 PUSH2 0x1813 PUSH1 0x1C DUP4 PUSH2 0x13B9 JUMP JUMPDEST SWAP2 POP PUSH2 0x181E DUP3 PUSH2 0x17DF JUMP JUMPDEST PUSH1 0x20 DUP3 ADD SWAP1 POP SWAP2 SWAP1 POP JUMP JUMPDEST PUSH0 PUSH1 0x20 DUP3 ADD SWAP1 POP DUP2 DUP2 SUB PUSH0 DUP4 ADD MSTORE PUSH2 0x1840 DUP2 PUSH2 0x1807 JUMP JUMPDEST SWAP1 POP SWAP2 SWAP1 POP JUMP JUMPDEST PUSH0 DUP2 SWAP1 POP DUP2 PUSH0 MSTORE PUSH1 0x20 PUSH0 KECCAK256 SWAP1 POP SWAP2 SWAP1 POP JUMP JUMPDEST PUSH0 PUSH1 0x20 PUSH1 0x1F DUP4 ADD DIV SWAP1 POP SWAP2 SWAP1 POP JUMP JUMPDEST PUSH0 DUP3 DUP3 SHL SWAP1 POP SWAP3 SWAP2 POP POP JUMP JUMPDEST PUSH0 PUSH1 0x8 DUP4 MUL PUSH2 0x18A3 PUSH32 0xFFFFFFFFFFFFFFFFFFFFFFFFFFFFFFFFFFFFFFFFFFFFFFFFFFFFFFFFFFFFFFFF DUP3 PUSH2 0x1868 JUMP JUMPDEST PUSH2 0x18AD DUP7 DUP4 PUSH2 0x1868 JUMP JUMPDEST SWAP6 POP DUP1 NOT DUP5 AND SWAP4 POP DUP1 DUP7 AND DUP5 OR SWAP3 POP POP POP SWAP4 SWAP3 POP POP POP JUMP JUMPDEST PUSH0 DUP2 SWAP1 POP SWAP2 SWAP1 POP JUMP JUMPDEST PUSH0 PUSH2 0x18E8 PUSH2 0x18E3 PUSH2 0x18DE DUP5 PUSH2 0x114B JUMP JUMPDEST PUSH2 0x18C5 JUMP JUMPDEST PUSH2 0x114B JUMP JUMPDEST SWAP1 POP SWAP2 SWAP1 POP JUMP JUMPDEST PUSH0 DUP2 SWAP1 POP SWAP2 SWAP1 POP JUMP JUMPDEST PUSH2 0x1901 DUP4 PUSH2 0x18CE JUMP JUMPDEST PUSH2 0x1915 PUSH2 0x190D DUP3 PUSH2 0x18EF JUMP JUMPDEST DUP5 DUP5 SLOAD PUSH2 0x1874 JUMP JUMPDEST DUP3 SSTORE POP POP POP POP JUMP JUMPDEST PUSH0 SWAP1 JUMP JUMPDEST PUSH2 0x1929 PUSH2 0x191D JUMP JUMPDEST PUSH2 0x1934 DUP2 DUP5 DUP5 PUSH2 0x18F8 JUMP JUMPDEST POP POP POP JUMP JUMPDEST JUMPDEST DUP2 DUP2 LT ISZERO PUSH2 0x1957 JUMPI PUSH2 0x194C PUSH0 DUP3 PUSH2 0x1921 JUMP JUMPDEST PUSH1 0x1 DUP2 ADD SWAP1 POP PUSH2 0x193A JUMP JUMPDEST POP POP JUMP JUMPDEST PUSH1 0x1F DUP3 GT ISZERO PUSH2 0x199C JUMPI PUSH2 0x196D DUP2 PUSH2 0x1847 JUMP JUMPDEST PUSH2 0x1976 DUP5 PUSH2 0x1859 JUMP JUMPDEST DUP2 ADD PUSH1 0x20 DUP6 LT ISZERO PUSH2 0x1985 JUMPI DUP2 SWAP1 POP JUMPDEST PUSH2 0x1999 PUSH2 0x1991 DUP6 PUSH2 0x1859 JUMP JUMPDEST DUP4 ADD DUP3 PUSH2 0x1939 JUMP JUMPDEST POP POP JUMPDEST POP POP POP JUMP JUMPDEST PUSH0 DUP3 DUP3 SHR SWAP1 POP SWAP3 SWAP2 POP POP JUMP JUMPDEST PUSH0 PUSH2 0x19BC PUSH0 NOT DUP5 PUSH1 0x8 MUL PUSH2 0x19A1 JUMP JUMPDEST NOT DUP1 DUP4 AND SWAP2 POP POP SWAP3 SWAP2 POP POP JUMP JUMPDEST PUSH0 PUSH2 0x19D4 DUP4 DUP4 PUSH2 0x19AD JUMP JUMPDEST SWAP2 POP DUP3 PUSH1 0x2 MUL DUP3 OR SWAP1 POP SWAP3 SWAP2 POP POP JUMP JUMPDEST PUSH2 0x19ED DUP3 PUSH2 0x13AF JUMP JUMPDEST PUSH8 0xFFFFFFFFFFFFFFFF DUP2 GT ISZERO PUSH2 0x1A06 JUMPI PUSH2 0x1A05 PUSH2 0x1244 JUMP JUMPDEST JUMPDEST PUSH2 0x1A10 DUP3 SLOAD PUSH2 0x17AF JUMP JUMPDEST PUSH2 0x1A1B DUP3 DUP3 DUP6 PUSH2 0x195B JUMP JUMPDEST PUSH0 PUSH1 0x20 SWAP1 POP PUSH1 0x1F DUP4 GT PUSH1 0x1 DUP2 EQ PUSH2 0x1A4C JUMPI PUSH0 DUP5 ISZERO PUSH2 0x1A3A JUMPI DUP3 DUP8 ADD MLOAD SWAP1 POP JUMPDEST PUSH2 0x1A44 DUP6 DUP3 PUSH2 0x19C9 JUMP JUMPDEST DUP7 SSTORE POP PUSH2 0x1AAB JUMP JUMPDEST PUSH1 0x1F NOT DUP5 AND PUSH2 0x1A5A DUP7 PUSH2 0x1847 JUMP JUMPDEST PUSH0 JUMPDEST DUP3 DUP2 LT ISZERO PUSH2 0x1A81 JUMPI DUP5 DUP10 ADD MLOAD DUP3 SSTORE PUSH1 0x1 DUP3 ADD SWAP2 POP PUSH1 0x20 DUP6 ADD SWAP5 POP PUSH1 0x20 DUP2 ADD SWAP1 POP PUSH2 0x1A5C JUMP JUMPDEST DUP7 DUP4 LT ISZERO PUSH2 0x1A9E JUMPI DUP5 DUP10 ADD MLOAD PUSH2 0x1A9A PUSH1 0x1F DUP10 AND DUP3 PUSH2 0x19AD JUMP JUMPDEST DUP4 SSTORE POP JUMPDEST PUSH1 0x1 PUSH1 0x2 DUP9 MUL ADD DUP9 SSTORE POP POP POP JUMPDEST POP POP POP POP POP POP JUMP JUMPDEST PUSH32 0x4E487B7100000000000000000000000000000000000000000000000000000000 PUSH0 MSTORE PUSH1 0x32 PUSH1 0x4 MSTORE PUSH1 0x24 PUSH0 REVERT JUMPDEST PUSH32 0x4E6F20617661696C61626C65206E6F6465730000000000000000000000000000 PUSH0 DUP3 ADD MSTORE POP JUMP JUMPDEST PUSH0 PUSH2 0x1B14 PUSH1 0x12 DUP4 PUSH2 0x13B9 JUMP JUMPDEST SWAP2 POP PUSH2 0x1B1F DUP3 PUSH2 0x1AE0 JUMP JUMPDEST PUSH1 0x20 DUP3 ADD SWAP1 POP SWAP2 SWAP1 POP JUMP JUMPDEST PUSH0 PUSH1 0x20 DUP3 ADD SWAP1 POP DUP2 DUP2 SUB PUSH0 DUP4 ADD MSTORE PUSH2 0x1B41 DUP2 PUSH2 0x1B08 JUMP JUMPDEST SWAP1 POP SWAP2 SWAP1 POP JUMP JUMPDEST PUSH32 0x4E487B7100000000000000000000000000000000000000000000000000000000 PUSH0 MSTORE PUSH1 0x11 PUSH1 0x4 MSTORE PUSH1 0x24 PUSH0 REVERT JUMPDEST PUSH0 PUSH2 0x1B7F DUP3 PUSH2 0x114B JUMP JUMPDEST SWAP2 POP PUSH2 0x1B8A DUP4 PUSH2 0x114B JUMP JUMPDEST SWAP3 POP DUP3 DUP3 SUB SWAP1 POP DUP2 DUP2 GT ISZERO PUSH2 0x1BA2 JUMPI PUSH2 0x1BA1 PUSH2 0x1B48 JUMP JUMPDEST JUMPDEST SWAP3 SWAP2 POP POP JUMP JUMPDEST PUSH32 0x556E617574686F72697A65640000000000000000000000000000000000000000 PUSH0 DUP3 ADD MSTORE POP JUMP JUMPDEST PUSH0 PUSH2 0x1BDC PUSH1 0xC DUP4 PUSH2 0x13B9 JUMP JUMPDEST SWAP2 POP PUSH2 0x1BE7 DUP3 PUSH2 0x1BA8 JUMP JUMPDEST PUSH1 0x20 DUP3 ADD SWAP1 POP SWAP2 SWAP1 POP JUMP JUMPDEST PUSH0 PUSH1 0x20 DUP3 ADD SWAP1 POP DUP2 DUP2 SUB PUSH0 DUP4 ADD MSTORE PUSH2 0x1C09 DUP2 PUSH2 0x1BD0 JUMP JUMPDEST SWAP1 POP SWAP2 SWAP1 POP JUMP JUMPDEST PUSH32 0x4E6F646520646F6573206E6F7420657869737400000000000000000000000000 PUSH0 DUP3 ADD MSTORE POP JUMP JUMPDEST PUSH0 PUSH2 0x1C44 PUSH1 0x13 DUP4 PUSH2 0x13B9 JUMP JUMPDEST SWAP2 POP PUSH2 0x1C4F DUP3 PUSH2 0x1C10 JUMP JUMPDEST PUSH1 0x20 DUP3 ADD SWAP1 POP SWAP2 SWAP1 POP JUMP JUMPDEST PUSH0 PUSH1 0x20 DUP3 ADD SWAP1 POP DUP2 DUP2 SUB PUSH0 DUP4 ADD MSTORE PUSH2 0x1C71 DUP2 PUSH2 0x1C38 JUMP JUMPDEST SWAP1 POP SWAP2 SWAP1 POP JUMP JUMPDEST PUSH0 PUSH2 0x1C82 DUP3 PUSH2 0x114B JUMP JUMPDEST SWAP2 POP PUSH2 0x1C8D DUP4 PUSH2 0x114B JUMP JUMPDEST SWAP3 POP DUP3 DUP3 ADD SWAP1 POP DUP1 DUP3 GT ISZERO PUSH2 0x1CA5 JUMPI PUSH2 0x1CA4 PUSH2 0x1B48 JUMP JUMPDEST JUMPDEST SWAP3 SWAP2 POP POP JUMP JUMPDEST PUSH0 PUSH2 0x1CB5 DUP3 PUSH2 0x114B JUMP JUMPDEST SWAP2 POP PUSH32 0xFFFFFFFFFFFFFFFFFFFFFFFFFFFFFFFFFFFFFFFFFFFFFFFFFFFFFFFFFFFFFFFF DUP3 SUB PUSH2 0x1CE7 JUMPI PUSH2 0x1CE6 PUSH2 0x1B48 JUMP JUMPDEST JUMPDEST PUSH1 0x1 DUP3 ADD SWAP1 POP SWAP2 SWAP1 POP JUMP JUMPDEST PUSH32 0x4E487B7100000000000000000000000000000000000000000000000000000000 PUSH0 MSTORE PUSH1 0x12 PUSH1 0x4 MSTORE PUSH1 0x24 PUSH0 REVERT JUMPDEST PUSH0 PUSH2 0x1D29 DUP3 PUSH2 0x114B JUMP JUMPDEST SWAP2 POP PUSH2 0x1D34 DUP4 PUSH2 0x114B JUMP JUMPDEST SWAP3 POP DUP3 PUSH2 0x1D44 JUMPI PUSH2 0x1D43 PUSH2 0x1CF2 JUMP JUMPDEST JUMPDEST DUP3 DUP3 DIV SWAP1 POP SWAP3 SWAP2 POP POP JUMP JUMPDEST PUSH0 PUSH2 0x1D59 DUP3 PUSH2 0x114B JUMP JUMPDEST SWAP2 POP PUSH2 0x1D64 DUP4 PUSH2 0x114B JUMP JUMPDEST SWAP3 POP DUP3 DUP3 MUL PUSH2 0x1D72 DUP2 PUSH2 0x114B JUMP JUMPDEST SWAP2 POP DUP3 DUP3 DIV DUP5 EQ DUP4 ISZERO OR PUSH2 0x1D89 JUMPI PUSH2 0x1D88 PUSH2 0x1B48 JUMP JUMPDEST JUMPDEST POP SWAP3 SWAP2 POP POP JUMP JUMPDEST PUSH0 PUSH2 0x1D9A DUP3 PUSH2 0x114B JUMP JUMPDEST SWAP2 POP PUSH2 0x1DA5 DUP4 PUSH2 0x114B JUMP JUMPDEST SWAP3 POP DUP3 PUSH2 0x1DB5 JUMPI PUSH2 0x1DB4 PUSH2 0x1CF2 JUMP JUMPDEST JUMPDEST DUP3 DUP3 MOD SWAP1 POP SWAP3 SWAP2 POP POP JUMP INVALID LOG2 PUSH5 0x6970667358 0x22 SLT KECCAK256 MSIZE 0xD9 0xB7 0xBA 0xBD 0xD PC CALL 0x4B 0xDD RETURNDATASIZE JUMPDEST 0xDC PUSH32 0x439D45A0DC0491FB9DE11B358600A54B96E164736F6C63430008160033000000 "
				},
				"gasEstimates": {
					"creation": {
						"codeDepositCost": "1534000",
						"executionCost": "25866",
						"totalCost": "1559866"
					},
					"external": {
						"addNode(address,uint256)": "98022",
						"allNodes(uint256)": "5032",
						"deleteFile(string)": "infinite",
						"getAllNodes()": "infinite",
						"nodes(address)": "infinite",
						"owner()": "2597",
						"retrieveFile(string)": "infinite",
						"storeChunkInNode(address,string)": "infinite",
						"storeFile(string,string,string)": "infinite",
						"updateAvailableStorage(address,uint256)": "25134"
					}
				},
				"methodIdentifiers": {
					"addNode(address,uint256)": "11bd77fe",
					"allNodes(uint256)": "fe72ae13",
					"deleteFile(string)": "a9910054",
					"getAllNodes()": "a1174e7d",
					"nodes(address)": "189a5a17",
					"owner()": "8da5cb5b",
					"retrieveFile(string)": "2804401c",
					"storeChunkInNode(address,string)": "b65814a6",
					"storeFile(string,string,string)": "7dd77d2b",
					"updateAvailableStorage(address,uint256)": "b49f33c8"
				}
			},
			"storageLayout": {
				"storage": [
					{
						"astId": 476,
						"contract": "contracts/_FileStorage.sol:FileStorageManager",
						"label": "nodes",
						"offset": 0,
						"slot": "0",
						"type": "t_mapping(t_address,t_struct(Node)471_storage)"
					},
					{
						"astId": 479,
						"contract": "contracts/_FileStorage.sol:FileStorageManager",
						"label": "allNodes",
						"offset": 0,
						"slot": "1",
						"type": "t_array(t_address)dyn_storage"
					},
					{
						"astId": 233,
						"contract": "contracts/_FileStorage.sol:FileStorageManager",
						"label": "owner",
						"offset": 0,
						"slot": "2",
						"type": "t_address"
					},
					{
						"astId": 238,
						"contract": "contracts/_FileStorage.sol:FileStorageManager",
						"label": "fileIdToMetadata",
						"offset": 0,
						"slot": "3",
						"type": "t_mapping(t_string_memory_ptr,t_struct(FileMetadata)253_storage)"
					},
					{
						"astId": 243,
						"contract": "contracts/_FileStorage.sol:FileStorageManager",
						"label": "fileIdToNode",
						"offset": 0,
						"slot": "4",
						"type": "t_mapping(t_string_memory_ptr,t_array(t_address)dyn_storage)"
					},
					{
						"astId": 248,
						"contract": "contracts/_FileStorage.sol:FileStorageManager",
						"label": "fileIdToChunks",
						"offset": 0,
						"slot": "5",
						"type": "t_mapping(t_string_memory_ptr,t_array(t_string_storage)dyn_storage)"
					}
				],
				"types": {
					"t_address": {
						"encoding": "inplace",
						"label": "address",
						"numberOfBytes": "20"
					},
					"t_array(t_address)dyn_storage": {
						"base": "t_address",
						"encoding": "dynamic_array",
						"label": "address[]",
						"numberOfBytes": "32"
					},
					"t_array(t_string_storage)dyn_storage": {
						"base": "t_string_storage",
						"encoding": "dynamic_array",
						"label": "string[]",
						"numberOfBytes": "32"
					},
					"t_mapping(t_address,t_struct(Node)471_storage)": {
						"encoding": "mapping",
						"key": "t_address",
						"label": "mapping(address => struct NodeManager.Node)",
						"numberOfBytes": "32",
						"value": "t_struct(Node)471_storage"
					},
					"t_mapping(t_string_memory_ptr,t_array(t_address)dyn_storage)": {
						"encoding": "mapping",
						"key": "t_string_memory_ptr",
						"label": "mapping(string => address[])",
						"numberOfBytes": "32",
						"value": "t_array(t_address)dyn_storage"
					},
					"t_mapping(t_string_memory_ptr,t_array(t_string_storage)dyn_storage)": {
						"encoding": "mapping",
						"key": "t_string_memory_ptr",
						"label": "mapping(string => string[])",
						"numberOfBytes": "32",
						"value": "t_array(t_string_storage)dyn_storage"
					},
					"t_mapping(t_string_memory_ptr,t_struct(FileMetadata)253_storage)": {
						"encoding": "mapping",
						"key": "t_string_memory_ptr",
						"label": "mapping(string => struct FileStorageManager.FileMetadata)",
						"numberOfBytes": "32",
						"value": "t_struct(FileMetadata)253_storage"
					},
					"t_string_memory_ptr": {
						"encoding": "bytes",
						"label": "string",
						"numberOfBytes": "32"
					},
					"t_string_storage": {
						"encoding": "bytes",
						"label": "string",
						"numberOfBytes": "32"
					},
					"t_struct(FileMetadata)253_storage": {
						"encoding": "inplace",
						"label": "struct FileStorageManager.FileMetadata",
						"members": [
							{
								"astId": 250,
								"contract": "contracts/_FileStorage.sol:FileStorageManager",
								"label": "fileName",
								"offset": 0,
								"slot": "0",
								"type": "t_string_storage"
							},
							{
								"astId": 252,
								"contract": "contracts/_FileStorage.sol:FileStorageManager",
								"label": "fileSize",
								"offset": 0,
								"slot": "1",
								"type": "t_uint256"
							}
						],
						"numberOfBytes": "64"
					},
					"t_struct(Node)471_storage": {
						"encoding": "inplace",
						"label": "struct NodeManager.Node",
						"members": [
							{
								"astId": 468,
								"contract": "contracts/_FileStorage.sol:FileStorageManager",
								"label": "nodeAddress",
								"offset": 0,
								"slot": "0",
								"type": "t_address"
							},
							{
								"astId": 470,
								"contract": "contracts/_FileStorage.sol:FileStorageManager",
								"label": "availableStorage",
								"offset": 0,
								"slot": "1",
								"type": "t_uint256"
							}
						],
						"numberOfBytes": "64"
					},
					"t_uint256": {
						"encoding": "inplace",
						"label": "uint256",
						"numberOfBytes": "32"
					}
				}
			},
			"userdoc": {
				"kind": "user",
				"methods": {},
				"version": 1
			}
		}
	}
}