{
	"contracts/_ChunkManagerTest.sol": {
		"ChunkManagerTest": {
			"abi": [
				{
					"inputs": [],
					"name": "beforeAll",
					"outputs": [],
					"stateMutability": "nonpayable",
					"type": "function"
				},
				{
					"inputs": [],
					"name": "testChunkContent",
					"outputs": [],
					"stateMutability": "nonpayable",
					"type": "function"
				},
				{
					"inputs": [],
					"name": "testConcatenateChunks",
					"outputs": [],
					"stateMutability": "nonpayable",
					"type": "function"
				}
			],
			"devdoc": {
				"kind": "dev",
				"methods": {},
				"version": 1
			},
			"evm": {
				"assembly": "    /* \"contracts/_ChunkManagerTest.sol\":161:1414  contract ChunkManagerTest {... */\n  mstore(0x40, 0x80)\n  callvalue\n  dup1\n  iszero\n  tag_1\n  jumpi\n  0x00\n  dup1\n  revert\ntag_1:\n  pop\n  dataSize(sub_0)\n  dup1\n  dataOffset(sub_0)\n  0x00\n  codecopy\n  0x00\n  return\nstop\n\nsub_0: assembly {\n        /* \"contracts/_ChunkManagerTest.sol\":161:1414  contract ChunkManagerTest {... */\n      mstore(0x40, 0x80)\n      callvalue\n      dup1\n      iszero\n      tag_1\n      jumpi\n      0x00\n      dup1\n      revert\n    tag_1:\n      pop\n      jumpi(tag_2, lt(calldatasize, 0x04))\n      shr(0xe0, calldataload(0x00))\n      dup1\n      0x6af4411e\n      eq\n      tag_3\n      jumpi\n      dup1\n      0x7fea0d4b\n      eq\n      tag_4\n      jumpi\n      dup1\n      0x82ddeb7d\n      eq\n      tag_5\n      jumpi\n    tag_2:\n      0x00\n      dup1\n      revert\n        /* \"contracts/_ChunkManagerTest.sol\":462:968  function testChunkContent() public {... */\n    tag_3:\n      tag_6\n      tag_7\n      jump\t// in\n    tag_6:\n      stop\n        /* \"contracts/_ChunkManagerTest.sol\":291:418  function beforeAll() public {... */\n    tag_4:\n      tag_8\n      tag_9\n      jump\t// in\n    tag_8:\n      stop\n        /* \"contracts/_ChunkManagerTest.sol\":1017:1411  function testConcatenateChunks() public {... */\n    tag_5:\n      tag_10\n      tag_11\n      jump\t// in\n    tag_10:\n      stop\n        /* \"contracts/_ChunkManagerTest.sol\":462:968  function testChunkContent() public {... */\n    tag_7:\n        /* \"contracts/_ChunkManagerTest.sol\":508:529  string memory content */\n      0x00\n        /* \"contracts/_ChunkManagerTest.sol\":508:557  string memory content = \"This is a test content.\" */\n      mload(0x40)\n      dup1\n      0x40\n      add\n      0x40\n      mstore\n      dup1\n      0x17\n      dup2\n      mstore\n      0x20\n      add\n      0x546869732069732061207465737420636f6e74656e742e000000000000000000\n      dup2\n      mstore\n      pop\n      swap1\n      pop\n        /* \"contracts/_ChunkManagerTest.sol\":568:590  string[] memory chunks */\n      0x00\n        /* \"contracts/_ChunkManagerTest.sol\":593:605  chunkManager */\n      dup1\n      0x00\n      swap1\n      sload\n      swap1\n      0x0100\n      exp\n      swap1\n      div\n      0xffffffffffffffffffffffffffffffffffffffff\n      and\n        /* \"contracts/_ChunkManagerTest.sol\":593:618  chunkManager.chunkContent */\n      0xffffffffffffffffffffffffffffffffffffffff\n      and\n      0x1f37bdd2\n        /* \"contracts/_ChunkManagerTest.sol\":619:626  content */\n      dup4\n        /* \"contracts/_ChunkManagerTest.sol\":593:627  chunkManager.chunkContent(content) */\n      mload(0x40)\n      dup3\n      0xffffffff\n      and\n      0xe0\n      shl\n      dup2\n      mstore\n      0x04\n      add\n      tag_13\n      swap2\n      swap1\n      tag_14\n      jump\t// in\n    tag_13:\n      0x00\n      mload(0x40)\n      dup1\n      dup4\n      sub\n      dup2\n      dup7\n      gas\n      staticcall\n      iszero\n      dup1\n      iszero\n      tag_16\n      jumpi\n      returndatasize\n      0x00\n      dup1\n      returndatacopy\n      revert(0x00, returndatasize)\n    tag_16:\n      pop\n      pop\n      pop\n      pop\n      mload(0x40)\n      returndatasize\n      0x00\n      dup3\n      returndatacopy\n      returndatasize\n      not(0x1f)\n      0x1f\n      dup3\n      add\n      and\n      dup3\n      add\n      dup1\n      0x40\n      mstore\n      pop\n      dup2\n      add\n      swap1\n      tag_17\n      swap2\n      swap1\n      tag_18\n      jump\t// in\n    tag_17:\n        /* \"contracts/_ChunkManagerTest.sol\":568:627  string[] memory chunks = chunkManager.chunkContent(content) */\n      swap1\n      pop\n        /* \"contracts/_ChunkManagerTest.sol\":680:686  Assert */\n      linkerSymbol(\"acbfb1c35000d78352310b16a054a6b1066124b9c6f054b10c085f549bff80c6\")\n        /* \"contracts/_ChunkManagerTest.sol\":680:692  Assert.equal */\n      0xabcd7960\n        /* \"contracts/_ChunkManagerTest.sol\":693:699  chunks */\n      dup3\n        /* \"contracts/_ChunkManagerTest.sol\":693:706  chunks.length */\n      mload\n        /* \"contracts/_ChunkManagerTest.sol\":708:709  2 */\n      0x02\n        /* \"contracts/_ChunkManagerTest.sol\":680:742  Assert.equal(chunks.length, 2, \"Number of chunks should be 2\") */\n      mload(0x40)\n      dup4\n      0xffffffff\n      and\n      0xe0\n      shl\n      dup2\n      mstore\n      0x04\n      add\n      tag_19\n      swap3\n      swap2\n      swap1\n      tag_20\n      jump\t// in\n    tag_19:\n      0x20\n      mload(0x40)\n      dup1\n      dup4\n      sub\n      dup2\n      dup7\n      gas\n      delegatecall\n      iszero\n      dup1\n      iszero\n      tag_22\n      jumpi\n      returndatasize\n      0x00\n      dup1\n      returndatacopy\n      revert(0x00, returndatasize)\n    tag_22:\n      pop\n      pop\n      pop\n      pop\n      mload(0x40)\n      returndatasize\n      not(0x1f)\n      0x1f\n      dup3\n      add\n      and\n      dup3\n      add\n      dup1\n      0x40\n      mstore\n      pop\n      dup2\n      add\n      swap1\n      tag_23\n      swap2\n      swap1\n      tag_24\n      jump\t// in\n    tag_23:\n      pop\n        /* \"contracts/_ChunkManagerTest.sol\":800:806  Assert */\n      linkerSymbol(\"acbfb1c35000d78352310b16a054a6b1066124b9c6f054b10c085f549bff80c6\")\n        /* \"contracts/_ChunkManagerTest.sol\":800:812  Assert.equal */\n      0xe8c2cb16\n        /* \"contracts/_ChunkManagerTest.sol\":813:819  chunks */\n      dup3\n        /* \"contracts/_ChunkManagerTest.sol\":820:821  0 */\n      0x00\n        /* \"contracts/_ChunkManagerTest.sol\":813:822  chunks[0] */\n      dup2\n      mload\n      dup2\n      lt\n      tag_25\n      jumpi\n      tag_26\n      tag_27\n      jump\t// in\n    tag_26:\n    tag_25:\n      0x20\n      mul\n      0x20\n      add\n      add\n      mload\n        /* \"contracts/_ChunkManagerTest.sol\":800:890  Assert.equal(chunks[0], \"This is a test content.\", \"Incorrect content in the first chunk\") */\n      mload(0x40)\n      dup3\n      0xffffffff\n      and\n      0xe0\n      shl\n      dup2\n      mstore\n      0x04\n      add\n      tag_28\n      swap2\n      swap1\n      tag_29\n      jump\t// in\n    tag_28:\n      0x20\n      mload(0x40)\n      dup1\n      dup4\n      sub\n      dup2\n      dup7\n      gas\n      delegatecall\n      iszero\n      dup1\n      iszero\n      tag_31\n      jumpi\n      returndatasize\n      0x00\n      dup1\n      returndatacopy\n      revert(0x00, returndatasize)\n    tag_31:\n      pop\n      pop\n      pop\n      pop\n      mload(0x40)\n      returndatasize\n      not(0x1f)\n      0x1f\n      dup3\n      add\n      and\n      dup3\n      add\n      dup1\n      0x40\n      mstore\n      pop\n      dup2\n      add\n      swap1\n      tag_32\n      swap2\n      swap1\n      tag_24\n      jump\t// in\n    tag_32:\n      pop\n        /* \"contracts/_ChunkManagerTest.sol\":901:907  Assert */\n      linkerSymbol(\"acbfb1c35000d78352310b16a054a6b1066124b9c6f054b10c085f549bff80c6\")\n        /* \"contracts/_ChunkManagerTest.sol\":901:913  Assert.equal */\n      0xe8c2cb16\n        /* \"contracts/_ChunkManagerTest.sol\":914:920  chunks */\n      dup3\n        /* \"contracts/_ChunkManagerTest.sol\":921:922  1 */\n      0x01\n        /* \"contracts/_ChunkManagerTest.sol\":914:923  chunks[1] */\n      dup2\n      mload\n      dup2\n      lt\n      tag_33\n      jumpi\n      tag_34\n      tag_27\n      jump\t// in\n    tag_34:\n    tag_33:\n      0x20\n      mul\n      0x20\n      add\n      add\n      mload\n        /* \"contracts/_ChunkManagerTest.sol\":901:960  Assert.equal(chunks[1], \"\", \"Second chunk should be empty\") */\n      mload(0x40)\n      dup3\n      0xffffffff\n      and\n      0xe0\n      shl\n      dup2\n      mstore\n      0x04\n      add\n      tag_35\n      swap2\n      swap1\n      tag_36\n      jump\t// in\n    tag_35:\n      0x20\n      mload(0x40)\n      dup1\n      dup4\n      sub\n      dup2\n      dup7\n      gas\n      delegatecall\n      iszero\n      dup1\n      iszero\n      tag_38\n      jumpi\n      returndatasize\n      0x00\n      dup1\n      returndatacopy\n      revert(0x00, returndatasize)\n    tag_38:\n      pop\n      pop\n      pop\n      pop\n      mload(0x40)\n      returndatasize\n      not(0x1f)\n      0x1f\n      dup3\n      add\n      and\n      dup3\n      add\n      dup1\n      0x40\n      mstore\n      pop\n      dup2\n      add\n      swap1\n      tag_39\n      swap2\n      swap1\n      tag_24\n      jump\t// in\n    tag_39:\n      pop\n        /* \"contracts/_ChunkManagerTest.sol\":497:968  {... */\n      pop\n      pop\n        /* \"contracts/_ChunkManagerTest.sol\":462:968  function testChunkContent() public {... */\n      jump\t// out\n        /* \"contracts/_ChunkManagerTest.sol\":291:418  function beforeAll() public {... */\n    tag_9:\n        /* \"contracts/_ChunkManagerTest.sol\":392:410  new ChunkManager() */\n      mload(0x40)\n      tag_41\n      swap1\n      tag_42\n      jump\t// in\n    tag_41:\n      mload(0x40)\n      dup1\n      swap2\n      sub\n      swap1\n      0x00\n      create\n      dup1\n      iszero\n      dup1\n      iszero\n      tag_43\n      jumpi\n      returndatasize\n      0x00\n      dup1\n      returndatacopy\n      revert(0x00, returndatasize)\n    tag_43:\n      pop\n        /* \"contracts/_ChunkManagerTest.sol\":377:389  chunkManager */\n      0x00\n      dup1\n        /* \"contracts/_ChunkManagerTest.sol\":377:410  chunkManager = new ChunkManager() */\n      0x0100\n      exp\n      dup2\n      sload\n      dup2\n      0xffffffffffffffffffffffffffffffffffffffff\n      mul\n      not\n      and\n      swap1\n      dup4\n      0xffffffffffffffffffffffffffffffffffffffff\n      and\n      mul\n      or\n      swap1\n      sstore\n      pop\n        /* \"contracts/_ChunkManagerTest.sol\":291:418  function beforeAll() public {... */\n      jump\t// out\n        /* \"contracts/_ChunkManagerTest.sol\":1017:1411  function testConcatenateChunks() public {... */\n    tag_11:\n        /* \"contracts/_ChunkManagerTest.sol\":1068:1090  string[] memory chunks */\n      0x00\n        /* \"contracts/_ChunkManagerTest.sol\":1106:1107  2 */\n      0x02\n        /* \"contracts/_ChunkManagerTest.sol\":1093:1108  new string[](2) */\n      0xffffffffffffffff\n      dup2\n      gt\n      iszero\n      tag_45\n      jumpi\n      tag_46\n      tag_47\n      jump\t// in\n    tag_46:\n    tag_45:\n      mload(0x40)\n      swap1\n      dup1\n      dup3\n      mstore\n      dup1\n      0x20\n      mul\n      0x20\n      add\n      dup3\n      add\n      0x40\n      mstore\n      dup1\n      iszero\n      tag_48\n      jumpi\n      dup2\n      0x20\n      add\n    tag_49:\n      0x60\n      dup2\n      mstore\n      0x20\n      add\n      swap1\n      0x01\n      swap1\n      sub\n      swap1\n      dup2\n      tag_49\n      jumpi\n      swap1\n      pop\n    tag_48:\n      pop\n        /* \"contracts/_ChunkManagerTest.sol\":1068:1108  string[] memory chunks = new string[](2) */\n      swap1\n      pop\n        /* \"contracts/_ChunkManagerTest.sol\":1119:1141  chunks[0] = \"This is \" */\n      mload(0x40)\n      dup1\n      0x40\n      add\n      0x40\n      mstore\n      dup1\n      0x08\n      dup2\n      mstore\n      0x20\n      add\n      0x5468697320697320000000000000000000000000000000000000000000000000\n      dup2\n      mstore\n      pop\n        /* \"contracts/_ChunkManagerTest.sol\":1119:1125  chunks */\n      dup2\n        /* \"contracts/_ChunkManagerTest.sol\":1126:1127  0 */\n      0x00\n        /* \"contracts/_ChunkManagerTest.sol\":1119:1128  chunks[0] */\n      dup2\n      mload\n      dup2\n      lt\n      tag_50\n      jumpi\n      tag_51\n      tag_27\n      jump\t// in\n    tag_51:\n    tag_50:\n      0x20\n      mul\n      0x20\n      add\n      add\n        /* \"contracts/_ChunkManagerTest.sol\":1119:1141  chunks[0] = \"This is \" */\n      dup2\n      swap1\n      mstore\n      pop\n        /* \"contracts/_ChunkManagerTest.sol\":1152:1173  chunks[1] = \"a test.\" */\n      mload(0x40)\n      dup1\n      0x40\n      add\n      0x40\n      mstore\n      dup1\n      0x07\n      dup2\n      mstore\n      0x20\n      add\n      0x6120746573742e00000000000000000000000000000000000000000000000000\n      dup2\n      mstore\n      pop\n        /* \"contracts/_ChunkManagerTest.sol\":1152:1158  chunks */\n      dup2\n        /* \"contracts/_ChunkManagerTest.sol\":1159:1160  1 */\n      0x01\n        /* \"contracts/_ChunkManagerTest.sol\":1152:1161  chunks[1] */\n      dup2\n      mload\n      dup2\n      lt\n      tag_52\n      jumpi\n      tag_53\n      tag_27\n      jump\t// in\n    tag_53:\n    tag_52:\n      0x20\n      mul\n      0x20\n      add\n      add\n        /* \"contracts/_ChunkManagerTest.sol\":1152:1173  chunks[1] = \"a test.\" */\n      dup2\n      swap1\n      mstore\n      pop\n        /* \"contracts/_ChunkManagerTest.sol\":1186:1219  string memory concatenatedContent */\n      0x00\n        /* \"contracts/_ChunkManagerTest.sol\":1222:1234  chunkManager */\n      dup1\n      0x00\n      swap1\n      sload\n      swap1\n      0x0100\n      exp\n      swap1\n      div\n      0xffffffffffffffffffffffffffffffffffffffff\n      and\n        /* \"contracts/_ChunkManagerTest.sol\":1222:1252  chunkManager.concatenateChunks */\n      0xffffffffffffffffffffffffffffffffffffffff\n      and\n      0x57d7f21f\n        /* \"contracts/_ChunkManagerTest.sol\":1253:1259  chunks */\n      dup4\n        /* \"contracts/_ChunkManagerTest.sol\":1222:1260  chunkManager.concatenateChunks(chunks) */\n      mload(0x40)\n      dup3\n      0xffffffff\n      and\n      0xe0\n      shl\n      dup2\n      mstore\n      0x04\n      add\n      tag_54\n      swap2\n      swap1\n      tag_55\n      jump\t// in\n    tag_54:\n      0x00\n      mload(0x40)\n      dup1\n      dup4\n      sub\n      dup2\n      dup7\n      gas\n      staticcall\n      iszero\n      dup1\n      iszero\n      tag_57\n      jumpi\n      returndatasize\n      0x00\n      dup1\n      returndatacopy\n      revert(0x00, returndatasize)\n    tag_57:\n      pop\n      pop\n      pop\n      pop\n      mload(0x40)\n      returndatasize\n      0x00\n      dup3\n      returndatacopy\n      returndatasize\n      not(0x1f)\n      0x1f\n      dup3\n      add\n      and\n      dup3\n      add\n      dup1\n      0x40\n      mstore\n      pop\n      dup2\n      add\n      swap1\n      tag_58\n      swap2\n      swap1\n      tag_59\n      jump\t// in\n    tag_58:\n        /* \"contracts/_ChunkManagerTest.sol\":1186:1260  string memory concatenatedContent = chunkManager.concatenateChunks(chunks) */\n      swap1\n      pop\n        /* \"contracts/_ChunkManagerTest.sol\":1317:1323  Assert */\n      linkerSymbol(\"acbfb1c35000d78352310b16a054a6b1066124b9c6f054b10c085f549bff80c6\")\n        /* \"contracts/_ChunkManagerTest.sol\":1317:1329  Assert.equal */\n      0xe8c2cb16\n        /* \"contracts/_ChunkManagerTest.sol\":1330:1349  concatenatedContent */\n      dup3\n        /* \"contracts/_ChunkManagerTest.sol\":1317:1403  Assert.equal(concatenatedContent, \"This is a test.\", \"Incorrect concatenated content\") */\n      mload(0x40)\n      dup3\n      0xffffffff\n      and\n      0xe0\n      shl\n      dup2\n      mstore\n      0x04\n      add\n      tag_60\n      swap2\n      swap1\n      tag_61\n      jump\t// in\n    tag_60:\n      0x20\n      mload(0x40)\n      dup1\n      dup4\n      sub\n      dup2\n      dup7\n      gas\n      delegatecall\n      iszero\n      dup1\n      iszero\n      tag_63\n      jumpi\n      returndatasize\n      0x00\n      dup1\n      returndatacopy\n      revert(0x00, returndatasize)\n    tag_63:\n      pop\n      pop\n      pop\n      pop\n      mload(0x40)\n      returndatasize\n      not(0x1f)\n      0x1f\n      dup3\n      add\n      and\n      dup3\n      add\n      dup1\n      0x40\n      mstore\n      pop\n      dup2\n      add\n      swap1\n      tag_64\n      swap2\n      swap1\n      tag_24\n      jump\t// in\n    tag_64:\n      pop\n        /* \"contracts/_ChunkManagerTest.sol\":1057:1411  {... */\n      pop\n      pop\n        /* \"contracts/_ChunkManagerTest.sol\":1017:1411  function testConcatenateChunks() public {... */\n      jump\t// out\n    tag_42:\n      dataSize(sub_0)\n      dup1\n      dataOffset(sub_0)\n      dup4\n      codecopy\n      add\n      swap1\n      jump\t// out\n        /* \"#utility.yul\":7:106   */\n    tag_65:\n        /* \"#utility.yul\":59:65   */\n      0x00\n        /* \"#utility.yul\":93:98   */\n      dup2\n        /* \"#utility.yul\":87:99   */\n      mload\n        /* \"#utility.yul\":77:99   */\n      swap1\n      pop\n        /* \"#utility.yul\":7:106   */\n      swap2\n      swap1\n      pop\n      jump\t// out\n        /* \"#utility.yul\":112:281   */\n    tag_66:\n        /* \"#utility.yul\":196:207   */\n      0x00\n        /* \"#utility.yul\":230:236   */\n      dup3\n        /* \"#utility.yul\":225:228   */\n      dup3\n        /* \"#utility.yul\":218:237   */\n      mstore\n        /* \"#utility.yul\":270:274   */\n      0x20\n        /* \"#utility.yul\":265:268   */\n      dup3\n        /* \"#utility.yul\":261:275   */\n      add\n        /* \"#utility.yul\":246:275   */\n      swap1\n      pop\n        /* \"#utility.yul\":112:281   */\n      swap3\n      swap2\n      pop\n      pop\n      jump\t// out\n        /* \"#utility.yul\":287:533   */\n    tag_67:\n        /* \"#utility.yul\":368:369   */\n      0x00\n        /* \"#utility.yul\":378:491   */\n    tag_121:\n        /* \"#utility.yul\":392:398   */\n      dup4\n        /* \"#utility.yul\":389:390   */\n      dup2\n        /* \"#utility.yul\":386:399   */\n      lt\n        /* \"#utility.yul\":378:491   */\n      iszero\n      tag_123\n      jumpi\n        /* \"#utility.yul\":477:478   */\n      dup1\n        /* \"#utility.yul\":472:475   */\n      dup3\n        /* \"#utility.yul\":468:479   */\n      add\n        /* \"#utility.yul\":462:480   */\n      mload\n        /* \"#utility.yul\":458:459   */\n      dup2\n        /* \"#utility.yul\":453:456   */\n      dup5\n        /* \"#utility.yul\":449:460   */\n      add\n        /* \"#utility.yul\":442:481   */\n      mstore\n        /* \"#utility.yul\":414:416   */\n      0x20\n        /* \"#utility.yul\":411:412   */\n      dup2\n        /* \"#utility.yul\":407:417   */\n      add\n        /* \"#utility.yul\":402:417   */\n      swap1\n      pop\n        /* \"#utility.yul\":378:491   */\n      jump(tag_121)\n    tag_123:\n        /* \"#utility.yul\":525:526   */\n      0x00\n        /* \"#utility.yul\":516:522   */\n      dup5\n        /* \"#utility.yul\":511:514   */\n      dup5\n        /* \"#utility.yul\":507:523   */\n      add\n        /* \"#utility.yul\":500:527   */\n      mstore\n        /* \"#utility.yul\":349:533   */\n      pop\n        /* \"#utility.yul\":287:533   */\n      pop\n      pop\n      pop\n      jump\t// out\n        /* \"#utility.yul\":539:641   */\n    tag_68:\n        /* \"#utility.yul\":580:586   */\n      0x00\n        /* \"#utility.yul\":631:633   */\n      0x1f\n        /* \"#utility.yul\":627:634   */\n      not\n        /* \"#utility.yul\":622:624   */\n      0x1f\n        /* \"#utility.yul\":615:620   */\n      dup4\n        /* \"#utility.yul\":611:625   */\n      add\n        /* \"#utility.yul\":607:635   */\n      and\n        /* \"#utility.yul\":597:635   */\n      swap1\n      pop\n        /* \"#utility.yul\":539:641   */\n      swap2\n      swap1\n      pop\n      jump\t// out\n        /* \"#utility.yul\":647:1024   */\n    tag_69:\n        /* \"#utility.yul\":735:738   */\n      0x00\n        /* \"#utility.yul\":763:802   */\n      tag_126\n        /* \"#utility.yul\":796:801   */\n      dup3\n        /* \"#utility.yul\":763:802   */\n      tag_65\n      jump\t// in\n    tag_126:\n        /* \"#utility.yul\":818:889   */\n      tag_127\n        /* \"#utility.yul\":882:888   */\n      dup2\n        /* \"#utility.yul\":877:880   */\n      dup6\n        /* \"#utility.yul\":818:889   */\n      tag_66\n      jump\t// in\n    tag_127:\n        /* \"#utility.yul\":811:889   */\n      swap4\n      pop\n        /* \"#utility.yul\":898:963   */\n      tag_128\n        /* \"#utility.yul\":956:962   */\n      dup2\n        /* \"#utility.yul\":951:954   */\n      dup6\n        /* \"#utility.yul\":944:948   */\n      0x20\n        /* \"#utility.yul\":937:942   */\n      dup7\n        /* \"#utility.yul\":933:949   */\n      add\n        /* \"#utility.yul\":898:963   */\n      tag_67\n      jump\t// in\n    tag_128:\n        /* \"#utility.yul\":988:1017   */\n      tag_129\n        /* \"#utility.yul\":1010:1016   */\n      dup2\n        /* \"#utility.yul\":988:1017   */\n      tag_68\n      jump\t// in\n    tag_129:\n        /* \"#utility.yul\":983:986   */\n      dup5\n        /* \"#utility.yul\":979:1018   */\n      add\n        /* \"#utility.yul\":972:1018   */\n      swap2\n      pop\n        /* \"#utility.yul\":739:1024   */\n      pop\n        /* \"#utility.yul\":647:1024   */\n      swap3\n      swap2\n      pop\n      pop\n      jump\t// out\n        /* \"#utility.yul\":1030:1343   */\n    tag_14:\n        /* \"#utility.yul\":1143:1147   */\n      0x00\n        /* \"#utility.yul\":1181:1183   */\n      0x20\n        /* \"#utility.yul\":1170:1179   */\n      dup3\n        /* \"#utility.yul\":1166:1184   */\n      add\n        /* \"#utility.yul\":1158:1184   */\n      swap1\n      pop\n        /* \"#utility.yul\":1230:1239   */\n      dup2\n        /* \"#utility.yul\":1224:1228   */\n      dup2\n        /* \"#utility.yul\":1220:1240   */\n      sub\n        /* \"#utility.yul\":1216:1217   */\n      0x00\n        /* \"#utility.yul\":1205:1214   */\n      dup4\n        /* \"#utility.yul\":1201:1218   */\n      add\n        /* \"#utility.yul\":1194:1241   */\n      mstore\n        /* \"#utility.yul\":1258:1336   */\n      tag_131\n        /* \"#utility.yul\":1331:1335   */\n      dup2\n        /* \"#utility.yul\":1322:1328   */\n      dup5\n        /* \"#utility.yul\":1258:1336   */\n      tag_69\n      jump\t// in\n    tag_131:\n        /* \"#utility.yul\":1250:1336   */\n      swap1\n      pop\n        /* \"#utility.yul\":1030:1343   */\n      swap3\n      swap2\n      pop\n      pop\n      jump\t// out\n        /* \"#utility.yul\":1349:1424   */\n    tag_70:\n        /* \"#utility.yul\":1382:1388   */\n      0x00\n        /* \"#utility.yul\":1415:1417   */\n      0x40\n        /* \"#utility.yul\":1409:1418   */\n      mload\n        /* \"#utility.yul\":1399:1418   */\n      swap1\n      pop\n        /* \"#utility.yul\":1349:1424   */\n      swap1\n      jump\t// out\n        /* \"#utility.yul\":1430:1547   */\n    tag_71:\n        /* \"#utility.yul\":1539:1540   */\n      0x00\n        /* \"#utility.yul\":1536:1537   */\n      dup1\n        /* \"#utility.yul\":1529:1541   */\n      revert\n        /* \"#utility.yul\":1553:1670   */\n    tag_72:\n        /* \"#utility.yul\":1662:1663   */\n      0x00\n        /* \"#utility.yul\":1659:1660   */\n      dup1\n        /* \"#utility.yul\":1652:1664   */\n      revert\n        /* \"#utility.yul\":1676:1793   */\n    tag_73:\n        /* \"#utility.yul\":1785:1786   */\n      0x00\n        /* \"#utility.yul\":1782:1783   */\n      dup1\n        /* \"#utility.yul\":1775:1787   */\n      revert\n        /* \"#utility.yul\":1799:1979   */\n    tag_47:\n        /* \"#utility.yul\":1847:1924   */\n      0x4e487b7100000000000000000000000000000000000000000000000000000000\n        /* \"#utility.yul\":1844:1845   */\n      0x00\n        /* \"#utility.yul\":1837:1925   */\n      mstore\n        /* \"#utility.yul\":1944:1948   */\n      0x41\n        /* \"#utility.yul\":1941:1942   */\n      0x04\n        /* \"#utility.yul\":1934:1949   */\n      mstore\n        /* \"#utility.yul\":1968:1972   */\n      0x24\n        /* \"#utility.yul\":1965:1966   */\n      0x00\n        /* \"#utility.yul\":1958:1973   */\n      revert\n        /* \"#utility.yul\":1985:2266   */\n    tag_74:\n        /* \"#utility.yul\":2068:2095   */\n      tag_138\n        /* \"#utility.yul\":2090:2094   */\n      dup3\n        /* \"#utility.yul\":2068:2095   */\n      tag_68\n      jump\t// in\n    tag_138:\n        /* \"#utility.yul\":2060:2066   */\n      dup2\n        /* \"#utility.yul\":2056:2096   */\n      add\n        /* \"#utility.yul\":2198:2204   */\n      dup2\n        /* \"#utility.yul\":2186:2196   */\n      dup2\n        /* \"#utility.yul\":2183:2205   */\n      lt\n        /* \"#utility.yul\":2162:2180   */\n      0xffffffffffffffff\n        /* \"#utility.yul\":2150:2160   */\n      dup3\n        /* \"#utility.yul\":2147:2181   */\n      gt\n        /* \"#utility.yul\":2144:2206   */\n      or\n        /* \"#utility.yul\":2141:2229   */\n      iszero\n      tag_139\n      jumpi\n        /* \"#utility.yul\":2209:2227   */\n      tag_140\n      tag_47\n      jump\t// in\n    tag_140:\n        /* \"#utility.yul\":2141:2229   */\n    tag_139:\n        /* \"#utility.yul\":2249:2259   */\n      dup1\n        /* \"#utility.yul\":2245:2247   */\n      0x40\n        /* \"#utility.yul\":2238:2260   */\n      mstore\n        /* \"#utility.yul\":2028:2266   */\n      pop\n        /* \"#utility.yul\":1985:2266   */\n      pop\n      pop\n      jump\t// out\n        /* \"#utility.yul\":2272:2401   */\n    tag_75:\n        /* \"#utility.yul\":2306:2312   */\n      0x00\n        /* \"#utility.yul\":2333:2353   */\n      tag_142\n      tag_70\n      jump\t// in\n    tag_142:\n        /* \"#utility.yul\":2323:2353   */\n      swap1\n      pop\n        /* \"#utility.yul\":2362:2395   */\n      tag_143\n        /* \"#utility.yul\":2390:2394   */\n      dup3\n        /* \"#utility.yul\":2382:2388   */\n      dup3\n        /* \"#utility.yul\":2362:2395   */\n      tag_74\n      jump\t// in\n    tag_143:\n        /* \"#utility.yul\":2272:2401   */\n      swap2\n      swap1\n      pop\n      jump\t// out\n        /* \"#utility.yul\":2407:2728   */\n    tag_76:\n        /* \"#utility.yul\":2494:2498   */\n      0x00\n        /* \"#utility.yul\":2584:2602   */\n      0xffffffffffffffff\n        /* \"#utility.yul\":2576:2582   */\n      dup3\n        /* \"#utility.yul\":2573:2603   */\n      gt\n        /* \"#utility.yul\":2570:2626   */\n      iszero\n      tag_145\n      jumpi\n        /* \"#utility.yul\":2606:2624   */\n      tag_146\n      tag_47\n      jump\t// in\n    tag_146:\n        /* \"#utility.yul\":2570:2626   */\n    tag_145:\n        /* \"#utility.yul\":2656:2660   */\n      0x20\n        /* \"#utility.yul\":2648:2654   */\n      dup3\n        /* \"#utility.yul\":2644:2661   */\n      mul\n        /* \"#utility.yul\":2636:2661   */\n      swap1\n      pop\n        /* \"#utility.yul\":2716:2720   */\n      0x20\n        /* \"#utility.yul\":2710:2714   */\n      dup2\n        /* \"#utility.yul\":2706:2721   */\n      add\n        /* \"#utility.yul\":2698:2721   */\n      swap1\n      pop\n        /* \"#utility.yul\":2407:2728   */\n      swap2\n      swap1\n      pop\n      jump\t// out\n        /* \"#utility.yul\":2734:2851   */\n    tag_77:\n        /* \"#utility.yul\":2843:2844   */\n      0x00\n        /* \"#utility.yul\":2840:2841   */\n      dup1\n        /* \"#utility.yul\":2833:2845   */\n      revert\n        /* \"#utility.yul\":2857:2974   */\n    tag_78:\n        /* \"#utility.yul\":2966:2967   */\n      0x00\n        /* \"#utility.yul\":2963:2964   */\n      dup1\n        /* \"#utility.yul\":2956:2968   */\n      revert\n        /* \"#utility.yul\":2980:3288   */\n    tag_79:\n        /* \"#utility.yul\":3042:3046   */\n      0x00\n        /* \"#utility.yul\":3132:3150   */\n      0xffffffffffffffff\n        /* \"#utility.yul\":3124:3130   */\n      dup3\n        /* \"#utility.yul\":3121:3151   */\n      gt\n        /* \"#utility.yul\":3118:3174   */\n      iszero\n      tag_150\n      jumpi\n        /* \"#utility.yul\":3154:3172   */\n      tag_151\n      tag_47\n      jump\t// in\n    tag_151:\n        /* \"#utility.yul\":3118:3174   */\n    tag_150:\n        /* \"#utility.yul\":3192:3221   */\n      tag_152\n        /* \"#utility.yul\":3214:3220   */\n      dup3\n        /* \"#utility.yul\":3192:3221   */\n      tag_68\n      jump\t// in\n    tag_152:\n        /* \"#utility.yul\":3184:3221   */\n      swap1\n      pop\n        /* \"#utility.yul\":3276:3280   */\n      0x20\n        /* \"#utility.yul\":3270:3274   */\n      dup2\n        /* \"#utility.yul\":3266:3281   */\n      add\n        /* \"#utility.yul\":3258:3281   */\n      swap1\n      pop\n        /* \"#utility.yul\":2980:3288   */\n      swap2\n      swap1\n      pop\n      jump\t// out\n        /* \"#utility.yul\":3294:3728   */\n    tag_80:\n        /* \"#utility.yul\":3383:3388   */\n      0x00\n        /* \"#utility.yul\":3408:3474   */\n      tag_154\n        /* \"#utility.yul\":3424:3473   */\n      tag_155\n        /* \"#utility.yul\":3466:3472   */\n      dup5\n        /* \"#utility.yul\":3424:3473   */\n      tag_79\n      jump\t// in\n    tag_155:\n        /* \"#utility.yul\":3408:3474   */\n      tag_75\n      jump\t// in\n    tag_154:\n        /* \"#utility.yul\":3399:3474   */\n      swap1\n      pop\n        /* \"#utility.yul\":3497:3503   */\n      dup3\n        /* \"#utility.yul\":3490:3495   */\n      dup2\n        /* \"#utility.yul\":3483:3504   */\n      mstore\n        /* \"#utility.yul\":3535:3539   */\n      0x20\n        /* \"#utility.yul\":3528:3533   */\n      dup2\n        /* \"#utility.yul\":3524:3540   */\n      add\n        /* \"#utility.yul\":3573:3576   */\n      dup5\n        /* \"#utility.yul\":3564:3570   */\n      dup5\n        /* \"#utility.yul\":3559:3562   */\n      dup5\n        /* \"#utility.yul\":3555:3571   */\n      add\n        /* \"#utility.yul\":3552:3577   */\n      gt\n        /* \"#utility.yul\":3549:3661   */\n      iszero\n      tag_156\n      jumpi\n        /* \"#utility.yul\":3580:3659   */\n      tag_157\n      tag_78\n      jump\t// in\n    tag_157:\n        /* \"#utility.yul\":3549:3661   */\n    tag_156:\n        /* \"#utility.yul\":3670:3722   */\n      tag_158\n        /* \"#utility.yul\":3715:3721   */\n      dup5\n        /* \"#utility.yul\":3710:3713   */\n      dup3\n        /* \"#utility.yul\":3705:3708   */\n      dup6\n        /* \"#utility.yul\":3670:3722   */\n      tag_67\n      jump\t// in\n    tag_158:\n        /* \"#utility.yul\":3389:3728   */\n      pop\n        /* \"#utility.yul\":3294:3728   */\n      swap4\n      swap3\n      pop\n      pop\n      pop\n      jump\t// out\n        /* \"#utility.yul\":3748:4103   */\n    tag_81:\n        /* \"#utility.yul\":3815:3820   */\n      0x00\n        /* \"#utility.yul\":3864:3867   */\n      dup3\n        /* \"#utility.yul\":3857:3861   */\n      0x1f\n        /* \"#utility.yul\":3849:3855   */\n      dup4\n        /* \"#utility.yul\":3845:3862   */\n      add\n        /* \"#utility.yul\":3841:3868   */\n      slt\n        /* \"#utility.yul\":3831:3953   */\n      tag_160\n      jumpi\n        /* \"#utility.yul\":3872:3951   */\n      tag_161\n      tag_73\n      jump\t// in\n    tag_161:\n        /* \"#utility.yul\":3831:3953   */\n    tag_160:\n        /* \"#utility.yul\":3982:3988   */\n      dup2\n        /* \"#utility.yul\":3976:3989   */\n      mload\n        /* \"#utility.yul\":4007:4097   */\n      tag_162\n        /* \"#utility.yul\":4093:4096   */\n      dup5\n        /* \"#utility.yul\":4085:4091   */\n      dup3\n        /* \"#utility.yul\":4078:4082   */\n      0x20\n        /* \"#utility.yul\":4070:4076   */\n      dup7\n        /* \"#utility.yul\":4066:4083   */\n      add\n        /* \"#utility.yul\":4007:4097   */\n      tag_80\n      jump\t// in\n    tag_162:\n        /* \"#utility.yul\":3998:4097   */\n      swap2\n      pop\n        /* \"#utility.yul\":3821:4103   */\n      pop\n        /* \"#utility.yul\":3748:4103   */\n      swap3\n      swap2\n      pop\n      pop\n      jump\t// out\n        /* \"#utility.yul\":4125:5085   */\n    tag_82:\n        /* \"#utility.yul\":4242:4247   */\n      0x00\n        /* \"#utility.yul\":4267:4358   */\n      tag_164\n        /* \"#utility.yul\":4283:4357   */\n      tag_165\n        /* \"#utility.yul\":4350:4356   */\n      dup5\n        /* \"#utility.yul\":4283:4357   */\n      tag_76\n      jump\t// in\n    tag_165:\n        /* \"#utility.yul\":4267:4358   */\n      tag_75\n      jump\t// in\n    tag_164:\n        /* \"#utility.yul\":4258:4358   */\n      swap1\n      pop\n        /* \"#utility.yul\":4378:4383   */\n      dup1\n        /* \"#utility.yul\":4407:4413   */\n      dup4\n        /* \"#utility.yul\":4400:4405   */\n      dup3\n        /* \"#utility.yul\":4393:4414   */\n      mstore\n        /* \"#utility.yul\":4441:4445   */\n      0x20\n        /* \"#utility.yul\":4434:4439   */\n      dup3\n        /* \"#utility.yul\":4430:4446   */\n      add\n        /* \"#utility.yul\":4423:4446   */\n      swap1\n      pop\n        /* \"#utility.yul\":4494:4498   */\n      0x20\n        /* \"#utility.yul\":4486:4492   */\n      dup5\n        /* \"#utility.yul\":4482:4499   */\n      mul\n        /* \"#utility.yul\":4474:4480   */\n      dup4\n        /* \"#utility.yul\":4470:4500   */\n      add\n        /* \"#utility.yul\":4523:4526   */\n      dup6\n        /* \"#utility.yul\":4515:4521   */\n      dup2\n        /* \"#utility.yul\":4512:4527   */\n      gt\n        /* \"#utility.yul\":4509:4631   */\n      iszero\n      tag_166\n      jumpi\n        /* \"#utility.yul\":4542:4621   */\n      tag_167\n      tag_77\n      jump\t// in\n    tag_167:\n        /* \"#utility.yul\":4509:4631   */\n    tag_166:\n        /* \"#utility.yul\":4657:4663   */\n      dup4\n        /* \"#utility.yul\":4640:5079   */\n    tag_168:\n        /* \"#utility.yul\":4674:4680   */\n      dup2\n        /* \"#utility.yul\":4669:4672   */\n      dup2\n        /* \"#utility.yul\":4666:4681   */\n      lt\n        /* \"#utility.yul\":4640:5079   */\n      iszero\n      tag_170\n      jumpi\n        /* \"#utility.yul\":4756:4759   */\n      dup1\n        /* \"#utility.yul\":4750:4760   */\n      mload\n        /* \"#utility.yul\":4792:4810   */\n      0xffffffffffffffff\n        /* \"#utility.yul\":4779:4790   */\n      dup2\n        /* \"#utility.yul\":4776:4811   */\n      gt\n        /* \"#utility.yul\":4773:4895   */\n      iszero\n      tag_171\n      jumpi\n        /* \"#utility.yul\":4814:4893   */\n      tag_172\n      tag_73\n      jump\t// in\n    tag_172:\n        /* \"#utility.yul\":4773:4895   */\n    tag_171:\n        /* \"#utility.yul\":4938:4949   */\n      dup1\n        /* \"#utility.yul\":4930:4936   */\n      dup7\n        /* \"#utility.yul\":4926:4950   */\n      add\n        /* \"#utility.yul\":4976:5034   */\n      tag_173\n        /* \"#utility.yul\":5030:5033   */\n      dup10\n        /* \"#utility.yul\":5018:5028   */\n      dup3\n        /* \"#utility.yul\":4976:5034   */\n      tag_81\n      jump\t// in\n    tag_173:\n        /* \"#utility.yul\":4971:4974   */\n      dup6\n        /* \"#utility.yul\":4964:5035   */\n      mstore\n        /* \"#utility.yul\":5064:5068   */\n      0x20\n        /* \"#utility.yul\":5059:5062   */\n      dup6\n        /* \"#utility.yul\":5055:5069   */\n      add\n        /* \"#utility.yul\":5048:5069   */\n      swap5\n      pop\n        /* \"#utility.yul\":4716:5079   */\n      pop\n      pop\n        /* \"#utility.yul\":4700:4704   */\n      0x20\n        /* \"#utility.yul\":4695:4698   */\n      dup2\n        /* \"#utility.yul\":4691:4705   */\n      add\n        /* \"#utility.yul\":4684:4705   */\n      swap1\n      pop\n        /* \"#utility.yul\":4640:5079   */\n      jump(tag_168)\n    tag_170:\n        /* \"#utility.yul\":4644:4665   */\n      pop\n        /* \"#utility.yul\":4248:5085   */\n      pop\n      pop\n        /* \"#utility.yul\":4125:5085   */\n      swap4\n      swap3\n      pop\n      pop\n      pop\n      jump\t// out\n        /* \"#utility.yul\":5107:5512   */\n    tag_83:\n        /* \"#utility.yul\":5199:5204   */\n      0x00\n        /* \"#utility.yul\":5248:5251   */\n      dup3\n        /* \"#utility.yul\":5241:5245   */\n      0x1f\n        /* \"#utility.yul\":5233:5239   */\n      dup4\n        /* \"#utility.yul\":5229:5246   */\n      add\n        /* \"#utility.yul\":5225:5252   */\n      slt\n        /* \"#utility.yul\":5215:5337   */\n      tag_175\n      jumpi\n        /* \"#utility.yul\":5256:5335   */\n      tag_176\n      tag_73\n      jump\t// in\n    tag_176:\n        /* \"#utility.yul\":5215:5337   */\n    tag_175:\n        /* \"#utility.yul\":5366:5372   */\n      dup2\n        /* \"#utility.yul\":5360:5373   */\n      mload\n        /* \"#utility.yul\":5391:5506   */\n      tag_177\n        /* \"#utility.yul\":5502:5505   */\n      dup5\n        /* \"#utility.yul\":5494:5500   */\n      dup3\n        /* \"#utility.yul\":5487:5491   */\n      0x20\n        /* \"#utility.yul\":5479:5485   */\n      dup7\n        /* \"#utility.yul\":5475:5492   */\n      add\n        /* \"#utility.yul\":5391:5506   */\n      tag_82\n      jump\t// in\n    tag_177:\n        /* \"#utility.yul\":5382:5506   */\n      swap2\n      pop\n        /* \"#utility.yul\":5205:5512   */\n      pop\n        /* \"#utility.yul\":5107:5512   */\n      swap3\n      swap2\n      pop\n      pop\n      jump\t// out\n        /* \"#utility.yul\":5518:6092   */\n    tag_18:\n        /* \"#utility.yul\":5623:5629   */\n      0x00\n        /* \"#utility.yul\":5672:5674   */\n      0x20\n        /* \"#utility.yul\":5660:5669   */\n      dup3\n        /* \"#utility.yul\":5651:5658   */\n      dup5\n        /* \"#utility.yul\":5647:5670   */\n      sub\n        /* \"#utility.yul\":5643:5675   */\n      slt\n        /* \"#utility.yul\":5640:5759   */\n      iszero\n      tag_179\n      jumpi\n        /* \"#utility.yul\":5678:5757   */\n      tag_180\n      tag_71\n      jump\t// in\n    tag_180:\n        /* \"#utility.yul\":5640:5759   */\n    tag_179:\n        /* \"#utility.yul\":5819:5820   */\n      0x00\n        /* \"#utility.yul\":5808:5817   */\n      dup3\n        /* \"#utility.yul\":5804:5821   */\n      add\n        /* \"#utility.yul\":5798:5822   */\n      mload\n        /* \"#utility.yul\":5849:5867   */\n      0xffffffffffffffff\n        /* \"#utility.yul\":5841:5847   */\n      dup2\n        /* \"#utility.yul\":5838:5868   */\n      gt\n        /* \"#utility.yul\":5835:5952   */\n      iszero\n      tag_181\n      jumpi\n        /* \"#utility.yul\":5871:5950   */\n      tag_182\n      tag_72\n      jump\t// in\n    tag_182:\n        /* \"#utility.yul\":5835:5952   */\n    tag_181:\n        /* \"#utility.yul\":5976:6075   */\n      tag_183\n        /* \"#utility.yul\":6067:6074   */\n      dup5\n        /* \"#utility.yul\":6058:6064   */\n      dup3\n        /* \"#utility.yul\":6047:6056   */\n      dup6\n        /* \"#utility.yul\":6043:6065   */\n      add\n        /* \"#utility.yul\":5976:6075   */\n      tag_83\n      jump\t// in\n    tag_183:\n        /* \"#utility.yul\":5966:6075   */\n      swap2\n      pop\n        /* \"#utility.yul\":5769:6085   */\n      pop\n        /* \"#utility.yul\":5518:6092   */\n      swap3\n      swap2\n      pop\n      pop\n      jump\t// out\n        /* \"#utility.yul\":6098:6175   */\n    tag_84:\n        /* \"#utility.yul\":6135:6142   */\n      0x00\n        /* \"#utility.yul\":6164:6169   */\n      dup2\n        /* \"#utility.yul\":6153:6169   */\n      swap1\n      pop\n        /* \"#utility.yul\":6098:6175   */\n      swap2\n      swap1\n      pop\n      jump\t// out\n        /* \"#utility.yul\":6181:6307   */\n    tag_85:\n        /* \"#utility.yul\":6276:6300   */\n      tag_186\n        /* \"#utility.yul\":6294:6299   */\n      dup2\n        /* \"#utility.yul\":6276:6300   */\n      tag_84\n      jump\t// in\n    tag_186:\n        /* \"#utility.yul\":6271:6274   */\n      dup3\n        /* \"#utility.yul\":6264:6301   */\n      mstore\n        /* \"#utility.yul\":6181:6307   */\n      pop\n      pop\n      jump\t// out\n        /* \"#utility.yul\":6313:6398   */\n    tag_86:\n        /* \"#utility.yul\":6358:6365   */\n      0x00\n        /* \"#utility.yul\":6387:6392   */\n      dup2\n        /* \"#utility.yul\":6376:6392   */\n      swap1\n      pop\n        /* \"#utility.yul\":6313:6398   */\n      swap2\n      swap1\n      pop\n      jump\t// out\n        /* \"#utility.yul\":6404:6464   */\n    tag_87:\n        /* \"#utility.yul\":6432:6435   */\n      0x00\n        /* \"#utility.yul\":6453:6458   */\n      dup2\n        /* \"#utility.yul\":6446:6458   */\n      swap1\n      pop\n        /* \"#utility.yul\":6404:6464   */\n      swap2\n      swap1\n      pop\n      jump\t// out\n        /* \"#utility.yul\":6470:6628   */\n    tag_88:\n        /* \"#utility.yul\":6528:6537   */\n      0x00\n        /* \"#utility.yul\":6561:6622   */\n      tag_190\n        /* \"#utility.yul\":6579:6621   */\n      tag_191\n        /* \"#utility.yul\":6588:6620   */\n      tag_192\n        /* \"#utility.yul\":6614:6619   */\n      dup5\n        /* \"#utility.yul\":6588:6620   */\n      tag_86\n      jump\t// in\n    tag_192:\n        /* \"#utility.yul\":6579:6621   */\n      tag_87\n      jump\t// in\n    tag_191:\n        /* \"#utility.yul\":6561:6622   */\n      tag_84\n      jump\t// in\n    tag_190:\n        /* \"#utility.yul\":6548:6622   */\n      swap1\n      pop\n        /* \"#utility.yul\":6470:6628   */\n      swap2\n      swap1\n      pop\n      jump\t// out\n        /* \"#utility.yul\":6634:6789   */\n    tag_89:\n        /* \"#utility.yul\":6737:6782   */\n      tag_194\n        /* \"#utility.yul\":6776:6781   */\n      dup2\n        /* \"#utility.yul\":6737:6782   */\n      tag_88\n      jump\t// in\n    tag_194:\n        /* \"#utility.yul\":6732:6735   */\n      dup3\n        /* \"#utility.yul\":6725:6783   */\n      mstore\n        /* \"#utility.yul\":6634:6789   */\n      pop\n      pop\n      jump\t// out\n        /* \"#utility.yul\":6795:6972   */\n    tag_90:\n        /* \"#utility.yul\":6887:6898   */\n      0x00\n        /* \"#utility.yul\":6921:6927   */\n      dup3\n        /* \"#utility.yul\":6916:6919   */\n      dup3\n        /* \"#utility.yul\":6909:6928   */\n      mstore\n        /* \"#utility.yul\":6961:6965   */\n      0x20\n        /* \"#utility.yul\":6956:6959   */\n      dup3\n        /* \"#utility.yul\":6952:6966   */\n      add\n        /* \"#utility.yul\":6937:6966   */\n      swap1\n      pop\n        /* \"#utility.yul\":6795:6972   */\n      swap3\n      swap2\n      pop\n      pop\n      jump\t// out\n        /* \"#utility.yul\":6978:7156   */\n    tag_91:\n        /* \"#utility.yul\":7118:7148   */\n      0x4e756d626572206f66206368756e6b732073686f756c64206265203200000000\n        /* \"#utility.yul\":7114:7115   */\n      0x00\n        /* \"#utility.yul\":7106:7112   */\n      dup3\n        /* \"#utility.yul\":7102:7116   */\n      add\n        /* \"#utility.yul\":7095:7149   */\n      mstore\n        /* \"#utility.yul\":6978:7156   */\n      pop\n      jump\t// out\n        /* \"#utility.yul\":7162:7544   */\n    tag_92:\n        /* \"#utility.yul\":7312:7315   */\n      0x00\n        /* \"#utility.yul\":7333:7408   */\n      tag_198\n        /* \"#utility.yul\":7405:7407   */\n      0x1c\n        /* \"#utility.yul\":7400:7403   */\n      dup4\n        /* \"#utility.yul\":7333:7408   */\n      tag_90\n      jump\t// in\n    tag_198:\n        /* \"#utility.yul\":7326:7408   */\n      swap2\n      pop\n        /* \"#utility.yul\":7417:7510   */\n      tag_199\n        /* \"#utility.yul\":7506:7509   */\n      dup3\n        /* \"#utility.yul\":7417:7510   */\n      tag_91\n      jump\t// in\n    tag_199:\n        /* \"#utility.yul\":7535:7537   */\n      0x20\n        /* \"#utility.yul\":7530:7533   */\n      dup3\n        /* \"#utility.yul\":7526:7538   */\n      add\n        /* \"#utility.yul\":7519:7538   */\n      swap1\n      pop\n        /* \"#utility.yul\":7162:7544   */\n      swap2\n      swap1\n      pop\n      jump\t// out\n        /* \"#utility.yul\":7550:8237   */\n    tag_20:\n        /* \"#utility.yul\":7788:7792   */\n      0x00\n        /* \"#utility.yul\":7826:7828   */\n      0x60\n        /* \"#utility.yul\":7815:7824   */\n      dup3\n        /* \"#utility.yul\":7811:7829   */\n      add\n        /* \"#utility.yul\":7803:7829   */\n      swap1\n      pop\n        /* \"#utility.yul\":7839:7918   */\n      tag_201\n        /* \"#utility.yul\":7915:7916   */\n      0x00\n        /* \"#utility.yul\":7904:7913   */\n      dup4\n        /* \"#utility.yul\":7900:7917   */\n      add\n        /* \"#utility.yul\":7891:7897   */\n      dup6\n        /* \"#utility.yul\":7839:7918   */\n      tag_85\n      jump\t// in\n    tag_201:\n        /* \"#utility.yul\":7928:8016   */\n      tag_202\n        /* \"#utility.yul\":8012:8014   */\n      0x20\n        /* \"#utility.yul\":8001:8010   */\n      dup4\n        /* \"#utility.yul\":7997:8015   */\n      add\n        /* \"#utility.yul\":7988:7994   */\n      dup5\n        /* \"#utility.yul\":7928:8016   */\n      tag_89\n      jump\t// in\n    tag_202:\n        /* \"#utility.yul\":8063:8072   */\n      dup2\n        /* \"#utility.yul\":8057:8061   */\n      dup2\n        /* \"#utility.yul\":8053:8073   */\n      sub\n        /* \"#utility.yul\":8048:8050   */\n      0x40\n        /* \"#utility.yul\":8037:8046   */\n      dup4\n        /* \"#utility.yul\":8033:8051   */\n      add\n        /* \"#utility.yul\":8026:8074   */\n      mstore\n        /* \"#utility.yul\":8091:8230   */\n      tag_203\n        /* \"#utility.yul\":8225:8229   */\n      dup2\n        /* \"#utility.yul\":8091:8230   */\n      tag_92\n      jump\t// in\n    tag_203:\n        /* \"#utility.yul\":8083:8230   */\n      swap1\n      pop\n        /* \"#utility.yul\":7550:8237   */\n      swap4\n      swap3\n      pop\n      pop\n      pop\n      jump\t// out\n        /* \"#utility.yul\":8243:8333   */\n    tag_93:\n        /* \"#utility.yul\":8277:8284   */\n      0x00\n        /* \"#utility.yul\":8320:8325   */\n      dup2\n        /* \"#utility.yul\":8313:8326   */\n      iszero\n        /* \"#utility.yul\":8306:8327   */\n      iszero\n        /* \"#utility.yul\":8295:8327   */\n      swap1\n      pop\n        /* \"#utility.yul\":8243:8333   */\n      swap2\n      swap1\n      pop\n      jump\t// out\n        /* \"#utility.yul\":8339:8455   */\n    tag_94:\n        /* \"#utility.yul\":8409:8430   */\n      tag_206\n        /* \"#utility.yul\":8424:8429   */\n      dup2\n        /* \"#utility.yul\":8409:8430   */\n      tag_93\n      jump\t// in\n    tag_206:\n        /* \"#utility.yul\":8402:8407   */\n      dup2\n        /* \"#utility.yul\":8399:8431   */\n      eq\n        /* \"#utility.yul\":8389:8449   */\n      tag_207\n      jumpi\n        /* \"#utility.yul\":8445:8446   */\n      0x00\n        /* \"#utility.yul\":8442:8443   */\n      dup1\n        /* \"#utility.yul\":8435:8447   */\n      revert\n        /* \"#utility.yul\":8389:8449   */\n    tag_207:\n        /* \"#utility.yul\":8339:8455   */\n      pop\n      jump\t// out\n        /* \"#utility.yul\":8461:8598   */\n    tag_95:\n        /* \"#utility.yul\":8515:8520   */\n      0x00\n        /* \"#utility.yul\":8546:8552   */\n      dup2\n        /* \"#utility.yul\":8540:8553   */\n      mload\n        /* \"#utility.yul\":8531:8553   */\n      swap1\n      pop\n        /* \"#utility.yul\":8562:8592   */\n      tag_209\n        /* \"#utility.yul\":8586:8591   */\n      dup2\n        /* \"#utility.yul\":8562:8592   */\n      tag_94\n      jump\t// in\n    tag_209:\n        /* \"#utility.yul\":8461:8598   */\n      swap3\n      swap2\n      pop\n      pop\n      jump\t// out\n        /* \"#utility.yul\":8604:8949   */\n    tag_24:\n        /* \"#utility.yul\":8671:8677   */\n      0x00\n        /* \"#utility.yul\":8720:8722   */\n      0x20\n        /* \"#utility.yul\":8708:8717   */\n      dup3\n        /* \"#utility.yul\":8699:8706   */\n      dup5\n        /* \"#utility.yul\":8695:8718   */\n      sub\n        /* \"#utility.yul\":8691:8723   */\n      slt\n        /* \"#utility.yul\":8688:8807   */\n      iszero\n      tag_211\n      jumpi\n        /* \"#utility.yul\":8726:8805   */\n      tag_212\n      tag_71\n      jump\t// in\n    tag_212:\n        /* \"#utility.yul\":8688:8807   */\n    tag_211:\n        /* \"#utility.yul\":8846:8847   */\n      0x00\n        /* \"#utility.yul\":8871:8932   */\n      tag_213\n        /* \"#utility.yul\":8924:8931   */\n      dup5\n        /* \"#utility.yul\":8915:8921   */\n      dup3\n        /* \"#utility.yul\":8904:8913   */\n      dup6\n        /* \"#utility.yul\":8900:8922   */\n      add\n        /* \"#utility.yul\":8871:8932   */\n      tag_95\n      jump\t// in\n    tag_213:\n        /* \"#utility.yul\":8861:8932   */\n      swap2\n      pop\n        /* \"#utility.yul\":8817:8942   */\n      pop\n        /* \"#utility.yul\":8604:8949   */\n      swap3\n      swap2\n      pop\n      pop\n      jump\t// out\n        /* \"#utility.yul\":8955:9135   */\n    tag_27:\n        /* \"#utility.yul\":9003:9080   */\n      0x4e487b7100000000000000000000000000000000000000000000000000000000\n        /* \"#utility.yul\":9000:9001   */\n      0x00\n        /* \"#utility.yul\":8993:9081   */\n      mstore\n        /* \"#utility.yul\":9100:9104   */\n      0x32\n        /* \"#utility.yul\":9097:9098   */\n      0x04\n        /* \"#utility.yul\":9090:9105   */\n      mstore\n        /* \"#utility.yul\":9124:9128   */\n      0x24\n        /* \"#utility.yul\":9121:9122   */\n      0x00\n        /* \"#utility.yul\":9114:9129   */\n      revert\n        /* \"#utility.yul\":9141:9534   */\n    tag_96:\n        /* \"#utility.yul\":9237:9240   */\n      0x00\n        /* \"#utility.yul\":9265:9304   */\n      tag_216\n        /* \"#utility.yul\":9298:9303   */\n      dup3\n        /* \"#utility.yul\":9265:9304   */\n      tag_65\n      jump\t// in\n    tag_216:\n        /* \"#utility.yul\":9320:9399   */\n      tag_217\n        /* \"#utility.yul\":9392:9398   */\n      dup2\n        /* \"#utility.yul\":9387:9390   */\n      dup6\n        /* \"#utility.yul\":9320:9399   */\n      tag_90\n      jump\t// in\n    tag_217:\n        /* \"#utility.yul\":9313:9399   */\n      swap4\n      pop\n        /* \"#utility.yul\":9408:9473   */\n      tag_218\n        /* \"#utility.yul\":9466:9472   */\n      dup2\n        /* \"#utility.yul\":9461:9464   */\n      dup6\n        /* \"#utility.yul\":9454:9458   */\n      0x20\n        /* \"#utility.yul\":9447:9452   */\n      dup7\n        /* \"#utility.yul\":9443:9459   */\n      add\n        /* \"#utility.yul\":9408:9473   */\n      tag_67\n      jump\t// in\n    tag_218:\n        /* \"#utility.yul\":9498:9527   */\n      tag_219\n        /* \"#utility.yul\":9520:9526   */\n      dup2\n        /* \"#utility.yul\":9498:9527   */\n      tag_68\n      jump\t// in\n    tag_219:\n        /* \"#utility.yul\":9493:9496   */\n      dup5\n        /* \"#utility.yul\":9489:9528   */\n      add\n        /* \"#utility.yul\":9482:9528   */\n      swap2\n      pop\n        /* \"#utility.yul\":9241:9534   */\n      pop\n        /* \"#utility.yul\":9141:9534   */\n      swap3\n      swap2\n      pop\n      pop\n      jump\t// out\n        /* \"#utility.yul\":9540:9713   */\n    tag_97:\n        /* \"#utility.yul\":9680:9705   */\n      0x546869732069732061207465737420636f6e74656e742e000000000000000000\n        /* \"#utility.yul\":9676:9677   */\n      0x00\n        /* \"#utility.yul\":9668:9674   */\n      dup3\n        /* \"#utility.yul\":9664:9678   */\n      add\n        /* \"#utility.yul\":9657:9706   */\n      mstore\n        /* \"#utility.yul\":9540:9713   */\n      pop\n      jump\t// out\n        /* \"#utility.yul\":9719:10101   */\n    tag_98:\n        /* \"#utility.yul\":9869:9872   */\n      0x00\n        /* \"#utility.yul\":9890:9965   */\n      tag_222\n        /* \"#utility.yul\":9962:9964   */\n      0x17\n        /* \"#utility.yul\":9957:9960   */\n      dup4\n        /* \"#utility.yul\":9890:9965   */\n      tag_90\n      jump\t// in\n    tag_222:\n        /* \"#utility.yul\":9883:9965   */\n      swap2\n      pop\n        /* \"#utility.yul\":9974:10067   */\n      tag_223\n        /* \"#utility.yul\":10063:10066   */\n      dup3\n        /* \"#utility.yul\":9974:10067   */\n      tag_97\n      jump\t// in\n    tag_223:\n        /* \"#utility.yul\":10092:10094   */\n      0x20\n        /* \"#utility.yul\":10087:10090   */\n      dup3\n        /* \"#utility.yul\":10083:10095   */\n      add\n        /* \"#utility.yul\":10076:10095   */\n      swap1\n      pop\n        /* \"#utility.yul\":9719:10101   */\n      swap2\n      swap1\n      pop\n      jump\t// out\n        /* \"#utility.yul\":10107:10330   */\n    tag_99:\n        /* \"#utility.yul\":10247:10281   */\n      0x496e636f727265637420636f6e74656e7420696e207468652066697273742063\n        /* \"#utility.yul\":10243:10244   */\n      0x00\n        /* \"#utility.yul\":10235:10241   */\n      dup3\n        /* \"#utility.yul\":10231:10245   */\n      add\n        /* \"#utility.yul\":10224:10282   */\n      mstore\n        /* \"#utility.yul\":10316:10322   */\n      0x68756e6b00000000000000000000000000000000000000000000000000000000\n        /* \"#utility.yul\":10311:10313   */\n      0x20\n        /* \"#utility.yul\":10303:10309   */\n      dup3\n        /* \"#utility.yul\":10299:10314   */\n      add\n        /* \"#utility.yul\":10292:10323   */\n      mstore\n        /* \"#utility.yul\":10107:10330   */\n      pop\n      jump\t// out\n        /* \"#utility.yul\":10336:10718   */\n    tag_100:\n        /* \"#utility.yul\":10486:10489   */\n      0x00\n        /* \"#utility.yul\":10507:10582   */\n      tag_226\n        /* \"#utility.yul\":10579:10581   */\n      0x24\n        /* \"#utility.yul\":10574:10577   */\n      dup4\n        /* \"#utility.yul\":10507:10582   */\n      tag_90\n      jump\t// in\n    tag_226:\n        /* \"#utility.yul\":10500:10582   */\n      swap2\n      pop\n        /* \"#utility.yul\":10591:10684   */\n      tag_227\n        /* \"#utility.yul\":10680:10683   */\n      dup3\n        /* \"#utility.yul\":10591:10684   */\n      tag_99\n      jump\t// in\n    tag_227:\n        /* \"#utility.yul\":10709:10711   */\n      0x40\n        /* \"#utility.yul\":10704:10707   */\n      dup3\n        /* \"#utility.yul\":10700:10712   */\n      add\n        /* \"#utility.yul\":10693:10712   */\n      swap1\n      pop\n        /* \"#utility.yul\":10336:10718   */\n      swap2\n      swap1\n      pop\n      jump\t// out\n        /* \"#utility.yul\":10724:11683   */\n    tag_29:\n        /* \"#utility.yul\":11047:11051   */\n      0x00\n        /* \"#utility.yul\":11085:11087   */\n      0x60\n        /* \"#utility.yul\":11074:11083   */\n      dup3\n        /* \"#utility.yul\":11070:11088   */\n      add\n        /* \"#utility.yul\":11062:11088   */\n      swap1\n      pop\n        /* \"#utility.yul\":11134:11143   */\n      dup2\n        /* \"#utility.yul\":11128:11132   */\n      dup2\n        /* \"#utility.yul\":11124:11144   */\n      sub\n        /* \"#utility.yul\":11120:11121   */\n      0x00\n        /* \"#utility.yul\":11109:11118   */\n      dup4\n        /* \"#utility.yul\":11105:11122   */\n      add\n        /* \"#utility.yul\":11098:11145   */\n      mstore\n        /* \"#utility.yul\":11162:11248   */\n      tag_229\n        /* \"#utility.yul\":11243:11247   */\n      dup2\n        /* \"#utility.yul\":11234:11240   */\n      dup5\n        /* \"#utility.yul\":11162:11248   */\n      tag_96\n      jump\t// in\n    tag_229:\n        /* \"#utility.yul\":11154:11248   */\n      swap1\n      pop\n        /* \"#utility.yul\":11295:11304   */\n      dup2\n        /* \"#utility.yul\":11289:11293   */\n      dup2\n        /* \"#utility.yul\":11285:11305   */\n      sub\n        /* \"#utility.yul\":11280:11282   */\n      0x20\n        /* \"#utility.yul\":11269:11278   */\n      dup4\n        /* \"#utility.yul\":11265:11283   */\n      add\n        /* \"#utility.yul\":11258:11306   */\n      mstore\n        /* \"#utility.yul\":11323:11462   */\n      tag_230\n        /* \"#utility.yul\":11457:11461   */\n      dup2\n        /* \"#utility.yul\":11323:11462   */\n      tag_98\n      jump\t// in\n    tag_230:\n        /* \"#utility.yul\":11315:11462   */\n      swap1\n      pop\n        /* \"#utility.yul\":11509:11518   */\n      dup2\n        /* \"#utility.yul\":11503:11507   */\n      dup2\n        /* \"#utility.yul\":11499:11519   */\n      sub\n        /* \"#utility.yul\":11494:11496   */\n      0x40\n        /* \"#utility.yul\":11483:11492   */\n      dup4\n        /* \"#utility.yul\":11479:11497   */\n      add\n        /* \"#utility.yul\":11472:11520   */\n      mstore\n        /* \"#utility.yul\":11537:11676   */\n      tag_231\n        /* \"#utility.yul\":11671:11675   */\n      dup2\n        /* \"#utility.yul\":11537:11676   */\n      tag_100\n      jump\t// in\n    tag_231:\n        /* \"#utility.yul\":11529:11676   */\n      swap1\n      pop\n        /* \"#utility.yul\":10724:11683   */\n      swap3\n      swap2\n      pop\n      pop\n      jump\t// out\n        /* \"#utility.yul\":11689:11803   */\n    tag_101:\n      pop\n      jump\t// out\n        /* \"#utility.yul\":11809:12189   */\n    tag_102:\n        /* \"#utility.yul\":11959:11962   */\n      0x00\n        /* \"#utility.yul\":11980:12054   */\n      tag_234\n        /* \"#utility.yul\":12052:12053   */\n      0x00\n        /* \"#utility.yul\":12047:12050   */\n      dup4\n        /* \"#utility.yul\":11980:12054   */\n      tag_90\n      jump\t// in\n    tag_234:\n        /* \"#utility.yul\":11973:12054   */\n      swap2\n      pop\n        /* \"#utility.yul\":12063:12156   */\n      tag_235\n        /* \"#utility.yul\":12152:12155   */\n      dup3\n        /* \"#utility.yul\":12063:12156   */\n      tag_101\n      jump\t// in\n    tag_235:\n        /* \"#utility.yul\":12181:12182   */\n      0x00\n        /* \"#utility.yul\":12176:12179   */\n      dup3\n        /* \"#utility.yul\":12172:12183   */\n      add\n        /* \"#utility.yul\":12165:12183   */\n      swap1\n      pop\n        /* \"#utility.yul\":11809:12189   */\n      swap2\n      swap1\n      pop\n      jump\t// out\n        /* \"#utility.yul\":12195:12373   */\n    tag_103:\n        /* \"#utility.yul\":12335:12365   */\n      0x5365636f6e64206368756e6b2073686f756c6420626520656d70747900000000\n        /* \"#utility.yul\":12331:12332   */\n      0x00\n        /* \"#utility.yul\":12323:12329   */\n      dup3\n        /* \"#utility.yul\":12319:12333   */\n      add\n        /* \"#utility.yul\":12312:12366   */\n      mstore\n        /* \"#utility.yul\":12195:12373   */\n      pop\n      jump\t// out\n        /* \"#utility.yul\":12379:12761   */\n    tag_104:\n        /* \"#utility.yul\":12529:12532   */\n      0x00\n        /* \"#utility.yul\":12550:12625   */\n      tag_238\n        /* \"#utility.yul\":12622:12624   */\n      0x1c\n        /* \"#utility.yul\":12617:12620   */\n      dup4\n        /* \"#utility.yul\":12550:12625   */\n      tag_90\n      jump\t// in\n    tag_238:\n        /* \"#utility.yul\":12543:12625   */\n      swap2\n      pop\n        /* \"#utility.yul\":12634:12727   */\n      tag_239\n        /* \"#utility.yul\":12723:12726   */\n      dup3\n        /* \"#utility.yul\":12634:12727   */\n      tag_103\n      jump\t// in\n    tag_239:\n        /* \"#utility.yul\":12752:12754   */\n      0x20\n        /* \"#utility.yul\":12747:12750   */\n      dup3\n        /* \"#utility.yul\":12743:12755   */\n      add\n        /* \"#utility.yul\":12736:12755   */\n      swap1\n      pop\n        /* \"#utility.yul\":12379:12761   */\n      swap2\n      swap1\n      pop\n      jump\t// out\n        /* \"#utility.yul\":12767:13726   */\n    tag_36:\n        /* \"#utility.yul\":13090:13094   */\n      0x00\n        /* \"#utility.yul\":13128:13130   */\n      0x60\n        /* \"#utility.yul\":13117:13126   */\n      dup3\n        /* \"#utility.yul\":13113:13131   */\n      add\n        /* \"#utility.yul\":13105:13131   */\n      swap1\n      pop\n        /* \"#utility.yul\":13177:13186   */\n      dup2\n        /* \"#utility.yul\":13171:13175   */\n      dup2\n        /* \"#utility.yul\":13167:13187   */\n      sub\n        /* \"#utility.yul\":13163:13164   */\n      0x00\n        /* \"#utility.yul\":13152:13161   */\n      dup4\n        /* \"#utility.yul\":13148:13165   */\n      add\n        /* \"#utility.yul\":13141:13188   */\n      mstore\n        /* \"#utility.yul\":13205:13291   */\n      tag_241\n        /* \"#utility.yul\":13286:13290   */\n      dup2\n        /* \"#utility.yul\":13277:13283   */\n      dup5\n        /* \"#utility.yul\":13205:13291   */\n      tag_96\n      jump\t// in\n    tag_241:\n        /* \"#utility.yul\":13197:13291   */\n      swap1\n      pop\n        /* \"#utility.yul\":13338:13347   */\n      dup2\n        /* \"#utility.yul\":13332:13336   */\n      dup2\n        /* \"#utility.yul\":13328:13348   */\n      sub\n        /* \"#utility.yul\":13323:13325   */\n      0x20\n        /* \"#utility.yul\":13312:13321   */\n      dup4\n        /* \"#utility.yul\":13308:13326   */\n      add\n        /* \"#utility.yul\":13301:13349   */\n      mstore\n        /* \"#utility.yul\":13366:13505   */\n      tag_242\n        /* \"#utility.yul\":13500:13504   */\n      dup2\n        /* \"#utility.yul\":13366:13505   */\n      tag_102\n      jump\t// in\n    tag_242:\n        /* \"#utility.yul\":13358:13505   */\n      swap1\n      pop\n        /* \"#utility.yul\":13552:13561   */\n      dup2\n        /* \"#utility.yul\":13546:13550   */\n      dup2\n        /* \"#utility.yul\":13542:13562   */\n      sub\n        /* \"#utility.yul\":13537:13539   */\n      0x40\n        /* \"#utility.yul\":13526:13535   */\n      dup4\n        /* \"#utility.yul\":13522:13540   */\n      add\n        /* \"#utility.yul\":13515:13563   */\n      mstore\n        /* \"#utility.yul\":13580:13719   */\n      tag_243\n        /* \"#utility.yul\":13714:13718   */\n      dup2\n        /* \"#utility.yul\":13580:13719   */\n      tag_104\n      jump\t// in\n    tag_243:\n        /* \"#utility.yul\":13572:13719   */\n      swap1\n      pop\n        /* \"#utility.yul\":12767:13726   */\n      swap3\n      swap2\n      pop\n      pop\n      jump\t// out\n        /* \"#utility.yul\":13732:13856   */\n    tag_105:\n        /* \"#utility.yul\":13809:13815   */\n      0x00\n        /* \"#utility.yul\":13843:13848   */\n      dup2\n        /* \"#utility.yul\":13837:13849   */\n      mload\n        /* \"#utility.yul\":13827:13849   */\n      swap1\n      pop\n        /* \"#utility.yul\":13732:13856   */\n      swap2\n      swap1\n      pop\n      jump\t// out\n        /* \"#utility.yul\":13862:14056   */\n    tag_106:\n        /* \"#utility.yul\":13971:13982   */\n      0x00\n        /* \"#utility.yul\":14005:14011   */\n      dup3\n        /* \"#utility.yul\":14000:14003   */\n      dup3\n        /* \"#utility.yul\":13993:14012   */\n      mstore\n        /* \"#utility.yul\":14045:14049   */\n      0x20\n        /* \"#utility.yul\":14040:14043   */\n      dup3\n        /* \"#utility.yul\":14036:14050   */\n      add\n        /* \"#utility.yul\":14021:14050   */\n      swap1\n      pop\n        /* \"#utility.yul\":13862:14056   */\n      swap3\n      swap2\n      pop\n      pop\n      jump\t// out\n        /* \"#utility.yul\":14062:14204   */\n    tag_107:\n        /* \"#utility.yul\":14139:14143   */\n      0x00\n        /* \"#utility.yul\":14162:14165   */\n      dup2\n        /* \"#utility.yul\":14154:14165   */\n      swap1\n      pop\n        /* \"#utility.yul\":14192:14196   */\n      0x20\n        /* \"#utility.yul\":14187:14190   */\n      dup3\n        /* \"#utility.yul\":14183:14197   */\n      add\n        /* \"#utility.yul\":14175:14197   */\n      swap1\n      pop\n        /* \"#utility.yul\":14062:14204   */\n      swap2\n      swap1\n      pop\n      jump\t// out\n        /* \"#utility.yul\":14210:14369   */\n    tag_108:\n        /* \"#utility.yul\":14284:14295   */\n      0x00\n        /* \"#utility.yul\":14318:14324   */\n      dup3\n        /* \"#utility.yul\":14313:14316   */\n      dup3\n        /* \"#utility.yul\":14306:14325   */\n      mstore\n        /* \"#utility.yul\":14358:14362   */\n      0x20\n        /* \"#utility.yul\":14353:14356   */\n      dup3\n        /* \"#utility.yul\":14349:14363   */\n      add\n        /* \"#utility.yul\":14334:14363   */\n      swap1\n      pop\n        /* \"#utility.yul\":14210:14369   */\n      swap3\n      swap2\n      pop\n      pop\n      jump\t// out\n        /* \"#utility.yul\":14375:14732   */\n    tag_109:\n        /* \"#utility.yul\":14453:14456   */\n      0x00\n        /* \"#utility.yul\":14481:14520   */\n      tag_249\n        /* \"#utility.yul\":14514:14519   */\n      dup3\n        /* \"#utility.yul\":14481:14520   */\n      tag_65\n      jump\t// in\n    tag_249:\n        /* \"#utility.yul\":14536:14597   */\n      tag_250\n        /* \"#utility.yul\":14590:14596   */\n      dup2\n        /* \"#utility.yul\":14585:14588   */\n      dup6\n        /* \"#utility.yul\":14536:14597   */\n      tag_108\n      jump\t// in\n    tag_250:\n        /* \"#utility.yul\":14529:14597   */\n      swap4\n      pop\n        /* \"#utility.yul\":14606:14671   */\n      tag_251\n        /* \"#utility.yul\":14664:14670   */\n      dup2\n        /* \"#utility.yul\":14659:14662   */\n      dup6\n        /* \"#utility.yul\":14652:14656   */\n      0x20\n        /* \"#utility.yul\":14645:14650   */\n      dup7\n        /* \"#utility.yul\":14641:14657   */\n      add\n        /* \"#utility.yul\":14606:14671   */\n      tag_67\n      jump\t// in\n    tag_251:\n        /* \"#utility.yul\":14696:14725   */\n      tag_252\n        /* \"#utility.yul\":14718:14724   */\n      dup2\n        /* \"#utility.yul\":14696:14725   */\n      tag_68\n      jump\t// in\n    tag_252:\n        /* \"#utility.yul\":14691:14694   */\n      dup5\n        /* \"#utility.yul\":14687:14726   */\n      add\n        /* \"#utility.yul\":14680:14726   */\n      swap2\n      pop\n        /* \"#utility.yul\":14457:14732   */\n      pop\n        /* \"#utility.yul\":14375:14732   */\n      swap3\n      swap2\n      pop\n      pop\n      jump\t// out\n        /* \"#utility.yul\":14738:14934   */\n    tag_110:\n        /* \"#utility.yul\":14827:14837   */\n      0x00\n        /* \"#utility.yul\":14862:14928   */\n      tag_254\n        /* \"#utility.yul\":14924:14927   */\n      dup4\n        /* \"#utility.yul\":14916:14922   */\n      dup4\n        /* \"#utility.yul\":14862:14928   */\n      tag_109\n      jump\t// in\n    tag_254:\n        /* \"#utility.yul\":14848:14928   */\n      swap1\n      pop\n        /* \"#utility.yul\":14738:14934   */\n      swap3\n      swap2\n      pop\n      pop\n      jump\t// out\n        /* \"#utility.yul\":14940:15063   */\n    tag_111:\n        /* \"#utility.yul\":15020:15024   */\n      0x00\n        /* \"#utility.yul\":15052:15056   */\n      0x20\n        /* \"#utility.yul\":15047:15050   */\n      dup3\n        /* \"#utility.yul\":15043:15057   */\n      add\n        /* \"#utility.yul\":15035:15057   */\n      swap1\n      pop\n        /* \"#utility.yul\":14940:15063   */\n      swap2\n      swap1\n      pop\n      jump\t// out\n        /* \"#utility.yul\":15097:16088   */\n    tag_112:\n        /* \"#utility.yul\":15236:15239   */\n      0x00\n        /* \"#utility.yul\":15265:15329   */\n      tag_257\n        /* \"#utility.yul\":15323:15328   */\n      dup3\n        /* \"#utility.yul\":15265:15329   */\n      tag_105\n      jump\t// in\n    tag_257:\n        /* \"#utility.yul\":15345:15441   */\n      tag_258\n        /* \"#utility.yul\":15434:15440   */\n      dup2\n        /* \"#utility.yul\":15429:15432   */\n      dup6\n        /* \"#utility.yul\":15345:15441   */\n      tag_106\n      jump\t// in\n    tag_258:\n        /* \"#utility.yul\":15338:15441   */\n      swap4\n      pop\n        /* \"#utility.yul\":15467:15470   */\n      dup4\n        /* \"#utility.yul\":15512:15516   */\n      0x20\n        /* \"#utility.yul\":15504:15510   */\n      dup3\n        /* \"#utility.yul\":15500:15517   */\n      mul\n        /* \"#utility.yul\":15495:15498   */\n      dup6\n        /* \"#utility.yul\":15491:15518   */\n      add\n        /* \"#utility.yul\":15542:15608   */\n      tag_259\n        /* \"#utility.yul\":15602:15607   */\n      dup6\n        /* \"#utility.yul\":15542:15608   */\n      tag_107\n      jump\t// in\n    tag_259:\n        /* \"#utility.yul\":15631:15638   */\n      dup1\n        /* \"#utility.yul\":15662:15663   */\n      0x00\n        /* \"#utility.yul\":15647:16043   */\n    tag_260:\n        /* \"#utility.yul\":15672:15678   */\n      dup6\n        /* \"#utility.yul\":15669:15670   */\n      dup2\n        /* \"#utility.yul\":15666:15679   */\n      lt\n        /* \"#utility.yul\":15647:16043   */\n      iszero\n      tag_262\n      jumpi\n        /* \"#utility.yul\":15743:15752   */\n      dup5\n        /* \"#utility.yul\":15737:15741   */\n      dup5\n        /* \"#utility.yul\":15733:15753   */\n      sub\n        /* \"#utility.yul\":15728:15731   */\n      dup10\n        /* \"#utility.yul\":15721:15754   */\n      mstore\n        /* \"#utility.yul\":15794:15800   */\n      dup2\n        /* \"#utility.yul\":15788:15801   */\n      mload\n        /* \"#utility.yul\":15822:15906   */\n      tag_263\n        /* \"#utility.yul\":15901:15905   */\n      dup6\n        /* \"#utility.yul\":15886:15899   */\n      dup3\n        /* \"#utility.yul\":15822:15906   */\n      tag_110\n      jump\t// in\n    tag_263:\n        /* \"#utility.yul\":15814:15906   */\n      swap5\n      pop\n        /* \"#utility.yul\":15929:15999   */\n      tag_264\n        /* \"#utility.yul\":15992:15998   */\n      dup4\n        /* \"#utility.yul\":15929:15999   */\n      tag_111\n      jump\t// in\n    tag_264:\n        /* \"#utility.yul\":15919:15999   */\n      swap3\n      pop\n        /* \"#utility.yul\":16028:16032   */\n      0x20\n        /* \"#utility.yul\":16023:16026   */\n      dup11\n        /* \"#utility.yul\":16019:16033   */\n      add\n        /* \"#utility.yul\":16012:16033   */\n      swap10\n      pop\n        /* \"#utility.yul\":15707:16043   */\n      pop\n        /* \"#utility.yul\":15694:15695   */\n      0x01\n        /* \"#utility.yul\":15691:15692   */\n      dup2\n        /* \"#utility.yul\":15687:15696   */\n      add\n        /* \"#utility.yul\":15682:15696   */\n      swap1\n      pop\n        /* \"#utility.yul\":15647:16043   */\n      jump(tag_260)\n    tag_262:\n        /* \"#utility.yul\":15651:15665   */\n      pop\n        /* \"#utility.yul\":16059:16063   */\n      dup3\n        /* \"#utility.yul\":16052:16063   */\n      swap8\n      pop\n        /* \"#utility.yul\":16079:16082   */\n      dup8\n        /* \"#utility.yul\":16072:16082   */\n      swap6\n      pop\n        /* \"#utility.yul\":15241:16088   */\n      pop\n      pop\n      pop\n      pop\n      pop\n        /* \"#utility.yul\":15097:16088   */\n      swap3\n      swap2\n      pop\n      pop\n      jump\t// out\n        /* \"#utility.yul\":16094:16507   */\n    tag_55:\n        /* \"#utility.yul\":16257:16261   */\n      0x00\n        /* \"#utility.yul\":16295:16297   */\n      0x20\n        /* \"#utility.yul\":16284:16293   */\n      dup3\n        /* \"#utility.yul\":16280:16298   */\n      add\n        /* \"#utility.yul\":16272:16298   */\n      swap1\n      pop\n        /* \"#utility.yul\":16344:16353   */\n      dup2\n        /* \"#utility.yul\":16338:16342   */\n      dup2\n        /* \"#utility.yul\":16334:16354   */\n      sub\n        /* \"#utility.yul\":16330:16331   */\n      0x00\n        /* \"#utility.yul\":16319:16328   */\n      dup4\n        /* \"#utility.yul\":16315:16332   */\n      add\n        /* \"#utility.yul\":16308:16355   */\n      mstore\n        /* \"#utility.yul\":16372:16500   */\n      tag_266\n        /* \"#utility.yul\":16495:16499   */\n      dup2\n        /* \"#utility.yul\":16486:16492   */\n      dup5\n        /* \"#utility.yul\":16372:16500   */\n      tag_112\n      jump\t// in\n    tag_266:\n        /* \"#utility.yul\":16364:16500   */\n      swap1\n      pop\n        /* \"#utility.yul\":16094:16507   */\n      swap3\n      swap2\n      pop\n      pop\n      jump\t// out\n        /* \"#utility.yul\":16513:17037   */\n    tag_59:\n        /* \"#utility.yul\":16593:16599   */\n      0x00\n        /* \"#utility.yul\":16642:16644   */\n      0x20\n        /* \"#utility.yul\":16630:16639   */\n      dup3\n        /* \"#utility.yul\":16621:16628   */\n      dup5\n        /* \"#utility.yul\":16617:16640   */\n      sub\n        /* \"#utility.yul\":16613:16645   */\n      slt\n        /* \"#utility.yul\":16610:16729   */\n      iszero\n      tag_268\n      jumpi\n        /* \"#utility.yul\":16648:16727   */\n      tag_269\n      tag_71\n      jump\t// in\n    tag_269:\n        /* \"#utility.yul\":16610:16729   */\n    tag_268:\n        /* \"#utility.yul\":16789:16790   */\n      0x00\n        /* \"#utility.yul\":16778:16787   */\n      dup3\n        /* \"#utility.yul\":16774:16791   */\n      add\n        /* \"#utility.yul\":16768:16792   */\n      mload\n        /* \"#utility.yul\":16819:16837   */\n      0xffffffffffffffff\n        /* \"#utility.yul\":16811:16817   */\n      dup2\n        /* \"#utility.yul\":16808:16838   */\n      gt\n        /* \"#utility.yul\":16805:16922   */\n      iszero\n      tag_270\n      jumpi\n        /* \"#utility.yul\":16841:16920   */\n      tag_271\n      tag_72\n      jump\t// in\n    tag_271:\n        /* \"#utility.yul\":16805:16922   */\n    tag_270:\n        /* \"#utility.yul\":16946:17020   */\n      tag_272\n        /* \"#utility.yul\":17012:17019   */\n      dup5\n        /* \"#utility.yul\":17003:17009   */\n      dup3\n        /* \"#utility.yul\":16992:17001   */\n      dup6\n        /* \"#utility.yul\":16988:17010   */\n      add\n        /* \"#utility.yul\":16946:17020   */\n      tag_81\n      jump\t// in\n    tag_272:\n        /* \"#utility.yul\":16936:17020   */\n      swap2\n      pop\n        /* \"#utility.yul\":16739:17030   */\n      pop\n        /* \"#utility.yul\":16513:17037   */\n      swap3\n      swap2\n      pop\n      pop\n      jump\t// out\n        /* \"#utility.yul\":17043:17208   */\n    tag_113:\n        /* \"#utility.yul\":17183:17200   */\n      0x54686973206973206120746573742e0000000000000000000000000000000000\n        /* \"#utility.yul\":17179:17180   */\n      0x00\n        /* \"#utility.yul\":17171:17177   */\n      dup3\n        /* \"#utility.yul\":17167:17181   */\n      add\n        /* \"#utility.yul\":17160:17201   */\n      mstore\n        /* \"#utility.yul\":17043:17208   */\n      pop\n      jump\t// out\n        /* \"#utility.yul\":17214:17596   */\n    tag_114:\n        /* \"#utility.yul\":17364:17367   */\n      0x00\n        /* \"#utility.yul\":17385:17460   */\n      tag_275\n        /* \"#utility.yul\":17457:17459   */\n      0x0f\n        /* \"#utility.yul\":17452:17455   */\n      dup4\n        /* \"#utility.yul\":17385:17460   */\n      tag_90\n      jump\t// in\n    tag_275:\n        /* \"#utility.yul\":17378:17460   */\n      swap2\n      pop\n        /* \"#utility.yul\":17469:17562   */\n      tag_276\n        /* \"#utility.yul\":17558:17561   */\n      dup3\n        /* \"#utility.yul\":17469:17562   */\n      tag_113\n      jump\t// in\n    tag_276:\n        /* \"#utility.yul\":17587:17589   */\n      0x20\n        /* \"#utility.yul\":17582:17585   */\n      dup3\n        /* \"#utility.yul\":17578:17590   */\n      add\n        /* \"#utility.yul\":17571:17590   */\n      swap1\n      pop\n        /* \"#utility.yul\":17214:17596   */\n      swap2\n      swap1\n      pop\n      jump\t// out\n        /* \"#utility.yul\":17602:17782   */\n    tag_115:\n        /* \"#utility.yul\":17742:17774   */\n      0x496e636f727265637420636f6e636174656e6174656420636f6e74656e740000\n        /* \"#utility.yul\":17738:17739   */\n      0x00\n        /* \"#utility.yul\":17730:17736   */\n      dup3\n        /* \"#utility.yul\":17726:17740   */\n      add\n        /* \"#utility.yul\":17719:17775   */\n      mstore\n        /* \"#utility.yul\":17602:17782   */\n      pop\n      jump\t// out\n        /* \"#utility.yul\":17788:18170   */\n    tag_116:\n        /* \"#utility.yul\":17938:17941   */\n      0x00\n        /* \"#utility.yul\":17959:18034   */\n      tag_279\n        /* \"#utility.yul\":18031:18033   */\n      0x1e\n        /* \"#utility.yul\":18026:18029   */\n      dup4\n        /* \"#utility.yul\":17959:18034   */\n      tag_90\n      jump\t// in\n    tag_279:\n        /* \"#utility.yul\":17952:18034   */\n      swap2\n      pop\n        /* \"#utility.yul\":18043:18136   */\n      tag_280\n        /* \"#utility.yul\":18132:18135   */\n      dup3\n        /* \"#utility.yul\":18043:18136   */\n      tag_115\n      jump\t// in\n    tag_280:\n        /* \"#utility.yul\":18161:18163   */\n      0x20\n        /* \"#utility.yul\":18156:18159   */\n      dup3\n        /* \"#utility.yul\":18152:18164   */\n      add\n        /* \"#utility.yul\":18145:18164   */\n      swap1\n      pop\n        /* \"#utility.yul\":17788:18170   */\n      swap2\n      swap1\n      pop\n      jump\t// out\n        /* \"#utility.yul\":18176:19135   */\n    tag_61:\n        /* \"#utility.yul\":18499:18503   */\n      0x00\n        /* \"#utility.yul\":18537:18539   */\n      0x60\n        /* \"#utility.yul\":18526:18535   */\n      dup3\n        /* \"#utility.yul\":18522:18540   */\n      add\n        /* \"#utility.yul\":18514:18540   */\n      swap1\n      pop\n        /* \"#utility.yul\":18586:18595   */\n      dup2\n        /* \"#utility.yul\":18580:18584   */\n      dup2\n        /* \"#utility.yul\":18576:18596   */\n      sub\n        /* \"#utility.yul\":18572:18573   */\n      0x00\n        /* \"#utility.yul\":18561:18570   */\n      dup4\n        /* \"#utility.yul\":18557:18574   */\n      add\n        /* \"#utility.yul\":18550:18597   */\n      mstore\n        /* \"#utility.yul\":18614:18700   */\n      tag_282\n        /* \"#utility.yul\":18695:18699   */\n      dup2\n        /* \"#utility.yul\":18686:18692   */\n      dup5\n        /* \"#utility.yul\":18614:18700   */\n      tag_96\n      jump\t// in\n    tag_282:\n        /* \"#utility.yul\":18606:18700   */\n      swap1\n      pop\n        /* \"#utility.yul\":18747:18756   */\n      dup2\n        /* \"#utility.yul\":18741:18745   */\n      dup2\n        /* \"#utility.yul\":18737:18757   */\n      sub\n        /* \"#utility.yul\":18732:18734   */\n      0x20\n        /* \"#utility.yul\":18721:18730   */\n      dup4\n        /* \"#utility.yul\":18717:18735   */\n      add\n        /* \"#utility.yul\":18710:18758   */\n      mstore\n        /* \"#utility.yul\":18775:18914   */\n      tag_283\n        /* \"#utility.yul\":18909:18913   */\n      dup2\n        /* \"#utility.yul\":18775:18914   */\n      tag_114\n      jump\t// in\n    tag_283:\n        /* \"#utility.yul\":18767:18914   */\n      swap1\n      pop\n        /* \"#utility.yul\":18961:18970   */\n      dup2\n        /* \"#utility.yul\":18955:18959   */\n      dup2\n        /* \"#utility.yul\":18951:18971   */\n      sub\n        /* \"#utility.yul\":18946:18948   */\n      0x40\n        /* \"#utility.yul\":18935:18944   */\n      dup4\n        /* \"#utility.yul\":18931:18949   */\n      add\n        /* \"#utility.yul\":18924:18972   */\n      mstore\n        /* \"#utility.yul\":18989:19128   */\n      tag_284\n        /* \"#utility.yul\":19123:19127   */\n      dup2\n        /* \"#utility.yul\":18989:19128   */\n      tag_116\n      jump\t// in\n    tag_284:\n        /* \"#utility.yul\":18981:19128   */\n      swap1\n      pop\n        /* \"#utility.yul\":18176:19135   */\n      swap3\n      swap2\n      pop\n      pop\n      jump\t// out\n    stop\n\n    sub_0: assembly {\n            /* \"contracts/_ChunkManager.sol\":64:1527  contract ChunkManager {... */\n          mstore(0x40, 0x80)\n          callvalue\n          dup1\n          iszero\n          tag_1\n          jumpi\n          0x00\n          dup1\n          revert\n        tag_1:\n          pop\n          dataSize(sub_0)\n          dup1\n          dataOffset(sub_0)\n          0x00\n          codecopy\n          0x00\n          return\n        stop\n\n        sub_0: assembly {\n                /* \"contracts/_ChunkManager.sol\":64:1527  contract ChunkManager {... */\n              mstore(0x40, 0x80)\n              callvalue\n              dup1\n              iszero\n              tag_1\n              jumpi\n              0x00\n              dup1\n              revert\n            tag_1:\n              pop\n              jumpi(tag_2, lt(calldatasize, 0x04))\n              shr(0xe0, calldataload(0x00))\n              dup1\n              0x1f37bdd2\n              eq\n              tag_3\n              jumpi\n              dup1\n              0x57d7f21f\n              eq\n              tag_4\n              jumpi\n            tag_2:\n              0x00\n              dup1\n              revert\n                /* \"contracts/_ChunkManager.sol\":92:882  function chunkContent(string memory content) public pure returns (string[] memory) {... */\n            tag_3:\n              tag_5\n              0x04\n              dup1\n              calldatasize\n              sub\n              dup2\n              add\n              swap1\n              tag_6\n              swap2\n              swap1\n              tag_7\n              jump\t// in\n            tag_6:\n              tag_8\n              jump\t// in\n            tag_5:\n              mload(0x40)\n              tag_9\n              swap2\n              swap1\n              tag_10\n              jump\t// in\n            tag_9:\n              mload(0x40)\n              dup1\n              swap2\n              sub\n              swap1\n              return\n                /* \"contracts/_ChunkManager.sol\":890:1524  function concatenateChunks(string[] memory chunks) public pure returns (string memory) {... */\n            tag_4:\n              tag_11\n              0x04\n              dup1\n              calldatasize\n              sub\n              dup2\n              add\n              swap1\n              tag_12\n              swap2\n              swap1\n              tag_13\n              jump\t// in\n            tag_12:\n              tag_14\n              jump\t// in\n            tag_11:\n              mload(0x40)\n              tag_15\n              swap2\n              swap1\n              tag_16\n              jump\t// in\n            tag_15:\n              mload(0x40)\n              dup1\n              swap2\n              sub\n              swap1\n              return\n                /* \"contracts/_ChunkManager.sol\":92:882  function chunkContent(string memory content) public pure returns (string[] memory) {... */\n            tag_8:\n                /* \"contracts/_ChunkManager.sol\":158:173  string[] memory */\n              0x60\n                /* \"contracts/_ChunkManager.sol\":186:203  uint256 chunkSize */\n              0x00\n                /* \"contracts/_ChunkManager.sol\":206:208  32 */\n              0x20\n                /* \"contracts/_ChunkManager.sol\":186:208  uint256 chunkSize = 32 */\n              swap1\n              pop\n                /* \"contracts/_ChunkManager.sol\":219:236  uint256 numChunks */\n              0x00\n                /* \"contracts/_ChunkManager.sol\":281:290  chunkSize */\n              dup2\n                /* \"contracts/_ChunkManager.sol\":276:277  1 */\n              0x01\n                /* \"contracts/_ChunkManager.sol\":264:273  chunkSize */\n              dup4\n                /* \"contracts/_ChunkManager.sol\":246:253  content */\n              dup7\n                /* \"contracts/_ChunkManager.sol\":240:261  bytes(content).length */\n              mload\n                /* \"contracts/_ChunkManager.sol\":240:273  bytes(content).length + chunkSize */\n              tag_18\n              swap2\n              swap1\n              tag_19\n              jump\t// in\n            tag_18:\n                /* \"contracts/_ChunkManager.sol\":240:277  bytes(content).length + chunkSize - 1 */\n              tag_20\n              swap2\n              swap1\n              tag_21\n              jump\t// in\n            tag_20:\n                /* \"contracts/_ChunkManager.sol\":239:290  (bytes(content).length + chunkSize - 1) / chunkSize */\n              tag_22\n              swap2\n              swap1\n              tag_23\n              jump\t// in\n            tag_22:\n                /* \"contracts/_ChunkManager.sol\":219:290  uint256 numChunks = (bytes(content).length + chunkSize - 1) / chunkSize */\n              swap1\n              pop\n                /* \"contracts/_ChunkManager.sol\":301:323  string[] memory chunks */\n              0x00\n                /* \"contracts/_ChunkManager.sol\":339:348  numChunks */\n              dup2\n                /* \"contracts/_ChunkManager.sol\":326:349  new string[](numChunks) */\n              0xffffffffffffffff\n              dup2\n              gt\n              iszero\n              tag_24\n              jumpi\n              tag_25\n              tag_26\n              jump\t// in\n            tag_25:\n            tag_24:\n              mload(0x40)\n              swap1\n              dup1\n              dup3\n              mstore\n              dup1\n              0x20\n              mul\n              0x20\n              add\n              dup3\n              add\n              0x40\n              mstore\n              dup1\n              iszero\n              tag_27\n              jumpi\n              dup2\n              0x20\n              add\n            tag_28:\n              0x60\n              dup2\n              mstore\n              0x20\n              add\n              swap1\n              0x01\n              swap1\n              sub\n              swap1\n              dup2\n              tag_28\n              jumpi\n              swap1\n              pop\n            tag_27:\n              pop\n                /* \"contracts/_ChunkManager.sol\":301:349  string[] memory chunks = new string[](numChunks) */\n              swap1\n              pop\n                /* \"contracts/_ChunkManager.sol\":367:376  uint256 i */\n              0x00\n                /* \"contracts/_ChunkManager.sol\":362:849  for (uint256 i = 0; i < numChunks; i++) {... */\n            tag_29:\n                /* \"contracts/_ChunkManager.sol\":386:395  numChunks */\n              dup3\n                /* \"contracts/_ChunkManager.sol\":382:383  i */\n              dup2\n                /* \"contracts/_ChunkManager.sol\":382:395  i < numChunks */\n              lt\n                /* \"contracts/_ChunkManager.sol\":362:849  for (uint256 i = 0; i < numChunks; i++) {... */\n              iszero\n              tag_30\n              jumpi\n                /* \"contracts/_ChunkManager.sol\":417:430  uint256 start */\n              0x00\n                /* \"contracts/_ChunkManager.sol\":437:446  chunkSize */\n              dup5\n                /* \"contracts/_ChunkManager.sol\":433:434  i */\n              dup3\n                /* \"contracts/_ChunkManager.sol\":433:446  i * chunkSize */\n              tag_32\n              swap2\n              swap1\n              tag_33\n              jump\t// in\n            tag_32:\n                /* \"contracts/_ChunkManager.sol\":417:446  uint256 start = i * chunkSize */\n              swap1\n              pop\n                /* \"contracts/_ChunkManager.sol\":461:472  uint256 end */\n              0x00\n                /* \"contracts/_ChunkManager.sol\":483:492  chunkSize */\n              dup6\n                /* \"contracts/_ChunkManager.sol\":475:480  start */\n              dup3\n                /* \"contracts/_ChunkManager.sol\":475:492  start + chunkSize */\n              tag_34\n              swap2\n              swap1\n              tag_19\n              jump\t// in\n            tag_34:\n                /* \"contracts/_ChunkManager.sol\":461:492  uint256 end = start + chunkSize */\n              swap1\n              pop\n                /* \"contracts/_ChunkManager.sol\":523:530  content */\n              dup8\n                /* \"contracts/_ChunkManager.sol\":517:538  bytes(content).length */\n              mload\n                /* \"contracts/_ChunkManager.sol\":511:514  end */\n              dup2\n                /* \"contracts/_ChunkManager.sol\":511:538  end > bytes(content).length */\n              gt\n                /* \"contracts/_ChunkManager.sol\":507:602  if (end > bytes(content).length) {... */\n              iszero\n              tag_35\n              jumpi\n                /* \"contracts/_ChunkManager.sol\":571:578  content */\n              dup8\n                /* \"contracts/_ChunkManager.sol\":565:586  bytes(content).length */\n              mload\n                /* \"contracts/_ChunkManager.sol\":559:586  end = bytes(content).length */\n              swap1\n              pop\n                /* \"contracts/_ChunkManager.sol\":507:602  if (end > bytes(content).length) {... */\n            tag_35:\n                /* \"contracts/_ChunkManager.sol\":616:639  bytes memory chunkBytes */\n              0x00\n                /* \"contracts/_ChunkManager.sol\":658:663  start */\n              dup3\n                /* \"contracts/_ChunkManager.sol\":652:655  end */\n              dup3\n                /* \"contracts/_ChunkManager.sol\":652:663  end - start */\n              tag_36\n              swap2\n              swap1\n              tag_21\n              jump\t// in\n            tag_36:\n                /* \"contracts/_ChunkManager.sol\":642:664  new bytes(end - start) */\n              0xffffffffffffffff\n              dup2\n              gt\n              iszero\n              tag_37\n              jumpi\n              tag_38\n              tag_26\n              jump\t// in\n            tag_38:\n            tag_37:\n              mload(0x40)\n              swap1\n              dup1\n              dup3\n              mstore\n              dup1\n              0x1f\n              add\n              not(0x1f)\n              and\n              0x20\n              add\n              dup3\n              add\n              0x40\n              mstore\n              dup1\n              iszero\n              tag_39\n              jumpi\n              dup2\n              0x20\n              add\n              0x01\n              dup3\n              mul\n              dup1\n              calldatasize\n              dup4\n              calldatacopy\n              dup1\n              dup3\n              add\n              swap2\n              pop\n              pop\n              swap1\n              pop\n            tag_39:\n              pop\n                /* \"contracts/_ChunkManager.sol\":616:664  bytes memory chunkBytes = new bytes(end - start) */\n              swap1\n              pop\n                /* \"contracts/_ChunkManager.sol\":684:693  uint256 j */\n              0x00\n                /* \"contracts/_ChunkManager.sol\":696:701  start */\n              dup4\n                /* \"contracts/_ChunkManager.sol\":684:701  uint256 j = start */\n              swap1\n              pop\n                /* \"contracts/_ChunkManager.sol\":679:793  for (uint256 j = start; j < end; j++) {... */\n            tag_40:\n                /* \"contracts/_ChunkManager.sol\":707:710  end */\n              dup3\n                /* \"contracts/_ChunkManager.sol\":703:704  j */\n              dup2\n                /* \"contracts/_ChunkManager.sol\":703:710  j < end */\n              lt\n                /* \"contracts/_ChunkManager.sol\":679:793  for (uint256 j = start; j < end; j++) {... */\n              iszero\n              tag_41\n              jumpi\n                /* \"contracts/_ChunkManager.sol\":766:773  content */\n              dup10\n                /* \"contracts/_ChunkManager.sol\":775:776  j */\n              dup2\n                /* \"contracts/_ChunkManager.sol\":760:777  bytes(content)[j] */\n              dup2\n              mload\n              dup2\n              lt\n              tag_43\n              jumpi\n              tag_44\n              tag_45\n              jump\t// in\n            tag_44:\n            tag_43:\n              0x20\n              add\n              add\n              mload\n              0xf8\n              shr\n              0xf8\n              shl\n                /* \"contracts/_ChunkManager.sol\":736:746  chunkBytes */\n              dup3\n                /* \"contracts/_ChunkManager.sol\":751:756  start */\n              dup6\n                /* \"contracts/_ChunkManager.sol\":747:748  j */\n              dup4\n                /* \"contracts/_ChunkManager.sol\":747:756  j - start */\n              tag_46\n              swap2\n              swap1\n              tag_21\n              jump\t// in\n            tag_46:\n                /* \"contracts/_ChunkManager.sol\":736:757  chunkBytes[j - start] */\n              dup2\n              mload\n              dup2\n              lt\n              tag_47\n              jumpi\n              tag_48\n              tag_45\n              jump\t// in\n            tag_48:\n            tag_47:\n              0x20\n              add\n              add\n                /* \"contracts/_ChunkManager.sol\":736:777  chunkBytes[j - start] = bytes(content)[j] */\n              swap1\n              not(0xffffffffffffffffffffffffffffffffffffffffffffffffffffffffffffff)\n              and\n              swap1\n              dup2\n              0x00\n              byte\n              swap1\n              mstore8\n              pop\n                /* \"contracts/_ChunkManager.sol\":712:715  j++ */\n              dup1\n              dup1\n              0x01\n              add\n              swap2\n              pop\n              pop\n                /* \"contracts/_ChunkManager.sol\":679:793  for (uint256 j = start; j < end; j++) {... */\n              jump(tag_40)\n            tag_41:\n              pop\n                /* \"contracts/_ChunkManager.sol\":826:836  chunkBytes */\n              dup1\n                /* \"contracts/_ChunkManager.sol\":807:813  chunks */\n              dup6\n                /* \"contracts/_ChunkManager.sol\":814:815  i */\n              dup6\n                /* \"contracts/_ChunkManager.sol\":807:816  chunks[i] */\n              dup2\n              mload\n              dup2\n              lt\n              tag_49\n              jumpi\n              tag_50\n              tag_45\n              jump\t// in\n            tag_50:\n            tag_49:\n              0x20\n              mul\n              0x20\n              add\n              add\n                /* \"contracts/_ChunkManager.sol\":807:837  chunks[i] = string(chunkBytes) */\n              dup2\n              swap1\n              mstore\n              pop\n                /* \"contracts/_ChunkManager.sol\":402:849  {... */\n              pop\n              pop\n              pop\n                /* \"contracts/_ChunkManager.sol\":397:400  i++ */\n              dup1\n              dup1\n              0x01\n              add\n              swap2\n              pop\n              pop\n                /* \"contracts/_ChunkManager.sol\":362:849  for (uint256 i = 0; i < numChunks; i++) {... */\n              jump(tag_29)\n            tag_30:\n              pop\n                /* \"contracts/_ChunkManager.sol\":868:874  chunks */\n              dup1\n                /* \"contracts/_ChunkManager.sol\":861:874  return chunks */\n              swap4\n              pop\n              pop\n              pop\n              pop\n                /* \"contracts/_ChunkManager.sol\":92:882  function chunkContent(string memory content) public pure returns (string[] memory) {... */\n              swap2\n              swap1\n              pop\n              jump\t// out\n                /* \"contracts/_ChunkManager.sol\":890:1524  function concatenateChunks(string[] memory chunks) public pure returns (string memory) {... */\n            tag_14:\n                /* \"contracts/_ChunkManager.sol\":962:975  string memory */\n              0x60\n                /* \"contracts/_ChunkManager.sol\":988:1007  uint256 totalLength */\n              0x00\n                /* \"contracts/_ChunkManager.sol\":1027:1036  uint256 i */\n              dup1\n                /* \"contracts/_ChunkManager.sol\":1022:1131  for (uint256 i = 0; i < chunks.length; i++) {... */\n            tag_52:\n                /* \"contracts/_ChunkManager.sol\":1046:1052  chunks */\n              dup4\n                /* \"contracts/_ChunkManager.sol\":1046:1059  chunks.length */\n              mload\n                /* \"contracts/_ChunkManager.sol\":1042:1043  i */\n              dup2\n                /* \"contracts/_ChunkManager.sol\":1042:1059  i < chunks.length */\n              lt\n                /* \"contracts/_ChunkManager.sol\":1022:1131  for (uint256 i = 0; i < chunks.length; i++) {... */\n              iszero\n              tag_53\n              jumpi\n                /* \"contracts/_ChunkManager.sol\":1102:1108  chunks */\n              dup4\n                /* \"contracts/_ChunkManager.sol\":1109:1110  i */\n              dup2\n                /* \"contracts/_ChunkManager.sol\":1102:1111  chunks[i] */\n              dup2\n              mload\n              dup2\n              lt\n              tag_55\n              jumpi\n              tag_56\n              tag_45\n              jump\t// in\n            tag_56:\n            tag_55:\n              0x20\n              mul\n              0x20\n              add\n              add\n              mload\n                /* \"contracts/_ChunkManager.sol\":1096:1119  bytes(chunks[i]).length */\n              mload\n                /* \"contracts/_ChunkManager.sol\":1081:1119  totalLength += bytes(chunks[i]).length */\n              dup3\n              tag_57\n              swap2\n              swap1\n              tag_19\n              jump\t// in\n            tag_57:\n              swap2\n              pop\n                /* \"contracts/_ChunkManager.sol\":1061:1064  i++ */\n              dup1\n              dup1\n              0x01\n              add\n              swap2\n              pop\n              pop\n                /* \"contracts/_ChunkManager.sol\":1022:1131  for (uint256 i = 0; i < chunks.length; i++) {... */\n              jump(tag_52)\n            tag_53:\n              pop\n                /* \"contracts/_ChunkManager.sol\":1143:1162  bytes memory result */\n              0x00\n                /* \"contracts/_ChunkManager.sol\":1175:1186  totalLength */\n              dup2\n                /* \"contracts/_ChunkManager.sol\":1165:1187  new bytes(totalLength) */\n              0xffffffffffffffff\n              dup2\n              gt\n              iszero\n              tag_58\n              jumpi\n              tag_59\n              tag_26\n              jump\t// in\n            tag_59:\n            tag_58:\n              mload(0x40)\n              swap1\n              dup1\n              dup3\n              mstore\n              dup1\n              0x1f\n              add\n              not(0x1f)\n              and\n              0x20\n              add\n              dup3\n              add\n              0x40\n              mstore\n              dup1\n              iszero\n              tag_60\n              jumpi\n              dup2\n              0x20\n              add\n              0x01\n              dup3\n              mul\n              dup1\n              calldatasize\n              dup4\n              calldatacopy\n              dup1\n              dup3\n              add\n              swap2\n              pop\n              pop\n              swap1\n              pop\n            tag_60:\n              pop\n                /* \"contracts/_ChunkManager.sol\":1143:1187  bytes memory result = new bytes(totalLength) */\n              swap1\n              pop\n                /* \"contracts/_ChunkManager.sol\":1198:1218  uint256 currentIndex */\n              0x00\n                /* \"contracts/_ChunkManager.sol\":1240:1249  uint256 i */\n              dup1\n                /* \"contracts/_ChunkManager.sol\":1235:1483  for (uint256 i = 0; i < chunks.length; i++) {... */\n            tag_61:\n                /* \"contracts/_ChunkManager.sol\":1259:1265  chunks */\n              dup6\n                /* \"contracts/_ChunkManager.sol\":1259:1272  chunks.length */\n              mload\n                /* \"contracts/_ChunkManager.sol\":1255:1256  i */\n              dup2\n                /* \"contracts/_ChunkManager.sol\":1255:1272  i < chunks.length */\n              lt\n                /* \"contracts/_ChunkManager.sol\":1235:1483  for (uint256 i = 0; i < chunks.length; i++) {... */\n              iszero\n              tag_62\n              jumpi\n                /* \"contracts/_ChunkManager.sol\":1294:1317  bytes memory chunkBytes */\n              0x00\n                /* \"contracts/_ChunkManager.sol\":1326:1332  chunks */\n              dup7\n                /* \"contracts/_ChunkManager.sol\":1333:1334  i */\n              dup3\n                /* \"contracts/_ChunkManager.sol\":1326:1335  chunks[i] */\n              dup2\n              mload\n              dup2\n              lt\n              tag_64\n              jumpi\n              tag_65\n              tag_45\n              jump\t// in\n            tag_65:\n            tag_64:\n              0x20\n              mul\n              0x20\n              add\n              add\n              mload\n                /* \"contracts/_ChunkManager.sol\":1294:1336  bytes memory chunkBytes = bytes(chunks[i]) */\n              swap1\n              pop\n                /* \"contracts/_ChunkManager.sol\":1356:1365  uint256 j */\n              0x00\n                /* \"contracts/_ChunkManager.sol\":1351:1472  for (uint256 j = 0; j < chunkBytes.length; j++) {... */\n            tag_66:\n                /* \"contracts/_ChunkManager.sol\":1375:1385  chunkBytes */\n              dup2\n                /* \"contracts/_ChunkManager.sol\":1375:1392  chunkBytes.length */\n              mload\n                /* \"contracts/_ChunkManager.sol\":1371:1372  j */\n              dup2\n                /* \"contracts/_ChunkManager.sol\":1371:1392  j < chunkBytes.length */\n              lt\n                /* \"contracts/_ChunkManager.sol\":1351:1472  for (uint256 j = 0; j < chunkBytes.length; j++) {... */\n              iszero\n              tag_67\n              jumpi\n                /* \"contracts/_ChunkManager.sol\":1443:1453  chunkBytes */\n              dup2\n                /* \"contracts/_ChunkManager.sol\":1454:1455  j */\n              dup2\n                /* \"contracts/_ChunkManager.sol\":1443:1456  chunkBytes[j] */\n              dup2\n              mload\n              dup2\n              lt\n              tag_69\n              jumpi\n              tag_70\n              tag_45\n              jump\t// in\n            tag_70:\n            tag_69:\n              0x20\n              add\n              add\n              mload\n              0xf8\n              shr\n              0xf8\n              shl\n                /* \"contracts/_ChunkManager.sol\":1418:1424  result */\n              dup6\n                /* \"contracts/_ChunkManager.sol\":1425:1439  currentIndex++ */\n              dup6\n              dup1\n              tag_71\n              swap1\n              tag_72\n              jump\t// in\n            tag_71:\n              swap7\n              pop\n                /* \"contracts/_ChunkManager.sol\":1418:1440  result[currentIndex++] */\n              dup2\n              mload\n              dup2\n              lt\n              tag_73\n              jumpi\n              tag_74\n              tag_45\n              jump\t// in\n            tag_74:\n            tag_73:\n              0x20\n              add\n              add\n                /* \"contracts/_ChunkManager.sol\":1418:1456  result[currentIndex++] = chunkBytes[j] */\n              swap1\n              not(0xffffffffffffffffffffffffffffffffffffffffffffffffffffffffffffff)\n              and\n              swap1\n              dup2\n              0x00\n              byte\n              swap1\n              mstore8\n              pop\n                /* \"contracts/_ChunkManager.sol\":1394:1397  j++ */\n              dup1\n              dup1\n              0x01\n              add\n              swap2\n              pop\n              pop\n                /* \"contracts/_ChunkManager.sol\":1351:1472  for (uint256 j = 0; j < chunkBytes.length; j++) {... */\n              jump(tag_66)\n            tag_67:\n              pop\n                /* \"contracts/_ChunkManager.sol\":1279:1483  {... */\n              pop\n                /* \"contracts/_ChunkManager.sol\":1274:1277  i++ */\n              dup1\n              dup1\n              0x01\n              add\n              swap2\n              pop\n              pop\n                /* \"contracts/_ChunkManager.sol\":1235:1483  for (uint256 i = 0; i < chunks.length; i++) {... */\n              jump(tag_61)\n            tag_62:\n              pop\n                /* \"contracts/_ChunkManager.sol\":1509:1515  result */\n              dup2\n                /* \"contracts/_ChunkManager.sol\":1495:1516  return string(result) */\n              swap4\n              pop\n              pop\n              pop\n              pop\n                /* \"contracts/_ChunkManager.sol\":890:1524  function concatenateChunks(string[] memory chunks) public pure returns (string memory) {... */\n              swap2\n              swap1\n              pop\n              jump\t// out\n                /* \"#utility.yul\":7:82   */\n            tag_75:\n                /* \"#utility.yul\":40:46   */\n              0x00\n                /* \"#utility.yul\":73:75   */\n              0x40\n                /* \"#utility.yul\":67:76   */\n              mload\n                /* \"#utility.yul\":57:76   */\n              swap1\n              pop\n                /* \"#utility.yul\":7:82   */\n              swap1\n              jump\t// out\n                /* \"#utility.yul\":88:205   */\n            tag_76:\n                /* \"#utility.yul\":197:198   */\n              0x00\n                /* \"#utility.yul\":194:195   */\n              dup1\n                /* \"#utility.yul\":187:199   */\n              revert\n                /* \"#utility.yul\":211:328   */\n            tag_77:\n                /* \"#utility.yul\":320:321   */\n              0x00\n                /* \"#utility.yul\":317:318   */\n              dup1\n                /* \"#utility.yul\":310:322   */\n              revert\n                /* \"#utility.yul\":334:451   */\n            tag_78:\n                /* \"#utility.yul\":443:444   */\n              0x00\n                /* \"#utility.yul\":440:441   */\n              dup1\n                /* \"#utility.yul\":433:445   */\n              revert\n                /* \"#utility.yul\":457:574   */\n            tag_79:\n                /* \"#utility.yul\":566:567   */\n              0x00\n                /* \"#utility.yul\":563:564   */\n              dup1\n                /* \"#utility.yul\":556:568   */\n              revert\n                /* \"#utility.yul\":580:682   */\n            tag_80:\n                /* \"#utility.yul\":621:627   */\n              0x00\n                /* \"#utility.yul\":672:674   */\n              0x1f\n                /* \"#utility.yul\":668:675   */\n              not\n                /* \"#utility.yul\":663:665   */\n              0x1f\n                /* \"#utility.yul\":656:661   */\n              dup4\n                /* \"#utility.yul\":652:666   */\n              add\n                /* \"#utility.yul\":648:676   */\n              and\n                /* \"#utility.yul\":638:676   */\n              swap1\n              pop\n                /* \"#utility.yul\":580:682   */\n              swap2\n              swap1\n              pop\n              jump\t// out\n                /* \"#utility.yul\":688:868   */\n            tag_26:\n                /* \"#utility.yul\":736:813   */\n              0x4e487b7100000000000000000000000000000000000000000000000000000000\n                /* \"#utility.yul\":733:734   */\n              0x00\n                /* \"#utility.yul\":726:814   */\n              mstore\n                /* \"#utility.yul\":833:837   */\n              0x41\n                /* \"#utility.yul\":830:831   */\n              0x04\n                /* \"#utility.yul\":823:838   */\n              mstore\n                /* \"#utility.yul\":857:861   */\n              0x24\n                /* \"#utility.yul\":854:855   */\n              0x00\n                /* \"#utility.yul\":847:862   */\n              revert\n                /* \"#utility.yul\":874:1155   */\n            tag_81:\n                /* \"#utility.yul\":957:984   */\n              tag_115\n                /* \"#utility.yul\":979:983   */\n              dup3\n                /* \"#utility.yul\":957:984   */\n              tag_80\n              jump\t// in\n            tag_115:\n                /* \"#utility.yul\":949:955   */\n              dup2\n                /* \"#utility.yul\":945:985   */\n              add\n                /* \"#utility.yul\":1087:1093   */\n              dup2\n                /* \"#utility.yul\":1075:1085   */\n              dup2\n                /* \"#utility.yul\":1072:1094   */\n              lt\n                /* \"#utility.yul\":1051:1069   */\n              0xffffffffffffffff\n                /* \"#utility.yul\":1039:1049   */\n              dup3\n                /* \"#utility.yul\":1036:1070   */\n              gt\n                /* \"#utility.yul\":1033:1095   */\n              or\n                /* \"#utility.yul\":1030:1118   */\n              iszero\n              tag_116\n              jumpi\n                /* \"#utility.yul\":1098:1116   */\n              tag_117\n              tag_26\n              jump\t// in\n            tag_117:\n                /* \"#utility.yul\":1030:1118   */\n            tag_116:\n                /* \"#utility.yul\":1138:1148   */\n              dup1\n                /* \"#utility.yul\":1134:1136   */\n              0x40\n                /* \"#utility.yul\":1127:1149   */\n              mstore\n                /* \"#utility.yul\":917:1155   */\n              pop\n                /* \"#utility.yul\":874:1155   */\n              pop\n              pop\n              jump\t// out\n                /* \"#utility.yul\":1161:1290   */\n            tag_82:\n                /* \"#utility.yul\":1195:1201   */\n              0x00\n                /* \"#utility.yul\":1222:1242   */\n              tag_119\n              tag_75\n              jump\t// in\n            tag_119:\n                /* \"#utility.yul\":1212:1242   */\n              swap1\n              pop\n                /* \"#utility.yul\":1251:1284   */\n              tag_120\n                /* \"#utility.yul\":1279:1283   */\n              dup3\n                /* \"#utility.yul\":1271:1277   */\n              dup3\n                /* \"#utility.yul\":1251:1284   */\n              tag_81\n              jump\t// in\n            tag_120:\n                /* \"#utility.yul\":1161:1290   */\n              swap2\n              swap1\n              pop\n              jump\t// out\n                /* \"#utility.yul\":1296:1604   */\n            tag_83:\n                /* \"#utility.yul\":1358:1362   */\n              0x00\n                /* \"#utility.yul\":1448:1466   */\n              0xffffffffffffffff\n                /* \"#utility.yul\":1440:1446   */\n              dup3\n                /* \"#utility.yul\":1437:1467   */\n              gt\n                /* \"#utility.yul\":1434:1490   */\n              iszero\n              tag_122\n              jumpi\n                /* \"#utility.yul\":1470:1488   */\n              tag_123\n              tag_26\n              jump\t// in\n            tag_123:\n                /* \"#utility.yul\":1434:1490   */\n            tag_122:\n                /* \"#utility.yul\":1508:1537   */\n              tag_124\n                /* \"#utility.yul\":1530:1536   */\n              dup3\n                /* \"#utility.yul\":1508:1537   */\n              tag_80\n              jump\t// in\n            tag_124:\n                /* \"#utility.yul\":1500:1537   */\n              swap1\n              pop\n                /* \"#utility.yul\":1592:1596   */\n              0x20\n                /* \"#utility.yul\":1586:1590   */\n              dup2\n                /* \"#utility.yul\":1582:1597   */\n              add\n                /* \"#utility.yul\":1574:1597   */\n              swap1\n              pop\n                /* \"#utility.yul\":1296:1604   */\n              swap2\n              swap1\n              pop\n              jump\t// out\n                /* \"#utility.yul\":1610:1756   */\n            tag_84:\n                /* \"#utility.yul\":1707:1713   */\n              dup3\n                /* \"#utility.yul\":1702:1705   */\n              dup2\n                /* \"#utility.yul\":1697:1700   */\n              dup4\n                /* \"#utility.yul\":1684:1714   */\n              calldatacopy\n                /* \"#utility.yul\":1748:1749   */\n              0x00\n                /* \"#utility.yul\":1739:1745   */\n              dup4\n                /* \"#utility.yul\":1734:1737   */\n              dup4\n                /* \"#utility.yul\":1730:1746   */\n              add\n                /* \"#utility.yul\":1723:1750   */\n              mstore\n                /* \"#utility.yul\":1610:1756   */\n              pop\n              pop\n              pop\n              jump\t// out\n                /* \"#utility.yul\":1762:2187   */\n            tag_85:\n                /* \"#utility.yul\":1840:1845   */\n              0x00\n                /* \"#utility.yul\":1865:1931   */\n              tag_127\n                /* \"#utility.yul\":1881:1930   */\n              tag_128\n                /* \"#utility.yul\":1923:1929   */\n              dup5\n                /* \"#utility.yul\":1881:1930   */\n              tag_83\n              jump\t// in\n            tag_128:\n                /* \"#utility.yul\":1865:1931   */\n              tag_82\n              jump\t// in\n            tag_127:\n                /* \"#utility.yul\":1856:1931   */\n              swap1\n              pop\n                /* \"#utility.yul\":1954:1960   */\n              dup3\n                /* \"#utility.yul\":1947:1952   */\n              dup2\n                /* \"#utility.yul\":1940:1961   */\n              mstore\n                /* \"#utility.yul\":1992:1996   */\n              0x20\n                /* \"#utility.yul\":1985:1990   */\n              dup2\n                /* \"#utility.yul\":1981:1997   */\n              add\n                /* \"#utility.yul\":2030:2033   */\n              dup5\n                /* \"#utility.yul\":2021:2027   */\n              dup5\n                /* \"#utility.yul\":2016:2019   */\n              dup5\n                /* \"#utility.yul\":2012:2028   */\n              add\n                /* \"#utility.yul\":2009:2034   */\n              gt\n                /* \"#utility.yul\":2006:2118   */\n              iszero\n              tag_129\n              jumpi\n                /* \"#utility.yul\":2037:2116   */\n              tag_130\n              tag_79\n              jump\t// in\n            tag_130:\n                /* \"#utility.yul\":2006:2118   */\n            tag_129:\n                /* \"#utility.yul\":2127:2181   */\n              tag_131\n                /* \"#utility.yul\":2174:2180   */\n              dup5\n                /* \"#utility.yul\":2169:2172   */\n              dup3\n                /* \"#utility.yul\":2164:2167   */\n              dup6\n                /* \"#utility.yul\":2127:2181   */\n              tag_84\n              jump\t// in\n            tag_131:\n                /* \"#utility.yul\":1846:2187   */\n              pop\n                /* \"#utility.yul\":1762:2187   */\n              swap4\n              swap3\n              pop\n              pop\n              pop\n              jump\t// out\n                /* \"#utility.yul\":2207:2547   */\n            tag_86:\n                /* \"#utility.yul\":2263:2268   */\n              0x00\n                /* \"#utility.yul\":2312:2315   */\n              dup3\n                /* \"#utility.yul\":2305:2309   */\n              0x1f\n                /* \"#utility.yul\":2297:2303   */\n              dup4\n                /* \"#utility.yul\":2293:2310   */\n              add\n                /* \"#utility.yul\":2289:2316   */\n              slt\n                /* \"#utility.yul\":2279:2401   */\n              tag_133\n              jumpi\n                /* \"#utility.yul\":2320:2399   */\n              tag_134\n              tag_78\n              jump\t// in\n            tag_134:\n                /* \"#utility.yul\":2279:2401   */\n            tag_133:\n                /* \"#utility.yul\":2437:2443   */\n              dup2\n                /* \"#utility.yul\":2424:2444   */\n              calldataload\n                /* \"#utility.yul\":2462:2541   */\n              tag_135\n                /* \"#utility.yul\":2537:2540   */\n              dup5\n                /* \"#utility.yul\":2529:2535   */\n              dup3\n                /* \"#utility.yul\":2522:2526   */\n              0x20\n                /* \"#utility.yul\":2514:2520   */\n              dup7\n                /* \"#utility.yul\":2510:2527   */\n              add\n                /* \"#utility.yul\":2462:2541   */\n              tag_85\n              jump\t// in\n            tag_135:\n                /* \"#utility.yul\":2453:2541   */\n              swap2\n              pop\n                /* \"#utility.yul\":2269:2547   */\n              pop\n                /* \"#utility.yul\":2207:2547   */\n              swap3\n              swap2\n              pop\n              pop\n              jump\t// out\n                /* \"#utility.yul\":2553:3062   */\n            tag_7:\n                /* \"#utility.yul\":2622:2628   */\n              0x00\n                /* \"#utility.yul\":2671:2673   */\n              0x20\n                /* \"#utility.yul\":2659:2668   */\n              dup3\n                /* \"#utility.yul\":2650:2657   */\n              dup5\n                /* \"#utility.yul\":2646:2669   */\n              sub\n                /* \"#utility.yul\":2642:2674   */\n              slt\n                /* \"#utility.yul\":2639:2758   */\n              iszero\n              tag_137\n              jumpi\n                /* \"#utility.yul\":2677:2756   */\n              tag_138\n              tag_76\n              jump\t// in\n            tag_138:\n                /* \"#utility.yul\":2639:2758   */\n            tag_137:\n                /* \"#utility.yul\":2825:2826   */\n              0x00\n                /* \"#utility.yul\":2814:2823   */\n              dup3\n                /* \"#utility.yul\":2810:2827   */\n              add\n                /* \"#utility.yul\":2797:2828   */\n              calldataload\n                /* \"#utility.yul\":2855:2873   */\n              0xffffffffffffffff\n                /* \"#utility.yul\":2847:2853   */\n              dup2\n                /* \"#utility.yul\":2844:2874   */\n              gt\n                /* \"#utility.yul\":2841:2958   */\n              iszero\n              tag_139\n              jumpi\n                /* \"#utility.yul\":2877:2956   */\n              tag_140\n              tag_77\n              jump\t// in\n            tag_140:\n                /* \"#utility.yul\":2841:2958   */\n            tag_139:\n                /* \"#utility.yul\":2982:3045   */\n              tag_141\n                /* \"#utility.yul\":3037:3044   */\n              dup5\n                /* \"#utility.yul\":3028:3034   */\n              dup3\n                /* \"#utility.yul\":3017:3026   */\n              dup6\n                /* \"#utility.yul\":3013:3035   */\n              add\n                /* \"#utility.yul\":2982:3045   */\n              tag_86\n              jump\t// in\n            tag_141:\n                /* \"#utility.yul\":2972:3045   */\n              swap2\n              pop\n                /* \"#utility.yul\":2768:3055   */\n              pop\n                /* \"#utility.yul\":2553:3062   */\n              swap3\n              swap2\n              pop\n              pop\n              jump\t// out\n                /* \"#utility.yul\":3068:3192   */\n            tag_87:\n                /* \"#utility.yul\":3145:3151   */\n              0x00\n                /* \"#utility.yul\":3179:3184   */\n              dup2\n                /* \"#utility.yul\":3173:3185   */\n              mload\n                /* \"#utility.yul\":3163:3185   */\n              swap1\n              pop\n                /* \"#utility.yul\":3068:3192   */\n              swap2\n              swap1\n              pop\n              jump\t// out\n                /* \"#utility.yul\":3198:3392   */\n            tag_88:\n                /* \"#utility.yul\":3307:3318   */\n              0x00\n                /* \"#utility.yul\":3341:3347   */\n              dup3\n                /* \"#utility.yul\":3336:3339   */\n              dup3\n                /* \"#utility.yul\":3329:3348   */\n              mstore\n                /* \"#utility.yul\":3381:3385   */\n              0x20\n                /* \"#utility.yul\":3376:3379   */\n              dup3\n                /* \"#utility.yul\":3372:3386   */\n              add\n                /* \"#utility.yul\":3357:3386   */\n              swap1\n              pop\n                /* \"#utility.yul\":3198:3392   */\n              swap3\n              swap2\n              pop\n              pop\n              jump\t// out\n                /* \"#utility.yul\":3398:3540   */\n            tag_89:\n                /* \"#utility.yul\":3475:3479   */\n              0x00\n                /* \"#utility.yul\":3498:3501   */\n              dup2\n                /* \"#utility.yul\":3490:3501   */\n              swap1\n              pop\n                /* \"#utility.yul\":3528:3532   */\n              0x20\n                /* \"#utility.yul\":3523:3526   */\n              dup3\n                /* \"#utility.yul\":3519:3533   */\n              add\n                /* \"#utility.yul\":3511:3533   */\n              swap1\n              pop\n                /* \"#utility.yul\":3398:3540   */\n              swap2\n              swap1\n              pop\n              jump\t// out\n                /* \"#utility.yul\":3546:3645   */\n            tag_90:\n                /* \"#utility.yul\":3598:3604   */\n              0x00\n                /* \"#utility.yul\":3632:3637   */\n              dup2\n                /* \"#utility.yul\":3626:3638   */\n              mload\n                /* \"#utility.yul\":3616:3638   */\n              swap1\n              pop\n                /* \"#utility.yul\":3546:3645   */\n              swap2\n              swap1\n              pop\n              jump\t// out\n                /* \"#utility.yul\":3651:3810   */\n            tag_91:\n                /* \"#utility.yul\":3725:3736   */\n              0x00\n                /* \"#utility.yul\":3759:3765   */\n              dup3\n                /* \"#utility.yul\":3754:3757   */\n              dup3\n                /* \"#utility.yul\":3747:3766   */\n              mstore\n                /* \"#utility.yul\":3799:3803   */\n              0x20\n                /* \"#utility.yul\":3794:3797   */\n              dup3\n                /* \"#utility.yul\":3790:3804   */\n              add\n                /* \"#utility.yul\":3775:3804   */\n              swap1\n              pop\n                /* \"#utility.yul\":3651:3810   */\n              swap3\n              swap2\n              pop\n              pop\n              jump\t// out\n                /* \"#utility.yul\":3816:4062   */\n            tag_92:\n                /* \"#utility.yul\":3897:3898   */\n              0x00\n                /* \"#utility.yul\":3907:4020   */\n            tag_148:\n                /* \"#utility.yul\":3921:3927   */\n              dup4\n                /* \"#utility.yul\":3918:3919   */\n              dup2\n                /* \"#utility.yul\":3915:3928   */\n              lt\n                /* \"#utility.yul\":3907:4020   */\n              iszero\n              tag_150\n              jumpi\n                /* \"#utility.yul\":4006:4007   */\n              dup1\n                /* \"#utility.yul\":4001:4004   */\n              dup3\n                /* \"#utility.yul\":3997:4008   */\n              add\n                /* \"#utility.yul\":3991:4009   */\n              mload\n                /* \"#utility.yul\":3987:3988   */\n              dup2\n                /* \"#utility.yul\":3982:3985   */\n              dup5\n                /* \"#utility.yul\":3978:3989   */\n              add\n                /* \"#utility.yul\":3971:4010   */\n              mstore\n                /* \"#utility.yul\":3943:3945   */\n              0x20\n                /* \"#utility.yul\":3940:3941   */\n              dup2\n                /* \"#utility.yul\":3936:3946   */\n              add\n                /* \"#utility.yul\":3931:3946   */\n              swap1\n              pop\n                /* \"#utility.yul\":3907:4020   */\n              jump(tag_148)\n            tag_150:\n                /* \"#utility.yul\":4054:4055   */\n              0x00\n                /* \"#utility.yul\":4045:4051   */\n              dup5\n                /* \"#utility.yul\":4040:4043   */\n              dup5\n                /* \"#utility.yul\":4036:4052   */\n              add\n                /* \"#utility.yul\":4029:4056   */\n              mstore\n                /* \"#utility.yul\":3878:4062   */\n              pop\n                /* \"#utility.yul\":3816:4062   */\n              pop\n              pop\n              pop\n              jump\t// out\n                /* \"#utility.yul\":4068:4425   */\n            tag_93:\n                /* \"#utility.yul\":4146:4149   */\n              0x00\n                /* \"#utility.yul\":4174:4213   */\n              tag_152\n                /* \"#utility.yul\":4207:4212   */\n              dup3\n                /* \"#utility.yul\":4174:4213   */\n              tag_90\n              jump\t// in\n            tag_152:\n                /* \"#utility.yul\":4229:4290   */\n              tag_153\n                /* \"#utility.yul\":4283:4289   */\n              dup2\n                /* \"#utility.yul\":4278:4281   */\n              dup6\n                /* \"#utility.yul\":4229:4290   */\n              tag_91\n              jump\t// in\n            tag_153:\n                /* \"#utility.yul\":4222:4290   */\n              swap4\n              pop\n                /* \"#utility.yul\":4299:4364   */\n              tag_154\n                /* \"#utility.yul\":4357:4363   */\n              dup2\n                /* \"#utility.yul\":4352:4355   */\n              dup6\n                /* \"#utility.yul\":4345:4349   */\n              0x20\n                /* \"#utility.yul\":4338:4343   */\n              dup7\n                /* \"#utility.yul\":4334:4350   */\n              add\n                /* \"#utility.yul\":4299:4364   */\n              tag_92\n              jump\t// in\n            tag_154:\n                /* \"#utility.yul\":4389:4418   */\n              tag_155\n                /* \"#utility.yul\":4411:4417   */\n              dup2\n                /* \"#utility.yul\":4389:4418   */\n              tag_80\n              jump\t// in\n            tag_155:\n                /* \"#utility.yul\":4384:4387   */\n              dup5\n                /* \"#utility.yul\":4380:4419   */\n              add\n                /* \"#utility.yul\":4373:4419   */\n              swap2\n              pop\n                /* \"#utility.yul\":4150:4425   */\n              pop\n                /* \"#utility.yul\":4068:4425   */\n              swap3\n              swap2\n              pop\n              pop\n              jump\t// out\n                /* \"#utility.yul\":4431:4627   */\n            tag_94:\n                /* \"#utility.yul\":4520:4530   */\n              0x00\n                /* \"#utility.yul\":4555:4621   */\n              tag_157\n                /* \"#utility.yul\":4617:4620   */\n              dup4\n                /* \"#utility.yul\":4609:4615   */\n              dup4\n                /* \"#utility.yul\":4555:4621   */\n              tag_93\n              jump\t// in\n            tag_157:\n                /* \"#utility.yul\":4541:4621   */\n              swap1\n              pop\n                /* \"#utility.yul\":4431:4627   */\n              swap3\n              swap2\n              pop\n              pop\n              jump\t// out\n                /* \"#utility.yul\":4633:4756   */\n            tag_95:\n                /* \"#utility.yul\":4713:4717   */\n              0x00\n                /* \"#utility.yul\":4745:4749   */\n              0x20\n                /* \"#utility.yul\":4740:4743   */\n              dup3\n                /* \"#utility.yul\":4736:4750   */\n              add\n                /* \"#utility.yul\":4728:4750   */\n              swap1\n              pop\n                /* \"#utility.yul\":4633:4756   */\n              swap2\n              swap1\n              pop\n              jump\t// out\n                /* \"#utility.yul\":4790:5781   */\n            tag_96:\n                /* \"#utility.yul\":4929:4932   */\n              0x00\n                /* \"#utility.yul\":4958:5022   */\n              tag_160\n                /* \"#utility.yul\":5016:5021   */\n              dup3\n                /* \"#utility.yul\":4958:5022   */\n              tag_87\n              jump\t// in\n            tag_160:\n                /* \"#utility.yul\":5038:5134   */\n              tag_161\n                /* \"#utility.yul\":5127:5133   */\n              dup2\n                /* \"#utility.yul\":5122:5125   */\n              dup6\n                /* \"#utility.yul\":5038:5134   */\n              tag_88\n              jump\t// in\n            tag_161:\n                /* \"#utility.yul\":5031:5134   */\n              swap4\n              pop\n                /* \"#utility.yul\":5160:5163   */\n              dup4\n                /* \"#utility.yul\":5205:5209   */\n              0x20\n                /* \"#utility.yul\":5197:5203   */\n              dup3\n                /* \"#utility.yul\":5193:5210   */\n              mul\n                /* \"#utility.yul\":5188:5191   */\n              dup6\n                /* \"#utility.yul\":5184:5211   */\n              add\n                /* \"#utility.yul\":5235:5301   */\n              tag_162\n                /* \"#utility.yul\":5295:5300   */\n              dup6\n                /* \"#utility.yul\":5235:5301   */\n              tag_89\n              jump\t// in\n            tag_162:\n                /* \"#utility.yul\":5324:5331   */\n              dup1\n                /* \"#utility.yul\":5355:5356   */\n              0x00\n                /* \"#utility.yul\":5340:5736   */\n            tag_163:\n                /* \"#utility.yul\":5365:5371   */\n              dup6\n                /* \"#utility.yul\":5362:5363   */\n              dup2\n                /* \"#utility.yul\":5359:5372   */\n              lt\n                /* \"#utility.yul\":5340:5736   */\n              iszero\n              tag_165\n              jumpi\n                /* \"#utility.yul\":5436:5445   */\n              dup5\n                /* \"#utility.yul\":5430:5434   */\n              dup5\n                /* \"#utility.yul\":5426:5446   */\n              sub\n                /* \"#utility.yul\":5421:5424   */\n              dup10\n                /* \"#utility.yul\":5414:5447   */\n              mstore\n                /* \"#utility.yul\":5487:5493   */\n              dup2\n                /* \"#utility.yul\":5481:5494   */\n              mload\n                /* \"#utility.yul\":5515:5599   */\n              tag_166\n                /* \"#utility.yul\":5594:5598   */\n              dup6\n                /* \"#utility.yul\":5579:5592   */\n              dup3\n                /* \"#utility.yul\":5515:5599   */\n              tag_94\n              jump\t// in\n            tag_166:\n                /* \"#utility.yul\":5507:5599   */\n              swap5\n              pop\n                /* \"#utility.yul\":5622:5692   */\n              tag_167\n                /* \"#utility.yul\":5685:5691   */\n              dup4\n                /* \"#utility.yul\":5622:5692   */\n              tag_95\n              jump\t// in\n            tag_167:\n                /* \"#utility.yul\":5612:5692   */\n              swap3\n              pop\n                /* \"#utility.yul\":5721:5725   */\n              0x20\n                /* \"#utility.yul\":5716:5719   */\n              dup11\n                /* \"#utility.yul\":5712:5726   */\n              add\n                /* \"#utility.yul\":5705:5726   */\n              swap10\n              pop\n                /* \"#utility.yul\":5400:5736   */\n              pop\n                /* \"#utility.yul\":5387:5388   */\n              0x01\n                /* \"#utility.yul\":5384:5385   */\n              dup2\n                /* \"#utility.yul\":5380:5389   */\n              add\n                /* \"#utility.yul\":5375:5389   */\n              swap1\n              pop\n                /* \"#utility.yul\":5340:5736   */\n              jump(tag_163)\n            tag_165:\n                /* \"#utility.yul\":5344:5358   */\n              pop\n                /* \"#utility.yul\":5752:5756   */\n              dup3\n                /* \"#utility.yul\":5745:5756   */\n              swap8\n              pop\n                /* \"#utility.yul\":5772:5775   */\n              dup8\n                /* \"#utility.yul\":5765:5775   */\n              swap6\n              pop\n                /* \"#utility.yul\":4934:5781   */\n              pop\n              pop\n              pop\n              pop\n              pop\n                /* \"#utility.yul\":4790:5781   */\n              swap3\n              swap2\n              pop\n              pop\n              jump\t// out\n                /* \"#utility.yul\":5787:6200   */\n            tag_10:\n                /* \"#utility.yul\":5950:5954   */\n              0x00\n                /* \"#utility.yul\":5988:5990   */\n              0x20\n                /* \"#utility.yul\":5977:5986   */\n              dup3\n                /* \"#utility.yul\":5973:5991   */\n              add\n                /* \"#utility.yul\":5965:5991   */\n              swap1\n              pop\n                /* \"#utility.yul\":6037:6046   */\n              dup2\n                /* \"#utility.yul\":6031:6035   */\n              dup2\n                /* \"#utility.yul\":6027:6047   */\n              sub\n                /* \"#utility.yul\":6023:6024   */\n              0x00\n                /* \"#utility.yul\":6012:6021   */\n              dup4\n                /* \"#utility.yul\":6008:6025   */\n              add\n                /* \"#utility.yul\":6001:6048   */\n              mstore\n                /* \"#utility.yul\":6065:6193   */\n              tag_169\n                /* \"#utility.yul\":6188:6192   */\n              dup2\n                /* \"#utility.yul\":6179:6185   */\n              dup5\n                /* \"#utility.yul\":6065:6193   */\n              tag_96\n              jump\t// in\n            tag_169:\n                /* \"#utility.yul\":6057:6193   */\n              swap1\n              pop\n                /* \"#utility.yul\":5787:6200   */\n              swap3\n              swap2\n              pop\n              pop\n              jump\t// out\n                /* \"#utility.yul\":6206:6527   */\n            tag_97:\n                /* \"#utility.yul\":6293:6297   */\n              0x00\n                /* \"#utility.yul\":6383:6401   */\n              0xffffffffffffffff\n                /* \"#utility.yul\":6375:6381   */\n              dup3\n                /* \"#utility.yul\":6372:6402   */\n              gt\n                /* \"#utility.yul\":6369:6425   */\n              iszero\n              tag_171\n              jumpi\n                /* \"#utility.yul\":6405:6423   */\n              tag_172\n              tag_26\n              jump\t// in\n            tag_172:\n                /* \"#utility.yul\":6369:6425   */\n            tag_171:\n                /* \"#utility.yul\":6455:6459   */\n              0x20\n                /* \"#utility.yul\":6447:6453   */\n              dup3\n                /* \"#utility.yul\":6443:6460   */\n              mul\n                /* \"#utility.yul\":6435:6460   */\n              swap1\n              pop\n                /* \"#utility.yul\":6515:6519   */\n              0x20\n                /* \"#utility.yul\":6509:6513   */\n              dup2\n                /* \"#utility.yul\":6505:6520   */\n              add\n                /* \"#utility.yul\":6497:6520   */\n              swap1\n              pop\n                /* \"#utility.yul\":6206:6527   */\n              swap2\n              swap1\n              pop\n              jump\t// out\n                /* \"#utility.yul\":6533:6650   */\n            tag_98:\n                /* \"#utility.yul\":6642:6643   */\n              0x00\n                /* \"#utility.yul\":6639:6640   */\n              dup1\n                /* \"#utility.yul\":6632:6644   */\n              revert\n                /* \"#utility.yul\":6672:7617   */\n            tag_99:\n                /* \"#utility.yul\":6778:6783   */\n              0x00\n                /* \"#utility.yul\":6803:6894   */\n              tag_175\n                /* \"#utility.yul\":6819:6893   */\n              tag_176\n                /* \"#utility.yul\":6886:6892   */\n              dup5\n                /* \"#utility.yul\":6819:6893   */\n              tag_97\n              jump\t// in\n            tag_176:\n                /* \"#utility.yul\":6803:6894   */\n              tag_82\n              jump\t// in\n            tag_175:\n                /* \"#utility.yul\":6794:6894   */\n              swap1\n              pop\n                /* \"#utility.yul\":6914:6919   */\n              dup1\n                /* \"#utility.yul\":6943:6949   */\n              dup4\n                /* \"#utility.yul\":6936:6941   */\n              dup3\n                /* \"#utility.yul\":6929:6950   */\n              mstore\n                /* \"#utility.yul\":6977:6981   */\n              0x20\n                /* \"#utility.yul\":6970:6975   */\n              dup3\n                /* \"#utility.yul\":6966:6982   */\n              add\n                /* \"#utility.yul\":6959:6982   */\n              swap1\n              pop\n                /* \"#utility.yul\":7030:7034   */\n              0x20\n                /* \"#utility.yul\":7022:7028   */\n              dup5\n                /* \"#utility.yul\":7018:7035   */\n              mul\n                /* \"#utility.yul\":7010:7016   */\n              dup4\n                /* \"#utility.yul\":7006:7036   */\n              add\n                /* \"#utility.yul\":7059:7062   */\n              dup6\n                /* \"#utility.yul\":7051:7057   */\n              dup2\n                /* \"#utility.yul\":7048:7063   */\n              gt\n                /* \"#utility.yul\":7045:7167   */\n              iszero\n              tag_177\n              jumpi\n                /* \"#utility.yul\":7078:7157   */\n              tag_178\n              tag_98\n              jump\t// in\n            tag_178:\n                /* \"#utility.yul\":7045:7167   */\n            tag_177:\n                /* \"#utility.yul\":7193:7199   */\n              dup4\n                /* \"#utility.yul\":7176:7611   */\n            tag_179:\n                /* \"#utility.yul\":7210:7216   */\n              dup2\n                /* \"#utility.yul\":7205:7208   */\n              dup2\n                /* \"#utility.yul\":7202:7217   */\n              lt\n                /* \"#utility.yul\":7176:7611   */\n              iszero\n              tag_181\n              jumpi\n                /* \"#utility.yul\":7299:7302   */\n              dup1\n                /* \"#utility.yul\":7286:7303   */\n              calldataload\n                /* \"#utility.yul\":7335:7353   */\n              0xffffffffffffffff\n                /* \"#utility.yul\":7322:7333   */\n              dup2\n                /* \"#utility.yul\":7319:7354   */\n              gt\n                /* \"#utility.yul\":7316:7438   */\n              iszero\n              tag_182\n              jumpi\n                /* \"#utility.yul\":7357:7436   */\n              tag_183\n              tag_78\n              jump\t// in\n            tag_183:\n                /* \"#utility.yul\":7316:7438   */\n            tag_182:\n                /* \"#utility.yul\":7481:7492   */\n              dup1\n                /* \"#utility.yul\":7473:7479   */\n              dup7\n                /* \"#utility.yul\":7469:7493   */\n              add\n                /* \"#utility.yul\":7519:7566   */\n              tag_184\n                /* \"#utility.yul\":7562:7565   */\n              dup10\n                /* \"#utility.yul\":7550:7560   */\n              dup3\n                /* \"#utility.yul\":7519:7566   */\n              tag_86\n              jump\t// in\n            tag_184:\n                /* \"#utility.yul\":7514:7517   */\n              dup6\n                /* \"#utility.yul\":7507:7567   */\n              mstore\n                /* \"#utility.yul\":7596:7600   */\n              0x20\n                /* \"#utility.yul\":7591:7594   */\n              dup6\n                /* \"#utility.yul\":7587:7601   */\n              add\n                /* \"#utility.yul\":7580:7601   */\n              swap5\n              pop\n                /* \"#utility.yul\":7252:7611   */\n              pop\n              pop\n                /* \"#utility.yul\":7236:7240   */\n              0x20\n                /* \"#utility.yul\":7231:7234   */\n              dup2\n                /* \"#utility.yul\":7227:7241   */\n              add\n                /* \"#utility.yul\":7220:7241   */\n              swap1\n              pop\n                /* \"#utility.yul\":7176:7611   */\n              jump(tag_179)\n            tag_181:\n                /* \"#utility.yul\":7180:7201   */\n              pop\n                /* \"#utility.yul\":6784:7617   */\n              pop\n              pop\n                /* \"#utility.yul\":6672:7617   */\n              swap4\n              swap3\n              pop\n              pop\n              pop\n              jump\t// out\n                /* \"#utility.yul\":7639:8029   */\n            tag_100:\n                /* \"#utility.yul\":7720:7725   */\n              0x00\n                /* \"#utility.yul\":7769:7772   */\n              dup3\n                /* \"#utility.yul\":7762:7766   */\n              0x1f\n                /* \"#utility.yul\":7754:7760   */\n              dup4\n                /* \"#utility.yul\":7750:7767   */\n              add\n                /* \"#utility.yul\":7746:7773   */\n              slt\n                /* \"#utility.yul\":7736:7858   */\n              tag_186\n              jumpi\n                /* \"#utility.yul\":7777:7856   */\n              tag_187\n              tag_78\n              jump\t// in\n            tag_187:\n                /* \"#utility.yul\":7736:7858   */\n            tag_186:\n                /* \"#utility.yul\":7894:7900   */\n              dup2\n                /* \"#utility.yul\":7881:7901   */\n              calldataload\n                /* \"#utility.yul\":7919:8023   */\n              tag_188\n                /* \"#utility.yul\":8019:8022   */\n              dup5\n                /* \"#utility.yul\":8011:8017   */\n              dup3\n                /* \"#utility.yul\":8004:8008   */\n              0x20\n                /* \"#utility.yul\":7996:8002   */\n              dup7\n                /* \"#utility.yul\":7992:8009   */\n              add\n                /* \"#utility.yul\":7919:8023   */\n              tag_99\n              jump\t// in\n            tag_188:\n                /* \"#utility.yul\":7910:8023   */\n              swap2\n              pop\n                /* \"#utility.yul\":7726:8029   */\n              pop\n                /* \"#utility.yul\":7639:8029   */\n              swap3\n              swap2\n              pop\n              pop\n              jump\t// out\n                /* \"#utility.yul\":8035:8594   */\n            tag_13:\n                /* \"#utility.yul\":8129:8135   */\n              0x00\n                /* \"#utility.yul\":8178:8180   */\n              0x20\n                /* \"#utility.yul\":8166:8175   */\n              dup3\n                /* \"#utility.yul\":8157:8164   */\n              dup5\n                /* \"#utility.yul\":8153:8176   */\n              sub\n                /* \"#utility.yul\":8149:8181   */\n              slt\n                /* \"#utility.yul\":8146:8265   */\n              iszero\n              tag_190\n              jumpi\n                /* \"#utility.yul\":8184:8263   */\n              tag_191\n              tag_76\n              jump\t// in\n            tag_191:\n                /* \"#utility.yul\":8146:8265   */\n            tag_190:\n                /* \"#utility.yul\":8332:8333   */\n              0x00\n                /* \"#utility.yul\":8321:8330   */\n              dup3\n                /* \"#utility.yul\":8317:8334   */\n              add\n                /* \"#utility.yul\":8304:8335   */\n              calldataload\n                /* \"#utility.yul\":8362:8380   */\n              0xffffffffffffffff\n                /* \"#utility.yul\":8354:8360   */\n              dup2\n                /* \"#utility.yul\":8351:8381   */\n              gt\n                /* \"#utility.yul\":8348:8465   */\n              iszero\n              tag_192\n              jumpi\n                /* \"#utility.yul\":8384:8463   */\n              tag_193\n              tag_77\n              jump\t// in\n            tag_193:\n                /* \"#utility.yul\":8348:8465   */\n            tag_192:\n                /* \"#utility.yul\":8489:8577   */\n              tag_194\n                /* \"#utility.yul\":8569:8576   */\n              dup5\n                /* \"#utility.yul\":8560:8566   */\n              dup3\n                /* \"#utility.yul\":8549:8558   */\n              dup6\n                /* \"#utility.yul\":8545:8567   */\n              add\n                /* \"#utility.yul\":8489:8577   */\n              tag_100\n              jump\t// in\n            tag_194:\n                /* \"#utility.yul\":8479:8577   */\n              swap2\n              pop\n                /* \"#utility.yul\":8275:8587   */\n              pop\n                /* \"#utility.yul\":8035:8594   */\n              swap3\n              swap2\n              pop\n              pop\n              jump\t// out\n                /* \"#utility.yul\":8600:8769   */\n            tag_101:\n                /* \"#utility.yul\":8684:8695   */\n              0x00\n                /* \"#utility.yul\":8718:8724   */\n              dup3\n                /* \"#utility.yul\":8713:8716   */\n              dup3\n                /* \"#utility.yul\":8706:8725   */\n              mstore\n                /* \"#utility.yul\":8758:8762   */\n              0x20\n                /* \"#utility.yul\":8753:8756   */\n              dup3\n                /* \"#utility.yul\":8749:8763   */\n              add\n                /* \"#utility.yul\":8734:8763   */\n              swap1\n              pop\n                /* \"#utility.yul\":8600:8769   */\n              swap3\n              swap2\n              pop\n              pop\n              jump\t// out\n                /* \"#utility.yul\":8775:9152   */\n            tag_102:\n                /* \"#utility.yul\":8863:8866   */\n              0x00\n                /* \"#utility.yul\":8891:8930   */\n              tag_197\n                /* \"#utility.yul\":8924:8929   */\n              dup3\n                /* \"#utility.yul\":8891:8930   */\n              tag_90\n              jump\t// in\n            tag_197:\n                /* \"#utility.yul\":8946:9017   */\n              tag_198\n                /* \"#utility.yul\":9010:9016   */\n              dup2\n                /* \"#utility.yul\":9005:9008   */\n              dup6\n                /* \"#utility.yul\":8946:9017   */\n              tag_101\n              jump\t// in\n            tag_198:\n                /* \"#utility.yul\":8939:9017   */\n              swap4\n              pop\n                /* \"#utility.yul\":9026:9091   */\n              tag_199\n                /* \"#utility.yul\":9084:9090   */\n              dup2\n                /* \"#utility.yul\":9079:9082   */\n              dup6\n                /* \"#utility.yul\":9072:9076   */\n              0x20\n                /* \"#utility.yul\":9065:9070   */\n              dup7\n                /* \"#utility.yul\":9061:9077   */\n              add\n                /* \"#utility.yul\":9026:9091   */\n              tag_92\n              jump\t// in\n            tag_199:\n                /* \"#utility.yul\":9116:9145   */\n              tag_200\n                /* \"#utility.yul\":9138:9144   */\n              dup2\n                /* \"#utility.yul\":9116:9145   */\n              tag_80\n              jump\t// in\n            tag_200:\n                /* \"#utility.yul\":9111:9114   */\n              dup5\n                /* \"#utility.yul\":9107:9146   */\n              add\n                /* \"#utility.yul\":9100:9146   */\n              swap2\n              pop\n                /* \"#utility.yul\":8867:9152   */\n              pop\n                /* \"#utility.yul\":8775:9152   */\n              swap3\n              swap2\n              pop\n              pop\n              jump\t// out\n                /* \"#utility.yul\":9158:9471   */\n            tag_16:\n                /* \"#utility.yul\":9271:9275   */\n              0x00\n                /* \"#utility.yul\":9309:9311   */\n              0x20\n                /* \"#utility.yul\":9298:9307   */\n              dup3\n                /* \"#utility.yul\":9294:9312   */\n              add\n                /* \"#utility.yul\":9286:9312   */\n              swap1\n              pop\n                /* \"#utility.yul\":9358:9367   */\n              dup2\n                /* \"#utility.yul\":9352:9356   */\n              dup2\n                /* \"#utility.yul\":9348:9368   */\n              sub\n                /* \"#utility.yul\":9344:9345   */\n              0x00\n                /* \"#utility.yul\":9333:9342   */\n              dup4\n                /* \"#utility.yul\":9329:9346   */\n              add\n                /* \"#utility.yul\":9322:9369   */\n              mstore\n                /* \"#utility.yul\":9386:9464   */\n              tag_202\n                /* \"#utility.yul\":9459:9463   */\n              dup2\n                /* \"#utility.yul\":9450:9456   */\n              dup5\n                /* \"#utility.yul\":9386:9464   */\n              tag_102\n              jump\t// in\n            tag_202:\n                /* \"#utility.yul\":9378:9464   */\n              swap1\n              pop\n                /* \"#utility.yul\":9158:9471   */\n              swap3\n              swap2\n              pop\n              pop\n              jump\t// out\n                /* \"#utility.yul\":9477:9554   */\n            tag_103:\n                /* \"#utility.yul\":9514:9521   */\n              0x00\n                /* \"#utility.yul\":9543:9548   */\n              dup2\n                /* \"#utility.yul\":9532:9548   */\n              swap1\n              pop\n                /* \"#utility.yul\":9477:9554   */\n              swap2\n              swap1\n              pop\n              jump\t// out\n                /* \"#utility.yul\":9560:9740   */\n            tag_104:\n                /* \"#utility.yul\":9608:9685   */\n              0x4e487b7100000000000000000000000000000000000000000000000000000000\n                /* \"#utility.yul\":9605:9606   */\n              0x00\n                /* \"#utility.yul\":9598:9686   */\n              mstore\n                /* \"#utility.yul\":9705:9709   */\n              0x11\n                /* \"#utility.yul\":9702:9703   */\n              0x04\n                /* \"#utility.yul\":9695:9710   */\n              mstore\n                /* \"#utility.yul\":9729:9733   */\n              0x24\n                /* \"#utility.yul\":9726:9727   */\n              0x00\n                /* \"#utility.yul\":9719:9734   */\n              revert\n                /* \"#utility.yul\":9746:9937   */\n            tag_19:\n                /* \"#utility.yul\":9786:9789   */\n              0x00\n                /* \"#utility.yul\":9805:9825   */\n              tag_206\n                /* \"#utility.yul\":9823:9824   */\n              dup3\n                /* \"#utility.yul\":9805:9825   */\n              tag_103\n              jump\t// in\n            tag_206:\n                /* \"#utility.yul\":9800:9825   */\n              swap2\n              pop\n                /* \"#utility.yul\":9839:9859   */\n              tag_207\n                /* \"#utility.yul\":9857:9858   */\n              dup4\n                /* \"#utility.yul\":9839:9859   */\n              tag_103\n              jump\t// in\n            tag_207:\n                /* \"#utility.yul\":9834:9859   */\n              swap3\n              pop\n                /* \"#utility.yul\":9882:9883   */\n              dup3\n                /* \"#utility.yul\":9879:9880   */\n              dup3\n                /* \"#utility.yul\":9875:9884   */\n              add\n                /* \"#utility.yul\":9868:9884   */\n              swap1\n              pop\n                /* \"#utility.yul\":9903:9906   */\n              dup1\n                /* \"#utility.yul\":9900:9901   */\n              dup3\n                /* \"#utility.yul\":9897:9907   */\n              gt\n                /* \"#utility.yul\":9894:9930   */\n              iszero\n              tag_208\n              jumpi\n                /* \"#utility.yul\":9910:9928   */\n              tag_209\n              tag_104\n              jump\t// in\n            tag_209:\n                /* \"#utility.yul\":9894:9930   */\n            tag_208:\n                /* \"#utility.yul\":9746:9937   */\n              swap3\n              swap2\n              pop\n              pop\n              jump\t// out\n                /* \"#utility.yul\":9943:10137   */\n            tag_21:\n                /* \"#utility.yul\":9983:9987   */\n              0x00\n                /* \"#utility.yul\":10003:10023   */\n              tag_211\n                /* \"#utility.yul\":10021:10022   */\n              dup3\n                /* \"#utility.yul\":10003:10023   */\n              tag_103\n              jump\t// in\n            tag_211:\n                /* \"#utility.yul\":9998:10023   */\n              swap2\n              pop\n                /* \"#utility.yul\":10037:10057   */\n              tag_212\n                /* \"#utility.yul\":10055:10056   */\n              dup4\n                /* \"#utility.yul\":10037:10057   */\n              tag_103\n              jump\t// in\n            tag_212:\n                /* \"#utility.yul\":10032:10057   */\n              swap3\n              pop\n                /* \"#utility.yul\":10081:10082   */\n              dup3\n                /* \"#utility.yul\":10078:10079   */\n              dup3\n                /* \"#utility.yul\":10074:10083   */\n              sub\n                /* \"#utility.yul\":10066:10083   */\n              swap1\n              pop\n                /* \"#utility.yul\":10105:10106   */\n              dup2\n                /* \"#utility.yul\":10099:10103   */\n              dup2\n                /* \"#utility.yul\":10096:10107   */\n              gt\n                /* \"#utility.yul\":10093:10130   */\n              iszero\n              tag_213\n              jumpi\n                /* \"#utility.yul\":10110:10128   */\n              tag_214\n              tag_104\n              jump\t// in\n            tag_214:\n                /* \"#utility.yul\":10093:10130   */\n            tag_213:\n                /* \"#utility.yul\":9943:10137   */\n              swap3\n              swap2\n              pop\n              pop\n              jump\t// out\n                /* \"#utility.yul\":10143:10323   */\n            tag_105:\n                /* \"#utility.yul\":10191:10268   */\n              0x4e487b7100000000000000000000000000000000000000000000000000000000\n                /* \"#utility.yul\":10188:10189   */\n              0x00\n                /* \"#utility.yul\":10181:10269   */\n              mstore\n                /* \"#utility.yul\":10288:10292   */\n              0x12\n                /* \"#utility.yul\":10285:10286   */\n              0x04\n                /* \"#utility.yul\":10278:10293   */\n              mstore\n                /* \"#utility.yul\":10312:10316   */\n              0x24\n                /* \"#utility.yul\":10309:10310   */\n              0x00\n                /* \"#utility.yul\":10302:10317   */\n              revert\n                /* \"#utility.yul\":10329:10514   */\n            tag_23:\n                /* \"#utility.yul\":10369:10370   */\n              0x00\n                /* \"#utility.yul\":10386:10406   */\n              tag_217\n                /* \"#utility.yul\":10404:10405   */\n              dup3\n                /* \"#utility.yul\":10386:10406   */\n              tag_103\n              jump\t// in\n            tag_217:\n                /* \"#utility.yul\":10381:10406   */\n              swap2\n              pop\n                /* \"#utility.yul\":10420:10440   */\n              tag_218\n                /* \"#utility.yul\":10438:10439   */\n              dup4\n                /* \"#utility.yul\":10420:10440   */\n              tag_103\n              jump\t// in\n            tag_218:\n                /* \"#utility.yul\":10415:10440   */\n              swap3\n              pop\n                /* \"#utility.yul\":10459:10460   */\n              dup3\n                /* \"#utility.yul\":10449:10484   */\n              tag_219\n              jumpi\n                /* \"#utility.yul\":10464:10482   */\n              tag_220\n              tag_105\n              jump\t// in\n            tag_220:\n                /* \"#utility.yul\":10449:10484   */\n            tag_219:\n                /* \"#utility.yul\":10506:10507   */\n              dup3\n                /* \"#utility.yul\":10503:10504   */\n              dup3\n                /* \"#utility.yul\":10499:10508   */\n              div\n                /* \"#utility.yul\":10494:10508   */\n              swap1\n              pop\n                /* \"#utility.yul\":10329:10514   */\n              swap3\n              swap2\n              pop\n              pop\n              jump\t// out\n                /* \"#utility.yul\":10520:10930   */\n            tag_33:\n                /* \"#utility.yul\":10560:10567   */\n              0x00\n                /* \"#utility.yul\":10583:10603   */\n              tag_222\n                /* \"#utility.yul\":10601:10602   */\n              dup3\n                /* \"#utility.yul\":10583:10603   */\n              tag_103\n              jump\t// in\n            tag_222:\n                /* \"#utility.yul\":10578:10603   */\n              swap2\n              pop\n                /* \"#utility.yul\":10617:10637   */\n              tag_223\n                /* \"#utility.yul\":10635:10636   */\n              dup4\n                /* \"#utility.yul\":10617:10637   */\n              tag_103\n              jump\t// in\n            tag_223:\n                /* \"#utility.yul\":10612:10637   */\n              swap3\n              pop\n                /* \"#utility.yul\":10672:10673   */\n              dup3\n                /* \"#utility.yul\":10669:10670   */\n              dup3\n                /* \"#utility.yul\":10665:10674   */\n              mul\n                /* \"#utility.yul\":10694:10724   */\n              tag_224\n                /* \"#utility.yul\":10712:10723   */\n              dup2\n                /* \"#utility.yul\":10694:10724   */\n              tag_103\n              jump\t// in\n            tag_224:\n                /* \"#utility.yul\":10683:10724   */\n              swap2\n              pop\n                /* \"#utility.yul\":10873:10874   */\n              dup3\n                /* \"#utility.yul\":10864:10871   */\n              dup3\n                /* \"#utility.yul\":10860:10875   */\n              div\n                /* \"#utility.yul\":10857:10858   */\n              dup5\n                /* \"#utility.yul\":10854:10876   */\n              eq\n                /* \"#utility.yul\":10834:10835   */\n              dup4\n                /* \"#utility.yul\":10827:10836   */\n              iszero\n                /* \"#utility.yul\":10807:10890   */\n              or\n                /* \"#utility.yul\":10784:10923   */\n              tag_225\n              jumpi\n                /* \"#utility.yul\":10903:10921   */\n              tag_226\n              tag_104\n              jump\t// in\n            tag_226:\n                /* \"#utility.yul\":10784:10923   */\n            tag_225:\n                /* \"#utility.yul\":10568:10930   */\n              pop\n                /* \"#utility.yul\":10520:10930   */\n              swap3\n              swap2\n              pop\n              pop\n              jump\t// out\n                /* \"#utility.yul\":10936:11116   */\n            tag_45:\n                /* \"#utility.yul\":10984:11061   */\n              0x4e487b7100000000000000000000000000000000000000000000000000000000\n                /* \"#utility.yul\":10981:10982   */\n              0x00\n                /* \"#utility.yul\":10974:11062   */\n              mstore\n                /* \"#utility.yul\":11081:11085   */\n              0x32\n                /* \"#utility.yul\":11078:11079   */\n              0x04\n                /* \"#utility.yul\":11071:11086   */\n              mstore\n                /* \"#utility.yul\":11105:11109   */\n              0x24\n                /* \"#utility.yul\":11102:11103   */\n              0x00\n                /* \"#utility.yul\":11095:11110   */\n              revert\n                /* \"#utility.yul\":11122:11355   */\n            tag_72:\n                /* \"#utility.yul\":11161:11164   */\n              0x00\n                /* \"#utility.yul\":11184:11208   */\n              tag_229\n                /* \"#utility.yul\":11202:11207   */\n              dup3\n                /* \"#utility.yul\":11184:11208   */\n              tag_103\n              jump\t// in\n            tag_229:\n                /* \"#utility.yul\":11175:11208   */\n              swap2\n              pop\n                /* \"#utility.yul\":11230:11296   */\n              0xffffffffffffffffffffffffffffffffffffffffffffffffffffffffffffffff\n                /* \"#utility.yul\":11223:11228   */\n              dup3\n                /* \"#utility.yul\":11220:11297   */\n              sub\n                /* \"#utility.yul\":11217:11320   */\n              tag_230\n              jumpi\n                /* \"#utility.yul\":11300:11318   */\n              tag_231\n              tag_104\n              jump\t// in\n            tag_231:\n                /* \"#utility.yul\":11217:11320   */\n            tag_230:\n                /* \"#utility.yul\":11347:11348   */\n              0x01\n                /* \"#utility.yul\":11340:11345   */\n              dup3\n                /* \"#utility.yul\":11336:11349   */\n              add\n                /* \"#utility.yul\":11329:11349   */\n              swap1\n              pop\n                /* \"#utility.yul\":11122:11355   */\n              swap2\n              swap1\n              pop\n              jump\t// out\n\n            auxdata: 0xa2646970667358221220643d6333dd7e963f6e60cc90cfb6c3098cea3d6047aa641c1a93afed50b95a9b64736f6c63430008160033\n        }\n    }\n\n    auxdata: 0xa2646970667358221220d637e1ea7bcf9cb10eddf7810f3e36a22611dfe5fe9ca4649b988cd0540cc7b364736f6c63430008160033\n}\n",
				"bytecode": {
					"linkReferences": {
						"remix_tests.sol": {
							"Assert": [
								{
									"length": 20,
									"start": 343
								},
								{
									"length": 20,
									"start": 466
								},
								{
									"length": 20,
									"start": 611
								},
								{
									"length": 20,
									"start": 1272
								}
							]
						}
					},
					"object": "608060405234801561000f575f80fd5b506118838061001d5f395ff3fe608060405234801561000f575f80fd5b506004361061003f575f3560e01c80636af4411e146100435780637fea0d4b1461004d57806382ddeb7d14610057575b5f80fd5b61004b610061565b005b6100556102da565b005b61005f610340565b005b5f6040518060400160405280601781526020017f546869732069732061207465737420636f6e74656e742e00000000000000000081525090505f805f9054906101000a900473ffffffffffffffffffffffffffffffffffffffff1673ffffffffffffffffffffffffffffffffffffffff16631f37bdd2836040518263ffffffff1660e01b81526004016100f491906105eb565b5f60405180830381865afa15801561010e573d5f803e3d5ffd5b505050506040513d5f823e3d601f19601f82011682018060405250810190610136919061081c565b905073__$acbfb1c35000d78352310b16a054a6b106$__63abcd7960825160026040518363ffffffff1660e01b8152600401610173929190610917565b602060405180830381865af415801561018e573d5f803e3d5ffd5b505050506040513d601f19601f820116820180604052508101906101b29190610986565b5073__$acbfb1c35000d78352310b16a054a6b106$__63e8c2cb16825f815181106101e0576101df6109b1565b5b60200260200101516040518263ffffffff1660e01b81526004016102049190610ad0565b602060405180830381865af415801561021f573d5f803e3d5ffd5b505050506040513d601f19601f820116820180604052508101906102439190610986565b5073__$acbfb1c35000d78352310b16a054a6b106$__63e8c2cb1682600181518110610272576102716109b1565b5b60200260200101516040518263ffffffff1660e01b81526004016102969190610b83565b602060405180830381865af41580156102b1573d5f803e3d5ffd5b505050506040513d601f19601f820116820180604052508101906102d59190610986565b505050565b6040516102e690610554565b604051809103905ff0801580156102ff573d5f803e3d5ffd5b505f806101000a81548173ffffffffffffffffffffffffffffffffffffffff021916908373ffffffffffffffffffffffffffffffffffffffff160217905550565b5f600267ffffffffffffffff81111561035c5761035b610620565b5b60405190808252806020026020018201604052801561038f57816020015b606081526020019060019003908161037a5790505b5090506040518060400160405280600881526020017f5468697320697320000000000000000000000000000000000000000000000000815250815f815181106103db576103da6109b1565b5b60200260200101819052506040518060400160405280600781526020017f6120746573742e00000000000000000000000000000000000000000000000000815250816001815181106104305761042f6109b1565b5b60200260200101819052505f805f9054906101000a900473ffffffffffffffffffffffffffffffffffffffff1673ffffffffffffffffffffffffffffffffffffffff166357d7f21f836040518263ffffffff1660e01b81526004016104959190610ccc565b5f60405180830381865afa1580156104af573d5f803e3d5ffd5b505050506040513d5f823e3d601f19601f820116820180604052508101906104d79190610cec565b905073__$acbfb1c35000d78352310b16a054a6b106$__63e8c2cb16826040518263ffffffff1660e01b81526004016105109190610dc7565b602060405180830381865af415801561052b573d5f803e3d5ffd5b505050506040513d601f19601f8201168201806040525081019061054f9190610986565b505050565b610a4080610e0e83390190565b5f81519050919050565b5f82825260208201905092915050565b5f5b8381101561059857808201518184015260208101905061057d565b5f8484015250505050565b5f601f19601f8301169050919050565b5f6105bd82610561565b6105c7818561056b565b93506105d781856020860161057b565b6105e0816105a3565b840191505092915050565b5f6020820190508181035f83015261060381846105b3565b905092915050565b5f604051905090565b5f80fd5b5f80fd5b5f80fd5b7f4e487b71000000000000000000000000000000000000000000000000000000005f52604160045260245ffd5b610656826105a3565b810181811067ffffffffffffffff8211171561067557610674610620565b5b80604052505050565b5f61068761060b565b9050610693828261064d565b919050565b5f67ffffffffffffffff8211156106b2576106b1610620565b5b602082029050602081019050919050565b5f80fd5b5f80fd5b5f67ffffffffffffffff8211156106e5576106e4610620565b5b6106ee826105a3565b9050602081019050919050565b5f61070d610708846106cb565b61067e565b905082815260208101848484011115610729576107286106c7565b5b61073484828561057b565b509392505050565b5f82601f8301126107505761074f61061c565b5b81516107608482602086016106fb565b91505092915050565b5f61077b61077684610698565b61067e565b9050808382526020820190506020840283018581111561079e5761079d6106c3565b5b835b818110156107e557805167ffffffffffffffff8111156107c3576107c261061c565b5b8086016107d0898261073c565b855260208501945050506020810190506107a0565b5050509392505050565b5f82601f8301126108035761080261061c565b5b8151610813848260208601610769565b91505092915050565b5f6020828403121561083157610830610614565b5b5f82015167ffffffffffffffff81111561084e5761084d610618565b5b61085a848285016107ef565b91505092915050565b5f819050919050565b61087581610863565b82525050565b5f819050919050565b5f819050919050565b5f6108a76108a261089d8461087b565b610884565b610863565b9050919050565b6108b78161088d565b82525050565b5f82825260208201905092915050565b7f4e756d626572206f66206368756e6b732073686f756c642062652032000000005f82015250565b5f610901601c836108bd565b915061090c826108cd565b602082019050919050565b5f60608201905061092a5f83018561086c565b61093760208301846108ae565b8181036040830152610948816108f5565b90509392505050565b5f8115159050919050565b61096581610951565b811461096f575f80fd5b50565b5f815190506109808161095c565b92915050565b5f6020828403121561099b5761099a610614565b5b5f6109a884828501610972565b91505092915050565b7f4e487b71000000000000000000000000000000000000000000000000000000005f52603260045260245ffd5b5f6109e882610561565b6109f281856108bd565b9350610a0281856020860161057b565b610a0b816105a3565b840191505092915050565b7f546869732069732061207465737420636f6e74656e742e0000000000000000005f82015250565b5f610a4a6017836108bd565b9150610a5582610a16565b602082019050919050565b7f496e636f727265637420636f6e74656e7420696e2074686520666972737420635f8201527f68756e6b00000000000000000000000000000000000000000000000000000000602082015250565b5f610aba6024836108bd565b9150610ac582610a60565b604082019050919050565b5f6060820190508181035f830152610ae881846109de565b90508181036020830152610afb81610a3e565b90508181036040830152610b0e81610aae565b905092915050565b50565b5f610b245f836108bd565b9150610b2f82610b16565b5f82019050919050565b7f5365636f6e64206368756e6b2073686f756c6420626520656d707479000000005f82015250565b5f610b6d601c836108bd565b9150610b7882610b39565b602082019050919050565b5f6060820190508181035f830152610b9b81846109de565b90508181036020830152610bae81610b19565b90508181036040830152610bc181610b61565b905092915050565b5f81519050919050565b5f82825260208201905092915050565b5f819050602082019050919050565b5f82825260208201905092915050565b5f610c0c82610561565b610c168185610bf2565b9350610c2681856020860161057b565b610c2f816105a3565b840191505092915050565b5f610c458383610c02565b905092915050565b5f602082019050919050565b5f610c6382610bc9565b610c6d8185610bd3565b935083602082028501610c7f85610be3565b805f5b85811015610cba5784840389528151610c9b8582610c3a565b9450610ca683610c4d565b925060208a01995050600181019050610c82565b50829750879550505050505092915050565b5f6020820190508181035f830152610ce48184610c59565b905092915050565b5f60208284031215610d0157610d00610614565b5b5f82015167ffffffffffffffff811115610d1e57610d1d610618565b5b610d2a8482850161073c565b91505092915050565b7f54686973206973206120746573742e00000000000000000000000000000000005f82015250565b5f610d67600f836108bd565b9150610d7282610d33565b602082019050919050565b7f496e636f727265637420636f6e636174656e6174656420636f6e74656e7400005f82015250565b5f610db1601e836108bd565b9150610dbc82610d7d565b602082019050919050565b5f6060820190508181035f830152610ddf81846109de565b90508181036020830152610df281610d5b565b90508181036040830152610e0581610da5565b90509291505056fe608060405234801561000f575f80fd5b50610a238061001d5f395ff3fe608060405234801561000f575f80fd5b5060043610610034575f3560e01c80631f37bdd21461003857806357d7f21f14610068575b5f80fd5b610052600480360381019061004d9190610512565b610098565b60405161005f919061068e565b60405180910390f35b610082600480360381019061007d9190610790565b610268565b60405161008f919061081f565b60405180910390f35b60605f602090505f8160018386516100b09190610875565b6100ba91906108a8565b6100c49190610908565b90505f8167ffffffffffffffff8111156100e1576100e06103ee565b5b60405190808252806020026020018201604052801561011457816020015b60608152602001906001900390816100ff5790505b5090505f5b8281101561025c575f848261012e9190610938565b90505f858261013d9190610875565b9050875181111561014d57875190505b5f828261015a91906108a8565b67ffffffffffffffff811115610173576101726103ee565b5b6040519080825280601f01601f1916602001820160405280156101a55781602001600182028036833780820191505090505b5090505f8390505b8281101561022c578981815181106101c8576101c7610979565b5b602001015160f81c60f81b8285836101e091906108a8565b815181106101f1576101f0610979565b5b60200101907effffffffffffffffffffffffffffffffffffffffffffffffffffffffffffff191690815f1a90535080806001019150506101ad565b508085858151811061024157610240610979565b5b60200260200101819052505050508080600101915050610119565b50809350505050919050565b60605f805b83518110156102ac5783818151811061028957610288610979565b5b6020026020010151518261029d9190610875565b9150808060010191505061026d565b505f8167ffffffffffffffff8111156102c8576102c76103ee565b5b6040519080825280601f01601f1916602001820160405280156102fa5781602001600182028036833780820191505090505b5090505f805b85518110156103b9575f86828151811061031d5761031c610979565b5b602002602001015190505f5b81518110156103aa5781818151811061034557610344610979565b5b602001015160f81c60f81b85858061035c906109a6565b96508151811061036f5761036e610979565b5b60200101907effffffffffffffffffffffffffffffffffffffffffffffffffffffffffffff191690815f1a9053508080600101915050610329565b50508080600101915050610300565b50819350505050919050565b5f604051905090565b5f80fd5b5f80fd5b5f80fd5b5f80fd5b5f601f19601f8301169050919050565b7f4e487b71000000000000000000000000000000000000000000000000000000005f52604160045260245ffd5b610424826103de565b810181811067ffffffffffffffff82111715610443576104426103ee565b5b80604052505050565b5f6104556103c5565b9050610461828261041b565b919050565b5f67ffffffffffffffff8211156104805761047f6103ee565b5b610489826103de565b9050602081019050919050565b828183375f83830152505050565b5f6104b66104b184610466565b61044c565b9050828152602081018484840111156104d2576104d16103da565b5b6104dd848285610496565b509392505050565b5f82601f8301126104f9576104f86103d6565b5b81356105098482602086016104a4565b91505092915050565b5f60208284031215610527576105266103ce565b5b5f82013567ffffffffffffffff811115610544576105436103d2565b5b610550848285016104e5565b91505092915050565b5f81519050919050565b5f82825260208201905092915050565b5f819050602082019050919050565b5f81519050919050565b5f82825260208201905092915050565b5f5b838110156105b957808201518184015260208101905061059e565b5f8484015250505050565b5f6105ce82610582565b6105d8818561058c565b93506105e881856020860161059c565b6105f1816103de565b840191505092915050565b5f61060783836105c4565b905092915050565b5f602082019050919050565b5f61062582610559565b61062f8185610563565b93508360208202850161064185610573565b805f5b8581101561067c578484038952815161065d85826105fc565b94506106688361060f565b925060208a01995050600181019050610644565b50829750879550505050505092915050565b5f6020820190508181035f8301526106a6818461061b565b905092915050565b5f67ffffffffffffffff8211156106c8576106c76103ee565b5b602082029050602081019050919050565b5f80fd5b5f6106ef6106ea846106ae565b61044c565b90508083825260208201905060208402830185811115610712576107116106d9565b5b835b8181101561075957803567ffffffffffffffff811115610737576107366103d6565b5b80860161074489826104e5565b85526020850194505050602081019050610714565b5050509392505050565b5f82601f830112610777576107766103d6565b5b81356107878482602086016106dd565b91505092915050565b5f602082840312156107a5576107a46103ce565b5b5f82013567ffffffffffffffff8111156107c2576107c16103d2565b5b6107ce84828501610763565b91505092915050565b5f82825260208201905092915050565b5f6107f182610582565b6107fb81856107d7565b935061080b81856020860161059c565b610814816103de565b840191505092915050565b5f6020820190508181035f83015261083781846107e7565b905092915050565b5f819050919050565b7f4e487b71000000000000000000000000000000000000000000000000000000005f52601160045260245ffd5b5f61087f8261083f565b915061088a8361083f565b92508282019050808211156108a2576108a1610848565b5b92915050565b5f6108b28261083f565b91506108bd8361083f565b92508282039050818111156108d5576108d4610848565b5b92915050565b7f4e487b71000000000000000000000000000000000000000000000000000000005f52601260045260245ffd5b5f6109128261083f565b915061091d8361083f565b92508261092d5761092c6108db565b5b828204905092915050565b5f6109428261083f565b915061094d8361083f565b925082820261095b8161083f565b9150828204841483151761097257610971610848565b5b5092915050565b7f4e487b71000000000000000000000000000000000000000000000000000000005f52603260045260245ffd5b5f6109b08261083f565b91507fffffffffffffffffffffffffffffffffffffffffffffffffffffffffffffffff82036109e2576109e1610848565b5b60018201905091905056fea2646970667358221220643d6333dd7e963f6e60cc90cfb6c3098cea3d6047aa641c1a93afed50b95a9b64736f6c63430008160033a2646970667358221220d637e1ea7bcf9cb10eddf7810f3e36a22611dfe5fe9ca4649b988cd0540cc7b364736f6c63430008160033",
					"opcodes": "PUSH1 0x80 PUSH1 0x40 MSTORE CALLVALUE DUP1 ISZERO PUSH2 0xF JUMPI PUSH0 DUP1 REVERT JUMPDEST POP PUSH2 0x1883 DUP1 PUSH2 0x1D PUSH0 CODECOPY PUSH0 RETURN INVALID PUSH1 0x80 PUSH1 0x40 MSTORE CALLVALUE DUP1 ISZERO PUSH2 0xF JUMPI PUSH0 DUP1 REVERT JUMPDEST POP PUSH1 0x4 CALLDATASIZE LT PUSH2 0x3F JUMPI PUSH0 CALLDATALOAD PUSH1 0xE0 SHR DUP1 PUSH4 0x6AF4411E EQ PUSH2 0x43 JUMPI DUP1 PUSH4 0x7FEA0D4B EQ PUSH2 0x4D JUMPI DUP1 PUSH4 0x82DDEB7D EQ PUSH2 0x57 JUMPI JUMPDEST PUSH0 DUP1 REVERT JUMPDEST PUSH2 0x4B PUSH2 0x61 JUMP JUMPDEST STOP JUMPDEST PUSH2 0x55 PUSH2 0x2DA JUMP JUMPDEST STOP JUMPDEST PUSH2 0x5F PUSH2 0x340 JUMP JUMPDEST STOP JUMPDEST PUSH0 PUSH1 0x40 MLOAD DUP1 PUSH1 0x40 ADD PUSH1 0x40 MSTORE DUP1 PUSH1 0x17 DUP2 MSTORE PUSH1 0x20 ADD PUSH32 0x546869732069732061207465737420636F6E74656E742E000000000000000000 DUP2 MSTORE POP SWAP1 POP PUSH0 DUP1 PUSH0 SWAP1 SLOAD SWAP1 PUSH2 0x100 EXP SWAP1 DIV PUSH20 0xFFFFFFFFFFFFFFFFFFFFFFFFFFFFFFFFFFFFFFFF AND PUSH20 0xFFFFFFFFFFFFFFFFFFFFFFFFFFFFFFFFFFFFFFFF AND PUSH4 0x1F37BDD2 DUP4 PUSH1 0x40 MLOAD DUP3 PUSH4 0xFFFFFFFF AND PUSH1 0xE0 SHL DUP2 MSTORE PUSH1 0x4 ADD PUSH2 0xF4 SWAP2 SWAP1 PUSH2 0x5EB JUMP JUMPDEST PUSH0 PUSH1 0x40 MLOAD DUP1 DUP4 SUB DUP2 DUP7 GAS STATICCALL ISZERO DUP1 ISZERO PUSH2 0x10E JUMPI RETURNDATASIZE PUSH0 DUP1 RETURNDATACOPY RETURNDATASIZE PUSH0 REVERT JUMPDEST POP POP POP POP PUSH1 0x40 MLOAD RETURNDATASIZE PUSH0 DUP3 RETURNDATACOPY RETURNDATASIZE PUSH1 0x1F NOT PUSH1 0x1F DUP3 ADD AND DUP3 ADD DUP1 PUSH1 0x40 MSTORE POP DUP2 ADD SWAP1 PUSH2 0x136 SWAP2 SWAP1 PUSH2 0x81C JUMP JUMPDEST SWAP1 POP PUSH20 0x0 PUSH4 0xABCD7960 DUP3 MLOAD PUSH1 0x2 PUSH1 0x40 MLOAD DUP4 PUSH4 0xFFFFFFFF AND PUSH1 0xE0 SHL DUP2 MSTORE PUSH1 0x4 ADD PUSH2 0x173 SWAP3 SWAP2 SWAP1 PUSH2 0x917 JUMP JUMPDEST PUSH1 0x20 PUSH1 0x40 MLOAD DUP1 DUP4 SUB DUP2 DUP7 GAS DELEGATECALL ISZERO DUP1 ISZERO PUSH2 0x18E JUMPI RETURNDATASIZE PUSH0 DUP1 RETURNDATACOPY RETURNDATASIZE PUSH0 REVERT JUMPDEST POP POP POP POP PUSH1 0x40 MLOAD RETURNDATASIZE PUSH1 0x1F NOT PUSH1 0x1F DUP3 ADD AND DUP3 ADD DUP1 PUSH1 0x40 MSTORE POP DUP2 ADD SWAP1 PUSH2 0x1B2 SWAP2 SWAP1 PUSH2 0x986 JUMP JUMPDEST POP PUSH20 0x0 PUSH4 0xE8C2CB16 DUP3 PUSH0 DUP2 MLOAD DUP2 LT PUSH2 0x1E0 JUMPI PUSH2 0x1DF PUSH2 0x9B1 JUMP JUMPDEST JUMPDEST PUSH1 0x20 MUL PUSH1 0x20 ADD ADD MLOAD PUSH1 0x40 MLOAD DUP3 PUSH4 0xFFFFFFFF AND PUSH1 0xE0 SHL DUP2 MSTORE PUSH1 0x4 ADD PUSH2 0x204 SWAP2 SWAP1 PUSH2 0xAD0 JUMP JUMPDEST PUSH1 0x20 PUSH1 0x40 MLOAD DUP1 DUP4 SUB DUP2 DUP7 GAS DELEGATECALL ISZERO DUP1 ISZERO PUSH2 0x21F JUMPI RETURNDATASIZE PUSH0 DUP1 RETURNDATACOPY RETURNDATASIZE PUSH0 REVERT JUMPDEST POP POP POP POP PUSH1 0x40 MLOAD RETURNDATASIZE PUSH1 0x1F NOT PUSH1 0x1F DUP3 ADD AND DUP3 ADD DUP1 PUSH1 0x40 MSTORE POP DUP2 ADD SWAP1 PUSH2 0x243 SWAP2 SWAP1 PUSH2 0x986 JUMP JUMPDEST POP PUSH20 0x0 PUSH4 0xE8C2CB16 DUP3 PUSH1 0x1 DUP2 MLOAD DUP2 LT PUSH2 0x272 JUMPI PUSH2 0x271 PUSH2 0x9B1 JUMP JUMPDEST JUMPDEST PUSH1 0x20 MUL PUSH1 0x20 ADD ADD MLOAD PUSH1 0x40 MLOAD DUP3 PUSH4 0xFFFFFFFF AND PUSH1 0xE0 SHL DUP2 MSTORE PUSH1 0x4 ADD PUSH2 0x296 SWAP2 SWAP1 PUSH2 0xB83 JUMP JUMPDEST PUSH1 0x20 PUSH1 0x40 MLOAD DUP1 DUP4 SUB DUP2 DUP7 GAS DELEGATECALL ISZERO DUP1 ISZERO PUSH2 0x2B1 JUMPI RETURNDATASIZE PUSH0 DUP1 RETURNDATACOPY RETURNDATASIZE PUSH0 REVERT JUMPDEST POP POP POP POP PUSH1 0x40 MLOAD RETURNDATASIZE PUSH1 0x1F NOT PUSH1 0x1F DUP3 ADD AND DUP3 ADD DUP1 PUSH1 0x40 MSTORE POP DUP2 ADD SWAP1 PUSH2 0x2D5 SWAP2 SWAP1 PUSH2 0x986 JUMP JUMPDEST POP POP POP JUMP JUMPDEST PUSH1 0x40 MLOAD PUSH2 0x2E6 SWAP1 PUSH2 0x554 JUMP JUMPDEST PUSH1 0x40 MLOAD DUP1 SWAP2 SUB SWAP1 PUSH0 CREATE DUP1 ISZERO DUP1 ISZERO PUSH2 0x2FF JUMPI RETURNDATASIZE PUSH0 DUP1 RETURNDATACOPY RETURNDATASIZE PUSH0 REVERT JUMPDEST POP PUSH0 DUP1 PUSH2 0x100 EXP DUP2 SLOAD DUP2 PUSH20 0xFFFFFFFFFFFFFFFFFFFFFFFFFFFFFFFFFFFFFFFF MUL NOT AND SWAP1 DUP4 PUSH20 0xFFFFFFFFFFFFFFFFFFFFFFFFFFFFFFFFFFFFFFFF AND MUL OR SWAP1 SSTORE POP JUMP JUMPDEST PUSH0 PUSH1 0x2 PUSH8 0xFFFFFFFFFFFFFFFF DUP2 GT ISZERO PUSH2 0x35C JUMPI PUSH2 0x35B PUSH2 0x620 JUMP JUMPDEST JUMPDEST PUSH1 0x40 MLOAD SWAP1 DUP1 DUP3 MSTORE DUP1 PUSH1 0x20 MUL PUSH1 0x20 ADD DUP3 ADD PUSH1 0x40 MSTORE DUP1 ISZERO PUSH2 0x38F JUMPI DUP2 PUSH1 0x20 ADD JUMPDEST PUSH1 0x60 DUP2 MSTORE PUSH1 0x20 ADD SWAP1 PUSH1 0x1 SWAP1 SUB SWAP1 DUP2 PUSH2 0x37A JUMPI SWAP1 POP JUMPDEST POP SWAP1 POP PUSH1 0x40 MLOAD DUP1 PUSH1 0x40 ADD PUSH1 0x40 MSTORE DUP1 PUSH1 0x8 DUP2 MSTORE PUSH1 0x20 ADD PUSH32 0x5468697320697320000000000000000000000000000000000000000000000000 DUP2 MSTORE POP DUP2 PUSH0 DUP2 MLOAD DUP2 LT PUSH2 0x3DB JUMPI PUSH2 0x3DA PUSH2 0x9B1 JUMP JUMPDEST JUMPDEST PUSH1 0x20 MUL PUSH1 0x20 ADD ADD DUP2 SWAP1 MSTORE POP PUSH1 0x40 MLOAD DUP1 PUSH1 0x40 ADD PUSH1 0x40 MSTORE DUP1 PUSH1 0x7 DUP2 MSTORE PUSH1 0x20 ADD PUSH32 0x6120746573742E00000000000000000000000000000000000000000000000000 DUP2 MSTORE POP DUP2 PUSH1 0x1 DUP2 MLOAD DUP2 LT PUSH2 0x430 JUMPI PUSH2 0x42F PUSH2 0x9B1 JUMP JUMPDEST JUMPDEST PUSH1 0x20 MUL PUSH1 0x20 ADD ADD DUP2 SWAP1 MSTORE POP PUSH0 DUP1 PUSH0 SWAP1 SLOAD SWAP1 PUSH2 0x100 EXP SWAP1 DIV PUSH20 0xFFFFFFFFFFFFFFFFFFFFFFFFFFFFFFFFFFFFFFFF AND PUSH20 0xFFFFFFFFFFFFFFFFFFFFFFFFFFFFFFFFFFFFFFFF AND PUSH4 0x57D7F21F DUP4 PUSH1 0x40 MLOAD DUP3 PUSH4 0xFFFFFFFF AND PUSH1 0xE0 SHL DUP2 MSTORE PUSH1 0x4 ADD PUSH2 0x495 SWAP2 SWAP1 PUSH2 0xCCC JUMP JUMPDEST PUSH0 PUSH1 0x40 MLOAD DUP1 DUP4 SUB DUP2 DUP7 GAS STATICCALL ISZERO DUP1 ISZERO PUSH2 0x4AF JUMPI RETURNDATASIZE PUSH0 DUP1 RETURNDATACOPY RETURNDATASIZE PUSH0 REVERT JUMPDEST POP POP POP POP PUSH1 0x40 MLOAD RETURNDATASIZE PUSH0 DUP3 RETURNDATACOPY RETURNDATASIZE PUSH1 0x1F NOT PUSH1 0x1F DUP3 ADD AND DUP3 ADD DUP1 PUSH1 0x40 MSTORE POP DUP2 ADD SWAP1 PUSH2 0x4D7 SWAP2 SWAP1 PUSH2 0xCEC JUMP JUMPDEST SWAP1 POP PUSH20 0x0 PUSH4 0xE8C2CB16 DUP3 PUSH1 0x40 MLOAD DUP3 PUSH4 0xFFFFFFFF AND PUSH1 0xE0 SHL DUP2 MSTORE PUSH1 0x4 ADD PUSH2 0x510 SWAP2 SWAP1 PUSH2 0xDC7 JUMP JUMPDEST PUSH1 0x20 PUSH1 0x40 MLOAD DUP1 DUP4 SUB DUP2 DUP7 GAS DELEGATECALL ISZERO DUP1 ISZERO PUSH2 0x52B JUMPI RETURNDATASIZE PUSH0 DUP1 RETURNDATACOPY RETURNDATASIZE PUSH0 REVERT JUMPDEST POP POP POP POP PUSH1 0x40 MLOAD RETURNDATASIZE PUSH1 0x1F NOT PUSH1 0x1F DUP3 ADD AND DUP3 ADD DUP1 PUSH1 0x40 MSTORE POP DUP2 ADD SWAP1 PUSH2 0x54F SWAP2 SWAP1 PUSH2 0x986 JUMP JUMPDEST POP POP POP JUMP JUMPDEST PUSH2 0xA40 DUP1 PUSH2 0xE0E DUP4 CODECOPY ADD SWAP1 JUMP JUMPDEST PUSH0 DUP2 MLOAD SWAP1 POP SWAP2 SWAP1 POP JUMP JUMPDEST PUSH0 DUP3 DUP3 MSTORE PUSH1 0x20 DUP3 ADD SWAP1 POP SWAP3 SWAP2 POP POP JUMP JUMPDEST PUSH0 JUMPDEST DUP4 DUP2 LT ISZERO PUSH2 0x598 JUMPI DUP1 DUP3 ADD MLOAD DUP2 DUP5 ADD MSTORE PUSH1 0x20 DUP2 ADD SWAP1 POP PUSH2 0x57D JUMP JUMPDEST PUSH0 DUP5 DUP5 ADD MSTORE POP POP POP POP JUMP JUMPDEST PUSH0 PUSH1 0x1F NOT PUSH1 0x1F DUP4 ADD AND SWAP1 POP SWAP2 SWAP1 POP JUMP JUMPDEST PUSH0 PUSH2 0x5BD DUP3 PUSH2 0x561 JUMP JUMPDEST PUSH2 0x5C7 DUP2 DUP6 PUSH2 0x56B JUMP JUMPDEST SWAP4 POP PUSH2 0x5D7 DUP2 DUP6 PUSH1 0x20 DUP7 ADD PUSH2 0x57B JUMP JUMPDEST PUSH2 0x5E0 DUP2 PUSH2 0x5A3 JUMP JUMPDEST DUP5 ADD SWAP2 POP POP SWAP3 SWAP2 POP POP JUMP JUMPDEST PUSH0 PUSH1 0x20 DUP3 ADD SWAP1 POP DUP2 DUP2 SUB PUSH0 DUP4 ADD MSTORE PUSH2 0x603 DUP2 DUP5 PUSH2 0x5B3 JUMP JUMPDEST SWAP1 POP SWAP3 SWAP2 POP POP JUMP JUMPDEST PUSH0 PUSH1 0x40 MLOAD SWAP1 POP SWAP1 JUMP JUMPDEST PUSH0 DUP1 REVERT JUMPDEST PUSH0 DUP1 REVERT JUMPDEST PUSH0 DUP1 REVERT JUMPDEST PUSH32 0x4E487B7100000000000000000000000000000000000000000000000000000000 PUSH0 MSTORE PUSH1 0x41 PUSH1 0x4 MSTORE PUSH1 0x24 PUSH0 REVERT JUMPDEST PUSH2 0x656 DUP3 PUSH2 0x5A3 JUMP JUMPDEST DUP2 ADD DUP2 DUP2 LT PUSH8 0xFFFFFFFFFFFFFFFF DUP3 GT OR ISZERO PUSH2 0x675 JUMPI PUSH2 0x674 PUSH2 0x620 JUMP JUMPDEST JUMPDEST DUP1 PUSH1 0x40 MSTORE POP POP POP JUMP JUMPDEST PUSH0 PUSH2 0x687 PUSH2 0x60B JUMP JUMPDEST SWAP1 POP PUSH2 0x693 DUP3 DUP3 PUSH2 0x64D JUMP JUMPDEST SWAP2 SWAP1 POP JUMP JUMPDEST PUSH0 PUSH8 0xFFFFFFFFFFFFFFFF DUP3 GT ISZERO PUSH2 0x6B2 JUMPI PUSH2 0x6B1 PUSH2 0x620 JUMP JUMPDEST JUMPDEST PUSH1 0x20 DUP3 MUL SWAP1 POP PUSH1 0x20 DUP2 ADD SWAP1 POP SWAP2 SWAP1 POP JUMP JUMPDEST PUSH0 DUP1 REVERT JUMPDEST PUSH0 DUP1 REVERT JUMPDEST PUSH0 PUSH8 0xFFFFFFFFFFFFFFFF DUP3 GT ISZERO PUSH2 0x6E5 JUMPI PUSH2 0x6E4 PUSH2 0x620 JUMP JUMPDEST JUMPDEST PUSH2 0x6EE DUP3 PUSH2 0x5A3 JUMP JUMPDEST SWAP1 POP PUSH1 0x20 DUP2 ADD SWAP1 POP SWAP2 SWAP1 POP JUMP JUMPDEST PUSH0 PUSH2 0x70D PUSH2 0x708 DUP5 PUSH2 0x6CB JUMP JUMPDEST PUSH2 0x67E JUMP JUMPDEST SWAP1 POP DUP3 DUP2 MSTORE PUSH1 0x20 DUP2 ADD DUP5 DUP5 DUP5 ADD GT ISZERO PUSH2 0x729 JUMPI PUSH2 0x728 PUSH2 0x6C7 JUMP JUMPDEST JUMPDEST PUSH2 0x734 DUP5 DUP3 DUP6 PUSH2 0x57B JUMP JUMPDEST POP SWAP4 SWAP3 POP POP POP JUMP JUMPDEST PUSH0 DUP3 PUSH1 0x1F DUP4 ADD SLT PUSH2 0x750 JUMPI PUSH2 0x74F PUSH2 0x61C JUMP JUMPDEST JUMPDEST DUP2 MLOAD PUSH2 0x760 DUP5 DUP3 PUSH1 0x20 DUP7 ADD PUSH2 0x6FB JUMP JUMPDEST SWAP2 POP POP SWAP3 SWAP2 POP POP JUMP JUMPDEST PUSH0 PUSH2 0x77B PUSH2 0x776 DUP5 PUSH2 0x698 JUMP JUMPDEST PUSH2 0x67E JUMP JUMPDEST SWAP1 POP DUP1 DUP4 DUP3 MSTORE PUSH1 0x20 DUP3 ADD SWAP1 POP PUSH1 0x20 DUP5 MUL DUP4 ADD DUP6 DUP2 GT ISZERO PUSH2 0x79E JUMPI PUSH2 0x79D PUSH2 0x6C3 JUMP JUMPDEST JUMPDEST DUP4 JUMPDEST DUP2 DUP2 LT ISZERO PUSH2 0x7E5 JUMPI DUP1 MLOAD PUSH8 0xFFFFFFFFFFFFFFFF DUP2 GT ISZERO PUSH2 0x7C3 JUMPI PUSH2 0x7C2 PUSH2 0x61C JUMP JUMPDEST JUMPDEST DUP1 DUP7 ADD PUSH2 0x7D0 DUP10 DUP3 PUSH2 0x73C JUMP JUMPDEST DUP6 MSTORE PUSH1 0x20 DUP6 ADD SWAP5 POP POP POP PUSH1 0x20 DUP2 ADD SWAP1 POP PUSH2 0x7A0 JUMP JUMPDEST POP POP POP SWAP4 SWAP3 POP POP POP JUMP JUMPDEST PUSH0 DUP3 PUSH1 0x1F DUP4 ADD SLT PUSH2 0x803 JUMPI PUSH2 0x802 PUSH2 0x61C JUMP JUMPDEST JUMPDEST DUP2 MLOAD PUSH2 0x813 DUP5 DUP3 PUSH1 0x20 DUP7 ADD PUSH2 0x769 JUMP JUMPDEST SWAP2 POP POP SWAP3 SWAP2 POP POP JUMP JUMPDEST PUSH0 PUSH1 0x20 DUP3 DUP5 SUB SLT ISZERO PUSH2 0x831 JUMPI PUSH2 0x830 PUSH2 0x614 JUMP JUMPDEST JUMPDEST PUSH0 DUP3 ADD MLOAD PUSH8 0xFFFFFFFFFFFFFFFF DUP2 GT ISZERO PUSH2 0x84E JUMPI PUSH2 0x84D PUSH2 0x618 JUMP JUMPDEST JUMPDEST PUSH2 0x85A DUP5 DUP3 DUP6 ADD PUSH2 0x7EF JUMP JUMPDEST SWAP2 POP POP SWAP3 SWAP2 POP POP JUMP JUMPDEST PUSH0 DUP2 SWAP1 POP SWAP2 SWAP1 POP JUMP JUMPDEST PUSH2 0x875 DUP2 PUSH2 0x863 JUMP JUMPDEST DUP3 MSTORE POP POP JUMP JUMPDEST PUSH0 DUP2 SWAP1 POP SWAP2 SWAP1 POP JUMP JUMPDEST PUSH0 DUP2 SWAP1 POP SWAP2 SWAP1 POP JUMP JUMPDEST PUSH0 PUSH2 0x8A7 PUSH2 0x8A2 PUSH2 0x89D DUP5 PUSH2 0x87B JUMP JUMPDEST PUSH2 0x884 JUMP JUMPDEST PUSH2 0x863 JUMP JUMPDEST SWAP1 POP SWAP2 SWAP1 POP JUMP JUMPDEST PUSH2 0x8B7 DUP2 PUSH2 0x88D JUMP JUMPDEST DUP3 MSTORE POP POP JUMP JUMPDEST PUSH0 DUP3 DUP3 MSTORE PUSH1 0x20 DUP3 ADD SWAP1 POP SWAP3 SWAP2 POP POP JUMP JUMPDEST PUSH32 0x4E756D626572206F66206368756E6B732073686F756C64206265203200000000 PUSH0 DUP3 ADD MSTORE POP JUMP JUMPDEST PUSH0 PUSH2 0x901 PUSH1 0x1C DUP4 PUSH2 0x8BD JUMP JUMPDEST SWAP2 POP PUSH2 0x90C DUP3 PUSH2 0x8CD JUMP JUMPDEST PUSH1 0x20 DUP3 ADD SWAP1 POP SWAP2 SWAP1 POP JUMP JUMPDEST PUSH0 PUSH1 0x60 DUP3 ADD SWAP1 POP PUSH2 0x92A PUSH0 DUP4 ADD DUP6 PUSH2 0x86C JUMP JUMPDEST PUSH2 0x937 PUSH1 0x20 DUP4 ADD DUP5 PUSH2 0x8AE JUMP JUMPDEST DUP2 DUP2 SUB PUSH1 0x40 DUP4 ADD MSTORE PUSH2 0x948 DUP2 PUSH2 0x8F5 JUMP JUMPDEST SWAP1 POP SWAP4 SWAP3 POP POP POP JUMP JUMPDEST PUSH0 DUP2 ISZERO ISZERO SWAP1 POP SWAP2 SWAP1 POP JUMP JUMPDEST PUSH2 0x965 DUP2 PUSH2 0x951 JUMP JUMPDEST DUP2 EQ PUSH2 0x96F JUMPI PUSH0 DUP1 REVERT JUMPDEST POP JUMP JUMPDEST PUSH0 DUP2 MLOAD SWAP1 POP PUSH2 0x980 DUP2 PUSH2 0x95C JUMP JUMPDEST SWAP3 SWAP2 POP POP JUMP JUMPDEST PUSH0 PUSH1 0x20 DUP3 DUP5 SUB SLT ISZERO PUSH2 0x99B JUMPI PUSH2 0x99A PUSH2 0x614 JUMP JUMPDEST JUMPDEST PUSH0 PUSH2 0x9A8 DUP5 DUP3 DUP6 ADD PUSH2 0x972 JUMP JUMPDEST SWAP2 POP POP SWAP3 SWAP2 POP POP JUMP JUMPDEST PUSH32 0x4E487B7100000000000000000000000000000000000000000000000000000000 PUSH0 MSTORE PUSH1 0x32 PUSH1 0x4 MSTORE PUSH1 0x24 PUSH0 REVERT JUMPDEST PUSH0 PUSH2 0x9E8 DUP3 PUSH2 0x561 JUMP JUMPDEST PUSH2 0x9F2 DUP2 DUP6 PUSH2 0x8BD JUMP JUMPDEST SWAP4 POP PUSH2 0xA02 DUP2 DUP6 PUSH1 0x20 DUP7 ADD PUSH2 0x57B JUMP JUMPDEST PUSH2 0xA0B DUP2 PUSH2 0x5A3 JUMP JUMPDEST DUP5 ADD SWAP2 POP POP SWAP3 SWAP2 POP POP JUMP JUMPDEST PUSH32 0x546869732069732061207465737420636F6E74656E742E000000000000000000 PUSH0 DUP3 ADD MSTORE POP JUMP JUMPDEST PUSH0 PUSH2 0xA4A PUSH1 0x17 DUP4 PUSH2 0x8BD JUMP JUMPDEST SWAP2 POP PUSH2 0xA55 DUP3 PUSH2 0xA16 JUMP JUMPDEST PUSH1 0x20 DUP3 ADD SWAP1 POP SWAP2 SWAP1 POP JUMP JUMPDEST PUSH32 0x496E636F727265637420636F6E74656E7420696E207468652066697273742063 PUSH0 DUP3 ADD MSTORE PUSH32 0x68756E6B00000000000000000000000000000000000000000000000000000000 PUSH1 0x20 DUP3 ADD MSTORE POP JUMP JUMPDEST PUSH0 PUSH2 0xABA PUSH1 0x24 DUP4 PUSH2 0x8BD JUMP JUMPDEST SWAP2 POP PUSH2 0xAC5 DUP3 PUSH2 0xA60 JUMP JUMPDEST PUSH1 0x40 DUP3 ADD SWAP1 POP SWAP2 SWAP1 POP JUMP JUMPDEST PUSH0 PUSH1 0x60 DUP3 ADD SWAP1 POP DUP2 DUP2 SUB PUSH0 DUP4 ADD MSTORE PUSH2 0xAE8 DUP2 DUP5 PUSH2 0x9DE JUMP JUMPDEST SWAP1 POP DUP2 DUP2 SUB PUSH1 0x20 DUP4 ADD MSTORE PUSH2 0xAFB DUP2 PUSH2 0xA3E JUMP JUMPDEST SWAP1 POP DUP2 DUP2 SUB PUSH1 0x40 DUP4 ADD MSTORE PUSH2 0xB0E DUP2 PUSH2 0xAAE JUMP JUMPDEST SWAP1 POP SWAP3 SWAP2 POP POP JUMP JUMPDEST POP JUMP JUMPDEST PUSH0 PUSH2 0xB24 PUSH0 DUP4 PUSH2 0x8BD JUMP JUMPDEST SWAP2 POP PUSH2 0xB2F DUP3 PUSH2 0xB16 JUMP JUMPDEST PUSH0 DUP3 ADD SWAP1 POP SWAP2 SWAP1 POP JUMP JUMPDEST PUSH32 0x5365636F6E64206368756E6B2073686F756C6420626520656D70747900000000 PUSH0 DUP3 ADD MSTORE POP JUMP JUMPDEST PUSH0 PUSH2 0xB6D PUSH1 0x1C DUP4 PUSH2 0x8BD JUMP JUMPDEST SWAP2 POP PUSH2 0xB78 DUP3 PUSH2 0xB39 JUMP JUMPDEST PUSH1 0x20 DUP3 ADD SWAP1 POP SWAP2 SWAP1 POP JUMP JUMPDEST PUSH0 PUSH1 0x60 DUP3 ADD SWAP1 POP DUP2 DUP2 SUB PUSH0 DUP4 ADD MSTORE PUSH2 0xB9B DUP2 DUP5 PUSH2 0x9DE JUMP JUMPDEST SWAP1 POP DUP2 DUP2 SUB PUSH1 0x20 DUP4 ADD MSTORE PUSH2 0xBAE DUP2 PUSH2 0xB19 JUMP JUMPDEST SWAP1 POP DUP2 DUP2 SUB PUSH1 0x40 DUP4 ADD MSTORE PUSH2 0xBC1 DUP2 PUSH2 0xB61 JUMP JUMPDEST SWAP1 POP SWAP3 SWAP2 POP POP JUMP JUMPDEST PUSH0 DUP2 MLOAD SWAP1 POP SWAP2 SWAP1 POP JUMP JUMPDEST PUSH0 DUP3 DUP3 MSTORE PUSH1 0x20 DUP3 ADD SWAP1 POP SWAP3 SWAP2 POP POP JUMP JUMPDEST PUSH0 DUP2 SWAP1 POP PUSH1 0x20 DUP3 ADD SWAP1 POP SWAP2 SWAP1 POP JUMP JUMPDEST PUSH0 DUP3 DUP3 MSTORE PUSH1 0x20 DUP3 ADD SWAP1 POP SWAP3 SWAP2 POP POP JUMP JUMPDEST PUSH0 PUSH2 0xC0C DUP3 PUSH2 0x561 JUMP JUMPDEST PUSH2 0xC16 DUP2 DUP6 PUSH2 0xBF2 JUMP JUMPDEST SWAP4 POP PUSH2 0xC26 DUP2 DUP6 PUSH1 0x20 DUP7 ADD PUSH2 0x57B JUMP JUMPDEST PUSH2 0xC2F DUP2 PUSH2 0x5A3 JUMP JUMPDEST DUP5 ADD SWAP2 POP POP SWAP3 SWAP2 POP POP JUMP JUMPDEST PUSH0 PUSH2 0xC45 DUP4 DUP4 PUSH2 0xC02 JUMP JUMPDEST SWAP1 POP SWAP3 SWAP2 POP POP JUMP JUMPDEST PUSH0 PUSH1 0x20 DUP3 ADD SWAP1 POP SWAP2 SWAP1 POP JUMP JUMPDEST PUSH0 PUSH2 0xC63 DUP3 PUSH2 0xBC9 JUMP JUMPDEST PUSH2 0xC6D DUP2 DUP6 PUSH2 0xBD3 JUMP JUMPDEST SWAP4 POP DUP4 PUSH1 0x20 DUP3 MUL DUP6 ADD PUSH2 0xC7F DUP6 PUSH2 0xBE3 JUMP JUMPDEST DUP1 PUSH0 JUMPDEST DUP6 DUP2 LT ISZERO PUSH2 0xCBA JUMPI DUP5 DUP5 SUB DUP10 MSTORE DUP2 MLOAD PUSH2 0xC9B DUP6 DUP3 PUSH2 0xC3A JUMP JUMPDEST SWAP5 POP PUSH2 0xCA6 DUP4 PUSH2 0xC4D JUMP JUMPDEST SWAP3 POP PUSH1 0x20 DUP11 ADD SWAP10 POP POP PUSH1 0x1 DUP2 ADD SWAP1 POP PUSH2 0xC82 JUMP JUMPDEST POP DUP3 SWAP8 POP DUP8 SWAP6 POP POP POP POP POP POP SWAP3 SWAP2 POP POP JUMP JUMPDEST PUSH0 PUSH1 0x20 DUP3 ADD SWAP1 POP DUP2 DUP2 SUB PUSH0 DUP4 ADD MSTORE PUSH2 0xCE4 DUP2 DUP5 PUSH2 0xC59 JUMP JUMPDEST SWAP1 POP SWAP3 SWAP2 POP POP JUMP JUMPDEST PUSH0 PUSH1 0x20 DUP3 DUP5 SUB SLT ISZERO PUSH2 0xD01 JUMPI PUSH2 0xD00 PUSH2 0x614 JUMP JUMPDEST JUMPDEST PUSH0 DUP3 ADD MLOAD PUSH8 0xFFFFFFFFFFFFFFFF DUP2 GT ISZERO PUSH2 0xD1E JUMPI PUSH2 0xD1D PUSH2 0x618 JUMP JUMPDEST JUMPDEST PUSH2 0xD2A DUP5 DUP3 DUP6 ADD PUSH2 0x73C JUMP JUMPDEST SWAP2 POP POP SWAP3 SWAP2 POP POP JUMP JUMPDEST PUSH32 0x54686973206973206120746573742E0000000000000000000000000000000000 PUSH0 DUP3 ADD MSTORE POP JUMP JUMPDEST PUSH0 PUSH2 0xD67 PUSH1 0xF DUP4 PUSH2 0x8BD JUMP JUMPDEST SWAP2 POP PUSH2 0xD72 DUP3 PUSH2 0xD33 JUMP JUMPDEST PUSH1 0x20 DUP3 ADD SWAP1 POP SWAP2 SWAP1 POP JUMP JUMPDEST PUSH32 0x496E636F727265637420636F6E636174656E6174656420636F6E74656E740000 PUSH0 DUP3 ADD MSTORE POP JUMP JUMPDEST PUSH0 PUSH2 0xDB1 PUSH1 0x1E DUP4 PUSH2 0x8BD JUMP JUMPDEST SWAP2 POP PUSH2 0xDBC DUP3 PUSH2 0xD7D JUMP JUMPDEST PUSH1 0x20 DUP3 ADD SWAP1 POP SWAP2 SWAP1 POP JUMP JUMPDEST PUSH0 PUSH1 0x60 DUP3 ADD SWAP1 POP DUP2 DUP2 SUB PUSH0 DUP4 ADD MSTORE PUSH2 0xDDF DUP2 DUP5 PUSH2 0x9DE JUMP JUMPDEST SWAP1 POP DUP2 DUP2 SUB PUSH1 0x20 DUP4 ADD MSTORE PUSH2 0xDF2 DUP2 PUSH2 0xD5B JUMP JUMPDEST SWAP1 POP DUP2 DUP2 SUB PUSH1 0x40 DUP4 ADD MSTORE PUSH2 0xE05 DUP2 PUSH2 0xDA5 JUMP JUMPDEST SWAP1 POP SWAP3 SWAP2 POP POP JUMP INVALID PUSH1 0x80 PUSH1 0x40 MSTORE CALLVALUE DUP1 ISZERO PUSH2 0xF JUMPI PUSH0 DUP1 REVERT JUMPDEST POP PUSH2 0xA23 DUP1 PUSH2 0x1D PUSH0 CODECOPY PUSH0 RETURN INVALID PUSH1 0x80 PUSH1 0x40 MSTORE CALLVALUE DUP1 ISZERO PUSH2 0xF JUMPI PUSH0 DUP1 REVERT JUMPDEST POP PUSH1 0x4 CALLDATASIZE LT PUSH2 0x34 JUMPI PUSH0 CALLDATALOAD PUSH1 0xE0 SHR DUP1 PUSH4 0x1F37BDD2 EQ PUSH2 0x38 JUMPI DUP1 PUSH4 0x57D7F21F EQ PUSH2 0x68 JUMPI JUMPDEST PUSH0 DUP1 REVERT JUMPDEST PUSH2 0x52 PUSH1 0x4 DUP1 CALLDATASIZE SUB DUP2 ADD SWAP1 PUSH2 0x4D SWAP2 SWAP1 PUSH2 0x512 JUMP JUMPDEST PUSH2 0x98 JUMP JUMPDEST PUSH1 0x40 MLOAD PUSH2 0x5F SWAP2 SWAP1 PUSH2 0x68E JUMP JUMPDEST PUSH1 0x40 MLOAD DUP1 SWAP2 SUB SWAP1 RETURN JUMPDEST PUSH2 0x82 PUSH1 0x4 DUP1 CALLDATASIZE SUB DUP2 ADD SWAP1 PUSH2 0x7D SWAP2 SWAP1 PUSH2 0x790 JUMP JUMPDEST PUSH2 0x268 JUMP JUMPDEST PUSH1 0x40 MLOAD PUSH2 0x8F SWAP2 SWAP1 PUSH2 0x81F JUMP JUMPDEST PUSH1 0x40 MLOAD DUP1 SWAP2 SUB SWAP1 RETURN JUMPDEST PUSH1 0x60 PUSH0 PUSH1 0x20 SWAP1 POP PUSH0 DUP2 PUSH1 0x1 DUP4 DUP7 MLOAD PUSH2 0xB0 SWAP2 SWAP1 PUSH2 0x875 JUMP JUMPDEST PUSH2 0xBA SWAP2 SWAP1 PUSH2 0x8A8 JUMP JUMPDEST PUSH2 0xC4 SWAP2 SWAP1 PUSH2 0x908 JUMP JUMPDEST SWAP1 POP PUSH0 DUP2 PUSH8 0xFFFFFFFFFFFFFFFF DUP2 GT ISZERO PUSH2 0xE1 JUMPI PUSH2 0xE0 PUSH2 0x3EE JUMP JUMPDEST JUMPDEST PUSH1 0x40 MLOAD SWAP1 DUP1 DUP3 MSTORE DUP1 PUSH1 0x20 MUL PUSH1 0x20 ADD DUP3 ADD PUSH1 0x40 MSTORE DUP1 ISZERO PUSH2 0x114 JUMPI DUP2 PUSH1 0x20 ADD JUMPDEST PUSH1 0x60 DUP2 MSTORE PUSH1 0x20 ADD SWAP1 PUSH1 0x1 SWAP1 SUB SWAP1 DUP2 PUSH2 0xFF JUMPI SWAP1 POP JUMPDEST POP SWAP1 POP PUSH0 JUMPDEST DUP3 DUP2 LT ISZERO PUSH2 0x25C JUMPI PUSH0 DUP5 DUP3 PUSH2 0x12E SWAP2 SWAP1 PUSH2 0x938 JUMP JUMPDEST SWAP1 POP PUSH0 DUP6 DUP3 PUSH2 0x13D SWAP2 SWAP1 PUSH2 0x875 JUMP JUMPDEST SWAP1 POP DUP8 MLOAD DUP2 GT ISZERO PUSH2 0x14D JUMPI DUP8 MLOAD SWAP1 POP JUMPDEST PUSH0 DUP3 DUP3 PUSH2 0x15A SWAP2 SWAP1 PUSH2 0x8A8 JUMP JUMPDEST PUSH8 0xFFFFFFFFFFFFFFFF DUP2 GT ISZERO PUSH2 0x173 JUMPI PUSH2 0x172 PUSH2 0x3EE JUMP JUMPDEST JUMPDEST PUSH1 0x40 MLOAD SWAP1 DUP1 DUP3 MSTORE DUP1 PUSH1 0x1F ADD PUSH1 0x1F NOT AND PUSH1 0x20 ADD DUP3 ADD PUSH1 0x40 MSTORE DUP1 ISZERO PUSH2 0x1A5 JUMPI DUP2 PUSH1 0x20 ADD PUSH1 0x1 DUP3 MUL DUP1 CALLDATASIZE DUP4 CALLDATACOPY DUP1 DUP3 ADD SWAP2 POP POP SWAP1 POP JUMPDEST POP SWAP1 POP PUSH0 DUP4 SWAP1 POP JUMPDEST DUP3 DUP2 LT ISZERO PUSH2 0x22C JUMPI DUP10 DUP2 DUP2 MLOAD DUP2 LT PUSH2 0x1C8 JUMPI PUSH2 0x1C7 PUSH2 0x979 JUMP JUMPDEST JUMPDEST PUSH1 0x20 ADD ADD MLOAD PUSH1 0xF8 SHR PUSH1 0xF8 SHL DUP3 DUP6 DUP4 PUSH2 0x1E0 SWAP2 SWAP1 PUSH2 0x8A8 JUMP JUMPDEST DUP2 MLOAD DUP2 LT PUSH2 0x1F1 JUMPI PUSH2 0x1F0 PUSH2 0x979 JUMP JUMPDEST JUMPDEST PUSH1 0x20 ADD ADD SWAP1 PUSH31 0xFFFFFFFFFFFFFFFFFFFFFFFFFFFFFFFFFFFFFFFFFFFFFFFFFFFFFFFFFFFFFF NOT AND SWAP1 DUP2 PUSH0 BYTE SWAP1 MSTORE8 POP DUP1 DUP1 PUSH1 0x1 ADD SWAP2 POP POP PUSH2 0x1AD JUMP JUMPDEST POP DUP1 DUP6 DUP6 DUP2 MLOAD DUP2 LT PUSH2 0x241 JUMPI PUSH2 0x240 PUSH2 0x979 JUMP JUMPDEST JUMPDEST PUSH1 0x20 MUL PUSH1 0x20 ADD ADD DUP2 SWAP1 MSTORE POP POP POP POP DUP1 DUP1 PUSH1 0x1 ADD SWAP2 POP POP PUSH2 0x119 JUMP JUMPDEST POP DUP1 SWAP4 POP POP POP POP SWAP2 SWAP1 POP JUMP JUMPDEST PUSH1 0x60 PUSH0 DUP1 JUMPDEST DUP4 MLOAD DUP2 LT ISZERO PUSH2 0x2AC JUMPI DUP4 DUP2 DUP2 MLOAD DUP2 LT PUSH2 0x289 JUMPI PUSH2 0x288 PUSH2 0x979 JUMP JUMPDEST JUMPDEST PUSH1 0x20 MUL PUSH1 0x20 ADD ADD MLOAD MLOAD DUP3 PUSH2 0x29D SWAP2 SWAP1 PUSH2 0x875 JUMP JUMPDEST SWAP2 POP DUP1 DUP1 PUSH1 0x1 ADD SWAP2 POP POP PUSH2 0x26D JUMP JUMPDEST POP PUSH0 DUP2 PUSH8 0xFFFFFFFFFFFFFFFF DUP2 GT ISZERO PUSH2 0x2C8 JUMPI PUSH2 0x2C7 PUSH2 0x3EE JUMP JUMPDEST JUMPDEST PUSH1 0x40 MLOAD SWAP1 DUP1 DUP3 MSTORE DUP1 PUSH1 0x1F ADD PUSH1 0x1F NOT AND PUSH1 0x20 ADD DUP3 ADD PUSH1 0x40 MSTORE DUP1 ISZERO PUSH2 0x2FA JUMPI DUP2 PUSH1 0x20 ADD PUSH1 0x1 DUP3 MUL DUP1 CALLDATASIZE DUP4 CALLDATACOPY DUP1 DUP3 ADD SWAP2 POP POP SWAP1 POP JUMPDEST POP SWAP1 POP PUSH0 DUP1 JUMPDEST DUP6 MLOAD DUP2 LT ISZERO PUSH2 0x3B9 JUMPI PUSH0 DUP7 DUP3 DUP2 MLOAD DUP2 LT PUSH2 0x31D JUMPI PUSH2 0x31C PUSH2 0x979 JUMP JUMPDEST JUMPDEST PUSH1 0x20 MUL PUSH1 0x20 ADD ADD MLOAD SWAP1 POP PUSH0 JUMPDEST DUP2 MLOAD DUP2 LT ISZERO PUSH2 0x3AA JUMPI DUP2 DUP2 DUP2 MLOAD DUP2 LT PUSH2 0x345 JUMPI PUSH2 0x344 PUSH2 0x979 JUMP JUMPDEST JUMPDEST PUSH1 0x20 ADD ADD MLOAD PUSH1 0xF8 SHR PUSH1 0xF8 SHL DUP6 DUP6 DUP1 PUSH2 0x35C SWAP1 PUSH2 0x9A6 JUMP JUMPDEST SWAP7 POP DUP2 MLOAD DUP2 LT PUSH2 0x36F JUMPI PUSH2 0x36E PUSH2 0x979 JUMP JUMPDEST JUMPDEST PUSH1 0x20 ADD ADD SWAP1 PUSH31 0xFFFFFFFFFFFFFFFFFFFFFFFFFFFFFFFFFFFFFFFFFFFFFFFFFFFFFFFFFFFFFF NOT AND SWAP1 DUP2 PUSH0 BYTE SWAP1 MSTORE8 POP DUP1 DUP1 PUSH1 0x1 ADD SWAP2 POP POP PUSH2 0x329 JUMP JUMPDEST POP POP DUP1 DUP1 PUSH1 0x1 ADD SWAP2 POP POP PUSH2 0x300 JUMP JUMPDEST POP DUP2 SWAP4 POP POP POP POP SWAP2 SWAP1 POP JUMP JUMPDEST PUSH0 PUSH1 0x40 MLOAD SWAP1 POP SWAP1 JUMP JUMPDEST PUSH0 DUP1 REVERT JUMPDEST PUSH0 DUP1 REVERT JUMPDEST PUSH0 DUP1 REVERT JUMPDEST PUSH0 DUP1 REVERT JUMPDEST PUSH0 PUSH1 0x1F NOT PUSH1 0x1F DUP4 ADD AND SWAP1 POP SWAP2 SWAP1 POP JUMP JUMPDEST PUSH32 0x4E487B7100000000000000000000000000000000000000000000000000000000 PUSH0 MSTORE PUSH1 0x41 PUSH1 0x4 MSTORE PUSH1 0x24 PUSH0 REVERT JUMPDEST PUSH2 0x424 DUP3 PUSH2 0x3DE JUMP JUMPDEST DUP2 ADD DUP2 DUP2 LT PUSH8 0xFFFFFFFFFFFFFFFF DUP3 GT OR ISZERO PUSH2 0x443 JUMPI PUSH2 0x442 PUSH2 0x3EE JUMP JUMPDEST JUMPDEST DUP1 PUSH1 0x40 MSTORE POP POP POP JUMP JUMPDEST PUSH0 PUSH2 0x455 PUSH2 0x3C5 JUMP JUMPDEST SWAP1 POP PUSH2 0x461 DUP3 DUP3 PUSH2 0x41B JUMP JUMPDEST SWAP2 SWAP1 POP JUMP JUMPDEST PUSH0 PUSH8 0xFFFFFFFFFFFFFFFF DUP3 GT ISZERO PUSH2 0x480 JUMPI PUSH2 0x47F PUSH2 0x3EE JUMP JUMPDEST JUMPDEST PUSH2 0x489 DUP3 PUSH2 0x3DE JUMP JUMPDEST SWAP1 POP PUSH1 0x20 DUP2 ADD SWAP1 POP SWAP2 SWAP1 POP JUMP JUMPDEST DUP3 DUP2 DUP4 CALLDATACOPY PUSH0 DUP4 DUP4 ADD MSTORE POP POP POP JUMP JUMPDEST PUSH0 PUSH2 0x4B6 PUSH2 0x4B1 DUP5 PUSH2 0x466 JUMP JUMPDEST PUSH2 0x44C JUMP JUMPDEST SWAP1 POP DUP3 DUP2 MSTORE PUSH1 0x20 DUP2 ADD DUP5 DUP5 DUP5 ADD GT ISZERO PUSH2 0x4D2 JUMPI PUSH2 0x4D1 PUSH2 0x3DA JUMP JUMPDEST JUMPDEST PUSH2 0x4DD DUP5 DUP3 DUP6 PUSH2 0x496 JUMP JUMPDEST POP SWAP4 SWAP3 POP POP POP JUMP JUMPDEST PUSH0 DUP3 PUSH1 0x1F DUP4 ADD SLT PUSH2 0x4F9 JUMPI PUSH2 0x4F8 PUSH2 0x3D6 JUMP JUMPDEST JUMPDEST DUP2 CALLDATALOAD PUSH2 0x509 DUP5 DUP3 PUSH1 0x20 DUP7 ADD PUSH2 0x4A4 JUMP JUMPDEST SWAP2 POP POP SWAP3 SWAP2 POP POP JUMP JUMPDEST PUSH0 PUSH1 0x20 DUP3 DUP5 SUB SLT ISZERO PUSH2 0x527 JUMPI PUSH2 0x526 PUSH2 0x3CE JUMP JUMPDEST JUMPDEST PUSH0 DUP3 ADD CALLDATALOAD PUSH8 0xFFFFFFFFFFFFFFFF DUP2 GT ISZERO PUSH2 0x544 JUMPI PUSH2 0x543 PUSH2 0x3D2 JUMP JUMPDEST JUMPDEST PUSH2 0x550 DUP5 DUP3 DUP6 ADD PUSH2 0x4E5 JUMP JUMPDEST SWAP2 POP POP SWAP3 SWAP2 POP POP JUMP JUMPDEST PUSH0 DUP2 MLOAD SWAP1 POP SWAP2 SWAP1 POP JUMP JUMPDEST PUSH0 DUP3 DUP3 MSTORE PUSH1 0x20 DUP3 ADD SWAP1 POP SWAP3 SWAP2 POP POP JUMP JUMPDEST PUSH0 DUP2 SWAP1 POP PUSH1 0x20 DUP3 ADD SWAP1 POP SWAP2 SWAP1 POP JUMP JUMPDEST PUSH0 DUP2 MLOAD SWAP1 POP SWAP2 SWAP1 POP JUMP JUMPDEST PUSH0 DUP3 DUP3 MSTORE PUSH1 0x20 DUP3 ADD SWAP1 POP SWAP3 SWAP2 POP POP JUMP JUMPDEST PUSH0 JUMPDEST DUP4 DUP2 LT ISZERO PUSH2 0x5B9 JUMPI DUP1 DUP3 ADD MLOAD DUP2 DUP5 ADD MSTORE PUSH1 0x20 DUP2 ADD SWAP1 POP PUSH2 0x59E JUMP JUMPDEST PUSH0 DUP5 DUP5 ADD MSTORE POP POP POP POP JUMP JUMPDEST PUSH0 PUSH2 0x5CE DUP3 PUSH2 0x582 JUMP JUMPDEST PUSH2 0x5D8 DUP2 DUP6 PUSH2 0x58C JUMP JUMPDEST SWAP4 POP PUSH2 0x5E8 DUP2 DUP6 PUSH1 0x20 DUP7 ADD PUSH2 0x59C JUMP JUMPDEST PUSH2 0x5F1 DUP2 PUSH2 0x3DE JUMP JUMPDEST DUP5 ADD SWAP2 POP POP SWAP3 SWAP2 POP POP JUMP JUMPDEST PUSH0 PUSH2 0x607 DUP4 DUP4 PUSH2 0x5C4 JUMP JUMPDEST SWAP1 POP SWAP3 SWAP2 POP POP JUMP JUMPDEST PUSH0 PUSH1 0x20 DUP3 ADD SWAP1 POP SWAP2 SWAP1 POP JUMP JUMPDEST PUSH0 PUSH2 0x625 DUP3 PUSH2 0x559 JUMP JUMPDEST PUSH2 0x62F DUP2 DUP6 PUSH2 0x563 JUMP JUMPDEST SWAP4 POP DUP4 PUSH1 0x20 DUP3 MUL DUP6 ADD PUSH2 0x641 DUP6 PUSH2 0x573 JUMP JUMPDEST DUP1 PUSH0 JUMPDEST DUP6 DUP2 LT ISZERO PUSH2 0x67C JUMPI DUP5 DUP5 SUB DUP10 MSTORE DUP2 MLOAD PUSH2 0x65D DUP6 DUP3 PUSH2 0x5FC JUMP JUMPDEST SWAP5 POP PUSH2 0x668 DUP4 PUSH2 0x60F JUMP JUMPDEST SWAP3 POP PUSH1 0x20 DUP11 ADD SWAP10 POP POP PUSH1 0x1 DUP2 ADD SWAP1 POP PUSH2 0x644 JUMP JUMPDEST POP DUP3 SWAP8 POP DUP8 SWAP6 POP POP POP POP POP POP SWAP3 SWAP2 POP POP JUMP JUMPDEST PUSH0 PUSH1 0x20 DUP3 ADD SWAP1 POP DUP2 DUP2 SUB PUSH0 DUP4 ADD MSTORE PUSH2 0x6A6 DUP2 DUP5 PUSH2 0x61B JUMP JUMPDEST SWAP1 POP SWAP3 SWAP2 POP POP JUMP JUMPDEST PUSH0 PUSH8 0xFFFFFFFFFFFFFFFF DUP3 GT ISZERO PUSH2 0x6C8 JUMPI PUSH2 0x6C7 PUSH2 0x3EE JUMP JUMPDEST JUMPDEST PUSH1 0x20 DUP3 MUL SWAP1 POP PUSH1 0x20 DUP2 ADD SWAP1 POP SWAP2 SWAP1 POP JUMP JUMPDEST PUSH0 DUP1 REVERT JUMPDEST PUSH0 PUSH2 0x6EF PUSH2 0x6EA DUP5 PUSH2 0x6AE JUMP JUMPDEST PUSH2 0x44C JUMP JUMPDEST SWAP1 POP DUP1 DUP4 DUP3 MSTORE PUSH1 0x20 DUP3 ADD SWAP1 POP PUSH1 0x20 DUP5 MUL DUP4 ADD DUP6 DUP2 GT ISZERO PUSH2 0x712 JUMPI PUSH2 0x711 PUSH2 0x6D9 JUMP JUMPDEST JUMPDEST DUP4 JUMPDEST DUP2 DUP2 LT ISZERO PUSH2 0x759 JUMPI DUP1 CALLDATALOAD PUSH8 0xFFFFFFFFFFFFFFFF DUP2 GT ISZERO PUSH2 0x737 JUMPI PUSH2 0x736 PUSH2 0x3D6 JUMP JUMPDEST JUMPDEST DUP1 DUP7 ADD PUSH2 0x744 DUP10 DUP3 PUSH2 0x4E5 JUMP JUMPDEST DUP6 MSTORE PUSH1 0x20 DUP6 ADD SWAP5 POP POP POP PUSH1 0x20 DUP2 ADD SWAP1 POP PUSH2 0x714 JUMP JUMPDEST POP POP POP SWAP4 SWAP3 POP POP POP JUMP JUMPDEST PUSH0 DUP3 PUSH1 0x1F DUP4 ADD SLT PUSH2 0x777 JUMPI PUSH2 0x776 PUSH2 0x3D6 JUMP JUMPDEST JUMPDEST DUP2 CALLDATALOAD PUSH2 0x787 DUP5 DUP3 PUSH1 0x20 DUP7 ADD PUSH2 0x6DD JUMP JUMPDEST SWAP2 POP POP SWAP3 SWAP2 POP POP JUMP JUMPDEST PUSH0 PUSH1 0x20 DUP3 DUP5 SUB SLT ISZERO PUSH2 0x7A5 JUMPI PUSH2 0x7A4 PUSH2 0x3CE JUMP JUMPDEST JUMPDEST PUSH0 DUP3 ADD CALLDATALOAD PUSH8 0xFFFFFFFFFFFFFFFF DUP2 GT ISZERO PUSH2 0x7C2 JUMPI PUSH2 0x7C1 PUSH2 0x3D2 JUMP JUMPDEST JUMPDEST PUSH2 0x7CE DUP5 DUP3 DUP6 ADD PUSH2 0x763 JUMP JUMPDEST SWAP2 POP POP SWAP3 SWAP2 POP POP JUMP JUMPDEST PUSH0 DUP3 DUP3 MSTORE PUSH1 0x20 DUP3 ADD SWAP1 POP SWAP3 SWAP2 POP POP JUMP JUMPDEST PUSH0 PUSH2 0x7F1 DUP3 PUSH2 0x582 JUMP JUMPDEST PUSH2 0x7FB DUP2 DUP6 PUSH2 0x7D7 JUMP JUMPDEST SWAP4 POP PUSH2 0x80B DUP2 DUP6 PUSH1 0x20 DUP7 ADD PUSH2 0x59C JUMP JUMPDEST PUSH2 0x814 DUP2 PUSH2 0x3DE JUMP JUMPDEST DUP5 ADD SWAP2 POP POP SWAP3 SWAP2 POP POP JUMP JUMPDEST PUSH0 PUSH1 0x20 DUP3 ADD SWAP1 POP DUP2 DUP2 SUB PUSH0 DUP4 ADD MSTORE PUSH2 0x837 DUP2 DUP5 PUSH2 0x7E7 JUMP JUMPDEST SWAP1 POP SWAP3 SWAP2 POP POP JUMP JUMPDEST PUSH0 DUP2 SWAP1 POP SWAP2 SWAP1 POP JUMP JUMPDEST PUSH32 0x4E487B7100000000000000000000000000000000000000000000000000000000 PUSH0 MSTORE PUSH1 0x11 PUSH1 0x4 MSTORE PUSH1 0x24 PUSH0 REVERT JUMPDEST PUSH0 PUSH2 0x87F DUP3 PUSH2 0x83F JUMP JUMPDEST SWAP2 POP PUSH2 0x88A DUP4 PUSH2 0x83F JUMP JUMPDEST SWAP3 POP DUP3 DUP3 ADD SWAP1 POP DUP1 DUP3 GT ISZERO PUSH2 0x8A2 JUMPI PUSH2 0x8A1 PUSH2 0x848 JUMP JUMPDEST JUMPDEST SWAP3 SWAP2 POP POP JUMP JUMPDEST PUSH0 PUSH2 0x8B2 DUP3 PUSH2 0x83F JUMP JUMPDEST SWAP2 POP PUSH2 0x8BD DUP4 PUSH2 0x83F JUMP JUMPDEST SWAP3 POP DUP3 DUP3 SUB SWAP1 POP DUP2 DUP2 GT ISZERO PUSH2 0x8D5 JUMPI PUSH2 0x8D4 PUSH2 0x848 JUMP JUMPDEST JUMPDEST SWAP3 SWAP2 POP POP JUMP JUMPDEST PUSH32 0x4E487B7100000000000000000000000000000000000000000000000000000000 PUSH0 MSTORE PUSH1 0x12 PUSH1 0x4 MSTORE PUSH1 0x24 PUSH0 REVERT JUMPDEST PUSH0 PUSH2 0x912 DUP3 PUSH2 0x83F JUMP JUMPDEST SWAP2 POP PUSH2 0x91D DUP4 PUSH2 0x83F JUMP JUMPDEST SWAP3 POP DUP3 PUSH2 0x92D JUMPI PUSH2 0x92C PUSH2 0x8DB JUMP JUMPDEST JUMPDEST DUP3 DUP3 DIV SWAP1 POP SWAP3 SWAP2 POP POP JUMP JUMPDEST PUSH0 PUSH2 0x942 DUP3 PUSH2 0x83F JUMP JUMPDEST SWAP2 POP PUSH2 0x94D DUP4 PUSH2 0x83F JUMP JUMPDEST SWAP3 POP DUP3 DUP3 MUL PUSH2 0x95B DUP2 PUSH2 0x83F JUMP JUMPDEST SWAP2 POP DUP3 DUP3 DIV DUP5 EQ DUP4 ISZERO OR PUSH2 0x972 JUMPI PUSH2 0x971 PUSH2 0x848 JUMP JUMPDEST JUMPDEST POP SWAP3 SWAP2 POP POP JUMP JUMPDEST PUSH32 0x4E487B7100000000000000000000000000000000000000000000000000000000 PUSH0 MSTORE PUSH1 0x32 PUSH1 0x4 MSTORE PUSH1 0x24 PUSH0 REVERT JUMPDEST PUSH0 PUSH2 0x9B0 DUP3 PUSH2 0x83F JUMP JUMPDEST SWAP2 POP PUSH32 0xFFFFFFFFFFFFFFFFFFFFFFFFFFFFFFFFFFFFFFFFFFFFFFFFFFFFFFFFFFFFFFFF DUP3 SUB PUSH2 0x9E2 JUMPI PUSH2 0x9E1 PUSH2 0x848 JUMP JUMPDEST JUMPDEST PUSH1 0x1 DUP3 ADD SWAP1 POP SWAP2 SWAP1 POP JUMP INVALID LOG2 PUSH5 0x6970667358 0x22 SLT KECCAK256 PUSH5 0x3D6333DD7E SWAP7 EXTCODEHASH PUSH15 0x60CC90CFB6C3098CEA3D6047AA641C BYTE SWAP4 0xAF 0xED POP 0xB9 GAS SWAP12 PUSH5 0x736F6C6343 STOP ADDMOD AND STOP CALLER LOG2 PUSH5 0x6970667358 0x22 SLT KECCAK256 0xD6 CALLDATACOPY 0xE1 0xEA PUSH28 0xCF9CB10EDDF7810F3E36A22611DFE5FE9CA4649B988CD0540CC7B364 PUSH20 0x6F6C634300081600330000000000000000000000 "
				},
				"gasEstimates": {
					"creation": {
						"codeDepositCost": "1255000",
						"executionCost": "1306",
						"totalCost": "1256306"
					},
					"external": {
						"beforeAll()": "infinite",
						"testChunkContent()": "infinite",
						"testConcatenateChunks()": "infinite"
					}
				},
				"methodIdentifiers": {
					"beforeAll()": "7fea0d4b",
					"testChunkContent()": "6af4411e",
					"testConcatenateChunks()": "82ddeb7d"
				}
			},
			"storageLayout": {
				"storage": [
					{
						"astId": 230,
						"contract": "contracts/_ChunkManagerTest.sol:ChunkManagerTest",
						"label": "chunkManager",
						"offset": 0,
						"slot": "0",
						"type": "t_contract(ChunkManager)223"
					}
				],
				"types": {
					"t_contract(ChunkManager)223": {
						"encoding": "inplace",
						"label": "contract ChunkManager",
						"numberOfBytes": "20"
					}
				}
			},
			"userdoc": {
				"kind": "user",
				"methods": {},
				"version": 1
			}
		}
	}
}