{
	"contracts/_ChunkManager.sol": {
		"ChunkManager": {
			"abi": [
				{
					"inputs": [
						{
							"internalType": "string",
							"name": "content",
							"type": "string"
						}
					],
					"name": "chunkContent",
					"outputs": [
						{
							"internalType": "string[]",
							"name": "",
							"type": "string[]"
						}
					],
					"stateMutability": "pure",
					"type": "function"
				},
				{
					"inputs": [
						{
							"internalType": "string[]",
							"name": "chunks",
							"type": "string[]"
						}
					],
					"name": "concatenateChunks",
					"outputs": [
						{
							"internalType": "string",
							"name": "",
							"type": "string"
						}
					],
					"stateMutability": "pure",
					"type": "function"
				},
				{
					"inputs": [],
					"name": "getNumMaxDuplicationCount",
					"outputs": [
						{
							"internalType": "uint104",
							"name": "",
							"type": "uint104"
						}
					],
					"stateMutability": "view",
					"type": "function"
				},
				{
					"inputs": [],
					"name": "numMaxChunksDuplication",
					"outputs": [
						{
							"internalType": "uint104",
							"name": "",
							"type": "uint104"
						}
					],
					"stateMutability": "view",
					"type": "function"
				}
			],
			"devdoc": {
				"kind": "dev",
				"methods": {},
				"version": 1
			},
			"evm": {
				"assembly": "    /* \"contracts/_ChunkManager.sol\":61:1790  contract ChunkManager {... */\n  mstore(0x40, 0x80)\n    /* \"contracts/_ChunkManager.sol\":130:131  3 */\n  0x03\n    /* \"contracts/_ChunkManager.sol\":89:131  uint104 public numMaxChunksDuplication = 3 */\n  0x00\n  dup1\n  0x0100\n  exp\n  dup2\n  sload\n  dup2\n  0xffffffffffffffffffffffffff\n  mul\n  not\n  and\n  swap1\n  dup4\n  0xffffffffffffffffffffffffff\n  and\n  mul\n  or\n  swap1\n  sstore\n  pop\n    /* \"contracts/_ChunkManager.sol\":61:1790  contract ChunkManager {... */\n  callvalue\n  dup1\n  iszero\n  tag_1\n  jumpi\n  0x00\n  dup1\n  revert\ntag_1:\n  pop\n  dataSize(sub_0)\n  dup1\n  dataOffset(sub_0)\n  0x00\n  codecopy\n  0x00\n  return\nstop\n\nsub_0: assembly {\n        /* \"contracts/_ChunkManager.sol\":61:1790  contract ChunkManager {... */\n      mstore(0x40, 0x80)\n      callvalue\n      dup1\n      iszero\n      tag_1\n      jumpi\n      0x00\n      dup1\n      revert\n    tag_1:\n      pop\n      jumpi(tag_2, lt(calldatasize, 0x04))\n      shr(0xe0, calldataload(0x00))\n      dup1\n      0x1f37bdd2\n      eq\n      tag_3\n      jumpi\n      dup1\n      0x57d7f21f\n      eq\n      tag_4\n      jumpi\n      dup1\n      0x5ffd7c06\n      eq\n      tag_5\n      jumpi\n      dup1\n      0xd8cd900a\n      eq\n      tag_6\n      jumpi\n    tag_2:\n      0x00\n      dup1\n      revert\n        /* \"contracts/_ChunkManager.sol\":138:977  function chunkContent(string memory content)... */\n    tag_3:\n      tag_7\n      0x04\n      dup1\n      calldatasize\n      sub\n      dup2\n      add\n      swap1\n      tag_8\n      swap2\n      swap1\n      tag_9\n      jump\t// in\n    tag_8:\n      tag_10\n      jump\t// in\n    tag_7:\n      mload(0x40)\n      tag_11\n      swap2\n      swap1\n      tag_12\n      jump\t// in\n    tag_11:\n      mload(0x40)\n      dup1\n      swap2\n      sub\n      swap1\n      return\n        /* \"contracts/_ChunkManager.sol\":983:1668  function concatenateChunks(string[] memory chunks)... */\n    tag_4:\n      tag_13\n      0x04\n      dup1\n      calldatasize\n      sub\n      dup2\n      add\n      swap1\n      tag_14\n      swap2\n      swap1\n      tag_15\n      jump\t// in\n    tag_14:\n      tag_16\n      jump\t// in\n    tag_13:\n      mload(0x40)\n      tag_17\n      swap2\n      swap1\n      tag_18\n      jump\t// in\n    tag_17:\n      mload(0x40)\n      dup1\n      swap2\n      sub\n      swap1\n      return\n        /* \"contracts/_ChunkManager.sol\":89:131  uint104 public numMaxChunksDuplication = 3 */\n    tag_5:\n      tag_19\n      tag_20\n      jump\t// in\n    tag_19:\n      mload(0x40)\n      tag_21\n      swap2\n      swap1\n      tag_22\n      jump\t// in\n    tag_21:\n      mload(0x40)\n      dup1\n      swap2\n      sub\n      swap1\n      return\n        /* \"contracts/_ChunkManager.sol\":1674:1788  function getNumMaxDuplicationCount() public view returns (uint104) {... */\n    tag_6:\n      tag_23\n      tag_24\n      jump\t// in\n    tag_23:\n      mload(0x40)\n      tag_25\n      swap2\n      swap1\n      tag_22\n      jump\t// in\n    tag_25:\n      mload(0x40)\n      dup1\n      swap2\n      sub\n      swap1\n      return\n        /* \"contracts/_ChunkManager.sol\":138:977  function chunkContent(string memory content)... */\n    tag_10:\n        /* \"contracts/_ChunkManager.sol\":228:243  string[] memory */\n      0x60\n        /* \"contracts/_ChunkManager.sol\":299:316  uint256 chunkSize */\n      0x00\n        /* \"contracts/_ChunkManager.sol\":319:321  32 */\n      0x20\n        /* \"contracts/_ChunkManager.sol\":299:321  uint256 chunkSize = 32 */\n      swap1\n      pop\n        /* \"contracts/_ChunkManager.sol\":331:348  uint256 numChunks */\n      0x00\n        /* \"contracts/_ChunkManager.sol\":393:402  chunkSize */\n      dup2\n        /* \"contracts/_ChunkManager.sol\":388:389  1 */\n      0x01\n        /* \"contracts/_ChunkManager.sol\":376:385  chunkSize */\n      dup4\n        /* \"contracts/_ChunkManager.sol\":358:365  content */\n      dup7\n        /* \"contracts/_ChunkManager.sol\":352:373  bytes(content).length */\n      mload\n        /* \"contracts/_ChunkManager.sol\":352:385  bytes(content).length + chunkSize */\n      tag_27\n      swap2\n      swap1\n      tag_28\n      jump\t// in\n    tag_27:\n        /* \"contracts/_ChunkManager.sol\":352:389  bytes(content).length + chunkSize - 1 */\n      tag_29\n      swap2\n      swap1\n      tag_30\n      jump\t// in\n    tag_29:\n        /* \"contracts/_ChunkManager.sol\":351:402  (bytes(content).length + chunkSize - 1) / chunkSize */\n      tag_31\n      swap2\n      swap1\n      tag_32\n      jump\t// in\n    tag_31:\n        /* \"contracts/_ChunkManager.sol\":331:402  uint256 numChunks = (bytes(content).length + chunkSize - 1) / chunkSize */\n      swap1\n      pop\n        /* \"contracts/_ChunkManager.sol\":412:434  string[] memory chunks */\n      0x00\n        /* \"contracts/_ChunkManager.sol\":450:459  numChunks */\n      dup2\n        /* \"contracts/_ChunkManager.sol\":437:460  new string[](numChunks) */\n      0xffffffffffffffff\n      dup2\n      gt\n      iszero\n      tag_33\n      jumpi\n      tag_34\n      tag_35\n      jump\t// in\n    tag_34:\n    tag_33:\n      mload(0x40)\n      swap1\n      dup1\n      dup3\n      mstore\n      dup1\n      0x20\n      mul\n      0x20\n      add\n      dup3\n      add\n      0x40\n      mstore\n      dup1\n      iszero\n      tag_36\n      jumpi\n      dup2\n      0x20\n      add\n    tag_37:\n      0x60\n      dup2\n      mstore\n      0x20\n      add\n      swap1\n      0x01\n      swap1\n      sub\n      swap1\n      dup2\n      tag_37\n      jumpi\n      swap1\n      pop\n    tag_36:\n      pop\n        /* \"contracts/_ChunkManager.sol\":412:460  string[] memory chunks = new string[](numChunks) */\n      swap1\n      pop\n        /* \"contracts/_ChunkManager.sol\":476:485  uint256 i */\n      0x00\n        /* \"contracts/_ChunkManager.sol\":471:947  for (uint256 i = 0; i < numChunks; i++) {... */\n    tag_38:\n        /* \"contracts/_ChunkManager.sol\":495:504  numChunks */\n      dup3\n        /* \"contracts/_ChunkManager.sol\":491:492  i */\n      dup2\n        /* \"contracts/_ChunkManager.sol\":491:504  i < numChunks */\n      lt\n        /* \"contracts/_ChunkManager.sol\":471:947  for (uint256 i = 0; i < numChunks; i++) {... */\n      iszero\n      tag_39\n      jumpi\n        /* \"contracts/_ChunkManager.sol\":525:538  uint256 start */\n      0x00\n        /* \"contracts/_ChunkManager.sol\":545:554  chunkSize */\n      dup5\n        /* \"contracts/_ChunkManager.sol\":541:542  i */\n      dup3\n        /* \"contracts/_ChunkManager.sol\":541:554  i * chunkSize */\n      tag_41\n      swap2\n      swap1\n      tag_42\n      jump\t// in\n    tag_41:\n        /* \"contracts/_ChunkManager.sol\":525:554  uint256 start = i * chunkSize */\n      swap1\n      pop\n        /* \"contracts/_ChunkManager.sol\":568:579  uint256 end */\n      0x00\n        /* \"contracts/_ChunkManager.sol\":590:599  chunkSize */\n      dup6\n        /* \"contracts/_ChunkManager.sol\":582:587  start */\n      dup3\n        /* \"contracts/_ChunkManager.sol\":582:599  start + chunkSize */\n      tag_43\n      swap2\n      swap1\n      tag_28\n      jump\t// in\n    tag_43:\n        /* \"contracts/_ChunkManager.sol\":568:599  uint256 end = start + chunkSize */\n      swap1\n      pop\n        /* \"contracts/_ChunkManager.sol\":629:636  content */\n      dup8\n        /* \"contracts/_ChunkManager.sol\":623:644  bytes(content).length */\n      mload\n        /* \"contracts/_ChunkManager.sol\":617:620  end */\n      dup2\n        /* \"contracts/_ChunkManager.sol\":617:644  end > bytes(content).length */\n      gt\n        /* \"contracts/_ChunkManager.sol\":613:706  if (end > bytes(content).length) {... */\n      iszero\n      tag_44\n      jumpi\n        /* \"contracts/_ChunkManager.sol\":676:683  content */\n      dup8\n        /* \"contracts/_ChunkManager.sol\":670:691  bytes(content).length */\n      mload\n        /* \"contracts/_ChunkManager.sol\":664:691  end = bytes(content).length */\n      swap1\n      pop\n        /* \"contracts/_ChunkManager.sol\":613:706  if (end > bytes(content).length) {... */\n    tag_44:\n        /* \"contracts/_ChunkManager.sol\":719:742  bytes memory chunkBytes */\n      0x00\n        /* \"contracts/_ChunkManager.sol\":761:766  start */\n      dup3\n        /* \"contracts/_ChunkManager.sol\":755:758  end */\n      dup3\n        /* \"contracts/_ChunkManager.sol\":755:766  end - start */\n      tag_45\n      swap2\n      swap1\n      tag_30\n      jump\t// in\n    tag_45:\n        /* \"contracts/_ChunkManager.sol\":745:767  new bytes(end - start) */\n      0xffffffffffffffff\n      dup2\n      gt\n      iszero\n      tag_46\n      jumpi\n      tag_47\n      tag_35\n      jump\t// in\n    tag_47:\n    tag_46:\n      mload(0x40)\n      swap1\n      dup1\n      dup3\n      mstore\n      dup1\n      0x1f\n      add\n      not(0x1f)\n      and\n      0x20\n      add\n      dup3\n      add\n      0x40\n      mstore\n      dup1\n      iszero\n      tag_48\n      jumpi\n      dup2\n      0x20\n      add\n      0x01\n      dup3\n      mul\n      dup1\n      calldatasize\n      dup4\n      calldatacopy\n      dup1\n      dup3\n      add\n      swap2\n      pop\n      pop\n      swap1\n      pop\n    tag_48:\n      pop\n        /* \"contracts/_ChunkManager.sol\":719:767  bytes memory chunkBytes = new bytes(end - start) */\n      swap1\n      pop\n        /* \"contracts/_ChunkManager.sol\":786:795  uint256 j */\n      0x00\n        /* \"contracts/_ChunkManager.sol\":798:803  start */\n      dup4\n        /* \"contracts/_ChunkManager.sol\":786:803  uint256 j = start */\n      swap1\n      pop\n        /* \"contracts/_ChunkManager.sol\":781:893  for (uint256 j = start; j < end; j++) {... */\n    tag_49:\n        /* \"contracts/_ChunkManager.sol\":809:812  end */\n      dup3\n        /* \"contracts/_ChunkManager.sol\":805:806  j */\n      dup2\n        /* \"contracts/_ChunkManager.sol\":805:812  j < end */\n      lt\n        /* \"contracts/_ChunkManager.sol\":781:893  for (uint256 j = start; j < end; j++) {... */\n      iszero\n      tag_50\n      jumpi\n        /* \"contracts/_ChunkManager.sol\":867:874  content */\n      dup10\n        /* \"contracts/_ChunkManager.sol\":876:877  j */\n      dup2\n        /* \"contracts/_ChunkManager.sol\":861:878  bytes(content)[j] */\n      dup2\n      mload\n      dup2\n      lt\n      tag_52\n      jumpi\n      tag_53\n      tag_54\n      jump\t// in\n    tag_53:\n    tag_52:\n      0x20\n      add\n      add\n      mload\n      0xf8\n      shr\n      0xf8\n      shl\n        /* \"contracts/_ChunkManager.sol\":837:847  chunkBytes */\n      dup3\n        /* \"contracts/_ChunkManager.sol\":852:857  start */\n      dup6\n        /* \"contracts/_ChunkManager.sol\":848:849  j */\n      dup4\n        /* \"contracts/_ChunkManager.sol\":848:857  j - start */\n      tag_55\n      swap2\n      swap1\n      tag_30\n      jump\t// in\n    tag_55:\n        /* \"contracts/_ChunkManager.sol\":837:858  chunkBytes[j - start] */\n      dup2\n      mload\n      dup2\n      lt\n      tag_56\n      jumpi\n      tag_57\n      tag_54\n      jump\t// in\n    tag_57:\n    tag_56:\n      0x20\n      add\n      add\n        /* \"contracts/_ChunkManager.sol\":837:878  chunkBytes[j - start] = bytes(content)[j] */\n      swap1\n      not(0xffffffffffffffffffffffffffffffffffffffffffffffffffffffffffffff)\n      and\n      swap1\n      dup2\n      0x00\n      byte\n      swap1\n      mstore8\n      pop\n        /* \"contracts/_ChunkManager.sol\":814:817  j++ */\n      dup1\n      dup1\n      0x01\n      add\n      swap2\n      pop\n      pop\n        /* \"contracts/_ChunkManager.sol\":781:893  for (uint256 j = start; j < end; j++) {... */\n      jump(tag_49)\n    tag_50:\n      pop\n        /* \"contracts/_ChunkManager.sol\":925:935  chunkBytes */\n      dup1\n        /* \"contracts/_ChunkManager.sol\":906:912  chunks */\n      dup6\n        /* \"contracts/_ChunkManager.sol\":913:914  i */\n      dup6\n        /* \"contracts/_ChunkManager.sol\":906:915  chunks[i] */\n      dup2\n      mload\n      dup2\n      lt\n      tag_58\n      jumpi\n      tag_59\n      tag_54\n      jump\t// in\n    tag_59:\n    tag_58:\n      0x20\n      mul\n      0x20\n      add\n      add\n        /* \"contracts/_ChunkManager.sol\":906:936  chunks[i] = string(chunkBytes) */\n      dup2\n      swap1\n      mstore\n      pop\n        /* \"contracts/_ChunkManager.sol\":511:947  {... */\n      pop\n      pop\n      pop\n        /* \"contracts/_ChunkManager.sol\":506:509  i++ */\n      dup1\n      dup1\n      0x01\n      add\n      swap2\n      pop\n      pop\n        /* \"contracts/_ChunkManager.sol\":471:947  for (uint256 i = 0; i < numChunks; i++) {... */\n      jump(tag_38)\n    tag_39:\n      pop\n        /* \"contracts/_ChunkManager.sol\":964:970  chunks */\n      dup1\n        /* \"contracts/_ChunkManager.sol\":957:970  return chunks */\n      swap4\n      pop\n      pop\n      pop\n      pop\n        /* \"contracts/_ChunkManager.sol\":138:977  function chunkContent(string memory content)... */\n      swap2\n      swap1\n      pop\n      jump\t// out\n        /* \"contracts/_ChunkManager.sol\":983:1668  function concatenateChunks(string[] memory chunks)... */\n    tag_16:\n        /* \"contracts/_ChunkManager.sol\":1079:1092  string memory */\n      0x60\n        /* \"contracts/_ChunkManager.sol\":1148:1167  uint256 totalLength */\n      0x00\n        /* \"contracts/_ChunkManager.sol\":1186:1195  uint256 i */\n      dup1\n        /* \"contracts/_ChunkManager.sol\":1181:1288  for (uint256 i = 0; i < chunks.length; i++) {... */\n    tag_61:\n        /* \"contracts/_ChunkManager.sol\":1205:1211  chunks */\n      dup4\n        /* \"contracts/_ChunkManager.sol\":1205:1218  chunks.length */\n      mload\n        /* \"contracts/_ChunkManager.sol\":1201:1202  i */\n      dup2\n        /* \"contracts/_ChunkManager.sol\":1201:1218  i < chunks.length */\n      lt\n        /* \"contracts/_ChunkManager.sol\":1181:1288  for (uint256 i = 0; i < chunks.length; i++) {... */\n      iszero\n      tag_62\n      jumpi\n        /* \"contracts/_ChunkManager.sol\":1260:1266  chunks */\n      dup4\n        /* \"contracts/_ChunkManager.sol\":1267:1268  i */\n      dup2\n        /* \"contracts/_ChunkManager.sol\":1260:1269  chunks[i] */\n      dup2\n      mload\n      dup2\n      lt\n      tag_64\n      jumpi\n      tag_65\n      tag_54\n      jump\t// in\n    tag_65:\n    tag_64:\n      0x20\n      mul\n      0x20\n      add\n      add\n      mload\n        /* \"contracts/_ChunkManager.sol\":1254:1277  bytes(chunks[i]).length */\n      mload\n        /* \"contracts/_ChunkManager.sol\":1239:1277  totalLength += bytes(chunks[i]).length */\n      dup3\n      tag_66\n      swap2\n      swap1\n      tag_28\n      jump\t// in\n    tag_66:\n      swap2\n      pop\n        /* \"contracts/_ChunkManager.sol\":1220:1223  i++ */\n      dup1\n      dup1\n      0x01\n      add\n      swap2\n      pop\n      pop\n        /* \"contracts/_ChunkManager.sol\":1181:1288  for (uint256 i = 0; i < chunks.length; i++) {... */\n      jump(tag_61)\n    tag_62:\n      pop\n        /* \"contracts/_ChunkManager.sol\":1298:1317  bytes memory result */\n      0x00\n        /* \"contracts/_ChunkManager.sol\":1330:1341  totalLength */\n      dup2\n        /* \"contracts/_ChunkManager.sol\":1320:1342  new bytes(totalLength) */\n      0xffffffffffffffff\n      dup2\n      gt\n      iszero\n      tag_67\n      jumpi\n      tag_68\n      tag_35\n      jump\t// in\n    tag_68:\n    tag_67:\n      mload(0x40)\n      swap1\n      dup1\n      dup3\n      mstore\n      dup1\n      0x1f\n      add\n      not(0x1f)\n      and\n      0x20\n      add\n      dup3\n      add\n      0x40\n      mstore\n      dup1\n      iszero\n      tag_69\n      jumpi\n      dup2\n      0x20\n      add\n      0x01\n      dup3\n      mul\n      dup1\n      calldatasize\n      dup4\n      calldatacopy\n      dup1\n      dup3\n      add\n      swap2\n      pop\n      pop\n      swap1\n      pop\n    tag_69:\n      pop\n        /* \"contracts/_ChunkManager.sol\":1298:1342  bytes memory result = new bytes(totalLength) */\n      swap1\n      pop\n        /* \"contracts/_ChunkManager.sol\":1352:1372  uint256 currentIndex */\n      0x00\n        /* \"contracts/_ChunkManager.sol\":1392:1401  uint256 i */\n      dup1\n        /* \"contracts/_ChunkManager.sol\":1387:1630  for (uint256 i = 0; i < chunks.length; i++) {... */\n    tag_70:\n        /* \"contracts/_ChunkManager.sol\":1411:1417  chunks */\n      dup6\n        /* \"contracts/_ChunkManager.sol\":1411:1424  chunks.length */\n      mload\n        /* \"contracts/_ChunkManager.sol\":1407:1408  i */\n      dup2\n        /* \"contracts/_ChunkManager.sol\":1407:1424  i < chunks.length */\n      lt\n        /* \"contracts/_ChunkManager.sol\":1387:1630  for (uint256 i = 0; i < chunks.length; i++) {... */\n      iszero\n      tag_71\n      jumpi\n        /* \"contracts/_ChunkManager.sol\":1445:1468  bytes memory chunkBytes */\n      0x00\n        /* \"contracts/_ChunkManager.sol\":1477:1483  chunks */\n      dup7\n        /* \"contracts/_ChunkManager.sol\":1484:1485  i */\n      dup3\n        /* \"contracts/_ChunkManager.sol\":1477:1486  chunks[i] */\n      dup2\n      mload\n      dup2\n      lt\n      tag_73\n      jumpi\n      tag_74\n      tag_54\n      jump\t// in\n    tag_74:\n    tag_73:\n      0x20\n      mul\n      0x20\n      add\n      add\n      mload\n        /* \"contracts/_ChunkManager.sol\":1445:1487  bytes memory chunkBytes = bytes(chunks[i]) */\n      swap1\n      pop\n        /* \"contracts/_ChunkManager.sol\":1506:1515  uint256 j */\n      0x00\n        /* \"contracts/_ChunkManager.sol\":1501:1620  for (uint256 j = 0; j < chunkBytes.length; j++) {... */\n    tag_75:\n        /* \"contracts/_ChunkManager.sol\":1525:1535  chunkBytes */\n      dup2\n        /* \"contracts/_ChunkManager.sol\":1525:1542  chunkBytes.length */\n      mload\n        /* \"contracts/_ChunkManager.sol\":1521:1522  j */\n      dup2\n        /* \"contracts/_ChunkManager.sol\":1521:1542  j < chunkBytes.length */\n      lt\n        /* \"contracts/_ChunkManager.sol\":1501:1620  for (uint256 j = 0; j < chunkBytes.length; j++) {... */\n      iszero\n      tag_76\n      jumpi\n        /* \"contracts/_ChunkManager.sol\":1592:1602  chunkBytes */\n      dup2\n        /* \"contracts/_ChunkManager.sol\":1603:1604  j */\n      dup2\n        /* \"contracts/_ChunkManager.sol\":1592:1605  chunkBytes[j] */\n      dup2\n      mload\n      dup2\n      lt\n      tag_78\n      jumpi\n      tag_79\n      tag_54\n      jump\t// in\n    tag_79:\n    tag_78:\n      0x20\n      add\n      add\n      mload\n      0xf8\n      shr\n      0xf8\n      shl\n        /* \"contracts/_ChunkManager.sol\":1567:1573  result */\n      dup6\n        /* \"contracts/_ChunkManager.sol\":1574:1588  currentIndex++ */\n      dup6\n      dup1\n      tag_80\n      swap1\n      tag_81\n      jump\t// in\n    tag_80:\n      swap7\n      pop\n        /* \"contracts/_ChunkManager.sol\":1567:1589  result[currentIndex++] */\n      dup2\n      mload\n      dup2\n      lt\n      tag_82\n      jumpi\n      tag_83\n      tag_54\n      jump\t// in\n    tag_83:\n    tag_82:\n      0x20\n      add\n      add\n        /* \"contracts/_ChunkManager.sol\":1567:1605  result[currentIndex++] = chunkBytes[j] */\n      swap1\n      not(0xffffffffffffffffffffffffffffffffffffffffffffffffffffffffffffff)\n      and\n      swap1\n      dup2\n      0x00\n      byte\n      swap1\n      mstore8\n      pop\n        /* \"contracts/_ChunkManager.sol\":1544:1547  j++ */\n      dup1\n      dup1\n      0x01\n      add\n      swap2\n      pop\n      pop\n        /* \"contracts/_ChunkManager.sol\":1501:1620  for (uint256 j = 0; j < chunkBytes.length; j++) {... */\n      jump(tag_75)\n    tag_76:\n      pop\n        /* \"contracts/_ChunkManager.sol\":1431:1630  {... */\n      pop\n        /* \"contracts/_ChunkManager.sol\":1426:1429  i++ */\n      dup1\n      dup1\n      0x01\n      add\n      swap2\n      pop\n      pop\n        /* \"contracts/_ChunkManager.sol\":1387:1630  for (uint256 i = 0; i < chunks.length; i++) {... */\n      jump(tag_70)\n    tag_71:\n      pop\n        /* \"contracts/_ChunkManager.sol\":1654:1660  result */\n      dup2\n        /* \"contracts/_ChunkManager.sol\":1640:1661  return string(result) */\n      swap4\n      pop\n      pop\n      pop\n      pop\n        /* \"contracts/_ChunkManager.sol\":983:1668  function concatenateChunks(string[] memory chunks)... */\n      swap2\n      swap1\n      pop\n      jump\t// out\n        /* \"contracts/_ChunkManager.sol\":89:131  uint104 public numMaxChunksDuplication = 3 */\n    tag_20:\n      0x00\n      dup1\n      sload\n      swap1\n      0x0100\n      exp\n      swap1\n      div\n      0xffffffffffffffffffffffffff\n      and\n      dup2\n      jump\t// out\n        /* \"contracts/_ChunkManager.sol\":1674:1788  function getNumMaxDuplicationCount() public view returns (uint104) {... */\n    tag_24:\n        /* \"contracts/_ChunkManager.sol\":1732:1739  uint104 */\n      0x00\n        /* \"contracts/_ChunkManager.sol\":1758:1781  numMaxChunksDuplication */\n      dup1\n      0x00\n      swap1\n      sload\n      swap1\n      0x0100\n      exp\n      swap1\n      div\n      0xffffffffffffffffffffffffff\n      and\n        /* \"contracts/_ChunkManager.sol\":1751:1781  return numMaxChunksDuplication */\n      swap1\n      pop\n        /* \"contracts/_ChunkManager.sol\":1674:1788  function getNumMaxDuplicationCount() public view returns (uint104) {... */\n      swap1\n      jump\t// out\n        /* \"#utility.yul\":7:82   */\n    tag_85:\n        /* \"#utility.yul\":40:46   */\n      0x00\n        /* \"#utility.yul\":73:75   */\n      0x40\n        /* \"#utility.yul\":67:76   */\n      mload\n        /* \"#utility.yul\":57:76   */\n      swap1\n      pop\n        /* \"#utility.yul\":7:82   */\n      swap1\n      jump\t// out\n        /* \"#utility.yul\":88:205   */\n    tag_86:\n        /* \"#utility.yul\":197:198   */\n      0x00\n        /* \"#utility.yul\":194:195   */\n      dup1\n        /* \"#utility.yul\":187:199   */\n      revert\n        /* \"#utility.yul\":211:328   */\n    tag_87:\n        /* \"#utility.yul\":320:321   */\n      0x00\n        /* \"#utility.yul\":317:318   */\n      dup1\n        /* \"#utility.yul\":310:322   */\n      revert\n        /* \"#utility.yul\":334:451   */\n    tag_88:\n        /* \"#utility.yul\":443:444   */\n      0x00\n        /* \"#utility.yul\":440:441   */\n      dup1\n        /* \"#utility.yul\":433:445   */\n      revert\n        /* \"#utility.yul\":457:574   */\n    tag_89:\n        /* \"#utility.yul\":566:567   */\n      0x00\n        /* \"#utility.yul\":563:564   */\n      dup1\n        /* \"#utility.yul\":556:568   */\n      revert\n        /* \"#utility.yul\":580:682   */\n    tag_90:\n        /* \"#utility.yul\":621:627   */\n      0x00\n        /* \"#utility.yul\":672:674   */\n      0x1f\n        /* \"#utility.yul\":668:675   */\n      not\n        /* \"#utility.yul\":663:665   */\n      0x1f\n        /* \"#utility.yul\":656:661   */\n      dup4\n        /* \"#utility.yul\":652:666   */\n      add\n        /* \"#utility.yul\":648:676   */\n      and\n        /* \"#utility.yul\":638:676   */\n      swap1\n      pop\n        /* \"#utility.yul\":580:682   */\n      swap2\n      swap1\n      pop\n      jump\t// out\n        /* \"#utility.yul\":688:868   */\n    tag_35:\n        /* \"#utility.yul\":736:813   */\n      0x4e487b7100000000000000000000000000000000000000000000000000000000\n        /* \"#utility.yul\":733:734   */\n      0x00\n        /* \"#utility.yul\":726:814   */\n      mstore\n        /* \"#utility.yul\":833:837   */\n      0x41\n        /* \"#utility.yul\":830:831   */\n      0x04\n        /* \"#utility.yul\":823:838   */\n      mstore\n        /* \"#utility.yul\":857:861   */\n      0x24\n        /* \"#utility.yul\":854:855   */\n      0x00\n        /* \"#utility.yul\":847:862   */\n      revert\n        /* \"#utility.yul\":874:1155   */\n    tag_91:\n        /* \"#utility.yul\":957:984   */\n      tag_127\n        /* \"#utility.yul\":979:983   */\n      dup3\n        /* \"#utility.yul\":957:984   */\n      tag_90\n      jump\t// in\n    tag_127:\n        /* \"#utility.yul\":949:955   */\n      dup2\n        /* \"#utility.yul\":945:985   */\n      add\n        /* \"#utility.yul\":1087:1093   */\n      dup2\n        /* \"#utility.yul\":1075:1085   */\n      dup2\n        /* \"#utility.yul\":1072:1094   */\n      lt\n        /* \"#utility.yul\":1051:1069   */\n      0xffffffffffffffff\n        /* \"#utility.yul\":1039:1049   */\n      dup3\n        /* \"#utility.yul\":1036:1070   */\n      gt\n        /* \"#utility.yul\":1033:1095   */\n      or\n        /* \"#utility.yul\":1030:1118   */\n      iszero\n      tag_128\n      jumpi\n        /* \"#utility.yul\":1098:1116   */\n      tag_129\n      tag_35\n      jump\t// in\n    tag_129:\n        /* \"#utility.yul\":1030:1118   */\n    tag_128:\n        /* \"#utility.yul\":1138:1148   */\n      dup1\n        /* \"#utility.yul\":1134:1136   */\n      0x40\n        /* \"#utility.yul\":1127:1149   */\n      mstore\n        /* \"#utility.yul\":917:1155   */\n      pop\n        /* \"#utility.yul\":874:1155   */\n      pop\n      pop\n      jump\t// out\n        /* \"#utility.yul\":1161:1290   */\n    tag_92:\n        /* \"#utility.yul\":1195:1201   */\n      0x00\n        /* \"#utility.yul\":1222:1242   */\n      tag_131\n      tag_85\n      jump\t// in\n    tag_131:\n        /* \"#utility.yul\":1212:1242   */\n      swap1\n      pop\n        /* \"#utility.yul\":1251:1284   */\n      tag_132\n        /* \"#utility.yul\":1279:1283   */\n      dup3\n        /* \"#utility.yul\":1271:1277   */\n      dup3\n        /* \"#utility.yul\":1251:1284   */\n      tag_91\n      jump\t// in\n    tag_132:\n        /* \"#utility.yul\":1161:1290   */\n      swap2\n      swap1\n      pop\n      jump\t// out\n        /* \"#utility.yul\":1296:1604   */\n    tag_93:\n        /* \"#utility.yul\":1358:1362   */\n      0x00\n        /* \"#utility.yul\":1448:1466   */\n      0xffffffffffffffff\n        /* \"#utility.yul\":1440:1446   */\n      dup3\n        /* \"#utility.yul\":1437:1467   */\n      gt\n        /* \"#utility.yul\":1434:1490   */\n      iszero\n      tag_134\n      jumpi\n        /* \"#utility.yul\":1470:1488   */\n      tag_135\n      tag_35\n      jump\t// in\n    tag_135:\n        /* \"#utility.yul\":1434:1490   */\n    tag_134:\n        /* \"#utility.yul\":1508:1537   */\n      tag_136\n        /* \"#utility.yul\":1530:1536   */\n      dup3\n        /* \"#utility.yul\":1508:1537   */\n      tag_90\n      jump\t// in\n    tag_136:\n        /* \"#utility.yul\":1500:1537   */\n      swap1\n      pop\n        /* \"#utility.yul\":1592:1596   */\n      0x20\n        /* \"#utility.yul\":1586:1590   */\n      dup2\n        /* \"#utility.yul\":1582:1597   */\n      add\n        /* \"#utility.yul\":1574:1597   */\n      swap1\n      pop\n        /* \"#utility.yul\":1296:1604   */\n      swap2\n      swap1\n      pop\n      jump\t// out\n        /* \"#utility.yul\":1610:1756   */\n    tag_94:\n        /* \"#utility.yul\":1707:1713   */\n      dup3\n        /* \"#utility.yul\":1702:1705   */\n      dup2\n        /* \"#utility.yul\":1697:1700   */\n      dup4\n        /* \"#utility.yul\":1684:1714   */\n      calldatacopy\n        /* \"#utility.yul\":1748:1749   */\n      0x00\n        /* \"#utility.yul\":1739:1745   */\n      dup4\n        /* \"#utility.yul\":1734:1737   */\n      dup4\n        /* \"#utility.yul\":1730:1746   */\n      add\n        /* \"#utility.yul\":1723:1750   */\n      mstore\n        /* \"#utility.yul\":1610:1756   */\n      pop\n      pop\n      pop\n      jump\t// out\n        /* \"#utility.yul\":1762:2187   */\n    tag_95:\n        /* \"#utility.yul\":1840:1845   */\n      0x00\n        /* \"#utility.yul\":1865:1931   */\n      tag_139\n        /* \"#utility.yul\":1881:1930   */\n      tag_140\n        /* \"#utility.yul\":1923:1929   */\n      dup5\n        /* \"#utility.yul\":1881:1930   */\n      tag_93\n      jump\t// in\n    tag_140:\n        /* \"#utility.yul\":1865:1931   */\n      tag_92\n      jump\t// in\n    tag_139:\n        /* \"#utility.yul\":1856:1931   */\n      swap1\n      pop\n        /* \"#utility.yul\":1954:1960   */\n      dup3\n        /* \"#utility.yul\":1947:1952   */\n      dup2\n        /* \"#utility.yul\":1940:1961   */\n      mstore\n        /* \"#utility.yul\":1992:1996   */\n      0x20\n        /* \"#utility.yul\":1985:1990   */\n      dup2\n        /* \"#utility.yul\":1981:1997   */\n      add\n        /* \"#utility.yul\":2030:2033   */\n      dup5\n        /* \"#utility.yul\":2021:2027   */\n      dup5\n        /* \"#utility.yul\":2016:2019   */\n      dup5\n        /* \"#utility.yul\":2012:2028   */\n      add\n        /* \"#utility.yul\":2009:2034   */\n      gt\n        /* \"#utility.yul\":2006:2118   */\n      iszero\n      tag_141\n      jumpi\n        /* \"#utility.yul\":2037:2116   */\n      tag_142\n      tag_89\n      jump\t// in\n    tag_142:\n        /* \"#utility.yul\":2006:2118   */\n    tag_141:\n        /* \"#utility.yul\":2127:2181   */\n      tag_143\n        /* \"#utility.yul\":2174:2180   */\n      dup5\n        /* \"#utility.yul\":2169:2172   */\n      dup3\n        /* \"#utility.yul\":2164:2167   */\n      dup6\n        /* \"#utility.yul\":2127:2181   */\n      tag_94\n      jump\t// in\n    tag_143:\n        /* \"#utility.yul\":1846:2187   */\n      pop\n        /* \"#utility.yul\":1762:2187   */\n      swap4\n      swap3\n      pop\n      pop\n      pop\n      jump\t// out\n        /* \"#utility.yul\":2207:2547   */\n    tag_96:\n        /* \"#utility.yul\":2263:2268   */\n      0x00\n        /* \"#utility.yul\":2312:2315   */\n      dup3\n        /* \"#utility.yul\":2305:2309   */\n      0x1f\n        /* \"#utility.yul\":2297:2303   */\n      dup4\n        /* \"#utility.yul\":2293:2310   */\n      add\n        /* \"#utility.yul\":2289:2316   */\n      slt\n        /* \"#utility.yul\":2279:2401   */\n      tag_145\n      jumpi\n        /* \"#utility.yul\":2320:2399   */\n      tag_146\n      tag_88\n      jump\t// in\n    tag_146:\n        /* \"#utility.yul\":2279:2401   */\n    tag_145:\n        /* \"#utility.yul\":2437:2443   */\n      dup2\n        /* \"#utility.yul\":2424:2444   */\n      calldataload\n        /* \"#utility.yul\":2462:2541   */\n      tag_147\n        /* \"#utility.yul\":2537:2540   */\n      dup5\n        /* \"#utility.yul\":2529:2535   */\n      dup3\n        /* \"#utility.yul\":2522:2526   */\n      0x20\n        /* \"#utility.yul\":2514:2520   */\n      dup7\n        /* \"#utility.yul\":2510:2527   */\n      add\n        /* \"#utility.yul\":2462:2541   */\n      tag_95\n      jump\t// in\n    tag_147:\n        /* \"#utility.yul\":2453:2541   */\n      swap2\n      pop\n        /* \"#utility.yul\":2269:2547   */\n      pop\n        /* \"#utility.yul\":2207:2547   */\n      swap3\n      swap2\n      pop\n      pop\n      jump\t// out\n        /* \"#utility.yul\":2553:3062   */\n    tag_9:\n        /* \"#utility.yul\":2622:2628   */\n      0x00\n        /* \"#utility.yul\":2671:2673   */\n      0x20\n        /* \"#utility.yul\":2659:2668   */\n      dup3\n        /* \"#utility.yul\":2650:2657   */\n      dup5\n        /* \"#utility.yul\":2646:2669   */\n      sub\n        /* \"#utility.yul\":2642:2674   */\n      slt\n        /* \"#utility.yul\":2639:2758   */\n      iszero\n      tag_149\n      jumpi\n        /* \"#utility.yul\":2677:2756   */\n      tag_150\n      tag_86\n      jump\t// in\n    tag_150:\n        /* \"#utility.yul\":2639:2758   */\n    tag_149:\n        /* \"#utility.yul\":2825:2826   */\n      0x00\n        /* \"#utility.yul\":2814:2823   */\n      dup3\n        /* \"#utility.yul\":2810:2827   */\n      add\n        /* \"#utility.yul\":2797:2828   */\n      calldataload\n        /* \"#utility.yul\":2855:2873   */\n      0xffffffffffffffff\n        /* \"#utility.yul\":2847:2853   */\n      dup2\n        /* \"#utility.yul\":2844:2874   */\n      gt\n        /* \"#utility.yul\":2841:2958   */\n      iszero\n      tag_151\n      jumpi\n        /* \"#utility.yul\":2877:2956   */\n      tag_152\n      tag_87\n      jump\t// in\n    tag_152:\n        /* \"#utility.yul\":2841:2958   */\n    tag_151:\n        /* \"#utility.yul\":2982:3045   */\n      tag_153\n        /* \"#utility.yul\":3037:3044   */\n      dup5\n        /* \"#utility.yul\":3028:3034   */\n      dup3\n        /* \"#utility.yul\":3017:3026   */\n      dup6\n        /* \"#utility.yul\":3013:3035   */\n      add\n        /* \"#utility.yul\":2982:3045   */\n      tag_96\n      jump\t// in\n    tag_153:\n        /* \"#utility.yul\":2972:3045   */\n      swap2\n      pop\n        /* \"#utility.yul\":2768:3055   */\n      pop\n        /* \"#utility.yul\":2553:3062   */\n      swap3\n      swap2\n      pop\n      pop\n      jump\t// out\n        /* \"#utility.yul\":3068:3192   */\n    tag_97:\n        /* \"#utility.yul\":3145:3151   */\n      0x00\n        /* \"#utility.yul\":3179:3184   */\n      dup2\n        /* \"#utility.yul\":3173:3185   */\n      mload\n        /* \"#utility.yul\":3163:3185   */\n      swap1\n      pop\n        /* \"#utility.yul\":3068:3192   */\n      swap2\n      swap1\n      pop\n      jump\t// out\n        /* \"#utility.yul\":3198:3392   */\n    tag_98:\n        /* \"#utility.yul\":3307:3318   */\n      0x00\n        /* \"#utility.yul\":3341:3347   */\n      dup3\n        /* \"#utility.yul\":3336:3339   */\n      dup3\n        /* \"#utility.yul\":3329:3348   */\n      mstore\n        /* \"#utility.yul\":3381:3385   */\n      0x20\n        /* \"#utility.yul\":3376:3379   */\n      dup3\n        /* \"#utility.yul\":3372:3386   */\n      add\n        /* \"#utility.yul\":3357:3386   */\n      swap1\n      pop\n        /* \"#utility.yul\":3198:3392   */\n      swap3\n      swap2\n      pop\n      pop\n      jump\t// out\n        /* \"#utility.yul\":3398:3540   */\n    tag_99:\n        /* \"#utility.yul\":3475:3479   */\n      0x00\n        /* \"#utility.yul\":3498:3501   */\n      dup2\n        /* \"#utility.yul\":3490:3501   */\n      swap1\n      pop\n        /* \"#utility.yul\":3528:3532   */\n      0x20\n        /* \"#utility.yul\":3523:3526   */\n      dup3\n        /* \"#utility.yul\":3519:3533   */\n      add\n        /* \"#utility.yul\":3511:3533   */\n      swap1\n      pop\n        /* \"#utility.yul\":3398:3540   */\n      swap2\n      swap1\n      pop\n      jump\t// out\n        /* \"#utility.yul\":3546:3645   */\n    tag_100:\n        /* \"#utility.yul\":3598:3604   */\n      0x00\n        /* \"#utility.yul\":3632:3637   */\n      dup2\n        /* \"#utility.yul\":3626:3638   */\n      mload\n        /* \"#utility.yul\":3616:3638   */\n      swap1\n      pop\n        /* \"#utility.yul\":3546:3645   */\n      swap2\n      swap1\n      pop\n      jump\t// out\n        /* \"#utility.yul\":3651:3810   */\n    tag_101:\n        /* \"#utility.yul\":3725:3736   */\n      0x00\n        /* \"#utility.yul\":3759:3765   */\n      dup3\n        /* \"#utility.yul\":3754:3757   */\n      dup3\n        /* \"#utility.yul\":3747:3766   */\n      mstore\n        /* \"#utility.yul\":3799:3803   */\n      0x20\n        /* \"#utility.yul\":3794:3797   */\n      dup3\n        /* \"#utility.yul\":3790:3804   */\n      add\n        /* \"#utility.yul\":3775:3804   */\n      swap1\n      pop\n        /* \"#utility.yul\":3651:3810   */\n      swap3\n      swap2\n      pop\n      pop\n      jump\t// out\n        /* \"#utility.yul\":3816:4062   */\n    tag_102:\n        /* \"#utility.yul\":3897:3898   */\n      0x00\n        /* \"#utility.yul\":3907:4020   */\n    tag_160:\n        /* \"#utility.yul\":3921:3927   */\n      dup4\n        /* \"#utility.yul\":3918:3919   */\n      dup2\n        /* \"#utility.yul\":3915:3928   */\n      lt\n        /* \"#utility.yul\":3907:4020   */\n      iszero\n      tag_162\n      jumpi\n        /* \"#utility.yul\":4006:4007   */\n      dup1\n        /* \"#utility.yul\":4001:4004   */\n      dup3\n        /* \"#utility.yul\":3997:4008   */\n      add\n        /* \"#utility.yul\":3991:4009   */\n      mload\n        /* \"#utility.yul\":3987:3988   */\n      dup2\n        /* \"#utility.yul\":3982:3985   */\n      dup5\n        /* \"#utility.yul\":3978:3989   */\n      add\n        /* \"#utility.yul\":3971:4010   */\n      mstore\n        /* \"#utility.yul\":3943:3945   */\n      0x20\n        /* \"#utility.yul\":3940:3941   */\n      dup2\n        /* \"#utility.yul\":3936:3946   */\n      add\n        /* \"#utility.yul\":3931:3946   */\n      swap1\n      pop\n        /* \"#utility.yul\":3907:4020   */\n      jump(tag_160)\n    tag_162:\n        /* \"#utility.yul\":4054:4055   */\n      0x00\n        /* \"#utility.yul\":4045:4051   */\n      dup5\n        /* \"#utility.yul\":4040:4043   */\n      dup5\n        /* \"#utility.yul\":4036:4052   */\n      add\n        /* \"#utility.yul\":4029:4056   */\n      mstore\n        /* \"#utility.yul\":3878:4062   */\n      pop\n        /* \"#utility.yul\":3816:4062   */\n      pop\n      pop\n      pop\n      jump\t// out\n        /* \"#utility.yul\":4068:4425   */\n    tag_103:\n        /* \"#utility.yul\":4146:4149   */\n      0x00\n        /* \"#utility.yul\":4174:4213   */\n      tag_164\n        /* \"#utility.yul\":4207:4212   */\n      dup3\n        /* \"#utility.yul\":4174:4213   */\n      tag_100\n      jump\t// in\n    tag_164:\n        /* \"#utility.yul\":4229:4290   */\n      tag_165\n        /* \"#utility.yul\":4283:4289   */\n      dup2\n        /* \"#utility.yul\":4278:4281   */\n      dup6\n        /* \"#utility.yul\":4229:4290   */\n      tag_101\n      jump\t// in\n    tag_165:\n        /* \"#utility.yul\":4222:4290   */\n      swap4\n      pop\n        /* \"#utility.yul\":4299:4364   */\n      tag_166\n        /* \"#utility.yul\":4357:4363   */\n      dup2\n        /* \"#utility.yul\":4352:4355   */\n      dup6\n        /* \"#utility.yul\":4345:4349   */\n      0x20\n        /* \"#utility.yul\":4338:4343   */\n      dup7\n        /* \"#utility.yul\":4334:4350   */\n      add\n        /* \"#utility.yul\":4299:4364   */\n      tag_102\n      jump\t// in\n    tag_166:\n        /* \"#utility.yul\":4389:4418   */\n      tag_167\n        /* \"#utility.yul\":4411:4417   */\n      dup2\n        /* \"#utility.yul\":4389:4418   */\n      tag_90\n      jump\t// in\n    tag_167:\n        /* \"#utility.yul\":4384:4387   */\n      dup5\n        /* \"#utility.yul\":4380:4419   */\n      add\n        /* \"#utility.yul\":4373:4419   */\n      swap2\n      pop\n        /* \"#utility.yul\":4150:4425   */\n      pop\n        /* \"#utility.yul\":4068:4425   */\n      swap3\n      swap2\n      pop\n      pop\n      jump\t// out\n        /* \"#utility.yul\":4431:4627   */\n    tag_104:\n        /* \"#utility.yul\":4520:4530   */\n      0x00\n        /* \"#utility.yul\":4555:4621   */\n      tag_169\n        /* \"#utility.yul\":4617:4620   */\n      dup4\n        /* \"#utility.yul\":4609:4615   */\n      dup4\n        /* \"#utility.yul\":4555:4621   */\n      tag_103\n      jump\t// in\n    tag_169:\n        /* \"#utility.yul\":4541:4621   */\n      swap1\n      pop\n        /* \"#utility.yul\":4431:4627   */\n      swap3\n      swap2\n      pop\n      pop\n      jump\t// out\n        /* \"#utility.yul\":4633:4756   */\n    tag_105:\n        /* \"#utility.yul\":4713:4717   */\n      0x00\n        /* \"#utility.yul\":4745:4749   */\n      0x20\n        /* \"#utility.yul\":4740:4743   */\n      dup3\n        /* \"#utility.yul\":4736:4750   */\n      add\n        /* \"#utility.yul\":4728:4750   */\n      swap1\n      pop\n        /* \"#utility.yul\":4633:4756   */\n      swap2\n      swap1\n      pop\n      jump\t// out\n        /* \"#utility.yul\":4790:5781   */\n    tag_106:\n        /* \"#utility.yul\":4929:4932   */\n      0x00\n        /* \"#utility.yul\":4958:5022   */\n      tag_172\n        /* \"#utility.yul\":5016:5021   */\n      dup3\n        /* \"#utility.yul\":4958:5022   */\n      tag_97\n      jump\t// in\n    tag_172:\n        /* \"#utility.yul\":5038:5134   */\n      tag_173\n        /* \"#utility.yul\":5127:5133   */\n      dup2\n        /* \"#utility.yul\":5122:5125   */\n      dup6\n        /* \"#utility.yul\":5038:5134   */\n      tag_98\n      jump\t// in\n    tag_173:\n        /* \"#utility.yul\":5031:5134   */\n      swap4\n      pop\n        /* \"#utility.yul\":5160:5163   */\n      dup4\n        /* \"#utility.yul\":5205:5209   */\n      0x20\n        /* \"#utility.yul\":5197:5203   */\n      dup3\n        /* \"#utility.yul\":5193:5210   */\n      mul\n        /* \"#utility.yul\":5188:5191   */\n      dup6\n        /* \"#utility.yul\":5184:5211   */\n      add\n        /* \"#utility.yul\":5235:5301   */\n      tag_174\n        /* \"#utility.yul\":5295:5300   */\n      dup6\n        /* \"#utility.yul\":5235:5301   */\n      tag_99\n      jump\t// in\n    tag_174:\n        /* \"#utility.yul\":5324:5331   */\n      dup1\n        /* \"#utility.yul\":5355:5356   */\n      0x00\n        /* \"#utility.yul\":5340:5736   */\n    tag_175:\n        /* \"#utility.yul\":5365:5371   */\n      dup6\n        /* \"#utility.yul\":5362:5363   */\n      dup2\n        /* \"#utility.yul\":5359:5372   */\n      lt\n        /* \"#utility.yul\":5340:5736   */\n      iszero\n      tag_177\n      jumpi\n        /* \"#utility.yul\":5436:5445   */\n      dup5\n        /* \"#utility.yul\":5430:5434   */\n      dup5\n        /* \"#utility.yul\":5426:5446   */\n      sub\n        /* \"#utility.yul\":5421:5424   */\n      dup10\n        /* \"#utility.yul\":5414:5447   */\n      mstore\n        /* \"#utility.yul\":5487:5493   */\n      dup2\n        /* \"#utility.yul\":5481:5494   */\n      mload\n        /* \"#utility.yul\":5515:5599   */\n      tag_178\n        /* \"#utility.yul\":5594:5598   */\n      dup6\n        /* \"#utility.yul\":5579:5592   */\n      dup3\n        /* \"#utility.yul\":5515:5599   */\n      tag_104\n      jump\t// in\n    tag_178:\n        /* \"#utility.yul\":5507:5599   */\n      swap5\n      pop\n        /* \"#utility.yul\":5622:5692   */\n      tag_179\n        /* \"#utility.yul\":5685:5691   */\n      dup4\n        /* \"#utility.yul\":5622:5692   */\n      tag_105\n      jump\t// in\n    tag_179:\n        /* \"#utility.yul\":5612:5692   */\n      swap3\n      pop\n        /* \"#utility.yul\":5721:5725   */\n      0x20\n        /* \"#utility.yul\":5716:5719   */\n      dup11\n        /* \"#utility.yul\":5712:5726   */\n      add\n        /* \"#utility.yul\":5705:5726   */\n      swap10\n      pop\n        /* \"#utility.yul\":5400:5736   */\n      pop\n        /* \"#utility.yul\":5387:5388   */\n      0x01\n        /* \"#utility.yul\":5384:5385   */\n      dup2\n        /* \"#utility.yul\":5380:5389   */\n      add\n        /* \"#utility.yul\":5375:5389   */\n      swap1\n      pop\n        /* \"#utility.yul\":5340:5736   */\n      jump(tag_175)\n    tag_177:\n        /* \"#utility.yul\":5344:5358   */\n      pop\n        /* \"#utility.yul\":5752:5756   */\n      dup3\n        /* \"#utility.yul\":5745:5756   */\n      swap8\n      pop\n        /* \"#utility.yul\":5772:5775   */\n      dup8\n        /* \"#utility.yul\":5765:5775   */\n      swap6\n      pop\n        /* \"#utility.yul\":4934:5781   */\n      pop\n      pop\n      pop\n      pop\n      pop\n        /* \"#utility.yul\":4790:5781   */\n      swap3\n      swap2\n      pop\n      pop\n      jump\t// out\n        /* \"#utility.yul\":5787:6200   */\n    tag_12:\n        /* \"#utility.yul\":5950:5954   */\n      0x00\n        /* \"#utility.yul\":5988:5990   */\n      0x20\n        /* \"#utility.yul\":5977:5986   */\n      dup3\n        /* \"#utility.yul\":5973:5991   */\n      add\n        /* \"#utility.yul\":5965:5991   */\n      swap1\n      pop\n        /* \"#utility.yul\":6037:6046   */\n      dup2\n        /* \"#utility.yul\":6031:6035   */\n      dup2\n        /* \"#utility.yul\":6027:6047   */\n      sub\n        /* \"#utility.yul\":6023:6024   */\n      0x00\n        /* \"#utility.yul\":6012:6021   */\n      dup4\n        /* \"#utility.yul\":6008:6025   */\n      add\n        /* \"#utility.yul\":6001:6048   */\n      mstore\n        /* \"#utility.yul\":6065:6193   */\n      tag_181\n        /* \"#utility.yul\":6188:6192   */\n      dup2\n        /* \"#utility.yul\":6179:6185   */\n      dup5\n        /* \"#utility.yul\":6065:6193   */\n      tag_106\n      jump\t// in\n    tag_181:\n        /* \"#utility.yul\":6057:6193   */\n      swap1\n      pop\n        /* \"#utility.yul\":5787:6200   */\n      swap3\n      swap2\n      pop\n      pop\n      jump\t// out\n        /* \"#utility.yul\":6206:6527   */\n    tag_107:\n        /* \"#utility.yul\":6293:6297   */\n      0x00\n        /* \"#utility.yul\":6383:6401   */\n      0xffffffffffffffff\n        /* \"#utility.yul\":6375:6381   */\n      dup3\n        /* \"#utility.yul\":6372:6402   */\n      gt\n        /* \"#utility.yul\":6369:6425   */\n      iszero\n      tag_183\n      jumpi\n        /* \"#utility.yul\":6405:6423   */\n      tag_184\n      tag_35\n      jump\t// in\n    tag_184:\n        /* \"#utility.yul\":6369:6425   */\n    tag_183:\n        /* \"#utility.yul\":6455:6459   */\n      0x20\n        /* \"#utility.yul\":6447:6453   */\n      dup3\n        /* \"#utility.yul\":6443:6460   */\n      mul\n        /* \"#utility.yul\":6435:6460   */\n      swap1\n      pop\n        /* \"#utility.yul\":6515:6519   */\n      0x20\n        /* \"#utility.yul\":6509:6513   */\n      dup2\n        /* \"#utility.yul\":6505:6520   */\n      add\n        /* \"#utility.yul\":6497:6520   */\n      swap1\n      pop\n        /* \"#utility.yul\":6206:6527   */\n      swap2\n      swap1\n      pop\n      jump\t// out\n        /* \"#utility.yul\":6533:6650   */\n    tag_108:\n        /* \"#utility.yul\":6642:6643   */\n      0x00\n        /* \"#utility.yul\":6639:6640   */\n      dup1\n        /* \"#utility.yul\":6632:6644   */\n      revert\n        /* \"#utility.yul\":6672:7617   */\n    tag_109:\n        /* \"#utility.yul\":6778:6783   */\n      0x00\n        /* \"#utility.yul\":6803:6894   */\n      tag_187\n        /* \"#utility.yul\":6819:6893   */\n      tag_188\n        /* \"#utility.yul\":6886:6892   */\n      dup5\n        /* \"#utility.yul\":6819:6893   */\n      tag_107\n      jump\t// in\n    tag_188:\n        /* \"#utility.yul\":6803:6894   */\n      tag_92\n      jump\t// in\n    tag_187:\n        /* \"#utility.yul\":6794:6894   */\n      swap1\n      pop\n        /* \"#utility.yul\":6914:6919   */\n      dup1\n        /* \"#utility.yul\":6943:6949   */\n      dup4\n        /* \"#utility.yul\":6936:6941   */\n      dup3\n        /* \"#utility.yul\":6929:6950   */\n      mstore\n        /* \"#utility.yul\":6977:6981   */\n      0x20\n        /* \"#utility.yul\":6970:6975   */\n      dup3\n        /* \"#utility.yul\":6966:6982   */\n      add\n        /* \"#utility.yul\":6959:6982   */\n      swap1\n      pop\n        /* \"#utility.yul\":7030:7034   */\n      0x20\n        /* \"#utility.yul\":7022:7028   */\n      dup5\n        /* \"#utility.yul\":7018:7035   */\n      mul\n        /* \"#utility.yul\":7010:7016   */\n      dup4\n        /* \"#utility.yul\":7006:7036   */\n      add\n        /* \"#utility.yul\":7059:7062   */\n      dup6\n        /* \"#utility.yul\":7051:7057   */\n      dup2\n        /* \"#utility.yul\":7048:7063   */\n      gt\n        /* \"#utility.yul\":7045:7167   */\n      iszero\n      tag_189\n      jumpi\n        /* \"#utility.yul\":7078:7157   */\n      tag_190\n      tag_108\n      jump\t// in\n    tag_190:\n        /* \"#utility.yul\":7045:7167   */\n    tag_189:\n        /* \"#utility.yul\":7193:7199   */\n      dup4\n        /* \"#utility.yul\":7176:7611   */\n    tag_191:\n        /* \"#utility.yul\":7210:7216   */\n      dup2\n        /* \"#utility.yul\":7205:7208   */\n      dup2\n        /* \"#utility.yul\":7202:7217   */\n      lt\n        /* \"#utility.yul\":7176:7611   */\n      iszero\n      tag_193\n      jumpi\n        /* \"#utility.yul\":7299:7302   */\n      dup1\n        /* \"#utility.yul\":7286:7303   */\n      calldataload\n        /* \"#utility.yul\":7335:7353   */\n      0xffffffffffffffff\n        /* \"#utility.yul\":7322:7333   */\n      dup2\n        /* \"#utility.yul\":7319:7354   */\n      gt\n        /* \"#utility.yul\":7316:7438   */\n      iszero\n      tag_194\n      jumpi\n        /* \"#utility.yul\":7357:7436   */\n      tag_195\n      tag_88\n      jump\t// in\n    tag_195:\n        /* \"#utility.yul\":7316:7438   */\n    tag_194:\n        /* \"#utility.yul\":7481:7492   */\n      dup1\n        /* \"#utility.yul\":7473:7479   */\n      dup7\n        /* \"#utility.yul\":7469:7493   */\n      add\n        /* \"#utility.yul\":7519:7566   */\n      tag_196\n        /* \"#utility.yul\":7562:7565   */\n      dup10\n        /* \"#utility.yul\":7550:7560   */\n      dup3\n        /* \"#utility.yul\":7519:7566   */\n      tag_96\n      jump\t// in\n    tag_196:\n        /* \"#utility.yul\":7514:7517   */\n      dup6\n        /* \"#utility.yul\":7507:7567   */\n      mstore\n        /* \"#utility.yul\":7596:7600   */\n      0x20\n        /* \"#utility.yul\":7591:7594   */\n      dup6\n        /* \"#utility.yul\":7587:7601   */\n      add\n        /* \"#utility.yul\":7580:7601   */\n      swap5\n      pop\n        /* \"#utility.yul\":7252:7611   */\n      pop\n      pop\n        /* \"#utility.yul\":7236:7240   */\n      0x20\n        /* \"#utility.yul\":7231:7234   */\n      dup2\n        /* \"#utility.yul\":7227:7241   */\n      add\n        /* \"#utility.yul\":7220:7241   */\n      swap1\n      pop\n        /* \"#utility.yul\":7176:7611   */\n      jump(tag_191)\n    tag_193:\n        /* \"#utility.yul\":7180:7201   */\n      pop\n        /* \"#utility.yul\":6784:7617   */\n      pop\n      pop\n        /* \"#utility.yul\":6672:7617   */\n      swap4\n      swap3\n      pop\n      pop\n      pop\n      jump\t// out\n        /* \"#utility.yul\":7639:8029   */\n    tag_110:\n        /* \"#utility.yul\":7720:7725   */\n      0x00\n        /* \"#utility.yul\":7769:7772   */\n      dup3\n        /* \"#utility.yul\":7762:7766   */\n      0x1f\n        /* \"#utility.yul\":7754:7760   */\n      dup4\n        /* \"#utility.yul\":7750:7767   */\n      add\n        /* \"#utility.yul\":7746:7773   */\n      slt\n        /* \"#utility.yul\":7736:7858   */\n      tag_198\n      jumpi\n        /* \"#utility.yul\":7777:7856   */\n      tag_199\n      tag_88\n      jump\t// in\n    tag_199:\n        /* \"#utility.yul\":7736:7858   */\n    tag_198:\n        /* \"#utility.yul\":7894:7900   */\n      dup2\n        /* \"#utility.yul\":7881:7901   */\n      calldataload\n        /* \"#utility.yul\":7919:8023   */\n      tag_200\n        /* \"#utility.yul\":8019:8022   */\n      dup5\n        /* \"#utility.yul\":8011:8017   */\n      dup3\n        /* \"#utility.yul\":8004:8008   */\n      0x20\n        /* \"#utility.yul\":7996:8002   */\n      dup7\n        /* \"#utility.yul\":7992:8009   */\n      add\n        /* \"#utility.yul\":7919:8023   */\n      tag_109\n      jump\t// in\n    tag_200:\n        /* \"#utility.yul\":7910:8023   */\n      swap2\n      pop\n        /* \"#utility.yul\":7726:8029   */\n      pop\n        /* \"#utility.yul\":7639:8029   */\n      swap3\n      swap2\n      pop\n      pop\n      jump\t// out\n        /* \"#utility.yul\":8035:8594   */\n    tag_15:\n        /* \"#utility.yul\":8129:8135   */\n      0x00\n        /* \"#utility.yul\":8178:8180   */\n      0x20\n        /* \"#utility.yul\":8166:8175   */\n      dup3\n        /* \"#utility.yul\":8157:8164   */\n      dup5\n        /* \"#utility.yul\":8153:8176   */\n      sub\n        /* \"#utility.yul\":8149:8181   */\n      slt\n        /* \"#utility.yul\":8146:8265   */\n      iszero\n      tag_202\n      jumpi\n        /* \"#utility.yul\":8184:8263   */\n      tag_203\n      tag_86\n      jump\t// in\n    tag_203:\n        /* \"#utility.yul\":8146:8265   */\n    tag_202:\n        /* \"#utility.yul\":8332:8333   */\n      0x00\n        /* \"#utility.yul\":8321:8330   */\n      dup3\n        /* \"#utility.yul\":8317:8334   */\n      add\n        /* \"#utility.yul\":8304:8335   */\n      calldataload\n        /* \"#utility.yul\":8362:8380   */\n      0xffffffffffffffff\n        /* \"#utility.yul\":8354:8360   */\n      dup2\n        /* \"#utility.yul\":8351:8381   */\n      gt\n        /* \"#utility.yul\":8348:8465   */\n      iszero\n      tag_204\n      jumpi\n        /* \"#utility.yul\":8384:8463   */\n      tag_205\n      tag_87\n      jump\t// in\n    tag_205:\n        /* \"#utility.yul\":8348:8465   */\n    tag_204:\n        /* \"#utility.yul\":8489:8577   */\n      tag_206\n        /* \"#utility.yul\":8569:8576   */\n      dup5\n        /* \"#utility.yul\":8560:8566   */\n      dup3\n        /* \"#utility.yul\":8549:8558   */\n      dup6\n        /* \"#utility.yul\":8545:8567   */\n      add\n        /* \"#utility.yul\":8489:8577   */\n      tag_110\n      jump\t// in\n    tag_206:\n        /* \"#utility.yul\":8479:8577   */\n      swap2\n      pop\n        /* \"#utility.yul\":8275:8587   */\n      pop\n        /* \"#utility.yul\":8035:8594   */\n      swap3\n      swap2\n      pop\n      pop\n      jump\t// out\n        /* \"#utility.yul\":8600:8769   */\n    tag_111:\n        /* \"#utility.yul\":8684:8695   */\n      0x00\n        /* \"#utility.yul\":8718:8724   */\n      dup3\n        /* \"#utility.yul\":8713:8716   */\n      dup3\n        /* \"#utility.yul\":8706:8725   */\n      mstore\n        /* \"#utility.yul\":8758:8762   */\n      0x20\n        /* \"#utility.yul\":8753:8756   */\n      dup3\n        /* \"#utility.yul\":8749:8763   */\n      add\n        /* \"#utility.yul\":8734:8763   */\n      swap1\n      pop\n        /* \"#utility.yul\":8600:8769   */\n      swap3\n      swap2\n      pop\n      pop\n      jump\t// out\n        /* \"#utility.yul\":8775:9152   */\n    tag_112:\n        /* \"#utility.yul\":8863:8866   */\n      0x00\n        /* \"#utility.yul\":8891:8930   */\n      tag_209\n        /* \"#utility.yul\":8924:8929   */\n      dup3\n        /* \"#utility.yul\":8891:8930   */\n      tag_100\n      jump\t// in\n    tag_209:\n        /* \"#utility.yul\":8946:9017   */\n      tag_210\n        /* \"#utility.yul\":9010:9016   */\n      dup2\n        /* \"#utility.yul\":9005:9008   */\n      dup6\n        /* \"#utility.yul\":8946:9017   */\n      tag_111\n      jump\t// in\n    tag_210:\n        /* \"#utility.yul\":8939:9017   */\n      swap4\n      pop\n        /* \"#utility.yul\":9026:9091   */\n      tag_211\n        /* \"#utility.yul\":9084:9090   */\n      dup2\n        /* \"#utility.yul\":9079:9082   */\n      dup6\n        /* \"#utility.yul\":9072:9076   */\n      0x20\n        /* \"#utility.yul\":9065:9070   */\n      dup7\n        /* \"#utility.yul\":9061:9077   */\n      add\n        /* \"#utility.yul\":9026:9091   */\n      tag_102\n      jump\t// in\n    tag_211:\n        /* \"#utility.yul\":9116:9145   */\n      tag_212\n        /* \"#utility.yul\":9138:9144   */\n      dup2\n        /* \"#utility.yul\":9116:9145   */\n      tag_90\n      jump\t// in\n    tag_212:\n        /* \"#utility.yul\":9111:9114   */\n      dup5\n        /* \"#utility.yul\":9107:9146   */\n      add\n        /* \"#utility.yul\":9100:9146   */\n      swap2\n      pop\n        /* \"#utility.yul\":8867:9152   */\n      pop\n        /* \"#utility.yul\":8775:9152   */\n      swap3\n      swap2\n      pop\n      pop\n      jump\t// out\n        /* \"#utility.yul\":9158:9471   */\n    tag_18:\n        /* \"#utility.yul\":9271:9275   */\n      0x00\n        /* \"#utility.yul\":9309:9311   */\n      0x20\n        /* \"#utility.yul\":9298:9307   */\n      dup3\n        /* \"#utility.yul\":9294:9312   */\n      add\n        /* \"#utility.yul\":9286:9312   */\n      swap1\n      pop\n        /* \"#utility.yul\":9358:9367   */\n      dup2\n        /* \"#utility.yul\":9352:9356   */\n      dup2\n        /* \"#utility.yul\":9348:9368   */\n      sub\n        /* \"#utility.yul\":9344:9345   */\n      0x00\n        /* \"#utility.yul\":9333:9342   */\n      dup4\n        /* \"#utility.yul\":9329:9346   */\n      add\n        /* \"#utility.yul\":9322:9369   */\n      mstore\n        /* \"#utility.yul\":9386:9464   */\n      tag_214\n        /* \"#utility.yul\":9459:9463   */\n      dup2\n        /* \"#utility.yul\":9450:9456   */\n      dup5\n        /* \"#utility.yul\":9386:9464   */\n      tag_112\n      jump\t// in\n    tag_214:\n        /* \"#utility.yul\":9378:9464   */\n      swap1\n      pop\n        /* \"#utility.yul\":9158:9471   */\n      swap3\n      swap2\n      pop\n      pop\n      jump\t// out\n        /* \"#utility.yul\":9477:9589   */\n    tag_113:\n        /* \"#utility.yul\":9514:9521   */\n      0x00\n        /* \"#utility.yul\":9554:9582   */\n      0xffffffffffffffffffffffffff\n        /* \"#utility.yul\":9547:9552   */\n      dup3\n        /* \"#utility.yul\":9543:9583   */\n      and\n        /* \"#utility.yul\":9532:9583   */\n      swap1\n      pop\n        /* \"#utility.yul\":9477:9589   */\n      swap2\n      swap1\n      pop\n      jump\t// out\n        /* \"#utility.yul\":9595:9713   */\n    tag_114:\n        /* \"#utility.yul\":9682:9706   */\n      tag_217\n        /* \"#utility.yul\":9700:9705   */\n      dup2\n        /* \"#utility.yul\":9682:9706   */\n      tag_113\n      jump\t// in\n    tag_217:\n        /* \"#utility.yul\":9677:9680   */\n      dup3\n        /* \"#utility.yul\":9670:9707   */\n      mstore\n        /* \"#utility.yul\":9595:9713   */\n      pop\n      pop\n      jump\t// out\n        /* \"#utility.yul\":9719:9941   */\n    tag_22:\n        /* \"#utility.yul\":9812:9816   */\n      0x00\n        /* \"#utility.yul\":9850:9852   */\n      0x20\n        /* \"#utility.yul\":9839:9848   */\n      dup3\n        /* \"#utility.yul\":9835:9853   */\n      add\n        /* \"#utility.yul\":9827:9853   */\n      swap1\n      pop\n        /* \"#utility.yul\":9863:9934   */\n      tag_219\n        /* \"#utility.yul\":9931:9932   */\n      0x00\n        /* \"#utility.yul\":9920:9929   */\n      dup4\n        /* \"#utility.yul\":9916:9933   */\n      add\n        /* \"#utility.yul\":9907:9913   */\n      dup5\n        /* \"#utility.yul\":9863:9934   */\n      tag_114\n      jump\t// in\n    tag_219:\n        /* \"#utility.yul\":9719:9941   */\n      swap3\n      swap2\n      pop\n      pop\n      jump\t// out\n        /* \"#utility.yul\":9947:10024   */\n    tag_115:\n        /* \"#utility.yul\":9984:9991   */\n      0x00\n        /* \"#utility.yul\":10013:10018   */\n      dup2\n        /* \"#utility.yul\":10002:10018   */\n      swap1\n      pop\n        /* \"#utility.yul\":9947:10024   */\n      swap2\n      swap1\n      pop\n      jump\t// out\n        /* \"#utility.yul\":10030:10210   */\n    tag_116:\n        /* \"#utility.yul\":10078:10155   */\n      0x4e487b7100000000000000000000000000000000000000000000000000000000\n        /* \"#utility.yul\":10075:10076   */\n      0x00\n        /* \"#utility.yul\":10068:10156   */\n      mstore\n        /* \"#utility.yul\":10175:10179   */\n      0x11\n        /* \"#utility.yul\":10172:10173   */\n      0x04\n        /* \"#utility.yul\":10165:10180   */\n      mstore\n        /* \"#utility.yul\":10199:10203   */\n      0x24\n        /* \"#utility.yul\":10196:10197   */\n      0x00\n        /* \"#utility.yul\":10189:10204   */\n      revert\n        /* \"#utility.yul\":10216:10407   */\n    tag_28:\n        /* \"#utility.yul\":10256:10259   */\n      0x00\n        /* \"#utility.yul\":10275:10295   */\n      tag_223\n        /* \"#utility.yul\":10293:10294   */\n      dup3\n        /* \"#utility.yul\":10275:10295   */\n      tag_115\n      jump\t// in\n    tag_223:\n        /* \"#utility.yul\":10270:10295   */\n      swap2\n      pop\n        /* \"#utility.yul\":10309:10329   */\n      tag_224\n        /* \"#utility.yul\":10327:10328   */\n      dup4\n        /* \"#utility.yul\":10309:10329   */\n      tag_115\n      jump\t// in\n    tag_224:\n        /* \"#utility.yul\":10304:10329   */\n      swap3\n      pop\n        /* \"#utility.yul\":10352:10353   */\n      dup3\n        /* \"#utility.yul\":10349:10350   */\n      dup3\n        /* \"#utility.yul\":10345:10354   */\n      add\n        /* \"#utility.yul\":10338:10354   */\n      swap1\n      pop\n        /* \"#utility.yul\":10373:10376   */\n      dup1\n        /* \"#utility.yul\":10370:10371   */\n      dup3\n        /* \"#utility.yul\":10367:10377   */\n      gt\n        /* \"#utility.yul\":10364:10400   */\n      iszero\n      tag_225\n      jumpi\n        /* \"#utility.yul\":10380:10398   */\n      tag_226\n      tag_116\n      jump\t// in\n    tag_226:\n        /* \"#utility.yul\":10364:10400   */\n    tag_225:\n        /* \"#utility.yul\":10216:10407   */\n      swap3\n      swap2\n      pop\n      pop\n      jump\t// out\n        /* \"#utility.yul\":10413:10607   */\n    tag_30:\n        /* \"#utility.yul\":10453:10457   */\n      0x00\n        /* \"#utility.yul\":10473:10493   */\n      tag_228\n        /* \"#utility.yul\":10491:10492   */\n      dup3\n        /* \"#utility.yul\":10473:10493   */\n      tag_115\n      jump\t// in\n    tag_228:\n        /* \"#utility.yul\":10468:10493   */\n      swap2\n      pop\n        /* \"#utility.yul\":10507:10527   */\n      tag_229\n        /* \"#utility.yul\":10525:10526   */\n      dup4\n        /* \"#utility.yul\":10507:10527   */\n      tag_115\n      jump\t// in\n    tag_229:\n        /* \"#utility.yul\":10502:10527   */\n      swap3\n      pop\n        /* \"#utility.yul\":10551:10552   */\n      dup3\n        /* \"#utility.yul\":10548:10549   */\n      dup3\n        /* \"#utility.yul\":10544:10553   */\n      sub\n        /* \"#utility.yul\":10536:10553   */\n      swap1\n      pop\n        /* \"#utility.yul\":10575:10576   */\n      dup2\n        /* \"#utility.yul\":10569:10573   */\n      dup2\n        /* \"#utility.yul\":10566:10577   */\n      gt\n        /* \"#utility.yul\":10563:10600   */\n      iszero\n      tag_230\n      jumpi\n        /* \"#utility.yul\":10580:10598   */\n      tag_231\n      tag_116\n      jump\t// in\n    tag_231:\n        /* \"#utility.yul\":10563:10600   */\n    tag_230:\n        /* \"#utility.yul\":10413:10607   */\n      swap3\n      swap2\n      pop\n      pop\n      jump\t// out\n        /* \"#utility.yul\":10613:10793   */\n    tag_117:\n        /* \"#utility.yul\":10661:10738   */\n      0x4e487b7100000000000000000000000000000000000000000000000000000000\n        /* \"#utility.yul\":10658:10659   */\n      0x00\n        /* \"#utility.yul\":10651:10739   */\n      mstore\n        /* \"#utility.yul\":10758:10762   */\n      0x12\n        /* \"#utility.yul\":10755:10756   */\n      0x04\n        /* \"#utility.yul\":10748:10763   */\n      mstore\n        /* \"#utility.yul\":10782:10786   */\n      0x24\n        /* \"#utility.yul\":10779:10780   */\n      0x00\n        /* \"#utility.yul\":10772:10787   */\n      revert\n        /* \"#utility.yul\":10799:10984   */\n    tag_32:\n        /* \"#utility.yul\":10839:10840   */\n      0x00\n        /* \"#utility.yul\":10856:10876   */\n      tag_234\n        /* \"#utility.yul\":10874:10875   */\n      dup3\n        /* \"#utility.yul\":10856:10876   */\n      tag_115\n      jump\t// in\n    tag_234:\n        /* \"#utility.yul\":10851:10876   */\n      swap2\n      pop\n        /* \"#utility.yul\":10890:10910   */\n      tag_235\n        /* \"#utility.yul\":10908:10909   */\n      dup4\n        /* \"#utility.yul\":10890:10910   */\n      tag_115\n      jump\t// in\n    tag_235:\n        /* \"#utility.yul\":10885:10910   */\n      swap3\n      pop\n        /* \"#utility.yul\":10929:10930   */\n      dup3\n        /* \"#utility.yul\":10919:10954   */\n      tag_236\n      jumpi\n        /* \"#utility.yul\":10934:10952   */\n      tag_237\n      tag_117\n      jump\t// in\n    tag_237:\n        /* \"#utility.yul\":10919:10954   */\n    tag_236:\n        /* \"#utility.yul\":10976:10977   */\n      dup3\n        /* \"#utility.yul\":10973:10974   */\n      dup3\n        /* \"#utility.yul\":10969:10978   */\n      div\n        /* \"#utility.yul\":10964:10978   */\n      swap1\n      pop\n        /* \"#utility.yul\":10799:10984   */\n      swap3\n      swap2\n      pop\n      pop\n      jump\t// out\n        /* \"#utility.yul\":10990:11400   */\n    tag_42:\n        /* \"#utility.yul\":11030:11037   */\n      0x00\n        /* \"#utility.yul\":11053:11073   */\n      tag_239\n        /* \"#utility.yul\":11071:11072   */\n      dup3\n        /* \"#utility.yul\":11053:11073   */\n      tag_115\n      jump\t// in\n    tag_239:\n        /* \"#utility.yul\":11048:11073   */\n      swap2\n      pop\n        /* \"#utility.yul\":11087:11107   */\n      tag_240\n        /* \"#utility.yul\":11105:11106   */\n      dup4\n        /* \"#utility.yul\":11087:11107   */\n      tag_115\n      jump\t// in\n    tag_240:\n        /* \"#utility.yul\":11082:11107   */\n      swap3\n      pop\n        /* \"#utility.yul\":11142:11143   */\n      dup3\n        /* \"#utility.yul\":11139:11140   */\n      dup3\n        /* \"#utility.yul\":11135:11144   */\n      mul\n        /* \"#utility.yul\":11164:11194   */\n      tag_241\n        /* \"#utility.yul\":11182:11193   */\n      dup2\n        /* \"#utility.yul\":11164:11194   */\n      tag_115\n      jump\t// in\n    tag_241:\n        /* \"#utility.yul\":11153:11194   */\n      swap2\n      pop\n        /* \"#utility.yul\":11343:11344   */\n      dup3\n        /* \"#utility.yul\":11334:11341   */\n      dup3\n        /* \"#utility.yul\":11330:11345   */\n      div\n        /* \"#utility.yul\":11327:11328   */\n      dup5\n        /* \"#utility.yul\":11324:11346   */\n      eq\n        /* \"#utility.yul\":11304:11305   */\n      dup4\n        /* \"#utility.yul\":11297:11306   */\n      iszero\n        /* \"#utility.yul\":11277:11360   */\n      or\n        /* \"#utility.yul\":11254:11393   */\n      tag_242\n      jumpi\n        /* \"#utility.yul\":11373:11391   */\n      tag_243\n      tag_116\n      jump\t// in\n    tag_243:\n        /* \"#utility.yul\":11254:11393   */\n    tag_242:\n        /* \"#utility.yul\":11038:11400   */\n      pop\n        /* \"#utility.yul\":10990:11400   */\n      swap3\n      swap2\n      pop\n      pop\n      jump\t// out\n        /* \"#utility.yul\":11406:11586   */\n    tag_54:\n        /* \"#utility.yul\":11454:11531   */\n      0x4e487b7100000000000000000000000000000000000000000000000000000000\n        /* \"#utility.yul\":11451:11452   */\n      0x00\n        /* \"#utility.yul\":11444:11532   */\n      mstore\n        /* \"#utility.yul\":11551:11555   */\n      0x32\n        /* \"#utility.yul\":11548:11549   */\n      0x04\n        /* \"#utility.yul\":11541:11556   */\n      mstore\n        /* \"#utility.yul\":11575:11579   */\n      0x24\n        /* \"#utility.yul\":11572:11573   */\n      0x00\n        /* \"#utility.yul\":11565:11580   */\n      revert\n        /* \"#utility.yul\":11592:11825   */\n    tag_81:\n        /* \"#utility.yul\":11631:11634   */\n      0x00\n        /* \"#utility.yul\":11654:11678   */\n      tag_246\n        /* \"#utility.yul\":11672:11677   */\n      dup3\n        /* \"#utility.yul\":11654:11678   */\n      tag_115\n      jump\t// in\n    tag_246:\n        /* \"#utility.yul\":11645:11678   */\n      swap2\n      pop\n        /* \"#utility.yul\":11700:11766   */\n      0xffffffffffffffffffffffffffffffffffffffffffffffffffffffffffffffff\n        /* \"#utility.yul\":11693:11698   */\n      dup3\n        /* \"#utility.yul\":11690:11767   */\n      sub\n        /* \"#utility.yul\":11687:11790   */\n      tag_247\n      jumpi\n        /* \"#utility.yul\":11770:11788   */\n      tag_248\n      tag_116\n      jump\t// in\n    tag_248:\n        /* \"#utility.yul\":11687:11790   */\n    tag_247:\n        /* \"#utility.yul\":11817:11818   */\n      0x01\n        /* \"#utility.yul\":11810:11815   */\n      dup3\n        /* \"#utility.yul\":11806:11819   */\n      add\n        /* \"#utility.yul\":11799:11819   */\n      swap1\n      pop\n        /* \"#utility.yul\":11592:11825   */\n      swap2\n      swap1\n      pop\n      jump\t// out\n\n    auxdata: 0xa2646970667358221220c9bd4b85e0e91d4f7e6a0d9a1c84c5d21bc9421a6cde142f5f4ea197ef03f0e764736f6c63430008160033\n}\n",
				"bytecode": {
					"linkReferences": {},
					"object": "608060405260035f806101000a8154816cffffffffffffffffffffffffff02191690836cffffffffffffffffffffffffff160217905550348015610041575f80fd5b50610af18061004f5f395ff3fe608060405234801561000f575f80fd5b506004361061004a575f3560e01c80631f37bdd21461004e57806357d7f21f1461007e5780635ffd7c06146100ae578063d8cd900a146100cc575b5f80fd5b610068600480360381019061006391906105a0565b6100ea565b604051610075919061071c565b60405180910390f35b6100986004803603810190610093919061081e565b6102ba565b6040516100a591906108ad565b60405180910390f35b6100b6610417565b6040516100c391906108f4565b60405180910390f35b6100d4610433565b6040516100e191906108f4565b60405180910390f35b60605f602090505f8160018386516101029190610943565b61010c9190610976565b61011691906109d6565b90505f8167ffffffffffffffff8111156101335761013261047c565b5b60405190808252806020026020018201604052801561016657816020015b60608152602001906001900390816101515790505b5090505f5b828110156102ae575f84826101809190610a06565b90505f858261018f9190610943565b9050875181111561019f57875190505b5f82826101ac9190610976565b67ffffffffffffffff8111156101c5576101c461047c565b5b6040519080825280601f01601f1916602001820160405280156101f75781602001600182028036833780820191505090505b5090505f8390505b8281101561027e5789818151811061021a57610219610a47565b5b602001015160f81c60f81b8285836102329190610976565b8151811061024357610242610a47565b5b60200101907effffffffffffffffffffffffffffffffffffffffffffffffffffffffffffff191690815f1a90535080806001019150506101ff565b508085858151811061029357610292610a47565b5b6020026020010181905250505050808060010191505061016b565b50809350505050919050565b60605f805b83518110156102fe578381815181106102db576102da610a47565b5b602002602001015151826102ef9190610943565b915080806001019150506102bf565b505f8167ffffffffffffffff81111561031a5761031961047c565b5b6040519080825280601f01601f19166020018201604052801561034c5781602001600182028036833780820191505090505b5090505f805b855181101561040b575f86828151811061036f5761036e610a47565b5b602002602001015190505f5b81518110156103fc5781818151811061039757610396610a47565b5b602001015160f81c60f81b8585806103ae90610a74565b9650815181106103c1576103c0610a47565b5b60200101907effffffffffffffffffffffffffffffffffffffffffffffffffffffffffffff191690815f1a905350808060010191505061037b565b50508080600101915050610352565b50819350505050919050565b5f8054906101000a90046cffffffffffffffffffffffffff1681565b5f805f9054906101000a90046cffffffffffffffffffffffffff16905090565b5f604051905090565b5f80fd5b5f80fd5b5f80fd5b5f80fd5b5f601f19601f8301169050919050565b7f4e487b71000000000000000000000000000000000000000000000000000000005f52604160045260245ffd5b6104b28261046c565b810181811067ffffffffffffffff821117156104d1576104d061047c565b5b80604052505050565b5f6104e3610453565b90506104ef82826104a9565b919050565b5f67ffffffffffffffff82111561050e5761050d61047c565b5b6105178261046c565b9050602081019050919050565b828183375f83830152505050565b5f61054461053f846104f4565b6104da565b9050828152602081018484840111156105605761055f610468565b5b61056b848285610524565b509392505050565b5f82601f83011261058757610586610464565b5b8135610597848260208601610532565b91505092915050565b5f602082840312156105b5576105b461045c565b5b5f82013567ffffffffffffffff8111156105d2576105d1610460565b5b6105de84828501610573565b91505092915050565b5f81519050919050565b5f82825260208201905092915050565b5f819050602082019050919050565b5f81519050919050565b5f82825260208201905092915050565b5f5b8381101561064757808201518184015260208101905061062c565b5f8484015250505050565b5f61065c82610610565b610666818561061a565b935061067681856020860161062a565b61067f8161046c565b840191505092915050565b5f6106958383610652565b905092915050565b5f602082019050919050565b5f6106b3826105e7565b6106bd81856105f1565b9350836020820285016106cf85610601565b805f5b8581101561070a57848403895281516106eb858261068a565b94506106f68361069d565b925060208a019950506001810190506106d2565b50829750879550505050505092915050565b5f6020820190508181035f83015261073481846106a9565b905092915050565b5f67ffffffffffffffff8211156107565761075561047c565b5b602082029050602081019050919050565b5f80fd5b5f61077d6107788461073c565b6104da565b905080838252602082019050602084028301858111156107a05761079f610767565b5b835b818110156107e757803567ffffffffffffffff8111156107c5576107c4610464565b5b8086016107d28982610573565b855260208501945050506020810190506107a2565b5050509392505050565b5f82601f83011261080557610804610464565b5b813561081584826020860161076b565b91505092915050565b5f602082840312156108335761083261045c565b5b5f82013567ffffffffffffffff8111156108505761084f610460565b5b61085c848285016107f1565b91505092915050565b5f82825260208201905092915050565b5f61087f82610610565b6108898185610865565b935061089981856020860161062a565b6108a28161046c565b840191505092915050565b5f6020820190508181035f8301526108c58184610875565b905092915050565b5f6cffffffffffffffffffffffffff82169050919050565b6108ee816108cd565b82525050565b5f6020820190506109075f8301846108e5565b92915050565b5f819050919050565b7f4e487b71000000000000000000000000000000000000000000000000000000005f52601160045260245ffd5b5f61094d8261090d565b91506109588361090d565b92508282019050808211156109705761096f610916565b5b92915050565b5f6109808261090d565b915061098b8361090d565b92508282039050818111156109a3576109a2610916565b5b92915050565b7f4e487b71000000000000000000000000000000000000000000000000000000005f52601260045260245ffd5b5f6109e08261090d565b91506109eb8361090d565b9250826109fb576109fa6109a9565b5b828204905092915050565b5f610a108261090d565b9150610a1b8361090d565b9250828202610a298161090d565b91508282048414831517610a4057610a3f610916565b5b5092915050565b7f4e487b71000000000000000000000000000000000000000000000000000000005f52603260045260245ffd5b5f610a7e8261090d565b91507fffffffffffffffffffffffffffffffffffffffffffffffffffffffffffffffff8203610ab057610aaf610916565b5b60018201905091905056fea2646970667358221220c9bd4b85e0e91d4f7e6a0d9a1c84c5d21bc9421a6cde142f5f4ea197ef03f0e764736f6c63430008160033",
					"opcodes": "PUSH1 0x80 PUSH1 0x40 MSTORE PUSH1 0x3 PUSH0 DUP1 PUSH2 0x100 EXP DUP2 SLOAD DUP2 PUSH13 0xFFFFFFFFFFFFFFFFFFFFFFFFFF MUL NOT AND SWAP1 DUP4 PUSH13 0xFFFFFFFFFFFFFFFFFFFFFFFFFF AND MUL OR SWAP1 SSTORE POP CALLVALUE DUP1 ISZERO PUSH2 0x41 JUMPI PUSH0 DUP1 REVERT JUMPDEST POP PUSH2 0xAF1 DUP1 PUSH2 0x4F PUSH0 CODECOPY PUSH0 RETURN INVALID PUSH1 0x80 PUSH1 0x40 MSTORE CALLVALUE DUP1 ISZERO PUSH2 0xF JUMPI PUSH0 DUP1 REVERT JUMPDEST POP PUSH1 0x4 CALLDATASIZE LT PUSH2 0x4A JUMPI PUSH0 CALLDATALOAD PUSH1 0xE0 SHR DUP1 PUSH4 0x1F37BDD2 EQ PUSH2 0x4E JUMPI DUP1 PUSH4 0x57D7F21F EQ PUSH2 0x7E JUMPI DUP1 PUSH4 0x5FFD7C06 EQ PUSH2 0xAE JUMPI DUP1 PUSH4 0xD8CD900A EQ PUSH2 0xCC JUMPI JUMPDEST PUSH0 DUP1 REVERT JUMPDEST PUSH2 0x68 PUSH1 0x4 DUP1 CALLDATASIZE SUB DUP2 ADD SWAP1 PUSH2 0x63 SWAP2 SWAP1 PUSH2 0x5A0 JUMP JUMPDEST PUSH2 0xEA JUMP JUMPDEST PUSH1 0x40 MLOAD PUSH2 0x75 SWAP2 SWAP1 PUSH2 0x71C JUMP JUMPDEST PUSH1 0x40 MLOAD DUP1 SWAP2 SUB SWAP1 RETURN JUMPDEST PUSH2 0x98 PUSH1 0x4 DUP1 CALLDATASIZE SUB DUP2 ADD SWAP1 PUSH2 0x93 SWAP2 SWAP1 PUSH2 0x81E JUMP JUMPDEST PUSH2 0x2BA JUMP JUMPDEST PUSH1 0x40 MLOAD PUSH2 0xA5 SWAP2 SWAP1 PUSH2 0x8AD JUMP JUMPDEST PUSH1 0x40 MLOAD DUP1 SWAP2 SUB SWAP1 RETURN JUMPDEST PUSH2 0xB6 PUSH2 0x417 JUMP JUMPDEST PUSH1 0x40 MLOAD PUSH2 0xC3 SWAP2 SWAP1 PUSH2 0x8F4 JUMP JUMPDEST PUSH1 0x40 MLOAD DUP1 SWAP2 SUB SWAP1 RETURN JUMPDEST PUSH2 0xD4 PUSH2 0x433 JUMP JUMPDEST PUSH1 0x40 MLOAD PUSH2 0xE1 SWAP2 SWAP1 PUSH2 0x8F4 JUMP JUMPDEST PUSH1 0x40 MLOAD DUP1 SWAP2 SUB SWAP1 RETURN JUMPDEST PUSH1 0x60 PUSH0 PUSH1 0x20 SWAP1 POP PUSH0 DUP2 PUSH1 0x1 DUP4 DUP7 MLOAD PUSH2 0x102 SWAP2 SWAP1 PUSH2 0x943 JUMP JUMPDEST PUSH2 0x10C SWAP2 SWAP1 PUSH2 0x976 JUMP JUMPDEST PUSH2 0x116 SWAP2 SWAP1 PUSH2 0x9D6 JUMP JUMPDEST SWAP1 POP PUSH0 DUP2 PUSH8 0xFFFFFFFFFFFFFFFF DUP2 GT ISZERO PUSH2 0x133 JUMPI PUSH2 0x132 PUSH2 0x47C JUMP JUMPDEST JUMPDEST PUSH1 0x40 MLOAD SWAP1 DUP1 DUP3 MSTORE DUP1 PUSH1 0x20 MUL PUSH1 0x20 ADD DUP3 ADD PUSH1 0x40 MSTORE DUP1 ISZERO PUSH2 0x166 JUMPI DUP2 PUSH1 0x20 ADD JUMPDEST PUSH1 0x60 DUP2 MSTORE PUSH1 0x20 ADD SWAP1 PUSH1 0x1 SWAP1 SUB SWAP1 DUP2 PUSH2 0x151 JUMPI SWAP1 POP JUMPDEST POP SWAP1 POP PUSH0 JUMPDEST DUP3 DUP2 LT ISZERO PUSH2 0x2AE JUMPI PUSH0 DUP5 DUP3 PUSH2 0x180 SWAP2 SWAP1 PUSH2 0xA06 JUMP JUMPDEST SWAP1 POP PUSH0 DUP6 DUP3 PUSH2 0x18F SWAP2 SWAP1 PUSH2 0x943 JUMP JUMPDEST SWAP1 POP DUP8 MLOAD DUP2 GT ISZERO PUSH2 0x19F JUMPI DUP8 MLOAD SWAP1 POP JUMPDEST PUSH0 DUP3 DUP3 PUSH2 0x1AC SWAP2 SWAP1 PUSH2 0x976 JUMP JUMPDEST PUSH8 0xFFFFFFFFFFFFFFFF DUP2 GT ISZERO PUSH2 0x1C5 JUMPI PUSH2 0x1C4 PUSH2 0x47C JUMP JUMPDEST JUMPDEST PUSH1 0x40 MLOAD SWAP1 DUP1 DUP3 MSTORE DUP1 PUSH1 0x1F ADD PUSH1 0x1F NOT AND PUSH1 0x20 ADD DUP3 ADD PUSH1 0x40 MSTORE DUP1 ISZERO PUSH2 0x1F7 JUMPI DUP2 PUSH1 0x20 ADD PUSH1 0x1 DUP3 MUL DUP1 CALLDATASIZE DUP4 CALLDATACOPY DUP1 DUP3 ADD SWAP2 POP POP SWAP1 POP JUMPDEST POP SWAP1 POP PUSH0 DUP4 SWAP1 POP JUMPDEST DUP3 DUP2 LT ISZERO PUSH2 0x27E JUMPI DUP10 DUP2 DUP2 MLOAD DUP2 LT PUSH2 0x21A JUMPI PUSH2 0x219 PUSH2 0xA47 JUMP JUMPDEST JUMPDEST PUSH1 0x20 ADD ADD MLOAD PUSH1 0xF8 SHR PUSH1 0xF8 SHL DUP3 DUP6 DUP4 PUSH2 0x232 SWAP2 SWAP1 PUSH2 0x976 JUMP JUMPDEST DUP2 MLOAD DUP2 LT PUSH2 0x243 JUMPI PUSH2 0x242 PUSH2 0xA47 JUMP JUMPDEST JUMPDEST PUSH1 0x20 ADD ADD SWAP1 PUSH31 0xFFFFFFFFFFFFFFFFFFFFFFFFFFFFFFFFFFFFFFFFFFFFFFFFFFFFFFFFFFFFFF NOT AND SWAP1 DUP2 PUSH0 BYTE SWAP1 MSTORE8 POP DUP1 DUP1 PUSH1 0x1 ADD SWAP2 POP POP PUSH2 0x1FF JUMP JUMPDEST POP DUP1 DUP6 DUP6 DUP2 MLOAD DUP2 LT PUSH2 0x293 JUMPI PUSH2 0x292 PUSH2 0xA47 JUMP JUMPDEST JUMPDEST PUSH1 0x20 MUL PUSH1 0x20 ADD ADD DUP2 SWAP1 MSTORE POP POP POP POP DUP1 DUP1 PUSH1 0x1 ADD SWAP2 POP POP PUSH2 0x16B JUMP JUMPDEST POP DUP1 SWAP4 POP POP POP POP SWAP2 SWAP1 POP JUMP JUMPDEST PUSH1 0x60 PUSH0 DUP1 JUMPDEST DUP4 MLOAD DUP2 LT ISZERO PUSH2 0x2FE JUMPI DUP4 DUP2 DUP2 MLOAD DUP2 LT PUSH2 0x2DB JUMPI PUSH2 0x2DA PUSH2 0xA47 JUMP JUMPDEST JUMPDEST PUSH1 0x20 MUL PUSH1 0x20 ADD ADD MLOAD MLOAD DUP3 PUSH2 0x2EF SWAP2 SWAP1 PUSH2 0x943 JUMP JUMPDEST SWAP2 POP DUP1 DUP1 PUSH1 0x1 ADD SWAP2 POP POP PUSH2 0x2BF JUMP JUMPDEST POP PUSH0 DUP2 PUSH8 0xFFFFFFFFFFFFFFFF DUP2 GT ISZERO PUSH2 0x31A JUMPI PUSH2 0x319 PUSH2 0x47C JUMP JUMPDEST JUMPDEST PUSH1 0x40 MLOAD SWAP1 DUP1 DUP3 MSTORE DUP1 PUSH1 0x1F ADD PUSH1 0x1F NOT AND PUSH1 0x20 ADD DUP3 ADD PUSH1 0x40 MSTORE DUP1 ISZERO PUSH2 0x34C JUMPI DUP2 PUSH1 0x20 ADD PUSH1 0x1 DUP3 MUL DUP1 CALLDATASIZE DUP4 CALLDATACOPY DUP1 DUP3 ADD SWAP2 POP POP SWAP1 POP JUMPDEST POP SWAP1 POP PUSH0 DUP1 JUMPDEST DUP6 MLOAD DUP2 LT ISZERO PUSH2 0x40B JUMPI PUSH0 DUP7 DUP3 DUP2 MLOAD DUP2 LT PUSH2 0x36F JUMPI PUSH2 0x36E PUSH2 0xA47 JUMP JUMPDEST JUMPDEST PUSH1 0x20 MUL PUSH1 0x20 ADD ADD MLOAD SWAP1 POP PUSH0 JUMPDEST DUP2 MLOAD DUP2 LT ISZERO PUSH2 0x3FC JUMPI DUP2 DUP2 DUP2 MLOAD DUP2 LT PUSH2 0x397 JUMPI PUSH2 0x396 PUSH2 0xA47 JUMP JUMPDEST JUMPDEST PUSH1 0x20 ADD ADD MLOAD PUSH1 0xF8 SHR PUSH1 0xF8 SHL DUP6 DUP6 DUP1 PUSH2 0x3AE SWAP1 PUSH2 0xA74 JUMP JUMPDEST SWAP7 POP DUP2 MLOAD DUP2 LT PUSH2 0x3C1 JUMPI PUSH2 0x3C0 PUSH2 0xA47 JUMP JUMPDEST JUMPDEST PUSH1 0x20 ADD ADD SWAP1 PUSH31 0xFFFFFFFFFFFFFFFFFFFFFFFFFFFFFFFFFFFFFFFFFFFFFFFFFFFFFFFFFFFFFF NOT AND SWAP1 DUP2 PUSH0 BYTE SWAP1 MSTORE8 POP DUP1 DUP1 PUSH1 0x1 ADD SWAP2 POP POP PUSH2 0x37B JUMP JUMPDEST POP POP DUP1 DUP1 PUSH1 0x1 ADD SWAP2 POP POP PUSH2 0x352 JUMP JUMPDEST POP DUP2 SWAP4 POP POP POP POP SWAP2 SWAP1 POP JUMP JUMPDEST PUSH0 DUP1 SLOAD SWAP1 PUSH2 0x100 EXP SWAP1 DIV PUSH13 0xFFFFFFFFFFFFFFFFFFFFFFFFFF AND DUP2 JUMP JUMPDEST PUSH0 DUP1 PUSH0 SWAP1 SLOAD SWAP1 PUSH2 0x100 EXP SWAP1 DIV PUSH13 0xFFFFFFFFFFFFFFFFFFFFFFFFFF AND SWAP1 POP SWAP1 JUMP JUMPDEST PUSH0 PUSH1 0x40 MLOAD SWAP1 POP SWAP1 JUMP JUMPDEST PUSH0 DUP1 REVERT JUMPDEST PUSH0 DUP1 REVERT JUMPDEST PUSH0 DUP1 REVERT JUMPDEST PUSH0 DUP1 REVERT JUMPDEST PUSH0 PUSH1 0x1F NOT PUSH1 0x1F DUP4 ADD AND SWAP1 POP SWAP2 SWAP1 POP JUMP JUMPDEST PUSH32 0x4E487B7100000000000000000000000000000000000000000000000000000000 PUSH0 MSTORE PUSH1 0x41 PUSH1 0x4 MSTORE PUSH1 0x24 PUSH0 REVERT JUMPDEST PUSH2 0x4B2 DUP3 PUSH2 0x46C JUMP JUMPDEST DUP2 ADD DUP2 DUP2 LT PUSH8 0xFFFFFFFFFFFFFFFF DUP3 GT OR ISZERO PUSH2 0x4D1 JUMPI PUSH2 0x4D0 PUSH2 0x47C JUMP JUMPDEST JUMPDEST DUP1 PUSH1 0x40 MSTORE POP POP POP JUMP JUMPDEST PUSH0 PUSH2 0x4E3 PUSH2 0x453 JUMP JUMPDEST SWAP1 POP PUSH2 0x4EF DUP3 DUP3 PUSH2 0x4A9 JUMP JUMPDEST SWAP2 SWAP1 POP JUMP JUMPDEST PUSH0 PUSH8 0xFFFFFFFFFFFFFFFF DUP3 GT ISZERO PUSH2 0x50E JUMPI PUSH2 0x50D PUSH2 0x47C JUMP JUMPDEST JUMPDEST PUSH2 0x517 DUP3 PUSH2 0x46C JUMP JUMPDEST SWAP1 POP PUSH1 0x20 DUP2 ADD SWAP1 POP SWAP2 SWAP1 POP JUMP JUMPDEST DUP3 DUP2 DUP4 CALLDATACOPY PUSH0 DUP4 DUP4 ADD MSTORE POP POP POP JUMP JUMPDEST PUSH0 PUSH2 0x544 PUSH2 0x53F DUP5 PUSH2 0x4F4 JUMP JUMPDEST PUSH2 0x4DA JUMP JUMPDEST SWAP1 POP DUP3 DUP2 MSTORE PUSH1 0x20 DUP2 ADD DUP5 DUP5 DUP5 ADD GT ISZERO PUSH2 0x560 JUMPI PUSH2 0x55F PUSH2 0x468 JUMP JUMPDEST JUMPDEST PUSH2 0x56B DUP5 DUP3 DUP6 PUSH2 0x524 JUMP JUMPDEST POP SWAP4 SWAP3 POP POP POP JUMP JUMPDEST PUSH0 DUP3 PUSH1 0x1F DUP4 ADD SLT PUSH2 0x587 JUMPI PUSH2 0x586 PUSH2 0x464 JUMP JUMPDEST JUMPDEST DUP2 CALLDATALOAD PUSH2 0x597 DUP5 DUP3 PUSH1 0x20 DUP7 ADD PUSH2 0x532 JUMP JUMPDEST SWAP2 POP POP SWAP3 SWAP2 POP POP JUMP JUMPDEST PUSH0 PUSH1 0x20 DUP3 DUP5 SUB SLT ISZERO PUSH2 0x5B5 JUMPI PUSH2 0x5B4 PUSH2 0x45C JUMP JUMPDEST JUMPDEST PUSH0 DUP3 ADD CALLDATALOAD PUSH8 0xFFFFFFFFFFFFFFFF DUP2 GT ISZERO PUSH2 0x5D2 JUMPI PUSH2 0x5D1 PUSH2 0x460 JUMP JUMPDEST JUMPDEST PUSH2 0x5DE DUP5 DUP3 DUP6 ADD PUSH2 0x573 JUMP JUMPDEST SWAP2 POP POP SWAP3 SWAP2 POP POP JUMP JUMPDEST PUSH0 DUP2 MLOAD SWAP1 POP SWAP2 SWAP1 POP JUMP JUMPDEST PUSH0 DUP3 DUP3 MSTORE PUSH1 0x20 DUP3 ADD SWAP1 POP SWAP3 SWAP2 POP POP JUMP JUMPDEST PUSH0 DUP2 SWAP1 POP PUSH1 0x20 DUP3 ADD SWAP1 POP SWAP2 SWAP1 POP JUMP JUMPDEST PUSH0 DUP2 MLOAD SWAP1 POP SWAP2 SWAP1 POP JUMP JUMPDEST PUSH0 DUP3 DUP3 MSTORE PUSH1 0x20 DUP3 ADD SWAP1 POP SWAP3 SWAP2 POP POP JUMP JUMPDEST PUSH0 JUMPDEST DUP4 DUP2 LT ISZERO PUSH2 0x647 JUMPI DUP1 DUP3 ADD MLOAD DUP2 DUP5 ADD MSTORE PUSH1 0x20 DUP2 ADD SWAP1 POP PUSH2 0x62C JUMP JUMPDEST PUSH0 DUP5 DUP5 ADD MSTORE POP POP POP POP JUMP JUMPDEST PUSH0 PUSH2 0x65C DUP3 PUSH2 0x610 JUMP JUMPDEST PUSH2 0x666 DUP2 DUP6 PUSH2 0x61A JUMP JUMPDEST SWAP4 POP PUSH2 0x676 DUP2 DUP6 PUSH1 0x20 DUP7 ADD PUSH2 0x62A JUMP JUMPDEST PUSH2 0x67F DUP2 PUSH2 0x46C JUMP JUMPDEST DUP5 ADD SWAP2 POP POP SWAP3 SWAP2 POP POP JUMP JUMPDEST PUSH0 PUSH2 0x695 DUP4 DUP4 PUSH2 0x652 JUMP JUMPDEST SWAP1 POP SWAP3 SWAP2 POP POP JUMP JUMPDEST PUSH0 PUSH1 0x20 DUP3 ADD SWAP1 POP SWAP2 SWAP1 POP JUMP JUMPDEST PUSH0 PUSH2 0x6B3 DUP3 PUSH2 0x5E7 JUMP JUMPDEST PUSH2 0x6BD DUP2 DUP6 PUSH2 0x5F1 JUMP JUMPDEST SWAP4 POP DUP4 PUSH1 0x20 DUP3 MUL DUP6 ADD PUSH2 0x6CF DUP6 PUSH2 0x601 JUMP JUMPDEST DUP1 PUSH0 JUMPDEST DUP6 DUP2 LT ISZERO PUSH2 0x70A JUMPI DUP5 DUP5 SUB DUP10 MSTORE DUP2 MLOAD PUSH2 0x6EB DUP6 DUP3 PUSH2 0x68A JUMP JUMPDEST SWAP5 POP PUSH2 0x6F6 DUP4 PUSH2 0x69D JUMP JUMPDEST SWAP3 POP PUSH1 0x20 DUP11 ADD SWAP10 POP POP PUSH1 0x1 DUP2 ADD SWAP1 POP PUSH2 0x6D2 JUMP JUMPDEST POP DUP3 SWAP8 POP DUP8 SWAP6 POP POP POP POP POP POP SWAP3 SWAP2 POP POP JUMP JUMPDEST PUSH0 PUSH1 0x20 DUP3 ADD SWAP1 POP DUP2 DUP2 SUB PUSH0 DUP4 ADD MSTORE PUSH2 0x734 DUP2 DUP5 PUSH2 0x6A9 JUMP JUMPDEST SWAP1 POP SWAP3 SWAP2 POP POP JUMP JUMPDEST PUSH0 PUSH8 0xFFFFFFFFFFFFFFFF DUP3 GT ISZERO PUSH2 0x756 JUMPI PUSH2 0x755 PUSH2 0x47C JUMP JUMPDEST JUMPDEST PUSH1 0x20 DUP3 MUL SWAP1 POP PUSH1 0x20 DUP2 ADD SWAP1 POP SWAP2 SWAP1 POP JUMP JUMPDEST PUSH0 DUP1 REVERT JUMPDEST PUSH0 PUSH2 0x77D PUSH2 0x778 DUP5 PUSH2 0x73C JUMP JUMPDEST PUSH2 0x4DA JUMP JUMPDEST SWAP1 POP DUP1 DUP4 DUP3 MSTORE PUSH1 0x20 DUP3 ADD SWAP1 POP PUSH1 0x20 DUP5 MUL DUP4 ADD DUP6 DUP2 GT ISZERO PUSH2 0x7A0 JUMPI PUSH2 0x79F PUSH2 0x767 JUMP JUMPDEST JUMPDEST DUP4 JUMPDEST DUP2 DUP2 LT ISZERO PUSH2 0x7E7 JUMPI DUP1 CALLDATALOAD PUSH8 0xFFFFFFFFFFFFFFFF DUP2 GT ISZERO PUSH2 0x7C5 JUMPI PUSH2 0x7C4 PUSH2 0x464 JUMP JUMPDEST JUMPDEST DUP1 DUP7 ADD PUSH2 0x7D2 DUP10 DUP3 PUSH2 0x573 JUMP JUMPDEST DUP6 MSTORE PUSH1 0x20 DUP6 ADD SWAP5 POP POP POP PUSH1 0x20 DUP2 ADD SWAP1 POP PUSH2 0x7A2 JUMP JUMPDEST POP POP POP SWAP4 SWAP3 POP POP POP JUMP JUMPDEST PUSH0 DUP3 PUSH1 0x1F DUP4 ADD SLT PUSH2 0x805 JUMPI PUSH2 0x804 PUSH2 0x464 JUMP JUMPDEST JUMPDEST DUP2 CALLDATALOAD PUSH2 0x815 DUP5 DUP3 PUSH1 0x20 DUP7 ADD PUSH2 0x76B JUMP JUMPDEST SWAP2 POP POP SWAP3 SWAP2 POP POP JUMP JUMPDEST PUSH0 PUSH1 0x20 DUP3 DUP5 SUB SLT ISZERO PUSH2 0x833 JUMPI PUSH2 0x832 PUSH2 0x45C JUMP JUMPDEST JUMPDEST PUSH0 DUP3 ADD CALLDATALOAD PUSH8 0xFFFFFFFFFFFFFFFF DUP2 GT ISZERO PUSH2 0x850 JUMPI PUSH2 0x84F PUSH2 0x460 JUMP JUMPDEST JUMPDEST PUSH2 0x85C DUP5 DUP3 DUP6 ADD PUSH2 0x7F1 JUMP JUMPDEST SWAP2 POP POP SWAP3 SWAP2 POP POP JUMP JUMPDEST PUSH0 DUP3 DUP3 MSTORE PUSH1 0x20 DUP3 ADD SWAP1 POP SWAP3 SWAP2 POP POP JUMP JUMPDEST PUSH0 PUSH2 0x87F DUP3 PUSH2 0x610 JUMP JUMPDEST PUSH2 0x889 DUP2 DUP6 PUSH2 0x865 JUMP JUMPDEST SWAP4 POP PUSH2 0x899 DUP2 DUP6 PUSH1 0x20 DUP7 ADD PUSH2 0x62A JUMP JUMPDEST PUSH2 0x8A2 DUP2 PUSH2 0x46C JUMP JUMPDEST DUP5 ADD SWAP2 POP POP SWAP3 SWAP2 POP POP JUMP JUMPDEST PUSH0 PUSH1 0x20 DUP3 ADD SWAP1 POP DUP2 DUP2 SUB PUSH0 DUP4 ADD MSTORE PUSH2 0x8C5 DUP2 DUP5 PUSH2 0x875 JUMP JUMPDEST SWAP1 POP SWAP3 SWAP2 POP POP JUMP JUMPDEST PUSH0 PUSH13 0xFFFFFFFFFFFFFFFFFFFFFFFFFF DUP3 AND SWAP1 POP SWAP2 SWAP1 POP JUMP JUMPDEST PUSH2 0x8EE DUP2 PUSH2 0x8CD JUMP JUMPDEST DUP3 MSTORE POP POP JUMP JUMPDEST PUSH0 PUSH1 0x20 DUP3 ADD SWAP1 POP PUSH2 0x907 PUSH0 DUP4 ADD DUP5 PUSH2 0x8E5 JUMP JUMPDEST SWAP3 SWAP2 POP POP JUMP JUMPDEST PUSH0 DUP2 SWAP1 POP SWAP2 SWAP1 POP JUMP JUMPDEST PUSH32 0x4E487B7100000000000000000000000000000000000000000000000000000000 PUSH0 MSTORE PUSH1 0x11 PUSH1 0x4 MSTORE PUSH1 0x24 PUSH0 REVERT JUMPDEST PUSH0 PUSH2 0x94D DUP3 PUSH2 0x90D JUMP JUMPDEST SWAP2 POP PUSH2 0x958 DUP4 PUSH2 0x90D JUMP JUMPDEST SWAP3 POP DUP3 DUP3 ADD SWAP1 POP DUP1 DUP3 GT ISZERO PUSH2 0x970 JUMPI PUSH2 0x96F PUSH2 0x916 JUMP JUMPDEST JUMPDEST SWAP3 SWAP2 POP POP JUMP JUMPDEST PUSH0 PUSH2 0x980 DUP3 PUSH2 0x90D JUMP JUMPDEST SWAP2 POP PUSH2 0x98B DUP4 PUSH2 0x90D JUMP JUMPDEST SWAP3 POP DUP3 DUP3 SUB SWAP1 POP DUP2 DUP2 GT ISZERO PUSH2 0x9A3 JUMPI PUSH2 0x9A2 PUSH2 0x916 JUMP JUMPDEST JUMPDEST SWAP3 SWAP2 POP POP JUMP JUMPDEST PUSH32 0x4E487B7100000000000000000000000000000000000000000000000000000000 PUSH0 MSTORE PUSH1 0x12 PUSH1 0x4 MSTORE PUSH1 0x24 PUSH0 REVERT JUMPDEST PUSH0 PUSH2 0x9E0 DUP3 PUSH2 0x90D JUMP JUMPDEST SWAP2 POP PUSH2 0x9EB DUP4 PUSH2 0x90D JUMP JUMPDEST SWAP3 POP DUP3 PUSH2 0x9FB JUMPI PUSH2 0x9FA PUSH2 0x9A9 JUMP JUMPDEST JUMPDEST DUP3 DUP3 DIV SWAP1 POP SWAP3 SWAP2 POP POP JUMP JUMPDEST PUSH0 PUSH2 0xA10 DUP3 PUSH2 0x90D JUMP JUMPDEST SWAP2 POP PUSH2 0xA1B DUP4 PUSH2 0x90D JUMP JUMPDEST SWAP3 POP DUP3 DUP3 MUL PUSH2 0xA29 DUP2 PUSH2 0x90D JUMP JUMPDEST SWAP2 POP DUP3 DUP3 DIV DUP5 EQ DUP4 ISZERO OR PUSH2 0xA40 JUMPI PUSH2 0xA3F PUSH2 0x916 JUMP JUMPDEST JUMPDEST POP SWAP3 SWAP2 POP POP JUMP JUMPDEST PUSH32 0x4E487B7100000000000000000000000000000000000000000000000000000000 PUSH0 MSTORE PUSH1 0x32 PUSH1 0x4 MSTORE PUSH1 0x24 PUSH0 REVERT JUMPDEST PUSH0 PUSH2 0xA7E DUP3 PUSH2 0x90D JUMP JUMPDEST SWAP2 POP PUSH32 0xFFFFFFFFFFFFFFFFFFFFFFFFFFFFFFFFFFFFFFFFFFFFFFFFFFFFFFFFFFFFFFFF DUP3 SUB PUSH2 0xAB0 JUMPI PUSH2 0xAAF PUSH2 0x916 JUMP JUMPDEST JUMPDEST PUSH1 0x1 DUP3 ADD SWAP1 POP SWAP2 SWAP1 POP JUMP INVALID LOG2 PUSH5 0x6970667358 0x22 SLT KECCAK256 0xC9 0xBD 0x4B DUP6 0xE0 0xE9 SAR 0x4F PUSH31 0x6A0D9A1C84C5D21BC9421A6CDE142F5F4EA197EF03F0E764736F6C63430008 AND STOP CALLER "
				},
				"gasEstimates": {
					"creation": {
						"codeDepositCost": "560200",
						"executionCost": "24858",
						"totalCost": "585058"
					},
					"external": {
						"chunkContent(string)": "infinite",
						"concatenateChunks(string[])": "infinite",
						"getNumMaxDuplicationCount()": "2517",
						"numMaxChunksDuplication()": "2485"
					}
				},
				"methodIdentifiers": {
					"chunkContent(string)": "1f37bdd2",
					"concatenateChunks(string[])": "57d7f21f",
					"getNumMaxDuplicationCount()": "d8cd900a",
					"numMaxChunksDuplication()": "5ffd7c06"
				}
			},
			"storageLayout": {
				"storage": [
					{
						"astId": 4,
						"contract": "contracts/_ChunkManager.sol:ChunkManager",
						"label": "numMaxChunksDuplication",
						"offset": 0,
						"slot": "0",
						"type": "t_uint104"
					}
				],
				"types": {
					"t_uint104": {
						"encoding": "inplace",
						"label": "uint104",
						"numberOfBytes": "13"
					}
				}
			},
			"userdoc": {
				"kind": "user",
				"methods": {},
				"version": 1
			}
		}
	}
}