{
	"contracts/_NodeManager.sol": {
		"NodeManager": {
			"abi": [
				{
					"anonymous": false,
					"inputs": [
						{
							"indexed": false,
							"internalType": "address",
							"name": "",
							"type": "address"
						}
					],
					"name": "logAddress",
					"type": "event"
				},
				{
					"anonymous": false,
					"inputs": [
						{
							"indexed": false,
							"internalType": "address",
							"name": "",
							"type": "address"
						}
					],
					"name": "logAddress2",
					"type": "event"
				},
				{
					"anonymous": false,
					"inputs": [
						{
							"indexed": false,
							"internalType": "uint256",
							"name": "",
							"type": "uint256"
						}
					],
					"name": "logNumber",
					"type": "event"
				},
				{
					"inputs": [
						{
							"internalType": "address",
							"name": "_nodeAddress",
							"type": "address"
						},
						{
							"internalType": "uint256",
							"name": "_initialStorage",
							"type": "uint256"
						}
					],
					"name": "addNode",
					"outputs": [],
					"stateMutability": "nonpayable",
					"type": "function"
				},
				{
					"inputs": [
						{
							"internalType": "uint256",
							"name": "",
							"type": "uint256"
						}
					],
					"name": "allNodes",
					"outputs": [
						{
							"internalType": "address",
							"name": "",
							"type": "address"
						}
					],
					"stateMutability": "view",
					"type": "function"
				},
				{
					"inputs": [
						{
							"internalType": "address",
							"name": "_nodeAddress",
							"type": "address"
						},
						{
							"internalType": "string",
							"name": "_fileId",
							"type": "string"
						}
					],
					"name": "deleteChunkInNode",
					"outputs": [],
					"stateMutability": "nonpayable",
					"type": "function"
				},
				{
					"inputs": [
						{
							"internalType": "uint256",
							"name": "_chunkSize",
							"type": "uint256"
						},
						{
							"internalType": "address[]",
							"name": "chunkStorageNodeTempAddress",
							"type": "address[]"
						}
					],
					"name": "findAvailableNode",
					"outputs": [
						{
							"internalType": "address",
							"name": "",
							"type": "address"
						}
					],
					"stateMutability": "nonpayable",
					"type": "function"
				},
				{
					"inputs": [],
					"name": "getAllNodes",
					"outputs": [
						{
							"internalType": "address[]",
							"name": "",
							"type": "address[]"
						}
					],
					"stateMutability": "view",
					"type": "function"
				},
				{
					"inputs": [
						{
							"internalType": "address",
							"name": "_nodeAddress",
							"type": "address"
						}
					],
					"name": "getNodeByAddress",
					"outputs": [
						{
							"components": [
								{
									"internalType": "address",
									"name": "nodeAddress",
									"type": "address"
								},
								{
									"internalType": "uint256",
									"name": "availableStorage",
									"type": "uint256"
								}
							],
							"internalType": "struct NodeManager.Node",
							"name": "",
							"type": "tuple"
						}
					],
					"stateMutability": "view",
					"type": "function"
				},
				{
					"inputs": [
						{
							"internalType": "string",
							"name": "",
							"type": "string"
						},
						{
							"internalType": "uint256",
							"name": "",
							"type": "uint256"
						}
					],
					"name": "nodeChunksAddresses",
					"outputs": [
						{
							"internalType": "address",
							"name": "",
							"type": "address"
						}
					],
					"stateMutability": "view",
					"type": "function"
				},
				{
					"inputs": [
						{
							"internalType": "address",
							"name": "",
							"type": "address"
						}
					],
					"name": "nodes",
					"outputs": [
						{
							"internalType": "address",
							"name": "nodeAddress",
							"type": "address"
						},
						{
							"internalType": "uint256",
							"name": "availableStorage",
							"type": "uint256"
						}
					],
					"stateMutability": "view",
					"type": "function"
				},
				{
					"inputs": [
						{
							"internalType": "string",
							"name": "_fileId",
							"type": "string"
						}
					],
					"name": "retrieveChunkNodeAddresses",
					"outputs": [
						{
							"internalType": "address[]",
							"name": "",
							"type": "address[]"
						}
					],
					"stateMutability": "view",
					"type": "function"
				},
				{
					"inputs": [
						{
							"internalType": "address",
							"name": "_nodeAddress",
							"type": "address"
						},
						{
							"internalType": "string",
							"name": "_chunk",
							"type": "string"
						},
						{
							"internalType": "string",
							"name": "_fileId",
							"type": "string"
						},
						{
							"internalType": "uint256",
							"name": "order",
							"type": "uint256"
						}
					],
					"name": "storeChunkInNode",
					"outputs": [],
					"stateMutability": "nonpayable",
					"type": "function"
				}
			],
			"devdoc": {
				"kind": "dev",
				"methods": {},
				"version": 1
			},
			"evm": {
				"assembly": "    /* \"contracts/_NodeManager.sol\":61:4833  contract NodeManager {... */\n  mstore(0x40, 0x80)\n  callvalue\n  dup1\n  iszero\n  tag_1\n  jumpi\n  0x00\n  dup1\n  revert\ntag_1:\n  pop\n  dataSize(sub_0)\n  dup1\n  dataOffset(sub_0)\n  0x00\n  codecopy\n  0x00\n  return\nstop\n\nsub_0: assembly {\n        /* \"contracts/_NodeManager.sol\":61:4833  contract NodeManager {... */\n      mstore(0x40, 0x80)\n      callvalue\n      dup1\n      iszero\n      tag_1\n      jumpi\n      0x00\n      dup1\n      revert\n    tag_1:\n      pop\n      jumpi(tag_2, lt(calldatasize, 0x04))\n      shr(0xe0, calldataload(0x00))\n      dup1\n      0xa1174e7d\n      gt\n      tag_13\n      jumpi\n      dup1\n      0xa1174e7d\n      eq\n      tag_8\n      jumpi\n      dup1\n      0xa9860308\n      eq\n      tag_9\n      jumpi\n      dup1\n      0xb23793d6\n      eq\n      tag_10\n      jumpi\n      dup1\n      0xc6e24c90\n      eq\n      tag_11\n      jumpi\n      dup1\n      0xfe72ae13\n      eq\n      tag_12\n      jumpi\n      jump(tag_2)\n    tag_13:\n      dup1\n      0x11bd77fe\n      eq\n      tag_3\n      jumpi\n      dup1\n      0x189a5a17\n      eq\n      tag_4\n      jumpi\n      dup1\n      0x30e00c9b\n      eq\n      tag_5\n      jumpi\n      dup1\n      0x50f1c985\n      eq\n      tag_6\n      jumpi\n      dup1\n      0x5d44762b\n      eq\n      tag_7\n      jumpi\n    tag_2:\n      0x00\n      dup1\n      revert\n        /* \"contracts/_NodeManager.sol\":473:997  function addNode(address _nodeAddress, uint256 _initialStorage) public {... */\n    tag_3:\n      tag_14\n      0x04\n      dup1\n      calldatasize\n      sub\n      dup2\n      add\n      swap1\n      tag_15\n      swap2\n      swap1\n      tag_16\n      jump\t// in\n    tag_15:\n      tag_17\n      jump\t// in\n    tag_14:\n      stop\n        /* \"contracts/_NodeManager.sol\":270:307  mapping(address => Node) public nodes */\n    tag_4:\n      tag_18\n      0x04\n      dup1\n      calldatasize\n      sub\n      dup2\n      add\n      swap1\n      tag_19\n      swap2\n      swap1\n      tag_20\n      jump\t// in\n    tag_19:\n      tag_21\n      jump\t// in\n    tag_18:\n      mload(0x40)\n      tag_22\n      swap3\n      swap2\n      swap1\n      tag_23\n      jump\t// in\n    tag_22:\n      mload(0x40)\n      dup1\n      swap2\n      sub\n      swap1\n      return\n        /* \"contracts/_NodeManager.sol\":371:426  mapping(string => address[]) public nodeChunksAddresses */\n    tag_5:\n      tag_24\n      0x04\n      dup1\n      calldatasize\n      sub\n      dup2\n      add\n      swap1\n      tag_25\n      swap2\n      swap1\n      tag_26\n      jump\t// in\n    tag_25:\n      tag_27\n      jump\t// in\n    tag_24:\n      mload(0x40)\n      tag_28\n      swap2\n      swap1\n      tag_29\n      jump\t// in\n    tag_28:\n      mload(0x40)\n      dup1\n      swap2\n      sub\n      swap1\n      return\n        /* \"contracts/_NodeManager.sol\":2200:2562  function deleteChunkInNode(address _nodeAddress, string memory _fileId)... */\n    tag_6:\n      tag_30\n      0x04\n      dup1\n      calldatasize\n      sub\n      dup2\n      add\n      swap1\n      tag_31\n      swap2\n      swap1\n      tag_32\n      jump\t// in\n    tag_31:\n      tag_33\n      jump\t// in\n    tag_30:\n      stop\n        /* \"contracts/_NodeManager.sol\":1293:1818  function storeChunkInNode(... */\n    tag_7:\n      tag_34\n      0x04\n      dup1\n      calldatasize\n      sub\n      dup2\n      add\n      swap1\n      tag_35\n      swap2\n      swap1\n      tag_36\n      jump\t// in\n    tag_35:\n      tag_37\n      jump\t// in\n    tag_34:\n      stop\n        /* \"contracts/_NodeManager.sol\":2568:2662  function getAllNodes() public view returns (address[] memory) {... */\n    tag_8:\n      tag_38\n      tag_39\n      jump\t// in\n    tag_38:\n      mload(0x40)\n      tag_40\n      swap2\n      swap1\n      tag_41\n      jump\t// in\n    tag_40:\n      mload(0x40)\n      dup1\n      swap2\n      sub\n      swap1\n      return\n        /* \"contracts/_NodeManager.sol\":2668:2821  function getNodeByAddress(address _nodeAddress)... */\n    tag_9:\n      tag_42\n      0x04\n      dup1\n      calldatasize\n      sub\n      dup2\n      add\n      swap1\n      tag_43\n      swap2\n      swap1\n      tag_20\n      jump\t// in\n    tag_43:\n      tag_44\n      jump\t// in\n    tag_42:\n      mload(0x40)\n      tag_45\n      swap2\n      swap1\n      tag_46\n      jump\t// in\n    tag_45:\n      mload(0x40)\n      dup1\n      swap2\n      sub\n      swap1\n      return\n        /* \"contracts/_NodeManager.sol\":1824:2194  function retrieveChunkNodeAddresses(string memory _fileId)... */\n    tag_10:\n      tag_47\n      0x04\n      dup1\n      calldatasize\n      sub\n      dup2\n      add\n      swap1\n      tag_48\n      swap2\n      swap1\n      tag_49\n      jump\t// in\n    tag_48:\n      tag_50\n      jump\t// in\n    tag_47:\n      mload(0x40)\n      tag_51\n      swap2\n      swap1\n      tag_41\n      jump\t// in\n    tag_51:\n      mload(0x40)\n      dup1\n      swap2\n      sub\n      swap1\n      return\n        /* \"contracts/_NodeManager.sol\":2827:4468  function findAvailableNode(... */\n    tag_11:\n      tag_52\n      0x04\n      dup1\n      calldatasize\n      sub\n      dup2\n      add\n      swap1\n      tag_53\n      swap2\n      swap1\n      tag_54\n      jump\t// in\n    tag_53:\n      tag_55\n      jump\t// in\n    tag_52:\n      mload(0x40)\n      tag_56\n      swap2\n      swap1\n      tag_29\n      jump\t// in\n    tag_56:\n      mload(0x40)\n      dup1\n      swap2\n      sub\n      swap1\n      return\n        /* \"contracts/_NodeManager.sol\":433:458  address[] public allNodes */\n    tag_12:\n      tag_57\n      0x04\n      dup1\n      calldatasize\n      sub\n      dup2\n      add\n      swap1\n      tag_58\n      swap2\n      swap1\n      tag_59\n      jump\t// in\n    tag_58:\n      tag_60\n      jump\t// in\n    tag_57:\n      mload(0x40)\n      tag_61\n      swap2\n      swap1\n      tag_29\n      jump\t// in\n    tag_61:\n      mload(0x40)\n      dup1\n      swap2\n      sub\n      swap1\n      return\n        /* \"contracts/_NodeManager.sol\":473:997  function addNode(address _nodeAddress, uint256 _initialStorage) public {... */\n    tag_17:\n        /* \"contracts/_NodeManager.sol\":627:628  0 */\n      0x00\n        /* \"contracts/_NodeManager.sol\":575:629  nodes[address(_nodeAddress)].nodeAddress == address(0) */\n      0xffffffffffffffffffffffffffffffffffffffff\n      and\n        /* \"contracts/_NodeManager.sol\":575:580  nodes */\n      0x00\n        /* \"contracts/_NodeManager.sol\":575:603  nodes[address(_nodeAddress)] */\n      dup1\n        /* \"contracts/_NodeManager.sol\":589:601  _nodeAddress */\n      dup5\n        /* \"contracts/_NodeManager.sol\":575:603  nodes[address(_nodeAddress)] */\n      0xffffffffffffffffffffffffffffffffffffffff\n      and\n      0xffffffffffffffffffffffffffffffffffffffff\n      and\n      dup2\n      mstore\n      0x20\n      add\n      swap1\n      dup2\n      mstore\n      0x20\n      add\n      0x00\n      keccak256\n        /* \"contracts/_NodeManager.sol\":575:615  nodes[address(_nodeAddress)].nodeAddress */\n      0x00\n      add\n      0x00\n      swap1\n      sload\n      swap1\n      0x0100\n      exp\n      swap1\n      div\n      0xffffffffffffffffffffffffffffffffffffffff\n      and\n        /* \"contracts/_NodeManager.sol\":575:629  nodes[address(_nodeAddress)].nodeAddress == address(0) */\n      0xffffffffffffffffffffffffffffffffffffffff\n      and\n      eq\n        /* \"contracts/_NodeManager.sol\":554:674  require(... */\n      tag_63\n      jumpi\n      mload(0x40)\n      0x08c379a000000000000000000000000000000000000000000000000000000000\n      dup2\n      mstore\n      0x04\n      add\n      tag_64\n      swap1\n      tag_65\n      jump\t// in\n    tag_64:\n      mload(0x40)\n      dup1\n      swap2\n      sub\n      swap1\n      revert\n    tag_63:\n        /* \"contracts/_NodeManager.sol\":763:874  Node({... */\n      mload(0x40)\n      dup1\n      0x40\n      add\n      0x40\n      mstore\n      dup1\n        /* \"contracts/_NodeManager.sol\":803:815  _nodeAddress */\n      dup4\n        /* \"contracts/_NodeManager.sol\":763:874  Node({... */\n      0xffffffffffffffffffffffffffffffffffffffff\n      and\n      dup2\n      mstore\n      0x20\n      add\n        /* \"contracts/_NodeManager.sol\":848:863  _initialStorage */\n      dup3\n        /* \"contracts/_NodeManager.sol\":763:874  Node({... */\n      dup2\n      mstore\n      pop\n        /* \"contracts/_NodeManager.sol\":732:737  nodes */\n      0x00\n        /* \"contracts/_NodeManager.sol\":732:760  nodes[address(_nodeAddress)] */\n      dup1\n        /* \"contracts/_NodeManager.sol\":746:758  _nodeAddress */\n      dup5\n        /* \"contracts/_NodeManager.sol\":732:760  nodes[address(_nodeAddress)] */\n      0xffffffffffffffffffffffffffffffffffffffff\n      and\n      0xffffffffffffffffffffffffffffffffffffffff\n      and\n      dup2\n      mstore\n      0x20\n      add\n      swap1\n      dup2\n      mstore\n      0x20\n      add\n      0x00\n      keccak256\n        /* \"contracts/_NodeManager.sol\":732:874  nodes[address(_nodeAddress)] = Node({... */\n      0x00\n      dup3\n      add\n      mload\n      dup2\n      0x00\n      add\n      exp(0x0100, 0x00)\n      dup2\n      sload\n      dup2\n      0xffffffffffffffffffffffffffffffffffffffff\n      mul\n      not\n      and\n      swap1\n      dup4\n      0xffffffffffffffffffffffffffffffffffffffff\n      and\n      mul\n      or\n      swap1\n      sstore\n      pop\n      0x20\n      dup3\n      add\n      mload\n      dup2\n      0x01\n      add\n      sstore\n      swap1\n      pop\n      pop\n        /* \"contracts/_NodeManager.sol\":889:922  logAddress(address(_nodeAddress)) */\n      0x5f91b0afd2c6ef8da92137ba907bccdc85ec4856a15ad39de3e0eff02be6d70e\n        /* \"contracts/_NodeManager.sol\":908:920  _nodeAddress */\n      dup3\n        /* \"contracts/_NodeManager.sol\":889:922  logAddress(address(_nodeAddress)) */\n      mload(0x40)\n      tag_66\n      swap2\n      swap1\n      tag_29\n      jump\t// in\n    tag_66:\n      mload(0x40)\n      dup1\n      swap2\n      sub\n      swap1\n      log1\n        /* \"contracts/_NodeManager.sol\":954:962  allNodes */\n      0x02\n        /* \"contracts/_NodeManager.sol\":976:988  _nodeAddress */\n      dup3\n        /* \"contracts/_NodeManager.sol\":954:990  allNodes.push(address(_nodeAddress)) */\n      swap1\n      dup1\n      0x01\n      dup2\n      sload\n      add\n      dup1\n      dup3\n      sstore\n      dup1\n      swap2\n      pop\n      pop\n      0x01\n      swap1\n      sub\n      swap1\n      0x00\n      mstore\n      keccak256(0x00, 0x20)\n      add\n      0x00\n      swap1\n      swap2\n      swap1\n      swap2\n      swap1\n      swap2\n      0x0100\n      exp\n      dup2\n      sload\n      dup2\n      0xffffffffffffffffffffffffffffffffffffffff\n      mul\n      not\n      and\n      swap1\n      dup4\n      0xffffffffffffffffffffffffffffffffffffffff\n      and\n      mul\n      or\n      swap1\n      sstore\n      pop\n        /* \"contracts/_NodeManager.sol\":473:997  function addNode(address _nodeAddress, uint256 _initialStorage) public {... */\n      pop\n      pop\n      jump\t// out\n        /* \"contracts/_NodeManager.sol\":270:307  mapping(address => Node) public nodes */\n    tag_21:\n      mstore(0x20, 0x00)\n      dup1\n      0x00\n      mstore\n      keccak256(0x00, 0x40)\n      0x00\n      swap2\n      pop\n      swap1\n      pop\n      dup1\n      0x00\n      add\n      0x00\n      swap1\n      sload\n      swap1\n      0x0100\n      exp\n      swap1\n      div\n      0xffffffffffffffffffffffffffffffffffffffff\n      and\n      swap1\n      dup1\n      0x01\n      add\n      sload\n      swap1\n      pop\n      dup3\n      jump\t// out\n        /* \"contracts/_NodeManager.sol\":371:426  mapping(string => address[]) public nodeChunksAddresses */\n    tag_27:\n      0x01\n      dup3\n      dup1\n      mload\n      0x20\n      dup2\n      add\n      dup3\n      add\n      dup1\n      mload\n      dup5\n      dup3\n      mstore\n      0x20\n      dup4\n      add\n      0x20\n      dup6\n      add\n      keccak256\n      dup2\n      dup4\n      mstore\n      dup1\n      swap6\n      pop\n      pop\n      pop\n      pop\n      pop\n      pop\n      dup2\n      dup2\n      sload\n      dup2\n      lt\n      tag_68\n      jumpi\n      0x00\n      dup1\n      revert\n    tag_68:\n      swap1\n      0x00\n      mstore\n      keccak256(0x00, 0x20)\n      add\n      0x00\n      swap2\n      pop\n      swap2\n      pop\n      swap1\n      sload\n      swap1\n      0x0100\n      exp\n      swap1\n      div\n      0xffffffffffffffffffffffffffffffffffffffff\n      and\n      dup2\n      jump\t// out\n        /* \"contracts/_NodeManager.sol\":2200:2562  function deleteChunkInNode(address _nodeAddress, string memory _fileId)... */\n    tag_33:\n        /* \"contracts/_NodeManager.sol\":2365:2366  0 */\n      0x00\n        /* \"contracts/_NodeManager.sol\":2322:2367  nodes[_nodeAddress].nodeAddress != address(0) */\n      0xffffffffffffffffffffffffffffffffffffffff\n      and\n        /* \"contracts/_NodeManager.sol\":2322:2327  nodes */\n      0x00\n        /* \"contracts/_NodeManager.sol\":2322:2341  nodes[_nodeAddress] */\n      dup1\n        /* \"contracts/_NodeManager.sol\":2328:2340  _nodeAddress */\n      dup5\n        /* \"contracts/_NodeManager.sol\":2322:2341  nodes[_nodeAddress] */\n      0xffffffffffffffffffffffffffffffffffffffff\n      and\n      0xffffffffffffffffffffffffffffffffffffffff\n      and\n      dup2\n      mstore\n      0x20\n      add\n      swap1\n      dup2\n      mstore\n      0x20\n      add\n      0x00\n      keccak256\n        /* \"contracts/_NodeManager.sol\":2322:2353  nodes[_nodeAddress].nodeAddress */\n      0x00\n      add\n      0x00\n      swap1\n      sload\n      swap1\n      0x0100\n      exp\n      swap1\n      div\n      0xffffffffffffffffffffffffffffffffffffffff\n      and\n        /* \"contracts/_NodeManager.sol\":2322:2367  nodes[_nodeAddress].nodeAddress != address(0) */\n      0xffffffffffffffffffffffffffffffffffffffff\n      and\n      sub\n        /* \"contracts/_NodeManager.sol\":2301:2412  require(... */\n      tag_71\n      jumpi\n      mload(0x40)\n      0x08c379a000000000000000000000000000000000000000000000000000000000\n      dup2\n      mstore\n      0x04\n      add\n      tag_72\n      swap1\n      tag_73\n      jump\t// in\n    tag_72:\n      mload(0x40)\n      dup1\n      swap2\n      sub\n      swap1\n      revert\n    tag_71:\n        /* \"contracts/_NodeManager.sol\":2527:2546  nodeChunksAddresses */\n      0x01\n        /* \"contracts/_NodeManager.sol\":2547:2554  _fileId */\n      dup2\n        /* \"contracts/_NodeManager.sol\":2527:2555  nodeChunksAddresses[_fileId] */\n      mload(0x40)\n      tag_74\n      swap2\n      swap1\n      tag_75\n      jump\t// in\n    tag_74:\n      swap1\n      dup2\n      mstore\n      0x20\n      add\n      mload(0x40)\n      dup1\n      swap2\n      sub\n      swap1\n      keccak256\n      0x00\n        /* \"contracts/_NodeManager.sol\":2520:2555  delete nodeChunksAddresses[_fileId] */\n      tag_76\n      swap2\n      swap1\n      tag_77\n      jump\t// in\n    tag_76:\n        /* \"contracts/_NodeManager.sol\":2200:2562  function deleteChunkInNode(address _nodeAddress, string memory _fileId)... */\n      pop\n      pop\n      jump\t// out\n        /* \"contracts/_NodeManager.sol\":1293:1818  function storeChunkInNode(... */\n    tag_37:\n        /* \"contracts/_NodeManager.sol\":1520:1521  0 */\n      0x00\n        /* \"contracts/_NodeManager.sol\":1477:1522  nodes[_nodeAddress].nodeAddress != address(0) */\n      0xffffffffffffffffffffffffffffffffffffffff\n      and\n        /* \"contracts/_NodeManager.sol\":1477:1482  nodes */\n      0x00\n        /* \"contracts/_NodeManager.sol\":1477:1496  nodes[_nodeAddress] */\n      dup1\n        /* \"contracts/_NodeManager.sol\":1483:1495  _nodeAddress */\n      dup7\n        /* \"contracts/_NodeManager.sol\":1477:1496  nodes[_nodeAddress] */\n      0xffffffffffffffffffffffffffffffffffffffff\n      and\n      0xffffffffffffffffffffffffffffffffffffffff\n      and\n      dup2\n      mstore\n      0x20\n      add\n      swap1\n      dup2\n      mstore\n      0x20\n      add\n      0x00\n      keccak256\n        /* \"contracts/_NodeManager.sol\":1477:1508  nodes[_nodeAddress].nodeAddress */\n      0x00\n      add\n      0x00\n      swap1\n      sload\n      swap1\n      0x0100\n      exp\n      swap1\n      div\n      0xffffffffffffffffffffffffffffffffffffffff\n      and\n        /* \"contracts/_NodeManager.sol\":1477:1522  nodes[_nodeAddress].nodeAddress != address(0) */\n      0xffffffffffffffffffffffffffffffffffffffff\n      and\n      sub\n        /* \"contracts/_NodeManager.sol\":1456:1567  require(... */\n      tag_79\n      jumpi\n      mload(0x40)\n      0x08c379a000000000000000000000000000000000000000000000000000000000\n      dup2\n      mstore\n      0x04\n      add\n      tag_80\n      swap1\n      tag_73\n      jump\t// in\n    tag_80:\n      mload(0x40)\n      dup1\n      swap2\n      sub\n      swap1\n      revert\n    tag_79:\n        /* \"contracts/_NodeManager.sol\":1678:1738  isAddressPresent(_nodeAddress, nodeChunksAddresses[_fileId]) */\n      tag_81\n        /* \"contracts/_NodeManager.sol\":1695:1707  _nodeAddress */\n      dup5\n        /* \"contracts/_NodeManager.sol\":1709:1728  nodeChunksAddresses */\n      0x01\n        /* \"contracts/_NodeManager.sol\":1729:1736  _fileId */\n      dup5\n        /* \"contracts/_NodeManager.sol\":1709:1737  nodeChunksAddresses[_fileId] */\n      mload(0x40)\n      tag_82\n      swap2\n      swap1\n      tag_75\n      jump\t// in\n    tag_82:\n      swap1\n      dup2\n      mstore\n      0x20\n      add\n      mload(0x40)\n      dup1\n      swap2\n      sub\n      swap1\n      keccak256\n        /* \"contracts/_NodeManager.sol\":1678:1738  isAddressPresent(_nodeAddress, nodeChunksAddresses[_fileId]) */\n      dup1\n      sload\n      dup1\n      0x20\n      mul\n      0x20\n      add\n      mload(0x40)\n      swap1\n      dup2\n      add\n      0x40\n      mstore\n      dup1\n      swap3\n      swap2\n      swap1\n      dup2\n      dup2\n      mstore\n      0x20\n      add\n      dup3\n      dup1\n      sload\n      dup1\n      iszero\n      tag_83\n      jumpi\n      0x20\n      mul\n      dup3\n      add\n      swap2\n      swap1\n      0x00\n      mstore\n      keccak256(0x00, 0x20)\n      swap1\n    tag_84:\n      dup2\n      0x00\n      swap1\n      sload\n      swap1\n      0x0100\n      exp\n      swap1\n      div\n      0xffffffffffffffffffffffffffffffffffffffff\n      and\n      0xffffffffffffffffffffffffffffffffffffffff\n      and\n      dup2\n      mstore\n      0x20\n      add\n      swap1\n      0x01\n      add\n      swap1\n      dup1\n      dup4\n      gt\n      tag_84\n      jumpi\n    tag_83:\n      pop\n      pop\n      pop\n      pop\n      pop\n        /* \"contracts/_NodeManager.sol\":1678:1694  isAddressPresent */\n      tag_85\n        /* \"contracts/_NodeManager.sol\":1678:1738  isAddressPresent(_nodeAddress, nodeChunksAddresses[_fileId]) */\n      jump\t// in\n    tag_81:\n        /* \"contracts/_NodeManager.sol\":1673:1812  if (!isAddressPresent(_nodeAddress, nodeChunksAddresses[_fileId])) {... */\n      tag_86\n      jumpi\n        /* \"contracts/_NodeManager.sol\":1754:1773  nodeChunksAddresses */\n      0x01\n        /* \"contracts/_NodeManager.sol\":1774:1781  _fileId */\n      dup3\n        /* \"contracts/_NodeManager.sol\":1754:1782  nodeChunksAddresses[_fileId] */\n      mload(0x40)\n      tag_87\n      swap2\n      swap1\n      tag_75\n      jump\t// in\n    tag_87:\n      swap1\n      dup2\n      mstore\n      0x20\n      add\n      mload(0x40)\n      dup1\n      swap2\n      sub\n      swap1\n      keccak256\n        /* \"contracts/_NodeManager.sol\":1788:1800  _nodeAddress */\n      dup5\n        /* \"contracts/_NodeManager.sol\":1754:1801  nodeChunksAddresses[_fileId].push(_nodeAddress) */\n      swap1\n      dup1\n      0x01\n      dup2\n      sload\n      add\n      dup1\n      dup3\n      sstore\n      dup1\n      swap2\n      pop\n      pop\n      0x01\n      swap1\n      sub\n      swap1\n      0x00\n      mstore\n      keccak256(0x00, 0x20)\n      add\n      0x00\n      swap1\n      swap2\n      swap1\n      swap2\n      swap1\n      swap2\n      0x0100\n      exp\n      dup2\n      sload\n      dup2\n      0xffffffffffffffffffffffffffffffffffffffff\n      mul\n      not\n      and\n      swap1\n      dup4\n      0xffffffffffffffffffffffffffffffffffffffff\n      and\n      mul\n      or\n      swap1\n      sstore\n      pop\n        /* \"contracts/_NodeManager.sol\":1673:1812  if (!isAddressPresent(_nodeAddress, nodeChunksAddresses[_fileId])) {... */\n    tag_86:\n        /* \"contracts/_NodeManager.sol\":1293:1818  function storeChunkInNode(... */\n      pop\n      pop\n      pop\n      pop\n      jump\t// out\n        /* \"contracts/_NodeManager.sol\":2568:2662  function getAllNodes() public view returns (address[] memory) {... */\n    tag_39:\n        /* \"contracts/_NodeManager.sol\":2612:2628  address[] memory */\n      0x60\n        /* \"contracts/_NodeManager.sol\":2647:2655  allNodes */\n      0x02\n        /* \"contracts/_NodeManager.sol\":2640:2655  return allNodes */\n      dup1\n      sload\n      dup1\n      0x20\n      mul\n      0x20\n      add\n      mload(0x40)\n      swap1\n      dup2\n      add\n      0x40\n      mstore\n      dup1\n      swap3\n      swap2\n      swap1\n      dup2\n      dup2\n      mstore\n      0x20\n      add\n      dup3\n      dup1\n      sload\n      dup1\n      iszero\n      tag_90\n      jumpi\n      0x20\n      mul\n      dup3\n      add\n      swap2\n      swap1\n      0x00\n      mstore\n      keccak256(0x00, 0x20)\n      swap1\n    tag_91:\n      dup2\n      0x00\n      swap1\n      sload\n      swap1\n      0x0100\n      exp\n      swap1\n      div\n      0xffffffffffffffffffffffffffffffffffffffff\n      and\n      0xffffffffffffffffffffffffffffffffffffffff\n      and\n      dup2\n      mstore\n      0x20\n      add\n      swap1\n      0x01\n      add\n      swap1\n      dup1\n      dup4\n      gt\n      tag_91\n      jumpi\n    tag_90:\n      pop\n      pop\n      pop\n      pop\n      pop\n      swap1\n      pop\n        /* \"contracts/_NodeManager.sol\":2568:2662  function getAllNodes() public view returns (address[] memory) {... */\n      swap1\n      jump\t// out\n        /* \"contracts/_NodeManager.sol\":2668:2821  function getNodeByAddress(address _nodeAddress)... */\n    tag_44:\n        /* \"contracts/_NodeManager.sol\":2761:2772  Node memory */\n      tag_92\n      tag_93\n      jump\t// in\n    tag_92:\n        /* \"contracts/_NodeManager.sol\":2795:2800  nodes */\n      0x00\n        /* \"contracts/_NodeManager.sol\":2795:2814  nodes[_nodeAddress] */\n      dup1\n        /* \"contracts/_NodeManager.sol\":2801:2813  _nodeAddress */\n      dup4\n        /* \"contracts/_NodeManager.sol\":2795:2814  nodes[_nodeAddress] */\n      0xffffffffffffffffffffffffffffffffffffffff\n      and\n      0xffffffffffffffffffffffffffffffffffffffff\n      and\n      dup2\n      mstore\n      0x20\n      add\n      swap1\n      dup2\n      mstore\n      0x20\n      add\n      0x00\n      keccak256\n        /* \"contracts/_NodeManager.sol\":2788:2814  return nodes[_nodeAddress] */\n      mload(0x40)\n      dup1\n      0x40\n      add\n      0x40\n      mstore\n      swap1\n      dup2\n      0x00\n      dup3\n      add\n      0x00\n      swap1\n      sload\n      swap1\n      0x0100\n      exp\n      swap1\n      div\n      0xffffffffffffffffffffffffffffffffffffffff\n      and\n      0xffffffffffffffffffffffffffffffffffffffff\n      and\n      0xffffffffffffffffffffffffffffffffffffffff\n      and\n      dup2\n      mstore\n      0x20\n      add\n      0x01\n      dup3\n      add\n      sload\n      dup2\n      mstore\n      pop\n      pop\n      swap1\n      pop\n        /* \"contracts/_NodeManager.sol\":2668:2821  function getNodeByAddress(address _nodeAddress)... */\n      swap2\n      swap1\n      pop\n      jump\t// out\n        /* \"contracts/_NodeManager.sol\":1824:2194  function retrieveChunkNodeAddresses(string memory _fileId)... */\n    tag_50:\n        /* \"contracts/_NodeManager.sol\":1928:1944  address[] memory */\n      0x60\n        /* \"contracts/_NodeManager.sol\":2006:2007  0 */\n      0x00\n        /* \"contracts/_NodeManager.sol\":1968:1987  nodeChunksAddresses */\n      0x01\n        /* \"contracts/_NodeManager.sol\":1988:1995  _fileId */\n      dup4\n        /* \"contracts/_NodeManager.sol\":1968:1996  nodeChunksAddresses[_fileId] */\n      mload(0x40)\n      tag_96\n      swap2\n      swap1\n      tag_75\n      jump\t// in\n    tag_96:\n      swap1\n      dup2\n      mstore\n      0x20\n      add\n      mload(0x40)\n      dup1\n      swap2\n      sub\n      swap1\n      keccak256\n        /* \"contracts/_NodeManager.sol\":1968:2003  nodeChunksAddresses[_fileId].length */\n      dup1\n      sload\n      swap1\n      pop\n        /* \"contracts/_NodeManager.sol\":1968:2007  nodeChunksAddresses[_fileId].length > 0 */\n      gt\n        /* \"contracts/_NodeManager.sol\":1960:2031  require(nodeChunksAddresses[_fileId].length > 0, \"Node does not exist\") */\n      tag_97\n      jumpi\n      mload(0x40)\n      0x08c379a000000000000000000000000000000000000000000000000000000000\n      dup2\n      mstore\n      0x04\n      add\n      tag_98\n      swap1\n      tag_73\n      jump\t// in\n    tag_98:\n      mload(0x40)\n      dup1\n      swap2\n      sub\n      swap1\n      revert\n    tag_97:\n        /* \"contracts/_NodeManager.sol\":2159:2178  nodeChunksAddresses */\n      0x01\n        /* \"contracts/_NodeManager.sol\":2179:2186  _fileId */\n      dup3\n        /* \"contracts/_NodeManager.sol\":2159:2187  nodeChunksAddresses[_fileId] */\n      mload(0x40)\n      tag_99\n      swap2\n      swap1\n      tag_75\n      jump\t// in\n    tag_99:\n      swap1\n      dup2\n      mstore\n      0x20\n      add\n      mload(0x40)\n      dup1\n      swap2\n      sub\n      swap1\n      keccak256\n        /* \"contracts/_NodeManager.sol\":2152:2187  return nodeChunksAddresses[_fileId] */\n      dup1\n      sload\n      dup1\n      0x20\n      mul\n      0x20\n      add\n      mload(0x40)\n      swap1\n      dup2\n      add\n      0x40\n      mstore\n      dup1\n      swap3\n      swap2\n      swap1\n      dup2\n      dup2\n      mstore\n      0x20\n      add\n      dup3\n      dup1\n      sload\n      dup1\n      iszero\n      tag_100\n      jumpi\n      0x20\n      mul\n      dup3\n      add\n      swap2\n      swap1\n      0x00\n      mstore\n      keccak256(0x00, 0x20)\n      swap1\n    tag_101:\n      dup2\n      0x00\n      swap1\n      sload\n      swap1\n      0x0100\n      exp\n      swap1\n      div\n      0xffffffffffffffffffffffffffffffffffffffff\n      and\n      0xffffffffffffffffffffffffffffffffffffffff\n      and\n      dup2\n      mstore\n      0x20\n      add\n      swap1\n      0x01\n      add\n      swap1\n      dup1\n      dup4\n      gt\n      tag_101\n      jumpi\n    tag_100:\n      pop\n      pop\n      pop\n      pop\n      pop\n      swap1\n      pop\n        /* \"contracts/_NodeManager.sol\":1824:2194  function retrieveChunkNodeAddresses(string memory _fileId)... */\n      swap2\n      swap1\n      pop\n      jump\t// out\n        /* \"contracts/_NodeManager.sol\":2827:4468  function findAvailableNode(... */\n    tag_55:\n        /* \"contracts/_NodeManager.sol\":2958:2965  address */\n      0x00\n        /* \"contracts/_NodeManager.sol\":2977:2993  uint256 numNodes */\n      dup1\n        /* \"contracts/_NodeManager.sol\":2996:3004  allNodes */\n      0x02\n        /* \"contracts/_NodeManager.sol\":2996:3011  allNodes.length */\n      dup1\n      sload\n      swap1\n      pop\n        /* \"contracts/_NodeManager.sol\":2977:3011  uint256 numNodes = allNodes.length */\n      swap1\n      pop\n        /* \"contracts/_NodeManager.sol\":3021:3039  uint256 sizeOffset */\n      0x00\n        /* \"contracts/_NodeManager.sol\":3042:3044  50 */\n      0x32\n        /* \"contracts/_NodeManager.sol\":3021:3044  uint256 sizeOffset = 50 */\n      swap1\n      pop\n        /* \"contracts/_NodeManager.sol\":3071:3072  0 */\n      0x00\n        /* \"contracts/_NodeManager.sol\":3059:3067  numNodes */\n      dup3\n        /* \"contracts/_NodeManager.sol\":3059:3072  numNodes == 0 */\n      sub\n        /* \"contracts/_NodeManager.sol\":3055:3116  if (numNodes == 0) {... */\n      tag_103\n      jumpi\n        /* \"contracts/_NodeManager.sol\":3103:3104  0 */\n      0x00\n        /* \"contracts/_NodeManager.sol\":3088:3105  return address(0) */\n      swap3\n      pop\n      pop\n      pop\n      jump(tag_102)\n        /* \"contracts/_NodeManager.sol\":3055:3116  if (numNodes == 0) {... */\n    tag_103:\n        /* \"contracts/_NodeManager.sol\":3184:3203  uint256 randomIndex */\n      0x00\n        /* \"contracts/_NodeManager.sol\":3245:3253  numNodes */\n      dup3\n        /* \"contracts/_NodeManager.sol\":3239:3240  1 */\n      0x01\n        /* \"contracts/_NodeManager.sol\":3224:3236  block.number */\n      number\n        /* \"contracts/_NodeManager.sol\":3224:3240  block.number - 1 */\n      tag_104\n      swap2\n      swap1\n      tag_105\n      jump\t// in\n    tag_104:\n        /* \"contracts/_NodeManager.sol\":3214:3241  blockhash(block.number - 1) */\n      blockhash\n        /* \"contracts/_NodeManager.sol\":3206:3242  uint256(blockhash(block.number - 1)) */\n      0x00\n      shr\n        /* \"contracts/_NodeManager.sol\":3206:3253  uint256(blockhash(block.number - 1)) % numNodes */\n      tag_106\n      swap2\n      swap1\n      tag_107\n      jump\t// in\n    tag_106:\n        /* \"contracts/_NodeManager.sol\":3184:3253  uint256 randomIndex = uint256(blockhash(block.number - 1)) % numNodes */\n      swap1\n      pop\n        /* \"contracts/_NodeManager.sol\":3263:3272  uint256 i */\n      0x00\n        /* \"contracts/_NodeManager.sol\":3286:3310  uint256 loopTimeoutCount */\n      dup1\n        /* \"contracts/_NodeManager.sol\":3324:3348  uint256 BREAK_LOOP_COUNT */\n      0x00\n        /* \"contracts/_NodeManager.sol\":3351:3355  1000 */\n      0x03e8\n        /* \"contracts/_NodeManager.sol\":3324:3355  uint256 BREAK_LOOP_COUNT = 1000 */\n      swap1\n      pop\n        /* \"contracts/_NodeManager.sol\":3441:4405  while (loopTimeoutCount < BREAK_LOOP_COUNT) {... */\n    tag_108:\n        /* \"contracts/_NodeManager.sol\":3467:3483  BREAK_LOOP_COUNT */\n      dup1\n        /* \"contracts/_NodeManager.sol\":3448:3464  loopTimeoutCount */\n      dup3\n        /* \"contracts/_NodeManager.sol\":3448:3483  loopTimeoutCount < BREAK_LOOP_COUNT */\n      lt\n        /* \"contracts/_NodeManager.sol\":3441:4405  while (loopTimeoutCount < BREAK_LOOP_COUNT) {... */\n      iszero\n      tag_109\n      jumpi\n        /* \"contracts/_NodeManager.sol\":3499:3511  address node */\n      0x00\n        /* \"contracts/_NodeManager.sol\":3514:3522  allNodes */\n      0x02\n        /* \"contracts/_NodeManager.sol\":3543:3551  numNodes */\n      dup8\n        /* \"contracts/_NodeManager.sol\":3538:3539  i */\n      dup6\n        /* \"contracts/_NodeManager.sol\":3524:3535  randomIndex */\n      dup8\n        /* \"contracts/_NodeManager.sol\":3524:3539  randomIndex + i */\n      tag_110\n      swap2\n      swap1\n      tag_111\n      jump\t// in\n    tag_110:\n        /* \"contracts/_NodeManager.sol\":3523:3551  (randomIndex + i) % numNodes */\n      tag_112\n      swap2\n      swap1\n      tag_107\n      jump\t// in\n    tag_112:\n        /* \"contracts/_NodeManager.sol\":3514:3552  allNodes[(randomIndex + i) % numNodes] */\n      dup2\n      sload\n      dup2\n      lt\n      tag_113\n      jumpi\n      tag_114\n      tag_115\n      jump\t// in\n    tag_114:\n    tag_113:\n      swap1\n      0x00\n      mstore\n      keccak256(0x00, 0x20)\n      add\n      0x00\n      swap1\n      sload\n      swap1\n      0x0100\n      exp\n      swap1\n      div\n      0xffffffffffffffffffffffffffffffffffffffff\n      and\n        /* \"contracts/_NodeManager.sol\":3499:3552  address node = allNodes[(randomIndex + i) % numNodes] */\n      swap1\n      pop\n        /* \"contracts/_NodeManager.sol\":3571:3593  logNumber(randomIndex) */\n      0x0838d04243391d45d94a98fff54d1737cbffea86c34ab825e5d6980ec9b77235\n        /* \"contracts/_NodeManager.sol\":3581:3592  randomIndex */\n      dup6\n        /* \"contracts/_NodeManager.sol\":3571:3593  logNumber(randomIndex) */\n      mload(0x40)\n      tag_117\n      swap2\n      swap1\n      tag_118\n      jump\t// in\n    tag_117:\n      mload(0x40)\n      dup1\n      swap2\n      sub\n      swap1\n      log1\n        /* \"contracts/_NodeManager.sol\":3656:3666  sizeOffset */\n      dup6\n        /* \"contracts/_NodeManager.sol\":3643:3653  _chunkSize */\n      dup11\n        /* \"contracts/_NodeManager.sol\":3643:3666  _chunkSize + sizeOffset */\n      tag_119\n      swap2\n      swap1\n      tag_111\n      jump\t// in\n    tag_119:\n        /* \"contracts/_NodeManager.sol\":3612:3617  nodes */\n      0x00\n        /* \"contracts/_NodeManager.sol\":3612:3623  nodes[node] */\n      dup1\n        /* \"contracts/_NodeManager.sol\":3618:3622  node */\n      dup4\n        /* \"contracts/_NodeManager.sol\":3612:3623  nodes[node] */\n      0xffffffffffffffffffffffffffffffffffffffff\n      and\n      0xffffffffffffffffffffffffffffffffffffffff\n      and\n      dup2\n      mstore\n      0x20\n      add\n      swap1\n      dup2\n      mstore\n      0x20\n      add\n      0x00\n      keccak256\n        /* \"contracts/_NodeManager.sol\":3612:3640  nodes[node].availableStorage */\n      0x01\n      add\n      sload\n        /* \"contracts/_NodeManager.sol\":3612:3666  nodes[node].availableStorage > _chunkSize + sizeOffset */\n      gt\n        /* \"contracts/_NodeManager.sol\":3608:4274  if (nodes[node].availableStorage > _chunkSize + sizeOffset) {... */\n      iszero\n      tag_120\n      jumpi\n        /* \"contracts/_NodeManager.sol\":3686:3703  bool isUniqueNode */\n      0x00\n        /* \"contracts/_NodeManager.sol\":3706:3710  true */\n      0x01\n        /* \"contracts/_NodeManager.sol\":3686:3710  bool isUniqueNode = true */\n      swap1\n      pop\n        /* \"contracts/_NodeManager.sol\":3755:3764  uint256 j */\n      0x00\n        /* \"contracts/_NodeManager.sol\":3729:4025  for (... */\n    tag_121:\n        /* \"contracts/_NodeManager.sol\":3794:3821  chunkStorageNodeTempAddress */\n      dup11\n        /* \"contracts/_NodeManager.sol\":3794:3828  chunkStorageNodeTempAddress.length */\n      mload\n        /* \"contracts/_NodeManager.sol\":3790:3791  j */\n      dup2\n        /* \"contracts/_NodeManager.sol\":3790:3828  j < chunkStorageNodeTempAddress.length */\n      lt\n        /* \"contracts/_NodeManager.sol\":3729:4025  for (... */\n      iszero\n      tag_122\n      jumpi\n        /* \"contracts/_NodeManager.sol\":3932:3936  node */\n      dup3\n        /* \"contracts/_NodeManager.sol\":3898:3936  chunkStorageNodeTempAddress[j] == node */\n      0xffffffffffffffffffffffffffffffffffffffff\n      and\n        /* \"contracts/_NodeManager.sol\":3898:3925  chunkStorageNodeTempAddress */\n      dup12\n        /* \"contracts/_NodeManager.sol\":3926:3927  j */\n      dup3\n        /* \"contracts/_NodeManager.sol\":3898:3928  chunkStorageNodeTempAddress[j] */\n      dup2\n      mload\n      dup2\n      lt\n      tag_124\n      jumpi\n      tag_125\n      tag_115\n      jump\t// in\n    tag_125:\n    tag_124:\n      0x20\n      mul\n      0x20\n      add\n      add\n      mload\n        /* \"contracts/_NodeManager.sol\":3898:3936  chunkStorageNodeTempAddress[j] == node */\n      0xffffffffffffffffffffffffffffffffffffffff\n      and\n      sub\n        /* \"contracts/_NodeManager.sol\":3894:4007  if (chunkStorageNodeTempAddress[j] == node) {... */\n      tag_126\n      jumpi\n        /* \"contracts/_NodeManager.sol\":3979:3984  false */\n      0x00\n        /* \"contracts/_NodeManager.sol\":3964:3984  isUniqueNode = false */\n      swap2\n      pop\n        /* \"contracts/_NodeManager.sol\":3894:4007  if (chunkStorageNodeTempAddress[j] == node) {... */\n    tag_126:\n        /* \"contracts/_NodeManager.sol\":3850:3853  j++ */\n      dup1\n      dup1\n      0x01\n      add\n      swap2\n      pop\n      pop\n        /* \"contracts/_NodeManager.sol\":3729:4025  for (... */\n      jump(tag_121)\n    tag_122:\n      pop\n        /* \"contracts/_NodeManager.sol\":4047:4059  isUniqueNode */\n      dup1\n        /* \"contracts/_NodeManager.sol\":4043:4260  if (isUniqueNode) {... */\n      iszero\n      tag_127\n      jumpi\n        /* \"contracts/_NodeManager.sol\":4192:4208  BREAK_LOOP_COUNT */\n      dup3\n        /* \"contracts/_NodeManager.sol\":4173:4208  loopTimeoutCount = BREAK_LOOP_COUNT */\n      swap4\n      pop\n        /* \"contracts/_NodeManager.sol\":4237:4241  node */\n      dup2\n        /* \"contracts/_NodeManager.sol\":4230:4241  return node */\n      swap9\n      pop\n      pop\n      pop\n      pop\n      pop\n      pop\n      pop\n      pop\n      pop\n      jump(tag_102)\n        /* \"contracts/_NodeManager.sol\":4043:4260  if (isUniqueNode) {... */\n    tag_127:\n        /* \"contracts/_NodeManager.sol\":3668:4274  {... */\n      pop\n        /* \"contracts/_NodeManager.sol\":3608:4274  if (nodes[node].availableStorage > _chunkSize + sizeOffset) {... */\n    tag_120:\n        /* \"contracts/_NodeManager.sol\":4288:4291  i++ */\n      dup4\n      dup1\n      tag_128\n      swap1\n      tag_129\n      jump\t// in\n    tag_128:\n      swap5\n      pop\n      pop\n        /* \"contracts/_NodeManager.sol\":4305:4323  loopTimeoutCount++ */\n      dup3\n      dup1\n      tag_130\n      swap1\n      tag_129\n      jump\t// in\n    tag_130:\n      swap4\n      pop\n      pop\n        /* \"contracts/_NodeManager.sol\":4347:4355  numNodes */\n      dup7\n        /* \"contracts/_NodeManager.sol\":4342:4343  i */\n      dup5\n        /* \"contracts/_NodeManager.sol\":4342:4355  i == numNodes */\n      sub\n        /* \"contracts/_NodeManager.sol\":4338:4395  if (i == numNodes) {... */\n      tag_131\n      jumpi\n        /* \"contracts/_NodeManager.sol\":4379:4380  0 */\n      0x00\n        /* \"contracts/_NodeManager.sol\":4375:4380  i = 0 */\n      swap4\n      pop\n        /* \"contracts/_NodeManager.sol\":4338:4395  if (i == numNodes) {... */\n    tag_131:\n        /* \"contracts/_NodeManager.sol\":3485:4405  {... */\n      pop\n        /* \"contracts/_NodeManager.sol\":3441:4405  while (loopTimeoutCount < BREAK_LOOP_COUNT) {... */\n      jump(tag_108)\n    tag_109:\n        /* \"contracts/_NodeManager.sol\":4459:4460  0 */\n      0x00\n        /* \"contracts/_NodeManager.sol\":4444:4461  return address(0) */\n      swap7\n      pop\n      pop\n      pop\n      pop\n      pop\n      pop\n      pop\n        /* \"contracts/_NodeManager.sol\":2827:4468  function findAvailableNode(... */\n    tag_102:\n      swap3\n      swap2\n      pop\n      pop\n      jump\t// out\n        /* \"contracts/_NodeManager.sol\":433:458  address[] public allNodes */\n    tag_60:\n      0x02\n      dup2\n      dup2\n      sload\n      dup2\n      lt\n      tag_132\n      jumpi\n      0x00\n      dup1\n      revert\n    tag_132:\n      swap1\n      0x00\n      mstore\n      keccak256(0x00, 0x20)\n      add\n      0x00\n      swap2\n      pop\n      sload\n      swap1\n      0x0100\n      exp\n      swap1\n      div\n      0xffffffffffffffffffffffffffffffffffffffff\n      and\n      dup2\n      jump\t// out\n        /* \"contracts/_NodeManager.sol\":4474:4831  function isAddressPresent(... */\n    tag_85:\n        /* \"contracts/_NodeManager.sol\":4609:4613  bool */\n      0x00\n        /* \"contracts/_NodeManager.sol\":4630:4639  uint256 i */\n      dup1\n        /* \"contracts/_NodeManager.sol\":4642:4643  0 */\n      0x00\n        /* \"contracts/_NodeManager.sol\":4630:4643  uint256 i = 0 */\n      swap1\n      pop\n        /* \"contracts/_NodeManager.sol\":4625:4803  for (uint256 i = 0; i < fileStorageNodeAddresses.length; i++) {... */\n    tag_135:\n        /* \"contracts/_NodeManager.sol\":4649:4673  fileStorageNodeAddresses */\n      dup3\n        /* \"contracts/_NodeManager.sol\":4649:4680  fileStorageNodeAddresses.length */\n      mload\n        /* \"contracts/_NodeManager.sol\":4645:4646  i */\n      dup2\n        /* \"contracts/_NodeManager.sol\":4645:4680  i < fileStorageNodeAddresses.length */\n      lt\n        /* \"contracts/_NodeManager.sol\":4625:4803  for (uint256 i = 0; i < fileStorageNodeAddresses.length; i++) {... */\n      iszero\n      tag_136\n      jumpi\n        /* \"contracts/_NodeManager.sol\":4736:4747  nodeAddress */\n      dup4\n        /* \"contracts/_NodeManager.sol\":4705:4747  fileStorageNodeAddresses[i] == nodeAddress */\n      0xffffffffffffffffffffffffffffffffffffffff\n      and\n        /* \"contracts/_NodeManager.sol\":4705:4729  fileStorageNodeAddresses */\n      dup4\n        /* \"contracts/_NodeManager.sol\":4730:4731  i */\n      dup3\n        /* \"contracts/_NodeManager.sol\":4705:4732  fileStorageNodeAddresses[i] */\n      dup2\n      mload\n      dup2\n      lt\n      tag_138\n      jumpi\n      tag_139\n      tag_115\n      jump\t// in\n    tag_139:\n    tag_138:\n      0x20\n      mul\n      0x20\n      add\n      add\n      mload\n        /* \"contracts/_NodeManager.sol\":4705:4747  fileStorageNodeAddresses[i] == nodeAddress */\n      0xffffffffffffffffffffffffffffffffffffffff\n      and\n      sub\n        /* \"contracts/_NodeManager.sol\":4701:4793  if (fileStorageNodeAddresses[i] == nodeAddress) {... */\n      tag_140\n      jumpi\n        /* \"contracts/_NodeManager.sol\":4774:4778  true */\n      0x01\n        /* \"contracts/_NodeManager.sol\":4767:4778  return true */\n      swap2\n      pop\n      pop\n      jump(tag_134)\n        /* \"contracts/_NodeManager.sol\":4701:4793  if (fileStorageNodeAddresses[i] == nodeAddress) {... */\n    tag_140:\n        /* \"contracts/_NodeManager.sol\":4682:4685  i++ */\n      dup1\n      dup1\n      0x01\n      add\n      swap2\n      pop\n      pop\n        /* \"contracts/_NodeManager.sol\":4625:4803  for (uint256 i = 0; i < fileStorageNodeAddresses.length; i++) {... */\n      jump(tag_135)\n    tag_136:\n      pop\n        /* \"contracts/_NodeManager.sol\":4819:4824  false */\n      0x00\n        /* \"contracts/_NodeManager.sol\":4812:4824  return false */\n      swap1\n      pop\n        /* \"contracts/_NodeManager.sol\":4474:4831  function isAddressPresent(... */\n    tag_134:\n      swap3\n      swap2\n      pop\n      pop\n      jump\t// out\n    tag_77:\n      pop\n      dup1\n      sload\n      0x00\n      dup3\n      sstore\n      swap1\n      0x00\n      mstore\n      keccak256(0x00, 0x20)\n      swap1\n      dup2\n      add\n      swap1\n      tag_142\n      swap2\n      swap1\n      tag_143\n      jump\t// in\n    tag_142:\n      pop\n      jump\t// out\n    tag_93:\n      mload(0x40)\n      dup1\n      0x40\n      add\n      0x40\n      mstore\n      dup1\n      and(0xffffffffffffffffffffffffffffffffffffffff, 0x00)\n      dup2\n      mstore\n      0x20\n      add\n      0x00\n      dup2\n      mstore\n      pop\n      swap1\n      jump\t// out\n    tag_143:\n    tag_144:\n      dup1\n      dup3\n      gt\n      iszero\n      tag_145\n      jumpi\n      0x00\n      dup2\n      0x00\n      swap1\n      sstore\n      pop\n      0x01\n      add\n      jump(tag_144)\n    tag_145:\n      pop\n      swap1\n      jump\t// out\n        /* \"#utility.yul\":7:82   */\n    tag_146:\n        /* \"#utility.yul\":40:46   */\n      0x00\n        /* \"#utility.yul\":73:75   */\n      0x40\n        /* \"#utility.yul\":67:76   */\n      mload\n        /* \"#utility.yul\":57:76   */\n      swap1\n      pop\n        /* \"#utility.yul\":7:82   */\n      swap1\n      jump\t// out\n        /* \"#utility.yul\":88:205   */\n    tag_147:\n        /* \"#utility.yul\":197:198   */\n      0x00\n        /* \"#utility.yul\":194:195   */\n      dup1\n        /* \"#utility.yul\":187:199   */\n      revert\n        /* \"#utility.yul\":211:328   */\n    tag_148:\n        /* \"#utility.yul\":320:321   */\n      0x00\n        /* \"#utility.yul\":317:318   */\n      dup1\n        /* \"#utility.yul\":310:322   */\n      revert\n        /* \"#utility.yul\":334:460   */\n    tag_149:\n        /* \"#utility.yul\":371:378   */\n      0x00\n        /* \"#utility.yul\":411:453   */\n      0xffffffffffffffffffffffffffffffffffffffff\n        /* \"#utility.yul\":404:409   */\n      dup3\n        /* \"#utility.yul\":400:454   */\n      and\n        /* \"#utility.yul\":389:454   */\n      swap1\n      pop\n        /* \"#utility.yul\":334:460   */\n      swap2\n      swap1\n      pop\n      jump\t// out\n        /* \"#utility.yul\":466:562   */\n    tag_150:\n        /* \"#utility.yul\":503:510   */\n      0x00\n        /* \"#utility.yul\":532:556   */\n      tag_198\n        /* \"#utility.yul\":550:555   */\n      dup3\n        /* \"#utility.yul\":532:556   */\n      tag_149\n      jump\t// in\n    tag_198:\n        /* \"#utility.yul\":521:556   */\n      swap1\n      pop\n        /* \"#utility.yul\":466:562   */\n      swap2\n      swap1\n      pop\n      jump\t// out\n        /* \"#utility.yul\":568:690   */\n    tag_151:\n        /* \"#utility.yul\":641:665   */\n      tag_200\n        /* \"#utility.yul\":659:664   */\n      dup2\n        /* \"#utility.yul\":641:665   */\n      tag_150\n      jump\t// in\n    tag_200:\n        /* \"#utility.yul\":634:639   */\n      dup2\n        /* \"#utility.yul\":631:666   */\n      eq\n        /* \"#utility.yul\":621:684   */\n      tag_201\n      jumpi\n        /* \"#utility.yul\":680:681   */\n      0x00\n        /* \"#utility.yul\":677:678   */\n      dup1\n        /* \"#utility.yul\":670:682   */\n      revert\n        /* \"#utility.yul\":621:684   */\n    tag_201:\n        /* \"#utility.yul\":568:690   */\n      pop\n      jump\t// out\n        /* \"#utility.yul\":696:835   */\n    tag_152:\n        /* \"#utility.yul\":742:747   */\n      0x00\n        /* \"#utility.yul\":780:786   */\n      dup2\n        /* \"#utility.yul\":767:787   */\n      calldataload\n        /* \"#utility.yul\":758:787   */\n      swap1\n      pop\n        /* \"#utility.yul\":796:829   */\n      tag_203\n        /* \"#utility.yul\":823:828   */\n      dup2\n        /* \"#utility.yul\":796:829   */\n      tag_151\n      jump\t// in\n    tag_203:\n        /* \"#utility.yul\":696:835   */\n      swap3\n      swap2\n      pop\n      pop\n      jump\t// out\n        /* \"#utility.yul\":841:918   */\n    tag_153:\n        /* \"#utility.yul\":878:885   */\n      0x00\n        /* \"#utility.yul\":907:912   */\n      dup2\n        /* \"#utility.yul\":896:912   */\n      swap1\n      pop\n        /* \"#utility.yul\":841:918   */\n      swap2\n      swap1\n      pop\n      jump\t// out\n        /* \"#utility.yul\":924:1046   */\n    tag_154:\n        /* \"#utility.yul\":997:1021   */\n      tag_206\n        /* \"#utility.yul\":1015:1020   */\n      dup2\n        /* \"#utility.yul\":997:1021   */\n      tag_153\n      jump\t// in\n    tag_206:\n        /* \"#utility.yul\":990:995   */\n      dup2\n        /* \"#utility.yul\":987:1022   */\n      eq\n        /* \"#utility.yul\":977:1040   */\n      tag_207\n      jumpi\n        /* \"#utility.yul\":1036:1037   */\n      0x00\n        /* \"#utility.yul\":1033:1034   */\n      dup1\n        /* \"#utility.yul\":1026:1038   */\n      revert\n        /* \"#utility.yul\":977:1040   */\n    tag_207:\n        /* \"#utility.yul\":924:1046   */\n      pop\n      jump\t// out\n        /* \"#utility.yul\":1052:1191   */\n    tag_155:\n        /* \"#utility.yul\":1098:1103   */\n      0x00\n        /* \"#utility.yul\":1136:1142   */\n      dup2\n        /* \"#utility.yul\":1123:1143   */\n      calldataload\n        /* \"#utility.yul\":1114:1143   */\n      swap1\n      pop\n        /* \"#utility.yul\":1152:1185   */\n      tag_209\n        /* \"#utility.yul\":1179:1184   */\n      dup2\n        /* \"#utility.yul\":1152:1185   */\n      tag_154\n      jump\t// in\n    tag_209:\n        /* \"#utility.yul\":1052:1191   */\n      swap3\n      swap2\n      pop\n      pop\n      jump\t// out\n        /* \"#utility.yul\":1197:1671   */\n    tag_16:\n        /* \"#utility.yul\":1265:1271   */\n      0x00\n        /* \"#utility.yul\":1273:1279   */\n      dup1\n        /* \"#utility.yul\":1322:1324   */\n      0x40\n        /* \"#utility.yul\":1310:1319   */\n      dup4\n        /* \"#utility.yul\":1301:1308   */\n      dup6\n        /* \"#utility.yul\":1297:1320   */\n      sub\n        /* \"#utility.yul\":1293:1325   */\n      slt\n        /* \"#utility.yul\":1290:1409   */\n      iszero\n      tag_211\n      jumpi\n        /* \"#utility.yul\":1328:1407   */\n      tag_212\n      tag_147\n      jump\t// in\n    tag_212:\n        /* \"#utility.yul\":1290:1409   */\n    tag_211:\n        /* \"#utility.yul\":1448:1449   */\n      0x00\n        /* \"#utility.yul\":1473:1526   */\n      tag_213\n        /* \"#utility.yul\":1518:1525   */\n      dup6\n        /* \"#utility.yul\":1509:1515   */\n      dup3\n        /* \"#utility.yul\":1498:1507   */\n      dup7\n        /* \"#utility.yul\":1494:1516   */\n      add\n        /* \"#utility.yul\":1473:1526   */\n      tag_152\n      jump\t// in\n    tag_213:\n        /* \"#utility.yul\":1463:1526   */\n      swap3\n      pop\n        /* \"#utility.yul\":1419:1536   */\n      pop\n        /* \"#utility.yul\":1575:1577   */\n      0x20\n        /* \"#utility.yul\":1601:1654   */\n      tag_214\n        /* \"#utility.yul\":1646:1653   */\n      dup6\n        /* \"#utility.yul\":1637:1643   */\n      dup3\n        /* \"#utility.yul\":1626:1635   */\n      dup7\n        /* \"#utility.yul\":1622:1644   */\n      add\n        /* \"#utility.yul\":1601:1654   */\n      tag_155\n      jump\t// in\n    tag_214:\n        /* \"#utility.yul\":1591:1654   */\n      swap2\n      pop\n        /* \"#utility.yul\":1546:1664   */\n      pop\n        /* \"#utility.yul\":1197:1671   */\n      swap3\n      pop\n      swap3\n      swap1\n      pop\n      jump\t// out\n        /* \"#utility.yul\":1677:2006   */\n    tag_20:\n        /* \"#utility.yul\":1736:1742   */\n      0x00\n        /* \"#utility.yul\":1785:1787   */\n      0x20\n        /* \"#utility.yul\":1773:1782   */\n      dup3\n        /* \"#utility.yul\":1764:1771   */\n      dup5\n        /* \"#utility.yul\":1760:1783   */\n      sub\n        /* \"#utility.yul\":1756:1788   */\n      slt\n        /* \"#utility.yul\":1753:1872   */\n      iszero\n      tag_216\n      jumpi\n        /* \"#utility.yul\":1791:1870   */\n      tag_217\n      tag_147\n      jump\t// in\n    tag_217:\n        /* \"#utility.yul\":1753:1872   */\n    tag_216:\n        /* \"#utility.yul\":1911:1912   */\n      0x00\n        /* \"#utility.yul\":1936:1989   */\n      tag_218\n        /* \"#utility.yul\":1981:1988   */\n      dup5\n        /* \"#utility.yul\":1972:1978   */\n      dup3\n        /* \"#utility.yul\":1961:1970   */\n      dup6\n        /* \"#utility.yul\":1957:1979   */\n      add\n        /* \"#utility.yul\":1936:1989   */\n      tag_152\n      jump\t// in\n    tag_218:\n        /* \"#utility.yul\":1926:1989   */\n      swap2\n      pop\n        /* \"#utility.yul\":1882:1999   */\n      pop\n        /* \"#utility.yul\":1677:2006   */\n      swap3\n      swap2\n      pop\n      pop\n      jump\t// out\n        /* \"#utility.yul\":2012:2130   */\n    tag_156:\n        /* \"#utility.yul\":2099:2123   */\n      tag_220\n        /* \"#utility.yul\":2117:2122   */\n      dup2\n        /* \"#utility.yul\":2099:2123   */\n      tag_150\n      jump\t// in\n    tag_220:\n        /* \"#utility.yul\":2094:2097   */\n      dup3\n        /* \"#utility.yul\":2087:2124   */\n      mstore\n        /* \"#utility.yul\":2012:2130   */\n      pop\n      pop\n      jump\t// out\n        /* \"#utility.yul\":2136:2254   */\n    tag_157:\n        /* \"#utility.yul\":2223:2247   */\n      tag_222\n        /* \"#utility.yul\":2241:2246   */\n      dup2\n        /* \"#utility.yul\":2223:2247   */\n      tag_153\n      jump\t// in\n    tag_222:\n        /* \"#utility.yul\":2218:2221   */\n      dup3\n        /* \"#utility.yul\":2211:2248   */\n      mstore\n        /* \"#utility.yul\":2136:2254   */\n      pop\n      pop\n      jump\t// out\n        /* \"#utility.yul\":2260:2592   */\n    tag_23:\n        /* \"#utility.yul\":2381:2385   */\n      0x00\n        /* \"#utility.yul\":2419:2421   */\n      0x40\n        /* \"#utility.yul\":2408:2417   */\n      dup3\n        /* \"#utility.yul\":2404:2422   */\n      add\n        /* \"#utility.yul\":2396:2422   */\n      swap1\n      pop\n        /* \"#utility.yul\":2432:2503   */\n      tag_224\n        /* \"#utility.yul\":2500:2501   */\n      0x00\n        /* \"#utility.yul\":2489:2498   */\n      dup4\n        /* \"#utility.yul\":2485:2502   */\n      add\n        /* \"#utility.yul\":2476:2482   */\n      dup6\n        /* \"#utility.yul\":2432:2503   */\n      tag_156\n      jump\t// in\n    tag_224:\n        /* \"#utility.yul\":2513:2585   */\n      tag_225\n        /* \"#utility.yul\":2581:2583   */\n      0x20\n        /* \"#utility.yul\":2570:2579   */\n      dup4\n        /* \"#utility.yul\":2566:2584   */\n      add\n        /* \"#utility.yul\":2557:2563   */\n      dup5\n        /* \"#utility.yul\":2513:2585   */\n      tag_157\n      jump\t// in\n    tag_225:\n        /* \"#utility.yul\":2260:2592   */\n      swap4\n      swap3\n      pop\n      pop\n      pop\n      jump\t// out\n        /* \"#utility.yul\":2598:2715   */\n    tag_158:\n        /* \"#utility.yul\":2707:2708   */\n      0x00\n        /* \"#utility.yul\":2704:2705   */\n      dup1\n        /* \"#utility.yul\":2697:2709   */\n      revert\n        /* \"#utility.yul\":2721:2838   */\n    tag_159:\n        /* \"#utility.yul\":2830:2831   */\n      0x00\n        /* \"#utility.yul\":2827:2828   */\n      dup1\n        /* \"#utility.yul\":2820:2832   */\n      revert\n        /* \"#utility.yul\":2844:2946   */\n    tag_160:\n        /* \"#utility.yul\":2885:2891   */\n      0x00\n        /* \"#utility.yul\":2936:2938   */\n      0x1f\n        /* \"#utility.yul\":2932:2939   */\n      not\n        /* \"#utility.yul\":2927:2929   */\n      0x1f\n        /* \"#utility.yul\":2920:2925   */\n      dup4\n        /* \"#utility.yul\":2916:2930   */\n      add\n        /* \"#utility.yul\":2912:2940   */\n      and\n        /* \"#utility.yul\":2902:2940   */\n      swap1\n      pop\n        /* \"#utility.yul\":2844:2946   */\n      swap2\n      swap1\n      pop\n      jump\t// out\n        /* \"#utility.yul\":2952:3132   */\n    tag_161:\n        /* \"#utility.yul\":3000:3077   */\n      0x4e487b7100000000000000000000000000000000000000000000000000000000\n        /* \"#utility.yul\":2997:2998   */\n      0x00\n        /* \"#utility.yul\":2990:3078   */\n      mstore\n        /* \"#utility.yul\":3097:3101   */\n      0x41\n        /* \"#utility.yul\":3094:3095   */\n      0x04\n        /* \"#utility.yul\":3087:3102   */\n      mstore\n        /* \"#utility.yul\":3121:3125   */\n      0x24\n        /* \"#utility.yul\":3118:3119   */\n      0x00\n        /* \"#utility.yul\":3111:3126   */\n      revert\n        /* \"#utility.yul\":3138:3419   */\n    tag_162:\n        /* \"#utility.yul\":3221:3248   */\n      tag_231\n        /* \"#utility.yul\":3243:3247   */\n      dup3\n        /* \"#utility.yul\":3221:3248   */\n      tag_160\n      jump\t// in\n    tag_231:\n        /* \"#utility.yul\":3213:3219   */\n      dup2\n        /* \"#utility.yul\":3209:3249   */\n      add\n        /* \"#utility.yul\":3351:3357   */\n      dup2\n        /* \"#utility.yul\":3339:3349   */\n      dup2\n        /* \"#utility.yul\":3336:3358   */\n      lt\n        /* \"#utility.yul\":3315:3333   */\n      0xffffffffffffffff\n        /* \"#utility.yul\":3303:3313   */\n      dup3\n        /* \"#utility.yul\":3300:3334   */\n      gt\n        /* \"#utility.yul\":3297:3359   */\n      or\n        /* \"#utility.yul\":3294:3382   */\n      iszero\n      tag_232\n      jumpi\n        /* \"#utility.yul\":3362:3380   */\n      tag_233\n      tag_161\n      jump\t// in\n    tag_233:\n        /* \"#utility.yul\":3294:3382   */\n    tag_232:\n        /* \"#utility.yul\":3402:3412   */\n      dup1\n        /* \"#utility.yul\":3398:3400   */\n      0x40\n        /* \"#utility.yul\":3391:3413   */\n      mstore\n        /* \"#utility.yul\":3181:3419   */\n      pop\n        /* \"#utility.yul\":3138:3419   */\n      pop\n      pop\n      jump\t// out\n        /* \"#utility.yul\":3425:3554   */\n    tag_163:\n        /* \"#utility.yul\":3459:3465   */\n      0x00\n        /* \"#utility.yul\":3486:3506   */\n      tag_235\n      tag_146\n      jump\t// in\n    tag_235:\n        /* \"#utility.yul\":3476:3506   */\n      swap1\n      pop\n        /* \"#utility.yul\":3515:3548   */\n      tag_236\n        /* \"#utility.yul\":3543:3547   */\n      dup3\n        /* \"#utility.yul\":3535:3541   */\n      dup3\n        /* \"#utility.yul\":3515:3548   */\n      tag_162\n      jump\t// in\n    tag_236:\n        /* \"#utility.yul\":3425:3554   */\n      swap2\n      swap1\n      pop\n      jump\t// out\n        /* \"#utility.yul\":3560:3868   */\n    tag_164:\n        /* \"#utility.yul\":3622:3626   */\n      0x00\n        /* \"#utility.yul\":3712:3730   */\n      0xffffffffffffffff\n        /* \"#utility.yul\":3704:3710   */\n      dup3\n        /* \"#utility.yul\":3701:3731   */\n      gt\n        /* \"#utility.yul\":3698:3754   */\n      iszero\n      tag_238\n      jumpi\n        /* \"#utility.yul\":3734:3752   */\n      tag_239\n      tag_161\n      jump\t// in\n    tag_239:\n        /* \"#utility.yul\":3698:3754   */\n    tag_238:\n        /* \"#utility.yul\":3772:3801   */\n      tag_240\n        /* \"#utility.yul\":3794:3800   */\n      dup3\n        /* \"#utility.yul\":3772:3801   */\n      tag_160\n      jump\t// in\n    tag_240:\n        /* \"#utility.yul\":3764:3801   */\n      swap1\n      pop\n        /* \"#utility.yul\":3856:3860   */\n      0x20\n        /* \"#utility.yul\":3850:3854   */\n      dup2\n        /* \"#utility.yul\":3846:3861   */\n      add\n        /* \"#utility.yul\":3838:3861   */\n      swap1\n      pop\n        /* \"#utility.yul\":3560:3868   */\n      swap2\n      swap1\n      pop\n      jump\t// out\n        /* \"#utility.yul\":3874:4020   */\n    tag_165:\n        /* \"#utility.yul\":3971:3977   */\n      dup3\n        /* \"#utility.yul\":3966:3969   */\n      dup2\n        /* \"#utility.yul\":3961:3964   */\n      dup4\n        /* \"#utility.yul\":3948:3978   */\n      calldatacopy\n        /* \"#utility.yul\":4012:4013   */\n      0x00\n        /* \"#utility.yul\":4003:4009   */\n      dup4\n        /* \"#utility.yul\":3998:4001   */\n      dup4\n        /* \"#utility.yul\":3994:4010   */\n      add\n        /* \"#utility.yul\":3987:4014   */\n      mstore\n        /* \"#utility.yul\":3874:4020   */\n      pop\n      pop\n      pop\n      jump\t// out\n        /* \"#utility.yul\":4026:4451   */\n    tag_166:\n        /* \"#utility.yul\":4104:4109   */\n      0x00\n        /* \"#utility.yul\":4129:4195   */\n      tag_243\n        /* \"#utility.yul\":4145:4194   */\n      tag_244\n        /* \"#utility.yul\":4187:4193   */\n      dup5\n        /* \"#utility.yul\":4145:4194   */\n      tag_164\n      jump\t// in\n    tag_244:\n        /* \"#utility.yul\":4129:4195   */\n      tag_163\n      jump\t// in\n    tag_243:\n        /* \"#utility.yul\":4120:4195   */\n      swap1\n      pop\n        /* \"#utility.yul\":4218:4224   */\n      dup3\n        /* \"#utility.yul\":4211:4216   */\n      dup2\n        /* \"#utility.yul\":4204:4225   */\n      mstore\n        /* \"#utility.yul\":4256:4260   */\n      0x20\n        /* \"#utility.yul\":4249:4254   */\n      dup2\n        /* \"#utility.yul\":4245:4261   */\n      add\n        /* \"#utility.yul\":4294:4297   */\n      dup5\n        /* \"#utility.yul\":4285:4291   */\n      dup5\n        /* \"#utility.yul\":4280:4283   */\n      dup5\n        /* \"#utility.yul\":4276:4292   */\n      add\n        /* \"#utility.yul\":4273:4298   */\n      gt\n        /* \"#utility.yul\":4270:4382   */\n      iszero\n      tag_245\n      jumpi\n        /* \"#utility.yul\":4301:4380   */\n      tag_246\n      tag_159\n      jump\t// in\n    tag_246:\n        /* \"#utility.yul\":4270:4382   */\n    tag_245:\n        /* \"#utility.yul\":4391:4445   */\n      tag_247\n        /* \"#utility.yul\":4438:4444   */\n      dup5\n        /* \"#utility.yul\":4433:4436   */\n      dup3\n        /* \"#utility.yul\":4428:4431   */\n      dup6\n        /* \"#utility.yul\":4391:4445   */\n      tag_165\n      jump\t// in\n    tag_247:\n        /* \"#utility.yul\":4110:4451   */\n      pop\n        /* \"#utility.yul\":4026:4451   */\n      swap4\n      swap3\n      pop\n      pop\n      pop\n      jump\t// out\n        /* \"#utility.yul\":4471:4811   */\n    tag_167:\n        /* \"#utility.yul\":4527:4532   */\n      0x00\n        /* \"#utility.yul\":4576:4579   */\n      dup3\n        /* \"#utility.yul\":4569:4573   */\n      0x1f\n        /* \"#utility.yul\":4561:4567   */\n      dup4\n        /* \"#utility.yul\":4557:4574   */\n      add\n        /* \"#utility.yul\":4553:4580   */\n      slt\n        /* \"#utility.yul\":4543:4665   */\n      tag_249\n      jumpi\n        /* \"#utility.yul\":4584:4663   */\n      tag_250\n      tag_158\n      jump\t// in\n    tag_250:\n        /* \"#utility.yul\":4543:4665   */\n    tag_249:\n        /* \"#utility.yul\":4701:4707   */\n      dup2\n        /* \"#utility.yul\":4688:4708   */\n      calldataload\n        /* \"#utility.yul\":4726:4805   */\n      tag_251\n        /* \"#utility.yul\":4801:4804   */\n      dup5\n        /* \"#utility.yul\":4793:4799   */\n      dup3\n        /* \"#utility.yul\":4786:4790   */\n      0x20\n        /* \"#utility.yul\":4778:4784   */\n      dup7\n        /* \"#utility.yul\":4774:4791   */\n      add\n        /* \"#utility.yul\":4726:4805   */\n      tag_166\n      jump\t// in\n    tag_251:\n        /* \"#utility.yul\":4717:4805   */\n      swap2\n      pop\n        /* \"#utility.yul\":4533:4811   */\n      pop\n        /* \"#utility.yul\":4471:4811   */\n      swap3\n      swap2\n      pop\n      pop\n      jump\t// out\n        /* \"#utility.yul\":4817:5471   */\n    tag_26:\n        /* \"#utility.yul\":4895:4901   */\n      0x00\n        /* \"#utility.yul\":4903:4909   */\n      dup1\n        /* \"#utility.yul\":4952:4954   */\n      0x40\n        /* \"#utility.yul\":4940:4949   */\n      dup4\n        /* \"#utility.yul\":4931:4938   */\n      dup6\n        /* \"#utility.yul\":4927:4950   */\n      sub\n        /* \"#utility.yul\":4923:4955   */\n      slt\n        /* \"#utility.yul\":4920:5039   */\n      iszero\n      tag_253\n      jumpi\n        /* \"#utility.yul\":4958:5037   */\n      tag_254\n      tag_147\n      jump\t// in\n    tag_254:\n        /* \"#utility.yul\":4920:5039   */\n    tag_253:\n        /* \"#utility.yul\":5106:5107   */\n      0x00\n        /* \"#utility.yul\":5095:5104   */\n      dup4\n        /* \"#utility.yul\":5091:5108   */\n      add\n        /* \"#utility.yul\":5078:5109   */\n      calldataload\n        /* \"#utility.yul\":5136:5154   */\n      0xffffffffffffffff\n        /* \"#utility.yul\":5128:5134   */\n      dup2\n        /* \"#utility.yul\":5125:5155   */\n      gt\n        /* \"#utility.yul\":5122:5239   */\n      iszero\n      tag_255\n      jumpi\n        /* \"#utility.yul\":5158:5237   */\n      tag_256\n      tag_148\n      jump\t// in\n    tag_256:\n        /* \"#utility.yul\":5122:5239   */\n    tag_255:\n        /* \"#utility.yul\":5263:5326   */\n      tag_257\n        /* \"#utility.yul\":5318:5325   */\n      dup6\n        /* \"#utility.yul\":5309:5315   */\n      dup3\n        /* \"#utility.yul\":5298:5307   */\n      dup7\n        /* \"#utility.yul\":5294:5316   */\n      add\n        /* \"#utility.yul\":5263:5326   */\n      tag_167\n      jump\t// in\n    tag_257:\n        /* \"#utility.yul\":5253:5326   */\n      swap3\n      pop\n        /* \"#utility.yul\":5049:5336   */\n      pop\n        /* \"#utility.yul\":5375:5377   */\n      0x20\n        /* \"#utility.yul\":5401:5454   */\n      tag_258\n        /* \"#utility.yul\":5446:5453   */\n      dup6\n        /* \"#utility.yul\":5437:5443   */\n      dup3\n        /* \"#utility.yul\":5426:5435   */\n      dup7\n        /* \"#utility.yul\":5422:5444   */\n      add\n        /* \"#utility.yul\":5401:5454   */\n      tag_155\n      jump\t// in\n    tag_258:\n        /* \"#utility.yul\":5391:5454   */\n      swap2\n      pop\n        /* \"#utility.yul\":5346:5464   */\n      pop\n        /* \"#utility.yul\":4817:5471   */\n      swap3\n      pop\n      swap3\n      swap1\n      pop\n      jump\t// out\n        /* \"#utility.yul\":5477:5699   */\n    tag_29:\n        /* \"#utility.yul\":5570:5574   */\n      0x00\n        /* \"#utility.yul\":5608:5610   */\n      0x20\n        /* \"#utility.yul\":5597:5606   */\n      dup3\n        /* \"#utility.yul\":5593:5611   */\n      add\n        /* \"#utility.yul\":5585:5611   */\n      swap1\n      pop\n        /* \"#utility.yul\":5621:5692   */\n      tag_260\n        /* \"#utility.yul\":5689:5690   */\n      0x00\n        /* \"#utility.yul\":5678:5687   */\n      dup4\n        /* \"#utility.yul\":5674:5691   */\n      add\n        /* \"#utility.yul\":5665:5671   */\n      dup5\n        /* \"#utility.yul\":5621:5692   */\n      tag_156\n      jump\t// in\n    tag_260:\n        /* \"#utility.yul\":5477:5699   */\n      swap3\n      swap2\n      pop\n      pop\n      jump\t// out\n        /* \"#utility.yul\":5705:6359   */\n    tag_32:\n        /* \"#utility.yul\":5783:5789   */\n      0x00\n        /* \"#utility.yul\":5791:5797   */\n      dup1\n        /* \"#utility.yul\":5840:5842   */\n      0x40\n        /* \"#utility.yul\":5828:5837   */\n      dup4\n        /* \"#utility.yul\":5819:5826   */\n      dup6\n        /* \"#utility.yul\":5815:5838   */\n      sub\n        /* \"#utility.yul\":5811:5843   */\n      slt\n        /* \"#utility.yul\":5808:5927   */\n      iszero\n      tag_262\n      jumpi\n        /* \"#utility.yul\":5846:5925   */\n      tag_263\n      tag_147\n      jump\t// in\n    tag_263:\n        /* \"#utility.yul\":5808:5927   */\n    tag_262:\n        /* \"#utility.yul\":5966:5967   */\n      0x00\n        /* \"#utility.yul\":5991:6044   */\n      tag_264\n        /* \"#utility.yul\":6036:6043   */\n      dup6\n        /* \"#utility.yul\":6027:6033   */\n      dup3\n        /* \"#utility.yul\":6016:6025   */\n      dup7\n        /* \"#utility.yul\":6012:6034   */\n      add\n        /* \"#utility.yul\":5991:6044   */\n      tag_152\n      jump\t// in\n    tag_264:\n        /* \"#utility.yul\":5981:6044   */\n      swap3\n      pop\n        /* \"#utility.yul\":5937:6054   */\n      pop\n        /* \"#utility.yul\":6121:6123   */\n      0x20\n        /* \"#utility.yul\":6110:6119   */\n      dup4\n        /* \"#utility.yul\":6106:6124   */\n      add\n        /* \"#utility.yul\":6093:6125   */\n      calldataload\n        /* \"#utility.yul\":6152:6170   */\n      0xffffffffffffffff\n        /* \"#utility.yul\":6144:6150   */\n      dup2\n        /* \"#utility.yul\":6141:6171   */\n      gt\n        /* \"#utility.yul\":6138:6255   */\n      iszero\n      tag_265\n      jumpi\n        /* \"#utility.yul\":6174:6253   */\n      tag_266\n      tag_148\n      jump\t// in\n    tag_266:\n        /* \"#utility.yul\":6138:6255   */\n    tag_265:\n        /* \"#utility.yul\":6279:6342   */\n      tag_267\n        /* \"#utility.yul\":6334:6341   */\n      dup6\n        /* \"#utility.yul\":6325:6331   */\n      dup3\n        /* \"#utility.yul\":6314:6323   */\n      dup7\n        /* \"#utility.yul\":6310:6332   */\n      add\n        /* \"#utility.yul\":6279:6342   */\n      tag_167\n      jump\t// in\n    tag_267:\n        /* \"#utility.yul\":6269:6342   */\n      swap2\n      pop\n        /* \"#utility.yul\":6064:6352   */\n      pop\n        /* \"#utility.yul\":5705:6359   */\n      swap3\n      pop\n      swap3\n      swap1\n      pop\n      jump\t// out\n        /* \"#utility.yul\":6365:7490   */\n    tag_36:\n        /* \"#utility.yul\":6471:6477   */\n      0x00\n        /* \"#utility.yul\":6479:6485   */\n      dup1\n        /* \"#utility.yul\":6487:6493   */\n      0x00\n        /* \"#utility.yul\":6495:6501   */\n      dup1\n        /* \"#utility.yul\":6544:6547   */\n      0x80\n        /* \"#utility.yul\":6532:6541   */\n      dup6\n        /* \"#utility.yul\":6523:6530   */\n      dup8\n        /* \"#utility.yul\":6519:6542   */\n      sub\n        /* \"#utility.yul\":6515:6548   */\n      slt\n        /* \"#utility.yul\":6512:6632   */\n      iszero\n      tag_269\n      jumpi\n        /* \"#utility.yul\":6551:6630   */\n      tag_270\n      tag_147\n      jump\t// in\n    tag_270:\n        /* \"#utility.yul\":6512:6632   */\n    tag_269:\n        /* \"#utility.yul\":6671:6672   */\n      0x00\n        /* \"#utility.yul\":6696:6749   */\n      tag_271\n        /* \"#utility.yul\":6741:6748   */\n      dup8\n        /* \"#utility.yul\":6732:6738   */\n      dup3\n        /* \"#utility.yul\":6721:6730   */\n      dup9\n        /* \"#utility.yul\":6717:6739   */\n      add\n        /* \"#utility.yul\":6696:6749   */\n      tag_152\n      jump\t// in\n    tag_271:\n        /* \"#utility.yul\":6686:6749   */\n      swap5\n      pop\n        /* \"#utility.yul\":6642:6759   */\n      pop\n        /* \"#utility.yul\":6826:6828   */\n      0x20\n        /* \"#utility.yul\":6815:6824   */\n      dup6\n        /* \"#utility.yul\":6811:6829   */\n      add\n        /* \"#utility.yul\":6798:6830   */\n      calldataload\n        /* \"#utility.yul\":6857:6875   */\n      0xffffffffffffffff\n        /* \"#utility.yul\":6849:6855   */\n      dup2\n        /* \"#utility.yul\":6846:6876   */\n      gt\n        /* \"#utility.yul\":6843:6960   */\n      iszero\n      tag_272\n      jumpi\n        /* \"#utility.yul\":6879:6958   */\n      tag_273\n      tag_148\n      jump\t// in\n    tag_273:\n        /* \"#utility.yul\":6843:6960   */\n    tag_272:\n        /* \"#utility.yul\":6984:7047   */\n      tag_274\n        /* \"#utility.yul\":7039:7046   */\n      dup8\n        /* \"#utility.yul\":7030:7036   */\n      dup3\n        /* \"#utility.yul\":7019:7028   */\n      dup9\n        /* \"#utility.yul\":7015:7037   */\n      add\n        /* \"#utility.yul\":6984:7047   */\n      tag_167\n      jump\t// in\n    tag_274:\n        /* \"#utility.yul\":6974:7047   */\n      swap4\n      pop\n        /* \"#utility.yul\":6769:7057   */\n      pop\n        /* \"#utility.yul\":7124:7126   */\n      0x40\n        /* \"#utility.yul\":7113:7122   */\n      dup6\n        /* \"#utility.yul\":7109:7127   */\n      add\n        /* \"#utility.yul\":7096:7128   */\n      calldataload\n        /* \"#utility.yul\":7155:7173   */\n      0xffffffffffffffff\n        /* \"#utility.yul\":7147:7153   */\n      dup2\n        /* \"#utility.yul\":7144:7174   */\n      gt\n        /* \"#utility.yul\":7141:7258   */\n      iszero\n      tag_275\n      jumpi\n        /* \"#utility.yul\":7177:7256   */\n      tag_276\n      tag_148\n      jump\t// in\n    tag_276:\n        /* \"#utility.yul\":7141:7258   */\n    tag_275:\n        /* \"#utility.yul\":7282:7345   */\n      tag_277\n        /* \"#utility.yul\":7337:7344   */\n      dup8\n        /* \"#utility.yul\":7328:7334   */\n      dup3\n        /* \"#utility.yul\":7317:7326   */\n      dup9\n        /* \"#utility.yul\":7313:7335   */\n      add\n        /* \"#utility.yul\":7282:7345   */\n      tag_167\n      jump\t// in\n    tag_277:\n        /* \"#utility.yul\":7272:7345   */\n      swap3\n      pop\n        /* \"#utility.yul\":7067:7355   */\n      pop\n        /* \"#utility.yul\":7394:7396   */\n      0x60\n        /* \"#utility.yul\":7420:7473   */\n      tag_278\n        /* \"#utility.yul\":7465:7472   */\n      dup8\n        /* \"#utility.yul\":7456:7462   */\n      dup3\n        /* \"#utility.yul\":7445:7454   */\n      dup9\n        /* \"#utility.yul\":7441:7463   */\n      add\n        /* \"#utility.yul\":7420:7473   */\n      tag_155\n      jump\t// in\n    tag_278:\n        /* \"#utility.yul\":7410:7473   */\n      swap2\n      pop\n        /* \"#utility.yul\":7365:7483   */\n      pop\n        /* \"#utility.yul\":6365:7490   */\n      swap3\n      swap6\n      swap2\n      swap5\n      pop\n      swap3\n      pop\n      jump\t// out\n        /* \"#utility.yul\":7496:7610   */\n    tag_168:\n        /* \"#utility.yul\":7563:7569   */\n      0x00\n        /* \"#utility.yul\":7597:7602   */\n      dup2\n        /* \"#utility.yul\":7591:7603   */\n      mload\n        /* \"#utility.yul\":7581:7603   */\n      swap1\n      pop\n        /* \"#utility.yul\":7496:7610   */\n      swap2\n      swap1\n      pop\n      jump\t// out\n        /* \"#utility.yul\":7616:7800   */\n    tag_169:\n        /* \"#utility.yul\":7715:7726   */\n      0x00\n        /* \"#utility.yul\":7749:7755   */\n      dup3\n        /* \"#utility.yul\":7744:7747   */\n      dup3\n        /* \"#utility.yul\":7737:7756   */\n      mstore\n        /* \"#utility.yul\":7789:7793   */\n      0x20\n        /* \"#utility.yul\":7784:7787   */\n      dup3\n        /* \"#utility.yul\":7780:7794   */\n      add\n        /* \"#utility.yul\":7765:7794   */\n      swap1\n      pop\n        /* \"#utility.yul\":7616:7800   */\n      swap3\n      swap2\n      pop\n      pop\n      jump\t// out\n        /* \"#utility.yul\":7806:7938   */\n    tag_170:\n        /* \"#utility.yul\":7873:7877   */\n      0x00\n        /* \"#utility.yul\":7896:7899   */\n      dup2\n        /* \"#utility.yul\":7888:7899   */\n      swap1\n      pop\n        /* \"#utility.yul\":7926:7930   */\n      0x20\n        /* \"#utility.yul\":7921:7924   */\n      dup3\n        /* \"#utility.yul\":7917:7931   */\n      add\n        /* \"#utility.yul\":7909:7931   */\n      swap1\n      pop\n        /* \"#utility.yul\":7806:7938   */\n      swap2\n      swap1\n      pop\n      jump\t// out\n        /* \"#utility.yul\":7944:8052   */\n    tag_171:\n        /* \"#utility.yul\":8021:8045   */\n      tag_283\n        /* \"#utility.yul\":8039:8044   */\n      dup2\n        /* \"#utility.yul\":8021:8045   */\n      tag_150\n      jump\t// in\n    tag_283:\n        /* \"#utility.yul\":8016:8019   */\n      dup3\n        /* \"#utility.yul\":8009:8046   */\n      mstore\n        /* \"#utility.yul\":7944:8052   */\n      pop\n      pop\n      jump\t// out\n        /* \"#utility.yul\":8058:8237   */\n    tag_172:\n        /* \"#utility.yul\":8127:8137   */\n      0x00\n        /* \"#utility.yul\":8148:8194   */\n      tag_285\n        /* \"#utility.yul\":8190:8193   */\n      dup4\n        /* \"#utility.yul\":8182:8188   */\n      dup4\n        /* \"#utility.yul\":8148:8194   */\n      tag_171\n      jump\t// in\n    tag_285:\n        /* \"#utility.yul\":8226:8230   */\n      0x20\n        /* \"#utility.yul\":8221:8224   */\n      dup4\n        /* \"#utility.yul\":8217:8231   */\n      add\n        /* \"#utility.yul\":8203:8231   */\n      swap1\n      pop\n        /* \"#utility.yul\":8058:8237   */\n      swap3\n      swap2\n      pop\n      pop\n      jump\t// out\n        /* \"#utility.yul\":8243:8356   */\n    tag_173:\n        /* \"#utility.yul\":8313:8317   */\n      0x00\n        /* \"#utility.yul\":8345:8349   */\n      0x20\n        /* \"#utility.yul\":8340:8343   */\n      dup3\n        /* \"#utility.yul\":8336:8350   */\n      add\n        /* \"#utility.yul\":8328:8350   */\n      swap1\n      pop\n        /* \"#utility.yul\":8243:8356   */\n      swap2\n      swap1\n      pop\n      jump\t// out\n        /* \"#utility.yul\":8392:9124   */\n    tag_174:\n        /* \"#utility.yul\":8511:8514   */\n      0x00\n        /* \"#utility.yul\":8540:8594   */\n      tag_288\n        /* \"#utility.yul\":8588:8593   */\n      dup3\n        /* \"#utility.yul\":8540:8594   */\n      tag_168\n      jump\t// in\n    tag_288:\n        /* \"#utility.yul\":8610:8696   */\n      tag_289\n        /* \"#utility.yul\":8689:8695   */\n      dup2\n        /* \"#utility.yul\":8684:8687   */\n      dup6\n        /* \"#utility.yul\":8610:8696   */\n      tag_169\n      jump\t// in\n    tag_289:\n        /* \"#utility.yul\":8603:8696   */\n      swap4\n      pop\n        /* \"#utility.yul\":8720:8776   */\n      tag_290\n        /* \"#utility.yul\":8770:8775   */\n      dup4\n        /* \"#utility.yul\":8720:8776   */\n      tag_170\n      jump\t// in\n    tag_290:\n        /* \"#utility.yul\":8799:8806   */\n      dup1\n        /* \"#utility.yul\":8830:8831   */\n      0x00\n        /* \"#utility.yul\":8815:9099   */\n    tag_291:\n        /* \"#utility.yul\":8840:8846   */\n      dup4\n        /* \"#utility.yul\":8837:8838   */\n      dup2\n        /* \"#utility.yul\":8834:8847   */\n      lt\n        /* \"#utility.yul\":8815:9099   */\n      iszero\n      tag_293\n      jumpi\n        /* \"#utility.yul\":8916:8922   */\n      dup2\n        /* \"#utility.yul\":8910:8923   */\n      mload\n        /* \"#utility.yul\":8943:9006   */\n      tag_294\n        /* \"#utility.yul\":9002:9005   */\n      dup9\n        /* \"#utility.yul\":8987:9000   */\n      dup3\n        /* \"#utility.yul\":8943:9006   */\n      tag_172\n      jump\t// in\n    tag_294:\n        /* \"#utility.yul\":8936:9006   */\n      swap8\n      pop\n        /* \"#utility.yul\":9029:9089   */\n      tag_295\n        /* \"#utility.yul\":9082:9088   */\n      dup4\n        /* \"#utility.yul\":9029:9089   */\n      tag_173\n      jump\t// in\n    tag_295:\n        /* \"#utility.yul\":9019:9089   */\n      swap3\n      pop\n        /* \"#utility.yul\":8875:9099   */\n      pop\n        /* \"#utility.yul\":8862:8863   */\n      0x01\n        /* \"#utility.yul\":8859:8860   */\n      dup2\n        /* \"#utility.yul\":8855:8864   */\n      add\n        /* \"#utility.yul\":8850:8864   */\n      swap1\n      pop\n        /* \"#utility.yul\":8815:9099   */\n      jump(tag_291)\n    tag_293:\n        /* \"#utility.yul\":8819:8833   */\n      pop\n        /* \"#utility.yul\":9115:9118   */\n      dup6\n        /* \"#utility.yul\":9108:9118   */\n      swap4\n      pop\n        /* \"#utility.yul\":8516:9124   */\n      pop\n      pop\n      pop\n        /* \"#utility.yul\":8392:9124   */\n      swap3\n      swap2\n      pop\n      pop\n      jump\t// out\n        /* \"#utility.yul\":9130:9503   */\n    tag_41:\n        /* \"#utility.yul\":9273:9277   */\n      0x00\n        /* \"#utility.yul\":9311:9313   */\n      0x20\n        /* \"#utility.yul\":9300:9309   */\n      dup3\n        /* \"#utility.yul\":9296:9314   */\n      add\n        /* \"#utility.yul\":9288:9314   */\n      swap1\n      pop\n        /* \"#utility.yul\":9360:9369   */\n      dup2\n        /* \"#utility.yul\":9354:9358   */\n      dup2\n        /* \"#utility.yul\":9350:9370   */\n      sub\n        /* \"#utility.yul\":9346:9347   */\n      0x00\n        /* \"#utility.yul\":9335:9344   */\n      dup4\n        /* \"#utility.yul\":9331:9348   */\n      add\n        /* \"#utility.yul\":9324:9371   */\n      mstore\n        /* \"#utility.yul\":9388:9496   */\n      tag_297\n        /* \"#utility.yul\":9491:9495   */\n      dup2\n        /* \"#utility.yul\":9482:9488   */\n      dup5\n        /* \"#utility.yul\":9388:9496   */\n      tag_174\n      jump\t// in\n    tag_297:\n        /* \"#utility.yul\":9380:9496   */\n      swap1\n      pop\n        /* \"#utility.yul\":9130:9503   */\n      swap3\n      swap2\n      pop\n      pop\n      jump\t// out\n        /* \"#utility.yul\":9509:9617   */\n    tag_175:\n        /* \"#utility.yul\":9586:9610   */\n      tag_299\n        /* \"#utility.yul\":9604:9609   */\n      dup2\n        /* \"#utility.yul\":9586:9610   */\n      tag_153\n      jump\t// in\n    tag_299:\n        /* \"#utility.yul\":9581:9584   */\n      dup3\n        /* \"#utility.yul\":9574:9611   */\n      mstore\n        /* \"#utility.yul\":9509:9617   */\n      pop\n      pop\n      jump\t// out\n        /* \"#utility.yul\":9681:10195   */\n    tag_176:\n        /* \"#utility.yul\":9816:9820   */\n      0x40\n        /* \"#utility.yul\":9811:9814   */\n      dup3\n        /* \"#utility.yul\":9807:9821   */\n      add\n        /* \"#utility.yul\":9910:9914   */\n      0x00\n        /* \"#utility.yul\":9903:9908   */\n      dup3\n        /* \"#utility.yul\":9899:9915   */\n      add\n        /* \"#utility.yul\":9893:9916   */\n      mload\n        /* \"#utility.yul\":9929:9992   */\n      tag_301\n        /* \"#utility.yul\":9986:9990   */\n      0x00\n        /* \"#utility.yul\":9981:9984   */\n      dup6\n        /* \"#utility.yul\":9977:9991   */\n      add\n        /* \"#utility.yul\":9963:9975   */\n      dup3\n        /* \"#utility.yul\":9929:9992   */\n      tag_171\n      jump\t// in\n    tag_301:\n        /* \"#utility.yul\":9831:10002   */\n      pop\n        /* \"#utility.yul\":10096:10100   */\n      0x20\n        /* \"#utility.yul\":10089:10094   */\n      dup3\n        /* \"#utility.yul\":10085:10101   */\n      add\n        /* \"#utility.yul\":10079:10102   */\n      mload\n        /* \"#utility.yul\":10115:10178   */\n      tag_302\n        /* \"#utility.yul\":10172:10176   */\n      0x20\n        /* \"#utility.yul\":10167:10170   */\n      dup6\n        /* \"#utility.yul\":10163:10177   */\n      add\n        /* \"#utility.yul\":10149:10161   */\n      dup3\n        /* \"#utility.yul\":10115:10178   */\n      tag_175\n      jump\t// in\n    tag_302:\n        /* \"#utility.yul\":10012:10188   */\n      pop\n        /* \"#utility.yul\":9785:10195   */\n      pop\n        /* \"#utility.yul\":9681:10195   */\n      pop\n      pop\n      jump\t// out\n        /* \"#utility.yul\":10201:10499   */\n    tag_46:\n        /* \"#utility.yul\":10332:10336   */\n      0x00\n        /* \"#utility.yul\":10370:10372   */\n      0x40\n        /* \"#utility.yul\":10359:10368   */\n      dup3\n        /* \"#utility.yul\":10355:10373   */\n      add\n        /* \"#utility.yul\":10347:10373   */\n      swap1\n      pop\n        /* \"#utility.yul\":10383:10492   */\n      tag_304\n        /* \"#utility.yul\":10489:10490   */\n      0x00\n        /* \"#utility.yul\":10478:10487   */\n      dup4\n        /* \"#utility.yul\":10474:10491   */\n      add\n        /* \"#utility.yul\":10465:10471   */\n      dup5\n        /* \"#utility.yul\":10383:10492   */\n      tag_176\n      jump\t// in\n    tag_304:\n        /* \"#utility.yul\":10201:10499   */\n      swap3\n      swap2\n      pop\n      pop\n      jump\t// out\n        /* \"#utility.yul\":10505:11014   */\n    tag_49:\n        /* \"#utility.yul\":10574:10580   */\n      0x00\n        /* \"#utility.yul\":10623:10625   */\n      0x20\n        /* \"#utility.yul\":10611:10620   */\n      dup3\n        /* \"#utility.yul\":10602:10609   */\n      dup5\n        /* \"#utility.yul\":10598:10621   */\n      sub\n        /* \"#utility.yul\":10594:10626   */\n      slt\n        /* \"#utility.yul\":10591:10710   */\n      iszero\n      tag_306\n      jumpi\n        /* \"#utility.yul\":10629:10708   */\n      tag_307\n      tag_147\n      jump\t// in\n    tag_307:\n        /* \"#utility.yul\":10591:10710   */\n    tag_306:\n        /* \"#utility.yul\":10777:10778   */\n      0x00\n        /* \"#utility.yul\":10766:10775   */\n      dup3\n        /* \"#utility.yul\":10762:10779   */\n      add\n        /* \"#utility.yul\":10749:10780   */\n      calldataload\n        /* \"#utility.yul\":10807:10825   */\n      0xffffffffffffffff\n        /* \"#utility.yul\":10799:10805   */\n      dup2\n        /* \"#utility.yul\":10796:10826   */\n      gt\n        /* \"#utility.yul\":10793:10910   */\n      iszero\n      tag_308\n      jumpi\n        /* \"#utility.yul\":10829:10908   */\n      tag_309\n      tag_148\n      jump\t// in\n    tag_309:\n        /* \"#utility.yul\":10793:10910   */\n    tag_308:\n        /* \"#utility.yul\":10934:10997   */\n      tag_310\n        /* \"#utility.yul\":10989:10996   */\n      dup5\n        /* \"#utility.yul\":10980:10986   */\n      dup3\n        /* \"#utility.yul\":10969:10978   */\n      dup6\n        /* \"#utility.yul\":10965:10987   */\n      add\n        /* \"#utility.yul\":10934:10997   */\n      tag_167\n      jump\t// in\n    tag_310:\n        /* \"#utility.yul\":10924:10997   */\n      swap2\n      pop\n        /* \"#utility.yul\":10720:11007   */\n      pop\n        /* \"#utility.yul\":10505:11014   */\n      swap3\n      swap2\n      pop\n      pop\n      jump\t// out\n        /* \"#utility.yul\":11020:11331   */\n    tag_177:\n        /* \"#utility.yul\":11097:11101   */\n      0x00\n        /* \"#utility.yul\":11187:11205   */\n      0xffffffffffffffff\n        /* \"#utility.yul\":11179:11185   */\n      dup3\n        /* \"#utility.yul\":11176:11206   */\n      gt\n        /* \"#utility.yul\":11173:11229   */\n      iszero\n      tag_312\n      jumpi\n        /* \"#utility.yul\":11209:11227   */\n      tag_313\n      tag_161\n      jump\t// in\n    tag_313:\n        /* \"#utility.yul\":11173:11229   */\n    tag_312:\n        /* \"#utility.yul\":11259:11263   */\n      0x20\n        /* \"#utility.yul\":11251:11257   */\n      dup3\n        /* \"#utility.yul\":11247:11264   */\n      mul\n        /* \"#utility.yul\":11239:11264   */\n      swap1\n      pop\n        /* \"#utility.yul\":11319:11323   */\n      0x20\n        /* \"#utility.yul\":11313:11317   */\n      dup2\n        /* \"#utility.yul\":11309:11324   */\n      add\n        /* \"#utility.yul\":11301:11324   */\n      swap1\n      pop\n        /* \"#utility.yul\":11020:11331   */\n      swap2\n      swap1\n      pop\n      jump\t// out\n        /* \"#utility.yul\":11337:11454   */\n    tag_178:\n        /* \"#utility.yul\":11446:11447   */\n      0x00\n        /* \"#utility.yul\":11443:11444   */\n      dup1\n        /* \"#utility.yul\":11436:11448   */\n      revert\n        /* \"#utility.yul\":11477:12187   */\n    tag_179:\n        /* \"#utility.yul\":11573:11578   */\n      0x00\n        /* \"#utility.yul\":11598:11679   */\n      tag_316\n        /* \"#utility.yul\":11614:11678   */\n      tag_317\n        /* \"#utility.yul\":11671:11677   */\n      dup5\n        /* \"#utility.yul\":11614:11678   */\n      tag_177\n      jump\t// in\n    tag_317:\n        /* \"#utility.yul\":11598:11679   */\n      tag_163\n      jump\t// in\n    tag_316:\n        /* \"#utility.yul\":11589:11679   */\n      swap1\n      pop\n        /* \"#utility.yul\":11699:11704   */\n      dup1\n        /* \"#utility.yul\":11728:11734   */\n      dup4\n        /* \"#utility.yul\":11721:11726   */\n      dup3\n        /* \"#utility.yul\":11714:11735   */\n      mstore\n        /* \"#utility.yul\":11762:11766   */\n      0x20\n        /* \"#utility.yul\":11755:11760   */\n      dup3\n        /* \"#utility.yul\":11751:11767   */\n      add\n        /* \"#utility.yul\":11744:11767   */\n      swap1\n      pop\n        /* \"#utility.yul\":11815:11819   */\n      0x20\n        /* \"#utility.yul\":11807:11813   */\n      dup5\n        /* \"#utility.yul\":11803:11820   */\n      mul\n        /* \"#utility.yul\":11795:11801   */\n      dup4\n        /* \"#utility.yul\":11791:11821   */\n      add\n        /* \"#utility.yul\":11844:11847   */\n      dup6\n        /* \"#utility.yul\":11836:11842   */\n      dup2\n        /* \"#utility.yul\":11833:11848   */\n      gt\n        /* \"#utility.yul\":11830:11952   */\n      iszero\n      tag_318\n      jumpi\n        /* \"#utility.yul\":11863:11942   */\n      tag_319\n      tag_178\n      jump\t// in\n    tag_319:\n        /* \"#utility.yul\":11830:11952   */\n    tag_318:\n        /* \"#utility.yul\":11978:11984   */\n      dup4\n        /* \"#utility.yul\":11961:12181   */\n    tag_320:\n        /* \"#utility.yul\":11995:12001   */\n      dup2\n        /* \"#utility.yul\":11990:11993   */\n      dup2\n        /* \"#utility.yul\":11987:12002   */\n      lt\n        /* \"#utility.yul\":11961:12181   */\n      iszero\n      tag_322\n      jumpi\n        /* \"#utility.yul\":12070:12073   */\n      dup1\n        /* \"#utility.yul\":12099:12136   */\n      tag_323\n        /* \"#utility.yul\":12132:12135   */\n      dup9\n        /* \"#utility.yul\":12120:12130   */\n      dup3\n        /* \"#utility.yul\":12099:12136   */\n      tag_152\n      jump\t// in\n    tag_323:\n        /* \"#utility.yul\":12094:12097   */\n      dup5\n        /* \"#utility.yul\":12087:12137   */\n      mstore\n        /* \"#utility.yul\":12166:12170   */\n      0x20\n        /* \"#utility.yul\":12161:12164   */\n      dup5\n        /* \"#utility.yul\":12157:12171   */\n      add\n        /* \"#utility.yul\":12150:12171   */\n      swap4\n      pop\n        /* \"#utility.yul\":12037:12181   */\n      pop\n        /* \"#utility.yul\":12021:12025   */\n      0x20\n        /* \"#utility.yul\":12016:12019   */\n      dup2\n        /* \"#utility.yul\":12012:12026   */\n      add\n        /* \"#utility.yul\":12005:12026   */\n      swap1\n      pop\n        /* \"#utility.yul\":11961:12181   */\n      jump(tag_320)\n    tag_322:\n        /* \"#utility.yul\":11965:11986   */\n      pop\n        /* \"#utility.yul\":11579:12187   */\n      pop\n      pop\n        /* \"#utility.yul\":11477:12187   */\n      swap4\n      swap3\n      pop\n      pop\n      pop\n      jump\t// out\n        /* \"#utility.yul\":12210:12580   */\n    tag_180:\n        /* \"#utility.yul\":12281:12286   */\n      0x00\n        /* \"#utility.yul\":12330:12333   */\n      dup3\n        /* \"#utility.yul\":12323:12327   */\n      0x1f\n        /* \"#utility.yul\":12315:12321   */\n      dup4\n        /* \"#utility.yul\":12311:12328   */\n      add\n        /* \"#utility.yul\":12307:12334   */\n      slt\n        /* \"#utility.yul\":12297:12419   */\n      tag_325\n      jumpi\n        /* \"#utility.yul\":12338:12417   */\n      tag_326\n      tag_158\n      jump\t// in\n    tag_326:\n        /* \"#utility.yul\":12297:12419   */\n    tag_325:\n        /* \"#utility.yul\":12455:12461   */\n      dup2\n        /* \"#utility.yul\":12442:12462   */\n      calldataload\n        /* \"#utility.yul\":12480:12574   */\n      tag_327\n        /* \"#utility.yul\":12570:12573   */\n      dup5\n        /* \"#utility.yul\":12562:12568   */\n      dup3\n        /* \"#utility.yul\":12555:12559   */\n      0x20\n        /* \"#utility.yul\":12547:12553   */\n      dup7\n        /* \"#utility.yul\":12543:12560   */\n      add\n        /* \"#utility.yul\":12480:12574   */\n      tag_179\n      jump\t// in\n    tag_327:\n        /* \"#utility.yul\":12471:12574   */\n      swap2\n      pop\n        /* \"#utility.yul\":12287:12580   */\n      pop\n        /* \"#utility.yul\":12210:12580   */\n      swap3\n      swap2\n      pop\n      pop\n      jump\t// out\n        /* \"#utility.yul\":12586:13270   */\n    tag_54:\n        /* \"#utility.yul\":12679:12685   */\n      0x00\n        /* \"#utility.yul\":12687:12693   */\n      dup1\n        /* \"#utility.yul\":12736:12738   */\n      0x40\n        /* \"#utility.yul\":12724:12733   */\n      dup4\n        /* \"#utility.yul\":12715:12722   */\n      dup6\n        /* \"#utility.yul\":12711:12734   */\n      sub\n        /* \"#utility.yul\":12707:12739   */\n      slt\n        /* \"#utility.yul\":12704:12823   */\n      iszero\n      tag_329\n      jumpi\n        /* \"#utility.yul\":12742:12821   */\n      tag_330\n      tag_147\n      jump\t// in\n    tag_330:\n        /* \"#utility.yul\":12704:12823   */\n    tag_329:\n        /* \"#utility.yul\":12862:12863   */\n      0x00\n        /* \"#utility.yul\":12887:12940   */\n      tag_331\n        /* \"#utility.yul\":12932:12939   */\n      dup6\n        /* \"#utility.yul\":12923:12929   */\n      dup3\n        /* \"#utility.yul\":12912:12921   */\n      dup7\n        /* \"#utility.yul\":12908:12930   */\n      add\n        /* \"#utility.yul\":12887:12940   */\n      tag_155\n      jump\t// in\n    tag_331:\n        /* \"#utility.yul\":12877:12940   */\n      swap3\n      pop\n        /* \"#utility.yul\":12833:12950   */\n      pop\n        /* \"#utility.yul\":13017:13019   */\n      0x20\n        /* \"#utility.yul\":13006:13015   */\n      dup4\n        /* \"#utility.yul\":13002:13020   */\n      add\n        /* \"#utility.yul\":12989:13021   */\n      calldataload\n        /* \"#utility.yul\":13048:13066   */\n      0xffffffffffffffff\n        /* \"#utility.yul\":13040:13046   */\n      dup2\n        /* \"#utility.yul\":13037:13067   */\n      gt\n        /* \"#utility.yul\":13034:13151   */\n      iszero\n      tag_332\n      jumpi\n        /* \"#utility.yul\":13070:13149   */\n      tag_333\n      tag_148\n      jump\t// in\n    tag_333:\n        /* \"#utility.yul\":13034:13151   */\n    tag_332:\n        /* \"#utility.yul\":13175:13253   */\n      tag_334\n        /* \"#utility.yul\":13245:13252   */\n      dup6\n        /* \"#utility.yul\":13236:13242   */\n      dup3\n        /* \"#utility.yul\":13225:13234   */\n      dup7\n        /* \"#utility.yul\":13221:13243   */\n      add\n        /* \"#utility.yul\":13175:13253   */\n      tag_180\n      jump\t// in\n    tag_334:\n        /* \"#utility.yul\":13165:13253   */\n      swap2\n      pop\n        /* \"#utility.yul\":12960:13263   */\n      pop\n        /* \"#utility.yul\":12586:13270   */\n      swap3\n      pop\n      swap3\n      swap1\n      pop\n      jump\t// out\n        /* \"#utility.yul\":13276:13605   */\n    tag_59:\n        /* \"#utility.yul\":13335:13341   */\n      0x00\n        /* \"#utility.yul\":13384:13386   */\n      0x20\n        /* \"#utility.yul\":13372:13381   */\n      dup3\n        /* \"#utility.yul\":13363:13370   */\n      dup5\n        /* \"#utility.yul\":13359:13382   */\n      sub\n        /* \"#utility.yul\":13355:13387   */\n      slt\n        /* \"#utility.yul\":13352:13471   */\n      iszero\n      tag_336\n      jumpi\n        /* \"#utility.yul\":13390:13469   */\n      tag_337\n      tag_147\n      jump\t// in\n    tag_337:\n        /* \"#utility.yul\":13352:13471   */\n    tag_336:\n        /* \"#utility.yul\":13510:13511   */\n      0x00\n        /* \"#utility.yul\":13535:13588   */\n      tag_338\n        /* \"#utility.yul\":13580:13587   */\n      dup5\n        /* \"#utility.yul\":13571:13577   */\n      dup3\n        /* \"#utility.yul\":13560:13569   */\n      dup6\n        /* \"#utility.yul\":13556:13578   */\n      add\n        /* \"#utility.yul\":13535:13588   */\n      tag_155\n      jump\t// in\n    tag_338:\n        /* \"#utility.yul\":13525:13588   */\n      swap2\n      pop\n        /* \"#utility.yul\":13481:13598   */\n      pop\n        /* \"#utility.yul\":13276:13605   */\n      swap3\n      swap2\n      pop\n      pop\n      jump\t// out\n        /* \"#utility.yul\":13611:13780   */\n    tag_181:\n        /* \"#utility.yul\":13695:13706   */\n      0x00\n        /* \"#utility.yul\":13729:13735   */\n      dup3\n        /* \"#utility.yul\":13724:13727   */\n      dup3\n        /* \"#utility.yul\":13717:13736   */\n      mstore\n        /* \"#utility.yul\":13769:13773   */\n      0x20\n        /* \"#utility.yul\":13764:13767   */\n      dup3\n        /* \"#utility.yul\":13760:13774   */\n      add\n        /* \"#utility.yul\":13745:13774   */\n      swap1\n      pop\n        /* \"#utility.yul\":13611:13780   */\n      swap3\n      swap2\n      pop\n      pop\n      jump\t// out\n        /* \"#utility.yul\":13786:13955   */\n    tag_182:\n        /* \"#utility.yul\":13926:13947   */\n      0x4e6f646520616c72656164792065786973747300000000000000000000000000\n        /* \"#utility.yul\":13922:13923   */\n      0x00\n        /* \"#utility.yul\":13914:13920   */\n      dup3\n        /* \"#utility.yul\":13910:13924   */\n      add\n        /* \"#utility.yul\":13903:13948   */\n      mstore\n        /* \"#utility.yul\":13786:13955   */\n      pop\n      jump\t// out\n        /* \"#utility.yul\":13961:14327   */\n    tag_183:\n        /* \"#utility.yul\":14103:14106   */\n      0x00\n        /* \"#utility.yul\":14124:14191   */\n      tag_342\n        /* \"#utility.yul\":14188:14190   */\n      0x13\n        /* \"#utility.yul\":14183:14186   */\n      dup4\n        /* \"#utility.yul\":14124:14191   */\n      tag_181\n      jump\t// in\n    tag_342:\n        /* \"#utility.yul\":14117:14191   */\n      swap2\n      pop\n        /* \"#utility.yul\":14200:14293   */\n      tag_343\n        /* \"#utility.yul\":14289:14292   */\n      dup3\n        /* \"#utility.yul\":14200:14293   */\n      tag_182\n      jump\t// in\n    tag_343:\n        /* \"#utility.yul\":14318:14320   */\n      0x20\n        /* \"#utility.yul\":14313:14316   */\n      dup3\n        /* \"#utility.yul\":14309:14321   */\n      add\n        /* \"#utility.yul\":14302:14321   */\n      swap1\n      pop\n        /* \"#utility.yul\":13961:14327   */\n      swap2\n      swap1\n      pop\n      jump\t// out\n        /* \"#utility.yul\":14333:14752   */\n    tag_65:\n        /* \"#utility.yul\":14499:14503   */\n      0x00\n        /* \"#utility.yul\":14537:14539   */\n      0x20\n        /* \"#utility.yul\":14526:14535   */\n      dup3\n        /* \"#utility.yul\":14522:14540   */\n      add\n        /* \"#utility.yul\":14514:14540   */\n      swap1\n      pop\n        /* \"#utility.yul\":14586:14595   */\n      dup2\n        /* \"#utility.yul\":14580:14584   */\n      dup2\n        /* \"#utility.yul\":14576:14596   */\n      sub\n        /* \"#utility.yul\":14572:14573   */\n      0x00\n        /* \"#utility.yul\":14561:14570   */\n      dup4\n        /* \"#utility.yul\":14557:14574   */\n      add\n        /* \"#utility.yul\":14550:14597   */\n      mstore\n        /* \"#utility.yul\":14614:14745   */\n      tag_345\n        /* \"#utility.yul\":14740:14744   */\n      dup2\n        /* \"#utility.yul\":14614:14745   */\n      tag_183\n      jump\t// in\n    tag_345:\n        /* \"#utility.yul\":14606:14745   */\n      swap1\n      pop\n        /* \"#utility.yul\":14333:14752   */\n      swap2\n      swap1\n      pop\n      jump\t// out\n        /* \"#utility.yul\":14758:14927   */\n    tag_184:\n        /* \"#utility.yul\":14898:14919   */\n      0x4e6f646520646f6573206e6f7420657869737400000000000000000000000000\n        /* \"#utility.yul\":14894:14895   */\n      0x00\n        /* \"#utility.yul\":14886:14892   */\n      dup3\n        /* \"#utility.yul\":14882:14896   */\n      add\n        /* \"#utility.yul\":14875:14920   */\n      mstore\n        /* \"#utility.yul\":14758:14927   */\n      pop\n      jump\t// out\n        /* \"#utility.yul\":14933:15299   */\n    tag_185:\n        /* \"#utility.yul\":15075:15078   */\n      0x00\n        /* \"#utility.yul\":15096:15163   */\n      tag_348\n        /* \"#utility.yul\":15160:15162   */\n      0x13\n        /* \"#utility.yul\":15155:15158   */\n      dup4\n        /* \"#utility.yul\":15096:15163   */\n      tag_181\n      jump\t// in\n    tag_348:\n        /* \"#utility.yul\":15089:15163   */\n      swap2\n      pop\n        /* \"#utility.yul\":15172:15265   */\n      tag_349\n        /* \"#utility.yul\":15261:15264   */\n      dup3\n        /* \"#utility.yul\":15172:15265   */\n      tag_184\n      jump\t// in\n    tag_349:\n        /* \"#utility.yul\":15290:15292   */\n      0x20\n        /* \"#utility.yul\":15285:15288   */\n      dup3\n        /* \"#utility.yul\":15281:15293   */\n      add\n        /* \"#utility.yul\":15274:15293   */\n      swap1\n      pop\n        /* \"#utility.yul\":14933:15299   */\n      swap2\n      swap1\n      pop\n      jump\t// out\n        /* \"#utility.yul\":15305:15724   */\n    tag_73:\n        /* \"#utility.yul\":15471:15475   */\n      0x00\n        /* \"#utility.yul\":15509:15511   */\n      0x20\n        /* \"#utility.yul\":15498:15507   */\n      dup3\n        /* \"#utility.yul\":15494:15512   */\n      add\n        /* \"#utility.yul\":15486:15512   */\n      swap1\n      pop\n        /* \"#utility.yul\":15558:15567   */\n      dup2\n        /* \"#utility.yul\":15552:15556   */\n      dup2\n        /* \"#utility.yul\":15548:15568   */\n      sub\n        /* \"#utility.yul\":15544:15545   */\n      0x00\n        /* \"#utility.yul\":15533:15542   */\n      dup4\n        /* \"#utility.yul\":15529:15546   */\n      add\n        /* \"#utility.yul\":15522:15569   */\n      mstore\n        /* \"#utility.yul\":15586:15717   */\n      tag_351\n        /* \"#utility.yul\":15712:15716   */\n      dup2\n        /* \"#utility.yul\":15586:15717   */\n      tag_185\n      jump\t// in\n    tag_351:\n        /* \"#utility.yul\":15578:15717   */\n      swap1\n      pop\n        /* \"#utility.yul\":15305:15724   */\n      swap2\n      swap1\n      pop\n      jump\t// out\n        /* \"#utility.yul\":15730:15829   */\n    tag_186:\n        /* \"#utility.yul\":15782:15788   */\n      0x00\n        /* \"#utility.yul\":15816:15821   */\n      dup2\n        /* \"#utility.yul\":15810:15822   */\n      mload\n        /* \"#utility.yul\":15800:15822   */\n      swap1\n      pop\n        /* \"#utility.yul\":15730:15829   */\n      swap2\n      swap1\n      pop\n      jump\t// out\n        /* \"#utility.yul\":15835:15983   */\n    tag_187:\n        /* \"#utility.yul\":15937:15948   */\n      0x00\n        /* \"#utility.yul\":15974:15977   */\n      dup2\n        /* \"#utility.yul\":15959:15977   */\n      swap1\n      pop\n        /* \"#utility.yul\":15835:15983   */\n      swap3\n      swap2\n      pop\n      pop\n      jump\t// out\n        /* \"#utility.yul\":15989:16235   */\n    tag_188:\n        /* \"#utility.yul\":16070:16071   */\n      0x00\n        /* \"#utility.yul\":16080:16193   */\n    tag_355:\n        /* \"#utility.yul\":16094:16100   */\n      dup4\n        /* \"#utility.yul\":16091:16092   */\n      dup2\n        /* \"#utility.yul\":16088:16101   */\n      lt\n        /* \"#utility.yul\":16080:16193   */\n      iszero\n      tag_357\n      jumpi\n        /* \"#utility.yul\":16179:16180   */\n      dup1\n        /* \"#utility.yul\":16174:16177   */\n      dup3\n        /* \"#utility.yul\":16170:16181   */\n      add\n        /* \"#utility.yul\":16164:16182   */\n      mload\n        /* \"#utility.yul\":16160:16161   */\n      dup2\n        /* \"#utility.yul\":16155:16158   */\n      dup5\n        /* \"#utility.yul\":16151:16162   */\n      add\n        /* \"#utility.yul\":16144:16183   */\n      mstore\n        /* \"#utility.yul\":16116:16118   */\n      0x20\n        /* \"#utility.yul\":16113:16114   */\n      dup2\n        /* \"#utility.yul\":16109:16119   */\n      add\n        /* \"#utility.yul\":16104:16119   */\n      swap1\n      pop\n        /* \"#utility.yul\":16080:16193   */\n      jump(tag_355)\n    tag_357:\n        /* \"#utility.yul\":16227:16228   */\n      0x00\n        /* \"#utility.yul\":16218:16224   */\n      dup5\n        /* \"#utility.yul\":16213:16216   */\n      dup5\n        /* \"#utility.yul\":16209:16225   */\n      add\n        /* \"#utility.yul\":16202:16229   */\n      mstore\n        /* \"#utility.yul\":16051:16235   */\n      pop\n        /* \"#utility.yul\":15989:16235   */\n      pop\n      pop\n      pop\n      jump\t// out\n        /* \"#utility.yul\":16241:16631   */\n    tag_189:\n        /* \"#utility.yul\":16347:16350   */\n      0x00\n        /* \"#utility.yul\":16375:16414   */\n      tag_359\n        /* \"#utility.yul\":16408:16413   */\n      dup3\n        /* \"#utility.yul\":16375:16414   */\n      tag_186\n      jump\t// in\n    tag_359:\n        /* \"#utility.yul\":16430:16519   */\n      tag_360\n        /* \"#utility.yul\":16512:16518   */\n      dup2\n        /* \"#utility.yul\":16507:16510   */\n      dup6\n        /* \"#utility.yul\":16430:16519   */\n      tag_187\n      jump\t// in\n    tag_360:\n        /* \"#utility.yul\":16423:16519   */\n      swap4\n      pop\n        /* \"#utility.yul\":16528:16593   */\n      tag_361\n        /* \"#utility.yul\":16586:16592   */\n      dup2\n        /* \"#utility.yul\":16581:16584   */\n      dup6\n        /* \"#utility.yul\":16574:16578   */\n      0x20\n        /* \"#utility.yul\":16567:16572   */\n      dup7\n        /* \"#utility.yul\":16563:16579   */\n      add\n        /* \"#utility.yul\":16528:16593   */\n      tag_188\n      jump\t// in\n    tag_361:\n        /* \"#utility.yul\":16618:16624   */\n      dup1\n        /* \"#utility.yul\":16613:16616   */\n      dup5\n        /* \"#utility.yul\":16609:16625   */\n      add\n        /* \"#utility.yul\":16602:16625   */\n      swap2\n      pop\n        /* \"#utility.yul\":16351:16631   */\n      pop\n        /* \"#utility.yul\":16241:16631   */\n      swap3\n      swap2\n      pop\n      pop\n      jump\t// out\n        /* \"#utility.yul\":16637:16912   */\n    tag_75:\n        /* \"#utility.yul\":16769:16772   */\n      0x00\n        /* \"#utility.yul\":16791:16886   */\n      tag_363\n        /* \"#utility.yul\":16882:16885   */\n      dup3\n        /* \"#utility.yul\":16873:16879   */\n      dup5\n        /* \"#utility.yul\":16791:16886   */\n      tag_189\n      jump\t// in\n    tag_363:\n        /* \"#utility.yul\":16784:16886   */\n      swap2\n      pop\n        /* \"#utility.yul\":16903:16906   */\n      dup2\n        /* \"#utility.yul\":16896:16906   */\n      swap1\n      pop\n        /* \"#utility.yul\":16637:16912   */\n      swap3\n      swap2\n      pop\n      pop\n      jump\t// out\n        /* \"#utility.yul\":16918:17098   */\n    tag_190:\n        /* \"#utility.yul\":16966:17043   */\n      0x4e487b7100000000000000000000000000000000000000000000000000000000\n        /* \"#utility.yul\":16963:16964   */\n      0x00\n        /* \"#utility.yul\":16956:17044   */\n      mstore\n        /* \"#utility.yul\":17063:17067   */\n      0x11\n        /* \"#utility.yul\":17060:17061   */\n      0x04\n        /* \"#utility.yul\":17053:17068   */\n      mstore\n        /* \"#utility.yul\":17087:17091   */\n      0x24\n        /* \"#utility.yul\":17084:17085   */\n      0x00\n        /* \"#utility.yul\":17077:17092   */\n      revert\n        /* \"#utility.yul\":17104:17298   */\n    tag_105:\n        /* \"#utility.yul\":17144:17148   */\n      0x00\n        /* \"#utility.yul\":17164:17184   */\n      tag_366\n        /* \"#utility.yul\":17182:17183   */\n      dup3\n        /* \"#utility.yul\":17164:17184   */\n      tag_153\n      jump\t// in\n    tag_366:\n        /* \"#utility.yul\":17159:17184   */\n      swap2\n      pop\n        /* \"#utility.yul\":17198:17218   */\n      tag_367\n        /* \"#utility.yul\":17216:17217   */\n      dup4\n        /* \"#utility.yul\":17198:17218   */\n      tag_153\n      jump\t// in\n    tag_367:\n        /* \"#utility.yul\":17193:17218   */\n      swap3\n      pop\n        /* \"#utility.yul\":17242:17243   */\n      dup3\n        /* \"#utility.yul\":17239:17240   */\n      dup3\n        /* \"#utility.yul\":17235:17244   */\n      sub\n        /* \"#utility.yul\":17227:17244   */\n      swap1\n      pop\n        /* \"#utility.yul\":17266:17267   */\n      dup2\n        /* \"#utility.yul\":17260:17264   */\n      dup2\n        /* \"#utility.yul\":17257:17268   */\n      gt\n        /* \"#utility.yul\":17254:17291   */\n      iszero\n      tag_368\n      jumpi\n        /* \"#utility.yul\":17271:17289   */\n      tag_369\n      tag_190\n      jump\t// in\n    tag_369:\n        /* \"#utility.yul\":17254:17291   */\n    tag_368:\n        /* \"#utility.yul\":17104:17298   */\n      swap3\n      swap2\n      pop\n      pop\n      jump\t// out\n        /* \"#utility.yul\":17304:17484   */\n    tag_191:\n        /* \"#utility.yul\":17352:17429   */\n      0x4e487b7100000000000000000000000000000000000000000000000000000000\n        /* \"#utility.yul\":17349:17350   */\n      0x00\n        /* \"#utility.yul\":17342:17430   */\n      mstore\n        /* \"#utility.yul\":17449:17453   */\n      0x12\n        /* \"#utility.yul\":17446:17447   */\n      0x04\n        /* \"#utility.yul\":17439:17454   */\n      mstore\n        /* \"#utility.yul\":17473:17477   */\n      0x24\n        /* \"#utility.yul\":17470:17471   */\n      0x00\n        /* \"#utility.yul\":17463:17478   */\n      revert\n        /* \"#utility.yul\":17490:17666   */\n    tag_107:\n        /* \"#utility.yul\":17522:17523   */\n      0x00\n        /* \"#utility.yul\":17539:17559   */\n      tag_372\n        /* \"#utility.yul\":17557:17558   */\n      dup3\n        /* \"#utility.yul\":17539:17559   */\n      tag_153\n      jump\t// in\n    tag_372:\n        /* \"#utility.yul\":17534:17559   */\n      swap2\n      pop\n        /* \"#utility.yul\":17573:17593   */\n      tag_373\n        /* \"#utility.yul\":17591:17592   */\n      dup4\n        /* \"#utility.yul\":17573:17593   */\n      tag_153\n      jump\t// in\n    tag_373:\n        /* \"#utility.yul\":17568:17593   */\n      swap3\n      pop\n        /* \"#utility.yul\":17612:17613   */\n      dup3\n        /* \"#utility.yul\":17602:17637   */\n      tag_374\n      jumpi\n        /* \"#utility.yul\":17617:17635   */\n      tag_375\n      tag_191\n      jump\t// in\n    tag_375:\n        /* \"#utility.yul\":17602:17637   */\n    tag_374:\n        /* \"#utility.yul\":17658:17659   */\n      dup3\n        /* \"#utility.yul\":17655:17656   */\n      dup3\n        /* \"#utility.yul\":17651:17660   */\n      mod\n        /* \"#utility.yul\":17646:17660   */\n      swap1\n      pop\n        /* \"#utility.yul\":17490:17666   */\n      swap3\n      swap2\n      pop\n      pop\n      jump\t// out\n        /* \"#utility.yul\":17672:17863   */\n    tag_111:\n        /* \"#utility.yul\":17712:17715   */\n      0x00\n        /* \"#utility.yul\":17731:17751   */\n      tag_377\n        /* \"#utility.yul\":17749:17750   */\n      dup3\n        /* \"#utility.yul\":17731:17751   */\n      tag_153\n      jump\t// in\n    tag_377:\n        /* \"#utility.yul\":17726:17751   */\n      swap2\n      pop\n        /* \"#utility.yul\":17765:17785   */\n      tag_378\n        /* \"#utility.yul\":17783:17784   */\n      dup4\n        /* \"#utility.yul\":17765:17785   */\n      tag_153\n      jump\t// in\n    tag_378:\n        /* \"#utility.yul\":17760:17785   */\n      swap3\n      pop\n        /* \"#utility.yul\":17808:17809   */\n      dup3\n        /* \"#utility.yul\":17805:17806   */\n      dup3\n        /* \"#utility.yul\":17801:17810   */\n      add\n        /* \"#utility.yul\":17794:17810   */\n      swap1\n      pop\n        /* \"#utility.yul\":17829:17832   */\n      dup1\n        /* \"#utility.yul\":17826:17827   */\n      dup3\n        /* \"#utility.yul\":17823:17833   */\n      gt\n        /* \"#utility.yul\":17820:17856   */\n      iszero\n      tag_379\n      jumpi\n        /* \"#utility.yul\":17836:17854   */\n      tag_380\n      tag_190\n      jump\t// in\n    tag_380:\n        /* \"#utility.yul\":17820:17856   */\n    tag_379:\n        /* \"#utility.yul\":17672:17863   */\n      swap3\n      swap2\n      pop\n      pop\n      jump\t// out\n        /* \"#utility.yul\":17869:18049   */\n    tag_115:\n        /* \"#utility.yul\":17917:17994   */\n      0x4e487b7100000000000000000000000000000000000000000000000000000000\n        /* \"#utility.yul\":17914:17915   */\n      0x00\n        /* \"#utility.yul\":17907:17995   */\n      mstore\n        /* \"#utility.yul\":18014:18018   */\n      0x32\n        /* \"#utility.yul\":18011:18012   */\n      0x04\n        /* \"#utility.yul\":18004:18019   */\n      mstore\n        /* \"#utility.yul\":18038:18042   */\n      0x24\n        /* \"#utility.yul\":18035:18036   */\n      0x00\n        /* \"#utility.yul\":18028:18043   */\n      revert\n        /* \"#utility.yul\":18055:18277   */\n    tag_118:\n        /* \"#utility.yul\":18148:18152   */\n      0x00\n        /* \"#utility.yul\":18186:18188   */\n      0x20\n        /* \"#utility.yul\":18175:18184   */\n      dup3\n        /* \"#utility.yul\":18171:18189   */\n      add\n        /* \"#utility.yul\":18163:18189   */\n      swap1\n      pop\n        /* \"#utility.yul\":18199:18270   */\n      tag_383\n        /* \"#utility.yul\":18267:18268   */\n      0x00\n        /* \"#utility.yul\":18256:18265   */\n      dup4\n        /* \"#utility.yul\":18252:18269   */\n      add\n        /* \"#utility.yul\":18243:18249   */\n      dup5\n        /* \"#utility.yul\":18199:18270   */\n      tag_157\n      jump\t// in\n    tag_383:\n        /* \"#utility.yul\":18055:18277   */\n      swap3\n      swap2\n      pop\n      pop\n      jump\t// out\n        /* \"#utility.yul\":18283:18516   */\n    tag_129:\n        /* \"#utility.yul\":18322:18325   */\n      0x00\n        /* \"#utility.yul\":18345:18369   */\n      tag_385\n        /* \"#utility.yul\":18363:18368   */\n      dup3\n        /* \"#utility.yul\":18345:18369   */\n      tag_153\n      jump\t// in\n    tag_385:\n        /* \"#utility.yul\":18336:18369   */\n      swap2\n      pop\n        /* \"#utility.yul\":18391:18457   */\n      0xffffffffffffffffffffffffffffffffffffffffffffffffffffffffffffffff\n        /* \"#utility.yul\":18384:18389   */\n      dup3\n        /* \"#utility.yul\":18381:18458   */\n      sub\n        /* \"#utility.yul\":18378:18481   */\n      tag_386\n      jumpi\n        /* \"#utility.yul\":18461:18479   */\n      tag_387\n      tag_190\n      jump\t// in\n    tag_387:\n        /* \"#utility.yul\":18378:18481   */\n    tag_386:\n        /* \"#utility.yul\":18508:18509   */\n      0x01\n        /* \"#utility.yul\":18501:18506   */\n      dup3\n        /* \"#utility.yul\":18497:18510   */\n      add\n        /* \"#utility.yul\":18490:18510   */\n      swap1\n      pop\n        /* \"#utility.yul\":18283:18516   */\n      swap2\n      swap1\n      pop\n      jump\t// out\n\n    auxdata: 0xa264697066735822122060ecb967893505c5ddaa469e0b9aea184620e036d210a55defa4d475ae7919ee64736f6c63430008160033\n}\n",
				"bytecode": {
					"linkReferences": {},
					"object": "608060405234801561000f575f80fd5b506117038061001d5f395ff3fe608060405234801561000f575f80fd5b506004361061009c575f3560e01c8063a1174e7d11610064578063a1174e7d14610155578063a986030814610173578063b23793d6146101a3578063c6e24c90146101d3578063fe72ae13146102035761009c565b806311bd77fe146100a0578063189a5a17146100bc57806330e00c9b146100ed57806350f1c9851461011d5780635d44762b14610139575b5f80fd5b6100ba60048036038101906100b59190610ddf565b610233565b005b6100d660048036038101906100d19190610e1d565b610451565b6040516100e4929190610e66565b60405180910390f35b61010760048036038101906101029190610fc9565b61048f565b6040516101149190611023565b60405180910390f35b6101376004803603810190610132919061103c565b6104ef565b005b610153600480360381019061014e9190611096565b6105e7565b005b61015d6107e2565b60405161016a91906111e9565b60405180910390f35b61018d60048036038101906101889190610e1d565b61086d565b60405161019a9190611245565b60405180910390f35b6101bd60048036038101906101b8919061125e565b610921565b6040516101ca91906111e9565b60405180910390f35b6101ed60048036038101906101e89190611369565b610a2d565b6040516101fa9190611023565b60405180910390f35b61021d600480360381019061021891906113c3565b610c21565b60405161022a9190611023565b60405180910390f35b5f73ffffffffffffffffffffffffffffffffffffffff165f808473ffffffffffffffffffffffffffffffffffffffff1673ffffffffffffffffffffffffffffffffffffffff1681526020019081526020015f205f015f9054906101000a900473ffffffffffffffffffffffffffffffffffffffff1673ffffffffffffffffffffffffffffffffffffffff16146102fe576040517f08c379a00000000000000000000000000000000000000000000000000000000081526004016102f590611448565b60405180910390fd5b60405180604001604052808373ffffffffffffffffffffffffffffffffffffffff168152602001828152505f808473ffffffffffffffffffffffffffffffffffffffff1673ffffffffffffffffffffffffffffffffffffffff1681526020019081526020015f205f820151815f015f6101000a81548173ffffffffffffffffffffffffffffffffffffffff021916908373ffffffffffffffffffffffffffffffffffffffff160217905550602082015181600101559050507f5f91b0afd2c6ef8da92137ba907bccdc85ec4856a15ad39de3e0eff02be6d70e826040516103e59190611023565b60405180910390a1600282908060018154018082558091505060019003905f5260205f20015f9091909190916101000a81548173ffffffffffffffffffffffffffffffffffffffff021916908373ffffffffffffffffffffffffffffffffffffffff1602179055505050565b5f602052805f5260405f205f91509050805f015f9054906101000a900473ffffffffffffffffffffffffffffffffffffffff16908060010154905082565b60018280516020810182018051848252602083016020850120818352809550505050505081815481106104c0575f80fd5b905f5260205f20015f915091509054906101000a900473ffffffffffffffffffffffffffffffffffffffff1681565b5f73ffffffffffffffffffffffffffffffffffffffff165f808473ffffffffffffffffffffffffffffffffffffffff1673ffffffffffffffffffffffffffffffffffffffff1681526020019081526020015f205f015f9054906101000a900473ffffffffffffffffffffffffffffffffffffffff1673ffffffffffffffffffffffffffffffffffffffff16036105ba576040517f08c379a00000000000000000000000000000000000000000000000000000000081526004016105b1906114b0565b60405180910390fd5b6001816040516105ca919061153a565b90815260200160405180910390205f6105e39190610cda565b5050565b5f73ffffffffffffffffffffffffffffffffffffffff165f808673ffffffffffffffffffffffffffffffffffffffff1673ffffffffffffffffffffffffffffffffffffffff1681526020019081526020015f205f015f9054906101000a900473ffffffffffffffffffffffffffffffffffffffff1673ffffffffffffffffffffffffffffffffffffffff16036106b2576040517f08c379a00000000000000000000000000000000000000000000000000000000081526004016106a9906114b0565b60405180910390fd5b61075b846001846040516106c6919061153a565b908152602001604051809103902080548060200260200160405190810160405280929190818152602001828054801561075157602002820191905f5260205f20905b815f9054906101000a900473ffffffffffffffffffffffffffffffffffffffff1673ffffffffffffffffffffffffffffffffffffffff1681526020019060010190808311610708575b5050505050610c5c565b6107dc5760018260405161076f919061153a565b908152602001604051809103902084908060018154018082558091505060019003905f5260205f20015f9091909190916101000a81548173ffffffffffffffffffffffffffffffffffffffff021916908373ffffffffffffffffffffffffffffffffffffffff1602179055505b50505050565b6060600280548060200260200160405190810160405280929190818152602001828054801561086357602002820191905f5260205f20905b815f9054906101000a900473ffffffffffffffffffffffffffffffffffffffff1673ffffffffffffffffffffffffffffffffffffffff168152602001906001019080831161081a575b5050505050905090565b610875610cf8565b5f808373ffffffffffffffffffffffffffffffffffffffff1673ffffffffffffffffffffffffffffffffffffffff1681526020019081526020015f206040518060400160405290815f82015f9054906101000a900473ffffffffffffffffffffffffffffffffffffffff1673ffffffffffffffffffffffffffffffffffffffff1673ffffffffffffffffffffffffffffffffffffffff1681526020016001820154815250509050919050565b60605f600183604051610934919061153a565b90815260200160405180910390208054905011610986576040517f08c379a000000000000000000000000000000000000000000000000000000000815260040161097d906114b0565b60405180910390fd5b600182604051610996919061153a565b9081526020016040518091039020805480602002602001604051908101604052809291908181526020018280548015610a2157602002820191905f5260205f20905b815f9054906101000a900473ffffffffffffffffffffffffffffffffffffffff1673ffffffffffffffffffffffffffffffffffffffff16815260200190600101908083116109d8575b50505050509050919050565b5f8060028054905090505f603290505f8203610a4d575f92505050610c1b565b5f82600143610a5c919061157d565b405f1c610a6991906115dd565b90505f805f6103e890505b80821015610c11575f6002878587610a8c919061160d565b610a9691906115dd565b81548110610aa757610aa6611640565b5b905f5260205f20015f9054906101000a900473ffffffffffffffffffffffffffffffffffffffff1690507f0838d04243391d45d94a98fff54d1737cbffea86c34ab825e5d6980ec9b7723585604051610b00919061166d565b60405180910390a1858a610b14919061160d565b5f808373ffffffffffffffffffffffffffffffffffffffff1673ffffffffffffffffffffffffffffffffffffffff1681526020019081526020015f20600101541115610be4575f600190505f5b8a51811015610bc8578273ffffffffffffffffffffffffffffffffffffffff168b8281518110610b9457610b93611640565b5b602002602001015173ffffffffffffffffffffffffffffffffffffffff1603610bbb575f91505b8080600101915050610b61565b508015610be2578293508198505050505050505050610c1b565b505b8380610bef90611686565b9450508280610bfd90611686565b935050868403610c0b575f93505b50610a74565b5f96505050505050505b92915050565b60028181548110610c30575f80fd5b905f5260205f20015f915054906101000a900473ffffffffffffffffffffffffffffffffffffffff1681565b5f805f90505b8251811015610ccf578373ffffffffffffffffffffffffffffffffffffffff16838281518110610c9557610c94611640565b5b602002602001015173ffffffffffffffffffffffffffffffffffffffff1603610cc2576001915050610cd4565b8080600101915050610c62565b505f90505b92915050565b5080545f8255905f5260205f2090810190610cf59190610d26565b50565b60405180604001604052805f73ffffffffffffffffffffffffffffffffffffffff1681526020015f81525090565b5b80821115610d3d575f815f905550600101610d27565b5090565b5f604051905090565b5f80fd5b5f80fd5b5f73ffffffffffffffffffffffffffffffffffffffff82169050919050565b5f610d7b82610d52565b9050919050565b610d8b81610d71565b8114610d95575f80fd5b50565b5f81359050610da681610d82565b92915050565b5f819050919050565b610dbe81610dac565b8114610dc8575f80fd5b50565b5f81359050610dd981610db5565b92915050565b5f8060408385031215610df557610df4610d4a565b5b5f610e0285828601610d98565b9250506020610e1385828601610dcb565b9150509250929050565b5f60208284031215610e3257610e31610d4a565b5b5f610e3f84828501610d98565b91505092915050565b610e5181610d71565b82525050565b610e6081610dac565b82525050565b5f604082019050610e795f830185610e48565b610e866020830184610e57565b9392505050565b5f80fd5b5f80fd5b5f601f19601f8301169050919050565b7f4e487b71000000000000000000000000000000000000000000000000000000005f52604160045260245ffd5b610edb82610e95565b810181811067ffffffffffffffff82111715610efa57610ef9610ea5565b5b80604052505050565b5f610f0c610d41565b9050610f188282610ed2565b919050565b5f67ffffffffffffffff821115610f3757610f36610ea5565b5b610f4082610e95565b9050602081019050919050565b828183375f83830152505050565b5f610f6d610f6884610f1d565b610f03565b905082815260208101848484011115610f8957610f88610e91565b5b610f94848285610f4d565b509392505050565b5f82601f830112610fb057610faf610e8d565b5b8135610fc0848260208601610f5b565b91505092915050565b5f8060408385031215610fdf57610fde610d4a565b5b5f83013567ffffffffffffffff811115610ffc57610ffb610d4e565b5b61100885828601610f9c565b925050602061101985828601610dcb565b9150509250929050565b5f6020820190506110365f830184610e48565b92915050565b5f806040838503121561105257611051610d4a565b5b5f61105f85828601610d98565b925050602083013567ffffffffffffffff8111156110805761107f610d4e565b5b61108c85828601610f9c565b9150509250929050565b5f805f80608085870312156110ae576110ad610d4a565b5b5f6110bb87828801610d98565b945050602085013567ffffffffffffffff8111156110dc576110db610d4e565b5b6110e887828801610f9c565b935050604085013567ffffffffffffffff81111561110957611108610d4e565b5b61111587828801610f9c565b925050606061112687828801610dcb565b91505092959194509250565b5f81519050919050565b5f82825260208201905092915050565b5f819050602082019050919050565b61116481610d71565b82525050565b5f611175838361115b565b60208301905092915050565b5f602082019050919050565b5f61119782611132565b6111a1818561113c565b93506111ac8361114c565b805f5b838110156111dc5781516111c3888261116a565b97506111ce83611181565b9250506001810190506111af565b5085935050505092915050565b5f6020820190508181035f830152611201818461118d565b905092915050565b61121281610dac565b82525050565b604082015f82015161122c5f85018261115b565b50602082015161123f6020850182611209565b50505050565b5f6040820190506112585f830184611218565b92915050565b5f6020828403121561127357611272610d4a565b5b5f82013567ffffffffffffffff8111156112905761128f610d4e565b5b61129c84828501610f9c565b91505092915050565b5f67ffffffffffffffff8211156112bf576112be610ea5565b5b602082029050602081019050919050565b5f80fd5b5f6112e66112e1846112a5565b610f03565b90508083825260208201905060208402830185811115611309576113086112d0565b5b835b81811015611332578061131e8882610d98565b84526020840193505060208101905061130b565b5050509392505050565b5f82601f8301126113505761134f610e8d565b5b81356113608482602086016112d4565b91505092915050565b5f806040838503121561137f5761137e610d4a565b5b5f61138c85828601610dcb565b925050602083013567ffffffffffffffff8111156113ad576113ac610d4e565b5b6113b98582860161133c565b9150509250929050565b5f602082840312156113d8576113d7610d4a565b5b5f6113e584828501610dcb565b91505092915050565b5f82825260208201905092915050565b7f4e6f646520616c726561647920657869737473000000000000000000000000005f82015250565b5f6114326013836113ee565b915061143d826113fe565b602082019050919050565b5f6020820190508181035f83015261145f81611426565b9050919050565b7f4e6f646520646f6573206e6f74206578697374000000000000000000000000005f82015250565b5f61149a6013836113ee565b91506114a582611466565b602082019050919050565b5f6020820190508181035f8301526114c78161148e565b9050919050565b5f81519050919050565b5f81905092915050565b5f5b838110156114ff5780820151818401526020810190506114e4565b5f8484015250505050565b5f611514826114ce565b61151e81856114d8565b935061152e8185602086016114e2565b80840191505092915050565b5f611545828461150a565b915081905092915050565b7f4e487b71000000000000000000000000000000000000000000000000000000005f52601160045260245ffd5b5f61158782610dac565b915061159283610dac565b92508282039050818111156115aa576115a9611550565b5b92915050565b7f4e487b71000000000000000000000000000000000000000000000000000000005f52601260045260245ffd5b5f6115e782610dac565b91506115f283610dac565b925082611602576116016115b0565b5b828206905092915050565b5f61161782610dac565b915061162283610dac565b925082820190508082111561163a57611639611550565b5b92915050565b7f4e487b71000000000000000000000000000000000000000000000000000000005f52603260045260245ffd5b5f6020820190506116805f830184610e57565b92915050565b5f61169082610dac565b91507fffffffffffffffffffffffffffffffffffffffffffffffffffffffffffffffff82036116c2576116c1611550565b5b60018201905091905056fea264697066735822122060ecb967893505c5ddaa469e0b9aea184620e036d210a55defa4d475ae7919ee64736f6c63430008160033",
					"opcodes": "PUSH1 0x80 PUSH1 0x40 MSTORE CALLVALUE DUP1 ISZERO PUSH2 0xF JUMPI PUSH0 DUP1 REVERT JUMPDEST POP PUSH2 0x1703 DUP1 PUSH2 0x1D PUSH0 CODECOPY PUSH0 RETURN INVALID PUSH1 0x80 PUSH1 0x40 MSTORE CALLVALUE DUP1 ISZERO PUSH2 0xF JUMPI PUSH0 DUP1 REVERT JUMPDEST POP PUSH1 0x4 CALLDATASIZE LT PUSH2 0x9C JUMPI PUSH0 CALLDATALOAD PUSH1 0xE0 SHR DUP1 PUSH4 0xA1174E7D GT PUSH2 0x64 JUMPI DUP1 PUSH4 0xA1174E7D EQ PUSH2 0x155 JUMPI DUP1 PUSH4 0xA9860308 EQ PUSH2 0x173 JUMPI DUP1 PUSH4 0xB23793D6 EQ PUSH2 0x1A3 JUMPI DUP1 PUSH4 0xC6E24C90 EQ PUSH2 0x1D3 JUMPI DUP1 PUSH4 0xFE72AE13 EQ PUSH2 0x203 JUMPI PUSH2 0x9C JUMP JUMPDEST DUP1 PUSH4 0x11BD77FE EQ PUSH2 0xA0 JUMPI DUP1 PUSH4 0x189A5A17 EQ PUSH2 0xBC JUMPI DUP1 PUSH4 0x30E00C9B EQ PUSH2 0xED JUMPI DUP1 PUSH4 0x50F1C985 EQ PUSH2 0x11D JUMPI DUP1 PUSH4 0x5D44762B EQ PUSH2 0x139 JUMPI JUMPDEST PUSH0 DUP1 REVERT JUMPDEST PUSH2 0xBA PUSH1 0x4 DUP1 CALLDATASIZE SUB DUP2 ADD SWAP1 PUSH2 0xB5 SWAP2 SWAP1 PUSH2 0xDDF JUMP JUMPDEST PUSH2 0x233 JUMP JUMPDEST STOP JUMPDEST PUSH2 0xD6 PUSH1 0x4 DUP1 CALLDATASIZE SUB DUP2 ADD SWAP1 PUSH2 0xD1 SWAP2 SWAP1 PUSH2 0xE1D JUMP JUMPDEST PUSH2 0x451 JUMP JUMPDEST PUSH1 0x40 MLOAD PUSH2 0xE4 SWAP3 SWAP2 SWAP1 PUSH2 0xE66 JUMP JUMPDEST PUSH1 0x40 MLOAD DUP1 SWAP2 SUB SWAP1 RETURN JUMPDEST PUSH2 0x107 PUSH1 0x4 DUP1 CALLDATASIZE SUB DUP2 ADD SWAP1 PUSH2 0x102 SWAP2 SWAP1 PUSH2 0xFC9 JUMP JUMPDEST PUSH2 0x48F JUMP JUMPDEST PUSH1 0x40 MLOAD PUSH2 0x114 SWAP2 SWAP1 PUSH2 0x1023 JUMP JUMPDEST PUSH1 0x40 MLOAD DUP1 SWAP2 SUB SWAP1 RETURN JUMPDEST PUSH2 0x137 PUSH1 0x4 DUP1 CALLDATASIZE SUB DUP2 ADD SWAP1 PUSH2 0x132 SWAP2 SWAP1 PUSH2 0x103C JUMP JUMPDEST PUSH2 0x4EF JUMP JUMPDEST STOP JUMPDEST PUSH2 0x153 PUSH1 0x4 DUP1 CALLDATASIZE SUB DUP2 ADD SWAP1 PUSH2 0x14E SWAP2 SWAP1 PUSH2 0x1096 JUMP JUMPDEST PUSH2 0x5E7 JUMP JUMPDEST STOP JUMPDEST PUSH2 0x15D PUSH2 0x7E2 JUMP JUMPDEST PUSH1 0x40 MLOAD PUSH2 0x16A SWAP2 SWAP1 PUSH2 0x11E9 JUMP JUMPDEST PUSH1 0x40 MLOAD DUP1 SWAP2 SUB SWAP1 RETURN JUMPDEST PUSH2 0x18D PUSH1 0x4 DUP1 CALLDATASIZE SUB DUP2 ADD SWAP1 PUSH2 0x188 SWAP2 SWAP1 PUSH2 0xE1D JUMP JUMPDEST PUSH2 0x86D JUMP JUMPDEST PUSH1 0x40 MLOAD PUSH2 0x19A SWAP2 SWAP1 PUSH2 0x1245 JUMP JUMPDEST PUSH1 0x40 MLOAD DUP1 SWAP2 SUB SWAP1 RETURN JUMPDEST PUSH2 0x1BD PUSH1 0x4 DUP1 CALLDATASIZE SUB DUP2 ADD SWAP1 PUSH2 0x1B8 SWAP2 SWAP1 PUSH2 0x125E JUMP JUMPDEST PUSH2 0x921 JUMP JUMPDEST PUSH1 0x40 MLOAD PUSH2 0x1CA SWAP2 SWAP1 PUSH2 0x11E9 JUMP JUMPDEST PUSH1 0x40 MLOAD DUP1 SWAP2 SUB SWAP1 RETURN JUMPDEST PUSH2 0x1ED PUSH1 0x4 DUP1 CALLDATASIZE SUB DUP2 ADD SWAP1 PUSH2 0x1E8 SWAP2 SWAP1 PUSH2 0x1369 JUMP JUMPDEST PUSH2 0xA2D JUMP JUMPDEST PUSH1 0x40 MLOAD PUSH2 0x1FA SWAP2 SWAP1 PUSH2 0x1023 JUMP JUMPDEST PUSH1 0x40 MLOAD DUP1 SWAP2 SUB SWAP1 RETURN JUMPDEST PUSH2 0x21D PUSH1 0x4 DUP1 CALLDATASIZE SUB DUP2 ADD SWAP1 PUSH2 0x218 SWAP2 SWAP1 PUSH2 0x13C3 JUMP JUMPDEST PUSH2 0xC21 JUMP JUMPDEST PUSH1 0x40 MLOAD PUSH2 0x22A SWAP2 SWAP1 PUSH2 0x1023 JUMP JUMPDEST PUSH1 0x40 MLOAD DUP1 SWAP2 SUB SWAP1 RETURN JUMPDEST PUSH0 PUSH20 0xFFFFFFFFFFFFFFFFFFFFFFFFFFFFFFFFFFFFFFFF AND PUSH0 DUP1 DUP5 PUSH20 0xFFFFFFFFFFFFFFFFFFFFFFFFFFFFFFFFFFFFFFFF AND PUSH20 0xFFFFFFFFFFFFFFFFFFFFFFFFFFFFFFFFFFFFFFFF AND DUP2 MSTORE PUSH1 0x20 ADD SWAP1 DUP2 MSTORE PUSH1 0x20 ADD PUSH0 KECCAK256 PUSH0 ADD PUSH0 SWAP1 SLOAD SWAP1 PUSH2 0x100 EXP SWAP1 DIV PUSH20 0xFFFFFFFFFFFFFFFFFFFFFFFFFFFFFFFFFFFFFFFF AND PUSH20 0xFFFFFFFFFFFFFFFFFFFFFFFFFFFFFFFFFFFFFFFF AND EQ PUSH2 0x2FE JUMPI PUSH1 0x40 MLOAD PUSH32 0x8C379A000000000000000000000000000000000000000000000000000000000 DUP2 MSTORE PUSH1 0x4 ADD PUSH2 0x2F5 SWAP1 PUSH2 0x1448 JUMP JUMPDEST PUSH1 0x40 MLOAD DUP1 SWAP2 SUB SWAP1 REVERT JUMPDEST PUSH1 0x40 MLOAD DUP1 PUSH1 0x40 ADD PUSH1 0x40 MSTORE DUP1 DUP4 PUSH20 0xFFFFFFFFFFFFFFFFFFFFFFFFFFFFFFFFFFFFFFFF AND DUP2 MSTORE PUSH1 0x20 ADD DUP3 DUP2 MSTORE POP PUSH0 DUP1 DUP5 PUSH20 0xFFFFFFFFFFFFFFFFFFFFFFFFFFFFFFFFFFFFFFFF AND PUSH20 0xFFFFFFFFFFFFFFFFFFFFFFFFFFFFFFFFFFFFFFFF AND DUP2 MSTORE PUSH1 0x20 ADD SWAP1 DUP2 MSTORE PUSH1 0x20 ADD PUSH0 KECCAK256 PUSH0 DUP3 ADD MLOAD DUP2 PUSH0 ADD PUSH0 PUSH2 0x100 EXP DUP2 SLOAD DUP2 PUSH20 0xFFFFFFFFFFFFFFFFFFFFFFFFFFFFFFFFFFFFFFFF MUL NOT AND SWAP1 DUP4 PUSH20 0xFFFFFFFFFFFFFFFFFFFFFFFFFFFFFFFFFFFFFFFF AND MUL OR SWAP1 SSTORE POP PUSH1 0x20 DUP3 ADD MLOAD DUP2 PUSH1 0x1 ADD SSTORE SWAP1 POP POP PUSH32 0x5F91B0AFD2C6EF8DA92137BA907BCCDC85EC4856A15AD39DE3E0EFF02BE6D70E DUP3 PUSH1 0x40 MLOAD PUSH2 0x3E5 SWAP2 SWAP1 PUSH2 0x1023 JUMP JUMPDEST PUSH1 0x40 MLOAD DUP1 SWAP2 SUB SWAP1 LOG1 PUSH1 0x2 DUP3 SWAP1 DUP1 PUSH1 0x1 DUP2 SLOAD ADD DUP1 DUP3 SSTORE DUP1 SWAP2 POP POP PUSH1 0x1 SWAP1 SUB SWAP1 PUSH0 MSTORE PUSH1 0x20 PUSH0 KECCAK256 ADD PUSH0 SWAP1 SWAP2 SWAP1 SWAP2 SWAP1 SWAP2 PUSH2 0x100 EXP DUP2 SLOAD DUP2 PUSH20 0xFFFFFFFFFFFFFFFFFFFFFFFFFFFFFFFFFFFFFFFF MUL NOT AND SWAP1 DUP4 PUSH20 0xFFFFFFFFFFFFFFFFFFFFFFFFFFFFFFFFFFFFFFFF AND MUL OR SWAP1 SSTORE POP POP POP JUMP JUMPDEST PUSH0 PUSH1 0x20 MSTORE DUP1 PUSH0 MSTORE PUSH1 0x40 PUSH0 KECCAK256 PUSH0 SWAP2 POP SWAP1 POP DUP1 PUSH0 ADD PUSH0 SWAP1 SLOAD SWAP1 PUSH2 0x100 EXP SWAP1 DIV PUSH20 0xFFFFFFFFFFFFFFFFFFFFFFFFFFFFFFFFFFFFFFFF AND SWAP1 DUP1 PUSH1 0x1 ADD SLOAD SWAP1 POP DUP3 JUMP JUMPDEST PUSH1 0x1 DUP3 DUP1 MLOAD PUSH1 0x20 DUP2 ADD DUP3 ADD DUP1 MLOAD DUP5 DUP3 MSTORE PUSH1 0x20 DUP4 ADD PUSH1 0x20 DUP6 ADD KECCAK256 DUP2 DUP4 MSTORE DUP1 SWAP6 POP POP POP POP POP POP DUP2 DUP2 SLOAD DUP2 LT PUSH2 0x4C0 JUMPI PUSH0 DUP1 REVERT JUMPDEST SWAP1 PUSH0 MSTORE PUSH1 0x20 PUSH0 KECCAK256 ADD PUSH0 SWAP2 POP SWAP2 POP SWAP1 SLOAD SWAP1 PUSH2 0x100 EXP SWAP1 DIV PUSH20 0xFFFFFFFFFFFFFFFFFFFFFFFFFFFFFFFFFFFFFFFF AND DUP2 JUMP JUMPDEST PUSH0 PUSH20 0xFFFFFFFFFFFFFFFFFFFFFFFFFFFFFFFFFFFFFFFF AND PUSH0 DUP1 DUP5 PUSH20 0xFFFFFFFFFFFFFFFFFFFFFFFFFFFFFFFFFFFFFFFF AND PUSH20 0xFFFFFFFFFFFFFFFFFFFFFFFFFFFFFFFFFFFFFFFF AND DUP2 MSTORE PUSH1 0x20 ADD SWAP1 DUP2 MSTORE PUSH1 0x20 ADD PUSH0 KECCAK256 PUSH0 ADD PUSH0 SWAP1 SLOAD SWAP1 PUSH2 0x100 EXP SWAP1 DIV PUSH20 0xFFFFFFFFFFFFFFFFFFFFFFFFFFFFFFFFFFFFFFFF AND PUSH20 0xFFFFFFFFFFFFFFFFFFFFFFFFFFFFFFFFFFFFFFFF AND SUB PUSH2 0x5BA JUMPI PUSH1 0x40 MLOAD PUSH32 0x8C379A000000000000000000000000000000000000000000000000000000000 DUP2 MSTORE PUSH1 0x4 ADD PUSH2 0x5B1 SWAP1 PUSH2 0x14B0 JUMP JUMPDEST PUSH1 0x40 MLOAD DUP1 SWAP2 SUB SWAP1 REVERT JUMPDEST PUSH1 0x1 DUP2 PUSH1 0x40 MLOAD PUSH2 0x5CA SWAP2 SWAP1 PUSH2 0x153A JUMP JUMPDEST SWAP1 DUP2 MSTORE PUSH1 0x20 ADD PUSH1 0x40 MLOAD DUP1 SWAP2 SUB SWAP1 KECCAK256 PUSH0 PUSH2 0x5E3 SWAP2 SWAP1 PUSH2 0xCDA JUMP JUMPDEST POP POP JUMP JUMPDEST PUSH0 PUSH20 0xFFFFFFFFFFFFFFFFFFFFFFFFFFFFFFFFFFFFFFFF AND PUSH0 DUP1 DUP7 PUSH20 0xFFFFFFFFFFFFFFFFFFFFFFFFFFFFFFFFFFFFFFFF AND PUSH20 0xFFFFFFFFFFFFFFFFFFFFFFFFFFFFFFFFFFFFFFFF AND DUP2 MSTORE PUSH1 0x20 ADD SWAP1 DUP2 MSTORE PUSH1 0x20 ADD PUSH0 KECCAK256 PUSH0 ADD PUSH0 SWAP1 SLOAD SWAP1 PUSH2 0x100 EXP SWAP1 DIV PUSH20 0xFFFFFFFFFFFFFFFFFFFFFFFFFFFFFFFFFFFFFFFF AND PUSH20 0xFFFFFFFFFFFFFFFFFFFFFFFFFFFFFFFFFFFFFFFF AND SUB PUSH2 0x6B2 JUMPI PUSH1 0x40 MLOAD PUSH32 0x8C379A000000000000000000000000000000000000000000000000000000000 DUP2 MSTORE PUSH1 0x4 ADD PUSH2 0x6A9 SWAP1 PUSH2 0x14B0 JUMP JUMPDEST PUSH1 0x40 MLOAD DUP1 SWAP2 SUB SWAP1 REVERT JUMPDEST PUSH2 0x75B DUP5 PUSH1 0x1 DUP5 PUSH1 0x40 MLOAD PUSH2 0x6C6 SWAP2 SWAP1 PUSH2 0x153A JUMP JUMPDEST SWAP1 DUP2 MSTORE PUSH1 0x20 ADD PUSH1 0x40 MLOAD DUP1 SWAP2 SUB SWAP1 KECCAK256 DUP1 SLOAD DUP1 PUSH1 0x20 MUL PUSH1 0x20 ADD PUSH1 0x40 MLOAD SWAP1 DUP2 ADD PUSH1 0x40 MSTORE DUP1 SWAP3 SWAP2 SWAP1 DUP2 DUP2 MSTORE PUSH1 0x20 ADD DUP3 DUP1 SLOAD DUP1 ISZERO PUSH2 0x751 JUMPI PUSH1 0x20 MUL DUP3 ADD SWAP2 SWAP1 PUSH0 MSTORE PUSH1 0x20 PUSH0 KECCAK256 SWAP1 JUMPDEST DUP2 PUSH0 SWAP1 SLOAD SWAP1 PUSH2 0x100 EXP SWAP1 DIV PUSH20 0xFFFFFFFFFFFFFFFFFFFFFFFFFFFFFFFFFFFFFFFF AND PUSH20 0xFFFFFFFFFFFFFFFFFFFFFFFFFFFFFFFFFFFFFFFF AND DUP2 MSTORE PUSH1 0x20 ADD SWAP1 PUSH1 0x1 ADD SWAP1 DUP1 DUP4 GT PUSH2 0x708 JUMPI JUMPDEST POP POP POP POP POP PUSH2 0xC5C JUMP JUMPDEST PUSH2 0x7DC JUMPI PUSH1 0x1 DUP3 PUSH1 0x40 MLOAD PUSH2 0x76F SWAP2 SWAP1 PUSH2 0x153A JUMP JUMPDEST SWAP1 DUP2 MSTORE PUSH1 0x20 ADD PUSH1 0x40 MLOAD DUP1 SWAP2 SUB SWAP1 KECCAK256 DUP5 SWAP1 DUP1 PUSH1 0x1 DUP2 SLOAD ADD DUP1 DUP3 SSTORE DUP1 SWAP2 POP POP PUSH1 0x1 SWAP1 SUB SWAP1 PUSH0 MSTORE PUSH1 0x20 PUSH0 KECCAK256 ADD PUSH0 SWAP1 SWAP2 SWAP1 SWAP2 SWAP1 SWAP2 PUSH2 0x100 EXP DUP2 SLOAD DUP2 PUSH20 0xFFFFFFFFFFFFFFFFFFFFFFFFFFFFFFFFFFFFFFFF MUL NOT AND SWAP1 DUP4 PUSH20 0xFFFFFFFFFFFFFFFFFFFFFFFFFFFFFFFFFFFFFFFF AND MUL OR SWAP1 SSTORE POP JUMPDEST POP POP POP POP JUMP JUMPDEST PUSH1 0x60 PUSH1 0x2 DUP1 SLOAD DUP1 PUSH1 0x20 MUL PUSH1 0x20 ADD PUSH1 0x40 MLOAD SWAP1 DUP2 ADD PUSH1 0x40 MSTORE DUP1 SWAP3 SWAP2 SWAP1 DUP2 DUP2 MSTORE PUSH1 0x20 ADD DUP3 DUP1 SLOAD DUP1 ISZERO PUSH2 0x863 JUMPI PUSH1 0x20 MUL DUP3 ADD SWAP2 SWAP1 PUSH0 MSTORE PUSH1 0x20 PUSH0 KECCAK256 SWAP1 JUMPDEST DUP2 PUSH0 SWAP1 SLOAD SWAP1 PUSH2 0x100 EXP SWAP1 DIV PUSH20 0xFFFFFFFFFFFFFFFFFFFFFFFFFFFFFFFFFFFFFFFF AND PUSH20 0xFFFFFFFFFFFFFFFFFFFFFFFFFFFFFFFFFFFFFFFF AND DUP2 MSTORE PUSH1 0x20 ADD SWAP1 PUSH1 0x1 ADD SWAP1 DUP1 DUP4 GT PUSH2 0x81A JUMPI JUMPDEST POP POP POP POP POP SWAP1 POP SWAP1 JUMP JUMPDEST PUSH2 0x875 PUSH2 0xCF8 JUMP JUMPDEST PUSH0 DUP1 DUP4 PUSH20 0xFFFFFFFFFFFFFFFFFFFFFFFFFFFFFFFFFFFFFFFF AND PUSH20 0xFFFFFFFFFFFFFFFFFFFFFFFFFFFFFFFFFFFFFFFF AND DUP2 MSTORE PUSH1 0x20 ADD SWAP1 DUP2 MSTORE PUSH1 0x20 ADD PUSH0 KECCAK256 PUSH1 0x40 MLOAD DUP1 PUSH1 0x40 ADD PUSH1 0x40 MSTORE SWAP1 DUP2 PUSH0 DUP3 ADD PUSH0 SWAP1 SLOAD SWAP1 PUSH2 0x100 EXP SWAP1 DIV PUSH20 0xFFFFFFFFFFFFFFFFFFFFFFFFFFFFFFFFFFFFFFFF AND PUSH20 0xFFFFFFFFFFFFFFFFFFFFFFFFFFFFFFFFFFFFFFFF AND PUSH20 0xFFFFFFFFFFFFFFFFFFFFFFFFFFFFFFFFFFFFFFFF AND DUP2 MSTORE PUSH1 0x20 ADD PUSH1 0x1 DUP3 ADD SLOAD DUP2 MSTORE POP POP SWAP1 POP SWAP2 SWAP1 POP JUMP JUMPDEST PUSH1 0x60 PUSH0 PUSH1 0x1 DUP4 PUSH1 0x40 MLOAD PUSH2 0x934 SWAP2 SWAP1 PUSH2 0x153A JUMP JUMPDEST SWAP1 DUP2 MSTORE PUSH1 0x20 ADD PUSH1 0x40 MLOAD DUP1 SWAP2 SUB SWAP1 KECCAK256 DUP1 SLOAD SWAP1 POP GT PUSH2 0x986 JUMPI PUSH1 0x40 MLOAD PUSH32 0x8C379A000000000000000000000000000000000000000000000000000000000 DUP2 MSTORE PUSH1 0x4 ADD PUSH2 0x97D SWAP1 PUSH2 0x14B0 JUMP JUMPDEST PUSH1 0x40 MLOAD DUP1 SWAP2 SUB SWAP1 REVERT JUMPDEST PUSH1 0x1 DUP3 PUSH1 0x40 MLOAD PUSH2 0x996 SWAP2 SWAP1 PUSH2 0x153A JUMP JUMPDEST SWAP1 DUP2 MSTORE PUSH1 0x20 ADD PUSH1 0x40 MLOAD DUP1 SWAP2 SUB SWAP1 KECCAK256 DUP1 SLOAD DUP1 PUSH1 0x20 MUL PUSH1 0x20 ADD PUSH1 0x40 MLOAD SWAP1 DUP2 ADD PUSH1 0x40 MSTORE DUP1 SWAP3 SWAP2 SWAP1 DUP2 DUP2 MSTORE PUSH1 0x20 ADD DUP3 DUP1 SLOAD DUP1 ISZERO PUSH2 0xA21 JUMPI PUSH1 0x20 MUL DUP3 ADD SWAP2 SWAP1 PUSH0 MSTORE PUSH1 0x20 PUSH0 KECCAK256 SWAP1 JUMPDEST DUP2 PUSH0 SWAP1 SLOAD SWAP1 PUSH2 0x100 EXP SWAP1 DIV PUSH20 0xFFFFFFFFFFFFFFFFFFFFFFFFFFFFFFFFFFFFFFFF AND PUSH20 0xFFFFFFFFFFFFFFFFFFFFFFFFFFFFFFFFFFFFFFFF AND DUP2 MSTORE PUSH1 0x20 ADD SWAP1 PUSH1 0x1 ADD SWAP1 DUP1 DUP4 GT PUSH2 0x9D8 JUMPI JUMPDEST POP POP POP POP POP SWAP1 POP SWAP2 SWAP1 POP JUMP JUMPDEST PUSH0 DUP1 PUSH1 0x2 DUP1 SLOAD SWAP1 POP SWAP1 POP PUSH0 PUSH1 0x32 SWAP1 POP PUSH0 DUP3 SUB PUSH2 0xA4D JUMPI PUSH0 SWAP3 POP POP POP PUSH2 0xC1B JUMP JUMPDEST PUSH0 DUP3 PUSH1 0x1 NUMBER PUSH2 0xA5C SWAP2 SWAP1 PUSH2 0x157D JUMP JUMPDEST BLOCKHASH PUSH0 SHR PUSH2 0xA69 SWAP2 SWAP1 PUSH2 0x15DD JUMP JUMPDEST SWAP1 POP PUSH0 DUP1 PUSH0 PUSH2 0x3E8 SWAP1 POP JUMPDEST DUP1 DUP3 LT ISZERO PUSH2 0xC11 JUMPI PUSH0 PUSH1 0x2 DUP8 DUP6 DUP8 PUSH2 0xA8C SWAP2 SWAP1 PUSH2 0x160D JUMP JUMPDEST PUSH2 0xA96 SWAP2 SWAP1 PUSH2 0x15DD JUMP JUMPDEST DUP2 SLOAD DUP2 LT PUSH2 0xAA7 JUMPI PUSH2 0xAA6 PUSH2 0x1640 JUMP JUMPDEST JUMPDEST SWAP1 PUSH0 MSTORE PUSH1 0x20 PUSH0 KECCAK256 ADD PUSH0 SWAP1 SLOAD SWAP1 PUSH2 0x100 EXP SWAP1 DIV PUSH20 0xFFFFFFFFFFFFFFFFFFFFFFFFFFFFFFFFFFFFFFFF AND SWAP1 POP PUSH32 0x838D04243391D45D94A98FFF54D1737CBFFEA86C34AB825E5D6980EC9B77235 DUP6 PUSH1 0x40 MLOAD PUSH2 0xB00 SWAP2 SWAP1 PUSH2 0x166D JUMP JUMPDEST PUSH1 0x40 MLOAD DUP1 SWAP2 SUB SWAP1 LOG1 DUP6 DUP11 PUSH2 0xB14 SWAP2 SWAP1 PUSH2 0x160D JUMP JUMPDEST PUSH0 DUP1 DUP4 PUSH20 0xFFFFFFFFFFFFFFFFFFFFFFFFFFFFFFFFFFFFFFFF AND PUSH20 0xFFFFFFFFFFFFFFFFFFFFFFFFFFFFFFFFFFFFFFFF AND DUP2 MSTORE PUSH1 0x20 ADD SWAP1 DUP2 MSTORE PUSH1 0x20 ADD PUSH0 KECCAK256 PUSH1 0x1 ADD SLOAD GT ISZERO PUSH2 0xBE4 JUMPI PUSH0 PUSH1 0x1 SWAP1 POP PUSH0 JUMPDEST DUP11 MLOAD DUP2 LT ISZERO PUSH2 0xBC8 JUMPI DUP3 PUSH20 0xFFFFFFFFFFFFFFFFFFFFFFFFFFFFFFFFFFFFFFFF AND DUP12 DUP3 DUP2 MLOAD DUP2 LT PUSH2 0xB94 JUMPI PUSH2 0xB93 PUSH2 0x1640 JUMP JUMPDEST JUMPDEST PUSH1 0x20 MUL PUSH1 0x20 ADD ADD MLOAD PUSH20 0xFFFFFFFFFFFFFFFFFFFFFFFFFFFFFFFFFFFFFFFF AND SUB PUSH2 0xBBB JUMPI PUSH0 SWAP2 POP JUMPDEST DUP1 DUP1 PUSH1 0x1 ADD SWAP2 POP POP PUSH2 0xB61 JUMP JUMPDEST POP DUP1 ISZERO PUSH2 0xBE2 JUMPI DUP3 SWAP4 POP DUP2 SWAP9 POP POP POP POP POP POP POP POP POP PUSH2 0xC1B JUMP JUMPDEST POP JUMPDEST DUP4 DUP1 PUSH2 0xBEF SWAP1 PUSH2 0x1686 JUMP JUMPDEST SWAP5 POP POP DUP3 DUP1 PUSH2 0xBFD SWAP1 PUSH2 0x1686 JUMP JUMPDEST SWAP4 POP POP DUP7 DUP5 SUB PUSH2 0xC0B JUMPI PUSH0 SWAP4 POP JUMPDEST POP PUSH2 0xA74 JUMP JUMPDEST PUSH0 SWAP7 POP POP POP POP POP POP POP JUMPDEST SWAP3 SWAP2 POP POP JUMP JUMPDEST PUSH1 0x2 DUP2 DUP2 SLOAD DUP2 LT PUSH2 0xC30 JUMPI PUSH0 DUP1 REVERT JUMPDEST SWAP1 PUSH0 MSTORE PUSH1 0x20 PUSH0 KECCAK256 ADD PUSH0 SWAP2 POP SLOAD SWAP1 PUSH2 0x100 EXP SWAP1 DIV PUSH20 0xFFFFFFFFFFFFFFFFFFFFFFFFFFFFFFFFFFFFFFFF AND DUP2 JUMP JUMPDEST PUSH0 DUP1 PUSH0 SWAP1 POP JUMPDEST DUP3 MLOAD DUP2 LT ISZERO PUSH2 0xCCF JUMPI DUP4 PUSH20 0xFFFFFFFFFFFFFFFFFFFFFFFFFFFFFFFFFFFFFFFF AND DUP4 DUP3 DUP2 MLOAD DUP2 LT PUSH2 0xC95 JUMPI PUSH2 0xC94 PUSH2 0x1640 JUMP JUMPDEST JUMPDEST PUSH1 0x20 MUL PUSH1 0x20 ADD ADD MLOAD PUSH20 0xFFFFFFFFFFFFFFFFFFFFFFFFFFFFFFFFFFFFFFFF AND SUB PUSH2 0xCC2 JUMPI PUSH1 0x1 SWAP2 POP POP PUSH2 0xCD4 JUMP JUMPDEST DUP1 DUP1 PUSH1 0x1 ADD SWAP2 POP POP PUSH2 0xC62 JUMP JUMPDEST POP PUSH0 SWAP1 POP JUMPDEST SWAP3 SWAP2 POP POP JUMP JUMPDEST POP DUP1 SLOAD PUSH0 DUP3 SSTORE SWAP1 PUSH0 MSTORE PUSH1 0x20 PUSH0 KECCAK256 SWAP1 DUP2 ADD SWAP1 PUSH2 0xCF5 SWAP2 SWAP1 PUSH2 0xD26 JUMP JUMPDEST POP JUMP JUMPDEST PUSH1 0x40 MLOAD DUP1 PUSH1 0x40 ADD PUSH1 0x40 MSTORE DUP1 PUSH0 PUSH20 0xFFFFFFFFFFFFFFFFFFFFFFFFFFFFFFFFFFFFFFFF AND DUP2 MSTORE PUSH1 0x20 ADD PUSH0 DUP2 MSTORE POP SWAP1 JUMP JUMPDEST JUMPDEST DUP1 DUP3 GT ISZERO PUSH2 0xD3D JUMPI PUSH0 DUP2 PUSH0 SWAP1 SSTORE POP PUSH1 0x1 ADD PUSH2 0xD27 JUMP JUMPDEST POP SWAP1 JUMP JUMPDEST PUSH0 PUSH1 0x40 MLOAD SWAP1 POP SWAP1 JUMP JUMPDEST PUSH0 DUP1 REVERT JUMPDEST PUSH0 DUP1 REVERT JUMPDEST PUSH0 PUSH20 0xFFFFFFFFFFFFFFFFFFFFFFFFFFFFFFFFFFFFFFFF DUP3 AND SWAP1 POP SWAP2 SWAP1 POP JUMP JUMPDEST PUSH0 PUSH2 0xD7B DUP3 PUSH2 0xD52 JUMP JUMPDEST SWAP1 POP SWAP2 SWAP1 POP JUMP JUMPDEST PUSH2 0xD8B DUP2 PUSH2 0xD71 JUMP JUMPDEST DUP2 EQ PUSH2 0xD95 JUMPI PUSH0 DUP1 REVERT JUMPDEST POP JUMP JUMPDEST PUSH0 DUP2 CALLDATALOAD SWAP1 POP PUSH2 0xDA6 DUP2 PUSH2 0xD82 JUMP JUMPDEST SWAP3 SWAP2 POP POP JUMP JUMPDEST PUSH0 DUP2 SWAP1 POP SWAP2 SWAP1 POP JUMP JUMPDEST PUSH2 0xDBE DUP2 PUSH2 0xDAC JUMP JUMPDEST DUP2 EQ PUSH2 0xDC8 JUMPI PUSH0 DUP1 REVERT JUMPDEST POP JUMP JUMPDEST PUSH0 DUP2 CALLDATALOAD SWAP1 POP PUSH2 0xDD9 DUP2 PUSH2 0xDB5 JUMP JUMPDEST SWAP3 SWAP2 POP POP JUMP JUMPDEST PUSH0 DUP1 PUSH1 0x40 DUP4 DUP6 SUB SLT ISZERO PUSH2 0xDF5 JUMPI PUSH2 0xDF4 PUSH2 0xD4A JUMP JUMPDEST JUMPDEST PUSH0 PUSH2 0xE02 DUP6 DUP3 DUP7 ADD PUSH2 0xD98 JUMP JUMPDEST SWAP3 POP POP PUSH1 0x20 PUSH2 0xE13 DUP6 DUP3 DUP7 ADD PUSH2 0xDCB JUMP JUMPDEST SWAP2 POP POP SWAP3 POP SWAP3 SWAP1 POP JUMP JUMPDEST PUSH0 PUSH1 0x20 DUP3 DUP5 SUB SLT ISZERO PUSH2 0xE32 JUMPI PUSH2 0xE31 PUSH2 0xD4A JUMP JUMPDEST JUMPDEST PUSH0 PUSH2 0xE3F DUP5 DUP3 DUP6 ADD PUSH2 0xD98 JUMP JUMPDEST SWAP2 POP POP SWAP3 SWAP2 POP POP JUMP JUMPDEST PUSH2 0xE51 DUP2 PUSH2 0xD71 JUMP JUMPDEST DUP3 MSTORE POP POP JUMP JUMPDEST PUSH2 0xE60 DUP2 PUSH2 0xDAC JUMP JUMPDEST DUP3 MSTORE POP POP JUMP JUMPDEST PUSH0 PUSH1 0x40 DUP3 ADD SWAP1 POP PUSH2 0xE79 PUSH0 DUP4 ADD DUP6 PUSH2 0xE48 JUMP JUMPDEST PUSH2 0xE86 PUSH1 0x20 DUP4 ADD DUP5 PUSH2 0xE57 JUMP JUMPDEST SWAP4 SWAP3 POP POP POP JUMP JUMPDEST PUSH0 DUP1 REVERT JUMPDEST PUSH0 DUP1 REVERT JUMPDEST PUSH0 PUSH1 0x1F NOT PUSH1 0x1F DUP4 ADD AND SWAP1 POP SWAP2 SWAP1 POP JUMP JUMPDEST PUSH32 0x4E487B7100000000000000000000000000000000000000000000000000000000 PUSH0 MSTORE PUSH1 0x41 PUSH1 0x4 MSTORE PUSH1 0x24 PUSH0 REVERT JUMPDEST PUSH2 0xEDB DUP3 PUSH2 0xE95 JUMP JUMPDEST DUP2 ADD DUP2 DUP2 LT PUSH8 0xFFFFFFFFFFFFFFFF DUP3 GT OR ISZERO PUSH2 0xEFA JUMPI PUSH2 0xEF9 PUSH2 0xEA5 JUMP JUMPDEST JUMPDEST DUP1 PUSH1 0x40 MSTORE POP POP POP JUMP JUMPDEST PUSH0 PUSH2 0xF0C PUSH2 0xD41 JUMP JUMPDEST SWAP1 POP PUSH2 0xF18 DUP3 DUP3 PUSH2 0xED2 JUMP JUMPDEST SWAP2 SWAP1 POP JUMP JUMPDEST PUSH0 PUSH8 0xFFFFFFFFFFFFFFFF DUP3 GT ISZERO PUSH2 0xF37 JUMPI PUSH2 0xF36 PUSH2 0xEA5 JUMP JUMPDEST JUMPDEST PUSH2 0xF40 DUP3 PUSH2 0xE95 JUMP JUMPDEST SWAP1 POP PUSH1 0x20 DUP2 ADD SWAP1 POP SWAP2 SWAP1 POP JUMP JUMPDEST DUP3 DUP2 DUP4 CALLDATACOPY PUSH0 DUP4 DUP4 ADD MSTORE POP POP POP JUMP JUMPDEST PUSH0 PUSH2 0xF6D PUSH2 0xF68 DUP5 PUSH2 0xF1D JUMP JUMPDEST PUSH2 0xF03 JUMP JUMPDEST SWAP1 POP DUP3 DUP2 MSTORE PUSH1 0x20 DUP2 ADD DUP5 DUP5 DUP5 ADD GT ISZERO PUSH2 0xF89 JUMPI PUSH2 0xF88 PUSH2 0xE91 JUMP JUMPDEST JUMPDEST PUSH2 0xF94 DUP5 DUP3 DUP6 PUSH2 0xF4D JUMP JUMPDEST POP SWAP4 SWAP3 POP POP POP JUMP JUMPDEST PUSH0 DUP3 PUSH1 0x1F DUP4 ADD SLT PUSH2 0xFB0 JUMPI PUSH2 0xFAF PUSH2 0xE8D JUMP JUMPDEST JUMPDEST DUP2 CALLDATALOAD PUSH2 0xFC0 DUP5 DUP3 PUSH1 0x20 DUP7 ADD PUSH2 0xF5B JUMP JUMPDEST SWAP2 POP POP SWAP3 SWAP2 POP POP JUMP JUMPDEST PUSH0 DUP1 PUSH1 0x40 DUP4 DUP6 SUB SLT ISZERO PUSH2 0xFDF JUMPI PUSH2 0xFDE PUSH2 0xD4A JUMP JUMPDEST JUMPDEST PUSH0 DUP4 ADD CALLDATALOAD PUSH8 0xFFFFFFFFFFFFFFFF DUP2 GT ISZERO PUSH2 0xFFC JUMPI PUSH2 0xFFB PUSH2 0xD4E JUMP JUMPDEST JUMPDEST PUSH2 0x1008 DUP6 DUP3 DUP7 ADD PUSH2 0xF9C JUMP JUMPDEST SWAP3 POP POP PUSH1 0x20 PUSH2 0x1019 DUP6 DUP3 DUP7 ADD PUSH2 0xDCB JUMP JUMPDEST SWAP2 POP POP SWAP3 POP SWAP3 SWAP1 POP JUMP JUMPDEST PUSH0 PUSH1 0x20 DUP3 ADD SWAP1 POP PUSH2 0x1036 PUSH0 DUP4 ADD DUP5 PUSH2 0xE48 JUMP JUMPDEST SWAP3 SWAP2 POP POP JUMP JUMPDEST PUSH0 DUP1 PUSH1 0x40 DUP4 DUP6 SUB SLT ISZERO PUSH2 0x1052 JUMPI PUSH2 0x1051 PUSH2 0xD4A JUMP JUMPDEST JUMPDEST PUSH0 PUSH2 0x105F DUP6 DUP3 DUP7 ADD PUSH2 0xD98 JUMP JUMPDEST SWAP3 POP POP PUSH1 0x20 DUP4 ADD CALLDATALOAD PUSH8 0xFFFFFFFFFFFFFFFF DUP2 GT ISZERO PUSH2 0x1080 JUMPI PUSH2 0x107F PUSH2 0xD4E JUMP JUMPDEST JUMPDEST PUSH2 0x108C DUP6 DUP3 DUP7 ADD PUSH2 0xF9C JUMP JUMPDEST SWAP2 POP POP SWAP3 POP SWAP3 SWAP1 POP JUMP JUMPDEST PUSH0 DUP1 PUSH0 DUP1 PUSH1 0x80 DUP6 DUP8 SUB SLT ISZERO PUSH2 0x10AE JUMPI PUSH2 0x10AD PUSH2 0xD4A JUMP JUMPDEST JUMPDEST PUSH0 PUSH2 0x10BB DUP8 DUP3 DUP9 ADD PUSH2 0xD98 JUMP JUMPDEST SWAP5 POP POP PUSH1 0x20 DUP6 ADD CALLDATALOAD PUSH8 0xFFFFFFFFFFFFFFFF DUP2 GT ISZERO PUSH2 0x10DC JUMPI PUSH2 0x10DB PUSH2 0xD4E JUMP JUMPDEST JUMPDEST PUSH2 0x10E8 DUP8 DUP3 DUP9 ADD PUSH2 0xF9C JUMP JUMPDEST SWAP4 POP POP PUSH1 0x40 DUP6 ADD CALLDATALOAD PUSH8 0xFFFFFFFFFFFFFFFF DUP2 GT ISZERO PUSH2 0x1109 JUMPI PUSH2 0x1108 PUSH2 0xD4E JUMP JUMPDEST JUMPDEST PUSH2 0x1115 DUP8 DUP3 DUP9 ADD PUSH2 0xF9C JUMP JUMPDEST SWAP3 POP POP PUSH1 0x60 PUSH2 0x1126 DUP8 DUP3 DUP9 ADD PUSH2 0xDCB JUMP JUMPDEST SWAP2 POP POP SWAP3 SWAP6 SWAP2 SWAP5 POP SWAP3 POP JUMP JUMPDEST PUSH0 DUP2 MLOAD SWAP1 POP SWAP2 SWAP1 POP JUMP JUMPDEST PUSH0 DUP3 DUP3 MSTORE PUSH1 0x20 DUP3 ADD SWAP1 POP SWAP3 SWAP2 POP POP JUMP JUMPDEST PUSH0 DUP2 SWAP1 POP PUSH1 0x20 DUP3 ADD SWAP1 POP SWAP2 SWAP1 POP JUMP JUMPDEST PUSH2 0x1164 DUP2 PUSH2 0xD71 JUMP JUMPDEST DUP3 MSTORE POP POP JUMP JUMPDEST PUSH0 PUSH2 0x1175 DUP4 DUP4 PUSH2 0x115B JUMP JUMPDEST PUSH1 0x20 DUP4 ADD SWAP1 POP SWAP3 SWAP2 POP POP JUMP JUMPDEST PUSH0 PUSH1 0x20 DUP3 ADD SWAP1 POP SWAP2 SWAP1 POP JUMP JUMPDEST PUSH0 PUSH2 0x1197 DUP3 PUSH2 0x1132 JUMP JUMPDEST PUSH2 0x11A1 DUP2 DUP6 PUSH2 0x113C JUMP JUMPDEST SWAP4 POP PUSH2 0x11AC DUP4 PUSH2 0x114C JUMP JUMPDEST DUP1 PUSH0 JUMPDEST DUP4 DUP2 LT ISZERO PUSH2 0x11DC JUMPI DUP2 MLOAD PUSH2 0x11C3 DUP9 DUP3 PUSH2 0x116A JUMP JUMPDEST SWAP8 POP PUSH2 0x11CE DUP4 PUSH2 0x1181 JUMP JUMPDEST SWAP3 POP POP PUSH1 0x1 DUP2 ADD SWAP1 POP PUSH2 0x11AF JUMP JUMPDEST POP DUP6 SWAP4 POP POP POP POP SWAP3 SWAP2 POP POP JUMP JUMPDEST PUSH0 PUSH1 0x20 DUP3 ADD SWAP1 POP DUP2 DUP2 SUB PUSH0 DUP4 ADD MSTORE PUSH2 0x1201 DUP2 DUP5 PUSH2 0x118D JUMP JUMPDEST SWAP1 POP SWAP3 SWAP2 POP POP JUMP JUMPDEST PUSH2 0x1212 DUP2 PUSH2 0xDAC JUMP JUMPDEST DUP3 MSTORE POP POP JUMP JUMPDEST PUSH1 0x40 DUP3 ADD PUSH0 DUP3 ADD MLOAD PUSH2 0x122C PUSH0 DUP6 ADD DUP3 PUSH2 0x115B JUMP JUMPDEST POP PUSH1 0x20 DUP3 ADD MLOAD PUSH2 0x123F PUSH1 0x20 DUP6 ADD DUP3 PUSH2 0x1209 JUMP JUMPDEST POP POP POP POP JUMP JUMPDEST PUSH0 PUSH1 0x40 DUP3 ADD SWAP1 POP PUSH2 0x1258 PUSH0 DUP4 ADD DUP5 PUSH2 0x1218 JUMP JUMPDEST SWAP3 SWAP2 POP POP JUMP JUMPDEST PUSH0 PUSH1 0x20 DUP3 DUP5 SUB SLT ISZERO PUSH2 0x1273 JUMPI PUSH2 0x1272 PUSH2 0xD4A JUMP JUMPDEST JUMPDEST PUSH0 DUP3 ADD CALLDATALOAD PUSH8 0xFFFFFFFFFFFFFFFF DUP2 GT ISZERO PUSH2 0x1290 JUMPI PUSH2 0x128F PUSH2 0xD4E JUMP JUMPDEST JUMPDEST PUSH2 0x129C DUP5 DUP3 DUP6 ADD PUSH2 0xF9C JUMP JUMPDEST SWAP2 POP POP SWAP3 SWAP2 POP POP JUMP JUMPDEST PUSH0 PUSH8 0xFFFFFFFFFFFFFFFF DUP3 GT ISZERO PUSH2 0x12BF JUMPI PUSH2 0x12BE PUSH2 0xEA5 JUMP JUMPDEST JUMPDEST PUSH1 0x20 DUP3 MUL SWAP1 POP PUSH1 0x20 DUP2 ADD SWAP1 POP SWAP2 SWAP1 POP JUMP JUMPDEST PUSH0 DUP1 REVERT JUMPDEST PUSH0 PUSH2 0x12E6 PUSH2 0x12E1 DUP5 PUSH2 0x12A5 JUMP JUMPDEST PUSH2 0xF03 JUMP JUMPDEST SWAP1 POP DUP1 DUP4 DUP3 MSTORE PUSH1 0x20 DUP3 ADD SWAP1 POP PUSH1 0x20 DUP5 MUL DUP4 ADD DUP6 DUP2 GT ISZERO PUSH2 0x1309 JUMPI PUSH2 0x1308 PUSH2 0x12D0 JUMP JUMPDEST JUMPDEST DUP4 JUMPDEST DUP2 DUP2 LT ISZERO PUSH2 0x1332 JUMPI DUP1 PUSH2 0x131E DUP9 DUP3 PUSH2 0xD98 JUMP JUMPDEST DUP5 MSTORE PUSH1 0x20 DUP5 ADD SWAP4 POP POP PUSH1 0x20 DUP2 ADD SWAP1 POP PUSH2 0x130B JUMP JUMPDEST POP POP POP SWAP4 SWAP3 POP POP POP JUMP JUMPDEST PUSH0 DUP3 PUSH1 0x1F DUP4 ADD SLT PUSH2 0x1350 JUMPI PUSH2 0x134F PUSH2 0xE8D JUMP JUMPDEST JUMPDEST DUP2 CALLDATALOAD PUSH2 0x1360 DUP5 DUP3 PUSH1 0x20 DUP7 ADD PUSH2 0x12D4 JUMP JUMPDEST SWAP2 POP POP SWAP3 SWAP2 POP POP JUMP JUMPDEST PUSH0 DUP1 PUSH1 0x40 DUP4 DUP6 SUB SLT ISZERO PUSH2 0x137F JUMPI PUSH2 0x137E PUSH2 0xD4A JUMP JUMPDEST JUMPDEST PUSH0 PUSH2 0x138C DUP6 DUP3 DUP7 ADD PUSH2 0xDCB JUMP JUMPDEST SWAP3 POP POP PUSH1 0x20 DUP4 ADD CALLDATALOAD PUSH8 0xFFFFFFFFFFFFFFFF DUP2 GT ISZERO PUSH2 0x13AD JUMPI PUSH2 0x13AC PUSH2 0xD4E JUMP JUMPDEST JUMPDEST PUSH2 0x13B9 DUP6 DUP3 DUP7 ADD PUSH2 0x133C JUMP JUMPDEST SWAP2 POP POP SWAP3 POP SWAP3 SWAP1 POP JUMP JUMPDEST PUSH0 PUSH1 0x20 DUP3 DUP5 SUB SLT ISZERO PUSH2 0x13D8 JUMPI PUSH2 0x13D7 PUSH2 0xD4A JUMP JUMPDEST JUMPDEST PUSH0 PUSH2 0x13E5 DUP5 DUP3 DUP6 ADD PUSH2 0xDCB JUMP JUMPDEST SWAP2 POP POP SWAP3 SWAP2 POP POP JUMP JUMPDEST PUSH0 DUP3 DUP3 MSTORE PUSH1 0x20 DUP3 ADD SWAP1 POP SWAP3 SWAP2 POP POP JUMP JUMPDEST PUSH32 0x4E6F646520616C72656164792065786973747300000000000000000000000000 PUSH0 DUP3 ADD MSTORE POP JUMP JUMPDEST PUSH0 PUSH2 0x1432 PUSH1 0x13 DUP4 PUSH2 0x13EE JUMP JUMPDEST SWAP2 POP PUSH2 0x143D DUP3 PUSH2 0x13FE JUMP JUMPDEST PUSH1 0x20 DUP3 ADD SWAP1 POP SWAP2 SWAP1 POP JUMP JUMPDEST PUSH0 PUSH1 0x20 DUP3 ADD SWAP1 POP DUP2 DUP2 SUB PUSH0 DUP4 ADD MSTORE PUSH2 0x145F DUP2 PUSH2 0x1426 JUMP JUMPDEST SWAP1 POP SWAP2 SWAP1 POP JUMP JUMPDEST PUSH32 0x4E6F646520646F6573206E6F7420657869737400000000000000000000000000 PUSH0 DUP3 ADD MSTORE POP JUMP JUMPDEST PUSH0 PUSH2 0x149A PUSH1 0x13 DUP4 PUSH2 0x13EE JUMP JUMPDEST SWAP2 POP PUSH2 0x14A5 DUP3 PUSH2 0x1466 JUMP JUMPDEST PUSH1 0x20 DUP3 ADD SWAP1 POP SWAP2 SWAP1 POP JUMP JUMPDEST PUSH0 PUSH1 0x20 DUP3 ADD SWAP1 POP DUP2 DUP2 SUB PUSH0 DUP4 ADD MSTORE PUSH2 0x14C7 DUP2 PUSH2 0x148E JUMP JUMPDEST SWAP1 POP SWAP2 SWAP1 POP JUMP JUMPDEST PUSH0 DUP2 MLOAD SWAP1 POP SWAP2 SWAP1 POP JUMP JUMPDEST PUSH0 DUP2 SWAP1 POP SWAP3 SWAP2 POP POP JUMP JUMPDEST PUSH0 JUMPDEST DUP4 DUP2 LT ISZERO PUSH2 0x14FF JUMPI DUP1 DUP3 ADD MLOAD DUP2 DUP5 ADD MSTORE PUSH1 0x20 DUP2 ADD SWAP1 POP PUSH2 0x14E4 JUMP JUMPDEST PUSH0 DUP5 DUP5 ADD MSTORE POP POP POP POP JUMP JUMPDEST PUSH0 PUSH2 0x1514 DUP3 PUSH2 0x14CE JUMP JUMPDEST PUSH2 0x151E DUP2 DUP6 PUSH2 0x14D8 JUMP JUMPDEST SWAP4 POP PUSH2 0x152E DUP2 DUP6 PUSH1 0x20 DUP7 ADD PUSH2 0x14E2 JUMP JUMPDEST DUP1 DUP5 ADD SWAP2 POP POP SWAP3 SWAP2 POP POP JUMP JUMPDEST PUSH0 PUSH2 0x1545 DUP3 DUP5 PUSH2 0x150A JUMP JUMPDEST SWAP2 POP DUP2 SWAP1 POP SWAP3 SWAP2 POP POP JUMP JUMPDEST PUSH32 0x4E487B7100000000000000000000000000000000000000000000000000000000 PUSH0 MSTORE PUSH1 0x11 PUSH1 0x4 MSTORE PUSH1 0x24 PUSH0 REVERT JUMPDEST PUSH0 PUSH2 0x1587 DUP3 PUSH2 0xDAC JUMP JUMPDEST SWAP2 POP PUSH2 0x1592 DUP4 PUSH2 0xDAC JUMP JUMPDEST SWAP3 POP DUP3 DUP3 SUB SWAP1 POP DUP2 DUP2 GT ISZERO PUSH2 0x15AA JUMPI PUSH2 0x15A9 PUSH2 0x1550 JUMP JUMPDEST JUMPDEST SWAP3 SWAP2 POP POP JUMP JUMPDEST PUSH32 0x4E487B7100000000000000000000000000000000000000000000000000000000 PUSH0 MSTORE PUSH1 0x12 PUSH1 0x4 MSTORE PUSH1 0x24 PUSH0 REVERT JUMPDEST PUSH0 PUSH2 0x15E7 DUP3 PUSH2 0xDAC JUMP JUMPDEST SWAP2 POP PUSH2 0x15F2 DUP4 PUSH2 0xDAC JUMP JUMPDEST SWAP3 POP DUP3 PUSH2 0x1602 JUMPI PUSH2 0x1601 PUSH2 0x15B0 JUMP JUMPDEST JUMPDEST DUP3 DUP3 MOD SWAP1 POP SWAP3 SWAP2 POP POP JUMP JUMPDEST PUSH0 PUSH2 0x1617 DUP3 PUSH2 0xDAC JUMP JUMPDEST SWAP2 POP PUSH2 0x1622 DUP4 PUSH2 0xDAC JUMP JUMPDEST SWAP3 POP DUP3 DUP3 ADD SWAP1 POP DUP1 DUP3 GT ISZERO PUSH2 0x163A JUMPI PUSH2 0x1639 PUSH2 0x1550 JUMP JUMPDEST JUMPDEST SWAP3 SWAP2 POP POP JUMP JUMPDEST PUSH32 0x4E487B7100000000000000000000000000000000000000000000000000000000 PUSH0 MSTORE PUSH1 0x32 PUSH1 0x4 MSTORE PUSH1 0x24 PUSH0 REVERT JUMPDEST PUSH0 PUSH1 0x20 DUP3 ADD SWAP1 POP PUSH2 0x1680 PUSH0 DUP4 ADD DUP5 PUSH2 0xE57 JUMP JUMPDEST SWAP3 SWAP2 POP POP JUMP JUMPDEST PUSH0 PUSH2 0x1690 DUP3 PUSH2 0xDAC JUMP JUMPDEST SWAP2 POP PUSH32 0xFFFFFFFFFFFFFFFFFFFFFFFFFFFFFFFFFFFFFFFFFFFFFFFFFFFFFFFFFFFFFFFF DUP3 SUB PUSH2 0x16C2 JUMPI PUSH2 0x16C1 PUSH2 0x1550 JUMP JUMPDEST JUMPDEST PUSH1 0x1 DUP3 ADD SWAP1 POP SWAP2 SWAP1 POP JUMP INVALID LOG2 PUSH5 0x6970667358 0x22 SLT KECCAK256 PUSH1 0xEC 0xB9 PUSH8 0x893505C5DDAA469E SIGNEXTEND SWAP11 0xEA XOR CHAINID KECCAK256 0xE0 CALLDATASIZE 0xD2 LT 0xA5 0x5D 0xEF LOG4 0xD4 PUSH22 0xAE7919EE64736F6C6343000816003300000000000000 "
				},
				"gasEstimates": {
					"creation": {
						"codeDepositCost": "1178200",
						"executionCost": "1225",
						"totalCost": "1179425"
					},
					"external": {
						"addNode(address,uint256)": "infinite",
						"allNodes(uint256)": "5032",
						"deleteChunkInNode(address,string)": "infinite",
						"findAvailableNode(uint256,address[])": "infinite",
						"getAllNodes()": "infinite",
						"getNodeByAddress(address)": "infinite",
						"nodeChunksAddresses(string,uint256)": "infinite",
						"nodes(address)": "infinite",
						"retrieveChunkNodeAddresses(string)": "infinite",
						"storeChunkInNode(address,string,string,uint256)": "infinite"
					},
					"internal": {
						"isAddressPresent(address,address[] memory)": "infinite",
						"updateAvailableStorage(address,uint256)": "infinite"
					}
				},
				"methodIdentifiers": {
					"addNode(address,uint256)": "11bd77fe",
					"allNodes(uint256)": "fe72ae13",
					"deleteChunkInNode(address,string)": "50f1c985",
					"findAvailableNode(uint256,address[])": "c6e24c90",
					"getAllNodes()": "a1174e7d",
					"getNodeByAddress(address)": "a9860308",
					"nodeChunksAddresses(string,uint256)": "30e00c9b",
					"nodes(address)": "189a5a17",
					"retrieveChunkNodeAddresses(string)": "b23793d6",
					"storeChunkInNode(address,string,string,uint256)": "5d44762b"
				}
			},
			"storageLayout": {
				"storage": [
					{
						"astId": 23,
						"contract": "contracts/_NodeManager.sol:NodeManager",
						"label": "nodes",
						"offset": 0,
						"slot": "0",
						"type": "t_mapping(t_address,t_struct(Node)6_storage)"
					},
					{
						"astId": 28,
						"contract": "contracts/_NodeManager.sol:NodeManager",
						"label": "nodeChunksAddresses",
						"offset": 0,
						"slot": "1",
						"type": "t_mapping(t_string_memory_ptr,t_array(t_address)dyn_storage)"
					},
					{
						"astId": 31,
						"contract": "contracts/_NodeManager.sol:NodeManager",
						"label": "allNodes",
						"offset": 0,
						"slot": "2",
						"type": "t_array(t_address)dyn_storage"
					}
				],
				"types": {
					"t_address": {
						"encoding": "inplace",
						"label": "address",
						"numberOfBytes": "20"
					},
					"t_array(t_address)dyn_storage": {
						"base": "t_address",
						"encoding": "dynamic_array",
						"label": "address[]",
						"numberOfBytes": "32"
					},
					"t_mapping(t_address,t_struct(Node)6_storage)": {
						"encoding": "mapping",
						"key": "t_address",
						"label": "mapping(address => struct NodeManager.Node)",
						"numberOfBytes": "32",
						"value": "t_struct(Node)6_storage"
					},
					"t_mapping(t_string_memory_ptr,t_array(t_address)dyn_storage)": {
						"encoding": "mapping",
						"key": "t_string_memory_ptr",
						"label": "mapping(string => address[])",
						"numberOfBytes": "32",
						"value": "t_array(t_address)dyn_storage"
					},
					"t_string_memory_ptr": {
						"encoding": "bytes",
						"label": "string",
						"numberOfBytes": "32"
					},
					"t_struct(Node)6_storage": {
						"encoding": "inplace",
						"label": "struct NodeManager.Node",
						"members": [
							{
								"astId": 3,
								"contract": "contracts/_NodeManager.sol:NodeManager",
								"label": "nodeAddress",
								"offset": 0,
								"slot": "0",
								"type": "t_address"
							},
							{
								"astId": 5,
								"contract": "contracts/_NodeManager.sol:NodeManager",
								"label": "availableStorage",
								"offset": 0,
								"slot": "1",
								"type": "t_uint256"
							}
						],
						"numberOfBytes": "64"
					},
					"t_uint256": {
						"encoding": "inplace",
						"label": "uint256",
						"numberOfBytes": "32"
					}
				}
			},
			"userdoc": {
				"kind": "user",
				"methods": {},
				"version": 1
			}
		}
	}
}