{
	"contracts/_ChunkManager.sol": {
		"ChunkManager": {
			"abi": [
				{
					"anonymous": false,
					"inputs": [
						{
							"indexed": false,
							"internalType": "uint256",
							"name": "",
							"type": "uint256"
						}
					],
					"name": "logNumber",
					"type": "event"
				},
				{
					"inputs": [
						{
							"internalType": "string",
							"name": "content",
							"type": "string"
						}
					],
					"name": "chunkContent",
					"outputs": [
						{
							"internalType": "string[]",
							"name": "",
							"type": "string[]"
						}
					],
					"stateMutability": "nonpayable",
					"type": "function"
				},
				{
					"inputs": [
						{
							"internalType": "string[]",
							"name": "chunks",
							"type": "string[]"
						}
					],
					"name": "concatenateChunks",
					"outputs": [
						{
							"internalType": "string",
							"name": "",
							"type": "string"
						}
					],
					"stateMutability": "pure",
					"type": "function"
				}
			],
			"devdoc": {
				"kind": "dev",
				"methods": {},
				"version": 1
			},
			"evm": {
				"assembly": "    /* \"contracts/_ChunkManager.sol\":64:1711  contract ChunkManager {... */\n  mstore(0x40, 0x80)\n  callvalue\n  dup1\n  iszero\n  tag_1\n  jumpi\n  0x00\n  dup1\n  revert\ntag_1:\n  pop\n  dataSize(sub_0)\n  dup1\n  dataOffset(sub_0)\n  0x00\n  codecopy\n  0x00\n  return\nstop\n\nsub_0: assembly {\n        /* \"contracts/_ChunkManager.sol\":64:1711  contract ChunkManager {... */\n      mstore(0x40, 0x80)\n      callvalue\n      dup1\n      iszero\n      tag_1\n      jumpi\n      0x00\n      dup1\n      revert\n    tag_1:\n      pop\n      jumpi(tag_2, lt(calldatasize, 0x04))\n      shr(0xe0, calldataload(0x00))\n      dup1\n      0x1f37bdd2\n      eq\n      tag_3\n      jumpi\n      dup1\n      0x57d7f21f\n      eq\n      tag_4\n      jumpi\n    tag_2:\n      0x00\n      dup1\n      revert\n        /* \"contracts/_ChunkManager.sol\":127:1005  function chunkContent(string memory content) public  returns (string[] memory) {                           //Changed to public for testing... */\n    tag_3:\n      tag_5\n      0x04\n      dup1\n      calldatasize\n      sub\n      dup2\n      add\n      swap1\n      tag_6\n      swap2\n      swap1\n      tag_7\n      jump\t// in\n    tag_6:\n      tag_8\n      jump\t// in\n    tag_5:\n      mload(0x40)\n      tag_9\n      swap2\n      swap1\n      tag_10\n      jump\t// in\n    tag_9:\n      mload(0x40)\n      dup1\n      swap2\n      sub\n      swap1\n      return\n        /* \"contracts/_ChunkManager.sol\":1013:1708  function concatenateChunks(string[] memory chunks) public pure returns (string memory) {                              //Changed to public for testing... */\n    tag_4:\n      tag_11\n      0x04\n      dup1\n      calldatasize\n      sub\n      dup2\n      add\n      swap1\n      tag_12\n      swap2\n      swap1\n      tag_13\n      jump\t// in\n    tag_12:\n      tag_14\n      jump\t// in\n    tag_11:\n      mload(0x40)\n      tag_15\n      swap2\n      swap1\n      tag_16\n      jump\t// in\n    tag_15:\n      mload(0x40)\n      dup1\n      swap2\n      sub\n      swap1\n      return\n        /* \"contracts/_ChunkManager.sol\":127:1005  function chunkContent(string memory content) public  returns (string[] memory) {                           //Changed to public for testing... */\n    tag_8:\n        /* \"contracts/_ChunkManager.sol\":189:204  string[] memory */\n      0x60\n        /* \"contracts/_ChunkManager.sol\":275:292  uint256 chunkSize */\n      0x00\n        /* \"contracts/_ChunkManager.sol\":295:297  32 */\n      0x20\n        /* \"contracts/_ChunkManager.sol\":275:297  uint256 chunkSize = 32 */\n      swap1\n      pop\n        /* \"contracts/_ChunkManager.sol\":308:325  uint256 numChunks */\n      0x00\n        /* \"contracts/_ChunkManager.sol\":370:379  chunkSize */\n      dup2\n        /* \"contracts/_ChunkManager.sol\":365:366  1 */\n      0x01\n        /* \"contracts/_ChunkManager.sol\":353:362  chunkSize */\n      dup4\n        /* \"contracts/_ChunkManager.sol\":335:342  content */\n      dup7\n        /* \"contracts/_ChunkManager.sol\":329:350  bytes(content).length */\n      mload\n        /* \"contracts/_ChunkManager.sol\":329:362  bytes(content).length + chunkSize */\n      tag_18\n      swap2\n      swap1\n      tag_19\n      jump\t// in\n    tag_18:\n        /* \"contracts/_ChunkManager.sol\":329:366  bytes(content).length + chunkSize - 1 */\n      tag_20\n      swap2\n      swap1\n      tag_21\n      jump\t// in\n    tag_20:\n        /* \"contracts/_ChunkManager.sol\":328:379  (bytes(content).length + chunkSize - 1) / chunkSize */\n      tag_22\n      swap2\n      swap1\n      tag_23\n      jump\t// in\n    tag_22:\n        /* \"contracts/_ChunkManager.sol\":308:379  uint256 numChunks = (bytes(content).length + chunkSize - 1) / chunkSize */\n      swap1\n      pop\n        /* \"contracts/_ChunkManager.sol\":390:412  string[] memory chunks */\n      0x00\n        /* \"contracts/_ChunkManager.sol\":428:437  numChunks */\n      dup2\n        /* \"contracts/_ChunkManager.sol\":415:438  new string[](numChunks) */\n      0xffffffffffffffff\n      dup2\n      gt\n      iszero\n      tag_24\n      jumpi\n      tag_25\n      tag_26\n      jump\t// in\n    tag_25:\n    tag_24:\n      mload(0x40)\n      swap1\n      dup1\n      dup3\n      mstore\n      dup1\n      0x20\n      mul\n      0x20\n      add\n      dup3\n      add\n      0x40\n      mstore\n      dup1\n      iszero\n      tag_27\n      jumpi\n      dup2\n      0x20\n      add\n    tag_28:\n      0x60\n      dup2\n      mstore\n      0x20\n      add\n      swap1\n      0x01\n      swap1\n      sub\n      swap1\n      dup2\n      tag_28\n      jumpi\n      swap1\n      pop\n    tag_27:\n      pop\n        /* \"contracts/_ChunkManager.sol\":390:438  string[] memory chunks = new string[](numChunks) */\n      swap1\n      pop\n        /* \"contracts/_ChunkManager.sol\":454:474  logNumber(numChunks) */\n      0x0838d04243391d45d94a98fff54d1737cbffea86c34ab825e5d6980ec9b77235\n        /* \"contracts/_ChunkManager.sol\":464:473  numChunks */\n      dup3\n        /* \"contracts/_ChunkManager.sol\":454:474  logNumber(numChunks) */\n      mload(0x40)\n      tag_29\n      swap2\n      swap1\n      tag_30\n      jump\t// in\n    tag_29:\n      mload(0x40)\n      dup1\n      swap2\n      sub\n      swap1\n      log1\n        /* \"contracts/_ChunkManager.sol\":490:499  uint256 i */\n      0x00\n        /* \"contracts/_ChunkManager.sol\":485:972  for (uint256 i = 0; i < numChunks; i++) {... */\n    tag_31:\n        /* \"contracts/_ChunkManager.sol\":509:518  numChunks */\n      dup3\n        /* \"contracts/_ChunkManager.sol\":505:506  i */\n      dup2\n        /* \"contracts/_ChunkManager.sol\":505:518  i < numChunks */\n      lt\n        /* \"contracts/_ChunkManager.sol\":485:972  for (uint256 i = 0; i < numChunks; i++) {... */\n      iszero\n      tag_32\n      jumpi\n        /* \"contracts/_ChunkManager.sol\":540:553  uint256 start */\n      0x00\n        /* \"contracts/_ChunkManager.sol\":560:569  chunkSize */\n      dup5\n        /* \"contracts/_ChunkManager.sol\":556:557  i */\n      dup3\n        /* \"contracts/_ChunkManager.sol\":556:569  i * chunkSize */\n      tag_34\n      swap2\n      swap1\n      tag_35\n      jump\t// in\n    tag_34:\n        /* \"contracts/_ChunkManager.sol\":540:569  uint256 start = i * chunkSize */\n      swap1\n      pop\n        /* \"contracts/_ChunkManager.sol\":584:595  uint256 end */\n      0x00\n        /* \"contracts/_ChunkManager.sol\":606:615  chunkSize */\n      dup6\n        /* \"contracts/_ChunkManager.sol\":598:603  start */\n      dup3\n        /* \"contracts/_ChunkManager.sol\":598:615  start + chunkSize */\n      tag_36\n      swap2\n      swap1\n      tag_19\n      jump\t// in\n    tag_36:\n        /* \"contracts/_ChunkManager.sol\":584:615  uint256 end = start + chunkSize */\n      swap1\n      pop\n        /* \"contracts/_ChunkManager.sol\":646:653  content */\n      dup8\n        /* \"contracts/_ChunkManager.sol\":640:661  bytes(content).length */\n      mload\n        /* \"contracts/_ChunkManager.sol\":634:637  end */\n      dup2\n        /* \"contracts/_ChunkManager.sol\":634:661  end > bytes(content).length */\n      gt\n        /* \"contracts/_ChunkManager.sol\":630:725  if (end > bytes(content).length) {... */\n      iszero\n      tag_37\n      jumpi\n        /* \"contracts/_ChunkManager.sol\":694:701  content */\n      dup8\n        /* \"contracts/_ChunkManager.sol\":688:709  bytes(content).length */\n      mload\n        /* \"contracts/_ChunkManager.sol\":682:709  end = bytes(content).length */\n      swap1\n      pop\n        /* \"contracts/_ChunkManager.sol\":630:725  if (end > bytes(content).length) {... */\n    tag_37:\n        /* \"contracts/_ChunkManager.sol\":739:762  bytes memory chunkBytes */\n      0x00\n        /* \"contracts/_ChunkManager.sol\":781:786  start */\n      dup3\n        /* \"contracts/_ChunkManager.sol\":775:778  end */\n      dup3\n        /* \"contracts/_ChunkManager.sol\":775:786  end - start */\n      tag_38\n      swap2\n      swap1\n      tag_21\n      jump\t// in\n    tag_38:\n        /* \"contracts/_ChunkManager.sol\":765:787  new bytes(end - start) */\n      0xffffffffffffffff\n      dup2\n      gt\n      iszero\n      tag_39\n      jumpi\n      tag_40\n      tag_26\n      jump\t// in\n    tag_40:\n    tag_39:\n      mload(0x40)\n      swap1\n      dup1\n      dup3\n      mstore\n      dup1\n      0x1f\n      add\n      not(0x1f)\n      and\n      0x20\n      add\n      dup3\n      add\n      0x40\n      mstore\n      dup1\n      iszero\n      tag_41\n      jumpi\n      dup2\n      0x20\n      add\n      0x01\n      dup3\n      mul\n      dup1\n      calldatasize\n      dup4\n      calldatacopy\n      dup1\n      dup3\n      add\n      swap2\n      pop\n      pop\n      swap1\n      pop\n    tag_41:\n      pop\n        /* \"contracts/_ChunkManager.sol\":739:787  bytes memory chunkBytes = new bytes(end - start) */\n      swap1\n      pop\n        /* \"contracts/_ChunkManager.sol\":807:816  uint256 j */\n      0x00\n        /* \"contracts/_ChunkManager.sol\":819:824  start */\n      dup4\n        /* \"contracts/_ChunkManager.sol\":807:824  uint256 j = start */\n      swap1\n      pop\n        /* \"contracts/_ChunkManager.sol\":802:916  for (uint256 j = start; j < end; j++) {... */\n    tag_42:\n        /* \"contracts/_ChunkManager.sol\":830:833  end */\n      dup3\n        /* \"contracts/_ChunkManager.sol\":826:827  j */\n      dup2\n        /* \"contracts/_ChunkManager.sol\":826:833  j < end */\n      lt\n        /* \"contracts/_ChunkManager.sol\":802:916  for (uint256 j = start; j < end; j++) {... */\n      iszero\n      tag_43\n      jumpi\n        /* \"contracts/_ChunkManager.sol\":889:896  content */\n      dup10\n        /* \"contracts/_ChunkManager.sol\":898:899  j */\n      dup2\n        /* \"contracts/_ChunkManager.sol\":883:900  bytes(content)[j] */\n      dup2\n      mload\n      dup2\n      lt\n      tag_45\n      jumpi\n      tag_46\n      tag_47\n      jump\t// in\n    tag_46:\n    tag_45:\n      0x20\n      add\n      add\n      mload\n      0xf8\n      shr\n      0xf8\n      shl\n        /* \"contracts/_ChunkManager.sol\":859:869  chunkBytes */\n      dup3\n        /* \"contracts/_ChunkManager.sol\":874:879  start */\n      dup6\n        /* \"contracts/_ChunkManager.sol\":870:871  j */\n      dup4\n        /* \"contracts/_ChunkManager.sol\":870:879  j - start */\n      tag_48\n      swap2\n      swap1\n      tag_21\n      jump\t// in\n    tag_48:\n        /* \"contracts/_ChunkManager.sol\":859:880  chunkBytes[j - start] */\n      dup2\n      mload\n      dup2\n      lt\n      tag_49\n      jumpi\n      tag_50\n      tag_47\n      jump\t// in\n    tag_50:\n    tag_49:\n      0x20\n      add\n      add\n        /* \"contracts/_ChunkManager.sol\":859:900  chunkBytes[j - start] = bytes(content)[j] */\n      swap1\n      not(0xffffffffffffffffffffffffffffffffffffffffffffffffffffffffffffff)\n      and\n      swap1\n      dup2\n      0x00\n      byte\n      swap1\n      mstore8\n      pop\n        /* \"contracts/_ChunkManager.sol\":835:838  j++ */\n      dup1\n      dup1\n      0x01\n      add\n      swap2\n      pop\n      pop\n        /* \"contracts/_ChunkManager.sol\":802:916  for (uint256 j = start; j < end; j++) {... */\n      jump(tag_42)\n    tag_43:\n      pop\n        /* \"contracts/_ChunkManager.sol\":949:959  chunkBytes */\n      dup1\n        /* \"contracts/_ChunkManager.sol\":930:936  chunks */\n      dup6\n        /* \"contracts/_ChunkManager.sol\":937:938  i */\n      dup6\n        /* \"contracts/_ChunkManager.sol\":930:939  chunks[i] */\n      dup2\n      mload\n      dup2\n      lt\n      tag_51\n      jumpi\n      tag_52\n      tag_47\n      jump\t// in\n    tag_52:\n    tag_51:\n      0x20\n      mul\n      0x20\n      add\n      add\n        /* \"contracts/_ChunkManager.sol\":930:960  chunks[i] = string(chunkBytes) */\n      dup2\n      swap1\n      mstore\n      pop\n        /* \"contracts/_ChunkManager.sol\":525:972  {... */\n      pop\n      pop\n      pop\n        /* \"contracts/_ChunkManager.sol\":520:523  i++ */\n      dup1\n      dup1\n      0x01\n      add\n      swap2\n      pop\n      pop\n        /* \"contracts/_ChunkManager.sol\":485:972  for (uint256 i = 0; i < numChunks; i++) {... */\n      jump(tag_31)\n    tag_32:\n      pop\n        /* \"contracts/_ChunkManager.sol\":991:997  chunks */\n      dup1\n        /* \"contracts/_ChunkManager.sol\":984:997  return chunks */\n      swap4\n      pop\n      pop\n      pop\n      pop\n        /* \"contracts/_ChunkManager.sol\":127:1005  function chunkContent(string memory content) public  returns (string[] memory) {                           //Changed to public for testing... */\n      swap2\n      swap1\n      pop\n      jump\t// out\n        /* \"contracts/_ChunkManager.sol\":1013:1708  function concatenateChunks(string[] memory chunks) public pure returns (string memory) {                              //Changed to public for testing... */\n    tag_14:\n        /* \"contracts/_ChunkManager.sol\":1085:1098  string memory */\n      0x60\n        /* \"contracts/_ChunkManager.sol\":1172:1191  uint256 totalLength */\n      0x00\n        /* \"contracts/_ChunkManager.sol\":1211:1220  uint256 i */\n      dup1\n        /* \"contracts/_ChunkManager.sol\":1206:1315  for (uint256 i = 0; i < chunks.length; i++) {... */\n    tag_54:\n        /* \"contracts/_ChunkManager.sol\":1230:1236  chunks */\n      dup4\n        /* \"contracts/_ChunkManager.sol\":1230:1243  chunks.length */\n      mload\n        /* \"contracts/_ChunkManager.sol\":1226:1227  i */\n      dup2\n        /* \"contracts/_ChunkManager.sol\":1226:1243  i < chunks.length */\n      lt\n        /* \"contracts/_ChunkManager.sol\":1206:1315  for (uint256 i = 0; i < chunks.length; i++) {... */\n      iszero\n      tag_55\n      jumpi\n        /* \"contracts/_ChunkManager.sol\":1286:1292  chunks */\n      dup4\n        /* \"contracts/_ChunkManager.sol\":1293:1294  i */\n      dup2\n        /* \"contracts/_ChunkManager.sol\":1286:1295  chunks[i] */\n      dup2\n      mload\n      dup2\n      lt\n      tag_57\n      jumpi\n      tag_58\n      tag_47\n      jump\t// in\n    tag_58:\n    tag_57:\n      0x20\n      mul\n      0x20\n      add\n      add\n      mload\n        /* \"contracts/_ChunkManager.sol\":1280:1303  bytes(chunks[i]).length */\n      mload\n        /* \"contracts/_ChunkManager.sol\":1265:1303  totalLength += bytes(chunks[i]).length */\n      dup3\n      tag_59\n      swap2\n      swap1\n      tag_19\n      jump\t// in\n    tag_59:\n      swap2\n      pop\n        /* \"contracts/_ChunkManager.sol\":1245:1248  i++ */\n      dup1\n      dup1\n      0x01\n      add\n      swap2\n      pop\n      pop\n        /* \"contracts/_ChunkManager.sol\":1206:1315  for (uint256 i = 0; i < chunks.length; i++) {... */\n      jump(tag_54)\n    tag_55:\n      pop\n        /* \"contracts/_ChunkManager.sol\":1327:1346  bytes memory result */\n      0x00\n        /* \"contracts/_ChunkManager.sol\":1359:1370  totalLength */\n      dup2\n        /* \"contracts/_ChunkManager.sol\":1349:1371  new bytes(totalLength) */\n      0xffffffffffffffff\n      dup2\n      gt\n      iszero\n      tag_60\n      jumpi\n      tag_61\n      tag_26\n      jump\t// in\n    tag_61:\n    tag_60:\n      mload(0x40)\n      swap1\n      dup1\n      dup3\n      mstore\n      dup1\n      0x1f\n      add\n      not(0x1f)\n      and\n      0x20\n      add\n      dup3\n      add\n      0x40\n      mstore\n      dup1\n      iszero\n      tag_62\n      jumpi\n      dup2\n      0x20\n      add\n      0x01\n      dup3\n      mul\n      dup1\n      calldatasize\n      dup4\n      calldatacopy\n      dup1\n      dup3\n      add\n      swap2\n      pop\n      pop\n      swap1\n      pop\n    tag_62:\n      pop\n        /* \"contracts/_ChunkManager.sol\":1327:1371  bytes memory result = new bytes(totalLength) */\n      swap1\n      pop\n        /* \"contracts/_ChunkManager.sol\":1382:1402  uint256 currentIndex */\n      0x00\n        /* \"contracts/_ChunkManager.sol\":1424:1433  uint256 i */\n      dup1\n        /* \"contracts/_ChunkManager.sol\":1419:1667  for (uint256 i = 0; i < chunks.length; i++) {... */\n    tag_63:\n        /* \"contracts/_ChunkManager.sol\":1443:1449  chunks */\n      dup6\n        /* \"contracts/_ChunkManager.sol\":1443:1456  chunks.length */\n      mload\n        /* \"contracts/_ChunkManager.sol\":1439:1440  i */\n      dup2\n        /* \"contracts/_ChunkManager.sol\":1439:1456  i < chunks.length */\n      lt\n        /* \"contracts/_ChunkManager.sol\":1419:1667  for (uint256 i = 0; i < chunks.length; i++) {... */\n      iszero\n      tag_64\n      jumpi\n        /* \"contracts/_ChunkManager.sol\":1478:1501  bytes memory chunkBytes */\n      0x00\n        /* \"contracts/_ChunkManager.sol\":1510:1516  chunks */\n      dup7\n        /* \"contracts/_ChunkManager.sol\":1517:1518  i */\n      dup3\n        /* \"contracts/_ChunkManager.sol\":1510:1519  chunks[i] */\n      dup2\n      mload\n      dup2\n      lt\n      tag_66\n      jumpi\n      tag_67\n      tag_47\n      jump\t// in\n    tag_67:\n    tag_66:\n      0x20\n      mul\n      0x20\n      add\n      add\n      mload\n        /* \"contracts/_ChunkManager.sol\":1478:1520  bytes memory chunkBytes = bytes(chunks[i]) */\n      swap1\n      pop\n        /* \"contracts/_ChunkManager.sol\":1540:1549  uint256 j */\n      0x00\n        /* \"contracts/_ChunkManager.sol\":1535:1656  for (uint256 j = 0; j < chunkBytes.length; j++) {... */\n    tag_68:\n        /* \"contracts/_ChunkManager.sol\":1559:1569  chunkBytes */\n      dup2\n        /* \"contracts/_ChunkManager.sol\":1559:1576  chunkBytes.length */\n      mload\n        /* \"contracts/_ChunkManager.sol\":1555:1556  j */\n      dup2\n        /* \"contracts/_ChunkManager.sol\":1555:1576  j < chunkBytes.length */\n      lt\n        /* \"contracts/_ChunkManager.sol\":1535:1656  for (uint256 j = 0; j < chunkBytes.length; j++) {... */\n      iszero\n      tag_69\n      jumpi\n        /* \"contracts/_ChunkManager.sol\":1627:1637  chunkBytes */\n      dup2\n        /* \"contracts/_ChunkManager.sol\":1638:1639  j */\n      dup2\n        /* \"contracts/_ChunkManager.sol\":1627:1640  chunkBytes[j] */\n      dup2\n      mload\n      dup2\n      lt\n      tag_71\n      jumpi\n      tag_72\n      tag_47\n      jump\t// in\n    tag_72:\n    tag_71:\n      0x20\n      add\n      add\n      mload\n      0xf8\n      shr\n      0xf8\n      shl\n        /* \"contracts/_ChunkManager.sol\":1602:1608  result */\n      dup6\n        /* \"contracts/_ChunkManager.sol\":1609:1623  currentIndex++ */\n      dup6\n      dup1\n      tag_73\n      swap1\n      tag_74\n      jump\t// in\n    tag_73:\n      swap7\n      pop\n        /* \"contracts/_ChunkManager.sol\":1602:1624  result[currentIndex++] */\n      dup2\n      mload\n      dup2\n      lt\n      tag_75\n      jumpi\n      tag_76\n      tag_47\n      jump\t// in\n    tag_76:\n    tag_75:\n      0x20\n      add\n      add\n        /* \"contracts/_ChunkManager.sol\":1602:1640  result[currentIndex++] = chunkBytes[j] */\n      swap1\n      not(0xffffffffffffffffffffffffffffffffffffffffffffffffffffffffffffff)\n      and\n      swap1\n      dup2\n      0x00\n      byte\n      swap1\n      mstore8\n      pop\n        /* \"contracts/_ChunkManager.sol\":1578:1581  j++ */\n      dup1\n      dup1\n      0x01\n      add\n      swap2\n      pop\n      pop\n        /* \"contracts/_ChunkManager.sol\":1535:1656  for (uint256 j = 0; j < chunkBytes.length; j++) {... */\n      jump(tag_68)\n    tag_69:\n      pop\n        /* \"contracts/_ChunkManager.sol\":1463:1667  {... */\n      pop\n        /* \"contracts/_ChunkManager.sol\":1458:1461  i++ */\n      dup1\n      dup1\n      0x01\n      add\n      swap2\n      pop\n      pop\n        /* \"contracts/_ChunkManager.sol\":1419:1667  for (uint256 i = 0; i < chunks.length; i++) {... */\n      jump(tag_63)\n    tag_64:\n      pop\n        /* \"contracts/_ChunkManager.sol\":1693:1699  result */\n      dup2\n        /* \"contracts/_ChunkManager.sol\":1679:1700  return string(result) */\n      swap4\n      pop\n      pop\n      pop\n      pop\n        /* \"contracts/_ChunkManager.sol\":1013:1708  function concatenateChunks(string[] memory chunks) public pure returns (string memory) {                              //Changed to public for testing... */\n      swap2\n      swap1\n      pop\n      jump\t// out\n        /* \"#utility.yul\":7:82   */\n    tag_77:\n        /* \"#utility.yul\":40:46   */\n      0x00\n        /* \"#utility.yul\":73:75   */\n      0x40\n        /* \"#utility.yul\":67:76   */\n      mload\n        /* \"#utility.yul\":57:76   */\n      swap1\n      pop\n        /* \"#utility.yul\":7:82   */\n      swap1\n      jump\t// out\n        /* \"#utility.yul\":88:205   */\n    tag_78:\n        /* \"#utility.yul\":197:198   */\n      0x00\n        /* \"#utility.yul\":194:195   */\n      dup1\n        /* \"#utility.yul\":187:199   */\n      revert\n        /* \"#utility.yul\":211:328   */\n    tag_79:\n        /* \"#utility.yul\":320:321   */\n      0x00\n        /* \"#utility.yul\":317:318   */\n      dup1\n        /* \"#utility.yul\":310:322   */\n      revert\n        /* \"#utility.yul\":334:451   */\n    tag_80:\n        /* \"#utility.yul\":443:444   */\n      0x00\n        /* \"#utility.yul\":440:441   */\n      dup1\n        /* \"#utility.yul\":433:445   */\n      revert\n        /* \"#utility.yul\":457:574   */\n    tag_81:\n        /* \"#utility.yul\":566:567   */\n      0x00\n        /* \"#utility.yul\":563:564   */\n      dup1\n        /* \"#utility.yul\":556:568   */\n      revert\n        /* \"#utility.yul\":580:682   */\n    tag_82:\n        /* \"#utility.yul\":621:627   */\n      0x00\n        /* \"#utility.yul\":672:674   */\n      0x1f\n        /* \"#utility.yul\":668:675   */\n      not\n        /* \"#utility.yul\":663:665   */\n      0x1f\n        /* \"#utility.yul\":656:661   */\n      dup4\n        /* \"#utility.yul\":652:666   */\n      add\n        /* \"#utility.yul\":648:676   */\n      and\n        /* \"#utility.yul\":638:676   */\n      swap1\n      pop\n        /* \"#utility.yul\":580:682   */\n      swap2\n      swap1\n      pop\n      jump\t// out\n        /* \"#utility.yul\":688:868   */\n    tag_26:\n        /* \"#utility.yul\":736:813   */\n      0x4e487b7100000000000000000000000000000000000000000000000000000000\n        /* \"#utility.yul\":733:734   */\n      0x00\n        /* \"#utility.yul\":726:814   */\n      mstore\n        /* \"#utility.yul\":833:837   */\n      0x41\n        /* \"#utility.yul\":830:831   */\n      0x04\n        /* \"#utility.yul\":823:838   */\n      mstore\n        /* \"#utility.yul\":857:861   */\n      0x24\n        /* \"#utility.yul\":854:855   */\n      0x00\n        /* \"#utility.yul\":847:862   */\n      revert\n        /* \"#utility.yul\":874:1155   */\n    tag_83:\n        /* \"#utility.yul\":957:984   */\n      tag_118\n        /* \"#utility.yul\":979:983   */\n      dup3\n        /* \"#utility.yul\":957:984   */\n      tag_82\n      jump\t// in\n    tag_118:\n        /* \"#utility.yul\":949:955   */\n      dup2\n        /* \"#utility.yul\":945:985   */\n      add\n        /* \"#utility.yul\":1087:1093   */\n      dup2\n        /* \"#utility.yul\":1075:1085   */\n      dup2\n        /* \"#utility.yul\":1072:1094   */\n      lt\n        /* \"#utility.yul\":1051:1069   */\n      0xffffffffffffffff\n        /* \"#utility.yul\":1039:1049   */\n      dup3\n        /* \"#utility.yul\":1036:1070   */\n      gt\n        /* \"#utility.yul\":1033:1095   */\n      or\n        /* \"#utility.yul\":1030:1118   */\n      iszero\n      tag_119\n      jumpi\n        /* \"#utility.yul\":1098:1116   */\n      tag_120\n      tag_26\n      jump\t// in\n    tag_120:\n        /* \"#utility.yul\":1030:1118   */\n    tag_119:\n        /* \"#utility.yul\":1138:1148   */\n      dup1\n        /* \"#utility.yul\":1134:1136   */\n      0x40\n        /* \"#utility.yul\":1127:1149   */\n      mstore\n        /* \"#utility.yul\":917:1155   */\n      pop\n        /* \"#utility.yul\":874:1155   */\n      pop\n      pop\n      jump\t// out\n        /* \"#utility.yul\":1161:1290   */\n    tag_84:\n        /* \"#utility.yul\":1195:1201   */\n      0x00\n        /* \"#utility.yul\":1222:1242   */\n      tag_122\n      tag_77\n      jump\t// in\n    tag_122:\n        /* \"#utility.yul\":1212:1242   */\n      swap1\n      pop\n        /* \"#utility.yul\":1251:1284   */\n      tag_123\n        /* \"#utility.yul\":1279:1283   */\n      dup3\n        /* \"#utility.yul\":1271:1277   */\n      dup3\n        /* \"#utility.yul\":1251:1284   */\n      tag_83\n      jump\t// in\n    tag_123:\n        /* \"#utility.yul\":1161:1290   */\n      swap2\n      swap1\n      pop\n      jump\t// out\n        /* \"#utility.yul\":1296:1604   */\n    tag_85:\n        /* \"#utility.yul\":1358:1362   */\n      0x00\n        /* \"#utility.yul\":1448:1466   */\n      0xffffffffffffffff\n        /* \"#utility.yul\":1440:1446   */\n      dup3\n        /* \"#utility.yul\":1437:1467   */\n      gt\n        /* \"#utility.yul\":1434:1490   */\n      iszero\n      tag_125\n      jumpi\n        /* \"#utility.yul\":1470:1488   */\n      tag_126\n      tag_26\n      jump\t// in\n    tag_126:\n        /* \"#utility.yul\":1434:1490   */\n    tag_125:\n        /* \"#utility.yul\":1508:1537   */\n      tag_127\n        /* \"#utility.yul\":1530:1536   */\n      dup3\n        /* \"#utility.yul\":1508:1537   */\n      tag_82\n      jump\t// in\n    tag_127:\n        /* \"#utility.yul\":1500:1537   */\n      swap1\n      pop\n        /* \"#utility.yul\":1592:1596   */\n      0x20\n        /* \"#utility.yul\":1586:1590   */\n      dup2\n        /* \"#utility.yul\":1582:1597   */\n      add\n        /* \"#utility.yul\":1574:1597   */\n      swap1\n      pop\n        /* \"#utility.yul\":1296:1604   */\n      swap2\n      swap1\n      pop\n      jump\t// out\n        /* \"#utility.yul\":1610:1756   */\n    tag_86:\n        /* \"#utility.yul\":1707:1713   */\n      dup3\n        /* \"#utility.yul\":1702:1705   */\n      dup2\n        /* \"#utility.yul\":1697:1700   */\n      dup4\n        /* \"#utility.yul\":1684:1714   */\n      calldatacopy\n        /* \"#utility.yul\":1748:1749   */\n      0x00\n        /* \"#utility.yul\":1739:1745   */\n      dup4\n        /* \"#utility.yul\":1734:1737   */\n      dup4\n        /* \"#utility.yul\":1730:1746   */\n      add\n        /* \"#utility.yul\":1723:1750   */\n      mstore\n        /* \"#utility.yul\":1610:1756   */\n      pop\n      pop\n      pop\n      jump\t// out\n        /* \"#utility.yul\":1762:2187   */\n    tag_87:\n        /* \"#utility.yul\":1840:1845   */\n      0x00\n        /* \"#utility.yul\":1865:1931   */\n      tag_130\n        /* \"#utility.yul\":1881:1930   */\n      tag_131\n        /* \"#utility.yul\":1923:1929   */\n      dup5\n        /* \"#utility.yul\":1881:1930   */\n      tag_85\n      jump\t// in\n    tag_131:\n        /* \"#utility.yul\":1865:1931   */\n      tag_84\n      jump\t// in\n    tag_130:\n        /* \"#utility.yul\":1856:1931   */\n      swap1\n      pop\n        /* \"#utility.yul\":1954:1960   */\n      dup3\n        /* \"#utility.yul\":1947:1952   */\n      dup2\n        /* \"#utility.yul\":1940:1961   */\n      mstore\n        /* \"#utility.yul\":1992:1996   */\n      0x20\n        /* \"#utility.yul\":1985:1990   */\n      dup2\n        /* \"#utility.yul\":1981:1997   */\n      add\n        /* \"#utility.yul\":2030:2033   */\n      dup5\n        /* \"#utility.yul\":2021:2027   */\n      dup5\n        /* \"#utility.yul\":2016:2019   */\n      dup5\n        /* \"#utility.yul\":2012:2028   */\n      add\n        /* \"#utility.yul\":2009:2034   */\n      gt\n        /* \"#utility.yul\":2006:2118   */\n      iszero\n      tag_132\n      jumpi\n        /* \"#utility.yul\":2037:2116   */\n      tag_133\n      tag_81\n      jump\t// in\n    tag_133:\n        /* \"#utility.yul\":2006:2118   */\n    tag_132:\n        /* \"#utility.yul\":2127:2181   */\n      tag_134\n        /* \"#utility.yul\":2174:2180   */\n      dup5\n        /* \"#utility.yul\":2169:2172   */\n      dup3\n        /* \"#utility.yul\":2164:2167   */\n      dup6\n        /* \"#utility.yul\":2127:2181   */\n      tag_86\n      jump\t// in\n    tag_134:\n        /* \"#utility.yul\":1846:2187   */\n      pop\n        /* \"#utility.yul\":1762:2187   */\n      swap4\n      swap3\n      pop\n      pop\n      pop\n      jump\t// out\n        /* \"#utility.yul\":2207:2547   */\n    tag_88:\n        /* \"#utility.yul\":2263:2268   */\n      0x00\n        /* \"#utility.yul\":2312:2315   */\n      dup3\n        /* \"#utility.yul\":2305:2309   */\n      0x1f\n        /* \"#utility.yul\":2297:2303   */\n      dup4\n        /* \"#utility.yul\":2293:2310   */\n      add\n        /* \"#utility.yul\":2289:2316   */\n      slt\n        /* \"#utility.yul\":2279:2401   */\n      tag_136\n      jumpi\n        /* \"#utility.yul\":2320:2399   */\n      tag_137\n      tag_80\n      jump\t// in\n    tag_137:\n        /* \"#utility.yul\":2279:2401   */\n    tag_136:\n        /* \"#utility.yul\":2437:2443   */\n      dup2\n        /* \"#utility.yul\":2424:2444   */\n      calldataload\n        /* \"#utility.yul\":2462:2541   */\n      tag_138\n        /* \"#utility.yul\":2537:2540   */\n      dup5\n        /* \"#utility.yul\":2529:2535   */\n      dup3\n        /* \"#utility.yul\":2522:2526   */\n      0x20\n        /* \"#utility.yul\":2514:2520   */\n      dup7\n        /* \"#utility.yul\":2510:2527   */\n      add\n        /* \"#utility.yul\":2462:2541   */\n      tag_87\n      jump\t// in\n    tag_138:\n        /* \"#utility.yul\":2453:2541   */\n      swap2\n      pop\n        /* \"#utility.yul\":2269:2547   */\n      pop\n        /* \"#utility.yul\":2207:2547   */\n      swap3\n      swap2\n      pop\n      pop\n      jump\t// out\n        /* \"#utility.yul\":2553:3062   */\n    tag_7:\n        /* \"#utility.yul\":2622:2628   */\n      0x00\n        /* \"#utility.yul\":2671:2673   */\n      0x20\n        /* \"#utility.yul\":2659:2668   */\n      dup3\n        /* \"#utility.yul\":2650:2657   */\n      dup5\n        /* \"#utility.yul\":2646:2669   */\n      sub\n        /* \"#utility.yul\":2642:2674   */\n      slt\n        /* \"#utility.yul\":2639:2758   */\n      iszero\n      tag_140\n      jumpi\n        /* \"#utility.yul\":2677:2756   */\n      tag_141\n      tag_78\n      jump\t// in\n    tag_141:\n        /* \"#utility.yul\":2639:2758   */\n    tag_140:\n        /* \"#utility.yul\":2825:2826   */\n      0x00\n        /* \"#utility.yul\":2814:2823   */\n      dup3\n        /* \"#utility.yul\":2810:2827   */\n      add\n        /* \"#utility.yul\":2797:2828   */\n      calldataload\n        /* \"#utility.yul\":2855:2873   */\n      0xffffffffffffffff\n        /* \"#utility.yul\":2847:2853   */\n      dup2\n        /* \"#utility.yul\":2844:2874   */\n      gt\n        /* \"#utility.yul\":2841:2958   */\n      iszero\n      tag_142\n      jumpi\n        /* \"#utility.yul\":2877:2956   */\n      tag_143\n      tag_79\n      jump\t// in\n    tag_143:\n        /* \"#utility.yul\":2841:2958   */\n    tag_142:\n        /* \"#utility.yul\":2982:3045   */\n      tag_144\n        /* \"#utility.yul\":3037:3044   */\n      dup5\n        /* \"#utility.yul\":3028:3034   */\n      dup3\n        /* \"#utility.yul\":3017:3026   */\n      dup6\n        /* \"#utility.yul\":3013:3035   */\n      add\n        /* \"#utility.yul\":2982:3045   */\n      tag_88\n      jump\t// in\n    tag_144:\n        /* \"#utility.yul\":2972:3045   */\n      swap2\n      pop\n        /* \"#utility.yul\":2768:3055   */\n      pop\n        /* \"#utility.yul\":2553:3062   */\n      swap3\n      swap2\n      pop\n      pop\n      jump\t// out\n        /* \"#utility.yul\":3068:3192   */\n    tag_89:\n        /* \"#utility.yul\":3145:3151   */\n      0x00\n        /* \"#utility.yul\":3179:3184   */\n      dup2\n        /* \"#utility.yul\":3173:3185   */\n      mload\n        /* \"#utility.yul\":3163:3185   */\n      swap1\n      pop\n        /* \"#utility.yul\":3068:3192   */\n      swap2\n      swap1\n      pop\n      jump\t// out\n        /* \"#utility.yul\":3198:3392   */\n    tag_90:\n        /* \"#utility.yul\":3307:3318   */\n      0x00\n        /* \"#utility.yul\":3341:3347   */\n      dup3\n        /* \"#utility.yul\":3336:3339   */\n      dup3\n        /* \"#utility.yul\":3329:3348   */\n      mstore\n        /* \"#utility.yul\":3381:3385   */\n      0x20\n        /* \"#utility.yul\":3376:3379   */\n      dup3\n        /* \"#utility.yul\":3372:3386   */\n      add\n        /* \"#utility.yul\":3357:3386   */\n      swap1\n      pop\n        /* \"#utility.yul\":3198:3392   */\n      swap3\n      swap2\n      pop\n      pop\n      jump\t// out\n        /* \"#utility.yul\":3398:3540   */\n    tag_91:\n        /* \"#utility.yul\":3475:3479   */\n      0x00\n        /* \"#utility.yul\":3498:3501   */\n      dup2\n        /* \"#utility.yul\":3490:3501   */\n      swap1\n      pop\n        /* \"#utility.yul\":3528:3532   */\n      0x20\n        /* \"#utility.yul\":3523:3526   */\n      dup3\n        /* \"#utility.yul\":3519:3533   */\n      add\n        /* \"#utility.yul\":3511:3533   */\n      swap1\n      pop\n        /* \"#utility.yul\":3398:3540   */\n      swap2\n      swap1\n      pop\n      jump\t// out\n        /* \"#utility.yul\":3546:3645   */\n    tag_92:\n        /* \"#utility.yul\":3598:3604   */\n      0x00\n        /* \"#utility.yul\":3632:3637   */\n      dup2\n        /* \"#utility.yul\":3626:3638   */\n      mload\n        /* \"#utility.yul\":3616:3638   */\n      swap1\n      pop\n        /* \"#utility.yul\":3546:3645   */\n      swap2\n      swap1\n      pop\n      jump\t// out\n        /* \"#utility.yul\":3651:3810   */\n    tag_93:\n        /* \"#utility.yul\":3725:3736   */\n      0x00\n        /* \"#utility.yul\":3759:3765   */\n      dup3\n        /* \"#utility.yul\":3754:3757   */\n      dup3\n        /* \"#utility.yul\":3747:3766   */\n      mstore\n        /* \"#utility.yul\":3799:3803   */\n      0x20\n        /* \"#utility.yul\":3794:3797   */\n      dup3\n        /* \"#utility.yul\":3790:3804   */\n      add\n        /* \"#utility.yul\":3775:3804   */\n      swap1\n      pop\n        /* \"#utility.yul\":3651:3810   */\n      swap3\n      swap2\n      pop\n      pop\n      jump\t// out\n        /* \"#utility.yul\":3816:4062   */\n    tag_94:\n        /* \"#utility.yul\":3897:3898   */\n      0x00\n        /* \"#utility.yul\":3907:4020   */\n    tag_151:\n        /* \"#utility.yul\":3921:3927   */\n      dup4\n        /* \"#utility.yul\":3918:3919   */\n      dup2\n        /* \"#utility.yul\":3915:3928   */\n      lt\n        /* \"#utility.yul\":3907:4020   */\n      iszero\n      tag_153\n      jumpi\n        /* \"#utility.yul\":4006:4007   */\n      dup1\n        /* \"#utility.yul\":4001:4004   */\n      dup3\n        /* \"#utility.yul\":3997:4008   */\n      add\n        /* \"#utility.yul\":3991:4009   */\n      mload\n        /* \"#utility.yul\":3987:3988   */\n      dup2\n        /* \"#utility.yul\":3982:3985   */\n      dup5\n        /* \"#utility.yul\":3978:3989   */\n      add\n        /* \"#utility.yul\":3971:4010   */\n      mstore\n        /* \"#utility.yul\":3943:3945   */\n      0x20\n        /* \"#utility.yul\":3940:3941   */\n      dup2\n        /* \"#utility.yul\":3936:3946   */\n      add\n        /* \"#utility.yul\":3931:3946   */\n      swap1\n      pop\n        /* \"#utility.yul\":3907:4020   */\n      jump(tag_151)\n    tag_153:\n        /* \"#utility.yul\":4054:4055   */\n      0x00\n        /* \"#utility.yul\":4045:4051   */\n      dup5\n        /* \"#utility.yul\":4040:4043   */\n      dup5\n        /* \"#utility.yul\":4036:4052   */\n      add\n        /* \"#utility.yul\":4029:4056   */\n      mstore\n        /* \"#utility.yul\":3878:4062   */\n      pop\n        /* \"#utility.yul\":3816:4062   */\n      pop\n      pop\n      pop\n      jump\t// out\n        /* \"#utility.yul\":4068:4425   */\n    tag_95:\n        /* \"#utility.yul\":4146:4149   */\n      0x00\n        /* \"#utility.yul\":4174:4213   */\n      tag_155\n        /* \"#utility.yul\":4207:4212   */\n      dup3\n        /* \"#utility.yul\":4174:4213   */\n      tag_92\n      jump\t// in\n    tag_155:\n        /* \"#utility.yul\":4229:4290   */\n      tag_156\n        /* \"#utility.yul\":4283:4289   */\n      dup2\n        /* \"#utility.yul\":4278:4281   */\n      dup6\n        /* \"#utility.yul\":4229:4290   */\n      tag_93\n      jump\t// in\n    tag_156:\n        /* \"#utility.yul\":4222:4290   */\n      swap4\n      pop\n        /* \"#utility.yul\":4299:4364   */\n      tag_157\n        /* \"#utility.yul\":4357:4363   */\n      dup2\n        /* \"#utility.yul\":4352:4355   */\n      dup6\n        /* \"#utility.yul\":4345:4349   */\n      0x20\n        /* \"#utility.yul\":4338:4343   */\n      dup7\n        /* \"#utility.yul\":4334:4350   */\n      add\n        /* \"#utility.yul\":4299:4364   */\n      tag_94\n      jump\t// in\n    tag_157:\n        /* \"#utility.yul\":4389:4418   */\n      tag_158\n        /* \"#utility.yul\":4411:4417   */\n      dup2\n        /* \"#utility.yul\":4389:4418   */\n      tag_82\n      jump\t// in\n    tag_158:\n        /* \"#utility.yul\":4384:4387   */\n      dup5\n        /* \"#utility.yul\":4380:4419   */\n      add\n        /* \"#utility.yul\":4373:4419   */\n      swap2\n      pop\n        /* \"#utility.yul\":4150:4425   */\n      pop\n        /* \"#utility.yul\":4068:4425   */\n      swap3\n      swap2\n      pop\n      pop\n      jump\t// out\n        /* \"#utility.yul\":4431:4627   */\n    tag_96:\n        /* \"#utility.yul\":4520:4530   */\n      0x00\n        /* \"#utility.yul\":4555:4621   */\n      tag_160\n        /* \"#utility.yul\":4617:4620   */\n      dup4\n        /* \"#utility.yul\":4609:4615   */\n      dup4\n        /* \"#utility.yul\":4555:4621   */\n      tag_95\n      jump\t// in\n    tag_160:\n        /* \"#utility.yul\":4541:4621   */\n      swap1\n      pop\n        /* \"#utility.yul\":4431:4627   */\n      swap3\n      swap2\n      pop\n      pop\n      jump\t// out\n        /* \"#utility.yul\":4633:4756   */\n    tag_97:\n        /* \"#utility.yul\":4713:4717   */\n      0x00\n        /* \"#utility.yul\":4745:4749   */\n      0x20\n        /* \"#utility.yul\":4740:4743   */\n      dup3\n        /* \"#utility.yul\":4736:4750   */\n      add\n        /* \"#utility.yul\":4728:4750   */\n      swap1\n      pop\n        /* \"#utility.yul\":4633:4756   */\n      swap2\n      swap1\n      pop\n      jump\t// out\n        /* \"#utility.yul\":4790:5781   */\n    tag_98:\n        /* \"#utility.yul\":4929:4932   */\n      0x00\n        /* \"#utility.yul\":4958:5022   */\n      tag_163\n        /* \"#utility.yul\":5016:5021   */\n      dup3\n        /* \"#utility.yul\":4958:5022   */\n      tag_89\n      jump\t// in\n    tag_163:\n        /* \"#utility.yul\":5038:5134   */\n      tag_164\n        /* \"#utility.yul\":5127:5133   */\n      dup2\n        /* \"#utility.yul\":5122:5125   */\n      dup6\n        /* \"#utility.yul\":5038:5134   */\n      tag_90\n      jump\t// in\n    tag_164:\n        /* \"#utility.yul\":5031:5134   */\n      swap4\n      pop\n        /* \"#utility.yul\":5160:5163   */\n      dup4\n        /* \"#utility.yul\":5205:5209   */\n      0x20\n        /* \"#utility.yul\":5197:5203   */\n      dup3\n        /* \"#utility.yul\":5193:5210   */\n      mul\n        /* \"#utility.yul\":5188:5191   */\n      dup6\n        /* \"#utility.yul\":5184:5211   */\n      add\n        /* \"#utility.yul\":5235:5301   */\n      tag_165\n        /* \"#utility.yul\":5295:5300   */\n      dup6\n        /* \"#utility.yul\":5235:5301   */\n      tag_91\n      jump\t// in\n    tag_165:\n        /* \"#utility.yul\":5324:5331   */\n      dup1\n        /* \"#utility.yul\":5355:5356   */\n      0x00\n        /* \"#utility.yul\":5340:5736   */\n    tag_166:\n        /* \"#utility.yul\":5365:5371   */\n      dup6\n        /* \"#utility.yul\":5362:5363   */\n      dup2\n        /* \"#utility.yul\":5359:5372   */\n      lt\n        /* \"#utility.yul\":5340:5736   */\n      iszero\n      tag_168\n      jumpi\n        /* \"#utility.yul\":5436:5445   */\n      dup5\n        /* \"#utility.yul\":5430:5434   */\n      dup5\n        /* \"#utility.yul\":5426:5446   */\n      sub\n        /* \"#utility.yul\":5421:5424   */\n      dup10\n        /* \"#utility.yul\":5414:5447   */\n      mstore\n        /* \"#utility.yul\":5487:5493   */\n      dup2\n        /* \"#utility.yul\":5481:5494   */\n      mload\n        /* \"#utility.yul\":5515:5599   */\n      tag_169\n        /* \"#utility.yul\":5594:5598   */\n      dup6\n        /* \"#utility.yul\":5579:5592   */\n      dup3\n        /* \"#utility.yul\":5515:5599   */\n      tag_96\n      jump\t// in\n    tag_169:\n        /* \"#utility.yul\":5507:5599   */\n      swap5\n      pop\n        /* \"#utility.yul\":5622:5692   */\n      tag_170\n        /* \"#utility.yul\":5685:5691   */\n      dup4\n        /* \"#utility.yul\":5622:5692   */\n      tag_97\n      jump\t// in\n    tag_170:\n        /* \"#utility.yul\":5612:5692   */\n      swap3\n      pop\n        /* \"#utility.yul\":5721:5725   */\n      0x20\n        /* \"#utility.yul\":5716:5719   */\n      dup11\n        /* \"#utility.yul\":5712:5726   */\n      add\n        /* \"#utility.yul\":5705:5726   */\n      swap10\n      pop\n        /* \"#utility.yul\":5400:5736   */\n      pop\n        /* \"#utility.yul\":5387:5388   */\n      0x01\n        /* \"#utility.yul\":5384:5385   */\n      dup2\n        /* \"#utility.yul\":5380:5389   */\n      add\n        /* \"#utility.yul\":5375:5389   */\n      swap1\n      pop\n        /* \"#utility.yul\":5340:5736   */\n      jump(tag_166)\n    tag_168:\n        /* \"#utility.yul\":5344:5358   */\n      pop\n        /* \"#utility.yul\":5752:5756   */\n      dup3\n        /* \"#utility.yul\":5745:5756   */\n      swap8\n      pop\n        /* \"#utility.yul\":5772:5775   */\n      dup8\n        /* \"#utility.yul\":5765:5775   */\n      swap6\n      pop\n        /* \"#utility.yul\":4934:5781   */\n      pop\n      pop\n      pop\n      pop\n      pop\n        /* \"#utility.yul\":4790:5781   */\n      swap3\n      swap2\n      pop\n      pop\n      jump\t// out\n        /* \"#utility.yul\":5787:6200   */\n    tag_10:\n        /* \"#utility.yul\":5950:5954   */\n      0x00\n        /* \"#utility.yul\":5988:5990   */\n      0x20\n        /* \"#utility.yul\":5977:5986   */\n      dup3\n        /* \"#utility.yul\":5973:5991   */\n      add\n        /* \"#utility.yul\":5965:5991   */\n      swap1\n      pop\n        /* \"#utility.yul\":6037:6046   */\n      dup2\n        /* \"#utility.yul\":6031:6035   */\n      dup2\n        /* \"#utility.yul\":6027:6047   */\n      sub\n        /* \"#utility.yul\":6023:6024   */\n      0x00\n        /* \"#utility.yul\":6012:6021   */\n      dup4\n        /* \"#utility.yul\":6008:6025   */\n      add\n        /* \"#utility.yul\":6001:6048   */\n      mstore\n        /* \"#utility.yul\":6065:6193   */\n      tag_172\n        /* \"#utility.yul\":6188:6192   */\n      dup2\n        /* \"#utility.yul\":6179:6185   */\n      dup5\n        /* \"#utility.yul\":6065:6193   */\n      tag_98\n      jump\t// in\n    tag_172:\n        /* \"#utility.yul\":6057:6193   */\n      swap1\n      pop\n        /* \"#utility.yul\":5787:6200   */\n      swap3\n      swap2\n      pop\n      pop\n      jump\t// out\n        /* \"#utility.yul\":6206:6527   */\n    tag_99:\n        /* \"#utility.yul\":6293:6297   */\n      0x00\n        /* \"#utility.yul\":6383:6401   */\n      0xffffffffffffffff\n        /* \"#utility.yul\":6375:6381   */\n      dup3\n        /* \"#utility.yul\":6372:6402   */\n      gt\n        /* \"#utility.yul\":6369:6425   */\n      iszero\n      tag_174\n      jumpi\n        /* \"#utility.yul\":6405:6423   */\n      tag_175\n      tag_26\n      jump\t// in\n    tag_175:\n        /* \"#utility.yul\":6369:6425   */\n    tag_174:\n        /* \"#utility.yul\":6455:6459   */\n      0x20\n        /* \"#utility.yul\":6447:6453   */\n      dup3\n        /* \"#utility.yul\":6443:6460   */\n      mul\n        /* \"#utility.yul\":6435:6460   */\n      swap1\n      pop\n        /* \"#utility.yul\":6515:6519   */\n      0x20\n        /* \"#utility.yul\":6509:6513   */\n      dup2\n        /* \"#utility.yul\":6505:6520   */\n      add\n        /* \"#utility.yul\":6497:6520   */\n      swap1\n      pop\n        /* \"#utility.yul\":6206:6527   */\n      swap2\n      swap1\n      pop\n      jump\t// out\n        /* \"#utility.yul\":6533:6650   */\n    tag_100:\n        /* \"#utility.yul\":6642:6643   */\n      0x00\n        /* \"#utility.yul\":6639:6640   */\n      dup1\n        /* \"#utility.yul\":6632:6644   */\n      revert\n        /* \"#utility.yul\":6672:7617   */\n    tag_101:\n        /* \"#utility.yul\":6778:6783   */\n      0x00\n        /* \"#utility.yul\":6803:6894   */\n      tag_178\n        /* \"#utility.yul\":6819:6893   */\n      tag_179\n        /* \"#utility.yul\":6886:6892   */\n      dup5\n        /* \"#utility.yul\":6819:6893   */\n      tag_99\n      jump\t// in\n    tag_179:\n        /* \"#utility.yul\":6803:6894   */\n      tag_84\n      jump\t// in\n    tag_178:\n        /* \"#utility.yul\":6794:6894   */\n      swap1\n      pop\n        /* \"#utility.yul\":6914:6919   */\n      dup1\n        /* \"#utility.yul\":6943:6949   */\n      dup4\n        /* \"#utility.yul\":6936:6941   */\n      dup3\n        /* \"#utility.yul\":6929:6950   */\n      mstore\n        /* \"#utility.yul\":6977:6981   */\n      0x20\n        /* \"#utility.yul\":6970:6975   */\n      dup3\n        /* \"#utility.yul\":6966:6982   */\n      add\n        /* \"#utility.yul\":6959:6982   */\n      swap1\n      pop\n        /* \"#utility.yul\":7030:7034   */\n      0x20\n        /* \"#utility.yul\":7022:7028   */\n      dup5\n        /* \"#utility.yul\":7018:7035   */\n      mul\n        /* \"#utility.yul\":7010:7016   */\n      dup4\n        /* \"#utility.yul\":7006:7036   */\n      add\n        /* \"#utility.yul\":7059:7062   */\n      dup6\n        /* \"#utility.yul\":7051:7057   */\n      dup2\n        /* \"#utility.yul\":7048:7063   */\n      gt\n        /* \"#utility.yul\":7045:7167   */\n      iszero\n      tag_180\n      jumpi\n        /* \"#utility.yul\":7078:7157   */\n      tag_181\n      tag_100\n      jump\t// in\n    tag_181:\n        /* \"#utility.yul\":7045:7167   */\n    tag_180:\n        /* \"#utility.yul\":7193:7199   */\n      dup4\n        /* \"#utility.yul\":7176:7611   */\n    tag_182:\n        /* \"#utility.yul\":7210:7216   */\n      dup2\n        /* \"#utility.yul\":7205:7208   */\n      dup2\n        /* \"#utility.yul\":7202:7217   */\n      lt\n        /* \"#utility.yul\":7176:7611   */\n      iszero\n      tag_184\n      jumpi\n        /* \"#utility.yul\":7299:7302   */\n      dup1\n        /* \"#utility.yul\":7286:7303   */\n      calldataload\n        /* \"#utility.yul\":7335:7353   */\n      0xffffffffffffffff\n        /* \"#utility.yul\":7322:7333   */\n      dup2\n        /* \"#utility.yul\":7319:7354   */\n      gt\n        /* \"#utility.yul\":7316:7438   */\n      iszero\n      tag_185\n      jumpi\n        /* \"#utility.yul\":7357:7436   */\n      tag_186\n      tag_80\n      jump\t// in\n    tag_186:\n        /* \"#utility.yul\":7316:7438   */\n    tag_185:\n        /* \"#utility.yul\":7481:7492   */\n      dup1\n        /* \"#utility.yul\":7473:7479   */\n      dup7\n        /* \"#utility.yul\":7469:7493   */\n      add\n        /* \"#utility.yul\":7519:7566   */\n      tag_187\n        /* \"#utility.yul\":7562:7565   */\n      dup10\n        /* \"#utility.yul\":7550:7560   */\n      dup3\n        /* \"#utility.yul\":7519:7566   */\n      tag_88\n      jump\t// in\n    tag_187:\n        /* \"#utility.yul\":7514:7517   */\n      dup6\n        /* \"#utility.yul\":7507:7567   */\n      mstore\n        /* \"#utility.yul\":7596:7600   */\n      0x20\n        /* \"#utility.yul\":7591:7594   */\n      dup6\n        /* \"#utility.yul\":7587:7601   */\n      add\n        /* \"#utility.yul\":7580:7601   */\n      swap5\n      pop\n        /* \"#utility.yul\":7252:7611   */\n      pop\n      pop\n        /* \"#utility.yul\":7236:7240   */\n      0x20\n        /* \"#utility.yul\":7231:7234   */\n      dup2\n        /* \"#utility.yul\":7227:7241   */\n      add\n        /* \"#utility.yul\":7220:7241   */\n      swap1\n      pop\n        /* \"#utility.yul\":7176:7611   */\n      jump(tag_182)\n    tag_184:\n        /* \"#utility.yul\":7180:7201   */\n      pop\n        /* \"#utility.yul\":6784:7617   */\n      pop\n      pop\n        /* \"#utility.yul\":6672:7617   */\n      swap4\n      swap3\n      pop\n      pop\n      pop\n      jump\t// out\n        /* \"#utility.yul\":7639:8029   */\n    tag_102:\n        /* \"#utility.yul\":7720:7725   */\n      0x00\n        /* \"#utility.yul\":7769:7772   */\n      dup3\n        /* \"#utility.yul\":7762:7766   */\n      0x1f\n        /* \"#utility.yul\":7754:7760   */\n      dup4\n        /* \"#utility.yul\":7750:7767   */\n      add\n        /* \"#utility.yul\":7746:7773   */\n      slt\n        /* \"#utility.yul\":7736:7858   */\n      tag_189\n      jumpi\n        /* \"#utility.yul\":7777:7856   */\n      tag_190\n      tag_80\n      jump\t// in\n    tag_190:\n        /* \"#utility.yul\":7736:7858   */\n    tag_189:\n        /* \"#utility.yul\":7894:7900   */\n      dup2\n        /* \"#utility.yul\":7881:7901   */\n      calldataload\n        /* \"#utility.yul\":7919:8023   */\n      tag_191\n        /* \"#utility.yul\":8019:8022   */\n      dup5\n        /* \"#utility.yul\":8011:8017   */\n      dup3\n        /* \"#utility.yul\":8004:8008   */\n      0x20\n        /* \"#utility.yul\":7996:8002   */\n      dup7\n        /* \"#utility.yul\":7992:8009   */\n      add\n        /* \"#utility.yul\":7919:8023   */\n      tag_101\n      jump\t// in\n    tag_191:\n        /* \"#utility.yul\":7910:8023   */\n      swap2\n      pop\n        /* \"#utility.yul\":7726:8029   */\n      pop\n        /* \"#utility.yul\":7639:8029   */\n      swap3\n      swap2\n      pop\n      pop\n      jump\t// out\n        /* \"#utility.yul\":8035:8594   */\n    tag_13:\n        /* \"#utility.yul\":8129:8135   */\n      0x00\n        /* \"#utility.yul\":8178:8180   */\n      0x20\n        /* \"#utility.yul\":8166:8175   */\n      dup3\n        /* \"#utility.yul\":8157:8164   */\n      dup5\n        /* \"#utility.yul\":8153:8176   */\n      sub\n        /* \"#utility.yul\":8149:8181   */\n      slt\n        /* \"#utility.yul\":8146:8265   */\n      iszero\n      tag_193\n      jumpi\n        /* \"#utility.yul\":8184:8263   */\n      tag_194\n      tag_78\n      jump\t// in\n    tag_194:\n        /* \"#utility.yul\":8146:8265   */\n    tag_193:\n        /* \"#utility.yul\":8332:8333   */\n      0x00\n        /* \"#utility.yul\":8321:8330   */\n      dup3\n        /* \"#utility.yul\":8317:8334   */\n      add\n        /* \"#utility.yul\":8304:8335   */\n      calldataload\n        /* \"#utility.yul\":8362:8380   */\n      0xffffffffffffffff\n        /* \"#utility.yul\":8354:8360   */\n      dup2\n        /* \"#utility.yul\":8351:8381   */\n      gt\n        /* \"#utility.yul\":8348:8465   */\n      iszero\n      tag_195\n      jumpi\n        /* \"#utility.yul\":8384:8463   */\n      tag_196\n      tag_79\n      jump\t// in\n    tag_196:\n        /* \"#utility.yul\":8348:8465   */\n    tag_195:\n        /* \"#utility.yul\":8489:8577   */\n      tag_197\n        /* \"#utility.yul\":8569:8576   */\n      dup5\n        /* \"#utility.yul\":8560:8566   */\n      dup3\n        /* \"#utility.yul\":8549:8558   */\n      dup6\n        /* \"#utility.yul\":8545:8567   */\n      add\n        /* \"#utility.yul\":8489:8577   */\n      tag_102\n      jump\t// in\n    tag_197:\n        /* \"#utility.yul\":8479:8577   */\n      swap2\n      pop\n        /* \"#utility.yul\":8275:8587   */\n      pop\n        /* \"#utility.yul\":8035:8594   */\n      swap3\n      swap2\n      pop\n      pop\n      jump\t// out\n        /* \"#utility.yul\":8600:8769   */\n    tag_103:\n        /* \"#utility.yul\":8684:8695   */\n      0x00\n        /* \"#utility.yul\":8718:8724   */\n      dup3\n        /* \"#utility.yul\":8713:8716   */\n      dup3\n        /* \"#utility.yul\":8706:8725   */\n      mstore\n        /* \"#utility.yul\":8758:8762   */\n      0x20\n        /* \"#utility.yul\":8753:8756   */\n      dup3\n        /* \"#utility.yul\":8749:8763   */\n      add\n        /* \"#utility.yul\":8734:8763   */\n      swap1\n      pop\n        /* \"#utility.yul\":8600:8769   */\n      swap3\n      swap2\n      pop\n      pop\n      jump\t// out\n        /* \"#utility.yul\":8775:9152   */\n    tag_104:\n        /* \"#utility.yul\":8863:8866   */\n      0x00\n        /* \"#utility.yul\":8891:8930   */\n      tag_200\n        /* \"#utility.yul\":8924:8929   */\n      dup3\n        /* \"#utility.yul\":8891:8930   */\n      tag_92\n      jump\t// in\n    tag_200:\n        /* \"#utility.yul\":8946:9017   */\n      tag_201\n        /* \"#utility.yul\":9010:9016   */\n      dup2\n        /* \"#utility.yul\":9005:9008   */\n      dup6\n        /* \"#utility.yul\":8946:9017   */\n      tag_103\n      jump\t// in\n    tag_201:\n        /* \"#utility.yul\":8939:9017   */\n      swap4\n      pop\n        /* \"#utility.yul\":9026:9091   */\n      tag_202\n        /* \"#utility.yul\":9084:9090   */\n      dup2\n        /* \"#utility.yul\":9079:9082   */\n      dup6\n        /* \"#utility.yul\":9072:9076   */\n      0x20\n        /* \"#utility.yul\":9065:9070   */\n      dup7\n        /* \"#utility.yul\":9061:9077   */\n      add\n        /* \"#utility.yul\":9026:9091   */\n      tag_94\n      jump\t// in\n    tag_202:\n        /* \"#utility.yul\":9116:9145   */\n      tag_203\n        /* \"#utility.yul\":9138:9144   */\n      dup2\n        /* \"#utility.yul\":9116:9145   */\n      tag_82\n      jump\t// in\n    tag_203:\n        /* \"#utility.yul\":9111:9114   */\n      dup5\n        /* \"#utility.yul\":9107:9146   */\n      add\n        /* \"#utility.yul\":9100:9146   */\n      swap2\n      pop\n        /* \"#utility.yul\":8867:9152   */\n      pop\n        /* \"#utility.yul\":8775:9152   */\n      swap3\n      swap2\n      pop\n      pop\n      jump\t// out\n        /* \"#utility.yul\":9158:9471   */\n    tag_16:\n        /* \"#utility.yul\":9271:9275   */\n      0x00\n        /* \"#utility.yul\":9309:9311   */\n      0x20\n        /* \"#utility.yul\":9298:9307   */\n      dup3\n        /* \"#utility.yul\":9294:9312   */\n      add\n        /* \"#utility.yul\":9286:9312   */\n      swap1\n      pop\n        /* \"#utility.yul\":9358:9367   */\n      dup2\n        /* \"#utility.yul\":9352:9356   */\n      dup2\n        /* \"#utility.yul\":9348:9368   */\n      sub\n        /* \"#utility.yul\":9344:9345   */\n      0x00\n        /* \"#utility.yul\":9333:9342   */\n      dup4\n        /* \"#utility.yul\":9329:9346   */\n      add\n        /* \"#utility.yul\":9322:9369   */\n      mstore\n        /* \"#utility.yul\":9386:9464   */\n      tag_205\n        /* \"#utility.yul\":9459:9463   */\n      dup2\n        /* \"#utility.yul\":9450:9456   */\n      dup5\n        /* \"#utility.yul\":9386:9464   */\n      tag_104\n      jump\t// in\n    tag_205:\n        /* \"#utility.yul\":9378:9464   */\n      swap1\n      pop\n        /* \"#utility.yul\":9158:9471   */\n      swap3\n      swap2\n      pop\n      pop\n      jump\t// out\n        /* \"#utility.yul\":9477:9554   */\n    tag_105:\n        /* \"#utility.yul\":9514:9521   */\n      0x00\n        /* \"#utility.yul\":9543:9548   */\n      dup2\n        /* \"#utility.yul\":9532:9548   */\n      swap1\n      pop\n        /* \"#utility.yul\":9477:9554   */\n      swap2\n      swap1\n      pop\n      jump\t// out\n        /* \"#utility.yul\":9560:9740   */\n    tag_106:\n        /* \"#utility.yul\":9608:9685   */\n      0x4e487b7100000000000000000000000000000000000000000000000000000000\n        /* \"#utility.yul\":9605:9606   */\n      0x00\n        /* \"#utility.yul\":9598:9686   */\n      mstore\n        /* \"#utility.yul\":9705:9709   */\n      0x11\n        /* \"#utility.yul\":9702:9703   */\n      0x04\n        /* \"#utility.yul\":9695:9710   */\n      mstore\n        /* \"#utility.yul\":9729:9733   */\n      0x24\n        /* \"#utility.yul\":9726:9727   */\n      0x00\n        /* \"#utility.yul\":9719:9734   */\n      revert\n        /* \"#utility.yul\":9746:9937   */\n    tag_19:\n        /* \"#utility.yul\":9786:9789   */\n      0x00\n        /* \"#utility.yul\":9805:9825   */\n      tag_209\n        /* \"#utility.yul\":9823:9824   */\n      dup3\n        /* \"#utility.yul\":9805:9825   */\n      tag_105\n      jump\t// in\n    tag_209:\n        /* \"#utility.yul\":9800:9825   */\n      swap2\n      pop\n        /* \"#utility.yul\":9839:9859   */\n      tag_210\n        /* \"#utility.yul\":9857:9858   */\n      dup4\n        /* \"#utility.yul\":9839:9859   */\n      tag_105\n      jump\t// in\n    tag_210:\n        /* \"#utility.yul\":9834:9859   */\n      swap3\n      pop\n        /* \"#utility.yul\":9882:9883   */\n      dup3\n        /* \"#utility.yul\":9879:9880   */\n      dup3\n        /* \"#utility.yul\":9875:9884   */\n      add\n        /* \"#utility.yul\":9868:9884   */\n      swap1\n      pop\n        /* \"#utility.yul\":9903:9906   */\n      dup1\n        /* \"#utility.yul\":9900:9901   */\n      dup3\n        /* \"#utility.yul\":9897:9907   */\n      gt\n        /* \"#utility.yul\":9894:9930   */\n      iszero\n      tag_211\n      jumpi\n        /* \"#utility.yul\":9910:9928   */\n      tag_212\n      tag_106\n      jump\t// in\n    tag_212:\n        /* \"#utility.yul\":9894:9930   */\n    tag_211:\n        /* \"#utility.yul\":9746:9937   */\n      swap3\n      swap2\n      pop\n      pop\n      jump\t// out\n        /* \"#utility.yul\":9943:10137   */\n    tag_21:\n        /* \"#utility.yul\":9983:9987   */\n      0x00\n        /* \"#utility.yul\":10003:10023   */\n      tag_214\n        /* \"#utility.yul\":10021:10022   */\n      dup3\n        /* \"#utility.yul\":10003:10023   */\n      tag_105\n      jump\t// in\n    tag_214:\n        /* \"#utility.yul\":9998:10023   */\n      swap2\n      pop\n        /* \"#utility.yul\":10037:10057   */\n      tag_215\n        /* \"#utility.yul\":10055:10056   */\n      dup4\n        /* \"#utility.yul\":10037:10057   */\n      tag_105\n      jump\t// in\n    tag_215:\n        /* \"#utility.yul\":10032:10057   */\n      swap3\n      pop\n        /* \"#utility.yul\":10081:10082   */\n      dup3\n        /* \"#utility.yul\":10078:10079   */\n      dup3\n        /* \"#utility.yul\":10074:10083   */\n      sub\n        /* \"#utility.yul\":10066:10083   */\n      swap1\n      pop\n        /* \"#utility.yul\":10105:10106   */\n      dup2\n        /* \"#utility.yul\":10099:10103   */\n      dup2\n        /* \"#utility.yul\":10096:10107   */\n      gt\n        /* \"#utility.yul\":10093:10130   */\n      iszero\n      tag_216\n      jumpi\n        /* \"#utility.yul\":10110:10128   */\n      tag_217\n      tag_106\n      jump\t// in\n    tag_217:\n        /* \"#utility.yul\":10093:10130   */\n    tag_216:\n        /* \"#utility.yul\":9943:10137   */\n      swap3\n      swap2\n      pop\n      pop\n      jump\t// out\n        /* \"#utility.yul\":10143:10323   */\n    tag_107:\n        /* \"#utility.yul\":10191:10268   */\n      0x4e487b7100000000000000000000000000000000000000000000000000000000\n        /* \"#utility.yul\":10188:10189   */\n      0x00\n        /* \"#utility.yul\":10181:10269   */\n      mstore\n        /* \"#utility.yul\":10288:10292   */\n      0x12\n        /* \"#utility.yul\":10285:10286   */\n      0x04\n        /* \"#utility.yul\":10278:10293   */\n      mstore\n        /* \"#utility.yul\":10312:10316   */\n      0x24\n        /* \"#utility.yul\":10309:10310   */\n      0x00\n        /* \"#utility.yul\":10302:10317   */\n      revert\n        /* \"#utility.yul\":10329:10514   */\n    tag_23:\n        /* \"#utility.yul\":10369:10370   */\n      0x00\n        /* \"#utility.yul\":10386:10406   */\n      tag_220\n        /* \"#utility.yul\":10404:10405   */\n      dup3\n        /* \"#utility.yul\":10386:10406   */\n      tag_105\n      jump\t// in\n    tag_220:\n        /* \"#utility.yul\":10381:10406   */\n      swap2\n      pop\n        /* \"#utility.yul\":10420:10440   */\n      tag_221\n        /* \"#utility.yul\":10438:10439   */\n      dup4\n        /* \"#utility.yul\":10420:10440   */\n      tag_105\n      jump\t// in\n    tag_221:\n        /* \"#utility.yul\":10415:10440   */\n      swap3\n      pop\n        /* \"#utility.yul\":10459:10460   */\n      dup3\n        /* \"#utility.yul\":10449:10484   */\n      tag_222\n      jumpi\n        /* \"#utility.yul\":10464:10482   */\n      tag_223\n      tag_107\n      jump\t// in\n    tag_223:\n        /* \"#utility.yul\":10449:10484   */\n    tag_222:\n        /* \"#utility.yul\":10506:10507   */\n      dup3\n        /* \"#utility.yul\":10503:10504   */\n      dup3\n        /* \"#utility.yul\":10499:10508   */\n      div\n        /* \"#utility.yul\":10494:10508   */\n      swap1\n      pop\n        /* \"#utility.yul\":10329:10514   */\n      swap3\n      swap2\n      pop\n      pop\n      jump\t// out\n        /* \"#utility.yul\":10520:10638   */\n    tag_108:\n        /* \"#utility.yul\":10607:10631   */\n      tag_225\n        /* \"#utility.yul\":10625:10630   */\n      dup2\n        /* \"#utility.yul\":10607:10631   */\n      tag_105\n      jump\t// in\n    tag_225:\n        /* \"#utility.yul\":10602:10605   */\n      dup3\n        /* \"#utility.yul\":10595:10632   */\n      mstore\n        /* \"#utility.yul\":10520:10638   */\n      pop\n      pop\n      jump\t// out\n        /* \"#utility.yul\":10644:10866   */\n    tag_30:\n        /* \"#utility.yul\":10737:10741   */\n      0x00\n        /* \"#utility.yul\":10775:10777   */\n      0x20\n        /* \"#utility.yul\":10764:10773   */\n      dup3\n        /* \"#utility.yul\":10760:10778   */\n      add\n        /* \"#utility.yul\":10752:10778   */\n      swap1\n      pop\n        /* \"#utility.yul\":10788:10859   */\n      tag_227\n        /* \"#utility.yul\":10856:10857   */\n      0x00\n        /* \"#utility.yul\":10845:10854   */\n      dup4\n        /* \"#utility.yul\":10841:10858   */\n      add\n        /* \"#utility.yul\":10832:10838   */\n      dup5\n        /* \"#utility.yul\":10788:10859   */\n      tag_108\n      jump\t// in\n    tag_227:\n        /* \"#utility.yul\":10644:10866   */\n      swap3\n      swap2\n      pop\n      pop\n      jump\t// out\n        /* \"#utility.yul\":10872:11282   */\n    tag_35:\n        /* \"#utility.yul\":10912:10919   */\n      0x00\n        /* \"#utility.yul\":10935:10955   */\n      tag_229\n        /* \"#utility.yul\":10953:10954   */\n      dup3\n        /* \"#utility.yul\":10935:10955   */\n      tag_105\n      jump\t// in\n    tag_229:\n        /* \"#utility.yul\":10930:10955   */\n      swap2\n      pop\n        /* \"#utility.yul\":10969:10989   */\n      tag_230\n        /* \"#utility.yul\":10987:10988   */\n      dup4\n        /* \"#utility.yul\":10969:10989   */\n      tag_105\n      jump\t// in\n    tag_230:\n        /* \"#utility.yul\":10964:10989   */\n      swap3\n      pop\n        /* \"#utility.yul\":11024:11025   */\n      dup3\n        /* \"#utility.yul\":11021:11022   */\n      dup3\n        /* \"#utility.yul\":11017:11026   */\n      mul\n        /* \"#utility.yul\":11046:11076   */\n      tag_231\n        /* \"#utility.yul\":11064:11075   */\n      dup2\n        /* \"#utility.yul\":11046:11076   */\n      tag_105\n      jump\t// in\n    tag_231:\n        /* \"#utility.yul\":11035:11076   */\n      swap2\n      pop\n        /* \"#utility.yul\":11225:11226   */\n      dup3\n        /* \"#utility.yul\":11216:11223   */\n      dup3\n        /* \"#utility.yul\":11212:11227   */\n      div\n        /* \"#utility.yul\":11209:11210   */\n      dup5\n        /* \"#utility.yul\":11206:11228   */\n      eq\n        /* \"#utility.yul\":11186:11187   */\n      dup4\n        /* \"#utility.yul\":11179:11188   */\n      iszero\n        /* \"#utility.yul\":11159:11242   */\n      or\n        /* \"#utility.yul\":11136:11275   */\n      tag_232\n      jumpi\n        /* \"#utility.yul\":11255:11273   */\n      tag_233\n      tag_106\n      jump\t// in\n    tag_233:\n        /* \"#utility.yul\":11136:11275   */\n    tag_232:\n        /* \"#utility.yul\":10920:11282   */\n      pop\n        /* \"#utility.yul\":10872:11282   */\n      swap3\n      swap2\n      pop\n      pop\n      jump\t// out\n        /* \"#utility.yul\":11288:11468   */\n    tag_47:\n        /* \"#utility.yul\":11336:11413   */\n      0x4e487b7100000000000000000000000000000000000000000000000000000000\n        /* \"#utility.yul\":11333:11334   */\n      0x00\n        /* \"#utility.yul\":11326:11414   */\n      mstore\n        /* \"#utility.yul\":11433:11437   */\n      0x32\n        /* \"#utility.yul\":11430:11431   */\n      0x04\n        /* \"#utility.yul\":11423:11438   */\n      mstore\n        /* \"#utility.yul\":11457:11461   */\n      0x24\n        /* \"#utility.yul\":11454:11455   */\n      0x00\n        /* \"#utility.yul\":11447:11462   */\n      revert\n        /* \"#utility.yul\":11474:11707   */\n    tag_74:\n        /* \"#utility.yul\":11513:11516   */\n      0x00\n        /* \"#utility.yul\":11536:11560   */\n      tag_236\n        /* \"#utility.yul\":11554:11559   */\n      dup3\n        /* \"#utility.yul\":11536:11560   */\n      tag_105\n      jump\t// in\n    tag_236:\n        /* \"#utility.yul\":11527:11560   */\n      swap2\n      pop\n        /* \"#utility.yul\":11582:11648   */\n      0xffffffffffffffffffffffffffffffffffffffffffffffffffffffffffffffff\n        /* \"#utility.yul\":11575:11580   */\n      dup3\n        /* \"#utility.yul\":11572:11649   */\n      sub\n        /* \"#utility.yul\":11569:11672   */\n      tag_237\n      jumpi\n        /* \"#utility.yul\":11652:11670   */\n      tag_238\n      tag_106\n      jump\t// in\n    tag_238:\n        /* \"#utility.yul\":11569:11672   */\n    tag_237:\n        /* \"#utility.yul\":11699:11700   */\n      0x01\n        /* \"#utility.yul\":11692:11697   */\n      dup3\n        /* \"#utility.yul\":11688:11701   */\n      add\n        /* \"#utility.yul\":11681:11701   */\n      swap1\n      pop\n        /* \"#utility.yul\":11474:11707   */\n      swap2\n      swap1\n      pop\n      jump\t// out\n\n    auxdata: 0xa26469706673582212200e0abf9fca3bcf95bd6971ec696875647d0a984755fd86d53c80599a333c3cd364736f6c63430008160033\n}\n",
				"bytecode": {
					"linkReferences": {},
					"object": "608060405234801561000f575f80fd5b50610a828061001d5f395ff3fe608060405234801561000f575f80fd5b5060043610610034575f3560e01c80631f37bdd21461003857806357d7f21f14610068575b5f80fd5b610052600480360381019061004d9190610549565b610098565b60405161005f91906106c5565b60405180910390f35b610082600480360381019061007d91906107c7565b61029f565b60405161008f9190610856565b60405180910390f35b60605f602090505f8160018386516100b091906108ac565b6100ba91906108df565b6100c4919061093f565b90505f8167ffffffffffffffff8111156100e1576100e0610425565b5b60405190808252806020026020018201604052801561011457816020015b60608152602001906001900390816100ff5790505b5090507f0838d04243391d45d94a98fff54d1737cbffea86c34ab825e5d6980ec9b7723582604051610146919061097e565b60405180910390a15f5b82811015610293575f84826101659190610997565b90505f858261017491906108ac565b9050875181111561018457875190505b5f828261019191906108df565b67ffffffffffffffff8111156101aa576101a9610425565b5b6040519080825280601f01601f1916602001820160405280156101dc5781602001600182028036833780820191505090505b5090505f8390505b82811015610263578981815181106101ff576101fe6109d8565b5b602001015160f81c60f81b82858361021791906108df565b81518110610228576102276109d8565b5b60200101907effffffffffffffffffffffffffffffffffffffffffffffffffffffffffffff191690815f1a90535080806001019150506101e4565b5080858581518110610278576102776109d8565b5b60200260200101819052505050508080600101915050610150565b50809350505050919050565b60605f805b83518110156102e3578381815181106102c0576102bf6109d8565b5b602002602001015151826102d491906108ac565b915080806001019150506102a4565b505f8167ffffffffffffffff8111156102ff576102fe610425565b5b6040519080825280601f01601f1916602001820160405280156103315781602001600182028036833780820191505090505b5090505f805b85518110156103f0575f868281518110610354576103536109d8565b5b602002602001015190505f5b81518110156103e15781818151811061037c5761037b6109d8565b5b602001015160f81c60f81b85858061039390610a05565b9650815181106103a6576103a56109d8565b5b60200101907effffffffffffffffffffffffffffffffffffffffffffffffffffffffffffff191690815f1a9053508080600101915050610360565b50508080600101915050610337565b50819350505050919050565b5f604051905090565b5f80fd5b5f80fd5b5f80fd5b5f80fd5b5f601f19601f8301169050919050565b7f4e487b71000000000000000000000000000000000000000000000000000000005f52604160045260245ffd5b61045b82610415565b810181811067ffffffffffffffff8211171561047a57610479610425565b5b80604052505050565b5f61048c6103fc565b90506104988282610452565b919050565b5f67ffffffffffffffff8211156104b7576104b6610425565b5b6104c082610415565b9050602081019050919050565b828183375f83830152505050565b5f6104ed6104e88461049d565b610483565b90508281526020810184848401111561050957610508610411565b5b6105148482856104cd565b509392505050565b5f82601f8301126105305761052f61040d565b5b81356105408482602086016104db565b91505092915050565b5f6020828403121561055e5761055d610405565b5b5f82013567ffffffffffffffff81111561057b5761057a610409565b5b6105878482850161051c565b91505092915050565b5f81519050919050565b5f82825260208201905092915050565b5f819050602082019050919050565b5f81519050919050565b5f82825260208201905092915050565b5f5b838110156105f05780820151818401526020810190506105d5565b5f8484015250505050565b5f610605826105b9565b61060f81856105c3565b935061061f8185602086016105d3565b61062881610415565b840191505092915050565b5f61063e83836105fb565b905092915050565b5f602082019050919050565b5f61065c82610590565b610666818561059a565b935083602082028501610678856105aa565b805f5b858110156106b357848403895281516106948582610633565b945061069f83610646565b925060208a0199505060018101905061067b565b50829750879550505050505092915050565b5f6020820190508181035f8301526106dd8184610652565b905092915050565b5f67ffffffffffffffff8211156106ff576106fe610425565b5b602082029050602081019050919050565b5f80fd5b5f610726610721846106e5565b610483565b9050808382526020820190506020840283018581111561074957610748610710565b5b835b8181101561079057803567ffffffffffffffff81111561076e5761076d61040d565b5b80860161077b898261051c565b8552602085019450505060208101905061074b565b5050509392505050565b5f82601f8301126107ae576107ad61040d565b5b81356107be848260208601610714565b91505092915050565b5f602082840312156107dc576107db610405565b5b5f82013567ffffffffffffffff8111156107f9576107f8610409565b5b6108058482850161079a565b91505092915050565b5f82825260208201905092915050565b5f610828826105b9565b610832818561080e565b93506108428185602086016105d3565b61084b81610415565b840191505092915050565b5f6020820190508181035f83015261086e818461081e565b905092915050565b5f819050919050565b7f4e487b71000000000000000000000000000000000000000000000000000000005f52601160045260245ffd5b5f6108b682610876565b91506108c183610876565b92508282019050808211156108d9576108d861087f565b5b92915050565b5f6108e982610876565b91506108f483610876565b925082820390508181111561090c5761090b61087f565b5b92915050565b7f4e487b71000000000000000000000000000000000000000000000000000000005f52601260045260245ffd5b5f61094982610876565b915061095483610876565b92508261096457610963610912565b5b828204905092915050565b61097881610876565b82525050565b5f6020820190506109915f83018461096f565b92915050565b5f6109a182610876565b91506109ac83610876565b92508282026109ba81610876565b915082820484148315176109d1576109d061087f565b5b5092915050565b7f4e487b71000000000000000000000000000000000000000000000000000000005f52603260045260245ffd5b5f610a0f82610876565b91507fffffffffffffffffffffffffffffffffffffffffffffffffffffffffffffffff8203610a4157610a4061087f565b5b60018201905091905056fea26469706673582212200e0abf9fca3bcf95bd6971ec696875647d0a984755fd86d53c80599a333c3cd364736f6c63430008160033",
					"opcodes": "PUSH1 0x80 PUSH1 0x40 MSTORE CALLVALUE DUP1 ISZERO PUSH2 0xF JUMPI PUSH0 DUP1 REVERT JUMPDEST POP PUSH2 0xA82 DUP1 PUSH2 0x1D PUSH0 CODECOPY PUSH0 RETURN INVALID PUSH1 0x80 PUSH1 0x40 MSTORE CALLVALUE DUP1 ISZERO PUSH2 0xF JUMPI PUSH0 DUP1 REVERT JUMPDEST POP PUSH1 0x4 CALLDATASIZE LT PUSH2 0x34 JUMPI PUSH0 CALLDATALOAD PUSH1 0xE0 SHR DUP1 PUSH4 0x1F37BDD2 EQ PUSH2 0x38 JUMPI DUP1 PUSH4 0x57D7F21F EQ PUSH2 0x68 JUMPI JUMPDEST PUSH0 DUP1 REVERT JUMPDEST PUSH2 0x52 PUSH1 0x4 DUP1 CALLDATASIZE SUB DUP2 ADD SWAP1 PUSH2 0x4D SWAP2 SWAP1 PUSH2 0x549 JUMP JUMPDEST PUSH2 0x98 JUMP JUMPDEST PUSH1 0x40 MLOAD PUSH2 0x5F SWAP2 SWAP1 PUSH2 0x6C5 JUMP JUMPDEST PUSH1 0x40 MLOAD DUP1 SWAP2 SUB SWAP1 RETURN JUMPDEST PUSH2 0x82 PUSH1 0x4 DUP1 CALLDATASIZE SUB DUP2 ADD SWAP1 PUSH2 0x7D SWAP2 SWAP1 PUSH2 0x7C7 JUMP JUMPDEST PUSH2 0x29F JUMP JUMPDEST PUSH1 0x40 MLOAD PUSH2 0x8F SWAP2 SWAP1 PUSH2 0x856 JUMP JUMPDEST PUSH1 0x40 MLOAD DUP1 SWAP2 SUB SWAP1 RETURN JUMPDEST PUSH1 0x60 PUSH0 PUSH1 0x20 SWAP1 POP PUSH0 DUP2 PUSH1 0x1 DUP4 DUP7 MLOAD PUSH2 0xB0 SWAP2 SWAP1 PUSH2 0x8AC JUMP JUMPDEST PUSH2 0xBA SWAP2 SWAP1 PUSH2 0x8DF JUMP JUMPDEST PUSH2 0xC4 SWAP2 SWAP1 PUSH2 0x93F JUMP JUMPDEST SWAP1 POP PUSH0 DUP2 PUSH8 0xFFFFFFFFFFFFFFFF DUP2 GT ISZERO PUSH2 0xE1 JUMPI PUSH2 0xE0 PUSH2 0x425 JUMP JUMPDEST JUMPDEST PUSH1 0x40 MLOAD SWAP1 DUP1 DUP3 MSTORE DUP1 PUSH1 0x20 MUL PUSH1 0x20 ADD DUP3 ADD PUSH1 0x40 MSTORE DUP1 ISZERO PUSH2 0x114 JUMPI DUP2 PUSH1 0x20 ADD JUMPDEST PUSH1 0x60 DUP2 MSTORE PUSH1 0x20 ADD SWAP1 PUSH1 0x1 SWAP1 SUB SWAP1 DUP2 PUSH2 0xFF JUMPI SWAP1 POP JUMPDEST POP SWAP1 POP PUSH32 0x838D04243391D45D94A98FFF54D1737CBFFEA86C34AB825E5D6980EC9B77235 DUP3 PUSH1 0x40 MLOAD PUSH2 0x146 SWAP2 SWAP1 PUSH2 0x97E JUMP JUMPDEST PUSH1 0x40 MLOAD DUP1 SWAP2 SUB SWAP1 LOG1 PUSH0 JUMPDEST DUP3 DUP2 LT ISZERO PUSH2 0x293 JUMPI PUSH0 DUP5 DUP3 PUSH2 0x165 SWAP2 SWAP1 PUSH2 0x997 JUMP JUMPDEST SWAP1 POP PUSH0 DUP6 DUP3 PUSH2 0x174 SWAP2 SWAP1 PUSH2 0x8AC JUMP JUMPDEST SWAP1 POP DUP8 MLOAD DUP2 GT ISZERO PUSH2 0x184 JUMPI DUP8 MLOAD SWAP1 POP JUMPDEST PUSH0 DUP3 DUP3 PUSH2 0x191 SWAP2 SWAP1 PUSH2 0x8DF JUMP JUMPDEST PUSH8 0xFFFFFFFFFFFFFFFF DUP2 GT ISZERO PUSH2 0x1AA JUMPI PUSH2 0x1A9 PUSH2 0x425 JUMP JUMPDEST JUMPDEST PUSH1 0x40 MLOAD SWAP1 DUP1 DUP3 MSTORE DUP1 PUSH1 0x1F ADD PUSH1 0x1F NOT AND PUSH1 0x20 ADD DUP3 ADD PUSH1 0x40 MSTORE DUP1 ISZERO PUSH2 0x1DC JUMPI DUP2 PUSH1 0x20 ADD PUSH1 0x1 DUP3 MUL DUP1 CALLDATASIZE DUP4 CALLDATACOPY DUP1 DUP3 ADD SWAP2 POP POP SWAP1 POP JUMPDEST POP SWAP1 POP PUSH0 DUP4 SWAP1 POP JUMPDEST DUP3 DUP2 LT ISZERO PUSH2 0x263 JUMPI DUP10 DUP2 DUP2 MLOAD DUP2 LT PUSH2 0x1FF JUMPI PUSH2 0x1FE PUSH2 0x9D8 JUMP JUMPDEST JUMPDEST PUSH1 0x20 ADD ADD MLOAD PUSH1 0xF8 SHR PUSH1 0xF8 SHL DUP3 DUP6 DUP4 PUSH2 0x217 SWAP2 SWAP1 PUSH2 0x8DF JUMP JUMPDEST DUP2 MLOAD DUP2 LT PUSH2 0x228 JUMPI PUSH2 0x227 PUSH2 0x9D8 JUMP JUMPDEST JUMPDEST PUSH1 0x20 ADD ADD SWAP1 PUSH31 0xFFFFFFFFFFFFFFFFFFFFFFFFFFFFFFFFFFFFFFFFFFFFFFFFFFFFFFFFFFFFFF NOT AND SWAP1 DUP2 PUSH0 BYTE SWAP1 MSTORE8 POP DUP1 DUP1 PUSH1 0x1 ADD SWAP2 POP POP PUSH2 0x1E4 JUMP JUMPDEST POP DUP1 DUP6 DUP6 DUP2 MLOAD DUP2 LT PUSH2 0x278 JUMPI PUSH2 0x277 PUSH2 0x9D8 JUMP JUMPDEST JUMPDEST PUSH1 0x20 MUL PUSH1 0x20 ADD ADD DUP2 SWAP1 MSTORE POP POP POP POP DUP1 DUP1 PUSH1 0x1 ADD SWAP2 POP POP PUSH2 0x150 JUMP JUMPDEST POP DUP1 SWAP4 POP POP POP POP SWAP2 SWAP1 POP JUMP JUMPDEST PUSH1 0x60 PUSH0 DUP1 JUMPDEST DUP4 MLOAD DUP2 LT ISZERO PUSH2 0x2E3 JUMPI DUP4 DUP2 DUP2 MLOAD DUP2 LT PUSH2 0x2C0 JUMPI PUSH2 0x2BF PUSH2 0x9D8 JUMP JUMPDEST JUMPDEST PUSH1 0x20 MUL PUSH1 0x20 ADD ADD MLOAD MLOAD DUP3 PUSH2 0x2D4 SWAP2 SWAP1 PUSH2 0x8AC JUMP JUMPDEST SWAP2 POP DUP1 DUP1 PUSH1 0x1 ADD SWAP2 POP POP PUSH2 0x2A4 JUMP JUMPDEST POP PUSH0 DUP2 PUSH8 0xFFFFFFFFFFFFFFFF DUP2 GT ISZERO PUSH2 0x2FF JUMPI PUSH2 0x2FE PUSH2 0x425 JUMP JUMPDEST JUMPDEST PUSH1 0x40 MLOAD SWAP1 DUP1 DUP3 MSTORE DUP1 PUSH1 0x1F ADD PUSH1 0x1F NOT AND PUSH1 0x20 ADD DUP3 ADD PUSH1 0x40 MSTORE DUP1 ISZERO PUSH2 0x331 JUMPI DUP2 PUSH1 0x20 ADD PUSH1 0x1 DUP3 MUL DUP1 CALLDATASIZE DUP4 CALLDATACOPY DUP1 DUP3 ADD SWAP2 POP POP SWAP1 POP JUMPDEST POP SWAP1 POP PUSH0 DUP1 JUMPDEST DUP6 MLOAD DUP2 LT ISZERO PUSH2 0x3F0 JUMPI PUSH0 DUP7 DUP3 DUP2 MLOAD DUP2 LT PUSH2 0x354 JUMPI PUSH2 0x353 PUSH2 0x9D8 JUMP JUMPDEST JUMPDEST PUSH1 0x20 MUL PUSH1 0x20 ADD ADD MLOAD SWAP1 POP PUSH0 JUMPDEST DUP2 MLOAD DUP2 LT ISZERO PUSH2 0x3E1 JUMPI DUP2 DUP2 DUP2 MLOAD DUP2 LT PUSH2 0x37C JUMPI PUSH2 0x37B PUSH2 0x9D8 JUMP JUMPDEST JUMPDEST PUSH1 0x20 ADD ADD MLOAD PUSH1 0xF8 SHR PUSH1 0xF8 SHL DUP6 DUP6 DUP1 PUSH2 0x393 SWAP1 PUSH2 0xA05 JUMP JUMPDEST SWAP7 POP DUP2 MLOAD DUP2 LT PUSH2 0x3A6 JUMPI PUSH2 0x3A5 PUSH2 0x9D8 JUMP JUMPDEST JUMPDEST PUSH1 0x20 ADD ADD SWAP1 PUSH31 0xFFFFFFFFFFFFFFFFFFFFFFFFFFFFFFFFFFFFFFFFFFFFFFFFFFFFFFFFFFFFFF NOT AND SWAP1 DUP2 PUSH0 BYTE SWAP1 MSTORE8 POP DUP1 DUP1 PUSH1 0x1 ADD SWAP2 POP POP PUSH2 0x360 JUMP JUMPDEST POP POP DUP1 DUP1 PUSH1 0x1 ADD SWAP2 POP POP PUSH2 0x337 JUMP JUMPDEST POP DUP2 SWAP4 POP POP POP POP SWAP2 SWAP1 POP JUMP JUMPDEST PUSH0 PUSH1 0x40 MLOAD SWAP1 POP SWAP1 JUMP JUMPDEST PUSH0 DUP1 REVERT JUMPDEST PUSH0 DUP1 REVERT JUMPDEST PUSH0 DUP1 REVERT JUMPDEST PUSH0 DUP1 REVERT JUMPDEST PUSH0 PUSH1 0x1F NOT PUSH1 0x1F DUP4 ADD AND SWAP1 POP SWAP2 SWAP1 POP JUMP JUMPDEST PUSH32 0x4E487B7100000000000000000000000000000000000000000000000000000000 PUSH0 MSTORE PUSH1 0x41 PUSH1 0x4 MSTORE PUSH1 0x24 PUSH0 REVERT JUMPDEST PUSH2 0x45B DUP3 PUSH2 0x415 JUMP JUMPDEST DUP2 ADD DUP2 DUP2 LT PUSH8 0xFFFFFFFFFFFFFFFF DUP3 GT OR ISZERO PUSH2 0x47A JUMPI PUSH2 0x479 PUSH2 0x425 JUMP JUMPDEST JUMPDEST DUP1 PUSH1 0x40 MSTORE POP POP POP JUMP JUMPDEST PUSH0 PUSH2 0x48C PUSH2 0x3FC JUMP JUMPDEST SWAP1 POP PUSH2 0x498 DUP3 DUP3 PUSH2 0x452 JUMP JUMPDEST SWAP2 SWAP1 POP JUMP JUMPDEST PUSH0 PUSH8 0xFFFFFFFFFFFFFFFF DUP3 GT ISZERO PUSH2 0x4B7 JUMPI PUSH2 0x4B6 PUSH2 0x425 JUMP JUMPDEST JUMPDEST PUSH2 0x4C0 DUP3 PUSH2 0x415 JUMP JUMPDEST SWAP1 POP PUSH1 0x20 DUP2 ADD SWAP1 POP SWAP2 SWAP1 POP JUMP JUMPDEST DUP3 DUP2 DUP4 CALLDATACOPY PUSH0 DUP4 DUP4 ADD MSTORE POP POP POP JUMP JUMPDEST PUSH0 PUSH2 0x4ED PUSH2 0x4E8 DUP5 PUSH2 0x49D JUMP JUMPDEST PUSH2 0x483 JUMP JUMPDEST SWAP1 POP DUP3 DUP2 MSTORE PUSH1 0x20 DUP2 ADD DUP5 DUP5 DUP5 ADD GT ISZERO PUSH2 0x509 JUMPI PUSH2 0x508 PUSH2 0x411 JUMP JUMPDEST JUMPDEST PUSH2 0x514 DUP5 DUP3 DUP6 PUSH2 0x4CD JUMP JUMPDEST POP SWAP4 SWAP3 POP POP POP JUMP JUMPDEST PUSH0 DUP3 PUSH1 0x1F DUP4 ADD SLT PUSH2 0x530 JUMPI PUSH2 0x52F PUSH2 0x40D JUMP JUMPDEST JUMPDEST DUP2 CALLDATALOAD PUSH2 0x540 DUP5 DUP3 PUSH1 0x20 DUP7 ADD PUSH2 0x4DB JUMP JUMPDEST SWAP2 POP POP SWAP3 SWAP2 POP POP JUMP JUMPDEST PUSH0 PUSH1 0x20 DUP3 DUP5 SUB SLT ISZERO PUSH2 0x55E JUMPI PUSH2 0x55D PUSH2 0x405 JUMP JUMPDEST JUMPDEST PUSH0 DUP3 ADD CALLDATALOAD PUSH8 0xFFFFFFFFFFFFFFFF DUP2 GT ISZERO PUSH2 0x57B JUMPI PUSH2 0x57A PUSH2 0x409 JUMP JUMPDEST JUMPDEST PUSH2 0x587 DUP5 DUP3 DUP6 ADD PUSH2 0x51C JUMP JUMPDEST SWAP2 POP POP SWAP3 SWAP2 POP POP JUMP JUMPDEST PUSH0 DUP2 MLOAD SWAP1 POP SWAP2 SWAP1 POP JUMP JUMPDEST PUSH0 DUP3 DUP3 MSTORE PUSH1 0x20 DUP3 ADD SWAP1 POP SWAP3 SWAP2 POP POP JUMP JUMPDEST PUSH0 DUP2 SWAP1 POP PUSH1 0x20 DUP3 ADD SWAP1 POP SWAP2 SWAP1 POP JUMP JUMPDEST PUSH0 DUP2 MLOAD SWAP1 POP SWAP2 SWAP1 POP JUMP JUMPDEST PUSH0 DUP3 DUP3 MSTORE PUSH1 0x20 DUP3 ADD SWAP1 POP SWAP3 SWAP2 POP POP JUMP JUMPDEST PUSH0 JUMPDEST DUP4 DUP2 LT ISZERO PUSH2 0x5F0 JUMPI DUP1 DUP3 ADD MLOAD DUP2 DUP5 ADD MSTORE PUSH1 0x20 DUP2 ADD SWAP1 POP PUSH2 0x5D5 JUMP JUMPDEST PUSH0 DUP5 DUP5 ADD MSTORE POP POP POP POP JUMP JUMPDEST PUSH0 PUSH2 0x605 DUP3 PUSH2 0x5B9 JUMP JUMPDEST PUSH2 0x60F DUP2 DUP6 PUSH2 0x5C3 JUMP JUMPDEST SWAP4 POP PUSH2 0x61F DUP2 DUP6 PUSH1 0x20 DUP7 ADD PUSH2 0x5D3 JUMP JUMPDEST PUSH2 0x628 DUP2 PUSH2 0x415 JUMP JUMPDEST DUP5 ADD SWAP2 POP POP SWAP3 SWAP2 POP POP JUMP JUMPDEST PUSH0 PUSH2 0x63E DUP4 DUP4 PUSH2 0x5FB JUMP JUMPDEST SWAP1 POP SWAP3 SWAP2 POP POP JUMP JUMPDEST PUSH0 PUSH1 0x20 DUP3 ADD SWAP1 POP SWAP2 SWAP1 POP JUMP JUMPDEST PUSH0 PUSH2 0x65C DUP3 PUSH2 0x590 JUMP JUMPDEST PUSH2 0x666 DUP2 DUP6 PUSH2 0x59A JUMP JUMPDEST SWAP4 POP DUP4 PUSH1 0x20 DUP3 MUL DUP6 ADD PUSH2 0x678 DUP6 PUSH2 0x5AA JUMP JUMPDEST DUP1 PUSH0 JUMPDEST DUP6 DUP2 LT ISZERO PUSH2 0x6B3 JUMPI DUP5 DUP5 SUB DUP10 MSTORE DUP2 MLOAD PUSH2 0x694 DUP6 DUP3 PUSH2 0x633 JUMP JUMPDEST SWAP5 POP PUSH2 0x69F DUP4 PUSH2 0x646 JUMP JUMPDEST SWAP3 POP PUSH1 0x20 DUP11 ADD SWAP10 POP POP PUSH1 0x1 DUP2 ADD SWAP1 POP PUSH2 0x67B JUMP JUMPDEST POP DUP3 SWAP8 POP DUP8 SWAP6 POP POP POP POP POP POP SWAP3 SWAP2 POP POP JUMP JUMPDEST PUSH0 PUSH1 0x20 DUP3 ADD SWAP1 POP DUP2 DUP2 SUB PUSH0 DUP4 ADD MSTORE PUSH2 0x6DD DUP2 DUP5 PUSH2 0x652 JUMP JUMPDEST SWAP1 POP SWAP3 SWAP2 POP POP JUMP JUMPDEST PUSH0 PUSH8 0xFFFFFFFFFFFFFFFF DUP3 GT ISZERO PUSH2 0x6FF JUMPI PUSH2 0x6FE PUSH2 0x425 JUMP JUMPDEST JUMPDEST PUSH1 0x20 DUP3 MUL SWAP1 POP PUSH1 0x20 DUP2 ADD SWAP1 POP SWAP2 SWAP1 POP JUMP JUMPDEST PUSH0 DUP1 REVERT JUMPDEST PUSH0 PUSH2 0x726 PUSH2 0x721 DUP5 PUSH2 0x6E5 JUMP JUMPDEST PUSH2 0x483 JUMP JUMPDEST SWAP1 POP DUP1 DUP4 DUP3 MSTORE PUSH1 0x20 DUP3 ADD SWAP1 POP PUSH1 0x20 DUP5 MUL DUP4 ADD DUP6 DUP2 GT ISZERO PUSH2 0x749 JUMPI PUSH2 0x748 PUSH2 0x710 JUMP JUMPDEST JUMPDEST DUP4 JUMPDEST DUP2 DUP2 LT ISZERO PUSH2 0x790 JUMPI DUP1 CALLDATALOAD PUSH8 0xFFFFFFFFFFFFFFFF DUP2 GT ISZERO PUSH2 0x76E JUMPI PUSH2 0x76D PUSH2 0x40D JUMP JUMPDEST JUMPDEST DUP1 DUP7 ADD PUSH2 0x77B DUP10 DUP3 PUSH2 0x51C JUMP JUMPDEST DUP6 MSTORE PUSH1 0x20 DUP6 ADD SWAP5 POP POP POP PUSH1 0x20 DUP2 ADD SWAP1 POP PUSH2 0x74B JUMP JUMPDEST POP POP POP SWAP4 SWAP3 POP POP POP JUMP JUMPDEST PUSH0 DUP3 PUSH1 0x1F DUP4 ADD SLT PUSH2 0x7AE JUMPI PUSH2 0x7AD PUSH2 0x40D JUMP JUMPDEST JUMPDEST DUP2 CALLDATALOAD PUSH2 0x7BE DUP5 DUP3 PUSH1 0x20 DUP7 ADD PUSH2 0x714 JUMP JUMPDEST SWAP2 POP POP SWAP3 SWAP2 POP POP JUMP JUMPDEST PUSH0 PUSH1 0x20 DUP3 DUP5 SUB SLT ISZERO PUSH2 0x7DC JUMPI PUSH2 0x7DB PUSH2 0x405 JUMP JUMPDEST JUMPDEST PUSH0 DUP3 ADD CALLDATALOAD PUSH8 0xFFFFFFFFFFFFFFFF DUP2 GT ISZERO PUSH2 0x7F9 JUMPI PUSH2 0x7F8 PUSH2 0x409 JUMP JUMPDEST JUMPDEST PUSH2 0x805 DUP5 DUP3 DUP6 ADD PUSH2 0x79A JUMP JUMPDEST SWAP2 POP POP SWAP3 SWAP2 POP POP JUMP JUMPDEST PUSH0 DUP3 DUP3 MSTORE PUSH1 0x20 DUP3 ADD SWAP1 POP SWAP3 SWAP2 POP POP JUMP JUMPDEST PUSH0 PUSH2 0x828 DUP3 PUSH2 0x5B9 JUMP JUMPDEST PUSH2 0x832 DUP2 DUP6 PUSH2 0x80E JUMP JUMPDEST SWAP4 POP PUSH2 0x842 DUP2 DUP6 PUSH1 0x20 DUP7 ADD PUSH2 0x5D3 JUMP JUMPDEST PUSH2 0x84B DUP2 PUSH2 0x415 JUMP JUMPDEST DUP5 ADD SWAP2 POP POP SWAP3 SWAP2 POP POP JUMP JUMPDEST PUSH0 PUSH1 0x20 DUP3 ADD SWAP1 POP DUP2 DUP2 SUB PUSH0 DUP4 ADD MSTORE PUSH2 0x86E DUP2 DUP5 PUSH2 0x81E JUMP JUMPDEST SWAP1 POP SWAP3 SWAP2 POP POP JUMP JUMPDEST PUSH0 DUP2 SWAP1 POP SWAP2 SWAP1 POP JUMP JUMPDEST PUSH32 0x4E487B7100000000000000000000000000000000000000000000000000000000 PUSH0 MSTORE PUSH1 0x11 PUSH1 0x4 MSTORE PUSH1 0x24 PUSH0 REVERT JUMPDEST PUSH0 PUSH2 0x8B6 DUP3 PUSH2 0x876 JUMP JUMPDEST SWAP2 POP PUSH2 0x8C1 DUP4 PUSH2 0x876 JUMP JUMPDEST SWAP3 POP DUP3 DUP3 ADD SWAP1 POP DUP1 DUP3 GT ISZERO PUSH2 0x8D9 JUMPI PUSH2 0x8D8 PUSH2 0x87F JUMP JUMPDEST JUMPDEST SWAP3 SWAP2 POP POP JUMP JUMPDEST PUSH0 PUSH2 0x8E9 DUP3 PUSH2 0x876 JUMP JUMPDEST SWAP2 POP PUSH2 0x8F4 DUP4 PUSH2 0x876 JUMP JUMPDEST SWAP3 POP DUP3 DUP3 SUB SWAP1 POP DUP2 DUP2 GT ISZERO PUSH2 0x90C JUMPI PUSH2 0x90B PUSH2 0x87F JUMP JUMPDEST JUMPDEST SWAP3 SWAP2 POP POP JUMP JUMPDEST PUSH32 0x4E487B7100000000000000000000000000000000000000000000000000000000 PUSH0 MSTORE PUSH1 0x12 PUSH1 0x4 MSTORE PUSH1 0x24 PUSH0 REVERT JUMPDEST PUSH0 PUSH2 0x949 DUP3 PUSH2 0x876 JUMP JUMPDEST SWAP2 POP PUSH2 0x954 DUP4 PUSH2 0x876 JUMP JUMPDEST SWAP3 POP DUP3 PUSH2 0x964 JUMPI PUSH2 0x963 PUSH2 0x912 JUMP JUMPDEST JUMPDEST DUP3 DUP3 DIV SWAP1 POP SWAP3 SWAP2 POP POP JUMP JUMPDEST PUSH2 0x978 DUP2 PUSH2 0x876 JUMP JUMPDEST DUP3 MSTORE POP POP JUMP JUMPDEST PUSH0 PUSH1 0x20 DUP3 ADD SWAP1 POP PUSH2 0x991 PUSH0 DUP4 ADD DUP5 PUSH2 0x96F JUMP JUMPDEST SWAP3 SWAP2 POP POP JUMP JUMPDEST PUSH0 PUSH2 0x9A1 DUP3 PUSH2 0x876 JUMP JUMPDEST SWAP2 POP PUSH2 0x9AC DUP4 PUSH2 0x876 JUMP JUMPDEST SWAP3 POP DUP3 DUP3 MUL PUSH2 0x9BA DUP2 PUSH2 0x876 JUMP JUMPDEST SWAP2 POP DUP3 DUP3 DIV DUP5 EQ DUP4 ISZERO OR PUSH2 0x9D1 JUMPI PUSH2 0x9D0 PUSH2 0x87F JUMP JUMPDEST JUMPDEST POP SWAP3 SWAP2 POP POP JUMP JUMPDEST PUSH32 0x4E487B7100000000000000000000000000000000000000000000000000000000 PUSH0 MSTORE PUSH1 0x32 PUSH1 0x4 MSTORE PUSH1 0x24 PUSH0 REVERT JUMPDEST PUSH0 PUSH2 0xA0F DUP3 PUSH2 0x876 JUMP JUMPDEST SWAP2 POP PUSH32 0xFFFFFFFFFFFFFFFFFFFFFFFFFFFFFFFFFFFFFFFFFFFFFFFFFFFFFFFFFFFFFFFF DUP3 SUB PUSH2 0xA41 JUMPI PUSH2 0xA40 PUSH2 0x87F JUMP JUMPDEST JUMPDEST PUSH1 0x1 DUP3 ADD SWAP1 POP SWAP2 SWAP1 POP JUMP INVALID LOG2 PUSH5 0x6970667358 0x22 SLT KECCAK256 0xE EXP 0xBF SWAP16 0xCA EXTCODESIZE 0xCF SWAP6 0xBD PUSH10 0x71EC696875647D0A9847 SSTORE REVERT DUP7 0xD5 EXTCODECOPY DUP1 MSIZE SWAP11 CALLER EXTCODECOPY EXTCODECOPY 0xD3 PUSH5 0x736F6C6343 STOP ADDMOD AND STOP CALLER "
				},
				"gasEstimates": {
					"creation": {
						"codeDepositCost": "538000",
						"executionCost": "573",
						"totalCost": "538573"
					},
					"external": {
						"chunkContent(string)": "infinite",
						"concatenateChunks(string[])": "infinite"
					}
				},
				"methodIdentifiers": {
					"chunkContent(string)": "1f37bdd2",
					"concatenateChunks(string[])": "57d7f21f"
				}
			},
			"storageLayout": {
				"storage": [],
				"types": null
			},
			"userdoc": {
				"kind": "user",
				"methods": {},
				"version": 1
			}
		}
	}
}