{
	"contracts/_FileStorage.sol": {
		"FileStorageManager": {
			"abi": [
				{
					"inputs": [],
					"stateMutability": "nonpayable",
					"type": "constructor"
				},
				{
					"inputs": [
						{
							"internalType": "address",
							"name": "_nodeAddress",
							"type": "address"
						},
						{
							"internalType": "uint256",
							"name": "_initialStorage",
							"type": "uint256"
						}
					],
					"name": "addNode",
					"outputs": [],
					"stateMutability": "nonpayable",
					"type": "function"
				},
				{
					"inputs": [
						{
							"internalType": "uint256",
							"name": "",
							"type": "uint256"
						}
					],
					"name": "allNodes",
					"outputs": [
						{
							"internalType": "address",
							"name": "",
							"type": "address"
						}
					],
					"stateMutability": "view",
					"type": "function"
				},
				{
					"inputs": [
						{
							"internalType": "address",
							"name": "_nodeAddress",
							"type": "address"
						},
						{
							"internalType": "string",
							"name": "_fileId",
							"type": "string"
						}
					],
					"name": "deleteChunkInNode",
					"outputs": [
						{
							"internalType": "string",
							"name": "",
							"type": "string"
						}
					],
					"stateMutability": "view",
					"type": "function"
				},
				{
					"inputs": [
						{
							"internalType": "string",
							"name": "fileId",
							"type": "string"
						}
					],
					"name": "deleteFile",
					"outputs": [],
					"stateMutability": "nonpayable",
					"type": "function"
				},
				{
					"inputs": [],
					"name": "getAllNodes",
					"outputs": [
						{
							"internalType": "address[]",
							"name": "",
							"type": "address[]"
						}
					],
					"stateMutability": "view",
					"type": "function"
				},
				{
					"inputs": [
						{
							"internalType": "address",
							"name": "_nodeAddress",
							"type": "address"
						}
					],
					"name": "getNodeByAddress",
					"outputs": [
						{
							"components": [
								{
									"internalType": "address",
									"name": "nodeAddress",
									"type": "address"
								},
								{
									"internalType": "uint256",
									"name": "availableStorage",
									"type": "uint256"
								}
							],
							"internalType": "struct NodeManager.Node",
							"name": "",
							"type": "tuple"
						}
					],
					"stateMutability": "view",
					"type": "function"
				},
				{
					"inputs": [
						{
							"internalType": "address",
							"name": "",
							"type": "address"
						}
					],
					"name": "nodes",
					"outputs": [
						{
							"internalType": "address",
							"name": "nodeAddress",
							"type": "address"
						},
						{
							"internalType": "uint256",
							"name": "availableStorage",
							"type": "uint256"
						}
					],
					"stateMutability": "view",
					"type": "function"
				},
				{
					"inputs": [],
					"name": "owner",
					"outputs": [
						{
							"internalType": "address",
							"name": "",
							"type": "address"
						}
					],
					"stateMutability": "view",
					"type": "function"
				},
				{
					"inputs": [
						{
							"internalType": "address",
							"name": "_nodeAddress",
							"type": "address"
						},
						{
							"internalType": "string",
							"name": "_fileId",
							"type": "string"
						}
					],
					"name": "retrieveChunkInNode",
					"outputs": [
						{
							"internalType": "string",
							"name": "",
							"type": "string"
						}
					],
					"stateMutability": "view",
					"type": "function"
				},
				{
					"inputs": [
						{
							"internalType": "string",
							"name": "fileId",
							"type": "string"
						}
					],
					"name": "retrieveFile",
					"outputs": [
						{
							"internalType": "string",
							"name": "",
							"type": "string"
						}
					],
					"stateMutability": "view",
					"type": "function"
				},
				{
					"inputs": [
						{
							"internalType": "address",
							"name": "_nodeAddress",
							"type": "address"
						},
						{
							"internalType": "string",
							"name": "_chunk",
							"type": "string"
						}
					],
					"name": "storeChunkInNode",
					"outputs": [],
					"stateMutability": "nonpayable",
					"type": "function"
				},
				{
					"inputs": [
						{
							"internalType": "string",
							"name": "fileName",
							"type": "string"
						},
						{
							"internalType": "string",
							"name": "content",
							"type": "string"
						},
						{
							"internalType": "string",
							"name": "uniqueId",
							"type": "string"
						}
					],
					"name": "storeFile",
					"outputs": [],
					"stateMutability": "nonpayable",
					"type": "function"
				},
				{
					"inputs": [
						{
							"internalType": "address",
							"name": "_nodeAddress",
							"type": "address"
						},
						{
							"internalType": "uint256",
							"name": "_newStorage",
							"type": "uint256"
						}
					],
					"name": "updateAvailableStorage",
					"outputs": [],
					"stateMutability": "nonpayable",
					"type": "function"
				}
			],
			"devdoc": {
				"kind": "dev",
				"methods": {},
				"version": 1
			},
			"evm": {
				"assembly": "    /* \"contracts/_FileStorage.sol\":127:3106  contract FileStorageManager is ChunkManager, NodeManager {... */\n  mstore(0x40, 0x80)\n    /* \"contracts/_FileStorage.sol\":639:704  constructor() NodeManager() {... */\n  callvalue\n  dup1\n  iszero\n  tag_1\n  jumpi\n  0x00\n  dup1\n  revert\ntag_1:\n  pop\n    /* \"contracts/_FileStorage.sol\":686:696  msg.sender */\n  caller\n    /* \"contracts/_FileStorage.sol\":678:683  owner */\n  0x02\n  0x00\n    /* \"contracts/_FileStorage.sol\":678:696  owner = msg.sender */\n  0x0100\n  exp\n  dup2\n  sload\n  dup2\n  0xffffffffffffffffffffffffffffffffffffffff\n  mul\n  not\n  and\n  swap1\n  dup4\n  0xffffffffffffffffffffffffffffffffffffffff\n  and\n  mul\n  or\n  swap1\n  sstore\n  pop\n    /* \"contracts/_FileStorage.sol\":127:3106  contract FileStorageManager is ChunkManager, NodeManager {... */\n  dataSize(sub_0)\n  dup1\n  dataOffset(sub_0)\n  0x00\n  codecopy\n  0x00\n  return\nstop\n\nsub_0: assembly {\n        /* \"contracts/_FileStorage.sol\":127:3106  contract FileStorageManager is ChunkManager, NodeManager {... */\n      mstore(0x40, 0x80)\n      callvalue\n      dup1\n      iszero\n      tag_1\n      jumpi\n      0x00\n      dup1\n      revert\n    tag_1:\n      pop\n      jumpi(tag_2, lt(calldatasize, 0x04))\n      shr(0xe0, calldataload(0x00))\n      dup1\n      0x8da5cb5b\n      gt\n      tag_16\n      jumpi\n      dup1\n      0xa9910054\n      gt\n      tag_17\n      jumpi\n      dup1\n      0xa9910054\n      eq\n      tag_12\n      jumpi\n      dup1\n      0xb49f33c8\n      eq\n      tag_13\n      jumpi\n      dup1\n      0xb65814a6\n      eq\n      tag_14\n      jumpi\n      dup1\n      0xfe72ae13\n      eq\n      tag_15\n      jumpi\n      jump(tag_2)\n    tag_17:\n      dup1\n      0x8da5cb5b\n      eq\n      tag_9\n      jumpi\n      dup1\n      0xa1174e7d\n      eq\n      tag_10\n      jumpi\n      dup1\n      0xa9860308\n      eq\n      tag_11\n      jumpi\n      jump(tag_2)\n    tag_16:\n      dup1\n      0x11bd77fe\n      eq\n      tag_3\n      jumpi\n      dup1\n      0x189a5a17\n      eq\n      tag_4\n      jumpi\n      dup1\n      0x2804401c\n      eq\n      tag_5\n      jumpi\n      dup1\n      0x2a85be1e\n      eq\n      tag_6\n      jumpi\n      dup1\n      0x50f1c985\n      eq\n      tag_7\n      jumpi\n      dup1\n      0x7dd77d2b\n      eq\n      tag_8\n      jumpi\n    tag_2:\n      0x00\n      dup1\n      revert\n        /* \"contracts/_NodeManager.sol\":263:536  function addNode(address _nodeAddress, uint256 _initialStorage) public {... */\n    tag_3:\n      tag_18\n      0x04\n      dup1\n      calldatasize\n      sub\n      dup2\n      add\n      swap1\n      tag_19\n      swap2\n      swap1\n      tag_20\n      jump\t// in\n    tag_19:\n      tag_21\n      jump\t// in\n    tag_18:\n      stop\n        /* \"contracts/_NodeManager.sol\":185:222  mapping(address => Node) public nodes */\n    tag_4:\n      tag_22\n      0x04\n      dup1\n      calldatasize\n      sub\n      dup2\n      add\n      swap1\n      tag_23\n      swap2\n      swap1\n      tag_24\n      jump\t// in\n    tag_23:\n      tag_25\n      jump\t// in\n    tag_22:\n      mload(0x40)\n      tag_26\n      swap3\n      swap2\n      swap1\n      tag_27\n      jump\t// in\n    tag_26:\n      mload(0x40)\n      dup1\n      swap2\n      sub\n      swap1\n      return\n        /* \"contracts/_FileStorage.sol\":1727:2438  function retrieveFile(string memory fileId) public view returns (string memory) {... */\n    tag_5:\n      tag_28\n      0x04\n      dup1\n      calldatasize\n      sub\n      dup2\n      add\n      swap1\n      tag_29\n      swap2\n      swap1\n      tag_30\n      jump\t// in\n    tag_29:\n      tag_31\n      jump\t// in\n    tag_28:\n      mload(0x40)\n      tag_32\n      swap2\n      swap1\n      tag_33\n      jump\t// in\n    tag_32:\n      mload(0x40)\n      dup1\n      swap2\n      sub\n      swap1\n      return\n        /* \"contracts/_NodeManager.sol\":926:1089  function retrieveChunkInNode(address _nodeAddress, string memory _fileId) public view returns (string memory) {... */\n    tag_6:\n      tag_34\n      0x04\n      dup1\n      calldatasize\n      sub\n      dup2\n      add\n      swap1\n      tag_35\n      swap2\n      swap1\n      tag_36\n      jump\t// in\n    tag_35:\n      tag_37\n      jump\t// in\n    tag_34:\n      mload(0x40)\n      tag_38\n      swap2\n      swap1\n      tag_33\n      jump\t// in\n    tag_38:\n      mload(0x40)\n      dup1\n      swap2\n      sub\n      swap1\n      return\n        /* \"contracts/_NodeManager.sol\":1097:1256  function deleteChunkInNode(address _nodeAddress, string memory _fileId) public view returns (string memory) {... */\n    tag_7:\n      tag_39\n      0x04\n      dup1\n      calldatasize\n      sub\n      dup2\n      add\n      swap1\n      tag_40\n      swap2\n      swap1\n      tag_36\n      jump\t// in\n    tag_40:\n      tag_41\n      jump\t// in\n    tag_39:\n      mload(0x40)\n      tag_42\n      swap2\n      swap1\n      tag_33\n      jump\t// in\n    tag_42:\n      mload(0x40)\n      dup1\n      swap2\n      sub\n      swap1\n      return\n        /* \"contracts/_FileStorage.sol\":712:1719  function storeFile(string memory fileName, string memory content, string memory uniqueId) public {... */\n    tag_8:\n      tag_43\n      0x04\n      dup1\n      calldatasize\n      sub\n      dup2\n      add\n      swap1\n      tag_44\n      swap2\n      swap1\n      tag_45\n      jump\t// in\n    tag_44:\n      tag_46\n      jump\t// in\n    tag_43:\n      stop\n        /* \"contracts/_FileStorage.sol\":191:211  address public owner */\n    tag_9:\n      tag_47\n      tag_48\n      jump\t// in\n    tag_47:\n      mload(0x40)\n      tag_49\n      swap2\n      swap1\n      tag_50\n      jump\t// in\n    tag_49:\n      mload(0x40)\n      dup1\n      swap2\n      sub\n      swap1\n      return\n        /* \"contracts/_NodeManager.sol\":1264:1360  function getAllNodes() public view returns (address[] memory) {... */\n    tag_10:\n      tag_51\n      tag_52\n      jump\t// in\n    tag_51:\n      mload(0x40)\n      tag_53\n      swap2\n      swap1\n      tag_54\n      jump\t// in\n    tag_53:\n      mload(0x40)\n      dup1\n      swap2\n      sub\n      swap1\n      return\n        /* \"contracts/_NodeManager.sol\":1368:1495  function getNodeByAddress(address _nodeAddress) public view returns (Node memory) {... */\n    tag_11:\n      tag_55\n      0x04\n      dup1\n      calldatasize\n      sub\n      dup2\n      add\n      swap1\n      tag_56\n      swap2\n      swap1\n      tag_24\n      jump\t// in\n    tag_56:\n      tag_57\n      jump\t// in\n    tag_55:\n      mload(0x40)\n      tag_58\n      swap2\n      swap1\n      tag_59\n      jump\t// in\n    tag_58:\n      mload(0x40)\n      dup1\n      swap2\n      sub\n      swap1\n      return\n        /* \"contracts/_FileStorage.sol\":2446:3103  function deleteFile(string memory fileId) public {... */\n    tag_12:\n      tag_60\n      0x04\n      dup1\n      calldatasize\n      sub\n      dup2\n      add\n      swap1\n      tag_61\n      swap2\n      swap1\n      tag_30\n      jump\t// in\n    tag_61:\n      tag_62\n      jump\t// in\n    tag_60:\n      stop\n        /* \"contracts/_NodeManager.sol\":544:783  function updateAvailableStorage(address _nodeAddress, uint256 _newStorage) public {... */\n    tag_13:\n      tag_63\n      0x04\n      dup1\n      calldatasize\n      sub\n      dup2\n      add\n      swap1\n      tag_64\n      swap2\n      swap1\n      tag_20\n      jump\t// in\n    tag_64:\n      tag_65\n      jump\t// in\n    tag_63:\n      stop\n        /* \"contracts/_NodeManager.sol\":791:918  function storeChunkInNode(address _nodeAddress, string memory _chunk) public {... */\n    tag_14:\n      tag_66\n      0x04\n      dup1\n      calldatasize\n      sub\n      dup2\n      add\n      swap1\n      tag_67\n      swap2\n      swap1\n      tag_36\n      jump\t// in\n    tag_67:\n      tag_68\n      jump\t// in\n    tag_66:\n      stop\n        /* \"contracts/_NodeManager.sol\":229:254  address[] public allNodes */\n    tag_15:\n      tag_69\n      0x04\n      dup1\n      calldatasize\n      sub\n      dup2\n      add\n      swap1\n      tag_70\n      swap2\n      swap1\n      tag_71\n      jump\t// in\n    tag_70:\n      tag_72\n      jump\t// in\n    tag_69:\n      mload(0x40)\n      tag_73\n      swap2\n      swap1\n      tag_50\n      jump\t// in\n    tag_73:\n      mload(0x40)\n      dup1\n      swap2\n      sub\n      swap1\n      return\n        /* \"contracts/_NodeManager.sol\":263:536  function addNode(address _nodeAddress, uint256 _initialStorage) public {... */\n    tag_21:\n        /* \"contracts/_NodeManager.sol\":396:397  0 */\n      0x00\n        /* \"contracts/_NodeManager.sol\":353:398  nodes[_nodeAddress].nodeAddress == address(0) */\n      0xffffffffffffffffffffffffffffffffffffffff\n      and\n        /* \"contracts/_NodeManager.sol\":353:358  nodes */\n      0x00\n        /* \"contracts/_NodeManager.sol\":353:372  nodes[_nodeAddress] */\n      dup1\n        /* \"contracts/_NodeManager.sol\":359:371  _nodeAddress */\n      dup5\n        /* \"contracts/_NodeManager.sol\":353:372  nodes[_nodeAddress] */\n      0xffffffffffffffffffffffffffffffffffffffff\n      and\n      0xffffffffffffffffffffffffffffffffffffffff\n      and\n      dup2\n      mstore\n      0x20\n      add\n      swap1\n      dup2\n      mstore\n      0x20\n      add\n      0x00\n      keccak256\n        /* \"contracts/_NodeManager.sol\":353:384  nodes[_nodeAddress].nodeAddress */\n      0x00\n      add\n      0x00\n      swap1\n      sload\n      swap1\n      0x0100\n      exp\n      swap1\n      div\n      0xffffffffffffffffffffffffffffffffffffffff\n      and\n        /* \"contracts/_NodeManager.sol\":353:398  nodes[_nodeAddress].nodeAddress == address(0) */\n      0xffffffffffffffffffffffffffffffffffffffff\n      and\n      eq\n        /* \"contracts/_NodeManager.sol\":345:422  require(nodes[_nodeAddress].nodeAddress == address(0), \"Node already exists\") */\n      tag_75\n      jumpi\n      mload(0x40)\n      0x08c379a000000000000000000000000000000000000000000000000000000000\n      dup2\n      mstore\n      0x04\n      add\n      tag_76\n      swap1\n      tag_77\n      jump\t// in\n    tag_76:\n      mload(0x40)\n      dup1\n      swap2\n      sub\n      swap1\n      revert\n    tag_75:\n        /* \"contracts/_NodeManager.sol\":455:490  Node(_nodeAddress, _initialStorage) */\n      mload(0x40)\n      dup1\n      0x40\n      add\n      0x40\n      mstore\n      dup1\n        /* \"contracts/_NodeManager.sol\":460:472  _nodeAddress */\n      dup4\n        /* \"contracts/_NodeManager.sol\":455:490  Node(_nodeAddress, _initialStorage) */\n      0xffffffffffffffffffffffffffffffffffffffff\n      and\n      dup2\n      mstore\n      0x20\n      add\n        /* \"contracts/_NodeManager.sol\":474:489  _initialStorage */\n      dup3\n        /* \"contracts/_NodeManager.sol\":455:490  Node(_nodeAddress, _initialStorage) */\n      dup2\n      mstore\n      pop\n        /* \"contracts/_NodeManager.sol\":433:438  nodes */\n      0x00\n        /* \"contracts/_NodeManager.sol\":433:452  nodes[_nodeAddress] */\n      dup1\n        /* \"contracts/_NodeManager.sol\":439:451  _nodeAddress */\n      dup5\n        /* \"contracts/_NodeManager.sol\":433:452  nodes[_nodeAddress] */\n      0xffffffffffffffffffffffffffffffffffffffff\n      and\n      0xffffffffffffffffffffffffffffffffffffffff\n      and\n      dup2\n      mstore\n      0x20\n      add\n      swap1\n      dup2\n      mstore\n      0x20\n      add\n      0x00\n      keccak256\n        /* \"contracts/_NodeManager.sol\":433:490  nodes[_nodeAddress] = Node(_nodeAddress, _initialStorage) */\n      0x00\n      dup3\n      add\n      mload\n      dup2\n      0x00\n      add\n      exp(0x0100, 0x00)\n      dup2\n      sload\n      dup2\n      0xffffffffffffffffffffffffffffffffffffffff\n      mul\n      not\n      and\n      swap1\n      dup4\n      0xffffffffffffffffffffffffffffffffffffffff\n      and\n      mul\n      or\n      swap1\n      sstore\n      pop\n      0x20\n      dup3\n      add\n      mload\n      dup2\n      0x01\n      add\n      sstore\n      swap1\n      pop\n      pop\n        /* \"contracts/_NodeManager.sol\":501:509  allNodes */\n      0x01\n        /* \"contracts/_NodeManager.sol\":515:527  _nodeAddress */\n      dup3\n        /* \"contracts/_NodeManager.sol\":501:528  allNodes.push(_nodeAddress) */\n      swap1\n      dup1\n      0x01\n      dup2\n      sload\n      add\n      dup1\n      dup3\n      sstore\n      dup1\n      swap2\n      pop\n      pop\n      0x01\n      swap1\n      sub\n      swap1\n      0x00\n      mstore\n      keccak256(0x00, 0x20)\n      add\n      0x00\n      swap1\n      swap2\n      swap1\n      swap2\n      swap1\n      swap2\n      0x0100\n      exp\n      dup2\n      sload\n      dup2\n      0xffffffffffffffffffffffffffffffffffffffff\n      mul\n      not\n      and\n      swap1\n      dup4\n      0xffffffffffffffffffffffffffffffffffffffff\n      and\n      mul\n      or\n      swap1\n      sstore\n      pop\n        /* \"contracts/_NodeManager.sol\":263:536  function addNode(address _nodeAddress, uint256 _initialStorage) public {... */\n      pop\n      pop\n      jump\t// out\n        /* \"contracts/_NodeManager.sol\":185:222  mapping(address => Node) public nodes */\n    tag_25:\n      mstore(0x20, 0x00)\n      dup1\n      0x00\n      mstore\n      keccak256(0x00, 0x40)\n      0x00\n      swap2\n      pop\n      swap1\n      pop\n      dup1\n      0x00\n      add\n      0x00\n      swap1\n      sload\n      swap1\n      0x0100\n      exp\n      swap1\n      div\n      0xffffffffffffffffffffffffffffffffffffffff\n      and\n      swap1\n      dup1\n      0x01\n      add\n      sload\n      swap1\n      pop\n      dup3\n      jump\t// out\n        /* \"contracts/_FileStorage.sol\":1727:2438  function retrieveFile(string memory fileId) public view returns (string memory) {... */\n    tag_31:\n        /* \"contracts/_FileStorage.sol\":1792:1805  string memory */\n      0x60\n        /* \"contracts/_FileStorage.sol\":1862:1863  0 */\n      0x00\n        /* \"contracts/_FileStorage.sol\":1826:1842  fileIdToMetadata */\n      0x03\n        /* \"contracts/_FileStorage.sol\":1843:1849  fileId */\n      dup4\n        /* \"contracts/_FileStorage.sol\":1826:1850  fileIdToMetadata[fileId] */\n      mload(0x40)\n      tag_80\n      swap2\n      swap1\n      tag_81\n      jump\t// in\n    tag_80:\n      swap1\n      dup2\n      mstore\n      0x20\n      add\n      mload(0x40)\n      dup1\n      swap2\n      sub\n      swap1\n      keccak256\n        /* \"contracts/_FileStorage.sol\":1826:1859  fileIdToMetadata[fileId].fileSize */\n      0x01\n      add\n      sload\n        /* \"contracts/_FileStorage.sol\":1826:1863  fileIdToMetadata[fileId].fileSize > 0 */\n      gt\n        /* \"contracts/_FileStorage.sol\":1818:1882  require(fileIdToMetadata[fileId].fileSize > 0, \"File not found\") */\n      tag_82\n      jumpi\n      mload(0x40)\n      0x08c379a000000000000000000000000000000000000000000000000000000000\n      dup2\n      mstore\n      0x04\n      add\n      tag_83\n      swap1\n      tag_84\n      jump\t// in\n    tag_83:\n      mload(0x40)\n      dup1\n      swap2\n      sub\n      swap1\n      revert\n    tag_82:\n        /* \"contracts/_FileStorage.sol\":1942:1971  address[] memory storageNodes */\n      0x00\n        /* \"contracts/_FileStorage.sol\":1974:1996  fileIdToNodesAddresses */\n      0x04\n        /* \"contracts/_FileStorage.sol\":1997:2003  fileId */\n      dup4\n        /* \"contracts/_FileStorage.sol\":1974:2004  fileIdToNodesAddresses[fileId] */\n      mload(0x40)\n      tag_85\n      swap2\n      swap1\n      tag_81\n      jump\t// in\n    tag_85:\n      swap1\n      dup2\n      mstore\n      0x20\n      add\n      mload(0x40)\n      dup1\n      swap2\n      sub\n      swap1\n      keccak256\n        /* \"contracts/_FileStorage.sol\":1942:2004  address[] memory storageNodes = fileIdToNodesAddresses[fileId] */\n      dup1\n      sload\n      dup1\n      0x20\n      mul\n      0x20\n      add\n      mload(0x40)\n      swap1\n      dup2\n      add\n      0x40\n      mstore\n      dup1\n      swap3\n      swap2\n      swap1\n      dup2\n      dup2\n      mstore\n      0x20\n      add\n      dup3\n      dup1\n      sload\n      dup1\n      iszero\n      tag_86\n      jumpi\n      0x20\n      mul\n      dup3\n      add\n      swap2\n      swap1\n      0x00\n      mstore\n      keccak256(0x00, 0x20)\n      swap1\n    tag_87:\n      dup2\n      0x00\n      swap1\n      sload\n      swap1\n      0x0100\n      exp\n      swap1\n      div\n      0xffffffffffffffffffffffffffffffffffffffff\n      and\n      0xffffffffffffffffffffffffffffffffffffffff\n      and\n      dup2\n      mstore\n      0x20\n      add\n      swap1\n      0x01\n      add\n      swap1\n      dup1\n      dup4\n      gt\n      tag_87\n      jumpi\n    tag_86:\n      pop\n      pop\n      pop\n      pop\n      pop\n      swap1\n      pop\n        /* \"contracts/_FileStorage.sol\":2015:2041  string [] memory chunksArr */\n      0x60\n        /* \"contracts/_FileStorage.sol\":2059:2068  uint256 i */\n      0x00\n        /* \"contracts/_FileStorage.sol\":2054:2263  for (uint256 i = 0; i < storageNodes.length; i++) {... */\n    tag_88:\n        /* \"contracts/_FileStorage.sol\":2078:2090  storageNodes */\n      dup3\n        /* \"contracts/_FileStorage.sol\":2078:2097  storageNodes.length */\n      mload\n        /* \"contracts/_FileStorage.sol\":2074:2075  i */\n      dup2\n        /* \"contracts/_FileStorage.sol\":2074:2097  i < storageNodes.length */\n      lt\n        /* \"contracts/_FileStorage.sol\":2054:2263  for (uint256 i = 0; i < storageNodes.length; i++) {... */\n      iszero\n      tag_89\n      jumpi\n        /* \"contracts/_FileStorage.sol\":2099:2102  i++ */\n      dup1\n      dup1\n      0x01\n      add\n      swap2\n      pop\n      pop\n        /* \"contracts/_FileStorage.sol\":2054:2263  for (uint256 i = 0; i < storageNodes.length; i++) {... */\n      jump(tag_88)\n    tag_89:\n      pop\n        /* \"contracts/_FileStorage.sol\":2327:2360  string memory concatenatedContent */\n      0x00\n        /* \"contracts/_FileStorage.sol\":2363:2391  concatenateChunks(chunksArr) */\n      tag_91\n        /* \"contracts/_FileStorage.sol\":2381:2390  chunksArr */\n      dup3\n        /* \"contracts/_FileStorage.sol\":2363:2380  concatenateChunks */\n      tag_92\n        /* \"contracts/_FileStorage.sol\":2363:2391  concatenateChunks(chunksArr) */\n      jump\t// in\n    tag_91:\n        /* \"contracts/_FileStorage.sol\":2327:2391  string memory concatenatedContent = concatenateChunks(chunksArr) */\n      swap1\n      pop\n        /* \"contracts/_FileStorage.sol\":2411:2430  concatenatedContent */\n      dup1\n        /* \"contracts/_FileStorage.sol\":2404:2430  return concatenatedContent */\n      swap4\n      pop\n      pop\n      pop\n      pop\n        /* \"contracts/_FileStorage.sol\":1727:2438  function retrieveFile(string memory fileId) public view returns (string memory) {... */\n      swap2\n      swap1\n      pop\n      jump\t// out\n        /* \"contracts/_NodeManager.sol\":926:1089  function retrieveChunkInNode(address _nodeAddress, string memory _fileId) public view returns (string memory) {... */\n    tag_37:\n        /* \"contracts/_NodeManager.sol\":1021:1034  string memory */\n      0x60\n        /* \"contracts/_NodeManager.sol\":926:1089  function retrieveChunkInNode(address _nodeAddress, string memory _fileId) public view returns (string memory) {... */\n      swap3\n      swap2\n      pop\n      pop\n      jump\t// out\n        /* \"contracts/_NodeManager.sol\":1097:1256  function deleteChunkInNode(address _nodeAddress, string memory _fileId) public view returns (string memory) {... */\n    tag_41:\n        /* \"contracts/_NodeManager.sol\":1190:1203  string memory */\n      0x60\n        /* \"contracts/_NodeManager.sol\":1097:1256  function deleteChunkInNode(address _nodeAddress, string memory _fileId) public view returns (string memory) {... */\n      swap3\n      swap2\n      pop\n      pop\n      jump\t// out\n        /* \"contracts/_FileStorage.sol\":712:1719  function storeFile(string memory fileName, string memory content, string memory uniqueId) public {... */\n    tag_46:\n        /* \"contracts/_FileStorage.sol\":820:836  uint256 fileSize */\n      0x00\n        /* \"contracts/_FileStorage.sol\":845:852  content */\n      dup3\n        /* \"contracts/_FileStorage.sol\":839:860  bytes(content).length */\n      mload\n        /* \"contracts/_FileStorage.sol\":820:860  uint256 fileSize = bytes(content).length */\n      swap1\n      pop\n        /* \"contracts/_FileStorage.sol\":902:934  FileMetadata(fileName, fileSize) */\n      mload(0x40)\n      dup1\n      0x40\n      add\n      0x40\n      mstore\n      dup1\n        /* \"contracts/_FileStorage.sol\":915:923  fileName */\n      dup6\n        /* \"contracts/_FileStorage.sol\":902:934  FileMetadata(fileName, fileSize) */\n      dup2\n      mstore\n      0x20\n      add\n        /* \"contracts/_FileStorage.sol\":925:933  fileSize */\n      dup3\n        /* \"contracts/_FileStorage.sol\":902:934  FileMetadata(fileName, fileSize) */\n      dup2\n      mstore\n      pop\n        /* \"contracts/_FileStorage.sol\":873:889  fileIdToMetadata */\n      0x03\n        /* \"contracts/_FileStorage.sol\":890:898  uniqueId */\n      dup4\n        /* \"contracts/_FileStorage.sol\":873:899  fileIdToMetadata[uniqueId] */\n      mload(0x40)\n      tag_96\n      swap2\n      swap1\n      tag_81\n      jump\t// in\n    tag_96:\n      swap1\n      dup2\n      mstore\n      0x20\n      add\n      mload(0x40)\n      dup1\n      swap2\n      sub\n      swap1\n      keccak256\n        /* \"contracts/_FileStorage.sol\":873:934  fileIdToMetadata[uniqueId] = FileMetadata(fileName, fileSize) */\n      0x00\n      dup3\n      add\n      mload\n      dup2\n      0x00\n      add\n      swap1\n      dup2\n      tag_97\n      swap2\n      swap1\n      tag_98\n      jump\t// in\n    tag_97:\n      pop\n      0x20\n      dup3\n      add\n      mload\n      dup2\n      0x01\n      add\n      sstore\n      swap1\n      pop\n      pop\n        /* \"contracts/_FileStorage.sol\":1001:1023  string[] memory chunks */\n      0x00\n        /* \"contracts/_FileStorage.sol\":1026:1047  chunkContent(content) */\n      tag_99\n        /* \"contracts/_FileStorage.sol\":1039:1046  content */\n      dup5\n        /* \"contracts/_FileStorage.sol\":1026:1038  chunkContent */\n      tag_100\n        /* \"contracts/_FileStorage.sol\":1026:1047  chunkContent(content) */\n      jump\t// in\n    tag_99:\n        /* \"contracts/_FileStorage.sol\":1001:1047  string[] memory chunks = chunkContent(content) */\n      swap1\n      pop\n        /* \"contracts/_FileStorage.sol\":1133:1142  uint256 i */\n      0x00\n        /* \"contracts/_FileStorage.sol\":1128:1712  for (uint256 i = 0; i < chunks.length; i++) {... */\n    tag_101:\n        /* \"contracts/_FileStorage.sol\":1152:1158  chunks */\n      dup2\n        /* \"contracts/_FileStorage.sol\":1152:1165  chunks.length */\n      mload\n        /* \"contracts/_FileStorage.sol\":1148:1149  i */\n      dup2\n        /* \"contracts/_FileStorage.sol\":1148:1165  i < chunks.length */\n      lt\n        /* \"contracts/_FileStorage.sol\":1128:1712  for (uint256 i = 0; i < chunks.length; i++) {... */\n      iszero\n      tag_102\n      jumpi\n        /* \"contracts/_FileStorage.sol\":1187:1204  uint256 chunkSize */\n      0x00\n        /* \"contracts/_FileStorage.sol\":1213:1219  chunks */\n      dup3\n        /* \"contracts/_FileStorage.sol\":1220:1221  i */\n      dup3\n        /* \"contracts/_FileStorage.sol\":1213:1222  chunks[i] */\n      dup2\n      mload\n      dup2\n      lt\n      tag_104\n      jumpi\n      tag_105\n      tag_106\n      jump\t// in\n    tag_105:\n    tag_104:\n      0x20\n      mul\n      0x20\n      add\n      add\n      mload\n        /* \"contracts/_FileStorage.sol\":1207:1230  bytes(chunks[i]).length */\n      mload\n        /* \"contracts/_FileStorage.sol\":1187:1230  uint256 chunkSize = bytes(chunks[i]).length */\n      swap1\n      pop\n        /* \"contracts/_FileStorage.sol\":1245:1272  address selectedNodeAddress */\n      0x00\n        /* \"contracts/_FileStorage.sol\":1275:1303  findAvailableNode(chunkSize) */\n      tag_107\n        /* \"contracts/_FileStorage.sol\":1293:1302  chunkSize */\n      dup3\n        /* \"contracts/_FileStorage.sol\":1275:1292  findAvailableNode */\n      tag_108\n        /* \"contracts/_FileStorage.sol\":1275:1303  findAvailableNode(chunkSize) */\n      jump\t// in\n    tag_107:\n        /* \"contracts/_FileStorage.sol\":1245:1303  address selectedNodeAddress = findAvailableNode(chunkSize) */\n      swap1\n      pop\n        /* \"contracts/_FileStorage.sol\":1359:1360  0 */\n      0x00\n        /* \"contracts/_FileStorage.sol\":1328:1361  selectedNodeAddress != address(0) */\n      0xffffffffffffffffffffffffffffffffffffffff\n      and\n        /* \"contracts/_FileStorage.sol\":1328:1347  selectedNodeAddress */\n      dup2\n        /* \"contracts/_FileStorage.sol\":1328:1361  selectedNodeAddress != address(0) */\n      0xffffffffffffffffffffffffffffffffffffffff\n      and\n      sub\n        /* \"contracts/_FileStorage.sol\":1320:1384  require(selectedNodeAddress != address(0), \"No available nodes\") */\n      tag_109\n      jumpi\n      mload(0x40)\n      0x08c379a000000000000000000000000000000000000000000000000000000000\n      dup2\n      mstore\n      0x04\n      add\n      tag_110\n      swap1\n      tag_111\n      jump\t// in\n    tag_110:\n      mload(0x40)\n      dup1\n      swap2\n      sub\n      swap1\n      revert\n    tag_109:\n        /* \"contracts/_FileStorage.sol\":1399:1421  fileIdToNodesAddresses */\n      0x04\n        /* \"contracts/_FileStorage.sol\":1422:1430  uniqueId */\n      dup7\n        /* \"contracts/_FileStorage.sol\":1399:1431  fileIdToNodesAddresses[uniqueId] */\n      mload(0x40)\n      tag_112\n      swap2\n      swap1\n      tag_81\n      jump\t// in\n    tag_112:\n      swap1\n      dup2\n      mstore\n      0x20\n      add\n      mload(0x40)\n      dup1\n      swap2\n      sub\n      swap1\n      keccak256\n        /* \"contracts/_FileStorage.sol\":1437:1456  selectedNodeAddress */\n      dup2\n        /* \"contracts/_FileStorage.sol\":1399:1457  fileIdToNodesAddresses[uniqueId].push(selectedNodeAddress) */\n      swap1\n      dup1\n      0x01\n      dup2\n      sload\n      add\n      dup1\n      dup3\n      sstore\n      dup1\n      swap2\n      pop\n      pop\n      0x01\n      swap1\n      sub\n      swap1\n      0x00\n      mstore\n      keccak256(0x00, 0x20)\n      add\n      0x00\n      swap1\n      swap2\n      swap1\n      swap2\n      swap1\n      swap2\n      0x0100\n      exp\n      dup2\n      sload\n      dup2\n      0xffffffffffffffffffffffffffffffffffffffff\n      mul\n      not\n      and\n      swap1\n      dup4\n      0xffffffffffffffffffffffffffffffffffffffff\n      and\n      mul\n      or\n      swap1\n      sstore\n      pop\n        /* \"contracts/_FileStorage.sol\":1474:1522  storeChunkInNode(selectedNodeAddress, chunks[i]) */\n      tag_114\n        /* \"contracts/_FileStorage.sol\":1491:1510  selectedNodeAddress */\n      dup2\n        /* \"contracts/_FileStorage.sol\":1512:1518  chunks */\n      dup6\n        /* \"contracts/_FileStorage.sol\":1519:1520  i */\n      dup6\n        /* \"contracts/_FileStorage.sol\":1512:1521  chunks[i] */\n      dup2\n      mload\n      dup2\n      lt\n      tag_115\n      jumpi\n      tag_116\n      tag_106\n      jump\t// in\n    tag_116:\n    tag_115:\n      0x20\n      mul\n      0x20\n      add\n      add\n      mload\n        /* \"contracts/_FileStorage.sol\":1474:1490  storeChunkInNode */\n      tag_68\n        /* \"contracts/_FileStorage.sol\":1474:1522  storeChunkInNode(selectedNodeAddress, chunks[i]) */\n      jump\t// in\n    tag_114:\n        /* \"contracts/_FileStorage.sol\":1600:1700  updateAvailableStorage(selectedNodeAddress, nodes[selectedNodeAddress].availableStorage - chunkSize) */\n      tag_117\n        /* \"contracts/_FileStorage.sol\":1623:1642  selectedNodeAddress */\n      dup2\n        /* \"contracts/_FileStorage.sol\":1690:1699  chunkSize */\n      dup4\n        /* \"contracts/_FileStorage.sol\":1644:1649  nodes */\n      0x00\n        /* \"contracts/_FileStorage.sol\":1644:1670  nodes[selectedNodeAddress] */\n      dup1\n        /* \"contracts/_FileStorage.sol\":1650:1669  selectedNodeAddress */\n      dup6\n        /* \"contracts/_FileStorage.sol\":1644:1670  nodes[selectedNodeAddress] */\n      0xffffffffffffffffffffffffffffffffffffffff\n      and\n      0xffffffffffffffffffffffffffffffffffffffff\n      and\n      dup2\n      mstore\n      0x20\n      add\n      swap1\n      dup2\n      mstore\n      0x20\n      add\n      0x00\n      keccak256\n        /* \"contracts/_FileStorage.sol\":1644:1687  nodes[selectedNodeAddress].availableStorage */\n      0x01\n      add\n      sload\n        /* \"contracts/_FileStorage.sol\":1644:1699  nodes[selectedNodeAddress].availableStorage - chunkSize */\n      tag_118\n      swap2\n      swap1\n      tag_119\n      jump\t// in\n    tag_118:\n        /* \"contracts/_FileStorage.sol\":1600:1622  updateAvailableStorage */\n      tag_65\n        /* \"contracts/_FileStorage.sol\":1600:1700  updateAvailableStorage(selectedNodeAddress, nodes[selectedNodeAddress].availableStorage - chunkSize) */\n      jump\t// in\n    tag_117:\n        /* \"contracts/_FileStorage.sol\":1172:1712  {... */\n      pop\n      pop\n        /* \"contracts/_FileStorage.sol\":1167:1170  i++ */\n      dup1\n      dup1\n      0x01\n      add\n      swap2\n      pop\n      pop\n        /* \"contracts/_FileStorage.sol\":1128:1712  for (uint256 i = 0; i < chunks.length; i++) {... */\n      jump(tag_101)\n    tag_102:\n      pop\n        /* \"contracts/_FileStorage.sol\":809:1719  {... */\n      pop\n      pop\n        /* \"contracts/_FileStorage.sol\":712:1719  function storeFile(string memory fileName, string memory content, string memory uniqueId) public {... */\n      pop\n      pop\n      pop\n      jump\t// out\n        /* \"contracts/_FileStorage.sol\":191:211  address public owner */\n    tag_48:\n      0x02\n      0x00\n      swap1\n      sload\n      swap1\n      0x0100\n      exp\n      swap1\n      div\n      0xffffffffffffffffffffffffffffffffffffffff\n      and\n      dup2\n      jump\t// out\n        /* \"contracts/_NodeManager.sol\":1264:1360  function getAllNodes() public view returns (address[] memory) {... */\n    tag_52:\n        /* \"contracts/_NodeManager.sol\":1308:1324  address[] memory */\n      0x60\n        /* \"contracts/_NodeManager.sol\":1344:1352  allNodes */\n      0x01\n        /* \"contracts/_NodeManager.sol\":1337:1352  return allNodes */\n      dup1\n      sload\n      dup1\n      0x20\n      mul\n      0x20\n      add\n      mload(0x40)\n      swap1\n      dup2\n      add\n      0x40\n      mstore\n      dup1\n      swap3\n      swap2\n      swap1\n      dup2\n      dup2\n      mstore\n      0x20\n      add\n      dup3\n      dup1\n      sload\n      dup1\n      iszero\n      tag_121\n      jumpi\n      0x20\n      mul\n      dup3\n      add\n      swap2\n      swap1\n      0x00\n      mstore\n      keccak256(0x00, 0x20)\n      swap1\n    tag_122:\n      dup2\n      0x00\n      swap1\n      sload\n      swap1\n      0x0100\n      exp\n      swap1\n      div\n      0xffffffffffffffffffffffffffffffffffffffff\n      and\n      0xffffffffffffffffffffffffffffffffffffffff\n      and\n      dup2\n      mstore\n      0x20\n      add\n      swap1\n      0x01\n      add\n      swap1\n      dup1\n      dup4\n      gt\n      tag_122\n      jumpi\n    tag_121:\n      pop\n      pop\n      pop\n      pop\n      pop\n      swap1\n      pop\n        /* \"contracts/_NodeManager.sol\":1264:1360  function getAllNodes() public view returns (address[] memory) {... */\n      swap1\n      jump\t// out\n        /* \"contracts/_NodeManager.sol\":1368:1495  function getNodeByAddress(address _nodeAddress) public view returns (Node memory) {... */\n    tag_57:\n        /* \"contracts/_NodeManager.sol\":1437:1448  Node memory */\n      tag_123\n      tag_124\n      jump\t// in\n    tag_123:\n        /* \"contracts/_NodeManager.sol\":1468:1473  nodes */\n      0x00\n        /* \"contracts/_NodeManager.sol\":1468:1487  nodes[_nodeAddress] */\n      dup1\n        /* \"contracts/_NodeManager.sol\":1474:1486  _nodeAddress */\n      dup4\n        /* \"contracts/_NodeManager.sol\":1468:1487  nodes[_nodeAddress] */\n      0xffffffffffffffffffffffffffffffffffffffff\n      and\n      0xffffffffffffffffffffffffffffffffffffffff\n      and\n      dup2\n      mstore\n      0x20\n      add\n      swap1\n      dup2\n      mstore\n      0x20\n      add\n      0x00\n      keccak256\n        /* \"contracts/_NodeManager.sol\":1461:1487  return nodes[_nodeAddress] */\n      mload(0x40)\n      dup1\n      0x40\n      add\n      0x40\n      mstore\n      swap1\n      dup2\n      0x00\n      dup3\n      add\n      0x00\n      swap1\n      sload\n      swap1\n      0x0100\n      exp\n      swap1\n      div\n      0xffffffffffffffffffffffffffffffffffffffff\n      and\n      0xffffffffffffffffffffffffffffffffffffffff\n      and\n      0xffffffffffffffffffffffffffffffffffffffff\n      and\n      dup2\n      mstore\n      0x20\n      add\n      0x01\n      dup3\n      add\n      sload\n      dup2\n      mstore\n      pop\n      pop\n      swap1\n      pop\n        /* \"contracts/_NodeManager.sol\":1368:1495  function getNodeByAddress(address _nodeAddress) public view returns (Node memory) {... */\n      swap2\n      swap1\n      pop\n      jump\t// out\n        /* \"contracts/_FileStorage.sol\":2446:3103  function deleteFile(string memory fileId) public {... */\n    tag_62:\n        /* \"contracts/_FileStorage.sol\":2550:2551  0 */\n      0x00\n        /* \"contracts/_FileStorage.sol\":2514:2530  fileIdToMetadata */\n      0x03\n        /* \"contracts/_FileStorage.sol\":2531:2537  fileId */\n      dup3\n        /* \"contracts/_FileStorage.sol\":2514:2538  fileIdToMetadata[fileId] */\n      mload(0x40)\n      tag_127\n      swap2\n      swap1\n      tag_81\n      jump\t// in\n    tag_127:\n      swap1\n      dup2\n      mstore\n      0x20\n      add\n      mload(0x40)\n      dup1\n      swap2\n      sub\n      swap1\n      keccak256\n        /* \"contracts/_FileStorage.sol\":2514:2547  fileIdToMetadata[fileId].fileSize */\n      0x01\n      add\n      sload\n        /* \"contracts/_FileStorage.sol\":2514:2551  fileIdToMetadata[fileId].fileSize > 0 */\n      gt\n        /* \"contracts/_FileStorage.sol\":2506:2570  require(fileIdToMetadata[fileId].fileSize > 0, \"File not found\") */\n      tag_128\n      jumpi\n      mload(0x40)\n      0x08c379a000000000000000000000000000000000000000000000000000000000\n      dup2\n      mstore\n      0x04\n      add\n      tag_129\n      swap1\n      tag_84\n      jump\t// in\n    tag_129:\n      mload(0x40)\n      dup1\n      swap2\n      sub\n      swap1\n      revert\n    tag_128:\n        /* \"contracts/_FileStorage.sol\":2603:2608  owner */\n      0x02\n      0x00\n      swap1\n      sload\n      swap1\n      0x0100\n      exp\n      swap1\n      div\n      0xffffffffffffffffffffffffffffffffffffffff\n      and\n        /* \"contracts/_FileStorage.sol\":2589:2608  msg.sender == owner */\n      0xffffffffffffffffffffffffffffffffffffffff\n      and\n        /* \"contracts/_FileStorage.sol\":2589:2599  msg.sender */\n      caller\n        /* \"contracts/_FileStorage.sol\":2589:2608  msg.sender == owner */\n      0xffffffffffffffffffffffffffffffffffffffff\n      and\n      eq\n        /* \"contracts/_FileStorage.sol\":2581:2625  require(msg.sender == owner, \"Unauthorized\") */\n      tag_130\n      jumpi\n      mload(0x40)\n      0x08c379a000000000000000000000000000000000000000000000000000000000\n      dup2\n      mstore\n      0x04\n      add\n      tag_131\n      swap1\n      tag_132\n      jump\t// in\n    tag_131:\n      mload(0x40)\n      dup1\n      swap2\n      sub\n      swap1\n      revert\n    tag_130:\n        /* \"contracts/_FileStorage.sol\":2638:2667  address[] memory storageNodes */\n      0x00\n        /* \"contracts/_FileStorage.sol\":2670:2692  fileIdToNodesAddresses */\n      0x04\n        /* \"contracts/_FileStorage.sol\":2693:2699  fileId */\n      dup3\n        /* \"contracts/_FileStorage.sol\":2670:2700  fileIdToNodesAddresses[fileId] */\n      mload(0x40)\n      tag_133\n      swap2\n      swap1\n      tag_81\n      jump\t// in\n    tag_133:\n      swap1\n      dup2\n      mstore\n      0x20\n      add\n      mload(0x40)\n      dup1\n      swap2\n      sub\n      swap1\n      keccak256\n        /* \"contracts/_FileStorage.sol\":2638:2700  address[] memory storageNodes = fileIdToNodesAddresses[fileId] */\n      dup1\n      sload\n      dup1\n      0x20\n      mul\n      0x20\n      add\n      mload(0x40)\n      swap1\n      dup2\n      add\n      0x40\n      mstore\n      dup1\n      swap3\n      swap2\n      swap1\n      dup2\n      dup2\n      mstore\n      0x20\n      add\n      dup3\n      dup1\n      sload\n      dup1\n      iszero\n      tag_134\n      jumpi\n      0x20\n      mul\n      dup3\n      add\n      swap2\n      swap1\n      0x00\n      mstore\n      keccak256(0x00, 0x20)\n      swap1\n    tag_135:\n      dup2\n      0x00\n      swap1\n      sload\n      swap1\n      0x0100\n      exp\n      swap1\n      div\n      0xffffffffffffffffffffffffffffffffffffffff\n      and\n      0xffffffffffffffffffffffffffffffffffffffff\n      and\n      dup2\n      mstore\n      0x20\n      add\n      swap1\n      0x01\n      add\n      swap1\n      dup1\n      dup4\n      gt\n      tag_135\n      jumpi\n    tag_134:\n      pop\n      pop\n      pop\n      pop\n      pop\n      swap1\n      pop\n        /* \"contracts/_FileStorage.sol\":2767:2776  uint256 i */\n      0x00\n        /* \"contracts/_FileStorage.sol\":2762:2945  for (uint256 i = 0; i < storageNodes.length; i++) {... */\n    tag_136:\n        /* \"contracts/_FileStorage.sol\":2786:2798  storageNodes */\n      dup2\n        /* \"contracts/_FileStorage.sol\":2786:2805  storageNodes.length */\n      mload\n        /* \"contracts/_FileStorage.sol\":2782:2783  i */\n      dup2\n        /* \"contracts/_FileStorage.sol\":2782:2805  i < storageNodes.length */\n      lt\n        /* \"contracts/_FileStorage.sol\":2762:2945  for (uint256 i = 0; i < storageNodes.length; i++) {... */\n      iszero\n      tag_137\n      jumpi\n        /* \"contracts/_FileStorage.sol\":2827:2854  address selectedNodeAddress */\n      0x00\n        /* \"contracts/_FileStorage.sol\":2857:2869  storageNodes */\n      dup3\n        /* \"contracts/_FileStorage.sol\":2870:2871  i */\n      dup3\n        /* \"contracts/_FileStorage.sol\":2857:2872  storageNodes[i] */\n      dup2\n      mload\n      dup2\n      lt\n      tag_139\n      jumpi\n      tag_140\n      tag_106\n      jump\t// in\n    tag_140:\n    tag_139:\n      0x20\n      mul\n      0x20\n      add\n      add\n      mload\n        /* \"contracts/_FileStorage.sol\":2827:2872  address selectedNodeAddress = storageNodes[i] */\n      swap1\n      pop\n        /* \"contracts/_FileStorage.sol\":2887:2933  deleteChunkInNode(selectedNodeAddress, fileId) */\n      tag_141\n        /* \"contracts/_FileStorage.sol\":2905:2924  selectedNodeAddress */\n      dup2\n        /* \"contracts/_FileStorage.sol\":2926:2932  fileId */\n      dup6\n        /* \"contracts/_FileStorage.sol\":2887:2904  deleteChunkInNode */\n      tag_41\n        /* \"contracts/_FileStorage.sol\":2887:2933  deleteChunkInNode(selectedNodeAddress, fileId) */\n      jump\t// in\n    tag_141:\n      pop\n        /* \"contracts/_FileStorage.sol\":2812:2945  {... */\n      pop\n        /* \"contracts/_FileStorage.sol\":2807:2810  i++ */\n      dup1\n      dup1\n      0x01\n      add\n      swap2\n      pop\n      pop\n        /* \"contracts/_FileStorage.sol\":2762:2945  for (uint256 i = 0; i < storageNodes.length; i++) {... */\n      jump(tag_136)\n    tag_137:\n      pop\n        /* \"contracts/_FileStorage.sol\":3023:3039  fileIdToMetadata */\n      0x03\n        /* \"contracts/_FileStorage.sol\":3040:3046  fileId */\n      dup3\n        /* \"contracts/_FileStorage.sol\":3023:3047  fileIdToMetadata[fileId] */\n      mload(0x40)\n      tag_142\n      swap2\n      swap1\n      tag_81\n      jump\t// in\n    tag_142:\n      swap1\n      dup2\n      mstore\n      0x20\n      add\n      mload(0x40)\n      dup1\n      swap2\n      sub\n      swap1\n      keccak256\n      0x00\n        /* \"contracts/_FileStorage.sol\":3016:3047  delete fileIdToMetadata[fileId] */\n      dup1\n      dup3\n      add\n      0x00\n      tag_143\n      swap2\n      swap1\n      tag_144\n      jump\t// in\n    tag_143:\n      0x01\n      dup3\n      add\n      0x00\n      swap1\n      sstore\n      pop\n      pop\n        /* \"contracts/_FileStorage.sol\":3065:3087  fileIdToNodesAddresses */\n      0x04\n        /* \"contracts/_FileStorage.sol\":3088:3094  fileId */\n      dup3\n        /* \"contracts/_FileStorage.sol\":3065:3095  fileIdToNodesAddresses[fileId] */\n      mload(0x40)\n      tag_145\n      swap2\n      swap1\n      tag_81\n      jump\t// in\n    tag_145:\n      swap1\n      dup2\n      mstore\n      0x20\n      add\n      mload(0x40)\n      dup1\n      swap2\n      sub\n      swap1\n      keccak256\n      0x00\n        /* \"contracts/_FileStorage.sol\":3058:3095  delete fileIdToNodesAddresses[fileId] */\n      tag_146\n      swap2\n      swap1\n      tag_147\n      jump\t// in\n    tag_146:\n        /* \"contracts/_FileStorage.sol\":2495:3103  {... */\n      pop\n        /* \"contracts/_FileStorage.sol\":2446:3103  function deleteFile(string memory fileId) public {... */\n      pop\n      jump\t// out\n        /* \"contracts/_NodeManager.sol\":544:783  function updateAvailableStorage(address _nodeAddress, uint256 _newStorage) public {... */\n    tag_65:\n        /* \"contracts/_NodeManager.sol\":688:689  0 */\n      0x00\n        /* \"contracts/_NodeManager.sol\":645:690  nodes[_nodeAddress].nodeAddress != address(0) */\n      0xffffffffffffffffffffffffffffffffffffffff\n      and\n        /* \"contracts/_NodeManager.sol\":645:650  nodes */\n      0x00\n        /* \"contracts/_NodeManager.sol\":645:664  nodes[_nodeAddress] */\n      dup1\n        /* \"contracts/_NodeManager.sol\":651:663  _nodeAddress */\n      dup5\n        /* \"contracts/_NodeManager.sol\":645:664  nodes[_nodeAddress] */\n      0xffffffffffffffffffffffffffffffffffffffff\n      and\n      0xffffffffffffffffffffffffffffffffffffffff\n      and\n      dup2\n      mstore\n      0x20\n      add\n      swap1\n      dup2\n      mstore\n      0x20\n      add\n      0x00\n      keccak256\n        /* \"contracts/_NodeManager.sol\":645:676  nodes[_nodeAddress].nodeAddress */\n      0x00\n      add\n      0x00\n      swap1\n      sload\n      swap1\n      0x0100\n      exp\n      swap1\n      div\n      0xffffffffffffffffffffffffffffffffffffffff\n      and\n        /* \"contracts/_NodeManager.sol\":645:690  nodes[_nodeAddress].nodeAddress != address(0) */\n      0xffffffffffffffffffffffffffffffffffffffff\n      and\n      sub\n        /* \"contracts/_NodeManager.sol\":637:714  require(nodes[_nodeAddress].nodeAddress != address(0), \"Node does not exist\") */\n      tag_149\n      jumpi\n      mload(0x40)\n      0x08c379a000000000000000000000000000000000000000000000000000000000\n      dup2\n      mstore\n      0x04\n      add\n      tag_150\n      swap1\n      tag_151\n      jump\t// in\n    tag_150:\n      mload(0x40)\n      dup1\n      swap2\n      sub\n      swap1\n      revert\n    tag_149:\n        /* \"contracts/_NodeManager.sol\":764:775  _newStorage */\n      dup1\n        /* \"contracts/_NodeManager.sol\":725:730  nodes */\n      0x00\n        /* \"contracts/_NodeManager.sol\":725:744  nodes[_nodeAddress] */\n      dup1\n        /* \"contracts/_NodeManager.sol\":731:743  _nodeAddress */\n      dup5\n        /* \"contracts/_NodeManager.sol\":725:744  nodes[_nodeAddress] */\n      0xffffffffffffffffffffffffffffffffffffffff\n      and\n      0xffffffffffffffffffffffffffffffffffffffff\n      and\n      dup2\n      mstore\n      0x20\n      add\n      swap1\n      dup2\n      mstore\n      0x20\n      add\n      0x00\n      keccak256\n        /* \"contracts/_NodeManager.sol\":725:761  nodes[_nodeAddress].availableStorage */\n      0x01\n      add\n        /* \"contracts/_NodeManager.sol\":725:775  nodes[_nodeAddress].availableStorage = _newStorage */\n      dup2\n      swap1\n      sstore\n      pop\n        /* \"contracts/_NodeManager.sol\":544:783  function updateAvailableStorage(address _nodeAddress, uint256 _newStorage) public {... */\n      pop\n      pop\n      jump\t// out\n        /* \"contracts/_NodeManager.sol\":791:918  function storeChunkInNode(address _nodeAddress, string memory _chunk) public {... */\n    tag_68:\n      pop\n      pop\n      jump\t// out\n        /* \"contracts/_NodeManager.sol\":229:254  address[] public allNodes */\n    tag_72:\n      0x01\n      dup2\n      dup2\n      sload\n      dup2\n      lt\n      tag_153\n      jumpi\n      0x00\n      dup1\n      revert\n    tag_153:\n      swap1\n      0x00\n      mstore\n      keccak256(0x00, 0x20)\n      add\n      0x00\n      swap2\n      pop\n      sload\n      swap1\n      0x0100\n      exp\n      swap1\n      div\n      0xffffffffffffffffffffffffffffffffffffffff\n      and\n      dup2\n      jump\t// out\n        /* \"contracts/_ChunkManager.sol\":892:1528  function concatenateChunks(string[] memory chunks) internal pure returns (string memory) {... */\n    tag_92:\n        /* \"contracts/_ChunkManager.sol\":966:979  string memory */\n      0x60\n        /* \"contracts/_ChunkManager.sol\":992:1011  uint256 totalLength */\n      0x00\n        /* \"contracts/_ChunkManager.sol\":1031:1040  uint256 i */\n      dup1\n        /* \"contracts/_ChunkManager.sol\":1026:1135  for (uint256 i = 0; i < chunks.length; i++) {... */\n    tag_156:\n        /* \"contracts/_ChunkManager.sol\":1050:1056  chunks */\n      dup4\n        /* \"contracts/_ChunkManager.sol\":1050:1063  chunks.length */\n      mload\n        /* \"contracts/_ChunkManager.sol\":1046:1047  i */\n      dup2\n        /* \"contracts/_ChunkManager.sol\":1046:1063  i < chunks.length */\n      lt\n        /* \"contracts/_ChunkManager.sol\":1026:1135  for (uint256 i = 0; i < chunks.length; i++) {... */\n      iszero\n      tag_157\n      jumpi\n        /* \"contracts/_ChunkManager.sol\":1106:1112  chunks */\n      dup4\n        /* \"contracts/_ChunkManager.sol\":1113:1114  i */\n      dup2\n        /* \"contracts/_ChunkManager.sol\":1106:1115  chunks[i] */\n      dup2\n      mload\n      dup2\n      lt\n      tag_159\n      jumpi\n      tag_160\n      tag_106\n      jump\t// in\n    tag_160:\n    tag_159:\n      0x20\n      mul\n      0x20\n      add\n      add\n      mload\n        /* \"contracts/_ChunkManager.sol\":1100:1123  bytes(chunks[i]).length */\n      mload\n        /* \"contracts/_ChunkManager.sol\":1085:1123  totalLength += bytes(chunks[i]).length */\n      dup3\n      tag_161\n      swap2\n      swap1\n      tag_162\n      jump\t// in\n    tag_161:\n      swap2\n      pop\n        /* \"contracts/_ChunkManager.sol\":1065:1068  i++ */\n      dup1\n      dup1\n      0x01\n      add\n      swap2\n      pop\n      pop\n        /* \"contracts/_ChunkManager.sol\":1026:1135  for (uint256 i = 0; i < chunks.length; i++) {... */\n      jump(tag_156)\n    tag_157:\n      pop\n        /* \"contracts/_ChunkManager.sol\":1147:1166  bytes memory result */\n      0x00\n        /* \"contracts/_ChunkManager.sol\":1179:1190  totalLength */\n      dup2\n        /* \"contracts/_ChunkManager.sol\":1169:1191  new bytes(totalLength) */\n      0xffffffffffffffff\n      dup2\n      gt\n      iszero\n      tag_163\n      jumpi\n      tag_164\n      tag_165\n      jump\t// in\n    tag_164:\n    tag_163:\n      mload(0x40)\n      swap1\n      dup1\n      dup3\n      mstore\n      dup1\n      0x1f\n      add\n      not(0x1f)\n      and\n      0x20\n      add\n      dup3\n      add\n      0x40\n      mstore\n      dup1\n      iszero\n      tag_166\n      jumpi\n      dup2\n      0x20\n      add\n      0x01\n      dup3\n      mul\n      dup1\n      calldatasize\n      dup4\n      calldatacopy\n      dup1\n      dup3\n      add\n      swap2\n      pop\n      pop\n      swap1\n      pop\n    tag_166:\n      pop\n        /* \"contracts/_ChunkManager.sol\":1147:1191  bytes memory result = new bytes(totalLength) */\n      swap1\n      pop\n        /* \"contracts/_ChunkManager.sol\":1202:1222  uint256 currentIndex */\n      0x00\n        /* \"contracts/_ChunkManager.sol\":1244:1253  uint256 i */\n      dup1\n        /* \"contracts/_ChunkManager.sol\":1239:1487  for (uint256 i = 0; i < chunks.length; i++) {... */\n    tag_167:\n        /* \"contracts/_ChunkManager.sol\":1263:1269  chunks */\n      dup6\n        /* \"contracts/_ChunkManager.sol\":1263:1276  chunks.length */\n      mload\n        /* \"contracts/_ChunkManager.sol\":1259:1260  i */\n      dup2\n        /* \"contracts/_ChunkManager.sol\":1259:1276  i < chunks.length */\n      lt\n        /* \"contracts/_ChunkManager.sol\":1239:1487  for (uint256 i = 0; i < chunks.length; i++) {... */\n      iszero\n      tag_168\n      jumpi\n        /* \"contracts/_ChunkManager.sol\":1298:1321  bytes memory chunkBytes */\n      0x00\n        /* \"contracts/_ChunkManager.sol\":1330:1336  chunks */\n      dup7\n        /* \"contracts/_ChunkManager.sol\":1337:1338  i */\n      dup3\n        /* \"contracts/_ChunkManager.sol\":1330:1339  chunks[i] */\n      dup2\n      mload\n      dup2\n      lt\n      tag_170\n      jumpi\n      tag_171\n      tag_106\n      jump\t// in\n    tag_171:\n    tag_170:\n      0x20\n      mul\n      0x20\n      add\n      add\n      mload\n        /* \"contracts/_ChunkManager.sol\":1298:1340  bytes memory chunkBytes = bytes(chunks[i]) */\n      swap1\n      pop\n        /* \"contracts/_ChunkManager.sol\":1360:1369  uint256 j */\n      0x00\n        /* \"contracts/_ChunkManager.sol\":1355:1476  for (uint256 j = 0; j < chunkBytes.length; j++) {... */\n    tag_172:\n        /* \"contracts/_ChunkManager.sol\":1379:1389  chunkBytes */\n      dup2\n        /* \"contracts/_ChunkManager.sol\":1379:1396  chunkBytes.length */\n      mload\n        /* \"contracts/_ChunkManager.sol\":1375:1376  j */\n      dup2\n        /* \"contracts/_ChunkManager.sol\":1375:1396  j < chunkBytes.length */\n      lt\n        /* \"contracts/_ChunkManager.sol\":1355:1476  for (uint256 j = 0; j < chunkBytes.length; j++) {... */\n      iszero\n      tag_173\n      jumpi\n        /* \"contracts/_ChunkManager.sol\":1447:1457  chunkBytes */\n      dup2\n        /* \"contracts/_ChunkManager.sol\":1458:1459  j */\n      dup2\n        /* \"contracts/_ChunkManager.sol\":1447:1460  chunkBytes[j] */\n      dup2\n      mload\n      dup2\n      lt\n      tag_175\n      jumpi\n      tag_176\n      tag_106\n      jump\t// in\n    tag_176:\n    tag_175:\n      0x20\n      add\n      add\n      mload\n      0xf8\n      shr\n      0xf8\n      shl\n        /* \"contracts/_ChunkManager.sol\":1422:1428  result */\n      dup6\n        /* \"contracts/_ChunkManager.sol\":1429:1443  currentIndex++ */\n      dup6\n      dup1\n      tag_177\n      swap1\n      tag_178\n      jump\t// in\n    tag_177:\n      swap7\n      pop\n        /* \"contracts/_ChunkManager.sol\":1422:1444  result[currentIndex++] */\n      dup2\n      mload\n      dup2\n      lt\n      tag_179\n      jumpi\n      tag_180\n      tag_106\n      jump\t// in\n    tag_180:\n    tag_179:\n      0x20\n      add\n      add\n        /* \"contracts/_ChunkManager.sol\":1422:1460  result[currentIndex++] = chunkBytes[j] */\n      swap1\n      not(0xffffffffffffffffffffffffffffffffffffffffffffffffffffffffffffff)\n      and\n      swap1\n      dup2\n      0x00\n      byte\n      swap1\n      mstore8\n      pop\n        /* \"contracts/_ChunkManager.sol\":1398:1401  j++ */\n      dup1\n      dup1\n      0x01\n      add\n      swap2\n      pop\n      pop\n        /* \"contracts/_ChunkManager.sol\":1355:1476  for (uint256 j = 0; j < chunkBytes.length; j++) {... */\n      jump(tag_172)\n    tag_173:\n      pop\n        /* \"contracts/_ChunkManager.sol\":1283:1487  {... */\n      pop\n        /* \"contracts/_ChunkManager.sol\":1278:1281  i++ */\n      dup1\n      dup1\n      0x01\n      add\n      swap2\n      pop\n      pop\n        /* \"contracts/_ChunkManager.sol\":1239:1487  for (uint256 i = 0; i < chunks.length; i++) {... */\n      jump(tag_167)\n    tag_168:\n      pop\n        /* \"contracts/_ChunkManager.sol\":1513:1519  result */\n      dup2\n        /* \"contracts/_ChunkManager.sol\":1499:1520  return string(result) */\n      swap4\n      pop\n      pop\n      pop\n      pop\n        /* \"contracts/_ChunkManager.sol\":892:1528  function concatenateChunks(string[] memory chunks) internal pure returns (string memory) {... */\n      swap2\n      swap1\n      pop\n      jump\t// out\n        /* \"contracts/_ChunkManager.sol\":92:884  function chunkContent(string memory content) internal pure returns (string[] memory) {... */\n    tag_100:\n        /* \"contracts/_ChunkManager.sol\":160:175  string[] memory */\n      0x60\n        /* \"contracts/_ChunkManager.sol\":188:205  uint256 chunkSize */\n      0x00\n        /* \"contracts/_ChunkManager.sol\":208:210  32 */\n      0x20\n        /* \"contracts/_ChunkManager.sol\":188:210  uint256 chunkSize = 32 */\n      swap1\n      pop\n        /* \"contracts/_ChunkManager.sol\":221:238  uint256 numChunks */\n      0x00\n        /* \"contracts/_ChunkManager.sol\":283:292  chunkSize */\n      dup2\n        /* \"contracts/_ChunkManager.sol\":278:279  1 */\n      0x01\n        /* \"contracts/_ChunkManager.sol\":266:275  chunkSize */\n      dup4\n        /* \"contracts/_ChunkManager.sol\":248:255  content */\n      dup7\n        /* \"contracts/_ChunkManager.sol\":242:263  bytes(content).length */\n      mload\n        /* \"contracts/_ChunkManager.sol\":242:275  bytes(content).length + chunkSize */\n      tag_182\n      swap2\n      swap1\n      tag_162\n      jump\t// in\n    tag_182:\n        /* \"contracts/_ChunkManager.sol\":242:279  bytes(content).length + chunkSize - 1 */\n      tag_183\n      swap2\n      swap1\n      tag_119\n      jump\t// in\n    tag_183:\n        /* \"contracts/_ChunkManager.sol\":241:292  (bytes(content).length + chunkSize - 1) / chunkSize */\n      tag_184\n      swap2\n      swap1\n      tag_185\n      jump\t// in\n    tag_184:\n        /* \"contracts/_ChunkManager.sol\":221:292  uint256 numChunks = (bytes(content).length + chunkSize - 1) / chunkSize */\n      swap1\n      pop\n        /* \"contracts/_ChunkManager.sol\":303:325  string[] memory chunks */\n      0x00\n        /* \"contracts/_ChunkManager.sol\":341:350  numChunks */\n      dup2\n        /* \"contracts/_ChunkManager.sol\":328:351  new string[](numChunks) */\n      0xffffffffffffffff\n      dup2\n      gt\n      iszero\n      tag_186\n      jumpi\n      tag_187\n      tag_165\n      jump\t// in\n    tag_187:\n    tag_186:\n      mload(0x40)\n      swap1\n      dup1\n      dup3\n      mstore\n      dup1\n      0x20\n      mul\n      0x20\n      add\n      dup3\n      add\n      0x40\n      mstore\n      dup1\n      iszero\n      tag_188\n      jumpi\n      dup2\n      0x20\n      add\n    tag_189:\n      0x60\n      dup2\n      mstore\n      0x20\n      add\n      swap1\n      0x01\n      swap1\n      sub\n      swap1\n      dup2\n      tag_189\n      jumpi\n      swap1\n      pop\n    tag_188:\n      pop\n        /* \"contracts/_ChunkManager.sol\":303:351  string[] memory chunks = new string[](numChunks) */\n      swap1\n      pop\n        /* \"contracts/_ChunkManager.sol\":369:378  uint256 i */\n      0x00\n        /* \"contracts/_ChunkManager.sol\":364:851  for (uint256 i = 0; i < numChunks; i++) {... */\n    tag_190:\n        /* \"contracts/_ChunkManager.sol\":388:397  numChunks */\n      dup3\n        /* \"contracts/_ChunkManager.sol\":384:385  i */\n      dup2\n        /* \"contracts/_ChunkManager.sol\":384:397  i < numChunks */\n      lt\n        /* \"contracts/_ChunkManager.sol\":364:851  for (uint256 i = 0; i < numChunks; i++) {... */\n      iszero\n      tag_191\n      jumpi\n        /* \"contracts/_ChunkManager.sol\":419:432  uint256 start */\n      0x00\n        /* \"contracts/_ChunkManager.sol\":439:448  chunkSize */\n      dup5\n        /* \"contracts/_ChunkManager.sol\":435:436  i */\n      dup3\n        /* \"contracts/_ChunkManager.sol\":435:448  i * chunkSize */\n      tag_193\n      swap2\n      swap1\n      tag_194\n      jump\t// in\n    tag_193:\n        /* \"contracts/_ChunkManager.sol\":419:448  uint256 start = i * chunkSize */\n      swap1\n      pop\n        /* \"contracts/_ChunkManager.sol\":463:474  uint256 end */\n      0x00\n        /* \"contracts/_ChunkManager.sol\":485:494  chunkSize */\n      dup6\n        /* \"contracts/_ChunkManager.sol\":477:482  start */\n      dup3\n        /* \"contracts/_ChunkManager.sol\":477:494  start + chunkSize */\n      tag_195\n      swap2\n      swap1\n      tag_162\n      jump\t// in\n    tag_195:\n        /* \"contracts/_ChunkManager.sol\":463:494  uint256 end = start + chunkSize */\n      swap1\n      pop\n        /* \"contracts/_ChunkManager.sol\":525:532  content */\n      dup8\n        /* \"contracts/_ChunkManager.sol\":519:540  bytes(content).length */\n      mload\n        /* \"contracts/_ChunkManager.sol\":513:516  end */\n      dup2\n        /* \"contracts/_ChunkManager.sol\":513:540  end > bytes(content).length */\n      gt\n        /* \"contracts/_ChunkManager.sol\":509:604  if (end > bytes(content).length) {... */\n      iszero\n      tag_196\n      jumpi\n        /* \"contracts/_ChunkManager.sol\":573:580  content */\n      dup8\n        /* \"contracts/_ChunkManager.sol\":567:588  bytes(content).length */\n      mload\n        /* \"contracts/_ChunkManager.sol\":561:588  end = bytes(content).length */\n      swap1\n      pop\n        /* \"contracts/_ChunkManager.sol\":509:604  if (end > bytes(content).length) {... */\n    tag_196:\n        /* \"contracts/_ChunkManager.sol\":618:641  bytes memory chunkBytes */\n      0x00\n        /* \"contracts/_ChunkManager.sol\":660:665  start */\n      dup3\n        /* \"contracts/_ChunkManager.sol\":654:657  end */\n      dup3\n        /* \"contracts/_ChunkManager.sol\":654:665  end - start */\n      tag_197\n      swap2\n      swap1\n      tag_119\n      jump\t// in\n    tag_197:\n        /* \"contracts/_ChunkManager.sol\":644:666  new bytes(end - start) */\n      0xffffffffffffffff\n      dup2\n      gt\n      iszero\n      tag_198\n      jumpi\n      tag_199\n      tag_165\n      jump\t// in\n    tag_199:\n    tag_198:\n      mload(0x40)\n      swap1\n      dup1\n      dup3\n      mstore\n      dup1\n      0x1f\n      add\n      not(0x1f)\n      and\n      0x20\n      add\n      dup3\n      add\n      0x40\n      mstore\n      dup1\n      iszero\n      tag_200\n      jumpi\n      dup2\n      0x20\n      add\n      0x01\n      dup3\n      mul\n      dup1\n      calldatasize\n      dup4\n      calldatacopy\n      dup1\n      dup3\n      add\n      swap2\n      pop\n      pop\n      swap1\n      pop\n    tag_200:\n      pop\n        /* \"contracts/_ChunkManager.sol\":618:666  bytes memory chunkBytes = new bytes(end - start) */\n      swap1\n      pop\n        /* \"contracts/_ChunkManager.sol\":686:695  uint256 j */\n      0x00\n        /* \"contracts/_ChunkManager.sol\":698:703  start */\n      dup4\n        /* \"contracts/_ChunkManager.sol\":686:703  uint256 j = start */\n      swap1\n      pop\n        /* \"contracts/_ChunkManager.sol\":681:795  for (uint256 j = start; j < end; j++) {... */\n    tag_201:\n        /* \"contracts/_ChunkManager.sol\":709:712  end */\n      dup3\n        /* \"contracts/_ChunkManager.sol\":705:706  j */\n      dup2\n        /* \"contracts/_ChunkManager.sol\":705:712  j < end */\n      lt\n        /* \"contracts/_ChunkManager.sol\":681:795  for (uint256 j = start; j < end; j++) {... */\n      iszero\n      tag_202\n      jumpi\n        /* \"contracts/_ChunkManager.sol\":768:775  content */\n      dup10\n        /* \"contracts/_ChunkManager.sol\":777:778  j */\n      dup2\n        /* \"contracts/_ChunkManager.sol\":762:779  bytes(content)[j] */\n      dup2\n      mload\n      dup2\n      lt\n      tag_204\n      jumpi\n      tag_205\n      tag_106\n      jump\t// in\n    tag_205:\n    tag_204:\n      0x20\n      add\n      add\n      mload\n      0xf8\n      shr\n      0xf8\n      shl\n        /* \"contracts/_ChunkManager.sol\":738:748  chunkBytes */\n      dup3\n        /* \"contracts/_ChunkManager.sol\":753:758  start */\n      dup6\n        /* \"contracts/_ChunkManager.sol\":749:750  j */\n      dup4\n        /* \"contracts/_ChunkManager.sol\":749:758  j - start */\n      tag_206\n      swap2\n      swap1\n      tag_119\n      jump\t// in\n    tag_206:\n        /* \"contracts/_ChunkManager.sol\":738:759  chunkBytes[j - start] */\n      dup2\n      mload\n      dup2\n      lt\n      tag_207\n      jumpi\n      tag_208\n      tag_106\n      jump\t// in\n    tag_208:\n    tag_207:\n      0x20\n      add\n      add\n        /* \"contracts/_ChunkManager.sol\":738:779  chunkBytes[j - start] = bytes(content)[j] */\n      swap1\n      not(0xffffffffffffffffffffffffffffffffffffffffffffffffffffffffffffff)\n      and\n      swap1\n      dup2\n      0x00\n      byte\n      swap1\n      mstore8\n      pop\n        /* \"contracts/_ChunkManager.sol\":714:717  j++ */\n      dup1\n      dup1\n      0x01\n      add\n      swap2\n      pop\n      pop\n        /* \"contracts/_ChunkManager.sol\":681:795  for (uint256 j = start; j < end; j++) {... */\n      jump(tag_201)\n    tag_202:\n      pop\n        /* \"contracts/_ChunkManager.sol\":828:838  chunkBytes */\n      dup1\n        /* \"contracts/_ChunkManager.sol\":809:815  chunks */\n      dup6\n        /* \"contracts/_ChunkManager.sol\":816:817  i */\n      dup6\n        /* \"contracts/_ChunkManager.sol\":809:818  chunks[i] */\n      dup2\n      mload\n      dup2\n      lt\n      tag_209\n      jumpi\n      tag_210\n      tag_106\n      jump\t// in\n    tag_210:\n    tag_209:\n      0x20\n      mul\n      0x20\n      add\n      add\n        /* \"contracts/_ChunkManager.sol\":809:839  chunks[i] = string(chunkBytes) */\n      dup2\n      swap1\n      mstore\n      pop\n        /* \"contracts/_ChunkManager.sol\":404:851  {... */\n      pop\n      pop\n      pop\n        /* \"contracts/_ChunkManager.sol\":399:402  i++ */\n      dup1\n      dup1\n      0x01\n      add\n      swap2\n      pop\n      pop\n        /* \"contracts/_ChunkManager.sol\":364:851  for (uint256 i = 0; i < numChunks; i++) {... */\n      jump(tag_190)\n    tag_191:\n      pop\n        /* \"contracts/_ChunkManager.sol\":870:876  chunks */\n      dup1\n        /* \"contracts/_ChunkManager.sol\":863:876  return chunks */\n      swap4\n      pop\n      pop\n      pop\n      pop\n        /* \"contracts/_ChunkManager.sol\":92:884  function chunkContent(string memory content) internal pure returns (string[] memory) {... */\n      swap2\n      swap1\n      pop\n      jump\t// out\n        /* \"contracts/_NodeManager.sol\":1503:2352  function findAvailableNode(uint256 _chunkSize) internal view returns (address) {... */\n    tag_108:\n        /* \"contracts/_NodeManager.sol\":1573:1580  address */\n      0x00\n        /* \"contracts/_NodeManager.sol\":1593:1609  uint256 numNodes */\n      dup1\n        /* \"contracts/_NodeManager.sol\":1612:1620  allNodes */\n      0x01\n        /* \"contracts/_NodeManager.sol\":1612:1627  allNodes.length */\n      dup1\n      sload\n      swap1\n      pop\n        /* \"contracts/_NodeManager.sol\":1593:1627  uint256 numNodes = allNodes.length */\n      swap1\n      pop\n        /* \"contracts/_NodeManager.sol\":1638:1656  uint256 sizeOffset */\n      0x00\n        /* \"contracts/_NodeManager.sol\":1659:1661  50 */\n      0x32\n        /* \"contracts/_NodeManager.sol\":1638:1661  uint256 sizeOffset = 50 */\n      swap1\n      pop\n        /* \"contracts/_NodeManager.sol\":1690:1691  0 */\n      0x00\n        /* \"contracts/_NodeManager.sol\":1678:1686  numNodes */\n      dup3\n        /* \"contracts/_NodeManager.sol\":1678:1691  numNodes == 0 */\n      sub\n        /* \"contracts/_NodeManager.sol\":1674:1737  if (numNodes == 0) {... */\n      tag_212\n      jumpi\n        /* \"contracts/_NodeManager.sol\":1723:1724  0 */\n      0x00\n        /* \"contracts/_NodeManager.sol\":1708:1725  return address(0) */\n      swap3\n      pop\n      pop\n      pop\n      jump(tag_211)\n        /* \"contracts/_NodeManager.sol\":1674:1737  if (numNodes == 0) {... */\n    tag_212:\n        /* \"contracts/_NodeManager.sol\":1808:1827  uint256 randomIndex */\n      0x00\n        /* \"contracts/_NodeManager.sol\":1869:1877  numNodes */\n      dup3\n        /* \"contracts/_NodeManager.sol\":1863:1864  1 */\n      0x01\n        /* \"contracts/_NodeManager.sol\":1848:1860  block.number */\n      number\n        /* \"contracts/_NodeManager.sol\":1848:1864  block.number - 1 */\n      tag_213\n      swap2\n      swap1\n      tag_119\n      jump\t// in\n    tag_213:\n        /* \"contracts/_NodeManager.sol\":1838:1865  blockhash(block.number - 1) */\n      blockhash\n        /* \"contracts/_NodeManager.sol\":1830:1866  uint256(blockhash(block.number - 1)) */\n      0x00\n      shr\n        /* \"contracts/_NodeManager.sol\":1830:1877  uint256(blockhash(block.number - 1)) % numNodes */\n      tag_214\n      swap2\n      swap1\n      tag_215\n      jump\t// in\n    tag_214:\n        /* \"contracts/_NodeManager.sol\":1808:1877  uint256 randomIndex = uint256(blockhash(block.number - 1)) % numNodes */\n      swap1\n      pop\n        /* \"contracts/_NodeManager.sol\":1971:1980  uint256 i */\n      0x00\n        /* \"contracts/_NodeManager.sol\":1966:2285  for (uint256 i = 0; i < numNodes; i++) {... */\n    tag_216:\n        /* \"contracts/_NodeManager.sol\":1990:1998  numNodes */\n      dup4\n        /* \"contracts/_NodeManager.sol\":1986:1987  i */\n      dup2\n        /* \"contracts/_NodeManager.sol\":1986:1998  i < numNodes */\n      lt\n        /* \"contracts/_NodeManager.sol\":1966:2285  for (uint256 i = 0; i < numNodes; i++) {... */\n      iszero\n      tag_217\n      jumpi\n        /* \"contracts/_NodeManager.sol\":2020:2032  address node */\n      0x00\n        /* \"contracts/_NodeManager.sol\":2035:2043  allNodes */\n      0x01\n        /* \"contracts/_NodeManager.sol\":2064:2072  numNodes */\n      dup6\n        /* \"contracts/_NodeManager.sol\":2059:2060  i */\n      dup4\n        /* \"contracts/_NodeManager.sol\":2045:2056  randomIndex */\n      dup6\n        /* \"contracts/_NodeManager.sol\":2045:2060  randomIndex + i */\n      tag_219\n      swap2\n      swap1\n      tag_162\n      jump\t// in\n    tag_219:\n        /* \"contracts/_NodeManager.sol\":2044:2072  (randomIndex + i) % numNodes */\n      tag_220\n      swap2\n      swap1\n      tag_215\n      jump\t// in\n    tag_220:\n        /* \"contracts/_NodeManager.sol\":2035:2073  allNodes[(randomIndex + i) % numNodes] */\n      dup2\n      sload\n      dup2\n      lt\n      tag_221\n      jumpi\n      tag_222\n      tag_106\n      jump\t// in\n    tag_222:\n    tag_221:\n      swap1\n      0x00\n      mstore\n      keccak256(0x00, 0x20)\n      add\n      0x00\n      swap1\n      sload\n      swap1\n      0x0100\n      exp\n      swap1\n      div\n      0xffffffffffffffffffffffffffffffffffffffff\n      and\n        /* \"contracts/_NodeManager.sol\":2020:2073  address node = allNodes[(randomIndex + i) % numNodes] */\n      swap1\n      pop\n        /* \"contracts/_NodeManager.sol\":2136:2146  sizeOffset */\n      dup4\n        /* \"contracts/_NodeManager.sol\":2123:2133  _chunkSize */\n      dup8\n        /* \"contracts/_NodeManager.sol\":2123:2146  _chunkSize + sizeOffset */\n      tag_224\n      swap2\n      swap1\n      tag_162\n      jump\t// in\n    tag_224:\n        /* \"contracts/_NodeManager.sol\":2092:2097  nodes */\n      0x00\n        /* \"contracts/_NodeManager.sol\":2092:2103  nodes[node] */\n      dup1\n        /* \"contracts/_NodeManager.sol\":2098:2102  node */\n      dup4\n        /* \"contracts/_NodeManager.sol\":2092:2103  nodes[node] */\n      0xffffffffffffffffffffffffffffffffffffffff\n      and\n      0xffffffffffffffffffffffffffffffffffffffff\n      and\n      dup2\n      mstore\n      0x20\n      add\n      swap1\n      dup2\n      mstore\n      0x20\n      add\n      0x00\n      keccak256\n        /* \"contracts/_NodeManager.sol\":2092:2120  nodes[node].availableStorage */\n      0x01\n      add\n      sload\n        /* \"contracts/_NodeManager.sol\":2092:2146  nodes[node].availableStorage > _chunkSize + sizeOffset */\n      gt\n        /* \"contracts/_NodeManager.sol\":2088:2274  if (nodes[node].availableStorage > _chunkSize + sizeOffset) {... */\n      iszero\n      tag_225\n      jumpi\n        /* \"contracts/_NodeManager.sol\":2254:2258  node */\n      dup1\n        /* \"contracts/_NodeManager.sol\":2247:2258  return node */\n      swap6\n      pop\n      pop\n      pop\n      pop\n      pop\n      pop\n      jump(tag_211)\n        /* \"contracts/_NodeManager.sol\":2088:2274  if (nodes[node].availableStorage > _chunkSize + sizeOffset) {... */\n    tag_225:\n        /* \"contracts/_NodeManager.sol\":2005:2285  {... */\n      pop\n        /* \"contracts/_NodeManager.sol\":2000:2003  i++ */\n      dup1\n      dup1\n      0x01\n      add\n      swap2\n      pop\n      pop\n        /* \"contracts/_NodeManager.sol\":1966:2285  for (uint256 i = 0; i < numNodes; i++) {... */\n      jump(tag_216)\n    tag_217:\n      pop\n        /* \"contracts/_NodeManager.sol\":2341:2342  0 */\n      0x00\n        /* \"contracts/_NodeManager.sol\":2326:2343  return address(0) */\n      swap4\n      pop\n      pop\n      pop\n      pop\n        /* \"contracts/_NodeManager.sol\":1503:2352  function findAvailableNode(uint256 _chunkSize) internal view returns (address) {... */\n    tag_211:\n      swap2\n      swap1\n      pop\n      jump\t// out\n    tag_124:\n      mload(0x40)\n      dup1\n      0x40\n      add\n      0x40\n      mstore\n      dup1\n      and(0xffffffffffffffffffffffffffffffffffffffff, 0x00)\n      dup2\n      mstore\n      0x20\n      add\n      0x00\n      dup2\n      mstore\n      pop\n      swap1\n      jump\t// out\n    tag_144:\n      pop\n      dup1\n      sload\n      tag_226\n      swap1\n      tag_227\n      jump\t// in\n    tag_226:\n      0x00\n      dup3\n      sstore\n      dup1\n      0x1f\n      lt\n      tag_229\n      jumpi\n      pop\n      jump(tag_228)\n    tag_229:\n      0x1f\n      add\n      0x20\n      swap1\n      div\n      swap1\n      0x00\n      mstore\n      keccak256(0x00, 0x20)\n      swap1\n      dup2\n      add\n      swap1\n      tag_230\n      swap2\n      swap1\n      tag_231\n      jump\t// in\n    tag_230:\n    tag_228:\n      pop\n      jump\t// out\n    tag_147:\n      pop\n      dup1\n      sload\n      0x00\n      dup3\n      sstore\n      swap1\n      0x00\n      mstore\n      keccak256(0x00, 0x20)\n      swap1\n      dup2\n      add\n      swap1\n      tag_233\n      swap2\n      swap1\n      tag_231\n      jump\t// in\n    tag_233:\n      pop\n      jump\t// out\n    tag_231:\n    tag_234:\n      dup1\n      dup3\n      gt\n      iszero\n      tag_235\n      jumpi\n      0x00\n      dup2\n      0x00\n      swap1\n      sstore\n      pop\n      0x01\n      add\n      jump(tag_234)\n    tag_235:\n      pop\n      swap1\n      jump\t// out\n        /* \"#utility.yul\":7:82   */\n    tag_236:\n        /* \"#utility.yul\":40:46   */\n      0x00\n        /* \"#utility.yul\":73:75   */\n      0x40\n        /* \"#utility.yul\":67:76   */\n      mload\n        /* \"#utility.yul\":57:76   */\n      swap1\n      pop\n        /* \"#utility.yul\":7:82   */\n      swap1\n      jump\t// out\n        /* \"#utility.yul\":88:205   */\n    tag_237:\n        /* \"#utility.yul\":197:198   */\n      0x00\n        /* \"#utility.yul\":194:195   */\n      dup1\n        /* \"#utility.yul\":187:199   */\n      revert\n        /* \"#utility.yul\":211:328   */\n    tag_238:\n        /* \"#utility.yul\":320:321   */\n      0x00\n        /* \"#utility.yul\":317:318   */\n      dup1\n        /* \"#utility.yul\":310:322   */\n      revert\n        /* \"#utility.yul\":334:460   */\n    tag_239:\n        /* \"#utility.yul\":371:378   */\n      0x00\n        /* \"#utility.yul\":411:453   */\n      0xffffffffffffffffffffffffffffffffffffffff\n        /* \"#utility.yul\":404:409   */\n      dup3\n        /* \"#utility.yul\":400:454   */\n      and\n        /* \"#utility.yul\":389:454   */\n      swap1\n      pop\n        /* \"#utility.yul\":334:460   */\n      swap2\n      swap1\n      pop\n      jump\t// out\n        /* \"#utility.yul\":466:562   */\n    tag_240:\n        /* \"#utility.yul\":503:510   */\n      0x00\n        /* \"#utility.yul\":532:556   */\n      tag_306\n        /* \"#utility.yul\":550:555   */\n      dup3\n        /* \"#utility.yul\":532:556   */\n      tag_239\n      jump\t// in\n    tag_306:\n        /* \"#utility.yul\":521:556   */\n      swap1\n      pop\n        /* \"#utility.yul\":466:562   */\n      swap2\n      swap1\n      pop\n      jump\t// out\n        /* \"#utility.yul\":568:690   */\n    tag_241:\n        /* \"#utility.yul\":641:665   */\n      tag_308\n        /* \"#utility.yul\":659:664   */\n      dup2\n        /* \"#utility.yul\":641:665   */\n      tag_240\n      jump\t// in\n    tag_308:\n        /* \"#utility.yul\":634:639   */\n      dup2\n        /* \"#utility.yul\":631:666   */\n      eq\n        /* \"#utility.yul\":621:684   */\n      tag_309\n      jumpi\n        /* \"#utility.yul\":680:681   */\n      0x00\n        /* \"#utility.yul\":677:678   */\n      dup1\n        /* \"#utility.yul\":670:682   */\n      revert\n        /* \"#utility.yul\":621:684   */\n    tag_309:\n        /* \"#utility.yul\":568:690   */\n      pop\n      jump\t// out\n        /* \"#utility.yul\":696:835   */\n    tag_242:\n        /* \"#utility.yul\":742:747   */\n      0x00\n        /* \"#utility.yul\":780:786   */\n      dup2\n        /* \"#utility.yul\":767:787   */\n      calldataload\n        /* \"#utility.yul\":758:787   */\n      swap1\n      pop\n        /* \"#utility.yul\":796:829   */\n      tag_311\n        /* \"#utility.yul\":823:828   */\n      dup2\n        /* \"#utility.yul\":796:829   */\n      tag_241\n      jump\t// in\n    tag_311:\n        /* \"#utility.yul\":696:835   */\n      swap3\n      swap2\n      pop\n      pop\n      jump\t// out\n        /* \"#utility.yul\":841:918   */\n    tag_243:\n        /* \"#utility.yul\":878:885   */\n      0x00\n        /* \"#utility.yul\":907:912   */\n      dup2\n        /* \"#utility.yul\":896:912   */\n      swap1\n      pop\n        /* \"#utility.yul\":841:918   */\n      swap2\n      swap1\n      pop\n      jump\t// out\n        /* \"#utility.yul\":924:1046   */\n    tag_244:\n        /* \"#utility.yul\":997:1021   */\n      tag_314\n        /* \"#utility.yul\":1015:1020   */\n      dup2\n        /* \"#utility.yul\":997:1021   */\n      tag_243\n      jump\t// in\n    tag_314:\n        /* \"#utility.yul\":990:995   */\n      dup2\n        /* \"#utility.yul\":987:1022   */\n      eq\n        /* \"#utility.yul\":977:1040   */\n      tag_315\n      jumpi\n        /* \"#utility.yul\":1036:1037   */\n      0x00\n        /* \"#utility.yul\":1033:1034   */\n      dup1\n        /* \"#utility.yul\":1026:1038   */\n      revert\n        /* \"#utility.yul\":977:1040   */\n    tag_315:\n        /* \"#utility.yul\":924:1046   */\n      pop\n      jump\t// out\n        /* \"#utility.yul\":1052:1191   */\n    tag_245:\n        /* \"#utility.yul\":1098:1103   */\n      0x00\n        /* \"#utility.yul\":1136:1142   */\n      dup2\n        /* \"#utility.yul\":1123:1143   */\n      calldataload\n        /* \"#utility.yul\":1114:1143   */\n      swap1\n      pop\n        /* \"#utility.yul\":1152:1185   */\n      tag_317\n        /* \"#utility.yul\":1179:1184   */\n      dup2\n        /* \"#utility.yul\":1152:1185   */\n      tag_244\n      jump\t// in\n    tag_317:\n        /* \"#utility.yul\":1052:1191   */\n      swap3\n      swap2\n      pop\n      pop\n      jump\t// out\n        /* \"#utility.yul\":1197:1671   */\n    tag_20:\n        /* \"#utility.yul\":1265:1271   */\n      0x00\n        /* \"#utility.yul\":1273:1279   */\n      dup1\n        /* \"#utility.yul\":1322:1324   */\n      0x40\n        /* \"#utility.yul\":1310:1319   */\n      dup4\n        /* \"#utility.yul\":1301:1308   */\n      dup6\n        /* \"#utility.yul\":1297:1320   */\n      sub\n        /* \"#utility.yul\":1293:1325   */\n      slt\n        /* \"#utility.yul\":1290:1409   */\n      iszero\n      tag_319\n      jumpi\n        /* \"#utility.yul\":1328:1407   */\n      tag_320\n      tag_237\n      jump\t// in\n    tag_320:\n        /* \"#utility.yul\":1290:1409   */\n    tag_319:\n        /* \"#utility.yul\":1448:1449   */\n      0x00\n        /* \"#utility.yul\":1473:1526   */\n      tag_321\n        /* \"#utility.yul\":1518:1525   */\n      dup6\n        /* \"#utility.yul\":1509:1515   */\n      dup3\n        /* \"#utility.yul\":1498:1507   */\n      dup7\n        /* \"#utility.yul\":1494:1516   */\n      add\n        /* \"#utility.yul\":1473:1526   */\n      tag_242\n      jump\t// in\n    tag_321:\n        /* \"#utility.yul\":1463:1526   */\n      swap3\n      pop\n        /* \"#utility.yul\":1419:1536   */\n      pop\n        /* \"#utility.yul\":1575:1577   */\n      0x20\n        /* \"#utility.yul\":1601:1654   */\n      tag_322\n        /* \"#utility.yul\":1646:1653   */\n      dup6\n        /* \"#utility.yul\":1637:1643   */\n      dup3\n        /* \"#utility.yul\":1626:1635   */\n      dup7\n        /* \"#utility.yul\":1622:1644   */\n      add\n        /* \"#utility.yul\":1601:1654   */\n      tag_245\n      jump\t// in\n    tag_322:\n        /* \"#utility.yul\":1591:1654   */\n      swap2\n      pop\n        /* \"#utility.yul\":1546:1664   */\n      pop\n        /* \"#utility.yul\":1197:1671   */\n      swap3\n      pop\n      swap3\n      swap1\n      pop\n      jump\t// out\n        /* \"#utility.yul\":1677:2006   */\n    tag_24:\n        /* \"#utility.yul\":1736:1742   */\n      0x00\n        /* \"#utility.yul\":1785:1787   */\n      0x20\n        /* \"#utility.yul\":1773:1782   */\n      dup3\n        /* \"#utility.yul\":1764:1771   */\n      dup5\n        /* \"#utility.yul\":1760:1783   */\n      sub\n        /* \"#utility.yul\":1756:1788   */\n      slt\n        /* \"#utility.yul\":1753:1872   */\n      iszero\n      tag_324\n      jumpi\n        /* \"#utility.yul\":1791:1870   */\n      tag_325\n      tag_237\n      jump\t// in\n    tag_325:\n        /* \"#utility.yul\":1753:1872   */\n    tag_324:\n        /* \"#utility.yul\":1911:1912   */\n      0x00\n        /* \"#utility.yul\":1936:1989   */\n      tag_326\n        /* \"#utility.yul\":1981:1988   */\n      dup5\n        /* \"#utility.yul\":1972:1978   */\n      dup3\n        /* \"#utility.yul\":1961:1970   */\n      dup6\n        /* \"#utility.yul\":1957:1979   */\n      add\n        /* \"#utility.yul\":1936:1989   */\n      tag_242\n      jump\t// in\n    tag_326:\n        /* \"#utility.yul\":1926:1989   */\n      swap2\n      pop\n        /* \"#utility.yul\":1882:1999   */\n      pop\n        /* \"#utility.yul\":1677:2006   */\n      swap3\n      swap2\n      pop\n      pop\n      jump\t// out\n        /* \"#utility.yul\":2012:2130   */\n    tag_246:\n        /* \"#utility.yul\":2099:2123   */\n      tag_328\n        /* \"#utility.yul\":2117:2122   */\n      dup2\n        /* \"#utility.yul\":2099:2123   */\n      tag_240\n      jump\t// in\n    tag_328:\n        /* \"#utility.yul\":2094:2097   */\n      dup3\n        /* \"#utility.yul\":2087:2124   */\n      mstore\n        /* \"#utility.yul\":2012:2130   */\n      pop\n      pop\n      jump\t// out\n        /* \"#utility.yul\":2136:2254   */\n    tag_247:\n        /* \"#utility.yul\":2223:2247   */\n      tag_330\n        /* \"#utility.yul\":2241:2246   */\n      dup2\n        /* \"#utility.yul\":2223:2247   */\n      tag_243\n      jump\t// in\n    tag_330:\n        /* \"#utility.yul\":2218:2221   */\n      dup3\n        /* \"#utility.yul\":2211:2248   */\n      mstore\n        /* \"#utility.yul\":2136:2254   */\n      pop\n      pop\n      jump\t// out\n        /* \"#utility.yul\":2260:2592   */\n    tag_27:\n        /* \"#utility.yul\":2381:2385   */\n      0x00\n        /* \"#utility.yul\":2419:2421   */\n      0x40\n        /* \"#utility.yul\":2408:2417   */\n      dup3\n        /* \"#utility.yul\":2404:2422   */\n      add\n        /* \"#utility.yul\":2396:2422   */\n      swap1\n      pop\n        /* \"#utility.yul\":2432:2503   */\n      tag_332\n        /* \"#utility.yul\":2500:2501   */\n      0x00\n        /* \"#utility.yul\":2489:2498   */\n      dup4\n        /* \"#utility.yul\":2485:2502   */\n      add\n        /* \"#utility.yul\":2476:2482   */\n      dup6\n        /* \"#utility.yul\":2432:2503   */\n      tag_246\n      jump\t// in\n    tag_332:\n        /* \"#utility.yul\":2513:2585   */\n      tag_333\n        /* \"#utility.yul\":2581:2583   */\n      0x20\n        /* \"#utility.yul\":2570:2579   */\n      dup4\n        /* \"#utility.yul\":2566:2584   */\n      add\n        /* \"#utility.yul\":2557:2563   */\n      dup5\n        /* \"#utility.yul\":2513:2585   */\n      tag_247\n      jump\t// in\n    tag_333:\n        /* \"#utility.yul\":2260:2592   */\n      swap4\n      swap3\n      pop\n      pop\n      pop\n      jump\t// out\n        /* \"#utility.yul\":2598:2715   */\n    tag_248:\n        /* \"#utility.yul\":2707:2708   */\n      0x00\n        /* \"#utility.yul\":2704:2705   */\n      dup1\n        /* \"#utility.yul\":2697:2709   */\n      revert\n        /* \"#utility.yul\":2721:2838   */\n    tag_249:\n        /* \"#utility.yul\":2830:2831   */\n      0x00\n        /* \"#utility.yul\":2827:2828   */\n      dup1\n        /* \"#utility.yul\":2820:2832   */\n      revert\n        /* \"#utility.yul\":2844:2946   */\n    tag_250:\n        /* \"#utility.yul\":2885:2891   */\n      0x00\n        /* \"#utility.yul\":2936:2938   */\n      0x1f\n        /* \"#utility.yul\":2932:2939   */\n      not\n        /* \"#utility.yul\":2927:2929   */\n      0x1f\n        /* \"#utility.yul\":2920:2925   */\n      dup4\n        /* \"#utility.yul\":2916:2930   */\n      add\n        /* \"#utility.yul\":2912:2940   */\n      and\n        /* \"#utility.yul\":2902:2940   */\n      swap1\n      pop\n        /* \"#utility.yul\":2844:2946   */\n      swap2\n      swap1\n      pop\n      jump\t// out\n        /* \"#utility.yul\":2952:3132   */\n    tag_165:\n        /* \"#utility.yul\":3000:3077   */\n      0x4e487b7100000000000000000000000000000000000000000000000000000000\n        /* \"#utility.yul\":2997:2998   */\n      0x00\n        /* \"#utility.yul\":2990:3078   */\n      mstore\n        /* \"#utility.yul\":3097:3101   */\n      0x41\n        /* \"#utility.yul\":3094:3095   */\n      0x04\n        /* \"#utility.yul\":3087:3102   */\n      mstore\n        /* \"#utility.yul\":3121:3125   */\n      0x24\n        /* \"#utility.yul\":3118:3119   */\n      0x00\n        /* \"#utility.yul\":3111:3126   */\n      revert\n        /* \"#utility.yul\":3138:3419   */\n    tag_251:\n        /* \"#utility.yul\":3221:3248   */\n      tag_339\n        /* \"#utility.yul\":3243:3247   */\n      dup3\n        /* \"#utility.yul\":3221:3248   */\n      tag_250\n      jump\t// in\n    tag_339:\n        /* \"#utility.yul\":3213:3219   */\n      dup2\n        /* \"#utility.yul\":3209:3249   */\n      add\n        /* \"#utility.yul\":3351:3357   */\n      dup2\n        /* \"#utility.yul\":3339:3349   */\n      dup2\n        /* \"#utility.yul\":3336:3358   */\n      lt\n        /* \"#utility.yul\":3315:3333   */\n      0xffffffffffffffff\n        /* \"#utility.yul\":3303:3313   */\n      dup3\n        /* \"#utility.yul\":3300:3334   */\n      gt\n        /* \"#utility.yul\":3297:3359   */\n      or\n        /* \"#utility.yul\":3294:3382   */\n      iszero\n      tag_340\n      jumpi\n        /* \"#utility.yul\":3362:3380   */\n      tag_341\n      tag_165\n      jump\t// in\n    tag_341:\n        /* \"#utility.yul\":3294:3382   */\n    tag_340:\n        /* \"#utility.yul\":3402:3412   */\n      dup1\n        /* \"#utility.yul\":3398:3400   */\n      0x40\n        /* \"#utility.yul\":3391:3413   */\n      mstore\n        /* \"#utility.yul\":3181:3419   */\n      pop\n        /* \"#utility.yul\":3138:3419   */\n      pop\n      pop\n      jump\t// out\n        /* \"#utility.yul\":3425:3554   */\n    tag_252:\n        /* \"#utility.yul\":3459:3465   */\n      0x00\n        /* \"#utility.yul\":3486:3506   */\n      tag_343\n      tag_236\n      jump\t// in\n    tag_343:\n        /* \"#utility.yul\":3476:3506   */\n      swap1\n      pop\n        /* \"#utility.yul\":3515:3548   */\n      tag_344\n        /* \"#utility.yul\":3543:3547   */\n      dup3\n        /* \"#utility.yul\":3535:3541   */\n      dup3\n        /* \"#utility.yul\":3515:3548   */\n      tag_251\n      jump\t// in\n    tag_344:\n        /* \"#utility.yul\":3425:3554   */\n      swap2\n      swap1\n      pop\n      jump\t// out\n        /* \"#utility.yul\":3560:3868   */\n    tag_253:\n        /* \"#utility.yul\":3622:3626   */\n      0x00\n        /* \"#utility.yul\":3712:3730   */\n      0xffffffffffffffff\n        /* \"#utility.yul\":3704:3710   */\n      dup3\n        /* \"#utility.yul\":3701:3731   */\n      gt\n        /* \"#utility.yul\":3698:3754   */\n      iszero\n      tag_346\n      jumpi\n        /* \"#utility.yul\":3734:3752   */\n      tag_347\n      tag_165\n      jump\t// in\n    tag_347:\n        /* \"#utility.yul\":3698:3754   */\n    tag_346:\n        /* \"#utility.yul\":3772:3801   */\n      tag_348\n        /* \"#utility.yul\":3794:3800   */\n      dup3\n        /* \"#utility.yul\":3772:3801   */\n      tag_250\n      jump\t// in\n    tag_348:\n        /* \"#utility.yul\":3764:3801   */\n      swap1\n      pop\n        /* \"#utility.yul\":3856:3860   */\n      0x20\n        /* \"#utility.yul\":3850:3854   */\n      dup2\n        /* \"#utility.yul\":3846:3861   */\n      add\n        /* \"#utility.yul\":3838:3861   */\n      swap1\n      pop\n        /* \"#utility.yul\":3560:3868   */\n      swap2\n      swap1\n      pop\n      jump\t// out\n        /* \"#utility.yul\":3874:4020   */\n    tag_254:\n        /* \"#utility.yul\":3971:3977   */\n      dup3\n        /* \"#utility.yul\":3966:3969   */\n      dup2\n        /* \"#utility.yul\":3961:3964   */\n      dup4\n        /* \"#utility.yul\":3948:3978   */\n      calldatacopy\n        /* \"#utility.yul\":4012:4013   */\n      0x00\n        /* \"#utility.yul\":4003:4009   */\n      dup4\n        /* \"#utility.yul\":3998:4001   */\n      dup4\n        /* \"#utility.yul\":3994:4010   */\n      add\n        /* \"#utility.yul\":3987:4014   */\n      mstore\n        /* \"#utility.yul\":3874:4020   */\n      pop\n      pop\n      pop\n      jump\t// out\n        /* \"#utility.yul\":4026:4451   */\n    tag_255:\n        /* \"#utility.yul\":4104:4109   */\n      0x00\n        /* \"#utility.yul\":4129:4195   */\n      tag_351\n        /* \"#utility.yul\":4145:4194   */\n      tag_352\n        /* \"#utility.yul\":4187:4193   */\n      dup5\n        /* \"#utility.yul\":4145:4194   */\n      tag_253\n      jump\t// in\n    tag_352:\n        /* \"#utility.yul\":4129:4195   */\n      tag_252\n      jump\t// in\n    tag_351:\n        /* \"#utility.yul\":4120:4195   */\n      swap1\n      pop\n        /* \"#utility.yul\":4218:4224   */\n      dup3\n        /* \"#utility.yul\":4211:4216   */\n      dup2\n        /* \"#utility.yul\":4204:4225   */\n      mstore\n        /* \"#utility.yul\":4256:4260   */\n      0x20\n        /* \"#utility.yul\":4249:4254   */\n      dup2\n        /* \"#utility.yul\":4245:4261   */\n      add\n        /* \"#utility.yul\":4294:4297   */\n      dup5\n        /* \"#utility.yul\":4285:4291   */\n      dup5\n        /* \"#utility.yul\":4280:4283   */\n      dup5\n        /* \"#utility.yul\":4276:4292   */\n      add\n        /* \"#utility.yul\":4273:4298   */\n      gt\n        /* \"#utility.yul\":4270:4382   */\n      iszero\n      tag_353\n      jumpi\n        /* \"#utility.yul\":4301:4380   */\n      tag_354\n      tag_249\n      jump\t// in\n    tag_354:\n        /* \"#utility.yul\":4270:4382   */\n    tag_353:\n        /* \"#utility.yul\":4391:4445   */\n      tag_355\n        /* \"#utility.yul\":4438:4444   */\n      dup5\n        /* \"#utility.yul\":4433:4436   */\n      dup3\n        /* \"#utility.yul\":4428:4431   */\n      dup6\n        /* \"#utility.yul\":4391:4445   */\n      tag_254\n      jump\t// in\n    tag_355:\n        /* \"#utility.yul\":4110:4451   */\n      pop\n        /* \"#utility.yul\":4026:4451   */\n      swap4\n      swap3\n      pop\n      pop\n      pop\n      jump\t// out\n        /* \"#utility.yul\":4471:4811   */\n    tag_256:\n        /* \"#utility.yul\":4527:4532   */\n      0x00\n        /* \"#utility.yul\":4576:4579   */\n      dup3\n        /* \"#utility.yul\":4569:4573   */\n      0x1f\n        /* \"#utility.yul\":4561:4567   */\n      dup4\n        /* \"#utility.yul\":4557:4574   */\n      add\n        /* \"#utility.yul\":4553:4580   */\n      slt\n        /* \"#utility.yul\":4543:4665   */\n      tag_357\n      jumpi\n        /* \"#utility.yul\":4584:4663   */\n      tag_358\n      tag_248\n      jump\t// in\n    tag_358:\n        /* \"#utility.yul\":4543:4665   */\n    tag_357:\n        /* \"#utility.yul\":4701:4707   */\n      dup2\n        /* \"#utility.yul\":4688:4708   */\n      calldataload\n        /* \"#utility.yul\":4726:4805   */\n      tag_359\n        /* \"#utility.yul\":4801:4804   */\n      dup5\n        /* \"#utility.yul\":4793:4799   */\n      dup3\n        /* \"#utility.yul\":4786:4790   */\n      0x20\n        /* \"#utility.yul\":4778:4784   */\n      dup7\n        /* \"#utility.yul\":4774:4791   */\n      add\n        /* \"#utility.yul\":4726:4805   */\n      tag_255\n      jump\t// in\n    tag_359:\n        /* \"#utility.yul\":4717:4805   */\n      swap2\n      pop\n        /* \"#utility.yul\":4533:4811   */\n      pop\n        /* \"#utility.yul\":4471:4811   */\n      swap3\n      swap2\n      pop\n      pop\n      jump\t// out\n        /* \"#utility.yul\":4817:5326   */\n    tag_30:\n        /* \"#utility.yul\":4886:4892   */\n      0x00\n        /* \"#utility.yul\":4935:4937   */\n      0x20\n        /* \"#utility.yul\":4923:4932   */\n      dup3\n        /* \"#utility.yul\":4914:4921   */\n      dup5\n        /* \"#utility.yul\":4910:4933   */\n      sub\n        /* \"#utility.yul\":4906:4938   */\n      slt\n        /* \"#utility.yul\":4903:5022   */\n      iszero\n      tag_361\n      jumpi\n        /* \"#utility.yul\":4941:5020   */\n      tag_362\n      tag_237\n      jump\t// in\n    tag_362:\n        /* \"#utility.yul\":4903:5022   */\n    tag_361:\n        /* \"#utility.yul\":5089:5090   */\n      0x00\n        /* \"#utility.yul\":5078:5087   */\n      dup3\n        /* \"#utility.yul\":5074:5091   */\n      add\n        /* \"#utility.yul\":5061:5092   */\n      calldataload\n        /* \"#utility.yul\":5119:5137   */\n      0xffffffffffffffff\n        /* \"#utility.yul\":5111:5117   */\n      dup2\n        /* \"#utility.yul\":5108:5138   */\n      gt\n        /* \"#utility.yul\":5105:5222   */\n      iszero\n      tag_363\n      jumpi\n        /* \"#utility.yul\":5141:5220   */\n      tag_364\n      tag_238\n      jump\t// in\n    tag_364:\n        /* \"#utility.yul\":5105:5222   */\n    tag_363:\n        /* \"#utility.yul\":5246:5309   */\n      tag_365\n        /* \"#utility.yul\":5301:5308   */\n      dup5\n        /* \"#utility.yul\":5292:5298   */\n      dup3\n        /* \"#utility.yul\":5281:5290   */\n      dup6\n        /* \"#utility.yul\":5277:5299   */\n      add\n        /* \"#utility.yul\":5246:5309   */\n      tag_256\n      jump\t// in\n    tag_365:\n        /* \"#utility.yul\":5236:5309   */\n      swap2\n      pop\n        /* \"#utility.yul\":5032:5319   */\n      pop\n        /* \"#utility.yul\":4817:5326   */\n      swap3\n      swap2\n      pop\n      pop\n      jump\t// out\n        /* \"#utility.yul\":5332:5431   */\n    tag_257:\n        /* \"#utility.yul\":5384:5390   */\n      0x00\n        /* \"#utility.yul\":5418:5423   */\n      dup2\n        /* \"#utility.yul\":5412:5424   */\n      mload\n        /* \"#utility.yul\":5402:5424   */\n      swap1\n      pop\n        /* \"#utility.yul\":5332:5431   */\n      swap2\n      swap1\n      pop\n      jump\t// out\n        /* \"#utility.yul\":5437:5606   */\n    tag_258:\n        /* \"#utility.yul\":5521:5532   */\n      0x00\n        /* \"#utility.yul\":5555:5561   */\n      dup3\n        /* \"#utility.yul\":5550:5553   */\n      dup3\n        /* \"#utility.yul\":5543:5562   */\n      mstore\n        /* \"#utility.yul\":5595:5599   */\n      0x20\n        /* \"#utility.yul\":5590:5593   */\n      dup3\n        /* \"#utility.yul\":5586:5600   */\n      add\n        /* \"#utility.yul\":5571:5600   */\n      swap1\n      pop\n        /* \"#utility.yul\":5437:5606   */\n      swap3\n      swap2\n      pop\n      pop\n      jump\t// out\n        /* \"#utility.yul\":5612:5858   */\n    tag_259:\n        /* \"#utility.yul\":5693:5694   */\n      0x00\n        /* \"#utility.yul\":5703:5816   */\n    tag_369:\n        /* \"#utility.yul\":5717:5723   */\n      dup4\n        /* \"#utility.yul\":5714:5715   */\n      dup2\n        /* \"#utility.yul\":5711:5724   */\n      lt\n        /* \"#utility.yul\":5703:5816   */\n      iszero\n      tag_371\n      jumpi\n        /* \"#utility.yul\":5802:5803   */\n      dup1\n        /* \"#utility.yul\":5797:5800   */\n      dup3\n        /* \"#utility.yul\":5793:5804   */\n      add\n        /* \"#utility.yul\":5787:5805   */\n      mload\n        /* \"#utility.yul\":5783:5784   */\n      dup2\n        /* \"#utility.yul\":5778:5781   */\n      dup5\n        /* \"#utility.yul\":5774:5785   */\n      add\n        /* \"#utility.yul\":5767:5806   */\n      mstore\n        /* \"#utility.yul\":5739:5741   */\n      0x20\n        /* \"#utility.yul\":5736:5737   */\n      dup2\n        /* \"#utility.yul\":5732:5742   */\n      add\n        /* \"#utility.yul\":5727:5742   */\n      swap1\n      pop\n        /* \"#utility.yul\":5703:5816   */\n      jump(tag_369)\n    tag_371:\n        /* \"#utility.yul\":5850:5851   */\n      0x00\n        /* \"#utility.yul\":5841:5847   */\n      dup5\n        /* \"#utility.yul\":5836:5839   */\n      dup5\n        /* \"#utility.yul\":5832:5848   */\n      add\n        /* \"#utility.yul\":5825:5852   */\n      mstore\n        /* \"#utility.yul\":5674:5858   */\n      pop\n        /* \"#utility.yul\":5612:5858   */\n      pop\n      pop\n      pop\n      jump\t// out\n        /* \"#utility.yul\":5864:6241   */\n    tag_260:\n        /* \"#utility.yul\":5952:5955   */\n      0x00\n        /* \"#utility.yul\":5980:6019   */\n      tag_373\n        /* \"#utility.yul\":6013:6018   */\n      dup3\n        /* \"#utility.yul\":5980:6019   */\n      tag_257\n      jump\t// in\n    tag_373:\n        /* \"#utility.yul\":6035:6106   */\n      tag_374\n        /* \"#utility.yul\":6099:6105   */\n      dup2\n        /* \"#utility.yul\":6094:6097   */\n      dup6\n        /* \"#utility.yul\":6035:6106   */\n      tag_258\n      jump\t// in\n    tag_374:\n        /* \"#utility.yul\":6028:6106   */\n      swap4\n      pop\n        /* \"#utility.yul\":6115:6180   */\n      tag_375\n        /* \"#utility.yul\":6173:6179   */\n      dup2\n        /* \"#utility.yul\":6168:6171   */\n      dup6\n        /* \"#utility.yul\":6161:6165   */\n      0x20\n        /* \"#utility.yul\":6154:6159   */\n      dup7\n        /* \"#utility.yul\":6150:6166   */\n      add\n        /* \"#utility.yul\":6115:6180   */\n      tag_259\n      jump\t// in\n    tag_375:\n        /* \"#utility.yul\":6205:6234   */\n      tag_376\n        /* \"#utility.yul\":6227:6233   */\n      dup2\n        /* \"#utility.yul\":6205:6234   */\n      tag_250\n      jump\t// in\n    tag_376:\n        /* \"#utility.yul\":6200:6203   */\n      dup5\n        /* \"#utility.yul\":6196:6235   */\n      add\n        /* \"#utility.yul\":6189:6235   */\n      swap2\n      pop\n        /* \"#utility.yul\":5956:6241   */\n      pop\n        /* \"#utility.yul\":5864:6241   */\n      swap3\n      swap2\n      pop\n      pop\n      jump\t// out\n        /* \"#utility.yul\":6247:6560   */\n    tag_33:\n        /* \"#utility.yul\":6360:6364   */\n      0x00\n        /* \"#utility.yul\":6398:6400   */\n      0x20\n        /* \"#utility.yul\":6387:6396   */\n      dup3\n        /* \"#utility.yul\":6383:6401   */\n      add\n        /* \"#utility.yul\":6375:6401   */\n      swap1\n      pop\n        /* \"#utility.yul\":6447:6456   */\n      dup2\n        /* \"#utility.yul\":6441:6445   */\n      dup2\n        /* \"#utility.yul\":6437:6457   */\n      sub\n        /* \"#utility.yul\":6433:6434   */\n      0x00\n        /* \"#utility.yul\":6422:6431   */\n      dup4\n        /* \"#utility.yul\":6418:6435   */\n      add\n        /* \"#utility.yul\":6411:6458   */\n      mstore\n        /* \"#utility.yul\":6475:6553   */\n      tag_378\n        /* \"#utility.yul\":6548:6552   */\n      dup2\n        /* \"#utility.yul\":6539:6545   */\n      dup5\n        /* \"#utility.yul\":6475:6553   */\n      tag_260\n      jump\t// in\n    tag_378:\n        /* \"#utility.yul\":6467:6553   */\n      swap1\n      pop\n        /* \"#utility.yul\":6247:6560   */\n      swap3\n      swap2\n      pop\n      pop\n      jump\t// out\n        /* \"#utility.yul\":6566:7220   */\n    tag_36:\n        /* \"#utility.yul\":6644:6650   */\n      0x00\n        /* \"#utility.yul\":6652:6658   */\n      dup1\n        /* \"#utility.yul\":6701:6703   */\n      0x40\n        /* \"#utility.yul\":6689:6698   */\n      dup4\n        /* \"#utility.yul\":6680:6687   */\n      dup6\n        /* \"#utility.yul\":6676:6699   */\n      sub\n        /* \"#utility.yul\":6672:6704   */\n      slt\n        /* \"#utility.yul\":6669:6788   */\n      iszero\n      tag_380\n      jumpi\n        /* \"#utility.yul\":6707:6786   */\n      tag_381\n      tag_237\n      jump\t// in\n    tag_381:\n        /* \"#utility.yul\":6669:6788   */\n    tag_380:\n        /* \"#utility.yul\":6827:6828   */\n      0x00\n        /* \"#utility.yul\":6852:6905   */\n      tag_382\n        /* \"#utility.yul\":6897:6904   */\n      dup6\n        /* \"#utility.yul\":6888:6894   */\n      dup3\n        /* \"#utility.yul\":6877:6886   */\n      dup7\n        /* \"#utility.yul\":6873:6895   */\n      add\n        /* \"#utility.yul\":6852:6905   */\n      tag_242\n      jump\t// in\n    tag_382:\n        /* \"#utility.yul\":6842:6905   */\n      swap3\n      pop\n        /* \"#utility.yul\":6798:6915   */\n      pop\n        /* \"#utility.yul\":6982:6984   */\n      0x20\n        /* \"#utility.yul\":6971:6980   */\n      dup4\n        /* \"#utility.yul\":6967:6985   */\n      add\n        /* \"#utility.yul\":6954:6986   */\n      calldataload\n        /* \"#utility.yul\":7013:7031   */\n      0xffffffffffffffff\n        /* \"#utility.yul\":7005:7011   */\n      dup2\n        /* \"#utility.yul\":7002:7032   */\n      gt\n        /* \"#utility.yul\":6999:7116   */\n      iszero\n      tag_383\n      jumpi\n        /* \"#utility.yul\":7035:7114   */\n      tag_384\n      tag_238\n      jump\t// in\n    tag_384:\n        /* \"#utility.yul\":6999:7116   */\n    tag_383:\n        /* \"#utility.yul\":7140:7203   */\n      tag_385\n        /* \"#utility.yul\":7195:7202   */\n      dup6\n        /* \"#utility.yul\":7186:7192   */\n      dup3\n        /* \"#utility.yul\":7175:7184   */\n      dup7\n        /* \"#utility.yul\":7171:7193   */\n      add\n        /* \"#utility.yul\":7140:7203   */\n      tag_256\n      jump\t// in\n    tag_385:\n        /* \"#utility.yul\":7130:7203   */\n      swap2\n      pop\n        /* \"#utility.yul\":6925:7213   */\n      pop\n        /* \"#utility.yul\":6566:7220   */\n      swap3\n      pop\n      swap3\n      swap1\n      pop\n      jump\t// out\n        /* \"#utility.yul\":7226:8385   */\n    tag_45:\n        /* \"#utility.yul\":7333:7339   */\n      0x00\n        /* \"#utility.yul\":7341:7347   */\n      dup1\n        /* \"#utility.yul\":7349:7355   */\n      0x00\n        /* \"#utility.yul\":7398:7400   */\n      0x60\n        /* \"#utility.yul\":7386:7395   */\n      dup5\n        /* \"#utility.yul\":7377:7384   */\n      dup7\n        /* \"#utility.yul\":7373:7396   */\n      sub\n        /* \"#utility.yul\":7369:7401   */\n      slt\n        /* \"#utility.yul\":7366:7485   */\n      iszero\n      tag_387\n      jumpi\n        /* \"#utility.yul\":7404:7483   */\n      tag_388\n      tag_237\n      jump\t// in\n    tag_388:\n        /* \"#utility.yul\":7366:7485   */\n    tag_387:\n        /* \"#utility.yul\":7552:7553   */\n      0x00\n        /* \"#utility.yul\":7541:7550   */\n      dup5\n        /* \"#utility.yul\":7537:7554   */\n      add\n        /* \"#utility.yul\":7524:7555   */\n      calldataload\n        /* \"#utility.yul\":7582:7600   */\n      0xffffffffffffffff\n        /* \"#utility.yul\":7574:7580   */\n      dup2\n        /* \"#utility.yul\":7571:7601   */\n      gt\n        /* \"#utility.yul\":7568:7685   */\n      iszero\n      tag_389\n      jumpi\n        /* \"#utility.yul\":7604:7683   */\n      tag_390\n      tag_238\n      jump\t// in\n    tag_390:\n        /* \"#utility.yul\":7568:7685   */\n    tag_389:\n        /* \"#utility.yul\":7709:7772   */\n      tag_391\n        /* \"#utility.yul\":7764:7771   */\n      dup7\n        /* \"#utility.yul\":7755:7761   */\n      dup3\n        /* \"#utility.yul\":7744:7753   */\n      dup8\n        /* \"#utility.yul\":7740:7762   */\n      add\n        /* \"#utility.yul\":7709:7772   */\n      tag_256\n      jump\t// in\n    tag_391:\n        /* \"#utility.yul\":7699:7772   */\n      swap4\n      pop\n        /* \"#utility.yul\":7495:7782   */\n      pop\n        /* \"#utility.yul\":7849:7851   */\n      0x20\n        /* \"#utility.yul\":7838:7847   */\n      dup5\n        /* \"#utility.yul\":7834:7852   */\n      add\n        /* \"#utility.yul\":7821:7853   */\n      calldataload\n        /* \"#utility.yul\":7880:7898   */\n      0xffffffffffffffff\n        /* \"#utility.yul\":7872:7878   */\n      dup2\n        /* \"#utility.yul\":7869:7899   */\n      gt\n        /* \"#utility.yul\":7866:7983   */\n      iszero\n      tag_392\n      jumpi\n        /* \"#utility.yul\":7902:7981   */\n      tag_393\n      tag_238\n      jump\t// in\n    tag_393:\n        /* \"#utility.yul\":7866:7983   */\n    tag_392:\n        /* \"#utility.yul\":8007:8070   */\n      tag_394\n        /* \"#utility.yul\":8062:8069   */\n      dup7\n        /* \"#utility.yul\":8053:8059   */\n      dup3\n        /* \"#utility.yul\":8042:8051   */\n      dup8\n        /* \"#utility.yul\":8038:8060   */\n      add\n        /* \"#utility.yul\":8007:8070   */\n      tag_256\n      jump\t// in\n    tag_394:\n        /* \"#utility.yul\":7997:8070   */\n      swap3\n      pop\n        /* \"#utility.yul\":7792:8080   */\n      pop\n        /* \"#utility.yul\":8147:8149   */\n      0x40\n        /* \"#utility.yul\":8136:8145   */\n      dup5\n        /* \"#utility.yul\":8132:8150   */\n      add\n        /* \"#utility.yul\":8119:8151   */\n      calldataload\n        /* \"#utility.yul\":8178:8196   */\n      0xffffffffffffffff\n        /* \"#utility.yul\":8170:8176   */\n      dup2\n        /* \"#utility.yul\":8167:8197   */\n      gt\n        /* \"#utility.yul\":8164:8281   */\n      iszero\n      tag_395\n      jumpi\n        /* \"#utility.yul\":8200:8279   */\n      tag_396\n      tag_238\n      jump\t// in\n    tag_396:\n        /* \"#utility.yul\":8164:8281   */\n    tag_395:\n        /* \"#utility.yul\":8305:8368   */\n      tag_397\n        /* \"#utility.yul\":8360:8367   */\n      dup7\n        /* \"#utility.yul\":8351:8357   */\n      dup3\n        /* \"#utility.yul\":8340:8349   */\n      dup8\n        /* \"#utility.yul\":8336:8358   */\n      add\n        /* \"#utility.yul\":8305:8368   */\n      tag_256\n      jump\t// in\n    tag_397:\n        /* \"#utility.yul\":8295:8368   */\n      swap2\n      pop\n        /* \"#utility.yul\":8090:8378   */\n      pop\n        /* \"#utility.yul\":7226:8385   */\n      swap3\n      pop\n      swap3\n      pop\n      swap3\n      jump\t// out\n        /* \"#utility.yul\":8391:8613   */\n    tag_50:\n        /* \"#utility.yul\":8484:8488   */\n      0x00\n        /* \"#utility.yul\":8522:8524   */\n      0x20\n        /* \"#utility.yul\":8511:8520   */\n      dup3\n        /* \"#utility.yul\":8507:8525   */\n      add\n        /* \"#utility.yul\":8499:8525   */\n      swap1\n      pop\n        /* \"#utility.yul\":8535:8606   */\n      tag_399\n        /* \"#utility.yul\":8603:8604   */\n      0x00\n        /* \"#utility.yul\":8592:8601   */\n      dup4\n        /* \"#utility.yul\":8588:8605   */\n      add\n        /* \"#utility.yul\":8579:8585   */\n      dup5\n        /* \"#utility.yul\":8535:8606   */\n      tag_246\n      jump\t// in\n    tag_399:\n        /* \"#utility.yul\":8391:8613   */\n      swap3\n      swap2\n      pop\n      pop\n      jump\t// out\n        /* \"#utility.yul\":8619:8733   */\n    tag_261:\n        /* \"#utility.yul\":8686:8692   */\n      0x00\n        /* \"#utility.yul\":8720:8725   */\n      dup2\n        /* \"#utility.yul\":8714:8726   */\n      mload\n        /* \"#utility.yul\":8704:8726   */\n      swap1\n      pop\n        /* \"#utility.yul\":8619:8733   */\n      swap2\n      swap1\n      pop\n      jump\t// out\n        /* \"#utility.yul\":8739:8923   */\n    tag_262:\n        /* \"#utility.yul\":8838:8849   */\n      0x00\n        /* \"#utility.yul\":8872:8878   */\n      dup3\n        /* \"#utility.yul\":8867:8870   */\n      dup3\n        /* \"#utility.yul\":8860:8879   */\n      mstore\n        /* \"#utility.yul\":8912:8916   */\n      0x20\n        /* \"#utility.yul\":8907:8910   */\n      dup3\n        /* \"#utility.yul\":8903:8917   */\n      add\n        /* \"#utility.yul\":8888:8917   */\n      swap1\n      pop\n        /* \"#utility.yul\":8739:8923   */\n      swap3\n      swap2\n      pop\n      pop\n      jump\t// out\n        /* \"#utility.yul\":8929:9061   */\n    tag_263:\n        /* \"#utility.yul\":8996:9000   */\n      0x00\n        /* \"#utility.yul\":9019:9022   */\n      dup2\n        /* \"#utility.yul\":9011:9022   */\n      swap1\n      pop\n        /* \"#utility.yul\":9049:9053   */\n      0x20\n        /* \"#utility.yul\":9044:9047   */\n      dup3\n        /* \"#utility.yul\":9040:9054   */\n      add\n        /* \"#utility.yul\":9032:9054   */\n      swap1\n      pop\n        /* \"#utility.yul\":8929:9061   */\n      swap2\n      swap1\n      pop\n      jump\t// out\n        /* \"#utility.yul\":9067:9175   */\n    tag_264:\n        /* \"#utility.yul\":9144:9168   */\n      tag_404\n        /* \"#utility.yul\":9162:9167   */\n      dup2\n        /* \"#utility.yul\":9144:9168   */\n      tag_240\n      jump\t// in\n    tag_404:\n        /* \"#utility.yul\":9139:9142   */\n      dup3\n        /* \"#utility.yul\":9132:9169   */\n      mstore\n        /* \"#utility.yul\":9067:9175   */\n      pop\n      pop\n      jump\t// out\n        /* \"#utility.yul\":9181:9360   */\n    tag_265:\n        /* \"#utility.yul\":9250:9260   */\n      0x00\n        /* \"#utility.yul\":9271:9317   */\n      tag_406\n        /* \"#utility.yul\":9313:9316   */\n      dup4\n        /* \"#utility.yul\":9305:9311   */\n      dup4\n        /* \"#utility.yul\":9271:9317   */\n      tag_264\n      jump\t// in\n    tag_406:\n        /* \"#utility.yul\":9349:9353   */\n      0x20\n        /* \"#utility.yul\":9344:9347   */\n      dup4\n        /* \"#utility.yul\":9340:9354   */\n      add\n        /* \"#utility.yul\":9326:9354   */\n      swap1\n      pop\n        /* \"#utility.yul\":9181:9360   */\n      swap3\n      swap2\n      pop\n      pop\n      jump\t// out\n        /* \"#utility.yul\":9366:9479   */\n    tag_266:\n        /* \"#utility.yul\":9436:9440   */\n      0x00\n        /* \"#utility.yul\":9468:9472   */\n      0x20\n        /* \"#utility.yul\":9463:9466   */\n      dup3\n        /* \"#utility.yul\":9459:9473   */\n      add\n        /* \"#utility.yul\":9451:9473   */\n      swap1\n      pop\n        /* \"#utility.yul\":9366:9479   */\n      swap2\n      swap1\n      pop\n      jump\t// out\n        /* \"#utility.yul\":9515:10247   */\n    tag_267:\n        /* \"#utility.yul\":9634:9637   */\n      0x00\n        /* \"#utility.yul\":9663:9717   */\n      tag_409\n        /* \"#utility.yul\":9711:9716   */\n      dup3\n        /* \"#utility.yul\":9663:9717   */\n      tag_261\n      jump\t// in\n    tag_409:\n        /* \"#utility.yul\":9733:9819   */\n      tag_410\n        /* \"#utility.yul\":9812:9818   */\n      dup2\n        /* \"#utility.yul\":9807:9810   */\n      dup6\n        /* \"#utility.yul\":9733:9819   */\n      tag_262\n      jump\t// in\n    tag_410:\n        /* \"#utility.yul\":9726:9819   */\n      swap4\n      pop\n        /* \"#utility.yul\":9843:9899   */\n      tag_411\n        /* \"#utility.yul\":9893:9898   */\n      dup4\n        /* \"#utility.yul\":9843:9899   */\n      tag_263\n      jump\t// in\n    tag_411:\n        /* \"#utility.yul\":9922:9929   */\n      dup1\n        /* \"#utility.yul\":9953:9954   */\n      0x00\n        /* \"#utility.yul\":9938:10222   */\n    tag_412:\n        /* \"#utility.yul\":9963:9969   */\n      dup4\n        /* \"#utility.yul\":9960:9961   */\n      dup2\n        /* \"#utility.yul\":9957:9970   */\n      lt\n        /* \"#utility.yul\":9938:10222   */\n      iszero\n      tag_414\n      jumpi\n        /* \"#utility.yul\":10039:10045   */\n      dup2\n        /* \"#utility.yul\":10033:10046   */\n      mload\n        /* \"#utility.yul\":10066:10129   */\n      tag_415\n        /* \"#utility.yul\":10125:10128   */\n      dup9\n        /* \"#utility.yul\":10110:10123   */\n      dup3\n        /* \"#utility.yul\":10066:10129   */\n      tag_265\n      jump\t// in\n    tag_415:\n        /* \"#utility.yul\":10059:10129   */\n      swap8\n      pop\n        /* \"#utility.yul\":10152:10212   */\n      tag_416\n        /* \"#utility.yul\":10205:10211   */\n      dup4\n        /* \"#utility.yul\":10152:10212   */\n      tag_266\n      jump\t// in\n    tag_416:\n        /* \"#utility.yul\":10142:10212   */\n      swap3\n      pop\n        /* \"#utility.yul\":9998:10222   */\n      pop\n        /* \"#utility.yul\":9985:9986   */\n      0x01\n        /* \"#utility.yul\":9982:9983   */\n      dup2\n        /* \"#utility.yul\":9978:9987   */\n      add\n        /* \"#utility.yul\":9973:9987   */\n      swap1\n      pop\n        /* \"#utility.yul\":9938:10222   */\n      jump(tag_412)\n    tag_414:\n        /* \"#utility.yul\":9942:9956   */\n      pop\n        /* \"#utility.yul\":10238:10241   */\n      dup6\n        /* \"#utility.yul\":10231:10241   */\n      swap4\n      pop\n        /* \"#utility.yul\":9639:10247   */\n      pop\n      pop\n      pop\n        /* \"#utility.yul\":9515:10247   */\n      swap3\n      swap2\n      pop\n      pop\n      jump\t// out\n        /* \"#utility.yul\":10253:10626   */\n    tag_54:\n        /* \"#utility.yul\":10396:10400   */\n      0x00\n        /* \"#utility.yul\":10434:10436   */\n      0x20\n        /* \"#utility.yul\":10423:10432   */\n      dup3\n        /* \"#utility.yul\":10419:10437   */\n      add\n        /* \"#utility.yul\":10411:10437   */\n      swap1\n      pop\n        /* \"#utility.yul\":10483:10492   */\n      dup2\n        /* \"#utility.yul\":10477:10481   */\n      dup2\n        /* \"#utility.yul\":10473:10493   */\n      sub\n        /* \"#utility.yul\":10469:10470   */\n      0x00\n        /* \"#utility.yul\":10458:10467   */\n      dup4\n        /* \"#utility.yul\":10454:10471   */\n      add\n        /* \"#utility.yul\":10447:10494   */\n      mstore\n        /* \"#utility.yul\":10511:10619   */\n      tag_418\n        /* \"#utility.yul\":10614:10618   */\n      dup2\n        /* \"#utility.yul\":10605:10611   */\n      dup5\n        /* \"#utility.yul\":10511:10619   */\n      tag_267\n      jump\t// in\n    tag_418:\n        /* \"#utility.yul\":10503:10619   */\n      swap1\n      pop\n        /* \"#utility.yul\":10253:10626   */\n      swap3\n      swap2\n      pop\n      pop\n      jump\t// out\n        /* \"#utility.yul\":10632:10740   */\n    tag_268:\n        /* \"#utility.yul\":10709:10733   */\n      tag_420\n        /* \"#utility.yul\":10727:10732   */\n      dup2\n        /* \"#utility.yul\":10709:10733   */\n      tag_243\n      jump\t// in\n    tag_420:\n        /* \"#utility.yul\":10704:10707   */\n      dup3\n        /* \"#utility.yul\":10697:10734   */\n      mstore\n        /* \"#utility.yul\":10632:10740   */\n      pop\n      pop\n      jump\t// out\n        /* \"#utility.yul\":10804:11322   */\n    tag_269:\n        /* \"#utility.yul\":10943:10947   */\n      0x40\n        /* \"#utility.yul\":10938:10941   */\n      dup3\n        /* \"#utility.yul\":10934:10948   */\n      add\n        /* \"#utility.yul\":11037:11041   */\n      0x00\n        /* \"#utility.yul\":11030:11035   */\n      dup3\n        /* \"#utility.yul\":11026:11042   */\n      add\n        /* \"#utility.yul\":11020:11043   */\n      mload\n        /* \"#utility.yul\":11056:11119   */\n      tag_422\n        /* \"#utility.yul\":11113:11117   */\n      0x00\n        /* \"#utility.yul\":11108:11111   */\n      dup6\n        /* \"#utility.yul\":11104:11118   */\n      add\n        /* \"#utility.yul\":11090:11102   */\n      dup3\n        /* \"#utility.yul\":11056:11119   */\n      tag_264\n      jump\t// in\n    tag_422:\n        /* \"#utility.yul\":10958:11129   */\n      pop\n        /* \"#utility.yul\":11223:11227   */\n      0x20\n        /* \"#utility.yul\":11216:11221   */\n      dup3\n        /* \"#utility.yul\":11212:11228   */\n      add\n        /* \"#utility.yul\":11206:11229   */\n      mload\n        /* \"#utility.yul\":11242:11305   */\n      tag_423\n        /* \"#utility.yul\":11299:11303   */\n      0x20\n        /* \"#utility.yul\":11294:11297   */\n      dup6\n        /* \"#utility.yul\":11290:11304   */\n      add\n        /* \"#utility.yul\":11276:11288   */\n      dup3\n        /* \"#utility.yul\":11242:11305   */\n      tag_268\n      jump\t// in\n    tag_423:\n        /* \"#utility.yul\":11139:11315   */\n      pop\n        /* \"#utility.yul\":10912:11322   */\n      pop\n        /* \"#utility.yul\":10804:11322   */\n      pop\n      pop\n      jump\t// out\n        /* \"#utility.yul\":11328:11634   */\n    tag_59:\n        /* \"#utility.yul\":11463:11467   */\n      0x00\n        /* \"#utility.yul\":11501:11503   */\n      0x40\n        /* \"#utility.yul\":11490:11499   */\n      dup3\n        /* \"#utility.yul\":11486:11504   */\n      add\n        /* \"#utility.yul\":11478:11504   */\n      swap1\n      pop\n        /* \"#utility.yul\":11514:11627   */\n      tag_425\n        /* \"#utility.yul\":11624:11625   */\n      0x00\n        /* \"#utility.yul\":11613:11622   */\n      dup4\n        /* \"#utility.yul\":11609:11626   */\n      add\n        /* \"#utility.yul\":11600:11606   */\n      dup5\n        /* \"#utility.yul\":11514:11627   */\n      tag_269\n      jump\t// in\n    tag_425:\n        /* \"#utility.yul\":11328:11634   */\n      swap3\n      swap2\n      pop\n      pop\n      jump\t// out\n        /* \"#utility.yul\":11640:11969   */\n    tag_71:\n        /* \"#utility.yul\":11699:11705   */\n      0x00\n        /* \"#utility.yul\":11748:11750   */\n      0x20\n        /* \"#utility.yul\":11736:11745   */\n      dup3\n        /* \"#utility.yul\":11727:11734   */\n      dup5\n        /* \"#utility.yul\":11723:11746   */\n      sub\n        /* \"#utility.yul\":11719:11751   */\n      slt\n        /* \"#utility.yul\":11716:11835   */\n      iszero\n      tag_427\n      jumpi\n        /* \"#utility.yul\":11754:11833   */\n      tag_428\n      tag_237\n      jump\t// in\n    tag_428:\n        /* \"#utility.yul\":11716:11835   */\n    tag_427:\n        /* \"#utility.yul\":11874:11875   */\n      0x00\n        /* \"#utility.yul\":11899:11952   */\n      tag_429\n        /* \"#utility.yul\":11944:11951   */\n      dup5\n        /* \"#utility.yul\":11935:11941   */\n      dup3\n        /* \"#utility.yul\":11924:11933   */\n      dup6\n        /* \"#utility.yul\":11920:11942   */\n      add\n        /* \"#utility.yul\":11899:11952   */\n      tag_245\n      jump\t// in\n    tag_429:\n        /* \"#utility.yul\":11889:11952   */\n      swap2\n      pop\n        /* \"#utility.yul\":11845:11962   */\n      pop\n        /* \"#utility.yul\":11640:11969   */\n      swap3\n      swap2\n      pop\n      pop\n      jump\t// out\n        /* \"#utility.yul\":11975:12144   */\n    tag_270:\n        /* \"#utility.yul\":12115:12136   */\n      0x4e6f646520616c72656164792065786973747300000000000000000000000000\n        /* \"#utility.yul\":12111:12112   */\n      0x00\n        /* \"#utility.yul\":12103:12109   */\n      dup3\n        /* \"#utility.yul\":12099:12113   */\n      add\n        /* \"#utility.yul\":12092:12137   */\n      mstore\n        /* \"#utility.yul\":11975:12144   */\n      pop\n      jump\t// out\n        /* \"#utility.yul\":12150:12516   */\n    tag_271:\n        /* \"#utility.yul\":12292:12295   */\n      0x00\n        /* \"#utility.yul\":12313:12380   */\n      tag_432\n        /* \"#utility.yul\":12377:12379   */\n      0x13\n        /* \"#utility.yul\":12372:12375   */\n      dup4\n        /* \"#utility.yul\":12313:12380   */\n      tag_258\n      jump\t// in\n    tag_432:\n        /* \"#utility.yul\":12306:12380   */\n      swap2\n      pop\n        /* \"#utility.yul\":12389:12482   */\n      tag_433\n        /* \"#utility.yul\":12478:12481   */\n      dup3\n        /* \"#utility.yul\":12389:12482   */\n      tag_270\n      jump\t// in\n    tag_433:\n        /* \"#utility.yul\":12507:12509   */\n      0x20\n        /* \"#utility.yul\":12502:12505   */\n      dup3\n        /* \"#utility.yul\":12498:12510   */\n      add\n        /* \"#utility.yul\":12491:12510   */\n      swap1\n      pop\n        /* \"#utility.yul\":12150:12516   */\n      swap2\n      swap1\n      pop\n      jump\t// out\n        /* \"#utility.yul\":12522:12941   */\n    tag_77:\n        /* \"#utility.yul\":12688:12692   */\n      0x00\n        /* \"#utility.yul\":12726:12728   */\n      0x20\n        /* \"#utility.yul\":12715:12724   */\n      dup3\n        /* \"#utility.yul\":12711:12729   */\n      add\n        /* \"#utility.yul\":12703:12729   */\n      swap1\n      pop\n        /* \"#utility.yul\":12775:12784   */\n      dup2\n        /* \"#utility.yul\":12769:12773   */\n      dup2\n        /* \"#utility.yul\":12765:12785   */\n      sub\n        /* \"#utility.yul\":12761:12762   */\n      0x00\n        /* \"#utility.yul\":12750:12759   */\n      dup4\n        /* \"#utility.yul\":12746:12763   */\n      add\n        /* \"#utility.yul\":12739:12786   */\n      mstore\n        /* \"#utility.yul\":12803:12934   */\n      tag_435\n        /* \"#utility.yul\":12929:12933   */\n      dup2\n        /* \"#utility.yul\":12803:12934   */\n      tag_271\n      jump\t// in\n    tag_435:\n        /* \"#utility.yul\":12795:12934   */\n      swap1\n      pop\n        /* \"#utility.yul\":12522:12941   */\n      swap2\n      swap1\n      pop\n      jump\t// out\n        /* \"#utility.yul\":12947:13095   */\n    tag_272:\n        /* \"#utility.yul\":13049:13060   */\n      0x00\n        /* \"#utility.yul\":13086:13089   */\n      dup2\n        /* \"#utility.yul\":13071:13089   */\n      swap1\n      pop\n        /* \"#utility.yul\":12947:13095   */\n      swap3\n      swap2\n      pop\n      pop\n      jump\t// out\n        /* \"#utility.yul\":13101:13491   */\n    tag_273:\n        /* \"#utility.yul\":13207:13210   */\n      0x00\n        /* \"#utility.yul\":13235:13274   */\n      tag_438\n        /* \"#utility.yul\":13268:13273   */\n      dup3\n        /* \"#utility.yul\":13235:13274   */\n      tag_257\n      jump\t// in\n    tag_438:\n        /* \"#utility.yul\":13290:13379   */\n      tag_439\n        /* \"#utility.yul\":13372:13378   */\n      dup2\n        /* \"#utility.yul\":13367:13370   */\n      dup6\n        /* \"#utility.yul\":13290:13379   */\n      tag_272\n      jump\t// in\n    tag_439:\n        /* \"#utility.yul\":13283:13379   */\n      swap4\n      pop\n        /* \"#utility.yul\":13388:13453   */\n      tag_440\n        /* \"#utility.yul\":13446:13452   */\n      dup2\n        /* \"#utility.yul\":13441:13444   */\n      dup6\n        /* \"#utility.yul\":13434:13438   */\n      0x20\n        /* \"#utility.yul\":13427:13432   */\n      dup7\n        /* \"#utility.yul\":13423:13439   */\n      add\n        /* \"#utility.yul\":13388:13453   */\n      tag_259\n      jump\t// in\n    tag_440:\n        /* \"#utility.yul\":13478:13484   */\n      dup1\n        /* \"#utility.yul\":13473:13476   */\n      dup5\n        /* \"#utility.yul\":13469:13485   */\n      add\n        /* \"#utility.yul\":13462:13485   */\n      swap2\n      pop\n        /* \"#utility.yul\":13211:13491   */\n      pop\n        /* \"#utility.yul\":13101:13491   */\n      swap3\n      swap2\n      pop\n      pop\n      jump\t// out\n        /* \"#utility.yul\":13497:13772   */\n    tag_81:\n        /* \"#utility.yul\":13629:13632   */\n      0x00\n        /* \"#utility.yul\":13651:13746   */\n      tag_442\n        /* \"#utility.yul\":13742:13745   */\n      dup3\n        /* \"#utility.yul\":13733:13739   */\n      dup5\n        /* \"#utility.yul\":13651:13746   */\n      tag_273\n      jump\t// in\n    tag_442:\n        /* \"#utility.yul\":13644:13746   */\n      swap2\n      pop\n        /* \"#utility.yul\":13763:13766   */\n      dup2\n        /* \"#utility.yul\":13756:13766   */\n      swap1\n      pop\n        /* \"#utility.yul\":13497:13772   */\n      swap3\n      swap2\n      pop\n      pop\n      jump\t// out\n        /* \"#utility.yul\":13778:13942   */\n    tag_274:\n        /* \"#utility.yul\":13918:13934   */\n      0x46696c65206e6f7420666f756e64000000000000000000000000000000000000\n        /* \"#utility.yul\":13914:13915   */\n      0x00\n        /* \"#utility.yul\":13906:13912   */\n      dup3\n        /* \"#utility.yul\":13902:13916   */\n      add\n        /* \"#utility.yul\":13895:13935   */\n      mstore\n        /* \"#utility.yul\":13778:13942   */\n      pop\n      jump\t// out\n        /* \"#utility.yul\":13948:14314   */\n    tag_275:\n        /* \"#utility.yul\":14090:14093   */\n      0x00\n        /* \"#utility.yul\":14111:14178   */\n      tag_445\n        /* \"#utility.yul\":14175:14177   */\n      0x0e\n        /* \"#utility.yul\":14170:14173   */\n      dup4\n        /* \"#utility.yul\":14111:14178   */\n      tag_258\n      jump\t// in\n    tag_445:\n        /* \"#utility.yul\":14104:14178   */\n      swap2\n      pop\n        /* \"#utility.yul\":14187:14280   */\n      tag_446\n        /* \"#utility.yul\":14276:14279   */\n      dup3\n        /* \"#utility.yul\":14187:14280   */\n      tag_274\n      jump\t// in\n    tag_446:\n        /* \"#utility.yul\":14305:14307   */\n      0x20\n        /* \"#utility.yul\":14300:14303   */\n      dup3\n        /* \"#utility.yul\":14296:14308   */\n      add\n        /* \"#utility.yul\":14289:14308   */\n      swap1\n      pop\n        /* \"#utility.yul\":13948:14314   */\n      swap2\n      swap1\n      pop\n      jump\t// out\n        /* \"#utility.yul\":14320:14739   */\n    tag_84:\n        /* \"#utility.yul\":14486:14490   */\n      0x00\n        /* \"#utility.yul\":14524:14526   */\n      0x20\n        /* \"#utility.yul\":14513:14522   */\n      dup3\n        /* \"#utility.yul\":14509:14527   */\n      add\n        /* \"#utility.yul\":14501:14527   */\n      swap1\n      pop\n        /* \"#utility.yul\":14573:14582   */\n      dup2\n        /* \"#utility.yul\":14567:14571   */\n      dup2\n        /* \"#utility.yul\":14563:14583   */\n      sub\n        /* \"#utility.yul\":14559:14560   */\n      0x00\n        /* \"#utility.yul\":14548:14557   */\n      dup4\n        /* \"#utility.yul\":14544:14561   */\n      add\n        /* \"#utility.yul\":14537:14584   */\n      mstore\n        /* \"#utility.yul\":14601:14732   */\n      tag_448\n        /* \"#utility.yul\":14727:14731   */\n      dup2\n        /* \"#utility.yul\":14601:14732   */\n      tag_275\n      jump\t// in\n    tag_448:\n        /* \"#utility.yul\":14593:14732   */\n      swap1\n      pop\n        /* \"#utility.yul\":14320:14739   */\n      swap2\n      swap1\n      pop\n      jump\t// out\n        /* \"#utility.yul\":14745:14925   */\n    tag_276:\n        /* \"#utility.yul\":14793:14870   */\n      0x4e487b7100000000000000000000000000000000000000000000000000000000\n        /* \"#utility.yul\":14790:14791   */\n      0x00\n        /* \"#utility.yul\":14783:14871   */\n      mstore\n        /* \"#utility.yul\":14890:14894   */\n      0x22\n        /* \"#utility.yul\":14887:14888   */\n      0x04\n        /* \"#utility.yul\":14880:14895   */\n      mstore\n        /* \"#utility.yul\":14914:14918   */\n      0x24\n        /* \"#utility.yul\":14911:14912   */\n      0x00\n        /* \"#utility.yul\":14904:14919   */\n      revert\n        /* \"#utility.yul\":14931:15251   */\n    tag_227:\n        /* \"#utility.yul\":14975:14981   */\n      0x00\n        /* \"#utility.yul\":15012:15013   */\n      0x02\n        /* \"#utility.yul\":15006:15010   */\n      dup3\n        /* \"#utility.yul\":15002:15014   */\n      div\n        /* \"#utility.yul\":14992:15014   */\n      swap1\n      pop\n        /* \"#utility.yul\":15059:15060   */\n      0x01\n        /* \"#utility.yul\":15053:15057   */\n      dup3\n        /* \"#utility.yul\":15049:15061   */\n      and\n        /* \"#utility.yul\":15080:15098   */\n      dup1\n        /* \"#utility.yul\":15070:15151   */\n      tag_451\n      jumpi\n        /* \"#utility.yul\":15136:15140   */\n      0x7f\n        /* \"#utility.yul\":15128:15134   */\n      dup3\n        /* \"#utility.yul\":15124:15141   */\n      and\n        /* \"#utility.yul\":15114:15141   */\n      swap2\n      pop\n        /* \"#utility.yul\":15070:15151   */\n    tag_451:\n        /* \"#utility.yul\":15198:15200   */\n      0x20\n        /* \"#utility.yul\":15190:15196   */\n      dup3\n        /* \"#utility.yul\":15187:15201   */\n      lt\n        /* \"#utility.yul\":15167:15185   */\n      dup2\n        /* \"#utility.yul\":15164:15202   */\n      sub\n        /* \"#utility.yul\":15161:15245   */\n      tag_452\n      jumpi\n        /* \"#utility.yul\":15217:15235   */\n      tag_453\n      tag_276\n      jump\t// in\n    tag_453:\n        /* \"#utility.yul\":15161:15245   */\n    tag_452:\n        /* \"#utility.yul\":14982:15251   */\n      pop\n        /* \"#utility.yul\":14931:15251   */\n      swap2\n      swap1\n      pop\n      jump\t// out\n        /* \"#utility.yul\":15257:15398   */\n    tag_277:\n        /* \"#utility.yul\":15306:15310   */\n      0x00\n        /* \"#utility.yul\":15329:15332   */\n      dup2\n        /* \"#utility.yul\":15321:15332   */\n      swap1\n      pop\n        /* \"#utility.yul\":15352:15355   */\n      dup2\n        /* \"#utility.yul\":15349:15350   */\n      0x00\n        /* \"#utility.yul\":15342:15356   */\n      mstore\n        /* \"#utility.yul\":15386:15390   */\n      0x20\n        /* \"#utility.yul\":15383:15384   */\n      0x00\n        /* \"#utility.yul\":15373:15391   */\n      keccak256\n        /* \"#utility.yul\":15365:15391   */\n      swap1\n      pop\n        /* \"#utility.yul\":15257:15398   */\n      swap2\n      swap1\n      pop\n      jump\t// out\n        /* \"#utility.yul\":15404:15497   */\n    tag_278:\n        /* \"#utility.yul\":15441:15447   */\n      0x00\n        /* \"#utility.yul\":15488:15490   */\n      0x20\n        /* \"#utility.yul\":15483:15485   */\n      0x1f\n        /* \"#utility.yul\":15476:15481   */\n      dup4\n        /* \"#utility.yul\":15472:15486   */\n      add\n        /* \"#utility.yul\":15468:15491   */\n      div\n        /* \"#utility.yul\":15458:15491   */\n      swap1\n      pop\n        /* \"#utility.yul\":15404:15497   */\n      swap2\n      swap1\n      pop\n      jump\t// out\n        /* \"#utility.yul\":15503:15610   */\n    tag_279:\n        /* \"#utility.yul\":15547:15555   */\n      0x00\n        /* \"#utility.yul\":15597:15602   */\n      dup3\n        /* \"#utility.yul\":15591:15595   */\n      dup3\n        /* \"#utility.yul\":15587:15603   */\n      shl\n        /* \"#utility.yul\":15566:15603   */\n      swap1\n      pop\n        /* \"#utility.yul\":15503:15610   */\n      swap3\n      swap2\n      pop\n      pop\n      jump\t// out\n        /* \"#utility.yul\":15616:16009   */\n    tag_280:\n        /* \"#utility.yul\":15685:15691   */\n      0x00\n        /* \"#utility.yul\":15735:15736   */\n      0x08\n        /* \"#utility.yul\":15723:15733   */\n      dup4\n        /* \"#utility.yul\":15719:15737   */\n      mul\n        /* \"#utility.yul\":15758:15855   */\n      tag_458\n        /* \"#utility.yul\":15788:15854   */\n      0xffffffffffffffffffffffffffffffffffffffffffffffffffffffffffffffff\n        /* \"#utility.yul\":15777:15786   */\n      dup3\n        /* \"#utility.yul\":15758:15855   */\n      tag_279\n      jump\t// in\n    tag_458:\n        /* \"#utility.yul\":15876:15915   */\n      tag_459\n        /* \"#utility.yul\":15906:15914   */\n      dup7\n        /* \"#utility.yul\":15895:15904   */\n      dup4\n        /* \"#utility.yul\":15876:15915   */\n      tag_279\n      jump\t// in\n    tag_459:\n        /* \"#utility.yul\":15864:15915   */\n      swap6\n      pop\n        /* \"#utility.yul\":15948:15952   */\n      dup1\n        /* \"#utility.yul\":15944:15953   */\n      not\n        /* \"#utility.yul\":15937:15942   */\n      dup5\n        /* \"#utility.yul\":15933:15954   */\n      and\n        /* \"#utility.yul\":15924:15954   */\n      swap4\n      pop\n        /* \"#utility.yul\":15997:16001   */\n      dup1\n        /* \"#utility.yul\":15987:15995   */\n      dup7\n        /* \"#utility.yul\":15983:16002   */\n      and\n        /* \"#utility.yul\":15976:15981   */\n      dup5\n        /* \"#utility.yul\":15973:16003   */\n      or\n        /* \"#utility.yul\":15963:16003   */\n      swap3\n      pop\n        /* \"#utility.yul\":15692:16009   */\n      pop\n      pop\n        /* \"#utility.yul\":15616:16009   */\n      swap4\n      swap3\n      pop\n      pop\n      pop\n      jump\t// out\n        /* \"#utility.yul\":16015:16075   */\n    tag_281:\n        /* \"#utility.yul\":16043:16046   */\n      0x00\n        /* \"#utility.yul\":16064:16069   */\n      dup2\n        /* \"#utility.yul\":16057:16069   */\n      swap1\n      pop\n        /* \"#utility.yul\":16015:16075   */\n      swap2\n      swap1\n      pop\n      jump\t// out\n        /* \"#utility.yul\":16081:16223   */\n    tag_282:\n        /* \"#utility.yul\":16131:16140   */\n      0x00\n        /* \"#utility.yul\":16164:16217   */\n      tag_462\n        /* \"#utility.yul\":16182:16216   */\n      tag_463\n        /* \"#utility.yul\":16191:16215   */\n      tag_464\n        /* \"#utility.yul\":16209:16214   */\n      dup5\n        /* \"#utility.yul\":16191:16215   */\n      tag_243\n      jump\t// in\n    tag_464:\n        /* \"#utility.yul\":16182:16216   */\n      tag_281\n      jump\t// in\n    tag_463:\n        /* \"#utility.yul\":16164:16217   */\n      tag_243\n      jump\t// in\n    tag_462:\n        /* \"#utility.yul\":16151:16217   */\n      swap1\n      pop\n        /* \"#utility.yul\":16081:16223   */\n      swap2\n      swap1\n      pop\n      jump\t// out\n        /* \"#utility.yul\":16229:16304   */\n    tag_283:\n        /* \"#utility.yul\":16272:16275   */\n      0x00\n        /* \"#utility.yul\":16293:16298   */\n      dup2\n        /* \"#utility.yul\":16286:16298   */\n      swap1\n      pop\n        /* \"#utility.yul\":16229:16304   */\n      swap2\n      swap1\n      pop\n      jump\t// out\n        /* \"#utility.yul\":16310:16579   */\n    tag_284:\n        /* \"#utility.yul\":16420:16459   */\n      tag_467\n        /* \"#utility.yul\":16451:16458   */\n      dup4\n        /* \"#utility.yul\":16420:16459   */\n      tag_282\n      jump\t// in\n    tag_467:\n        /* \"#utility.yul\":16481:16572   */\n      tag_468\n        /* \"#utility.yul\":16530:16571   */\n      tag_469\n        /* \"#utility.yul\":16554:16570   */\n      dup3\n        /* \"#utility.yul\":16530:16571   */\n      tag_283\n      jump\t// in\n    tag_469:\n        /* \"#utility.yul\":16522:16528   */\n      dup5\n        /* \"#utility.yul\":16515:16519   */\n      dup5\n        /* \"#utility.yul\":16509:16520   */\n      sload\n        /* \"#utility.yul\":16481:16572   */\n      tag_280\n      jump\t// in\n    tag_468:\n        /* \"#utility.yul\":16475:16479   */\n      dup3\n        /* \"#utility.yul\":16468:16573   */\n      sstore\n        /* \"#utility.yul\":16386:16579   */\n      pop\n        /* \"#utility.yul\":16310:16579   */\n      pop\n      pop\n      pop\n      jump\t// out\n        /* \"#utility.yul\":16585:16658   */\n    tag_285:\n        /* \"#utility.yul\":16630:16633   */\n      0x00\n        /* \"#utility.yul\":16585:16658   */\n      swap1\n      jump\t// out\n        /* \"#utility.yul\":16664:16853   */\n    tag_286:\n        /* \"#utility.yul\":16741:16773   */\n      tag_472\n      tag_285\n      jump\t// in\n    tag_472:\n        /* \"#utility.yul\":16782:16847   */\n      tag_473\n        /* \"#utility.yul\":16840:16846   */\n      dup2\n        /* \"#utility.yul\":16832:16838   */\n      dup5\n        /* \"#utility.yul\":16826:16830   */\n      dup5\n        /* \"#utility.yul\":16782:16847   */\n      tag_284\n      jump\t// in\n    tag_473:\n        /* \"#utility.yul\":16717:16853   */\n      pop\n        /* \"#utility.yul\":16664:16853   */\n      pop\n      pop\n      jump\t// out\n        /* \"#utility.yul\":16859:17045   */\n    tag_287:\n        /* \"#utility.yul\":16919:17039   */\n    tag_475:\n        /* \"#utility.yul\":16936:16939   */\n      dup2\n        /* \"#utility.yul\":16929:16934   */\n      dup2\n        /* \"#utility.yul\":16926:16940   */\n      lt\n        /* \"#utility.yul\":16919:17039   */\n      iszero\n      tag_477\n      jumpi\n        /* \"#utility.yul\":16990:17029   */\n      tag_478\n        /* \"#utility.yul\":17027:17028   */\n      0x00\n        /* \"#utility.yul\":17020:17025   */\n      dup3\n        /* \"#utility.yul\":16990:17029   */\n      tag_286\n      jump\t// in\n    tag_478:\n        /* \"#utility.yul\":16963:16964   */\n      0x01\n        /* \"#utility.yul\":16956:16961   */\n      dup2\n        /* \"#utility.yul\":16952:16965   */\n      add\n        /* \"#utility.yul\":16943:16965   */\n      swap1\n      pop\n        /* \"#utility.yul\":16919:17039   */\n      jump(tag_475)\n    tag_477:\n        /* \"#utility.yul\":16859:17045   */\n      pop\n      pop\n      jump\t// out\n        /* \"#utility.yul\":17051:17594   */\n    tag_288:\n        /* \"#utility.yul\":17152:17154   */\n      0x1f\n        /* \"#utility.yul\":17147:17150   */\n      dup3\n        /* \"#utility.yul\":17144:17155   */\n      gt\n        /* \"#utility.yul\":17141:17587   */\n      iszero\n      tag_480\n      jumpi\n        /* \"#utility.yul\":17186:17224   */\n      tag_481\n        /* \"#utility.yul\":17218:17223   */\n      dup2\n        /* \"#utility.yul\":17186:17224   */\n      tag_277\n      jump\t// in\n    tag_481:\n        /* \"#utility.yul\":17270:17299   */\n      tag_482\n        /* \"#utility.yul\":17288:17298   */\n      dup5\n        /* \"#utility.yul\":17270:17299   */\n      tag_278\n      jump\t// in\n    tag_482:\n        /* \"#utility.yul\":17260:17268   */\n      dup2\n        /* \"#utility.yul\":17256:17300   */\n      add\n        /* \"#utility.yul\":17453:17455   */\n      0x20\n        /* \"#utility.yul\":17441:17451   */\n      dup6\n        /* \"#utility.yul\":17438:17456   */\n      lt\n        /* \"#utility.yul\":17435:17484   */\n      iszero\n      tag_483\n      jumpi\n        /* \"#utility.yul\":17474:17482   */\n      dup2\n        /* \"#utility.yul\":17459:17482   */\n      swap1\n      pop\n        /* \"#utility.yul\":17435:17484   */\n    tag_483:\n        /* \"#utility.yul\":17497:17577   */\n      tag_484\n        /* \"#utility.yul\":17553:17575   */\n      tag_485\n        /* \"#utility.yul\":17571:17574   */\n      dup6\n        /* \"#utility.yul\":17553:17575   */\n      tag_278\n      jump\t// in\n    tag_485:\n        /* \"#utility.yul\":17543:17551   */\n      dup4\n        /* \"#utility.yul\":17539:17576   */\n      add\n        /* \"#utility.yul\":17526:17537   */\n      dup3\n        /* \"#utility.yul\":17497:17577   */\n      tag_287\n      jump\t// in\n    tag_484:\n        /* \"#utility.yul\":17156:17587   */\n      pop\n      pop\n        /* \"#utility.yul\":17141:17587   */\n    tag_480:\n        /* \"#utility.yul\":17051:17594   */\n      pop\n      pop\n      pop\n      jump\t// out\n        /* \"#utility.yul\":17600:17717   */\n    tag_289:\n        /* \"#utility.yul\":17654:17662   */\n      0x00\n        /* \"#utility.yul\":17704:17709   */\n      dup3\n        /* \"#utility.yul\":17698:17702   */\n      dup3\n        /* \"#utility.yul\":17694:17710   */\n      shr\n        /* \"#utility.yul\":17673:17710   */\n      swap1\n      pop\n        /* \"#utility.yul\":17600:17717   */\n      swap3\n      swap2\n      pop\n      pop\n      jump\t// out\n        /* \"#utility.yul\":17723:17892   */\n    tag_290:\n        /* \"#utility.yul\":17767:17773   */\n      0x00\n        /* \"#utility.yul\":17800:17851   */\n      tag_488\n        /* \"#utility.yul\":17848:17849   */\n      0x00\n        /* \"#utility.yul\":17844:17850   */\n      not\n        /* \"#utility.yul\":17836:17841   */\n      dup5\n        /* \"#utility.yul\":17833:17834   */\n      0x08\n        /* \"#utility.yul\":17829:17842   */\n      mul\n        /* \"#utility.yul\":17800:17851   */\n      tag_289\n      jump\t// in\n    tag_488:\n        /* \"#utility.yul\":17796:17852   */\n      not\n        /* \"#utility.yul\":17881:17885   */\n      dup1\n        /* \"#utility.yul\":17875:17879   */\n      dup4\n        /* \"#utility.yul\":17871:17886   */\n      and\n        /* \"#utility.yul\":17861:17886   */\n      swap2\n      pop\n        /* \"#utility.yul\":17774:17892   */\n      pop\n        /* \"#utility.yul\":17723:17892   */\n      swap3\n      swap2\n      pop\n      pop\n      jump\t// out\n        /* \"#utility.yul\":17897:18192   */\n    tag_291:\n        /* \"#utility.yul\":17973:17977   */\n      0x00\n        /* \"#utility.yul\":18119:18148   */\n      tag_490\n        /* \"#utility.yul\":18144:18147   */\n      dup4\n        /* \"#utility.yul\":18138:18142   */\n      dup4\n        /* \"#utility.yul\":18119:18148   */\n      tag_290\n      jump\t// in\n    tag_490:\n        /* \"#utility.yul\":18111:18148   */\n      swap2\n      pop\n        /* \"#utility.yul\":18181:18184   */\n      dup3\n        /* \"#utility.yul\":18178:18179   */\n      0x02\n        /* \"#utility.yul\":18174:18185   */\n      mul\n        /* \"#utility.yul\":18168:18172   */\n      dup3\n        /* \"#utility.yul\":18165:18186   */\n      or\n        /* \"#utility.yul\":18157:18186   */\n      swap1\n      pop\n        /* \"#utility.yul\":17897:18192   */\n      swap3\n      swap2\n      pop\n      pop\n      jump\t// out\n        /* \"#utility.yul\":18197:19592   */\n    tag_98:\n        /* \"#utility.yul\":18314:18351   */\n      tag_492\n        /* \"#utility.yul\":18347:18350   */\n      dup3\n        /* \"#utility.yul\":18314:18351   */\n      tag_257\n      jump\t// in\n    tag_492:\n        /* \"#utility.yul\":18416:18434   */\n      0xffffffffffffffff\n        /* \"#utility.yul\":18408:18414   */\n      dup2\n        /* \"#utility.yul\":18405:18435   */\n      gt\n        /* \"#utility.yul\":18402:18458   */\n      iszero\n      tag_493\n      jumpi\n        /* \"#utility.yul\":18438:18456   */\n      tag_494\n      tag_165\n      jump\t// in\n    tag_494:\n        /* \"#utility.yul\":18402:18458   */\n    tag_493:\n        /* \"#utility.yul\":18482:18520   */\n      tag_495\n        /* \"#utility.yul\":18514:18518   */\n      dup3\n        /* \"#utility.yul\":18508:18519   */\n      sload\n        /* \"#utility.yul\":18482:18520   */\n      tag_227\n      jump\t// in\n    tag_495:\n        /* \"#utility.yul\":18567:18634   */\n      tag_496\n        /* \"#utility.yul\":18627:18633   */\n      dup3\n        /* \"#utility.yul\":18619:18625   */\n      dup3\n        /* \"#utility.yul\":18613:18617   */\n      dup6\n        /* \"#utility.yul\":18567:18634   */\n      tag_288\n      jump\t// in\n    tag_496:\n        /* \"#utility.yul\":18661:18662   */\n      0x00\n        /* \"#utility.yul\":18685:18689   */\n      0x20\n        /* \"#utility.yul\":18672:18689   */\n      swap1\n      pop\n        /* \"#utility.yul\":18717:18719   */\n      0x1f\n        /* \"#utility.yul\":18709:18715   */\n      dup4\n        /* \"#utility.yul\":18706:18720   */\n      gt\n        /* \"#utility.yul\":18734:18735   */\n      0x01\n        /* \"#utility.yul\":18729:19347   */\n      dup2\n      eq\n      tag_498\n      jumpi\n        /* \"#utility.yul\":19391:19392   */\n      0x00\n        /* \"#utility.yul\":19408:19414   */\n      dup5\n        /* \"#utility.yul\":19405:19482   */\n      iszero\n      tag_499\n      jumpi\n        /* \"#utility.yul\":19457:19466   */\n      dup3\n        /* \"#utility.yul\":19452:19455   */\n      dup8\n        /* \"#utility.yul\":19448:19467   */\n      add\n        /* \"#utility.yul\":19442:19468   */\n      mload\n        /* \"#utility.yul\":19433:19468   */\n      swap1\n      pop\n        /* \"#utility.yul\":19405:19482   */\n    tag_499:\n        /* \"#utility.yul\":19508:19575   */\n      tag_500\n        /* \"#utility.yul\":19568:19574   */\n      dup6\n        /* \"#utility.yul\":19561:19566   */\n      dup3\n        /* \"#utility.yul\":19508:19575   */\n      tag_291\n      jump\t// in\n    tag_500:\n        /* \"#utility.yul\":19502:19506   */\n      dup7\n        /* \"#utility.yul\":19495:19576   */\n      sstore\n        /* \"#utility.yul\":19364:19586   */\n      pop\n        /* \"#utility.yul\":18699:19586   */\n      jump(tag_497)\n        /* \"#utility.yul\":18729:19347   */\n    tag_498:\n        /* \"#utility.yul\":18781:18785   */\n      0x1f\n        /* \"#utility.yul\":18777:18786   */\n      not\n        /* \"#utility.yul\":18769:18775   */\n      dup5\n        /* \"#utility.yul\":18765:18787   */\n      and\n        /* \"#utility.yul\":18815:18852   */\n      tag_501\n        /* \"#utility.yul\":18847:18851   */\n      dup7\n        /* \"#utility.yul\":18815:18852   */\n      tag_277\n      jump\t// in\n    tag_501:\n        /* \"#utility.yul\":18874:18875   */\n      0x00\n        /* \"#utility.yul\":18888:19096   */\n    tag_502:\n        /* \"#utility.yul\":18902:18909   */\n      dup3\n        /* \"#utility.yul\":18899:18900   */\n      dup2\n        /* \"#utility.yul\":18896:18910   */\n      lt\n        /* \"#utility.yul\":18888:19096   */\n      iszero\n      tag_504\n      jumpi\n        /* \"#utility.yul\":18981:18990   */\n      dup5\n        /* \"#utility.yul\":18976:18979   */\n      dup10\n        /* \"#utility.yul\":18972:18991   */\n      add\n        /* \"#utility.yul\":18966:18992   */\n      mload\n        /* \"#utility.yul\":18958:18964   */\n      dup3\n        /* \"#utility.yul\":18951:18993   */\n      sstore\n        /* \"#utility.yul\":19032:19033   */\n      0x01\n        /* \"#utility.yul\":19024:19030   */\n      dup3\n        /* \"#utility.yul\":19020:19034   */\n      add\n        /* \"#utility.yul\":19010:19034   */\n      swap2\n      pop\n        /* \"#utility.yul\":19079:19081   */\n      0x20\n        /* \"#utility.yul\":19068:19077   */\n      dup6\n        /* \"#utility.yul\":19064:19082   */\n      add\n        /* \"#utility.yul\":19051:19082   */\n      swap5\n      pop\n        /* \"#utility.yul\":18925:18929   */\n      0x20\n        /* \"#utility.yul\":18922:18923   */\n      dup2\n        /* \"#utility.yul\":18918:18930   */\n      add\n        /* \"#utility.yul\":18913:18930   */\n      swap1\n      pop\n        /* \"#utility.yul\":18888:19096   */\n      jump(tag_502)\n    tag_504:\n        /* \"#utility.yul\":19124:19130   */\n      dup7\n        /* \"#utility.yul\":19115:19122   */\n      dup4\n        /* \"#utility.yul\":19112:19131   */\n      lt\n        /* \"#utility.yul\":19109:19288   */\n      iszero\n      tag_505\n      jumpi\n        /* \"#utility.yul\":19182:19191   */\n      dup5\n        /* \"#utility.yul\":19177:19180   */\n      dup10\n        /* \"#utility.yul\":19173:19192   */\n      add\n        /* \"#utility.yul\":19167:19193   */\n      mload\n        /* \"#utility.yul\":19225:19273   */\n      tag_506\n        /* \"#utility.yul\":19267:19271   */\n      0x1f\n        /* \"#utility.yul\":19259:19265   */\n      dup10\n        /* \"#utility.yul\":19255:19272   */\n      and\n        /* \"#utility.yul\":19244:19253   */\n      dup3\n        /* \"#utility.yul\":19225:19273   */\n      tag_290\n      jump\t// in\n    tag_506:\n        /* \"#utility.yul\":19217:19223   */\n      dup4\n        /* \"#utility.yul\":19210:19274   */\n      sstore\n        /* \"#utility.yul\":19132:19288   */\n      pop\n        /* \"#utility.yul\":19109:19288   */\n    tag_505:\n        /* \"#utility.yul\":19334:19335   */\n      0x01\n        /* \"#utility.yul\":19330:19331   */\n      0x02\n        /* \"#utility.yul\":19322:19328   */\n      dup9\n        /* \"#utility.yul\":19318:19332   */\n      mul\n        /* \"#utility.yul\":19314:19336   */\n      add\n        /* \"#utility.yul\":19308:19312   */\n      dup9\n        /* \"#utility.yul\":19301:19337   */\n      sstore\n        /* \"#utility.yul\":18736:19347   */\n      pop\n      pop\n      pop\n        /* \"#utility.yul\":18699:19586   */\n    tag_497:\n      pop\n        /* \"#utility.yul\":18289:19592   */\n      pop\n      pop\n      pop\n        /* \"#utility.yul\":18197:19592   */\n      pop\n      pop\n      jump\t// out\n        /* \"#utility.yul\":19598:19778   */\n    tag_106:\n        /* \"#utility.yul\":19646:19723   */\n      0x4e487b7100000000000000000000000000000000000000000000000000000000\n        /* \"#utility.yul\":19643:19644   */\n      0x00\n        /* \"#utility.yul\":19636:19724   */\n      mstore\n        /* \"#utility.yul\":19743:19747   */\n      0x32\n        /* \"#utility.yul\":19740:19741   */\n      0x04\n        /* \"#utility.yul\":19733:19748   */\n      mstore\n        /* \"#utility.yul\":19767:19771   */\n      0x24\n        /* \"#utility.yul\":19764:19765   */\n      0x00\n        /* \"#utility.yul\":19757:19772   */\n      revert\n        /* \"#utility.yul\":19784:19952   */\n    tag_292:\n        /* \"#utility.yul\":19924:19944   */\n      0x4e6f20617661696c61626c65206e6f6465730000000000000000000000000000\n        /* \"#utility.yul\":19920:19921   */\n      0x00\n        /* \"#utility.yul\":19912:19918   */\n      dup3\n        /* \"#utility.yul\":19908:19922   */\n      add\n        /* \"#utility.yul\":19901:19945   */\n      mstore\n        /* \"#utility.yul\":19784:19952   */\n      pop\n      jump\t// out\n        /* \"#utility.yul\":19958:20324   */\n    tag_293:\n        /* \"#utility.yul\":20100:20103   */\n      0x00\n        /* \"#utility.yul\":20121:20188   */\n      tag_510\n        /* \"#utility.yul\":20185:20187   */\n      0x12\n        /* \"#utility.yul\":20180:20183   */\n      dup4\n        /* \"#utility.yul\":20121:20188   */\n      tag_258\n      jump\t// in\n    tag_510:\n        /* \"#utility.yul\":20114:20188   */\n      swap2\n      pop\n        /* \"#utility.yul\":20197:20290   */\n      tag_511\n        /* \"#utility.yul\":20286:20289   */\n      dup3\n        /* \"#utility.yul\":20197:20290   */\n      tag_292\n      jump\t// in\n    tag_511:\n        /* \"#utility.yul\":20315:20317   */\n      0x20\n        /* \"#utility.yul\":20310:20313   */\n      dup3\n        /* \"#utility.yul\":20306:20318   */\n      add\n        /* \"#utility.yul\":20299:20318   */\n      swap1\n      pop\n        /* \"#utility.yul\":19958:20324   */\n      swap2\n      swap1\n      pop\n      jump\t// out\n        /* \"#utility.yul\":20330:20749   */\n    tag_111:\n        /* \"#utility.yul\":20496:20500   */\n      0x00\n        /* \"#utility.yul\":20534:20536   */\n      0x20\n        /* \"#utility.yul\":20523:20532   */\n      dup3\n        /* \"#utility.yul\":20519:20537   */\n      add\n        /* \"#utility.yul\":20511:20537   */\n      swap1\n      pop\n        /* \"#utility.yul\":20583:20592   */\n      dup2\n        /* \"#utility.yul\":20577:20581   */\n      dup2\n        /* \"#utility.yul\":20573:20593   */\n      sub\n        /* \"#utility.yul\":20569:20570   */\n      0x00\n        /* \"#utility.yul\":20558:20567   */\n      dup4\n        /* \"#utility.yul\":20554:20571   */\n      add\n        /* \"#utility.yul\":20547:20594   */\n      mstore\n        /* \"#utility.yul\":20611:20742   */\n      tag_513\n        /* \"#utility.yul\":20737:20741   */\n      dup2\n        /* \"#utility.yul\":20611:20742   */\n      tag_293\n      jump\t// in\n    tag_513:\n        /* \"#utility.yul\":20603:20742   */\n      swap1\n      pop\n        /* \"#utility.yul\":20330:20749   */\n      swap2\n      swap1\n      pop\n      jump\t// out\n        /* \"#utility.yul\":20755:20935   */\n    tag_294:\n        /* \"#utility.yul\":20803:20880   */\n      0x4e487b7100000000000000000000000000000000000000000000000000000000\n        /* \"#utility.yul\":20800:20801   */\n      0x00\n        /* \"#utility.yul\":20793:20881   */\n      mstore\n        /* \"#utility.yul\":20900:20904   */\n      0x11\n        /* \"#utility.yul\":20897:20898   */\n      0x04\n        /* \"#utility.yul\":20890:20905   */\n      mstore\n        /* \"#utility.yul\":20924:20928   */\n      0x24\n        /* \"#utility.yul\":20921:20922   */\n      0x00\n        /* \"#utility.yul\":20914:20929   */\n      revert\n        /* \"#utility.yul\":20941:21135   */\n    tag_119:\n        /* \"#utility.yul\":20981:20985   */\n      0x00\n        /* \"#utility.yul\":21001:21021   */\n      tag_516\n        /* \"#utility.yul\":21019:21020   */\n      dup3\n        /* \"#utility.yul\":21001:21021   */\n      tag_243\n      jump\t// in\n    tag_516:\n        /* \"#utility.yul\":20996:21021   */\n      swap2\n      pop\n        /* \"#utility.yul\":21035:21055   */\n      tag_517\n        /* \"#utility.yul\":21053:21054   */\n      dup4\n        /* \"#utility.yul\":21035:21055   */\n      tag_243\n      jump\t// in\n    tag_517:\n        /* \"#utility.yul\":21030:21055   */\n      swap3\n      pop\n        /* \"#utility.yul\":21079:21080   */\n      dup3\n        /* \"#utility.yul\":21076:21077   */\n      dup3\n        /* \"#utility.yul\":21072:21081   */\n      sub\n        /* \"#utility.yul\":21064:21081   */\n      swap1\n      pop\n        /* \"#utility.yul\":21103:21104   */\n      dup2\n        /* \"#utility.yul\":21097:21101   */\n      dup2\n        /* \"#utility.yul\":21094:21105   */\n      gt\n        /* \"#utility.yul\":21091:21128   */\n      iszero\n      tag_518\n      jumpi\n        /* \"#utility.yul\":21108:21126   */\n      tag_519\n      tag_294\n      jump\t// in\n    tag_519:\n        /* \"#utility.yul\":21091:21128   */\n    tag_518:\n        /* \"#utility.yul\":20941:21135   */\n      swap3\n      swap2\n      pop\n      pop\n      jump\t// out\n        /* \"#utility.yul\":21141:21303   */\n    tag_295:\n        /* \"#utility.yul\":21281:21295   */\n      0x556e617574686f72697a65640000000000000000000000000000000000000000\n        /* \"#utility.yul\":21277:21278   */\n      0x00\n        /* \"#utility.yul\":21269:21275   */\n      dup3\n        /* \"#utility.yul\":21265:21279   */\n      add\n        /* \"#utility.yul\":21258:21296   */\n      mstore\n        /* \"#utility.yul\":21141:21303   */\n      pop\n      jump\t// out\n        /* \"#utility.yul\":21309:21675   */\n    tag_296:\n        /* \"#utility.yul\":21451:21454   */\n      0x00\n        /* \"#utility.yul\":21472:21539   */\n      tag_522\n        /* \"#utility.yul\":21536:21538   */\n      0x0c\n        /* \"#utility.yul\":21531:21534   */\n      dup4\n        /* \"#utility.yul\":21472:21539   */\n      tag_258\n      jump\t// in\n    tag_522:\n        /* \"#utility.yul\":21465:21539   */\n      swap2\n      pop\n        /* \"#utility.yul\":21548:21641   */\n      tag_523\n        /* \"#utility.yul\":21637:21640   */\n      dup3\n        /* \"#utility.yul\":21548:21641   */\n      tag_295\n      jump\t// in\n    tag_523:\n        /* \"#utility.yul\":21666:21668   */\n      0x20\n        /* \"#utility.yul\":21661:21664   */\n      dup3\n        /* \"#utility.yul\":21657:21669   */\n      add\n        /* \"#utility.yul\":21650:21669   */\n      swap1\n      pop\n        /* \"#utility.yul\":21309:21675   */\n      swap2\n      swap1\n      pop\n      jump\t// out\n        /* \"#utility.yul\":21681:22100   */\n    tag_132:\n        /* \"#utility.yul\":21847:21851   */\n      0x00\n        /* \"#utility.yul\":21885:21887   */\n      0x20\n        /* \"#utility.yul\":21874:21883   */\n      dup3\n        /* \"#utility.yul\":21870:21888   */\n      add\n        /* \"#utility.yul\":21862:21888   */\n      swap1\n      pop\n        /* \"#utility.yul\":21934:21943   */\n      dup2\n        /* \"#utility.yul\":21928:21932   */\n      dup2\n        /* \"#utility.yul\":21924:21944   */\n      sub\n        /* \"#utility.yul\":21920:21921   */\n      0x00\n        /* \"#utility.yul\":21909:21918   */\n      dup4\n        /* \"#utility.yul\":21905:21922   */\n      add\n        /* \"#utility.yul\":21898:21945   */\n      mstore\n        /* \"#utility.yul\":21962:22093   */\n      tag_525\n        /* \"#utility.yul\":22088:22092   */\n      dup2\n        /* \"#utility.yul\":21962:22093   */\n      tag_296\n      jump\t// in\n    tag_525:\n        /* \"#utility.yul\":21954:22093   */\n      swap1\n      pop\n        /* \"#utility.yul\":21681:22100   */\n      swap2\n      swap1\n      pop\n      jump\t// out\n        /* \"#utility.yul\":22106:22275   */\n    tag_297:\n        /* \"#utility.yul\":22246:22267   */\n      0x4e6f646520646f6573206e6f7420657869737400000000000000000000000000\n        /* \"#utility.yul\":22242:22243   */\n      0x00\n        /* \"#utility.yul\":22234:22240   */\n      dup3\n        /* \"#utility.yul\":22230:22244   */\n      add\n        /* \"#utility.yul\":22223:22268   */\n      mstore\n        /* \"#utility.yul\":22106:22275   */\n      pop\n      jump\t// out\n        /* \"#utility.yul\":22281:22647   */\n    tag_298:\n        /* \"#utility.yul\":22423:22426   */\n      0x00\n        /* \"#utility.yul\":22444:22511   */\n      tag_528\n        /* \"#utility.yul\":22508:22510   */\n      0x13\n        /* \"#utility.yul\":22503:22506   */\n      dup4\n        /* \"#utility.yul\":22444:22511   */\n      tag_258\n      jump\t// in\n    tag_528:\n        /* \"#utility.yul\":22437:22511   */\n      swap2\n      pop\n        /* \"#utility.yul\":22520:22613   */\n      tag_529\n        /* \"#utility.yul\":22609:22612   */\n      dup3\n        /* \"#utility.yul\":22520:22613   */\n      tag_297\n      jump\t// in\n    tag_529:\n        /* \"#utility.yul\":22638:22640   */\n      0x20\n        /* \"#utility.yul\":22633:22636   */\n      dup3\n        /* \"#utility.yul\":22629:22641   */\n      add\n        /* \"#utility.yul\":22622:22641   */\n      swap1\n      pop\n        /* \"#utility.yul\":22281:22647   */\n      swap2\n      swap1\n      pop\n      jump\t// out\n        /* \"#utility.yul\":22653:23072   */\n    tag_151:\n        /* \"#utility.yul\":22819:22823   */\n      0x00\n        /* \"#utility.yul\":22857:22859   */\n      0x20\n        /* \"#utility.yul\":22846:22855   */\n      dup3\n        /* \"#utility.yul\":22842:22860   */\n      add\n        /* \"#utility.yul\":22834:22860   */\n      swap1\n      pop\n        /* \"#utility.yul\":22906:22915   */\n      dup2\n        /* \"#utility.yul\":22900:22904   */\n      dup2\n        /* \"#utility.yul\":22896:22916   */\n      sub\n        /* \"#utility.yul\":22892:22893   */\n      0x00\n        /* \"#utility.yul\":22881:22890   */\n      dup4\n        /* \"#utility.yul\":22877:22894   */\n      add\n        /* \"#utility.yul\":22870:22917   */\n      mstore\n        /* \"#utility.yul\":22934:23065   */\n      tag_531\n        /* \"#utility.yul\":23060:23064   */\n      dup2\n        /* \"#utility.yul\":22934:23065   */\n      tag_298\n      jump\t// in\n    tag_531:\n        /* \"#utility.yul\":22926:23065   */\n      swap1\n      pop\n        /* \"#utility.yul\":22653:23072   */\n      swap2\n      swap1\n      pop\n      jump\t// out\n        /* \"#utility.yul\":23078:23269   */\n    tag_162:\n        /* \"#utility.yul\":23118:23121   */\n      0x00\n        /* \"#utility.yul\":23137:23157   */\n      tag_533\n        /* \"#utility.yul\":23155:23156   */\n      dup3\n        /* \"#utility.yul\":23137:23157   */\n      tag_243\n      jump\t// in\n    tag_533:\n        /* \"#utility.yul\":23132:23157   */\n      swap2\n      pop\n        /* \"#utility.yul\":23171:23191   */\n      tag_534\n        /* \"#utility.yul\":23189:23190   */\n      dup4\n        /* \"#utility.yul\":23171:23191   */\n      tag_243\n      jump\t// in\n    tag_534:\n        /* \"#utility.yul\":23166:23191   */\n      swap3\n      pop\n        /* \"#utility.yul\":23214:23215   */\n      dup3\n        /* \"#utility.yul\":23211:23212   */\n      dup3\n        /* \"#utility.yul\":23207:23216   */\n      add\n        /* \"#utility.yul\":23200:23216   */\n      swap1\n      pop\n        /* \"#utility.yul\":23235:23238   */\n      dup1\n        /* \"#utility.yul\":23232:23233   */\n      dup3\n        /* \"#utility.yul\":23229:23239   */\n      gt\n        /* \"#utility.yul\":23226:23262   */\n      iszero\n      tag_535\n      jumpi\n        /* \"#utility.yul\":23242:23260   */\n      tag_536\n      tag_294\n      jump\t// in\n    tag_536:\n        /* \"#utility.yul\":23226:23262   */\n    tag_535:\n        /* \"#utility.yul\":23078:23269   */\n      swap3\n      swap2\n      pop\n      pop\n      jump\t// out\n        /* \"#utility.yul\":23275:23508   */\n    tag_178:\n        /* \"#utility.yul\":23314:23317   */\n      0x00\n        /* \"#utility.yul\":23337:23361   */\n      tag_538\n        /* \"#utility.yul\":23355:23360   */\n      dup3\n        /* \"#utility.yul\":23337:23361   */\n      tag_243\n      jump\t// in\n    tag_538:\n        /* \"#utility.yul\":23328:23361   */\n      swap2\n      pop\n        /* \"#utility.yul\":23383:23449   */\n      0xffffffffffffffffffffffffffffffffffffffffffffffffffffffffffffffff\n        /* \"#utility.yul\":23376:23381   */\n      dup3\n        /* \"#utility.yul\":23373:23450   */\n      sub\n        /* \"#utility.yul\":23370:23473   */\n      tag_539\n      jumpi\n        /* \"#utility.yul\":23453:23471   */\n      tag_540\n      tag_294\n      jump\t// in\n    tag_540:\n        /* \"#utility.yul\":23370:23473   */\n    tag_539:\n        /* \"#utility.yul\":23500:23501   */\n      0x01\n        /* \"#utility.yul\":23493:23498   */\n      dup3\n        /* \"#utility.yul\":23489:23502   */\n      add\n        /* \"#utility.yul\":23482:23502   */\n      swap1\n      pop\n        /* \"#utility.yul\":23275:23508   */\n      swap2\n      swap1\n      pop\n      jump\t// out\n        /* \"#utility.yul\":23514:23694   */\n    tag_299:\n        /* \"#utility.yul\":23562:23639   */\n      0x4e487b7100000000000000000000000000000000000000000000000000000000\n        /* \"#utility.yul\":23559:23560   */\n      0x00\n        /* \"#utility.yul\":23552:23640   */\n      mstore\n        /* \"#utility.yul\":23659:23663   */\n      0x12\n        /* \"#utility.yul\":23656:23657   */\n      0x04\n        /* \"#utility.yul\":23649:23664   */\n      mstore\n        /* \"#utility.yul\":23683:23687   */\n      0x24\n        /* \"#utility.yul\":23680:23681   */\n      0x00\n        /* \"#utility.yul\":23673:23688   */\n      revert\n        /* \"#utility.yul\":23700:23885   */\n    tag_185:\n        /* \"#utility.yul\":23740:23741   */\n      0x00\n        /* \"#utility.yul\":23757:23777   */\n      tag_543\n        /* \"#utility.yul\":23775:23776   */\n      dup3\n        /* \"#utility.yul\":23757:23777   */\n      tag_243\n      jump\t// in\n    tag_543:\n        /* \"#utility.yul\":23752:23777   */\n      swap2\n      pop\n        /* \"#utility.yul\":23791:23811   */\n      tag_544\n        /* \"#utility.yul\":23809:23810   */\n      dup4\n        /* \"#utility.yul\":23791:23811   */\n      tag_243\n      jump\t// in\n    tag_544:\n        /* \"#utility.yul\":23786:23811   */\n      swap3\n      pop\n        /* \"#utility.yul\":23830:23831   */\n      dup3\n        /* \"#utility.yul\":23820:23855   */\n      tag_545\n      jumpi\n        /* \"#utility.yul\":23835:23853   */\n      tag_546\n      tag_299\n      jump\t// in\n    tag_546:\n        /* \"#utility.yul\":23820:23855   */\n    tag_545:\n        /* \"#utility.yul\":23877:23878   */\n      dup3\n        /* \"#utility.yul\":23874:23875   */\n      dup3\n        /* \"#utility.yul\":23870:23879   */\n      div\n        /* \"#utility.yul\":23865:23879   */\n      swap1\n      pop\n        /* \"#utility.yul\":23700:23885   */\n      swap3\n      swap2\n      pop\n      pop\n      jump\t// out\n        /* \"#utility.yul\":23891:24301   */\n    tag_194:\n        /* \"#utility.yul\":23931:23938   */\n      0x00\n        /* \"#utility.yul\":23954:23974   */\n      tag_548\n        /* \"#utility.yul\":23972:23973   */\n      dup3\n        /* \"#utility.yul\":23954:23974   */\n      tag_243\n      jump\t// in\n    tag_548:\n        /* \"#utility.yul\":23949:23974   */\n      swap2\n      pop\n        /* \"#utility.yul\":23988:24008   */\n      tag_549\n        /* \"#utility.yul\":24006:24007   */\n      dup4\n        /* \"#utility.yul\":23988:24008   */\n      tag_243\n      jump\t// in\n    tag_549:\n        /* \"#utility.yul\":23983:24008   */\n      swap3\n      pop\n        /* \"#utility.yul\":24043:24044   */\n      dup3\n        /* \"#utility.yul\":24040:24041   */\n      dup3\n        /* \"#utility.yul\":24036:24045   */\n      mul\n        /* \"#utility.yul\":24065:24095   */\n      tag_550\n        /* \"#utility.yul\":24083:24094   */\n      dup2\n        /* \"#utility.yul\":24065:24095   */\n      tag_243\n      jump\t// in\n    tag_550:\n        /* \"#utility.yul\":24054:24095   */\n      swap2\n      pop\n        /* \"#utility.yul\":24244:24245   */\n      dup3\n        /* \"#utility.yul\":24235:24242   */\n      dup3\n        /* \"#utility.yul\":24231:24246   */\n      div\n        /* \"#utility.yul\":24228:24229   */\n      dup5\n        /* \"#utility.yul\":24225:24247   */\n      eq\n        /* \"#utility.yul\":24205:24206   */\n      dup4\n        /* \"#utility.yul\":24198:24207   */\n      iszero\n        /* \"#utility.yul\":24178:24261   */\n      or\n        /* \"#utility.yul\":24155:24294   */\n      tag_551\n      jumpi\n        /* \"#utility.yul\":24274:24292   */\n      tag_552\n      tag_294\n      jump\t// in\n    tag_552:\n        /* \"#utility.yul\":24155:24294   */\n    tag_551:\n        /* \"#utility.yul\":23939:24301   */\n      pop\n        /* \"#utility.yul\":23891:24301   */\n      swap3\n      swap2\n      pop\n      pop\n      jump\t// out\n        /* \"#utility.yul\":24307:24483   */\n    tag_215:\n        /* \"#utility.yul\":24339:24340   */\n      0x00\n        /* \"#utility.yul\":24356:24376   */\n      tag_554\n        /* \"#utility.yul\":24374:24375   */\n      dup3\n        /* \"#utility.yul\":24356:24376   */\n      tag_243\n      jump\t// in\n    tag_554:\n        /* \"#utility.yul\":24351:24376   */\n      swap2\n      pop\n        /* \"#utility.yul\":24390:24410   */\n      tag_555\n        /* \"#utility.yul\":24408:24409   */\n      dup4\n        /* \"#utility.yul\":24390:24410   */\n      tag_243\n      jump\t// in\n    tag_555:\n        /* \"#utility.yul\":24385:24410   */\n      swap3\n      pop\n        /* \"#utility.yul\":24429:24430   */\n      dup3\n        /* \"#utility.yul\":24419:24454   */\n      tag_556\n      jumpi\n        /* \"#utility.yul\":24434:24452   */\n      tag_557\n      tag_299\n      jump\t// in\n    tag_557:\n        /* \"#utility.yul\":24419:24454   */\n    tag_556:\n        /* \"#utility.yul\":24475:24476   */\n      dup3\n        /* \"#utility.yul\":24472:24473   */\n      dup3\n        /* \"#utility.yul\":24468:24477   */\n      mod\n        /* \"#utility.yul\":24463:24477   */\n      swap1\n      pop\n        /* \"#utility.yul\":24307:24483   */\n      swap3\n      swap2\n      pop\n      pop\n      jump\t// out\n\n    auxdata: 0xa264697066735822122071ff6a738bef3b4fcdd4e876e79205d7ae366a306c061a6f8f177e57025a219364736f6c63430008160033\n}\n",
				"bytecode": {
					"linkReferences": {},
					"object": "608060405234801561000f575f80fd5b503360025f6101000a81548173ffffffffffffffffffffffffffffffffffffffff021916908373ffffffffffffffffffffffffffffffffffffffff160217905550611f198061005d5f395ff3fe608060405234801561000f575f80fd5b50600436106100cd575f3560e01c80638da5cb5b1161008a578063a991005411610064578063a991005414610236578063b49f33c814610252578063b65814a61461026e578063fe72ae131461028a576100cd565b80638da5cb5b146101ca578063a1174e7d146101e8578063a986030814610206576100cd565b806311bd77fe146100d1578063189a5a17146100ed5780632804401c1461011e5780632a85be1e1461014e57806350f1c9851461017e5780637dd77d2b146101ae575b5f80fd5b6100eb60048036038101906100e691906112b4565b6102ba565b005b610107600480360381019061010291906112f2565b6104a1565b60405161011592919061133b565b60405180910390f35b6101386004803603810190610133919061149e565b6104df565b604051610145919061155f565b60405180910390f35b6101686004803603810190610163919061157f565b610619565b604051610175919061155f565b60405180910390f35b6101986004803603810190610193919061157f565b610621565b6040516101a5919061155f565b60405180910390f35b6101c860048036038101906101c391906115d9565b610629565b005b6101d261083d565b6040516101df919061167d565b60405180910390f35b6101f0610862565b6040516101fd919061174d565b60405180910390f35b610220600480360381019061021b91906112f2565b6108ed565b60405161022d91906117a9565b60405180910390f35b610250600480360381019061024b919061149e565b6109a1565b005b61026c600480360381019061026791906112b4565b610bdc565b005b6102886004803603810190610283919061157f565b610cef565b005b6102a4600480360381019061029f91906117c2565b610cf3565b6040516102b1919061167d565b60405180910390f35b5f73ffffffffffffffffffffffffffffffffffffffff165f808473ffffffffffffffffffffffffffffffffffffffff1673ffffffffffffffffffffffffffffffffffffffff1681526020019081526020015f205f015f9054906101000a900473ffffffffffffffffffffffffffffffffffffffff1673ffffffffffffffffffffffffffffffffffffffff1614610385576040517f08c379a000000000000000000000000000000000000000000000000000000000815260040161037c90611837565b60405180910390fd5b60405180604001604052808373ffffffffffffffffffffffffffffffffffffffff168152602001828152505f808473ffffffffffffffffffffffffffffffffffffffff1673ffffffffffffffffffffffffffffffffffffffff1681526020019081526020015f205f820151815f015f6101000a81548173ffffffffffffffffffffffffffffffffffffffff021916908373ffffffffffffffffffffffffffffffffffffffff16021790555060208201518160010155905050600182908060018154018082558091505060019003905f5260205f20015f9091909190916101000a81548173ffffffffffffffffffffffffffffffffffffffff021916908373ffffffffffffffffffffffffffffffffffffffff1602179055505050565b5f602052805f5260405f205f91509050805f015f9054906101000a900473ffffffffffffffffffffffffffffffffffffffff16908060010154905082565b60605f6003836040516104f2919061188f565b90815260200160405180910390206001015411610544576040517f08c379a000000000000000000000000000000000000000000000000000000000815260040161053b906118ef565b60405180910390fd5b5f600483604051610555919061188f565b90815260200160405180910390208054806020026020016040519081016040528092919081815260200182805480156105e057602002820191905f5260205f20905b815f9054906101000a900473ffffffffffffffffffffffffffffffffffffffff1673ffffffffffffffffffffffffffffffffffffffff1681526020019060010190808311610597575b5050505050905060605f5b82518110156106015780806001019150506105eb565b505f61060c82610d2e565b9050809350505050919050565b606092915050565b606092915050565b5f82519050604051806040016040528085815260200182815250600383604051610653919061188f565b90815260200160405180910390205f820151815f0190816106749190611b07565b50602082015181600101559050505f61068c84610e8b565b90505f5b8151811015610835575f8282815181106106ad576106ac611bd6565b5b60200260200101515190505f6106c28261105b565b90505f73ffffffffffffffffffffffffffffffffffffffff168173ffffffffffffffffffffffffffffffffffffffff1603610732576040517f08c379a000000000000000000000000000000000000000000000000000000000815260040161072990611c4d565b60405180910390fd5b600486604051610742919061188f565b908152602001604051809103902081908060018154018082558091505060019003905f5260205f20015f9091909190916101000a81548173ffffffffffffffffffffffffffffffffffffffff021916908373ffffffffffffffffffffffffffffffffffffffff1602179055506107d2818585815181106107c5576107c4611bd6565b5b6020026020010151610cef565b61082681835f808573ffffffffffffffffffffffffffffffffffffffff1673ffffffffffffffffffffffffffffffffffffffff1681526020019081526020015f20600101546108219190611c98565b610bdc565b50508080600101915050610690565b505050505050565b60025f9054906101000a900473ffffffffffffffffffffffffffffffffffffffff1681565b606060018054806020026020016040519081016040528092919081815260200182805480156108e357602002820191905f5260205f20905b815f9054906101000a900473ffffffffffffffffffffffffffffffffffffffff1673ffffffffffffffffffffffffffffffffffffffff168152602001906001019080831161089a575b5050505050905090565b6108f5611172565b5f808373ffffffffffffffffffffffffffffffffffffffff1673ffffffffffffffffffffffffffffffffffffffff1681526020019081526020015f206040518060400160405290815f82015f9054906101000a900473ffffffffffffffffffffffffffffffffffffffff1673ffffffffffffffffffffffffffffffffffffffff1673ffffffffffffffffffffffffffffffffffffffff1681526020016001820154815250509050919050565b5f6003826040516109b2919061188f565b90815260200160405180910390206001015411610a04576040517f08c379a00000000000000000000000000000000000000000000000000000000081526004016109fb906118ef565b60405180910390fd5b60025f9054906101000a900473ffffffffffffffffffffffffffffffffffffffff1673ffffffffffffffffffffffffffffffffffffffff163373ffffffffffffffffffffffffffffffffffffffff1614610a93576040517f08c379a0000000000000000000000000000000000000000000000000000000008152600401610a8a90611d15565b60405180910390fd5b5f600482604051610aa4919061188f565b9081526020016040518091039020805480602002602001604051908101604052809291908181526020018280548015610b2f57602002820191905f5260205f20905b815f9054906101000a900473ffffffffffffffffffffffffffffffffffffffff1673ffffffffffffffffffffffffffffffffffffffff1681526020019060010190808311610ae6575b505050505090505f5b8151811015610b78575f828281518110610b5557610b54611bd6565b5b60200260200101519050610b698185610621565b50508080600101915050610b38565b50600382604051610b89919061188f565b90815260200160405180910390205f8082015f610ba691906111a0565b600182015f90555050600482604051610bbf919061188f565b90815260200160405180910390205f610bd891906111dd565b5050565b5f73ffffffffffffffffffffffffffffffffffffffff165f808473ffffffffffffffffffffffffffffffffffffffff1673ffffffffffffffffffffffffffffffffffffffff1681526020019081526020015f205f015f9054906101000a900473ffffffffffffffffffffffffffffffffffffffff1673ffffffffffffffffffffffffffffffffffffffff1603610ca7576040517f08c379a0000000000000000000000000000000000000000000000000000000008152600401610c9e90611d7d565b60405180910390fd5b805f808473ffffffffffffffffffffffffffffffffffffffff1673ffffffffffffffffffffffffffffffffffffffff1681526020019081526020015f20600101819055505050565b5050565b60018181548110610d02575f80fd5b905f5260205f20015f915054906101000a900473ffffffffffffffffffffffffffffffffffffffff1681565b60605f805b8351811015610d7257838181518110610d4f57610d4e611bd6565b5b60200260200101515182610d639190611d9b565b91508080600101915050610d33565b505f8167ffffffffffffffff811115610d8e57610d8d61137a565b5b6040519080825280601f01601f191660200182016040528015610dc05781602001600182028036833780820191505090505b5090505f805b8551811015610e7f575f868281518110610de357610de2611bd6565b5b602002602001015190505f5b8151811015610e7057818181518110610e0b57610e0a611bd6565b5b602001015160f81c60f81b858580610e2290611dce565b965081518110610e3557610e34611bd6565b5b60200101907effffffffffffffffffffffffffffffffffffffffffffffffffffffffffffff191690815f1a9053508080600101915050610def565b50508080600101915050610dc6565b50819350505050919050565b60605f602090505f816001838651610ea39190611d9b565b610ead9190611c98565b610eb79190611e42565b90505f8167ffffffffffffffff811115610ed457610ed361137a565b5b604051908082528060200260200182016040528015610f0757816020015b6060815260200190600190039081610ef25790505b5090505f5b8281101561104f575f8482610f219190611e72565b90505f8582610f309190611d9b565b90508751811115610f4057875190505b5f8282610f4d9190611c98565b67ffffffffffffffff811115610f6657610f6561137a565b5b6040519080825280601f01601f191660200182016040528015610f985781602001600182028036833780820191505090505b5090505f8390505b8281101561101f57898181518110610fbb57610fba611bd6565b5b602001015160f81c60f81b828583610fd39190611c98565b81518110610fe457610fe3611bd6565b5b60200101907effffffffffffffffffffffffffffffffffffffffffffffffffffffffffffff191690815f1a9053508080600101915050610fa0565b508085858151811061103457611033611bd6565b5b60200260200101819052505050508080600101915050610f0c565b50809350505050919050565b5f8060018054905090505f603290505f820361107b575f9250505061116d565b5f8260014361108a9190611c98565b405f1c6110979190611eb3565b90505f5b83811015611165575f60018583856110b39190611d9b565b6110bd9190611eb3565b815481106110ce576110cd611bd6565b5b905f5260205f20015f9054906101000a900473ffffffffffffffffffffffffffffffffffffffff16905083876111049190611d9b565b5f808373ffffffffffffffffffffffffffffffffffffffff1673ffffffffffffffffffffffffffffffffffffffff1681526020019081526020015f2060010154111561115757809550505050505061116d565b50808060010191505061109b565b505f93505050505b919050565b60405180604001604052805f73ffffffffffffffffffffffffffffffffffffffff1681526020015f81525090565b5080546111ac9061193a565b5f825580601f106111bd57506111da565b601f0160209004905f5260205f20908101906111d991906111fb565b5b50565b5080545f8255905f5260205f20908101906111f891906111fb565b50565b5b80821115611212575f815f9055506001016111fc565b5090565b5f604051905090565b5f80fd5b5f80fd5b5f73ffffffffffffffffffffffffffffffffffffffff82169050919050565b5f61125082611227565b9050919050565b61126081611246565b811461126a575f80fd5b50565b5f8135905061127b81611257565b92915050565b5f819050919050565b61129381611281565b811461129d575f80fd5b50565b5f813590506112ae8161128a565b92915050565b5f80604083850312156112ca576112c961121f565b5b5f6112d78582860161126d565b92505060206112e8858286016112a0565b9150509250929050565b5f602082840312156113075761130661121f565b5b5f6113148482850161126d565b91505092915050565b61132681611246565b82525050565b61133581611281565b82525050565b5f60408201905061134e5f83018561131d565b61135b602083018461132c565b9392505050565b5f80fd5b5f80fd5b5f601f19601f8301169050919050565b7f4e487b71000000000000000000000000000000000000000000000000000000005f52604160045260245ffd5b6113b08261136a565b810181811067ffffffffffffffff821117156113cf576113ce61137a565b5b80604052505050565b5f6113e1611216565b90506113ed82826113a7565b919050565b5f67ffffffffffffffff82111561140c5761140b61137a565b5b6114158261136a565b9050602081019050919050565b828183375f83830152505050565b5f61144261143d846113f2565b6113d8565b90508281526020810184848401111561145e5761145d611366565b5b611469848285611422565b509392505050565b5f82601f83011261148557611484611362565b5b8135611495848260208601611430565b91505092915050565b5f602082840312156114b3576114b261121f565b5b5f82013567ffffffffffffffff8111156114d0576114cf611223565b5b6114dc84828501611471565b91505092915050565b5f81519050919050565b5f82825260208201905092915050565b5f5b8381101561151c578082015181840152602081019050611501565b5f8484015250505050565b5f611531826114e5565b61153b81856114ef565b935061154b8185602086016114ff565b6115548161136a565b840191505092915050565b5f6020820190508181035f8301526115778184611527565b905092915050565b5f80604083850312156115955761159461121f565b5b5f6115a28582860161126d565b925050602083013567ffffffffffffffff8111156115c3576115c2611223565b5b6115cf85828601611471565b9150509250929050565b5f805f606084860312156115f0576115ef61121f565b5b5f84013567ffffffffffffffff81111561160d5761160c611223565b5b61161986828701611471565b935050602084013567ffffffffffffffff81111561163a57611639611223565b5b61164686828701611471565b925050604084013567ffffffffffffffff81111561166757611666611223565b5b61167386828701611471565b9150509250925092565b5f6020820190506116905f83018461131d565b92915050565b5f81519050919050565b5f82825260208201905092915050565b5f819050602082019050919050565b6116c881611246565b82525050565b5f6116d983836116bf565b60208301905092915050565b5f602082019050919050565b5f6116fb82611696565b61170581856116a0565b9350611710836116b0565b805f5b8381101561174057815161172788826116ce565b9750611732836116e5565b925050600181019050611713565b5085935050505092915050565b5f6020820190508181035f83015261176581846116f1565b905092915050565b61177681611281565b82525050565b604082015f8201516117905f8501826116bf565b5060208201516117a3602085018261176d565b50505050565b5f6040820190506117bc5f83018461177c565b92915050565b5f602082840312156117d7576117d661121f565b5b5f6117e4848285016112a0565b91505092915050565b7f4e6f646520616c726561647920657869737473000000000000000000000000005f82015250565b5f6118216013836114ef565b915061182c826117ed565b602082019050919050565b5f6020820190508181035f83015261184e81611815565b9050919050565b5f81905092915050565b5f611869826114e5565b6118738185611855565b93506118838185602086016114ff565b80840191505092915050565b5f61189a828461185f565b915081905092915050565b7f46696c65206e6f7420666f756e640000000000000000000000000000000000005f82015250565b5f6118d9600e836114ef565b91506118e4826118a5565b602082019050919050565b5f6020820190508181035f830152611906816118cd565b9050919050565b7f4e487b71000000000000000000000000000000000000000000000000000000005f52602260045260245ffd5b5f600282049050600182168061195157607f821691505b6020821081036119645761196361190d565b5b50919050565b5f819050815f5260205f209050919050565b5f6020601f8301049050919050565b5f82821b905092915050565b5f600883026119c67fffffffffffffffffffffffffffffffffffffffffffffffffffffffffffffffff8261198b565b6119d0868361198b565b95508019841693508086168417925050509392505050565b5f819050919050565b5f611a0b611a06611a0184611281565b6119e8565b611281565b9050919050565b5f819050919050565b611a24836119f1565b611a38611a3082611a12565b848454611997565b825550505050565b5f90565b611a4c611a40565b611a57818484611a1b565b505050565b5b81811015611a7a57611a6f5f82611a44565b600181019050611a5d565b5050565b601f821115611abf57611a908161196a565b611a998461197c565b81016020851015611aa8578190505b611abc611ab48561197c565b830182611a5c565b50505b505050565b5f82821c905092915050565b5f611adf5f1984600802611ac4565b1980831691505092915050565b5f611af78383611ad0565b9150826002028217905092915050565b611b10826114e5565b67ffffffffffffffff811115611b2957611b2861137a565b5b611b33825461193a565b611b3e828285611a7e565b5f60209050601f831160018114611b6f575f8415611b5d578287015190505b611b678582611aec565b865550611bce565b601f198416611b7d8661196a565b5f5b82811015611ba457848901518255600182019150602085019450602081019050611b7f565b86831015611bc15784890151611bbd601f891682611ad0565b8355505b6001600288020188555050505b505050505050565b7f4e487b71000000000000000000000000000000000000000000000000000000005f52603260045260245ffd5b7f4e6f20617661696c61626c65206e6f64657300000000000000000000000000005f82015250565b5f611c376012836114ef565b9150611c4282611c03565b602082019050919050565b5f6020820190508181035f830152611c6481611c2b565b9050919050565b7f4e487b71000000000000000000000000000000000000000000000000000000005f52601160045260245ffd5b5f611ca282611281565b9150611cad83611281565b9250828203905081811115611cc557611cc4611c6b565b5b92915050565b7f556e617574686f72697a656400000000000000000000000000000000000000005f82015250565b5f611cff600c836114ef565b9150611d0a82611ccb565b602082019050919050565b5f6020820190508181035f830152611d2c81611cf3565b9050919050565b7f4e6f646520646f6573206e6f74206578697374000000000000000000000000005f82015250565b5f611d676013836114ef565b9150611d7282611d33565b602082019050919050565b5f6020820190508181035f830152611d9481611d5b565b9050919050565b5f611da582611281565b9150611db083611281565b9250828201905080821115611dc857611dc7611c6b565b5b92915050565b5f611dd882611281565b91507fffffffffffffffffffffffffffffffffffffffffffffffffffffffffffffffff8203611e0a57611e09611c6b565b5b600182019050919050565b7f4e487b71000000000000000000000000000000000000000000000000000000005f52601260045260245ffd5b5f611e4c82611281565b9150611e5783611281565b925082611e6757611e66611e15565b5b828204905092915050565b5f611e7c82611281565b9150611e8783611281565b9250828202611e9581611281565b91508282048414831517611eac57611eab611c6b565b5b5092915050565b5f611ebd82611281565b9150611ec883611281565b925082611ed857611ed7611e15565b5b82820690509291505056fea264697066735822122071ff6a738bef3b4fcdd4e876e79205d7ae366a306c061a6f8f177e57025a219364736f6c63430008160033",
					"opcodes": "PUSH1 0x80 PUSH1 0x40 MSTORE CALLVALUE DUP1 ISZERO PUSH2 0xF JUMPI PUSH0 DUP1 REVERT JUMPDEST POP CALLER PUSH1 0x2 PUSH0 PUSH2 0x100 EXP DUP2 SLOAD DUP2 PUSH20 0xFFFFFFFFFFFFFFFFFFFFFFFFFFFFFFFFFFFFFFFF MUL NOT AND SWAP1 DUP4 PUSH20 0xFFFFFFFFFFFFFFFFFFFFFFFFFFFFFFFFFFFFFFFF AND MUL OR SWAP1 SSTORE POP PUSH2 0x1F19 DUP1 PUSH2 0x5D PUSH0 CODECOPY PUSH0 RETURN INVALID PUSH1 0x80 PUSH1 0x40 MSTORE CALLVALUE DUP1 ISZERO PUSH2 0xF JUMPI PUSH0 DUP1 REVERT JUMPDEST POP PUSH1 0x4 CALLDATASIZE LT PUSH2 0xCD JUMPI PUSH0 CALLDATALOAD PUSH1 0xE0 SHR DUP1 PUSH4 0x8DA5CB5B GT PUSH2 0x8A JUMPI DUP1 PUSH4 0xA9910054 GT PUSH2 0x64 JUMPI DUP1 PUSH4 0xA9910054 EQ PUSH2 0x236 JUMPI DUP1 PUSH4 0xB49F33C8 EQ PUSH2 0x252 JUMPI DUP1 PUSH4 0xB65814A6 EQ PUSH2 0x26E JUMPI DUP1 PUSH4 0xFE72AE13 EQ PUSH2 0x28A JUMPI PUSH2 0xCD JUMP JUMPDEST DUP1 PUSH4 0x8DA5CB5B EQ PUSH2 0x1CA JUMPI DUP1 PUSH4 0xA1174E7D EQ PUSH2 0x1E8 JUMPI DUP1 PUSH4 0xA9860308 EQ PUSH2 0x206 JUMPI PUSH2 0xCD JUMP JUMPDEST DUP1 PUSH4 0x11BD77FE EQ PUSH2 0xD1 JUMPI DUP1 PUSH4 0x189A5A17 EQ PUSH2 0xED JUMPI DUP1 PUSH4 0x2804401C EQ PUSH2 0x11E JUMPI DUP1 PUSH4 0x2A85BE1E EQ PUSH2 0x14E JUMPI DUP1 PUSH4 0x50F1C985 EQ PUSH2 0x17E JUMPI DUP1 PUSH4 0x7DD77D2B EQ PUSH2 0x1AE JUMPI JUMPDEST PUSH0 DUP1 REVERT JUMPDEST PUSH2 0xEB PUSH1 0x4 DUP1 CALLDATASIZE SUB DUP2 ADD SWAP1 PUSH2 0xE6 SWAP2 SWAP1 PUSH2 0x12B4 JUMP JUMPDEST PUSH2 0x2BA JUMP JUMPDEST STOP JUMPDEST PUSH2 0x107 PUSH1 0x4 DUP1 CALLDATASIZE SUB DUP2 ADD SWAP1 PUSH2 0x102 SWAP2 SWAP1 PUSH2 0x12F2 JUMP JUMPDEST PUSH2 0x4A1 JUMP JUMPDEST PUSH1 0x40 MLOAD PUSH2 0x115 SWAP3 SWAP2 SWAP1 PUSH2 0x133B JUMP JUMPDEST PUSH1 0x40 MLOAD DUP1 SWAP2 SUB SWAP1 RETURN JUMPDEST PUSH2 0x138 PUSH1 0x4 DUP1 CALLDATASIZE SUB DUP2 ADD SWAP1 PUSH2 0x133 SWAP2 SWAP1 PUSH2 0x149E JUMP JUMPDEST PUSH2 0x4DF JUMP JUMPDEST PUSH1 0x40 MLOAD PUSH2 0x145 SWAP2 SWAP1 PUSH2 0x155F JUMP JUMPDEST PUSH1 0x40 MLOAD DUP1 SWAP2 SUB SWAP1 RETURN JUMPDEST PUSH2 0x168 PUSH1 0x4 DUP1 CALLDATASIZE SUB DUP2 ADD SWAP1 PUSH2 0x163 SWAP2 SWAP1 PUSH2 0x157F JUMP JUMPDEST PUSH2 0x619 JUMP JUMPDEST PUSH1 0x40 MLOAD PUSH2 0x175 SWAP2 SWAP1 PUSH2 0x155F JUMP JUMPDEST PUSH1 0x40 MLOAD DUP1 SWAP2 SUB SWAP1 RETURN JUMPDEST PUSH2 0x198 PUSH1 0x4 DUP1 CALLDATASIZE SUB DUP2 ADD SWAP1 PUSH2 0x193 SWAP2 SWAP1 PUSH2 0x157F JUMP JUMPDEST PUSH2 0x621 JUMP JUMPDEST PUSH1 0x40 MLOAD PUSH2 0x1A5 SWAP2 SWAP1 PUSH2 0x155F JUMP JUMPDEST PUSH1 0x40 MLOAD DUP1 SWAP2 SUB SWAP1 RETURN JUMPDEST PUSH2 0x1C8 PUSH1 0x4 DUP1 CALLDATASIZE SUB DUP2 ADD SWAP1 PUSH2 0x1C3 SWAP2 SWAP1 PUSH2 0x15D9 JUMP JUMPDEST PUSH2 0x629 JUMP JUMPDEST STOP JUMPDEST PUSH2 0x1D2 PUSH2 0x83D JUMP JUMPDEST PUSH1 0x40 MLOAD PUSH2 0x1DF SWAP2 SWAP1 PUSH2 0x167D JUMP JUMPDEST PUSH1 0x40 MLOAD DUP1 SWAP2 SUB SWAP1 RETURN JUMPDEST PUSH2 0x1F0 PUSH2 0x862 JUMP JUMPDEST PUSH1 0x40 MLOAD PUSH2 0x1FD SWAP2 SWAP1 PUSH2 0x174D JUMP JUMPDEST PUSH1 0x40 MLOAD DUP1 SWAP2 SUB SWAP1 RETURN JUMPDEST PUSH2 0x220 PUSH1 0x4 DUP1 CALLDATASIZE SUB DUP2 ADD SWAP1 PUSH2 0x21B SWAP2 SWAP1 PUSH2 0x12F2 JUMP JUMPDEST PUSH2 0x8ED JUMP JUMPDEST PUSH1 0x40 MLOAD PUSH2 0x22D SWAP2 SWAP1 PUSH2 0x17A9 JUMP JUMPDEST PUSH1 0x40 MLOAD DUP1 SWAP2 SUB SWAP1 RETURN JUMPDEST PUSH2 0x250 PUSH1 0x4 DUP1 CALLDATASIZE SUB DUP2 ADD SWAP1 PUSH2 0x24B SWAP2 SWAP1 PUSH2 0x149E JUMP JUMPDEST PUSH2 0x9A1 JUMP JUMPDEST STOP JUMPDEST PUSH2 0x26C PUSH1 0x4 DUP1 CALLDATASIZE SUB DUP2 ADD SWAP1 PUSH2 0x267 SWAP2 SWAP1 PUSH2 0x12B4 JUMP JUMPDEST PUSH2 0xBDC JUMP JUMPDEST STOP JUMPDEST PUSH2 0x288 PUSH1 0x4 DUP1 CALLDATASIZE SUB DUP2 ADD SWAP1 PUSH2 0x283 SWAP2 SWAP1 PUSH2 0x157F JUMP JUMPDEST PUSH2 0xCEF JUMP JUMPDEST STOP JUMPDEST PUSH2 0x2A4 PUSH1 0x4 DUP1 CALLDATASIZE SUB DUP2 ADD SWAP1 PUSH2 0x29F SWAP2 SWAP1 PUSH2 0x17C2 JUMP JUMPDEST PUSH2 0xCF3 JUMP JUMPDEST PUSH1 0x40 MLOAD PUSH2 0x2B1 SWAP2 SWAP1 PUSH2 0x167D JUMP JUMPDEST PUSH1 0x40 MLOAD DUP1 SWAP2 SUB SWAP1 RETURN JUMPDEST PUSH0 PUSH20 0xFFFFFFFFFFFFFFFFFFFFFFFFFFFFFFFFFFFFFFFF AND PUSH0 DUP1 DUP5 PUSH20 0xFFFFFFFFFFFFFFFFFFFFFFFFFFFFFFFFFFFFFFFF AND PUSH20 0xFFFFFFFFFFFFFFFFFFFFFFFFFFFFFFFFFFFFFFFF AND DUP2 MSTORE PUSH1 0x20 ADD SWAP1 DUP2 MSTORE PUSH1 0x20 ADD PUSH0 KECCAK256 PUSH0 ADD PUSH0 SWAP1 SLOAD SWAP1 PUSH2 0x100 EXP SWAP1 DIV PUSH20 0xFFFFFFFFFFFFFFFFFFFFFFFFFFFFFFFFFFFFFFFF AND PUSH20 0xFFFFFFFFFFFFFFFFFFFFFFFFFFFFFFFFFFFFFFFF AND EQ PUSH2 0x385 JUMPI PUSH1 0x40 MLOAD PUSH32 0x8C379A000000000000000000000000000000000000000000000000000000000 DUP2 MSTORE PUSH1 0x4 ADD PUSH2 0x37C SWAP1 PUSH2 0x1837 JUMP JUMPDEST PUSH1 0x40 MLOAD DUP1 SWAP2 SUB SWAP1 REVERT JUMPDEST PUSH1 0x40 MLOAD DUP1 PUSH1 0x40 ADD PUSH1 0x40 MSTORE DUP1 DUP4 PUSH20 0xFFFFFFFFFFFFFFFFFFFFFFFFFFFFFFFFFFFFFFFF AND DUP2 MSTORE PUSH1 0x20 ADD DUP3 DUP2 MSTORE POP PUSH0 DUP1 DUP5 PUSH20 0xFFFFFFFFFFFFFFFFFFFFFFFFFFFFFFFFFFFFFFFF AND PUSH20 0xFFFFFFFFFFFFFFFFFFFFFFFFFFFFFFFFFFFFFFFF AND DUP2 MSTORE PUSH1 0x20 ADD SWAP1 DUP2 MSTORE PUSH1 0x20 ADD PUSH0 KECCAK256 PUSH0 DUP3 ADD MLOAD DUP2 PUSH0 ADD PUSH0 PUSH2 0x100 EXP DUP2 SLOAD DUP2 PUSH20 0xFFFFFFFFFFFFFFFFFFFFFFFFFFFFFFFFFFFFFFFF MUL NOT AND SWAP1 DUP4 PUSH20 0xFFFFFFFFFFFFFFFFFFFFFFFFFFFFFFFFFFFFFFFF AND MUL OR SWAP1 SSTORE POP PUSH1 0x20 DUP3 ADD MLOAD DUP2 PUSH1 0x1 ADD SSTORE SWAP1 POP POP PUSH1 0x1 DUP3 SWAP1 DUP1 PUSH1 0x1 DUP2 SLOAD ADD DUP1 DUP3 SSTORE DUP1 SWAP2 POP POP PUSH1 0x1 SWAP1 SUB SWAP1 PUSH0 MSTORE PUSH1 0x20 PUSH0 KECCAK256 ADD PUSH0 SWAP1 SWAP2 SWAP1 SWAP2 SWAP1 SWAP2 PUSH2 0x100 EXP DUP2 SLOAD DUP2 PUSH20 0xFFFFFFFFFFFFFFFFFFFFFFFFFFFFFFFFFFFFFFFF MUL NOT AND SWAP1 DUP4 PUSH20 0xFFFFFFFFFFFFFFFFFFFFFFFFFFFFFFFFFFFFFFFF AND MUL OR SWAP1 SSTORE POP POP POP JUMP JUMPDEST PUSH0 PUSH1 0x20 MSTORE DUP1 PUSH0 MSTORE PUSH1 0x40 PUSH0 KECCAK256 PUSH0 SWAP2 POP SWAP1 POP DUP1 PUSH0 ADD PUSH0 SWAP1 SLOAD SWAP1 PUSH2 0x100 EXP SWAP1 DIV PUSH20 0xFFFFFFFFFFFFFFFFFFFFFFFFFFFFFFFFFFFFFFFF AND SWAP1 DUP1 PUSH1 0x1 ADD SLOAD SWAP1 POP DUP3 JUMP JUMPDEST PUSH1 0x60 PUSH0 PUSH1 0x3 DUP4 PUSH1 0x40 MLOAD PUSH2 0x4F2 SWAP2 SWAP1 PUSH2 0x188F JUMP JUMPDEST SWAP1 DUP2 MSTORE PUSH1 0x20 ADD PUSH1 0x40 MLOAD DUP1 SWAP2 SUB SWAP1 KECCAK256 PUSH1 0x1 ADD SLOAD GT PUSH2 0x544 JUMPI PUSH1 0x40 MLOAD PUSH32 0x8C379A000000000000000000000000000000000000000000000000000000000 DUP2 MSTORE PUSH1 0x4 ADD PUSH2 0x53B SWAP1 PUSH2 0x18EF JUMP JUMPDEST PUSH1 0x40 MLOAD DUP1 SWAP2 SUB SWAP1 REVERT JUMPDEST PUSH0 PUSH1 0x4 DUP4 PUSH1 0x40 MLOAD PUSH2 0x555 SWAP2 SWAP1 PUSH2 0x188F JUMP JUMPDEST SWAP1 DUP2 MSTORE PUSH1 0x20 ADD PUSH1 0x40 MLOAD DUP1 SWAP2 SUB SWAP1 KECCAK256 DUP1 SLOAD DUP1 PUSH1 0x20 MUL PUSH1 0x20 ADD PUSH1 0x40 MLOAD SWAP1 DUP2 ADD PUSH1 0x40 MSTORE DUP1 SWAP3 SWAP2 SWAP1 DUP2 DUP2 MSTORE PUSH1 0x20 ADD DUP3 DUP1 SLOAD DUP1 ISZERO PUSH2 0x5E0 JUMPI PUSH1 0x20 MUL DUP3 ADD SWAP2 SWAP1 PUSH0 MSTORE PUSH1 0x20 PUSH0 KECCAK256 SWAP1 JUMPDEST DUP2 PUSH0 SWAP1 SLOAD SWAP1 PUSH2 0x100 EXP SWAP1 DIV PUSH20 0xFFFFFFFFFFFFFFFFFFFFFFFFFFFFFFFFFFFFFFFF AND PUSH20 0xFFFFFFFFFFFFFFFFFFFFFFFFFFFFFFFFFFFFFFFF AND DUP2 MSTORE PUSH1 0x20 ADD SWAP1 PUSH1 0x1 ADD SWAP1 DUP1 DUP4 GT PUSH2 0x597 JUMPI JUMPDEST POP POP POP POP POP SWAP1 POP PUSH1 0x60 PUSH0 JUMPDEST DUP3 MLOAD DUP2 LT ISZERO PUSH2 0x601 JUMPI DUP1 DUP1 PUSH1 0x1 ADD SWAP2 POP POP PUSH2 0x5EB JUMP JUMPDEST POP PUSH0 PUSH2 0x60C DUP3 PUSH2 0xD2E JUMP JUMPDEST SWAP1 POP DUP1 SWAP4 POP POP POP POP SWAP2 SWAP1 POP JUMP JUMPDEST PUSH1 0x60 SWAP3 SWAP2 POP POP JUMP JUMPDEST PUSH1 0x60 SWAP3 SWAP2 POP POP JUMP JUMPDEST PUSH0 DUP3 MLOAD SWAP1 POP PUSH1 0x40 MLOAD DUP1 PUSH1 0x40 ADD PUSH1 0x40 MSTORE DUP1 DUP6 DUP2 MSTORE PUSH1 0x20 ADD DUP3 DUP2 MSTORE POP PUSH1 0x3 DUP4 PUSH1 0x40 MLOAD PUSH2 0x653 SWAP2 SWAP1 PUSH2 0x188F JUMP JUMPDEST SWAP1 DUP2 MSTORE PUSH1 0x20 ADD PUSH1 0x40 MLOAD DUP1 SWAP2 SUB SWAP1 KECCAK256 PUSH0 DUP3 ADD MLOAD DUP2 PUSH0 ADD SWAP1 DUP2 PUSH2 0x674 SWAP2 SWAP1 PUSH2 0x1B07 JUMP JUMPDEST POP PUSH1 0x20 DUP3 ADD MLOAD DUP2 PUSH1 0x1 ADD SSTORE SWAP1 POP POP PUSH0 PUSH2 0x68C DUP5 PUSH2 0xE8B JUMP JUMPDEST SWAP1 POP PUSH0 JUMPDEST DUP2 MLOAD DUP2 LT ISZERO PUSH2 0x835 JUMPI PUSH0 DUP3 DUP3 DUP2 MLOAD DUP2 LT PUSH2 0x6AD JUMPI PUSH2 0x6AC PUSH2 0x1BD6 JUMP JUMPDEST JUMPDEST PUSH1 0x20 MUL PUSH1 0x20 ADD ADD MLOAD MLOAD SWAP1 POP PUSH0 PUSH2 0x6C2 DUP3 PUSH2 0x105B JUMP JUMPDEST SWAP1 POP PUSH0 PUSH20 0xFFFFFFFFFFFFFFFFFFFFFFFFFFFFFFFFFFFFFFFF AND DUP2 PUSH20 0xFFFFFFFFFFFFFFFFFFFFFFFFFFFFFFFFFFFFFFFF AND SUB PUSH2 0x732 JUMPI PUSH1 0x40 MLOAD PUSH32 0x8C379A000000000000000000000000000000000000000000000000000000000 DUP2 MSTORE PUSH1 0x4 ADD PUSH2 0x729 SWAP1 PUSH2 0x1C4D JUMP JUMPDEST PUSH1 0x40 MLOAD DUP1 SWAP2 SUB SWAP1 REVERT JUMPDEST PUSH1 0x4 DUP7 PUSH1 0x40 MLOAD PUSH2 0x742 SWAP2 SWAP1 PUSH2 0x188F JUMP JUMPDEST SWAP1 DUP2 MSTORE PUSH1 0x20 ADD PUSH1 0x40 MLOAD DUP1 SWAP2 SUB SWAP1 KECCAK256 DUP2 SWAP1 DUP1 PUSH1 0x1 DUP2 SLOAD ADD DUP1 DUP3 SSTORE DUP1 SWAP2 POP POP PUSH1 0x1 SWAP1 SUB SWAP1 PUSH0 MSTORE PUSH1 0x20 PUSH0 KECCAK256 ADD PUSH0 SWAP1 SWAP2 SWAP1 SWAP2 SWAP1 SWAP2 PUSH2 0x100 EXP DUP2 SLOAD DUP2 PUSH20 0xFFFFFFFFFFFFFFFFFFFFFFFFFFFFFFFFFFFFFFFF MUL NOT AND SWAP1 DUP4 PUSH20 0xFFFFFFFFFFFFFFFFFFFFFFFFFFFFFFFFFFFFFFFF AND MUL OR SWAP1 SSTORE POP PUSH2 0x7D2 DUP2 DUP6 DUP6 DUP2 MLOAD DUP2 LT PUSH2 0x7C5 JUMPI PUSH2 0x7C4 PUSH2 0x1BD6 JUMP JUMPDEST JUMPDEST PUSH1 0x20 MUL PUSH1 0x20 ADD ADD MLOAD PUSH2 0xCEF JUMP JUMPDEST PUSH2 0x826 DUP2 DUP4 PUSH0 DUP1 DUP6 PUSH20 0xFFFFFFFFFFFFFFFFFFFFFFFFFFFFFFFFFFFFFFFF AND PUSH20 0xFFFFFFFFFFFFFFFFFFFFFFFFFFFFFFFFFFFFFFFF AND DUP2 MSTORE PUSH1 0x20 ADD SWAP1 DUP2 MSTORE PUSH1 0x20 ADD PUSH0 KECCAK256 PUSH1 0x1 ADD SLOAD PUSH2 0x821 SWAP2 SWAP1 PUSH2 0x1C98 JUMP JUMPDEST PUSH2 0xBDC JUMP JUMPDEST POP POP DUP1 DUP1 PUSH1 0x1 ADD SWAP2 POP POP PUSH2 0x690 JUMP JUMPDEST POP POP POP POP POP POP JUMP JUMPDEST PUSH1 0x2 PUSH0 SWAP1 SLOAD SWAP1 PUSH2 0x100 EXP SWAP1 DIV PUSH20 0xFFFFFFFFFFFFFFFFFFFFFFFFFFFFFFFFFFFFFFFF AND DUP2 JUMP JUMPDEST PUSH1 0x60 PUSH1 0x1 DUP1 SLOAD DUP1 PUSH1 0x20 MUL PUSH1 0x20 ADD PUSH1 0x40 MLOAD SWAP1 DUP2 ADD PUSH1 0x40 MSTORE DUP1 SWAP3 SWAP2 SWAP1 DUP2 DUP2 MSTORE PUSH1 0x20 ADD DUP3 DUP1 SLOAD DUP1 ISZERO PUSH2 0x8E3 JUMPI PUSH1 0x20 MUL DUP3 ADD SWAP2 SWAP1 PUSH0 MSTORE PUSH1 0x20 PUSH0 KECCAK256 SWAP1 JUMPDEST DUP2 PUSH0 SWAP1 SLOAD SWAP1 PUSH2 0x100 EXP SWAP1 DIV PUSH20 0xFFFFFFFFFFFFFFFFFFFFFFFFFFFFFFFFFFFFFFFF AND PUSH20 0xFFFFFFFFFFFFFFFFFFFFFFFFFFFFFFFFFFFFFFFF AND DUP2 MSTORE PUSH1 0x20 ADD SWAP1 PUSH1 0x1 ADD SWAP1 DUP1 DUP4 GT PUSH2 0x89A JUMPI JUMPDEST POP POP POP POP POP SWAP1 POP SWAP1 JUMP JUMPDEST PUSH2 0x8F5 PUSH2 0x1172 JUMP JUMPDEST PUSH0 DUP1 DUP4 PUSH20 0xFFFFFFFFFFFFFFFFFFFFFFFFFFFFFFFFFFFFFFFF AND PUSH20 0xFFFFFFFFFFFFFFFFFFFFFFFFFFFFFFFFFFFFFFFF AND DUP2 MSTORE PUSH1 0x20 ADD SWAP1 DUP2 MSTORE PUSH1 0x20 ADD PUSH0 KECCAK256 PUSH1 0x40 MLOAD DUP1 PUSH1 0x40 ADD PUSH1 0x40 MSTORE SWAP1 DUP2 PUSH0 DUP3 ADD PUSH0 SWAP1 SLOAD SWAP1 PUSH2 0x100 EXP SWAP1 DIV PUSH20 0xFFFFFFFFFFFFFFFFFFFFFFFFFFFFFFFFFFFFFFFF AND PUSH20 0xFFFFFFFFFFFFFFFFFFFFFFFFFFFFFFFFFFFFFFFF AND PUSH20 0xFFFFFFFFFFFFFFFFFFFFFFFFFFFFFFFFFFFFFFFF AND DUP2 MSTORE PUSH1 0x20 ADD PUSH1 0x1 DUP3 ADD SLOAD DUP2 MSTORE POP POP SWAP1 POP SWAP2 SWAP1 POP JUMP JUMPDEST PUSH0 PUSH1 0x3 DUP3 PUSH1 0x40 MLOAD PUSH2 0x9B2 SWAP2 SWAP1 PUSH2 0x188F JUMP JUMPDEST SWAP1 DUP2 MSTORE PUSH1 0x20 ADD PUSH1 0x40 MLOAD DUP1 SWAP2 SUB SWAP1 KECCAK256 PUSH1 0x1 ADD SLOAD GT PUSH2 0xA04 JUMPI PUSH1 0x40 MLOAD PUSH32 0x8C379A000000000000000000000000000000000000000000000000000000000 DUP2 MSTORE PUSH1 0x4 ADD PUSH2 0x9FB SWAP1 PUSH2 0x18EF JUMP JUMPDEST PUSH1 0x40 MLOAD DUP1 SWAP2 SUB SWAP1 REVERT JUMPDEST PUSH1 0x2 PUSH0 SWAP1 SLOAD SWAP1 PUSH2 0x100 EXP SWAP1 DIV PUSH20 0xFFFFFFFFFFFFFFFFFFFFFFFFFFFFFFFFFFFFFFFF AND PUSH20 0xFFFFFFFFFFFFFFFFFFFFFFFFFFFFFFFFFFFFFFFF AND CALLER PUSH20 0xFFFFFFFFFFFFFFFFFFFFFFFFFFFFFFFFFFFFFFFF AND EQ PUSH2 0xA93 JUMPI PUSH1 0x40 MLOAD PUSH32 0x8C379A000000000000000000000000000000000000000000000000000000000 DUP2 MSTORE PUSH1 0x4 ADD PUSH2 0xA8A SWAP1 PUSH2 0x1D15 JUMP JUMPDEST PUSH1 0x40 MLOAD DUP1 SWAP2 SUB SWAP1 REVERT JUMPDEST PUSH0 PUSH1 0x4 DUP3 PUSH1 0x40 MLOAD PUSH2 0xAA4 SWAP2 SWAP1 PUSH2 0x188F JUMP JUMPDEST SWAP1 DUP2 MSTORE PUSH1 0x20 ADD PUSH1 0x40 MLOAD DUP1 SWAP2 SUB SWAP1 KECCAK256 DUP1 SLOAD DUP1 PUSH1 0x20 MUL PUSH1 0x20 ADD PUSH1 0x40 MLOAD SWAP1 DUP2 ADD PUSH1 0x40 MSTORE DUP1 SWAP3 SWAP2 SWAP1 DUP2 DUP2 MSTORE PUSH1 0x20 ADD DUP3 DUP1 SLOAD DUP1 ISZERO PUSH2 0xB2F JUMPI PUSH1 0x20 MUL DUP3 ADD SWAP2 SWAP1 PUSH0 MSTORE PUSH1 0x20 PUSH0 KECCAK256 SWAP1 JUMPDEST DUP2 PUSH0 SWAP1 SLOAD SWAP1 PUSH2 0x100 EXP SWAP1 DIV PUSH20 0xFFFFFFFFFFFFFFFFFFFFFFFFFFFFFFFFFFFFFFFF AND PUSH20 0xFFFFFFFFFFFFFFFFFFFFFFFFFFFFFFFFFFFFFFFF AND DUP2 MSTORE PUSH1 0x20 ADD SWAP1 PUSH1 0x1 ADD SWAP1 DUP1 DUP4 GT PUSH2 0xAE6 JUMPI JUMPDEST POP POP POP POP POP SWAP1 POP PUSH0 JUMPDEST DUP2 MLOAD DUP2 LT ISZERO PUSH2 0xB78 JUMPI PUSH0 DUP3 DUP3 DUP2 MLOAD DUP2 LT PUSH2 0xB55 JUMPI PUSH2 0xB54 PUSH2 0x1BD6 JUMP JUMPDEST JUMPDEST PUSH1 0x20 MUL PUSH1 0x20 ADD ADD MLOAD SWAP1 POP PUSH2 0xB69 DUP2 DUP6 PUSH2 0x621 JUMP JUMPDEST POP POP DUP1 DUP1 PUSH1 0x1 ADD SWAP2 POP POP PUSH2 0xB38 JUMP JUMPDEST POP PUSH1 0x3 DUP3 PUSH1 0x40 MLOAD PUSH2 0xB89 SWAP2 SWAP1 PUSH2 0x188F JUMP JUMPDEST SWAP1 DUP2 MSTORE PUSH1 0x20 ADD PUSH1 0x40 MLOAD DUP1 SWAP2 SUB SWAP1 KECCAK256 PUSH0 DUP1 DUP3 ADD PUSH0 PUSH2 0xBA6 SWAP2 SWAP1 PUSH2 0x11A0 JUMP JUMPDEST PUSH1 0x1 DUP3 ADD PUSH0 SWAP1 SSTORE POP POP PUSH1 0x4 DUP3 PUSH1 0x40 MLOAD PUSH2 0xBBF SWAP2 SWAP1 PUSH2 0x188F JUMP JUMPDEST SWAP1 DUP2 MSTORE PUSH1 0x20 ADD PUSH1 0x40 MLOAD DUP1 SWAP2 SUB SWAP1 KECCAK256 PUSH0 PUSH2 0xBD8 SWAP2 SWAP1 PUSH2 0x11DD JUMP JUMPDEST POP POP JUMP JUMPDEST PUSH0 PUSH20 0xFFFFFFFFFFFFFFFFFFFFFFFFFFFFFFFFFFFFFFFF AND PUSH0 DUP1 DUP5 PUSH20 0xFFFFFFFFFFFFFFFFFFFFFFFFFFFFFFFFFFFFFFFF AND PUSH20 0xFFFFFFFFFFFFFFFFFFFFFFFFFFFFFFFFFFFFFFFF AND DUP2 MSTORE PUSH1 0x20 ADD SWAP1 DUP2 MSTORE PUSH1 0x20 ADD PUSH0 KECCAK256 PUSH0 ADD PUSH0 SWAP1 SLOAD SWAP1 PUSH2 0x100 EXP SWAP1 DIV PUSH20 0xFFFFFFFFFFFFFFFFFFFFFFFFFFFFFFFFFFFFFFFF AND PUSH20 0xFFFFFFFFFFFFFFFFFFFFFFFFFFFFFFFFFFFFFFFF AND SUB PUSH2 0xCA7 JUMPI PUSH1 0x40 MLOAD PUSH32 0x8C379A000000000000000000000000000000000000000000000000000000000 DUP2 MSTORE PUSH1 0x4 ADD PUSH2 0xC9E SWAP1 PUSH2 0x1D7D JUMP JUMPDEST PUSH1 0x40 MLOAD DUP1 SWAP2 SUB SWAP1 REVERT JUMPDEST DUP1 PUSH0 DUP1 DUP5 PUSH20 0xFFFFFFFFFFFFFFFFFFFFFFFFFFFFFFFFFFFFFFFF AND PUSH20 0xFFFFFFFFFFFFFFFFFFFFFFFFFFFFFFFFFFFFFFFF AND DUP2 MSTORE PUSH1 0x20 ADD SWAP1 DUP2 MSTORE PUSH1 0x20 ADD PUSH0 KECCAK256 PUSH1 0x1 ADD DUP2 SWAP1 SSTORE POP POP POP JUMP JUMPDEST POP POP JUMP JUMPDEST PUSH1 0x1 DUP2 DUP2 SLOAD DUP2 LT PUSH2 0xD02 JUMPI PUSH0 DUP1 REVERT JUMPDEST SWAP1 PUSH0 MSTORE PUSH1 0x20 PUSH0 KECCAK256 ADD PUSH0 SWAP2 POP SLOAD SWAP1 PUSH2 0x100 EXP SWAP1 DIV PUSH20 0xFFFFFFFFFFFFFFFFFFFFFFFFFFFFFFFFFFFFFFFF AND DUP2 JUMP JUMPDEST PUSH1 0x60 PUSH0 DUP1 JUMPDEST DUP4 MLOAD DUP2 LT ISZERO PUSH2 0xD72 JUMPI DUP4 DUP2 DUP2 MLOAD DUP2 LT PUSH2 0xD4F JUMPI PUSH2 0xD4E PUSH2 0x1BD6 JUMP JUMPDEST JUMPDEST PUSH1 0x20 MUL PUSH1 0x20 ADD ADD MLOAD MLOAD DUP3 PUSH2 0xD63 SWAP2 SWAP1 PUSH2 0x1D9B JUMP JUMPDEST SWAP2 POP DUP1 DUP1 PUSH1 0x1 ADD SWAP2 POP POP PUSH2 0xD33 JUMP JUMPDEST POP PUSH0 DUP2 PUSH8 0xFFFFFFFFFFFFFFFF DUP2 GT ISZERO PUSH2 0xD8E JUMPI PUSH2 0xD8D PUSH2 0x137A JUMP JUMPDEST JUMPDEST PUSH1 0x40 MLOAD SWAP1 DUP1 DUP3 MSTORE DUP1 PUSH1 0x1F ADD PUSH1 0x1F NOT AND PUSH1 0x20 ADD DUP3 ADD PUSH1 0x40 MSTORE DUP1 ISZERO PUSH2 0xDC0 JUMPI DUP2 PUSH1 0x20 ADD PUSH1 0x1 DUP3 MUL DUP1 CALLDATASIZE DUP4 CALLDATACOPY DUP1 DUP3 ADD SWAP2 POP POP SWAP1 POP JUMPDEST POP SWAP1 POP PUSH0 DUP1 JUMPDEST DUP6 MLOAD DUP2 LT ISZERO PUSH2 0xE7F JUMPI PUSH0 DUP7 DUP3 DUP2 MLOAD DUP2 LT PUSH2 0xDE3 JUMPI PUSH2 0xDE2 PUSH2 0x1BD6 JUMP JUMPDEST JUMPDEST PUSH1 0x20 MUL PUSH1 0x20 ADD ADD MLOAD SWAP1 POP PUSH0 JUMPDEST DUP2 MLOAD DUP2 LT ISZERO PUSH2 0xE70 JUMPI DUP2 DUP2 DUP2 MLOAD DUP2 LT PUSH2 0xE0B JUMPI PUSH2 0xE0A PUSH2 0x1BD6 JUMP JUMPDEST JUMPDEST PUSH1 0x20 ADD ADD MLOAD PUSH1 0xF8 SHR PUSH1 0xF8 SHL DUP6 DUP6 DUP1 PUSH2 0xE22 SWAP1 PUSH2 0x1DCE JUMP JUMPDEST SWAP7 POP DUP2 MLOAD DUP2 LT PUSH2 0xE35 JUMPI PUSH2 0xE34 PUSH2 0x1BD6 JUMP JUMPDEST JUMPDEST PUSH1 0x20 ADD ADD SWAP1 PUSH31 0xFFFFFFFFFFFFFFFFFFFFFFFFFFFFFFFFFFFFFFFFFFFFFFFFFFFFFFFFFFFFFF NOT AND SWAP1 DUP2 PUSH0 BYTE SWAP1 MSTORE8 POP DUP1 DUP1 PUSH1 0x1 ADD SWAP2 POP POP PUSH2 0xDEF JUMP JUMPDEST POP POP DUP1 DUP1 PUSH1 0x1 ADD SWAP2 POP POP PUSH2 0xDC6 JUMP JUMPDEST POP DUP2 SWAP4 POP POP POP POP SWAP2 SWAP1 POP JUMP JUMPDEST PUSH1 0x60 PUSH0 PUSH1 0x20 SWAP1 POP PUSH0 DUP2 PUSH1 0x1 DUP4 DUP7 MLOAD PUSH2 0xEA3 SWAP2 SWAP1 PUSH2 0x1D9B JUMP JUMPDEST PUSH2 0xEAD SWAP2 SWAP1 PUSH2 0x1C98 JUMP JUMPDEST PUSH2 0xEB7 SWAP2 SWAP1 PUSH2 0x1E42 JUMP JUMPDEST SWAP1 POP PUSH0 DUP2 PUSH8 0xFFFFFFFFFFFFFFFF DUP2 GT ISZERO PUSH2 0xED4 JUMPI PUSH2 0xED3 PUSH2 0x137A JUMP JUMPDEST JUMPDEST PUSH1 0x40 MLOAD SWAP1 DUP1 DUP3 MSTORE DUP1 PUSH1 0x20 MUL PUSH1 0x20 ADD DUP3 ADD PUSH1 0x40 MSTORE DUP1 ISZERO PUSH2 0xF07 JUMPI DUP2 PUSH1 0x20 ADD JUMPDEST PUSH1 0x60 DUP2 MSTORE PUSH1 0x20 ADD SWAP1 PUSH1 0x1 SWAP1 SUB SWAP1 DUP2 PUSH2 0xEF2 JUMPI SWAP1 POP JUMPDEST POP SWAP1 POP PUSH0 JUMPDEST DUP3 DUP2 LT ISZERO PUSH2 0x104F JUMPI PUSH0 DUP5 DUP3 PUSH2 0xF21 SWAP2 SWAP1 PUSH2 0x1E72 JUMP JUMPDEST SWAP1 POP PUSH0 DUP6 DUP3 PUSH2 0xF30 SWAP2 SWAP1 PUSH2 0x1D9B JUMP JUMPDEST SWAP1 POP DUP8 MLOAD DUP2 GT ISZERO PUSH2 0xF40 JUMPI DUP8 MLOAD SWAP1 POP JUMPDEST PUSH0 DUP3 DUP3 PUSH2 0xF4D SWAP2 SWAP1 PUSH2 0x1C98 JUMP JUMPDEST PUSH8 0xFFFFFFFFFFFFFFFF DUP2 GT ISZERO PUSH2 0xF66 JUMPI PUSH2 0xF65 PUSH2 0x137A JUMP JUMPDEST JUMPDEST PUSH1 0x40 MLOAD SWAP1 DUP1 DUP3 MSTORE DUP1 PUSH1 0x1F ADD PUSH1 0x1F NOT AND PUSH1 0x20 ADD DUP3 ADD PUSH1 0x40 MSTORE DUP1 ISZERO PUSH2 0xF98 JUMPI DUP2 PUSH1 0x20 ADD PUSH1 0x1 DUP3 MUL DUP1 CALLDATASIZE DUP4 CALLDATACOPY DUP1 DUP3 ADD SWAP2 POP POP SWAP1 POP JUMPDEST POP SWAP1 POP PUSH0 DUP4 SWAP1 POP JUMPDEST DUP3 DUP2 LT ISZERO PUSH2 0x101F JUMPI DUP10 DUP2 DUP2 MLOAD DUP2 LT PUSH2 0xFBB JUMPI PUSH2 0xFBA PUSH2 0x1BD6 JUMP JUMPDEST JUMPDEST PUSH1 0x20 ADD ADD MLOAD PUSH1 0xF8 SHR PUSH1 0xF8 SHL DUP3 DUP6 DUP4 PUSH2 0xFD3 SWAP2 SWAP1 PUSH2 0x1C98 JUMP JUMPDEST DUP2 MLOAD DUP2 LT PUSH2 0xFE4 JUMPI PUSH2 0xFE3 PUSH2 0x1BD6 JUMP JUMPDEST JUMPDEST PUSH1 0x20 ADD ADD SWAP1 PUSH31 0xFFFFFFFFFFFFFFFFFFFFFFFFFFFFFFFFFFFFFFFFFFFFFFFFFFFFFFFFFFFFFF NOT AND SWAP1 DUP2 PUSH0 BYTE SWAP1 MSTORE8 POP DUP1 DUP1 PUSH1 0x1 ADD SWAP2 POP POP PUSH2 0xFA0 JUMP JUMPDEST POP DUP1 DUP6 DUP6 DUP2 MLOAD DUP2 LT PUSH2 0x1034 JUMPI PUSH2 0x1033 PUSH2 0x1BD6 JUMP JUMPDEST JUMPDEST PUSH1 0x20 MUL PUSH1 0x20 ADD ADD DUP2 SWAP1 MSTORE POP POP POP POP DUP1 DUP1 PUSH1 0x1 ADD SWAP2 POP POP PUSH2 0xF0C JUMP JUMPDEST POP DUP1 SWAP4 POP POP POP POP SWAP2 SWAP1 POP JUMP JUMPDEST PUSH0 DUP1 PUSH1 0x1 DUP1 SLOAD SWAP1 POP SWAP1 POP PUSH0 PUSH1 0x32 SWAP1 POP PUSH0 DUP3 SUB PUSH2 0x107B JUMPI PUSH0 SWAP3 POP POP POP PUSH2 0x116D JUMP JUMPDEST PUSH0 DUP3 PUSH1 0x1 NUMBER PUSH2 0x108A SWAP2 SWAP1 PUSH2 0x1C98 JUMP JUMPDEST BLOCKHASH PUSH0 SHR PUSH2 0x1097 SWAP2 SWAP1 PUSH2 0x1EB3 JUMP JUMPDEST SWAP1 POP PUSH0 JUMPDEST DUP4 DUP2 LT ISZERO PUSH2 0x1165 JUMPI PUSH0 PUSH1 0x1 DUP6 DUP4 DUP6 PUSH2 0x10B3 SWAP2 SWAP1 PUSH2 0x1D9B JUMP JUMPDEST PUSH2 0x10BD SWAP2 SWAP1 PUSH2 0x1EB3 JUMP JUMPDEST DUP2 SLOAD DUP2 LT PUSH2 0x10CE JUMPI PUSH2 0x10CD PUSH2 0x1BD6 JUMP JUMPDEST JUMPDEST SWAP1 PUSH0 MSTORE PUSH1 0x20 PUSH0 KECCAK256 ADD PUSH0 SWAP1 SLOAD SWAP1 PUSH2 0x100 EXP SWAP1 DIV PUSH20 0xFFFFFFFFFFFFFFFFFFFFFFFFFFFFFFFFFFFFFFFF AND SWAP1 POP DUP4 DUP8 PUSH2 0x1104 SWAP2 SWAP1 PUSH2 0x1D9B JUMP JUMPDEST PUSH0 DUP1 DUP4 PUSH20 0xFFFFFFFFFFFFFFFFFFFFFFFFFFFFFFFFFFFFFFFF AND PUSH20 0xFFFFFFFFFFFFFFFFFFFFFFFFFFFFFFFFFFFFFFFF AND DUP2 MSTORE PUSH1 0x20 ADD SWAP1 DUP2 MSTORE PUSH1 0x20 ADD PUSH0 KECCAK256 PUSH1 0x1 ADD SLOAD GT ISZERO PUSH2 0x1157 JUMPI DUP1 SWAP6 POP POP POP POP POP POP PUSH2 0x116D JUMP JUMPDEST POP DUP1 DUP1 PUSH1 0x1 ADD SWAP2 POP POP PUSH2 0x109B JUMP JUMPDEST POP PUSH0 SWAP4 POP POP POP POP JUMPDEST SWAP2 SWAP1 POP JUMP JUMPDEST PUSH1 0x40 MLOAD DUP1 PUSH1 0x40 ADD PUSH1 0x40 MSTORE DUP1 PUSH0 PUSH20 0xFFFFFFFFFFFFFFFFFFFFFFFFFFFFFFFFFFFFFFFF AND DUP2 MSTORE PUSH1 0x20 ADD PUSH0 DUP2 MSTORE POP SWAP1 JUMP JUMPDEST POP DUP1 SLOAD PUSH2 0x11AC SWAP1 PUSH2 0x193A JUMP JUMPDEST PUSH0 DUP3 SSTORE DUP1 PUSH1 0x1F LT PUSH2 0x11BD JUMPI POP PUSH2 0x11DA JUMP JUMPDEST PUSH1 0x1F ADD PUSH1 0x20 SWAP1 DIV SWAP1 PUSH0 MSTORE PUSH1 0x20 PUSH0 KECCAK256 SWAP1 DUP2 ADD SWAP1 PUSH2 0x11D9 SWAP2 SWAP1 PUSH2 0x11FB JUMP JUMPDEST JUMPDEST POP JUMP JUMPDEST POP DUP1 SLOAD PUSH0 DUP3 SSTORE SWAP1 PUSH0 MSTORE PUSH1 0x20 PUSH0 KECCAK256 SWAP1 DUP2 ADD SWAP1 PUSH2 0x11F8 SWAP2 SWAP1 PUSH2 0x11FB JUMP JUMPDEST POP JUMP JUMPDEST JUMPDEST DUP1 DUP3 GT ISZERO PUSH2 0x1212 JUMPI PUSH0 DUP2 PUSH0 SWAP1 SSTORE POP PUSH1 0x1 ADD PUSH2 0x11FC JUMP JUMPDEST POP SWAP1 JUMP JUMPDEST PUSH0 PUSH1 0x40 MLOAD SWAP1 POP SWAP1 JUMP JUMPDEST PUSH0 DUP1 REVERT JUMPDEST PUSH0 DUP1 REVERT JUMPDEST PUSH0 PUSH20 0xFFFFFFFFFFFFFFFFFFFFFFFFFFFFFFFFFFFFFFFF DUP3 AND SWAP1 POP SWAP2 SWAP1 POP JUMP JUMPDEST PUSH0 PUSH2 0x1250 DUP3 PUSH2 0x1227 JUMP JUMPDEST SWAP1 POP SWAP2 SWAP1 POP JUMP JUMPDEST PUSH2 0x1260 DUP2 PUSH2 0x1246 JUMP JUMPDEST DUP2 EQ PUSH2 0x126A JUMPI PUSH0 DUP1 REVERT JUMPDEST POP JUMP JUMPDEST PUSH0 DUP2 CALLDATALOAD SWAP1 POP PUSH2 0x127B DUP2 PUSH2 0x1257 JUMP JUMPDEST SWAP3 SWAP2 POP POP JUMP JUMPDEST PUSH0 DUP2 SWAP1 POP SWAP2 SWAP1 POP JUMP JUMPDEST PUSH2 0x1293 DUP2 PUSH2 0x1281 JUMP JUMPDEST DUP2 EQ PUSH2 0x129D JUMPI PUSH0 DUP1 REVERT JUMPDEST POP JUMP JUMPDEST PUSH0 DUP2 CALLDATALOAD SWAP1 POP PUSH2 0x12AE DUP2 PUSH2 0x128A JUMP JUMPDEST SWAP3 SWAP2 POP POP JUMP JUMPDEST PUSH0 DUP1 PUSH1 0x40 DUP4 DUP6 SUB SLT ISZERO PUSH2 0x12CA JUMPI PUSH2 0x12C9 PUSH2 0x121F JUMP JUMPDEST JUMPDEST PUSH0 PUSH2 0x12D7 DUP6 DUP3 DUP7 ADD PUSH2 0x126D JUMP JUMPDEST SWAP3 POP POP PUSH1 0x20 PUSH2 0x12E8 DUP6 DUP3 DUP7 ADD PUSH2 0x12A0 JUMP JUMPDEST SWAP2 POP POP SWAP3 POP SWAP3 SWAP1 POP JUMP JUMPDEST PUSH0 PUSH1 0x20 DUP3 DUP5 SUB SLT ISZERO PUSH2 0x1307 JUMPI PUSH2 0x1306 PUSH2 0x121F JUMP JUMPDEST JUMPDEST PUSH0 PUSH2 0x1314 DUP5 DUP3 DUP6 ADD PUSH2 0x126D JUMP JUMPDEST SWAP2 POP POP SWAP3 SWAP2 POP POP JUMP JUMPDEST PUSH2 0x1326 DUP2 PUSH2 0x1246 JUMP JUMPDEST DUP3 MSTORE POP POP JUMP JUMPDEST PUSH2 0x1335 DUP2 PUSH2 0x1281 JUMP JUMPDEST DUP3 MSTORE POP POP JUMP JUMPDEST PUSH0 PUSH1 0x40 DUP3 ADD SWAP1 POP PUSH2 0x134E PUSH0 DUP4 ADD DUP6 PUSH2 0x131D JUMP JUMPDEST PUSH2 0x135B PUSH1 0x20 DUP4 ADD DUP5 PUSH2 0x132C JUMP JUMPDEST SWAP4 SWAP3 POP POP POP JUMP JUMPDEST PUSH0 DUP1 REVERT JUMPDEST PUSH0 DUP1 REVERT JUMPDEST PUSH0 PUSH1 0x1F NOT PUSH1 0x1F DUP4 ADD AND SWAP1 POP SWAP2 SWAP1 POP JUMP JUMPDEST PUSH32 0x4E487B7100000000000000000000000000000000000000000000000000000000 PUSH0 MSTORE PUSH1 0x41 PUSH1 0x4 MSTORE PUSH1 0x24 PUSH0 REVERT JUMPDEST PUSH2 0x13B0 DUP3 PUSH2 0x136A JUMP JUMPDEST DUP2 ADD DUP2 DUP2 LT PUSH8 0xFFFFFFFFFFFFFFFF DUP3 GT OR ISZERO PUSH2 0x13CF JUMPI PUSH2 0x13CE PUSH2 0x137A JUMP JUMPDEST JUMPDEST DUP1 PUSH1 0x40 MSTORE POP POP POP JUMP JUMPDEST PUSH0 PUSH2 0x13E1 PUSH2 0x1216 JUMP JUMPDEST SWAP1 POP PUSH2 0x13ED DUP3 DUP3 PUSH2 0x13A7 JUMP JUMPDEST SWAP2 SWAP1 POP JUMP JUMPDEST PUSH0 PUSH8 0xFFFFFFFFFFFFFFFF DUP3 GT ISZERO PUSH2 0x140C JUMPI PUSH2 0x140B PUSH2 0x137A JUMP JUMPDEST JUMPDEST PUSH2 0x1415 DUP3 PUSH2 0x136A JUMP JUMPDEST SWAP1 POP PUSH1 0x20 DUP2 ADD SWAP1 POP SWAP2 SWAP1 POP JUMP JUMPDEST DUP3 DUP2 DUP4 CALLDATACOPY PUSH0 DUP4 DUP4 ADD MSTORE POP POP POP JUMP JUMPDEST PUSH0 PUSH2 0x1442 PUSH2 0x143D DUP5 PUSH2 0x13F2 JUMP JUMPDEST PUSH2 0x13D8 JUMP JUMPDEST SWAP1 POP DUP3 DUP2 MSTORE PUSH1 0x20 DUP2 ADD DUP5 DUP5 DUP5 ADD GT ISZERO PUSH2 0x145E JUMPI PUSH2 0x145D PUSH2 0x1366 JUMP JUMPDEST JUMPDEST PUSH2 0x1469 DUP5 DUP3 DUP6 PUSH2 0x1422 JUMP JUMPDEST POP SWAP4 SWAP3 POP POP POP JUMP JUMPDEST PUSH0 DUP3 PUSH1 0x1F DUP4 ADD SLT PUSH2 0x1485 JUMPI PUSH2 0x1484 PUSH2 0x1362 JUMP JUMPDEST JUMPDEST DUP2 CALLDATALOAD PUSH2 0x1495 DUP5 DUP3 PUSH1 0x20 DUP7 ADD PUSH2 0x1430 JUMP JUMPDEST SWAP2 POP POP SWAP3 SWAP2 POP POP JUMP JUMPDEST PUSH0 PUSH1 0x20 DUP3 DUP5 SUB SLT ISZERO PUSH2 0x14B3 JUMPI PUSH2 0x14B2 PUSH2 0x121F JUMP JUMPDEST JUMPDEST PUSH0 DUP3 ADD CALLDATALOAD PUSH8 0xFFFFFFFFFFFFFFFF DUP2 GT ISZERO PUSH2 0x14D0 JUMPI PUSH2 0x14CF PUSH2 0x1223 JUMP JUMPDEST JUMPDEST PUSH2 0x14DC DUP5 DUP3 DUP6 ADD PUSH2 0x1471 JUMP JUMPDEST SWAP2 POP POP SWAP3 SWAP2 POP POP JUMP JUMPDEST PUSH0 DUP2 MLOAD SWAP1 POP SWAP2 SWAP1 POP JUMP JUMPDEST PUSH0 DUP3 DUP3 MSTORE PUSH1 0x20 DUP3 ADD SWAP1 POP SWAP3 SWAP2 POP POP JUMP JUMPDEST PUSH0 JUMPDEST DUP4 DUP2 LT ISZERO PUSH2 0x151C JUMPI DUP1 DUP3 ADD MLOAD DUP2 DUP5 ADD MSTORE PUSH1 0x20 DUP2 ADD SWAP1 POP PUSH2 0x1501 JUMP JUMPDEST PUSH0 DUP5 DUP5 ADD MSTORE POP POP POP POP JUMP JUMPDEST PUSH0 PUSH2 0x1531 DUP3 PUSH2 0x14E5 JUMP JUMPDEST PUSH2 0x153B DUP2 DUP6 PUSH2 0x14EF JUMP JUMPDEST SWAP4 POP PUSH2 0x154B DUP2 DUP6 PUSH1 0x20 DUP7 ADD PUSH2 0x14FF JUMP JUMPDEST PUSH2 0x1554 DUP2 PUSH2 0x136A JUMP JUMPDEST DUP5 ADD SWAP2 POP POP SWAP3 SWAP2 POP POP JUMP JUMPDEST PUSH0 PUSH1 0x20 DUP3 ADD SWAP1 POP DUP2 DUP2 SUB PUSH0 DUP4 ADD MSTORE PUSH2 0x1577 DUP2 DUP5 PUSH2 0x1527 JUMP JUMPDEST SWAP1 POP SWAP3 SWAP2 POP POP JUMP JUMPDEST PUSH0 DUP1 PUSH1 0x40 DUP4 DUP6 SUB SLT ISZERO PUSH2 0x1595 JUMPI PUSH2 0x1594 PUSH2 0x121F JUMP JUMPDEST JUMPDEST PUSH0 PUSH2 0x15A2 DUP6 DUP3 DUP7 ADD PUSH2 0x126D JUMP JUMPDEST SWAP3 POP POP PUSH1 0x20 DUP4 ADD CALLDATALOAD PUSH8 0xFFFFFFFFFFFFFFFF DUP2 GT ISZERO PUSH2 0x15C3 JUMPI PUSH2 0x15C2 PUSH2 0x1223 JUMP JUMPDEST JUMPDEST PUSH2 0x15CF DUP6 DUP3 DUP7 ADD PUSH2 0x1471 JUMP JUMPDEST SWAP2 POP POP SWAP3 POP SWAP3 SWAP1 POP JUMP JUMPDEST PUSH0 DUP1 PUSH0 PUSH1 0x60 DUP5 DUP7 SUB SLT ISZERO PUSH2 0x15F0 JUMPI PUSH2 0x15EF PUSH2 0x121F JUMP JUMPDEST JUMPDEST PUSH0 DUP5 ADD CALLDATALOAD PUSH8 0xFFFFFFFFFFFFFFFF DUP2 GT ISZERO PUSH2 0x160D JUMPI PUSH2 0x160C PUSH2 0x1223 JUMP JUMPDEST JUMPDEST PUSH2 0x1619 DUP7 DUP3 DUP8 ADD PUSH2 0x1471 JUMP JUMPDEST SWAP4 POP POP PUSH1 0x20 DUP5 ADD CALLDATALOAD PUSH8 0xFFFFFFFFFFFFFFFF DUP2 GT ISZERO PUSH2 0x163A JUMPI PUSH2 0x1639 PUSH2 0x1223 JUMP JUMPDEST JUMPDEST PUSH2 0x1646 DUP7 DUP3 DUP8 ADD PUSH2 0x1471 JUMP JUMPDEST SWAP3 POP POP PUSH1 0x40 DUP5 ADD CALLDATALOAD PUSH8 0xFFFFFFFFFFFFFFFF DUP2 GT ISZERO PUSH2 0x1667 JUMPI PUSH2 0x1666 PUSH2 0x1223 JUMP JUMPDEST JUMPDEST PUSH2 0x1673 DUP7 DUP3 DUP8 ADD PUSH2 0x1471 JUMP JUMPDEST SWAP2 POP POP SWAP3 POP SWAP3 POP SWAP3 JUMP JUMPDEST PUSH0 PUSH1 0x20 DUP3 ADD SWAP1 POP PUSH2 0x1690 PUSH0 DUP4 ADD DUP5 PUSH2 0x131D JUMP JUMPDEST SWAP3 SWAP2 POP POP JUMP JUMPDEST PUSH0 DUP2 MLOAD SWAP1 POP SWAP2 SWAP1 POP JUMP JUMPDEST PUSH0 DUP3 DUP3 MSTORE PUSH1 0x20 DUP3 ADD SWAP1 POP SWAP3 SWAP2 POP POP JUMP JUMPDEST PUSH0 DUP2 SWAP1 POP PUSH1 0x20 DUP3 ADD SWAP1 POP SWAP2 SWAP1 POP JUMP JUMPDEST PUSH2 0x16C8 DUP2 PUSH2 0x1246 JUMP JUMPDEST DUP3 MSTORE POP POP JUMP JUMPDEST PUSH0 PUSH2 0x16D9 DUP4 DUP4 PUSH2 0x16BF JUMP JUMPDEST PUSH1 0x20 DUP4 ADD SWAP1 POP SWAP3 SWAP2 POP POP JUMP JUMPDEST PUSH0 PUSH1 0x20 DUP3 ADD SWAP1 POP SWAP2 SWAP1 POP JUMP JUMPDEST PUSH0 PUSH2 0x16FB DUP3 PUSH2 0x1696 JUMP JUMPDEST PUSH2 0x1705 DUP2 DUP6 PUSH2 0x16A0 JUMP JUMPDEST SWAP4 POP PUSH2 0x1710 DUP4 PUSH2 0x16B0 JUMP JUMPDEST DUP1 PUSH0 JUMPDEST DUP4 DUP2 LT ISZERO PUSH2 0x1740 JUMPI DUP2 MLOAD PUSH2 0x1727 DUP9 DUP3 PUSH2 0x16CE JUMP JUMPDEST SWAP8 POP PUSH2 0x1732 DUP4 PUSH2 0x16E5 JUMP JUMPDEST SWAP3 POP POP PUSH1 0x1 DUP2 ADD SWAP1 POP PUSH2 0x1713 JUMP JUMPDEST POP DUP6 SWAP4 POP POP POP POP SWAP3 SWAP2 POP POP JUMP JUMPDEST PUSH0 PUSH1 0x20 DUP3 ADD SWAP1 POP DUP2 DUP2 SUB PUSH0 DUP4 ADD MSTORE PUSH2 0x1765 DUP2 DUP5 PUSH2 0x16F1 JUMP JUMPDEST SWAP1 POP SWAP3 SWAP2 POP POP JUMP JUMPDEST PUSH2 0x1776 DUP2 PUSH2 0x1281 JUMP JUMPDEST DUP3 MSTORE POP POP JUMP JUMPDEST PUSH1 0x40 DUP3 ADD PUSH0 DUP3 ADD MLOAD PUSH2 0x1790 PUSH0 DUP6 ADD DUP3 PUSH2 0x16BF JUMP JUMPDEST POP PUSH1 0x20 DUP3 ADD MLOAD PUSH2 0x17A3 PUSH1 0x20 DUP6 ADD DUP3 PUSH2 0x176D JUMP JUMPDEST POP POP POP POP JUMP JUMPDEST PUSH0 PUSH1 0x40 DUP3 ADD SWAP1 POP PUSH2 0x17BC PUSH0 DUP4 ADD DUP5 PUSH2 0x177C JUMP JUMPDEST SWAP3 SWAP2 POP POP JUMP JUMPDEST PUSH0 PUSH1 0x20 DUP3 DUP5 SUB SLT ISZERO PUSH2 0x17D7 JUMPI PUSH2 0x17D6 PUSH2 0x121F JUMP JUMPDEST JUMPDEST PUSH0 PUSH2 0x17E4 DUP5 DUP3 DUP6 ADD PUSH2 0x12A0 JUMP JUMPDEST SWAP2 POP POP SWAP3 SWAP2 POP POP JUMP JUMPDEST PUSH32 0x4E6F646520616C72656164792065786973747300000000000000000000000000 PUSH0 DUP3 ADD MSTORE POP JUMP JUMPDEST PUSH0 PUSH2 0x1821 PUSH1 0x13 DUP4 PUSH2 0x14EF JUMP JUMPDEST SWAP2 POP PUSH2 0x182C DUP3 PUSH2 0x17ED JUMP JUMPDEST PUSH1 0x20 DUP3 ADD SWAP1 POP SWAP2 SWAP1 POP JUMP JUMPDEST PUSH0 PUSH1 0x20 DUP3 ADD SWAP1 POP DUP2 DUP2 SUB PUSH0 DUP4 ADD MSTORE PUSH2 0x184E DUP2 PUSH2 0x1815 JUMP JUMPDEST SWAP1 POP SWAP2 SWAP1 POP JUMP JUMPDEST PUSH0 DUP2 SWAP1 POP SWAP3 SWAP2 POP POP JUMP JUMPDEST PUSH0 PUSH2 0x1869 DUP3 PUSH2 0x14E5 JUMP JUMPDEST PUSH2 0x1873 DUP2 DUP6 PUSH2 0x1855 JUMP JUMPDEST SWAP4 POP PUSH2 0x1883 DUP2 DUP6 PUSH1 0x20 DUP7 ADD PUSH2 0x14FF JUMP JUMPDEST DUP1 DUP5 ADD SWAP2 POP POP SWAP3 SWAP2 POP POP JUMP JUMPDEST PUSH0 PUSH2 0x189A DUP3 DUP5 PUSH2 0x185F JUMP JUMPDEST SWAP2 POP DUP2 SWAP1 POP SWAP3 SWAP2 POP POP JUMP JUMPDEST PUSH32 0x46696C65206E6F7420666F756E64000000000000000000000000000000000000 PUSH0 DUP3 ADD MSTORE POP JUMP JUMPDEST PUSH0 PUSH2 0x18D9 PUSH1 0xE DUP4 PUSH2 0x14EF JUMP JUMPDEST SWAP2 POP PUSH2 0x18E4 DUP3 PUSH2 0x18A5 JUMP JUMPDEST PUSH1 0x20 DUP3 ADD SWAP1 POP SWAP2 SWAP1 POP JUMP JUMPDEST PUSH0 PUSH1 0x20 DUP3 ADD SWAP1 POP DUP2 DUP2 SUB PUSH0 DUP4 ADD MSTORE PUSH2 0x1906 DUP2 PUSH2 0x18CD JUMP JUMPDEST SWAP1 POP SWAP2 SWAP1 POP JUMP JUMPDEST PUSH32 0x4E487B7100000000000000000000000000000000000000000000000000000000 PUSH0 MSTORE PUSH1 0x22 PUSH1 0x4 MSTORE PUSH1 0x24 PUSH0 REVERT JUMPDEST PUSH0 PUSH1 0x2 DUP3 DIV SWAP1 POP PUSH1 0x1 DUP3 AND DUP1 PUSH2 0x1951 JUMPI PUSH1 0x7F DUP3 AND SWAP2 POP JUMPDEST PUSH1 0x20 DUP3 LT DUP2 SUB PUSH2 0x1964 JUMPI PUSH2 0x1963 PUSH2 0x190D JUMP JUMPDEST JUMPDEST POP SWAP2 SWAP1 POP JUMP JUMPDEST PUSH0 DUP2 SWAP1 POP DUP2 PUSH0 MSTORE PUSH1 0x20 PUSH0 KECCAK256 SWAP1 POP SWAP2 SWAP1 POP JUMP JUMPDEST PUSH0 PUSH1 0x20 PUSH1 0x1F DUP4 ADD DIV SWAP1 POP SWAP2 SWAP1 POP JUMP JUMPDEST PUSH0 DUP3 DUP3 SHL SWAP1 POP SWAP3 SWAP2 POP POP JUMP JUMPDEST PUSH0 PUSH1 0x8 DUP4 MUL PUSH2 0x19C6 PUSH32 0xFFFFFFFFFFFFFFFFFFFFFFFFFFFFFFFFFFFFFFFFFFFFFFFFFFFFFFFFFFFFFFFF DUP3 PUSH2 0x198B JUMP JUMPDEST PUSH2 0x19D0 DUP7 DUP4 PUSH2 0x198B JUMP JUMPDEST SWAP6 POP DUP1 NOT DUP5 AND SWAP4 POP DUP1 DUP7 AND DUP5 OR SWAP3 POP POP POP SWAP4 SWAP3 POP POP POP JUMP JUMPDEST PUSH0 DUP2 SWAP1 POP SWAP2 SWAP1 POP JUMP JUMPDEST PUSH0 PUSH2 0x1A0B PUSH2 0x1A06 PUSH2 0x1A01 DUP5 PUSH2 0x1281 JUMP JUMPDEST PUSH2 0x19E8 JUMP JUMPDEST PUSH2 0x1281 JUMP JUMPDEST SWAP1 POP SWAP2 SWAP1 POP JUMP JUMPDEST PUSH0 DUP2 SWAP1 POP SWAP2 SWAP1 POP JUMP JUMPDEST PUSH2 0x1A24 DUP4 PUSH2 0x19F1 JUMP JUMPDEST PUSH2 0x1A38 PUSH2 0x1A30 DUP3 PUSH2 0x1A12 JUMP JUMPDEST DUP5 DUP5 SLOAD PUSH2 0x1997 JUMP JUMPDEST DUP3 SSTORE POP POP POP POP JUMP JUMPDEST PUSH0 SWAP1 JUMP JUMPDEST PUSH2 0x1A4C PUSH2 0x1A40 JUMP JUMPDEST PUSH2 0x1A57 DUP2 DUP5 DUP5 PUSH2 0x1A1B JUMP JUMPDEST POP POP POP JUMP JUMPDEST JUMPDEST DUP2 DUP2 LT ISZERO PUSH2 0x1A7A JUMPI PUSH2 0x1A6F PUSH0 DUP3 PUSH2 0x1A44 JUMP JUMPDEST PUSH1 0x1 DUP2 ADD SWAP1 POP PUSH2 0x1A5D JUMP JUMPDEST POP POP JUMP JUMPDEST PUSH1 0x1F DUP3 GT ISZERO PUSH2 0x1ABF JUMPI PUSH2 0x1A90 DUP2 PUSH2 0x196A JUMP JUMPDEST PUSH2 0x1A99 DUP5 PUSH2 0x197C JUMP JUMPDEST DUP2 ADD PUSH1 0x20 DUP6 LT ISZERO PUSH2 0x1AA8 JUMPI DUP2 SWAP1 POP JUMPDEST PUSH2 0x1ABC PUSH2 0x1AB4 DUP6 PUSH2 0x197C JUMP JUMPDEST DUP4 ADD DUP3 PUSH2 0x1A5C JUMP JUMPDEST POP POP JUMPDEST POP POP POP JUMP JUMPDEST PUSH0 DUP3 DUP3 SHR SWAP1 POP SWAP3 SWAP2 POP POP JUMP JUMPDEST PUSH0 PUSH2 0x1ADF PUSH0 NOT DUP5 PUSH1 0x8 MUL PUSH2 0x1AC4 JUMP JUMPDEST NOT DUP1 DUP4 AND SWAP2 POP POP SWAP3 SWAP2 POP POP JUMP JUMPDEST PUSH0 PUSH2 0x1AF7 DUP4 DUP4 PUSH2 0x1AD0 JUMP JUMPDEST SWAP2 POP DUP3 PUSH1 0x2 MUL DUP3 OR SWAP1 POP SWAP3 SWAP2 POP POP JUMP JUMPDEST PUSH2 0x1B10 DUP3 PUSH2 0x14E5 JUMP JUMPDEST PUSH8 0xFFFFFFFFFFFFFFFF DUP2 GT ISZERO PUSH2 0x1B29 JUMPI PUSH2 0x1B28 PUSH2 0x137A JUMP JUMPDEST JUMPDEST PUSH2 0x1B33 DUP3 SLOAD PUSH2 0x193A JUMP JUMPDEST PUSH2 0x1B3E DUP3 DUP3 DUP6 PUSH2 0x1A7E JUMP JUMPDEST PUSH0 PUSH1 0x20 SWAP1 POP PUSH1 0x1F DUP4 GT PUSH1 0x1 DUP2 EQ PUSH2 0x1B6F JUMPI PUSH0 DUP5 ISZERO PUSH2 0x1B5D JUMPI DUP3 DUP8 ADD MLOAD SWAP1 POP JUMPDEST PUSH2 0x1B67 DUP6 DUP3 PUSH2 0x1AEC JUMP JUMPDEST DUP7 SSTORE POP PUSH2 0x1BCE JUMP JUMPDEST PUSH1 0x1F NOT DUP5 AND PUSH2 0x1B7D DUP7 PUSH2 0x196A JUMP JUMPDEST PUSH0 JUMPDEST DUP3 DUP2 LT ISZERO PUSH2 0x1BA4 JUMPI DUP5 DUP10 ADD MLOAD DUP3 SSTORE PUSH1 0x1 DUP3 ADD SWAP2 POP PUSH1 0x20 DUP6 ADD SWAP5 POP PUSH1 0x20 DUP2 ADD SWAP1 POP PUSH2 0x1B7F JUMP JUMPDEST DUP7 DUP4 LT ISZERO PUSH2 0x1BC1 JUMPI DUP5 DUP10 ADD MLOAD PUSH2 0x1BBD PUSH1 0x1F DUP10 AND DUP3 PUSH2 0x1AD0 JUMP JUMPDEST DUP4 SSTORE POP JUMPDEST PUSH1 0x1 PUSH1 0x2 DUP9 MUL ADD DUP9 SSTORE POP POP POP JUMPDEST POP POP POP POP POP POP JUMP JUMPDEST PUSH32 0x4E487B7100000000000000000000000000000000000000000000000000000000 PUSH0 MSTORE PUSH1 0x32 PUSH1 0x4 MSTORE PUSH1 0x24 PUSH0 REVERT JUMPDEST PUSH32 0x4E6F20617661696C61626C65206E6F6465730000000000000000000000000000 PUSH0 DUP3 ADD MSTORE POP JUMP JUMPDEST PUSH0 PUSH2 0x1C37 PUSH1 0x12 DUP4 PUSH2 0x14EF JUMP JUMPDEST SWAP2 POP PUSH2 0x1C42 DUP3 PUSH2 0x1C03 JUMP JUMPDEST PUSH1 0x20 DUP3 ADD SWAP1 POP SWAP2 SWAP1 POP JUMP JUMPDEST PUSH0 PUSH1 0x20 DUP3 ADD SWAP1 POP DUP2 DUP2 SUB PUSH0 DUP4 ADD MSTORE PUSH2 0x1C64 DUP2 PUSH2 0x1C2B JUMP JUMPDEST SWAP1 POP SWAP2 SWAP1 POP JUMP JUMPDEST PUSH32 0x4E487B7100000000000000000000000000000000000000000000000000000000 PUSH0 MSTORE PUSH1 0x11 PUSH1 0x4 MSTORE PUSH1 0x24 PUSH0 REVERT JUMPDEST PUSH0 PUSH2 0x1CA2 DUP3 PUSH2 0x1281 JUMP JUMPDEST SWAP2 POP PUSH2 0x1CAD DUP4 PUSH2 0x1281 JUMP JUMPDEST SWAP3 POP DUP3 DUP3 SUB SWAP1 POP DUP2 DUP2 GT ISZERO PUSH2 0x1CC5 JUMPI PUSH2 0x1CC4 PUSH2 0x1C6B JUMP JUMPDEST JUMPDEST SWAP3 SWAP2 POP POP JUMP JUMPDEST PUSH32 0x556E617574686F72697A65640000000000000000000000000000000000000000 PUSH0 DUP3 ADD MSTORE POP JUMP JUMPDEST PUSH0 PUSH2 0x1CFF PUSH1 0xC DUP4 PUSH2 0x14EF JUMP JUMPDEST SWAP2 POP PUSH2 0x1D0A DUP3 PUSH2 0x1CCB JUMP JUMPDEST PUSH1 0x20 DUP3 ADD SWAP1 POP SWAP2 SWAP1 POP JUMP JUMPDEST PUSH0 PUSH1 0x20 DUP3 ADD SWAP1 POP DUP2 DUP2 SUB PUSH0 DUP4 ADD MSTORE PUSH2 0x1D2C DUP2 PUSH2 0x1CF3 JUMP JUMPDEST SWAP1 POP SWAP2 SWAP1 POP JUMP JUMPDEST PUSH32 0x4E6F646520646F6573206E6F7420657869737400000000000000000000000000 PUSH0 DUP3 ADD MSTORE POP JUMP JUMPDEST PUSH0 PUSH2 0x1D67 PUSH1 0x13 DUP4 PUSH2 0x14EF JUMP JUMPDEST SWAP2 POP PUSH2 0x1D72 DUP3 PUSH2 0x1D33 JUMP JUMPDEST PUSH1 0x20 DUP3 ADD SWAP1 POP SWAP2 SWAP1 POP JUMP JUMPDEST PUSH0 PUSH1 0x20 DUP3 ADD SWAP1 POP DUP2 DUP2 SUB PUSH0 DUP4 ADD MSTORE PUSH2 0x1D94 DUP2 PUSH2 0x1D5B JUMP JUMPDEST SWAP1 POP SWAP2 SWAP1 POP JUMP JUMPDEST PUSH0 PUSH2 0x1DA5 DUP3 PUSH2 0x1281 JUMP JUMPDEST SWAP2 POP PUSH2 0x1DB0 DUP4 PUSH2 0x1281 JUMP JUMPDEST SWAP3 POP DUP3 DUP3 ADD SWAP1 POP DUP1 DUP3 GT ISZERO PUSH2 0x1DC8 JUMPI PUSH2 0x1DC7 PUSH2 0x1C6B JUMP JUMPDEST JUMPDEST SWAP3 SWAP2 POP POP JUMP JUMPDEST PUSH0 PUSH2 0x1DD8 DUP3 PUSH2 0x1281 JUMP JUMPDEST SWAP2 POP PUSH32 0xFFFFFFFFFFFFFFFFFFFFFFFFFFFFFFFFFFFFFFFFFFFFFFFFFFFFFFFFFFFFFFFF DUP3 SUB PUSH2 0x1E0A JUMPI PUSH2 0x1E09 PUSH2 0x1C6B JUMP JUMPDEST JUMPDEST PUSH1 0x1 DUP3 ADD SWAP1 POP SWAP2 SWAP1 POP JUMP JUMPDEST PUSH32 0x4E487B7100000000000000000000000000000000000000000000000000000000 PUSH0 MSTORE PUSH1 0x12 PUSH1 0x4 MSTORE PUSH1 0x24 PUSH0 REVERT JUMPDEST PUSH0 PUSH2 0x1E4C DUP3 PUSH2 0x1281 JUMP JUMPDEST SWAP2 POP PUSH2 0x1E57 DUP4 PUSH2 0x1281 JUMP JUMPDEST SWAP3 POP DUP3 PUSH2 0x1E67 JUMPI PUSH2 0x1E66 PUSH2 0x1E15 JUMP JUMPDEST JUMPDEST DUP3 DUP3 DIV SWAP1 POP SWAP3 SWAP2 POP POP JUMP JUMPDEST PUSH0 PUSH2 0x1E7C DUP3 PUSH2 0x1281 JUMP JUMPDEST SWAP2 POP PUSH2 0x1E87 DUP4 PUSH2 0x1281 JUMP JUMPDEST SWAP3 POP DUP3 DUP3 MUL PUSH2 0x1E95 DUP2 PUSH2 0x1281 JUMP JUMPDEST SWAP2 POP DUP3 DUP3 DIV DUP5 EQ DUP4 ISZERO OR PUSH2 0x1EAC JUMPI PUSH2 0x1EAB PUSH2 0x1C6B JUMP JUMPDEST JUMPDEST POP SWAP3 SWAP2 POP POP JUMP JUMPDEST PUSH0 PUSH2 0x1EBD DUP3 PUSH2 0x1281 JUMP JUMPDEST SWAP2 POP PUSH2 0x1EC8 DUP4 PUSH2 0x1281 JUMP JUMPDEST SWAP3 POP DUP3 PUSH2 0x1ED8 JUMPI PUSH2 0x1ED7 PUSH2 0x1E15 JUMP JUMPDEST JUMPDEST DUP3 DUP3 MOD SWAP1 POP SWAP3 SWAP2 POP POP JUMP INVALID LOG2 PUSH5 0x6970667358 0x22 SLT KECCAK256 PUSH18 0xFF6A738BEF3B4FCDD4E876E79205D7AE366A ADDRESS PUSH13 0x61A6F8F177E57025A21936473 PUSH16 0x6C634300081600330000000000000000 "
				},
				"gasEstimates": {
					"creation": {
						"codeDepositCost": "1592200",
						"executionCost": "25929",
						"totalCost": "1618129"
					},
					"external": {
						"addNode(address,uint256)": "98022",
						"allNodes(uint256)": "5032",
						"deleteChunkInNode(address,string)": "infinite",
						"deleteFile(string)": "infinite",
						"getAllNodes()": "infinite",
						"getNodeByAddress(address)": "infinite",
						"nodes(address)": "infinite",
						"owner()": "2531",
						"retrieveChunkInNode(address,string)": "infinite",
						"retrieveFile(string)": "infinite",
						"storeChunkInNode(address,string)": "infinite",
						"storeFile(string,string,string)": "infinite",
						"updateAvailableStorage(address,uint256)": "25134"
					}
				},
				"methodIdentifiers": {
					"addNode(address,uint256)": "11bd77fe",
					"allNodes(uint256)": "fe72ae13",
					"deleteChunkInNode(address,string)": "50f1c985",
					"deleteFile(string)": "a9910054",
					"getAllNodes()": "a1174e7d",
					"getNodeByAddress(address)": "a9860308",
					"nodes(address)": "189a5a17",
					"owner()": "8da5cb5b",
					"retrieveChunkInNode(address,string)": "2a85be1e",
					"retrieveFile(string)": "2804401c",
					"storeChunkInNode(address,string)": "b65814a6",
					"storeFile(string,string,string)": "7dd77d2b",
					"updateAvailableStorage(address,uint256)": "b49f33c8"
				}
			},
			"storageLayout": {
				"storage": [
					{
						"astId": 504,
						"contract": "contracts/_FileStorage.sol:FileStorageManager",
						"label": "nodes",
						"offset": 0,
						"slot": "0",
						"type": "t_mapping(t_address,t_struct(Node)499_storage)"
					},
					{
						"astId": 507,
						"contract": "contracts/_FileStorage.sol:FileStorageManager",
						"label": "allNodes",
						"offset": 0,
						"slot": "1",
						"type": "t_array(t_address)dyn_storage"
					},
					{
						"astId": 233,
						"contract": "contracts/_FileStorage.sol:FileStorageManager",
						"label": "owner",
						"offset": 0,
						"slot": "2",
						"type": "t_address"
					},
					{
						"astId": 238,
						"contract": "contracts/_FileStorage.sol:FileStorageManager",
						"label": "fileIdToMetadata",
						"offset": 0,
						"slot": "3",
						"type": "t_mapping(t_string_memory_ptr,t_struct(FileMetadata)248_storage)"
					},
					{
						"astId": 243,
						"contract": "contracts/_FileStorage.sol:FileStorageManager",
						"label": "fileIdToNodesAddresses",
						"offset": 0,
						"slot": "4",
						"type": "t_mapping(t_string_memory_ptr,t_array(t_address)dyn_storage)"
					}
				],
				"types": {
					"t_address": {
						"encoding": "inplace",
						"label": "address",
						"numberOfBytes": "20"
					},
					"t_array(t_address)dyn_storage": {
						"base": "t_address",
						"encoding": "dynamic_array",
						"label": "address[]",
						"numberOfBytes": "32"
					},
					"t_mapping(t_address,t_struct(Node)499_storage)": {
						"encoding": "mapping",
						"key": "t_address",
						"label": "mapping(address => struct NodeManager.Node)",
						"numberOfBytes": "32",
						"value": "t_struct(Node)499_storage"
					},
					"t_mapping(t_string_memory_ptr,t_array(t_address)dyn_storage)": {
						"encoding": "mapping",
						"key": "t_string_memory_ptr",
						"label": "mapping(string => address[])",
						"numberOfBytes": "32",
						"value": "t_array(t_address)dyn_storage"
					},
					"t_mapping(t_string_memory_ptr,t_struct(FileMetadata)248_storage)": {
						"encoding": "mapping",
						"key": "t_string_memory_ptr",
						"label": "mapping(string => struct FileStorageManager.FileMetadata)",
						"numberOfBytes": "32",
						"value": "t_struct(FileMetadata)248_storage"
					},
					"t_string_memory_ptr": {
						"encoding": "bytes",
						"label": "string",
						"numberOfBytes": "32"
					},
					"t_string_storage": {
						"encoding": "bytes",
						"label": "string",
						"numberOfBytes": "32"
					},
					"t_struct(FileMetadata)248_storage": {
						"encoding": "inplace",
						"label": "struct FileStorageManager.FileMetadata",
						"members": [
							{
								"astId": 245,
								"contract": "contracts/_FileStorage.sol:FileStorageManager",
								"label": "fileName",
								"offset": 0,
								"slot": "0",
								"type": "t_string_storage"
							},
							{
								"astId": 247,
								"contract": "contracts/_FileStorage.sol:FileStorageManager",
								"label": "fileSize",
								"offset": 0,
								"slot": "1",
								"type": "t_uint256"
							}
						],
						"numberOfBytes": "64"
					},
					"t_struct(Node)499_storage": {
						"encoding": "inplace",
						"label": "struct NodeManager.Node",
						"members": [
							{
								"astId": 496,
								"contract": "contracts/_FileStorage.sol:FileStorageManager",
								"label": "nodeAddress",
								"offset": 0,
								"slot": "0",
								"type": "t_address"
							},
							{
								"astId": 498,
								"contract": "contracts/_FileStorage.sol:FileStorageManager",
								"label": "availableStorage",
								"offset": 0,
								"slot": "1",
								"type": "t_uint256"
							}
						],
						"numberOfBytes": "64"
					},
					"t_uint256": {
						"encoding": "inplace",
						"label": "uint256",
						"numberOfBytes": "32"
					}
				}
			},
			"userdoc": {
				"kind": "user",
				"methods": {},
				"version": 1
			}
		}
	}
}