{
	"contracts/_FileStorage.sol": {
		"FileStorageManager": {
			"abi": [
				{
					"inputs": [
						{
							"internalType": "uint256",
							"name": "initialStorage",
							"type": "uint256"
						}
					],
					"stateMutability": "nonpayable",
					"type": "constructor"
				},
				{
					"anonymous": false,
					"inputs": [
						{
							"indexed": false,
							"internalType": "string",
							"name": "fileId",
							"type": "string"
						},
						{
							"indexed": false,
							"internalType": "uint256",
							"name": "newAvailableStorage",
							"type": "uint256"
						}
					],
					"name": "FileDeleted",
					"type": "event"
				},
				{
					"anonymous": false,
					"inputs": [
						{
							"indexed": false,
							"internalType": "string",
							"name": "fileName",
							"type": "string"
						},
						{
							"indexed": false,
							"internalType": "string",
							"name": "content",
							"type": "string"
						}
					],
					"name": "FileRetrieved",
					"type": "event"
				},
				{
					"anonymous": false,
					"inputs": [
						{
							"indexed": false,
							"internalType": "string",
							"name": "fileName",
							"type": "string"
						},
						{
							"indexed": false,
							"internalType": "string",
							"name": "fileId",
							"type": "string"
						},
						{
							"indexed": false,
							"internalType": "uint256",
							"name": "newAvailableStorage",
							"type": "uint256"
						}
					],
					"name": "FileStored",
					"type": "event"
				},
				{
					"inputs": [],
					"name": "availableStorage",
					"outputs": [
						{
							"internalType": "uint256",
							"name": "",
							"type": "uint256"
						}
					],
					"stateMutability": "view",
					"type": "function"
				},
				{
					"inputs": [
						{
							"internalType": "string",
							"name": "fileId",
							"type": "string"
						}
					],
					"name": "deleteFile",
					"outputs": [],
					"stateMutability": "nonpayable",
					"type": "function"
				},
				{
					"inputs": [],
					"name": "owner",
					"outputs": [
						{
							"internalType": "address",
							"name": "",
							"type": "address"
						}
					],
					"stateMutability": "view",
					"type": "function"
				},
				{
					"inputs": [
						{
							"internalType": "string",
							"name": "fileId",
							"type": "string"
						}
					],
					"name": "retrieveFile",
					"outputs": [
						{
							"internalType": "string",
							"name": "",
							"type": "string"
						}
					],
					"stateMutability": "view",
					"type": "function"
				},
				{
					"inputs": [
						{
							"internalType": "string",
							"name": "fileName",
							"type": "string"
						},
						{
							"internalType": "string",
							"name": "content",
							"type": "string"
						},
						{
							"internalType": "string",
							"name": "uniqueId",
							"type": "string"
						}
					],
					"name": "storeFile",
					"outputs": [],
					"stateMutability": "nonpayable",
					"type": "function"
				}
			],
			"devdoc": {
				"kind": "dev",
				"methods": {},
				"version": 1
			},
			"evm": {
				"assembly": "    /* \"contracts/_FileStorage.sol\":64:2200  contract FileStorageManager {... */\n  mstore(0x40, 0x80)\n    /* \"contracts/_FileStorage.sol\":838:955  constructor(uint256 initialStorage) {... */\n  callvalue\n  dup1\n  iszero\n  tag_1\n  jumpi\n  0x00\n  dup1\n  revert\ntag_1:\n  pop\n  mload(0x40)\n  sub(codesize, bytecodeSize)\n  dup1\n  bytecodeSize\n  dup4\n  codecopy\n  dup2\n  dup2\n  add\n  0x40\n  mstore\n  dup2\n  add\n  swap1\n  tag_2\n  swap2\n  swap1\n  tag_3\n  jump\t// in\ntag_2:\n    /* \"contracts/_FileStorage.sol\":893:903  msg.sender */\n  caller\n    /* \"contracts/_FileStorage.sol\":885:890  owner */\n  0x00\n  dup1\n    /* \"contracts/_FileStorage.sol\":885:903  owner = msg.sender */\n  0x0100\n  exp\n  dup2\n  sload\n  dup2\n  0xffffffffffffffffffffffffffffffffffffffff\n  mul\n  not\n  and\n  swap1\n  dup4\n  0xffffffffffffffffffffffffffffffffffffffff\n  and\n  mul\n  or\n  swap1\n  sstore\n  pop\n    /* \"contracts/_FileStorage.sol\":933:947  initialStorage */\n  dup1\n    /* \"contracts/_FileStorage.sol\":914:930  availableStorage */\n  0x01\n    /* \"contracts/_FileStorage.sol\":914:947  availableStorage = initialStorage */\n  dup2\n  swap1\n  sstore\n  pop\n    /* \"contracts/_FileStorage.sol\":838:955  constructor(uint256 initialStorage) {... */\n  pop\n    /* \"contracts/_FileStorage.sol\":64:2200  contract FileStorageManager {... */\n  jump(tag_6)\n    /* \"#utility.yul\":88:205   */\ntag_8:\n    /* \"#utility.yul\":197:198   */\n  0x00\n    /* \"#utility.yul\":194:195   */\n  dup1\n    /* \"#utility.yul\":187:199   */\n  revert\n    /* \"#utility.yul\":334:411   */\ntag_10:\n    /* \"#utility.yul\":371:378   */\n  0x00\n    /* \"#utility.yul\":400:405   */\n  dup2\n    /* \"#utility.yul\":389:405   */\n  swap1\n  pop\n    /* \"#utility.yul\":334:411   */\n  swap2\n  swap1\n  pop\n  jump\t// out\n    /* \"#utility.yul\":417:539   */\ntag_11:\n    /* \"#utility.yul\":490:514   */\n  tag_19\n    /* \"#utility.yul\":508:513   */\n  dup2\n    /* \"#utility.yul\":490:514   */\n  tag_10\n  jump\t// in\ntag_19:\n    /* \"#utility.yul\":483:488   */\n  dup2\n    /* \"#utility.yul\":480:515   */\n  eq\n    /* \"#utility.yul\":470:533   */\n  tag_20\n  jumpi\n    /* \"#utility.yul\":529:530   */\n  0x00\n    /* \"#utility.yul\":526:527   */\n  dup1\n    /* \"#utility.yul\":519:531   */\n  revert\n    /* \"#utility.yul\":470:533   */\ntag_20:\n    /* \"#utility.yul\":417:539   */\n  pop\n  jump\t// out\n    /* \"#utility.yul\":545:688   */\ntag_12:\n    /* \"#utility.yul\":602:607   */\n  0x00\n    /* \"#utility.yul\":633:639   */\n  dup2\n    /* \"#utility.yul\":627:640   */\n  mload\n    /* \"#utility.yul\":618:640   */\n  swap1\n  pop\n    /* \"#utility.yul\":649:682   */\n  tag_22\n    /* \"#utility.yul\":676:681   */\n  dup2\n    /* \"#utility.yul\":649:682   */\n  tag_11\n  jump\t// in\ntag_22:\n    /* \"#utility.yul\":545:688   */\n  swap3\n  swap2\n  pop\n  pop\n  jump\t// out\n    /* \"#utility.yul\":694:1045   */\ntag_3:\n    /* \"#utility.yul\":764:770   */\n  0x00\n    /* \"#utility.yul\":813:815   */\n  0x20\n    /* \"#utility.yul\":801:810   */\n  dup3\n    /* \"#utility.yul\":792:799   */\n  dup5\n    /* \"#utility.yul\":788:811   */\n  sub\n    /* \"#utility.yul\":784:816   */\n  slt\n    /* \"#utility.yul\":781:900   */\n  iszero\n  tag_24\n  jumpi\n    /* \"#utility.yul\":819:898   */\n  tag_25\n  tag_8\n  jump\t// in\ntag_25:\n    /* \"#utility.yul\":781:900   */\ntag_24:\n    /* \"#utility.yul\":939:940   */\n  0x00\n    /* \"#utility.yul\":964:1028   */\n  tag_26\n    /* \"#utility.yul\":1020:1027   */\n  dup5\n    /* \"#utility.yul\":1011:1017   */\n  dup3\n    /* \"#utility.yul\":1000:1009   */\n  dup6\n    /* \"#utility.yul\":996:1018   */\n  add\n    /* \"#utility.yul\":964:1028   */\n  tag_12\n  jump\t// in\ntag_26:\n    /* \"#utility.yul\":954:1028   */\n  swap2\n  pop\n    /* \"#utility.yul\":910:1038   */\n  pop\n    /* \"#utility.yul\":694:1045   */\n  swap3\n  swap2\n  pop\n  pop\n  jump\t// out\n    /* \"contracts/_FileStorage.sol\":64:2200  contract FileStorageManager {... */\ntag_6:\n  dataSize(sub_0)\n  dup1\n  dataOffset(sub_0)\n  0x00\n  codecopy\n  0x00\n  return\nstop\n\nsub_0: assembly {\n        /* \"contracts/_FileStorage.sol\":64:2200  contract FileStorageManager {... */\n      mstore(0x40, 0x80)\n      callvalue\n      dup1\n      iszero\n      tag_1\n      jumpi\n      0x00\n      dup1\n      revert\n    tag_1:\n      pop\n      jumpi(tag_2, lt(calldatasize, 0x04))\n      shr(0xe0, calldataload(0x00))\n      dup1\n      0x2804401c\n      eq\n      tag_3\n      jumpi\n      dup1\n      0x7dd77d2b\n      eq\n      tag_4\n      jumpi\n      dup1\n      0x8da5cb5b\n      eq\n      tag_5\n      jumpi\n      dup1\n      0xa9910054\n      eq\n      tag_6\n      jumpi\n      dup1\n      0xe973baec\n      eq\n      tag_7\n      jumpi\n    tag_2:\n      0x00\n      dup1\n      revert\n        /* \"contracts/_FileStorage.sol\":1485:1704  function retrieveFile(string memory fileId) public view returns (string memory) {... */\n    tag_3:\n      tag_8\n      0x04\n      dup1\n      calldatasize\n      sub\n      dup2\n      add\n      swap1\n      tag_9\n      swap2\n      swap1\n      tag_10\n      jump\t// in\n    tag_9:\n      tag_11\n      jump\t// in\n    tag_8:\n      mload(0x40)\n      tag_12\n      swap2\n      swap1\n      tag_13\n      jump\t// in\n    tag_12:\n      mload(0x40)\n      dup1\n      swap2\n      sub\n      swap1\n      return\n        /* \"contracts/_FileStorage.sol\":963:1475  function storeFile(string memory fileName, string memory content, string memory uniqueId)  public {// one more argument ... */\n    tag_4:\n      tag_14\n      0x04\n      dup1\n      calldatasize\n      sub\n      dup2\n      add\n      swap1\n      tag_15\n      swap2\n      swap1\n      tag_16\n      jump\t// in\n    tag_15:\n      tag_17\n      jump\t// in\n    tag_14:\n      stop\n        /* \"contracts/_FileStorage.sol\":99:119  address public owner */\n    tag_5:\n      tag_18\n      tag_19\n      jump\t// in\n    tag_18:\n      mload(0x40)\n      tag_20\n      swap2\n      swap1\n      tag_21\n      jump\t// in\n    tag_20:\n      mload(0x40)\n      dup1\n      swap2\n      sub\n      swap1\n      return\n        /* \"contracts/_FileStorage.sol\":1714:2195  function deleteFile(string memory fileId) public {... */\n    tag_6:\n      tag_22\n      0x04\n      dup1\n      calldatasize\n      sub\n      dup2\n      add\n      swap1\n      tag_23\n      swap2\n      swap1\n      tag_10\n      jump\t// in\n    tag_23:\n      tag_24\n      jump\t// in\n    tag_22:\n      stop\n        /* \"contracts/_FileStorage.sol\":126:157  uint256 public availableStorage */\n    tag_7:\n      tag_25\n      tag_26\n      jump\t// in\n    tag_25:\n      mload(0x40)\n      tag_27\n      swap2\n      swap1\n      tag_28\n      jump\t// in\n    tag_27:\n      mload(0x40)\n      dup1\n      swap2\n      sub\n      swap1\n      return\n        /* \"contracts/_FileStorage.sol\":1485:1704  function retrieveFile(string memory fileId) public view returns (string memory) {... */\n    tag_11:\n        /* \"contracts/_FileStorage.sol\":1550:1563  string memory */\n      0x60\n        /* \"contracts/_FileStorage.sol\":1630:1631  0 */\n      0x00\n        /* \"contracts/_FileStorage.sol\":1590:1602  fileIdToFile */\n      0x02\n        /* \"contracts/_FileStorage.sol\":1603:1609  fileId */\n      dup4\n        /* \"contracts/_FileStorage.sol\":1590:1610  fileIdToFile[fileId] */\n      mload(0x40)\n      tag_30\n      swap2\n      swap1\n      tag_31\n      jump\t// in\n    tag_30:\n      swap1\n      dup2\n      mstore\n      0x20\n      add\n      mload(0x40)\n      dup1\n      swap2\n      sub\n      swap1\n      keccak256\n        /* \"contracts/_FileStorage.sol\":1590:1619  fileIdToFile[fileId].fileName */\n      0x01\n      add\n        /* \"contracts/_FileStorage.sol\":1584:1627  bytes(fileIdToFile[fileId].fileName).length */\n      dup1\n      sload\n      tag_32\n      swap1\n      tag_33\n      jump\t// in\n    tag_32:\n      swap1\n      pop\n        /* \"contracts/_FileStorage.sol\":1584:1631  bytes(fileIdToFile[fileId].fileName).length > 0 */\n      gt\n        /* \"contracts/_FileStorage.sol\":1576:1650  require(bytes(fileIdToFile[fileId].fileName).length > 0, \"File not found\") */\n      tag_34\n      jumpi\n      mload(0x40)\n      0x08c379a000000000000000000000000000000000000000000000000000000000\n      dup2\n      mstore\n      0x04\n      add\n      tag_35\n      swap1\n      tag_36\n      jump\t// in\n    tag_35:\n      mload(0x40)\n      dup1\n      swap2\n      sub\n      swap1\n      revert\n    tag_34:\n        /* \"contracts/_FileStorage.sol\":1668:1680  fileIdToFile */\n      0x02\n        /* \"contracts/_FileStorage.sol\":1681:1687  fileId */\n      dup3\n        /* \"contracts/_FileStorage.sol\":1668:1688  fileIdToFile[fileId] */\n      mload(0x40)\n      tag_37\n      swap2\n      swap1\n      tag_31\n      jump\t// in\n    tag_37:\n      swap1\n      dup2\n      mstore\n      0x20\n      add\n      mload(0x40)\n      dup1\n      swap2\n      sub\n      swap1\n      keccak256\n        /* \"contracts/_FileStorage.sol\":1668:1696  fileIdToFile[fileId].content */\n      0x00\n      add\n        /* \"contracts/_FileStorage.sol\":1661:1696  return fileIdToFile[fileId].content */\n      dup1\n      sload\n      tag_38\n      swap1\n      tag_33\n      jump\t// in\n    tag_38:\n      dup1\n      0x1f\n      add\n      0x20\n      dup1\n      swap2\n      div\n      mul\n      0x20\n      add\n      mload(0x40)\n      swap1\n      dup2\n      add\n      0x40\n      mstore\n      dup1\n      swap3\n      swap2\n      swap1\n      dup2\n      dup2\n      mstore\n      0x20\n      add\n      dup3\n      dup1\n      sload\n      tag_39\n      swap1\n      tag_33\n      jump\t// in\n    tag_39:\n      dup1\n      iszero\n      tag_40\n      jumpi\n      dup1\n      0x1f\n      lt\n      tag_41\n      jumpi\n      0x0100\n      dup1\n      dup4\n      sload\n      div\n      mul\n      dup4\n      mstore\n      swap2\n      0x20\n      add\n      swap2\n      jump(tag_40)\n    tag_41:\n      dup3\n      add\n      swap2\n      swap1\n      0x00\n      mstore\n      keccak256(0x00, 0x20)\n      swap1\n    tag_42:\n      dup2\n      sload\n      dup2\n      mstore\n      swap1\n      0x01\n      add\n      swap1\n      0x20\n      add\n      dup1\n      dup4\n      gt\n      tag_42\n      jumpi\n      dup3\n      swap1\n      sub\n      0x1f\n      and\n      dup3\n      add\n      swap2\n    tag_40:\n      pop\n      pop\n      pop\n      pop\n      pop\n      swap1\n      pop\n        /* \"contracts/_FileStorage.sol\":1485:1704  function retrieveFile(string memory fileId) public view returns (string memory) {... */\n      swap2\n      swap1\n      pop\n      jump\t// out\n        /* \"contracts/_FileStorage.sol\":963:1475  function storeFile(string memory fileName, string memory content, string memory uniqueId)  public {// one more argument ... */\n    tag_17:\n        /* \"contracts/_FileStorage.sol\":1093:1109  uint256 fileSize */\n      0x00\n        /* \"contracts/_FileStorage.sol\":1118:1125  content */\n      dup3\n        /* \"contracts/_FileStorage.sol\":1112:1133  bytes(content).length */\n      mload\n        /* \"contracts/_FileStorage.sol\":1093:1133  uint256 fileSize = bytes(content).length */\n      swap1\n      pop\n        /* \"contracts/_FileStorage.sol\":1172:1180  fileSize */\n      dup1\n        /* \"contracts/_FileStorage.sol\":1152:1168  availableStorage */\n      sload(0x01)\n        /* \"contracts/_FileStorage.sol\":1152:1180  availableStorage >= fileSize */\n      lt\n      iszero\n        /* \"contracts/_FileStorage.sol\":1144:1205  require(availableStorage >= fileSize, \"No storage available\") */\n      tag_44\n      jumpi\n      mload(0x40)\n      0x08c379a000000000000000000000000000000000000000000000000000000000\n      dup2\n      mstore\n      0x04\n      add\n      tag_45\n      swap1\n      tag_46\n      jump\t// in\n    tag_45:\n      mload(0x40)\n      dup1\n      swap2\n      sub\n      swap1\n      revert\n    tag_44:\n        /* \"contracts/_FileStorage.sol\":1251:1274  File(content, fileName) */\n      mload(0x40)\n      dup1\n      0x40\n      add\n      0x40\n      mstore\n      dup1\n        /* \"contracts/_FileStorage.sol\":1256:1263  content */\n      dup5\n        /* \"contracts/_FileStorage.sol\":1251:1274  File(content, fileName) */\n      dup2\n      mstore\n      0x20\n      add\n        /* \"contracts/_FileStorage.sol\":1265:1273  fileName */\n      dup6\n        /* \"contracts/_FileStorage.sol\":1251:1274  File(content, fileName) */\n      dup2\n      mstore\n      pop\n        /* \"contracts/_FileStorage.sol\":1226:1238  fileIdToFile */\n      0x02\n        /* \"contracts/_FileStorage.sol\":1239:1247  uniqueId */\n      dup4\n        /* \"contracts/_FileStorage.sol\":1226:1248  fileIdToFile[uniqueId] */\n      mload(0x40)\n      tag_47\n      swap2\n      swap1\n      tag_31\n      jump\t// in\n    tag_47:\n      swap1\n      dup2\n      mstore\n      0x20\n      add\n      mload(0x40)\n      dup1\n      swap2\n      sub\n      swap1\n      keccak256\n        /* \"contracts/_FileStorage.sol\":1226:1274  fileIdToFile[uniqueId] = File(content, fileName) */\n      0x00\n      dup3\n      add\n      mload\n      dup2\n      0x00\n      add\n      swap1\n      dup2\n      tag_48\n      swap2\n      swap1\n      tag_49\n      jump\t// in\n    tag_48:\n      pop\n      0x20\n      dup3\n      add\n      mload\n      dup2\n      0x01\n      add\n      swap1\n      dup2\n      tag_50\n      swap2\n      swap1\n      tag_49\n      jump\t// in\n    tag_50:\n      pop\n      swap1\n      pop\n      pop\n        /* \"contracts/_FileStorage.sol\":1312:1322  msg.sender */\n      caller\n        /* \"contracts/_FileStorage.sol\":1285:1299  fileIdToUserId */\n      0x03\n        /* \"contracts/_FileStorage.sol\":1300:1308  uniqueId */\n      dup4\n        /* \"contracts/_FileStorage.sol\":1285:1309  fileIdToUserId[uniqueId] */\n      mload(0x40)\n      tag_51\n      swap2\n      swap1\n      tag_31\n      jump\t// in\n    tag_51:\n      swap1\n      dup2\n      mstore\n      0x20\n      add\n      mload(0x40)\n      dup1\n      swap2\n      sub\n      swap1\n      keccak256\n      0x00\n        /* \"contracts/_FileStorage.sol\":1285:1322  fileIdToUserId[uniqueId] = msg.sender */\n      0x0100\n      exp\n      dup2\n      sload\n      dup2\n      0xffffffffffffffffffffffffffffffffffffffff\n      mul\n      not\n      and\n      swap1\n      dup4\n      0xffffffffffffffffffffffffffffffffffffffff\n      and\n      mul\n      or\n      swap1\n      sstore\n      pop\n        /* \"contracts/_FileStorage.sol\":1355:1363  fileSize */\n      dup1\n        /* \"contracts/_FileStorage.sol\":1335:1351  availableStorage */\n      0x01\n      0x00\n        /* \"contracts/_FileStorage.sol\":1335:1363  availableStorage -= fileSize */\n      dup3\n      dup3\n      sload\n      tag_52\n      swap2\n      swap1\n      tag_53\n      jump\t// in\n    tag_52:\n      swap3\n      pop\n      pop\n      dup2\n      swap1\n      sstore\n      pop\n        /* \"contracts/_FileStorage.sol\":1381:1429  FileStored(fileName, uniqueId, availableStorage) */\n      0x2c414f559c9d15f63c1eef2bf4a68cd20c83c7fa26ab1244e74ffa5f436bbda0\n        /* \"contracts/_FileStorage.sol\":1392:1400  fileName */\n      dup5\n        /* \"contracts/_FileStorage.sol\":1402:1410  uniqueId */\n      dup4\n        /* \"contracts/_FileStorage.sol\":1412:1428  availableStorage */\n      sload(0x01)\n        /* \"contracts/_FileStorage.sol\":1381:1429  FileStored(fileName, uniqueId, availableStorage) */\n      mload(0x40)\n      tag_54\n      swap4\n      swap3\n      swap2\n      swap1\n      tag_55\n      jump\t// in\n    tag_54:\n      mload(0x40)\n      dup1\n      swap2\n      sub\n      swap1\n      log1\n        /* \"contracts/_FileStorage.sol\":1061:1475  {// one more argument ... */\n      pop\n        /* \"contracts/_FileStorage.sol\":963:1475  function storeFile(string memory fileName, string memory content, string memory uniqueId)  public {// one more argument ... */\n      pop\n      pop\n      pop\n      jump\t// out\n        /* \"contracts/_FileStorage.sol\":99:119  address public owner */\n    tag_19:\n      0x00\n      dup1\n      sload\n      swap1\n      0x0100\n      exp\n      swap1\n      div\n      0xffffffffffffffffffffffffffffffffffffffff\n      and\n      dup2\n      jump\t// out\n        /* \"contracts/_FileStorage.sol\":1714:2195  function deleteFile(string memory fileId) public {... */\n    tag_24:\n        /* \"contracts/_FileStorage.sol\":1828:1829  0 */\n      0x00\n        /* \"contracts/_FileStorage.sol\":1788:1800  fileIdToFile */\n      0x02\n        /* \"contracts/_FileStorage.sol\":1801:1807  fileId */\n      dup3\n        /* \"contracts/_FileStorage.sol\":1788:1808  fileIdToFile[fileId] */\n      mload(0x40)\n      tag_57\n      swap2\n      swap1\n      tag_31\n      jump\t// in\n    tag_57:\n      swap1\n      dup2\n      mstore\n      0x20\n      add\n      mload(0x40)\n      dup1\n      swap2\n      sub\n      swap1\n      keccak256\n        /* \"contracts/_FileStorage.sol\":1788:1817  fileIdToFile[fileId].fileName */\n      0x01\n      add\n        /* \"contracts/_FileStorage.sol\":1782:1825  bytes(fileIdToFile[fileId].fileName).length */\n      dup1\n      sload\n      tag_58\n      swap1\n      tag_33\n      jump\t// in\n    tag_58:\n      swap1\n      pop\n        /* \"contracts/_FileStorage.sol\":1782:1829  bytes(fileIdToFile[fileId].fileName).length > 0 */\n      gt\n        /* \"contracts/_FileStorage.sol\":1774:1848  require(bytes(fileIdToFile[fileId].fileName).length > 0, \"File not found\") */\n      tag_59\n      jumpi\n      mload(0x40)\n      0x08c379a000000000000000000000000000000000000000000000000000000000\n      dup2\n      mstore\n      0x04\n      add\n      tag_60\n      swap1\n      tag_36\n      jump\t// in\n    tag_60:\n      mload(0x40)\n      dup1\n      swap2\n      sub\n      swap1\n      revert\n    tag_59:\n        /* \"contracts/_FileStorage.sol\":1893:1903  msg.sender */\n      caller\n        /* \"contracts/_FileStorage.sol\":1867:1903  fileIdToUserId[fileId] == msg.sender */\n      0xffffffffffffffffffffffffffffffffffffffff\n      and\n        /* \"contracts/_FileStorage.sol\":1867:1881  fileIdToUserId */\n      0x03\n        /* \"contracts/_FileStorage.sol\":1882:1888  fileId */\n      dup3\n        /* \"contracts/_FileStorage.sol\":1867:1889  fileIdToUserId[fileId] */\n      mload(0x40)\n      tag_61\n      swap2\n      swap1\n      tag_31\n      jump\t// in\n    tag_61:\n      swap1\n      dup2\n      mstore\n      0x20\n      add\n      mload(0x40)\n      dup1\n      swap2\n      sub\n      swap1\n      keccak256\n      0x00\n      swap1\n      sload\n      swap1\n      0x0100\n      exp\n      swap1\n      div\n      0xffffffffffffffffffffffffffffffffffffffff\n      and\n        /* \"contracts/_FileStorage.sol\":1867:1903  fileIdToUserId[fileId] == msg.sender */\n      0xffffffffffffffffffffffffffffffffffffffff\n      and\n      eq\n        /* \"contracts/_FileStorage.sol\":1867:1926  fileIdToUserId[fileId] == msg.sender || msg.sender == owner */\n      dup1\n      tag_62\n      jumpi\n      pop\n        /* \"contracts/_FileStorage.sol\":1921:1926  owner */\n      0x00\n      dup1\n      sload\n      swap1\n      0x0100\n      exp\n      swap1\n      div\n      0xffffffffffffffffffffffffffffffffffffffff\n      and\n        /* \"contracts/_FileStorage.sol\":1907:1926  msg.sender == owner */\n      0xffffffffffffffffffffffffffffffffffffffff\n      and\n        /* \"contracts/_FileStorage.sol\":1907:1917  msg.sender */\n      caller\n        /* \"contracts/_FileStorage.sol\":1907:1926  msg.sender == owner */\n      0xffffffffffffffffffffffffffffffffffffffff\n      and\n      eq\n        /* \"contracts/_FileStorage.sol\":1867:1926  fileIdToUserId[fileId] == msg.sender || msg.sender == owner */\n    tag_62:\n        /* \"contracts/_FileStorage.sol\":1859:1943  require(fileIdToUserId[fileId] == msg.sender || msg.sender == owner, \"Unauthorized\") */\n      tag_63\n      jumpi\n      mload(0x40)\n      0x08c379a000000000000000000000000000000000000000000000000000000000\n      dup2\n      mstore\n      0x04\n      add\n      tag_64\n      swap1\n      tag_65\n      jump\t// in\n    tag_64:\n      mload(0x40)\n      dup1\n      swap2\n      sub\n      swap1\n      revert\n    tag_63:\n        /* \"contracts/_FileStorage.sol\":1956:1972  uint256 fileSize */\n      0x00\n        /* \"contracts/_FileStorage.sol\":1981:1993  fileIdToFile */\n      0x02\n        /* \"contracts/_FileStorage.sol\":1994:2000  fileId */\n      dup3\n        /* \"contracts/_FileStorage.sol\":1981:2001  fileIdToFile[fileId] */\n      mload(0x40)\n      tag_66\n      swap2\n      swap1\n      tag_31\n      jump\t// in\n    tag_66:\n      swap1\n      dup2\n      mstore\n      0x20\n      add\n      mload(0x40)\n      dup1\n      swap2\n      sub\n      swap1\n      keccak256\n        /* \"contracts/_FileStorage.sol\":1981:2009  fileIdToFile[fileId].content */\n      0x00\n      add\n        /* \"contracts/_FileStorage.sol\":1975:2017  bytes(fileIdToFile[fileId].content).length */\n      dup1\n      sload\n      tag_67\n      swap1\n      tag_33\n      jump\t// in\n    tag_67:\n      swap1\n      pop\n        /* \"contracts/_FileStorage.sol\":1956:2017  uint256 fileSize = bytes(fileIdToFile[fileId].content).length */\n      swap1\n      pop\n        /* \"contracts/_FileStorage.sol\":2048:2056  fileSize */\n      dup1\n        /* \"contracts/_FileStorage.sol\":2028:2044  availableStorage */\n      0x01\n      0x00\n        /* \"contracts/_FileStorage.sol\":2028:2056  availableStorage += fileSize */\n      dup3\n      dup3\n      sload\n      tag_68\n      swap2\n      swap1\n      tag_69\n      jump\t// in\n    tag_68:\n      swap3\n      pop\n      pop\n      dup2\n      swap1\n      sstore\n      pop\n        /* \"contracts/_FileStorage.sol\":2076:2088  fileIdToFile */\n      0x02\n        /* \"contracts/_FileStorage.sol\":2089:2095  fileId */\n      dup3\n        /* \"contracts/_FileStorage.sol\":2076:2096  fileIdToFile[fileId] */\n      mload(0x40)\n      tag_70\n      swap2\n      swap1\n      tag_31\n      jump\t// in\n    tag_70:\n      swap1\n      dup2\n      mstore\n      0x20\n      add\n      mload(0x40)\n      dup1\n      swap2\n      sub\n      swap1\n      keccak256\n      0x00\n        /* \"contracts/_FileStorage.sol\":2069:2096  delete fileIdToFile[fileId] */\n      dup1\n      dup3\n      add\n      0x00\n      tag_71\n      swap2\n      swap1\n      tag_72\n      jump\t// in\n    tag_71:\n      0x01\n      dup3\n      add\n      0x00\n      tag_73\n      swap2\n      swap1\n      tag_72\n      jump\t// in\n    tag_73:\n      pop\n      pop\n        /* \"contracts/_FileStorage.sol\":2114:2128  fileIdToUserId */\n      0x03\n        /* \"contracts/_FileStorage.sol\":2129:2135  fileId */\n      dup3\n        /* \"contracts/_FileStorage.sol\":2114:2136  fileIdToUserId[fileId] */\n      mload(0x40)\n      tag_74\n      swap2\n      swap1\n      tag_31\n      jump\t// in\n    tag_74:\n      swap1\n      dup2\n      mstore\n      0x20\n      add\n      mload(0x40)\n      dup1\n      swap2\n      sub\n      swap1\n      keccak256\n      0x00\n        /* \"contracts/_FileStorage.sol\":2107:2136  delete fileIdToUserId[fileId] */\n      0x0100\n      exp\n      dup2\n      sload\n      swap1\n      0xffffffffffffffffffffffffffffffffffffffff\n      mul\n      not\n      and\n      swap1\n      sstore\n        /* \"contracts/_FileStorage.sol\":2154:2191  FileDeleted(fileId, availableStorage) */\n      0x1d90f125aa2dafe5bccedd272f61825d61b1b65c76e6a8dc4b7e3d8a26a7a5df\n        /* \"contracts/_FileStorage.sol\":2166:2172  fileId */\n      dup3\n        /* \"contracts/_FileStorage.sol\":2174:2190  availableStorage */\n      sload(0x01)\n        /* \"contracts/_FileStorage.sol\":2154:2191  FileDeleted(fileId, availableStorage) */\n      mload(0x40)\n      tag_75\n      swap3\n      swap2\n      swap1\n      tag_76\n      jump\t// in\n    tag_75:\n      mload(0x40)\n      dup1\n      swap2\n      sub\n      swap1\n      log1\n        /* \"contracts/_FileStorage.sol\":1763:2195  {... */\n      pop\n        /* \"contracts/_FileStorage.sol\":1714:2195  function deleteFile(string memory fileId) public {... */\n      pop\n      jump\t// out\n        /* \"contracts/_FileStorage.sol\":126:157  uint256 public availableStorage */\n    tag_26:\n      sload(0x01)\n      dup2\n      jump\t// out\n    tag_72:\n      pop\n      dup1\n      sload\n      tag_77\n      swap1\n      tag_33\n      jump\t// in\n    tag_77:\n      0x00\n      dup3\n      sstore\n      dup1\n      0x1f\n      lt\n      tag_79\n      jumpi\n      pop\n      jump(tag_78)\n    tag_79:\n      0x1f\n      add\n      0x20\n      swap1\n      div\n      swap1\n      0x00\n      mstore\n      keccak256(0x00, 0x20)\n      swap1\n      dup2\n      add\n      swap1\n      tag_80\n      swap2\n      swap1\n      tag_81\n      jump\t// in\n    tag_80:\n    tag_78:\n      pop\n      jump\t// out\n    tag_81:\n    tag_82:\n      dup1\n      dup3\n      gt\n      iszero\n      tag_83\n      jumpi\n      0x00\n      dup2\n      0x00\n      swap1\n      sstore\n      pop\n      0x01\n      add\n      jump(tag_82)\n    tag_83:\n      pop\n      swap1\n      jump\t// out\n        /* \"#utility.yul\":7:82   */\n    tag_84:\n        /* \"#utility.yul\":40:46   */\n      0x00\n        /* \"#utility.yul\":73:75   */\n      0x40\n        /* \"#utility.yul\":67:76   */\n      mload\n        /* \"#utility.yul\":57:76   */\n      swap1\n      pop\n        /* \"#utility.yul\":7:82   */\n      swap1\n      jump\t// out\n        /* \"#utility.yul\":88:205   */\n    tag_85:\n        /* \"#utility.yul\":197:198   */\n      0x00\n        /* \"#utility.yul\":194:195   */\n      dup1\n        /* \"#utility.yul\":187:199   */\n      revert\n        /* \"#utility.yul\":211:328   */\n    tag_86:\n        /* \"#utility.yul\":320:321   */\n      0x00\n        /* \"#utility.yul\":317:318   */\n      dup1\n        /* \"#utility.yul\":310:322   */\n      revert\n        /* \"#utility.yul\":334:451   */\n    tag_87:\n        /* \"#utility.yul\":443:444   */\n      0x00\n        /* \"#utility.yul\":440:441   */\n      dup1\n        /* \"#utility.yul\":433:445   */\n      revert\n        /* \"#utility.yul\":457:574   */\n    tag_88:\n        /* \"#utility.yul\":566:567   */\n      0x00\n        /* \"#utility.yul\":563:564   */\n      dup1\n        /* \"#utility.yul\":556:568   */\n      revert\n        /* \"#utility.yul\":580:682   */\n    tag_89:\n        /* \"#utility.yul\":621:627   */\n      0x00\n        /* \"#utility.yul\":672:674   */\n      0x1f\n        /* \"#utility.yul\":668:675   */\n      not\n        /* \"#utility.yul\":663:665   */\n      0x1f\n        /* \"#utility.yul\":656:661   */\n      dup4\n        /* \"#utility.yul\":652:666   */\n      add\n        /* \"#utility.yul\":648:676   */\n      and\n        /* \"#utility.yul\":638:676   */\n      swap1\n      pop\n        /* \"#utility.yul\":580:682   */\n      swap2\n      swap1\n      pop\n      jump\t// out\n        /* \"#utility.yul\":688:868   */\n    tag_90:\n        /* \"#utility.yul\":736:813   */\n      0x4e487b7100000000000000000000000000000000000000000000000000000000\n        /* \"#utility.yul\":733:734   */\n      0x00\n        /* \"#utility.yul\":726:814   */\n      mstore\n        /* \"#utility.yul\":833:837   */\n      0x41\n        /* \"#utility.yul\":830:831   */\n      0x04\n        /* \"#utility.yul\":823:838   */\n      mstore\n        /* \"#utility.yul\":857:861   */\n      0x24\n        /* \"#utility.yul\":854:855   */\n      0x00\n        /* \"#utility.yul\":847:862   */\n      revert\n        /* \"#utility.yul\":874:1155   */\n    tag_91:\n        /* \"#utility.yul\":957:984   */\n      tag_140\n        /* \"#utility.yul\":979:983   */\n      dup3\n        /* \"#utility.yul\":957:984   */\n      tag_89\n      jump\t// in\n    tag_140:\n        /* \"#utility.yul\":949:955   */\n      dup2\n        /* \"#utility.yul\":945:985   */\n      add\n        /* \"#utility.yul\":1087:1093   */\n      dup2\n        /* \"#utility.yul\":1075:1085   */\n      dup2\n        /* \"#utility.yul\":1072:1094   */\n      lt\n        /* \"#utility.yul\":1051:1069   */\n      0xffffffffffffffff\n        /* \"#utility.yul\":1039:1049   */\n      dup3\n        /* \"#utility.yul\":1036:1070   */\n      gt\n        /* \"#utility.yul\":1033:1095   */\n      or\n        /* \"#utility.yul\":1030:1118   */\n      iszero\n      tag_141\n      jumpi\n        /* \"#utility.yul\":1098:1116   */\n      tag_142\n      tag_90\n      jump\t// in\n    tag_142:\n        /* \"#utility.yul\":1030:1118   */\n    tag_141:\n        /* \"#utility.yul\":1138:1148   */\n      dup1\n        /* \"#utility.yul\":1134:1136   */\n      0x40\n        /* \"#utility.yul\":1127:1149   */\n      mstore\n        /* \"#utility.yul\":917:1155   */\n      pop\n        /* \"#utility.yul\":874:1155   */\n      pop\n      pop\n      jump\t// out\n        /* \"#utility.yul\":1161:1290   */\n    tag_92:\n        /* \"#utility.yul\":1195:1201   */\n      0x00\n        /* \"#utility.yul\":1222:1242   */\n      tag_144\n      tag_84\n      jump\t// in\n    tag_144:\n        /* \"#utility.yul\":1212:1242   */\n      swap1\n      pop\n        /* \"#utility.yul\":1251:1284   */\n      tag_145\n        /* \"#utility.yul\":1279:1283   */\n      dup3\n        /* \"#utility.yul\":1271:1277   */\n      dup3\n        /* \"#utility.yul\":1251:1284   */\n      tag_91\n      jump\t// in\n    tag_145:\n        /* \"#utility.yul\":1161:1290   */\n      swap2\n      swap1\n      pop\n      jump\t// out\n        /* \"#utility.yul\":1296:1604   */\n    tag_93:\n        /* \"#utility.yul\":1358:1362   */\n      0x00\n        /* \"#utility.yul\":1448:1466   */\n      0xffffffffffffffff\n        /* \"#utility.yul\":1440:1446   */\n      dup3\n        /* \"#utility.yul\":1437:1467   */\n      gt\n        /* \"#utility.yul\":1434:1490   */\n      iszero\n      tag_147\n      jumpi\n        /* \"#utility.yul\":1470:1488   */\n      tag_148\n      tag_90\n      jump\t// in\n    tag_148:\n        /* \"#utility.yul\":1434:1490   */\n    tag_147:\n        /* \"#utility.yul\":1508:1537   */\n      tag_149\n        /* \"#utility.yul\":1530:1536   */\n      dup3\n        /* \"#utility.yul\":1508:1537   */\n      tag_89\n      jump\t// in\n    tag_149:\n        /* \"#utility.yul\":1500:1537   */\n      swap1\n      pop\n        /* \"#utility.yul\":1592:1596   */\n      0x20\n        /* \"#utility.yul\":1586:1590   */\n      dup2\n        /* \"#utility.yul\":1582:1597   */\n      add\n        /* \"#utility.yul\":1574:1597   */\n      swap1\n      pop\n        /* \"#utility.yul\":1296:1604   */\n      swap2\n      swap1\n      pop\n      jump\t// out\n        /* \"#utility.yul\":1610:1756   */\n    tag_94:\n        /* \"#utility.yul\":1707:1713   */\n      dup3\n        /* \"#utility.yul\":1702:1705   */\n      dup2\n        /* \"#utility.yul\":1697:1700   */\n      dup4\n        /* \"#utility.yul\":1684:1714   */\n      calldatacopy\n        /* \"#utility.yul\":1748:1749   */\n      0x00\n        /* \"#utility.yul\":1739:1745   */\n      dup4\n        /* \"#utility.yul\":1734:1737   */\n      dup4\n        /* \"#utility.yul\":1730:1746   */\n      add\n        /* \"#utility.yul\":1723:1750   */\n      mstore\n        /* \"#utility.yul\":1610:1756   */\n      pop\n      pop\n      pop\n      jump\t// out\n        /* \"#utility.yul\":1762:2187   */\n    tag_95:\n        /* \"#utility.yul\":1840:1845   */\n      0x00\n        /* \"#utility.yul\":1865:1931   */\n      tag_152\n        /* \"#utility.yul\":1881:1930   */\n      tag_153\n        /* \"#utility.yul\":1923:1929   */\n      dup5\n        /* \"#utility.yul\":1881:1930   */\n      tag_93\n      jump\t// in\n    tag_153:\n        /* \"#utility.yul\":1865:1931   */\n      tag_92\n      jump\t// in\n    tag_152:\n        /* \"#utility.yul\":1856:1931   */\n      swap1\n      pop\n        /* \"#utility.yul\":1954:1960   */\n      dup3\n        /* \"#utility.yul\":1947:1952   */\n      dup2\n        /* \"#utility.yul\":1940:1961   */\n      mstore\n        /* \"#utility.yul\":1992:1996   */\n      0x20\n        /* \"#utility.yul\":1985:1990   */\n      dup2\n        /* \"#utility.yul\":1981:1997   */\n      add\n        /* \"#utility.yul\":2030:2033   */\n      dup5\n        /* \"#utility.yul\":2021:2027   */\n      dup5\n        /* \"#utility.yul\":2016:2019   */\n      dup5\n        /* \"#utility.yul\":2012:2028   */\n      add\n        /* \"#utility.yul\":2009:2034   */\n      gt\n        /* \"#utility.yul\":2006:2118   */\n      iszero\n      tag_154\n      jumpi\n        /* \"#utility.yul\":2037:2116   */\n      tag_155\n      tag_88\n      jump\t// in\n    tag_155:\n        /* \"#utility.yul\":2006:2118   */\n    tag_154:\n        /* \"#utility.yul\":2127:2181   */\n      tag_156\n        /* \"#utility.yul\":2174:2180   */\n      dup5\n        /* \"#utility.yul\":2169:2172   */\n      dup3\n        /* \"#utility.yul\":2164:2167   */\n      dup6\n        /* \"#utility.yul\":2127:2181   */\n      tag_94\n      jump\t// in\n    tag_156:\n        /* \"#utility.yul\":1846:2187   */\n      pop\n        /* \"#utility.yul\":1762:2187   */\n      swap4\n      swap3\n      pop\n      pop\n      pop\n      jump\t// out\n        /* \"#utility.yul\":2207:2547   */\n    tag_96:\n        /* \"#utility.yul\":2263:2268   */\n      0x00\n        /* \"#utility.yul\":2312:2315   */\n      dup3\n        /* \"#utility.yul\":2305:2309   */\n      0x1f\n        /* \"#utility.yul\":2297:2303   */\n      dup4\n        /* \"#utility.yul\":2293:2310   */\n      add\n        /* \"#utility.yul\":2289:2316   */\n      slt\n        /* \"#utility.yul\":2279:2401   */\n      tag_158\n      jumpi\n        /* \"#utility.yul\":2320:2399   */\n      tag_159\n      tag_87\n      jump\t// in\n    tag_159:\n        /* \"#utility.yul\":2279:2401   */\n    tag_158:\n        /* \"#utility.yul\":2437:2443   */\n      dup2\n        /* \"#utility.yul\":2424:2444   */\n      calldataload\n        /* \"#utility.yul\":2462:2541   */\n      tag_160\n        /* \"#utility.yul\":2537:2540   */\n      dup5\n        /* \"#utility.yul\":2529:2535   */\n      dup3\n        /* \"#utility.yul\":2522:2526   */\n      0x20\n        /* \"#utility.yul\":2514:2520   */\n      dup7\n        /* \"#utility.yul\":2510:2527   */\n      add\n        /* \"#utility.yul\":2462:2541   */\n      tag_95\n      jump\t// in\n    tag_160:\n        /* \"#utility.yul\":2453:2541   */\n      swap2\n      pop\n        /* \"#utility.yul\":2269:2547   */\n      pop\n        /* \"#utility.yul\":2207:2547   */\n      swap3\n      swap2\n      pop\n      pop\n      jump\t// out\n        /* \"#utility.yul\":2553:3062   */\n    tag_10:\n        /* \"#utility.yul\":2622:2628   */\n      0x00\n        /* \"#utility.yul\":2671:2673   */\n      0x20\n        /* \"#utility.yul\":2659:2668   */\n      dup3\n        /* \"#utility.yul\":2650:2657   */\n      dup5\n        /* \"#utility.yul\":2646:2669   */\n      sub\n        /* \"#utility.yul\":2642:2674   */\n      slt\n        /* \"#utility.yul\":2639:2758   */\n      iszero\n      tag_162\n      jumpi\n        /* \"#utility.yul\":2677:2756   */\n      tag_163\n      tag_85\n      jump\t// in\n    tag_163:\n        /* \"#utility.yul\":2639:2758   */\n    tag_162:\n        /* \"#utility.yul\":2825:2826   */\n      0x00\n        /* \"#utility.yul\":2814:2823   */\n      dup3\n        /* \"#utility.yul\":2810:2827   */\n      add\n        /* \"#utility.yul\":2797:2828   */\n      calldataload\n        /* \"#utility.yul\":2855:2873   */\n      0xffffffffffffffff\n        /* \"#utility.yul\":2847:2853   */\n      dup2\n        /* \"#utility.yul\":2844:2874   */\n      gt\n        /* \"#utility.yul\":2841:2958   */\n      iszero\n      tag_164\n      jumpi\n        /* \"#utility.yul\":2877:2956   */\n      tag_165\n      tag_86\n      jump\t// in\n    tag_165:\n        /* \"#utility.yul\":2841:2958   */\n    tag_164:\n        /* \"#utility.yul\":2982:3045   */\n      tag_166\n        /* \"#utility.yul\":3037:3044   */\n      dup5\n        /* \"#utility.yul\":3028:3034   */\n      dup3\n        /* \"#utility.yul\":3017:3026   */\n      dup6\n        /* \"#utility.yul\":3013:3035   */\n      add\n        /* \"#utility.yul\":2982:3045   */\n      tag_96\n      jump\t// in\n    tag_166:\n        /* \"#utility.yul\":2972:3045   */\n      swap2\n      pop\n        /* \"#utility.yul\":2768:3055   */\n      pop\n        /* \"#utility.yul\":2553:3062   */\n      swap3\n      swap2\n      pop\n      pop\n      jump\t// out\n        /* \"#utility.yul\":3068:3167   */\n    tag_97:\n        /* \"#utility.yul\":3120:3126   */\n      0x00\n        /* \"#utility.yul\":3154:3159   */\n      dup2\n        /* \"#utility.yul\":3148:3160   */\n      mload\n        /* \"#utility.yul\":3138:3160   */\n      swap1\n      pop\n        /* \"#utility.yul\":3068:3167   */\n      swap2\n      swap1\n      pop\n      jump\t// out\n        /* \"#utility.yul\":3173:3342   */\n    tag_98:\n        /* \"#utility.yul\":3257:3268   */\n      0x00\n        /* \"#utility.yul\":3291:3297   */\n      dup3\n        /* \"#utility.yul\":3286:3289   */\n      dup3\n        /* \"#utility.yul\":3279:3298   */\n      mstore\n        /* \"#utility.yul\":3331:3335   */\n      0x20\n        /* \"#utility.yul\":3326:3329   */\n      dup3\n        /* \"#utility.yul\":3322:3336   */\n      add\n        /* \"#utility.yul\":3307:3336   */\n      swap1\n      pop\n        /* \"#utility.yul\":3173:3342   */\n      swap3\n      swap2\n      pop\n      pop\n      jump\t// out\n        /* \"#utility.yul\":3348:3594   */\n    tag_99:\n        /* \"#utility.yul\":3429:3430   */\n      0x00\n        /* \"#utility.yul\":3439:3552   */\n    tag_170:\n        /* \"#utility.yul\":3453:3459   */\n      dup4\n        /* \"#utility.yul\":3450:3451   */\n      dup2\n        /* \"#utility.yul\":3447:3460   */\n      lt\n        /* \"#utility.yul\":3439:3552   */\n      iszero\n      tag_172\n      jumpi\n        /* \"#utility.yul\":3538:3539   */\n      dup1\n        /* \"#utility.yul\":3533:3536   */\n      dup3\n        /* \"#utility.yul\":3529:3540   */\n      add\n        /* \"#utility.yul\":3523:3541   */\n      mload\n        /* \"#utility.yul\":3519:3520   */\n      dup2\n        /* \"#utility.yul\":3514:3517   */\n      dup5\n        /* \"#utility.yul\":3510:3521   */\n      add\n        /* \"#utility.yul\":3503:3542   */\n      mstore\n        /* \"#utility.yul\":3475:3477   */\n      0x20\n        /* \"#utility.yul\":3472:3473   */\n      dup2\n        /* \"#utility.yul\":3468:3478   */\n      add\n        /* \"#utility.yul\":3463:3478   */\n      swap1\n      pop\n        /* \"#utility.yul\":3439:3552   */\n      jump(tag_170)\n    tag_172:\n        /* \"#utility.yul\":3586:3587   */\n      0x00\n        /* \"#utility.yul\":3577:3583   */\n      dup5\n        /* \"#utility.yul\":3572:3575   */\n      dup5\n        /* \"#utility.yul\":3568:3584   */\n      add\n        /* \"#utility.yul\":3561:3588   */\n      mstore\n        /* \"#utility.yul\":3410:3594   */\n      pop\n        /* \"#utility.yul\":3348:3594   */\n      pop\n      pop\n      pop\n      jump\t// out\n        /* \"#utility.yul\":3600:3977   */\n    tag_100:\n        /* \"#utility.yul\":3688:3691   */\n      0x00\n        /* \"#utility.yul\":3716:3755   */\n      tag_174\n        /* \"#utility.yul\":3749:3754   */\n      dup3\n        /* \"#utility.yul\":3716:3755   */\n      tag_97\n      jump\t// in\n    tag_174:\n        /* \"#utility.yul\":3771:3842   */\n      tag_175\n        /* \"#utility.yul\":3835:3841   */\n      dup2\n        /* \"#utility.yul\":3830:3833   */\n      dup6\n        /* \"#utility.yul\":3771:3842   */\n      tag_98\n      jump\t// in\n    tag_175:\n        /* \"#utility.yul\":3764:3842   */\n      swap4\n      pop\n        /* \"#utility.yul\":3851:3916   */\n      tag_176\n        /* \"#utility.yul\":3909:3915   */\n      dup2\n        /* \"#utility.yul\":3904:3907   */\n      dup6\n        /* \"#utility.yul\":3897:3901   */\n      0x20\n        /* \"#utility.yul\":3890:3895   */\n      dup7\n        /* \"#utility.yul\":3886:3902   */\n      add\n        /* \"#utility.yul\":3851:3916   */\n      tag_99\n      jump\t// in\n    tag_176:\n        /* \"#utility.yul\":3941:3970   */\n      tag_177\n        /* \"#utility.yul\":3963:3969   */\n      dup2\n        /* \"#utility.yul\":3941:3970   */\n      tag_89\n      jump\t// in\n    tag_177:\n        /* \"#utility.yul\":3936:3939   */\n      dup5\n        /* \"#utility.yul\":3932:3971   */\n      add\n        /* \"#utility.yul\":3925:3971   */\n      swap2\n      pop\n        /* \"#utility.yul\":3692:3977   */\n      pop\n        /* \"#utility.yul\":3600:3977   */\n      swap3\n      swap2\n      pop\n      pop\n      jump\t// out\n        /* \"#utility.yul\":3983:4296   */\n    tag_13:\n        /* \"#utility.yul\":4096:4100   */\n      0x00\n        /* \"#utility.yul\":4134:4136   */\n      0x20\n        /* \"#utility.yul\":4123:4132   */\n      dup3\n        /* \"#utility.yul\":4119:4137   */\n      add\n        /* \"#utility.yul\":4111:4137   */\n      swap1\n      pop\n        /* \"#utility.yul\":4183:4192   */\n      dup2\n        /* \"#utility.yul\":4177:4181   */\n      dup2\n        /* \"#utility.yul\":4173:4193   */\n      sub\n        /* \"#utility.yul\":4169:4170   */\n      0x00\n        /* \"#utility.yul\":4158:4167   */\n      dup4\n        /* \"#utility.yul\":4154:4171   */\n      add\n        /* \"#utility.yul\":4147:4194   */\n      mstore\n        /* \"#utility.yul\":4211:4289   */\n      tag_179\n        /* \"#utility.yul\":4284:4288   */\n      dup2\n        /* \"#utility.yul\":4275:4281   */\n      dup5\n        /* \"#utility.yul\":4211:4289   */\n      tag_100\n      jump\t// in\n    tag_179:\n        /* \"#utility.yul\":4203:4289   */\n      swap1\n      pop\n        /* \"#utility.yul\":3983:4296   */\n      swap3\n      swap2\n      pop\n      pop\n      jump\t// out\n        /* \"#utility.yul\":4302:5461   */\n    tag_16:\n        /* \"#utility.yul\":4409:4415   */\n      0x00\n        /* \"#utility.yul\":4417:4423   */\n      dup1\n        /* \"#utility.yul\":4425:4431   */\n      0x00\n        /* \"#utility.yul\":4474:4476   */\n      0x60\n        /* \"#utility.yul\":4462:4471   */\n      dup5\n        /* \"#utility.yul\":4453:4460   */\n      dup7\n        /* \"#utility.yul\":4449:4472   */\n      sub\n        /* \"#utility.yul\":4445:4477   */\n      slt\n        /* \"#utility.yul\":4442:4561   */\n      iszero\n      tag_181\n      jumpi\n        /* \"#utility.yul\":4480:4559   */\n      tag_182\n      tag_85\n      jump\t// in\n    tag_182:\n        /* \"#utility.yul\":4442:4561   */\n    tag_181:\n        /* \"#utility.yul\":4628:4629   */\n      0x00\n        /* \"#utility.yul\":4617:4626   */\n      dup5\n        /* \"#utility.yul\":4613:4630   */\n      add\n        /* \"#utility.yul\":4600:4631   */\n      calldataload\n        /* \"#utility.yul\":4658:4676   */\n      0xffffffffffffffff\n        /* \"#utility.yul\":4650:4656   */\n      dup2\n        /* \"#utility.yul\":4647:4677   */\n      gt\n        /* \"#utility.yul\":4644:4761   */\n      iszero\n      tag_183\n      jumpi\n        /* \"#utility.yul\":4680:4759   */\n      tag_184\n      tag_86\n      jump\t// in\n    tag_184:\n        /* \"#utility.yul\":4644:4761   */\n    tag_183:\n        /* \"#utility.yul\":4785:4848   */\n      tag_185\n        /* \"#utility.yul\":4840:4847   */\n      dup7\n        /* \"#utility.yul\":4831:4837   */\n      dup3\n        /* \"#utility.yul\":4820:4829   */\n      dup8\n        /* \"#utility.yul\":4816:4838   */\n      add\n        /* \"#utility.yul\":4785:4848   */\n      tag_96\n      jump\t// in\n    tag_185:\n        /* \"#utility.yul\":4775:4848   */\n      swap4\n      pop\n        /* \"#utility.yul\":4571:4858   */\n      pop\n        /* \"#utility.yul\":4925:4927   */\n      0x20\n        /* \"#utility.yul\":4914:4923   */\n      dup5\n        /* \"#utility.yul\":4910:4928   */\n      add\n        /* \"#utility.yul\":4897:4929   */\n      calldataload\n        /* \"#utility.yul\":4956:4974   */\n      0xffffffffffffffff\n        /* \"#utility.yul\":4948:4954   */\n      dup2\n        /* \"#utility.yul\":4945:4975   */\n      gt\n        /* \"#utility.yul\":4942:5059   */\n      iszero\n      tag_186\n      jumpi\n        /* \"#utility.yul\":4978:5057   */\n      tag_187\n      tag_86\n      jump\t// in\n    tag_187:\n        /* \"#utility.yul\":4942:5059   */\n    tag_186:\n        /* \"#utility.yul\":5083:5146   */\n      tag_188\n        /* \"#utility.yul\":5138:5145   */\n      dup7\n        /* \"#utility.yul\":5129:5135   */\n      dup3\n        /* \"#utility.yul\":5118:5127   */\n      dup8\n        /* \"#utility.yul\":5114:5136   */\n      add\n        /* \"#utility.yul\":5083:5146   */\n      tag_96\n      jump\t// in\n    tag_188:\n        /* \"#utility.yul\":5073:5146   */\n      swap3\n      pop\n        /* \"#utility.yul\":4868:5156   */\n      pop\n        /* \"#utility.yul\":5223:5225   */\n      0x40\n        /* \"#utility.yul\":5212:5221   */\n      dup5\n        /* \"#utility.yul\":5208:5226   */\n      add\n        /* \"#utility.yul\":5195:5227   */\n      calldataload\n        /* \"#utility.yul\":5254:5272   */\n      0xffffffffffffffff\n        /* \"#utility.yul\":5246:5252   */\n      dup2\n        /* \"#utility.yul\":5243:5273   */\n      gt\n        /* \"#utility.yul\":5240:5357   */\n      iszero\n      tag_189\n      jumpi\n        /* \"#utility.yul\":5276:5355   */\n      tag_190\n      tag_86\n      jump\t// in\n    tag_190:\n        /* \"#utility.yul\":5240:5357   */\n    tag_189:\n        /* \"#utility.yul\":5381:5444   */\n      tag_191\n        /* \"#utility.yul\":5436:5443   */\n      dup7\n        /* \"#utility.yul\":5427:5433   */\n      dup3\n        /* \"#utility.yul\":5416:5425   */\n      dup8\n        /* \"#utility.yul\":5412:5434   */\n      add\n        /* \"#utility.yul\":5381:5444   */\n      tag_96\n      jump\t// in\n    tag_191:\n        /* \"#utility.yul\":5371:5444   */\n      swap2\n      pop\n        /* \"#utility.yul\":5166:5454   */\n      pop\n        /* \"#utility.yul\":4302:5461   */\n      swap3\n      pop\n      swap3\n      pop\n      swap3\n      jump\t// out\n        /* \"#utility.yul\":5467:5593   */\n    tag_101:\n        /* \"#utility.yul\":5504:5511   */\n      0x00\n        /* \"#utility.yul\":5544:5586   */\n      0xffffffffffffffffffffffffffffffffffffffff\n        /* \"#utility.yul\":5537:5542   */\n      dup3\n        /* \"#utility.yul\":5533:5587   */\n      and\n        /* \"#utility.yul\":5522:5587   */\n      swap1\n      pop\n        /* \"#utility.yul\":5467:5593   */\n      swap2\n      swap1\n      pop\n      jump\t// out\n        /* \"#utility.yul\":5599:5695   */\n    tag_102:\n        /* \"#utility.yul\":5636:5643   */\n      0x00\n        /* \"#utility.yul\":5665:5689   */\n      tag_194\n        /* \"#utility.yul\":5683:5688   */\n      dup3\n        /* \"#utility.yul\":5665:5689   */\n      tag_101\n      jump\t// in\n    tag_194:\n        /* \"#utility.yul\":5654:5689   */\n      swap1\n      pop\n        /* \"#utility.yul\":5599:5695   */\n      swap2\n      swap1\n      pop\n      jump\t// out\n        /* \"#utility.yul\":5701:5819   */\n    tag_103:\n        /* \"#utility.yul\":5788:5812   */\n      tag_196\n        /* \"#utility.yul\":5806:5811   */\n      dup2\n        /* \"#utility.yul\":5788:5812   */\n      tag_102\n      jump\t// in\n    tag_196:\n        /* \"#utility.yul\":5783:5786   */\n      dup3\n        /* \"#utility.yul\":5776:5813   */\n      mstore\n        /* \"#utility.yul\":5701:5819   */\n      pop\n      pop\n      jump\t// out\n        /* \"#utility.yul\":5825:6047   */\n    tag_21:\n        /* \"#utility.yul\":5918:5922   */\n      0x00\n        /* \"#utility.yul\":5956:5958   */\n      0x20\n        /* \"#utility.yul\":5945:5954   */\n      dup3\n        /* \"#utility.yul\":5941:5959   */\n      add\n        /* \"#utility.yul\":5933:5959   */\n      swap1\n      pop\n        /* \"#utility.yul\":5969:6040   */\n      tag_198\n        /* \"#utility.yul\":6037:6038   */\n      0x00\n        /* \"#utility.yul\":6026:6035   */\n      dup4\n        /* \"#utility.yul\":6022:6039   */\n      add\n        /* \"#utility.yul\":6013:6019   */\n      dup5\n        /* \"#utility.yul\":5969:6040   */\n      tag_103\n      jump\t// in\n    tag_198:\n        /* \"#utility.yul\":5825:6047   */\n      swap3\n      swap2\n      pop\n      pop\n      jump\t// out\n        /* \"#utility.yul\":6053:6130   */\n    tag_104:\n        /* \"#utility.yul\":6090:6097   */\n      0x00\n        /* \"#utility.yul\":6119:6124   */\n      dup2\n        /* \"#utility.yul\":6108:6124   */\n      swap1\n      pop\n        /* \"#utility.yul\":6053:6130   */\n      swap2\n      swap1\n      pop\n      jump\t// out\n        /* \"#utility.yul\":6136:6254   */\n    tag_105:\n        /* \"#utility.yul\":6223:6247   */\n      tag_201\n        /* \"#utility.yul\":6241:6246   */\n      dup2\n        /* \"#utility.yul\":6223:6247   */\n      tag_104\n      jump\t// in\n    tag_201:\n        /* \"#utility.yul\":6218:6221   */\n      dup3\n        /* \"#utility.yul\":6211:6248   */\n      mstore\n        /* \"#utility.yul\":6136:6254   */\n      pop\n      pop\n      jump\t// out\n        /* \"#utility.yul\":6260:6482   */\n    tag_28:\n        /* \"#utility.yul\":6353:6357   */\n      0x00\n        /* \"#utility.yul\":6391:6393   */\n      0x20\n        /* \"#utility.yul\":6380:6389   */\n      dup3\n        /* \"#utility.yul\":6376:6394   */\n      add\n        /* \"#utility.yul\":6368:6394   */\n      swap1\n      pop\n        /* \"#utility.yul\":6404:6475   */\n      tag_203\n        /* \"#utility.yul\":6472:6473   */\n      0x00\n        /* \"#utility.yul\":6461:6470   */\n      dup4\n        /* \"#utility.yul\":6457:6474   */\n      add\n        /* \"#utility.yul\":6448:6454   */\n      dup5\n        /* \"#utility.yul\":6404:6475   */\n      tag_105\n      jump\t// in\n    tag_203:\n        /* \"#utility.yul\":6260:6482   */\n      swap3\n      swap2\n      pop\n      pop\n      jump\t// out\n        /* \"#utility.yul\":6488:6636   */\n    tag_106:\n        /* \"#utility.yul\":6590:6601   */\n      0x00\n        /* \"#utility.yul\":6627:6630   */\n      dup2\n        /* \"#utility.yul\":6612:6630   */\n      swap1\n      pop\n        /* \"#utility.yul\":6488:6636   */\n      swap3\n      swap2\n      pop\n      pop\n      jump\t// out\n        /* \"#utility.yul\":6642:7032   */\n    tag_107:\n        /* \"#utility.yul\":6748:6751   */\n      0x00\n        /* \"#utility.yul\":6776:6815   */\n      tag_206\n        /* \"#utility.yul\":6809:6814   */\n      dup3\n        /* \"#utility.yul\":6776:6815   */\n      tag_97\n      jump\t// in\n    tag_206:\n        /* \"#utility.yul\":6831:6920   */\n      tag_207\n        /* \"#utility.yul\":6913:6919   */\n      dup2\n        /* \"#utility.yul\":6908:6911   */\n      dup6\n        /* \"#utility.yul\":6831:6920   */\n      tag_106\n      jump\t// in\n    tag_207:\n        /* \"#utility.yul\":6824:6920   */\n      swap4\n      pop\n        /* \"#utility.yul\":6929:6994   */\n      tag_208\n        /* \"#utility.yul\":6987:6993   */\n      dup2\n        /* \"#utility.yul\":6982:6985   */\n      dup6\n        /* \"#utility.yul\":6975:6979   */\n      0x20\n        /* \"#utility.yul\":6968:6973   */\n      dup7\n        /* \"#utility.yul\":6964:6980   */\n      add\n        /* \"#utility.yul\":6929:6994   */\n      tag_99\n      jump\t// in\n    tag_208:\n        /* \"#utility.yul\":7019:7025   */\n      dup1\n        /* \"#utility.yul\":7014:7017   */\n      dup5\n        /* \"#utility.yul\":7010:7026   */\n      add\n        /* \"#utility.yul\":7003:7026   */\n      swap2\n      pop\n        /* \"#utility.yul\":6752:7032   */\n      pop\n        /* \"#utility.yul\":6642:7032   */\n      swap3\n      swap2\n      pop\n      pop\n      jump\t// out\n        /* \"#utility.yul\":7038:7313   */\n    tag_31:\n        /* \"#utility.yul\":7170:7173   */\n      0x00\n        /* \"#utility.yul\":7192:7287   */\n      tag_210\n        /* \"#utility.yul\":7283:7286   */\n      dup3\n        /* \"#utility.yul\":7274:7280   */\n      dup5\n        /* \"#utility.yul\":7192:7287   */\n      tag_107\n      jump\t// in\n    tag_210:\n        /* \"#utility.yul\":7185:7287   */\n      swap2\n      pop\n        /* \"#utility.yul\":7304:7307   */\n      dup2\n        /* \"#utility.yul\":7297:7307   */\n      swap1\n      pop\n        /* \"#utility.yul\":7038:7313   */\n      swap3\n      swap2\n      pop\n      pop\n      jump\t// out\n        /* \"#utility.yul\":7319:7499   */\n    tag_108:\n        /* \"#utility.yul\":7367:7444   */\n      0x4e487b7100000000000000000000000000000000000000000000000000000000\n        /* \"#utility.yul\":7364:7365   */\n      0x00\n        /* \"#utility.yul\":7357:7445   */\n      mstore\n        /* \"#utility.yul\":7464:7468   */\n      0x22\n        /* \"#utility.yul\":7461:7462   */\n      0x04\n        /* \"#utility.yul\":7454:7469   */\n      mstore\n        /* \"#utility.yul\":7488:7492   */\n      0x24\n        /* \"#utility.yul\":7485:7486   */\n      0x00\n        /* \"#utility.yul\":7478:7493   */\n      revert\n        /* \"#utility.yul\":7505:7825   */\n    tag_33:\n        /* \"#utility.yul\":7549:7555   */\n      0x00\n        /* \"#utility.yul\":7586:7587   */\n      0x02\n        /* \"#utility.yul\":7580:7584   */\n      dup3\n        /* \"#utility.yul\":7576:7588   */\n      div\n        /* \"#utility.yul\":7566:7588   */\n      swap1\n      pop\n        /* \"#utility.yul\":7633:7634   */\n      0x01\n        /* \"#utility.yul\":7627:7631   */\n      dup3\n        /* \"#utility.yul\":7623:7635   */\n      and\n        /* \"#utility.yul\":7654:7672   */\n      dup1\n        /* \"#utility.yul\":7644:7725   */\n      tag_213\n      jumpi\n        /* \"#utility.yul\":7710:7714   */\n      0x7f\n        /* \"#utility.yul\":7702:7708   */\n      dup3\n        /* \"#utility.yul\":7698:7715   */\n      and\n        /* \"#utility.yul\":7688:7715   */\n      swap2\n      pop\n        /* \"#utility.yul\":7644:7725   */\n    tag_213:\n        /* \"#utility.yul\":7772:7774   */\n      0x20\n        /* \"#utility.yul\":7764:7770   */\n      dup3\n        /* \"#utility.yul\":7761:7775   */\n      lt\n        /* \"#utility.yul\":7741:7759   */\n      dup2\n        /* \"#utility.yul\":7738:7776   */\n      sub\n        /* \"#utility.yul\":7735:7819   */\n      tag_214\n      jumpi\n        /* \"#utility.yul\":7791:7809   */\n      tag_215\n      tag_108\n      jump\t// in\n    tag_215:\n        /* \"#utility.yul\":7735:7819   */\n    tag_214:\n        /* \"#utility.yul\":7556:7825   */\n      pop\n        /* \"#utility.yul\":7505:7825   */\n      swap2\n      swap1\n      pop\n      jump\t// out\n        /* \"#utility.yul\":7831:7995   */\n    tag_109:\n        /* \"#utility.yul\":7971:7987   */\n      0x46696c65206e6f7420666f756e64000000000000000000000000000000000000\n        /* \"#utility.yul\":7967:7968   */\n      0x00\n        /* \"#utility.yul\":7959:7965   */\n      dup3\n        /* \"#utility.yul\":7955:7969   */\n      add\n        /* \"#utility.yul\":7948:7988   */\n      mstore\n        /* \"#utility.yul\":7831:7995   */\n      pop\n      jump\t// out\n        /* \"#utility.yul\":8001:8367   */\n    tag_110:\n        /* \"#utility.yul\":8143:8146   */\n      0x00\n        /* \"#utility.yul\":8164:8231   */\n      tag_218\n        /* \"#utility.yul\":8228:8230   */\n      0x0e\n        /* \"#utility.yul\":8223:8226   */\n      dup4\n        /* \"#utility.yul\":8164:8231   */\n      tag_98\n      jump\t// in\n    tag_218:\n        /* \"#utility.yul\":8157:8231   */\n      swap2\n      pop\n        /* \"#utility.yul\":8240:8333   */\n      tag_219\n        /* \"#utility.yul\":8329:8332   */\n      dup3\n        /* \"#utility.yul\":8240:8333   */\n      tag_109\n      jump\t// in\n    tag_219:\n        /* \"#utility.yul\":8358:8360   */\n      0x20\n        /* \"#utility.yul\":8353:8356   */\n      dup3\n        /* \"#utility.yul\":8349:8361   */\n      add\n        /* \"#utility.yul\":8342:8361   */\n      swap1\n      pop\n        /* \"#utility.yul\":8001:8367   */\n      swap2\n      swap1\n      pop\n      jump\t// out\n        /* \"#utility.yul\":8373:8792   */\n    tag_36:\n        /* \"#utility.yul\":8539:8543   */\n      0x00\n        /* \"#utility.yul\":8577:8579   */\n      0x20\n        /* \"#utility.yul\":8566:8575   */\n      dup3\n        /* \"#utility.yul\":8562:8580   */\n      add\n        /* \"#utility.yul\":8554:8580   */\n      swap1\n      pop\n        /* \"#utility.yul\":8626:8635   */\n      dup2\n        /* \"#utility.yul\":8620:8624   */\n      dup2\n        /* \"#utility.yul\":8616:8636   */\n      sub\n        /* \"#utility.yul\":8612:8613   */\n      0x00\n        /* \"#utility.yul\":8601:8610   */\n      dup4\n        /* \"#utility.yul\":8597:8614   */\n      add\n        /* \"#utility.yul\":8590:8637   */\n      mstore\n        /* \"#utility.yul\":8654:8785   */\n      tag_221\n        /* \"#utility.yul\":8780:8784   */\n      dup2\n        /* \"#utility.yul\":8654:8785   */\n      tag_110\n      jump\t// in\n    tag_221:\n        /* \"#utility.yul\":8646:8785   */\n      swap1\n      pop\n        /* \"#utility.yul\":8373:8792   */\n      swap2\n      swap1\n      pop\n      jump\t// out\n        /* \"#utility.yul\":8798:8968   */\n    tag_111:\n        /* \"#utility.yul\":8938:8960   */\n      0x4e6f2073746f7261676520617661696c61626c65000000000000000000000000\n        /* \"#utility.yul\":8934:8935   */\n      0x00\n        /* \"#utility.yul\":8926:8932   */\n      dup3\n        /* \"#utility.yul\":8922:8936   */\n      add\n        /* \"#utility.yul\":8915:8961   */\n      mstore\n        /* \"#utility.yul\":8798:8968   */\n      pop\n      jump\t// out\n        /* \"#utility.yul\":8974:9340   */\n    tag_112:\n        /* \"#utility.yul\":9116:9119   */\n      0x00\n        /* \"#utility.yul\":9137:9204   */\n      tag_224\n        /* \"#utility.yul\":9201:9203   */\n      0x14\n        /* \"#utility.yul\":9196:9199   */\n      dup4\n        /* \"#utility.yul\":9137:9204   */\n      tag_98\n      jump\t// in\n    tag_224:\n        /* \"#utility.yul\":9130:9204   */\n      swap2\n      pop\n        /* \"#utility.yul\":9213:9306   */\n      tag_225\n        /* \"#utility.yul\":9302:9305   */\n      dup3\n        /* \"#utility.yul\":9213:9306   */\n      tag_111\n      jump\t// in\n    tag_225:\n        /* \"#utility.yul\":9331:9333   */\n      0x20\n        /* \"#utility.yul\":9326:9329   */\n      dup3\n        /* \"#utility.yul\":9322:9334   */\n      add\n        /* \"#utility.yul\":9315:9334   */\n      swap1\n      pop\n        /* \"#utility.yul\":8974:9340   */\n      swap2\n      swap1\n      pop\n      jump\t// out\n        /* \"#utility.yul\":9346:9765   */\n    tag_46:\n        /* \"#utility.yul\":9512:9516   */\n      0x00\n        /* \"#utility.yul\":9550:9552   */\n      0x20\n        /* \"#utility.yul\":9539:9548   */\n      dup3\n        /* \"#utility.yul\":9535:9553   */\n      add\n        /* \"#utility.yul\":9527:9553   */\n      swap1\n      pop\n        /* \"#utility.yul\":9599:9608   */\n      dup2\n        /* \"#utility.yul\":9593:9597   */\n      dup2\n        /* \"#utility.yul\":9589:9609   */\n      sub\n        /* \"#utility.yul\":9585:9586   */\n      0x00\n        /* \"#utility.yul\":9574:9583   */\n      dup4\n        /* \"#utility.yul\":9570:9587   */\n      add\n        /* \"#utility.yul\":9563:9610   */\n      mstore\n        /* \"#utility.yul\":9627:9758   */\n      tag_227\n        /* \"#utility.yul\":9753:9757   */\n      dup2\n        /* \"#utility.yul\":9627:9758   */\n      tag_112\n      jump\t// in\n    tag_227:\n        /* \"#utility.yul\":9619:9758   */\n      swap1\n      pop\n        /* \"#utility.yul\":9346:9765   */\n      swap2\n      swap1\n      pop\n      jump\t// out\n        /* \"#utility.yul\":9771:9912   */\n    tag_113:\n        /* \"#utility.yul\":9820:9824   */\n      0x00\n        /* \"#utility.yul\":9843:9846   */\n      dup2\n        /* \"#utility.yul\":9835:9846   */\n      swap1\n      pop\n        /* \"#utility.yul\":9866:9869   */\n      dup2\n        /* \"#utility.yul\":9863:9864   */\n      0x00\n        /* \"#utility.yul\":9856:9870   */\n      mstore\n        /* \"#utility.yul\":9900:9904   */\n      0x20\n        /* \"#utility.yul\":9897:9898   */\n      0x00\n        /* \"#utility.yul\":9887:9905   */\n      keccak256\n        /* \"#utility.yul\":9879:9905   */\n      swap1\n      pop\n        /* \"#utility.yul\":9771:9912   */\n      swap2\n      swap1\n      pop\n      jump\t// out\n        /* \"#utility.yul\":9918:10011   */\n    tag_114:\n        /* \"#utility.yul\":9955:9961   */\n      0x00\n        /* \"#utility.yul\":10002:10004   */\n      0x20\n        /* \"#utility.yul\":9997:9999   */\n      0x1f\n        /* \"#utility.yul\":9990:9995   */\n      dup4\n        /* \"#utility.yul\":9986:10000   */\n      add\n        /* \"#utility.yul\":9982:10005   */\n      div\n        /* \"#utility.yul\":9972:10005   */\n      swap1\n      pop\n        /* \"#utility.yul\":9918:10011   */\n      swap2\n      swap1\n      pop\n      jump\t// out\n        /* \"#utility.yul\":10017:10124   */\n    tag_115:\n        /* \"#utility.yul\":10061:10069   */\n      0x00\n        /* \"#utility.yul\":10111:10116   */\n      dup3\n        /* \"#utility.yul\":10105:10109   */\n      dup3\n        /* \"#utility.yul\":10101:10117   */\n      shl\n        /* \"#utility.yul\":10080:10117   */\n      swap1\n      pop\n        /* \"#utility.yul\":10017:10124   */\n      swap3\n      swap2\n      pop\n      pop\n      jump\t// out\n        /* \"#utility.yul\":10130:10523   */\n    tag_116:\n        /* \"#utility.yul\":10199:10205   */\n      0x00\n        /* \"#utility.yul\":10249:10250   */\n      0x08\n        /* \"#utility.yul\":10237:10247   */\n      dup4\n        /* \"#utility.yul\":10233:10251   */\n      mul\n        /* \"#utility.yul\":10272:10369   */\n      tag_232\n        /* \"#utility.yul\":10302:10368   */\n      0xffffffffffffffffffffffffffffffffffffffffffffffffffffffffffffffff\n        /* \"#utility.yul\":10291:10300   */\n      dup3\n        /* \"#utility.yul\":10272:10369   */\n      tag_115\n      jump\t// in\n    tag_232:\n        /* \"#utility.yul\":10390:10429   */\n      tag_233\n        /* \"#utility.yul\":10420:10428   */\n      dup7\n        /* \"#utility.yul\":10409:10418   */\n      dup4\n        /* \"#utility.yul\":10390:10429   */\n      tag_115\n      jump\t// in\n    tag_233:\n        /* \"#utility.yul\":10378:10429   */\n      swap6\n      pop\n        /* \"#utility.yul\":10462:10466   */\n      dup1\n        /* \"#utility.yul\":10458:10467   */\n      not\n        /* \"#utility.yul\":10451:10456   */\n      dup5\n        /* \"#utility.yul\":10447:10468   */\n      and\n        /* \"#utility.yul\":10438:10468   */\n      swap4\n      pop\n        /* \"#utility.yul\":10511:10515   */\n      dup1\n        /* \"#utility.yul\":10501:10509   */\n      dup7\n        /* \"#utility.yul\":10497:10516   */\n      and\n        /* \"#utility.yul\":10490:10495   */\n      dup5\n        /* \"#utility.yul\":10487:10517   */\n      or\n        /* \"#utility.yul\":10477:10517   */\n      swap3\n      pop\n        /* \"#utility.yul\":10206:10523   */\n      pop\n      pop\n        /* \"#utility.yul\":10130:10523   */\n      swap4\n      swap3\n      pop\n      pop\n      pop\n      jump\t// out\n        /* \"#utility.yul\":10529:10589   */\n    tag_117:\n        /* \"#utility.yul\":10557:10560   */\n      0x00\n        /* \"#utility.yul\":10578:10583   */\n      dup2\n        /* \"#utility.yul\":10571:10583   */\n      swap1\n      pop\n        /* \"#utility.yul\":10529:10589   */\n      swap2\n      swap1\n      pop\n      jump\t// out\n        /* \"#utility.yul\":10595:10737   */\n    tag_118:\n        /* \"#utility.yul\":10645:10654   */\n      0x00\n        /* \"#utility.yul\":10678:10731   */\n      tag_236\n        /* \"#utility.yul\":10696:10730   */\n      tag_237\n        /* \"#utility.yul\":10705:10729   */\n      tag_238\n        /* \"#utility.yul\":10723:10728   */\n      dup5\n        /* \"#utility.yul\":10705:10729   */\n      tag_104\n      jump\t// in\n    tag_238:\n        /* \"#utility.yul\":10696:10730   */\n      tag_117\n      jump\t// in\n    tag_237:\n        /* \"#utility.yul\":10678:10731   */\n      tag_104\n      jump\t// in\n    tag_236:\n        /* \"#utility.yul\":10665:10731   */\n      swap1\n      pop\n        /* \"#utility.yul\":10595:10737   */\n      swap2\n      swap1\n      pop\n      jump\t// out\n        /* \"#utility.yul\":10743:10818   */\n    tag_119:\n        /* \"#utility.yul\":10786:10789   */\n      0x00\n        /* \"#utility.yul\":10807:10812   */\n      dup2\n        /* \"#utility.yul\":10800:10812   */\n      swap1\n      pop\n        /* \"#utility.yul\":10743:10818   */\n      swap2\n      swap1\n      pop\n      jump\t// out\n        /* \"#utility.yul\":10824:11093   */\n    tag_120:\n        /* \"#utility.yul\":10934:10973   */\n      tag_241\n        /* \"#utility.yul\":10965:10972   */\n      dup4\n        /* \"#utility.yul\":10934:10973   */\n      tag_118\n      jump\t// in\n    tag_241:\n        /* \"#utility.yul\":10995:11086   */\n      tag_242\n        /* \"#utility.yul\":11044:11085   */\n      tag_243\n        /* \"#utility.yul\":11068:11084   */\n      dup3\n        /* \"#utility.yul\":11044:11085   */\n      tag_119\n      jump\t// in\n    tag_243:\n        /* \"#utility.yul\":11036:11042   */\n      dup5\n        /* \"#utility.yul\":11029:11033   */\n      dup5\n        /* \"#utility.yul\":11023:11034   */\n      sload\n        /* \"#utility.yul\":10995:11086   */\n      tag_116\n      jump\t// in\n    tag_242:\n        /* \"#utility.yul\":10989:10993   */\n      dup3\n        /* \"#utility.yul\":10982:11087   */\n      sstore\n        /* \"#utility.yul\":10900:11093   */\n      pop\n        /* \"#utility.yul\":10824:11093   */\n      pop\n      pop\n      pop\n      jump\t// out\n        /* \"#utility.yul\":11099:11172   */\n    tag_121:\n        /* \"#utility.yul\":11144:11147   */\n      0x00\n        /* \"#utility.yul\":11099:11172   */\n      swap1\n      jump\t// out\n        /* \"#utility.yul\":11178:11367   */\n    tag_122:\n        /* \"#utility.yul\":11255:11287   */\n      tag_246\n      tag_121\n      jump\t// in\n    tag_246:\n        /* \"#utility.yul\":11296:11361   */\n      tag_247\n        /* \"#utility.yul\":11354:11360   */\n      dup2\n        /* \"#utility.yul\":11346:11352   */\n      dup5\n        /* \"#utility.yul\":11340:11344   */\n      dup5\n        /* \"#utility.yul\":11296:11361   */\n      tag_120\n      jump\t// in\n    tag_247:\n        /* \"#utility.yul\":11231:11367   */\n      pop\n        /* \"#utility.yul\":11178:11367   */\n      pop\n      pop\n      jump\t// out\n        /* \"#utility.yul\":11373:11559   */\n    tag_123:\n        /* \"#utility.yul\":11433:11553   */\n    tag_249:\n        /* \"#utility.yul\":11450:11453   */\n      dup2\n        /* \"#utility.yul\":11443:11448   */\n      dup2\n        /* \"#utility.yul\":11440:11454   */\n      lt\n        /* \"#utility.yul\":11433:11553   */\n      iszero\n      tag_251\n      jumpi\n        /* \"#utility.yul\":11504:11543   */\n      tag_252\n        /* \"#utility.yul\":11541:11542   */\n      0x00\n        /* \"#utility.yul\":11534:11539   */\n      dup3\n        /* \"#utility.yul\":11504:11543   */\n      tag_122\n      jump\t// in\n    tag_252:\n        /* \"#utility.yul\":11477:11478   */\n      0x01\n        /* \"#utility.yul\":11470:11475   */\n      dup2\n        /* \"#utility.yul\":11466:11479   */\n      add\n        /* \"#utility.yul\":11457:11479   */\n      swap1\n      pop\n        /* \"#utility.yul\":11433:11553   */\n      jump(tag_249)\n    tag_251:\n        /* \"#utility.yul\":11373:11559   */\n      pop\n      pop\n      jump\t// out\n        /* \"#utility.yul\":11565:12108   */\n    tag_124:\n        /* \"#utility.yul\":11666:11668   */\n      0x1f\n        /* \"#utility.yul\":11661:11664   */\n      dup3\n        /* \"#utility.yul\":11658:11669   */\n      gt\n        /* \"#utility.yul\":11655:12101   */\n      iszero\n      tag_254\n      jumpi\n        /* \"#utility.yul\":11700:11738   */\n      tag_255\n        /* \"#utility.yul\":11732:11737   */\n      dup2\n        /* \"#utility.yul\":11700:11738   */\n      tag_113\n      jump\t// in\n    tag_255:\n        /* \"#utility.yul\":11784:11813   */\n      tag_256\n        /* \"#utility.yul\":11802:11812   */\n      dup5\n        /* \"#utility.yul\":11784:11813   */\n      tag_114\n      jump\t// in\n    tag_256:\n        /* \"#utility.yul\":11774:11782   */\n      dup2\n        /* \"#utility.yul\":11770:11814   */\n      add\n        /* \"#utility.yul\":11967:11969   */\n      0x20\n        /* \"#utility.yul\":11955:11965   */\n      dup6\n        /* \"#utility.yul\":11952:11970   */\n      lt\n        /* \"#utility.yul\":11949:11998   */\n      iszero\n      tag_257\n      jumpi\n        /* \"#utility.yul\":11988:11996   */\n      dup2\n        /* \"#utility.yul\":11973:11996   */\n      swap1\n      pop\n        /* \"#utility.yul\":11949:11998   */\n    tag_257:\n        /* \"#utility.yul\":12011:12091   */\n      tag_258\n        /* \"#utility.yul\":12067:12089   */\n      tag_259\n        /* \"#utility.yul\":12085:12088   */\n      dup6\n        /* \"#utility.yul\":12067:12089   */\n      tag_114\n      jump\t// in\n    tag_259:\n        /* \"#utility.yul\":12057:12065   */\n      dup4\n        /* \"#utility.yul\":12053:12090   */\n      add\n        /* \"#utility.yul\":12040:12051   */\n      dup3\n        /* \"#utility.yul\":12011:12091   */\n      tag_123\n      jump\t// in\n    tag_258:\n        /* \"#utility.yul\":11670:12101   */\n      pop\n      pop\n        /* \"#utility.yul\":11655:12101   */\n    tag_254:\n        /* \"#utility.yul\":11565:12108   */\n      pop\n      pop\n      pop\n      jump\t// out\n        /* \"#utility.yul\":12114:12231   */\n    tag_125:\n        /* \"#utility.yul\":12168:12176   */\n      0x00\n        /* \"#utility.yul\":12218:12223   */\n      dup3\n        /* \"#utility.yul\":12212:12216   */\n      dup3\n        /* \"#utility.yul\":12208:12224   */\n      shr\n        /* \"#utility.yul\":12187:12224   */\n      swap1\n      pop\n        /* \"#utility.yul\":12114:12231   */\n      swap3\n      swap2\n      pop\n      pop\n      jump\t// out\n        /* \"#utility.yul\":12237:12406   */\n    tag_126:\n        /* \"#utility.yul\":12281:12287   */\n      0x00\n        /* \"#utility.yul\":12314:12365   */\n      tag_262\n        /* \"#utility.yul\":12362:12363   */\n      0x00\n        /* \"#utility.yul\":12358:12364   */\n      not\n        /* \"#utility.yul\":12350:12355   */\n      dup5\n        /* \"#utility.yul\":12347:12348   */\n      0x08\n        /* \"#utility.yul\":12343:12356   */\n      mul\n        /* \"#utility.yul\":12314:12365   */\n      tag_125\n      jump\t// in\n    tag_262:\n        /* \"#utility.yul\":12310:12366   */\n      not\n        /* \"#utility.yul\":12395:12399   */\n      dup1\n        /* \"#utility.yul\":12389:12393   */\n      dup4\n        /* \"#utility.yul\":12385:12400   */\n      and\n        /* \"#utility.yul\":12375:12400   */\n      swap2\n      pop\n        /* \"#utility.yul\":12288:12406   */\n      pop\n        /* \"#utility.yul\":12237:12406   */\n      swap3\n      swap2\n      pop\n      pop\n      jump\t// out\n        /* \"#utility.yul\":12411:12706   */\n    tag_127:\n        /* \"#utility.yul\":12487:12491   */\n      0x00\n        /* \"#utility.yul\":12633:12662   */\n      tag_264\n        /* \"#utility.yul\":12658:12661   */\n      dup4\n        /* \"#utility.yul\":12652:12656   */\n      dup4\n        /* \"#utility.yul\":12633:12662   */\n      tag_126\n      jump\t// in\n    tag_264:\n        /* \"#utility.yul\":12625:12662   */\n      swap2\n      pop\n        /* \"#utility.yul\":12695:12698   */\n      dup3\n        /* \"#utility.yul\":12692:12693   */\n      0x02\n        /* \"#utility.yul\":12688:12699   */\n      mul\n        /* \"#utility.yul\":12682:12686   */\n      dup3\n        /* \"#utility.yul\":12679:12700   */\n      or\n        /* \"#utility.yul\":12671:12700   */\n      swap1\n      pop\n        /* \"#utility.yul\":12411:12706   */\n      swap3\n      swap2\n      pop\n      pop\n      jump\t// out\n        /* \"#utility.yul\":12711:14106   */\n    tag_49:\n        /* \"#utility.yul\":12828:12865   */\n      tag_266\n        /* \"#utility.yul\":12861:12864   */\n      dup3\n        /* \"#utility.yul\":12828:12865   */\n      tag_97\n      jump\t// in\n    tag_266:\n        /* \"#utility.yul\":12930:12948   */\n      0xffffffffffffffff\n        /* \"#utility.yul\":12922:12928   */\n      dup2\n        /* \"#utility.yul\":12919:12949   */\n      gt\n        /* \"#utility.yul\":12916:12972   */\n      iszero\n      tag_267\n      jumpi\n        /* \"#utility.yul\":12952:12970   */\n      tag_268\n      tag_90\n      jump\t// in\n    tag_268:\n        /* \"#utility.yul\":12916:12972   */\n    tag_267:\n        /* \"#utility.yul\":12996:13034   */\n      tag_269\n        /* \"#utility.yul\":13028:13032   */\n      dup3\n        /* \"#utility.yul\":13022:13033   */\n      sload\n        /* \"#utility.yul\":12996:13034   */\n      tag_33\n      jump\t// in\n    tag_269:\n        /* \"#utility.yul\":13081:13148   */\n      tag_270\n        /* \"#utility.yul\":13141:13147   */\n      dup3\n        /* \"#utility.yul\":13133:13139   */\n      dup3\n        /* \"#utility.yul\":13127:13131   */\n      dup6\n        /* \"#utility.yul\":13081:13148   */\n      tag_124\n      jump\t// in\n    tag_270:\n        /* \"#utility.yul\":13175:13176   */\n      0x00\n        /* \"#utility.yul\":13199:13203   */\n      0x20\n        /* \"#utility.yul\":13186:13203   */\n      swap1\n      pop\n        /* \"#utility.yul\":13231:13233   */\n      0x1f\n        /* \"#utility.yul\":13223:13229   */\n      dup4\n        /* \"#utility.yul\":13220:13234   */\n      gt\n        /* \"#utility.yul\":13248:13249   */\n      0x01\n        /* \"#utility.yul\":13243:13861   */\n      dup2\n      eq\n      tag_272\n      jumpi\n        /* \"#utility.yul\":13905:13906   */\n      0x00\n        /* \"#utility.yul\":13922:13928   */\n      dup5\n        /* \"#utility.yul\":13919:13996   */\n      iszero\n      tag_273\n      jumpi\n        /* \"#utility.yul\":13971:13980   */\n      dup3\n        /* \"#utility.yul\":13966:13969   */\n      dup8\n        /* \"#utility.yul\":13962:13981   */\n      add\n        /* \"#utility.yul\":13956:13982   */\n      mload\n        /* \"#utility.yul\":13947:13982   */\n      swap1\n      pop\n        /* \"#utility.yul\":13919:13996   */\n    tag_273:\n        /* \"#utility.yul\":14022:14089   */\n      tag_274\n        /* \"#utility.yul\":14082:14088   */\n      dup6\n        /* \"#utility.yul\":14075:14080   */\n      dup3\n        /* \"#utility.yul\":14022:14089   */\n      tag_127\n      jump\t// in\n    tag_274:\n        /* \"#utility.yul\":14016:14020   */\n      dup7\n        /* \"#utility.yul\":14009:14090   */\n      sstore\n        /* \"#utility.yul\":13878:14100   */\n      pop\n        /* \"#utility.yul\":13213:14100   */\n      jump(tag_271)\n        /* \"#utility.yul\":13243:13861   */\n    tag_272:\n        /* \"#utility.yul\":13295:13299   */\n      0x1f\n        /* \"#utility.yul\":13291:13300   */\n      not\n        /* \"#utility.yul\":13283:13289   */\n      dup5\n        /* \"#utility.yul\":13279:13301   */\n      and\n        /* \"#utility.yul\":13329:13366   */\n      tag_275\n        /* \"#utility.yul\":13361:13365   */\n      dup7\n        /* \"#utility.yul\":13329:13366   */\n      tag_113\n      jump\t// in\n    tag_275:\n        /* \"#utility.yul\":13388:13389   */\n      0x00\n        /* \"#utility.yul\":13402:13610   */\n    tag_276:\n        /* \"#utility.yul\":13416:13423   */\n      dup3\n        /* \"#utility.yul\":13413:13414   */\n      dup2\n        /* \"#utility.yul\":13410:13424   */\n      lt\n        /* \"#utility.yul\":13402:13610   */\n      iszero\n      tag_278\n      jumpi\n        /* \"#utility.yul\":13495:13504   */\n      dup5\n        /* \"#utility.yul\":13490:13493   */\n      dup10\n        /* \"#utility.yul\":13486:13505   */\n      add\n        /* \"#utility.yul\":13480:13506   */\n      mload\n        /* \"#utility.yul\":13472:13478   */\n      dup3\n        /* \"#utility.yul\":13465:13507   */\n      sstore\n        /* \"#utility.yul\":13546:13547   */\n      0x01\n        /* \"#utility.yul\":13538:13544   */\n      dup3\n        /* \"#utility.yul\":13534:13548   */\n      add\n        /* \"#utility.yul\":13524:13548   */\n      swap2\n      pop\n        /* \"#utility.yul\":13593:13595   */\n      0x20\n        /* \"#utility.yul\":13582:13591   */\n      dup6\n        /* \"#utility.yul\":13578:13596   */\n      add\n        /* \"#utility.yul\":13565:13596   */\n      swap5\n      pop\n        /* \"#utility.yul\":13439:13443   */\n      0x20\n        /* \"#utility.yul\":13436:13437   */\n      dup2\n        /* \"#utility.yul\":13432:13444   */\n      add\n        /* \"#utility.yul\":13427:13444   */\n      swap1\n      pop\n        /* \"#utility.yul\":13402:13610   */\n      jump(tag_276)\n    tag_278:\n        /* \"#utility.yul\":13638:13644   */\n      dup7\n        /* \"#utility.yul\":13629:13636   */\n      dup4\n        /* \"#utility.yul\":13626:13645   */\n      lt\n        /* \"#utility.yul\":13623:13802   */\n      iszero\n      tag_279\n      jumpi\n        /* \"#utility.yul\":13696:13705   */\n      dup5\n        /* \"#utility.yul\":13691:13694   */\n      dup10\n        /* \"#utility.yul\":13687:13706   */\n      add\n        /* \"#utility.yul\":13681:13707   */\n      mload\n        /* \"#utility.yul\":13739:13787   */\n      tag_280\n        /* \"#utility.yul\":13781:13785   */\n      0x1f\n        /* \"#utility.yul\":13773:13779   */\n      dup10\n        /* \"#utility.yul\":13769:13786   */\n      and\n        /* \"#utility.yul\":13758:13767   */\n      dup3\n        /* \"#utility.yul\":13739:13787   */\n      tag_126\n      jump\t// in\n    tag_280:\n        /* \"#utility.yul\":13731:13737   */\n      dup4\n        /* \"#utility.yul\":13724:13788   */\n      sstore\n        /* \"#utility.yul\":13646:13802   */\n      pop\n        /* \"#utility.yul\":13623:13802   */\n    tag_279:\n        /* \"#utility.yul\":13848:13849   */\n      0x01\n        /* \"#utility.yul\":13844:13845   */\n      0x02\n        /* \"#utility.yul\":13836:13842   */\n      dup9\n        /* \"#utility.yul\":13832:13846   */\n      mul\n        /* \"#utility.yul\":13828:13850   */\n      add\n        /* \"#utility.yul\":13822:13826   */\n      dup9\n        /* \"#utility.yul\":13815:13851   */\n      sstore\n        /* \"#utility.yul\":13250:13861   */\n      pop\n      pop\n      pop\n        /* \"#utility.yul\":13213:14100   */\n    tag_271:\n      pop\n        /* \"#utility.yul\":12803:14106   */\n      pop\n      pop\n      pop\n        /* \"#utility.yul\":12711:14106   */\n      pop\n      pop\n      jump\t// out\n        /* \"#utility.yul\":14112:14292   */\n    tag_128:\n        /* \"#utility.yul\":14160:14237   */\n      0x4e487b7100000000000000000000000000000000000000000000000000000000\n        /* \"#utility.yul\":14157:14158   */\n      0x00\n        /* \"#utility.yul\":14150:14238   */\n      mstore\n        /* \"#utility.yul\":14257:14261   */\n      0x11\n        /* \"#utility.yul\":14254:14255   */\n      0x04\n        /* \"#utility.yul\":14247:14262   */\n      mstore\n        /* \"#utility.yul\":14281:14285   */\n      0x24\n        /* \"#utility.yul\":14278:14279   */\n      0x00\n        /* \"#utility.yul\":14271:14286   */\n      revert\n        /* \"#utility.yul\":14298:14492   */\n    tag_53:\n        /* \"#utility.yul\":14338:14342   */\n      0x00\n        /* \"#utility.yul\":14358:14378   */\n      tag_283\n        /* \"#utility.yul\":14376:14377   */\n      dup3\n        /* \"#utility.yul\":14358:14378   */\n      tag_104\n      jump\t// in\n    tag_283:\n        /* \"#utility.yul\":14353:14378   */\n      swap2\n      pop\n        /* \"#utility.yul\":14392:14412   */\n      tag_284\n        /* \"#utility.yul\":14410:14411   */\n      dup4\n        /* \"#utility.yul\":14392:14412   */\n      tag_104\n      jump\t// in\n    tag_284:\n        /* \"#utility.yul\":14387:14412   */\n      swap3\n      pop\n        /* \"#utility.yul\":14436:14437   */\n      dup3\n        /* \"#utility.yul\":14433:14434   */\n      dup3\n        /* \"#utility.yul\":14429:14438   */\n      sub\n        /* \"#utility.yul\":14421:14438   */\n      swap1\n      pop\n        /* \"#utility.yul\":14460:14461   */\n      dup2\n        /* \"#utility.yul\":14454:14458   */\n      dup2\n        /* \"#utility.yul\":14451:14462   */\n      gt\n        /* \"#utility.yul\":14448:14485   */\n      iszero\n      tag_285\n      jumpi\n        /* \"#utility.yul\":14465:14483   */\n      tag_286\n      tag_128\n      jump\t// in\n    tag_286:\n        /* \"#utility.yul\":14448:14485   */\n    tag_285:\n        /* \"#utility.yul\":14298:14492   */\n      swap3\n      swap2\n      pop\n      pop\n      jump\t// out\n        /* \"#utility.yul\":14498:15122   */\n    tag_55:\n        /* \"#utility.yul\":14687:14691   */\n      0x00\n        /* \"#utility.yul\":14725:14727   */\n      0x60\n        /* \"#utility.yul\":14714:14723   */\n      dup3\n        /* \"#utility.yul\":14710:14728   */\n      add\n        /* \"#utility.yul\":14702:14728   */\n      swap1\n      pop\n        /* \"#utility.yul\":14774:14783   */\n      dup2\n        /* \"#utility.yul\":14768:14772   */\n      dup2\n        /* \"#utility.yul\":14764:14784   */\n      sub\n        /* \"#utility.yul\":14760:14761   */\n      0x00\n        /* \"#utility.yul\":14749:14758   */\n      dup4\n        /* \"#utility.yul\":14745:14762   */\n      add\n        /* \"#utility.yul\":14738:14785   */\n      mstore\n        /* \"#utility.yul\":14802:14880   */\n      tag_288\n        /* \"#utility.yul\":14875:14879   */\n      dup2\n        /* \"#utility.yul\":14866:14872   */\n      dup7\n        /* \"#utility.yul\":14802:14880   */\n      tag_100\n      jump\t// in\n    tag_288:\n        /* \"#utility.yul\":14794:14880   */\n      swap1\n      pop\n        /* \"#utility.yul\":14927:14936   */\n      dup2\n        /* \"#utility.yul\":14921:14925   */\n      dup2\n        /* \"#utility.yul\":14917:14937   */\n      sub\n        /* \"#utility.yul\":14912:14914   */\n      0x20\n        /* \"#utility.yul\":14901:14910   */\n      dup4\n        /* \"#utility.yul\":14897:14915   */\n      add\n        /* \"#utility.yul\":14890:14938   */\n      mstore\n        /* \"#utility.yul\":14955:15033   */\n      tag_289\n        /* \"#utility.yul\":15028:15032   */\n      dup2\n        /* \"#utility.yul\":15019:15025   */\n      dup6\n        /* \"#utility.yul\":14955:15033   */\n      tag_100\n      jump\t// in\n    tag_289:\n        /* \"#utility.yul\":14947:15033   */\n      swap1\n      pop\n        /* \"#utility.yul\":15043:15115   */\n      tag_290\n        /* \"#utility.yul\":15111:15113   */\n      0x40\n        /* \"#utility.yul\":15100:15109   */\n      dup4\n        /* \"#utility.yul\":15096:15114   */\n      add\n        /* \"#utility.yul\":15087:15093   */\n      dup5\n        /* \"#utility.yul\":15043:15115   */\n      tag_105\n      jump\t// in\n    tag_290:\n        /* \"#utility.yul\":14498:15122   */\n      swap5\n      swap4\n      pop\n      pop\n      pop\n      pop\n      jump\t// out\n        /* \"#utility.yul\":15128:15290   */\n    tag_129:\n        /* \"#utility.yul\":15268:15282   */\n      0x556e617574686f72697a65640000000000000000000000000000000000000000\n        /* \"#utility.yul\":15264:15265   */\n      0x00\n        /* \"#utility.yul\":15256:15262   */\n      dup3\n        /* \"#utility.yul\":15252:15266   */\n      add\n        /* \"#utility.yul\":15245:15283   */\n      mstore\n        /* \"#utility.yul\":15128:15290   */\n      pop\n      jump\t// out\n        /* \"#utility.yul\":15296:15662   */\n    tag_130:\n        /* \"#utility.yul\":15438:15441   */\n      0x00\n        /* \"#utility.yul\":15459:15526   */\n      tag_293\n        /* \"#utility.yul\":15523:15525   */\n      0x0c\n        /* \"#utility.yul\":15518:15521   */\n      dup4\n        /* \"#utility.yul\":15459:15526   */\n      tag_98\n      jump\t// in\n    tag_293:\n        /* \"#utility.yul\":15452:15526   */\n      swap2\n      pop\n        /* \"#utility.yul\":15535:15628   */\n      tag_294\n        /* \"#utility.yul\":15624:15627   */\n      dup3\n        /* \"#utility.yul\":15535:15628   */\n      tag_129\n      jump\t// in\n    tag_294:\n        /* \"#utility.yul\":15653:15655   */\n      0x20\n        /* \"#utility.yul\":15648:15651   */\n      dup3\n        /* \"#utility.yul\":15644:15656   */\n      add\n        /* \"#utility.yul\":15637:15656   */\n      swap1\n      pop\n        /* \"#utility.yul\":15296:15662   */\n      swap2\n      swap1\n      pop\n      jump\t// out\n        /* \"#utility.yul\":15668:16087   */\n    tag_65:\n        /* \"#utility.yul\":15834:15838   */\n      0x00\n        /* \"#utility.yul\":15872:15874   */\n      0x20\n        /* \"#utility.yul\":15861:15870   */\n      dup3\n        /* \"#utility.yul\":15857:15875   */\n      add\n        /* \"#utility.yul\":15849:15875   */\n      swap1\n      pop\n        /* \"#utility.yul\":15921:15930   */\n      dup2\n        /* \"#utility.yul\":15915:15919   */\n      dup2\n        /* \"#utility.yul\":15911:15931   */\n      sub\n        /* \"#utility.yul\":15907:15908   */\n      0x00\n        /* \"#utility.yul\":15896:15905   */\n      dup4\n        /* \"#utility.yul\":15892:15909   */\n      add\n        /* \"#utility.yul\":15885:15932   */\n      mstore\n        /* \"#utility.yul\":15949:16080   */\n      tag_296\n        /* \"#utility.yul\":16075:16079   */\n      dup2\n        /* \"#utility.yul\":15949:16080   */\n      tag_130\n      jump\t// in\n    tag_296:\n        /* \"#utility.yul\":15941:16080   */\n      swap1\n      pop\n        /* \"#utility.yul\":15668:16087   */\n      swap2\n      swap1\n      pop\n      jump\t// out\n        /* \"#utility.yul\":16093:16284   */\n    tag_69:\n        /* \"#utility.yul\":16133:16136   */\n      0x00\n        /* \"#utility.yul\":16152:16172   */\n      tag_298\n        /* \"#utility.yul\":16170:16171   */\n      dup3\n        /* \"#utility.yul\":16152:16172   */\n      tag_104\n      jump\t// in\n    tag_298:\n        /* \"#utility.yul\":16147:16172   */\n      swap2\n      pop\n        /* \"#utility.yul\":16186:16206   */\n      tag_299\n        /* \"#utility.yul\":16204:16205   */\n      dup4\n        /* \"#utility.yul\":16186:16206   */\n      tag_104\n      jump\t// in\n    tag_299:\n        /* \"#utility.yul\":16181:16206   */\n      swap3\n      pop\n        /* \"#utility.yul\":16229:16230   */\n      dup3\n        /* \"#utility.yul\":16226:16227   */\n      dup3\n        /* \"#utility.yul\":16222:16231   */\n      add\n        /* \"#utility.yul\":16215:16231   */\n      swap1\n      pop\n        /* \"#utility.yul\":16250:16253   */\n      dup1\n        /* \"#utility.yul\":16247:16248   */\n      dup3\n        /* \"#utility.yul\":16244:16254   */\n      gt\n        /* \"#utility.yul\":16241:16277   */\n      iszero\n      tag_300\n      jumpi\n        /* \"#utility.yul\":16257:16275   */\n      tag_301\n      tag_128\n      jump\t// in\n    tag_301:\n        /* \"#utility.yul\":16241:16277   */\n    tag_300:\n        /* \"#utility.yul\":16093:16284   */\n      swap3\n      swap2\n      pop\n      pop\n      jump\t// out\n        /* \"#utility.yul\":16290:16713   */\n    tag_76:\n        /* \"#utility.yul\":16431:16435   */\n      0x00\n        /* \"#utility.yul\":16469:16471   */\n      0x40\n        /* \"#utility.yul\":16458:16467   */\n      dup3\n        /* \"#utility.yul\":16454:16472   */\n      add\n        /* \"#utility.yul\":16446:16472   */\n      swap1\n      pop\n        /* \"#utility.yul\":16518:16527   */\n      dup2\n        /* \"#utility.yul\":16512:16516   */\n      dup2\n        /* \"#utility.yul\":16508:16528   */\n      sub\n        /* \"#utility.yul\":16504:16505   */\n      0x00\n        /* \"#utility.yul\":16493:16502   */\n      dup4\n        /* \"#utility.yul\":16489:16506   */\n      add\n        /* \"#utility.yul\":16482:16529   */\n      mstore\n        /* \"#utility.yul\":16546:16624   */\n      tag_303\n        /* \"#utility.yul\":16619:16623   */\n      dup2\n        /* \"#utility.yul\":16610:16616   */\n      dup6\n        /* \"#utility.yul\":16546:16624   */\n      tag_100\n      jump\t// in\n    tag_303:\n        /* \"#utility.yul\":16538:16624   */\n      swap1\n      pop\n        /* \"#utility.yul\":16634:16706   */\n      tag_304\n        /* \"#utility.yul\":16702:16704   */\n      0x20\n        /* \"#utility.yul\":16691:16700   */\n      dup4\n        /* \"#utility.yul\":16687:16705   */\n      add\n        /* \"#utility.yul\":16678:16684   */\n      dup5\n        /* \"#utility.yul\":16634:16706   */\n      tag_105\n      jump\t// in\n    tag_304:\n        /* \"#utility.yul\":16290:16713   */\n      swap4\n      swap3\n      pop\n      pop\n      pop\n      jump\t// out\n\n    auxdata: 0xa264697066735822122015fba3994892bb09fff19a3c90ecd68f6ce93242e07bc663a3940efdb9dcd4a464736f6c63430008160033\n}\n",
				"bytecode": {
					"linkReferences": {},
					"object": "608060405234801561000f575f80fd5b50604051611044380380611044833981810160405281019061003191906100b4565b335f806101000a81548173ffffffffffffffffffffffffffffffffffffffff021916908373ffffffffffffffffffffffffffffffffffffffff16021790555080600181905550506100df565b5f80fd5b5f819050919050565b61009381610081565b811461009d575f80fd5b50565b5f815190506100ae8161008a565b92915050565b5f602082840312156100c9576100c861007d565b5b5f6100d6848285016100a0565b91505092915050565b610f58806100ec5f395ff3fe608060405234801561000f575f80fd5b5060043610610055575f3560e01c80632804401c146100595780637dd77d2b146100895780638da5cb5b146100a5578063a9910054146100c3578063e973baec146100df575b5f80fd5b610073600480360381019061006e91906107bf565b6100fd565b6040516100809190610880565b60405180910390f35b6100a3600480360381019061009e91906108a0565b61021c565b005b6100ad61037d565b6040516100ba9190610983565b60405180910390f35b6100dd60048036038101906100d891906107bf565b6103a0565b005b6100e7610614565b6040516100f491906109b4565b60405180910390f35b60605f6002836040516101109190610a07565b9081526020016040518091039020600101805461012c90610a4a565b90501161016e576040517f08c379a000000000000000000000000000000000000000000000000000000000815260040161016590610ac4565b60405180910390fd5b60028260405161017e9190610a07565b90815260200160405180910390205f01805461019990610a4a565b80601f01602080910402602001604051908101604052809291908181526020018280546101c590610a4a565b80156102105780601f106101e757610100808354040283529160200191610210565b820191905f5260205f20905b8154815290600101906020018083116101f357829003601f168201915b50505050509050919050565b5f82519050806001541015610266576040517f08c379a000000000000000000000000000000000000000000000000000000000815260040161025d90610b2c565b60405180910390fd5b60405180604001604052808481526020018581525060028360405161028b9190610a07565b90815260200160405180910390205f820151815f0190816102ac9190610ce7565b5060208201518160010190816102c29190610ce7565b50905050336003836040516102d79190610a07565b90815260200160405180910390205f6101000a81548173ffffffffffffffffffffffffffffffffffffffff021916908373ffffffffffffffffffffffffffffffffffffffff1602179055508060015f8282546103339190610de3565b925050819055507f2c414f559c9d15f63c1eef2bf4a68cd20c83c7fa26ab1244e74ffa5f436bbda0848360015460405161036f93929190610e16565b60405180910390a150505050565b5f8054906101000a900473ffffffffffffffffffffffffffffffffffffffff1681565b5f6002826040516103b19190610a07565b908152602001604051809103902060010180546103cd90610a4a565b90501161040f576040517f08c379a000000000000000000000000000000000000000000000000000000000815260040161040690610ac4565b60405180910390fd5b3373ffffffffffffffffffffffffffffffffffffffff166003826040516104369190610a07565b90815260200160405180910390205f9054906101000a900473ffffffffffffffffffffffffffffffffffffffff1673ffffffffffffffffffffffffffffffffffffffff1614806104d057505f8054906101000a900473ffffffffffffffffffffffffffffffffffffffff1673ffffffffffffffffffffffffffffffffffffffff163373ffffffffffffffffffffffffffffffffffffffff16145b61050f576040517f08c379a000000000000000000000000000000000000000000000000000000000815260040161050690610ea3565b60405180910390fd5b5f6002826040516105209190610a07565b90815260200160405180910390205f01805461053b90610a4a565b905090508060015f8282546105509190610ec1565b925050819055506002826040516105679190610a07565b90815260200160405180910390205f8082015f610584919061061a565b600182015f610593919061061a565b50506003826040516105a59190610a07565b90815260200160405180910390205f6101000a81549073ffffffffffffffffffffffffffffffffffffffff02191690557f1d90f125aa2dafe5bccedd272f61825d61b1b65c76e6a8dc4b7e3d8a26a7a5df82600154604051610608929190610ef4565b60405180910390a15050565b60015481565b50805461062690610a4a565b5f825580601f106106375750610654565b601f0160209004905f5260205f20908101906106539190610657565b5b50565b5b8082111561066e575f815f905550600101610658565b5090565b5f604051905090565b5f80fd5b5f80fd5b5f80fd5b5f80fd5b5f601f19601f8301169050919050565b7f4e487b71000000000000000000000000000000000000000000000000000000005f52604160045260245ffd5b6106d18261068b565b810181811067ffffffffffffffff821117156106f0576106ef61069b565b5b80604052505050565b5f610702610672565b905061070e82826106c8565b919050565b5f67ffffffffffffffff82111561072d5761072c61069b565b5b6107368261068b565b9050602081019050919050565b828183375f83830152505050565b5f61076361075e84610713565b6106f9565b90508281526020810184848401111561077f5761077e610687565b5b61078a848285610743565b509392505050565b5f82601f8301126107a6576107a5610683565b5b81356107b6848260208601610751565b91505092915050565b5f602082840312156107d4576107d361067b565b5b5f82013567ffffffffffffffff8111156107f1576107f061067f565b5b6107fd84828501610792565b91505092915050565b5f81519050919050565b5f82825260208201905092915050565b5f5b8381101561083d578082015181840152602081019050610822565b5f8484015250505050565b5f61085282610806565b61085c8185610810565b935061086c818560208601610820565b6108758161068b565b840191505092915050565b5f6020820190508181035f8301526108988184610848565b905092915050565b5f805f606084860312156108b7576108b661067b565b5b5f84013567ffffffffffffffff8111156108d4576108d361067f565b5b6108e086828701610792565b935050602084013567ffffffffffffffff8111156109015761090061067f565b5b61090d86828701610792565b925050604084013567ffffffffffffffff81111561092e5761092d61067f565b5b61093a86828701610792565b9150509250925092565b5f73ffffffffffffffffffffffffffffffffffffffff82169050919050565b5f61096d82610944565b9050919050565b61097d81610963565b82525050565b5f6020820190506109965f830184610974565b92915050565b5f819050919050565b6109ae8161099c565b82525050565b5f6020820190506109c75f8301846109a5565b92915050565b5f81905092915050565b5f6109e182610806565b6109eb81856109cd565b93506109fb818560208601610820565b80840191505092915050565b5f610a1282846109d7565b915081905092915050565b7f4e487b71000000000000000000000000000000000000000000000000000000005f52602260045260245ffd5b5f6002820490506001821680610a6157607f821691505b602082108103610a7457610a73610a1d565b5b50919050565b7f46696c65206e6f7420666f756e640000000000000000000000000000000000005f82015250565b5f610aae600e83610810565b9150610ab982610a7a565b602082019050919050565b5f6020820190508181035f830152610adb81610aa2565b9050919050565b7f4e6f2073746f7261676520617661696c61626c650000000000000000000000005f82015250565b5f610b16601483610810565b9150610b2182610ae2565b602082019050919050565b5f6020820190508181035f830152610b4381610b0a565b9050919050565b5f819050815f5260205f209050919050565b5f6020601f8301049050919050565b5f82821b905092915050565b5f60088302610ba67fffffffffffffffffffffffffffffffffffffffffffffffffffffffffffffffff82610b6b565b610bb08683610b6b565b95508019841693508086168417925050509392505050565b5f819050919050565b5f610beb610be6610be18461099c565b610bc8565b61099c565b9050919050565b5f819050919050565b610c0483610bd1565b610c18610c1082610bf2565b848454610b77565b825550505050565b5f90565b610c2c610c20565b610c37818484610bfb565b505050565b5b81811015610c5a57610c4f5f82610c24565b600181019050610c3d565b5050565b601f821115610c9f57610c7081610b4a565b610c7984610b5c565b81016020851015610c88578190505b610c9c610c9485610b5c565b830182610c3c565b50505b505050565b5f82821c905092915050565b5f610cbf5f1984600802610ca4565b1980831691505092915050565b5f610cd78383610cb0565b9150826002028217905092915050565b610cf082610806565b67ffffffffffffffff811115610d0957610d0861069b565b5b610d138254610a4a565b610d1e828285610c5e565b5f60209050601f831160018114610d4f575f8415610d3d578287015190505b610d478582610ccc565b865550610dae565b601f198416610d5d86610b4a565b5f5b82811015610d8457848901518255600182019150602085019450602081019050610d5f565b86831015610da15784890151610d9d601f891682610cb0565b8355505b6001600288020188555050505b505050505050565b7f4e487b71000000000000000000000000000000000000000000000000000000005f52601160045260245ffd5b5f610ded8261099c565b9150610df88361099c565b9250828203905081811115610e1057610e0f610db6565b5b92915050565b5f6060820190508181035f830152610e2e8186610848565b90508181036020830152610e428185610848565b9050610e5160408301846109a5565b949350505050565b7f556e617574686f72697a656400000000000000000000000000000000000000005f82015250565b5f610e8d600c83610810565b9150610e9882610e59565b602082019050919050565b5f6020820190508181035f830152610eba81610e81565b9050919050565b5f610ecb8261099c565b9150610ed68361099c565b9250828201905080821115610eee57610eed610db6565b5b92915050565b5f6040820190508181035f830152610f0c8185610848565b9050610f1b60208301846109a5565b939250505056fea264697066735822122015fba3994892bb09fff19a3c90ecd68f6ce93242e07bc663a3940efdb9dcd4a464736f6c63430008160033",
					"opcodes": "PUSH1 0x80 PUSH1 0x40 MSTORE CALLVALUE DUP1 ISZERO PUSH2 0xF JUMPI PUSH0 DUP1 REVERT JUMPDEST POP PUSH1 0x40 MLOAD PUSH2 0x1044 CODESIZE SUB DUP1 PUSH2 0x1044 DUP4 CODECOPY DUP2 DUP2 ADD PUSH1 0x40 MSTORE DUP2 ADD SWAP1 PUSH2 0x31 SWAP2 SWAP1 PUSH2 0xB4 JUMP JUMPDEST CALLER PUSH0 DUP1 PUSH2 0x100 EXP DUP2 SLOAD DUP2 PUSH20 0xFFFFFFFFFFFFFFFFFFFFFFFFFFFFFFFFFFFFFFFF MUL NOT AND SWAP1 DUP4 PUSH20 0xFFFFFFFFFFFFFFFFFFFFFFFFFFFFFFFFFFFFFFFF AND MUL OR SWAP1 SSTORE POP DUP1 PUSH1 0x1 DUP2 SWAP1 SSTORE POP POP PUSH2 0xDF JUMP JUMPDEST PUSH0 DUP1 REVERT JUMPDEST PUSH0 DUP2 SWAP1 POP SWAP2 SWAP1 POP JUMP JUMPDEST PUSH2 0x93 DUP2 PUSH2 0x81 JUMP JUMPDEST DUP2 EQ PUSH2 0x9D JUMPI PUSH0 DUP1 REVERT JUMPDEST POP JUMP JUMPDEST PUSH0 DUP2 MLOAD SWAP1 POP PUSH2 0xAE DUP2 PUSH2 0x8A JUMP JUMPDEST SWAP3 SWAP2 POP POP JUMP JUMPDEST PUSH0 PUSH1 0x20 DUP3 DUP5 SUB SLT ISZERO PUSH2 0xC9 JUMPI PUSH2 0xC8 PUSH2 0x7D JUMP JUMPDEST JUMPDEST PUSH0 PUSH2 0xD6 DUP5 DUP3 DUP6 ADD PUSH2 0xA0 JUMP JUMPDEST SWAP2 POP POP SWAP3 SWAP2 POP POP JUMP JUMPDEST PUSH2 0xF58 DUP1 PUSH2 0xEC PUSH0 CODECOPY PUSH0 RETURN INVALID PUSH1 0x80 PUSH1 0x40 MSTORE CALLVALUE DUP1 ISZERO PUSH2 0xF JUMPI PUSH0 DUP1 REVERT JUMPDEST POP PUSH1 0x4 CALLDATASIZE LT PUSH2 0x55 JUMPI PUSH0 CALLDATALOAD PUSH1 0xE0 SHR DUP1 PUSH4 0x2804401C EQ PUSH2 0x59 JUMPI DUP1 PUSH4 0x7DD77D2B EQ PUSH2 0x89 JUMPI DUP1 PUSH4 0x8DA5CB5B EQ PUSH2 0xA5 JUMPI DUP1 PUSH4 0xA9910054 EQ PUSH2 0xC3 JUMPI DUP1 PUSH4 0xE973BAEC EQ PUSH2 0xDF JUMPI JUMPDEST PUSH0 DUP1 REVERT JUMPDEST PUSH2 0x73 PUSH1 0x4 DUP1 CALLDATASIZE SUB DUP2 ADD SWAP1 PUSH2 0x6E SWAP2 SWAP1 PUSH2 0x7BF JUMP JUMPDEST PUSH2 0xFD JUMP JUMPDEST PUSH1 0x40 MLOAD PUSH2 0x80 SWAP2 SWAP1 PUSH2 0x880 JUMP JUMPDEST PUSH1 0x40 MLOAD DUP1 SWAP2 SUB SWAP1 RETURN JUMPDEST PUSH2 0xA3 PUSH1 0x4 DUP1 CALLDATASIZE SUB DUP2 ADD SWAP1 PUSH2 0x9E SWAP2 SWAP1 PUSH2 0x8A0 JUMP JUMPDEST PUSH2 0x21C JUMP JUMPDEST STOP JUMPDEST PUSH2 0xAD PUSH2 0x37D JUMP JUMPDEST PUSH1 0x40 MLOAD PUSH2 0xBA SWAP2 SWAP1 PUSH2 0x983 JUMP JUMPDEST PUSH1 0x40 MLOAD DUP1 SWAP2 SUB SWAP1 RETURN JUMPDEST PUSH2 0xDD PUSH1 0x4 DUP1 CALLDATASIZE SUB DUP2 ADD SWAP1 PUSH2 0xD8 SWAP2 SWAP1 PUSH2 0x7BF JUMP JUMPDEST PUSH2 0x3A0 JUMP JUMPDEST STOP JUMPDEST PUSH2 0xE7 PUSH2 0x614 JUMP JUMPDEST PUSH1 0x40 MLOAD PUSH2 0xF4 SWAP2 SWAP1 PUSH2 0x9B4 JUMP JUMPDEST PUSH1 0x40 MLOAD DUP1 SWAP2 SUB SWAP1 RETURN JUMPDEST PUSH1 0x60 PUSH0 PUSH1 0x2 DUP4 PUSH1 0x40 MLOAD PUSH2 0x110 SWAP2 SWAP1 PUSH2 0xA07 JUMP JUMPDEST SWAP1 DUP2 MSTORE PUSH1 0x20 ADD PUSH1 0x40 MLOAD DUP1 SWAP2 SUB SWAP1 KECCAK256 PUSH1 0x1 ADD DUP1 SLOAD PUSH2 0x12C SWAP1 PUSH2 0xA4A JUMP JUMPDEST SWAP1 POP GT PUSH2 0x16E JUMPI PUSH1 0x40 MLOAD PUSH32 0x8C379A000000000000000000000000000000000000000000000000000000000 DUP2 MSTORE PUSH1 0x4 ADD PUSH2 0x165 SWAP1 PUSH2 0xAC4 JUMP JUMPDEST PUSH1 0x40 MLOAD DUP1 SWAP2 SUB SWAP1 REVERT JUMPDEST PUSH1 0x2 DUP3 PUSH1 0x40 MLOAD PUSH2 0x17E SWAP2 SWAP1 PUSH2 0xA07 JUMP JUMPDEST SWAP1 DUP2 MSTORE PUSH1 0x20 ADD PUSH1 0x40 MLOAD DUP1 SWAP2 SUB SWAP1 KECCAK256 PUSH0 ADD DUP1 SLOAD PUSH2 0x199 SWAP1 PUSH2 0xA4A JUMP JUMPDEST DUP1 PUSH1 0x1F ADD PUSH1 0x20 DUP1 SWAP2 DIV MUL PUSH1 0x20 ADD PUSH1 0x40 MLOAD SWAP1 DUP2 ADD PUSH1 0x40 MSTORE DUP1 SWAP3 SWAP2 SWAP1 DUP2 DUP2 MSTORE PUSH1 0x20 ADD DUP3 DUP1 SLOAD PUSH2 0x1C5 SWAP1 PUSH2 0xA4A JUMP JUMPDEST DUP1 ISZERO PUSH2 0x210 JUMPI DUP1 PUSH1 0x1F LT PUSH2 0x1E7 JUMPI PUSH2 0x100 DUP1 DUP4 SLOAD DIV MUL DUP4 MSTORE SWAP2 PUSH1 0x20 ADD SWAP2 PUSH2 0x210 JUMP JUMPDEST DUP3 ADD SWAP2 SWAP1 PUSH0 MSTORE PUSH1 0x20 PUSH0 KECCAK256 SWAP1 JUMPDEST DUP2 SLOAD DUP2 MSTORE SWAP1 PUSH1 0x1 ADD SWAP1 PUSH1 0x20 ADD DUP1 DUP4 GT PUSH2 0x1F3 JUMPI DUP3 SWAP1 SUB PUSH1 0x1F AND DUP3 ADD SWAP2 JUMPDEST POP POP POP POP POP SWAP1 POP SWAP2 SWAP1 POP JUMP JUMPDEST PUSH0 DUP3 MLOAD SWAP1 POP DUP1 PUSH1 0x1 SLOAD LT ISZERO PUSH2 0x266 JUMPI PUSH1 0x40 MLOAD PUSH32 0x8C379A000000000000000000000000000000000000000000000000000000000 DUP2 MSTORE PUSH1 0x4 ADD PUSH2 0x25D SWAP1 PUSH2 0xB2C JUMP JUMPDEST PUSH1 0x40 MLOAD DUP1 SWAP2 SUB SWAP1 REVERT JUMPDEST PUSH1 0x40 MLOAD DUP1 PUSH1 0x40 ADD PUSH1 0x40 MSTORE DUP1 DUP5 DUP2 MSTORE PUSH1 0x20 ADD DUP6 DUP2 MSTORE POP PUSH1 0x2 DUP4 PUSH1 0x40 MLOAD PUSH2 0x28B SWAP2 SWAP1 PUSH2 0xA07 JUMP JUMPDEST SWAP1 DUP2 MSTORE PUSH1 0x20 ADD PUSH1 0x40 MLOAD DUP1 SWAP2 SUB SWAP1 KECCAK256 PUSH0 DUP3 ADD MLOAD DUP2 PUSH0 ADD SWAP1 DUP2 PUSH2 0x2AC SWAP2 SWAP1 PUSH2 0xCE7 JUMP JUMPDEST POP PUSH1 0x20 DUP3 ADD MLOAD DUP2 PUSH1 0x1 ADD SWAP1 DUP2 PUSH2 0x2C2 SWAP2 SWAP1 PUSH2 0xCE7 JUMP JUMPDEST POP SWAP1 POP POP CALLER PUSH1 0x3 DUP4 PUSH1 0x40 MLOAD PUSH2 0x2D7 SWAP2 SWAP1 PUSH2 0xA07 JUMP JUMPDEST SWAP1 DUP2 MSTORE PUSH1 0x20 ADD PUSH1 0x40 MLOAD DUP1 SWAP2 SUB SWAP1 KECCAK256 PUSH0 PUSH2 0x100 EXP DUP2 SLOAD DUP2 PUSH20 0xFFFFFFFFFFFFFFFFFFFFFFFFFFFFFFFFFFFFFFFF MUL NOT AND SWAP1 DUP4 PUSH20 0xFFFFFFFFFFFFFFFFFFFFFFFFFFFFFFFFFFFFFFFF AND MUL OR SWAP1 SSTORE POP DUP1 PUSH1 0x1 PUSH0 DUP3 DUP3 SLOAD PUSH2 0x333 SWAP2 SWAP1 PUSH2 0xDE3 JUMP JUMPDEST SWAP3 POP POP DUP2 SWAP1 SSTORE POP PUSH32 0x2C414F559C9D15F63C1EEF2BF4A68CD20C83C7FA26AB1244E74FFA5F436BBDA0 DUP5 DUP4 PUSH1 0x1 SLOAD PUSH1 0x40 MLOAD PUSH2 0x36F SWAP4 SWAP3 SWAP2 SWAP1 PUSH2 0xE16 JUMP JUMPDEST PUSH1 0x40 MLOAD DUP1 SWAP2 SUB SWAP1 LOG1 POP POP POP POP JUMP JUMPDEST PUSH0 DUP1 SLOAD SWAP1 PUSH2 0x100 EXP SWAP1 DIV PUSH20 0xFFFFFFFFFFFFFFFFFFFFFFFFFFFFFFFFFFFFFFFF AND DUP2 JUMP JUMPDEST PUSH0 PUSH1 0x2 DUP3 PUSH1 0x40 MLOAD PUSH2 0x3B1 SWAP2 SWAP1 PUSH2 0xA07 JUMP JUMPDEST SWAP1 DUP2 MSTORE PUSH1 0x20 ADD PUSH1 0x40 MLOAD DUP1 SWAP2 SUB SWAP1 KECCAK256 PUSH1 0x1 ADD DUP1 SLOAD PUSH2 0x3CD SWAP1 PUSH2 0xA4A JUMP JUMPDEST SWAP1 POP GT PUSH2 0x40F JUMPI PUSH1 0x40 MLOAD PUSH32 0x8C379A000000000000000000000000000000000000000000000000000000000 DUP2 MSTORE PUSH1 0x4 ADD PUSH2 0x406 SWAP1 PUSH2 0xAC4 JUMP JUMPDEST PUSH1 0x40 MLOAD DUP1 SWAP2 SUB SWAP1 REVERT JUMPDEST CALLER PUSH20 0xFFFFFFFFFFFFFFFFFFFFFFFFFFFFFFFFFFFFFFFF AND PUSH1 0x3 DUP3 PUSH1 0x40 MLOAD PUSH2 0x436 SWAP2 SWAP1 PUSH2 0xA07 JUMP JUMPDEST SWAP1 DUP2 MSTORE PUSH1 0x20 ADD PUSH1 0x40 MLOAD DUP1 SWAP2 SUB SWAP1 KECCAK256 PUSH0 SWAP1 SLOAD SWAP1 PUSH2 0x100 EXP SWAP1 DIV PUSH20 0xFFFFFFFFFFFFFFFFFFFFFFFFFFFFFFFFFFFFFFFF AND PUSH20 0xFFFFFFFFFFFFFFFFFFFFFFFFFFFFFFFFFFFFFFFF AND EQ DUP1 PUSH2 0x4D0 JUMPI POP PUSH0 DUP1 SLOAD SWAP1 PUSH2 0x100 EXP SWAP1 DIV PUSH20 0xFFFFFFFFFFFFFFFFFFFFFFFFFFFFFFFFFFFFFFFF AND PUSH20 0xFFFFFFFFFFFFFFFFFFFFFFFFFFFFFFFFFFFFFFFF AND CALLER PUSH20 0xFFFFFFFFFFFFFFFFFFFFFFFFFFFFFFFFFFFFFFFF AND EQ JUMPDEST PUSH2 0x50F JUMPI PUSH1 0x40 MLOAD PUSH32 0x8C379A000000000000000000000000000000000000000000000000000000000 DUP2 MSTORE PUSH1 0x4 ADD PUSH2 0x506 SWAP1 PUSH2 0xEA3 JUMP JUMPDEST PUSH1 0x40 MLOAD DUP1 SWAP2 SUB SWAP1 REVERT JUMPDEST PUSH0 PUSH1 0x2 DUP3 PUSH1 0x40 MLOAD PUSH2 0x520 SWAP2 SWAP1 PUSH2 0xA07 JUMP JUMPDEST SWAP1 DUP2 MSTORE PUSH1 0x20 ADD PUSH1 0x40 MLOAD DUP1 SWAP2 SUB SWAP1 KECCAK256 PUSH0 ADD DUP1 SLOAD PUSH2 0x53B SWAP1 PUSH2 0xA4A JUMP JUMPDEST SWAP1 POP SWAP1 POP DUP1 PUSH1 0x1 PUSH0 DUP3 DUP3 SLOAD PUSH2 0x550 SWAP2 SWAP1 PUSH2 0xEC1 JUMP JUMPDEST SWAP3 POP POP DUP2 SWAP1 SSTORE POP PUSH1 0x2 DUP3 PUSH1 0x40 MLOAD PUSH2 0x567 SWAP2 SWAP1 PUSH2 0xA07 JUMP JUMPDEST SWAP1 DUP2 MSTORE PUSH1 0x20 ADD PUSH1 0x40 MLOAD DUP1 SWAP2 SUB SWAP1 KECCAK256 PUSH0 DUP1 DUP3 ADD PUSH0 PUSH2 0x584 SWAP2 SWAP1 PUSH2 0x61A JUMP JUMPDEST PUSH1 0x1 DUP3 ADD PUSH0 PUSH2 0x593 SWAP2 SWAP1 PUSH2 0x61A JUMP JUMPDEST POP POP PUSH1 0x3 DUP3 PUSH1 0x40 MLOAD PUSH2 0x5A5 SWAP2 SWAP1 PUSH2 0xA07 JUMP JUMPDEST SWAP1 DUP2 MSTORE PUSH1 0x20 ADD PUSH1 0x40 MLOAD DUP1 SWAP2 SUB SWAP1 KECCAK256 PUSH0 PUSH2 0x100 EXP DUP2 SLOAD SWAP1 PUSH20 0xFFFFFFFFFFFFFFFFFFFFFFFFFFFFFFFFFFFFFFFF MUL NOT AND SWAP1 SSTORE PUSH32 0x1D90F125AA2DAFE5BCCEDD272F61825D61B1B65C76E6A8DC4B7E3D8A26A7A5DF DUP3 PUSH1 0x1 SLOAD PUSH1 0x40 MLOAD PUSH2 0x608 SWAP3 SWAP2 SWAP1 PUSH2 0xEF4 JUMP JUMPDEST PUSH1 0x40 MLOAD DUP1 SWAP2 SUB SWAP1 LOG1 POP POP JUMP JUMPDEST PUSH1 0x1 SLOAD DUP2 JUMP JUMPDEST POP DUP1 SLOAD PUSH2 0x626 SWAP1 PUSH2 0xA4A JUMP JUMPDEST PUSH0 DUP3 SSTORE DUP1 PUSH1 0x1F LT PUSH2 0x637 JUMPI POP PUSH2 0x654 JUMP JUMPDEST PUSH1 0x1F ADD PUSH1 0x20 SWAP1 DIV SWAP1 PUSH0 MSTORE PUSH1 0x20 PUSH0 KECCAK256 SWAP1 DUP2 ADD SWAP1 PUSH2 0x653 SWAP2 SWAP1 PUSH2 0x657 JUMP JUMPDEST JUMPDEST POP JUMP JUMPDEST JUMPDEST DUP1 DUP3 GT ISZERO PUSH2 0x66E JUMPI PUSH0 DUP2 PUSH0 SWAP1 SSTORE POP PUSH1 0x1 ADD PUSH2 0x658 JUMP JUMPDEST POP SWAP1 JUMP JUMPDEST PUSH0 PUSH1 0x40 MLOAD SWAP1 POP SWAP1 JUMP JUMPDEST PUSH0 DUP1 REVERT JUMPDEST PUSH0 DUP1 REVERT JUMPDEST PUSH0 DUP1 REVERT JUMPDEST PUSH0 DUP1 REVERT JUMPDEST PUSH0 PUSH1 0x1F NOT PUSH1 0x1F DUP4 ADD AND SWAP1 POP SWAP2 SWAP1 POP JUMP JUMPDEST PUSH32 0x4E487B7100000000000000000000000000000000000000000000000000000000 PUSH0 MSTORE PUSH1 0x41 PUSH1 0x4 MSTORE PUSH1 0x24 PUSH0 REVERT JUMPDEST PUSH2 0x6D1 DUP3 PUSH2 0x68B JUMP JUMPDEST DUP2 ADD DUP2 DUP2 LT PUSH8 0xFFFFFFFFFFFFFFFF DUP3 GT OR ISZERO PUSH2 0x6F0 JUMPI PUSH2 0x6EF PUSH2 0x69B JUMP JUMPDEST JUMPDEST DUP1 PUSH1 0x40 MSTORE POP POP POP JUMP JUMPDEST PUSH0 PUSH2 0x702 PUSH2 0x672 JUMP JUMPDEST SWAP1 POP PUSH2 0x70E DUP3 DUP3 PUSH2 0x6C8 JUMP JUMPDEST SWAP2 SWAP1 POP JUMP JUMPDEST PUSH0 PUSH8 0xFFFFFFFFFFFFFFFF DUP3 GT ISZERO PUSH2 0x72D JUMPI PUSH2 0x72C PUSH2 0x69B JUMP JUMPDEST JUMPDEST PUSH2 0x736 DUP3 PUSH2 0x68B JUMP JUMPDEST SWAP1 POP PUSH1 0x20 DUP2 ADD SWAP1 POP SWAP2 SWAP1 POP JUMP JUMPDEST DUP3 DUP2 DUP4 CALLDATACOPY PUSH0 DUP4 DUP4 ADD MSTORE POP POP POP JUMP JUMPDEST PUSH0 PUSH2 0x763 PUSH2 0x75E DUP5 PUSH2 0x713 JUMP JUMPDEST PUSH2 0x6F9 JUMP JUMPDEST SWAP1 POP DUP3 DUP2 MSTORE PUSH1 0x20 DUP2 ADD DUP5 DUP5 DUP5 ADD GT ISZERO PUSH2 0x77F JUMPI PUSH2 0x77E PUSH2 0x687 JUMP JUMPDEST JUMPDEST PUSH2 0x78A DUP5 DUP3 DUP6 PUSH2 0x743 JUMP JUMPDEST POP SWAP4 SWAP3 POP POP POP JUMP JUMPDEST PUSH0 DUP3 PUSH1 0x1F DUP4 ADD SLT PUSH2 0x7A6 JUMPI PUSH2 0x7A5 PUSH2 0x683 JUMP JUMPDEST JUMPDEST DUP2 CALLDATALOAD PUSH2 0x7B6 DUP5 DUP3 PUSH1 0x20 DUP7 ADD PUSH2 0x751 JUMP JUMPDEST SWAP2 POP POP SWAP3 SWAP2 POP POP JUMP JUMPDEST PUSH0 PUSH1 0x20 DUP3 DUP5 SUB SLT ISZERO PUSH2 0x7D4 JUMPI PUSH2 0x7D3 PUSH2 0x67B JUMP JUMPDEST JUMPDEST PUSH0 DUP3 ADD CALLDATALOAD PUSH8 0xFFFFFFFFFFFFFFFF DUP2 GT ISZERO PUSH2 0x7F1 JUMPI PUSH2 0x7F0 PUSH2 0x67F JUMP JUMPDEST JUMPDEST PUSH2 0x7FD DUP5 DUP3 DUP6 ADD PUSH2 0x792 JUMP JUMPDEST SWAP2 POP POP SWAP3 SWAP2 POP POP JUMP JUMPDEST PUSH0 DUP2 MLOAD SWAP1 POP SWAP2 SWAP1 POP JUMP JUMPDEST PUSH0 DUP3 DUP3 MSTORE PUSH1 0x20 DUP3 ADD SWAP1 POP SWAP3 SWAP2 POP POP JUMP JUMPDEST PUSH0 JUMPDEST DUP4 DUP2 LT ISZERO PUSH2 0x83D JUMPI DUP1 DUP3 ADD MLOAD DUP2 DUP5 ADD MSTORE PUSH1 0x20 DUP2 ADD SWAP1 POP PUSH2 0x822 JUMP JUMPDEST PUSH0 DUP5 DUP5 ADD MSTORE POP POP POP POP JUMP JUMPDEST PUSH0 PUSH2 0x852 DUP3 PUSH2 0x806 JUMP JUMPDEST PUSH2 0x85C DUP2 DUP6 PUSH2 0x810 JUMP JUMPDEST SWAP4 POP PUSH2 0x86C DUP2 DUP6 PUSH1 0x20 DUP7 ADD PUSH2 0x820 JUMP JUMPDEST PUSH2 0x875 DUP2 PUSH2 0x68B JUMP JUMPDEST DUP5 ADD SWAP2 POP POP SWAP3 SWAP2 POP POP JUMP JUMPDEST PUSH0 PUSH1 0x20 DUP3 ADD SWAP1 POP DUP2 DUP2 SUB PUSH0 DUP4 ADD MSTORE PUSH2 0x898 DUP2 DUP5 PUSH2 0x848 JUMP JUMPDEST SWAP1 POP SWAP3 SWAP2 POP POP JUMP JUMPDEST PUSH0 DUP1 PUSH0 PUSH1 0x60 DUP5 DUP7 SUB SLT ISZERO PUSH2 0x8B7 JUMPI PUSH2 0x8B6 PUSH2 0x67B JUMP JUMPDEST JUMPDEST PUSH0 DUP5 ADD CALLDATALOAD PUSH8 0xFFFFFFFFFFFFFFFF DUP2 GT ISZERO PUSH2 0x8D4 JUMPI PUSH2 0x8D3 PUSH2 0x67F JUMP JUMPDEST JUMPDEST PUSH2 0x8E0 DUP7 DUP3 DUP8 ADD PUSH2 0x792 JUMP JUMPDEST SWAP4 POP POP PUSH1 0x20 DUP5 ADD CALLDATALOAD PUSH8 0xFFFFFFFFFFFFFFFF DUP2 GT ISZERO PUSH2 0x901 JUMPI PUSH2 0x900 PUSH2 0x67F JUMP JUMPDEST JUMPDEST PUSH2 0x90D DUP7 DUP3 DUP8 ADD PUSH2 0x792 JUMP JUMPDEST SWAP3 POP POP PUSH1 0x40 DUP5 ADD CALLDATALOAD PUSH8 0xFFFFFFFFFFFFFFFF DUP2 GT ISZERO PUSH2 0x92E JUMPI PUSH2 0x92D PUSH2 0x67F JUMP JUMPDEST JUMPDEST PUSH2 0x93A DUP7 DUP3 DUP8 ADD PUSH2 0x792 JUMP JUMPDEST SWAP2 POP POP SWAP3 POP SWAP3 POP SWAP3 JUMP JUMPDEST PUSH0 PUSH20 0xFFFFFFFFFFFFFFFFFFFFFFFFFFFFFFFFFFFFFFFF DUP3 AND SWAP1 POP SWAP2 SWAP1 POP JUMP JUMPDEST PUSH0 PUSH2 0x96D DUP3 PUSH2 0x944 JUMP JUMPDEST SWAP1 POP SWAP2 SWAP1 POP JUMP JUMPDEST PUSH2 0x97D DUP2 PUSH2 0x963 JUMP JUMPDEST DUP3 MSTORE POP POP JUMP JUMPDEST PUSH0 PUSH1 0x20 DUP3 ADD SWAP1 POP PUSH2 0x996 PUSH0 DUP4 ADD DUP5 PUSH2 0x974 JUMP JUMPDEST SWAP3 SWAP2 POP POP JUMP JUMPDEST PUSH0 DUP2 SWAP1 POP SWAP2 SWAP1 POP JUMP JUMPDEST PUSH2 0x9AE DUP2 PUSH2 0x99C JUMP JUMPDEST DUP3 MSTORE POP POP JUMP JUMPDEST PUSH0 PUSH1 0x20 DUP3 ADD SWAP1 POP PUSH2 0x9C7 PUSH0 DUP4 ADD DUP5 PUSH2 0x9A5 JUMP JUMPDEST SWAP3 SWAP2 POP POP JUMP JUMPDEST PUSH0 DUP2 SWAP1 POP SWAP3 SWAP2 POP POP JUMP JUMPDEST PUSH0 PUSH2 0x9E1 DUP3 PUSH2 0x806 JUMP JUMPDEST PUSH2 0x9EB DUP2 DUP6 PUSH2 0x9CD JUMP JUMPDEST SWAP4 POP PUSH2 0x9FB DUP2 DUP6 PUSH1 0x20 DUP7 ADD PUSH2 0x820 JUMP JUMPDEST DUP1 DUP5 ADD SWAP2 POP POP SWAP3 SWAP2 POP POP JUMP JUMPDEST PUSH0 PUSH2 0xA12 DUP3 DUP5 PUSH2 0x9D7 JUMP JUMPDEST SWAP2 POP DUP2 SWAP1 POP SWAP3 SWAP2 POP POP JUMP JUMPDEST PUSH32 0x4E487B7100000000000000000000000000000000000000000000000000000000 PUSH0 MSTORE PUSH1 0x22 PUSH1 0x4 MSTORE PUSH1 0x24 PUSH0 REVERT JUMPDEST PUSH0 PUSH1 0x2 DUP3 DIV SWAP1 POP PUSH1 0x1 DUP3 AND DUP1 PUSH2 0xA61 JUMPI PUSH1 0x7F DUP3 AND SWAP2 POP JUMPDEST PUSH1 0x20 DUP3 LT DUP2 SUB PUSH2 0xA74 JUMPI PUSH2 0xA73 PUSH2 0xA1D JUMP JUMPDEST JUMPDEST POP SWAP2 SWAP1 POP JUMP JUMPDEST PUSH32 0x46696C65206E6F7420666F756E64000000000000000000000000000000000000 PUSH0 DUP3 ADD MSTORE POP JUMP JUMPDEST PUSH0 PUSH2 0xAAE PUSH1 0xE DUP4 PUSH2 0x810 JUMP JUMPDEST SWAP2 POP PUSH2 0xAB9 DUP3 PUSH2 0xA7A JUMP JUMPDEST PUSH1 0x20 DUP3 ADD SWAP1 POP SWAP2 SWAP1 POP JUMP JUMPDEST PUSH0 PUSH1 0x20 DUP3 ADD SWAP1 POP DUP2 DUP2 SUB PUSH0 DUP4 ADD MSTORE PUSH2 0xADB DUP2 PUSH2 0xAA2 JUMP JUMPDEST SWAP1 POP SWAP2 SWAP1 POP JUMP JUMPDEST PUSH32 0x4E6F2073746F7261676520617661696C61626C65000000000000000000000000 PUSH0 DUP3 ADD MSTORE POP JUMP JUMPDEST PUSH0 PUSH2 0xB16 PUSH1 0x14 DUP4 PUSH2 0x810 JUMP JUMPDEST SWAP2 POP PUSH2 0xB21 DUP3 PUSH2 0xAE2 JUMP JUMPDEST PUSH1 0x20 DUP3 ADD SWAP1 POP SWAP2 SWAP1 POP JUMP JUMPDEST PUSH0 PUSH1 0x20 DUP3 ADD SWAP1 POP DUP2 DUP2 SUB PUSH0 DUP4 ADD MSTORE PUSH2 0xB43 DUP2 PUSH2 0xB0A JUMP JUMPDEST SWAP1 POP SWAP2 SWAP1 POP JUMP JUMPDEST PUSH0 DUP2 SWAP1 POP DUP2 PUSH0 MSTORE PUSH1 0x20 PUSH0 KECCAK256 SWAP1 POP SWAP2 SWAP1 POP JUMP JUMPDEST PUSH0 PUSH1 0x20 PUSH1 0x1F DUP4 ADD DIV SWAP1 POP SWAP2 SWAP1 POP JUMP JUMPDEST PUSH0 DUP3 DUP3 SHL SWAP1 POP SWAP3 SWAP2 POP POP JUMP JUMPDEST PUSH0 PUSH1 0x8 DUP4 MUL PUSH2 0xBA6 PUSH32 0xFFFFFFFFFFFFFFFFFFFFFFFFFFFFFFFFFFFFFFFFFFFFFFFFFFFFFFFFFFFFFFFF DUP3 PUSH2 0xB6B JUMP JUMPDEST PUSH2 0xBB0 DUP7 DUP4 PUSH2 0xB6B JUMP JUMPDEST SWAP6 POP DUP1 NOT DUP5 AND SWAP4 POP DUP1 DUP7 AND DUP5 OR SWAP3 POP POP POP SWAP4 SWAP3 POP POP POP JUMP JUMPDEST PUSH0 DUP2 SWAP1 POP SWAP2 SWAP1 POP JUMP JUMPDEST PUSH0 PUSH2 0xBEB PUSH2 0xBE6 PUSH2 0xBE1 DUP5 PUSH2 0x99C JUMP JUMPDEST PUSH2 0xBC8 JUMP JUMPDEST PUSH2 0x99C JUMP JUMPDEST SWAP1 POP SWAP2 SWAP1 POP JUMP JUMPDEST PUSH0 DUP2 SWAP1 POP SWAP2 SWAP1 POP JUMP JUMPDEST PUSH2 0xC04 DUP4 PUSH2 0xBD1 JUMP JUMPDEST PUSH2 0xC18 PUSH2 0xC10 DUP3 PUSH2 0xBF2 JUMP JUMPDEST DUP5 DUP5 SLOAD PUSH2 0xB77 JUMP JUMPDEST DUP3 SSTORE POP POP POP POP JUMP JUMPDEST PUSH0 SWAP1 JUMP JUMPDEST PUSH2 0xC2C PUSH2 0xC20 JUMP JUMPDEST PUSH2 0xC37 DUP2 DUP5 DUP5 PUSH2 0xBFB JUMP JUMPDEST POP POP POP JUMP JUMPDEST JUMPDEST DUP2 DUP2 LT ISZERO PUSH2 0xC5A JUMPI PUSH2 0xC4F PUSH0 DUP3 PUSH2 0xC24 JUMP JUMPDEST PUSH1 0x1 DUP2 ADD SWAP1 POP PUSH2 0xC3D JUMP JUMPDEST POP POP JUMP JUMPDEST PUSH1 0x1F DUP3 GT ISZERO PUSH2 0xC9F JUMPI PUSH2 0xC70 DUP2 PUSH2 0xB4A JUMP JUMPDEST PUSH2 0xC79 DUP5 PUSH2 0xB5C JUMP JUMPDEST DUP2 ADD PUSH1 0x20 DUP6 LT ISZERO PUSH2 0xC88 JUMPI DUP2 SWAP1 POP JUMPDEST PUSH2 0xC9C PUSH2 0xC94 DUP6 PUSH2 0xB5C JUMP JUMPDEST DUP4 ADD DUP3 PUSH2 0xC3C JUMP JUMPDEST POP POP JUMPDEST POP POP POP JUMP JUMPDEST PUSH0 DUP3 DUP3 SHR SWAP1 POP SWAP3 SWAP2 POP POP JUMP JUMPDEST PUSH0 PUSH2 0xCBF PUSH0 NOT DUP5 PUSH1 0x8 MUL PUSH2 0xCA4 JUMP JUMPDEST NOT DUP1 DUP4 AND SWAP2 POP POP SWAP3 SWAP2 POP POP JUMP JUMPDEST PUSH0 PUSH2 0xCD7 DUP4 DUP4 PUSH2 0xCB0 JUMP JUMPDEST SWAP2 POP DUP3 PUSH1 0x2 MUL DUP3 OR SWAP1 POP SWAP3 SWAP2 POP POP JUMP JUMPDEST PUSH2 0xCF0 DUP3 PUSH2 0x806 JUMP JUMPDEST PUSH8 0xFFFFFFFFFFFFFFFF DUP2 GT ISZERO PUSH2 0xD09 JUMPI PUSH2 0xD08 PUSH2 0x69B JUMP JUMPDEST JUMPDEST PUSH2 0xD13 DUP3 SLOAD PUSH2 0xA4A JUMP JUMPDEST PUSH2 0xD1E DUP3 DUP3 DUP6 PUSH2 0xC5E JUMP JUMPDEST PUSH0 PUSH1 0x20 SWAP1 POP PUSH1 0x1F DUP4 GT PUSH1 0x1 DUP2 EQ PUSH2 0xD4F JUMPI PUSH0 DUP5 ISZERO PUSH2 0xD3D JUMPI DUP3 DUP8 ADD MLOAD SWAP1 POP JUMPDEST PUSH2 0xD47 DUP6 DUP3 PUSH2 0xCCC JUMP JUMPDEST DUP7 SSTORE POP PUSH2 0xDAE JUMP JUMPDEST PUSH1 0x1F NOT DUP5 AND PUSH2 0xD5D DUP7 PUSH2 0xB4A JUMP JUMPDEST PUSH0 JUMPDEST DUP3 DUP2 LT ISZERO PUSH2 0xD84 JUMPI DUP5 DUP10 ADD MLOAD DUP3 SSTORE PUSH1 0x1 DUP3 ADD SWAP2 POP PUSH1 0x20 DUP6 ADD SWAP5 POP PUSH1 0x20 DUP2 ADD SWAP1 POP PUSH2 0xD5F JUMP JUMPDEST DUP7 DUP4 LT ISZERO PUSH2 0xDA1 JUMPI DUP5 DUP10 ADD MLOAD PUSH2 0xD9D PUSH1 0x1F DUP10 AND DUP3 PUSH2 0xCB0 JUMP JUMPDEST DUP4 SSTORE POP JUMPDEST PUSH1 0x1 PUSH1 0x2 DUP9 MUL ADD DUP9 SSTORE POP POP POP JUMPDEST POP POP POP POP POP POP JUMP JUMPDEST PUSH32 0x4E487B7100000000000000000000000000000000000000000000000000000000 PUSH0 MSTORE PUSH1 0x11 PUSH1 0x4 MSTORE PUSH1 0x24 PUSH0 REVERT JUMPDEST PUSH0 PUSH2 0xDED DUP3 PUSH2 0x99C JUMP JUMPDEST SWAP2 POP PUSH2 0xDF8 DUP4 PUSH2 0x99C JUMP JUMPDEST SWAP3 POP DUP3 DUP3 SUB SWAP1 POP DUP2 DUP2 GT ISZERO PUSH2 0xE10 JUMPI PUSH2 0xE0F PUSH2 0xDB6 JUMP JUMPDEST JUMPDEST SWAP3 SWAP2 POP POP JUMP JUMPDEST PUSH0 PUSH1 0x60 DUP3 ADD SWAP1 POP DUP2 DUP2 SUB PUSH0 DUP4 ADD MSTORE PUSH2 0xE2E DUP2 DUP7 PUSH2 0x848 JUMP JUMPDEST SWAP1 POP DUP2 DUP2 SUB PUSH1 0x20 DUP4 ADD MSTORE PUSH2 0xE42 DUP2 DUP6 PUSH2 0x848 JUMP JUMPDEST SWAP1 POP PUSH2 0xE51 PUSH1 0x40 DUP4 ADD DUP5 PUSH2 0x9A5 JUMP JUMPDEST SWAP5 SWAP4 POP POP POP POP JUMP JUMPDEST PUSH32 0x556E617574686F72697A65640000000000000000000000000000000000000000 PUSH0 DUP3 ADD MSTORE POP JUMP JUMPDEST PUSH0 PUSH2 0xE8D PUSH1 0xC DUP4 PUSH2 0x810 JUMP JUMPDEST SWAP2 POP PUSH2 0xE98 DUP3 PUSH2 0xE59 JUMP JUMPDEST PUSH1 0x20 DUP3 ADD SWAP1 POP SWAP2 SWAP1 POP JUMP JUMPDEST PUSH0 PUSH1 0x20 DUP3 ADD SWAP1 POP DUP2 DUP2 SUB PUSH0 DUP4 ADD MSTORE PUSH2 0xEBA DUP2 PUSH2 0xE81 JUMP JUMPDEST SWAP1 POP SWAP2 SWAP1 POP JUMP JUMPDEST PUSH0 PUSH2 0xECB DUP3 PUSH2 0x99C JUMP JUMPDEST SWAP2 POP PUSH2 0xED6 DUP4 PUSH2 0x99C JUMP JUMPDEST SWAP3 POP DUP3 DUP3 ADD SWAP1 POP DUP1 DUP3 GT ISZERO PUSH2 0xEEE JUMPI PUSH2 0xEED PUSH2 0xDB6 JUMP JUMPDEST JUMPDEST SWAP3 SWAP2 POP POP JUMP JUMPDEST PUSH0 PUSH1 0x40 DUP3 ADD SWAP1 POP DUP2 DUP2 SUB PUSH0 DUP4 ADD MSTORE PUSH2 0xF0C DUP2 DUP6 PUSH2 0x848 JUMP JUMPDEST SWAP1 POP PUSH2 0xF1B PUSH1 0x20 DUP4 ADD DUP5 PUSH2 0x9A5 JUMP JUMPDEST SWAP4 SWAP3 POP POP POP JUMP INVALID LOG2 PUSH5 0x6970667358 0x22 SLT KECCAK256 ISZERO 0xFB LOG3 SWAP10 BASEFEE SWAP3 0xBB MULMOD SELFDESTRUCT CALL SWAP11 EXTCODECOPY SWAP1 0xEC 0xD6 DUP16 PUSH13 0xE93242E07BC663A3940EFDB9DC 0xD4 LOG4 PUSH5 0x736F6C6343 STOP ADDMOD AND STOP CALLER "
				},
				"gasEstimates": {
					"creation": {
						"codeDepositCost": "785600",
						"executionCost": "infinite",
						"totalCost": "infinite"
					},
					"external": {
						"availableStorage()": "2491",
						"deleteFile(string)": "infinite",
						"owner()": "2527",
						"retrieveFile(string)": "infinite",
						"storeFile(string,string,string)": "infinite"
					}
				},
				"methodIdentifiers": {
					"availableStorage()": "e973baec",
					"deleteFile(string)": "a9910054",
					"owner()": "8da5cb5b",
					"retrieveFile(string)": "2804401c",
					"storeFile(string,string,string)": "7dd77d2b"
				}
			},
			"storageLayout": {
				"storage": [
					{
						"astId": 3,
						"contract": "contracts/_FileStorage.sol:FileStorageManager",
						"label": "owner",
						"offset": 0,
						"slot": "0",
						"type": "t_address"
					},
					{
						"astId": 5,
						"contract": "contracts/_FileStorage.sol:FileStorageManager",
						"label": "availableStorage",
						"offset": 0,
						"slot": "1",
						"type": "t_uint256"
					},
					{
						"astId": 10,
						"contract": "contracts/_FileStorage.sol:FileStorageManager",
						"label": "fileIdToFile",
						"offset": 0,
						"slot": "2",
						"type": "t_mapping(t_string_memory_ptr,t_struct(File)39_storage)"
					},
					{
						"astId": 14,
						"contract": "contracts/_FileStorage.sol:FileStorageManager",
						"label": "fileIdToUserId",
						"offset": 0,
						"slot": "3",
						"type": "t_mapping(t_string_memory_ptr,t_address)"
					}
				],
				"types": {
					"t_address": {
						"encoding": "inplace",
						"label": "address",
						"numberOfBytes": "20"
					},
					"t_mapping(t_string_memory_ptr,t_address)": {
						"encoding": "mapping",
						"key": "t_string_memory_ptr",
						"label": "mapping(string => address)",
						"numberOfBytes": "32",
						"value": "t_address"
					},
					"t_mapping(t_string_memory_ptr,t_struct(File)39_storage)": {
						"encoding": "mapping",
						"key": "t_string_memory_ptr",
						"label": "mapping(string => struct FileStorageManager.File)",
						"numberOfBytes": "32",
						"value": "t_struct(File)39_storage"
					},
					"t_string_memory_ptr": {
						"encoding": "bytes",
						"label": "string",
						"numberOfBytes": "32"
					},
					"t_string_storage": {
						"encoding": "bytes",
						"label": "string",
						"numberOfBytes": "32"
					},
					"t_struct(File)39_storage": {
						"encoding": "inplace",
						"label": "struct FileStorageManager.File",
						"members": [
							{
								"astId": 36,
								"contract": "contracts/_FileStorage.sol:FileStorageManager",
								"label": "content",
								"offset": 0,
								"slot": "0",
								"type": "t_string_storage"
							},
							{
								"astId": 38,
								"contract": "contracts/_FileStorage.sol:FileStorageManager",
								"label": "fileName",
								"offset": 0,
								"slot": "1",
								"type": "t_string_storage"
							}
						],
						"numberOfBytes": "64"
					},
					"t_uint256": {
						"encoding": "inplace",
						"label": "uint256",
						"numberOfBytes": "32"
					}
				}
			},
			"userdoc": {
				"kind": "user",
				"methods": {},
				"version": 1
			}
		}
	}
}