{
	"contracts/_FileStorage.sol": {
		"FileStorageManager": {
			"abi": [
				{
					"inputs": [],
					"stateMutability": "nonpayable",
					"type": "constructor"
				},
				{
					"anonymous": false,
					"inputs": [
						{
							"indexed": false,
							"internalType": "address",
							"name": "uploader",
							"type": "address"
						},
						{
							"indexed": false,
							"internalType": "uint256",
							"name": "fileId",
							"type": "uint256"
						}
					],
					"name": "FileRemoved",
					"type": "event"
				},
				{
					"anonymous": false,
					"inputs": [
						{
							"indexed": false,
							"internalType": "uint256",
							"name": "fileId",
							"type": "uint256"
						},
						{
							"indexed": false,
							"internalType": "string",
							"name": "fileName",
							"type": "string"
						},
						{
							"indexed": false,
							"internalType": "string",
							"name": "fileType",
							"type": "string"
						},
						{
							"indexed": false,
							"internalType": "bytes32",
							"name": "fileHash",
							"type": "bytes32"
						},
						{
							"indexed": false,
							"internalType": "uint256",
							"name": "fileSize",
							"type": "uint256"
						},
						{
							"indexed": false,
							"internalType": "uint256",
							"name": "uploadTime",
							"type": "uint256"
						},
						{
							"indexed": false,
							"internalType": "address",
							"name": "uploader",
							"type": "address"
						}
					],
					"name": "FileUploaded",
					"type": "event"
				},
				{
					"inputs": [
						{
							"internalType": "address",
							"name": "_nodeAddress",
							"type": "address"
						},
						{
							"internalType": "uint256",
							"name": "_initialStorage",
							"type": "uint256"
						}
					],
					"name": "addNode",
					"outputs": [],
					"stateMutability": "nonpayable",
					"type": "function"
				},
				{
					"inputs": [
						{
							"internalType": "uint256",
							"name": "",
							"type": "uint256"
						}
					],
					"name": "allNodes",
					"outputs": [
						{
							"internalType": "address",
							"name": "",
							"type": "address"
						}
					],
					"stateMutability": "view",
					"type": "function"
				},
				{
					"inputs": [
						{
							"internalType": "string[]",
							"name": "stringArray",
							"type": "string[]"
						}
					],
					"name": "createHash",
					"outputs": [
						{
							"internalType": "bytes32",
							"name": "",
							"type": "bytes32"
						}
					],
					"stateMutability": "pure",
					"type": "function"
				},
				{
					"inputs": [
						{
							"internalType": "address",
							"name": "_nodeAddress",
							"type": "address"
						},
						{
							"internalType": "string",
							"name": "_fileId",
							"type": "string"
						}
					],
					"name": "deleteChunkInNode",
					"outputs": [
						{
							"internalType": "string",
							"name": "",
							"type": "string"
						}
					],
					"stateMutability": "view",
					"type": "function"
				},
				{
					"inputs": [
						{
							"internalType": "uint256",
							"name": "_fileId",
							"type": "uint256"
						}
					],
					"name": "deleteFile",
					"outputs": [],
					"stateMutability": "nonpayable",
					"type": "function"
				},
				{
					"inputs": [
						{
							"internalType": "uint256",
							"name": "_chunkSize",
							"type": "uint256"
						}
					],
					"name": "findAvailableNode",
					"outputs": [
						{
							"internalType": "address",
							"name": "",
							"type": "address"
						}
					],
					"stateMutability": "view",
					"type": "function"
				},
				{
					"inputs": [],
					"name": "getAllNodes",
					"outputs": [
						{
							"internalType": "address[]",
							"name": "",
							"type": "address[]"
						}
					],
					"stateMutability": "view",
					"type": "function"
				},
				{
					"inputs": [
						{
							"internalType": "address",
							"name": "_nodeAddress",
							"type": "address"
						}
					],
					"name": "getNodeByAddress",
					"outputs": [
						{
							"components": [
								{
									"internalType": "address",
									"name": "nodeAddress",
									"type": "address"
								},
								{
									"internalType": "uint256",
									"name": "availableStorage",
									"type": "uint256"
								}
							],
							"internalType": "struct NodeManager.Node",
							"name": "",
							"type": "tuple"
						}
					],
					"stateMutability": "view",
					"type": "function"
				},
				{
					"inputs": [],
					"name": "maxChunkSize",
					"outputs": [
						{
							"internalType": "uint256",
							"name": "",
							"type": "uint256"
						}
					],
					"stateMutability": "view",
					"type": "function"
				},
				{
					"inputs": [
						{
							"internalType": "address",
							"name": "",
							"type": "address"
						}
					],
					"name": "nodes",
					"outputs": [
						{
							"internalType": "address",
							"name": "nodeAddress",
							"type": "address"
						},
						{
							"internalType": "uint256",
							"name": "availableStorage",
							"type": "uint256"
						}
					],
					"stateMutability": "view",
					"type": "function"
				},
				{
					"inputs": [],
					"name": "numMaxChunksDuplication",
					"outputs": [
						{
							"internalType": "uint256",
							"name": "",
							"type": "uint256"
						}
					],
					"stateMutability": "view",
					"type": "function"
				},
				{
					"inputs": [],
					"name": "owner",
					"outputs": [
						{
							"internalType": "address",
							"name": "",
							"type": "address"
						}
					],
					"stateMutability": "view",
					"type": "function"
				},
				{
					"inputs": [
						{
							"internalType": "address",
							"name": "_nodeAddress",
							"type": "address"
						},
						{
							"internalType": "string",
							"name": "_fileId",
							"type": "string"
						}
					],
					"name": "retrieveChunkInNode",
					"outputs": [
						{
							"internalType": "string",
							"name": "",
							"type": "string"
						}
					],
					"stateMutability": "view",
					"type": "function"
				},
				{
					"inputs": [
						{
							"internalType": "uint256",
							"name": "_fileId",
							"type": "uint256"
						}
					],
					"name": "retrieveFile",
					"outputs": [
						{
							"internalType": "bytes32",
							"name": "",
							"type": "bytes32"
						}
					],
					"stateMutability": "view",
					"type": "function"
				},
				{
					"inputs": [
						{
							"internalType": "address",
							"name": "_nodeAddress",
							"type": "address"
						},
						{
							"internalType": "string",
							"name": "_chunk",
							"type": "string"
						}
					],
					"name": "storeChunkInNode",
					"outputs": [],
					"stateMutability": "nonpayable",
					"type": "function"
				},
				{
					"inputs": [
						{
							"internalType": "string[]",
							"name": "_chunksArr",
							"type": "string[]"
						},
						{
							"internalType": "string",
							"name": "_fileName",
							"type": "string"
						},
						{
							"internalType": "string",
							"name": "_fileType",
							"type": "string"
						},
						{
							"internalType": "string",
							"name": "_fileEncoding",
							"type": "string"
						},
						{
							"internalType": "uint256",
							"name": "_uniqueId",
							"type": "uint256"
						},
						{
							"internalType": "uint256",
							"name": "_fileSize",
							"type": "uint256"
						}
					],
					"name": "storeFile",
					"outputs": [
						{
							"internalType": "address[]",
							"name": "",
							"type": "address[]"
						}
					],
					"stateMutability": "nonpayable",
					"type": "function"
				},
				{
					"inputs": [
						{
							"internalType": "bytes32",
							"name": "_fileHash",
							"type": "bytes32"
						},
						{
							"internalType": "uint256",
							"name": "_uniqueId",
							"type": "uint256"
						}
					],
					"name": "storeFileHash",
					"outputs": [],
					"stateMutability": "nonpayable",
					"type": "function"
				},
				{
					"inputs": [
						{
							"internalType": "string",
							"name": "_fileName",
							"type": "string"
						},
						{
							"internalType": "string",
							"name": "_fileType",
							"type": "string"
						},
						{
							"internalType": "bytes32",
							"name": "_fileHash",
							"type": "bytes32"
						},
						{
							"internalType": "string",
							"name": "_fileEncoding",
							"type": "string"
						},
						{
							"internalType": "address[]",
							"name": "_fileStorageNodeAddress",
							"type": "address[]"
						},
						{
							"internalType": "uint256",
							"name": "_uniqueId",
							"type": "uint256"
						},
						{
							"internalType": "uint256",
							"name": "_fileSize",
							"type": "uint256"
						}
					],
					"name": "storeFileMetadata",
					"outputs": [],
					"stateMutability": "nonpayable",
					"type": "function"
				},
				{
					"inputs": [
						{
							"internalType": "address",
							"name": "_nodeAddress",
							"type": "address"
						},
						{
							"internalType": "uint256",
							"name": "_newStorage",
							"type": "uint256"
						}
					],
					"name": "updateAvailableStorage",
					"outputs": [],
					"stateMutability": "nonpayable",
					"type": "function"
				}
			],
			"devdoc": {
				"kind": "dev",
				"methods": {},
				"version": 1
			},
			"evm": {
				"assembly": "    /* \"contracts/_FileStorage.sol\":121:5721  contract FileStorageManager is ChunkManager, NodeManager {... */\n  mstore(0x40, 0x80)\n    /* \"contracts/_ChunkManager.sol\":130:131  3 */\n  0x03\n    /* \"contracts/_ChunkManager.sol\":89:131  uint256 public numMaxChunksDuplication = 3 */\n  0x00\n  sstore\n    /* \"contracts/_ChunkManager.sol\":167:170  100 */\n  0x64\n    /* \"contracts/_ChunkManager.sol\":137:170  uint256 public maxChunkSize = 100 */\n  0x01\n  sstore\n    /* \"contracts/_FileStorage.sol\":910:973  constructor() NodeManager() {... */\n  callvalue\n  dup1\n  iszero\n  tag_1\n  jumpi\n  0x00\n  dup1\n  revert\ntag_1:\n  pop\n    /* \"contracts/_FileStorage.sol\":956:966  msg.sender */\n  caller\n    /* \"contracts/_FileStorage.sol\":948:953  owner */\n  0x05\n  0x00\n    /* \"contracts/_FileStorage.sol\":948:966  owner = msg.sender */\n  0x0100\n  exp\n  dup2\n  sload\n  dup2\n  0xffffffffffffffffffffffffffffffffffffffff\n  mul\n  not\n  and\n  swap1\n  dup4\n  0xffffffffffffffffffffffffffffffffffffffff\n  and\n  mul\n  or\n  swap1\n  sstore\n  pop\n    /* \"contracts/_FileStorage.sol\":121:5721  contract FileStorageManager is ChunkManager, NodeManager {... */\n  dataSize(sub_0)\n  dup1\n  dataOffset(sub_0)\n  0x00\n  codecopy\n  0x00\n  return\nstop\n\nsub_0: assembly {\n        /* \"contracts/_FileStorage.sol\":121:5721  contract FileStorageManager is ChunkManager, NodeManager {... */\n      mstore(0x40, 0x80)\n      callvalue\n      dup1\n      iszero\n      tag_1\n      jumpi\n      0x00\n      dup1\n      revert\n    tag_1:\n      pop\n      jumpi(tag_2, lt(calldatasize, 0x04))\n      shr(0xe0, calldataload(0x00))\n      dup1\n      0x912bb1fb\n      gt\n      tag_22\n      jumpi\n      dup1\n      0xc5b42006\n      gt\n      tag_23\n      jumpi\n      dup1\n      0xc5b42006\n      eq\n      tag_17\n      jumpi\n      dup1\n      0xcf86bf93\n      eq\n      tag_18\n      jumpi\n      dup1\n      0xe036004c\n      eq\n      tag_19\n      jumpi\n      dup1\n      0xe316e85c\n      eq\n      tag_20\n      jumpi\n      dup1\n      0xfe72ae13\n      eq\n      tag_21\n      jumpi\n      jump(tag_2)\n    tag_23:\n      dup1\n      0x912bb1fb\n      eq\n      tag_12\n      jumpi\n      dup1\n      0xa1174e7d\n      eq\n      tag_13\n      jumpi\n      dup1\n      0xa9860308\n      eq\n      tag_14\n      jumpi\n      dup1\n      0xb49f33c8\n      eq\n      tag_15\n      jumpi\n      dup1\n      0xb65814a6\n      eq\n      tag_16\n      jumpi\n      jump(tag_2)\n    tag_22:\n      dup1\n      0x2a85be1e\n      gt\n      tag_24\n      jumpi\n      dup1\n      0x2a85be1e\n      eq\n      tag_7\n      jumpi\n      dup1\n      0x50f1c985\n      eq\n      tag_8\n      jumpi\n      dup1\n      0x5ffd7c06\n      eq\n      tag_9\n      jumpi\n      dup1\n      0x64f0c0b8\n      eq\n      tag_10\n      jumpi\n      dup1\n      0x8da5cb5b\n      eq\n      tag_11\n      jumpi\n      jump(tag_2)\n    tag_24:\n      dup1\n      0x09fbf55a\n      eq\n      tag_3\n      jumpi\n      dup1\n      0x11bd77fe\n      eq\n      tag_4\n      jumpi\n      dup1\n      0x189a5a17\n      eq\n      tag_5\n      jumpi\n      dup1\n      0x196815d2\n      eq\n      tag_6\n      jumpi\n    tag_2:\n      0x00\n      dup1\n      revert\n        /* \"contracts/_FileStorage.sol\":2886:4069  function storeFileMetadata(... */\n    tag_3:\n      tag_25\n      0x04\n      dup1\n      calldatasize\n      sub\n      dup2\n      add\n      swap1\n      tag_26\n      swap2\n      swap1\n      tag_27\n      jump\t// in\n    tag_26:\n      tag_28\n      jump\t// in\n    tag_25:\n      stop\n        /* \"contracts/_NodeManager.sol\":263:536  function addNode(address _nodeAddress, uint256 _initialStorage) public {... */\n    tag_4:\n      tag_29\n      0x04\n      dup1\n      calldatasize\n      sub\n      dup2\n      add\n      swap1\n      tag_30\n      swap2\n      swap1\n      tag_31\n      jump\t// in\n    tag_30:\n      tag_32\n      jump\t// in\n    tag_29:\n      stop\n        /* \"contracts/_NodeManager.sol\":185:222  mapping(address => Node) public nodes */\n    tag_5:\n      tag_33\n      0x04\n      dup1\n      calldatasize\n      sub\n      dup2\n      add\n      swap1\n      tag_34\n      swap2\n      swap1\n      tag_35\n      jump\t// in\n    tag_34:\n      tag_36\n      jump\t// in\n    tag_33:\n      mload(0x40)\n      tag_37\n      swap3\n      swap2\n      swap1\n      tag_38\n      jump\t// in\n    tag_37:\n      mload(0x40)\n      dup1\n      swap2\n      sub\n      swap1\n      return\n        /* \"contracts/_ChunkManager.sol\":687:1019  function createHash(string[] memory stringArray)... */\n    tag_6:\n      tag_39\n      0x04\n      dup1\n      calldatasize\n      sub\n      dup2\n      add\n      swap1\n      tag_40\n      swap2\n      swap1\n      tag_41\n      jump\t// in\n    tag_40:\n      tag_42\n      jump\t// in\n    tag_39:\n      mload(0x40)\n      tag_43\n      swap2\n      swap1\n      tag_44\n      jump\t// in\n    tag_43:\n      mload(0x40)\n      dup1\n      swap2\n      sub\n      swap1\n      return\n        /* \"contracts/_NodeManager.sol\":926:1089  function retrieveChunkInNode(address _nodeAddress, string memory _fileId) public view returns (string memory) {... */\n    tag_7:\n      tag_45\n      0x04\n      dup1\n      calldatasize\n      sub\n      dup2\n      add\n      swap1\n      tag_46\n      swap2\n      swap1\n      tag_47\n      jump\t// in\n    tag_46:\n      tag_48\n      jump\t// in\n    tag_45:\n      mload(0x40)\n      tag_49\n      swap2\n      swap1\n      tag_50\n      jump\t// in\n    tag_49:\n      mload(0x40)\n      dup1\n      swap2\n      sub\n      swap1\n      return\n        /* \"contracts/_NodeManager.sol\":1097:1256  function deleteChunkInNode(address _nodeAddress, string memory _fileId) public view returns (string memory) {... */\n    tag_8:\n      tag_51\n      0x04\n      dup1\n      calldatasize\n      sub\n      dup2\n      add\n      swap1\n      tag_52\n      swap2\n      swap1\n      tag_47\n      jump\t// in\n    tag_52:\n      tag_53\n      jump\t// in\n    tag_51:\n      mload(0x40)\n      tag_54\n      swap2\n      swap1\n      tag_50\n      jump\t// in\n    tag_54:\n      mload(0x40)\n      dup1\n      swap2\n      sub\n      swap1\n      return\n        /* \"contracts/_ChunkManager.sol\":89:131  uint256 public numMaxChunksDuplication = 3 */\n    tag_9:\n      tag_55\n      tag_56\n      jump\t// in\n    tag_55:\n      mload(0x40)\n      tag_57\n      swap2\n      swap1\n      tag_58\n      jump\t// in\n    tag_57:\n      mload(0x40)\n      dup1\n      swap2\n      sub\n      swap1\n      return\n        /* \"contracts/_NodeManager.sol\":1503:2411  function findAvailableNode(uint256 _chunkSize) public view returns (address) {                              //Changed to public for testing... */\n    tag_10:\n      tag_59\n      0x04\n      dup1\n      calldatasize\n      sub\n      dup2\n      add\n      swap1\n      tag_60\n      swap2\n      swap1\n      tag_61\n      jump\t// in\n    tag_60:\n      tag_62\n      jump\t// in\n    tag_59:\n      mload(0x40)\n      tag_63\n      swap2\n      swap1\n      tag_64\n      jump\t// in\n    tag_63:\n      mload(0x40)\n      dup1\n      swap2\n      sub\n      swap1\n      return\n        /* \"contracts/_FileStorage.sol\":184:204  address public owner */\n    tag_11:\n      tag_65\n      tag_66\n      jump\t// in\n    tag_65:\n      mload(0x40)\n      tag_67\n      swap2\n      swap1\n      tag_64\n      jump\t// in\n    tag_67:\n      mload(0x40)\n      dup1\n      swap2\n      sub\n      swap1\n      return\n        /* \"contracts/_ChunkManager.sol\":271:515  function storeFileHash(bytes32 _fileHash, uint256 _uniqueId) public {... */\n    tag_12:\n      tag_68\n      0x04\n      dup1\n      calldatasize\n      sub\n      dup2\n      add\n      swap1\n      tag_69\n      swap2\n      swap1\n      tag_70\n      jump\t// in\n    tag_69:\n      tag_71\n      jump\t// in\n    tag_68:\n      stop\n        /* \"contracts/_NodeManager.sol\":1264:1360  function getAllNodes() public view returns (address[] memory) {... */\n    tag_13:\n      tag_72\n      tag_73\n      jump\t// in\n    tag_72:\n      mload(0x40)\n      tag_74\n      swap2\n      swap1\n      tag_75\n      jump\t// in\n    tag_74:\n      mload(0x40)\n      dup1\n      swap2\n      sub\n      swap1\n      return\n        /* \"contracts/_NodeManager.sol\":1368:1495  function getNodeByAddress(address _nodeAddress) public view returns (Node memory) {... */\n    tag_14:\n      tag_76\n      0x04\n      dup1\n      calldatasize\n      sub\n      dup2\n      add\n      swap1\n      tag_77\n      swap2\n      swap1\n      tag_35\n      jump\t// in\n    tag_77:\n      tag_78\n      jump\t// in\n    tag_76:\n      mload(0x40)\n      tag_79\n      swap2\n      swap1\n      tag_80\n      jump\t// in\n    tag_79:\n      mload(0x40)\n      dup1\n      swap2\n      sub\n      swap1\n      return\n        /* \"contracts/_NodeManager.sol\":544:783  function updateAvailableStorage(address _nodeAddress, uint256 _newStorage) public {... */\n    tag_15:\n      tag_81\n      0x04\n      dup1\n      calldatasize\n      sub\n      dup2\n      add\n      swap1\n      tag_82\n      swap2\n      swap1\n      tag_31\n      jump\t// in\n    tag_82:\n      tag_83\n      jump\t// in\n    tag_81:\n      stop\n        /* \"contracts/_NodeManager.sol\":791:918  function storeChunkInNode(address _nodeAddress, string memory _chunk) public {... */\n    tag_16:\n      tag_84\n      0x04\n      dup1\n      calldatasize\n      sub\n      dup2\n      add\n      swap1\n      tag_85\n      swap2\n      swap1\n      tag_47\n      jump\t// in\n    tag_85:\n      tag_86\n      jump\t// in\n    tag_84:\n      stop\n        /* \"contracts/_FileStorage.sol\":4397:5356  function deleteFile(uint256 _fileId) public {... */\n    tag_17:\n      tag_87\n      0x04\n      dup1\n      calldatasize\n      sub\n      dup2\n      add\n      swap1\n      tag_88\n      swap2\n      swap1\n      tag_61\n      jump\t// in\n    tag_88:\n      tag_89\n      jump\t// in\n    tag_87:\n      stop\n        /* \"contracts/_ChunkManager.sol\":137:170  uint256 public maxChunkSize = 100 */\n    tag_18:\n      tag_90\n      tag_91\n      jump\t// in\n    tag_90:\n      mload(0x40)\n      tag_92\n      swap2\n      swap1\n      tag_58\n      jump\t// in\n    tag_92:\n      mload(0x40)\n      dup1\n      swap2\n      sub\n      swap1\n      return\n        /* \"contracts/_FileStorage.sol\":979:2880  function storeFile (... */\n    tag_19:\n      tag_93\n      0x04\n      dup1\n      calldatasize\n      sub\n      dup2\n      add\n      swap1\n      tag_94\n      swap2\n      swap1\n      tag_95\n      jump\t// in\n    tag_94:\n      tag_96\n      jump\t// in\n    tag_93:\n      mload(0x40)\n      tag_97\n      swap2\n      swap1\n      tag_75\n      jump\t// in\n    tag_97:\n      mload(0x40)\n      dup1\n      swap2\n      sub\n      swap1\n      return\n        /* \"contracts/_FileStorage.sol\":4075:4391  function retrieveFile(uint256 _fileId) public view returns (bytes32) {... */\n    tag_20:\n      tag_98\n      0x04\n      dup1\n      calldatasize\n      sub\n      dup2\n      add\n      swap1\n      tag_99\n      swap2\n      swap1\n      tag_61\n      jump\t// in\n    tag_99:\n      tag_100\n      jump\t// in\n    tag_98:\n      mload(0x40)\n      tag_101\n      swap2\n      swap1\n      tag_44\n      jump\t// in\n    tag_101:\n      mload(0x40)\n      dup1\n      swap2\n      sub\n      swap1\n      return\n        /* \"contracts/_NodeManager.sol\":229:254  address[] public allNodes */\n    tag_21:\n      tag_102\n      0x04\n      dup1\n      calldatasize\n      sub\n      dup2\n      add\n      swap1\n      tag_103\n      swap2\n      swap1\n      tag_61\n      jump\t// in\n    tag_103:\n      tag_104\n      jump\t// in\n    tag_102:\n      mload(0x40)\n      tag_105\n      swap2\n      swap1\n      tag_64\n      jump\t// in\n    tag_105:\n      mload(0x40)\n      dup1\n      swap2\n      sub\n      swap1\n      return\n        /* \"contracts/_FileStorage.sol\":2886:4069  function storeFileMetadata(... */\n    tag_28:\n        /* \"contracts/_FileStorage.sol\":3200:3201  0 */\n      0x00\n        /* \"contracts/_FileStorage.sol\":3178:3202  msg.sender != address(0) */\n      0xffffffffffffffffffffffffffffffffffffffff\n      and\n        /* \"contracts/_FileStorage.sol\":3178:3188  msg.sender */\n      caller\n        /* \"contracts/_FileStorage.sol\":3178:3202  msg.sender != address(0) */\n      0xffffffffffffffffffffffffffffffffffffffff\n      and\n      sub\n        /* \"contracts/_FileStorage.sol\":3170:3203  require(msg.sender != address(0)) */\n      tag_107\n      jumpi\n      0x00\n      dup1\n      revert\n    tag_107:\n        /* \"contracts/_FileStorage.sol\":3247:3248  0 */\n      0x00\n        /* \"contracts/_FileStorage.sol\":3227:3236  _fileType */\n      dup7\n        /* \"contracts/_FileStorage.sol\":3221:3244  bytes(_fileType).length */\n      mload\n        /* \"contracts/_FileStorage.sol\":3221:3248  bytes(_fileType).length > 0 */\n      gt\n        /* \"contracts/_FileStorage.sol\":3213:3249  require(bytes(_fileType).length > 0) */\n      tag_108\n      jumpi\n      0x00\n      dup1\n      revert\n    tag_108:\n        /* \"contracts/_FileStorage.sol\":3293:3294  0 */\n      0x00\n        /* \"contracts/_FileStorage.sol\":3273:3282  _fileName */\n      dup8\n        /* \"contracts/_FileStorage.sol\":3267:3290  bytes(_fileName).length */\n      mload\n        /* \"contracts/_FileStorage.sol\":3267:3294  bytes(_fileName).length > 0 */\n      gt\n        /* \"contracts/_FileStorage.sol\":3259:3295  require(bytes(_fileName).length > 0) */\n      tag_109\n      jumpi\n      0x00\n      dup1\n      revert\n    tag_109:\n        /* \"contracts/_FileStorage.sol\":3341:3342  0 */\n      0x00\n        /* \"contracts/_FileStorage.sol\":3313:3338  bytes32(_fileHash).length */\n      0x20\n        /* \"contracts/_FileStorage.sol\":3313:3342  bytes32(_fileHash).length > 0 */\n      0xff\n      and\n      gt\n        /* \"contracts/_FileStorage.sol\":3305:3343  require(bytes32(_fileHash).length > 0) */\n      tag_110\n      jumpi\n      0x00\n      dup1\n      revert\n    tag_110:\n        /* \"contracts/_FileStorage.sol\":3394:3395  0 */\n      0x00\n        /* \"contracts/_FileStorage.sol\":3361:3384  _fileStorageNodeAddress */\n      dup4\n        /* \"contracts/_FileStorage.sol\":3361:3391  _fileStorageNodeAddress.length */\n      mload\n        /* \"contracts/_FileStorage.sol\":3361:3395  _fileStorageNodeAddress.length > 0 */\n      gt\n        /* \"contracts/_FileStorage.sol\":3353:3396  require(_fileStorageNodeAddress.length > 0) */\n      tag_111\n      jumpi\n      0x00\n      dup1\n      revert\n    tag_111:\n        /* \"contracts/_FileStorage.sol\":3426:3427  0 */\n      0x00\n        /* \"contracts/_FileStorage.sol\":3414:3423  _fileSize */\n      dup2\n        /* \"contracts/_FileStorage.sol\":3414:3427  _fileSize > 0 */\n      gt\n        /* \"contracts/_FileStorage.sol\":3406:3428  require(_fileSize > 0) */\n      tag_112\n      jumpi\n      0x00\n      dup1\n      revert\n    tag_112:\n        /* \"contracts/_FileStorage.sol\":3458:3459  0 */\n      0x00\n        /* \"contracts/_FileStorage.sol\":3446:3455  _uniqueId */\n      dup3\n        /* \"contracts/_FileStorage.sol\":3446:3459  _uniqueId > 0 */\n      gt\n        /* \"contracts/_FileStorage.sol\":3438:3460  require(_uniqueId > 0) */\n      tag_113\n      jumpi\n      0x00\n      dup1\n      revert\n    tag_113:\n        /* \"contracts/_FileStorage.sol\":3478:3497  nodeAddressOfChunks */\n      0x07\n      0x00\n        /* \"contracts/_FileStorage.sol\":3471:3497  delete nodeAddressOfChunks */\n      tag_114\n      swap2\n      swap1\n      tag_115\n      jump\t// in\n    tag_114:\n        /* \"contracts/_FileStorage.sol\":3508:3521  addressToFile */\n      0x06\n        /* \"contracts/_FileStorage.sol\":3508:3533  addressToFile[msg.sender] */\n      0x00\n        /* \"contracts/_FileStorage.sol\":3522:3532  msg.sender */\n      caller\n        /* \"contracts/_FileStorage.sol\":3508:3533  addressToFile[msg.sender] */\n      0xffffffffffffffffffffffffffffffffffffffff\n      and\n      0xffffffffffffffffffffffffffffffffffffffff\n      and\n      dup2\n      mstore\n      0x20\n      add\n      swap1\n      dup2\n      mstore\n      0x20\n      add\n      0x00\n      keccak256\n        /* \"contracts/_FileStorage.sol\":3552:3846  FileMetadata(... */\n      mload(0x40)\n      dup1\n      0x0120\n      add\n      0x40\n      mstore\n      dup1\n        /* \"contracts/_FileStorage.sol\":3582:3591  _uniqueId */\n      dup5\n        /* \"contracts/_FileStorage.sol\":3552:3846  FileMetadata(... */\n      dup2\n      mstore\n      0x20\n      add\n        /* \"contracts/_FileStorage.sol\":3609:3618  _fileName */\n      dup10\n        /* \"contracts/_FileStorage.sol\":3552:3846  FileMetadata(... */\n      dup2\n      mstore\n      0x20\n      add\n        /* \"contracts/_FileStorage.sol\":3636:3645  _fileType */\n      dup9\n        /* \"contracts/_FileStorage.sol\":3552:3846  FileMetadata(... */\n      dup2\n      mstore\n      0x20\n      add\n        /* \"contracts/_FileStorage.sol\":3663:3672  _fileHash */\n      dup8\n        /* \"contracts/_FileStorage.sol\":3552:3846  FileMetadata(... */\n      dup2\n      mstore\n      0x20\n      add\n        /* \"contracts/_FileStorage.sol\":3690:3699  _fileSize */\n      dup4\n        /* \"contracts/_FileStorage.sol\":3552:3846  FileMetadata(... */\n      dup2\n      mstore\n      0x20\n      add\n        /* \"contracts/_FileStorage.sol\":3717:3732  block.timestamp */\n      timestamp\n        /* \"contracts/_FileStorage.sol\":3552:3846  FileMetadata(... */\n      dup2\n      mstore\n      0x20\n      add\n        /* \"contracts/_FileStorage.sol\":3750:3760  msg.sender */\n      caller\n        /* \"contracts/_FileStorage.sol\":3552:3846  FileMetadata(... */\n      0xffffffffffffffffffffffffffffffffffffffff\n      and\n      dup2\n      mstore\n      0x20\n      add\n        /* \"contracts/_FileStorage.sol\":3778:3791  _fileEncoding */\n      dup7\n        /* \"contracts/_FileStorage.sol\":3552:3846  FileMetadata(... */\n      dup2\n      mstore\n      0x20\n      add\n        /* \"contracts/_FileStorage.sol\":3809:3832  _fileStorageNodeAddress */\n      dup6\n        /* \"contracts/_FileStorage.sol\":3552:3846  FileMetadata(... */\n      dup2\n      mstore\n      pop\n        /* \"contracts/_FileStorage.sol\":3508:3856  addressToFile[msg.sender].push(... */\n      swap1\n      dup1\n      0x01\n      dup2\n      sload\n      add\n      dup1\n      dup3\n      sstore\n      dup1\n      swap2\n      pop\n      pop\n      0x01\n      swap1\n      sub\n      swap1\n      0x00\n      mstore\n      keccak256(0x00, 0x20)\n      swap1\n      0x09\n      mul\n      add\n      0x00\n      swap1\n      swap2\n      swap1\n      swap2\n      swap1\n      swap2\n      pop\n      0x00\n      dup3\n      add\n      mload\n      dup2\n      0x00\n      add\n      sstore\n      0x20\n      dup3\n      add\n      mload\n      dup2\n      0x01\n      add\n      swap1\n      dup2\n      tag_117\n      swap2\n      swap1\n      tag_118\n      jump\t// in\n    tag_117:\n      pop\n      0x40\n      dup3\n      add\n      mload\n      dup2\n      0x02\n      add\n      swap1\n      dup2\n      tag_119\n      swap2\n      swap1\n      tag_118\n      jump\t// in\n    tag_119:\n      pop\n      0x60\n      dup3\n      add\n      mload\n      dup2\n      0x03\n      add\n      sstore\n      0x80\n      dup3\n      add\n      mload\n      dup2\n      0x04\n      add\n      sstore\n      0xa0\n      dup3\n      add\n      mload\n      dup2\n      0x05\n      add\n      sstore\n      0xc0\n      dup3\n      add\n      mload\n      dup2\n      0x06\n      add\n      exp(0x0100, 0x00)\n      dup2\n      sload\n      dup2\n      0xffffffffffffffffffffffffffffffffffffffff\n      mul\n      not\n      and\n      swap1\n      dup4\n      0xffffffffffffffffffffffffffffffffffffffff\n      and\n      mul\n      or\n      swap1\n      sstore\n      pop\n      0xe0\n      dup3\n      add\n      mload\n      dup2\n      0x07\n      add\n      swap1\n      dup2\n      tag_120\n      swap2\n      swap1\n      tag_118\n      jump\t// in\n    tag_120:\n      pop\n      0x0100\n      dup3\n      add\n      mload\n      dup2\n      0x08\n      add\n      swap1\n      dup1\n      mload\n      swap1\n      0x20\n      add\n      swap1\n      tag_121\n      swap3\n      swap2\n      swap1\n      tag_122\n      jump\t// in\n    tag_121:\n      pop\n      pop\n      pop\n        /* \"contracts/_FileStorage.sol\":3872:4062  FileUploaded(... */\n      0xb3d6f1092c4206972e91a35451f2ad4593efe995b5c5814ec418c5996f09b4cb\n        /* \"contracts/_FileStorage.sol\":3898:3907  _uniqueId */\n      dup3\n        /* \"contracts/_FileStorage.sol\":3921:3930  _fileName */\n      dup9\n        /* \"contracts/_FileStorage.sol\":3944:3953  _fileType */\n      dup9\n        /* \"contracts/_FileStorage.sol\":3967:3976  _fileHash */\n      dup9\n        /* \"contracts/_FileStorage.sol\":3990:3999  _fileSize */\n      dup6\n        /* \"contracts/_FileStorage.sol\":4013:4028  block.timestamp */\n      timestamp\n        /* \"contracts/_FileStorage.sol\":4042:4052  msg.sender */\n      caller\n        /* \"contracts/_FileStorage.sol\":3872:4062  FileUploaded(... */\n      mload(0x40)\n      tag_123\n      swap8\n      swap7\n      swap6\n      swap5\n      swap4\n      swap3\n      swap2\n      swap1\n      tag_124\n      jump\t// in\n    tag_123:\n      mload(0x40)\n      dup1\n      swap2\n      sub\n      swap1\n      log1\n        /* \"contracts/_FileStorage.sol\":2886:4069  function storeFileMetadata(... */\n      pop\n      pop\n      pop\n      pop\n      pop\n      pop\n      pop\n      jump\t// out\n        /* \"contracts/_NodeManager.sol\":263:536  function addNode(address _nodeAddress, uint256 _initialStorage) public {... */\n    tag_32:\n        /* \"contracts/_NodeManager.sol\":396:397  0 */\n      0x00\n        /* \"contracts/_NodeManager.sol\":353:398  nodes[_nodeAddress].nodeAddress == address(0) */\n      0xffffffffffffffffffffffffffffffffffffffff\n      and\n        /* \"contracts/_NodeManager.sol\":353:358  nodes */\n      0x03\n        /* \"contracts/_NodeManager.sol\":353:372  nodes[_nodeAddress] */\n      0x00\n        /* \"contracts/_NodeManager.sol\":359:371  _nodeAddress */\n      dup5\n        /* \"contracts/_NodeManager.sol\":353:372  nodes[_nodeAddress] */\n      0xffffffffffffffffffffffffffffffffffffffff\n      and\n      0xffffffffffffffffffffffffffffffffffffffff\n      and\n      dup2\n      mstore\n      0x20\n      add\n      swap1\n      dup2\n      mstore\n      0x20\n      add\n      0x00\n      keccak256\n        /* \"contracts/_NodeManager.sol\":353:384  nodes[_nodeAddress].nodeAddress */\n      0x00\n      add\n      0x00\n      swap1\n      sload\n      swap1\n      0x0100\n      exp\n      swap1\n      div\n      0xffffffffffffffffffffffffffffffffffffffff\n      and\n        /* \"contracts/_NodeManager.sol\":353:398  nodes[_nodeAddress].nodeAddress == address(0) */\n      0xffffffffffffffffffffffffffffffffffffffff\n      and\n      eq\n        /* \"contracts/_NodeManager.sol\":345:422  require(nodes[_nodeAddress].nodeAddress == address(0), \"Node already exists\") */\n      tag_126\n      jumpi\n      mload(0x40)\n      0x08c379a000000000000000000000000000000000000000000000000000000000\n      dup2\n      mstore\n      0x04\n      add\n      tag_127\n      swap1\n      tag_128\n      jump\t// in\n    tag_127:\n      mload(0x40)\n      dup1\n      swap2\n      sub\n      swap1\n      revert\n    tag_126:\n        /* \"contracts/_NodeManager.sol\":455:490  Node(_nodeAddress, _initialStorage) */\n      mload(0x40)\n      dup1\n      0x40\n      add\n      0x40\n      mstore\n      dup1\n        /* \"contracts/_NodeManager.sol\":460:472  _nodeAddress */\n      dup4\n        /* \"contracts/_NodeManager.sol\":455:490  Node(_nodeAddress, _initialStorage) */\n      0xffffffffffffffffffffffffffffffffffffffff\n      and\n      dup2\n      mstore\n      0x20\n      add\n        /* \"contracts/_NodeManager.sol\":474:489  _initialStorage */\n      dup3\n        /* \"contracts/_NodeManager.sol\":455:490  Node(_nodeAddress, _initialStorage) */\n      dup2\n      mstore\n      pop\n        /* \"contracts/_NodeManager.sol\":433:438  nodes */\n      0x03\n        /* \"contracts/_NodeManager.sol\":433:452  nodes[_nodeAddress] */\n      0x00\n        /* \"contracts/_NodeManager.sol\":439:451  _nodeAddress */\n      dup5\n        /* \"contracts/_NodeManager.sol\":433:452  nodes[_nodeAddress] */\n      0xffffffffffffffffffffffffffffffffffffffff\n      and\n      0xffffffffffffffffffffffffffffffffffffffff\n      and\n      dup2\n      mstore\n      0x20\n      add\n      swap1\n      dup2\n      mstore\n      0x20\n      add\n      0x00\n      keccak256\n        /* \"contracts/_NodeManager.sol\":433:490  nodes[_nodeAddress] = Node(_nodeAddress, _initialStorage) */\n      0x00\n      dup3\n      add\n      mload\n      dup2\n      0x00\n      add\n      exp(0x0100, 0x00)\n      dup2\n      sload\n      dup2\n      0xffffffffffffffffffffffffffffffffffffffff\n      mul\n      not\n      and\n      swap1\n      dup4\n      0xffffffffffffffffffffffffffffffffffffffff\n      and\n      mul\n      or\n      swap1\n      sstore\n      pop\n      0x20\n      dup3\n      add\n      mload\n      dup2\n      0x01\n      add\n      sstore\n      swap1\n      pop\n      pop\n        /* \"contracts/_NodeManager.sol\":501:509  allNodes */\n      0x04\n        /* \"contracts/_NodeManager.sol\":515:527  _nodeAddress */\n      dup3\n        /* \"contracts/_NodeManager.sol\":501:528  allNodes.push(_nodeAddress) */\n      swap1\n      dup1\n      0x01\n      dup2\n      sload\n      add\n      dup1\n      dup3\n      sstore\n      dup1\n      swap2\n      pop\n      pop\n      0x01\n      swap1\n      sub\n      swap1\n      0x00\n      mstore\n      keccak256(0x00, 0x20)\n      add\n      0x00\n      swap1\n      swap2\n      swap1\n      swap2\n      swap1\n      swap2\n      0x0100\n      exp\n      dup2\n      sload\n      dup2\n      0xffffffffffffffffffffffffffffffffffffffff\n      mul\n      not\n      and\n      swap1\n      dup4\n      0xffffffffffffffffffffffffffffffffffffffff\n      and\n      mul\n      or\n      swap1\n      sstore\n      pop\n        /* \"contracts/_NodeManager.sol\":263:536  function addNode(address _nodeAddress, uint256 _initialStorage) public {... */\n      pop\n      pop\n      jump\t// out\n        /* \"contracts/_NodeManager.sol\":185:222  mapping(address => Node) public nodes */\n    tag_36:\n      mstore(0x20, 0x03)\n      dup1\n      0x00\n      mstore\n      keccak256(0x00, 0x40)\n      0x00\n      swap2\n      pop\n      swap1\n      pop\n      dup1\n      0x00\n      add\n      0x00\n      swap1\n      sload\n      swap1\n      0x0100\n      exp\n      swap1\n      div\n      0xffffffffffffffffffffffffffffffffffffffff\n      and\n      swap1\n      dup1\n      0x01\n      add\n      sload\n      swap1\n      pop\n      dup3\n      jump\t// out\n        /* \"contracts/_ChunkManager.sol\":687:1019  function createHash(string[] memory stringArray)... */\n    tag_42:\n        /* \"contracts/_ChunkManager.sol\":781:788  bytes32 */\n      0x00\n        /* \"contracts/_ChunkManager.sol\":804:827  bytes memory toBeHashed */\n      dup1\n        /* \"contracts/_ChunkManager.sol\":804:832  bytes memory toBeHashed = \"\" */\n      mload(0x40)\n      dup1\n      0x20\n      add\n      0x40\n      mstore\n      dup1\n      0x00\n      dup2\n      mstore\n      pop\n      swap1\n      pop\n        /* \"contracts/_ChunkManager.sol\":848:857  uint256 i */\n      0x00\n        /* \"contracts/_ChunkManager.sol\":843:974  for (uint256 i = 0; i < stringArray.length; i++) {... */\n    tag_131:\n        /* \"contracts/_ChunkManager.sol\":867:878  stringArray */\n      dup4\n        /* \"contracts/_ChunkManager.sol\":867:885  stringArray.length */\n      mload\n        /* \"contracts/_ChunkManager.sol\":863:864  i */\n      dup2\n        /* \"contracts/_ChunkManager.sol\":863:885  i < stringArray.length */\n      lt\n        /* \"contracts/_ChunkManager.sol\":843:974  for (uint256 i = 0; i < stringArray.length; i++) {... */\n      iszero\n      tag_132\n      jumpi\n        /* \"contracts/_ChunkManager.sol\":936:946  toBeHashed */\n      dup2\n        /* \"contracts/_ChunkManager.sol\":948:959  stringArray */\n      dup5\n        /* \"contracts/_ChunkManager.sol\":960:961  i */\n      dup3\n        /* \"contracts/_ChunkManager.sol\":948:962  stringArray[i] */\n      dup2\n      mload\n      dup2\n      lt\n      tag_134\n      jumpi\n      tag_135\n      tag_136\n      jump\t// in\n    tag_135:\n    tag_134:\n      0x20\n      mul\n      0x20\n      add\n      add\n      mload\n        /* \"contracts/_ChunkManager.sol\":919:963  abi.encodePacked(toBeHashed, stringArray[i]) */\n      add(0x20, mload(0x40))\n      tag_137\n      swap3\n      swap2\n      swap1\n      tag_138\n      jump\t// in\n    tag_137:\n      mload(0x40)\n      0x20\n      dup2\n      dup4\n      sub\n      sub\n      dup2\n      mstore\n      swap1\n      0x40\n      mstore\n        /* \"contracts/_ChunkManager.sol\":906:963  toBeHashed = abi.encodePacked(toBeHashed, stringArray[i]) */\n      swap2\n      pop\n        /* \"contracts/_ChunkManager.sol\":887:890  i++ */\n      dup1\n      dup1\n      0x01\n      add\n      swap2\n      pop\n      pop\n        /* \"contracts/_ChunkManager.sol\":843:974  for (uint256 i = 0; i < stringArray.length; i++) {... */\n      jump(tag_131)\n    tag_132:\n      pop\n        /* \"contracts/_ChunkManager.sol\":1001:1011  toBeHashed */\n      dup1\n        /* \"contracts/_ChunkManager.sol\":991:1012  keccak256(toBeHashed) */\n      dup1\n      mload\n      swap1\n      0x20\n      add\n      keccak256\n        /* \"contracts/_ChunkManager.sol\":984:1012  return keccak256(toBeHashed) */\n      swap2\n      pop\n      pop\n        /* \"contracts/_ChunkManager.sol\":687:1019  function createHash(string[] memory stringArray)... */\n      swap2\n      swap1\n      pop\n      jump\t// out\n        /* \"contracts/_NodeManager.sol\":926:1089  function retrieveChunkInNode(address _nodeAddress, string memory _fileId) public view returns (string memory) {... */\n    tag_48:\n        /* \"contracts/_NodeManager.sol\":1021:1034  string memory */\n      0x60\n        /* \"contracts/_NodeManager.sol\":926:1089  function retrieveChunkInNode(address _nodeAddress, string memory _fileId) public view returns (string memory) {... */\n      swap3\n      swap2\n      pop\n      pop\n      jump\t// out\n        /* \"contracts/_NodeManager.sol\":1097:1256  function deleteChunkInNode(address _nodeAddress, string memory _fileId) public view returns (string memory) {... */\n    tag_53:\n        /* \"contracts/_NodeManager.sol\":1190:1203  string memory */\n      0x60\n        /* \"contracts/_NodeManager.sol\":1097:1256  function deleteChunkInNode(address _nodeAddress, string memory _fileId) public view returns (string memory) {... */\n      swap3\n      swap2\n      pop\n      pop\n      jump\t// out\n        /* \"contracts/_ChunkManager.sol\":89:131  uint256 public numMaxChunksDuplication = 3 */\n    tag_56:\n      sload(0x00)\n      dup2\n      jump\t// out\n        /* \"contracts/_NodeManager.sol\":1503:2411  function findAvailableNode(uint256 _chunkSize) public view returns (address) {                              //Changed to public for testing... */\n    tag_62:\n        /* \"contracts/_NodeManager.sol\":1571:1578  address */\n      0x00\n        /* \"contracts/_NodeManager.sol\":1652:1668  uint256 numNodes */\n      dup1\n        /* \"contracts/_NodeManager.sol\":1671:1679  allNodes */\n      0x04\n        /* \"contracts/_NodeManager.sol\":1671:1686  allNodes.length */\n      dup1\n      sload\n      swap1\n      pop\n        /* \"contracts/_NodeManager.sol\":1652:1686  uint256 numNodes = allNodes.length */\n      swap1\n      pop\n        /* \"contracts/_NodeManager.sol\":1697:1715  uint256 sizeOffset */\n      0x00\n        /* \"contracts/_NodeManager.sol\":1718:1720  50 */\n      0x32\n        /* \"contracts/_NodeManager.sol\":1697:1720  uint256 sizeOffset = 50 */\n      swap1\n      pop\n        /* \"contracts/_NodeManager.sol\":1749:1750  0 */\n      0x00\n        /* \"contracts/_NodeManager.sol\":1737:1745  numNodes */\n      dup3\n        /* \"contracts/_NodeManager.sol\":1737:1750  numNodes == 0 */\n      sub\n        /* \"contracts/_NodeManager.sol\":1733:1796  if (numNodes == 0) {... */\n      tag_142\n      jumpi\n        /* \"contracts/_NodeManager.sol\":1782:1783  0 */\n      0x00\n        /* \"contracts/_NodeManager.sol\":1767:1784  return address(0) */\n      swap3\n      pop\n      pop\n      pop\n      jump(tag_141)\n        /* \"contracts/_NodeManager.sol\":1733:1796  if (numNodes == 0) {... */\n    tag_142:\n        /* \"contracts/_NodeManager.sol\":1867:1886  uint256 randomIndex */\n      0x00\n        /* \"contracts/_NodeManager.sol\":1928:1936  numNodes */\n      dup3\n        /* \"contracts/_NodeManager.sol\":1922:1923  1 */\n      0x01\n        /* \"contracts/_NodeManager.sol\":1907:1919  block.number */\n      number\n        /* \"contracts/_NodeManager.sol\":1907:1923  block.number - 1 */\n      tag_143\n      swap2\n      swap1\n      tag_144\n      jump\t// in\n    tag_143:\n        /* \"contracts/_NodeManager.sol\":1897:1924  blockhash(block.number - 1) */\n      blockhash\n        /* \"contracts/_NodeManager.sol\":1889:1925  uint256(blockhash(block.number - 1)) */\n      0x00\n      shr\n        /* \"contracts/_NodeManager.sol\":1889:1936  uint256(blockhash(block.number - 1)) % numNodes */\n      tag_145\n      swap2\n      swap1\n      tag_146\n      jump\t// in\n    tag_145:\n        /* \"contracts/_NodeManager.sol\":1867:1936  uint256 randomIndex = uint256(blockhash(block.number - 1)) % numNodes */\n      swap1\n      pop\n        /* \"contracts/_NodeManager.sol\":2030:2039  uint256 i */\n      0x00\n        /* \"contracts/_NodeManager.sol\":2025:2344  for (uint256 i = 0; i < numNodes; i++) {... */\n    tag_147:\n        /* \"contracts/_NodeManager.sol\":2049:2057  numNodes */\n      dup4\n        /* \"contracts/_NodeManager.sol\":2045:2046  i */\n      dup2\n        /* \"contracts/_NodeManager.sol\":2045:2057  i < numNodes */\n      lt\n        /* \"contracts/_NodeManager.sol\":2025:2344  for (uint256 i = 0; i < numNodes; i++) {... */\n      iszero\n      tag_148\n      jumpi\n        /* \"contracts/_NodeManager.sol\":2079:2091  address node */\n      0x00\n        /* \"contracts/_NodeManager.sol\":2094:2102  allNodes */\n      0x04\n        /* \"contracts/_NodeManager.sol\":2123:2131  numNodes */\n      dup6\n        /* \"contracts/_NodeManager.sol\":2118:2119  i */\n      dup4\n        /* \"contracts/_NodeManager.sol\":2104:2115  randomIndex */\n      dup6\n        /* \"contracts/_NodeManager.sol\":2104:2119  randomIndex + i */\n      tag_150\n      swap2\n      swap1\n      tag_151\n      jump\t// in\n    tag_150:\n        /* \"contracts/_NodeManager.sol\":2103:2131  (randomIndex + i) % numNodes */\n      tag_152\n      swap2\n      swap1\n      tag_146\n      jump\t// in\n    tag_152:\n        /* \"contracts/_NodeManager.sol\":2094:2132  allNodes[(randomIndex + i) % numNodes] */\n      dup2\n      sload\n      dup2\n      lt\n      tag_153\n      jumpi\n      tag_154\n      tag_136\n      jump\t// in\n    tag_154:\n    tag_153:\n      swap1\n      0x00\n      mstore\n      keccak256(0x00, 0x20)\n      add\n      0x00\n      swap1\n      sload\n      swap1\n      0x0100\n      exp\n      swap1\n      div\n      0xffffffffffffffffffffffffffffffffffffffff\n      and\n        /* \"contracts/_NodeManager.sol\":2079:2132  address node = allNodes[(randomIndex + i) % numNodes] */\n      swap1\n      pop\n        /* \"contracts/_NodeManager.sol\":2195:2205  sizeOffset */\n      dup4\n        /* \"contracts/_NodeManager.sol\":2182:2192  _chunkSize */\n      dup8\n        /* \"contracts/_NodeManager.sol\":2182:2205  _chunkSize + sizeOffset */\n      tag_156\n      swap2\n      swap1\n      tag_151\n      jump\t// in\n    tag_156:\n        /* \"contracts/_NodeManager.sol\":2151:2156  nodes */\n      0x03\n        /* \"contracts/_NodeManager.sol\":2151:2162  nodes[node] */\n      0x00\n        /* \"contracts/_NodeManager.sol\":2157:2161  node */\n      dup4\n        /* \"contracts/_NodeManager.sol\":2151:2162  nodes[node] */\n      0xffffffffffffffffffffffffffffffffffffffff\n      and\n      0xffffffffffffffffffffffffffffffffffffffff\n      and\n      dup2\n      mstore\n      0x20\n      add\n      swap1\n      dup2\n      mstore\n      0x20\n      add\n      0x00\n      keccak256\n        /* \"contracts/_NodeManager.sol\":2151:2179  nodes[node].availableStorage */\n      0x01\n      add\n      sload\n        /* \"contracts/_NodeManager.sol\":2151:2205  nodes[node].availableStorage > _chunkSize + sizeOffset */\n      gt\n        /* \"contracts/_NodeManager.sol\":2147:2333  if (nodes[node].availableStorage > _chunkSize + sizeOffset) {... */\n      iszero\n      tag_157\n      jumpi\n        /* \"contracts/_NodeManager.sol\":2313:2317  node */\n      dup1\n        /* \"contracts/_NodeManager.sol\":2306:2317  return node */\n      swap6\n      pop\n      pop\n      pop\n      pop\n      pop\n      pop\n      jump(tag_141)\n        /* \"contracts/_NodeManager.sol\":2147:2333  if (nodes[node].availableStorage > _chunkSize + sizeOffset) {... */\n    tag_157:\n        /* \"contracts/_NodeManager.sol\":2064:2344  {... */\n      pop\n        /* \"contracts/_NodeManager.sol\":2059:2062  i++ */\n      dup1\n      dup1\n      0x01\n      add\n      swap2\n      pop\n      pop\n        /* \"contracts/_NodeManager.sol\":2025:2344  for (uint256 i = 0; i < numNodes; i++) {... */\n      jump(tag_147)\n    tag_148:\n      pop\n        /* \"contracts/_NodeManager.sol\":2400:2401  0 */\n      0x00\n        /* \"contracts/_NodeManager.sol\":2385:2402  return address(0) */\n      swap4\n      pop\n      pop\n      pop\n      pop\n        /* \"contracts/_NodeManager.sol\":1503:2411  function findAvailableNode(uint256 _chunkSize) public view returns (address) {                              //Changed to public for testing... */\n    tag_141:\n      swap2\n      swap1\n      pop\n      jump\t// out\n        /* \"contracts/_FileStorage.sol\":184:204  address public owner */\n    tag_66:\n      0x05\n      0x00\n      swap1\n      sload\n      swap1\n      0x0100\n      exp\n      swap1\n      div\n      0xffffffffffffffffffffffffffffffffffffffff\n      and\n      dup2\n      jump\t// out\n        /* \"contracts/_ChunkManager.sol\":271:515  function storeFileHash(bytes32 _fileHash, uint256 _uniqueId) public {... */\n    tag_71:\n        /* \"contracts/_ChunkManager.sol\":379:380  0 */\n      0x00\n        /* \"contracts/_ChunkManager.sol\":357:381  msg.sender != address(0) */\n      0xffffffffffffffffffffffffffffffffffffffff\n      and\n        /* \"contracts/_ChunkManager.sol\":357:367  msg.sender */\n      caller\n        /* \"contracts/_ChunkManager.sol\":357:381  msg.sender != address(0) */\n      0xffffffffffffffffffffffffffffffffffffffff\n      and\n      sub\n        /* \"contracts/_ChunkManager.sol\":349:382  require(msg.sender != address(0)) */\n      tag_159\n      jumpi\n      0x00\n      dup1\n      revert\n    tag_159:\n        /* \"contracts/_ChunkManager.sol\":428:429  0 */\n      0x00\n        /* \"contracts/_ChunkManager.sol\":400:425  bytes32(_fileHash).length */\n      0x20\n        /* \"contracts/_ChunkManager.sol\":400:429  bytes32(_fileHash).length > 0 */\n      0xff\n      and\n      gt\n        /* \"contracts/_ChunkManager.sol\":392:430  require(bytes32(_fileHash).length > 0) */\n      tag_160\n      jumpi\n      0x00\n      dup1\n      revert\n    tag_160:\n        /* \"contracts/_ChunkManager.sol\":460:461  0 */\n      0x00\n        /* \"contracts/_ChunkManager.sol\":448:457  _uniqueId */\n      dup2\n        /* \"contracts/_ChunkManager.sol\":448:461  _uniqueId > 0 */\n      gt\n        /* \"contracts/_ChunkManager.sol\":440:462  require(_uniqueId > 0) */\n      tag_161\n      jumpi\n      0x00\n      dup1\n      revert\n    tag_161:\n        /* \"contracts/_ChunkManager.sol\":499:508  _fileHash */\n      dup2\n        /* \"contracts/_ChunkManager.sol\":473:485  fileIdToHash */\n      0x02\n        /* \"contracts/_ChunkManager.sol\":473:496  fileIdToHash[_uniqueId] */\n      0x00\n        /* \"contracts/_ChunkManager.sol\":486:495  _uniqueId */\n      dup4\n        /* \"contracts/_ChunkManager.sol\":473:496  fileIdToHash[_uniqueId] */\n      dup2\n      mstore\n      0x20\n      add\n      swap1\n      dup2\n      mstore\n      0x20\n      add\n      0x00\n      keccak256\n        /* \"contracts/_ChunkManager.sol\":473:508  fileIdToHash[_uniqueId] = _fileHash */\n      dup2\n      swap1\n      sstore\n      pop\n        /* \"contracts/_ChunkManager.sol\":271:515  function storeFileHash(bytes32 _fileHash, uint256 _uniqueId) public {... */\n      pop\n      pop\n      jump\t// out\n        /* \"contracts/_NodeManager.sol\":1264:1360  function getAllNodes() public view returns (address[] memory) {... */\n    tag_73:\n        /* \"contracts/_NodeManager.sol\":1308:1324  address[] memory */\n      0x60\n        /* \"contracts/_NodeManager.sol\":1344:1352  allNodes */\n      0x04\n        /* \"contracts/_NodeManager.sol\":1337:1352  return allNodes */\n      dup1\n      sload\n      dup1\n      0x20\n      mul\n      0x20\n      add\n      mload(0x40)\n      swap1\n      dup2\n      add\n      0x40\n      mstore\n      dup1\n      swap3\n      swap2\n      swap1\n      dup2\n      dup2\n      mstore\n      0x20\n      add\n      dup3\n      dup1\n      sload\n      dup1\n      iszero\n      tag_163\n      jumpi\n      0x20\n      mul\n      dup3\n      add\n      swap2\n      swap1\n      0x00\n      mstore\n      keccak256(0x00, 0x20)\n      swap1\n    tag_164:\n      dup2\n      0x00\n      swap1\n      sload\n      swap1\n      0x0100\n      exp\n      swap1\n      div\n      0xffffffffffffffffffffffffffffffffffffffff\n      and\n      0xffffffffffffffffffffffffffffffffffffffff\n      and\n      dup2\n      mstore\n      0x20\n      add\n      swap1\n      0x01\n      add\n      swap1\n      dup1\n      dup4\n      gt\n      tag_164\n      jumpi\n    tag_163:\n      pop\n      pop\n      pop\n      pop\n      pop\n      swap1\n      pop\n        /* \"contracts/_NodeManager.sol\":1264:1360  function getAllNodes() public view returns (address[] memory) {... */\n      swap1\n      jump\t// out\n        /* \"contracts/_NodeManager.sol\":1368:1495  function getNodeByAddress(address _nodeAddress) public view returns (Node memory) {... */\n    tag_78:\n        /* \"contracts/_NodeManager.sol\":1437:1448  Node memory */\n      tag_165\n      tag_166\n      jump\t// in\n    tag_165:\n        /* \"contracts/_NodeManager.sol\":1468:1473  nodes */\n      0x03\n        /* \"contracts/_NodeManager.sol\":1468:1487  nodes[_nodeAddress] */\n      0x00\n        /* \"contracts/_NodeManager.sol\":1474:1486  _nodeAddress */\n      dup4\n        /* \"contracts/_NodeManager.sol\":1468:1487  nodes[_nodeAddress] */\n      0xffffffffffffffffffffffffffffffffffffffff\n      and\n      0xffffffffffffffffffffffffffffffffffffffff\n      and\n      dup2\n      mstore\n      0x20\n      add\n      swap1\n      dup2\n      mstore\n      0x20\n      add\n      0x00\n      keccak256\n        /* \"contracts/_NodeManager.sol\":1461:1487  return nodes[_nodeAddress] */\n      mload(0x40)\n      dup1\n      0x40\n      add\n      0x40\n      mstore\n      swap1\n      dup2\n      0x00\n      dup3\n      add\n      0x00\n      swap1\n      sload\n      swap1\n      0x0100\n      exp\n      swap1\n      div\n      0xffffffffffffffffffffffffffffffffffffffff\n      and\n      0xffffffffffffffffffffffffffffffffffffffff\n      and\n      0xffffffffffffffffffffffffffffffffffffffff\n      and\n      dup2\n      mstore\n      0x20\n      add\n      0x01\n      dup3\n      add\n      sload\n      dup2\n      mstore\n      pop\n      pop\n      swap1\n      pop\n        /* \"contracts/_NodeManager.sol\":1368:1495  function getNodeByAddress(address _nodeAddress) public view returns (Node memory) {... */\n      swap2\n      swap1\n      pop\n      jump\t// out\n        /* \"contracts/_NodeManager.sol\":544:783  function updateAvailableStorage(address _nodeAddress, uint256 _newStorage) public {... */\n    tag_83:\n        /* \"contracts/_NodeManager.sol\":688:689  0 */\n      0x00\n        /* \"contracts/_NodeManager.sol\":645:690  nodes[_nodeAddress].nodeAddress != address(0) */\n      0xffffffffffffffffffffffffffffffffffffffff\n      and\n        /* \"contracts/_NodeManager.sol\":645:650  nodes */\n      0x03\n        /* \"contracts/_NodeManager.sol\":645:664  nodes[_nodeAddress] */\n      0x00\n        /* \"contracts/_NodeManager.sol\":651:663  _nodeAddress */\n      dup5\n        /* \"contracts/_NodeManager.sol\":645:664  nodes[_nodeAddress] */\n      0xffffffffffffffffffffffffffffffffffffffff\n      and\n      0xffffffffffffffffffffffffffffffffffffffff\n      and\n      dup2\n      mstore\n      0x20\n      add\n      swap1\n      dup2\n      mstore\n      0x20\n      add\n      0x00\n      keccak256\n        /* \"contracts/_NodeManager.sol\":645:676  nodes[_nodeAddress].nodeAddress */\n      0x00\n      add\n      0x00\n      swap1\n      sload\n      swap1\n      0x0100\n      exp\n      swap1\n      div\n      0xffffffffffffffffffffffffffffffffffffffff\n      and\n        /* \"contracts/_NodeManager.sol\":645:690  nodes[_nodeAddress].nodeAddress != address(0) */\n      0xffffffffffffffffffffffffffffffffffffffff\n      and\n      sub\n        /* \"contracts/_NodeManager.sol\":637:714  require(nodes[_nodeAddress].nodeAddress != address(0), \"Node does not exist\") */\n      tag_169\n      jumpi\n      mload(0x40)\n      0x08c379a000000000000000000000000000000000000000000000000000000000\n      dup2\n      mstore\n      0x04\n      add\n      tag_170\n      swap1\n      tag_171\n      jump\t// in\n    tag_170:\n      mload(0x40)\n      dup1\n      swap2\n      sub\n      swap1\n      revert\n    tag_169:\n        /* \"contracts/_NodeManager.sol\":764:775  _newStorage */\n      dup1\n        /* \"contracts/_NodeManager.sol\":725:730  nodes */\n      0x03\n        /* \"contracts/_NodeManager.sol\":725:744  nodes[_nodeAddress] */\n      0x00\n        /* \"contracts/_NodeManager.sol\":731:743  _nodeAddress */\n      dup5\n        /* \"contracts/_NodeManager.sol\":725:744  nodes[_nodeAddress] */\n      0xffffffffffffffffffffffffffffffffffffffff\n      and\n      0xffffffffffffffffffffffffffffffffffffffff\n      and\n      dup2\n      mstore\n      0x20\n      add\n      swap1\n      dup2\n      mstore\n      0x20\n      add\n      0x00\n      keccak256\n        /* \"contracts/_NodeManager.sol\":725:761  nodes[_nodeAddress].availableStorage */\n      0x01\n      add\n        /* \"contracts/_NodeManager.sol\":725:775  nodes[_nodeAddress].availableStorage = _newStorage */\n      dup2\n      swap1\n      sstore\n      pop\n        /* \"contracts/_NodeManager.sol\":544:783  function updateAvailableStorage(address _nodeAddress, uint256 _newStorage) public {... */\n      pop\n      pop\n      jump\t// out\n        /* \"contracts/_NodeManager.sol\":791:918  function storeChunkInNode(address _nodeAddress, string memory _chunk) public {... */\n    tag_86:\n      pop\n      pop\n      jump\t// out\n        /* \"contracts/_FileStorage.sol\":4397:5356  function deleteFile(uint256 _fileId) public {... */\n    tag_89:\n        /* \"contracts/_FileStorage.sol\":4483:4484  0 */\n      0x00\n        /* \"contracts/_FileStorage.sol\":4472:4479  _fileId */\n      dup2\n        /* \"contracts/_FileStorage.sol\":4472:4484  _fileId >= 0 */\n      lt\n      iszero\n        /* \"contracts/_FileStorage.sol\":4472:4524  _fileId >= 0 && addressToFile[msg.sender].length > 0 */\n      dup1\n      iszero\n      tag_174\n      jumpi\n      pop\n        /* \"contracts/_FileStorage.sol\":4523:4524  0 */\n      0x00\n        /* \"contracts/_FileStorage.sol\":4488:4501  addressToFile */\n      0x06\n        /* \"contracts/_FileStorage.sol\":4488:4513  addressToFile[msg.sender] */\n      0x00\n        /* \"contracts/_FileStorage.sol\":4502:4512  msg.sender */\n      caller\n        /* \"contracts/_FileStorage.sol\":4488:4513  addressToFile[msg.sender] */\n      0xffffffffffffffffffffffffffffffffffffffff\n      and\n      0xffffffffffffffffffffffffffffffffffffffff\n      and\n      dup2\n      mstore\n      0x20\n      add\n      swap1\n      dup2\n      mstore\n      0x20\n      add\n      0x00\n      keccak256\n        /* \"contracts/_FileStorage.sol\":4488:4520  addressToFile[msg.sender].length */\n      dup1\n      sload\n      swap1\n      pop\n        /* \"contracts/_FileStorage.sol\":4488:4524  addressToFile[msg.sender].length > 0 */\n      gt\n        /* \"contracts/_FileStorage.sol\":4472:4524  _fileId >= 0 && addressToFile[msg.sender].length > 0 */\n    tag_174:\n        /* \"contracts/_FileStorage.sol\":4451:4565  require(... */\n      tag_175\n      jumpi\n      mload(0x40)\n      0x08c379a000000000000000000000000000000000000000000000000000000000\n      dup2\n      mstore\n      0x04\n      add\n      tag_176\n      swap1\n      tag_177\n      jump\t// in\n    tag_176:\n      mload(0x40)\n      dup1\n      swap2\n      sub\n      swap1\n      revert\n    tag_175:\n        /* \"contracts/_FileStorage.sol\":4576:4607  FileMetadata[] storage filesArr */\n      0x00\n        /* \"contracts/_FileStorage.sol\":4610:4623  addressToFile */\n      0x06\n        /* \"contracts/_FileStorage.sol\":4610:4635  addressToFile[msg.sender] */\n      0x00\n        /* \"contracts/_FileStorage.sol\":4624:4634  msg.sender */\n      caller\n        /* \"contracts/_FileStorage.sol\":4610:4635  addressToFile[msg.sender] */\n      0xffffffffffffffffffffffffffffffffffffffff\n      and\n      0xffffffffffffffffffffffffffffffffffffffff\n      and\n      dup2\n      mstore\n      0x20\n      add\n      swap1\n      dup2\n      mstore\n      0x20\n      add\n      0x00\n      keccak256\n        /* \"contracts/_FileStorage.sol\":4576:4635  FileMetadata[] storage filesArr = addressToFile[msg.sender] */\n      swap1\n      pop\n        /* \"contracts/_FileStorage.sol\":4646:4663  uint256 lastIndex */\n      0x00\n        /* \"contracts/_FileStorage.sol\":4684:4685  1 */\n      0x01\n        /* \"contracts/_FileStorage.sol\":4666:4674  filesArr */\n      dup3\n        /* \"contracts/_FileStorage.sol\":4666:4681  filesArr.length */\n      dup1\n      sload\n      swap1\n      pop\n        /* \"contracts/_FileStorage.sol\":4666:4685  filesArr.length - 1 */\n      tag_178\n      swap2\n      swap1\n      tag_144\n      jump\t// in\n    tag_178:\n        /* \"contracts/_FileStorage.sol\":4646:4685  uint256 lastIndex = filesArr.length - 1 */\n      swap1\n      pop\n        /* \"contracts/_FileStorage.sol\":4711:4720  lastIndex */\n      dup1\n        /* \"contracts/_FileStorage.sol\":4700:4707  _fileId */\n      dup4\n        /* \"contracts/_FileStorage.sol\":4700:4720  _fileId != lastIndex */\n      eq\n        /* \"contracts/_FileStorage.sol\":4696:5206  if (_fileId != lastIndex) {... */\n      tag_179\n      jumpi\n        /* \"contracts/_FileStorage.sol\":4736:4765  FileMetadata storage lastFile */\n      0x00\n        /* \"contracts/_FileStorage.sol\":4768:4776  filesArr */\n      dup3\n        /* \"contracts/_FileStorage.sol\":4777:4786  lastIndex */\n      dup3\n        /* \"contracts/_FileStorage.sol\":4768:4787  filesArr[lastIndex] */\n      dup2\n      sload\n      dup2\n      lt\n      tag_180\n      jumpi\n      tag_181\n      tag_136\n      jump\t// in\n    tag_181:\n    tag_180:\n      swap1\n      0x00\n      mstore\n      keccak256(0x00, 0x20)\n      swap1\n      0x09\n      mul\n      add\n        /* \"contracts/_FileStorage.sol\":4736:4787  FileMetadata storage lastFile = filesArr[lastIndex] */\n      swap1\n      pop\n        /* \"contracts/_FileStorage.sol\":4802:4834  FileMetadata memory fileToRemove */\n      tag_183\n      tag_184\n      jump\t// in\n    tag_183:\n        /* \"contracts/_FileStorage.sol\":4854:4863  uint256 i */\n      0x00\n        /* \"contracts/_FileStorage.sol\":4849:5029  for (uint256 i = 0; i < filesArr.length; i++) {... */\n    tag_185:\n        /* \"contracts/_FileStorage.sol\":4873:4881  filesArr */\n      dup5\n        /* \"contracts/_FileStorage.sol\":4873:4888  filesArr.length */\n      dup1\n      sload\n      swap1\n      pop\n        /* \"contracts/_FileStorage.sol\":4869:4870  i */\n      dup2\n        /* \"contracts/_FileStorage.sol\":4869:4888  i < filesArr.length */\n      lt\n        /* \"contracts/_FileStorage.sol\":4849:5029  for (uint256 i = 0; i < filesArr.length; i++) {... */\n      iszero\n      tag_186\n      jumpi\n        /* \"contracts/_FileStorage.sol\":4939:4946  _fileId */\n      dup6\n        /* \"contracts/_FileStorage.sol\":4917:4925  filesArr */\n      dup6\n        /* \"contracts/_FileStorage.sol\":4926:4927  i */\n      dup3\n        /* \"contracts/_FileStorage.sol\":4917:4928  filesArr[i] */\n      dup2\n      sload\n      dup2\n      lt\n      tag_188\n      jumpi\n      tag_189\n      tag_136\n      jump\t// in\n    tag_189:\n    tag_188:\n      swap1\n      0x00\n      mstore\n      keccak256(0x00, 0x20)\n      swap1\n      0x09\n      mul\n      add\n        /* \"contracts/_FileStorage.sol\":4917:4935  filesArr[i].fileId */\n      0x00\n      add\n      sload\n        /* \"contracts/_FileStorage.sol\":4917:4946  filesArr[i].fileId == _fileId */\n      sub\n        /* \"contracts/_FileStorage.sol\":4913:5015  if (filesArr[i].fileId == _fileId) {... */\n      tag_191\n      jumpi\n        /* \"contracts/_FileStorage.sol\":4985:4993  filesArr */\n      dup5\n        /* \"contracts/_FileStorage.sol\":4994:4995  i */\n      dup2\n        /* \"contracts/_FileStorage.sol\":4985:4996  filesArr[i] */\n      dup2\n      sload\n      dup2\n      lt\n      tag_192\n      jumpi\n      tag_193\n      tag_136\n      jump\t// in\n    tag_193:\n    tag_192:\n      swap1\n      0x00\n      mstore\n      keccak256(0x00, 0x20)\n      swap1\n      0x09\n      mul\n      add\n        /* \"contracts/_FileStorage.sol\":4970:4996  fileToRemove = filesArr[i] */\n      mload(0x40)\n      dup1\n      0x0120\n      add\n      0x40\n      mstore\n      swap1\n      dup2\n      0x00\n      dup3\n      add\n      sload\n      dup2\n      mstore\n      0x20\n      add\n      0x01\n      dup3\n      add\n      dup1\n      sload\n      tag_195\n      swap1\n      tag_196\n      jump\t// in\n    tag_195:\n      dup1\n      0x1f\n      add\n      0x20\n      dup1\n      swap2\n      div\n      mul\n      0x20\n      add\n      mload(0x40)\n      swap1\n      dup2\n      add\n      0x40\n      mstore\n      dup1\n      swap3\n      swap2\n      swap1\n      dup2\n      dup2\n      mstore\n      0x20\n      add\n      dup3\n      dup1\n      sload\n      tag_197\n      swap1\n      tag_196\n      jump\t// in\n    tag_197:\n      dup1\n      iszero\n      tag_198\n      jumpi\n      dup1\n      0x1f\n      lt\n      tag_199\n      jumpi\n      0x0100\n      dup1\n      dup4\n      sload\n      div\n      mul\n      dup4\n      mstore\n      swap2\n      0x20\n      add\n      swap2\n      jump(tag_198)\n    tag_199:\n      dup3\n      add\n      swap2\n      swap1\n      0x00\n      mstore\n      keccak256(0x00, 0x20)\n      swap1\n    tag_200:\n      dup2\n      sload\n      dup2\n      mstore\n      swap1\n      0x01\n      add\n      swap1\n      0x20\n      add\n      dup1\n      dup4\n      gt\n      tag_200\n      jumpi\n      dup3\n      swap1\n      sub\n      0x1f\n      and\n      dup3\n      add\n      swap2\n    tag_198:\n      pop\n      pop\n      pop\n      pop\n      pop\n      dup2\n      mstore\n      0x20\n      add\n      0x02\n      dup3\n      add\n      dup1\n      sload\n      tag_201\n      swap1\n      tag_196\n      jump\t// in\n    tag_201:\n      dup1\n      0x1f\n      add\n      0x20\n      dup1\n      swap2\n      div\n      mul\n      0x20\n      add\n      mload(0x40)\n      swap1\n      dup2\n      add\n      0x40\n      mstore\n      dup1\n      swap3\n      swap2\n      swap1\n      dup2\n      dup2\n      mstore\n      0x20\n      add\n      dup3\n      dup1\n      sload\n      tag_202\n      swap1\n      tag_196\n      jump\t// in\n    tag_202:\n      dup1\n      iszero\n      tag_203\n      jumpi\n      dup1\n      0x1f\n      lt\n      tag_204\n      jumpi\n      0x0100\n      dup1\n      dup4\n      sload\n      div\n      mul\n      dup4\n      mstore\n      swap2\n      0x20\n      add\n      swap2\n      jump(tag_203)\n    tag_204:\n      dup3\n      add\n      swap2\n      swap1\n      0x00\n      mstore\n      keccak256(0x00, 0x20)\n      swap1\n    tag_205:\n      dup2\n      sload\n      dup2\n      mstore\n      swap1\n      0x01\n      add\n      swap1\n      0x20\n      add\n      dup1\n      dup4\n      gt\n      tag_205\n      jumpi\n      dup3\n      swap1\n      sub\n      0x1f\n      and\n      dup3\n      add\n      swap2\n    tag_203:\n      pop\n      pop\n      pop\n      pop\n      pop\n      dup2\n      mstore\n      0x20\n      add\n      0x03\n      dup3\n      add\n      sload\n      dup2\n      mstore\n      0x20\n      add\n      0x04\n      dup3\n      add\n      sload\n      dup2\n      mstore\n      0x20\n      add\n      0x05\n      dup3\n      add\n      sload\n      dup2\n      mstore\n      0x20\n      add\n      0x06\n      dup3\n      add\n      0x00\n      swap1\n      sload\n      swap1\n      0x0100\n      exp\n      swap1\n      div\n      0xffffffffffffffffffffffffffffffffffffffff\n      and\n      0xffffffffffffffffffffffffffffffffffffffff\n      and\n      0xffffffffffffffffffffffffffffffffffffffff\n      and\n      dup2\n      mstore\n      0x20\n      add\n      0x07\n      dup3\n      add\n      dup1\n      sload\n      tag_206\n      swap1\n      tag_196\n      jump\t// in\n    tag_206:\n      dup1\n      0x1f\n      add\n      0x20\n      dup1\n      swap2\n      div\n      mul\n      0x20\n      add\n      mload(0x40)\n      swap1\n      dup2\n      add\n      0x40\n      mstore\n      dup1\n      swap3\n      swap2\n      swap1\n      dup2\n      dup2\n      mstore\n      0x20\n      add\n      dup3\n      dup1\n      sload\n      tag_207\n      swap1\n      tag_196\n      jump\t// in\n    tag_207:\n      dup1\n      iszero\n      tag_208\n      jumpi\n      dup1\n      0x1f\n      lt\n      tag_209\n      jumpi\n      0x0100\n      dup1\n      dup4\n      sload\n      div\n      mul\n      dup4\n      mstore\n      swap2\n      0x20\n      add\n      swap2\n      jump(tag_208)\n    tag_209:\n      dup3\n      add\n      swap2\n      swap1\n      0x00\n      mstore\n      keccak256(0x00, 0x20)\n      swap1\n    tag_210:\n      dup2\n      sload\n      dup2\n      mstore\n      swap1\n      0x01\n      add\n      swap1\n      0x20\n      add\n      dup1\n      dup4\n      gt\n      tag_210\n      jumpi\n      dup3\n      swap1\n      sub\n      0x1f\n      and\n      dup3\n      add\n      swap2\n    tag_208:\n      pop\n      pop\n      pop\n      pop\n      pop\n      dup2\n      mstore\n      0x20\n      add\n      0x08\n      dup3\n      add\n      dup1\n      sload\n      dup1\n      0x20\n      mul\n      0x20\n      add\n      mload(0x40)\n      swap1\n      dup2\n      add\n      0x40\n      mstore\n      dup1\n      swap3\n      swap2\n      swap1\n      dup2\n      dup2\n      mstore\n      0x20\n      add\n      dup3\n      dup1\n      sload\n      dup1\n      iszero\n      tag_211\n      jumpi\n      0x20\n      mul\n      dup3\n      add\n      swap2\n      swap1\n      0x00\n      mstore\n      keccak256(0x00, 0x20)\n      swap1\n    tag_212:\n      dup2\n      0x00\n      swap1\n      sload\n      swap1\n      0x0100\n      exp\n      swap1\n      div\n      0xffffffffffffffffffffffffffffffffffffffff\n      and\n      0xffffffffffffffffffffffffffffffffffffffff\n      and\n      dup2\n      mstore\n      0x20\n      add\n      swap1\n      0x01\n      add\n      swap1\n      dup1\n      dup4\n      gt\n      tag_212\n      jumpi\n    tag_211:\n      pop\n      pop\n      pop\n      pop\n      pop\n      dup2\n      mstore\n      pop\n      pop\n      swap2\n      pop\n        /* \"contracts/_FileStorage.sol\":4913:5015  if (filesArr[i].fileId == _fileId) {... */\n    tag_191:\n        /* \"contracts/_FileStorage.sol\":4890:4893  i++ */\n      dup1\n      dup1\n      0x01\n      add\n      swap2\n      pop\n      pop\n        /* \"contracts/_FileStorage.sol\":4849:5029  for (uint256 i = 0; i < filesArr.length; i++) {... */\n      jump(tag_185)\n    tag_186:\n      pop\n        /* \"contracts/_FileStorage.sol\":5122:5130  lastFile */\n      dup2\n        /* \"contracts/_FileStorage.sol\":5085:5098  addressToFile */\n      0x06\n        /* \"contracts/_FileStorage.sol\":5085:5110  addressToFile[msg.sender] */\n      0x00\n        /* \"contracts/_FileStorage.sol\":5099:5109  msg.sender */\n      caller\n        /* \"contracts/_FileStorage.sol\":5085:5110  addressToFile[msg.sender] */\n      0xffffffffffffffffffffffffffffffffffffffff\n      and\n      0xffffffffffffffffffffffffffffffffffffffff\n      and\n      dup2\n      mstore\n      0x20\n      add\n      swap1\n      dup2\n      mstore\n      0x20\n      add\n      0x00\n      keccak256\n        /* \"contracts/_FileStorage.sol\":5111:5118  _fileId */\n      dup7\n        /* \"contracts/_FileStorage.sol\":5085:5119  addressToFile[msg.sender][_fileId] */\n      dup2\n      sload\n      dup2\n      lt\n      tag_213\n      jumpi\n      tag_214\n      tag_136\n      jump\t// in\n    tag_214:\n    tag_213:\n      swap1\n      0x00\n      mstore\n      keccak256(0x00, 0x20)\n      swap1\n      0x09\n      mul\n      add\n        /* \"contracts/_FileStorage.sol\":5085:5130  addressToFile[msg.sender][_fileId] = lastFile */\n      0x00\n      dup3\n      add\n      sload\n      dup2\n      0x00\n      add\n      sstore\n      0x01\n      dup3\n      add\n      dup2\n      0x01\n      add\n      swap1\n      dup2\n      tag_216\n      swap2\n      swap1\n      tag_217\n      jump\t// in\n    tag_216:\n      pop\n      0x02\n      dup3\n      add\n      dup2\n      0x02\n      add\n      swap1\n      dup2\n      tag_218\n      swap2\n      swap1\n      tag_217\n      jump\t// in\n    tag_218:\n      pop\n      0x03\n      dup3\n      add\n      sload\n      dup2\n      0x03\n      add\n      sstore\n      0x04\n      dup3\n      add\n      sload\n      dup2\n      0x04\n      add\n      sstore\n      0x05\n      dup3\n      add\n      sload\n      dup2\n      0x05\n      add\n      sstore\n      0x06\n      dup3\n      add\n      0x00\n      swap1\n      sload\n      swap1\n      0x0100\n      exp\n      swap1\n      div\n      0xffffffffffffffffffffffffffffffffffffffff\n      and\n      dup2\n      0x06\n      add\n      exp(0x0100, 0x00)\n      dup2\n      sload\n      dup2\n      0xffffffffffffffffffffffffffffffffffffffff\n      mul\n      not\n      and\n      swap1\n      dup4\n      0xffffffffffffffffffffffffffffffffffffffff\n      and\n      mul\n      or\n      swap1\n      sstore\n      pop\n      0x07\n      dup3\n      add\n      dup2\n      0x07\n      add\n      swap1\n      dup2\n      tag_219\n      swap2\n      swap1\n      tag_217\n      jump\t// in\n    tag_219:\n      pop\n      0x08\n      dup3\n      add\n      dup2\n      0x08\n      add\n      swap1\n      dup1\n      sload\n      tag_220\n      swap3\n      swap2\n      swap1\n      tag_221\n      jump\t// in\n    tag_220:\n      pop\n      swap1\n      pop\n      pop\n        /* \"contracts/_FileStorage.sol\":5183:5195  fileToRemove */\n      dup1\n        /* \"contracts/_FileStorage.sol\":5144:5157  addressToFile */\n      0x06\n        /* \"contracts/_FileStorage.sol\":5144:5169  addressToFile[msg.sender] */\n      0x00\n        /* \"contracts/_FileStorage.sol\":5158:5168  msg.sender */\n      caller\n        /* \"contracts/_FileStorage.sol\":5144:5169  addressToFile[msg.sender] */\n      0xffffffffffffffffffffffffffffffffffffffff\n      and\n      0xffffffffffffffffffffffffffffffffffffffff\n      and\n      dup2\n      mstore\n      0x20\n      add\n      swap1\n      dup2\n      mstore\n      0x20\n      add\n      0x00\n      keccak256\n        /* \"contracts/_FileStorage.sol\":5170:5179  lastIndex */\n      dup5\n        /* \"contracts/_FileStorage.sol\":5144:5180  addressToFile[msg.sender][lastIndex] */\n      dup2\n      sload\n      dup2\n      lt\n      tag_222\n      jumpi\n      tag_223\n      tag_136\n      jump\t// in\n    tag_223:\n    tag_222:\n      swap1\n      0x00\n      mstore\n      keccak256(0x00, 0x20)\n      swap1\n      0x09\n      mul\n      add\n        /* \"contracts/_FileStorage.sol\":5144:5195  addressToFile[msg.sender][lastIndex] = fileToRemove */\n      0x00\n      dup3\n      add\n      mload\n      dup2\n      0x00\n      add\n      sstore\n      0x20\n      dup3\n      add\n      mload\n      dup2\n      0x01\n      add\n      swap1\n      dup2\n      tag_225\n      swap2\n      swap1\n      tag_118\n      jump\t// in\n    tag_225:\n      pop\n      0x40\n      dup3\n      add\n      mload\n      dup2\n      0x02\n      add\n      swap1\n      dup2\n      tag_226\n      swap2\n      swap1\n      tag_118\n      jump\t// in\n    tag_226:\n      pop\n      0x60\n      dup3\n      add\n      mload\n      dup2\n      0x03\n      add\n      sstore\n      0x80\n      dup3\n      add\n      mload\n      dup2\n      0x04\n      add\n      sstore\n      0xa0\n      dup3\n      add\n      mload\n      dup2\n      0x05\n      add\n      sstore\n      0xc0\n      dup3\n      add\n      mload\n      dup2\n      0x06\n      add\n      exp(0x0100, 0x00)\n      dup2\n      sload\n      dup2\n      0xffffffffffffffffffffffffffffffffffffffff\n      mul\n      not\n      and\n      swap1\n      dup4\n      0xffffffffffffffffffffffffffffffffffffffff\n      and\n      mul\n      or\n      swap1\n      sstore\n      pop\n      0xe0\n      dup3\n      add\n      mload\n      dup2\n      0x07\n      add\n      swap1\n      dup2\n      tag_227\n      swap2\n      swap1\n      tag_118\n      jump\t// in\n    tag_227:\n      pop\n      0x0100\n      dup3\n      add\n      mload\n      dup2\n      0x08\n      add\n      swap1\n      dup1\n      mload\n      swap1\n      0x20\n      add\n      swap1\n      tag_228\n      swap3\n      swap2\n      swap1\n      tag_122\n      jump\t// in\n    tag_228:\n      pop\n      swap1\n      pop\n      pop\n        /* \"contracts/_FileStorage.sol\":4722:5206  {... */\n      pop\n      pop\n        /* \"contracts/_FileStorage.sol\":4696:5206  if (_fileId != lastIndex) {... */\n    tag_179:\n        /* \"contracts/_FileStorage.sol\":5270:5283  addressToFile */\n      0x06\n        /* \"contracts/_FileStorage.sol\":5270:5295  addressToFile[msg.sender] */\n      0x00\n        /* \"contracts/_FileStorage.sol\":5284:5294  msg.sender */\n      caller\n        /* \"contracts/_FileStorage.sol\":5270:5295  addressToFile[msg.sender] */\n      0xffffffffffffffffffffffffffffffffffffffff\n      and\n      0xffffffffffffffffffffffffffffffffffffffff\n      and\n      dup2\n      mstore\n      0x20\n      add\n      swap1\n      dup2\n      mstore\n      0x20\n      add\n      0x00\n      keccak256\n        /* \"contracts/_FileStorage.sol\":5270:5301  addressToFile[msg.sender].pop() */\n      dup1\n      sload\n      dup1\n      tag_229\n      jumpi\n      tag_230\n      tag_231\n      jump\t// in\n    tag_230:\n    tag_229:\n      0x01\n      swap1\n      sub\n      dup2\n      dup2\n      swap1\n      0x00\n      mstore\n      keccak256(0x00, 0x20)\n      swap1\n      0x09\n      mul\n      add\n      0x00\n      dup1\n      dup3\n      add\n      0x00\n      swap1\n      sstore\n      0x01\n      dup3\n      add\n      0x00\n      tag_233\n      swap2\n      swap1\n      tag_234\n      jump\t// in\n    tag_233:\n      0x02\n      dup3\n      add\n      0x00\n      tag_235\n      swap2\n      swap1\n      tag_234\n      jump\t// in\n    tag_235:\n      0x03\n      dup3\n      add\n      0x00\n      swap1\n      sstore\n      0x04\n      dup3\n      add\n      0x00\n      swap1\n      sstore\n      0x05\n      dup3\n      add\n      0x00\n      swap1\n      sstore\n      0x06\n      dup3\n      add\n      exp(0x0100, 0x00)\n      dup2\n      sload\n      swap1\n      0xffffffffffffffffffffffffffffffffffffffff\n      mul\n      not\n      and\n      swap1\n      sstore\n      0x07\n      dup3\n      add\n      0x00\n      tag_236\n      swap2\n      swap1\n      tag_234\n      jump\t// in\n    tag_236:\n      0x08\n      dup3\n      add\n      0x00\n      tag_237\n      swap2\n      swap1\n      tag_115\n      jump\t// in\n    tag_237:\n      pop\n      pop\n      swap1\n      sstore\n        /* \"contracts/_FileStorage.sol\":5317:5349  FileRemoved(msg.sender, _fileId) */\n      0x9bdfc616f8d66684206a96d723683e9370e718e7ccf00ad6bf94a8adf5efdf9c\n        /* \"contracts/_FileStorage.sol\":5329:5339  msg.sender */\n      caller\n        /* \"contracts/_FileStorage.sol\":5341:5348  _fileId */\n      dup5\n        /* \"contracts/_FileStorage.sol\":5317:5349  FileRemoved(msg.sender, _fileId) */\n      mload(0x40)\n      tag_238\n      swap3\n      swap2\n      swap1\n      tag_38\n      jump\t// in\n    tag_238:\n      mload(0x40)\n      dup1\n      swap2\n      sub\n      swap1\n      log1\n        /* \"contracts/_FileStorage.sol\":4441:5356  {... */\n      pop\n      pop\n        /* \"contracts/_FileStorage.sol\":4397:5356  function deleteFile(uint256 _fileId) public {... */\n      pop\n      jump\t// out\n        /* \"contracts/_ChunkManager.sol\":137:170  uint256 public maxChunkSize = 100 */\n    tag_91:\n      sload(0x01)\n      dup2\n      jump\t// out\n        /* \"contracts/_FileStorage.sol\":979:2880  function storeFile (... */\n    tag_96:\n        /* \"contracts/_FileStorage.sol\":1214:1230  address[] memory */\n      0x60\n        /* \"contracts/_FileStorage.sol\":1323:1332  uint256 i */\n      0x00\n        /* \"contracts/_FileStorage.sol\":1318:2519  for (uint256 i = 0; i < _chunksArr.length; i++) {... */\n    tag_240:\n        /* \"contracts/_FileStorage.sol\":1342:1352  _chunksArr */\n      dup8\n        /* \"contracts/_FileStorage.sol\":1342:1359  _chunksArr.length */\n      mload\n        /* \"contracts/_FileStorage.sol\":1338:1339  i */\n      dup2\n        /* \"contracts/_FileStorage.sol\":1338:1359  i < _chunksArr.length */\n      lt\n        /* \"contracts/_FileStorage.sol\":1318:2519  for (uint256 i = 0; i < _chunksArr.length; i++) {... */\n      iszero\n      tag_241\n      jumpi\n        /* \"contracts/_FileStorage.sol\":1380:1397  uint256 chunkSize */\n      0x00\n        /* \"contracts/_FileStorage.sol\":1406:1416  _chunksArr */\n      dup9\n        /* \"contracts/_FileStorage.sol\":1417:1418  i */\n      dup3\n        /* \"contracts/_FileStorage.sol\":1406:1419  _chunksArr[i] */\n      dup2\n      mload\n      dup2\n      lt\n      tag_243\n      jumpi\n      tag_244\n      tag_136\n      jump\t// in\n    tag_244:\n    tag_243:\n      0x20\n      mul\n      0x20\n      add\n      add\n      mload\n        /* \"contracts/_FileStorage.sol\":1400:1427  bytes(_chunksArr[i]).length */\n      mload\n        /* \"contracts/_FileStorage.sol\":1380:1427  uint256 chunkSize = bytes(_chunksArr[i]).length */\n      swap1\n      pop\n        /* \"contracts/_FileStorage.sol\":1442:1473  uint256 chunkDuplicationCounter */\n      0x00\n        /* \"contracts/_FileStorage.sol\":1491:1516  uint256 maxDuplicationNum */\n      dup1\n        /* \"contracts/_FileStorage.sol\":1519:1542  numMaxChunksDuplication */\n      dup1\n      sload\n        /* \"contracts/_FileStorage.sol\":1491:1542  uint256 maxDuplicationNum = numMaxChunksDuplication */\n      swap1\n      pop\n        /* \"contracts/_FileStorage.sol\":1579:1580  3 */\n      0x03\n        /* \"contracts/_FileStorage.sol\":1561:1569  allNodes */\n      0x04\n        /* \"contracts/_FileStorage.sol\":1561:1576  allNodes.length */\n      dup1\n      sload\n      swap1\n      pop\n        /* \"contracts/_FileStorage.sol\":1561:1580  allNodes.length < 3 */\n      lt\n        /* \"contracts/_FileStorage.sol\":1557:1650  if (allNodes.length < 3) {... */\n      iszero\n      tag_245\n      jumpi\n        /* \"contracts/_FileStorage.sol\":1620:1628  allNodes */\n      0x04\n        /* \"contracts/_FileStorage.sol\":1620:1635  allNodes.length */\n      dup1\n      sload\n      swap1\n      pop\n        /* \"contracts/_FileStorage.sol\":1600:1635  maxDuplicationNum = allNodes.length */\n      swap1\n      pop\n        /* \"contracts/_FileStorage.sol\":1557:1650  if (allNodes.length < 3) {... */\n    tag_245:\n        /* \"contracts/_FileStorage.sol\":1664:2509  while (chunkDuplicationCounter < maxDuplicationNum) {... */\n    tag_246:\n        /* \"contracts/_FileStorage.sol\":1697:1714  maxDuplicationNum */\n      dup1\n        /* \"contracts/_FileStorage.sol\":1671:1694  chunkDuplicationCounter */\n      dup3\n        /* \"contracts/_FileStorage.sol\":1671:1714  chunkDuplicationCounter < maxDuplicationNum */\n      lt\n        /* \"contracts/_FileStorage.sol\":1664:2509  while (chunkDuplicationCounter < maxDuplicationNum) {... */\n      iszero\n      tag_247\n      jumpi\n        /* \"contracts/_FileStorage.sol\":1734:1759  chunkDuplicationCounter++ */\n      dup2\n      dup1\n      tag_248\n      swap1\n      tag_249\n      jump\t// in\n    tag_248:\n      swap3\n      pop\n      pop\n        /* \"contracts/_FileStorage.sol\":1777:1804  address selectedNodeAddress */\n      0x00\n        /* \"contracts/_FileStorage.sol\":1807:1835  findAvailableNode(chunkSize) */\n      tag_250\n        /* \"contracts/_FileStorage.sol\":1825:1834  chunkSize */\n      dup5\n        /* \"contracts/_FileStorage.sol\":1807:1824  findAvailableNode */\n      tag_62\n        /* \"contracts/_FileStorage.sol\":1807:1835  findAvailableNode(chunkSize) */\n      jump\t// in\n    tag_250:\n        /* \"contracts/_FileStorage.sol\":1777:1835  address selectedNodeAddress = findAvailableNode(chunkSize) */\n      swap1\n      pop\n        /* \"contracts/_FileStorage.sol\":1913:1914  0 */\n      0x00\n        /* \"contracts/_FileStorage.sol\":1882:1915  selectedNodeAddress != address(0) */\n      0xffffffffffffffffffffffffffffffffffffffff\n      and\n        /* \"contracts/_FileStorage.sol\":1882:1901  selectedNodeAddress */\n      dup2\n        /* \"contracts/_FileStorage.sol\":1882:1915  selectedNodeAddress != address(0) */\n      0xffffffffffffffffffffffffffffffffffffffff\n      and\n      sub\n        /* \"contracts/_FileStorage.sol\":1853:1975  require(... */\n      tag_251\n      jumpi\n      mload(0x40)\n      0x08c379a000000000000000000000000000000000000000000000000000000000\n      dup2\n      mstore\n      0x04\n      add\n      tag_252\n      swap1\n      tag_253\n      jump\t// in\n    tag_252:\n      mload(0x40)\n      dup1\n      swap2\n      sub\n      swap1\n      revert\n    tag_251:\n        /* \"contracts/_FileStorage.sol\":2020:2078  isAddressPresent(selectedNodeAddress, nodeAddressOfChunks) */\n      tag_254\n        /* \"contracts/_FileStorage.sol\":2037:2056  selectedNodeAddress */\n      dup2\n        /* \"contracts/_FileStorage.sol\":2058:2077  nodeAddressOfChunks */\n      0x07\n        /* \"contracts/_FileStorage.sol\":2020:2078  isAddressPresent(selectedNodeAddress, nodeAddressOfChunks) */\n      dup1\n      sload\n      dup1\n      0x20\n      mul\n      0x20\n      add\n      mload(0x40)\n      swap1\n      dup2\n      add\n      0x40\n      mstore\n      dup1\n      swap3\n      swap2\n      swap1\n      dup2\n      dup2\n      mstore\n      0x20\n      add\n      dup3\n      dup1\n      sload\n      dup1\n      iszero\n      tag_255\n      jumpi\n      0x20\n      mul\n      dup3\n      add\n      swap2\n      swap1\n      0x00\n      mstore\n      keccak256(0x00, 0x20)\n      swap1\n    tag_256:\n      dup2\n      0x00\n      swap1\n      sload\n      swap1\n      0x0100\n      exp\n      swap1\n      div\n      0xffffffffffffffffffffffffffffffffffffffff\n      and\n      0xffffffffffffffffffffffffffffffffffffffff\n      and\n      dup2\n      mstore\n      0x20\n      add\n      swap1\n      0x01\n      add\n      swap1\n      dup1\n      dup4\n      gt\n      tag_256\n      jumpi\n    tag_255:\n      pop\n      pop\n      pop\n      pop\n      pop\n        /* \"contracts/_FileStorage.sol\":2020:2036  isAddressPresent */\n      tag_257\n        /* \"contracts/_FileStorage.sol\":2020:2078  isAddressPresent(selectedNodeAddress, nodeAddressOfChunks) */\n      jump\t// in\n    tag_254:\n        /* \"contracts/_FileStorage.sol\":1994:2183  if (... */\n      tag_258\n      jumpi\n        /* \"contracts/_FileStorage.sol\":2119:2138  nodeAddressOfChunks */\n      0x07\n        /* \"contracts/_FileStorage.sol\":2144:2163  selectedNodeAddress */\n      dup2\n        /* \"contracts/_FileStorage.sol\":2119:2164  nodeAddressOfChunks.push(selectedNodeAddress) */\n      swap1\n      dup1\n      0x01\n      dup2\n      sload\n      add\n      dup1\n      dup3\n      sstore\n      dup1\n      swap2\n      pop\n      pop\n      0x01\n      swap1\n      sub\n      swap1\n      0x00\n      mstore\n      keccak256(0x00, 0x20)\n      add\n      0x00\n      swap1\n      swap2\n      swap1\n      swap2\n      swap1\n      swap2\n      0x0100\n      exp\n      dup2\n      sload\n      dup2\n      0xffffffffffffffffffffffffffffffffffffffff\n      mul\n      not\n      and\n      swap1\n      dup4\n      0xffffffffffffffffffffffffffffffffffffffff\n      and\n      mul\n      or\n      swap1\n      sstore\n      pop\n        /* \"contracts/_FileStorage.sol\":1994:2183  if (... */\n    tag_258:\n        /* \"contracts/_FileStorage.sol\":2201:2253  storeChunkInNode(selectedNodeAddress, _chunksArr[i]) */\n      tag_260\n        /* \"contracts/_FileStorage.sol\":2218:2237  selectedNodeAddress */\n      dup2\n        /* \"contracts/_FileStorage.sol\":2239:2249  _chunksArr */\n      dup14\n        /* \"contracts/_FileStorage.sol\":2250:2251  i */\n      dup8\n        /* \"contracts/_FileStorage.sol\":2239:2252  _chunksArr[i] */\n      dup2\n      mload\n      dup2\n      lt\n      tag_261\n      jumpi\n      tag_262\n      tag_136\n      jump\t// in\n    tag_262:\n    tag_261:\n      0x20\n      mul\n      0x20\n      add\n      add\n      mload\n        /* \"contracts/_FileStorage.sol\":2201:2217  storeChunkInNode */\n      tag_86\n        /* \"contracts/_FileStorage.sol\":2201:2253  storeChunkInNode(selectedNodeAddress, _chunksArr[i]) */\n      jump\t// in\n    tag_260:\n        /* \"contracts/_FileStorage.sol\":2336:2494  updateAvailableStorage(... */\n      tag_263\n        /* \"contracts/_FileStorage.sol\":2380:2399  selectedNodeAddress */\n      dup2\n        /* \"contracts/_FileStorage.sol\":2467:2476  chunkSize */\n      dup6\n        /* \"contracts/_FileStorage.sol\":2421:2426  nodes */\n      0x03\n        /* \"contracts/_FileStorage.sol\":2421:2447  nodes[selectedNodeAddress] */\n      0x00\n        /* \"contracts/_FileStorage.sol\":2427:2446  selectedNodeAddress */\n      dup6\n        /* \"contracts/_FileStorage.sol\":2421:2447  nodes[selectedNodeAddress] */\n      0xffffffffffffffffffffffffffffffffffffffff\n      and\n      0xffffffffffffffffffffffffffffffffffffffff\n      and\n      dup2\n      mstore\n      0x20\n      add\n      swap1\n      dup2\n      mstore\n      0x20\n      add\n      0x00\n      keccak256\n        /* \"contracts/_FileStorage.sol\":2421:2464  nodes[selectedNodeAddress].availableStorage */\n      0x01\n      add\n      sload\n        /* \"contracts/_FileStorage.sol\":2421:2476  nodes[selectedNodeAddress].availableStorage - chunkSize */\n      tag_264\n      swap2\n      swap1\n      tag_144\n      jump\t// in\n    tag_264:\n        /* \"contracts/_FileStorage.sol\":2336:2358  updateAvailableStorage */\n      tag_83\n        /* \"contracts/_FileStorage.sol\":2336:2494  updateAvailableStorage(... */\n      jump\t// in\n    tag_263:\n        /* \"contracts/_FileStorage.sol\":1716:2509  {... */\n      pop\n        /* \"contracts/_FileStorage.sol\":1664:2509  while (chunkDuplicationCounter < maxDuplicationNum) {... */\n      jump(tag_246)\n    tag_247:\n        /* \"contracts/_FileStorage.sol\":1366:2519  {... */\n      pop\n      pop\n      pop\n        /* \"contracts/_FileStorage.sol\":1361:1364  i++ */\n      dup1\n      dup1\n      0x01\n      add\n      swap2\n      pop\n      pop\n        /* \"contracts/_FileStorage.sol\":1318:2519  for (uint256 i = 0; i < _chunksArr.length; i++) {... */\n      jump(tag_240)\n    tag_241:\n      pop\n        /* \"contracts/_FileStorage.sol\":2529:2548  bytes32 getFileHash */\n      0x00\n        /* \"contracts/_FileStorage.sol\":2551:2573  createHash(_chunksArr) */\n      tag_265\n        /* \"contracts/_FileStorage.sol\":2562:2572  _chunksArr */\n      dup9\n        /* \"contracts/_FileStorage.sol\":2551:2561  createHash */\n      tag_42\n        /* \"contracts/_FileStorage.sol\":2551:2573  createHash(_chunksArr) */\n      jump\t// in\n    tag_265:\n        /* \"contracts/_FileStorage.sol\":2529:2573  bytes32 getFileHash = createHash(_chunksArr) */\n      swap1\n      pop\n        /* \"contracts/_FileStorage.sol\":2584:2621  storeFileHash(getFileHash, _uniqueId) */\n      tag_266\n        /* \"contracts/_FileStorage.sol\":2598:2609  getFileHash */\n      dup2\n        /* \"contracts/_FileStorage.sol\":2611:2620  _uniqueId */\n      dup6\n        /* \"contracts/_FileStorage.sol\":2584:2597  storeFileHash */\n      tag_71\n        /* \"contracts/_FileStorage.sol\":2584:2621  storeFileHash(getFileHash, _uniqueId) */\n      jump\t// in\n    tag_266:\n        /* \"contracts/_FileStorage.sol\":2632:2836  storeFileMetadata(... */\n      tag_267\n        /* \"contracts/_FileStorage.sol\":2663:2672  _fileName */\n      dup8\n        /* \"contracts/_FileStorage.sol\":2686:2695  _fileType */\n      dup8\n        /* \"contracts/_FileStorage.sol\":2709:2720  getFileHash */\n      dup4\n        /* \"contracts/_FileStorage.sol\":2734:2747  _fileEncoding */\n      dup9\n        /* \"contracts/_FileStorage.sol\":2761:2780  nodeAddressOfChunks */\n      0x07\n        /* \"contracts/_FileStorage.sol\":2632:2836  storeFileMetadata(... */\n      dup1\n      sload\n      dup1\n      0x20\n      mul\n      0x20\n      add\n      mload(0x40)\n      swap1\n      dup2\n      add\n      0x40\n      mstore\n      dup1\n      swap3\n      swap2\n      swap1\n      dup2\n      dup2\n      mstore\n      0x20\n      add\n      dup3\n      dup1\n      sload\n      dup1\n      iszero\n      tag_268\n      jumpi\n      0x20\n      mul\n      dup3\n      add\n      swap2\n      swap1\n      0x00\n      mstore\n      keccak256(0x00, 0x20)\n      swap1\n    tag_269:\n      dup2\n      0x00\n      swap1\n      sload\n      swap1\n      0x0100\n      exp\n      swap1\n      div\n      0xffffffffffffffffffffffffffffffffffffffff\n      and\n      0xffffffffffffffffffffffffffffffffffffffff\n      and\n      dup2\n      mstore\n      0x20\n      add\n      swap1\n      0x01\n      add\n      swap1\n      dup1\n      dup4\n      gt\n      tag_269\n      jumpi\n    tag_268:\n      pop\n      pop\n      pop\n      pop\n      pop\n        /* \"contracts/_FileStorage.sol\":2794:2803  _uniqueId */\n      dup10\n        /* \"contracts/_FileStorage.sol\":2817:2826  _fileSize */\n      dup10\n        /* \"contracts/_FileStorage.sol\":2632:2649  storeFileMetadata */\n      tag_28\n        /* \"contracts/_FileStorage.sol\":2632:2836  storeFileMetadata(... */\n      jump\t// in\n    tag_267:\n        /* \"contracts/_FileStorage.sol\":2854:2873  nodeAddressOfChunks */\n      0x07\n        /* \"contracts/_FileStorage.sol\":2847:2873  return nodeAddressOfChunks */\n      dup1\n      sload\n      dup1\n      0x20\n      mul\n      0x20\n      add\n      mload(0x40)\n      swap1\n      dup2\n      add\n      0x40\n      mstore\n      dup1\n      swap3\n      swap2\n      swap1\n      dup2\n      dup2\n      mstore\n      0x20\n      add\n      dup3\n      dup1\n      sload\n      dup1\n      iszero\n      tag_270\n      jumpi\n      0x20\n      mul\n      dup3\n      add\n      swap2\n      swap1\n      0x00\n      mstore\n      keccak256(0x00, 0x20)\n      swap1\n    tag_271:\n      dup2\n      0x00\n      swap1\n      sload\n      swap1\n      0x0100\n      exp\n      swap1\n      div\n      0xffffffffffffffffffffffffffffffffffffffff\n      and\n      0xffffffffffffffffffffffffffffffffffffffff\n      and\n      dup2\n      mstore\n      0x20\n      add\n      swap1\n      0x01\n      add\n      swap1\n      dup1\n      dup4\n      gt\n      tag_271\n      jumpi\n    tag_270:\n      pop\n      pop\n      pop\n      pop\n      pop\n      swap2\n      pop\n      pop\n        /* \"contracts/_FileStorage.sol\":979:2880  function storeFile (... */\n      swap7\n      swap6\n      pop\n      pop\n      pop\n      pop\n      pop\n      pop\n      jump\t// out\n        /* \"contracts/_FileStorage.sol\":4075:4391  function retrieveFile(uint256 _fileId) public view returns (bytes32) {... */\n    tag_100:\n        /* \"contracts/_FileStorage.sol\":4135:4142  bytes32 */\n      0x00\n        /* \"contracts/_FileStorage.sol\":4226:4236  msg.sender */\n      caller\n        /* \"contracts/_FileStorage.sol\":4175:4236  addressToFile[msg.sender][_fileId].ownerAddress == msg.sender */\n      0xffffffffffffffffffffffffffffffffffffffff\n      and\n        /* \"contracts/_FileStorage.sol\":4175:4188  addressToFile */\n      0x06\n        /* \"contracts/_FileStorage.sol\":4175:4200  addressToFile[msg.sender] */\n      0x00\n        /* \"contracts/_FileStorage.sol\":4189:4199  msg.sender */\n      caller\n        /* \"contracts/_FileStorage.sol\":4175:4200  addressToFile[msg.sender] */\n      0xffffffffffffffffffffffffffffffffffffffff\n      and\n      0xffffffffffffffffffffffffffffffffffffffff\n      and\n      dup2\n      mstore\n      0x20\n      add\n      swap1\n      dup2\n      mstore\n      0x20\n      add\n      0x00\n      keccak256\n        /* \"contracts/_FileStorage.sol\":4201:4208  _fileId */\n      dup4\n        /* \"contracts/_FileStorage.sol\":4175:4209  addressToFile[msg.sender][_fileId] */\n      dup2\n      sload\n      dup2\n      lt\n      tag_273\n      jumpi\n      tag_274\n      tag_136\n      jump\t// in\n    tag_274:\n    tag_273:\n      swap1\n      0x00\n      mstore\n      keccak256(0x00, 0x20)\n      swap1\n      0x09\n      mul\n      add\n        /* \"contracts/_FileStorage.sol\":4175:4222  addressToFile[msg.sender][_fileId].ownerAddress */\n      0x06\n      add\n      0x00\n      swap1\n      sload\n      swap1\n      0x0100\n      exp\n      swap1\n      div\n      0xffffffffffffffffffffffffffffffffffffffff\n      and\n        /* \"contracts/_FileStorage.sol\":4175:4236  addressToFile[msg.sender][_fileId].ownerAddress == msg.sender */\n      0xffffffffffffffffffffffffffffffffffffffff\n      and\n      eq\n        /* \"contracts/_FileStorage.sol\":4154:4295  require(... */\n      tag_276\n      jumpi\n      mload(0x40)\n      0x08c379a000000000000000000000000000000000000000000000000000000000\n      dup2\n      mstore\n      0x04\n      add\n      tag_277\n      swap1\n      tag_278\n      jump\t// in\n    tag_277:\n      mload(0x40)\n      dup1\n      swap2\n      sub\n      swap1\n      revert\n    tag_276:\n        /* \"contracts/_FileStorage.sol\":4341:4354  addressToFile */\n      0x06\n        /* \"contracts/_FileStorage.sol\":4341:4366  addressToFile[msg.sender] */\n      0x00\n        /* \"contracts/_FileStorage.sol\":4355:4365  msg.sender */\n      caller\n        /* \"contracts/_FileStorage.sol\":4341:4366  addressToFile[msg.sender] */\n      0xffffffffffffffffffffffffffffffffffffffff\n      and\n      0xffffffffffffffffffffffffffffffffffffffff\n      and\n      dup2\n      mstore\n      0x20\n      add\n      swap1\n      dup2\n      mstore\n      0x20\n      add\n      0x00\n      keccak256\n        /* \"contracts/_FileStorage.sol\":4367:4374  _fileId */\n      dup3\n        /* \"contracts/_FileStorage.sol\":4341:4375  addressToFile[msg.sender][_fileId] */\n      dup2\n      sload\n      dup2\n      lt\n      tag_279\n      jumpi\n      tag_280\n      tag_136\n      jump\t// in\n    tag_280:\n    tag_279:\n      swap1\n      0x00\n      mstore\n      keccak256(0x00, 0x20)\n      swap1\n      0x09\n      mul\n      add\n        /* \"contracts/_FileStorage.sol\":4341:4384  addressToFile[msg.sender][_fileId].fileHash */\n      0x03\n      add\n      sload\n        /* \"contracts/_FileStorage.sol\":4334:4384  return addressToFile[msg.sender][_fileId].fileHash */\n      swap1\n      pop\n        /* \"contracts/_FileStorage.sol\":4075:4391  function retrieveFile(uint256 _fileId) public view returns (bytes32) {... */\n      swap2\n      swap1\n      pop\n      jump\t// out\n        /* \"contracts/_NodeManager.sol\":229:254  address[] public allNodes */\n    tag_104:\n      0x04\n      dup2\n      dup2\n      sload\n      dup2\n      lt\n      tag_282\n      jumpi\n      0x00\n      dup1\n      revert\n    tag_282:\n      swap1\n      0x00\n      mstore\n      keccak256(0x00, 0x20)\n      add\n      0x00\n      swap2\n      pop\n      sload\n      swap1\n      0x0100\n      exp\n      swap1\n      div\n      0xffffffffffffffffffffffffffffffffffffffff\n      and\n      dup2\n      jump\t// out\n        /* \"contracts/_FileStorage.sol\":5362:5719  function isAddressPresent(... */\n    tag_257:\n        /* \"contracts/_FileStorage.sol\":5497:5501  bool */\n      0x00\n        /* \"contracts/_FileStorage.sol\":5518:5527  uint256 i */\n      dup1\n        /* \"contracts/_FileStorage.sol\":5530:5531  0 */\n      0x00\n        /* \"contracts/_FileStorage.sol\":5518:5531  uint256 i = 0 */\n      swap1\n      pop\n        /* \"contracts/_FileStorage.sol\":5513:5691  for (uint256 i = 0; i < fileStorageNodeAddresses.length; i++) {... */\n    tag_285:\n        /* \"contracts/_FileStorage.sol\":5537:5561  fileStorageNodeAddresses */\n      dup3\n        /* \"contracts/_FileStorage.sol\":5537:5568  fileStorageNodeAddresses.length */\n      mload\n        /* \"contracts/_FileStorage.sol\":5533:5534  i */\n      dup2\n        /* \"contracts/_FileStorage.sol\":5533:5568  i < fileStorageNodeAddresses.length */\n      lt\n        /* \"contracts/_FileStorage.sol\":5513:5691  for (uint256 i = 0; i < fileStorageNodeAddresses.length; i++) {... */\n      iszero\n      tag_286\n      jumpi\n        /* \"contracts/_FileStorage.sol\":5624:5635  nodeAddress */\n      dup4\n        /* \"contracts/_FileStorage.sol\":5593:5635  fileStorageNodeAddresses[i] == nodeAddress */\n      0xffffffffffffffffffffffffffffffffffffffff\n      and\n        /* \"contracts/_FileStorage.sol\":5593:5617  fileStorageNodeAddresses */\n      dup4\n        /* \"contracts/_FileStorage.sol\":5618:5619  i */\n      dup3\n        /* \"contracts/_FileStorage.sol\":5593:5620  fileStorageNodeAddresses[i] */\n      dup2\n      mload\n      dup2\n      lt\n      tag_288\n      jumpi\n      tag_289\n      tag_136\n      jump\t// in\n    tag_289:\n    tag_288:\n      0x20\n      mul\n      0x20\n      add\n      add\n      mload\n        /* \"contracts/_FileStorage.sol\":5593:5635  fileStorageNodeAddresses[i] == nodeAddress */\n      0xffffffffffffffffffffffffffffffffffffffff\n      and\n      sub\n        /* \"contracts/_FileStorage.sol\":5589:5681  if (fileStorageNodeAddresses[i] == nodeAddress) {... */\n      tag_290\n      jumpi\n        /* \"contracts/_FileStorage.sol\":5662:5666  true */\n      0x01\n        /* \"contracts/_FileStorage.sol\":5655:5666  return true */\n      swap2\n      pop\n      pop\n      jump(tag_284)\n        /* \"contracts/_FileStorage.sol\":5589:5681  if (fileStorageNodeAddresses[i] == nodeAddress) {... */\n    tag_290:\n        /* \"contracts/_FileStorage.sol\":5570:5573  i++ */\n      dup1\n      dup1\n      0x01\n      add\n      swap2\n      pop\n      pop\n        /* \"contracts/_FileStorage.sol\":5513:5691  for (uint256 i = 0; i < fileStorageNodeAddresses.length; i++) {... */\n      jump(tag_285)\n    tag_286:\n      pop\n        /* \"contracts/_FileStorage.sol\":5707:5712  false */\n      0x00\n        /* \"contracts/_FileStorage.sol\":5700:5712  return false */\n      swap1\n      pop\n        /* \"contracts/_FileStorage.sol\":5362:5719  function isAddressPresent(... */\n    tag_284:\n      swap3\n      swap2\n      pop\n      pop\n      jump\t// out\n    tag_115:\n      pop\n      dup1\n      sload\n      0x00\n      dup3\n      sstore\n      swap1\n      0x00\n      mstore\n      keccak256(0x00, 0x20)\n      swap1\n      dup2\n      add\n      swap1\n      tag_292\n      swap2\n      swap1\n      tag_293\n      jump\t// in\n    tag_292:\n      pop\n      jump\t// out\n    tag_122:\n      dup3\n      dup1\n      sload\n      dup3\n      dup3\n      sstore\n      swap1\n      0x00\n      mstore\n      keccak256(0x00, 0x20)\n      swap1\n      dup2\n      add\n      swap3\n      dup3\n      iszero\n      tag_294\n      jumpi\n      swap2\n      0x20\n      mul\n      dup3\n      add\n    tag_295:\n      dup3\n      dup2\n      gt\n      iszero\n      tag_296\n      jumpi\n      dup3\n      mload\n      dup3\n      exp(0x0100, 0x00)\n      dup2\n      sload\n      dup2\n      0xffffffffffffffffffffffffffffffffffffffff\n      mul\n      not\n      and\n      swap1\n      dup4\n      0xffffffffffffffffffffffffffffffffffffffff\n      and\n      mul\n      or\n      swap1\n      sstore\n      pop\n      swap2\n      0x20\n      add\n      swap2\n      swap1\n      0x01\n      add\n      swap1\n      jump(tag_295)\n    tag_296:\n    tag_294:\n      pop\n      swap1\n      pop\n      tag_297\n      swap2\n      swap1\n      tag_293\n      jump\t// in\n    tag_297:\n      pop\n      swap1\n      jump\t// out\n    tag_166:\n      mload(0x40)\n      dup1\n      0x40\n      add\n      0x40\n      mstore\n      dup1\n      and(0xffffffffffffffffffffffffffffffffffffffff, 0x00)\n      dup2\n      mstore\n      0x20\n      add\n      0x00\n      dup2\n      mstore\n      pop\n      swap1\n      jump\t// out\n    tag_184:\n      mload(0x40)\n      dup1\n      0x0120\n      add\n      0x40\n      mstore\n      dup1\n      0x00\n      dup2\n      mstore\n      0x20\n      add\n      0x60\n      dup2\n      mstore\n      0x20\n      add\n      0x60\n      dup2\n      mstore\n      0x20\n      add\n      0x00\n      dup1\n      not\n      and\n      dup2\n      mstore\n      0x20\n      add\n      0x00\n      dup2\n      mstore\n      0x20\n      add\n      0x00\n      dup2\n      mstore\n      0x20\n      add\n      and(0xffffffffffffffffffffffffffffffffffffffff, 0x00)\n      dup2\n      mstore\n      0x20\n      add\n      0x60\n      dup2\n      mstore\n      0x20\n      add\n      0x60\n      dup2\n      mstore\n      pop\n      swap1\n      jump\t// out\n    tag_221:\n      dup3\n      dup1\n      sload\n      dup3\n      dup3\n      sstore\n      swap1\n      0x00\n      mstore\n      keccak256(0x00, 0x20)\n      swap1\n      dup2\n      add\n      swap3\n      dup3\n      iszero\n      tag_298\n      jumpi\n      0x00\n      mstore\n      keccak256(0x00, 0x20)\n      swap2\n      dup3\n      add\n    tag_299:\n      dup3\n      dup2\n      gt\n      iszero\n      tag_300\n      jumpi\n      dup3\n      sload\n      dup3\n      sstore\n      swap2\n      0x01\n      add\n      swap2\n      swap1\n      0x01\n      add\n      swap1\n      jump(tag_299)\n    tag_300:\n    tag_298:\n      pop\n      swap1\n      pop\n      tag_301\n      swap2\n      swap1\n      tag_293\n      jump\t// in\n    tag_301:\n      pop\n      swap1\n      jump\t// out\n    tag_234:\n      pop\n      dup1\n      sload\n      tag_302\n      swap1\n      tag_196\n      jump\t// in\n    tag_302:\n      0x00\n      dup3\n      sstore\n      dup1\n      0x1f\n      lt\n      tag_304\n      jumpi\n      pop\n      jump(tag_303)\n    tag_304:\n      0x1f\n      add\n      0x20\n      swap1\n      div\n      swap1\n      0x00\n      mstore\n      keccak256(0x00, 0x20)\n      swap1\n      dup2\n      add\n      swap1\n      tag_305\n      swap2\n      swap1\n      tag_293\n      jump\t// in\n    tag_305:\n    tag_303:\n      pop\n      jump\t// out\n    tag_293:\n    tag_306:\n      dup1\n      dup3\n      gt\n      iszero\n      tag_307\n      jumpi\n      0x00\n      dup2\n      0x00\n      swap1\n      sstore\n      pop\n      0x01\n      add\n      jump(tag_306)\n    tag_307:\n      pop\n      swap1\n      jump\t// out\n        /* \"#utility.yul\":7:82   */\n    tag_308:\n        /* \"#utility.yul\":40:46   */\n      0x00\n        /* \"#utility.yul\":73:75   */\n      0x40\n        /* \"#utility.yul\":67:76   */\n      mload\n        /* \"#utility.yul\":57:76   */\n      swap1\n      pop\n        /* \"#utility.yul\":7:82   */\n      swap1\n      jump\t// out\n        /* \"#utility.yul\":88:205   */\n    tag_309:\n        /* \"#utility.yul\":197:198   */\n      0x00\n        /* \"#utility.yul\":194:195   */\n      dup1\n        /* \"#utility.yul\":187:199   */\n      revert\n        /* \"#utility.yul\":211:328   */\n    tag_310:\n        /* \"#utility.yul\":320:321   */\n      0x00\n        /* \"#utility.yul\":317:318   */\n      dup1\n        /* \"#utility.yul\":310:322   */\n      revert\n        /* \"#utility.yul\":334:451   */\n    tag_311:\n        /* \"#utility.yul\":443:444   */\n      0x00\n        /* \"#utility.yul\":440:441   */\n      dup1\n        /* \"#utility.yul\":433:445   */\n      revert\n        /* \"#utility.yul\":457:574   */\n    tag_312:\n        /* \"#utility.yul\":566:567   */\n      0x00\n        /* \"#utility.yul\":563:564   */\n      dup1\n        /* \"#utility.yul\":556:568   */\n      revert\n        /* \"#utility.yul\":580:682   */\n    tag_313:\n        /* \"#utility.yul\":621:627   */\n      0x00\n        /* \"#utility.yul\":672:674   */\n      0x1f\n        /* \"#utility.yul\":668:675   */\n      not\n        /* \"#utility.yul\":663:665   */\n      0x1f\n        /* \"#utility.yul\":656:661   */\n      dup4\n        /* \"#utility.yul\":652:666   */\n      add\n        /* \"#utility.yul\":648:676   */\n      and\n        /* \"#utility.yul\":638:676   */\n      swap1\n      pop\n        /* \"#utility.yul\":580:682   */\n      swap2\n      swap1\n      pop\n      jump\t// out\n        /* \"#utility.yul\":688:868   */\n    tag_314:\n        /* \"#utility.yul\":736:813   */\n      0x4e487b7100000000000000000000000000000000000000000000000000000000\n        /* \"#utility.yul\":733:734   */\n      0x00\n        /* \"#utility.yul\":726:814   */\n      mstore\n        /* \"#utility.yul\":833:837   */\n      0x41\n        /* \"#utility.yul\":830:831   */\n      0x04\n        /* \"#utility.yul\":823:838   */\n      mstore\n        /* \"#utility.yul\":857:861   */\n      0x24\n        /* \"#utility.yul\":854:855   */\n      0x00\n        /* \"#utility.yul\":847:862   */\n      revert\n        /* \"#utility.yul\":874:1155   */\n    tag_315:\n        /* \"#utility.yul\":957:984   */\n      tag_397\n        /* \"#utility.yul\":979:983   */\n      dup3\n        /* \"#utility.yul\":957:984   */\n      tag_313\n      jump\t// in\n    tag_397:\n        /* \"#utility.yul\":949:955   */\n      dup2\n        /* \"#utility.yul\":945:985   */\n      add\n        /* \"#utility.yul\":1087:1093   */\n      dup2\n        /* \"#utility.yul\":1075:1085   */\n      dup2\n        /* \"#utility.yul\":1072:1094   */\n      lt\n        /* \"#utility.yul\":1051:1069   */\n      0xffffffffffffffff\n        /* \"#utility.yul\":1039:1049   */\n      dup3\n        /* \"#utility.yul\":1036:1070   */\n      gt\n        /* \"#utility.yul\":1033:1095   */\n      or\n        /* \"#utility.yul\":1030:1118   */\n      iszero\n      tag_398\n      jumpi\n        /* \"#utility.yul\":1098:1116   */\n      tag_399\n      tag_314\n      jump\t// in\n    tag_399:\n        /* \"#utility.yul\":1030:1118   */\n    tag_398:\n        /* \"#utility.yul\":1138:1148   */\n      dup1\n        /* \"#utility.yul\":1134:1136   */\n      0x40\n        /* \"#utility.yul\":1127:1149   */\n      mstore\n        /* \"#utility.yul\":917:1155   */\n      pop\n        /* \"#utility.yul\":874:1155   */\n      pop\n      pop\n      jump\t// out\n        /* \"#utility.yul\":1161:1290   */\n    tag_316:\n        /* \"#utility.yul\":1195:1201   */\n      0x00\n        /* \"#utility.yul\":1222:1242   */\n      tag_401\n      tag_308\n      jump\t// in\n    tag_401:\n        /* \"#utility.yul\":1212:1242   */\n      swap1\n      pop\n        /* \"#utility.yul\":1251:1284   */\n      tag_402\n        /* \"#utility.yul\":1279:1283   */\n      dup3\n        /* \"#utility.yul\":1271:1277   */\n      dup3\n        /* \"#utility.yul\":1251:1284   */\n      tag_315\n      jump\t// in\n    tag_402:\n        /* \"#utility.yul\":1161:1290   */\n      swap2\n      swap1\n      pop\n      jump\t// out\n        /* \"#utility.yul\":1296:1604   */\n    tag_317:\n        /* \"#utility.yul\":1358:1362   */\n      0x00\n        /* \"#utility.yul\":1448:1466   */\n      0xffffffffffffffff\n        /* \"#utility.yul\":1440:1446   */\n      dup3\n        /* \"#utility.yul\":1437:1467   */\n      gt\n        /* \"#utility.yul\":1434:1490   */\n      iszero\n      tag_404\n      jumpi\n        /* \"#utility.yul\":1470:1488   */\n      tag_405\n      tag_314\n      jump\t// in\n    tag_405:\n        /* \"#utility.yul\":1434:1490   */\n    tag_404:\n        /* \"#utility.yul\":1508:1537   */\n      tag_406\n        /* \"#utility.yul\":1530:1536   */\n      dup3\n        /* \"#utility.yul\":1508:1537   */\n      tag_313\n      jump\t// in\n    tag_406:\n        /* \"#utility.yul\":1500:1537   */\n      swap1\n      pop\n        /* \"#utility.yul\":1592:1596   */\n      0x20\n        /* \"#utility.yul\":1586:1590   */\n      dup2\n        /* \"#utility.yul\":1582:1597   */\n      add\n        /* \"#utility.yul\":1574:1597   */\n      swap1\n      pop\n        /* \"#utility.yul\":1296:1604   */\n      swap2\n      swap1\n      pop\n      jump\t// out\n        /* \"#utility.yul\":1610:1756   */\n    tag_318:\n        /* \"#utility.yul\":1707:1713   */\n      dup3\n        /* \"#utility.yul\":1702:1705   */\n      dup2\n        /* \"#utility.yul\":1697:1700   */\n      dup4\n        /* \"#utility.yul\":1684:1714   */\n      calldatacopy\n        /* \"#utility.yul\":1748:1749   */\n      0x00\n        /* \"#utility.yul\":1739:1745   */\n      dup4\n        /* \"#utility.yul\":1734:1737   */\n      dup4\n        /* \"#utility.yul\":1730:1746   */\n      add\n        /* \"#utility.yul\":1723:1750   */\n      mstore\n        /* \"#utility.yul\":1610:1756   */\n      pop\n      pop\n      pop\n      jump\t// out\n        /* \"#utility.yul\":1762:2187   */\n    tag_319:\n        /* \"#utility.yul\":1840:1845   */\n      0x00\n        /* \"#utility.yul\":1865:1931   */\n      tag_409\n        /* \"#utility.yul\":1881:1930   */\n      tag_410\n        /* \"#utility.yul\":1923:1929   */\n      dup5\n        /* \"#utility.yul\":1881:1930   */\n      tag_317\n      jump\t// in\n    tag_410:\n        /* \"#utility.yul\":1865:1931   */\n      tag_316\n      jump\t// in\n    tag_409:\n        /* \"#utility.yul\":1856:1931   */\n      swap1\n      pop\n        /* \"#utility.yul\":1954:1960   */\n      dup3\n        /* \"#utility.yul\":1947:1952   */\n      dup2\n        /* \"#utility.yul\":1940:1961   */\n      mstore\n        /* \"#utility.yul\":1992:1996   */\n      0x20\n        /* \"#utility.yul\":1985:1990   */\n      dup2\n        /* \"#utility.yul\":1981:1997   */\n      add\n        /* \"#utility.yul\":2030:2033   */\n      dup5\n        /* \"#utility.yul\":2021:2027   */\n      dup5\n        /* \"#utility.yul\":2016:2019   */\n      dup5\n        /* \"#utility.yul\":2012:2028   */\n      add\n        /* \"#utility.yul\":2009:2034   */\n      gt\n        /* \"#utility.yul\":2006:2118   */\n      iszero\n      tag_411\n      jumpi\n        /* \"#utility.yul\":2037:2116   */\n      tag_412\n      tag_312\n      jump\t// in\n    tag_412:\n        /* \"#utility.yul\":2006:2118   */\n    tag_411:\n        /* \"#utility.yul\":2127:2181   */\n      tag_413\n        /* \"#utility.yul\":2174:2180   */\n      dup5\n        /* \"#utility.yul\":2169:2172   */\n      dup3\n        /* \"#utility.yul\":2164:2167   */\n      dup6\n        /* \"#utility.yul\":2127:2181   */\n      tag_318\n      jump\t// in\n    tag_413:\n        /* \"#utility.yul\":1846:2187   */\n      pop\n        /* \"#utility.yul\":1762:2187   */\n      swap4\n      swap3\n      pop\n      pop\n      pop\n      jump\t// out\n        /* \"#utility.yul\":2207:2547   */\n    tag_320:\n        /* \"#utility.yul\":2263:2268   */\n      0x00\n        /* \"#utility.yul\":2312:2315   */\n      dup3\n        /* \"#utility.yul\":2305:2309   */\n      0x1f\n        /* \"#utility.yul\":2297:2303   */\n      dup4\n        /* \"#utility.yul\":2293:2310   */\n      add\n        /* \"#utility.yul\":2289:2316   */\n      slt\n        /* \"#utility.yul\":2279:2401   */\n      tag_415\n      jumpi\n        /* \"#utility.yul\":2320:2399   */\n      tag_416\n      tag_311\n      jump\t// in\n    tag_416:\n        /* \"#utility.yul\":2279:2401   */\n    tag_415:\n        /* \"#utility.yul\":2437:2443   */\n      dup2\n        /* \"#utility.yul\":2424:2444   */\n      calldataload\n        /* \"#utility.yul\":2462:2541   */\n      tag_417\n        /* \"#utility.yul\":2537:2540   */\n      dup5\n        /* \"#utility.yul\":2529:2535   */\n      dup3\n        /* \"#utility.yul\":2522:2526   */\n      0x20\n        /* \"#utility.yul\":2514:2520   */\n      dup7\n        /* \"#utility.yul\":2510:2527   */\n      add\n        /* \"#utility.yul\":2462:2541   */\n      tag_319\n      jump\t// in\n    tag_417:\n        /* \"#utility.yul\":2453:2541   */\n      swap2\n      pop\n        /* \"#utility.yul\":2269:2547   */\n      pop\n        /* \"#utility.yul\":2207:2547   */\n      swap3\n      swap2\n      pop\n      pop\n      jump\t// out\n        /* \"#utility.yul\":2553:2630   */\n    tag_321:\n        /* \"#utility.yul\":2590:2597   */\n      0x00\n        /* \"#utility.yul\":2619:2624   */\n      dup2\n        /* \"#utility.yul\":2608:2624   */\n      swap1\n      pop\n        /* \"#utility.yul\":2553:2630   */\n      swap2\n      swap1\n      pop\n      jump\t// out\n        /* \"#utility.yul\":2636:2758   */\n    tag_322:\n        /* \"#utility.yul\":2709:2733   */\n      tag_420\n        /* \"#utility.yul\":2727:2732   */\n      dup2\n        /* \"#utility.yul\":2709:2733   */\n      tag_321\n      jump\t// in\n    tag_420:\n        /* \"#utility.yul\":2702:2707   */\n      dup2\n        /* \"#utility.yul\":2699:2734   */\n      eq\n        /* \"#utility.yul\":2689:2752   */\n      tag_421\n      jumpi\n        /* \"#utility.yul\":2748:2749   */\n      0x00\n        /* \"#utility.yul\":2745:2746   */\n      dup1\n        /* \"#utility.yul\":2738:2750   */\n      revert\n        /* \"#utility.yul\":2689:2752   */\n    tag_421:\n        /* \"#utility.yul\":2636:2758   */\n      pop\n      jump\t// out\n        /* \"#utility.yul\":2764:2903   */\n    tag_323:\n        /* \"#utility.yul\":2810:2815   */\n      0x00\n        /* \"#utility.yul\":2848:2854   */\n      dup2\n        /* \"#utility.yul\":2835:2855   */\n      calldataload\n        /* \"#utility.yul\":2826:2855   */\n      swap1\n      pop\n        /* \"#utility.yul\":2864:2897   */\n      tag_423\n        /* \"#utility.yul\":2891:2896   */\n      dup2\n        /* \"#utility.yul\":2864:2897   */\n      tag_322\n      jump\t// in\n    tag_423:\n        /* \"#utility.yul\":2764:2903   */\n      swap3\n      swap2\n      pop\n      pop\n      jump\t// out\n        /* \"#utility.yul\":2909:3220   */\n    tag_324:\n        /* \"#utility.yul\":2986:2990   */\n      0x00\n        /* \"#utility.yul\":3076:3094   */\n      0xffffffffffffffff\n        /* \"#utility.yul\":3068:3074   */\n      dup3\n        /* \"#utility.yul\":3065:3095   */\n      gt\n        /* \"#utility.yul\":3062:3118   */\n      iszero\n      tag_425\n      jumpi\n        /* \"#utility.yul\":3098:3116   */\n      tag_426\n      tag_314\n      jump\t// in\n    tag_426:\n        /* \"#utility.yul\":3062:3118   */\n    tag_425:\n        /* \"#utility.yul\":3148:3152   */\n      0x20\n        /* \"#utility.yul\":3140:3146   */\n      dup3\n        /* \"#utility.yul\":3136:3153   */\n      mul\n        /* \"#utility.yul\":3128:3153   */\n      swap1\n      pop\n        /* \"#utility.yul\":3208:3212   */\n      0x20\n        /* \"#utility.yul\":3202:3206   */\n      dup2\n        /* \"#utility.yul\":3198:3213   */\n      add\n        /* \"#utility.yul\":3190:3213   */\n      swap1\n      pop\n        /* \"#utility.yul\":2909:3220   */\n      swap2\n      swap1\n      pop\n      jump\t// out\n        /* \"#utility.yul\":3226:3343   */\n    tag_325:\n        /* \"#utility.yul\":3335:3336   */\n      0x00\n        /* \"#utility.yul\":3332:3333   */\n      dup1\n        /* \"#utility.yul\":3325:3337   */\n      revert\n        /* \"#utility.yul\":3349:3475   */\n    tag_326:\n        /* \"#utility.yul\":3386:3393   */\n      0x00\n        /* \"#utility.yul\":3426:3468   */\n      0xffffffffffffffffffffffffffffffffffffffff\n        /* \"#utility.yul\":3419:3424   */\n      dup3\n        /* \"#utility.yul\":3415:3469   */\n      and\n        /* \"#utility.yul\":3404:3469   */\n      swap1\n      pop\n        /* \"#utility.yul\":3349:3475   */\n      swap2\n      swap1\n      pop\n      jump\t// out\n        /* \"#utility.yul\":3481:3577   */\n    tag_327:\n        /* \"#utility.yul\":3518:3525   */\n      0x00\n        /* \"#utility.yul\":3547:3571   */\n      tag_430\n        /* \"#utility.yul\":3565:3570   */\n      dup3\n        /* \"#utility.yul\":3547:3571   */\n      tag_326\n      jump\t// in\n    tag_430:\n        /* \"#utility.yul\":3536:3571   */\n      swap1\n      pop\n        /* \"#utility.yul\":3481:3577   */\n      swap2\n      swap1\n      pop\n      jump\t// out\n        /* \"#utility.yul\":3583:3705   */\n    tag_328:\n        /* \"#utility.yul\":3656:3680   */\n      tag_432\n        /* \"#utility.yul\":3674:3679   */\n      dup2\n        /* \"#utility.yul\":3656:3680   */\n      tag_327\n      jump\t// in\n    tag_432:\n        /* \"#utility.yul\":3649:3654   */\n      dup2\n        /* \"#utility.yul\":3646:3681   */\n      eq\n        /* \"#utility.yul\":3636:3699   */\n      tag_433\n      jumpi\n        /* \"#utility.yul\":3695:3696   */\n      0x00\n        /* \"#utility.yul\":3692:3693   */\n      dup1\n        /* \"#utility.yul\":3685:3697   */\n      revert\n        /* \"#utility.yul\":3636:3699   */\n    tag_433:\n        /* \"#utility.yul\":3583:3705   */\n      pop\n      jump\t// out\n        /* \"#utility.yul\":3711:3850   */\n    tag_329:\n        /* \"#utility.yul\":3757:3762   */\n      0x00\n        /* \"#utility.yul\":3795:3801   */\n      dup2\n        /* \"#utility.yul\":3782:3802   */\n      calldataload\n        /* \"#utility.yul\":3773:3802   */\n      swap1\n      pop\n        /* \"#utility.yul\":3811:3844   */\n      tag_435\n        /* \"#utility.yul\":3838:3843   */\n      dup2\n        /* \"#utility.yul\":3811:3844   */\n      tag_328\n      jump\t// in\n    tag_435:\n        /* \"#utility.yul\":3711:3850   */\n      swap3\n      swap2\n      pop\n      pop\n      jump\t// out\n        /* \"#utility.yul\":3873:4583   */\n    tag_330:\n        /* \"#utility.yul\":3969:3974   */\n      0x00\n        /* \"#utility.yul\":3994:4075   */\n      tag_437\n        /* \"#utility.yul\":4010:4074   */\n      tag_438\n        /* \"#utility.yul\":4067:4073   */\n      dup5\n        /* \"#utility.yul\":4010:4074   */\n      tag_324\n      jump\t// in\n    tag_438:\n        /* \"#utility.yul\":3994:4075   */\n      tag_316\n      jump\t// in\n    tag_437:\n        /* \"#utility.yul\":3985:4075   */\n      swap1\n      pop\n        /* \"#utility.yul\":4095:4100   */\n      dup1\n        /* \"#utility.yul\":4124:4130   */\n      dup4\n        /* \"#utility.yul\":4117:4122   */\n      dup3\n        /* \"#utility.yul\":4110:4131   */\n      mstore\n        /* \"#utility.yul\":4158:4162   */\n      0x20\n        /* \"#utility.yul\":4151:4156   */\n      dup3\n        /* \"#utility.yul\":4147:4163   */\n      add\n        /* \"#utility.yul\":4140:4163   */\n      swap1\n      pop\n        /* \"#utility.yul\":4211:4215   */\n      0x20\n        /* \"#utility.yul\":4203:4209   */\n      dup5\n        /* \"#utility.yul\":4199:4216   */\n      mul\n        /* \"#utility.yul\":4191:4197   */\n      dup4\n        /* \"#utility.yul\":4187:4217   */\n      add\n        /* \"#utility.yul\":4240:4243   */\n      dup6\n        /* \"#utility.yul\":4232:4238   */\n      dup2\n        /* \"#utility.yul\":4229:4244   */\n      gt\n        /* \"#utility.yul\":4226:4348   */\n      iszero\n      tag_439\n      jumpi\n        /* \"#utility.yul\":4259:4338   */\n      tag_440\n      tag_325\n      jump\t// in\n    tag_440:\n        /* \"#utility.yul\":4226:4348   */\n    tag_439:\n        /* \"#utility.yul\":4374:4380   */\n      dup4\n        /* \"#utility.yul\":4357:4577   */\n    tag_441:\n        /* \"#utility.yul\":4391:4397   */\n      dup2\n        /* \"#utility.yul\":4386:4389   */\n      dup2\n        /* \"#utility.yul\":4383:4398   */\n      lt\n        /* \"#utility.yul\":4357:4577   */\n      iszero\n      tag_443\n      jumpi\n        /* \"#utility.yul\":4466:4469   */\n      dup1\n        /* \"#utility.yul\":4495:4532   */\n      tag_444\n        /* \"#utility.yul\":4528:4531   */\n      dup9\n        /* \"#utility.yul\":4516:4526   */\n      dup3\n        /* \"#utility.yul\":4495:4532   */\n      tag_329\n      jump\t// in\n    tag_444:\n        /* \"#utility.yul\":4490:4493   */\n      dup5\n        /* \"#utility.yul\":4483:4533   */\n      mstore\n        /* \"#utility.yul\":4562:4566   */\n      0x20\n        /* \"#utility.yul\":4557:4560   */\n      dup5\n        /* \"#utility.yul\":4553:4567   */\n      add\n        /* \"#utility.yul\":4546:4567   */\n      swap4\n      pop\n        /* \"#utility.yul\":4433:4577   */\n      pop\n        /* \"#utility.yul\":4417:4421   */\n      0x20\n        /* \"#utility.yul\":4412:4415   */\n      dup2\n        /* \"#utility.yul\":4408:4422   */\n      add\n        /* \"#utility.yul\":4401:4422   */\n      swap1\n      pop\n        /* \"#utility.yul\":4357:4577   */\n      jump(tag_441)\n    tag_443:\n        /* \"#utility.yul\":4361:4382   */\n      pop\n        /* \"#utility.yul\":3975:4583   */\n      pop\n      pop\n        /* \"#utility.yul\":3873:4583   */\n      swap4\n      swap3\n      pop\n      pop\n      pop\n      jump\t// out\n        /* \"#utility.yul\":4606:4976   */\n    tag_331:\n        /* \"#utility.yul\":4677:4682   */\n      0x00\n        /* \"#utility.yul\":4726:4729   */\n      dup3\n        /* \"#utility.yul\":4719:4723   */\n      0x1f\n        /* \"#utility.yul\":4711:4717   */\n      dup4\n        /* \"#utility.yul\":4707:4724   */\n      add\n        /* \"#utility.yul\":4703:4730   */\n      slt\n        /* \"#utility.yul\":4693:4815   */\n      tag_446\n      jumpi\n        /* \"#utility.yul\":4734:4813   */\n      tag_447\n      tag_311\n      jump\t// in\n    tag_447:\n        /* \"#utility.yul\":4693:4815   */\n    tag_446:\n        /* \"#utility.yul\":4851:4857   */\n      dup2\n        /* \"#utility.yul\":4838:4858   */\n      calldataload\n        /* \"#utility.yul\":4876:4970   */\n      tag_448\n        /* \"#utility.yul\":4966:4969   */\n      dup5\n        /* \"#utility.yul\":4958:4964   */\n      dup3\n        /* \"#utility.yul\":4951:4955   */\n      0x20\n        /* \"#utility.yul\":4943:4949   */\n      dup7\n        /* \"#utility.yul\":4939:4956   */\n      add\n        /* \"#utility.yul\":4876:4970   */\n      tag_330\n      jump\t// in\n    tag_448:\n        /* \"#utility.yul\":4867:4970   */\n      swap2\n      pop\n        /* \"#utility.yul\":4683:4976   */\n      pop\n        /* \"#utility.yul\":4606:4976   */\n      swap3\n      swap2\n      pop\n      pop\n      jump\t// out\n        /* \"#utility.yul\":4982:5059   */\n    tag_332:\n        /* \"#utility.yul\":5019:5026   */\n      0x00\n        /* \"#utility.yul\":5048:5053   */\n      dup2\n        /* \"#utility.yul\":5037:5053   */\n      swap1\n      pop\n        /* \"#utility.yul\":4982:5059   */\n      swap2\n      swap1\n      pop\n      jump\t// out\n        /* \"#utility.yul\":5065:5187   */\n    tag_333:\n        /* \"#utility.yul\":5138:5162   */\n      tag_451\n        /* \"#utility.yul\":5156:5161   */\n      dup2\n        /* \"#utility.yul\":5138:5162   */\n      tag_332\n      jump\t// in\n    tag_451:\n        /* \"#utility.yul\":5131:5136   */\n      dup2\n        /* \"#utility.yul\":5128:5163   */\n      eq\n        /* \"#utility.yul\":5118:5181   */\n      tag_452\n      jumpi\n        /* \"#utility.yul\":5177:5178   */\n      0x00\n        /* \"#utility.yul\":5174:5175   */\n      dup1\n        /* \"#utility.yul\":5167:5179   */\n      revert\n        /* \"#utility.yul\":5118:5181   */\n    tag_452:\n        /* \"#utility.yul\":5065:5187   */\n      pop\n      jump\t// out\n        /* \"#utility.yul\":5193:5332   */\n    tag_334:\n        /* \"#utility.yul\":5239:5244   */\n      0x00\n        /* \"#utility.yul\":5277:5283   */\n      dup2\n        /* \"#utility.yul\":5264:5284   */\n      calldataload\n        /* \"#utility.yul\":5255:5284   */\n      swap1\n      pop\n        /* \"#utility.yul\":5293:5326   */\n      tag_454\n        /* \"#utility.yul\":5320:5325   */\n      dup2\n        /* \"#utility.yul\":5293:5326   */\n      tag_333\n      jump\t// in\n    tag_454:\n        /* \"#utility.yul\":5193:5332   */\n      swap3\n      swap2\n      pop\n      pop\n      jump\t// out\n        /* \"#utility.yul\":5338:7291   */\n    tag_27:\n        /* \"#utility.yul\":5506:5512   */\n      0x00\n        /* \"#utility.yul\":5514:5520   */\n      dup1\n        /* \"#utility.yul\":5522:5528   */\n      0x00\n        /* \"#utility.yul\":5530:5536   */\n      dup1\n        /* \"#utility.yul\":5538:5544   */\n      0x00\n        /* \"#utility.yul\":5546:5552   */\n      dup1\n        /* \"#utility.yul\":5554:5560   */\n      0x00\n        /* \"#utility.yul\":5603:5606   */\n      0xe0\n        /* \"#utility.yul\":5591:5600   */\n      dup9\n        /* \"#utility.yul\":5582:5589   */\n      dup11\n        /* \"#utility.yul\":5578:5601   */\n      sub\n        /* \"#utility.yul\":5574:5607   */\n      slt\n        /* \"#utility.yul\":5571:5691   */\n      iszero\n      tag_456\n      jumpi\n        /* \"#utility.yul\":5610:5689   */\n      tag_457\n      tag_309\n      jump\t// in\n    tag_457:\n        /* \"#utility.yul\":5571:5691   */\n    tag_456:\n        /* \"#utility.yul\":5758:5759   */\n      0x00\n        /* \"#utility.yul\":5747:5756   */\n      dup9\n        /* \"#utility.yul\":5743:5760   */\n      add\n        /* \"#utility.yul\":5730:5761   */\n      calldataload\n        /* \"#utility.yul\":5788:5806   */\n      0xffffffffffffffff\n        /* \"#utility.yul\":5780:5786   */\n      dup2\n        /* \"#utility.yul\":5777:5807   */\n      gt\n        /* \"#utility.yul\":5774:5891   */\n      iszero\n      tag_458\n      jumpi\n        /* \"#utility.yul\":5810:5889   */\n      tag_459\n      tag_310\n      jump\t// in\n    tag_459:\n        /* \"#utility.yul\":5774:5891   */\n    tag_458:\n        /* \"#utility.yul\":5915:5978   */\n      tag_460\n        /* \"#utility.yul\":5970:5977   */\n      dup11\n        /* \"#utility.yul\":5961:5967   */\n      dup3\n        /* \"#utility.yul\":5950:5959   */\n      dup12\n        /* \"#utility.yul\":5946:5968   */\n      add\n        /* \"#utility.yul\":5915:5978   */\n      tag_320\n      jump\t// in\n    tag_460:\n        /* \"#utility.yul\":5905:5978   */\n      swap8\n      pop\n        /* \"#utility.yul\":5701:5988   */\n      pop\n        /* \"#utility.yul\":6055:6057   */\n      0x20\n        /* \"#utility.yul\":6044:6053   */\n      dup9\n        /* \"#utility.yul\":6040:6058   */\n      add\n        /* \"#utility.yul\":6027:6059   */\n      calldataload\n        /* \"#utility.yul\":6086:6104   */\n      0xffffffffffffffff\n        /* \"#utility.yul\":6078:6084   */\n      dup2\n        /* \"#utility.yul\":6075:6105   */\n      gt\n        /* \"#utility.yul\":6072:6189   */\n      iszero\n      tag_461\n      jumpi\n        /* \"#utility.yul\":6108:6187   */\n      tag_462\n      tag_310\n      jump\t// in\n    tag_462:\n        /* \"#utility.yul\":6072:6189   */\n    tag_461:\n        /* \"#utility.yul\":6213:6276   */\n      tag_463\n        /* \"#utility.yul\":6268:6275   */\n      dup11\n        /* \"#utility.yul\":6259:6265   */\n      dup3\n        /* \"#utility.yul\":6248:6257   */\n      dup12\n        /* \"#utility.yul\":6244:6266   */\n      add\n        /* \"#utility.yul\":6213:6276   */\n      tag_320\n      jump\t// in\n    tag_463:\n        /* \"#utility.yul\":6203:6276   */\n      swap7\n      pop\n        /* \"#utility.yul\":5998:6286   */\n      pop\n        /* \"#utility.yul\":6325:6327   */\n      0x40\n        /* \"#utility.yul\":6351:6404   */\n      tag_464\n        /* \"#utility.yul\":6396:6403   */\n      dup11\n        /* \"#utility.yul\":6387:6393   */\n      dup3\n        /* \"#utility.yul\":6376:6385   */\n      dup12\n        /* \"#utility.yul\":6372:6394   */\n      add\n        /* \"#utility.yul\":6351:6404   */\n      tag_323\n      jump\t// in\n    tag_464:\n        /* \"#utility.yul\":6341:6404   */\n      swap6\n      pop\n        /* \"#utility.yul\":6296:6414   */\n      pop\n        /* \"#utility.yul\":6481:6483   */\n      0x60\n        /* \"#utility.yul\":6470:6479   */\n      dup9\n        /* \"#utility.yul\":6466:6484   */\n      add\n        /* \"#utility.yul\":6453:6485   */\n      calldataload\n        /* \"#utility.yul\":6512:6530   */\n      0xffffffffffffffff\n        /* \"#utility.yul\":6504:6510   */\n      dup2\n        /* \"#utility.yul\":6501:6531   */\n      gt\n        /* \"#utility.yul\":6498:6615   */\n      iszero\n      tag_465\n      jumpi\n        /* \"#utility.yul\":6534:6613   */\n      tag_466\n      tag_310\n      jump\t// in\n    tag_466:\n        /* \"#utility.yul\":6498:6615   */\n    tag_465:\n        /* \"#utility.yul\":6639:6702   */\n      tag_467\n        /* \"#utility.yul\":6694:6701   */\n      dup11\n        /* \"#utility.yul\":6685:6691   */\n      dup3\n        /* \"#utility.yul\":6674:6683   */\n      dup12\n        /* \"#utility.yul\":6670:6692   */\n      add\n        /* \"#utility.yul\":6639:6702   */\n      tag_320\n      jump\t// in\n    tag_467:\n        /* \"#utility.yul\":6629:6702   */\n      swap5\n      pop\n        /* \"#utility.yul\":6424:6712   */\n      pop\n        /* \"#utility.yul\":6779:6782   */\n      0x80\n        /* \"#utility.yul\":6768:6777   */\n      dup9\n        /* \"#utility.yul\":6764:6783   */\n      add\n        /* \"#utility.yul\":6751:6784   */\n      calldataload\n        /* \"#utility.yul\":6811:6829   */\n      0xffffffffffffffff\n        /* \"#utility.yul\":6803:6809   */\n      dup2\n        /* \"#utility.yul\":6800:6830   */\n      gt\n        /* \"#utility.yul\":6797:6914   */\n      iszero\n      tag_468\n      jumpi\n        /* \"#utility.yul\":6833:6912   */\n      tag_469\n      tag_310\n      jump\t// in\n    tag_469:\n        /* \"#utility.yul\":6797:6914   */\n    tag_468:\n        /* \"#utility.yul\":6938:7016   */\n      tag_470\n        /* \"#utility.yul\":7008:7015   */\n      dup11\n        /* \"#utility.yul\":6999:7005   */\n      dup3\n        /* \"#utility.yul\":6988:6997   */\n      dup12\n        /* \"#utility.yul\":6984:7006   */\n      add\n        /* \"#utility.yul\":6938:7016   */\n      tag_331\n      jump\t// in\n    tag_470:\n        /* \"#utility.yul\":6928:7016   */\n      swap4\n      pop\n        /* \"#utility.yul\":6722:7026   */\n      pop\n        /* \"#utility.yul\":7065:7068   */\n      0xa0\n        /* \"#utility.yul\":7092:7145   */\n      tag_471\n        /* \"#utility.yul\":7137:7144   */\n      dup11\n        /* \"#utility.yul\":7128:7134   */\n      dup3\n        /* \"#utility.yul\":7117:7126   */\n      dup12\n        /* \"#utility.yul\":7113:7135   */\n      add\n        /* \"#utility.yul\":7092:7145   */\n      tag_334\n      jump\t// in\n    tag_471:\n        /* \"#utility.yul\":7082:7145   */\n      swap3\n      pop\n        /* \"#utility.yul\":7036:7155   */\n      pop\n        /* \"#utility.yul\":7194:7197   */\n      0xc0\n        /* \"#utility.yul\":7221:7274   */\n      tag_472\n        /* \"#utility.yul\":7266:7273   */\n      dup11\n        /* \"#utility.yul\":7257:7263   */\n      dup3\n        /* \"#utility.yul\":7246:7255   */\n      dup12\n        /* \"#utility.yul\":7242:7264   */\n      add\n        /* \"#utility.yul\":7221:7274   */\n      tag_334\n      jump\t// in\n    tag_472:\n        /* \"#utility.yul\":7211:7274   */\n      swap2\n      pop\n        /* \"#utility.yul\":7165:7284   */\n      pop\n        /* \"#utility.yul\":5338:7291   */\n      swap3\n      swap6\n      swap9\n      swap2\n      swap5\n      swap8\n      pop\n      swap3\n      swap6\n      pop\n      jump\t// out\n        /* \"#utility.yul\":7297:7771   */\n    tag_31:\n        /* \"#utility.yul\":7365:7371   */\n      0x00\n        /* \"#utility.yul\":7373:7379   */\n      dup1\n        /* \"#utility.yul\":7422:7424   */\n      0x40\n        /* \"#utility.yul\":7410:7419   */\n      dup4\n        /* \"#utility.yul\":7401:7408   */\n      dup6\n        /* \"#utility.yul\":7397:7420   */\n      sub\n        /* \"#utility.yul\":7393:7425   */\n      slt\n        /* \"#utility.yul\":7390:7509   */\n      iszero\n      tag_474\n      jumpi\n        /* \"#utility.yul\":7428:7507   */\n      tag_475\n      tag_309\n      jump\t// in\n    tag_475:\n        /* \"#utility.yul\":7390:7509   */\n    tag_474:\n        /* \"#utility.yul\":7548:7549   */\n      0x00\n        /* \"#utility.yul\":7573:7626   */\n      tag_476\n        /* \"#utility.yul\":7618:7625   */\n      dup6\n        /* \"#utility.yul\":7609:7615   */\n      dup3\n        /* \"#utility.yul\":7598:7607   */\n      dup7\n        /* \"#utility.yul\":7594:7616   */\n      add\n        /* \"#utility.yul\":7573:7626   */\n      tag_329\n      jump\t// in\n    tag_476:\n        /* \"#utility.yul\":7563:7626   */\n      swap3\n      pop\n        /* \"#utility.yul\":7519:7636   */\n      pop\n        /* \"#utility.yul\":7675:7677   */\n      0x20\n        /* \"#utility.yul\":7701:7754   */\n      tag_477\n        /* \"#utility.yul\":7746:7753   */\n      dup6\n        /* \"#utility.yul\":7737:7743   */\n      dup3\n        /* \"#utility.yul\":7726:7735   */\n      dup7\n        /* \"#utility.yul\":7722:7744   */\n      add\n        /* \"#utility.yul\":7701:7754   */\n      tag_334\n      jump\t// in\n    tag_477:\n        /* \"#utility.yul\":7691:7754   */\n      swap2\n      pop\n        /* \"#utility.yul\":7646:7764   */\n      pop\n        /* \"#utility.yul\":7297:7771   */\n      swap3\n      pop\n      swap3\n      swap1\n      pop\n      jump\t// out\n        /* \"#utility.yul\":7777:8106   */\n    tag_35:\n        /* \"#utility.yul\":7836:7842   */\n      0x00\n        /* \"#utility.yul\":7885:7887   */\n      0x20\n        /* \"#utility.yul\":7873:7882   */\n      dup3\n        /* \"#utility.yul\":7864:7871   */\n      dup5\n        /* \"#utility.yul\":7860:7883   */\n      sub\n        /* \"#utility.yul\":7856:7888   */\n      slt\n        /* \"#utility.yul\":7853:7972   */\n      iszero\n      tag_479\n      jumpi\n        /* \"#utility.yul\":7891:7970   */\n      tag_480\n      tag_309\n      jump\t// in\n    tag_480:\n        /* \"#utility.yul\":7853:7972   */\n    tag_479:\n        /* \"#utility.yul\":8011:8012   */\n      0x00\n        /* \"#utility.yul\":8036:8089   */\n      tag_481\n        /* \"#utility.yul\":8081:8088   */\n      dup5\n        /* \"#utility.yul\":8072:8078   */\n      dup3\n        /* \"#utility.yul\":8061:8070   */\n      dup6\n        /* \"#utility.yul\":8057:8079   */\n      add\n        /* \"#utility.yul\":8036:8089   */\n      tag_329\n      jump\t// in\n    tag_481:\n        /* \"#utility.yul\":8026:8089   */\n      swap2\n      pop\n        /* \"#utility.yul\":7982:8099   */\n      pop\n        /* \"#utility.yul\":7777:8106   */\n      swap3\n      swap2\n      pop\n      pop\n      jump\t// out\n        /* \"#utility.yul\":8112:8230   */\n    tag_335:\n        /* \"#utility.yul\":8199:8223   */\n      tag_483\n        /* \"#utility.yul\":8217:8222   */\n      dup2\n        /* \"#utility.yul\":8199:8223   */\n      tag_327\n      jump\t// in\n    tag_483:\n        /* \"#utility.yul\":8194:8197   */\n      dup3\n        /* \"#utility.yul\":8187:8224   */\n      mstore\n        /* \"#utility.yul\":8112:8230   */\n      pop\n      pop\n      jump\t// out\n        /* \"#utility.yul\":8236:8354   */\n    tag_336:\n        /* \"#utility.yul\":8323:8347   */\n      tag_485\n        /* \"#utility.yul\":8341:8346   */\n      dup2\n        /* \"#utility.yul\":8323:8347   */\n      tag_332\n      jump\t// in\n    tag_485:\n        /* \"#utility.yul\":8318:8321   */\n      dup3\n        /* \"#utility.yul\":8311:8348   */\n      mstore\n        /* \"#utility.yul\":8236:8354   */\n      pop\n      pop\n      jump\t// out\n        /* \"#utility.yul\":8360:8692   */\n    tag_38:\n        /* \"#utility.yul\":8481:8485   */\n      0x00\n        /* \"#utility.yul\":8519:8521   */\n      0x40\n        /* \"#utility.yul\":8508:8517   */\n      dup3\n        /* \"#utility.yul\":8504:8522   */\n      add\n        /* \"#utility.yul\":8496:8522   */\n      swap1\n      pop\n        /* \"#utility.yul\":8532:8603   */\n      tag_487\n        /* \"#utility.yul\":8600:8601   */\n      0x00\n        /* \"#utility.yul\":8589:8598   */\n      dup4\n        /* \"#utility.yul\":8585:8602   */\n      add\n        /* \"#utility.yul\":8576:8582   */\n      dup6\n        /* \"#utility.yul\":8532:8603   */\n      tag_335\n      jump\t// in\n    tag_487:\n        /* \"#utility.yul\":8613:8685   */\n      tag_488\n        /* \"#utility.yul\":8681:8683   */\n      0x20\n        /* \"#utility.yul\":8670:8679   */\n      dup4\n        /* \"#utility.yul\":8666:8684   */\n      add\n        /* \"#utility.yul\":8657:8663   */\n      dup5\n        /* \"#utility.yul\":8613:8685   */\n      tag_336\n      jump\t// in\n    tag_488:\n        /* \"#utility.yul\":8360:8692   */\n      swap4\n      swap3\n      pop\n      pop\n      pop\n      jump\t// out\n        /* \"#utility.yul\":8698:9019   */\n    tag_337:\n        /* \"#utility.yul\":8785:8789   */\n      0x00\n        /* \"#utility.yul\":8875:8893   */\n      0xffffffffffffffff\n        /* \"#utility.yul\":8867:8873   */\n      dup3\n        /* \"#utility.yul\":8864:8894   */\n      gt\n        /* \"#utility.yul\":8861:8917   */\n      iszero\n      tag_490\n      jumpi\n        /* \"#utility.yul\":8897:8915   */\n      tag_491\n      tag_314\n      jump\t// in\n    tag_491:\n        /* \"#utility.yul\":8861:8917   */\n    tag_490:\n        /* \"#utility.yul\":8947:8951   */\n      0x20\n        /* \"#utility.yul\":8939:8945   */\n      dup3\n        /* \"#utility.yul\":8935:8952   */\n      mul\n        /* \"#utility.yul\":8927:8952   */\n      swap1\n      pop\n        /* \"#utility.yul\":9007:9011   */\n      0x20\n        /* \"#utility.yul\":9001:9005   */\n      dup2\n        /* \"#utility.yul\":8997:9012   */\n      add\n        /* \"#utility.yul\":8989:9012   */\n      swap1\n      pop\n        /* \"#utility.yul\":8698:9019   */\n      swap2\n      swap1\n      pop\n      jump\t// out\n        /* \"#utility.yul\":9041:9986   */\n    tag_338:\n        /* \"#utility.yul\":9147:9152   */\n      0x00\n        /* \"#utility.yul\":9172:9263   */\n      tag_493\n        /* \"#utility.yul\":9188:9262   */\n      tag_494\n        /* \"#utility.yul\":9255:9261   */\n      dup5\n        /* \"#utility.yul\":9188:9262   */\n      tag_337\n      jump\t// in\n    tag_494:\n        /* \"#utility.yul\":9172:9263   */\n      tag_316\n      jump\t// in\n    tag_493:\n        /* \"#utility.yul\":9163:9263   */\n      swap1\n      pop\n        /* \"#utility.yul\":9283:9288   */\n      dup1\n        /* \"#utility.yul\":9312:9318   */\n      dup4\n        /* \"#utility.yul\":9305:9310   */\n      dup3\n        /* \"#utility.yul\":9298:9319   */\n      mstore\n        /* \"#utility.yul\":9346:9350   */\n      0x20\n        /* \"#utility.yul\":9339:9344   */\n      dup3\n        /* \"#utility.yul\":9335:9351   */\n      add\n        /* \"#utility.yul\":9328:9351   */\n      swap1\n      pop\n        /* \"#utility.yul\":9399:9403   */\n      0x20\n        /* \"#utility.yul\":9391:9397   */\n      dup5\n        /* \"#utility.yul\":9387:9404   */\n      mul\n        /* \"#utility.yul\":9379:9385   */\n      dup4\n        /* \"#utility.yul\":9375:9405   */\n      add\n        /* \"#utility.yul\":9428:9431   */\n      dup6\n        /* \"#utility.yul\":9420:9426   */\n      dup2\n        /* \"#utility.yul\":9417:9432   */\n      gt\n        /* \"#utility.yul\":9414:9536   */\n      iszero\n      tag_495\n      jumpi\n        /* \"#utility.yul\":9447:9526   */\n      tag_496\n      tag_325\n      jump\t// in\n    tag_496:\n        /* \"#utility.yul\":9414:9536   */\n    tag_495:\n        /* \"#utility.yul\":9562:9568   */\n      dup4\n        /* \"#utility.yul\":9545:9980   */\n    tag_497:\n        /* \"#utility.yul\":9579:9585   */\n      dup2\n        /* \"#utility.yul\":9574:9577   */\n      dup2\n        /* \"#utility.yul\":9571:9586   */\n      lt\n        /* \"#utility.yul\":9545:9980   */\n      iszero\n      tag_499\n      jumpi\n        /* \"#utility.yul\":9668:9671   */\n      dup1\n        /* \"#utility.yul\":9655:9672   */\n      calldataload\n        /* \"#utility.yul\":9704:9722   */\n      0xffffffffffffffff\n        /* \"#utility.yul\":9691:9702   */\n      dup2\n        /* \"#utility.yul\":9688:9723   */\n      gt\n        /* \"#utility.yul\":9685:9807   */\n      iszero\n      tag_500\n      jumpi\n        /* \"#utility.yul\":9726:9805   */\n      tag_501\n      tag_311\n      jump\t// in\n    tag_501:\n        /* \"#utility.yul\":9685:9807   */\n    tag_500:\n        /* \"#utility.yul\":9850:9861   */\n      dup1\n        /* \"#utility.yul\":9842:9848   */\n      dup7\n        /* \"#utility.yul\":9838:9862   */\n      add\n        /* \"#utility.yul\":9888:9935   */\n      tag_502\n        /* \"#utility.yul\":9931:9934   */\n      dup10\n        /* \"#utility.yul\":9919:9929   */\n      dup3\n        /* \"#utility.yul\":9888:9935   */\n      tag_320\n      jump\t// in\n    tag_502:\n        /* \"#utility.yul\":9883:9886   */\n      dup6\n        /* \"#utility.yul\":9876:9936   */\n      mstore\n        /* \"#utility.yul\":9965:9969   */\n      0x20\n        /* \"#utility.yul\":9960:9963   */\n      dup6\n        /* \"#utility.yul\":9956:9970   */\n      add\n        /* \"#utility.yul\":9949:9970   */\n      swap5\n      pop\n        /* \"#utility.yul\":9621:9980   */\n      pop\n      pop\n        /* \"#utility.yul\":9605:9609   */\n      0x20\n        /* \"#utility.yul\":9600:9603   */\n      dup2\n        /* \"#utility.yul\":9596:9610   */\n      add\n        /* \"#utility.yul\":9589:9610   */\n      swap1\n      pop\n        /* \"#utility.yul\":9545:9980   */\n      jump(tag_497)\n    tag_499:\n        /* \"#utility.yul\":9549:9570   */\n      pop\n        /* \"#utility.yul\":9153:9986   */\n      pop\n      pop\n        /* \"#utility.yul\":9041:9986   */\n      swap4\n      swap3\n      pop\n      pop\n      pop\n      jump\t// out\n        /* \"#utility.yul\":10008:10398   */\n    tag_339:\n        /* \"#utility.yul\":10089:10094   */\n      0x00\n        /* \"#utility.yul\":10138:10141   */\n      dup3\n        /* \"#utility.yul\":10131:10135   */\n      0x1f\n        /* \"#utility.yul\":10123:10129   */\n      dup4\n        /* \"#utility.yul\":10119:10136   */\n      add\n        /* \"#utility.yul\":10115:10142   */\n      slt\n        /* \"#utility.yul\":10105:10227   */\n      tag_504\n      jumpi\n        /* \"#utility.yul\":10146:10225   */\n      tag_505\n      tag_311\n      jump\t// in\n    tag_505:\n        /* \"#utility.yul\":10105:10227   */\n    tag_504:\n        /* \"#utility.yul\":10263:10269   */\n      dup2\n        /* \"#utility.yul\":10250:10270   */\n      calldataload\n        /* \"#utility.yul\":10288:10392   */\n      tag_506\n        /* \"#utility.yul\":10388:10391   */\n      dup5\n        /* \"#utility.yul\":10380:10386   */\n      dup3\n        /* \"#utility.yul\":10373:10377   */\n      0x20\n        /* \"#utility.yul\":10365:10371   */\n      dup7\n        /* \"#utility.yul\":10361:10378   */\n      add\n        /* \"#utility.yul\":10288:10392   */\n      tag_338\n      jump\t// in\n    tag_506:\n        /* \"#utility.yul\":10279:10392   */\n      swap2\n      pop\n        /* \"#utility.yul\":10095:10398   */\n      pop\n        /* \"#utility.yul\":10008:10398   */\n      swap3\n      swap2\n      pop\n      pop\n      jump\t// out\n        /* \"#utility.yul\":10404:10963   */\n    tag_41:\n        /* \"#utility.yul\":10498:10504   */\n      0x00\n        /* \"#utility.yul\":10547:10549   */\n      0x20\n        /* \"#utility.yul\":10535:10544   */\n      dup3\n        /* \"#utility.yul\":10526:10533   */\n      dup5\n        /* \"#utility.yul\":10522:10545   */\n      sub\n        /* \"#utility.yul\":10518:10550   */\n      slt\n        /* \"#utility.yul\":10515:10634   */\n      iszero\n      tag_508\n      jumpi\n        /* \"#utility.yul\":10553:10632   */\n      tag_509\n      tag_309\n      jump\t// in\n    tag_509:\n        /* \"#utility.yul\":10515:10634   */\n    tag_508:\n        /* \"#utility.yul\":10701:10702   */\n      0x00\n        /* \"#utility.yul\":10690:10699   */\n      dup3\n        /* \"#utility.yul\":10686:10703   */\n      add\n        /* \"#utility.yul\":10673:10704   */\n      calldataload\n        /* \"#utility.yul\":10731:10749   */\n      0xffffffffffffffff\n        /* \"#utility.yul\":10723:10729   */\n      dup2\n        /* \"#utility.yul\":10720:10750   */\n      gt\n        /* \"#utility.yul\":10717:10834   */\n      iszero\n      tag_510\n      jumpi\n        /* \"#utility.yul\":10753:10832   */\n      tag_511\n      tag_310\n      jump\t// in\n    tag_511:\n        /* \"#utility.yul\":10717:10834   */\n    tag_510:\n        /* \"#utility.yul\":10858:10946   */\n      tag_512\n        /* \"#utility.yul\":10938:10945   */\n      dup5\n        /* \"#utility.yul\":10929:10935   */\n      dup3\n        /* \"#utility.yul\":10918:10927   */\n      dup6\n        /* \"#utility.yul\":10914:10936   */\n      add\n        /* \"#utility.yul\":10858:10946   */\n      tag_339\n      jump\t// in\n    tag_512:\n        /* \"#utility.yul\":10848:10946   */\n      swap2\n      pop\n        /* \"#utility.yul\":10644:10956   */\n      pop\n        /* \"#utility.yul\":10404:10963   */\n      swap3\n      swap2\n      pop\n      pop\n      jump\t// out\n        /* \"#utility.yul\":10969:11087   */\n    tag_340:\n        /* \"#utility.yul\":11056:11080   */\n      tag_514\n        /* \"#utility.yul\":11074:11079   */\n      dup2\n        /* \"#utility.yul\":11056:11080   */\n      tag_321\n      jump\t// in\n    tag_514:\n        /* \"#utility.yul\":11051:11054   */\n      dup3\n        /* \"#utility.yul\":11044:11081   */\n      mstore\n        /* \"#utility.yul\":10969:11087   */\n      pop\n      pop\n      jump\t// out\n        /* \"#utility.yul\":11093:11315   */\n    tag_44:\n        /* \"#utility.yul\":11186:11190   */\n      0x00\n        /* \"#utility.yul\":11224:11226   */\n      0x20\n        /* \"#utility.yul\":11213:11222   */\n      dup3\n        /* \"#utility.yul\":11209:11227   */\n      add\n        /* \"#utility.yul\":11201:11227   */\n      swap1\n      pop\n        /* \"#utility.yul\":11237:11308   */\n      tag_516\n        /* \"#utility.yul\":11305:11306   */\n      0x00\n        /* \"#utility.yul\":11294:11303   */\n      dup4\n        /* \"#utility.yul\":11290:11307   */\n      add\n        /* \"#utility.yul\":11281:11287   */\n      dup5\n        /* \"#utility.yul\":11237:11308   */\n      tag_340\n      jump\t// in\n    tag_516:\n        /* \"#utility.yul\":11093:11315   */\n      swap3\n      swap2\n      pop\n      pop\n      jump\t// out\n        /* \"#utility.yul\":11321:11975   */\n    tag_47:\n        /* \"#utility.yul\":11399:11405   */\n      0x00\n        /* \"#utility.yul\":11407:11413   */\n      dup1\n        /* \"#utility.yul\":11456:11458   */\n      0x40\n        /* \"#utility.yul\":11444:11453   */\n      dup4\n        /* \"#utility.yul\":11435:11442   */\n      dup6\n        /* \"#utility.yul\":11431:11454   */\n      sub\n        /* \"#utility.yul\":11427:11459   */\n      slt\n        /* \"#utility.yul\":11424:11543   */\n      iszero\n      tag_518\n      jumpi\n        /* \"#utility.yul\":11462:11541   */\n      tag_519\n      tag_309\n      jump\t// in\n    tag_519:\n        /* \"#utility.yul\":11424:11543   */\n    tag_518:\n        /* \"#utility.yul\":11582:11583   */\n      0x00\n        /* \"#utility.yul\":11607:11660   */\n      tag_520\n        /* \"#utility.yul\":11652:11659   */\n      dup6\n        /* \"#utility.yul\":11643:11649   */\n      dup3\n        /* \"#utility.yul\":11632:11641   */\n      dup7\n        /* \"#utility.yul\":11628:11650   */\n      add\n        /* \"#utility.yul\":11607:11660   */\n      tag_329\n      jump\t// in\n    tag_520:\n        /* \"#utility.yul\":11597:11660   */\n      swap3\n      pop\n        /* \"#utility.yul\":11553:11670   */\n      pop\n        /* \"#utility.yul\":11737:11739   */\n      0x20\n        /* \"#utility.yul\":11726:11735   */\n      dup4\n        /* \"#utility.yul\":11722:11740   */\n      add\n        /* \"#utility.yul\":11709:11741   */\n      calldataload\n        /* \"#utility.yul\":11768:11786   */\n      0xffffffffffffffff\n        /* \"#utility.yul\":11760:11766   */\n      dup2\n        /* \"#utility.yul\":11757:11787   */\n      gt\n        /* \"#utility.yul\":11754:11871   */\n      iszero\n      tag_521\n      jumpi\n        /* \"#utility.yul\":11790:11869   */\n      tag_522\n      tag_310\n      jump\t// in\n    tag_522:\n        /* \"#utility.yul\":11754:11871   */\n    tag_521:\n        /* \"#utility.yul\":11895:11958   */\n      tag_523\n        /* \"#utility.yul\":11950:11957   */\n      dup6\n        /* \"#utility.yul\":11941:11947   */\n      dup3\n        /* \"#utility.yul\":11930:11939   */\n      dup7\n        /* \"#utility.yul\":11926:11948   */\n      add\n        /* \"#utility.yul\":11895:11958   */\n      tag_320\n      jump\t// in\n    tag_523:\n        /* \"#utility.yul\":11885:11958   */\n      swap2\n      pop\n        /* \"#utility.yul\":11680:11968   */\n      pop\n        /* \"#utility.yul\":11321:11975   */\n      swap3\n      pop\n      swap3\n      swap1\n      pop\n      jump\t// out\n        /* \"#utility.yul\":11981:12080   */\n    tag_341:\n        /* \"#utility.yul\":12033:12039   */\n      0x00\n        /* \"#utility.yul\":12067:12072   */\n      dup2\n        /* \"#utility.yul\":12061:12073   */\n      mload\n        /* \"#utility.yul\":12051:12073   */\n      swap1\n      pop\n        /* \"#utility.yul\":11981:12080   */\n      swap2\n      swap1\n      pop\n      jump\t// out\n        /* \"#utility.yul\":12086:12255   */\n    tag_342:\n        /* \"#utility.yul\":12170:12181   */\n      0x00\n        /* \"#utility.yul\":12204:12210   */\n      dup3\n        /* \"#utility.yul\":12199:12202   */\n      dup3\n        /* \"#utility.yul\":12192:12211   */\n      mstore\n        /* \"#utility.yul\":12244:12248   */\n      0x20\n        /* \"#utility.yul\":12239:12242   */\n      dup3\n        /* \"#utility.yul\":12235:12249   */\n      add\n        /* \"#utility.yul\":12220:12249   */\n      swap1\n      pop\n        /* \"#utility.yul\":12086:12255   */\n      swap3\n      swap2\n      pop\n      pop\n      jump\t// out\n        /* \"#utility.yul\":12261:12507   */\n    tag_343:\n        /* \"#utility.yul\":12342:12343   */\n      0x00\n        /* \"#utility.yul\":12352:12465   */\n    tag_527:\n        /* \"#utility.yul\":12366:12372   */\n      dup4\n        /* \"#utility.yul\":12363:12364   */\n      dup2\n        /* \"#utility.yul\":12360:12373   */\n      lt\n        /* \"#utility.yul\":12352:12465   */\n      iszero\n      tag_529\n      jumpi\n        /* \"#utility.yul\":12451:12452   */\n      dup1\n        /* \"#utility.yul\":12446:12449   */\n      dup3\n        /* \"#utility.yul\":12442:12453   */\n      add\n        /* \"#utility.yul\":12436:12454   */\n      mload\n        /* \"#utility.yul\":12432:12433   */\n      dup2\n        /* \"#utility.yul\":12427:12430   */\n      dup5\n        /* \"#utility.yul\":12423:12434   */\n      add\n        /* \"#utility.yul\":12416:12455   */\n      mstore\n        /* \"#utility.yul\":12388:12390   */\n      0x20\n        /* \"#utility.yul\":12385:12386   */\n      dup2\n        /* \"#utility.yul\":12381:12391   */\n      add\n        /* \"#utility.yul\":12376:12391   */\n      swap1\n      pop\n        /* \"#utility.yul\":12352:12465   */\n      jump(tag_527)\n    tag_529:\n        /* \"#utility.yul\":12499:12500   */\n      0x00\n        /* \"#utility.yul\":12490:12496   */\n      dup5\n        /* \"#utility.yul\":12485:12488   */\n      dup5\n        /* \"#utility.yul\":12481:12497   */\n      add\n        /* \"#utility.yul\":12474:12501   */\n      mstore\n        /* \"#utility.yul\":12323:12507   */\n      pop\n        /* \"#utility.yul\":12261:12507   */\n      pop\n      pop\n      pop\n      jump\t// out\n        /* \"#utility.yul\":12513:12890   */\n    tag_344:\n        /* \"#utility.yul\":12601:12604   */\n      0x00\n        /* \"#utility.yul\":12629:12668   */\n      tag_531\n        /* \"#utility.yul\":12662:12667   */\n      dup3\n        /* \"#utility.yul\":12629:12668   */\n      tag_341\n      jump\t// in\n    tag_531:\n        /* \"#utility.yul\":12684:12755   */\n      tag_532\n        /* \"#utility.yul\":12748:12754   */\n      dup2\n        /* \"#utility.yul\":12743:12746   */\n      dup6\n        /* \"#utility.yul\":12684:12755   */\n      tag_342\n      jump\t// in\n    tag_532:\n        /* \"#utility.yul\":12677:12755   */\n      swap4\n      pop\n        /* \"#utility.yul\":12764:12829   */\n      tag_533\n        /* \"#utility.yul\":12822:12828   */\n      dup2\n        /* \"#utility.yul\":12817:12820   */\n      dup6\n        /* \"#utility.yul\":12810:12814   */\n      0x20\n        /* \"#utility.yul\":12803:12808   */\n      dup7\n        /* \"#utility.yul\":12799:12815   */\n      add\n        /* \"#utility.yul\":12764:12829   */\n      tag_343\n      jump\t// in\n    tag_533:\n        /* \"#utility.yul\":12854:12883   */\n      tag_534\n        /* \"#utility.yul\":12876:12882   */\n      dup2\n        /* \"#utility.yul\":12854:12883   */\n      tag_313\n      jump\t// in\n    tag_534:\n        /* \"#utility.yul\":12849:12852   */\n      dup5\n        /* \"#utility.yul\":12845:12884   */\n      add\n        /* \"#utility.yul\":12838:12884   */\n      swap2\n      pop\n        /* \"#utility.yul\":12605:12890   */\n      pop\n        /* \"#utility.yul\":12513:12890   */\n      swap3\n      swap2\n      pop\n      pop\n      jump\t// out\n        /* \"#utility.yul\":12896:13209   */\n    tag_50:\n        /* \"#utility.yul\":13009:13013   */\n      0x00\n        /* \"#utility.yul\":13047:13049   */\n      0x20\n        /* \"#utility.yul\":13036:13045   */\n      dup3\n        /* \"#utility.yul\":13032:13050   */\n      add\n        /* \"#utility.yul\":13024:13050   */\n      swap1\n      pop\n        /* \"#utility.yul\":13096:13105   */\n      dup2\n        /* \"#utility.yul\":13090:13094   */\n      dup2\n        /* \"#utility.yul\":13086:13106   */\n      sub\n        /* \"#utility.yul\":13082:13083   */\n      0x00\n        /* \"#utility.yul\":13071:13080   */\n      dup4\n        /* \"#utility.yul\":13067:13084   */\n      add\n        /* \"#utility.yul\":13060:13107   */\n      mstore\n        /* \"#utility.yul\":13124:13202   */\n      tag_536\n        /* \"#utility.yul\":13197:13201   */\n      dup2\n        /* \"#utility.yul\":13188:13194   */\n      dup5\n        /* \"#utility.yul\":13124:13202   */\n      tag_344\n      jump\t// in\n    tag_536:\n        /* \"#utility.yul\":13116:13202   */\n      swap1\n      pop\n        /* \"#utility.yul\":12896:13209   */\n      swap3\n      swap2\n      pop\n      pop\n      jump\t// out\n        /* \"#utility.yul\":13215:13437   */\n    tag_58:\n        /* \"#utility.yul\":13308:13312   */\n      0x00\n        /* \"#utility.yul\":13346:13348   */\n      0x20\n        /* \"#utility.yul\":13335:13344   */\n      dup3\n        /* \"#utility.yul\":13331:13349   */\n      add\n        /* \"#utility.yul\":13323:13349   */\n      swap1\n      pop\n        /* \"#utility.yul\":13359:13430   */\n      tag_538\n        /* \"#utility.yul\":13427:13428   */\n      0x00\n        /* \"#utility.yul\":13416:13425   */\n      dup4\n        /* \"#utility.yul\":13412:13429   */\n      add\n        /* \"#utility.yul\":13403:13409   */\n      dup5\n        /* \"#utility.yul\":13359:13430   */\n      tag_336\n      jump\t// in\n    tag_538:\n        /* \"#utility.yul\":13215:13437   */\n      swap3\n      swap2\n      pop\n      pop\n      jump\t// out\n        /* \"#utility.yul\":13443:13772   */\n    tag_61:\n        /* \"#utility.yul\":13502:13508   */\n      0x00\n        /* \"#utility.yul\":13551:13553   */\n      0x20\n        /* \"#utility.yul\":13539:13548   */\n      dup3\n        /* \"#utility.yul\":13530:13537   */\n      dup5\n        /* \"#utility.yul\":13526:13549   */\n      sub\n        /* \"#utility.yul\":13522:13554   */\n      slt\n        /* \"#utility.yul\":13519:13638   */\n      iszero\n      tag_540\n      jumpi\n        /* \"#utility.yul\":13557:13636   */\n      tag_541\n      tag_309\n      jump\t// in\n    tag_541:\n        /* \"#utility.yul\":13519:13638   */\n    tag_540:\n        /* \"#utility.yul\":13677:13678   */\n      0x00\n        /* \"#utility.yul\":13702:13755   */\n      tag_542\n        /* \"#utility.yul\":13747:13754   */\n      dup5\n        /* \"#utility.yul\":13738:13744   */\n      dup3\n        /* \"#utility.yul\":13727:13736   */\n      dup6\n        /* \"#utility.yul\":13723:13745   */\n      add\n        /* \"#utility.yul\":13702:13755   */\n      tag_334\n      jump\t// in\n    tag_542:\n        /* \"#utility.yul\":13692:13755   */\n      swap2\n      pop\n        /* \"#utility.yul\":13648:13765   */\n      pop\n        /* \"#utility.yul\":13443:13772   */\n      swap3\n      swap2\n      pop\n      pop\n      jump\t// out\n        /* \"#utility.yul\":13778:14000   */\n    tag_64:\n        /* \"#utility.yul\":13871:13875   */\n      0x00\n        /* \"#utility.yul\":13909:13911   */\n      0x20\n        /* \"#utility.yul\":13898:13907   */\n      dup3\n        /* \"#utility.yul\":13894:13912   */\n      add\n        /* \"#utility.yul\":13886:13912   */\n      swap1\n      pop\n        /* \"#utility.yul\":13922:13993   */\n      tag_544\n        /* \"#utility.yul\":13990:13991   */\n      0x00\n        /* \"#utility.yul\":13979:13988   */\n      dup4\n        /* \"#utility.yul\":13975:13992   */\n      add\n        /* \"#utility.yul\":13966:13972   */\n      dup5\n        /* \"#utility.yul\":13922:13993   */\n      tag_335\n      jump\t// in\n    tag_544:\n        /* \"#utility.yul\":13778:14000   */\n      swap3\n      swap2\n      pop\n      pop\n      jump\t// out\n        /* \"#utility.yul\":14006:14480   */\n    tag_70:\n        /* \"#utility.yul\":14074:14080   */\n      0x00\n        /* \"#utility.yul\":14082:14088   */\n      dup1\n        /* \"#utility.yul\":14131:14133   */\n      0x40\n        /* \"#utility.yul\":14119:14128   */\n      dup4\n        /* \"#utility.yul\":14110:14117   */\n      dup6\n        /* \"#utility.yul\":14106:14129   */\n      sub\n        /* \"#utility.yul\":14102:14134   */\n      slt\n        /* \"#utility.yul\":14099:14218   */\n      iszero\n      tag_546\n      jumpi\n        /* \"#utility.yul\":14137:14216   */\n      tag_547\n      tag_309\n      jump\t// in\n    tag_547:\n        /* \"#utility.yul\":14099:14218   */\n    tag_546:\n        /* \"#utility.yul\":14257:14258   */\n      0x00\n        /* \"#utility.yul\":14282:14335   */\n      tag_548\n        /* \"#utility.yul\":14327:14334   */\n      dup6\n        /* \"#utility.yul\":14318:14324   */\n      dup3\n        /* \"#utility.yul\":14307:14316   */\n      dup7\n        /* \"#utility.yul\":14303:14325   */\n      add\n        /* \"#utility.yul\":14282:14335   */\n      tag_323\n      jump\t// in\n    tag_548:\n        /* \"#utility.yul\":14272:14335   */\n      swap3\n      pop\n        /* \"#utility.yul\":14228:14345   */\n      pop\n        /* \"#utility.yul\":14384:14386   */\n      0x20\n        /* \"#utility.yul\":14410:14463   */\n      tag_549\n        /* \"#utility.yul\":14455:14462   */\n      dup6\n        /* \"#utility.yul\":14446:14452   */\n      dup3\n        /* \"#utility.yul\":14435:14444   */\n      dup7\n        /* \"#utility.yul\":14431:14453   */\n      add\n        /* \"#utility.yul\":14410:14463   */\n      tag_334\n      jump\t// in\n    tag_549:\n        /* \"#utility.yul\":14400:14463   */\n      swap2\n      pop\n        /* \"#utility.yul\":14355:14473   */\n      pop\n        /* \"#utility.yul\":14006:14480   */\n      swap3\n      pop\n      swap3\n      swap1\n      pop\n      jump\t// out\n        /* \"#utility.yul\":14486:14600   */\n    tag_345:\n        /* \"#utility.yul\":14553:14559   */\n      0x00\n        /* \"#utility.yul\":14587:14592   */\n      dup2\n        /* \"#utility.yul\":14581:14593   */\n      mload\n        /* \"#utility.yul\":14571:14593   */\n      swap1\n      pop\n        /* \"#utility.yul\":14486:14600   */\n      swap2\n      swap1\n      pop\n      jump\t// out\n        /* \"#utility.yul\":14606:14790   */\n    tag_346:\n        /* \"#utility.yul\":14705:14716   */\n      0x00\n        /* \"#utility.yul\":14739:14745   */\n      dup3\n        /* \"#utility.yul\":14734:14737   */\n      dup3\n        /* \"#utility.yul\":14727:14746   */\n      mstore\n        /* \"#utility.yul\":14779:14783   */\n      0x20\n        /* \"#utility.yul\":14774:14777   */\n      dup3\n        /* \"#utility.yul\":14770:14784   */\n      add\n        /* \"#utility.yul\":14755:14784   */\n      swap1\n      pop\n        /* \"#utility.yul\":14606:14790   */\n      swap3\n      swap2\n      pop\n      pop\n      jump\t// out\n        /* \"#utility.yul\":14796:14928   */\n    tag_347:\n        /* \"#utility.yul\":14863:14867   */\n      0x00\n        /* \"#utility.yul\":14886:14889   */\n      dup2\n        /* \"#utility.yul\":14878:14889   */\n      swap1\n      pop\n        /* \"#utility.yul\":14916:14920   */\n      0x20\n        /* \"#utility.yul\":14911:14914   */\n      dup3\n        /* \"#utility.yul\":14907:14921   */\n      add\n        /* \"#utility.yul\":14899:14921   */\n      swap1\n      pop\n        /* \"#utility.yul\":14796:14928   */\n      swap2\n      swap1\n      pop\n      jump\t// out\n        /* \"#utility.yul\":14934:15042   */\n    tag_348:\n        /* \"#utility.yul\":15011:15035   */\n      tag_554\n        /* \"#utility.yul\":15029:15034   */\n      dup2\n        /* \"#utility.yul\":15011:15035   */\n      tag_327\n      jump\t// in\n    tag_554:\n        /* \"#utility.yul\":15006:15009   */\n      dup3\n        /* \"#utility.yul\":14999:15036   */\n      mstore\n        /* \"#utility.yul\":14934:15042   */\n      pop\n      pop\n      jump\t// out\n        /* \"#utility.yul\":15048:15227   */\n    tag_349:\n        /* \"#utility.yul\":15117:15127   */\n      0x00\n        /* \"#utility.yul\":15138:15184   */\n      tag_556\n        /* \"#utility.yul\":15180:15183   */\n      dup4\n        /* \"#utility.yul\":15172:15178   */\n      dup4\n        /* \"#utility.yul\":15138:15184   */\n      tag_348\n      jump\t// in\n    tag_556:\n        /* \"#utility.yul\":15216:15220   */\n      0x20\n        /* \"#utility.yul\":15211:15214   */\n      dup4\n        /* \"#utility.yul\":15207:15221   */\n      add\n        /* \"#utility.yul\":15193:15221   */\n      swap1\n      pop\n        /* \"#utility.yul\":15048:15227   */\n      swap3\n      swap2\n      pop\n      pop\n      jump\t// out\n        /* \"#utility.yul\":15233:15346   */\n    tag_350:\n        /* \"#utility.yul\":15303:15307   */\n      0x00\n        /* \"#utility.yul\":15335:15339   */\n      0x20\n        /* \"#utility.yul\":15330:15333   */\n      dup3\n        /* \"#utility.yul\":15326:15340   */\n      add\n        /* \"#utility.yul\":15318:15340   */\n      swap1\n      pop\n        /* \"#utility.yul\":15233:15346   */\n      swap2\n      swap1\n      pop\n      jump\t// out\n        /* \"#utility.yul\":15382:16114   */\n    tag_351:\n        /* \"#utility.yul\":15501:15504   */\n      0x00\n        /* \"#utility.yul\":15530:15584   */\n      tag_559\n        /* \"#utility.yul\":15578:15583   */\n      dup3\n        /* \"#utility.yul\":15530:15584   */\n      tag_345\n      jump\t// in\n    tag_559:\n        /* \"#utility.yul\":15600:15686   */\n      tag_560\n        /* \"#utility.yul\":15679:15685   */\n      dup2\n        /* \"#utility.yul\":15674:15677   */\n      dup6\n        /* \"#utility.yul\":15600:15686   */\n      tag_346\n      jump\t// in\n    tag_560:\n        /* \"#utility.yul\":15593:15686   */\n      swap4\n      pop\n        /* \"#utility.yul\":15710:15766   */\n      tag_561\n        /* \"#utility.yul\":15760:15765   */\n      dup4\n        /* \"#utility.yul\":15710:15766   */\n      tag_347\n      jump\t// in\n    tag_561:\n        /* \"#utility.yul\":15789:15796   */\n      dup1\n        /* \"#utility.yul\":15820:15821   */\n      0x00\n        /* \"#utility.yul\":15805:16089   */\n    tag_562:\n        /* \"#utility.yul\":15830:15836   */\n      dup4\n        /* \"#utility.yul\":15827:15828   */\n      dup2\n        /* \"#utility.yul\":15824:15837   */\n      lt\n        /* \"#utility.yul\":15805:16089   */\n      iszero\n      tag_564\n      jumpi\n        /* \"#utility.yul\":15906:15912   */\n      dup2\n        /* \"#utility.yul\":15900:15913   */\n      mload\n        /* \"#utility.yul\":15933:15996   */\n      tag_565\n        /* \"#utility.yul\":15992:15995   */\n      dup9\n        /* \"#utility.yul\":15977:15990   */\n      dup3\n        /* \"#utility.yul\":15933:15996   */\n      tag_349\n      jump\t// in\n    tag_565:\n        /* \"#utility.yul\":15926:15996   */\n      swap8\n      pop\n        /* \"#utility.yul\":16019:16079   */\n      tag_566\n        /* \"#utility.yul\":16072:16078   */\n      dup4\n        /* \"#utility.yul\":16019:16079   */\n      tag_350\n      jump\t// in\n    tag_566:\n        /* \"#utility.yul\":16009:16079   */\n      swap3\n      pop\n        /* \"#utility.yul\":15865:16089   */\n      pop\n        /* \"#utility.yul\":15852:15853   */\n      0x01\n        /* \"#utility.yul\":15849:15850   */\n      dup2\n        /* \"#utility.yul\":15845:15854   */\n      add\n        /* \"#utility.yul\":15840:15854   */\n      swap1\n      pop\n        /* \"#utility.yul\":15805:16089   */\n      jump(tag_562)\n    tag_564:\n        /* \"#utility.yul\":15809:15823   */\n      pop\n        /* \"#utility.yul\":16105:16108   */\n      dup6\n        /* \"#utility.yul\":16098:16108   */\n      swap4\n      pop\n        /* \"#utility.yul\":15506:16114   */\n      pop\n      pop\n      pop\n        /* \"#utility.yul\":15382:16114   */\n      swap3\n      swap2\n      pop\n      pop\n      jump\t// out\n        /* \"#utility.yul\":16120:16493   */\n    tag_75:\n        /* \"#utility.yul\":16263:16267   */\n      0x00\n        /* \"#utility.yul\":16301:16303   */\n      0x20\n        /* \"#utility.yul\":16290:16299   */\n      dup3\n        /* \"#utility.yul\":16286:16304   */\n      add\n        /* \"#utility.yul\":16278:16304   */\n      swap1\n      pop\n        /* \"#utility.yul\":16350:16359   */\n      dup2\n        /* \"#utility.yul\":16344:16348   */\n      dup2\n        /* \"#utility.yul\":16340:16360   */\n      sub\n        /* \"#utility.yul\":16336:16337   */\n      0x00\n        /* \"#utility.yul\":16325:16334   */\n      dup4\n        /* \"#utility.yul\":16321:16338   */\n      add\n        /* \"#utility.yul\":16314:16361   */\n      mstore\n        /* \"#utility.yul\":16378:16486   */\n      tag_568\n        /* \"#utility.yul\":16481:16485   */\n      dup2\n        /* \"#utility.yul\":16472:16478   */\n      dup5\n        /* \"#utility.yul\":16378:16486   */\n      tag_351\n      jump\t// in\n    tag_568:\n        /* \"#utility.yul\":16370:16486   */\n      swap1\n      pop\n        /* \"#utility.yul\":16120:16493   */\n      swap3\n      swap2\n      pop\n      pop\n      jump\t// out\n        /* \"#utility.yul\":16499:16607   */\n    tag_352:\n        /* \"#utility.yul\":16576:16600   */\n      tag_570\n        /* \"#utility.yul\":16594:16599   */\n      dup2\n        /* \"#utility.yul\":16576:16600   */\n      tag_332\n      jump\t// in\n    tag_570:\n        /* \"#utility.yul\":16571:16574   */\n      dup3\n        /* \"#utility.yul\":16564:16601   */\n      mstore\n        /* \"#utility.yul\":16499:16607   */\n      pop\n      pop\n      jump\t// out\n        /* \"#utility.yul\":16671:17189   */\n    tag_353:\n        /* \"#utility.yul\":16810:16814   */\n      0x40\n        /* \"#utility.yul\":16805:16808   */\n      dup3\n        /* \"#utility.yul\":16801:16815   */\n      add\n        /* \"#utility.yul\":16904:16908   */\n      0x00\n        /* \"#utility.yul\":16897:16902   */\n      dup3\n        /* \"#utility.yul\":16893:16909   */\n      add\n        /* \"#utility.yul\":16887:16910   */\n      mload\n        /* \"#utility.yul\":16923:16986   */\n      tag_572\n        /* \"#utility.yul\":16980:16984   */\n      0x00\n        /* \"#utility.yul\":16975:16978   */\n      dup6\n        /* \"#utility.yul\":16971:16985   */\n      add\n        /* \"#utility.yul\":16957:16969   */\n      dup3\n        /* \"#utility.yul\":16923:16986   */\n      tag_348\n      jump\t// in\n    tag_572:\n        /* \"#utility.yul\":16825:16996   */\n      pop\n        /* \"#utility.yul\":17090:17094   */\n      0x20\n        /* \"#utility.yul\":17083:17088   */\n      dup3\n        /* \"#utility.yul\":17079:17095   */\n      add\n        /* \"#utility.yul\":17073:17096   */\n      mload\n        /* \"#utility.yul\":17109:17172   */\n      tag_573\n        /* \"#utility.yul\":17166:17170   */\n      0x20\n        /* \"#utility.yul\":17161:17164   */\n      dup6\n        /* \"#utility.yul\":17157:17171   */\n      add\n        /* \"#utility.yul\":17143:17155   */\n      dup3\n        /* \"#utility.yul\":17109:17172   */\n      tag_352\n      jump\t// in\n    tag_573:\n        /* \"#utility.yul\":17006:17182   */\n      pop\n        /* \"#utility.yul\":16779:17189   */\n      pop\n        /* \"#utility.yul\":16671:17189   */\n      pop\n      pop\n      jump\t// out\n        /* \"#utility.yul\":17195:17501   */\n    tag_80:\n        /* \"#utility.yul\":17330:17334   */\n      0x00\n        /* \"#utility.yul\":17368:17370   */\n      0x40\n        /* \"#utility.yul\":17357:17366   */\n      dup3\n        /* \"#utility.yul\":17353:17371   */\n      add\n        /* \"#utility.yul\":17345:17371   */\n      swap1\n      pop\n        /* \"#utility.yul\":17381:17494   */\n      tag_575\n        /* \"#utility.yul\":17491:17492   */\n      0x00\n        /* \"#utility.yul\":17480:17489   */\n      dup4\n        /* \"#utility.yul\":17476:17493   */\n      add\n        /* \"#utility.yul\":17467:17473   */\n      dup5\n        /* \"#utility.yul\":17381:17494   */\n      tag_353\n      jump\t// in\n    tag_575:\n        /* \"#utility.yul\":17195:17501   */\n      swap3\n      swap2\n      pop\n      pop\n      jump\t// out\n        /* \"#utility.yul\":17507:19334   */\n    tag_95:\n        /* \"#utility.yul\":17676:17682   */\n      0x00\n        /* \"#utility.yul\":17684:17690   */\n      dup1\n        /* \"#utility.yul\":17692:17698   */\n      0x00\n        /* \"#utility.yul\":17700:17706   */\n      dup1\n        /* \"#utility.yul\":17708:17714   */\n      0x00\n        /* \"#utility.yul\":17716:17722   */\n      dup1\n        /* \"#utility.yul\":17765:17768   */\n      0xc0\n        /* \"#utility.yul\":17753:17762   */\n      dup8\n        /* \"#utility.yul\":17744:17751   */\n      dup10\n        /* \"#utility.yul\":17740:17763   */\n      sub\n        /* \"#utility.yul\":17736:17769   */\n      slt\n        /* \"#utility.yul\":17733:17853   */\n      iszero\n      tag_577\n      jumpi\n        /* \"#utility.yul\":17772:17851   */\n      tag_578\n      tag_309\n      jump\t// in\n    tag_578:\n        /* \"#utility.yul\":17733:17853   */\n    tag_577:\n        /* \"#utility.yul\":17920:17921   */\n      0x00\n        /* \"#utility.yul\":17909:17918   */\n      dup8\n        /* \"#utility.yul\":17905:17922   */\n      add\n        /* \"#utility.yul\":17892:17923   */\n      calldataload\n        /* \"#utility.yul\":17950:17968   */\n      0xffffffffffffffff\n        /* \"#utility.yul\":17942:17948   */\n      dup2\n        /* \"#utility.yul\":17939:17969   */\n      gt\n        /* \"#utility.yul\":17936:18053   */\n      iszero\n      tag_579\n      jumpi\n        /* \"#utility.yul\":17972:18051   */\n      tag_580\n      tag_310\n      jump\t// in\n    tag_580:\n        /* \"#utility.yul\":17936:18053   */\n    tag_579:\n        /* \"#utility.yul\":18077:18165   */\n      tag_581\n        /* \"#utility.yul\":18157:18164   */\n      dup10\n        /* \"#utility.yul\":18148:18154   */\n      dup3\n        /* \"#utility.yul\":18137:18146   */\n      dup11\n        /* \"#utility.yul\":18133:18155   */\n      add\n        /* \"#utility.yul\":18077:18165   */\n      tag_339\n      jump\t// in\n    tag_581:\n        /* \"#utility.yul\":18067:18165   */\n      swap7\n      pop\n        /* \"#utility.yul\":17863:18175   */\n      pop\n        /* \"#utility.yul\":18242:18244   */\n      0x20\n        /* \"#utility.yul\":18231:18240   */\n      dup8\n        /* \"#utility.yul\":18227:18245   */\n      add\n        /* \"#utility.yul\":18214:18246   */\n      calldataload\n        /* \"#utility.yul\":18273:18291   */\n      0xffffffffffffffff\n        /* \"#utility.yul\":18265:18271   */\n      dup2\n        /* \"#utility.yul\":18262:18292   */\n      gt\n        /* \"#utility.yul\":18259:18376   */\n      iszero\n      tag_582\n      jumpi\n        /* \"#utility.yul\":18295:18374   */\n      tag_583\n      tag_310\n      jump\t// in\n    tag_583:\n        /* \"#utility.yul\":18259:18376   */\n    tag_582:\n        /* \"#utility.yul\":18400:18463   */\n      tag_584\n        /* \"#utility.yul\":18455:18462   */\n      dup10\n        /* \"#utility.yul\":18446:18452   */\n      dup3\n        /* \"#utility.yul\":18435:18444   */\n      dup11\n        /* \"#utility.yul\":18431:18453   */\n      add\n        /* \"#utility.yul\":18400:18463   */\n      tag_320\n      jump\t// in\n    tag_584:\n        /* \"#utility.yul\":18390:18463   */\n      swap6\n      pop\n        /* \"#utility.yul\":18185:18473   */\n      pop\n        /* \"#utility.yul\":18540:18542   */\n      0x40\n        /* \"#utility.yul\":18529:18538   */\n      dup8\n        /* \"#utility.yul\":18525:18543   */\n      add\n        /* \"#utility.yul\":18512:18544   */\n      calldataload\n        /* \"#utility.yul\":18571:18589   */\n      0xffffffffffffffff\n        /* \"#utility.yul\":18563:18569   */\n      dup2\n        /* \"#utility.yul\":18560:18590   */\n      gt\n        /* \"#utility.yul\":18557:18674   */\n      iszero\n      tag_585\n      jumpi\n        /* \"#utility.yul\":18593:18672   */\n      tag_586\n      tag_310\n      jump\t// in\n    tag_586:\n        /* \"#utility.yul\":18557:18674   */\n    tag_585:\n        /* \"#utility.yul\":18698:18761   */\n      tag_587\n        /* \"#utility.yul\":18753:18760   */\n      dup10\n        /* \"#utility.yul\":18744:18750   */\n      dup3\n        /* \"#utility.yul\":18733:18742   */\n      dup11\n        /* \"#utility.yul\":18729:18751   */\n      add\n        /* \"#utility.yul\":18698:18761   */\n      tag_320\n      jump\t// in\n    tag_587:\n        /* \"#utility.yul\":18688:18761   */\n      swap5\n      pop\n        /* \"#utility.yul\":18483:18771   */\n      pop\n        /* \"#utility.yul\":18838:18840   */\n      0x60\n        /* \"#utility.yul\":18827:18836   */\n      dup8\n        /* \"#utility.yul\":18823:18841   */\n      add\n        /* \"#utility.yul\":18810:18842   */\n      calldataload\n        /* \"#utility.yul\":18869:18887   */\n      0xffffffffffffffff\n        /* \"#utility.yul\":18861:18867   */\n      dup2\n        /* \"#utility.yul\":18858:18888   */\n      gt\n        /* \"#utility.yul\":18855:18972   */\n      iszero\n      tag_588\n      jumpi\n        /* \"#utility.yul\":18891:18970   */\n      tag_589\n      tag_310\n      jump\t// in\n    tag_589:\n        /* \"#utility.yul\":18855:18972   */\n    tag_588:\n        /* \"#utility.yul\":18996:19059   */\n      tag_590\n        /* \"#utility.yul\":19051:19058   */\n      dup10\n        /* \"#utility.yul\":19042:19048   */\n      dup3\n        /* \"#utility.yul\":19031:19040   */\n      dup11\n        /* \"#utility.yul\":19027:19049   */\n      add\n        /* \"#utility.yul\":18996:19059   */\n      tag_320\n      jump\t// in\n    tag_590:\n        /* \"#utility.yul\":18986:19059   */\n      swap4\n      pop\n        /* \"#utility.yul\":18781:19069   */\n      pop\n        /* \"#utility.yul\":19108:19111   */\n      0x80\n        /* \"#utility.yul\":19135:19188   */\n      tag_591\n        /* \"#utility.yul\":19180:19187   */\n      dup10\n        /* \"#utility.yul\":19171:19177   */\n      dup3\n        /* \"#utility.yul\":19160:19169   */\n      dup11\n        /* \"#utility.yul\":19156:19178   */\n      add\n        /* \"#utility.yul\":19135:19188   */\n      tag_334\n      jump\t// in\n    tag_591:\n        /* \"#utility.yul\":19125:19188   */\n      swap3\n      pop\n        /* \"#utility.yul\":19079:19198   */\n      pop\n        /* \"#utility.yul\":19237:19240   */\n      0xa0\n        /* \"#utility.yul\":19264:19317   */\n      tag_592\n        /* \"#utility.yul\":19309:19316   */\n      dup10\n        /* \"#utility.yul\":19300:19306   */\n      dup3\n        /* \"#utility.yul\":19289:19298   */\n      dup11\n        /* \"#utility.yul\":19285:19307   */\n      add\n        /* \"#utility.yul\":19264:19317   */\n      tag_334\n      jump\t// in\n    tag_592:\n        /* \"#utility.yul\":19254:19317   */\n      swap2\n      pop\n        /* \"#utility.yul\":19208:19327   */\n      pop\n        /* \"#utility.yul\":17507:19334   */\n      swap3\n      swap6\n      pop\n      swap3\n      swap6\n      pop\n      swap3\n      swap6\n      jump\t// out\n        /* \"#utility.yul\":19340:19520   */\n    tag_354:\n        /* \"#utility.yul\":19388:19465   */\n      0x4e487b7100000000000000000000000000000000000000000000000000000000\n        /* \"#utility.yul\":19385:19386   */\n      0x00\n        /* \"#utility.yul\":19378:19466   */\n      mstore\n        /* \"#utility.yul\":19485:19489   */\n      0x22\n        /* \"#utility.yul\":19482:19483   */\n      0x04\n        /* \"#utility.yul\":19475:19490   */\n      mstore\n        /* \"#utility.yul\":19509:19513   */\n      0x24\n        /* \"#utility.yul\":19506:19507   */\n      0x00\n        /* \"#utility.yul\":19499:19514   */\n      revert\n        /* \"#utility.yul\":19526:19846   */\n    tag_196:\n        /* \"#utility.yul\":19570:19576   */\n      0x00\n        /* \"#utility.yul\":19607:19608   */\n      0x02\n        /* \"#utility.yul\":19601:19605   */\n      dup3\n        /* \"#utility.yul\":19597:19609   */\n      div\n        /* \"#utility.yul\":19587:19609   */\n      swap1\n      pop\n        /* \"#utility.yul\":19654:19655   */\n      0x01\n        /* \"#utility.yul\":19648:19652   */\n      dup3\n        /* \"#utility.yul\":19644:19656   */\n      and\n        /* \"#utility.yul\":19675:19693   */\n      dup1\n        /* \"#utility.yul\":19665:19746   */\n      tag_595\n      jumpi\n        /* \"#utility.yul\":19731:19735   */\n      0x7f\n        /* \"#utility.yul\":19723:19729   */\n      dup3\n        /* \"#utility.yul\":19719:19736   */\n      and\n        /* \"#utility.yul\":19709:19736   */\n      swap2\n      pop\n        /* \"#utility.yul\":19665:19746   */\n    tag_595:\n        /* \"#utility.yul\":19793:19795   */\n      0x20\n        /* \"#utility.yul\":19785:19791   */\n      dup3\n        /* \"#utility.yul\":19782:19796   */\n      lt\n        /* \"#utility.yul\":19762:19780   */\n      dup2\n        /* \"#utility.yul\":19759:19797   */\n      sub\n        /* \"#utility.yul\":19756:19840   */\n      tag_596\n      jumpi\n        /* \"#utility.yul\":19812:19830   */\n      tag_597\n      tag_354\n      jump\t// in\n    tag_597:\n        /* \"#utility.yul\":19756:19840   */\n    tag_596:\n        /* \"#utility.yul\":19577:19846   */\n      pop\n        /* \"#utility.yul\":19526:19846   */\n      swap2\n      swap1\n      pop\n      jump\t// out\n        /* \"#utility.yul\":19852:19993   */\n    tag_355:\n        /* \"#utility.yul\":19901:19905   */\n      0x00\n        /* \"#utility.yul\":19924:19927   */\n      dup2\n        /* \"#utility.yul\":19916:19927   */\n      swap1\n      pop\n        /* \"#utility.yul\":19947:19950   */\n      dup2\n        /* \"#utility.yul\":19944:19945   */\n      0x00\n        /* \"#utility.yul\":19937:19951   */\n      mstore\n        /* \"#utility.yul\":19981:19985   */\n      0x20\n        /* \"#utility.yul\":19978:19979   */\n      0x00\n        /* \"#utility.yul\":19968:19986   */\n      keccak256\n        /* \"#utility.yul\":19960:19986   */\n      swap1\n      pop\n        /* \"#utility.yul\":19852:19993   */\n      swap2\n      swap1\n      pop\n      jump\t// out\n        /* \"#utility.yul\":19999:20092   */\n    tag_356:\n        /* \"#utility.yul\":20036:20042   */\n      0x00\n        /* \"#utility.yul\":20083:20085   */\n      0x20\n        /* \"#utility.yul\":20078:20080   */\n      0x1f\n        /* \"#utility.yul\":20071:20076   */\n      dup4\n        /* \"#utility.yul\":20067:20081   */\n      add\n        /* \"#utility.yul\":20063:20086   */\n      div\n        /* \"#utility.yul\":20053:20086   */\n      swap1\n      pop\n        /* \"#utility.yul\":19999:20092   */\n      swap2\n      swap1\n      pop\n      jump\t// out\n        /* \"#utility.yul\":20098:20205   */\n    tag_357:\n        /* \"#utility.yul\":20142:20150   */\n      0x00\n        /* \"#utility.yul\":20192:20197   */\n      dup3\n        /* \"#utility.yul\":20186:20190   */\n      dup3\n        /* \"#utility.yul\":20182:20198   */\n      shl\n        /* \"#utility.yul\":20161:20198   */\n      swap1\n      pop\n        /* \"#utility.yul\":20098:20205   */\n      swap3\n      swap2\n      pop\n      pop\n      jump\t// out\n        /* \"#utility.yul\":20211:20604   */\n    tag_358:\n        /* \"#utility.yul\":20280:20286   */\n      0x00\n        /* \"#utility.yul\":20330:20331   */\n      0x08\n        /* \"#utility.yul\":20318:20328   */\n      dup4\n        /* \"#utility.yul\":20314:20332   */\n      mul\n        /* \"#utility.yul\":20353:20450   */\n      tag_602\n        /* \"#utility.yul\":20383:20449   */\n      0xffffffffffffffffffffffffffffffffffffffffffffffffffffffffffffffff\n        /* \"#utility.yul\":20372:20381   */\n      dup3\n        /* \"#utility.yul\":20353:20450   */\n      tag_357\n      jump\t// in\n    tag_602:\n        /* \"#utility.yul\":20471:20510   */\n      tag_603\n        /* \"#utility.yul\":20501:20509   */\n      dup7\n        /* \"#utility.yul\":20490:20499   */\n      dup4\n        /* \"#utility.yul\":20471:20510   */\n      tag_357\n      jump\t// in\n    tag_603:\n        /* \"#utility.yul\":20459:20510   */\n      swap6\n      pop\n        /* \"#utility.yul\":20543:20547   */\n      dup1\n        /* \"#utility.yul\":20539:20548   */\n      not\n        /* \"#utility.yul\":20532:20537   */\n      dup5\n        /* \"#utility.yul\":20528:20549   */\n      and\n        /* \"#utility.yul\":20519:20549   */\n      swap4\n      pop\n        /* \"#utility.yul\":20592:20596   */\n      dup1\n        /* \"#utility.yul\":20582:20590   */\n      dup7\n        /* \"#utility.yul\":20578:20597   */\n      and\n        /* \"#utility.yul\":20571:20576   */\n      dup5\n        /* \"#utility.yul\":20568:20598   */\n      or\n        /* \"#utility.yul\":20558:20598   */\n      swap3\n      pop\n        /* \"#utility.yul\":20287:20604   */\n      pop\n      pop\n        /* \"#utility.yul\":20211:20604   */\n      swap4\n      swap3\n      pop\n      pop\n      pop\n      jump\t// out\n        /* \"#utility.yul\":20610:20670   */\n    tag_359:\n        /* \"#utility.yul\":20638:20641   */\n      0x00\n        /* \"#utility.yul\":20659:20664   */\n      dup2\n        /* \"#utility.yul\":20652:20664   */\n      swap1\n      pop\n        /* \"#utility.yul\":20610:20670   */\n      swap2\n      swap1\n      pop\n      jump\t// out\n        /* \"#utility.yul\":20676:20818   */\n    tag_360:\n        /* \"#utility.yul\":20726:20735   */\n      0x00\n        /* \"#utility.yul\":20759:20812   */\n      tag_606\n        /* \"#utility.yul\":20777:20811   */\n      tag_607\n        /* \"#utility.yul\":20786:20810   */\n      tag_608\n        /* \"#utility.yul\":20804:20809   */\n      dup5\n        /* \"#utility.yul\":20786:20810   */\n      tag_332\n      jump\t// in\n    tag_608:\n        /* \"#utility.yul\":20777:20811   */\n      tag_359\n      jump\t// in\n    tag_607:\n        /* \"#utility.yul\":20759:20812   */\n      tag_332\n      jump\t// in\n    tag_606:\n        /* \"#utility.yul\":20746:20812   */\n      swap1\n      pop\n        /* \"#utility.yul\":20676:20818   */\n      swap2\n      swap1\n      pop\n      jump\t// out\n        /* \"#utility.yul\":20824:20899   */\n    tag_361:\n        /* \"#utility.yul\":20867:20870   */\n      0x00\n        /* \"#utility.yul\":20888:20893   */\n      dup2\n        /* \"#utility.yul\":20881:20893   */\n      swap1\n      pop\n        /* \"#utility.yul\":20824:20899   */\n      swap2\n      swap1\n      pop\n      jump\t// out\n        /* \"#utility.yul\":20905:21174   */\n    tag_362:\n        /* \"#utility.yul\":21015:21054   */\n      tag_611\n        /* \"#utility.yul\":21046:21053   */\n      dup4\n        /* \"#utility.yul\":21015:21054   */\n      tag_360\n      jump\t// in\n    tag_611:\n        /* \"#utility.yul\":21076:21167   */\n      tag_612\n        /* \"#utility.yul\":21125:21166   */\n      tag_613\n        /* \"#utility.yul\":21149:21165   */\n      dup3\n        /* \"#utility.yul\":21125:21166   */\n      tag_361\n      jump\t// in\n    tag_613:\n        /* \"#utility.yul\":21117:21123   */\n      dup5\n        /* \"#utility.yul\":21110:21114   */\n      dup5\n        /* \"#utility.yul\":21104:21115   */\n      sload\n        /* \"#utility.yul\":21076:21167   */\n      tag_358\n      jump\t// in\n    tag_612:\n        /* \"#utility.yul\":21070:21074   */\n      dup3\n        /* \"#utility.yul\":21063:21168   */\n      sstore\n        /* \"#utility.yul\":20981:21174   */\n      pop\n        /* \"#utility.yul\":20905:21174   */\n      pop\n      pop\n      pop\n      jump\t// out\n        /* \"#utility.yul\":21180:21253   */\n    tag_363:\n        /* \"#utility.yul\":21225:21228   */\n      0x00\n        /* \"#utility.yul\":21180:21253   */\n      swap1\n      jump\t// out\n        /* \"#utility.yul\":21259:21448   */\n    tag_364:\n        /* \"#utility.yul\":21336:21368   */\n      tag_616\n      tag_363\n      jump\t// in\n    tag_616:\n        /* \"#utility.yul\":21377:21442   */\n      tag_617\n        /* \"#utility.yul\":21435:21441   */\n      dup2\n        /* \"#utility.yul\":21427:21433   */\n      dup5\n        /* \"#utility.yul\":21421:21425   */\n      dup5\n        /* \"#utility.yul\":21377:21442   */\n      tag_362\n      jump\t// in\n    tag_617:\n        /* \"#utility.yul\":21312:21448   */\n      pop\n        /* \"#utility.yul\":21259:21448   */\n      pop\n      pop\n      jump\t// out\n        /* \"#utility.yul\":21454:21640   */\n    tag_365:\n        /* \"#utility.yul\":21514:21634   */\n    tag_619:\n        /* \"#utility.yul\":21531:21534   */\n      dup2\n        /* \"#utility.yul\":21524:21529   */\n      dup2\n        /* \"#utility.yul\":21521:21535   */\n      lt\n        /* \"#utility.yul\":21514:21634   */\n      iszero\n      tag_621\n      jumpi\n        /* \"#utility.yul\":21585:21624   */\n      tag_622\n        /* \"#utility.yul\":21622:21623   */\n      0x00\n        /* \"#utility.yul\":21615:21620   */\n      dup3\n        /* \"#utility.yul\":21585:21624   */\n      tag_364\n      jump\t// in\n    tag_622:\n        /* \"#utility.yul\":21558:21559   */\n      0x01\n        /* \"#utility.yul\":21551:21556   */\n      dup2\n        /* \"#utility.yul\":21547:21560   */\n      add\n        /* \"#utility.yul\":21538:21560   */\n      swap1\n      pop\n        /* \"#utility.yul\":21514:21634   */\n      jump(tag_619)\n    tag_621:\n        /* \"#utility.yul\":21454:21640   */\n      pop\n      pop\n      jump\t// out\n        /* \"#utility.yul\":21646:22189   */\n    tag_366:\n        /* \"#utility.yul\":21747:21749   */\n      0x1f\n        /* \"#utility.yul\":21742:21745   */\n      dup3\n        /* \"#utility.yul\":21739:21750   */\n      gt\n        /* \"#utility.yul\":21736:22182   */\n      iszero\n      tag_624\n      jumpi\n        /* \"#utility.yul\":21781:21819   */\n      tag_625\n        /* \"#utility.yul\":21813:21818   */\n      dup2\n        /* \"#utility.yul\":21781:21819   */\n      tag_355\n      jump\t// in\n    tag_625:\n        /* \"#utility.yul\":21865:21894   */\n      tag_626\n        /* \"#utility.yul\":21883:21893   */\n      dup5\n        /* \"#utility.yul\":21865:21894   */\n      tag_356\n      jump\t// in\n    tag_626:\n        /* \"#utility.yul\":21855:21863   */\n      dup2\n        /* \"#utility.yul\":21851:21895   */\n      add\n        /* \"#utility.yul\":22048:22050   */\n      0x20\n        /* \"#utility.yul\":22036:22046   */\n      dup6\n        /* \"#utility.yul\":22033:22051   */\n      lt\n        /* \"#utility.yul\":22030:22079   */\n      iszero\n      tag_627\n      jumpi\n        /* \"#utility.yul\":22069:22077   */\n      dup2\n        /* \"#utility.yul\":22054:22077   */\n      swap1\n      pop\n        /* \"#utility.yul\":22030:22079   */\n    tag_627:\n        /* \"#utility.yul\":22092:22172   */\n      tag_628\n        /* \"#utility.yul\":22148:22170   */\n      tag_629\n        /* \"#utility.yul\":22166:22169   */\n      dup6\n        /* \"#utility.yul\":22148:22170   */\n      tag_356\n      jump\t// in\n    tag_629:\n        /* \"#utility.yul\":22138:22146   */\n      dup4\n        /* \"#utility.yul\":22134:22171   */\n      add\n        /* \"#utility.yul\":22121:22132   */\n      dup3\n        /* \"#utility.yul\":22092:22172   */\n      tag_365\n      jump\t// in\n    tag_628:\n        /* \"#utility.yul\":21751:22182   */\n      pop\n      pop\n        /* \"#utility.yul\":21736:22182   */\n    tag_624:\n        /* \"#utility.yul\":21646:22189   */\n      pop\n      pop\n      pop\n      jump\t// out\n        /* \"#utility.yul\":22195:22312   */\n    tag_367:\n        /* \"#utility.yul\":22249:22257   */\n      0x00\n        /* \"#utility.yul\":22299:22304   */\n      dup3\n        /* \"#utility.yul\":22293:22297   */\n      dup3\n        /* \"#utility.yul\":22289:22305   */\n      shr\n        /* \"#utility.yul\":22268:22305   */\n      swap1\n      pop\n        /* \"#utility.yul\":22195:22312   */\n      swap3\n      swap2\n      pop\n      pop\n      jump\t// out\n        /* \"#utility.yul\":22318:22487   */\n    tag_368:\n        /* \"#utility.yul\":22362:22368   */\n      0x00\n        /* \"#utility.yul\":22395:22446   */\n      tag_632\n        /* \"#utility.yul\":22443:22444   */\n      0x00\n        /* \"#utility.yul\":22439:22445   */\n      not\n        /* \"#utility.yul\":22431:22436   */\n      dup5\n        /* \"#utility.yul\":22428:22429   */\n      0x08\n        /* \"#utility.yul\":22424:22437   */\n      mul\n        /* \"#utility.yul\":22395:22446   */\n      tag_367\n      jump\t// in\n    tag_632:\n        /* \"#utility.yul\":22391:22447   */\n      not\n        /* \"#utility.yul\":22476:22480   */\n      dup1\n        /* \"#utility.yul\":22470:22474   */\n      dup4\n        /* \"#utility.yul\":22466:22481   */\n      and\n        /* \"#utility.yul\":22456:22481   */\n      swap2\n      pop\n        /* \"#utility.yul\":22369:22487   */\n      pop\n        /* \"#utility.yul\":22318:22487   */\n      swap3\n      swap2\n      pop\n      pop\n      jump\t// out\n        /* \"#utility.yul\":22492:22787   */\n    tag_369:\n        /* \"#utility.yul\":22568:22572   */\n      0x00\n        /* \"#utility.yul\":22714:22743   */\n      tag_634\n        /* \"#utility.yul\":22739:22742   */\n      dup4\n        /* \"#utility.yul\":22733:22737   */\n      dup4\n        /* \"#utility.yul\":22714:22743   */\n      tag_368\n      jump\t// in\n    tag_634:\n        /* \"#utility.yul\":22706:22743   */\n      swap2\n      pop\n        /* \"#utility.yul\":22776:22779   */\n      dup3\n        /* \"#utility.yul\":22773:22774   */\n      0x02\n        /* \"#utility.yul\":22769:22780   */\n      mul\n        /* \"#utility.yul\":22763:22767   */\n      dup3\n        /* \"#utility.yul\":22760:22781   */\n      or\n        /* \"#utility.yul\":22752:22781   */\n      swap1\n      pop\n        /* \"#utility.yul\":22492:22787   */\n      swap3\n      swap2\n      pop\n      pop\n      jump\t// out\n        /* \"#utility.yul\":22792:24187   */\n    tag_118:\n        /* \"#utility.yul\":22909:22946   */\n      tag_636\n        /* \"#utility.yul\":22942:22945   */\n      dup3\n        /* \"#utility.yul\":22909:22946   */\n      tag_341\n      jump\t// in\n    tag_636:\n        /* \"#utility.yul\":23011:23029   */\n      0xffffffffffffffff\n        /* \"#utility.yul\":23003:23009   */\n      dup2\n        /* \"#utility.yul\":23000:23030   */\n      gt\n        /* \"#utility.yul\":22997:23053   */\n      iszero\n      tag_637\n      jumpi\n        /* \"#utility.yul\":23033:23051   */\n      tag_638\n      tag_314\n      jump\t// in\n    tag_638:\n        /* \"#utility.yul\":22997:23053   */\n    tag_637:\n        /* \"#utility.yul\":23077:23115   */\n      tag_639\n        /* \"#utility.yul\":23109:23113   */\n      dup3\n        /* \"#utility.yul\":23103:23114   */\n      sload\n        /* \"#utility.yul\":23077:23115   */\n      tag_196\n      jump\t// in\n    tag_639:\n        /* \"#utility.yul\":23162:23229   */\n      tag_640\n        /* \"#utility.yul\":23222:23228   */\n      dup3\n        /* \"#utility.yul\":23214:23220   */\n      dup3\n        /* \"#utility.yul\":23208:23212   */\n      dup6\n        /* \"#utility.yul\":23162:23229   */\n      tag_366\n      jump\t// in\n    tag_640:\n        /* \"#utility.yul\":23256:23257   */\n      0x00\n        /* \"#utility.yul\":23280:23284   */\n      0x20\n        /* \"#utility.yul\":23267:23284   */\n      swap1\n      pop\n        /* \"#utility.yul\":23312:23314   */\n      0x1f\n        /* \"#utility.yul\":23304:23310   */\n      dup4\n        /* \"#utility.yul\":23301:23315   */\n      gt\n        /* \"#utility.yul\":23329:23330   */\n      0x01\n        /* \"#utility.yul\":23324:23942   */\n      dup2\n      eq\n      tag_642\n      jumpi\n        /* \"#utility.yul\":23986:23987   */\n      0x00\n        /* \"#utility.yul\":24003:24009   */\n      dup5\n        /* \"#utility.yul\":24000:24077   */\n      iszero\n      tag_643\n      jumpi\n        /* \"#utility.yul\":24052:24061   */\n      dup3\n        /* \"#utility.yul\":24047:24050   */\n      dup8\n        /* \"#utility.yul\":24043:24062   */\n      add\n        /* \"#utility.yul\":24037:24063   */\n      mload\n        /* \"#utility.yul\":24028:24063   */\n      swap1\n      pop\n        /* \"#utility.yul\":24000:24077   */\n    tag_643:\n        /* \"#utility.yul\":24103:24170   */\n      tag_644\n        /* \"#utility.yul\":24163:24169   */\n      dup6\n        /* \"#utility.yul\":24156:24161   */\n      dup3\n        /* \"#utility.yul\":24103:24170   */\n      tag_369\n      jump\t// in\n    tag_644:\n        /* \"#utility.yul\":24097:24101   */\n      dup7\n        /* \"#utility.yul\":24090:24171   */\n      sstore\n        /* \"#utility.yul\":23959:24181   */\n      pop\n        /* \"#utility.yul\":23294:24181   */\n      jump(tag_641)\n        /* \"#utility.yul\":23324:23942   */\n    tag_642:\n        /* \"#utility.yul\":23376:23380   */\n      0x1f\n        /* \"#utility.yul\":23372:23381   */\n      not\n        /* \"#utility.yul\":23364:23370   */\n      dup5\n        /* \"#utility.yul\":23360:23382   */\n      and\n        /* \"#utility.yul\":23410:23447   */\n      tag_645\n        /* \"#utility.yul\":23442:23446   */\n      dup7\n        /* \"#utility.yul\":23410:23447   */\n      tag_355\n      jump\t// in\n    tag_645:\n        /* \"#utility.yul\":23469:23470   */\n      0x00\n        /* \"#utility.yul\":23483:23691   */\n    tag_646:\n        /* \"#utility.yul\":23497:23504   */\n      dup3\n        /* \"#utility.yul\":23494:23495   */\n      dup2\n        /* \"#utility.yul\":23491:23505   */\n      lt\n        /* \"#utility.yul\":23483:23691   */\n      iszero\n      tag_648\n      jumpi\n        /* \"#utility.yul\":23576:23585   */\n      dup5\n        /* \"#utility.yul\":23571:23574   */\n      dup10\n        /* \"#utility.yul\":23567:23586   */\n      add\n        /* \"#utility.yul\":23561:23587   */\n      mload\n        /* \"#utility.yul\":23553:23559   */\n      dup3\n        /* \"#utility.yul\":23546:23588   */\n      sstore\n        /* \"#utility.yul\":23627:23628   */\n      0x01\n        /* \"#utility.yul\":23619:23625   */\n      dup3\n        /* \"#utility.yul\":23615:23629   */\n      add\n        /* \"#utility.yul\":23605:23629   */\n      swap2\n      pop\n        /* \"#utility.yul\":23674:23676   */\n      0x20\n        /* \"#utility.yul\":23663:23672   */\n      dup6\n        /* \"#utility.yul\":23659:23677   */\n      add\n        /* \"#utility.yul\":23646:23677   */\n      swap5\n      pop\n        /* \"#utility.yul\":23520:23524   */\n      0x20\n        /* \"#utility.yul\":23517:23518   */\n      dup2\n        /* \"#utility.yul\":23513:23525   */\n      add\n        /* \"#utility.yul\":23508:23525   */\n      swap1\n      pop\n        /* \"#utility.yul\":23483:23691   */\n      jump(tag_646)\n    tag_648:\n        /* \"#utility.yul\":23719:23725   */\n      dup7\n        /* \"#utility.yul\":23710:23717   */\n      dup4\n        /* \"#utility.yul\":23707:23726   */\n      lt\n        /* \"#utility.yul\":23704:23883   */\n      iszero\n      tag_649\n      jumpi\n        /* \"#utility.yul\":23777:23786   */\n      dup5\n        /* \"#utility.yul\":23772:23775   */\n      dup10\n        /* \"#utility.yul\":23768:23787   */\n      add\n        /* \"#utility.yul\":23762:23788   */\n      mload\n        /* \"#utility.yul\":23820:23868   */\n      tag_650\n        /* \"#utility.yul\":23862:23866   */\n      0x1f\n        /* \"#utility.yul\":23854:23860   */\n      dup10\n        /* \"#utility.yul\":23850:23867   */\n      and\n        /* \"#utility.yul\":23839:23848   */\n      dup3\n        /* \"#utility.yul\":23820:23868   */\n      tag_368\n      jump\t// in\n    tag_650:\n        /* \"#utility.yul\":23812:23818   */\n      dup4\n        /* \"#utility.yul\":23805:23869   */\n      sstore\n        /* \"#utility.yul\":23727:23883   */\n      pop\n        /* \"#utility.yul\":23704:23883   */\n    tag_649:\n        /* \"#utility.yul\":23929:23930   */\n      0x01\n        /* \"#utility.yul\":23925:23926   */\n      0x02\n        /* \"#utility.yul\":23917:23923   */\n      dup9\n        /* \"#utility.yul\":23913:23927   */\n      mul\n        /* \"#utility.yul\":23909:23931   */\n      add\n        /* \"#utility.yul\":23903:23907   */\n      dup9\n        /* \"#utility.yul\":23896:23932   */\n      sstore\n        /* \"#utility.yul\":23331:23942   */\n      pop\n      pop\n      pop\n        /* \"#utility.yul\":23294:24181   */\n    tag_641:\n      pop\n        /* \"#utility.yul\":22884:24187   */\n      pop\n      pop\n      pop\n        /* \"#utility.yul\":22792:24187   */\n      pop\n      pop\n      jump\t// out\n        /* \"#utility.yul\":24193:25261   */\n    tag_124:\n        /* \"#utility.yul\":24494:24498   */\n      0x00\n        /* \"#utility.yul\":24532:24535   */\n      0xe0\n        /* \"#utility.yul\":24521:24530   */\n      dup3\n        /* \"#utility.yul\":24517:24536   */\n      add\n        /* \"#utility.yul\":24509:24536   */\n      swap1\n      pop\n        /* \"#utility.yul\":24546:24617   */\n      tag_652\n        /* \"#utility.yul\":24614:24615   */\n      0x00\n        /* \"#utility.yul\":24603:24612   */\n      dup4\n        /* \"#utility.yul\":24599:24616   */\n      add\n        /* \"#utility.yul\":24590:24596   */\n      dup11\n        /* \"#utility.yul\":24546:24617   */\n      tag_336\n      jump\t// in\n    tag_652:\n        /* \"#utility.yul\":24664:24673   */\n      dup2\n        /* \"#utility.yul\":24658:24662   */\n      dup2\n        /* \"#utility.yul\":24654:24674   */\n      sub\n        /* \"#utility.yul\":24649:24651   */\n      0x20\n        /* \"#utility.yul\":24638:24647   */\n      dup4\n        /* \"#utility.yul\":24634:24652   */\n      add\n        /* \"#utility.yul\":24627:24675   */\n      mstore\n        /* \"#utility.yul\":24692:24770   */\n      tag_653\n        /* \"#utility.yul\":24765:24769   */\n      dup2\n        /* \"#utility.yul\":24756:24762   */\n      dup10\n        /* \"#utility.yul\":24692:24770   */\n      tag_344\n      jump\t// in\n    tag_653:\n        /* \"#utility.yul\":24684:24770   */\n      swap1\n      pop\n        /* \"#utility.yul\":24817:24826   */\n      dup2\n        /* \"#utility.yul\":24811:24815   */\n      dup2\n        /* \"#utility.yul\":24807:24827   */\n      sub\n        /* \"#utility.yul\":24802:24804   */\n      0x40\n        /* \"#utility.yul\":24791:24800   */\n      dup4\n        /* \"#utility.yul\":24787:24805   */\n      add\n        /* \"#utility.yul\":24780:24828   */\n      mstore\n        /* \"#utility.yul\":24845:24923   */\n      tag_654\n        /* \"#utility.yul\":24918:24922   */\n      dup2\n        /* \"#utility.yul\":24909:24915   */\n      dup9\n        /* \"#utility.yul\":24845:24923   */\n      tag_344\n      jump\t// in\n    tag_654:\n        /* \"#utility.yul\":24837:24923   */\n      swap1\n      pop\n        /* \"#utility.yul\":24933:25005   */\n      tag_655\n        /* \"#utility.yul\":25001:25003   */\n      0x60\n        /* \"#utility.yul\":24990:24999   */\n      dup4\n        /* \"#utility.yul\":24986:25004   */\n      add\n        /* \"#utility.yul\":24977:24983   */\n      dup8\n        /* \"#utility.yul\":24933:25005   */\n      tag_340\n      jump\t// in\n    tag_655:\n        /* \"#utility.yul\":25015:25088   */\n      tag_656\n        /* \"#utility.yul\":25083:25086   */\n      0x80\n        /* \"#utility.yul\":25072:25081   */\n      dup4\n        /* \"#utility.yul\":25068:25087   */\n      add\n        /* \"#utility.yul\":25059:25065   */\n      dup7\n        /* \"#utility.yul\":25015:25088   */\n      tag_336\n      jump\t// in\n    tag_656:\n        /* \"#utility.yul\":25098:25171   */\n      tag_657\n        /* \"#utility.yul\":25166:25169   */\n      0xa0\n        /* \"#utility.yul\":25155:25164   */\n      dup4\n        /* \"#utility.yul\":25151:25170   */\n      add\n        /* \"#utility.yul\":25142:25148   */\n      dup6\n        /* \"#utility.yul\":25098:25171   */\n      tag_336\n      jump\t// in\n    tag_657:\n        /* \"#utility.yul\":25181:25254   */\n      tag_658\n        /* \"#utility.yul\":25249:25252   */\n      0xc0\n        /* \"#utility.yul\":25238:25247   */\n      dup4\n        /* \"#utility.yul\":25234:25253   */\n      add\n        /* \"#utility.yul\":25225:25231   */\n      dup5\n        /* \"#utility.yul\":25181:25254   */\n      tag_335\n      jump\t// in\n    tag_658:\n        /* \"#utility.yul\":24193:25261   */\n      swap9\n      swap8\n      pop\n      pop\n      pop\n      pop\n      pop\n      pop\n      pop\n      pop\n      jump\t// out\n        /* \"#utility.yul\":25267:25436   */\n    tag_370:\n        /* \"#utility.yul\":25407:25428   */\n      0x4e6f646520616c72656164792065786973747300000000000000000000000000\n        /* \"#utility.yul\":25403:25404   */\n      0x00\n        /* \"#utility.yul\":25395:25401   */\n      dup3\n        /* \"#utility.yul\":25391:25405   */\n      add\n        /* \"#utility.yul\":25384:25429   */\n      mstore\n        /* \"#utility.yul\":25267:25436   */\n      pop\n      jump\t// out\n        /* \"#utility.yul\":25442:25808   */\n    tag_371:\n        /* \"#utility.yul\":25584:25587   */\n      0x00\n        /* \"#utility.yul\":25605:25672   */\n      tag_661\n        /* \"#utility.yul\":25669:25671   */\n      0x13\n        /* \"#utility.yul\":25664:25667   */\n      dup4\n        /* \"#utility.yul\":25605:25672   */\n      tag_342\n      jump\t// in\n    tag_661:\n        /* \"#utility.yul\":25598:25672   */\n      swap2\n      pop\n        /* \"#utility.yul\":25681:25774   */\n      tag_662\n        /* \"#utility.yul\":25770:25773   */\n      dup3\n        /* \"#utility.yul\":25681:25774   */\n      tag_370\n      jump\t// in\n    tag_662:\n        /* \"#utility.yul\":25799:25801   */\n      0x20\n        /* \"#utility.yul\":25794:25797   */\n      dup3\n        /* \"#utility.yul\":25790:25802   */\n      add\n        /* \"#utility.yul\":25783:25802   */\n      swap1\n      pop\n        /* \"#utility.yul\":25442:25808   */\n      swap2\n      swap1\n      pop\n      jump\t// out\n        /* \"#utility.yul\":25814:26233   */\n    tag_128:\n        /* \"#utility.yul\":25980:25984   */\n      0x00\n        /* \"#utility.yul\":26018:26020   */\n      0x20\n        /* \"#utility.yul\":26007:26016   */\n      dup3\n        /* \"#utility.yul\":26003:26021   */\n      add\n        /* \"#utility.yul\":25995:26021   */\n      swap1\n      pop\n        /* \"#utility.yul\":26067:26076   */\n      dup2\n        /* \"#utility.yul\":26061:26065   */\n      dup2\n        /* \"#utility.yul\":26057:26077   */\n      sub\n        /* \"#utility.yul\":26053:26054   */\n      0x00\n        /* \"#utility.yul\":26042:26051   */\n      dup4\n        /* \"#utility.yul\":26038:26055   */\n      add\n        /* \"#utility.yul\":26031:26078   */\n      mstore\n        /* \"#utility.yul\":26095:26226   */\n      tag_664\n        /* \"#utility.yul\":26221:26225   */\n      dup2\n        /* \"#utility.yul\":26095:26226   */\n      tag_371\n      jump\t// in\n    tag_664:\n        /* \"#utility.yul\":26087:26226   */\n      swap1\n      pop\n        /* \"#utility.yul\":25814:26233   */\n      swap2\n      swap1\n      pop\n      jump\t// out\n        /* \"#utility.yul\":26239:26419   */\n    tag_136:\n        /* \"#utility.yul\":26287:26364   */\n      0x4e487b7100000000000000000000000000000000000000000000000000000000\n        /* \"#utility.yul\":26284:26285   */\n      0x00\n        /* \"#utility.yul\":26277:26365   */\n      mstore\n        /* \"#utility.yul\":26384:26388   */\n      0x32\n        /* \"#utility.yul\":26381:26382   */\n      0x04\n        /* \"#utility.yul\":26374:26389   */\n      mstore\n        /* \"#utility.yul\":26408:26412   */\n      0x24\n        /* \"#utility.yul\":26405:26406   */\n      0x00\n        /* \"#utility.yul\":26398:26413   */\n      revert\n        /* \"#utility.yul\":26425:26523   */\n    tag_372:\n        /* \"#utility.yul\":26476:26482   */\n      0x00\n        /* \"#utility.yul\":26510:26515   */\n      dup2\n        /* \"#utility.yul\":26504:26516   */\n      mload\n        /* \"#utility.yul\":26494:26516   */\n      swap1\n      pop\n        /* \"#utility.yul\":26425:26523   */\n      swap2\n      swap1\n      pop\n      jump\t// out\n        /* \"#utility.yul\":26529:26676   */\n    tag_373:\n        /* \"#utility.yul\":26630:26641   */\n      0x00\n        /* \"#utility.yul\":26667:26670   */\n      dup2\n        /* \"#utility.yul\":26652:26670   */\n      swap1\n      pop\n        /* \"#utility.yul\":26529:26676   */\n      swap3\n      swap2\n      pop\n      pop\n      jump\t// out\n        /* \"#utility.yul\":26682:27068   */\n    tag_374:\n        /* \"#utility.yul\":26786:26789   */\n      0x00\n        /* \"#utility.yul\":26814:26852   */\n      tag_669\n        /* \"#utility.yul\":26846:26851   */\n      dup3\n        /* \"#utility.yul\":26814:26852   */\n      tag_372\n      jump\t// in\n    tag_669:\n        /* \"#utility.yul\":26868:26956   */\n      tag_670\n        /* \"#utility.yul\":26949:26955   */\n      dup2\n        /* \"#utility.yul\":26944:26947   */\n      dup6\n        /* \"#utility.yul\":26868:26956   */\n      tag_373\n      jump\t// in\n    tag_670:\n        /* \"#utility.yul\":26861:26956   */\n      swap4\n      pop\n        /* \"#utility.yul\":26965:27030   */\n      tag_671\n        /* \"#utility.yul\":27023:27029   */\n      dup2\n        /* \"#utility.yul\":27018:27021   */\n      dup6\n        /* \"#utility.yul\":27011:27015   */\n      0x20\n        /* \"#utility.yul\":27004:27009   */\n      dup7\n        /* \"#utility.yul\":27000:27016   */\n      add\n        /* \"#utility.yul\":26965:27030   */\n      tag_343\n      jump\t// in\n    tag_671:\n        /* \"#utility.yul\":27055:27061   */\n      dup1\n        /* \"#utility.yul\":27050:27053   */\n      dup5\n        /* \"#utility.yul\":27046:27062   */\n      add\n        /* \"#utility.yul\":27039:27062   */\n      swap2\n      pop\n        /* \"#utility.yul\":26790:27068   */\n      pop\n        /* \"#utility.yul\":26682:27068   */\n      swap3\n      swap2\n      pop\n      pop\n      jump\t// out\n        /* \"#utility.yul\":27074:27222   */\n    tag_375:\n        /* \"#utility.yul\":27176:27187   */\n      0x00\n        /* \"#utility.yul\":27213:27216   */\n      dup2\n        /* \"#utility.yul\":27198:27216   */\n      swap1\n      pop\n        /* \"#utility.yul\":27074:27222   */\n      swap3\n      swap2\n      pop\n      pop\n      jump\t// out\n        /* \"#utility.yul\":27228:27618   */\n    tag_376:\n        /* \"#utility.yul\":27334:27337   */\n      0x00\n        /* \"#utility.yul\":27362:27401   */\n      tag_674\n        /* \"#utility.yul\":27395:27400   */\n      dup3\n        /* \"#utility.yul\":27362:27401   */\n      tag_341\n      jump\t// in\n    tag_674:\n        /* \"#utility.yul\":27417:27506   */\n      tag_675\n        /* \"#utility.yul\":27499:27505   */\n      dup2\n        /* \"#utility.yul\":27494:27497   */\n      dup6\n        /* \"#utility.yul\":27417:27506   */\n      tag_375\n      jump\t// in\n    tag_675:\n        /* \"#utility.yul\":27410:27506   */\n      swap4\n      pop\n        /* \"#utility.yul\":27515:27580   */\n      tag_676\n        /* \"#utility.yul\":27573:27579   */\n      dup2\n        /* \"#utility.yul\":27568:27571   */\n      dup6\n        /* \"#utility.yul\":27561:27565   */\n      0x20\n        /* \"#utility.yul\":27554:27559   */\n      dup7\n        /* \"#utility.yul\":27550:27566   */\n      add\n        /* \"#utility.yul\":27515:27580   */\n      tag_343\n      jump\t// in\n    tag_676:\n        /* \"#utility.yul\":27605:27611   */\n      dup1\n        /* \"#utility.yul\":27600:27603   */\n      dup5\n        /* \"#utility.yul\":27596:27612   */\n      add\n        /* \"#utility.yul\":27589:27612   */\n      swap2\n      pop\n        /* \"#utility.yul\":27338:27618   */\n      pop\n        /* \"#utility.yul\":27228:27618   */\n      swap3\n      swap2\n      pop\n      pop\n      jump\t// out\n        /* \"#utility.yul\":27624:28055   */\n    tag_138:\n        /* \"#utility.yul\":27802:27805   */\n      0x00\n        /* \"#utility.yul\":27824:27917   */\n      tag_678\n        /* \"#utility.yul\":27913:27916   */\n      dup3\n        /* \"#utility.yul\":27904:27910   */\n      dup6\n        /* \"#utility.yul\":27824:27917   */\n      tag_374\n      jump\t// in\n    tag_678:\n        /* \"#utility.yul\":27817:27917   */\n      swap2\n      pop\n        /* \"#utility.yul\":27934:28029   */\n      tag_679\n        /* \"#utility.yul\":28025:28028   */\n      dup3\n        /* \"#utility.yul\":28016:28022   */\n      dup5\n        /* \"#utility.yul\":27934:28029   */\n      tag_376\n      jump\t// in\n    tag_679:\n        /* \"#utility.yul\":27927:28029   */\n      swap2\n      pop\n        /* \"#utility.yul\":28046:28049   */\n      dup2\n        /* \"#utility.yul\":28039:28049   */\n      swap1\n      pop\n        /* \"#utility.yul\":27624:28055   */\n      swap4\n      swap3\n      pop\n      pop\n      pop\n      jump\t// out\n        /* \"#utility.yul\":28061:28241   */\n    tag_377:\n        /* \"#utility.yul\":28109:28186   */\n      0x4e487b7100000000000000000000000000000000000000000000000000000000\n        /* \"#utility.yul\":28106:28107   */\n      0x00\n        /* \"#utility.yul\":28099:28187   */\n      mstore\n        /* \"#utility.yul\":28206:28210   */\n      0x11\n        /* \"#utility.yul\":28203:28204   */\n      0x04\n        /* \"#utility.yul\":28196:28211   */\n      mstore\n        /* \"#utility.yul\":28230:28234   */\n      0x24\n        /* \"#utility.yul\":28227:28228   */\n      0x00\n        /* \"#utility.yul\":28220:28235   */\n      revert\n        /* \"#utility.yul\":28247:28441   */\n    tag_144:\n        /* \"#utility.yul\":28287:28291   */\n      0x00\n        /* \"#utility.yul\":28307:28327   */\n      tag_682\n        /* \"#utility.yul\":28325:28326   */\n      dup3\n        /* \"#utility.yul\":28307:28327   */\n      tag_332\n      jump\t// in\n    tag_682:\n        /* \"#utility.yul\":28302:28327   */\n      swap2\n      pop\n        /* \"#utility.yul\":28341:28361   */\n      tag_683\n        /* \"#utility.yul\":28359:28360   */\n      dup4\n        /* \"#utility.yul\":28341:28361   */\n      tag_332\n      jump\t// in\n    tag_683:\n        /* \"#utility.yul\":28336:28361   */\n      swap3\n      pop\n        /* \"#utility.yul\":28385:28386   */\n      dup3\n        /* \"#utility.yul\":28382:28383   */\n      dup3\n        /* \"#utility.yul\":28378:28387   */\n      sub\n        /* \"#utility.yul\":28370:28387   */\n      swap1\n      pop\n        /* \"#utility.yul\":28409:28410   */\n      dup2\n        /* \"#utility.yul\":28403:28407   */\n      dup2\n        /* \"#utility.yul\":28400:28411   */\n      gt\n        /* \"#utility.yul\":28397:28434   */\n      iszero\n      tag_684\n      jumpi\n        /* \"#utility.yul\":28414:28432   */\n      tag_685\n      tag_377\n      jump\t// in\n    tag_685:\n        /* \"#utility.yul\":28397:28434   */\n    tag_684:\n        /* \"#utility.yul\":28247:28441   */\n      swap3\n      swap2\n      pop\n      pop\n      jump\t// out\n        /* \"#utility.yul\":28447:28627   */\n    tag_378:\n        /* \"#utility.yul\":28495:28572   */\n      0x4e487b7100000000000000000000000000000000000000000000000000000000\n        /* \"#utility.yul\":28492:28493   */\n      0x00\n        /* \"#utility.yul\":28485:28573   */\n      mstore\n        /* \"#utility.yul\":28592:28596   */\n      0x12\n        /* \"#utility.yul\":28589:28590   */\n      0x04\n        /* \"#utility.yul\":28582:28597   */\n      mstore\n        /* \"#utility.yul\":28616:28620   */\n      0x24\n        /* \"#utility.yul\":28613:28614   */\n      0x00\n        /* \"#utility.yul\":28606:28621   */\n      revert\n        /* \"#utility.yul\":28633:28809   */\n    tag_146:\n        /* \"#utility.yul\":28665:28666   */\n      0x00\n        /* \"#utility.yul\":28682:28702   */\n      tag_688\n        /* \"#utility.yul\":28700:28701   */\n      dup3\n        /* \"#utility.yul\":28682:28702   */\n      tag_332\n      jump\t// in\n    tag_688:\n        /* \"#utility.yul\":28677:28702   */\n      swap2\n      pop\n        /* \"#utility.yul\":28716:28736   */\n      tag_689\n        /* \"#utility.yul\":28734:28735   */\n      dup4\n        /* \"#utility.yul\":28716:28736   */\n      tag_332\n      jump\t// in\n    tag_689:\n        /* \"#utility.yul\":28711:28736   */\n      swap3\n      pop\n        /* \"#utility.yul\":28755:28756   */\n      dup3\n        /* \"#utility.yul\":28745:28780   */\n      tag_690\n      jumpi\n        /* \"#utility.yul\":28760:28778   */\n      tag_691\n      tag_378\n      jump\t// in\n    tag_691:\n        /* \"#utility.yul\":28745:28780   */\n    tag_690:\n        /* \"#utility.yul\":28801:28802   */\n      dup3\n        /* \"#utility.yul\":28798:28799   */\n      dup3\n        /* \"#utility.yul\":28794:28803   */\n      mod\n        /* \"#utility.yul\":28789:28803   */\n      swap1\n      pop\n        /* \"#utility.yul\":28633:28809   */\n      swap3\n      swap2\n      pop\n      pop\n      jump\t// out\n        /* \"#utility.yul\":28815:29006   */\n    tag_151:\n        /* \"#utility.yul\":28855:28858   */\n      0x00\n        /* \"#utility.yul\":28874:28894   */\n      tag_693\n        /* \"#utility.yul\":28892:28893   */\n      dup3\n        /* \"#utility.yul\":28874:28894   */\n      tag_332\n      jump\t// in\n    tag_693:\n        /* \"#utility.yul\":28869:28894   */\n      swap2\n      pop\n        /* \"#utility.yul\":28908:28928   */\n      tag_694\n        /* \"#utility.yul\":28926:28927   */\n      dup4\n        /* \"#utility.yul\":28908:28928   */\n      tag_332\n      jump\t// in\n    tag_694:\n        /* \"#utility.yul\":28903:28928   */\n      swap3\n      pop\n        /* \"#utility.yul\":28951:28952   */\n      dup3\n        /* \"#utility.yul\":28948:28949   */\n      dup3\n        /* \"#utility.yul\":28944:28953   */\n      add\n        /* \"#utility.yul\":28937:28953   */\n      swap1\n      pop\n        /* \"#utility.yul\":28972:28975   */\n      dup1\n        /* \"#utility.yul\":28969:28970   */\n      dup3\n        /* \"#utility.yul\":28966:28976   */\n      gt\n        /* \"#utility.yul\":28963:28999   */\n      iszero\n      tag_695\n      jumpi\n        /* \"#utility.yul\":28979:28997   */\n      tag_696\n      tag_377\n      jump\t// in\n    tag_696:\n        /* \"#utility.yul\":28963:28999   */\n    tag_695:\n        /* \"#utility.yul\":28815:29006   */\n      swap3\n      swap2\n      pop\n      pop\n      jump\t// out\n        /* \"#utility.yul\":29012:29181   */\n    tag_379:\n        /* \"#utility.yul\":29152:29173   */\n      0x4e6f646520646f6573206e6f7420657869737400000000000000000000000000\n        /* \"#utility.yul\":29148:29149   */\n      0x00\n        /* \"#utility.yul\":29140:29146   */\n      dup3\n        /* \"#utility.yul\":29136:29150   */\n      add\n        /* \"#utility.yul\":29129:29174   */\n      mstore\n        /* \"#utility.yul\":29012:29181   */\n      pop\n      jump\t// out\n        /* \"#utility.yul\":29187:29553   */\n    tag_380:\n        /* \"#utility.yul\":29329:29332   */\n      0x00\n        /* \"#utility.yul\":29350:29417   */\n      tag_699\n        /* \"#utility.yul\":29414:29416   */\n      0x13\n        /* \"#utility.yul\":29409:29412   */\n      dup4\n        /* \"#utility.yul\":29350:29417   */\n      tag_342\n      jump\t// in\n    tag_699:\n        /* \"#utility.yul\":29343:29417   */\n      swap2\n      pop\n        /* \"#utility.yul\":29426:29519   */\n      tag_700\n        /* \"#utility.yul\":29515:29518   */\n      dup3\n        /* \"#utility.yul\":29426:29519   */\n      tag_379\n      jump\t// in\n    tag_700:\n        /* \"#utility.yul\":29544:29546   */\n      0x20\n        /* \"#utility.yul\":29539:29542   */\n      dup3\n        /* \"#utility.yul\":29535:29547   */\n      add\n        /* \"#utility.yul\":29528:29547   */\n      swap1\n      pop\n        /* \"#utility.yul\":29187:29553   */\n      swap2\n      swap1\n      pop\n      jump\t// out\n        /* \"#utility.yul\":29559:29978   */\n    tag_171:\n        /* \"#utility.yul\":29725:29729   */\n      0x00\n        /* \"#utility.yul\":29763:29765   */\n      0x20\n        /* \"#utility.yul\":29752:29761   */\n      dup3\n        /* \"#utility.yul\":29748:29766   */\n      add\n        /* \"#utility.yul\":29740:29766   */\n      swap1\n      pop\n        /* \"#utility.yul\":29812:29821   */\n      dup2\n        /* \"#utility.yul\":29806:29810   */\n      dup2\n        /* \"#utility.yul\":29802:29822   */\n      sub\n        /* \"#utility.yul\":29798:29799   */\n      0x00\n        /* \"#utility.yul\":29787:29796   */\n      dup4\n        /* \"#utility.yul\":29783:29800   */\n      add\n        /* \"#utility.yul\":29776:29823   */\n      mstore\n        /* \"#utility.yul\":29840:29971   */\n      tag_702\n        /* \"#utility.yul\":29966:29970   */\n      dup2\n        /* \"#utility.yul\":29840:29971   */\n      tag_380\n      jump\t// in\n    tag_702:\n        /* \"#utility.yul\":29832:29971   */\n      swap1\n      pop\n        /* \"#utility.yul\":29559:29978   */\n      swap2\n      swap1\n      pop\n      jump\t// out\n        /* \"#utility.yul\":29984:30149   */\n    tag_381:\n        /* \"#utility.yul\":30124:30141   */\n      0x496e76616c69642066696c652069640000000000000000000000000000000000\n        /* \"#utility.yul\":30120:30121   */\n      0x00\n        /* \"#utility.yul\":30112:30118   */\n      dup3\n        /* \"#utility.yul\":30108:30122   */\n      add\n        /* \"#utility.yul\":30101:30142   */\n      mstore\n        /* \"#utility.yul\":29984:30149   */\n      pop\n      jump\t// out\n        /* \"#utility.yul\":30155:30521   */\n    tag_382:\n        /* \"#utility.yul\":30297:30300   */\n      0x00\n        /* \"#utility.yul\":30318:30385   */\n      tag_705\n        /* \"#utility.yul\":30382:30384   */\n      0x0f\n        /* \"#utility.yul\":30377:30380   */\n      dup4\n        /* \"#utility.yul\":30318:30385   */\n      tag_342\n      jump\t// in\n    tag_705:\n        /* \"#utility.yul\":30311:30385   */\n      swap2\n      pop\n        /* \"#utility.yul\":30394:30487   */\n      tag_706\n        /* \"#utility.yul\":30483:30486   */\n      dup3\n        /* \"#utility.yul\":30394:30487   */\n      tag_381\n      jump\t// in\n    tag_706:\n        /* \"#utility.yul\":30512:30514   */\n      0x20\n        /* \"#utility.yul\":30507:30510   */\n      dup3\n        /* \"#utility.yul\":30503:30515   */\n      add\n        /* \"#utility.yul\":30496:30515   */\n      swap1\n      pop\n        /* \"#utility.yul\":30155:30521   */\n      swap2\n      swap1\n      pop\n      jump\t// out\n        /* \"#utility.yul\":30527:30946   */\n    tag_177:\n        /* \"#utility.yul\":30693:30697   */\n      0x00\n        /* \"#utility.yul\":30731:30733   */\n      0x20\n        /* \"#utility.yul\":30720:30729   */\n      dup3\n        /* \"#utility.yul\":30716:30734   */\n      add\n        /* \"#utility.yul\":30708:30734   */\n      swap1\n      pop\n        /* \"#utility.yul\":30780:30789   */\n      dup2\n        /* \"#utility.yul\":30774:30778   */\n      dup2\n        /* \"#utility.yul\":30770:30790   */\n      sub\n        /* \"#utility.yul\":30766:30767   */\n      0x00\n        /* \"#utility.yul\":30755:30764   */\n      dup4\n        /* \"#utility.yul\":30751:30768   */\n      add\n        /* \"#utility.yul\":30744:30791   */\n      mstore\n        /* \"#utility.yul\":30808:30939   */\n      tag_708\n        /* \"#utility.yul\":30934:30938   */\n      dup2\n        /* \"#utility.yul\":30808:30939   */\n      tag_382\n      jump\t// in\n    tag_708:\n        /* \"#utility.yul\":30800:30939   */\n      swap1\n      pop\n        /* \"#utility.yul\":30527:30946   */\n      swap2\n      swap1\n      pop\n      jump\t// out\n        /* \"#utility.yul\":30952:31101   */\n    tag_383:\n        /* \"#utility.yul\":31001:31007   */\n      0x00\n        /* \"#utility.yul\":31035:31040   */\n      dup2\n        /* \"#utility.yul\":31029:31041   */\n      sload\n        /* \"#utility.yul\":31019:31041   */\n      swap1\n      pop\n        /* \"#utility.yul\":31061:31094   */\n      tag_710\n        /* \"#utility.yul\":31087:31093   */\n      dup2\n        /* \"#utility.yul\":31061:31094   */\n      tag_196\n      jump\t// in\n    tag_710:\n        /* \"#utility.yul\":31051:31094   */\n      swap1\n      pop\n        /* \"#utility.yul\":30952:31101   */\n      swap2\n      swap1\n      pop\n      jump\t// out\n        /* \"#utility.yul\":31107:32558   */\n    tag_217:\n        /* \"#utility.yul\":31218:31221   */\n      dup2\n        /* \"#utility.yul\":31212:31216   */\n      dup2\n        /* \"#utility.yul\":31209:31222   */\n      sub\n        /* \"#utility.yul\":31206:31232   */\n      tag_712\n      jumpi\n        /* \"#utility.yul\":31225:31230   */\n      pop\n      pop\n      jump(tag_711)\n        /* \"#utility.yul\":31206:31232   */\n    tag_712:\n        /* \"#utility.yul\":31256:31290   */\n      tag_713\n        /* \"#utility.yul\":31286:31289   */\n      dup3\n        /* \"#utility.yul\":31256:31290   */\n      tag_383\n      jump\t// in\n    tag_713:\n        /* \"#utility.yul\":31355:31373   */\n      0xffffffffffffffff\n        /* \"#utility.yul\":31347:31353   */\n      dup2\n        /* \"#utility.yul\":31344:31374   */\n      gt\n        /* \"#utility.yul\":31341:31397   */\n      iszero\n      tag_714\n      jumpi\n        /* \"#utility.yul\":31377:31395   */\n      tag_715\n      tag_314\n      jump\t// in\n    tag_715:\n        /* \"#utility.yul\":31341:31397   */\n    tag_714:\n        /* \"#utility.yul\":31421:31459   */\n      tag_716\n        /* \"#utility.yul\":31453:31457   */\n      dup3\n        /* \"#utility.yul\":31447:31458   */\n      sload\n        /* \"#utility.yul\":31421:31459   */\n      tag_196\n      jump\t// in\n    tag_716:\n        /* \"#utility.yul\":31506:31573   */\n      tag_717\n        /* \"#utility.yul\":31566:31572   */\n      dup3\n        /* \"#utility.yul\":31558:31564   */\n      dup3\n        /* \"#utility.yul\":31552:31556   */\n      dup6\n        /* \"#utility.yul\":31506:31573   */\n      tag_366\n      jump\t// in\n    tag_717:\n        /* \"#utility.yul\":31600:31601   */\n      0x00\n        /* \"#utility.yul\":31629:31631   */\n      0x1f\n        /* \"#utility.yul\":31621:31627   */\n      dup4\n        /* \"#utility.yul\":31618:31632   */\n      gt\n        /* \"#utility.yul\":31646:31647   */\n      0x01\n        /* \"#utility.yul\":31641:32313   */\n      dup2\n      eq\n      tag_719\n      jumpi\n        /* \"#utility.yul\":32357:32358   */\n      0x00\n        /* \"#utility.yul\":32374:32380   */\n      dup5\n        /* \"#utility.yul\":32371:32448   */\n      iszero\n      tag_720\n      jumpi\n        /* \"#utility.yul\":32423:32432   */\n      dup3\n        /* \"#utility.yul\":32418:32421   */\n      dup8\n        /* \"#utility.yul\":32414:32433   */\n      add\n        /* \"#utility.yul\":32408:32434   */\n      sload\n        /* \"#utility.yul\":32399:32434   */\n      swap1\n      pop\n        /* \"#utility.yul\":32371:32448   */\n    tag_720:\n        /* \"#utility.yul\":32474:32541   */\n      tag_721\n        /* \"#utility.yul\":32534:32540   */\n      dup6\n        /* \"#utility.yul\":32527:32532   */\n      dup3\n        /* \"#utility.yul\":32474:32541   */\n      tag_369\n      jump\t// in\n    tag_721:\n        /* \"#utility.yul\":32468:32472   */\n      dup7\n        /* \"#utility.yul\":32461:32542   */\n      sstore\n        /* \"#utility.yul\":32330:32552   */\n      pop\n        /* \"#utility.yul\":31611:32552   */\n      jump(tag_718)\n        /* \"#utility.yul\":31641:32313   */\n    tag_719:\n        /* \"#utility.yul\":31693:31697   */\n      0x1f\n        /* \"#utility.yul\":31689:31698   */\n      not\n        /* \"#utility.yul\":31681:31687   */\n      dup5\n        /* \"#utility.yul\":31677:31699   */\n      and\n        /* \"#utility.yul\":31719:31755   */\n      tag_722\n        /* \"#utility.yul\":31751:31754   */\n      dup8\n        /* \"#utility.yul\":31719:31755   */\n      tag_355\n      jump\t// in\n    tag_722:\n        /* \"#utility.yul\":31712:31755   */\n      swap7\n      pop\n        /* \"#utility.yul\":31782:31819   */\n      tag_723\n        /* \"#utility.yul\":31814:31818   */\n      dup7\n        /* \"#utility.yul\":31782:31819   */\n      tag_355\n      jump\t// in\n    tag_723:\n        /* \"#utility.yul\":31841:31842   */\n      0x00\n        /* \"#utility.yul\":31855:32062   */\n    tag_724:\n        /* \"#utility.yul\":31869:31876   */\n      dup3\n        /* \"#utility.yul\":31866:31867   */\n      dup2\n        /* \"#utility.yul\":31863:31877   */\n      lt\n        /* \"#utility.yul\":31855:32062   */\n      iszero\n      tag_726\n      jumpi\n        /* \"#utility.yul\":31948:31957   */\n      dup5\n        /* \"#utility.yul\":31943:31946   */\n      dup10\n        /* \"#utility.yul\":31939:31958   */\n      add\n        /* \"#utility.yul\":31933:31959   */\n      sload\n        /* \"#utility.yul\":31925:31931   */\n      dup3\n        /* \"#utility.yul\":31918:31960   */\n      sstore\n        /* \"#utility.yul\":31999:32000   */\n      0x01\n        /* \"#utility.yul\":31991:31997   */\n      dup3\n        /* \"#utility.yul\":31987:32001   */\n      add\n        /* \"#utility.yul\":31977:32001   */\n      swap2\n      pop\n        /* \"#utility.yul\":32046:32047   */\n      0x01\n        /* \"#utility.yul\":32035:32044   */\n      dup6\n        /* \"#utility.yul\":32031:32048   */\n      add\n        /* \"#utility.yul\":32018:32048   */\n      swap5\n      pop\n        /* \"#utility.yul\":31892:31896   */\n      0x20\n        /* \"#utility.yul\":31889:31890   */\n      dup2\n        /* \"#utility.yul\":31885:31897   */\n      add\n        /* \"#utility.yul\":31880:31897   */\n      swap1\n      pop\n        /* \"#utility.yul\":31855:32062   */\n      jump(tag_724)\n    tag_726:\n        /* \"#utility.yul\":32090:32096   */\n      dup7\n        /* \"#utility.yul\":32081:32088   */\n      dup4\n        /* \"#utility.yul\":32078:32097   */\n      lt\n        /* \"#utility.yul\":32075:32254   */\n      iszero\n      tag_727\n      jumpi\n        /* \"#utility.yul\":32148:32157   */\n      dup5\n        /* \"#utility.yul\":32143:32146   */\n      dup10\n        /* \"#utility.yul\":32139:32158   */\n      add\n        /* \"#utility.yul\":32133:32159   */\n      sload\n        /* \"#utility.yul\":32191:32239   */\n      tag_728\n        /* \"#utility.yul\":32233:32237   */\n      0x1f\n        /* \"#utility.yul\":32225:32231   */\n      dup10\n        /* \"#utility.yul\":32221:32238   */\n      and\n        /* \"#utility.yul\":32210:32219   */\n      dup3\n        /* \"#utility.yul\":32191:32239   */\n      tag_368\n      jump\t// in\n    tag_728:\n        /* \"#utility.yul\":32183:32189   */\n      dup4\n        /* \"#utility.yul\":32176:32240   */\n      sstore\n        /* \"#utility.yul\":32098:32254   */\n      pop\n        /* \"#utility.yul\":32075:32254   */\n    tag_727:\n        /* \"#utility.yul\":32300:32301   */\n      0x01\n        /* \"#utility.yul\":32296:32297   */\n      0x02\n        /* \"#utility.yul\":32288:32294   */\n      dup9\n        /* \"#utility.yul\":32284:32298   */\n      mul\n        /* \"#utility.yul\":32280:32302   */\n      add\n        /* \"#utility.yul\":32274:32278   */\n      dup9\n        /* \"#utility.yul\":32267:32303   */\n      sstore\n        /* \"#utility.yul\":31648:32313   */\n      pop\n      pop\n      pop\n        /* \"#utility.yul\":31611:32552   */\n    tag_718:\n      pop\n        /* \"#utility.yul\":31196:32558   */\n      pop\n      pop\n      pop\n        /* \"#utility.yul\":31107:32558   */\n      pop\n      pop\n    tag_711:\n      jump\t// out\n        /* \"#utility.yul\":32564:32744   */\n    tag_231:\n        /* \"#utility.yul\":32612:32689   */\n      0x4e487b7100000000000000000000000000000000000000000000000000000000\n        /* \"#utility.yul\":32609:32610   */\n      0x00\n        /* \"#utility.yul\":32602:32690   */\n      mstore\n        /* \"#utility.yul\":32709:32713   */\n      0x31\n        /* \"#utility.yul\":32706:32707   */\n      0x04\n        /* \"#utility.yul\":32699:32714   */\n      mstore\n        /* \"#utility.yul\":32733:32737   */\n      0x24\n        /* \"#utility.yul\":32730:32731   */\n      0x00\n        /* \"#utility.yul\":32723:32738   */\n      revert\n        /* \"#utility.yul\":32750:32983   */\n    tag_249:\n        /* \"#utility.yul\":32789:32792   */\n      0x00\n        /* \"#utility.yul\":32812:32836   */\n      tag_731\n        /* \"#utility.yul\":32830:32835   */\n      dup3\n        /* \"#utility.yul\":32812:32836   */\n      tag_332\n      jump\t// in\n    tag_731:\n        /* \"#utility.yul\":32803:32836   */\n      swap2\n      pop\n        /* \"#utility.yul\":32858:32924   */\n      0xffffffffffffffffffffffffffffffffffffffffffffffffffffffffffffffff\n        /* \"#utility.yul\":32851:32856   */\n      dup3\n        /* \"#utility.yul\":32848:32925   */\n      sub\n        /* \"#utility.yul\":32845:32948   */\n      tag_732\n      jumpi\n        /* \"#utility.yul\":32928:32946   */\n      tag_733\n      tag_377\n      jump\t// in\n    tag_733:\n        /* \"#utility.yul\":32845:32948   */\n    tag_732:\n        /* \"#utility.yul\":32975:32976   */\n      0x01\n        /* \"#utility.yul\":32968:32973   */\n      dup3\n        /* \"#utility.yul\":32964:32977   */\n      add\n        /* \"#utility.yul\":32957:32977   */\n      swap1\n      pop\n        /* \"#utility.yul\":32750:32983   */\n      swap2\n      swap1\n      pop\n      jump\t// out\n        /* \"#utility.yul\":32989:33157   */\n    tag_384:\n        /* \"#utility.yul\":33129:33149   */\n      0x4e6f20617661696c61626c65206e6f6465730000000000000000000000000000\n        /* \"#utility.yul\":33125:33126   */\n      0x00\n        /* \"#utility.yul\":33117:33123   */\n      dup3\n        /* \"#utility.yul\":33113:33127   */\n      add\n        /* \"#utility.yul\":33106:33150   */\n      mstore\n        /* \"#utility.yul\":32989:33157   */\n      pop\n      jump\t// out\n        /* \"#utility.yul\":33163:33529   */\n    tag_385:\n        /* \"#utility.yul\":33305:33308   */\n      0x00\n        /* \"#utility.yul\":33326:33393   */\n      tag_736\n        /* \"#utility.yul\":33390:33392   */\n      0x12\n        /* \"#utility.yul\":33385:33388   */\n      dup4\n        /* \"#utility.yul\":33326:33393   */\n      tag_342\n      jump\t// in\n    tag_736:\n        /* \"#utility.yul\":33319:33393   */\n      swap2\n      pop\n        /* \"#utility.yul\":33402:33495   */\n      tag_737\n        /* \"#utility.yul\":33491:33494   */\n      dup3\n        /* \"#utility.yul\":33402:33495   */\n      tag_384\n      jump\t// in\n    tag_737:\n        /* \"#utility.yul\":33520:33522   */\n      0x20\n        /* \"#utility.yul\":33515:33518   */\n      dup3\n        /* \"#utility.yul\":33511:33523   */\n      add\n        /* \"#utility.yul\":33504:33523   */\n      swap1\n      pop\n        /* \"#utility.yul\":33163:33529   */\n      swap2\n      swap1\n      pop\n      jump\t// out\n        /* \"#utility.yul\":33535:33954   */\n    tag_253:\n        /* \"#utility.yul\":33701:33705   */\n      0x00\n        /* \"#utility.yul\":33739:33741   */\n      0x20\n        /* \"#utility.yul\":33728:33737   */\n      dup3\n        /* \"#utility.yul\":33724:33742   */\n      add\n        /* \"#utility.yul\":33716:33742   */\n      swap1\n      pop\n        /* \"#utility.yul\":33788:33797   */\n      dup2\n        /* \"#utility.yul\":33782:33786   */\n      dup2\n        /* \"#utility.yul\":33778:33798   */\n      sub\n        /* \"#utility.yul\":33774:33775   */\n      0x00\n        /* \"#utility.yul\":33763:33772   */\n      dup4\n        /* \"#utility.yul\":33759:33776   */\n      add\n        /* \"#utility.yul\":33752:33799   */\n      mstore\n        /* \"#utility.yul\":33816:33947   */\n      tag_739\n        /* \"#utility.yul\":33942:33946   */\n      dup2\n        /* \"#utility.yul\":33816:33947   */\n      tag_385\n      jump\t// in\n    tag_739:\n        /* \"#utility.yul\":33808:33947   */\n      swap1\n      pop\n        /* \"#utility.yul\":33535:33954   */\n      swap2\n      swap1\n      pop\n      jump\t// out\n        /* \"#utility.yul\":33960:34180   */\n    tag_386:\n        /* \"#utility.yul\":34100:34134   */\n      0x556e61757468656e74696361746564206f722066696c65206e6f7420666f756e\n        /* \"#utility.yul\":34096:34097   */\n      0x00\n        /* \"#utility.yul\":34088:34094   */\n      dup3\n        /* \"#utility.yul\":34084:34098   */\n      add\n        /* \"#utility.yul\":34077:34135   */\n      mstore\n        /* \"#utility.yul\":34169:34172   */\n      0x6400000000000000000000000000000000000000000000000000000000000000\n        /* \"#utility.yul\":34164:34166   */\n      0x20\n        /* \"#utility.yul\":34156:34162   */\n      dup3\n        /* \"#utility.yul\":34152:34167   */\n      add\n        /* \"#utility.yul\":34145:34173   */\n      mstore\n        /* \"#utility.yul\":33960:34180   */\n      pop\n      jump\t// out\n        /* \"#utility.yul\":34186:34552   */\n    tag_387:\n        /* \"#utility.yul\":34328:34331   */\n      0x00\n        /* \"#utility.yul\":34349:34416   */\n      tag_742\n        /* \"#utility.yul\":34413:34415   */\n      0x21\n        /* \"#utility.yul\":34408:34411   */\n      dup4\n        /* \"#utility.yul\":34349:34416   */\n      tag_342\n      jump\t// in\n    tag_742:\n        /* \"#utility.yul\":34342:34416   */\n      swap2\n      pop\n        /* \"#utility.yul\":34425:34518   */\n      tag_743\n        /* \"#utility.yul\":34514:34517   */\n      dup3\n        /* \"#utility.yul\":34425:34518   */\n      tag_386\n      jump\t// in\n    tag_743:\n        /* \"#utility.yul\":34543:34545   */\n      0x40\n        /* \"#utility.yul\":34538:34541   */\n      dup3\n        /* \"#utility.yul\":34534:34546   */\n      add\n        /* \"#utility.yul\":34527:34546   */\n      swap1\n      pop\n        /* \"#utility.yul\":34186:34552   */\n      swap2\n      swap1\n      pop\n      jump\t// out\n        /* \"#utility.yul\":34558:34977   */\n    tag_278:\n        /* \"#utility.yul\":34724:34728   */\n      0x00\n        /* \"#utility.yul\":34762:34764   */\n      0x20\n        /* \"#utility.yul\":34751:34760   */\n      dup3\n        /* \"#utility.yul\":34747:34765   */\n      add\n        /* \"#utility.yul\":34739:34765   */\n      swap1\n      pop\n        /* \"#utility.yul\":34811:34820   */\n      dup2\n        /* \"#utility.yul\":34805:34809   */\n      dup2\n        /* \"#utility.yul\":34801:34821   */\n      sub\n        /* \"#utility.yul\":34797:34798   */\n      0x00\n        /* \"#utility.yul\":34786:34795   */\n      dup4\n        /* \"#utility.yul\":34782:34799   */\n      add\n        /* \"#utility.yul\":34775:34822   */\n      mstore\n        /* \"#utility.yul\":34839:34970   */\n      tag_745\n        /* \"#utility.yul\":34965:34969   */\n      dup2\n        /* \"#utility.yul\":34839:34970   */\n      tag_387\n      jump\t// in\n    tag_745:\n        /* \"#utility.yul\":34831:34970   */\n      swap1\n      pop\n        /* \"#utility.yul\":34558:34977   */\n      swap2\n      swap1\n      pop\n      jump\t// out\n\n    auxdata: 0xa2646970667358221220747fea673b810a75e47b1783d7f710cdd022962399306cbd9ef53f7717ad478064736f6c63430008160033\n}\n",
				"bytecode": {
					"linkReferences": {},
					"object": "608060405260035f556064600155348015610018575f80fd5b503360055f6101000a81548173ffffffffffffffffffffffffffffffffffffffff021916908373ffffffffffffffffffffffffffffffffffffffff160217905550612eb5806100665f395ff3fe608060405234801561000f575f80fd5b506004361061011f575f3560e01c8063912bb1fb116100ab578063c5b420061161006f578063c5b420061461032a578063cf86bf9314610346578063e036004c14610364578063e316e85c14610394578063fe72ae13146103c45761011f565b8063912bb1fb14610288578063a1174e7d146102a4578063a9860308146102c2578063b49f33c8146102f2578063b65814a61461030e5761011f565b80632a85be1e116100f25780632a85be1e146101bc57806350f1c985146101ec5780635ffd7c061461021c57806364f0c0b81461023a5780638da5cb5b1461026a5761011f565b806309fbf55a1461012357806311bd77fe1461013f578063189a5a171461015b578063196815d21461018c575b5f80fd5b61013d60048036038101906101389190611f25565b6103f4565b005b61015960048036038101906101549190612032565b610654565b005b61017560048036038101906101709190612070565b61083d565b6040516101839291906120b9565b60405180910390f35b6101a660048036038101906101a191906121be565b61087c565b6040516101b39190612214565b60405180910390f35b6101d660048036038101906101d1919061222d565b6108f6565b6040516101e39190612301565b60405180910390f35b6102066004803603810190610201919061222d565b6108fe565b6040516102139190612301565b60405180910390f35b610224610906565b6040516102319190612321565b60405180910390f35b610254600480360381019061024f919061233a565b61090b565b6040516102619190612365565b60405180910390f35b610272610a23565b60405161027f9190612365565b60405180910390f35b6102a2600480360381019061029d919061237e565b610a48565b005b6102ac610ab3565b6040516102b99190612473565b60405180910390f35b6102dc60048036038101906102d79190612070565b610b3e565b6040516102e991906124cf565b60405180910390f35b61030c60048036038101906103079190612032565b610bf3565b005b6103286004803603810190610323919061222d565b610d08565b005b610344600480360381019061033f919061233a565b610d0c565b005b61034e6114d5565b60405161035b9190612321565b60405180910390f35b61037e600480360381019061037991906124e8565b6114db565b60405161038b9190612473565b60405180910390f35b6103ae60048036038101906103a9919061233a565b611870565b6040516103bb9190612214565b60405180910390f35b6103de60048036038101906103d9919061233a565b6119c2565b6040516103eb9190612365565b60405180910390f35b5f73ffffffffffffffffffffffffffffffffffffffff163373ffffffffffffffffffffffffffffffffffffffff160361042b575f80fd5b5f865111610437575f80fd5b5f875111610443575f80fd5b5f602060ff1611610452575f80fd5b5f83511161045e575f80fd5b5f8111610469575f80fd5b5f8211610474575f80fd5b60075f6104819190611a7b565b60065f3373ffffffffffffffffffffffffffffffffffffffff1673ffffffffffffffffffffffffffffffffffffffff1681526020019081526020015f206040518061012001604052808481526020018981526020018881526020018781526020018381526020014281526020013373ffffffffffffffffffffffffffffffffffffffff16815260200186815260200185815250908060018154018082558091505060019003905f5260205f2090600902015f909190919091505f820151815f0155602082015181600101908161055791906127db565b50604082015181600201908161056d91906127db565b50606082015181600301556080820151816004015560a0820151816005015560c0820151816006015f6101000a81548173ffffffffffffffffffffffffffffffffffffffff021916908373ffffffffffffffffffffffffffffffffffffffff16021790555060e08201518160070190816105e791906127db565b50610100820151816008019080519060200190610605929190611a99565b5050507fb3d6f1092c4206972e91a35451f2ad4593efe995b5c5814ec418c5996f09b4cb8288888885423360405161064397969594939291906128aa565b60405180910390a150505050505050565b5f73ffffffffffffffffffffffffffffffffffffffff1660035f8473ffffffffffffffffffffffffffffffffffffffff1673ffffffffffffffffffffffffffffffffffffffff1681526020019081526020015f205f015f9054906101000a900473ffffffffffffffffffffffffffffffffffffffff1673ffffffffffffffffffffffffffffffffffffffff1614610720576040517f08c379a00000000000000000000000000000000000000000000000000000000081526004016107179061296f565b60405180910390fd5b60405180604001604052808373ffffffffffffffffffffffffffffffffffffffff1681526020018281525060035f8473ffffffffffffffffffffffffffffffffffffffff1673ffffffffffffffffffffffffffffffffffffffff1681526020019081526020015f205f820151815f015f6101000a81548173ffffffffffffffffffffffffffffffffffffffff021916908373ffffffffffffffffffffffffffffffffffffffff16021790555060208201518160010155905050600482908060018154018082558091505060019003905f5260205f20015f9091909190916101000a81548173ffffffffffffffffffffffffffffffffffffffff021916908373ffffffffffffffffffffffffffffffffffffffff1602179055505050565b6003602052805f5260405f205f91509050805f015f9054906101000a900473ffffffffffffffffffffffffffffffffffffffff16908060010154905082565b5f8060405180602001604052805f81525090505f5b83518110156108e557818482815181106108ae576108ad61298d565b5b60200260200101516040516020016108c7929190612a38565b60405160208183030381529060405291508080600101915050610891565b508080519060200120915050919050565b606092915050565b606092915050565b5f5481565b5f8060048054905090505f603290505f820361092b575f92505050610a1e565b5f8260014361093a9190612a88565b405f1c6109479190612ae8565b90505f5b83811015610a16575f60048583856109639190612b18565b61096d9190612ae8565b8154811061097e5761097d61298d565b5b905f5260205f20015f9054906101000a900473ffffffffffffffffffffffffffffffffffffffff16905083876109b49190612b18565b60035f8373ffffffffffffffffffffffffffffffffffffffff1673ffffffffffffffffffffffffffffffffffffffff1681526020019081526020015f20600101541115610a08578095505050505050610a1e565b50808060010191505061094b565b505f93505050505b919050565b60055f9054906101000a900473ffffffffffffffffffffffffffffffffffffffff1681565b5f73ffffffffffffffffffffffffffffffffffffffff163373ffffffffffffffffffffffffffffffffffffffff1603610a7f575f80fd5b5f602060ff1611610a8e575f80fd5b5f8111610a99575f80fd5b8160025f8381526020019081526020015f20819055505050565b60606004805480602002602001604051908101604052809291908181526020018280548015610b3457602002820191905f5260205f20905b815f9054906101000a900473ffffffffffffffffffffffffffffffffffffffff1673ffffffffffffffffffffffffffffffffffffffff1681526020019060010190808311610aeb575b5050505050905090565b610b46611b20565b60035f8373ffffffffffffffffffffffffffffffffffffffff1673ffffffffffffffffffffffffffffffffffffffff1681526020019081526020015f206040518060400160405290815f82015f9054906101000a900473ffffffffffffffffffffffffffffffffffffffff1673ffffffffffffffffffffffffffffffffffffffff1673ffffffffffffffffffffffffffffffffffffffff1681526020016001820154815250509050919050565b5f73ffffffffffffffffffffffffffffffffffffffff1660035f8473ffffffffffffffffffffffffffffffffffffffff1673ffffffffffffffffffffffffffffffffffffffff1681526020019081526020015f205f015f9054906101000a900473ffffffffffffffffffffffffffffffffffffffff1673ffffffffffffffffffffffffffffffffffffffff1603610cbf576040517f08c379a0000000000000000000000000000000000000000000000000000000008152600401610cb690612b95565b60405180910390fd5b8060035f8473ffffffffffffffffffffffffffffffffffffffff1673ffffffffffffffffffffffffffffffffffffffff1681526020019081526020015f20600101819055505050565b5050565b5f8110158015610d5b57505f60065f3373ffffffffffffffffffffffffffffffffffffffff1673ffffffffffffffffffffffffffffffffffffffff1681526020019081526020015f2080549050115b610d9a576040517f08c379a0000000000000000000000000000000000000000000000000000000008152600401610d9190612bfd565b60405180910390fd5b5f60065f3373ffffffffffffffffffffffffffffffffffffffff1673ffffffffffffffffffffffffffffffffffffffff1681526020019081526020015f2090505f60018280549050610dec9190612a88565b90508083146113b6575f828281548110610e0957610e0861298d565b5b905f5260205f2090600902019050610e1f611b4e565b5f5b84805490508110156111475785858281548110610e4157610e4061298d565b5b905f5260205f2090600902015f01540361113a57848181548110610e6857610e6761298d565b5b905f5260205f209060090201604051806101200160405290815f8201548152602001600182018054610e999061260e565b80601f0160208091040260200160405190810160405280929190818152602001828054610ec59061260e565b8015610f105780601f10610ee757610100808354040283529160200191610f10565b820191905f5260205f20905b815481529060010190602001808311610ef357829003601f168201915b50505050508152602001600282018054610f299061260e565b80601f0160208091040260200160405190810160405280929190818152602001828054610f559061260e565b8015610fa05780601f10610f7757610100808354040283529160200191610fa0565b820191905f5260205f20905b815481529060010190602001808311610f8357829003601f168201915b50505050508152602001600382015481526020016004820154815260200160058201548152602001600682015f9054906101000a900473ffffffffffffffffffffffffffffffffffffffff1673ffffffffffffffffffffffffffffffffffffffff1673ffffffffffffffffffffffffffffffffffffffff16815260200160078201805461102c9061260e565b80601f01602080910402602001604051908101604052809291908181526020018280546110589061260e565b80156110a35780601f1061107a576101008083540402835291602001916110a3565b820191905f5260205f20905b81548152906001019060200180831161108657829003601f168201915b505050505081526020016008820180548060200260200160405190810160405280929190818152602001828054801561112e57602002820191905f5260205f20905b815f9054906101000a900473ffffffffffffffffffffffffffffffffffffffff1673ffffffffffffffffffffffffffffffffffffffff16815260200190600101908083116110e5575b50505050508152505091505b8080600101915050610e21565b508160065f3373ffffffffffffffffffffffffffffffffffffffff1673ffffffffffffffffffffffffffffffffffffffff1681526020019081526020015f2086815481106111985761119761298d565b5b905f5260205f2090600902015f820154815f0155600182018160010190816111c09190612c30565b50600282018160020190816111d59190612c30565b50600382015481600301556004820154816004015560058201548160050155600682015f9054906101000a900473ffffffffffffffffffffffffffffffffffffffff16816006015f6101000a81548173ffffffffffffffffffffffffffffffffffffffff021916908373ffffffffffffffffffffffffffffffffffffffff1602179055506007820181600701908161126d9190612c30565b506008820181600801908054611284929190611bae565b509050508060065f3373ffffffffffffffffffffffffffffffffffffffff1673ffffffffffffffffffffffffffffffffffffffff1681526020019081526020015f2084815481106112d8576112d761298d565b5b905f5260205f2090600902015f820151815f0155602082015181600101908161130191906127db565b50604082015181600201908161131791906127db565b50606082015181600301556080820151816004015560a0820151816005015560c0820151816006015f6101000a81548173ffffffffffffffffffffffffffffffffffffffff021916908373ffffffffffffffffffffffffffffffffffffffff16021790555060e082015181600701908161139191906127db565b506101008201518160080190805190602001906113af929190611a99565b5090505050505b60065f3373ffffffffffffffffffffffffffffffffffffffff1673ffffffffffffffffffffffffffffffffffffffff1681526020019081526020015f2080548061140357611402612d15565b5b600190038181905f5260205f2090600902015f8082015f9055600182015f61142b9190611bfc565b600282015f61143a9190611bfc565b600382015f9055600482015f9055600582015f9055600682015f6101000a81549073ffffffffffffffffffffffffffffffffffffffff0219169055600782015f6114849190611bfc565b600882015f6114939190611a7b565b505090557f9bdfc616f8d66684206a96d723683e9370e718e7ccf00ad6bf94a8adf5efdf9c33846040516114c89291906120b9565b60405180910390a1505050565b60015481565b60605f5b8751811015611736575f8882815181106114fc576114fb61298d565b5b60200260200101515190505f8080549050600360048054905010156115245760048054905090505b5b8082101561172657818061153890612d42565b9250505f6115458461090b565b90505f73ffffffffffffffffffffffffffffffffffffffff168173ffffffffffffffffffffffffffffffffffffffff16036115b5576040517f08c379a00000000000000000000000000000000000000000000000000000000081526004016115ac90612dd3565b60405180910390fd5b61164281600780548060200260200160405190810160405280929190818152602001828054801561163857602002820191905f5260205f20905b815f9054906101000a900473ffffffffffffffffffffffffffffffffffffffff1673ffffffffffffffffffffffffffffffffffffffff16815260200190600101908083116115ef575b50505050506119fd565b6116a757600781908060018154018082558091505060019003905f5260205f20015f9091909190916101000a81548173ffffffffffffffffffffffffffffffffffffffff021916908373ffffffffffffffffffffffffffffffffffffffff1602179055505b6116cb818d87815181106116be576116bd61298d565b5b6020026020010151610d08565b611720818560035f8573ffffffffffffffffffffffffffffffffffffffff1673ffffffffffffffffffffffffffffffffffffffff1681526020019081526020015f206001015461171b9190612a88565b610bf3565b50611525565b50505080806001019150506114df565b505f6117418861087c565b905061174d8185610a48565b6117df8787838860078054806020026020016040519081016040528092919081815260200182805480156117d357602002820191905f5260205f20905b815f9054906101000a900473ffffffffffffffffffffffffffffffffffffffff1673ffffffffffffffffffffffffffffffffffffffff168152602001906001019080831161178a575b505050505089896103f4565b600780548060200260200160405190810160405280929190818152602001828054801561185e57602002820191905f5260205f20905b815f9054906101000a900473ffffffffffffffffffffffffffffffffffffffff1673ffffffffffffffffffffffffffffffffffffffff1681526020019060010190808311611815575b50505050509150509695505050505050565b5f3373ffffffffffffffffffffffffffffffffffffffff1660065f3373ffffffffffffffffffffffffffffffffffffffff1673ffffffffffffffffffffffffffffffffffffffff1681526020019081526020015f2083815481106118d7576118d661298d565b5b905f5260205f2090600902016006015f9054906101000a900473ffffffffffffffffffffffffffffffffffffffff1673ffffffffffffffffffffffffffffffffffffffff161461195c576040517f08c379a000000000000000000000000000000000000000000000000000000000815260040161195390612e61565b60405180910390fd5b60065f3373ffffffffffffffffffffffffffffffffffffffff1673ffffffffffffffffffffffffffffffffffffffff1681526020019081526020015f2082815481106119ab576119aa61298d565b5b905f5260205f209060090201600301549050919050565b600481815481106119d1575f80fd5b905f5260205f20015f915054906101000a900473ffffffffffffffffffffffffffffffffffffffff1681565b5f805f90505b8251811015611a70578373ffffffffffffffffffffffffffffffffffffffff16838281518110611a3657611a3561298d565b5b602002602001015173ffffffffffffffffffffffffffffffffffffffff1603611a63576001915050611a75565b8080600101915050611a03565b505f90505b92915050565b5080545f8255905f5260205f2090810190611a969190611c39565b50565b828054828255905f5260205f20908101928215611b0f579160200282015b82811115611b0e578251825f6101000a81548173ffffffffffffffffffffffffffffffffffffffff021916908373ffffffffffffffffffffffffffffffffffffffff16021790555091602001919060010190611ab7565b5b509050611b1c9190611c39565b5090565b60405180604001604052805f73ffffffffffffffffffffffffffffffffffffffff1681526020015f81525090565b6040518061012001604052805f815260200160608152602001606081526020015f80191681526020015f81526020015f81526020015f73ffffffffffffffffffffffffffffffffffffffff16815260200160608152602001606081525090565b828054828255905f5260205f20908101928215611beb575f5260205f209182015b82811115611bea578254825591600101919060010190611bcf565b5b509050611bf89190611c39565b5090565b508054611c089061260e565b5f825580601f10611c195750611c36565b601f0160209004905f5260205f2090810190611c359190611c39565b5b50565b5b80821115611c50575f815f905550600101611c3a565b5090565b5f604051905090565b5f80fd5b5f80fd5b5f80fd5b5f80fd5b5f601f19601f8301169050919050565b7f4e487b71000000000000000000000000000000000000000000000000000000005f52604160045260245ffd5b611cb382611c6d565b810181811067ffffffffffffffff82111715611cd257611cd1611c7d565b5b80604052505050565b5f611ce4611c54565b9050611cf08282611caa565b919050565b5f67ffffffffffffffff821115611d0f57611d0e611c7d565b5b611d1882611c6d565b9050602081019050919050565b828183375f83830152505050565b5f611d45611d4084611cf5565b611cdb565b905082815260208101848484011115611d6157611d60611c69565b5b611d6c848285611d25565b509392505050565b5f82601f830112611d8857611d87611c65565b5b8135611d98848260208601611d33565b91505092915050565b5f819050919050565b611db381611da1565b8114611dbd575f80fd5b50565b5f81359050611dce81611daa565b92915050565b5f67ffffffffffffffff821115611dee57611ded611c7d565b5b602082029050602081019050919050565b5f80fd5b5f73ffffffffffffffffffffffffffffffffffffffff82169050919050565b5f611e2c82611e03565b9050919050565b611e3c81611e22565b8114611e46575f80fd5b50565b5f81359050611e5781611e33565b92915050565b5f611e6f611e6a84611dd4565b611cdb565b90508083825260208201905060208402830185811115611e9257611e91611dff565b5b835b81811015611ebb5780611ea78882611e49565b845260208401935050602081019050611e94565b5050509392505050565b5f82601f830112611ed957611ed8611c65565b5b8135611ee9848260208601611e5d565b91505092915050565b5f819050919050565b611f0481611ef2565b8114611f0e575f80fd5b50565b5f81359050611f1f81611efb565b92915050565b5f805f805f805f60e0888a031215611f4057611f3f611c5d565b5b5f88013567ffffffffffffffff811115611f5d57611f5c611c61565b5b611f698a828b01611d74565b975050602088013567ffffffffffffffff811115611f8a57611f89611c61565b5b611f968a828b01611d74565b9650506040611fa78a828b01611dc0565b955050606088013567ffffffffffffffff811115611fc857611fc7611c61565b5b611fd48a828b01611d74565b945050608088013567ffffffffffffffff811115611ff557611ff4611c61565b5b6120018a828b01611ec5565b93505060a06120128a828b01611f11565b92505060c06120238a828b01611f11565b91505092959891949750929550565b5f806040838503121561204857612047611c5d565b5b5f61205585828601611e49565b925050602061206685828601611f11565b9150509250929050565b5f6020828403121561208557612084611c5d565b5b5f61209284828501611e49565b91505092915050565b6120a481611e22565b82525050565b6120b381611ef2565b82525050565b5f6040820190506120cc5f83018561209b565b6120d960208301846120aa565b9392505050565b5f67ffffffffffffffff8211156120fa576120f9611c7d565b5b602082029050602081019050919050565b5f61211d612118846120e0565b611cdb565b905080838252602082019050602084028301858111156121405761213f611dff565b5b835b8181101561218757803567ffffffffffffffff81111561216557612164611c65565b5b8086016121728982611d74565b85526020850194505050602081019050612142565b5050509392505050565b5f82601f8301126121a5576121a4611c65565b5b81356121b584826020860161210b565b91505092915050565b5f602082840312156121d3576121d2611c5d565b5b5f82013567ffffffffffffffff8111156121f0576121ef611c61565b5b6121fc84828501612191565b91505092915050565b61220e81611da1565b82525050565b5f6020820190506122275f830184612205565b92915050565b5f806040838503121561224357612242611c5d565b5b5f61225085828601611e49565b925050602083013567ffffffffffffffff81111561227157612270611c61565b5b61227d85828601611d74565b9150509250929050565b5f81519050919050565b5f82825260208201905092915050565b5f5b838110156122be5780820151818401526020810190506122a3565b5f8484015250505050565b5f6122d382612287565b6122dd8185612291565b93506122ed8185602086016122a1565b6122f681611c6d565b840191505092915050565b5f6020820190508181035f83015261231981846122c9565b905092915050565b5f6020820190506123345f8301846120aa565b92915050565b5f6020828403121561234f5761234e611c5d565b5b5f61235c84828501611f11565b91505092915050565b5f6020820190506123785f83018461209b565b92915050565b5f806040838503121561239457612393611c5d565b5b5f6123a185828601611dc0565b92505060206123b285828601611f11565b9150509250929050565b5f81519050919050565b5f82825260208201905092915050565b5f819050602082019050919050565b6123ee81611e22565b82525050565b5f6123ff83836123e5565b60208301905092915050565b5f602082019050919050565b5f612421826123bc565b61242b81856123c6565b9350612436836123d6565b805f5b8381101561246657815161244d88826123f4565b97506124588361240b565b925050600181019050612439565b5085935050505092915050565b5f6020820190508181035f83015261248b8184612417565b905092915050565b61249c81611ef2565b82525050565b604082015f8201516124b65f8501826123e5565b5060208201516124c96020850182612493565b50505050565b5f6040820190506124e25f8301846124a2565b92915050565b5f805f805f8060c0878903121561250257612501611c5d565b5b5f87013567ffffffffffffffff81111561251f5761251e611c61565b5b61252b89828a01612191565b965050602087013567ffffffffffffffff81111561254c5761254b611c61565b5b61255889828a01611d74565b955050604087013567ffffffffffffffff81111561257957612578611c61565b5b61258589828a01611d74565b945050606087013567ffffffffffffffff8111156125a6576125a5611c61565b5b6125b289828a01611d74565b93505060806125c389828a01611f11565b92505060a06125d489828a01611f11565b9150509295509295509295565b7f4e487b71000000000000000000000000000000000000000000000000000000005f52602260045260245ffd5b5f600282049050600182168061262557607f821691505b602082108103612638576126376125e1565b5b50919050565b5f819050815f5260205f209050919050565b5f6020601f8301049050919050565b5f82821b905092915050565b5f6008830261269a7fffffffffffffffffffffffffffffffffffffffffffffffffffffffffffffffff8261265f565b6126a4868361265f565b95508019841693508086168417925050509392505050565b5f819050919050565b5f6126df6126da6126d584611ef2565b6126bc565b611ef2565b9050919050565b5f819050919050565b6126f8836126c5565b61270c612704826126e6565b84845461266b565b825550505050565b5f90565b612720612714565b61272b8184846126ef565b505050565b5b8181101561274e576127435f82612718565b600181019050612731565b5050565b601f821115612793576127648161263e565b61276d84612650565b8101602085101561277c578190505b61279061278885612650565b830182612730565b50505b505050565b5f82821c905092915050565b5f6127b35f1984600802612798565b1980831691505092915050565b5f6127cb83836127a4565b9150826002028217905092915050565b6127e482612287565b67ffffffffffffffff8111156127fd576127fc611c7d565b5b612807825461260e565b612812828285612752565b5f60209050601f831160018114612843575f8415612831578287015190505b61283b85826127c0565b8655506128a2565b601f1984166128518661263e565b5f5b8281101561287857848901518255600182019150602085019450602081019050612853565b868310156128955784890151612891601f8916826127a4565b8355505b6001600288020188555050505b505050505050565b5f60e0820190506128bd5f83018a6120aa565b81810360208301526128cf81896122c9565b905081810360408301526128e381886122c9565b90506128f26060830187612205565b6128ff60808301866120aa565b61290c60a08301856120aa565b61291960c083018461209b565b98975050505050505050565b7f4e6f646520616c726561647920657869737473000000000000000000000000005f82015250565b5f612959601383612291565b915061296482612925565b602082019050919050565b5f6020820190508181035f8301526129868161294d565b9050919050565b7f4e487b71000000000000000000000000000000000000000000000000000000005f52603260045260245ffd5b5f81519050919050565b5f81905092915050565b5f6129d8826129ba565b6129e281856129c4565b93506129f28185602086016122a1565b80840191505092915050565b5f81905092915050565b5f612a1282612287565b612a1c81856129fe565b9350612a2c8185602086016122a1565b80840191505092915050565b5f612a4382856129ce565b9150612a4f8284612a08565b91508190509392505050565b7f4e487b71000000000000000000000000000000000000000000000000000000005f52601160045260245ffd5b5f612a9282611ef2565b9150612a9d83611ef2565b9250828203905081811115612ab557612ab4612a5b565b5b92915050565b7f4e487b71000000000000000000000000000000000000000000000000000000005f52601260045260245ffd5b5f612af282611ef2565b9150612afd83611ef2565b925082612b0d57612b0c612abb565b5b828206905092915050565b5f612b2282611ef2565b9150612b2d83611ef2565b9250828201905080821115612b4557612b44612a5b565b5b92915050565b7f4e6f646520646f6573206e6f74206578697374000000000000000000000000005f82015250565b5f612b7f601383612291565b9150612b8a82612b4b565b602082019050919050565b5f6020820190508181035f830152612bac81612b73565b9050919050565b7f496e76616c69642066696c6520696400000000000000000000000000000000005f82015250565b5f612be7600f83612291565b9150612bf282612bb3565b602082019050919050565b5f6020820190508181035f830152612c1481612bdb565b9050919050565b5f81549050612c298161260e565b9050919050565b818103612c3e575050612d13565b612c4782612c1b565b67ffffffffffffffff811115612c6057612c5f611c7d565b5b612c6a825461260e565b612c75828285612752565b5f601f831160018114612ca2575f8415612c90578287015490505b612c9a85826127c0565b865550612d0c565b601f198416612cb08761263e565b9650612cbb8661263e565b5f5b82811015612ce257848901548255600182019150600185019450602081019050612cbd565b86831015612cff5784890154612cfb601f8916826127a4565b8355505b6001600288020188555050505b5050505050505b565b7f4e487b71000000000000000000000000000000000000000000000000000000005f52603160045260245ffd5b5f612d4c82611ef2565b91507fffffffffffffffffffffffffffffffffffffffffffffffffffffffffffffffff8203612d7e57612d7d612a5b565b5b600182019050919050565b7f4e6f20617661696c61626c65206e6f64657300000000000000000000000000005f82015250565b5f612dbd601283612291565b9150612dc882612d89565b602082019050919050565b5f6020820190508181035f830152612dea81612db1565b9050919050565b7f556e61757468656e74696361746564206f722066696c65206e6f7420666f756e5f8201527f6400000000000000000000000000000000000000000000000000000000000000602082015250565b5f612e4b602183612291565b9150612e5682612df1565b604082019050919050565b5f6020820190508181035f830152612e7881612e3f565b905091905056fea2646970667358221220747fea673b810a75e47b1783d7f710cdd022962399306cbd9ef53f7717ad478064736f6c63430008160033",
					"opcodes": "PUSH1 0x80 PUSH1 0x40 MSTORE PUSH1 0x3 PUSH0 SSTORE PUSH1 0x64 PUSH1 0x1 SSTORE CALLVALUE DUP1 ISZERO PUSH2 0x18 JUMPI PUSH0 DUP1 REVERT JUMPDEST POP CALLER PUSH1 0x5 PUSH0 PUSH2 0x100 EXP DUP2 SLOAD DUP2 PUSH20 0xFFFFFFFFFFFFFFFFFFFFFFFFFFFFFFFFFFFFFFFF MUL NOT AND SWAP1 DUP4 PUSH20 0xFFFFFFFFFFFFFFFFFFFFFFFFFFFFFFFFFFFFFFFF AND MUL OR SWAP1 SSTORE POP PUSH2 0x2EB5 DUP1 PUSH2 0x66 PUSH0 CODECOPY PUSH0 RETURN INVALID PUSH1 0x80 PUSH1 0x40 MSTORE CALLVALUE DUP1 ISZERO PUSH2 0xF JUMPI PUSH0 DUP1 REVERT JUMPDEST POP PUSH1 0x4 CALLDATASIZE LT PUSH2 0x11F JUMPI PUSH0 CALLDATALOAD PUSH1 0xE0 SHR DUP1 PUSH4 0x912BB1FB GT PUSH2 0xAB JUMPI DUP1 PUSH4 0xC5B42006 GT PUSH2 0x6F JUMPI DUP1 PUSH4 0xC5B42006 EQ PUSH2 0x32A JUMPI DUP1 PUSH4 0xCF86BF93 EQ PUSH2 0x346 JUMPI DUP1 PUSH4 0xE036004C EQ PUSH2 0x364 JUMPI DUP1 PUSH4 0xE316E85C EQ PUSH2 0x394 JUMPI DUP1 PUSH4 0xFE72AE13 EQ PUSH2 0x3C4 JUMPI PUSH2 0x11F JUMP JUMPDEST DUP1 PUSH4 0x912BB1FB EQ PUSH2 0x288 JUMPI DUP1 PUSH4 0xA1174E7D EQ PUSH2 0x2A4 JUMPI DUP1 PUSH4 0xA9860308 EQ PUSH2 0x2C2 JUMPI DUP1 PUSH4 0xB49F33C8 EQ PUSH2 0x2F2 JUMPI DUP1 PUSH4 0xB65814A6 EQ PUSH2 0x30E JUMPI PUSH2 0x11F JUMP JUMPDEST DUP1 PUSH4 0x2A85BE1E GT PUSH2 0xF2 JUMPI DUP1 PUSH4 0x2A85BE1E EQ PUSH2 0x1BC JUMPI DUP1 PUSH4 0x50F1C985 EQ PUSH2 0x1EC JUMPI DUP1 PUSH4 0x5FFD7C06 EQ PUSH2 0x21C JUMPI DUP1 PUSH4 0x64F0C0B8 EQ PUSH2 0x23A JUMPI DUP1 PUSH4 0x8DA5CB5B EQ PUSH2 0x26A JUMPI PUSH2 0x11F JUMP JUMPDEST DUP1 PUSH4 0x9FBF55A EQ PUSH2 0x123 JUMPI DUP1 PUSH4 0x11BD77FE EQ PUSH2 0x13F JUMPI DUP1 PUSH4 0x189A5A17 EQ PUSH2 0x15B JUMPI DUP1 PUSH4 0x196815D2 EQ PUSH2 0x18C JUMPI JUMPDEST PUSH0 DUP1 REVERT JUMPDEST PUSH2 0x13D PUSH1 0x4 DUP1 CALLDATASIZE SUB DUP2 ADD SWAP1 PUSH2 0x138 SWAP2 SWAP1 PUSH2 0x1F25 JUMP JUMPDEST PUSH2 0x3F4 JUMP JUMPDEST STOP JUMPDEST PUSH2 0x159 PUSH1 0x4 DUP1 CALLDATASIZE SUB DUP2 ADD SWAP1 PUSH2 0x154 SWAP2 SWAP1 PUSH2 0x2032 JUMP JUMPDEST PUSH2 0x654 JUMP JUMPDEST STOP JUMPDEST PUSH2 0x175 PUSH1 0x4 DUP1 CALLDATASIZE SUB DUP2 ADD SWAP1 PUSH2 0x170 SWAP2 SWAP1 PUSH2 0x2070 JUMP JUMPDEST PUSH2 0x83D JUMP JUMPDEST PUSH1 0x40 MLOAD PUSH2 0x183 SWAP3 SWAP2 SWAP1 PUSH2 0x20B9 JUMP JUMPDEST PUSH1 0x40 MLOAD DUP1 SWAP2 SUB SWAP1 RETURN JUMPDEST PUSH2 0x1A6 PUSH1 0x4 DUP1 CALLDATASIZE SUB DUP2 ADD SWAP1 PUSH2 0x1A1 SWAP2 SWAP1 PUSH2 0x21BE JUMP JUMPDEST PUSH2 0x87C JUMP JUMPDEST PUSH1 0x40 MLOAD PUSH2 0x1B3 SWAP2 SWAP1 PUSH2 0x2214 JUMP JUMPDEST PUSH1 0x40 MLOAD DUP1 SWAP2 SUB SWAP1 RETURN JUMPDEST PUSH2 0x1D6 PUSH1 0x4 DUP1 CALLDATASIZE SUB DUP2 ADD SWAP1 PUSH2 0x1D1 SWAP2 SWAP1 PUSH2 0x222D JUMP JUMPDEST PUSH2 0x8F6 JUMP JUMPDEST PUSH1 0x40 MLOAD PUSH2 0x1E3 SWAP2 SWAP1 PUSH2 0x2301 JUMP JUMPDEST PUSH1 0x40 MLOAD DUP1 SWAP2 SUB SWAP1 RETURN JUMPDEST PUSH2 0x206 PUSH1 0x4 DUP1 CALLDATASIZE SUB DUP2 ADD SWAP1 PUSH2 0x201 SWAP2 SWAP1 PUSH2 0x222D JUMP JUMPDEST PUSH2 0x8FE JUMP JUMPDEST PUSH1 0x40 MLOAD PUSH2 0x213 SWAP2 SWAP1 PUSH2 0x2301 JUMP JUMPDEST PUSH1 0x40 MLOAD DUP1 SWAP2 SUB SWAP1 RETURN JUMPDEST PUSH2 0x224 PUSH2 0x906 JUMP JUMPDEST PUSH1 0x40 MLOAD PUSH2 0x231 SWAP2 SWAP1 PUSH2 0x2321 JUMP JUMPDEST PUSH1 0x40 MLOAD DUP1 SWAP2 SUB SWAP1 RETURN JUMPDEST PUSH2 0x254 PUSH1 0x4 DUP1 CALLDATASIZE SUB DUP2 ADD SWAP1 PUSH2 0x24F SWAP2 SWAP1 PUSH2 0x233A JUMP JUMPDEST PUSH2 0x90B JUMP JUMPDEST PUSH1 0x40 MLOAD PUSH2 0x261 SWAP2 SWAP1 PUSH2 0x2365 JUMP JUMPDEST PUSH1 0x40 MLOAD DUP1 SWAP2 SUB SWAP1 RETURN JUMPDEST PUSH2 0x272 PUSH2 0xA23 JUMP JUMPDEST PUSH1 0x40 MLOAD PUSH2 0x27F SWAP2 SWAP1 PUSH2 0x2365 JUMP JUMPDEST PUSH1 0x40 MLOAD DUP1 SWAP2 SUB SWAP1 RETURN JUMPDEST PUSH2 0x2A2 PUSH1 0x4 DUP1 CALLDATASIZE SUB DUP2 ADD SWAP1 PUSH2 0x29D SWAP2 SWAP1 PUSH2 0x237E JUMP JUMPDEST PUSH2 0xA48 JUMP JUMPDEST STOP JUMPDEST PUSH2 0x2AC PUSH2 0xAB3 JUMP JUMPDEST PUSH1 0x40 MLOAD PUSH2 0x2B9 SWAP2 SWAP1 PUSH2 0x2473 JUMP JUMPDEST PUSH1 0x40 MLOAD DUP1 SWAP2 SUB SWAP1 RETURN JUMPDEST PUSH2 0x2DC PUSH1 0x4 DUP1 CALLDATASIZE SUB DUP2 ADD SWAP1 PUSH2 0x2D7 SWAP2 SWAP1 PUSH2 0x2070 JUMP JUMPDEST PUSH2 0xB3E JUMP JUMPDEST PUSH1 0x40 MLOAD PUSH2 0x2E9 SWAP2 SWAP1 PUSH2 0x24CF JUMP JUMPDEST PUSH1 0x40 MLOAD DUP1 SWAP2 SUB SWAP1 RETURN JUMPDEST PUSH2 0x30C PUSH1 0x4 DUP1 CALLDATASIZE SUB DUP2 ADD SWAP1 PUSH2 0x307 SWAP2 SWAP1 PUSH2 0x2032 JUMP JUMPDEST PUSH2 0xBF3 JUMP JUMPDEST STOP JUMPDEST PUSH2 0x328 PUSH1 0x4 DUP1 CALLDATASIZE SUB DUP2 ADD SWAP1 PUSH2 0x323 SWAP2 SWAP1 PUSH2 0x222D JUMP JUMPDEST PUSH2 0xD08 JUMP JUMPDEST STOP JUMPDEST PUSH2 0x344 PUSH1 0x4 DUP1 CALLDATASIZE SUB DUP2 ADD SWAP1 PUSH2 0x33F SWAP2 SWAP1 PUSH2 0x233A JUMP JUMPDEST PUSH2 0xD0C JUMP JUMPDEST STOP JUMPDEST PUSH2 0x34E PUSH2 0x14D5 JUMP JUMPDEST PUSH1 0x40 MLOAD PUSH2 0x35B SWAP2 SWAP1 PUSH2 0x2321 JUMP JUMPDEST PUSH1 0x40 MLOAD DUP1 SWAP2 SUB SWAP1 RETURN JUMPDEST PUSH2 0x37E PUSH1 0x4 DUP1 CALLDATASIZE SUB DUP2 ADD SWAP1 PUSH2 0x379 SWAP2 SWAP1 PUSH2 0x24E8 JUMP JUMPDEST PUSH2 0x14DB JUMP JUMPDEST PUSH1 0x40 MLOAD PUSH2 0x38B SWAP2 SWAP1 PUSH2 0x2473 JUMP JUMPDEST PUSH1 0x40 MLOAD DUP1 SWAP2 SUB SWAP1 RETURN JUMPDEST PUSH2 0x3AE PUSH1 0x4 DUP1 CALLDATASIZE SUB DUP2 ADD SWAP1 PUSH2 0x3A9 SWAP2 SWAP1 PUSH2 0x233A JUMP JUMPDEST PUSH2 0x1870 JUMP JUMPDEST PUSH1 0x40 MLOAD PUSH2 0x3BB SWAP2 SWAP1 PUSH2 0x2214 JUMP JUMPDEST PUSH1 0x40 MLOAD DUP1 SWAP2 SUB SWAP1 RETURN JUMPDEST PUSH2 0x3DE PUSH1 0x4 DUP1 CALLDATASIZE SUB DUP2 ADD SWAP1 PUSH2 0x3D9 SWAP2 SWAP1 PUSH2 0x233A JUMP JUMPDEST PUSH2 0x19C2 JUMP JUMPDEST PUSH1 0x40 MLOAD PUSH2 0x3EB SWAP2 SWAP1 PUSH2 0x2365 JUMP JUMPDEST PUSH1 0x40 MLOAD DUP1 SWAP2 SUB SWAP1 RETURN JUMPDEST PUSH0 PUSH20 0xFFFFFFFFFFFFFFFFFFFFFFFFFFFFFFFFFFFFFFFF AND CALLER PUSH20 0xFFFFFFFFFFFFFFFFFFFFFFFFFFFFFFFFFFFFFFFF AND SUB PUSH2 0x42B JUMPI PUSH0 DUP1 REVERT JUMPDEST PUSH0 DUP7 MLOAD GT PUSH2 0x437 JUMPI PUSH0 DUP1 REVERT JUMPDEST PUSH0 DUP8 MLOAD GT PUSH2 0x443 JUMPI PUSH0 DUP1 REVERT JUMPDEST PUSH0 PUSH1 0x20 PUSH1 0xFF AND GT PUSH2 0x452 JUMPI PUSH0 DUP1 REVERT JUMPDEST PUSH0 DUP4 MLOAD GT PUSH2 0x45E JUMPI PUSH0 DUP1 REVERT JUMPDEST PUSH0 DUP2 GT PUSH2 0x469 JUMPI PUSH0 DUP1 REVERT JUMPDEST PUSH0 DUP3 GT PUSH2 0x474 JUMPI PUSH0 DUP1 REVERT JUMPDEST PUSH1 0x7 PUSH0 PUSH2 0x481 SWAP2 SWAP1 PUSH2 0x1A7B JUMP JUMPDEST PUSH1 0x6 PUSH0 CALLER PUSH20 0xFFFFFFFFFFFFFFFFFFFFFFFFFFFFFFFFFFFFFFFF AND PUSH20 0xFFFFFFFFFFFFFFFFFFFFFFFFFFFFFFFFFFFFFFFF AND DUP2 MSTORE PUSH1 0x20 ADD SWAP1 DUP2 MSTORE PUSH1 0x20 ADD PUSH0 KECCAK256 PUSH1 0x40 MLOAD DUP1 PUSH2 0x120 ADD PUSH1 0x40 MSTORE DUP1 DUP5 DUP2 MSTORE PUSH1 0x20 ADD DUP10 DUP2 MSTORE PUSH1 0x20 ADD DUP9 DUP2 MSTORE PUSH1 0x20 ADD DUP8 DUP2 MSTORE PUSH1 0x20 ADD DUP4 DUP2 MSTORE PUSH1 0x20 ADD TIMESTAMP DUP2 MSTORE PUSH1 0x20 ADD CALLER PUSH20 0xFFFFFFFFFFFFFFFFFFFFFFFFFFFFFFFFFFFFFFFF AND DUP2 MSTORE PUSH1 0x20 ADD DUP7 DUP2 MSTORE PUSH1 0x20 ADD DUP6 DUP2 MSTORE POP SWAP1 DUP1 PUSH1 0x1 DUP2 SLOAD ADD DUP1 DUP3 SSTORE DUP1 SWAP2 POP POP PUSH1 0x1 SWAP1 SUB SWAP1 PUSH0 MSTORE PUSH1 0x20 PUSH0 KECCAK256 SWAP1 PUSH1 0x9 MUL ADD PUSH0 SWAP1 SWAP2 SWAP1 SWAP2 SWAP1 SWAP2 POP PUSH0 DUP3 ADD MLOAD DUP2 PUSH0 ADD SSTORE PUSH1 0x20 DUP3 ADD MLOAD DUP2 PUSH1 0x1 ADD SWAP1 DUP2 PUSH2 0x557 SWAP2 SWAP1 PUSH2 0x27DB JUMP JUMPDEST POP PUSH1 0x40 DUP3 ADD MLOAD DUP2 PUSH1 0x2 ADD SWAP1 DUP2 PUSH2 0x56D SWAP2 SWAP1 PUSH2 0x27DB JUMP JUMPDEST POP PUSH1 0x60 DUP3 ADD MLOAD DUP2 PUSH1 0x3 ADD SSTORE PUSH1 0x80 DUP3 ADD MLOAD DUP2 PUSH1 0x4 ADD SSTORE PUSH1 0xA0 DUP3 ADD MLOAD DUP2 PUSH1 0x5 ADD SSTORE PUSH1 0xC0 DUP3 ADD MLOAD DUP2 PUSH1 0x6 ADD PUSH0 PUSH2 0x100 EXP DUP2 SLOAD DUP2 PUSH20 0xFFFFFFFFFFFFFFFFFFFFFFFFFFFFFFFFFFFFFFFF MUL NOT AND SWAP1 DUP4 PUSH20 0xFFFFFFFFFFFFFFFFFFFFFFFFFFFFFFFFFFFFFFFF AND MUL OR SWAP1 SSTORE POP PUSH1 0xE0 DUP3 ADD MLOAD DUP2 PUSH1 0x7 ADD SWAP1 DUP2 PUSH2 0x5E7 SWAP2 SWAP1 PUSH2 0x27DB JUMP JUMPDEST POP PUSH2 0x100 DUP3 ADD MLOAD DUP2 PUSH1 0x8 ADD SWAP1 DUP1 MLOAD SWAP1 PUSH1 0x20 ADD SWAP1 PUSH2 0x605 SWAP3 SWAP2 SWAP1 PUSH2 0x1A99 JUMP JUMPDEST POP POP POP PUSH32 0xB3D6F1092C4206972E91A35451F2AD4593EFE995B5C5814EC418C5996F09B4CB DUP3 DUP9 DUP9 DUP9 DUP6 TIMESTAMP CALLER PUSH1 0x40 MLOAD PUSH2 0x643 SWAP8 SWAP7 SWAP6 SWAP5 SWAP4 SWAP3 SWAP2 SWAP1 PUSH2 0x28AA JUMP JUMPDEST PUSH1 0x40 MLOAD DUP1 SWAP2 SUB SWAP1 LOG1 POP POP POP POP POP POP POP JUMP JUMPDEST PUSH0 PUSH20 0xFFFFFFFFFFFFFFFFFFFFFFFFFFFFFFFFFFFFFFFF AND PUSH1 0x3 PUSH0 DUP5 PUSH20 0xFFFFFFFFFFFFFFFFFFFFFFFFFFFFFFFFFFFFFFFF AND PUSH20 0xFFFFFFFFFFFFFFFFFFFFFFFFFFFFFFFFFFFFFFFF AND DUP2 MSTORE PUSH1 0x20 ADD SWAP1 DUP2 MSTORE PUSH1 0x20 ADD PUSH0 KECCAK256 PUSH0 ADD PUSH0 SWAP1 SLOAD SWAP1 PUSH2 0x100 EXP SWAP1 DIV PUSH20 0xFFFFFFFFFFFFFFFFFFFFFFFFFFFFFFFFFFFFFFFF AND PUSH20 0xFFFFFFFFFFFFFFFFFFFFFFFFFFFFFFFFFFFFFFFF AND EQ PUSH2 0x720 JUMPI PUSH1 0x40 MLOAD PUSH32 0x8C379A000000000000000000000000000000000000000000000000000000000 DUP2 MSTORE PUSH1 0x4 ADD PUSH2 0x717 SWAP1 PUSH2 0x296F JUMP JUMPDEST PUSH1 0x40 MLOAD DUP1 SWAP2 SUB SWAP1 REVERT JUMPDEST PUSH1 0x40 MLOAD DUP1 PUSH1 0x40 ADD PUSH1 0x40 MSTORE DUP1 DUP4 PUSH20 0xFFFFFFFFFFFFFFFFFFFFFFFFFFFFFFFFFFFFFFFF AND DUP2 MSTORE PUSH1 0x20 ADD DUP3 DUP2 MSTORE POP PUSH1 0x3 PUSH0 DUP5 PUSH20 0xFFFFFFFFFFFFFFFFFFFFFFFFFFFFFFFFFFFFFFFF AND PUSH20 0xFFFFFFFFFFFFFFFFFFFFFFFFFFFFFFFFFFFFFFFF AND DUP2 MSTORE PUSH1 0x20 ADD SWAP1 DUP2 MSTORE PUSH1 0x20 ADD PUSH0 KECCAK256 PUSH0 DUP3 ADD MLOAD DUP2 PUSH0 ADD PUSH0 PUSH2 0x100 EXP DUP2 SLOAD DUP2 PUSH20 0xFFFFFFFFFFFFFFFFFFFFFFFFFFFFFFFFFFFFFFFF MUL NOT AND SWAP1 DUP4 PUSH20 0xFFFFFFFFFFFFFFFFFFFFFFFFFFFFFFFFFFFFFFFF AND MUL OR SWAP1 SSTORE POP PUSH1 0x20 DUP3 ADD MLOAD DUP2 PUSH1 0x1 ADD SSTORE SWAP1 POP POP PUSH1 0x4 DUP3 SWAP1 DUP1 PUSH1 0x1 DUP2 SLOAD ADD DUP1 DUP3 SSTORE DUP1 SWAP2 POP POP PUSH1 0x1 SWAP1 SUB SWAP1 PUSH0 MSTORE PUSH1 0x20 PUSH0 KECCAK256 ADD PUSH0 SWAP1 SWAP2 SWAP1 SWAP2 SWAP1 SWAP2 PUSH2 0x100 EXP DUP2 SLOAD DUP2 PUSH20 0xFFFFFFFFFFFFFFFFFFFFFFFFFFFFFFFFFFFFFFFF MUL NOT AND SWAP1 DUP4 PUSH20 0xFFFFFFFFFFFFFFFFFFFFFFFFFFFFFFFFFFFFFFFF AND MUL OR SWAP1 SSTORE POP POP POP JUMP JUMPDEST PUSH1 0x3 PUSH1 0x20 MSTORE DUP1 PUSH0 MSTORE PUSH1 0x40 PUSH0 KECCAK256 PUSH0 SWAP2 POP SWAP1 POP DUP1 PUSH0 ADD PUSH0 SWAP1 SLOAD SWAP1 PUSH2 0x100 EXP SWAP1 DIV PUSH20 0xFFFFFFFFFFFFFFFFFFFFFFFFFFFFFFFFFFFFFFFF AND SWAP1 DUP1 PUSH1 0x1 ADD SLOAD SWAP1 POP DUP3 JUMP JUMPDEST PUSH0 DUP1 PUSH1 0x40 MLOAD DUP1 PUSH1 0x20 ADD PUSH1 0x40 MSTORE DUP1 PUSH0 DUP2 MSTORE POP SWAP1 POP PUSH0 JUMPDEST DUP4 MLOAD DUP2 LT ISZERO PUSH2 0x8E5 JUMPI DUP2 DUP5 DUP3 DUP2 MLOAD DUP2 LT PUSH2 0x8AE JUMPI PUSH2 0x8AD PUSH2 0x298D JUMP JUMPDEST JUMPDEST PUSH1 0x20 MUL PUSH1 0x20 ADD ADD MLOAD PUSH1 0x40 MLOAD PUSH1 0x20 ADD PUSH2 0x8C7 SWAP3 SWAP2 SWAP1 PUSH2 0x2A38 JUMP JUMPDEST PUSH1 0x40 MLOAD PUSH1 0x20 DUP2 DUP4 SUB SUB DUP2 MSTORE SWAP1 PUSH1 0x40 MSTORE SWAP2 POP DUP1 DUP1 PUSH1 0x1 ADD SWAP2 POP POP PUSH2 0x891 JUMP JUMPDEST POP DUP1 DUP1 MLOAD SWAP1 PUSH1 0x20 ADD KECCAK256 SWAP2 POP POP SWAP2 SWAP1 POP JUMP JUMPDEST PUSH1 0x60 SWAP3 SWAP2 POP POP JUMP JUMPDEST PUSH1 0x60 SWAP3 SWAP2 POP POP JUMP JUMPDEST PUSH0 SLOAD DUP2 JUMP JUMPDEST PUSH0 DUP1 PUSH1 0x4 DUP1 SLOAD SWAP1 POP SWAP1 POP PUSH0 PUSH1 0x32 SWAP1 POP PUSH0 DUP3 SUB PUSH2 0x92B JUMPI PUSH0 SWAP3 POP POP POP PUSH2 0xA1E JUMP JUMPDEST PUSH0 DUP3 PUSH1 0x1 NUMBER PUSH2 0x93A SWAP2 SWAP1 PUSH2 0x2A88 JUMP JUMPDEST BLOCKHASH PUSH0 SHR PUSH2 0x947 SWAP2 SWAP1 PUSH2 0x2AE8 JUMP JUMPDEST SWAP1 POP PUSH0 JUMPDEST DUP4 DUP2 LT ISZERO PUSH2 0xA16 JUMPI PUSH0 PUSH1 0x4 DUP6 DUP4 DUP6 PUSH2 0x963 SWAP2 SWAP1 PUSH2 0x2B18 JUMP JUMPDEST PUSH2 0x96D SWAP2 SWAP1 PUSH2 0x2AE8 JUMP JUMPDEST DUP2 SLOAD DUP2 LT PUSH2 0x97E JUMPI PUSH2 0x97D PUSH2 0x298D JUMP JUMPDEST JUMPDEST SWAP1 PUSH0 MSTORE PUSH1 0x20 PUSH0 KECCAK256 ADD PUSH0 SWAP1 SLOAD SWAP1 PUSH2 0x100 EXP SWAP1 DIV PUSH20 0xFFFFFFFFFFFFFFFFFFFFFFFFFFFFFFFFFFFFFFFF AND SWAP1 POP DUP4 DUP8 PUSH2 0x9B4 SWAP2 SWAP1 PUSH2 0x2B18 JUMP JUMPDEST PUSH1 0x3 PUSH0 DUP4 PUSH20 0xFFFFFFFFFFFFFFFFFFFFFFFFFFFFFFFFFFFFFFFF AND PUSH20 0xFFFFFFFFFFFFFFFFFFFFFFFFFFFFFFFFFFFFFFFF AND DUP2 MSTORE PUSH1 0x20 ADD SWAP1 DUP2 MSTORE PUSH1 0x20 ADD PUSH0 KECCAK256 PUSH1 0x1 ADD SLOAD GT ISZERO PUSH2 0xA08 JUMPI DUP1 SWAP6 POP POP POP POP POP POP PUSH2 0xA1E JUMP JUMPDEST POP DUP1 DUP1 PUSH1 0x1 ADD SWAP2 POP POP PUSH2 0x94B JUMP JUMPDEST POP PUSH0 SWAP4 POP POP POP POP JUMPDEST SWAP2 SWAP1 POP JUMP JUMPDEST PUSH1 0x5 PUSH0 SWAP1 SLOAD SWAP1 PUSH2 0x100 EXP SWAP1 DIV PUSH20 0xFFFFFFFFFFFFFFFFFFFFFFFFFFFFFFFFFFFFFFFF AND DUP2 JUMP JUMPDEST PUSH0 PUSH20 0xFFFFFFFFFFFFFFFFFFFFFFFFFFFFFFFFFFFFFFFF AND CALLER PUSH20 0xFFFFFFFFFFFFFFFFFFFFFFFFFFFFFFFFFFFFFFFF AND SUB PUSH2 0xA7F JUMPI PUSH0 DUP1 REVERT JUMPDEST PUSH0 PUSH1 0x20 PUSH1 0xFF AND GT PUSH2 0xA8E JUMPI PUSH0 DUP1 REVERT JUMPDEST PUSH0 DUP2 GT PUSH2 0xA99 JUMPI PUSH0 DUP1 REVERT JUMPDEST DUP2 PUSH1 0x2 PUSH0 DUP4 DUP2 MSTORE PUSH1 0x20 ADD SWAP1 DUP2 MSTORE PUSH1 0x20 ADD PUSH0 KECCAK256 DUP2 SWAP1 SSTORE POP POP POP JUMP JUMPDEST PUSH1 0x60 PUSH1 0x4 DUP1 SLOAD DUP1 PUSH1 0x20 MUL PUSH1 0x20 ADD PUSH1 0x40 MLOAD SWAP1 DUP2 ADD PUSH1 0x40 MSTORE DUP1 SWAP3 SWAP2 SWAP1 DUP2 DUP2 MSTORE PUSH1 0x20 ADD DUP3 DUP1 SLOAD DUP1 ISZERO PUSH2 0xB34 JUMPI PUSH1 0x20 MUL DUP3 ADD SWAP2 SWAP1 PUSH0 MSTORE PUSH1 0x20 PUSH0 KECCAK256 SWAP1 JUMPDEST DUP2 PUSH0 SWAP1 SLOAD SWAP1 PUSH2 0x100 EXP SWAP1 DIV PUSH20 0xFFFFFFFFFFFFFFFFFFFFFFFFFFFFFFFFFFFFFFFF AND PUSH20 0xFFFFFFFFFFFFFFFFFFFFFFFFFFFFFFFFFFFFFFFF AND DUP2 MSTORE PUSH1 0x20 ADD SWAP1 PUSH1 0x1 ADD SWAP1 DUP1 DUP4 GT PUSH2 0xAEB JUMPI JUMPDEST POP POP POP POP POP SWAP1 POP SWAP1 JUMP JUMPDEST PUSH2 0xB46 PUSH2 0x1B20 JUMP JUMPDEST PUSH1 0x3 PUSH0 DUP4 PUSH20 0xFFFFFFFFFFFFFFFFFFFFFFFFFFFFFFFFFFFFFFFF AND PUSH20 0xFFFFFFFFFFFFFFFFFFFFFFFFFFFFFFFFFFFFFFFF AND DUP2 MSTORE PUSH1 0x20 ADD SWAP1 DUP2 MSTORE PUSH1 0x20 ADD PUSH0 KECCAK256 PUSH1 0x40 MLOAD DUP1 PUSH1 0x40 ADD PUSH1 0x40 MSTORE SWAP1 DUP2 PUSH0 DUP3 ADD PUSH0 SWAP1 SLOAD SWAP1 PUSH2 0x100 EXP SWAP1 DIV PUSH20 0xFFFFFFFFFFFFFFFFFFFFFFFFFFFFFFFFFFFFFFFF AND PUSH20 0xFFFFFFFFFFFFFFFFFFFFFFFFFFFFFFFFFFFFFFFF AND PUSH20 0xFFFFFFFFFFFFFFFFFFFFFFFFFFFFFFFFFFFFFFFF AND DUP2 MSTORE PUSH1 0x20 ADD PUSH1 0x1 DUP3 ADD SLOAD DUP2 MSTORE POP POP SWAP1 POP SWAP2 SWAP1 POP JUMP JUMPDEST PUSH0 PUSH20 0xFFFFFFFFFFFFFFFFFFFFFFFFFFFFFFFFFFFFFFFF AND PUSH1 0x3 PUSH0 DUP5 PUSH20 0xFFFFFFFFFFFFFFFFFFFFFFFFFFFFFFFFFFFFFFFF AND PUSH20 0xFFFFFFFFFFFFFFFFFFFFFFFFFFFFFFFFFFFFFFFF AND DUP2 MSTORE PUSH1 0x20 ADD SWAP1 DUP2 MSTORE PUSH1 0x20 ADD PUSH0 KECCAK256 PUSH0 ADD PUSH0 SWAP1 SLOAD SWAP1 PUSH2 0x100 EXP SWAP1 DIV PUSH20 0xFFFFFFFFFFFFFFFFFFFFFFFFFFFFFFFFFFFFFFFF AND PUSH20 0xFFFFFFFFFFFFFFFFFFFFFFFFFFFFFFFFFFFFFFFF AND SUB PUSH2 0xCBF JUMPI PUSH1 0x40 MLOAD PUSH32 0x8C379A000000000000000000000000000000000000000000000000000000000 DUP2 MSTORE PUSH1 0x4 ADD PUSH2 0xCB6 SWAP1 PUSH2 0x2B95 JUMP JUMPDEST PUSH1 0x40 MLOAD DUP1 SWAP2 SUB SWAP1 REVERT JUMPDEST DUP1 PUSH1 0x3 PUSH0 DUP5 PUSH20 0xFFFFFFFFFFFFFFFFFFFFFFFFFFFFFFFFFFFFFFFF AND PUSH20 0xFFFFFFFFFFFFFFFFFFFFFFFFFFFFFFFFFFFFFFFF AND DUP2 MSTORE PUSH1 0x20 ADD SWAP1 DUP2 MSTORE PUSH1 0x20 ADD PUSH0 KECCAK256 PUSH1 0x1 ADD DUP2 SWAP1 SSTORE POP POP POP JUMP JUMPDEST POP POP JUMP JUMPDEST PUSH0 DUP2 LT ISZERO DUP1 ISZERO PUSH2 0xD5B JUMPI POP PUSH0 PUSH1 0x6 PUSH0 CALLER PUSH20 0xFFFFFFFFFFFFFFFFFFFFFFFFFFFFFFFFFFFFFFFF AND PUSH20 0xFFFFFFFFFFFFFFFFFFFFFFFFFFFFFFFFFFFFFFFF AND DUP2 MSTORE PUSH1 0x20 ADD SWAP1 DUP2 MSTORE PUSH1 0x20 ADD PUSH0 KECCAK256 DUP1 SLOAD SWAP1 POP GT JUMPDEST PUSH2 0xD9A JUMPI PUSH1 0x40 MLOAD PUSH32 0x8C379A000000000000000000000000000000000000000000000000000000000 DUP2 MSTORE PUSH1 0x4 ADD PUSH2 0xD91 SWAP1 PUSH2 0x2BFD JUMP JUMPDEST PUSH1 0x40 MLOAD DUP1 SWAP2 SUB SWAP1 REVERT JUMPDEST PUSH0 PUSH1 0x6 PUSH0 CALLER PUSH20 0xFFFFFFFFFFFFFFFFFFFFFFFFFFFFFFFFFFFFFFFF AND PUSH20 0xFFFFFFFFFFFFFFFFFFFFFFFFFFFFFFFFFFFFFFFF AND DUP2 MSTORE PUSH1 0x20 ADD SWAP1 DUP2 MSTORE PUSH1 0x20 ADD PUSH0 KECCAK256 SWAP1 POP PUSH0 PUSH1 0x1 DUP3 DUP1 SLOAD SWAP1 POP PUSH2 0xDEC SWAP2 SWAP1 PUSH2 0x2A88 JUMP JUMPDEST SWAP1 POP DUP1 DUP4 EQ PUSH2 0x13B6 JUMPI PUSH0 DUP3 DUP3 DUP2 SLOAD DUP2 LT PUSH2 0xE09 JUMPI PUSH2 0xE08 PUSH2 0x298D JUMP JUMPDEST JUMPDEST SWAP1 PUSH0 MSTORE PUSH1 0x20 PUSH0 KECCAK256 SWAP1 PUSH1 0x9 MUL ADD SWAP1 POP PUSH2 0xE1F PUSH2 0x1B4E JUMP JUMPDEST PUSH0 JUMPDEST DUP5 DUP1 SLOAD SWAP1 POP DUP2 LT ISZERO PUSH2 0x1147 JUMPI DUP6 DUP6 DUP3 DUP2 SLOAD DUP2 LT PUSH2 0xE41 JUMPI PUSH2 0xE40 PUSH2 0x298D JUMP JUMPDEST JUMPDEST SWAP1 PUSH0 MSTORE PUSH1 0x20 PUSH0 KECCAK256 SWAP1 PUSH1 0x9 MUL ADD PUSH0 ADD SLOAD SUB PUSH2 0x113A JUMPI DUP5 DUP2 DUP2 SLOAD DUP2 LT PUSH2 0xE68 JUMPI PUSH2 0xE67 PUSH2 0x298D JUMP JUMPDEST JUMPDEST SWAP1 PUSH0 MSTORE PUSH1 0x20 PUSH0 KECCAK256 SWAP1 PUSH1 0x9 MUL ADD PUSH1 0x40 MLOAD DUP1 PUSH2 0x120 ADD PUSH1 0x40 MSTORE SWAP1 DUP2 PUSH0 DUP3 ADD SLOAD DUP2 MSTORE PUSH1 0x20 ADD PUSH1 0x1 DUP3 ADD DUP1 SLOAD PUSH2 0xE99 SWAP1 PUSH2 0x260E JUMP JUMPDEST DUP1 PUSH1 0x1F ADD PUSH1 0x20 DUP1 SWAP2 DIV MUL PUSH1 0x20 ADD PUSH1 0x40 MLOAD SWAP1 DUP2 ADD PUSH1 0x40 MSTORE DUP1 SWAP3 SWAP2 SWAP1 DUP2 DUP2 MSTORE PUSH1 0x20 ADD DUP3 DUP1 SLOAD PUSH2 0xEC5 SWAP1 PUSH2 0x260E JUMP JUMPDEST DUP1 ISZERO PUSH2 0xF10 JUMPI DUP1 PUSH1 0x1F LT PUSH2 0xEE7 JUMPI PUSH2 0x100 DUP1 DUP4 SLOAD DIV MUL DUP4 MSTORE SWAP2 PUSH1 0x20 ADD SWAP2 PUSH2 0xF10 JUMP JUMPDEST DUP3 ADD SWAP2 SWAP1 PUSH0 MSTORE PUSH1 0x20 PUSH0 KECCAK256 SWAP1 JUMPDEST DUP2 SLOAD DUP2 MSTORE SWAP1 PUSH1 0x1 ADD SWAP1 PUSH1 0x20 ADD DUP1 DUP4 GT PUSH2 0xEF3 JUMPI DUP3 SWAP1 SUB PUSH1 0x1F AND DUP3 ADD SWAP2 JUMPDEST POP POP POP POP POP DUP2 MSTORE PUSH1 0x20 ADD PUSH1 0x2 DUP3 ADD DUP1 SLOAD PUSH2 0xF29 SWAP1 PUSH2 0x260E JUMP JUMPDEST DUP1 PUSH1 0x1F ADD PUSH1 0x20 DUP1 SWAP2 DIV MUL PUSH1 0x20 ADD PUSH1 0x40 MLOAD SWAP1 DUP2 ADD PUSH1 0x40 MSTORE DUP1 SWAP3 SWAP2 SWAP1 DUP2 DUP2 MSTORE PUSH1 0x20 ADD DUP3 DUP1 SLOAD PUSH2 0xF55 SWAP1 PUSH2 0x260E JUMP JUMPDEST DUP1 ISZERO PUSH2 0xFA0 JUMPI DUP1 PUSH1 0x1F LT PUSH2 0xF77 JUMPI PUSH2 0x100 DUP1 DUP4 SLOAD DIV MUL DUP4 MSTORE SWAP2 PUSH1 0x20 ADD SWAP2 PUSH2 0xFA0 JUMP JUMPDEST DUP3 ADD SWAP2 SWAP1 PUSH0 MSTORE PUSH1 0x20 PUSH0 KECCAK256 SWAP1 JUMPDEST DUP2 SLOAD DUP2 MSTORE SWAP1 PUSH1 0x1 ADD SWAP1 PUSH1 0x20 ADD DUP1 DUP4 GT PUSH2 0xF83 JUMPI DUP3 SWAP1 SUB PUSH1 0x1F AND DUP3 ADD SWAP2 JUMPDEST POP POP POP POP POP DUP2 MSTORE PUSH1 0x20 ADD PUSH1 0x3 DUP3 ADD SLOAD DUP2 MSTORE PUSH1 0x20 ADD PUSH1 0x4 DUP3 ADD SLOAD DUP2 MSTORE PUSH1 0x20 ADD PUSH1 0x5 DUP3 ADD SLOAD DUP2 MSTORE PUSH1 0x20 ADD PUSH1 0x6 DUP3 ADD PUSH0 SWAP1 SLOAD SWAP1 PUSH2 0x100 EXP SWAP1 DIV PUSH20 0xFFFFFFFFFFFFFFFFFFFFFFFFFFFFFFFFFFFFFFFF AND PUSH20 0xFFFFFFFFFFFFFFFFFFFFFFFFFFFFFFFFFFFFFFFF AND PUSH20 0xFFFFFFFFFFFFFFFFFFFFFFFFFFFFFFFFFFFFFFFF AND DUP2 MSTORE PUSH1 0x20 ADD PUSH1 0x7 DUP3 ADD DUP1 SLOAD PUSH2 0x102C SWAP1 PUSH2 0x260E JUMP JUMPDEST DUP1 PUSH1 0x1F ADD PUSH1 0x20 DUP1 SWAP2 DIV MUL PUSH1 0x20 ADD PUSH1 0x40 MLOAD SWAP1 DUP2 ADD PUSH1 0x40 MSTORE DUP1 SWAP3 SWAP2 SWAP1 DUP2 DUP2 MSTORE PUSH1 0x20 ADD DUP3 DUP1 SLOAD PUSH2 0x1058 SWAP1 PUSH2 0x260E JUMP JUMPDEST DUP1 ISZERO PUSH2 0x10A3 JUMPI DUP1 PUSH1 0x1F LT PUSH2 0x107A JUMPI PUSH2 0x100 DUP1 DUP4 SLOAD DIV MUL DUP4 MSTORE SWAP2 PUSH1 0x20 ADD SWAP2 PUSH2 0x10A3 JUMP JUMPDEST DUP3 ADD SWAP2 SWAP1 PUSH0 MSTORE PUSH1 0x20 PUSH0 KECCAK256 SWAP1 JUMPDEST DUP2 SLOAD DUP2 MSTORE SWAP1 PUSH1 0x1 ADD SWAP1 PUSH1 0x20 ADD DUP1 DUP4 GT PUSH2 0x1086 JUMPI DUP3 SWAP1 SUB PUSH1 0x1F AND DUP3 ADD SWAP2 JUMPDEST POP POP POP POP POP DUP2 MSTORE PUSH1 0x20 ADD PUSH1 0x8 DUP3 ADD DUP1 SLOAD DUP1 PUSH1 0x20 MUL PUSH1 0x20 ADD PUSH1 0x40 MLOAD SWAP1 DUP2 ADD PUSH1 0x40 MSTORE DUP1 SWAP3 SWAP2 SWAP1 DUP2 DUP2 MSTORE PUSH1 0x20 ADD DUP3 DUP1 SLOAD DUP1 ISZERO PUSH2 0x112E JUMPI PUSH1 0x20 MUL DUP3 ADD SWAP2 SWAP1 PUSH0 MSTORE PUSH1 0x20 PUSH0 KECCAK256 SWAP1 JUMPDEST DUP2 PUSH0 SWAP1 SLOAD SWAP1 PUSH2 0x100 EXP SWAP1 DIV PUSH20 0xFFFFFFFFFFFFFFFFFFFFFFFFFFFFFFFFFFFFFFFF AND PUSH20 0xFFFFFFFFFFFFFFFFFFFFFFFFFFFFFFFFFFFFFFFF AND DUP2 MSTORE PUSH1 0x20 ADD SWAP1 PUSH1 0x1 ADD SWAP1 DUP1 DUP4 GT PUSH2 0x10E5 JUMPI JUMPDEST POP POP POP POP POP DUP2 MSTORE POP POP SWAP2 POP JUMPDEST DUP1 DUP1 PUSH1 0x1 ADD SWAP2 POP POP PUSH2 0xE21 JUMP JUMPDEST POP DUP2 PUSH1 0x6 PUSH0 CALLER PUSH20 0xFFFFFFFFFFFFFFFFFFFFFFFFFFFFFFFFFFFFFFFF AND PUSH20 0xFFFFFFFFFFFFFFFFFFFFFFFFFFFFFFFFFFFFFFFF AND DUP2 MSTORE PUSH1 0x20 ADD SWAP1 DUP2 MSTORE PUSH1 0x20 ADD PUSH0 KECCAK256 DUP7 DUP2 SLOAD DUP2 LT PUSH2 0x1198 JUMPI PUSH2 0x1197 PUSH2 0x298D JUMP JUMPDEST JUMPDEST SWAP1 PUSH0 MSTORE PUSH1 0x20 PUSH0 KECCAK256 SWAP1 PUSH1 0x9 MUL ADD PUSH0 DUP3 ADD SLOAD DUP2 PUSH0 ADD SSTORE PUSH1 0x1 DUP3 ADD DUP2 PUSH1 0x1 ADD SWAP1 DUP2 PUSH2 0x11C0 SWAP2 SWAP1 PUSH2 0x2C30 JUMP JUMPDEST POP PUSH1 0x2 DUP3 ADD DUP2 PUSH1 0x2 ADD SWAP1 DUP2 PUSH2 0x11D5 SWAP2 SWAP1 PUSH2 0x2C30 JUMP JUMPDEST POP PUSH1 0x3 DUP3 ADD SLOAD DUP2 PUSH1 0x3 ADD SSTORE PUSH1 0x4 DUP3 ADD SLOAD DUP2 PUSH1 0x4 ADD SSTORE PUSH1 0x5 DUP3 ADD SLOAD DUP2 PUSH1 0x5 ADD SSTORE PUSH1 0x6 DUP3 ADD PUSH0 SWAP1 SLOAD SWAP1 PUSH2 0x100 EXP SWAP1 DIV PUSH20 0xFFFFFFFFFFFFFFFFFFFFFFFFFFFFFFFFFFFFFFFF AND DUP2 PUSH1 0x6 ADD PUSH0 PUSH2 0x100 EXP DUP2 SLOAD DUP2 PUSH20 0xFFFFFFFFFFFFFFFFFFFFFFFFFFFFFFFFFFFFFFFF MUL NOT AND SWAP1 DUP4 PUSH20 0xFFFFFFFFFFFFFFFFFFFFFFFFFFFFFFFFFFFFFFFF AND MUL OR SWAP1 SSTORE POP PUSH1 0x7 DUP3 ADD DUP2 PUSH1 0x7 ADD SWAP1 DUP2 PUSH2 0x126D SWAP2 SWAP1 PUSH2 0x2C30 JUMP JUMPDEST POP PUSH1 0x8 DUP3 ADD DUP2 PUSH1 0x8 ADD SWAP1 DUP1 SLOAD PUSH2 0x1284 SWAP3 SWAP2 SWAP1 PUSH2 0x1BAE JUMP JUMPDEST POP SWAP1 POP POP DUP1 PUSH1 0x6 PUSH0 CALLER PUSH20 0xFFFFFFFFFFFFFFFFFFFFFFFFFFFFFFFFFFFFFFFF AND PUSH20 0xFFFFFFFFFFFFFFFFFFFFFFFFFFFFFFFFFFFFFFFF AND DUP2 MSTORE PUSH1 0x20 ADD SWAP1 DUP2 MSTORE PUSH1 0x20 ADD PUSH0 KECCAK256 DUP5 DUP2 SLOAD DUP2 LT PUSH2 0x12D8 JUMPI PUSH2 0x12D7 PUSH2 0x298D JUMP JUMPDEST JUMPDEST SWAP1 PUSH0 MSTORE PUSH1 0x20 PUSH0 KECCAK256 SWAP1 PUSH1 0x9 MUL ADD PUSH0 DUP3 ADD MLOAD DUP2 PUSH0 ADD SSTORE PUSH1 0x20 DUP3 ADD MLOAD DUP2 PUSH1 0x1 ADD SWAP1 DUP2 PUSH2 0x1301 SWAP2 SWAP1 PUSH2 0x27DB JUMP JUMPDEST POP PUSH1 0x40 DUP3 ADD MLOAD DUP2 PUSH1 0x2 ADD SWAP1 DUP2 PUSH2 0x1317 SWAP2 SWAP1 PUSH2 0x27DB JUMP JUMPDEST POP PUSH1 0x60 DUP3 ADD MLOAD DUP2 PUSH1 0x3 ADD SSTORE PUSH1 0x80 DUP3 ADD MLOAD DUP2 PUSH1 0x4 ADD SSTORE PUSH1 0xA0 DUP3 ADD MLOAD DUP2 PUSH1 0x5 ADD SSTORE PUSH1 0xC0 DUP3 ADD MLOAD DUP2 PUSH1 0x6 ADD PUSH0 PUSH2 0x100 EXP DUP2 SLOAD DUP2 PUSH20 0xFFFFFFFFFFFFFFFFFFFFFFFFFFFFFFFFFFFFFFFF MUL NOT AND SWAP1 DUP4 PUSH20 0xFFFFFFFFFFFFFFFFFFFFFFFFFFFFFFFFFFFFFFFF AND MUL OR SWAP1 SSTORE POP PUSH1 0xE0 DUP3 ADD MLOAD DUP2 PUSH1 0x7 ADD SWAP1 DUP2 PUSH2 0x1391 SWAP2 SWAP1 PUSH2 0x27DB JUMP JUMPDEST POP PUSH2 0x100 DUP3 ADD MLOAD DUP2 PUSH1 0x8 ADD SWAP1 DUP1 MLOAD SWAP1 PUSH1 0x20 ADD SWAP1 PUSH2 0x13AF SWAP3 SWAP2 SWAP1 PUSH2 0x1A99 JUMP JUMPDEST POP SWAP1 POP POP POP POP JUMPDEST PUSH1 0x6 PUSH0 CALLER PUSH20 0xFFFFFFFFFFFFFFFFFFFFFFFFFFFFFFFFFFFFFFFF AND PUSH20 0xFFFFFFFFFFFFFFFFFFFFFFFFFFFFFFFFFFFFFFFF AND DUP2 MSTORE PUSH1 0x20 ADD SWAP1 DUP2 MSTORE PUSH1 0x20 ADD PUSH0 KECCAK256 DUP1 SLOAD DUP1 PUSH2 0x1403 JUMPI PUSH2 0x1402 PUSH2 0x2D15 JUMP JUMPDEST JUMPDEST PUSH1 0x1 SWAP1 SUB DUP2 DUP2 SWAP1 PUSH0 MSTORE PUSH1 0x20 PUSH0 KECCAK256 SWAP1 PUSH1 0x9 MUL ADD PUSH0 DUP1 DUP3 ADD PUSH0 SWAP1 SSTORE PUSH1 0x1 DUP3 ADD PUSH0 PUSH2 0x142B SWAP2 SWAP1 PUSH2 0x1BFC JUMP JUMPDEST PUSH1 0x2 DUP3 ADD PUSH0 PUSH2 0x143A SWAP2 SWAP1 PUSH2 0x1BFC JUMP JUMPDEST PUSH1 0x3 DUP3 ADD PUSH0 SWAP1 SSTORE PUSH1 0x4 DUP3 ADD PUSH0 SWAP1 SSTORE PUSH1 0x5 DUP3 ADD PUSH0 SWAP1 SSTORE PUSH1 0x6 DUP3 ADD PUSH0 PUSH2 0x100 EXP DUP2 SLOAD SWAP1 PUSH20 0xFFFFFFFFFFFFFFFFFFFFFFFFFFFFFFFFFFFFFFFF MUL NOT AND SWAP1 SSTORE PUSH1 0x7 DUP3 ADD PUSH0 PUSH2 0x1484 SWAP2 SWAP1 PUSH2 0x1BFC JUMP JUMPDEST PUSH1 0x8 DUP3 ADD PUSH0 PUSH2 0x1493 SWAP2 SWAP1 PUSH2 0x1A7B JUMP JUMPDEST POP POP SWAP1 SSTORE PUSH32 0x9BDFC616F8D66684206A96D723683E9370E718E7CCF00AD6BF94A8ADF5EFDF9C CALLER DUP5 PUSH1 0x40 MLOAD PUSH2 0x14C8 SWAP3 SWAP2 SWAP1 PUSH2 0x20B9 JUMP JUMPDEST PUSH1 0x40 MLOAD DUP1 SWAP2 SUB SWAP1 LOG1 POP POP POP JUMP JUMPDEST PUSH1 0x1 SLOAD DUP2 JUMP JUMPDEST PUSH1 0x60 PUSH0 JUMPDEST DUP8 MLOAD DUP2 LT ISZERO PUSH2 0x1736 JUMPI PUSH0 DUP9 DUP3 DUP2 MLOAD DUP2 LT PUSH2 0x14FC JUMPI PUSH2 0x14FB PUSH2 0x298D JUMP JUMPDEST JUMPDEST PUSH1 0x20 MUL PUSH1 0x20 ADD ADD MLOAD MLOAD SWAP1 POP PUSH0 DUP1 DUP1 SLOAD SWAP1 POP PUSH1 0x3 PUSH1 0x4 DUP1 SLOAD SWAP1 POP LT ISZERO PUSH2 0x1524 JUMPI PUSH1 0x4 DUP1 SLOAD SWAP1 POP SWAP1 POP JUMPDEST JUMPDEST DUP1 DUP3 LT ISZERO PUSH2 0x1726 JUMPI DUP2 DUP1 PUSH2 0x1538 SWAP1 PUSH2 0x2D42 JUMP JUMPDEST SWAP3 POP POP PUSH0 PUSH2 0x1545 DUP5 PUSH2 0x90B JUMP JUMPDEST SWAP1 POP PUSH0 PUSH20 0xFFFFFFFFFFFFFFFFFFFFFFFFFFFFFFFFFFFFFFFF AND DUP2 PUSH20 0xFFFFFFFFFFFFFFFFFFFFFFFFFFFFFFFFFFFFFFFF AND SUB PUSH2 0x15B5 JUMPI PUSH1 0x40 MLOAD PUSH32 0x8C379A000000000000000000000000000000000000000000000000000000000 DUP2 MSTORE PUSH1 0x4 ADD PUSH2 0x15AC SWAP1 PUSH2 0x2DD3 JUMP JUMPDEST PUSH1 0x40 MLOAD DUP1 SWAP2 SUB SWAP1 REVERT JUMPDEST PUSH2 0x1642 DUP2 PUSH1 0x7 DUP1 SLOAD DUP1 PUSH1 0x20 MUL PUSH1 0x20 ADD PUSH1 0x40 MLOAD SWAP1 DUP2 ADD PUSH1 0x40 MSTORE DUP1 SWAP3 SWAP2 SWAP1 DUP2 DUP2 MSTORE PUSH1 0x20 ADD DUP3 DUP1 SLOAD DUP1 ISZERO PUSH2 0x1638 JUMPI PUSH1 0x20 MUL DUP3 ADD SWAP2 SWAP1 PUSH0 MSTORE PUSH1 0x20 PUSH0 KECCAK256 SWAP1 JUMPDEST DUP2 PUSH0 SWAP1 SLOAD SWAP1 PUSH2 0x100 EXP SWAP1 DIV PUSH20 0xFFFFFFFFFFFFFFFFFFFFFFFFFFFFFFFFFFFFFFFF AND PUSH20 0xFFFFFFFFFFFFFFFFFFFFFFFFFFFFFFFFFFFFFFFF AND DUP2 MSTORE PUSH1 0x20 ADD SWAP1 PUSH1 0x1 ADD SWAP1 DUP1 DUP4 GT PUSH2 0x15EF JUMPI JUMPDEST POP POP POP POP POP PUSH2 0x19FD JUMP JUMPDEST PUSH2 0x16A7 JUMPI PUSH1 0x7 DUP2 SWAP1 DUP1 PUSH1 0x1 DUP2 SLOAD ADD DUP1 DUP3 SSTORE DUP1 SWAP2 POP POP PUSH1 0x1 SWAP1 SUB SWAP1 PUSH0 MSTORE PUSH1 0x20 PUSH0 KECCAK256 ADD PUSH0 SWAP1 SWAP2 SWAP1 SWAP2 SWAP1 SWAP2 PUSH2 0x100 EXP DUP2 SLOAD DUP2 PUSH20 0xFFFFFFFFFFFFFFFFFFFFFFFFFFFFFFFFFFFFFFFF MUL NOT AND SWAP1 DUP4 PUSH20 0xFFFFFFFFFFFFFFFFFFFFFFFFFFFFFFFFFFFFFFFF AND MUL OR SWAP1 SSTORE POP JUMPDEST PUSH2 0x16CB DUP2 DUP14 DUP8 DUP2 MLOAD DUP2 LT PUSH2 0x16BE JUMPI PUSH2 0x16BD PUSH2 0x298D JUMP JUMPDEST JUMPDEST PUSH1 0x20 MUL PUSH1 0x20 ADD ADD MLOAD PUSH2 0xD08 JUMP JUMPDEST PUSH2 0x1720 DUP2 DUP6 PUSH1 0x3 PUSH0 DUP6 PUSH20 0xFFFFFFFFFFFFFFFFFFFFFFFFFFFFFFFFFFFFFFFF AND PUSH20 0xFFFFFFFFFFFFFFFFFFFFFFFFFFFFFFFFFFFFFFFF AND DUP2 MSTORE PUSH1 0x20 ADD SWAP1 DUP2 MSTORE PUSH1 0x20 ADD PUSH0 KECCAK256 PUSH1 0x1 ADD SLOAD PUSH2 0x171B SWAP2 SWAP1 PUSH2 0x2A88 JUMP JUMPDEST PUSH2 0xBF3 JUMP JUMPDEST POP PUSH2 0x1525 JUMP JUMPDEST POP POP POP DUP1 DUP1 PUSH1 0x1 ADD SWAP2 POP POP PUSH2 0x14DF JUMP JUMPDEST POP PUSH0 PUSH2 0x1741 DUP9 PUSH2 0x87C JUMP JUMPDEST SWAP1 POP PUSH2 0x174D DUP2 DUP6 PUSH2 0xA48 JUMP JUMPDEST PUSH2 0x17DF DUP8 DUP8 DUP4 DUP9 PUSH1 0x7 DUP1 SLOAD DUP1 PUSH1 0x20 MUL PUSH1 0x20 ADD PUSH1 0x40 MLOAD SWAP1 DUP2 ADD PUSH1 0x40 MSTORE DUP1 SWAP3 SWAP2 SWAP1 DUP2 DUP2 MSTORE PUSH1 0x20 ADD DUP3 DUP1 SLOAD DUP1 ISZERO PUSH2 0x17D3 JUMPI PUSH1 0x20 MUL DUP3 ADD SWAP2 SWAP1 PUSH0 MSTORE PUSH1 0x20 PUSH0 KECCAK256 SWAP1 JUMPDEST DUP2 PUSH0 SWAP1 SLOAD SWAP1 PUSH2 0x100 EXP SWAP1 DIV PUSH20 0xFFFFFFFFFFFFFFFFFFFFFFFFFFFFFFFFFFFFFFFF AND PUSH20 0xFFFFFFFFFFFFFFFFFFFFFFFFFFFFFFFFFFFFFFFF AND DUP2 MSTORE PUSH1 0x20 ADD SWAP1 PUSH1 0x1 ADD SWAP1 DUP1 DUP4 GT PUSH2 0x178A JUMPI JUMPDEST POP POP POP POP POP DUP10 DUP10 PUSH2 0x3F4 JUMP JUMPDEST PUSH1 0x7 DUP1 SLOAD DUP1 PUSH1 0x20 MUL PUSH1 0x20 ADD PUSH1 0x40 MLOAD SWAP1 DUP2 ADD PUSH1 0x40 MSTORE DUP1 SWAP3 SWAP2 SWAP1 DUP2 DUP2 MSTORE PUSH1 0x20 ADD DUP3 DUP1 SLOAD DUP1 ISZERO PUSH2 0x185E JUMPI PUSH1 0x20 MUL DUP3 ADD SWAP2 SWAP1 PUSH0 MSTORE PUSH1 0x20 PUSH0 KECCAK256 SWAP1 JUMPDEST DUP2 PUSH0 SWAP1 SLOAD SWAP1 PUSH2 0x100 EXP SWAP1 DIV PUSH20 0xFFFFFFFFFFFFFFFFFFFFFFFFFFFFFFFFFFFFFFFF AND PUSH20 0xFFFFFFFFFFFFFFFFFFFFFFFFFFFFFFFFFFFFFFFF AND DUP2 MSTORE PUSH1 0x20 ADD SWAP1 PUSH1 0x1 ADD SWAP1 DUP1 DUP4 GT PUSH2 0x1815 JUMPI JUMPDEST POP POP POP POP POP SWAP2 POP POP SWAP7 SWAP6 POP POP POP POP POP POP JUMP JUMPDEST PUSH0 CALLER PUSH20 0xFFFFFFFFFFFFFFFFFFFFFFFFFFFFFFFFFFFFFFFF AND PUSH1 0x6 PUSH0 CALLER PUSH20 0xFFFFFFFFFFFFFFFFFFFFFFFFFFFFFFFFFFFFFFFF AND PUSH20 0xFFFFFFFFFFFFFFFFFFFFFFFFFFFFFFFFFFFFFFFF AND DUP2 MSTORE PUSH1 0x20 ADD SWAP1 DUP2 MSTORE PUSH1 0x20 ADD PUSH0 KECCAK256 DUP4 DUP2 SLOAD DUP2 LT PUSH2 0x18D7 JUMPI PUSH2 0x18D6 PUSH2 0x298D JUMP JUMPDEST JUMPDEST SWAP1 PUSH0 MSTORE PUSH1 0x20 PUSH0 KECCAK256 SWAP1 PUSH1 0x9 MUL ADD PUSH1 0x6 ADD PUSH0 SWAP1 SLOAD SWAP1 PUSH2 0x100 EXP SWAP1 DIV PUSH20 0xFFFFFFFFFFFFFFFFFFFFFFFFFFFFFFFFFFFFFFFF AND PUSH20 0xFFFFFFFFFFFFFFFFFFFFFFFFFFFFFFFFFFFFFFFF AND EQ PUSH2 0x195C JUMPI PUSH1 0x40 MLOAD PUSH32 0x8C379A000000000000000000000000000000000000000000000000000000000 DUP2 MSTORE PUSH1 0x4 ADD PUSH2 0x1953 SWAP1 PUSH2 0x2E61 JUMP JUMPDEST PUSH1 0x40 MLOAD DUP1 SWAP2 SUB SWAP1 REVERT JUMPDEST PUSH1 0x6 PUSH0 CALLER PUSH20 0xFFFFFFFFFFFFFFFFFFFFFFFFFFFFFFFFFFFFFFFF AND PUSH20 0xFFFFFFFFFFFFFFFFFFFFFFFFFFFFFFFFFFFFFFFF AND DUP2 MSTORE PUSH1 0x20 ADD SWAP1 DUP2 MSTORE PUSH1 0x20 ADD PUSH0 KECCAK256 DUP3 DUP2 SLOAD DUP2 LT PUSH2 0x19AB JUMPI PUSH2 0x19AA PUSH2 0x298D JUMP JUMPDEST JUMPDEST SWAP1 PUSH0 MSTORE PUSH1 0x20 PUSH0 KECCAK256 SWAP1 PUSH1 0x9 MUL ADD PUSH1 0x3 ADD SLOAD SWAP1 POP SWAP2 SWAP1 POP JUMP JUMPDEST PUSH1 0x4 DUP2 DUP2 SLOAD DUP2 LT PUSH2 0x19D1 JUMPI PUSH0 DUP1 REVERT JUMPDEST SWAP1 PUSH0 MSTORE PUSH1 0x20 PUSH0 KECCAK256 ADD PUSH0 SWAP2 POP SLOAD SWAP1 PUSH2 0x100 EXP SWAP1 DIV PUSH20 0xFFFFFFFFFFFFFFFFFFFFFFFFFFFFFFFFFFFFFFFF AND DUP2 JUMP JUMPDEST PUSH0 DUP1 PUSH0 SWAP1 POP JUMPDEST DUP3 MLOAD DUP2 LT ISZERO PUSH2 0x1A70 JUMPI DUP4 PUSH20 0xFFFFFFFFFFFFFFFFFFFFFFFFFFFFFFFFFFFFFFFF AND DUP4 DUP3 DUP2 MLOAD DUP2 LT PUSH2 0x1A36 JUMPI PUSH2 0x1A35 PUSH2 0x298D JUMP JUMPDEST JUMPDEST PUSH1 0x20 MUL PUSH1 0x20 ADD ADD MLOAD PUSH20 0xFFFFFFFFFFFFFFFFFFFFFFFFFFFFFFFFFFFFFFFF AND SUB PUSH2 0x1A63 JUMPI PUSH1 0x1 SWAP2 POP POP PUSH2 0x1A75 JUMP JUMPDEST DUP1 DUP1 PUSH1 0x1 ADD SWAP2 POP POP PUSH2 0x1A03 JUMP JUMPDEST POP PUSH0 SWAP1 POP JUMPDEST SWAP3 SWAP2 POP POP JUMP JUMPDEST POP DUP1 SLOAD PUSH0 DUP3 SSTORE SWAP1 PUSH0 MSTORE PUSH1 0x20 PUSH0 KECCAK256 SWAP1 DUP2 ADD SWAP1 PUSH2 0x1A96 SWAP2 SWAP1 PUSH2 0x1C39 JUMP JUMPDEST POP JUMP JUMPDEST DUP3 DUP1 SLOAD DUP3 DUP3 SSTORE SWAP1 PUSH0 MSTORE PUSH1 0x20 PUSH0 KECCAK256 SWAP1 DUP2 ADD SWAP3 DUP3 ISZERO PUSH2 0x1B0F JUMPI SWAP2 PUSH1 0x20 MUL DUP3 ADD JUMPDEST DUP3 DUP2 GT ISZERO PUSH2 0x1B0E JUMPI DUP3 MLOAD DUP3 PUSH0 PUSH2 0x100 EXP DUP2 SLOAD DUP2 PUSH20 0xFFFFFFFFFFFFFFFFFFFFFFFFFFFFFFFFFFFFFFFF MUL NOT AND SWAP1 DUP4 PUSH20 0xFFFFFFFFFFFFFFFFFFFFFFFFFFFFFFFFFFFFFFFF AND MUL OR SWAP1 SSTORE POP SWAP2 PUSH1 0x20 ADD SWAP2 SWAP1 PUSH1 0x1 ADD SWAP1 PUSH2 0x1AB7 JUMP JUMPDEST JUMPDEST POP SWAP1 POP PUSH2 0x1B1C SWAP2 SWAP1 PUSH2 0x1C39 JUMP JUMPDEST POP SWAP1 JUMP JUMPDEST PUSH1 0x40 MLOAD DUP1 PUSH1 0x40 ADD PUSH1 0x40 MSTORE DUP1 PUSH0 PUSH20 0xFFFFFFFFFFFFFFFFFFFFFFFFFFFFFFFFFFFFFFFF AND DUP2 MSTORE PUSH1 0x20 ADD PUSH0 DUP2 MSTORE POP SWAP1 JUMP JUMPDEST PUSH1 0x40 MLOAD DUP1 PUSH2 0x120 ADD PUSH1 0x40 MSTORE DUP1 PUSH0 DUP2 MSTORE PUSH1 0x20 ADD PUSH1 0x60 DUP2 MSTORE PUSH1 0x20 ADD PUSH1 0x60 DUP2 MSTORE PUSH1 0x20 ADD PUSH0 DUP1 NOT AND DUP2 MSTORE PUSH1 0x20 ADD PUSH0 DUP2 MSTORE PUSH1 0x20 ADD PUSH0 DUP2 MSTORE PUSH1 0x20 ADD PUSH0 PUSH20 0xFFFFFFFFFFFFFFFFFFFFFFFFFFFFFFFFFFFFFFFF AND DUP2 MSTORE PUSH1 0x20 ADD PUSH1 0x60 DUP2 MSTORE PUSH1 0x20 ADD PUSH1 0x60 DUP2 MSTORE POP SWAP1 JUMP JUMPDEST DUP3 DUP1 SLOAD DUP3 DUP3 SSTORE SWAP1 PUSH0 MSTORE PUSH1 0x20 PUSH0 KECCAK256 SWAP1 DUP2 ADD SWAP3 DUP3 ISZERO PUSH2 0x1BEB JUMPI PUSH0 MSTORE PUSH1 0x20 PUSH0 KECCAK256 SWAP2 DUP3 ADD JUMPDEST DUP3 DUP2 GT ISZERO PUSH2 0x1BEA JUMPI DUP3 SLOAD DUP3 SSTORE SWAP2 PUSH1 0x1 ADD SWAP2 SWAP1 PUSH1 0x1 ADD SWAP1 PUSH2 0x1BCF JUMP JUMPDEST JUMPDEST POP SWAP1 POP PUSH2 0x1BF8 SWAP2 SWAP1 PUSH2 0x1C39 JUMP JUMPDEST POP SWAP1 JUMP JUMPDEST POP DUP1 SLOAD PUSH2 0x1C08 SWAP1 PUSH2 0x260E JUMP JUMPDEST PUSH0 DUP3 SSTORE DUP1 PUSH1 0x1F LT PUSH2 0x1C19 JUMPI POP PUSH2 0x1C36 JUMP JUMPDEST PUSH1 0x1F ADD PUSH1 0x20 SWAP1 DIV SWAP1 PUSH0 MSTORE PUSH1 0x20 PUSH0 KECCAK256 SWAP1 DUP2 ADD SWAP1 PUSH2 0x1C35 SWAP2 SWAP1 PUSH2 0x1C39 JUMP JUMPDEST JUMPDEST POP JUMP JUMPDEST JUMPDEST DUP1 DUP3 GT ISZERO PUSH2 0x1C50 JUMPI PUSH0 DUP2 PUSH0 SWAP1 SSTORE POP PUSH1 0x1 ADD PUSH2 0x1C3A JUMP JUMPDEST POP SWAP1 JUMP JUMPDEST PUSH0 PUSH1 0x40 MLOAD SWAP1 POP SWAP1 JUMP JUMPDEST PUSH0 DUP1 REVERT JUMPDEST PUSH0 DUP1 REVERT JUMPDEST PUSH0 DUP1 REVERT JUMPDEST PUSH0 DUP1 REVERT JUMPDEST PUSH0 PUSH1 0x1F NOT PUSH1 0x1F DUP4 ADD AND SWAP1 POP SWAP2 SWAP1 POP JUMP JUMPDEST PUSH32 0x4E487B7100000000000000000000000000000000000000000000000000000000 PUSH0 MSTORE PUSH1 0x41 PUSH1 0x4 MSTORE PUSH1 0x24 PUSH0 REVERT JUMPDEST PUSH2 0x1CB3 DUP3 PUSH2 0x1C6D JUMP JUMPDEST DUP2 ADD DUP2 DUP2 LT PUSH8 0xFFFFFFFFFFFFFFFF DUP3 GT OR ISZERO PUSH2 0x1CD2 JUMPI PUSH2 0x1CD1 PUSH2 0x1C7D JUMP JUMPDEST JUMPDEST DUP1 PUSH1 0x40 MSTORE POP POP POP JUMP JUMPDEST PUSH0 PUSH2 0x1CE4 PUSH2 0x1C54 JUMP JUMPDEST SWAP1 POP PUSH2 0x1CF0 DUP3 DUP3 PUSH2 0x1CAA JUMP JUMPDEST SWAP2 SWAP1 POP JUMP JUMPDEST PUSH0 PUSH8 0xFFFFFFFFFFFFFFFF DUP3 GT ISZERO PUSH2 0x1D0F JUMPI PUSH2 0x1D0E PUSH2 0x1C7D JUMP JUMPDEST JUMPDEST PUSH2 0x1D18 DUP3 PUSH2 0x1C6D JUMP JUMPDEST SWAP1 POP PUSH1 0x20 DUP2 ADD SWAP1 POP SWAP2 SWAP1 POP JUMP JUMPDEST DUP3 DUP2 DUP4 CALLDATACOPY PUSH0 DUP4 DUP4 ADD MSTORE POP POP POP JUMP JUMPDEST PUSH0 PUSH2 0x1D45 PUSH2 0x1D40 DUP5 PUSH2 0x1CF5 JUMP JUMPDEST PUSH2 0x1CDB JUMP JUMPDEST SWAP1 POP DUP3 DUP2 MSTORE PUSH1 0x20 DUP2 ADD DUP5 DUP5 DUP5 ADD GT ISZERO PUSH2 0x1D61 JUMPI PUSH2 0x1D60 PUSH2 0x1C69 JUMP JUMPDEST JUMPDEST PUSH2 0x1D6C DUP5 DUP3 DUP6 PUSH2 0x1D25 JUMP JUMPDEST POP SWAP4 SWAP3 POP POP POP JUMP JUMPDEST PUSH0 DUP3 PUSH1 0x1F DUP4 ADD SLT PUSH2 0x1D88 JUMPI PUSH2 0x1D87 PUSH2 0x1C65 JUMP JUMPDEST JUMPDEST DUP2 CALLDATALOAD PUSH2 0x1D98 DUP5 DUP3 PUSH1 0x20 DUP7 ADD PUSH2 0x1D33 JUMP JUMPDEST SWAP2 POP POP SWAP3 SWAP2 POP POP JUMP JUMPDEST PUSH0 DUP2 SWAP1 POP SWAP2 SWAP1 POP JUMP JUMPDEST PUSH2 0x1DB3 DUP2 PUSH2 0x1DA1 JUMP JUMPDEST DUP2 EQ PUSH2 0x1DBD JUMPI PUSH0 DUP1 REVERT JUMPDEST POP JUMP JUMPDEST PUSH0 DUP2 CALLDATALOAD SWAP1 POP PUSH2 0x1DCE DUP2 PUSH2 0x1DAA JUMP JUMPDEST SWAP3 SWAP2 POP POP JUMP JUMPDEST PUSH0 PUSH8 0xFFFFFFFFFFFFFFFF DUP3 GT ISZERO PUSH2 0x1DEE JUMPI PUSH2 0x1DED PUSH2 0x1C7D JUMP JUMPDEST JUMPDEST PUSH1 0x20 DUP3 MUL SWAP1 POP PUSH1 0x20 DUP2 ADD SWAP1 POP SWAP2 SWAP1 POP JUMP JUMPDEST PUSH0 DUP1 REVERT JUMPDEST PUSH0 PUSH20 0xFFFFFFFFFFFFFFFFFFFFFFFFFFFFFFFFFFFFFFFF DUP3 AND SWAP1 POP SWAP2 SWAP1 POP JUMP JUMPDEST PUSH0 PUSH2 0x1E2C DUP3 PUSH2 0x1E03 JUMP JUMPDEST SWAP1 POP SWAP2 SWAP1 POP JUMP JUMPDEST PUSH2 0x1E3C DUP2 PUSH2 0x1E22 JUMP JUMPDEST DUP2 EQ PUSH2 0x1E46 JUMPI PUSH0 DUP1 REVERT JUMPDEST POP JUMP JUMPDEST PUSH0 DUP2 CALLDATALOAD SWAP1 POP PUSH2 0x1E57 DUP2 PUSH2 0x1E33 JUMP JUMPDEST SWAP3 SWAP2 POP POP JUMP JUMPDEST PUSH0 PUSH2 0x1E6F PUSH2 0x1E6A DUP5 PUSH2 0x1DD4 JUMP JUMPDEST PUSH2 0x1CDB JUMP JUMPDEST SWAP1 POP DUP1 DUP4 DUP3 MSTORE PUSH1 0x20 DUP3 ADD SWAP1 POP PUSH1 0x20 DUP5 MUL DUP4 ADD DUP6 DUP2 GT ISZERO PUSH2 0x1E92 JUMPI PUSH2 0x1E91 PUSH2 0x1DFF JUMP JUMPDEST JUMPDEST DUP4 JUMPDEST DUP2 DUP2 LT ISZERO PUSH2 0x1EBB JUMPI DUP1 PUSH2 0x1EA7 DUP9 DUP3 PUSH2 0x1E49 JUMP JUMPDEST DUP5 MSTORE PUSH1 0x20 DUP5 ADD SWAP4 POP POP PUSH1 0x20 DUP2 ADD SWAP1 POP PUSH2 0x1E94 JUMP JUMPDEST POP POP POP SWAP4 SWAP3 POP POP POP JUMP JUMPDEST PUSH0 DUP3 PUSH1 0x1F DUP4 ADD SLT PUSH2 0x1ED9 JUMPI PUSH2 0x1ED8 PUSH2 0x1C65 JUMP JUMPDEST JUMPDEST DUP2 CALLDATALOAD PUSH2 0x1EE9 DUP5 DUP3 PUSH1 0x20 DUP7 ADD PUSH2 0x1E5D JUMP JUMPDEST SWAP2 POP POP SWAP3 SWAP2 POP POP JUMP JUMPDEST PUSH0 DUP2 SWAP1 POP SWAP2 SWAP1 POP JUMP JUMPDEST PUSH2 0x1F04 DUP2 PUSH2 0x1EF2 JUMP JUMPDEST DUP2 EQ PUSH2 0x1F0E JUMPI PUSH0 DUP1 REVERT JUMPDEST POP JUMP JUMPDEST PUSH0 DUP2 CALLDATALOAD SWAP1 POP PUSH2 0x1F1F DUP2 PUSH2 0x1EFB JUMP JUMPDEST SWAP3 SWAP2 POP POP JUMP JUMPDEST PUSH0 DUP1 PUSH0 DUP1 PUSH0 DUP1 PUSH0 PUSH1 0xE0 DUP9 DUP11 SUB SLT ISZERO PUSH2 0x1F40 JUMPI PUSH2 0x1F3F PUSH2 0x1C5D JUMP JUMPDEST JUMPDEST PUSH0 DUP9 ADD CALLDATALOAD PUSH8 0xFFFFFFFFFFFFFFFF DUP2 GT ISZERO PUSH2 0x1F5D JUMPI PUSH2 0x1F5C PUSH2 0x1C61 JUMP JUMPDEST JUMPDEST PUSH2 0x1F69 DUP11 DUP3 DUP12 ADD PUSH2 0x1D74 JUMP JUMPDEST SWAP8 POP POP PUSH1 0x20 DUP9 ADD CALLDATALOAD PUSH8 0xFFFFFFFFFFFFFFFF DUP2 GT ISZERO PUSH2 0x1F8A JUMPI PUSH2 0x1F89 PUSH2 0x1C61 JUMP JUMPDEST JUMPDEST PUSH2 0x1F96 DUP11 DUP3 DUP12 ADD PUSH2 0x1D74 JUMP JUMPDEST SWAP7 POP POP PUSH1 0x40 PUSH2 0x1FA7 DUP11 DUP3 DUP12 ADD PUSH2 0x1DC0 JUMP JUMPDEST SWAP6 POP POP PUSH1 0x60 DUP9 ADD CALLDATALOAD PUSH8 0xFFFFFFFFFFFFFFFF DUP2 GT ISZERO PUSH2 0x1FC8 JUMPI PUSH2 0x1FC7 PUSH2 0x1C61 JUMP JUMPDEST JUMPDEST PUSH2 0x1FD4 DUP11 DUP3 DUP12 ADD PUSH2 0x1D74 JUMP JUMPDEST SWAP5 POP POP PUSH1 0x80 DUP9 ADD CALLDATALOAD PUSH8 0xFFFFFFFFFFFFFFFF DUP2 GT ISZERO PUSH2 0x1FF5 JUMPI PUSH2 0x1FF4 PUSH2 0x1C61 JUMP JUMPDEST JUMPDEST PUSH2 0x2001 DUP11 DUP3 DUP12 ADD PUSH2 0x1EC5 JUMP JUMPDEST SWAP4 POP POP PUSH1 0xA0 PUSH2 0x2012 DUP11 DUP3 DUP12 ADD PUSH2 0x1F11 JUMP JUMPDEST SWAP3 POP POP PUSH1 0xC0 PUSH2 0x2023 DUP11 DUP3 DUP12 ADD PUSH2 0x1F11 JUMP JUMPDEST SWAP2 POP POP SWAP3 SWAP6 SWAP9 SWAP2 SWAP5 SWAP8 POP SWAP3 SWAP6 POP JUMP JUMPDEST PUSH0 DUP1 PUSH1 0x40 DUP4 DUP6 SUB SLT ISZERO PUSH2 0x2048 JUMPI PUSH2 0x2047 PUSH2 0x1C5D JUMP JUMPDEST JUMPDEST PUSH0 PUSH2 0x2055 DUP6 DUP3 DUP7 ADD PUSH2 0x1E49 JUMP JUMPDEST SWAP3 POP POP PUSH1 0x20 PUSH2 0x2066 DUP6 DUP3 DUP7 ADD PUSH2 0x1F11 JUMP JUMPDEST SWAP2 POP POP SWAP3 POP SWAP3 SWAP1 POP JUMP JUMPDEST PUSH0 PUSH1 0x20 DUP3 DUP5 SUB SLT ISZERO PUSH2 0x2085 JUMPI PUSH2 0x2084 PUSH2 0x1C5D JUMP JUMPDEST JUMPDEST PUSH0 PUSH2 0x2092 DUP5 DUP3 DUP6 ADD PUSH2 0x1E49 JUMP JUMPDEST SWAP2 POP POP SWAP3 SWAP2 POP POP JUMP JUMPDEST PUSH2 0x20A4 DUP2 PUSH2 0x1E22 JUMP JUMPDEST DUP3 MSTORE POP POP JUMP JUMPDEST PUSH2 0x20B3 DUP2 PUSH2 0x1EF2 JUMP JUMPDEST DUP3 MSTORE POP POP JUMP JUMPDEST PUSH0 PUSH1 0x40 DUP3 ADD SWAP1 POP PUSH2 0x20CC PUSH0 DUP4 ADD DUP6 PUSH2 0x209B JUMP JUMPDEST PUSH2 0x20D9 PUSH1 0x20 DUP4 ADD DUP5 PUSH2 0x20AA JUMP JUMPDEST SWAP4 SWAP3 POP POP POP JUMP JUMPDEST PUSH0 PUSH8 0xFFFFFFFFFFFFFFFF DUP3 GT ISZERO PUSH2 0x20FA JUMPI PUSH2 0x20F9 PUSH2 0x1C7D JUMP JUMPDEST JUMPDEST PUSH1 0x20 DUP3 MUL SWAP1 POP PUSH1 0x20 DUP2 ADD SWAP1 POP SWAP2 SWAP1 POP JUMP JUMPDEST PUSH0 PUSH2 0x211D PUSH2 0x2118 DUP5 PUSH2 0x20E0 JUMP JUMPDEST PUSH2 0x1CDB JUMP JUMPDEST SWAP1 POP DUP1 DUP4 DUP3 MSTORE PUSH1 0x20 DUP3 ADD SWAP1 POP PUSH1 0x20 DUP5 MUL DUP4 ADD DUP6 DUP2 GT ISZERO PUSH2 0x2140 JUMPI PUSH2 0x213F PUSH2 0x1DFF JUMP JUMPDEST JUMPDEST DUP4 JUMPDEST DUP2 DUP2 LT ISZERO PUSH2 0x2187 JUMPI DUP1 CALLDATALOAD PUSH8 0xFFFFFFFFFFFFFFFF DUP2 GT ISZERO PUSH2 0x2165 JUMPI PUSH2 0x2164 PUSH2 0x1C65 JUMP JUMPDEST JUMPDEST DUP1 DUP7 ADD PUSH2 0x2172 DUP10 DUP3 PUSH2 0x1D74 JUMP JUMPDEST DUP6 MSTORE PUSH1 0x20 DUP6 ADD SWAP5 POP POP POP PUSH1 0x20 DUP2 ADD SWAP1 POP PUSH2 0x2142 JUMP JUMPDEST POP POP POP SWAP4 SWAP3 POP POP POP JUMP JUMPDEST PUSH0 DUP3 PUSH1 0x1F DUP4 ADD SLT PUSH2 0x21A5 JUMPI PUSH2 0x21A4 PUSH2 0x1C65 JUMP JUMPDEST JUMPDEST DUP2 CALLDATALOAD PUSH2 0x21B5 DUP5 DUP3 PUSH1 0x20 DUP7 ADD PUSH2 0x210B JUMP JUMPDEST SWAP2 POP POP SWAP3 SWAP2 POP POP JUMP JUMPDEST PUSH0 PUSH1 0x20 DUP3 DUP5 SUB SLT ISZERO PUSH2 0x21D3 JUMPI PUSH2 0x21D2 PUSH2 0x1C5D JUMP JUMPDEST JUMPDEST PUSH0 DUP3 ADD CALLDATALOAD PUSH8 0xFFFFFFFFFFFFFFFF DUP2 GT ISZERO PUSH2 0x21F0 JUMPI PUSH2 0x21EF PUSH2 0x1C61 JUMP JUMPDEST JUMPDEST PUSH2 0x21FC DUP5 DUP3 DUP6 ADD PUSH2 0x2191 JUMP JUMPDEST SWAP2 POP POP SWAP3 SWAP2 POP POP JUMP JUMPDEST PUSH2 0x220E DUP2 PUSH2 0x1DA1 JUMP JUMPDEST DUP3 MSTORE POP POP JUMP JUMPDEST PUSH0 PUSH1 0x20 DUP3 ADD SWAP1 POP PUSH2 0x2227 PUSH0 DUP4 ADD DUP5 PUSH2 0x2205 JUMP JUMPDEST SWAP3 SWAP2 POP POP JUMP JUMPDEST PUSH0 DUP1 PUSH1 0x40 DUP4 DUP6 SUB SLT ISZERO PUSH2 0x2243 JUMPI PUSH2 0x2242 PUSH2 0x1C5D JUMP JUMPDEST JUMPDEST PUSH0 PUSH2 0x2250 DUP6 DUP3 DUP7 ADD PUSH2 0x1E49 JUMP JUMPDEST SWAP3 POP POP PUSH1 0x20 DUP4 ADD CALLDATALOAD PUSH8 0xFFFFFFFFFFFFFFFF DUP2 GT ISZERO PUSH2 0x2271 JUMPI PUSH2 0x2270 PUSH2 0x1C61 JUMP JUMPDEST JUMPDEST PUSH2 0x227D DUP6 DUP3 DUP7 ADD PUSH2 0x1D74 JUMP JUMPDEST SWAP2 POP POP SWAP3 POP SWAP3 SWAP1 POP JUMP JUMPDEST PUSH0 DUP2 MLOAD SWAP1 POP SWAP2 SWAP1 POP JUMP JUMPDEST PUSH0 DUP3 DUP3 MSTORE PUSH1 0x20 DUP3 ADD SWAP1 POP SWAP3 SWAP2 POP POP JUMP JUMPDEST PUSH0 JUMPDEST DUP4 DUP2 LT ISZERO PUSH2 0x22BE JUMPI DUP1 DUP3 ADD MLOAD DUP2 DUP5 ADD MSTORE PUSH1 0x20 DUP2 ADD SWAP1 POP PUSH2 0x22A3 JUMP JUMPDEST PUSH0 DUP5 DUP5 ADD MSTORE POP POP POP POP JUMP JUMPDEST PUSH0 PUSH2 0x22D3 DUP3 PUSH2 0x2287 JUMP JUMPDEST PUSH2 0x22DD DUP2 DUP6 PUSH2 0x2291 JUMP JUMPDEST SWAP4 POP PUSH2 0x22ED DUP2 DUP6 PUSH1 0x20 DUP7 ADD PUSH2 0x22A1 JUMP JUMPDEST PUSH2 0x22F6 DUP2 PUSH2 0x1C6D JUMP JUMPDEST DUP5 ADD SWAP2 POP POP SWAP3 SWAP2 POP POP JUMP JUMPDEST PUSH0 PUSH1 0x20 DUP3 ADD SWAP1 POP DUP2 DUP2 SUB PUSH0 DUP4 ADD MSTORE PUSH2 0x2319 DUP2 DUP5 PUSH2 0x22C9 JUMP JUMPDEST SWAP1 POP SWAP3 SWAP2 POP POP JUMP JUMPDEST PUSH0 PUSH1 0x20 DUP3 ADD SWAP1 POP PUSH2 0x2334 PUSH0 DUP4 ADD DUP5 PUSH2 0x20AA JUMP JUMPDEST SWAP3 SWAP2 POP POP JUMP JUMPDEST PUSH0 PUSH1 0x20 DUP3 DUP5 SUB SLT ISZERO PUSH2 0x234F JUMPI PUSH2 0x234E PUSH2 0x1C5D JUMP JUMPDEST JUMPDEST PUSH0 PUSH2 0x235C DUP5 DUP3 DUP6 ADD PUSH2 0x1F11 JUMP JUMPDEST SWAP2 POP POP SWAP3 SWAP2 POP POP JUMP JUMPDEST PUSH0 PUSH1 0x20 DUP3 ADD SWAP1 POP PUSH2 0x2378 PUSH0 DUP4 ADD DUP5 PUSH2 0x209B JUMP JUMPDEST SWAP3 SWAP2 POP POP JUMP JUMPDEST PUSH0 DUP1 PUSH1 0x40 DUP4 DUP6 SUB SLT ISZERO PUSH2 0x2394 JUMPI PUSH2 0x2393 PUSH2 0x1C5D JUMP JUMPDEST JUMPDEST PUSH0 PUSH2 0x23A1 DUP6 DUP3 DUP7 ADD PUSH2 0x1DC0 JUMP JUMPDEST SWAP3 POP POP PUSH1 0x20 PUSH2 0x23B2 DUP6 DUP3 DUP7 ADD PUSH2 0x1F11 JUMP JUMPDEST SWAP2 POP POP SWAP3 POP SWAP3 SWAP1 POP JUMP JUMPDEST PUSH0 DUP2 MLOAD SWAP1 POP SWAP2 SWAP1 POP JUMP JUMPDEST PUSH0 DUP3 DUP3 MSTORE PUSH1 0x20 DUP3 ADD SWAP1 POP SWAP3 SWAP2 POP POP JUMP JUMPDEST PUSH0 DUP2 SWAP1 POP PUSH1 0x20 DUP3 ADD SWAP1 POP SWAP2 SWAP1 POP JUMP JUMPDEST PUSH2 0x23EE DUP2 PUSH2 0x1E22 JUMP JUMPDEST DUP3 MSTORE POP POP JUMP JUMPDEST PUSH0 PUSH2 0x23FF DUP4 DUP4 PUSH2 0x23E5 JUMP JUMPDEST PUSH1 0x20 DUP4 ADD SWAP1 POP SWAP3 SWAP2 POP POP JUMP JUMPDEST PUSH0 PUSH1 0x20 DUP3 ADD SWAP1 POP SWAP2 SWAP1 POP JUMP JUMPDEST PUSH0 PUSH2 0x2421 DUP3 PUSH2 0x23BC JUMP JUMPDEST PUSH2 0x242B DUP2 DUP6 PUSH2 0x23C6 JUMP JUMPDEST SWAP4 POP PUSH2 0x2436 DUP4 PUSH2 0x23D6 JUMP JUMPDEST DUP1 PUSH0 JUMPDEST DUP4 DUP2 LT ISZERO PUSH2 0x2466 JUMPI DUP2 MLOAD PUSH2 0x244D DUP9 DUP3 PUSH2 0x23F4 JUMP JUMPDEST SWAP8 POP PUSH2 0x2458 DUP4 PUSH2 0x240B JUMP JUMPDEST SWAP3 POP POP PUSH1 0x1 DUP2 ADD SWAP1 POP PUSH2 0x2439 JUMP JUMPDEST POP DUP6 SWAP4 POP POP POP POP SWAP3 SWAP2 POP POP JUMP JUMPDEST PUSH0 PUSH1 0x20 DUP3 ADD SWAP1 POP DUP2 DUP2 SUB PUSH0 DUP4 ADD MSTORE PUSH2 0x248B DUP2 DUP5 PUSH2 0x2417 JUMP JUMPDEST SWAP1 POP SWAP3 SWAP2 POP POP JUMP JUMPDEST PUSH2 0x249C DUP2 PUSH2 0x1EF2 JUMP JUMPDEST DUP3 MSTORE POP POP JUMP JUMPDEST PUSH1 0x40 DUP3 ADD PUSH0 DUP3 ADD MLOAD PUSH2 0x24B6 PUSH0 DUP6 ADD DUP3 PUSH2 0x23E5 JUMP JUMPDEST POP PUSH1 0x20 DUP3 ADD MLOAD PUSH2 0x24C9 PUSH1 0x20 DUP6 ADD DUP3 PUSH2 0x2493 JUMP JUMPDEST POP POP POP POP JUMP JUMPDEST PUSH0 PUSH1 0x40 DUP3 ADD SWAP1 POP PUSH2 0x24E2 PUSH0 DUP4 ADD DUP5 PUSH2 0x24A2 JUMP JUMPDEST SWAP3 SWAP2 POP POP JUMP JUMPDEST PUSH0 DUP1 PUSH0 DUP1 PUSH0 DUP1 PUSH1 0xC0 DUP8 DUP10 SUB SLT ISZERO PUSH2 0x2502 JUMPI PUSH2 0x2501 PUSH2 0x1C5D JUMP JUMPDEST JUMPDEST PUSH0 DUP8 ADD CALLDATALOAD PUSH8 0xFFFFFFFFFFFFFFFF DUP2 GT ISZERO PUSH2 0x251F JUMPI PUSH2 0x251E PUSH2 0x1C61 JUMP JUMPDEST JUMPDEST PUSH2 0x252B DUP10 DUP3 DUP11 ADD PUSH2 0x2191 JUMP JUMPDEST SWAP7 POP POP PUSH1 0x20 DUP8 ADD CALLDATALOAD PUSH8 0xFFFFFFFFFFFFFFFF DUP2 GT ISZERO PUSH2 0x254C JUMPI PUSH2 0x254B PUSH2 0x1C61 JUMP JUMPDEST JUMPDEST PUSH2 0x2558 DUP10 DUP3 DUP11 ADD PUSH2 0x1D74 JUMP JUMPDEST SWAP6 POP POP PUSH1 0x40 DUP8 ADD CALLDATALOAD PUSH8 0xFFFFFFFFFFFFFFFF DUP2 GT ISZERO PUSH2 0x2579 JUMPI PUSH2 0x2578 PUSH2 0x1C61 JUMP JUMPDEST JUMPDEST PUSH2 0x2585 DUP10 DUP3 DUP11 ADD PUSH2 0x1D74 JUMP JUMPDEST SWAP5 POP POP PUSH1 0x60 DUP8 ADD CALLDATALOAD PUSH8 0xFFFFFFFFFFFFFFFF DUP2 GT ISZERO PUSH2 0x25A6 JUMPI PUSH2 0x25A5 PUSH2 0x1C61 JUMP JUMPDEST JUMPDEST PUSH2 0x25B2 DUP10 DUP3 DUP11 ADD PUSH2 0x1D74 JUMP JUMPDEST SWAP4 POP POP PUSH1 0x80 PUSH2 0x25C3 DUP10 DUP3 DUP11 ADD PUSH2 0x1F11 JUMP JUMPDEST SWAP3 POP POP PUSH1 0xA0 PUSH2 0x25D4 DUP10 DUP3 DUP11 ADD PUSH2 0x1F11 JUMP JUMPDEST SWAP2 POP POP SWAP3 SWAP6 POP SWAP3 SWAP6 POP SWAP3 SWAP6 JUMP JUMPDEST PUSH32 0x4E487B7100000000000000000000000000000000000000000000000000000000 PUSH0 MSTORE PUSH1 0x22 PUSH1 0x4 MSTORE PUSH1 0x24 PUSH0 REVERT JUMPDEST PUSH0 PUSH1 0x2 DUP3 DIV SWAP1 POP PUSH1 0x1 DUP3 AND DUP1 PUSH2 0x2625 JUMPI PUSH1 0x7F DUP3 AND SWAP2 POP JUMPDEST PUSH1 0x20 DUP3 LT DUP2 SUB PUSH2 0x2638 JUMPI PUSH2 0x2637 PUSH2 0x25E1 JUMP JUMPDEST JUMPDEST POP SWAP2 SWAP1 POP JUMP JUMPDEST PUSH0 DUP2 SWAP1 POP DUP2 PUSH0 MSTORE PUSH1 0x20 PUSH0 KECCAK256 SWAP1 POP SWAP2 SWAP1 POP JUMP JUMPDEST PUSH0 PUSH1 0x20 PUSH1 0x1F DUP4 ADD DIV SWAP1 POP SWAP2 SWAP1 POP JUMP JUMPDEST PUSH0 DUP3 DUP3 SHL SWAP1 POP SWAP3 SWAP2 POP POP JUMP JUMPDEST PUSH0 PUSH1 0x8 DUP4 MUL PUSH2 0x269A PUSH32 0xFFFFFFFFFFFFFFFFFFFFFFFFFFFFFFFFFFFFFFFFFFFFFFFFFFFFFFFFFFFFFFFF DUP3 PUSH2 0x265F JUMP JUMPDEST PUSH2 0x26A4 DUP7 DUP4 PUSH2 0x265F JUMP JUMPDEST SWAP6 POP DUP1 NOT DUP5 AND SWAP4 POP DUP1 DUP7 AND DUP5 OR SWAP3 POP POP POP SWAP4 SWAP3 POP POP POP JUMP JUMPDEST PUSH0 DUP2 SWAP1 POP SWAP2 SWAP1 POP JUMP JUMPDEST PUSH0 PUSH2 0x26DF PUSH2 0x26DA PUSH2 0x26D5 DUP5 PUSH2 0x1EF2 JUMP JUMPDEST PUSH2 0x26BC JUMP JUMPDEST PUSH2 0x1EF2 JUMP JUMPDEST SWAP1 POP SWAP2 SWAP1 POP JUMP JUMPDEST PUSH0 DUP2 SWAP1 POP SWAP2 SWAP1 POP JUMP JUMPDEST PUSH2 0x26F8 DUP4 PUSH2 0x26C5 JUMP JUMPDEST PUSH2 0x270C PUSH2 0x2704 DUP3 PUSH2 0x26E6 JUMP JUMPDEST DUP5 DUP5 SLOAD PUSH2 0x266B JUMP JUMPDEST DUP3 SSTORE POP POP POP POP JUMP JUMPDEST PUSH0 SWAP1 JUMP JUMPDEST PUSH2 0x2720 PUSH2 0x2714 JUMP JUMPDEST PUSH2 0x272B DUP2 DUP5 DUP5 PUSH2 0x26EF JUMP JUMPDEST POP POP POP JUMP JUMPDEST JUMPDEST DUP2 DUP2 LT ISZERO PUSH2 0x274E JUMPI PUSH2 0x2743 PUSH0 DUP3 PUSH2 0x2718 JUMP JUMPDEST PUSH1 0x1 DUP2 ADD SWAP1 POP PUSH2 0x2731 JUMP JUMPDEST POP POP JUMP JUMPDEST PUSH1 0x1F DUP3 GT ISZERO PUSH2 0x2793 JUMPI PUSH2 0x2764 DUP2 PUSH2 0x263E JUMP JUMPDEST PUSH2 0x276D DUP5 PUSH2 0x2650 JUMP JUMPDEST DUP2 ADD PUSH1 0x20 DUP6 LT ISZERO PUSH2 0x277C JUMPI DUP2 SWAP1 POP JUMPDEST PUSH2 0x2790 PUSH2 0x2788 DUP6 PUSH2 0x2650 JUMP JUMPDEST DUP4 ADD DUP3 PUSH2 0x2730 JUMP JUMPDEST POP POP JUMPDEST POP POP POP JUMP JUMPDEST PUSH0 DUP3 DUP3 SHR SWAP1 POP SWAP3 SWAP2 POP POP JUMP JUMPDEST PUSH0 PUSH2 0x27B3 PUSH0 NOT DUP5 PUSH1 0x8 MUL PUSH2 0x2798 JUMP JUMPDEST NOT DUP1 DUP4 AND SWAP2 POP POP SWAP3 SWAP2 POP POP JUMP JUMPDEST PUSH0 PUSH2 0x27CB DUP4 DUP4 PUSH2 0x27A4 JUMP JUMPDEST SWAP2 POP DUP3 PUSH1 0x2 MUL DUP3 OR SWAP1 POP SWAP3 SWAP2 POP POP JUMP JUMPDEST PUSH2 0x27E4 DUP3 PUSH2 0x2287 JUMP JUMPDEST PUSH8 0xFFFFFFFFFFFFFFFF DUP2 GT ISZERO PUSH2 0x27FD JUMPI PUSH2 0x27FC PUSH2 0x1C7D JUMP JUMPDEST JUMPDEST PUSH2 0x2807 DUP3 SLOAD PUSH2 0x260E JUMP JUMPDEST PUSH2 0x2812 DUP3 DUP3 DUP6 PUSH2 0x2752 JUMP JUMPDEST PUSH0 PUSH1 0x20 SWAP1 POP PUSH1 0x1F DUP4 GT PUSH1 0x1 DUP2 EQ PUSH2 0x2843 JUMPI PUSH0 DUP5 ISZERO PUSH2 0x2831 JUMPI DUP3 DUP8 ADD MLOAD SWAP1 POP JUMPDEST PUSH2 0x283B DUP6 DUP3 PUSH2 0x27C0 JUMP JUMPDEST DUP7 SSTORE POP PUSH2 0x28A2 JUMP JUMPDEST PUSH1 0x1F NOT DUP5 AND PUSH2 0x2851 DUP7 PUSH2 0x263E JUMP JUMPDEST PUSH0 JUMPDEST DUP3 DUP2 LT ISZERO PUSH2 0x2878 JUMPI DUP5 DUP10 ADD MLOAD DUP3 SSTORE PUSH1 0x1 DUP3 ADD SWAP2 POP PUSH1 0x20 DUP6 ADD SWAP5 POP PUSH1 0x20 DUP2 ADD SWAP1 POP PUSH2 0x2853 JUMP JUMPDEST DUP7 DUP4 LT ISZERO PUSH2 0x2895 JUMPI DUP5 DUP10 ADD MLOAD PUSH2 0x2891 PUSH1 0x1F DUP10 AND DUP3 PUSH2 0x27A4 JUMP JUMPDEST DUP4 SSTORE POP JUMPDEST PUSH1 0x1 PUSH1 0x2 DUP9 MUL ADD DUP9 SSTORE POP POP POP JUMPDEST POP POP POP POP POP POP JUMP JUMPDEST PUSH0 PUSH1 0xE0 DUP3 ADD SWAP1 POP PUSH2 0x28BD PUSH0 DUP4 ADD DUP11 PUSH2 0x20AA JUMP JUMPDEST DUP2 DUP2 SUB PUSH1 0x20 DUP4 ADD MSTORE PUSH2 0x28CF DUP2 DUP10 PUSH2 0x22C9 JUMP JUMPDEST SWAP1 POP DUP2 DUP2 SUB PUSH1 0x40 DUP4 ADD MSTORE PUSH2 0x28E3 DUP2 DUP9 PUSH2 0x22C9 JUMP JUMPDEST SWAP1 POP PUSH2 0x28F2 PUSH1 0x60 DUP4 ADD DUP8 PUSH2 0x2205 JUMP JUMPDEST PUSH2 0x28FF PUSH1 0x80 DUP4 ADD DUP7 PUSH2 0x20AA JUMP JUMPDEST PUSH2 0x290C PUSH1 0xA0 DUP4 ADD DUP6 PUSH2 0x20AA JUMP JUMPDEST PUSH2 0x2919 PUSH1 0xC0 DUP4 ADD DUP5 PUSH2 0x209B JUMP JUMPDEST SWAP9 SWAP8 POP POP POP POP POP POP POP POP JUMP JUMPDEST PUSH32 0x4E6F646520616C72656164792065786973747300000000000000000000000000 PUSH0 DUP3 ADD MSTORE POP JUMP JUMPDEST PUSH0 PUSH2 0x2959 PUSH1 0x13 DUP4 PUSH2 0x2291 JUMP JUMPDEST SWAP2 POP PUSH2 0x2964 DUP3 PUSH2 0x2925 JUMP JUMPDEST PUSH1 0x20 DUP3 ADD SWAP1 POP SWAP2 SWAP1 POP JUMP JUMPDEST PUSH0 PUSH1 0x20 DUP3 ADD SWAP1 POP DUP2 DUP2 SUB PUSH0 DUP4 ADD MSTORE PUSH2 0x2986 DUP2 PUSH2 0x294D JUMP JUMPDEST SWAP1 POP SWAP2 SWAP1 POP JUMP JUMPDEST PUSH32 0x4E487B7100000000000000000000000000000000000000000000000000000000 PUSH0 MSTORE PUSH1 0x32 PUSH1 0x4 MSTORE PUSH1 0x24 PUSH0 REVERT JUMPDEST PUSH0 DUP2 MLOAD SWAP1 POP SWAP2 SWAP1 POP JUMP JUMPDEST PUSH0 DUP2 SWAP1 POP SWAP3 SWAP2 POP POP JUMP JUMPDEST PUSH0 PUSH2 0x29D8 DUP3 PUSH2 0x29BA JUMP JUMPDEST PUSH2 0x29E2 DUP2 DUP6 PUSH2 0x29C4 JUMP JUMPDEST SWAP4 POP PUSH2 0x29F2 DUP2 DUP6 PUSH1 0x20 DUP7 ADD PUSH2 0x22A1 JUMP JUMPDEST DUP1 DUP5 ADD SWAP2 POP POP SWAP3 SWAP2 POP POP JUMP JUMPDEST PUSH0 DUP2 SWAP1 POP SWAP3 SWAP2 POP POP JUMP JUMPDEST PUSH0 PUSH2 0x2A12 DUP3 PUSH2 0x2287 JUMP JUMPDEST PUSH2 0x2A1C DUP2 DUP6 PUSH2 0x29FE JUMP JUMPDEST SWAP4 POP PUSH2 0x2A2C DUP2 DUP6 PUSH1 0x20 DUP7 ADD PUSH2 0x22A1 JUMP JUMPDEST DUP1 DUP5 ADD SWAP2 POP POP SWAP3 SWAP2 POP POP JUMP JUMPDEST PUSH0 PUSH2 0x2A43 DUP3 DUP6 PUSH2 0x29CE JUMP JUMPDEST SWAP2 POP PUSH2 0x2A4F DUP3 DUP5 PUSH2 0x2A08 JUMP JUMPDEST SWAP2 POP DUP2 SWAP1 POP SWAP4 SWAP3 POP POP POP JUMP JUMPDEST PUSH32 0x4E487B7100000000000000000000000000000000000000000000000000000000 PUSH0 MSTORE PUSH1 0x11 PUSH1 0x4 MSTORE PUSH1 0x24 PUSH0 REVERT JUMPDEST PUSH0 PUSH2 0x2A92 DUP3 PUSH2 0x1EF2 JUMP JUMPDEST SWAP2 POP PUSH2 0x2A9D DUP4 PUSH2 0x1EF2 JUMP JUMPDEST SWAP3 POP DUP3 DUP3 SUB SWAP1 POP DUP2 DUP2 GT ISZERO PUSH2 0x2AB5 JUMPI PUSH2 0x2AB4 PUSH2 0x2A5B JUMP JUMPDEST JUMPDEST SWAP3 SWAP2 POP POP JUMP JUMPDEST PUSH32 0x4E487B7100000000000000000000000000000000000000000000000000000000 PUSH0 MSTORE PUSH1 0x12 PUSH1 0x4 MSTORE PUSH1 0x24 PUSH0 REVERT JUMPDEST PUSH0 PUSH2 0x2AF2 DUP3 PUSH2 0x1EF2 JUMP JUMPDEST SWAP2 POP PUSH2 0x2AFD DUP4 PUSH2 0x1EF2 JUMP JUMPDEST SWAP3 POP DUP3 PUSH2 0x2B0D JUMPI PUSH2 0x2B0C PUSH2 0x2ABB JUMP JUMPDEST JUMPDEST DUP3 DUP3 MOD SWAP1 POP SWAP3 SWAP2 POP POP JUMP JUMPDEST PUSH0 PUSH2 0x2B22 DUP3 PUSH2 0x1EF2 JUMP JUMPDEST SWAP2 POP PUSH2 0x2B2D DUP4 PUSH2 0x1EF2 JUMP JUMPDEST SWAP3 POP DUP3 DUP3 ADD SWAP1 POP DUP1 DUP3 GT ISZERO PUSH2 0x2B45 JUMPI PUSH2 0x2B44 PUSH2 0x2A5B JUMP JUMPDEST JUMPDEST SWAP3 SWAP2 POP POP JUMP JUMPDEST PUSH32 0x4E6F646520646F6573206E6F7420657869737400000000000000000000000000 PUSH0 DUP3 ADD MSTORE POP JUMP JUMPDEST PUSH0 PUSH2 0x2B7F PUSH1 0x13 DUP4 PUSH2 0x2291 JUMP JUMPDEST SWAP2 POP PUSH2 0x2B8A DUP3 PUSH2 0x2B4B JUMP JUMPDEST PUSH1 0x20 DUP3 ADD SWAP1 POP SWAP2 SWAP1 POP JUMP JUMPDEST PUSH0 PUSH1 0x20 DUP3 ADD SWAP1 POP DUP2 DUP2 SUB PUSH0 DUP4 ADD MSTORE PUSH2 0x2BAC DUP2 PUSH2 0x2B73 JUMP JUMPDEST SWAP1 POP SWAP2 SWAP1 POP JUMP JUMPDEST PUSH32 0x496E76616C69642066696C652069640000000000000000000000000000000000 PUSH0 DUP3 ADD MSTORE POP JUMP JUMPDEST PUSH0 PUSH2 0x2BE7 PUSH1 0xF DUP4 PUSH2 0x2291 JUMP JUMPDEST SWAP2 POP PUSH2 0x2BF2 DUP3 PUSH2 0x2BB3 JUMP JUMPDEST PUSH1 0x20 DUP3 ADD SWAP1 POP SWAP2 SWAP1 POP JUMP JUMPDEST PUSH0 PUSH1 0x20 DUP3 ADD SWAP1 POP DUP2 DUP2 SUB PUSH0 DUP4 ADD MSTORE PUSH2 0x2C14 DUP2 PUSH2 0x2BDB JUMP JUMPDEST SWAP1 POP SWAP2 SWAP1 POP JUMP JUMPDEST PUSH0 DUP2 SLOAD SWAP1 POP PUSH2 0x2C29 DUP2 PUSH2 0x260E JUMP JUMPDEST SWAP1 POP SWAP2 SWAP1 POP JUMP JUMPDEST DUP2 DUP2 SUB PUSH2 0x2C3E JUMPI POP POP PUSH2 0x2D13 JUMP JUMPDEST PUSH2 0x2C47 DUP3 PUSH2 0x2C1B JUMP JUMPDEST PUSH8 0xFFFFFFFFFFFFFFFF DUP2 GT ISZERO PUSH2 0x2C60 JUMPI PUSH2 0x2C5F PUSH2 0x1C7D JUMP JUMPDEST JUMPDEST PUSH2 0x2C6A DUP3 SLOAD PUSH2 0x260E JUMP JUMPDEST PUSH2 0x2C75 DUP3 DUP3 DUP6 PUSH2 0x2752 JUMP JUMPDEST PUSH0 PUSH1 0x1F DUP4 GT PUSH1 0x1 DUP2 EQ PUSH2 0x2CA2 JUMPI PUSH0 DUP5 ISZERO PUSH2 0x2C90 JUMPI DUP3 DUP8 ADD SLOAD SWAP1 POP JUMPDEST PUSH2 0x2C9A DUP6 DUP3 PUSH2 0x27C0 JUMP JUMPDEST DUP7 SSTORE POP PUSH2 0x2D0C JUMP JUMPDEST PUSH1 0x1F NOT DUP5 AND PUSH2 0x2CB0 DUP8 PUSH2 0x263E JUMP JUMPDEST SWAP7 POP PUSH2 0x2CBB DUP7 PUSH2 0x263E JUMP JUMPDEST PUSH0 JUMPDEST DUP3 DUP2 LT ISZERO PUSH2 0x2CE2 JUMPI DUP5 DUP10 ADD SLOAD DUP3 SSTORE PUSH1 0x1 DUP3 ADD SWAP2 POP PUSH1 0x1 DUP6 ADD SWAP5 POP PUSH1 0x20 DUP2 ADD SWAP1 POP PUSH2 0x2CBD JUMP JUMPDEST DUP7 DUP4 LT ISZERO PUSH2 0x2CFF JUMPI DUP5 DUP10 ADD SLOAD PUSH2 0x2CFB PUSH1 0x1F DUP10 AND DUP3 PUSH2 0x27A4 JUMP JUMPDEST DUP4 SSTORE POP JUMPDEST PUSH1 0x1 PUSH1 0x2 DUP9 MUL ADD DUP9 SSTORE POP POP POP JUMPDEST POP POP POP POP POP POP JUMPDEST JUMP JUMPDEST PUSH32 0x4E487B7100000000000000000000000000000000000000000000000000000000 PUSH0 MSTORE PUSH1 0x31 PUSH1 0x4 MSTORE PUSH1 0x24 PUSH0 REVERT JUMPDEST PUSH0 PUSH2 0x2D4C DUP3 PUSH2 0x1EF2 JUMP JUMPDEST SWAP2 POP PUSH32 0xFFFFFFFFFFFFFFFFFFFFFFFFFFFFFFFFFFFFFFFFFFFFFFFFFFFFFFFFFFFFFFFF DUP3 SUB PUSH2 0x2D7E JUMPI PUSH2 0x2D7D PUSH2 0x2A5B JUMP JUMPDEST JUMPDEST PUSH1 0x1 DUP3 ADD SWAP1 POP SWAP2 SWAP1 POP JUMP JUMPDEST PUSH32 0x4E6F20617661696C61626C65206E6F6465730000000000000000000000000000 PUSH0 DUP3 ADD MSTORE POP JUMP JUMPDEST PUSH0 PUSH2 0x2DBD PUSH1 0x12 DUP4 PUSH2 0x2291 JUMP JUMPDEST SWAP2 POP PUSH2 0x2DC8 DUP3 PUSH2 0x2D89 JUMP JUMPDEST PUSH1 0x20 DUP3 ADD SWAP1 POP SWAP2 SWAP1 POP JUMP JUMPDEST PUSH0 PUSH1 0x20 DUP3 ADD SWAP1 POP DUP2 DUP2 SUB PUSH0 DUP4 ADD MSTORE PUSH2 0x2DEA DUP2 PUSH2 0x2DB1 JUMP JUMPDEST SWAP1 POP SWAP2 SWAP1 POP JUMP JUMPDEST PUSH32 0x556E61757468656E74696361746564206F722066696C65206E6F7420666F756E PUSH0 DUP3 ADD MSTORE PUSH32 0x6400000000000000000000000000000000000000000000000000000000000000 PUSH1 0x20 DUP3 ADD MSTORE POP JUMP JUMPDEST PUSH0 PUSH2 0x2E4B PUSH1 0x21 DUP4 PUSH2 0x2291 JUMP JUMPDEST SWAP2 POP PUSH2 0x2E56 DUP3 PUSH2 0x2DF1 JUMP JUMPDEST PUSH1 0x40 DUP3 ADD SWAP1 POP SWAP2 SWAP1 POP JUMP JUMPDEST PUSH0 PUSH1 0x20 DUP3 ADD SWAP1 POP DUP2 DUP2 SUB PUSH0 DUP4 ADD MSTORE PUSH2 0x2E78 DUP2 PUSH2 0x2E3F JUMP JUMPDEST SWAP1 POP SWAP2 SWAP1 POP JUMP INVALID LOG2 PUSH5 0x6970667358 0x22 SLT KECCAK256 PUSH21 0x7FEA673B810A75E47B1783D7F710CDD02296239930 PUSH13 0xBD9EF53F7717AD478064736F6C PUSH4 0x43000816 STOP CALLER "
				},
				"gasEstimates": {
					"creation": {
						"codeDepositCost": "2391400",
						"executionCost": "71042",
						"totalCost": "2462442"
					},
					"external": {
						"addNode(address,uint256)": "98067",
						"allNodes(uint256)": "5054",
						"createHash(string[])": "infinite",
						"deleteChunkInNode(address,string)": "infinite",
						"deleteFile(uint256)": "infinite",
						"findAvailableNode(uint256)": "infinite",
						"getAllNodes()": "infinite",
						"getNodeByAddress(address)": "infinite",
						"maxChunkSize()": "2469",
						"nodes(address)": "infinite",
						"numMaxChunksDuplication()": "2491",
						"owner()": "2619",
						"retrieveChunkInNode(address,string)": "infinite",
						"retrieveFile(uint256)": "9514",
						"storeChunkInNode(address,string)": "infinite",
						"storeFile(string[],string,string,string,uint256,uint256)": "infinite",
						"storeFileHash(bytes32,uint256)": "22868",
						"storeFileMetadata(string,string,bytes32,string,address[],uint256,uint256)": "infinite",
						"updateAvailableStorage(address,uint256)": "25179"
					},
					"internal": {
						"isAddressPresent(address,address[] memory)": "infinite"
					}
				},
				"methodIdentifiers": {
					"addNode(address,uint256)": "11bd77fe",
					"allNodes(uint256)": "fe72ae13",
					"createHash(string[])": "196815d2",
					"deleteChunkInNode(address,string)": "50f1c985",
					"deleteFile(uint256)": "c5b42006",
					"findAvailableNode(uint256)": "64f0c0b8",
					"getAllNodes()": "a1174e7d",
					"getNodeByAddress(address)": "a9860308",
					"maxChunkSize()": "cf86bf93",
					"nodes(address)": "189a5a17",
					"numMaxChunksDuplication()": "5ffd7c06",
					"owner()": "8da5cb5b",
					"retrieveChunkInNode(address,string)": "2a85be1e",
					"retrieveFile(uint256)": "e316e85c",
					"storeChunkInNode(address,string)": "b65814a6",
					"storeFile(string[],string,string,string,uint256,uint256)": "e036004c",
					"storeFileHash(bytes32,uint256)": "912bb1fb",
					"storeFileMetadata(string,string,bytes32,string,address[],uint256,uint256)": "09fbf55a",
					"updateAvailableStorage(address,uint256)": "b49f33c8"
				}
			},
			"storageLayout": {
				"storage": [
					{
						"astId": 4,
						"contract": "contracts/_FileStorage.sol:FileStorageManager",
						"label": "numMaxChunksDuplication",
						"offset": 0,
						"slot": "0",
						"type": "t_uint256"
					},
					{
						"astId": 7,
						"contract": "contracts/_FileStorage.sol:FileStorageManager",
						"label": "maxChunkSize",
						"offset": 0,
						"slot": "1",
						"type": "t_uint256"
					},
					{
						"astId": 11,
						"contract": "contracts/_FileStorage.sol:FileStorageManager",
						"label": "fileIdToHash",
						"offset": 0,
						"slot": "2",
						"type": "t_mapping(t_uint256,t_bytes32)"
					},
					{
						"astId": 622,
						"contract": "contracts/_FileStorage.sol:FileStorageManager",
						"label": "nodes",
						"offset": 0,
						"slot": "3",
						"type": "t_mapping(t_address,t_struct(Node)617_storage)"
					},
					{
						"astId": 625,
						"contract": "contracts/_FileStorage.sol:FileStorageManager",
						"label": "allNodes",
						"offset": 0,
						"slot": "4",
						"type": "t_array(t_address)dyn_storage"
					},
					{
						"astId": 118,
						"contract": "contracts/_FileStorage.sol:FileStorageManager",
						"label": "owner",
						"offset": 0,
						"slot": "5",
						"type": "t_address"
					},
					{
						"astId": 166,
						"contract": "contracts/_FileStorage.sol:FileStorageManager",
						"label": "addressToFile",
						"offset": 0,
						"slot": "6",
						"type": "t_mapping(t_address,t_array(t_struct(FileMetadata)160_storage)dyn_storage)"
					},
					{
						"astId": 169,
						"contract": "contracts/_FileStorage.sol:FileStorageManager",
						"label": "nodeAddressOfChunks",
						"offset": 0,
						"slot": "7",
						"type": "t_array(t_address)dyn_storage"
					}
				],
				"types": {
					"t_address": {
						"encoding": "inplace",
						"label": "address",
						"numberOfBytes": "20"
					},
					"t_array(t_address)dyn_storage": {
						"base": "t_address",
						"encoding": "dynamic_array",
						"label": "address[]",
						"numberOfBytes": "32"
					},
					"t_array(t_struct(FileMetadata)160_storage)dyn_storage": {
						"base": "t_struct(FileMetadata)160_storage",
						"encoding": "dynamic_array",
						"label": "struct FileStorageManager.FileMetadata[]",
						"numberOfBytes": "32"
					},
					"t_bytes32": {
						"encoding": "inplace",
						"label": "bytes32",
						"numberOfBytes": "32"
					},
					"t_mapping(t_address,t_array(t_struct(FileMetadata)160_storage)dyn_storage)": {
						"encoding": "mapping",
						"key": "t_address",
						"label": "mapping(address => struct FileStorageManager.FileMetadata[])",
						"numberOfBytes": "32",
						"value": "t_array(t_struct(FileMetadata)160_storage)dyn_storage"
					},
					"t_mapping(t_address,t_struct(Node)617_storage)": {
						"encoding": "mapping",
						"key": "t_address",
						"label": "mapping(address => struct NodeManager.Node)",
						"numberOfBytes": "32",
						"value": "t_struct(Node)617_storage"
					},
					"t_mapping(t_uint256,t_bytes32)": {
						"encoding": "mapping",
						"key": "t_uint256",
						"label": "mapping(uint256 => bytes32)",
						"numberOfBytes": "32",
						"value": "t_bytes32"
					},
					"t_string_storage": {
						"encoding": "bytes",
						"label": "string",
						"numberOfBytes": "32"
					},
					"t_struct(FileMetadata)160_storage": {
						"encoding": "inplace",
						"label": "struct FileStorageManager.FileMetadata",
						"members": [
							{
								"astId": 142,
								"contract": "contracts/_FileStorage.sol:FileStorageManager",
								"label": "fileId",
								"offset": 0,
								"slot": "0",
								"type": "t_uint256"
							},
							{
								"astId": 144,
								"contract": "contracts/_FileStorage.sol:FileStorageManager",
								"label": "fileName",
								"offset": 0,
								"slot": "1",
								"type": "t_string_storage"
							},
							{
								"astId": 146,
								"contract": "contracts/_FileStorage.sol:FileStorageManager",
								"label": "fileType",
								"offset": 0,
								"slot": "2",
								"type": "t_string_storage"
							},
							{
								"astId": 148,
								"contract": "contracts/_FileStorage.sol:FileStorageManager",
								"label": "fileHash",
								"offset": 0,
								"slot": "3",
								"type": "t_bytes32"
							},
							{
								"astId": 150,
								"contract": "contracts/_FileStorage.sol:FileStorageManager",
								"label": "fileSize",
								"offset": 0,
								"slot": "4",
								"type": "t_uint256"
							},
							{
								"astId": 152,
								"contract": "contracts/_FileStorage.sol:FileStorageManager",
								"label": "uploadTime",
								"offset": 0,
								"slot": "5",
								"type": "t_uint256"
							},
							{
								"astId": 154,
								"contract": "contracts/_FileStorage.sol:FileStorageManager",
								"label": "ownerAddress",
								"offset": 0,
								"slot": "6",
								"type": "t_address"
							},
							{
								"astId": 156,
								"contract": "contracts/_FileStorage.sol:FileStorageManager",
								"label": "fileEncoding",
								"offset": 0,
								"slot": "7",
								"type": "t_string_storage"
							},
							{
								"astId": 159,
								"contract": "contracts/_FileStorage.sol:FileStorageManager",
								"label": "fileStorageNodeAddress",
								"offset": 0,
								"slot": "8",
								"type": "t_array(t_address)dyn_storage"
							}
						],
						"numberOfBytes": "288"
					},
					"t_struct(Node)617_storage": {
						"encoding": "inplace",
						"label": "struct NodeManager.Node",
						"members": [
							{
								"astId": 614,
								"contract": "contracts/_FileStorage.sol:FileStorageManager",
								"label": "nodeAddress",
								"offset": 0,
								"slot": "0",
								"type": "t_address"
							},
							{
								"astId": 616,
								"contract": "contracts/_FileStorage.sol:FileStorageManager",
								"label": "availableStorage",
								"offset": 0,
								"slot": "1",
								"type": "t_uint256"
							}
						],
						"numberOfBytes": "64"
					},
					"t_uint256": {
						"encoding": "inplace",
						"label": "uint256",
						"numberOfBytes": "32"
					}
				}
			},
			"userdoc": {
				"kind": "user",
				"methods": {},
				"version": 1
			}
		}
	}
}