{
	"contracts/_FileStorage.sol": {
		"FileStorageManager": {
			"abi": [
				{
					"inputs": [
						{
							"internalType": "uint256",
							"name": "initialStorage",
							"type": "uint256"
						}
					],
					"stateMutability": "nonpayable",
					"type": "constructor"
				},
				{
					"anonymous": false,
					"inputs": [
						{
							"indexed": false,
							"internalType": "string",
							"name": "fileName",
							"type": "string"
						},
						{
							"indexed": false,
							"internalType": "uint256",
							"name": "newAvailableStorage",
							"type": "uint256"
						}
					],
					"name": "FileDeleted",
					"type": "event"
				},
				{
					"anonymous": false,
					"inputs": [
						{
							"indexed": false,
							"internalType": "string",
							"name": "fileName",
							"type": "string"
						},
						{
							"indexed": false,
							"internalType": "string",
							"name": "content",
							"type": "string"
						}
					],
					"name": "FileRetrieved",
					"type": "event"
				},
				{
					"anonymous": false,
					"inputs": [
						{
							"indexed": false,
							"internalType": "string",
							"name": "fileName",
							"type": "string"
						},
						{
							"indexed": false,
							"internalType": "uint256",
							"name": "fileId",
							"type": "uint256"
						},
						{
							"indexed": false,
							"internalType": "uint256",
							"name": "newAvailableStorage",
							"type": "uint256"
						}
					],
					"name": "FileStored",
					"type": "event"
				},
				{
					"inputs": [],
					"name": "availableStorage",
					"outputs": [
						{
							"internalType": "uint256",
							"name": "",
							"type": "uint256"
						}
					],
					"stateMutability": "view",
					"type": "function"
				},
				{
					"inputs": [
						{
							"internalType": "string",
							"name": "fileName",
							"type": "string"
						}
					],
					"name": "deleteFile",
					"outputs": [],
					"stateMutability": "nonpayable",
					"type": "function"
				},
				{
					"inputs": [],
					"name": "fileIdIndex",
					"outputs": [
						{
							"internalType": "uint256",
							"name": "",
							"type": "uint256"
						}
					],
					"stateMutability": "view",
					"type": "function"
				},
				{
					"inputs": [],
					"name": "owner",
					"outputs": [
						{
							"internalType": "address",
							"name": "",
							"type": "address"
						}
					],
					"stateMutability": "view",
					"type": "function"
				},
				{
					"inputs": [
						{
							"internalType": "string",
							"name": "fileName",
							"type": "string"
						}
					],
					"name": "retrieveFile",
					"outputs": [
						{
							"internalType": "string",
							"name": "",
							"type": "string"
						}
					],
					"stateMutability": "view",
					"type": "function"
				},
				{
					"inputs": [
						{
							"internalType": "string",
							"name": "fileName",
							"type": "string"
						},
						{
							"internalType": "string",
							"name": "content",
							"type": "string"
						}
					],
					"name": "storeFile",
					"outputs": [],
					"stateMutability": "nonpayable",
					"type": "function"
				}
			],
			"devdoc": {
				"kind": "dev",
				"methods": {},
				"version": 1
			},
			"evm": {
				"assembly": "    /* \"contracts/_FileStorage.sol\":64:2435  contract FileStorageManager {... */\n  mstore(0x40, 0x80)\n    /* \"contracts/_FileStorage.sol\":193:194  1 */\n  0x01\n    /* \"contracts/_FileStorage.sol\":164:194  uint256 public fileIdIndex = 1 */\n  0x02\n  sstore\n    /* \"contracts/_FileStorage.sol\":953:1070  constructor(uint256 initialStorage) {... */\n  callvalue\n  dup1\n  iszero\n  tag_1\n  jumpi\n  0x00\n  dup1\n  revert\ntag_1:\n  pop\n  mload(0x40)\n  sub(codesize, bytecodeSize)\n  dup1\n  bytecodeSize\n  dup4\n  codecopy\n  dup2\n  dup2\n  add\n  0x40\n  mstore\n  dup2\n  add\n  swap1\n  tag_2\n  swap2\n  swap1\n  tag_3\n  jump\t// in\ntag_2:\n    /* \"contracts/_FileStorage.sol\":1008:1018  msg.sender */\n  caller\n    /* \"contracts/_FileStorage.sol\":1000:1005  owner */\n  0x00\n  dup1\n    /* \"contracts/_FileStorage.sol\":1000:1018  owner = msg.sender */\n  0x0100\n  exp\n  dup2\n  sload\n  dup2\n  0xffffffffffffffffffffffffffffffffffffffff\n  mul\n  not\n  and\n  swap1\n  dup4\n  0xffffffffffffffffffffffffffffffffffffffff\n  and\n  mul\n  or\n  swap1\n  sstore\n  pop\n    /* \"contracts/_FileStorage.sol\":1048:1062  initialStorage */\n  dup1\n    /* \"contracts/_FileStorage.sol\":1029:1045  availableStorage */\n  0x01\n    /* \"contracts/_FileStorage.sol\":1029:1062  availableStorage = initialStorage */\n  dup2\n  swap1\n  sstore\n  pop\n    /* \"contracts/_FileStorage.sol\":953:1070  constructor(uint256 initialStorage) {... */\n  pop\n    /* \"contracts/_FileStorage.sol\":64:2435  contract FileStorageManager {... */\n  jump(tag_6)\n    /* \"#utility.yul\":88:205   */\ntag_8:\n    /* \"#utility.yul\":197:198   */\n  0x00\n    /* \"#utility.yul\":194:195   */\n  dup1\n    /* \"#utility.yul\":187:199   */\n  revert\n    /* \"#utility.yul\":334:411   */\ntag_10:\n    /* \"#utility.yul\":371:378   */\n  0x00\n    /* \"#utility.yul\":400:405   */\n  dup2\n    /* \"#utility.yul\":389:405   */\n  swap1\n  pop\n    /* \"#utility.yul\":334:411   */\n  swap2\n  swap1\n  pop\n  jump\t// out\n    /* \"#utility.yul\":417:539   */\ntag_11:\n    /* \"#utility.yul\":490:514   */\n  tag_19\n    /* \"#utility.yul\":508:513   */\n  dup2\n    /* \"#utility.yul\":490:514   */\n  tag_10\n  jump\t// in\ntag_19:\n    /* \"#utility.yul\":483:488   */\n  dup2\n    /* \"#utility.yul\":480:515   */\n  eq\n    /* \"#utility.yul\":470:533   */\n  tag_20\n  jumpi\n    /* \"#utility.yul\":529:530   */\n  0x00\n    /* \"#utility.yul\":526:527   */\n  dup1\n    /* \"#utility.yul\":519:531   */\n  revert\n    /* \"#utility.yul\":470:533   */\ntag_20:\n    /* \"#utility.yul\":417:539   */\n  pop\n  jump\t// out\n    /* \"#utility.yul\":545:688   */\ntag_12:\n    /* \"#utility.yul\":602:607   */\n  0x00\n    /* \"#utility.yul\":633:639   */\n  dup2\n    /* \"#utility.yul\":627:640   */\n  mload\n    /* \"#utility.yul\":618:640   */\n  swap1\n  pop\n    /* \"#utility.yul\":649:682   */\n  tag_22\n    /* \"#utility.yul\":676:681   */\n  dup2\n    /* \"#utility.yul\":649:682   */\n  tag_11\n  jump\t// in\ntag_22:\n    /* \"#utility.yul\":545:688   */\n  swap3\n  swap2\n  pop\n  pop\n  jump\t// out\n    /* \"#utility.yul\":694:1045   */\ntag_3:\n    /* \"#utility.yul\":764:770   */\n  0x00\n    /* \"#utility.yul\":813:815   */\n  0x20\n    /* \"#utility.yul\":801:810   */\n  dup3\n    /* \"#utility.yul\":792:799   */\n  dup5\n    /* \"#utility.yul\":788:811   */\n  sub\n    /* \"#utility.yul\":784:816   */\n  slt\n    /* \"#utility.yul\":781:900   */\n  iszero\n  tag_24\n  jumpi\n    /* \"#utility.yul\":819:898   */\n  tag_25\n  tag_8\n  jump\t// in\ntag_25:\n    /* \"#utility.yul\":781:900   */\ntag_24:\n    /* \"#utility.yul\":939:940   */\n  0x00\n    /* \"#utility.yul\":964:1028   */\n  tag_26\n    /* \"#utility.yul\":1020:1027   */\n  dup5\n    /* \"#utility.yul\":1011:1017   */\n  dup3\n    /* \"#utility.yul\":1000:1009   */\n  dup6\n    /* \"#utility.yul\":996:1018   */\n  add\n    /* \"#utility.yul\":964:1028   */\n  tag_12\n  jump\t// in\ntag_26:\n    /* \"#utility.yul\":954:1028   */\n  swap2\n  pop\n    /* \"#utility.yul\":910:1038   */\n  pop\n    /* \"#utility.yul\":694:1045   */\n  swap3\n  swap2\n  pop\n  pop\n  jump\t// out\n    /* \"contracts/_FileStorage.sol\":64:2435  contract FileStorageManager {... */\ntag_6:\n  dataSize(sub_0)\n  dup1\n  dataOffset(sub_0)\n  0x00\n  codecopy\n  0x00\n  return\nstop\n\nsub_0: assembly {\n        /* \"contracts/_FileStorage.sol\":64:2435  contract FileStorageManager {... */\n      mstore(0x40, 0x80)\n      callvalue\n      dup1\n      iszero\n      tag_1\n      jumpi\n      0x00\n      dup1\n      revert\n    tag_1:\n      pop\n      jumpi(tag_2, lt(calldatasize, 0x04))\n      shr(0xe0, calldataload(0x00))\n      dup1\n      0x20de1070\n      eq\n      tag_3\n      jumpi\n      dup1\n      0x2804401c\n      eq\n      tag_4\n      jumpi\n      dup1\n      0x5d0a3a19\n      eq\n      tag_5\n      jumpi\n      dup1\n      0x8da5cb5b\n      eq\n      tag_6\n      jumpi\n      dup1\n      0xa9910054\n      eq\n      tag_7\n      jumpi\n      dup1\n      0xe973baec\n      eq\n      tag_8\n      jumpi\n    tag_2:\n      0x00\n      dup1\n      revert\n        /* \"contracts/_FileStorage.sol\":1078:1622  function storeFile(string memory fileName, string memory content) public {... */\n    tag_3:\n      tag_9\n      0x04\n      dup1\n      calldatasize\n      sub\n      dup2\n      add\n      swap1\n      tag_10\n      swap2\n      swap1\n      tag_11\n      jump\t// in\n    tag_10:\n      tag_12\n      jump\t// in\n    tag_9:\n      stop\n        /* \"contracts/_FileStorage.sol\":1632:1871  function retrieveFile(string memory fileName) public view returns (string memory) {... */\n    tag_4:\n      tag_13\n      0x04\n      dup1\n      calldatasize\n      sub\n      dup2\n      add\n      swap1\n      tag_14\n      swap2\n      swap1\n      tag_15\n      jump\t// in\n    tag_14:\n      tag_16\n      jump\t// in\n    tag_13:\n      mload(0x40)\n      tag_17\n      swap2\n      swap1\n      tag_18\n      jump\t// in\n    tag_17:\n      mload(0x40)\n      dup1\n      swap2\n      sub\n      swap1\n      return\n        /* \"contracts/_FileStorage.sol\":164:194  uint256 public fileIdIndex = 1 */\n    tag_5:\n      tag_19\n      tag_20\n      jump\t// in\n    tag_19:\n      mload(0x40)\n      tag_21\n      swap2\n      swap1\n      tag_22\n      jump\t// in\n    tag_21:\n      mload(0x40)\n      dup1\n      swap2\n      sub\n      swap1\n      return\n        /* \"contracts/_FileStorage.sol\":99:119  address public owner */\n    tag_6:\n      tag_23\n      tag_24\n      jump\t// in\n    tag_23:\n      mload(0x40)\n      tag_25\n      swap2\n      swap1\n      tag_26\n      jump\t// in\n    tag_25:\n      mload(0x40)\n      dup1\n      swap2\n      sub\n      swap1\n      return\n        /* \"contracts/_FileStorage.sol\":1879:2432  function deleteFile(string memory fileName) public {... */\n    tag_7:\n      tag_27\n      0x04\n      dup1\n      calldatasize\n      sub\n      dup2\n      add\n      swap1\n      tag_28\n      swap2\n      swap1\n      tag_15\n      jump\t// in\n    tag_28:\n      tag_29\n      jump\t// in\n    tag_27:\n      stop\n        /* \"contracts/_FileStorage.sol\":126:157  uint256 public availableStorage */\n    tag_8:\n      tag_30\n      tag_31\n      jump\t// in\n    tag_30:\n      mload(0x40)\n      tag_32\n      swap2\n      swap1\n      tag_22\n      jump\t// in\n    tag_32:\n      mload(0x40)\n      dup1\n      swap2\n      sub\n      swap1\n      return\n        /* \"contracts/_FileStorage.sol\":1078:1622  function storeFile(string memory fileName, string memory content) public {... */\n    tag_12:\n        /* \"contracts/_FileStorage.sol\":1162:1178  uint256 fileSize */\n      0x00\n        /* \"contracts/_FileStorage.sol\":1187:1194  content */\n      dup2\n        /* \"contracts/_FileStorage.sol\":1181:1202  bytes(content).length */\n      mload\n        /* \"contracts/_FileStorage.sol\":1162:1202  uint256 fileSize = bytes(content).length */\n      swap1\n      pop\n        /* \"contracts/_FileStorage.sol\":1241:1249  fileSize */\n      dup1\n        /* \"contracts/_FileStorage.sol\":1221:1237  availableStorage */\n      sload(0x01)\n        /* \"contracts/_FileStorage.sol\":1221:1249  availableStorage >= fileSize */\n      lt\n      iszero\n        /* \"contracts/_FileStorage.sol\":1213:1274  require(availableStorage >= fileSize, \"No storage available\") */\n      tag_34\n      jumpi\n      mload(0x40)\n      0x08c379a000000000000000000000000000000000000000000000000000000000\n      dup2\n      mstore\n      0x04\n      add\n      tag_35\n      swap1\n      tag_36\n      jump\t// in\n    tag_35:\n      mload(0x40)\n      dup1\n      swap2\n      sub\n      swap1\n      revert\n    tag_34:\n        /* \"contracts/_FileStorage.sol\":1295:1316  uint256 currentFileId */\n      0x00\n        /* \"contracts/_FileStorage.sol\":1319:1330  fileIdIndex */\n      0x02\n      0x00\n        /* \"contracts/_FileStorage.sol\":1319:1332  fileIdIndex++ */\n      dup2\n      sload\n      dup1\n      swap3\n      swap2\n      swap1\n      tag_37\n      swap1\n      tag_38\n      jump\t// in\n    tag_37:\n      swap2\n      swap1\n      pop\n      sstore\n        /* \"contracts/_FileStorage.sol\":1295:1332  uint256 currentFileId = fileIdIndex++ */\n      swap1\n      pop\n        /* \"contracts/_FileStorage.sol\":1372:1385  currentFileId */\n      dup1\n        /* \"contracts/_FileStorage.sol\":1343:1359  fileNameToFileId */\n      0x03\n        /* \"contracts/_FileStorage.sol\":1360:1368  fileName */\n      dup6\n        /* \"contracts/_FileStorage.sol\":1343:1369  fileNameToFileId[fileName] */\n      mload(0x40)\n      tag_39\n      swap2\n      swap1\n      tag_40\n      jump\t// in\n    tag_39:\n      swap1\n      dup2\n      mstore\n      0x20\n      add\n      mload(0x40)\n      dup1\n      swap2\n      sub\n      swap1\n      keccak256\n        /* \"contracts/_FileStorage.sol\":1343:1385  fileNameToFileId[fileName] = currentFileId */\n      dup2\n      swap1\n      sstore\n      pop\n        /* \"contracts/_FileStorage.sol\":1426:1449  File(content, fileName) */\n      mload(0x40)\n      dup1\n      0x40\n      add\n      0x40\n      mstore\n      dup1\n        /* \"contracts/_FileStorage.sol\":1431:1438  content */\n      dup5\n        /* \"contracts/_FileStorage.sol\":1426:1449  File(content, fileName) */\n      dup2\n      mstore\n      0x20\n      add\n        /* \"contracts/_FileStorage.sol\":1440:1448  fileName */\n      dup6\n        /* \"contracts/_FileStorage.sol\":1426:1449  File(content, fileName) */\n      dup2\n      mstore\n      pop\n        /* \"contracts/_FileStorage.sol\":1396:1408  fileIdToFile */\n      0x04\n        /* \"contracts/_FileStorage.sol\":1396:1423  fileIdToFile[currentFileId] */\n      0x00\n        /* \"contracts/_FileStorage.sol\":1409:1422  currentFileId */\n      dup4\n        /* \"contracts/_FileStorage.sol\":1396:1423  fileIdToFile[currentFileId] */\n      dup2\n      mstore\n      0x20\n      add\n      swap1\n      dup2\n      mstore\n      0x20\n      add\n      0x00\n      keccak256\n        /* \"contracts/_FileStorage.sol\":1396:1449  fileIdToFile[currentFileId] = File(content, fileName) */\n      0x00\n      dup3\n      add\n      mload\n      dup2\n      0x00\n      add\n      swap1\n      dup2\n      tag_41\n      swap2\n      swap1\n      tag_42\n      jump\t// in\n    tag_41:\n      pop\n      0x20\n      dup3\n      add\n      mload\n      dup2\n      0x01\n      add\n      swap1\n      dup2\n      tag_43\n      swap2\n      swap1\n      tag_42\n      jump\t// in\n    tag_43:\n      pop\n      swap1\n      pop\n      pop\n        /* \"contracts/_FileStorage.sol\":1492:1502  msg.sender */\n      caller\n        /* \"contracts/_FileStorage.sol\":1460:1474  fileIdToUserId */\n      0x05\n        /* \"contracts/_FileStorage.sol\":1460:1489  fileIdToUserId[currentFileId] */\n      0x00\n        /* \"contracts/_FileStorage.sol\":1475:1488  currentFileId */\n      dup4\n        /* \"contracts/_FileStorage.sol\":1460:1489  fileIdToUserId[currentFileId] */\n      dup2\n      mstore\n      0x20\n      add\n      swap1\n      dup2\n      mstore\n      0x20\n      add\n      0x00\n      keccak256\n      0x00\n        /* \"contracts/_FileStorage.sol\":1460:1502  fileIdToUserId[currentFileId] = msg.sender */\n      0x0100\n      exp\n      dup2\n      sload\n      dup2\n      0xffffffffffffffffffffffffffffffffffffffff\n      mul\n      not\n      and\n      swap1\n      dup4\n      0xffffffffffffffffffffffffffffffffffffffff\n      and\n      mul\n      or\n      swap1\n      sstore\n      pop\n        /* \"contracts/_FileStorage.sol\":1535:1543  fileSize */\n      dup2\n        /* \"contracts/_FileStorage.sol\":1515:1531  availableStorage */\n      0x01\n      0x00\n        /* \"contracts/_FileStorage.sol\":1515:1543  availableStorage -= fileSize */\n      dup3\n      dup3\n      sload\n      tag_44\n      swap2\n      swap1\n      tag_45\n      jump\t// in\n    tag_44:\n      swap3\n      pop\n      pop\n      dup2\n      swap1\n      sstore\n      pop\n        /* \"contracts/_FileStorage.sol\":1561:1614  FileStored(fileName, currentFileId, availableStorage) */\n      0xb124bd46c5501ef604216ceeff17be6e3badf75e294713b623e3300bfb250ae6\n        /* \"contracts/_FileStorage.sol\":1572:1580  fileName */\n      dup5\n        /* \"contracts/_FileStorage.sol\":1582:1595  currentFileId */\n      dup3\n        /* \"contracts/_FileStorage.sol\":1597:1613  availableStorage */\n      sload(0x01)\n        /* \"contracts/_FileStorage.sol\":1561:1614  FileStored(fileName, currentFileId, availableStorage) */\n      mload(0x40)\n      tag_46\n      swap4\n      swap3\n      swap2\n      swap1\n      tag_47\n      jump\t// in\n    tag_46:\n      mload(0x40)\n      dup1\n      swap2\n      sub\n      swap1\n      log1\n        /* \"contracts/_FileStorage.sol\":1151:1622  {... */\n      pop\n      pop\n        /* \"contracts/_FileStorage.sol\":1078:1622  function storeFile(string memory fileName, string memory content) public {... */\n      pop\n      pop\n      jump\t// out\n        /* \"contracts/_FileStorage.sol\":1632:1871  function retrieveFile(string memory fileName) public view returns (string memory) {... */\n    tag_16:\n        /* \"contracts/_FileStorage.sol\":1699:1712  string memory */\n      0x60\n        /* \"contracts/_FileStorage.sol\":1725:1739  uint256 fileId */\n      0x00\n        /* \"contracts/_FileStorage.sol\":1742:1758  fileNameToFileId */\n      0x03\n        /* \"contracts/_FileStorage.sol\":1759:1767  fileName */\n      dup4\n        /* \"contracts/_FileStorage.sol\":1742:1768  fileNameToFileId[fileName] */\n      mload(0x40)\n      tag_49\n      swap2\n      swap1\n      tag_40\n      jump\t// in\n    tag_49:\n      swap1\n      dup2\n      mstore\n      0x20\n      add\n      mload(0x40)\n      dup1\n      swap2\n      sub\n      swap1\n      keccak256\n      sload\n        /* \"contracts/_FileStorage.sol\":1725:1768  uint256 fileId = fileNameToFileId[fileName] */\n      swap1\n      pop\n        /* \"contracts/_FileStorage.sol\":1797:1798  0 */\n      0x00\n        /* \"contracts/_FileStorage.sol\":1787:1793  fileId */\n      dup2\n        /* \"contracts/_FileStorage.sol\":1787:1798  fileId != 0 */\n      sub\n        /* \"contracts/_FileStorage.sol\":1779:1817  require(fileId != 0, \"File not found\") */\n      tag_50\n      jumpi\n      mload(0x40)\n      0x08c379a000000000000000000000000000000000000000000000000000000000\n      dup2\n      mstore\n      0x04\n      add\n      tag_51\n      swap1\n      tag_52\n      jump\t// in\n    tag_51:\n      mload(0x40)\n      dup1\n      swap2\n      sub\n      swap1\n      revert\n    tag_50:\n        /* \"contracts/_FileStorage.sol\":1835:1847  fileIdToFile */\n      0x04\n        /* \"contracts/_FileStorage.sol\":1835:1855  fileIdToFile[fileId] */\n      0x00\n        /* \"contracts/_FileStorage.sol\":1848:1854  fileId */\n      dup3\n        /* \"contracts/_FileStorage.sol\":1835:1855  fileIdToFile[fileId] */\n      dup2\n      mstore\n      0x20\n      add\n      swap1\n      dup2\n      mstore\n      0x20\n      add\n      0x00\n      keccak256\n        /* \"contracts/_FileStorage.sol\":1835:1863  fileIdToFile[fileId].content */\n      0x00\n      add\n        /* \"contracts/_FileStorage.sol\":1828:1863  return fileIdToFile[fileId].content */\n      dup1\n      sload\n      tag_53\n      swap1\n      tag_54\n      jump\t// in\n    tag_53:\n      dup1\n      0x1f\n      add\n      0x20\n      dup1\n      swap2\n      div\n      mul\n      0x20\n      add\n      mload(0x40)\n      swap1\n      dup2\n      add\n      0x40\n      mstore\n      dup1\n      swap3\n      swap2\n      swap1\n      dup2\n      dup2\n      mstore\n      0x20\n      add\n      dup3\n      dup1\n      sload\n      tag_55\n      swap1\n      tag_54\n      jump\t// in\n    tag_55:\n      dup1\n      iszero\n      tag_56\n      jumpi\n      dup1\n      0x1f\n      lt\n      tag_57\n      jumpi\n      0x0100\n      dup1\n      dup4\n      sload\n      div\n      mul\n      dup4\n      mstore\n      swap2\n      0x20\n      add\n      swap2\n      jump(tag_56)\n    tag_57:\n      dup3\n      add\n      swap2\n      swap1\n      0x00\n      mstore\n      keccak256(0x00, 0x20)\n      swap1\n    tag_58:\n      dup2\n      sload\n      dup2\n      mstore\n      swap1\n      0x01\n      add\n      swap1\n      0x20\n      add\n      dup1\n      dup4\n      gt\n      tag_58\n      jumpi\n      dup3\n      swap1\n      sub\n      0x1f\n      and\n      dup3\n      add\n      swap2\n    tag_56:\n      pop\n      pop\n      pop\n      pop\n      pop\n      swap2\n      pop\n      pop\n        /* \"contracts/_FileStorage.sol\":1632:1871  function retrieveFile(string memory fileName) public view returns (string memory) {... */\n      swap2\n      swap1\n      pop\n      jump\t// out\n        /* \"contracts/_FileStorage.sol\":164:194  uint256 public fileIdIndex = 1 */\n    tag_20:\n      sload(0x02)\n      dup2\n      jump\t// out\n        /* \"contracts/_FileStorage.sol\":99:119  address public owner */\n    tag_24:\n      0x00\n      dup1\n      sload\n      swap1\n      0x0100\n      exp\n      swap1\n      div\n      0xffffffffffffffffffffffffffffffffffffffff\n      and\n      dup2\n      jump\t// out\n        /* \"contracts/_FileStorage.sol\":1879:2432  function deleteFile(string memory fileName) public {... */\n    tag_29:\n        /* \"contracts/_FileStorage.sol\":1941:1955  uint256 fileId */\n      0x00\n        /* \"contracts/_FileStorage.sol\":1958:1974  fileNameToFileId */\n      0x03\n        /* \"contracts/_FileStorage.sol\":1975:1983  fileName */\n      dup3\n        /* \"contracts/_FileStorage.sol\":1958:1984  fileNameToFileId[fileName] */\n      mload(0x40)\n      tag_60\n      swap2\n      swap1\n      tag_40\n      jump\t// in\n    tag_60:\n      swap1\n      dup2\n      mstore\n      0x20\n      add\n      mload(0x40)\n      dup1\n      swap2\n      sub\n      swap1\n      keccak256\n      sload\n        /* \"contracts/_FileStorage.sol\":1941:1984  uint256 fileId = fileNameToFileId[fileName] */\n      swap1\n      pop\n        /* \"contracts/_FileStorage.sol\":2013:2014  0 */\n      0x00\n        /* \"contracts/_FileStorage.sol\":2003:2009  fileId */\n      dup2\n        /* \"contracts/_FileStorage.sol\":2003:2014  fileId != 0 */\n      sub\n        /* \"contracts/_FileStorage.sol\":1995:2033  require(fileId != 0, \"File not found\") */\n      tag_61\n      jumpi\n      mload(0x40)\n      0x08c379a000000000000000000000000000000000000000000000000000000000\n      dup2\n      mstore\n      0x04\n      add\n      tag_62\n      swap1\n      tag_52\n      jump\t// in\n    tag_62:\n      mload(0x40)\n      dup1\n      swap2\n      sub\n      swap1\n      revert\n    tag_61:\n        /* \"contracts/_FileStorage.sol\":2078:2088  msg.sender */\n      caller\n        /* \"contracts/_FileStorage.sol\":2052:2088  fileIdToUserId[fileId] == msg.sender */\n      0xffffffffffffffffffffffffffffffffffffffff\n      and\n        /* \"contracts/_FileStorage.sol\":2052:2066  fileIdToUserId */\n      0x05\n        /* \"contracts/_FileStorage.sol\":2052:2074  fileIdToUserId[fileId] */\n      0x00\n        /* \"contracts/_FileStorage.sol\":2067:2073  fileId */\n      dup4\n        /* \"contracts/_FileStorage.sol\":2052:2074  fileIdToUserId[fileId] */\n      dup2\n      mstore\n      0x20\n      add\n      swap1\n      dup2\n      mstore\n      0x20\n      add\n      0x00\n      keccak256\n      0x00\n      swap1\n      sload\n      swap1\n      0x0100\n      exp\n      swap1\n      div\n      0xffffffffffffffffffffffffffffffffffffffff\n      and\n        /* \"contracts/_FileStorage.sol\":2052:2088  fileIdToUserId[fileId] == msg.sender */\n      0xffffffffffffffffffffffffffffffffffffffff\n      and\n      eq\n        /* \"contracts/_FileStorage.sol\":2052:2111  fileIdToUserId[fileId] == msg.sender || msg.sender == owner */\n      dup1\n      tag_63\n      jumpi\n      pop\n        /* \"contracts/_FileStorage.sol\":2106:2111  owner */\n      0x00\n      dup1\n      sload\n      swap1\n      0x0100\n      exp\n      swap1\n      div\n      0xffffffffffffffffffffffffffffffffffffffff\n      and\n        /* \"contracts/_FileStorage.sol\":2092:2111  msg.sender == owner */\n      0xffffffffffffffffffffffffffffffffffffffff\n      and\n        /* \"contracts/_FileStorage.sol\":2092:2102  msg.sender */\n      caller\n        /* \"contracts/_FileStorage.sol\":2092:2111  msg.sender == owner */\n      0xffffffffffffffffffffffffffffffffffffffff\n      and\n      eq\n        /* \"contracts/_FileStorage.sol\":2052:2111  fileIdToUserId[fileId] == msg.sender || msg.sender == owner */\n    tag_63:\n        /* \"contracts/_FileStorage.sol\":2044:2128  require(fileIdToUserId[fileId] == msg.sender || msg.sender == owner, \"Unauthorized\") */\n      tag_64\n      jumpi\n      mload(0x40)\n      0x08c379a000000000000000000000000000000000000000000000000000000000\n      dup2\n      mstore\n      0x04\n      add\n      tag_65\n      swap1\n      tag_66\n      jump\t// in\n    tag_65:\n      mload(0x40)\n      dup1\n      swap2\n      sub\n      swap1\n      revert\n    tag_64:\n        /* \"contracts/_FileStorage.sol\":2141:2157  uint256 fileSize */\n      0x00\n        /* \"contracts/_FileStorage.sol\":2166:2178  fileIdToFile */\n      0x04\n        /* \"contracts/_FileStorage.sol\":2166:2186  fileIdToFile[fileId] */\n      0x00\n        /* \"contracts/_FileStorage.sol\":2179:2185  fileId */\n      dup4\n        /* \"contracts/_FileStorage.sol\":2166:2186  fileIdToFile[fileId] */\n      dup2\n      mstore\n      0x20\n      add\n      swap1\n      dup2\n      mstore\n      0x20\n      add\n      0x00\n      keccak256\n        /* \"contracts/_FileStorage.sol\":2166:2194  fileIdToFile[fileId].content */\n      0x00\n      add\n        /* \"contracts/_FileStorage.sol\":2160:2202  bytes(fileIdToFile[fileId].content).length */\n      dup1\n      sload\n      tag_67\n      swap1\n      tag_54\n      jump\t// in\n    tag_67:\n      swap1\n      pop\n        /* \"contracts/_FileStorage.sol\":2141:2202  uint256 fileSize = bytes(fileIdToFile[fileId].content).length */\n      swap1\n      pop\n        /* \"contracts/_FileStorage.sol\":2235:2243  fileSize */\n      dup1\n        /* \"contracts/_FileStorage.sol\":2215:2231  availableStorage */\n      0x01\n      0x00\n        /* \"contracts/_FileStorage.sol\":2215:2243  availableStorage += fileSize */\n      dup3\n      dup3\n      sload\n      tag_68\n      swap2\n      swap1\n      tag_69\n      jump\t// in\n    tag_68:\n      swap3\n      pop\n      pop\n      dup2\n      swap1\n      sstore\n      pop\n        /* \"contracts/_FileStorage.sol\":2263:2279  fileNameToFileId */\n      0x03\n        /* \"contracts/_FileStorage.sol\":2280:2288  fileName */\n      dup4\n        /* \"contracts/_FileStorage.sol\":2263:2289  fileNameToFileId[fileName] */\n      mload(0x40)\n      tag_70\n      swap2\n      swap1\n      tag_40\n      jump\t// in\n    tag_70:\n      swap1\n      dup2\n      mstore\n      0x20\n      add\n      mload(0x40)\n      dup1\n      swap2\n      sub\n      swap1\n      keccak256\n        /* \"contracts/_FileStorage.sol\":2256:2289  delete fileNameToFileId[fileName] */\n      0x00\n      swap1\n      sstore\n        /* \"contracts/_FileStorage.sol\":2307:2319  fileIdToFile */\n      0x04\n        /* \"contracts/_FileStorage.sol\":2307:2327  fileIdToFile[fileId] */\n      0x00\n        /* \"contracts/_FileStorage.sol\":2320:2326  fileId */\n      dup4\n        /* \"contracts/_FileStorage.sol\":2307:2327  fileIdToFile[fileId] */\n      dup2\n      mstore\n      0x20\n      add\n      swap1\n      dup2\n      mstore\n      0x20\n      add\n      0x00\n      keccak256\n      0x00\n        /* \"contracts/_FileStorage.sol\":2300:2327  delete fileIdToFile[fileId] */\n      dup1\n      dup3\n      add\n      0x00\n      tag_71\n      swap2\n      swap1\n      tag_72\n      jump\t// in\n    tag_71:\n      0x01\n      dup3\n      add\n      0x00\n      tag_73\n      swap2\n      swap1\n      tag_72\n      jump\t// in\n    tag_73:\n      pop\n      pop\n        /* \"contracts/_FileStorage.sol\":2345:2359  fileIdToUserId */\n      0x05\n        /* \"contracts/_FileStorage.sol\":2345:2367  fileIdToUserId[fileId] */\n      0x00\n        /* \"contracts/_FileStorage.sol\":2360:2366  fileId */\n      dup4\n        /* \"contracts/_FileStorage.sol\":2345:2367  fileIdToUserId[fileId] */\n      dup2\n      mstore\n      0x20\n      add\n      swap1\n      dup2\n      mstore\n      0x20\n      add\n      0x00\n      keccak256\n      0x00\n        /* \"contracts/_FileStorage.sol\":2338:2367  delete fileIdToUserId[fileId] */\n      0x0100\n      exp\n      dup2\n      sload\n      swap1\n      0xffffffffffffffffffffffffffffffffffffffff\n      mul\n      not\n      and\n      swap1\n      sstore\n        /* \"contracts/_FileStorage.sol\":2385:2424  FileDeleted(fileName, availableStorage) */\n      0x1d90f125aa2dafe5bccedd272f61825d61b1b65c76e6a8dc4b7e3d8a26a7a5df\n        /* \"contracts/_FileStorage.sol\":2397:2405  fileName */\n      dup4\n        /* \"contracts/_FileStorage.sol\":2407:2423  availableStorage */\n      sload(0x01)\n        /* \"contracts/_FileStorage.sol\":2385:2424  FileDeleted(fileName, availableStorage) */\n      mload(0x40)\n      tag_74\n      swap3\n      swap2\n      swap1\n      tag_75\n      jump\t// in\n    tag_74:\n      mload(0x40)\n      dup1\n      swap2\n      sub\n      swap1\n      log1\n        /* \"contracts/_FileStorage.sol\":1930:2432  {... */\n      pop\n      pop\n        /* \"contracts/_FileStorage.sol\":1879:2432  function deleteFile(string memory fileName) public {... */\n      pop\n      jump\t// out\n        /* \"contracts/_FileStorage.sol\":126:157  uint256 public availableStorage */\n    tag_31:\n      sload(0x01)\n      dup2\n      jump\t// out\n    tag_72:\n      pop\n      dup1\n      sload\n      tag_76\n      swap1\n      tag_54\n      jump\t// in\n    tag_76:\n      0x00\n      dup3\n      sstore\n      dup1\n      0x1f\n      lt\n      tag_78\n      jumpi\n      pop\n      jump(tag_77)\n    tag_78:\n      0x1f\n      add\n      0x20\n      swap1\n      div\n      swap1\n      0x00\n      mstore\n      keccak256(0x00, 0x20)\n      swap1\n      dup2\n      add\n      swap1\n      tag_79\n      swap2\n      swap1\n      tag_80\n      jump\t// in\n    tag_79:\n    tag_77:\n      pop\n      jump\t// out\n    tag_80:\n    tag_81:\n      dup1\n      dup3\n      gt\n      iszero\n      tag_82\n      jumpi\n      0x00\n      dup2\n      0x00\n      swap1\n      sstore\n      pop\n      0x01\n      add\n      jump(tag_81)\n    tag_82:\n      pop\n      swap1\n      jump\t// out\n        /* \"#utility.yul\":7:82   */\n    tag_83:\n        /* \"#utility.yul\":40:46   */\n      0x00\n        /* \"#utility.yul\":73:75   */\n      0x40\n        /* \"#utility.yul\":67:76   */\n      mload\n        /* \"#utility.yul\":57:76   */\n      swap1\n      pop\n        /* \"#utility.yul\":7:82   */\n      swap1\n      jump\t// out\n        /* \"#utility.yul\":88:205   */\n    tag_84:\n        /* \"#utility.yul\":197:198   */\n      0x00\n        /* \"#utility.yul\":194:195   */\n      dup1\n        /* \"#utility.yul\":187:199   */\n      revert\n        /* \"#utility.yul\":211:328   */\n    tag_85:\n        /* \"#utility.yul\":320:321   */\n      0x00\n        /* \"#utility.yul\":317:318   */\n      dup1\n        /* \"#utility.yul\":310:322   */\n      revert\n        /* \"#utility.yul\":334:451   */\n    tag_86:\n        /* \"#utility.yul\":443:444   */\n      0x00\n        /* \"#utility.yul\":440:441   */\n      dup1\n        /* \"#utility.yul\":433:445   */\n      revert\n        /* \"#utility.yul\":457:574   */\n    tag_87:\n        /* \"#utility.yul\":566:567   */\n      0x00\n        /* \"#utility.yul\":563:564   */\n      dup1\n        /* \"#utility.yul\":556:568   */\n      revert\n        /* \"#utility.yul\":580:682   */\n    tag_88:\n        /* \"#utility.yul\":621:627   */\n      0x00\n        /* \"#utility.yul\":672:674   */\n      0x1f\n        /* \"#utility.yul\":668:675   */\n      not\n        /* \"#utility.yul\":663:665   */\n      0x1f\n        /* \"#utility.yul\":656:661   */\n      dup4\n        /* \"#utility.yul\":652:666   */\n      add\n        /* \"#utility.yul\":648:676   */\n      and\n        /* \"#utility.yul\":638:676   */\n      swap1\n      pop\n        /* \"#utility.yul\":580:682   */\n      swap2\n      swap1\n      pop\n      jump\t// out\n        /* \"#utility.yul\":688:868   */\n    tag_89:\n        /* \"#utility.yul\":736:813   */\n      0x4e487b7100000000000000000000000000000000000000000000000000000000\n        /* \"#utility.yul\":733:734   */\n      0x00\n        /* \"#utility.yul\":726:814   */\n      mstore\n        /* \"#utility.yul\":833:837   */\n      0x41\n        /* \"#utility.yul\":830:831   */\n      0x04\n        /* \"#utility.yul\":823:838   */\n      mstore\n        /* \"#utility.yul\":857:861   */\n      0x24\n        /* \"#utility.yul\":854:855   */\n      0x00\n        /* \"#utility.yul\":847:862   */\n      revert\n        /* \"#utility.yul\":874:1155   */\n    tag_90:\n        /* \"#utility.yul\":957:984   */\n      tag_139\n        /* \"#utility.yul\":979:983   */\n      dup3\n        /* \"#utility.yul\":957:984   */\n      tag_88\n      jump\t// in\n    tag_139:\n        /* \"#utility.yul\":949:955   */\n      dup2\n        /* \"#utility.yul\":945:985   */\n      add\n        /* \"#utility.yul\":1087:1093   */\n      dup2\n        /* \"#utility.yul\":1075:1085   */\n      dup2\n        /* \"#utility.yul\":1072:1094   */\n      lt\n        /* \"#utility.yul\":1051:1069   */\n      0xffffffffffffffff\n        /* \"#utility.yul\":1039:1049   */\n      dup3\n        /* \"#utility.yul\":1036:1070   */\n      gt\n        /* \"#utility.yul\":1033:1095   */\n      or\n        /* \"#utility.yul\":1030:1118   */\n      iszero\n      tag_140\n      jumpi\n        /* \"#utility.yul\":1098:1116   */\n      tag_141\n      tag_89\n      jump\t// in\n    tag_141:\n        /* \"#utility.yul\":1030:1118   */\n    tag_140:\n        /* \"#utility.yul\":1138:1148   */\n      dup1\n        /* \"#utility.yul\":1134:1136   */\n      0x40\n        /* \"#utility.yul\":1127:1149   */\n      mstore\n        /* \"#utility.yul\":917:1155   */\n      pop\n        /* \"#utility.yul\":874:1155   */\n      pop\n      pop\n      jump\t// out\n        /* \"#utility.yul\":1161:1290   */\n    tag_91:\n        /* \"#utility.yul\":1195:1201   */\n      0x00\n        /* \"#utility.yul\":1222:1242   */\n      tag_143\n      tag_83\n      jump\t// in\n    tag_143:\n        /* \"#utility.yul\":1212:1242   */\n      swap1\n      pop\n        /* \"#utility.yul\":1251:1284   */\n      tag_144\n        /* \"#utility.yul\":1279:1283   */\n      dup3\n        /* \"#utility.yul\":1271:1277   */\n      dup3\n        /* \"#utility.yul\":1251:1284   */\n      tag_90\n      jump\t// in\n    tag_144:\n        /* \"#utility.yul\":1161:1290   */\n      swap2\n      swap1\n      pop\n      jump\t// out\n        /* \"#utility.yul\":1296:1604   */\n    tag_92:\n        /* \"#utility.yul\":1358:1362   */\n      0x00\n        /* \"#utility.yul\":1448:1466   */\n      0xffffffffffffffff\n        /* \"#utility.yul\":1440:1446   */\n      dup3\n        /* \"#utility.yul\":1437:1467   */\n      gt\n        /* \"#utility.yul\":1434:1490   */\n      iszero\n      tag_146\n      jumpi\n        /* \"#utility.yul\":1470:1488   */\n      tag_147\n      tag_89\n      jump\t// in\n    tag_147:\n        /* \"#utility.yul\":1434:1490   */\n    tag_146:\n        /* \"#utility.yul\":1508:1537   */\n      tag_148\n        /* \"#utility.yul\":1530:1536   */\n      dup3\n        /* \"#utility.yul\":1508:1537   */\n      tag_88\n      jump\t// in\n    tag_148:\n        /* \"#utility.yul\":1500:1537   */\n      swap1\n      pop\n        /* \"#utility.yul\":1592:1596   */\n      0x20\n        /* \"#utility.yul\":1586:1590   */\n      dup2\n        /* \"#utility.yul\":1582:1597   */\n      add\n        /* \"#utility.yul\":1574:1597   */\n      swap1\n      pop\n        /* \"#utility.yul\":1296:1604   */\n      swap2\n      swap1\n      pop\n      jump\t// out\n        /* \"#utility.yul\":1610:1756   */\n    tag_93:\n        /* \"#utility.yul\":1707:1713   */\n      dup3\n        /* \"#utility.yul\":1702:1705   */\n      dup2\n        /* \"#utility.yul\":1697:1700   */\n      dup4\n        /* \"#utility.yul\":1684:1714   */\n      calldatacopy\n        /* \"#utility.yul\":1748:1749   */\n      0x00\n        /* \"#utility.yul\":1739:1745   */\n      dup4\n        /* \"#utility.yul\":1734:1737   */\n      dup4\n        /* \"#utility.yul\":1730:1746   */\n      add\n        /* \"#utility.yul\":1723:1750   */\n      mstore\n        /* \"#utility.yul\":1610:1756   */\n      pop\n      pop\n      pop\n      jump\t// out\n        /* \"#utility.yul\":1762:2187   */\n    tag_94:\n        /* \"#utility.yul\":1840:1845   */\n      0x00\n        /* \"#utility.yul\":1865:1931   */\n      tag_151\n        /* \"#utility.yul\":1881:1930   */\n      tag_152\n        /* \"#utility.yul\":1923:1929   */\n      dup5\n        /* \"#utility.yul\":1881:1930   */\n      tag_92\n      jump\t// in\n    tag_152:\n        /* \"#utility.yul\":1865:1931   */\n      tag_91\n      jump\t// in\n    tag_151:\n        /* \"#utility.yul\":1856:1931   */\n      swap1\n      pop\n        /* \"#utility.yul\":1954:1960   */\n      dup3\n        /* \"#utility.yul\":1947:1952   */\n      dup2\n        /* \"#utility.yul\":1940:1961   */\n      mstore\n        /* \"#utility.yul\":1992:1996   */\n      0x20\n        /* \"#utility.yul\":1985:1990   */\n      dup2\n        /* \"#utility.yul\":1981:1997   */\n      add\n        /* \"#utility.yul\":2030:2033   */\n      dup5\n        /* \"#utility.yul\":2021:2027   */\n      dup5\n        /* \"#utility.yul\":2016:2019   */\n      dup5\n        /* \"#utility.yul\":2012:2028   */\n      add\n        /* \"#utility.yul\":2009:2034   */\n      gt\n        /* \"#utility.yul\":2006:2118   */\n      iszero\n      tag_153\n      jumpi\n        /* \"#utility.yul\":2037:2116   */\n      tag_154\n      tag_87\n      jump\t// in\n    tag_154:\n        /* \"#utility.yul\":2006:2118   */\n    tag_153:\n        /* \"#utility.yul\":2127:2181   */\n      tag_155\n        /* \"#utility.yul\":2174:2180   */\n      dup5\n        /* \"#utility.yul\":2169:2172   */\n      dup3\n        /* \"#utility.yul\":2164:2167   */\n      dup6\n        /* \"#utility.yul\":2127:2181   */\n      tag_93\n      jump\t// in\n    tag_155:\n        /* \"#utility.yul\":1846:2187   */\n      pop\n        /* \"#utility.yul\":1762:2187   */\n      swap4\n      swap3\n      pop\n      pop\n      pop\n      jump\t// out\n        /* \"#utility.yul\":2207:2547   */\n    tag_95:\n        /* \"#utility.yul\":2263:2268   */\n      0x00\n        /* \"#utility.yul\":2312:2315   */\n      dup3\n        /* \"#utility.yul\":2305:2309   */\n      0x1f\n        /* \"#utility.yul\":2297:2303   */\n      dup4\n        /* \"#utility.yul\":2293:2310   */\n      add\n        /* \"#utility.yul\":2289:2316   */\n      slt\n        /* \"#utility.yul\":2279:2401   */\n      tag_157\n      jumpi\n        /* \"#utility.yul\":2320:2399   */\n      tag_158\n      tag_86\n      jump\t// in\n    tag_158:\n        /* \"#utility.yul\":2279:2401   */\n    tag_157:\n        /* \"#utility.yul\":2437:2443   */\n      dup2\n        /* \"#utility.yul\":2424:2444   */\n      calldataload\n        /* \"#utility.yul\":2462:2541   */\n      tag_159\n        /* \"#utility.yul\":2537:2540   */\n      dup5\n        /* \"#utility.yul\":2529:2535   */\n      dup3\n        /* \"#utility.yul\":2522:2526   */\n      0x20\n        /* \"#utility.yul\":2514:2520   */\n      dup7\n        /* \"#utility.yul\":2510:2527   */\n      add\n        /* \"#utility.yul\":2462:2541   */\n      tag_94\n      jump\t// in\n    tag_159:\n        /* \"#utility.yul\":2453:2541   */\n      swap2\n      pop\n        /* \"#utility.yul\":2269:2547   */\n      pop\n        /* \"#utility.yul\":2207:2547   */\n      swap3\n      swap2\n      pop\n      pop\n      jump\t// out\n        /* \"#utility.yul\":2553:3387   */\n    tag_11:\n        /* \"#utility.yul\":2641:2647   */\n      0x00\n        /* \"#utility.yul\":2649:2655   */\n      dup1\n        /* \"#utility.yul\":2698:2700   */\n      0x40\n        /* \"#utility.yul\":2686:2695   */\n      dup4\n        /* \"#utility.yul\":2677:2684   */\n      dup6\n        /* \"#utility.yul\":2673:2696   */\n      sub\n        /* \"#utility.yul\":2669:2701   */\n      slt\n        /* \"#utility.yul\":2666:2785   */\n      iszero\n      tag_161\n      jumpi\n        /* \"#utility.yul\":2704:2783   */\n      tag_162\n      tag_84\n      jump\t// in\n    tag_162:\n        /* \"#utility.yul\":2666:2785   */\n    tag_161:\n        /* \"#utility.yul\":2852:2853   */\n      0x00\n        /* \"#utility.yul\":2841:2850   */\n      dup4\n        /* \"#utility.yul\":2837:2854   */\n      add\n        /* \"#utility.yul\":2824:2855   */\n      calldataload\n        /* \"#utility.yul\":2882:2900   */\n      0xffffffffffffffff\n        /* \"#utility.yul\":2874:2880   */\n      dup2\n        /* \"#utility.yul\":2871:2901   */\n      gt\n        /* \"#utility.yul\":2868:2985   */\n      iszero\n      tag_163\n      jumpi\n        /* \"#utility.yul\":2904:2983   */\n      tag_164\n      tag_85\n      jump\t// in\n    tag_164:\n        /* \"#utility.yul\":2868:2985   */\n    tag_163:\n        /* \"#utility.yul\":3009:3072   */\n      tag_165\n        /* \"#utility.yul\":3064:3071   */\n      dup6\n        /* \"#utility.yul\":3055:3061   */\n      dup3\n        /* \"#utility.yul\":3044:3053   */\n      dup7\n        /* \"#utility.yul\":3040:3062   */\n      add\n        /* \"#utility.yul\":3009:3072   */\n      tag_95\n      jump\t// in\n    tag_165:\n        /* \"#utility.yul\":2999:3072   */\n      swap3\n      pop\n        /* \"#utility.yul\":2795:3082   */\n      pop\n        /* \"#utility.yul\":3149:3151   */\n      0x20\n        /* \"#utility.yul\":3138:3147   */\n      dup4\n        /* \"#utility.yul\":3134:3152   */\n      add\n        /* \"#utility.yul\":3121:3153   */\n      calldataload\n        /* \"#utility.yul\":3180:3198   */\n      0xffffffffffffffff\n        /* \"#utility.yul\":3172:3178   */\n      dup2\n        /* \"#utility.yul\":3169:3199   */\n      gt\n        /* \"#utility.yul\":3166:3283   */\n      iszero\n      tag_166\n      jumpi\n        /* \"#utility.yul\":3202:3281   */\n      tag_167\n      tag_85\n      jump\t// in\n    tag_167:\n        /* \"#utility.yul\":3166:3283   */\n    tag_166:\n        /* \"#utility.yul\":3307:3370   */\n      tag_168\n        /* \"#utility.yul\":3362:3369   */\n      dup6\n        /* \"#utility.yul\":3353:3359   */\n      dup3\n        /* \"#utility.yul\":3342:3351   */\n      dup7\n        /* \"#utility.yul\":3338:3360   */\n      add\n        /* \"#utility.yul\":3307:3370   */\n      tag_95\n      jump\t// in\n    tag_168:\n        /* \"#utility.yul\":3297:3370   */\n      swap2\n      pop\n        /* \"#utility.yul\":3092:3380   */\n      pop\n        /* \"#utility.yul\":2553:3387   */\n      swap3\n      pop\n      swap3\n      swap1\n      pop\n      jump\t// out\n        /* \"#utility.yul\":3393:3902   */\n    tag_15:\n        /* \"#utility.yul\":3462:3468   */\n      0x00\n        /* \"#utility.yul\":3511:3513   */\n      0x20\n        /* \"#utility.yul\":3499:3508   */\n      dup3\n        /* \"#utility.yul\":3490:3497   */\n      dup5\n        /* \"#utility.yul\":3486:3509   */\n      sub\n        /* \"#utility.yul\":3482:3514   */\n      slt\n        /* \"#utility.yul\":3479:3598   */\n      iszero\n      tag_170\n      jumpi\n        /* \"#utility.yul\":3517:3596   */\n      tag_171\n      tag_84\n      jump\t// in\n    tag_171:\n        /* \"#utility.yul\":3479:3598   */\n    tag_170:\n        /* \"#utility.yul\":3665:3666   */\n      0x00\n        /* \"#utility.yul\":3654:3663   */\n      dup3\n        /* \"#utility.yul\":3650:3667   */\n      add\n        /* \"#utility.yul\":3637:3668   */\n      calldataload\n        /* \"#utility.yul\":3695:3713   */\n      0xffffffffffffffff\n        /* \"#utility.yul\":3687:3693   */\n      dup2\n        /* \"#utility.yul\":3684:3714   */\n      gt\n        /* \"#utility.yul\":3681:3798   */\n      iszero\n      tag_172\n      jumpi\n        /* \"#utility.yul\":3717:3796   */\n      tag_173\n      tag_85\n      jump\t// in\n    tag_173:\n        /* \"#utility.yul\":3681:3798   */\n    tag_172:\n        /* \"#utility.yul\":3822:3885   */\n      tag_174\n        /* \"#utility.yul\":3877:3884   */\n      dup5\n        /* \"#utility.yul\":3868:3874   */\n      dup3\n        /* \"#utility.yul\":3857:3866   */\n      dup6\n        /* \"#utility.yul\":3853:3875   */\n      add\n        /* \"#utility.yul\":3822:3885   */\n      tag_95\n      jump\t// in\n    tag_174:\n        /* \"#utility.yul\":3812:3885   */\n      swap2\n      pop\n        /* \"#utility.yul\":3608:3895   */\n      pop\n        /* \"#utility.yul\":3393:3902   */\n      swap3\n      swap2\n      pop\n      pop\n      jump\t// out\n        /* \"#utility.yul\":3908:4007   */\n    tag_96:\n        /* \"#utility.yul\":3960:3966   */\n      0x00\n        /* \"#utility.yul\":3994:3999   */\n      dup2\n        /* \"#utility.yul\":3988:4000   */\n      mload\n        /* \"#utility.yul\":3978:4000   */\n      swap1\n      pop\n        /* \"#utility.yul\":3908:4007   */\n      swap2\n      swap1\n      pop\n      jump\t// out\n        /* \"#utility.yul\":4013:4182   */\n    tag_97:\n        /* \"#utility.yul\":4097:4108   */\n      0x00\n        /* \"#utility.yul\":4131:4137   */\n      dup3\n        /* \"#utility.yul\":4126:4129   */\n      dup3\n        /* \"#utility.yul\":4119:4138   */\n      mstore\n        /* \"#utility.yul\":4171:4175   */\n      0x20\n        /* \"#utility.yul\":4166:4169   */\n      dup3\n        /* \"#utility.yul\":4162:4176   */\n      add\n        /* \"#utility.yul\":4147:4176   */\n      swap1\n      pop\n        /* \"#utility.yul\":4013:4182   */\n      swap3\n      swap2\n      pop\n      pop\n      jump\t// out\n        /* \"#utility.yul\":4188:4434   */\n    tag_98:\n        /* \"#utility.yul\":4269:4270   */\n      0x00\n        /* \"#utility.yul\":4279:4392   */\n    tag_178:\n        /* \"#utility.yul\":4293:4299   */\n      dup4\n        /* \"#utility.yul\":4290:4291   */\n      dup2\n        /* \"#utility.yul\":4287:4300   */\n      lt\n        /* \"#utility.yul\":4279:4392   */\n      iszero\n      tag_180\n      jumpi\n        /* \"#utility.yul\":4378:4379   */\n      dup1\n        /* \"#utility.yul\":4373:4376   */\n      dup3\n        /* \"#utility.yul\":4369:4380   */\n      add\n        /* \"#utility.yul\":4363:4381   */\n      mload\n        /* \"#utility.yul\":4359:4360   */\n      dup2\n        /* \"#utility.yul\":4354:4357   */\n      dup5\n        /* \"#utility.yul\":4350:4361   */\n      add\n        /* \"#utility.yul\":4343:4382   */\n      mstore\n        /* \"#utility.yul\":4315:4317   */\n      0x20\n        /* \"#utility.yul\":4312:4313   */\n      dup2\n        /* \"#utility.yul\":4308:4318   */\n      add\n        /* \"#utility.yul\":4303:4318   */\n      swap1\n      pop\n        /* \"#utility.yul\":4279:4392   */\n      jump(tag_178)\n    tag_180:\n        /* \"#utility.yul\":4426:4427   */\n      0x00\n        /* \"#utility.yul\":4417:4423   */\n      dup5\n        /* \"#utility.yul\":4412:4415   */\n      dup5\n        /* \"#utility.yul\":4408:4424   */\n      add\n        /* \"#utility.yul\":4401:4428   */\n      mstore\n        /* \"#utility.yul\":4250:4434   */\n      pop\n        /* \"#utility.yul\":4188:4434   */\n      pop\n      pop\n      pop\n      jump\t// out\n        /* \"#utility.yul\":4440:4817   */\n    tag_99:\n        /* \"#utility.yul\":4528:4531   */\n      0x00\n        /* \"#utility.yul\":4556:4595   */\n      tag_182\n        /* \"#utility.yul\":4589:4594   */\n      dup3\n        /* \"#utility.yul\":4556:4595   */\n      tag_96\n      jump\t// in\n    tag_182:\n        /* \"#utility.yul\":4611:4682   */\n      tag_183\n        /* \"#utility.yul\":4675:4681   */\n      dup2\n        /* \"#utility.yul\":4670:4673   */\n      dup6\n        /* \"#utility.yul\":4611:4682   */\n      tag_97\n      jump\t// in\n    tag_183:\n        /* \"#utility.yul\":4604:4682   */\n      swap4\n      pop\n        /* \"#utility.yul\":4691:4756   */\n      tag_184\n        /* \"#utility.yul\":4749:4755   */\n      dup2\n        /* \"#utility.yul\":4744:4747   */\n      dup6\n        /* \"#utility.yul\":4737:4741   */\n      0x20\n        /* \"#utility.yul\":4730:4735   */\n      dup7\n        /* \"#utility.yul\":4726:4742   */\n      add\n        /* \"#utility.yul\":4691:4756   */\n      tag_98\n      jump\t// in\n    tag_184:\n        /* \"#utility.yul\":4781:4810   */\n      tag_185\n        /* \"#utility.yul\":4803:4809   */\n      dup2\n        /* \"#utility.yul\":4781:4810   */\n      tag_88\n      jump\t// in\n    tag_185:\n        /* \"#utility.yul\":4776:4779   */\n      dup5\n        /* \"#utility.yul\":4772:4811   */\n      add\n        /* \"#utility.yul\":4765:4811   */\n      swap2\n      pop\n        /* \"#utility.yul\":4532:4817   */\n      pop\n        /* \"#utility.yul\":4440:4817   */\n      swap3\n      swap2\n      pop\n      pop\n      jump\t// out\n        /* \"#utility.yul\":4823:5136   */\n    tag_18:\n        /* \"#utility.yul\":4936:4940   */\n      0x00\n        /* \"#utility.yul\":4974:4976   */\n      0x20\n        /* \"#utility.yul\":4963:4972   */\n      dup3\n        /* \"#utility.yul\":4959:4977   */\n      add\n        /* \"#utility.yul\":4951:4977   */\n      swap1\n      pop\n        /* \"#utility.yul\":5023:5032   */\n      dup2\n        /* \"#utility.yul\":5017:5021   */\n      dup2\n        /* \"#utility.yul\":5013:5033   */\n      sub\n        /* \"#utility.yul\":5009:5010   */\n      0x00\n        /* \"#utility.yul\":4998:5007   */\n      dup4\n        /* \"#utility.yul\":4994:5011   */\n      add\n        /* \"#utility.yul\":4987:5034   */\n      mstore\n        /* \"#utility.yul\":5051:5129   */\n      tag_187\n        /* \"#utility.yul\":5124:5128   */\n      dup2\n        /* \"#utility.yul\":5115:5121   */\n      dup5\n        /* \"#utility.yul\":5051:5129   */\n      tag_99\n      jump\t// in\n    tag_187:\n        /* \"#utility.yul\":5043:5129   */\n      swap1\n      pop\n        /* \"#utility.yul\":4823:5136   */\n      swap3\n      swap2\n      pop\n      pop\n      jump\t// out\n        /* \"#utility.yul\":5142:5219   */\n    tag_100:\n        /* \"#utility.yul\":5179:5186   */\n      0x00\n        /* \"#utility.yul\":5208:5213   */\n      dup2\n        /* \"#utility.yul\":5197:5213   */\n      swap1\n      pop\n        /* \"#utility.yul\":5142:5219   */\n      swap2\n      swap1\n      pop\n      jump\t// out\n        /* \"#utility.yul\":5225:5343   */\n    tag_101:\n        /* \"#utility.yul\":5312:5336   */\n      tag_190\n        /* \"#utility.yul\":5330:5335   */\n      dup2\n        /* \"#utility.yul\":5312:5336   */\n      tag_100\n      jump\t// in\n    tag_190:\n        /* \"#utility.yul\":5307:5310   */\n      dup3\n        /* \"#utility.yul\":5300:5337   */\n      mstore\n        /* \"#utility.yul\":5225:5343   */\n      pop\n      pop\n      jump\t// out\n        /* \"#utility.yul\":5349:5571   */\n    tag_22:\n        /* \"#utility.yul\":5442:5446   */\n      0x00\n        /* \"#utility.yul\":5480:5482   */\n      0x20\n        /* \"#utility.yul\":5469:5478   */\n      dup3\n        /* \"#utility.yul\":5465:5483   */\n      add\n        /* \"#utility.yul\":5457:5483   */\n      swap1\n      pop\n        /* \"#utility.yul\":5493:5564   */\n      tag_192\n        /* \"#utility.yul\":5561:5562   */\n      0x00\n        /* \"#utility.yul\":5550:5559   */\n      dup4\n        /* \"#utility.yul\":5546:5563   */\n      add\n        /* \"#utility.yul\":5537:5543   */\n      dup5\n        /* \"#utility.yul\":5493:5564   */\n      tag_101\n      jump\t// in\n    tag_192:\n        /* \"#utility.yul\":5349:5571   */\n      swap3\n      swap2\n      pop\n      pop\n      jump\t// out\n        /* \"#utility.yul\":5577:5703   */\n    tag_102:\n        /* \"#utility.yul\":5614:5621   */\n      0x00\n        /* \"#utility.yul\":5654:5696   */\n      0xffffffffffffffffffffffffffffffffffffffff\n        /* \"#utility.yul\":5647:5652   */\n      dup3\n        /* \"#utility.yul\":5643:5697   */\n      and\n        /* \"#utility.yul\":5632:5697   */\n      swap1\n      pop\n        /* \"#utility.yul\":5577:5703   */\n      swap2\n      swap1\n      pop\n      jump\t// out\n        /* \"#utility.yul\":5709:5805   */\n    tag_103:\n        /* \"#utility.yul\":5746:5753   */\n      0x00\n        /* \"#utility.yul\":5775:5799   */\n      tag_195\n        /* \"#utility.yul\":5793:5798   */\n      dup3\n        /* \"#utility.yul\":5775:5799   */\n      tag_102\n      jump\t// in\n    tag_195:\n        /* \"#utility.yul\":5764:5799   */\n      swap1\n      pop\n        /* \"#utility.yul\":5709:5805   */\n      swap2\n      swap1\n      pop\n      jump\t// out\n        /* \"#utility.yul\":5811:5929   */\n    tag_104:\n        /* \"#utility.yul\":5898:5922   */\n      tag_197\n        /* \"#utility.yul\":5916:5921   */\n      dup2\n        /* \"#utility.yul\":5898:5922   */\n      tag_103\n      jump\t// in\n    tag_197:\n        /* \"#utility.yul\":5893:5896   */\n      dup3\n        /* \"#utility.yul\":5886:5923   */\n      mstore\n        /* \"#utility.yul\":5811:5929   */\n      pop\n      pop\n      jump\t// out\n        /* \"#utility.yul\":5935:6157   */\n    tag_26:\n        /* \"#utility.yul\":6028:6032   */\n      0x00\n        /* \"#utility.yul\":6066:6068   */\n      0x20\n        /* \"#utility.yul\":6055:6064   */\n      dup3\n        /* \"#utility.yul\":6051:6069   */\n      add\n        /* \"#utility.yul\":6043:6069   */\n      swap1\n      pop\n        /* \"#utility.yul\":6079:6150   */\n      tag_199\n        /* \"#utility.yul\":6147:6148   */\n      0x00\n        /* \"#utility.yul\":6136:6145   */\n      dup4\n        /* \"#utility.yul\":6132:6149   */\n      add\n        /* \"#utility.yul\":6123:6129   */\n      dup5\n        /* \"#utility.yul\":6079:6150   */\n      tag_104\n      jump\t// in\n    tag_199:\n        /* \"#utility.yul\":5935:6157   */\n      swap3\n      swap2\n      pop\n      pop\n      jump\t// out\n        /* \"#utility.yul\":6163:6333   */\n    tag_105:\n        /* \"#utility.yul\":6303:6325   */\n      0x4e6f2073746f7261676520617661696c61626c65000000000000000000000000\n        /* \"#utility.yul\":6299:6300   */\n      0x00\n        /* \"#utility.yul\":6291:6297   */\n      dup3\n        /* \"#utility.yul\":6287:6301   */\n      add\n        /* \"#utility.yul\":6280:6326   */\n      mstore\n        /* \"#utility.yul\":6163:6333   */\n      pop\n      jump\t// out\n        /* \"#utility.yul\":6339:6705   */\n    tag_106:\n        /* \"#utility.yul\":6481:6484   */\n      0x00\n        /* \"#utility.yul\":6502:6569   */\n      tag_202\n        /* \"#utility.yul\":6566:6568   */\n      0x14\n        /* \"#utility.yul\":6561:6564   */\n      dup4\n        /* \"#utility.yul\":6502:6569   */\n      tag_97\n      jump\t// in\n    tag_202:\n        /* \"#utility.yul\":6495:6569   */\n      swap2\n      pop\n        /* \"#utility.yul\":6578:6671   */\n      tag_203\n        /* \"#utility.yul\":6667:6670   */\n      dup3\n        /* \"#utility.yul\":6578:6671   */\n      tag_105\n      jump\t// in\n    tag_203:\n        /* \"#utility.yul\":6696:6698   */\n      0x20\n        /* \"#utility.yul\":6691:6694   */\n      dup3\n        /* \"#utility.yul\":6687:6699   */\n      add\n        /* \"#utility.yul\":6680:6699   */\n      swap1\n      pop\n        /* \"#utility.yul\":6339:6705   */\n      swap2\n      swap1\n      pop\n      jump\t// out\n        /* \"#utility.yul\":6711:7130   */\n    tag_36:\n        /* \"#utility.yul\":6877:6881   */\n      0x00\n        /* \"#utility.yul\":6915:6917   */\n      0x20\n        /* \"#utility.yul\":6904:6913   */\n      dup3\n        /* \"#utility.yul\":6900:6918   */\n      add\n        /* \"#utility.yul\":6892:6918   */\n      swap1\n      pop\n        /* \"#utility.yul\":6964:6973   */\n      dup2\n        /* \"#utility.yul\":6958:6962   */\n      dup2\n        /* \"#utility.yul\":6954:6974   */\n      sub\n        /* \"#utility.yul\":6950:6951   */\n      0x00\n        /* \"#utility.yul\":6939:6948   */\n      dup4\n        /* \"#utility.yul\":6935:6952   */\n      add\n        /* \"#utility.yul\":6928:6975   */\n      mstore\n        /* \"#utility.yul\":6992:7123   */\n      tag_205\n        /* \"#utility.yul\":7118:7122   */\n      dup2\n        /* \"#utility.yul\":6992:7123   */\n      tag_106\n      jump\t// in\n    tag_205:\n        /* \"#utility.yul\":6984:7123   */\n      swap1\n      pop\n        /* \"#utility.yul\":6711:7130   */\n      swap2\n      swap1\n      pop\n      jump\t// out\n        /* \"#utility.yul\":7136:7316   */\n    tag_107:\n        /* \"#utility.yul\":7184:7261   */\n      0x4e487b7100000000000000000000000000000000000000000000000000000000\n        /* \"#utility.yul\":7181:7182   */\n      0x00\n        /* \"#utility.yul\":7174:7262   */\n      mstore\n        /* \"#utility.yul\":7281:7285   */\n      0x11\n        /* \"#utility.yul\":7278:7279   */\n      0x04\n        /* \"#utility.yul\":7271:7286   */\n      mstore\n        /* \"#utility.yul\":7305:7309   */\n      0x24\n        /* \"#utility.yul\":7302:7303   */\n      0x00\n        /* \"#utility.yul\":7295:7310   */\n      revert\n        /* \"#utility.yul\":7322:7555   */\n    tag_38:\n        /* \"#utility.yul\":7361:7364   */\n      0x00\n        /* \"#utility.yul\":7384:7408   */\n      tag_208\n        /* \"#utility.yul\":7402:7407   */\n      dup3\n        /* \"#utility.yul\":7384:7408   */\n      tag_100\n      jump\t// in\n    tag_208:\n        /* \"#utility.yul\":7375:7408   */\n      swap2\n      pop\n        /* \"#utility.yul\":7430:7496   */\n      0xffffffffffffffffffffffffffffffffffffffffffffffffffffffffffffffff\n        /* \"#utility.yul\":7423:7428   */\n      dup3\n        /* \"#utility.yul\":7420:7497   */\n      sub\n        /* \"#utility.yul\":7417:7520   */\n      tag_209\n      jumpi\n        /* \"#utility.yul\":7500:7518   */\n      tag_210\n      tag_107\n      jump\t// in\n    tag_210:\n        /* \"#utility.yul\":7417:7520   */\n    tag_209:\n        /* \"#utility.yul\":7547:7548   */\n      0x01\n        /* \"#utility.yul\":7540:7545   */\n      dup3\n        /* \"#utility.yul\":7536:7549   */\n      add\n        /* \"#utility.yul\":7529:7549   */\n      swap1\n      pop\n        /* \"#utility.yul\":7322:7555   */\n      swap2\n      swap1\n      pop\n      jump\t// out\n        /* \"#utility.yul\":7561:7709   */\n    tag_108:\n        /* \"#utility.yul\":7663:7674   */\n      0x00\n        /* \"#utility.yul\":7700:7703   */\n      dup2\n        /* \"#utility.yul\":7685:7703   */\n      swap1\n      pop\n        /* \"#utility.yul\":7561:7709   */\n      swap3\n      swap2\n      pop\n      pop\n      jump\t// out\n        /* \"#utility.yul\":7715:8105   */\n    tag_109:\n        /* \"#utility.yul\":7821:7824   */\n      0x00\n        /* \"#utility.yul\":7849:7888   */\n      tag_213\n        /* \"#utility.yul\":7882:7887   */\n      dup3\n        /* \"#utility.yul\":7849:7888   */\n      tag_96\n      jump\t// in\n    tag_213:\n        /* \"#utility.yul\":7904:7993   */\n      tag_214\n        /* \"#utility.yul\":7986:7992   */\n      dup2\n        /* \"#utility.yul\":7981:7984   */\n      dup6\n        /* \"#utility.yul\":7904:7993   */\n      tag_108\n      jump\t// in\n    tag_214:\n        /* \"#utility.yul\":7897:7993   */\n      swap4\n      pop\n        /* \"#utility.yul\":8002:8067   */\n      tag_215\n        /* \"#utility.yul\":8060:8066   */\n      dup2\n        /* \"#utility.yul\":8055:8058   */\n      dup6\n        /* \"#utility.yul\":8048:8052   */\n      0x20\n        /* \"#utility.yul\":8041:8046   */\n      dup7\n        /* \"#utility.yul\":8037:8053   */\n      add\n        /* \"#utility.yul\":8002:8067   */\n      tag_98\n      jump\t// in\n    tag_215:\n        /* \"#utility.yul\":8092:8098   */\n      dup1\n        /* \"#utility.yul\":8087:8090   */\n      dup5\n        /* \"#utility.yul\":8083:8099   */\n      add\n        /* \"#utility.yul\":8076:8099   */\n      swap2\n      pop\n        /* \"#utility.yul\":7825:8105   */\n      pop\n        /* \"#utility.yul\":7715:8105   */\n      swap3\n      swap2\n      pop\n      pop\n      jump\t// out\n        /* \"#utility.yul\":8111:8386   */\n    tag_40:\n        /* \"#utility.yul\":8243:8246   */\n      0x00\n        /* \"#utility.yul\":8265:8360   */\n      tag_217\n        /* \"#utility.yul\":8356:8359   */\n      dup3\n        /* \"#utility.yul\":8347:8353   */\n      dup5\n        /* \"#utility.yul\":8265:8360   */\n      tag_109\n      jump\t// in\n    tag_217:\n        /* \"#utility.yul\":8258:8360   */\n      swap2\n      pop\n        /* \"#utility.yul\":8377:8380   */\n      dup2\n        /* \"#utility.yul\":8370:8380   */\n      swap1\n      pop\n        /* \"#utility.yul\":8111:8386   */\n      swap3\n      swap2\n      pop\n      pop\n      jump\t// out\n        /* \"#utility.yul\":8392:8572   */\n    tag_110:\n        /* \"#utility.yul\":8440:8517   */\n      0x4e487b7100000000000000000000000000000000000000000000000000000000\n        /* \"#utility.yul\":8437:8438   */\n      0x00\n        /* \"#utility.yul\":8430:8518   */\n      mstore\n        /* \"#utility.yul\":8537:8541   */\n      0x22\n        /* \"#utility.yul\":8534:8535   */\n      0x04\n        /* \"#utility.yul\":8527:8542   */\n      mstore\n        /* \"#utility.yul\":8561:8565   */\n      0x24\n        /* \"#utility.yul\":8558:8559   */\n      0x00\n        /* \"#utility.yul\":8551:8566   */\n      revert\n        /* \"#utility.yul\":8578:8898   */\n    tag_54:\n        /* \"#utility.yul\":8622:8628   */\n      0x00\n        /* \"#utility.yul\":8659:8660   */\n      0x02\n        /* \"#utility.yul\":8653:8657   */\n      dup3\n        /* \"#utility.yul\":8649:8661   */\n      div\n        /* \"#utility.yul\":8639:8661   */\n      swap1\n      pop\n        /* \"#utility.yul\":8706:8707   */\n      0x01\n        /* \"#utility.yul\":8700:8704   */\n      dup3\n        /* \"#utility.yul\":8696:8708   */\n      and\n        /* \"#utility.yul\":8727:8745   */\n      dup1\n        /* \"#utility.yul\":8717:8798   */\n      tag_220\n      jumpi\n        /* \"#utility.yul\":8783:8787   */\n      0x7f\n        /* \"#utility.yul\":8775:8781   */\n      dup3\n        /* \"#utility.yul\":8771:8788   */\n      and\n        /* \"#utility.yul\":8761:8788   */\n      swap2\n      pop\n        /* \"#utility.yul\":8717:8798   */\n    tag_220:\n        /* \"#utility.yul\":8845:8847   */\n      0x20\n        /* \"#utility.yul\":8837:8843   */\n      dup3\n        /* \"#utility.yul\":8834:8848   */\n      lt\n        /* \"#utility.yul\":8814:8832   */\n      dup2\n        /* \"#utility.yul\":8811:8849   */\n      sub\n        /* \"#utility.yul\":8808:8892   */\n      tag_221\n      jumpi\n        /* \"#utility.yul\":8864:8882   */\n      tag_222\n      tag_110\n      jump\t// in\n    tag_222:\n        /* \"#utility.yul\":8808:8892   */\n    tag_221:\n        /* \"#utility.yul\":8629:8898   */\n      pop\n        /* \"#utility.yul\":8578:8898   */\n      swap2\n      swap1\n      pop\n      jump\t// out\n        /* \"#utility.yul\":8904:9045   */\n    tag_111:\n        /* \"#utility.yul\":8953:8957   */\n      0x00\n        /* \"#utility.yul\":8976:8979   */\n      dup2\n        /* \"#utility.yul\":8968:8979   */\n      swap1\n      pop\n        /* \"#utility.yul\":8999:9002   */\n      dup2\n        /* \"#utility.yul\":8996:8997   */\n      0x00\n        /* \"#utility.yul\":8989:9003   */\n      mstore\n        /* \"#utility.yul\":9033:9037   */\n      0x20\n        /* \"#utility.yul\":9030:9031   */\n      0x00\n        /* \"#utility.yul\":9020:9038   */\n      keccak256\n        /* \"#utility.yul\":9012:9038   */\n      swap1\n      pop\n        /* \"#utility.yul\":8904:9045   */\n      swap2\n      swap1\n      pop\n      jump\t// out\n        /* \"#utility.yul\":9051:9144   */\n    tag_112:\n        /* \"#utility.yul\":9088:9094   */\n      0x00\n        /* \"#utility.yul\":9135:9137   */\n      0x20\n        /* \"#utility.yul\":9130:9132   */\n      0x1f\n        /* \"#utility.yul\":9123:9128   */\n      dup4\n        /* \"#utility.yul\":9119:9133   */\n      add\n        /* \"#utility.yul\":9115:9138   */\n      div\n        /* \"#utility.yul\":9105:9138   */\n      swap1\n      pop\n        /* \"#utility.yul\":9051:9144   */\n      swap2\n      swap1\n      pop\n      jump\t// out\n        /* \"#utility.yul\":9150:9257   */\n    tag_113:\n        /* \"#utility.yul\":9194:9202   */\n      0x00\n        /* \"#utility.yul\":9244:9249   */\n      dup3\n        /* \"#utility.yul\":9238:9242   */\n      dup3\n        /* \"#utility.yul\":9234:9250   */\n      shl\n        /* \"#utility.yul\":9213:9250   */\n      swap1\n      pop\n        /* \"#utility.yul\":9150:9257   */\n      swap3\n      swap2\n      pop\n      pop\n      jump\t// out\n        /* \"#utility.yul\":9263:9656   */\n    tag_114:\n        /* \"#utility.yul\":9332:9338   */\n      0x00\n        /* \"#utility.yul\":9382:9383   */\n      0x08\n        /* \"#utility.yul\":9370:9380   */\n      dup4\n        /* \"#utility.yul\":9366:9384   */\n      mul\n        /* \"#utility.yul\":9405:9502   */\n      tag_227\n        /* \"#utility.yul\":9435:9501   */\n      0xffffffffffffffffffffffffffffffffffffffffffffffffffffffffffffffff\n        /* \"#utility.yul\":9424:9433   */\n      dup3\n        /* \"#utility.yul\":9405:9502   */\n      tag_113\n      jump\t// in\n    tag_227:\n        /* \"#utility.yul\":9523:9562   */\n      tag_228\n        /* \"#utility.yul\":9553:9561   */\n      dup7\n        /* \"#utility.yul\":9542:9551   */\n      dup4\n        /* \"#utility.yul\":9523:9562   */\n      tag_113\n      jump\t// in\n    tag_228:\n        /* \"#utility.yul\":9511:9562   */\n      swap6\n      pop\n        /* \"#utility.yul\":9595:9599   */\n      dup1\n        /* \"#utility.yul\":9591:9600   */\n      not\n        /* \"#utility.yul\":9584:9589   */\n      dup5\n        /* \"#utility.yul\":9580:9601   */\n      and\n        /* \"#utility.yul\":9571:9601   */\n      swap4\n      pop\n        /* \"#utility.yul\":9644:9648   */\n      dup1\n        /* \"#utility.yul\":9634:9642   */\n      dup7\n        /* \"#utility.yul\":9630:9649   */\n      and\n        /* \"#utility.yul\":9623:9628   */\n      dup5\n        /* \"#utility.yul\":9620:9650   */\n      or\n        /* \"#utility.yul\":9610:9650   */\n      swap3\n      pop\n        /* \"#utility.yul\":9339:9656   */\n      pop\n      pop\n        /* \"#utility.yul\":9263:9656   */\n      swap4\n      swap3\n      pop\n      pop\n      pop\n      jump\t// out\n        /* \"#utility.yul\":9662:9722   */\n    tag_115:\n        /* \"#utility.yul\":9690:9693   */\n      0x00\n        /* \"#utility.yul\":9711:9716   */\n      dup2\n        /* \"#utility.yul\":9704:9716   */\n      swap1\n      pop\n        /* \"#utility.yul\":9662:9722   */\n      swap2\n      swap1\n      pop\n      jump\t// out\n        /* \"#utility.yul\":9728:9870   */\n    tag_116:\n        /* \"#utility.yul\":9778:9787   */\n      0x00\n        /* \"#utility.yul\":9811:9864   */\n      tag_231\n        /* \"#utility.yul\":9829:9863   */\n      tag_232\n        /* \"#utility.yul\":9838:9862   */\n      tag_233\n        /* \"#utility.yul\":9856:9861   */\n      dup5\n        /* \"#utility.yul\":9838:9862   */\n      tag_100\n      jump\t// in\n    tag_233:\n        /* \"#utility.yul\":9829:9863   */\n      tag_115\n      jump\t// in\n    tag_232:\n        /* \"#utility.yul\":9811:9864   */\n      tag_100\n      jump\t// in\n    tag_231:\n        /* \"#utility.yul\":9798:9864   */\n      swap1\n      pop\n        /* \"#utility.yul\":9728:9870   */\n      swap2\n      swap1\n      pop\n      jump\t// out\n        /* \"#utility.yul\":9876:9951   */\n    tag_117:\n        /* \"#utility.yul\":9919:9922   */\n      0x00\n        /* \"#utility.yul\":9940:9945   */\n      dup2\n        /* \"#utility.yul\":9933:9945   */\n      swap1\n      pop\n        /* \"#utility.yul\":9876:9951   */\n      swap2\n      swap1\n      pop\n      jump\t// out\n        /* \"#utility.yul\":9957:10226   */\n    tag_118:\n        /* \"#utility.yul\":10067:10106   */\n      tag_236\n        /* \"#utility.yul\":10098:10105   */\n      dup4\n        /* \"#utility.yul\":10067:10106   */\n      tag_116\n      jump\t// in\n    tag_236:\n        /* \"#utility.yul\":10128:10219   */\n      tag_237\n        /* \"#utility.yul\":10177:10218   */\n      tag_238\n        /* \"#utility.yul\":10201:10217   */\n      dup3\n        /* \"#utility.yul\":10177:10218   */\n      tag_117\n      jump\t// in\n    tag_238:\n        /* \"#utility.yul\":10169:10175   */\n      dup5\n        /* \"#utility.yul\":10162:10166   */\n      dup5\n        /* \"#utility.yul\":10156:10167   */\n      sload\n        /* \"#utility.yul\":10128:10219   */\n      tag_114\n      jump\t// in\n    tag_237:\n        /* \"#utility.yul\":10122:10126   */\n      dup3\n        /* \"#utility.yul\":10115:10220   */\n      sstore\n        /* \"#utility.yul\":10033:10226   */\n      pop\n        /* \"#utility.yul\":9957:10226   */\n      pop\n      pop\n      pop\n      jump\t// out\n        /* \"#utility.yul\":10232:10305   */\n    tag_119:\n        /* \"#utility.yul\":10277:10280   */\n      0x00\n        /* \"#utility.yul\":10232:10305   */\n      swap1\n      jump\t// out\n        /* \"#utility.yul\":10311:10500   */\n    tag_120:\n        /* \"#utility.yul\":10388:10420   */\n      tag_241\n      tag_119\n      jump\t// in\n    tag_241:\n        /* \"#utility.yul\":10429:10494   */\n      tag_242\n        /* \"#utility.yul\":10487:10493   */\n      dup2\n        /* \"#utility.yul\":10479:10485   */\n      dup5\n        /* \"#utility.yul\":10473:10477   */\n      dup5\n        /* \"#utility.yul\":10429:10494   */\n      tag_118\n      jump\t// in\n    tag_242:\n        /* \"#utility.yul\":10364:10500   */\n      pop\n        /* \"#utility.yul\":10311:10500   */\n      pop\n      pop\n      jump\t// out\n        /* \"#utility.yul\":10506:10692   */\n    tag_121:\n        /* \"#utility.yul\":10566:10686   */\n    tag_244:\n        /* \"#utility.yul\":10583:10586   */\n      dup2\n        /* \"#utility.yul\":10576:10581   */\n      dup2\n        /* \"#utility.yul\":10573:10587   */\n      lt\n        /* \"#utility.yul\":10566:10686   */\n      iszero\n      tag_246\n      jumpi\n        /* \"#utility.yul\":10637:10676   */\n      tag_247\n        /* \"#utility.yul\":10674:10675   */\n      0x00\n        /* \"#utility.yul\":10667:10672   */\n      dup3\n        /* \"#utility.yul\":10637:10676   */\n      tag_120\n      jump\t// in\n    tag_247:\n        /* \"#utility.yul\":10610:10611   */\n      0x01\n        /* \"#utility.yul\":10603:10608   */\n      dup2\n        /* \"#utility.yul\":10599:10612   */\n      add\n        /* \"#utility.yul\":10590:10612   */\n      swap1\n      pop\n        /* \"#utility.yul\":10566:10686   */\n      jump(tag_244)\n    tag_246:\n        /* \"#utility.yul\":10506:10692   */\n      pop\n      pop\n      jump\t// out\n        /* \"#utility.yul\":10698:11241   */\n    tag_122:\n        /* \"#utility.yul\":10799:10801   */\n      0x1f\n        /* \"#utility.yul\":10794:10797   */\n      dup3\n        /* \"#utility.yul\":10791:10802   */\n      gt\n        /* \"#utility.yul\":10788:11234   */\n      iszero\n      tag_249\n      jumpi\n        /* \"#utility.yul\":10833:10871   */\n      tag_250\n        /* \"#utility.yul\":10865:10870   */\n      dup2\n        /* \"#utility.yul\":10833:10871   */\n      tag_111\n      jump\t// in\n    tag_250:\n        /* \"#utility.yul\":10917:10946   */\n      tag_251\n        /* \"#utility.yul\":10935:10945   */\n      dup5\n        /* \"#utility.yul\":10917:10946   */\n      tag_112\n      jump\t// in\n    tag_251:\n        /* \"#utility.yul\":10907:10915   */\n      dup2\n        /* \"#utility.yul\":10903:10947   */\n      add\n        /* \"#utility.yul\":11100:11102   */\n      0x20\n        /* \"#utility.yul\":11088:11098   */\n      dup6\n        /* \"#utility.yul\":11085:11103   */\n      lt\n        /* \"#utility.yul\":11082:11131   */\n      iszero\n      tag_252\n      jumpi\n        /* \"#utility.yul\":11121:11129   */\n      dup2\n        /* \"#utility.yul\":11106:11129   */\n      swap1\n      pop\n        /* \"#utility.yul\":11082:11131   */\n    tag_252:\n        /* \"#utility.yul\":11144:11224   */\n      tag_253\n        /* \"#utility.yul\":11200:11222   */\n      tag_254\n        /* \"#utility.yul\":11218:11221   */\n      dup6\n        /* \"#utility.yul\":11200:11222   */\n      tag_112\n      jump\t// in\n    tag_254:\n        /* \"#utility.yul\":11190:11198   */\n      dup4\n        /* \"#utility.yul\":11186:11223   */\n      add\n        /* \"#utility.yul\":11173:11184   */\n      dup3\n        /* \"#utility.yul\":11144:11224   */\n      tag_121\n      jump\t// in\n    tag_253:\n        /* \"#utility.yul\":10803:11234   */\n      pop\n      pop\n        /* \"#utility.yul\":10788:11234   */\n    tag_249:\n        /* \"#utility.yul\":10698:11241   */\n      pop\n      pop\n      pop\n      jump\t// out\n        /* \"#utility.yul\":11247:11364   */\n    tag_123:\n        /* \"#utility.yul\":11301:11309   */\n      0x00\n        /* \"#utility.yul\":11351:11356   */\n      dup3\n        /* \"#utility.yul\":11345:11349   */\n      dup3\n        /* \"#utility.yul\":11341:11357   */\n      shr\n        /* \"#utility.yul\":11320:11357   */\n      swap1\n      pop\n        /* \"#utility.yul\":11247:11364   */\n      swap3\n      swap2\n      pop\n      pop\n      jump\t// out\n        /* \"#utility.yul\":11370:11539   */\n    tag_124:\n        /* \"#utility.yul\":11414:11420   */\n      0x00\n        /* \"#utility.yul\":11447:11498   */\n      tag_257\n        /* \"#utility.yul\":11495:11496   */\n      0x00\n        /* \"#utility.yul\":11491:11497   */\n      not\n        /* \"#utility.yul\":11483:11488   */\n      dup5\n        /* \"#utility.yul\":11480:11481   */\n      0x08\n        /* \"#utility.yul\":11476:11489   */\n      mul\n        /* \"#utility.yul\":11447:11498   */\n      tag_123\n      jump\t// in\n    tag_257:\n        /* \"#utility.yul\":11443:11499   */\n      not\n        /* \"#utility.yul\":11528:11532   */\n      dup1\n        /* \"#utility.yul\":11522:11526   */\n      dup4\n        /* \"#utility.yul\":11518:11533   */\n      and\n        /* \"#utility.yul\":11508:11533   */\n      swap2\n      pop\n        /* \"#utility.yul\":11421:11539   */\n      pop\n        /* \"#utility.yul\":11370:11539   */\n      swap3\n      swap2\n      pop\n      pop\n      jump\t// out\n        /* \"#utility.yul\":11544:11839   */\n    tag_125:\n        /* \"#utility.yul\":11620:11624   */\n      0x00\n        /* \"#utility.yul\":11766:11795   */\n      tag_259\n        /* \"#utility.yul\":11791:11794   */\n      dup4\n        /* \"#utility.yul\":11785:11789   */\n      dup4\n        /* \"#utility.yul\":11766:11795   */\n      tag_124\n      jump\t// in\n    tag_259:\n        /* \"#utility.yul\":11758:11795   */\n      swap2\n      pop\n        /* \"#utility.yul\":11828:11831   */\n      dup3\n        /* \"#utility.yul\":11825:11826   */\n      0x02\n        /* \"#utility.yul\":11821:11832   */\n      mul\n        /* \"#utility.yul\":11815:11819   */\n      dup3\n        /* \"#utility.yul\":11812:11833   */\n      or\n        /* \"#utility.yul\":11804:11833   */\n      swap1\n      pop\n        /* \"#utility.yul\":11544:11839   */\n      swap3\n      swap2\n      pop\n      pop\n      jump\t// out\n        /* \"#utility.yul\":11844:13239   */\n    tag_42:\n        /* \"#utility.yul\":11961:11998   */\n      tag_261\n        /* \"#utility.yul\":11994:11997   */\n      dup3\n        /* \"#utility.yul\":11961:11998   */\n      tag_96\n      jump\t// in\n    tag_261:\n        /* \"#utility.yul\":12063:12081   */\n      0xffffffffffffffff\n        /* \"#utility.yul\":12055:12061   */\n      dup2\n        /* \"#utility.yul\":12052:12082   */\n      gt\n        /* \"#utility.yul\":12049:12105   */\n      iszero\n      tag_262\n      jumpi\n        /* \"#utility.yul\":12085:12103   */\n      tag_263\n      tag_89\n      jump\t// in\n    tag_263:\n        /* \"#utility.yul\":12049:12105   */\n    tag_262:\n        /* \"#utility.yul\":12129:12167   */\n      tag_264\n        /* \"#utility.yul\":12161:12165   */\n      dup3\n        /* \"#utility.yul\":12155:12166   */\n      sload\n        /* \"#utility.yul\":12129:12167   */\n      tag_54\n      jump\t// in\n    tag_264:\n        /* \"#utility.yul\":12214:12281   */\n      tag_265\n        /* \"#utility.yul\":12274:12280   */\n      dup3\n        /* \"#utility.yul\":12266:12272   */\n      dup3\n        /* \"#utility.yul\":12260:12264   */\n      dup6\n        /* \"#utility.yul\":12214:12281   */\n      tag_122\n      jump\t// in\n    tag_265:\n        /* \"#utility.yul\":12308:12309   */\n      0x00\n        /* \"#utility.yul\":12332:12336   */\n      0x20\n        /* \"#utility.yul\":12319:12336   */\n      swap1\n      pop\n        /* \"#utility.yul\":12364:12366   */\n      0x1f\n        /* \"#utility.yul\":12356:12362   */\n      dup4\n        /* \"#utility.yul\":12353:12367   */\n      gt\n        /* \"#utility.yul\":12381:12382   */\n      0x01\n        /* \"#utility.yul\":12376:12994   */\n      dup2\n      eq\n      tag_267\n      jumpi\n        /* \"#utility.yul\":13038:13039   */\n      0x00\n        /* \"#utility.yul\":13055:13061   */\n      dup5\n        /* \"#utility.yul\":13052:13129   */\n      iszero\n      tag_268\n      jumpi\n        /* \"#utility.yul\":13104:13113   */\n      dup3\n        /* \"#utility.yul\":13099:13102   */\n      dup8\n        /* \"#utility.yul\":13095:13114   */\n      add\n        /* \"#utility.yul\":13089:13115   */\n      mload\n        /* \"#utility.yul\":13080:13115   */\n      swap1\n      pop\n        /* \"#utility.yul\":13052:13129   */\n    tag_268:\n        /* \"#utility.yul\":13155:13222   */\n      tag_269\n        /* \"#utility.yul\":13215:13221   */\n      dup6\n        /* \"#utility.yul\":13208:13213   */\n      dup3\n        /* \"#utility.yul\":13155:13222   */\n      tag_125\n      jump\t// in\n    tag_269:\n        /* \"#utility.yul\":13149:13153   */\n      dup7\n        /* \"#utility.yul\":13142:13223   */\n      sstore\n        /* \"#utility.yul\":13011:13233   */\n      pop\n        /* \"#utility.yul\":12346:13233   */\n      jump(tag_266)\n        /* \"#utility.yul\":12376:12994   */\n    tag_267:\n        /* \"#utility.yul\":12428:12432   */\n      0x1f\n        /* \"#utility.yul\":12424:12433   */\n      not\n        /* \"#utility.yul\":12416:12422   */\n      dup5\n        /* \"#utility.yul\":12412:12434   */\n      and\n        /* \"#utility.yul\":12462:12499   */\n      tag_270\n        /* \"#utility.yul\":12494:12498   */\n      dup7\n        /* \"#utility.yul\":12462:12499   */\n      tag_111\n      jump\t// in\n    tag_270:\n        /* \"#utility.yul\":12521:12522   */\n      0x00\n        /* \"#utility.yul\":12535:12743   */\n    tag_271:\n        /* \"#utility.yul\":12549:12556   */\n      dup3\n        /* \"#utility.yul\":12546:12547   */\n      dup2\n        /* \"#utility.yul\":12543:12557   */\n      lt\n        /* \"#utility.yul\":12535:12743   */\n      iszero\n      tag_273\n      jumpi\n        /* \"#utility.yul\":12628:12637   */\n      dup5\n        /* \"#utility.yul\":12623:12626   */\n      dup10\n        /* \"#utility.yul\":12619:12638   */\n      add\n        /* \"#utility.yul\":12613:12639   */\n      mload\n        /* \"#utility.yul\":12605:12611   */\n      dup3\n        /* \"#utility.yul\":12598:12640   */\n      sstore\n        /* \"#utility.yul\":12679:12680   */\n      0x01\n        /* \"#utility.yul\":12671:12677   */\n      dup3\n        /* \"#utility.yul\":12667:12681   */\n      add\n        /* \"#utility.yul\":12657:12681   */\n      swap2\n      pop\n        /* \"#utility.yul\":12726:12728   */\n      0x20\n        /* \"#utility.yul\":12715:12724   */\n      dup6\n        /* \"#utility.yul\":12711:12729   */\n      add\n        /* \"#utility.yul\":12698:12729   */\n      swap5\n      pop\n        /* \"#utility.yul\":12572:12576   */\n      0x20\n        /* \"#utility.yul\":12569:12570   */\n      dup2\n        /* \"#utility.yul\":12565:12577   */\n      add\n        /* \"#utility.yul\":12560:12577   */\n      swap1\n      pop\n        /* \"#utility.yul\":12535:12743   */\n      jump(tag_271)\n    tag_273:\n        /* \"#utility.yul\":12771:12777   */\n      dup7\n        /* \"#utility.yul\":12762:12769   */\n      dup4\n        /* \"#utility.yul\":12759:12778   */\n      lt\n        /* \"#utility.yul\":12756:12935   */\n      iszero\n      tag_274\n      jumpi\n        /* \"#utility.yul\":12829:12838   */\n      dup5\n        /* \"#utility.yul\":12824:12827   */\n      dup10\n        /* \"#utility.yul\":12820:12839   */\n      add\n        /* \"#utility.yul\":12814:12840   */\n      mload\n        /* \"#utility.yul\":12872:12920   */\n      tag_275\n        /* \"#utility.yul\":12914:12918   */\n      0x1f\n        /* \"#utility.yul\":12906:12912   */\n      dup10\n        /* \"#utility.yul\":12902:12919   */\n      and\n        /* \"#utility.yul\":12891:12900   */\n      dup3\n        /* \"#utility.yul\":12872:12920   */\n      tag_124\n      jump\t// in\n    tag_275:\n        /* \"#utility.yul\":12864:12870   */\n      dup4\n        /* \"#utility.yul\":12857:12921   */\n      sstore\n        /* \"#utility.yul\":12779:12935   */\n      pop\n        /* \"#utility.yul\":12756:12935   */\n    tag_274:\n        /* \"#utility.yul\":12981:12982   */\n      0x01\n        /* \"#utility.yul\":12977:12978   */\n      0x02\n        /* \"#utility.yul\":12969:12975   */\n      dup9\n        /* \"#utility.yul\":12965:12979   */\n      mul\n        /* \"#utility.yul\":12961:12983   */\n      add\n        /* \"#utility.yul\":12955:12959   */\n      dup9\n        /* \"#utility.yul\":12948:12984   */\n      sstore\n        /* \"#utility.yul\":12383:12994   */\n      pop\n      pop\n      pop\n        /* \"#utility.yul\":12346:13233   */\n    tag_266:\n      pop\n        /* \"#utility.yul\":11936:13239   */\n      pop\n      pop\n      pop\n        /* \"#utility.yul\":11844:13239   */\n      pop\n      pop\n      jump\t// out\n        /* \"#utility.yul\":13245:13439   */\n    tag_45:\n        /* \"#utility.yul\":13285:13289   */\n      0x00\n        /* \"#utility.yul\":13305:13325   */\n      tag_277\n        /* \"#utility.yul\":13323:13324   */\n      dup3\n        /* \"#utility.yul\":13305:13325   */\n      tag_100\n      jump\t// in\n    tag_277:\n        /* \"#utility.yul\":13300:13325   */\n      swap2\n      pop\n        /* \"#utility.yul\":13339:13359   */\n      tag_278\n        /* \"#utility.yul\":13357:13358   */\n      dup4\n        /* \"#utility.yul\":13339:13359   */\n      tag_100\n      jump\t// in\n    tag_278:\n        /* \"#utility.yul\":13334:13359   */\n      swap3\n      pop\n        /* \"#utility.yul\":13383:13384   */\n      dup3\n        /* \"#utility.yul\":13380:13381   */\n      dup3\n        /* \"#utility.yul\":13376:13385   */\n      sub\n        /* \"#utility.yul\":13368:13385   */\n      swap1\n      pop\n        /* \"#utility.yul\":13407:13408   */\n      dup2\n        /* \"#utility.yul\":13401:13405   */\n      dup2\n        /* \"#utility.yul\":13398:13409   */\n      gt\n        /* \"#utility.yul\":13395:13432   */\n      iszero\n      tag_279\n      jumpi\n        /* \"#utility.yul\":13412:13430   */\n      tag_280\n      tag_107\n      jump\t// in\n    tag_280:\n        /* \"#utility.yul\":13395:13432   */\n    tag_279:\n        /* \"#utility.yul\":13245:13439   */\n      swap3\n      swap2\n      pop\n      pop\n      jump\t// out\n        /* \"#utility.yul\":13445:13978   */\n    tag_47:\n        /* \"#utility.yul\":13614:13618   */\n      0x00\n        /* \"#utility.yul\":13652:13654   */\n      0x60\n        /* \"#utility.yul\":13641:13650   */\n      dup3\n        /* \"#utility.yul\":13637:13655   */\n      add\n        /* \"#utility.yul\":13629:13655   */\n      swap1\n      pop\n        /* \"#utility.yul\":13701:13710   */\n      dup2\n        /* \"#utility.yul\":13695:13699   */\n      dup2\n        /* \"#utility.yul\":13691:13711   */\n      sub\n        /* \"#utility.yul\":13687:13688   */\n      0x00\n        /* \"#utility.yul\":13676:13685   */\n      dup4\n        /* \"#utility.yul\":13672:13689   */\n      add\n        /* \"#utility.yul\":13665:13712   */\n      mstore\n        /* \"#utility.yul\":13729:13807   */\n      tag_282\n        /* \"#utility.yul\":13802:13806   */\n      dup2\n        /* \"#utility.yul\":13793:13799   */\n      dup7\n        /* \"#utility.yul\":13729:13807   */\n      tag_99\n      jump\t// in\n    tag_282:\n        /* \"#utility.yul\":13721:13807   */\n      swap1\n      pop\n        /* \"#utility.yul\":13817:13889   */\n      tag_283\n        /* \"#utility.yul\":13885:13887   */\n      0x20\n        /* \"#utility.yul\":13874:13883   */\n      dup4\n        /* \"#utility.yul\":13870:13888   */\n      add\n        /* \"#utility.yul\":13861:13867   */\n      dup6\n        /* \"#utility.yul\":13817:13889   */\n      tag_101\n      jump\t// in\n    tag_283:\n        /* \"#utility.yul\":13899:13971   */\n      tag_284\n        /* \"#utility.yul\":13967:13969   */\n      0x40\n        /* \"#utility.yul\":13956:13965   */\n      dup4\n        /* \"#utility.yul\":13952:13970   */\n      add\n        /* \"#utility.yul\":13943:13949   */\n      dup5\n        /* \"#utility.yul\":13899:13971   */\n      tag_101\n      jump\t// in\n    tag_284:\n        /* \"#utility.yul\":13445:13978   */\n      swap5\n      swap4\n      pop\n      pop\n      pop\n      pop\n      jump\t// out\n        /* \"#utility.yul\":13984:14148   */\n    tag_126:\n        /* \"#utility.yul\":14124:14140   */\n      0x46696c65206e6f7420666f756e64000000000000000000000000000000000000\n        /* \"#utility.yul\":14120:14121   */\n      0x00\n        /* \"#utility.yul\":14112:14118   */\n      dup3\n        /* \"#utility.yul\":14108:14122   */\n      add\n        /* \"#utility.yul\":14101:14141   */\n      mstore\n        /* \"#utility.yul\":13984:14148   */\n      pop\n      jump\t// out\n        /* \"#utility.yul\":14154:14520   */\n    tag_127:\n        /* \"#utility.yul\":14296:14299   */\n      0x00\n        /* \"#utility.yul\":14317:14384   */\n      tag_287\n        /* \"#utility.yul\":14381:14383   */\n      0x0e\n        /* \"#utility.yul\":14376:14379   */\n      dup4\n        /* \"#utility.yul\":14317:14384   */\n      tag_97\n      jump\t// in\n    tag_287:\n        /* \"#utility.yul\":14310:14384   */\n      swap2\n      pop\n        /* \"#utility.yul\":14393:14486   */\n      tag_288\n        /* \"#utility.yul\":14482:14485   */\n      dup3\n        /* \"#utility.yul\":14393:14486   */\n      tag_126\n      jump\t// in\n    tag_288:\n        /* \"#utility.yul\":14511:14513   */\n      0x20\n        /* \"#utility.yul\":14506:14509   */\n      dup3\n        /* \"#utility.yul\":14502:14514   */\n      add\n        /* \"#utility.yul\":14495:14514   */\n      swap1\n      pop\n        /* \"#utility.yul\":14154:14520   */\n      swap2\n      swap1\n      pop\n      jump\t// out\n        /* \"#utility.yul\":14526:14945   */\n    tag_52:\n        /* \"#utility.yul\":14692:14696   */\n      0x00\n        /* \"#utility.yul\":14730:14732   */\n      0x20\n        /* \"#utility.yul\":14719:14728   */\n      dup3\n        /* \"#utility.yul\":14715:14733   */\n      add\n        /* \"#utility.yul\":14707:14733   */\n      swap1\n      pop\n        /* \"#utility.yul\":14779:14788   */\n      dup2\n        /* \"#utility.yul\":14773:14777   */\n      dup2\n        /* \"#utility.yul\":14769:14789   */\n      sub\n        /* \"#utility.yul\":14765:14766   */\n      0x00\n        /* \"#utility.yul\":14754:14763   */\n      dup4\n        /* \"#utility.yul\":14750:14767   */\n      add\n        /* \"#utility.yul\":14743:14790   */\n      mstore\n        /* \"#utility.yul\":14807:14938   */\n      tag_290\n        /* \"#utility.yul\":14933:14937   */\n      dup2\n        /* \"#utility.yul\":14807:14938   */\n      tag_127\n      jump\t// in\n    tag_290:\n        /* \"#utility.yul\":14799:14938   */\n      swap1\n      pop\n        /* \"#utility.yul\":14526:14945   */\n      swap2\n      swap1\n      pop\n      jump\t// out\n        /* \"#utility.yul\":14951:15113   */\n    tag_128:\n        /* \"#utility.yul\":15091:15105   */\n      0x556e617574686f72697a65640000000000000000000000000000000000000000\n        /* \"#utility.yul\":15087:15088   */\n      0x00\n        /* \"#utility.yul\":15079:15085   */\n      dup3\n        /* \"#utility.yul\":15075:15089   */\n      add\n        /* \"#utility.yul\":15068:15106   */\n      mstore\n        /* \"#utility.yul\":14951:15113   */\n      pop\n      jump\t// out\n        /* \"#utility.yul\":15119:15485   */\n    tag_129:\n        /* \"#utility.yul\":15261:15264   */\n      0x00\n        /* \"#utility.yul\":15282:15349   */\n      tag_293\n        /* \"#utility.yul\":15346:15348   */\n      0x0c\n        /* \"#utility.yul\":15341:15344   */\n      dup4\n        /* \"#utility.yul\":15282:15349   */\n      tag_97\n      jump\t// in\n    tag_293:\n        /* \"#utility.yul\":15275:15349   */\n      swap2\n      pop\n        /* \"#utility.yul\":15358:15451   */\n      tag_294\n        /* \"#utility.yul\":15447:15450   */\n      dup3\n        /* \"#utility.yul\":15358:15451   */\n      tag_128\n      jump\t// in\n    tag_294:\n        /* \"#utility.yul\":15476:15478   */\n      0x20\n        /* \"#utility.yul\":15471:15474   */\n      dup3\n        /* \"#utility.yul\":15467:15479   */\n      add\n        /* \"#utility.yul\":15460:15479   */\n      swap1\n      pop\n        /* \"#utility.yul\":15119:15485   */\n      swap2\n      swap1\n      pop\n      jump\t// out\n        /* \"#utility.yul\":15491:15910   */\n    tag_66:\n        /* \"#utility.yul\":15657:15661   */\n      0x00\n        /* \"#utility.yul\":15695:15697   */\n      0x20\n        /* \"#utility.yul\":15684:15693   */\n      dup3\n        /* \"#utility.yul\":15680:15698   */\n      add\n        /* \"#utility.yul\":15672:15698   */\n      swap1\n      pop\n        /* \"#utility.yul\":15744:15753   */\n      dup2\n        /* \"#utility.yul\":15738:15742   */\n      dup2\n        /* \"#utility.yul\":15734:15754   */\n      sub\n        /* \"#utility.yul\":15730:15731   */\n      0x00\n        /* \"#utility.yul\":15719:15728   */\n      dup4\n        /* \"#utility.yul\":15715:15732   */\n      add\n        /* \"#utility.yul\":15708:15755   */\n      mstore\n        /* \"#utility.yul\":15772:15903   */\n      tag_296\n        /* \"#utility.yul\":15898:15902   */\n      dup2\n        /* \"#utility.yul\":15772:15903   */\n      tag_129\n      jump\t// in\n    tag_296:\n        /* \"#utility.yul\":15764:15903   */\n      swap1\n      pop\n        /* \"#utility.yul\":15491:15910   */\n      swap2\n      swap1\n      pop\n      jump\t// out\n        /* \"#utility.yul\":15916:16107   */\n    tag_69:\n        /* \"#utility.yul\":15956:15959   */\n      0x00\n        /* \"#utility.yul\":15975:15995   */\n      tag_298\n        /* \"#utility.yul\":15993:15994   */\n      dup3\n        /* \"#utility.yul\":15975:15995   */\n      tag_100\n      jump\t// in\n    tag_298:\n        /* \"#utility.yul\":15970:15995   */\n      swap2\n      pop\n        /* \"#utility.yul\":16009:16029   */\n      tag_299\n        /* \"#utility.yul\":16027:16028   */\n      dup4\n        /* \"#utility.yul\":16009:16029   */\n      tag_100\n      jump\t// in\n    tag_299:\n        /* \"#utility.yul\":16004:16029   */\n      swap3\n      pop\n        /* \"#utility.yul\":16052:16053   */\n      dup3\n        /* \"#utility.yul\":16049:16050   */\n      dup3\n        /* \"#utility.yul\":16045:16054   */\n      add\n        /* \"#utility.yul\":16038:16054   */\n      swap1\n      pop\n        /* \"#utility.yul\":16073:16076   */\n      dup1\n        /* \"#utility.yul\":16070:16071   */\n      dup3\n        /* \"#utility.yul\":16067:16077   */\n      gt\n        /* \"#utility.yul\":16064:16100   */\n      iszero\n      tag_300\n      jumpi\n        /* \"#utility.yul\":16080:16098   */\n      tag_301\n      tag_107\n      jump\t// in\n    tag_301:\n        /* \"#utility.yul\":16064:16100   */\n    tag_300:\n        /* \"#utility.yul\":15916:16107   */\n      swap3\n      swap2\n      pop\n      pop\n      jump\t// out\n        /* \"#utility.yul\":16113:16536   */\n    tag_75:\n        /* \"#utility.yul\":16254:16258   */\n      0x00\n        /* \"#utility.yul\":16292:16294   */\n      0x40\n        /* \"#utility.yul\":16281:16290   */\n      dup3\n        /* \"#utility.yul\":16277:16295   */\n      add\n        /* \"#utility.yul\":16269:16295   */\n      swap1\n      pop\n        /* \"#utility.yul\":16341:16350   */\n      dup2\n        /* \"#utility.yul\":16335:16339   */\n      dup2\n        /* \"#utility.yul\":16331:16351   */\n      sub\n        /* \"#utility.yul\":16327:16328   */\n      0x00\n        /* \"#utility.yul\":16316:16325   */\n      dup4\n        /* \"#utility.yul\":16312:16329   */\n      add\n        /* \"#utility.yul\":16305:16352   */\n      mstore\n        /* \"#utility.yul\":16369:16447   */\n      tag_303\n        /* \"#utility.yul\":16442:16446   */\n      dup2\n        /* \"#utility.yul\":16433:16439   */\n      dup6\n        /* \"#utility.yul\":16369:16447   */\n      tag_99\n      jump\t// in\n    tag_303:\n        /* \"#utility.yul\":16361:16447   */\n      swap1\n      pop\n        /* \"#utility.yul\":16457:16529   */\n      tag_304\n        /* \"#utility.yul\":16525:16527   */\n      0x20\n        /* \"#utility.yul\":16514:16523   */\n      dup4\n        /* \"#utility.yul\":16510:16528   */\n      add\n        /* \"#utility.yul\":16501:16507   */\n      dup5\n        /* \"#utility.yul\":16457:16529   */\n      tag_101\n      jump\t// in\n    tag_304:\n        /* \"#utility.yul\":16113:16536   */\n      swap4\n      swap3\n      pop\n      pop\n      pop\n      jump\t// out\n\n    auxdata: 0xa2646970667358221220fd35d7f21331e72ffbf6f3d9b198c8dfc275ea96115a7a396920b5522bc417ba64736f6c63430008160033\n}\n",
				"bytecode": {
					"linkReferences": {},
					"object": "60806040526001600255348015610014575f80fd5b50604051611078380380611078833981810160405281019061003691906100b9565b335f806101000a81548173ffffffffffffffffffffffffffffffffffffffff021916908373ffffffffffffffffffffffffffffffffffffffff16021790555080600181905550506100e4565b5f80fd5b5f819050919050565b61009881610086565b81146100a2575f80fd5b50565b5f815190506100b38161008f565b92915050565b5f602082840312156100ce576100cd610082565b5b5f6100db848285016100a5565b91505092915050565b610f87806100f15f395ff3fe608060405234801561000f575f80fd5b5060043610610060575f3560e01c806320de1070146100645780632804401c146100805780635d0a3a19146100b05780638da5cb5b146100ce578063a9910054146100ec578063e973baec14610108575b5f80fd5b61007e600480360381019061007991906107dc565b610126565b005b61009a60048036038101906100959190610852565b6102a9565b6040516100a79190610913565b60405180910390f35b6100b86103b1565b6040516100c5919061094b565b60405180910390f35b6100d66103b7565b6040516100e391906109a3565b60405180910390f35b61010660048036038101906101019190610852565b6103da565b005b610110610631565b60405161011d919061094b565b60405180910390f35b5f81519050806001541015610170576040517f08c379a000000000000000000000000000000000000000000000000000000000815260040161016790610a06565b60405180910390fd5b5f60025f81548092919061018390610a51565b9190505590508060038560405161019a9190610ad2565b90815260200160405180910390208190555060405180604001604052808481526020018581525060045f8381526020019081526020015f205f820151815f0190816101e59190610ce2565b5060208201518160010190816101fb9190610ce2565b509050503360055f8381526020019081526020015f205f6101000a81548173ffffffffffffffffffffffffffffffffffffffff021916908373ffffffffffffffffffffffffffffffffffffffff1602179055508160015f82825461025f9190610db1565b925050819055507fb124bd46c5501ef604216ceeff17be6e3badf75e294713b623e3300bfb250ae6848260015460405161029b93929190610de4565b60405180910390a150505050565b60605f6003836040516102bc9190610ad2565b90815260200160405180910390205490505f810361030f576040517f08c379a000000000000000000000000000000000000000000000000000000000815260040161030690610e6a565b60405180910390fd5b60045f8281526020019081526020015f205f01805461032d90610b15565b80601f016020809104026020016040519081016040528092919081815260200182805461035990610b15565b80156103a45780601f1061037b576101008083540402835291602001916103a4565b820191905f5260205f20905b81548152906001019060200180831161038757829003601f168201915b5050505050915050919050565b60025481565b5f8054906101000a900473ffffffffffffffffffffffffffffffffffffffff1681565b5f6003826040516103eb9190610ad2565b90815260200160405180910390205490505f810361043e576040517f08c379a000000000000000000000000000000000000000000000000000000000815260040161043590610e6a565b60405180910390fd5b3373ffffffffffffffffffffffffffffffffffffffff1660055f8381526020019081526020015f205f9054906101000a900473ffffffffffffffffffffffffffffffffffffffff1673ffffffffffffffffffffffffffffffffffffffff1614806104f257505f8054906101000a900473ffffffffffffffffffffffffffffffffffffffff1673ffffffffffffffffffffffffffffffffffffffff163373ffffffffffffffffffffffffffffffffffffffff16145b610531576040517f08c379a000000000000000000000000000000000000000000000000000000000815260040161052890610ed2565b60405180910390fd5b5f60045f8381526020019081526020015f205f01805461055090610b15565b905090508060015f8282546105659190610ef0565b9250508190555060038360405161057c9190610ad2565b90815260200160405180910390205f905560045f8381526020019081526020015f205f8082015f6105ad9190610637565b600182015f6105bc9190610637565b505060055f8381526020019081526020015f205f6101000a81549073ffffffffffffffffffffffffffffffffffffffff02191690557f1d90f125aa2dafe5bccedd272f61825d61b1b65c76e6a8dc4b7e3d8a26a7a5df83600154604051610624929190610f23565b60405180910390a1505050565b60015481565b50805461064390610b15565b5f825580601f106106545750610671565b601f0160209004905f5260205f20908101906106709190610674565b5b50565b5b8082111561068b575f815f905550600101610675565b5090565b5f604051905090565b5f80fd5b5f80fd5b5f80fd5b5f80fd5b5f601f19601f8301169050919050565b7f4e487b71000000000000000000000000000000000000000000000000000000005f52604160045260245ffd5b6106ee826106a8565b810181811067ffffffffffffffff8211171561070d5761070c6106b8565b5b80604052505050565b5f61071f61068f565b905061072b82826106e5565b919050565b5f67ffffffffffffffff82111561074a576107496106b8565b5b610753826106a8565b9050602081019050919050565b828183375f83830152505050565b5f61078061077b84610730565b610716565b90508281526020810184848401111561079c5761079b6106a4565b5b6107a7848285610760565b509392505050565b5f82601f8301126107c3576107c26106a0565b5b81356107d384826020860161076e565b91505092915050565b5f80604083850312156107f2576107f1610698565b5b5f83013567ffffffffffffffff81111561080f5761080e61069c565b5b61081b858286016107af565b925050602083013567ffffffffffffffff81111561083c5761083b61069c565b5b610848858286016107af565b9150509250929050565b5f6020828403121561086757610866610698565b5b5f82013567ffffffffffffffff8111156108845761088361069c565b5b610890848285016107af565b91505092915050565b5f81519050919050565b5f82825260208201905092915050565b5f5b838110156108d05780820151818401526020810190506108b5565b5f8484015250505050565b5f6108e582610899565b6108ef81856108a3565b93506108ff8185602086016108b3565b610908816106a8565b840191505092915050565b5f6020820190508181035f83015261092b81846108db565b905092915050565b5f819050919050565b61094581610933565b82525050565b5f60208201905061095e5f83018461093c565b92915050565b5f73ffffffffffffffffffffffffffffffffffffffff82169050919050565b5f61098d82610964565b9050919050565b61099d81610983565b82525050565b5f6020820190506109b65f830184610994565b92915050565b7f4e6f2073746f7261676520617661696c61626c650000000000000000000000005f82015250565b5f6109f06014836108a3565b91506109fb826109bc565b602082019050919050565b5f6020820190508181035f830152610a1d816109e4565b9050919050565b7f4e487b71000000000000000000000000000000000000000000000000000000005f52601160045260245ffd5b5f610a5b82610933565b91507fffffffffffffffffffffffffffffffffffffffffffffffffffffffffffffffff8203610a8d57610a8c610a24565b5b600182019050919050565b5f81905092915050565b5f610aac82610899565b610ab68185610a98565b9350610ac68185602086016108b3565b80840191505092915050565b5f610add8284610aa2565b915081905092915050565b7f4e487b71000000000000000000000000000000000000000000000000000000005f52602260045260245ffd5b5f6002820490506001821680610b2c57607f821691505b602082108103610b3f57610b3e610ae8565b5b50919050565b5f819050815f5260205f209050919050565b5f6020601f8301049050919050565b5f82821b905092915050565b5f60088302610ba17fffffffffffffffffffffffffffffffffffffffffffffffffffffffffffffffff82610b66565b610bab8683610b66565b95508019841693508086168417925050509392505050565b5f819050919050565b5f610be6610be1610bdc84610933565b610bc3565b610933565b9050919050565b5f819050919050565b610bff83610bcc565b610c13610c0b82610bed565b848454610b72565b825550505050565b5f90565b610c27610c1b565b610c32818484610bf6565b505050565b5b81811015610c5557610c4a5f82610c1f565b600181019050610c38565b5050565b601f821115610c9a57610c6b81610b45565b610c7484610b57565b81016020851015610c83578190505b610c97610c8f85610b57565b830182610c37565b50505b505050565b5f82821c905092915050565b5f610cba5f1984600802610c9f565b1980831691505092915050565b5f610cd28383610cab565b9150826002028217905092915050565b610ceb82610899565b67ffffffffffffffff811115610d0457610d036106b8565b5b610d0e8254610b15565b610d19828285610c59565b5f60209050601f831160018114610d4a575f8415610d38578287015190505b610d428582610cc7565b865550610da9565b601f198416610d5886610b45565b5f5b82811015610d7f57848901518255600182019150602085019450602081019050610d5a565b86831015610d9c5784890151610d98601f891682610cab565b8355505b6001600288020188555050505b505050505050565b5f610dbb82610933565b9150610dc683610933565b9250828203905081811115610dde57610ddd610a24565b5b92915050565b5f6060820190508181035f830152610dfc81866108db565b9050610e0b602083018561093c565b610e18604083018461093c565b949350505050565b7f46696c65206e6f7420666f756e640000000000000000000000000000000000005f82015250565b5f610e54600e836108a3565b9150610e5f82610e20565b602082019050919050565b5f6020820190508181035f830152610e8181610e48565b9050919050565b7f556e617574686f72697a656400000000000000000000000000000000000000005f82015250565b5f610ebc600c836108a3565b9150610ec782610e88565b602082019050919050565b5f6020820190508181035f830152610ee981610eb0565b9050919050565b5f610efa82610933565b9150610f0583610933565b9250828201905080821115610f1d57610f1c610a24565b5b92915050565b5f6040820190508181035f830152610f3b81856108db565b9050610f4a602083018461093c565b939250505056fea2646970667358221220fd35d7f21331e72ffbf6f3d9b198c8dfc275ea96115a7a396920b5522bc417ba64736f6c63430008160033",
					"opcodes": "PUSH1 0x80 PUSH1 0x40 MSTORE PUSH1 0x1 PUSH1 0x2 SSTORE CALLVALUE DUP1 ISZERO PUSH2 0x14 JUMPI PUSH0 DUP1 REVERT JUMPDEST POP PUSH1 0x40 MLOAD PUSH2 0x1078 CODESIZE SUB DUP1 PUSH2 0x1078 DUP4 CODECOPY DUP2 DUP2 ADD PUSH1 0x40 MSTORE DUP2 ADD SWAP1 PUSH2 0x36 SWAP2 SWAP1 PUSH2 0xB9 JUMP JUMPDEST CALLER PUSH0 DUP1 PUSH2 0x100 EXP DUP2 SLOAD DUP2 PUSH20 0xFFFFFFFFFFFFFFFFFFFFFFFFFFFFFFFFFFFFFFFF MUL NOT AND SWAP1 DUP4 PUSH20 0xFFFFFFFFFFFFFFFFFFFFFFFFFFFFFFFFFFFFFFFF AND MUL OR SWAP1 SSTORE POP DUP1 PUSH1 0x1 DUP2 SWAP1 SSTORE POP POP PUSH2 0xE4 JUMP JUMPDEST PUSH0 DUP1 REVERT JUMPDEST PUSH0 DUP2 SWAP1 POP SWAP2 SWAP1 POP JUMP JUMPDEST PUSH2 0x98 DUP2 PUSH2 0x86 JUMP JUMPDEST DUP2 EQ PUSH2 0xA2 JUMPI PUSH0 DUP1 REVERT JUMPDEST POP JUMP JUMPDEST PUSH0 DUP2 MLOAD SWAP1 POP PUSH2 0xB3 DUP2 PUSH2 0x8F JUMP JUMPDEST SWAP3 SWAP2 POP POP JUMP JUMPDEST PUSH0 PUSH1 0x20 DUP3 DUP5 SUB SLT ISZERO PUSH2 0xCE JUMPI PUSH2 0xCD PUSH2 0x82 JUMP JUMPDEST JUMPDEST PUSH0 PUSH2 0xDB DUP5 DUP3 DUP6 ADD PUSH2 0xA5 JUMP JUMPDEST SWAP2 POP POP SWAP3 SWAP2 POP POP JUMP JUMPDEST PUSH2 0xF87 DUP1 PUSH2 0xF1 PUSH0 CODECOPY PUSH0 RETURN INVALID PUSH1 0x80 PUSH1 0x40 MSTORE CALLVALUE DUP1 ISZERO PUSH2 0xF JUMPI PUSH0 DUP1 REVERT JUMPDEST POP PUSH1 0x4 CALLDATASIZE LT PUSH2 0x60 JUMPI PUSH0 CALLDATALOAD PUSH1 0xE0 SHR DUP1 PUSH4 0x20DE1070 EQ PUSH2 0x64 JUMPI DUP1 PUSH4 0x2804401C EQ PUSH2 0x80 JUMPI DUP1 PUSH4 0x5D0A3A19 EQ PUSH2 0xB0 JUMPI DUP1 PUSH4 0x8DA5CB5B EQ PUSH2 0xCE JUMPI DUP1 PUSH4 0xA9910054 EQ PUSH2 0xEC JUMPI DUP1 PUSH4 0xE973BAEC EQ PUSH2 0x108 JUMPI JUMPDEST PUSH0 DUP1 REVERT JUMPDEST PUSH2 0x7E PUSH1 0x4 DUP1 CALLDATASIZE SUB DUP2 ADD SWAP1 PUSH2 0x79 SWAP2 SWAP1 PUSH2 0x7DC JUMP JUMPDEST PUSH2 0x126 JUMP JUMPDEST STOP JUMPDEST PUSH2 0x9A PUSH1 0x4 DUP1 CALLDATASIZE SUB DUP2 ADD SWAP1 PUSH2 0x95 SWAP2 SWAP1 PUSH2 0x852 JUMP JUMPDEST PUSH2 0x2A9 JUMP JUMPDEST PUSH1 0x40 MLOAD PUSH2 0xA7 SWAP2 SWAP1 PUSH2 0x913 JUMP JUMPDEST PUSH1 0x40 MLOAD DUP1 SWAP2 SUB SWAP1 RETURN JUMPDEST PUSH2 0xB8 PUSH2 0x3B1 JUMP JUMPDEST PUSH1 0x40 MLOAD PUSH2 0xC5 SWAP2 SWAP1 PUSH2 0x94B JUMP JUMPDEST PUSH1 0x40 MLOAD DUP1 SWAP2 SUB SWAP1 RETURN JUMPDEST PUSH2 0xD6 PUSH2 0x3B7 JUMP JUMPDEST PUSH1 0x40 MLOAD PUSH2 0xE3 SWAP2 SWAP1 PUSH2 0x9A3 JUMP JUMPDEST PUSH1 0x40 MLOAD DUP1 SWAP2 SUB SWAP1 RETURN JUMPDEST PUSH2 0x106 PUSH1 0x4 DUP1 CALLDATASIZE SUB DUP2 ADD SWAP1 PUSH2 0x101 SWAP2 SWAP1 PUSH2 0x852 JUMP JUMPDEST PUSH2 0x3DA JUMP JUMPDEST STOP JUMPDEST PUSH2 0x110 PUSH2 0x631 JUMP JUMPDEST PUSH1 0x40 MLOAD PUSH2 0x11D SWAP2 SWAP1 PUSH2 0x94B JUMP JUMPDEST PUSH1 0x40 MLOAD DUP1 SWAP2 SUB SWAP1 RETURN JUMPDEST PUSH0 DUP2 MLOAD SWAP1 POP DUP1 PUSH1 0x1 SLOAD LT ISZERO PUSH2 0x170 JUMPI PUSH1 0x40 MLOAD PUSH32 0x8C379A000000000000000000000000000000000000000000000000000000000 DUP2 MSTORE PUSH1 0x4 ADD PUSH2 0x167 SWAP1 PUSH2 0xA06 JUMP JUMPDEST PUSH1 0x40 MLOAD DUP1 SWAP2 SUB SWAP1 REVERT JUMPDEST PUSH0 PUSH1 0x2 PUSH0 DUP2 SLOAD DUP1 SWAP3 SWAP2 SWAP1 PUSH2 0x183 SWAP1 PUSH2 0xA51 JUMP JUMPDEST SWAP2 SWAP1 POP SSTORE SWAP1 POP DUP1 PUSH1 0x3 DUP6 PUSH1 0x40 MLOAD PUSH2 0x19A SWAP2 SWAP1 PUSH2 0xAD2 JUMP JUMPDEST SWAP1 DUP2 MSTORE PUSH1 0x20 ADD PUSH1 0x40 MLOAD DUP1 SWAP2 SUB SWAP1 KECCAK256 DUP2 SWAP1 SSTORE POP PUSH1 0x40 MLOAD DUP1 PUSH1 0x40 ADD PUSH1 0x40 MSTORE DUP1 DUP5 DUP2 MSTORE PUSH1 0x20 ADD DUP6 DUP2 MSTORE POP PUSH1 0x4 PUSH0 DUP4 DUP2 MSTORE PUSH1 0x20 ADD SWAP1 DUP2 MSTORE PUSH1 0x20 ADD PUSH0 KECCAK256 PUSH0 DUP3 ADD MLOAD DUP2 PUSH0 ADD SWAP1 DUP2 PUSH2 0x1E5 SWAP2 SWAP1 PUSH2 0xCE2 JUMP JUMPDEST POP PUSH1 0x20 DUP3 ADD MLOAD DUP2 PUSH1 0x1 ADD SWAP1 DUP2 PUSH2 0x1FB SWAP2 SWAP1 PUSH2 0xCE2 JUMP JUMPDEST POP SWAP1 POP POP CALLER PUSH1 0x5 PUSH0 DUP4 DUP2 MSTORE PUSH1 0x20 ADD SWAP1 DUP2 MSTORE PUSH1 0x20 ADD PUSH0 KECCAK256 PUSH0 PUSH2 0x100 EXP DUP2 SLOAD DUP2 PUSH20 0xFFFFFFFFFFFFFFFFFFFFFFFFFFFFFFFFFFFFFFFF MUL NOT AND SWAP1 DUP4 PUSH20 0xFFFFFFFFFFFFFFFFFFFFFFFFFFFFFFFFFFFFFFFF AND MUL OR SWAP1 SSTORE POP DUP2 PUSH1 0x1 PUSH0 DUP3 DUP3 SLOAD PUSH2 0x25F SWAP2 SWAP1 PUSH2 0xDB1 JUMP JUMPDEST SWAP3 POP POP DUP2 SWAP1 SSTORE POP PUSH32 0xB124BD46C5501EF604216CEEFF17BE6E3BADF75E294713B623E3300BFB250AE6 DUP5 DUP3 PUSH1 0x1 SLOAD PUSH1 0x40 MLOAD PUSH2 0x29B SWAP4 SWAP3 SWAP2 SWAP1 PUSH2 0xDE4 JUMP JUMPDEST PUSH1 0x40 MLOAD DUP1 SWAP2 SUB SWAP1 LOG1 POP POP POP POP JUMP JUMPDEST PUSH1 0x60 PUSH0 PUSH1 0x3 DUP4 PUSH1 0x40 MLOAD PUSH2 0x2BC SWAP2 SWAP1 PUSH2 0xAD2 JUMP JUMPDEST SWAP1 DUP2 MSTORE PUSH1 0x20 ADD PUSH1 0x40 MLOAD DUP1 SWAP2 SUB SWAP1 KECCAK256 SLOAD SWAP1 POP PUSH0 DUP2 SUB PUSH2 0x30F JUMPI PUSH1 0x40 MLOAD PUSH32 0x8C379A000000000000000000000000000000000000000000000000000000000 DUP2 MSTORE PUSH1 0x4 ADD PUSH2 0x306 SWAP1 PUSH2 0xE6A JUMP JUMPDEST PUSH1 0x40 MLOAD DUP1 SWAP2 SUB SWAP1 REVERT JUMPDEST PUSH1 0x4 PUSH0 DUP3 DUP2 MSTORE PUSH1 0x20 ADD SWAP1 DUP2 MSTORE PUSH1 0x20 ADD PUSH0 KECCAK256 PUSH0 ADD DUP1 SLOAD PUSH2 0x32D SWAP1 PUSH2 0xB15 JUMP JUMPDEST DUP1 PUSH1 0x1F ADD PUSH1 0x20 DUP1 SWAP2 DIV MUL PUSH1 0x20 ADD PUSH1 0x40 MLOAD SWAP1 DUP2 ADD PUSH1 0x40 MSTORE DUP1 SWAP3 SWAP2 SWAP1 DUP2 DUP2 MSTORE PUSH1 0x20 ADD DUP3 DUP1 SLOAD PUSH2 0x359 SWAP1 PUSH2 0xB15 JUMP JUMPDEST DUP1 ISZERO PUSH2 0x3A4 JUMPI DUP1 PUSH1 0x1F LT PUSH2 0x37B JUMPI PUSH2 0x100 DUP1 DUP4 SLOAD DIV MUL DUP4 MSTORE SWAP2 PUSH1 0x20 ADD SWAP2 PUSH2 0x3A4 JUMP JUMPDEST DUP3 ADD SWAP2 SWAP1 PUSH0 MSTORE PUSH1 0x20 PUSH0 KECCAK256 SWAP1 JUMPDEST DUP2 SLOAD DUP2 MSTORE SWAP1 PUSH1 0x1 ADD SWAP1 PUSH1 0x20 ADD DUP1 DUP4 GT PUSH2 0x387 JUMPI DUP3 SWAP1 SUB PUSH1 0x1F AND DUP3 ADD SWAP2 JUMPDEST POP POP POP POP POP SWAP2 POP POP SWAP2 SWAP1 POP JUMP JUMPDEST PUSH1 0x2 SLOAD DUP2 JUMP JUMPDEST PUSH0 DUP1 SLOAD SWAP1 PUSH2 0x100 EXP SWAP1 DIV PUSH20 0xFFFFFFFFFFFFFFFFFFFFFFFFFFFFFFFFFFFFFFFF AND DUP2 JUMP JUMPDEST PUSH0 PUSH1 0x3 DUP3 PUSH1 0x40 MLOAD PUSH2 0x3EB SWAP2 SWAP1 PUSH2 0xAD2 JUMP JUMPDEST SWAP1 DUP2 MSTORE PUSH1 0x20 ADD PUSH1 0x40 MLOAD DUP1 SWAP2 SUB SWAP1 KECCAK256 SLOAD SWAP1 POP PUSH0 DUP2 SUB PUSH2 0x43E JUMPI PUSH1 0x40 MLOAD PUSH32 0x8C379A000000000000000000000000000000000000000000000000000000000 DUP2 MSTORE PUSH1 0x4 ADD PUSH2 0x435 SWAP1 PUSH2 0xE6A JUMP JUMPDEST PUSH1 0x40 MLOAD DUP1 SWAP2 SUB SWAP1 REVERT JUMPDEST CALLER PUSH20 0xFFFFFFFFFFFFFFFFFFFFFFFFFFFFFFFFFFFFFFFF AND PUSH1 0x5 PUSH0 DUP4 DUP2 MSTORE PUSH1 0x20 ADD SWAP1 DUP2 MSTORE PUSH1 0x20 ADD PUSH0 KECCAK256 PUSH0 SWAP1 SLOAD SWAP1 PUSH2 0x100 EXP SWAP1 DIV PUSH20 0xFFFFFFFFFFFFFFFFFFFFFFFFFFFFFFFFFFFFFFFF AND PUSH20 0xFFFFFFFFFFFFFFFFFFFFFFFFFFFFFFFFFFFFFFFF AND EQ DUP1 PUSH2 0x4F2 JUMPI POP PUSH0 DUP1 SLOAD SWAP1 PUSH2 0x100 EXP SWAP1 DIV PUSH20 0xFFFFFFFFFFFFFFFFFFFFFFFFFFFFFFFFFFFFFFFF AND PUSH20 0xFFFFFFFFFFFFFFFFFFFFFFFFFFFFFFFFFFFFFFFF AND CALLER PUSH20 0xFFFFFFFFFFFFFFFFFFFFFFFFFFFFFFFFFFFFFFFF AND EQ JUMPDEST PUSH2 0x531 JUMPI PUSH1 0x40 MLOAD PUSH32 0x8C379A000000000000000000000000000000000000000000000000000000000 DUP2 MSTORE PUSH1 0x4 ADD PUSH2 0x528 SWAP1 PUSH2 0xED2 JUMP JUMPDEST PUSH1 0x40 MLOAD DUP1 SWAP2 SUB SWAP1 REVERT JUMPDEST PUSH0 PUSH1 0x4 PUSH0 DUP4 DUP2 MSTORE PUSH1 0x20 ADD SWAP1 DUP2 MSTORE PUSH1 0x20 ADD PUSH0 KECCAK256 PUSH0 ADD DUP1 SLOAD PUSH2 0x550 SWAP1 PUSH2 0xB15 JUMP JUMPDEST SWAP1 POP SWAP1 POP DUP1 PUSH1 0x1 PUSH0 DUP3 DUP3 SLOAD PUSH2 0x565 SWAP2 SWAP1 PUSH2 0xEF0 JUMP JUMPDEST SWAP3 POP POP DUP2 SWAP1 SSTORE POP PUSH1 0x3 DUP4 PUSH1 0x40 MLOAD PUSH2 0x57C SWAP2 SWAP1 PUSH2 0xAD2 JUMP JUMPDEST SWAP1 DUP2 MSTORE PUSH1 0x20 ADD PUSH1 0x40 MLOAD DUP1 SWAP2 SUB SWAP1 KECCAK256 PUSH0 SWAP1 SSTORE PUSH1 0x4 PUSH0 DUP4 DUP2 MSTORE PUSH1 0x20 ADD SWAP1 DUP2 MSTORE PUSH1 0x20 ADD PUSH0 KECCAK256 PUSH0 DUP1 DUP3 ADD PUSH0 PUSH2 0x5AD SWAP2 SWAP1 PUSH2 0x637 JUMP JUMPDEST PUSH1 0x1 DUP3 ADD PUSH0 PUSH2 0x5BC SWAP2 SWAP1 PUSH2 0x637 JUMP JUMPDEST POP POP PUSH1 0x5 PUSH0 DUP4 DUP2 MSTORE PUSH1 0x20 ADD SWAP1 DUP2 MSTORE PUSH1 0x20 ADD PUSH0 KECCAK256 PUSH0 PUSH2 0x100 EXP DUP2 SLOAD SWAP1 PUSH20 0xFFFFFFFFFFFFFFFFFFFFFFFFFFFFFFFFFFFFFFFF MUL NOT AND SWAP1 SSTORE PUSH32 0x1D90F125AA2DAFE5BCCEDD272F61825D61B1B65C76E6A8DC4B7E3D8A26A7A5DF DUP4 PUSH1 0x1 SLOAD PUSH1 0x40 MLOAD PUSH2 0x624 SWAP3 SWAP2 SWAP1 PUSH2 0xF23 JUMP JUMPDEST PUSH1 0x40 MLOAD DUP1 SWAP2 SUB SWAP1 LOG1 POP POP POP JUMP JUMPDEST PUSH1 0x1 SLOAD DUP2 JUMP JUMPDEST POP DUP1 SLOAD PUSH2 0x643 SWAP1 PUSH2 0xB15 JUMP JUMPDEST PUSH0 DUP3 SSTORE DUP1 PUSH1 0x1F LT PUSH2 0x654 JUMPI POP PUSH2 0x671 JUMP JUMPDEST PUSH1 0x1F ADD PUSH1 0x20 SWAP1 DIV SWAP1 PUSH0 MSTORE PUSH1 0x20 PUSH0 KECCAK256 SWAP1 DUP2 ADD SWAP1 PUSH2 0x670 SWAP2 SWAP1 PUSH2 0x674 JUMP JUMPDEST JUMPDEST POP JUMP JUMPDEST JUMPDEST DUP1 DUP3 GT ISZERO PUSH2 0x68B JUMPI PUSH0 DUP2 PUSH0 SWAP1 SSTORE POP PUSH1 0x1 ADD PUSH2 0x675 JUMP JUMPDEST POP SWAP1 JUMP JUMPDEST PUSH0 PUSH1 0x40 MLOAD SWAP1 POP SWAP1 JUMP JUMPDEST PUSH0 DUP1 REVERT JUMPDEST PUSH0 DUP1 REVERT JUMPDEST PUSH0 DUP1 REVERT JUMPDEST PUSH0 DUP1 REVERT JUMPDEST PUSH0 PUSH1 0x1F NOT PUSH1 0x1F DUP4 ADD AND SWAP1 POP SWAP2 SWAP1 POP JUMP JUMPDEST PUSH32 0x4E487B7100000000000000000000000000000000000000000000000000000000 PUSH0 MSTORE PUSH1 0x41 PUSH1 0x4 MSTORE PUSH1 0x24 PUSH0 REVERT JUMPDEST PUSH2 0x6EE DUP3 PUSH2 0x6A8 JUMP JUMPDEST DUP2 ADD DUP2 DUP2 LT PUSH8 0xFFFFFFFFFFFFFFFF DUP3 GT OR ISZERO PUSH2 0x70D JUMPI PUSH2 0x70C PUSH2 0x6B8 JUMP JUMPDEST JUMPDEST DUP1 PUSH1 0x40 MSTORE POP POP POP JUMP JUMPDEST PUSH0 PUSH2 0x71F PUSH2 0x68F JUMP JUMPDEST SWAP1 POP PUSH2 0x72B DUP3 DUP3 PUSH2 0x6E5 JUMP JUMPDEST SWAP2 SWAP1 POP JUMP JUMPDEST PUSH0 PUSH8 0xFFFFFFFFFFFFFFFF DUP3 GT ISZERO PUSH2 0x74A JUMPI PUSH2 0x749 PUSH2 0x6B8 JUMP JUMPDEST JUMPDEST PUSH2 0x753 DUP3 PUSH2 0x6A8 JUMP JUMPDEST SWAP1 POP PUSH1 0x20 DUP2 ADD SWAP1 POP SWAP2 SWAP1 POP JUMP JUMPDEST DUP3 DUP2 DUP4 CALLDATACOPY PUSH0 DUP4 DUP4 ADD MSTORE POP POP POP JUMP JUMPDEST PUSH0 PUSH2 0x780 PUSH2 0x77B DUP5 PUSH2 0x730 JUMP JUMPDEST PUSH2 0x716 JUMP JUMPDEST SWAP1 POP DUP3 DUP2 MSTORE PUSH1 0x20 DUP2 ADD DUP5 DUP5 DUP5 ADD GT ISZERO PUSH2 0x79C JUMPI PUSH2 0x79B PUSH2 0x6A4 JUMP JUMPDEST JUMPDEST PUSH2 0x7A7 DUP5 DUP3 DUP6 PUSH2 0x760 JUMP JUMPDEST POP SWAP4 SWAP3 POP POP POP JUMP JUMPDEST PUSH0 DUP3 PUSH1 0x1F DUP4 ADD SLT PUSH2 0x7C3 JUMPI PUSH2 0x7C2 PUSH2 0x6A0 JUMP JUMPDEST JUMPDEST DUP2 CALLDATALOAD PUSH2 0x7D3 DUP5 DUP3 PUSH1 0x20 DUP7 ADD PUSH2 0x76E JUMP JUMPDEST SWAP2 POP POP SWAP3 SWAP2 POP POP JUMP JUMPDEST PUSH0 DUP1 PUSH1 0x40 DUP4 DUP6 SUB SLT ISZERO PUSH2 0x7F2 JUMPI PUSH2 0x7F1 PUSH2 0x698 JUMP JUMPDEST JUMPDEST PUSH0 DUP4 ADD CALLDATALOAD PUSH8 0xFFFFFFFFFFFFFFFF DUP2 GT ISZERO PUSH2 0x80F JUMPI PUSH2 0x80E PUSH2 0x69C JUMP JUMPDEST JUMPDEST PUSH2 0x81B DUP6 DUP3 DUP7 ADD PUSH2 0x7AF JUMP JUMPDEST SWAP3 POP POP PUSH1 0x20 DUP4 ADD CALLDATALOAD PUSH8 0xFFFFFFFFFFFFFFFF DUP2 GT ISZERO PUSH2 0x83C JUMPI PUSH2 0x83B PUSH2 0x69C JUMP JUMPDEST JUMPDEST PUSH2 0x848 DUP6 DUP3 DUP7 ADD PUSH2 0x7AF JUMP JUMPDEST SWAP2 POP POP SWAP3 POP SWAP3 SWAP1 POP JUMP JUMPDEST PUSH0 PUSH1 0x20 DUP3 DUP5 SUB SLT ISZERO PUSH2 0x867 JUMPI PUSH2 0x866 PUSH2 0x698 JUMP JUMPDEST JUMPDEST PUSH0 DUP3 ADD CALLDATALOAD PUSH8 0xFFFFFFFFFFFFFFFF DUP2 GT ISZERO PUSH2 0x884 JUMPI PUSH2 0x883 PUSH2 0x69C JUMP JUMPDEST JUMPDEST PUSH2 0x890 DUP5 DUP3 DUP6 ADD PUSH2 0x7AF JUMP JUMPDEST SWAP2 POP POP SWAP3 SWAP2 POP POP JUMP JUMPDEST PUSH0 DUP2 MLOAD SWAP1 POP SWAP2 SWAP1 POP JUMP JUMPDEST PUSH0 DUP3 DUP3 MSTORE PUSH1 0x20 DUP3 ADD SWAP1 POP SWAP3 SWAP2 POP POP JUMP JUMPDEST PUSH0 JUMPDEST DUP4 DUP2 LT ISZERO PUSH2 0x8D0 JUMPI DUP1 DUP3 ADD MLOAD DUP2 DUP5 ADD MSTORE PUSH1 0x20 DUP2 ADD SWAP1 POP PUSH2 0x8B5 JUMP JUMPDEST PUSH0 DUP5 DUP5 ADD MSTORE POP POP POP POP JUMP JUMPDEST PUSH0 PUSH2 0x8E5 DUP3 PUSH2 0x899 JUMP JUMPDEST PUSH2 0x8EF DUP2 DUP6 PUSH2 0x8A3 JUMP JUMPDEST SWAP4 POP PUSH2 0x8FF DUP2 DUP6 PUSH1 0x20 DUP7 ADD PUSH2 0x8B3 JUMP JUMPDEST PUSH2 0x908 DUP2 PUSH2 0x6A8 JUMP JUMPDEST DUP5 ADD SWAP2 POP POP SWAP3 SWAP2 POP POP JUMP JUMPDEST PUSH0 PUSH1 0x20 DUP3 ADD SWAP1 POP DUP2 DUP2 SUB PUSH0 DUP4 ADD MSTORE PUSH2 0x92B DUP2 DUP5 PUSH2 0x8DB JUMP JUMPDEST SWAP1 POP SWAP3 SWAP2 POP POP JUMP JUMPDEST PUSH0 DUP2 SWAP1 POP SWAP2 SWAP1 POP JUMP JUMPDEST PUSH2 0x945 DUP2 PUSH2 0x933 JUMP JUMPDEST DUP3 MSTORE POP POP JUMP JUMPDEST PUSH0 PUSH1 0x20 DUP3 ADD SWAP1 POP PUSH2 0x95E PUSH0 DUP4 ADD DUP5 PUSH2 0x93C JUMP JUMPDEST SWAP3 SWAP2 POP POP JUMP JUMPDEST PUSH0 PUSH20 0xFFFFFFFFFFFFFFFFFFFFFFFFFFFFFFFFFFFFFFFF DUP3 AND SWAP1 POP SWAP2 SWAP1 POP JUMP JUMPDEST PUSH0 PUSH2 0x98D DUP3 PUSH2 0x964 JUMP JUMPDEST SWAP1 POP SWAP2 SWAP1 POP JUMP JUMPDEST PUSH2 0x99D DUP2 PUSH2 0x983 JUMP JUMPDEST DUP3 MSTORE POP POP JUMP JUMPDEST PUSH0 PUSH1 0x20 DUP3 ADD SWAP1 POP PUSH2 0x9B6 PUSH0 DUP4 ADD DUP5 PUSH2 0x994 JUMP JUMPDEST SWAP3 SWAP2 POP POP JUMP JUMPDEST PUSH32 0x4E6F2073746F7261676520617661696C61626C65000000000000000000000000 PUSH0 DUP3 ADD MSTORE POP JUMP JUMPDEST PUSH0 PUSH2 0x9F0 PUSH1 0x14 DUP4 PUSH2 0x8A3 JUMP JUMPDEST SWAP2 POP PUSH2 0x9FB DUP3 PUSH2 0x9BC JUMP JUMPDEST PUSH1 0x20 DUP3 ADD SWAP1 POP SWAP2 SWAP1 POP JUMP JUMPDEST PUSH0 PUSH1 0x20 DUP3 ADD SWAP1 POP DUP2 DUP2 SUB PUSH0 DUP4 ADD MSTORE PUSH2 0xA1D DUP2 PUSH2 0x9E4 JUMP JUMPDEST SWAP1 POP SWAP2 SWAP1 POP JUMP JUMPDEST PUSH32 0x4E487B7100000000000000000000000000000000000000000000000000000000 PUSH0 MSTORE PUSH1 0x11 PUSH1 0x4 MSTORE PUSH1 0x24 PUSH0 REVERT JUMPDEST PUSH0 PUSH2 0xA5B DUP3 PUSH2 0x933 JUMP JUMPDEST SWAP2 POP PUSH32 0xFFFFFFFFFFFFFFFFFFFFFFFFFFFFFFFFFFFFFFFFFFFFFFFFFFFFFFFFFFFFFFFF DUP3 SUB PUSH2 0xA8D JUMPI PUSH2 0xA8C PUSH2 0xA24 JUMP JUMPDEST JUMPDEST PUSH1 0x1 DUP3 ADD SWAP1 POP SWAP2 SWAP1 POP JUMP JUMPDEST PUSH0 DUP2 SWAP1 POP SWAP3 SWAP2 POP POP JUMP JUMPDEST PUSH0 PUSH2 0xAAC DUP3 PUSH2 0x899 JUMP JUMPDEST PUSH2 0xAB6 DUP2 DUP6 PUSH2 0xA98 JUMP JUMPDEST SWAP4 POP PUSH2 0xAC6 DUP2 DUP6 PUSH1 0x20 DUP7 ADD PUSH2 0x8B3 JUMP JUMPDEST DUP1 DUP5 ADD SWAP2 POP POP SWAP3 SWAP2 POP POP JUMP JUMPDEST PUSH0 PUSH2 0xADD DUP3 DUP5 PUSH2 0xAA2 JUMP JUMPDEST SWAP2 POP DUP2 SWAP1 POP SWAP3 SWAP2 POP POP JUMP JUMPDEST PUSH32 0x4E487B7100000000000000000000000000000000000000000000000000000000 PUSH0 MSTORE PUSH1 0x22 PUSH1 0x4 MSTORE PUSH1 0x24 PUSH0 REVERT JUMPDEST PUSH0 PUSH1 0x2 DUP3 DIV SWAP1 POP PUSH1 0x1 DUP3 AND DUP1 PUSH2 0xB2C JUMPI PUSH1 0x7F DUP3 AND SWAP2 POP JUMPDEST PUSH1 0x20 DUP3 LT DUP2 SUB PUSH2 0xB3F JUMPI PUSH2 0xB3E PUSH2 0xAE8 JUMP JUMPDEST JUMPDEST POP SWAP2 SWAP1 POP JUMP JUMPDEST PUSH0 DUP2 SWAP1 POP DUP2 PUSH0 MSTORE PUSH1 0x20 PUSH0 KECCAK256 SWAP1 POP SWAP2 SWAP1 POP JUMP JUMPDEST PUSH0 PUSH1 0x20 PUSH1 0x1F DUP4 ADD DIV SWAP1 POP SWAP2 SWAP1 POP JUMP JUMPDEST PUSH0 DUP3 DUP3 SHL SWAP1 POP SWAP3 SWAP2 POP POP JUMP JUMPDEST PUSH0 PUSH1 0x8 DUP4 MUL PUSH2 0xBA1 PUSH32 0xFFFFFFFFFFFFFFFFFFFFFFFFFFFFFFFFFFFFFFFFFFFFFFFFFFFFFFFFFFFFFFFF DUP3 PUSH2 0xB66 JUMP JUMPDEST PUSH2 0xBAB DUP7 DUP4 PUSH2 0xB66 JUMP JUMPDEST SWAP6 POP DUP1 NOT DUP5 AND SWAP4 POP DUP1 DUP7 AND DUP5 OR SWAP3 POP POP POP SWAP4 SWAP3 POP POP POP JUMP JUMPDEST PUSH0 DUP2 SWAP1 POP SWAP2 SWAP1 POP JUMP JUMPDEST PUSH0 PUSH2 0xBE6 PUSH2 0xBE1 PUSH2 0xBDC DUP5 PUSH2 0x933 JUMP JUMPDEST PUSH2 0xBC3 JUMP JUMPDEST PUSH2 0x933 JUMP JUMPDEST SWAP1 POP SWAP2 SWAP1 POP JUMP JUMPDEST PUSH0 DUP2 SWAP1 POP SWAP2 SWAP1 POP JUMP JUMPDEST PUSH2 0xBFF DUP4 PUSH2 0xBCC JUMP JUMPDEST PUSH2 0xC13 PUSH2 0xC0B DUP3 PUSH2 0xBED JUMP JUMPDEST DUP5 DUP5 SLOAD PUSH2 0xB72 JUMP JUMPDEST DUP3 SSTORE POP POP POP POP JUMP JUMPDEST PUSH0 SWAP1 JUMP JUMPDEST PUSH2 0xC27 PUSH2 0xC1B JUMP JUMPDEST PUSH2 0xC32 DUP2 DUP5 DUP5 PUSH2 0xBF6 JUMP JUMPDEST POP POP POP JUMP JUMPDEST JUMPDEST DUP2 DUP2 LT ISZERO PUSH2 0xC55 JUMPI PUSH2 0xC4A PUSH0 DUP3 PUSH2 0xC1F JUMP JUMPDEST PUSH1 0x1 DUP2 ADD SWAP1 POP PUSH2 0xC38 JUMP JUMPDEST POP POP JUMP JUMPDEST PUSH1 0x1F DUP3 GT ISZERO PUSH2 0xC9A JUMPI PUSH2 0xC6B DUP2 PUSH2 0xB45 JUMP JUMPDEST PUSH2 0xC74 DUP5 PUSH2 0xB57 JUMP JUMPDEST DUP2 ADD PUSH1 0x20 DUP6 LT ISZERO PUSH2 0xC83 JUMPI DUP2 SWAP1 POP JUMPDEST PUSH2 0xC97 PUSH2 0xC8F DUP6 PUSH2 0xB57 JUMP JUMPDEST DUP4 ADD DUP3 PUSH2 0xC37 JUMP JUMPDEST POP POP JUMPDEST POP POP POP JUMP JUMPDEST PUSH0 DUP3 DUP3 SHR SWAP1 POP SWAP3 SWAP2 POP POP JUMP JUMPDEST PUSH0 PUSH2 0xCBA PUSH0 NOT DUP5 PUSH1 0x8 MUL PUSH2 0xC9F JUMP JUMPDEST NOT DUP1 DUP4 AND SWAP2 POP POP SWAP3 SWAP2 POP POP JUMP JUMPDEST PUSH0 PUSH2 0xCD2 DUP4 DUP4 PUSH2 0xCAB JUMP JUMPDEST SWAP2 POP DUP3 PUSH1 0x2 MUL DUP3 OR SWAP1 POP SWAP3 SWAP2 POP POP JUMP JUMPDEST PUSH2 0xCEB DUP3 PUSH2 0x899 JUMP JUMPDEST PUSH8 0xFFFFFFFFFFFFFFFF DUP2 GT ISZERO PUSH2 0xD04 JUMPI PUSH2 0xD03 PUSH2 0x6B8 JUMP JUMPDEST JUMPDEST PUSH2 0xD0E DUP3 SLOAD PUSH2 0xB15 JUMP JUMPDEST PUSH2 0xD19 DUP3 DUP3 DUP6 PUSH2 0xC59 JUMP JUMPDEST PUSH0 PUSH1 0x20 SWAP1 POP PUSH1 0x1F DUP4 GT PUSH1 0x1 DUP2 EQ PUSH2 0xD4A JUMPI PUSH0 DUP5 ISZERO PUSH2 0xD38 JUMPI DUP3 DUP8 ADD MLOAD SWAP1 POP JUMPDEST PUSH2 0xD42 DUP6 DUP3 PUSH2 0xCC7 JUMP JUMPDEST DUP7 SSTORE POP PUSH2 0xDA9 JUMP JUMPDEST PUSH1 0x1F NOT DUP5 AND PUSH2 0xD58 DUP7 PUSH2 0xB45 JUMP JUMPDEST PUSH0 JUMPDEST DUP3 DUP2 LT ISZERO PUSH2 0xD7F JUMPI DUP5 DUP10 ADD MLOAD DUP3 SSTORE PUSH1 0x1 DUP3 ADD SWAP2 POP PUSH1 0x20 DUP6 ADD SWAP5 POP PUSH1 0x20 DUP2 ADD SWAP1 POP PUSH2 0xD5A JUMP JUMPDEST DUP7 DUP4 LT ISZERO PUSH2 0xD9C JUMPI DUP5 DUP10 ADD MLOAD PUSH2 0xD98 PUSH1 0x1F DUP10 AND DUP3 PUSH2 0xCAB JUMP JUMPDEST DUP4 SSTORE POP JUMPDEST PUSH1 0x1 PUSH1 0x2 DUP9 MUL ADD DUP9 SSTORE POP POP POP JUMPDEST POP POP POP POP POP POP JUMP JUMPDEST PUSH0 PUSH2 0xDBB DUP3 PUSH2 0x933 JUMP JUMPDEST SWAP2 POP PUSH2 0xDC6 DUP4 PUSH2 0x933 JUMP JUMPDEST SWAP3 POP DUP3 DUP3 SUB SWAP1 POP DUP2 DUP2 GT ISZERO PUSH2 0xDDE JUMPI PUSH2 0xDDD PUSH2 0xA24 JUMP JUMPDEST JUMPDEST SWAP3 SWAP2 POP POP JUMP JUMPDEST PUSH0 PUSH1 0x60 DUP3 ADD SWAP1 POP DUP2 DUP2 SUB PUSH0 DUP4 ADD MSTORE PUSH2 0xDFC DUP2 DUP7 PUSH2 0x8DB JUMP JUMPDEST SWAP1 POP PUSH2 0xE0B PUSH1 0x20 DUP4 ADD DUP6 PUSH2 0x93C JUMP JUMPDEST PUSH2 0xE18 PUSH1 0x40 DUP4 ADD DUP5 PUSH2 0x93C JUMP JUMPDEST SWAP5 SWAP4 POP POP POP POP JUMP JUMPDEST PUSH32 0x46696C65206E6F7420666F756E64000000000000000000000000000000000000 PUSH0 DUP3 ADD MSTORE POP JUMP JUMPDEST PUSH0 PUSH2 0xE54 PUSH1 0xE DUP4 PUSH2 0x8A3 JUMP JUMPDEST SWAP2 POP PUSH2 0xE5F DUP3 PUSH2 0xE20 JUMP JUMPDEST PUSH1 0x20 DUP3 ADD SWAP1 POP SWAP2 SWAP1 POP JUMP JUMPDEST PUSH0 PUSH1 0x20 DUP3 ADD SWAP1 POP DUP2 DUP2 SUB PUSH0 DUP4 ADD MSTORE PUSH2 0xE81 DUP2 PUSH2 0xE48 JUMP JUMPDEST SWAP1 POP SWAP2 SWAP1 POP JUMP JUMPDEST PUSH32 0x556E617574686F72697A65640000000000000000000000000000000000000000 PUSH0 DUP3 ADD MSTORE POP JUMP JUMPDEST PUSH0 PUSH2 0xEBC PUSH1 0xC DUP4 PUSH2 0x8A3 JUMP JUMPDEST SWAP2 POP PUSH2 0xEC7 DUP3 PUSH2 0xE88 JUMP JUMPDEST PUSH1 0x20 DUP3 ADD SWAP1 POP SWAP2 SWAP1 POP JUMP JUMPDEST PUSH0 PUSH1 0x20 DUP3 ADD SWAP1 POP DUP2 DUP2 SUB PUSH0 DUP4 ADD MSTORE PUSH2 0xEE9 DUP2 PUSH2 0xEB0 JUMP JUMPDEST SWAP1 POP SWAP2 SWAP1 POP JUMP JUMPDEST PUSH0 PUSH2 0xEFA DUP3 PUSH2 0x933 JUMP JUMPDEST SWAP2 POP PUSH2 0xF05 DUP4 PUSH2 0x933 JUMP JUMPDEST SWAP3 POP DUP3 DUP3 ADD SWAP1 POP DUP1 DUP3 GT ISZERO PUSH2 0xF1D JUMPI PUSH2 0xF1C PUSH2 0xA24 JUMP JUMPDEST JUMPDEST SWAP3 SWAP2 POP POP JUMP JUMPDEST PUSH0 PUSH1 0x40 DUP3 ADD SWAP1 POP DUP2 DUP2 SUB PUSH0 DUP4 ADD MSTORE PUSH2 0xF3B DUP2 DUP6 PUSH2 0x8DB JUMP JUMPDEST SWAP1 POP PUSH2 0xF4A PUSH1 0x20 DUP4 ADD DUP5 PUSH2 0x93C JUMP JUMPDEST SWAP4 SWAP3 POP POP POP JUMP INVALID LOG2 PUSH5 0x6970667358 0x22 SLT KECCAK256 REVERT CALLDATALOAD 0xD7 CALLCODE SGT BALANCE 0xE7 0x2F 0xFB 0xF6 RETURN 0xD9 0xB1 SWAP9 0xC8 0xDF 0xC2 PUSH22 0xEA96115A7A396920B5522BC417BA64736F6C63430008 AND STOP CALLER "
				},
				"gasEstimates": {
					"creation": {
						"codeDepositCost": "795000",
						"executionCost": "infinite",
						"totalCost": "infinite"
					},
					"external": {
						"availableStorage()": "2513",
						"deleteFile(string)": "infinite",
						"fileIdIndex()": "2447",
						"owner()": "2549",
						"retrieveFile(string)": "infinite",
						"storeFile(string,string)": "infinite"
					}
				},
				"methodIdentifiers": {
					"availableStorage()": "e973baec",
					"deleteFile(string)": "a9910054",
					"fileIdIndex()": "5d0a3a19",
					"owner()": "8da5cb5b",
					"retrieveFile(string)": "2804401c",
					"storeFile(string,string)": "20de1070"
				}
			},
			"storageLayout": {
				"storage": [
					{
						"astId": 3,
						"contract": "contracts/_FileStorage.sol:FileStorageManager",
						"label": "owner",
						"offset": 0,
						"slot": "0",
						"type": "t_address"
					},
					{
						"astId": 5,
						"contract": "contracts/_FileStorage.sol:FileStorageManager",
						"label": "availableStorage",
						"offset": 0,
						"slot": "1",
						"type": "t_uint256"
					},
					{
						"astId": 8,
						"contract": "contracts/_FileStorage.sol:FileStorageManager",
						"label": "fileIdIndex",
						"offset": 0,
						"slot": "2",
						"type": "t_uint256"
					},
					{
						"astId": 12,
						"contract": "contracts/_FileStorage.sol:FileStorageManager",
						"label": "fileNameToFileId",
						"offset": 0,
						"slot": "3",
						"type": "t_mapping(t_string_memory_ptr,t_uint256)"
					},
					{
						"astId": 17,
						"contract": "contracts/_FileStorage.sol:FileStorageManager",
						"label": "fileIdToFile",
						"offset": 0,
						"slot": "4",
						"type": "t_mapping(t_uint256,t_struct(File)46_storage)"
					},
					{
						"astId": 21,
						"contract": "contracts/_FileStorage.sol:FileStorageManager",
						"label": "fileIdToUserId",
						"offset": 0,
						"slot": "5",
						"type": "t_mapping(t_uint256,t_address)"
					}
				],
				"types": {
					"t_address": {
						"encoding": "inplace",
						"label": "address",
						"numberOfBytes": "20"
					},
					"t_mapping(t_string_memory_ptr,t_uint256)": {
						"encoding": "mapping",
						"key": "t_string_memory_ptr",
						"label": "mapping(string => uint256)",
						"numberOfBytes": "32",
						"value": "t_uint256"
					},
					"t_mapping(t_uint256,t_address)": {
						"encoding": "mapping",
						"key": "t_uint256",
						"label": "mapping(uint256 => address)",
						"numberOfBytes": "32",
						"value": "t_address"
					},
					"t_mapping(t_uint256,t_struct(File)46_storage)": {
						"encoding": "mapping",
						"key": "t_uint256",
						"label": "mapping(uint256 => struct FileStorageManager.File)",
						"numberOfBytes": "32",
						"value": "t_struct(File)46_storage"
					},
					"t_string_memory_ptr": {
						"encoding": "bytes",
						"label": "string",
						"numberOfBytes": "32"
					},
					"t_string_storage": {
						"encoding": "bytes",
						"label": "string",
						"numberOfBytes": "32"
					},
					"t_struct(File)46_storage": {
						"encoding": "inplace",
						"label": "struct FileStorageManager.File",
						"members": [
							{
								"astId": 43,
								"contract": "contracts/_FileStorage.sol:FileStorageManager",
								"label": "content",
								"offset": 0,
								"slot": "0",
								"type": "t_string_storage"
							},
							{
								"astId": 45,
								"contract": "contracts/_FileStorage.sol:FileStorageManager",
								"label": "fileName",
								"offset": 0,
								"slot": "1",
								"type": "t_string_storage"
							}
						],
						"numberOfBytes": "64"
					},
					"t_uint256": {
						"encoding": "inplace",
						"label": "uint256",
						"numberOfBytes": "32"
					}
				}
			},
			"userdoc": {
				"kind": "user",
				"methods": {},
				"version": 1
			}
		}
	}
}