{
	"data": {
		"bytecode": {
			"linkReferences": {},
			"object": "610a5561004e600b8282823980515f1a607314610042577f4e487b71000000000000000000000000000000000000000000000000000000005f525f60045260245ffd5b305f52607381538281f3fe730000000000000000000000000000000000000000301460806040526004361061017c575f3560e01c806372d34496116100e7578063c615b579116100a0578063eb44cb4e1161007a578063eb44cb4e146103f6578063ed32bfc814610414578063ee6cdf8314610432578063f9a9af1e146104505761017c565b8063c615b5791461039c578063cb656e52146103ba578063e9e4a0d1146103d85761017c565b806372d34496146102e8578063804d2f4b146103065780639926772314610324578063b483d30014610342578063b70b31e314610360578063bcf101f71461037e5761017c565b80633546524911610139578063354652491461023457806337b2cae81461025257806337c6b7b7146102705780634f44d5d51461028e5780635b2b5003146102ac578063703acad8146102ca5761017c565b80630b16a8c9146101805780631040106a1461019e5780631cf30540146101bc5780631fda8e9c146101da5780631ff40d02146101f85780632ceb53a014610216575b5f80fd5b61018861046e565b604051610195919061082b565b60405180910390f35b6101a661048a565b6040516101b3919061082b565b60405180910390f35b6101c46104c3565b6040516101d1919061082b565b60405180910390f35b6101e26104fc565b6040516101ef9190610863565b60405180910390f35b610200610500565b60405161020d919061082b565b60405180910390f35b61021e610512565b60405161022b919061082b565b60405180910390f35b61023c61052e565b6040516102499190610863565b60405180910390f35b61025a610534565b60405161026791906108bb565b60405180910390f35b61027861054c565b604051610285919061082b565b60405180910390f35b610296610585565b6040516102a39190610863565b60405180910390f35b6102b461058a565b6040516102c1919061082b565b60405180910390f35b6102d26105a6565b6040516102df919061082b565b60405180910390f35b6102f06105c2565b6040516102fd919061082b565b60405180910390f35b61030e6105fb565b60405161031b919061082b565b60405180910390f35b61032c610634565b604051610339919061082b565b60405180910390f35b61034a61066d565b60405161035791906108bb565b60405180910390f35b610368610685565b604051610375919061082b565b60405180910390f35b6103866106be565b604051610393919061082b565b60405180910390f35b6103a46106da565b6040516103b1919061082b565b60405180910390f35b6103c26106f6565b6040516103cf91906108bb565b60405180910390f35b6103e061070e565b6040516103ed919061082b565b60405180910390f35b6103fe61072a565b60405161040b919061082b565b60405180910390f35b61041c610746565b604051610429919061082b565b60405180910390f35b61043a61077f565b6040516104479190610863565b60405180910390f35b610458610785565b604051610465919061082b565b60405180910390f35b6040518060600160405280603081526020016109a86030913981565b6040518060400160405280601b81526020017f64656c65746546696c653a20496e76616c69642066696c65206964000000000081525081565b6040518060400160405280601481526020017f313230313832243266733833333839666b646a6400000000000000000000000081525081565b5f81565b60405180602001604052805f81525081565b6040518060600160405280602481526020016109fc6024913981565b61138881565b732f8a81f66ad6e19a063e11f006b2726d1d25a5cf81565b6040518060400160405280600d81526020017f64656d6f5f746573742e7478740000000000000000000000000000000000000081525081565b60c881565b6040518060600160405280602481526020016109d86024913981565b6040518060600160405280602481526020016109406024913981565b6040518060400160405280601381526020017f75693132662d326a6637642d616a64306173640000000000000000000000000081525081565b6040518060400160405280601a81526020017f64656c65746546696c653a2046696c65204e6f7420666f756e6400000000000081525081565b6040518060400160405280600481526020017f374269740000000000000000000000000000000000000000000000000000000081525081565b7338a2e968077a7a13b8d7326c35c921da0000847e81565b6040518060400160405280601c81526020017f73746f726546696c653a204475706c69636174652046696c652049640000000081525081565b60405180606001604052806023815260200161091d6023913981565b6040518060600160405280602181526020016109646021913981565b733e57a0f582db4d97b5e3a0a7f95a731de9cb733981565b6040518060600160405280602481526020016108d56024913981565b6040518060600160405280602481526020016108f96024913981565b6040518060400160405280600481526020017f2e7478740000000000000000000000000000000000000000000000000000000081525081565b61271081565b6040518060600160405280602381526020016109856023913981565b5f81519050919050565b5f82825260208201905092915050565b5f5b838110156107d85780820151818401526020810190506107bd565b5f8484015250505050565b5f601f19601f8301169050919050565b5f6107fd826107a1565b61080781856107ab565b93506108178185602086016107bb565b610820816107e3565b840191505092915050565b5f6020820190508181035f83015261084381846107f3565b905092915050565b5f819050919050565b61085d8161084b565b82525050565b5f6020820190506108765f830184610854565b92915050565b5f73ffffffffffffffffffffffffffffffffffffffff82169050919050565b5f6108a58261087c565b9050919050565b6108b58161089b565b82525050565b5f6020820190506108ce5f8301846108ac565b9291505056fe73746f726546696c654d657461646174613a20496e76616c6964205f66696c6553697a6573746f726546696c654d657461646174613a20496e76616c6964205f66696c655479706573746f726546696c653a204e6f20617661696c61626c65206e6f64657320666f756e6473746f726546696c654d657461646174613a20496e76616c6964205f756e69717565496473746f726546696c654d657461646174613a20496e76616c69642073656e646572726574726965766546696c6544657461696c733a2046696c65204e6f7420466f756e64726574726965766546696c6544657461696c733a20556e617574686f72697a65642063616c6c6572206164647265737373746f726546696c654d657461646174613a20496e76616c6964205f66696c654e616d6573746f726546696c654d657461646174613a20496e76616c6964205f66696c6548617368a26469706673582212207a93b7f973a103cb29dc239df9ccaab891d3b3302e59ed1bdb9c555b08d4212d64736f6c63430008180033",
			"opcodes": "PUSH2 0xA55 PUSH2 0x4E PUSH1 0xB DUP3 DUP3 DUP3 CODECOPY DUP1 MLOAD PUSH0 BYTE PUSH1 0x73 EQ PUSH2 0x42 JUMPI PUSH32 0x4E487B7100000000000000000000000000000000000000000000000000000000 PUSH0 MSTORE PUSH0 PUSH1 0x4 MSTORE PUSH1 0x24 PUSH0 REVERT JUMPDEST ADDRESS PUSH0 MSTORE PUSH1 0x73 DUP2 MSTORE8 DUP3 DUP2 RETURN INVALID PUSH20 0x0 ADDRESS EQ PUSH1 0x80 PUSH1 0x40 MSTORE PUSH1 0x4 CALLDATASIZE LT PUSH2 0x17C JUMPI PUSH0 CALLDATALOAD PUSH1 0xE0 SHR DUP1 PUSH4 0x72D34496 GT PUSH2 0xE7 JUMPI DUP1 PUSH4 0xC615B579 GT PUSH2 0xA0 JUMPI DUP1 PUSH4 0xEB44CB4E GT PUSH2 0x7A JUMPI DUP1 PUSH4 0xEB44CB4E EQ PUSH2 0x3F6 JUMPI DUP1 PUSH4 0xED32BFC8 EQ PUSH2 0x414 JUMPI DUP1 PUSH4 0xEE6CDF83 EQ PUSH2 0x432 JUMPI DUP1 PUSH4 0xF9A9AF1E EQ PUSH2 0x450 JUMPI PUSH2 0x17C JUMP JUMPDEST DUP1 PUSH4 0xC615B579 EQ PUSH2 0x39C JUMPI DUP1 PUSH4 0xCB656E52 EQ PUSH2 0x3BA JUMPI DUP1 PUSH4 0xE9E4A0D1 EQ PUSH2 0x3D8 JUMPI PUSH2 0x17C JUMP JUMPDEST DUP1 PUSH4 0x72D34496 EQ PUSH2 0x2E8 JUMPI DUP1 PUSH4 0x804D2F4B EQ PUSH2 0x306 JUMPI DUP1 PUSH4 0x99267723 EQ PUSH2 0x324 JUMPI DUP1 PUSH4 0xB483D300 EQ PUSH2 0x342 JUMPI DUP1 PUSH4 0xB70B31E3 EQ PUSH2 0x360 JUMPI DUP1 PUSH4 0xBCF101F7 EQ PUSH2 0x37E JUMPI PUSH2 0x17C JUMP JUMPDEST DUP1 PUSH4 0x35465249 GT PUSH2 0x139 JUMPI DUP1 PUSH4 0x35465249 EQ PUSH2 0x234 JUMPI DUP1 PUSH4 0x37B2CAE8 EQ PUSH2 0x252 JUMPI DUP1 PUSH4 0x37C6B7B7 EQ PUSH2 0x270 JUMPI DUP1 PUSH4 0x4F44D5D5 EQ PUSH2 0x28E JUMPI DUP1 PUSH4 0x5B2B5003 EQ PUSH2 0x2AC JUMPI DUP1 PUSH4 0x703ACAD8 EQ PUSH2 0x2CA JUMPI PUSH2 0x17C JUMP JUMPDEST DUP1 PUSH4 0xB16A8C9 EQ PUSH2 0x180 JUMPI DUP1 PUSH4 0x1040106A EQ PUSH2 0x19E JUMPI DUP1 PUSH4 0x1CF30540 EQ PUSH2 0x1BC JUMPI DUP1 PUSH4 0x1FDA8E9C EQ PUSH2 0x1DA JUMPI DUP1 PUSH4 0x1FF40D02 EQ PUSH2 0x1F8 JUMPI DUP1 PUSH4 0x2CEB53A0 EQ PUSH2 0x216 JUMPI JUMPDEST PUSH0 DUP1 REVERT JUMPDEST PUSH2 0x188 PUSH2 0x46E JUMP JUMPDEST PUSH1 0x40 MLOAD PUSH2 0x195 SWAP2 SWAP1 PUSH2 0x82B JUMP JUMPDEST PUSH1 0x40 MLOAD DUP1 SWAP2 SUB SWAP1 RETURN JUMPDEST PUSH2 0x1A6 PUSH2 0x48A JUMP JUMPDEST PUSH1 0x40 MLOAD PUSH2 0x1B3 SWAP2 SWAP1 PUSH2 0x82B JUMP JUMPDEST PUSH1 0x40 MLOAD DUP1 SWAP2 SUB SWAP1 RETURN JUMPDEST PUSH2 0x1C4 PUSH2 0x4C3 JUMP JUMPDEST PUSH1 0x40 MLOAD PUSH2 0x1D1 SWAP2 SWAP1 PUSH2 0x82B JUMP JUMPDEST PUSH1 0x40 MLOAD DUP1 SWAP2 SUB SWAP1 RETURN JUMPDEST PUSH2 0x1E2 PUSH2 0x4FC JUMP JUMPDEST PUSH1 0x40 MLOAD PUSH2 0x1EF SWAP2 SWAP1 PUSH2 0x863 JUMP JUMPDEST PUSH1 0x40 MLOAD DUP1 SWAP2 SUB SWAP1 RETURN JUMPDEST PUSH2 0x200 PUSH2 0x500 JUMP JUMPDEST PUSH1 0x40 MLOAD PUSH2 0x20D SWAP2 SWAP1 PUSH2 0x82B JUMP JUMPDEST PUSH1 0x40 MLOAD DUP1 SWAP2 SUB SWAP1 RETURN JUMPDEST PUSH2 0x21E PUSH2 0x512 JUMP JUMPDEST PUSH1 0x40 MLOAD PUSH2 0x22B SWAP2 SWAP1 PUSH2 0x82B JUMP JUMPDEST PUSH1 0x40 MLOAD DUP1 SWAP2 SUB SWAP1 RETURN JUMPDEST PUSH2 0x23C PUSH2 0x52E JUMP JUMPDEST PUSH1 0x40 MLOAD PUSH2 0x249 SWAP2 SWAP1 PUSH2 0x863 JUMP JUMPDEST PUSH1 0x40 MLOAD DUP1 SWAP2 SUB SWAP1 RETURN JUMPDEST PUSH2 0x25A PUSH2 0x534 JUMP JUMPDEST PUSH1 0x40 MLOAD PUSH2 0x267 SWAP2 SWAP1 PUSH2 0x8BB JUMP JUMPDEST PUSH1 0x40 MLOAD DUP1 SWAP2 SUB SWAP1 RETURN JUMPDEST PUSH2 0x278 PUSH2 0x54C JUMP JUMPDEST PUSH1 0x40 MLOAD PUSH2 0x285 SWAP2 SWAP1 PUSH2 0x82B JUMP JUMPDEST PUSH1 0x40 MLOAD DUP1 SWAP2 SUB SWAP1 RETURN JUMPDEST PUSH2 0x296 PUSH2 0x585 JUMP JUMPDEST PUSH1 0x40 MLOAD PUSH2 0x2A3 SWAP2 SWAP1 PUSH2 0x863 JUMP JUMPDEST PUSH1 0x40 MLOAD DUP1 SWAP2 SUB SWAP1 RETURN JUMPDEST PUSH2 0x2B4 PUSH2 0x58A JUMP JUMPDEST PUSH1 0x40 MLOAD PUSH2 0x2C1 SWAP2 SWAP1 PUSH2 0x82B JUMP JUMPDEST PUSH1 0x40 MLOAD DUP1 SWAP2 SUB SWAP1 RETURN JUMPDEST PUSH2 0x2D2 PUSH2 0x5A6 JUMP JUMPDEST PUSH1 0x40 MLOAD PUSH2 0x2DF SWAP2 SWAP1 PUSH2 0x82B JUMP JUMPDEST PUSH1 0x40 MLOAD DUP1 SWAP2 SUB SWAP1 RETURN JUMPDEST PUSH2 0x2F0 PUSH2 0x5C2 JUMP JUMPDEST PUSH1 0x40 MLOAD PUSH2 0x2FD SWAP2 SWAP1 PUSH2 0x82B JUMP JUMPDEST PUSH1 0x40 MLOAD DUP1 SWAP2 SUB SWAP1 RETURN JUMPDEST PUSH2 0x30E PUSH2 0x5FB JUMP JUMPDEST PUSH1 0x40 MLOAD PUSH2 0x31B SWAP2 SWAP1 PUSH2 0x82B JUMP JUMPDEST PUSH1 0x40 MLOAD DUP1 SWAP2 SUB SWAP1 RETURN JUMPDEST PUSH2 0x32C PUSH2 0x634 JUMP JUMPDEST PUSH1 0x40 MLOAD PUSH2 0x339 SWAP2 SWAP1 PUSH2 0x82B JUMP JUMPDEST PUSH1 0x40 MLOAD DUP1 SWAP2 SUB SWAP1 RETURN JUMPDEST PUSH2 0x34A PUSH2 0x66D JUMP JUMPDEST PUSH1 0x40 MLOAD PUSH2 0x357 SWAP2 SWAP1 PUSH2 0x8BB JUMP JUMPDEST PUSH1 0x40 MLOAD DUP1 SWAP2 SUB SWAP1 RETURN JUMPDEST PUSH2 0x368 PUSH2 0x685 JUMP JUMPDEST PUSH1 0x40 MLOAD PUSH2 0x375 SWAP2 SWAP1 PUSH2 0x82B JUMP JUMPDEST PUSH1 0x40 MLOAD DUP1 SWAP2 SUB SWAP1 RETURN JUMPDEST PUSH2 0x386 PUSH2 0x6BE JUMP JUMPDEST PUSH1 0x40 MLOAD PUSH2 0x393 SWAP2 SWAP1 PUSH2 0x82B JUMP JUMPDEST PUSH1 0x40 MLOAD DUP1 SWAP2 SUB SWAP1 RETURN JUMPDEST PUSH2 0x3A4 PUSH2 0x6DA JUMP JUMPDEST PUSH1 0x40 MLOAD PUSH2 0x3B1 SWAP2 SWAP1 PUSH2 0x82B JUMP JUMPDEST PUSH1 0x40 MLOAD DUP1 SWAP2 SUB SWAP1 RETURN JUMPDEST PUSH2 0x3C2 PUSH2 0x6F6 JUMP JUMPDEST PUSH1 0x40 MLOAD PUSH2 0x3CF SWAP2 SWAP1 PUSH2 0x8BB JUMP JUMPDEST PUSH1 0x40 MLOAD DUP1 SWAP2 SUB SWAP1 RETURN JUMPDEST PUSH2 0x3E0 PUSH2 0x70E JUMP JUMPDEST PUSH1 0x40 MLOAD PUSH2 0x3ED SWAP2 SWAP1 PUSH2 0x82B JUMP JUMPDEST PUSH1 0x40 MLOAD DUP1 SWAP2 SUB SWAP1 RETURN JUMPDEST PUSH2 0x3FE PUSH2 0x72A JUMP JUMPDEST PUSH1 0x40 MLOAD PUSH2 0x40B SWAP2 SWAP1 PUSH2 0x82B JUMP JUMPDEST PUSH1 0x40 MLOAD DUP1 SWAP2 SUB SWAP1 RETURN JUMPDEST PUSH2 0x41C PUSH2 0x746 JUMP JUMPDEST PUSH1 0x40 MLOAD PUSH2 0x429 SWAP2 SWAP1 PUSH2 0x82B JUMP JUMPDEST PUSH1 0x40 MLOAD DUP1 SWAP2 SUB SWAP1 RETURN JUMPDEST PUSH2 0x43A PUSH2 0x77F JUMP JUMPDEST PUSH1 0x40 MLOAD PUSH2 0x447 SWAP2 SWAP1 PUSH2 0x863 JUMP JUMPDEST PUSH1 0x40 MLOAD DUP1 SWAP2 SUB SWAP1 RETURN JUMPDEST PUSH2 0x458 PUSH2 0x785 JUMP JUMPDEST PUSH1 0x40 MLOAD PUSH2 0x465 SWAP2 SWAP1 PUSH2 0x82B JUMP JUMPDEST PUSH1 0x40 MLOAD DUP1 SWAP2 SUB SWAP1 RETURN JUMPDEST PUSH1 0x40 MLOAD DUP1 PUSH1 0x60 ADD PUSH1 0x40 MSTORE DUP1 PUSH1 0x30 DUP2 MSTORE PUSH1 0x20 ADD PUSH2 0x9A8 PUSH1 0x30 SWAP2 CODECOPY DUP2 JUMP JUMPDEST PUSH1 0x40 MLOAD DUP1 PUSH1 0x40 ADD PUSH1 0x40 MSTORE DUP1 PUSH1 0x1B DUP2 MSTORE PUSH1 0x20 ADD PUSH32 0x64656C65746546696C653A20496E76616C69642066696C652069640000000000 DUP2 MSTORE POP DUP2 JUMP JUMPDEST PUSH1 0x40 MLOAD DUP1 PUSH1 0x40 ADD PUSH1 0x40 MSTORE DUP1 PUSH1 0x14 DUP2 MSTORE PUSH1 0x20 ADD PUSH32 0x313230313832243266733833333839666B646A64000000000000000000000000 DUP2 MSTORE POP DUP2 JUMP JUMPDEST PUSH0 DUP2 JUMP JUMPDEST PUSH1 0x40 MLOAD DUP1 PUSH1 0x20 ADD PUSH1 0x40 MSTORE DUP1 PUSH0 DUP2 MSTORE POP DUP2 JUMP JUMPDEST PUSH1 0x40 MLOAD DUP1 PUSH1 0x60 ADD PUSH1 0x40 MSTORE DUP1 PUSH1 0x24 DUP2 MSTORE PUSH1 0x20 ADD PUSH2 0x9FC PUSH1 0x24 SWAP2 CODECOPY DUP2 JUMP JUMPDEST PUSH2 0x1388 DUP2 JUMP JUMPDEST PUSH20 0x2F8A81F66AD6E19A063E11F006B2726D1D25A5CF DUP2 JUMP JUMPDEST PUSH1 0x40 MLOAD DUP1 PUSH1 0x40 ADD PUSH1 0x40 MSTORE DUP1 PUSH1 0xD DUP2 MSTORE PUSH1 0x20 ADD PUSH32 0x64656D6F5F746573742E74787400000000000000000000000000000000000000 DUP2 MSTORE POP DUP2 JUMP JUMPDEST PUSH1 0xC8 DUP2 JUMP JUMPDEST PUSH1 0x40 MLOAD DUP1 PUSH1 0x60 ADD PUSH1 0x40 MSTORE DUP1 PUSH1 0x24 DUP2 MSTORE PUSH1 0x20 ADD PUSH2 0x9D8 PUSH1 0x24 SWAP2 CODECOPY DUP2 JUMP JUMPDEST PUSH1 0x40 MLOAD DUP1 PUSH1 0x60 ADD PUSH1 0x40 MSTORE DUP1 PUSH1 0x24 DUP2 MSTORE PUSH1 0x20 ADD PUSH2 0x940 PUSH1 0x24 SWAP2 CODECOPY DUP2 JUMP JUMPDEST PUSH1 0x40 MLOAD DUP1 PUSH1 0x40 ADD PUSH1 0x40 MSTORE DUP1 PUSH1 0x13 DUP2 MSTORE PUSH1 0x20 ADD PUSH32 0x75693132662D326A6637642D616A643061736400000000000000000000000000 DUP2 MSTORE POP DUP2 JUMP JUMPDEST PUSH1 0x40 MLOAD DUP1 PUSH1 0x40 ADD PUSH1 0x40 MSTORE DUP1 PUSH1 0x1A DUP2 MSTORE PUSH1 0x20 ADD PUSH32 0x64656C65746546696C653A2046696C65204E6F7420666F756E64000000000000 DUP2 MSTORE POP DUP2 JUMP JUMPDEST PUSH1 0x40 MLOAD DUP1 PUSH1 0x40 ADD PUSH1 0x40 MSTORE DUP1 PUSH1 0x4 DUP2 MSTORE PUSH1 0x20 ADD PUSH32 0x3742697400000000000000000000000000000000000000000000000000000000 DUP2 MSTORE POP DUP2 JUMP JUMPDEST PUSH20 0x38A2E968077A7A13B8D7326C35C921DA0000847E DUP2 JUMP JUMPDEST PUSH1 0x40 MLOAD DUP1 PUSH1 0x40 ADD PUSH1 0x40 MSTORE DUP1 PUSH1 0x1C DUP2 MSTORE PUSH1 0x20 ADD PUSH32 0x73746F726546696C653A204475706C69636174652046696C6520496400000000 DUP2 MSTORE POP DUP2 JUMP JUMPDEST PUSH1 0x40 MLOAD DUP1 PUSH1 0x60 ADD PUSH1 0x40 MSTORE DUP1 PUSH1 0x23 DUP2 MSTORE PUSH1 0x20 ADD PUSH2 0x91D PUSH1 0x23 SWAP2 CODECOPY DUP2 JUMP JUMPDEST PUSH1 0x40 MLOAD DUP1 PUSH1 0x60 ADD PUSH1 0x40 MSTORE DUP1 PUSH1 0x21 DUP2 MSTORE PUSH1 0x20 ADD PUSH2 0x964 PUSH1 0x21 SWAP2 CODECOPY DUP2 JUMP JUMPDEST PUSH20 0x3E57A0F582DB4D97B5E3A0A7F95A731DE9CB7339 DUP2 JUMP JUMPDEST PUSH1 0x40 MLOAD DUP1 PUSH1 0x60 ADD PUSH1 0x40 MSTORE DUP1 PUSH1 0x24 DUP2 MSTORE PUSH1 0x20 ADD PUSH2 0x8D5 PUSH1 0x24 SWAP2 CODECOPY DUP2 JUMP JUMPDEST PUSH1 0x40 MLOAD DUP1 PUSH1 0x60 ADD PUSH1 0x40 MSTORE DUP1 PUSH1 0x24 DUP2 MSTORE PUSH1 0x20 ADD PUSH2 0x8F9 PUSH1 0x24 SWAP2 CODECOPY DUP2 JUMP JUMPDEST PUSH1 0x40 MLOAD DUP1 PUSH1 0x40 ADD PUSH1 0x40 MSTORE DUP1 PUSH1 0x4 DUP2 MSTORE PUSH1 0x20 ADD PUSH32 0x2E74787400000000000000000000000000000000000000000000000000000000 DUP2 MSTORE POP DUP2 JUMP JUMPDEST PUSH2 0x2710 DUP2 JUMP JUMPDEST PUSH1 0x40 MLOAD DUP1 PUSH1 0x60 ADD PUSH1 0x40 MSTORE DUP1 PUSH1 0x23 DUP2 MSTORE PUSH1 0x20 ADD PUSH2 0x985 PUSH1 0x23 SWAP2 CODECOPY DUP2 JUMP JUMPDEST PUSH0 DUP2 MLOAD SWAP1 POP SWAP2 SWAP1 POP JUMP JUMPDEST PUSH0 DUP3 DUP3 MSTORE PUSH1 0x20 DUP3 ADD SWAP1 POP SWAP3 SWAP2 POP POP JUMP JUMPDEST PUSH0 JUMPDEST DUP4 DUP2 LT ISZERO PUSH2 0x7D8 JUMPI DUP1 DUP3 ADD MLOAD DUP2 DUP5 ADD MSTORE PUSH1 0x20 DUP2 ADD SWAP1 POP PUSH2 0x7BD JUMP JUMPDEST PUSH0 DUP5 DUP5 ADD MSTORE POP POP POP POP JUMP JUMPDEST PUSH0 PUSH1 0x1F NOT PUSH1 0x1F DUP4 ADD AND SWAP1 POP SWAP2 SWAP1 POP JUMP JUMPDEST PUSH0 PUSH2 0x7FD DUP3 PUSH2 0x7A1 JUMP JUMPDEST PUSH2 0x807 DUP2 DUP6 PUSH2 0x7AB JUMP JUMPDEST SWAP4 POP PUSH2 0x817 DUP2 DUP6 PUSH1 0x20 DUP7 ADD PUSH2 0x7BB JUMP JUMPDEST PUSH2 0x820 DUP2 PUSH2 0x7E3 JUMP JUMPDEST DUP5 ADD SWAP2 POP POP SWAP3 SWAP2 POP POP JUMP JUMPDEST PUSH0 PUSH1 0x20 DUP3 ADD SWAP1 POP DUP2 DUP2 SUB PUSH0 DUP4 ADD MSTORE PUSH2 0x843 DUP2 DUP5 PUSH2 0x7F3 JUMP JUMPDEST SWAP1 POP SWAP3 SWAP2 POP POP JUMP JUMPDEST PUSH0 DUP2 SWAP1 POP SWAP2 SWAP1 POP JUMP JUMPDEST PUSH2 0x85D DUP2 PUSH2 0x84B JUMP JUMPDEST DUP3 MSTORE POP POP JUMP JUMPDEST PUSH0 PUSH1 0x20 DUP3 ADD SWAP1 POP PUSH2 0x876 PUSH0 DUP4 ADD DUP5 PUSH2 0x854 JUMP JUMPDEST SWAP3 SWAP2 POP POP JUMP JUMPDEST PUSH0 PUSH20 0xFFFFFFFFFFFFFFFFFFFFFFFFFFFFFFFFFFFFFFFF DUP3 AND SWAP1 POP SWAP2 SWAP1 POP JUMP JUMPDEST PUSH0 PUSH2 0x8A5 DUP3 PUSH2 0x87C JUMP JUMPDEST SWAP1 POP SWAP2 SWAP1 POP JUMP JUMPDEST PUSH2 0x8B5 DUP2 PUSH2 0x89B JUMP JUMPDEST DUP3 MSTORE POP POP JUMP JUMPDEST PUSH0 PUSH1 0x20 DUP3 ADD SWAP1 POP PUSH2 0x8CE PUSH0 DUP4 ADD DUP5 PUSH2 0x8AC JUMP JUMPDEST SWAP3 SWAP2 POP POP JUMP INVALID PUSH20 0x746F726546696C654D657461646174613A20496E PUSH23 0x616C6964205F66696C6553697A6573746F726546696C65 0x4D PUSH6 0x746164617461 GASPRICE KECCAK256 BLOBHASH PUSH15 0x76616C6964205F66696C6554797065 PUSH20 0x746F726546696C653A204E6F20617661696C6162 PUSH13 0x65206E6F64657320666F756E64 PUSH20 0x746F726546696C654D657461646174613A20496E PUSH23 0x616C6964205F756E69717565496473746F726546696C65 0x4D PUSH6 0x746164617461 GASPRICE KECCAK256 BLOBHASH PUSH15 0x76616C69642073656E646572726574 PUSH19 0x6965766546696C6544657461696C733A204669 PUSH13 0x65204E6F7420466F756E647265 PUSH21 0x726965766546696C6544657461696C733A20556E61 PUSH22 0x74686F72697A65642063616C6C657220616464726573 PUSH20 0x73746F726546696C654D657461646174613A2049 PUSH15 0x76616C6964205F66696C654E616D65 PUSH20 0x746F726546696C654D657461646174613A20496E PUSH23 0x616C6964205F66696C6548617368A26469706673582212 KECCAK256 PUSH27 0x93B7F973A103CB29DC239DF9CCAAB891D3B3302E59ED1BDB9C555B ADDMOD 0xD4 0x21 0x2D PUSH5 0x736F6C6343 STOP ADDMOD XOR STOP CALLER "
		},
		"gasEstimates": {
			"creation": {
				"codeDepositCost": "529000",
				"executionCost": "585",
				"totalCost": "529585"
			},
			"external": {
				"DELETE_FILE_INVALID_FILE_ID()": "infinite",
				"DELETE_FILE_NOT_FOUND()": "infinite",
				"RETRIEVE_FILE_DETAILS_FILE_NOT_FOUND()": "infinite",
				"RETRIEVE_FILE_DETAILS_UNAUTHORIZED_CALLER_ADDRESS()": "infinite",
				"STORE_FILE_DUPLICATE_FILE_ID()": "infinite",
				"STORE_FILE_METADATA_INVALID_FILE_HASH()": "infinite",
				"STORE_FILE_METADATA_INVALID_FILE_ID()": "infinite",
				"STORE_FILE_METADATA_INVALID_FILE_NAME()": "infinite",
				"STORE_FILE_METADATA_INVALID_FILE_SIZE()": "infinite",
				"STORE_FILE_METADATA_INVALID_FILE_TYPE()": "infinite",
				"STORE_FILE_METADATA_INVALID_SENDER()": "infinite",
				"STORE_FILE_NO_NODES_FOUND()": "infinite",
				"TEST_EMPTY_STRING()": "719",
				"TEST_FILE_1_ENCODING()": "infinite",
				"TEST_FILE_1_HASH()": "infinite",
				"TEST_FILE_1_ID()": "infinite",
				"TEST_FILE_1_NAME()": "infinite",
				"TEST_FILE_1_SIZE()": "398",
				"TEST_FILE_1_TYPE()": "infinite",
				"TEST_RANDOM_ADDRESS_1()": "446",
				"TEST_RANDOM_ADDRESS_2()": "424",
				"TEST_RANDOM_ADDRESS_3()": "402",
				"TEST_RANDOM_NODE_SIZE_10000()": "397",
				"TEST_RANDOM_NODE_SIZE_5000()": "332",
				"TEST_ZERO_SIZE()": "398"
			}
		},
		"methodIdentifiers": {
			"DELETE_FILE_INVALID_FILE_ID()": "1040106a",
			"DELETE_FILE_NOT_FOUND()": "804d2f4b",
			"RETRIEVE_FILE_DETAILS_FILE_NOT_FOUND()": "f9a9af1e",
			"RETRIEVE_FILE_DETAILS_UNAUTHORIZED_CALLER_ADDRESS()": "0b16a8c9",
			"STORE_FILE_DUPLICATE_FILE_ID()": "b70b31e3",
			"STORE_FILE_METADATA_INVALID_FILE_HASH()": "2ceb53a0",
			"STORE_FILE_METADATA_INVALID_FILE_ID()": "703acad8",
			"STORE_FILE_METADATA_INVALID_FILE_NAME()": "5b2b5003",
			"STORE_FILE_METADATA_INVALID_FILE_SIZE()": "e9e4a0d1",
			"STORE_FILE_METADATA_INVALID_FILE_TYPE()": "eb44cb4e",
			"STORE_FILE_METADATA_INVALID_SENDER()": "c615b579",
			"STORE_FILE_NO_NODES_FOUND()": "bcf101f7",
			"TEST_EMPTY_STRING()": "1ff40d02",
			"TEST_FILE_1_ENCODING()": "99267723",
			"TEST_FILE_1_HASH()": "1cf30540",
			"TEST_FILE_1_ID()": "72d34496",
			"TEST_FILE_1_NAME()": "37c6b7b7",
			"TEST_FILE_1_SIZE()": "4f44d5d5",
			"TEST_FILE_1_TYPE()": "ed32bfc8",
			"TEST_RANDOM_ADDRESS_1()": "b483d300",
			"TEST_RANDOM_ADDRESS_2()": "cb656e52",
			"TEST_RANDOM_ADDRESS_3()": "37b2cae8",
			"TEST_RANDOM_NODE_SIZE_10000()": "ee6cdf83",
			"TEST_RANDOM_NODE_SIZE_5000()": "35465249",
			"TEST_ZERO_SIZE()": "1fda8e9c"
		}
	},
	"abi": [
		{
			"inputs": [],
			"name": "DELETE_FILE_INVALID_FILE_ID",
			"outputs": [
				{
					"internalType": "string",
					"name": "",
					"type": "string"
				}
			],
			"stateMutability": "view",
			"type": "function"
		},
		{
			"inputs": [],
			"name": "DELETE_FILE_NOT_FOUND",
			"outputs": [
				{
					"internalType": "string",
					"name": "",
					"type": "string"
				}
			],
			"stateMutability": "view",
			"type": "function"
		},
		{
			"inputs": [],
			"name": "RETRIEVE_FILE_DETAILS_FILE_NOT_FOUND",
			"outputs": [
				{
					"internalType": "string",
					"name": "",
					"type": "string"
				}
			],
			"stateMutability": "view",
			"type": "function"
		},
		{
			"inputs": [],
			"name": "RETRIEVE_FILE_DETAILS_UNAUTHORIZED_CALLER_ADDRESS",
			"outputs": [
				{
					"internalType": "string",
					"name": "",
					"type": "string"
				}
			],
			"stateMutability": "view",
			"type": "function"
		},
		{
			"inputs": [],
			"name": "STORE_FILE_DUPLICATE_FILE_ID",
			"outputs": [
				{
					"internalType": "string",
					"name": "",
					"type": "string"
				}
			],
			"stateMutability": "view",
			"type": "function"
		},
		{
			"inputs": [],
			"name": "STORE_FILE_METADATA_INVALID_FILE_HASH",
			"outputs": [
				{
					"internalType": "string",
					"name": "",
					"type": "string"
				}
			],
			"stateMutability": "view",
			"type": "function"
		},
		{
			"inputs": [],
			"name": "STORE_FILE_METADATA_INVALID_FILE_ID",
			"outputs": [
				{
					"internalType": "string",
					"name": "",
					"type": "string"
				}
			],
			"stateMutability": "view",
			"type": "function"
		},
		{
			"inputs": [],
			"name": "STORE_FILE_METADATA_INVALID_FILE_NAME",
			"outputs": [
				{
					"internalType": "string",
					"name": "",
					"type": "string"
				}
			],
			"stateMutability": "view",
			"type": "function"
		},
		{
			"inputs": [],
			"name": "STORE_FILE_METADATA_INVALID_FILE_SIZE",
			"outputs": [
				{
					"internalType": "string",
					"name": "",
					"type": "string"
				}
			],
			"stateMutability": "view",
			"type": "function"
		},
		{
			"inputs": [],
			"name": "STORE_FILE_METADATA_INVALID_FILE_TYPE",
			"outputs": [
				{
					"internalType": "string",
					"name": "",
					"type": "string"
				}
			],
			"stateMutability": "view",
			"type": "function"
		},
		{
			"inputs": [],
			"name": "STORE_FILE_METADATA_INVALID_SENDER",
			"outputs": [
				{
					"internalType": "string",
					"name": "",
					"type": "string"
				}
			],
			"stateMutability": "view",
			"type": "function"
		},
		{
			"inputs": [],
			"name": "STORE_FILE_NO_NODES_FOUND",
			"outputs": [
				{
					"internalType": "string",
					"name": "",
					"type": "string"
				}
			],
			"stateMutability": "view",
			"type": "function"
		},
		{
			"inputs": [],
			"name": "TEST_EMPTY_STRING",
			"outputs": [
				{
					"internalType": "string",
					"name": "",
					"type": "string"
				}
			],
			"stateMutability": "view",
			"type": "function"
		},
		{
			"inputs": [],
			"name": "TEST_FILE_1_ENCODING",
			"outputs": [
				{
					"internalType": "string",
					"name": "",
					"type": "string"
				}
			],
			"stateMutability": "view",
			"type": "function"
		},
		{
			"inputs": [],
			"name": "TEST_FILE_1_HASH",
			"outputs": [
				{
					"internalType": "string",
					"name": "",
					"type": "string"
				}
			],
			"stateMutability": "view",
			"type": "function"
		},
		{
			"inputs": [],
			"name": "TEST_FILE_1_ID",
			"outputs": [
				{
					"internalType": "string",
					"name": "",
					"type": "string"
				}
			],
			"stateMutability": "view",
			"type": "function"
		},
		{
			"inputs": [],
			"name": "TEST_FILE_1_NAME",
			"outputs": [
				{
					"internalType": "string",
					"name": "",
					"type": "string"
				}
			],
			"stateMutability": "view",
			"type": "function"
		},
		{
			"inputs": [],
			"name": "TEST_FILE_1_SIZE",
			"outputs": [
				{
					"internalType": "uint256",
					"name": "",
					"type": "uint256"
				}
			],
			"stateMutability": "view",
			"type": "function"
		},
		{
			"inputs": [],
			"name": "TEST_FILE_1_TYPE",
			"outputs": [
				{
					"internalType": "string",
					"name": "",
					"type": "string"
				}
			],
			"stateMutability": "view",
			"type": "function"
		},
		{
			"inputs": [],
			"name": "TEST_RANDOM_ADDRESS_1",
			"outputs": [
				{
					"internalType": "address",
					"name": "",
					"type": "address"
				}
			],
			"stateMutability": "view",
			"type": "function"
		},
		{
			"inputs": [],
			"name": "TEST_RANDOM_ADDRESS_2",
			"outputs": [
				{
					"internalType": "address",
					"name": "",
					"type": "address"
				}
			],
			"stateMutability": "view",
			"type": "function"
		},
		{
			"inputs": [],
			"name": "TEST_RANDOM_ADDRESS_3",
			"outputs": [
				{
					"internalType": "address",
					"name": "",
					"type": "address"
				}
			],
			"stateMutability": "view",
			"type": "function"
		},
		{
			"inputs": [],
			"name": "TEST_RANDOM_NODE_SIZE_10000",
			"outputs": [
				{
					"internalType": "uint256",
					"name": "",
					"type": "uint256"
				}
			],
			"stateMutability": "view",
			"type": "function"
		},
		{
			"inputs": [],
			"name": "TEST_RANDOM_NODE_SIZE_5000",
			"outputs": [
				{
					"internalType": "uint256",
					"name": "",
					"type": "uint256"
				}
			],
			"stateMutability": "view",
			"type": "function"
		},
		{
			"inputs": [],
			"name": "TEST_ZERO_SIZE",
			"outputs": [
				{
					"internalType": "uint256",
					"name": "",
					"type": "uint256"
				}
			],
			"stateMutability": "view",
			"type": "function"
		}
	]
}