{
	"data": {
		"bytecode": {
			"linkReferences": {},
			"object": "61065b610035600b8282823980515f1a60731461002957634e487b7160e01b5f525f60045260245ffd5b305f52607381538281f3fe7300000000000000000000000000000000000000003014608060405260043610610131575f3560e01c80630b16a8c9146101355780631040106a146101535780631fda8e9c1461018d5780631ff40d02146101a25780632ceb53a0146101b757806335465249146101bf57806337b2cae8146101c857806337c6b7b7146101fb5780634f44d5d5146102275780635b2b50031461022f578063703acad81461023757806372d344961461023f578063804d2f4b1461027157806399267723146102aa578063b483d300146102cd578063b70b31e3146102e8578063bcf101f714610323578063c615b5791461032b578063cb656e5214610333578063e9e4a0d11461034e578063eb44cb4e14610356578063ed32bfc81461035e578063ee6cdf8314610381578063f9a9af1e1461038a575b5f80fd5b61013d610392565b60405161014a919061048e565b60405180910390f35b61013d6040518060400160405280601b81526020017a19195b195d19519a5b194e88125b9d985b1a5908199a5b19481a59602a1b81525081565b6101945f81565b60405190815260200161014a565b61013d60405180602001604052805f81525081565b61013d6103ae565b61019461138881565b6101e3732f8a81f66ad6e19a063e11f006b2726d1d25a5cf81565b6040516001600160a01b03909116815260200161014a565b61013d6040518060400160405280600d81526020016c19195b5bd7dd195cdd0b9d1e1d609a1b81525081565b61019460c881565b61013d6103ca565b61013d6103e6565b61013d604051806040016040528060138152602001721d5a4c4c998b4c9a998dd90b585a990c185cd9606a1b81525081565b61013d6040518060400160405280601a81526020017919195b195d19519a5b194e88119a5b1948139bdd08199bdd5b9960321b81525081565b61013d604051806040016040528060048152602001630dd09a5d60e21b81525081565b6101e37338a2e968077a7a13b8d7326c35c921da0000847e81565b61013d6040518060400160405280601c81526020017b1cdd1bdc99519a5b194e88111d5c1b1a58d85d1948119a5b1948125960221b81525081565b61013d610402565b61013d61041e565b6101e3733e57a0f582db4d97b5e3a0a7f95a731de9cb733981565b61013d61043a565b61013d610456565b61013d604051806040016040528060048152602001630b9d1e1d60e21b81525081565b61019461271081565b61013d610472565b6040518060600160405280603081526020016105ae6030913981565b6040518060600160405280602481526020016106026024913981565b6040518060600160405280602481526020016105de6024913981565b6040518060600160405280602481526020016105466024913981565b6040518060600160405280602381526020016105236023913981565b60405180606001604052806021815260200161056a6021913981565b6040518060600160405280602481526020016104db6024913981565b6040518060600160405280602481526020016104ff6024913981565b60405180606001604052806023815260200161058b6023913981565b5f602080835283518060208501525f5b818110156104ba5785810183015185820160400152820161049e565b505f604082860101526040601f19601f830116850101925050509291505056fe73746f726546696c654d657461646174613a20496e76616c6964205f66696c6553697a6573746f726546696c654d657461646174613a20496e76616c6964205f66696c655479706573746f726546696c653a204e6f20617661696c61626c65206e6f64657320666f756e6473746f726546696c654d657461646174613a20496e76616c6964205f756e69717565496473746f726546696c654d657461646174613a20496e76616c69642073656e646572726574726965766546696c6544657461696c733a2046696c65204e6f7420466f756e64726574726965766546696c6544657461696c733a20556e617574686f72697a65642063616c6c6572206164647265737373746f726546696c654d657461646174613a20496e76616c6964205f66696c654e616d6573746f726546696c654d657461646174613a20496e76616c6964205f66696c6548617368a2646970667358221220dd83cbdb1abf59a0fca0d3885e49f1369ca4750cefa5583b548aa931f247671564736f6c63430008160033",
			"opcodes": "PUSH2 0x65B PUSH2 0x35 PUSH1 0xB DUP3 DUP3 DUP3 CODECOPY DUP1 MLOAD PUSH0 BYTE PUSH1 0x73 EQ PUSH2 0x29 JUMPI PUSH4 0x4E487B71 PUSH1 0xE0 SHL PUSH0 MSTORE PUSH0 PUSH1 0x4 MSTORE PUSH1 0x24 PUSH0 REVERT JUMPDEST ADDRESS PUSH0 MSTORE PUSH1 0x73 DUP2 MSTORE8 DUP3 DUP2 RETURN INVALID PUSH20 0x0 ADDRESS EQ PUSH1 0x80 PUSH1 0x40 MSTORE PUSH1 0x4 CALLDATASIZE LT PUSH2 0x131 JUMPI PUSH0 CALLDATALOAD PUSH1 0xE0 SHR DUP1 PUSH4 0xB16A8C9 EQ PUSH2 0x135 JUMPI DUP1 PUSH4 0x1040106A EQ PUSH2 0x153 JUMPI DUP1 PUSH4 0x1FDA8E9C EQ PUSH2 0x18D JUMPI DUP1 PUSH4 0x1FF40D02 EQ PUSH2 0x1A2 JUMPI DUP1 PUSH4 0x2CEB53A0 EQ PUSH2 0x1B7 JUMPI DUP1 PUSH4 0x35465249 EQ PUSH2 0x1BF JUMPI DUP1 PUSH4 0x37B2CAE8 EQ PUSH2 0x1C8 JUMPI DUP1 PUSH4 0x37C6B7B7 EQ PUSH2 0x1FB JUMPI DUP1 PUSH4 0x4F44D5D5 EQ PUSH2 0x227 JUMPI DUP1 PUSH4 0x5B2B5003 EQ PUSH2 0x22F JUMPI DUP1 PUSH4 0x703ACAD8 EQ PUSH2 0x237 JUMPI DUP1 PUSH4 0x72D34496 EQ PUSH2 0x23F JUMPI DUP1 PUSH4 0x804D2F4B EQ PUSH2 0x271 JUMPI DUP1 PUSH4 0x99267723 EQ PUSH2 0x2AA JUMPI DUP1 PUSH4 0xB483D300 EQ PUSH2 0x2CD JUMPI DUP1 PUSH4 0xB70B31E3 EQ PUSH2 0x2E8 JUMPI DUP1 PUSH4 0xBCF101F7 EQ PUSH2 0x323 JUMPI DUP1 PUSH4 0xC615B579 EQ PUSH2 0x32B JUMPI DUP1 PUSH4 0xCB656E52 EQ PUSH2 0x333 JUMPI DUP1 PUSH4 0xE9E4A0D1 EQ PUSH2 0x34E JUMPI DUP1 PUSH4 0xEB44CB4E EQ PUSH2 0x356 JUMPI DUP1 PUSH4 0xED32BFC8 EQ PUSH2 0x35E JUMPI DUP1 PUSH4 0xEE6CDF83 EQ PUSH2 0x381 JUMPI DUP1 PUSH4 0xF9A9AF1E EQ PUSH2 0x38A JUMPI JUMPDEST PUSH0 DUP1 REVERT JUMPDEST PUSH2 0x13D PUSH2 0x392 JUMP JUMPDEST PUSH1 0x40 MLOAD PUSH2 0x14A SWAP2 SWAP1 PUSH2 0x48E JUMP JUMPDEST PUSH1 0x40 MLOAD DUP1 SWAP2 SUB SWAP1 RETURN JUMPDEST PUSH2 0x13D PUSH1 0x40 MLOAD DUP1 PUSH1 0x40 ADD PUSH1 0x40 MSTORE DUP1 PUSH1 0x1B DUP2 MSTORE PUSH1 0x20 ADD PUSH27 0x19195B195D19519A5B194E88125B9D985B1A5908199A5B19481A59 PUSH1 0x2A SHL DUP2 MSTORE POP DUP2 JUMP JUMPDEST PUSH2 0x194 PUSH0 DUP2 JUMP JUMPDEST PUSH1 0x40 MLOAD SWAP1 DUP2 MSTORE PUSH1 0x20 ADD PUSH2 0x14A JUMP JUMPDEST PUSH2 0x13D PUSH1 0x40 MLOAD DUP1 PUSH1 0x20 ADD PUSH1 0x40 MSTORE DUP1 PUSH0 DUP2 MSTORE POP DUP2 JUMP JUMPDEST PUSH2 0x13D PUSH2 0x3AE JUMP JUMPDEST PUSH2 0x194 PUSH2 0x1388 DUP2 JUMP JUMPDEST PUSH2 0x1E3 PUSH20 0x2F8A81F66AD6E19A063E11F006B2726D1D25A5CF DUP2 JUMP JUMPDEST PUSH1 0x40 MLOAD PUSH1 0x1 PUSH1 0x1 PUSH1 0xA0 SHL SUB SWAP1 SWAP2 AND DUP2 MSTORE PUSH1 0x20 ADD PUSH2 0x14A JUMP JUMPDEST PUSH2 0x13D PUSH1 0x40 MLOAD DUP1 PUSH1 0x40 ADD PUSH1 0x40 MSTORE DUP1 PUSH1 0xD DUP2 MSTORE PUSH1 0x20 ADD PUSH13 0x19195B5BD7DD195CDD0B9D1E1D PUSH1 0x9A SHL DUP2 MSTORE POP DUP2 JUMP JUMPDEST PUSH2 0x194 PUSH1 0xC8 DUP2 JUMP JUMPDEST PUSH2 0x13D PUSH2 0x3CA JUMP JUMPDEST PUSH2 0x13D PUSH2 0x3E6 JUMP JUMPDEST PUSH2 0x13D PUSH1 0x40 MLOAD DUP1 PUSH1 0x40 ADD PUSH1 0x40 MSTORE DUP1 PUSH1 0x13 DUP2 MSTORE PUSH1 0x20 ADD PUSH19 0x1D5A4C4C998B4C9A998DD90B585A990C185CD9 PUSH1 0x6A SHL DUP2 MSTORE POP DUP2 JUMP JUMPDEST PUSH2 0x13D PUSH1 0x40 MLOAD DUP1 PUSH1 0x40 ADD PUSH1 0x40 MSTORE DUP1 PUSH1 0x1A DUP2 MSTORE PUSH1 0x20 ADD PUSH26 0x19195B195D19519A5B194E88119A5B1948139BDD08199BDD5B99 PUSH1 0x32 SHL DUP2 MSTORE POP DUP2 JUMP JUMPDEST PUSH2 0x13D PUSH1 0x40 MLOAD DUP1 PUSH1 0x40 ADD PUSH1 0x40 MSTORE DUP1 PUSH1 0x4 DUP2 MSTORE PUSH1 0x20 ADD PUSH4 0xDD09A5D PUSH1 0xE2 SHL DUP2 MSTORE POP DUP2 JUMP JUMPDEST PUSH2 0x1E3 PUSH20 0x38A2E968077A7A13B8D7326C35C921DA0000847E DUP2 JUMP JUMPDEST PUSH2 0x13D PUSH1 0x40 MLOAD DUP1 PUSH1 0x40 ADD PUSH1 0x40 MSTORE DUP1 PUSH1 0x1C DUP2 MSTORE PUSH1 0x20 ADD PUSH28 0x1CDD1BDC99519A5B194E88111D5C1B1A58D85D1948119A5B19481259 PUSH1 0x22 SHL DUP2 MSTORE POP DUP2 JUMP JUMPDEST PUSH2 0x13D PUSH2 0x402 JUMP JUMPDEST PUSH2 0x13D PUSH2 0x41E JUMP JUMPDEST PUSH2 0x1E3 PUSH20 0x3E57A0F582DB4D97B5E3A0A7F95A731DE9CB7339 DUP2 JUMP JUMPDEST PUSH2 0x13D PUSH2 0x43A JUMP JUMPDEST PUSH2 0x13D PUSH2 0x456 JUMP JUMPDEST PUSH2 0x13D PUSH1 0x40 MLOAD DUP1 PUSH1 0x40 ADD PUSH1 0x40 MSTORE DUP1 PUSH1 0x4 DUP2 MSTORE PUSH1 0x20 ADD PUSH4 0xB9D1E1D PUSH1 0xE2 SHL DUP2 MSTORE POP DUP2 JUMP JUMPDEST PUSH2 0x194 PUSH2 0x2710 DUP2 JUMP JUMPDEST PUSH2 0x13D PUSH2 0x472 JUMP JUMPDEST PUSH1 0x40 MLOAD DUP1 PUSH1 0x60 ADD PUSH1 0x40 MSTORE DUP1 PUSH1 0x30 DUP2 MSTORE PUSH1 0x20 ADD PUSH2 0x5AE PUSH1 0x30 SWAP2 CODECOPY DUP2 JUMP JUMPDEST PUSH1 0x40 MLOAD DUP1 PUSH1 0x60 ADD PUSH1 0x40 MSTORE DUP1 PUSH1 0x24 DUP2 MSTORE PUSH1 0x20 ADD PUSH2 0x602 PUSH1 0x24 SWAP2 CODECOPY DUP2 JUMP JUMPDEST PUSH1 0x40 MLOAD DUP1 PUSH1 0x60 ADD PUSH1 0x40 MSTORE DUP1 PUSH1 0x24 DUP2 MSTORE PUSH1 0x20 ADD PUSH2 0x5DE PUSH1 0x24 SWAP2 CODECOPY DUP2 JUMP JUMPDEST PUSH1 0x40 MLOAD DUP1 PUSH1 0x60 ADD PUSH1 0x40 MSTORE DUP1 PUSH1 0x24 DUP2 MSTORE PUSH1 0x20 ADD PUSH2 0x546 PUSH1 0x24 SWAP2 CODECOPY DUP2 JUMP JUMPDEST PUSH1 0x40 MLOAD DUP1 PUSH1 0x60 ADD PUSH1 0x40 MSTORE DUP1 PUSH1 0x23 DUP2 MSTORE PUSH1 0x20 ADD PUSH2 0x523 PUSH1 0x23 SWAP2 CODECOPY DUP2 JUMP JUMPDEST PUSH1 0x40 MLOAD DUP1 PUSH1 0x60 ADD PUSH1 0x40 MSTORE DUP1 PUSH1 0x21 DUP2 MSTORE PUSH1 0x20 ADD PUSH2 0x56A PUSH1 0x21 SWAP2 CODECOPY DUP2 JUMP JUMPDEST PUSH1 0x40 MLOAD DUP1 PUSH1 0x60 ADD PUSH1 0x40 MSTORE DUP1 PUSH1 0x24 DUP2 MSTORE PUSH1 0x20 ADD PUSH2 0x4DB PUSH1 0x24 SWAP2 CODECOPY DUP2 JUMP JUMPDEST PUSH1 0x40 MLOAD DUP1 PUSH1 0x60 ADD PUSH1 0x40 MSTORE DUP1 PUSH1 0x24 DUP2 MSTORE PUSH1 0x20 ADD PUSH2 0x4FF PUSH1 0x24 SWAP2 CODECOPY DUP2 JUMP JUMPDEST PUSH1 0x40 MLOAD DUP1 PUSH1 0x60 ADD PUSH1 0x40 MSTORE DUP1 PUSH1 0x23 DUP2 MSTORE PUSH1 0x20 ADD PUSH2 0x58B PUSH1 0x23 SWAP2 CODECOPY DUP2 JUMP JUMPDEST PUSH0 PUSH1 0x20 DUP1 DUP4 MSTORE DUP4 MLOAD DUP1 PUSH1 0x20 DUP6 ADD MSTORE PUSH0 JUMPDEST DUP2 DUP2 LT ISZERO PUSH2 0x4BA JUMPI DUP6 DUP2 ADD DUP4 ADD MLOAD DUP6 DUP3 ADD PUSH1 0x40 ADD MSTORE DUP3 ADD PUSH2 0x49E JUMP JUMPDEST POP PUSH0 PUSH1 0x40 DUP3 DUP7 ADD ADD MSTORE PUSH1 0x40 PUSH1 0x1F NOT PUSH1 0x1F DUP4 ADD AND DUP6 ADD ADD SWAP3 POP POP POP SWAP3 SWAP2 POP POP JUMP INVALID PUSH20 0x746F726546696C654D657461646174613A20496E PUSH23 0x616C6964205F66696C6553697A6573746F726546696C65 0x4D PUSH6 0x746164617461 GASPRICE KECCAK256 0x49 PUSH15 0x76616C6964205F66696C6554797065 PUSH20 0x746F726546696C653A204E6F20617661696C6162 PUSH13 0x65206E6F64657320666F756E64 PUSH20 0x746F726546696C654D657461646174613A20496E PUSH23 0x616C6964205F756E69717565496473746F726546696C65 0x4D PUSH6 0x746164617461 GASPRICE KECCAK256 0x49 PUSH15 0x76616C69642073656E646572726574 PUSH19 0x6965766546696C6544657461696C733A204669 PUSH13 0x65204E6F7420466F756E647265 PUSH21 0x726965766546696C6544657461696C733A20556E61 PUSH22 0x74686F72697A65642063616C6C657220616464726573 PUSH20 0x73746F726546696C654D657461646174613A2049 PUSH15 0x76616C6964205F66696C654E616D65 PUSH20 0x746F726546696C654D657461646174613A20496E PUSH23 0x616C6964205F66696C6548617368A26469706673582212 KECCAK256 0xDD DUP4 0xCB 0xDB BYTE 0xBF MSIZE LOG0 0xFC LOG0 0xD3 DUP9 0x5E 0x49 CALL CALLDATASIZE SWAP13 LOG4 PUSH22 0xCEFA5583B548AA931F247671564736F6C6343000816 STOP CALLER "
		},
		"gasEstimates": {
			"creation": {
				"codeDepositCost": "325400",
				"executionCost": "392",
				"totalCost": "325792"
			},
			"external": {
				"DELETE_FILE_INVALID_FILE_ID()": "infinite",
				"DELETE_FILE_NOT_FOUND()": "infinite",
				"RETRIEVE_FILE_DETAILS_FILE_NOT_FOUND()": "infinite",
				"RETRIEVE_FILE_DETAILS_UNAUTHORIZED_CALLER_ADDRESS()": "infinite",
				"STORE_FILE_DUPLICATE_FILE_ID()": "infinite",
				"STORE_FILE_METADATA_INVALID_FILE_HASH()": "infinite",
				"STORE_FILE_METADATA_INVALID_FILE_ID()": "infinite",
				"STORE_FILE_METADATA_INVALID_FILE_NAME()": "infinite",
				"STORE_FILE_METADATA_INVALID_FILE_SIZE()": "infinite",
				"STORE_FILE_METADATA_INVALID_FILE_TYPE()": "infinite",
				"STORE_FILE_METADATA_INVALID_SENDER()": "infinite",
				"STORE_FILE_NO_NODES_FOUND()": "infinite",
				"TEST_EMPTY_STRING()": "400",
				"TEST_FILE_1_ENCODING()": "infinite",
				"TEST_FILE_1_ID()": "infinite",
				"TEST_FILE_1_NAME()": "infinite",
				"TEST_FILE_1_SIZE()": "332",
				"TEST_FILE_1_TYPE()": "infinite",
				"TEST_RANDOM_ADDRESS_1()": "485",
				"TEST_RANDOM_ADDRESS_2()": "573",
				"TEST_RANDOM_ADDRESS_3()": "309",
				"TEST_RANDOM_NODE_SIZE_10000()": "640",
				"TEST_RANDOM_NODE_SIZE_5000()": "266",
				"TEST_ZERO_SIZE()": "199"
			}
		},
		"methodIdentifiers": {
			"DELETE_FILE_INVALID_FILE_ID()": "1040106a",
			"DELETE_FILE_NOT_FOUND()": "804d2f4b",
			"RETRIEVE_FILE_DETAILS_FILE_NOT_FOUND()": "f9a9af1e",
			"RETRIEVE_FILE_DETAILS_UNAUTHORIZED_CALLER_ADDRESS()": "0b16a8c9",
			"STORE_FILE_DUPLICATE_FILE_ID()": "b70b31e3",
			"STORE_FILE_METADATA_INVALID_FILE_HASH()": "2ceb53a0",
			"STORE_FILE_METADATA_INVALID_FILE_ID()": "703acad8",
			"STORE_FILE_METADATA_INVALID_FILE_NAME()": "5b2b5003",
			"STORE_FILE_METADATA_INVALID_FILE_SIZE()": "e9e4a0d1",
			"STORE_FILE_METADATA_INVALID_FILE_TYPE()": "eb44cb4e",
			"STORE_FILE_METADATA_INVALID_SENDER()": "c615b579",
			"STORE_FILE_NO_NODES_FOUND()": "bcf101f7",
			"TEST_EMPTY_STRING()": "1ff40d02",
			"TEST_FILE_1_ENCODING()": "99267723",
			"TEST_FILE_1_ID()": "72d34496",
			"TEST_FILE_1_NAME()": "37c6b7b7",
			"TEST_FILE_1_SIZE()": "4f44d5d5",
			"TEST_FILE_1_TYPE()": "ed32bfc8",
			"TEST_RANDOM_ADDRESS_1()": "b483d300",
			"TEST_RANDOM_ADDRESS_2()": "cb656e52",
			"TEST_RANDOM_ADDRESS_3()": "37b2cae8",
			"TEST_RANDOM_NODE_SIZE_10000()": "ee6cdf83",
			"TEST_RANDOM_NODE_SIZE_5000()": "35465249",
			"TEST_ZERO_SIZE()": "1fda8e9c"
		}
	},
	"abi": [
		{
			"inputs": [],
			"name": "DELETE_FILE_INVALID_FILE_ID",
			"outputs": [
				{
					"internalType": "string",
					"name": "",
					"type": "string"
				}
			],
			"stateMutability": "view",
			"type": "function"
		},
		{
			"inputs": [],
			"name": "DELETE_FILE_NOT_FOUND",
			"outputs": [
				{
					"internalType": "string",
					"name": "",
					"type": "string"
				}
			],
			"stateMutability": "view",
			"type": "function"
		},
		{
			"inputs": [],
			"name": "RETRIEVE_FILE_DETAILS_FILE_NOT_FOUND",
			"outputs": [
				{
					"internalType": "string",
					"name": "",
					"type": "string"
				}
			],
			"stateMutability": "view",
			"type": "function"
		},
		{
			"inputs": [],
			"name": "RETRIEVE_FILE_DETAILS_UNAUTHORIZED_CALLER_ADDRESS",
			"outputs": [
				{
					"internalType": "string",
					"name": "",
					"type": "string"
				}
			],
			"stateMutability": "view",
			"type": "function"
		},
		{
			"inputs": [],
			"name": "STORE_FILE_DUPLICATE_FILE_ID",
			"outputs": [
				{
					"internalType": "string",
					"name": "",
					"type": "string"
				}
			],
			"stateMutability": "view",
			"type": "function"
		},
		{
			"inputs": [],
			"name": "STORE_FILE_METADATA_INVALID_FILE_HASH",
			"outputs": [
				{
					"internalType": "string",
					"name": "",
					"type": "string"
				}
			],
			"stateMutability": "view",
			"type": "function"
		},
		{
			"inputs": [],
			"name": "STORE_FILE_METADATA_INVALID_FILE_ID",
			"outputs": [
				{
					"internalType": "string",
					"name": "",
					"type": "string"
				}
			],
			"stateMutability": "view",
			"type": "function"
		},
		{
			"inputs": [],
			"name": "STORE_FILE_METADATA_INVALID_FILE_NAME",
			"outputs": [
				{
					"internalType": "string",
					"name": "",
					"type": "string"
				}
			],
			"stateMutability": "view",
			"type": "function"
		},
		{
			"inputs": [],
			"name": "STORE_FILE_METADATA_INVALID_FILE_SIZE",
			"outputs": [
				{
					"internalType": "string",
					"name": "",
					"type": "string"
				}
			],
			"stateMutability": "view",
			"type": "function"
		},
		{
			"inputs": [],
			"name": "STORE_FILE_METADATA_INVALID_FILE_TYPE",
			"outputs": [
				{
					"internalType": "string",
					"name": "",
					"type": "string"
				}
			],
			"stateMutability": "view",
			"type": "function"
		},
		{
			"inputs": [],
			"name": "STORE_FILE_METADATA_INVALID_SENDER",
			"outputs": [
				{
					"internalType": "string",
					"name": "",
					"type": "string"
				}
			],
			"stateMutability": "view",
			"type": "function"
		},
		{
			"inputs": [],
			"name": "STORE_FILE_NO_NODES_FOUND",
			"outputs": [
				{
					"internalType": "string",
					"name": "",
					"type": "string"
				}
			],
			"stateMutability": "view",
			"type": "function"
		},
		{
			"inputs": [],
			"name": "TEST_EMPTY_STRING",
			"outputs": [
				{
					"internalType": "string",
					"name": "",
					"type": "string"
				}
			],
			"stateMutability": "view",
			"type": "function"
		},
		{
			"inputs": [],
			"name": "TEST_FILE_1_ENCODING",
			"outputs": [
				{
					"internalType": "string",
					"name": "",
					"type": "string"
				}
			],
			"stateMutability": "view",
			"type": "function"
		},
		{
			"inputs": [],
			"name": "TEST_FILE_1_ID",
			"outputs": [
				{
					"internalType": "string",
					"name": "",
					"type": "string"
				}
			],
			"stateMutability": "view",
			"type": "function"
		},
		{
			"inputs": [],
			"name": "TEST_FILE_1_NAME",
			"outputs": [
				{
					"internalType": "string",
					"name": "",
					"type": "string"
				}
			],
			"stateMutability": "view",
			"type": "function"
		},
		{
			"inputs": [],
			"name": "TEST_FILE_1_SIZE",
			"outputs": [
				{
					"internalType": "uint256",
					"name": "",
					"type": "uint256"
				}
			],
			"stateMutability": "view",
			"type": "function"
		},
		{
			"inputs": [],
			"name": "TEST_FILE_1_TYPE",
			"outputs": [
				{
					"internalType": "string",
					"name": "",
					"type": "string"
				}
			],
			"stateMutability": "view",
			"type": "function"
		},
		{
			"inputs": [],
			"name": "TEST_RANDOM_ADDRESS_1",
			"outputs": [
				{
					"internalType": "address",
					"name": "",
					"type": "address"
				}
			],
			"stateMutability": "view",
			"type": "function"
		},
		{
			"inputs": [],
			"name": "TEST_RANDOM_ADDRESS_2",
			"outputs": [
				{
					"internalType": "address",
					"name": "",
					"type": "address"
				}
			],
			"stateMutability": "view",
			"type": "function"
		},
		{
			"inputs": [],
			"name": "TEST_RANDOM_ADDRESS_3",
			"outputs": [
				{
					"internalType": "address",
					"name": "",
					"type": "address"
				}
			],
			"stateMutability": "view",
			"type": "function"
		},
		{
			"inputs": [],
			"name": "TEST_RANDOM_NODE_SIZE_10000",
			"outputs": [
				{
					"internalType": "uint256",
					"name": "",
					"type": "uint256"
				}
			],
			"stateMutability": "view",
			"type": "function"
		},
		{
			"inputs": [],
			"name": "TEST_RANDOM_NODE_SIZE_5000",
			"outputs": [
				{
					"internalType": "uint256",
					"name": "",
					"type": "uint256"
				}
			],
			"stateMutability": "view",
			"type": "function"
		},
		{
			"inputs": [],
			"name": "TEST_ZERO_SIZE",
			"outputs": [
				{
					"internalType": "uint256",
					"name": "",
					"type": "uint256"
				}
			],
			"stateMutability": "view",
			"type": "function"
		}
	]
}