{
	"utils/Constants.sol": {
		"Constants": {
			"abi": [
				{
					"inputs": [],
					"name": "DELETE_FILE_INVALID_FILE_ID",
					"outputs": [
						{
							"internalType": "string",
							"name": "",
							"type": "string"
						}
					],
					"stateMutability": "view",
					"type": "function"
				},
				{
					"inputs": [],
					"name": "DELETE_FILE_NOT_FOUND",
					"outputs": [
						{
							"internalType": "string",
							"name": "",
							"type": "string"
						}
					],
					"stateMutability": "view",
					"type": "function"
				},
				{
					"inputs": [],
					"name": "RETRIEVE_FILE_DETAILS_FILE_NOT_FOUND",
					"outputs": [
						{
							"internalType": "string",
							"name": "",
							"type": "string"
						}
					],
					"stateMutability": "view",
					"type": "function"
				},
				{
					"inputs": [],
					"name": "RETRIEVE_FILE_DETAILS_UNAUTHORIZED_CALLER_ADDRESS",
					"outputs": [
						{
							"internalType": "string",
							"name": "",
							"type": "string"
						}
					],
					"stateMutability": "view",
					"type": "function"
				},
				{
					"inputs": [],
					"name": "STORE_FILE_DUPLICATE_FILE_ID",
					"outputs": [
						{
							"internalType": "string",
							"name": "",
							"type": "string"
						}
					],
					"stateMutability": "view",
					"type": "function"
				},
				{
					"inputs": [],
					"name": "STORE_FILE_INVALID_CHUNKS",
					"outputs": [
						{
							"internalType": "string",
							"name": "",
							"type": "string"
						}
					],
					"stateMutability": "view",
					"type": "function"
				},
				{
					"inputs": [],
					"name": "STORE_FILE_METADATA_INVALID_FILE_HASH",
					"outputs": [
						{
							"internalType": "string",
							"name": "",
							"type": "string"
						}
					],
					"stateMutability": "view",
					"type": "function"
				},
				{
					"inputs": [],
					"name": "STORE_FILE_METADATA_INVALID_FILE_ID",
					"outputs": [
						{
							"internalType": "string",
							"name": "",
							"type": "string"
						}
					],
					"stateMutability": "view",
					"type": "function"
				},
				{
					"inputs": [],
					"name": "STORE_FILE_METADATA_INVALID_FILE_NAME",
					"outputs": [
						{
							"internalType": "string",
							"name": "",
							"type": "string"
						}
					],
					"stateMutability": "view",
					"type": "function"
				},
				{
					"inputs": [],
					"name": "STORE_FILE_METADATA_INVALID_FILE_SIZE",
					"outputs": [
						{
							"internalType": "string",
							"name": "",
							"type": "string"
						}
					],
					"stateMutability": "view",
					"type": "function"
				},
				{
					"inputs": [],
					"name": "STORE_FILE_METADATA_INVALID_FILE_TYPE",
					"outputs": [
						{
							"internalType": "string",
							"name": "",
							"type": "string"
						}
					],
					"stateMutability": "view",
					"type": "function"
				},
				{
					"inputs": [],
					"name": "STORE_FILE_METADATA_INVALID_SENDER",
					"outputs": [
						{
							"internalType": "string",
							"name": "",
							"type": "string"
						}
					],
					"stateMutability": "view",
					"type": "function"
				},
				{
					"inputs": [],
					"name": "STORE_FILE_NO_NODES_FOUND",
					"outputs": [
						{
							"internalType": "string",
							"name": "",
							"type": "string"
						}
					],
					"stateMutability": "view",
					"type": "function"
				},
				{
					"inputs": [],
					"name": "TEST_EMPTY_STRING",
					"outputs": [
						{
							"internalType": "string",
							"name": "",
							"type": "string"
						}
					],
					"stateMutability": "view",
					"type": "function"
				},
				{
					"inputs": [],
					"name": "TEST_FILE_1_ENCODING",
					"outputs": [
						{
							"internalType": "string",
							"name": "",
							"type": "string"
						}
					],
					"stateMutability": "view",
					"type": "function"
				},
				{
					"inputs": [],
					"name": "TEST_FILE_1_HASH",
					"outputs": [
						{
							"internalType": "bytes32",
							"name": "",
							"type": "bytes32"
						}
					],
					"stateMutability": "view",
					"type": "function"
				},
				{
					"inputs": [],
					"name": "TEST_FILE_1_ID",
					"outputs": [
						{
							"internalType": "string",
							"name": "",
							"type": "string"
						}
					],
					"stateMutability": "view",
					"type": "function"
				},
				{
					"inputs": [],
					"name": "TEST_FILE_1_NAME",
					"outputs": [
						{
							"internalType": "string",
							"name": "",
							"type": "string"
						}
					],
					"stateMutability": "view",
					"type": "function"
				},
				{
					"inputs": [],
					"name": "TEST_FILE_1_SIZE",
					"outputs": [
						{
							"internalType": "uint256",
							"name": "",
							"type": "uint256"
						}
					],
					"stateMutability": "view",
					"type": "function"
				},
				{
					"inputs": [],
					"name": "TEST_FILE_1_TYPE",
					"outputs": [
						{
							"internalType": "string",
							"name": "",
							"type": "string"
						}
					],
					"stateMutability": "view",
					"type": "function"
				},
				{
					"inputs": [],
					"name": "TEST_RANDOM_ADDRESS_1",
					"outputs": [
						{
							"internalType": "address",
							"name": "",
							"type": "address"
						}
					],
					"stateMutability": "view",
					"type": "function"
				},
				{
					"inputs": [],
					"name": "TEST_RANDOM_ADDRESS_2",
					"outputs": [
						{
							"internalType": "address",
							"name": "",
							"type": "address"
						}
					],
					"stateMutability": "view",
					"type": "function"
				},
				{
					"inputs": [],
					"name": "TEST_RANDOM_ADDRESS_3",
					"outputs": [
						{
							"internalType": "address",
							"name": "",
							"type": "address"
						}
					],
					"stateMutability": "view",
					"type": "function"
				},
				{
					"inputs": [],
					"name": "TEST_RANDOM_NODE_SIZE_10000",
					"outputs": [
						{
							"internalType": "uint256",
							"name": "",
							"type": "uint256"
						}
					],
					"stateMutability": "view",
					"type": "function"
				},
				{
					"inputs": [],
					"name": "TEST_RANDOM_NODE_SIZE_5000",
					"outputs": [
						{
							"internalType": "uint256",
							"name": "",
							"type": "uint256"
						}
					],
					"stateMutability": "view",
					"type": "function"
				},
				{
					"inputs": [],
					"name": "TEST_ZERO_SIZE",
					"outputs": [
						{
							"internalType": "uint256",
							"name": "",
							"type": "uint256"
						}
					],
					"stateMutability": "view",
					"type": "function"
				}
			],
			"devdoc": {
				"kind": "dev",
				"methods": {},
				"version": 1
			},
			"evm": {
				"assembly": "    /* \"utils/Constants.sol\":57:2423  library Constants {... */\n  dataSize(sub_0)\n  dataOffset(sub_0)\n  0x0b\n  dup3\n  dup3\n  dup3\n  codecopy\n  dup1\n  mload\n  0x00\n  byte\n  0x73\n  eq\n  tag_1\n  jumpi\n  mstore(0x00, 0x4e487b7100000000000000000000000000000000000000000000000000000000)\n  mstore(0x04, 0x00)\n  revert(0x00, 0x24)\ntag_1:\n  mstore(0x00, address)\n  0x73\n  dup2\n  mstore8\n  dup3\n  dup2\n  return\nstop\n\nsub_0: assembly {\n        /* \"utils/Constants.sol\":57:2423  library Constants {... */\n      eq(address, deployTimeAddress())\n      mstore(0x40, 0x80)\n      jumpi(tag_1, lt(calldatasize, 0x04))\n      shr(0xe0, calldataload(0x00))\n      dup1\n      0x804d2f4b\n      gt\n      tag_28\n      jumpi\n      dup1\n      0xcb656e52\n      gt\n      tag_29\n      jumpi\n      dup1\n      0xeb44cb4e\n      gt\n      tag_30\n      jumpi\n      dup1\n      0xeb44cb4e\n      eq\n      tag_24\n      jumpi\n      dup1\n      0xed32bfc8\n      eq\n      tag_25\n      jumpi\n      dup1\n      0xee6cdf83\n      eq\n      tag_26\n      jumpi\n      dup1\n      0xf9a9af1e\n      eq\n      tag_27\n      jumpi\n      jump(tag_1)\n    tag_30:\n      dup1\n      0xcb656e52\n      eq\n      tag_21\n      jumpi\n      dup1\n      0xe2811206\n      eq\n      tag_22\n      jumpi\n      dup1\n      0xe9e4a0d1\n      eq\n      tag_23\n      jumpi\n      jump(tag_1)\n    tag_29:\n      dup1\n      0x804d2f4b\n      eq\n      tag_15\n      jumpi\n      dup1\n      0x99267723\n      eq\n      tag_16\n      jumpi\n      dup1\n      0xb483d300\n      eq\n      tag_17\n      jumpi\n      dup1\n      0xb70b31e3\n      eq\n      tag_18\n      jumpi\n      dup1\n      0xbcf101f7\n      eq\n      tag_19\n      jumpi\n      dup1\n      0xc615b579\n      eq\n      tag_20\n      jumpi\n      jump(tag_1)\n    tag_28:\n      dup1\n      0x35465249\n      gt\n      tag_31\n      jumpi\n      dup1\n      0x4f44d5d5\n      gt\n      tag_32\n      jumpi\n      dup1\n      0x4f44d5d5\n      eq\n      tag_11\n      jumpi\n      dup1\n      0x5b2b5003\n      eq\n      tag_12\n      jumpi\n      dup1\n      0x703acad8\n      eq\n      tag_13\n      jumpi\n      dup1\n      0x72d34496\n      eq\n      tag_14\n      jumpi\n      jump(tag_1)\n    tag_32:\n      dup1\n      0x35465249\n      eq\n      tag_8\n      jumpi\n      dup1\n      0x37b2cae8\n      eq\n      tag_9\n      jumpi\n      dup1\n      0x37c6b7b7\n      eq\n      tag_10\n      jumpi\n      jump(tag_1)\n    tag_31:\n      dup1\n      0x0b16a8c9\n      eq\n      tag_2\n      jumpi\n      dup1\n      0x1040106a\n      eq\n      tag_3\n      jumpi\n      dup1\n      0x1cf30540\n      eq\n      tag_4\n      jumpi\n      dup1\n      0x1fda8e9c\n      eq\n      tag_5\n      jumpi\n      dup1\n      0x1ff40d02\n      eq\n      tag_6\n      jumpi\n      dup1\n      0x2ceb53a0\n      eq\n      tag_7\n      jumpi\n    tag_1:\n      0x00\n      dup1\n      revert\n        /* \"utils/Constants.sol\":1178:1311  string public constant RETRIEVE_FILE_DETAILS_UNAUTHORIZED_CALLER_ADDRESS =... */\n    tag_2:\n      tag_33\n      tag_34\n      jump\t// in\n    tag_33:\n      mload(0x40)\n      tag_35\n      swap2\n      swap1\n      tag_36\n      jump\t// in\n    tag_35:\n      mload(0x40)\n      dup1\n      swap2\n      sub\n      swap1\n      return\n        /* \"utils/Constants.sol\":1318:1408  string public constant DELETE_FILE_INVALID_FILE_ID =... */\n    tag_3:\n      tag_37\n      tag_38\n      jump\t// in\n    tag_37:\n      mload(0x40)\n      tag_39\n      swap2\n      swap1\n      tag_36\n      jump\t// in\n    tag_39:\n      mload(0x40)\n      dup1\n      swap2\n      sub\n      swap1\n      return\n        /* \"utils/Constants.sol\":2255:2320  bytes32 public constant TEST_FILE_1_HASH = \"120182$2fs83389fkdjd\" */\n    tag_4:\n      tag_40\n      tag_41\n      jump\t// in\n    tag_40:\n      mload(0x40)\n      tag_42\n      swap2\n      swap1\n      tag_43\n      jump\t// in\n    tag_42:\n      mload(0x40)\n      dup1\n      swap2\n      sub\n      swap1\n      return\n        /* \"utils/Constants.sol\":2378:2420  uint256 public constant TEST_ZERO_SIZE = 0 */\n    tag_5:\n      tag_44\n      tag_45\n      jump\t// in\n    tag_44:\n      mload(0x40)\n      tag_46\n      swap2\n      swap1\n      tag_47\n      jump\t// in\n    tag_46:\n      mload(0x40)\n      dup1\n      swap2\n      sub\n      swap1\n      return\n        /* \"utils/Constants.sol\":2327:2372  string public constant TEST_EMPTY_STRING = \"\" */\n    tag_6:\n      tag_48\n      tag_49\n      jump\t// in\n    tag_48:\n      mload(0x40)\n      tag_50\n      swap2\n      swap1\n      tag_36\n      jump\t// in\n    tag_50:\n      mload(0x40)\n      dup1\n      swap2\n      sub\n      swap1\n      return\n        /* \"utils/Constants.sol\":718:827  string public constant STORE_FILE_METADATA_INVALID_FILE_HASH =... */\n    tag_7:\n      tag_51\n      tag_52\n      jump\t// in\n    tag_51:\n      mload(0x40)\n      tag_53\n      swap2\n      swap1\n      tag_36\n      jump\t// in\n    tag_53:\n      mload(0x40)\n      dup1\n      swap2\n      sub\n      swap1\n      return\n        /* \"utils/Constants.sol\":1898:1955  uint256 public constant TEST_RANDOM_NODE_SIZE_5000 = 5000 */\n    tag_8:\n      tag_54\n      tag_55\n      jump\t// in\n    tag_54:\n      mload(0x40)\n      tag_56\n      swap2\n      swap1\n      tag_47\n      jump\t// in\n    tag_56:\n      mload(0x40)\n      dup1\n      swap2\n      sub\n      swap1\n      return\n        /* \"utils/Constants.sol\":1728:1826  address public constant TEST_RANDOM_ADDRESS_3 =... */\n    tag_9:\n      tag_57\n      tag_58\n      jump\t// in\n    tag_57:\n      mload(0x40)\n      tag_59\n      swap2\n      swap1\n      tag_60\n      jump\t// in\n    tag_59:\n      mload(0x40)\n      dup1\n      swap2\n      sub\n      swap1\n      return\n        /* \"utils/Constants.sol\":1961:2018  string public constant TEST_FILE_1_NAME = \"demo_test.txt\" */\n    tag_10:\n      tag_61\n      tag_62\n      jump\t// in\n    tag_61:\n      mload(0x40)\n      tag_63\n      swap2\n      swap1\n      tag_36\n      jump\t// in\n    tag_63:\n      mload(0x40)\n      dup1\n      swap2\n      sub\n      swap1\n      return\n        /* \"utils/Constants.sol\":2203:2249  uint256 public constant TEST_FILE_1_SIZE = 200 */\n    tag_11:\n      tag_64\n      tag_65\n      jump\t// in\n    tag_64:\n      mload(0x40)\n      tag_66\n      swap2\n      swap1\n      tag_47\n      jump\t// in\n    tag_66:\n      mload(0x40)\n      dup1\n      swap2\n      sub\n      swap1\n      return\n        /* \"utils/Constants.sol\":602:711  string public constant STORE_FILE_METADATA_INVALID_FILE_NAME =... */\n    tag_12:\n      tag_67\n      tag_68\n      jump\t// in\n    tag_67:\n      mload(0x40)\n      tag_69\n      swap2\n      swap1\n      tag_36\n      jump\t// in\n    tag_69:\n      mload(0x40)\n      dup1\n      swap2\n      sub\n      swap1\n      return\n        /* \"utils/Constants.sol\":950:1057  string public constant STORE_FILE_METADATA_INVALID_FILE_ID =... */\n    tag_13:\n      tag_70\n      tag_71\n      jump\t// in\n    tag_70:\n      mload(0x40)\n      tag_72\n      swap2\n      swap1\n      tag_36\n      jump\t// in\n    tag_72:\n      mload(0x40)\n      dup1\n      swap2\n      sub\n      swap1\n      return\n        /* \"utils/Constants.sol\":2136:2197  string public constant TEST_FILE_1_ID = \"ui12f-2jf7d-ajd0asd\" */\n    tag_14:\n      tag_73\n      tag_74\n      jump\t// in\n    tag_73:\n      mload(0x40)\n      tag_75\n      swap2\n      swap1\n      tag_36\n      jump\t// in\n    tag_75:\n      mload(0x40)\n      dup1\n      swap2\n      sub\n      swap1\n      return\n        /* \"utils/Constants.sol\":1415:1490  string public constant DELETE_FILE_NOT_FOUND = \"deleteFile: File Not found\" */\n    tag_15:\n      tag_76\n      tag_77\n      jump\t// in\n    tag_76:\n      mload(0x40)\n      tag_78\n      swap2\n      swap1\n      tag_36\n      jump\t// in\n    tag_78:\n      mload(0x40)\n      dup1\n      swap2\n      sub\n      swap1\n      return\n        /* \"utils/Constants.sol\":2078:2130  string public constant TEST_FILE_1_ENCODING = \"7Bit\" */\n    tag_16:\n      tag_79\n      tag_80\n      jump\t// in\n    tag_79:\n      mload(0x40)\n      tag_81\n      swap2\n      swap1\n      tag_36\n      jump\t// in\n    tag_81:\n      mload(0x40)\n      dup1\n      swap2\n      sub\n      swap1\n      return\n        /* \"utils/Constants.sol\":1520:1618  address public constant TEST_RANDOM_ADDRESS_1 =... */\n    tag_17:\n      tag_82\n      tag_83\n      jump\t// in\n    tag_82:\n      mload(0x40)\n      tag_84\n      swap2\n      swap1\n      tag_60\n      jump\t// in\n    tag_84:\n      mload(0x40)\n      dup1\n      swap2\n      sub\n      swap1\n      return\n        /* \"utils/Constants.sol\":277:369  string public constant STORE_FILE_DUPLICATE_FILE_ID =... */\n    tag_18:\n      tag_85\n      tag_86\n      jump\t// in\n    tag_85:\n      mload(0x40)\n      tag_87\n      swap2\n      swap1\n      tag_36\n      jump\t// in\n    tag_87:\n      mload(0x40)\n      dup1\n      swap2\n      sub\n      swap1\n      return\n        /* \"utils/Constants.sol\":81:177  string public constant STORE_FILE_NO_NODES_FOUND =... */\n    tag_19:\n      tag_88\n      tag_89\n      jump\t// in\n    tag_88:\n      mload(0x40)\n      tag_90\n      swap2\n      swap1\n      tag_36\n      jump\t// in\n    tag_90:\n      mload(0x40)\n      dup1\n      swap2\n      sub\n      swap1\n      return\n        /* \"utils/Constants.sol\":376:479  string public constant STORE_FILE_METADATA_INVALID_SENDER =... */\n    tag_20:\n      tag_91\n      tag_92\n      jump\t// in\n    tag_91:\n      mload(0x40)\n      tag_93\n      swap2\n      swap1\n      tag_36\n      jump\t// in\n    tag_93:\n      mload(0x40)\n      dup1\n      swap2\n      sub\n      swap1\n      return\n        /* \"utils/Constants.sol\":1624:1722  address public constant TEST_RANDOM_ADDRESS_2 =... */\n    tag_21:\n      tag_94\n      tag_95\n      jump\t// in\n    tag_94:\n      mload(0x40)\n      tag_96\n      swap2\n      swap1\n      tag_60\n      jump\t// in\n    tag_96:\n      mload(0x40)\n      dup1\n      swap2\n      sub\n      swap1\n      return\n        /* \"utils/Constants.sol\":184:270  string public constant STORE_FILE_INVALID_CHUNKS =... */\n    tag_22:\n      tag_97\n      tag_98\n      jump\t// in\n    tag_97:\n      mload(0x40)\n      tag_99\n      swap2\n      swap1\n      tag_36\n      jump\t// in\n    tag_99:\n      mload(0x40)\n      dup1\n      swap2\n      sub\n      swap1\n      return\n        /* \"utils/Constants.sol\":834:943  string public constant STORE_FILE_METADATA_INVALID_FILE_SIZE =... */\n    tag_23:\n      tag_100\n      tag_101\n      jump\t// in\n    tag_100:\n      mload(0x40)\n      tag_102\n      swap2\n      swap1\n      tag_36\n      jump\t// in\n    tag_102:\n      mload(0x40)\n      dup1\n      swap2\n      sub\n      swap1\n      return\n        /* \"utils/Constants.sol\":486:595  string public constant STORE_FILE_METADATA_INVALID_FILE_TYPE =... */\n    tag_24:\n      tag_103\n      tag_104\n      jump\t// in\n    tag_103:\n      mload(0x40)\n      tag_105\n      swap2\n      swap1\n      tag_36\n      jump\t// in\n    tag_105:\n      mload(0x40)\n      dup1\n      swap2\n      sub\n      swap1\n      return\n        /* \"utils/Constants.sol\":2024:2072  string public constant TEST_FILE_1_TYPE = \".txt\" */\n    tag_25:\n      tag_106\n      tag_107\n      jump\t// in\n    tag_106:\n      mload(0x40)\n      tag_108\n      swap2\n      swap1\n      tag_36\n      jump\t// in\n    tag_108:\n      mload(0x40)\n      dup1\n      swap2\n      sub\n      swap1\n      return\n        /* \"utils/Constants.sol\":1833:1892  uint256 public constant TEST_RANDOM_NODE_SIZE_10000 = 10000 */\n    tag_26:\n      tag_109\n      tag_110\n      jump\t// in\n    tag_109:\n      mload(0x40)\n      tag_111\n      swap2\n      swap1\n      tag_47\n      jump\t// in\n    tag_111:\n      mload(0x40)\n      dup1\n      swap2\n      sub\n      swap1\n      return\n        /* \"utils/Constants.sol\":1064:1171  string public constant RETRIEVE_FILE_DETAILS_FILE_NOT_FOUND =... */\n    tag_27:\n      tag_112\n      tag_113\n      jump\t// in\n    tag_112:\n      mload(0x40)\n      tag_114\n      swap2\n      swap1\n      tag_36\n      jump\t// in\n    tag_114:\n      mload(0x40)\n      dup1\n      swap2\n      sub\n      swap1\n      return\n        /* \"utils/Constants.sol\":1178:1311  string public constant RETRIEVE_FILE_DETAILS_UNAUTHORIZED_CALLER_ADDRESS =... */\n    tag_34:\n      mload(0x40)\n      dup1\n      0x60\n      add\n      0x40\n      mstore\n      dup1\n      0x30\n      dup2\n      mstore\n      0x20\n      add\n      data_be928087d115e7aed1098dc14a479e389e73f917953cd6108d16f6da07b6c424\n      0x30\n      swap2\n      codecopy\n      dup2\n      jump\t// out\n        /* \"utils/Constants.sol\":1318:1408  string public constant DELETE_FILE_INVALID_FILE_ID =... */\n    tag_38:\n      mload(0x40)\n      dup1\n      0x40\n      add\n      0x40\n      mstore\n      dup1\n      0x1b\n      dup2\n      mstore\n      0x20\n      add\n      0x64656c65746546696c653a20496e76616c69642066696c652069640000000000\n      dup2\n      mstore\n      pop\n      dup2\n      jump\t// out\n        /* \"utils/Constants.sol\":2255:2320  bytes32 public constant TEST_FILE_1_HASH = \"120182$2fs83389fkdjd\" */\n    tag_41:\n      0x313230313832243266733833333839666b646a64000000000000000000000000\n      dup2\n      jump\t// out\n        /* \"utils/Constants.sol\":2378:2420  uint256 public constant TEST_ZERO_SIZE = 0 */\n    tag_45:\n        /* \"utils/Constants.sol\":2419:2420  0 */\n      0x00\n        /* \"utils/Constants.sol\":2378:2420  uint256 public constant TEST_ZERO_SIZE = 0 */\n      dup2\n      jump\t// out\n        /* \"utils/Constants.sol\":2327:2372  string public constant TEST_EMPTY_STRING = \"\" */\n    tag_49:\n      mload(0x40)\n      dup1\n      0x20\n      add\n      0x40\n      mstore\n      dup1\n      0x00\n      dup2\n      mstore\n      pop\n      dup2\n      jump\t// out\n        /* \"utils/Constants.sol\":718:827  string public constant STORE_FILE_METADATA_INVALID_FILE_HASH =... */\n    tag_52:\n      mload(0x40)\n      dup1\n      0x60\n      add\n      0x40\n      mstore\n      dup1\n      0x24\n      dup2\n      mstore\n      0x20\n      add\n      data_faba10f81e195acef54c178e558ad8bc09d2b16e139be12a02202876e994066e\n      0x24\n      swap2\n      codecopy\n      dup2\n      jump\t// out\n        /* \"utils/Constants.sol\":1898:1955  uint256 public constant TEST_RANDOM_NODE_SIZE_5000 = 5000 */\n    tag_55:\n        /* \"utils/Constants.sol\":1951:1955  5000 */\n      0x1388\n        /* \"utils/Constants.sol\":1898:1955  uint256 public constant TEST_RANDOM_NODE_SIZE_5000 = 5000 */\n      dup2\n      jump\t// out\n        /* \"utils/Constants.sol\":1728:1826  address public constant TEST_RANDOM_ADDRESS_3 =... */\n    tag_58:\n        /* \"utils/Constants.sol\":1784:1826  0x2F8a81F66Ad6e19a063e11F006b2726d1D25A5CF */\n      0x2f8a81f66ad6e19a063e11f006b2726d1d25a5cf\n        /* \"utils/Constants.sol\":1728:1826  address public constant TEST_RANDOM_ADDRESS_3 =... */\n      dup2\n      jump\t// out\n        /* \"utils/Constants.sol\":1961:2018  string public constant TEST_FILE_1_NAME = \"demo_test.txt\" */\n    tag_62:\n      mload(0x40)\n      dup1\n      0x40\n      add\n      0x40\n      mstore\n      dup1\n      0x0d\n      dup2\n      mstore\n      0x20\n      add\n      0x64656d6f5f746573742e74787400000000000000000000000000000000000000\n      dup2\n      mstore\n      pop\n      dup2\n      jump\t// out\n        /* \"utils/Constants.sol\":2203:2249  uint256 public constant TEST_FILE_1_SIZE = 200 */\n    tag_65:\n        /* \"utils/Constants.sol\":2246:2249  200 */\n      0xc8\n        /* \"utils/Constants.sol\":2203:2249  uint256 public constant TEST_FILE_1_SIZE = 200 */\n      dup2\n      jump\t// out\n        /* \"utils/Constants.sol\":602:711  string public constant STORE_FILE_METADATA_INVALID_FILE_NAME =... */\n    tag_68:\n      mload(0x40)\n      dup1\n      0x60\n      add\n      0x40\n      mstore\n      dup1\n      0x24\n      dup2\n      mstore\n      0x20\n      add\n      data_ebda370d976ef21e8b75eadacc6a83b20a14c61c54757b2d97548bffa3b38a7b\n      0x24\n      swap2\n      codecopy\n      dup2\n      jump\t// out\n        /* \"utils/Constants.sol\":950:1057  string public constant STORE_FILE_METADATA_INVALID_FILE_ID =... */\n    tag_71:\n      mload(0x40)\n      dup1\n      0x60\n      add\n      0x40\n      mstore\n      dup1\n      0x24\n      dup2\n      mstore\n      0x20\n      add\n      data_8deeeb4a58044b267b5c2a8e46a7c677bba10961c6723ef6235d6fa73f8e433d\n      0x24\n      swap2\n      codecopy\n      dup2\n      jump\t// out\n        /* \"utils/Constants.sol\":2136:2197  string public constant TEST_FILE_1_ID = \"ui12f-2jf7d-ajd0asd\" */\n    tag_74:\n      mload(0x40)\n      dup1\n      0x40\n      add\n      0x40\n      mstore\n      dup1\n      0x13\n      dup2\n      mstore\n      0x20\n      add\n      0x75693132662d326a6637642d616a643061736400000000000000000000000000\n      dup2\n      mstore\n      pop\n      dup2\n      jump\t// out\n        /* \"utils/Constants.sol\":1415:1490  string public constant DELETE_FILE_NOT_FOUND = \"deleteFile: File Not found\" */\n    tag_77:\n      mload(0x40)\n      dup1\n      0x40\n      add\n      0x40\n      mstore\n      dup1\n      0x1a\n      dup2\n      mstore\n      0x20\n      add\n      0x64656c65746546696c653a2046696c65204e6f7420666f756e64000000000000\n      dup2\n      mstore\n      pop\n      dup2\n      jump\t// out\n        /* \"utils/Constants.sol\":2078:2130  string public constant TEST_FILE_1_ENCODING = \"7Bit\" */\n    tag_80:\n      mload(0x40)\n      dup1\n      0x40\n      add\n      0x40\n      mstore\n      dup1\n      0x04\n      dup2\n      mstore\n      0x20\n      add\n      0x3742697400000000000000000000000000000000000000000000000000000000\n      dup2\n      mstore\n      pop\n      dup2\n      jump\t// out\n        /* \"utils/Constants.sol\":1520:1618  address public constant TEST_RANDOM_ADDRESS_1 =... */\n    tag_83:\n        /* \"utils/Constants.sol\":1576:1618  0x38A2E968077a7a13B8D7326c35c921da0000847e */\n      0x38a2e968077a7a13b8d7326c35c921da0000847e\n        /* \"utils/Constants.sol\":1520:1618  address public constant TEST_RANDOM_ADDRESS_1 =... */\n      dup2\n      jump\t// out\n        /* \"utils/Constants.sol\":277:369  string public constant STORE_FILE_DUPLICATE_FILE_ID =... */\n    tag_86:\n      mload(0x40)\n      dup1\n      0x40\n      add\n      0x40\n      mstore\n      dup1\n      0x1c\n      dup2\n      mstore\n      0x20\n      add\n      0x73746f726546696c653a204475706c69636174652046696c6520496400000000\n      dup2\n      mstore\n      pop\n      dup2\n      jump\t// out\n        /* \"utils/Constants.sol\":81:177  string public constant STORE_FILE_NO_NODES_FOUND =... */\n    tag_89:\n      mload(0x40)\n      dup1\n      0x60\n      add\n      0x40\n      mstore\n      dup1\n      0x23\n      dup2\n      mstore\n      0x20\n      add\n      data_55e026c519de2f16f7097222e52470e5795f0945e6945556aac9cc77396d2956\n      0x23\n      swap2\n      codecopy\n      dup2\n      jump\t// out\n        /* \"utils/Constants.sol\":376:479  string public constant STORE_FILE_METADATA_INVALID_SENDER =... */\n    tag_92:\n      mload(0x40)\n      dup1\n      0x60\n      add\n      0x40\n      mstore\n      dup1\n      0x21\n      dup2\n      mstore\n      0x20\n      add\n      data_98529d4f8b165e926d797af88858df30b0633d62cff7cf8d95dcb76698b84108\n      0x21\n      swap2\n      codecopy\n      dup2\n      jump\t// out\n        /* \"utils/Constants.sol\":1624:1722  address public constant TEST_RANDOM_ADDRESS_2 =... */\n    tag_95:\n        /* \"utils/Constants.sol\":1680:1722  0x3E57a0F582DB4D97B5E3a0A7F95A731DE9cb7339 */\n      0x3e57a0f582db4d97b5e3a0a7f95a731de9cb7339\n        /* \"utils/Constants.sol\":1624:1722  address public constant TEST_RANDOM_ADDRESS_2 =... */\n      dup2\n      jump\t// out\n        /* \"utils/Constants.sol\":184:270  string public constant STORE_FILE_INVALID_CHUNKS =... */\n    tag_98:\n      mload(0x40)\n      dup1\n      0x40\n      add\n      0x40\n      mstore\n      dup1\n      0x19\n      dup2\n      mstore\n      0x20\n      add\n      0x73746f726546696c653a20496e76616c6964206368756e6b7300000000000000\n      dup2\n      mstore\n      pop\n      dup2\n      jump\t// out\n        /* \"utils/Constants.sol\":834:943  string public constant STORE_FILE_METADATA_INVALID_FILE_SIZE =... */\n    tag_101:\n      mload(0x40)\n      dup1\n      0x60\n      add\n      0x40\n      mstore\n      dup1\n      0x24\n      dup2\n      mstore\n      0x20\n      add\n      data_15bc3e3062c45cefd3c0fa8370a51f988b45a2f31f67fd2efd4d74cf7fc9254c\n      0x24\n      swap2\n      codecopy\n      dup2\n      jump\t// out\n        /* \"utils/Constants.sol\":486:595  string public constant STORE_FILE_METADATA_INVALID_FILE_TYPE =... */\n    tag_104:\n      mload(0x40)\n      dup1\n      0x60\n      add\n      0x40\n      mstore\n      dup1\n      0x24\n      dup2\n      mstore\n      0x20\n      add\n      data_1fcbcb728975241d632ba40e5d583a036c52eaa6b8bb9c6fd05c43f58e706ce4\n      0x24\n      swap2\n      codecopy\n      dup2\n      jump\t// out\n        /* \"utils/Constants.sol\":2024:2072  string public constant TEST_FILE_1_TYPE = \".txt\" */\n    tag_107:\n      mload(0x40)\n      dup1\n      0x40\n      add\n      0x40\n      mstore\n      dup1\n      0x04\n      dup2\n      mstore\n      0x20\n      add\n      0x2e74787400000000000000000000000000000000000000000000000000000000\n      dup2\n      mstore\n      pop\n      dup2\n      jump\t// out\n        /* \"utils/Constants.sol\":1833:1892  uint256 public constant TEST_RANDOM_NODE_SIZE_10000 = 10000 */\n    tag_110:\n        /* \"utils/Constants.sol\":1887:1892  10000 */\n      0x2710\n        /* \"utils/Constants.sol\":1833:1892  uint256 public constant TEST_RANDOM_NODE_SIZE_10000 = 10000 */\n      dup2\n      jump\t// out\n        /* \"utils/Constants.sol\":1064:1171  string public constant RETRIEVE_FILE_DETAILS_FILE_NOT_FOUND =... */\n    tag_113:\n      mload(0x40)\n      dup1\n      0x60\n      add\n      0x40\n      mstore\n      dup1\n      0x23\n      dup2\n      mstore\n      0x20\n      add\n      data_a5ea173e416172c7a0acd46c683ae7602de1e0f848d3dd16c302b5ccb56fea72\n      0x23\n      swap2\n      codecopy\n      dup2\n      jump\t// out\n        /* \"#utility.yul\":7:106   */\n    tag_115:\n        /* \"#utility.yul\":59:65   */\n      0x00\n        /* \"#utility.yul\":93:98   */\n      dup2\n        /* \"#utility.yul\":87:99   */\n      mload\n        /* \"#utility.yul\":77:99   */\n      swap1\n      pop\n        /* \"#utility.yul\":7:106   */\n      swap2\n      swap1\n      pop\n      jump\t// out\n        /* \"#utility.yul\":112:289   */\n    tag_116:\n        /* \"#utility.yul\":204:215   */\n      0x00\n        /* \"#utility.yul\":238:244   */\n      dup3\n        /* \"#utility.yul\":233:236   */\n      dup3\n        /* \"#utility.yul\":226:245   */\n      mstore\n        /* \"#utility.yul\":278:282   */\n      0x20\n        /* \"#utility.yul\":273:276   */\n      dup3\n        /* \"#utility.yul\":269:283   */\n      add\n        /* \"#utility.yul\":254:283   */\n      swap1\n      pop\n        /* \"#utility.yul\":112:289   */\n      swap3\n      swap2\n      pop\n      pop\n      jump\t// out\n        /* \"#utility.yul\":295:541   */\n    tag_117:\n        /* \"#utility.yul\":376:377   */\n      0x00\n        /* \"#utility.yul\":386:499   */\n    tag_131:\n        /* \"#utility.yul\":400:406   */\n      dup4\n        /* \"#utility.yul\":397:398   */\n      dup2\n        /* \"#utility.yul\":394:407   */\n      lt\n        /* \"#utility.yul\":386:499   */\n      iszero\n      tag_133\n      jumpi\n        /* \"#utility.yul\":485:486   */\n      dup1\n        /* \"#utility.yul\":480:483   */\n      dup3\n        /* \"#utility.yul\":476:487   */\n      add\n        /* \"#utility.yul\":470:488   */\n      mload\n        /* \"#utility.yul\":466:467   */\n      dup2\n        /* \"#utility.yul\":461:464   */\n      dup5\n        /* \"#utility.yul\":457:468   */\n      add\n        /* \"#utility.yul\":450:489   */\n      mstore\n        /* \"#utility.yul\":422:424   */\n      0x20\n        /* \"#utility.yul\":419:420   */\n      dup2\n        /* \"#utility.yul\":415:425   */\n      add\n        /* \"#utility.yul\":410:425   */\n      swap1\n      pop\n        /* \"#utility.yul\":386:499   */\n      jump(tag_131)\n    tag_133:\n        /* \"#utility.yul\":533:534   */\n      0x00\n        /* \"#utility.yul\":524:530   */\n      dup5\n        /* \"#utility.yul\":519:522   */\n      dup5\n        /* \"#utility.yul\":515:531   */\n      add\n        /* \"#utility.yul\":508:535   */\n      mstore\n        /* \"#utility.yul\":357:541   */\n      pop\n        /* \"#utility.yul\":295:541   */\n      pop\n      pop\n      pop\n      jump\t// out\n        /* \"#utility.yul\":547:649   */\n    tag_118:\n        /* \"#utility.yul\":588:594   */\n      0x00\n        /* \"#utility.yul\":639:641   */\n      0x1f\n        /* \"#utility.yul\":635:642   */\n      not\n        /* \"#utility.yul\":630:632   */\n      0x1f\n        /* \"#utility.yul\":623:628   */\n      dup4\n        /* \"#utility.yul\":619:633   */\n      add\n        /* \"#utility.yul\":615:643   */\n      and\n        /* \"#utility.yul\":605:643   */\n      swap1\n      pop\n        /* \"#utility.yul\":547:649   */\n      swap2\n      swap1\n      pop\n      jump\t// out\n        /* \"#utility.yul\":655:1048   */\n    tag_119:\n        /* \"#utility.yul\":751:754   */\n      0x00\n        /* \"#utility.yul\":779:818   */\n      tag_136\n        /* \"#utility.yul\":812:817   */\n      dup3\n        /* \"#utility.yul\":779:818   */\n      tag_115\n      jump\t// in\n    tag_136:\n        /* \"#utility.yul\":834:913   */\n      tag_137\n        /* \"#utility.yul\":906:912   */\n      dup2\n        /* \"#utility.yul\":901:904   */\n      dup6\n        /* \"#utility.yul\":834:913   */\n      tag_116\n      jump\t// in\n    tag_137:\n        /* \"#utility.yul\":827:913   */\n      swap4\n      pop\n        /* \"#utility.yul\":922:987   */\n      tag_138\n        /* \"#utility.yul\":980:986   */\n      dup2\n        /* \"#utility.yul\":975:978   */\n      dup6\n        /* \"#utility.yul\":968:972   */\n      0x20\n        /* \"#utility.yul\":961:966   */\n      dup7\n        /* \"#utility.yul\":957:973   */\n      add\n        /* \"#utility.yul\":922:987   */\n      tag_117\n      jump\t// in\n    tag_138:\n        /* \"#utility.yul\":1012:1041   */\n      tag_139\n        /* \"#utility.yul\":1034:1040   */\n      dup2\n        /* \"#utility.yul\":1012:1041   */\n      tag_118\n      jump\t// in\n    tag_139:\n        /* \"#utility.yul\":1007:1010   */\n      dup5\n        /* \"#utility.yul\":1003:1042   */\n      add\n        /* \"#utility.yul\":996:1042   */\n      swap2\n      pop\n        /* \"#utility.yul\":755:1048   */\n      pop\n        /* \"#utility.yul\":655:1048   */\n      swap3\n      swap2\n      pop\n      pop\n      jump\t// out\n        /* \"#utility.yul\":1054:1383   */\n    tag_36:\n        /* \"#utility.yul\":1175:1179   */\n      0x00\n        /* \"#utility.yul\":1213:1215   */\n      0x20\n        /* \"#utility.yul\":1202:1211   */\n      dup3\n        /* \"#utility.yul\":1198:1216   */\n      add\n        /* \"#utility.yul\":1190:1216   */\n      swap1\n      pop\n        /* \"#utility.yul\":1262:1271   */\n      dup2\n        /* \"#utility.yul\":1256:1260   */\n      dup2\n        /* \"#utility.yul\":1252:1272   */\n      sub\n        /* \"#utility.yul\":1248:1249   */\n      0x00\n        /* \"#utility.yul\":1237:1246   */\n      dup4\n        /* \"#utility.yul\":1233:1250   */\n      add\n        /* \"#utility.yul\":1226:1273   */\n      mstore\n        /* \"#utility.yul\":1290:1376   */\n      tag_141\n        /* \"#utility.yul\":1371:1375   */\n      dup2\n        /* \"#utility.yul\":1362:1368   */\n      dup5\n        /* \"#utility.yul\":1290:1376   */\n      tag_119\n      jump\t// in\n    tag_141:\n        /* \"#utility.yul\":1282:1376   */\n      swap1\n      pop\n        /* \"#utility.yul\":1054:1383   */\n      swap3\n      swap2\n      pop\n      pop\n      jump\t// out\n        /* \"#utility.yul\":1389:1466   */\n    tag_120:\n        /* \"#utility.yul\":1426:1433   */\n      0x00\n        /* \"#utility.yul\":1455:1460   */\n      dup2\n        /* \"#utility.yul\":1444:1460   */\n      swap1\n      pop\n        /* \"#utility.yul\":1389:1466   */\n      swap2\n      swap1\n      pop\n      jump\t// out\n        /* \"#utility.yul\":1472:1598   */\n    tag_121:\n        /* \"#utility.yul\":1567:1591   */\n      tag_144\n        /* \"#utility.yul\":1585:1590   */\n      dup2\n        /* \"#utility.yul\":1567:1591   */\n      tag_120\n      jump\t// in\n    tag_144:\n        /* \"#utility.yul\":1562:1565   */\n      dup3\n        /* \"#utility.yul\":1555:1592   */\n      mstore\n        /* \"#utility.yul\":1472:1598   */\n      pop\n      pop\n      jump\t// out\n        /* \"#utility.yul\":1604:1842   */\n    tag_43:\n        /* \"#utility.yul\":1705:1709   */\n      0x00\n        /* \"#utility.yul\":1743:1745   */\n      0x20\n        /* \"#utility.yul\":1732:1741   */\n      dup3\n        /* \"#utility.yul\":1728:1746   */\n      add\n        /* \"#utility.yul\":1720:1746   */\n      swap1\n      pop\n        /* \"#utility.yul\":1756:1835   */\n      tag_146\n        /* \"#utility.yul\":1832:1833   */\n      0x00\n        /* \"#utility.yul\":1821:1830   */\n      dup4\n        /* \"#utility.yul\":1817:1834   */\n      add\n        /* \"#utility.yul\":1808:1814   */\n      dup5\n        /* \"#utility.yul\":1756:1835   */\n      tag_121\n      jump\t// in\n    tag_146:\n        /* \"#utility.yul\":1604:1842   */\n      swap3\n      swap2\n      pop\n      pop\n      jump\t// out\n        /* \"#utility.yul\":1848:1925   */\n    tag_122:\n        /* \"#utility.yul\":1885:1892   */\n      0x00\n        /* \"#utility.yul\":1914:1919   */\n      dup2\n        /* \"#utility.yul\":1903:1919   */\n      swap1\n      pop\n        /* \"#utility.yul\":1848:1925   */\n      swap2\n      swap1\n      pop\n      jump\t// out\n        /* \"#utility.yul\":1931:2057   */\n    tag_123:\n        /* \"#utility.yul\":2026:2050   */\n      tag_149\n        /* \"#utility.yul\":2044:2049   */\n      dup2\n        /* \"#utility.yul\":2026:2050   */\n      tag_122\n      jump\t// in\n    tag_149:\n        /* \"#utility.yul\":2021:2024   */\n      dup3\n        /* \"#utility.yul\":2014:2051   */\n      mstore\n        /* \"#utility.yul\":1931:2057   */\n      pop\n      pop\n      jump\t// out\n        /* \"#utility.yul\":2063:2301   */\n    tag_47:\n        /* \"#utility.yul\":2164:2168   */\n      0x00\n        /* \"#utility.yul\":2202:2204   */\n      0x20\n        /* \"#utility.yul\":2191:2200   */\n      dup3\n        /* \"#utility.yul\":2187:2205   */\n      add\n        /* \"#utility.yul\":2179:2205   */\n      swap1\n      pop\n        /* \"#utility.yul\":2215:2294   */\n      tag_151\n        /* \"#utility.yul\":2291:2292   */\n      0x00\n        /* \"#utility.yul\":2280:2289   */\n      dup4\n        /* \"#utility.yul\":2276:2293   */\n      add\n        /* \"#utility.yul\":2267:2273   */\n      dup5\n        /* \"#utility.yul\":2215:2294   */\n      tag_123\n      jump\t// in\n    tag_151:\n        /* \"#utility.yul\":2063:2301   */\n      swap3\n      swap2\n      pop\n      pop\n      jump\t// out\n        /* \"#utility.yul\":2307:2433   */\n    tag_124:\n        /* \"#utility.yul\":2344:2351   */\n      0x00\n        /* \"#utility.yul\":2384:2426   */\n      0xffffffffffffffffffffffffffffffffffffffff\n        /* \"#utility.yul\":2377:2382   */\n      dup3\n        /* \"#utility.yul\":2373:2427   */\n      and\n        /* \"#utility.yul\":2362:2427   */\n      swap1\n      pop\n        /* \"#utility.yul\":2307:2433   */\n      swap2\n      swap1\n      pop\n      jump\t// out\n        /* \"#utility.yul\":2439:2535   */\n    tag_125:\n        /* \"#utility.yul\":2476:2483   */\n      0x00\n        /* \"#utility.yul\":2505:2529   */\n      tag_154\n        /* \"#utility.yul\":2523:2528   */\n      dup3\n        /* \"#utility.yul\":2505:2529   */\n      tag_124\n      jump\t// in\n    tag_154:\n        /* \"#utility.yul\":2494:2529   */\n      swap1\n      pop\n        /* \"#utility.yul\":2439:2535   */\n      swap2\n      swap1\n      pop\n      jump\t// out\n        /* \"#utility.yul\":2541:2667   */\n    tag_126:\n        /* \"#utility.yul\":2636:2660   */\n      tag_156\n        /* \"#utility.yul\":2654:2659   */\n      dup2\n        /* \"#utility.yul\":2636:2660   */\n      tag_125\n      jump\t// in\n    tag_156:\n        /* \"#utility.yul\":2631:2634   */\n      dup3\n        /* \"#utility.yul\":2624:2661   */\n      mstore\n        /* \"#utility.yul\":2541:2667   */\n      pop\n      pop\n      jump\t// out\n        /* \"#utility.yul\":2673:2911   */\n    tag_60:\n        /* \"#utility.yul\":2774:2778   */\n      0x00\n        /* \"#utility.yul\":2812:2814   */\n      0x20\n        /* \"#utility.yul\":2801:2810   */\n      dup3\n        /* \"#utility.yul\":2797:2815   */\n      add\n        /* \"#utility.yul\":2789:2815   */\n      swap1\n      pop\n        /* \"#utility.yul\":2825:2904   */\n      tag_158\n        /* \"#utility.yul\":2901:2902   */\n      0x00\n        /* \"#utility.yul\":2890:2899   */\n      dup4\n        /* \"#utility.yul\":2886:2903   */\n      add\n        /* \"#utility.yul\":2877:2883   */\n      dup5\n        /* \"#utility.yul\":2825:2904   */\n      tag_126\n      jump\t// in\n    tag_158:\n        /* \"#utility.yul\":2673:2911   */\n      swap3\n      swap2\n      pop\n      pop\n      jump\t// out\n    stop\n    data_15bc3e3062c45cefd3c0fa8370a51f988b45a2f31f67fd2efd4d74cf7fc9254c 73746f726546696c654d657461646174613a20496e76616c6964205f66696c6553697a65\n    data_1fcbcb728975241d632ba40e5d583a036c52eaa6b8bb9c6fd05c43f58e706ce4 73746f726546696c654d657461646174613a20496e76616c6964205f66696c6554797065\n    data_55e026c519de2f16f7097222e52470e5795f0945e6945556aac9cc77396d2956 73746f726546696c653a204e6f20617661696c61626c65206e6f64657320666f756e64\n    data_8deeeb4a58044b267b5c2a8e46a7c677bba10961c6723ef6235d6fa73f8e433d 73746f726546696c654d657461646174613a20496e76616c6964205f756e697175654964\n    data_98529d4f8b165e926d797af88858df30b0633d62cff7cf8d95dcb76698b84108 73746f726546696c654d657461646174613a20496e76616c69642073656e646572\n    data_a5ea173e416172c7a0acd46c683ae7602de1e0f848d3dd16c302b5ccb56fea72 726574726965766546696c6544657461696c733a2046696c65204e6f7420466f756e64\n    data_be928087d115e7aed1098dc14a479e389e73f917953cd6108d16f6da07b6c424 726574726965766546696c6544657461696c733a20556e617574686f72697a65642063616c6c65722061646472657373\n    data_ebda370d976ef21e8b75eadacc6a83b20a14c61c54757b2d97548bffa3b38a7b 73746f726546696c654d657461646174613a20496e76616c6964205f66696c654e616d65\n    data_faba10f81e195acef54c178e558ad8bc09d2b16e139be12a02202876e994066e 73746f726546696c654d657461646174613a20496e76616c6964205f66696c6548617368\n\n    auxdata: 0xa26469706673582212207877c8e8b3dabe4d7a8f573c50eef57d910a2f5e9ae4b4535f02a2080fb9260364736f6c63430008180033\n}\n",
				"bytecode": {
					"linkReferences": {},
					"object": "610ae361004e600b8282823980515f1a607314610042577f4e487b71000000000000000000000000000000000000000000000000000000005f525f60045260245ffd5b305f52607381538281f3fe7300000000000000000000000000000000000000003014608060405260043610610197575f3560e01c8063804d2f4b116100e7578063cb656e52116100a0578063eb44cb4e1161007a578063eb44cb4e1461042f578063ed32bfc81461044d578063ee6cdf831461046b578063f9a9af1e1461048957610197565b8063cb656e52146103d5578063e2811206146103f3578063e9e4a0d11461041157610197565b8063804d2f4b14610321578063992677231461033f578063b483d3001461035d578063b70b31e31461037b578063bcf101f714610399578063c615b579146103b757610197565b806335465249116101545780634f44d5d51161012e5780634f44d5d5146102a95780635b2b5003146102c7578063703acad8146102e557806372d344961461030357610197565b8063354652491461024f57806337b2cae81461026d57806337c6b7b71461028b57610197565b80630b16a8c91461019b5780631040106a146101b95780631cf30540146101d75780631fda8e9c146101f55780631ff40d02146102135780632ceb53a014610231575b5f80fd5b6101a36104a7565b6040516101b09190610888565b60405180910390f35b6101c16104c3565b6040516101ce9190610888565b60405180910390f35b6101df6104fc565b6040516101ec91906108c0565b60405180910390f35b6101fd610520565b60405161020a91906108f1565b60405180910390f35b61021b610524565b6040516102289190610888565b60405180910390f35b610239610536565b6040516102469190610888565b60405180910390f35b610257610552565b60405161026491906108f1565b60405180910390f35b610275610558565b6040516102829190610949565b60405180910390f35b610293610570565b6040516102a09190610888565b60405180910390f35b6102b16105a9565b6040516102be91906108f1565b60405180910390f35b6102cf6105ae565b6040516102dc9190610888565b60405180910390f35b6102ed6105ca565b6040516102fa9190610888565b60405180910390f35b61030b6105e6565b6040516103189190610888565b60405180910390f35b61032961061f565b6040516103369190610888565b60405180910390f35b610347610658565b6040516103549190610888565b60405180910390f35b610365610691565b6040516103729190610949565b60405180910390f35b6103836106a9565b6040516103909190610888565b60405180910390f35b6103a16106e2565b6040516103ae9190610888565b60405180910390f35b6103bf6106fe565b6040516103cc9190610888565b60405180910390f35b6103dd61071a565b6040516103ea9190610949565b60405180910390f35b6103fb610732565b6040516104089190610888565b60405180910390f35b61041961076b565b6040516104269190610888565b60405180910390f35b610437610787565b6040516104449190610888565b60405180910390f35b6104556107a3565b6040516104629190610888565b60405180910390f35b6104736107dc565b60405161048091906108f1565b60405180910390f35b6104916107e2565b60405161049e9190610888565b60405180910390f35b604051806060016040528060308152602001610a366030913981565b6040518060400160405280601b81526020017f64656c65746546696c653a20496e76616c69642066696c65206964000000000081525081565b7f313230313832243266733833333839666b646a6400000000000000000000000081565b5f81565b60405180602001604052805f81525081565b604051806060016040528060248152602001610a8a6024913981565b61138881565b732f8a81f66ad6e19a063e11f006b2726d1d25a5cf81565b6040518060400160405280600d81526020017f64656d6f5f746573742e7478740000000000000000000000000000000000000081525081565b60c881565b604051806060016040528060248152602001610a666024913981565b6040518060600160405280602481526020016109ce6024913981565b6040518060400160405280601381526020017f75693132662d326a6637642d616a64306173640000000000000000000000000081525081565b6040518060400160405280601a81526020017f64656c65746546696c653a2046696c65204e6f7420666f756e6400000000000081525081565b6040518060400160405280600481526020017f374269740000000000000000000000000000000000000000000000000000000081525081565b7338a2e968077a7a13b8d7326c35c921da0000847e81565b6040518060400160405280601c81526020017f73746f726546696c653a204475706c69636174652046696c652049640000000081525081565b6040518060600160405280602381526020016109ab6023913981565b6040518060600160405280602181526020016109f26021913981565b733e57a0f582db4d97b5e3a0a7f95a731de9cb733981565b6040518060400160405280601981526020017f73746f726546696c653a20496e76616c6964206368756e6b730000000000000081525081565b6040518060600160405280602481526020016109636024913981565b6040518060600160405280602481526020016109876024913981565b6040518060400160405280600481526020017f2e7478740000000000000000000000000000000000000000000000000000000081525081565b61271081565b604051806060016040528060238152602001610a136023913981565b5f81519050919050565b5f82825260208201905092915050565b5f5b8381101561083557808201518184015260208101905061081a565b5f8484015250505050565b5f601f19601f8301169050919050565b5f61085a826107fe565b6108648185610808565b9350610874818560208601610818565b61087d81610840565b840191505092915050565b5f6020820190508181035f8301526108a08184610850565b905092915050565b5f819050919050565b6108ba816108a8565b82525050565b5f6020820190506108d35f8301846108b1565b92915050565b5f819050919050565b6108eb816108d9565b82525050565b5f6020820190506109045f8301846108e2565b92915050565b5f73ffffffffffffffffffffffffffffffffffffffff82169050919050565b5f6109338261090a565b9050919050565b61094381610929565b82525050565b5f60208201905061095c5f83018461093a565b9291505056fe73746f726546696c654d657461646174613a20496e76616c6964205f66696c6553697a6573746f726546696c654d657461646174613a20496e76616c6964205f66696c655479706573746f726546696c653a204e6f20617661696c61626c65206e6f64657320666f756e6473746f726546696c654d657461646174613a20496e76616c6964205f756e69717565496473746f726546696c654d657461646174613a20496e76616c69642073656e646572726574726965766546696c6544657461696c733a2046696c65204e6f7420466f756e64726574726965766546696c6544657461696c733a20556e617574686f72697a65642063616c6c6572206164647265737373746f726546696c654d657461646174613a20496e76616c6964205f66696c654e616d6573746f726546696c654d657461646174613a20496e76616c6964205f66696c6548617368a26469706673582212207877c8e8b3dabe4d7a8f573c50eef57d910a2f5e9ae4b4535f02a2080fb9260364736f6c63430008180033",
					"opcodes": "PUSH2 0xAE3 PUSH2 0x4E PUSH1 0xB DUP3 DUP3 DUP3 CODECOPY DUP1 MLOAD PUSH0 BYTE PUSH1 0x73 EQ PUSH2 0x42 JUMPI PUSH32 0x4E487B7100000000000000000000000000000000000000000000000000000000 PUSH0 MSTORE PUSH0 PUSH1 0x4 MSTORE PUSH1 0x24 PUSH0 REVERT JUMPDEST ADDRESS PUSH0 MSTORE PUSH1 0x73 DUP2 MSTORE8 DUP3 DUP2 RETURN INVALID PUSH20 0x0 ADDRESS EQ PUSH1 0x80 PUSH1 0x40 MSTORE PUSH1 0x4 CALLDATASIZE LT PUSH2 0x197 JUMPI PUSH0 CALLDATALOAD PUSH1 0xE0 SHR DUP1 PUSH4 0x804D2F4B GT PUSH2 0xE7 JUMPI DUP1 PUSH4 0xCB656E52 GT PUSH2 0xA0 JUMPI DUP1 PUSH4 0xEB44CB4E GT PUSH2 0x7A JUMPI DUP1 PUSH4 0xEB44CB4E EQ PUSH2 0x42F JUMPI DUP1 PUSH4 0xED32BFC8 EQ PUSH2 0x44D JUMPI DUP1 PUSH4 0xEE6CDF83 EQ PUSH2 0x46B JUMPI DUP1 PUSH4 0xF9A9AF1E EQ PUSH2 0x489 JUMPI PUSH2 0x197 JUMP JUMPDEST DUP1 PUSH4 0xCB656E52 EQ PUSH2 0x3D5 JUMPI DUP1 PUSH4 0xE2811206 EQ PUSH2 0x3F3 JUMPI DUP1 PUSH4 0xE9E4A0D1 EQ PUSH2 0x411 JUMPI PUSH2 0x197 JUMP JUMPDEST DUP1 PUSH4 0x804D2F4B EQ PUSH2 0x321 JUMPI DUP1 PUSH4 0x99267723 EQ PUSH2 0x33F JUMPI DUP1 PUSH4 0xB483D300 EQ PUSH2 0x35D JUMPI DUP1 PUSH4 0xB70B31E3 EQ PUSH2 0x37B JUMPI DUP1 PUSH4 0xBCF101F7 EQ PUSH2 0x399 JUMPI DUP1 PUSH4 0xC615B579 EQ PUSH2 0x3B7 JUMPI PUSH2 0x197 JUMP JUMPDEST DUP1 PUSH4 0x35465249 GT PUSH2 0x154 JUMPI DUP1 PUSH4 0x4F44D5D5 GT PUSH2 0x12E JUMPI DUP1 PUSH4 0x4F44D5D5 EQ PUSH2 0x2A9 JUMPI DUP1 PUSH4 0x5B2B5003 EQ PUSH2 0x2C7 JUMPI DUP1 PUSH4 0x703ACAD8 EQ PUSH2 0x2E5 JUMPI DUP1 PUSH4 0x72D34496 EQ PUSH2 0x303 JUMPI PUSH2 0x197 JUMP JUMPDEST DUP1 PUSH4 0x35465249 EQ PUSH2 0x24F JUMPI DUP1 PUSH4 0x37B2CAE8 EQ PUSH2 0x26D JUMPI DUP1 PUSH4 0x37C6B7B7 EQ PUSH2 0x28B JUMPI PUSH2 0x197 JUMP JUMPDEST DUP1 PUSH4 0xB16A8C9 EQ PUSH2 0x19B JUMPI DUP1 PUSH4 0x1040106A EQ PUSH2 0x1B9 JUMPI DUP1 PUSH4 0x1CF30540 EQ PUSH2 0x1D7 JUMPI DUP1 PUSH4 0x1FDA8E9C EQ PUSH2 0x1F5 JUMPI DUP1 PUSH4 0x1FF40D02 EQ PUSH2 0x213 JUMPI DUP1 PUSH4 0x2CEB53A0 EQ PUSH2 0x231 JUMPI JUMPDEST PUSH0 DUP1 REVERT JUMPDEST PUSH2 0x1A3 PUSH2 0x4A7 JUMP JUMPDEST PUSH1 0x40 MLOAD PUSH2 0x1B0 SWAP2 SWAP1 PUSH2 0x888 JUMP JUMPDEST PUSH1 0x40 MLOAD DUP1 SWAP2 SUB SWAP1 RETURN JUMPDEST PUSH2 0x1C1 PUSH2 0x4C3 JUMP JUMPDEST PUSH1 0x40 MLOAD PUSH2 0x1CE SWAP2 SWAP1 PUSH2 0x888 JUMP JUMPDEST PUSH1 0x40 MLOAD DUP1 SWAP2 SUB SWAP1 RETURN JUMPDEST PUSH2 0x1DF PUSH2 0x4FC JUMP JUMPDEST PUSH1 0x40 MLOAD PUSH2 0x1EC SWAP2 SWAP1 PUSH2 0x8C0 JUMP JUMPDEST PUSH1 0x40 MLOAD DUP1 SWAP2 SUB SWAP1 RETURN JUMPDEST PUSH2 0x1FD PUSH2 0x520 JUMP JUMPDEST PUSH1 0x40 MLOAD PUSH2 0x20A SWAP2 SWAP1 PUSH2 0x8F1 JUMP JUMPDEST PUSH1 0x40 MLOAD DUP1 SWAP2 SUB SWAP1 RETURN JUMPDEST PUSH2 0x21B PUSH2 0x524 JUMP JUMPDEST PUSH1 0x40 MLOAD PUSH2 0x228 SWAP2 SWAP1 PUSH2 0x888 JUMP JUMPDEST PUSH1 0x40 MLOAD DUP1 SWAP2 SUB SWAP1 RETURN JUMPDEST PUSH2 0x239 PUSH2 0x536 JUMP JUMPDEST PUSH1 0x40 MLOAD PUSH2 0x246 SWAP2 SWAP1 PUSH2 0x888 JUMP JUMPDEST PUSH1 0x40 MLOAD DUP1 SWAP2 SUB SWAP1 RETURN JUMPDEST PUSH2 0x257 PUSH2 0x552 JUMP JUMPDEST PUSH1 0x40 MLOAD PUSH2 0x264 SWAP2 SWAP1 PUSH2 0x8F1 JUMP JUMPDEST PUSH1 0x40 MLOAD DUP1 SWAP2 SUB SWAP1 RETURN JUMPDEST PUSH2 0x275 PUSH2 0x558 JUMP JUMPDEST PUSH1 0x40 MLOAD PUSH2 0x282 SWAP2 SWAP1 PUSH2 0x949 JUMP JUMPDEST PUSH1 0x40 MLOAD DUP1 SWAP2 SUB SWAP1 RETURN JUMPDEST PUSH2 0x293 PUSH2 0x570 JUMP JUMPDEST PUSH1 0x40 MLOAD PUSH2 0x2A0 SWAP2 SWAP1 PUSH2 0x888 JUMP JUMPDEST PUSH1 0x40 MLOAD DUP1 SWAP2 SUB SWAP1 RETURN JUMPDEST PUSH2 0x2B1 PUSH2 0x5A9 JUMP JUMPDEST PUSH1 0x40 MLOAD PUSH2 0x2BE SWAP2 SWAP1 PUSH2 0x8F1 JUMP JUMPDEST PUSH1 0x40 MLOAD DUP1 SWAP2 SUB SWAP1 RETURN JUMPDEST PUSH2 0x2CF PUSH2 0x5AE JUMP JUMPDEST PUSH1 0x40 MLOAD PUSH2 0x2DC SWAP2 SWAP1 PUSH2 0x888 JUMP JUMPDEST PUSH1 0x40 MLOAD DUP1 SWAP2 SUB SWAP1 RETURN JUMPDEST PUSH2 0x2ED PUSH2 0x5CA JUMP JUMPDEST PUSH1 0x40 MLOAD PUSH2 0x2FA SWAP2 SWAP1 PUSH2 0x888 JUMP JUMPDEST PUSH1 0x40 MLOAD DUP1 SWAP2 SUB SWAP1 RETURN JUMPDEST PUSH2 0x30B PUSH2 0x5E6 JUMP JUMPDEST PUSH1 0x40 MLOAD PUSH2 0x318 SWAP2 SWAP1 PUSH2 0x888 JUMP JUMPDEST PUSH1 0x40 MLOAD DUP1 SWAP2 SUB SWAP1 RETURN JUMPDEST PUSH2 0x329 PUSH2 0x61F JUMP JUMPDEST PUSH1 0x40 MLOAD PUSH2 0x336 SWAP2 SWAP1 PUSH2 0x888 JUMP JUMPDEST PUSH1 0x40 MLOAD DUP1 SWAP2 SUB SWAP1 RETURN JUMPDEST PUSH2 0x347 PUSH2 0x658 JUMP JUMPDEST PUSH1 0x40 MLOAD PUSH2 0x354 SWAP2 SWAP1 PUSH2 0x888 JUMP JUMPDEST PUSH1 0x40 MLOAD DUP1 SWAP2 SUB SWAP1 RETURN JUMPDEST PUSH2 0x365 PUSH2 0x691 JUMP JUMPDEST PUSH1 0x40 MLOAD PUSH2 0x372 SWAP2 SWAP1 PUSH2 0x949 JUMP JUMPDEST PUSH1 0x40 MLOAD DUP1 SWAP2 SUB SWAP1 RETURN JUMPDEST PUSH2 0x383 PUSH2 0x6A9 JUMP JUMPDEST PUSH1 0x40 MLOAD PUSH2 0x390 SWAP2 SWAP1 PUSH2 0x888 JUMP JUMPDEST PUSH1 0x40 MLOAD DUP1 SWAP2 SUB SWAP1 RETURN JUMPDEST PUSH2 0x3A1 PUSH2 0x6E2 JUMP JUMPDEST PUSH1 0x40 MLOAD PUSH2 0x3AE SWAP2 SWAP1 PUSH2 0x888 JUMP JUMPDEST PUSH1 0x40 MLOAD DUP1 SWAP2 SUB SWAP1 RETURN JUMPDEST PUSH2 0x3BF PUSH2 0x6FE JUMP JUMPDEST PUSH1 0x40 MLOAD PUSH2 0x3CC SWAP2 SWAP1 PUSH2 0x888 JUMP JUMPDEST PUSH1 0x40 MLOAD DUP1 SWAP2 SUB SWAP1 RETURN JUMPDEST PUSH2 0x3DD PUSH2 0x71A JUMP JUMPDEST PUSH1 0x40 MLOAD PUSH2 0x3EA SWAP2 SWAP1 PUSH2 0x949 JUMP JUMPDEST PUSH1 0x40 MLOAD DUP1 SWAP2 SUB SWAP1 RETURN JUMPDEST PUSH2 0x3FB PUSH2 0x732 JUMP JUMPDEST PUSH1 0x40 MLOAD PUSH2 0x408 SWAP2 SWAP1 PUSH2 0x888 JUMP JUMPDEST PUSH1 0x40 MLOAD DUP1 SWAP2 SUB SWAP1 RETURN JUMPDEST PUSH2 0x419 PUSH2 0x76B JUMP JUMPDEST PUSH1 0x40 MLOAD PUSH2 0x426 SWAP2 SWAP1 PUSH2 0x888 JUMP JUMPDEST PUSH1 0x40 MLOAD DUP1 SWAP2 SUB SWAP1 RETURN JUMPDEST PUSH2 0x437 PUSH2 0x787 JUMP JUMPDEST PUSH1 0x40 MLOAD PUSH2 0x444 SWAP2 SWAP1 PUSH2 0x888 JUMP JUMPDEST PUSH1 0x40 MLOAD DUP1 SWAP2 SUB SWAP1 RETURN JUMPDEST PUSH2 0x455 PUSH2 0x7A3 JUMP JUMPDEST PUSH1 0x40 MLOAD PUSH2 0x462 SWAP2 SWAP1 PUSH2 0x888 JUMP JUMPDEST PUSH1 0x40 MLOAD DUP1 SWAP2 SUB SWAP1 RETURN JUMPDEST PUSH2 0x473 PUSH2 0x7DC JUMP JUMPDEST PUSH1 0x40 MLOAD PUSH2 0x480 SWAP2 SWAP1 PUSH2 0x8F1 JUMP JUMPDEST PUSH1 0x40 MLOAD DUP1 SWAP2 SUB SWAP1 RETURN JUMPDEST PUSH2 0x491 PUSH2 0x7E2 JUMP JUMPDEST PUSH1 0x40 MLOAD PUSH2 0x49E SWAP2 SWAP1 PUSH2 0x888 JUMP JUMPDEST PUSH1 0x40 MLOAD DUP1 SWAP2 SUB SWAP1 RETURN JUMPDEST PUSH1 0x40 MLOAD DUP1 PUSH1 0x60 ADD PUSH1 0x40 MSTORE DUP1 PUSH1 0x30 DUP2 MSTORE PUSH1 0x20 ADD PUSH2 0xA36 PUSH1 0x30 SWAP2 CODECOPY DUP2 JUMP JUMPDEST PUSH1 0x40 MLOAD DUP1 PUSH1 0x40 ADD PUSH1 0x40 MSTORE DUP1 PUSH1 0x1B DUP2 MSTORE PUSH1 0x20 ADD PUSH32 0x64656C65746546696C653A20496E76616C69642066696C652069640000000000 DUP2 MSTORE POP DUP2 JUMP JUMPDEST PUSH32 0x313230313832243266733833333839666B646A64000000000000000000000000 DUP2 JUMP JUMPDEST PUSH0 DUP2 JUMP JUMPDEST PUSH1 0x40 MLOAD DUP1 PUSH1 0x20 ADD PUSH1 0x40 MSTORE DUP1 PUSH0 DUP2 MSTORE POP DUP2 JUMP JUMPDEST PUSH1 0x40 MLOAD DUP1 PUSH1 0x60 ADD PUSH1 0x40 MSTORE DUP1 PUSH1 0x24 DUP2 MSTORE PUSH1 0x20 ADD PUSH2 0xA8A PUSH1 0x24 SWAP2 CODECOPY DUP2 JUMP JUMPDEST PUSH2 0x1388 DUP2 JUMP JUMPDEST PUSH20 0x2F8A81F66AD6E19A063E11F006B2726D1D25A5CF DUP2 JUMP JUMPDEST PUSH1 0x40 MLOAD DUP1 PUSH1 0x40 ADD PUSH1 0x40 MSTORE DUP1 PUSH1 0xD DUP2 MSTORE PUSH1 0x20 ADD PUSH32 0x64656D6F5F746573742E74787400000000000000000000000000000000000000 DUP2 MSTORE POP DUP2 JUMP JUMPDEST PUSH1 0xC8 DUP2 JUMP JUMPDEST PUSH1 0x40 MLOAD DUP1 PUSH1 0x60 ADD PUSH1 0x40 MSTORE DUP1 PUSH1 0x24 DUP2 MSTORE PUSH1 0x20 ADD PUSH2 0xA66 PUSH1 0x24 SWAP2 CODECOPY DUP2 JUMP JUMPDEST PUSH1 0x40 MLOAD DUP1 PUSH1 0x60 ADD PUSH1 0x40 MSTORE DUP1 PUSH1 0x24 DUP2 MSTORE PUSH1 0x20 ADD PUSH2 0x9CE PUSH1 0x24 SWAP2 CODECOPY DUP2 JUMP JUMPDEST PUSH1 0x40 MLOAD DUP1 PUSH1 0x40 ADD PUSH1 0x40 MSTORE DUP1 PUSH1 0x13 DUP2 MSTORE PUSH1 0x20 ADD PUSH32 0x75693132662D326A6637642D616A643061736400000000000000000000000000 DUP2 MSTORE POP DUP2 JUMP JUMPDEST PUSH1 0x40 MLOAD DUP1 PUSH1 0x40 ADD PUSH1 0x40 MSTORE DUP1 PUSH1 0x1A DUP2 MSTORE PUSH1 0x20 ADD PUSH32 0x64656C65746546696C653A2046696C65204E6F7420666F756E64000000000000 DUP2 MSTORE POP DUP2 JUMP JUMPDEST PUSH1 0x40 MLOAD DUP1 PUSH1 0x40 ADD PUSH1 0x40 MSTORE DUP1 PUSH1 0x4 DUP2 MSTORE PUSH1 0x20 ADD PUSH32 0x3742697400000000000000000000000000000000000000000000000000000000 DUP2 MSTORE POP DUP2 JUMP JUMPDEST PUSH20 0x38A2E968077A7A13B8D7326C35C921DA0000847E DUP2 JUMP JUMPDEST PUSH1 0x40 MLOAD DUP1 PUSH1 0x40 ADD PUSH1 0x40 MSTORE DUP1 PUSH1 0x1C DUP2 MSTORE PUSH1 0x20 ADD PUSH32 0x73746F726546696C653A204475706C69636174652046696C6520496400000000 DUP2 MSTORE POP DUP2 JUMP JUMPDEST PUSH1 0x40 MLOAD DUP1 PUSH1 0x60 ADD PUSH1 0x40 MSTORE DUP1 PUSH1 0x23 DUP2 MSTORE PUSH1 0x20 ADD PUSH2 0x9AB PUSH1 0x23 SWAP2 CODECOPY DUP2 JUMP JUMPDEST PUSH1 0x40 MLOAD DUP1 PUSH1 0x60 ADD PUSH1 0x40 MSTORE DUP1 PUSH1 0x21 DUP2 MSTORE PUSH1 0x20 ADD PUSH2 0x9F2 PUSH1 0x21 SWAP2 CODECOPY DUP2 JUMP JUMPDEST PUSH20 0x3E57A0F582DB4D97B5E3A0A7F95A731DE9CB7339 DUP2 JUMP JUMPDEST PUSH1 0x40 MLOAD DUP1 PUSH1 0x40 ADD PUSH1 0x40 MSTORE DUP1 PUSH1 0x19 DUP2 MSTORE PUSH1 0x20 ADD PUSH32 0x73746F726546696C653A20496E76616C6964206368756E6B7300000000000000 DUP2 MSTORE POP DUP2 JUMP JUMPDEST PUSH1 0x40 MLOAD DUP1 PUSH1 0x60 ADD PUSH1 0x40 MSTORE DUP1 PUSH1 0x24 DUP2 MSTORE PUSH1 0x20 ADD PUSH2 0x963 PUSH1 0x24 SWAP2 CODECOPY DUP2 JUMP JUMPDEST PUSH1 0x40 MLOAD DUP1 PUSH1 0x60 ADD PUSH1 0x40 MSTORE DUP1 PUSH1 0x24 DUP2 MSTORE PUSH1 0x20 ADD PUSH2 0x987 PUSH1 0x24 SWAP2 CODECOPY DUP2 JUMP JUMPDEST PUSH1 0x40 MLOAD DUP1 PUSH1 0x40 ADD PUSH1 0x40 MSTORE DUP1 PUSH1 0x4 DUP2 MSTORE PUSH1 0x20 ADD PUSH32 0x2E74787400000000000000000000000000000000000000000000000000000000 DUP2 MSTORE POP DUP2 JUMP JUMPDEST PUSH2 0x2710 DUP2 JUMP JUMPDEST PUSH1 0x40 MLOAD DUP1 PUSH1 0x60 ADD PUSH1 0x40 MSTORE DUP1 PUSH1 0x23 DUP2 MSTORE PUSH1 0x20 ADD PUSH2 0xA13 PUSH1 0x23 SWAP2 CODECOPY DUP2 JUMP JUMPDEST PUSH0 DUP2 MLOAD SWAP1 POP SWAP2 SWAP1 POP JUMP JUMPDEST PUSH0 DUP3 DUP3 MSTORE PUSH1 0x20 DUP3 ADD SWAP1 POP SWAP3 SWAP2 POP POP JUMP JUMPDEST PUSH0 JUMPDEST DUP4 DUP2 LT ISZERO PUSH2 0x835 JUMPI DUP1 DUP3 ADD MLOAD DUP2 DUP5 ADD MSTORE PUSH1 0x20 DUP2 ADD SWAP1 POP PUSH2 0x81A JUMP JUMPDEST PUSH0 DUP5 DUP5 ADD MSTORE POP POP POP POP JUMP JUMPDEST PUSH0 PUSH1 0x1F NOT PUSH1 0x1F DUP4 ADD AND SWAP1 POP SWAP2 SWAP1 POP JUMP JUMPDEST PUSH0 PUSH2 0x85A DUP3 PUSH2 0x7FE JUMP JUMPDEST PUSH2 0x864 DUP2 DUP6 PUSH2 0x808 JUMP JUMPDEST SWAP4 POP PUSH2 0x874 DUP2 DUP6 PUSH1 0x20 DUP7 ADD PUSH2 0x818 JUMP JUMPDEST PUSH2 0x87D DUP2 PUSH2 0x840 JUMP JUMPDEST DUP5 ADD SWAP2 POP POP SWAP3 SWAP2 POP POP JUMP JUMPDEST PUSH0 PUSH1 0x20 DUP3 ADD SWAP1 POP DUP2 DUP2 SUB PUSH0 DUP4 ADD MSTORE PUSH2 0x8A0 DUP2 DUP5 PUSH2 0x850 JUMP JUMPDEST SWAP1 POP SWAP3 SWAP2 POP POP JUMP JUMPDEST PUSH0 DUP2 SWAP1 POP SWAP2 SWAP1 POP JUMP JUMPDEST PUSH2 0x8BA DUP2 PUSH2 0x8A8 JUMP JUMPDEST DUP3 MSTORE POP POP JUMP JUMPDEST PUSH0 PUSH1 0x20 DUP3 ADD SWAP1 POP PUSH2 0x8D3 PUSH0 DUP4 ADD DUP5 PUSH2 0x8B1 JUMP JUMPDEST SWAP3 SWAP2 POP POP JUMP JUMPDEST PUSH0 DUP2 SWAP1 POP SWAP2 SWAP1 POP JUMP JUMPDEST PUSH2 0x8EB DUP2 PUSH2 0x8D9 JUMP JUMPDEST DUP3 MSTORE POP POP JUMP JUMPDEST PUSH0 PUSH1 0x20 DUP3 ADD SWAP1 POP PUSH2 0x904 PUSH0 DUP4 ADD DUP5 PUSH2 0x8E2 JUMP JUMPDEST SWAP3 SWAP2 POP POP JUMP JUMPDEST PUSH0 PUSH20 0xFFFFFFFFFFFFFFFFFFFFFFFFFFFFFFFFFFFFFFFF DUP3 AND SWAP1 POP SWAP2 SWAP1 POP JUMP JUMPDEST PUSH0 PUSH2 0x933 DUP3 PUSH2 0x90A JUMP JUMPDEST SWAP1 POP SWAP2 SWAP1 POP JUMP JUMPDEST PUSH2 0x943 DUP2 PUSH2 0x929 JUMP JUMPDEST DUP3 MSTORE POP POP JUMP JUMPDEST PUSH0 PUSH1 0x20 DUP3 ADD SWAP1 POP PUSH2 0x95C PUSH0 DUP4 ADD DUP5 PUSH2 0x93A JUMP JUMPDEST SWAP3 SWAP2 POP POP JUMP INVALID PUSH20 0x746F726546696C654D657461646174613A20496E PUSH23 0x616C6964205F66696C6553697A6573746F726546696C65 0x4D PUSH6 0x746164617461 GASPRICE KECCAK256 BLOBHASH PUSH15 0x76616C6964205F66696C6554797065 PUSH20 0x746F726546696C653A204E6F20617661696C6162 PUSH13 0x65206E6F64657320666F756E64 PUSH20 0x746F726546696C654D657461646174613A20496E PUSH23 0x616C6964205F756E69717565496473746F726546696C65 0x4D PUSH6 0x746164617461 GASPRICE KECCAK256 BLOBHASH PUSH15 0x76616C69642073656E646572726574 PUSH19 0x6965766546696C6544657461696C733A204669 PUSH13 0x65204E6F7420466F756E647265 PUSH21 0x726965766546696C6544657461696C733A20556E61 PUSH22 0x74686F72697A65642063616C6C657220616464726573 PUSH20 0x73746F726546696C654D657461646174613A2049 PUSH15 0x76616C6964205F66696C654E616D65 PUSH20 0x746F726546696C654D657461646174613A20496E PUSH23 0x616C6964205F66696C6548617368A26469706673582212 KECCAK256 PUSH25 0x77C8E8B3DABE4D7A8F573C50EEF57D910A2F5E9AE4B4535F02 LOG2 ADDMOD 0xF 0xB9 0x26 SUB PUSH5 0x736F6C6343 STOP ADDMOD XOR STOP CALLER "
				},
				"gasEstimates": {
					"creation": {
						"codeDepositCost": "557400",
						"executionCost": "617",
						"totalCost": "558017"
					},
					"external": {
						"DELETE_FILE_INVALID_FILE_ID()": "infinite",
						"DELETE_FILE_NOT_FOUND()": "infinite",
						"RETRIEVE_FILE_DETAILS_FILE_NOT_FOUND()": "infinite",
						"RETRIEVE_FILE_DETAILS_UNAUTHORIZED_CALLER_ADDRESS()": "infinite",
						"STORE_FILE_DUPLICATE_FILE_ID()": "infinite",
						"STORE_FILE_INVALID_CHUNKS()": "infinite",
						"STORE_FILE_METADATA_INVALID_FILE_HASH()": "infinite",
						"STORE_FILE_METADATA_INVALID_FILE_ID()": "infinite",
						"STORE_FILE_METADATA_INVALID_FILE_NAME()": "infinite",
						"STORE_FILE_METADATA_INVALID_FILE_SIZE()": "infinite",
						"STORE_FILE_METADATA_INVALID_FILE_TYPE()": "infinite",
						"STORE_FILE_METADATA_INVALID_SENDER()": "infinite",
						"STORE_FILE_NO_NODES_FOUND()": "infinite",
						"TEST_EMPTY_STRING()": "719",
						"TEST_FILE_1_ENCODING()": "infinite",
						"TEST_FILE_1_HASH()": "377",
						"TEST_FILE_1_ID()": "infinite",
						"TEST_FILE_1_NAME()": "infinite",
						"TEST_FILE_1_SIZE()": "354",
						"TEST_FILE_1_TYPE()": "infinite",
						"TEST_RANDOM_ADDRESS_1()": "424",
						"TEST_RANDOM_ADDRESS_2()": "402",
						"TEST_RANDOM_ADDRESS_3()": "425",
						"TEST_RANDOM_NODE_SIZE_10000()": "397",
						"TEST_RANDOM_NODE_SIZE_5000()": "355",
						"TEST_ZERO_SIZE()": "398"
					}
				},
				"methodIdentifiers": {
					"DELETE_FILE_INVALID_FILE_ID()": "1040106a",
					"DELETE_FILE_NOT_FOUND()": "804d2f4b",
					"RETRIEVE_FILE_DETAILS_FILE_NOT_FOUND()": "f9a9af1e",
					"RETRIEVE_FILE_DETAILS_UNAUTHORIZED_CALLER_ADDRESS()": "0b16a8c9",
					"STORE_FILE_DUPLICATE_FILE_ID()": "b70b31e3",
					"STORE_FILE_INVALID_CHUNKS()": "e2811206",
					"STORE_FILE_METADATA_INVALID_FILE_HASH()": "2ceb53a0",
					"STORE_FILE_METADATA_INVALID_FILE_ID()": "703acad8",
					"STORE_FILE_METADATA_INVALID_FILE_NAME()": "5b2b5003",
					"STORE_FILE_METADATA_INVALID_FILE_SIZE()": "e9e4a0d1",
					"STORE_FILE_METADATA_INVALID_FILE_TYPE()": "eb44cb4e",
					"STORE_FILE_METADATA_INVALID_SENDER()": "c615b579",
					"STORE_FILE_NO_NODES_FOUND()": "bcf101f7",
					"TEST_EMPTY_STRING()": "1ff40d02",
					"TEST_FILE_1_ENCODING()": "99267723",
					"TEST_FILE_1_HASH()": "1cf30540",
					"TEST_FILE_1_ID()": "72d34496",
					"TEST_FILE_1_NAME()": "37c6b7b7",
					"TEST_FILE_1_SIZE()": "4f44d5d5",
					"TEST_FILE_1_TYPE()": "ed32bfc8",
					"TEST_RANDOM_ADDRESS_1()": "b483d300",
					"TEST_RANDOM_ADDRESS_2()": "cb656e52",
					"TEST_RANDOM_ADDRESS_3()": "37b2cae8",
					"TEST_RANDOM_NODE_SIZE_10000()": "ee6cdf83",
					"TEST_RANDOM_NODE_SIZE_5000()": "35465249",
					"TEST_ZERO_SIZE()": "1fda8e9c"
				}
			},
			"storageLayout": {
				"storage": [],
				"types": null
			},
			"userdoc": {
				"kind": "user",
				"methods": {},
				"version": 1
			}
		}
	}
}