{
	"data": {
		"bytecode": {
			"linkReferences": {},
			"object": "608060405260035f556064600155348015610018575f80fd5b5061067c806100265f395ff3fe608060405234801561000f575f80fd5b506004361061004a575f3560e01c8063196815d21461004e5780635ffd7c061461007e57806367e9c8d11461009c578063cf86bf93146100b8575b5f80fd5b61006860048036038101906100639190610403565b6100d6565b6040516100759190610462565b60405180910390f35b610086610150565b6040516100939190610493565b60405180910390f35b6100b660048036038101906100b191906104d6565b610155565b005b6100c06101ce565b6040516100cd9190610493565b60405180910390f35b5f8060405180602001604052805f81525090505f5b835181101561013f578184828151811061010857610107610530565b5b602002602001015160405160200161012192919061060d565b604051602081830303815290604052915080806001019150506100eb565b508080519060200120915050919050565b5f5481565b5f73ffffffffffffffffffffffffffffffffffffffff163373ffffffffffffffffffffffffffffffffffffffff160361018c575f80fd5b5f602060ff161161019b575f80fd5b5f8151116101a7575f80fd5b816002826040516101b89190610630565b9081526020016040518091039020819055505050565b60015481565b5f604051905090565b5f80fd5b5f80fd5b5f80fd5b5f601f19601f8301169050919050565b7f4e487b71000000000000000000000000000000000000000000000000000000005f52604160045260245ffd5b61022f826101e9565b810181811067ffffffffffffffff8211171561024e5761024d6101f9565b5b80604052505050565b5f6102606101d4565b905061026c8282610226565b919050565b5f67ffffffffffffffff82111561028b5761028a6101f9565b5b602082029050602081019050919050565b5f80fd5b5f80fd5b5f67ffffffffffffffff8211156102be576102bd6101f9565b5b6102c7826101e9565b9050602081019050919050565b828183375f83830152505050565b5f6102f46102ef846102a4565b610257565b9050828152602081018484840111156103105761030f6102a0565b5b61031b8482856102d4565b509392505050565b5f82601f830112610337576103366101e5565b5b81356103478482602086016102e2565b91505092915050565b5f61036261035d84610271565b610257565b905080838252602082019050602084028301858111156103855761038461029c565b5b835b818110156103cc57803567ffffffffffffffff8111156103aa576103a96101e5565b5b8086016103b78982610323565b85526020850194505050602081019050610387565b5050509392505050565b5f82601f8301126103ea576103e96101e5565b5b81356103fa848260208601610350565b91505092915050565b5f60208284031215610418576104176101dd565b5b5f82013567ffffffffffffffff811115610435576104346101e1565b5b610441848285016103d6565b91505092915050565b5f819050919050565b61045c8161044a565b82525050565b5f6020820190506104755f830184610453565b92915050565b5f819050919050565b61048d8161047b565b82525050565b5f6020820190506104a65f830184610484565b92915050565b6104b58161044a565b81146104bf575f80fd5b50565b5f813590506104d0816104ac565b92915050565b5f80604083850312156104ec576104eb6101dd565b5b5f6104f9858286016104c2565b925050602083013567ffffffffffffffff81111561051a576105196101e1565b5b61052685828601610323565b9150509250929050565b7f4e487b71000000000000000000000000000000000000000000000000000000005f52603260045260245ffd5b5f81519050919050565b5f81905092915050565b5f5b8381101561058e578082015181840152602081019050610573565b5f8484015250505050565b5f6105a38261055d565b6105ad8185610567565b93506105bd818560208601610571565b80840191505092915050565b5f81519050919050565b5f81905092915050565b5f6105e7826105c9565b6105f181856105d3565b9350610601818560208601610571565b80840191505092915050565b5f6106188285610599565b915061062482846105dd565b91508190509392505050565b5f61063b82846105dd565b91508190509291505056fea26469706673582212201c069efdd19124b454272d3064bd2d81eb08d792eec87f1669ceb9f910147a4764736f6c63430008160033",
			"opcodes": "PUSH1 0x80 PUSH1 0x40 MSTORE PUSH1 0x3 PUSH0 SSTORE PUSH1 0x64 PUSH1 0x1 SSTORE CALLVALUE DUP1 ISZERO PUSH2 0x18 JUMPI PUSH0 DUP1 REVERT JUMPDEST POP PUSH2 0x67C DUP1 PUSH2 0x26 PUSH0 CODECOPY PUSH0 RETURN INVALID PUSH1 0x80 PUSH1 0x40 MSTORE CALLVALUE DUP1 ISZERO PUSH2 0xF JUMPI PUSH0 DUP1 REVERT JUMPDEST POP PUSH1 0x4 CALLDATASIZE LT PUSH2 0x4A JUMPI PUSH0 CALLDATALOAD PUSH1 0xE0 SHR DUP1 PUSH4 0x196815D2 EQ PUSH2 0x4E JUMPI DUP1 PUSH4 0x5FFD7C06 EQ PUSH2 0x7E JUMPI DUP1 PUSH4 0x67E9C8D1 EQ PUSH2 0x9C JUMPI DUP1 PUSH4 0xCF86BF93 EQ PUSH2 0xB8 JUMPI JUMPDEST PUSH0 DUP1 REVERT JUMPDEST PUSH2 0x68 PUSH1 0x4 DUP1 CALLDATASIZE SUB DUP2 ADD SWAP1 PUSH2 0x63 SWAP2 SWAP1 PUSH2 0x403 JUMP JUMPDEST PUSH2 0xD6 JUMP JUMPDEST PUSH1 0x40 MLOAD PUSH2 0x75 SWAP2 SWAP1 PUSH2 0x462 JUMP JUMPDEST PUSH1 0x40 MLOAD DUP1 SWAP2 SUB SWAP1 RETURN JUMPDEST PUSH2 0x86 PUSH2 0x150 JUMP JUMPDEST PUSH1 0x40 MLOAD PUSH2 0x93 SWAP2 SWAP1 PUSH2 0x493 JUMP JUMPDEST PUSH1 0x40 MLOAD DUP1 SWAP2 SUB SWAP1 RETURN JUMPDEST PUSH2 0xB6 PUSH1 0x4 DUP1 CALLDATASIZE SUB DUP2 ADD SWAP1 PUSH2 0xB1 SWAP2 SWAP1 PUSH2 0x4D6 JUMP JUMPDEST PUSH2 0x155 JUMP JUMPDEST STOP JUMPDEST PUSH2 0xC0 PUSH2 0x1CE JUMP JUMPDEST PUSH1 0x40 MLOAD PUSH2 0xCD SWAP2 SWAP1 PUSH2 0x493 JUMP JUMPDEST PUSH1 0x40 MLOAD DUP1 SWAP2 SUB SWAP1 RETURN JUMPDEST PUSH0 DUP1 PUSH1 0x40 MLOAD DUP1 PUSH1 0x20 ADD PUSH1 0x40 MSTORE DUP1 PUSH0 DUP2 MSTORE POP SWAP1 POP PUSH0 JUMPDEST DUP4 MLOAD DUP2 LT ISZERO PUSH2 0x13F JUMPI DUP2 DUP5 DUP3 DUP2 MLOAD DUP2 LT PUSH2 0x108 JUMPI PUSH2 0x107 PUSH2 0x530 JUMP JUMPDEST JUMPDEST PUSH1 0x20 MUL PUSH1 0x20 ADD ADD MLOAD PUSH1 0x40 MLOAD PUSH1 0x20 ADD PUSH2 0x121 SWAP3 SWAP2 SWAP1 PUSH2 0x60D JUMP JUMPDEST PUSH1 0x40 MLOAD PUSH1 0x20 DUP2 DUP4 SUB SUB DUP2 MSTORE SWAP1 PUSH1 0x40 MSTORE SWAP2 POP DUP1 DUP1 PUSH1 0x1 ADD SWAP2 POP POP PUSH2 0xEB JUMP JUMPDEST POP DUP1 DUP1 MLOAD SWAP1 PUSH1 0x20 ADD KECCAK256 SWAP2 POP POP SWAP2 SWAP1 POP JUMP JUMPDEST PUSH0 SLOAD DUP2 JUMP JUMPDEST PUSH0 PUSH20 0xFFFFFFFFFFFFFFFFFFFFFFFFFFFFFFFFFFFFFFFF AND CALLER PUSH20 0xFFFFFFFFFFFFFFFFFFFFFFFFFFFFFFFFFFFFFFFF AND SUB PUSH2 0x18C JUMPI PUSH0 DUP1 REVERT JUMPDEST PUSH0 PUSH1 0x20 PUSH1 0xFF AND GT PUSH2 0x19B JUMPI PUSH0 DUP1 REVERT JUMPDEST PUSH0 DUP2 MLOAD GT PUSH2 0x1A7 JUMPI PUSH0 DUP1 REVERT JUMPDEST DUP2 PUSH1 0x2 DUP3 PUSH1 0x40 MLOAD PUSH2 0x1B8 SWAP2 SWAP1 PUSH2 0x630 JUMP JUMPDEST SWAP1 DUP2 MSTORE PUSH1 0x20 ADD PUSH1 0x40 MLOAD DUP1 SWAP2 SUB SWAP1 KECCAK256 DUP2 SWAP1 SSTORE POP POP POP JUMP JUMPDEST PUSH1 0x1 SLOAD DUP2 JUMP JUMPDEST PUSH0 PUSH1 0x40 MLOAD SWAP1 POP SWAP1 JUMP JUMPDEST PUSH0 DUP1 REVERT JUMPDEST PUSH0 DUP1 REVERT JUMPDEST PUSH0 DUP1 REVERT JUMPDEST PUSH0 PUSH1 0x1F NOT PUSH1 0x1F DUP4 ADD AND SWAP1 POP SWAP2 SWAP1 POP JUMP JUMPDEST PUSH32 0x4E487B7100000000000000000000000000000000000000000000000000000000 PUSH0 MSTORE PUSH1 0x41 PUSH1 0x4 MSTORE PUSH1 0x24 PUSH0 REVERT JUMPDEST PUSH2 0x22F DUP3 PUSH2 0x1E9 JUMP JUMPDEST DUP2 ADD DUP2 DUP2 LT PUSH8 0xFFFFFFFFFFFFFFFF DUP3 GT OR ISZERO PUSH2 0x24E JUMPI PUSH2 0x24D PUSH2 0x1F9 JUMP JUMPDEST JUMPDEST DUP1 PUSH1 0x40 MSTORE POP POP POP JUMP JUMPDEST PUSH0 PUSH2 0x260 PUSH2 0x1D4 JUMP JUMPDEST SWAP1 POP PUSH2 0x26C DUP3 DUP3 PUSH2 0x226 JUMP JUMPDEST SWAP2 SWAP1 POP JUMP JUMPDEST PUSH0 PUSH8 0xFFFFFFFFFFFFFFFF DUP3 GT ISZERO PUSH2 0x28B JUMPI PUSH2 0x28A PUSH2 0x1F9 JUMP JUMPDEST JUMPDEST PUSH1 0x20 DUP3 MUL SWAP1 POP PUSH1 0x20 DUP2 ADD SWAP1 POP SWAP2 SWAP1 POP JUMP JUMPDEST PUSH0 DUP1 REVERT JUMPDEST PUSH0 DUP1 REVERT JUMPDEST PUSH0 PUSH8 0xFFFFFFFFFFFFFFFF DUP3 GT ISZERO PUSH2 0x2BE JUMPI PUSH2 0x2BD PUSH2 0x1F9 JUMP JUMPDEST JUMPDEST PUSH2 0x2C7 DUP3 PUSH2 0x1E9 JUMP JUMPDEST SWAP1 POP PUSH1 0x20 DUP2 ADD SWAP1 POP SWAP2 SWAP1 POP JUMP JUMPDEST DUP3 DUP2 DUP4 CALLDATACOPY PUSH0 DUP4 DUP4 ADD MSTORE POP POP POP JUMP JUMPDEST PUSH0 PUSH2 0x2F4 PUSH2 0x2EF DUP5 PUSH2 0x2A4 JUMP JUMPDEST PUSH2 0x257 JUMP JUMPDEST SWAP1 POP DUP3 DUP2 MSTORE PUSH1 0x20 DUP2 ADD DUP5 DUP5 DUP5 ADD GT ISZERO PUSH2 0x310 JUMPI PUSH2 0x30F PUSH2 0x2A0 JUMP JUMPDEST JUMPDEST PUSH2 0x31B DUP5 DUP3 DUP6 PUSH2 0x2D4 JUMP JUMPDEST POP SWAP4 SWAP3 POP POP POP JUMP JUMPDEST PUSH0 DUP3 PUSH1 0x1F DUP4 ADD SLT PUSH2 0x337 JUMPI PUSH2 0x336 PUSH2 0x1E5 JUMP JUMPDEST JUMPDEST DUP2 CALLDATALOAD PUSH2 0x347 DUP5 DUP3 PUSH1 0x20 DUP7 ADD PUSH2 0x2E2 JUMP JUMPDEST SWAP2 POP POP SWAP3 SWAP2 POP POP JUMP JUMPDEST PUSH0 PUSH2 0x362 PUSH2 0x35D DUP5 PUSH2 0x271 JUMP JUMPDEST PUSH2 0x257 JUMP JUMPDEST SWAP1 POP DUP1 DUP4 DUP3 MSTORE PUSH1 0x20 DUP3 ADD SWAP1 POP PUSH1 0x20 DUP5 MUL DUP4 ADD DUP6 DUP2 GT ISZERO PUSH2 0x385 JUMPI PUSH2 0x384 PUSH2 0x29C JUMP JUMPDEST JUMPDEST DUP4 JUMPDEST DUP2 DUP2 LT ISZERO PUSH2 0x3CC JUMPI DUP1 CALLDATALOAD PUSH8 0xFFFFFFFFFFFFFFFF DUP2 GT ISZERO PUSH2 0x3AA JUMPI PUSH2 0x3A9 PUSH2 0x1E5 JUMP JUMPDEST JUMPDEST DUP1 DUP7 ADD PUSH2 0x3B7 DUP10 DUP3 PUSH2 0x323 JUMP JUMPDEST DUP6 MSTORE PUSH1 0x20 DUP6 ADD SWAP5 POP POP POP PUSH1 0x20 DUP2 ADD SWAP1 POP PUSH2 0x387 JUMP JUMPDEST POP POP POP SWAP4 SWAP3 POP POP POP JUMP JUMPDEST PUSH0 DUP3 PUSH1 0x1F DUP4 ADD SLT PUSH2 0x3EA JUMPI PUSH2 0x3E9 PUSH2 0x1E5 JUMP JUMPDEST JUMPDEST DUP2 CALLDATALOAD PUSH2 0x3FA DUP5 DUP3 PUSH1 0x20 DUP7 ADD PUSH2 0x350 JUMP JUMPDEST SWAP2 POP POP SWAP3 SWAP2 POP POP JUMP JUMPDEST PUSH0 PUSH1 0x20 DUP3 DUP5 SUB SLT ISZERO PUSH2 0x418 JUMPI PUSH2 0x417 PUSH2 0x1DD JUMP JUMPDEST JUMPDEST PUSH0 DUP3 ADD CALLDATALOAD PUSH8 0xFFFFFFFFFFFFFFFF DUP2 GT ISZERO PUSH2 0x435 JUMPI PUSH2 0x434 PUSH2 0x1E1 JUMP JUMPDEST JUMPDEST PUSH2 0x441 DUP5 DUP3 DUP6 ADD PUSH2 0x3D6 JUMP JUMPDEST SWAP2 POP POP SWAP3 SWAP2 POP POP JUMP JUMPDEST PUSH0 DUP2 SWAP1 POP SWAP2 SWAP1 POP JUMP JUMPDEST PUSH2 0x45C DUP2 PUSH2 0x44A JUMP JUMPDEST DUP3 MSTORE POP POP JUMP JUMPDEST PUSH0 PUSH1 0x20 DUP3 ADD SWAP1 POP PUSH2 0x475 PUSH0 DUP4 ADD DUP5 PUSH2 0x453 JUMP JUMPDEST SWAP3 SWAP2 POP POP JUMP JUMPDEST PUSH0 DUP2 SWAP1 POP SWAP2 SWAP1 POP JUMP JUMPDEST PUSH2 0x48D DUP2 PUSH2 0x47B JUMP JUMPDEST DUP3 MSTORE POP POP JUMP JUMPDEST PUSH0 PUSH1 0x20 DUP3 ADD SWAP1 POP PUSH2 0x4A6 PUSH0 DUP4 ADD DUP5 PUSH2 0x484 JUMP JUMPDEST SWAP3 SWAP2 POP POP JUMP JUMPDEST PUSH2 0x4B5 DUP2 PUSH2 0x44A JUMP JUMPDEST DUP2 EQ PUSH2 0x4BF JUMPI PUSH0 DUP1 REVERT JUMPDEST POP JUMP JUMPDEST PUSH0 DUP2 CALLDATALOAD SWAP1 POP PUSH2 0x4D0 DUP2 PUSH2 0x4AC JUMP JUMPDEST SWAP3 SWAP2 POP POP JUMP JUMPDEST PUSH0 DUP1 PUSH1 0x40 DUP4 DUP6 SUB SLT ISZERO PUSH2 0x4EC JUMPI PUSH2 0x4EB PUSH2 0x1DD JUMP JUMPDEST JUMPDEST PUSH0 PUSH2 0x4F9 DUP6 DUP3 DUP7 ADD PUSH2 0x4C2 JUMP JUMPDEST SWAP3 POP POP PUSH1 0x20 DUP4 ADD CALLDATALOAD PUSH8 0xFFFFFFFFFFFFFFFF DUP2 GT ISZERO PUSH2 0x51A JUMPI PUSH2 0x519 PUSH2 0x1E1 JUMP JUMPDEST JUMPDEST PUSH2 0x526 DUP6 DUP3 DUP7 ADD PUSH2 0x323 JUMP JUMPDEST SWAP2 POP POP SWAP3 POP SWAP3 SWAP1 POP JUMP JUMPDEST PUSH32 0x4E487B7100000000000000000000000000000000000000000000000000000000 PUSH0 MSTORE PUSH1 0x32 PUSH1 0x4 MSTORE PUSH1 0x24 PUSH0 REVERT JUMPDEST PUSH0 DUP2 MLOAD SWAP1 POP SWAP2 SWAP1 POP JUMP JUMPDEST PUSH0 DUP2 SWAP1 POP SWAP3 SWAP2 POP POP JUMP JUMPDEST PUSH0 JUMPDEST DUP4 DUP2 LT ISZERO PUSH2 0x58E JUMPI DUP1 DUP3 ADD MLOAD DUP2 DUP5 ADD MSTORE PUSH1 0x20 DUP2 ADD SWAP1 POP PUSH2 0x573 JUMP JUMPDEST PUSH0 DUP5 DUP5 ADD MSTORE POP POP POP POP JUMP JUMPDEST PUSH0 PUSH2 0x5A3 DUP3 PUSH2 0x55D JUMP JUMPDEST PUSH2 0x5AD DUP2 DUP6 PUSH2 0x567 JUMP JUMPDEST SWAP4 POP PUSH2 0x5BD DUP2 DUP6 PUSH1 0x20 DUP7 ADD PUSH2 0x571 JUMP JUMPDEST DUP1 DUP5 ADD SWAP2 POP POP SWAP3 SWAP2 POP POP JUMP JUMPDEST PUSH0 DUP2 MLOAD SWAP1 POP SWAP2 SWAP1 POP JUMP JUMPDEST PUSH0 DUP2 SWAP1 POP SWAP3 SWAP2 POP POP JUMP JUMPDEST PUSH0 PUSH2 0x5E7 DUP3 PUSH2 0x5C9 JUMP JUMPDEST PUSH2 0x5F1 DUP2 DUP6 PUSH2 0x5D3 JUMP JUMPDEST SWAP4 POP PUSH2 0x601 DUP2 DUP6 PUSH1 0x20 DUP7 ADD PUSH2 0x571 JUMP JUMPDEST DUP1 DUP5 ADD SWAP2 POP POP SWAP3 SWAP2 POP POP JUMP JUMPDEST PUSH0 PUSH2 0x618 DUP3 DUP6 PUSH2 0x599 JUMP JUMPDEST SWAP2 POP PUSH2 0x624 DUP3 DUP5 PUSH2 0x5DD JUMP JUMPDEST SWAP2 POP DUP2 SWAP1 POP SWAP4 SWAP3 POP POP POP JUMP JUMPDEST PUSH0 PUSH2 0x63B DUP3 DUP5 PUSH2 0x5DD JUMP JUMPDEST SWAP2 POP DUP2 SWAP1 POP SWAP3 SWAP2 POP POP JUMP INVALID LOG2 PUSH5 0x6970667358 0x22 SLT KECCAK256 SHR MOD SWAP15 REVERT 0xD1 SWAP2 0x24 0xB4 SLOAD 0x27 0x2D ADDRESS PUSH5 0xBD2D81EB08 0xD7 SWAP3 0xEE 0xC8 PUSH32 0x1669CEB9F910147A4764736F6C63430008160033000000000000000000000000 "
		},
		"gasEstimates": {
			"creation": {
				"codeDepositCost": "332000",
				"executionCost": "44577",
				"totalCost": "376577"
			},
			"external": {
				"createHash(string[])": "infinite",
				"maxChunkSize()": "2469",
				"numMaxChunksDuplication()": "2424",
				"storeFileHash(bytes32,string)": "infinite"
			},
			"internal": {
				"validateFileAuthenticity(bytes32,string memory)": "infinite"
			}
		},
		"methodIdentifiers": {
			"createHash(string[])": "196815d2",
			"maxChunkSize()": "cf86bf93",
			"numMaxChunksDuplication()": "5ffd7c06",
			"storeFileHash(bytes32,string)": "67e9c8d1"
		}
	},
	"abi": [
		{
			"inputs": [
				{
					"internalType": "string[]",
					"name": "stringArray",
					"type": "string[]"
				}
			],
			"name": "createHash",
			"outputs": [
				{
					"internalType": "bytes32",
					"name": "",
					"type": "bytes32"
				}
			],
			"stateMutability": "pure",
			"type": "function"
		},
		{
			"inputs": [],
			"name": "maxChunkSize",
			"outputs": [
				{
					"internalType": "uint256",
					"name": "",
					"type": "uint256"
				}
			],
			"stateMutability": "view",
			"type": "function"
		},
		{
			"inputs": [],
			"name": "numMaxChunksDuplication",
			"outputs": [
				{
					"internalType": "uint256",
					"name": "",
					"type": "uint256"
				}
			],
			"stateMutability": "view",
			"type": "function"
		},
		{
			"inputs": [
				{
					"internalType": "bytes32",
					"name": "_fileHash",
					"type": "bytes32"
				},
				{
					"internalType": "string",
					"name": "_uniqueId",
					"type": "string"
				}
			],
			"name": "storeFileHash",
			"outputs": [],
			"stateMutability": "nonpayable",
			"type": "function"
		}
	]
}