{
	"data": {
		"bytecode": {
			"linkReferences": {},
			"object": "608060405260035f556064600155348015610018575f80fd5b50610666806100265f395ff3fe608060405234801561000f575f80fd5b506004361061004a575f3560e01c8063196815d21461004e5780635ffd7c061461007e578063912bb1fb1461009c578063cf86bf93146100b8575b5f80fd5b610068600480360381019061006391906103f5565b6100d6565b6040516100759190610454565b60405180910390f35b610086610150565b6040516100939190610485565b60405180910390f35b6100b660048036038101906100b191906104f2565b610155565b005b6100c06101c0565b6040516100cd9190610485565b60405180910390f35b5f8060405180602001604052805f81525090505f5b835181101561013f578184828151811061010857610107610530565b5b602002602001015160405160200161012192919061060d565b604051602081830303815290604052915080806001019150506100eb565b508080519060200120915050919050565b5f5481565b5f73ffffffffffffffffffffffffffffffffffffffff163373ffffffffffffffffffffffffffffffffffffffff160361018c575f80fd5b5f602060ff161161019b575f80fd5b5f81116101a6575f80fd5b8160025f8381526020019081526020015f20819055505050565b60015481565b5f604051905090565b5f80fd5b5f80fd5b5f80fd5b5f601f19601f8301169050919050565b7f4e487b71000000000000000000000000000000000000000000000000000000005f52604160045260245ffd5b610221826101db565b810181811067ffffffffffffffff821117156102405761023f6101eb565b5b80604052505050565b5f6102526101c6565b905061025e8282610218565b919050565b5f67ffffffffffffffff82111561027d5761027c6101eb565b5b602082029050602081019050919050565b5f80fd5b5f80fd5b5f67ffffffffffffffff8211156102b0576102af6101eb565b5b6102b9826101db565b9050602081019050919050565b828183375f83830152505050565b5f6102e66102e184610296565b610249565b90508281526020810184848401111561030257610301610292565b5b61030d8482856102c6565b509392505050565b5f82601f830112610329576103286101d7565b5b81356103398482602086016102d4565b91505092915050565b5f61035461034f84610263565b610249565b905080838252602082019050602084028301858111156103775761037661028e565b5b835b818110156103be57803567ffffffffffffffff81111561039c5761039b6101d7565b5b8086016103a98982610315565b85526020850194505050602081019050610379565b5050509392505050565b5f82601f8301126103dc576103db6101d7565b5b81356103ec848260208601610342565b91505092915050565b5f6020828403121561040a576104096101cf565b5b5f82013567ffffffffffffffff811115610427576104266101d3565b5b610433848285016103c8565b91505092915050565b5f819050919050565b61044e8161043c565b82525050565b5f6020820190506104675f830184610445565b92915050565b5f819050919050565b61047f8161046d565b82525050565b5f6020820190506104985f830184610476565b92915050565b6104a78161043c565b81146104b1575f80fd5b50565b5f813590506104c28161049e565b92915050565b6104d18161046d565b81146104db575f80fd5b50565b5f813590506104ec816104c8565b92915050565b5f8060408385031215610508576105076101cf565b5b5f610515858286016104b4565b9250506020610526858286016104de565b9150509250929050565b7f4e487b71000000000000000000000000000000000000000000000000000000005f52603260045260245ffd5b5f81519050919050565b5f81905092915050565b5f5b8381101561058e578082015181840152602081019050610573565b5f8484015250505050565b5f6105a38261055d565b6105ad8185610567565b93506105bd818560208601610571565b80840191505092915050565b5f81519050919050565b5f81905092915050565b5f6105e7826105c9565b6105f181856105d3565b9350610601818560208601610571565b80840191505092915050565b5f6106188285610599565b915061062482846105dd565b9150819050939250505056fea26469706673582212203342d5e86a0c59bc60260a9ff9be94e392799db9aad6471f1e417209701ecca264736f6c63430008160033",
			"opcodes": "PUSH1 0x80 PUSH1 0x40 MSTORE PUSH1 0x3 PUSH0 SSTORE PUSH1 0x64 PUSH1 0x1 SSTORE CALLVALUE DUP1 ISZERO PUSH2 0x18 JUMPI PUSH0 DUP1 REVERT JUMPDEST POP PUSH2 0x666 DUP1 PUSH2 0x26 PUSH0 CODECOPY PUSH0 RETURN INVALID PUSH1 0x80 PUSH1 0x40 MSTORE CALLVALUE DUP1 ISZERO PUSH2 0xF JUMPI PUSH0 DUP1 REVERT JUMPDEST POP PUSH1 0x4 CALLDATASIZE LT PUSH2 0x4A JUMPI PUSH0 CALLDATALOAD PUSH1 0xE0 SHR DUP1 PUSH4 0x196815D2 EQ PUSH2 0x4E JUMPI DUP1 PUSH4 0x5FFD7C06 EQ PUSH2 0x7E JUMPI DUP1 PUSH4 0x912BB1FB EQ PUSH2 0x9C JUMPI DUP1 PUSH4 0xCF86BF93 EQ PUSH2 0xB8 JUMPI JUMPDEST PUSH0 DUP1 REVERT JUMPDEST PUSH2 0x68 PUSH1 0x4 DUP1 CALLDATASIZE SUB DUP2 ADD SWAP1 PUSH2 0x63 SWAP2 SWAP1 PUSH2 0x3F5 JUMP JUMPDEST PUSH2 0xD6 JUMP JUMPDEST PUSH1 0x40 MLOAD PUSH2 0x75 SWAP2 SWAP1 PUSH2 0x454 JUMP JUMPDEST PUSH1 0x40 MLOAD DUP1 SWAP2 SUB SWAP1 RETURN JUMPDEST PUSH2 0x86 PUSH2 0x150 JUMP JUMPDEST PUSH1 0x40 MLOAD PUSH2 0x93 SWAP2 SWAP1 PUSH2 0x485 JUMP JUMPDEST PUSH1 0x40 MLOAD DUP1 SWAP2 SUB SWAP1 RETURN JUMPDEST PUSH2 0xB6 PUSH1 0x4 DUP1 CALLDATASIZE SUB DUP2 ADD SWAP1 PUSH2 0xB1 SWAP2 SWAP1 PUSH2 0x4F2 JUMP JUMPDEST PUSH2 0x155 JUMP JUMPDEST STOP JUMPDEST PUSH2 0xC0 PUSH2 0x1C0 JUMP JUMPDEST PUSH1 0x40 MLOAD PUSH2 0xCD SWAP2 SWAP1 PUSH2 0x485 JUMP JUMPDEST PUSH1 0x40 MLOAD DUP1 SWAP2 SUB SWAP1 RETURN JUMPDEST PUSH0 DUP1 PUSH1 0x40 MLOAD DUP1 PUSH1 0x20 ADD PUSH1 0x40 MSTORE DUP1 PUSH0 DUP2 MSTORE POP SWAP1 POP PUSH0 JUMPDEST DUP4 MLOAD DUP2 LT ISZERO PUSH2 0x13F JUMPI DUP2 DUP5 DUP3 DUP2 MLOAD DUP2 LT PUSH2 0x108 JUMPI PUSH2 0x107 PUSH2 0x530 JUMP JUMPDEST JUMPDEST PUSH1 0x20 MUL PUSH1 0x20 ADD ADD MLOAD PUSH1 0x40 MLOAD PUSH1 0x20 ADD PUSH2 0x121 SWAP3 SWAP2 SWAP1 PUSH2 0x60D JUMP JUMPDEST PUSH1 0x40 MLOAD PUSH1 0x20 DUP2 DUP4 SUB SUB DUP2 MSTORE SWAP1 PUSH1 0x40 MSTORE SWAP2 POP DUP1 DUP1 PUSH1 0x1 ADD SWAP2 POP POP PUSH2 0xEB JUMP JUMPDEST POP DUP1 DUP1 MLOAD SWAP1 PUSH1 0x20 ADD KECCAK256 SWAP2 POP POP SWAP2 SWAP1 POP JUMP JUMPDEST PUSH0 SLOAD DUP2 JUMP JUMPDEST PUSH0 PUSH20 0xFFFFFFFFFFFFFFFFFFFFFFFFFFFFFFFFFFFFFFFF AND CALLER PUSH20 0xFFFFFFFFFFFFFFFFFFFFFFFFFFFFFFFFFFFFFFFF AND SUB PUSH2 0x18C JUMPI PUSH0 DUP1 REVERT JUMPDEST PUSH0 PUSH1 0x20 PUSH1 0xFF AND GT PUSH2 0x19B JUMPI PUSH0 DUP1 REVERT JUMPDEST PUSH0 DUP2 GT PUSH2 0x1A6 JUMPI PUSH0 DUP1 REVERT JUMPDEST DUP2 PUSH1 0x2 PUSH0 DUP4 DUP2 MSTORE PUSH1 0x20 ADD SWAP1 DUP2 MSTORE PUSH1 0x20 ADD PUSH0 KECCAK256 DUP2 SWAP1 SSTORE POP POP POP JUMP JUMPDEST PUSH1 0x1 SLOAD DUP2 JUMP JUMPDEST PUSH0 PUSH1 0x40 MLOAD SWAP1 POP SWAP1 JUMP JUMPDEST PUSH0 DUP1 REVERT JUMPDEST PUSH0 DUP1 REVERT JUMPDEST PUSH0 DUP1 REVERT JUMPDEST PUSH0 PUSH1 0x1F NOT PUSH1 0x1F DUP4 ADD AND SWAP1 POP SWAP2 SWAP1 POP JUMP JUMPDEST PUSH32 0x4E487B7100000000000000000000000000000000000000000000000000000000 PUSH0 MSTORE PUSH1 0x41 PUSH1 0x4 MSTORE PUSH1 0x24 PUSH0 REVERT JUMPDEST PUSH2 0x221 DUP3 PUSH2 0x1DB JUMP JUMPDEST DUP2 ADD DUP2 DUP2 LT PUSH8 0xFFFFFFFFFFFFFFFF DUP3 GT OR ISZERO PUSH2 0x240 JUMPI PUSH2 0x23F PUSH2 0x1EB JUMP JUMPDEST JUMPDEST DUP1 PUSH1 0x40 MSTORE POP POP POP JUMP JUMPDEST PUSH0 PUSH2 0x252 PUSH2 0x1C6 JUMP JUMPDEST SWAP1 POP PUSH2 0x25E DUP3 DUP3 PUSH2 0x218 JUMP JUMPDEST SWAP2 SWAP1 POP JUMP JUMPDEST PUSH0 PUSH8 0xFFFFFFFFFFFFFFFF DUP3 GT ISZERO PUSH2 0x27D JUMPI PUSH2 0x27C PUSH2 0x1EB JUMP JUMPDEST JUMPDEST PUSH1 0x20 DUP3 MUL SWAP1 POP PUSH1 0x20 DUP2 ADD SWAP1 POP SWAP2 SWAP1 POP JUMP JUMPDEST PUSH0 DUP1 REVERT JUMPDEST PUSH0 DUP1 REVERT JUMPDEST PUSH0 PUSH8 0xFFFFFFFFFFFFFFFF DUP3 GT ISZERO PUSH2 0x2B0 JUMPI PUSH2 0x2AF PUSH2 0x1EB JUMP JUMPDEST JUMPDEST PUSH2 0x2B9 DUP3 PUSH2 0x1DB JUMP JUMPDEST SWAP1 POP PUSH1 0x20 DUP2 ADD SWAP1 POP SWAP2 SWAP1 POP JUMP JUMPDEST DUP3 DUP2 DUP4 CALLDATACOPY PUSH0 DUP4 DUP4 ADD MSTORE POP POP POP JUMP JUMPDEST PUSH0 PUSH2 0x2E6 PUSH2 0x2E1 DUP5 PUSH2 0x296 JUMP JUMPDEST PUSH2 0x249 JUMP JUMPDEST SWAP1 POP DUP3 DUP2 MSTORE PUSH1 0x20 DUP2 ADD DUP5 DUP5 DUP5 ADD GT ISZERO PUSH2 0x302 JUMPI PUSH2 0x301 PUSH2 0x292 JUMP JUMPDEST JUMPDEST PUSH2 0x30D DUP5 DUP3 DUP6 PUSH2 0x2C6 JUMP JUMPDEST POP SWAP4 SWAP3 POP POP POP JUMP JUMPDEST PUSH0 DUP3 PUSH1 0x1F DUP4 ADD SLT PUSH2 0x329 JUMPI PUSH2 0x328 PUSH2 0x1D7 JUMP JUMPDEST JUMPDEST DUP2 CALLDATALOAD PUSH2 0x339 DUP5 DUP3 PUSH1 0x20 DUP7 ADD PUSH2 0x2D4 JUMP JUMPDEST SWAP2 POP POP SWAP3 SWAP2 POP POP JUMP JUMPDEST PUSH0 PUSH2 0x354 PUSH2 0x34F DUP5 PUSH2 0x263 JUMP JUMPDEST PUSH2 0x249 JUMP JUMPDEST SWAP1 POP DUP1 DUP4 DUP3 MSTORE PUSH1 0x20 DUP3 ADD SWAP1 POP PUSH1 0x20 DUP5 MUL DUP4 ADD DUP6 DUP2 GT ISZERO PUSH2 0x377 JUMPI PUSH2 0x376 PUSH2 0x28E JUMP JUMPDEST JUMPDEST DUP4 JUMPDEST DUP2 DUP2 LT ISZERO PUSH2 0x3BE JUMPI DUP1 CALLDATALOAD PUSH8 0xFFFFFFFFFFFFFFFF DUP2 GT ISZERO PUSH2 0x39C JUMPI PUSH2 0x39B PUSH2 0x1D7 JUMP JUMPDEST JUMPDEST DUP1 DUP7 ADD PUSH2 0x3A9 DUP10 DUP3 PUSH2 0x315 JUMP JUMPDEST DUP6 MSTORE PUSH1 0x20 DUP6 ADD SWAP5 POP POP POP PUSH1 0x20 DUP2 ADD SWAP1 POP PUSH2 0x379 JUMP JUMPDEST POP POP POP SWAP4 SWAP3 POP POP POP JUMP JUMPDEST PUSH0 DUP3 PUSH1 0x1F DUP4 ADD SLT PUSH2 0x3DC JUMPI PUSH2 0x3DB PUSH2 0x1D7 JUMP JUMPDEST JUMPDEST DUP2 CALLDATALOAD PUSH2 0x3EC DUP5 DUP3 PUSH1 0x20 DUP7 ADD PUSH2 0x342 JUMP JUMPDEST SWAP2 POP POP SWAP3 SWAP2 POP POP JUMP JUMPDEST PUSH0 PUSH1 0x20 DUP3 DUP5 SUB SLT ISZERO PUSH2 0x40A JUMPI PUSH2 0x409 PUSH2 0x1CF JUMP JUMPDEST JUMPDEST PUSH0 DUP3 ADD CALLDATALOAD PUSH8 0xFFFFFFFFFFFFFFFF DUP2 GT ISZERO PUSH2 0x427 JUMPI PUSH2 0x426 PUSH2 0x1D3 JUMP JUMPDEST JUMPDEST PUSH2 0x433 DUP5 DUP3 DUP6 ADD PUSH2 0x3C8 JUMP JUMPDEST SWAP2 POP POP SWAP3 SWAP2 POP POP JUMP JUMPDEST PUSH0 DUP2 SWAP1 POP SWAP2 SWAP1 POP JUMP JUMPDEST PUSH2 0x44E DUP2 PUSH2 0x43C JUMP JUMPDEST DUP3 MSTORE POP POP JUMP JUMPDEST PUSH0 PUSH1 0x20 DUP3 ADD SWAP1 POP PUSH2 0x467 PUSH0 DUP4 ADD DUP5 PUSH2 0x445 JUMP JUMPDEST SWAP3 SWAP2 POP POP JUMP JUMPDEST PUSH0 DUP2 SWAP1 POP SWAP2 SWAP1 POP JUMP JUMPDEST PUSH2 0x47F DUP2 PUSH2 0x46D JUMP JUMPDEST DUP3 MSTORE POP POP JUMP JUMPDEST PUSH0 PUSH1 0x20 DUP3 ADD SWAP1 POP PUSH2 0x498 PUSH0 DUP4 ADD DUP5 PUSH2 0x476 JUMP JUMPDEST SWAP3 SWAP2 POP POP JUMP JUMPDEST PUSH2 0x4A7 DUP2 PUSH2 0x43C JUMP JUMPDEST DUP2 EQ PUSH2 0x4B1 JUMPI PUSH0 DUP1 REVERT JUMPDEST POP JUMP JUMPDEST PUSH0 DUP2 CALLDATALOAD SWAP1 POP PUSH2 0x4C2 DUP2 PUSH2 0x49E JUMP JUMPDEST SWAP3 SWAP2 POP POP JUMP JUMPDEST PUSH2 0x4D1 DUP2 PUSH2 0x46D JUMP JUMPDEST DUP2 EQ PUSH2 0x4DB JUMPI PUSH0 DUP1 REVERT JUMPDEST POP JUMP JUMPDEST PUSH0 DUP2 CALLDATALOAD SWAP1 POP PUSH2 0x4EC DUP2 PUSH2 0x4C8 JUMP JUMPDEST SWAP3 SWAP2 POP POP JUMP JUMPDEST PUSH0 DUP1 PUSH1 0x40 DUP4 DUP6 SUB SLT ISZERO PUSH2 0x508 JUMPI PUSH2 0x507 PUSH2 0x1CF JUMP JUMPDEST JUMPDEST PUSH0 PUSH2 0x515 DUP6 DUP3 DUP7 ADD PUSH2 0x4B4 JUMP JUMPDEST SWAP3 POP POP PUSH1 0x20 PUSH2 0x526 DUP6 DUP3 DUP7 ADD PUSH2 0x4DE JUMP JUMPDEST SWAP2 POP POP SWAP3 POP SWAP3 SWAP1 POP JUMP JUMPDEST PUSH32 0x4E487B7100000000000000000000000000000000000000000000000000000000 PUSH0 MSTORE PUSH1 0x32 PUSH1 0x4 MSTORE PUSH1 0x24 PUSH0 REVERT JUMPDEST PUSH0 DUP2 MLOAD SWAP1 POP SWAP2 SWAP1 POP JUMP JUMPDEST PUSH0 DUP2 SWAP1 POP SWAP3 SWAP2 POP POP JUMP JUMPDEST PUSH0 JUMPDEST DUP4 DUP2 LT ISZERO PUSH2 0x58E JUMPI DUP1 DUP3 ADD MLOAD DUP2 DUP5 ADD MSTORE PUSH1 0x20 DUP2 ADD SWAP1 POP PUSH2 0x573 JUMP JUMPDEST PUSH0 DUP5 DUP5 ADD MSTORE POP POP POP POP JUMP JUMPDEST PUSH0 PUSH2 0x5A3 DUP3 PUSH2 0x55D JUMP JUMPDEST PUSH2 0x5AD DUP2 DUP6 PUSH2 0x567 JUMP JUMPDEST SWAP4 POP PUSH2 0x5BD DUP2 DUP6 PUSH1 0x20 DUP7 ADD PUSH2 0x571 JUMP JUMPDEST DUP1 DUP5 ADD SWAP2 POP POP SWAP3 SWAP2 POP POP JUMP JUMPDEST PUSH0 DUP2 MLOAD SWAP1 POP SWAP2 SWAP1 POP JUMP JUMPDEST PUSH0 DUP2 SWAP1 POP SWAP3 SWAP2 POP POP JUMP JUMPDEST PUSH0 PUSH2 0x5E7 DUP3 PUSH2 0x5C9 JUMP JUMPDEST PUSH2 0x5F1 DUP2 DUP6 PUSH2 0x5D3 JUMP JUMPDEST SWAP4 POP PUSH2 0x601 DUP2 DUP6 PUSH1 0x20 DUP7 ADD PUSH2 0x571 JUMP JUMPDEST DUP1 DUP5 ADD SWAP2 POP POP SWAP3 SWAP2 POP POP JUMP JUMPDEST PUSH0 PUSH2 0x618 DUP3 DUP6 PUSH2 0x599 JUMP JUMPDEST SWAP2 POP PUSH2 0x624 DUP3 DUP5 PUSH2 0x5DD JUMP JUMPDEST SWAP2 POP DUP2 SWAP1 POP SWAP4 SWAP3 POP POP POP JUMP INVALID LOG2 PUSH5 0x6970667358 0x22 SLT KECCAK256 CALLER TIMESTAMP 0xD5 0xE8 PUSH11 0xC59BC60260A9FF9BE94E3 SWAP3 PUSH26 0x9DB9AAD6471F1E417209701ECCA264736F6C6343000816003300 "
		},
		"gasEstimates": {
			"creation": {
				"codeDepositCost": "327600",
				"executionCost": "44577",
				"totalCost": "372177"
			},
			"external": {
				"createHash(string[])": "infinite",
				"maxChunkSize()": "2469",
				"numMaxChunksDuplication()": "2424",
				"storeFileHash(bytes32,uint256)": "22867"
			},
			"internal": {
				"validateFileAuthenticity(bytes32,uint256)": "infinite"
			}
		},
		"methodIdentifiers": {
			"createHash(string[])": "196815d2",
			"maxChunkSize()": "cf86bf93",
			"numMaxChunksDuplication()": "5ffd7c06",
			"storeFileHash(bytes32,uint256)": "912bb1fb"
		}
	},
	"abi": [
		{
			"inputs": [
				{
					"internalType": "string[]",
					"name": "stringArray",
					"type": "string[]"
				}
			],
			"name": "createHash",
			"outputs": [
				{
					"internalType": "bytes32",
					"name": "",
					"type": "bytes32"
				}
			],
			"stateMutability": "pure",
			"type": "function"
		},
		{
			"inputs": [],
			"name": "maxChunkSize",
			"outputs": [
				{
					"internalType": "uint256",
					"name": "",
					"type": "uint256"
				}
			],
			"stateMutability": "view",
			"type": "function"
		},
		{
			"inputs": [],
			"name": "numMaxChunksDuplication",
			"outputs": [
				{
					"internalType": "uint256",
					"name": "",
					"type": "uint256"
				}
			],
			"stateMutability": "view",
			"type": "function"
		},
		{
			"inputs": [
				{
					"internalType": "bytes32",
					"name": "_fileHash",
					"type": "bytes32"
				},
				{
					"internalType": "uint256",
					"name": "_uniqueId",
					"type": "uint256"
				}
			],
			"name": "storeFileHash",
			"outputs": [],
			"stateMutability": "nonpayable",
			"type": "function"
		}
	]
}