{
	"data": {
		"bytecode": {
			"linkReferences": {},
			"object": "608060405260035f556064600155348015610018575f80fd5b503360065f6101000a81548173ffffffffffffffffffffffffffffffffffffffff021916908373ffffffffffffffffffffffffffffffffffffffff160217905550613ac1806100665f395ff3fe608060405234801561000f575f80fd5b506004361061011f575f3560e01c806367e9c8d1116100ab578063a1174e7d1161006f578063a1174e7d1461033c578063a98603081461035a578063a99100541461038a578063cf86bf93146103a6578063fe72ae13146103c45761011f565b806367e9c8d1146102865780638da5cb5b146102a257806392e2ade5146102c05780639e34c134146102f0578063a0be4b1f146103205761011f565b8063390f1b71116100f2578063390f1b71146101d057806350f1c985146101ec578063528aecce146102085780635ffd7c061461023857806364f0c0b8146102565761011f565b806311bd77fe14610123578063189a5a171461013f578063196815d2146101705780632a85be1e146101a0575b5f80fd5b61013d60048036038101906101389190612741565b6103f4565b005b6101596004803603810190610154919061277f565b610614565b6040516101679291906127c8565b60405180910390f35b61018a60048036038101906101859190612a0d565b610653565b6040516101979190612a6c565b60405180910390f35b6101ba60048036038101906101b59190612a85565b6106cd565b6040516101c79190612b59565b60405180910390f35b6101ea60048036038101906101e59190612c63565b610883565b005b61020660048036038101906102019190612a85565b610af2565b005b610222600480360381019061021d9190612d8c565b610c26565b60405161022f9190612f58565b60405180910390f35b610240611098565b60405161024d9190612f78565b60405180910390f35b610270600480360381019061026b9190612f91565b61109d565b60405161027d9190612fbc565b60405180910390f35b6102a0600480360381019061029b9190612fd5565b6111b5565b005b6102aa61122e565b6040516102b79190612fbc565b60405180910390f35b6102da60048036038101906102d5919061302f565b611253565b6040516102e79190613226565b60405180910390f35b61030a60048036038101906103059190612a85565b611731565b6040516103179190612b59565b60405180910390f35b61033a60048036038101906103359190613246565b6117ef565b005b610344611927565b6040516103519190612f58565b60405180910390f35b610374600480360381019061036f919061277f565b6119b2565b60405161038191906132fb565b60405180910390f35b6103a4600480360381019061039f919061302f565b611a67565b005b6103ae6122eb565b6040516103bb9190612f78565b60405180910390f35b6103de60048036038101906103d99190612f91565b6122f1565b6040516103eb9190612fbc565b60405180910390f35b5f73ffffffffffffffffffffffffffffffffffffffff1660035f8473ffffffffffffffffffffffffffffffffffffffff1673ffffffffffffffffffffffffffffffffffffffff1681526020019081526020015f205f015f9054906101000a900473ffffffffffffffffffffffffffffffffffffffff1673ffffffffffffffffffffffffffffffffffffffff16146104c0576040517f08c379a00000000000000000000000000000000000000000000000000000000081526004016104b79061335e565b60405180910390fd5b60405180604001604052808373ffffffffffffffffffffffffffffffffffffffff1681526020018281525060035f8473ffffffffffffffffffffffffffffffffffffffff1673ffffffffffffffffffffffffffffffffffffffff1681526020019081526020015f205f820151815f015f6101000a81548173ffffffffffffffffffffffffffffffffffffffff021916908373ffffffffffffffffffffffffffffffffffffffff160217905550602082015181600101559050507f5f91b0afd2c6ef8da92137ba907bccdc85ec4856a15ad39de3e0eff02be6d70e826040516105a89190612fbc565b60405180910390a1600582908060018154018082558091505060019003905f5260205f20015f9091909190916101000a81548173ffffffffffffffffffffffffffffffffffffffff021916908373ffffffffffffffffffffffffffffffffffffffff1602179055505050565b6003602052805f5260405f205f91509050805f015f9054906101000a900473ffffffffffffffffffffffffffffffffffffffff16908060010154905082565b5f8060405180602001604052805f81525090505f5b83518110156106bc57818482815181106106855761068461337c565b5b602002602001015160405160200161069e929190613427565b60405160208183030381529060405291508080600101915050610668565b508080519060200120915050919050565b60605f73ffffffffffffffffffffffffffffffffffffffff1660035f8573ffffffffffffffffffffffffffffffffffffffff1673ffffffffffffffffffffffffffffffffffffffff1681526020019081526020015f205f015f9054906101000a900473ffffffffffffffffffffffffffffffffffffffff1673ffffffffffffffffffffffffffffffffffffffff160361079b576040517f08c379a000000000000000000000000000000000000000000000000000000000815260040161079290613494565b60405180910390fd5b60045f8473ffffffffffffffffffffffffffffffffffffffff1673ffffffffffffffffffffffffffffffffffffffff1681526020019081526020015f20826040516107e691906134b2565b908152602001604051809103902080546107ff906134f5565b80601f016020809104026020016040519081016040528092919081815260200182805461082b906134f5565b80156108765780601f1061084d57610100808354040283529160200191610876565b820191905f5260205f20905b81548152906001019060200180831161085957829003601f168201915b5050505050905092915050565b5f73ffffffffffffffffffffffffffffffffffffffff163373ffffffffffffffffffffffffffffffffffffffff16036108ba575f80fd5b5f8651116108c6575f80fd5b5f8751116108d2575f80fd5b5f602060ff16116108e1575f80fd5b5f8351116108ed575f80fd5b5f81116108f8575f80fd5b5f825111610904575f80fd5b60085f6109119190612517565b60075f3373ffffffffffffffffffffffffffffffffffffffff1673ffffffffffffffffffffffffffffffffffffffff1681526020019081526020015f206040518061012001604052808481526020018981526020018881526020018781526020018381526020014281526020013373ffffffffffffffffffffffffffffffffffffffff16815260200186815260200185815250908060018154018082558091505060019003905f5260205f2090600902015f909190919091505f820151815f0190816109dd91906136c2565b5060208201518160010190816109f391906136c2565b506040820151816002019081610a0991906136c2565b50606082015181600301556080820151816004015560a0820151816005015560c0820151816006015f6101000a81548173ffffffffffffffffffffffffffffffffffffffff021916908373ffffffffffffffffffffffffffffffffffffffff16021790555060e0820151816007019081610a8391906136c2565b50610100820151816008019080519060200190610aa1929190612535565b5050507f0594b470627265d9bd1e370fc6d16be467a73c12ff896ec66c0109c0c0a1e570828888888542338a604051610ae1989796959493929190613791565b60405180910390a150505050505050565b5f73ffffffffffffffffffffffffffffffffffffffff1660035f8473ffffffffffffffffffffffffffffffffffffffff1673ffffffffffffffffffffffffffffffffffffffff1681526020019081526020015f205f015f9054906101000a900473ffffffffffffffffffffffffffffffffffffffff1673ffffffffffffffffffffffffffffffffffffffff1603610bbe576040517f08c379a0000000000000000000000000000000000000000000000000000000008152600401610bb590613494565b60405180910390fd5b60045f8373ffffffffffffffffffffffffffffffffffffffff1673ffffffffffffffffffffffffffffffffffffffff1681526020019081526020015f2081604051610c0991906134b2565b90815260200160405180910390205f610c2291906125bc565b5050565b60605f5b8751811015610f5e575f888281518110610c4757610c4661337c565b5b60200260200101515190505f808054905060036005805490501015610c6f5760058054905090505b5b80821015610f4e578180610c8390613856565b9250505f610c908461109d565b90507f0838d04243391d45d94a98fff54d1737cbffea86c34ab825e5d6980ec9b7723584604051610cc19190612f78565b60405180910390a17f5f91b0afd2c6ef8da92137ba907bccdc85ec4856a15ad39de3e0eff02be6d70e81604051610cf89190612fbc565b60405180910390a15f73ffffffffffffffffffffffffffffffffffffffff168173ffffffffffffffffffffffffffffffffffffffff1603610d6e576040517f08c379a0000000000000000000000000000000000000000000000000000000008152600401610d65906138e7565b60405180910390fd5b7f5f91b0afd2c6ef8da92137ba907bccdc85ec4856a15ad39de3e0eff02be6d70e81604051610d9d9190612fbc565b60405180910390a1610e32816008805480602002602001604051908101604052809291908181526020018280548015610e2857602002820191905f5260205f20905b815f9054906101000a900473ffffffffffffffffffffffffffffffffffffffff1673ffffffffffffffffffffffffffffffffffffffff1681526020019060010190808311610ddf575b505050505061232c565b610ece57600881908060018154018082558091505060019003905f5260205f20015f9091909190916101000a81548173ffffffffffffffffffffffffffffffffffffffff021916908373ffffffffffffffffffffffffffffffffffffffff1602179055507fb011a0da2bacc57f5c2ddf79f5c8e86484a4fc528f15571a48a9d47956bc82be81604051610ec59190612fbc565b60405180910390a15b610ef3818d8781518110610ee557610ee461337c565b5b60200260200101518a6117ef565b610f48818560035f8573ffffffffffffffffffffffffffffffffffffffff1673ffffffffffffffffffffffffffffffffffffffff1681526020019081526020015f2060010154610f439190613905565b6123aa565b50610c70565b5050508080600101915050610c2a565b505f610f6988610653565b9050610f7581856111b5565b611007878783886008805480602002602001604051908101604052809291908181526020018280548015610ffb57602002820191905f5260205f20905b815f9054906101000a900473ffffffffffffffffffffffffffffffffffffffff1673ffffffffffffffffffffffffffffffffffffffff1681526020019060010190808311610fb2575b50505050508989610883565b600880548060200260200160405190810160405280929190818152602001828054801561108657602002820191905f5260205f20905b815f9054906101000a900473ffffffffffffffffffffffffffffffffffffffff1673ffffffffffffffffffffffffffffffffffffffff168152602001906001019080831161103d575b50505050509150509695505050505050565b5f5481565b5f8060058054905090505f603290505f82036110bd575f925050506111b0565b5f826001436110cc9190613905565b405f1c6110d99190613965565b90505f5b838110156111a8575f60058583856110f59190613995565b6110ff9190613965565b815481106111105761110f61337c565b5b905f5260205f20015f9054906101000a900473ffffffffffffffffffffffffffffffffffffffff16905083876111469190613995565b60035f8373ffffffffffffffffffffffffffffffffffffffff1673ffffffffffffffffffffffffffffffffffffffff1681526020019081526020015f2060010154111561119a5780955050505050506111b0565b5080806001019150506110dd565b505f93505050505b919050565b5f73ffffffffffffffffffffffffffffffffffffffff163373ffffffffffffffffffffffffffffffffffffffff16036111ec575f80fd5b5f602060ff16116111fb575f80fd5b5f815111611207575f80fd5b8160028260405161121891906134b2565b9081526020016040518091039020819055505050565b60065f9054906101000a900473ffffffffffffffffffffffffffffffffffffffff1681565b61125b6125f9565b5f60075f3373ffffffffffffffffffffffffffffffffffffffff1673ffffffffffffffffffffffffffffffffffffffff1681526020019081526020015f20805480602002602001604051908101604052809291908181526020015f905b82821015611626578382905f5260205f209060090201604051806101200160405290815f820180546112e9906134f5565b80601f0160208091040260200160405190810160405280929190818152602001828054611315906134f5565b80156113605780601f1061133757610100808354040283529160200191611360565b820191905f5260205f20905b81548152906001019060200180831161134357829003601f168201915b50505050508152602001600182018054611379906134f5565b80601f01602080910402602001604051908101604052809291908181526020018280546113a5906134f5565b80156113f05780601f106113c7576101008083540402835291602001916113f0565b820191905f5260205f20905b8154815290600101906020018083116113d357829003601f168201915b50505050508152602001600282018054611409906134f5565b80601f0160208091040260200160405190810160405280929190818152602001828054611435906134f5565b80156114805780601f1061145757610100808354040283529160200191611480565b820191905f5260205f20905b81548152906001019060200180831161146357829003601f168201915b50505050508152602001600382015481526020016004820154815260200160058201548152602001600682015f9054906101000a900473ffffffffffffffffffffffffffffffffffffffff1673ffffffffffffffffffffffffffffffffffffffff1673ffffffffffffffffffffffffffffffffffffffff16815260200160078201805461150c906134f5565b80601f0160208091040260200160405190810160405280929190818152602001828054611538906134f5565b80156115835780601f1061155a57610100808354040283529160200191611583565b820191905f5260205f20905b81548152906001019060200180831161156657829003601f168201915b505050505081526020016008820180548060200260200160405190810160405280929190818152602001828054801561160e57602002820191905f5260205f20905b815f9054906101000a900473ffffffffffffffffffffffffffffffffffffffff1673ffffffffffffffffffffffffffffffffffffffff16815260200190600101908083116115c5575b505050505081525050815260200190600101906112b8565b5050505090505f5b81518110156116945761165e82828151811061164d5761164c61337c565b5b60200260200101515f0151856124bf565b15611687578181815181106116765761167561337c565b5b60200260200101519250505061172c565b808060010191505061162e565b50606060405180610120016040528060405180602001604052805f815250815260200160405180602001604052805f815250815260200160405180602001604052805f81525081526020015f801b81526020015f81526020015f81526020015f73ffffffffffffffffffffffffffffffffffffffff16815260200160405180602001604052805f815250815260200182815250925050505b919050565b6004602052815f5260405f20818051602081018201805184825260208301602085012081835280955050505050505f91509150508054611770906134f5565b80601f016020809104026020016040519081016040528092919081815260200182805461179c906134f5565b80156117e75780601f106117be576101008083540402835291602001916117e7565b820191905f5260205f20905b8154815290600101906020018083116117ca57829003601f168201915b505050505081565b5f73ffffffffffffffffffffffffffffffffffffffff1660035f8573ffffffffffffffffffffffffffffffffffffffff1673ffffffffffffffffffffffffffffffffffffffff1681526020019081526020015f205f015f9054906101000a900473ffffffffffffffffffffffffffffffffffffffff1673ffffffffffffffffffffffffffffffffffffffff16036118bb576040517f08c379a00000000000000000000000000000000000000000000000000000000081526004016118b290613494565b60405180910390fd5b8160045f8573ffffffffffffffffffffffffffffffffffffffff1673ffffffffffffffffffffffffffffffffffffffff1681526020019081526020015f208260405161190791906134b2565b9081526020016040518091039020908161192191906136c2565b50505050565b606060058054806020026020016040519081016040528092919081815260200182805480156119a857602002820191905f5260205f20905b815f9054906101000a900473ffffffffffffffffffffffffffffffffffffffff1673ffffffffffffffffffffffffffffffffffffffff168152602001906001019080831161195f575b5050505050905090565b6119ba61265a565b60035f8373ffffffffffffffffffffffffffffffffffffffff1673ffffffffffffffffffffffffffffffffffffffff1681526020019081526020015f206040518060400160405290815f82015f9054906101000a900473ffffffffffffffffffffffffffffffffffffffff1673ffffffffffffffffffffffffffffffffffffffff1673ffffffffffffffffffffffffffffffffffffffff1681526020016001820154815250509050919050565b5f60075f3373ffffffffffffffffffffffffffffffffffffffff1673ffffffffffffffffffffffffffffffffffffffff1681526020019081526020015f208054905011611ae9576040517f08c379a0000000000000000000000000000000000000000000000000000000008152600401611ae090613a12565b60405180910390fd5b5f60075f3373ffffffffffffffffffffffffffffffffffffffff1673ffffffffffffffffffffffffffffffffffffffff1681526020019081526020015f20805480602002602001604051908101604052809291908181526020015f905b82821015611eb4578382905f5260205f209060090201604051806101200160405290815f82018054611b77906134f5565b80601f0160208091040260200160405190810160405280929190818152602001828054611ba3906134f5565b8015611bee5780601f10611bc557610100808354040283529160200191611bee565b820191905f5260205f20905b815481529060010190602001808311611bd157829003601f168201915b50505050508152602001600182018054611c07906134f5565b80601f0160208091040260200160405190810160405280929190818152602001828054611c33906134f5565b8015611c7e5780601f10611c5557610100808354040283529160200191611c7e565b820191905f5260205f20905b815481529060010190602001808311611c6157829003601f168201915b50505050508152602001600282018054611c97906134f5565b80601f0160208091040260200160405190810160405280929190818152602001828054611cc3906134f5565b8015611d0e5780601f10611ce557610100808354040283529160200191611d0e565b820191905f5260205f20905b815481529060010190602001808311611cf157829003601f168201915b50505050508152602001600382015481526020016004820154815260200160058201548152602001600682015f9054906101000a900473ffffffffffffffffffffffffffffffffffffffff1673ffffffffffffffffffffffffffffffffffffffff1673ffffffffffffffffffffffffffffffffffffffff168152602001600782018054611d9a906134f5565b80601f0160208091040260200160405190810160405280929190818152602001828054611dc6906134f5565b8015611e115780601f10611de857610100808354040283529160200191611e11565b820191905f5260205f20905b815481529060010190602001808311611df457829003601f168201915b5050505050815260200160088201805480602002602001604051908101604052809291908181526020018280548015611e9c57602002820191905f5260205f20905b815f9054906101000a900473ffffffffffffffffffffffffffffffffffffffff1673ffffffffffffffffffffffffffffffffffffffff1681526020019060010190808311611e53575b50505050508152505081526020019060010190611b46565b5050505090505f60018251611ec99190613905565b90505f828281518110611edf57611ede61337c565b5b60200260200101519050611ef16125f9565b5f5b845181101561208a57611f23858281518110611f1257611f1161337c565b5b60200260200101515f0151876124bf565b1561207d57848181518110611f3b57611f3a61337c565b5b602002602001015191508260075f3373ffffffffffffffffffffffffffffffffffffffff1673ffffffffffffffffffffffffffffffffffffffff1681526020019081526020015f208281548110611f9557611f9461337c565b5b905f5260205f2090600902015f820151815f019081611fb491906136c2565b506020820151816001019081611fca91906136c2565b506040820151816002019081611fe091906136c2565b50606082015181600301556080820151816004015560a0820151816005015560c0820151816006015f6101000a81548173ffffffffffffffffffffffffffffffffffffffff021916908373ffffffffffffffffffffffffffffffffffffffff16021790555060e082015181600701908161205a91906136c2565b50610100820151816008019080519060200190612078929190612535565b509050505b8080600101915050611ef3565b508060075f3373ffffffffffffffffffffffffffffffffffffffff1673ffffffffffffffffffffffffffffffffffffffff1681526020019081526020015f2084815481106120db576120da61337c565b5b905f5260205f2090600902015f820151815f0190816120fa91906136c2565b50602082015181600101908161211091906136c2565b50604082015181600201908161212691906136c2565b50606082015181600301556080820151816004015560a0820151816005015560c0820151816006015f6101000a81548173ffffffffffffffffffffffffffffffffffffffff021916908373ffffffffffffffffffffffffffffffffffffffff16021790555060e08201518160070190816121a091906136c2565b506101008201518160080190805190602001906121be929190612535565b5090505060075f3373ffffffffffffffffffffffffffffffffffffffff1673ffffffffffffffffffffffffffffffffffffffff1681526020019081526020015f2080548061220f5761220e613a30565b5b600190038181905f5260205f2090600902015f8082015f61223091906125bc565b600182015f61223f91906125bc565b600282015f61224e91906125bc565b600382015f9055600482015f9055600582015f9055600682015f6101000a81549073ffffffffffffffffffffffffffffffffffffffff0219169055600782015f61229891906125bc565b600882015f6122a79190612517565b505090557f8598a19145ba7b62366f9f3e3ceca438df1e575ffa3bef982ed120041131d78633866040516122dc929190613a5d565b60405180910390a15050505050565b60015481565b60058181548110612300575f80fd5b905f5260205f20015f915054906101000a900473ffffffffffffffffffffffffffffffffffffffff1681565b5f805f90505b825181101561239f578373ffffffffffffffffffffffffffffffffffffffff168382815181106123655761236461337c565b5b602002602001015173ffffffffffffffffffffffffffffffffffffffff16036123925760019150506123a4565b8080600101915050612332565b505f90505b92915050565b5f73ffffffffffffffffffffffffffffffffffffffff1660035f8473ffffffffffffffffffffffffffffffffffffffff1673ffffffffffffffffffffffffffffffffffffffff1681526020019081526020015f205f015f9054906101000a900473ffffffffffffffffffffffffffffffffffffffff1673ffffffffffffffffffffffffffffffffffffffff1603612476576040517f08c379a000000000000000000000000000000000000000000000000000000000815260040161246d90613494565b60405180910390fd5b8060035f8473ffffffffffffffffffffffffffffffffffffffff1673ffffffffffffffffffffffffffffffffffffffff1681526020019081526020015f20600101819055505050565b5f816040516020016124d191906134b2565b60405160208183030381529060405280519060200120836040516020016124f891906134b2565b6040516020818303038152906040528051906020012014905092915050565b5080545f8255905f5260205f20908101906125329190612688565b50565b828054828255905f5260205f209081019282156125ab579160200282015b828111156125aa578251825f6101000a81548173ffffffffffffffffffffffffffffffffffffffff021916908373ffffffffffffffffffffffffffffffffffffffff16021790555091602001919060010190612553565b5b5090506125b89190612688565b5090565b5080546125c8906134f5565b5f825580601f106125d957506125f6565b601f0160209004905f5260205f20908101906125f59190612688565b5b50565b6040518061012001604052806060815260200160608152602001606081526020015f80191681526020015f81526020015f81526020015f73ffffffffffffffffffffffffffffffffffffffff16815260200160608152602001606081525090565b60405180604001604052805f73ffffffffffffffffffffffffffffffffffffffff1681526020015f81525090565b5b8082111561269f575f815f905550600101612689565b5090565b5f604051905090565b5f80fd5b5f80fd5b5f73ffffffffffffffffffffffffffffffffffffffff82169050919050565b5f6126dd826126b4565b9050919050565b6126ed816126d3565b81146126f7575f80fd5b50565b5f81359050612708816126e4565b92915050565b5f819050919050565b6127208161270e565b811461272a575f80fd5b50565b5f8135905061273b81612717565b92915050565b5f8060408385031215612757576127566126ac565b5b5f612764858286016126fa565b92505060206127758582860161272d565b9150509250929050565b5f60208284031215612794576127936126ac565b5b5f6127a1848285016126fa565b91505092915050565b6127b3816126d3565b82525050565b6127c28161270e565b82525050565b5f6040820190506127db5f8301856127aa565b6127e860208301846127b9565b9392505050565b5f80fd5b5f601f19601f8301169050919050565b7f4e487b71000000000000000000000000000000000000000000000000000000005f52604160045260245ffd5b612839826127f3565b810181811067ffffffffffffffff8211171561285857612857612803565b5b80604052505050565b5f61286a6126a3565b90506128768282612830565b919050565b5f67ffffffffffffffff82111561289557612894612803565b5b602082029050602081019050919050565b5f80fd5b5f80fd5b5f67ffffffffffffffff8211156128c8576128c7612803565b5b6128d1826127f3565b9050602081019050919050565b828183375f83830152505050565b5f6128fe6128f9846128ae565b612861565b90508281526020810184848401111561291a576129196128aa565b5b6129258482856128de565b509392505050565b5f82601f830112612941576129406127ef565b5b81356129518482602086016128ec565b91505092915050565b5f61296c6129678461287b565b612861565b9050808382526020820190506020840283018581111561298f5761298e6128a6565b5b835b818110156129d657803567ffffffffffffffff8111156129b4576129b36127ef565b5b8086016129c1898261292d565b85526020850194505050602081019050612991565b5050509392505050565b5f82601f8301126129f4576129f36127ef565b5b8135612a0484826020860161295a565b91505092915050565b5f60208284031215612a2257612a216126ac565b5b5f82013567ffffffffffffffff811115612a3f57612a3e6126b0565b5b612a4b848285016129e0565b91505092915050565b5f819050919050565b612a6681612a54565b82525050565b5f602082019050612a7f5f830184612a5d565b92915050565b5f8060408385031215612a9b57612a9a6126ac565b5b5f612aa8858286016126fa565b925050602083013567ffffffffffffffff811115612ac957612ac86126b0565b5b612ad58582860161292d565b9150509250929050565b5f81519050919050565b5f82825260208201905092915050565b5f5b83811015612b16578082015181840152602081019050612afb565b5f8484015250505050565b5f612b2b82612adf565b612b358185612ae9565b9350612b45818560208601612af9565b612b4e816127f3565b840191505092915050565b5f6020820190508181035f830152612b718184612b21565b905092915050565b612b8281612a54565b8114612b8c575f80fd5b50565b5f81359050612b9d81612b79565b92915050565b5f67ffffffffffffffff821115612bbd57612bbc612803565b5b602082029050602081019050919050565b5f612be0612bdb84612ba3565b612861565b90508083825260208201905060208402830185811115612c0357612c026128a6565b5b835b81811015612c2c5780612c1888826126fa565b845260208401935050602081019050612c05565b5050509392505050565b5f82601f830112612c4a57612c496127ef565b5b8135612c5a848260208601612bce565b91505092915050565b5f805f805f805f60e0888a031215612c7e57612c7d6126ac565b5b5f88013567ffffffffffffffff811115612c9b57612c9a6126b0565b5b612ca78a828b0161292d565b975050602088013567ffffffffffffffff811115612cc857612cc76126b0565b5b612cd48a828b0161292d565b9650506040612ce58a828b01612b8f565b955050606088013567ffffffffffffffff811115612d0657612d056126b0565b5b612d128a828b0161292d565b945050608088013567ffffffffffffffff811115612d3357612d326126b0565b5b612d3f8a828b01612c36565b93505060a088013567ffffffffffffffff811115612d6057612d5f6126b0565b5b612d6c8a828b0161292d565b92505060c0612d7d8a828b0161272d565b91505092959891949750929550565b5f805f805f8060c08789031215612da657612da56126ac565b5b5f87013567ffffffffffffffff811115612dc357612dc26126b0565b5b612dcf89828a016129e0565b965050602087013567ffffffffffffffff811115612df057612def6126b0565b5b612dfc89828a0161292d565b955050604087013567ffffffffffffffff811115612e1d57612e1c6126b0565b5b612e2989828a0161292d565b945050606087013567ffffffffffffffff811115612e4a57612e496126b0565b5b612e5689828a0161292d565b935050608087013567ffffffffffffffff811115612e7757612e766126b0565b5b612e8389828a0161292d565b92505060a0612e9489828a0161272d565b9150509295509295509295565b5f81519050919050565b5f82825260208201905092915050565b5f819050602082019050919050565b612ed3816126d3565b82525050565b5f612ee48383612eca565b60208301905092915050565b5f602082019050919050565b5f612f0682612ea1565b612f108185612eab565b9350612f1b83612ebb565b805f5b83811015612f4b578151612f328882612ed9565b9750612f3d83612ef0565b925050600181019050612f1e565b5085935050505092915050565b5f6020820190508181035f830152612f708184612efc565b905092915050565b5f602082019050612f8b5f8301846127b9565b92915050565b5f60208284031215612fa657612fa56126ac565b5b5f612fb38482850161272d565b91505092915050565b5f602082019050612fcf5f8301846127aa565b92915050565b5f8060408385031215612feb57612fea6126ac565b5b5f612ff885828601612b8f565b925050602083013567ffffffffffffffff811115613019576130186126b0565b5b6130258582860161292d565b9150509250929050565b5f60208284031215613044576130436126ac565b5b5f82013567ffffffffffffffff811115613061576130606126b0565b5b61306d8482850161292d565b91505092915050565b5f82825260208201905092915050565b5f61309082612adf565b61309a8185613076565b93506130aa818560208601612af9565b6130b3816127f3565b840191505092915050565b6130c781612a54565b82525050565b6130d68161270e565b82525050565b5f82825260208201905092915050565b5f6130f682612ea1565b61310081856130dc565b935061310b83612ebb565b805f5b8381101561313b5781516131228882612ed9565b975061312d83612ef0565b92505060018101905061310e565b5085935050505092915050565b5f61012083015f8301518482035f8601526131638282613086565b9150506020830151848203602086015261317d8282613086565b915050604083015184820360408601526131978282613086565b91505060608301516131ac60608601826130be565b5060808301516131bf60808601826130cd565b5060a08301516131d260a08601826130cd565b5060c08301516131e560c0860182612eca565b5060e083015184820360e08601526131fd8282613086565b91505061010083015184820361010086015261321982826130ec565b9150508091505092915050565b5f6020820190508181035f83015261323e8184613148565b905092915050565b5f805f6060848603121561325d5761325c6126ac565b5b5f61326a868287016126fa565b935050602084013567ffffffffffffffff81111561328b5761328a6126b0565b5b6132978682870161292d565b925050604084013567ffffffffffffffff8111156132b8576132b76126b0565b5b6132c48682870161292d565b9150509250925092565b604082015f8201516132e25f850182612eca565b5060208201516132f560208501826130cd565b50505050565b5f60408201905061330e5f8301846132ce565b92915050565b7f4e6f646520616c726561647920657869737473000000000000000000000000005f82015250565b5f613348601383612ae9565b915061335382613314565b602082019050919050565b5f6020820190508181035f8301526133758161333c565b9050919050565b7f4e487b71000000000000000000000000000000000000000000000000000000005f52603260045260245ffd5b5f81519050919050565b5f81905092915050565b5f6133c7826133a9565b6133d181856133b3565b93506133e1818560208601612af9565b80840191505092915050565b5f81905092915050565b5f61340182612adf565b61340b81856133ed565b935061341b818560208601612af9565b80840191505092915050565b5f61343282856133bd565b915061343e82846133f7565b91508190509392505050565b7f4e6f646520646f6573206e6f74206578697374000000000000000000000000005f82015250565b5f61347e601383612ae9565b91506134898261344a565b602082019050919050565b5f6020820190508181035f8301526134ab81613472565b9050919050565b5f6134bd82846133f7565b915081905092915050565b7f4e487b71000000000000000000000000000000000000000000000000000000005f52602260045260245ffd5b5f600282049050600182168061350c57607f821691505b60208210810361351f5761351e6134c8565b5b50919050565b5f819050815f5260205f209050919050565b5f6020601f8301049050919050565b5f82821b905092915050565b5f600883026135817fffffffffffffffffffffffffffffffffffffffffffffffffffffffffffffffff82613546565b61358b8683613546565b95508019841693508086168417925050509392505050565b5f819050919050565b5f6135c66135c16135bc8461270e565b6135a3565b61270e565b9050919050565b5f819050919050565b6135df836135ac565b6135f36135eb826135cd565b848454613552565b825550505050565b5f90565b6136076135fb565b6136128184846135d6565b505050565b5b818110156136355761362a5f826135ff565b600181019050613618565b5050565b601f82111561367a5761364b81613525565b61365484613537565b81016020851015613663578190505b61367761366f85613537565b830182613617565b50505b505050565b5f82821c905092915050565b5f61369a5f198460080261367f565b1980831691505092915050565b5f6136b2838361368b565b9150826002028217905092915050565b6136cb82612adf565b67ffffffffffffffff8111156136e4576136e3612803565b5b6136ee82546134f5565b6136f9828285613639565b5f60209050601f83116001811461372a575f8415613718578287015190505b61372285826136a7565b865550613789565b601f19841661373886613525565b5f5b8281101561375f5784890151825560018201915060208501945060208101905061373a565b8683101561377c5784890151613778601f89168261368b565b8355505b6001600288020188555050505b505050505050565b5f610100820190508181035f8301526137aa818b612b21565b905081810360208301526137be818a612b21565b905081810360408301526137d28189612b21565b90506137e16060830188612a5d565b6137ee60808301876127b9565b6137fb60a08301866127b9565b61380860c08301856127aa565b81810360e083015261381a8184612efc565b90509998505050505050505050565b7f4e487b71000000000000000000000000000000000000000000000000000000005f52601160045260245ffd5b5f6138608261270e565b91507fffffffffffffffffffffffffffffffffffffffffffffffffffffffffffffffff820361389257613891613829565b5b600182019050919050565b7f4e6f20617661696c61626c65206e6f64657300000000000000000000000000005f82015250565b5f6138d1601283612ae9565b91506138dc8261389d565b602082019050919050565b5f6020820190508181035f8301526138fe816138c5565b9050919050565b5f61390f8261270e565b915061391a8361270e565b925082820390508181111561393257613931613829565b5b92915050565b7f4e487b71000000000000000000000000000000000000000000000000000000005f52601260045260245ffd5b5f61396f8261270e565b915061397a8361270e565b92508261398a57613989613938565b5b828206905092915050565b5f61399f8261270e565b91506139aa8361270e565b92508282019050808211156139c2576139c1613829565b5b92915050565b7f496e76616c69642066696c6520696400000000000000000000000000000000005f82015250565b5f6139fc600f83612ae9565b9150613a07826139c8565b602082019050919050565b5f6020820190508181035f830152613a29816139f0565b9050919050565b7f4e487b71000000000000000000000000000000000000000000000000000000005f52603160045260245ffd5b5f604082019050613a705f8301856127aa565b8181036020830152613a828184612b21565b9050939250505056fea26469706673582212205acea36648edbaf3e88c0d56cd71987c6b566fe213c353e1fd57fe1189d6f09a64736f6c63430008160033",
			"opcodes": "PUSH1 0x80 PUSH1 0x40 MSTORE PUSH1 0x3 PUSH0 SSTORE PUSH1 0x64 PUSH1 0x1 SSTORE CALLVALUE DUP1 ISZERO PUSH2 0x18 JUMPI PUSH0 DUP1 REVERT JUMPDEST POP CALLER PUSH1 0x6 PUSH0 PUSH2 0x100 EXP DUP2 SLOAD DUP2 PUSH20 0xFFFFFFFFFFFFFFFFFFFFFFFFFFFFFFFFFFFFFFFF MUL NOT AND SWAP1 DUP4 PUSH20 0xFFFFFFFFFFFFFFFFFFFFFFFFFFFFFFFFFFFFFFFF AND MUL OR SWAP1 SSTORE POP PUSH2 0x3AC1 DUP1 PUSH2 0x66 PUSH0 CODECOPY PUSH0 RETURN INVALID PUSH1 0x80 PUSH1 0x40 MSTORE CALLVALUE DUP1 ISZERO PUSH2 0xF JUMPI PUSH0 DUP1 REVERT JUMPDEST POP PUSH1 0x4 CALLDATASIZE LT PUSH2 0x11F JUMPI PUSH0 CALLDATALOAD PUSH1 0xE0 SHR DUP1 PUSH4 0x67E9C8D1 GT PUSH2 0xAB JUMPI DUP1 PUSH4 0xA1174E7D GT PUSH2 0x6F JUMPI DUP1 PUSH4 0xA1174E7D EQ PUSH2 0x33C JUMPI DUP1 PUSH4 0xA9860308 EQ PUSH2 0x35A JUMPI DUP1 PUSH4 0xA9910054 EQ PUSH2 0x38A JUMPI DUP1 PUSH4 0xCF86BF93 EQ PUSH2 0x3A6 JUMPI DUP1 PUSH4 0xFE72AE13 EQ PUSH2 0x3C4 JUMPI PUSH2 0x11F JUMP JUMPDEST DUP1 PUSH4 0x67E9C8D1 EQ PUSH2 0x286 JUMPI DUP1 PUSH4 0x8DA5CB5B EQ PUSH2 0x2A2 JUMPI DUP1 PUSH4 0x92E2ADE5 EQ PUSH2 0x2C0 JUMPI DUP1 PUSH4 0x9E34C134 EQ PUSH2 0x2F0 JUMPI DUP1 PUSH4 0xA0BE4B1F EQ PUSH2 0x320 JUMPI PUSH2 0x11F JUMP JUMPDEST DUP1 PUSH4 0x390F1B71 GT PUSH2 0xF2 JUMPI DUP1 PUSH4 0x390F1B71 EQ PUSH2 0x1D0 JUMPI DUP1 PUSH4 0x50F1C985 EQ PUSH2 0x1EC JUMPI DUP1 PUSH4 0x528AECCE EQ PUSH2 0x208 JUMPI DUP1 PUSH4 0x5FFD7C06 EQ PUSH2 0x238 JUMPI DUP1 PUSH4 0x64F0C0B8 EQ PUSH2 0x256 JUMPI PUSH2 0x11F JUMP JUMPDEST DUP1 PUSH4 0x11BD77FE EQ PUSH2 0x123 JUMPI DUP1 PUSH4 0x189A5A17 EQ PUSH2 0x13F JUMPI DUP1 PUSH4 0x196815D2 EQ PUSH2 0x170 JUMPI DUP1 PUSH4 0x2A85BE1E EQ PUSH2 0x1A0 JUMPI JUMPDEST PUSH0 DUP1 REVERT JUMPDEST PUSH2 0x13D PUSH1 0x4 DUP1 CALLDATASIZE SUB DUP2 ADD SWAP1 PUSH2 0x138 SWAP2 SWAP1 PUSH2 0x2741 JUMP JUMPDEST PUSH2 0x3F4 JUMP JUMPDEST STOP JUMPDEST PUSH2 0x159 PUSH1 0x4 DUP1 CALLDATASIZE SUB DUP2 ADD SWAP1 PUSH2 0x154 SWAP2 SWAP1 PUSH2 0x277F JUMP JUMPDEST PUSH2 0x614 JUMP JUMPDEST PUSH1 0x40 MLOAD PUSH2 0x167 SWAP3 SWAP2 SWAP1 PUSH2 0x27C8 JUMP JUMPDEST PUSH1 0x40 MLOAD DUP1 SWAP2 SUB SWAP1 RETURN JUMPDEST PUSH2 0x18A PUSH1 0x4 DUP1 CALLDATASIZE SUB DUP2 ADD SWAP1 PUSH2 0x185 SWAP2 SWAP1 PUSH2 0x2A0D JUMP JUMPDEST PUSH2 0x653 JUMP JUMPDEST PUSH1 0x40 MLOAD PUSH2 0x197 SWAP2 SWAP1 PUSH2 0x2A6C JUMP JUMPDEST PUSH1 0x40 MLOAD DUP1 SWAP2 SUB SWAP1 RETURN JUMPDEST PUSH2 0x1BA PUSH1 0x4 DUP1 CALLDATASIZE SUB DUP2 ADD SWAP1 PUSH2 0x1B5 SWAP2 SWAP1 PUSH2 0x2A85 JUMP JUMPDEST PUSH2 0x6CD JUMP JUMPDEST PUSH1 0x40 MLOAD PUSH2 0x1C7 SWAP2 SWAP1 PUSH2 0x2B59 JUMP JUMPDEST PUSH1 0x40 MLOAD DUP1 SWAP2 SUB SWAP1 RETURN JUMPDEST PUSH2 0x1EA PUSH1 0x4 DUP1 CALLDATASIZE SUB DUP2 ADD SWAP1 PUSH2 0x1E5 SWAP2 SWAP1 PUSH2 0x2C63 JUMP JUMPDEST PUSH2 0x883 JUMP JUMPDEST STOP JUMPDEST PUSH2 0x206 PUSH1 0x4 DUP1 CALLDATASIZE SUB DUP2 ADD SWAP1 PUSH2 0x201 SWAP2 SWAP1 PUSH2 0x2A85 JUMP JUMPDEST PUSH2 0xAF2 JUMP JUMPDEST STOP JUMPDEST PUSH2 0x222 PUSH1 0x4 DUP1 CALLDATASIZE SUB DUP2 ADD SWAP1 PUSH2 0x21D SWAP2 SWAP1 PUSH2 0x2D8C JUMP JUMPDEST PUSH2 0xC26 JUMP JUMPDEST PUSH1 0x40 MLOAD PUSH2 0x22F SWAP2 SWAP1 PUSH2 0x2F58 JUMP JUMPDEST PUSH1 0x40 MLOAD DUP1 SWAP2 SUB SWAP1 RETURN JUMPDEST PUSH2 0x240 PUSH2 0x1098 JUMP JUMPDEST PUSH1 0x40 MLOAD PUSH2 0x24D SWAP2 SWAP1 PUSH2 0x2F78 JUMP JUMPDEST PUSH1 0x40 MLOAD DUP1 SWAP2 SUB SWAP1 RETURN JUMPDEST PUSH2 0x270 PUSH1 0x4 DUP1 CALLDATASIZE SUB DUP2 ADD SWAP1 PUSH2 0x26B SWAP2 SWAP1 PUSH2 0x2F91 JUMP JUMPDEST PUSH2 0x109D JUMP JUMPDEST PUSH1 0x40 MLOAD PUSH2 0x27D SWAP2 SWAP1 PUSH2 0x2FBC JUMP JUMPDEST PUSH1 0x40 MLOAD DUP1 SWAP2 SUB SWAP1 RETURN JUMPDEST PUSH2 0x2A0 PUSH1 0x4 DUP1 CALLDATASIZE SUB DUP2 ADD SWAP1 PUSH2 0x29B SWAP2 SWAP1 PUSH2 0x2FD5 JUMP JUMPDEST PUSH2 0x11B5 JUMP JUMPDEST STOP JUMPDEST PUSH2 0x2AA PUSH2 0x122E JUMP JUMPDEST PUSH1 0x40 MLOAD PUSH2 0x2B7 SWAP2 SWAP1 PUSH2 0x2FBC JUMP JUMPDEST PUSH1 0x40 MLOAD DUP1 SWAP2 SUB SWAP1 RETURN JUMPDEST PUSH2 0x2DA PUSH1 0x4 DUP1 CALLDATASIZE SUB DUP2 ADD SWAP1 PUSH2 0x2D5 SWAP2 SWAP1 PUSH2 0x302F JUMP JUMPDEST PUSH2 0x1253 JUMP JUMPDEST PUSH1 0x40 MLOAD PUSH2 0x2E7 SWAP2 SWAP1 PUSH2 0x3226 JUMP JUMPDEST PUSH1 0x40 MLOAD DUP1 SWAP2 SUB SWAP1 RETURN JUMPDEST PUSH2 0x30A PUSH1 0x4 DUP1 CALLDATASIZE SUB DUP2 ADD SWAP1 PUSH2 0x305 SWAP2 SWAP1 PUSH2 0x2A85 JUMP JUMPDEST PUSH2 0x1731 JUMP JUMPDEST PUSH1 0x40 MLOAD PUSH2 0x317 SWAP2 SWAP1 PUSH2 0x2B59 JUMP JUMPDEST PUSH1 0x40 MLOAD DUP1 SWAP2 SUB SWAP1 RETURN JUMPDEST PUSH2 0x33A PUSH1 0x4 DUP1 CALLDATASIZE SUB DUP2 ADD SWAP1 PUSH2 0x335 SWAP2 SWAP1 PUSH2 0x3246 JUMP JUMPDEST PUSH2 0x17EF JUMP JUMPDEST STOP JUMPDEST PUSH2 0x344 PUSH2 0x1927 JUMP JUMPDEST PUSH1 0x40 MLOAD PUSH2 0x351 SWAP2 SWAP1 PUSH2 0x2F58 JUMP JUMPDEST PUSH1 0x40 MLOAD DUP1 SWAP2 SUB SWAP1 RETURN JUMPDEST PUSH2 0x374 PUSH1 0x4 DUP1 CALLDATASIZE SUB DUP2 ADD SWAP1 PUSH2 0x36F SWAP2 SWAP1 PUSH2 0x277F JUMP JUMPDEST PUSH2 0x19B2 JUMP JUMPDEST PUSH1 0x40 MLOAD PUSH2 0x381 SWAP2 SWAP1 PUSH2 0x32FB JUMP JUMPDEST PUSH1 0x40 MLOAD DUP1 SWAP2 SUB SWAP1 RETURN JUMPDEST PUSH2 0x3A4 PUSH1 0x4 DUP1 CALLDATASIZE SUB DUP2 ADD SWAP1 PUSH2 0x39F SWAP2 SWAP1 PUSH2 0x302F JUMP JUMPDEST PUSH2 0x1A67 JUMP JUMPDEST STOP JUMPDEST PUSH2 0x3AE PUSH2 0x22EB JUMP JUMPDEST PUSH1 0x40 MLOAD PUSH2 0x3BB SWAP2 SWAP1 PUSH2 0x2F78 JUMP JUMPDEST PUSH1 0x40 MLOAD DUP1 SWAP2 SUB SWAP1 RETURN JUMPDEST PUSH2 0x3DE PUSH1 0x4 DUP1 CALLDATASIZE SUB DUP2 ADD SWAP1 PUSH2 0x3D9 SWAP2 SWAP1 PUSH2 0x2F91 JUMP JUMPDEST PUSH2 0x22F1 JUMP JUMPDEST PUSH1 0x40 MLOAD PUSH2 0x3EB SWAP2 SWAP1 PUSH2 0x2FBC JUMP JUMPDEST PUSH1 0x40 MLOAD DUP1 SWAP2 SUB SWAP1 RETURN JUMPDEST PUSH0 PUSH20 0xFFFFFFFFFFFFFFFFFFFFFFFFFFFFFFFFFFFFFFFF AND PUSH1 0x3 PUSH0 DUP5 PUSH20 0xFFFFFFFFFFFFFFFFFFFFFFFFFFFFFFFFFFFFFFFF AND PUSH20 0xFFFFFFFFFFFFFFFFFFFFFFFFFFFFFFFFFFFFFFFF AND DUP2 MSTORE PUSH1 0x20 ADD SWAP1 DUP2 MSTORE PUSH1 0x20 ADD PUSH0 KECCAK256 PUSH0 ADD PUSH0 SWAP1 SLOAD SWAP1 PUSH2 0x100 EXP SWAP1 DIV PUSH20 0xFFFFFFFFFFFFFFFFFFFFFFFFFFFFFFFFFFFFFFFF AND PUSH20 0xFFFFFFFFFFFFFFFFFFFFFFFFFFFFFFFFFFFFFFFF AND EQ PUSH2 0x4C0 JUMPI PUSH1 0x40 MLOAD PUSH32 0x8C379A000000000000000000000000000000000000000000000000000000000 DUP2 MSTORE PUSH1 0x4 ADD PUSH2 0x4B7 SWAP1 PUSH2 0x335E JUMP JUMPDEST PUSH1 0x40 MLOAD DUP1 SWAP2 SUB SWAP1 REVERT JUMPDEST PUSH1 0x40 MLOAD DUP1 PUSH1 0x40 ADD PUSH1 0x40 MSTORE DUP1 DUP4 PUSH20 0xFFFFFFFFFFFFFFFFFFFFFFFFFFFFFFFFFFFFFFFF AND DUP2 MSTORE PUSH1 0x20 ADD DUP3 DUP2 MSTORE POP PUSH1 0x3 PUSH0 DUP5 PUSH20 0xFFFFFFFFFFFFFFFFFFFFFFFFFFFFFFFFFFFFFFFF AND PUSH20 0xFFFFFFFFFFFFFFFFFFFFFFFFFFFFFFFFFFFFFFFF AND DUP2 MSTORE PUSH1 0x20 ADD SWAP1 DUP2 MSTORE PUSH1 0x20 ADD PUSH0 KECCAK256 PUSH0 DUP3 ADD MLOAD DUP2 PUSH0 ADD PUSH0 PUSH2 0x100 EXP DUP2 SLOAD DUP2 PUSH20 0xFFFFFFFFFFFFFFFFFFFFFFFFFFFFFFFFFFFFFFFF MUL NOT AND SWAP1 DUP4 PUSH20 0xFFFFFFFFFFFFFFFFFFFFFFFFFFFFFFFFFFFFFFFF AND MUL OR SWAP1 SSTORE POP PUSH1 0x20 DUP3 ADD MLOAD DUP2 PUSH1 0x1 ADD SSTORE SWAP1 POP POP PUSH32 0x5F91B0AFD2C6EF8DA92137BA907BCCDC85EC4856A15AD39DE3E0EFF02BE6D70E DUP3 PUSH1 0x40 MLOAD PUSH2 0x5A8 SWAP2 SWAP1 PUSH2 0x2FBC JUMP JUMPDEST PUSH1 0x40 MLOAD DUP1 SWAP2 SUB SWAP1 LOG1 PUSH1 0x5 DUP3 SWAP1 DUP1 PUSH1 0x1 DUP2 SLOAD ADD DUP1 DUP3 SSTORE DUP1 SWAP2 POP POP PUSH1 0x1 SWAP1 SUB SWAP1 PUSH0 MSTORE PUSH1 0x20 PUSH0 KECCAK256 ADD PUSH0 SWAP1 SWAP2 SWAP1 SWAP2 SWAP1 SWAP2 PUSH2 0x100 EXP DUP2 SLOAD DUP2 PUSH20 0xFFFFFFFFFFFFFFFFFFFFFFFFFFFFFFFFFFFFFFFF MUL NOT AND SWAP1 DUP4 PUSH20 0xFFFFFFFFFFFFFFFFFFFFFFFFFFFFFFFFFFFFFFFF AND MUL OR SWAP1 SSTORE POP POP POP JUMP JUMPDEST PUSH1 0x3 PUSH1 0x20 MSTORE DUP1 PUSH0 MSTORE PUSH1 0x40 PUSH0 KECCAK256 PUSH0 SWAP2 POP SWAP1 POP DUP1 PUSH0 ADD PUSH0 SWAP1 SLOAD SWAP1 PUSH2 0x100 EXP SWAP1 DIV PUSH20 0xFFFFFFFFFFFFFFFFFFFFFFFFFFFFFFFFFFFFFFFF AND SWAP1 DUP1 PUSH1 0x1 ADD SLOAD SWAP1 POP DUP3 JUMP JUMPDEST PUSH0 DUP1 PUSH1 0x40 MLOAD DUP1 PUSH1 0x20 ADD PUSH1 0x40 MSTORE DUP1 PUSH0 DUP2 MSTORE POP SWAP1 POP PUSH0 JUMPDEST DUP4 MLOAD DUP2 LT ISZERO PUSH2 0x6BC JUMPI DUP2 DUP5 DUP3 DUP2 MLOAD DUP2 LT PUSH2 0x685 JUMPI PUSH2 0x684 PUSH2 0x337C JUMP JUMPDEST JUMPDEST PUSH1 0x20 MUL PUSH1 0x20 ADD ADD MLOAD PUSH1 0x40 MLOAD PUSH1 0x20 ADD PUSH2 0x69E SWAP3 SWAP2 SWAP1 PUSH2 0x3427 JUMP JUMPDEST PUSH1 0x40 MLOAD PUSH1 0x20 DUP2 DUP4 SUB SUB DUP2 MSTORE SWAP1 PUSH1 0x40 MSTORE SWAP2 POP DUP1 DUP1 PUSH1 0x1 ADD SWAP2 POP POP PUSH2 0x668 JUMP JUMPDEST POP DUP1 DUP1 MLOAD SWAP1 PUSH1 0x20 ADD KECCAK256 SWAP2 POP POP SWAP2 SWAP1 POP JUMP JUMPDEST PUSH1 0x60 PUSH0 PUSH20 0xFFFFFFFFFFFFFFFFFFFFFFFFFFFFFFFFFFFFFFFF AND PUSH1 0x3 PUSH0 DUP6 PUSH20 0xFFFFFFFFFFFFFFFFFFFFFFFFFFFFFFFFFFFFFFFF AND PUSH20 0xFFFFFFFFFFFFFFFFFFFFFFFFFFFFFFFFFFFFFFFF AND DUP2 MSTORE PUSH1 0x20 ADD SWAP1 DUP2 MSTORE PUSH1 0x20 ADD PUSH0 KECCAK256 PUSH0 ADD PUSH0 SWAP1 SLOAD SWAP1 PUSH2 0x100 EXP SWAP1 DIV PUSH20 0xFFFFFFFFFFFFFFFFFFFFFFFFFFFFFFFFFFFFFFFF AND PUSH20 0xFFFFFFFFFFFFFFFFFFFFFFFFFFFFFFFFFFFFFFFF AND SUB PUSH2 0x79B JUMPI PUSH1 0x40 MLOAD PUSH32 0x8C379A000000000000000000000000000000000000000000000000000000000 DUP2 MSTORE PUSH1 0x4 ADD PUSH2 0x792 SWAP1 PUSH2 0x3494 JUMP JUMPDEST PUSH1 0x40 MLOAD DUP1 SWAP2 SUB SWAP1 REVERT JUMPDEST PUSH1 0x4 PUSH0 DUP5 PUSH20 0xFFFFFFFFFFFFFFFFFFFFFFFFFFFFFFFFFFFFFFFF AND PUSH20 0xFFFFFFFFFFFFFFFFFFFFFFFFFFFFFFFFFFFFFFFF AND DUP2 MSTORE PUSH1 0x20 ADD SWAP1 DUP2 MSTORE PUSH1 0x20 ADD PUSH0 KECCAK256 DUP3 PUSH1 0x40 MLOAD PUSH2 0x7E6 SWAP2 SWAP1 PUSH2 0x34B2 JUMP JUMPDEST SWAP1 DUP2 MSTORE PUSH1 0x20 ADD PUSH1 0x40 MLOAD DUP1 SWAP2 SUB SWAP1 KECCAK256 DUP1 SLOAD PUSH2 0x7FF SWAP1 PUSH2 0x34F5 JUMP JUMPDEST DUP1 PUSH1 0x1F ADD PUSH1 0x20 DUP1 SWAP2 DIV MUL PUSH1 0x20 ADD PUSH1 0x40 MLOAD SWAP1 DUP2 ADD PUSH1 0x40 MSTORE DUP1 SWAP3 SWAP2 SWAP1 DUP2 DUP2 MSTORE PUSH1 0x20 ADD DUP3 DUP1 SLOAD PUSH2 0x82B SWAP1 PUSH2 0x34F5 JUMP JUMPDEST DUP1 ISZERO PUSH2 0x876 JUMPI DUP1 PUSH1 0x1F LT PUSH2 0x84D JUMPI PUSH2 0x100 DUP1 DUP4 SLOAD DIV MUL DUP4 MSTORE SWAP2 PUSH1 0x20 ADD SWAP2 PUSH2 0x876 JUMP JUMPDEST DUP3 ADD SWAP2 SWAP1 PUSH0 MSTORE PUSH1 0x20 PUSH0 KECCAK256 SWAP1 JUMPDEST DUP2 SLOAD DUP2 MSTORE SWAP1 PUSH1 0x1 ADD SWAP1 PUSH1 0x20 ADD DUP1 DUP4 GT PUSH2 0x859 JUMPI DUP3 SWAP1 SUB PUSH1 0x1F AND DUP3 ADD SWAP2 JUMPDEST POP POP POP POP POP SWAP1 POP SWAP3 SWAP2 POP POP JUMP JUMPDEST PUSH0 PUSH20 0xFFFFFFFFFFFFFFFFFFFFFFFFFFFFFFFFFFFFFFFF AND CALLER PUSH20 0xFFFFFFFFFFFFFFFFFFFFFFFFFFFFFFFFFFFFFFFF AND SUB PUSH2 0x8BA JUMPI PUSH0 DUP1 REVERT JUMPDEST PUSH0 DUP7 MLOAD GT PUSH2 0x8C6 JUMPI PUSH0 DUP1 REVERT JUMPDEST PUSH0 DUP8 MLOAD GT PUSH2 0x8D2 JUMPI PUSH0 DUP1 REVERT JUMPDEST PUSH0 PUSH1 0x20 PUSH1 0xFF AND GT PUSH2 0x8E1 JUMPI PUSH0 DUP1 REVERT JUMPDEST PUSH0 DUP4 MLOAD GT PUSH2 0x8ED JUMPI PUSH0 DUP1 REVERT JUMPDEST PUSH0 DUP2 GT PUSH2 0x8F8 JUMPI PUSH0 DUP1 REVERT JUMPDEST PUSH0 DUP3 MLOAD GT PUSH2 0x904 JUMPI PUSH0 DUP1 REVERT JUMPDEST PUSH1 0x8 PUSH0 PUSH2 0x911 SWAP2 SWAP1 PUSH2 0x2517 JUMP JUMPDEST PUSH1 0x7 PUSH0 CALLER PUSH20 0xFFFFFFFFFFFFFFFFFFFFFFFFFFFFFFFFFFFFFFFF AND PUSH20 0xFFFFFFFFFFFFFFFFFFFFFFFFFFFFFFFFFFFFFFFF AND DUP2 MSTORE PUSH1 0x20 ADD SWAP1 DUP2 MSTORE PUSH1 0x20 ADD PUSH0 KECCAK256 PUSH1 0x40 MLOAD DUP1 PUSH2 0x120 ADD PUSH1 0x40 MSTORE DUP1 DUP5 DUP2 MSTORE PUSH1 0x20 ADD DUP10 DUP2 MSTORE PUSH1 0x20 ADD DUP9 DUP2 MSTORE PUSH1 0x20 ADD DUP8 DUP2 MSTORE PUSH1 0x20 ADD DUP4 DUP2 MSTORE PUSH1 0x20 ADD TIMESTAMP DUP2 MSTORE PUSH1 0x20 ADD CALLER PUSH20 0xFFFFFFFFFFFFFFFFFFFFFFFFFFFFFFFFFFFFFFFF AND DUP2 MSTORE PUSH1 0x20 ADD DUP7 DUP2 MSTORE PUSH1 0x20 ADD DUP6 DUP2 MSTORE POP SWAP1 DUP1 PUSH1 0x1 DUP2 SLOAD ADD DUP1 DUP3 SSTORE DUP1 SWAP2 POP POP PUSH1 0x1 SWAP1 SUB SWAP1 PUSH0 MSTORE PUSH1 0x20 PUSH0 KECCAK256 SWAP1 PUSH1 0x9 MUL ADD PUSH0 SWAP1 SWAP2 SWAP1 SWAP2 SWAP1 SWAP2 POP PUSH0 DUP3 ADD MLOAD DUP2 PUSH0 ADD SWAP1 DUP2 PUSH2 0x9DD SWAP2 SWAP1 PUSH2 0x36C2 JUMP JUMPDEST POP PUSH1 0x20 DUP3 ADD MLOAD DUP2 PUSH1 0x1 ADD SWAP1 DUP2 PUSH2 0x9F3 SWAP2 SWAP1 PUSH2 0x36C2 JUMP JUMPDEST POP PUSH1 0x40 DUP3 ADD MLOAD DUP2 PUSH1 0x2 ADD SWAP1 DUP2 PUSH2 0xA09 SWAP2 SWAP1 PUSH2 0x36C2 JUMP JUMPDEST POP PUSH1 0x60 DUP3 ADD MLOAD DUP2 PUSH1 0x3 ADD SSTORE PUSH1 0x80 DUP3 ADD MLOAD DUP2 PUSH1 0x4 ADD SSTORE PUSH1 0xA0 DUP3 ADD MLOAD DUP2 PUSH1 0x5 ADD SSTORE PUSH1 0xC0 DUP3 ADD MLOAD DUP2 PUSH1 0x6 ADD PUSH0 PUSH2 0x100 EXP DUP2 SLOAD DUP2 PUSH20 0xFFFFFFFFFFFFFFFFFFFFFFFFFFFFFFFFFFFFFFFF MUL NOT AND SWAP1 DUP4 PUSH20 0xFFFFFFFFFFFFFFFFFFFFFFFFFFFFFFFFFFFFFFFF AND MUL OR SWAP1 SSTORE POP PUSH1 0xE0 DUP3 ADD MLOAD DUP2 PUSH1 0x7 ADD SWAP1 DUP2 PUSH2 0xA83 SWAP2 SWAP1 PUSH2 0x36C2 JUMP JUMPDEST POP PUSH2 0x100 DUP3 ADD MLOAD DUP2 PUSH1 0x8 ADD SWAP1 DUP1 MLOAD SWAP1 PUSH1 0x20 ADD SWAP1 PUSH2 0xAA1 SWAP3 SWAP2 SWAP1 PUSH2 0x2535 JUMP JUMPDEST POP POP POP PUSH32 0x594B470627265D9BD1E370FC6D16BE467A73C12FF896EC66C0109C0C0A1E570 DUP3 DUP9 DUP9 DUP9 DUP6 TIMESTAMP CALLER DUP11 PUSH1 0x40 MLOAD PUSH2 0xAE1 SWAP9 SWAP8 SWAP7 SWAP6 SWAP5 SWAP4 SWAP3 SWAP2 SWAP1 PUSH2 0x3791 JUMP JUMPDEST PUSH1 0x40 MLOAD DUP1 SWAP2 SUB SWAP1 LOG1 POP POP POP POP POP POP POP JUMP JUMPDEST PUSH0 PUSH20 0xFFFFFFFFFFFFFFFFFFFFFFFFFFFFFFFFFFFFFFFF AND PUSH1 0x3 PUSH0 DUP5 PUSH20 0xFFFFFFFFFFFFFFFFFFFFFFFFFFFFFFFFFFFFFFFF AND PUSH20 0xFFFFFFFFFFFFFFFFFFFFFFFFFFFFFFFFFFFFFFFF AND DUP2 MSTORE PUSH1 0x20 ADD SWAP1 DUP2 MSTORE PUSH1 0x20 ADD PUSH0 KECCAK256 PUSH0 ADD PUSH0 SWAP1 SLOAD SWAP1 PUSH2 0x100 EXP SWAP1 DIV PUSH20 0xFFFFFFFFFFFFFFFFFFFFFFFFFFFFFFFFFFFFFFFF AND PUSH20 0xFFFFFFFFFFFFFFFFFFFFFFFFFFFFFFFFFFFFFFFF AND SUB PUSH2 0xBBE JUMPI PUSH1 0x40 MLOAD PUSH32 0x8C379A000000000000000000000000000000000000000000000000000000000 DUP2 MSTORE PUSH1 0x4 ADD PUSH2 0xBB5 SWAP1 PUSH2 0x3494 JUMP JUMPDEST PUSH1 0x40 MLOAD DUP1 SWAP2 SUB SWAP1 REVERT JUMPDEST PUSH1 0x4 PUSH0 DUP4 PUSH20 0xFFFFFFFFFFFFFFFFFFFFFFFFFFFFFFFFFFFFFFFF AND PUSH20 0xFFFFFFFFFFFFFFFFFFFFFFFFFFFFFFFFFFFFFFFF AND DUP2 MSTORE PUSH1 0x20 ADD SWAP1 DUP2 MSTORE PUSH1 0x20 ADD PUSH0 KECCAK256 DUP2 PUSH1 0x40 MLOAD PUSH2 0xC09 SWAP2 SWAP1 PUSH2 0x34B2 JUMP JUMPDEST SWAP1 DUP2 MSTORE PUSH1 0x20 ADD PUSH1 0x40 MLOAD DUP1 SWAP2 SUB SWAP1 KECCAK256 PUSH0 PUSH2 0xC22 SWAP2 SWAP1 PUSH2 0x25BC JUMP JUMPDEST POP POP JUMP JUMPDEST PUSH1 0x60 PUSH0 JUMPDEST DUP8 MLOAD DUP2 LT ISZERO PUSH2 0xF5E JUMPI PUSH0 DUP9 DUP3 DUP2 MLOAD DUP2 LT PUSH2 0xC47 JUMPI PUSH2 0xC46 PUSH2 0x337C JUMP JUMPDEST JUMPDEST PUSH1 0x20 MUL PUSH1 0x20 ADD ADD MLOAD MLOAD SWAP1 POP PUSH0 DUP1 DUP1 SLOAD SWAP1 POP PUSH1 0x3 PUSH1 0x5 DUP1 SLOAD SWAP1 POP LT ISZERO PUSH2 0xC6F JUMPI PUSH1 0x5 DUP1 SLOAD SWAP1 POP SWAP1 POP JUMPDEST JUMPDEST DUP1 DUP3 LT ISZERO PUSH2 0xF4E JUMPI DUP2 DUP1 PUSH2 0xC83 SWAP1 PUSH2 0x3856 JUMP JUMPDEST SWAP3 POP POP PUSH0 PUSH2 0xC90 DUP5 PUSH2 0x109D JUMP JUMPDEST SWAP1 POP PUSH32 0x838D04243391D45D94A98FFF54D1737CBFFEA86C34AB825E5D6980EC9B77235 DUP5 PUSH1 0x40 MLOAD PUSH2 0xCC1 SWAP2 SWAP1 PUSH2 0x2F78 JUMP JUMPDEST PUSH1 0x40 MLOAD DUP1 SWAP2 SUB SWAP1 LOG1 PUSH32 0x5F91B0AFD2C6EF8DA92137BA907BCCDC85EC4856A15AD39DE3E0EFF02BE6D70E DUP2 PUSH1 0x40 MLOAD PUSH2 0xCF8 SWAP2 SWAP1 PUSH2 0x2FBC JUMP JUMPDEST PUSH1 0x40 MLOAD DUP1 SWAP2 SUB SWAP1 LOG1 PUSH0 PUSH20 0xFFFFFFFFFFFFFFFFFFFFFFFFFFFFFFFFFFFFFFFF AND DUP2 PUSH20 0xFFFFFFFFFFFFFFFFFFFFFFFFFFFFFFFFFFFFFFFF AND SUB PUSH2 0xD6E JUMPI PUSH1 0x40 MLOAD PUSH32 0x8C379A000000000000000000000000000000000000000000000000000000000 DUP2 MSTORE PUSH1 0x4 ADD PUSH2 0xD65 SWAP1 PUSH2 0x38E7 JUMP JUMPDEST PUSH1 0x40 MLOAD DUP1 SWAP2 SUB SWAP1 REVERT JUMPDEST PUSH32 0x5F91B0AFD2C6EF8DA92137BA907BCCDC85EC4856A15AD39DE3E0EFF02BE6D70E DUP2 PUSH1 0x40 MLOAD PUSH2 0xD9D SWAP2 SWAP1 PUSH2 0x2FBC JUMP JUMPDEST PUSH1 0x40 MLOAD DUP1 SWAP2 SUB SWAP1 LOG1 PUSH2 0xE32 DUP2 PUSH1 0x8 DUP1 SLOAD DUP1 PUSH1 0x20 MUL PUSH1 0x20 ADD PUSH1 0x40 MLOAD SWAP1 DUP2 ADD PUSH1 0x40 MSTORE DUP1 SWAP3 SWAP2 SWAP1 DUP2 DUP2 MSTORE PUSH1 0x20 ADD DUP3 DUP1 SLOAD DUP1 ISZERO PUSH2 0xE28 JUMPI PUSH1 0x20 MUL DUP3 ADD SWAP2 SWAP1 PUSH0 MSTORE PUSH1 0x20 PUSH0 KECCAK256 SWAP1 JUMPDEST DUP2 PUSH0 SWAP1 SLOAD SWAP1 PUSH2 0x100 EXP SWAP1 DIV PUSH20 0xFFFFFFFFFFFFFFFFFFFFFFFFFFFFFFFFFFFFFFFF AND PUSH20 0xFFFFFFFFFFFFFFFFFFFFFFFFFFFFFFFFFFFFFFFF AND DUP2 MSTORE PUSH1 0x20 ADD SWAP1 PUSH1 0x1 ADD SWAP1 DUP1 DUP4 GT PUSH2 0xDDF JUMPI JUMPDEST POP POP POP POP POP PUSH2 0x232C JUMP JUMPDEST PUSH2 0xECE JUMPI PUSH1 0x8 DUP2 SWAP1 DUP1 PUSH1 0x1 DUP2 SLOAD ADD DUP1 DUP3 SSTORE DUP1 SWAP2 POP POP PUSH1 0x1 SWAP1 SUB SWAP1 PUSH0 MSTORE PUSH1 0x20 PUSH0 KECCAK256 ADD PUSH0 SWAP1 SWAP2 SWAP1 SWAP2 SWAP1 SWAP2 PUSH2 0x100 EXP DUP2 SLOAD DUP2 PUSH20 0xFFFFFFFFFFFFFFFFFFFFFFFFFFFFFFFFFFFFFFFF MUL NOT AND SWAP1 DUP4 PUSH20 0xFFFFFFFFFFFFFFFFFFFFFFFFFFFFFFFFFFFFFFFF AND MUL OR SWAP1 SSTORE POP PUSH32 0xB011A0DA2BACC57F5C2DDF79F5C8E86484A4FC528F15571A48A9D47956BC82BE DUP2 PUSH1 0x40 MLOAD PUSH2 0xEC5 SWAP2 SWAP1 PUSH2 0x2FBC JUMP JUMPDEST PUSH1 0x40 MLOAD DUP1 SWAP2 SUB SWAP1 LOG1 JUMPDEST PUSH2 0xEF3 DUP2 DUP14 DUP8 DUP2 MLOAD DUP2 LT PUSH2 0xEE5 JUMPI PUSH2 0xEE4 PUSH2 0x337C JUMP JUMPDEST JUMPDEST PUSH1 0x20 MUL PUSH1 0x20 ADD ADD MLOAD DUP11 PUSH2 0x17EF JUMP JUMPDEST PUSH2 0xF48 DUP2 DUP6 PUSH1 0x3 PUSH0 DUP6 PUSH20 0xFFFFFFFFFFFFFFFFFFFFFFFFFFFFFFFFFFFFFFFF AND PUSH20 0xFFFFFFFFFFFFFFFFFFFFFFFFFFFFFFFFFFFFFFFF AND DUP2 MSTORE PUSH1 0x20 ADD SWAP1 DUP2 MSTORE PUSH1 0x20 ADD PUSH0 KECCAK256 PUSH1 0x1 ADD SLOAD PUSH2 0xF43 SWAP2 SWAP1 PUSH2 0x3905 JUMP JUMPDEST PUSH2 0x23AA JUMP JUMPDEST POP PUSH2 0xC70 JUMP JUMPDEST POP POP POP DUP1 DUP1 PUSH1 0x1 ADD SWAP2 POP POP PUSH2 0xC2A JUMP JUMPDEST POP PUSH0 PUSH2 0xF69 DUP9 PUSH2 0x653 JUMP JUMPDEST SWAP1 POP PUSH2 0xF75 DUP2 DUP6 PUSH2 0x11B5 JUMP JUMPDEST PUSH2 0x1007 DUP8 DUP8 DUP4 DUP9 PUSH1 0x8 DUP1 SLOAD DUP1 PUSH1 0x20 MUL PUSH1 0x20 ADD PUSH1 0x40 MLOAD SWAP1 DUP2 ADD PUSH1 0x40 MSTORE DUP1 SWAP3 SWAP2 SWAP1 DUP2 DUP2 MSTORE PUSH1 0x20 ADD DUP3 DUP1 SLOAD DUP1 ISZERO PUSH2 0xFFB JUMPI PUSH1 0x20 MUL DUP3 ADD SWAP2 SWAP1 PUSH0 MSTORE PUSH1 0x20 PUSH0 KECCAK256 SWAP1 JUMPDEST DUP2 PUSH0 SWAP1 SLOAD SWAP1 PUSH2 0x100 EXP SWAP1 DIV PUSH20 0xFFFFFFFFFFFFFFFFFFFFFFFFFFFFFFFFFFFFFFFF AND PUSH20 0xFFFFFFFFFFFFFFFFFFFFFFFFFFFFFFFFFFFFFFFF AND DUP2 MSTORE PUSH1 0x20 ADD SWAP1 PUSH1 0x1 ADD SWAP1 DUP1 DUP4 GT PUSH2 0xFB2 JUMPI JUMPDEST POP POP POP POP POP DUP10 DUP10 PUSH2 0x883 JUMP JUMPDEST PUSH1 0x8 DUP1 SLOAD DUP1 PUSH1 0x20 MUL PUSH1 0x20 ADD PUSH1 0x40 MLOAD SWAP1 DUP2 ADD PUSH1 0x40 MSTORE DUP1 SWAP3 SWAP2 SWAP1 DUP2 DUP2 MSTORE PUSH1 0x20 ADD DUP3 DUP1 SLOAD DUP1 ISZERO PUSH2 0x1086 JUMPI PUSH1 0x20 MUL DUP3 ADD SWAP2 SWAP1 PUSH0 MSTORE PUSH1 0x20 PUSH0 KECCAK256 SWAP1 JUMPDEST DUP2 PUSH0 SWAP1 SLOAD SWAP1 PUSH2 0x100 EXP SWAP1 DIV PUSH20 0xFFFFFFFFFFFFFFFFFFFFFFFFFFFFFFFFFFFFFFFF AND PUSH20 0xFFFFFFFFFFFFFFFFFFFFFFFFFFFFFFFFFFFFFFFF AND DUP2 MSTORE PUSH1 0x20 ADD SWAP1 PUSH1 0x1 ADD SWAP1 DUP1 DUP4 GT PUSH2 0x103D JUMPI JUMPDEST POP POP POP POP POP SWAP2 POP POP SWAP7 SWAP6 POP POP POP POP POP POP JUMP JUMPDEST PUSH0 SLOAD DUP2 JUMP JUMPDEST PUSH0 DUP1 PUSH1 0x5 DUP1 SLOAD SWAP1 POP SWAP1 POP PUSH0 PUSH1 0x32 SWAP1 POP PUSH0 DUP3 SUB PUSH2 0x10BD JUMPI PUSH0 SWAP3 POP POP POP PUSH2 0x11B0 JUMP JUMPDEST PUSH0 DUP3 PUSH1 0x1 NUMBER PUSH2 0x10CC SWAP2 SWAP1 PUSH2 0x3905 JUMP JUMPDEST BLOCKHASH PUSH0 SHR PUSH2 0x10D9 SWAP2 SWAP1 PUSH2 0x3965 JUMP JUMPDEST SWAP1 POP PUSH0 JUMPDEST DUP4 DUP2 LT ISZERO PUSH2 0x11A8 JUMPI PUSH0 PUSH1 0x5 DUP6 DUP4 DUP6 PUSH2 0x10F5 SWAP2 SWAP1 PUSH2 0x3995 JUMP JUMPDEST PUSH2 0x10FF SWAP2 SWAP1 PUSH2 0x3965 JUMP JUMPDEST DUP2 SLOAD DUP2 LT PUSH2 0x1110 JUMPI PUSH2 0x110F PUSH2 0x337C JUMP JUMPDEST JUMPDEST SWAP1 PUSH0 MSTORE PUSH1 0x20 PUSH0 KECCAK256 ADD PUSH0 SWAP1 SLOAD SWAP1 PUSH2 0x100 EXP SWAP1 DIV PUSH20 0xFFFFFFFFFFFFFFFFFFFFFFFFFFFFFFFFFFFFFFFF AND SWAP1 POP DUP4 DUP8 PUSH2 0x1146 SWAP2 SWAP1 PUSH2 0x3995 JUMP JUMPDEST PUSH1 0x3 PUSH0 DUP4 PUSH20 0xFFFFFFFFFFFFFFFFFFFFFFFFFFFFFFFFFFFFFFFF AND PUSH20 0xFFFFFFFFFFFFFFFFFFFFFFFFFFFFFFFFFFFFFFFF AND DUP2 MSTORE PUSH1 0x20 ADD SWAP1 DUP2 MSTORE PUSH1 0x20 ADD PUSH0 KECCAK256 PUSH1 0x1 ADD SLOAD GT ISZERO PUSH2 0x119A JUMPI DUP1 SWAP6 POP POP POP POP POP POP PUSH2 0x11B0 JUMP JUMPDEST POP DUP1 DUP1 PUSH1 0x1 ADD SWAP2 POP POP PUSH2 0x10DD JUMP JUMPDEST POP PUSH0 SWAP4 POP POP POP POP JUMPDEST SWAP2 SWAP1 POP JUMP JUMPDEST PUSH0 PUSH20 0xFFFFFFFFFFFFFFFFFFFFFFFFFFFFFFFFFFFFFFFF AND CALLER PUSH20 0xFFFFFFFFFFFFFFFFFFFFFFFFFFFFFFFFFFFFFFFF AND SUB PUSH2 0x11EC JUMPI PUSH0 DUP1 REVERT JUMPDEST PUSH0 PUSH1 0x20 PUSH1 0xFF AND GT PUSH2 0x11FB JUMPI PUSH0 DUP1 REVERT JUMPDEST PUSH0 DUP2 MLOAD GT PUSH2 0x1207 JUMPI PUSH0 DUP1 REVERT JUMPDEST DUP2 PUSH1 0x2 DUP3 PUSH1 0x40 MLOAD PUSH2 0x1218 SWAP2 SWAP1 PUSH2 0x34B2 JUMP JUMPDEST SWAP1 DUP2 MSTORE PUSH1 0x20 ADD PUSH1 0x40 MLOAD DUP1 SWAP2 SUB SWAP1 KECCAK256 DUP2 SWAP1 SSTORE POP POP POP JUMP JUMPDEST PUSH1 0x6 PUSH0 SWAP1 SLOAD SWAP1 PUSH2 0x100 EXP SWAP1 DIV PUSH20 0xFFFFFFFFFFFFFFFFFFFFFFFFFFFFFFFFFFFFFFFF AND DUP2 JUMP JUMPDEST PUSH2 0x125B PUSH2 0x25F9 JUMP JUMPDEST PUSH0 PUSH1 0x7 PUSH0 CALLER PUSH20 0xFFFFFFFFFFFFFFFFFFFFFFFFFFFFFFFFFFFFFFFF AND PUSH20 0xFFFFFFFFFFFFFFFFFFFFFFFFFFFFFFFFFFFFFFFF AND DUP2 MSTORE PUSH1 0x20 ADD SWAP1 DUP2 MSTORE PUSH1 0x20 ADD PUSH0 KECCAK256 DUP1 SLOAD DUP1 PUSH1 0x20 MUL PUSH1 0x20 ADD PUSH1 0x40 MLOAD SWAP1 DUP2 ADD PUSH1 0x40 MSTORE DUP1 SWAP3 SWAP2 SWAP1 DUP2 DUP2 MSTORE PUSH1 0x20 ADD PUSH0 SWAP1 JUMPDEST DUP3 DUP3 LT ISZERO PUSH2 0x1626 JUMPI DUP4 DUP3 SWAP1 PUSH0 MSTORE PUSH1 0x20 PUSH0 KECCAK256 SWAP1 PUSH1 0x9 MUL ADD PUSH1 0x40 MLOAD DUP1 PUSH2 0x120 ADD PUSH1 0x40 MSTORE SWAP1 DUP2 PUSH0 DUP3 ADD DUP1 SLOAD PUSH2 0x12E9 SWAP1 PUSH2 0x34F5 JUMP JUMPDEST DUP1 PUSH1 0x1F ADD PUSH1 0x20 DUP1 SWAP2 DIV MUL PUSH1 0x20 ADD PUSH1 0x40 MLOAD SWAP1 DUP2 ADD PUSH1 0x40 MSTORE DUP1 SWAP3 SWAP2 SWAP1 DUP2 DUP2 MSTORE PUSH1 0x20 ADD DUP3 DUP1 SLOAD PUSH2 0x1315 SWAP1 PUSH2 0x34F5 JUMP JUMPDEST DUP1 ISZERO PUSH2 0x1360 JUMPI DUP1 PUSH1 0x1F LT PUSH2 0x1337 JUMPI PUSH2 0x100 DUP1 DUP4 SLOAD DIV MUL DUP4 MSTORE SWAP2 PUSH1 0x20 ADD SWAP2 PUSH2 0x1360 JUMP JUMPDEST DUP3 ADD SWAP2 SWAP1 PUSH0 MSTORE PUSH1 0x20 PUSH0 KECCAK256 SWAP1 JUMPDEST DUP2 SLOAD DUP2 MSTORE SWAP1 PUSH1 0x1 ADD SWAP1 PUSH1 0x20 ADD DUP1 DUP4 GT PUSH2 0x1343 JUMPI DUP3 SWAP1 SUB PUSH1 0x1F AND DUP3 ADD SWAP2 JUMPDEST POP POP POP POP POP DUP2 MSTORE PUSH1 0x20 ADD PUSH1 0x1 DUP3 ADD DUP1 SLOAD PUSH2 0x1379 SWAP1 PUSH2 0x34F5 JUMP JUMPDEST DUP1 PUSH1 0x1F ADD PUSH1 0x20 DUP1 SWAP2 DIV MUL PUSH1 0x20 ADD PUSH1 0x40 MLOAD SWAP1 DUP2 ADD PUSH1 0x40 MSTORE DUP1 SWAP3 SWAP2 SWAP1 DUP2 DUP2 MSTORE PUSH1 0x20 ADD DUP3 DUP1 SLOAD PUSH2 0x13A5 SWAP1 PUSH2 0x34F5 JUMP JUMPDEST DUP1 ISZERO PUSH2 0x13F0 JUMPI DUP1 PUSH1 0x1F LT PUSH2 0x13C7 JUMPI PUSH2 0x100 DUP1 DUP4 SLOAD DIV MUL DUP4 MSTORE SWAP2 PUSH1 0x20 ADD SWAP2 PUSH2 0x13F0 JUMP JUMPDEST DUP3 ADD SWAP2 SWAP1 PUSH0 MSTORE PUSH1 0x20 PUSH0 KECCAK256 SWAP1 JUMPDEST DUP2 SLOAD DUP2 MSTORE SWAP1 PUSH1 0x1 ADD SWAP1 PUSH1 0x20 ADD DUP1 DUP4 GT PUSH2 0x13D3 JUMPI DUP3 SWAP1 SUB PUSH1 0x1F AND DUP3 ADD SWAP2 JUMPDEST POP POP POP POP POP DUP2 MSTORE PUSH1 0x20 ADD PUSH1 0x2 DUP3 ADD DUP1 SLOAD PUSH2 0x1409 SWAP1 PUSH2 0x34F5 JUMP JUMPDEST DUP1 PUSH1 0x1F ADD PUSH1 0x20 DUP1 SWAP2 DIV MUL PUSH1 0x20 ADD PUSH1 0x40 MLOAD SWAP1 DUP2 ADD PUSH1 0x40 MSTORE DUP1 SWAP3 SWAP2 SWAP1 DUP2 DUP2 MSTORE PUSH1 0x20 ADD DUP3 DUP1 SLOAD PUSH2 0x1435 SWAP1 PUSH2 0x34F5 JUMP JUMPDEST DUP1 ISZERO PUSH2 0x1480 JUMPI DUP1 PUSH1 0x1F LT PUSH2 0x1457 JUMPI PUSH2 0x100 DUP1 DUP4 SLOAD DIV MUL DUP4 MSTORE SWAP2 PUSH1 0x20 ADD SWAP2 PUSH2 0x1480 JUMP JUMPDEST DUP3 ADD SWAP2 SWAP1 PUSH0 MSTORE PUSH1 0x20 PUSH0 KECCAK256 SWAP1 JUMPDEST DUP2 SLOAD DUP2 MSTORE SWAP1 PUSH1 0x1 ADD SWAP1 PUSH1 0x20 ADD DUP1 DUP4 GT PUSH2 0x1463 JUMPI DUP3 SWAP1 SUB PUSH1 0x1F AND DUP3 ADD SWAP2 JUMPDEST POP POP POP POP POP DUP2 MSTORE PUSH1 0x20 ADD PUSH1 0x3 DUP3 ADD SLOAD DUP2 MSTORE PUSH1 0x20 ADD PUSH1 0x4 DUP3 ADD SLOAD DUP2 MSTORE PUSH1 0x20 ADD PUSH1 0x5 DUP3 ADD SLOAD DUP2 MSTORE PUSH1 0x20 ADD PUSH1 0x6 DUP3 ADD PUSH0 SWAP1 SLOAD SWAP1 PUSH2 0x100 EXP SWAP1 DIV PUSH20 0xFFFFFFFFFFFFFFFFFFFFFFFFFFFFFFFFFFFFFFFF AND PUSH20 0xFFFFFFFFFFFFFFFFFFFFFFFFFFFFFFFFFFFFFFFF AND PUSH20 0xFFFFFFFFFFFFFFFFFFFFFFFFFFFFFFFFFFFFFFFF AND DUP2 MSTORE PUSH1 0x20 ADD PUSH1 0x7 DUP3 ADD DUP1 SLOAD PUSH2 0x150C SWAP1 PUSH2 0x34F5 JUMP JUMPDEST DUP1 PUSH1 0x1F ADD PUSH1 0x20 DUP1 SWAP2 DIV MUL PUSH1 0x20 ADD PUSH1 0x40 MLOAD SWAP1 DUP2 ADD PUSH1 0x40 MSTORE DUP1 SWAP3 SWAP2 SWAP1 DUP2 DUP2 MSTORE PUSH1 0x20 ADD DUP3 DUP1 SLOAD PUSH2 0x1538 SWAP1 PUSH2 0x34F5 JUMP JUMPDEST DUP1 ISZERO PUSH2 0x1583 JUMPI DUP1 PUSH1 0x1F LT PUSH2 0x155A JUMPI PUSH2 0x100 DUP1 DUP4 SLOAD DIV MUL DUP4 MSTORE SWAP2 PUSH1 0x20 ADD SWAP2 PUSH2 0x1583 JUMP JUMPDEST DUP3 ADD SWAP2 SWAP1 PUSH0 MSTORE PUSH1 0x20 PUSH0 KECCAK256 SWAP1 JUMPDEST DUP2 SLOAD DUP2 MSTORE SWAP1 PUSH1 0x1 ADD SWAP1 PUSH1 0x20 ADD DUP1 DUP4 GT PUSH2 0x1566 JUMPI DUP3 SWAP1 SUB PUSH1 0x1F AND DUP3 ADD SWAP2 JUMPDEST POP POP POP POP POP DUP2 MSTORE PUSH1 0x20 ADD PUSH1 0x8 DUP3 ADD DUP1 SLOAD DUP1 PUSH1 0x20 MUL PUSH1 0x20 ADD PUSH1 0x40 MLOAD SWAP1 DUP2 ADD PUSH1 0x40 MSTORE DUP1 SWAP3 SWAP2 SWAP1 DUP2 DUP2 MSTORE PUSH1 0x20 ADD DUP3 DUP1 SLOAD DUP1 ISZERO PUSH2 0x160E JUMPI PUSH1 0x20 MUL DUP3 ADD SWAP2 SWAP1 PUSH0 MSTORE PUSH1 0x20 PUSH0 KECCAK256 SWAP1 JUMPDEST DUP2 PUSH0 SWAP1 SLOAD SWAP1 PUSH2 0x100 EXP SWAP1 DIV PUSH20 0xFFFFFFFFFFFFFFFFFFFFFFFFFFFFFFFFFFFFFFFF AND PUSH20 0xFFFFFFFFFFFFFFFFFFFFFFFFFFFFFFFFFFFFFFFF AND DUP2 MSTORE PUSH1 0x20 ADD SWAP1 PUSH1 0x1 ADD SWAP1 DUP1 DUP4 GT PUSH2 0x15C5 JUMPI JUMPDEST POP POP POP POP POP DUP2 MSTORE POP POP DUP2 MSTORE PUSH1 0x20 ADD SWAP1 PUSH1 0x1 ADD SWAP1 PUSH2 0x12B8 JUMP JUMPDEST POP POP POP POP SWAP1 POP PUSH0 JUMPDEST DUP2 MLOAD DUP2 LT ISZERO PUSH2 0x1694 JUMPI PUSH2 0x165E DUP3 DUP3 DUP2 MLOAD DUP2 LT PUSH2 0x164D JUMPI PUSH2 0x164C PUSH2 0x337C JUMP JUMPDEST JUMPDEST PUSH1 0x20 MUL PUSH1 0x20 ADD ADD MLOAD PUSH0 ADD MLOAD DUP6 PUSH2 0x24BF JUMP JUMPDEST ISZERO PUSH2 0x1687 JUMPI DUP2 DUP2 DUP2 MLOAD DUP2 LT PUSH2 0x1676 JUMPI PUSH2 0x1675 PUSH2 0x337C JUMP JUMPDEST JUMPDEST PUSH1 0x20 MUL PUSH1 0x20 ADD ADD MLOAD SWAP3 POP POP POP PUSH2 0x172C JUMP JUMPDEST DUP1 DUP1 PUSH1 0x1 ADD SWAP2 POP POP PUSH2 0x162E JUMP JUMPDEST POP PUSH1 0x60 PUSH1 0x40 MLOAD DUP1 PUSH2 0x120 ADD PUSH1 0x40 MSTORE DUP1 PUSH1 0x40 MLOAD DUP1 PUSH1 0x20 ADD PUSH1 0x40 MSTORE DUP1 PUSH0 DUP2 MSTORE POP DUP2 MSTORE PUSH1 0x20 ADD PUSH1 0x40 MLOAD DUP1 PUSH1 0x20 ADD PUSH1 0x40 MSTORE DUP1 PUSH0 DUP2 MSTORE POP DUP2 MSTORE PUSH1 0x20 ADD PUSH1 0x40 MLOAD DUP1 PUSH1 0x20 ADD PUSH1 0x40 MSTORE DUP1 PUSH0 DUP2 MSTORE POP DUP2 MSTORE PUSH1 0x20 ADD PUSH0 DUP1 SHL DUP2 MSTORE PUSH1 0x20 ADD PUSH0 DUP2 MSTORE PUSH1 0x20 ADD PUSH0 DUP2 MSTORE PUSH1 0x20 ADD PUSH0 PUSH20 0xFFFFFFFFFFFFFFFFFFFFFFFFFFFFFFFFFFFFFFFF AND DUP2 MSTORE PUSH1 0x20 ADD PUSH1 0x40 MLOAD DUP1 PUSH1 0x20 ADD PUSH1 0x40 MSTORE DUP1 PUSH0 DUP2 MSTORE POP DUP2 MSTORE PUSH1 0x20 ADD DUP3 DUP2 MSTORE POP SWAP3 POP POP POP JUMPDEST SWAP2 SWAP1 POP JUMP JUMPDEST PUSH1 0x4 PUSH1 0x20 MSTORE DUP2 PUSH0 MSTORE PUSH1 0x40 PUSH0 KECCAK256 DUP2 DUP1 MLOAD PUSH1 0x20 DUP2 ADD DUP3 ADD DUP1 MLOAD DUP5 DUP3 MSTORE PUSH1 0x20 DUP4 ADD PUSH1 0x20 DUP6 ADD KECCAK256 DUP2 DUP4 MSTORE DUP1 SWAP6 POP POP POP POP POP POP PUSH0 SWAP2 POP SWAP2 POP POP DUP1 SLOAD PUSH2 0x1770 SWAP1 PUSH2 0x34F5 JUMP JUMPDEST DUP1 PUSH1 0x1F ADD PUSH1 0x20 DUP1 SWAP2 DIV MUL PUSH1 0x20 ADD PUSH1 0x40 MLOAD SWAP1 DUP2 ADD PUSH1 0x40 MSTORE DUP1 SWAP3 SWAP2 SWAP1 DUP2 DUP2 MSTORE PUSH1 0x20 ADD DUP3 DUP1 SLOAD PUSH2 0x179C SWAP1 PUSH2 0x34F5 JUMP JUMPDEST DUP1 ISZERO PUSH2 0x17E7 JUMPI DUP1 PUSH1 0x1F LT PUSH2 0x17BE JUMPI PUSH2 0x100 DUP1 DUP4 SLOAD DIV MUL DUP4 MSTORE SWAP2 PUSH1 0x20 ADD SWAP2 PUSH2 0x17E7 JUMP JUMPDEST DUP3 ADD SWAP2 SWAP1 PUSH0 MSTORE PUSH1 0x20 PUSH0 KECCAK256 SWAP1 JUMPDEST DUP2 SLOAD DUP2 MSTORE SWAP1 PUSH1 0x1 ADD SWAP1 PUSH1 0x20 ADD DUP1 DUP4 GT PUSH2 0x17CA JUMPI DUP3 SWAP1 SUB PUSH1 0x1F AND DUP3 ADD SWAP2 JUMPDEST POP POP POP POP POP DUP2 JUMP JUMPDEST PUSH0 PUSH20 0xFFFFFFFFFFFFFFFFFFFFFFFFFFFFFFFFFFFFFFFF AND PUSH1 0x3 PUSH0 DUP6 PUSH20 0xFFFFFFFFFFFFFFFFFFFFFFFFFFFFFFFFFFFFFFFF AND PUSH20 0xFFFFFFFFFFFFFFFFFFFFFFFFFFFFFFFFFFFFFFFF AND DUP2 MSTORE PUSH1 0x20 ADD SWAP1 DUP2 MSTORE PUSH1 0x20 ADD PUSH0 KECCAK256 PUSH0 ADD PUSH0 SWAP1 SLOAD SWAP1 PUSH2 0x100 EXP SWAP1 DIV PUSH20 0xFFFFFFFFFFFFFFFFFFFFFFFFFFFFFFFFFFFFFFFF AND PUSH20 0xFFFFFFFFFFFFFFFFFFFFFFFFFFFFFFFFFFFFFFFF AND SUB PUSH2 0x18BB JUMPI PUSH1 0x40 MLOAD PUSH32 0x8C379A000000000000000000000000000000000000000000000000000000000 DUP2 MSTORE PUSH1 0x4 ADD PUSH2 0x18B2 SWAP1 PUSH2 0x3494 JUMP JUMPDEST PUSH1 0x40 MLOAD DUP1 SWAP2 SUB SWAP1 REVERT JUMPDEST DUP2 PUSH1 0x4 PUSH0 DUP6 PUSH20 0xFFFFFFFFFFFFFFFFFFFFFFFFFFFFFFFFFFFFFFFF AND PUSH20 0xFFFFFFFFFFFFFFFFFFFFFFFFFFFFFFFFFFFFFFFF AND DUP2 MSTORE PUSH1 0x20 ADD SWAP1 DUP2 MSTORE PUSH1 0x20 ADD PUSH0 KECCAK256 DUP3 PUSH1 0x40 MLOAD PUSH2 0x1907 SWAP2 SWAP1 PUSH2 0x34B2 JUMP JUMPDEST SWAP1 DUP2 MSTORE PUSH1 0x20 ADD PUSH1 0x40 MLOAD DUP1 SWAP2 SUB SWAP1 KECCAK256 SWAP1 DUP2 PUSH2 0x1921 SWAP2 SWAP1 PUSH2 0x36C2 JUMP JUMPDEST POP POP POP POP JUMP JUMPDEST PUSH1 0x60 PUSH1 0x5 DUP1 SLOAD DUP1 PUSH1 0x20 MUL PUSH1 0x20 ADD PUSH1 0x40 MLOAD SWAP1 DUP2 ADD PUSH1 0x40 MSTORE DUP1 SWAP3 SWAP2 SWAP1 DUP2 DUP2 MSTORE PUSH1 0x20 ADD DUP3 DUP1 SLOAD DUP1 ISZERO PUSH2 0x19A8 JUMPI PUSH1 0x20 MUL DUP3 ADD SWAP2 SWAP1 PUSH0 MSTORE PUSH1 0x20 PUSH0 KECCAK256 SWAP1 JUMPDEST DUP2 PUSH0 SWAP1 SLOAD SWAP1 PUSH2 0x100 EXP SWAP1 DIV PUSH20 0xFFFFFFFFFFFFFFFFFFFFFFFFFFFFFFFFFFFFFFFF AND PUSH20 0xFFFFFFFFFFFFFFFFFFFFFFFFFFFFFFFFFFFFFFFF AND DUP2 MSTORE PUSH1 0x20 ADD SWAP1 PUSH1 0x1 ADD SWAP1 DUP1 DUP4 GT PUSH2 0x195F JUMPI JUMPDEST POP POP POP POP POP SWAP1 POP SWAP1 JUMP JUMPDEST PUSH2 0x19BA PUSH2 0x265A JUMP JUMPDEST PUSH1 0x3 PUSH0 DUP4 PUSH20 0xFFFFFFFFFFFFFFFFFFFFFFFFFFFFFFFFFFFFFFFF AND PUSH20 0xFFFFFFFFFFFFFFFFFFFFFFFFFFFFFFFFFFFFFFFF AND DUP2 MSTORE PUSH1 0x20 ADD SWAP1 DUP2 MSTORE PUSH1 0x20 ADD PUSH0 KECCAK256 PUSH1 0x40 MLOAD DUP1 PUSH1 0x40 ADD PUSH1 0x40 MSTORE SWAP1 DUP2 PUSH0 DUP3 ADD PUSH0 SWAP1 SLOAD SWAP1 PUSH2 0x100 EXP SWAP1 DIV PUSH20 0xFFFFFFFFFFFFFFFFFFFFFFFFFFFFFFFFFFFFFFFF AND PUSH20 0xFFFFFFFFFFFFFFFFFFFFFFFFFFFFFFFFFFFFFFFF AND PUSH20 0xFFFFFFFFFFFFFFFFFFFFFFFFFFFFFFFFFFFFFFFF AND DUP2 MSTORE PUSH1 0x20 ADD PUSH1 0x1 DUP3 ADD SLOAD DUP2 MSTORE POP POP SWAP1 POP SWAP2 SWAP1 POP JUMP JUMPDEST PUSH0 PUSH1 0x7 PUSH0 CALLER PUSH20 0xFFFFFFFFFFFFFFFFFFFFFFFFFFFFFFFFFFFFFFFF AND PUSH20 0xFFFFFFFFFFFFFFFFFFFFFFFFFFFFFFFFFFFFFFFF AND DUP2 MSTORE PUSH1 0x20 ADD SWAP1 DUP2 MSTORE PUSH1 0x20 ADD PUSH0 KECCAK256 DUP1 SLOAD SWAP1 POP GT PUSH2 0x1AE9 JUMPI PUSH1 0x40 MLOAD PUSH32 0x8C379A000000000000000000000000000000000000000000000000000000000 DUP2 MSTORE PUSH1 0x4 ADD PUSH2 0x1AE0 SWAP1 PUSH2 0x3A12 JUMP JUMPDEST PUSH1 0x40 MLOAD DUP1 SWAP2 SUB SWAP1 REVERT JUMPDEST PUSH0 PUSH1 0x7 PUSH0 CALLER PUSH20 0xFFFFFFFFFFFFFFFFFFFFFFFFFFFFFFFFFFFFFFFF AND PUSH20 0xFFFFFFFFFFFFFFFFFFFFFFFFFFFFFFFFFFFFFFFF AND DUP2 MSTORE PUSH1 0x20 ADD SWAP1 DUP2 MSTORE PUSH1 0x20 ADD PUSH0 KECCAK256 DUP1 SLOAD DUP1 PUSH1 0x20 MUL PUSH1 0x20 ADD PUSH1 0x40 MLOAD SWAP1 DUP2 ADD PUSH1 0x40 MSTORE DUP1 SWAP3 SWAP2 SWAP1 DUP2 DUP2 MSTORE PUSH1 0x20 ADD PUSH0 SWAP1 JUMPDEST DUP3 DUP3 LT ISZERO PUSH2 0x1EB4 JUMPI DUP4 DUP3 SWAP1 PUSH0 MSTORE PUSH1 0x20 PUSH0 KECCAK256 SWAP1 PUSH1 0x9 MUL ADD PUSH1 0x40 MLOAD DUP1 PUSH2 0x120 ADD PUSH1 0x40 MSTORE SWAP1 DUP2 PUSH0 DUP3 ADD DUP1 SLOAD PUSH2 0x1B77 SWAP1 PUSH2 0x34F5 JUMP JUMPDEST DUP1 PUSH1 0x1F ADD PUSH1 0x20 DUP1 SWAP2 DIV MUL PUSH1 0x20 ADD PUSH1 0x40 MLOAD SWAP1 DUP2 ADD PUSH1 0x40 MSTORE DUP1 SWAP3 SWAP2 SWAP1 DUP2 DUP2 MSTORE PUSH1 0x20 ADD DUP3 DUP1 SLOAD PUSH2 0x1BA3 SWAP1 PUSH2 0x34F5 JUMP JUMPDEST DUP1 ISZERO PUSH2 0x1BEE JUMPI DUP1 PUSH1 0x1F LT PUSH2 0x1BC5 JUMPI PUSH2 0x100 DUP1 DUP4 SLOAD DIV MUL DUP4 MSTORE SWAP2 PUSH1 0x20 ADD SWAP2 PUSH2 0x1BEE JUMP JUMPDEST DUP3 ADD SWAP2 SWAP1 PUSH0 MSTORE PUSH1 0x20 PUSH0 KECCAK256 SWAP1 JUMPDEST DUP2 SLOAD DUP2 MSTORE SWAP1 PUSH1 0x1 ADD SWAP1 PUSH1 0x20 ADD DUP1 DUP4 GT PUSH2 0x1BD1 JUMPI DUP3 SWAP1 SUB PUSH1 0x1F AND DUP3 ADD SWAP2 JUMPDEST POP POP POP POP POP DUP2 MSTORE PUSH1 0x20 ADD PUSH1 0x1 DUP3 ADD DUP1 SLOAD PUSH2 0x1C07 SWAP1 PUSH2 0x34F5 JUMP JUMPDEST DUP1 PUSH1 0x1F ADD PUSH1 0x20 DUP1 SWAP2 DIV MUL PUSH1 0x20 ADD PUSH1 0x40 MLOAD SWAP1 DUP2 ADD PUSH1 0x40 MSTORE DUP1 SWAP3 SWAP2 SWAP1 DUP2 DUP2 MSTORE PUSH1 0x20 ADD DUP3 DUP1 SLOAD PUSH2 0x1C33 SWAP1 PUSH2 0x34F5 JUMP JUMPDEST DUP1 ISZERO PUSH2 0x1C7E JUMPI DUP1 PUSH1 0x1F LT PUSH2 0x1C55 JUMPI PUSH2 0x100 DUP1 DUP4 SLOAD DIV MUL DUP4 MSTORE SWAP2 PUSH1 0x20 ADD SWAP2 PUSH2 0x1C7E JUMP JUMPDEST DUP3 ADD SWAP2 SWAP1 PUSH0 MSTORE PUSH1 0x20 PUSH0 KECCAK256 SWAP1 JUMPDEST DUP2 SLOAD DUP2 MSTORE SWAP1 PUSH1 0x1 ADD SWAP1 PUSH1 0x20 ADD DUP1 DUP4 GT PUSH2 0x1C61 JUMPI DUP3 SWAP1 SUB PUSH1 0x1F AND DUP3 ADD SWAP2 JUMPDEST POP POP POP POP POP DUP2 MSTORE PUSH1 0x20 ADD PUSH1 0x2 DUP3 ADD DUP1 SLOAD PUSH2 0x1C97 SWAP1 PUSH2 0x34F5 JUMP JUMPDEST DUP1 PUSH1 0x1F ADD PUSH1 0x20 DUP1 SWAP2 DIV MUL PUSH1 0x20 ADD PUSH1 0x40 MLOAD SWAP1 DUP2 ADD PUSH1 0x40 MSTORE DUP1 SWAP3 SWAP2 SWAP1 DUP2 DUP2 MSTORE PUSH1 0x20 ADD DUP3 DUP1 SLOAD PUSH2 0x1CC3 SWAP1 PUSH2 0x34F5 JUMP JUMPDEST DUP1 ISZERO PUSH2 0x1D0E JUMPI DUP1 PUSH1 0x1F LT PUSH2 0x1CE5 JUMPI PUSH2 0x100 DUP1 DUP4 SLOAD DIV MUL DUP4 MSTORE SWAP2 PUSH1 0x20 ADD SWAP2 PUSH2 0x1D0E JUMP JUMPDEST DUP3 ADD SWAP2 SWAP1 PUSH0 MSTORE PUSH1 0x20 PUSH0 KECCAK256 SWAP1 JUMPDEST DUP2 SLOAD DUP2 MSTORE SWAP1 PUSH1 0x1 ADD SWAP1 PUSH1 0x20 ADD DUP1 DUP4 GT PUSH2 0x1CF1 JUMPI DUP3 SWAP1 SUB PUSH1 0x1F AND DUP3 ADD SWAP2 JUMPDEST POP POP POP POP POP DUP2 MSTORE PUSH1 0x20 ADD PUSH1 0x3 DUP3 ADD SLOAD DUP2 MSTORE PUSH1 0x20 ADD PUSH1 0x4 DUP3 ADD SLOAD DUP2 MSTORE PUSH1 0x20 ADD PUSH1 0x5 DUP3 ADD SLOAD DUP2 MSTORE PUSH1 0x20 ADD PUSH1 0x6 DUP3 ADD PUSH0 SWAP1 SLOAD SWAP1 PUSH2 0x100 EXP SWAP1 DIV PUSH20 0xFFFFFFFFFFFFFFFFFFFFFFFFFFFFFFFFFFFFFFFF AND PUSH20 0xFFFFFFFFFFFFFFFFFFFFFFFFFFFFFFFFFFFFFFFF AND PUSH20 0xFFFFFFFFFFFFFFFFFFFFFFFFFFFFFFFFFFFFFFFF AND DUP2 MSTORE PUSH1 0x20 ADD PUSH1 0x7 DUP3 ADD DUP1 SLOAD PUSH2 0x1D9A SWAP1 PUSH2 0x34F5 JUMP JUMPDEST DUP1 PUSH1 0x1F ADD PUSH1 0x20 DUP1 SWAP2 DIV MUL PUSH1 0x20 ADD PUSH1 0x40 MLOAD SWAP1 DUP2 ADD PUSH1 0x40 MSTORE DUP1 SWAP3 SWAP2 SWAP1 DUP2 DUP2 MSTORE PUSH1 0x20 ADD DUP3 DUP1 SLOAD PUSH2 0x1DC6 SWAP1 PUSH2 0x34F5 JUMP JUMPDEST DUP1 ISZERO PUSH2 0x1E11 JUMPI DUP1 PUSH1 0x1F LT PUSH2 0x1DE8 JUMPI PUSH2 0x100 DUP1 DUP4 SLOAD DIV MUL DUP4 MSTORE SWAP2 PUSH1 0x20 ADD SWAP2 PUSH2 0x1E11 JUMP JUMPDEST DUP3 ADD SWAP2 SWAP1 PUSH0 MSTORE PUSH1 0x20 PUSH0 KECCAK256 SWAP1 JUMPDEST DUP2 SLOAD DUP2 MSTORE SWAP1 PUSH1 0x1 ADD SWAP1 PUSH1 0x20 ADD DUP1 DUP4 GT PUSH2 0x1DF4 JUMPI DUP3 SWAP1 SUB PUSH1 0x1F AND DUP3 ADD SWAP2 JUMPDEST POP POP POP POP POP DUP2 MSTORE PUSH1 0x20 ADD PUSH1 0x8 DUP3 ADD DUP1 SLOAD DUP1 PUSH1 0x20 MUL PUSH1 0x20 ADD PUSH1 0x40 MLOAD SWAP1 DUP2 ADD PUSH1 0x40 MSTORE DUP1 SWAP3 SWAP2 SWAP1 DUP2 DUP2 MSTORE PUSH1 0x20 ADD DUP3 DUP1 SLOAD DUP1 ISZERO PUSH2 0x1E9C JUMPI PUSH1 0x20 MUL DUP3 ADD SWAP2 SWAP1 PUSH0 MSTORE PUSH1 0x20 PUSH0 KECCAK256 SWAP1 JUMPDEST DUP2 PUSH0 SWAP1 SLOAD SWAP1 PUSH2 0x100 EXP SWAP1 DIV PUSH20 0xFFFFFFFFFFFFFFFFFFFFFFFFFFFFFFFFFFFFFFFF AND PUSH20 0xFFFFFFFFFFFFFFFFFFFFFFFFFFFFFFFFFFFFFFFF AND DUP2 MSTORE PUSH1 0x20 ADD SWAP1 PUSH1 0x1 ADD SWAP1 DUP1 DUP4 GT PUSH2 0x1E53 JUMPI JUMPDEST POP POP POP POP POP DUP2 MSTORE POP POP DUP2 MSTORE PUSH1 0x20 ADD SWAP1 PUSH1 0x1 ADD SWAP1 PUSH2 0x1B46 JUMP JUMPDEST POP POP POP POP SWAP1 POP PUSH0 PUSH1 0x1 DUP3 MLOAD PUSH2 0x1EC9 SWAP2 SWAP1 PUSH2 0x3905 JUMP JUMPDEST SWAP1 POP PUSH0 DUP3 DUP3 DUP2 MLOAD DUP2 LT PUSH2 0x1EDF JUMPI PUSH2 0x1EDE PUSH2 0x337C JUMP JUMPDEST JUMPDEST PUSH1 0x20 MUL PUSH1 0x20 ADD ADD MLOAD SWAP1 POP PUSH2 0x1EF1 PUSH2 0x25F9 JUMP JUMPDEST PUSH0 JUMPDEST DUP5 MLOAD DUP2 LT ISZERO PUSH2 0x208A JUMPI PUSH2 0x1F23 DUP6 DUP3 DUP2 MLOAD DUP2 LT PUSH2 0x1F12 JUMPI PUSH2 0x1F11 PUSH2 0x337C JUMP JUMPDEST JUMPDEST PUSH1 0x20 MUL PUSH1 0x20 ADD ADD MLOAD PUSH0 ADD MLOAD DUP8 PUSH2 0x24BF JUMP JUMPDEST ISZERO PUSH2 0x207D JUMPI DUP5 DUP2 DUP2 MLOAD DUP2 LT PUSH2 0x1F3B JUMPI PUSH2 0x1F3A PUSH2 0x337C JUMP JUMPDEST JUMPDEST PUSH1 0x20 MUL PUSH1 0x20 ADD ADD MLOAD SWAP2 POP DUP3 PUSH1 0x7 PUSH0 CALLER PUSH20 0xFFFFFFFFFFFFFFFFFFFFFFFFFFFFFFFFFFFFFFFF AND PUSH20 0xFFFFFFFFFFFFFFFFFFFFFFFFFFFFFFFFFFFFFFFF AND DUP2 MSTORE PUSH1 0x20 ADD SWAP1 DUP2 MSTORE PUSH1 0x20 ADD PUSH0 KECCAK256 DUP3 DUP2 SLOAD DUP2 LT PUSH2 0x1F95 JUMPI PUSH2 0x1F94 PUSH2 0x337C JUMP JUMPDEST JUMPDEST SWAP1 PUSH0 MSTORE PUSH1 0x20 PUSH0 KECCAK256 SWAP1 PUSH1 0x9 MUL ADD PUSH0 DUP3 ADD MLOAD DUP2 PUSH0 ADD SWAP1 DUP2 PUSH2 0x1FB4 SWAP2 SWAP1 PUSH2 0x36C2 JUMP JUMPDEST POP PUSH1 0x20 DUP3 ADD MLOAD DUP2 PUSH1 0x1 ADD SWAP1 DUP2 PUSH2 0x1FCA SWAP2 SWAP1 PUSH2 0x36C2 JUMP JUMPDEST POP PUSH1 0x40 DUP3 ADD MLOAD DUP2 PUSH1 0x2 ADD SWAP1 DUP2 PUSH2 0x1FE0 SWAP2 SWAP1 PUSH2 0x36C2 JUMP JUMPDEST POP PUSH1 0x60 DUP3 ADD MLOAD DUP2 PUSH1 0x3 ADD SSTORE PUSH1 0x80 DUP3 ADD MLOAD DUP2 PUSH1 0x4 ADD SSTORE PUSH1 0xA0 DUP3 ADD MLOAD DUP2 PUSH1 0x5 ADD SSTORE PUSH1 0xC0 DUP3 ADD MLOAD DUP2 PUSH1 0x6 ADD PUSH0 PUSH2 0x100 EXP DUP2 SLOAD DUP2 PUSH20 0xFFFFFFFFFFFFFFFFFFFFFFFFFFFFFFFFFFFFFFFF MUL NOT AND SWAP1 DUP4 PUSH20 0xFFFFFFFFFFFFFFFFFFFFFFFFFFFFFFFFFFFFFFFF AND MUL OR SWAP1 SSTORE POP PUSH1 0xE0 DUP3 ADD MLOAD DUP2 PUSH1 0x7 ADD SWAP1 DUP2 PUSH2 0x205A SWAP2 SWAP1 PUSH2 0x36C2 JUMP JUMPDEST POP PUSH2 0x100 DUP3 ADD MLOAD DUP2 PUSH1 0x8 ADD SWAP1 DUP1 MLOAD SWAP1 PUSH1 0x20 ADD SWAP1 PUSH2 0x2078 SWAP3 SWAP2 SWAP1 PUSH2 0x2535 JUMP JUMPDEST POP SWAP1 POP POP JUMPDEST DUP1 DUP1 PUSH1 0x1 ADD SWAP2 POP POP PUSH2 0x1EF3 JUMP JUMPDEST POP DUP1 PUSH1 0x7 PUSH0 CALLER PUSH20 0xFFFFFFFFFFFFFFFFFFFFFFFFFFFFFFFFFFFFFFFF AND PUSH20 0xFFFFFFFFFFFFFFFFFFFFFFFFFFFFFFFFFFFFFFFF AND DUP2 MSTORE PUSH1 0x20 ADD SWAP1 DUP2 MSTORE PUSH1 0x20 ADD PUSH0 KECCAK256 DUP5 DUP2 SLOAD DUP2 LT PUSH2 0x20DB JUMPI PUSH2 0x20DA PUSH2 0x337C JUMP JUMPDEST JUMPDEST SWAP1 PUSH0 MSTORE PUSH1 0x20 PUSH0 KECCAK256 SWAP1 PUSH1 0x9 MUL ADD PUSH0 DUP3 ADD MLOAD DUP2 PUSH0 ADD SWAP1 DUP2 PUSH2 0x20FA SWAP2 SWAP1 PUSH2 0x36C2 JUMP JUMPDEST POP PUSH1 0x20 DUP3 ADD MLOAD DUP2 PUSH1 0x1 ADD SWAP1 DUP2 PUSH2 0x2110 SWAP2 SWAP1 PUSH2 0x36C2 JUMP JUMPDEST POP PUSH1 0x40 DUP3 ADD MLOAD DUP2 PUSH1 0x2 ADD SWAP1 DUP2 PUSH2 0x2126 SWAP2 SWAP1 PUSH2 0x36C2 JUMP JUMPDEST POP PUSH1 0x60 DUP3 ADD MLOAD DUP2 PUSH1 0x3 ADD SSTORE PUSH1 0x80 DUP3 ADD MLOAD DUP2 PUSH1 0x4 ADD SSTORE PUSH1 0xA0 DUP3 ADD MLOAD DUP2 PUSH1 0x5 ADD SSTORE PUSH1 0xC0 DUP3 ADD MLOAD DUP2 PUSH1 0x6 ADD PUSH0 PUSH2 0x100 EXP DUP2 SLOAD DUP2 PUSH20 0xFFFFFFFFFFFFFFFFFFFFFFFFFFFFFFFFFFFFFFFF MUL NOT AND SWAP1 DUP4 PUSH20 0xFFFFFFFFFFFFFFFFFFFFFFFFFFFFFFFFFFFFFFFF AND MUL OR SWAP1 SSTORE POP PUSH1 0xE0 DUP3 ADD MLOAD DUP2 PUSH1 0x7 ADD SWAP1 DUP2 PUSH2 0x21A0 SWAP2 SWAP1 PUSH2 0x36C2 JUMP JUMPDEST POP PUSH2 0x100 DUP3 ADD MLOAD DUP2 PUSH1 0x8 ADD SWAP1 DUP1 MLOAD SWAP1 PUSH1 0x20 ADD SWAP1 PUSH2 0x21BE SWAP3 SWAP2 SWAP1 PUSH2 0x2535 JUMP JUMPDEST POP SWAP1 POP POP PUSH1 0x7 PUSH0 CALLER PUSH20 0xFFFFFFFFFFFFFFFFFFFFFFFFFFFFFFFFFFFFFFFF AND PUSH20 0xFFFFFFFFFFFFFFFFFFFFFFFFFFFFFFFFFFFFFFFF AND DUP2 MSTORE PUSH1 0x20 ADD SWAP1 DUP2 MSTORE PUSH1 0x20 ADD PUSH0 KECCAK256 DUP1 SLOAD DUP1 PUSH2 0x220F JUMPI PUSH2 0x220E PUSH2 0x3A30 JUMP JUMPDEST JUMPDEST PUSH1 0x1 SWAP1 SUB DUP2 DUP2 SWAP1 PUSH0 MSTORE PUSH1 0x20 PUSH0 KECCAK256 SWAP1 PUSH1 0x9 MUL ADD PUSH0 DUP1 DUP3 ADD PUSH0 PUSH2 0x2230 SWAP2 SWAP1 PUSH2 0x25BC JUMP JUMPDEST PUSH1 0x1 DUP3 ADD PUSH0 PUSH2 0x223F SWAP2 SWAP1 PUSH2 0x25BC JUMP JUMPDEST PUSH1 0x2 DUP3 ADD PUSH0 PUSH2 0x224E SWAP2 SWAP1 PUSH2 0x25BC JUMP JUMPDEST PUSH1 0x3 DUP3 ADD PUSH0 SWAP1 SSTORE PUSH1 0x4 DUP3 ADD PUSH0 SWAP1 SSTORE PUSH1 0x5 DUP3 ADD PUSH0 SWAP1 SSTORE PUSH1 0x6 DUP3 ADD PUSH0 PUSH2 0x100 EXP DUP2 SLOAD SWAP1 PUSH20 0xFFFFFFFFFFFFFFFFFFFFFFFFFFFFFFFFFFFFFFFF MUL NOT AND SWAP1 SSTORE PUSH1 0x7 DUP3 ADD PUSH0 PUSH2 0x2298 SWAP2 SWAP1 PUSH2 0x25BC JUMP JUMPDEST PUSH1 0x8 DUP3 ADD PUSH0 PUSH2 0x22A7 SWAP2 SWAP1 PUSH2 0x2517 JUMP JUMPDEST POP POP SWAP1 SSTORE PUSH32 0x8598A19145BA7B62366F9F3E3CECA438DF1E575FFA3BEF982ED120041131D786 CALLER DUP7 PUSH1 0x40 MLOAD PUSH2 0x22DC SWAP3 SWAP2 SWAP1 PUSH2 0x3A5D JUMP JUMPDEST PUSH1 0x40 MLOAD DUP1 SWAP2 SUB SWAP1 LOG1 POP POP POP POP POP JUMP JUMPDEST PUSH1 0x1 SLOAD DUP2 JUMP JUMPDEST PUSH1 0x5 DUP2 DUP2 SLOAD DUP2 LT PUSH2 0x2300 JUMPI PUSH0 DUP1 REVERT JUMPDEST SWAP1 PUSH0 MSTORE PUSH1 0x20 PUSH0 KECCAK256 ADD PUSH0 SWAP2 POP SLOAD SWAP1 PUSH2 0x100 EXP SWAP1 DIV PUSH20 0xFFFFFFFFFFFFFFFFFFFFFFFFFFFFFFFFFFFFFFFF AND DUP2 JUMP JUMPDEST PUSH0 DUP1 PUSH0 SWAP1 POP JUMPDEST DUP3 MLOAD DUP2 LT ISZERO PUSH2 0x239F JUMPI DUP4 PUSH20 0xFFFFFFFFFFFFFFFFFFFFFFFFFFFFFFFFFFFFFFFF AND DUP4 DUP3 DUP2 MLOAD DUP2 LT PUSH2 0x2365 JUMPI PUSH2 0x2364 PUSH2 0x337C JUMP JUMPDEST JUMPDEST PUSH1 0x20 MUL PUSH1 0x20 ADD ADD MLOAD PUSH20 0xFFFFFFFFFFFFFFFFFFFFFFFFFFFFFFFFFFFFFFFF AND SUB PUSH2 0x2392 JUMPI PUSH1 0x1 SWAP2 POP POP PUSH2 0x23A4 JUMP JUMPDEST DUP1 DUP1 PUSH1 0x1 ADD SWAP2 POP POP PUSH2 0x2332 JUMP JUMPDEST POP PUSH0 SWAP1 POP JUMPDEST SWAP3 SWAP2 POP POP JUMP JUMPDEST PUSH0 PUSH20 0xFFFFFFFFFFFFFFFFFFFFFFFFFFFFFFFFFFFFFFFF AND PUSH1 0x3 PUSH0 DUP5 PUSH20 0xFFFFFFFFFFFFFFFFFFFFFFFFFFFFFFFFFFFFFFFF AND PUSH20 0xFFFFFFFFFFFFFFFFFFFFFFFFFFFFFFFFFFFFFFFF AND DUP2 MSTORE PUSH1 0x20 ADD SWAP1 DUP2 MSTORE PUSH1 0x20 ADD PUSH0 KECCAK256 PUSH0 ADD PUSH0 SWAP1 SLOAD SWAP1 PUSH2 0x100 EXP SWAP1 DIV PUSH20 0xFFFFFFFFFFFFFFFFFFFFFFFFFFFFFFFFFFFFFFFF AND PUSH20 0xFFFFFFFFFFFFFFFFFFFFFFFFFFFFFFFFFFFFFFFF AND SUB PUSH2 0x2476 JUMPI PUSH1 0x40 MLOAD PUSH32 0x8C379A000000000000000000000000000000000000000000000000000000000 DUP2 MSTORE PUSH1 0x4 ADD PUSH2 0x246D SWAP1 PUSH2 0x3494 JUMP JUMPDEST PUSH1 0x40 MLOAD DUP1 SWAP2 SUB SWAP1 REVERT JUMPDEST DUP1 PUSH1 0x3 PUSH0 DUP5 PUSH20 0xFFFFFFFFFFFFFFFFFFFFFFFFFFFFFFFFFFFFFFFF AND PUSH20 0xFFFFFFFFFFFFFFFFFFFFFFFFFFFFFFFFFFFFFFFF AND DUP2 MSTORE PUSH1 0x20 ADD SWAP1 DUP2 MSTORE PUSH1 0x20 ADD PUSH0 KECCAK256 PUSH1 0x1 ADD DUP2 SWAP1 SSTORE POP POP POP JUMP JUMPDEST PUSH0 DUP2 PUSH1 0x40 MLOAD PUSH1 0x20 ADD PUSH2 0x24D1 SWAP2 SWAP1 PUSH2 0x34B2 JUMP JUMPDEST PUSH1 0x40 MLOAD PUSH1 0x20 DUP2 DUP4 SUB SUB DUP2 MSTORE SWAP1 PUSH1 0x40 MSTORE DUP1 MLOAD SWAP1 PUSH1 0x20 ADD KECCAK256 DUP4 PUSH1 0x40 MLOAD PUSH1 0x20 ADD PUSH2 0x24F8 SWAP2 SWAP1 PUSH2 0x34B2 JUMP JUMPDEST PUSH1 0x40 MLOAD PUSH1 0x20 DUP2 DUP4 SUB SUB DUP2 MSTORE SWAP1 PUSH1 0x40 MSTORE DUP1 MLOAD SWAP1 PUSH1 0x20 ADD KECCAK256 EQ SWAP1 POP SWAP3 SWAP2 POP POP JUMP JUMPDEST POP DUP1 SLOAD PUSH0 DUP3 SSTORE SWAP1 PUSH0 MSTORE PUSH1 0x20 PUSH0 KECCAK256 SWAP1 DUP2 ADD SWAP1 PUSH2 0x2532 SWAP2 SWAP1 PUSH2 0x2688 JUMP JUMPDEST POP JUMP JUMPDEST DUP3 DUP1 SLOAD DUP3 DUP3 SSTORE SWAP1 PUSH0 MSTORE PUSH1 0x20 PUSH0 KECCAK256 SWAP1 DUP2 ADD SWAP3 DUP3 ISZERO PUSH2 0x25AB JUMPI SWAP2 PUSH1 0x20 MUL DUP3 ADD JUMPDEST DUP3 DUP2 GT ISZERO PUSH2 0x25AA JUMPI DUP3 MLOAD DUP3 PUSH0 PUSH2 0x100 EXP DUP2 SLOAD DUP2 PUSH20 0xFFFFFFFFFFFFFFFFFFFFFFFFFFFFFFFFFFFFFFFF MUL NOT AND SWAP1 DUP4 PUSH20 0xFFFFFFFFFFFFFFFFFFFFFFFFFFFFFFFFFFFFFFFF AND MUL OR SWAP1 SSTORE POP SWAP2 PUSH1 0x20 ADD SWAP2 SWAP1 PUSH1 0x1 ADD SWAP1 PUSH2 0x2553 JUMP JUMPDEST JUMPDEST POP SWAP1 POP PUSH2 0x25B8 SWAP2 SWAP1 PUSH2 0x2688 JUMP JUMPDEST POP SWAP1 JUMP JUMPDEST POP DUP1 SLOAD PUSH2 0x25C8 SWAP1 PUSH2 0x34F5 JUMP JUMPDEST PUSH0 DUP3 SSTORE DUP1 PUSH1 0x1F LT PUSH2 0x25D9 JUMPI POP PUSH2 0x25F6 JUMP JUMPDEST PUSH1 0x1F ADD PUSH1 0x20 SWAP1 DIV SWAP1 PUSH0 MSTORE PUSH1 0x20 PUSH0 KECCAK256 SWAP1 DUP2 ADD SWAP1 PUSH2 0x25F5 SWAP2 SWAP1 PUSH2 0x2688 JUMP JUMPDEST JUMPDEST POP JUMP JUMPDEST PUSH1 0x40 MLOAD DUP1 PUSH2 0x120 ADD PUSH1 0x40 MSTORE DUP1 PUSH1 0x60 DUP2 MSTORE PUSH1 0x20 ADD PUSH1 0x60 DUP2 MSTORE PUSH1 0x20 ADD PUSH1 0x60 DUP2 MSTORE PUSH1 0x20 ADD PUSH0 DUP1 NOT AND DUP2 MSTORE PUSH1 0x20 ADD PUSH0 DUP2 MSTORE PUSH1 0x20 ADD PUSH0 DUP2 MSTORE PUSH1 0x20 ADD PUSH0 PUSH20 0xFFFFFFFFFFFFFFFFFFFFFFFFFFFFFFFFFFFFFFFF AND DUP2 MSTORE PUSH1 0x20 ADD PUSH1 0x60 DUP2 MSTORE PUSH1 0x20 ADD PUSH1 0x60 DUP2 MSTORE POP SWAP1 JUMP JUMPDEST PUSH1 0x40 MLOAD DUP1 PUSH1 0x40 ADD PUSH1 0x40 MSTORE DUP1 PUSH0 PUSH20 0xFFFFFFFFFFFFFFFFFFFFFFFFFFFFFFFFFFFFFFFF AND DUP2 MSTORE PUSH1 0x20 ADD PUSH0 DUP2 MSTORE POP SWAP1 JUMP JUMPDEST JUMPDEST DUP1 DUP3 GT ISZERO PUSH2 0x269F JUMPI PUSH0 DUP2 PUSH0 SWAP1 SSTORE POP PUSH1 0x1 ADD PUSH2 0x2689 JUMP JUMPDEST POP SWAP1 JUMP JUMPDEST PUSH0 PUSH1 0x40 MLOAD SWAP1 POP SWAP1 JUMP JUMPDEST PUSH0 DUP1 REVERT JUMPDEST PUSH0 DUP1 REVERT JUMPDEST PUSH0 PUSH20 0xFFFFFFFFFFFFFFFFFFFFFFFFFFFFFFFFFFFFFFFF DUP3 AND SWAP1 POP SWAP2 SWAP1 POP JUMP JUMPDEST PUSH0 PUSH2 0x26DD DUP3 PUSH2 0x26B4 JUMP JUMPDEST SWAP1 POP SWAP2 SWAP1 POP JUMP JUMPDEST PUSH2 0x26ED DUP2 PUSH2 0x26D3 JUMP JUMPDEST DUP2 EQ PUSH2 0x26F7 JUMPI PUSH0 DUP1 REVERT JUMPDEST POP JUMP JUMPDEST PUSH0 DUP2 CALLDATALOAD SWAP1 POP PUSH2 0x2708 DUP2 PUSH2 0x26E4 JUMP JUMPDEST SWAP3 SWAP2 POP POP JUMP JUMPDEST PUSH0 DUP2 SWAP1 POP SWAP2 SWAP1 POP JUMP JUMPDEST PUSH2 0x2720 DUP2 PUSH2 0x270E JUMP JUMPDEST DUP2 EQ PUSH2 0x272A JUMPI PUSH0 DUP1 REVERT JUMPDEST POP JUMP JUMPDEST PUSH0 DUP2 CALLDATALOAD SWAP1 POP PUSH2 0x273B DUP2 PUSH2 0x2717 JUMP JUMPDEST SWAP3 SWAP2 POP POP JUMP JUMPDEST PUSH0 DUP1 PUSH1 0x40 DUP4 DUP6 SUB SLT ISZERO PUSH2 0x2757 JUMPI PUSH2 0x2756 PUSH2 0x26AC JUMP JUMPDEST JUMPDEST PUSH0 PUSH2 0x2764 DUP6 DUP3 DUP7 ADD PUSH2 0x26FA JUMP JUMPDEST SWAP3 POP POP PUSH1 0x20 PUSH2 0x2775 DUP6 DUP3 DUP7 ADD PUSH2 0x272D JUMP JUMPDEST SWAP2 POP POP SWAP3 POP SWAP3 SWAP1 POP JUMP JUMPDEST PUSH0 PUSH1 0x20 DUP3 DUP5 SUB SLT ISZERO PUSH2 0x2794 JUMPI PUSH2 0x2793 PUSH2 0x26AC JUMP JUMPDEST JUMPDEST PUSH0 PUSH2 0x27A1 DUP5 DUP3 DUP6 ADD PUSH2 0x26FA JUMP JUMPDEST SWAP2 POP POP SWAP3 SWAP2 POP POP JUMP JUMPDEST PUSH2 0x27B3 DUP2 PUSH2 0x26D3 JUMP JUMPDEST DUP3 MSTORE POP POP JUMP JUMPDEST PUSH2 0x27C2 DUP2 PUSH2 0x270E JUMP JUMPDEST DUP3 MSTORE POP POP JUMP JUMPDEST PUSH0 PUSH1 0x40 DUP3 ADD SWAP1 POP PUSH2 0x27DB PUSH0 DUP4 ADD DUP6 PUSH2 0x27AA JUMP JUMPDEST PUSH2 0x27E8 PUSH1 0x20 DUP4 ADD DUP5 PUSH2 0x27B9 JUMP JUMPDEST SWAP4 SWAP3 POP POP POP JUMP JUMPDEST PUSH0 DUP1 REVERT JUMPDEST PUSH0 PUSH1 0x1F NOT PUSH1 0x1F DUP4 ADD AND SWAP1 POP SWAP2 SWAP1 POP JUMP JUMPDEST PUSH32 0x4E487B7100000000000000000000000000000000000000000000000000000000 PUSH0 MSTORE PUSH1 0x41 PUSH1 0x4 MSTORE PUSH1 0x24 PUSH0 REVERT JUMPDEST PUSH2 0x2839 DUP3 PUSH2 0x27F3 JUMP JUMPDEST DUP2 ADD DUP2 DUP2 LT PUSH8 0xFFFFFFFFFFFFFFFF DUP3 GT OR ISZERO PUSH2 0x2858 JUMPI PUSH2 0x2857 PUSH2 0x2803 JUMP JUMPDEST JUMPDEST DUP1 PUSH1 0x40 MSTORE POP POP POP JUMP JUMPDEST PUSH0 PUSH2 0x286A PUSH2 0x26A3 JUMP JUMPDEST SWAP1 POP PUSH2 0x2876 DUP3 DUP3 PUSH2 0x2830 JUMP JUMPDEST SWAP2 SWAP1 POP JUMP JUMPDEST PUSH0 PUSH8 0xFFFFFFFFFFFFFFFF DUP3 GT ISZERO PUSH2 0x2895 JUMPI PUSH2 0x2894 PUSH2 0x2803 JUMP JUMPDEST JUMPDEST PUSH1 0x20 DUP3 MUL SWAP1 POP PUSH1 0x20 DUP2 ADD SWAP1 POP SWAP2 SWAP1 POP JUMP JUMPDEST PUSH0 DUP1 REVERT JUMPDEST PUSH0 DUP1 REVERT JUMPDEST PUSH0 PUSH8 0xFFFFFFFFFFFFFFFF DUP3 GT ISZERO PUSH2 0x28C8 JUMPI PUSH2 0x28C7 PUSH2 0x2803 JUMP JUMPDEST JUMPDEST PUSH2 0x28D1 DUP3 PUSH2 0x27F3 JUMP JUMPDEST SWAP1 POP PUSH1 0x20 DUP2 ADD SWAP1 POP SWAP2 SWAP1 POP JUMP JUMPDEST DUP3 DUP2 DUP4 CALLDATACOPY PUSH0 DUP4 DUP4 ADD MSTORE POP POP POP JUMP JUMPDEST PUSH0 PUSH2 0x28FE PUSH2 0x28F9 DUP5 PUSH2 0x28AE JUMP JUMPDEST PUSH2 0x2861 JUMP JUMPDEST SWAP1 POP DUP3 DUP2 MSTORE PUSH1 0x20 DUP2 ADD DUP5 DUP5 DUP5 ADD GT ISZERO PUSH2 0x291A JUMPI PUSH2 0x2919 PUSH2 0x28AA JUMP JUMPDEST JUMPDEST PUSH2 0x2925 DUP5 DUP3 DUP6 PUSH2 0x28DE JUMP JUMPDEST POP SWAP4 SWAP3 POP POP POP JUMP JUMPDEST PUSH0 DUP3 PUSH1 0x1F DUP4 ADD SLT PUSH2 0x2941 JUMPI PUSH2 0x2940 PUSH2 0x27EF JUMP JUMPDEST JUMPDEST DUP2 CALLDATALOAD PUSH2 0x2951 DUP5 DUP3 PUSH1 0x20 DUP7 ADD PUSH2 0x28EC JUMP JUMPDEST SWAP2 POP POP SWAP3 SWAP2 POP POP JUMP JUMPDEST PUSH0 PUSH2 0x296C PUSH2 0x2967 DUP5 PUSH2 0x287B JUMP JUMPDEST PUSH2 0x2861 JUMP JUMPDEST SWAP1 POP DUP1 DUP4 DUP3 MSTORE PUSH1 0x20 DUP3 ADD SWAP1 POP PUSH1 0x20 DUP5 MUL DUP4 ADD DUP6 DUP2 GT ISZERO PUSH2 0x298F JUMPI PUSH2 0x298E PUSH2 0x28A6 JUMP JUMPDEST JUMPDEST DUP4 JUMPDEST DUP2 DUP2 LT ISZERO PUSH2 0x29D6 JUMPI DUP1 CALLDATALOAD PUSH8 0xFFFFFFFFFFFFFFFF DUP2 GT ISZERO PUSH2 0x29B4 JUMPI PUSH2 0x29B3 PUSH2 0x27EF JUMP JUMPDEST JUMPDEST DUP1 DUP7 ADD PUSH2 0x29C1 DUP10 DUP3 PUSH2 0x292D JUMP JUMPDEST DUP6 MSTORE PUSH1 0x20 DUP6 ADD SWAP5 POP POP POP PUSH1 0x20 DUP2 ADD SWAP1 POP PUSH2 0x2991 JUMP JUMPDEST POP POP POP SWAP4 SWAP3 POP POP POP JUMP JUMPDEST PUSH0 DUP3 PUSH1 0x1F DUP4 ADD SLT PUSH2 0x29F4 JUMPI PUSH2 0x29F3 PUSH2 0x27EF JUMP JUMPDEST JUMPDEST DUP2 CALLDATALOAD PUSH2 0x2A04 DUP5 DUP3 PUSH1 0x20 DUP7 ADD PUSH2 0x295A JUMP JUMPDEST SWAP2 POP POP SWAP3 SWAP2 POP POP JUMP JUMPDEST PUSH0 PUSH1 0x20 DUP3 DUP5 SUB SLT ISZERO PUSH2 0x2A22 JUMPI PUSH2 0x2A21 PUSH2 0x26AC JUMP JUMPDEST JUMPDEST PUSH0 DUP3 ADD CALLDATALOAD PUSH8 0xFFFFFFFFFFFFFFFF DUP2 GT ISZERO PUSH2 0x2A3F JUMPI PUSH2 0x2A3E PUSH2 0x26B0 JUMP JUMPDEST JUMPDEST PUSH2 0x2A4B DUP5 DUP3 DUP6 ADD PUSH2 0x29E0 JUMP JUMPDEST SWAP2 POP POP SWAP3 SWAP2 POP POP JUMP JUMPDEST PUSH0 DUP2 SWAP1 POP SWAP2 SWAP1 POP JUMP JUMPDEST PUSH2 0x2A66 DUP2 PUSH2 0x2A54 JUMP JUMPDEST DUP3 MSTORE POP POP JUMP JUMPDEST PUSH0 PUSH1 0x20 DUP3 ADD SWAP1 POP PUSH2 0x2A7F PUSH0 DUP4 ADD DUP5 PUSH2 0x2A5D JUMP JUMPDEST SWAP3 SWAP2 POP POP JUMP JUMPDEST PUSH0 DUP1 PUSH1 0x40 DUP4 DUP6 SUB SLT ISZERO PUSH2 0x2A9B JUMPI PUSH2 0x2A9A PUSH2 0x26AC JUMP JUMPDEST JUMPDEST PUSH0 PUSH2 0x2AA8 DUP6 DUP3 DUP7 ADD PUSH2 0x26FA JUMP JUMPDEST SWAP3 POP POP PUSH1 0x20 DUP4 ADD CALLDATALOAD PUSH8 0xFFFFFFFFFFFFFFFF DUP2 GT ISZERO PUSH2 0x2AC9 JUMPI PUSH2 0x2AC8 PUSH2 0x26B0 JUMP JUMPDEST JUMPDEST PUSH2 0x2AD5 DUP6 DUP3 DUP7 ADD PUSH2 0x292D JUMP JUMPDEST SWAP2 POP POP SWAP3 POP SWAP3 SWAP1 POP JUMP JUMPDEST PUSH0 DUP2 MLOAD SWAP1 POP SWAP2 SWAP1 POP JUMP JUMPDEST PUSH0 DUP3 DUP3 MSTORE PUSH1 0x20 DUP3 ADD SWAP1 POP SWAP3 SWAP2 POP POP JUMP JUMPDEST PUSH0 JUMPDEST DUP4 DUP2 LT ISZERO PUSH2 0x2B16 JUMPI DUP1 DUP3 ADD MLOAD DUP2 DUP5 ADD MSTORE PUSH1 0x20 DUP2 ADD SWAP1 POP PUSH2 0x2AFB JUMP JUMPDEST PUSH0 DUP5 DUP5 ADD MSTORE POP POP POP POP JUMP JUMPDEST PUSH0 PUSH2 0x2B2B DUP3 PUSH2 0x2ADF JUMP JUMPDEST PUSH2 0x2B35 DUP2 DUP6 PUSH2 0x2AE9 JUMP JUMPDEST SWAP4 POP PUSH2 0x2B45 DUP2 DUP6 PUSH1 0x20 DUP7 ADD PUSH2 0x2AF9 JUMP JUMPDEST PUSH2 0x2B4E DUP2 PUSH2 0x27F3 JUMP JUMPDEST DUP5 ADD SWAP2 POP POP SWAP3 SWAP2 POP POP JUMP JUMPDEST PUSH0 PUSH1 0x20 DUP3 ADD SWAP1 POP DUP2 DUP2 SUB PUSH0 DUP4 ADD MSTORE PUSH2 0x2B71 DUP2 DUP5 PUSH2 0x2B21 JUMP JUMPDEST SWAP1 POP SWAP3 SWAP2 POP POP JUMP JUMPDEST PUSH2 0x2B82 DUP2 PUSH2 0x2A54 JUMP JUMPDEST DUP2 EQ PUSH2 0x2B8C JUMPI PUSH0 DUP1 REVERT JUMPDEST POP JUMP JUMPDEST PUSH0 DUP2 CALLDATALOAD SWAP1 POP PUSH2 0x2B9D DUP2 PUSH2 0x2B79 JUMP JUMPDEST SWAP3 SWAP2 POP POP JUMP JUMPDEST PUSH0 PUSH8 0xFFFFFFFFFFFFFFFF DUP3 GT ISZERO PUSH2 0x2BBD JUMPI PUSH2 0x2BBC PUSH2 0x2803 JUMP JUMPDEST JUMPDEST PUSH1 0x20 DUP3 MUL SWAP1 POP PUSH1 0x20 DUP2 ADD SWAP1 POP SWAP2 SWAP1 POP JUMP JUMPDEST PUSH0 PUSH2 0x2BE0 PUSH2 0x2BDB DUP5 PUSH2 0x2BA3 JUMP JUMPDEST PUSH2 0x2861 JUMP JUMPDEST SWAP1 POP DUP1 DUP4 DUP3 MSTORE PUSH1 0x20 DUP3 ADD SWAP1 POP PUSH1 0x20 DUP5 MUL DUP4 ADD DUP6 DUP2 GT ISZERO PUSH2 0x2C03 JUMPI PUSH2 0x2C02 PUSH2 0x28A6 JUMP JUMPDEST JUMPDEST DUP4 JUMPDEST DUP2 DUP2 LT ISZERO PUSH2 0x2C2C JUMPI DUP1 PUSH2 0x2C18 DUP9 DUP3 PUSH2 0x26FA JUMP JUMPDEST DUP5 MSTORE PUSH1 0x20 DUP5 ADD SWAP4 POP POP PUSH1 0x20 DUP2 ADD SWAP1 POP PUSH2 0x2C05 JUMP JUMPDEST POP POP POP SWAP4 SWAP3 POP POP POP JUMP JUMPDEST PUSH0 DUP3 PUSH1 0x1F DUP4 ADD SLT PUSH2 0x2C4A JUMPI PUSH2 0x2C49 PUSH2 0x27EF JUMP JUMPDEST JUMPDEST DUP2 CALLDATALOAD PUSH2 0x2C5A DUP5 DUP3 PUSH1 0x20 DUP7 ADD PUSH2 0x2BCE JUMP JUMPDEST SWAP2 POP POP SWAP3 SWAP2 POP POP JUMP JUMPDEST PUSH0 DUP1 PUSH0 DUP1 PUSH0 DUP1 PUSH0 PUSH1 0xE0 DUP9 DUP11 SUB SLT ISZERO PUSH2 0x2C7E JUMPI PUSH2 0x2C7D PUSH2 0x26AC JUMP JUMPDEST JUMPDEST PUSH0 DUP9 ADD CALLDATALOAD PUSH8 0xFFFFFFFFFFFFFFFF DUP2 GT ISZERO PUSH2 0x2C9B JUMPI PUSH2 0x2C9A PUSH2 0x26B0 JUMP JUMPDEST JUMPDEST PUSH2 0x2CA7 DUP11 DUP3 DUP12 ADD PUSH2 0x292D JUMP JUMPDEST SWAP8 POP POP PUSH1 0x20 DUP9 ADD CALLDATALOAD PUSH8 0xFFFFFFFFFFFFFFFF DUP2 GT ISZERO PUSH2 0x2CC8 JUMPI PUSH2 0x2CC7 PUSH2 0x26B0 JUMP JUMPDEST JUMPDEST PUSH2 0x2CD4 DUP11 DUP3 DUP12 ADD PUSH2 0x292D JUMP JUMPDEST SWAP7 POP POP PUSH1 0x40 PUSH2 0x2CE5 DUP11 DUP3 DUP12 ADD PUSH2 0x2B8F JUMP JUMPDEST SWAP6 POP POP PUSH1 0x60 DUP9 ADD CALLDATALOAD PUSH8 0xFFFFFFFFFFFFFFFF DUP2 GT ISZERO PUSH2 0x2D06 JUMPI PUSH2 0x2D05 PUSH2 0x26B0 JUMP JUMPDEST JUMPDEST PUSH2 0x2D12 DUP11 DUP3 DUP12 ADD PUSH2 0x292D JUMP JUMPDEST SWAP5 POP POP PUSH1 0x80 DUP9 ADD CALLDATALOAD PUSH8 0xFFFFFFFFFFFFFFFF DUP2 GT ISZERO PUSH2 0x2D33 JUMPI PUSH2 0x2D32 PUSH2 0x26B0 JUMP JUMPDEST JUMPDEST PUSH2 0x2D3F DUP11 DUP3 DUP12 ADD PUSH2 0x2C36 JUMP JUMPDEST SWAP4 POP POP PUSH1 0xA0 DUP9 ADD CALLDATALOAD PUSH8 0xFFFFFFFFFFFFFFFF DUP2 GT ISZERO PUSH2 0x2D60 JUMPI PUSH2 0x2D5F PUSH2 0x26B0 JUMP JUMPDEST JUMPDEST PUSH2 0x2D6C DUP11 DUP3 DUP12 ADD PUSH2 0x292D JUMP JUMPDEST SWAP3 POP POP PUSH1 0xC0 PUSH2 0x2D7D DUP11 DUP3 DUP12 ADD PUSH2 0x272D JUMP JUMPDEST SWAP2 POP POP SWAP3 SWAP6 SWAP9 SWAP2 SWAP5 SWAP8 POP SWAP3 SWAP6 POP JUMP JUMPDEST PUSH0 DUP1 PUSH0 DUP1 PUSH0 DUP1 PUSH1 0xC0 DUP8 DUP10 SUB SLT ISZERO PUSH2 0x2DA6 JUMPI PUSH2 0x2DA5 PUSH2 0x26AC JUMP JUMPDEST JUMPDEST PUSH0 DUP8 ADD CALLDATALOAD PUSH8 0xFFFFFFFFFFFFFFFF DUP2 GT ISZERO PUSH2 0x2DC3 JUMPI PUSH2 0x2DC2 PUSH2 0x26B0 JUMP JUMPDEST JUMPDEST PUSH2 0x2DCF DUP10 DUP3 DUP11 ADD PUSH2 0x29E0 JUMP JUMPDEST SWAP7 POP POP PUSH1 0x20 DUP8 ADD CALLDATALOAD PUSH8 0xFFFFFFFFFFFFFFFF DUP2 GT ISZERO PUSH2 0x2DF0 JUMPI PUSH2 0x2DEF PUSH2 0x26B0 JUMP JUMPDEST JUMPDEST PUSH2 0x2DFC DUP10 DUP3 DUP11 ADD PUSH2 0x292D JUMP JUMPDEST SWAP6 POP POP PUSH1 0x40 DUP8 ADD CALLDATALOAD PUSH8 0xFFFFFFFFFFFFFFFF DUP2 GT ISZERO PUSH2 0x2E1D JUMPI PUSH2 0x2E1C PUSH2 0x26B0 JUMP JUMPDEST JUMPDEST PUSH2 0x2E29 DUP10 DUP3 DUP11 ADD PUSH2 0x292D JUMP JUMPDEST SWAP5 POP POP PUSH1 0x60 DUP8 ADD CALLDATALOAD PUSH8 0xFFFFFFFFFFFFFFFF DUP2 GT ISZERO PUSH2 0x2E4A JUMPI PUSH2 0x2E49 PUSH2 0x26B0 JUMP JUMPDEST JUMPDEST PUSH2 0x2E56 DUP10 DUP3 DUP11 ADD PUSH2 0x292D JUMP JUMPDEST SWAP4 POP POP PUSH1 0x80 DUP8 ADD CALLDATALOAD PUSH8 0xFFFFFFFFFFFFFFFF DUP2 GT ISZERO PUSH2 0x2E77 JUMPI PUSH2 0x2E76 PUSH2 0x26B0 JUMP JUMPDEST JUMPDEST PUSH2 0x2E83 DUP10 DUP3 DUP11 ADD PUSH2 0x292D JUMP JUMPDEST SWAP3 POP POP PUSH1 0xA0 PUSH2 0x2E94 DUP10 DUP3 DUP11 ADD PUSH2 0x272D JUMP JUMPDEST SWAP2 POP POP SWAP3 SWAP6 POP SWAP3 SWAP6 POP SWAP3 SWAP6 JUMP JUMPDEST PUSH0 DUP2 MLOAD SWAP1 POP SWAP2 SWAP1 POP JUMP JUMPDEST PUSH0 DUP3 DUP3 MSTORE PUSH1 0x20 DUP3 ADD SWAP1 POP SWAP3 SWAP2 POP POP JUMP JUMPDEST PUSH0 DUP2 SWAP1 POP PUSH1 0x20 DUP3 ADD SWAP1 POP SWAP2 SWAP1 POP JUMP JUMPDEST PUSH2 0x2ED3 DUP2 PUSH2 0x26D3 JUMP JUMPDEST DUP3 MSTORE POP POP JUMP JUMPDEST PUSH0 PUSH2 0x2EE4 DUP4 DUP4 PUSH2 0x2ECA JUMP JUMPDEST PUSH1 0x20 DUP4 ADD SWAP1 POP SWAP3 SWAP2 POP POP JUMP JUMPDEST PUSH0 PUSH1 0x20 DUP3 ADD SWAP1 POP SWAP2 SWAP1 POP JUMP JUMPDEST PUSH0 PUSH2 0x2F06 DUP3 PUSH2 0x2EA1 JUMP JUMPDEST PUSH2 0x2F10 DUP2 DUP6 PUSH2 0x2EAB JUMP JUMPDEST SWAP4 POP PUSH2 0x2F1B DUP4 PUSH2 0x2EBB JUMP JUMPDEST DUP1 PUSH0 JUMPDEST DUP4 DUP2 LT ISZERO PUSH2 0x2F4B JUMPI DUP2 MLOAD PUSH2 0x2F32 DUP9 DUP3 PUSH2 0x2ED9 JUMP JUMPDEST SWAP8 POP PUSH2 0x2F3D DUP4 PUSH2 0x2EF0 JUMP JUMPDEST SWAP3 POP POP PUSH1 0x1 DUP2 ADD SWAP1 POP PUSH2 0x2F1E JUMP JUMPDEST POP DUP6 SWAP4 POP POP POP POP SWAP3 SWAP2 POP POP JUMP JUMPDEST PUSH0 PUSH1 0x20 DUP3 ADD SWAP1 POP DUP2 DUP2 SUB PUSH0 DUP4 ADD MSTORE PUSH2 0x2F70 DUP2 DUP5 PUSH2 0x2EFC JUMP JUMPDEST SWAP1 POP SWAP3 SWAP2 POP POP JUMP JUMPDEST PUSH0 PUSH1 0x20 DUP3 ADD SWAP1 POP PUSH2 0x2F8B PUSH0 DUP4 ADD DUP5 PUSH2 0x27B9 JUMP JUMPDEST SWAP3 SWAP2 POP POP JUMP JUMPDEST PUSH0 PUSH1 0x20 DUP3 DUP5 SUB SLT ISZERO PUSH2 0x2FA6 JUMPI PUSH2 0x2FA5 PUSH2 0x26AC JUMP JUMPDEST JUMPDEST PUSH0 PUSH2 0x2FB3 DUP5 DUP3 DUP6 ADD PUSH2 0x272D JUMP JUMPDEST SWAP2 POP POP SWAP3 SWAP2 POP POP JUMP JUMPDEST PUSH0 PUSH1 0x20 DUP3 ADD SWAP1 POP PUSH2 0x2FCF PUSH0 DUP4 ADD DUP5 PUSH2 0x27AA JUMP JUMPDEST SWAP3 SWAP2 POP POP JUMP JUMPDEST PUSH0 DUP1 PUSH1 0x40 DUP4 DUP6 SUB SLT ISZERO PUSH2 0x2FEB JUMPI PUSH2 0x2FEA PUSH2 0x26AC JUMP JUMPDEST JUMPDEST PUSH0 PUSH2 0x2FF8 DUP6 DUP3 DUP7 ADD PUSH2 0x2B8F JUMP JUMPDEST SWAP3 POP POP PUSH1 0x20 DUP4 ADD CALLDATALOAD PUSH8 0xFFFFFFFFFFFFFFFF DUP2 GT ISZERO PUSH2 0x3019 JUMPI PUSH2 0x3018 PUSH2 0x26B0 JUMP JUMPDEST JUMPDEST PUSH2 0x3025 DUP6 DUP3 DUP7 ADD PUSH2 0x292D JUMP JUMPDEST SWAP2 POP POP SWAP3 POP SWAP3 SWAP1 POP JUMP JUMPDEST PUSH0 PUSH1 0x20 DUP3 DUP5 SUB SLT ISZERO PUSH2 0x3044 JUMPI PUSH2 0x3043 PUSH2 0x26AC JUMP JUMPDEST JUMPDEST PUSH0 DUP3 ADD CALLDATALOAD PUSH8 0xFFFFFFFFFFFFFFFF DUP2 GT ISZERO PUSH2 0x3061 JUMPI PUSH2 0x3060 PUSH2 0x26B0 JUMP JUMPDEST JUMPDEST PUSH2 0x306D DUP5 DUP3 DUP6 ADD PUSH2 0x292D JUMP JUMPDEST SWAP2 POP POP SWAP3 SWAP2 POP POP JUMP JUMPDEST PUSH0 DUP3 DUP3 MSTORE PUSH1 0x20 DUP3 ADD SWAP1 POP SWAP3 SWAP2 POP POP JUMP JUMPDEST PUSH0 PUSH2 0x3090 DUP3 PUSH2 0x2ADF JUMP JUMPDEST PUSH2 0x309A DUP2 DUP6 PUSH2 0x3076 JUMP JUMPDEST SWAP4 POP PUSH2 0x30AA DUP2 DUP6 PUSH1 0x20 DUP7 ADD PUSH2 0x2AF9 JUMP JUMPDEST PUSH2 0x30B3 DUP2 PUSH2 0x27F3 JUMP JUMPDEST DUP5 ADD SWAP2 POP POP SWAP3 SWAP2 POP POP JUMP JUMPDEST PUSH2 0x30C7 DUP2 PUSH2 0x2A54 JUMP JUMPDEST DUP3 MSTORE POP POP JUMP JUMPDEST PUSH2 0x30D6 DUP2 PUSH2 0x270E JUMP JUMPDEST DUP3 MSTORE POP POP JUMP JUMPDEST PUSH0 DUP3 DUP3 MSTORE PUSH1 0x20 DUP3 ADD SWAP1 POP SWAP3 SWAP2 POP POP JUMP JUMPDEST PUSH0 PUSH2 0x30F6 DUP3 PUSH2 0x2EA1 JUMP JUMPDEST PUSH2 0x3100 DUP2 DUP6 PUSH2 0x30DC JUMP JUMPDEST SWAP4 POP PUSH2 0x310B DUP4 PUSH2 0x2EBB JUMP JUMPDEST DUP1 PUSH0 JUMPDEST DUP4 DUP2 LT ISZERO PUSH2 0x313B JUMPI DUP2 MLOAD PUSH2 0x3122 DUP9 DUP3 PUSH2 0x2ED9 JUMP JUMPDEST SWAP8 POP PUSH2 0x312D DUP4 PUSH2 0x2EF0 JUMP JUMPDEST SWAP3 POP POP PUSH1 0x1 DUP2 ADD SWAP1 POP PUSH2 0x310E JUMP JUMPDEST POP DUP6 SWAP4 POP POP POP POP SWAP3 SWAP2 POP POP JUMP JUMPDEST PUSH0 PUSH2 0x120 DUP4 ADD PUSH0 DUP4 ADD MLOAD DUP5 DUP3 SUB PUSH0 DUP7 ADD MSTORE PUSH2 0x3163 DUP3 DUP3 PUSH2 0x3086 JUMP JUMPDEST SWAP2 POP POP PUSH1 0x20 DUP4 ADD MLOAD DUP5 DUP3 SUB PUSH1 0x20 DUP7 ADD MSTORE PUSH2 0x317D DUP3 DUP3 PUSH2 0x3086 JUMP JUMPDEST SWAP2 POP POP PUSH1 0x40 DUP4 ADD MLOAD DUP5 DUP3 SUB PUSH1 0x40 DUP7 ADD MSTORE PUSH2 0x3197 DUP3 DUP3 PUSH2 0x3086 JUMP JUMPDEST SWAP2 POP POP PUSH1 0x60 DUP4 ADD MLOAD PUSH2 0x31AC PUSH1 0x60 DUP7 ADD DUP3 PUSH2 0x30BE JUMP JUMPDEST POP PUSH1 0x80 DUP4 ADD MLOAD PUSH2 0x31BF PUSH1 0x80 DUP7 ADD DUP3 PUSH2 0x30CD JUMP JUMPDEST POP PUSH1 0xA0 DUP4 ADD MLOAD PUSH2 0x31D2 PUSH1 0xA0 DUP7 ADD DUP3 PUSH2 0x30CD JUMP JUMPDEST POP PUSH1 0xC0 DUP4 ADD MLOAD PUSH2 0x31E5 PUSH1 0xC0 DUP7 ADD DUP3 PUSH2 0x2ECA JUMP JUMPDEST POP PUSH1 0xE0 DUP4 ADD MLOAD DUP5 DUP3 SUB PUSH1 0xE0 DUP7 ADD MSTORE PUSH2 0x31FD DUP3 DUP3 PUSH2 0x3086 JUMP JUMPDEST SWAP2 POP POP PUSH2 0x100 DUP4 ADD MLOAD DUP5 DUP3 SUB PUSH2 0x100 DUP7 ADD MSTORE PUSH2 0x3219 DUP3 DUP3 PUSH2 0x30EC JUMP JUMPDEST SWAP2 POP POP DUP1 SWAP2 POP POP SWAP3 SWAP2 POP POP JUMP JUMPDEST PUSH0 PUSH1 0x20 DUP3 ADD SWAP1 POP DUP2 DUP2 SUB PUSH0 DUP4 ADD MSTORE PUSH2 0x323E DUP2 DUP5 PUSH2 0x3148 JUMP JUMPDEST SWAP1 POP SWAP3 SWAP2 POP POP JUMP JUMPDEST PUSH0 DUP1 PUSH0 PUSH1 0x60 DUP5 DUP7 SUB SLT ISZERO PUSH2 0x325D JUMPI PUSH2 0x325C PUSH2 0x26AC JUMP JUMPDEST JUMPDEST PUSH0 PUSH2 0x326A DUP7 DUP3 DUP8 ADD PUSH2 0x26FA JUMP JUMPDEST SWAP4 POP POP PUSH1 0x20 DUP5 ADD CALLDATALOAD PUSH8 0xFFFFFFFFFFFFFFFF DUP2 GT ISZERO PUSH2 0x328B JUMPI PUSH2 0x328A PUSH2 0x26B0 JUMP JUMPDEST JUMPDEST PUSH2 0x3297 DUP7 DUP3 DUP8 ADD PUSH2 0x292D JUMP JUMPDEST SWAP3 POP POP PUSH1 0x40 DUP5 ADD CALLDATALOAD PUSH8 0xFFFFFFFFFFFFFFFF DUP2 GT ISZERO PUSH2 0x32B8 JUMPI PUSH2 0x32B7 PUSH2 0x26B0 JUMP JUMPDEST JUMPDEST PUSH2 0x32C4 DUP7 DUP3 DUP8 ADD PUSH2 0x292D JUMP JUMPDEST SWAP2 POP POP SWAP3 POP SWAP3 POP SWAP3 JUMP JUMPDEST PUSH1 0x40 DUP3 ADD PUSH0 DUP3 ADD MLOAD PUSH2 0x32E2 PUSH0 DUP6 ADD DUP3 PUSH2 0x2ECA JUMP JUMPDEST POP PUSH1 0x20 DUP3 ADD MLOAD PUSH2 0x32F5 PUSH1 0x20 DUP6 ADD DUP3 PUSH2 0x30CD JUMP JUMPDEST POP POP POP POP JUMP JUMPDEST PUSH0 PUSH1 0x40 DUP3 ADD SWAP1 POP PUSH2 0x330E PUSH0 DUP4 ADD DUP5 PUSH2 0x32CE JUMP JUMPDEST SWAP3 SWAP2 POP POP JUMP JUMPDEST PUSH32 0x4E6F646520616C72656164792065786973747300000000000000000000000000 PUSH0 DUP3 ADD MSTORE POP JUMP JUMPDEST PUSH0 PUSH2 0x3348 PUSH1 0x13 DUP4 PUSH2 0x2AE9 JUMP JUMPDEST SWAP2 POP PUSH2 0x3353 DUP3 PUSH2 0x3314 JUMP JUMPDEST PUSH1 0x20 DUP3 ADD SWAP1 POP SWAP2 SWAP1 POP JUMP JUMPDEST PUSH0 PUSH1 0x20 DUP3 ADD SWAP1 POP DUP2 DUP2 SUB PUSH0 DUP4 ADD MSTORE PUSH2 0x3375 DUP2 PUSH2 0x333C JUMP JUMPDEST SWAP1 POP SWAP2 SWAP1 POP JUMP JUMPDEST PUSH32 0x4E487B7100000000000000000000000000000000000000000000000000000000 PUSH0 MSTORE PUSH1 0x32 PUSH1 0x4 MSTORE PUSH1 0x24 PUSH0 REVERT JUMPDEST PUSH0 DUP2 MLOAD SWAP1 POP SWAP2 SWAP1 POP JUMP JUMPDEST PUSH0 DUP2 SWAP1 POP SWAP3 SWAP2 POP POP JUMP JUMPDEST PUSH0 PUSH2 0x33C7 DUP3 PUSH2 0x33A9 JUMP JUMPDEST PUSH2 0x33D1 DUP2 DUP6 PUSH2 0x33B3 JUMP JUMPDEST SWAP4 POP PUSH2 0x33E1 DUP2 DUP6 PUSH1 0x20 DUP7 ADD PUSH2 0x2AF9 JUMP JUMPDEST DUP1 DUP5 ADD SWAP2 POP POP SWAP3 SWAP2 POP POP JUMP JUMPDEST PUSH0 DUP2 SWAP1 POP SWAP3 SWAP2 POP POP JUMP JUMPDEST PUSH0 PUSH2 0x3401 DUP3 PUSH2 0x2ADF JUMP JUMPDEST PUSH2 0x340B DUP2 DUP6 PUSH2 0x33ED JUMP JUMPDEST SWAP4 POP PUSH2 0x341B DUP2 DUP6 PUSH1 0x20 DUP7 ADD PUSH2 0x2AF9 JUMP JUMPDEST DUP1 DUP5 ADD SWAP2 POP POP SWAP3 SWAP2 POP POP JUMP JUMPDEST PUSH0 PUSH2 0x3432 DUP3 DUP6 PUSH2 0x33BD JUMP JUMPDEST SWAP2 POP PUSH2 0x343E DUP3 DUP5 PUSH2 0x33F7 JUMP JUMPDEST SWAP2 POP DUP2 SWAP1 POP SWAP4 SWAP3 POP POP POP JUMP JUMPDEST PUSH32 0x4E6F646520646F6573206E6F7420657869737400000000000000000000000000 PUSH0 DUP3 ADD MSTORE POP JUMP JUMPDEST PUSH0 PUSH2 0x347E PUSH1 0x13 DUP4 PUSH2 0x2AE9 JUMP JUMPDEST SWAP2 POP PUSH2 0x3489 DUP3 PUSH2 0x344A JUMP JUMPDEST PUSH1 0x20 DUP3 ADD SWAP1 POP SWAP2 SWAP1 POP JUMP JUMPDEST PUSH0 PUSH1 0x20 DUP3 ADD SWAP1 POP DUP2 DUP2 SUB PUSH0 DUP4 ADD MSTORE PUSH2 0x34AB DUP2 PUSH2 0x3472 JUMP JUMPDEST SWAP1 POP SWAP2 SWAP1 POP JUMP JUMPDEST PUSH0 PUSH2 0x34BD DUP3 DUP5 PUSH2 0x33F7 JUMP JUMPDEST SWAP2 POP DUP2 SWAP1 POP SWAP3 SWAP2 POP POP JUMP JUMPDEST PUSH32 0x4E487B7100000000000000000000000000000000000000000000000000000000 PUSH0 MSTORE PUSH1 0x22 PUSH1 0x4 MSTORE PUSH1 0x24 PUSH0 REVERT JUMPDEST PUSH0 PUSH1 0x2 DUP3 DIV SWAP1 POP PUSH1 0x1 DUP3 AND DUP1 PUSH2 0x350C JUMPI PUSH1 0x7F DUP3 AND SWAP2 POP JUMPDEST PUSH1 0x20 DUP3 LT DUP2 SUB PUSH2 0x351F JUMPI PUSH2 0x351E PUSH2 0x34C8 JUMP JUMPDEST JUMPDEST POP SWAP2 SWAP1 POP JUMP JUMPDEST PUSH0 DUP2 SWAP1 POP DUP2 PUSH0 MSTORE PUSH1 0x20 PUSH0 KECCAK256 SWAP1 POP SWAP2 SWAP1 POP JUMP JUMPDEST PUSH0 PUSH1 0x20 PUSH1 0x1F DUP4 ADD DIV SWAP1 POP SWAP2 SWAP1 POP JUMP JUMPDEST PUSH0 DUP3 DUP3 SHL SWAP1 POP SWAP3 SWAP2 POP POP JUMP JUMPDEST PUSH0 PUSH1 0x8 DUP4 MUL PUSH2 0x3581 PUSH32 0xFFFFFFFFFFFFFFFFFFFFFFFFFFFFFFFFFFFFFFFFFFFFFFFFFFFFFFFFFFFFFFFF DUP3 PUSH2 0x3546 JUMP JUMPDEST PUSH2 0x358B DUP7 DUP4 PUSH2 0x3546 JUMP JUMPDEST SWAP6 POP DUP1 NOT DUP5 AND SWAP4 POP DUP1 DUP7 AND DUP5 OR SWAP3 POP POP POP SWAP4 SWAP3 POP POP POP JUMP JUMPDEST PUSH0 DUP2 SWAP1 POP SWAP2 SWAP1 POP JUMP JUMPDEST PUSH0 PUSH2 0x35C6 PUSH2 0x35C1 PUSH2 0x35BC DUP5 PUSH2 0x270E JUMP JUMPDEST PUSH2 0x35A3 JUMP JUMPDEST PUSH2 0x270E JUMP JUMPDEST SWAP1 POP SWAP2 SWAP1 POP JUMP JUMPDEST PUSH0 DUP2 SWAP1 POP SWAP2 SWAP1 POP JUMP JUMPDEST PUSH2 0x35DF DUP4 PUSH2 0x35AC JUMP JUMPDEST PUSH2 0x35F3 PUSH2 0x35EB DUP3 PUSH2 0x35CD JUMP JUMPDEST DUP5 DUP5 SLOAD PUSH2 0x3552 JUMP JUMPDEST DUP3 SSTORE POP POP POP POP JUMP JUMPDEST PUSH0 SWAP1 JUMP JUMPDEST PUSH2 0x3607 PUSH2 0x35FB JUMP JUMPDEST PUSH2 0x3612 DUP2 DUP5 DUP5 PUSH2 0x35D6 JUMP JUMPDEST POP POP POP JUMP JUMPDEST JUMPDEST DUP2 DUP2 LT ISZERO PUSH2 0x3635 JUMPI PUSH2 0x362A PUSH0 DUP3 PUSH2 0x35FF JUMP JUMPDEST PUSH1 0x1 DUP2 ADD SWAP1 POP PUSH2 0x3618 JUMP JUMPDEST POP POP JUMP JUMPDEST PUSH1 0x1F DUP3 GT ISZERO PUSH2 0x367A JUMPI PUSH2 0x364B DUP2 PUSH2 0x3525 JUMP JUMPDEST PUSH2 0x3654 DUP5 PUSH2 0x3537 JUMP JUMPDEST DUP2 ADD PUSH1 0x20 DUP6 LT ISZERO PUSH2 0x3663 JUMPI DUP2 SWAP1 POP JUMPDEST PUSH2 0x3677 PUSH2 0x366F DUP6 PUSH2 0x3537 JUMP JUMPDEST DUP4 ADD DUP3 PUSH2 0x3617 JUMP JUMPDEST POP POP JUMPDEST POP POP POP JUMP JUMPDEST PUSH0 DUP3 DUP3 SHR SWAP1 POP SWAP3 SWAP2 POP POP JUMP JUMPDEST PUSH0 PUSH2 0x369A PUSH0 NOT DUP5 PUSH1 0x8 MUL PUSH2 0x367F JUMP JUMPDEST NOT DUP1 DUP4 AND SWAP2 POP POP SWAP3 SWAP2 POP POP JUMP JUMPDEST PUSH0 PUSH2 0x36B2 DUP4 DUP4 PUSH2 0x368B JUMP JUMPDEST SWAP2 POP DUP3 PUSH1 0x2 MUL DUP3 OR SWAP1 POP SWAP3 SWAP2 POP POP JUMP JUMPDEST PUSH2 0x36CB DUP3 PUSH2 0x2ADF JUMP JUMPDEST PUSH8 0xFFFFFFFFFFFFFFFF DUP2 GT ISZERO PUSH2 0x36E4 JUMPI PUSH2 0x36E3 PUSH2 0x2803 JUMP JUMPDEST JUMPDEST PUSH2 0x36EE DUP3 SLOAD PUSH2 0x34F5 JUMP JUMPDEST PUSH2 0x36F9 DUP3 DUP3 DUP6 PUSH2 0x3639 JUMP JUMPDEST PUSH0 PUSH1 0x20 SWAP1 POP PUSH1 0x1F DUP4 GT PUSH1 0x1 DUP2 EQ PUSH2 0x372A JUMPI PUSH0 DUP5 ISZERO PUSH2 0x3718 JUMPI DUP3 DUP8 ADD MLOAD SWAP1 POP JUMPDEST PUSH2 0x3722 DUP6 DUP3 PUSH2 0x36A7 JUMP JUMPDEST DUP7 SSTORE POP PUSH2 0x3789 JUMP JUMPDEST PUSH1 0x1F NOT DUP5 AND PUSH2 0x3738 DUP7 PUSH2 0x3525 JUMP JUMPDEST PUSH0 JUMPDEST DUP3 DUP2 LT ISZERO PUSH2 0x375F JUMPI DUP5 DUP10 ADD MLOAD DUP3 SSTORE PUSH1 0x1 DUP3 ADD SWAP2 POP PUSH1 0x20 DUP6 ADD SWAP5 POP PUSH1 0x20 DUP2 ADD SWAP1 POP PUSH2 0x373A JUMP JUMPDEST DUP7 DUP4 LT ISZERO PUSH2 0x377C JUMPI DUP5 DUP10 ADD MLOAD PUSH2 0x3778 PUSH1 0x1F DUP10 AND DUP3 PUSH2 0x368B JUMP JUMPDEST DUP4 SSTORE POP JUMPDEST PUSH1 0x1 PUSH1 0x2 DUP9 MUL ADD DUP9 SSTORE POP POP POP JUMPDEST POP POP POP POP POP POP JUMP JUMPDEST PUSH0 PUSH2 0x100 DUP3 ADD SWAP1 POP DUP2 DUP2 SUB PUSH0 DUP4 ADD MSTORE PUSH2 0x37AA DUP2 DUP12 PUSH2 0x2B21 JUMP JUMPDEST SWAP1 POP DUP2 DUP2 SUB PUSH1 0x20 DUP4 ADD MSTORE PUSH2 0x37BE DUP2 DUP11 PUSH2 0x2B21 JUMP JUMPDEST SWAP1 POP DUP2 DUP2 SUB PUSH1 0x40 DUP4 ADD MSTORE PUSH2 0x37D2 DUP2 DUP10 PUSH2 0x2B21 JUMP JUMPDEST SWAP1 POP PUSH2 0x37E1 PUSH1 0x60 DUP4 ADD DUP9 PUSH2 0x2A5D JUMP JUMPDEST PUSH2 0x37EE PUSH1 0x80 DUP4 ADD DUP8 PUSH2 0x27B9 JUMP JUMPDEST PUSH2 0x37FB PUSH1 0xA0 DUP4 ADD DUP7 PUSH2 0x27B9 JUMP JUMPDEST PUSH2 0x3808 PUSH1 0xC0 DUP4 ADD DUP6 PUSH2 0x27AA JUMP JUMPDEST DUP2 DUP2 SUB PUSH1 0xE0 DUP4 ADD MSTORE PUSH2 0x381A DUP2 DUP5 PUSH2 0x2EFC JUMP JUMPDEST SWAP1 POP SWAP10 SWAP9 POP POP POP POP POP POP POP POP POP JUMP JUMPDEST PUSH32 0x4E487B7100000000000000000000000000000000000000000000000000000000 PUSH0 MSTORE PUSH1 0x11 PUSH1 0x4 MSTORE PUSH1 0x24 PUSH0 REVERT JUMPDEST PUSH0 PUSH2 0x3860 DUP3 PUSH2 0x270E JUMP JUMPDEST SWAP2 POP PUSH32 0xFFFFFFFFFFFFFFFFFFFFFFFFFFFFFFFFFFFFFFFFFFFFFFFFFFFFFFFFFFFFFFFF DUP3 SUB PUSH2 0x3892 JUMPI PUSH2 0x3891 PUSH2 0x3829 JUMP JUMPDEST JUMPDEST PUSH1 0x1 DUP3 ADD SWAP1 POP SWAP2 SWAP1 POP JUMP JUMPDEST PUSH32 0x4E6F20617661696C61626C65206E6F6465730000000000000000000000000000 PUSH0 DUP3 ADD MSTORE POP JUMP JUMPDEST PUSH0 PUSH2 0x38D1 PUSH1 0x12 DUP4 PUSH2 0x2AE9 JUMP JUMPDEST SWAP2 POP PUSH2 0x38DC DUP3 PUSH2 0x389D JUMP JUMPDEST PUSH1 0x20 DUP3 ADD SWAP1 POP SWAP2 SWAP1 POP JUMP JUMPDEST PUSH0 PUSH1 0x20 DUP3 ADD SWAP1 POP DUP2 DUP2 SUB PUSH0 DUP4 ADD MSTORE PUSH2 0x38FE DUP2 PUSH2 0x38C5 JUMP JUMPDEST SWAP1 POP SWAP2 SWAP1 POP JUMP JUMPDEST PUSH0 PUSH2 0x390F DUP3 PUSH2 0x270E JUMP JUMPDEST SWAP2 POP PUSH2 0x391A DUP4 PUSH2 0x270E JUMP JUMPDEST SWAP3 POP DUP3 DUP3 SUB SWAP1 POP DUP2 DUP2 GT ISZERO PUSH2 0x3932 JUMPI PUSH2 0x3931 PUSH2 0x3829 JUMP JUMPDEST JUMPDEST SWAP3 SWAP2 POP POP JUMP JUMPDEST PUSH32 0x4E487B7100000000000000000000000000000000000000000000000000000000 PUSH0 MSTORE PUSH1 0x12 PUSH1 0x4 MSTORE PUSH1 0x24 PUSH0 REVERT JUMPDEST PUSH0 PUSH2 0x396F DUP3 PUSH2 0x270E JUMP JUMPDEST SWAP2 POP PUSH2 0x397A DUP4 PUSH2 0x270E JUMP JUMPDEST SWAP3 POP DUP3 PUSH2 0x398A JUMPI PUSH2 0x3989 PUSH2 0x3938 JUMP JUMPDEST JUMPDEST DUP3 DUP3 MOD SWAP1 POP SWAP3 SWAP2 POP POP JUMP JUMPDEST PUSH0 PUSH2 0x399F DUP3 PUSH2 0x270E JUMP JUMPDEST SWAP2 POP PUSH2 0x39AA DUP4 PUSH2 0x270E JUMP JUMPDEST SWAP3 POP DUP3 DUP3 ADD SWAP1 POP DUP1 DUP3 GT ISZERO PUSH2 0x39C2 JUMPI PUSH2 0x39C1 PUSH2 0x3829 JUMP JUMPDEST JUMPDEST SWAP3 SWAP2 POP POP JUMP JUMPDEST PUSH32 0x496E76616C69642066696C652069640000000000000000000000000000000000 PUSH0 DUP3 ADD MSTORE POP JUMP JUMPDEST PUSH0 PUSH2 0x39FC PUSH1 0xF DUP4 PUSH2 0x2AE9 JUMP JUMPDEST SWAP2 POP PUSH2 0x3A07 DUP3 PUSH2 0x39C8 JUMP JUMPDEST PUSH1 0x20 DUP3 ADD SWAP1 POP SWAP2 SWAP1 POP JUMP JUMPDEST PUSH0 PUSH1 0x20 DUP3 ADD SWAP1 POP DUP2 DUP2 SUB PUSH0 DUP4 ADD MSTORE PUSH2 0x3A29 DUP2 PUSH2 0x39F0 JUMP JUMPDEST SWAP1 POP SWAP2 SWAP1 POP JUMP JUMPDEST PUSH32 0x4E487B7100000000000000000000000000000000000000000000000000000000 PUSH0 MSTORE PUSH1 0x31 PUSH1 0x4 MSTORE PUSH1 0x24 PUSH0 REVERT JUMPDEST PUSH0 PUSH1 0x40 DUP3 ADD SWAP1 POP PUSH2 0x3A70 PUSH0 DUP4 ADD DUP6 PUSH2 0x27AA JUMP JUMPDEST DUP2 DUP2 SUB PUSH1 0x20 DUP4 ADD MSTORE PUSH2 0x3A82 DUP2 DUP5 PUSH2 0x2B21 JUMP JUMPDEST SWAP1 POP SWAP4 SWAP3 POP POP POP JUMP INVALID LOG2 PUSH5 0x6970667358 0x22 SLT KECCAK256 GAS 0xCE LOG3 PUSH7 0x48EDBAF3E88C0D JUMP 0xCD PUSH18 0x987C6B566FE213C353E1FD57FE1189D6F09A PUSH5 0x736F6C6343 STOP ADDMOD AND STOP CALLER "
		},
		"gasEstimates": {
			"creation": {
				"codeDepositCost": "3008200",
				"executionCost": "71784",
				"totalCost": "3079984"
			},
			"external": {
				"addNode(address,uint256)": "infinite",
				"allNodes(uint256)": "5054",
				"createHash(string[])": "infinite",
				"deleteChunkInNode(address,string)": "infinite",
				"deleteFile(string)": "infinite",
				"findAvailableNode(uint256)": "infinite",
				"getAllNodes()": "infinite",
				"getNodeByAddress(address)": "infinite",
				"maxChunkSize()": "2513",
				"nodeChunks(address,string)": "infinite",
				"nodes(address)": "infinite",
				"numMaxChunksDuplication()": "2513",
				"owner()": "2553",
				"retrieveChunkInNode(address,string)": "infinite",
				"retrieveFileHash(string)": "infinite",
				"storeChunkInNode(address,string,string)": "infinite",
				"storeFile(string[],string,string,string,string,uint256)": "infinite",
				"storeFileHash(bytes32,string)": "infinite",
				"storeFileMetadata(string,string,bytes32,string,address[],string,uint256)": "infinite"
			},
			"internal": {
				"compareStrings(string memory,string memory)": "infinite",
				"isAddressPresent(address,address[] memory)": "infinite"
			}
		},
		"methodIdentifiers": {
			"addNode(address,uint256)": "11bd77fe",
			"allNodes(uint256)": "fe72ae13",
			"createHash(string[])": "196815d2",
			"deleteChunkInNode(address,string)": "50f1c985",
			"deleteFile(string)": "a9910054",
			"findAvailableNode(uint256)": "64f0c0b8",
			"getAllNodes()": "a1174e7d",
			"getNodeByAddress(address)": "a9860308",
			"maxChunkSize()": "cf86bf93",
			"nodeChunks(address,string)": "9e34c134",
			"nodes(address)": "189a5a17",
			"numMaxChunksDuplication()": "5ffd7c06",
			"owner()": "8da5cb5b",
			"retrieveChunkInNode(address,string)": "2a85be1e",
			"retrieveFileHash(string)": "92e2ade5",
			"storeChunkInNode(address,string,string)": "a0be4b1f",
			"storeFile(string[],string,string,string,string,uint256)": "528aecce",
			"storeFileHash(bytes32,string)": "67e9c8d1",
			"storeFileMetadata(string,string,bytes32,string,address[],string,uint256)": "390f1b71"
		}
	},
	"abi": [
		{
			"inputs": [],
			"stateMutability": "nonpayable",
			"type": "constructor"
		},
		{
			"anonymous": false,
			"inputs": [
				{
					"indexed": false,
					"internalType": "address",
					"name": "uploader",
					"type": "address"
				},
				{
					"indexed": false,
					"internalType": "string",
					"name": "fileId",
					"type": "string"
				}
			],
			"name": "FileRemoved",
			"type": "event"
		},
		{
			"anonymous": false,
			"inputs": [
				{
					"indexed": false,
					"internalType": "string",
					"name": "fileId",
					"type": "string"
				},
				{
					"indexed": false,
					"internalType": "string",
					"name": "fileName",
					"type": "string"
				},
				{
					"indexed": false,
					"internalType": "string",
					"name": "fileType",
					"type": "string"
				},
				{
					"indexed": false,
					"internalType": "bytes32",
					"name": "fileHash",
					"type": "bytes32"
				},
				{
					"indexed": false,
					"internalType": "uint256",
					"name": "fileSize",
					"type": "uint256"
				},
				{
					"indexed": false,
					"internalType": "uint256",
					"name": "uploadTime",
					"type": "uint256"
				},
				{
					"indexed": false,
					"internalType": "address",
					"name": "uploader",
					"type": "address"
				},
				{
					"indexed": false,
					"internalType": "address[]",
					"name": "fileStorageNodeAddress",
					"type": "address[]"
				}
			],
			"name": "FileUploaded",
			"type": "event"
		},
		{
			"anonymous": false,
			"inputs": [
				{
					"indexed": false,
					"internalType": "address",
					"name": "",
					"type": "address"
				}
			],
			"name": "logAddress",
			"type": "event"
		},
		{
			"anonymous": false,
			"inputs": [
				{
					"indexed": false,
					"internalType": "address",
					"name": "",
					"type": "address"
				}
			],
			"name": "logAddress2",
			"type": "event"
		},
		{
			"anonymous": false,
			"inputs": [
				{
					"indexed": false,
					"internalType": "uint256",
					"name": "",
					"type": "uint256"
				}
			],
			"name": "logNumber",
			"type": "event"
		},
		{
			"inputs": [
				{
					"internalType": "address",
					"name": "_nodeAddress",
					"type": "address"
				},
				{
					"internalType": "uint256",
					"name": "_initialStorage",
					"type": "uint256"
				}
			],
			"name": "addNode",
			"outputs": [],
			"stateMutability": "nonpayable",
			"type": "function"
		},
		{
			"inputs": [
				{
					"internalType": "uint256",
					"name": "",
					"type": "uint256"
				}
			],
			"name": "allNodes",
			"outputs": [
				{
					"internalType": "address",
					"name": "",
					"type": "address"
				}
			],
			"stateMutability": "view",
			"type": "function"
		},
		{
			"inputs": [
				{
					"internalType": "string[]",
					"name": "stringArray",
					"type": "string[]"
				}
			],
			"name": "createHash",
			"outputs": [
				{
					"internalType": "bytes32",
					"name": "",
					"type": "bytes32"
				}
			],
			"stateMutability": "pure",
			"type": "function"
		},
		{
			"inputs": [
				{
					"internalType": "address",
					"name": "_nodeAddress",
					"type": "address"
				},
				{
					"internalType": "string",
					"name": "_fileId",
					"type": "string"
				}
			],
			"name": "deleteChunkInNode",
			"outputs": [],
			"stateMutability": "nonpayable",
			"type": "function"
		},
		{
			"inputs": [
				{
					"internalType": "string",
					"name": "_fileId",
					"type": "string"
				}
			],
			"name": "deleteFile",
			"outputs": [],
			"stateMutability": "nonpayable",
			"type": "function"
		},
		{
			"inputs": [
				{
					"internalType": "uint256",
					"name": "_chunkSize",
					"type": "uint256"
				}
			],
			"name": "findAvailableNode",
			"outputs": [
				{
					"internalType": "address",
					"name": "",
					"type": "address"
				}
			],
			"stateMutability": "view",
			"type": "function"
		},
		{
			"inputs": [],
			"name": "getAllNodes",
			"outputs": [
				{
					"internalType": "address[]",
					"name": "",
					"type": "address[]"
				}
			],
			"stateMutability": "view",
			"type": "function"
		},
		{
			"inputs": [
				{
					"internalType": "address",
					"name": "_nodeAddress",
					"type": "address"
				}
			],
			"name": "getNodeByAddress",
			"outputs": [
				{
					"components": [
						{
							"internalType": "address",
							"name": "nodeAddress",
							"type": "address"
						},
						{
							"internalType": "uint256",
							"name": "availableStorage",
							"type": "uint256"
						}
					],
					"internalType": "struct NodeManager.Node",
					"name": "",
					"type": "tuple"
				}
			],
			"stateMutability": "view",
			"type": "function"
		},
		{
			"inputs": [],
			"name": "maxChunkSize",
			"outputs": [
				{
					"internalType": "uint256",
					"name": "",
					"type": "uint256"
				}
			],
			"stateMutability": "view",
			"type": "function"
		},
		{
			"inputs": [
				{
					"internalType": "address",
					"name": "",
					"type": "address"
				},
				{
					"internalType": "string",
					"name": "",
					"type": "string"
				}
			],
			"name": "nodeChunks",
			"outputs": [
				{
					"internalType": "string",
					"name": "",
					"type": "string"
				}
			],
			"stateMutability": "view",
			"type": "function"
		},
		{
			"inputs": [
				{
					"internalType": "address",
					"name": "",
					"type": "address"
				}
			],
			"name": "nodes",
			"outputs": [
				{
					"internalType": "address",
					"name": "nodeAddress",
					"type": "address"
				},
				{
					"internalType": "uint256",
					"name": "availableStorage",
					"type": "uint256"
				}
			],
			"stateMutability": "view",
			"type": "function"
		},
		{
			"inputs": [],
			"name": "numMaxChunksDuplication",
			"outputs": [
				{
					"internalType": "uint256",
					"name": "",
					"type": "uint256"
				}
			],
			"stateMutability": "view",
			"type": "function"
		},
		{
			"inputs": [],
			"name": "owner",
			"outputs": [
				{
					"internalType": "address",
					"name": "",
					"type": "address"
				}
			],
			"stateMutability": "view",
			"type": "function"
		},
		{
			"inputs": [
				{
					"internalType": "address",
					"name": "_nodeAddress",
					"type": "address"
				},
				{
					"internalType": "string",
					"name": "_fileId",
					"type": "string"
				}
			],
			"name": "retrieveChunkInNode",
			"outputs": [
				{
					"internalType": "string",
					"name": "",
					"type": "string"
				}
			],
			"stateMutability": "view",
			"type": "function"
		},
		{
			"inputs": [
				{
					"internalType": "string",
					"name": "_fileId",
					"type": "string"
				}
			],
			"name": "retrieveFileHash",
			"outputs": [
				{
					"components": [
						{
							"internalType": "string",
							"name": "fileId",
							"type": "string"
						},
						{
							"internalType": "string",
							"name": "fileName",
							"type": "string"
						},
						{
							"internalType": "string",
							"name": "fileType",
							"type": "string"
						},
						{
							"internalType": "bytes32",
							"name": "fileHash",
							"type": "bytes32"
						},
						{
							"internalType": "uint256",
							"name": "fileSize",
							"type": "uint256"
						},
						{
							"internalType": "uint256",
							"name": "uploadTime",
							"type": "uint256"
						},
						{
							"internalType": "address",
							"name": "ownerAddress",
							"type": "address"
						},
						{
							"internalType": "string",
							"name": "fileEncoding",
							"type": "string"
						},
						{
							"internalType": "address[]",
							"name": "fileStorageNodeAddress",
							"type": "address[]"
						}
					],
					"internalType": "struct FileStorageManager.FileMetadata",
					"name": "",
					"type": "tuple"
				}
			],
			"stateMutability": "view",
			"type": "function"
		},
		{
			"inputs": [
				{
					"internalType": "address",
					"name": "_nodeAddress",
					"type": "address"
				},
				{
					"internalType": "string",
					"name": "_chunk",
					"type": "string"
				},
				{
					"internalType": "string",
					"name": "_fileId",
					"type": "string"
				}
			],
			"name": "storeChunkInNode",
			"outputs": [],
			"stateMutability": "nonpayable",
			"type": "function"
		},
		{
			"inputs": [
				{
					"internalType": "string[]",
					"name": "_chunksArr",
					"type": "string[]"
				},
				{
					"internalType": "string",
					"name": "_fileName",
					"type": "string"
				},
				{
					"internalType": "string",
					"name": "_fileType",
					"type": "string"
				},
				{
					"internalType": "string",
					"name": "_fileEncoding",
					"type": "string"
				},
				{
					"internalType": "string",
					"name": "_uniqueId",
					"type": "string"
				},
				{
					"internalType": "uint256",
					"name": "_fileSize",
					"type": "uint256"
				}
			],
			"name": "storeFile",
			"outputs": [
				{
					"internalType": "address[]",
					"name": "",
					"type": "address[]"
				}
			],
			"stateMutability": "nonpayable",
			"type": "function"
		},
		{
			"inputs": [
				{
					"internalType": "bytes32",
					"name": "_fileHash",
					"type": "bytes32"
				},
				{
					"internalType": "string",
					"name": "_uniqueId",
					"type": "string"
				}
			],
			"name": "storeFileHash",
			"outputs": [],
			"stateMutability": "nonpayable",
			"type": "function"
		},
		{
			"inputs": [
				{
					"internalType": "string",
					"name": "_fileName",
					"type": "string"
				},
				{
					"internalType": "string",
					"name": "_fileType",
					"type": "string"
				},
				{
					"internalType": "bytes32",
					"name": "_fileHash",
					"type": "bytes32"
				},
				{
					"internalType": "string",
					"name": "_fileEncoding",
					"type": "string"
				},
				{
					"internalType": "address[]",
					"name": "_fileStorageNodeAddress",
					"type": "address[]"
				},
				{
					"internalType": "string",
					"name": "_uniqueId",
					"type": "string"
				},
				{
					"internalType": "uint256",
					"name": "_fileSize",
					"type": "uint256"
				}
			],
			"name": "storeFileMetadata",
			"outputs": [],
			"stateMutability": "nonpayable",
			"type": "function"
		}
	]
}