{
	"data": {
		"bytecode": {
			"linkReferences": {},
			"object": "608060405234801561000f575f80fd5b50610f4d8061001d5f395ff3fe608060405234801561000f575f80fd5b506004361061009c575f3560e01c8063a1174e7d11610064578063a1174e7d1461017d578063a98603081461019b578063b49f33c8146101cb578063b65814a6146101e7578063fe72ae13146102035761009c565b806311bd77fe146100a0578063189a5a17146100bc5780632a85be1e146100ed57806350f1c9851461011d57806364f0c0b81461014d575b5f80fd5b6100ba60048036038101906100b591906108dc565b610233565b005b6100d660048036038101906100d1919061091a565b61041a565b6040516100e4929190610963565b60405180910390f35b61010760048036038101906101029190610ac6565b610458565b6040516101149190610b9a565b60405180910390f35b61013760048036038101906101329190610ac6565b610460565b6040516101449190610b9a565b60405180910390f35b61016760048036038101906101629190610bba565b610468565b6040516101749190610be5565b60405180910390f35b61018561057f565b6040516101929190610cb5565b60405180910390f35b6101b560048036038101906101b0919061091a565b61060a565b6040516101c29190610d11565b60405180910390f35b6101e560048036038101906101e091906108dc565b6106be565b005b61020160048036038101906101fc9190610ac6565b6107d1565b005b61021d60048036038101906102189190610bba565b6107d5565b60405161022a9190610be5565b60405180910390f35b5f73ffffffffffffffffffffffffffffffffffffffff165f808473ffffffffffffffffffffffffffffffffffffffff1673ffffffffffffffffffffffffffffffffffffffff1681526020019081526020015f205f015f9054906101000a900473ffffffffffffffffffffffffffffffffffffffff1673ffffffffffffffffffffffffffffffffffffffff16146102fe576040517f08c379a00000000000000000000000000000000000000000000000000000000081526004016102f590610d74565b60405180910390fd5b60405180604001604052808373ffffffffffffffffffffffffffffffffffffffff168152602001828152505f808473ffffffffffffffffffffffffffffffffffffffff1673ffffffffffffffffffffffffffffffffffffffff1681526020019081526020015f205f820151815f015f6101000a81548173ffffffffffffffffffffffffffffffffffffffff021916908373ffffffffffffffffffffffffffffffffffffffff16021790555060208201518160010155905050600182908060018154018082558091505060019003905f5260205f20015f9091909190916101000a81548173ffffffffffffffffffffffffffffffffffffffff021916908373ffffffffffffffffffffffffffffffffffffffff1602179055505050565b5f602052805f5260405f205f91509050805f015f9054906101000a900473ffffffffffffffffffffffffffffffffffffffff16908060010154905082565b606092915050565b606092915050565b5f8060018054905090505f603290505f8203610488575f9250505061057a565b5f826001436104979190610dbf565b405f1c6104a49190610e1f565b90505f5b83811015610572575f60018583856104c09190610e4f565b6104ca9190610e1f565b815481106104db576104da610e82565b5b905f5260205f20015f9054906101000a900473ffffffffffffffffffffffffffffffffffffffff16905083876105119190610e4f565b5f808373ffffffffffffffffffffffffffffffffffffffff1673ffffffffffffffffffffffffffffffffffffffff1681526020019081526020015f2060010154111561056457809550505050505061057a565b5080806001019150506104a8565b505f93505050505b919050565b6060600180548060200260200160405190810160405280929190818152602001828054801561060057602002820191905f5260205f20905b815f9054906101000a900473ffffffffffffffffffffffffffffffffffffffff1673ffffffffffffffffffffffffffffffffffffffff16815260200190600101908083116105b7575b5050505050905090565b610612610810565b5f808373ffffffffffffffffffffffffffffffffffffffff1673ffffffffffffffffffffffffffffffffffffffff1681526020019081526020015f206040518060400160405290815f82015f9054906101000a900473ffffffffffffffffffffffffffffffffffffffff1673ffffffffffffffffffffffffffffffffffffffff1673ffffffffffffffffffffffffffffffffffffffff1681526020016001820154815250509050919050565b5f73ffffffffffffffffffffffffffffffffffffffff165f808473ffffffffffffffffffffffffffffffffffffffff1673ffffffffffffffffffffffffffffffffffffffff1681526020019081526020015f205f015f9054906101000a900473ffffffffffffffffffffffffffffffffffffffff1673ffffffffffffffffffffffffffffffffffffffff1603610789576040517f08c379a000000000000000000000000000000000000000000000000000000000815260040161078090610ef9565b60405180910390fd5b805f808473ffffffffffffffffffffffffffffffffffffffff1673ffffffffffffffffffffffffffffffffffffffff1681526020019081526020015f20600101819055505050565b5050565b600181815481106107e4575f80fd5b905f5260205f20015f915054906101000a900473ffffffffffffffffffffffffffffffffffffffff1681565b60405180604001604052805f73ffffffffffffffffffffffffffffffffffffffff1681526020015f81525090565b5f604051905090565b5f80fd5b5f80fd5b5f73ffffffffffffffffffffffffffffffffffffffff82169050919050565b5f6108788261084f565b9050919050565b6108888161086e565b8114610892575f80fd5b50565b5f813590506108a38161087f565b92915050565b5f819050919050565b6108bb816108a9565b81146108c5575f80fd5b50565b5f813590506108d6816108b2565b92915050565b5f80604083850312156108f2576108f1610847565b5b5f6108ff85828601610895565b9250506020610910858286016108c8565b9150509250929050565b5f6020828403121561092f5761092e610847565b5b5f61093c84828501610895565b91505092915050565b61094e8161086e565b82525050565b61095d816108a9565b82525050565b5f6040820190506109765f830185610945565b6109836020830184610954565b9392505050565b5f80fd5b5f80fd5b5f601f19601f8301169050919050565b7f4e487b71000000000000000000000000000000000000000000000000000000005f52604160045260245ffd5b6109d882610992565b810181811067ffffffffffffffff821117156109f7576109f66109a2565b5b80604052505050565b5f610a0961083e565b9050610a1582826109cf565b919050565b5f67ffffffffffffffff821115610a3457610a336109a2565b5b610a3d82610992565b9050602081019050919050565b828183375f83830152505050565b5f610a6a610a6584610a1a565b610a00565b905082815260208101848484011115610a8657610a8561098e565b5b610a91848285610a4a565b509392505050565b5f82601f830112610aad57610aac61098a565b5b8135610abd848260208601610a58565b91505092915050565b5f8060408385031215610adc57610adb610847565b5b5f610ae985828601610895565b925050602083013567ffffffffffffffff811115610b0a57610b0961084b565b5b610b1685828601610a99565b9150509250929050565b5f81519050919050565b5f82825260208201905092915050565b5f5b83811015610b57578082015181840152602081019050610b3c565b5f8484015250505050565b5f610b6c82610b20565b610b768185610b2a565b9350610b86818560208601610b3a565b610b8f81610992565b840191505092915050565b5f6020820190508181035f830152610bb28184610b62565b905092915050565b5f60208284031215610bcf57610bce610847565b5b5f610bdc848285016108c8565b91505092915050565b5f602082019050610bf85f830184610945565b92915050565b5f81519050919050565b5f82825260208201905092915050565b5f819050602082019050919050565b610c308161086e565b82525050565b5f610c418383610c27565b60208301905092915050565b5f602082019050919050565b5f610c6382610bfe565b610c6d8185610c08565b9350610c7883610c18565b805f5b83811015610ca8578151610c8f8882610c36565b9750610c9a83610c4d565b925050600181019050610c7b565b5085935050505092915050565b5f6020820190508181035f830152610ccd8184610c59565b905092915050565b610cde816108a9565b82525050565b604082015f820151610cf85f850182610c27565b506020820151610d0b6020850182610cd5565b50505050565b5f604082019050610d245f830184610ce4565b92915050565b7f4e6f646520616c726561647920657869737473000000000000000000000000005f82015250565b5f610d5e601383610b2a565b9150610d6982610d2a565b602082019050919050565b5f6020820190508181035f830152610d8b81610d52565b9050919050565b7f4e487b71000000000000000000000000000000000000000000000000000000005f52601160045260245ffd5b5f610dc9826108a9565b9150610dd4836108a9565b9250828203905081811115610dec57610deb610d92565b5b92915050565b7f4e487b71000000000000000000000000000000000000000000000000000000005f52601260045260245ffd5b5f610e29826108a9565b9150610e34836108a9565b925082610e4457610e43610df2565b5b828206905092915050565b5f610e59826108a9565b9150610e64836108a9565b9250828201905080821115610e7c57610e7b610d92565b5b92915050565b7f4e487b71000000000000000000000000000000000000000000000000000000005f52603260045260245ffd5b7f4e6f646520646f6573206e6f74206578697374000000000000000000000000005f82015250565b5f610ee3601383610b2a565b9150610eee82610eaf565b602082019050919050565b5f6020820190508181035f830152610f1081610ed7565b905091905056fea26469706673582212203d89a5e2a34cddc51a9e9e344b9114bbb78c3defa7ebe98db032435bad5b2fbf64736f6c63430008160033",
			"opcodes": "PUSH1 0x80 PUSH1 0x40 MSTORE CALLVALUE DUP1 ISZERO PUSH2 0xF JUMPI PUSH0 DUP1 REVERT JUMPDEST POP PUSH2 0xF4D DUP1 PUSH2 0x1D PUSH0 CODECOPY PUSH0 RETURN INVALID PUSH1 0x80 PUSH1 0x40 MSTORE CALLVALUE DUP1 ISZERO PUSH2 0xF JUMPI PUSH0 DUP1 REVERT JUMPDEST POP PUSH1 0x4 CALLDATASIZE LT PUSH2 0x9C JUMPI PUSH0 CALLDATALOAD PUSH1 0xE0 SHR DUP1 PUSH4 0xA1174E7D GT PUSH2 0x64 JUMPI DUP1 PUSH4 0xA1174E7D EQ PUSH2 0x17D JUMPI DUP1 PUSH4 0xA9860308 EQ PUSH2 0x19B JUMPI DUP1 PUSH4 0xB49F33C8 EQ PUSH2 0x1CB JUMPI DUP1 PUSH4 0xB65814A6 EQ PUSH2 0x1E7 JUMPI DUP1 PUSH4 0xFE72AE13 EQ PUSH2 0x203 JUMPI PUSH2 0x9C JUMP JUMPDEST DUP1 PUSH4 0x11BD77FE EQ PUSH2 0xA0 JUMPI DUP1 PUSH4 0x189A5A17 EQ PUSH2 0xBC JUMPI DUP1 PUSH4 0x2A85BE1E EQ PUSH2 0xED JUMPI DUP1 PUSH4 0x50F1C985 EQ PUSH2 0x11D JUMPI DUP1 PUSH4 0x64F0C0B8 EQ PUSH2 0x14D JUMPI JUMPDEST PUSH0 DUP1 REVERT JUMPDEST PUSH2 0xBA PUSH1 0x4 DUP1 CALLDATASIZE SUB DUP2 ADD SWAP1 PUSH2 0xB5 SWAP2 SWAP1 PUSH2 0x8DC JUMP JUMPDEST PUSH2 0x233 JUMP JUMPDEST STOP JUMPDEST PUSH2 0xD6 PUSH1 0x4 DUP1 CALLDATASIZE SUB DUP2 ADD SWAP1 PUSH2 0xD1 SWAP2 SWAP1 PUSH2 0x91A JUMP JUMPDEST PUSH2 0x41A JUMP JUMPDEST PUSH1 0x40 MLOAD PUSH2 0xE4 SWAP3 SWAP2 SWAP1 PUSH2 0x963 JUMP JUMPDEST PUSH1 0x40 MLOAD DUP1 SWAP2 SUB SWAP1 RETURN JUMPDEST PUSH2 0x107 PUSH1 0x4 DUP1 CALLDATASIZE SUB DUP2 ADD SWAP1 PUSH2 0x102 SWAP2 SWAP1 PUSH2 0xAC6 JUMP JUMPDEST PUSH2 0x458 JUMP JUMPDEST PUSH1 0x40 MLOAD PUSH2 0x114 SWAP2 SWAP1 PUSH2 0xB9A JUMP JUMPDEST PUSH1 0x40 MLOAD DUP1 SWAP2 SUB SWAP1 RETURN JUMPDEST PUSH2 0x137 PUSH1 0x4 DUP1 CALLDATASIZE SUB DUP2 ADD SWAP1 PUSH2 0x132 SWAP2 SWAP1 PUSH2 0xAC6 JUMP JUMPDEST PUSH2 0x460 JUMP JUMPDEST PUSH1 0x40 MLOAD PUSH2 0x144 SWAP2 SWAP1 PUSH2 0xB9A JUMP JUMPDEST PUSH1 0x40 MLOAD DUP1 SWAP2 SUB SWAP1 RETURN JUMPDEST PUSH2 0x167 PUSH1 0x4 DUP1 CALLDATASIZE SUB DUP2 ADD SWAP1 PUSH2 0x162 SWAP2 SWAP1 PUSH2 0xBBA JUMP JUMPDEST PUSH2 0x468 JUMP JUMPDEST PUSH1 0x40 MLOAD PUSH2 0x174 SWAP2 SWAP1 PUSH2 0xBE5 JUMP JUMPDEST PUSH1 0x40 MLOAD DUP1 SWAP2 SUB SWAP1 RETURN JUMPDEST PUSH2 0x185 PUSH2 0x57F JUMP JUMPDEST PUSH1 0x40 MLOAD PUSH2 0x192 SWAP2 SWAP1 PUSH2 0xCB5 JUMP JUMPDEST PUSH1 0x40 MLOAD DUP1 SWAP2 SUB SWAP1 RETURN JUMPDEST PUSH2 0x1B5 PUSH1 0x4 DUP1 CALLDATASIZE SUB DUP2 ADD SWAP1 PUSH2 0x1B0 SWAP2 SWAP1 PUSH2 0x91A JUMP JUMPDEST PUSH2 0x60A JUMP JUMPDEST PUSH1 0x40 MLOAD PUSH2 0x1C2 SWAP2 SWAP1 PUSH2 0xD11 JUMP JUMPDEST PUSH1 0x40 MLOAD DUP1 SWAP2 SUB SWAP1 RETURN JUMPDEST PUSH2 0x1E5 PUSH1 0x4 DUP1 CALLDATASIZE SUB DUP2 ADD SWAP1 PUSH2 0x1E0 SWAP2 SWAP1 PUSH2 0x8DC JUMP JUMPDEST PUSH2 0x6BE JUMP JUMPDEST STOP JUMPDEST PUSH2 0x201 PUSH1 0x4 DUP1 CALLDATASIZE SUB DUP2 ADD SWAP1 PUSH2 0x1FC SWAP2 SWAP1 PUSH2 0xAC6 JUMP JUMPDEST PUSH2 0x7D1 JUMP JUMPDEST STOP JUMPDEST PUSH2 0x21D PUSH1 0x4 DUP1 CALLDATASIZE SUB DUP2 ADD SWAP1 PUSH2 0x218 SWAP2 SWAP1 PUSH2 0xBBA JUMP JUMPDEST PUSH2 0x7D5 JUMP JUMPDEST PUSH1 0x40 MLOAD PUSH2 0x22A SWAP2 SWAP1 PUSH2 0xBE5 JUMP JUMPDEST PUSH1 0x40 MLOAD DUP1 SWAP2 SUB SWAP1 RETURN JUMPDEST PUSH0 PUSH20 0xFFFFFFFFFFFFFFFFFFFFFFFFFFFFFFFFFFFFFFFF AND PUSH0 DUP1 DUP5 PUSH20 0xFFFFFFFFFFFFFFFFFFFFFFFFFFFFFFFFFFFFFFFF AND PUSH20 0xFFFFFFFFFFFFFFFFFFFFFFFFFFFFFFFFFFFFFFFF AND DUP2 MSTORE PUSH1 0x20 ADD SWAP1 DUP2 MSTORE PUSH1 0x20 ADD PUSH0 KECCAK256 PUSH0 ADD PUSH0 SWAP1 SLOAD SWAP1 PUSH2 0x100 EXP SWAP1 DIV PUSH20 0xFFFFFFFFFFFFFFFFFFFFFFFFFFFFFFFFFFFFFFFF AND PUSH20 0xFFFFFFFFFFFFFFFFFFFFFFFFFFFFFFFFFFFFFFFF AND EQ PUSH2 0x2FE JUMPI PUSH1 0x40 MLOAD PUSH32 0x8C379A000000000000000000000000000000000000000000000000000000000 DUP2 MSTORE PUSH1 0x4 ADD PUSH2 0x2F5 SWAP1 PUSH2 0xD74 JUMP JUMPDEST PUSH1 0x40 MLOAD DUP1 SWAP2 SUB SWAP1 REVERT JUMPDEST PUSH1 0x40 MLOAD DUP1 PUSH1 0x40 ADD PUSH1 0x40 MSTORE DUP1 DUP4 PUSH20 0xFFFFFFFFFFFFFFFFFFFFFFFFFFFFFFFFFFFFFFFF AND DUP2 MSTORE PUSH1 0x20 ADD DUP3 DUP2 MSTORE POP PUSH0 DUP1 DUP5 PUSH20 0xFFFFFFFFFFFFFFFFFFFFFFFFFFFFFFFFFFFFFFFF AND PUSH20 0xFFFFFFFFFFFFFFFFFFFFFFFFFFFFFFFFFFFFFFFF AND DUP2 MSTORE PUSH1 0x20 ADD SWAP1 DUP2 MSTORE PUSH1 0x20 ADD PUSH0 KECCAK256 PUSH0 DUP3 ADD MLOAD DUP2 PUSH0 ADD PUSH0 PUSH2 0x100 EXP DUP2 SLOAD DUP2 PUSH20 0xFFFFFFFFFFFFFFFFFFFFFFFFFFFFFFFFFFFFFFFF MUL NOT AND SWAP1 DUP4 PUSH20 0xFFFFFFFFFFFFFFFFFFFFFFFFFFFFFFFFFFFFFFFF AND MUL OR SWAP1 SSTORE POP PUSH1 0x20 DUP3 ADD MLOAD DUP2 PUSH1 0x1 ADD SSTORE SWAP1 POP POP PUSH1 0x1 DUP3 SWAP1 DUP1 PUSH1 0x1 DUP2 SLOAD ADD DUP1 DUP3 SSTORE DUP1 SWAP2 POP POP PUSH1 0x1 SWAP1 SUB SWAP1 PUSH0 MSTORE PUSH1 0x20 PUSH0 KECCAK256 ADD PUSH0 SWAP1 SWAP2 SWAP1 SWAP2 SWAP1 SWAP2 PUSH2 0x100 EXP DUP2 SLOAD DUP2 PUSH20 0xFFFFFFFFFFFFFFFFFFFFFFFFFFFFFFFFFFFFFFFF MUL NOT AND SWAP1 DUP4 PUSH20 0xFFFFFFFFFFFFFFFFFFFFFFFFFFFFFFFFFFFFFFFF AND MUL OR SWAP1 SSTORE POP POP POP JUMP JUMPDEST PUSH0 PUSH1 0x20 MSTORE DUP1 PUSH0 MSTORE PUSH1 0x40 PUSH0 KECCAK256 PUSH0 SWAP2 POP SWAP1 POP DUP1 PUSH0 ADD PUSH0 SWAP1 SLOAD SWAP1 PUSH2 0x100 EXP SWAP1 DIV PUSH20 0xFFFFFFFFFFFFFFFFFFFFFFFFFFFFFFFFFFFFFFFF AND SWAP1 DUP1 PUSH1 0x1 ADD SLOAD SWAP1 POP DUP3 JUMP JUMPDEST PUSH1 0x60 SWAP3 SWAP2 POP POP JUMP JUMPDEST PUSH1 0x60 SWAP3 SWAP2 POP POP JUMP JUMPDEST PUSH0 DUP1 PUSH1 0x1 DUP1 SLOAD SWAP1 POP SWAP1 POP PUSH0 PUSH1 0x32 SWAP1 POP PUSH0 DUP3 SUB PUSH2 0x488 JUMPI PUSH0 SWAP3 POP POP POP PUSH2 0x57A JUMP JUMPDEST PUSH0 DUP3 PUSH1 0x1 NUMBER PUSH2 0x497 SWAP2 SWAP1 PUSH2 0xDBF JUMP JUMPDEST BLOCKHASH PUSH0 SHR PUSH2 0x4A4 SWAP2 SWAP1 PUSH2 0xE1F JUMP JUMPDEST SWAP1 POP PUSH0 JUMPDEST DUP4 DUP2 LT ISZERO PUSH2 0x572 JUMPI PUSH0 PUSH1 0x1 DUP6 DUP4 DUP6 PUSH2 0x4C0 SWAP2 SWAP1 PUSH2 0xE4F JUMP JUMPDEST PUSH2 0x4CA SWAP2 SWAP1 PUSH2 0xE1F JUMP JUMPDEST DUP2 SLOAD DUP2 LT PUSH2 0x4DB JUMPI PUSH2 0x4DA PUSH2 0xE82 JUMP JUMPDEST JUMPDEST SWAP1 PUSH0 MSTORE PUSH1 0x20 PUSH0 KECCAK256 ADD PUSH0 SWAP1 SLOAD SWAP1 PUSH2 0x100 EXP SWAP1 DIV PUSH20 0xFFFFFFFFFFFFFFFFFFFFFFFFFFFFFFFFFFFFFFFF AND SWAP1 POP DUP4 DUP8 PUSH2 0x511 SWAP2 SWAP1 PUSH2 0xE4F JUMP JUMPDEST PUSH0 DUP1 DUP4 PUSH20 0xFFFFFFFFFFFFFFFFFFFFFFFFFFFFFFFFFFFFFFFF AND PUSH20 0xFFFFFFFFFFFFFFFFFFFFFFFFFFFFFFFFFFFFFFFF AND DUP2 MSTORE PUSH1 0x20 ADD SWAP1 DUP2 MSTORE PUSH1 0x20 ADD PUSH0 KECCAK256 PUSH1 0x1 ADD SLOAD GT ISZERO PUSH2 0x564 JUMPI DUP1 SWAP6 POP POP POP POP POP POP PUSH2 0x57A JUMP JUMPDEST POP DUP1 DUP1 PUSH1 0x1 ADD SWAP2 POP POP PUSH2 0x4A8 JUMP JUMPDEST POP PUSH0 SWAP4 POP POP POP POP JUMPDEST SWAP2 SWAP1 POP JUMP JUMPDEST PUSH1 0x60 PUSH1 0x1 DUP1 SLOAD DUP1 PUSH1 0x20 MUL PUSH1 0x20 ADD PUSH1 0x40 MLOAD SWAP1 DUP2 ADD PUSH1 0x40 MSTORE DUP1 SWAP3 SWAP2 SWAP1 DUP2 DUP2 MSTORE PUSH1 0x20 ADD DUP3 DUP1 SLOAD DUP1 ISZERO PUSH2 0x600 JUMPI PUSH1 0x20 MUL DUP3 ADD SWAP2 SWAP1 PUSH0 MSTORE PUSH1 0x20 PUSH0 KECCAK256 SWAP1 JUMPDEST DUP2 PUSH0 SWAP1 SLOAD SWAP1 PUSH2 0x100 EXP SWAP1 DIV PUSH20 0xFFFFFFFFFFFFFFFFFFFFFFFFFFFFFFFFFFFFFFFF AND PUSH20 0xFFFFFFFFFFFFFFFFFFFFFFFFFFFFFFFFFFFFFFFF AND DUP2 MSTORE PUSH1 0x20 ADD SWAP1 PUSH1 0x1 ADD SWAP1 DUP1 DUP4 GT PUSH2 0x5B7 JUMPI JUMPDEST POP POP POP POP POP SWAP1 POP SWAP1 JUMP JUMPDEST PUSH2 0x612 PUSH2 0x810 JUMP JUMPDEST PUSH0 DUP1 DUP4 PUSH20 0xFFFFFFFFFFFFFFFFFFFFFFFFFFFFFFFFFFFFFFFF AND PUSH20 0xFFFFFFFFFFFFFFFFFFFFFFFFFFFFFFFFFFFFFFFF AND DUP2 MSTORE PUSH1 0x20 ADD SWAP1 DUP2 MSTORE PUSH1 0x20 ADD PUSH0 KECCAK256 PUSH1 0x40 MLOAD DUP1 PUSH1 0x40 ADD PUSH1 0x40 MSTORE SWAP1 DUP2 PUSH0 DUP3 ADD PUSH0 SWAP1 SLOAD SWAP1 PUSH2 0x100 EXP SWAP1 DIV PUSH20 0xFFFFFFFFFFFFFFFFFFFFFFFFFFFFFFFFFFFFFFFF AND PUSH20 0xFFFFFFFFFFFFFFFFFFFFFFFFFFFFFFFFFFFFFFFF AND PUSH20 0xFFFFFFFFFFFFFFFFFFFFFFFFFFFFFFFFFFFFFFFF AND DUP2 MSTORE PUSH1 0x20 ADD PUSH1 0x1 DUP3 ADD SLOAD DUP2 MSTORE POP POP SWAP1 POP SWAP2 SWAP1 POP JUMP JUMPDEST PUSH0 PUSH20 0xFFFFFFFFFFFFFFFFFFFFFFFFFFFFFFFFFFFFFFFF AND PUSH0 DUP1 DUP5 PUSH20 0xFFFFFFFFFFFFFFFFFFFFFFFFFFFFFFFFFFFFFFFF AND PUSH20 0xFFFFFFFFFFFFFFFFFFFFFFFFFFFFFFFFFFFFFFFF AND DUP2 MSTORE PUSH1 0x20 ADD SWAP1 DUP2 MSTORE PUSH1 0x20 ADD PUSH0 KECCAK256 PUSH0 ADD PUSH0 SWAP1 SLOAD SWAP1 PUSH2 0x100 EXP SWAP1 DIV PUSH20 0xFFFFFFFFFFFFFFFFFFFFFFFFFFFFFFFFFFFFFFFF AND PUSH20 0xFFFFFFFFFFFFFFFFFFFFFFFFFFFFFFFFFFFFFFFF AND SUB PUSH2 0x789 JUMPI PUSH1 0x40 MLOAD PUSH32 0x8C379A000000000000000000000000000000000000000000000000000000000 DUP2 MSTORE PUSH1 0x4 ADD PUSH2 0x780 SWAP1 PUSH2 0xEF9 JUMP JUMPDEST PUSH1 0x40 MLOAD DUP1 SWAP2 SUB SWAP1 REVERT JUMPDEST DUP1 PUSH0 DUP1 DUP5 PUSH20 0xFFFFFFFFFFFFFFFFFFFFFFFFFFFFFFFFFFFFFFFF AND PUSH20 0xFFFFFFFFFFFFFFFFFFFFFFFFFFFFFFFFFFFFFFFF AND DUP2 MSTORE PUSH1 0x20 ADD SWAP1 DUP2 MSTORE PUSH1 0x20 ADD PUSH0 KECCAK256 PUSH1 0x1 ADD DUP2 SWAP1 SSTORE POP POP POP JUMP JUMPDEST POP POP JUMP JUMPDEST PUSH1 0x1 DUP2 DUP2 SLOAD DUP2 LT PUSH2 0x7E4 JUMPI PUSH0 DUP1 REVERT JUMPDEST SWAP1 PUSH0 MSTORE PUSH1 0x20 PUSH0 KECCAK256 ADD PUSH0 SWAP2 POP SLOAD SWAP1 PUSH2 0x100 EXP SWAP1 DIV PUSH20 0xFFFFFFFFFFFFFFFFFFFFFFFFFFFFFFFFFFFFFFFF AND DUP2 JUMP JUMPDEST PUSH1 0x40 MLOAD DUP1 PUSH1 0x40 ADD PUSH1 0x40 MSTORE DUP1 PUSH0 PUSH20 0xFFFFFFFFFFFFFFFFFFFFFFFFFFFFFFFFFFFFFFFF AND DUP2 MSTORE PUSH1 0x20 ADD PUSH0 DUP2 MSTORE POP SWAP1 JUMP JUMPDEST PUSH0 PUSH1 0x40 MLOAD SWAP1 POP SWAP1 JUMP JUMPDEST PUSH0 DUP1 REVERT JUMPDEST PUSH0 DUP1 REVERT JUMPDEST PUSH0 PUSH20 0xFFFFFFFFFFFFFFFFFFFFFFFFFFFFFFFFFFFFFFFF DUP3 AND SWAP1 POP SWAP2 SWAP1 POP JUMP JUMPDEST PUSH0 PUSH2 0x878 DUP3 PUSH2 0x84F JUMP JUMPDEST SWAP1 POP SWAP2 SWAP1 POP JUMP JUMPDEST PUSH2 0x888 DUP2 PUSH2 0x86E JUMP JUMPDEST DUP2 EQ PUSH2 0x892 JUMPI PUSH0 DUP1 REVERT JUMPDEST POP JUMP JUMPDEST PUSH0 DUP2 CALLDATALOAD SWAP1 POP PUSH2 0x8A3 DUP2 PUSH2 0x87F JUMP JUMPDEST SWAP3 SWAP2 POP POP JUMP JUMPDEST PUSH0 DUP2 SWAP1 POP SWAP2 SWAP1 POP JUMP JUMPDEST PUSH2 0x8BB DUP2 PUSH2 0x8A9 JUMP JUMPDEST DUP2 EQ PUSH2 0x8C5 JUMPI PUSH0 DUP1 REVERT JUMPDEST POP JUMP JUMPDEST PUSH0 DUP2 CALLDATALOAD SWAP1 POP PUSH2 0x8D6 DUP2 PUSH2 0x8B2 JUMP JUMPDEST SWAP3 SWAP2 POP POP JUMP JUMPDEST PUSH0 DUP1 PUSH1 0x40 DUP4 DUP6 SUB SLT ISZERO PUSH2 0x8F2 JUMPI PUSH2 0x8F1 PUSH2 0x847 JUMP JUMPDEST JUMPDEST PUSH0 PUSH2 0x8FF DUP6 DUP3 DUP7 ADD PUSH2 0x895 JUMP JUMPDEST SWAP3 POP POP PUSH1 0x20 PUSH2 0x910 DUP6 DUP3 DUP7 ADD PUSH2 0x8C8 JUMP JUMPDEST SWAP2 POP POP SWAP3 POP SWAP3 SWAP1 POP JUMP JUMPDEST PUSH0 PUSH1 0x20 DUP3 DUP5 SUB SLT ISZERO PUSH2 0x92F JUMPI PUSH2 0x92E PUSH2 0x847 JUMP JUMPDEST JUMPDEST PUSH0 PUSH2 0x93C DUP5 DUP3 DUP6 ADD PUSH2 0x895 JUMP JUMPDEST SWAP2 POP POP SWAP3 SWAP2 POP POP JUMP JUMPDEST PUSH2 0x94E DUP2 PUSH2 0x86E JUMP JUMPDEST DUP3 MSTORE POP POP JUMP JUMPDEST PUSH2 0x95D DUP2 PUSH2 0x8A9 JUMP JUMPDEST DUP3 MSTORE POP POP JUMP JUMPDEST PUSH0 PUSH1 0x40 DUP3 ADD SWAP1 POP PUSH2 0x976 PUSH0 DUP4 ADD DUP6 PUSH2 0x945 JUMP JUMPDEST PUSH2 0x983 PUSH1 0x20 DUP4 ADD DUP5 PUSH2 0x954 JUMP JUMPDEST SWAP4 SWAP3 POP POP POP JUMP JUMPDEST PUSH0 DUP1 REVERT JUMPDEST PUSH0 DUP1 REVERT JUMPDEST PUSH0 PUSH1 0x1F NOT PUSH1 0x1F DUP4 ADD AND SWAP1 POP SWAP2 SWAP1 POP JUMP JUMPDEST PUSH32 0x4E487B7100000000000000000000000000000000000000000000000000000000 PUSH0 MSTORE PUSH1 0x41 PUSH1 0x4 MSTORE PUSH1 0x24 PUSH0 REVERT JUMPDEST PUSH2 0x9D8 DUP3 PUSH2 0x992 JUMP JUMPDEST DUP2 ADD DUP2 DUP2 LT PUSH8 0xFFFFFFFFFFFFFFFF DUP3 GT OR ISZERO PUSH2 0x9F7 JUMPI PUSH2 0x9F6 PUSH2 0x9A2 JUMP JUMPDEST JUMPDEST DUP1 PUSH1 0x40 MSTORE POP POP POP JUMP JUMPDEST PUSH0 PUSH2 0xA09 PUSH2 0x83E JUMP JUMPDEST SWAP1 POP PUSH2 0xA15 DUP3 DUP3 PUSH2 0x9CF JUMP JUMPDEST SWAP2 SWAP1 POP JUMP JUMPDEST PUSH0 PUSH8 0xFFFFFFFFFFFFFFFF DUP3 GT ISZERO PUSH2 0xA34 JUMPI PUSH2 0xA33 PUSH2 0x9A2 JUMP JUMPDEST JUMPDEST PUSH2 0xA3D DUP3 PUSH2 0x992 JUMP JUMPDEST SWAP1 POP PUSH1 0x20 DUP2 ADD SWAP1 POP SWAP2 SWAP1 POP JUMP JUMPDEST DUP3 DUP2 DUP4 CALLDATACOPY PUSH0 DUP4 DUP4 ADD MSTORE POP POP POP JUMP JUMPDEST PUSH0 PUSH2 0xA6A PUSH2 0xA65 DUP5 PUSH2 0xA1A JUMP JUMPDEST PUSH2 0xA00 JUMP JUMPDEST SWAP1 POP DUP3 DUP2 MSTORE PUSH1 0x20 DUP2 ADD DUP5 DUP5 DUP5 ADD GT ISZERO PUSH2 0xA86 JUMPI PUSH2 0xA85 PUSH2 0x98E JUMP JUMPDEST JUMPDEST PUSH2 0xA91 DUP5 DUP3 DUP6 PUSH2 0xA4A JUMP JUMPDEST POP SWAP4 SWAP3 POP POP POP JUMP JUMPDEST PUSH0 DUP3 PUSH1 0x1F DUP4 ADD SLT PUSH2 0xAAD JUMPI PUSH2 0xAAC PUSH2 0x98A JUMP JUMPDEST JUMPDEST DUP2 CALLDATALOAD PUSH2 0xABD DUP5 DUP3 PUSH1 0x20 DUP7 ADD PUSH2 0xA58 JUMP JUMPDEST SWAP2 POP POP SWAP3 SWAP2 POP POP JUMP JUMPDEST PUSH0 DUP1 PUSH1 0x40 DUP4 DUP6 SUB SLT ISZERO PUSH2 0xADC JUMPI PUSH2 0xADB PUSH2 0x847 JUMP JUMPDEST JUMPDEST PUSH0 PUSH2 0xAE9 DUP6 DUP3 DUP7 ADD PUSH2 0x895 JUMP JUMPDEST SWAP3 POP POP PUSH1 0x20 DUP4 ADD CALLDATALOAD PUSH8 0xFFFFFFFFFFFFFFFF DUP2 GT ISZERO PUSH2 0xB0A JUMPI PUSH2 0xB09 PUSH2 0x84B JUMP JUMPDEST JUMPDEST PUSH2 0xB16 DUP6 DUP3 DUP7 ADD PUSH2 0xA99 JUMP JUMPDEST SWAP2 POP POP SWAP3 POP SWAP3 SWAP1 POP JUMP JUMPDEST PUSH0 DUP2 MLOAD SWAP1 POP SWAP2 SWAP1 POP JUMP JUMPDEST PUSH0 DUP3 DUP3 MSTORE PUSH1 0x20 DUP3 ADD SWAP1 POP SWAP3 SWAP2 POP POP JUMP JUMPDEST PUSH0 JUMPDEST DUP4 DUP2 LT ISZERO PUSH2 0xB57 JUMPI DUP1 DUP3 ADD MLOAD DUP2 DUP5 ADD MSTORE PUSH1 0x20 DUP2 ADD SWAP1 POP PUSH2 0xB3C JUMP JUMPDEST PUSH0 DUP5 DUP5 ADD MSTORE POP POP POP POP JUMP JUMPDEST PUSH0 PUSH2 0xB6C DUP3 PUSH2 0xB20 JUMP JUMPDEST PUSH2 0xB76 DUP2 DUP6 PUSH2 0xB2A JUMP JUMPDEST SWAP4 POP PUSH2 0xB86 DUP2 DUP6 PUSH1 0x20 DUP7 ADD PUSH2 0xB3A JUMP JUMPDEST PUSH2 0xB8F DUP2 PUSH2 0x992 JUMP JUMPDEST DUP5 ADD SWAP2 POP POP SWAP3 SWAP2 POP POP JUMP JUMPDEST PUSH0 PUSH1 0x20 DUP3 ADD SWAP1 POP DUP2 DUP2 SUB PUSH0 DUP4 ADD MSTORE PUSH2 0xBB2 DUP2 DUP5 PUSH2 0xB62 JUMP JUMPDEST SWAP1 POP SWAP3 SWAP2 POP POP JUMP JUMPDEST PUSH0 PUSH1 0x20 DUP3 DUP5 SUB SLT ISZERO PUSH2 0xBCF JUMPI PUSH2 0xBCE PUSH2 0x847 JUMP JUMPDEST JUMPDEST PUSH0 PUSH2 0xBDC DUP5 DUP3 DUP6 ADD PUSH2 0x8C8 JUMP JUMPDEST SWAP2 POP POP SWAP3 SWAP2 POP POP JUMP JUMPDEST PUSH0 PUSH1 0x20 DUP3 ADD SWAP1 POP PUSH2 0xBF8 PUSH0 DUP4 ADD DUP5 PUSH2 0x945 JUMP JUMPDEST SWAP3 SWAP2 POP POP JUMP JUMPDEST PUSH0 DUP2 MLOAD SWAP1 POP SWAP2 SWAP1 POP JUMP JUMPDEST PUSH0 DUP3 DUP3 MSTORE PUSH1 0x20 DUP3 ADD SWAP1 POP SWAP3 SWAP2 POP POP JUMP JUMPDEST PUSH0 DUP2 SWAP1 POP PUSH1 0x20 DUP3 ADD SWAP1 POP SWAP2 SWAP1 POP JUMP JUMPDEST PUSH2 0xC30 DUP2 PUSH2 0x86E JUMP JUMPDEST DUP3 MSTORE POP POP JUMP JUMPDEST PUSH0 PUSH2 0xC41 DUP4 DUP4 PUSH2 0xC27 JUMP JUMPDEST PUSH1 0x20 DUP4 ADD SWAP1 POP SWAP3 SWAP2 POP POP JUMP JUMPDEST PUSH0 PUSH1 0x20 DUP3 ADD SWAP1 POP SWAP2 SWAP1 POP JUMP JUMPDEST PUSH0 PUSH2 0xC63 DUP3 PUSH2 0xBFE JUMP JUMPDEST PUSH2 0xC6D DUP2 DUP6 PUSH2 0xC08 JUMP JUMPDEST SWAP4 POP PUSH2 0xC78 DUP4 PUSH2 0xC18 JUMP JUMPDEST DUP1 PUSH0 JUMPDEST DUP4 DUP2 LT ISZERO PUSH2 0xCA8 JUMPI DUP2 MLOAD PUSH2 0xC8F DUP9 DUP3 PUSH2 0xC36 JUMP JUMPDEST SWAP8 POP PUSH2 0xC9A DUP4 PUSH2 0xC4D JUMP JUMPDEST SWAP3 POP POP PUSH1 0x1 DUP2 ADD SWAP1 POP PUSH2 0xC7B JUMP JUMPDEST POP DUP6 SWAP4 POP POP POP POP SWAP3 SWAP2 POP POP JUMP JUMPDEST PUSH0 PUSH1 0x20 DUP3 ADD SWAP1 POP DUP2 DUP2 SUB PUSH0 DUP4 ADD MSTORE PUSH2 0xCCD DUP2 DUP5 PUSH2 0xC59 JUMP JUMPDEST SWAP1 POP SWAP3 SWAP2 POP POP JUMP JUMPDEST PUSH2 0xCDE DUP2 PUSH2 0x8A9 JUMP JUMPDEST DUP3 MSTORE POP POP JUMP JUMPDEST PUSH1 0x40 DUP3 ADD PUSH0 DUP3 ADD MLOAD PUSH2 0xCF8 PUSH0 DUP6 ADD DUP3 PUSH2 0xC27 JUMP JUMPDEST POP PUSH1 0x20 DUP3 ADD MLOAD PUSH2 0xD0B PUSH1 0x20 DUP6 ADD DUP3 PUSH2 0xCD5 JUMP JUMPDEST POP POP POP POP JUMP JUMPDEST PUSH0 PUSH1 0x40 DUP3 ADD SWAP1 POP PUSH2 0xD24 PUSH0 DUP4 ADD DUP5 PUSH2 0xCE4 JUMP JUMPDEST SWAP3 SWAP2 POP POP JUMP JUMPDEST PUSH32 0x4E6F646520616C72656164792065786973747300000000000000000000000000 PUSH0 DUP3 ADD MSTORE POP JUMP JUMPDEST PUSH0 PUSH2 0xD5E PUSH1 0x13 DUP4 PUSH2 0xB2A JUMP JUMPDEST SWAP2 POP PUSH2 0xD69 DUP3 PUSH2 0xD2A JUMP JUMPDEST PUSH1 0x20 DUP3 ADD SWAP1 POP SWAP2 SWAP1 POP JUMP JUMPDEST PUSH0 PUSH1 0x20 DUP3 ADD SWAP1 POP DUP2 DUP2 SUB PUSH0 DUP4 ADD MSTORE PUSH2 0xD8B DUP2 PUSH2 0xD52 JUMP JUMPDEST SWAP1 POP SWAP2 SWAP1 POP JUMP JUMPDEST PUSH32 0x4E487B7100000000000000000000000000000000000000000000000000000000 PUSH0 MSTORE PUSH1 0x11 PUSH1 0x4 MSTORE PUSH1 0x24 PUSH0 REVERT JUMPDEST PUSH0 PUSH2 0xDC9 DUP3 PUSH2 0x8A9 JUMP JUMPDEST SWAP2 POP PUSH2 0xDD4 DUP4 PUSH2 0x8A9 JUMP JUMPDEST SWAP3 POP DUP3 DUP3 SUB SWAP1 POP DUP2 DUP2 GT ISZERO PUSH2 0xDEC JUMPI PUSH2 0xDEB PUSH2 0xD92 JUMP JUMPDEST JUMPDEST SWAP3 SWAP2 POP POP JUMP JUMPDEST PUSH32 0x4E487B7100000000000000000000000000000000000000000000000000000000 PUSH0 MSTORE PUSH1 0x12 PUSH1 0x4 MSTORE PUSH1 0x24 PUSH0 REVERT JUMPDEST PUSH0 PUSH2 0xE29 DUP3 PUSH2 0x8A9 JUMP JUMPDEST SWAP2 POP PUSH2 0xE34 DUP4 PUSH2 0x8A9 JUMP JUMPDEST SWAP3 POP DUP3 PUSH2 0xE44 JUMPI PUSH2 0xE43 PUSH2 0xDF2 JUMP JUMPDEST JUMPDEST DUP3 DUP3 MOD SWAP1 POP SWAP3 SWAP2 POP POP JUMP JUMPDEST PUSH0 PUSH2 0xE59 DUP3 PUSH2 0x8A9 JUMP JUMPDEST SWAP2 POP PUSH2 0xE64 DUP4 PUSH2 0x8A9 JUMP JUMPDEST SWAP3 POP DUP3 DUP3 ADD SWAP1 POP DUP1 DUP3 GT ISZERO PUSH2 0xE7C JUMPI PUSH2 0xE7B PUSH2 0xD92 JUMP JUMPDEST JUMPDEST SWAP3 SWAP2 POP POP JUMP JUMPDEST PUSH32 0x4E487B7100000000000000000000000000000000000000000000000000000000 PUSH0 MSTORE PUSH1 0x32 PUSH1 0x4 MSTORE PUSH1 0x24 PUSH0 REVERT JUMPDEST PUSH32 0x4E6F646520646F6573206E6F7420657869737400000000000000000000000000 PUSH0 DUP3 ADD MSTORE POP JUMP JUMPDEST PUSH0 PUSH2 0xEE3 PUSH1 0x13 DUP4 PUSH2 0xB2A JUMP JUMPDEST SWAP2 POP PUSH2 0xEEE DUP3 PUSH2 0xEAF JUMP JUMPDEST PUSH1 0x20 DUP3 ADD SWAP1 POP SWAP2 SWAP1 POP JUMP JUMPDEST PUSH0 PUSH1 0x20 DUP3 ADD SWAP1 POP DUP2 DUP2 SUB PUSH0 DUP4 ADD MSTORE PUSH2 0xF10 DUP2 PUSH2 0xED7 JUMP JUMPDEST SWAP1 POP SWAP2 SWAP1 POP JUMP INVALID LOG2 PUSH5 0x6970667358 0x22 SLT KECCAK256 RETURNDATASIZE DUP10 0xA5 0xE2 LOG3 0x4C 0xDD 0xC5 BYTE SWAP15 SWAP15 CALLVALUE 0x4B SWAP2 EQ 0xBB 0xB7 DUP13 RETURNDATASIZE 0xEF 0xA7 0xEB 0xE9 DUP14 0xB0 ORIGIN NUMBER JUMPDEST 0xAD JUMPDEST 0x2F 0xBF PUSH5 0x736F6C6343 STOP ADDMOD AND STOP CALLER "
		},
		"gasEstimates": {
			"creation": {
				"codeDepositCost": "783400",
				"executionCost": "816",
				"totalCost": "784216"
			},
			"external": {
				"addNode(address,uint256)": "98022",
				"allNodes(uint256)": "5032",
				"deleteChunkInNode(address,string)": "infinite",
				"findAvailableNode(uint256)": "infinite",
				"getAllNodes()": "infinite",
				"getNodeByAddress(address)": "infinite",
				"nodes(address)": "infinite",
				"retrieveChunkInNode(address,string)": "infinite",
				"storeChunkInNode(address,string)": "infinite",
				"updateAvailableStorage(address,uint256)": "25134"
			}
		},
		"methodIdentifiers": {
			"addNode(address,uint256)": "11bd77fe",
			"allNodes(uint256)": "fe72ae13",
			"deleteChunkInNode(address,string)": "50f1c985",
			"findAvailableNode(uint256)": "64f0c0b8",
			"getAllNodes()": "a1174e7d",
			"getNodeByAddress(address)": "a9860308",
			"nodes(address)": "189a5a17",
			"retrieveChunkInNode(address,string)": "2a85be1e",
			"storeChunkInNode(address,string)": "b65814a6",
			"updateAvailableStorage(address,uint256)": "b49f33c8"
		}
	},
	"abi": [
		{
			"inputs": [
				{
					"internalType": "address",
					"name": "_nodeAddress",
					"type": "address"
				},
				{
					"internalType": "uint256",
					"name": "_initialStorage",
					"type": "uint256"
				}
			],
			"name": "addNode",
			"outputs": [],
			"stateMutability": "nonpayable",
			"type": "function"
		},
		{
			"inputs": [
				{
					"internalType": "uint256",
					"name": "",
					"type": "uint256"
				}
			],
			"name": "allNodes",
			"outputs": [
				{
					"internalType": "address",
					"name": "",
					"type": "address"
				}
			],
			"stateMutability": "view",
			"type": "function"
		},
		{
			"inputs": [
				{
					"internalType": "address",
					"name": "_nodeAddress",
					"type": "address"
				},
				{
					"internalType": "string",
					"name": "_fileId",
					"type": "string"
				}
			],
			"name": "deleteChunkInNode",
			"outputs": [
				{
					"internalType": "string",
					"name": "",
					"type": "string"
				}
			],
			"stateMutability": "view",
			"type": "function"
		},
		{
			"inputs": [
				{
					"internalType": "uint256",
					"name": "_chunkSize",
					"type": "uint256"
				}
			],
			"name": "findAvailableNode",
			"outputs": [
				{
					"internalType": "address",
					"name": "",
					"type": "address"
				}
			],
			"stateMutability": "view",
			"type": "function"
		},
		{
			"inputs": [],
			"name": "getAllNodes",
			"outputs": [
				{
					"internalType": "address[]",
					"name": "",
					"type": "address[]"
				}
			],
			"stateMutability": "view",
			"type": "function"
		},
		{
			"inputs": [
				{
					"internalType": "address",
					"name": "_nodeAddress",
					"type": "address"
				}
			],
			"name": "getNodeByAddress",
			"outputs": [
				{
					"components": [
						{
							"internalType": "address",
							"name": "nodeAddress",
							"type": "address"
						},
						{
							"internalType": "uint256",
							"name": "availableStorage",
							"type": "uint256"
						}
					],
					"internalType": "struct NodeManager.Node",
					"name": "",
					"type": "tuple"
				}
			],
			"stateMutability": "view",
			"type": "function"
		},
		{
			"inputs": [
				{
					"internalType": "address",
					"name": "",
					"type": "address"
				}
			],
			"name": "nodes",
			"outputs": [
				{
					"internalType": "address",
					"name": "nodeAddress",
					"type": "address"
				},
				{
					"internalType": "uint256",
					"name": "availableStorage",
					"type": "uint256"
				}
			],
			"stateMutability": "view",
			"type": "function"
		},
		{
			"inputs": [
				{
					"internalType": "address",
					"name": "_nodeAddress",
					"type": "address"
				},
				{
					"internalType": "string",
					"name": "_fileId",
					"type": "string"
				}
			],
			"name": "retrieveChunkInNode",
			"outputs": [
				{
					"internalType": "string",
					"name": "",
					"type": "string"
				}
			],
			"stateMutability": "view",
			"type": "function"
		},
		{
			"inputs": [
				{
					"internalType": "address",
					"name": "_nodeAddress",
					"type": "address"
				},
				{
					"internalType": "string",
					"name": "_chunk",
					"type": "string"
				}
			],
			"name": "storeChunkInNode",
			"outputs": [],
			"stateMutability": "nonpayable",
			"type": "function"
		},
		{
			"inputs": [
				{
					"internalType": "address",
					"name": "_nodeAddress",
					"type": "address"
				},
				{
					"internalType": "uint256",
					"name": "_newStorage",
					"type": "uint256"
				}
			],
			"name": "updateAvailableStorage",
			"outputs": [],
			"stateMutability": "nonpayable",
			"type": "function"
		}
	]
}