{
	"data": {
		"bytecode": {
			"linkReferences": {},
			"object": "608060405234801561000f575f80fd5b506118a28061001d5f395ff3fe608060405234801561000f575f80fd5b506004361061009c575f3560e01c8063a0be4b1f11610064578063a0be4b1f14610169578063a1174e7d14610185578063a9860308146101a3578063c6e24c90146101d3578063fe72ae13146102035761009c565b806311bd77fe146100a0578063189a5a17146100bc5780632a85be1e146100ed57806350f1c9851461011d5780639e34c13414610139575b5f80fd5b6100ba60048036038101906100b59190610d59565b610233565b005b6100d660048036038101906100d19190610d97565b610451565b6040516100e4929190610de0565b60405180910390f35b61010760048036038101906101029190610f43565b61048f565b6040516101149190611017565b60405180910390f35b61013760048036038101906101329190610f43565b610644565b005b610153600480360381019061014e9190610f43565b610777565b6040516101609190611017565b60405180910390f35b610183600480360381019061017e9190611037565b610835565b005b61018d61096c565b60405161019a9190611176565b60405180910390f35b6101bd60048036038101906101b89190610d97565b6109f7565b6040516101ca91906111d2565b60405180910390f35b6101ed60048036038101906101e891906112af565b610aab565b6040516101fa9190611309565b60405180910390f35b61021d60048036038101906102189190611322565b610bfa565b60405161022a9190611309565b60405180910390f35b5f73ffffffffffffffffffffffffffffffffffffffff165f808473ffffffffffffffffffffffffffffffffffffffff1673ffffffffffffffffffffffffffffffffffffffff1681526020019081526020015f205f015f9054906101000a900473ffffffffffffffffffffffffffffffffffffffff1673ffffffffffffffffffffffffffffffffffffffff16146102fe576040517f08c379a00000000000000000000000000000000000000000000000000000000081526004016102f590611397565b60405180910390fd5b60405180604001604052808373ffffffffffffffffffffffffffffffffffffffff168152602001828152505f808473ffffffffffffffffffffffffffffffffffffffff1673ffffffffffffffffffffffffffffffffffffffff1681526020019081526020015f205f820151815f015f6101000a81548173ffffffffffffffffffffffffffffffffffffffff021916908373ffffffffffffffffffffffffffffffffffffffff160217905550602082015181600101559050507f5f91b0afd2c6ef8da92137ba907bccdc85ec4856a15ad39de3e0eff02be6d70e826040516103e59190611309565b60405180910390a1600282908060018154018082558091505060019003905f5260205f20015f9091909190916101000a81548173ffffffffffffffffffffffffffffffffffffffff021916908373ffffffffffffffffffffffffffffffffffffffff1602179055505050565b5f602052805f5260405f205f91509050805f015f9054906101000a900473ffffffffffffffffffffffffffffffffffffffff16908060010154905082565b60605f73ffffffffffffffffffffffffffffffffffffffff165f808573ffffffffffffffffffffffffffffffffffffffff1673ffffffffffffffffffffffffffffffffffffffff1681526020019081526020015f205f015f9054906101000a900473ffffffffffffffffffffffffffffffffffffffff1673ffffffffffffffffffffffffffffffffffffffff160361055c576040517f08c379a0000000000000000000000000000000000000000000000000000000008152600401610553906113ff565b60405180910390fd5b60015f8473ffffffffffffffffffffffffffffffffffffffff1673ffffffffffffffffffffffffffffffffffffffff1681526020019081526020015f20826040516105a79190611457565b908152602001604051809103902080546105c09061149a565b80601f01602080910402602001604051908101604052809291908181526020018280546105ec9061149a565b80156106375780601f1061060e57610100808354040283529160200191610637565b820191905f5260205f20905b81548152906001019060200180831161061a57829003601f168201915b5050505050905092915050565b5f73ffffffffffffffffffffffffffffffffffffffff165f808473ffffffffffffffffffffffffffffffffffffffff1673ffffffffffffffffffffffffffffffffffffffff1681526020019081526020015f205f015f9054906101000a900473ffffffffffffffffffffffffffffffffffffffff1673ffffffffffffffffffffffffffffffffffffffff160361070f576040517f08c379a0000000000000000000000000000000000000000000000000000000008152600401610706906113ff565b60405180910390fd5b60015f8373ffffffffffffffffffffffffffffffffffffffff1673ffffffffffffffffffffffffffffffffffffffff1681526020019081526020015f208160405161075a9190611457565b90815260200160405180910390205f6107739190610c35565b5050565b6001602052815f5260405f20818051602081018201805184825260208301602085012081835280955050505050505f915091505080546107b69061149a565b80601f01602080910402602001604051908101604052809291908181526020018280546107e29061149a565b801561082d5780601f106108045761010080835404028352916020019161082d565b820191905f5260205f20905b81548152906001019060200180831161081057829003601f168201915b505050505081565b5f73ffffffffffffffffffffffffffffffffffffffff165f808573ffffffffffffffffffffffffffffffffffffffff1673ffffffffffffffffffffffffffffffffffffffff1681526020019081526020015f205f015f9054906101000a900473ffffffffffffffffffffffffffffffffffffffff1673ffffffffffffffffffffffffffffffffffffffff1603610900576040517f08c379a00000000000000000000000000000000000000000000000000000000081526004016108f7906113ff565b60405180910390fd5b8160015f8573ffffffffffffffffffffffffffffffffffffffff1673ffffffffffffffffffffffffffffffffffffffff1681526020019081526020015f208260405161094c9190611457565b908152602001604051809103902090816109669190611667565b50505050565b606060028054806020026020016040519081016040528092919081815260200182805480156109ed57602002820191905f5260205f20905b815f9054906101000a900473ffffffffffffffffffffffffffffffffffffffff1673ffffffffffffffffffffffffffffffffffffffff16815260200190600101908083116109a4575b5050505050905090565b6109ff610c72565b5f808373ffffffffffffffffffffffffffffffffffffffff1673ffffffffffffffffffffffffffffffffffffffff1681526020019081526020015f206040518060400160405290815f82015f9054906101000a900473ffffffffffffffffffffffffffffffffffffffff1673ffffffffffffffffffffffffffffffffffffffff1673ffffffffffffffffffffffffffffffffffffffff1681526020016001820154815250509050919050565b5f8060028054905090505f603290505f8203610acb575f92505050610bf4565b5f82600143610ada9190611763565b405f1c610ae791906117c3565b90505f5b83811015610bec575f6002858385610b0391906117f3565b610b0d91906117c3565b81548110610b1e57610b1d611826565b5b905f5260205f20015f9054906101000a900473ffffffffffffffffffffffffffffffffffffffff1690507f0838d04243391d45d94a98fff54d1737cbffea86c34ab825e5d6980ec9b7723583604051610b779190611853565b60405180910390a18388610b8b91906117f3565b5f808373ffffffffffffffffffffffffffffffffffffffff1673ffffffffffffffffffffffffffffffffffffffff1681526020019081526020015f20600101541115610bde578095505050505050610bf4565b508080600101915050610aeb565b505f93505050505b92915050565b60028181548110610c09575f80fd5b905f5260205f20015f915054906101000a900473ffffffffffffffffffffffffffffffffffffffff1681565b508054610c419061149a565b5f825580601f10610c525750610c6f565b601f0160209004905f5260205f2090810190610c6e9190610ca0565b5b50565b60405180604001604052805f73ffffffffffffffffffffffffffffffffffffffff1681526020015f81525090565b5b80821115610cb7575f815f905550600101610ca1565b5090565b5f604051905090565b5f80fd5b5f80fd5b5f73ffffffffffffffffffffffffffffffffffffffff82169050919050565b5f610cf582610ccc565b9050919050565b610d0581610ceb565b8114610d0f575f80fd5b50565b5f81359050610d2081610cfc565b92915050565b5f819050919050565b610d3881610d26565b8114610d42575f80fd5b50565b5f81359050610d5381610d2f565b92915050565b5f8060408385031215610d6f57610d6e610cc4565b5b5f610d7c85828601610d12565b9250506020610d8d85828601610d45565b9150509250929050565b5f60208284031215610dac57610dab610cc4565b5b5f610db984828501610d12565b91505092915050565b610dcb81610ceb565b82525050565b610dda81610d26565b82525050565b5f604082019050610df35f830185610dc2565b610e006020830184610dd1565b9392505050565b5f80fd5b5f80fd5b5f601f19601f8301169050919050565b7f4e487b71000000000000000000000000000000000000000000000000000000005f52604160045260245ffd5b610e5582610e0f565b810181811067ffffffffffffffff82111715610e7457610e73610e1f565b5b80604052505050565b5f610e86610cbb565b9050610e928282610e4c565b919050565b5f67ffffffffffffffff821115610eb157610eb0610e1f565b5b610eba82610e0f565b9050602081019050919050565b828183375f83830152505050565b5f610ee7610ee284610e97565b610e7d565b905082815260208101848484011115610f0357610f02610e0b565b5b610f0e848285610ec7565b509392505050565b5f82601f830112610f2a57610f29610e07565b5b8135610f3a848260208601610ed5565b91505092915050565b5f8060408385031215610f5957610f58610cc4565b5b5f610f6685828601610d12565b925050602083013567ffffffffffffffff811115610f8757610f86610cc8565b5b610f9385828601610f16565b9150509250929050565b5f81519050919050565b5f82825260208201905092915050565b5f5b83811015610fd4578082015181840152602081019050610fb9565b5f8484015250505050565b5f610fe982610f9d565b610ff38185610fa7565b9350611003818560208601610fb7565b61100c81610e0f565b840191505092915050565b5f6020820190508181035f83015261102f8184610fdf565b905092915050565b5f805f6060848603121561104e5761104d610cc4565b5b5f61105b86828701610d12565b935050602084013567ffffffffffffffff81111561107c5761107b610cc8565b5b61108886828701610f16565b925050604084013567ffffffffffffffff8111156110a9576110a8610cc8565b5b6110b586828701610f16565b9150509250925092565b5f81519050919050565b5f82825260208201905092915050565b5f819050602082019050919050565b6110f181610ceb565b82525050565b5f61110283836110e8565b60208301905092915050565b5f602082019050919050565b5f611124826110bf565b61112e81856110c9565b9350611139836110d9565b805f5b8381101561116957815161115088826110f7565b975061115b8361110e565b92505060018101905061113c565b5085935050505092915050565b5f6020820190508181035f83015261118e818461111a565b905092915050565b61119f81610d26565b82525050565b604082015f8201516111b95f8501826110e8565b5060208201516111cc6020850182611196565b50505050565b5f6040820190506111e55f8301846111a5565b92915050565b5f67ffffffffffffffff82111561120557611204610e1f565b5b602082029050602081019050919050565b5f80fd5b5f61122c611227846111eb565b610e7d565b9050808382526020820190506020840283018581111561124f5761124e611216565b5b835b8181101561127857806112648882610d12565b845260208401935050602081019050611251565b5050509392505050565b5f82601f83011261129657611295610e07565b5b81356112a684826020860161121a565b91505092915050565b5f80604083850312156112c5576112c4610cc4565b5b5f6112d285828601610d45565b925050602083013567ffffffffffffffff8111156112f3576112f2610cc8565b5b6112ff85828601611282565b9150509250929050565b5f60208201905061131c5f830184610dc2565b92915050565b5f6020828403121561133757611336610cc4565b5b5f61134484828501610d45565b91505092915050565b7f4e6f646520616c726561647920657869737473000000000000000000000000005f82015250565b5f611381601383610fa7565b915061138c8261134d565b602082019050919050565b5f6020820190508181035f8301526113ae81611375565b9050919050565b7f4e6f646520646f6573206e6f74206578697374000000000000000000000000005f82015250565b5f6113e9601383610fa7565b91506113f4826113b5565b602082019050919050565b5f6020820190508181035f830152611416816113dd565b9050919050565b5f81905092915050565b5f61143182610f9d565b61143b818561141d565b935061144b818560208601610fb7565b80840191505092915050565b5f6114628284611427565b915081905092915050565b7f4e487b71000000000000000000000000000000000000000000000000000000005f52602260045260245ffd5b5f60028204905060018216806114b157607f821691505b6020821081036114c4576114c361146d565b5b50919050565b5f819050815f5260205f209050919050565b5f6020601f8301049050919050565b5f82821b905092915050565b5f600883026115267fffffffffffffffffffffffffffffffffffffffffffffffffffffffffffffffff826114eb565b61153086836114eb565b95508019841693508086168417925050509392505050565b5f819050919050565b5f61156b61156661156184610d26565b611548565b610d26565b9050919050565b5f819050919050565b61158483611551565b61159861159082611572565b8484546114f7565b825550505050565b5f90565b6115ac6115a0565b6115b781848461157b565b505050565b5b818110156115da576115cf5f826115a4565b6001810190506115bd565b5050565b601f82111561161f576115f0816114ca565b6115f9846114dc565b81016020851015611608578190505b61161c611614856114dc565b8301826115bc565b50505b505050565b5f82821c905092915050565b5f61163f5f1984600802611624565b1980831691505092915050565b5f6116578383611630565b9150826002028217905092915050565b61167082610f9d565b67ffffffffffffffff81111561168957611688610e1f565b5b611693825461149a565b61169e8282856115de565b5f60209050601f8311600181146116cf575f84156116bd578287015190505b6116c7858261164c565b86555061172e565b601f1984166116dd866114ca565b5f5b82811015611704578489015182556001820191506020850194506020810190506116df565b86831015611721578489015161171d601f891682611630565b8355505b6001600288020188555050505b505050505050565b7f4e487b71000000000000000000000000000000000000000000000000000000005f52601160045260245ffd5b5f61176d82610d26565b915061177883610d26565b92508282039050818111156117905761178f611736565b5b92915050565b7f4e487b71000000000000000000000000000000000000000000000000000000005f52601260045260245ffd5b5f6117cd82610d26565b91506117d883610d26565b9250826117e8576117e7611796565b5b828206905092915050565b5f6117fd82610d26565b915061180883610d26565b92508282019050808211156118205761181f611736565b5b92915050565b7f4e487b71000000000000000000000000000000000000000000000000000000005f52603260045260245ffd5b5f6020820190506118665f830184610dd1565b9291505056fea26469706673582212206e512349ed77aba32536050e41c2e2c2262aae49afb40577f6aebc59be03d98b64736f6c63430008160033",
			"opcodes": "PUSH1 0x80 PUSH1 0x40 MSTORE CALLVALUE DUP1 ISZERO PUSH2 0xF JUMPI PUSH0 DUP1 REVERT JUMPDEST POP PUSH2 0x18A2 DUP1 PUSH2 0x1D PUSH0 CODECOPY PUSH0 RETURN INVALID PUSH1 0x80 PUSH1 0x40 MSTORE CALLVALUE DUP1 ISZERO PUSH2 0xF JUMPI PUSH0 DUP1 REVERT JUMPDEST POP PUSH1 0x4 CALLDATASIZE LT PUSH2 0x9C JUMPI PUSH0 CALLDATALOAD PUSH1 0xE0 SHR DUP1 PUSH4 0xA0BE4B1F GT PUSH2 0x64 JUMPI DUP1 PUSH4 0xA0BE4B1F EQ PUSH2 0x169 JUMPI DUP1 PUSH4 0xA1174E7D EQ PUSH2 0x185 JUMPI DUP1 PUSH4 0xA9860308 EQ PUSH2 0x1A3 JUMPI DUP1 PUSH4 0xC6E24C90 EQ PUSH2 0x1D3 JUMPI DUP1 PUSH4 0xFE72AE13 EQ PUSH2 0x203 JUMPI PUSH2 0x9C JUMP JUMPDEST DUP1 PUSH4 0x11BD77FE EQ PUSH2 0xA0 JUMPI DUP1 PUSH4 0x189A5A17 EQ PUSH2 0xBC JUMPI DUP1 PUSH4 0x2A85BE1E EQ PUSH2 0xED JUMPI DUP1 PUSH4 0x50F1C985 EQ PUSH2 0x11D JUMPI DUP1 PUSH4 0x9E34C134 EQ PUSH2 0x139 JUMPI JUMPDEST PUSH0 DUP1 REVERT JUMPDEST PUSH2 0xBA PUSH1 0x4 DUP1 CALLDATASIZE SUB DUP2 ADD SWAP1 PUSH2 0xB5 SWAP2 SWAP1 PUSH2 0xD59 JUMP JUMPDEST PUSH2 0x233 JUMP JUMPDEST STOP JUMPDEST PUSH2 0xD6 PUSH1 0x4 DUP1 CALLDATASIZE SUB DUP2 ADD SWAP1 PUSH2 0xD1 SWAP2 SWAP1 PUSH2 0xD97 JUMP JUMPDEST PUSH2 0x451 JUMP JUMPDEST PUSH1 0x40 MLOAD PUSH2 0xE4 SWAP3 SWAP2 SWAP1 PUSH2 0xDE0 JUMP JUMPDEST PUSH1 0x40 MLOAD DUP1 SWAP2 SUB SWAP1 RETURN JUMPDEST PUSH2 0x107 PUSH1 0x4 DUP1 CALLDATASIZE SUB DUP2 ADD SWAP1 PUSH2 0x102 SWAP2 SWAP1 PUSH2 0xF43 JUMP JUMPDEST PUSH2 0x48F JUMP JUMPDEST PUSH1 0x40 MLOAD PUSH2 0x114 SWAP2 SWAP1 PUSH2 0x1017 JUMP JUMPDEST PUSH1 0x40 MLOAD DUP1 SWAP2 SUB SWAP1 RETURN JUMPDEST PUSH2 0x137 PUSH1 0x4 DUP1 CALLDATASIZE SUB DUP2 ADD SWAP1 PUSH2 0x132 SWAP2 SWAP1 PUSH2 0xF43 JUMP JUMPDEST PUSH2 0x644 JUMP JUMPDEST STOP JUMPDEST PUSH2 0x153 PUSH1 0x4 DUP1 CALLDATASIZE SUB DUP2 ADD SWAP1 PUSH2 0x14E SWAP2 SWAP1 PUSH2 0xF43 JUMP JUMPDEST PUSH2 0x777 JUMP JUMPDEST PUSH1 0x40 MLOAD PUSH2 0x160 SWAP2 SWAP1 PUSH2 0x1017 JUMP JUMPDEST PUSH1 0x40 MLOAD DUP1 SWAP2 SUB SWAP1 RETURN JUMPDEST PUSH2 0x183 PUSH1 0x4 DUP1 CALLDATASIZE SUB DUP2 ADD SWAP1 PUSH2 0x17E SWAP2 SWAP1 PUSH2 0x1037 JUMP JUMPDEST PUSH2 0x835 JUMP JUMPDEST STOP JUMPDEST PUSH2 0x18D PUSH2 0x96C JUMP JUMPDEST PUSH1 0x40 MLOAD PUSH2 0x19A SWAP2 SWAP1 PUSH2 0x1176 JUMP JUMPDEST PUSH1 0x40 MLOAD DUP1 SWAP2 SUB SWAP1 RETURN JUMPDEST PUSH2 0x1BD PUSH1 0x4 DUP1 CALLDATASIZE SUB DUP2 ADD SWAP1 PUSH2 0x1B8 SWAP2 SWAP1 PUSH2 0xD97 JUMP JUMPDEST PUSH2 0x9F7 JUMP JUMPDEST PUSH1 0x40 MLOAD PUSH2 0x1CA SWAP2 SWAP1 PUSH2 0x11D2 JUMP JUMPDEST PUSH1 0x40 MLOAD DUP1 SWAP2 SUB SWAP1 RETURN JUMPDEST PUSH2 0x1ED PUSH1 0x4 DUP1 CALLDATASIZE SUB DUP2 ADD SWAP1 PUSH2 0x1E8 SWAP2 SWAP1 PUSH2 0x12AF JUMP JUMPDEST PUSH2 0xAAB JUMP JUMPDEST PUSH1 0x40 MLOAD PUSH2 0x1FA SWAP2 SWAP1 PUSH2 0x1309 JUMP JUMPDEST PUSH1 0x40 MLOAD DUP1 SWAP2 SUB SWAP1 RETURN JUMPDEST PUSH2 0x21D PUSH1 0x4 DUP1 CALLDATASIZE SUB DUP2 ADD SWAP1 PUSH2 0x218 SWAP2 SWAP1 PUSH2 0x1322 JUMP JUMPDEST PUSH2 0xBFA JUMP JUMPDEST PUSH1 0x40 MLOAD PUSH2 0x22A SWAP2 SWAP1 PUSH2 0x1309 JUMP JUMPDEST PUSH1 0x40 MLOAD DUP1 SWAP2 SUB SWAP1 RETURN JUMPDEST PUSH0 PUSH20 0xFFFFFFFFFFFFFFFFFFFFFFFFFFFFFFFFFFFFFFFF AND PUSH0 DUP1 DUP5 PUSH20 0xFFFFFFFFFFFFFFFFFFFFFFFFFFFFFFFFFFFFFFFF AND PUSH20 0xFFFFFFFFFFFFFFFFFFFFFFFFFFFFFFFFFFFFFFFF AND DUP2 MSTORE PUSH1 0x20 ADD SWAP1 DUP2 MSTORE PUSH1 0x20 ADD PUSH0 KECCAK256 PUSH0 ADD PUSH0 SWAP1 SLOAD SWAP1 PUSH2 0x100 EXP SWAP1 DIV PUSH20 0xFFFFFFFFFFFFFFFFFFFFFFFFFFFFFFFFFFFFFFFF AND PUSH20 0xFFFFFFFFFFFFFFFFFFFFFFFFFFFFFFFFFFFFFFFF AND EQ PUSH2 0x2FE JUMPI PUSH1 0x40 MLOAD PUSH32 0x8C379A000000000000000000000000000000000000000000000000000000000 DUP2 MSTORE PUSH1 0x4 ADD PUSH2 0x2F5 SWAP1 PUSH2 0x1397 JUMP JUMPDEST PUSH1 0x40 MLOAD DUP1 SWAP2 SUB SWAP1 REVERT JUMPDEST PUSH1 0x40 MLOAD DUP1 PUSH1 0x40 ADD PUSH1 0x40 MSTORE DUP1 DUP4 PUSH20 0xFFFFFFFFFFFFFFFFFFFFFFFFFFFFFFFFFFFFFFFF AND DUP2 MSTORE PUSH1 0x20 ADD DUP3 DUP2 MSTORE POP PUSH0 DUP1 DUP5 PUSH20 0xFFFFFFFFFFFFFFFFFFFFFFFFFFFFFFFFFFFFFFFF AND PUSH20 0xFFFFFFFFFFFFFFFFFFFFFFFFFFFFFFFFFFFFFFFF AND DUP2 MSTORE PUSH1 0x20 ADD SWAP1 DUP2 MSTORE PUSH1 0x20 ADD PUSH0 KECCAK256 PUSH0 DUP3 ADD MLOAD DUP2 PUSH0 ADD PUSH0 PUSH2 0x100 EXP DUP2 SLOAD DUP2 PUSH20 0xFFFFFFFFFFFFFFFFFFFFFFFFFFFFFFFFFFFFFFFF MUL NOT AND SWAP1 DUP4 PUSH20 0xFFFFFFFFFFFFFFFFFFFFFFFFFFFFFFFFFFFFFFFF AND MUL OR SWAP1 SSTORE POP PUSH1 0x20 DUP3 ADD MLOAD DUP2 PUSH1 0x1 ADD SSTORE SWAP1 POP POP PUSH32 0x5F91B0AFD2C6EF8DA92137BA907BCCDC85EC4856A15AD39DE3E0EFF02BE6D70E DUP3 PUSH1 0x40 MLOAD PUSH2 0x3E5 SWAP2 SWAP1 PUSH2 0x1309 JUMP JUMPDEST PUSH1 0x40 MLOAD DUP1 SWAP2 SUB SWAP1 LOG1 PUSH1 0x2 DUP3 SWAP1 DUP1 PUSH1 0x1 DUP2 SLOAD ADD DUP1 DUP3 SSTORE DUP1 SWAP2 POP POP PUSH1 0x1 SWAP1 SUB SWAP1 PUSH0 MSTORE PUSH1 0x20 PUSH0 KECCAK256 ADD PUSH0 SWAP1 SWAP2 SWAP1 SWAP2 SWAP1 SWAP2 PUSH2 0x100 EXP DUP2 SLOAD DUP2 PUSH20 0xFFFFFFFFFFFFFFFFFFFFFFFFFFFFFFFFFFFFFFFF MUL NOT AND SWAP1 DUP4 PUSH20 0xFFFFFFFFFFFFFFFFFFFFFFFFFFFFFFFFFFFFFFFF AND MUL OR SWAP1 SSTORE POP POP POP JUMP JUMPDEST PUSH0 PUSH1 0x20 MSTORE DUP1 PUSH0 MSTORE PUSH1 0x40 PUSH0 KECCAK256 PUSH0 SWAP2 POP SWAP1 POP DUP1 PUSH0 ADD PUSH0 SWAP1 SLOAD SWAP1 PUSH2 0x100 EXP SWAP1 DIV PUSH20 0xFFFFFFFFFFFFFFFFFFFFFFFFFFFFFFFFFFFFFFFF AND SWAP1 DUP1 PUSH1 0x1 ADD SLOAD SWAP1 POP DUP3 JUMP JUMPDEST PUSH1 0x60 PUSH0 PUSH20 0xFFFFFFFFFFFFFFFFFFFFFFFFFFFFFFFFFFFFFFFF AND PUSH0 DUP1 DUP6 PUSH20 0xFFFFFFFFFFFFFFFFFFFFFFFFFFFFFFFFFFFFFFFF AND PUSH20 0xFFFFFFFFFFFFFFFFFFFFFFFFFFFFFFFFFFFFFFFF AND DUP2 MSTORE PUSH1 0x20 ADD SWAP1 DUP2 MSTORE PUSH1 0x20 ADD PUSH0 KECCAK256 PUSH0 ADD PUSH0 SWAP1 SLOAD SWAP1 PUSH2 0x100 EXP SWAP1 DIV PUSH20 0xFFFFFFFFFFFFFFFFFFFFFFFFFFFFFFFFFFFFFFFF AND PUSH20 0xFFFFFFFFFFFFFFFFFFFFFFFFFFFFFFFFFFFFFFFF AND SUB PUSH2 0x55C JUMPI PUSH1 0x40 MLOAD PUSH32 0x8C379A000000000000000000000000000000000000000000000000000000000 DUP2 MSTORE PUSH1 0x4 ADD PUSH2 0x553 SWAP1 PUSH2 0x13FF JUMP JUMPDEST PUSH1 0x40 MLOAD DUP1 SWAP2 SUB SWAP1 REVERT JUMPDEST PUSH1 0x1 PUSH0 DUP5 PUSH20 0xFFFFFFFFFFFFFFFFFFFFFFFFFFFFFFFFFFFFFFFF AND PUSH20 0xFFFFFFFFFFFFFFFFFFFFFFFFFFFFFFFFFFFFFFFF AND DUP2 MSTORE PUSH1 0x20 ADD SWAP1 DUP2 MSTORE PUSH1 0x20 ADD PUSH0 KECCAK256 DUP3 PUSH1 0x40 MLOAD PUSH2 0x5A7 SWAP2 SWAP1 PUSH2 0x1457 JUMP JUMPDEST SWAP1 DUP2 MSTORE PUSH1 0x20 ADD PUSH1 0x40 MLOAD DUP1 SWAP2 SUB SWAP1 KECCAK256 DUP1 SLOAD PUSH2 0x5C0 SWAP1 PUSH2 0x149A JUMP JUMPDEST DUP1 PUSH1 0x1F ADD PUSH1 0x20 DUP1 SWAP2 DIV MUL PUSH1 0x20 ADD PUSH1 0x40 MLOAD SWAP1 DUP2 ADD PUSH1 0x40 MSTORE DUP1 SWAP3 SWAP2 SWAP1 DUP2 DUP2 MSTORE PUSH1 0x20 ADD DUP3 DUP1 SLOAD PUSH2 0x5EC SWAP1 PUSH2 0x149A JUMP JUMPDEST DUP1 ISZERO PUSH2 0x637 JUMPI DUP1 PUSH1 0x1F LT PUSH2 0x60E JUMPI PUSH2 0x100 DUP1 DUP4 SLOAD DIV MUL DUP4 MSTORE SWAP2 PUSH1 0x20 ADD SWAP2 PUSH2 0x637 JUMP JUMPDEST DUP3 ADD SWAP2 SWAP1 PUSH0 MSTORE PUSH1 0x20 PUSH0 KECCAK256 SWAP1 JUMPDEST DUP2 SLOAD DUP2 MSTORE SWAP1 PUSH1 0x1 ADD SWAP1 PUSH1 0x20 ADD DUP1 DUP4 GT PUSH2 0x61A JUMPI DUP3 SWAP1 SUB PUSH1 0x1F AND DUP3 ADD SWAP2 JUMPDEST POP POP POP POP POP SWAP1 POP SWAP3 SWAP2 POP POP JUMP JUMPDEST PUSH0 PUSH20 0xFFFFFFFFFFFFFFFFFFFFFFFFFFFFFFFFFFFFFFFF AND PUSH0 DUP1 DUP5 PUSH20 0xFFFFFFFFFFFFFFFFFFFFFFFFFFFFFFFFFFFFFFFF AND PUSH20 0xFFFFFFFFFFFFFFFFFFFFFFFFFFFFFFFFFFFFFFFF AND DUP2 MSTORE PUSH1 0x20 ADD SWAP1 DUP2 MSTORE PUSH1 0x20 ADD PUSH0 KECCAK256 PUSH0 ADD PUSH0 SWAP1 SLOAD SWAP1 PUSH2 0x100 EXP SWAP1 DIV PUSH20 0xFFFFFFFFFFFFFFFFFFFFFFFFFFFFFFFFFFFFFFFF AND PUSH20 0xFFFFFFFFFFFFFFFFFFFFFFFFFFFFFFFFFFFFFFFF AND SUB PUSH2 0x70F JUMPI PUSH1 0x40 MLOAD PUSH32 0x8C379A000000000000000000000000000000000000000000000000000000000 DUP2 MSTORE PUSH1 0x4 ADD PUSH2 0x706 SWAP1 PUSH2 0x13FF JUMP JUMPDEST PUSH1 0x40 MLOAD DUP1 SWAP2 SUB SWAP1 REVERT JUMPDEST PUSH1 0x1 PUSH0 DUP4 PUSH20 0xFFFFFFFFFFFFFFFFFFFFFFFFFFFFFFFFFFFFFFFF AND PUSH20 0xFFFFFFFFFFFFFFFFFFFFFFFFFFFFFFFFFFFFFFFF AND DUP2 MSTORE PUSH1 0x20 ADD SWAP1 DUP2 MSTORE PUSH1 0x20 ADD PUSH0 KECCAK256 DUP2 PUSH1 0x40 MLOAD PUSH2 0x75A SWAP2 SWAP1 PUSH2 0x1457 JUMP JUMPDEST SWAP1 DUP2 MSTORE PUSH1 0x20 ADD PUSH1 0x40 MLOAD DUP1 SWAP2 SUB SWAP1 KECCAK256 PUSH0 PUSH2 0x773 SWAP2 SWAP1 PUSH2 0xC35 JUMP JUMPDEST POP POP JUMP JUMPDEST PUSH1 0x1 PUSH1 0x20 MSTORE DUP2 PUSH0 MSTORE PUSH1 0x40 PUSH0 KECCAK256 DUP2 DUP1 MLOAD PUSH1 0x20 DUP2 ADD DUP3 ADD DUP1 MLOAD DUP5 DUP3 MSTORE PUSH1 0x20 DUP4 ADD PUSH1 0x20 DUP6 ADD KECCAK256 DUP2 DUP4 MSTORE DUP1 SWAP6 POP POP POP POP POP POP PUSH0 SWAP2 POP SWAP2 POP POP DUP1 SLOAD PUSH2 0x7B6 SWAP1 PUSH2 0x149A JUMP JUMPDEST DUP1 PUSH1 0x1F ADD PUSH1 0x20 DUP1 SWAP2 DIV MUL PUSH1 0x20 ADD PUSH1 0x40 MLOAD SWAP1 DUP2 ADD PUSH1 0x40 MSTORE DUP1 SWAP3 SWAP2 SWAP1 DUP2 DUP2 MSTORE PUSH1 0x20 ADD DUP3 DUP1 SLOAD PUSH2 0x7E2 SWAP1 PUSH2 0x149A JUMP JUMPDEST DUP1 ISZERO PUSH2 0x82D JUMPI DUP1 PUSH1 0x1F LT PUSH2 0x804 JUMPI PUSH2 0x100 DUP1 DUP4 SLOAD DIV MUL DUP4 MSTORE SWAP2 PUSH1 0x20 ADD SWAP2 PUSH2 0x82D JUMP JUMPDEST DUP3 ADD SWAP2 SWAP1 PUSH0 MSTORE PUSH1 0x20 PUSH0 KECCAK256 SWAP1 JUMPDEST DUP2 SLOAD DUP2 MSTORE SWAP1 PUSH1 0x1 ADD SWAP1 PUSH1 0x20 ADD DUP1 DUP4 GT PUSH2 0x810 JUMPI DUP3 SWAP1 SUB PUSH1 0x1F AND DUP3 ADD SWAP2 JUMPDEST POP POP POP POP POP DUP2 JUMP JUMPDEST PUSH0 PUSH20 0xFFFFFFFFFFFFFFFFFFFFFFFFFFFFFFFFFFFFFFFF AND PUSH0 DUP1 DUP6 PUSH20 0xFFFFFFFFFFFFFFFFFFFFFFFFFFFFFFFFFFFFFFFF AND PUSH20 0xFFFFFFFFFFFFFFFFFFFFFFFFFFFFFFFFFFFFFFFF AND DUP2 MSTORE PUSH1 0x20 ADD SWAP1 DUP2 MSTORE PUSH1 0x20 ADD PUSH0 KECCAK256 PUSH0 ADD PUSH0 SWAP1 SLOAD SWAP1 PUSH2 0x100 EXP SWAP1 DIV PUSH20 0xFFFFFFFFFFFFFFFFFFFFFFFFFFFFFFFFFFFFFFFF AND PUSH20 0xFFFFFFFFFFFFFFFFFFFFFFFFFFFFFFFFFFFFFFFF AND SUB PUSH2 0x900 JUMPI PUSH1 0x40 MLOAD PUSH32 0x8C379A000000000000000000000000000000000000000000000000000000000 DUP2 MSTORE PUSH1 0x4 ADD PUSH2 0x8F7 SWAP1 PUSH2 0x13FF JUMP JUMPDEST PUSH1 0x40 MLOAD DUP1 SWAP2 SUB SWAP1 REVERT JUMPDEST DUP2 PUSH1 0x1 PUSH0 DUP6 PUSH20 0xFFFFFFFFFFFFFFFFFFFFFFFFFFFFFFFFFFFFFFFF AND PUSH20 0xFFFFFFFFFFFFFFFFFFFFFFFFFFFFFFFFFFFFFFFF AND DUP2 MSTORE PUSH1 0x20 ADD SWAP1 DUP2 MSTORE PUSH1 0x20 ADD PUSH0 KECCAK256 DUP3 PUSH1 0x40 MLOAD PUSH2 0x94C SWAP2 SWAP1 PUSH2 0x1457 JUMP JUMPDEST SWAP1 DUP2 MSTORE PUSH1 0x20 ADD PUSH1 0x40 MLOAD DUP1 SWAP2 SUB SWAP1 KECCAK256 SWAP1 DUP2 PUSH2 0x966 SWAP2 SWAP1 PUSH2 0x1667 JUMP JUMPDEST POP POP POP POP JUMP JUMPDEST PUSH1 0x60 PUSH1 0x2 DUP1 SLOAD DUP1 PUSH1 0x20 MUL PUSH1 0x20 ADD PUSH1 0x40 MLOAD SWAP1 DUP2 ADD PUSH1 0x40 MSTORE DUP1 SWAP3 SWAP2 SWAP1 DUP2 DUP2 MSTORE PUSH1 0x20 ADD DUP3 DUP1 SLOAD DUP1 ISZERO PUSH2 0x9ED JUMPI PUSH1 0x20 MUL DUP3 ADD SWAP2 SWAP1 PUSH0 MSTORE PUSH1 0x20 PUSH0 KECCAK256 SWAP1 JUMPDEST DUP2 PUSH0 SWAP1 SLOAD SWAP1 PUSH2 0x100 EXP SWAP1 DIV PUSH20 0xFFFFFFFFFFFFFFFFFFFFFFFFFFFFFFFFFFFFFFFF AND PUSH20 0xFFFFFFFFFFFFFFFFFFFFFFFFFFFFFFFFFFFFFFFF AND DUP2 MSTORE PUSH1 0x20 ADD SWAP1 PUSH1 0x1 ADD SWAP1 DUP1 DUP4 GT PUSH2 0x9A4 JUMPI JUMPDEST POP POP POP POP POP SWAP1 POP SWAP1 JUMP JUMPDEST PUSH2 0x9FF PUSH2 0xC72 JUMP JUMPDEST PUSH0 DUP1 DUP4 PUSH20 0xFFFFFFFFFFFFFFFFFFFFFFFFFFFFFFFFFFFFFFFF AND PUSH20 0xFFFFFFFFFFFFFFFFFFFFFFFFFFFFFFFFFFFFFFFF AND DUP2 MSTORE PUSH1 0x20 ADD SWAP1 DUP2 MSTORE PUSH1 0x20 ADD PUSH0 KECCAK256 PUSH1 0x40 MLOAD DUP1 PUSH1 0x40 ADD PUSH1 0x40 MSTORE SWAP1 DUP2 PUSH0 DUP3 ADD PUSH0 SWAP1 SLOAD SWAP1 PUSH2 0x100 EXP SWAP1 DIV PUSH20 0xFFFFFFFFFFFFFFFFFFFFFFFFFFFFFFFFFFFFFFFF AND PUSH20 0xFFFFFFFFFFFFFFFFFFFFFFFFFFFFFFFFFFFFFFFF AND PUSH20 0xFFFFFFFFFFFFFFFFFFFFFFFFFFFFFFFFFFFFFFFF AND DUP2 MSTORE PUSH1 0x20 ADD PUSH1 0x1 DUP3 ADD SLOAD DUP2 MSTORE POP POP SWAP1 POP SWAP2 SWAP1 POP JUMP JUMPDEST PUSH0 DUP1 PUSH1 0x2 DUP1 SLOAD SWAP1 POP SWAP1 POP PUSH0 PUSH1 0x32 SWAP1 POP PUSH0 DUP3 SUB PUSH2 0xACB JUMPI PUSH0 SWAP3 POP POP POP PUSH2 0xBF4 JUMP JUMPDEST PUSH0 DUP3 PUSH1 0x1 NUMBER PUSH2 0xADA SWAP2 SWAP1 PUSH2 0x1763 JUMP JUMPDEST BLOCKHASH PUSH0 SHR PUSH2 0xAE7 SWAP2 SWAP1 PUSH2 0x17C3 JUMP JUMPDEST SWAP1 POP PUSH0 JUMPDEST DUP4 DUP2 LT ISZERO PUSH2 0xBEC JUMPI PUSH0 PUSH1 0x2 DUP6 DUP4 DUP6 PUSH2 0xB03 SWAP2 SWAP1 PUSH2 0x17F3 JUMP JUMPDEST PUSH2 0xB0D SWAP2 SWAP1 PUSH2 0x17C3 JUMP JUMPDEST DUP2 SLOAD DUP2 LT PUSH2 0xB1E JUMPI PUSH2 0xB1D PUSH2 0x1826 JUMP JUMPDEST JUMPDEST SWAP1 PUSH0 MSTORE PUSH1 0x20 PUSH0 KECCAK256 ADD PUSH0 SWAP1 SLOAD SWAP1 PUSH2 0x100 EXP SWAP1 DIV PUSH20 0xFFFFFFFFFFFFFFFFFFFFFFFFFFFFFFFFFFFFFFFF AND SWAP1 POP PUSH32 0x838D04243391D45D94A98FFF54D1737CBFFEA86C34AB825E5D6980EC9B77235 DUP4 PUSH1 0x40 MLOAD PUSH2 0xB77 SWAP2 SWAP1 PUSH2 0x1853 JUMP JUMPDEST PUSH1 0x40 MLOAD DUP1 SWAP2 SUB SWAP1 LOG1 DUP4 DUP9 PUSH2 0xB8B SWAP2 SWAP1 PUSH2 0x17F3 JUMP JUMPDEST PUSH0 DUP1 DUP4 PUSH20 0xFFFFFFFFFFFFFFFFFFFFFFFFFFFFFFFFFFFFFFFF AND PUSH20 0xFFFFFFFFFFFFFFFFFFFFFFFFFFFFFFFFFFFFFFFF AND DUP2 MSTORE PUSH1 0x20 ADD SWAP1 DUP2 MSTORE PUSH1 0x20 ADD PUSH0 KECCAK256 PUSH1 0x1 ADD SLOAD GT ISZERO PUSH2 0xBDE JUMPI DUP1 SWAP6 POP POP POP POP POP POP PUSH2 0xBF4 JUMP JUMPDEST POP DUP1 DUP1 PUSH1 0x1 ADD SWAP2 POP POP PUSH2 0xAEB JUMP JUMPDEST POP PUSH0 SWAP4 POP POP POP POP JUMPDEST SWAP3 SWAP2 POP POP JUMP JUMPDEST PUSH1 0x2 DUP2 DUP2 SLOAD DUP2 LT PUSH2 0xC09 JUMPI PUSH0 DUP1 REVERT JUMPDEST SWAP1 PUSH0 MSTORE PUSH1 0x20 PUSH0 KECCAK256 ADD PUSH0 SWAP2 POP SLOAD SWAP1 PUSH2 0x100 EXP SWAP1 DIV PUSH20 0xFFFFFFFFFFFFFFFFFFFFFFFFFFFFFFFFFFFFFFFF AND DUP2 JUMP JUMPDEST POP DUP1 SLOAD PUSH2 0xC41 SWAP1 PUSH2 0x149A JUMP JUMPDEST PUSH0 DUP3 SSTORE DUP1 PUSH1 0x1F LT PUSH2 0xC52 JUMPI POP PUSH2 0xC6F JUMP JUMPDEST PUSH1 0x1F ADD PUSH1 0x20 SWAP1 DIV SWAP1 PUSH0 MSTORE PUSH1 0x20 PUSH0 KECCAK256 SWAP1 DUP2 ADD SWAP1 PUSH2 0xC6E SWAP2 SWAP1 PUSH2 0xCA0 JUMP JUMPDEST JUMPDEST POP JUMP JUMPDEST PUSH1 0x40 MLOAD DUP1 PUSH1 0x40 ADD PUSH1 0x40 MSTORE DUP1 PUSH0 PUSH20 0xFFFFFFFFFFFFFFFFFFFFFFFFFFFFFFFFFFFFFFFF AND DUP2 MSTORE PUSH1 0x20 ADD PUSH0 DUP2 MSTORE POP SWAP1 JUMP JUMPDEST JUMPDEST DUP1 DUP3 GT ISZERO PUSH2 0xCB7 JUMPI PUSH0 DUP2 PUSH0 SWAP1 SSTORE POP PUSH1 0x1 ADD PUSH2 0xCA1 JUMP JUMPDEST POP SWAP1 JUMP JUMPDEST PUSH0 PUSH1 0x40 MLOAD SWAP1 POP SWAP1 JUMP JUMPDEST PUSH0 DUP1 REVERT JUMPDEST PUSH0 DUP1 REVERT JUMPDEST PUSH0 PUSH20 0xFFFFFFFFFFFFFFFFFFFFFFFFFFFFFFFFFFFFFFFF DUP3 AND SWAP1 POP SWAP2 SWAP1 POP JUMP JUMPDEST PUSH0 PUSH2 0xCF5 DUP3 PUSH2 0xCCC JUMP JUMPDEST SWAP1 POP SWAP2 SWAP1 POP JUMP JUMPDEST PUSH2 0xD05 DUP2 PUSH2 0xCEB JUMP JUMPDEST DUP2 EQ PUSH2 0xD0F JUMPI PUSH0 DUP1 REVERT JUMPDEST POP JUMP JUMPDEST PUSH0 DUP2 CALLDATALOAD SWAP1 POP PUSH2 0xD20 DUP2 PUSH2 0xCFC JUMP JUMPDEST SWAP3 SWAP2 POP POP JUMP JUMPDEST PUSH0 DUP2 SWAP1 POP SWAP2 SWAP1 POP JUMP JUMPDEST PUSH2 0xD38 DUP2 PUSH2 0xD26 JUMP JUMPDEST DUP2 EQ PUSH2 0xD42 JUMPI PUSH0 DUP1 REVERT JUMPDEST POP JUMP JUMPDEST PUSH0 DUP2 CALLDATALOAD SWAP1 POP PUSH2 0xD53 DUP2 PUSH2 0xD2F JUMP JUMPDEST SWAP3 SWAP2 POP POP JUMP JUMPDEST PUSH0 DUP1 PUSH1 0x40 DUP4 DUP6 SUB SLT ISZERO PUSH2 0xD6F JUMPI PUSH2 0xD6E PUSH2 0xCC4 JUMP JUMPDEST JUMPDEST PUSH0 PUSH2 0xD7C DUP6 DUP3 DUP7 ADD PUSH2 0xD12 JUMP JUMPDEST SWAP3 POP POP PUSH1 0x20 PUSH2 0xD8D DUP6 DUP3 DUP7 ADD PUSH2 0xD45 JUMP JUMPDEST SWAP2 POP POP SWAP3 POP SWAP3 SWAP1 POP JUMP JUMPDEST PUSH0 PUSH1 0x20 DUP3 DUP5 SUB SLT ISZERO PUSH2 0xDAC JUMPI PUSH2 0xDAB PUSH2 0xCC4 JUMP JUMPDEST JUMPDEST PUSH0 PUSH2 0xDB9 DUP5 DUP3 DUP6 ADD PUSH2 0xD12 JUMP JUMPDEST SWAP2 POP POP SWAP3 SWAP2 POP POP JUMP JUMPDEST PUSH2 0xDCB DUP2 PUSH2 0xCEB JUMP JUMPDEST DUP3 MSTORE POP POP JUMP JUMPDEST PUSH2 0xDDA DUP2 PUSH2 0xD26 JUMP JUMPDEST DUP3 MSTORE POP POP JUMP JUMPDEST PUSH0 PUSH1 0x40 DUP3 ADD SWAP1 POP PUSH2 0xDF3 PUSH0 DUP4 ADD DUP6 PUSH2 0xDC2 JUMP JUMPDEST PUSH2 0xE00 PUSH1 0x20 DUP4 ADD DUP5 PUSH2 0xDD1 JUMP JUMPDEST SWAP4 SWAP3 POP POP POP JUMP JUMPDEST PUSH0 DUP1 REVERT JUMPDEST PUSH0 DUP1 REVERT JUMPDEST PUSH0 PUSH1 0x1F NOT PUSH1 0x1F DUP4 ADD AND SWAP1 POP SWAP2 SWAP1 POP JUMP JUMPDEST PUSH32 0x4E487B7100000000000000000000000000000000000000000000000000000000 PUSH0 MSTORE PUSH1 0x41 PUSH1 0x4 MSTORE PUSH1 0x24 PUSH0 REVERT JUMPDEST PUSH2 0xE55 DUP3 PUSH2 0xE0F JUMP JUMPDEST DUP2 ADD DUP2 DUP2 LT PUSH8 0xFFFFFFFFFFFFFFFF DUP3 GT OR ISZERO PUSH2 0xE74 JUMPI PUSH2 0xE73 PUSH2 0xE1F JUMP JUMPDEST JUMPDEST DUP1 PUSH1 0x40 MSTORE POP POP POP JUMP JUMPDEST PUSH0 PUSH2 0xE86 PUSH2 0xCBB JUMP JUMPDEST SWAP1 POP PUSH2 0xE92 DUP3 DUP3 PUSH2 0xE4C JUMP JUMPDEST SWAP2 SWAP1 POP JUMP JUMPDEST PUSH0 PUSH8 0xFFFFFFFFFFFFFFFF DUP3 GT ISZERO PUSH2 0xEB1 JUMPI PUSH2 0xEB0 PUSH2 0xE1F JUMP JUMPDEST JUMPDEST PUSH2 0xEBA DUP3 PUSH2 0xE0F JUMP JUMPDEST SWAP1 POP PUSH1 0x20 DUP2 ADD SWAP1 POP SWAP2 SWAP1 POP JUMP JUMPDEST DUP3 DUP2 DUP4 CALLDATACOPY PUSH0 DUP4 DUP4 ADD MSTORE POP POP POP JUMP JUMPDEST PUSH0 PUSH2 0xEE7 PUSH2 0xEE2 DUP5 PUSH2 0xE97 JUMP JUMPDEST PUSH2 0xE7D JUMP JUMPDEST SWAP1 POP DUP3 DUP2 MSTORE PUSH1 0x20 DUP2 ADD DUP5 DUP5 DUP5 ADD GT ISZERO PUSH2 0xF03 JUMPI PUSH2 0xF02 PUSH2 0xE0B JUMP JUMPDEST JUMPDEST PUSH2 0xF0E DUP5 DUP3 DUP6 PUSH2 0xEC7 JUMP JUMPDEST POP SWAP4 SWAP3 POP POP POP JUMP JUMPDEST PUSH0 DUP3 PUSH1 0x1F DUP4 ADD SLT PUSH2 0xF2A JUMPI PUSH2 0xF29 PUSH2 0xE07 JUMP JUMPDEST JUMPDEST DUP2 CALLDATALOAD PUSH2 0xF3A DUP5 DUP3 PUSH1 0x20 DUP7 ADD PUSH2 0xED5 JUMP JUMPDEST SWAP2 POP POP SWAP3 SWAP2 POP POP JUMP JUMPDEST PUSH0 DUP1 PUSH1 0x40 DUP4 DUP6 SUB SLT ISZERO PUSH2 0xF59 JUMPI PUSH2 0xF58 PUSH2 0xCC4 JUMP JUMPDEST JUMPDEST PUSH0 PUSH2 0xF66 DUP6 DUP3 DUP7 ADD PUSH2 0xD12 JUMP JUMPDEST SWAP3 POP POP PUSH1 0x20 DUP4 ADD CALLDATALOAD PUSH8 0xFFFFFFFFFFFFFFFF DUP2 GT ISZERO PUSH2 0xF87 JUMPI PUSH2 0xF86 PUSH2 0xCC8 JUMP JUMPDEST JUMPDEST PUSH2 0xF93 DUP6 DUP3 DUP7 ADD PUSH2 0xF16 JUMP JUMPDEST SWAP2 POP POP SWAP3 POP SWAP3 SWAP1 POP JUMP JUMPDEST PUSH0 DUP2 MLOAD SWAP1 POP SWAP2 SWAP1 POP JUMP JUMPDEST PUSH0 DUP3 DUP3 MSTORE PUSH1 0x20 DUP3 ADD SWAP1 POP SWAP3 SWAP2 POP POP JUMP JUMPDEST PUSH0 JUMPDEST DUP4 DUP2 LT ISZERO PUSH2 0xFD4 JUMPI DUP1 DUP3 ADD MLOAD DUP2 DUP5 ADD MSTORE PUSH1 0x20 DUP2 ADD SWAP1 POP PUSH2 0xFB9 JUMP JUMPDEST PUSH0 DUP5 DUP5 ADD MSTORE POP POP POP POP JUMP JUMPDEST PUSH0 PUSH2 0xFE9 DUP3 PUSH2 0xF9D JUMP JUMPDEST PUSH2 0xFF3 DUP2 DUP6 PUSH2 0xFA7 JUMP JUMPDEST SWAP4 POP PUSH2 0x1003 DUP2 DUP6 PUSH1 0x20 DUP7 ADD PUSH2 0xFB7 JUMP JUMPDEST PUSH2 0x100C DUP2 PUSH2 0xE0F JUMP JUMPDEST DUP5 ADD SWAP2 POP POP SWAP3 SWAP2 POP POP JUMP JUMPDEST PUSH0 PUSH1 0x20 DUP3 ADD SWAP1 POP DUP2 DUP2 SUB PUSH0 DUP4 ADD MSTORE PUSH2 0x102F DUP2 DUP5 PUSH2 0xFDF JUMP JUMPDEST SWAP1 POP SWAP3 SWAP2 POP POP JUMP JUMPDEST PUSH0 DUP1 PUSH0 PUSH1 0x60 DUP5 DUP7 SUB SLT ISZERO PUSH2 0x104E JUMPI PUSH2 0x104D PUSH2 0xCC4 JUMP JUMPDEST JUMPDEST PUSH0 PUSH2 0x105B DUP7 DUP3 DUP8 ADD PUSH2 0xD12 JUMP JUMPDEST SWAP4 POP POP PUSH1 0x20 DUP5 ADD CALLDATALOAD PUSH8 0xFFFFFFFFFFFFFFFF DUP2 GT ISZERO PUSH2 0x107C JUMPI PUSH2 0x107B PUSH2 0xCC8 JUMP JUMPDEST JUMPDEST PUSH2 0x1088 DUP7 DUP3 DUP8 ADD PUSH2 0xF16 JUMP JUMPDEST SWAP3 POP POP PUSH1 0x40 DUP5 ADD CALLDATALOAD PUSH8 0xFFFFFFFFFFFFFFFF DUP2 GT ISZERO PUSH2 0x10A9 JUMPI PUSH2 0x10A8 PUSH2 0xCC8 JUMP JUMPDEST JUMPDEST PUSH2 0x10B5 DUP7 DUP3 DUP8 ADD PUSH2 0xF16 JUMP JUMPDEST SWAP2 POP POP SWAP3 POP SWAP3 POP SWAP3 JUMP JUMPDEST PUSH0 DUP2 MLOAD SWAP1 POP SWAP2 SWAP1 POP JUMP JUMPDEST PUSH0 DUP3 DUP3 MSTORE PUSH1 0x20 DUP3 ADD SWAP1 POP SWAP3 SWAP2 POP POP JUMP JUMPDEST PUSH0 DUP2 SWAP1 POP PUSH1 0x20 DUP3 ADD SWAP1 POP SWAP2 SWAP1 POP JUMP JUMPDEST PUSH2 0x10F1 DUP2 PUSH2 0xCEB JUMP JUMPDEST DUP3 MSTORE POP POP JUMP JUMPDEST PUSH0 PUSH2 0x1102 DUP4 DUP4 PUSH2 0x10E8 JUMP JUMPDEST PUSH1 0x20 DUP4 ADD SWAP1 POP SWAP3 SWAP2 POP POP JUMP JUMPDEST PUSH0 PUSH1 0x20 DUP3 ADD SWAP1 POP SWAP2 SWAP1 POP JUMP JUMPDEST PUSH0 PUSH2 0x1124 DUP3 PUSH2 0x10BF JUMP JUMPDEST PUSH2 0x112E DUP2 DUP6 PUSH2 0x10C9 JUMP JUMPDEST SWAP4 POP PUSH2 0x1139 DUP4 PUSH2 0x10D9 JUMP JUMPDEST DUP1 PUSH0 JUMPDEST DUP4 DUP2 LT ISZERO PUSH2 0x1169 JUMPI DUP2 MLOAD PUSH2 0x1150 DUP9 DUP3 PUSH2 0x10F7 JUMP JUMPDEST SWAP8 POP PUSH2 0x115B DUP4 PUSH2 0x110E JUMP JUMPDEST SWAP3 POP POP PUSH1 0x1 DUP2 ADD SWAP1 POP PUSH2 0x113C JUMP JUMPDEST POP DUP6 SWAP4 POP POP POP POP SWAP3 SWAP2 POP POP JUMP JUMPDEST PUSH0 PUSH1 0x20 DUP3 ADD SWAP1 POP DUP2 DUP2 SUB PUSH0 DUP4 ADD MSTORE PUSH2 0x118E DUP2 DUP5 PUSH2 0x111A JUMP JUMPDEST SWAP1 POP SWAP3 SWAP2 POP POP JUMP JUMPDEST PUSH2 0x119F DUP2 PUSH2 0xD26 JUMP JUMPDEST DUP3 MSTORE POP POP JUMP JUMPDEST PUSH1 0x40 DUP3 ADD PUSH0 DUP3 ADD MLOAD PUSH2 0x11B9 PUSH0 DUP6 ADD DUP3 PUSH2 0x10E8 JUMP JUMPDEST POP PUSH1 0x20 DUP3 ADD MLOAD PUSH2 0x11CC PUSH1 0x20 DUP6 ADD DUP3 PUSH2 0x1196 JUMP JUMPDEST POP POP POP POP JUMP JUMPDEST PUSH0 PUSH1 0x40 DUP3 ADD SWAP1 POP PUSH2 0x11E5 PUSH0 DUP4 ADD DUP5 PUSH2 0x11A5 JUMP JUMPDEST SWAP3 SWAP2 POP POP JUMP JUMPDEST PUSH0 PUSH8 0xFFFFFFFFFFFFFFFF DUP3 GT ISZERO PUSH2 0x1205 JUMPI PUSH2 0x1204 PUSH2 0xE1F JUMP JUMPDEST JUMPDEST PUSH1 0x20 DUP3 MUL SWAP1 POP PUSH1 0x20 DUP2 ADD SWAP1 POP SWAP2 SWAP1 POP JUMP JUMPDEST PUSH0 DUP1 REVERT JUMPDEST PUSH0 PUSH2 0x122C PUSH2 0x1227 DUP5 PUSH2 0x11EB JUMP JUMPDEST PUSH2 0xE7D JUMP JUMPDEST SWAP1 POP DUP1 DUP4 DUP3 MSTORE PUSH1 0x20 DUP3 ADD SWAP1 POP PUSH1 0x20 DUP5 MUL DUP4 ADD DUP6 DUP2 GT ISZERO PUSH2 0x124F JUMPI PUSH2 0x124E PUSH2 0x1216 JUMP JUMPDEST JUMPDEST DUP4 JUMPDEST DUP2 DUP2 LT ISZERO PUSH2 0x1278 JUMPI DUP1 PUSH2 0x1264 DUP9 DUP3 PUSH2 0xD12 JUMP JUMPDEST DUP5 MSTORE PUSH1 0x20 DUP5 ADD SWAP4 POP POP PUSH1 0x20 DUP2 ADD SWAP1 POP PUSH2 0x1251 JUMP JUMPDEST POP POP POP SWAP4 SWAP3 POP POP POP JUMP JUMPDEST PUSH0 DUP3 PUSH1 0x1F DUP4 ADD SLT PUSH2 0x1296 JUMPI PUSH2 0x1295 PUSH2 0xE07 JUMP JUMPDEST JUMPDEST DUP2 CALLDATALOAD PUSH2 0x12A6 DUP5 DUP3 PUSH1 0x20 DUP7 ADD PUSH2 0x121A JUMP JUMPDEST SWAP2 POP POP SWAP3 SWAP2 POP POP JUMP JUMPDEST PUSH0 DUP1 PUSH1 0x40 DUP4 DUP6 SUB SLT ISZERO PUSH2 0x12C5 JUMPI PUSH2 0x12C4 PUSH2 0xCC4 JUMP JUMPDEST JUMPDEST PUSH0 PUSH2 0x12D2 DUP6 DUP3 DUP7 ADD PUSH2 0xD45 JUMP JUMPDEST SWAP3 POP POP PUSH1 0x20 DUP4 ADD CALLDATALOAD PUSH8 0xFFFFFFFFFFFFFFFF DUP2 GT ISZERO PUSH2 0x12F3 JUMPI PUSH2 0x12F2 PUSH2 0xCC8 JUMP JUMPDEST JUMPDEST PUSH2 0x12FF DUP6 DUP3 DUP7 ADD PUSH2 0x1282 JUMP JUMPDEST SWAP2 POP POP SWAP3 POP SWAP3 SWAP1 POP JUMP JUMPDEST PUSH0 PUSH1 0x20 DUP3 ADD SWAP1 POP PUSH2 0x131C PUSH0 DUP4 ADD DUP5 PUSH2 0xDC2 JUMP JUMPDEST SWAP3 SWAP2 POP POP JUMP JUMPDEST PUSH0 PUSH1 0x20 DUP3 DUP5 SUB SLT ISZERO PUSH2 0x1337 JUMPI PUSH2 0x1336 PUSH2 0xCC4 JUMP JUMPDEST JUMPDEST PUSH0 PUSH2 0x1344 DUP5 DUP3 DUP6 ADD PUSH2 0xD45 JUMP JUMPDEST SWAP2 POP POP SWAP3 SWAP2 POP POP JUMP JUMPDEST PUSH32 0x4E6F646520616C72656164792065786973747300000000000000000000000000 PUSH0 DUP3 ADD MSTORE POP JUMP JUMPDEST PUSH0 PUSH2 0x1381 PUSH1 0x13 DUP4 PUSH2 0xFA7 JUMP JUMPDEST SWAP2 POP PUSH2 0x138C DUP3 PUSH2 0x134D JUMP JUMPDEST PUSH1 0x20 DUP3 ADD SWAP1 POP SWAP2 SWAP1 POP JUMP JUMPDEST PUSH0 PUSH1 0x20 DUP3 ADD SWAP1 POP DUP2 DUP2 SUB PUSH0 DUP4 ADD MSTORE PUSH2 0x13AE DUP2 PUSH2 0x1375 JUMP JUMPDEST SWAP1 POP SWAP2 SWAP1 POP JUMP JUMPDEST PUSH32 0x4E6F646520646F6573206E6F7420657869737400000000000000000000000000 PUSH0 DUP3 ADD MSTORE POP JUMP JUMPDEST PUSH0 PUSH2 0x13E9 PUSH1 0x13 DUP4 PUSH2 0xFA7 JUMP JUMPDEST SWAP2 POP PUSH2 0x13F4 DUP3 PUSH2 0x13B5 JUMP JUMPDEST PUSH1 0x20 DUP3 ADD SWAP1 POP SWAP2 SWAP1 POP JUMP JUMPDEST PUSH0 PUSH1 0x20 DUP3 ADD SWAP1 POP DUP2 DUP2 SUB PUSH0 DUP4 ADD MSTORE PUSH2 0x1416 DUP2 PUSH2 0x13DD JUMP JUMPDEST SWAP1 POP SWAP2 SWAP1 POP JUMP JUMPDEST PUSH0 DUP2 SWAP1 POP SWAP3 SWAP2 POP POP JUMP JUMPDEST PUSH0 PUSH2 0x1431 DUP3 PUSH2 0xF9D JUMP JUMPDEST PUSH2 0x143B DUP2 DUP6 PUSH2 0x141D JUMP JUMPDEST SWAP4 POP PUSH2 0x144B DUP2 DUP6 PUSH1 0x20 DUP7 ADD PUSH2 0xFB7 JUMP JUMPDEST DUP1 DUP5 ADD SWAP2 POP POP SWAP3 SWAP2 POP POP JUMP JUMPDEST PUSH0 PUSH2 0x1462 DUP3 DUP5 PUSH2 0x1427 JUMP JUMPDEST SWAP2 POP DUP2 SWAP1 POP SWAP3 SWAP2 POP POP JUMP JUMPDEST PUSH32 0x4E487B7100000000000000000000000000000000000000000000000000000000 PUSH0 MSTORE PUSH1 0x22 PUSH1 0x4 MSTORE PUSH1 0x24 PUSH0 REVERT JUMPDEST PUSH0 PUSH1 0x2 DUP3 DIV SWAP1 POP PUSH1 0x1 DUP3 AND DUP1 PUSH2 0x14B1 JUMPI PUSH1 0x7F DUP3 AND SWAP2 POP JUMPDEST PUSH1 0x20 DUP3 LT DUP2 SUB PUSH2 0x14C4 JUMPI PUSH2 0x14C3 PUSH2 0x146D JUMP JUMPDEST JUMPDEST POP SWAP2 SWAP1 POP JUMP JUMPDEST PUSH0 DUP2 SWAP1 POP DUP2 PUSH0 MSTORE PUSH1 0x20 PUSH0 KECCAK256 SWAP1 POP SWAP2 SWAP1 POP JUMP JUMPDEST PUSH0 PUSH1 0x20 PUSH1 0x1F DUP4 ADD DIV SWAP1 POP SWAP2 SWAP1 POP JUMP JUMPDEST PUSH0 DUP3 DUP3 SHL SWAP1 POP SWAP3 SWAP2 POP POP JUMP JUMPDEST PUSH0 PUSH1 0x8 DUP4 MUL PUSH2 0x1526 PUSH32 0xFFFFFFFFFFFFFFFFFFFFFFFFFFFFFFFFFFFFFFFFFFFFFFFFFFFFFFFFFFFFFFFF DUP3 PUSH2 0x14EB JUMP JUMPDEST PUSH2 0x1530 DUP7 DUP4 PUSH2 0x14EB JUMP JUMPDEST SWAP6 POP DUP1 NOT DUP5 AND SWAP4 POP DUP1 DUP7 AND DUP5 OR SWAP3 POP POP POP SWAP4 SWAP3 POP POP POP JUMP JUMPDEST PUSH0 DUP2 SWAP1 POP SWAP2 SWAP1 POP JUMP JUMPDEST PUSH0 PUSH2 0x156B PUSH2 0x1566 PUSH2 0x1561 DUP5 PUSH2 0xD26 JUMP JUMPDEST PUSH2 0x1548 JUMP JUMPDEST PUSH2 0xD26 JUMP JUMPDEST SWAP1 POP SWAP2 SWAP1 POP JUMP JUMPDEST PUSH0 DUP2 SWAP1 POP SWAP2 SWAP1 POP JUMP JUMPDEST PUSH2 0x1584 DUP4 PUSH2 0x1551 JUMP JUMPDEST PUSH2 0x1598 PUSH2 0x1590 DUP3 PUSH2 0x1572 JUMP JUMPDEST DUP5 DUP5 SLOAD PUSH2 0x14F7 JUMP JUMPDEST DUP3 SSTORE POP POP POP POP JUMP JUMPDEST PUSH0 SWAP1 JUMP JUMPDEST PUSH2 0x15AC PUSH2 0x15A0 JUMP JUMPDEST PUSH2 0x15B7 DUP2 DUP5 DUP5 PUSH2 0x157B JUMP JUMPDEST POP POP POP JUMP JUMPDEST JUMPDEST DUP2 DUP2 LT ISZERO PUSH2 0x15DA JUMPI PUSH2 0x15CF PUSH0 DUP3 PUSH2 0x15A4 JUMP JUMPDEST PUSH1 0x1 DUP2 ADD SWAP1 POP PUSH2 0x15BD JUMP JUMPDEST POP POP JUMP JUMPDEST PUSH1 0x1F DUP3 GT ISZERO PUSH2 0x161F JUMPI PUSH2 0x15F0 DUP2 PUSH2 0x14CA JUMP JUMPDEST PUSH2 0x15F9 DUP5 PUSH2 0x14DC JUMP JUMPDEST DUP2 ADD PUSH1 0x20 DUP6 LT ISZERO PUSH2 0x1608 JUMPI DUP2 SWAP1 POP JUMPDEST PUSH2 0x161C PUSH2 0x1614 DUP6 PUSH2 0x14DC JUMP JUMPDEST DUP4 ADD DUP3 PUSH2 0x15BC JUMP JUMPDEST POP POP JUMPDEST POP POP POP JUMP JUMPDEST PUSH0 DUP3 DUP3 SHR SWAP1 POP SWAP3 SWAP2 POP POP JUMP JUMPDEST PUSH0 PUSH2 0x163F PUSH0 NOT DUP5 PUSH1 0x8 MUL PUSH2 0x1624 JUMP JUMPDEST NOT DUP1 DUP4 AND SWAP2 POP POP SWAP3 SWAP2 POP POP JUMP JUMPDEST PUSH0 PUSH2 0x1657 DUP4 DUP4 PUSH2 0x1630 JUMP JUMPDEST SWAP2 POP DUP3 PUSH1 0x2 MUL DUP3 OR SWAP1 POP SWAP3 SWAP2 POP POP JUMP JUMPDEST PUSH2 0x1670 DUP3 PUSH2 0xF9D JUMP JUMPDEST PUSH8 0xFFFFFFFFFFFFFFFF DUP2 GT ISZERO PUSH2 0x1689 JUMPI PUSH2 0x1688 PUSH2 0xE1F JUMP JUMPDEST JUMPDEST PUSH2 0x1693 DUP3 SLOAD PUSH2 0x149A JUMP JUMPDEST PUSH2 0x169E DUP3 DUP3 DUP6 PUSH2 0x15DE JUMP JUMPDEST PUSH0 PUSH1 0x20 SWAP1 POP PUSH1 0x1F DUP4 GT PUSH1 0x1 DUP2 EQ PUSH2 0x16CF JUMPI PUSH0 DUP5 ISZERO PUSH2 0x16BD JUMPI DUP3 DUP8 ADD MLOAD SWAP1 POP JUMPDEST PUSH2 0x16C7 DUP6 DUP3 PUSH2 0x164C JUMP JUMPDEST DUP7 SSTORE POP PUSH2 0x172E JUMP JUMPDEST PUSH1 0x1F NOT DUP5 AND PUSH2 0x16DD DUP7 PUSH2 0x14CA JUMP JUMPDEST PUSH0 JUMPDEST DUP3 DUP2 LT ISZERO PUSH2 0x1704 JUMPI DUP5 DUP10 ADD MLOAD DUP3 SSTORE PUSH1 0x1 DUP3 ADD SWAP2 POP PUSH1 0x20 DUP6 ADD SWAP5 POP PUSH1 0x20 DUP2 ADD SWAP1 POP PUSH2 0x16DF JUMP JUMPDEST DUP7 DUP4 LT ISZERO PUSH2 0x1721 JUMPI DUP5 DUP10 ADD MLOAD PUSH2 0x171D PUSH1 0x1F DUP10 AND DUP3 PUSH2 0x1630 JUMP JUMPDEST DUP4 SSTORE POP JUMPDEST PUSH1 0x1 PUSH1 0x2 DUP9 MUL ADD DUP9 SSTORE POP POP POP JUMPDEST POP POP POP POP POP POP JUMP JUMPDEST PUSH32 0x4E487B7100000000000000000000000000000000000000000000000000000000 PUSH0 MSTORE PUSH1 0x11 PUSH1 0x4 MSTORE PUSH1 0x24 PUSH0 REVERT JUMPDEST PUSH0 PUSH2 0x176D DUP3 PUSH2 0xD26 JUMP JUMPDEST SWAP2 POP PUSH2 0x1778 DUP4 PUSH2 0xD26 JUMP JUMPDEST SWAP3 POP DUP3 DUP3 SUB SWAP1 POP DUP2 DUP2 GT ISZERO PUSH2 0x1790 JUMPI PUSH2 0x178F PUSH2 0x1736 JUMP JUMPDEST JUMPDEST SWAP3 SWAP2 POP POP JUMP JUMPDEST PUSH32 0x4E487B7100000000000000000000000000000000000000000000000000000000 PUSH0 MSTORE PUSH1 0x12 PUSH1 0x4 MSTORE PUSH1 0x24 PUSH0 REVERT JUMPDEST PUSH0 PUSH2 0x17CD DUP3 PUSH2 0xD26 JUMP JUMPDEST SWAP2 POP PUSH2 0x17D8 DUP4 PUSH2 0xD26 JUMP JUMPDEST SWAP3 POP DUP3 PUSH2 0x17E8 JUMPI PUSH2 0x17E7 PUSH2 0x1796 JUMP JUMPDEST JUMPDEST DUP3 DUP3 MOD SWAP1 POP SWAP3 SWAP2 POP POP JUMP JUMPDEST PUSH0 PUSH2 0x17FD DUP3 PUSH2 0xD26 JUMP JUMPDEST SWAP2 POP PUSH2 0x1808 DUP4 PUSH2 0xD26 JUMP JUMPDEST SWAP3 POP DUP3 DUP3 ADD SWAP1 POP DUP1 DUP3 GT ISZERO PUSH2 0x1820 JUMPI PUSH2 0x181F PUSH2 0x1736 JUMP JUMPDEST JUMPDEST SWAP3 SWAP2 POP POP JUMP JUMPDEST PUSH32 0x4E487B7100000000000000000000000000000000000000000000000000000000 PUSH0 MSTORE PUSH1 0x32 PUSH1 0x4 MSTORE PUSH1 0x24 PUSH0 REVERT JUMPDEST PUSH0 PUSH1 0x20 DUP3 ADD SWAP1 POP PUSH2 0x1866 PUSH0 DUP4 ADD DUP5 PUSH2 0xDD1 JUMP JUMPDEST SWAP3 SWAP2 POP POP JUMP INVALID LOG2 PUSH5 0x6970667358 0x22 SLT KECCAK256 PUSH15 0x512349ED77ABA32536050E41C2E2C2 0x26 0x2A 0xAE 0x49 0xAF 0xB4 SDIV PUSH24 0xF6AEBC59BE03D98B64736F6C634300081600330000000000 "
		},
		"gasEstimates": {
			"creation": {
				"codeDepositCost": "1261200",
				"executionCost": "1313",
				"totalCost": "1262513"
			},
			"external": {
				"addNode(address,uint256)": "infinite",
				"allNodes(uint256)": "5032",
				"deleteChunkInNode(address,string)": "infinite",
				"findAvailableNode(uint256,address[])": "infinite",
				"getAllNodes()": "infinite",
				"getNodeByAddress(address)": "infinite",
				"nodeChunks(address,string)": "infinite",
				"nodes(address)": "infinite",
				"retrieveChunkInNode(address,string)": "infinite",
				"storeChunkInNode(address,string,string)": "infinite"
			},
			"internal": {
				"updateAvailableStorage(address,uint256)": "infinite"
			}
		},
		"methodIdentifiers": {
			"addNode(address,uint256)": "11bd77fe",
			"allNodes(uint256)": "fe72ae13",
			"deleteChunkInNode(address,string)": "50f1c985",
			"findAvailableNode(uint256,address[])": "c6e24c90",
			"getAllNodes()": "a1174e7d",
			"getNodeByAddress(address)": "a9860308",
			"nodeChunks(address,string)": "9e34c134",
			"nodes(address)": "189a5a17",
			"retrieveChunkInNode(address,string)": "2a85be1e",
			"storeChunkInNode(address,string,string)": "a0be4b1f"
		}
	},
	"abi": [
		{
			"anonymous": false,
			"inputs": [
				{
					"indexed": false,
					"internalType": "address",
					"name": "",
					"type": "address"
				}
			],
			"name": "logAddress",
			"type": "event"
		},
		{
			"anonymous": false,
			"inputs": [
				{
					"indexed": false,
					"internalType": "address",
					"name": "",
					"type": "address"
				}
			],
			"name": "logAddress2",
			"type": "event"
		},
		{
			"anonymous": false,
			"inputs": [
				{
					"indexed": false,
					"internalType": "uint256",
					"name": "",
					"type": "uint256"
				}
			],
			"name": "logNumber",
			"type": "event"
		},
		{
			"inputs": [
				{
					"internalType": "address",
					"name": "_nodeAddress",
					"type": "address"
				},
				{
					"internalType": "uint256",
					"name": "_initialStorage",
					"type": "uint256"
				}
			],
			"name": "addNode",
			"outputs": [],
			"stateMutability": "nonpayable",
			"type": "function"
		},
		{
			"inputs": [
				{
					"internalType": "uint256",
					"name": "",
					"type": "uint256"
				}
			],
			"name": "allNodes",
			"outputs": [
				{
					"internalType": "address",
					"name": "",
					"type": "address"
				}
			],
			"stateMutability": "view",
			"type": "function"
		},
		{
			"inputs": [
				{
					"internalType": "address",
					"name": "_nodeAddress",
					"type": "address"
				},
				{
					"internalType": "string",
					"name": "_fileId",
					"type": "string"
				}
			],
			"name": "deleteChunkInNode",
			"outputs": [],
			"stateMutability": "nonpayable",
			"type": "function"
		},
		{
			"inputs": [
				{
					"internalType": "uint256",
					"name": "_chunkSize",
					"type": "uint256"
				},
				{
					"internalType": "address[]",
					"name": "addressOfChunks",
					"type": "address[]"
				}
			],
			"name": "findAvailableNode",
			"outputs": [
				{
					"internalType": "address",
					"name": "",
					"type": "address"
				}
			],
			"stateMutability": "nonpayable",
			"type": "function"
		},
		{
			"inputs": [],
			"name": "getAllNodes",
			"outputs": [
				{
					"internalType": "address[]",
					"name": "",
					"type": "address[]"
				}
			],
			"stateMutability": "view",
			"type": "function"
		},
		{
			"inputs": [
				{
					"internalType": "address",
					"name": "_nodeAddress",
					"type": "address"
				}
			],
			"name": "getNodeByAddress",
			"outputs": [
				{
					"components": [
						{
							"internalType": "address",
							"name": "nodeAddress",
							"type": "address"
						},
						{
							"internalType": "uint256",
							"name": "availableStorage",
							"type": "uint256"
						}
					],
					"internalType": "struct NodeManager.Node",
					"name": "",
					"type": "tuple"
				}
			],
			"stateMutability": "view",
			"type": "function"
		},
		{
			"inputs": [
				{
					"internalType": "address",
					"name": "",
					"type": "address"
				},
				{
					"internalType": "string",
					"name": "",
					"type": "string"
				}
			],
			"name": "nodeChunks",
			"outputs": [
				{
					"internalType": "string",
					"name": "",
					"type": "string"
				}
			],
			"stateMutability": "view",
			"type": "function"
		},
		{
			"inputs": [
				{
					"internalType": "address",
					"name": "",
					"type": "address"
				}
			],
			"name": "nodes",
			"outputs": [
				{
					"internalType": "address",
					"name": "nodeAddress",
					"type": "address"
				},
				{
					"internalType": "uint256",
					"name": "availableStorage",
					"type": "uint256"
				}
			],
			"stateMutability": "view",
			"type": "function"
		},
		{
			"inputs": [
				{
					"internalType": "address",
					"name": "_nodeAddress",
					"type": "address"
				},
				{
					"internalType": "string",
					"name": "_fileId",
					"type": "string"
				}
			],
			"name": "retrieveChunkInNode",
			"outputs": [
				{
					"internalType": "string",
					"name": "",
					"type": "string"
				}
			],
			"stateMutability": "view",
			"type": "function"
		},
		{
			"inputs": [
				{
					"internalType": "address",
					"name": "_nodeAddress",
					"type": "address"
				},
				{
					"internalType": "string",
					"name": "_chunk",
					"type": "string"
				},
				{
					"internalType": "string",
					"name": "_fileId",
					"type": "string"
				}
			],
			"name": "storeChunkInNode",
			"outputs": [],
			"stateMutability": "nonpayable",
			"type": "function"
		}
	]
}