{
	"contracts/_ChunkManager.sol": {
		"ChunkManager": {
			"abi": [
				{
					"inputs": [
						{
							"internalType": "string",
							"name": "content",
							"type": "string"
						}
					],
					"name": "chunkContent",
					"outputs": [
						{
							"internalType": "string[]",
							"name": "",
							"type": "string[]"
						}
					],
					"stateMutability": "pure",
					"type": "function"
				},
				{
					"inputs": [
						{
							"internalType": "string[]",
							"name": "chunks",
							"type": "string[]"
						}
					],
					"name": "concatenateChunks",
					"outputs": [
						{
							"internalType": "string",
							"name": "",
							"type": "string"
						}
					],
					"stateMutability": "pure",
					"type": "function"
				}
			],
			"devdoc": {
				"kind": "dev",
				"methods": {},
				"version": 1
			},
			"evm": {
				"assembly": "    /* \"contracts/_ChunkManager.sol\":64:1646  contract ChunkManager {... */\n  mstore(0x40, 0x80)\n  callvalue\n  dup1\n  iszero\n  tag_1\n  jumpi\n  0x00\n  dup1\n  revert\ntag_1:\n  pop\n  dataSize(sub_0)\n  dup1\n  dataOffset(sub_0)\n  0x00\n  codecopy\n  0x00\n  return\nstop\n\nsub_0: assembly {\n        /* \"contracts/_ChunkManager.sol\":64:1646  contract ChunkManager {... */\n      mstore(0x40, 0x80)\n      callvalue\n      dup1\n      iszero\n      tag_1\n      jumpi\n      0x00\n      dup1\n      revert\n    tag_1:\n      pop\n      jumpi(tag_2, lt(calldatasize, 0x04))\n      shr(0xe0, calldataload(0x00))\n      dup1\n      0x1f37bdd2\n      eq\n      tag_3\n      jumpi\n      dup1\n      0x57d7f21f\n      eq\n      tag_4\n      jumpi\n    tag_2:\n      0x00\n      dup1\n      revert\n        /* \"contracts/_ChunkManager.sol\":92:940  function chunkContent(string memory content) public pure returns (string[] memory) {                           //Changed to public for testing... */\n    tag_3:\n      tag_5\n      0x04\n      dup1\n      calldatasize\n      sub\n      dup2\n      add\n      swap1\n      tag_6\n      swap2\n      swap1\n      tag_7\n      jump\t// in\n    tag_6:\n      tag_8\n      jump\t// in\n    tag_5:\n      mload(0x40)\n      tag_9\n      swap2\n      swap1\n      tag_10\n      jump\t// in\n    tag_9:\n      mload(0x40)\n      dup1\n      swap2\n      sub\n      swap1\n      return\n        /* \"contracts/_ChunkManager.sol\":948:1643  function concatenateChunks(string[] memory chunks) public pure returns (string memory) {                              //Changed to public for testing... */\n    tag_4:\n      tag_11\n      0x04\n      dup1\n      calldatasize\n      sub\n      dup2\n      add\n      swap1\n      tag_12\n      swap2\n      swap1\n      tag_13\n      jump\t// in\n    tag_12:\n      tag_14\n      jump\t// in\n    tag_11:\n      mload(0x40)\n      tag_15\n      swap2\n      swap1\n      tag_16\n      jump\t// in\n    tag_15:\n      mload(0x40)\n      dup1\n      swap2\n      sub\n      swap1\n      return\n        /* \"contracts/_ChunkManager.sol\":92:940  function chunkContent(string memory content) public pure returns (string[] memory) {                           //Changed to public for testing... */\n    tag_8:\n        /* \"contracts/_ChunkManager.sol\":158:173  string[] memory */\n      0x60\n        /* \"contracts/_ChunkManager.sol\":244:261  uint256 chunkSize */\n      0x00\n        /* \"contracts/_ChunkManager.sol\":264:266  32 */\n      0x20\n        /* \"contracts/_ChunkManager.sol\":244:266  uint256 chunkSize = 32 */\n      swap1\n      pop\n        /* \"contracts/_ChunkManager.sol\":277:294  uint256 numChunks */\n      0x00\n        /* \"contracts/_ChunkManager.sol\":339:348  chunkSize */\n      dup2\n        /* \"contracts/_ChunkManager.sol\":334:335  1 */\n      0x01\n        /* \"contracts/_ChunkManager.sol\":322:331  chunkSize */\n      dup4\n        /* \"contracts/_ChunkManager.sol\":304:311  content */\n      dup7\n        /* \"contracts/_ChunkManager.sol\":298:319  bytes(content).length */\n      mload\n        /* \"contracts/_ChunkManager.sol\":298:331  bytes(content).length + chunkSize */\n      tag_18\n      swap2\n      swap1\n      tag_19\n      jump\t// in\n    tag_18:\n        /* \"contracts/_ChunkManager.sol\":298:335  bytes(content).length + chunkSize - 1 */\n      tag_20\n      swap2\n      swap1\n      tag_21\n      jump\t// in\n    tag_20:\n        /* \"contracts/_ChunkManager.sol\":297:348  (bytes(content).length + chunkSize - 1) / chunkSize */\n      tag_22\n      swap2\n      swap1\n      tag_23\n      jump\t// in\n    tag_22:\n        /* \"contracts/_ChunkManager.sol\":277:348  uint256 numChunks = (bytes(content).length + chunkSize - 1) / chunkSize */\n      swap1\n      pop\n        /* \"contracts/_ChunkManager.sol\":359:381  string[] memory chunks */\n      0x00\n        /* \"contracts/_ChunkManager.sol\":397:406  numChunks */\n      dup2\n        /* \"contracts/_ChunkManager.sol\":384:407  new string[](numChunks) */\n      0xffffffffffffffff\n      dup2\n      gt\n      iszero\n      tag_24\n      jumpi\n      tag_25\n      tag_26\n      jump\t// in\n    tag_25:\n    tag_24:\n      mload(0x40)\n      swap1\n      dup1\n      dup3\n      mstore\n      dup1\n      0x20\n      mul\n      0x20\n      add\n      dup3\n      add\n      0x40\n      mstore\n      dup1\n      iszero\n      tag_27\n      jumpi\n      dup2\n      0x20\n      add\n    tag_28:\n      0x60\n      dup2\n      mstore\n      0x20\n      add\n      swap1\n      0x01\n      swap1\n      sub\n      swap1\n      dup2\n      tag_28\n      jumpi\n      swap1\n      pop\n    tag_27:\n      pop\n        /* \"contracts/_ChunkManager.sol\":359:407  string[] memory chunks = new string[](numChunks) */\n      swap1\n      pop\n        /* \"contracts/_ChunkManager.sol\":425:434  uint256 i */\n      0x00\n        /* \"contracts/_ChunkManager.sol\":420:907  for (uint256 i = 0; i < numChunks; i++) {... */\n    tag_29:\n        /* \"contracts/_ChunkManager.sol\":444:453  numChunks */\n      dup3\n        /* \"contracts/_ChunkManager.sol\":440:441  i */\n      dup2\n        /* \"contracts/_ChunkManager.sol\":440:453  i < numChunks */\n      lt\n        /* \"contracts/_ChunkManager.sol\":420:907  for (uint256 i = 0; i < numChunks; i++) {... */\n      iszero\n      tag_30\n      jumpi\n        /* \"contracts/_ChunkManager.sol\":475:488  uint256 start */\n      0x00\n        /* \"contracts/_ChunkManager.sol\":495:504  chunkSize */\n      dup5\n        /* \"contracts/_ChunkManager.sol\":491:492  i */\n      dup3\n        /* \"contracts/_ChunkManager.sol\":491:504  i * chunkSize */\n      tag_32\n      swap2\n      swap1\n      tag_33\n      jump\t// in\n    tag_32:\n        /* \"contracts/_ChunkManager.sol\":475:504  uint256 start = i * chunkSize */\n      swap1\n      pop\n        /* \"contracts/_ChunkManager.sol\":519:530  uint256 end */\n      0x00\n        /* \"contracts/_ChunkManager.sol\":541:550  chunkSize */\n      dup6\n        /* \"contracts/_ChunkManager.sol\":533:538  start */\n      dup3\n        /* \"contracts/_ChunkManager.sol\":533:550  start + chunkSize */\n      tag_34\n      swap2\n      swap1\n      tag_19\n      jump\t// in\n    tag_34:\n        /* \"contracts/_ChunkManager.sol\":519:550  uint256 end = start + chunkSize */\n      swap1\n      pop\n        /* \"contracts/_ChunkManager.sol\":581:588  content */\n      dup8\n        /* \"contracts/_ChunkManager.sol\":575:596  bytes(content).length */\n      mload\n        /* \"contracts/_ChunkManager.sol\":569:572  end */\n      dup2\n        /* \"contracts/_ChunkManager.sol\":569:596  end > bytes(content).length */\n      gt\n        /* \"contracts/_ChunkManager.sol\":565:660  if (end > bytes(content).length) {... */\n      iszero\n      tag_35\n      jumpi\n        /* \"contracts/_ChunkManager.sol\":629:636  content */\n      dup8\n        /* \"contracts/_ChunkManager.sol\":623:644  bytes(content).length */\n      mload\n        /* \"contracts/_ChunkManager.sol\":617:644  end = bytes(content).length */\n      swap1\n      pop\n        /* \"contracts/_ChunkManager.sol\":565:660  if (end > bytes(content).length) {... */\n    tag_35:\n        /* \"contracts/_ChunkManager.sol\":674:697  bytes memory chunkBytes */\n      0x00\n        /* \"contracts/_ChunkManager.sol\":716:721  start */\n      dup3\n        /* \"contracts/_ChunkManager.sol\":710:713  end */\n      dup3\n        /* \"contracts/_ChunkManager.sol\":710:721  end - start */\n      tag_36\n      swap2\n      swap1\n      tag_21\n      jump\t// in\n    tag_36:\n        /* \"contracts/_ChunkManager.sol\":700:722  new bytes(end - start) */\n      0xffffffffffffffff\n      dup2\n      gt\n      iszero\n      tag_37\n      jumpi\n      tag_38\n      tag_26\n      jump\t// in\n    tag_38:\n    tag_37:\n      mload(0x40)\n      swap1\n      dup1\n      dup3\n      mstore\n      dup1\n      0x1f\n      add\n      not(0x1f)\n      and\n      0x20\n      add\n      dup3\n      add\n      0x40\n      mstore\n      dup1\n      iszero\n      tag_39\n      jumpi\n      dup2\n      0x20\n      add\n      0x01\n      dup3\n      mul\n      dup1\n      calldatasize\n      dup4\n      calldatacopy\n      dup1\n      dup3\n      add\n      swap2\n      pop\n      pop\n      swap1\n      pop\n    tag_39:\n      pop\n        /* \"contracts/_ChunkManager.sol\":674:722  bytes memory chunkBytes = new bytes(end - start) */\n      swap1\n      pop\n        /* \"contracts/_ChunkManager.sol\":742:751  uint256 j */\n      0x00\n        /* \"contracts/_ChunkManager.sol\":754:759  start */\n      dup4\n        /* \"contracts/_ChunkManager.sol\":742:759  uint256 j = start */\n      swap1\n      pop\n        /* \"contracts/_ChunkManager.sol\":737:851  for (uint256 j = start; j < end; j++) {... */\n    tag_40:\n        /* \"contracts/_ChunkManager.sol\":765:768  end */\n      dup3\n        /* \"contracts/_ChunkManager.sol\":761:762  j */\n      dup2\n        /* \"contracts/_ChunkManager.sol\":761:768  j < end */\n      lt\n        /* \"contracts/_ChunkManager.sol\":737:851  for (uint256 j = start; j < end; j++) {... */\n      iszero\n      tag_41\n      jumpi\n        /* \"contracts/_ChunkManager.sol\":824:831  content */\n      dup10\n        /* \"contracts/_ChunkManager.sol\":833:834  j */\n      dup2\n        /* \"contracts/_ChunkManager.sol\":818:835  bytes(content)[j] */\n      dup2\n      mload\n      dup2\n      lt\n      tag_43\n      jumpi\n      tag_44\n      tag_45\n      jump\t// in\n    tag_44:\n    tag_43:\n      0x20\n      add\n      add\n      mload\n      0xf8\n      shr\n      0xf8\n      shl\n        /* \"contracts/_ChunkManager.sol\":794:804  chunkBytes */\n      dup3\n        /* \"contracts/_ChunkManager.sol\":809:814  start */\n      dup6\n        /* \"contracts/_ChunkManager.sol\":805:806  j */\n      dup4\n        /* \"contracts/_ChunkManager.sol\":805:814  j - start */\n      tag_46\n      swap2\n      swap1\n      tag_21\n      jump\t// in\n    tag_46:\n        /* \"contracts/_ChunkManager.sol\":794:815  chunkBytes[j - start] */\n      dup2\n      mload\n      dup2\n      lt\n      tag_47\n      jumpi\n      tag_48\n      tag_45\n      jump\t// in\n    tag_48:\n    tag_47:\n      0x20\n      add\n      add\n        /* \"contracts/_ChunkManager.sol\":794:835  chunkBytes[j - start] = bytes(content)[j] */\n      swap1\n      not(0xffffffffffffffffffffffffffffffffffffffffffffffffffffffffffffff)\n      and\n      swap1\n      dup2\n      0x00\n      byte\n      swap1\n      mstore8\n      pop\n        /* \"contracts/_ChunkManager.sol\":770:773  j++ */\n      dup1\n      dup1\n      0x01\n      add\n      swap2\n      pop\n      pop\n        /* \"contracts/_ChunkManager.sol\":737:851  for (uint256 j = start; j < end; j++) {... */\n      jump(tag_40)\n    tag_41:\n      pop\n        /* \"contracts/_ChunkManager.sol\":884:894  chunkBytes */\n      dup1\n        /* \"contracts/_ChunkManager.sol\":865:871  chunks */\n      dup6\n        /* \"contracts/_ChunkManager.sol\":872:873  i */\n      dup6\n        /* \"contracts/_ChunkManager.sol\":865:874  chunks[i] */\n      dup2\n      mload\n      dup2\n      lt\n      tag_49\n      jumpi\n      tag_50\n      tag_45\n      jump\t// in\n    tag_50:\n    tag_49:\n      0x20\n      mul\n      0x20\n      add\n      add\n        /* \"contracts/_ChunkManager.sol\":865:895  chunks[i] = string(chunkBytes) */\n      dup2\n      swap1\n      mstore\n      pop\n        /* \"contracts/_ChunkManager.sol\":460:907  {... */\n      pop\n      pop\n      pop\n        /* \"contracts/_ChunkManager.sol\":455:458  i++ */\n      dup1\n      dup1\n      0x01\n      add\n      swap2\n      pop\n      pop\n        /* \"contracts/_ChunkManager.sol\":420:907  for (uint256 i = 0; i < numChunks; i++) {... */\n      jump(tag_29)\n    tag_30:\n      pop\n        /* \"contracts/_ChunkManager.sol\":926:932  chunks */\n      dup1\n        /* \"contracts/_ChunkManager.sol\":919:932  return chunks */\n      swap4\n      pop\n      pop\n      pop\n      pop\n        /* \"contracts/_ChunkManager.sol\":92:940  function chunkContent(string memory content) public pure returns (string[] memory) {                           //Changed to public for testing... */\n      swap2\n      swap1\n      pop\n      jump\t// out\n        /* \"contracts/_ChunkManager.sol\":948:1643  function concatenateChunks(string[] memory chunks) public pure returns (string memory) {                              //Changed to public for testing... */\n    tag_14:\n        /* \"contracts/_ChunkManager.sol\":1020:1033  string memory */\n      0x60\n        /* \"contracts/_ChunkManager.sol\":1107:1126  uint256 totalLength */\n      0x00\n        /* \"contracts/_ChunkManager.sol\":1146:1155  uint256 i */\n      dup1\n        /* \"contracts/_ChunkManager.sol\":1141:1250  for (uint256 i = 0; i < chunks.length; i++) {... */\n    tag_52:\n        /* \"contracts/_ChunkManager.sol\":1165:1171  chunks */\n      dup4\n        /* \"contracts/_ChunkManager.sol\":1165:1178  chunks.length */\n      mload\n        /* \"contracts/_ChunkManager.sol\":1161:1162  i */\n      dup2\n        /* \"contracts/_ChunkManager.sol\":1161:1178  i < chunks.length */\n      lt\n        /* \"contracts/_ChunkManager.sol\":1141:1250  for (uint256 i = 0; i < chunks.length; i++) {... */\n      iszero\n      tag_53\n      jumpi\n        /* \"contracts/_ChunkManager.sol\":1221:1227  chunks */\n      dup4\n        /* \"contracts/_ChunkManager.sol\":1228:1229  i */\n      dup2\n        /* \"contracts/_ChunkManager.sol\":1221:1230  chunks[i] */\n      dup2\n      mload\n      dup2\n      lt\n      tag_55\n      jumpi\n      tag_56\n      tag_45\n      jump\t// in\n    tag_56:\n    tag_55:\n      0x20\n      mul\n      0x20\n      add\n      add\n      mload\n        /* \"contracts/_ChunkManager.sol\":1215:1238  bytes(chunks[i]).length */\n      mload\n        /* \"contracts/_ChunkManager.sol\":1200:1238  totalLength += bytes(chunks[i]).length */\n      dup3\n      tag_57\n      swap2\n      swap1\n      tag_19\n      jump\t// in\n    tag_57:\n      swap2\n      pop\n        /* \"contracts/_ChunkManager.sol\":1180:1183  i++ */\n      dup1\n      dup1\n      0x01\n      add\n      swap2\n      pop\n      pop\n        /* \"contracts/_ChunkManager.sol\":1141:1250  for (uint256 i = 0; i < chunks.length; i++) {... */\n      jump(tag_52)\n    tag_53:\n      pop\n        /* \"contracts/_ChunkManager.sol\":1262:1281  bytes memory result */\n      0x00\n        /* \"contracts/_ChunkManager.sol\":1294:1305  totalLength */\n      dup2\n        /* \"contracts/_ChunkManager.sol\":1284:1306  new bytes(totalLength) */\n      0xffffffffffffffff\n      dup2\n      gt\n      iszero\n      tag_58\n      jumpi\n      tag_59\n      tag_26\n      jump\t// in\n    tag_59:\n    tag_58:\n      mload(0x40)\n      swap1\n      dup1\n      dup3\n      mstore\n      dup1\n      0x1f\n      add\n      not(0x1f)\n      and\n      0x20\n      add\n      dup3\n      add\n      0x40\n      mstore\n      dup1\n      iszero\n      tag_60\n      jumpi\n      dup2\n      0x20\n      add\n      0x01\n      dup3\n      mul\n      dup1\n      calldatasize\n      dup4\n      calldatacopy\n      dup1\n      dup3\n      add\n      swap2\n      pop\n      pop\n      swap1\n      pop\n    tag_60:\n      pop\n        /* \"contracts/_ChunkManager.sol\":1262:1306  bytes memory result = new bytes(totalLength) */\n      swap1\n      pop\n        /* \"contracts/_ChunkManager.sol\":1317:1337  uint256 currentIndex */\n      0x00\n        /* \"contracts/_ChunkManager.sol\":1359:1368  uint256 i */\n      dup1\n        /* \"contracts/_ChunkManager.sol\":1354:1602  for (uint256 i = 0; i < chunks.length; i++) {... */\n    tag_61:\n        /* \"contracts/_ChunkManager.sol\":1378:1384  chunks */\n      dup6\n        /* \"contracts/_ChunkManager.sol\":1378:1391  chunks.length */\n      mload\n        /* \"contracts/_ChunkManager.sol\":1374:1375  i */\n      dup2\n        /* \"contracts/_ChunkManager.sol\":1374:1391  i < chunks.length */\n      lt\n        /* \"contracts/_ChunkManager.sol\":1354:1602  for (uint256 i = 0; i < chunks.length; i++) {... */\n      iszero\n      tag_62\n      jumpi\n        /* \"contracts/_ChunkManager.sol\":1413:1436  bytes memory chunkBytes */\n      0x00\n        /* \"contracts/_ChunkManager.sol\":1445:1451  chunks */\n      dup7\n        /* \"contracts/_ChunkManager.sol\":1452:1453  i */\n      dup3\n        /* \"contracts/_ChunkManager.sol\":1445:1454  chunks[i] */\n      dup2\n      mload\n      dup2\n      lt\n      tag_64\n      jumpi\n      tag_65\n      tag_45\n      jump\t// in\n    tag_65:\n    tag_64:\n      0x20\n      mul\n      0x20\n      add\n      add\n      mload\n        /* \"contracts/_ChunkManager.sol\":1413:1455  bytes memory chunkBytes = bytes(chunks[i]) */\n      swap1\n      pop\n        /* \"contracts/_ChunkManager.sol\":1475:1484  uint256 j */\n      0x00\n        /* \"contracts/_ChunkManager.sol\":1470:1591  for (uint256 j = 0; j < chunkBytes.length; j++) {... */\n    tag_66:\n        /* \"contracts/_ChunkManager.sol\":1494:1504  chunkBytes */\n      dup2\n        /* \"contracts/_ChunkManager.sol\":1494:1511  chunkBytes.length */\n      mload\n        /* \"contracts/_ChunkManager.sol\":1490:1491  j */\n      dup2\n        /* \"contracts/_ChunkManager.sol\":1490:1511  j < chunkBytes.length */\n      lt\n        /* \"contracts/_ChunkManager.sol\":1470:1591  for (uint256 j = 0; j < chunkBytes.length; j++) {... */\n      iszero\n      tag_67\n      jumpi\n        /* \"contracts/_ChunkManager.sol\":1562:1572  chunkBytes */\n      dup2\n        /* \"contracts/_ChunkManager.sol\":1573:1574  j */\n      dup2\n        /* \"contracts/_ChunkManager.sol\":1562:1575  chunkBytes[j] */\n      dup2\n      mload\n      dup2\n      lt\n      tag_69\n      jumpi\n      tag_70\n      tag_45\n      jump\t// in\n    tag_70:\n    tag_69:\n      0x20\n      add\n      add\n      mload\n      0xf8\n      shr\n      0xf8\n      shl\n        /* \"contracts/_ChunkManager.sol\":1537:1543  result */\n      dup6\n        /* \"contracts/_ChunkManager.sol\":1544:1558  currentIndex++ */\n      dup6\n      dup1\n      tag_71\n      swap1\n      tag_72\n      jump\t// in\n    tag_71:\n      swap7\n      pop\n        /* \"contracts/_ChunkManager.sol\":1537:1559  result[currentIndex++] */\n      dup2\n      mload\n      dup2\n      lt\n      tag_73\n      jumpi\n      tag_74\n      tag_45\n      jump\t// in\n    tag_74:\n    tag_73:\n      0x20\n      add\n      add\n        /* \"contracts/_ChunkManager.sol\":1537:1575  result[currentIndex++] = chunkBytes[j] */\n      swap1\n      not(0xffffffffffffffffffffffffffffffffffffffffffffffffffffffffffffff)\n      and\n      swap1\n      dup2\n      0x00\n      byte\n      swap1\n      mstore8\n      pop\n        /* \"contracts/_ChunkManager.sol\":1513:1516  j++ */\n      dup1\n      dup1\n      0x01\n      add\n      swap2\n      pop\n      pop\n        /* \"contracts/_ChunkManager.sol\":1470:1591  for (uint256 j = 0; j < chunkBytes.length; j++) {... */\n      jump(tag_66)\n    tag_67:\n      pop\n        /* \"contracts/_ChunkManager.sol\":1398:1602  {... */\n      pop\n        /* \"contracts/_ChunkManager.sol\":1393:1396  i++ */\n      dup1\n      dup1\n      0x01\n      add\n      swap2\n      pop\n      pop\n        /* \"contracts/_ChunkManager.sol\":1354:1602  for (uint256 i = 0; i < chunks.length; i++) {... */\n      jump(tag_61)\n    tag_62:\n      pop\n        /* \"contracts/_ChunkManager.sol\":1628:1634  result */\n      dup2\n        /* \"contracts/_ChunkManager.sol\":1614:1635  return string(result) */\n      swap4\n      pop\n      pop\n      pop\n      pop\n        /* \"contracts/_ChunkManager.sol\":948:1643  function concatenateChunks(string[] memory chunks) public pure returns (string memory) {                              //Changed to public for testing... */\n      swap2\n      swap1\n      pop\n      jump\t// out\n        /* \"#utility.yul\":7:82   */\n    tag_75:\n        /* \"#utility.yul\":40:46   */\n      0x00\n        /* \"#utility.yul\":73:75   */\n      0x40\n        /* \"#utility.yul\":67:76   */\n      mload\n        /* \"#utility.yul\":57:76   */\n      swap1\n      pop\n        /* \"#utility.yul\":7:82   */\n      swap1\n      jump\t// out\n        /* \"#utility.yul\":88:205   */\n    tag_76:\n        /* \"#utility.yul\":197:198   */\n      0x00\n        /* \"#utility.yul\":194:195   */\n      dup1\n        /* \"#utility.yul\":187:199   */\n      revert\n        /* \"#utility.yul\":211:328   */\n    tag_77:\n        /* \"#utility.yul\":320:321   */\n      0x00\n        /* \"#utility.yul\":317:318   */\n      dup1\n        /* \"#utility.yul\":310:322   */\n      revert\n        /* \"#utility.yul\":334:451   */\n    tag_78:\n        /* \"#utility.yul\":443:444   */\n      0x00\n        /* \"#utility.yul\":440:441   */\n      dup1\n        /* \"#utility.yul\":433:445   */\n      revert\n        /* \"#utility.yul\":457:574   */\n    tag_79:\n        /* \"#utility.yul\":566:567   */\n      0x00\n        /* \"#utility.yul\":563:564   */\n      dup1\n        /* \"#utility.yul\":556:568   */\n      revert\n        /* \"#utility.yul\":580:682   */\n    tag_80:\n        /* \"#utility.yul\":621:627   */\n      0x00\n        /* \"#utility.yul\":672:674   */\n      0x1f\n        /* \"#utility.yul\":668:675   */\n      not\n        /* \"#utility.yul\":663:665   */\n      0x1f\n        /* \"#utility.yul\":656:661   */\n      dup4\n        /* \"#utility.yul\":652:666   */\n      add\n        /* \"#utility.yul\":648:676   */\n      and\n        /* \"#utility.yul\":638:676   */\n      swap1\n      pop\n        /* \"#utility.yul\":580:682   */\n      swap2\n      swap1\n      pop\n      jump\t// out\n        /* \"#utility.yul\":688:868   */\n    tag_26:\n        /* \"#utility.yul\":736:813   */\n      0x4e487b7100000000000000000000000000000000000000000000000000000000\n        /* \"#utility.yul\":733:734   */\n      0x00\n        /* \"#utility.yul\":726:814   */\n      mstore\n        /* \"#utility.yul\":833:837   */\n      0x41\n        /* \"#utility.yul\":830:831   */\n      0x04\n        /* \"#utility.yul\":823:838   */\n      mstore\n        /* \"#utility.yul\":857:861   */\n      0x24\n        /* \"#utility.yul\":854:855   */\n      0x00\n        /* \"#utility.yul\":847:862   */\n      revert\n        /* \"#utility.yul\":874:1155   */\n    tag_81:\n        /* \"#utility.yul\":957:984   */\n      tag_115\n        /* \"#utility.yul\":979:983   */\n      dup3\n        /* \"#utility.yul\":957:984   */\n      tag_80\n      jump\t// in\n    tag_115:\n        /* \"#utility.yul\":949:955   */\n      dup2\n        /* \"#utility.yul\":945:985   */\n      add\n        /* \"#utility.yul\":1087:1093   */\n      dup2\n        /* \"#utility.yul\":1075:1085   */\n      dup2\n        /* \"#utility.yul\":1072:1094   */\n      lt\n        /* \"#utility.yul\":1051:1069   */\n      0xffffffffffffffff\n        /* \"#utility.yul\":1039:1049   */\n      dup3\n        /* \"#utility.yul\":1036:1070   */\n      gt\n        /* \"#utility.yul\":1033:1095   */\n      or\n        /* \"#utility.yul\":1030:1118   */\n      iszero\n      tag_116\n      jumpi\n        /* \"#utility.yul\":1098:1116   */\n      tag_117\n      tag_26\n      jump\t// in\n    tag_117:\n        /* \"#utility.yul\":1030:1118   */\n    tag_116:\n        /* \"#utility.yul\":1138:1148   */\n      dup1\n        /* \"#utility.yul\":1134:1136   */\n      0x40\n        /* \"#utility.yul\":1127:1149   */\n      mstore\n        /* \"#utility.yul\":917:1155   */\n      pop\n        /* \"#utility.yul\":874:1155   */\n      pop\n      pop\n      jump\t// out\n        /* \"#utility.yul\":1161:1290   */\n    tag_82:\n        /* \"#utility.yul\":1195:1201   */\n      0x00\n        /* \"#utility.yul\":1222:1242   */\n      tag_119\n      tag_75\n      jump\t// in\n    tag_119:\n        /* \"#utility.yul\":1212:1242   */\n      swap1\n      pop\n        /* \"#utility.yul\":1251:1284   */\n      tag_120\n        /* \"#utility.yul\":1279:1283   */\n      dup3\n        /* \"#utility.yul\":1271:1277   */\n      dup3\n        /* \"#utility.yul\":1251:1284   */\n      tag_81\n      jump\t// in\n    tag_120:\n        /* \"#utility.yul\":1161:1290   */\n      swap2\n      swap1\n      pop\n      jump\t// out\n        /* \"#utility.yul\":1296:1604   */\n    tag_83:\n        /* \"#utility.yul\":1358:1362   */\n      0x00\n        /* \"#utility.yul\":1448:1466   */\n      0xffffffffffffffff\n        /* \"#utility.yul\":1440:1446   */\n      dup3\n        /* \"#utility.yul\":1437:1467   */\n      gt\n        /* \"#utility.yul\":1434:1490   */\n      iszero\n      tag_122\n      jumpi\n        /* \"#utility.yul\":1470:1488   */\n      tag_123\n      tag_26\n      jump\t// in\n    tag_123:\n        /* \"#utility.yul\":1434:1490   */\n    tag_122:\n        /* \"#utility.yul\":1508:1537   */\n      tag_124\n        /* \"#utility.yul\":1530:1536   */\n      dup3\n        /* \"#utility.yul\":1508:1537   */\n      tag_80\n      jump\t// in\n    tag_124:\n        /* \"#utility.yul\":1500:1537   */\n      swap1\n      pop\n        /* \"#utility.yul\":1592:1596   */\n      0x20\n        /* \"#utility.yul\":1586:1590   */\n      dup2\n        /* \"#utility.yul\":1582:1597   */\n      add\n        /* \"#utility.yul\":1574:1597   */\n      swap1\n      pop\n        /* \"#utility.yul\":1296:1604   */\n      swap2\n      swap1\n      pop\n      jump\t// out\n        /* \"#utility.yul\":1610:1756   */\n    tag_84:\n        /* \"#utility.yul\":1707:1713   */\n      dup3\n        /* \"#utility.yul\":1702:1705   */\n      dup2\n        /* \"#utility.yul\":1697:1700   */\n      dup4\n        /* \"#utility.yul\":1684:1714   */\n      calldatacopy\n        /* \"#utility.yul\":1748:1749   */\n      0x00\n        /* \"#utility.yul\":1739:1745   */\n      dup4\n        /* \"#utility.yul\":1734:1737   */\n      dup4\n        /* \"#utility.yul\":1730:1746   */\n      add\n        /* \"#utility.yul\":1723:1750   */\n      mstore\n        /* \"#utility.yul\":1610:1756   */\n      pop\n      pop\n      pop\n      jump\t// out\n        /* \"#utility.yul\":1762:2187   */\n    tag_85:\n        /* \"#utility.yul\":1840:1845   */\n      0x00\n        /* \"#utility.yul\":1865:1931   */\n      tag_127\n        /* \"#utility.yul\":1881:1930   */\n      tag_128\n        /* \"#utility.yul\":1923:1929   */\n      dup5\n        /* \"#utility.yul\":1881:1930   */\n      tag_83\n      jump\t// in\n    tag_128:\n        /* \"#utility.yul\":1865:1931   */\n      tag_82\n      jump\t// in\n    tag_127:\n        /* \"#utility.yul\":1856:1931   */\n      swap1\n      pop\n        /* \"#utility.yul\":1954:1960   */\n      dup3\n        /* \"#utility.yul\":1947:1952   */\n      dup2\n        /* \"#utility.yul\":1940:1961   */\n      mstore\n        /* \"#utility.yul\":1992:1996   */\n      0x20\n        /* \"#utility.yul\":1985:1990   */\n      dup2\n        /* \"#utility.yul\":1981:1997   */\n      add\n        /* \"#utility.yul\":2030:2033   */\n      dup5\n        /* \"#utility.yul\":2021:2027   */\n      dup5\n        /* \"#utility.yul\":2016:2019   */\n      dup5\n        /* \"#utility.yul\":2012:2028   */\n      add\n        /* \"#utility.yul\":2009:2034   */\n      gt\n        /* \"#utility.yul\":2006:2118   */\n      iszero\n      tag_129\n      jumpi\n        /* \"#utility.yul\":2037:2116   */\n      tag_130\n      tag_79\n      jump\t// in\n    tag_130:\n        /* \"#utility.yul\":2006:2118   */\n    tag_129:\n        /* \"#utility.yul\":2127:2181   */\n      tag_131\n        /* \"#utility.yul\":2174:2180   */\n      dup5\n        /* \"#utility.yul\":2169:2172   */\n      dup3\n        /* \"#utility.yul\":2164:2167   */\n      dup6\n        /* \"#utility.yul\":2127:2181   */\n      tag_84\n      jump\t// in\n    tag_131:\n        /* \"#utility.yul\":1846:2187   */\n      pop\n        /* \"#utility.yul\":1762:2187   */\n      swap4\n      swap3\n      pop\n      pop\n      pop\n      jump\t// out\n        /* \"#utility.yul\":2207:2547   */\n    tag_86:\n        /* \"#utility.yul\":2263:2268   */\n      0x00\n        /* \"#utility.yul\":2312:2315   */\n      dup3\n        /* \"#utility.yul\":2305:2309   */\n      0x1f\n        /* \"#utility.yul\":2297:2303   */\n      dup4\n        /* \"#utility.yul\":2293:2310   */\n      add\n        /* \"#utility.yul\":2289:2316   */\n      slt\n        /* \"#utility.yul\":2279:2401   */\n      tag_133\n      jumpi\n        /* \"#utility.yul\":2320:2399   */\n      tag_134\n      tag_78\n      jump\t// in\n    tag_134:\n        /* \"#utility.yul\":2279:2401   */\n    tag_133:\n        /* \"#utility.yul\":2437:2443   */\n      dup2\n        /* \"#utility.yul\":2424:2444   */\n      calldataload\n        /* \"#utility.yul\":2462:2541   */\n      tag_135\n        /* \"#utility.yul\":2537:2540   */\n      dup5\n        /* \"#utility.yul\":2529:2535   */\n      dup3\n        /* \"#utility.yul\":2522:2526   */\n      0x20\n        /* \"#utility.yul\":2514:2520   */\n      dup7\n        /* \"#utility.yul\":2510:2527   */\n      add\n        /* \"#utility.yul\":2462:2541   */\n      tag_85\n      jump\t// in\n    tag_135:\n        /* \"#utility.yul\":2453:2541   */\n      swap2\n      pop\n        /* \"#utility.yul\":2269:2547   */\n      pop\n        /* \"#utility.yul\":2207:2547   */\n      swap3\n      swap2\n      pop\n      pop\n      jump\t// out\n        /* \"#utility.yul\":2553:3062   */\n    tag_7:\n        /* \"#utility.yul\":2622:2628   */\n      0x00\n        /* \"#utility.yul\":2671:2673   */\n      0x20\n        /* \"#utility.yul\":2659:2668   */\n      dup3\n        /* \"#utility.yul\":2650:2657   */\n      dup5\n        /* \"#utility.yul\":2646:2669   */\n      sub\n        /* \"#utility.yul\":2642:2674   */\n      slt\n        /* \"#utility.yul\":2639:2758   */\n      iszero\n      tag_137\n      jumpi\n        /* \"#utility.yul\":2677:2756   */\n      tag_138\n      tag_76\n      jump\t// in\n    tag_138:\n        /* \"#utility.yul\":2639:2758   */\n    tag_137:\n        /* \"#utility.yul\":2825:2826   */\n      0x00\n        /* \"#utility.yul\":2814:2823   */\n      dup3\n        /* \"#utility.yul\":2810:2827   */\n      add\n        /* \"#utility.yul\":2797:2828   */\n      calldataload\n        /* \"#utility.yul\":2855:2873   */\n      0xffffffffffffffff\n        /* \"#utility.yul\":2847:2853   */\n      dup2\n        /* \"#utility.yul\":2844:2874   */\n      gt\n        /* \"#utility.yul\":2841:2958   */\n      iszero\n      tag_139\n      jumpi\n        /* \"#utility.yul\":2877:2956   */\n      tag_140\n      tag_77\n      jump\t// in\n    tag_140:\n        /* \"#utility.yul\":2841:2958   */\n    tag_139:\n        /* \"#utility.yul\":2982:3045   */\n      tag_141\n        /* \"#utility.yul\":3037:3044   */\n      dup5\n        /* \"#utility.yul\":3028:3034   */\n      dup3\n        /* \"#utility.yul\":3017:3026   */\n      dup6\n        /* \"#utility.yul\":3013:3035   */\n      add\n        /* \"#utility.yul\":2982:3045   */\n      tag_86\n      jump\t// in\n    tag_141:\n        /* \"#utility.yul\":2972:3045   */\n      swap2\n      pop\n        /* \"#utility.yul\":2768:3055   */\n      pop\n        /* \"#utility.yul\":2553:3062   */\n      swap3\n      swap2\n      pop\n      pop\n      jump\t// out\n        /* \"#utility.yul\":3068:3192   */\n    tag_87:\n        /* \"#utility.yul\":3145:3151   */\n      0x00\n        /* \"#utility.yul\":3179:3184   */\n      dup2\n        /* \"#utility.yul\":3173:3185   */\n      mload\n        /* \"#utility.yul\":3163:3185   */\n      swap1\n      pop\n        /* \"#utility.yul\":3068:3192   */\n      swap2\n      swap1\n      pop\n      jump\t// out\n        /* \"#utility.yul\":3198:3392   */\n    tag_88:\n        /* \"#utility.yul\":3307:3318   */\n      0x00\n        /* \"#utility.yul\":3341:3347   */\n      dup3\n        /* \"#utility.yul\":3336:3339   */\n      dup3\n        /* \"#utility.yul\":3329:3348   */\n      mstore\n        /* \"#utility.yul\":3381:3385   */\n      0x20\n        /* \"#utility.yul\":3376:3379   */\n      dup3\n        /* \"#utility.yul\":3372:3386   */\n      add\n        /* \"#utility.yul\":3357:3386   */\n      swap1\n      pop\n        /* \"#utility.yul\":3198:3392   */\n      swap3\n      swap2\n      pop\n      pop\n      jump\t// out\n        /* \"#utility.yul\":3398:3540   */\n    tag_89:\n        /* \"#utility.yul\":3475:3479   */\n      0x00\n        /* \"#utility.yul\":3498:3501   */\n      dup2\n        /* \"#utility.yul\":3490:3501   */\n      swap1\n      pop\n        /* \"#utility.yul\":3528:3532   */\n      0x20\n        /* \"#utility.yul\":3523:3526   */\n      dup3\n        /* \"#utility.yul\":3519:3533   */\n      add\n        /* \"#utility.yul\":3511:3533   */\n      swap1\n      pop\n        /* \"#utility.yul\":3398:3540   */\n      swap2\n      swap1\n      pop\n      jump\t// out\n        /* \"#utility.yul\":3546:3645   */\n    tag_90:\n        /* \"#utility.yul\":3598:3604   */\n      0x00\n        /* \"#utility.yul\":3632:3637   */\n      dup2\n        /* \"#utility.yul\":3626:3638   */\n      mload\n        /* \"#utility.yul\":3616:3638   */\n      swap1\n      pop\n        /* \"#utility.yul\":3546:3645   */\n      swap2\n      swap1\n      pop\n      jump\t// out\n        /* \"#utility.yul\":3651:3810   */\n    tag_91:\n        /* \"#utility.yul\":3725:3736   */\n      0x00\n        /* \"#utility.yul\":3759:3765   */\n      dup3\n        /* \"#utility.yul\":3754:3757   */\n      dup3\n        /* \"#utility.yul\":3747:3766   */\n      mstore\n        /* \"#utility.yul\":3799:3803   */\n      0x20\n        /* \"#utility.yul\":3794:3797   */\n      dup3\n        /* \"#utility.yul\":3790:3804   */\n      add\n        /* \"#utility.yul\":3775:3804   */\n      swap1\n      pop\n        /* \"#utility.yul\":3651:3810   */\n      swap3\n      swap2\n      pop\n      pop\n      jump\t// out\n        /* \"#utility.yul\":3816:4062   */\n    tag_92:\n        /* \"#utility.yul\":3897:3898   */\n      0x00\n        /* \"#utility.yul\":3907:4020   */\n    tag_148:\n        /* \"#utility.yul\":3921:3927   */\n      dup4\n        /* \"#utility.yul\":3918:3919   */\n      dup2\n        /* \"#utility.yul\":3915:3928   */\n      lt\n        /* \"#utility.yul\":3907:4020   */\n      iszero\n      tag_150\n      jumpi\n        /* \"#utility.yul\":4006:4007   */\n      dup1\n        /* \"#utility.yul\":4001:4004   */\n      dup3\n        /* \"#utility.yul\":3997:4008   */\n      add\n        /* \"#utility.yul\":3991:4009   */\n      mload\n        /* \"#utility.yul\":3987:3988   */\n      dup2\n        /* \"#utility.yul\":3982:3985   */\n      dup5\n        /* \"#utility.yul\":3978:3989   */\n      add\n        /* \"#utility.yul\":3971:4010   */\n      mstore\n        /* \"#utility.yul\":3943:3945   */\n      0x20\n        /* \"#utility.yul\":3940:3941   */\n      dup2\n        /* \"#utility.yul\":3936:3946   */\n      add\n        /* \"#utility.yul\":3931:3946   */\n      swap1\n      pop\n        /* \"#utility.yul\":3907:4020   */\n      jump(tag_148)\n    tag_150:\n        /* \"#utility.yul\":4054:4055   */\n      0x00\n        /* \"#utility.yul\":4045:4051   */\n      dup5\n        /* \"#utility.yul\":4040:4043   */\n      dup5\n        /* \"#utility.yul\":4036:4052   */\n      add\n        /* \"#utility.yul\":4029:4056   */\n      mstore\n        /* \"#utility.yul\":3878:4062   */\n      pop\n        /* \"#utility.yul\":3816:4062   */\n      pop\n      pop\n      pop\n      jump\t// out\n        /* \"#utility.yul\":4068:4425   */\n    tag_93:\n        /* \"#utility.yul\":4146:4149   */\n      0x00\n        /* \"#utility.yul\":4174:4213   */\n      tag_152\n        /* \"#utility.yul\":4207:4212   */\n      dup3\n        /* \"#utility.yul\":4174:4213   */\n      tag_90\n      jump\t// in\n    tag_152:\n        /* \"#utility.yul\":4229:4290   */\n      tag_153\n        /* \"#utility.yul\":4283:4289   */\n      dup2\n        /* \"#utility.yul\":4278:4281   */\n      dup6\n        /* \"#utility.yul\":4229:4290   */\n      tag_91\n      jump\t// in\n    tag_153:\n        /* \"#utility.yul\":4222:4290   */\n      swap4\n      pop\n        /* \"#utility.yul\":4299:4364   */\n      tag_154\n        /* \"#utility.yul\":4357:4363   */\n      dup2\n        /* \"#utility.yul\":4352:4355   */\n      dup6\n        /* \"#utility.yul\":4345:4349   */\n      0x20\n        /* \"#utility.yul\":4338:4343   */\n      dup7\n        /* \"#utility.yul\":4334:4350   */\n      add\n        /* \"#utility.yul\":4299:4364   */\n      tag_92\n      jump\t// in\n    tag_154:\n        /* \"#utility.yul\":4389:4418   */\n      tag_155\n        /* \"#utility.yul\":4411:4417   */\n      dup2\n        /* \"#utility.yul\":4389:4418   */\n      tag_80\n      jump\t// in\n    tag_155:\n        /* \"#utility.yul\":4384:4387   */\n      dup5\n        /* \"#utility.yul\":4380:4419   */\n      add\n        /* \"#utility.yul\":4373:4419   */\n      swap2\n      pop\n        /* \"#utility.yul\":4150:4425   */\n      pop\n        /* \"#utility.yul\":4068:4425   */\n      swap3\n      swap2\n      pop\n      pop\n      jump\t// out\n        /* \"#utility.yul\":4431:4627   */\n    tag_94:\n        /* \"#utility.yul\":4520:4530   */\n      0x00\n        /* \"#utility.yul\":4555:4621   */\n      tag_157\n        /* \"#utility.yul\":4617:4620   */\n      dup4\n        /* \"#utility.yul\":4609:4615   */\n      dup4\n        /* \"#utility.yul\":4555:4621   */\n      tag_93\n      jump\t// in\n    tag_157:\n        /* \"#utility.yul\":4541:4621   */\n      swap1\n      pop\n        /* \"#utility.yul\":4431:4627   */\n      swap3\n      swap2\n      pop\n      pop\n      jump\t// out\n        /* \"#utility.yul\":4633:4756   */\n    tag_95:\n        /* \"#utility.yul\":4713:4717   */\n      0x00\n        /* \"#utility.yul\":4745:4749   */\n      0x20\n        /* \"#utility.yul\":4740:4743   */\n      dup3\n        /* \"#utility.yul\":4736:4750   */\n      add\n        /* \"#utility.yul\":4728:4750   */\n      swap1\n      pop\n        /* \"#utility.yul\":4633:4756   */\n      swap2\n      swap1\n      pop\n      jump\t// out\n        /* \"#utility.yul\":4790:5781   */\n    tag_96:\n        /* \"#utility.yul\":4929:4932   */\n      0x00\n        /* \"#utility.yul\":4958:5022   */\n      tag_160\n        /* \"#utility.yul\":5016:5021   */\n      dup3\n        /* \"#utility.yul\":4958:5022   */\n      tag_87\n      jump\t// in\n    tag_160:\n        /* \"#utility.yul\":5038:5134   */\n      tag_161\n        /* \"#utility.yul\":5127:5133   */\n      dup2\n        /* \"#utility.yul\":5122:5125   */\n      dup6\n        /* \"#utility.yul\":5038:5134   */\n      tag_88\n      jump\t// in\n    tag_161:\n        /* \"#utility.yul\":5031:5134   */\n      swap4\n      pop\n        /* \"#utility.yul\":5160:5163   */\n      dup4\n        /* \"#utility.yul\":5205:5209   */\n      0x20\n        /* \"#utility.yul\":5197:5203   */\n      dup3\n        /* \"#utility.yul\":5193:5210   */\n      mul\n        /* \"#utility.yul\":5188:5191   */\n      dup6\n        /* \"#utility.yul\":5184:5211   */\n      add\n        /* \"#utility.yul\":5235:5301   */\n      tag_162\n        /* \"#utility.yul\":5295:5300   */\n      dup6\n        /* \"#utility.yul\":5235:5301   */\n      tag_89\n      jump\t// in\n    tag_162:\n        /* \"#utility.yul\":5324:5331   */\n      dup1\n        /* \"#utility.yul\":5355:5356   */\n      0x00\n        /* \"#utility.yul\":5340:5736   */\n    tag_163:\n        /* \"#utility.yul\":5365:5371   */\n      dup6\n        /* \"#utility.yul\":5362:5363   */\n      dup2\n        /* \"#utility.yul\":5359:5372   */\n      lt\n        /* \"#utility.yul\":5340:5736   */\n      iszero\n      tag_165\n      jumpi\n        /* \"#utility.yul\":5436:5445   */\n      dup5\n        /* \"#utility.yul\":5430:5434   */\n      dup5\n        /* \"#utility.yul\":5426:5446   */\n      sub\n        /* \"#utility.yul\":5421:5424   */\n      dup10\n        /* \"#utility.yul\":5414:5447   */\n      mstore\n        /* \"#utility.yul\":5487:5493   */\n      dup2\n        /* \"#utility.yul\":5481:5494   */\n      mload\n        /* \"#utility.yul\":5515:5599   */\n      tag_166\n        /* \"#utility.yul\":5594:5598   */\n      dup6\n        /* \"#utility.yul\":5579:5592   */\n      dup3\n        /* \"#utility.yul\":5515:5599   */\n      tag_94\n      jump\t// in\n    tag_166:\n        /* \"#utility.yul\":5507:5599   */\n      swap5\n      pop\n        /* \"#utility.yul\":5622:5692   */\n      tag_167\n        /* \"#utility.yul\":5685:5691   */\n      dup4\n        /* \"#utility.yul\":5622:5692   */\n      tag_95\n      jump\t// in\n    tag_167:\n        /* \"#utility.yul\":5612:5692   */\n      swap3\n      pop\n        /* \"#utility.yul\":5721:5725   */\n      0x20\n        /* \"#utility.yul\":5716:5719   */\n      dup11\n        /* \"#utility.yul\":5712:5726   */\n      add\n        /* \"#utility.yul\":5705:5726   */\n      swap10\n      pop\n        /* \"#utility.yul\":5400:5736   */\n      pop\n        /* \"#utility.yul\":5387:5388   */\n      0x01\n        /* \"#utility.yul\":5384:5385   */\n      dup2\n        /* \"#utility.yul\":5380:5389   */\n      add\n        /* \"#utility.yul\":5375:5389   */\n      swap1\n      pop\n        /* \"#utility.yul\":5340:5736   */\n      jump(tag_163)\n    tag_165:\n        /* \"#utility.yul\":5344:5358   */\n      pop\n        /* \"#utility.yul\":5752:5756   */\n      dup3\n        /* \"#utility.yul\":5745:5756   */\n      swap8\n      pop\n        /* \"#utility.yul\":5772:5775   */\n      dup8\n        /* \"#utility.yul\":5765:5775   */\n      swap6\n      pop\n        /* \"#utility.yul\":4934:5781   */\n      pop\n      pop\n      pop\n      pop\n      pop\n        /* \"#utility.yul\":4790:5781   */\n      swap3\n      swap2\n      pop\n      pop\n      jump\t// out\n        /* \"#utility.yul\":5787:6200   */\n    tag_10:\n        /* \"#utility.yul\":5950:5954   */\n      0x00\n        /* \"#utility.yul\":5988:5990   */\n      0x20\n        /* \"#utility.yul\":5977:5986   */\n      dup3\n        /* \"#utility.yul\":5973:5991   */\n      add\n        /* \"#utility.yul\":5965:5991   */\n      swap1\n      pop\n        /* \"#utility.yul\":6037:6046   */\n      dup2\n        /* \"#utility.yul\":6031:6035   */\n      dup2\n        /* \"#utility.yul\":6027:6047   */\n      sub\n        /* \"#utility.yul\":6023:6024   */\n      0x00\n        /* \"#utility.yul\":6012:6021   */\n      dup4\n        /* \"#utility.yul\":6008:6025   */\n      add\n        /* \"#utility.yul\":6001:6048   */\n      mstore\n        /* \"#utility.yul\":6065:6193   */\n      tag_169\n        /* \"#utility.yul\":6188:6192   */\n      dup2\n        /* \"#utility.yul\":6179:6185   */\n      dup5\n        /* \"#utility.yul\":6065:6193   */\n      tag_96\n      jump\t// in\n    tag_169:\n        /* \"#utility.yul\":6057:6193   */\n      swap1\n      pop\n        /* \"#utility.yul\":5787:6200   */\n      swap3\n      swap2\n      pop\n      pop\n      jump\t// out\n        /* \"#utility.yul\":6206:6527   */\n    tag_97:\n        /* \"#utility.yul\":6293:6297   */\n      0x00\n        /* \"#utility.yul\":6383:6401   */\n      0xffffffffffffffff\n        /* \"#utility.yul\":6375:6381   */\n      dup3\n        /* \"#utility.yul\":6372:6402   */\n      gt\n        /* \"#utility.yul\":6369:6425   */\n      iszero\n      tag_171\n      jumpi\n        /* \"#utility.yul\":6405:6423   */\n      tag_172\n      tag_26\n      jump\t// in\n    tag_172:\n        /* \"#utility.yul\":6369:6425   */\n    tag_171:\n        /* \"#utility.yul\":6455:6459   */\n      0x20\n        /* \"#utility.yul\":6447:6453   */\n      dup3\n        /* \"#utility.yul\":6443:6460   */\n      mul\n        /* \"#utility.yul\":6435:6460   */\n      swap1\n      pop\n        /* \"#utility.yul\":6515:6519   */\n      0x20\n        /* \"#utility.yul\":6509:6513   */\n      dup2\n        /* \"#utility.yul\":6505:6520   */\n      add\n        /* \"#utility.yul\":6497:6520   */\n      swap1\n      pop\n        /* \"#utility.yul\":6206:6527   */\n      swap2\n      swap1\n      pop\n      jump\t// out\n        /* \"#utility.yul\":6533:6650   */\n    tag_98:\n        /* \"#utility.yul\":6642:6643   */\n      0x00\n        /* \"#utility.yul\":6639:6640   */\n      dup1\n        /* \"#utility.yul\":6632:6644   */\n      revert\n        /* \"#utility.yul\":6672:7617   */\n    tag_99:\n        /* \"#utility.yul\":6778:6783   */\n      0x00\n        /* \"#utility.yul\":6803:6894   */\n      tag_175\n        /* \"#utility.yul\":6819:6893   */\n      tag_176\n        /* \"#utility.yul\":6886:6892   */\n      dup5\n        /* \"#utility.yul\":6819:6893   */\n      tag_97\n      jump\t// in\n    tag_176:\n        /* \"#utility.yul\":6803:6894   */\n      tag_82\n      jump\t// in\n    tag_175:\n        /* \"#utility.yul\":6794:6894   */\n      swap1\n      pop\n        /* \"#utility.yul\":6914:6919   */\n      dup1\n        /* \"#utility.yul\":6943:6949   */\n      dup4\n        /* \"#utility.yul\":6936:6941   */\n      dup3\n        /* \"#utility.yul\":6929:6950   */\n      mstore\n        /* \"#utility.yul\":6977:6981   */\n      0x20\n        /* \"#utility.yul\":6970:6975   */\n      dup3\n        /* \"#utility.yul\":6966:6982   */\n      add\n        /* \"#utility.yul\":6959:6982   */\n      swap1\n      pop\n        /* \"#utility.yul\":7030:7034   */\n      0x20\n        /* \"#utility.yul\":7022:7028   */\n      dup5\n        /* \"#utility.yul\":7018:7035   */\n      mul\n        /* \"#utility.yul\":7010:7016   */\n      dup4\n        /* \"#utility.yul\":7006:7036   */\n      add\n        /* \"#utility.yul\":7059:7062   */\n      dup6\n        /* \"#utility.yul\":7051:7057   */\n      dup2\n        /* \"#utility.yul\":7048:7063   */\n      gt\n        /* \"#utility.yul\":7045:7167   */\n      iszero\n      tag_177\n      jumpi\n        /* \"#utility.yul\":7078:7157   */\n      tag_178\n      tag_98\n      jump\t// in\n    tag_178:\n        /* \"#utility.yul\":7045:7167   */\n    tag_177:\n        /* \"#utility.yul\":7193:7199   */\n      dup4\n        /* \"#utility.yul\":7176:7611   */\n    tag_179:\n        /* \"#utility.yul\":7210:7216   */\n      dup2\n        /* \"#utility.yul\":7205:7208   */\n      dup2\n        /* \"#utility.yul\":7202:7217   */\n      lt\n        /* \"#utility.yul\":7176:7611   */\n      iszero\n      tag_181\n      jumpi\n        /* \"#utility.yul\":7299:7302   */\n      dup1\n        /* \"#utility.yul\":7286:7303   */\n      calldataload\n        /* \"#utility.yul\":7335:7353   */\n      0xffffffffffffffff\n        /* \"#utility.yul\":7322:7333   */\n      dup2\n        /* \"#utility.yul\":7319:7354   */\n      gt\n        /* \"#utility.yul\":7316:7438   */\n      iszero\n      tag_182\n      jumpi\n        /* \"#utility.yul\":7357:7436   */\n      tag_183\n      tag_78\n      jump\t// in\n    tag_183:\n        /* \"#utility.yul\":7316:7438   */\n    tag_182:\n        /* \"#utility.yul\":7481:7492   */\n      dup1\n        /* \"#utility.yul\":7473:7479   */\n      dup7\n        /* \"#utility.yul\":7469:7493   */\n      add\n        /* \"#utility.yul\":7519:7566   */\n      tag_184\n        /* \"#utility.yul\":7562:7565   */\n      dup10\n        /* \"#utility.yul\":7550:7560   */\n      dup3\n        /* \"#utility.yul\":7519:7566   */\n      tag_86\n      jump\t// in\n    tag_184:\n        /* \"#utility.yul\":7514:7517   */\n      dup6\n        /* \"#utility.yul\":7507:7567   */\n      mstore\n        /* \"#utility.yul\":7596:7600   */\n      0x20\n        /* \"#utility.yul\":7591:7594   */\n      dup6\n        /* \"#utility.yul\":7587:7601   */\n      add\n        /* \"#utility.yul\":7580:7601   */\n      swap5\n      pop\n        /* \"#utility.yul\":7252:7611   */\n      pop\n      pop\n        /* \"#utility.yul\":7236:7240   */\n      0x20\n        /* \"#utility.yul\":7231:7234   */\n      dup2\n        /* \"#utility.yul\":7227:7241   */\n      add\n        /* \"#utility.yul\":7220:7241   */\n      swap1\n      pop\n        /* \"#utility.yul\":7176:7611   */\n      jump(tag_179)\n    tag_181:\n        /* \"#utility.yul\":7180:7201   */\n      pop\n        /* \"#utility.yul\":6784:7617   */\n      pop\n      pop\n        /* \"#utility.yul\":6672:7617   */\n      swap4\n      swap3\n      pop\n      pop\n      pop\n      jump\t// out\n        /* \"#utility.yul\":7639:8029   */\n    tag_100:\n        /* \"#utility.yul\":7720:7725   */\n      0x00\n        /* \"#utility.yul\":7769:7772   */\n      dup3\n        /* \"#utility.yul\":7762:7766   */\n      0x1f\n        /* \"#utility.yul\":7754:7760   */\n      dup4\n        /* \"#utility.yul\":7750:7767   */\n      add\n        /* \"#utility.yul\":7746:7773   */\n      slt\n        /* \"#utility.yul\":7736:7858   */\n      tag_186\n      jumpi\n        /* \"#utility.yul\":7777:7856   */\n      tag_187\n      tag_78\n      jump\t// in\n    tag_187:\n        /* \"#utility.yul\":7736:7858   */\n    tag_186:\n        /* \"#utility.yul\":7894:7900   */\n      dup2\n        /* \"#utility.yul\":7881:7901   */\n      calldataload\n        /* \"#utility.yul\":7919:8023   */\n      tag_188\n        /* \"#utility.yul\":8019:8022   */\n      dup5\n        /* \"#utility.yul\":8011:8017   */\n      dup3\n        /* \"#utility.yul\":8004:8008   */\n      0x20\n        /* \"#utility.yul\":7996:8002   */\n      dup7\n        /* \"#utility.yul\":7992:8009   */\n      add\n        /* \"#utility.yul\":7919:8023   */\n      tag_99\n      jump\t// in\n    tag_188:\n        /* \"#utility.yul\":7910:8023   */\n      swap2\n      pop\n        /* \"#utility.yul\":7726:8029   */\n      pop\n        /* \"#utility.yul\":7639:8029   */\n      swap3\n      swap2\n      pop\n      pop\n      jump\t// out\n        /* \"#utility.yul\":8035:8594   */\n    tag_13:\n        /* \"#utility.yul\":8129:8135   */\n      0x00\n        /* \"#utility.yul\":8178:8180   */\n      0x20\n        /* \"#utility.yul\":8166:8175   */\n      dup3\n        /* \"#utility.yul\":8157:8164   */\n      dup5\n        /* \"#utility.yul\":8153:8176   */\n      sub\n        /* \"#utility.yul\":8149:8181   */\n      slt\n        /* \"#utility.yul\":8146:8265   */\n      iszero\n      tag_190\n      jumpi\n        /* \"#utility.yul\":8184:8263   */\n      tag_191\n      tag_76\n      jump\t// in\n    tag_191:\n        /* \"#utility.yul\":8146:8265   */\n    tag_190:\n        /* \"#utility.yul\":8332:8333   */\n      0x00\n        /* \"#utility.yul\":8321:8330   */\n      dup3\n        /* \"#utility.yul\":8317:8334   */\n      add\n        /* \"#utility.yul\":8304:8335   */\n      calldataload\n        /* \"#utility.yul\":8362:8380   */\n      0xffffffffffffffff\n        /* \"#utility.yul\":8354:8360   */\n      dup2\n        /* \"#utility.yul\":8351:8381   */\n      gt\n        /* \"#utility.yul\":8348:8465   */\n      iszero\n      tag_192\n      jumpi\n        /* \"#utility.yul\":8384:8463   */\n      tag_193\n      tag_77\n      jump\t// in\n    tag_193:\n        /* \"#utility.yul\":8348:8465   */\n    tag_192:\n        /* \"#utility.yul\":8489:8577   */\n      tag_194\n        /* \"#utility.yul\":8569:8576   */\n      dup5\n        /* \"#utility.yul\":8560:8566   */\n      dup3\n        /* \"#utility.yul\":8549:8558   */\n      dup6\n        /* \"#utility.yul\":8545:8567   */\n      add\n        /* \"#utility.yul\":8489:8577   */\n      tag_100\n      jump\t// in\n    tag_194:\n        /* \"#utility.yul\":8479:8577   */\n      swap2\n      pop\n        /* \"#utility.yul\":8275:8587   */\n      pop\n        /* \"#utility.yul\":8035:8594   */\n      swap3\n      swap2\n      pop\n      pop\n      jump\t// out\n        /* \"#utility.yul\":8600:8769   */\n    tag_101:\n        /* \"#utility.yul\":8684:8695   */\n      0x00\n        /* \"#utility.yul\":8718:8724   */\n      dup3\n        /* \"#utility.yul\":8713:8716   */\n      dup3\n        /* \"#utility.yul\":8706:8725   */\n      mstore\n        /* \"#utility.yul\":8758:8762   */\n      0x20\n        /* \"#utility.yul\":8753:8756   */\n      dup3\n        /* \"#utility.yul\":8749:8763   */\n      add\n        /* \"#utility.yul\":8734:8763   */\n      swap1\n      pop\n        /* \"#utility.yul\":8600:8769   */\n      swap3\n      swap2\n      pop\n      pop\n      jump\t// out\n        /* \"#utility.yul\":8775:9152   */\n    tag_102:\n        /* \"#utility.yul\":8863:8866   */\n      0x00\n        /* \"#utility.yul\":8891:8930   */\n      tag_197\n        /* \"#utility.yul\":8924:8929   */\n      dup3\n        /* \"#utility.yul\":8891:8930   */\n      tag_90\n      jump\t// in\n    tag_197:\n        /* \"#utility.yul\":8946:9017   */\n      tag_198\n        /* \"#utility.yul\":9010:9016   */\n      dup2\n        /* \"#utility.yul\":9005:9008   */\n      dup6\n        /* \"#utility.yul\":8946:9017   */\n      tag_101\n      jump\t// in\n    tag_198:\n        /* \"#utility.yul\":8939:9017   */\n      swap4\n      pop\n        /* \"#utility.yul\":9026:9091   */\n      tag_199\n        /* \"#utility.yul\":9084:9090   */\n      dup2\n        /* \"#utility.yul\":9079:9082   */\n      dup6\n        /* \"#utility.yul\":9072:9076   */\n      0x20\n        /* \"#utility.yul\":9065:9070   */\n      dup7\n        /* \"#utility.yul\":9061:9077   */\n      add\n        /* \"#utility.yul\":9026:9091   */\n      tag_92\n      jump\t// in\n    tag_199:\n        /* \"#utility.yul\":9116:9145   */\n      tag_200\n        /* \"#utility.yul\":9138:9144   */\n      dup2\n        /* \"#utility.yul\":9116:9145   */\n      tag_80\n      jump\t// in\n    tag_200:\n        /* \"#utility.yul\":9111:9114   */\n      dup5\n        /* \"#utility.yul\":9107:9146   */\n      add\n        /* \"#utility.yul\":9100:9146   */\n      swap2\n      pop\n        /* \"#utility.yul\":8867:9152   */\n      pop\n        /* \"#utility.yul\":8775:9152   */\n      swap3\n      swap2\n      pop\n      pop\n      jump\t// out\n        /* \"#utility.yul\":9158:9471   */\n    tag_16:\n        /* \"#utility.yul\":9271:9275   */\n      0x00\n        /* \"#utility.yul\":9309:9311   */\n      0x20\n        /* \"#utility.yul\":9298:9307   */\n      dup3\n        /* \"#utility.yul\":9294:9312   */\n      add\n        /* \"#utility.yul\":9286:9312   */\n      swap1\n      pop\n        /* \"#utility.yul\":9358:9367   */\n      dup2\n        /* \"#utility.yul\":9352:9356   */\n      dup2\n        /* \"#utility.yul\":9348:9368   */\n      sub\n        /* \"#utility.yul\":9344:9345   */\n      0x00\n        /* \"#utility.yul\":9333:9342   */\n      dup4\n        /* \"#utility.yul\":9329:9346   */\n      add\n        /* \"#utility.yul\":9322:9369   */\n      mstore\n        /* \"#utility.yul\":9386:9464   */\n      tag_202\n        /* \"#utility.yul\":9459:9463   */\n      dup2\n        /* \"#utility.yul\":9450:9456   */\n      dup5\n        /* \"#utility.yul\":9386:9464   */\n      tag_102\n      jump\t// in\n    tag_202:\n        /* \"#utility.yul\":9378:9464   */\n      swap1\n      pop\n        /* \"#utility.yul\":9158:9471   */\n      swap3\n      swap2\n      pop\n      pop\n      jump\t// out\n        /* \"#utility.yul\":9477:9554   */\n    tag_103:\n        /* \"#utility.yul\":9514:9521   */\n      0x00\n        /* \"#utility.yul\":9543:9548   */\n      dup2\n        /* \"#utility.yul\":9532:9548   */\n      swap1\n      pop\n        /* \"#utility.yul\":9477:9554   */\n      swap2\n      swap1\n      pop\n      jump\t// out\n        /* \"#utility.yul\":9560:9740   */\n    tag_104:\n        /* \"#utility.yul\":9608:9685   */\n      0x4e487b7100000000000000000000000000000000000000000000000000000000\n        /* \"#utility.yul\":9605:9606   */\n      0x00\n        /* \"#utility.yul\":9598:9686   */\n      mstore\n        /* \"#utility.yul\":9705:9709   */\n      0x11\n        /* \"#utility.yul\":9702:9703   */\n      0x04\n        /* \"#utility.yul\":9695:9710   */\n      mstore\n        /* \"#utility.yul\":9729:9733   */\n      0x24\n        /* \"#utility.yul\":9726:9727   */\n      0x00\n        /* \"#utility.yul\":9719:9734   */\n      revert\n        /* \"#utility.yul\":9746:9937   */\n    tag_19:\n        /* \"#utility.yul\":9786:9789   */\n      0x00\n        /* \"#utility.yul\":9805:9825   */\n      tag_206\n        /* \"#utility.yul\":9823:9824   */\n      dup3\n        /* \"#utility.yul\":9805:9825   */\n      tag_103\n      jump\t// in\n    tag_206:\n        /* \"#utility.yul\":9800:9825   */\n      swap2\n      pop\n        /* \"#utility.yul\":9839:9859   */\n      tag_207\n        /* \"#utility.yul\":9857:9858   */\n      dup4\n        /* \"#utility.yul\":9839:9859   */\n      tag_103\n      jump\t// in\n    tag_207:\n        /* \"#utility.yul\":9834:9859   */\n      swap3\n      pop\n        /* \"#utility.yul\":9882:9883   */\n      dup3\n        /* \"#utility.yul\":9879:9880   */\n      dup3\n        /* \"#utility.yul\":9875:9884   */\n      add\n        /* \"#utility.yul\":9868:9884   */\n      swap1\n      pop\n        /* \"#utility.yul\":9903:9906   */\n      dup1\n        /* \"#utility.yul\":9900:9901   */\n      dup3\n        /* \"#utility.yul\":9897:9907   */\n      gt\n        /* \"#utility.yul\":9894:9930   */\n      iszero\n      tag_208\n      jumpi\n        /* \"#utility.yul\":9910:9928   */\n      tag_209\n      tag_104\n      jump\t// in\n    tag_209:\n        /* \"#utility.yul\":9894:9930   */\n    tag_208:\n        /* \"#utility.yul\":9746:9937   */\n      swap3\n      swap2\n      pop\n      pop\n      jump\t// out\n        /* \"#utility.yul\":9943:10137   */\n    tag_21:\n        /* \"#utility.yul\":9983:9987   */\n      0x00\n        /* \"#utility.yul\":10003:10023   */\n      tag_211\n        /* \"#utility.yul\":10021:10022   */\n      dup3\n        /* \"#utility.yul\":10003:10023   */\n      tag_103\n      jump\t// in\n    tag_211:\n        /* \"#utility.yul\":9998:10023   */\n      swap2\n      pop\n        /* \"#utility.yul\":10037:10057   */\n      tag_212\n        /* \"#utility.yul\":10055:10056   */\n      dup4\n        /* \"#utility.yul\":10037:10057   */\n      tag_103\n      jump\t// in\n    tag_212:\n        /* \"#utility.yul\":10032:10057   */\n      swap3\n      pop\n        /* \"#utility.yul\":10081:10082   */\n      dup3\n        /* \"#utility.yul\":10078:10079   */\n      dup3\n        /* \"#utility.yul\":10074:10083   */\n      sub\n        /* \"#utility.yul\":10066:10083   */\n      swap1\n      pop\n        /* \"#utility.yul\":10105:10106   */\n      dup2\n        /* \"#utility.yul\":10099:10103   */\n      dup2\n        /* \"#utility.yul\":10096:10107   */\n      gt\n        /* \"#utility.yul\":10093:10130   */\n      iszero\n      tag_213\n      jumpi\n        /* \"#utility.yul\":10110:10128   */\n      tag_214\n      tag_104\n      jump\t// in\n    tag_214:\n        /* \"#utility.yul\":10093:10130   */\n    tag_213:\n        /* \"#utility.yul\":9943:10137   */\n      swap3\n      swap2\n      pop\n      pop\n      jump\t// out\n        /* \"#utility.yul\":10143:10323   */\n    tag_105:\n        /* \"#utility.yul\":10191:10268   */\n      0x4e487b7100000000000000000000000000000000000000000000000000000000\n        /* \"#utility.yul\":10188:10189   */\n      0x00\n        /* \"#utility.yul\":10181:10269   */\n      mstore\n        /* \"#utility.yul\":10288:10292   */\n      0x12\n        /* \"#utility.yul\":10285:10286   */\n      0x04\n        /* \"#utility.yul\":10278:10293   */\n      mstore\n        /* \"#utility.yul\":10312:10316   */\n      0x24\n        /* \"#utility.yul\":10309:10310   */\n      0x00\n        /* \"#utility.yul\":10302:10317   */\n      revert\n        /* \"#utility.yul\":10329:10514   */\n    tag_23:\n        /* \"#utility.yul\":10369:10370   */\n      0x00\n        /* \"#utility.yul\":10386:10406   */\n      tag_217\n        /* \"#utility.yul\":10404:10405   */\n      dup3\n        /* \"#utility.yul\":10386:10406   */\n      tag_103\n      jump\t// in\n    tag_217:\n        /* \"#utility.yul\":10381:10406   */\n      swap2\n      pop\n        /* \"#utility.yul\":10420:10440   */\n      tag_218\n        /* \"#utility.yul\":10438:10439   */\n      dup4\n        /* \"#utility.yul\":10420:10440   */\n      tag_103\n      jump\t// in\n    tag_218:\n        /* \"#utility.yul\":10415:10440   */\n      swap3\n      pop\n        /* \"#utility.yul\":10459:10460   */\n      dup3\n        /* \"#utility.yul\":10449:10484   */\n      tag_219\n      jumpi\n        /* \"#utility.yul\":10464:10482   */\n      tag_220\n      tag_105\n      jump\t// in\n    tag_220:\n        /* \"#utility.yul\":10449:10484   */\n    tag_219:\n        /* \"#utility.yul\":10506:10507   */\n      dup3\n        /* \"#utility.yul\":10503:10504   */\n      dup3\n        /* \"#utility.yul\":10499:10508   */\n      div\n        /* \"#utility.yul\":10494:10508   */\n      swap1\n      pop\n        /* \"#utility.yul\":10329:10514   */\n      swap3\n      swap2\n      pop\n      pop\n      jump\t// out\n        /* \"#utility.yul\":10520:10930   */\n    tag_33:\n        /* \"#utility.yul\":10560:10567   */\n      0x00\n        /* \"#utility.yul\":10583:10603   */\n      tag_222\n        /* \"#utility.yul\":10601:10602   */\n      dup3\n        /* \"#utility.yul\":10583:10603   */\n      tag_103\n      jump\t// in\n    tag_222:\n        /* \"#utility.yul\":10578:10603   */\n      swap2\n      pop\n        /* \"#utility.yul\":10617:10637   */\n      tag_223\n        /* \"#utility.yul\":10635:10636   */\n      dup4\n        /* \"#utility.yul\":10617:10637   */\n      tag_103\n      jump\t// in\n    tag_223:\n        /* \"#utility.yul\":10612:10637   */\n      swap3\n      pop\n        /* \"#utility.yul\":10672:10673   */\n      dup3\n        /* \"#utility.yul\":10669:10670   */\n      dup3\n        /* \"#utility.yul\":10665:10674   */\n      mul\n        /* \"#utility.yul\":10694:10724   */\n      tag_224\n        /* \"#utility.yul\":10712:10723   */\n      dup2\n        /* \"#utility.yul\":10694:10724   */\n      tag_103\n      jump\t// in\n    tag_224:\n        /* \"#utility.yul\":10683:10724   */\n      swap2\n      pop\n        /* \"#utility.yul\":10873:10874   */\n      dup3\n        /* \"#utility.yul\":10864:10871   */\n      dup3\n        /* \"#utility.yul\":10860:10875   */\n      div\n        /* \"#utility.yul\":10857:10858   */\n      dup5\n        /* \"#utility.yul\":10854:10876   */\n      eq\n        /* \"#utility.yul\":10834:10835   */\n      dup4\n        /* \"#utility.yul\":10827:10836   */\n      iszero\n        /* \"#utility.yul\":10807:10890   */\n      or\n        /* \"#utility.yul\":10784:10923   */\n      tag_225\n      jumpi\n        /* \"#utility.yul\":10903:10921   */\n      tag_226\n      tag_104\n      jump\t// in\n    tag_226:\n        /* \"#utility.yul\":10784:10923   */\n    tag_225:\n        /* \"#utility.yul\":10568:10930   */\n      pop\n        /* \"#utility.yul\":10520:10930   */\n      swap3\n      swap2\n      pop\n      pop\n      jump\t// out\n        /* \"#utility.yul\":10936:11116   */\n    tag_45:\n        /* \"#utility.yul\":10984:11061   */\n      0x4e487b7100000000000000000000000000000000000000000000000000000000\n        /* \"#utility.yul\":10981:10982   */\n      0x00\n        /* \"#utility.yul\":10974:11062   */\n      mstore\n        /* \"#utility.yul\":11081:11085   */\n      0x32\n        /* \"#utility.yul\":11078:11079   */\n      0x04\n        /* \"#utility.yul\":11071:11086   */\n      mstore\n        /* \"#utility.yul\":11105:11109   */\n      0x24\n        /* \"#utility.yul\":11102:11103   */\n      0x00\n        /* \"#utility.yul\":11095:11110   */\n      revert\n        /* \"#utility.yul\":11122:11355   */\n    tag_72:\n        /* \"#utility.yul\":11161:11164   */\n      0x00\n        /* \"#utility.yul\":11184:11208   */\n      tag_229\n        /* \"#utility.yul\":11202:11207   */\n      dup3\n        /* \"#utility.yul\":11184:11208   */\n      tag_103\n      jump\t// in\n    tag_229:\n        /* \"#utility.yul\":11175:11208   */\n      swap2\n      pop\n        /* \"#utility.yul\":11230:11296   */\n      0xffffffffffffffffffffffffffffffffffffffffffffffffffffffffffffffff\n        /* \"#utility.yul\":11223:11228   */\n      dup3\n        /* \"#utility.yul\":11220:11297   */\n      sub\n        /* \"#utility.yul\":11217:11320   */\n      tag_230\n      jumpi\n        /* \"#utility.yul\":11300:11318   */\n      tag_231\n      tag_104\n      jump\t// in\n    tag_231:\n        /* \"#utility.yul\":11217:11320   */\n    tag_230:\n        /* \"#utility.yul\":11347:11348   */\n      0x01\n        /* \"#utility.yul\":11340:11345   */\n      dup3\n        /* \"#utility.yul\":11336:11349   */\n      add\n        /* \"#utility.yul\":11329:11349   */\n      swap1\n      pop\n        /* \"#utility.yul\":11122:11355   */\n      swap2\n      swap1\n      pop\n      jump\t// out\n\n    auxdata: 0xa2646970667358221220596302ed7f98f9d3b2ab5a7ba21ec90d1cc8d7fdadc1b7038a50999e9806adec64736f6c63430008160033\n}\n",
				"bytecode": {
					"linkReferences": {},
					"object": "608060405234801561000f575f80fd5b50610a238061001d5f395ff3fe608060405234801561000f575f80fd5b5060043610610034575f3560e01c80631f37bdd21461003857806357d7f21f14610068575b5f80fd5b610052600480360381019061004d9190610512565b610098565b60405161005f919061068e565b60405180910390f35b610082600480360381019061007d9190610790565b610268565b60405161008f919061081f565b60405180910390f35b60605f602090505f8160018386516100b09190610875565b6100ba91906108a8565b6100c49190610908565b90505f8167ffffffffffffffff8111156100e1576100e06103ee565b5b60405190808252806020026020018201604052801561011457816020015b60608152602001906001900390816100ff5790505b5090505f5b8281101561025c575f848261012e9190610938565b90505f858261013d9190610875565b9050875181111561014d57875190505b5f828261015a91906108a8565b67ffffffffffffffff811115610173576101726103ee565b5b6040519080825280601f01601f1916602001820160405280156101a55781602001600182028036833780820191505090505b5090505f8390505b8281101561022c578981815181106101c8576101c7610979565b5b602001015160f81c60f81b8285836101e091906108a8565b815181106101f1576101f0610979565b5b60200101907effffffffffffffffffffffffffffffffffffffffffffffffffffffffffffff191690815f1a90535080806001019150506101ad565b508085858151811061024157610240610979565b5b60200260200101819052505050508080600101915050610119565b50809350505050919050565b60605f805b83518110156102ac5783818151811061028957610288610979565b5b6020026020010151518261029d9190610875565b9150808060010191505061026d565b505f8167ffffffffffffffff8111156102c8576102c76103ee565b5b6040519080825280601f01601f1916602001820160405280156102fa5781602001600182028036833780820191505090505b5090505f805b85518110156103b9575f86828151811061031d5761031c610979565b5b602002602001015190505f5b81518110156103aa5781818151811061034557610344610979565b5b602001015160f81c60f81b85858061035c906109a6565b96508151811061036f5761036e610979565b5b60200101907effffffffffffffffffffffffffffffffffffffffffffffffffffffffffffff191690815f1a9053508080600101915050610329565b50508080600101915050610300565b50819350505050919050565b5f604051905090565b5f80fd5b5f80fd5b5f80fd5b5f80fd5b5f601f19601f8301169050919050565b7f4e487b71000000000000000000000000000000000000000000000000000000005f52604160045260245ffd5b610424826103de565b810181811067ffffffffffffffff82111715610443576104426103ee565b5b80604052505050565b5f6104556103c5565b9050610461828261041b565b919050565b5f67ffffffffffffffff8211156104805761047f6103ee565b5b610489826103de565b9050602081019050919050565b828183375f83830152505050565b5f6104b66104b184610466565b61044c565b9050828152602081018484840111156104d2576104d16103da565b5b6104dd848285610496565b509392505050565b5f82601f8301126104f9576104f86103d6565b5b81356105098482602086016104a4565b91505092915050565b5f60208284031215610527576105266103ce565b5b5f82013567ffffffffffffffff811115610544576105436103d2565b5b610550848285016104e5565b91505092915050565b5f81519050919050565b5f82825260208201905092915050565b5f819050602082019050919050565b5f81519050919050565b5f82825260208201905092915050565b5f5b838110156105b957808201518184015260208101905061059e565b5f8484015250505050565b5f6105ce82610582565b6105d8818561058c565b93506105e881856020860161059c565b6105f1816103de565b840191505092915050565b5f61060783836105c4565b905092915050565b5f602082019050919050565b5f61062582610559565b61062f8185610563565b93508360208202850161064185610573565b805f5b8581101561067c578484038952815161065d85826105fc565b94506106688361060f565b925060208a01995050600181019050610644565b50829750879550505050505092915050565b5f6020820190508181035f8301526106a6818461061b565b905092915050565b5f67ffffffffffffffff8211156106c8576106c76103ee565b5b602082029050602081019050919050565b5f80fd5b5f6106ef6106ea846106ae565b61044c565b90508083825260208201905060208402830185811115610712576107116106d9565b5b835b8181101561075957803567ffffffffffffffff811115610737576107366103d6565b5b80860161074489826104e5565b85526020850194505050602081019050610714565b5050509392505050565b5f82601f830112610777576107766103d6565b5b81356107878482602086016106dd565b91505092915050565b5f602082840312156107a5576107a46103ce565b5b5f82013567ffffffffffffffff8111156107c2576107c16103d2565b5b6107ce84828501610763565b91505092915050565b5f82825260208201905092915050565b5f6107f182610582565b6107fb81856107d7565b935061080b81856020860161059c565b610814816103de565b840191505092915050565b5f6020820190508181035f83015261083781846107e7565b905092915050565b5f819050919050565b7f4e487b71000000000000000000000000000000000000000000000000000000005f52601160045260245ffd5b5f61087f8261083f565b915061088a8361083f565b92508282019050808211156108a2576108a1610848565b5b92915050565b5f6108b28261083f565b91506108bd8361083f565b92508282039050818111156108d5576108d4610848565b5b92915050565b7f4e487b71000000000000000000000000000000000000000000000000000000005f52601260045260245ffd5b5f6109128261083f565b915061091d8361083f565b92508261092d5761092c6108db565b5b828204905092915050565b5f6109428261083f565b915061094d8361083f565b925082820261095b8161083f565b9150828204841483151761097257610971610848565b5b5092915050565b7f4e487b71000000000000000000000000000000000000000000000000000000005f52603260045260245ffd5b5f6109b08261083f565b91507fffffffffffffffffffffffffffffffffffffffffffffffffffffffffffffffff82036109e2576109e1610848565b5b60018201905091905056fea2646970667358221220596302ed7f98f9d3b2ab5a7ba21ec90d1cc8d7fdadc1b7038a50999e9806adec64736f6c63430008160033",
					"opcodes": "PUSH1 0x80 PUSH1 0x40 MSTORE CALLVALUE DUP1 ISZERO PUSH2 0xF JUMPI PUSH0 DUP1 REVERT JUMPDEST POP PUSH2 0xA23 DUP1 PUSH2 0x1D PUSH0 CODECOPY PUSH0 RETURN INVALID PUSH1 0x80 PUSH1 0x40 MSTORE CALLVALUE DUP1 ISZERO PUSH2 0xF JUMPI PUSH0 DUP1 REVERT JUMPDEST POP PUSH1 0x4 CALLDATASIZE LT PUSH2 0x34 JUMPI PUSH0 CALLDATALOAD PUSH1 0xE0 SHR DUP1 PUSH4 0x1F37BDD2 EQ PUSH2 0x38 JUMPI DUP1 PUSH4 0x57D7F21F EQ PUSH2 0x68 JUMPI JUMPDEST PUSH0 DUP1 REVERT JUMPDEST PUSH2 0x52 PUSH1 0x4 DUP1 CALLDATASIZE SUB DUP2 ADD SWAP1 PUSH2 0x4D SWAP2 SWAP1 PUSH2 0x512 JUMP JUMPDEST PUSH2 0x98 JUMP JUMPDEST PUSH1 0x40 MLOAD PUSH2 0x5F SWAP2 SWAP1 PUSH2 0x68E JUMP JUMPDEST PUSH1 0x40 MLOAD DUP1 SWAP2 SUB SWAP1 RETURN JUMPDEST PUSH2 0x82 PUSH1 0x4 DUP1 CALLDATASIZE SUB DUP2 ADD SWAP1 PUSH2 0x7D SWAP2 SWAP1 PUSH2 0x790 JUMP JUMPDEST PUSH2 0x268 JUMP JUMPDEST PUSH1 0x40 MLOAD PUSH2 0x8F SWAP2 SWAP1 PUSH2 0x81F JUMP JUMPDEST PUSH1 0x40 MLOAD DUP1 SWAP2 SUB SWAP1 RETURN JUMPDEST PUSH1 0x60 PUSH0 PUSH1 0x20 SWAP1 POP PUSH0 DUP2 PUSH1 0x1 DUP4 DUP7 MLOAD PUSH2 0xB0 SWAP2 SWAP1 PUSH2 0x875 JUMP JUMPDEST PUSH2 0xBA SWAP2 SWAP1 PUSH2 0x8A8 JUMP JUMPDEST PUSH2 0xC4 SWAP2 SWAP1 PUSH2 0x908 JUMP JUMPDEST SWAP1 POP PUSH0 DUP2 PUSH8 0xFFFFFFFFFFFFFFFF DUP2 GT ISZERO PUSH2 0xE1 JUMPI PUSH2 0xE0 PUSH2 0x3EE JUMP JUMPDEST JUMPDEST PUSH1 0x40 MLOAD SWAP1 DUP1 DUP3 MSTORE DUP1 PUSH1 0x20 MUL PUSH1 0x20 ADD DUP3 ADD PUSH1 0x40 MSTORE DUP1 ISZERO PUSH2 0x114 JUMPI DUP2 PUSH1 0x20 ADD JUMPDEST PUSH1 0x60 DUP2 MSTORE PUSH1 0x20 ADD SWAP1 PUSH1 0x1 SWAP1 SUB SWAP1 DUP2 PUSH2 0xFF JUMPI SWAP1 POP JUMPDEST POP SWAP1 POP PUSH0 JUMPDEST DUP3 DUP2 LT ISZERO PUSH2 0x25C JUMPI PUSH0 DUP5 DUP3 PUSH2 0x12E SWAP2 SWAP1 PUSH2 0x938 JUMP JUMPDEST SWAP1 POP PUSH0 DUP6 DUP3 PUSH2 0x13D SWAP2 SWAP1 PUSH2 0x875 JUMP JUMPDEST SWAP1 POP DUP8 MLOAD DUP2 GT ISZERO PUSH2 0x14D JUMPI DUP8 MLOAD SWAP1 POP JUMPDEST PUSH0 DUP3 DUP3 PUSH2 0x15A SWAP2 SWAP1 PUSH2 0x8A8 JUMP JUMPDEST PUSH8 0xFFFFFFFFFFFFFFFF DUP2 GT ISZERO PUSH2 0x173 JUMPI PUSH2 0x172 PUSH2 0x3EE JUMP JUMPDEST JUMPDEST PUSH1 0x40 MLOAD SWAP1 DUP1 DUP3 MSTORE DUP1 PUSH1 0x1F ADD PUSH1 0x1F NOT AND PUSH1 0x20 ADD DUP3 ADD PUSH1 0x40 MSTORE DUP1 ISZERO PUSH2 0x1A5 JUMPI DUP2 PUSH1 0x20 ADD PUSH1 0x1 DUP3 MUL DUP1 CALLDATASIZE DUP4 CALLDATACOPY DUP1 DUP3 ADD SWAP2 POP POP SWAP1 POP JUMPDEST POP SWAP1 POP PUSH0 DUP4 SWAP1 POP JUMPDEST DUP3 DUP2 LT ISZERO PUSH2 0x22C JUMPI DUP10 DUP2 DUP2 MLOAD DUP2 LT PUSH2 0x1C8 JUMPI PUSH2 0x1C7 PUSH2 0x979 JUMP JUMPDEST JUMPDEST PUSH1 0x20 ADD ADD MLOAD PUSH1 0xF8 SHR PUSH1 0xF8 SHL DUP3 DUP6 DUP4 PUSH2 0x1E0 SWAP2 SWAP1 PUSH2 0x8A8 JUMP JUMPDEST DUP2 MLOAD DUP2 LT PUSH2 0x1F1 JUMPI PUSH2 0x1F0 PUSH2 0x979 JUMP JUMPDEST JUMPDEST PUSH1 0x20 ADD ADD SWAP1 PUSH31 0xFFFFFFFFFFFFFFFFFFFFFFFFFFFFFFFFFFFFFFFFFFFFFFFFFFFFFFFFFFFFFF NOT AND SWAP1 DUP2 PUSH0 BYTE SWAP1 MSTORE8 POP DUP1 DUP1 PUSH1 0x1 ADD SWAP2 POP POP PUSH2 0x1AD JUMP JUMPDEST POP DUP1 DUP6 DUP6 DUP2 MLOAD DUP2 LT PUSH2 0x241 JUMPI PUSH2 0x240 PUSH2 0x979 JUMP JUMPDEST JUMPDEST PUSH1 0x20 MUL PUSH1 0x20 ADD ADD DUP2 SWAP1 MSTORE POP POP POP POP DUP1 DUP1 PUSH1 0x1 ADD SWAP2 POP POP PUSH2 0x119 JUMP JUMPDEST POP DUP1 SWAP4 POP POP POP POP SWAP2 SWAP1 POP JUMP JUMPDEST PUSH1 0x60 PUSH0 DUP1 JUMPDEST DUP4 MLOAD DUP2 LT ISZERO PUSH2 0x2AC JUMPI DUP4 DUP2 DUP2 MLOAD DUP2 LT PUSH2 0x289 JUMPI PUSH2 0x288 PUSH2 0x979 JUMP JUMPDEST JUMPDEST PUSH1 0x20 MUL PUSH1 0x20 ADD ADD MLOAD MLOAD DUP3 PUSH2 0x29D SWAP2 SWAP1 PUSH2 0x875 JUMP JUMPDEST SWAP2 POP DUP1 DUP1 PUSH1 0x1 ADD SWAP2 POP POP PUSH2 0x26D JUMP JUMPDEST POP PUSH0 DUP2 PUSH8 0xFFFFFFFFFFFFFFFF DUP2 GT ISZERO PUSH2 0x2C8 JUMPI PUSH2 0x2C7 PUSH2 0x3EE JUMP JUMPDEST JUMPDEST PUSH1 0x40 MLOAD SWAP1 DUP1 DUP3 MSTORE DUP1 PUSH1 0x1F ADD PUSH1 0x1F NOT AND PUSH1 0x20 ADD DUP3 ADD PUSH1 0x40 MSTORE DUP1 ISZERO PUSH2 0x2FA JUMPI DUP2 PUSH1 0x20 ADD PUSH1 0x1 DUP3 MUL DUP1 CALLDATASIZE DUP4 CALLDATACOPY DUP1 DUP3 ADD SWAP2 POP POP SWAP1 POP JUMPDEST POP SWAP1 POP PUSH0 DUP1 JUMPDEST DUP6 MLOAD DUP2 LT ISZERO PUSH2 0x3B9 JUMPI PUSH0 DUP7 DUP3 DUP2 MLOAD DUP2 LT PUSH2 0x31D JUMPI PUSH2 0x31C PUSH2 0x979 JUMP JUMPDEST JUMPDEST PUSH1 0x20 MUL PUSH1 0x20 ADD ADD MLOAD SWAP1 POP PUSH0 JUMPDEST DUP2 MLOAD DUP2 LT ISZERO PUSH2 0x3AA JUMPI DUP2 DUP2 DUP2 MLOAD DUP2 LT PUSH2 0x345 JUMPI PUSH2 0x344 PUSH2 0x979 JUMP JUMPDEST JUMPDEST PUSH1 0x20 ADD ADD MLOAD PUSH1 0xF8 SHR PUSH1 0xF8 SHL DUP6 DUP6 DUP1 PUSH2 0x35C SWAP1 PUSH2 0x9A6 JUMP JUMPDEST SWAP7 POP DUP2 MLOAD DUP2 LT PUSH2 0x36F JUMPI PUSH2 0x36E PUSH2 0x979 JUMP JUMPDEST JUMPDEST PUSH1 0x20 ADD ADD SWAP1 PUSH31 0xFFFFFFFFFFFFFFFFFFFFFFFFFFFFFFFFFFFFFFFFFFFFFFFFFFFFFFFFFFFFFF NOT AND SWAP1 DUP2 PUSH0 BYTE SWAP1 MSTORE8 POP DUP1 DUP1 PUSH1 0x1 ADD SWAP2 POP POP PUSH2 0x329 JUMP JUMPDEST POP POP DUP1 DUP1 PUSH1 0x1 ADD SWAP2 POP POP PUSH2 0x300 JUMP JUMPDEST POP DUP2 SWAP4 POP POP POP POP SWAP2 SWAP1 POP JUMP JUMPDEST PUSH0 PUSH1 0x40 MLOAD SWAP1 POP SWAP1 JUMP JUMPDEST PUSH0 DUP1 REVERT JUMPDEST PUSH0 DUP1 REVERT JUMPDEST PUSH0 DUP1 REVERT JUMPDEST PUSH0 DUP1 REVERT JUMPDEST PUSH0 PUSH1 0x1F NOT PUSH1 0x1F DUP4 ADD AND SWAP1 POP SWAP2 SWAP1 POP JUMP JUMPDEST PUSH32 0x4E487B7100000000000000000000000000000000000000000000000000000000 PUSH0 MSTORE PUSH1 0x41 PUSH1 0x4 MSTORE PUSH1 0x24 PUSH0 REVERT JUMPDEST PUSH2 0x424 DUP3 PUSH2 0x3DE JUMP JUMPDEST DUP2 ADD DUP2 DUP2 LT PUSH8 0xFFFFFFFFFFFFFFFF DUP3 GT OR ISZERO PUSH2 0x443 JUMPI PUSH2 0x442 PUSH2 0x3EE JUMP JUMPDEST JUMPDEST DUP1 PUSH1 0x40 MSTORE POP POP POP JUMP JUMPDEST PUSH0 PUSH2 0x455 PUSH2 0x3C5 JUMP JUMPDEST SWAP1 POP PUSH2 0x461 DUP3 DUP3 PUSH2 0x41B JUMP JUMPDEST SWAP2 SWAP1 POP JUMP JUMPDEST PUSH0 PUSH8 0xFFFFFFFFFFFFFFFF DUP3 GT ISZERO PUSH2 0x480 JUMPI PUSH2 0x47F PUSH2 0x3EE JUMP JUMPDEST JUMPDEST PUSH2 0x489 DUP3 PUSH2 0x3DE JUMP JUMPDEST SWAP1 POP PUSH1 0x20 DUP2 ADD SWAP1 POP SWAP2 SWAP1 POP JUMP JUMPDEST DUP3 DUP2 DUP4 CALLDATACOPY PUSH0 DUP4 DUP4 ADD MSTORE POP POP POP JUMP JUMPDEST PUSH0 PUSH2 0x4B6 PUSH2 0x4B1 DUP5 PUSH2 0x466 JUMP JUMPDEST PUSH2 0x44C JUMP JUMPDEST SWAP1 POP DUP3 DUP2 MSTORE PUSH1 0x20 DUP2 ADD DUP5 DUP5 DUP5 ADD GT ISZERO PUSH2 0x4D2 JUMPI PUSH2 0x4D1 PUSH2 0x3DA JUMP JUMPDEST JUMPDEST PUSH2 0x4DD DUP5 DUP3 DUP6 PUSH2 0x496 JUMP JUMPDEST POP SWAP4 SWAP3 POP POP POP JUMP JUMPDEST PUSH0 DUP3 PUSH1 0x1F DUP4 ADD SLT PUSH2 0x4F9 JUMPI PUSH2 0x4F8 PUSH2 0x3D6 JUMP JUMPDEST JUMPDEST DUP2 CALLDATALOAD PUSH2 0x509 DUP5 DUP3 PUSH1 0x20 DUP7 ADD PUSH2 0x4A4 JUMP JUMPDEST SWAP2 POP POP SWAP3 SWAP2 POP POP JUMP JUMPDEST PUSH0 PUSH1 0x20 DUP3 DUP5 SUB SLT ISZERO PUSH2 0x527 JUMPI PUSH2 0x526 PUSH2 0x3CE JUMP JUMPDEST JUMPDEST PUSH0 DUP3 ADD CALLDATALOAD PUSH8 0xFFFFFFFFFFFFFFFF DUP2 GT ISZERO PUSH2 0x544 JUMPI PUSH2 0x543 PUSH2 0x3D2 JUMP JUMPDEST JUMPDEST PUSH2 0x550 DUP5 DUP3 DUP6 ADD PUSH2 0x4E5 JUMP JUMPDEST SWAP2 POP POP SWAP3 SWAP2 POP POP JUMP JUMPDEST PUSH0 DUP2 MLOAD SWAP1 POP SWAP2 SWAP1 POP JUMP JUMPDEST PUSH0 DUP3 DUP3 MSTORE PUSH1 0x20 DUP3 ADD SWAP1 POP SWAP3 SWAP2 POP POP JUMP JUMPDEST PUSH0 DUP2 SWAP1 POP PUSH1 0x20 DUP3 ADD SWAP1 POP SWAP2 SWAP1 POP JUMP JUMPDEST PUSH0 DUP2 MLOAD SWAP1 POP SWAP2 SWAP1 POP JUMP JUMPDEST PUSH0 DUP3 DUP3 MSTORE PUSH1 0x20 DUP3 ADD SWAP1 POP SWAP3 SWAP2 POP POP JUMP JUMPDEST PUSH0 JUMPDEST DUP4 DUP2 LT ISZERO PUSH2 0x5B9 JUMPI DUP1 DUP3 ADD MLOAD DUP2 DUP5 ADD MSTORE PUSH1 0x20 DUP2 ADD SWAP1 POP PUSH2 0x59E JUMP JUMPDEST PUSH0 DUP5 DUP5 ADD MSTORE POP POP POP POP JUMP JUMPDEST PUSH0 PUSH2 0x5CE DUP3 PUSH2 0x582 JUMP JUMPDEST PUSH2 0x5D8 DUP2 DUP6 PUSH2 0x58C JUMP JUMPDEST SWAP4 POP PUSH2 0x5E8 DUP2 DUP6 PUSH1 0x20 DUP7 ADD PUSH2 0x59C JUMP JUMPDEST PUSH2 0x5F1 DUP2 PUSH2 0x3DE JUMP JUMPDEST DUP5 ADD SWAP2 POP POP SWAP3 SWAP2 POP POP JUMP JUMPDEST PUSH0 PUSH2 0x607 DUP4 DUP4 PUSH2 0x5C4 JUMP JUMPDEST SWAP1 POP SWAP3 SWAP2 POP POP JUMP JUMPDEST PUSH0 PUSH1 0x20 DUP3 ADD SWAP1 POP SWAP2 SWAP1 POP JUMP JUMPDEST PUSH0 PUSH2 0x625 DUP3 PUSH2 0x559 JUMP JUMPDEST PUSH2 0x62F DUP2 DUP6 PUSH2 0x563 JUMP JUMPDEST SWAP4 POP DUP4 PUSH1 0x20 DUP3 MUL DUP6 ADD PUSH2 0x641 DUP6 PUSH2 0x573 JUMP JUMPDEST DUP1 PUSH0 JUMPDEST DUP6 DUP2 LT ISZERO PUSH2 0x67C JUMPI DUP5 DUP5 SUB DUP10 MSTORE DUP2 MLOAD PUSH2 0x65D DUP6 DUP3 PUSH2 0x5FC JUMP JUMPDEST SWAP5 POP PUSH2 0x668 DUP4 PUSH2 0x60F JUMP JUMPDEST SWAP3 POP PUSH1 0x20 DUP11 ADD SWAP10 POP POP PUSH1 0x1 DUP2 ADD SWAP1 POP PUSH2 0x644 JUMP JUMPDEST POP DUP3 SWAP8 POP DUP8 SWAP6 POP POP POP POP POP POP SWAP3 SWAP2 POP POP JUMP JUMPDEST PUSH0 PUSH1 0x20 DUP3 ADD SWAP1 POP DUP2 DUP2 SUB PUSH0 DUP4 ADD MSTORE PUSH2 0x6A6 DUP2 DUP5 PUSH2 0x61B JUMP JUMPDEST SWAP1 POP SWAP3 SWAP2 POP POP JUMP JUMPDEST PUSH0 PUSH8 0xFFFFFFFFFFFFFFFF DUP3 GT ISZERO PUSH2 0x6C8 JUMPI PUSH2 0x6C7 PUSH2 0x3EE JUMP JUMPDEST JUMPDEST PUSH1 0x20 DUP3 MUL SWAP1 POP PUSH1 0x20 DUP2 ADD SWAP1 POP SWAP2 SWAP1 POP JUMP JUMPDEST PUSH0 DUP1 REVERT JUMPDEST PUSH0 PUSH2 0x6EF PUSH2 0x6EA DUP5 PUSH2 0x6AE JUMP JUMPDEST PUSH2 0x44C JUMP JUMPDEST SWAP1 POP DUP1 DUP4 DUP3 MSTORE PUSH1 0x20 DUP3 ADD SWAP1 POP PUSH1 0x20 DUP5 MUL DUP4 ADD DUP6 DUP2 GT ISZERO PUSH2 0x712 JUMPI PUSH2 0x711 PUSH2 0x6D9 JUMP JUMPDEST JUMPDEST DUP4 JUMPDEST DUP2 DUP2 LT ISZERO PUSH2 0x759 JUMPI DUP1 CALLDATALOAD PUSH8 0xFFFFFFFFFFFFFFFF DUP2 GT ISZERO PUSH2 0x737 JUMPI PUSH2 0x736 PUSH2 0x3D6 JUMP JUMPDEST JUMPDEST DUP1 DUP7 ADD PUSH2 0x744 DUP10 DUP3 PUSH2 0x4E5 JUMP JUMPDEST DUP6 MSTORE PUSH1 0x20 DUP6 ADD SWAP5 POP POP POP PUSH1 0x20 DUP2 ADD SWAP1 POP PUSH2 0x714 JUMP JUMPDEST POP POP POP SWAP4 SWAP3 POP POP POP JUMP JUMPDEST PUSH0 DUP3 PUSH1 0x1F DUP4 ADD SLT PUSH2 0x777 JUMPI PUSH2 0x776 PUSH2 0x3D6 JUMP JUMPDEST JUMPDEST DUP2 CALLDATALOAD PUSH2 0x787 DUP5 DUP3 PUSH1 0x20 DUP7 ADD PUSH2 0x6DD JUMP JUMPDEST SWAP2 POP POP SWAP3 SWAP2 POP POP JUMP JUMPDEST PUSH0 PUSH1 0x20 DUP3 DUP5 SUB SLT ISZERO PUSH2 0x7A5 JUMPI PUSH2 0x7A4 PUSH2 0x3CE JUMP JUMPDEST JUMPDEST PUSH0 DUP3 ADD CALLDATALOAD PUSH8 0xFFFFFFFFFFFFFFFF DUP2 GT ISZERO PUSH2 0x7C2 JUMPI PUSH2 0x7C1 PUSH2 0x3D2 JUMP JUMPDEST JUMPDEST PUSH2 0x7CE DUP5 DUP3 DUP6 ADD PUSH2 0x763 JUMP JUMPDEST SWAP2 POP POP SWAP3 SWAP2 POP POP JUMP JUMPDEST PUSH0 DUP3 DUP3 MSTORE PUSH1 0x20 DUP3 ADD SWAP1 POP SWAP3 SWAP2 POP POP JUMP JUMPDEST PUSH0 PUSH2 0x7F1 DUP3 PUSH2 0x582 JUMP JUMPDEST PUSH2 0x7FB DUP2 DUP6 PUSH2 0x7D7 JUMP JUMPDEST SWAP4 POP PUSH2 0x80B DUP2 DUP6 PUSH1 0x20 DUP7 ADD PUSH2 0x59C JUMP JUMPDEST PUSH2 0x814 DUP2 PUSH2 0x3DE JUMP JUMPDEST DUP5 ADD SWAP2 POP POP SWAP3 SWAP2 POP POP JUMP JUMPDEST PUSH0 PUSH1 0x20 DUP3 ADD SWAP1 POP DUP2 DUP2 SUB PUSH0 DUP4 ADD MSTORE PUSH2 0x837 DUP2 DUP5 PUSH2 0x7E7 JUMP JUMPDEST SWAP1 POP SWAP3 SWAP2 POP POP JUMP JUMPDEST PUSH0 DUP2 SWAP1 POP SWAP2 SWAP1 POP JUMP JUMPDEST PUSH32 0x4E487B7100000000000000000000000000000000000000000000000000000000 PUSH0 MSTORE PUSH1 0x11 PUSH1 0x4 MSTORE PUSH1 0x24 PUSH0 REVERT JUMPDEST PUSH0 PUSH2 0x87F DUP3 PUSH2 0x83F JUMP JUMPDEST SWAP2 POP PUSH2 0x88A DUP4 PUSH2 0x83F JUMP JUMPDEST SWAP3 POP DUP3 DUP3 ADD SWAP1 POP DUP1 DUP3 GT ISZERO PUSH2 0x8A2 JUMPI PUSH2 0x8A1 PUSH2 0x848 JUMP JUMPDEST JUMPDEST SWAP3 SWAP2 POP POP JUMP JUMPDEST PUSH0 PUSH2 0x8B2 DUP3 PUSH2 0x83F JUMP JUMPDEST SWAP2 POP PUSH2 0x8BD DUP4 PUSH2 0x83F JUMP JUMPDEST SWAP3 POP DUP3 DUP3 SUB SWAP1 POP DUP2 DUP2 GT ISZERO PUSH2 0x8D5 JUMPI PUSH2 0x8D4 PUSH2 0x848 JUMP JUMPDEST JUMPDEST SWAP3 SWAP2 POP POP JUMP JUMPDEST PUSH32 0x4E487B7100000000000000000000000000000000000000000000000000000000 PUSH0 MSTORE PUSH1 0x12 PUSH1 0x4 MSTORE PUSH1 0x24 PUSH0 REVERT JUMPDEST PUSH0 PUSH2 0x912 DUP3 PUSH2 0x83F JUMP JUMPDEST SWAP2 POP PUSH2 0x91D DUP4 PUSH2 0x83F JUMP JUMPDEST SWAP3 POP DUP3 PUSH2 0x92D JUMPI PUSH2 0x92C PUSH2 0x8DB JUMP JUMPDEST JUMPDEST DUP3 DUP3 DIV SWAP1 POP SWAP3 SWAP2 POP POP JUMP JUMPDEST PUSH0 PUSH2 0x942 DUP3 PUSH2 0x83F JUMP JUMPDEST SWAP2 POP PUSH2 0x94D DUP4 PUSH2 0x83F JUMP JUMPDEST SWAP3 POP DUP3 DUP3 MUL PUSH2 0x95B DUP2 PUSH2 0x83F JUMP JUMPDEST SWAP2 POP DUP3 DUP3 DIV DUP5 EQ DUP4 ISZERO OR PUSH2 0x972 JUMPI PUSH2 0x971 PUSH2 0x848 JUMP JUMPDEST JUMPDEST POP SWAP3 SWAP2 POP POP JUMP JUMPDEST PUSH32 0x4E487B7100000000000000000000000000000000000000000000000000000000 PUSH0 MSTORE PUSH1 0x32 PUSH1 0x4 MSTORE PUSH1 0x24 PUSH0 REVERT JUMPDEST PUSH0 PUSH2 0x9B0 DUP3 PUSH2 0x83F JUMP JUMPDEST SWAP2 POP PUSH32 0xFFFFFFFFFFFFFFFFFFFFFFFFFFFFFFFFFFFFFFFFFFFFFFFFFFFFFFFFFFFFFFFF DUP3 SUB PUSH2 0x9E2 JUMPI PUSH2 0x9E1 PUSH2 0x848 JUMP JUMPDEST JUMPDEST PUSH1 0x1 DUP3 ADD SWAP1 POP SWAP2 SWAP1 POP JUMP INVALID LOG2 PUSH5 0x6970667358 0x22 SLT KECCAK256 MSIZE PUSH4 0x2ED7F98 0xF9 0xD3 0xB2 0xAB GAS PUSH28 0xA21EC90D1CC8D7FDADC1B7038A50999E9806ADEC64736F6C63430008 AND STOP CALLER "
				},
				"gasEstimates": {
					"creation": {
						"codeDepositCost": "519000",
						"executionCost": "554",
						"totalCost": "519554"
					},
					"external": {
						"chunkContent(string)": "infinite",
						"concatenateChunks(string[])": "infinite"
					}
				},
				"methodIdentifiers": {
					"chunkContent(string)": "1f37bdd2",
					"concatenateChunks(string[])": "57d7f21f"
				}
			},
			"storageLayout": {
				"storage": [],
				"types": null
			},
			"userdoc": {
				"kind": "user",
				"methods": {},
				"version": 1
			}
		}
	}
}