{
	"data": {
		"bytecode": {
			"linkReferences": {
				"remix_tests.sol": {
					"Assert": [
						{
							"length": 20,
							"start": 474
						},
						{
							"length": 20,
							"start": 1284
						}
					]
				}
			},
			"object": "608060405234801561000f575f80fd5b50618fff8061001d5f395ff3fe608060405234801561000f575f80fd5b506004361061003f575f3560e01c806347d02198146100435780637fea0d4b1461004d578063f36950b714610057575b5f80fd5b61004b610061565b005b610055610238565b005b61005f610303565b005b5f6040518060400160405280601781526020017f696e76616c696441757468656e74696369747954657374000000000000000000815250905060015f9054906101000a900473ffffffffffffffffffffffffffffffffffffffff1673ffffffffffffffffffffffffffffffffffffffff1663f2cf28d4826040518263ffffffff1660e01b81526004016100f4919061064e565b5f604051808303815f87803b15801561010b575f80fd5b505af115801561011d573d5f803e3d5ffd5b505050505f60015f9054906101000a900473ffffffffffffffffffffffffffffffffffffffff1673ffffffffffffffffffffffffffffffffffffffff16639c8a41af6040518163ffffffff1660e01b815260040161017a906106a4565b602060405180830381865afa158015610195573d5f803e3d5ffd5b505050506040513d601f19601f820116820180604052508101906101b9919061071b565b905073__$acbfb1c35000d78352310b16a054a6b106$__63767392b3825f6040518363ffffffff1660e01b81526004016101f49291906107fb565b602060405180830381865af415801561020f573d5f803e3d5ffd5b505050506040513d601f19601f82011682018060405250810190610233919061071b565b505050565b60405161024490610560565b604051809103905ff08015801561025d573d5f803e3d5ffd5b505f806101000a81548173ffffffffffffffffffffffffffffffffffffffff021916908373ffffffffffffffffffffffffffffffffffffffff1602179055506040516102a89061056d565b604051809103905ff0801580156102c1573d5f803e3d5ffd5b5060015f6101000a81548173ffffffffffffffffffffffffffffffffffffffff021916908373ffffffffffffffffffffffffffffffffffffffff160217905550565b5f6040518060400160405280600a81526020017f64656c6574655465737400000000000000000000000000000000000000000000815250905060015f9054906101000a900473ffffffffffffffffffffffffffffffffffffffff1673ffffffffffffffffffffffffffffffffffffffff1663f2cf28d4826040518263ffffffff1660e01b8152600401610396919061087f565b5f604051808303815f87803b1580156103ad575f80fd5b505af11580156103bf573d5f803e3d5ffd5b5050505060015f9054906101000a900473ffffffffffffffffffffffffffffffffffffffff1673ffffffffffffffffffffffffffffffffffffffff1663d433b6fa6040518163ffffffff1660e01b815260040161041b906108b2565b5f604051808303815f87803b158015610432575f80fd5b505af1158015610444573d5f803e3d5ffd5b505050505f60015f9054906101000a900473ffffffffffffffffffffffffffffffffffffffff1673ffffffffffffffffffffffffffffffffffffffff16636296610b6040518163ffffffff1660e01b81526004016104a1906108b2565b5f60405180830381865afa1580156104bb573d5f803e3d5ffd5b505050506040513d5f823e3d601f19601f820116820180604052508101906104e391906109ee565b905073__$acbfb1c35000d78352310b16a054a6b106$__63e8c2cb16826040518263ffffffff1660e01b815260040161051c9190610afd565b602060405180830381865af4158015610537573d5f803e3d5ffd5b505050506040513d601f19601f8201168201806040525081019061055b919061071b565b505050565b61038980610b4483390190565b6180fd80610ecd83390190565b5f81519050919050565b5f82825260208201905092915050565b5f5b838110156105b1578082015181840152602081019050610596565b5f8484015250505050565b5f601f19601f8301169050919050565b5f6105d68261057a565b6105e08185610584565b93506105f0818560208601610594565b6105f9816105bc565b840191505092915050565b7f696e76616c696441757468656e7469636974795465737446696c6549640000005f82015250565b5f610638601d83610584565b915061064382610604565b602082019050919050565b5f6040820190508181035f83015261066681846105cc565b905081810360208301526106798161062c565b905092915050565b50565b5f61068f5f83610584565b915061069a82610681565b5f82019050919050565b5f6040820190508181035f8301526106bb81610684565b905081810360208301526106ce8161062c565b9050919050565b5f604051905090565b5f80fd5b5f80fd5b5f8115159050919050565b6106fa816106e6565b8114610704575f80fd5b50565b5f81519050610715816106f1565b92915050565b5f602082840312156107305761072f6106de565b5b5f61073d84828501610707565b91505092915050565b61074f816106e6565b82525050565b5f82825260208201905092915050565b7f46696c652061757468656e7469636974792073686f756c6420626520696e76615f8201527f6c6964207769746820696e636f7272656374206861736820616e6420636f727260208201527f65637420756e6971756549640000000000000000000000000000000000000000604082015250565b5f6107e5604c83610755565b91506107f082610765565b606082019050919050565b5f60608201905061080e5f830185610746565b61081b6020830184610746565b818103604083015261082c816107d9565b90509392505050565b7f64656c6574655465737446696c654964000000000000000000000000000000005f82015250565b5f610869601083610584565b915061087482610835565b602082019050919050565b5f6040820190508181035f83015261089781846105cc565b905081810360208301526108aa8161085d565b905092915050565b5f6020820190508181035f8301526108c98161085d565b9050919050565b5f80fd5b5f80fd5b7f4e487b71000000000000000000000000000000000000000000000000000000005f52604160045260245ffd5b61090e826105bc565b810181811067ffffffffffffffff8211171561092d5761092c6108d8565b5b80604052505050565b5f61093f6106d5565b905061094b8282610905565b919050565b5f67ffffffffffffffff82111561096a576109696108d8565b5b610973826105bc565b9050602081019050919050565b5f61099261098d84610950565b610936565b9050828152602081018484840111156109ae576109ad6108d4565b5b6109b9848285610594565b509392505050565b5f82601f8301126109d5576109d46108d0565b5b81516109e5848260208601610980565b91505092915050565b5f60208284031215610a0357610a026106de565b5b5f82015167ffffffffffffffff811115610a2057610a1f6106e2565b5b610a2c848285016109c1565b91505092915050565b5f610a3f8261057a565b610a498185610755565b9350610a59818560208601610594565b610a62816105bc565b840191505092915050565b5f610a785f83610755565b9150610a8382610681565b5f82019050919050565b7f44656c657465642066696c6520686173682073686f756c6420626520656d70745f8201527f7900000000000000000000000000000000000000000000000000000000000000602082015250565b5f610ae7602183610755565b9150610af282610a8d565b604082019050919050565b5f6060820190508181035f830152610b158184610a35565b90508181036020830152610b2881610a6d565b90508181036040830152610b3b81610adb565b90509291505056fe608060405260035f556064600155348015610018575f80fd5b50610363806100265f395ff3fe608060405234801561000f575f80fd5b5060043610610029575f3560e01c8063b1496cd41461002d575b5f80fd5b61004760048036038101906100429190610202565b61005d565b6040516100549190610292565b60405180910390f35b5f8160405160200161006f9190610317565b60405160208183030381529060405280519060200120836040516020016100969190610317565b6040516020818303038152906040528051906020012014905092915050565b5f604051905090565b5f80fd5b5f80fd5b5f80fd5b5f80fd5b5f601f19601f8301169050919050565b7f4e487b71000000000000000000000000000000000000000000000000000000005f52604160045260245ffd5b610114826100ce565b810181811067ffffffffffffffff82111715610133576101326100de565b5b80604052505050565b5f6101456100b5565b9050610151828261010b565b919050565b5f67ffffffffffffffff8211156101705761016f6100de565b5b610179826100ce565b9050602081019050919050565b828183375f83830152505050565b5f6101a66101a184610156565b61013c565b9050828152602081018484840111156101c2576101c16100ca565b5b6101cd848285610186565b509392505050565b5f82601f8301126101e9576101e86100c6565b5b81356101f9848260208601610194565b91505092915050565b5f8060408385031215610218576102176100be565b5b5f83013567ffffffffffffffff811115610235576102346100c2565b5b610241858286016101d5565b925050602083013567ffffffffffffffff811115610262576102616100c2565b5b61026e858286016101d5565b9150509250929050565b5f8115159050919050565b61028c81610278565b82525050565b5f6020820190506102a55f830184610283565b92915050565b5f81519050919050565b5f81905092915050565b5f5b838110156102dc5780820151818401526020810190506102c1565b5f8484015250505050565b5f6102f1826102ab565b6102fb81856102b5565b935061030b8185602086016102bf565b80840191505092915050565b5f61032282846102e7565b91508190509291505056fea26469706673582212206c55b7118f695fe98b2e4440098610a11cb3b7ceb7de6ba82b7b8f1ffc8c090a64736f6c63430008180033608060405260035f556064600155640ba43b7400600a55348015610021575f80fd5b5033600e5f6101000a81548173ffffffffffffffffffffffffffffffffffffffff021916908373ffffffffffffffffffffffffffffffffffffffff16021790555061808d80620000705f395ff3fe608060405260043610610296575f3560e01c80638021e34811610159578063b1496cd4116100c0578063d6bc4a8711610079578063d6bc4a8714610a8d578063e327cbe214610ac9578063e4c8531a14610b05578063ea84c50314610b0f578063f2cf28d414610b4b578063fe72ae1314610b735761029d565b8063b1496cd41461095d578063b23793d614610999578063b7013dc1146109d5578063c6e24c90146109ff578063cd88994414610a3b578063d433b6fa14610a655761029d565b80639c8a41af116101125780639c8a41af1461083f578063a87430ba1461087b578063a9910054146108bb578063ada403a3146108e3578063ade13128146108f9578063aeb9c9a8146109355761029d565b80638021e348146106fa5780638a61f4fb146107245780638cfeab3514610760578063967c2bbd1461079d57806397af87d7146107d95780639c705d0c146108155761029d565b806338eada1c116101fd5780635daede83116101b65780635daede83146105ca5780636296610b146105f257806364f937281461062e5780636d3dbf16146106585780636f77926b146106945780637eebf1f9146106d05761029d565b806338eada1c146104c45780634ad7960f146104ec5780634d3820eb14610514578063583caf961461052a5780635844de2b1461056657806358c626f71461058e5761029d565b80630d6e544b1161024f5780630d6e544b146103a757806311bd77fe146103ea578063189a5a17146104065780632b08da2e1461044457806330e00c9b1461046c57806337d44c2a146104a85761029d565b8063024bcf26146102a157806305b1137b146102c957806307253839146102f157806308ae4d38146103195780630a743ba5146103555780630b966ac31461037d5761029d565b3661029d57005b5f80fd5b3480156102ac575f80fd5b506102c760048036038101906102c29190615bbd565b610baf565b005b3480156102d4575f80fd5b506102ef60048036038101906102ea9190615d8c565b61134b565b005b3480156102fc575f80fd5b5061031760048036038101906103129190615e05565b61143b565b005b348015610324575f80fd5b5061033f600480360381019061033a9190615e43565b611449565b60405161034c9190615e7d565b60405180910390f35b348015610360575f80fd5b5061037b60048036038101906103769190615e96565b611484565b005b348015610388575f80fd5b50610391611496565b60405161039e9190615f41565b60405180910390f35b3480156103b2575f80fd5b506103cd60048036038101906103c89190615e05565b611568565b6040516103e1989796959493929190615fd4565b60405180910390f35b61040460048036038101906103ff9190615e05565b611883565b005b348015610411575f80fd5b5061042c60048036038101906104279190616073565b611b02565b60405161043b9392919061609e565b60405180910390f35b34801561044f575f80fd5b5061046a60048036038101906104659190616073565b611b47565b005b348015610477575f80fd5b50610492600480360381019061048d91906160d3565b611d56565b60405161049f9190615e7d565b60405180910390f35b6104c260048036038101906104bd9190616150565b611db6565b005b3480156104cf575f80fd5b506104ea60048036038101906104e59190616073565b6122e9565b005b3480156104f7575f80fd5b50610512600480360381019061050d9190615e05565b61235a565b005b34801561051f575f80fd5b50610528612368565b005b348015610535575f80fd5b50610550600480360381019061054b919061617b565b61251e565b60405161055d91906164af565b60405180910390f35b348015610571575f80fd5b5061058c60048036038101906105879190616073565b612951565b005b348015610599575f80fd5b506105b460048036038101906105af9190616073565b612ab2565b6040516105c191906164e9565b60405180910390f35b3480156105d5575f80fd5b506105f060048036038101906105eb9190616073565b612acf565b005b3480156105fd575f80fd5b506106186004803603810190610613919061617b565b612b61565b6040516106259190616502565b60405180910390f35b348015610639575f80fd5b50610642612b73565b60405161064f91906165dd565b60405180910390f35b348015610663575f80fd5b5061067e60048036038101906106799190616073565b612b82565b60405161068b91906164e9565b60405180910390f35b34801561069f575f80fd5b506106ba60048036038101906106b59190616073565b612bd4565b6040516106c791906166e5565b60405180910390f35b3480156106db575f80fd5b506106e4612d27565b6040516106f19190615f41565b60405180910390f35b348015610705575f80fd5b5061070e612d2e565b60405161071b919061670d565b60405180910390f35b34801561072f575f80fd5b5061074a60048036038101906107459190615e43565b612e0c565b6040516107579190615f41565b60405180910390f35b34801561076b575f80fd5b5061078660048036038101906107819190615e05565b612e24565b604051610794929190616726565b60405180910390f35b3480156107a8575f80fd5b506107c360048036038101906107be919061617b565b612e5e565b6040516107d091906167b9565b60405180910390f35b3480156107e4575f80fd5b506107ff60048036038101906107fa9190615e43565b612e70565b60405161080c9190615e7d565b60405180910390f35b348015610820575f80fd5b50610829612eab565b6040516108369190615f41565b60405180910390f35b34801561084a575f80fd5b50610865600480360381019061086091906167d9565b612eb2565b60405161087291906164e9565b60405180910390f35b348015610886575f80fd5b506108a1600480360381019061089c9190616073565b612ec5565b6040516108b295949392919061684f565b60405180910390f35b3480156108c6575f80fd5b506108e160048036038101906108dc919061617b565b612f0f565b005b3480156108ee575f80fd5b506108f761382d565b005b348015610904575f80fd5b5061091f600480360381019061091a9190615e43565b6139a2565b60405161092c9190615f41565b60405180910390f35b348015610940575f80fd5b5061095b600480360381019061095691906168a0565b6139c7565b005b348015610968575f80fd5b50610983600480360381019061097e91906167d9565b6139dd565b60405161099091906164e9565b60405180910390f35b3480156109a4575f80fd5b506109bf60048036038101906109ba919061617b565b613a35565b6040516109cc91906167b9565b60405180910390f35b3480156109e0575f80fd5b506109e9613cc8565b6040516109f69190615f41565b60405180910390f35b348015610a0a575f80fd5b50610a256004803603810190610a209190616a75565b613ccf565b604051610a329190615e7d565b60405180910390f35b348015610a46575f80fd5b50610a4f613ea7565b604051610a5c91906167b9565b60405180910390f35b348015610a70575f80fd5b50610a8b6004803603810190610a86919061617b565b613eb6565b005b348015610a98575f80fd5b50610ab36004803603810190610aae9190616073565b613ec2565b604051610ac09190616b0f565b60405180910390f35b348015610ad4575f80fd5b50610aef6004803603810190610aea9190615e05565b613eda565b604051610afc9190615f41565b60405180910390f35b610b0d613f05565b005b348015610b1a575f80fd5b50610b356004803603810190610b3091906160d3565b6140ae565b604051610b429190616502565b60405180910390f35b348015610b56575f80fd5b50610b716004803603810190610b6c91906167d9565b614177565b005b348015610b7e575f80fd5b50610b996004803603810190610b949190615e43565b614185565b604051610ba69190615e7d565b60405180910390f35b5f6005805490501415604051806060016040528060238152602001617f556023913990610c12576040517f08c379a0000000000000000000000000000000000000000000000000000000008152600401610c099190616502565b60405180910390fd5b5087518151146040518060400160405280601981526020017f73746f726546696c653a20496e76616c6964206368756e6b730000000000000081525090610c8f576040517f08c379a0000000000000000000000000000000000000000000000000000000008152600401610c869190616502565b60405180910390fd5b505f610c9a856141c0565b5111156040518060400160405280601c81526020017f73746f726546696c653a204475706c69636174652046696c652049640000000081525090610d14576040517f08c379a0000000000000000000000000000000000000000000000000000000008152600401610d0b9190616502565b60405180910390fd5b50600b5f3373ffffffffffffffffffffffffffffffffffffffff1673ffffffffffffffffffffffffffffffffffffffff1681526020019081526020015f2060010154600b5f3373ffffffffffffffffffffffffffffffffffffffff1673ffffffffffffffffffffffffffffffffffffffff1681526020019081526020015f206002015484610da29190616b55565b1115610de3576040517f08c379a0000000000000000000000000000000000000000000000000000000008152600401610dda90616bd2565b60405180910390fd5b600280811115610df657610df561660c565b5b600b5f3373ffffffffffffffffffffffffffffffffffffffff1673ffffffffffffffffffffffffffffffffffffffff1681526020019081526020015f205f0160019054906101000a900460ff166002811115610e5557610e5461660c565b5b03610ef557610e63336142b1565b600b5f3373ffffffffffffffffffffffffffffffffffffffff1673ffffffffffffffffffffffffffffffffffffffff1681526020019081526020015f206002015484610eaf9190616b55565b1115610ef0576040517f08c379a0000000000000000000000000000000000000000000000000000000008152600401610ee790616c60565b60405180910390fd5b6110d9565b60016002811115610f0957610f0861660c565b5b600b5f3373ffffffffffffffffffffffffffffffffffffffff1673ffffffffffffffffffffffffffffffffffffffff1681526020019081526020015f205f0160019054906101000a900460ff166002811115610f6857610f6761660c565b5b0361104057600b5f3373ffffffffffffffffffffffffffffffffffffffff1673ffffffffffffffffffffffffffffffffffffffff1681526020019081526020015f2060010154600b5f3373ffffffffffffffffffffffffffffffffffffffff1673ffffffffffffffffffffffffffffffffffffffff1681526020019081526020015f206002015484610ffa9190616b55565b111561103b576040517f08c379a000000000000000000000000000000000000000000000000000000000815260040161103290616cee565b60405180910390fd5b6110d8565b61104a60016139a2565b600b5f3373ffffffffffffffffffffffffffffffffffffffff1673ffffffffffffffffffffffffffffffffffffffff1681526020019081526020015f2060020154846110969190616b55565b11156110d7576040517f08c379a00000000000000000000000000000000000000000000000000000000081526004016110ce90616d7c565b60405180910390fd5b5b5b5f5b885181101561131257600f5f6110f1919061572a565b5f82828151811061110557611104616d9a565b5b602002602001015190505f8a838151811061112357611122616d9a565b5b602002602001015190505f80805490506011896040516111439190616e01565b908152602001604051809103902084908060018154018082558091505060019003905f5260205f20015f9091909190915090816111809190617011565b50600360058054905010156111985760058054905090505b5b80821015611301575f61122f84600f80548060200260200160405190810160405280929190818152602001828054801561122557602002820191905f5260205f20905b815f9054906101000a900473ffffffffffffffffffffffffffffffffffffffff1673ffffffffffffffffffffffffffffffffffffffff16815260200190600101908083116111dc575b5050505050613ccf565b9050600580549050600f80549050036112485750611301565b5f73ffffffffffffffffffffffffffffffffffffffff168173ffffffffffffffffffffffffffffffffffffffff16036112815750611199565b600f81908060018154018082558091505060019003905f5260205f20015f9091909190916101000a81548173ffffffffffffffffffffffffffffffffffffffff021916908373ffffffffffffffffffffffffffffffffffffffff16021790555082806112ec906170e0565b9350506112fb81858c886142fa565b50611199565b5050505080806001019150506110db565b50600f5f611320919061572a565b61132a828561467c565b6113388787848888886147a0565b611341336122e9565b5050505050505050565b8047101561138e576040517f08c379a000000000000000000000000000000000000000000000000000000000815260040161138590617171565b60405180910390fd5b5f8273ffffffffffffffffffffffffffffffffffffffff16826040516113b3906171bc565b5f6040518083038185875af1925050503d805f81146113ed576040519150601f19603f3d011682016040523d82523d5f602084013e6113f2565b606091505b5050905080611436576040517f08c379a000000000000000000000000000000000000000000000000000000000815260040161142d9061721a565b60405180910390fd5b505050565b6114458282614bd0565b5050565b60078181548110611458575f80fd5b905f5260205f20015f915054906101000a900473ffffffffffffffffffffffffffffffffffffffff1681565b611490848484846142fa565b50505050565b5f600b5f3373ffffffffffffffffffffffffffffffffffffffff1673ffffffffffffffffffffffffffffffffffffffff1681526020019081526020015f205f015f9054906101000a900460ff16611522576040517f08c379a000000000000000000000000000000000000000000000000000000000815260040161151990617282565b60405180910390fd5b600b5f3373ffffffffffffffffffffffffffffffffffffffff1673ffffffffffffffffffffffffffffffffffffffff1681526020019081526020015f2060020154905090565b6010602052815f5260405f208181548110611581575f80fd5b905f5260205f2090600802015f9150915050805f0180546115a190616e44565b80601f01602080910402602001604051908101604052809291908181526020018280546115cd90616e44565b80156116185780601f106115ef57610100808354040283529160200191611618565b820191905f5260205f20905b8154815290600101906020018083116115fb57829003601f168201915b50505050509080600101805461162d90616e44565b80601f016020809104026020016040519081016040528092919081815260200182805461165990616e44565b80156116a45780601f1061167b576101008083540402835291602001916116a4565b820191905f5260205f20905b81548152906001019060200180831161168757829003601f168201915b5050505050908060020180546116b990616e44565b80601f01602080910402602001604051908101604052809291908181526020018280546116e590616e44565b80156117305780601f1061170757610100808354040283529160200191611730565b820191905f5260205f20905b81548152906001019060200180831161171357829003601f168201915b50505050509080600301805461174590616e44565b80601f016020809104026020016040519081016040528092919081815260200182805461177190616e44565b80156117bc5780601f10611793576101008083540402835291602001916117bc565b820191905f5260205f20905b81548152906001019060200180831161179f57829003601f168201915b505050505090806004015490806005015490806006015f9054906101000a900473ffffffffffffffffffffffffffffffffffffffff169080600701805461180290616e44565b80601f016020809104026020016040519081016040528092919081815260200182805461182e90616e44565b80156118795780601f1061185057610100808354040283529160200191611879565b820191905f5260205f20905b81548152906001019060200180831161185c57829003601f168201915b5050505050905088565b6118c56040518060400160405280601281526020017f416d6f756e74207265636965766564202d200000000000000000000000000000815250600a5434614ce5565b5f73ffffffffffffffffffffffffffffffffffffffff1660035f8473ffffffffffffffffffffffffffffffffffffffff1673ffffffffffffffffffffffffffffffffffffffff1681526020019081526020015f205f015f9054906101000a900473ffffffffffffffffffffffffffffffffffffffff1673ffffffffffffffffffffffffffffffffffffffff1614611991576040517f08c379a000000000000000000000000000000000000000000000000000000000815260040161198890617310565b60405180910390fd5b600a5434146119d5576040517f08c379a00000000000000000000000000000000000000000000000000000000081526004016119cc90617378565b60405180910390fd5b60405180606001604052808373ffffffffffffffffffffffffffffffffffffffff1681526020018281526020013481525060035f8473ffffffffffffffffffffffffffffffffffffffff1673ffffffffffffffffffffffffffffffffffffffff1681526020019081526020015f205f820151815f015f6101000a81548173ffffffffffffffffffffffffffffffffffffffff021916908373ffffffffffffffffffffffffffffffffffffffff1602179055506020820151816001015560408201518160020155905050600582908060018154018082558091505060019003905f5260205f20015f9091909190916101000a81548173ffffffffffffffffffffffffffffffffffffffff021916908373ffffffffffffffffffffffffffffffffffffffff1602179055505050565b6003602052805f5260405f205f91509050805f015f9054906101000a900473ffffffffffffffffffffffffffffffffffffffff16908060010154908060020154905083565b60085f8273ffffffffffffffffffffffffffffffffffffffff1673ffffffffffffffffffffffffffffffffffffffff1681526020019081526020015f205f9054906101000a900460ff1615611bd1576040517f08c379a0000000000000000000000000000000000000000000000000000000008152600401611bc890617406565b60405180910390fd5b5f73ffffffffffffffffffffffffffffffffffffffff1660035f8373ffffffffffffffffffffffffffffffffffffffff1673ffffffffffffffffffffffffffffffffffffffff1681526020019081526020015f205f015f9054906101000a900473ffffffffffffffffffffffffffffffffffffffff1673ffffffffffffffffffffffffffffffffffffffff1603611c9d576040517f08c379a0000000000000000000000000000000000000000000000000000000008152600401611c9490617494565b60405180910390fd5b600160085f8373ffffffffffffffffffffffffffffffffffffffff1673ffffffffffffffffffffffffffffffffffffffff1681526020019081526020015f205f6101000a81548160ff02191690831515021790555060095f8273ffffffffffffffffffffffffffffffffffffffff1673ffffffffffffffffffffffffffffffffffffffff1681526020019081526020015f2042908060018154018082558091505060019003905f5260205f20015f909190919091505550565b6004828051602081018201805184825260208301602085012081835280955050505050508181548110611d87575f80fd5b905f5260205f20015f915091509054906101000a900473ffffffffffffffffffffffffffffffffffffffff1681565b600b5f3373ffffffffffffffffffffffffffffffffffffffff1673ffffffffffffffffffffffffffffffffffffffff1681526020019081526020015f205f015f9054906101000a900460ff16611e41576040517f08c379a0000000000000000000000000000000000000000000000000000000008152600401611e3890617282565b60405180910390fd5b5f6002811115611e5457611e5361660c565b5b816002811115611e6757611e6661660c565b5b03611ea7576040517f08c379a0000000000000000000000000000000000000000000000000000000008152600401611e9e906174fc565b60405180910390fd5b611eeb6040518060400160405280601281526020017f416d6f756e74207265636965766564202d200000000000000000000000000000815250633b9aca0034614ce5565b60016002811115611eff57611efe61660c565b5b816002811115611f1257611f1161660c565b5b036120fc575f349050633b9aca008114611f61576040517f08c379a0000000000000000000000000000000000000000000000000000000008152600401611f589061758a565b60405180910390fd5b6001600b5f3373ffffffffffffffffffffffffffffffffffffffff1673ffffffffffffffffffffffffffffffffffffffff1681526020019081526020015f205f0160016101000a81548160ff02191690836002811115611fc457611fc361660c565b5b0217905550611fd360646139a2565b600b5f3373ffffffffffffffffffffffffffffffffffffffff1673ffffffffffffffffffffffffffffffffffffffff1681526020019081526020015f206001018190555062278d00426120269190616b55565b600b5f3373ffffffffffffffffffffffffffffffffffffffff1673ffffffffffffffffffffffffffffffffffffffff1681526020019081526020015f2060030181905550600c5f3373ffffffffffffffffffffffffffffffffffffffff1673ffffffffffffffffffffffffffffffffffffffff1681526020019081526020015f20604051806040016040528034815260200142815250908060018154018082558091505060019003905f5260205f2090600202015f909190919091505f820151815f0155602082015181600101555050506122ad565b60028081111561210f5761210e61660c565b5b8160028111156121225761212161660c565b5b036122ac5760028081111561213a5761213961660c565b5b600b5f3373ffffffffffffffffffffffffffffffffffffffff1673ffffffffffffffffffffffffffffffffffffffff1681526020019081526020015f205f0160019054906101000a900460ff1660028111156121995761219861660c565b5b036121d9576040517f08c379a00000000000000000000000000000000000000000000000000000000081526004016121d0906175f2565b60405180910390fd5b6002600b5f3373ffffffffffffffffffffffffffffffffffffffff1673ffffffffffffffffffffffffffffffffffffffff1681526020019081526020015f205f0160016101000a81548160ff0219169083600281111561223c5761223b61660c565b5b02179055505f637735940034612252919061763d565b905080600b5f3373ffffffffffffffffffffffffffffffffffffffff1673ffffffffffffffffffffffffffffffffffffffff1681526020019081526020015f206001015f8282546122a39190616b55565b92505081905550505b5b7fc84ae6e887b7cf66508bcd031aeb2f416ab2ab03c0b56f1845b13e2747e043fd33826040516122de92919061766d565b60405180910390a150565b6122f281614d84565b61235757600d81908060018154018082558091505060019003905f5260205f20015f9091909190916101000a81548173ffffffffffffffffffffffffffffffffffffffff021916908373ffffffffffffffffffffffffffffffffffffffff1602179055505b50565b6123648282611883565b5050565b600b5f3373ffffffffffffffffffffffffffffffffffffffff1673ffffffffffffffffffffffffffffffffffffffff1681526020019081526020015f205f015f9054906101000a900460ff16156123f4576040517f08c379a00000000000000000000000000000000000000000000000000000000081526004016123eb906176de565b60405180910390fd5b6040518060a001604052806001151581526020015f600281111561241b5761241a61660c565b5b815260200161242a60016139a2565b81526020015f81526020015f815250600b5f3373ffffffffffffffffffffffffffffffffffffffff1673ffffffffffffffffffffffffffffffffffffffff1681526020019081526020015f205f820151815f015f6101000a81548160ff0219169083151502179055506020820151815f0160016101000a81548160ff021916908360028111156124bd576124bc61660c565b5b02179055506040820151816001015560608201518160020155608082015181600301559050507f8e18574f8a7333e6a87112742a55853a643e2f0550f4e1a3a2c3f1bb2994441d335f60405161251492919061766d565b60405180910390a1565b612526615748565b5f61252f614e26565b90505f5b815181101561274b5761256382828151811061255257612551616d9a565b5b60200260200101515f0151856139dd565b1561273e5781818151811061257b5761257a616d9a565b5b602002602001015160c0015173ffffffffffffffffffffffffffffffffffffffff163373ffffffffffffffffffffffffffffffffffffffff1614604051806060016040528060308152602001617fe0603091399061260f576040517f08c379a00000000000000000000000000000000000000000000000000000000081526004016126069190616502565b60405180910390fd5b50604051806060016040528083838151811061262e5761262d616d9a565b5b6020026020010151815260200161264486613a35565b81526020016011866040516126599190616e01565b9081526020016040518091039020805480602002602001604051908101604052809291908181526020015f905b8282101561272e578382905f5260205f200180546126a390616e44565b80601f01602080910402602001604051908101604052809291908181526020018280546126cf90616e44565b801561271a5780601f106126f15761010080835404028352916020019161271a565b820191905f5260205f20905b8154815290600101906020018083116126fd57829003601f168201915b505050505081526020019060010190612686565b505050508152509250505061294c565b8080600101915050612533565b505f604051806060016040528060238152602001617fbd60239139906127a7576040517f08c379a000000000000000000000000000000000000000000000000000000000815260040161279e9190616502565b60405180910390fd5b5060605f60405180610100016040528060405180602001604052805f815250815260200160405180602001604052805f815250815260200160405180602001604052805f815250815260200160405180602001604052805f81525081526020015f81526020015f81526020015f73ffffffffffffffffffffffffffffffffffffffff16815260200160405180602001604052805f8152508152509050604051806060016040528082815260200183815260200160118760405161286a9190616e01565b9081526020016040518091039020805480602002602001604051908101604052809291908181526020015f905b8282101561293f578382905f5260205f200180546128b490616e44565b80601f01602080910402602001604051908101604052809291908181526020018280546128e090616e44565b801561292b5780601f106129025761010080835404028352916020019161292b565b820191905f5260205f20905b81548152906001019060200180831161290e57829003601f168201915b505050505081526020019060010190612897565b5050505081525093505050505b919050565b5f60095f8373ffffffffffffffffffffffffffffffffffffffff1673ffffffffffffffffffffffffffffffffffffffff1681526020019081526020015f208054905090505f60035f8473ffffffffffffffffffffffffffffffffffffffff1673ffffffffffffffffffffffffffffffffffffffff1681526020019081526020015f206002015490505f811115612aad575f6064600a836129f191906176fc565b6129fb919061763d565b83612a0691906176fc565b905081811115612a5a575f60035f8673ffffffffffffffffffffffffffffffffffffffff1673ffffffffffffffffffffffffffffffffffffffff1681526020019081526020015f2060020181905550612aab565b8082612a66919061773d565b60035f8673ffffffffffffffffffffffffffffffffffffffff1673ffffffffffffffffffffffffffffffffffffffff1681526020019081526020015f20600201819055505b505b505050565b6008602052805f5260405f205f915054906101000a900460ff1681565b612ad881612b82565b15612b18576040517f08c379a0000000000000000000000000000000000000000000000000000000008152600401612b0f906177ba565b60405180910390fd5b8073ffffffffffffffffffffffffffffffffffffffff166108fc600a5490811502906040515f60405180830381858888f19350505050158015612b5d573d5f803e3d5ffd5b5050565b6060612b6c826141c0565b9050919050565b6060612b7d614e26565b905090565b5f60085f8373ffffffffffffffffffffffffffffffffffffffff1673ffffffffffffffffffffffffffffffffffffffff1681526020019081526020015f205f9054906101000a900460ff169050919050565b612bdc61576f565b600b5f8373ffffffffffffffffffffffffffffffffffffffff1673ffffffffffffffffffffffffffffffffffffffff1681526020019081526020015f205f015f9054906101000a900460ff16612c67576040517f08c379a0000000000000000000000000000000000000000000000000000000008152600401612c5e90617282565b60405180910390fd5b600b5f8373ffffffffffffffffffffffffffffffffffffffff1673ffffffffffffffffffffffffffffffffffffffff1681526020019081526020015f206040518060a00160405290815f82015f9054906101000a900460ff161515151581526020015f820160019054906101000a900460ff166002811115612cec57612ceb61660c565b5b6002811115612cfe57612cfd61660c565b5b815260200160018201548152602001600282015481526020016003820154815250509050919050565b5f47905090565b5f600b5f3373ffffffffffffffffffffffffffffffffffffffff1673ffffffffffffffffffffffffffffffffffffffff1681526020019081526020015f205f015f9054906101000a900460ff16612dba576040517f08c379a0000000000000000000000000000000000000000000000000000000008152600401612db190617282565b60405180910390fd5b600b5f3373ffffffffffffffffffffffffffffffffffffffff1673ffffffffffffffffffffffffffffffffffffffff1681526020019081526020015f205f0160019054906101000a900460ff16905090565b5f633b9aca0082612e1d919061763d565b9050919050565b600c602052815f5260405f208181548110612e3d575f80fd5b905f5260205f2090600202015f9150915050805f0154908060010154905082565b6060612e6982613a35565b9050919050565b60068181548110612e7f575f80fd5b905f5260205f20015f915054906101000a900473ffffffffffffffffffffffffffffffffffffffff1681565b5f47905090565b5f612ebd8383615281565b905092915050565b600b602052805f5260405f205f91509050805f015f9054906101000a900460ff1690805f0160019054906101000a900460ff16908060010154908060020154908060030154905085565b5f60105f3373ffffffffffffffffffffffffffffffffffffffff1673ffffffffffffffffffffffffffffffffffffffff1681526020019081526020015f2080549050116040518060400160405280601b81526020017f64656c65746546696c653a20496e76616c69642066696c65206964000000000081525090612fc9576040517f08c379a0000000000000000000000000000000000000000000000000000000008152600401612fc09190616502565b60405180910390fd5b505f60105f3373ffffffffffffffffffffffffffffffffffffffff1673ffffffffffffffffffffffffffffffffffffffff1681526020019081526020015f20805480602002602001604051908101604052809291908181526020015f905b82821015613390578382905f5260205f209060080201604051806101000160405290815f8201805461305890616e44565b80601f016020809104026020016040519081016040528092919081815260200182805461308490616e44565b80156130cf5780601f106130a6576101008083540402835291602001916130cf565b820191905f5260205f20905b8154815290600101906020018083116130b257829003601f168201915b505050505081526020016001820180546130e890616e44565b80601f016020809104026020016040519081016040528092919081815260200182805461311490616e44565b801561315f5780601f106131365761010080835404028352916020019161315f565b820191905f5260205f20905b81548152906001019060200180831161314257829003601f168201915b5050505050815260200160028201805461317890616e44565b80601f01602080910402602001604051908101604052809291908181526020018280546131a490616e44565b80156131ef5780601f106131c6576101008083540402835291602001916131ef565b820191905f5260205f20905b8154815290600101906020018083116131d257829003601f168201915b5050505050815260200160038201805461320890616e44565b80601f016020809104026020016040519081016040528092919081815260200182805461323490616e44565b801561327f5780601f106132565761010080835404028352916020019161327f565b820191905f5260205f20905b81548152906001019060200180831161326257829003601f168201915b505050505081526020016004820154815260200160058201548152602001600682015f9054906101000a900473ffffffffffffffffffffffffffffffffffffffff1673ffffffffffffffffffffffffffffffffffffffff1673ffffffffffffffffffffffffffffffffffffffff16815260200160078201805461330190616e44565b80601f016020809104026020016040519081016040528092919081815260200182805461332d90616e44565b80156133785780601f1061334f57610100808354040283529160200191613378565b820191905f5260205f20905b81548152906001019060200180831161335b57829003601f168201915b50505050508152505081526020019060010190613027565b5050505090505f600182516133a5919061773d565b90505f8282815181106133bb576133ba616d9a565b5b602002602001015190506133cd6157ad565b5f805b8551811015613559576134008682815181106133ef576133ee616d9a565b5b60200260200101515f0151886139dd565b1561354c576001915085818151811061341c5761341b616d9a565b5b602002602001015192508360105f3373ffffffffffffffffffffffffffffffffffffffff1673ffffffffffffffffffffffffffffffffffffffff1681526020019081526020015f20828154811061347657613475616d9a565b5b905f5260205f2090600802015f820151815f0190816134959190617011565b5060208201518160010190816134ab9190617011565b5060408201518160020190816134c19190617011565b5060608201518160030190816134d79190617011565b506080820151816004015560a0820151816005015560c0820151816006015f6101000a81548173ffffffffffffffffffffffffffffffffffffffff021916908373ffffffffffffffffffffffffffffffffffffffff16021790555060e08201518160070190816135479190617011565b509050505b80806001019150506133d0565b50806040518060400160405280601a81526020017f64656c65746546696c653a2046696c65204e6f7420666f756e64000000000000815250906135d2576040517f08c379a00000000000000000000000000000000000000000000000000000000081526004016135c99190616502565b60405180910390fd5b508160105f3373ffffffffffffffffffffffffffffffffffffffff1673ffffffffffffffffffffffffffffffffffffffff1681526020019081526020015f20858154811061362357613622616d9a565b5b905f5260205f2090600802015f820151815f0190816136429190617011565b5060208201518160010190816136589190617011565b50604082015181600201908161366e9190617011565b5060608201518160030190816136849190617011565b506080820151816004015560a0820151816005015560c0820151816006015f6101000a81548173ffffffffffffffffffffffffffffffffffffffff021916908373ffffffffffffffffffffffffffffffffffffffff16021790555060e08201518160070190816136f49190617011565b5090505060105f3373ffffffffffffffffffffffffffffffffffffffff1673ffffffffffffffffffffffffffffffffffffffff1681526020019081526020015f20805480613745576137446177d8565b5b600190038181905f5260205f2090600802015f8082015f6137669190615805565b600182015f6137759190615805565b600282015f6137849190615805565b600382015f6137939190615805565b600482015f9055600582015f9055600682015f6101000a81549073ffffffffffffffffffffffffffffffffffffffff0219169055600782015f6137d69190615805565b505090556137e386615338565b6137ec866153a7565b7f8598a19145ba7b62366f9f3e3ceca438df1e575ffa3bef982ed120041131d786338760405161381d929190617805565b60405180910390a1505050505050565b5f613836612eab565b90505f606460468361384891906176fc565b613852919061763d565b90505f606460028461386491906176fc565b61386e919061763d565b90505f81838561387e919061773d565b613888919061773d565b90505f6006805490508461389c919061763d565b90505f5b600680549050811015613904575f600682815481106138c2576138c1616d9a565b5b905f5260205f20015f9054906101000a900473ffffffffffffffffffffffffffffffffffffffff1690506138f6818461134b565b5080806001019150506138a0565b5060065f613912919061572a565b5f60078054905083613924919061763d565b90505f5b60078054905081101561398c575f6007828154811061394a57613949616d9a565b5b905f5260205f20015f9054906101000a900473ffffffffffffffffffffffffffffffffffffffff16905061397e818461134b565b508080600101915050613928565b5060075f61399a919061572a565b505050505050565b5f610400633b9aca00836139b691906176fc565b6139c091906176fc565b9050919050565b6139d58686868686866147a0565b505050505050565b5f816040516020016139ef9190616e01565b6040516020818303038152906040528051906020012083604051602001613a169190616e01565b6040516020818303038152906040528051906020012014905092915050565b60605f600483604051613a489190616e01565b90815260200160405180910390208054905011613a9a576040517f08c379a0000000000000000000000000000000000000000000000000000000008152600401613a91906178c9565b60405180910390fd5b5f5b600483604051613aac9190616e01565b908152602001604051809103902080549050811015613c20575f600484604051613ad69190616e01565b90815260200160405180910390208281548110613af657613af5616d9a565b5b905f5260205f20015f9054906101000a900473ffffffffffffffffffffffffffffffffffffffff169050613bad816007805480602002602001604051908101604052809291908181526020018280548015613ba357602002820191905f5260205f20905b815f9054906101000a900473ffffffffffffffffffffffffffffffffffffffff1673ffffffffffffffffffffffffffffffffffffffff1681526020019060010190808311613b5a575b5050505050615482565b613c1257600781908060018154018082558091505060019003905f5260205f20015f9091909190916101000a81548173ffffffffffffffffffffffffffffffffffffffff021916908373ffffffffffffffffffffffffffffffffffffffff1602179055505b508080600101915050613a9c565b50600482604051613c319190616e01565b9081526020016040518091039020805480602002602001604051908101604052809291908181526020018280548015613cbc57602002820191905f5260205f20905b815f9054906101000a900473ffffffffffffffffffffffffffffffffffffffff1673ffffffffffffffffffffffffffffffffffffffff1681526020019060010190808311613c73575b50505050509050919050565b5f47905090565b5f8060058054905090505f603290505f8203613cef575f92505050613ea1565b5f82600143613cfe919061773d565b405f1c613d0b91906178e7565b90505f805f60509050600580549050885103613d2f575f9650505050505050613ea1565b5b80821015613e97575f6005878587613d489190616b55565b613d5291906178e7565b81548110613d6357613d62616d9a565b5b905f5260205f20015f9054906101000a900473ffffffffffffffffffffffffffffffffffffffff169050858a613d999190616b55565b60035f8373ffffffffffffffffffffffffffffffffffffffff1673ffffffffffffffffffffffffffffffffffffffff1681526020019081526020015f20600101541115613e6a575f600190505f5b8a51811015613e4e578273ffffffffffffffffffffffffffffffffffffffff168b8281518110613e1a57613e19616d9a565b5b602002602001015173ffffffffffffffffffffffffffffffffffffffff1603613e41575f91505b8080600101915050613de7565b508015613e68578293508198505050505050505050613ea1565b505b8380613e75906170e0565b9450508280613e83906170e0565b935050868403613e91575f93505b50613d30565b5f96505050505050505b92915050565b6060613eb1615500565b905090565b613ebf816153a7565b50565b613eca615842565b613ed38261558b565b9050919050565b6009602052815f5260405f208181548110613ef3575f80fd5b905f5260205f20015f91509150505481565b600b5f3373ffffffffffffffffffffffffffffffffffffffff1673ffffffffffffffffffffffffffffffffffffffff1681526020019081526020015f205f015f9054906101000a900460ff16613f90576040517f08c379a0000000000000000000000000000000000000000000000000000000008152600401613f8790617282565b60405180910390fd5b600280811115613fa357613fa261660c565b5b600b5f3373ffffffffffffffffffffffffffffffffffffffff1673ffffffffffffffffffffffffffffffffffffffff1681526020019081526020015f205f0160019054906101000a900460ff1660028111156140025761400161660c565b5b14614042576040517f08c379a000000000000000000000000000000000000000000000000000000000815260040161403990617961565b60405180910390fd5b5f637735940034614053919061763d565b905080600b5f3373ffffffffffffffffffffffffffffffffffffffff1673ffffffffffffffffffffffffffffffffffffffff1681526020019081526020015f206001015f8282546140a49190616b55565b9250508190555050565b60118280516020810182018051848252602083016020850120818352809550505050505081815481106140df575f80fd5b905f5260205f20015f915091505080546140f890616e44565b80601f016020809104026020016040519081016040528092919081815260200182805461412490616e44565b801561416f5780601f106141465761010080835404028352916020019161416f565b820191905f5260205f20905b81548152906001019060200180831161415257829003601f168201915b505050505081565b614181828261467c565b5050565b60058181548110614194575f80fd5b905f5260205f20015f915054906101000a900473ffffffffffffffffffffffffffffffffffffffff1681565b60605f825111614205576040517f08c379a00000000000000000000000000000000000000000000000000000000081526004016141fc906179c9565b60405180910390fd5b6002826040516142159190616e01565b9081526020016040518091039020805461422e90616e44565b80601f016020809104026020016040519081016040528092919081815260200182805461425a90616e44565b80156142a55780601f1061427c576101008083540402835291602001916142a5565b820191905f5260205f20905b81548152906001019060200180831161428857829003601f168201915b50505050509050919050565b5f60035f8373ffffffffffffffffffffffffffffffffffffffff1673ffffffffffffffffffffffffffffffffffffffff1681526020019081526020015f20600101549050919050565b5f73ffffffffffffffffffffffffffffffffffffffff1660035f8673ffffffffffffffffffffffffffffffffffffffff1673ffffffffffffffffffffffffffffffffffffffff1681526020019081526020015f205f015f9054906101000a900473ffffffffffffffffffffffffffffffffffffffff1673ffffffffffffffffffffffffffffffffffffffff16036143c6576040517f08c379a00000000000000000000000000000000000000000000000000000000081526004016143bd90617a57565b60405180910390fd5b6144056040518060400160405280600a81526020017f5f6368756e6b48617368000000000000000000000000000000000000000000008152508261564a565b6144ae846004846040516144199190616e01565b90815260200160405180910390208054806020026020016040519081016040528092919081815260200182805480156144a457602002820191905f5260205f20905b815f9054906101000a900473ffffffffffffffffffffffffffffffffffffffff1673ffffffffffffffffffffffffffffffffffffffff168152602001906001019080831161445b575b5050505050615482565b614676576004826040516144c29190616e01565b908152602001604051809103902084908060018154018082558091505060019003905f5260205f20015f9091909190916101000a81548173ffffffffffffffffffffffffffffffffffffffff021916908373ffffffffffffffffffffffffffffffffffffffff1602179055506145bb8460068054806020026020016040519081016040528092919081815260200182805480156145b157602002820191905f5260205f20905b815f9054906101000a900473ffffffffffffffffffffffffffffffffffffffff1673ffffffffffffffffffffffffffffffffffffffff1681526020019060010190808311614568575b5050505050615482565b61462057600684908060018154018082558091505060019003905f5260205f20015f9091909190916101000a81548173ffffffffffffffffffffffffffffffffffffffff021916908373ffffffffffffffffffffffffffffffffffffffff1602179055505b614675848460035f8873ffffffffffffffffffffffffffffffffffffffff1673ffffffffffffffffffffffffffffffffffffffff1681526020019081526020015f2060010154614670919061773d565b614bd0565b5b50505050565b5f73ffffffffffffffffffffffffffffffffffffffff163373ffffffffffffffffffffffffffffffffffffffff16036146ea576040517f08c379a00000000000000000000000000000000000000000000000000000000081526004016146e190617abf565b60405180910390fd5b5f82511161472d576040517f08c379a000000000000000000000000000000000000000000000000000000000815260040161472490617b27565b60405180910390fd5b5f815111614770576040517f08c379a000000000000000000000000000000000000000000000000000000000815260040161476790617b8f565b60405180910390fd5b816002826040516147819190616e01565b9081526020016040518091039020908161479b9190617011565b505050565b5f73ffffffffffffffffffffffffffffffffffffffff163373ffffffffffffffffffffffffffffffffffffffff161415604051806060016040528060218152602001617f9c602191399061482a576040517f08c379a00000000000000000000000000000000000000000000000000000000081526004016148219190616502565b60405180910390fd5b505f855111604051806060016040528060248152602001617f316024913990614889576040517f08c379a00000000000000000000000000000000000000000000000000000000081526004016148809190616502565b60405180910390fd5b505f86511160405180606001604052806024815260200161801060249139906148e8576040517f08c379a00000000000000000000000000000000000000000000000000000000081526004016148df9190616502565b60405180910390fd5b505f8451116040518060600160405280602481526020016180346024913990614947576040517f08c379a000000000000000000000000000000000000000000000000000000000815260040161493e9190616502565b60405180910390fd5b505f8111604051806060016040528060248152602001617f0d60249139906149a5576040517f08c379a000000000000000000000000000000000000000000000000000000000815260040161499c9190616502565b60405180910390fd5b505f825111604051806060016040528060248152602001617f786024913990614a04576040517f08c379a00000000000000000000000000000000000000000000000000000000081526004016149fb9190616502565b60405180910390fd5b505f42905060105f3373ffffffffffffffffffffffffffffffffffffffff1673ffffffffffffffffffffffffffffffffffffffff1681526020019081526020015f206040518061010001604052808581526020018981526020018881526020018781526020018481526020018381526020013373ffffffffffffffffffffffffffffffffffffffff16815260200186815250908060018154018082558091505060019003905f5260205f2090600802015f909190919091505f820151815f019081614acf9190617011565b506020820151816001019081614ae59190617011565b506040820151816002019081614afb9190617011565b506060820151816003019081614b119190617011565b506080820151816004015560a0820151816005015560c0820151816006015f6101000a81548173ffffffffffffffffffffffffffffffffffffffff021916908373ffffffffffffffffffffffffffffffffffffffff16021790555060e0820151816007019081614b819190617011565b5050507fe44f2dc23adeaf383f63eb9222d882a6da7dc9ee745ba40aeba65a643fa9d43c83888888868633604051614bbf9796959493929190617bad565b60405180910390a150505050505050565b5f73ffffffffffffffffffffffffffffffffffffffff1660035f8473ffffffffffffffffffffffffffffffffffffffff1673ffffffffffffffffffffffffffffffffffffffff1681526020019081526020015f205f015f9054906101000a900473ffffffffffffffffffffffffffffffffffffffff1673ffffffffffffffffffffffffffffffffffffffff1603614c9c576040517f08c379a0000000000000000000000000000000000000000000000000000000008152600401614c9390617ccc565b60405180910390fd5b8060035f8473ffffffffffffffffffffffffffffffffffffffff1673ffffffffffffffffffffffffffffffffffffffff1681526020019081526020015f20600101819055505050565b614d7f838383604051602401614cfd93929190617cea565b6040516020818303038152906040527fca47c4eb000000000000000000000000000000000000000000000000000000007bffffffffffffffffffffffffffffffffffffffffffffffffffffffff19166020820180517bffffffffffffffffffffffffffffffffffffffffffffffffffffffff83818316178352505050506156e6565b505050565b5f805f90505b600d80549050811015614e1c578273ffffffffffffffffffffffffffffffffffffffff16600d8281548110614dc257614dc1616d9a565b5b905f5260205f20015f9054906101000a900473ffffffffffffffffffffffffffffffffffffffff1673ffffffffffffffffffffffffffffffffffffffff1603614e0f576001915050614e21565b8080600101915050614d8a565b505f90505b919050565b60605f73ffffffffffffffffffffffffffffffffffffffff163373ffffffffffffffffffffffffffffffffffffffff161415604051806060016040528060218152602001617f9c6021913990614eb2576040517f08c379a0000000000000000000000000000000000000000000000000000000008152600401614ea99190616502565b60405180910390fd5b5060105f3373ffffffffffffffffffffffffffffffffffffffff1673ffffffffffffffffffffffffffffffffffffffff1681526020019081526020015f20805480602002602001604051908101604052809291908181526020015f905b82821015615278578382905f5260205f209060080201604051806101000160405290815f82018054614f4090616e44565b80601f0160208091040260200160405190810160405280929190818152602001828054614f6c90616e44565b8015614fb75780601f10614f8e57610100808354040283529160200191614fb7565b820191905f5260205f20905b815481529060010190602001808311614f9a57829003601f168201915b50505050508152602001600182018054614fd090616e44565b80601f0160208091040260200160405190810160405280929190818152602001828054614ffc90616e44565b80156150475780601f1061501e57610100808354040283529160200191615047565b820191905f5260205f20905b81548152906001019060200180831161502a57829003601f168201915b5050505050815260200160028201805461506090616e44565b80601f016020809104026020016040519081016040528092919081815260200182805461508c90616e44565b80156150d75780601f106150ae576101008083540402835291602001916150d7565b820191905f5260205f20905b8154815290600101906020018083116150ba57829003601f168201915b505050505081526020016003820180546150f090616e44565b80601f016020809104026020016040519081016040528092919081815260200182805461511c90616e44565b80156151675780601f1061513e57610100808354040283529160200191615167565b820191905f5260205f20905b81548152906001019060200180831161514a57829003601f168201915b505050505081526020016004820154815260200160058201548152602001600682015f9054906101000a900473ffffffffffffffffffffffffffffffffffffffff1673ffffffffffffffffffffffffffffffffffffffff1673ffffffffffffffffffffffffffffffffffffffff1681526020016007820180546151e990616e44565b80601f016020809104026020016040519081016040528092919081815260200182805461521590616e44565b80156152605780601f1061523757610100808354040283529160200191615260565b820191905f5260205f20905b81548152906001019060200180831161524357829003601f168201915b50505050508152505081526020019060010190614f0f565b50505050905090565b5f615330836002846040516152969190616e01565b908152602001604051809103902080546152af90616e44565b80601f01602080910402602001604051908101604052809291908181526020018280546152db90616e44565b80156153265780601f106152fd57610100808354040283529160200191615326565b820191905f5260205f20905b81548152906001019060200180831161530957829003601f168201915b50505050506139dd565b905092915050565b5f81511161537b576040517f08c379a000000000000000000000000000000000000000000000000000000000815260040161537290617d96565b60405180910390fd5b60048160405161538b9190616e01565b90815260200160405180910390205f6153a4919061572a565b50565b5f8151116153ea576040517f08c379a00000000000000000000000000000000000000000000000000000000081526004016153e190617dfe565b60405180910390fd5b5f6002826040516153fb9190616e01565b9081526020016040518091039020805461541490616e44565b905011615456576040517f08c379a000000000000000000000000000000000000000000000000000000000815260040161544d90617e8c565b60405180910390fd5b6002816040516154669190616e01565b90815260200160405180910390205f61547f9190615805565b50565b5f805f90505b82518110156154f5578373ffffffffffffffffffffffffffffffffffffffff168382815181106154bb576154ba616d9a565b5b602002602001015173ffffffffffffffffffffffffffffffffffffffff16036154e85760019150506154fa565b8080600101915050615488565b505f90505b92915050565b6060600580548060200260200160405190810160405280929190818152602001828054801561558157602002820191905f5260205f20905b815f9054906101000a900473ffffffffffffffffffffffffffffffffffffffff1673ffffffffffffffffffffffffffffffffffffffff1681526020019060010190808311615538575b5050505050905090565b615593615842565b60035f8373ffffffffffffffffffffffffffffffffffffffff1673ffffffffffffffffffffffffffffffffffffffff1681526020019081526020015f206040518060600160405290815f82015f9054906101000a900473ffffffffffffffffffffffffffffffffffffffff1673ffffffffffffffffffffffffffffffffffffffff1673ffffffffffffffffffffffffffffffffffffffff168152602001600182015481526020016002820154815250509050919050565b6156e28282604051602401615660929190617eaa565b6040516020818303038152906040527f4b5c4277000000000000000000000000000000000000000000000000000000007bffffffffffffffffffffffffffffffffffffffffffffffffffffffff19166020820180517bffffffffffffffffffffffffffffffffffffffffffffffffffffffff83818316178352505050506156e6565b5050565b6156fd816156f561570061571f565b63ffffffff16565b50565b5f6a636f6e736f6c652e6c6f6790505f80835160208501845afa505050565b615876819050919050565b5080545f8255905f5260205f20908101906157459190615880565b50565b604051806060016040528061575b6157ad565b815260200160608152602001606081525090565b6040518060a001604052805f151581526020015f60028111156157955761579461660c565b5b81526020015f81526020015f81526020015f81525090565b604051806101000160405280606081526020016060815260200160608152602001606081526020015f81526020015f81526020015f73ffffffffffffffffffffffffffffffffffffffff168152602001606081525090565b50805461581190616e44565b5f825580601f10615822575061583f565b601f0160209004905f5260205f209081019061583e9190615880565b5b50565b60405180606001604052805f73ffffffffffffffffffffffffffffffffffffffff1681526020015f81526020015f81525090565b61587e617edf565b565b5b80821115615897575f815f905550600101615881565b5090565b5f604051905090565b5f80fd5b5f80fd5b5f80fd5b5f601f19601f8301169050919050565b7f4e487b71000000000000000000000000000000000000000000000000000000005f52604160045260245ffd5b6158f6826158b0565b810181811067ffffffffffffffff82111715615915576159146158c0565b5b80604052505050565b5f61592761589b565b905061593382826158ed565b919050565b5f67ffffffffffffffff821115615952576159516158c0565b5b602082029050602081019050919050565b5f80fd5b5f819050919050565b61597981615967565b8114615983575f80fd5b50565b5f8135905061599481615970565b92915050565b5f6159ac6159a784615938565b61591e565b905080838252602082019050602084028301858111156159cf576159ce615963565b5b835b818110156159f857806159e48882615986565b8452602084019350506020810190506159d1565b5050509392505050565b5f82601f830112615a1657615a156158ac565b5b8135615a2684826020860161599a565b91505092915050565b5f80fd5b5f67ffffffffffffffff821115615a4d57615a4c6158c0565b5b615a56826158b0565b9050602081019050919050565b828183375f83830152505050565b5f615a83615a7e84615a33565b61591e565b905082815260208101848484011115615a9f57615a9e615a2f565b5b615aaa848285615a63565b509392505050565b5f82601f830112615ac657615ac56158ac565b5b8135615ad6848260208601615a71565b91505092915050565b5f67ffffffffffffffff821115615af957615af86158c0565b5b602082029050602081019050919050565b5f615b1c615b1784615adf565b61591e565b90508083825260208201905060208402830185811115615b3f57615b3e615963565b5b835b81811015615b8657803567ffffffffffffffff811115615b6457615b636158ac565b5b808601615b718982615ab2565b85526020850194505050602081019050615b41565b5050509392505050565b5f82601f830112615ba457615ba36158ac565b5b8135615bb4848260208601615b0a565b91505092915050565b5f805f805f805f80610100898b031215615bda57615bd96158a4565b5b5f89013567ffffffffffffffff811115615bf757615bf66158a8565b5b615c038b828c01615a02565b985050602089013567ffffffffffffffff811115615c2457615c236158a8565b5b615c308b828c01615ab2565b975050604089013567ffffffffffffffff811115615c5157615c506158a8565b5b615c5d8b828c01615ab2565b965050606089013567ffffffffffffffff811115615c7e57615c7d6158a8565b5b615c8a8b828c01615ab2565b955050608089013567ffffffffffffffff811115615cab57615caa6158a8565b5b615cb78b828c01615ab2565b94505060a0615cc88b828c01615986565b93505060c089013567ffffffffffffffff811115615ce957615ce86158a8565b5b615cf58b828c01615ab2565b92505060e089013567ffffffffffffffff811115615d1657615d156158a8565b5b615d228b828c01615b90565b9150509295985092959890939650565b5f73ffffffffffffffffffffffffffffffffffffffff82169050919050565b5f615d5b82615d32565b9050919050565b615d6b81615d51565b8114615d75575f80fd5b50565b5f81359050615d8681615d62565b92915050565b5f8060408385031215615da257615da16158a4565b5b5f615daf85828601615d78565b9250506020615dc085828601615986565b9150509250929050565b5f615dd482615d32565b9050919050565b615de481615dca565b8114615dee575f80fd5b50565b5f81359050615dff81615ddb565b92915050565b5f8060408385031215615e1b57615e1a6158a4565b5b5f615e2885828601615df1565b9250506020615e3985828601615986565b9150509250929050565b5f60208284031215615e5857615e576158a4565b5b5f615e6584828501615986565b91505092915050565b615e7781615dca565b82525050565b5f602082019050615e905f830184615e6e565b92915050565b5f805f8060808587031215615eae57615ead6158a4565b5b5f615ebb87828801615df1565b9450506020615ecc87828801615986565b935050604085013567ffffffffffffffff811115615eed57615eec6158a8565b5b615ef987828801615ab2565b925050606085013567ffffffffffffffff811115615f1a57615f196158a8565b5b615f2687828801615ab2565b91505092959194509250565b615f3b81615967565b82525050565b5f602082019050615f545f830184615f32565b92915050565b5f81519050919050565b5f82825260208201905092915050565b5f5b83811015615f91578082015181840152602081019050615f76565b5f8484015250505050565b5f615fa682615f5a565b615fb08185615f64565b9350615fc0818560208601615f74565b615fc9816158b0565b840191505092915050565b5f610100820190508181035f830152615fed818b615f9c565b90508181036020830152616001818a615f9c565b905081810360408301526160158189615f9c565b905081810360608301526160298188615f9c565b90506160386080830187615f32565b61604560a0830186615f32565b61605260c0830185615e6e565b81810360e08301526160648184615f9c565b90509998505050505050505050565b5f60208284031215616088576160876158a4565b5b5f61609584828501615df1565b91505092915050565b5f6060820190506160b15f830186615e6e565b6160be6020830185615f32565b6160cb6040830184615f32565b949350505050565b5f80604083850312156160e9576160e86158a4565b5b5f83013567ffffffffffffffff811115616106576161056158a8565b5b61611285828601615ab2565b925050602061612385828601615986565b9150509250929050565b60038110616139575f80fd5b50565b5f8135905061614a8161612d565b92915050565b5f60208284031215616165576161646158a4565b5b5f6161728482850161613c565b91505092915050565b5f602082840312156161905761618f6158a4565b5b5f82013567ffffffffffffffff8111156161ad576161ac6158a8565b5b6161b984828501615ab2565b91505092915050565b5f82825260208201905092915050565b5f6161dc82615f5a565b6161e681856161c2565b93506161f6818560208601615f74565b6161ff816158b0565b840191505092915050565b61621381615967565b82525050565b61622281615dca565b82525050565b5f61010083015f8301518482035f86015261624382826161d2565b9150506020830151848203602086015261625d82826161d2565b9150506040830151848203604086015261627782826161d2565b9150506060830151848203606086015261629182826161d2565b91505060808301516162a6608086018261620a565b5060a08301516162b960a086018261620a565b5060c08301516162cc60c0860182616219565b5060e083015184820360e08601526162e482826161d2565b9150508091505092915050565b5f81519050919050565b5f82825260208201905092915050565b5f819050602082019050919050565b5f6163258383616219565b60208301905092915050565b5f602082019050919050565b5f616347826162f1565b61635181856162fb565b935061635c8361630b565b805f5b8381101561638c578151616373888261631a565b975061637e83616331565b92505060018101905061635f565b5085935050505092915050565b5f81519050919050565b5f82825260208201905092915050565b5f819050602082019050919050565b5f6163cd83836161d2565b905092915050565b5f602082019050919050565b5f6163eb82616399565b6163f581856163a3565b935083602082028501616407856163b3565b805f5b85811015616442578484038952815161642385826163c2565b945061642e836163d5565b925060208a0199505060018101905061640a565b50829750879550505050505092915050565b5f606083015f8301518482035f86015261646e8282616228565b91505060208301518482036020860152616488828261633d565b915050604083015184820360408601526164a282826163e1565b9150508091505092915050565b5f6020820190508181035f8301526164c78184616454565b905092915050565b5f8115159050919050565b6164e3816164cf565b82525050565b5f6020820190506164fc5f8301846164da565b92915050565b5f6020820190508181035f83015261651a8184615f9c565b905092915050565b5f81519050919050565b5f82825260208201905092915050565b5f819050602082019050919050565b5f6165568383616228565b905092915050565b5f602082019050919050565b5f61657482616522565b61657e818561652c565b9350836020820285016165908561653c565b805f5b858110156165cb57848403895281516165ac858261654b565b94506165b78361655e565b925060208a01995050600181019050616593565b50829750879550505050505092915050565b5f6020820190508181035f8301526165f5818461656a565b905092915050565b616606816164cf565b82525050565b7f4e487b71000000000000000000000000000000000000000000000000000000005f52602160045260245ffd5b6003811061664a5761664961660c565b5b50565b5f81905061665a82616639565b919050565b5f6166698261664d565b9050919050565b6166798161665f565b82525050565b60a082015f8201516166935f8501826165fd565b5060208201516166a66020850182616670565b5060408201516166b9604085018261620a565b5060608201516166cc606085018261620a565b5060808201516166df608085018261620a565b50505050565b5f60a0820190506166f85f83018461667f565b92915050565b6167078161665f565b82525050565b5f6020820190506167205f8301846166fe565b92915050565b5f6040820190506167395f830185615f32565b6167466020830184615f32565b9392505050565b5f82825260208201905092915050565b5f616767826162f1565b616771818561674d565b935061677c8361630b565b805f5b838110156167ac578151616793888261631a565b975061679e83616331565b92505060018101905061677f565b5085935050505092915050565b5f6020820190508181035f8301526167d1818461675d565b905092915050565b5f80604083850312156167ef576167ee6158a4565b5b5f83013567ffffffffffffffff81111561680c5761680b6158a8565b5b61681885828601615ab2565b925050602083013567ffffffffffffffff811115616839576168386158a8565b5b61684585828601615ab2565b9150509250929050565b5f60a0820190506168625f8301886164da565b61686f60208301876166fe565b61687c6040830186615f32565b6168896060830185615f32565b6168966080830184615f32565b9695505050505050565b5f805f805f8060c087890312156168ba576168b96158a4565b5b5f87013567ffffffffffffffff8111156168d7576168d66158a8565b5b6168e389828a01615ab2565b965050602087013567ffffffffffffffff811115616904576169036158a8565b5b61691089828a01615ab2565b955050604087013567ffffffffffffffff811115616931576169306158a8565b5b61693d89828a01615ab2565b945050606087013567ffffffffffffffff81111561695e5761695d6158a8565b5b61696a89828a01615ab2565b935050608087013567ffffffffffffffff81111561698b5761698a6158a8565b5b61699789828a01615ab2565b92505060a06169a889828a01615986565b9150509295509295509295565b5f67ffffffffffffffff8211156169cf576169ce6158c0565b5b602082029050602081019050919050565b5f6169f26169ed846169b5565b61591e565b90508083825260208201905060208402830185811115616a1557616a14615963565b5b835b81811015616a3e5780616a2a8882615df1565b845260208401935050602081019050616a17565b5050509392505050565b5f82601f830112616a5c57616a5b6158ac565b5b8135616a6c8482602086016169e0565b91505092915050565b5f8060408385031215616a8b57616a8a6158a4565b5b5f616a9885828601615986565b925050602083013567ffffffffffffffff811115616ab957616ab86158a8565b5b616ac585828601616a48565b9150509250929050565b606082015f820151616ae35f850182616219565b506020820151616af6602085018261620a565b506040820151616b09604085018261620a565b50505050565b5f606082019050616b225f830184616acf565b92915050565b7f4e487b71000000000000000000000000000000000000000000000000000000005f52601160045260245ffd5b5f616b5f82615967565b9150616b6a83615967565b9250828201905080821115616b8257616b81616b28565b5b92915050565b7f557365722073746f72616765206c696d69742065786365656465642e000000005f82015250565b5f616bbc601c83615f64565b9150616bc782616b88565b602082019050919050565b5f6020820190508181035f830152616be981616bb0565b9050919050565b7f496e73756666696369656e7420617661696c61626c652073746f7261676520665f8201527f6f72205061794173596f75476f20757365722e00000000000000000000000000602082015250565b5f616c4a603383615f64565b9150616c5582616bf0565b604082019050919050565b5f6020820190508181035f830152616c7781616c3e565b9050919050565b7f416476616e63656420757365722073746f72616765206c696d697420657863655f8201527f656465642e000000000000000000000000000000000000000000000000000000602082015250565b5f616cd8602583615f64565b9150616ce382616c7e565b604082019050919050565b5f6020820190508181035f830152616d0581616ccc565b9050919050565b7f4672656520757365722073746f72616765206c696d69742065786365656465645f8201527f2e00000000000000000000000000000000000000000000000000000000000000602082015250565b5f616d66602183615f64565b9150616d7182616d0c565b604082019050919050565b5f6020820190508181035f830152616d9381616d5a565b9050919050565b7f4e487b71000000000000000000000000000000000000000000000000000000005f52603260045260245ffd5b5f81905092915050565b5f616ddb82615f5a565b616de58185616dc7565b9350616df5818560208601615f74565b80840191505092915050565b5f616e0c8284616dd1565b915081905092915050565b7f4e487b71000000000000000000000000000000000000000000000000000000005f52602260045260245ffd5b5f6002820490506001821680616e5b57607f821691505b602082108103616e6e57616e6d616e17565b5b50919050565b5f819050815f5260205f209050919050565b5f6020601f8301049050919050565b5f82821b905092915050565b5f60088302616ed07fffffffffffffffffffffffffffffffffffffffffffffffffffffffffffffffff82616e95565b616eda8683616e95565b95508019841693508086168417925050509392505050565b5f819050919050565b5f616f15616f10616f0b84615967565b616ef2565b615967565b9050919050565b5f819050919050565b616f2e83616efb565b616f42616f3a82616f1c565b848454616ea1565b825550505050565b5f90565b616f56616f4a565b616f61818484616f25565b505050565b5b81811015616f8457616f795f82616f4e565b600181019050616f67565b5050565b601f821115616fc957616f9a81616e74565b616fa384616e86565b81016020851015616fb2578190505b616fc6616fbe85616e86565b830182616f66565b50505b505050565b5f82821c905092915050565b5f616fe95f1984600802616fce565b1980831691505092915050565b5f6170018383616fda565b9150826002028217905092915050565b61701a82615f5a565b67ffffffffffffffff811115617033576170326158c0565b5b61703d8254616e44565b617048828285616f88565b5f60209050601f831160018114617079575f8415617067578287015190505b6170718582616ff6565b8655506170d8565b601f19841661708786616e74565b5f5b828110156170ae57848901518255600182019150602085019450602081019050617089565b868310156170cb57848901516170c7601f891682616fda565b8355505b6001600288020188555050505b505050505050565b5f6170ea82615967565b91507fffffffffffffffffffffffffffffffffffffffffffffffffffffffffffffffff820361711c5761711b616b28565b5b600182019050919050565b7f496e73756666696369656e742062616c616e636520746f207472616e736665725f82015250565b5f61715b602083615f64565b915061716682617127565b602082019050919050565b5f6020820190508181035f8301526171888161714f565b9050919050565b5f81905092915050565b50565b5f6171a75f8361718f565b91506171b282617199565b5f82019050919050565b5f6171c68261719c565b9150819050919050565b7f4661696c656420746f2073656e642045746865720000000000000000000000005f82015250565b5f617204601483615f64565b915061720f826171d0565b602082019050919050565b5f6020820190508181035f830152617231816171f8565b9050919050565b7f55736572206e6f7420726567697374657265642e0000000000000000000000005f82015250565b5f61726c601483615f64565b915061727782617238565b602082019050919050565b5f6020820190508181035f83015261729981617260565b9050919050565b7f6164644e6f64653a20496e76616c6964205f6e6f646541646472657373202d205f8201527f4e6f646520416c72656164792065786973747300000000000000000000000000602082015250565b5f6172fa603383615f64565b9150617305826172a0565b604082019050919050565b5f6020820190508181035f830152617327816172ee565b9050919050565b7f496e636f7272656374207374616b696e6720616d6f756e742e000000000000005f82015250565b5f617362601983615f64565b915061736d8261732e565b602082019050919050565b5f6020820190508181035f83015261738f81617356565b9050919050565b7f4e6f646520697320616c726561647920666c61676765642061732061206261645f8201527f206163746f722e00000000000000000000000000000000000000000000000000602082015250565b5f6173f0602783615f64565b91506173fb82617396565b604082019050919050565b5f6020820190508181035f83015261741d816173e4565b9050919050565b7f666c616741734261644163746f723a20496e76616c6964205f6e6f64654164645f8201527f72657373202d204e6f646520446f6573204e4f54206578697374000000000000602082015250565b5f61747e603a83615f64565b915061748982617424565b604082019050919050565b5f6020820190508181035f8301526174ab81617472565b9050919050565b7f43616e6e6f74207570677261646520746f204672656520746965722e000000005f82015250565b5f6174e6601c83615f64565b91506174f1826174b2565b602082019050919050565b5f6020820190508181035f830152617513816174da565b9050919050565b7f496e636f7272656374207061796d656e7420666f7220416476616e63656420745f8201527f6965722e00000000000000000000000000000000000000000000000000000000602082015250565b5f617574602483615f64565b915061757f8261751a565b604082019050919050565b5f6020820190508181035f8301526175a181617568565b9050919050565b7f416c7265616479206f6e205061794173596f75476f20746965722e00000000005f82015250565b5f6175dc601b83615f64565b91506175e7826175a8565b602082019050919050565b5f6020820190508181035f830152617609816175d0565b9050919050565b7f4e487b71000000000000000000000000000000000000000000000000000000005f52601260045260245ffd5b5f61764782615967565b915061765283615967565b92508261766257617661617610565b5b828204905092915050565b5f6040820190506176805f830185615e6e565b61768d60208301846166fe565b9392505050565b7f5573657220616c726561647920726567697374657265642e00000000000000005f82015250565b5f6176c8601883615f64565b91506176d382617694565b602082019050919050565b5f6020820190508181035f8301526176f5816176bc565b9050919050565b5f61770682615967565b915061771183615967565b925082820261771f81615967565b9150828204841483151761773657617735616b28565b5b5092915050565b5f61774782615967565b915061775283615967565b925082820390508181111561776a57617769616b28565b5b92915050565b7f4e6f646520666c6167676564206173206120626164206163746f722e000000005f82015250565b5f6177a4601c83615f64565b91506177af82617770565b602082019050919050565b5f6020820190508181035f8301526177d181617798565b9050919050565b7f4e487b71000000000000000000000000000000000000000000000000000000005f52603160045260245ffd5b5f6040820190506178185f830185615e6e565b818103602083015261782a8184615f9c565b90509392505050565b7f72657472696576654368756e6b4e6f64654164647265737365733a20496e76615f8201527f6c6964205f6e6f646541646472657373202d204e6f646520446f6573204e4f5460208201527f2065786973740000000000000000000000000000000000000000000000000000604082015250565b5f6178b3604683615f64565b91506178be82617833565b606082019050919050565b5f6020820190508181035f8301526178e0816178a7565b9050919050565b5f6178f182615967565b91506178fc83615967565b92508261790c5761790b617610565b5b828206905092915050565b7f4e6f74206f6e205061794173596f75476f20746965722e0000000000000000005f82015250565b5f61794b601783615f64565b915061795682617917565b602082019050919050565b5f6020820190508181035f8301526179788161793f565b9050919050565b7f67657446696c65486173683a20496e76616c6964205f66696c654964000000005f82015250565b5f6179b3601c83615f64565b91506179be8261797f565b602082019050919050565b5f6020820190508181035f8301526179e0816179a7565b9050919050565b7f73746f72654368756e6b496e4e6f64653a20496e76616c6964205f6e6f6465415f8201527f646472657373202d204e6f646520446f6573204e4f5420657869737400000000602082015250565b5f617a41603c83615f64565b9150617a4c826179e7565b604082019050919050565b5f6020820190508181035f830152617a6e81617a35565b9050919050565b7f73746f726546696c65486173683a20496e76616c69642073656e6465720000005f82015250565b5f617aa9601d83615f64565b9150617ab482617a75565b602082019050919050565b5f6020820190508181035f830152617ad681617a9d565b9050919050565b7f73746f726546696c65486173683a20496e76616c6964205f66696c65486173685f82015250565b5f617b11602083615f64565b9150617b1c82617add565b602082019050919050565b5f6020820190508181035f830152617b3e81617b05565b9050919050565b7f73746f726546696c65486173683a20496e76616c6964205f66696c65496400005f82015250565b5f617b79601e83615f64565b9150617b8482617b45565b602082019050919050565b5f6020820190508181035f830152617ba681617b6d565b9050919050565b5f60e0820190508181035f830152617bc5818a615f9c565b90508181036020830152617bd98189615f9c565b90508181036040830152617bed8188615f9c565b90508181036060830152617c018187615f9c565b9050617c106080830186615f32565b617c1d60a0830185615f32565b617c2a60c0830184615e6e565b98975050505050505050565b7f757064617465417661696c61626c6553746f726167653a20496e76616c6964205f8201527f5f6e6f646541646472657373202d204e6f646520446f6573204e4f542065786960208201527f7374000000000000000000000000000000000000000000000000000000000000604082015250565b5f617cb6604283615f64565b9150617cc182617c36565b606082019050919050565b5f6020820190508181035f830152617ce381617caa565b9050919050565b5f6060820190508181035f830152617d028186615f9c565b9050617d116020830185615f32565b617d1e6040830184615f32565b949350505050565b7f64656c6574654368756e6b496e4e6f64653a20496e76616c6964205f66696c655f8201527f4964000000000000000000000000000000000000000000000000000000000000602082015250565b5f617d80602283615f64565b9150617d8b82617d26565b604082019050919050565b5f6020820190508181035f830152617dad81617d74565b9050919050565b7f64656c65746546696c65486173683a20496e76616c6964205f66696c654964005f82015250565b5f617de8601f83615f64565b9150617df382617db4565b602082019050919050565b5f6020820190508181035f830152617e1581617ddc565b9050919050565b7f64656c65746546696c65486173683a20496e76616c69642066696c654964546f5f8201527f4861736800000000000000000000000000000000000000000000000000000000602082015250565b5f617e76602483615f64565b9150617e8182617e1c565b604082019050919050565b5f6020820190508181035f830152617ea381617e6a565b9050919050565b5f6040820190508181035f830152617ec28185615f9c565b90508181036020830152617ed68184615f9c565b90509392505050565b7f4e487b71000000000000000000000000000000000000000000000000000000005f52605160045260245ffdfe73746f726546696c654d657461646174613a20496e76616c6964205f66696c6553697a6573746f726546696c654d657461646174613a20496e76616c6964205f66696c655479706573746f726546696c653a204e6f20617661696c61626c65206e6f64657320666f756e6473746f726546696c654d657461646174613a20496e76616c6964205f756e69717565496473746f726546696c654d657461646174613a20496e76616c69642073656e646572726574726965766546696c6544657461696c733a2046696c65204e6f7420466f756e64726574726965766546696c6544657461696c733a20556e617574686f72697a65642063616c6c6572206164647265737373746f726546696c654d657461646174613a20496e76616c6964205f66696c654e616d6573746f726546696c654d657461646174613a20496e76616c6964205f66696c6548617368a2646970667358221220a3259ee8aaf82380e8b56683eb58929be26b7db51105a71a7af2ea1ad8fa240664736f6c63430008180033a2646970667358221220f522cd1d547108fdd3aee1133eb46812c39d7a7059d99ba71ca69c5b436ee4ab64736f6c63430008180033",
			"opcodes": "PUSH1 0x80 PUSH1 0x40 MSTORE CALLVALUE DUP1 ISZERO PUSH2 0xF JUMPI PUSH0 DUP1 REVERT JUMPDEST POP PUSH2 0x8FFF DUP1 PUSH2 0x1D PUSH0 CODECOPY PUSH0 RETURN INVALID PUSH1 0x80 PUSH1 0x40 MSTORE CALLVALUE DUP1 ISZERO PUSH2 0xF JUMPI PUSH0 DUP1 REVERT JUMPDEST POP PUSH1 0x4 CALLDATASIZE LT PUSH2 0x3F JUMPI PUSH0 CALLDATALOAD PUSH1 0xE0 SHR DUP1 PUSH4 0x47D02198 EQ PUSH2 0x43 JUMPI DUP1 PUSH4 0x7FEA0D4B EQ PUSH2 0x4D JUMPI DUP1 PUSH4 0xF36950B7 EQ PUSH2 0x57 JUMPI JUMPDEST PUSH0 DUP1 REVERT JUMPDEST PUSH2 0x4B PUSH2 0x61 JUMP JUMPDEST STOP JUMPDEST PUSH2 0x55 PUSH2 0x238 JUMP JUMPDEST STOP JUMPDEST PUSH2 0x5F PUSH2 0x303 JUMP JUMPDEST STOP JUMPDEST PUSH0 PUSH1 0x40 MLOAD DUP1 PUSH1 0x40 ADD PUSH1 0x40 MSTORE DUP1 PUSH1 0x17 DUP2 MSTORE PUSH1 0x20 ADD PUSH32 0x696E76616C696441757468656E74696369747954657374000000000000000000 DUP2 MSTORE POP SWAP1 POP PUSH1 0x1 PUSH0 SWAP1 SLOAD SWAP1 PUSH2 0x100 EXP SWAP1 DIV PUSH20 0xFFFFFFFFFFFFFFFFFFFFFFFFFFFFFFFFFFFFFFFF AND PUSH20 0xFFFFFFFFFFFFFFFFFFFFFFFFFFFFFFFFFFFFFFFF AND PUSH4 0xF2CF28D4 DUP3 PUSH1 0x40 MLOAD DUP3 PUSH4 0xFFFFFFFF AND PUSH1 0xE0 SHL DUP2 MSTORE PUSH1 0x4 ADD PUSH2 0xF4 SWAP2 SWAP1 PUSH2 0x64E JUMP JUMPDEST PUSH0 PUSH1 0x40 MLOAD DUP1 DUP4 SUB DUP2 PUSH0 DUP8 DUP1 EXTCODESIZE ISZERO DUP1 ISZERO PUSH2 0x10B JUMPI PUSH0 DUP1 REVERT JUMPDEST POP GAS CALL ISZERO DUP1 ISZERO PUSH2 0x11D JUMPI RETURNDATASIZE PUSH0 DUP1 RETURNDATACOPY RETURNDATASIZE PUSH0 REVERT JUMPDEST POP POP POP POP PUSH0 PUSH1 0x1 PUSH0 SWAP1 SLOAD SWAP1 PUSH2 0x100 EXP SWAP1 DIV PUSH20 0xFFFFFFFFFFFFFFFFFFFFFFFFFFFFFFFFFFFFFFFF AND PUSH20 0xFFFFFFFFFFFFFFFFFFFFFFFFFFFFFFFFFFFFFFFF AND PUSH4 0x9C8A41AF PUSH1 0x40 MLOAD DUP2 PUSH4 0xFFFFFFFF AND PUSH1 0xE0 SHL DUP2 MSTORE PUSH1 0x4 ADD PUSH2 0x17A SWAP1 PUSH2 0x6A4 JUMP JUMPDEST PUSH1 0x20 PUSH1 0x40 MLOAD DUP1 DUP4 SUB DUP2 DUP7 GAS STATICCALL ISZERO DUP1 ISZERO PUSH2 0x195 JUMPI RETURNDATASIZE PUSH0 DUP1 RETURNDATACOPY RETURNDATASIZE PUSH0 REVERT JUMPDEST POP POP POP POP PUSH1 0x40 MLOAD RETURNDATASIZE PUSH1 0x1F NOT PUSH1 0x1F DUP3 ADD AND DUP3 ADD DUP1 PUSH1 0x40 MSTORE POP DUP2 ADD SWAP1 PUSH2 0x1B9 SWAP2 SWAP1 PUSH2 0x71B JUMP JUMPDEST SWAP1 POP PUSH20 0x0 PUSH4 0x767392B3 DUP3 PUSH0 PUSH1 0x40 MLOAD DUP4 PUSH4 0xFFFFFFFF AND PUSH1 0xE0 SHL DUP2 MSTORE PUSH1 0x4 ADD PUSH2 0x1F4 SWAP3 SWAP2 SWAP1 PUSH2 0x7FB JUMP JUMPDEST PUSH1 0x20 PUSH1 0x40 MLOAD DUP1 DUP4 SUB DUP2 DUP7 GAS DELEGATECALL ISZERO DUP1 ISZERO PUSH2 0x20F JUMPI RETURNDATASIZE PUSH0 DUP1 RETURNDATACOPY RETURNDATASIZE PUSH0 REVERT JUMPDEST POP POP POP POP PUSH1 0x40 MLOAD RETURNDATASIZE PUSH1 0x1F NOT PUSH1 0x1F DUP3 ADD AND DUP3 ADD DUP1 PUSH1 0x40 MSTORE POP DUP2 ADD SWAP1 PUSH2 0x233 SWAP2 SWAP1 PUSH2 0x71B JUMP JUMPDEST POP POP POP JUMP JUMPDEST PUSH1 0x40 MLOAD PUSH2 0x244 SWAP1 PUSH2 0x560 JUMP JUMPDEST PUSH1 0x40 MLOAD DUP1 SWAP2 SUB SWAP1 PUSH0 CREATE DUP1 ISZERO DUP1 ISZERO PUSH2 0x25D JUMPI RETURNDATASIZE PUSH0 DUP1 RETURNDATACOPY RETURNDATASIZE PUSH0 REVERT JUMPDEST POP PUSH0 DUP1 PUSH2 0x100 EXP DUP2 SLOAD DUP2 PUSH20 0xFFFFFFFFFFFFFFFFFFFFFFFFFFFFFFFFFFFFFFFF MUL NOT AND SWAP1 DUP4 PUSH20 0xFFFFFFFFFFFFFFFFFFFFFFFFFFFFFFFFFFFFFFFF AND MUL OR SWAP1 SSTORE POP PUSH1 0x40 MLOAD PUSH2 0x2A8 SWAP1 PUSH2 0x56D JUMP JUMPDEST PUSH1 0x40 MLOAD DUP1 SWAP2 SUB SWAP1 PUSH0 CREATE DUP1 ISZERO DUP1 ISZERO PUSH2 0x2C1 JUMPI RETURNDATASIZE PUSH0 DUP1 RETURNDATACOPY RETURNDATASIZE PUSH0 REVERT JUMPDEST POP PUSH1 0x1 PUSH0 PUSH2 0x100 EXP DUP2 SLOAD DUP2 PUSH20 0xFFFFFFFFFFFFFFFFFFFFFFFFFFFFFFFFFFFFFFFF MUL NOT AND SWAP1 DUP4 PUSH20 0xFFFFFFFFFFFFFFFFFFFFFFFFFFFFFFFFFFFFFFFF AND MUL OR SWAP1 SSTORE POP JUMP JUMPDEST PUSH0 PUSH1 0x40 MLOAD DUP1 PUSH1 0x40 ADD PUSH1 0x40 MSTORE DUP1 PUSH1 0xA DUP2 MSTORE PUSH1 0x20 ADD PUSH32 0x64656C6574655465737400000000000000000000000000000000000000000000 DUP2 MSTORE POP SWAP1 POP PUSH1 0x1 PUSH0 SWAP1 SLOAD SWAP1 PUSH2 0x100 EXP SWAP1 DIV PUSH20 0xFFFFFFFFFFFFFFFFFFFFFFFFFFFFFFFFFFFFFFFF AND PUSH20 0xFFFFFFFFFFFFFFFFFFFFFFFFFFFFFFFFFFFFFFFF AND PUSH4 0xF2CF28D4 DUP3 PUSH1 0x40 MLOAD DUP3 PUSH4 0xFFFFFFFF AND PUSH1 0xE0 SHL DUP2 MSTORE PUSH1 0x4 ADD PUSH2 0x396 SWAP2 SWAP1 PUSH2 0x87F JUMP JUMPDEST PUSH0 PUSH1 0x40 MLOAD DUP1 DUP4 SUB DUP2 PUSH0 DUP8 DUP1 EXTCODESIZE ISZERO DUP1 ISZERO PUSH2 0x3AD JUMPI PUSH0 DUP1 REVERT JUMPDEST POP GAS CALL ISZERO DUP1 ISZERO PUSH2 0x3BF JUMPI RETURNDATASIZE PUSH0 DUP1 RETURNDATACOPY RETURNDATASIZE PUSH0 REVERT JUMPDEST POP POP POP POP PUSH1 0x1 PUSH0 SWAP1 SLOAD SWAP1 PUSH2 0x100 EXP SWAP1 DIV PUSH20 0xFFFFFFFFFFFFFFFFFFFFFFFFFFFFFFFFFFFFFFFF AND PUSH20 0xFFFFFFFFFFFFFFFFFFFFFFFFFFFFFFFFFFFFFFFF AND PUSH4 0xD433B6FA PUSH1 0x40 MLOAD DUP2 PUSH4 0xFFFFFFFF AND PUSH1 0xE0 SHL DUP2 MSTORE PUSH1 0x4 ADD PUSH2 0x41B SWAP1 PUSH2 0x8B2 JUMP JUMPDEST PUSH0 PUSH1 0x40 MLOAD DUP1 DUP4 SUB DUP2 PUSH0 DUP8 DUP1 EXTCODESIZE ISZERO DUP1 ISZERO PUSH2 0x432 JUMPI PUSH0 DUP1 REVERT JUMPDEST POP GAS CALL ISZERO DUP1 ISZERO PUSH2 0x444 JUMPI RETURNDATASIZE PUSH0 DUP1 RETURNDATACOPY RETURNDATASIZE PUSH0 REVERT JUMPDEST POP POP POP POP PUSH0 PUSH1 0x1 PUSH0 SWAP1 SLOAD SWAP1 PUSH2 0x100 EXP SWAP1 DIV PUSH20 0xFFFFFFFFFFFFFFFFFFFFFFFFFFFFFFFFFFFFFFFF AND PUSH20 0xFFFFFFFFFFFFFFFFFFFFFFFFFFFFFFFFFFFFFFFF AND PUSH4 0x6296610B PUSH1 0x40 MLOAD DUP2 PUSH4 0xFFFFFFFF AND PUSH1 0xE0 SHL DUP2 MSTORE PUSH1 0x4 ADD PUSH2 0x4A1 SWAP1 PUSH2 0x8B2 JUMP JUMPDEST PUSH0 PUSH1 0x40 MLOAD DUP1 DUP4 SUB DUP2 DUP7 GAS STATICCALL ISZERO DUP1 ISZERO PUSH2 0x4BB JUMPI RETURNDATASIZE PUSH0 DUP1 RETURNDATACOPY RETURNDATASIZE PUSH0 REVERT JUMPDEST POP POP POP POP PUSH1 0x40 MLOAD RETURNDATASIZE PUSH0 DUP3 RETURNDATACOPY RETURNDATASIZE PUSH1 0x1F NOT PUSH1 0x1F DUP3 ADD AND DUP3 ADD DUP1 PUSH1 0x40 MSTORE POP DUP2 ADD SWAP1 PUSH2 0x4E3 SWAP2 SWAP1 PUSH2 0x9EE JUMP JUMPDEST SWAP1 POP PUSH20 0x0 PUSH4 0xE8C2CB16 DUP3 PUSH1 0x40 MLOAD DUP3 PUSH4 0xFFFFFFFF AND PUSH1 0xE0 SHL DUP2 MSTORE PUSH1 0x4 ADD PUSH2 0x51C SWAP2 SWAP1 PUSH2 0xAFD JUMP JUMPDEST PUSH1 0x20 PUSH1 0x40 MLOAD DUP1 DUP4 SUB DUP2 DUP7 GAS DELEGATECALL ISZERO DUP1 ISZERO PUSH2 0x537 JUMPI RETURNDATASIZE PUSH0 DUP1 RETURNDATACOPY RETURNDATASIZE PUSH0 REVERT JUMPDEST POP POP POP POP PUSH1 0x40 MLOAD RETURNDATASIZE PUSH1 0x1F NOT PUSH1 0x1F DUP3 ADD AND DUP3 ADD DUP1 PUSH1 0x40 MSTORE POP DUP2 ADD SWAP1 PUSH2 0x55B SWAP2 SWAP1 PUSH2 0x71B JUMP JUMPDEST POP POP POP JUMP JUMPDEST PUSH2 0x389 DUP1 PUSH2 0xB44 DUP4 CODECOPY ADD SWAP1 JUMP JUMPDEST PUSH2 0x80FD DUP1 PUSH2 0xECD DUP4 CODECOPY ADD SWAP1 JUMP JUMPDEST PUSH0 DUP2 MLOAD SWAP1 POP SWAP2 SWAP1 POP JUMP JUMPDEST PUSH0 DUP3 DUP3 MSTORE PUSH1 0x20 DUP3 ADD SWAP1 POP SWAP3 SWAP2 POP POP JUMP JUMPDEST PUSH0 JUMPDEST DUP4 DUP2 LT ISZERO PUSH2 0x5B1 JUMPI DUP1 DUP3 ADD MLOAD DUP2 DUP5 ADD MSTORE PUSH1 0x20 DUP2 ADD SWAP1 POP PUSH2 0x596 JUMP JUMPDEST PUSH0 DUP5 DUP5 ADD MSTORE POP POP POP POP JUMP JUMPDEST PUSH0 PUSH1 0x1F NOT PUSH1 0x1F DUP4 ADD AND SWAP1 POP SWAP2 SWAP1 POP JUMP JUMPDEST PUSH0 PUSH2 0x5D6 DUP3 PUSH2 0x57A JUMP JUMPDEST PUSH2 0x5E0 DUP2 DUP6 PUSH2 0x584 JUMP JUMPDEST SWAP4 POP PUSH2 0x5F0 DUP2 DUP6 PUSH1 0x20 DUP7 ADD PUSH2 0x594 JUMP JUMPDEST PUSH2 0x5F9 DUP2 PUSH2 0x5BC JUMP JUMPDEST DUP5 ADD SWAP2 POP POP SWAP3 SWAP2 POP POP JUMP JUMPDEST PUSH32 0x696E76616C696441757468656E7469636974795465737446696C654964000000 PUSH0 DUP3 ADD MSTORE POP JUMP JUMPDEST PUSH0 PUSH2 0x638 PUSH1 0x1D DUP4 PUSH2 0x584 JUMP JUMPDEST SWAP2 POP PUSH2 0x643 DUP3 PUSH2 0x604 JUMP JUMPDEST PUSH1 0x20 DUP3 ADD SWAP1 POP SWAP2 SWAP1 POP JUMP JUMPDEST PUSH0 PUSH1 0x40 DUP3 ADD SWAP1 POP DUP2 DUP2 SUB PUSH0 DUP4 ADD MSTORE PUSH2 0x666 DUP2 DUP5 PUSH2 0x5CC JUMP JUMPDEST SWAP1 POP DUP2 DUP2 SUB PUSH1 0x20 DUP4 ADD MSTORE PUSH2 0x679 DUP2 PUSH2 0x62C JUMP JUMPDEST SWAP1 POP SWAP3 SWAP2 POP POP JUMP JUMPDEST POP JUMP JUMPDEST PUSH0 PUSH2 0x68F PUSH0 DUP4 PUSH2 0x584 JUMP JUMPDEST SWAP2 POP PUSH2 0x69A DUP3 PUSH2 0x681 JUMP JUMPDEST PUSH0 DUP3 ADD SWAP1 POP SWAP2 SWAP1 POP JUMP JUMPDEST PUSH0 PUSH1 0x40 DUP3 ADD SWAP1 POP DUP2 DUP2 SUB PUSH0 DUP4 ADD MSTORE PUSH2 0x6BB DUP2 PUSH2 0x684 JUMP JUMPDEST SWAP1 POP DUP2 DUP2 SUB PUSH1 0x20 DUP4 ADD MSTORE PUSH2 0x6CE DUP2 PUSH2 0x62C JUMP JUMPDEST SWAP1 POP SWAP2 SWAP1 POP JUMP JUMPDEST PUSH0 PUSH1 0x40 MLOAD SWAP1 POP SWAP1 JUMP JUMPDEST PUSH0 DUP1 REVERT JUMPDEST PUSH0 DUP1 REVERT JUMPDEST PUSH0 DUP2 ISZERO ISZERO SWAP1 POP SWAP2 SWAP1 POP JUMP JUMPDEST PUSH2 0x6FA DUP2 PUSH2 0x6E6 JUMP JUMPDEST DUP2 EQ PUSH2 0x704 JUMPI PUSH0 DUP1 REVERT JUMPDEST POP JUMP JUMPDEST PUSH0 DUP2 MLOAD SWAP1 POP PUSH2 0x715 DUP2 PUSH2 0x6F1 JUMP JUMPDEST SWAP3 SWAP2 POP POP JUMP JUMPDEST PUSH0 PUSH1 0x20 DUP3 DUP5 SUB SLT ISZERO PUSH2 0x730 JUMPI PUSH2 0x72F PUSH2 0x6DE JUMP JUMPDEST JUMPDEST PUSH0 PUSH2 0x73D DUP5 DUP3 DUP6 ADD PUSH2 0x707 JUMP JUMPDEST SWAP2 POP POP SWAP3 SWAP2 POP POP JUMP JUMPDEST PUSH2 0x74F DUP2 PUSH2 0x6E6 JUMP JUMPDEST DUP3 MSTORE POP POP JUMP JUMPDEST PUSH0 DUP3 DUP3 MSTORE PUSH1 0x20 DUP3 ADD SWAP1 POP SWAP3 SWAP2 POP POP JUMP JUMPDEST PUSH32 0x46696C652061757468656E7469636974792073686F756C6420626520696E7661 PUSH0 DUP3 ADD MSTORE PUSH32 0x6C6964207769746820696E636F7272656374206861736820616E6420636F7272 PUSH1 0x20 DUP3 ADD MSTORE PUSH32 0x65637420756E6971756549640000000000000000000000000000000000000000 PUSH1 0x40 DUP3 ADD MSTORE POP JUMP JUMPDEST PUSH0 PUSH2 0x7E5 PUSH1 0x4C DUP4 PUSH2 0x755 JUMP JUMPDEST SWAP2 POP PUSH2 0x7F0 DUP3 PUSH2 0x765 JUMP JUMPDEST PUSH1 0x60 DUP3 ADD SWAP1 POP SWAP2 SWAP1 POP JUMP JUMPDEST PUSH0 PUSH1 0x60 DUP3 ADD SWAP1 POP PUSH2 0x80E PUSH0 DUP4 ADD DUP6 PUSH2 0x746 JUMP JUMPDEST PUSH2 0x81B PUSH1 0x20 DUP4 ADD DUP5 PUSH2 0x746 JUMP JUMPDEST DUP2 DUP2 SUB PUSH1 0x40 DUP4 ADD MSTORE PUSH2 0x82C DUP2 PUSH2 0x7D9 JUMP JUMPDEST SWAP1 POP SWAP4 SWAP3 POP POP POP JUMP JUMPDEST PUSH32 0x64656C6574655465737446696C65496400000000000000000000000000000000 PUSH0 DUP3 ADD MSTORE POP JUMP JUMPDEST PUSH0 PUSH2 0x869 PUSH1 0x10 DUP4 PUSH2 0x584 JUMP JUMPDEST SWAP2 POP PUSH2 0x874 DUP3 PUSH2 0x835 JUMP JUMPDEST PUSH1 0x20 DUP3 ADD SWAP1 POP SWAP2 SWAP1 POP JUMP JUMPDEST PUSH0 PUSH1 0x40 DUP3 ADD SWAP1 POP DUP2 DUP2 SUB PUSH0 DUP4 ADD MSTORE PUSH2 0x897 DUP2 DUP5 PUSH2 0x5CC JUMP JUMPDEST SWAP1 POP DUP2 DUP2 SUB PUSH1 0x20 DUP4 ADD MSTORE PUSH2 0x8AA DUP2 PUSH2 0x85D JUMP JUMPDEST SWAP1 POP SWAP3 SWAP2 POP POP JUMP JUMPDEST PUSH0 PUSH1 0x20 DUP3 ADD SWAP1 POP DUP2 DUP2 SUB PUSH0 DUP4 ADD MSTORE PUSH2 0x8C9 DUP2 PUSH2 0x85D JUMP JUMPDEST SWAP1 POP SWAP2 SWAP1 POP JUMP JUMPDEST PUSH0 DUP1 REVERT JUMPDEST PUSH0 DUP1 REVERT JUMPDEST PUSH32 0x4E487B7100000000000000000000000000000000000000000000000000000000 PUSH0 MSTORE PUSH1 0x41 PUSH1 0x4 MSTORE PUSH1 0x24 PUSH0 REVERT JUMPDEST PUSH2 0x90E DUP3 PUSH2 0x5BC JUMP JUMPDEST DUP2 ADD DUP2 DUP2 LT PUSH8 0xFFFFFFFFFFFFFFFF DUP3 GT OR ISZERO PUSH2 0x92D JUMPI PUSH2 0x92C PUSH2 0x8D8 JUMP JUMPDEST JUMPDEST DUP1 PUSH1 0x40 MSTORE POP POP POP JUMP JUMPDEST PUSH0 PUSH2 0x93F PUSH2 0x6D5 JUMP JUMPDEST SWAP1 POP PUSH2 0x94B DUP3 DUP3 PUSH2 0x905 JUMP JUMPDEST SWAP2 SWAP1 POP JUMP JUMPDEST PUSH0 PUSH8 0xFFFFFFFFFFFFFFFF DUP3 GT ISZERO PUSH2 0x96A JUMPI PUSH2 0x969 PUSH2 0x8D8 JUMP JUMPDEST JUMPDEST PUSH2 0x973 DUP3 PUSH2 0x5BC JUMP JUMPDEST SWAP1 POP PUSH1 0x20 DUP2 ADD SWAP1 POP SWAP2 SWAP1 POP JUMP JUMPDEST PUSH0 PUSH2 0x992 PUSH2 0x98D DUP5 PUSH2 0x950 JUMP JUMPDEST PUSH2 0x936 JUMP JUMPDEST SWAP1 POP DUP3 DUP2 MSTORE PUSH1 0x20 DUP2 ADD DUP5 DUP5 DUP5 ADD GT ISZERO PUSH2 0x9AE JUMPI PUSH2 0x9AD PUSH2 0x8D4 JUMP JUMPDEST JUMPDEST PUSH2 0x9B9 DUP5 DUP3 DUP6 PUSH2 0x594 JUMP JUMPDEST POP SWAP4 SWAP3 POP POP POP JUMP JUMPDEST PUSH0 DUP3 PUSH1 0x1F DUP4 ADD SLT PUSH2 0x9D5 JUMPI PUSH2 0x9D4 PUSH2 0x8D0 JUMP JUMPDEST JUMPDEST DUP2 MLOAD PUSH2 0x9E5 DUP5 DUP3 PUSH1 0x20 DUP7 ADD PUSH2 0x980 JUMP JUMPDEST SWAP2 POP POP SWAP3 SWAP2 POP POP JUMP JUMPDEST PUSH0 PUSH1 0x20 DUP3 DUP5 SUB SLT ISZERO PUSH2 0xA03 JUMPI PUSH2 0xA02 PUSH2 0x6DE JUMP JUMPDEST JUMPDEST PUSH0 DUP3 ADD MLOAD PUSH8 0xFFFFFFFFFFFFFFFF DUP2 GT ISZERO PUSH2 0xA20 JUMPI PUSH2 0xA1F PUSH2 0x6E2 JUMP JUMPDEST JUMPDEST PUSH2 0xA2C DUP5 DUP3 DUP6 ADD PUSH2 0x9C1 JUMP JUMPDEST SWAP2 POP POP SWAP3 SWAP2 POP POP JUMP JUMPDEST PUSH0 PUSH2 0xA3F DUP3 PUSH2 0x57A JUMP JUMPDEST PUSH2 0xA49 DUP2 DUP6 PUSH2 0x755 JUMP JUMPDEST SWAP4 POP PUSH2 0xA59 DUP2 DUP6 PUSH1 0x20 DUP7 ADD PUSH2 0x594 JUMP JUMPDEST PUSH2 0xA62 DUP2 PUSH2 0x5BC JUMP JUMPDEST DUP5 ADD SWAP2 POP POP SWAP3 SWAP2 POP POP JUMP JUMPDEST PUSH0 PUSH2 0xA78 PUSH0 DUP4 PUSH2 0x755 JUMP JUMPDEST SWAP2 POP PUSH2 0xA83 DUP3 PUSH2 0x681 JUMP JUMPDEST PUSH0 DUP3 ADD SWAP1 POP SWAP2 SWAP1 POP JUMP JUMPDEST PUSH32 0x44656C657465642066696C6520686173682073686F756C6420626520656D7074 PUSH0 DUP3 ADD MSTORE PUSH32 0x7900000000000000000000000000000000000000000000000000000000000000 PUSH1 0x20 DUP3 ADD MSTORE POP JUMP JUMPDEST PUSH0 PUSH2 0xAE7 PUSH1 0x21 DUP4 PUSH2 0x755 JUMP JUMPDEST SWAP2 POP PUSH2 0xAF2 DUP3 PUSH2 0xA8D JUMP JUMPDEST PUSH1 0x40 DUP3 ADD SWAP1 POP SWAP2 SWAP1 POP JUMP JUMPDEST PUSH0 PUSH1 0x60 DUP3 ADD SWAP1 POP DUP2 DUP2 SUB PUSH0 DUP4 ADD MSTORE PUSH2 0xB15 DUP2 DUP5 PUSH2 0xA35 JUMP JUMPDEST SWAP1 POP DUP2 DUP2 SUB PUSH1 0x20 DUP4 ADD MSTORE PUSH2 0xB28 DUP2 PUSH2 0xA6D JUMP JUMPDEST SWAP1 POP DUP2 DUP2 SUB PUSH1 0x40 DUP4 ADD MSTORE PUSH2 0xB3B DUP2 PUSH2 0xADB JUMP JUMPDEST SWAP1 POP SWAP3 SWAP2 POP POP JUMP INVALID PUSH1 0x80 PUSH1 0x40 MSTORE PUSH1 0x3 PUSH0 SSTORE PUSH1 0x64 PUSH1 0x1 SSTORE CALLVALUE DUP1 ISZERO PUSH2 0x18 JUMPI PUSH0 DUP1 REVERT JUMPDEST POP PUSH2 0x363 DUP1 PUSH2 0x26 PUSH0 CODECOPY PUSH0 RETURN INVALID PUSH1 0x80 PUSH1 0x40 MSTORE CALLVALUE DUP1 ISZERO PUSH2 0xF JUMPI PUSH0 DUP1 REVERT JUMPDEST POP PUSH1 0x4 CALLDATASIZE LT PUSH2 0x29 JUMPI PUSH0 CALLDATALOAD PUSH1 0xE0 SHR DUP1 PUSH4 0xB1496CD4 EQ PUSH2 0x2D JUMPI JUMPDEST PUSH0 DUP1 REVERT JUMPDEST PUSH2 0x47 PUSH1 0x4 DUP1 CALLDATASIZE SUB DUP2 ADD SWAP1 PUSH2 0x42 SWAP2 SWAP1 PUSH2 0x202 JUMP JUMPDEST PUSH2 0x5D JUMP JUMPDEST PUSH1 0x40 MLOAD PUSH2 0x54 SWAP2 SWAP1 PUSH2 0x292 JUMP JUMPDEST PUSH1 0x40 MLOAD DUP1 SWAP2 SUB SWAP1 RETURN JUMPDEST PUSH0 DUP2 PUSH1 0x40 MLOAD PUSH1 0x20 ADD PUSH2 0x6F SWAP2 SWAP1 PUSH2 0x317 JUMP JUMPDEST PUSH1 0x40 MLOAD PUSH1 0x20 DUP2 DUP4 SUB SUB DUP2 MSTORE SWAP1 PUSH1 0x40 MSTORE DUP1 MLOAD SWAP1 PUSH1 0x20 ADD KECCAK256 DUP4 PUSH1 0x40 MLOAD PUSH1 0x20 ADD PUSH2 0x96 SWAP2 SWAP1 PUSH2 0x317 JUMP JUMPDEST PUSH1 0x40 MLOAD PUSH1 0x20 DUP2 DUP4 SUB SUB DUP2 MSTORE SWAP1 PUSH1 0x40 MSTORE DUP1 MLOAD SWAP1 PUSH1 0x20 ADD KECCAK256 EQ SWAP1 POP SWAP3 SWAP2 POP POP JUMP JUMPDEST PUSH0 PUSH1 0x40 MLOAD SWAP1 POP SWAP1 JUMP JUMPDEST PUSH0 DUP1 REVERT JUMPDEST PUSH0 DUP1 REVERT JUMPDEST PUSH0 DUP1 REVERT JUMPDEST PUSH0 DUP1 REVERT JUMPDEST PUSH0 PUSH1 0x1F NOT PUSH1 0x1F DUP4 ADD AND SWAP1 POP SWAP2 SWAP1 POP JUMP JUMPDEST PUSH32 0x4E487B7100000000000000000000000000000000000000000000000000000000 PUSH0 MSTORE PUSH1 0x41 PUSH1 0x4 MSTORE PUSH1 0x24 PUSH0 REVERT JUMPDEST PUSH2 0x114 DUP3 PUSH2 0xCE JUMP JUMPDEST DUP2 ADD DUP2 DUP2 LT PUSH8 0xFFFFFFFFFFFFFFFF DUP3 GT OR ISZERO PUSH2 0x133 JUMPI PUSH2 0x132 PUSH2 0xDE JUMP JUMPDEST JUMPDEST DUP1 PUSH1 0x40 MSTORE POP POP POP JUMP JUMPDEST PUSH0 PUSH2 0x145 PUSH2 0xB5 JUMP JUMPDEST SWAP1 POP PUSH2 0x151 DUP3 DUP3 PUSH2 0x10B JUMP JUMPDEST SWAP2 SWAP1 POP JUMP JUMPDEST PUSH0 PUSH8 0xFFFFFFFFFFFFFFFF DUP3 GT ISZERO PUSH2 0x170 JUMPI PUSH2 0x16F PUSH2 0xDE JUMP JUMPDEST JUMPDEST PUSH2 0x179 DUP3 PUSH2 0xCE JUMP JUMPDEST SWAP1 POP PUSH1 0x20 DUP2 ADD SWAP1 POP SWAP2 SWAP1 POP JUMP JUMPDEST DUP3 DUP2 DUP4 CALLDATACOPY PUSH0 DUP4 DUP4 ADD MSTORE POP POP POP JUMP JUMPDEST PUSH0 PUSH2 0x1A6 PUSH2 0x1A1 DUP5 PUSH2 0x156 JUMP JUMPDEST PUSH2 0x13C JUMP JUMPDEST SWAP1 POP DUP3 DUP2 MSTORE PUSH1 0x20 DUP2 ADD DUP5 DUP5 DUP5 ADD GT ISZERO PUSH2 0x1C2 JUMPI PUSH2 0x1C1 PUSH2 0xCA JUMP JUMPDEST JUMPDEST PUSH2 0x1CD DUP5 DUP3 DUP6 PUSH2 0x186 JUMP JUMPDEST POP SWAP4 SWAP3 POP POP POP JUMP JUMPDEST PUSH0 DUP3 PUSH1 0x1F DUP4 ADD SLT PUSH2 0x1E9 JUMPI PUSH2 0x1E8 PUSH2 0xC6 JUMP JUMPDEST JUMPDEST DUP2 CALLDATALOAD PUSH2 0x1F9 DUP5 DUP3 PUSH1 0x20 DUP7 ADD PUSH2 0x194 JUMP JUMPDEST SWAP2 POP POP SWAP3 SWAP2 POP POP JUMP JUMPDEST PUSH0 DUP1 PUSH1 0x40 DUP4 DUP6 SUB SLT ISZERO PUSH2 0x218 JUMPI PUSH2 0x217 PUSH2 0xBE JUMP JUMPDEST JUMPDEST PUSH0 DUP4 ADD CALLDATALOAD PUSH8 0xFFFFFFFFFFFFFFFF DUP2 GT ISZERO PUSH2 0x235 JUMPI PUSH2 0x234 PUSH2 0xC2 JUMP JUMPDEST JUMPDEST PUSH2 0x241 DUP6 DUP3 DUP7 ADD PUSH2 0x1D5 JUMP JUMPDEST SWAP3 POP POP PUSH1 0x20 DUP4 ADD CALLDATALOAD PUSH8 0xFFFFFFFFFFFFFFFF DUP2 GT ISZERO PUSH2 0x262 JUMPI PUSH2 0x261 PUSH2 0xC2 JUMP JUMPDEST JUMPDEST PUSH2 0x26E DUP6 DUP3 DUP7 ADD PUSH2 0x1D5 JUMP JUMPDEST SWAP2 POP POP SWAP3 POP SWAP3 SWAP1 POP JUMP JUMPDEST PUSH0 DUP2 ISZERO ISZERO SWAP1 POP SWAP2 SWAP1 POP JUMP JUMPDEST PUSH2 0x28C DUP2 PUSH2 0x278 JUMP JUMPDEST DUP3 MSTORE POP POP JUMP JUMPDEST PUSH0 PUSH1 0x20 DUP3 ADD SWAP1 POP PUSH2 0x2A5 PUSH0 DUP4 ADD DUP5 PUSH2 0x283 JUMP JUMPDEST SWAP3 SWAP2 POP POP JUMP JUMPDEST PUSH0 DUP2 MLOAD SWAP1 POP SWAP2 SWAP1 POP JUMP JUMPDEST PUSH0 DUP2 SWAP1 POP SWAP3 SWAP2 POP POP JUMP JUMPDEST PUSH0 JUMPDEST DUP4 DUP2 LT ISZERO PUSH2 0x2DC JUMPI DUP1 DUP3 ADD MLOAD DUP2 DUP5 ADD MSTORE PUSH1 0x20 DUP2 ADD SWAP1 POP PUSH2 0x2C1 JUMP JUMPDEST PUSH0 DUP5 DUP5 ADD MSTORE POP POP POP POP JUMP JUMPDEST PUSH0 PUSH2 0x2F1 DUP3 PUSH2 0x2AB JUMP JUMPDEST PUSH2 0x2FB DUP2 DUP6 PUSH2 0x2B5 JUMP JUMPDEST SWAP4 POP PUSH2 0x30B DUP2 DUP6 PUSH1 0x20 DUP7 ADD PUSH2 0x2BF JUMP JUMPDEST DUP1 DUP5 ADD SWAP2 POP POP SWAP3 SWAP2 POP POP JUMP JUMPDEST PUSH0 PUSH2 0x322 DUP3 DUP5 PUSH2 0x2E7 JUMP JUMPDEST SWAP2 POP DUP2 SWAP1 POP SWAP3 SWAP2 POP POP JUMP INVALID LOG2 PUSH5 0x6970667358 0x22 SLT KECCAK256 PUSH13 0x55B7118F695FE98B2E44400986 LT LOG1 SHR 0xB3 0xB7 0xCE 0xB7 0xDE PUSH12 0xA82B7B8F1FFC8C090A64736F PUSH13 0x63430008180033608060405260 SUB PUSH0 SSTORE PUSH1 0x64 PUSH1 0x1 SSTORE PUSH5 0xBA43B7400 PUSH1 0xA SSTORE CALLVALUE DUP1 ISZERO PUSH2 0x21 JUMPI PUSH0 DUP1 REVERT JUMPDEST POP CALLER PUSH1 0xE PUSH0 PUSH2 0x100 EXP DUP2 SLOAD DUP2 PUSH20 0xFFFFFFFFFFFFFFFFFFFFFFFFFFFFFFFFFFFFFFFF MUL NOT AND SWAP1 DUP4 PUSH20 0xFFFFFFFFFFFFFFFFFFFFFFFFFFFFFFFFFFFFFFFF AND MUL OR SWAP1 SSTORE POP PUSH2 0x808D DUP1 PUSH3 0x70 PUSH0 CODECOPY PUSH0 RETURN INVALID PUSH1 0x80 PUSH1 0x40 MSTORE PUSH1 0x4 CALLDATASIZE LT PUSH2 0x296 JUMPI PUSH0 CALLDATALOAD PUSH1 0xE0 SHR DUP1 PUSH4 0x8021E348 GT PUSH2 0x159 JUMPI DUP1 PUSH4 0xB1496CD4 GT PUSH2 0xC0 JUMPI DUP1 PUSH4 0xD6BC4A87 GT PUSH2 0x79 JUMPI DUP1 PUSH4 0xD6BC4A87 EQ PUSH2 0xA8D JUMPI DUP1 PUSH4 0xE327CBE2 EQ PUSH2 0xAC9 JUMPI DUP1 PUSH4 0xE4C8531A EQ PUSH2 0xB05 JUMPI DUP1 PUSH4 0xEA84C503 EQ PUSH2 0xB0F JUMPI DUP1 PUSH4 0xF2CF28D4 EQ PUSH2 0xB4B JUMPI DUP1 PUSH4 0xFE72AE13 EQ PUSH2 0xB73 JUMPI PUSH2 0x29D JUMP JUMPDEST DUP1 PUSH4 0xB1496CD4 EQ PUSH2 0x95D JUMPI DUP1 PUSH4 0xB23793D6 EQ PUSH2 0x999 JUMPI DUP1 PUSH4 0xB7013DC1 EQ PUSH2 0x9D5 JUMPI DUP1 PUSH4 0xC6E24C90 EQ PUSH2 0x9FF JUMPI DUP1 PUSH4 0xCD889944 EQ PUSH2 0xA3B JUMPI DUP1 PUSH4 0xD433B6FA EQ PUSH2 0xA65 JUMPI PUSH2 0x29D JUMP JUMPDEST DUP1 PUSH4 0x9C8A41AF GT PUSH2 0x112 JUMPI DUP1 PUSH4 0x9C8A41AF EQ PUSH2 0x83F JUMPI DUP1 PUSH4 0xA87430BA EQ PUSH2 0x87B JUMPI DUP1 PUSH4 0xA9910054 EQ PUSH2 0x8BB JUMPI DUP1 PUSH4 0xADA403A3 EQ PUSH2 0x8E3 JUMPI DUP1 PUSH4 0xADE13128 EQ PUSH2 0x8F9 JUMPI DUP1 PUSH4 0xAEB9C9A8 EQ PUSH2 0x935 JUMPI PUSH2 0x29D JUMP JUMPDEST DUP1 PUSH4 0x8021E348 EQ PUSH2 0x6FA JUMPI DUP1 PUSH4 0x8A61F4FB EQ PUSH2 0x724 JUMPI DUP1 PUSH4 0x8CFEAB35 EQ PUSH2 0x760 JUMPI DUP1 PUSH4 0x967C2BBD EQ PUSH2 0x79D JUMPI DUP1 PUSH4 0x97AF87D7 EQ PUSH2 0x7D9 JUMPI DUP1 PUSH4 0x9C705D0C EQ PUSH2 0x815 JUMPI PUSH2 0x29D JUMP JUMPDEST DUP1 PUSH4 0x38EADA1C GT PUSH2 0x1FD JUMPI DUP1 PUSH4 0x5DAEDE83 GT PUSH2 0x1B6 JUMPI DUP1 PUSH4 0x5DAEDE83 EQ PUSH2 0x5CA JUMPI DUP1 PUSH4 0x6296610B EQ PUSH2 0x5F2 JUMPI DUP1 PUSH4 0x64F93728 EQ PUSH2 0x62E JUMPI DUP1 PUSH4 0x6D3DBF16 EQ PUSH2 0x658 JUMPI DUP1 PUSH4 0x6F77926B EQ PUSH2 0x694 JUMPI DUP1 PUSH4 0x7EEBF1F9 EQ PUSH2 0x6D0 JUMPI PUSH2 0x29D JUMP JUMPDEST DUP1 PUSH4 0x38EADA1C EQ PUSH2 0x4C4 JUMPI DUP1 PUSH4 0x4AD7960F EQ PUSH2 0x4EC JUMPI DUP1 PUSH4 0x4D3820EB EQ PUSH2 0x514 JUMPI DUP1 PUSH4 0x583CAF96 EQ PUSH2 0x52A JUMPI DUP1 PUSH4 0x5844DE2B EQ PUSH2 0x566 JUMPI DUP1 PUSH4 0x58C626F7 EQ PUSH2 0x58E JUMPI PUSH2 0x29D JUMP JUMPDEST DUP1 PUSH4 0xD6E544B GT PUSH2 0x24F JUMPI DUP1 PUSH4 0xD6E544B EQ PUSH2 0x3A7 JUMPI DUP1 PUSH4 0x11BD77FE EQ PUSH2 0x3EA JUMPI DUP1 PUSH4 0x189A5A17 EQ PUSH2 0x406 JUMPI DUP1 PUSH4 0x2B08DA2E EQ PUSH2 0x444 JUMPI DUP1 PUSH4 0x30E00C9B EQ PUSH2 0x46C JUMPI DUP1 PUSH4 0x37D44C2A EQ PUSH2 0x4A8 JUMPI PUSH2 0x29D JUMP JUMPDEST DUP1 PUSH4 0x24BCF26 EQ PUSH2 0x2A1 JUMPI DUP1 PUSH4 0x5B1137B EQ PUSH2 0x2C9 JUMPI DUP1 PUSH4 0x7253839 EQ PUSH2 0x2F1 JUMPI DUP1 PUSH4 0x8AE4D38 EQ PUSH2 0x319 JUMPI DUP1 PUSH4 0xA743BA5 EQ PUSH2 0x355 JUMPI DUP1 PUSH4 0xB966AC3 EQ PUSH2 0x37D JUMPI PUSH2 0x29D JUMP JUMPDEST CALLDATASIZE PUSH2 0x29D JUMPI STOP JUMPDEST PUSH0 DUP1 REVERT JUMPDEST CALLVALUE DUP1 ISZERO PUSH2 0x2AC JUMPI PUSH0 DUP1 REVERT JUMPDEST POP PUSH2 0x2C7 PUSH1 0x4 DUP1 CALLDATASIZE SUB DUP2 ADD SWAP1 PUSH2 0x2C2 SWAP2 SWAP1 PUSH2 0x5BBD JUMP JUMPDEST PUSH2 0xBAF JUMP JUMPDEST STOP JUMPDEST CALLVALUE DUP1 ISZERO PUSH2 0x2D4 JUMPI PUSH0 DUP1 REVERT JUMPDEST POP PUSH2 0x2EF PUSH1 0x4 DUP1 CALLDATASIZE SUB DUP2 ADD SWAP1 PUSH2 0x2EA SWAP2 SWAP1 PUSH2 0x5D8C JUMP JUMPDEST PUSH2 0x134B JUMP JUMPDEST STOP JUMPDEST CALLVALUE DUP1 ISZERO PUSH2 0x2FC JUMPI PUSH0 DUP1 REVERT JUMPDEST POP PUSH2 0x317 PUSH1 0x4 DUP1 CALLDATASIZE SUB DUP2 ADD SWAP1 PUSH2 0x312 SWAP2 SWAP1 PUSH2 0x5E05 JUMP JUMPDEST PUSH2 0x143B JUMP JUMPDEST STOP JUMPDEST CALLVALUE DUP1 ISZERO PUSH2 0x324 JUMPI PUSH0 DUP1 REVERT JUMPDEST POP PUSH2 0x33F PUSH1 0x4 DUP1 CALLDATASIZE SUB DUP2 ADD SWAP1 PUSH2 0x33A SWAP2 SWAP1 PUSH2 0x5E43 JUMP JUMPDEST PUSH2 0x1449 JUMP JUMPDEST PUSH1 0x40 MLOAD PUSH2 0x34C SWAP2 SWAP1 PUSH2 0x5E7D JUMP JUMPDEST PUSH1 0x40 MLOAD DUP1 SWAP2 SUB SWAP1 RETURN JUMPDEST CALLVALUE DUP1 ISZERO PUSH2 0x360 JUMPI PUSH0 DUP1 REVERT JUMPDEST POP PUSH2 0x37B PUSH1 0x4 DUP1 CALLDATASIZE SUB DUP2 ADD SWAP1 PUSH2 0x376 SWAP2 SWAP1 PUSH2 0x5E96 JUMP JUMPDEST PUSH2 0x1484 JUMP JUMPDEST STOP JUMPDEST CALLVALUE DUP1 ISZERO PUSH2 0x388 JUMPI PUSH0 DUP1 REVERT JUMPDEST POP PUSH2 0x391 PUSH2 0x1496 JUMP JUMPDEST PUSH1 0x40 MLOAD PUSH2 0x39E SWAP2 SWAP1 PUSH2 0x5F41 JUMP JUMPDEST PUSH1 0x40 MLOAD DUP1 SWAP2 SUB SWAP1 RETURN JUMPDEST CALLVALUE DUP1 ISZERO PUSH2 0x3B2 JUMPI PUSH0 DUP1 REVERT JUMPDEST POP PUSH2 0x3CD PUSH1 0x4 DUP1 CALLDATASIZE SUB DUP2 ADD SWAP1 PUSH2 0x3C8 SWAP2 SWAP1 PUSH2 0x5E05 JUMP JUMPDEST PUSH2 0x1568 JUMP JUMPDEST PUSH1 0x40 MLOAD PUSH2 0x3E1 SWAP9 SWAP8 SWAP7 SWAP6 SWAP5 SWAP4 SWAP3 SWAP2 SWAP1 PUSH2 0x5FD4 JUMP JUMPDEST PUSH1 0x40 MLOAD DUP1 SWAP2 SUB SWAP1 RETURN JUMPDEST PUSH2 0x404 PUSH1 0x4 DUP1 CALLDATASIZE SUB DUP2 ADD SWAP1 PUSH2 0x3FF SWAP2 SWAP1 PUSH2 0x5E05 JUMP JUMPDEST PUSH2 0x1883 JUMP JUMPDEST STOP JUMPDEST CALLVALUE DUP1 ISZERO PUSH2 0x411 JUMPI PUSH0 DUP1 REVERT JUMPDEST POP PUSH2 0x42C PUSH1 0x4 DUP1 CALLDATASIZE SUB DUP2 ADD SWAP1 PUSH2 0x427 SWAP2 SWAP1 PUSH2 0x6073 JUMP JUMPDEST PUSH2 0x1B02 JUMP JUMPDEST PUSH1 0x40 MLOAD PUSH2 0x43B SWAP4 SWAP3 SWAP2 SWAP1 PUSH2 0x609E JUMP JUMPDEST PUSH1 0x40 MLOAD DUP1 SWAP2 SUB SWAP1 RETURN JUMPDEST CALLVALUE DUP1 ISZERO PUSH2 0x44F JUMPI PUSH0 DUP1 REVERT JUMPDEST POP PUSH2 0x46A PUSH1 0x4 DUP1 CALLDATASIZE SUB DUP2 ADD SWAP1 PUSH2 0x465 SWAP2 SWAP1 PUSH2 0x6073 JUMP JUMPDEST PUSH2 0x1B47 JUMP JUMPDEST STOP JUMPDEST CALLVALUE DUP1 ISZERO PUSH2 0x477 JUMPI PUSH0 DUP1 REVERT JUMPDEST POP PUSH2 0x492 PUSH1 0x4 DUP1 CALLDATASIZE SUB DUP2 ADD SWAP1 PUSH2 0x48D SWAP2 SWAP1 PUSH2 0x60D3 JUMP JUMPDEST PUSH2 0x1D56 JUMP JUMPDEST PUSH1 0x40 MLOAD PUSH2 0x49F SWAP2 SWAP1 PUSH2 0x5E7D JUMP JUMPDEST PUSH1 0x40 MLOAD DUP1 SWAP2 SUB SWAP1 RETURN JUMPDEST PUSH2 0x4C2 PUSH1 0x4 DUP1 CALLDATASIZE SUB DUP2 ADD SWAP1 PUSH2 0x4BD SWAP2 SWAP1 PUSH2 0x6150 JUMP JUMPDEST PUSH2 0x1DB6 JUMP JUMPDEST STOP JUMPDEST CALLVALUE DUP1 ISZERO PUSH2 0x4CF JUMPI PUSH0 DUP1 REVERT JUMPDEST POP PUSH2 0x4EA PUSH1 0x4 DUP1 CALLDATASIZE SUB DUP2 ADD SWAP1 PUSH2 0x4E5 SWAP2 SWAP1 PUSH2 0x6073 JUMP JUMPDEST PUSH2 0x22E9 JUMP JUMPDEST STOP JUMPDEST CALLVALUE DUP1 ISZERO PUSH2 0x4F7 JUMPI PUSH0 DUP1 REVERT JUMPDEST POP PUSH2 0x512 PUSH1 0x4 DUP1 CALLDATASIZE SUB DUP2 ADD SWAP1 PUSH2 0x50D SWAP2 SWAP1 PUSH2 0x5E05 JUMP JUMPDEST PUSH2 0x235A JUMP JUMPDEST STOP JUMPDEST CALLVALUE DUP1 ISZERO PUSH2 0x51F JUMPI PUSH0 DUP1 REVERT JUMPDEST POP PUSH2 0x528 PUSH2 0x2368 JUMP JUMPDEST STOP JUMPDEST CALLVALUE DUP1 ISZERO PUSH2 0x535 JUMPI PUSH0 DUP1 REVERT JUMPDEST POP PUSH2 0x550 PUSH1 0x4 DUP1 CALLDATASIZE SUB DUP2 ADD SWAP1 PUSH2 0x54B SWAP2 SWAP1 PUSH2 0x617B JUMP JUMPDEST PUSH2 0x251E JUMP JUMPDEST PUSH1 0x40 MLOAD PUSH2 0x55D SWAP2 SWAP1 PUSH2 0x64AF JUMP JUMPDEST PUSH1 0x40 MLOAD DUP1 SWAP2 SUB SWAP1 RETURN JUMPDEST CALLVALUE DUP1 ISZERO PUSH2 0x571 JUMPI PUSH0 DUP1 REVERT JUMPDEST POP PUSH2 0x58C PUSH1 0x4 DUP1 CALLDATASIZE SUB DUP2 ADD SWAP1 PUSH2 0x587 SWAP2 SWAP1 PUSH2 0x6073 JUMP JUMPDEST PUSH2 0x2951 JUMP JUMPDEST STOP JUMPDEST CALLVALUE DUP1 ISZERO PUSH2 0x599 JUMPI PUSH0 DUP1 REVERT JUMPDEST POP PUSH2 0x5B4 PUSH1 0x4 DUP1 CALLDATASIZE SUB DUP2 ADD SWAP1 PUSH2 0x5AF SWAP2 SWAP1 PUSH2 0x6073 JUMP JUMPDEST PUSH2 0x2AB2 JUMP JUMPDEST PUSH1 0x40 MLOAD PUSH2 0x5C1 SWAP2 SWAP1 PUSH2 0x64E9 JUMP JUMPDEST PUSH1 0x40 MLOAD DUP1 SWAP2 SUB SWAP1 RETURN JUMPDEST CALLVALUE DUP1 ISZERO PUSH2 0x5D5 JUMPI PUSH0 DUP1 REVERT JUMPDEST POP PUSH2 0x5F0 PUSH1 0x4 DUP1 CALLDATASIZE SUB DUP2 ADD SWAP1 PUSH2 0x5EB SWAP2 SWAP1 PUSH2 0x6073 JUMP JUMPDEST PUSH2 0x2ACF JUMP JUMPDEST STOP JUMPDEST CALLVALUE DUP1 ISZERO PUSH2 0x5FD JUMPI PUSH0 DUP1 REVERT JUMPDEST POP PUSH2 0x618 PUSH1 0x4 DUP1 CALLDATASIZE SUB DUP2 ADD SWAP1 PUSH2 0x613 SWAP2 SWAP1 PUSH2 0x617B JUMP JUMPDEST PUSH2 0x2B61 JUMP JUMPDEST PUSH1 0x40 MLOAD PUSH2 0x625 SWAP2 SWAP1 PUSH2 0x6502 JUMP JUMPDEST PUSH1 0x40 MLOAD DUP1 SWAP2 SUB SWAP1 RETURN JUMPDEST CALLVALUE DUP1 ISZERO PUSH2 0x639 JUMPI PUSH0 DUP1 REVERT JUMPDEST POP PUSH2 0x642 PUSH2 0x2B73 JUMP JUMPDEST PUSH1 0x40 MLOAD PUSH2 0x64F SWAP2 SWAP1 PUSH2 0x65DD JUMP JUMPDEST PUSH1 0x40 MLOAD DUP1 SWAP2 SUB SWAP1 RETURN JUMPDEST CALLVALUE DUP1 ISZERO PUSH2 0x663 JUMPI PUSH0 DUP1 REVERT JUMPDEST POP PUSH2 0x67E PUSH1 0x4 DUP1 CALLDATASIZE SUB DUP2 ADD SWAP1 PUSH2 0x679 SWAP2 SWAP1 PUSH2 0x6073 JUMP JUMPDEST PUSH2 0x2B82 JUMP JUMPDEST PUSH1 0x40 MLOAD PUSH2 0x68B SWAP2 SWAP1 PUSH2 0x64E9 JUMP JUMPDEST PUSH1 0x40 MLOAD DUP1 SWAP2 SUB SWAP1 RETURN JUMPDEST CALLVALUE DUP1 ISZERO PUSH2 0x69F JUMPI PUSH0 DUP1 REVERT JUMPDEST POP PUSH2 0x6BA PUSH1 0x4 DUP1 CALLDATASIZE SUB DUP2 ADD SWAP1 PUSH2 0x6B5 SWAP2 SWAP1 PUSH2 0x6073 JUMP JUMPDEST PUSH2 0x2BD4 JUMP JUMPDEST PUSH1 0x40 MLOAD PUSH2 0x6C7 SWAP2 SWAP1 PUSH2 0x66E5 JUMP JUMPDEST PUSH1 0x40 MLOAD DUP1 SWAP2 SUB SWAP1 RETURN JUMPDEST CALLVALUE DUP1 ISZERO PUSH2 0x6DB JUMPI PUSH0 DUP1 REVERT JUMPDEST POP PUSH2 0x6E4 PUSH2 0x2D27 JUMP JUMPDEST PUSH1 0x40 MLOAD PUSH2 0x6F1 SWAP2 SWAP1 PUSH2 0x5F41 JUMP JUMPDEST PUSH1 0x40 MLOAD DUP1 SWAP2 SUB SWAP1 RETURN JUMPDEST CALLVALUE DUP1 ISZERO PUSH2 0x705 JUMPI PUSH0 DUP1 REVERT JUMPDEST POP PUSH2 0x70E PUSH2 0x2D2E JUMP JUMPDEST PUSH1 0x40 MLOAD PUSH2 0x71B SWAP2 SWAP1 PUSH2 0x670D JUMP JUMPDEST PUSH1 0x40 MLOAD DUP1 SWAP2 SUB SWAP1 RETURN JUMPDEST CALLVALUE DUP1 ISZERO PUSH2 0x72F JUMPI PUSH0 DUP1 REVERT JUMPDEST POP PUSH2 0x74A PUSH1 0x4 DUP1 CALLDATASIZE SUB DUP2 ADD SWAP1 PUSH2 0x745 SWAP2 SWAP1 PUSH2 0x5E43 JUMP JUMPDEST PUSH2 0x2E0C JUMP JUMPDEST PUSH1 0x40 MLOAD PUSH2 0x757 SWAP2 SWAP1 PUSH2 0x5F41 JUMP JUMPDEST PUSH1 0x40 MLOAD DUP1 SWAP2 SUB SWAP1 RETURN JUMPDEST CALLVALUE DUP1 ISZERO PUSH2 0x76B JUMPI PUSH0 DUP1 REVERT JUMPDEST POP PUSH2 0x786 PUSH1 0x4 DUP1 CALLDATASIZE SUB DUP2 ADD SWAP1 PUSH2 0x781 SWAP2 SWAP1 PUSH2 0x5E05 JUMP JUMPDEST PUSH2 0x2E24 JUMP JUMPDEST PUSH1 0x40 MLOAD PUSH2 0x794 SWAP3 SWAP2 SWAP1 PUSH2 0x6726 JUMP JUMPDEST PUSH1 0x40 MLOAD DUP1 SWAP2 SUB SWAP1 RETURN JUMPDEST CALLVALUE DUP1 ISZERO PUSH2 0x7A8 JUMPI PUSH0 DUP1 REVERT JUMPDEST POP PUSH2 0x7C3 PUSH1 0x4 DUP1 CALLDATASIZE SUB DUP2 ADD SWAP1 PUSH2 0x7BE SWAP2 SWAP1 PUSH2 0x617B JUMP JUMPDEST PUSH2 0x2E5E JUMP JUMPDEST PUSH1 0x40 MLOAD PUSH2 0x7D0 SWAP2 SWAP1 PUSH2 0x67B9 JUMP JUMPDEST PUSH1 0x40 MLOAD DUP1 SWAP2 SUB SWAP1 RETURN JUMPDEST CALLVALUE DUP1 ISZERO PUSH2 0x7E4 JUMPI PUSH0 DUP1 REVERT JUMPDEST POP PUSH2 0x7FF PUSH1 0x4 DUP1 CALLDATASIZE SUB DUP2 ADD SWAP1 PUSH2 0x7FA SWAP2 SWAP1 PUSH2 0x5E43 JUMP JUMPDEST PUSH2 0x2E70 JUMP JUMPDEST PUSH1 0x40 MLOAD PUSH2 0x80C SWAP2 SWAP1 PUSH2 0x5E7D JUMP JUMPDEST PUSH1 0x40 MLOAD DUP1 SWAP2 SUB SWAP1 RETURN JUMPDEST CALLVALUE DUP1 ISZERO PUSH2 0x820 JUMPI PUSH0 DUP1 REVERT JUMPDEST POP PUSH2 0x829 PUSH2 0x2EAB JUMP JUMPDEST PUSH1 0x40 MLOAD PUSH2 0x836 SWAP2 SWAP1 PUSH2 0x5F41 JUMP JUMPDEST PUSH1 0x40 MLOAD DUP1 SWAP2 SUB SWAP1 RETURN JUMPDEST CALLVALUE DUP1 ISZERO PUSH2 0x84A JUMPI PUSH0 DUP1 REVERT JUMPDEST POP PUSH2 0x865 PUSH1 0x4 DUP1 CALLDATASIZE SUB DUP2 ADD SWAP1 PUSH2 0x860 SWAP2 SWAP1 PUSH2 0x67D9 JUMP JUMPDEST PUSH2 0x2EB2 JUMP JUMPDEST PUSH1 0x40 MLOAD PUSH2 0x872 SWAP2 SWAP1 PUSH2 0x64E9 JUMP JUMPDEST PUSH1 0x40 MLOAD DUP1 SWAP2 SUB SWAP1 RETURN JUMPDEST CALLVALUE DUP1 ISZERO PUSH2 0x886 JUMPI PUSH0 DUP1 REVERT JUMPDEST POP PUSH2 0x8A1 PUSH1 0x4 DUP1 CALLDATASIZE SUB DUP2 ADD SWAP1 PUSH2 0x89C SWAP2 SWAP1 PUSH2 0x6073 JUMP JUMPDEST PUSH2 0x2EC5 JUMP JUMPDEST PUSH1 0x40 MLOAD PUSH2 0x8B2 SWAP6 SWAP5 SWAP4 SWAP3 SWAP2 SWAP1 PUSH2 0x684F JUMP JUMPDEST PUSH1 0x40 MLOAD DUP1 SWAP2 SUB SWAP1 RETURN JUMPDEST CALLVALUE DUP1 ISZERO PUSH2 0x8C6 JUMPI PUSH0 DUP1 REVERT JUMPDEST POP PUSH2 0x8E1 PUSH1 0x4 DUP1 CALLDATASIZE SUB DUP2 ADD SWAP1 PUSH2 0x8DC SWAP2 SWAP1 PUSH2 0x617B JUMP JUMPDEST PUSH2 0x2F0F JUMP JUMPDEST STOP JUMPDEST CALLVALUE DUP1 ISZERO PUSH2 0x8EE JUMPI PUSH0 DUP1 REVERT JUMPDEST POP PUSH2 0x8F7 PUSH2 0x382D JUMP JUMPDEST STOP JUMPDEST CALLVALUE DUP1 ISZERO PUSH2 0x904 JUMPI PUSH0 DUP1 REVERT JUMPDEST POP PUSH2 0x91F PUSH1 0x4 DUP1 CALLDATASIZE SUB DUP2 ADD SWAP1 PUSH2 0x91A SWAP2 SWAP1 PUSH2 0x5E43 JUMP JUMPDEST PUSH2 0x39A2 JUMP JUMPDEST PUSH1 0x40 MLOAD PUSH2 0x92C SWAP2 SWAP1 PUSH2 0x5F41 JUMP JUMPDEST PUSH1 0x40 MLOAD DUP1 SWAP2 SUB SWAP1 RETURN JUMPDEST CALLVALUE DUP1 ISZERO PUSH2 0x940 JUMPI PUSH0 DUP1 REVERT JUMPDEST POP PUSH2 0x95B PUSH1 0x4 DUP1 CALLDATASIZE SUB DUP2 ADD SWAP1 PUSH2 0x956 SWAP2 SWAP1 PUSH2 0x68A0 JUMP JUMPDEST PUSH2 0x39C7 JUMP JUMPDEST STOP JUMPDEST CALLVALUE DUP1 ISZERO PUSH2 0x968 JUMPI PUSH0 DUP1 REVERT JUMPDEST POP PUSH2 0x983 PUSH1 0x4 DUP1 CALLDATASIZE SUB DUP2 ADD SWAP1 PUSH2 0x97E SWAP2 SWAP1 PUSH2 0x67D9 JUMP JUMPDEST PUSH2 0x39DD JUMP JUMPDEST PUSH1 0x40 MLOAD PUSH2 0x990 SWAP2 SWAP1 PUSH2 0x64E9 JUMP JUMPDEST PUSH1 0x40 MLOAD DUP1 SWAP2 SUB SWAP1 RETURN JUMPDEST CALLVALUE DUP1 ISZERO PUSH2 0x9A4 JUMPI PUSH0 DUP1 REVERT JUMPDEST POP PUSH2 0x9BF PUSH1 0x4 DUP1 CALLDATASIZE SUB DUP2 ADD SWAP1 PUSH2 0x9BA SWAP2 SWAP1 PUSH2 0x617B JUMP JUMPDEST PUSH2 0x3A35 JUMP JUMPDEST PUSH1 0x40 MLOAD PUSH2 0x9CC SWAP2 SWAP1 PUSH2 0x67B9 JUMP JUMPDEST PUSH1 0x40 MLOAD DUP1 SWAP2 SUB SWAP1 RETURN JUMPDEST CALLVALUE DUP1 ISZERO PUSH2 0x9E0 JUMPI PUSH0 DUP1 REVERT JUMPDEST POP PUSH2 0x9E9 PUSH2 0x3CC8 JUMP JUMPDEST PUSH1 0x40 MLOAD PUSH2 0x9F6 SWAP2 SWAP1 PUSH2 0x5F41 JUMP JUMPDEST PUSH1 0x40 MLOAD DUP1 SWAP2 SUB SWAP1 RETURN JUMPDEST CALLVALUE DUP1 ISZERO PUSH2 0xA0A JUMPI PUSH0 DUP1 REVERT JUMPDEST POP PUSH2 0xA25 PUSH1 0x4 DUP1 CALLDATASIZE SUB DUP2 ADD SWAP1 PUSH2 0xA20 SWAP2 SWAP1 PUSH2 0x6A75 JUMP JUMPDEST PUSH2 0x3CCF JUMP JUMPDEST PUSH1 0x40 MLOAD PUSH2 0xA32 SWAP2 SWAP1 PUSH2 0x5E7D JUMP JUMPDEST PUSH1 0x40 MLOAD DUP1 SWAP2 SUB SWAP1 RETURN JUMPDEST CALLVALUE DUP1 ISZERO PUSH2 0xA46 JUMPI PUSH0 DUP1 REVERT JUMPDEST POP PUSH2 0xA4F PUSH2 0x3EA7 JUMP JUMPDEST PUSH1 0x40 MLOAD PUSH2 0xA5C SWAP2 SWAP1 PUSH2 0x67B9 JUMP JUMPDEST PUSH1 0x40 MLOAD DUP1 SWAP2 SUB SWAP1 RETURN JUMPDEST CALLVALUE DUP1 ISZERO PUSH2 0xA70 JUMPI PUSH0 DUP1 REVERT JUMPDEST POP PUSH2 0xA8B PUSH1 0x4 DUP1 CALLDATASIZE SUB DUP2 ADD SWAP1 PUSH2 0xA86 SWAP2 SWAP1 PUSH2 0x617B JUMP JUMPDEST PUSH2 0x3EB6 JUMP JUMPDEST STOP JUMPDEST CALLVALUE DUP1 ISZERO PUSH2 0xA98 JUMPI PUSH0 DUP1 REVERT JUMPDEST POP PUSH2 0xAB3 PUSH1 0x4 DUP1 CALLDATASIZE SUB DUP2 ADD SWAP1 PUSH2 0xAAE SWAP2 SWAP1 PUSH2 0x6073 JUMP JUMPDEST PUSH2 0x3EC2 JUMP JUMPDEST PUSH1 0x40 MLOAD PUSH2 0xAC0 SWAP2 SWAP1 PUSH2 0x6B0F JUMP JUMPDEST PUSH1 0x40 MLOAD DUP1 SWAP2 SUB SWAP1 RETURN JUMPDEST CALLVALUE DUP1 ISZERO PUSH2 0xAD4 JUMPI PUSH0 DUP1 REVERT JUMPDEST POP PUSH2 0xAEF PUSH1 0x4 DUP1 CALLDATASIZE SUB DUP2 ADD SWAP1 PUSH2 0xAEA SWAP2 SWAP1 PUSH2 0x5E05 JUMP JUMPDEST PUSH2 0x3EDA JUMP JUMPDEST PUSH1 0x40 MLOAD PUSH2 0xAFC SWAP2 SWAP1 PUSH2 0x5F41 JUMP JUMPDEST PUSH1 0x40 MLOAD DUP1 SWAP2 SUB SWAP1 RETURN JUMPDEST PUSH2 0xB0D PUSH2 0x3F05 JUMP JUMPDEST STOP JUMPDEST CALLVALUE DUP1 ISZERO PUSH2 0xB1A JUMPI PUSH0 DUP1 REVERT JUMPDEST POP PUSH2 0xB35 PUSH1 0x4 DUP1 CALLDATASIZE SUB DUP2 ADD SWAP1 PUSH2 0xB30 SWAP2 SWAP1 PUSH2 0x60D3 JUMP JUMPDEST PUSH2 0x40AE JUMP JUMPDEST PUSH1 0x40 MLOAD PUSH2 0xB42 SWAP2 SWAP1 PUSH2 0x6502 JUMP JUMPDEST PUSH1 0x40 MLOAD DUP1 SWAP2 SUB SWAP1 RETURN JUMPDEST CALLVALUE DUP1 ISZERO PUSH2 0xB56 JUMPI PUSH0 DUP1 REVERT JUMPDEST POP PUSH2 0xB71 PUSH1 0x4 DUP1 CALLDATASIZE SUB DUP2 ADD SWAP1 PUSH2 0xB6C SWAP2 SWAP1 PUSH2 0x67D9 JUMP JUMPDEST PUSH2 0x4177 JUMP JUMPDEST STOP JUMPDEST CALLVALUE DUP1 ISZERO PUSH2 0xB7E JUMPI PUSH0 DUP1 REVERT JUMPDEST POP PUSH2 0xB99 PUSH1 0x4 DUP1 CALLDATASIZE SUB DUP2 ADD SWAP1 PUSH2 0xB94 SWAP2 SWAP1 PUSH2 0x5E43 JUMP JUMPDEST PUSH2 0x4185 JUMP JUMPDEST PUSH1 0x40 MLOAD PUSH2 0xBA6 SWAP2 SWAP1 PUSH2 0x5E7D JUMP JUMPDEST PUSH1 0x40 MLOAD DUP1 SWAP2 SUB SWAP1 RETURN JUMPDEST PUSH0 PUSH1 0x5 DUP1 SLOAD SWAP1 POP EQ ISZERO PUSH1 0x40 MLOAD DUP1 PUSH1 0x60 ADD PUSH1 0x40 MSTORE DUP1 PUSH1 0x23 DUP2 MSTORE PUSH1 0x20 ADD PUSH2 0x7F55 PUSH1 0x23 SWAP2 CODECOPY SWAP1 PUSH2 0xC12 JUMPI PUSH1 0x40 MLOAD PUSH32 0x8C379A000000000000000000000000000000000000000000000000000000000 DUP2 MSTORE PUSH1 0x4 ADD PUSH2 0xC09 SWAP2 SWAP1 PUSH2 0x6502 JUMP JUMPDEST PUSH1 0x40 MLOAD DUP1 SWAP2 SUB SWAP1 REVERT JUMPDEST POP DUP8 MLOAD DUP2 MLOAD EQ PUSH1 0x40 MLOAD DUP1 PUSH1 0x40 ADD PUSH1 0x40 MSTORE DUP1 PUSH1 0x19 DUP2 MSTORE PUSH1 0x20 ADD PUSH32 0x73746F726546696C653A20496E76616C6964206368756E6B7300000000000000 DUP2 MSTORE POP SWAP1 PUSH2 0xC8F JUMPI PUSH1 0x40 MLOAD PUSH32 0x8C379A000000000000000000000000000000000000000000000000000000000 DUP2 MSTORE PUSH1 0x4 ADD PUSH2 0xC86 SWAP2 SWAP1 PUSH2 0x6502 JUMP JUMPDEST PUSH1 0x40 MLOAD DUP1 SWAP2 SUB SWAP1 REVERT JUMPDEST POP PUSH0 PUSH2 0xC9A DUP6 PUSH2 0x41C0 JUMP JUMPDEST MLOAD GT ISZERO PUSH1 0x40 MLOAD DUP1 PUSH1 0x40 ADD PUSH1 0x40 MSTORE DUP1 PUSH1 0x1C DUP2 MSTORE PUSH1 0x20 ADD PUSH32 0x73746F726546696C653A204475706C69636174652046696C6520496400000000 DUP2 MSTORE POP SWAP1 PUSH2 0xD14 JUMPI PUSH1 0x40 MLOAD PUSH32 0x8C379A000000000000000000000000000000000000000000000000000000000 DUP2 MSTORE PUSH1 0x4 ADD PUSH2 0xD0B SWAP2 SWAP1 PUSH2 0x6502 JUMP JUMPDEST PUSH1 0x40 MLOAD DUP1 SWAP2 SUB SWAP1 REVERT JUMPDEST POP PUSH1 0xB PUSH0 CALLER PUSH20 0xFFFFFFFFFFFFFFFFFFFFFFFFFFFFFFFFFFFFFFFF AND PUSH20 0xFFFFFFFFFFFFFFFFFFFFFFFFFFFFFFFFFFFFFFFF AND DUP2 MSTORE PUSH1 0x20 ADD SWAP1 DUP2 MSTORE PUSH1 0x20 ADD PUSH0 KECCAK256 PUSH1 0x1 ADD SLOAD PUSH1 0xB PUSH0 CALLER PUSH20 0xFFFFFFFFFFFFFFFFFFFFFFFFFFFFFFFFFFFFFFFF AND PUSH20 0xFFFFFFFFFFFFFFFFFFFFFFFFFFFFFFFFFFFFFFFF AND DUP2 MSTORE PUSH1 0x20 ADD SWAP1 DUP2 MSTORE PUSH1 0x20 ADD PUSH0 KECCAK256 PUSH1 0x2 ADD SLOAD DUP5 PUSH2 0xDA2 SWAP2 SWAP1 PUSH2 0x6B55 JUMP JUMPDEST GT ISZERO PUSH2 0xDE3 JUMPI PUSH1 0x40 MLOAD PUSH32 0x8C379A000000000000000000000000000000000000000000000000000000000 DUP2 MSTORE PUSH1 0x4 ADD PUSH2 0xDDA SWAP1 PUSH2 0x6BD2 JUMP JUMPDEST PUSH1 0x40 MLOAD DUP1 SWAP2 SUB SWAP1 REVERT JUMPDEST PUSH1 0x2 DUP1 DUP2 GT ISZERO PUSH2 0xDF6 JUMPI PUSH2 0xDF5 PUSH2 0x660C JUMP JUMPDEST JUMPDEST PUSH1 0xB PUSH0 CALLER PUSH20 0xFFFFFFFFFFFFFFFFFFFFFFFFFFFFFFFFFFFFFFFF AND PUSH20 0xFFFFFFFFFFFFFFFFFFFFFFFFFFFFFFFFFFFFFFFF AND DUP2 MSTORE PUSH1 0x20 ADD SWAP1 DUP2 MSTORE PUSH1 0x20 ADD PUSH0 KECCAK256 PUSH0 ADD PUSH1 0x1 SWAP1 SLOAD SWAP1 PUSH2 0x100 EXP SWAP1 DIV PUSH1 0xFF AND PUSH1 0x2 DUP2 GT ISZERO PUSH2 0xE55 JUMPI PUSH2 0xE54 PUSH2 0x660C JUMP JUMPDEST JUMPDEST SUB PUSH2 0xEF5 JUMPI PUSH2 0xE63 CALLER PUSH2 0x42B1 JUMP JUMPDEST PUSH1 0xB PUSH0 CALLER PUSH20 0xFFFFFFFFFFFFFFFFFFFFFFFFFFFFFFFFFFFFFFFF AND PUSH20 0xFFFFFFFFFFFFFFFFFFFFFFFFFFFFFFFFFFFFFFFF AND DUP2 MSTORE PUSH1 0x20 ADD SWAP1 DUP2 MSTORE PUSH1 0x20 ADD PUSH0 KECCAK256 PUSH1 0x2 ADD SLOAD DUP5 PUSH2 0xEAF SWAP2 SWAP1 PUSH2 0x6B55 JUMP JUMPDEST GT ISZERO PUSH2 0xEF0 JUMPI PUSH1 0x40 MLOAD PUSH32 0x8C379A000000000000000000000000000000000000000000000000000000000 DUP2 MSTORE PUSH1 0x4 ADD PUSH2 0xEE7 SWAP1 PUSH2 0x6C60 JUMP JUMPDEST PUSH1 0x40 MLOAD DUP1 SWAP2 SUB SWAP1 REVERT JUMPDEST PUSH2 0x10D9 JUMP JUMPDEST PUSH1 0x1 PUSH1 0x2 DUP2 GT ISZERO PUSH2 0xF09 JUMPI PUSH2 0xF08 PUSH2 0x660C JUMP JUMPDEST JUMPDEST PUSH1 0xB PUSH0 CALLER PUSH20 0xFFFFFFFFFFFFFFFFFFFFFFFFFFFFFFFFFFFFFFFF AND PUSH20 0xFFFFFFFFFFFFFFFFFFFFFFFFFFFFFFFFFFFFFFFF AND DUP2 MSTORE PUSH1 0x20 ADD SWAP1 DUP2 MSTORE PUSH1 0x20 ADD PUSH0 KECCAK256 PUSH0 ADD PUSH1 0x1 SWAP1 SLOAD SWAP1 PUSH2 0x100 EXP SWAP1 DIV PUSH1 0xFF AND PUSH1 0x2 DUP2 GT ISZERO PUSH2 0xF68 JUMPI PUSH2 0xF67 PUSH2 0x660C JUMP JUMPDEST JUMPDEST SUB PUSH2 0x1040 JUMPI PUSH1 0xB PUSH0 CALLER PUSH20 0xFFFFFFFFFFFFFFFFFFFFFFFFFFFFFFFFFFFFFFFF AND PUSH20 0xFFFFFFFFFFFFFFFFFFFFFFFFFFFFFFFFFFFFFFFF AND DUP2 MSTORE PUSH1 0x20 ADD SWAP1 DUP2 MSTORE PUSH1 0x20 ADD PUSH0 KECCAK256 PUSH1 0x1 ADD SLOAD PUSH1 0xB PUSH0 CALLER PUSH20 0xFFFFFFFFFFFFFFFFFFFFFFFFFFFFFFFFFFFFFFFF AND PUSH20 0xFFFFFFFFFFFFFFFFFFFFFFFFFFFFFFFFFFFFFFFF AND DUP2 MSTORE PUSH1 0x20 ADD SWAP1 DUP2 MSTORE PUSH1 0x20 ADD PUSH0 KECCAK256 PUSH1 0x2 ADD SLOAD DUP5 PUSH2 0xFFA SWAP2 SWAP1 PUSH2 0x6B55 JUMP JUMPDEST GT ISZERO PUSH2 0x103B JUMPI PUSH1 0x40 MLOAD PUSH32 0x8C379A000000000000000000000000000000000000000000000000000000000 DUP2 MSTORE PUSH1 0x4 ADD PUSH2 0x1032 SWAP1 PUSH2 0x6CEE JUMP JUMPDEST PUSH1 0x40 MLOAD DUP1 SWAP2 SUB SWAP1 REVERT JUMPDEST PUSH2 0x10D8 JUMP JUMPDEST PUSH2 0x104A PUSH1 0x1 PUSH2 0x39A2 JUMP JUMPDEST PUSH1 0xB PUSH0 CALLER PUSH20 0xFFFFFFFFFFFFFFFFFFFFFFFFFFFFFFFFFFFFFFFF AND PUSH20 0xFFFFFFFFFFFFFFFFFFFFFFFFFFFFFFFFFFFFFFFF AND DUP2 MSTORE PUSH1 0x20 ADD SWAP1 DUP2 MSTORE PUSH1 0x20 ADD PUSH0 KECCAK256 PUSH1 0x2 ADD SLOAD DUP5 PUSH2 0x1096 SWAP2 SWAP1 PUSH2 0x6B55 JUMP JUMPDEST GT ISZERO PUSH2 0x10D7 JUMPI PUSH1 0x40 MLOAD PUSH32 0x8C379A000000000000000000000000000000000000000000000000000000000 DUP2 MSTORE PUSH1 0x4 ADD PUSH2 0x10CE SWAP1 PUSH2 0x6D7C JUMP JUMPDEST PUSH1 0x40 MLOAD DUP1 SWAP2 SUB SWAP1 REVERT JUMPDEST JUMPDEST JUMPDEST PUSH0 JUMPDEST DUP9 MLOAD DUP2 LT ISZERO PUSH2 0x1312 JUMPI PUSH1 0xF PUSH0 PUSH2 0x10F1 SWAP2 SWAP1 PUSH2 0x572A JUMP JUMPDEST PUSH0 DUP3 DUP3 DUP2 MLOAD DUP2 LT PUSH2 0x1105 JUMPI PUSH2 0x1104 PUSH2 0x6D9A JUMP JUMPDEST JUMPDEST PUSH1 0x20 MUL PUSH1 0x20 ADD ADD MLOAD SWAP1 POP PUSH0 DUP11 DUP4 DUP2 MLOAD DUP2 LT PUSH2 0x1123 JUMPI PUSH2 0x1122 PUSH2 0x6D9A JUMP JUMPDEST JUMPDEST PUSH1 0x20 MUL PUSH1 0x20 ADD ADD MLOAD SWAP1 POP PUSH0 DUP1 DUP1 SLOAD SWAP1 POP PUSH1 0x11 DUP10 PUSH1 0x40 MLOAD PUSH2 0x1143 SWAP2 SWAP1 PUSH2 0x6E01 JUMP JUMPDEST SWAP1 DUP2 MSTORE PUSH1 0x20 ADD PUSH1 0x40 MLOAD DUP1 SWAP2 SUB SWAP1 KECCAK256 DUP5 SWAP1 DUP1 PUSH1 0x1 DUP2 SLOAD ADD DUP1 DUP3 SSTORE DUP1 SWAP2 POP POP PUSH1 0x1 SWAP1 SUB SWAP1 PUSH0 MSTORE PUSH1 0x20 PUSH0 KECCAK256 ADD PUSH0 SWAP1 SWAP2 SWAP1 SWAP2 SWAP1 SWAP2 POP SWAP1 DUP2 PUSH2 0x1180 SWAP2 SWAP1 PUSH2 0x7011 JUMP JUMPDEST POP PUSH1 0x3 PUSH1 0x5 DUP1 SLOAD SWAP1 POP LT ISZERO PUSH2 0x1198 JUMPI PUSH1 0x5 DUP1 SLOAD SWAP1 POP SWAP1 POP JUMPDEST JUMPDEST DUP1 DUP3 LT ISZERO PUSH2 0x1301 JUMPI PUSH0 PUSH2 0x122F DUP5 PUSH1 0xF DUP1 SLOAD DUP1 PUSH1 0x20 MUL PUSH1 0x20 ADD PUSH1 0x40 MLOAD SWAP1 DUP2 ADD PUSH1 0x40 MSTORE DUP1 SWAP3 SWAP2 SWAP1 DUP2 DUP2 MSTORE PUSH1 0x20 ADD DUP3 DUP1 SLOAD DUP1 ISZERO PUSH2 0x1225 JUMPI PUSH1 0x20 MUL DUP3 ADD SWAP2 SWAP1 PUSH0 MSTORE PUSH1 0x20 PUSH0 KECCAK256 SWAP1 JUMPDEST DUP2 PUSH0 SWAP1 SLOAD SWAP1 PUSH2 0x100 EXP SWAP1 DIV PUSH20 0xFFFFFFFFFFFFFFFFFFFFFFFFFFFFFFFFFFFFFFFF AND PUSH20 0xFFFFFFFFFFFFFFFFFFFFFFFFFFFFFFFFFFFFFFFF AND DUP2 MSTORE PUSH1 0x20 ADD SWAP1 PUSH1 0x1 ADD SWAP1 DUP1 DUP4 GT PUSH2 0x11DC JUMPI JUMPDEST POP POP POP POP POP PUSH2 0x3CCF JUMP JUMPDEST SWAP1 POP PUSH1 0x5 DUP1 SLOAD SWAP1 POP PUSH1 0xF DUP1 SLOAD SWAP1 POP SUB PUSH2 0x1248 JUMPI POP PUSH2 0x1301 JUMP JUMPDEST PUSH0 PUSH20 0xFFFFFFFFFFFFFFFFFFFFFFFFFFFFFFFFFFFFFFFF AND DUP2 PUSH20 0xFFFFFFFFFFFFFFFFFFFFFFFFFFFFFFFFFFFFFFFF AND SUB PUSH2 0x1281 JUMPI POP PUSH2 0x1199 JUMP JUMPDEST PUSH1 0xF DUP2 SWAP1 DUP1 PUSH1 0x1 DUP2 SLOAD ADD DUP1 DUP3 SSTORE DUP1 SWAP2 POP POP PUSH1 0x1 SWAP1 SUB SWAP1 PUSH0 MSTORE PUSH1 0x20 PUSH0 KECCAK256 ADD PUSH0 SWAP1 SWAP2 SWAP1 SWAP2 SWAP1 SWAP2 PUSH2 0x100 EXP DUP2 SLOAD DUP2 PUSH20 0xFFFFFFFFFFFFFFFFFFFFFFFFFFFFFFFFFFFFFFFF MUL NOT AND SWAP1 DUP4 PUSH20 0xFFFFFFFFFFFFFFFFFFFFFFFFFFFFFFFFFFFFFFFF AND MUL OR SWAP1 SSTORE POP DUP3 DUP1 PUSH2 0x12EC SWAP1 PUSH2 0x70E0 JUMP JUMPDEST SWAP4 POP POP PUSH2 0x12FB DUP2 DUP6 DUP13 DUP9 PUSH2 0x42FA JUMP JUMPDEST POP PUSH2 0x1199 JUMP JUMPDEST POP POP POP POP DUP1 DUP1 PUSH1 0x1 ADD SWAP2 POP POP PUSH2 0x10DB JUMP JUMPDEST POP PUSH1 0xF PUSH0 PUSH2 0x1320 SWAP2 SWAP1 PUSH2 0x572A JUMP JUMPDEST PUSH2 0x132A DUP3 DUP6 PUSH2 0x467C JUMP JUMPDEST PUSH2 0x1338 DUP8 DUP8 DUP5 DUP9 DUP9 DUP9 PUSH2 0x47A0 JUMP JUMPDEST PUSH2 0x1341 CALLER PUSH2 0x22E9 JUMP JUMPDEST POP POP POP POP POP POP POP POP JUMP JUMPDEST DUP1 SELFBALANCE LT ISZERO PUSH2 0x138E JUMPI PUSH1 0x40 MLOAD PUSH32 0x8C379A000000000000000000000000000000000000000000000000000000000 DUP2 MSTORE PUSH1 0x4 ADD PUSH2 0x1385 SWAP1 PUSH2 0x7171 JUMP JUMPDEST PUSH1 0x40 MLOAD DUP1 SWAP2 SUB SWAP1 REVERT JUMPDEST PUSH0 DUP3 PUSH20 0xFFFFFFFFFFFFFFFFFFFFFFFFFFFFFFFFFFFFFFFF AND DUP3 PUSH1 0x40 MLOAD PUSH2 0x13B3 SWAP1 PUSH2 0x71BC JUMP JUMPDEST PUSH0 PUSH1 0x40 MLOAD DUP1 DUP4 SUB DUP2 DUP6 DUP8 GAS CALL SWAP3 POP POP POP RETURNDATASIZE DUP1 PUSH0 DUP2 EQ PUSH2 0x13ED JUMPI PUSH1 0x40 MLOAD SWAP2 POP PUSH1 0x1F NOT PUSH1 0x3F RETURNDATASIZE ADD AND DUP3 ADD PUSH1 0x40 MSTORE RETURNDATASIZE DUP3 MSTORE RETURNDATASIZE PUSH0 PUSH1 0x20 DUP5 ADD RETURNDATACOPY PUSH2 0x13F2 JUMP JUMPDEST PUSH1 0x60 SWAP2 POP JUMPDEST POP POP SWAP1 POP DUP1 PUSH2 0x1436 JUMPI PUSH1 0x40 MLOAD PUSH32 0x8C379A000000000000000000000000000000000000000000000000000000000 DUP2 MSTORE PUSH1 0x4 ADD PUSH2 0x142D SWAP1 PUSH2 0x721A JUMP JUMPDEST PUSH1 0x40 MLOAD DUP1 SWAP2 SUB SWAP1 REVERT JUMPDEST POP POP POP JUMP JUMPDEST PUSH2 0x1445 DUP3 DUP3 PUSH2 0x4BD0 JUMP JUMPDEST POP POP JUMP JUMPDEST PUSH1 0x7 DUP2 DUP2 SLOAD DUP2 LT PUSH2 0x1458 JUMPI PUSH0 DUP1 REVERT JUMPDEST SWAP1 PUSH0 MSTORE PUSH1 0x20 PUSH0 KECCAK256 ADD PUSH0 SWAP2 POP SLOAD SWAP1 PUSH2 0x100 EXP SWAP1 DIV PUSH20 0xFFFFFFFFFFFFFFFFFFFFFFFFFFFFFFFFFFFFFFFF AND DUP2 JUMP JUMPDEST PUSH2 0x1490 DUP5 DUP5 DUP5 DUP5 PUSH2 0x42FA JUMP JUMPDEST POP POP POP POP JUMP JUMPDEST PUSH0 PUSH1 0xB PUSH0 CALLER PUSH20 0xFFFFFFFFFFFFFFFFFFFFFFFFFFFFFFFFFFFFFFFF AND PUSH20 0xFFFFFFFFFFFFFFFFFFFFFFFFFFFFFFFFFFFFFFFF AND DUP2 MSTORE PUSH1 0x20 ADD SWAP1 DUP2 MSTORE PUSH1 0x20 ADD PUSH0 KECCAK256 PUSH0 ADD PUSH0 SWAP1 SLOAD SWAP1 PUSH2 0x100 EXP SWAP1 DIV PUSH1 0xFF AND PUSH2 0x1522 JUMPI PUSH1 0x40 MLOAD PUSH32 0x8C379A000000000000000000000000000000000000000000000000000000000 DUP2 MSTORE PUSH1 0x4 ADD PUSH2 0x1519 SWAP1 PUSH2 0x7282 JUMP JUMPDEST PUSH1 0x40 MLOAD DUP1 SWAP2 SUB SWAP1 REVERT JUMPDEST PUSH1 0xB PUSH0 CALLER PUSH20 0xFFFFFFFFFFFFFFFFFFFFFFFFFFFFFFFFFFFFFFFF AND PUSH20 0xFFFFFFFFFFFFFFFFFFFFFFFFFFFFFFFFFFFFFFFF AND DUP2 MSTORE PUSH1 0x20 ADD SWAP1 DUP2 MSTORE PUSH1 0x20 ADD PUSH0 KECCAK256 PUSH1 0x2 ADD SLOAD SWAP1 POP SWAP1 JUMP JUMPDEST PUSH1 0x10 PUSH1 0x20 MSTORE DUP2 PUSH0 MSTORE PUSH1 0x40 PUSH0 KECCAK256 DUP2 DUP2 SLOAD DUP2 LT PUSH2 0x1581 JUMPI PUSH0 DUP1 REVERT JUMPDEST SWAP1 PUSH0 MSTORE PUSH1 0x20 PUSH0 KECCAK256 SWAP1 PUSH1 0x8 MUL ADD PUSH0 SWAP2 POP SWAP2 POP POP DUP1 PUSH0 ADD DUP1 SLOAD PUSH2 0x15A1 SWAP1 PUSH2 0x6E44 JUMP JUMPDEST DUP1 PUSH1 0x1F ADD PUSH1 0x20 DUP1 SWAP2 DIV MUL PUSH1 0x20 ADD PUSH1 0x40 MLOAD SWAP1 DUP2 ADD PUSH1 0x40 MSTORE DUP1 SWAP3 SWAP2 SWAP1 DUP2 DUP2 MSTORE PUSH1 0x20 ADD DUP3 DUP1 SLOAD PUSH2 0x15CD SWAP1 PUSH2 0x6E44 JUMP JUMPDEST DUP1 ISZERO PUSH2 0x1618 JUMPI DUP1 PUSH1 0x1F LT PUSH2 0x15EF JUMPI PUSH2 0x100 DUP1 DUP4 SLOAD DIV MUL DUP4 MSTORE SWAP2 PUSH1 0x20 ADD SWAP2 PUSH2 0x1618 JUMP JUMPDEST DUP3 ADD SWAP2 SWAP1 PUSH0 MSTORE PUSH1 0x20 PUSH0 KECCAK256 SWAP1 JUMPDEST DUP2 SLOAD DUP2 MSTORE SWAP1 PUSH1 0x1 ADD SWAP1 PUSH1 0x20 ADD DUP1 DUP4 GT PUSH2 0x15FB JUMPI DUP3 SWAP1 SUB PUSH1 0x1F AND DUP3 ADD SWAP2 JUMPDEST POP POP POP POP POP SWAP1 DUP1 PUSH1 0x1 ADD DUP1 SLOAD PUSH2 0x162D SWAP1 PUSH2 0x6E44 JUMP JUMPDEST DUP1 PUSH1 0x1F ADD PUSH1 0x20 DUP1 SWAP2 DIV MUL PUSH1 0x20 ADD PUSH1 0x40 MLOAD SWAP1 DUP2 ADD PUSH1 0x40 MSTORE DUP1 SWAP3 SWAP2 SWAP1 DUP2 DUP2 MSTORE PUSH1 0x20 ADD DUP3 DUP1 SLOAD PUSH2 0x1659 SWAP1 PUSH2 0x6E44 JUMP JUMPDEST DUP1 ISZERO PUSH2 0x16A4 JUMPI DUP1 PUSH1 0x1F LT PUSH2 0x167B JUMPI PUSH2 0x100 DUP1 DUP4 SLOAD DIV MUL DUP4 MSTORE SWAP2 PUSH1 0x20 ADD SWAP2 PUSH2 0x16A4 JUMP JUMPDEST DUP3 ADD SWAP2 SWAP1 PUSH0 MSTORE PUSH1 0x20 PUSH0 KECCAK256 SWAP1 JUMPDEST DUP2 SLOAD DUP2 MSTORE SWAP1 PUSH1 0x1 ADD SWAP1 PUSH1 0x20 ADD DUP1 DUP4 GT PUSH2 0x1687 JUMPI DUP3 SWAP1 SUB PUSH1 0x1F AND DUP3 ADD SWAP2 JUMPDEST POP POP POP POP POP SWAP1 DUP1 PUSH1 0x2 ADD DUP1 SLOAD PUSH2 0x16B9 SWAP1 PUSH2 0x6E44 JUMP JUMPDEST DUP1 PUSH1 0x1F ADD PUSH1 0x20 DUP1 SWAP2 DIV MUL PUSH1 0x20 ADD PUSH1 0x40 MLOAD SWAP1 DUP2 ADD PUSH1 0x40 MSTORE DUP1 SWAP3 SWAP2 SWAP1 DUP2 DUP2 MSTORE PUSH1 0x20 ADD DUP3 DUP1 SLOAD PUSH2 0x16E5 SWAP1 PUSH2 0x6E44 JUMP JUMPDEST DUP1 ISZERO PUSH2 0x1730 JUMPI DUP1 PUSH1 0x1F LT PUSH2 0x1707 JUMPI PUSH2 0x100 DUP1 DUP4 SLOAD DIV MUL DUP4 MSTORE SWAP2 PUSH1 0x20 ADD SWAP2 PUSH2 0x1730 JUMP JUMPDEST DUP3 ADD SWAP2 SWAP1 PUSH0 MSTORE PUSH1 0x20 PUSH0 KECCAK256 SWAP1 JUMPDEST DUP2 SLOAD DUP2 MSTORE SWAP1 PUSH1 0x1 ADD SWAP1 PUSH1 0x20 ADD DUP1 DUP4 GT PUSH2 0x1713 JUMPI DUP3 SWAP1 SUB PUSH1 0x1F AND DUP3 ADD SWAP2 JUMPDEST POP POP POP POP POP SWAP1 DUP1 PUSH1 0x3 ADD DUP1 SLOAD PUSH2 0x1745 SWAP1 PUSH2 0x6E44 JUMP JUMPDEST DUP1 PUSH1 0x1F ADD PUSH1 0x20 DUP1 SWAP2 DIV MUL PUSH1 0x20 ADD PUSH1 0x40 MLOAD SWAP1 DUP2 ADD PUSH1 0x40 MSTORE DUP1 SWAP3 SWAP2 SWAP1 DUP2 DUP2 MSTORE PUSH1 0x20 ADD DUP3 DUP1 SLOAD PUSH2 0x1771 SWAP1 PUSH2 0x6E44 JUMP JUMPDEST DUP1 ISZERO PUSH2 0x17BC JUMPI DUP1 PUSH1 0x1F LT PUSH2 0x1793 JUMPI PUSH2 0x100 DUP1 DUP4 SLOAD DIV MUL DUP4 MSTORE SWAP2 PUSH1 0x20 ADD SWAP2 PUSH2 0x17BC JUMP JUMPDEST DUP3 ADD SWAP2 SWAP1 PUSH0 MSTORE PUSH1 0x20 PUSH0 KECCAK256 SWAP1 JUMPDEST DUP2 SLOAD DUP2 MSTORE SWAP1 PUSH1 0x1 ADD SWAP1 PUSH1 0x20 ADD DUP1 DUP4 GT PUSH2 0x179F JUMPI DUP3 SWAP1 SUB PUSH1 0x1F AND DUP3 ADD SWAP2 JUMPDEST POP POP POP POP POP SWAP1 DUP1 PUSH1 0x4 ADD SLOAD SWAP1 DUP1 PUSH1 0x5 ADD SLOAD SWAP1 DUP1 PUSH1 0x6 ADD PUSH0 SWAP1 SLOAD SWAP1 PUSH2 0x100 EXP SWAP1 DIV PUSH20 0xFFFFFFFFFFFFFFFFFFFFFFFFFFFFFFFFFFFFFFFF AND SWAP1 DUP1 PUSH1 0x7 ADD DUP1 SLOAD PUSH2 0x1802 SWAP1 PUSH2 0x6E44 JUMP JUMPDEST DUP1 PUSH1 0x1F ADD PUSH1 0x20 DUP1 SWAP2 DIV MUL PUSH1 0x20 ADD PUSH1 0x40 MLOAD SWAP1 DUP2 ADD PUSH1 0x40 MSTORE DUP1 SWAP3 SWAP2 SWAP1 DUP2 DUP2 MSTORE PUSH1 0x20 ADD DUP3 DUP1 SLOAD PUSH2 0x182E SWAP1 PUSH2 0x6E44 JUMP JUMPDEST DUP1 ISZERO PUSH2 0x1879 JUMPI DUP1 PUSH1 0x1F LT PUSH2 0x1850 JUMPI PUSH2 0x100 DUP1 DUP4 SLOAD DIV MUL DUP4 MSTORE SWAP2 PUSH1 0x20 ADD SWAP2 PUSH2 0x1879 JUMP JUMPDEST DUP3 ADD SWAP2 SWAP1 PUSH0 MSTORE PUSH1 0x20 PUSH0 KECCAK256 SWAP1 JUMPDEST DUP2 SLOAD DUP2 MSTORE SWAP1 PUSH1 0x1 ADD SWAP1 PUSH1 0x20 ADD DUP1 DUP4 GT PUSH2 0x185C JUMPI DUP3 SWAP1 SUB PUSH1 0x1F AND DUP3 ADD SWAP2 JUMPDEST POP POP POP POP POP SWAP1 POP DUP9 JUMP JUMPDEST PUSH2 0x18C5 PUSH1 0x40 MLOAD DUP1 PUSH1 0x40 ADD PUSH1 0x40 MSTORE DUP1 PUSH1 0x12 DUP2 MSTORE PUSH1 0x20 ADD PUSH32 0x416D6F756E74207265636965766564202D200000000000000000000000000000 DUP2 MSTORE POP PUSH1 0xA SLOAD CALLVALUE PUSH2 0x4CE5 JUMP JUMPDEST PUSH0 PUSH20 0xFFFFFFFFFFFFFFFFFFFFFFFFFFFFFFFFFFFFFFFF AND PUSH1 0x3 PUSH0 DUP5 PUSH20 0xFFFFFFFFFFFFFFFFFFFFFFFFFFFFFFFFFFFFFFFF AND PUSH20 0xFFFFFFFFFFFFFFFFFFFFFFFFFFFFFFFFFFFFFFFF AND DUP2 MSTORE PUSH1 0x20 ADD SWAP1 DUP2 MSTORE PUSH1 0x20 ADD PUSH0 KECCAK256 PUSH0 ADD PUSH0 SWAP1 SLOAD SWAP1 PUSH2 0x100 EXP SWAP1 DIV PUSH20 0xFFFFFFFFFFFFFFFFFFFFFFFFFFFFFFFFFFFFFFFF AND PUSH20 0xFFFFFFFFFFFFFFFFFFFFFFFFFFFFFFFFFFFFFFFF AND EQ PUSH2 0x1991 JUMPI PUSH1 0x40 MLOAD PUSH32 0x8C379A000000000000000000000000000000000000000000000000000000000 DUP2 MSTORE PUSH1 0x4 ADD PUSH2 0x1988 SWAP1 PUSH2 0x7310 JUMP JUMPDEST PUSH1 0x40 MLOAD DUP1 SWAP2 SUB SWAP1 REVERT JUMPDEST PUSH1 0xA SLOAD CALLVALUE EQ PUSH2 0x19D5 JUMPI PUSH1 0x40 MLOAD PUSH32 0x8C379A000000000000000000000000000000000000000000000000000000000 DUP2 MSTORE PUSH1 0x4 ADD PUSH2 0x19CC SWAP1 PUSH2 0x7378 JUMP JUMPDEST PUSH1 0x40 MLOAD DUP1 SWAP2 SUB SWAP1 REVERT JUMPDEST PUSH1 0x40 MLOAD DUP1 PUSH1 0x60 ADD PUSH1 0x40 MSTORE DUP1 DUP4 PUSH20 0xFFFFFFFFFFFFFFFFFFFFFFFFFFFFFFFFFFFFFFFF AND DUP2 MSTORE PUSH1 0x20 ADD DUP3 DUP2 MSTORE PUSH1 0x20 ADD CALLVALUE DUP2 MSTORE POP PUSH1 0x3 PUSH0 DUP5 PUSH20 0xFFFFFFFFFFFFFFFFFFFFFFFFFFFFFFFFFFFFFFFF AND PUSH20 0xFFFFFFFFFFFFFFFFFFFFFFFFFFFFFFFFFFFFFFFF AND DUP2 MSTORE PUSH1 0x20 ADD SWAP1 DUP2 MSTORE PUSH1 0x20 ADD PUSH0 KECCAK256 PUSH0 DUP3 ADD MLOAD DUP2 PUSH0 ADD PUSH0 PUSH2 0x100 EXP DUP2 SLOAD DUP2 PUSH20 0xFFFFFFFFFFFFFFFFFFFFFFFFFFFFFFFFFFFFFFFF MUL NOT AND SWAP1 DUP4 PUSH20 0xFFFFFFFFFFFFFFFFFFFFFFFFFFFFFFFFFFFFFFFF AND MUL OR SWAP1 SSTORE POP PUSH1 0x20 DUP3 ADD MLOAD DUP2 PUSH1 0x1 ADD SSTORE PUSH1 0x40 DUP3 ADD MLOAD DUP2 PUSH1 0x2 ADD SSTORE SWAP1 POP POP PUSH1 0x5 DUP3 SWAP1 DUP1 PUSH1 0x1 DUP2 SLOAD ADD DUP1 DUP3 SSTORE DUP1 SWAP2 POP POP PUSH1 0x1 SWAP1 SUB SWAP1 PUSH0 MSTORE PUSH1 0x20 PUSH0 KECCAK256 ADD PUSH0 SWAP1 SWAP2 SWAP1 SWAP2 SWAP1 SWAP2 PUSH2 0x100 EXP DUP2 SLOAD DUP2 PUSH20 0xFFFFFFFFFFFFFFFFFFFFFFFFFFFFFFFFFFFFFFFF MUL NOT AND SWAP1 DUP4 PUSH20 0xFFFFFFFFFFFFFFFFFFFFFFFFFFFFFFFFFFFFFFFF AND MUL OR SWAP1 SSTORE POP POP POP JUMP JUMPDEST PUSH1 0x3 PUSH1 0x20 MSTORE DUP1 PUSH0 MSTORE PUSH1 0x40 PUSH0 KECCAK256 PUSH0 SWAP2 POP SWAP1 POP DUP1 PUSH0 ADD PUSH0 SWAP1 SLOAD SWAP1 PUSH2 0x100 EXP SWAP1 DIV PUSH20 0xFFFFFFFFFFFFFFFFFFFFFFFFFFFFFFFFFFFFFFFF AND SWAP1 DUP1 PUSH1 0x1 ADD SLOAD SWAP1 DUP1 PUSH1 0x2 ADD SLOAD SWAP1 POP DUP4 JUMP JUMPDEST PUSH1 0x8 PUSH0 DUP3 PUSH20 0xFFFFFFFFFFFFFFFFFFFFFFFFFFFFFFFFFFFFFFFF AND PUSH20 0xFFFFFFFFFFFFFFFFFFFFFFFFFFFFFFFFFFFFFFFF AND DUP2 MSTORE PUSH1 0x20 ADD SWAP1 DUP2 MSTORE PUSH1 0x20 ADD PUSH0 KECCAK256 PUSH0 SWAP1 SLOAD SWAP1 PUSH2 0x100 EXP SWAP1 DIV PUSH1 0xFF AND ISZERO PUSH2 0x1BD1 JUMPI PUSH1 0x40 MLOAD PUSH32 0x8C379A000000000000000000000000000000000000000000000000000000000 DUP2 MSTORE PUSH1 0x4 ADD PUSH2 0x1BC8 SWAP1 PUSH2 0x7406 JUMP JUMPDEST PUSH1 0x40 MLOAD DUP1 SWAP2 SUB SWAP1 REVERT JUMPDEST PUSH0 PUSH20 0xFFFFFFFFFFFFFFFFFFFFFFFFFFFFFFFFFFFFFFFF AND PUSH1 0x3 PUSH0 DUP4 PUSH20 0xFFFFFFFFFFFFFFFFFFFFFFFFFFFFFFFFFFFFFFFF AND PUSH20 0xFFFFFFFFFFFFFFFFFFFFFFFFFFFFFFFFFFFFFFFF AND DUP2 MSTORE PUSH1 0x20 ADD SWAP1 DUP2 MSTORE PUSH1 0x20 ADD PUSH0 KECCAK256 PUSH0 ADD PUSH0 SWAP1 SLOAD SWAP1 PUSH2 0x100 EXP SWAP1 DIV PUSH20 0xFFFFFFFFFFFFFFFFFFFFFFFFFFFFFFFFFFFFFFFF AND PUSH20 0xFFFFFFFFFFFFFFFFFFFFFFFFFFFFFFFFFFFFFFFF AND SUB PUSH2 0x1C9D JUMPI PUSH1 0x40 MLOAD PUSH32 0x8C379A000000000000000000000000000000000000000000000000000000000 DUP2 MSTORE PUSH1 0x4 ADD PUSH2 0x1C94 SWAP1 PUSH2 0x7494 JUMP JUMPDEST PUSH1 0x40 MLOAD DUP1 SWAP2 SUB SWAP1 REVERT JUMPDEST PUSH1 0x1 PUSH1 0x8 PUSH0 DUP4 PUSH20 0xFFFFFFFFFFFFFFFFFFFFFFFFFFFFFFFFFFFFFFFF AND PUSH20 0xFFFFFFFFFFFFFFFFFFFFFFFFFFFFFFFFFFFFFFFF AND DUP2 MSTORE PUSH1 0x20 ADD SWAP1 DUP2 MSTORE PUSH1 0x20 ADD PUSH0 KECCAK256 PUSH0 PUSH2 0x100 EXP DUP2 SLOAD DUP2 PUSH1 0xFF MUL NOT AND SWAP1 DUP4 ISZERO ISZERO MUL OR SWAP1 SSTORE POP PUSH1 0x9 PUSH0 DUP3 PUSH20 0xFFFFFFFFFFFFFFFFFFFFFFFFFFFFFFFFFFFFFFFF AND PUSH20 0xFFFFFFFFFFFFFFFFFFFFFFFFFFFFFFFFFFFFFFFF AND DUP2 MSTORE PUSH1 0x20 ADD SWAP1 DUP2 MSTORE PUSH1 0x20 ADD PUSH0 KECCAK256 TIMESTAMP SWAP1 DUP1 PUSH1 0x1 DUP2 SLOAD ADD DUP1 DUP3 SSTORE DUP1 SWAP2 POP POP PUSH1 0x1 SWAP1 SUB SWAP1 PUSH0 MSTORE PUSH1 0x20 PUSH0 KECCAK256 ADD PUSH0 SWAP1 SWAP2 SWAP1 SWAP2 SWAP1 SWAP2 POP SSTORE POP JUMP JUMPDEST PUSH1 0x4 DUP3 DUP1 MLOAD PUSH1 0x20 DUP2 ADD DUP3 ADD DUP1 MLOAD DUP5 DUP3 MSTORE PUSH1 0x20 DUP4 ADD PUSH1 0x20 DUP6 ADD KECCAK256 DUP2 DUP4 MSTORE DUP1 SWAP6 POP POP POP POP POP POP DUP2 DUP2 SLOAD DUP2 LT PUSH2 0x1D87 JUMPI PUSH0 DUP1 REVERT JUMPDEST SWAP1 PUSH0 MSTORE PUSH1 0x20 PUSH0 KECCAK256 ADD PUSH0 SWAP2 POP SWAP2 POP SWAP1 SLOAD SWAP1 PUSH2 0x100 EXP SWAP1 DIV PUSH20 0xFFFFFFFFFFFFFFFFFFFFFFFFFFFFFFFFFFFFFFFF AND DUP2 JUMP JUMPDEST PUSH1 0xB PUSH0 CALLER PUSH20 0xFFFFFFFFFFFFFFFFFFFFFFFFFFFFFFFFFFFFFFFF AND PUSH20 0xFFFFFFFFFFFFFFFFFFFFFFFFFFFFFFFFFFFFFFFF AND DUP2 MSTORE PUSH1 0x20 ADD SWAP1 DUP2 MSTORE PUSH1 0x20 ADD PUSH0 KECCAK256 PUSH0 ADD PUSH0 SWAP1 SLOAD SWAP1 PUSH2 0x100 EXP SWAP1 DIV PUSH1 0xFF AND PUSH2 0x1E41 JUMPI PUSH1 0x40 MLOAD PUSH32 0x8C379A000000000000000000000000000000000000000000000000000000000 DUP2 MSTORE PUSH1 0x4 ADD PUSH2 0x1E38 SWAP1 PUSH2 0x7282 JUMP JUMPDEST PUSH1 0x40 MLOAD DUP1 SWAP2 SUB SWAP1 REVERT JUMPDEST PUSH0 PUSH1 0x2 DUP2 GT ISZERO PUSH2 0x1E54 JUMPI PUSH2 0x1E53 PUSH2 0x660C JUMP JUMPDEST JUMPDEST DUP2 PUSH1 0x2 DUP2 GT ISZERO PUSH2 0x1E67 JUMPI PUSH2 0x1E66 PUSH2 0x660C JUMP JUMPDEST JUMPDEST SUB PUSH2 0x1EA7 JUMPI PUSH1 0x40 MLOAD PUSH32 0x8C379A000000000000000000000000000000000000000000000000000000000 DUP2 MSTORE PUSH1 0x4 ADD PUSH2 0x1E9E SWAP1 PUSH2 0x74FC JUMP JUMPDEST PUSH1 0x40 MLOAD DUP1 SWAP2 SUB SWAP1 REVERT JUMPDEST PUSH2 0x1EEB PUSH1 0x40 MLOAD DUP1 PUSH1 0x40 ADD PUSH1 0x40 MSTORE DUP1 PUSH1 0x12 DUP2 MSTORE PUSH1 0x20 ADD PUSH32 0x416D6F756E74207265636965766564202D200000000000000000000000000000 DUP2 MSTORE POP PUSH4 0x3B9ACA00 CALLVALUE PUSH2 0x4CE5 JUMP JUMPDEST PUSH1 0x1 PUSH1 0x2 DUP2 GT ISZERO PUSH2 0x1EFF JUMPI PUSH2 0x1EFE PUSH2 0x660C JUMP JUMPDEST JUMPDEST DUP2 PUSH1 0x2 DUP2 GT ISZERO PUSH2 0x1F12 JUMPI PUSH2 0x1F11 PUSH2 0x660C JUMP JUMPDEST JUMPDEST SUB PUSH2 0x20FC JUMPI PUSH0 CALLVALUE SWAP1 POP PUSH4 0x3B9ACA00 DUP2 EQ PUSH2 0x1F61 JUMPI PUSH1 0x40 MLOAD PUSH32 0x8C379A000000000000000000000000000000000000000000000000000000000 DUP2 MSTORE PUSH1 0x4 ADD PUSH2 0x1F58 SWAP1 PUSH2 0x758A JUMP JUMPDEST PUSH1 0x40 MLOAD DUP1 SWAP2 SUB SWAP1 REVERT JUMPDEST PUSH1 0x1 PUSH1 0xB PUSH0 CALLER PUSH20 0xFFFFFFFFFFFFFFFFFFFFFFFFFFFFFFFFFFFFFFFF AND PUSH20 0xFFFFFFFFFFFFFFFFFFFFFFFFFFFFFFFFFFFFFFFF AND DUP2 MSTORE PUSH1 0x20 ADD SWAP1 DUP2 MSTORE PUSH1 0x20 ADD PUSH0 KECCAK256 PUSH0 ADD PUSH1 0x1 PUSH2 0x100 EXP DUP2 SLOAD DUP2 PUSH1 0xFF MUL NOT AND SWAP1 DUP4 PUSH1 0x2 DUP2 GT ISZERO PUSH2 0x1FC4 JUMPI PUSH2 0x1FC3 PUSH2 0x660C JUMP JUMPDEST JUMPDEST MUL OR SWAP1 SSTORE POP PUSH2 0x1FD3 PUSH1 0x64 PUSH2 0x39A2 JUMP JUMPDEST PUSH1 0xB PUSH0 CALLER PUSH20 0xFFFFFFFFFFFFFFFFFFFFFFFFFFFFFFFFFFFFFFFF AND PUSH20 0xFFFFFFFFFFFFFFFFFFFFFFFFFFFFFFFFFFFFFFFF AND DUP2 MSTORE PUSH1 0x20 ADD SWAP1 DUP2 MSTORE PUSH1 0x20 ADD PUSH0 KECCAK256 PUSH1 0x1 ADD DUP2 SWAP1 SSTORE POP PUSH3 0x278D00 TIMESTAMP PUSH2 0x2026 SWAP2 SWAP1 PUSH2 0x6B55 JUMP JUMPDEST PUSH1 0xB PUSH0 CALLER PUSH20 0xFFFFFFFFFFFFFFFFFFFFFFFFFFFFFFFFFFFFFFFF AND PUSH20 0xFFFFFFFFFFFFFFFFFFFFFFFFFFFFFFFFFFFFFFFF AND DUP2 MSTORE PUSH1 0x20 ADD SWAP1 DUP2 MSTORE PUSH1 0x20 ADD PUSH0 KECCAK256 PUSH1 0x3 ADD DUP2 SWAP1 SSTORE POP PUSH1 0xC PUSH0 CALLER PUSH20 0xFFFFFFFFFFFFFFFFFFFFFFFFFFFFFFFFFFFFFFFF AND PUSH20 0xFFFFFFFFFFFFFFFFFFFFFFFFFFFFFFFFFFFFFFFF AND DUP2 MSTORE PUSH1 0x20 ADD SWAP1 DUP2 MSTORE PUSH1 0x20 ADD PUSH0 KECCAK256 PUSH1 0x40 MLOAD DUP1 PUSH1 0x40 ADD PUSH1 0x40 MSTORE DUP1 CALLVALUE DUP2 MSTORE PUSH1 0x20 ADD TIMESTAMP DUP2 MSTORE POP SWAP1 DUP1 PUSH1 0x1 DUP2 SLOAD ADD DUP1 DUP3 SSTORE DUP1 SWAP2 POP POP PUSH1 0x1 SWAP1 SUB SWAP1 PUSH0 MSTORE PUSH1 0x20 PUSH0 KECCAK256 SWAP1 PUSH1 0x2 MUL ADD PUSH0 SWAP1 SWAP2 SWAP1 SWAP2 SWAP1 SWAP2 POP PUSH0 DUP3 ADD MLOAD DUP2 PUSH0 ADD SSTORE PUSH1 0x20 DUP3 ADD MLOAD DUP2 PUSH1 0x1 ADD SSTORE POP POP POP PUSH2 0x22AD JUMP JUMPDEST PUSH1 0x2 DUP1 DUP2 GT ISZERO PUSH2 0x210F JUMPI PUSH2 0x210E PUSH2 0x660C JUMP JUMPDEST JUMPDEST DUP2 PUSH1 0x2 DUP2 GT ISZERO PUSH2 0x2122 JUMPI PUSH2 0x2121 PUSH2 0x660C JUMP JUMPDEST JUMPDEST SUB PUSH2 0x22AC JUMPI PUSH1 0x2 DUP1 DUP2 GT ISZERO PUSH2 0x213A JUMPI PUSH2 0x2139 PUSH2 0x660C JUMP JUMPDEST JUMPDEST PUSH1 0xB PUSH0 CALLER PUSH20 0xFFFFFFFFFFFFFFFFFFFFFFFFFFFFFFFFFFFFFFFF AND PUSH20 0xFFFFFFFFFFFFFFFFFFFFFFFFFFFFFFFFFFFFFFFF AND DUP2 MSTORE PUSH1 0x20 ADD SWAP1 DUP2 MSTORE PUSH1 0x20 ADD PUSH0 KECCAK256 PUSH0 ADD PUSH1 0x1 SWAP1 SLOAD SWAP1 PUSH2 0x100 EXP SWAP1 DIV PUSH1 0xFF AND PUSH1 0x2 DUP2 GT ISZERO PUSH2 0x2199 JUMPI PUSH2 0x2198 PUSH2 0x660C JUMP JUMPDEST JUMPDEST SUB PUSH2 0x21D9 JUMPI PUSH1 0x40 MLOAD PUSH32 0x8C379A000000000000000000000000000000000000000000000000000000000 DUP2 MSTORE PUSH1 0x4 ADD PUSH2 0x21D0 SWAP1 PUSH2 0x75F2 JUMP JUMPDEST PUSH1 0x40 MLOAD DUP1 SWAP2 SUB SWAP1 REVERT JUMPDEST PUSH1 0x2 PUSH1 0xB PUSH0 CALLER PUSH20 0xFFFFFFFFFFFFFFFFFFFFFFFFFFFFFFFFFFFFFFFF AND PUSH20 0xFFFFFFFFFFFFFFFFFFFFFFFFFFFFFFFFFFFFFFFF AND DUP2 MSTORE PUSH1 0x20 ADD SWAP1 DUP2 MSTORE PUSH1 0x20 ADD PUSH0 KECCAK256 PUSH0 ADD PUSH1 0x1 PUSH2 0x100 EXP DUP2 SLOAD DUP2 PUSH1 0xFF MUL NOT AND SWAP1 DUP4 PUSH1 0x2 DUP2 GT ISZERO PUSH2 0x223C JUMPI PUSH2 0x223B PUSH2 0x660C JUMP JUMPDEST JUMPDEST MUL OR SWAP1 SSTORE POP PUSH0 PUSH4 0x77359400 CALLVALUE PUSH2 0x2252 SWAP2 SWAP1 PUSH2 0x763D JUMP JUMPDEST SWAP1 POP DUP1 PUSH1 0xB PUSH0 CALLER PUSH20 0xFFFFFFFFFFFFFFFFFFFFFFFFFFFFFFFFFFFFFFFF AND PUSH20 0xFFFFFFFFFFFFFFFFFFFFFFFFFFFFFFFFFFFFFFFF AND DUP2 MSTORE PUSH1 0x20 ADD SWAP1 DUP2 MSTORE PUSH1 0x20 ADD PUSH0 KECCAK256 PUSH1 0x1 ADD PUSH0 DUP3 DUP3 SLOAD PUSH2 0x22A3 SWAP2 SWAP1 PUSH2 0x6B55 JUMP JUMPDEST SWAP3 POP POP DUP2 SWAP1 SSTORE POP POP JUMPDEST JUMPDEST PUSH32 0xC84AE6E887B7CF66508BCD031AEB2F416AB2AB03C0B56F1845B13E2747E043FD CALLER DUP3 PUSH1 0x40 MLOAD PUSH2 0x22DE SWAP3 SWAP2 SWAP1 PUSH2 0x766D JUMP JUMPDEST PUSH1 0x40 MLOAD DUP1 SWAP2 SUB SWAP1 LOG1 POP JUMP JUMPDEST PUSH2 0x22F2 DUP2 PUSH2 0x4D84 JUMP JUMPDEST PUSH2 0x2357 JUMPI PUSH1 0xD DUP2 SWAP1 DUP1 PUSH1 0x1 DUP2 SLOAD ADD DUP1 DUP3 SSTORE DUP1 SWAP2 POP POP PUSH1 0x1 SWAP1 SUB SWAP1 PUSH0 MSTORE PUSH1 0x20 PUSH0 KECCAK256 ADD PUSH0 SWAP1 SWAP2 SWAP1 SWAP2 SWAP1 SWAP2 PUSH2 0x100 EXP DUP2 SLOAD DUP2 PUSH20 0xFFFFFFFFFFFFFFFFFFFFFFFFFFFFFFFFFFFFFFFF MUL NOT AND SWAP1 DUP4 PUSH20 0xFFFFFFFFFFFFFFFFFFFFFFFFFFFFFFFFFFFFFFFF AND MUL OR SWAP1 SSTORE POP JUMPDEST POP JUMP JUMPDEST PUSH2 0x2364 DUP3 DUP3 PUSH2 0x1883 JUMP JUMPDEST POP POP JUMP JUMPDEST PUSH1 0xB PUSH0 CALLER PUSH20 0xFFFFFFFFFFFFFFFFFFFFFFFFFFFFFFFFFFFFFFFF AND PUSH20 0xFFFFFFFFFFFFFFFFFFFFFFFFFFFFFFFFFFFFFFFF AND DUP2 MSTORE PUSH1 0x20 ADD SWAP1 DUP2 MSTORE PUSH1 0x20 ADD PUSH0 KECCAK256 PUSH0 ADD PUSH0 SWAP1 SLOAD SWAP1 PUSH2 0x100 EXP SWAP1 DIV PUSH1 0xFF AND ISZERO PUSH2 0x23F4 JUMPI PUSH1 0x40 MLOAD PUSH32 0x8C379A000000000000000000000000000000000000000000000000000000000 DUP2 MSTORE PUSH1 0x4 ADD PUSH2 0x23EB SWAP1 PUSH2 0x76DE JUMP JUMPDEST PUSH1 0x40 MLOAD DUP1 SWAP2 SUB SWAP1 REVERT JUMPDEST PUSH1 0x40 MLOAD DUP1 PUSH1 0xA0 ADD PUSH1 0x40 MSTORE DUP1 PUSH1 0x1 ISZERO ISZERO DUP2 MSTORE PUSH1 0x20 ADD PUSH0 PUSH1 0x2 DUP2 GT ISZERO PUSH2 0x241B JUMPI PUSH2 0x241A PUSH2 0x660C JUMP JUMPDEST JUMPDEST DUP2 MSTORE PUSH1 0x20 ADD PUSH2 0x242A PUSH1 0x1 PUSH2 0x39A2 JUMP JUMPDEST DUP2 MSTORE PUSH1 0x20 ADD PUSH0 DUP2 MSTORE PUSH1 0x20 ADD PUSH0 DUP2 MSTORE POP PUSH1 0xB PUSH0 CALLER PUSH20 0xFFFFFFFFFFFFFFFFFFFFFFFFFFFFFFFFFFFFFFFF AND PUSH20 0xFFFFFFFFFFFFFFFFFFFFFFFFFFFFFFFFFFFFFFFF AND DUP2 MSTORE PUSH1 0x20 ADD SWAP1 DUP2 MSTORE PUSH1 0x20 ADD PUSH0 KECCAK256 PUSH0 DUP3 ADD MLOAD DUP2 PUSH0 ADD PUSH0 PUSH2 0x100 EXP DUP2 SLOAD DUP2 PUSH1 0xFF MUL NOT AND SWAP1 DUP4 ISZERO ISZERO MUL OR SWAP1 SSTORE POP PUSH1 0x20 DUP3 ADD MLOAD DUP2 PUSH0 ADD PUSH1 0x1 PUSH2 0x100 EXP DUP2 SLOAD DUP2 PUSH1 0xFF MUL NOT AND SWAP1 DUP4 PUSH1 0x2 DUP2 GT ISZERO PUSH2 0x24BD JUMPI PUSH2 0x24BC PUSH2 0x660C JUMP JUMPDEST JUMPDEST MUL OR SWAP1 SSTORE POP PUSH1 0x40 DUP3 ADD MLOAD DUP2 PUSH1 0x1 ADD SSTORE PUSH1 0x60 DUP3 ADD MLOAD DUP2 PUSH1 0x2 ADD SSTORE PUSH1 0x80 DUP3 ADD MLOAD DUP2 PUSH1 0x3 ADD SSTORE SWAP1 POP POP PUSH32 0x8E18574F8A7333E6A87112742A55853A643E2F0550F4E1A3A2C3F1BB2994441D CALLER PUSH0 PUSH1 0x40 MLOAD PUSH2 0x2514 SWAP3 SWAP2 SWAP1 PUSH2 0x766D JUMP JUMPDEST PUSH1 0x40 MLOAD DUP1 SWAP2 SUB SWAP1 LOG1 JUMP JUMPDEST PUSH2 0x2526 PUSH2 0x5748 JUMP JUMPDEST PUSH0 PUSH2 0x252F PUSH2 0x4E26 JUMP JUMPDEST SWAP1 POP PUSH0 JUMPDEST DUP2 MLOAD DUP2 LT ISZERO PUSH2 0x274B JUMPI PUSH2 0x2563 DUP3 DUP3 DUP2 MLOAD DUP2 LT PUSH2 0x2552 JUMPI PUSH2 0x2551 PUSH2 0x6D9A JUMP JUMPDEST JUMPDEST PUSH1 0x20 MUL PUSH1 0x20 ADD ADD MLOAD PUSH0 ADD MLOAD DUP6 PUSH2 0x39DD JUMP JUMPDEST ISZERO PUSH2 0x273E JUMPI DUP2 DUP2 DUP2 MLOAD DUP2 LT PUSH2 0x257B JUMPI PUSH2 0x257A PUSH2 0x6D9A JUMP JUMPDEST JUMPDEST PUSH1 0x20 MUL PUSH1 0x20 ADD ADD MLOAD PUSH1 0xC0 ADD MLOAD PUSH20 0xFFFFFFFFFFFFFFFFFFFFFFFFFFFFFFFFFFFFFFFF AND CALLER PUSH20 0xFFFFFFFFFFFFFFFFFFFFFFFFFFFFFFFFFFFFFFFF AND EQ PUSH1 0x40 MLOAD DUP1 PUSH1 0x60 ADD PUSH1 0x40 MSTORE DUP1 PUSH1 0x30 DUP2 MSTORE PUSH1 0x20 ADD PUSH2 0x7FE0 PUSH1 0x30 SWAP2 CODECOPY SWAP1 PUSH2 0x260F JUMPI PUSH1 0x40 MLOAD PUSH32 0x8C379A000000000000000000000000000000000000000000000000000000000 DUP2 MSTORE PUSH1 0x4 ADD PUSH2 0x2606 SWAP2 SWAP1 PUSH2 0x6502 JUMP JUMPDEST PUSH1 0x40 MLOAD DUP1 SWAP2 SUB SWAP1 REVERT JUMPDEST POP PUSH1 0x40 MLOAD DUP1 PUSH1 0x60 ADD PUSH1 0x40 MSTORE DUP1 DUP4 DUP4 DUP2 MLOAD DUP2 LT PUSH2 0x262E JUMPI PUSH2 0x262D PUSH2 0x6D9A JUMP JUMPDEST JUMPDEST PUSH1 0x20 MUL PUSH1 0x20 ADD ADD MLOAD DUP2 MSTORE PUSH1 0x20 ADD PUSH2 0x2644 DUP7 PUSH2 0x3A35 JUMP JUMPDEST DUP2 MSTORE PUSH1 0x20 ADD PUSH1 0x11 DUP7 PUSH1 0x40 MLOAD PUSH2 0x2659 SWAP2 SWAP1 PUSH2 0x6E01 JUMP JUMPDEST SWAP1 DUP2 MSTORE PUSH1 0x20 ADD PUSH1 0x40 MLOAD DUP1 SWAP2 SUB SWAP1 KECCAK256 DUP1 SLOAD DUP1 PUSH1 0x20 MUL PUSH1 0x20 ADD PUSH1 0x40 MLOAD SWAP1 DUP2 ADD PUSH1 0x40 MSTORE DUP1 SWAP3 SWAP2 SWAP1 DUP2 DUP2 MSTORE PUSH1 0x20 ADD PUSH0 SWAP1 JUMPDEST DUP3 DUP3 LT ISZERO PUSH2 0x272E JUMPI DUP4 DUP3 SWAP1 PUSH0 MSTORE PUSH1 0x20 PUSH0 KECCAK256 ADD DUP1 SLOAD PUSH2 0x26A3 SWAP1 PUSH2 0x6E44 JUMP JUMPDEST DUP1 PUSH1 0x1F ADD PUSH1 0x20 DUP1 SWAP2 DIV MUL PUSH1 0x20 ADD PUSH1 0x40 MLOAD SWAP1 DUP2 ADD PUSH1 0x40 MSTORE DUP1 SWAP3 SWAP2 SWAP1 DUP2 DUP2 MSTORE PUSH1 0x20 ADD DUP3 DUP1 SLOAD PUSH2 0x26CF SWAP1 PUSH2 0x6E44 JUMP JUMPDEST DUP1 ISZERO PUSH2 0x271A JUMPI DUP1 PUSH1 0x1F LT PUSH2 0x26F1 JUMPI PUSH2 0x100 DUP1 DUP4 SLOAD DIV MUL DUP4 MSTORE SWAP2 PUSH1 0x20 ADD SWAP2 PUSH2 0x271A JUMP JUMPDEST DUP3 ADD SWAP2 SWAP1 PUSH0 MSTORE PUSH1 0x20 PUSH0 KECCAK256 SWAP1 JUMPDEST DUP2 SLOAD DUP2 MSTORE SWAP1 PUSH1 0x1 ADD SWAP1 PUSH1 0x20 ADD DUP1 DUP4 GT PUSH2 0x26FD JUMPI DUP3 SWAP1 SUB PUSH1 0x1F AND DUP3 ADD SWAP2 JUMPDEST POP POP POP POP POP DUP2 MSTORE PUSH1 0x20 ADD SWAP1 PUSH1 0x1 ADD SWAP1 PUSH2 0x2686 JUMP JUMPDEST POP POP POP POP DUP2 MSTORE POP SWAP3 POP POP POP PUSH2 0x294C JUMP JUMPDEST DUP1 DUP1 PUSH1 0x1 ADD SWAP2 POP POP PUSH2 0x2533 JUMP JUMPDEST POP PUSH0 PUSH1 0x40 MLOAD DUP1 PUSH1 0x60 ADD PUSH1 0x40 MSTORE DUP1 PUSH1 0x23 DUP2 MSTORE PUSH1 0x20 ADD PUSH2 0x7FBD PUSH1 0x23 SWAP2 CODECOPY SWAP1 PUSH2 0x27A7 JUMPI PUSH1 0x40 MLOAD PUSH32 0x8C379A000000000000000000000000000000000000000000000000000000000 DUP2 MSTORE PUSH1 0x4 ADD PUSH2 0x279E SWAP2 SWAP1 PUSH2 0x6502 JUMP JUMPDEST PUSH1 0x40 MLOAD DUP1 SWAP2 SUB SWAP1 REVERT JUMPDEST POP PUSH1 0x60 PUSH0 PUSH1 0x40 MLOAD DUP1 PUSH2 0x100 ADD PUSH1 0x40 MSTORE DUP1 PUSH1 0x40 MLOAD DUP1 PUSH1 0x20 ADD PUSH1 0x40 MSTORE DUP1 PUSH0 DUP2 MSTORE POP DUP2 MSTORE PUSH1 0x20 ADD PUSH1 0x40 MLOAD DUP1 PUSH1 0x20 ADD PUSH1 0x40 MSTORE DUP1 PUSH0 DUP2 MSTORE POP DUP2 MSTORE PUSH1 0x20 ADD PUSH1 0x40 MLOAD DUP1 PUSH1 0x20 ADD PUSH1 0x40 MSTORE DUP1 PUSH0 DUP2 MSTORE POP DUP2 MSTORE PUSH1 0x20 ADD PUSH1 0x40 MLOAD DUP1 PUSH1 0x20 ADD PUSH1 0x40 MSTORE DUP1 PUSH0 DUP2 MSTORE POP DUP2 MSTORE PUSH1 0x20 ADD PUSH0 DUP2 MSTORE PUSH1 0x20 ADD PUSH0 DUP2 MSTORE PUSH1 0x20 ADD PUSH0 PUSH20 0xFFFFFFFFFFFFFFFFFFFFFFFFFFFFFFFFFFFFFFFF AND DUP2 MSTORE PUSH1 0x20 ADD PUSH1 0x40 MLOAD DUP1 PUSH1 0x20 ADD PUSH1 0x40 MSTORE DUP1 PUSH0 DUP2 MSTORE POP DUP2 MSTORE POP SWAP1 POP PUSH1 0x40 MLOAD DUP1 PUSH1 0x60 ADD PUSH1 0x40 MSTORE DUP1 DUP3 DUP2 MSTORE PUSH1 0x20 ADD DUP4 DUP2 MSTORE PUSH1 0x20 ADD PUSH1 0x11 DUP8 PUSH1 0x40 MLOAD PUSH2 0x286A SWAP2 SWAP1 PUSH2 0x6E01 JUMP JUMPDEST SWAP1 DUP2 MSTORE PUSH1 0x20 ADD PUSH1 0x40 MLOAD DUP1 SWAP2 SUB SWAP1 KECCAK256 DUP1 SLOAD DUP1 PUSH1 0x20 MUL PUSH1 0x20 ADD PUSH1 0x40 MLOAD SWAP1 DUP2 ADD PUSH1 0x40 MSTORE DUP1 SWAP3 SWAP2 SWAP1 DUP2 DUP2 MSTORE PUSH1 0x20 ADD PUSH0 SWAP1 JUMPDEST DUP3 DUP3 LT ISZERO PUSH2 0x293F JUMPI DUP4 DUP3 SWAP1 PUSH0 MSTORE PUSH1 0x20 PUSH0 KECCAK256 ADD DUP1 SLOAD PUSH2 0x28B4 SWAP1 PUSH2 0x6E44 JUMP JUMPDEST DUP1 PUSH1 0x1F ADD PUSH1 0x20 DUP1 SWAP2 DIV MUL PUSH1 0x20 ADD PUSH1 0x40 MLOAD SWAP1 DUP2 ADD PUSH1 0x40 MSTORE DUP1 SWAP3 SWAP2 SWAP1 DUP2 DUP2 MSTORE PUSH1 0x20 ADD DUP3 DUP1 SLOAD PUSH2 0x28E0 SWAP1 PUSH2 0x6E44 JUMP JUMPDEST DUP1 ISZERO PUSH2 0x292B JUMPI DUP1 PUSH1 0x1F LT PUSH2 0x2902 JUMPI PUSH2 0x100 DUP1 DUP4 SLOAD DIV MUL DUP4 MSTORE SWAP2 PUSH1 0x20 ADD SWAP2 PUSH2 0x292B JUMP JUMPDEST DUP3 ADD SWAP2 SWAP1 PUSH0 MSTORE PUSH1 0x20 PUSH0 KECCAK256 SWAP1 JUMPDEST DUP2 SLOAD DUP2 MSTORE SWAP1 PUSH1 0x1 ADD SWAP1 PUSH1 0x20 ADD DUP1 DUP4 GT PUSH2 0x290E JUMPI DUP3 SWAP1 SUB PUSH1 0x1F AND DUP3 ADD SWAP2 JUMPDEST POP POP POP POP POP DUP2 MSTORE PUSH1 0x20 ADD SWAP1 PUSH1 0x1 ADD SWAP1 PUSH2 0x2897 JUMP JUMPDEST POP POP POP POP DUP2 MSTORE POP SWAP4 POP POP POP POP JUMPDEST SWAP2 SWAP1 POP JUMP JUMPDEST PUSH0 PUSH1 0x9 PUSH0 DUP4 PUSH20 0xFFFFFFFFFFFFFFFFFFFFFFFFFFFFFFFFFFFFFFFF AND PUSH20 0xFFFFFFFFFFFFFFFFFFFFFFFFFFFFFFFFFFFFFFFF AND DUP2 MSTORE PUSH1 0x20 ADD SWAP1 DUP2 MSTORE PUSH1 0x20 ADD PUSH0 KECCAK256 DUP1 SLOAD SWAP1 POP SWAP1 POP PUSH0 PUSH1 0x3 PUSH0 DUP5 PUSH20 0xFFFFFFFFFFFFFFFFFFFFFFFFFFFFFFFFFFFFFFFF AND PUSH20 0xFFFFFFFFFFFFFFFFFFFFFFFFFFFFFFFFFFFFFFFF AND DUP2 MSTORE PUSH1 0x20 ADD SWAP1 DUP2 MSTORE PUSH1 0x20 ADD PUSH0 KECCAK256 PUSH1 0x2 ADD SLOAD SWAP1 POP PUSH0 DUP2 GT ISZERO PUSH2 0x2AAD JUMPI PUSH0 PUSH1 0x64 PUSH1 0xA DUP4 PUSH2 0x29F1 SWAP2 SWAP1 PUSH2 0x76FC JUMP JUMPDEST PUSH2 0x29FB SWAP2 SWAP1 PUSH2 0x763D JUMP JUMPDEST DUP4 PUSH2 0x2A06 SWAP2 SWAP1 PUSH2 0x76FC JUMP JUMPDEST SWAP1 POP DUP2 DUP2 GT ISZERO PUSH2 0x2A5A JUMPI PUSH0 PUSH1 0x3 PUSH0 DUP7 PUSH20 0xFFFFFFFFFFFFFFFFFFFFFFFFFFFFFFFFFFFFFFFF AND PUSH20 0xFFFFFFFFFFFFFFFFFFFFFFFFFFFFFFFFFFFFFFFF AND DUP2 MSTORE PUSH1 0x20 ADD SWAP1 DUP2 MSTORE PUSH1 0x20 ADD PUSH0 KECCAK256 PUSH1 0x2 ADD DUP2 SWAP1 SSTORE POP PUSH2 0x2AAB JUMP JUMPDEST DUP1 DUP3 PUSH2 0x2A66 SWAP2 SWAP1 PUSH2 0x773D JUMP JUMPDEST PUSH1 0x3 PUSH0 DUP7 PUSH20 0xFFFFFFFFFFFFFFFFFFFFFFFFFFFFFFFFFFFFFFFF AND PUSH20 0xFFFFFFFFFFFFFFFFFFFFFFFFFFFFFFFFFFFFFFFF AND DUP2 MSTORE PUSH1 0x20 ADD SWAP1 DUP2 MSTORE PUSH1 0x20 ADD PUSH0 KECCAK256 PUSH1 0x2 ADD DUP2 SWAP1 SSTORE POP JUMPDEST POP JUMPDEST POP POP POP JUMP JUMPDEST PUSH1 0x8 PUSH1 0x20 MSTORE DUP1 PUSH0 MSTORE PUSH1 0x40 PUSH0 KECCAK256 PUSH0 SWAP2 POP SLOAD SWAP1 PUSH2 0x100 EXP SWAP1 DIV PUSH1 0xFF AND DUP2 JUMP JUMPDEST PUSH2 0x2AD8 DUP2 PUSH2 0x2B82 JUMP JUMPDEST ISZERO PUSH2 0x2B18 JUMPI PUSH1 0x40 MLOAD PUSH32 0x8C379A000000000000000000000000000000000000000000000000000000000 DUP2 MSTORE PUSH1 0x4 ADD PUSH2 0x2B0F SWAP1 PUSH2 0x77BA JUMP JUMPDEST PUSH1 0x40 MLOAD DUP1 SWAP2 SUB SWAP1 REVERT JUMPDEST DUP1 PUSH20 0xFFFFFFFFFFFFFFFFFFFFFFFFFFFFFFFFFFFFFFFF AND PUSH2 0x8FC PUSH1 0xA SLOAD SWAP1 DUP2 ISZERO MUL SWAP1 PUSH1 0x40 MLOAD PUSH0 PUSH1 0x40 MLOAD DUP1 DUP4 SUB DUP2 DUP6 DUP9 DUP9 CALL SWAP4 POP POP POP POP ISZERO DUP1 ISZERO PUSH2 0x2B5D JUMPI RETURNDATASIZE PUSH0 DUP1 RETURNDATACOPY RETURNDATASIZE PUSH0 REVERT JUMPDEST POP POP JUMP JUMPDEST PUSH1 0x60 PUSH2 0x2B6C DUP3 PUSH2 0x41C0 JUMP JUMPDEST SWAP1 POP SWAP2 SWAP1 POP JUMP JUMPDEST PUSH1 0x60 PUSH2 0x2B7D PUSH2 0x4E26 JUMP JUMPDEST SWAP1 POP SWAP1 JUMP JUMPDEST PUSH0 PUSH1 0x8 PUSH0 DUP4 PUSH20 0xFFFFFFFFFFFFFFFFFFFFFFFFFFFFFFFFFFFFFFFF AND PUSH20 0xFFFFFFFFFFFFFFFFFFFFFFFFFFFFFFFFFFFFFFFF AND DUP2 MSTORE PUSH1 0x20 ADD SWAP1 DUP2 MSTORE PUSH1 0x20 ADD PUSH0 KECCAK256 PUSH0 SWAP1 SLOAD SWAP1 PUSH2 0x100 EXP SWAP1 DIV PUSH1 0xFF AND SWAP1 POP SWAP2 SWAP1 POP JUMP JUMPDEST PUSH2 0x2BDC PUSH2 0x576F JUMP JUMPDEST PUSH1 0xB PUSH0 DUP4 PUSH20 0xFFFFFFFFFFFFFFFFFFFFFFFFFFFFFFFFFFFFFFFF AND PUSH20 0xFFFFFFFFFFFFFFFFFFFFFFFFFFFFFFFFFFFFFFFF AND DUP2 MSTORE PUSH1 0x20 ADD SWAP1 DUP2 MSTORE PUSH1 0x20 ADD PUSH0 KECCAK256 PUSH0 ADD PUSH0 SWAP1 SLOAD SWAP1 PUSH2 0x100 EXP SWAP1 DIV PUSH1 0xFF AND PUSH2 0x2C67 JUMPI PUSH1 0x40 MLOAD PUSH32 0x8C379A000000000000000000000000000000000000000000000000000000000 DUP2 MSTORE PUSH1 0x4 ADD PUSH2 0x2C5E SWAP1 PUSH2 0x7282 JUMP JUMPDEST PUSH1 0x40 MLOAD DUP1 SWAP2 SUB SWAP1 REVERT JUMPDEST PUSH1 0xB PUSH0 DUP4 PUSH20 0xFFFFFFFFFFFFFFFFFFFFFFFFFFFFFFFFFFFFFFFF AND PUSH20 0xFFFFFFFFFFFFFFFFFFFFFFFFFFFFFFFFFFFFFFFF AND DUP2 MSTORE PUSH1 0x20 ADD SWAP1 DUP2 MSTORE PUSH1 0x20 ADD PUSH0 KECCAK256 PUSH1 0x40 MLOAD DUP1 PUSH1 0xA0 ADD PUSH1 0x40 MSTORE SWAP1 DUP2 PUSH0 DUP3 ADD PUSH0 SWAP1 SLOAD SWAP1 PUSH2 0x100 EXP SWAP1 DIV PUSH1 0xFF AND ISZERO ISZERO ISZERO ISZERO DUP2 MSTORE PUSH1 0x20 ADD PUSH0 DUP3 ADD PUSH1 0x1 SWAP1 SLOAD SWAP1 PUSH2 0x100 EXP SWAP1 DIV PUSH1 0xFF AND PUSH1 0x2 DUP2 GT ISZERO PUSH2 0x2CEC JUMPI PUSH2 0x2CEB PUSH2 0x660C JUMP JUMPDEST JUMPDEST PUSH1 0x2 DUP2 GT ISZERO PUSH2 0x2CFE JUMPI PUSH2 0x2CFD PUSH2 0x660C JUMP JUMPDEST JUMPDEST DUP2 MSTORE PUSH1 0x20 ADD PUSH1 0x1 DUP3 ADD SLOAD DUP2 MSTORE PUSH1 0x20 ADD PUSH1 0x2 DUP3 ADD SLOAD DUP2 MSTORE PUSH1 0x20 ADD PUSH1 0x3 DUP3 ADD SLOAD DUP2 MSTORE POP POP SWAP1 POP SWAP2 SWAP1 POP JUMP JUMPDEST PUSH0 SELFBALANCE SWAP1 POP SWAP1 JUMP JUMPDEST PUSH0 PUSH1 0xB PUSH0 CALLER PUSH20 0xFFFFFFFFFFFFFFFFFFFFFFFFFFFFFFFFFFFFFFFF AND PUSH20 0xFFFFFFFFFFFFFFFFFFFFFFFFFFFFFFFFFFFFFFFF AND DUP2 MSTORE PUSH1 0x20 ADD SWAP1 DUP2 MSTORE PUSH1 0x20 ADD PUSH0 KECCAK256 PUSH0 ADD PUSH0 SWAP1 SLOAD SWAP1 PUSH2 0x100 EXP SWAP1 DIV PUSH1 0xFF AND PUSH2 0x2DBA JUMPI PUSH1 0x40 MLOAD PUSH32 0x8C379A000000000000000000000000000000000000000000000000000000000 DUP2 MSTORE PUSH1 0x4 ADD PUSH2 0x2DB1 SWAP1 PUSH2 0x7282 JUMP JUMPDEST PUSH1 0x40 MLOAD DUP1 SWAP2 SUB SWAP1 REVERT JUMPDEST PUSH1 0xB PUSH0 CALLER PUSH20 0xFFFFFFFFFFFFFFFFFFFFFFFFFFFFFFFFFFFFFFFF AND PUSH20 0xFFFFFFFFFFFFFFFFFFFFFFFFFFFFFFFFFFFFFFFF AND DUP2 MSTORE PUSH1 0x20 ADD SWAP1 DUP2 MSTORE PUSH1 0x20 ADD PUSH0 KECCAK256 PUSH0 ADD PUSH1 0x1 SWAP1 SLOAD SWAP1 PUSH2 0x100 EXP SWAP1 DIV PUSH1 0xFF AND SWAP1 POP SWAP1 JUMP JUMPDEST PUSH0 PUSH4 0x3B9ACA00 DUP3 PUSH2 0x2E1D SWAP2 SWAP1 PUSH2 0x763D JUMP JUMPDEST SWAP1 POP SWAP2 SWAP1 POP JUMP JUMPDEST PUSH1 0xC PUSH1 0x20 MSTORE DUP2 PUSH0 MSTORE PUSH1 0x40 PUSH0 KECCAK256 DUP2 DUP2 SLOAD DUP2 LT PUSH2 0x2E3D JUMPI PUSH0 DUP1 REVERT JUMPDEST SWAP1 PUSH0 MSTORE PUSH1 0x20 PUSH0 KECCAK256 SWAP1 PUSH1 0x2 MUL ADD PUSH0 SWAP2 POP SWAP2 POP POP DUP1 PUSH0 ADD SLOAD SWAP1 DUP1 PUSH1 0x1 ADD SLOAD SWAP1 POP DUP3 JUMP JUMPDEST PUSH1 0x60 PUSH2 0x2E69 DUP3 PUSH2 0x3A35 JUMP JUMPDEST SWAP1 POP SWAP2 SWAP1 POP JUMP JUMPDEST PUSH1 0x6 DUP2 DUP2 SLOAD DUP2 LT PUSH2 0x2E7F JUMPI PUSH0 DUP1 REVERT JUMPDEST SWAP1 PUSH0 MSTORE PUSH1 0x20 PUSH0 KECCAK256 ADD PUSH0 SWAP2 POP SLOAD SWAP1 PUSH2 0x100 EXP SWAP1 DIV PUSH20 0xFFFFFFFFFFFFFFFFFFFFFFFFFFFFFFFFFFFFFFFF AND DUP2 JUMP JUMPDEST PUSH0 SELFBALANCE SWAP1 POP SWAP1 JUMP JUMPDEST PUSH0 PUSH2 0x2EBD DUP4 DUP4 PUSH2 0x5281 JUMP JUMPDEST SWAP1 POP SWAP3 SWAP2 POP POP JUMP JUMPDEST PUSH1 0xB PUSH1 0x20 MSTORE DUP1 PUSH0 MSTORE PUSH1 0x40 PUSH0 KECCAK256 PUSH0 SWAP2 POP SWAP1 POP DUP1 PUSH0 ADD PUSH0 SWAP1 SLOAD SWAP1 PUSH2 0x100 EXP SWAP1 DIV PUSH1 0xFF AND SWAP1 DUP1 PUSH0 ADD PUSH1 0x1 SWAP1 SLOAD SWAP1 PUSH2 0x100 EXP SWAP1 DIV PUSH1 0xFF AND SWAP1 DUP1 PUSH1 0x1 ADD SLOAD SWAP1 DUP1 PUSH1 0x2 ADD SLOAD SWAP1 DUP1 PUSH1 0x3 ADD SLOAD SWAP1 POP DUP6 JUMP JUMPDEST PUSH0 PUSH1 0x10 PUSH0 CALLER PUSH20 0xFFFFFFFFFFFFFFFFFFFFFFFFFFFFFFFFFFFFFFFF AND PUSH20 0xFFFFFFFFFFFFFFFFFFFFFFFFFFFFFFFFFFFFFFFF AND DUP2 MSTORE PUSH1 0x20 ADD SWAP1 DUP2 MSTORE PUSH1 0x20 ADD PUSH0 KECCAK256 DUP1 SLOAD SWAP1 POP GT PUSH1 0x40 MLOAD DUP1 PUSH1 0x40 ADD PUSH1 0x40 MSTORE DUP1 PUSH1 0x1B DUP2 MSTORE PUSH1 0x20 ADD PUSH32 0x64656C65746546696C653A20496E76616C69642066696C652069640000000000 DUP2 MSTORE POP SWAP1 PUSH2 0x2FC9 JUMPI PUSH1 0x40 MLOAD PUSH32 0x8C379A000000000000000000000000000000000000000000000000000000000 DUP2 MSTORE PUSH1 0x4 ADD PUSH2 0x2FC0 SWAP2 SWAP1 PUSH2 0x6502 JUMP JUMPDEST PUSH1 0x40 MLOAD DUP1 SWAP2 SUB SWAP1 REVERT JUMPDEST POP PUSH0 PUSH1 0x10 PUSH0 CALLER PUSH20 0xFFFFFFFFFFFFFFFFFFFFFFFFFFFFFFFFFFFFFFFF AND PUSH20 0xFFFFFFFFFFFFFFFFFFFFFFFFFFFFFFFFFFFFFFFF AND DUP2 MSTORE PUSH1 0x20 ADD SWAP1 DUP2 MSTORE PUSH1 0x20 ADD PUSH0 KECCAK256 DUP1 SLOAD DUP1 PUSH1 0x20 MUL PUSH1 0x20 ADD PUSH1 0x40 MLOAD SWAP1 DUP2 ADD PUSH1 0x40 MSTORE DUP1 SWAP3 SWAP2 SWAP1 DUP2 DUP2 MSTORE PUSH1 0x20 ADD PUSH0 SWAP1 JUMPDEST DUP3 DUP3 LT ISZERO PUSH2 0x3390 JUMPI DUP4 DUP3 SWAP1 PUSH0 MSTORE PUSH1 0x20 PUSH0 KECCAK256 SWAP1 PUSH1 0x8 MUL ADD PUSH1 0x40 MLOAD DUP1 PUSH2 0x100 ADD PUSH1 0x40 MSTORE SWAP1 DUP2 PUSH0 DUP3 ADD DUP1 SLOAD PUSH2 0x3058 SWAP1 PUSH2 0x6E44 JUMP JUMPDEST DUP1 PUSH1 0x1F ADD PUSH1 0x20 DUP1 SWAP2 DIV MUL PUSH1 0x20 ADD PUSH1 0x40 MLOAD SWAP1 DUP2 ADD PUSH1 0x40 MSTORE DUP1 SWAP3 SWAP2 SWAP1 DUP2 DUP2 MSTORE PUSH1 0x20 ADD DUP3 DUP1 SLOAD PUSH2 0x3084 SWAP1 PUSH2 0x6E44 JUMP JUMPDEST DUP1 ISZERO PUSH2 0x30CF JUMPI DUP1 PUSH1 0x1F LT PUSH2 0x30A6 JUMPI PUSH2 0x100 DUP1 DUP4 SLOAD DIV MUL DUP4 MSTORE SWAP2 PUSH1 0x20 ADD SWAP2 PUSH2 0x30CF JUMP JUMPDEST DUP3 ADD SWAP2 SWAP1 PUSH0 MSTORE PUSH1 0x20 PUSH0 KECCAK256 SWAP1 JUMPDEST DUP2 SLOAD DUP2 MSTORE SWAP1 PUSH1 0x1 ADD SWAP1 PUSH1 0x20 ADD DUP1 DUP4 GT PUSH2 0x30B2 JUMPI DUP3 SWAP1 SUB PUSH1 0x1F AND DUP3 ADD SWAP2 JUMPDEST POP POP POP POP POP DUP2 MSTORE PUSH1 0x20 ADD PUSH1 0x1 DUP3 ADD DUP1 SLOAD PUSH2 0x30E8 SWAP1 PUSH2 0x6E44 JUMP JUMPDEST DUP1 PUSH1 0x1F ADD PUSH1 0x20 DUP1 SWAP2 DIV MUL PUSH1 0x20 ADD PUSH1 0x40 MLOAD SWAP1 DUP2 ADD PUSH1 0x40 MSTORE DUP1 SWAP3 SWAP2 SWAP1 DUP2 DUP2 MSTORE PUSH1 0x20 ADD DUP3 DUP1 SLOAD PUSH2 0x3114 SWAP1 PUSH2 0x6E44 JUMP JUMPDEST DUP1 ISZERO PUSH2 0x315F JUMPI DUP1 PUSH1 0x1F LT PUSH2 0x3136 JUMPI PUSH2 0x100 DUP1 DUP4 SLOAD DIV MUL DUP4 MSTORE SWAP2 PUSH1 0x20 ADD SWAP2 PUSH2 0x315F JUMP JUMPDEST DUP3 ADD SWAP2 SWAP1 PUSH0 MSTORE PUSH1 0x20 PUSH0 KECCAK256 SWAP1 JUMPDEST DUP2 SLOAD DUP2 MSTORE SWAP1 PUSH1 0x1 ADD SWAP1 PUSH1 0x20 ADD DUP1 DUP4 GT PUSH2 0x3142 JUMPI DUP3 SWAP1 SUB PUSH1 0x1F AND DUP3 ADD SWAP2 JUMPDEST POP POP POP POP POP DUP2 MSTORE PUSH1 0x20 ADD PUSH1 0x2 DUP3 ADD DUP1 SLOAD PUSH2 0x3178 SWAP1 PUSH2 0x6E44 JUMP JUMPDEST DUP1 PUSH1 0x1F ADD PUSH1 0x20 DUP1 SWAP2 DIV MUL PUSH1 0x20 ADD PUSH1 0x40 MLOAD SWAP1 DUP2 ADD PUSH1 0x40 MSTORE DUP1 SWAP3 SWAP2 SWAP1 DUP2 DUP2 MSTORE PUSH1 0x20 ADD DUP3 DUP1 SLOAD PUSH2 0x31A4 SWAP1 PUSH2 0x6E44 JUMP JUMPDEST DUP1 ISZERO PUSH2 0x31EF JUMPI DUP1 PUSH1 0x1F LT PUSH2 0x31C6 JUMPI PUSH2 0x100 DUP1 DUP4 SLOAD DIV MUL DUP4 MSTORE SWAP2 PUSH1 0x20 ADD SWAP2 PUSH2 0x31EF JUMP JUMPDEST DUP3 ADD SWAP2 SWAP1 PUSH0 MSTORE PUSH1 0x20 PUSH0 KECCAK256 SWAP1 JUMPDEST DUP2 SLOAD DUP2 MSTORE SWAP1 PUSH1 0x1 ADD SWAP1 PUSH1 0x20 ADD DUP1 DUP4 GT PUSH2 0x31D2 JUMPI DUP3 SWAP1 SUB PUSH1 0x1F AND DUP3 ADD SWAP2 JUMPDEST POP POP POP POP POP DUP2 MSTORE PUSH1 0x20 ADD PUSH1 0x3 DUP3 ADD DUP1 SLOAD PUSH2 0x3208 SWAP1 PUSH2 0x6E44 JUMP JUMPDEST DUP1 PUSH1 0x1F ADD PUSH1 0x20 DUP1 SWAP2 DIV MUL PUSH1 0x20 ADD PUSH1 0x40 MLOAD SWAP1 DUP2 ADD PUSH1 0x40 MSTORE DUP1 SWAP3 SWAP2 SWAP1 DUP2 DUP2 MSTORE PUSH1 0x20 ADD DUP3 DUP1 SLOAD PUSH2 0x3234 SWAP1 PUSH2 0x6E44 JUMP JUMPDEST DUP1 ISZERO PUSH2 0x327F JUMPI DUP1 PUSH1 0x1F LT PUSH2 0x3256 JUMPI PUSH2 0x100 DUP1 DUP4 SLOAD DIV MUL DUP4 MSTORE SWAP2 PUSH1 0x20 ADD SWAP2 PUSH2 0x327F JUMP JUMPDEST DUP3 ADD SWAP2 SWAP1 PUSH0 MSTORE PUSH1 0x20 PUSH0 KECCAK256 SWAP1 JUMPDEST DUP2 SLOAD DUP2 MSTORE SWAP1 PUSH1 0x1 ADD SWAP1 PUSH1 0x20 ADD DUP1 DUP4 GT PUSH2 0x3262 JUMPI DUP3 SWAP1 SUB PUSH1 0x1F AND DUP3 ADD SWAP2 JUMPDEST POP POP POP POP POP DUP2 MSTORE PUSH1 0x20 ADD PUSH1 0x4 DUP3 ADD SLOAD DUP2 MSTORE PUSH1 0x20 ADD PUSH1 0x5 DUP3 ADD SLOAD DUP2 MSTORE PUSH1 0x20 ADD PUSH1 0x6 DUP3 ADD PUSH0 SWAP1 SLOAD SWAP1 PUSH2 0x100 EXP SWAP1 DIV PUSH20 0xFFFFFFFFFFFFFFFFFFFFFFFFFFFFFFFFFFFFFFFF AND PUSH20 0xFFFFFFFFFFFFFFFFFFFFFFFFFFFFFFFFFFFFFFFF AND PUSH20 0xFFFFFFFFFFFFFFFFFFFFFFFFFFFFFFFFFFFFFFFF AND DUP2 MSTORE PUSH1 0x20 ADD PUSH1 0x7 DUP3 ADD DUP1 SLOAD PUSH2 0x3301 SWAP1 PUSH2 0x6E44 JUMP JUMPDEST DUP1 PUSH1 0x1F ADD PUSH1 0x20 DUP1 SWAP2 DIV MUL PUSH1 0x20 ADD PUSH1 0x40 MLOAD SWAP1 DUP2 ADD PUSH1 0x40 MSTORE DUP1 SWAP3 SWAP2 SWAP1 DUP2 DUP2 MSTORE PUSH1 0x20 ADD DUP3 DUP1 SLOAD PUSH2 0x332D SWAP1 PUSH2 0x6E44 JUMP JUMPDEST DUP1 ISZERO PUSH2 0x3378 JUMPI DUP1 PUSH1 0x1F LT PUSH2 0x334F JUMPI PUSH2 0x100 DUP1 DUP4 SLOAD DIV MUL DUP4 MSTORE SWAP2 PUSH1 0x20 ADD SWAP2 PUSH2 0x3378 JUMP JUMPDEST DUP3 ADD SWAP2 SWAP1 PUSH0 MSTORE PUSH1 0x20 PUSH0 KECCAK256 SWAP1 JUMPDEST DUP2 SLOAD DUP2 MSTORE SWAP1 PUSH1 0x1 ADD SWAP1 PUSH1 0x20 ADD DUP1 DUP4 GT PUSH2 0x335B JUMPI DUP3 SWAP1 SUB PUSH1 0x1F AND DUP3 ADD SWAP2 JUMPDEST POP POP POP POP POP DUP2 MSTORE POP POP DUP2 MSTORE PUSH1 0x20 ADD SWAP1 PUSH1 0x1 ADD SWAP1 PUSH2 0x3027 JUMP JUMPDEST POP POP POP POP SWAP1 POP PUSH0 PUSH1 0x1 DUP3 MLOAD PUSH2 0x33A5 SWAP2 SWAP1 PUSH2 0x773D JUMP JUMPDEST SWAP1 POP PUSH0 DUP3 DUP3 DUP2 MLOAD DUP2 LT PUSH2 0x33BB JUMPI PUSH2 0x33BA PUSH2 0x6D9A JUMP JUMPDEST JUMPDEST PUSH1 0x20 MUL PUSH1 0x20 ADD ADD MLOAD SWAP1 POP PUSH2 0x33CD PUSH2 0x57AD JUMP JUMPDEST PUSH0 DUP1 JUMPDEST DUP6 MLOAD DUP2 LT ISZERO PUSH2 0x3559 JUMPI PUSH2 0x3400 DUP7 DUP3 DUP2 MLOAD DUP2 LT PUSH2 0x33EF JUMPI PUSH2 0x33EE PUSH2 0x6D9A JUMP JUMPDEST JUMPDEST PUSH1 0x20 MUL PUSH1 0x20 ADD ADD MLOAD PUSH0 ADD MLOAD DUP9 PUSH2 0x39DD JUMP JUMPDEST ISZERO PUSH2 0x354C JUMPI PUSH1 0x1 SWAP2 POP DUP6 DUP2 DUP2 MLOAD DUP2 LT PUSH2 0x341C JUMPI PUSH2 0x341B PUSH2 0x6D9A JUMP JUMPDEST JUMPDEST PUSH1 0x20 MUL PUSH1 0x20 ADD ADD MLOAD SWAP3 POP DUP4 PUSH1 0x10 PUSH0 CALLER PUSH20 0xFFFFFFFFFFFFFFFFFFFFFFFFFFFFFFFFFFFFFFFF AND PUSH20 0xFFFFFFFFFFFFFFFFFFFFFFFFFFFFFFFFFFFFFFFF AND DUP2 MSTORE PUSH1 0x20 ADD SWAP1 DUP2 MSTORE PUSH1 0x20 ADD PUSH0 KECCAK256 DUP3 DUP2 SLOAD DUP2 LT PUSH2 0x3476 JUMPI PUSH2 0x3475 PUSH2 0x6D9A JUMP JUMPDEST JUMPDEST SWAP1 PUSH0 MSTORE PUSH1 0x20 PUSH0 KECCAK256 SWAP1 PUSH1 0x8 MUL ADD PUSH0 DUP3 ADD MLOAD DUP2 PUSH0 ADD SWAP1 DUP2 PUSH2 0x3495 SWAP2 SWAP1 PUSH2 0x7011 JUMP JUMPDEST POP PUSH1 0x20 DUP3 ADD MLOAD DUP2 PUSH1 0x1 ADD SWAP1 DUP2 PUSH2 0x34AB SWAP2 SWAP1 PUSH2 0x7011 JUMP JUMPDEST POP PUSH1 0x40 DUP3 ADD MLOAD DUP2 PUSH1 0x2 ADD SWAP1 DUP2 PUSH2 0x34C1 SWAP2 SWAP1 PUSH2 0x7011 JUMP JUMPDEST POP PUSH1 0x60 DUP3 ADD MLOAD DUP2 PUSH1 0x3 ADD SWAP1 DUP2 PUSH2 0x34D7 SWAP2 SWAP1 PUSH2 0x7011 JUMP JUMPDEST POP PUSH1 0x80 DUP3 ADD MLOAD DUP2 PUSH1 0x4 ADD SSTORE PUSH1 0xA0 DUP3 ADD MLOAD DUP2 PUSH1 0x5 ADD SSTORE PUSH1 0xC0 DUP3 ADD MLOAD DUP2 PUSH1 0x6 ADD PUSH0 PUSH2 0x100 EXP DUP2 SLOAD DUP2 PUSH20 0xFFFFFFFFFFFFFFFFFFFFFFFFFFFFFFFFFFFFFFFF MUL NOT AND SWAP1 DUP4 PUSH20 0xFFFFFFFFFFFFFFFFFFFFFFFFFFFFFFFFFFFFFFFF AND MUL OR SWAP1 SSTORE POP PUSH1 0xE0 DUP3 ADD MLOAD DUP2 PUSH1 0x7 ADD SWAP1 DUP2 PUSH2 0x3547 SWAP2 SWAP1 PUSH2 0x7011 JUMP JUMPDEST POP SWAP1 POP POP JUMPDEST DUP1 DUP1 PUSH1 0x1 ADD SWAP2 POP POP PUSH2 0x33D0 JUMP JUMPDEST POP DUP1 PUSH1 0x40 MLOAD DUP1 PUSH1 0x40 ADD PUSH1 0x40 MSTORE DUP1 PUSH1 0x1A DUP2 MSTORE PUSH1 0x20 ADD PUSH32 0x64656C65746546696C653A2046696C65204E6F7420666F756E64000000000000 DUP2 MSTORE POP SWAP1 PUSH2 0x35D2 JUMPI PUSH1 0x40 MLOAD PUSH32 0x8C379A000000000000000000000000000000000000000000000000000000000 DUP2 MSTORE PUSH1 0x4 ADD PUSH2 0x35C9 SWAP2 SWAP1 PUSH2 0x6502 JUMP JUMPDEST PUSH1 0x40 MLOAD DUP1 SWAP2 SUB SWAP1 REVERT JUMPDEST POP DUP2 PUSH1 0x10 PUSH0 CALLER PUSH20 0xFFFFFFFFFFFFFFFFFFFFFFFFFFFFFFFFFFFFFFFF AND PUSH20 0xFFFFFFFFFFFFFFFFFFFFFFFFFFFFFFFFFFFFFFFF AND DUP2 MSTORE PUSH1 0x20 ADD SWAP1 DUP2 MSTORE PUSH1 0x20 ADD PUSH0 KECCAK256 DUP6 DUP2 SLOAD DUP2 LT PUSH2 0x3623 JUMPI PUSH2 0x3622 PUSH2 0x6D9A JUMP JUMPDEST JUMPDEST SWAP1 PUSH0 MSTORE PUSH1 0x20 PUSH0 KECCAK256 SWAP1 PUSH1 0x8 MUL ADD PUSH0 DUP3 ADD MLOAD DUP2 PUSH0 ADD SWAP1 DUP2 PUSH2 0x3642 SWAP2 SWAP1 PUSH2 0x7011 JUMP JUMPDEST POP PUSH1 0x20 DUP3 ADD MLOAD DUP2 PUSH1 0x1 ADD SWAP1 DUP2 PUSH2 0x3658 SWAP2 SWAP1 PUSH2 0x7011 JUMP JUMPDEST POP PUSH1 0x40 DUP3 ADD MLOAD DUP2 PUSH1 0x2 ADD SWAP1 DUP2 PUSH2 0x366E SWAP2 SWAP1 PUSH2 0x7011 JUMP JUMPDEST POP PUSH1 0x60 DUP3 ADD MLOAD DUP2 PUSH1 0x3 ADD SWAP1 DUP2 PUSH2 0x3684 SWAP2 SWAP1 PUSH2 0x7011 JUMP JUMPDEST POP PUSH1 0x80 DUP3 ADD MLOAD DUP2 PUSH1 0x4 ADD SSTORE PUSH1 0xA0 DUP3 ADD MLOAD DUP2 PUSH1 0x5 ADD SSTORE PUSH1 0xC0 DUP3 ADD MLOAD DUP2 PUSH1 0x6 ADD PUSH0 PUSH2 0x100 EXP DUP2 SLOAD DUP2 PUSH20 0xFFFFFFFFFFFFFFFFFFFFFFFFFFFFFFFFFFFFFFFF MUL NOT AND SWAP1 DUP4 PUSH20 0xFFFFFFFFFFFFFFFFFFFFFFFFFFFFFFFFFFFFFFFF AND MUL OR SWAP1 SSTORE POP PUSH1 0xE0 DUP3 ADD MLOAD DUP2 PUSH1 0x7 ADD SWAP1 DUP2 PUSH2 0x36F4 SWAP2 SWAP1 PUSH2 0x7011 JUMP JUMPDEST POP SWAP1 POP POP PUSH1 0x10 PUSH0 CALLER PUSH20 0xFFFFFFFFFFFFFFFFFFFFFFFFFFFFFFFFFFFFFFFF AND PUSH20 0xFFFFFFFFFFFFFFFFFFFFFFFFFFFFFFFFFFFFFFFF AND DUP2 MSTORE PUSH1 0x20 ADD SWAP1 DUP2 MSTORE PUSH1 0x20 ADD PUSH0 KECCAK256 DUP1 SLOAD DUP1 PUSH2 0x3745 JUMPI PUSH2 0x3744 PUSH2 0x77D8 JUMP JUMPDEST JUMPDEST PUSH1 0x1 SWAP1 SUB DUP2 DUP2 SWAP1 PUSH0 MSTORE PUSH1 0x20 PUSH0 KECCAK256 SWAP1 PUSH1 0x8 MUL ADD PUSH0 DUP1 DUP3 ADD PUSH0 PUSH2 0x3766 SWAP2 SWAP1 PUSH2 0x5805 JUMP JUMPDEST PUSH1 0x1 DUP3 ADD PUSH0 PUSH2 0x3775 SWAP2 SWAP1 PUSH2 0x5805 JUMP JUMPDEST PUSH1 0x2 DUP3 ADD PUSH0 PUSH2 0x3784 SWAP2 SWAP1 PUSH2 0x5805 JUMP JUMPDEST PUSH1 0x3 DUP3 ADD PUSH0 PUSH2 0x3793 SWAP2 SWAP1 PUSH2 0x5805 JUMP JUMPDEST PUSH1 0x4 DUP3 ADD PUSH0 SWAP1 SSTORE PUSH1 0x5 DUP3 ADD PUSH0 SWAP1 SSTORE PUSH1 0x6 DUP3 ADD PUSH0 PUSH2 0x100 EXP DUP2 SLOAD SWAP1 PUSH20 0xFFFFFFFFFFFFFFFFFFFFFFFFFFFFFFFFFFFFFFFF MUL NOT AND SWAP1 SSTORE PUSH1 0x7 DUP3 ADD PUSH0 PUSH2 0x37D6 SWAP2 SWAP1 PUSH2 0x5805 JUMP JUMPDEST POP POP SWAP1 SSTORE PUSH2 0x37E3 DUP7 PUSH2 0x5338 JUMP JUMPDEST PUSH2 0x37EC DUP7 PUSH2 0x53A7 JUMP JUMPDEST PUSH32 0x8598A19145BA7B62366F9F3E3CECA438DF1E575FFA3BEF982ED120041131D786 CALLER DUP8 PUSH1 0x40 MLOAD PUSH2 0x381D SWAP3 SWAP2 SWAP1 PUSH2 0x7805 JUMP JUMPDEST PUSH1 0x40 MLOAD DUP1 SWAP2 SUB SWAP1 LOG1 POP POP POP POP POP POP JUMP JUMPDEST PUSH0 PUSH2 0x3836 PUSH2 0x2EAB JUMP JUMPDEST SWAP1 POP PUSH0 PUSH1 0x64 PUSH1 0x46 DUP4 PUSH2 0x3848 SWAP2 SWAP1 PUSH2 0x76FC JUMP JUMPDEST PUSH2 0x3852 SWAP2 SWAP1 PUSH2 0x763D JUMP JUMPDEST SWAP1 POP PUSH0 PUSH1 0x64 PUSH1 0x2 DUP5 PUSH2 0x3864 SWAP2 SWAP1 PUSH2 0x76FC JUMP JUMPDEST PUSH2 0x386E SWAP2 SWAP1 PUSH2 0x763D JUMP JUMPDEST SWAP1 POP PUSH0 DUP2 DUP4 DUP6 PUSH2 0x387E SWAP2 SWAP1 PUSH2 0x773D JUMP JUMPDEST PUSH2 0x3888 SWAP2 SWAP1 PUSH2 0x773D JUMP JUMPDEST SWAP1 POP PUSH0 PUSH1 0x6 DUP1 SLOAD SWAP1 POP DUP5 PUSH2 0x389C SWAP2 SWAP1 PUSH2 0x763D JUMP JUMPDEST SWAP1 POP PUSH0 JUMPDEST PUSH1 0x6 DUP1 SLOAD SWAP1 POP DUP2 LT ISZERO PUSH2 0x3904 JUMPI PUSH0 PUSH1 0x6 DUP3 DUP2 SLOAD DUP2 LT PUSH2 0x38C2 JUMPI PUSH2 0x38C1 PUSH2 0x6D9A JUMP JUMPDEST JUMPDEST SWAP1 PUSH0 MSTORE PUSH1 0x20 PUSH0 KECCAK256 ADD PUSH0 SWAP1 SLOAD SWAP1 PUSH2 0x100 EXP SWAP1 DIV PUSH20 0xFFFFFFFFFFFFFFFFFFFFFFFFFFFFFFFFFFFFFFFF AND SWAP1 POP PUSH2 0x38F6 DUP2 DUP5 PUSH2 0x134B JUMP JUMPDEST POP DUP1 DUP1 PUSH1 0x1 ADD SWAP2 POP POP PUSH2 0x38A0 JUMP JUMPDEST POP PUSH1 0x6 PUSH0 PUSH2 0x3912 SWAP2 SWAP1 PUSH2 0x572A JUMP JUMPDEST PUSH0 PUSH1 0x7 DUP1 SLOAD SWAP1 POP DUP4 PUSH2 0x3924 SWAP2 SWAP1 PUSH2 0x763D JUMP JUMPDEST SWAP1 POP PUSH0 JUMPDEST PUSH1 0x7 DUP1 SLOAD SWAP1 POP DUP2 LT ISZERO PUSH2 0x398C JUMPI PUSH0 PUSH1 0x7 DUP3 DUP2 SLOAD DUP2 LT PUSH2 0x394A JUMPI PUSH2 0x3949 PUSH2 0x6D9A JUMP JUMPDEST JUMPDEST SWAP1 PUSH0 MSTORE PUSH1 0x20 PUSH0 KECCAK256 ADD PUSH0 SWAP1 SLOAD SWAP1 PUSH2 0x100 EXP SWAP1 DIV PUSH20 0xFFFFFFFFFFFFFFFFFFFFFFFFFFFFFFFFFFFFFFFF AND SWAP1 POP PUSH2 0x397E DUP2 DUP5 PUSH2 0x134B JUMP JUMPDEST POP DUP1 DUP1 PUSH1 0x1 ADD SWAP2 POP POP PUSH2 0x3928 JUMP JUMPDEST POP PUSH1 0x7 PUSH0 PUSH2 0x399A SWAP2 SWAP1 PUSH2 0x572A JUMP JUMPDEST POP POP POP POP POP POP JUMP JUMPDEST PUSH0 PUSH2 0x400 PUSH4 0x3B9ACA00 DUP4 PUSH2 0x39B6 SWAP2 SWAP1 PUSH2 0x76FC JUMP JUMPDEST PUSH2 0x39C0 SWAP2 SWAP1 PUSH2 0x76FC JUMP JUMPDEST SWAP1 POP SWAP2 SWAP1 POP JUMP JUMPDEST PUSH2 0x39D5 DUP7 DUP7 DUP7 DUP7 DUP7 DUP7 PUSH2 0x47A0 JUMP JUMPDEST POP POP POP POP POP POP JUMP JUMPDEST PUSH0 DUP2 PUSH1 0x40 MLOAD PUSH1 0x20 ADD PUSH2 0x39EF SWAP2 SWAP1 PUSH2 0x6E01 JUMP JUMPDEST PUSH1 0x40 MLOAD PUSH1 0x20 DUP2 DUP4 SUB SUB DUP2 MSTORE SWAP1 PUSH1 0x40 MSTORE DUP1 MLOAD SWAP1 PUSH1 0x20 ADD KECCAK256 DUP4 PUSH1 0x40 MLOAD PUSH1 0x20 ADD PUSH2 0x3A16 SWAP2 SWAP1 PUSH2 0x6E01 JUMP JUMPDEST PUSH1 0x40 MLOAD PUSH1 0x20 DUP2 DUP4 SUB SUB DUP2 MSTORE SWAP1 PUSH1 0x40 MSTORE DUP1 MLOAD SWAP1 PUSH1 0x20 ADD KECCAK256 EQ SWAP1 POP SWAP3 SWAP2 POP POP JUMP JUMPDEST PUSH1 0x60 PUSH0 PUSH1 0x4 DUP4 PUSH1 0x40 MLOAD PUSH2 0x3A48 SWAP2 SWAP1 PUSH2 0x6E01 JUMP JUMPDEST SWAP1 DUP2 MSTORE PUSH1 0x20 ADD PUSH1 0x40 MLOAD DUP1 SWAP2 SUB SWAP1 KECCAK256 DUP1 SLOAD SWAP1 POP GT PUSH2 0x3A9A JUMPI PUSH1 0x40 MLOAD PUSH32 0x8C379A000000000000000000000000000000000000000000000000000000000 DUP2 MSTORE PUSH1 0x4 ADD PUSH2 0x3A91 SWAP1 PUSH2 0x78C9 JUMP JUMPDEST PUSH1 0x40 MLOAD DUP1 SWAP2 SUB SWAP1 REVERT JUMPDEST PUSH0 JUMPDEST PUSH1 0x4 DUP4 PUSH1 0x40 MLOAD PUSH2 0x3AAC SWAP2 SWAP1 PUSH2 0x6E01 JUMP JUMPDEST SWAP1 DUP2 MSTORE PUSH1 0x20 ADD PUSH1 0x40 MLOAD DUP1 SWAP2 SUB SWAP1 KECCAK256 DUP1 SLOAD SWAP1 POP DUP2 LT ISZERO PUSH2 0x3C20 JUMPI PUSH0 PUSH1 0x4 DUP5 PUSH1 0x40 MLOAD PUSH2 0x3AD6 SWAP2 SWAP1 PUSH2 0x6E01 JUMP JUMPDEST SWAP1 DUP2 MSTORE PUSH1 0x20 ADD PUSH1 0x40 MLOAD DUP1 SWAP2 SUB SWAP1 KECCAK256 DUP3 DUP2 SLOAD DUP2 LT PUSH2 0x3AF6 JUMPI PUSH2 0x3AF5 PUSH2 0x6D9A JUMP JUMPDEST JUMPDEST SWAP1 PUSH0 MSTORE PUSH1 0x20 PUSH0 KECCAK256 ADD PUSH0 SWAP1 SLOAD SWAP1 PUSH2 0x100 EXP SWAP1 DIV PUSH20 0xFFFFFFFFFFFFFFFFFFFFFFFFFFFFFFFFFFFFFFFF AND SWAP1 POP PUSH2 0x3BAD DUP2 PUSH1 0x7 DUP1 SLOAD DUP1 PUSH1 0x20 MUL PUSH1 0x20 ADD PUSH1 0x40 MLOAD SWAP1 DUP2 ADD PUSH1 0x40 MSTORE DUP1 SWAP3 SWAP2 SWAP1 DUP2 DUP2 MSTORE PUSH1 0x20 ADD DUP3 DUP1 SLOAD DUP1 ISZERO PUSH2 0x3BA3 JUMPI PUSH1 0x20 MUL DUP3 ADD SWAP2 SWAP1 PUSH0 MSTORE PUSH1 0x20 PUSH0 KECCAK256 SWAP1 JUMPDEST DUP2 PUSH0 SWAP1 SLOAD SWAP1 PUSH2 0x100 EXP SWAP1 DIV PUSH20 0xFFFFFFFFFFFFFFFFFFFFFFFFFFFFFFFFFFFFFFFF AND PUSH20 0xFFFFFFFFFFFFFFFFFFFFFFFFFFFFFFFFFFFFFFFF AND DUP2 MSTORE PUSH1 0x20 ADD SWAP1 PUSH1 0x1 ADD SWAP1 DUP1 DUP4 GT PUSH2 0x3B5A JUMPI JUMPDEST POP POP POP POP POP PUSH2 0x5482 JUMP JUMPDEST PUSH2 0x3C12 JUMPI PUSH1 0x7 DUP2 SWAP1 DUP1 PUSH1 0x1 DUP2 SLOAD ADD DUP1 DUP3 SSTORE DUP1 SWAP2 POP POP PUSH1 0x1 SWAP1 SUB SWAP1 PUSH0 MSTORE PUSH1 0x20 PUSH0 KECCAK256 ADD PUSH0 SWAP1 SWAP2 SWAP1 SWAP2 SWAP1 SWAP2 PUSH2 0x100 EXP DUP2 SLOAD DUP2 PUSH20 0xFFFFFFFFFFFFFFFFFFFFFFFFFFFFFFFFFFFFFFFF MUL NOT AND SWAP1 DUP4 PUSH20 0xFFFFFFFFFFFFFFFFFFFFFFFFFFFFFFFFFFFFFFFF AND MUL OR SWAP1 SSTORE POP JUMPDEST POP DUP1 DUP1 PUSH1 0x1 ADD SWAP2 POP POP PUSH2 0x3A9C JUMP JUMPDEST POP PUSH1 0x4 DUP3 PUSH1 0x40 MLOAD PUSH2 0x3C31 SWAP2 SWAP1 PUSH2 0x6E01 JUMP JUMPDEST SWAP1 DUP2 MSTORE PUSH1 0x20 ADD PUSH1 0x40 MLOAD DUP1 SWAP2 SUB SWAP1 KECCAK256 DUP1 SLOAD DUP1 PUSH1 0x20 MUL PUSH1 0x20 ADD PUSH1 0x40 MLOAD SWAP1 DUP2 ADD PUSH1 0x40 MSTORE DUP1 SWAP3 SWAP2 SWAP1 DUP2 DUP2 MSTORE PUSH1 0x20 ADD DUP3 DUP1 SLOAD DUP1 ISZERO PUSH2 0x3CBC JUMPI PUSH1 0x20 MUL DUP3 ADD SWAP2 SWAP1 PUSH0 MSTORE PUSH1 0x20 PUSH0 KECCAK256 SWAP1 JUMPDEST DUP2 PUSH0 SWAP1 SLOAD SWAP1 PUSH2 0x100 EXP SWAP1 DIV PUSH20 0xFFFFFFFFFFFFFFFFFFFFFFFFFFFFFFFFFFFFFFFF AND PUSH20 0xFFFFFFFFFFFFFFFFFFFFFFFFFFFFFFFFFFFFFFFF AND DUP2 MSTORE PUSH1 0x20 ADD SWAP1 PUSH1 0x1 ADD SWAP1 DUP1 DUP4 GT PUSH2 0x3C73 JUMPI JUMPDEST POP POP POP POP POP SWAP1 POP SWAP2 SWAP1 POP JUMP JUMPDEST PUSH0 SELFBALANCE SWAP1 POP SWAP1 JUMP JUMPDEST PUSH0 DUP1 PUSH1 0x5 DUP1 SLOAD SWAP1 POP SWAP1 POP PUSH0 PUSH1 0x32 SWAP1 POP PUSH0 DUP3 SUB PUSH2 0x3CEF JUMPI PUSH0 SWAP3 POP POP POP PUSH2 0x3EA1 JUMP JUMPDEST PUSH0 DUP3 PUSH1 0x1 NUMBER PUSH2 0x3CFE SWAP2 SWAP1 PUSH2 0x773D JUMP JUMPDEST BLOCKHASH PUSH0 SHR PUSH2 0x3D0B SWAP2 SWAP1 PUSH2 0x78E7 JUMP JUMPDEST SWAP1 POP PUSH0 DUP1 PUSH0 PUSH1 0x50 SWAP1 POP PUSH1 0x5 DUP1 SLOAD SWAP1 POP DUP9 MLOAD SUB PUSH2 0x3D2F JUMPI PUSH0 SWAP7 POP POP POP POP POP POP POP PUSH2 0x3EA1 JUMP JUMPDEST JUMPDEST DUP1 DUP3 LT ISZERO PUSH2 0x3E97 JUMPI PUSH0 PUSH1 0x5 DUP8 DUP6 DUP8 PUSH2 0x3D48 SWAP2 SWAP1 PUSH2 0x6B55 JUMP JUMPDEST PUSH2 0x3D52 SWAP2 SWAP1 PUSH2 0x78E7 JUMP JUMPDEST DUP2 SLOAD DUP2 LT PUSH2 0x3D63 JUMPI PUSH2 0x3D62 PUSH2 0x6D9A JUMP JUMPDEST JUMPDEST SWAP1 PUSH0 MSTORE PUSH1 0x20 PUSH0 KECCAK256 ADD PUSH0 SWAP1 SLOAD SWAP1 PUSH2 0x100 EXP SWAP1 DIV PUSH20 0xFFFFFFFFFFFFFFFFFFFFFFFFFFFFFFFFFFFFFFFF AND SWAP1 POP DUP6 DUP11 PUSH2 0x3D99 SWAP2 SWAP1 PUSH2 0x6B55 JUMP JUMPDEST PUSH1 0x3 PUSH0 DUP4 PUSH20 0xFFFFFFFFFFFFFFFFFFFFFFFFFFFFFFFFFFFFFFFF AND PUSH20 0xFFFFFFFFFFFFFFFFFFFFFFFFFFFFFFFFFFFFFFFF AND DUP2 MSTORE PUSH1 0x20 ADD SWAP1 DUP2 MSTORE PUSH1 0x20 ADD PUSH0 KECCAK256 PUSH1 0x1 ADD SLOAD GT ISZERO PUSH2 0x3E6A JUMPI PUSH0 PUSH1 0x1 SWAP1 POP PUSH0 JUMPDEST DUP11 MLOAD DUP2 LT ISZERO PUSH2 0x3E4E JUMPI DUP3 PUSH20 0xFFFFFFFFFFFFFFFFFFFFFFFFFFFFFFFFFFFFFFFF AND DUP12 DUP3 DUP2 MLOAD DUP2 LT PUSH2 0x3E1A JUMPI PUSH2 0x3E19 PUSH2 0x6D9A JUMP JUMPDEST JUMPDEST PUSH1 0x20 MUL PUSH1 0x20 ADD ADD MLOAD PUSH20 0xFFFFFFFFFFFFFFFFFFFFFFFFFFFFFFFFFFFFFFFF AND SUB PUSH2 0x3E41 JUMPI PUSH0 SWAP2 POP JUMPDEST DUP1 DUP1 PUSH1 0x1 ADD SWAP2 POP POP PUSH2 0x3DE7 JUMP JUMPDEST POP DUP1 ISZERO PUSH2 0x3E68 JUMPI DUP3 SWAP4 POP DUP2 SWAP9 POP POP POP POP POP POP POP POP POP PUSH2 0x3EA1 JUMP JUMPDEST POP JUMPDEST DUP4 DUP1 PUSH2 0x3E75 SWAP1 PUSH2 0x70E0 JUMP JUMPDEST SWAP5 POP POP DUP3 DUP1 PUSH2 0x3E83 SWAP1 PUSH2 0x70E0 JUMP JUMPDEST SWAP4 POP POP DUP7 DUP5 SUB PUSH2 0x3E91 JUMPI PUSH0 SWAP4 POP JUMPDEST POP PUSH2 0x3D30 JUMP JUMPDEST PUSH0 SWAP7 POP POP POP POP POP POP POP JUMPDEST SWAP3 SWAP2 POP POP JUMP JUMPDEST PUSH1 0x60 PUSH2 0x3EB1 PUSH2 0x5500 JUMP JUMPDEST SWAP1 POP SWAP1 JUMP JUMPDEST PUSH2 0x3EBF DUP2 PUSH2 0x53A7 JUMP JUMPDEST POP JUMP JUMPDEST PUSH2 0x3ECA PUSH2 0x5842 JUMP JUMPDEST PUSH2 0x3ED3 DUP3 PUSH2 0x558B JUMP JUMPDEST SWAP1 POP SWAP2 SWAP1 POP JUMP JUMPDEST PUSH1 0x9 PUSH1 0x20 MSTORE DUP2 PUSH0 MSTORE PUSH1 0x40 PUSH0 KECCAK256 DUP2 DUP2 SLOAD DUP2 LT PUSH2 0x3EF3 JUMPI PUSH0 DUP1 REVERT JUMPDEST SWAP1 PUSH0 MSTORE PUSH1 0x20 PUSH0 KECCAK256 ADD PUSH0 SWAP2 POP SWAP2 POP POP SLOAD DUP2 JUMP JUMPDEST PUSH1 0xB PUSH0 CALLER PUSH20 0xFFFFFFFFFFFFFFFFFFFFFFFFFFFFFFFFFFFFFFFF AND PUSH20 0xFFFFFFFFFFFFFFFFFFFFFFFFFFFFFFFFFFFFFFFF AND DUP2 MSTORE PUSH1 0x20 ADD SWAP1 DUP2 MSTORE PUSH1 0x20 ADD PUSH0 KECCAK256 PUSH0 ADD PUSH0 SWAP1 SLOAD SWAP1 PUSH2 0x100 EXP SWAP1 DIV PUSH1 0xFF AND PUSH2 0x3F90 JUMPI PUSH1 0x40 MLOAD PUSH32 0x8C379A000000000000000000000000000000000000000000000000000000000 DUP2 MSTORE PUSH1 0x4 ADD PUSH2 0x3F87 SWAP1 PUSH2 0x7282 JUMP JUMPDEST PUSH1 0x40 MLOAD DUP1 SWAP2 SUB SWAP1 REVERT JUMPDEST PUSH1 0x2 DUP1 DUP2 GT ISZERO PUSH2 0x3FA3 JUMPI PUSH2 0x3FA2 PUSH2 0x660C JUMP JUMPDEST JUMPDEST PUSH1 0xB PUSH0 CALLER PUSH20 0xFFFFFFFFFFFFFFFFFFFFFFFFFFFFFFFFFFFFFFFF AND PUSH20 0xFFFFFFFFFFFFFFFFFFFFFFFFFFFFFFFFFFFFFFFF AND DUP2 MSTORE PUSH1 0x20 ADD SWAP1 DUP2 MSTORE PUSH1 0x20 ADD PUSH0 KECCAK256 PUSH0 ADD PUSH1 0x1 SWAP1 SLOAD SWAP1 PUSH2 0x100 EXP SWAP1 DIV PUSH1 0xFF AND PUSH1 0x2 DUP2 GT ISZERO PUSH2 0x4002 JUMPI PUSH2 0x4001 PUSH2 0x660C JUMP JUMPDEST JUMPDEST EQ PUSH2 0x4042 JUMPI PUSH1 0x40 MLOAD PUSH32 0x8C379A000000000000000000000000000000000000000000000000000000000 DUP2 MSTORE PUSH1 0x4 ADD PUSH2 0x4039 SWAP1 PUSH2 0x7961 JUMP JUMPDEST PUSH1 0x40 MLOAD DUP1 SWAP2 SUB SWAP1 REVERT JUMPDEST PUSH0 PUSH4 0x77359400 CALLVALUE PUSH2 0x4053 SWAP2 SWAP1 PUSH2 0x763D JUMP JUMPDEST SWAP1 POP DUP1 PUSH1 0xB PUSH0 CALLER PUSH20 0xFFFFFFFFFFFFFFFFFFFFFFFFFFFFFFFFFFFFFFFF AND PUSH20 0xFFFFFFFFFFFFFFFFFFFFFFFFFFFFFFFFFFFFFFFF AND DUP2 MSTORE PUSH1 0x20 ADD SWAP1 DUP2 MSTORE PUSH1 0x20 ADD PUSH0 KECCAK256 PUSH1 0x1 ADD PUSH0 DUP3 DUP3 SLOAD PUSH2 0x40A4 SWAP2 SWAP1 PUSH2 0x6B55 JUMP JUMPDEST SWAP3 POP POP DUP2 SWAP1 SSTORE POP POP JUMP JUMPDEST PUSH1 0x11 DUP3 DUP1 MLOAD PUSH1 0x20 DUP2 ADD DUP3 ADD DUP1 MLOAD DUP5 DUP3 MSTORE PUSH1 0x20 DUP4 ADD PUSH1 0x20 DUP6 ADD KECCAK256 DUP2 DUP4 MSTORE DUP1 SWAP6 POP POP POP POP POP POP DUP2 DUP2 SLOAD DUP2 LT PUSH2 0x40DF JUMPI PUSH0 DUP1 REVERT JUMPDEST SWAP1 PUSH0 MSTORE PUSH1 0x20 PUSH0 KECCAK256 ADD PUSH0 SWAP2 POP SWAP2 POP POP DUP1 SLOAD PUSH2 0x40F8 SWAP1 PUSH2 0x6E44 JUMP JUMPDEST DUP1 PUSH1 0x1F ADD PUSH1 0x20 DUP1 SWAP2 DIV MUL PUSH1 0x20 ADD PUSH1 0x40 MLOAD SWAP1 DUP2 ADD PUSH1 0x40 MSTORE DUP1 SWAP3 SWAP2 SWAP1 DUP2 DUP2 MSTORE PUSH1 0x20 ADD DUP3 DUP1 SLOAD PUSH2 0x4124 SWAP1 PUSH2 0x6E44 JUMP JUMPDEST DUP1 ISZERO PUSH2 0x416F JUMPI DUP1 PUSH1 0x1F LT PUSH2 0x4146 JUMPI PUSH2 0x100 DUP1 DUP4 SLOAD DIV MUL DUP4 MSTORE SWAP2 PUSH1 0x20 ADD SWAP2 PUSH2 0x416F JUMP JUMPDEST DUP3 ADD SWAP2 SWAP1 PUSH0 MSTORE PUSH1 0x20 PUSH0 KECCAK256 SWAP1 JUMPDEST DUP2 SLOAD DUP2 MSTORE SWAP1 PUSH1 0x1 ADD SWAP1 PUSH1 0x20 ADD DUP1 DUP4 GT PUSH2 0x4152 JUMPI DUP3 SWAP1 SUB PUSH1 0x1F AND DUP3 ADD SWAP2 JUMPDEST POP POP POP POP POP DUP2 JUMP JUMPDEST PUSH2 0x4181 DUP3 DUP3 PUSH2 0x467C JUMP JUMPDEST POP POP JUMP JUMPDEST PUSH1 0x5 DUP2 DUP2 SLOAD DUP2 LT PUSH2 0x4194 JUMPI PUSH0 DUP1 REVERT JUMPDEST SWAP1 PUSH0 MSTORE PUSH1 0x20 PUSH0 KECCAK256 ADD PUSH0 SWAP2 POP SLOAD SWAP1 PUSH2 0x100 EXP SWAP1 DIV PUSH20 0xFFFFFFFFFFFFFFFFFFFFFFFFFFFFFFFFFFFFFFFF AND DUP2 JUMP JUMPDEST PUSH1 0x60 PUSH0 DUP3 MLOAD GT PUSH2 0x4205 JUMPI PUSH1 0x40 MLOAD PUSH32 0x8C379A000000000000000000000000000000000000000000000000000000000 DUP2 MSTORE PUSH1 0x4 ADD PUSH2 0x41FC SWAP1 PUSH2 0x79C9 JUMP JUMPDEST PUSH1 0x40 MLOAD DUP1 SWAP2 SUB SWAP1 REVERT JUMPDEST PUSH1 0x2 DUP3 PUSH1 0x40 MLOAD PUSH2 0x4215 SWAP2 SWAP1 PUSH2 0x6E01 JUMP JUMPDEST SWAP1 DUP2 MSTORE PUSH1 0x20 ADD PUSH1 0x40 MLOAD DUP1 SWAP2 SUB SWAP1 KECCAK256 DUP1 SLOAD PUSH2 0x422E SWAP1 PUSH2 0x6E44 JUMP JUMPDEST DUP1 PUSH1 0x1F ADD PUSH1 0x20 DUP1 SWAP2 DIV MUL PUSH1 0x20 ADD PUSH1 0x40 MLOAD SWAP1 DUP2 ADD PUSH1 0x40 MSTORE DUP1 SWAP3 SWAP2 SWAP1 DUP2 DUP2 MSTORE PUSH1 0x20 ADD DUP3 DUP1 SLOAD PUSH2 0x425A SWAP1 PUSH2 0x6E44 JUMP JUMPDEST DUP1 ISZERO PUSH2 0x42A5 JUMPI DUP1 PUSH1 0x1F LT PUSH2 0x427C JUMPI PUSH2 0x100 DUP1 DUP4 SLOAD DIV MUL DUP4 MSTORE SWAP2 PUSH1 0x20 ADD SWAP2 PUSH2 0x42A5 JUMP JUMPDEST DUP3 ADD SWAP2 SWAP1 PUSH0 MSTORE PUSH1 0x20 PUSH0 KECCAK256 SWAP1 JUMPDEST DUP2 SLOAD DUP2 MSTORE SWAP1 PUSH1 0x1 ADD SWAP1 PUSH1 0x20 ADD DUP1 DUP4 GT PUSH2 0x4288 JUMPI DUP3 SWAP1 SUB PUSH1 0x1F AND DUP3 ADD SWAP2 JUMPDEST POP POP POP POP POP SWAP1 POP SWAP2 SWAP1 POP JUMP JUMPDEST PUSH0 PUSH1 0x3 PUSH0 DUP4 PUSH20 0xFFFFFFFFFFFFFFFFFFFFFFFFFFFFFFFFFFFFFFFF AND PUSH20 0xFFFFFFFFFFFFFFFFFFFFFFFFFFFFFFFFFFFFFFFF AND DUP2 MSTORE PUSH1 0x20 ADD SWAP1 DUP2 MSTORE PUSH1 0x20 ADD PUSH0 KECCAK256 PUSH1 0x1 ADD SLOAD SWAP1 POP SWAP2 SWAP1 POP JUMP JUMPDEST PUSH0 PUSH20 0xFFFFFFFFFFFFFFFFFFFFFFFFFFFFFFFFFFFFFFFF AND PUSH1 0x3 PUSH0 DUP7 PUSH20 0xFFFFFFFFFFFFFFFFFFFFFFFFFFFFFFFFFFFFFFFF AND PUSH20 0xFFFFFFFFFFFFFFFFFFFFFFFFFFFFFFFFFFFFFFFF AND DUP2 MSTORE PUSH1 0x20 ADD SWAP1 DUP2 MSTORE PUSH1 0x20 ADD PUSH0 KECCAK256 PUSH0 ADD PUSH0 SWAP1 SLOAD SWAP1 PUSH2 0x100 EXP SWAP1 DIV PUSH20 0xFFFFFFFFFFFFFFFFFFFFFFFFFFFFFFFFFFFFFFFF AND PUSH20 0xFFFFFFFFFFFFFFFFFFFFFFFFFFFFFFFFFFFFFFFF AND SUB PUSH2 0x43C6 JUMPI PUSH1 0x40 MLOAD PUSH32 0x8C379A000000000000000000000000000000000000000000000000000000000 DUP2 MSTORE PUSH1 0x4 ADD PUSH2 0x43BD SWAP1 PUSH2 0x7A57 JUMP JUMPDEST PUSH1 0x40 MLOAD DUP1 SWAP2 SUB SWAP1 REVERT JUMPDEST PUSH2 0x4405 PUSH1 0x40 MLOAD DUP1 PUSH1 0x40 ADD PUSH1 0x40 MSTORE DUP1 PUSH1 0xA DUP2 MSTORE PUSH1 0x20 ADD PUSH32 0x5F6368756E6B4861736800000000000000000000000000000000000000000000 DUP2 MSTORE POP DUP3 PUSH2 0x564A JUMP JUMPDEST PUSH2 0x44AE DUP5 PUSH1 0x4 DUP5 PUSH1 0x40 MLOAD PUSH2 0x4419 SWAP2 SWAP1 PUSH2 0x6E01 JUMP JUMPDEST SWAP1 DUP2 MSTORE PUSH1 0x20 ADD PUSH1 0x40 MLOAD DUP1 SWAP2 SUB SWAP1 KECCAK256 DUP1 SLOAD DUP1 PUSH1 0x20 MUL PUSH1 0x20 ADD PUSH1 0x40 MLOAD SWAP1 DUP2 ADD PUSH1 0x40 MSTORE DUP1 SWAP3 SWAP2 SWAP1 DUP2 DUP2 MSTORE PUSH1 0x20 ADD DUP3 DUP1 SLOAD DUP1 ISZERO PUSH2 0x44A4 JUMPI PUSH1 0x20 MUL DUP3 ADD SWAP2 SWAP1 PUSH0 MSTORE PUSH1 0x20 PUSH0 KECCAK256 SWAP1 JUMPDEST DUP2 PUSH0 SWAP1 SLOAD SWAP1 PUSH2 0x100 EXP SWAP1 DIV PUSH20 0xFFFFFFFFFFFFFFFFFFFFFFFFFFFFFFFFFFFFFFFF AND PUSH20 0xFFFFFFFFFFFFFFFFFFFFFFFFFFFFFFFFFFFFFFFF AND DUP2 MSTORE PUSH1 0x20 ADD SWAP1 PUSH1 0x1 ADD SWAP1 DUP1 DUP4 GT PUSH2 0x445B JUMPI JUMPDEST POP POP POP POP POP PUSH2 0x5482 JUMP JUMPDEST PUSH2 0x4676 JUMPI PUSH1 0x4 DUP3 PUSH1 0x40 MLOAD PUSH2 0x44C2 SWAP2 SWAP1 PUSH2 0x6E01 JUMP JUMPDEST SWAP1 DUP2 MSTORE PUSH1 0x20 ADD PUSH1 0x40 MLOAD DUP1 SWAP2 SUB SWAP1 KECCAK256 DUP5 SWAP1 DUP1 PUSH1 0x1 DUP2 SLOAD ADD DUP1 DUP3 SSTORE DUP1 SWAP2 POP POP PUSH1 0x1 SWAP1 SUB SWAP1 PUSH0 MSTORE PUSH1 0x20 PUSH0 KECCAK256 ADD PUSH0 SWAP1 SWAP2 SWAP1 SWAP2 SWAP1 SWAP2 PUSH2 0x100 EXP DUP2 SLOAD DUP2 PUSH20 0xFFFFFFFFFFFFFFFFFFFFFFFFFFFFFFFFFFFFFFFF MUL NOT AND SWAP1 DUP4 PUSH20 0xFFFFFFFFFFFFFFFFFFFFFFFFFFFFFFFFFFFFFFFF AND MUL OR SWAP1 SSTORE POP PUSH2 0x45BB DUP5 PUSH1 0x6 DUP1 SLOAD DUP1 PUSH1 0x20 MUL PUSH1 0x20 ADD PUSH1 0x40 MLOAD SWAP1 DUP2 ADD PUSH1 0x40 MSTORE DUP1 SWAP3 SWAP2 SWAP1 DUP2 DUP2 MSTORE PUSH1 0x20 ADD DUP3 DUP1 SLOAD DUP1 ISZERO PUSH2 0x45B1 JUMPI PUSH1 0x20 MUL DUP3 ADD SWAP2 SWAP1 PUSH0 MSTORE PUSH1 0x20 PUSH0 KECCAK256 SWAP1 JUMPDEST DUP2 PUSH0 SWAP1 SLOAD SWAP1 PUSH2 0x100 EXP SWAP1 DIV PUSH20 0xFFFFFFFFFFFFFFFFFFFFFFFFFFFFFFFFFFFFFFFF AND PUSH20 0xFFFFFFFFFFFFFFFFFFFFFFFFFFFFFFFFFFFFFFFF AND DUP2 MSTORE PUSH1 0x20 ADD SWAP1 PUSH1 0x1 ADD SWAP1 DUP1 DUP4 GT PUSH2 0x4568 JUMPI JUMPDEST POP POP POP POP POP PUSH2 0x5482 JUMP JUMPDEST PUSH2 0x4620 JUMPI PUSH1 0x6 DUP5 SWAP1 DUP1 PUSH1 0x1 DUP2 SLOAD ADD DUP1 DUP3 SSTORE DUP1 SWAP2 POP POP PUSH1 0x1 SWAP1 SUB SWAP1 PUSH0 MSTORE PUSH1 0x20 PUSH0 KECCAK256 ADD PUSH0 SWAP1 SWAP2 SWAP1 SWAP2 SWAP1 SWAP2 PUSH2 0x100 EXP DUP2 SLOAD DUP2 PUSH20 0xFFFFFFFFFFFFFFFFFFFFFFFFFFFFFFFFFFFFFFFF MUL NOT AND SWAP1 DUP4 PUSH20 0xFFFFFFFFFFFFFFFFFFFFFFFFFFFFFFFFFFFFFFFF AND MUL OR SWAP1 SSTORE POP JUMPDEST PUSH2 0x4675 DUP5 DUP5 PUSH1 0x3 PUSH0 DUP9 PUSH20 0xFFFFFFFFFFFFFFFFFFFFFFFFFFFFFFFFFFFFFFFF AND PUSH20 0xFFFFFFFFFFFFFFFFFFFFFFFFFFFFFFFFFFFFFFFF AND DUP2 MSTORE PUSH1 0x20 ADD SWAP1 DUP2 MSTORE PUSH1 0x20 ADD PUSH0 KECCAK256 PUSH1 0x1 ADD SLOAD PUSH2 0x4670 SWAP2 SWAP1 PUSH2 0x773D JUMP JUMPDEST PUSH2 0x4BD0 JUMP JUMPDEST JUMPDEST POP POP POP POP JUMP JUMPDEST PUSH0 PUSH20 0xFFFFFFFFFFFFFFFFFFFFFFFFFFFFFFFFFFFFFFFF AND CALLER PUSH20 0xFFFFFFFFFFFFFFFFFFFFFFFFFFFFFFFFFFFFFFFF AND SUB PUSH2 0x46EA JUMPI PUSH1 0x40 MLOAD PUSH32 0x8C379A000000000000000000000000000000000000000000000000000000000 DUP2 MSTORE PUSH1 0x4 ADD PUSH2 0x46E1 SWAP1 PUSH2 0x7ABF JUMP JUMPDEST PUSH1 0x40 MLOAD DUP1 SWAP2 SUB SWAP1 REVERT JUMPDEST PUSH0 DUP3 MLOAD GT PUSH2 0x472D JUMPI PUSH1 0x40 MLOAD PUSH32 0x8C379A000000000000000000000000000000000000000000000000000000000 DUP2 MSTORE PUSH1 0x4 ADD PUSH2 0x4724 SWAP1 PUSH2 0x7B27 JUMP JUMPDEST PUSH1 0x40 MLOAD DUP1 SWAP2 SUB SWAP1 REVERT JUMPDEST PUSH0 DUP2 MLOAD GT PUSH2 0x4770 JUMPI PUSH1 0x40 MLOAD PUSH32 0x8C379A000000000000000000000000000000000000000000000000000000000 DUP2 MSTORE PUSH1 0x4 ADD PUSH2 0x4767 SWAP1 PUSH2 0x7B8F JUMP JUMPDEST PUSH1 0x40 MLOAD DUP1 SWAP2 SUB SWAP1 REVERT JUMPDEST DUP2 PUSH1 0x2 DUP3 PUSH1 0x40 MLOAD PUSH2 0x4781 SWAP2 SWAP1 PUSH2 0x6E01 JUMP JUMPDEST SWAP1 DUP2 MSTORE PUSH1 0x20 ADD PUSH1 0x40 MLOAD DUP1 SWAP2 SUB SWAP1 KECCAK256 SWAP1 DUP2 PUSH2 0x479B SWAP2 SWAP1 PUSH2 0x7011 JUMP JUMPDEST POP POP POP JUMP JUMPDEST PUSH0 PUSH20 0xFFFFFFFFFFFFFFFFFFFFFFFFFFFFFFFFFFFFFFFF AND CALLER PUSH20 0xFFFFFFFFFFFFFFFFFFFFFFFFFFFFFFFFFFFFFFFF AND EQ ISZERO PUSH1 0x40 MLOAD DUP1 PUSH1 0x60 ADD PUSH1 0x40 MSTORE DUP1 PUSH1 0x21 DUP2 MSTORE PUSH1 0x20 ADD PUSH2 0x7F9C PUSH1 0x21 SWAP2 CODECOPY SWAP1 PUSH2 0x482A JUMPI PUSH1 0x40 MLOAD PUSH32 0x8C379A000000000000000000000000000000000000000000000000000000000 DUP2 MSTORE PUSH1 0x4 ADD PUSH2 0x4821 SWAP2 SWAP1 PUSH2 0x6502 JUMP JUMPDEST PUSH1 0x40 MLOAD DUP1 SWAP2 SUB SWAP1 REVERT JUMPDEST POP PUSH0 DUP6 MLOAD GT PUSH1 0x40 MLOAD DUP1 PUSH1 0x60 ADD PUSH1 0x40 MSTORE DUP1 PUSH1 0x24 DUP2 MSTORE PUSH1 0x20 ADD PUSH2 0x7F31 PUSH1 0x24 SWAP2 CODECOPY SWAP1 PUSH2 0x4889 JUMPI PUSH1 0x40 MLOAD PUSH32 0x8C379A000000000000000000000000000000000000000000000000000000000 DUP2 MSTORE PUSH1 0x4 ADD PUSH2 0x4880 SWAP2 SWAP1 PUSH2 0x6502 JUMP JUMPDEST PUSH1 0x40 MLOAD DUP1 SWAP2 SUB SWAP1 REVERT JUMPDEST POP PUSH0 DUP7 MLOAD GT PUSH1 0x40 MLOAD DUP1 PUSH1 0x60 ADD PUSH1 0x40 MSTORE DUP1 PUSH1 0x24 DUP2 MSTORE PUSH1 0x20 ADD PUSH2 0x8010 PUSH1 0x24 SWAP2 CODECOPY SWAP1 PUSH2 0x48E8 JUMPI PUSH1 0x40 MLOAD PUSH32 0x8C379A000000000000000000000000000000000000000000000000000000000 DUP2 MSTORE PUSH1 0x4 ADD PUSH2 0x48DF SWAP2 SWAP1 PUSH2 0x6502 JUMP JUMPDEST PUSH1 0x40 MLOAD DUP1 SWAP2 SUB SWAP1 REVERT JUMPDEST POP PUSH0 DUP5 MLOAD GT PUSH1 0x40 MLOAD DUP1 PUSH1 0x60 ADD PUSH1 0x40 MSTORE DUP1 PUSH1 0x24 DUP2 MSTORE PUSH1 0x20 ADD PUSH2 0x8034 PUSH1 0x24 SWAP2 CODECOPY SWAP1 PUSH2 0x4947 JUMPI PUSH1 0x40 MLOAD PUSH32 0x8C379A000000000000000000000000000000000000000000000000000000000 DUP2 MSTORE PUSH1 0x4 ADD PUSH2 0x493E SWAP2 SWAP1 PUSH2 0x6502 JUMP JUMPDEST PUSH1 0x40 MLOAD DUP1 SWAP2 SUB SWAP1 REVERT JUMPDEST POP PUSH0 DUP2 GT PUSH1 0x40 MLOAD DUP1 PUSH1 0x60 ADD PUSH1 0x40 MSTORE DUP1 PUSH1 0x24 DUP2 MSTORE PUSH1 0x20 ADD PUSH2 0x7F0D PUSH1 0x24 SWAP2 CODECOPY SWAP1 PUSH2 0x49A5 JUMPI PUSH1 0x40 MLOAD PUSH32 0x8C379A000000000000000000000000000000000000000000000000000000000 DUP2 MSTORE PUSH1 0x4 ADD PUSH2 0x499C SWAP2 SWAP1 PUSH2 0x6502 JUMP JUMPDEST PUSH1 0x40 MLOAD DUP1 SWAP2 SUB SWAP1 REVERT JUMPDEST POP PUSH0 DUP3 MLOAD GT PUSH1 0x40 MLOAD DUP1 PUSH1 0x60 ADD PUSH1 0x40 MSTORE DUP1 PUSH1 0x24 DUP2 MSTORE PUSH1 0x20 ADD PUSH2 0x7F78 PUSH1 0x24 SWAP2 CODECOPY SWAP1 PUSH2 0x4A04 JUMPI PUSH1 0x40 MLOAD PUSH32 0x8C379A000000000000000000000000000000000000000000000000000000000 DUP2 MSTORE PUSH1 0x4 ADD PUSH2 0x49FB SWAP2 SWAP1 PUSH2 0x6502 JUMP JUMPDEST PUSH1 0x40 MLOAD DUP1 SWAP2 SUB SWAP1 REVERT JUMPDEST POP PUSH0 TIMESTAMP SWAP1 POP PUSH1 0x10 PUSH0 CALLER PUSH20 0xFFFFFFFFFFFFFFFFFFFFFFFFFFFFFFFFFFFFFFFF AND PUSH20 0xFFFFFFFFFFFFFFFFFFFFFFFFFFFFFFFFFFFFFFFF AND DUP2 MSTORE PUSH1 0x20 ADD SWAP1 DUP2 MSTORE PUSH1 0x20 ADD PUSH0 KECCAK256 PUSH1 0x40 MLOAD DUP1 PUSH2 0x100 ADD PUSH1 0x40 MSTORE DUP1 DUP6 DUP2 MSTORE PUSH1 0x20 ADD DUP10 DUP2 MSTORE PUSH1 0x20 ADD DUP9 DUP2 MSTORE PUSH1 0x20 ADD DUP8 DUP2 MSTORE PUSH1 0x20 ADD DUP5 DUP2 MSTORE PUSH1 0x20 ADD DUP4 DUP2 MSTORE PUSH1 0x20 ADD CALLER PUSH20 0xFFFFFFFFFFFFFFFFFFFFFFFFFFFFFFFFFFFFFFFF AND DUP2 MSTORE PUSH1 0x20 ADD DUP7 DUP2 MSTORE POP SWAP1 DUP1 PUSH1 0x1 DUP2 SLOAD ADD DUP1 DUP3 SSTORE DUP1 SWAP2 POP POP PUSH1 0x1 SWAP1 SUB SWAP1 PUSH0 MSTORE PUSH1 0x20 PUSH0 KECCAK256 SWAP1 PUSH1 0x8 MUL ADD PUSH0 SWAP1 SWAP2 SWAP1 SWAP2 SWAP1 SWAP2 POP PUSH0 DUP3 ADD MLOAD DUP2 PUSH0 ADD SWAP1 DUP2 PUSH2 0x4ACF SWAP2 SWAP1 PUSH2 0x7011 JUMP JUMPDEST POP PUSH1 0x20 DUP3 ADD MLOAD DUP2 PUSH1 0x1 ADD SWAP1 DUP2 PUSH2 0x4AE5 SWAP2 SWAP1 PUSH2 0x7011 JUMP JUMPDEST POP PUSH1 0x40 DUP3 ADD MLOAD DUP2 PUSH1 0x2 ADD SWAP1 DUP2 PUSH2 0x4AFB SWAP2 SWAP1 PUSH2 0x7011 JUMP JUMPDEST POP PUSH1 0x60 DUP3 ADD MLOAD DUP2 PUSH1 0x3 ADD SWAP1 DUP2 PUSH2 0x4B11 SWAP2 SWAP1 PUSH2 0x7011 JUMP JUMPDEST POP PUSH1 0x80 DUP3 ADD MLOAD DUP2 PUSH1 0x4 ADD SSTORE PUSH1 0xA0 DUP3 ADD MLOAD DUP2 PUSH1 0x5 ADD SSTORE PUSH1 0xC0 DUP3 ADD MLOAD DUP2 PUSH1 0x6 ADD PUSH0 PUSH2 0x100 EXP DUP2 SLOAD DUP2 PUSH20 0xFFFFFFFFFFFFFFFFFFFFFFFFFFFFFFFFFFFFFFFF MUL NOT AND SWAP1 DUP4 PUSH20 0xFFFFFFFFFFFFFFFFFFFFFFFFFFFFFFFFFFFFFFFF AND MUL OR SWAP1 SSTORE POP PUSH1 0xE0 DUP3 ADD MLOAD DUP2 PUSH1 0x7 ADD SWAP1 DUP2 PUSH2 0x4B81 SWAP2 SWAP1 PUSH2 0x7011 JUMP JUMPDEST POP POP POP PUSH32 0xE44F2DC23ADEAF383F63EB9222D882A6DA7DC9EE745BA40AEBA65A643FA9D43C DUP4 DUP9 DUP9 DUP9 DUP7 DUP7 CALLER PUSH1 0x40 MLOAD PUSH2 0x4BBF SWAP8 SWAP7 SWAP6 SWAP5 SWAP4 SWAP3 SWAP2 SWAP1 PUSH2 0x7BAD JUMP JUMPDEST PUSH1 0x40 MLOAD DUP1 SWAP2 SUB SWAP1 LOG1 POP POP POP POP POP POP POP JUMP JUMPDEST PUSH0 PUSH20 0xFFFFFFFFFFFFFFFFFFFFFFFFFFFFFFFFFFFFFFFF AND PUSH1 0x3 PUSH0 DUP5 PUSH20 0xFFFFFFFFFFFFFFFFFFFFFFFFFFFFFFFFFFFFFFFF AND PUSH20 0xFFFFFFFFFFFFFFFFFFFFFFFFFFFFFFFFFFFFFFFF AND DUP2 MSTORE PUSH1 0x20 ADD SWAP1 DUP2 MSTORE PUSH1 0x20 ADD PUSH0 KECCAK256 PUSH0 ADD PUSH0 SWAP1 SLOAD SWAP1 PUSH2 0x100 EXP SWAP1 DIV PUSH20 0xFFFFFFFFFFFFFFFFFFFFFFFFFFFFFFFFFFFFFFFF AND PUSH20 0xFFFFFFFFFFFFFFFFFFFFFFFFFFFFFFFFFFFFFFFF AND SUB PUSH2 0x4C9C JUMPI PUSH1 0x40 MLOAD PUSH32 0x8C379A000000000000000000000000000000000000000000000000000000000 DUP2 MSTORE PUSH1 0x4 ADD PUSH2 0x4C93 SWAP1 PUSH2 0x7CCC JUMP JUMPDEST PUSH1 0x40 MLOAD DUP1 SWAP2 SUB SWAP1 REVERT JUMPDEST DUP1 PUSH1 0x3 PUSH0 DUP5 PUSH20 0xFFFFFFFFFFFFFFFFFFFFFFFFFFFFFFFFFFFFFFFF AND PUSH20 0xFFFFFFFFFFFFFFFFFFFFFFFFFFFFFFFFFFFFFFFF AND DUP2 MSTORE PUSH1 0x20 ADD SWAP1 DUP2 MSTORE PUSH1 0x20 ADD PUSH0 KECCAK256 PUSH1 0x1 ADD DUP2 SWAP1 SSTORE POP POP POP JUMP JUMPDEST PUSH2 0x4D7F DUP4 DUP4 DUP4 PUSH1 0x40 MLOAD PUSH1 0x24 ADD PUSH2 0x4CFD SWAP4 SWAP3 SWAP2 SWAP1 PUSH2 0x7CEA JUMP JUMPDEST PUSH1 0x40 MLOAD PUSH1 0x20 DUP2 DUP4 SUB SUB DUP2 MSTORE SWAP1 PUSH1 0x40 MSTORE PUSH32 0xCA47C4EB00000000000000000000000000000000000000000000000000000000 PUSH28 0xFFFFFFFFFFFFFFFFFFFFFFFFFFFFFFFFFFFFFFFFFFFFFFFFFFFFFFFF NOT AND PUSH1 0x20 DUP3 ADD DUP1 MLOAD PUSH28 0xFFFFFFFFFFFFFFFFFFFFFFFFFFFFFFFFFFFFFFFFFFFFFFFFFFFFFFFF DUP4 DUP2 DUP4 AND OR DUP4 MSTORE POP POP POP POP PUSH2 0x56E6 JUMP JUMPDEST POP POP POP JUMP JUMPDEST PUSH0 DUP1 PUSH0 SWAP1 POP JUMPDEST PUSH1 0xD DUP1 SLOAD SWAP1 POP DUP2 LT ISZERO PUSH2 0x4E1C JUMPI DUP3 PUSH20 0xFFFFFFFFFFFFFFFFFFFFFFFFFFFFFFFFFFFFFFFF AND PUSH1 0xD DUP3 DUP2 SLOAD DUP2 LT PUSH2 0x4DC2 JUMPI PUSH2 0x4DC1 PUSH2 0x6D9A JUMP JUMPDEST JUMPDEST SWAP1 PUSH0 MSTORE PUSH1 0x20 PUSH0 KECCAK256 ADD PUSH0 SWAP1 SLOAD SWAP1 PUSH2 0x100 EXP SWAP1 DIV PUSH20 0xFFFFFFFFFFFFFFFFFFFFFFFFFFFFFFFFFFFFFFFF AND PUSH20 0xFFFFFFFFFFFFFFFFFFFFFFFFFFFFFFFFFFFFFFFF AND SUB PUSH2 0x4E0F JUMPI PUSH1 0x1 SWAP2 POP POP PUSH2 0x4E21 JUMP JUMPDEST DUP1 DUP1 PUSH1 0x1 ADD SWAP2 POP POP PUSH2 0x4D8A JUMP JUMPDEST POP PUSH0 SWAP1 POP JUMPDEST SWAP2 SWAP1 POP JUMP JUMPDEST PUSH1 0x60 PUSH0 PUSH20 0xFFFFFFFFFFFFFFFFFFFFFFFFFFFFFFFFFFFFFFFF AND CALLER PUSH20 0xFFFFFFFFFFFFFFFFFFFFFFFFFFFFFFFFFFFFFFFF AND EQ ISZERO PUSH1 0x40 MLOAD DUP1 PUSH1 0x60 ADD PUSH1 0x40 MSTORE DUP1 PUSH1 0x21 DUP2 MSTORE PUSH1 0x20 ADD PUSH2 0x7F9C PUSH1 0x21 SWAP2 CODECOPY SWAP1 PUSH2 0x4EB2 JUMPI PUSH1 0x40 MLOAD PUSH32 0x8C379A000000000000000000000000000000000000000000000000000000000 DUP2 MSTORE PUSH1 0x4 ADD PUSH2 0x4EA9 SWAP2 SWAP1 PUSH2 0x6502 JUMP JUMPDEST PUSH1 0x40 MLOAD DUP1 SWAP2 SUB SWAP1 REVERT JUMPDEST POP PUSH1 0x10 PUSH0 CALLER PUSH20 0xFFFFFFFFFFFFFFFFFFFFFFFFFFFFFFFFFFFFFFFF AND PUSH20 0xFFFFFFFFFFFFFFFFFFFFFFFFFFFFFFFFFFFFFFFF AND DUP2 MSTORE PUSH1 0x20 ADD SWAP1 DUP2 MSTORE PUSH1 0x20 ADD PUSH0 KECCAK256 DUP1 SLOAD DUP1 PUSH1 0x20 MUL PUSH1 0x20 ADD PUSH1 0x40 MLOAD SWAP1 DUP2 ADD PUSH1 0x40 MSTORE DUP1 SWAP3 SWAP2 SWAP1 DUP2 DUP2 MSTORE PUSH1 0x20 ADD PUSH0 SWAP1 JUMPDEST DUP3 DUP3 LT ISZERO PUSH2 0x5278 JUMPI DUP4 DUP3 SWAP1 PUSH0 MSTORE PUSH1 0x20 PUSH0 KECCAK256 SWAP1 PUSH1 0x8 MUL ADD PUSH1 0x40 MLOAD DUP1 PUSH2 0x100 ADD PUSH1 0x40 MSTORE SWAP1 DUP2 PUSH0 DUP3 ADD DUP1 SLOAD PUSH2 0x4F40 SWAP1 PUSH2 0x6E44 JUMP JUMPDEST DUP1 PUSH1 0x1F ADD PUSH1 0x20 DUP1 SWAP2 DIV MUL PUSH1 0x20 ADD PUSH1 0x40 MLOAD SWAP1 DUP2 ADD PUSH1 0x40 MSTORE DUP1 SWAP3 SWAP2 SWAP1 DUP2 DUP2 MSTORE PUSH1 0x20 ADD DUP3 DUP1 SLOAD PUSH2 0x4F6C SWAP1 PUSH2 0x6E44 JUMP JUMPDEST DUP1 ISZERO PUSH2 0x4FB7 JUMPI DUP1 PUSH1 0x1F LT PUSH2 0x4F8E JUMPI PUSH2 0x100 DUP1 DUP4 SLOAD DIV MUL DUP4 MSTORE SWAP2 PUSH1 0x20 ADD SWAP2 PUSH2 0x4FB7 JUMP JUMPDEST DUP3 ADD SWAP2 SWAP1 PUSH0 MSTORE PUSH1 0x20 PUSH0 KECCAK256 SWAP1 JUMPDEST DUP2 SLOAD DUP2 MSTORE SWAP1 PUSH1 0x1 ADD SWAP1 PUSH1 0x20 ADD DUP1 DUP4 GT PUSH2 0x4F9A JUMPI DUP3 SWAP1 SUB PUSH1 0x1F AND DUP3 ADD SWAP2 JUMPDEST POP POP POP POP POP DUP2 MSTORE PUSH1 0x20 ADD PUSH1 0x1 DUP3 ADD DUP1 SLOAD PUSH2 0x4FD0 SWAP1 PUSH2 0x6E44 JUMP JUMPDEST DUP1 PUSH1 0x1F ADD PUSH1 0x20 DUP1 SWAP2 DIV MUL PUSH1 0x20 ADD PUSH1 0x40 MLOAD SWAP1 DUP2 ADD PUSH1 0x40 MSTORE DUP1 SWAP3 SWAP2 SWAP1 DUP2 DUP2 MSTORE PUSH1 0x20 ADD DUP3 DUP1 SLOAD PUSH2 0x4FFC SWAP1 PUSH2 0x6E44 JUMP JUMPDEST DUP1 ISZERO PUSH2 0x5047 JUMPI DUP1 PUSH1 0x1F LT PUSH2 0x501E JUMPI PUSH2 0x100 DUP1 DUP4 SLOAD DIV MUL DUP4 MSTORE SWAP2 PUSH1 0x20 ADD SWAP2 PUSH2 0x5047 JUMP JUMPDEST DUP3 ADD SWAP2 SWAP1 PUSH0 MSTORE PUSH1 0x20 PUSH0 KECCAK256 SWAP1 JUMPDEST DUP2 SLOAD DUP2 MSTORE SWAP1 PUSH1 0x1 ADD SWAP1 PUSH1 0x20 ADD DUP1 DUP4 GT PUSH2 0x502A JUMPI DUP3 SWAP1 SUB PUSH1 0x1F AND DUP3 ADD SWAP2 JUMPDEST POP POP POP POP POP DUP2 MSTORE PUSH1 0x20 ADD PUSH1 0x2 DUP3 ADD DUP1 SLOAD PUSH2 0x5060 SWAP1 PUSH2 0x6E44 JUMP JUMPDEST DUP1 PUSH1 0x1F ADD PUSH1 0x20 DUP1 SWAP2 DIV MUL PUSH1 0x20 ADD PUSH1 0x40 MLOAD SWAP1 DUP2 ADD PUSH1 0x40 MSTORE DUP1 SWAP3 SWAP2 SWAP1 DUP2 DUP2 MSTORE PUSH1 0x20 ADD DUP3 DUP1 SLOAD PUSH2 0x508C SWAP1 PUSH2 0x6E44 JUMP JUMPDEST DUP1 ISZERO PUSH2 0x50D7 JUMPI DUP1 PUSH1 0x1F LT PUSH2 0x50AE JUMPI PUSH2 0x100 DUP1 DUP4 SLOAD DIV MUL DUP4 MSTORE SWAP2 PUSH1 0x20 ADD SWAP2 PUSH2 0x50D7 JUMP JUMPDEST DUP3 ADD SWAP2 SWAP1 PUSH0 MSTORE PUSH1 0x20 PUSH0 KECCAK256 SWAP1 JUMPDEST DUP2 SLOAD DUP2 MSTORE SWAP1 PUSH1 0x1 ADD SWAP1 PUSH1 0x20 ADD DUP1 DUP4 GT PUSH2 0x50BA JUMPI DUP3 SWAP1 SUB PUSH1 0x1F AND DUP3 ADD SWAP2 JUMPDEST POP POP POP POP POP DUP2 MSTORE PUSH1 0x20 ADD PUSH1 0x3 DUP3 ADD DUP1 SLOAD PUSH2 0x50F0 SWAP1 PUSH2 0x6E44 JUMP JUMPDEST DUP1 PUSH1 0x1F ADD PUSH1 0x20 DUP1 SWAP2 DIV MUL PUSH1 0x20 ADD PUSH1 0x40 MLOAD SWAP1 DUP2 ADD PUSH1 0x40 MSTORE DUP1 SWAP3 SWAP2 SWAP1 DUP2 DUP2 MSTORE PUSH1 0x20 ADD DUP3 DUP1 SLOAD PUSH2 0x511C SWAP1 PUSH2 0x6E44 JUMP JUMPDEST DUP1 ISZERO PUSH2 0x5167 JUMPI DUP1 PUSH1 0x1F LT PUSH2 0x513E JUMPI PUSH2 0x100 DUP1 DUP4 SLOAD DIV MUL DUP4 MSTORE SWAP2 PUSH1 0x20 ADD SWAP2 PUSH2 0x5167 JUMP JUMPDEST DUP3 ADD SWAP2 SWAP1 PUSH0 MSTORE PUSH1 0x20 PUSH0 KECCAK256 SWAP1 JUMPDEST DUP2 SLOAD DUP2 MSTORE SWAP1 PUSH1 0x1 ADD SWAP1 PUSH1 0x20 ADD DUP1 DUP4 GT PUSH2 0x514A JUMPI DUP3 SWAP1 SUB PUSH1 0x1F AND DUP3 ADD SWAP2 JUMPDEST POP POP POP POP POP DUP2 MSTORE PUSH1 0x20 ADD PUSH1 0x4 DUP3 ADD SLOAD DUP2 MSTORE PUSH1 0x20 ADD PUSH1 0x5 DUP3 ADD SLOAD DUP2 MSTORE PUSH1 0x20 ADD PUSH1 0x6 DUP3 ADD PUSH0 SWAP1 SLOAD SWAP1 PUSH2 0x100 EXP SWAP1 DIV PUSH20 0xFFFFFFFFFFFFFFFFFFFFFFFFFFFFFFFFFFFFFFFF AND PUSH20 0xFFFFFFFFFFFFFFFFFFFFFFFFFFFFFFFFFFFFFFFF AND PUSH20 0xFFFFFFFFFFFFFFFFFFFFFFFFFFFFFFFFFFFFFFFF AND DUP2 MSTORE PUSH1 0x20 ADD PUSH1 0x7 DUP3 ADD DUP1 SLOAD PUSH2 0x51E9 SWAP1 PUSH2 0x6E44 JUMP JUMPDEST DUP1 PUSH1 0x1F ADD PUSH1 0x20 DUP1 SWAP2 DIV MUL PUSH1 0x20 ADD PUSH1 0x40 MLOAD SWAP1 DUP2 ADD PUSH1 0x40 MSTORE DUP1 SWAP3 SWAP2 SWAP1 DUP2 DUP2 MSTORE PUSH1 0x20 ADD DUP3 DUP1 SLOAD PUSH2 0x5215 SWAP1 PUSH2 0x6E44 JUMP JUMPDEST DUP1 ISZERO PUSH2 0x5260 JUMPI DUP1 PUSH1 0x1F LT PUSH2 0x5237 JUMPI PUSH2 0x100 DUP1 DUP4 SLOAD DIV MUL DUP4 MSTORE SWAP2 PUSH1 0x20 ADD SWAP2 PUSH2 0x5260 JUMP JUMPDEST DUP3 ADD SWAP2 SWAP1 PUSH0 MSTORE PUSH1 0x20 PUSH0 KECCAK256 SWAP1 JUMPDEST DUP2 SLOAD DUP2 MSTORE SWAP1 PUSH1 0x1 ADD SWAP1 PUSH1 0x20 ADD DUP1 DUP4 GT PUSH2 0x5243 JUMPI DUP3 SWAP1 SUB PUSH1 0x1F AND DUP3 ADD SWAP2 JUMPDEST POP POP POP POP POP DUP2 MSTORE POP POP DUP2 MSTORE PUSH1 0x20 ADD SWAP1 PUSH1 0x1 ADD SWAP1 PUSH2 0x4F0F JUMP JUMPDEST POP POP POP POP SWAP1 POP SWAP1 JUMP JUMPDEST PUSH0 PUSH2 0x5330 DUP4 PUSH1 0x2 DUP5 PUSH1 0x40 MLOAD PUSH2 0x5296 SWAP2 SWAP1 PUSH2 0x6E01 JUMP JUMPDEST SWAP1 DUP2 MSTORE PUSH1 0x20 ADD PUSH1 0x40 MLOAD DUP1 SWAP2 SUB SWAP1 KECCAK256 DUP1 SLOAD PUSH2 0x52AF SWAP1 PUSH2 0x6E44 JUMP JUMPDEST DUP1 PUSH1 0x1F ADD PUSH1 0x20 DUP1 SWAP2 DIV MUL PUSH1 0x20 ADD PUSH1 0x40 MLOAD SWAP1 DUP2 ADD PUSH1 0x40 MSTORE DUP1 SWAP3 SWAP2 SWAP1 DUP2 DUP2 MSTORE PUSH1 0x20 ADD DUP3 DUP1 SLOAD PUSH2 0x52DB SWAP1 PUSH2 0x6E44 JUMP JUMPDEST DUP1 ISZERO PUSH2 0x5326 JUMPI DUP1 PUSH1 0x1F LT PUSH2 0x52FD JUMPI PUSH2 0x100 DUP1 DUP4 SLOAD DIV MUL DUP4 MSTORE SWAP2 PUSH1 0x20 ADD SWAP2 PUSH2 0x5326 JUMP JUMPDEST DUP3 ADD SWAP2 SWAP1 PUSH0 MSTORE PUSH1 0x20 PUSH0 KECCAK256 SWAP1 JUMPDEST DUP2 SLOAD DUP2 MSTORE SWAP1 PUSH1 0x1 ADD SWAP1 PUSH1 0x20 ADD DUP1 DUP4 GT PUSH2 0x5309 JUMPI DUP3 SWAP1 SUB PUSH1 0x1F AND DUP3 ADD SWAP2 JUMPDEST POP POP POP POP POP PUSH2 0x39DD JUMP JUMPDEST SWAP1 POP SWAP3 SWAP2 POP POP JUMP JUMPDEST PUSH0 DUP2 MLOAD GT PUSH2 0x537B JUMPI PUSH1 0x40 MLOAD PUSH32 0x8C379A000000000000000000000000000000000000000000000000000000000 DUP2 MSTORE PUSH1 0x4 ADD PUSH2 0x5372 SWAP1 PUSH2 0x7D96 JUMP JUMPDEST PUSH1 0x40 MLOAD DUP1 SWAP2 SUB SWAP1 REVERT JUMPDEST PUSH1 0x4 DUP2 PUSH1 0x40 MLOAD PUSH2 0x538B SWAP2 SWAP1 PUSH2 0x6E01 JUMP JUMPDEST SWAP1 DUP2 MSTORE PUSH1 0x20 ADD PUSH1 0x40 MLOAD DUP1 SWAP2 SUB SWAP1 KECCAK256 PUSH0 PUSH2 0x53A4 SWAP2 SWAP1 PUSH2 0x572A JUMP JUMPDEST POP JUMP JUMPDEST PUSH0 DUP2 MLOAD GT PUSH2 0x53EA JUMPI PUSH1 0x40 MLOAD PUSH32 0x8C379A000000000000000000000000000000000000000000000000000000000 DUP2 MSTORE PUSH1 0x4 ADD PUSH2 0x53E1 SWAP1 PUSH2 0x7DFE JUMP JUMPDEST PUSH1 0x40 MLOAD DUP1 SWAP2 SUB SWAP1 REVERT JUMPDEST PUSH0 PUSH1 0x2 DUP3 PUSH1 0x40 MLOAD PUSH2 0x53FB SWAP2 SWAP1 PUSH2 0x6E01 JUMP JUMPDEST SWAP1 DUP2 MSTORE PUSH1 0x20 ADD PUSH1 0x40 MLOAD DUP1 SWAP2 SUB SWAP1 KECCAK256 DUP1 SLOAD PUSH2 0x5414 SWAP1 PUSH2 0x6E44 JUMP JUMPDEST SWAP1 POP GT PUSH2 0x5456 JUMPI PUSH1 0x40 MLOAD PUSH32 0x8C379A000000000000000000000000000000000000000000000000000000000 DUP2 MSTORE PUSH1 0x4 ADD PUSH2 0x544D SWAP1 PUSH2 0x7E8C JUMP JUMPDEST PUSH1 0x40 MLOAD DUP1 SWAP2 SUB SWAP1 REVERT JUMPDEST PUSH1 0x2 DUP2 PUSH1 0x40 MLOAD PUSH2 0x5466 SWAP2 SWAP1 PUSH2 0x6E01 JUMP JUMPDEST SWAP1 DUP2 MSTORE PUSH1 0x20 ADD PUSH1 0x40 MLOAD DUP1 SWAP2 SUB SWAP1 KECCAK256 PUSH0 PUSH2 0x547F SWAP2 SWAP1 PUSH2 0x5805 JUMP JUMPDEST POP JUMP JUMPDEST PUSH0 DUP1 PUSH0 SWAP1 POP JUMPDEST DUP3 MLOAD DUP2 LT ISZERO PUSH2 0x54F5 JUMPI DUP4 PUSH20 0xFFFFFFFFFFFFFFFFFFFFFFFFFFFFFFFFFFFFFFFF AND DUP4 DUP3 DUP2 MLOAD DUP2 LT PUSH2 0x54BB JUMPI PUSH2 0x54BA PUSH2 0x6D9A JUMP JUMPDEST JUMPDEST PUSH1 0x20 MUL PUSH1 0x20 ADD ADD MLOAD PUSH20 0xFFFFFFFFFFFFFFFFFFFFFFFFFFFFFFFFFFFFFFFF AND SUB PUSH2 0x54E8 JUMPI PUSH1 0x1 SWAP2 POP POP PUSH2 0x54FA JUMP JUMPDEST DUP1 DUP1 PUSH1 0x1 ADD SWAP2 POP POP PUSH2 0x5488 JUMP JUMPDEST POP PUSH0 SWAP1 POP JUMPDEST SWAP3 SWAP2 POP POP JUMP JUMPDEST PUSH1 0x60 PUSH1 0x5 DUP1 SLOAD DUP1 PUSH1 0x20 MUL PUSH1 0x20 ADD PUSH1 0x40 MLOAD SWAP1 DUP2 ADD PUSH1 0x40 MSTORE DUP1 SWAP3 SWAP2 SWAP1 DUP2 DUP2 MSTORE PUSH1 0x20 ADD DUP3 DUP1 SLOAD DUP1 ISZERO PUSH2 0x5581 JUMPI PUSH1 0x20 MUL DUP3 ADD SWAP2 SWAP1 PUSH0 MSTORE PUSH1 0x20 PUSH0 KECCAK256 SWAP1 JUMPDEST DUP2 PUSH0 SWAP1 SLOAD SWAP1 PUSH2 0x100 EXP SWAP1 DIV PUSH20 0xFFFFFFFFFFFFFFFFFFFFFFFFFFFFFFFFFFFFFFFF AND PUSH20 0xFFFFFFFFFFFFFFFFFFFFFFFFFFFFFFFFFFFFFFFF AND DUP2 MSTORE PUSH1 0x20 ADD SWAP1 PUSH1 0x1 ADD SWAP1 DUP1 DUP4 GT PUSH2 0x5538 JUMPI JUMPDEST POP POP POP POP POP SWAP1 POP SWAP1 JUMP JUMPDEST PUSH2 0x5593 PUSH2 0x5842 JUMP JUMPDEST PUSH1 0x3 PUSH0 DUP4 PUSH20 0xFFFFFFFFFFFFFFFFFFFFFFFFFFFFFFFFFFFFFFFF AND PUSH20 0xFFFFFFFFFFFFFFFFFFFFFFFFFFFFFFFFFFFFFFFF AND DUP2 MSTORE PUSH1 0x20 ADD SWAP1 DUP2 MSTORE PUSH1 0x20 ADD PUSH0 KECCAK256 PUSH1 0x40 MLOAD DUP1 PUSH1 0x60 ADD PUSH1 0x40 MSTORE SWAP1 DUP2 PUSH0 DUP3 ADD PUSH0 SWAP1 SLOAD SWAP1 PUSH2 0x100 EXP SWAP1 DIV PUSH20 0xFFFFFFFFFFFFFFFFFFFFFFFFFFFFFFFFFFFFFFFF AND PUSH20 0xFFFFFFFFFFFFFFFFFFFFFFFFFFFFFFFFFFFFFFFF AND PUSH20 0xFFFFFFFFFFFFFFFFFFFFFFFFFFFFFFFFFFFFFFFF AND DUP2 MSTORE PUSH1 0x20 ADD PUSH1 0x1 DUP3 ADD SLOAD DUP2 MSTORE PUSH1 0x20 ADD PUSH1 0x2 DUP3 ADD SLOAD DUP2 MSTORE POP POP SWAP1 POP SWAP2 SWAP1 POP JUMP JUMPDEST PUSH2 0x56E2 DUP3 DUP3 PUSH1 0x40 MLOAD PUSH1 0x24 ADD PUSH2 0x5660 SWAP3 SWAP2 SWAP1 PUSH2 0x7EAA JUMP JUMPDEST PUSH1 0x40 MLOAD PUSH1 0x20 DUP2 DUP4 SUB SUB DUP2 MSTORE SWAP1 PUSH1 0x40 MSTORE PUSH32 0x4B5C427700000000000000000000000000000000000000000000000000000000 PUSH28 0xFFFFFFFFFFFFFFFFFFFFFFFFFFFFFFFFFFFFFFFFFFFFFFFFFFFFFFFF NOT AND PUSH1 0x20 DUP3 ADD DUP1 MLOAD PUSH28 0xFFFFFFFFFFFFFFFFFFFFFFFFFFFFFFFFFFFFFFFFFFFFFFFFFFFFFFFF DUP4 DUP2 DUP4 AND OR DUP4 MSTORE POP POP POP POP PUSH2 0x56E6 JUMP JUMPDEST POP POP JUMP JUMPDEST PUSH2 0x56FD DUP2 PUSH2 0x56F5 PUSH2 0x5700 PUSH2 0x571F JUMP JUMPDEST PUSH4 0xFFFFFFFF AND JUMP JUMPDEST POP JUMP JUMPDEST PUSH0 PUSH11 0x636F6E736F6C652E6C6F67 SWAP1 POP PUSH0 DUP1 DUP4 MLOAD PUSH1 0x20 DUP6 ADD DUP5 GAS STATICCALL POP POP POP JUMP JUMPDEST PUSH2 0x5876 DUP2 SWAP1 POP SWAP2 SWAP1 POP JUMP JUMPDEST POP DUP1 SLOAD PUSH0 DUP3 SSTORE SWAP1 PUSH0 MSTORE PUSH1 0x20 PUSH0 KECCAK256 SWAP1 DUP2 ADD SWAP1 PUSH2 0x5745 SWAP2 SWAP1 PUSH2 0x5880 JUMP JUMPDEST POP JUMP JUMPDEST PUSH1 0x40 MLOAD DUP1 PUSH1 0x60 ADD PUSH1 0x40 MSTORE DUP1 PUSH2 0x575B PUSH2 0x57AD JUMP JUMPDEST DUP2 MSTORE PUSH1 0x20 ADD PUSH1 0x60 DUP2 MSTORE PUSH1 0x20 ADD PUSH1 0x60 DUP2 MSTORE POP SWAP1 JUMP JUMPDEST PUSH1 0x40 MLOAD DUP1 PUSH1 0xA0 ADD PUSH1 0x40 MSTORE DUP1 PUSH0 ISZERO ISZERO DUP2 MSTORE PUSH1 0x20 ADD PUSH0 PUSH1 0x2 DUP2 GT ISZERO PUSH2 0x5795 JUMPI PUSH2 0x5794 PUSH2 0x660C JUMP JUMPDEST JUMPDEST DUP2 MSTORE PUSH1 0x20 ADD PUSH0 DUP2 MSTORE PUSH1 0x20 ADD PUSH0 DUP2 MSTORE PUSH1 0x20 ADD PUSH0 DUP2 MSTORE POP SWAP1 JUMP JUMPDEST PUSH1 0x40 MLOAD DUP1 PUSH2 0x100 ADD PUSH1 0x40 MSTORE DUP1 PUSH1 0x60 DUP2 MSTORE PUSH1 0x20 ADD PUSH1 0x60 DUP2 MSTORE PUSH1 0x20 ADD PUSH1 0x60 DUP2 MSTORE PUSH1 0x20 ADD PUSH1 0x60 DUP2 MSTORE PUSH1 0x20 ADD PUSH0 DUP2 MSTORE PUSH1 0x20 ADD PUSH0 DUP2 MSTORE PUSH1 0x20 ADD PUSH0 PUSH20 0xFFFFFFFFFFFFFFFFFFFFFFFFFFFFFFFFFFFFFFFF AND DUP2 MSTORE PUSH1 0x20 ADD PUSH1 0x60 DUP2 MSTORE POP SWAP1 JUMP JUMPDEST POP DUP1 SLOAD PUSH2 0x5811 SWAP1 PUSH2 0x6E44 JUMP JUMPDEST PUSH0 DUP3 SSTORE DUP1 PUSH1 0x1F LT PUSH2 0x5822 JUMPI POP PUSH2 0x583F JUMP JUMPDEST PUSH1 0x1F ADD PUSH1 0x20 SWAP1 DIV SWAP1 PUSH0 MSTORE PUSH1 0x20 PUSH0 KECCAK256 SWAP1 DUP2 ADD SWAP1 PUSH2 0x583E SWAP2 SWAP1 PUSH2 0x5880 JUMP JUMPDEST JUMPDEST POP JUMP JUMPDEST PUSH1 0x40 MLOAD DUP1 PUSH1 0x60 ADD PUSH1 0x40 MSTORE DUP1 PUSH0 PUSH20 0xFFFFFFFFFFFFFFFFFFFFFFFFFFFFFFFFFFFFFFFF AND DUP2 MSTORE PUSH1 0x20 ADD PUSH0 DUP2 MSTORE PUSH1 0x20 ADD PUSH0 DUP2 MSTORE POP SWAP1 JUMP JUMPDEST PUSH2 0x587E PUSH2 0x7EDF JUMP JUMPDEST JUMP JUMPDEST JUMPDEST DUP1 DUP3 GT ISZERO PUSH2 0x5897 JUMPI PUSH0 DUP2 PUSH0 SWAP1 SSTORE POP PUSH1 0x1 ADD PUSH2 0x5881 JUMP JUMPDEST POP SWAP1 JUMP JUMPDEST PUSH0 PUSH1 0x40 MLOAD SWAP1 POP SWAP1 JUMP JUMPDEST PUSH0 DUP1 REVERT JUMPDEST PUSH0 DUP1 REVERT JUMPDEST PUSH0 DUP1 REVERT JUMPDEST PUSH0 PUSH1 0x1F NOT PUSH1 0x1F DUP4 ADD AND SWAP1 POP SWAP2 SWAP1 POP JUMP JUMPDEST PUSH32 0x4E487B7100000000000000000000000000000000000000000000000000000000 PUSH0 MSTORE PUSH1 0x41 PUSH1 0x4 MSTORE PUSH1 0x24 PUSH0 REVERT JUMPDEST PUSH2 0x58F6 DUP3 PUSH2 0x58B0 JUMP JUMPDEST DUP2 ADD DUP2 DUP2 LT PUSH8 0xFFFFFFFFFFFFFFFF DUP3 GT OR ISZERO PUSH2 0x5915 JUMPI PUSH2 0x5914 PUSH2 0x58C0 JUMP JUMPDEST JUMPDEST DUP1 PUSH1 0x40 MSTORE POP POP POP JUMP JUMPDEST PUSH0 PUSH2 0x5927 PUSH2 0x589B JUMP JUMPDEST SWAP1 POP PUSH2 0x5933 DUP3 DUP3 PUSH2 0x58ED JUMP JUMPDEST SWAP2 SWAP1 POP JUMP JUMPDEST PUSH0 PUSH8 0xFFFFFFFFFFFFFFFF DUP3 GT ISZERO PUSH2 0x5952 JUMPI PUSH2 0x5951 PUSH2 0x58C0 JUMP JUMPDEST JUMPDEST PUSH1 0x20 DUP3 MUL SWAP1 POP PUSH1 0x20 DUP2 ADD SWAP1 POP SWAP2 SWAP1 POP JUMP JUMPDEST PUSH0 DUP1 REVERT JUMPDEST PUSH0 DUP2 SWAP1 POP SWAP2 SWAP1 POP JUMP JUMPDEST PUSH2 0x5979 DUP2 PUSH2 0x5967 JUMP JUMPDEST DUP2 EQ PUSH2 0x5983 JUMPI PUSH0 DUP1 REVERT JUMPDEST POP JUMP JUMPDEST PUSH0 DUP2 CALLDATALOAD SWAP1 POP PUSH2 0x5994 DUP2 PUSH2 0x5970 JUMP JUMPDEST SWAP3 SWAP2 POP POP JUMP JUMPDEST PUSH0 PUSH2 0x59AC PUSH2 0x59A7 DUP5 PUSH2 0x5938 JUMP JUMPDEST PUSH2 0x591E JUMP JUMPDEST SWAP1 POP DUP1 DUP4 DUP3 MSTORE PUSH1 0x20 DUP3 ADD SWAP1 POP PUSH1 0x20 DUP5 MUL DUP4 ADD DUP6 DUP2 GT ISZERO PUSH2 0x59CF JUMPI PUSH2 0x59CE PUSH2 0x5963 JUMP JUMPDEST JUMPDEST DUP4 JUMPDEST DUP2 DUP2 LT ISZERO PUSH2 0x59F8 JUMPI DUP1 PUSH2 0x59E4 DUP9 DUP3 PUSH2 0x5986 JUMP JUMPDEST DUP5 MSTORE PUSH1 0x20 DUP5 ADD SWAP4 POP POP PUSH1 0x20 DUP2 ADD SWAP1 POP PUSH2 0x59D1 JUMP JUMPDEST POP POP POP SWAP4 SWAP3 POP POP POP JUMP JUMPDEST PUSH0 DUP3 PUSH1 0x1F DUP4 ADD SLT PUSH2 0x5A16 JUMPI PUSH2 0x5A15 PUSH2 0x58AC JUMP JUMPDEST JUMPDEST DUP2 CALLDATALOAD PUSH2 0x5A26 DUP5 DUP3 PUSH1 0x20 DUP7 ADD PUSH2 0x599A JUMP JUMPDEST SWAP2 POP POP SWAP3 SWAP2 POP POP JUMP JUMPDEST PUSH0 DUP1 REVERT JUMPDEST PUSH0 PUSH8 0xFFFFFFFFFFFFFFFF DUP3 GT ISZERO PUSH2 0x5A4D JUMPI PUSH2 0x5A4C PUSH2 0x58C0 JUMP JUMPDEST JUMPDEST PUSH2 0x5A56 DUP3 PUSH2 0x58B0 JUMP JUMPDEST SWAP1 POP PUSH1 0x20 DUP2 ADD SWAP1 POP SWAP2 SWAP1 POP JUMP JUMPDEST DUP3 DUP2 DUP4 CALLDATACOPY PUSH0 DUP4 DUP4 ADD MSTORE POP POP POP JUMP JUMPDEST PUSH0 PUSH2 0x5A83 PUSH2 0x5A7E DUP5 PUSH2 0x5A33 JUMP JUMPDEST PUSH2 0x591E JUMP JUMPDEST SWAP1 POP DUP3 DUP2 MSTORE PUSH1 0x20 DUP2 ADD DUP5 DUP5 DUP5 ADD GT ISZERO PUSH2 0x5A9F JUMPI PUSH2 0x5A9E PUSH2 0x5A2F JUMP JUMPDEST JUMPDEST PUSH2 0x5AAA DUP5 DUP3 DUP6 PUSH2 0x5A63 JUMP JUMPDEST POP SWAP4 SWAP3 POP POP POP JUMP JUMPDEST PUSH0 DUP3 PUSH1 0x1F DUP4 ADD SLT PUSH2 0x5AC6 JUMPI PUSH2 0x5AC5 PUSH2 0x58AC JUMP JUMPDEST JUMPDEST DUP2 CALLDATALOAD PUSH2 0x5AD6 DUP5 DUP3 PUSH1 0x20 DUP7 ADD PUSH2 0x5A71 JUMP JUMPDEST SWAP2 POP POP SWAP3 SWAP2 POP POP JUMP JUMPDEST PUSH0 PUSH8 0xFFFFFFFFFFFFFFFF DUP3 GT ISZERO PUSH2 0x5AF9 JUMPI PUSH2 0x5AF8 PUSH2 0x58C0 JUMP JUMPDEST JUMPDEST PUSH1 0x20 DUP3 MUL SWAP1 POP PUSH1 0x20 DUP2 ADD SWAP1 POP SWAP2 SWAP1 POP JUMP JUMPDEST PUSH0 PUSH2 0x5B1C PUSH2 0x5B17 DUP5 PUSH2 0x5ADF JUMP JUMPDEST PUSH2 0x591E JUMP JUMPDEST SWAP1 POP DUP1 DUP4 DUP3 MSTORE PUSH1 0x20 DUP3 ADD SWAP1 POP PUSH1 0x20 DUP5 MUL DUP4 ADD DUP6 DUP2 GT ISZERO PUSH2 0x5B3F JUMPI PUSH2 0x5B3E PUSH2 0x5963 JUMP JUMPDEST JUMPDEST DUP4 JUMPDEST DUP2 DUP2 LT ISZERO PUSH2 0x5B86 JUMPI DUP1 CALLDATALOAD PUSH8 0xFFFFFFFFFFFFFFFF DUP2 GT ISZERO PUSH2 0x5B64 JUMPI PUSH2 0x5B63 PUSH2 0x58AC JUMP JUMPDEST JUMPDEST DUP1 DUP7 ADD PUSH2 0x5B71 DUP10 DUP3 PUSH2 0x5AB2 JUMP JUMPDEST DUP6 MSTORE PUSH1 0x20 DUP6 ADD SWAP5 POP POP POP PUSH1 0x20 DUP2 ADD SWAP1 POP PUSH2 0x5B41 JUMP JUMPDEST POP POP POP SWAP4 SWAP3 POP POP POP JUMP JUMPDEST PUSH0 DUP3 PUSH1 0x1F DUP4 ADD SLT PUSH2 0x5BA4 JUMPI PUSH2 0x5BA3 PUSH2 0x58AC JUMP JUMPDEST JUMPDEST DUP2 CALLDATALOAD PUSH2 0x5BB4 DUP5 DUP3 PUSH1 0x20 DUP7 ADD PUSH2 0x5B0A JUMP JUMPDEST SWAP2 POP POP SWAP3 SWAP2 POP POP JUMP JUMPDEST PUSH0 DUP1 PUSH0 DUP1 PUSH0 DUP1 PUSH0 DUP1 PUSH2 0x100 DUP10 DUP12 SUB SLT ISZERO PUSH2 0x5BDA JUMPI PUSH2 0x5BD9 PUSH2 0x58A4 JUMP JUMPDEST JUMPDEST PUSH0 DUP10 ADD CALLDATALOAD PUSH8 0xFFFFFFFFFFFFFFFF DUP2 GT ISZERO PUSH2 0x5BF7 JUMPI PUSH2 0x5BF6 PUSH2 0x58A8 JUMP JUMPDEST JUMPDEST PUSH2 0x5C03 DUP12 DUP3 DUP13 ADD PUSH2 0x5A02 JUMP JUMPDEST SWAP9 POP POP PUSH1 0x20 DUP10 ADD CALLDATALOAD PUSH8 0xFFFFFFFFFFFFFFFF DUP2 GT ISZERO PUSH2 0x5C24 JUMPI PUSH2 0x5C23 PUSH2 0x58A8 JUMP JUMPDEST JUMPDEST PUSH2 0x5C30 DUP12 DUP3 DUP13 ADD PUSH2 0x5AB2 JUMP JUMPDEST SWAP8 POP POP PUSH1 0x40 DUP10 ADD CALLDATALOAD PUSH8 0xFFFFFFFFFFFFFFFF DUP2 GT ISZERO PUSH2 0x5C51 JUMPI PUSH2 0x5C50 PUSH2 0x58A8 JUMP JUMPDEST JUMPDEST PUSH2 0x5C5D DUP12 DUP3 DUP13 ADD PUSH2 0x5AB2 JUMP JUMPDEST SWAP7 POP POP PUSH1 0x60 DUP10 ADD CALLDATALOAD PUSH8 0xFFFFFFFFFFFFFFFF DUP2 GT ISZERO PUSH2 0x5C7E JUMPI PUSH2 0x5C7D PUSH2 0x58A8 JUMP JUMPDEST JUMPDEST PUSH2 0x5C8A DUP12 DUP3 DUP13 ADD PUSH2 0x5AB2 JUMP JUMPDEST SWAP6 POP POP PUSH1 0x80 DUP10 ADD CALLDATALOAD PUSH8 0xFFFFFFFFFFFFFFFF DUP2 GT ISZERO PUSH2 0x5CAB JUMPI PUSH2 0x5CAA PUSH2 0x58A8 JUMP JUMPDEST JUMPDEST PUSH2 0x5CB7 DUP12 DUP3 DUP13 ADD PUSH2 0x5AB2 JUMP JUMPDEST SWAP5 POP POP PUSH1 0xA0 PUSH2 0x5CC8 DUP12 DUP3 DUP13 ADD PUSH2 0x5986 JUMP JUMPDEST SWAP4 POP POP PUSH1 0xC0 DUP10 ADD CALLDATALOAD PUSH8 0xFFFFFFFFFFFFFFFF DUP2 GT ISZERO PUSH2 0x5CE9 JUMPI PUSH2 0x5CE8 PUSH2 0x58A8 JUMP JUMPDEST JUMPDEST PUSH2 0x5CF5 DUP12 DUP3 DUP13 ADD PUSH2 0x5AB2 JUMP JUMPDEST SWAP3 POP POP PUSH1 0xE0 DUP10 ADD CALLDATALOAD PUSH8 0xFFFFFFFFFFFFFFFF DUP2 GT ISZERO PUSH2 0x5D16 JUMPI PUSH2 0x5D15 PUSH2 0x58A8 JUMP JUMPDEST JUMPDEST PUSH2 0x5D22 DUP12 DUP3 DUP13 ADD PUSH2 0x5B90 JUMP JUMPDEST SWAP2 POP POP SWAP3 SWAP6 SWAP9 POP SWAP3 SWAP6 SWAP9 SWAP1 SWAP4 SWAP7 POP JUMP JUMPDEST PUSH0 PUSH20 0xFFFFFFFFFFFFFFFFFFFFFFFFFFFFFFFFFFFFFFFF DUP3 AND SWAP1 POP SWAP2 SWAP1 POP JUMP JUMPDEST PUSH0 PUSH2 0x5D5B DUP3 PUSH2 0x5D32 JUMP JUMPDEST SWAP1 POP SWAP2 SWAP1 POP JUMP JUMPDEST PUSH2 0x5D6B DUP2 PUSH2 0x5D51 JUMP JUMPDEST DUP2 EQ PUSH2 0x5D75 JUMPI PUSH0 DUP1 REVERT JUMPDEST POP JUMP JUMPDEST PUSH0 DUP2 CALLDATALOAD SWAP1 POP PUSH2 0x5D86 DUP2 PUSH2 0x5D62 JUMP JUMPDEST SWAP3 SWAP2 POP POP JUMP JUMPDEST PUSH0 DUP1 PUSH1 0x40 DUP4 DUP6 SUB SLT ISZERO PUSH2 0x5DA2 JUMPI PUSH2 0x5DA1 PUSH2 0x58A4 JUMP JUMPDEST JUMPDEST PUSH0 PUSH2 0x5DAF DUP6 DUP3 DUP7 ADD PUSH2 0x5D78 JUMP JUMPDEST SWAP3 POP POP PUSH1 0x20 PUSH2 0x5DC0 DUP6 DUP3 DUP7 ADD PUSH2 0x5986 JUMP JUMPDEST SWAP2 POP POP SWAP3 POP SWAP3 SWAP1 POP JUMP JUMPDEST PUSH0 PUSH2 0x5DD4 DUP3 PUSH2 0x5D32 JUMP JUMPDEST SWAP1 POP SWAP2 SWAP1 POP JUMP JUMPDEST PUSH2 0x5DE4 DUP2 PUSH2 0x5DCA JUMP JUMPDEST DUP2 EQ PUSH2 0x5DEE JUMPI PUSH0 DUP1 REVERT JUMPDEST POP JUMP JUMPDEST PUSH0 DUP2 CALLDATALOAD SWAP1 POP PUSH2 0x5DFF DUP2 PUSH2 0x5DDB JUMP JUMPDEST SWAP3 SWAP2 POP POP JUMP JUMPDEST PUSH0 DUP1 PUSH1 0x40 DUP4 DUP6 SUB SLT ISZERO PUSH2 0x5E1B JUMPI PUSH2 0x5E1A PUSH2 0x58A4 JUMP JUMPDEST JUMPDEST PUSH0 PUSH2 0x5E28 DUP6 DUP3 DUP7 ADD PUSH2 0x5DF1 JUMP JUMPDEST SWAP3 POP POP PUSH1 0x20 PUSH2 0x5E39 DUP6 DUP3 DUP7 ADD PUSH2 0x5986 JUMP JUMPDEST SWAP2 POP POP SWAP3 POP SWAP3 SWAP1 POP JUMP JUMPDEST PUSH0 PUSH1 0x20 DUP3 DUP5 SUB SLT ISZERO PUSH2 0x5E58 JUMPI PUSH2 0x5E57 PUSH2 0x58A4 JUMP JUMPDEST JUMPDEST PUSH0 PUSH2 0x5E65 DUP5 DUP3 DUP6 ADD PUSH2 0x5986 JUMP JUMPDEST SWAP2 POP POP SWAP3 SWAP2 POP POP JUMP JUMPDEST PUSH2 0x5E77 DUP2 PUSH2 0x5DCA JUMP JUMPDEST DUP3 MSTORE POP POP JUMP JUMPDEST PUSH0 PUSH1 0x20 DUP3 ADD SWAP1 POP PUSH2 0x5E90 PUSH0 DUP4 ADD DUP5 PUSH2 0x5E6E JUMP JUMPDEST SWAP3 SWAP2 POP POP JUMP JUMPDEST PUSH0 DUP1 PUSH0 DUP1 PUSH1 0x80 DUP6 DUP8 SUB SLT ISZERO PUSH2 0x5EAE JUMPI PUSH2 0x5EAD PUSH2 0x58A4 JUMP JUMPDEST JUMPDEST PUSH0 PUSH2 0x5EBB DUP8 DUP3 DUP9 ADD PUSH2 0x5DF1 JUMP JUMPDEST SWAP5 POP POP PUSH1 0x20 PUSH2 0x5ECC DUP8 DUP3 DUP9 ADD PUSH2 0x5986 JUMP JUMPDEST SWAP4 POP POP PUSH1 0x40 DUP6 ADD CALLDATALOAD PUSH8 0xFFFFFFFFFFFFFFFF DUP2 GT ISZERO PUSH2 0x5EED JUMPI PUSH2 0x5EEC PUSH2 0x58A8 JUMP JUMPDEST JUMPDEST PUSH2 0x5EF9 DUP8 DUP3 DUP9 ADD PUSH2 0x5AB2 JUMP JUMPDEST SWAP3 POP POP PUSH1 0x60 DUP6 ADD CALLDATALOAD PUSH8 0xFFFFFFFFFFFFFFFF DUP2 GT ISZERO PUSH2 0x5F1A JUMPI PUSH2 0x5F19 PUSH2 0x58A8 JUMP JUMPDEST JUMPDEST PUSH2 0x5F26 DUP8 DUP3 DUP9 ADD PUSH2 0x5AB2 JUMP JUMPDEST SWAP2 POP POP SWAP3 SWAP6 SWAP2 SWAP5 POP SWAP3 POP JUMP JUMPDEST PUSH2 0x5F3B DUP2 PUSH2 0x5967 JUMP JUMPDEST DUP3 MSTORE POP POP JUMP JUMPDEST PUSH0 PUSH1 0x20 DUP3 ADD SWAP1 POP PUSH2 0x5F54 PUSH0 DUP4 ADD DUP5 PUSH2 0x5F32 JUMP JUMPDEST SWAP3 SWAP2 POP POP JUMP JUMPDEST PUSH0 DUP2 MLOAD SWAP1 POP SWAP2 SWAP1 POP JUMP JUMPDEST PUSH0 DUP3 DUP3 MSTORE PUSH1 0x20 DUP3 ADD SWAP1 POP SWAP3 SWAP2 POP POP JUMP JUMPDEST PUSH0 JUMPDEST DUP4 DUP2 LT ISZERO PUSH2 0x5F91 JUMPI DUP1 DUP3 ADD MLOAD DUP2 DUP5 ADD MSTORE PUSH1 0x20 DUP2 ADD SWAP1 POP PUSH2 0x5F76 JUMP JUMPDEST PUSH0 DUP5 DUP5 ADD MSTORE POP POP POP POP JUMP JUMPDEST PUSH0 PUSH2 0x5FA6 DUP3 PUSH2 0x5F5A JUMP JUMPDEST PUSH2 0x5FB0 DUP2 DUP6 PUSH2 0x5F64 JUMP JUMPDEST SWAP4 POP PUSH2 0x5FC0 DUP2 DUP6 PUSH1 0x20 DUP7 ADD PUSH2 0x5F74 JUMP JUMPDEST PUSH2 0x5FC9 DUP2 PUSH2 0x58B0 JUMP JUMPDEST DUP5 ADD SWAP2 POP POP SWAP3 SWAP2 POP POP JUMP JUMPDEST PUSH0 PUSH2 0x100 DUP3 ADD SWAP1 POP DUP2 DUP2 SUB PUSH0 DUP4 ADD MSTORE PUSH2 0x5FED DUP2 DUP12 PUSH2 0x5F9C JUMP JUMPDEST SWAP1 POP DUP2 DUP2 SUB PUSH1 0x20 DUP4 ADD MSTORE PUSH2 0x6001 DUP2 DUP11 PUSH2 0x5F9C JUMP JUMPDEST SWAP1 POP DUP2 DUP2 SUB PUSH1 0x40 DUP4 ADD MSTORE PUSH2 0x6015 DUP2 DUP10 PUSH2 0x5F9C JUMP JUMPDEST SWAP1 POP DUP2 DUP2 SUB PUSH1 0x60 DUP4 ADD MSTORE PUSH2 0x6029 DUP2 DUP9 PUSH2 0x5F9C JUMP JUMPDEST SWAP1 POP PUSH2 0x6038 PUSH1 0x80 DUP4 ADD DUP8 PUSH2 0x5F32 JUMP JUMPDEST PUSH2 0x6045 PUSH1 0xA0 DUP4 ADD DUP7 PUSH2 0x5F32 JUMP JUMPDEST PUSH2 0x6052 PUSH1 0xC0 DUP4 ADD DUP6 PUSH2 0x5E6E JUMP JUMPDEST DUP2 DUP2 SUB PUSH1 0xE0 DUP4 ADD MSTORE PUSH2 0x6064 DUP2 DUP5 PUSH2 0x5F9C JUMP JUMPDEST SWAP1 POP SWAP10 SWAP9 POP POP POP POP POP POP POP POP POP JUMP JUMPDEST PUSH0 PUSH1 0x20 DUP3 DUP5 SUB SLT ISZERO PUSH2 0x6088 JUMPI PUSH2 0x6087 PUSH2 0x58A4 JUMP JUMPDEST JUMPDEST PUSH0 PUSH2 0x6095 DUP5 DUP3 DUP6 ADD PUSH2 0x5DF1 JUMP JUMPDEST SWAP2 POP POP SWAP3 SWAP2 POP POP JUMP JUMPDEST PUSH0 PUSH1 0x60 DUP3 ADD SWAP1 POP PUSH2 0x60B1 PUSH0 DUP4 ADD DUP7 PUSH2 0x5E6E JUMP JUMPDEST PUSH2 0x60BE PUSH1 0x20 DUP4 ADD DUP6 PUSH2 0x5F32 JUMP JUMPDEST PUSH2 0x60CB PUSH1 0x40 DUP4 ADD DUP5 PUSH2 0x5F32 JUMP JUMPDEST SWAP5 SWAP4 POP POP POP POP JUMP JUMPDEST PUSH0 DUP1 PUSH1 0x40 DUP4 DUP6 SUB SLT ISZERO PUSH2 0x60E9 JUMPI PUSH2 0x60E8 PUSH2 0x58A4 JUMP JUMPDEST JUMPDEST PUSH0 DUP4 ADD CALLDATALOAD PUSH8 0xFFFFFFFFFFFFFFFF DUP2 GT ISZERO PUSH2 0x6106 JUMPI PUSH2 0x6105 PUSH2 0x58A8 JUMP JUMPDEST JUMPDEST PUSH2 0x6112 DUP6 DUP3 DUP7 ADD PUSH2 0x5AB2 JUMP JUMPDEST SWAP3 POP POP PUSH1 0x20 PUSH2 0x6123 DUP6 DUP3 DUP7 ADD PUSH2 0x5986 JUMP JUMPDEST SWAP2 POP POP SWAP3 POP SWAP3 SWAP1 POP JUMP JUMPDEST PUSH1 0x3 DUP2 LT PUSH2 0x6139 JUMPI PUSH0 DUP1 REVERT JUMPDEST POP JUMP JUMPDEST PUSH0 DUP2 CALLDATALOAD SWAP1 POP PUSH2 0x614A DUP2 PUSH2 0x612D JUMP JUMPDEST SWAP3 SWAP2 POP POP JUMP JUMPDEST PUSH0 PUSH1 0x20 DUP3 DUP5 SUB SLT ISZERO PUSH2 0x6165 JUMPI PUSH2 0x6164 PUSH2 0x58A4 JUMP JUMPDEST JUMPDEST PUSH0 PUSH2 0x6172 DUP5 DUP3 DUP6 ADD PUSH2 0x613C JUMP JUMPDEST SWAP2 POP POP SWAP3 SWAP2 POP POP JUMP JUMPDEST PUSH0 PUSH1 0x20 DUP3 DUP5 SUB SLT ISZERO PUSH2 0x6190 JUMPI PUSH2 0x618F PUSH2 0x58A4 JUMP JUMPDEST JUMPDEST PUSH0 DUP3 ADD CALLDATALOAD PUSH8 0xFFFFFFFFFFFFFFFF DUP2 GT ISZERO PUSH2 0x61AD JUMPI PUSH2 0x61AC PUSH2 0x58A8 JUMP JUMPDEST JUMPDEST PUSH2 0x61B9 DUP5 DUP3 DUP6 ADD PUSH2 0x5AB2 JUMP JUMPDEST SWAP2 POP POP SWAP3 SWAP2 POP POP JUMP JUMPDEST PUSH0 DUP3 DUP3 MSTORE PUSH1 0x20 DUP3 ADD SWAP1 POP SWAP3 SWAP2 POP POP JUMP JUMPDEST PUSH0 PUSH2 0x61DC DUP3 PUSH2 0x5F5A JUMP JUMPDEST PUSH2 0x61E6 DUP2 DUP6 PUSH2 0x61C2 JUMP JUMPDEST SWAP4 POP PUSH2 0x61F6 DUP2 DUP6 PUSH1 0x20 DUP7 ADD PUSH2 0x5F74 JUMP JUMPDEST PUSH2 0x61FF DUP2 PUSH2 0x58B0 JUMP JUMPDEST DUP5 ADD SWAP2 POP POP SWAP3 SWAP2 POP POP JUMP JUMPDEST PUSH2 0x6213 DUP2 PUSH2 0x5967 JUMP JUMPDEST DUP3 MSTORE POP POP JUMP JUMPDEST PUSH2 0x6222 DUP2 PUSH2 0x5DCA JUMP JUMPDEST DUP3 MSTORE POP POP JUMP JUMPDEST PUSH0 PUSH2 0x100 DUP4 ADD PUSH0 DUP4 ADD MLOAD DUP5 DUP3 SUB PUSH0 DUP7 ADD MSTORE PUSH2 0x6243 DUP3 DUP3 PUSH2 0x61D2 JUMP JUMPDEST SWAP2 POP POP PUSH1 0x20 DUP4 ADD MLOAD DUP5 DUP3 SUB PUSH1 0x20 DUP7 ADD MSTORE PUSH2 0x625D DUP3 DUP3 PUSH2 0x61D2 JUMP JUMPDEST SWAP2 POP POP PUSH1 0x40 DUP4 ADD MLOAD DUP5 DUP3 SUB PUSH1 0x40 DUP7 ADD MSTORE PUSH2 0x6277 DUP3 DUP3 PUSH2 0x61D2 JUMP JUMPDEST SWAP2 POP POP PUSH1 0x60 DUP4 ADD MLOAD DUP5 DUP3 SUB PUSH1 0x60 DUP7 ADD MSTORE PUSH2 0x6291 DUP3 DUP3 PUSH2 0x61D2 JUMP JUMPDEST SWAP2 POP POP PUSH1 0x80 DUP4 ADD MLOAD PUSH2 0x62A6 PUSH1 0x80 DUP7 ADD DUP3 PUSH2 0x620A JUMP JUMPDEST POP PUSH1 0xA0 DUP4 ADD MLOAD PUSH2 0x62B9 PUSH1 0xA0 DUP7 ADD DUP3 PUSH2 0x620A JUMP JUMPDEST POP PUSH1 0xC0 DUP4 ADD MLOAD PUSH2 0x62CC PUSH1 0xC0 DUP7 ADD DUP3 PUSH2 0x6219 JUMP JUMPDEST POP PUSH1 0xE0 DUP4 ADD MLOAD DUP5 DUP3 SUB PUSH1 0xE0 DUP7 ADD MSTORE PUSH2 0x62E4 DUP3 DUP3 PUSH2 0x61D2 JUMP JUMPDEST SWAP2 POP POP DUP1 SWAP2 POP POP SWAP3 SWAP2 POP POP JUMP JUMPDEST PUSH0 DUP2 MLOAD SWAP1 POP SWAP2 SWAP1 POP JUMP JUMPDEST PUSH0 DUP3 DUP3 MSTORE PUSH1 0x20 DUP3 ADD SWAP1 POP SWAP3 SWAP2 POP POP JUMP JUMPDEST PUSH0 DUP2 SWAP1 POP PUSH1 0x20 DUP3 ADD SWAP1 POP SWAP2 SWAP1 POP JUMP JUMPDEST PUSH0 PUSH2 0x6325 DUP4 DUP4 PUSH2 0x6219 JUMP JUMPDEST PUSH1 0x20 DUP4 ADD SWAP1 POP SWAP3 SWAP2 POP POP JUMP JUMPDEST PUSH0 PUSH1 0x20 DUP3 ADD SWAP1 POP SWAP2 SWAP1 POP JUMP JUMPDEST PUSH0 PUSH2 0x6347 DUP3 PUSH2 0x62F1 JUMP JUMPDEST PUSH2 0x6351 DUP2 DUP6 PUSH2 0x62FB JUMP JUMPDEST SWAP4 POP PUSH2 0x635C DUP4 PUSH2 0x630B JUMP JUMPDEST DUP1 PUSH0 JUMPDEST DUP4 DUP2 LT ISZERO PUSH2 0x638C JUMPI DUP2 MLOAD PUSH2 0x6373 DUP9 DUP3 PUSH2 0x631A JUMP JUMPDEST SWAP8 POP PUSH2 0x637E DUP4 PUSH2 0x6331 JUMP JUMPDEST SWAP3 POP POP PUSH1 0x1 DUP2 ADD SWAP1 POP PUSH2 0x635F JUMP JUMPDEST POP DUP6 SWAP4 POP POP POP POP SWAP3 SWAP2 POP POP JUMP JUMPDEST PUSH0 DUP2 MLOAD SWAP1 POP SWAP2 SWAP1 POP JUMP JUMPDEST PUSH0 DUP3 DUP3 MSTORE PUSH1 0x20 DUP3 ADD SWAP1 POP SWAP3 SWAP2 POP POP JUMP JUMPDEST PUSH0 DUP2 SWAP1 POP PUSH1 0x20 DUP3 ADD SWAP1 POP SWAP2 SWAP1 POP JUMP JUMPDEST PUSH0 PUSH2 0x63CD DUP4 DUP4 PUSH2 0x61D2 JUMP JUMPDEST SWAP1 POP SWAP3 SWAP2 POP POP JUMP JUMPDEST PUSH0 PUSH1 0x20 DUP3 ADD SWAP1 POP SWAP2 SWAP1 POP JUMP JUMPDEST PUSH0 PUSH2 0x63EB DUP3 PUSH2 0x6399 JUMP JUMPDEST PUSH2 0x63F5 DUP2 DUP6 PUSH2 0x63A3 JUMP JUMPDEST SWAP4 POP DUP4 PUSH1 0x20 DUP3 MUL DUP6 ADD PUSH2 0x6407 DUP6 PUSH2 0x63B3 JUMP JUMPDEST DUP1 PUSH0 JUMPDEST DUP6 DUP2 LT ISZERO PUSH2 0x6442 JUMPI DUP5 DUP5 SUB DUP10 MSTORE DUP2 MLOAD PUSH2 0x6423 DUP6 DUP3 PUSH2 0x63C2 JUMP JUMPDEST SWAP5 POP PUSH2 0x642E DUP4 PUSH2 0x63D5 JUMP JUMPDEST SWAP3 POP PUSH1 0x20 DUP11 ADD SWAP10 POP POP PUSH1 0x1 DUP2 ADD SWAP1 POP PUSH2 0x640A JUMP JUMPDEST POP DUP3 SWAP8 POP DUP8 SWAP6 POP POP POP POP POP POP SWAP3 SWAP2 POP POP JUMP JUMPDEST PUSH0 PUSH1 0x60 DUP4 ADD PUSH0 DUP4 ADD MLOAD DUP5 DUP3 SUB PUSH0 DUP7 ADD MSTORE PUSH2 0x646E DUP3 DUP3 PUSH2 0x6228 JUMP JUMPDEST SWAP2 POP POP PUSH1 0x20 DUP4 ADD MLOAD DUP5 DUP3 SUB PUSH1 0x20 DUP7 ADD MSTORE PUSH2 0x6488 DUP3 DUP3 PUSH2 0x633D JUMP JUMPDEST SWAP2 POP POP PUSH1 0x40 DUP4 ADD MLOAD DUP5 DUP3 SUB PUSH1 0x40 DUP7 ADD MSTORE PUSH2 0x64A2 DUP3 DUP3 PUSH2 0x63E1 JUMP JUMPDEST SWAP2 POP POP DUP1 SWAP2 POP POP SWAP3 SWAP2 POP POP JUMP JUMPDEST PUSH0 PUSH1 0x20 DUP3 ADD SWAP1 POP DUP2 DUP2 SUB PUSH0 DUP4 ADD MSTORE PUSH2 0x64C7 DUP2 DUP5 PUSH2 0x6454 JUMP JUMPDEST SWAP1 POP SWAP3 SWAP2 POP POP JUMP JUMPDEST PUSH0 DUP2 ISZERO ISZERO SWAP1 POP SWAP2 SWAP1 POP JUMP JUMPDEST PUSH2 0x64E3 DUP2 PUSH2 0x64CF JUMP JUMPDEST DUP3 MSTORE POP POP JUMP JUMPDEST PUSH0 PUSH1 0x20 DUP3 ADD SWAP1 POP PUSH2 0x64FC PUSH0 DUP4 ADD DUP5 PUSH2 0x64DA JUMP JUMPDEST SWAP3 SWAP2 POP POP JUMP JUMPDEST PUSH0 PUSH1 0x20 DUP3 ADD SWAP1 POP DUP2 DUP2 SUB PUSH0 DUP4 ADD MSTORE PUSH2 0x651A DUP2 DUP5 PUSH2 0x5F9C JUMP JUMPDEST SWAP1 POP SWAP3 SWAP2 POP POP JUMP JUMPDEST PUSH0 DUP2 MLOAD SWAP1 POP SWAP2 SWAP1 POP JUMP JUMPDEST PUSH0 DUP3 DUP3 MSTORE PUSH1 0x20 DUP3 ADD SWAP1 POP SWAP3 SWAP2 POP POP JUMP JUMPDEST PUSH0 DUP2 SWAP1 POP PUSH1 0x20 DUP3 ADD SWAP1 POP SWAP2 SWAP1 POP JUMP JUMPDEST PUSH0 PUSH2 0x6556 DUP4 DUP4 PUSH2 0x6228 JUMP JUMPDEST SWAP1 POP SWAP3 SWAP2 POP POP JUMP JUMPDEST PUSH0 PUSH1 0x20 DUP3 ADD SWAP1 POP SWAP2 SWAP1 POP JUMP JUMPDEST PUSH0 PUSH2 0x6574 DUP3 PUSH2 0x6522 JUMP JUMPDEST PUSH2 0x657E DUP2 DUP6 PUSH2 0x652C JUMP JUMPDEST SWAP4 POP DUP4 PUSH1 0x20 DUP3 MUL DUP6 ADD PUSH2 0x6590 DUP6 PUSH2 0x653C JUMP JUMPDEST DUP1 PUSH0 JUMPDEST DUP6 DUP2 LT ISZERO PUSH2 0x65CB JUMPI DUP5 DUP5 SUB DUP10 MSTORE DUP2 MLOAD PUSH2 0x65AC DUP6 DUP3 PUSH2 0x654B JUMP JUMPDEST SWAP5 POP PUSH2 0x65B7 DUP4 PUSH2 0x655E JUMP JUMPDEST SWAP3 POP PUSH1 0x20 DUP11 ADD SWAP10 POP POP PUSH1 0x1 DUP2 ADD SWAP1 POP PUSH2 0x6593 JUMP JUMPDEST POP DUP3 SWAP8 POP DUP8 SWAP6 POP POP POP POP POP POP SWAP3 SWAP2 POP POP JUMP JUMPDEST PUSH0 PUSH1 0x20 DUP3 ADD SWAP1 POP DUP2 DUP2 SUB PUSH0 DUP4 ADD MSTORE PUSH2 0x65F5 DUP2 DUP5 PUSH2 0x656A JUMP JUMPDEST SWAP1 POP SWAP3 SWAP2 POP POP JUMP JUMPDEST PUSH2 0x6606 DUP2 PUSH2 0x64CF JUMP JUMPDEST DUP3 MSTORE POP POP JUMP JUMPDEST PUSH32 0x4E487B7100000000000000000000000000000000000000000000000000000000 PUSH0 MSTORE PUSH1 0x21 PUSH1 0x4 MSTORE PUSH1 0x24 PUSH0 REVERT JUMPDEST PUSH1 0x3 DUP2 LT PUSH2 0x664A JUMPI PUSH2 0x6649 PUSH2 0x660C JUMP JUMPDEST JUMPDEST POP JUMP JUMPDEST PUSH0 DUP2 SWAP1 POP PUSH2 0x665A DUP3 PUSH2 0x6639 JUMP JUMPDEST SWAP2 SWAP1 POP JUMP JUMPDEST PUSH0 PUSH2 0x6669 DUP3 PUSH2 0x664D JUMP JUMPDEST SWAP1 POP SWAP2 SWAP1 POP JUMP JUMPDEST PUSH2 0x6679 DUP2 PUSH2 0x665F JUMP JUMPDEST DUP3 MSTORE POP POP JUMP JUMPDEST PUSH1 0xA0 DUP3 ADD PUSH0 DUP3 ADD MLOAD PUSH2 0x6693 PUSH0 DUP6 ADD DUP3 PUSH2 0x65FD JUMP JUMPDEST POP PUSH1 0x20 DUP3 ADD MLOAD PUSH2 0x66A6 PUSH1 0x20 DUP6 ADD DUP3 PUSH2 0x6670 JUMP JUMPDEST POP PUSH1 0x40 DUP3 ADD MLOAD PUSH2 0x66B9 PUSH1 0x40 DUP6 ADD DUP3 PUSH2 0x620A JUMP JUMPDEST POP PUSH1 0x60 DUP3 ADD MLOAD PUSH2 0x66CC PUSH1 0x60 DUP6 ADD DUP3 PUSH2 0x620A JUMP JUMPDEST POP PUSH1 0x80 DUP3 ADD MLOAD PUSH2 0x66DF PUSH1 0x80 DUP6 ADD DUP3 PUSH2 0x620A JUMP JUMPDEST POP POP POP POP JUMP JUMPDEST PUSH0 PUSH1 0xA0 DUP3 ADD SWAP1 POP PUSH2 0x66F8 PUSH0 DUP4 ADD DUP5 PUSH2 0x667F JUMP JUMPDEST SWAP3 SWAP2 POP POP JUMP JUMPDEST PUSH2 0x6707 DUP2 PUSH2 0x665F JUMP JUMPDEST DUP3 MSTORE POP POP JUMP JUMPDEST PUSH0 PUSH1 0x20 DUP3 ADD SWAP1 POP PUSH2 0x6720 PUSH0 DUP4 ADD DUP5 PUSH2 0x66FE JUMP JUMPDEST SWAP3 SWAP2 POP POP JUMP JUMPDEST PUSH0 PUSH1 0x40 DUP3 ADD SWAP1 POP PUSH2 0x6739 PUSH0 DUP4 ADD DUP6 PUSH2 0x5F32 JUMP JUMPDEST PUSH2 0x6746 PUSH1 0x20 DUP4 ADD DUP5 PUSH2 0x5F32 JUMP JUMPDEST SWAP4 SWAP3 POP POP POP JUMP JUMPDEST PUSH0 DUP3 DUP3 MSTORE PUSH1 0x20 DUP3 ADD SWAP1 POP SWAP3 SWAP2 POP POP JUMP JUMPDEST PUSH0 PUSH2 0x6767 DUP3 PUSH2 0x62F1 JUMP JUMPDEST PUSH2 0x6771 DUP2 DUP6 PUSH2 0x674D JUMP JUMPDEST SWAP4 POP PUSH2 0x677C DUP4 PUSH2 0x630B JUMP JUMPDEST DUP1 PUSH0 JUMPDEST DUP4 DUP2 LT ISZERO PUSH2 0x67AC JUMPI DUP2 MLOAD PUSH2 0x6793 DUP9 DUP3 PUSH2 0x631A JUMP JUMPDEST SWAP8 POP PUSH2 0x679E DUP4 PUSH2 0x6331 JUMP JUMPDEST SWAP3 POP POP PUSH1 0x1 DUP2 ADD SWAP1 POP PUSH2 0x677F JUMP JUMPDEST POP DUP6 SWAP4 POP POP POP POP SWAP3 SWAP2 POP POP JUMP JUMPDEST PUSH0 PUSH1 0x20 DUP3 ADD SWAP1 POP DUP2 DUP2 SUB PUSH0 DUP4 ADD MSTORE PUSH2 0x67D1 DUP2 DUP5 PUSH2 0x675D JUMP JUMPDEST SWAP1 POP SWAP3 SWAP2 POP POP JUMP JUMPDEST PUSH0 DUP1 PUSH1 0x40 DUP4 DUP6 SUB SLT ISZERO PUSH2 0x67EF JUMPI PUSH2 0x67EE PUSH2 0x58A4 JUMP JUMPDEST JUMPDEST PUSH0 DUP4 ADD CALLDATALOAD PUSH8 0xFFFFFFFFFFFFFFFF DUP2 GT ISZERO PUSH2 0x680C JUMPI PUSH2 0x680B PUSH2 0x58A8 JUMP JUMPDEST JUMPDEST PUSH2 0x6818 DUP6 DUP3 DUP7 ADD PUSH2 0x5AB2 JUMP JUMPDEST SWAP3 POP POP PUSH1 0x20 DUP4 ADD CALLDATALOAD PUSH8 0xFFFFFFFFFFFFFFFF DUP2 GT ISZERO PUSH2 0x6839 JUMPI PUSH2 0x6838 PUSH2 0x58A8 JUMP JUMPDEST JUMPDEST PUSH2 0x6845 DUP6 DUP3 DUP7 ADD PUSH2 0x5AB2 JUMP JUMPDEST SWAP2 POP POP SWAP3 POP SWAP3 SWAP1 POP JUMP JUMPDEST PUSH0 PUSH1 0xA0 DUP3 ADD SWAP1 POP PUSH2 0x6862 PUSH0 DUP4 ADD DUP9 PUSH2 0x64DA JUMP JUMPDEST PUSH2 0x686F PUSH1 0x20 DUP4 ADD DUP8 PUSH2 0x66FE JUMP JUMPDEST PUSH2 0x687C PUSH1 0x40 DUP4 ADD DUP7 PUSH2 0x5F32 JUMP JUMPDEST PUSH2 0x6889 PUSH1 0x60 DUP4 ADD DUP6 PUSH2 0x5F32 JUMP JUMPDEST PUSH2 0x6896 PUSH1 0x80 DUP4 ADD DUP5 PUSH2 0x5F32 JUMP JUMPDEST SWAP7 SWAP6 POP POP POP POP POP POP JUMP JUMPDEST PUSH0 DUP1 PUSH0 DUP1 PUSH0 DUP1 PUSH1 0xC0 DUP8 DUP10 SUB SLT ISZERO PUSH2 0x68BA JUMPI PUSH2 0x68B9 PUSH2 0x58A4 JUMP JUMPDEST JUMPDEST PUSH0 DUP8 ADD CALLDATALOAD PUSH8 0xFFFFFFFFFFFFFFFF DUP2 GT ISZERO PUSH2 0x68D7 JUMPI PUSH2 0x68D6 PUSH2 0x58A8 JUMP JUMPDEST JUMPDEST PUSH2 0x68E3 DUP10 DUP3 DUP11 ADD PUSH2 0x5AB2 JUMP JUMPDEST SWAP7 POP POP PUSH1 0x20 DUP8 ADD CALLDATALOAD PUSH8 0xFFFFFFFFFFFFFFFF DUP2 GT ISZERO PUSH2 0x6904 JUMPI PUSH2 0x6903 PUSH2 0x58A8 JUMP JUMPDEST JUMPDEST PUSH2 0x6910 DUP10 DUP3 DUP11 ADD PUSH2 0x5AB2 JUMP JUMPDEST SWAP6 POP POP PUSH1 0x40 DUP8 ADD CALLDATALOAD PUSH8 0xFFFFFFFFFFFFFFFF DUP2 GT ISZERO PUSH2 0x6931 JUMPI PUSH2 0x6930 PUSH2 0x58A8 JUMP JUMPDEST JUMPDEST PUSH2 0x693D DUP10 DUP3 DUP11 ADD PUSH2 0x5AB2 JUMP JUMPDEST SWAP5 POP POP PUSH1 0x60 DUP8 ADD CALLDATALOAD PUSH8 0xFFFFFFFFFFFFFFFF DUP2 GT ISZERO PUSH2 0x695E JUMPI PUSH2 0x695D PUSH2 0x58A8 JUMP JUMPDEST JUMPDEST PUSH2 0x696A DUP10 DUP3 DUP11 ADD PUSH2 0x5AB2 JUMP JUMPDEST SWAP4 POP POP PUSH1 0x80 DUP8 ADD CALLDATALOAD PUSH8 0xFFFFFFFFFFFFFFFF DUP2 GT ISZERO PUSH2 0x698B JUMPI PUSH2 0x698A PUSH2 0x58A8 JUMP JUMPDEST JUMPDEST PUSH2 0x6997 DUP10 DUP3 DUP11 ADD PUSH2 0x5AB2 JUMP JUMPDEST SWAP3 POP POP PUSH1 0xA0 PUSH2 0x69A8 DUP10 DUP3 DUP11 ADD PUSH2 0x5986 JUMP JUMPDEST SWAP2 POP POP SWAP3 SWAP6 POP SWAP3 SWAP6 POP SWAP3 SWAP6 JUMP JUMPDEST PUSH0 PUSH8 0xFFFFFFFFFFFFFFFF DUP3 GT ISZERO PUSH2 0x69CF JUMPI PUSH2 0x69CE PUSH2 0x58C0 JUMP JUMPDEST JUMPDEST PUSH1 0x20 DUP3 MUL SWAP1 POP PUSH1 0x20 DUP2 ADD SWAP1 POP SWAP2 SWAP1 POP JUMP JUMPDEST PUSH0 PUSH2 0x69F2 PUSH2 0x69ED DUP5 PUSH2 0x69B5 JUMP JUMPDEST PUSH2 0x591E JUMP JUMPDEST SWAP1 POP DUP1 DUP4 DUP3 MSTORE PUSH1 0x20 DUP3 ADD SWAP1 POP PUSH1 0x20 DUP5 MUL DUP4 ADD DUP6 DUP2 GT ISZERO PUSH2 0x6A15 JUMPI PUSH2 0x6A14 PUSH2 0x5963 JUMP JUMPDEST JUMPDEST DUP4 JUMPDEST DUP2 DUP2 LT ISZERO PUSH2 0x6A3E JUMPI DUP1 PUSH2 0x6A2A DUP9 DUP3 PUSH2 0x5DF1 JUMP JUMPDEST DUP5 MSTORE PUSH1 0x20 DUP5 ADD SWAP4 POP POP PUSH1 0x20 DUP2 ADD SWAP1 POP PUSH2 0x6A17 JUMP JUMPDEST POP POP POP SWAP4 SWAP3 POP POP POP JUMP JUMPDEST PUSH0 DUP3 PUSH1 0x1F DUP4 ADD SLT PUSH2 0x6A5C JUMPI PUSH2 0x6A5B PUSH2 0x58AC JUMP JUMPDEST JUMPDEST DUP2 CALLDATALOAD PUSH2 0x6A6C DUP5 DUP3 PUSH1 0x20 DUP7 ADD PUSH2 0x69E0 JUMP JUMPDEST SWAP2 POP POP SWAP3 SWAP2 POP POP JUMP JUMPDEST PUSH0 DUP1 PUSH1 0x40 DUP4 DUP6 SUB SLT ISZERO PUSH2 0x6A8B JUMPI PUSH2 0x6A8A PUSH2 0x58A4 JUMP JUMPDEST JUMPDEST PUSH0 PUSH2 0x6A98 DUP6 DUP3 DUP7 ADD PUSH2 0x5986 JUMP JUMPDEST SWAP3 POP POP PUSH1 0x20 DUP4 ADD CALLDATALOAD PUSH8 0xFFFFFFFFFFFFFFFF DUP2 GT ISZERO PUSH2 0x6AB9 JUMPI PUSH2 0x6AB8 PUSH2 0x58A8 JUMP JUMPDEST JUMPDEST PUSH2 0x6AC5 DUP6 DUP3 DUP7 ADD PUSH2 0x6A48 JUMP JUMPDEST SWAP2 POP POP SWAP3 POP SWAP3 SWAP1 POP JUMP JUMPDEST PUSH1 0x60 DUP3 ADD PUSH0 DUP3 ADD MLOAD PUSH2 0x6AE3 PUSH0 DUP6 ADD DUP3 PUSH2 0x6219 JUMP JUMPDEST POP PUSH1 0x20 DUP3 ADD MLOAD PUSH2 0x6AF6 PUSH1 0x20 DUP6 ADD DUP3 PUSH2 0x620A JUMP JUMPDEST POP PUSH1 0x40 DUP3 ADD MLOAD PUSH2 0x6B09 PUSH1 0x40 DUP6 ADD DUP3 PUSH2 0x620A JUMP JUMPDEST POP POP POP POP JUMP JUMPDEST PUSH0 PUSH1 0x60 DUP3 ADD SWAP1 POP PUSH2 0x6B22 PUSH0 DUP4 ADD DUP5 PUSH2 0x6ACF JUMP JUMPDEST SWAP3 SWAP2 POP POP JUMP JUMPDEST PUSH32 0x4E487B7100000000000000000000000000000000000000000000000000000000 PUSH0 MSTORE PUSH1 0x11 PUSH1 0x4 MSTORE PUSH1 0x24 PUSH0 REVERT JUMPDEST PUSH0 PUSH2 0x6B5F DUP3 PUSH2 0x5967 JUMP JUMPDEST SWAP2 POP PUSH2 0x6B6A DUP4 PUSH2 0x5967 JUMP JUMPDEST SWAP3 POP DUP3 DUP3 ADD SWAP1 POP DUP1 DUP3 GT ISZERO PUSH2 0x6B82 JUMPI PUSH2 0x6B81 PUSH2 0x6B28 JUMP JUMPDEST JUMPDEST SWAP3 SWAP2 POP POP JUMP JUMPDEST PUSH32 0x557365722073746F72616765206C696D69742065786365656465642E00000000 PUSH0 DUP3 ADD MSTORE POP JUMP JUMPDEST PUSH0 PUSH2 0x6BBC PUSH1 0x1C DUP4 PUSH2 0x5F64 JUMP JUMPDEST SWAP2 POP PUSH2 0x6BC7 DUP3 PUSH2 0x6B88 JUMP JUMPDEST PUSH1 0x20 DUP3 ADD SWAP1 POP SWAP2 SWAP1 POP JUMP JUMPDEST PUSH0 PUSH1 0x20 DUP3 ADD SWAP1 POP DUP2 DUP2 SUB PUSH0 DUP4 ADD MSTORE PUSH2 0x6BE9 DUP2 PUSH2 0x6BB0 JUMP JUMPDEST SWAP1 POP SWAP2 SWAP1 POP JUMP JUMPDEST PUSH32 0x496E73756666696369656E7420617661696C61626C652073746F726167652066 PUSH0 DUP3 ADD MSTORE PUSH32 0x6F72205061794173596F75476F20757365722E00000000000000000000000000 PUSH1 0x20 DUP3 ADD MSTORE POP JUMP JUMPDEST PUSH0 PUSH2 0x6C4A PUSH1 0x33 DUP4 PUSH2 0x5F64 JUMP JUMPDEST SWAP2 POP PUSH2 0x6C55 DUP3 PUSH2 0x6BF0 JUMP JUMPDEST PUSH1 0x40 DUP3 ADD SWAP1 POP SWAP2 SWAP1 POP JUMP JUMPDEST PUSH0 PUSH1 0x20 DUP3 ADD SWAP1 POP DUP2 DUP2 SUB PUSH0 DUP4 ADD MSTORE PUSH2 0x6C77 DUP2 PUSH2 0x6C3E JUMP JUMPDEST SWAP1 POP SWAP2 SWAP1 POP JUMP JUMPDEST PUSH32 0x416476616E63656420757365722073746F72616765206C696D69742065786365 PUSH0 DUP3 ADD MSTORE PUSH32 0x656465642E000000000000000000000000000000000000000000000000000000 PUSH1 0x20 DUP3 ADD MSTORE POP JUMP JUMPDEST PUSH0 PUSH2 0x6CD8 PUSH1 0x25 DUP4 PUSH2 0x5F64 JUMP JUMPDEST SWAP2 POP PUSH2 0x6CE3 DUP3 PUSH2 0x6C7E JUMP JUMPDEST PUSH1 0x40 DUP3 ADD SWAP1 POP SWAP2 SWAP1 POP JUMP JUMPDEST PUSH0 PUSH1 0x20 DUP3 ADD SWAP1 POP DUP2 DUP2 SUB PUSH0 DUP4 ADD MSTORE PUSH2 0x6D05 DUP2 PUSH2 0x6CCC JUMP JUMPDEST SWAP1 POP SWAP2 SWAP1 POP JUMP JUMPDEST PUSH32 0x4672656520757365722073746F72616765206C696D6974206578636565646564 PUSH0 DUP3 ADD MSTORE PUSH32 0x2E00000000000000000000000000000000000000000000000000000000000000 PUSH1 0x20 DUP3 ADD MSTORE POP JUMP JUMPDEST PUSH0 PUSH2 0x6D66 PUSH1 0x21 DUP4 PUSH2 0x5F64 JUMP JUMPDEST SWAP2 POP PUSH2 0x6D71 DUP3 PUSH2 0x6D0C JUMP JUMPDEST PUSH1 0x40 DUP3 ADD SWAP1 POP SWAP2 SWAP1 POP JUMP JUMPDEST PUSH0 PUSH1 0x20 DUP3 ADD SWAP1 POP DUP2 DUP2 SUB PUSH0 DUP4 ADD MSTORE PUSH2 0x6D93 DUP2 PUSH2 0x6D5A JUMP JUMPDEST SWAP1 POP SWAP2 SWAP1 POP JUMP JUMPDEST PUSH32 0x4E487B7100000000000000000000000000000000000000000000000000000000 PUSH0 MSTORE PUSH1 0x32 PUSH1 0x4 MSTORE PUSH1 0x24 PUSH0 REVERT JUMPDEST PUSH0 DUP2 SWAP1 POP SWAP3 SWAP2 POP POP JUMP JUMPDEST PUSH0 PUSH2 0x6DDB DUP3 PUSH2 0x5F5A JUMP JUMPDEST PUSH2 0x6DE5 DUP2 DUP6 PUSH2 0x6DC7 JUMP JUMPDEST SWAP4 POP PUSH2 0x6DF5 DUP2 DUP6 PUSH1 0x20 DUP7 ADD PUSH2 0x5F74 JUMP JUMPDEST DUP1 DUP5 ADD SWAP2 POP POP SWAP3 SWAP2 POP POP JUMP JUMPDEST PUSH0 PUSH2 0x6E0C DUP3 DUP5 PUSH2 0x6DD1 JUMP JUMPDEST SWAP2 POP DUP2 SWAP1 POP SWAP3 SWAP2 POP POP JUMP JUMPDEST PUSH32 0x4E487B7100000000000000000000000000000000000000000000000000000000 PUSH0 MSTORE PUSH1 0x22 PUSH1 0x4 MSTORE PUSH1 0x24 PUSH0 REVERT JUMPDEST PUSH0 PUSH1 0x2 DUP3 DIV SWAP1 POP PUSH1 0x1 DUP3 AND DUP1 PUSH2 0x6E5B JUMPI PUSH1 0x7F DUP3 AND SWAP2 POP JUMPDEST PUSH1 0x20 DUP3 LT DUP2 SUB PUSH2 0x6E6E JUMPI PUSH2 0x6E6D PUSH2 0x6E17 JUMP JUMPDEST JUMPDEST POP SWAP2 SWAP1 POP JUMP JUMPDEST PUSH0 DUP2 SWAP1 POP DUP2 PUSH0 MSTORE PUSH1 0x20 PUSH0 KECCAK256 SWAP1 POP SWAP2 SWAP1 POP JUMP JUMPDEST PUSH0 PUSH1 0x20 PUSH1 0x1F DUP4 ADD DIV SWAP1 POP SWAP2 SWAP1 POP JUMP JUMPDEST PUSH0 DUP3 DUP3 SHL SWAP1 POP SWAP3 SWAP2 POP POP JUMP JUMPDEST PUSH0 PUSH1 0x8 DUP4 MUL PUSH2 0x6ED0 PUSH32 0xFFFFFFFFFFFFFFFFFFFFFFFFFFFFFFFFFFFFFFFFFFFFFFFFFFFFFFFFFFFFFFFF DUP3 PUSH2 0x6E95 JUMP JUMPDEST PUSH2 0x6EDA DUP7 DUP4 PUSH2 0x6E95 JUMP JUMPDEST SWAP6 POP DUP1 NOT DUP5 AND SWAP4 POP DUP1 DUP7 AND DUP5 OR SWAP3 POP POP POP SWAP4 SWAP3 POP POP POP JUMP JUMPDEST PUSH0 DUP2 SWAP1 POP SWAP2 SWAP1 POP JUMP JUMPDEST PUSH0 PUSH2 0x6F15 PUSH2 0x6F10 PUSH2 0x6F0B DUP5 PUSH2 0x5967 JUMP JUMPDEST PUSH2 0x6EF2 JUMP JUMPDEST PUSH2 0x5967 JUMP JUMPDEST SWAP1 POP SWAP2 SWAP1 POP JUMP JUMPDEST PUSH0 DUP2 SWAP1 POP SWAP2 SWAP1 POP JUMP JUMPDEST PUSH2 0x6F2E DUP4 PUSH2 0x6EFB JUMP JUMPDEST PUSH2 0x6F42 PUSH2 0x6F3A DUP3 PUSH2 0x6F1C JUMP JUMPDEST DUP5 DUP5 SLOAD PUSH2 0x6EA1 JUMP JUMPDEST DUP3 SSTORE POP POP POP POP JUMP JUMPDEST PUSH0 SWAP1 JUMP JUMPDEST PUSH2 0x6F56 PUSH2 0x6F4A JUMP JUMPDEST PUSH2 0x6F61 DUP2 DUP5 DUP5 PUSH2 0x6F25 JUMP JUMPDEST POP POP POP JUMP JUMPDEST JUMPDEST DUP2 DUP2 LT ISZERO PUSH2 0x6F84 JUMPI PUSH2 0x6F79 PUSH0 DUP3 PUSH2 0x6F4E JUMP JUMPDEST PUSH1 0x1 DUP2 ADD SWAP1 POP PUSH2 0x6F67 JUMP JUMPDEST POP POP JUMP JUMPDEST PUSH1 0x1F DUP3 GT ISZERO PUSH2 0x6FC9 JUMPI PUSH2 0x6F9A DUP2 PUSH2 0x6E74 JUMP JUMPDEST PUSH2 0x6FA3 DUP5 PUSH2 0x6E86 JUMP JUMPDEST DUP2 ADD PUSH1 0x20 DUP6 LT ISZERO PUSH2 0x6FB2 JUMPI DUP2 SWAP1 POP JUMPDEST PUSH2 0x6FC6 PUSH2 0x6FBE DUP6 PUSH2 0x6E86 JUMP JUMPDEST DUP4 ADD DUP3 PUSH2 0x6F66 JUMP JUMPDEST POP POP JUMPDEST POP POP POP JUMP JUMPDEST PUSH0 DUP3 DUP3 SHR SWAP1 POP SWAP3 SWAP2 POP POP JUMP JUMPDEST PUSH0 PUSH2 0x6FE9 PUSH0 NOT DUP5 PUSH1 0x8 MUL PUSH2 0x6FCE JUMP JUMPDEST NOT DUP1 DUP4 AND SWAP2 POP POP SWAP3 SWAP2 POP POP JUMP JUMPDEST PUSH0 PUSH2 0x7001 DUP4 DUP4 PUSH2 0x6FDA JUMP JUMPDEST SWAP2 POP DUP3 PUSH1 0x2 MUL DUP3 OR SWAP1 POP SWAP3 SWAP2 POP POP JUMP JUMPDEST PUSH2 0x701A DUP3 PUSH2 0x5F5A JUMP JUMPDEST PUSH8 0xFFFFFFFFFFFFFFFF DUP2 GT ISZERO PUSH2 0x7033 JUMPI PUSH2 0x7032 PUSH2 0x58C0 JUMP JUMPDEST JUMPDEST PUSH2 0x703D DUP3 SLOAD PUSH2 0x6E44 JUMP JUMPDEST PUSH2 0x7048 DUP3 DUP3 DUP6 PUSH2 0x6F88 JUMP JUMPDEST PUSH0 PUSH1 0x20 SWAP1 POP PUSH1 0x1F DUP4 GT PUSH1 0x1 DUP2 EQ PUSH2 0x7079 JUMPI PUSH0 DUP5 ISZERO PUSH2 0x7067 JUMPI DUP3 DUP8 ADD MLOAD SWAP1 POP JUMPDEST PUSH2 0x7071 DUP6 DUP3 PUSH2 0x6FF6 JUMP JUMPDEST DUP7 SSTORE POP PUSH2 0x70D8 JUMP JUMPDEST PUSH1 0x1F NOT DUP5 AND PUSH2 0x7087 DUP7 PUSH2 0x6E74 JUMP JUMPDEST PUSH0 JUMPDEST DUP3 DUP2 LT ISZERO PUSH2 0x70AE JUMPI DUP5 DUP10 ADD MLOAD DUP3 SSTORE PUSH1 0x1 DUP3 ADD SWAP2 POP PUSH1 0x20 DUP6 ADD SWAP5 POP PUSH1 0x20 DUP2 ADD SWAP1 POP PUSH2 0x7089 JUMP JUMPDEST DUP7 DUP4 LT ISZERO PUSH2 0x70CB JUMPI DUP5 DUP10 ADD MLOAD PUSH2 0x70C7 PUSH1 0x1F DUP10 AND DUP3 PUSH2 0x6FDA JUMP JUMPDEST DUP4 SSTORE POP JUMPDEST PUSH1 0x1 PUSH1 0x2 DUP9 MUL ADD DUP9 SSTORE POP POP POP JUMPDEST POP POP POP POP POP POP JUMP JUMPDEST PUSH0 PUSH2 0x70EA DUP3 PUSH2 0x5967 JUMP JUMPDEST SWAP2 POP PUSH32 0xFFFFFFFFFFFFFFFFFFFFFFFFFFFFFFFFFFFFFFFFFFFFFFFFFFFFFFFFFFFFFFFF DUP3 SUB PUSH2 0x711C JUMPI PUSH2 0x711B PUSH2 0x6B28 JUMP JUMPDEST JUMPDEST PUSH1 0x1 DUP3 ADD SWAP1 POP SWAP2 SWAP1 POP JUMP JUMPDEST PUSH32 0x496E73756666696369656E742062616C616E636520746F207472616E73666572 PUSH0 DUP3 ADD MSTORE POP JUMP JUMPDEST PUSH0 PUSH2 0x715B PUSH1 0x20 DUP4 PUSH2 0x5F64 JUMP JUMPDEST SWAP2 POP PUSH2 0x7166 DUP3 PUSH2 0x7127 JUMP JUMPDEST PUSH1 0x20 DUP3 ADD SWAP1 POP SWAP2 SWAP1 POP JUMP JUMPDEST PUSH0 PUSH1 0x20 DUP3 ADD SWAP1 POP DUP2 DUP2 SUB PUSH0 DUP4 ADD MSTORE PUSH2 0x7188 DUP2 PUSH2 0x714F JUMP JUMPDEST SWAP1 POP SWAP2 SWAP1 POP JUMP JUMPDEST PUSH0 DUP2 SWAP1 POP SWAP3 SWAP2 POP POP JUMP JUMPDEST POP JUMP JUMPDEST PUSH0 PUSH2 0x71A7 PUSH0 DUP4 PUSH2 0x718F JUMP JUMPDEST SWAP2 POP PUSH2 0x71B2 DUP3 PUSH2 0x7199 JUMP JUMPDEST PUSH0 DUP3 ADD SWAP1 POP SWAP2 SWAP1 POP JUMP JUMPDEST PUSH0 PUSH2 0x71C6 DUP3 PUSH2 0x719C JUMP JUMPDEST SWAP2 POP DUP2 SWAP1 POP SWAP2 SWAP1 POP JUMP JUMPDEST PUSH32 0x4661696C656420746F2073656E64204574686572000000000000000000000000 PUSH0 DUP3 ADD MSTORE POP JUMP JUMPDEST PUSH0 PUSH2 0x7204 PUSH1 0x14 DUP4 PUSH2 0x5F64 JUMP JUMPDEST SWAP2 POP PUSH2 0x720F DUP3 PUSH2 0x71D0 JUMP JUMPDEST PUSH1 0x20 DUP3 ADD SWAP1 POP SWAP2 SWAP1 POP JUMP JUMPDEST PUSH0 PUSH1 0x20 DUP3 ADD SWAP1 POP DUP2 DUP2 SUB PUSH0 DUP4 ADD MSTORE PUSH2 0x7231 DUP2 PUSH2 0x71F8 JUMP JUMPDEST SWAP1 POP SWAP2 SWAP1 POP JUMP JUMPDEST PUSH32 0x55736572206E6F7420726567697374657265642E000000000000000000000000 PUSH0 DUP3 ADD MSTORE POP JUMP JUMPDEST PUSH0 PUSH2 0x726C PUSH1 0x14 DUP4 PUSH2 0x5F64 JUMP JUMPDEST SWAP2 POP PUSH2 0x7277 DUP3 PUSH2 0x7238 JUMP JUMPDEST PUSH1 0x20 DUP3 ADD SWAP1 POP SWAP2 SWAP1 POP JUMP JUMPDEST PUSH0 PUSH1 0x20 DUP3 ADD SWAP1 POP DUP2 DUP2 SUB PUSH0 DUP4 ADD MSTORE PUSH2 0x7299 DUP2 PUSH2 0x7260 JUMP JUMPDEST SWAP1 POP SWAP2 SWAP1 POP JUMP JUMPDEST PUSH32 0x6164644E6F64653A20496E76616C6964205F6E6F646541646472657373202D20 PUSH0 DUP3 ADD MSTORE PUSH32 0x4E6F646520416C72656164792065786973747300000000000000000000000000 PUSH1 0x20 DUP3 ADD MSTORE POP JUMP JUMPDEST PUSH0 PUSH2 0x72FA PUSH1 0x33 DUP4 PUSH2 0x5F64 JUMP JUMPDEST SWAP2 POP PUSH2 0x7305 DUP3 PUSH2 0x72A0 JUMP JUMPDEST PUSH1 0x40 DUP3 ADD SWAP1 POP SWAP2 SWAP1 POP JUMP JUMPDEST PUSH0 PUSH1 0x20 DUP3 ADD SWAP1 POP DUP2 DUP2 SUB PUSH0 DUP4 ADD MSTORE PUSH2 0x7327 DUP2 PUSH2 0x72EE JUMP JUMPDEST SWAP1 POP SWAP2 SWAP1 POP JUMP JUMPDEST PUSH32 0x496E636F7272656374207374616B696E6720616D6F756E742E00000000000000 PUSH0 DUP3 ADD MSTORE POP JUMP JUMPDEST PUSH0 PUSH2 0x7362 PUSH1 0x19 DUP4 PUSH2 0x5F64 JUMP JUMPDEST SWAP2 POP PUSH2 0x736D DUP3 PUSH2 0x732E JUMP JUMPDEST PUSH1 0x20 DUP3 ADD SWAP1 POP SWAP2 SWAP1 POP JUMP JUMPDEST PUSH0 PUSH1 0x20 DUP3 ADD SWAP1 POP DUP2 DUP2 SUB PUSH0 DUP4 ADD MSTORE PUSH2 0x738F DUP2 PUSH2 0x7356 JUMP JUMPDEST SWAP1 POP SWAP2 SWAP1 POP JUMP JUMPDEST PUSH32 0x4E6F646520697320616C726561647920666C6167676564206173206120626164 PUSH0 DUP3 ADD MSTORE PUSH32 0x206163746F722E00000000000000000000000000000000000000000000000000 PUSH1 0x20 DUP3 ADD MSTORE POP JUMP JUMPDEST PUSH0 PUSH2 0x73F0 PUSH1 0x27 DUP4 PUSH2 0x5F64 JUMP JUMPDEST SWAP2 POP PUSH2 0x73FB DUP3 PUSH2 0x7396 JUMP JUMPDEST PUSH1 0x40 DUP3 ADD SWAP1 POP SWAP2 SWAP1 POP JUMP JUMPDEST PUSH0 PUSH1 0x20 DUP3 ADD SWAP1 POP DUP2 DUP2 SUB PUSH0 DUP4 ADD MSTORE PUSH2 0x741D DUP2 PUSH2 0x73E4 JUMP JUMPDEST SWAP1 POP SWAP2 SWAP1 POP JUMP JUMPDEST PUSH32 0x666C616741734261644163746F723A20496E76616C6964205F6E6F6465416464 PUSH0 DUP3 ADD MSTORE PUSH32 0x72657373202D204E6F646520446F6573204E4F54206578697374000000000000 PUSH1 0x20 DUP3 ADD MSTORE POP JUMP JUMPDEST PUSH0 PUSH2 0x747E PUSH1 0x3A DUP4 PUSH2 0x5F64 JUMP JUMPDEST SWAP2 POP PUSH2 0x7489 DUP3 PUSH2 0x7424 JUMP JUMPDEST PUSH1 0x40 DUP3 ADD SWAP1 POP SWAP2 SWAP1 POP JUMP JUMPDEST PUSH0 PUSH1 0x20 DUP3 ADD SWAP1 POP DUP2 DUP2 SUB PUSH0 DUP4 ADD MSTORE PUSH2 0x74AB DUP2 PUSH2 0x7472 JUMP JUMPDEST SWAP1 POP SWAP2 SWAP1 POP JUMP JUMPDEST PUSH32 0x43616E6E6F74207570677261646520746F204672656520746965722E00000000 PUSH0 DUP3 ADD MSTORE POP JUMP JUMPDEST PUSH0 PUSH2 0x74E6 PUSH1 0x1C DUP4 PUSH2 0x5F64 JUMP JUMPDEST SWAP2 POP PUSH2 0x74F1 DUP3 PUSH2 0x74B2 JUMP JUMPDEST PUSH1 0x20 DUP3 ADD SWAP1 POP SWAP2 SWAP1 POP JUMP JUMPDEST PUSH0 PUSH1 0x20 DUP3 ADD SWAP1 POP DUP2 DUP2 SUB PUSH0 DUP4 ADD MSTORE PUSH2 0x7513 DUP2 PUSH2 0x74DA JUMP JUMPDEST SWAP1 POP SWAP2 SWAP1 POP JUMP JUMPDEST PUSH32 0x496E636F7272656374207061796D656E7420666F7220416476616E6365642074 PUSH0 DUP3 ADD MSTORE PUSH32 0x6965722E00000000000000000000000000000000000000000000000000000000 PUSH1 0x20 DUP3 ADD MSTORE POP JUMP JUMPDEST PUSH0 PUSH2 0x7574 PUSH1 0x24 DUP4 PUSH2 0x5F64 JUMP JUMPDEST SWAP2 POP PUSH2 0x757F DUP3 PUSH2 0x751A JUMP JUMPDEST PUSH1 0x40 DUP3 ADD SWAP1 POP SWAP2 SWAP1 POP JUMP JUMPDEST PUSH0 PUSH1 0x20 DUP3 ADD SWAP1 POP DUP2 DUP2 SUB PUSH0 DUP4 ADD MSTORE PUSH2 0x75A1 DUP2 PUSH2 0x7568 JUMP JUMPDEST SWAP1 POP SWAP2 SWAP1 POP JUMP JUMPDEST PUSH32 0x416C7265616479206F6E205061794173596F75476F20746965722E0000000000 PUSH0 DUP3 ADD MSTORE POP JUMP JUMPDEST PUSH0 PUSH2 0x75DC PUSH1 0x1B DUP4 PUSH2 0x5F64 JUMP JUMPDEST SWAP2 POP PUSH2 0x75E7 DUP3 PUSH2 0x75A8 JUMP JUMPDEST PUSH1 0x20 DUP3 ADD SWAP1 POP SWAP2 SWAP1 POP JUMP JUMPDEST PUSH0 PUSH1 0x20 DUP3 ADD SWAP1 POP DUP2 DUP2 SUB PUSH0 DUP4 ADD MSTORE PUSH2 0x7609 DUP2 PUSH2 0x75D0 JUMP JUMPDEST SWAP1 POP SWAP2 SWAP1 POP JUMP JUMPDEST PUSH32 0x4E487B7100000000000000000000000000000000000000000000000000000000 PUSH0 MSTORE PUSH1 0x12 PUSH1 0x4 MSTORE PUSH1 0x24 PUSH0 REVERT JUMPDEST PUSH0 PUSH2 0x7647 DUP3 PUSH2 0x5967 JUMP JUMPDEST SWAP2 POP PUSH2 0x7652 DUP4 PUSH2 0x5967 JUMP JUMPDEST SWAP3 POP DUP3 PUSH2 0x7662 JUMPI PUSH2 0x7661 PUSH2 0x7610 JUMP JUMPDEST JUMPDEST DUP3 DUP3 DIV SWAP1 POP SWAP3 SWAP2 POP POP JUMP JUMPDEST PUSH0 PUSH1 0x40 DUP3 ADD SWAP1 POP PUSH2 0x7680 PUSH0 DUP4 ADD DUP6 PUSH2 0x5E6E JUMP JUMPDEST PUSH2 0x768D PUSH1 0x20 DUP4 ADD DUP5 PUSH2 0x66FE JUMP JUMPDEST SWAP4 SWAP3 POP POP POP JUMP JUMPDEST PUSH32 0x5573657220616C726561647920726567697374657265642E0000000000000000 PUSH0 DUP3 ADD MSTORE POP JUMP JUMPDEST PUSH0 PUSH2 0x76C8 PUSH1 0x18 DUP4 PUSH2 0x5F64 JUMP JUMPDEST SWAP2 POP PUSH2 0x76D3 DUP3 PUSH2 0x7694 JUMP JUMPDEST PUSH1 0x20 DUP3 ADD SWAP1 POP SWAP2 SWAP1 POP JUMP JUMPDEST PUSH0 PUSH1 0x20 DUP3 ADD SWAP1 POP DUP2 DUP2 SUB PUSH0 DUP4 ADD MSTORE PUSH2 0x76F5 DUP2 PUSH2 0x76BC JUMP JUMPDEST SWAP1 POP SWAP2 SWAP1 POP JUMP JUMPDEST PUSH0 PUSH2 0x7706 DUP3 PUSH2 0x5967 JUMP JUMPDEST SWAP2 POP PUSH2 0x7711 DUP4 PUSH2 0x5967 JUMP JUMPDEST SWAP3 POP DUP3 DUP3 MUL PUSH2 0x771F DUP2 PUSH2 0x5967 JUMP JUMPDEST SWAP2 POP DUP3 DUP3 DIV DUP5 EQ DUP4 ISZERO OR PUSH2 0x7736 JUMPI PUSH2 0x7735 PUSH2 0x6B28 JUMP JUMPDEST JUMPDEST POP SWAP3 SWAP2 POP POP JUMP JUMPDEST PUSH0 PUSH2 0x7747 DUP3 PUSH2 0x5967 JUMP JUMPDEST SWAP2 POP PUSH2 0x7752 DUP4 PUSH2 0x5967 JUMP JUMPDEST SWAP3 POP DUP3 DUP3 SUB SWAP1 POP DUP2 DUP2 GT ISZERO PUSH2 0x776A JUMPI PUSH2 0x7769 PUSH2 0x6B28 JUMP JUMPDEST JUMPDEST SWAP3 SWAP2 POP POP JUMP JUMPDEST PUSH32 0x4E6F646520666C6167676564206173206120626164206163746F722E00000000 PUSH0 DUP3 ADD MSTORE POP JUMP JUMPDEST PUSH0 PUSH2 0x77A4 PUSH1 0x1C DUP4 PUSH2 0x5F64 JUMP JUMPDEST SWAP2 POP PUSH2 0x77AF DUP3 PUSH2 0x7770 JUMP JUMPDEST PUSH1 0x20 DUP3 ADD SWAP1 POP SWAP2 SWAP1 POP JUMP JUMPDEST PUSH0 PUSH1 0x20 DUP3 ADD SWAP1 POP DUP2 DUP2 SUB PUSH0 DUP4 ADD MSTORE PUSH2 0x77D1 DUP2 PUSH2 0x7798 JUMP JUMPDEST SWAP1 POP SWAP2 SWAP1 POP JUMP JUMPDEST PUSH32 0x4E487B7100000000000000000000000000000000000000000000000000000000 PUSH0 MSTORE PUSH1 0x31 PUSH1 0x4 MSTORE PUSH1 0x24 PUSH0 REVERT JUMPDEST PUSH0 PUSH1 0x40 DUP3 ADD SWAP1 POP PUSH2 0x7818 PUSH0 DUP4 ADD DUP6 PUSH2 0x5E6E JUMP JUMPDEST DUP2 DUP2 SUB PUSH1 0x20 DUP4 ADD MSTORE PUSH2 0x782A DUP2 DUP5 PUSH2 0x5F9C JUMP JUMPDEST SWAP1 POP SWAP4 SWAP3 POP POP POP JUMP JUMPDEST PUSH32 0x72657472696576654368756E6B4E6F64654164647265737365733A20496E7661 PUSH0 DUP3 ADD MSTORE PUSH32 0x6C6964205F6E6F646541646472657373202D204E6F646520446F6573204E4F54 PUSH1 0x20 DUP3 ADD MSTORE PUSH32 0x2065786973740000000000000000000000000000000000000000000000000000 PUSH1 0x40 DUP3 ADD MSTORE POP JUMP JUMPDEST PUSH0 PUSH2 0x78B3 PUSH1 0x46 DUP4 PUSH2 0x5F64 JUMP JUMPDEST SWAP2 POP PUSH2 0x78BE DUP3 PUSH2 0x7833 JUMP JUMPDEST PUSH1 0x60 DUP3 ADD SWAP1 POP SWAP2 SWAP1 POP JUMP JUMPDEST PUSH0 PUSH1 0x20 DUP3 ADD SWAP1 POP DUP2 DUP2 SUB PUSH0 DUP4 ADD MSTORE PUSH2 0x78E0 DUP2 PUSH2 0x78A7 JUMP JUMPDEST SWAP1 POP SWAP2 SWAP1 POP JUMP JUMPDEST PUSH0 PUSH2 0x78F1 DUP3 PUSH2 0x5967 JUMP JUMPDEST SWAP2 POP PUSH2 0x78FC DUP4 PUSH2 0x5967 JUMP JUMPDEST SWAP3 POP DUP3 PUSH2 0x790C JUMPI PUSH2 0x790B PUSH2 0x7610 JUMP JUMPDEST JUMPDEST DUP3 DUP3 MOD SWAP1 POP SWAP3 SWAP2 POP POP JUMP JUMPDEST PUSH32 0x4E6F74206F6E205061794173596F75476F20746965722E000000000000000000 PUSH0 DUP3 ADD MSTORE POP JUMP JUMPDEST PUSH0 PUSH2 0x794B PUSH1 0x17 DUP4 PUSH2 0x5F64 JUMP JUMPDEST SWAP2 POP PUSH2 0x7956 DUP3 PUSH2 0x7917 JUMP JUMPDEST PUSH1 0x20 DUP3 ADD SWAP1 POP SWAP2 SWAP1 POP JUMP JUMPDEST PUSH0 PUSH1 0x20 DUP3 ADD SWAP1 POP DUP2 DUP2 SUB PUSH0 DUP4 ADD MSTORE PUSH2 0x7978 DUP2 PUSH2 0x793F JUMP JUMPDEST SWAP1 POP SWAP2 SWAP1 POP JUMP JUMPDEST PUSH32 0x67657446696C65486173683A20496E76616C6964205F66696C65496400000000 PUSH0 DUP3 ADD MSTORE POP JUMP JUMPDEST PUSH0 PUSH2 0x79B3 PUSH1 0x1C DUP4 PUSH2 0x5F64 JUMP JUMPDEST SWAP2 POP PUSH2 0x79BE DUP3 PUSH2 0x797F JUMP JUMPDEST PUSH1 0x20 DUP3 ADD SWAP1 POP SWAP2 SWAP1 POP JUMP JUMPDEST PUSH0 PUSH1 0x20 DUP3 ADD SWAP1 POP DUP2 DUP2 SUB PUSH0 DUP4 ADD MSTORE PUSH2 0x79E0 DUP2 PUSH2 0x79A7 JUMP JUMPDEST SWAP1 POP SWAP2 SWAP1 POP JUMP JUMPDEST PUSH32 0x73746F72654368756E6B496E4E6F64653A20496E76616C6964205F6E6F646541 PUSH0 DUP3 ADD MSTORE PUSH32 0x646472657373202D204E6F646520446F6573204E4F5420657869737400000000 PUSH1 0x20 DUP3 ADD MSTORE POP JUMP JUMPDEST PUSH0 PUSH2 0x7A41 PUSH1 0x3C DUP4 PUSH2 0x5F64 JUMP JUMPDEST SWAP2 POP PUSH2 0x7A4C DUP3 PUSH2 0x79E7 JUMP JUMPDEST PUSH1 0x40 DUP3 ADD SWAP1 POP SWAP2 SWAP1 POP JUMP JUMPDEST PUSH0 PUSH1 0x20 DUP3 ADD SWAP1 POP DUP2 DUP2 SUB PUSH0 DUP4 ADD MSTORE PUSH2 0x7A6E DUP2 PUSH2 0x7A35 JUMP JUMPDEST SWAP1 POP SWAP2 SWAP1 POP JUMP JUMPDEST PUSH32 0x73746F726546696C65486173683A20496E76616C69642073656E646572000000 PUSH0 DUP3 ADD MSTORE POP JUMP JUMPDEST PUSH0 PUSH2 0x7AA9 PUSH1 0x1D DUP4 PUSH2 0x5F64 JUMP JUMPDEST SWAP2 POP PUSH2 0x7AB4 DUP3 PUSH2 0x7A75 JUMP JUMPDEST PUSH1 0x20 DUP3 ADD SWAP1 POP SWAP2 SWAP1 POP JUMP JUMPDEST PUSH0 PUSH1 0x20 DUP3 ADD SWAP1 POP DUP2 DUP2 SUB PUSH0 DUP4 ADD MSTORE PUSH2 0x7AD6 DUP2 PUSH2 0x7A9D JUMP JUMPDEST SWAP1 POP SWAP2 SWAP1 POP JUMP JUMPDEST PUSH32 0x73746F726546696C65486173683A20496E76616C6964205F66696C6548617368 PUSH0 DUP3 ADD MSTORE POP JUMP JUMPDEST PUSH0 PUSH2 0x7B11 PUSH1 0x20 DUP4 PUSH2 0x5F64 JUMP JUMPDEST SWAP2 POP PUSH2 0x7B1C DUP3 PUSH2 0x7ADD JUMP JUMPDEST PUSH1 0x20 DUP3 ADD SWAP1 POP SWAP2 SWAP1 POP JUMP JUMPDEST PUSH0 PUSH1 0x20 DUP3 ADD SWAP1 POP DUP2 DUP2 SUB PUSH0 DUP4 ADD MSTORE PUSH2 0x7B3E DUP2 PUSH2 0x7B05 JUMP JUMPDEST SWAP1 POP SWAP2 SWAP1 POP JUMP JUMPDEST PUSH32 0x73746F726546696C65486173683A20496E76616C6964205F66696C6549640000 PUSH0 DUP3 ADD MSTORE POP JUMP JUMPDEST PUSH0 PUSH2 0x7B79 PUSH1 0x1E DUP4 PUSH2 0x5F64 JUMP JUMPDEST SWAP2 POP PUSH2 0x7B84 DUP3 PUSH2 0x7B45 JUMP JUMPDEST PUSH1 0x20 DUP3 ADD SWAP1 POP SWAP2 SWAP1 POP JUMP JUMPDEST PUSH0 PUSH1 0x20 DUP3 ADD SWAP1 POP DUP2 DUP2 SUB PUSH0 DUP4 ADD MSTORE PUSH2 0x7BA6 DUP2 PUSH2 0x7B6D JUMP JUMPDEST SWAP1 POP SWAP2 SWAP1 POP JUMP JUMPDEST PUSH0 PUSH1 0xE0 DUP3 ADD SWAP1 POP DUP2 DUP2 SUB PUSH0 DUP4 ADD MSTORE PUSH2 0x7BC5 DUP2 DUP11 PUSH2 0x5F9C JUMP JUMPDEST SWAP1 POP DUP2 DUP2 SUB PUSH1 0x20 DUP4 ADD MSTORE PUSH2 0x7BD9 DUP2 DUP10 PUSH2 0x5F9C JUMP JUMPDEST SWAP1 POP DUP2 DUP2 SUB PUSH1 0x40 DUP4 ADD MSTORE PUSH2 0x7BED DUP2 DUP9 PUSH2 0x5F9C JUMP JUMPDEST SWAP1 POP DUP2 DUP2 SUB PUSH1 0x60 DUP4 ADD MSTORE PUSH2 0x7C01 DUP2 DUP8 PUSH2 0x5F9C JUMP JUMPDEST SWAP1 POP PUSH2 0x7C10 PUSH1 0x80 DUP4 ADD DUP7 PUSH2 0x5F32 JUMP JUMPDEST PUSH2 0x7C1D PUSH1 0xA0 DUP4 ADD DUP6 PUSH2 0x5F32 JUMP JUMPDEST PUSH2 0x7C2A PUSH1 0xC0 DUP4 ADD DUP5 PUSH2 0x5E6E JUMP JUMPDEST SWAP9 SWAP8 POP POP POP POP POP POP POP POP JUMP JUMPDEST PUSH32 0x757064617465417661696C61626C6553746F726167653A20496E76616C696420 PUSH0 DUP3 ADD MSTORE PUSH32 0x5F6E6F646541646472657373202D204E6F646520446F6573204E4F5420657869 PUSH1 0x20 DUP3 ADD MSTORE PUSH32 0x7374000000000000000000000000000000000000000000000000000000000000 PUSH1 0x40 DUP3 ADD MSTORE POP JUMP JUMPDEST PUSH0 PUSH2 0x7CB6 PUSH1 0x42 DUP4 PUSH2 0x5F64 JUMP JUMPDEST SWAP2 POP PUSH2 0x7CC1 DUP3 PUSH2 0x7C36 JUMP JUMPDEST PUSH1 0x60 DUP3 ADD SWAP1 POP SWAP2 SWAP1 POP JUMP JUMPDEST PUSH0 PUSH1 0x20 DUP3 ADD SWAP1 POP DUP2 DUP2 SUB PUSH0 DUP4 ADD MSTORE PUSH2 0x7CE3 DUP2 PUSH2 0x7CAA JUMP JUMPDEST SWAP1 POP SWAP2 SWAP1 POP JUMP JUMPDEST PUSH0 PUSH1 0x60 DUP3 ADD SWAP1 POP DUP2 DUP2 SUB PUSH0 DUP4 ADD MSTORE PUSH2 0x7D02 DUP2 DUP7 PUSH2 0x5F9C JUMP JUMPDEST SWAP1 POP PUSH2 0x7D11 PUSH1 0x20 DUP4 ADD DUP6 PUSH2 0x5F32 JUMP JUMPDEST PUSH2 0x7D1E PUSH1 0x40 DUP4 ADD DUP5 PUSH2 0x5F32 JUMP JUMPDEST SWAP5 SWAP4 POP POP POP POP JUMP JUMPDEST PUSH32 0x64656C6574654368756E6B496E4E6F64653A20496E76616C6964205F66696C65 PUSH0 DUP3 ADD MSTORE PUSH32 0x4964000000000000000000000000000000000000000000000000000000000000 PUSH1 0x20 DUP3 ADD MSTORE POP JUMP JUMPDEST PUSH0 PUSH2 0x7D80 PUSH1 0x22 DUP4 PUSH2 0x5F64 JUMP JUMPDEST SWAP2 POP PUSH2 0x7D8B DUP3 PUSH2 0x7D26 JUMP JUMPDEST PUSH1 0x40 DUP3 ADD SWAP1 POP SWAP2 SWAP1 POP JUMP JUMPDEST PUSH0 PUSH1 0x20 DUP3 ADD SWAP1 POP DUP2 DUP2 SUB PUSH0 DUP4 ADD MSTORE PUSH2 0x7DAD DUP2 PUSH2 0x7D74 JUMP JUMPDEST SWAP1 POP SWAP2 SWAP1 POP JUMP JUMPDEST PUSH32 0x64656C65746546696C65486173683A20496E76616C6964205F66696C65496400 PUSH0 DUP3 ADD MSTORE POP JUMP JUMPDEST PUSH0 PUSH2 0x7DE8 PUSH1 0x1F DUP4 PUSH2 0x5F64 JUMP JUMPDEST SWAP2 POP PUSH2 0x7DF3 DUP3 PUSH2 0x7DB4 JUMP JUMPDEST PUSH1 0x20 DUP3 ADD SWAP1 POP SWAP2 SWAP1 POP JUMP JUMPDEST PUSH0 PUSH1 0x20 DUP3 ADD SWAP1 POP DUP2 DUP2 SUB PUSH0 DUP4 ADD MSTORE PUSH2 0x7E15 DUP2 PUSH2 0x7DDC JUMP JUMPDEST SWAP1 POP SWAP2 SWAP1 POP JUMP JUMPDEST PUSH32 0x64656C65746546696C65486173683A20496E76616C69642066696C654964546F PUSH0 DUP3 ADD MSTORE PUSH32 0x4861736800000000000000000000000000000000000000000000000000000000 PUSH1 0x20 DUP3 ADD MSTORE POP JUMP JUMPDEST PUSH0 PUSH2 0x7E76 PUSH1 0x24 DUP4 PUSH2 0x5F64 JUMP JUMPDEST SWAP2 POP PUSH2 0x7E81 DUP3 PUSH2 0x7E1C JUMP JUMPDEST PUSH1 0x40 DUP3 ADD SWAP1 POP SWAP2 SWAP1 POP JUMP JUMPDEST PUSH0 PUSH1 0x20 DUP3 ADD SWAP1 POP DUP2 DUP2 SUB PUSH0 DUP4 ADD MSTORE PUSH2 0x7EA3 DUP2 PUSH2 0x7E6A JUMP JUMPDEST SWAP1 POP SWAP2 SWAP1 POP JUMP JUMPDEST PUSH0 PUSH1 0x40 DUP3 ADD SWAP1 POP DUP2 DUP2 SUB PUSH0 DUP4 ADD MSTORE PUSH2 0x7EC2 DUP2 DUP6 PUSH2 0x5F9C JUMP JUMPDEST SWAP1 POP DUP2 DUP2 SUB PUSH1 0x20 DUP4 ADD MSTORE PUSH2 0x7ED6 DUP2 DUP5 PUSH2 0x5F9C JUMP JUMPDEST SWAP1 POP SWAP4 SWAP3 POP POP POP JUMP JUMPDEST PUSH32 0x4E487B7100000000000000000000000000000000000000000000000000000000 PUSH0 MSTORE PUSH1 0x51 PUSH1 0x4 MSTORE PUSH1 0x24 PUSH0 REVERT INVALID PUSH20 0x746F726546696C654D657461646174613A20496E PUSH23 0x616C6964205F66696C6553697A6573746F726546696C65 0x4D PUSH6 0x746164617461 GASPRICE KECCAK256 BLOBHASH PUSH15 0x76616C6964205F66696C6554797065 PUSH20 0x746F726546696C653A204E6F20617661696C6162 PUSH13 0x65206E6F64657320666F756E64 PUSH20 0x746F726546696C654D657461646174613A20496E PUSH23 0x616C6964205F756E69717565496473746F726546696C65 0x4D PUSH6 0x746164617461 GASPRICE KECCAK256 BLOBHASH PUSH15 0x76616C69642073656E646572726574 PUSH19 0x6965766546696C6544657461696C733A204669 PUSH13 0x65204E6F7420466F756E647265 PUSH21 0x726965766546696C6544657461696C733A20556E61 PUSH22 0x74686F72697A65642063616C6C657220616464726573 PUSH20 0x73746F726546696C654D657461646174613A2049 PUSH15 0x76616C6964205F66696C654E616D65 PUSH20 0x746F726546696C654D657461646174613A20496E PUSH23 0x616C6964205F66696C6548617368A26469706673582212 KECCAK256 LOG3 0x25 SWAP15 0xE8 0xAA 0xF8 0x23 DUP1 0xE8 0xB5 PUSH7 0x83EB58929BE26B PUSH30 0xB51105A71A7AF2EA1AD8FA240664736F6C63430008180033A26469706673 PC 0x22 SLT KECCAK256 CREATE2 0x22 0xCD SAR SLOAD PUSH18 0x8FDD3AEE1133EB46812C39D7A7059D99BA7 SHR 0xA6 SWAP13 JUMPDEST NUMBER PUSH15 0xE4AB64736F6C634300081800330000 "
		},
		"gasEstimates": {
			"creation": {
				"codeDepositCost": "7372600",
				"executionCost": "9553",
				"totalCost": "7382153"
			},
			"external": {
				"beforeAll()": "infinite",
				"testDeleteFileHash()": "infinite",
				"testInvalidateFileAuthenticity()": "infinite"
			}
		},
		"methodIdentifiers": {
			"beforeAll()": "7fea0d4b",
			"testDeleteFileHash()": "f36950b7",
			"testInvalidateFileAuthenticity()": "47d02198"
		}
	},
	"abi": [
		{
			"inputs": [],
			"name": "beforeAll",
			"outputs": [],
			"stateMutability": "nonpayable",
			"type": "function"
		},
		{
			"inputs": [],
			"name": "testDeleteFileHash",
			"outputs": [],
			"stateMutability": "nonpayable",
			"type": "function"
		},
		{
			"inputs": [],
			"name": "testInvalidateFileAuthenticity",
			"outputs": [],
			"stateMutability": "nonpayable",
			"type": "function"
		}
	]
}